THIS FILE IS DAMAGED

	COMPILATION LISTING OF SEGMENT cm_find_ci_to_alloc_datum
	Compiled by: Multics PL/I Compiler, Release 28e, of February 14, 1985
	Compiled at: Honeywell Multics Op. - System M
	Compiled on: 04/04/85  0951.7 mst Thu
	    Options: optimize map

        1 /* ***********************************************************
        2*   *                                                         *
        3*   * Copyright, (C) Honeywell Information Systems Inc., 1982 *
        4*   *                                                         *
        5*   *********************************************************** */
        6
        7
        8 /* DESCRIPTION:
        9*
       10*         This  routine  examines  a number of control intervals attempting to
       11*     find one which has enough free space in which to allocate a  datum  of  a
       12*     given  size.   If no control interval is found, one is allocated and that
       13*     control interval becomes the one inwhich to allocate the datum.
       14*
       15*          The caller supplies  the  number  of  bytes  required  to  hold  the
       16*     contents  of  the  datum  and  flags indicating whether a continued_datum
       17*     header, a coninued_continuation_datum header or no header is required.  A
       18*     starting point may be supplied (p_input_ci).  The routine  returns  the
       19*     control  interval found (p_return_ci) and a pointer to the bci_header of
       20*     the control interval (p_bci_header).
       21**/
       22
       23 /* HISTORY:
       24*
       25*Written by Matthew Pierret, 10/27/82.
       26*Modified:
       27*11/19/82 by Lindsey Spratt:  Changed to get the bci_header after allocating a
       28*	  new control interval.
       29*02/02/83 by Matthew Pierret: Upgraded to CM_INFO_VERSION_2. Added sub_err_
       30*            call to report problems getting the last CI. Changed to use
       31*            cm_opening_info$get_storage_record instead of getting the storage
       32*            record directly.
       33*07/19/83 by Matthew Pierret: Changed to allow for the space taken up by the
       34*            new datum slot in calculating the available free space.
       35*08/05/83 by Matthew Pierret: Changed to use
       36*            cm_determine_free_space$does_new_datum_fit, which returns a flag
       37*            indicating whether there is enough free space in which to fit the
       38*            new datum, accounting for a possible new slot and datum header.
       39*            Removed the obsolete dm_data_$area_ptr.
       40*05/21/84 by Matthew Pierret: Renamed include file dm_cm_cism_info to
       41*            dm_cism_info.  Added RETURN and ERROR_RETURN procedures. Changed
       42*            to use automatic code variable instead of p_code parameter.
       43*09/26/84 by Matthew Pierret: Renamed RETURN to RETURN_CI.  Changed GET_LAST_CI
       44*            to a function.  Changed CHECK_VERSION_CHAR_4 to CHECK_CI_VERSION.
       45*            Moved all includes out of internal subroutines, making references
       46*            to structures in those subroutines be by explicit pointer
       47*            reference.
       48**/
       49 
       50 /* format: style2,ind3 */
       51
       52 cm_find_ci_to_alloc_datum:
       53    proc (p_cm_info_ptr, p_datum_contents_length_in_bytes, p_input_ci, p_is_continued, p_is_continuation, p_bci_header_ptr,
       54         p_return_ci, p_code);
       55
       56
       57 /* START OF DECLARATIONS */
       58 /* Parameter */
       59
       60       dcl	    p_cm_info_ptr	       ptr parameter;
       61       dcl	    p_datum_contents_length_in_bytes
       62 			       fixed bin (35) parameter;
       63       dcl	    p_input_ci	       fixed bin (24) uns parameter;
       64       dcl	    p_is_continued	       bit (1) aligned parameter;
       65       dcl	    p_is_continuation      bit (1) aligned parameter;
       66       dcl	    p_bci_header_ptr       ptr;
       67       dcl	    p_return_ci	       fixed bin (24) uns parameter;
       68       dcl	    p_code	       fixed bin (35) parameter;
       69
       70 /* Automatic */
       71
       72       dcl	    code		       fixed bin (35);
       73       dcl	    (input_ci, last_ci, new_ci)
       74 			       fixed bin (24) uns init (0);
       75       dcl	    total_free_bytes       fixed bin (35) init (0);
       76       dcl	    fits_in_ci	       bit (1) aligned init ("0"b);
       77
       78 /* Based */
       79 /* Builtin */
       80
       81       dcl	    (null, unspec)	       builtin;
       82
       83 /* Constant */
       84
       85       dcl	    myname	       init ("cm_find_ci_to_alloc_datum") char (32) varying internal static
       86 			       options (constant);
       87       dcl	    BYTES_PER_WORD	       init (4) fixed bin internal static options (constant);
       88
       89 /* Entry */
       90
       91       dcl	    sub_err_	       entry () options (variable);
       92
       93 /* External */
       94
       95       dcl	    (
       96 	    dm_error_$ci_not_allocated,
       97 	    dm_error_$misformatted_ci,
       98 	    dm_error_$unimplemented_ci_version,
       99 	    error_table_$unimplemented_version
      100 	    )		       fixed bin (35) ext;
      101
      102 /* END OF DECLARATIONS */
      103 
      104       p_code, code = 0;
      105       input_ci = p_input_ci;
      106       cm_info_ptr = p_cm_info_ptr;
      107       call CHECK_VERSION ((cm_info.version), (CM_INFO_VERSION_2), "cm_info");
      108
      109       bci_header_ptr = p_bci_header_ptr;
      110       if unspec (bci_header) ^= "0"b
      111       then call CHECK_CI_VERSION (bci_header.layout_type);
      112
      113       if input_ci ^= 0 | (input_ci = 0 & cm_info.collection_id = HEADER_COLLECTION_ID)
      114       then
      115          do;
      116 	  if unspec (bci_header) = "0"b
      117 	  then
      118 	     do;
      119 	        call cm_get_bci_header (cm_info.file_oid, input_ci, bci_header_ptr, code);
      120 	        if code ^= 0
      121 	        then call ERROR_RETURN (code);
      122 	     end;
      123
      124 	  call cm_determine_free_space$does_new_datum_fit (bci_header_ptr, p_datum_contents_length_in_bytes, (0),
      125 	       p_is_continued, p_is_continuation, fits_in_ci, ("0"b), total_free_bytes);
      126
      127 	  if fits_in_ci
      128 	  then call RETURN_CI (input_ci);
      129          end;
      130
      131       last_ci = GET_LAST_CI (cm_info_ptr);
      132
      133       if input_ci ^= last_ci
      134       then
      135          do;
      136 	  call cm_get_bci_header (cm_info.file_oid, last_ci, bci_header_ptr, code);
      137 	  if code ^= 0
      138 	  then
      139 	     do;
      140 	        if code = dm_error_$ci_not_allocated | code = dm_error_$misformatted_ci
      141 	        then call sub_err_ (code, myname, ACTION_CANT_RESTART, null, 0,
      142 		        "^/This internal inconsistency was encountered attempting to get control^/interval ^d. The storage record for collection ^3bo claims this control^/interval is the last control interval in the collection."
      143 		        , last_ci, cm_info.collection_id);
      144
      145 	        else call ERROR_RETURN (code);
      146 	     end;
      147
      148 	  call cm_determine_free_space$does_new_datum_fit (bci_header_ptr, p_datum_contents_length_in_bytes, (0),
      149 	       p_is_continued, p_is_continuation, fits_in_ci, ("0"b), total_free_bytes);
      150
      151 	  if fits_in_ci
      152 	  then call RETURN_CI (last_ci);
      153          end;
      154
      155 /***** Still have not found a suitable control interval.  Allocate a new one. */
      156
      157       call cm_allocate_ci$info (cm_info_ptr, new_ci, code);
      158       if code ^= 0
      159       then call ERROR_RETURN (code);
      160
      161       call cm_get_bci_header (cm_info.file_oid, new_ci, bci_header_ptr, code);
      162       if code ^= 0
      163       then call ERROR_RETURN (code);
      164       else call RETURN_CI (new_ci);
      165
      166 MAIN_RETURN:
      167       return;
      168
      169
      170 RETURN_CI:
      171    proc (rc_p_return_ci);
      172
      173       dcl	    rc_p_return_ci	       fixed bin (24) uns;
      174
      175       p_return_ci = rc_p_return_ci;
      176       go to MAIN_RETURN;
      177
      178    end RETURN_CI;
      179
      180
      181 ERROR_RETURN:
      182    proc (er_p_code);
      183
      184       dcl	    er_p_code	       fixed bin (35);
      185
      186       p_code = er_p_code;
      187       go to MAIN_RETURN;
      188
      189    end ERROR_RETURN;
      190
      191 CHECK_VERSION:
      192    proc (cv_p_given_version, cv_p_correct_version, cv_p_structure_name);
      193
      194       dcl	    cv_p_structure_name    char (*);
      195       dcl	    cv_p_given_version     char (8) aligned;
      196       dcl	    cv_p_correct_version   char (8) aligned;
      197
      198       if cv_p_given_version ^= cv_p_correct_version
      199       then call sub_err_ (error_table_$unimplemented_version, myname, ACTION_CANT_RESTART, null, 0,
      200 	      "^/Expected version ^8a of ^a structure; received ^8a.", cv_p_correct_version, cv_p_structure_name,
      201 	      cv_p_given_version);
      202
      203       return;
      204
      205    end CHECK_VERSION;
      206
      207
      208 CHECK_CI_VERSION:
      209    proc (ccv_p_given_version);
      210
      211       dcl	    ccv_p_given_version    char (4) aligned;
      212
      213       if ccv_p_given_version ^= BASIC_CI_LAYOUT_1
      214       then call sub_err_ (dm_error_$unimplemented_ci_version, myname, ACTION_CANT_RESTART, null, 0,
      215 	      "^/Expected version ^a control interval; received ^a.", BASIC_CI_LAYOUT_1, ccv_p_given_version);
      216       else return;
      217
      218    end CHECK_CI_VERSION;
      219
      220 GET_LAST_CI:
      221    proc (glc_p_cm_info_ptr) returns (fixed bin (24) uns);
      222
      223       dcl	    glc_p_cm_info_ptr      ptr;
      224       dcl	    glc_collection_header_ptr
      225 			       ptr;
      226       dcl	    glc_code	       fixed bin (35);
      227
      228       glc_collection_header_ptr = glc_p_cm_info_ptr -> cm_info.header_ptr;
      229       call CHECK_VERSION (glc_collection_header_ptr -> collection_header.version, COLLECTION_HEADER_VERSION_2,
      230 	 "collection_header");
      231
      232       if glc_p_cm_info_ptr -> cm_info.storage_record_ptr = null ()
      233       then
      234          do;
      235 	  glc_code = 0;
      236 	  call cm_opening_info$get_storage_record (glc_p_cm_info_ptr, glc_code);
      237 	  if glc_code ^= 0
      238 	  then call ERROR_RETURN (glc_code);
      239          end;
      240
      241       if glc_collection_header_ptr -> collection_header.control_interval_storage_method
      242 	 = UNBLOCKED_CONTROL_INTERVAL_STORAGE_METHOD
      243       then return (glc_p_cm_info_ptr -> cm_info.storage_record_ptr -> unblocked_storage_record.last_control_interval);
      244       else return (glc_p_cm_info_ptr -> cm_info.storage_record_ptr -> blocked_storage_record.last_control_interval);
      245
      246    end GET_LAST_CI;
      247
  1     1 /* BEGIN INCLUDE FILE - dm_cm_info.incl.pl1 */
  1     2
  1     3 /* DESCRIPTION:
  1     4*        The cm_info structure is used to hold per-process opening information
  1     5*   about a collection.  It is generally allocated in the process' DM free
  1     6*   area, as returned by the function get_dm_free_area_.  The opening_manager_
  1     7*   is used to provide access the cm_info structure, keeping it in a hash
  1     8*   table keyed on file opening id and collection id combined.
  1     9*        Currently cm_info is never freed until the process terminates.  Each
  1    10*   time a new transaction is started, detected when the current transaction
  1    11*   id of a process differs from cm_info.current_transaction_id, the information
  1    12*   in cm_info is refreshed.  Storage record information is only refreshed on
  1    13*   demand, as most modules do not need the information in the storage record.
  1    14*   Instead, cm_info.storage_record_ptr is set to null (), but
  1    15*   cm_info.storage_record_buffer_ptr remains set to the previous value of
  1    16*   cm_info.storage_record_ptr.  When a refreshed copy of the storage record is
  1    17*   requested, it is placed at the location pointed to by
  1    18*   cm_info.storage_record_buffer_ptr, saving the expense of re-allocation.
  1    19**/
  1    20
  1    21 /* HISTORY:
  1    22*Written by Matthew Pierret, 10/27/82.
  1    23*Modified:
  1    24*01/25/83 by Matthew Pierret: Changed to version 2.  Added
  1    25*            storage_record_buffer_ptr. This points to the storage_record.
  1    26*            When cm_info is refreshed, storage_record_ptr is set to null,
  1    27*            but storage_record_buffer_ptr continues to point at where the
  1    28*            storage_record was. When the storge_record is again requested,
  1    29*            it is put back in the same place rather than allocating a new
  1    30*            storage_record.
  1    31*09/24/84 by Matthew Pierret:  Re-wrote DESCRIPTION section. Removed the
  1    32*            init clause from the version component.
  1    33**/
  1    34
  1    35 /* format: style2,ind3,ll79 */
  1    36
  1    37      dcl	   1 cm_info	      aligned based (cm_info_ptr),
  1    38 	     2 version	      char (8),
  1    39 	     2 current_txn_id     bit (36) aligned init ("0"b),
  1    40 	     2 file_oid	      bit (36) aligned init ("0"b),
  1    41 	     2 collection_id      bit (36) aligned init ("0"b),
  1    42 	     2 header_ptr	      ptr init (null),
  1    43 	     2 storage_record_ptr ptr init (null),
  1    44 	     2 storage_record_buffer_ptr
  1    45 			      ptr init (null);
  1    46
  1    47      dcl	   cm_info_ptr	      ptr init (null);
  1    48      dcl	   CM_INFO_VERSION_2      init ("cm_info2") char (8) aligned
  1    49 			      internal static options (constant);
  1    50
  1    51 /* END INCLUDE FILE - dm_cm_info.incl.pl1 */
      248
      249
  2     1 /* BEGIN INCLUDE FILE dm_cm_basic_ci.incl.pl1 */
  2     2
  2     3 /* DESCRIPTION:
  2     4*
  2     5*        The collection_manager_ manages the structure of the addressable
  2     6*   portion of a control interval.  The addressable portion is that portion of
  2     7*   a control interval which the file_manager_ will allow the
  2     8*   collection_manager_ to address.  In this description control interval will
  2     9*   be used to mean the addressable portion of a control interval.
  2    10*
  2    11*        A control interval is divided into four parts: the header, the datum
  2    12*   position table (also known as the slot table or slots), un-used space and
  2    13*   used space.  The beginning of the header is at offset 0, and the end of the
  2    14*   used space is at the end of the control interval (curently offset 4072).
  2    15*   Pictoriarly, a control interval is structured as follows:
  2    16*
  2    17*   ----------------------------------------------------------------------
  2    18*   |        || | | | | | ||               ||   | / / |       |/|   |    |
  2    19*   | Header || | slot  | || un-used space ||   |/ / /|       |/|   |    |
  2    20*   |        || | table | ||               ||   | / / |       |/|   |    |
  2    21*   |        || | | | | | ||               ||   |/ / /|       |/|   |    |
  2    22*   ----------------------------------------------------------------------
  2    23*                                           ^ ^    ^      ^    ^  ^   ^
  2    24*                                           | |    |      |    |  |   |
  2    25*                                           | |...........|.......|...|
  2    26*                        start of used space|      |           |      |
  2    27*                                                  |           |  each|
  2    28*                                          scattered free space|  is a used
  2    29*                                                                 datum
  2    30*
  2    31*      The basic_control_interval structure describes the header
  2    32*   (basic_control_interval.header, bci_header) and the slots
  2    33*   (basic_control_interval.datum_position_table, datum_slot for one only).
  2    34*   Each datum_slot contains the offset (in bytes) and the length (in bits) of
  2    35*   a datum in the used space.  If the offset is equal to FREE_SLOT (declared
  2    36*   in dm_cm_basic_ci_const.incl.pl1), the slot is un-used.  The slot also
  2    37*   contains flags describing the type of datum (see dm_cm_datum.incl.pl1).
  2    38**/
  2    39
  2    40 /* HISTORY:
  2    41*Written by Matthew Pierret, 02/07/82.
  2    42*Modified:
  2    43*03/25/82 by Matthew Pierret: Fixed alignment differences basic_control_interval
  2    44*            and its sub-structures.
  2    45*06/14/82 by Matthew Pierret: Removed common header and buffers. Changed
  2    46*            basic_ci_header to bci_header. Added previous_control_interval.
  2    47*07/12/82 by Matthew Pierret: Changed collection_id to be bit (36) aligned.
  2    48*10/29/82 by Matthew Pierret: Added flags to datum slots.
  2    49*11/10/82 by Matthew Pierret: Removed continued_datum_is_present flag, as it
  2    50*            is not used.
  2    51*03/28/84 by Matthew Pierret: Added the constants BCI_HEADER_LENGTH_IN_BYTES
  2    52*            and DATUM_POSITION_TABLE_OFFSET_IN_BYTES.
  2    53**/
  2    54
  2    55 /* format: style2 */
  2    56      dcl	   1 basic_control_interval
  2    57 			      aligned based (basic_control_interval_ptr),
  2    58 	     2 header	      like bci_header,
  2    59 	     2 datum_position_table
  2    60 			      (0 refer (basic_control_interval.number_of_datums)) like datum_slot;
  2    61
  2    62
  2    63      dcl	   1 bci_header	      aligned based (bci_header_ptr),
  2    64 	     2 layout_type	      char (4) aligned,
  2    65 	     2 collection_id      bit (36) aligned,
  2    66 	     2 next_control_interval
  2    67 			      fixed bin (24) uns unal,
  2    68 	     2 previous_control_interval
  2    69 			      fixed bin (24) uns unal,
  2    70 	     2 flags	      unal,
  2    71 	       3 continuation_datum_is_present
  2    72 			      bit (1) unal,
  2    73 	       3 free_slot_is_present
  2    74 			      bit (1) unal,
  2    75 	       3 must_be_zero     bit (4) unal,		/* reserved */
  2    76 	     2 scattered_free_space
  2    77 			      fixed bin (17) unal,
  2    78 	     2 start_of_used_space
  2    79 			      fixed bin (17) unal,
  2    80 	     2 number_of_datums   fixed bin (17) unal;
  2    81
  2    82      dcl	   1 datum_slot	      aligned based (datum_slot_ptr),
  2    83 	     2 flags	      unal,
  2    84 	       3 special_format_datum
  2    85 			      bit (1) unal,		/* reserved */
  2    86 	       3 is_continued     bit (1) unal,
  2    87 	       3 is_continuation  bit (1) unal,
  2    88 	       3 mbz	      bit (1) unal,		/* reserved */
  2    89 	     2 offset_in_bytes    fixed bin (15) uns unal,
  2    90 	     2 length_in_bits     fixed bin (17) uns unal;
  2    91
  2    92      dcl	   basic_control_interval_ptr
  2    93 			      ptr;
  2    94      dcl	   bci_header_ptr	      ptr;
  2    95      dcl	   datum_slot_ptr	      ptr;
  2    96
  2    97      dcl	   BASIC_CI_LAYOUT_1      char (4) aligned init ("bci1") internal static options (constant);
  2    98
  2    99 /* END INCLUDE FILE dm_cm_basic_ci.incl.pl1 */
      250
      251
  3     1 /* BEGIN INCLUDE FILE dm_cm_storage_record.incl.pl1 */
  3     2
  3     3 /* DESCRIPTION:
  3     4*
  3     5*        A storage record is an extension to the collection_header structure.
  3     6*   It is expected to be more volatile than collection_header and has a
  3     7*   different format depending on the control interval storage method in use
  3     8*   for the collection.  A storage record is stored as an element in the
  3     9*   file's Header Ä†Çclj                             Ä>¨ﬁñ48                                                         CLJones                         clj     Multics         J∫C„VJ∫ã‹X.25ASCII_CRT_E                     Rosin.SysAdmin.a                PDT >user_dir_dir>SUPPORT                                           ˚SUPPORT                     >user_dir_dir>SUPPORT                                           SUPPORT     Bull SUPPORT Project                                                                                                                                                                                SìÑ¢∑ûQ{≤:0Ë5JYxSUPPORT                                     SìÑ¢∑±                                                                Xïó^˛Rosin.SysAdmin                Fudge.SysAdmin                Schroth.SysMaint                                                     Other   @                ºdT1âRosin                           ~process_overseer_                                               >user_dir_dir>SUPPORT>Rosin                                                                     Äˆ·˜ˆ·˜ˆ·˜ˆ·˜ˆ·˜ˆ·˜ˆ·˜ˆ·˜ˆ·˜Sìäh¯À    Tö¬>•ˆ·˜Xñ…¶‘

@

@ê≈Üö¸*ê≈ÜöÚ|Grimes                          ê≈ÑÕ*ê≈Üö~é&ê≈ÜŒF@
X***a"´pend_tr_rep.ec                  ê≈ÜŒHMèG3`∞ò-Hv*a*Äê≈ÑÕP*Äê≈ÜŒfH|à*@ê≈ÜŒ¥Ü~·print_keys_for_tr_.ec           ê≈Ü…nPz*@ê≈ÜŒvfû*@ê≈ÜŒn*ê≈ÜŒ"&ê≈Ü…F@
YÜ¬*àaX~˜print_keys_for_tr.ec            ê≈Ü…HMèG3`∞ô$§Ë*àa@ê≈ÑÕ¨*Äê≈Ü…–§|à*@ê≈Ü…¬X~Üprint_keys_for_tr_cleanup.ec    ê≈Ü…¥~Ópkft.ec                         ê≈Ü…ÿ¨*à*@ê≈Ü…‡–z*@ê≈Ü…Ëÿû*@ê≈Ü…‡*ê≈Ü…Z~&ê≈Ü¡Híp{¯&*a&?print_trs.absin                 ê≈Ü¡Hì‘G3`∞ö-Rzàa•ê≈ÑÕ*Äê≈Ü¡B4*@ê≈Ü¡¯ñprint_trs.ec                    ê≈Ü¡* Farley                          ê≈ÑÕJ|à*@ê≈Ü¡RBz*@ê≈Ü¡J*ê≈Ü¡æ&ê≈Ü—R}>bbzàmZ>print_trs.absout                ê≈Ü—Ry–—G3`∞õ$Ä∂zàm…ê≈ÑÕà*Äê≈Ü—ûÄzà*@ê≈Ü—Ù∆æ·Xredprint_.ec                    ê≈Ü⁄¶à|à*@ê≈Ü—Æû**@ê≈Ü—∂¶û*@ê≈Ü—Æ*ê≈Ü—Z&ê≈Ü⁄F@
]∆Ù*àaêæäredprint.ec                     ê≈Ü⁄HMèG3`∞ú-‰
*aê≈ÑÕÏ*Äê≈Ü⁄‰|à*@ê≈Ü⁄êæÖredprint_cleanup.ec             ê≈Ü⁄
Ïz*@ê≈Ü⁄*ê≈Ü⁄fæ&ê≈Ü€F@
_H*àaH%reload_tr_db.ec                 ê≈Ü€HMè!G3`∞ù$8^*àaê≈ÑÕ@*Äê≈Ü€V8|à*@ê≈Ü€·êreload_tr_db.absin              ê≈Ü€^@z*@ê≈Ü€V*ê≈Ü€ &ê≈Ü“F@
`nú*aúfreroute_trs.ec                  ê≈Ü“HMè%G3`∞û$å¬*a$¯ê≈ÑÕî*Äê≈Ü“™å|à*@ê≈Ü“nfä∆reroute_trs.absin               ê≈Ü“≤î**@ê≈Ü“∫™z*@ê≈Ü“¬≤û*@ê≈Ü“∫*ê≈Ü“,f&ê≈ÜÿF@
a“*àa nset_tr_db_acl.ec                ê≈ÜÿHMè(G3`∞ü$$*a7–ê≈ÑÕ¯*Äê≈Üÿ|à*@ê≈Üÿ“ ÿadd_tr_db_acl.ec                ê≈Üÿ ®dl_tr_db_acl.ec                 ê≈Üÿ$¯z*@ê≈Üÿ*ê≈ÜÿÄ &ê≈Ü›F@
n44*a,étest_tr_queue_.ec               ê≈Ü›HMè,G3`∞†$Rx*a6ê≈ÑÕZ*Äê≈Ü›pR**¿ê≈Ü›àÄØtr_file_backup.ec               ê≈Ü‹xZû*@ê≈Ü›p*Äê≈Ü›Œ,&ê≈Ü‹F@
càb|àabÄ˜Ütr_file_backup.absin            ê≈Ü‹HMè/G3`∞°$¶∆*aBTê≈ÑÕÆ*Äê≈Ü‹∂¶|à*@ê≈Ü‹æÆz*@ê≈Ü‹∆∂û*@ê≈Ü‹æ*Äê≈Ü‹@Ä&ê≈Ü‘F@
s÷÷"àmŒãtr_file_backup.absout           ê≈Ü‘HMè2G3`∞¢$Ù8àm’8ê≈ÑÕ¸*Äê≈Ü‘Ùà*@trouble_fix.ec                  ê≈ÜÌ |à*@ê≈ÜÌ
z*@ê≈ÜÌ*ê≈ÜÌvL&ê≈ÜŸP»XI**zàm"mtrouble.absout                  ê≈ÜŸP”bG3`∞¨$Hnzàm=|ê≈ÑÕP*Äê≈ÜŸfHzà*@ê≈ÜŸ¨~vupdate_tr_data_new.ec           ê≈Ü·nPû*@ê≈ÜŸf*Äê≈ÜŸÿ"&ê≈Ü·Iœu~¨*àaXvÍupdate_tr_data.ec               ê≈Ü·I{G3`∞≠-ú¬aê≈ÑÕ§*Äê≈Ü·∫ú|à*@ê≈Ü·Xvõupdate_tr_data_test.ec          ê≈Ü·¬§z*@ê≈Ü·∫*ê≈Ü·zVu                              ê≈ÑÕ:v&ê≈ÜF@
j‡*àaÿupdate_user_regs.absin          ê≈ÜHMèaG3`∞Æ-˛2ÚàaËê≈ÑÕ*Äê≈Ü*˛|à*@ê≈ÜpRetriever                       ê≈ÑÕ‡ÿ.update_user_regs.ec             ê≈Ü2z*@ê≈Ü**ê≈Üéÿ&ê≈ÜÒF@
{BBzàm:¸update_user_regs.absout         ê≈ÜÒHMèÑG3`∞Ø$`Üzàm`pê≈ÑÕh*Äê≈ÜÒ~`zà*@ê≈ÜÒ‘·Hupdate_user_regs.values         ê≈ÜËÜhû*@ê≈ÜÒ~*Äê≈ÜÒ‘:&ê≈Ü”F@
zññzàméÜ¥update_user_regs.absout.old     ê≈Ü”HMèñG3`∞∞$¥Ãzàm2Äê≈ÑÕº*Äê≈Ü”ƒ¥zà*@ê≈Ü”Ãºû*@ê≈Ü”ƒ*Äê≈Ü”*é&ê≈ÜËF@
l‹‹*àa‘·Hupdate_user_regs.values         ê≈ÜËHMè®G3`∞±$˙"zàmÑê≈ÑÕ*Äê≈ÜË
˙*à*@ê≈ÜËÚ*@ê≈ÜË
û*@ê≈ÜË"à*@ê≈ÜË*ê≈ÜËp‘&êÇ‡Hí`≥22zàa*Øbtrmr.07/03/92                   êÇ‡Hì‘G3`∞`$X`zàa=ƒê≈ÑÕ`Xû*@êÇ‡Pzà*¿êÇ‡P*ÄêÇ‡ûñû*@êÉ¶*&êÉHíd¥xxzàap‹print_trs.07/03/92              êÉHì‘˝G3`∞n$ñûzàa,ê≈ÑÕhzà*¿êÉh*ÄêÉ‰p&êÉ'Híq†ÆÆzàa¶ntrouble.07/03/92                êÉ'Hì‘G3`∞o$‘‹zàa)¨ê≈ÑÕ‹‘û*@êÉ'Ãzà*¿êÉ'Ã*ÄêÉ'"¶&êÉ±HíeÏÏzàm‰òtrmr.absout                     êÉ±Hì‘G3`∞’$zàmñ’ê≈ÑÕû*@êÉ±
zà*@êÉ±
*ÄêÉ±‰&í#∆ÃIŒ@**a"÷update_tr_data.ec.09/18/92      í#∆ÃI{G3`∞Ÿ$PXaêê≈ÑÕX`û*@í#∆Ã`zà*@í#∆ÃH*Äí#∆ÃHP*¿í#∆Ã àa@ê≈ÜœTR_Admin                        ˛process_overseer_                                               >user_dir_dir>TR>TR_Admin                                       <                                Äˆ·˜˝‹(ˆ·˜ˆ·˜ˆ·˜ˆ·˜ˆ·˜ˆ·˜ˆ·˜ˆ·˜RÆóˆT‹4IünoneTTë«˝‹(
àGPTö¬>•ˆ·˜n©ÃXñ…¶‘

@

@Vu                              ~process_overseer_                                               >user_dir_dir>TR>Vu                                             <                                Äˆ·˜ˆ·˜ˆ·˜ˆ·˜ˆ·˜ˆ·˜ˆ·˜ˆ·˜ˆ·˜RÆóˆTæÁêÉœnone_TæÎÕî˚Tö¬>•ˆ·˜#|oXñ…¶‘

@

@aTõw"Œ*@bùÉnÍ*@bùÉnT‡&hv÷3P∞(≤"Œa∞meetings                        hv÷3Pµs˘‡˝∞Ñ◊¯<L"Œa‚~2rTõwD"Œ*@¿hv÷3L<Í*@¿hv÷3D*@hv÷3ä&j†95Nº\\"ŒaTÊstart_up.hsim                   j†95eçGù`HΩ$zÇ"ŒahTõwÇ"Œ*@j†9zÍ*@j†9T&n„P∞(‘í∞"Œa∞ä]ts                              n„Pµt€	á˜H¯æ∆"Œa‚~2rTõwíä@time_sheet                      n„∆"Œ*¿¿n„æÍ*¿¿n„x<&ùøkP∞(˙÷÷"ŒaŒce                              ùøkQBÜÀ€	á˜Ÿ¯Ù¸"Œa‚~2rTõw¸"Œ*¿¿ùøkÙÍ*¿¿ùøk:ä&u›R…;¥è5"Œa≈mrds.name                       u›R…;µT…Gù`HÆ$*2"ŒamTõw2"Œ*¿u›R…*Í*@u›R…p&u$Ü>P∞(÷BB"Œa:úunix                            u$Ü>Pµt€	á˜—¯`h"Œa‚~2rTõwh"Œ*¿¿u$Ü>`Í*¿¿u$Ü>¶:&vW∑ª<1Exx"Œaprsr.note                         vW∑ª<3‘çG°¶É√$ñû"ŒaMTõwû"Œ*@vW∑ªñÍ*@vW∑ª‹p&w+]ô;ï)ÆÆ"Œa¶lGee.sv.mbx                      w+]ô;kÔGwßSIÃ‘"ŒaTõw‘"*@¯w+]ôÃ*@w+]ô¶&w+ﬂﬂ;}ox‰‰"Œa‹≥confid.arun                     w+ﬂﬂ;~V©Göæ•ÿ$
"ŒaÖTõw
"Œ*@w+ﬂﬂÍ*@w+ﬂﬂH‹&wuF“KΩˆÖ"Œaresign                          wuF“KæElGõL‰±$8@"ŒaKTõwP"Œ*@wuF“P*wuF“~&wu·3KΩˆÖPP"ŒaH:design                          wu·3KæEWGõL‰l$nv"ŒaG∏TõwX"Œ*¿wu·3X*wu·3ƒH&ÄqﬁQ#∞ÜÜ"Œa~rxstart_up.ec                     ÄqﬁQ3éìGû˚„	$§º"Œa3Tõw¨"Œ*@Äqﬁ¥§"*¿Äqﬁº¨Í*@Äqﬁ¥*Äqﬁ¯~&ÄqÇ?Ö8◊ÃÍ"ŒaÍƒRtsms.forum                      ÄqÇ@Æ”ö$>udd>Multics>Gee>meetings>tsms.forumTõwÃƒtimesheet_management_sys.forum  ÄqÇ@ƒHÄq|@X“ù"Œa¯arg_descriptor.i                Äq|@Æ”ö3>udd>m>dz>vf>doc>vfile.lib>xps_lib>arg_descriptor.iTõwà¯HÄqü@X”äHH"Œa@arg_list.i                      Äqü@Æ”ö->udd>m>dz>vf>doc>vfile.lib>xps_lib>arg_list.iTõw–@HÄqë@X”¯êê"Œaàécdo_item.i                      Äqë@Æ”ö->udd>m>dz>vf>doc>vfile.lib>xps_lib>cdo_item.iTõwàHÄq™@X”ÿÿ"Œa–¯unix_io_dcls.i                  Äq™@Æ”ö1>udd>m>dz>vf>doc>vfile.lib>xps_lib>unix_io_dcls.iTõwX»HÄq±@X’@"ŒaBvf_control.i                    Äq±@Æ”ö/>udd>m>dz>vf>doc>vfile.lib>xps_lib>vf_control.iTõwñ&Äqµ1O_``"ŒaXÖGee.mbx                         ÄqµRoªrGöæ•∆I~é"ŒaTõwÜ"*@¯Äqµé~Í*@(ÄqµÜ*@(ÄqµX&ÄqøM€õûû"ŒañqËGee.value                       ÄqøMåóG†2í$º‹"Œa+‰Tõwƒ"Œ*@ÄqøÃº"*@Äqø‘ƒ0*@Äqø‹ÃÍ*@Äqø‘*ÄqøXPÁâN"Œa‰È∂Nov.94.sum                      °À⁄ÈPÁÎO
ã$"ŒaŒTõwP*@ü¿/N¥ºÍ*@¿†ÄBjPñ&Ä∞¡@€"‰"""Œaûcal.basic                       Ä∞¡@‹ˆGwßG$@H"ŒagTõwH"Œ*@Ä∞¡@Í*@Ä∞¡Ñ&ÅÉi@cÜäXv"ŒavP©multics_support.mls             ÅÉi$>udd>Multics>lib>multics_support.mlsTõwXP∫maint.mls                       ÅÉi∫P&ÅÂ'@ÄóÚåå"ŒaÑiMCR_Packet.trans                ÅÂ'@Çf¨G°¶ÉÁ$™≤"Œa;¯Tõw≤"Œ*@ÅÂ'™Í*@ÅÂ'Ñ&É£ÖkAU=Ä¬¬"Œa∫ñsubs.mls                        É£ÖkAU£G°¶ÉØ$‡Ë"Œa8TõwË"Œ*¿É£Ök‡Í*@É£Ök&∫&É£ú‹AÅˇ¯¯"Œa€audit.idea                      É£ú‹AÉGù`HÌ$"Œa7<Tõw"Œ*@É£ú‹Í*@É£ú‹d&ÑQyP∞(Ô.."Œa&Qcp6                             ÑQyQ˛ç€	ÕD¯TL"Œa‚~2rTõwº*@ÑQyƒ"Œ*@¿ÑQyºƒ
Ù*@ÑQyö&&ÑòçöEbZÌll"ŒadPCP6_discussion.trans            ÑòçöEcGõL‰Ÿ$äí"Œa·ÀTõwí"Œ*@ÑòçöäÍ*@Ñòçö–d&Ñ4¿B´‡∫¢¢"Œaödb.goal                         Ñ4¿B¨¢G£≠Q«$¿»"Œa±Tõw»"Œ*@Ñ4¿¿Í*@Ñ4¿ö&Ñ=™C‘aÿÿ"Œa–_cp6.mls                         Ñ=™C’¸+Gwßu$ˆ˛"Œa¥Tõw˛"Œ*@Ñ=™ˆÍ*@Ñ=™<–&Ñ™ˆBÚ_A"Œagrisk.mail                       Ñ™ˆBÚÌıGù`HÀ$,4"Œa3*Tõw4"Œ*@Ñ™ˆ,Í*@Ñ™ˆr&Ñ™ˇ^Kå-¢DD"Œa<Ácp6.risk.note                   Ñ™ˇ^Kå¥‡Gù`Hl$bj"Œa`Tõw"Œ*@Ñ™ˇ^*Ñ™ˇ^®<&ÑÒh]KΩˆÜzz"Œar˙÷archfile_index                  ÑÒh]KæEEGöæ•$$ò†"Œa‹@Tõwh"Œ*¿ÑÒh]h*ÑÒh]ﬁr&ÑÒh|KΩˆá∞∞"Œa®…archfile_dir_listing            ÑÒh|KæE@G°¶ÉÙ$Œ÷"Œa)Tõwp"Œ*¿ÑÒh|p*ÑÒh|®&ÑÒu¡B∆FÊÊ"Œaﬁôteam.goal                       ÑÒu¡BRSGû˚„v$"Œa
˘                îyπ˛J@7çGû˚„˙$

"ŒawTõw
"Œ*@îyπ˛
Í*@îyπ˛d&úÃWxNÂØ
.
."Œa
&∫	¯swat_plan                       úÃWxNÈ¸ÊGõL‰Ú$
T
L"Œa<Tõw
TÍ*@úÃWx
L"Œ*@úÃWx
R
í&ñRqKΩˆã
d
d"Œa
\öjim                             ñRqKæE`GõL‰1$
J
B"ŒaÜTõw
ä"Œ*@¿ñHŸ
¿
ÇÍ*@¿ñHŸ
\
˛&ñHŸP∞(ˆ
ö
4"Œa
4
íUtime_report                     ñHŸPµsˇ¬üzåå¯
Ç
¿"Œa‚~2rTõw
‰Í*@£D˚€
ä*@ñHŸ
æ∫&£D˚•Q¶
–
–
–"Œa
»%Gee.activities.03/01/95         £D˚•Q¶–LGõL‰
ã$
ˆ
Ó"ŒaËmTõw
ˆÍ*@£D˚•
Ó"Œ*¿£D˚•
í	&ïÄw∆KΩˆä

"Œa
˛Æjim4                            ïÄw∆KæEeGû˚„
$
,
$"Œa•Tõw†*ïÄw∆†"Œ*@ïÄw∆
ö
íÙtr                              ñHŸ®*ñRq®"Œ*@ñRq
à
\&ñâƒ]KΩˆã
Z
Z"Œa
RDts_04_01                        ñâƒ]KæEzG†2í>$
Ä
x"ŒaTõw∞*ñâƒ]∞"Œ*@ñâƒ]
R&ñüäKΩˆå
ê
ê"Œa
àts_04_02                        ñüäKæEÄGù`H¡$
∂
Æ"ŒaTõw∏*ñüä∏"Œ*@ñüäx
»&£D˚€Q¶v
∆
∆"Œa
æ[Gee.activities.1                £D˚€Q¶–XGû˚„
X$
‰
∏"ŒaîîTõw
∏"Œ*¿£D˚€"Œ*¿£D˚˛>0Mabey                           TõwjbÍ*@Ñ™ˇ^B:Í*@Ö7ÒO
ÏÍ*@£D˚˛»
à&ñBÔáKΩˆå"""Œats_05_01                        ñBÔáKæEÖGöæ•ı$H@"ŒaâTõw¿*ñBÔá¿"Œ*@ñBÔá@8Í*@wuF“vnÍ*@wu·3~Í*@°À⁄È†òÍ*@ÑÒh]÷ŒÍ*@ÑÒh|‰‹Í*@Ö}ûÜ~Í*@Ü$ƒã˙ÚÍ*@áÅ>å	“	 Í*@êù√		Í*@ë&j
$
,Í*@ïÄw∆
B
JÍ*@ñRq
x
ÄÍ*@ñâƒ]
Æ
∂Í*@ñüä@HÍ*@ñBÔá˛&ñ≤˜3K€…≤––"Œa»√to                              ñ≤˜3K‹ﬁG†2í◊$ˆÓ"ŒaTõwˆÍ*@ñ≤˜3Ó"Œ*@ñ≤˜34»&ñ≤˜pK€Ø™"Œa˛¯ÿjim.s                           ñ≤˜pK‹›˝G£≠QQ$,$"Œa-∞Tõw,Í*@ñ≤˜p$"Œ*@ñ≤˜pj˛&ñ∫(…K	Xå<<"Œa4œGee.activities.backup           ñ∫(…KT#G†2íF$bZ"Œa®∫TõwbÍ*@ñ∫(…Z"Œ*¿ñ∫(…†4&ñ∫P‹KÈØrr"ŒajÀmay.sum.93                      ñ∫P‹KÙ˙Göæ•®$òê"ŒaTõwòÍ*@ñ∫P‹ê"Œ*@ñ∫P‹÷j&ñ∫PKÎ,®®"Œa†∞àts.may01.93                     ñ∫PKÙ˛G†2ív$Œ∆"ŒawTõwŒÍ*@ñ∫P∆"Œ*@ñ∫P†&ñ∫PKÌ•ﬁﬁ"Œa÷Ø
ts.may02.93                     ñ∫PKıGû˚„œ$¸"Œa)TõwÍ*@nd_ci_to_alloc_datum.pl1
248          1    01/07/85  0858.4  dm_cm_info.incl.pl1               >ldd>include>dm_cm_info.incl.pl1
250          2    01/07/85  0858.0  dm_cm_basic_ci.incl.pl1           >ldd>include>dm_cm_basic_ci.incl.pl1
252          3    01/07/85  0858.4  dm_cm_storage_record.incl.pl1     >ldd>include>dm_cm_storage_record.incl.pl1
254          4    01/07/85  0858.2  dm_cm_collection_header.incl.pl1  >ldd>include>dm_cm_collection_header.incl.pl1
256          5    01/07/85  0901.2  dm_cm_datum.incl.pl1              >ldd>include>dm_cm_datum.incl.pl1
258          6    01/07/85  0858.2  dm_cm_datum_constants.incl.pl1    >ldd>include>dm_cm_datum_constants.incl.pl1
260          7    01/07/85  0858.0  dm_cism_info.incl.pl1             >ldd>include>dm_cism_info.incl.pl1
262          8    01/07/85  0858.8  dm_hdr_collection_id.incl.pl1     >ldd>include>dm_hdr_collection_id.incl.pl1
264          9    04/16/82  0958.1  sub_err_flags.incl.pl1            >ldd>include>sub_err_flags.incl.pl1
266         10    04/04/85  0819.0  dm_cm_entry_dcls.incl.pl1         >spec>on>7192.pbf-04/04/85>dm_cm_entry_dcls.incl.pl1
	NAMES DECLARED IN THIS COMPILATION.

IDENTIFIER	     OFFSET    LOC STORAGE CLASS   DATA TYPE		ATTRIBUTES AND REFERENCES
								(* indicates a set context)

NAMES DECLARED BY DECLARE STATEMENT.
ACTION_CANT_RESTART             000000 constant        bit(36)                  initial dcl 9-7 set ref 140* 198* 213*
BASIC_CI_LAYOUT_1               000004 constant        char(4)                  initial dcl 2-97 set ref 213 213*
CM_INFO_VERSION_2               000006 constant        char(8)                  initial dcl 1-48 ref 107
COLLECTION_HEADER_VERSION_2     000002 constant        char(8)                  initial dcl 4-86 set ref 229*
HEADER_COLLECTION_ID                   constant        bit(36)                  initial dcl 8-19 ref 113
UNBLOCKED_CONTROL_INTERVAL_STORAGE_METHOD
                                       constant        fixed bin(17,0)          initial dcl 7-40 ref 241
bci_header                             based           structure                level 1 dcl 2-63 set ref 110 116
bci_header_ptr                  000110 automatic       pointer                  dcl 2-94 set ref 109* 110 110 116 119* 124* 136*
                                                                                  148* 161*
blocked_storage_record                 based           structure                level 1 dcl 3-36
blocked_storage_record_ptr      000114 automatic       pointer                  initial dcl 3-48 set ref 3-48*
ccv_p_given_version                    parameter       char(4)                  dcl 211 set ref 208 213 213*
cm_allocate_ci$info             000022 constant        entry                    external dcl 10-76 ref 157
cm_determine_free_space$does_new_datum_fit
                                000024 constant        entry                    external dcl 10-101 ref 124 148
cm_get_bci_header               000026 constant        entry                    external dcl 10-130 ref 119 136 161
cm_info                                based           structure                level 1 dcl 1-37
cm_info_ptr                     000106 automatic       pointer                  initial dcl 1-47 set ref 106* 107 113 119 131* 136
                                                                                  140 157* 161 1-47*
cm_opening_info$get_storage_record
                                000030 constant        entry                    external dcl 10-185 ref 236
code                            000100 automatic       fixed bin(35,0)          dcl 72 set ref 104* 119* 120 120* 136* 137 140 140
                                                                                  140* 145* 157* 158 158* 161* 162 162*
collection_header                      based           structure                level 1 dcl 4-65
collection_id             4            based           bit(36)                  initial level 2 dcl 1-37 set ref 113 140*
control_interval_storage_method
                          2(18)        based           fixed bin(17,0)          level 2 packed unaligned dcl 4-65 ref 241
cv_p_correct_version                   parameter       char(8)                  dcl 196 set ref 191 198 198*
cv_p_given_version                     parameter       char(8)                  dcl 195 set ref 191 198 198*
cv_p_structure_name                    parameter       char                     unaligned dcl 194 set ref 191 198*
datum_contents_length_in_bits   000122 automatic       fixed bin(35,0)          initial dcl 5-69 set ref 5-69*
datum_id                               based           structure                level 1 dcl 5-62
datum_id_ptr                    000120 automatic       pointer                  initial dcl 5-68 set ref 5-68*
datum_ptr                       000116 automatic       pointer                  initial dcl 5-67 set ref 5-67*
datum_slot                             based           structure                level 1 dcl 2-82
dm_error_$ci_not_allocated      000012 external static fixed bin(35,0)          dcl 95 ref 140
dm_error_$misformatted_ci       000014 external static fixed bin(35,0)          dcl 95 ref 140
dm_error_$unimplemented_ci_version
                                000016 external static fixed bin(35,0)          dcl 95 set ref 213*
er_p_code                              parameter       fixed bin(35,0)          dcl 184 ref 181 186
error_table_$unimplemented_version
                                000020 external static fixed bin(35,0)          dcl 95 set ref 198*
file_oid                  3            based           bit(36)                  initial level 2 dcl 1-37 set ref 119* 136* 161*
fits_in_ci                      000105 automatic       bit(1)                   initial dcl 76 set ref 76* 124* 127 148* 151
glc_code                        000164 automatic       fixed bin(35,0)          dcl 226 set ref 235* 236* 237 237*
glc_collection_header_ptr       000162 automatic       pointer                  dcl 224 set ref 228* 229 241
glc_p_cm_info_ptr                      parameter       pointer                  dcl 223 set ref 220 228 232 236* 241 244
header_ptr                6            based           pointer                  initial level 2 dcl 1-37 ref 228
input_ci                        000101 automatic       fixed bin(24,0)          initial unsigned dcl 73 set ref 73* 105* 113 113
                                                                                  119* 127* 133
last_ci                         000102 automatic       fixed bin(24,0)          initial unsigned dcl 73 set ref 73* 131* 133 136*
                                                                                  140* 151*
last_control_interval
                          1            based           fixed bin(24,0)          level 2 in structure "unblocked_storage_record"
                                                                                  unsigned dcl 3-28 in procedure
                                                                                  "cm_find_ci_to_alloc_datum" ref 241
last_control_interval                  based           fixed bin(24,0)          level 2 in structure "blocked_storage_record"
                                                                                  unsigned dcl 3-36 in procedure
                                                                                  "cm_find_ci_to_alloc_datum" ref 244
layout_type                            based           char(4)                  level 2 dcl 2-63 set ref 110*
myname                          000010 constant        varying char(32)         initial dcl 85 set ref 140* 198* 213*
new_ci                          000103 automatic       fixed bin(24,0)          initial unsigned dcl 73 set ref 73* 157* 161* 164*
null                                                   builtin function         dcl 81 ref 140 140 1-47 3-46 3-48 5-67 5-68 198 198
                                                                                  213 213 232
p_bci_header_ptr                       parameter       pointer                  dcl 66 ref 52 109
p_cm_info_ptr                          para¯çpp.3.mail                       õöŸ®M˝cáG†2í•$&"Œap1Tõw&Í*@õöŸ®"Œ*@õöŸ®d¯&ú&+ïN/Ω-66"Œa.psei_sqa.trans                   ú&+ïN0LSGõL‰§$\T"ŒaUîTõw\Í*@ú&+ïT"Œ*@ú&+ï
&.&ú&TeN>¬hll"Œad≈action_item                     ú&TeN>⁄ÉG†2í$íä"Œa$TõwíÍ*@ú&Teä"Œ*@ú&Te–Nz}A"ŒaöEFeb.94.sum                      úÃN{[Ûé$"Œa›πTõw»Í*@úÃˆ"Œ*@úÃrNòü"Œa–4Mar.94.sum                      úŒ∏GNN_$"ŒaG,Tõw˛Í*@úŒ∏Gò"Œ*@úŒ∏G<
&&ùÇ|N¡ﬂ∞"ŒaÑdave1                           ùÇ|N¬G£≠QÆ$4,"Œa	ÛTõw4Í*@ùÇ|,"Œ*@ùÇ|Œ&ùÇ#&N∆TSDD"Œa<≥‰exchange_com                    ùÇ#&N«WGwß
m$jb"ŒaÖTõwjÍ*@ùÇ#&b"Œ*@ùÇ#&®NôÔ"Œar^Apr.94.sum                      ùÊihNôöC
[$"ŒaUΩTõw†Í*@ùÊihŒ"Œ*@ùÊihﬁO?˝‡"Œa®zvMay.94.sum                      ùøΩnO?öç$"ŒaUΩTõw÷Í*@ùøΩn"Œ*@ùøΩnJO⁄;Å"Œaﬁ÷Jun.94.sum                      û¶ë·O€A∑($"ŒaW*TõwÍ*@û¶ë·B"Œ*@û¶ë·x&ü¿/NP∞(˝"Œa¥sei                             ü¿/NQ<¿S€	á˜≈¯:
"Œa‚~2rTõwP"Œ*@¿ü¿/NpÍ*@ü¿JëÆOvq^"ŒaJ˜Jul.94.sum                      ü¿JëO|ﬁÜ¡$"ŒaeâTõw‘"Œ*@ü¿JëŒ&ü3¢rOJ).ÄÄ"Œax:Pdd.mail                         ü3¢rOJáG£≠Q∏$¶û"Œa8÷Tõw¶Í*@ü3¢rû"Œ*@ü3¢r‰PèW"ŒaÆÈAug.94.sum                      üÁABP√‘$"ŒaMdTõw‹Í*@üÁAB
"Œ*@üÁAB‰PF"Œa‰	‚Oct.94.sum                      °%.ÍPKÉ÷
X$"Œa[TõwÍ*@°%.Í`"Œ*@°%.Íé&†fÔfP∞(ˇ"""ŒaØﬁeval                            †fÔfPµs¯‡˝∞Ñ
`¯H@"Œa‚~2rTõwHÍ*¿¿†fÔf@"Œ*¿¿†fÔf
:Í*@¿ü¿/NQ,Ìd"ŒaXWDec.94.sum                      ¢@ Q<¿1Ÿ$"ŒaŒTõwÜ"Œ*@°À⁄ÈƒÍ*@¢@ Ã&†ÄBjP∞(ññ"Œaérisk                            †ÄBjQ˚§}€Ó2ÆG¯º¥"Œa‚~2rTõw*@†ÄBj"Œ*@¿†ÄBj("Œ*@¢@ 8é&¢÷¢QáSL‘‘"ŒaÃñ¬quality                         ¢÷¢Roª¶¬üzår¯˙Ú"Œa‚~2rTõw˙Í*¿¿¢÷¢Ú"Œ*¿¿try                    external dcl 10-77
cm_compact                      000000 constant        entry                    external dcl 10-81
cm_compact$buffered             000000 constant        entry                    external dcl 10-82
cm_compact$buffered_replacement 000000 constant        entry                    external dcl 10-84
cm_compact$replacement          000000 constant        entry                    external dcl 10-83
cm_delete                       000000 constant        entry                    external dcl 10-92
cm_delete$info                  000000 constant        entry                    external dcl 10-94
cm_delete_cn_datum              000000 constant        entry                    external dcl 10-87
cm_delete_cn_datum$header       000000 constant        entry                    external dcl 10-89
cm_determine_free_space$all     000000 constant        entry                    external dcl 10-96
cm_determine_free_space$effective
                                000000 constant        entry                    external dcl 10-98
cm_find_ci_to_alloc_datum       000000 constant        entry                    external dcl 10-111
cm_find_free_slot               000000 constant        entry                    external dcl 10-115
cm_free_ci$info                 000000 constant        entry                    external dcl 10-118
cm_free_ci$raw_return_prev_next 000000 constant        entry                    external dcl 10-119
cm_free_ci$trace_thread_modifications_off
                                000000 constant        entry                    external dcl 10-124
cm_free_ci$trace_thread_modifications_on
                                000000 constant        entry                    external dcl 10-122
cm_free_opening_info            000000 constant        entry                    external dcl 10-128
cm_get_bci_header$exclusive     000000 constant        entry                    external dcl 10-131
cm_get_bci_header$slot          000000 constant        entry                    external dcl 10-133
cm_get_element                  000000 constant        entry                    external dcl 10-140
cm_get_element$exclusive        000000 constant        entry                    external dcl 10-142
cm_get_element_portion          000000 constant        entry                    external dcl 10-146
cm_get_id$id                    000000 constant        entry                    external dcl 10-157
cm_get_id$ptr                   000000 constant        entry                    external dcl 10-159
cm_modify                       000000 constant        entry                    external dcl 10-162
cm_modify$buffered              000000 constant        entry                    external dcl 10-164
cm_modify$info                  000000 constant        entry                    external dcl 10-173
cm_modify$unprotected_info      000000 constant        entry                    external dcl 10-174
cm_opening_info$full_get        000000 constant        entry                    external dcl 10-187
cm_opening_info$get             000000 constant        entry                    external dcl 10-184
cm_opening_info$opening_table_ptr
                                000000 constant        entry                    external dcl 10-189
cm_postcommit_increment         000000 constant        entry                    external dcl 10-192
cm_put                          000000 constant        entry                    external dcl 10-195
cm_put$buffered                 000000 constant        entry                    external dcl 10-197
cm_put$info                     000000 constant        entry                    external dcl 10-206
cm_put_basic_element            000000 constant        entry                    external dcl 10-208
cm_put_cn_datum                 000000 constant        entry                    external dcl 10-211
cm_put_datum_in_place           000000 constant        entry                    external dcl 10-213
cm_put_datum_in_place$buffered  000000 constant        entry                    external dcl 10-215
cm_put_datum_in_place$buffered_continued
                                000000 constant        entry                    external dcl 10-217
cm_put_datum_in_place$continued 000000 constant        entry                    external dcl 10-220
cm_put_datum_in_pool            000000 constant        entry                    external dcl 10-224
cm_put_datum_in_pool$buffered   000000 constant        entry                    external dcl 10-226
cm_put_datum_in_pool$buffered_continued
                                000000 constant        entry                    external dcl 10-228
cm_put_datum_in_pool$continued  000000 constant        entry                    external dcl 10-231
cm_put_ordered_element          000000 constant        entry                    external dcl 10-235
cm_put_ordered_element$buffered 000000 constant        entry                    external dcl 10-237
cm_put_overlength_tail          000000 constant        entry                    external dcl 10-241
cm_recursive_modify             000000 constant        entry                    external dcl 10-243
cm_replace_buffered_ci$trace_thread_modifications_off
                                000000 constant        entry                    external dcl 10-249
cm_replace_buffered_ci$trace_thread_modifications_on
                                000000 constant        entry                    external dcl 10-247
collection_header_ptr                  automatic       pointer                  dcl 4-85
continuation_datum                     based           structure                level 1 packed unaligned dcl 5-47
continued_continuation_datum           based           structure                level 1 packed unaligned dcl 5-56
continued_datum                        based           structure                level 1 packed unaligned dcl 5-50
datum                                  based           structure                level 1 packed unaligned dcl 5-44
datum_slot_ptr                         automatic       pointer                  dcl 2-95
unblocked_cism_info                    based           structure                level 1 dcl 7-28
unblocked_cism_info_ptr                automatic       pointer                  dcl 7-34

NAMES DECLARED BY EXPLICIT CONTEXT.
CHECK_CI_VERSION                000704 constant        entry                    internal dcl 208 ref 110
CHECK_VERSION                   000602 constant        entry                    internal dcl 191 ref 107 229
ERROR_RETURN                    000574 constant        entry                    internal dcl 181 ref 120 145 158 162 237
GET_LAST_CI                     000767 constant        entry                    internal dcl 220 ref 131
MAIN_RETURN                     000565 constant        label                    dcl 166 ref 176 187
RETURN_CI                       000566 constant        entry                    internal dcl 170 ref 127 151 164
cm_find_ci_to_alloc_datum       000176 constant        entry                    external dcl 52

THERE WERE NO NAMES DECLARED BY CONTEXT OR IMPLICATION.

STORAGE REQUIREMENTS FOR THIS PROGRAM.

	Object	Text	Link	Symbol	Defs	Static
Start          0       0      1324        1356    1142        1334
Length      1770    1142        32         376     162           0

BLOCK NAME	         STACK SIZE     TYPE		WHY NONQUICK/WHO SHARES STACK FRAME
cm_find_ci_to_alloc_datum           376 external procedure  is an external procedure.
RETURN_CI                               internal procedure  shares stack frame of external procedure cm_find_ci_to_alloc_datum.
ERROR_RETURN                            internal procedure  shares stack frame of external procedure cm_find_ci_to_alloc_datum.
CHECK_VERSION                           internal procedure  shares stack frame of external procedure cm_find_ci_to_alloc_datum.
CHECK_CI_VERSION                        internal procedure  shares stack frame of external procedure cm_find_ci_to_alloc_datum.
GET_LAST_CI                             internal procedure  shares stack frame of external procedure cm_find_ci_to_alloc_datum.

STORAGE FOR AUTOMATIC VARIABL¢÷¢Q$éö"Œa|Jan.95.sum                      £(2õQ3éÖ‘$"Œa[Tõw0Í*@£(2õ"Œ*@£(2õnÃ&£(2ﬂQ$MΩ@@"Œa8Ù
4jan2_95                         £(2ﬂQ3éèGöæ•á$f^"Œa4¿TõwfÍ*@£(2ﬂ^"Œ*@£(2ﬂ§8&£(2”Q$N$vv"Œanjan01_95                        £(2”Q3éãGöæ•ã$úî"Œa2ßTõwúÍ*@£(2”î"Œ*@£(2”⁄n&£(HsQ7[S¨¨"Œa§Òpjp_95_1.mail                   £(HsQ8M˜G†2í$“ "Œa$ZTõw“Í*@£(Hs "Œ*@£(Hs§&£(HÜQ7^¿‚‚"Œa⁄ıjan3_95                         £(HÜQ8MÙGõL‰$"Œa$ZTõwÍ*@£(HÜ"Œ*¿£(HÜF⁄&£Éø≠QVﬁ""Œa	pjp                             £Éø≠QY˙µ€Ó2Æ
¯>6"Œa‚~2rTõw|*@£Éø≠|"Œ*@¿£Éø≠Ñ&£Ñ’<QFNN"ŒaF$multics.mail                    £Ñ’<QTÃWG£≠Qê$tl"Œaô¸TõwtÍ*@£Ñ’<l"Œ*@£Ñ’<6>Í*@¿£Éø≠∫F&£Ñ!õQjä1åå"ŒaÑ©XBoston                          £Ñ!õQ~Á‡˝∞Ñ
#¯≤™"Œa‚~2rTõw≤Í*¿¿£Ñ!õ™"Œ*¿¿£Ñ!õ
»Ñ&£D˚5Q¶ı@¬¬"Œa∫Dactivities_report.archive       £D˚5Q¶–|Gwßx$Ë‡"ŒaZTTõwËÍ*@£D˚5‡"Œ*@£D˚5

                                          -----------------------------------------------------------


Historical Background

This edition of the Multics software materials and documentation is provided and donated
to Massachusetts Institute of Technology by Group BULL including BULL HN Information Systems Inc.
as a contribution to computer science knowledge.
This donation is made also to give evidence of the common contributions of Massachusetts Institute of Technology,
Bell Laboratories, General Electric, Honeywell Information Systems Inc., Honeywell BULL Inc., Groupe BULL
and BULL HN Information Systems Inc. to the development of this operating system.
Multics development was initiated by Massachusetts Institute of Technology Project MAC (1963-1970),
renamed the MIT Laboratory for Computer Science and Artificial Intelligence in the mid 1970s, under the leadership
of Professor Fernando Jose Corbato. Users consider that Multics provided the best software architecture
for managing computer hardware properly and for executing programs. Many subsequent operating systems
incorporated Multics principles.
Multics was distributed in 1975 to 2000 by Group Bull in Europe , and in the U.S. by Bull HN Information Systems Inc.,
as successor in interest by change in name only to Honeywell Bull Inc. and Honeywell Information Systems Inc. .

                                          -----------------------------------------------------------

Permission to use, copy, modify, and distribute these programs and their documentation for any purpose and without
fee is hereby granted,provided that the below copyright notice and historical background appear in all copies
and that both the copyright notice and historical background and this permission notice appear in supporting
documentation, and that the names of MIT, HIS, BULL or BULL HN not be used in advertising or publicity pertaining
to distribution of the programs without specific prior written permission.
    Copyright 1972 by Massachusetts Institute of Technology and Honeywell Information Systems Inc.
    Copyright 2006 by BULL HN Information Systems Inc.
    Copyright 2006 by Bull SAS
    All Rights Reserved
