THIS FILE IS DAMAGED

	COMPILATION LISTING OF SEGMENT dm_translate_system_config_
	Compiled by: Multics PL/I Compiler, Release 28e, of February 14, 1985
	Compiled at: Honeywell Multics Op. - System M
	Compiled on: 03/17/86  1446.6 mst Mon
	    Options: optimize map

        1
        2
        3 	/*  *  *  *  *  *  *  *  *  *  *  *  *  *  *  *  *  *  *  *  *  *  *  */
        4 	/*							*/
        5 	/* COMPILED OUTPUT OF SEGMENT  dm_translate_system_config_.rd  	*/
        6 	/* Compiled by:  reduction_compiler, Version 2.5 of Oct 21, 1985      */
        7 	/* Compiled on:  03/17/86  1446.6 mst Mon                             */
        8 	/*							*/
        9 	/*  *  *  *  *  *  *  *  *  *  *  *  *  *  *  *  *  *  *  *  *  *  *  */
       10 
       11 /* ***********************************************************
       12*   *                                                         *
       13*   * Copyright, (C) Honeywell Information Systems Inc., 1983 *
       14*   *                                                         *
       15*   *********************************************************** */
       16
       17 /*  DESCRIPTION:
       18*	dm_translate_system_config_ - program to extract DMS configuration
       19*     data from an ascii segment and return a pointer to a structure which
       20*     summarizes the configuration parameters.
       21**/
       22
       23 /* HISTORY:
       24*Written by M. Pandolf, December 1982.
       25*Modified:
       26*03/15/83 by M. Pandolf:  for default before journal keywords and for
       27*	  logging process terminations.
       28*05/05/83 by L. A. Newcomb:  added recovery_check_mode and fixed the old
       29*	  subsystem_inhibit to be subsystem_disposition.  NOTE:  work
       30*	  needs to be done on error reporting for duplicate settings,
       31*	  such as specifying "^recover, recovery_check_mode".
       32*11/04/83 by M. Pandolf: to check to see if default before journal ends in ".bj"
       33*05/29/84 by Lindsey Spratt: Changed to use version 2 dm_system_config.
       34*	  Removed several elements of the config, to whit; maximum
       35*	  number_of_before_journals, inhibit subsystem, and daemon error
       36*	  trace.  None of these were in use.
       37*06/12/84 by Lindsey Spratt: Added code for shutdown_delay. Changed to check
       38*	  for before_journal_size > 2 instead of 0.
       39**/
       40 /* format: style4,indattr,ifthenstmt,ifthen,^indcomtxt,idind33 */
       41
       42 /*
       43*   The DM configuration file contains information used at data management initialization
       44*   time to configure the system to site dependent parameters.  These
       45*   parameters override the values built in to the CDS named
       46*   "dm_system_data_".
       47*
       48*   The form of the DM configuration file is as follows:
       49*
       50*   <DM config file> ::= [<spec>]...<end statement>
       51*   <spec> ::=           <default before journal size> |
       52*                        <maximum number of processes> |
       53*                        <maximum number of transactions> |
       54*                        <default before journal> |
       55*                        <previous bootload status> |
       56*                        <current bootload enable> |
       57*                        <daemon idle timeout> |
       58*		    <shutdown delay> |
       59*                        <daemon log proc terms>
       60*   <default before journal size> ::=
       61*                        system_before_journal_size: <decimal integer>;
       62*   <maximum number of processes> ::=
       63*                        max_processes: <decimal integer>;
       64*   <maximum number of transactions> ::=
       65*                        max_transactions: <decimal integer>;
       66*   <default before journal> ::=
       67*                        default_before_journal: <path spec>;
       68*   <previous bootload status> ::=
       69*                        prev_bootload_status: <status option>[,<status option>]...;
       70*   <current bootload enable> ::=
       71*                        current_bootload_enable: force | ^force;
       72*   <daemon idle timeout local> ::=
       73*                        idle_timeout: <decimal integer>;
       74*   <shutdown delay> ::=
       75*		    shutdown_delay: <decimal integer>;
       76*   <daemon log proc terms> ::=
       77*                        log_proc_terms: on | off;
       78*   <end statement> ::=  end;
       79*
       80*   <path spec> ::=      dir=<path> | entry=<segment name> |
       81*		    dir=<path>,entry=<segment name> |
       82*                        entry=<segment name>,dir=<path> | <null string>
       83*
       84*   <status option> ::=  hold | adopt | recover | recovery_check_mode | ^hold | ^adopt | ^recover | ^recovery_check_mode
       85*
       86*   <path> ::=           <absolute pathname> | aim_dir | bootload_dir.
       87*/*++
       88*
       89*BEGIN
       90*1	/ system_before_journal_size : <decimal-integer> ; /
       91*		LEX(2) [	if token.Nvalue > 2
       92*			then dm_system_config.default_bj_size = token.Nvalue;
       93*			else call ERROR(4)]
       94*		LEX(2) / BEGIN \
       95*
       96*2	/ system_before_journal_size <any-token> /
       97*		LEX(2) ERROR(4) NEXT_STMT / BEGIN \
       98*
       99*3	/ system_before_journal_size <no-token> /
      100*		ERROR(8) / BEGIN \
      101*
      102*4	/ max_processes : <decimal-integer> ; /
      103*		LEX(2) [	if token.Nvalue > 0
      104*			then dm_system_config.max_n_proc = token.Nvalue;
      105*			else call ERROR(4)]
      106*		LEX(2) / BEGIN  \
      107*
      108*5	/ max_processes <any-token> /
      109*		LEX(2) ERROR(4) NEXT_STMT / BEGIN \
      110*
      111*6	/ max_processes <no-token> /
      112*		ERROR(8) / BEGIN \
      113*
      114*7	/ max_transactions : <decimal-integer> ; /
      115*		LEX(2) [	if token.Nvalue > 0
      116*			then dm_system_config.max_n_txn = token.Nvalue;
      117*			else call ERROR(4)]
      118*		LEX(2) / BEGIN  \
      119*
      120*8	/ max_transactions <any-token> /
      121*		LEX(2) ERROR(4) NEXT_STMT / BEGIN \
      122*
      123*9	/ max_transactions <no-token> /
      124*		ERROR(8) / BEGIN \
      125*
      126*10	/ idle_timeout : <decimal-integer> ; /
      127*		LEX(2) [	if token.Nvalue > 0
      128*			then dm_system_config.idle_timeout = token.Nvalue;
      129*			else call ERROR(4)]
      130*		LEX(2) / BEGIN  \
      131*
      132*11	/ idle_timeout <any-token> /
      133*		LEX(2) ERROR(4) NEXT_STMT / BEGIN \
      134*
      135*12	/ idle_timeout <no-token> /
      136*		ERROR(8) / BEGIN \
      137*
      138*13	/ shutdown_delay : <date_time_offset> ; /
      139*		LEX(2) [	dm_system_config.shutdown_delay = convert_date_time_offset();
      140*]
      141*		LEX(2) / BEGIN  \
      142*
      143*14	/ shutdown_delay <any-token> /
      144*		LEX(2) ERROR(4) NEXT_STMT / BEGIN \
      145*
      146*15	/ shutdown_delay <no-token> /
      147*		ERROR(8) / BEGIN \
      148*
      149*16	/ default_before_journal : /
      150*		LEX(2) / path_spec \
      151*
      152*17	/ prev_bootload_status : /
      153*		[save_prev_dm_disp = dm_system_config.prev_dm_disp]
      154*		LEX(2) / status_spec \
      155*
      156*18	/ current_bootload_enable : force ; /
      157*		[dm_system_config.curr_dm_enable = DM_FORCE_ENABLE_NEW_BOOTLOAD] LEX(4) / BEGIN \
      158*
      159*19	/ current_bootload_enable : ^force ; /
      160*		[dm_system_config.curr_dm_enable = DM_DO_NOT_FORCE_ENABLE_NEW_BOOTLOAD] LEX(5) / BEGIN \
      161*
      162*20	/ current_bootload_enable <any-token> /
      163*		LEX(2) ERROR(4) NEXT_STMT / BEGIN \
      164*
      165*21	/ current_bootload_enable <no-token> /
      166*		ERROR(8) / BEGIN \
      167*
      168*22	/ log_proc_terms : on ; /
      169*		[dm_system_config.log_proc_terms = "1"b] LEX(4) / BEGIN \
      170*
      171*23	/ log_proc_terms : off ; /
      172*		[dm_system_config.log_proc_terms = "0"b] LEX(4) / BEGIN \
      173*
      174*24	/ log_proc_terms <any-token> /
      175*		LEX(2) ERROR(6a.actc.ab.ca>¶$’ÕQTß„ö$ÿÿns    SERVER  : TO:<Schroth@multics>¶$’ÕRTß‘äÃDÿÿns    MAILER  : From:<Network_Server.Daemon@ACTC_MULTICS.ACTC.AB.CA>¶$’ÕSTß’zü,ÿÿns    MAILER  : To:<Jim_Gee@L66A.ACTC.AB.CA>¶$’ÕTTß8)ÿÿin    SMTP    : [ 0: 0:30] ACTC.AB.CA (0)¶$’ÕUTß®x.ÿÿns    SERVER  : FROM:<Jim_Gee@l66a.actc.ab.ca>¶$’ÕVTßc$ÿÿns    SERVER  : TO:<Schroth@multics>¶$’ÕWTß}ŒDÿÿns    MAILER  : From:<Network_Server.Daemon@ACTC_MULTICS.ACTC.AB.CA>¶$’ÕXTßñ,ÿÿns    MAILER  : To:<Jim_Gee@L66A.ACTC.AB.CA>¶$’ÕYTßÊS)ÿÿin    SMTP    : [ 0: 0:34] ACTC.AB.CA (0)¶$’ÕZTßı!.ÿÿns    SERVER  : FROM:<Jim_Gee@l66a.actc.ab.ca>¶$’Õ[Tß‘ƒK$ÿÿns    SERVER  : TO:<Schroth@multics>¶$’Õ\TßÿMDÿÿns    MAILER  : From:<Network_Server.Daemon@ACTC_MULTICS.ACTC.AB.CA>¶$’Õ]Tß û,ÿÿns    MAILER  : To:<Jim_Gee@L66A.ACTC.AB.CA>¶$’Õ^Tà†‚)ÿÿin    SMTP    : [ 0: 0:32] ACTC.AB.CA (0)¶$’Õ_Tàıw.ÿÿns    SERVER  : FROM:<Jim_Gee@l66a.actc.ab.ca>¶$’Õ`Tàe$ÿÿns    SERVER  : TO:<Schroth@multics>¶$’ÕaTà"ŠADÿÿns    MAILER  : From:<Network_Server.Daemon@ACTC_MULTICS.ACTC.AB.CA>¶$’ÕbTà#'ó,ÿÿns    MAILER  : To:<Jim_Gee@L66A.ACTC.AB.CA>¶$’ÕcTà»)ÿÿin    SMTP    : [ 0: 0:33] ACTC.AB.CA (0)¶$’ÕdTàÎÅ.ÿÿns    SERVER  : FROM:<Jim_Gee@l66a.actc.ab.ca>¶$’ÕeTàŸWØ$ÿÿns    SERVER  : TO:<Schroth@multics>¶$’ÕfTàªšWDÿÿns    MAILER  : From:<Network_Server.Daemon@ACTC_MULTICS.ACTC.AB.CA>¶$’ÕgTà«+ú,ÿÿns    MAILER  : To:<Jim_Gee@L66A.ACTC.AB.CA>¶$’ÕhTà%ë)ÿÿin    SMTP    : [ 0: 0:33] ACTC.AB.CA (0)¶$’ÕiTà'c.ÿÿns    SERVER  : FROM:<Jim_Gee@l66a.actc.ab.ca>¶$’ÕjTà(>a$ÿÿns    SERVER  : TO:<Schroth@multics>¶$’ÕkTà3»›Dÿÿns    MAILER  : From:<Network_Server.Daemon@ACTC_MULTICS.ACTC.AB.CA>¶$’ÕlTà4V,ÿÿns    MAILER  : To:<Jim_Gee@L66A.ACTC.AB.CA>¶$’ÕmTà¶êÑ)ÿÿin    SMTP    : [ 0: 0:35] ACTC.AB.CA (0)¶$’ÕnTà¸Y.ÿÿns    SERVER  : FROM:<Jim_Gee@l66a.actc.ab.ca>¶$’ÕoTà¸Óq$ÿÿns    SERVER  : TO:<Schroth@multics>¶$’ÕpTàÄoÇDÿÿns    MAILER  : From:<Network_Server.Daemon@ACTC_MULTICS.ACTC.AB.CA>¶$’ÕqTàÅ-,ÿÿns    MAILER  : To:<Jim_Gee@L66A.ACTC.AB.CA>¶$’ÕrTáBÉÇ)ÿÿin    SMTP    : [ 0: 0:34] ACTC.AB.CA (0)¶$’ÕsTáFÆ—.ÿÿns    SERVER  : FROM:<Jim_Gee@l66a.actc.ab.ca>¶$’ÕtTáGW$ÿÿns    SERVER  : TO:<Schroth@multics>¶$’ÕuTáSFÊDÿÿns    MAILER  : From:<Network_Server.Daemon@ACTC_MULTICS.ACTC.AB.CA>¶$’ÕvTáTìÆ,ÿÿns    MAILER  : To:<Jim_Gee@L66A.ACTC.AB.CA>¶$’ÕwTáÕ;{)ÿÿin    SMTP    : [ 0: 0:35] ACTC.AB.CA (0)¶$’ÕxTá×“
.ÿÿns    SERVER  : FROM:<Jim_Gee@l66a.actc.ab.ca>¶$’ÕyTáØ8$ÿÿns    SERVER  : TO:<Schroth@multics>¶$’ÕzTáäöDÿÿns    MAILER  : From:<Network_Server.Daemon@ACTC_MULTICS.ACTC.AB.CA>¶$’Õ{TáäÆ¿,ÿÿns    MAILER  : To:<Jim_Gee@L66A.ACTC.AB.CA>¶$’Õ|Tá]Ê)ÿÿin    SMTP    : [ 0: 0:32] ACTC.AB.CA (0)¶$’Õ}Tá_äb.ÿÿns    SERVER  : FROM:<Jim_Gee@l66a.actc.ab.ca>¶$’Õ~Tá`q¥$ÿÿns    SERVER  : TO:<Schroth@multics>¶$’ÕTáf¯”%ÿÿin    IPX25   : NRESETIND read wakeup¶$’Õ€TáfúM%ÿÿin    IPX25   : NRESETIND read wakeup¶$’ÕTá{úòDÿÿns    MAILER  : From:<Network_Server.Daemon@ACTC_MULTICS.ACTC.AB.CA>¶$’Õ‚Tá|Â•,ÿÿns    MAILER  : To:<Jim_Gee@L66A.ACTC.AB.CA>¶$’ÕƒTáù’)ÿÿin    SMTP    : [ 0: 0:34] ACTC.AB.CA (0)¶$’Õ„Táıùä.ÿÿns    SERVER  : FROM:<Jim_Gee@l66a.actc.ab.ca>¶$’Õ…Táşb$ÿÿns    SERVER  : TO:<Schroth@multics>¶$’Õ†TâX»%ÿÿin    IPX25   : NRESETIND read wakeup¶$’Õ‡Tâdá%ÿÿin    IPX25   : NRESETIND read wakeup¶$’ÕˆTâU2Dÿÿns    MAILER  : From:<Network_Server.Daemon@ACTC_MULTICS.ACTC.AB.CA>¶$’Õ‰Tâæb,ÿÿns    MAILER  : To:<Jim_Gee@L66A.ACTC.AB.CA>¶$’ÕÃTëÅ3³)ÿÿin    SMTP    : [ 0: 0:35] ACTC.AB.CA (0)¶$’ÕÄTëÉ€Ë.ÿÿns    SERVER  : FROM:<Jim_Gee@l66a.actc.ab.ca>¶$’ÕÅTëÊæó$ÿÿns    SERVER  : TO:<Schroth@multics>¶$’ÕÆTëÙŠDÿÿns    MAILER  : From:<Network_Server.Daemon@ACTC_MULTICS.ACTC.AB.CA>¶$’ÕÇTëÙ¹†,ÿÿns    MAILER  : To:<Jim_Gee@L66A.ACTC.AB.CA>¶$’ÕÈTìWµ)ÿÿin    SMTP    : [ 0: 0:34] ACTC.AB.CA (0)¶$’ÕÉTìXÛ§.ÿÿns    SERVER  : FROM:<Jim_Gee@l66a.actc.ab.ca>¶$’ÕÊTìY\À$ÿÿns    SERVER  : TO:<Schroth@multics>¶$’ÕËTìfµrDÿÿns    MAILER  : From:<Network_Server.Daemon@ACTC_MULTICS.ACTC.AB.CA>¶$’ÕÌTìgIs,ÿÿns    MAILER  : To:<Jim_Gee@L66A.ACTC.AB.CA>¶$’ÕÍTìá}&)ÿÿin    SMTP    : [ 0: 0:33] ACTC.AB.CA (0)¶$’ÕÎTìâ¿è.ÿÿns    SERVER  : FROM:<Jim_Gee@l66a.actc.ab.ca>¶$’ÕÏTìã(ã$ÿÿns    SERVER  : TO:<Schroth@multics>¶$’ÕĞTìéËN%ÿÿin    IPX25   : NRESETIND read wakeup¶$’ÕÑTìéê%ÿÿin    IPX25   : NRESETIND read wakeup¶$’ÕÒTì³™Dÿÿns    MAILER  : From:<Network_Server.Daemon@ACTC_MULTICS.ACTC.AB.CA>¶$’ÕÓTìFF,ÿÿns    MAILER  : To:<Jim_Gee@L66A.ACTC.AB.CA>¶$’ÕÔTì~Ò¥)ÿÿin    SMTP    : [ 0: 0:34] ACTC.AB.CA (0)¶$’ÕÕTìÜm.ÿÿns    SERVER  : FROM:<Jim_Gee@l66a.actc.ab.ca>¶$’ÕÖTì€BÅ$ÿÿns    SERVER  : TO:<Schroth@multics>¶$’Õ×Tì’VDÿÿns    MAILER  : From:<Network_Server.Daemon@ACTC_MULTICS.ACTC.AB.CA>¶$’ÕØTì’ ˆ,ÿÿns    MAILER  : To:<Jim_Gee@L66A.ACTC.AB.CA>¶$’ÕÙTínÆ)ÿÿin    SMTP    : [ 0: 0:35] ACTC.AB.CA (0)¶$’ÕÚTív0.ÿÿns    SERVER  : FROM:<Jim_Gee@l66a.actc.ab.ca>¶$’ÕÛTíCó$ÿÿns    SERVER  : TO:<Schroth@multics>¶$’ÕÜTí’£%ÿÿin    IPX25   : NRESETIND read wakeup¶$’ÕİTíß*%ÿÿin    IPX25   : NRESETIND read wakeup¶$’ÕŞTí5=ÂDÿÿns    MAILER  : From:<Network_Server.Daemon@ACTC_MULTICS.ACTC.AB.CA>¶$’ÕßTí5Öd,ÿÿns    MAILER  : To:<Jim_Gee@L66A.ACTC.AB.CA>¶$’ÕàTí¯.)ÿÿin    SMTP    : [ 0: 0:34] ACTC.AB.CA (0)¶$’ÕáTí±jÒ.ÿÿns    SERVER  : FROM:<Jim_Gee@l66a.actc.ab.ca>¶$’ÕâTí±Ğt$ÿÿns    SERVER  : TO:<Schroth@multics>¶$’ÕãTíÃ‹Dÿÿns    MAILER  : From:<Network_Server.Daemon@ACTC_MULTICS.ACTC.AB.CA>¶$’ÕäTíÄÏZ,ÿÿns    MAILER  : To:<Jim_Gee@L66A.ACTC.AB.CA>¶$’ÕåTíAaö)ÿÿin    SMTP    : [ 0: 0:35] ACTC.AB.CA (0)¶$’ÕæTíC)œ.ÿÿns    SERVER  : FROM:<Jim_Gee@l66a.actc.ab.ca>¶$’ÕçTíC–­$ÿÿns    SERVER  : TO:<Schroth@multics>¶$’ÕèTíWI›Dÿÿns    MAILER  : From:<Network_Server.Daemon@ACTC_MULTICS.ACTC.AB.CA>¶$’ÕéTíXıB,ÿÿns    MAILER  : To:<Jim_Gee@L66A.ACTC.AB.CA>¶$’ÕêTíÕtÌ)ÿÿin    SMTP    : [ 0: 0:36] ACTC.AB.CA (0)¶$’ÕëTíÙWğ.ÿÿns    SERVER  : FROM:<Jim_Gee@l66a.actc.ab.ca>¶$’ÕìTíÚ¼Ï$ÿÿns    SERVER  : TO:<Schroth@multics>¶$’ÕíTíìïJDÿÿns    MAILER  : From:<Network_Server.Daemon@ACTC_MULTICS.ACTC.AB.CA>¶$’ÕîTííƒ-,ÿÿns    MAILER  : To:<Jim_Gee@L66A.ACTC.AB.CA>¶$’ÕïTîcŠ)ÿÿin    SMTP    : [ 0: 0:33] ACTC.AB.CA (0)¶$’ÕğTîeŠ.ÿÿns    SERVER  : FROM:<Jim_Gee@l66a.actc.ab.ca>¶$’ÕñTîeò'$ÿÿns    SERVER  : TO:<Schroth@multics>¶$’ÕòTît9_Dÿÿns    MAILER  : From:<Network_Server.Daemon@ACTC_MULTICS.ACTC.AB.CA>¶$’ÕóTîuÕZ,ÿÿns    MAILER  : To:<Jim_Gee@L66A.ACTC.AB.CA>¶$’ÕôTîîu)ÿÿin    SMTP    : [ 0: 0:33] ACTC.AB.CA (0)¶$’ÕõTîğ4Ì.ÿÿns    SERVER  : FROM:<Jim_Gee@l66a.actc.ab.ca>¶$’ÕöTîğ¬h$ÿÿns    SERVER  : TO:<Schroth@multics>¶$’Õ÷TîşY¶Dÿÿns    MAILER  : From:<Network_Server.Daemon@ACTC_MULTICS.ACTC.AB.CA>¶$’ÕøTîÿéŒ,ÿÿns    MAILER  : To:<Jim_Gee@L66A.ACTC.AB.CA>¶$’ÕùTîpyj)ÿÿin    SMTP    : [ 0: 0:31] ACTC.AB.CA (0)¶$’ÕúTîre^.ÿÿns    SERVER  : FROM:<Jim_Gee@l66a.actc.ab.ca>¶$’ÕûTîsèn$ÿÿns    SERVER  : TO:<Schroth@multics>¶$’ÕüTî„”åDÿÿns    MAILER  : Fromÿÿns    ¶$’ÖHTj=:3ÿÿns    SMTP Server: Starting TCP service on port 25.¶$’ÖITj?6Yÿÿns    r 07:26 3.222 45¶$’ÖJTj??çÿÿns    ¶$’ÖKTjS00ÿÿin    IPX25   : Waiting for X25 connect request.¶$’ÖLTmnE
ÿÿin    QUIT¶$’ÖMTm)Iÿÿin    r 07:33 1.017 15 level 2¶$’ÖNTm1ãÿÿin    ¶$’ÖOTmË%6ÿÿin    Internet.Daemon (in) logged in via login daemon.¶$’ÖPTmËîÿÿin    ¶$’ÖQTmÔ}Dÿÿin          Waiting for Network_Mailer and Network_Server to logout.¶$’ÖRTmé
nÿÿin    ¶$’ÖSTméÚ!ÿÿin    * Begin Internet Services *¶$’ÖTTméìÿÿin    ¶$’ÖUTmêOı&ÿÿin    < Start Network Driver To Mars >¶$’ÖVTmêW¸ÿÿin    ¶$’ÖWTmë•$ÿÿin    IP X25 Driver Service started.¶$’ÖXTmë$£&ÿÿin    IP X25 Listener Service started.¶$’ÖYTmëEWÿÿin    ¶$’ÖZTmëMyÿÿin    < Start TCP Service >¶$’Ö[TmìS\ÿÿin    ¶$’Ö\Tmì[Şÿÿin    < Start UDP Service >¶$’Ö]Tmì“ÿÿin    ¶$’Ö^Tmìœÿÿin    < Start ICMP Service >¶$’Ö_Tmí©ÿÿin    ¶$’Ö`Tmí°±ÿÿin    < Start TELNET Service  >¶$’ÖaTmí¸jÿÿin    ¶$’ÖbTmî@ö5ÿÿin    TELNET Server: Starting TCP service on port 23.¶$’ÖcTmîIgÿÿin    ¶$’ÖdTmîRóÿÿin    < Start FINGER Service >¶$’ÖeTmî[ÿÿin    ¶$’ÖfTmî¿f5ÿÿin    FINGER Server: Starting TCP service on port 79.¶$’ÖgTmîÇñÿÿin    ¶$’ÖhTmîÎëÿÿin    < Start FTP Service >¶$’ÖiTmîÖÿÿin    ¶$’ÖjTmîR‘2ÿÿin    FTP Server: Starting TCP service on port 21.¶$’ÖkTmî]™ÿÿin    ¶$’ÖlTmîdåÿÿin    < Start CHARGEN Service >¶$’ÖmTmîlÇÿÿin    ¶$’ÖnTmïµ®6ÿÿin    CHARGEN Server: Starting UDP service on port 19.¶$’ÖoTmïÙ ÿÿin    ¶$’ÖpTmïàîÿÿin    < Start DAYTIME Service >¶$’ÖqTmïè¥ÿÿin    ¶$’ÖrTmï6ÿÿin    DAYTIME Server: Starting UDP service on port 13.¶$’ÖsTmï=9ÿÿin    ¶$’ÖtTmïD¬ÿÿin    < Start RECHO Service >¶$’ÖuTmïLÿÿin    ¶$’ÖvTmïzH3ÿÿin    RECHO Server: Starting UDP service on port 7.¶$’ÖwTmï‚¼ÿÿin    ¶$’ÖxTmï‰Íÿÿin    < Start RLOGIN Service >¶$’ÖyTmï‘Àÿÿin    ¶$’ÖzTmğÀA6ÿÿin    RLOGIN Server: Starting TCP service on port 513.¶$’Ö{Tmğã–ÿÿin    ¶$’Ö|Tmğë9ÿÿin    < Start the Network_Mailer/Network_Server daemons >¶$’Ö}TmğòÔÿÿin    ¶$’Ö~TmùÈ,ÿÿin    ¶$’ÖTmùãÄ'ÿÿin    * Internet Services Established *¶$’Ö€Tmùî¬ÿÿin    r 07:34 5.618 47¶$’ÖTmù)_ÿÿin    ¶$’Ö‚Tmûa<ÿÿin    IPX25   : (New) Connect wakeup received from devx 252.¶$’ÖƒTmûlE4ÿÿin    IPX25   : (New) Connect complete for devx 252.¶$’Ö„Tmbˆÿÿns    ¶$’Ö…Tmjºÿÿns    < Start SMTP Service >¶$’Ö†Tmr]ÿÿns    ¶$’Ö‡Tmw©3ÿÿns    SMTP Server: Starting TCP service on port 25.¶$’ÖˆTm™)ÿÿns    r 07:34 3.053 36¶$’Ö‰Tm¢Åÿÿns    ¶$’ÖŠTmÙ5®;ÿÿnm    MAILER  : From:<Falck.Office@ACTC_MULTICS.ACTC.AB.CA>¶$’Ö‹TmÚôš5ÿÿnm    MAILER  : To:<62146@UCDASVM1.ADMIN.UCALGARY.CA>¶$’ÖŒTnĞ)ÿÿin    SMTP    : [ 0: 1: 7] ACTC.AB.CA (3)¶$’ÖTnÌ_@ÿÿnm    MAILER  : From:<Thibodeaux.SiteSA@ACTC_MULTICS.ACTC.AB.CA>¶$’ÖTndÀ?ÿÿnm    MAILER  : To:<@ACTC.AB.CA:Thibodeaux@DOCKMASTER.NCSC.MIL>¶$’ÖTqŸ–°,ÿÿin    TELNET  : [ 0: 7:25] 192.94.126.50 (3)¶$’ÖTq³ŒÌ)ÿÿin    SMTP    : [ 0: 8:33] ACTC.AB.CA (4)¶$’Ö‘Tq·á8@ÿÿnm    MAILER  : From:<Thibodeaux.SiteSA@ACTC_MULTICS.ACTC.AB.CA>¶$’Ö’Tq¸š÷?ÿÿnm    MAILER  : To:<@ACTC.AB.CA:Thibodeaux@DOCKMASTER.NCSC.MIL>¶$’Ö“Ts¾”)ÿÿin    SMTP    : [ 0: 3:46] ACTC.AB.CA (0)6] ACTC.AB.CA (0)¶$’ÖÊTt«¡!Pÿÿnm    MAILER  : From:<@ACTC_MULTICS.ACTC.AB.CA:/CENTRAL.WGLACTC@l66a.actc.ab.ca>¶$’ÖËTt¬²Ë,ÿÿnm    MAILER  : To:<Dave.Schroth@ACTC.AB.CA>¶$’ÖÌTtÁ-)ÿÿin    SMTP    : [ 0: 0: 6] ACTC.AB.CA (0)¶$’ÖÍTtÅ2ˆ;ÿÿnm    MAILER  : From:<Post.Multics@ACTC_MULTICS.ACTC.AB.CA>¶$’ÖÎTtÆæ&ÿÿnm    MAILER  : To:<gfilyk@HALNET.COM>¶$’ÖÏTtï„)ÿÿin    SMTP    : [ 0: 0:12] ACTC.AB.CA (0)¶$’ÖĞTtów?ÿÿnm    MAILER  : From:<Fournier.Multics@ACTC_MULTICS.ACTC.AB.CA>¶$’ÖÑTtóğ,ÿÿnm    MAILER  : To:<umkeach@CC.UMANITOBA.CA>¶$’ÖÒTu÷)ÿÿin    SMTP    : [ 0: 0: 8] ACTC.AB.CA (0)¶$’ÖÓTuêPÿÿnm    MAILER  : From:<@ACTC_MULTICS.ACTC.AB.CA:/CENTRAL.WGLACTC@l66a.actc.ab.ca>¶$’ÖÔTu¼v,ÿÿnm    MAILER  : To:<Dave.Schroth@ACTC.AB.CA>¶$’ÖÕTu2‹¤)ÿÿin    SMTP    : [ 0: 0: 9] ACTC.AB.CA (0)¶$’ÖÖTu6B=?ÿÿnm    MAILER  : From:<Fournier.Multics@ACTC_MULTICS.ACTC.AB.CA>¶$’Ö×Tu7÷Ü'ÿÿnm    MAILER  : To:<help@ANON.PENET.FI>¶$’ÖØTu@4ï)ÿÿin    SMTP    : [ 0: 0: 3] ACTC.AB.CA (0)¶$’ÖÙTuD¤>?ÿÿnm    MAILER  : From:<Fournier.Multics@ACTC_MULTICS.ACTC.AB.CA>¶$’ÖÚTuEQŸ-ÿÿnm    MAILER  : To:<umkeach@CCU.UMANITOBA.CA>¶$’ÖÛTua›Î)ÿÿin    SMTP    : [ 0: 0: 8] ACTC.AB.CA (0)¶$’ÖÜTuhØ?ÿÿnm    MAILER  : From:<Maucieri.Multics@ACTC_MULTICS.ACTC.AB.CA>¶$’ÖİTuiŒŒ(ÿÿnm    MAILER  : To:<magar@SW.STATUS.COM>¶$’ÖŞTu’_)ÿÿin    SMTP    : [ 0: 0:14] ACTC.AB.CA (0)¶$’ÖßTu£y°Kÿÿnm    MAILER  : From:<@ACTC_MULTICS.ACTC.AB.CA:SMTP_Mailer@l66a.actc.ab.ca>¶$’ÖàTu¥\ö,ÿÿnm    MAILER  : To:<Dave.Schroth@ACTC.AB.CA>¶$’ÖáTu®º=)ÿÿns    SERVER  : From:<mailer-daemon@actc>¶$’ÖâTu¯¦2ÿÿns    SERVER  : To:<Maucieri.Multics@ACTC_MULTICS>¶$’ÖãTu½Ú®)ÿÿin    SMTP    : [ 0: 0: 5] ACTC.AB.CA (0)¶$’ÖäTuêzî)ÿÿin    SMTP    : [ 0: 0:20] ACTC.AB.CA (0)¶$’ÖåTuîêØGÿÿnm    MAILER  : From:<@ACTC_MULTICS.ACTC.AB.CA:Jim_Gee@l66a.actc.ab.ca>¶$’ÖæTuï1¥,ÿÿnm    MAILER  : To:<Dave.Schroth@ACTC.AB.CA>¶$’ÖçTuK·)ÿÿin    SMTP    : [ 0: 0:25] ACTC.AB.CA (0)¶$’ÖèTuNYGÿÿnm    MAILER  : From:<@ACTC_MULTICS.ACTC.AB.CA:Jim_Gee@l66a.actc.ab.ca>¶$’ÖéTuO ,ÿÿnm    MAILER  : To:<Dave.Schroth@ACTC.AB.CA>¶$’ÖêTu±»)ÿÿin    SMTP    : [ 0: 0:26] ACTC.AB.CA (0)¶$’ÖëTuµŸ"Gÿÿnm    MAILER  : From:<@ACTC_MULTICS.ACTC.AB.CA:Jim_Gee@l66a.actc.ab.ca>¶$’ÖìTu¶¿¿,ÿÿnm    MAILER  : To:<Dave.Schroth@ACTC.AB.CA>¶$’ÖíTv')ÿÿin    SMTP    : [ 0: 0:25] ACTC.AB.CA (0)¶$’ÖîTv†ÔGÿÿnm    MAILER  : From:<@ACTC_MULTICS.ACTC.AB.CA:Jim_Gee@l66a.actc.ab.ca>¶$’ÖïTv¦Y,ÿÿnm    MAILER  : To:<Dave.Schroth@ACTC.AB.CA>¶$’ÖğTvkº¼+ÿÿns    SERVER  : From:<magar@sw.stratus.com>¶$’ÖñTvlôû%ÿÿns    SERVER  : To:<maucieri@multics>¶$’ÖòTvv4f)ÿÿin    SMTP    : [ 0: 0: 3] ACTC.AB.CA (0)¶$’ÖóTvxÉn)ÿÿin    SMTP    : [ 0: 0:27] ACTC.AB.CA (0)¶$’ÖôTv|°Gÿÿnm    MAILER  : From:<@ACTC_MULTICS.ACTC.AB.CA:Jim_Gee@l66a.actc.ab.ca>¶$’ÖõTv~f,ÿÿnm    MAILER  : To:<Dave.Schroth@ACTC.AB.CA>¶$’ÖöTvÔï)ÿÿin    SMTP    : [ 0: 0:24] ACTC.AB.CA (0)¶$’Ö÷Tv×ğGÿÿnm    MAILER  : From:<@ACTC_MULTICS.ACTC.AB.CA:Jim_Gee@l66a.actc.ab.ca>¶$’ÖøTvÙ	…,ÿÿnm    MAILER  : To:<Dave.Schroth@ACTC.AB.CA>¶$’ÖùTv?šó)ÿÿin    SMTP    : [ 0: 0:28] ACTC.AB.CA (0)¶$’ÖúTvCõQGÿÿnm    MAILER  : From:<@ACTC_MULTICS.ACTC.AB.CA:Jim_Gee@l66a.actc.ab.ca>¶$’ÖûTvD°,ÿÿnm    MAILER  : To:<Dave.Schroth@ACTC.AB.CA>¶$’ÖüTv¨ó†)ÿÿin    SMTP    : [ 0: 0:27] ACTC.AB.CA (0)¶$’ÖıTv«‘­Gÿÿnm    MAILER  : From:<@ACTC_MULTICS.ACTC.AB.CA:Jim_Gee@l66a.actc.ab.ca>¶$’ÖşTv¬«a,ÿÿnm    MAILER  : To:<Dave.Schroth@ACTC.AB.CA>¶$’ÖÿTw)ÿÿin    SMTP    : [ 0: 0:27] ATo:<Dave.Schroth@ACTC.AB.CA>¶$’Ö5TzJö¤)ÿÿin    SMTP    : [ 0: 0:29] ACTC.AB.CA (0)¶$’Ö6TzNikGÿÿnm    MAILER  : From:<@ACTC_MULTICS.ACTC.AB.CA:Jim_Gee@l66a.actc.ab.ca>¶$’Ö7TzOš,ÿÿnm    MAILER  : To:<Dave.Schroth@ACTC.AB.CA>¶$’Ö8Tzµ‚ç)ÿÿin    SMTP    : [ 0: 0:28] ACTC.AB.CA (0)¶$’Ö9TzºâGÿÿnm    MAILER  : From:<@ACTC_MULTICS.ACTC.AB.CA:Jim_Gee@l66a.actc.ab.ca>¶$’Ö:Tz¼Z,ÿÿnm    MAILER  : To:<Dave.Schroth@ACTC.AB.CA>¶$’Ö;T{!)ÿÿin    SMTP    : [ 0: 0:28] ACTC.AB.CA (0)¶$’Ö<T{&põGÿÿnm    MAILER  : From:<@ACTC_MULTICS.ACTC.AB.CA:Jim_Gee@l66a.actc.ab.ca>¶$’Ö=T{'„ã,ÿÿnm    MAILER  : To:<Dave.Schroth@ACTC.AB.CA>¶$’Ö>T{‘İt)ÿÿin    SMTP    : [ 0: 0:29] ACTC.AB.CA (0)¶$’Ö?T{”ßGÿÿnm    MAILER  : From:<@ACTC_MULTICS.ACTC.AB.CA:Jim_Gee@l66a.actc.ab.ca>¶$’Ö@T{•ù
,ÿÿnm    MAILER  : To:<Dave.Schroth@ACTC.AB.CA>¶$’ÖAT{üÇ[)ÿÿin    SMTP    : [ 0: 0:28] ACTC.AB.CA (0)¶$’ÖBT{ÅkGÿÿnm    MAILER  : From:<@ACTC_MULTICS.ACTC.AB.CA:Jim_Gee@l66a.actc.ab.ca>¶$’ÖCT{èl,ÿÿnm    MAILER  : To:<Dave.Schroth@ACTC.AB.CA>¶$’ÖDT{h>)ÿÿin    SMTP    : [ 0: 0:28] ACTC.AB.CA (0)¶$’ÖET{v<òGÿÿnm    MAILER  : From:<@ACTC_MULTICS.ACTC.AB.CA:Jim_Gee@l66a.actc.ab.ca>¶$’ÖFT{wVC,ÿÿnm    MAILER  : To:<Dave.Schroth@ACTC.AB.CA>¶$’ÖGT{ÜËÒ)ÿÿin    SMTP    : [ 0: 0:30] ACTC.AB.CA (0)¶$’ÖHT{áèjGÿÿnm    MAILER  : From:<@ACTC_MULTICS.ACTC.AB.CA:Jim_Gee@l66a.actc.ab.ca>¶$’ÖIT{â	Y,ÿÿnm    MAILER  : To:<Dave.Schroth@ACTC.AB.CA>¶$’ÖJT|DV&)ÿÿin    SMTP    : [ 0: 0:27] ACTC.AB.CA (0)¶$’ÖKT|L‰jGÿÿnm    MAILER  : From:<@ACTC_MULTICS.ACTC.AB.CA:Jim_Gee@l66a.actc.ab.ca>¶$’ÖLT|MŞ¤,ÿÿnm    MAILER  : To:<Dave.Schroth@ACTC.AB.CA>¶$’ÖMT|W+ÿÿns    SERVER  : From:<magar@sw.stratus.com>¶$’ÖNT|X»k$ÿÿns    SERVER  : To:<willott@multics>¶$’ÖOT|fïï)ÿÿin    SMTP    : [ 0: 0: 4] ACTC.AB.CA (0)¶$’ÖPT| ú‰)ÿÿin    SMTP    : [ 0: 0:24] ACTC.AB.CA (0)¶$’ÖQT|¤œjGÿÿnm    MAILER  : From:<@ACTC_MULTICS.ACTC.AB.CA:Jim_Gee@l66a.actc.ab.ca>¶$’ÖRT|¥¶Ú,ÿÿnm    MAILER  : To:<Dave.Schroth@ACTC.AB.CA>¶$’ÖST|ïÇ)ÿÿin    SMTP    : [ 0: 0:28] ACTC.AB.CA (0)¶$’ÖTT|‹nGÿÿnm    MAILER  : From:<@ACTC_MULTICS.ACTC.AB.CA:Jim_Gee@l66a.actc.ab.ca>¶$’ÖUT|¥ ,ÿÿnm    MAILER  : To:<Dave.Schroth@ACTC.AB.CA>¶$’ÖVT|v˜í)ÿÿin    SMTP    : [ 0: 0:28] ACTC.AB.CA (0)¶$’ÖWT|zu;Gÿÿnm    MAILER  : From:<@ACTC_MULTICS.ACTC.AB.CA:Jim_Gee@l66a.actc.ab.ca>¶$’ÖXT|{“¦,ÿÿnm    MAILER  : To:<Dave.Schroth@ACTC.AB.CA>¶$’ÖYT|×°)ÿÿin    SMTP    : [ 0: 0:25] ACTC.AB.CA (0)¶$’ÖZT|åÑŞGÿÿnm    MAILER  : From:<@ACTC_MULTICS.ACTC.AB.CA:Jim_Gee@l66a.actc.ab.ca>¶$’Ö[T|æì*,ÿÿnm    MAILER  : To:<Dave.Schroth@ACTC.AB.CA>¶$’Ö\T}:Øz)ÿÿin    SMTP    : [ 0: 0:26] ACTC.AB.CA (0)¶$’Ö]T}>	ñGÿÿnm    MAILER  : From:<@ACTC_MULTICS.ACTC.AB.CA:Jim_Gee@l66a.actc.ab.ca>¶$’Ö^T}?ä,ÿÿnm    MAILER  : To:<Dave.Schroth@ACTC.AB.CA>¶$’Ö_T}¡XÊ)ÿÿin    SMTP    : [ 0: 0:27] ACTC.AB.CA (0)¶$’Ö`T}¤ ßGÿÿnm    MAILER  : From:<@ACTC_MULTICS.ACTC.AB.CA:Jim_Gee@l66a.actc.ab.ca>¶$’ÖaT}¥´æ,ÿÿnm    MAILER  : To:<Dave.Schroth@ACTC.AB.CA>¶$’ÖbT}ÿØ)ÿÿin    SMTP    : [ 0: 0:28] ACTC.AB.CA (0)¶$’ÖcT}/÷Gÿÿnm    MAILER  : From:<@ACTC_MULTICS.ACTC.AB.CA:Jim_Gee@l66a.actc.ab.ca>¶$’ÖdT}LÃ,ÿÿnm    MAILER  : To:<Dave.Schroth@ACTC.AB.CA>¶$’ÖeT}z4!)ÿÿin    SMTP    : [ 0: 0:29] ACTC.AB.CA (0)¶$’ÖfT}}Ã^Gÿÿnm    MAILER  : From:<@ACTC_MULTICS.ACTC.AB.CA:Jim_Gee@l66a.actc.ab.ca>¶$’ÖgT}~ì%,ÿÿnm    MAILER  : To:<Dave.Schroth@ACTC.AB.CA>¶$’ÖhT}Şîï)ÿÿin    SMTP    : [ 0: 0:26] ACTC.AB.CA (0)¶$’ÖiT}âõZGÿÿnm    MAILER  : From:<@ACTC_MULTICS.ACTC.AB.CA:Jim_Gee@l66a.actc.ab.From:<@ACTC_MULTICS.ACTC.AB.CA:Jim_Gee@l66a.actc.ab.ca>¶$’Ö Tl¯,ÿÿnm    MAILER  : To:<Dave.Schroth@ACTC.AB.CA>¶$’Ö¡Tj­#)ÿÿin    SMTP    : [ 0: 0:27] ACTC.AB.CA (0)¶$’Ö¢ToF Gÿÿnm    MAILER  : From:<@ACTC_MULTICS.ACTC.AB.CA:Jim_Gee@l66a.actc.ab.ca>¶$’Ö£TpƒK,ÿÿnm    MAILER  : To:<Dave.Schroth@ACTC.AB.CA>¶$’Ö¤Tz¨ï)ÿÿin    SMTP    : [ 0: 0: 4] ACTC.AB.CA (0)¶$’Ö¥T~™AGÿÿnm    MAILER  : From:<@ACTC_MULTICS.ACTC.AB.CA:Jim_Gee@l66a.actc.ab.ca>¶$’Ö¦T-,ÿÿnm    MAILER  : To:<Dave.Schroth@ACTC.AB.CA>¶$’Ö§T±b=)ÿÿin    SMTP    : [ 0: 0:14] ACTC.AB.CA (0)¶$’Ö¨T´
Gÿÿnm    MAILER  : From:<@ACTC_MULTICS.ACTC.AB.CA:Jim_Gee@l66a.actc.ab.ca>¶$’Ö©Tµ)t,ÿÿnm    MAILER  : To:<Dave.Schroth@ACTC.AB.CA>¶$’ÖªT7)ÿÿin    SMTP    : [ 0: 0:24] ACTC.AB.CA (0)¶$’Ö«T(¼Gÿÿnm    MAILER  : From:<@ACTC_MULTICS.ACTC.AB.CA:Jim_Gee@l66a.actc.ab.ca>¶$’Ö¬TAÏ,ÿÿnm    MAILER  : To:<Dave.Schroth@ACTC.AB.CA>¶$’Ö­TnÏ’)ÿÿin    SMTP    : [ 0: 0:24] ACTC.AB.CA (0)¶$’Ö®Ts‡iGÿÿnm    MAILER  : From:<@ACTC_MULTICS.ACTC.AB.CA:Jim_Gee@l66a.actc.ab.ca>¶$’Ö¯Ttæ­,ÿÿnm    MAILER  : To:<Dave.Schroth@ACTC.AB.CA>¶$’Ö°TÚmü)ÿÿin    SMTP    : [ 0: 0:28] ACTC.AB.CA (0)¶$’Ö±TßjZGÿÿnm    MAILER  : From:<@ACTC_MULTICS.ACTC.AB.CA:Jim_Gee@l66a.actc.ab.ca>¶$’Ö²TàÊî,ÿÿnm    MAILER  : To:<Dave.Schroth@ACTC.AB.CA>¶$’Ö³T‚C¯¥)ÿÿin    SMTP    : [ 0: 0:27] ACTC.AB.CA (0)¶$’Ö´T‚GY	Gÿÿnm    MAILER  : From:<@ACTC_MULTICS.ACTC.AB.CA:Jim_Gee@l66a.actc.ab.ca>¶$’ÖµT‚H‡›,ÿÿnm    MAILER  : To:<Dave.Schroth@ACTC.AB.CA>¶$’Ö¶T‚«ğc)ÿÿin    SMTP    : [ 0: 0:27] ACTC.AB.CA (0)¶$’Ö·T‚¯)eGÿÿnm    MAILER  : From:<@ACTC_MULTICS.ACTC.AB.CA:Jim_Gee@l66a.actc.ab.ca>¶$’Ö¸T‚°d-,ÿÿnm    MAILER  : To:<Dave.Schroth@ACTC.AB.CA>¶$’Ö¹T‚ÂL)ÿÿin    SMTP    : [ 0: 0:27] ACTC.AB.CA (0)¶$’ÖºT‚­œGÿÿnm    MAILER  : From:<@ACTC_MULTICS.ACTC.AB.CA:Jim_Gee@l66a.actc.ab.ca>¶$’Ö»T‚Â¡,ÿÿnm    MAILER  : To:<Dave.Schroth@ACTC.AB.CA>¶$’Ö¼T‚vÃÍ)ÿÿin    SMTP    : [ 0: 0:26] ACTC.AB.CA (0)¶$’Ö½T‚zxGÿÿnm    MAILER  : From:<@ACTC_MULTICS.ACTC.AB.CA:Jim_Gee@l66a.actc.ab.ca>¶$’Ö¾T‚{šJ,ÿÿnm    MAILER  : To:<Dave.Schroth@ACTC.AB.CA>¶$’Ö¿T‚Ënš)ÿÿin    SMTP    : [ 0: 0:22] ACTC.AB.CA (0)¶$’ÖÀT‚Ïa­Gÿÿnm    MAILER  : From:<@ACTC_MULTICS.ACTC.AB.CA:Jim_Gee@l66a.actc.ab.ca>¶$’ÖÁT‚Ğz%,ÿÿnm    MAILER  : To:<Dave.Schroth@ACTC.AB.CA>¶$’ÖÂTƒ5Ës)ÿÿin    SMTP    : [ 0: 0:28] ACTC.AB.CA (0)¶$’ÖÃTƒ:@dGÿÿnm    MAILER  : From:<@ACTC_MULTICS.ACTC.AB.CA:Jim_Gee@l66a.actc.ab.ca>¶$’ÖÄTƒ;Wo,ÿÿnm    MAILER  : To:<Dave.Schroth@ACTC.AB.CA>¶$’ÖÅTƒ²)ÿÿin    SMTP    : [ 0: 0:27] ACTC.AB.CA (0)¶$’ÖÆTƒ¡dHGÿÿnm    MAILER  : From:<@ACTC_MULTICS.ACTC.AB.CA:Jim_Gee@l66a.actc.ab.ca>¶$’ÖÇTƒ¢¡(,ÿÿnm    MAILER  : To:<Dave.Schroth@ACTC.AB.CA>¶$’ÖÈTƒ«‚)ÿÿin    SMTP    : [ 0: 0:27] ACTC.AB.CA (0)¶$’ÖÉTƒ	{Gÿÿnm    MAILER  : From:<@ACTC_MULTICS.ACTC.AB.CA:Jim_Gee@l66a.actc.ab.ca>¶$’ÖÊTƒ
ª),ÿÿnm    MAILER  : To:<Dave.Schroth@ACTC.AB.CA>¶$’ÖËTƒtg\)ÿÿin    SMTP    : [ 0: 0:29] ACTC.AB.CA (0)¶$’ÖÌTƒx{fGÿÿnm    MAILER  : From:<@ACTC_MULTICS.ACTC.AB.CA:Jim_Gee@l66a.actc.ab.ca>¶$’ÖÍTƒy‘Ç,ÿÿnm    MAILER  : To:<Dave.Schroth@ACTC.AB.CA>¶$’ÖÎTƒßš!)ÿÿin    SMTP    : [ 0: 0:28] ACTC.AB.CA (0)¶$’ÖÏTƒâùGÿÿnm    MAILER  : From:<@ACTC_MULTICS.ACTC.AB.CA:Jim_Gee@l66a.actc.ab.ca>¶$’ÖĞTƒã+,ÿÿnm    MAILER  : To:<Dave.Schroth@ACTC.AB.CA>¶$’ÖÑT„:éÚ)ÿÿin    SMTP    : [ 0: 0:24] ACTC.AB.CA (0)¶$’ÖÒT„=ŒQGÿÿnm    MAILER  : From:<@ACTC_MULTICS.ACTC.AB.CA:Jim_Gee@l66a.actc.ab.ca>¶$’ÖÓT„>§J,ÿÿnm    MAILER  : To:<Dave.Schroth@ACTC.AB.CA>¶$’ÖÔT„¤…d)ÿÿin  ,ÿÿnm    MAILER  : To:<Dave.Schroth@ACTC.AB.CA>¶$’×
T…ù.)ÿÿin    SMTP    : [ 0: 0:27] ACTC.AB.CA (0)¶$’×T…ı6ªGÿÿnm    MAILER  : From:<@ACTC_MULTICS.ACTC.AB.CA:Jim_Gee@l66a.actc.ab.ca>¶$’×T…şJf,ÿÿnm    MAILER  : To:<Dave.Schroth@ACTC.AB.CA>¶$’×T†]İ”)ÿÿin    SMTP    : [ 0: 0:26] ACTC.AB.CA (0)¶$’×T†aøGÿÿnm    MAILER  : From:<@ACTC_MULTICS.ACTC.AB.CA:Jim_Gee@l66a.actc.ab.ca>¶$’×T†b6,ÿÿnm    MAILER  : To:<Dave.Schroth@ACTC.AB.CA>¶$’×T†ÉT)ÿÿin    SMTP    : [ 0: 0:28] ACTC.AB.CA (0)¶$’×T†ñÙGÿÿnm    MAILER  : From:<@ACTC_MULTICS.ACTC.AB.CA:Jim_Gee@l66a.actc.ab.ca>¶$’×T†òğ²,ÿÿnm    MAILER  : To:<Dave.Schroth@ACTC.AB.CA>¶$’×T†NÜè)ÿÿin    SMTP    : [ 0: 0:35] ACTC.AB.CA (0)¶$’×T†uFiGÿÿnm    MAILER  : From:<@ACTC_MULTICS.ACTC.AB.CA:Jim_Gee@l66a.actc.ab.ca>¶$’×T†v°z,ÿÿnm    MAILER  : To:<Dave.Schroth@ACTC.AB.CA>¶$’×T†Õ)ÿÿin    SMTP    : [ 0: 0:35] ACTC.AB.CA (0)¶$’×T†ÜÁ!Gÿÿnm    MAILER  : From:<@ACTC_MULTICS.ACTC.AB.CA:Jim_Gee@l66a.actc.ab.ca>¶$’×T†İÕe,ÿÿnm    MAILER  : To:<Dave.Schroth@ACTC.AB.CA>¶$’×T‡<ís)ÿÿin    SMTP    : [ 0: 0:27] ACTC.AB.CA (0)¶$’×T‡C¶}Gÿÿnm    MAILER  : From:<@ACTC_MULTICS.ACTC.AB.CA:Jim_Gee@l66a.actc.ab.ca>¶$’×T‡DŞ‡,ÿÿnm    MAILER  : To:<Dave.Schroth@ACTC.AB.CA>¶$’×T‡§‡’)ÿÿin    SMTP    : [ 0: 0:28] ACTC.AB.CA (0)¶$’×T‡­7ÁGÿÿnm    MAILER  : From:<@ACTC_MULTICS.ACTC.AB.CA:Jim_Gee@l66a.actc.ab.ca>¶$’×T‡®Q!,ÿÿnm    MAILER  : To:<Dave.Schroth@ACTC.AB.CA>¶$’×T‡T)ÿÿin    SMTP    : [ 0: 0:27] ACTC.AB.CA (0)¶$’× T‡ÿGÿÿnm    MAILER  : From:<@ACTC_MULTICS.ACTC.AB.CA:Jim_Gee@l66a.actc.ab.ca>¶$’×!T‡ö,ÿÿnm    MAILER  : To:<Dave.Schroth@ACTC.AB.CA>¶$’×"T‡qyU)ÿÿin    SMTP    : [ 0: 0:25] ACTC.AB.CA (0)¶$’×#T‡v<ÿGÿÿnm    MAILER  : From:<@ACTC_MULTICS.ACTC.AB.CA:Jim_Gee@l66a.actc.ab.ca>¶$’×$T‡wVC,ÿÿnm    MAILER  : To:<Dave.Schroth@ACTC.AB.CA>¶$’×%T‡Ú Q)ÿÿin    SMTP    : [ 0: 0:27] ACTC.AB.CA (0)¶$’×&T‡à2UGÿÿnm    MAILER  : From:<@ACTC_MULTICS.ACTC.AB.CA:Jim_Gee@l66a.actc.ab.ca>¶$’×'T‡áP,ÿÿnm    MAILER  : To:<Dave.Schroth@ACTC.AB.CA>¶$’×(Tˆ@*Û)ÿÿin    SMTP    : [ 0: 0:26] ACTC.AB.CA (0)¶$’×)TˆGì:Gÿÿnm    MAILER  : From:<@ACTC_MULTICS.ACTC.AB.CA:Jim_Gee@l66a.actc.ab.ca>¶$’×*TˆHƒ,ÿÿnm    MAILER  : To:<Dave.Schroth@ACTC.AB.CA>¶$’×+TˆˆÜn)ÿÿin    SMTP    : [ 0: 0:19] ACTC.AB.CA (0)¶$’×,Tˆ±cGÿÿnm    MAILER  : From:<@ACTC_MULTICS.ACTC.AB.CA:Jim_Gee@l66a.actc.ab.ca>¶$’×-Tˆ²? ,ÿÿnm    MAILER  : To:<Dave.Schroth@ACTC.AB.CA>¶$’×.TˆÆ§)ÿÿin    SMTP    : [ 0: 0:36] ACTC.AB.CA (0)¶$’×/Tˆ;¸Gÿÿnm    MAILER  : From:<@ACTC_MULTICS.ACTC.AB.CA:Jim_Gee@l66a.actc.ab.ca>¶$’×0TˆY,ÿÿnm    MAILER  : To:<Dave.Schroth@ACTC.AB.CA>¶$’×1Tˆ}$@)ÿÿin    SMTP    : [ 0: 0:27] ACTC.AB.CA (0)¶$’×2Tˆ‚Í¶Gÿÿnm    MAILER  : From:<@ACTC_MULTICS.ACTC.AB.CA:Jim_Gee@l66a.actc.ab.ca>¶$’×3Tˆƒæ,ÿÿnm    MAILER  : To:<Dave.Schroth@ACTC.AB.CA>¶$’×4Tˆê )ÿÿin    SMTP    : [ 0: 0:28] ACTC.AB.CA (0)¶$’×5TˆğfíGÿÿnm    MAILER  : From:<@ACTC_MULTICS.ACTC.AB.CA:Jim_Gee@l66a.actc.ab.ca>¶$’×6Tˆñ‚8,ÿÿnm    MAILER  : To:<Dave.Schroth@ACTC.AB.CA>¶$’×7T‰XÛ-)ÿÿin    SMTP    : [ 0: 0:29] ACTC.AB.CA (0)¶$’×8T‰\ıpGÿÿnm    MAILER  : From:<@ACTC_MULTICS.ACTC.AB.CA:Jim_Gee@l66a.actc.ab.ca>¶$’×9T‰]®,ÿÿnm    MAILER  : To:<Dave.Schroth@ACTC.AB.CA>¶$’×:T‰°¼À)ÿÿin    SMTP    : [ 0: 0:23] ACTC.AB.CA (0)¶$’×;T‰ÀğGÿÿnm    MAILER  : From:<@ACTC_MULTICS.ACTC.AB.CA:Jim_Gee@l66a.actc.ab.ca>¶$’×<T‰ÁV,ÿÿnm    MAILER  : To:<Dave.Schroth@ACTC.AB.CA>¶$’×=T‰#ìÍ)ÿÿin    SMTP    : [ 0: 0:30] ACTC.AB.CA (0)¶$’×>T‰)NbGÿÿnm    MAe containing comment.		*/
  4    32 	    3 S,					/* switches:				*/
  4    33 	      4 before_stmt		bit(1),		/* comment is before 1st token of stmt.		*/
  4    34 	      4 contiguous		bit(1),		/* no tokens between this and last comment.	*/
  4    35 	      4 pad		bit(16),
  4    36 	comment_value		char(comment.Lvalue) based (comment.Pvalue),
  4    37 						/* body of comment.				*/
  4    38 	Pcomment			ptr;		/* ptr to comment descriptor.			*/
  4    39 	
  4    40      dcl
  4    41 	1 stmt			aligned based (Pstmt),
  4    42 						/* descriptor for a statement.		*/
  4    43 	  2 group1		unaligned,
  4    44 	    3 version		fixed bin(17),	/* statement descriptor version.		*/
  4    45 	    3 size		fixed bin(17),	/* statement descriptor size (in words).	*/
  4    46 	  2 Pnext			ptr unal,		/* ptr to next statement descriptor.		*/
  4    47 	  2 Plast			ptr unal,		/* ptr to last statement descriptor.		*/
  4    48 	  2 Pvalue		ptr unal,		/* ptr to statement.			*/
  4    49 	  2 Lvalue		fixed bin(18),	/* length of statement.			*/
  4    50 	  2 Pfirst_token		ptr unal,		/* ptr to 1st token of statement.		*/
  4    51 	  2 Plast_token		ptr unal,		/* ptr to last token of statement.		*/
  4    52 	  2 Pcomments		ptr unal,		/* ptr to comments in statement.		*/
  4    53 	  2 Puser			ptr unal,		/* user-defined ptr.			*/
  4    54 	  2 group2		unaligned,
  4    55 	    3 Ntokens		fixed bin(17),	/* number of tokens in statement.		*/
  4    56 	    3 line_no		fixed bin(17),	/* line no of line on which statement begins.	*/
  4    57 	    3 Istmt_in_line		fixed bin(17),	/* number of stmts in line containing this stmt.	*/
  4    58 						/* (the number includes this stmt.)		*/
  4    59 	    3 semant_type		fixed bin(17),	/* semantic type of the statement.		*/
  4    60 	    3 S,					/* switches:				*/
  4    61 	      4 error_in_stmt	bit(1),		/* stmt contains a syntactic error.		*/
  4    62 	      4 output_in_err_msg	bit(1),		/* stmt has been output in previous error message.*/
  4    63 	      4 pad		bit(34),
  4    64 	stmt_value		char(stmt.Lvalue) based (stmt.Pvalue),
  4    65 						/* text of the statement.			*/
  4    66 	Pstmt			ptr;		/* ptr to a stmt descriptor. 			*/
  4    67
  4    68      dcl
  4    69 	1 token			aligned based (Ptoken),
  4    70 						/* descriptor for a token.			*/
  4    71 	  2 group1		unaligned,
  4    72 	    3 version		fixed bin(17),	/* token descriptor version.			*/
  4    73 	    3 size		fixed bin(17),	/* token descriptor size (in words).		*/
  4    74 	  2 Pnext			ptr unal,		/* ptr to next token descriptor.		*/
  4    75 	  2 Plast			ptr unal,		/* ptr to last token descriptor.		*/
  4    76 	  2 Pvalue		ptr unal,		/* ptr to token.				*/
  4    77 	  2 Lvalue		fixed bin(18),	/* length of token.				*/
  4    78 	  2 Pstmt			ptr unal,		/* ptr to descriptor of stmt containing token.	*/
  4    79 	  2 Psemant		ptr unal,		/* ptr to descriptor(s) of token's semantic value.*/
  4    80 	  2 group2		unaligned,
  4    81 	    3 Itoken_in_stmt	fixed bin(17),	/* position of token within its statement.	*/
  4    82 	    3 line_no		fixed bin(17),	/* line number of the line containing the token.	*/
  4    83 	    3 Nvalue		fixed bin(35),	/* numeric value of decimal-integer tokens.	*/
  4    84 	    3 S,					/* switches:				*/
  4    85 	      4 end_of_stmt		bit(1),		/* token is an end-of-stmt token.		*/
  4    86 	      4 quoted_string	bit(1),		/* token is a quoted string.			*/
  4    87 	      4 quotes_in_string	bit(1),		/* on if quote-close delimiters appear in quoted	*/
  4    88 						/* string (as doubled quotes on input.)		*/
  4    89 	      4 quotes_doubled	bit(1),		/* on if quotes in the string are doubled after	*/
  4    90 						/* string has been lexed into a token.		*/
  4    91 	      4 pad2		bit(32),
  4    92 	token_value		char(token.Lvalue) based (token.Pvalue),
  4    93 						/* value of the token.			*/
  4    94 	Ptoken			ptr;		/* ptr to a token descriptor.			*/
  4    95
  4    96 	/*  END OF:	lex_descriptors_.incl.pl1	  *  *  *  *  *  *  */
  3    25
  3    26 
  3    27 /*  *  *  *  *  *  *  *  *  *  *  *  *  *  *  *  *  **  *  *  *  *  *  *  *  *  *  *  *  *  *  *  *  *  *  *  */
  3    28
  3    29
  3    30 SEMANTIC_ANALYSIS:	procedure;			/* procedure which analyzes the syntax and	*/
  3    31 						/* semantics of the tokens in the input list.	*/
  3    32
  3    33      dcl						/*	automatic variables			*/
  3    34 	LTOKEN_REQD_VALUE		fixed bin(18),	/* length of a token requirement.		*/
  3    35 	NRED			fixed bin,	/* number of the reduction tokens are being	*/
  3    36 						/* compared to.				*/
  3    37 	PRED			ptr,		/* ptr to the reduction tokens are being	*/
  3    38 						/* compared to.				*/
  3    39 	PTOKEN_REQD		ptr,		/* ptr to token requirement descriptor associated	*/
  3    40 						/* with reduction tokens are being compared to.	*/
  3    41 	PTOKEN_REQD_VALUE		ptr,		/* ptr to a token requirement.		*/
  3    42 	STOKEN_FCN		bit(1) aligned,	/* return value from a relative syntax function.	*/
  3    43 	CODE			fixed bin(35),	/* an error code.				*/
  3    44 	I			fixed bin,	/* a do-group index.			*/
  3    45 	NUMBER			fixed bin(35);	/* fixed binary representation of a decimal 	*/
  3    46 						/* number character string.			*/
  3    47
  3    48      dcl						/*	based variables			*/
  3    49 	1 RED			aligned based (PRED),
  3    50 						/* descriptor for reduction tokens are being 	*/
  3    51 						/* compared to.				*/
  3    52 	  2 TOKEN_REQD		unaligned,
  3    53 	    3 IFIRST		fixed bin(17) unal,	/* index of first token requirement.		*/
  3    54 	    3 ILAST		fixed bin(17) unal,	/* index of last  token requirement associated	*/
  3    55 						/* with this reduction.			*/
  3    56 	1 TOKEN_REQD		aligned based (PTOKEN_REQD),
  3    57 						/* a token requirement descriptor.		*/
  3    58 	  2 FORM			fixed bin(17) unal,	/* form of the token requirement:		*/
  3    59 						/*  -1 = relative token requirement function;	*/
  3    60 						/*       TYPE = index of the particular token	*/
  3    61 						/*	      function in the token_fcn array.	*/
  3    62 						/*   0 = built-in token requirement function;	*/
  3    63 						/*       TYPE = as defined below.		*/
  3    64 						/*  >0 = absolute token requirement:		*/
  3    65 						/*       FORM = index(TOKEN_STRINGS,TOKEN_REQD);	*/
  3    66 						/*       TYPE = length(TOKEN_REQD);		*/
  3    67 	  2 TYPE			fixed bin(17) unal,	/* TYPE of built-in token requirement function:	*/
  3    68 						/*   1 = compile test to see if input token 	*/
  3    69 						/*       chain is exhausted (<no-token>).	*/
  3    70 						/*   2 = compile test for any token value	*/
  3    71 						/*       (<any-token>).			*/
  3    72 						/*   3 = compile test for a PL/I identifier	*/
  3    73 						/*       (<name>) of 32 or fewer characters.	*/
  3    74 						/*   4 = compile test for token which is a	*/
  3    75 						/*       <decimal-integer>.			*/
  3    76 						/*   5 = compile test for token which is a single	*/
  3    77 						/*       backspace character (<BS>).		*/
  3    78 						/*   6 = compile test for a token which is a	*/
  3    79 						/*       <quoted-string>.			*/
  3    80 
  3    81 	1 TOKEN_REQD_STRING		aligned based (PTOKEN_REQD),
  3    82 						/* overlay for an absolute token requirement	*/
  3    83 						/* descriptor.				*/
  3    84 	  2 I			fixed bin(17) unal,	/* index into list of token strings of the	*/
  3    85 						/* absolute token string assoc w/ descriptor.	*/
  3    86 	  2 L			fixed bin(17) unal,	/* length of the absolute token string.		*/
  3    87 	TOKEN_REQD_VALUE		char(LTOKEN_REQD_VALUE) based (PTOKEN_REQD_VALUE);
  3    88 						/* absolute token string which token is reqd	*/
  3    89 						/* to match in order for tokens which are	*/
  3    90 						/* "current" on the list to match the reduction.	*/
  3    91
  3    92      dcl						/*	builtin functions			*/
  3    93          (addr, max, null, search, substr, verify)
  3    94 				builtin;
  3    95
  3    96      dcl						/*	entries				*/
  3    97 	cv_dec_check_		entry (char(*), fixed bin(35)) returns (fixed biTP    : [ 0: 0:24] ACTC.AB.CA (0)¶$’×©T<Gÿÿnm    MAILER  : From:<@ACTC_MULTICS.ACTC.AB.CA:Jim_Gee@l66a.actc.ab.ca>¶$’×ªT!¸,ÿÿnm    MAILER  : To:<Dave.Schroth@ACTC.AB.CA>¶$’×«TiÎÙ)ÿÿin    SMTP    : [ 0: 0:25] ACTC.AB.CA (0)¶$’×¬Tl7ëGÿÿnm    MAILER  : From:<@ACTC_MULTICS.ACTC.AB.CA:Jim_Gee@l66a.actc.ab.ca>¶$’×­Tm]Ò,ÿÿnm    MAILER  : To:<Dave.Schroth@ACTC.AB.CA>¶$’×®Tœ)ÿÿin    SMTP    : [ 0: 0:13] ACTC.AB.CA (0)¶$’×¯T /ñGÿÿnm    MAILER  : From:<@ACTC_MULTICS.ACTC.AB.CA:Jim_Gee@l66a.actc.ab.ca>¶$’×°T¢8u,ÿÿnm    MAILER  : To:<Dave.Schroth@ACTC.AB.CA>¶$’×±TÑÂ¹)ÿÿin    SMTP    : [ 0: 0:13] ACTC.AB.CA (0)¶$’×²TÕ_Gÿÿnm    MAILER  : From:<@ACTC_MULTICS.ACTC.AB.CA:Jim_Gee@l66a.actc.ab.ca>¶$’×³TÖfx,ÿÿnm    MAILER  : To:<Dave.Schroth@ACTC.AB.CA>¶$’×´Tüõ³)ÿÿin    SMTP    : [ 0: 0:11] ACTC.AB.CA (0)¶$’×µTªTGÿÿnm    MAILER  : From:<@ACTC_MULTICS.ACTC.AB.CA:Jim_Gee@l66a.actc.ab.ca>¶$’×¶T¾‰,ÿÿnm    MAILER  : To:<Dave.Schroth@ACTC.AB.CA>¶$’×·Th/©)ÿÿin    SMTP    : [ 0: 0:28] ACTC.AB.CA (0)¶$’×¸TkRÚGÿÿnm    MAILER  : From:<@ACTC_MULTICS.ACTC.AB.CA:Jim_Gee@l66a.actc.ab.ca>¶$’×¹Tls:,ÿÿnm    MAILER  : To:<Dave.Schroth@ACTC.AB.CA>¶$’×ºT¨)ÿÿin    SMTP    : [ 0: 0:16] ACTC.AB.CA (0)¶$’×»T¬]ÃGÿÿnm    MAILER  : From:<@ACTC_MULTICS.ACTC.AB.CA:Jim_Gee@l66a.actc.ab.ca>¶$’×¼T­!ô,ÿÿnm    MAILER  : To:<Dave.Schroth@ACTC.AB.CA>¶$’×½T9)ÿÿin    SMTP    : [ 0: 0:23] ACTC.AB.CA (0)¶$’×¾TÿuGÿÿnm    MAILER  : From:<@ACTC_MULTICS.ACTC.AB.CA:Jim_Gee@l66a.actc.ab.ca>¶$’×¿T(ğ,ÿÿnm    MAILER  : To:<Dave.Schroth@ACTC.AB.CA>¶$’×ÀT<ªL)ÿÿin    SMTP    : [ 0: 0:15] ACTC.AB.CA (0)¶$’×ÁTEaGÿÿnm    MAILER  : From:<@ACTC_MULTICS.ACTC.AB.CA:Jim_Gee@l66a.actc.ab.ca>¶$’×ÂTGà¥,ÿÿnm    MAILER  : To:<Dave.Schroth@ACTC.AB.CA>¶$’×ÃTª‰û)ÿÿin    SMTP    : [ 0: 0:28] ACTC.AB.CA (0)¶$’×ÄT®AïGÿÿnm    MAILER  : From:<@ACTC_MULTICS.ACTC.AB.CA:Jim_Gee@l66a.actc.ab.ca>¶$’×ÅT¯`Å,ÿÿnm    MAILER  : To:<Dave.Schroth@ACTC.AB.CA>¶$’×ÆT‘tè)ÿÿin    SMTP    : [ 0: 0:27] ACTC.AB.CA (0)¶$’×ÇT‘¾íGÿÿnm    MAILER  : From:<@ACTC_MULTICS.ACTC.AB.CA:Jim_Gee@l66a.actc.ab.ca>¶$’×ÈT‘İS,ÿÿnm    MAILER  : To:<Dave.Schroth@ACTC.AB.CA>¶$’×ÉT‘n~Ş)ÿÿin    SMTP    : [ 0: 0:24] ACTC.AB.CA (0)¶$’×ÊT‘n:F,ÿÿin    TELNET  : [ 0: 3:32] 192.94.126.54 (3)¶$’×ËT‘r?ßGÿÿnm    MAILER  : From:<@ACTC_MULTICS.ACTC.AB.CA:Jim_Gee@l66a.actc.ab.ca>¶$’×ÌT‘sZ‹,ÿÿnm    MAILER  : To:<Dave.Schroth@ACTC.AB.CA>¶$’×ÍT‘Ù¤X)ÿÿin    SMTP    : [ 0: 0:28] ACTC.AB.CA (0)¶$’×ÎT‘Ş/ŞGÿÿnm    MAILER  : From:<@ACTC_MULTICS.ACTC.AB.CA:Jim_Gee@l66a.actc.ab.ca>¶$’×ÏT‘ßC#,ÿÿnm    MAILER  : To:<Dave.Schroth@ACTC.AB.CA>¶$’×ĞT‘EŞk)ÿÿin    SMTP    : [ 0: 0:28] ACTC.AB.CA (0)¶$’×ÑT‘HŞ­Gÿÿnm    MAILER  : From:<@ACTC_MULTICS.ACTC.AB.CA:Jim_Gee@l66a.actc.ab.ca>¶$’×ÒT‘I÷%,ÿÿnm    MAILER  : To:<Dave.Schroth@ACTC.AB.CA>¶$’×ÓT‘¯•)ÿÿin    SMTP    : [ 0: 0:27] ACTC.AB.CA (0)¶$’×ÔT‘³k£Gÿÿnm    MAILER  : From:<@ACTC_MULTICS.ACTC.AB.CA:Jim_Gee@l66a.actc.ab.ca>¶$’×ÕT‘´…ô,ÿÿnm    MAILER  : To:<Dave.Schroth@ACTC.AB.CA>¶$’×ÖT’#Ê)ÿÿin    SMTP    : [ 0: 0:25] ACTC.AB.CA (0)¶$’××T’–:Gÿÿnm    MAILER  : From:<@ACTC_MULTICS.ACTC.AB.CA:Jim_Gee@l66a.actc.ab.ca>¶$’×ØT’Ø,ÿÿnm    MAILER  : To:<Dave.Schroth@ACTC.AB.CA>¶$’×ÙT’/ôb)ÿÿin    SMTP    : [ 0: 0: 8] ACTC.AB.CA (0)¶$’×ÚT’3@Gÿÿnm    MAILER  : From:<@ACTC_MULTICS.ACTC.AB.CA:Jim_Gee@l66a.actc.ab.ca>¶$’×ÛT’4s1,ÿÿnm    MAILER  : To:<Dave.Schroth@ACTC.AB.CA>¶$’×ÜT’—S)ÿÿin    SMTP    : [ 0: 0:27] ACTC.AB.CA (0)¶$’×İT’¥±1Gÿÿnm    MAILER  : From:<@A                                            */
      711 	        76,    79,	/*    31/  dir = <absolute_path> ;                                              */
      712 	        80,    83,	/*    32/  dir = <absolute_path> ,                                              */
      713 	        84,    86,	/*    33/  dir = <any-token>                                                    */
      714 	        87,    90,	/*    34/  entry = <before_journal_name> ;                                      */
      715 	        91,    94,	/*    35/  entry = <before_journal_name> ,                                      */
      716 	        95,    97,	/*    36/  entry = <any-token>                                                  */
      717 	         6,     6,	/*    37/  <any-token>                                                          */
      718 	         8,     8,	/*    38/  <no-token>                                                           */
      719 	        98,    99,	/*    39/  hold ;                                                               */
      720 	       100,   101,	/*    40/  hold ,                                                               */
      721 	       102,   103,	/*    41/  hold <any-token>                                                     */
      722 	       104,   106,	/*    42/  ^ hold ;                                                             */
      723 	       107,   109,	/*    43/  ^ hold ,                                                             */
      724 	       110,   112,	/*    44/  ^ hold <any-token>                                                   */
      725 	       113,   114,	/*    45/  adopt ;                                                              */
      726 	       115,   116,	/*    46/  adopt ,                                                              */
      727 	       117,   118,	/*    47/  adopt <any-token>                                                    */
      728 	       119,   121,	/*    48/  ^ adopt ;                                                            */
      729 	       122,   124,	/*    49/  ^ adopt ,                                                            */
      730 	       125,   127,	/*    50/  ^ adopt <any-token>                                                  */
      731 	       128,   129,	/*    51/  recover ;                                                            */
      732 	       130,   131,	/*    52/  recover ,                                                            */
      733 	       132,   133,	/*    53/  recover <any-token>                                                  */
      734 	       134,   136,	/*    54/  ^ recover ;                                                          */
      735 	       137,   139,	/*    55/  ^ recover ,                                                          */
      736 	       140,   142,	/*    56/  ^ recover <any-token>                                                */
      737 	       143,   144,	/*    57/  recovery_check_mode ;                                                */
      738 	       145,   146,	/*    58/  recovery_check_mode ,                                                */
      739 	       147,   148,	/*    59/  recovery_check_mode <any-token>                                      */
      740 	       149,   151,	/*    60/  ^ recovery_check_mode ;                                              */
      741 	       152,   154,	/*    61/  ^ recovery_check_mode ,                                              */
      742 	       155,   157,	/*    62/  ^ recovery_check_mode <any-token>                                    */
      743 	         6,     6,	/*    63/  <any-token>                                                          */
      744 	         8,     8);	/*    64/  <no-token>                                                           */
      745 
      746      dcl	1 TOKEN_REQUIREMENT (157)	unaligned based (addr (TOKEN_REQUIREMENTS)),
      747 						/* object token requirements.			*/
      748 	  2 FORM			fixed bin(17),	/* form of the token requirement:		*/
      749 						/*  -1 = relative token requirement function;	*/
      750 						/*       TYPE = index of the particular token	*/
      751 						/*	      function in the token_fcn array.	*/
      752 						/*   0 = built-in token requirement function;	*/
      753 						/*       TYPE = as defined below.		*/
      754 						/*  >0 = absolute token requirement:		*/
      755 						/*       FORM = index(TOKEN_STRINGS,TOKEN_REQD);	*/
      756 						/*       TYPE = length(TOKEN_REQD);		*/
      757 	  2 TYPE			fixed bin(17) unal,	/* type of the built-in token requirement	*/
      758 						/* function:				*/
      759 						/*   1 = compile test to see if input token 	*/
      760 						/*       chain is exhausted (<no-token>).	*/
      761 						/*   2 = compile test for any token value	*/
      762 						/*       (<any-token>).			*/
      763 						/*   3 = compile test for a PL/I identifier	*/
      764 						/*       (<name>) of 32 or fewer characters.	*/
      765 						/*   4 = compile test for token which is a	*/
      766 						/*       <decimal-integer>.			*/
      767 						/*   5 = compile test for token which is a single	*/
      768 						/*       backspace character (<BS>).		*/
      769 						/*   6 = compile test for a token which is a	*/
      770 						/*       <quoted-string>.			*/
      771
      772 	TOKEN_REQUIREMENTS  (314)	fixed bin(17) unaligned internal static options(constant) initial (
      773 	         1,   26,      27,    1,       0,    4,      28,    1,       1,   26,       0,    2,       1,   26,
      774 	         0,    1,      29,   13,      27,    1,       0,    4,      28,    1,      29,   13,       0,    2,
      775 	        29,   13,       0,    1,      42,   16,      27,    1,       0,    4,      28,    1,      42,   16,
      776 	         0,    2,      42,   16,       0,    1,      58,   12,      27,    1,       0,    4,      28,    1,
      777 	        58,   12,       0,    2,      58,   12,       0,    1,      70,   14,      27,    1,      -1,    1,
      778 	        28,    1,      70,   14,       0,    2,      70,   14,       0,    1,      84,   22,      27,    1,
      779 	       106,   20,      27,    1,     126,   23,      27,    1,     149,    5,      28,    1,     126,   23,
      780 	        27,    1,     154,    1,     149,    5,      28,    1,     126,   23,       0,    2,     126,   23,
      781 	         0,    1,     155,   14,      27,    1,      55,    2,      28,    1,     155,   14,      27,    1,
      782 	       169,    3,      28,    1,     155,   14,       0,    2,     155,   14,       0,    1,     172,    3,
      783 	        28,    1,       0,    1,     172,    3,      28,    1,       0,    2,     175,    3,     178,    1,
      784 	        -1,    2,      28,    1,     175,    3,     178,    1,      -1,    2,     179,    1,     175,    3,
      785 	       178,    1,       0,    2,     180,    5,     178,    1,      -1,    3,      28,    1,     180,    5,
      786 	       178,    1,      -1,    3,     179,    1,     180,    5,     178,    1,       0,    2,     185,    4,
      787 	        28,    1,     185,    4,     179,    1,     185,    4,       0,    2,     154,    1,     185,    4,
      788 	        28,    1,     154,    1,     185,    4,     179,    1,     154,    1,     185,    4,       0,    2,
      789 	       189,    5,      28,    1,     189,    5,     179,    1,     189,    5,       0,    2,     154,    1,
      790 	       189,    5,      28,    1,     154,    1,     189,    5,     179,    1,     154,    1,     189,    5,
      791 	         0,    2,     194,    7,      28,    1,     194,    7,     179,    1,     194,    7,       0,    2,
      792 	       154,    1,     194,    7,      28,    1,     154,    1,     194,    7,     179,    1,     154,    1,
      793 	       194,    7,       0,    2,     201,   19,      28,    1,     201,   19,     179,    1,     201,   19,
      794 	         0,    2,     154,    1,     201,   19,      28,    1,    :<hal.hoover@actc>¶$’×HT–ué%ÿÿns    SERVER  : To:<Westcott@multics>¶$’×IT–|za)ÿÿin    SMTP    : [ 0: 0:20] ACTC.AB.CA (0)¶$’×JT–…‡ƒGÿÿnm    MAILER  : From:<@ACTC_MULTICS.ACTC.AB.CA:Jim_Gee@l66a.actc.ab.ca>¶$’×KT–‡'-,ÿÿnm    MAILER  : To:<Dave.Schroth@ACTC.AB.CA>¶$’×LT–‰G)ÿÿin    SMTP    : [ 0: 0: 7] ACTC.AB.CA (0)¶$’×MT–¯U*)ÿÿin    SMTP    : [ 0: 0:14] ACTC.AB.CA (0)¶$’×NT–´3ÂGÿÿnm    MAILER  : From:<@ACTC_MULTICS.ACTC.AB.CA:Jim_Gee@l66a.actc.ab.ca>¶$’×OT–µr},ÿÿnm    MAILER  : To:<Dave.Schroth@ACTC.AB.CA>¶$’×PT–ÄMú)ÿÿin    SMTP    : [ 0: 0: 5] ACTC.AB.CA (0)¶$’×QT–ÈMGÿÿnm    MAILER  : From:<@ACTC_MULTICS.ACTC.AB.CA:Jim_Gee@l66a.actc.ab.ca>¶$’×RT–ÉÁœ,ÿÿnm    MAILER  : To:<Dave.Schroth@ACTC.AB.CA>¶$’×ST–Ö¼C)ÿÿin    SMTP    : [ 0: 0: 4] ACTC.AB.CA (0)¶$’×TT–ÚüGÿÿnm    MAILER  : From:<@ACTC_MULTICS.ACTC.AB.CA:Jim_Gee@l66a.actc.ab.ca>¶$’×UT–Ûı+,ÿÿnm    MAILER  : To:<Dave.Schroth@ACTC.AB.CA>¶$’×VT–ùïì)ÿÿin    SMTP    : [ 0: 0: 9] ACTC.AB.CA (0)¶$’×WT–ş:UGÿÿnm    MAILER  : From:<@ACTC_MULTICS.ACTC.AB.CA:Jim_Gee@l66a.actc.ab.ca>¶$’×XT–ÿx*,ÿÿnm    MAILER  : To:<Dave.Schroth@ACTC.AB.CA>¶$’×YT—oV)ÿÿin    SMTP    : [ 0: 0: 9] ACTC.AB.CA (0)¶$’×ZT—#÷Gÿÿnm    MAILER  : From:<@ACTC_MULTICS.ACTC.AB.CA:Jim_Gee@l66a.actc.ab.ca>¶$’×[T—$kg,ÿÿnm    MAILER  : To:<Dave.Schroth@ACTC.AB.CA>¶$’×\T—l`+)ÿÿin    SMTP    : [ 0: 0:20] ACTC.AB.CA (0)¶$’×]T—nÚğGÿÿnm    MAILER  : From:<@ACTC_MULTICS.ACTC.AB.CA:Jim_Gee@l66a.actc.ab.ca>¶$’×^T—oô,ÿÿnm    MAILER  : To:<Dave.Schroth@ACTC.AB.CA>¶$’×_T—¯¡œ)ÿÿin    SMTP    : [ 0: 0:17] ACTC.AB.CA (0)¶$’×`T—³»úGÿÿnm    MAILER  : From:<@ACTC_MULTICS.ACTC.AB.CA:Jim_Gee@l66a.actc.ab.ca>¶$’×aT—´Ì,ÿÿnm    MAILER  : To:<Dave.Schroth@ACTC.AB.CA>¶$’×bT—Ñ‘%)ÿÿin    SMTP    : [ 0: 0: 9] ACTC.AB.CA (0)¶$’×cT—ÕºÊGÿÿnm    MAILER  : From:<@ACTC_MULTICS.ACTC.AB.CA:Jim_Gee@l66a.actc.ab.ca>¶$’×dT—×®,ÿÿnm    MAILER  : To:<Dave.Schroth@ACTC.AB.CA>¶$’×eT—*)ÿÿin    SMTP    : [ 0: 0:13] ACTC.AB.CA (0)¶$’×fT—
	ñGÿÿnm    MAILER  : From:<@ACTC_MULTICS.ACTC.AB.CA:Jim_Gee@l66a.actc.ab.ca>¶$’×gT—İì,ÿÿnm    MAILER  : To:<Dave.Schroth@ACTC.AB.CA>¶$’×hT—Pë))ÿÿin    SMTP    : [ 0: 0:19] ACTC.AB.CA (0)¶$’×iT—a—
Gÿÿnm    MAILER  : From:<@ACTC_MULTICS.ACTC.AB.CA:Jim_Gee@l66a.actc.ab.ca>¶$’×jT—bó,ÿÿnm    MAILER  : To:<Dave.Schroth@ACTC.AB.CA>¶$’×kT—²È)ÿÿin    SMTP    : [ 0: 0:16] ACTC.AB.CA (0)¶$’×lT—¡(©Gÿÿnm    MAILER  : From:<@ACTC_MULTICS.ACTC.AB.CA:Jim_Gee@l66a.actc.ab.ca>¶$’×mT—¢ i,ÿÿnm    MAILER  : To:<Dave.Schroth@ACTC.AB.CA>¶$’×nT—º3)ÿÿin    SMTP    : [ 0: 0:11] ACTC.AB.CA (0)¶$’×oT—¾Ä*Gÿÿnm    MAILER  : From:<@ACTC_MULTICS.ACTC.AB.CA:Jim_Gee@l66a.actc.ab.ca>¶$’×pT—À|Ÿ,ÿÿnm    MAILER  : To:<Dave.Schroth@ACTC.AB.CA>¶$’×qT—Ë4")ÿÿin    SMTP    : [ 0: 0: 4] ACTC.AB.CA (0)¶$’×rT—Ña*Gÿÿnm    MAILER  : From:<@ACTC_MULTICS.ACTC.AB.CA:Jim_Gee@l66a.actc.ab.ca>¶$’×sT—ÓÓ,ÿÿnm    MAILER  : To:<Dave.Schroth@ACTC.AB.CA>¶$’×tT—àl
)ÿÿin    SMTP    : [ 0: 0: 5] ACTC.AB.CA (0)¶$’×uT—æ_LGÿÿnm    MAILER  : From:<@ACTC_MULTICS.ACTC.AB.CA:Jim_Gee@l66a.actc.ab.ca>¶$’×vT—è7A,ÿÿnm    MAILER  : To:<Dave.Schroth@ACTC.AB.CA>¶$’×wT—÷ƒÅ)ÿÿin    SMTP    : [ 0: 0: 6] ACTC.AB.CA (0)¶$’×xT—ûÆËGÿÿnm    MAILER  : From:<@ACTC_MULTICS.ACTC.AB.CA:Jim_Gee@l66a.actc.ab.ca>¶$’×yT—ıQn,ÿÿnm    MAILER  : To:<Dave.Schroth@ACTC.AB.CA>¶$’×zT˜õ)ÿÿin    SMTP    : [ 0: 0: 4] ACTC.AB.CA (0)¶$’×{T˜ÀGÿÿnm    MAILER  : From:<@ACTC_MULTICS.ACTC.AB.CA:Jim_Gee@l66a.actc.ab.ca>¶$’×|T˜=$,ÿÿnm    MAILER  : To:<Dave.Schroth@ACTC.AB.CA> RD_TEST_TOKEN(1);
  5    68 		go to RD_NEXT_REDUCTION;
  5    69 		end;
  5    70 	     if TOKEN_REQD.FORM = 0 then do;		/* built-in syntax function.			*/
  5    71 		go to RD_TEST_TOKEN(TOKEN_REQD.TYPE);
  5    72
  5    73 RD_TEST_TOKEN(1):   if SPDL then			/* <no-token>				*/
  5    74 						/* In push-down-language, there are 2 		*/
  5    75 						/*   interpretations of <no-token>.		*/
  5    76 		     if      RED.TOKEN_REQD.IFIRST = RED.TOKEN_REQD.ILAST &
  5    77 			   Ptoken = null then	/* When <no-token> is only spec, the spec asks 	*/
  5    78 			go to RD_MATCH_NO_TOKEN;	/* "Is push down stack empty (all input gone)?"   */
  5    79 		     else if RED.TOKEN_REQD.IFIRST^= RED.TOKEN_REQD.ILAST &
  5    80 			   RED.TOKEN_REQD.IFIRST = I &
  5    81 			   token.Pnext = null then	/* For SPEC1 ... SPECN <no-token>, the spec asks  */
  5    82 			go to RD_MATCH_NO_TOKEN;	/* "Are the topmost tokens on stack SPEC1 - SPECN,*/
  5    83 						/*  and is SPECN the final input token?"	*/
  5    84 		     else go to RD_NEXT_REDUCTION;	/* Those are the only two defs allowed in push	*/
  5    85 						/* down language mode for <no-token>.		*/
  5    86 		else if Ptoken = null then
  5    87 		     go to RD_MATCH_NO_TOKEN;
  5    88 		go to RD_NEXT_REDUCTION;
  5    89
  5    90 RD_TEST_TOKEN(2):	go to RD_MATCH;			/* <any-token>				*/
  5    91 
  5    92 RD_TEST_TOKEN(3):	if token.Lvalue > 0 &		/* <name>					*/
  5    93 		   token.Lvalue <= 32 & ^token.S.quoted_string then
  5    94 		     if search(substr(token_value,1,1),"ABCDEFGHIJKLMNOPQRSTUVWXYZabcdefghijklmnopqrstuvwxyz")
  5    95 		     > 0 then
  5    96 			if verify(token_value,"ABCDEFGHIJKLMNOPQRSTUVWXYZabcdefghijklmnopqrstuvwxyz0123456789_$")
  5    97 			= 0 then
  5    98 			     go to RD_MATCH;
  5    99 		go to RD_NEXT_REDUCTION;
  5   100
  5   101 RD_TEST_TOKEN(4):					/* <decimal-integer>			*/
  5   102 		if token.Nvalue ^= 0 then		/* token already determined to be a number.	*/
  5   103 		     go to RD_MATCH;
  5   104 		if token.S.quoted_string then
  5   105 		     go to RD_NEXT_REDUCTION;
  5   106 		NUMBER = cv_dec_check_ (token_value, CODE);
  5   107 		if CODE = 0 then do;
  5   108 		     token.Nvalue = NUMBER;
  5   109 		     go to RD_MATCH;
  5   110 		     end;
  5   111 		go to RD_NEXT_REDUCTION;
  5   112
  5   113 RD_TEST_TOKEN(5):	if token.Lvalue = 1 then		/* <BS>					*/
  5   114 		     if token_value = BACKSPACE & ^token.S.quoted_string then
  5   115 			go to RD_MATCH;
  5   116 		go to RD_NEXT_REDUCTION;
  5   117
  5   118 RD_TEST_TOKEN(6):	if token.S.quoted_string then		/* <quoted-string>				*/
  5   119 		     go to RD_MATCH;
  5   120 		go to RD_NEXT_REDUCTION;
  5   121 		end;
  5   122
  5   123 	     else if TOKEN_REQD.FORM > 0 then do;	/* absolute syntax specification.		*/
  5   124 		if token.S.quoted_string then
  5   125 		     go to RD_NEXT_REDUCTION;
  5   126 		PTOKEN_REQD_VALUE = addr(substr(TOKEN_STRINGS,TOKEN_REQD_STRING.I));
  5   127 		LTOKEN_REQD_VALUE = TOKEN_REQD_STRING.L;
  5   128 		if token_value = TOKEN_REQD_VALUE then
  5   129 		     go to RD_MATCH;
  5   130 		go to RD_NEXT_REDUCTION;
  5   131 		end;
  5   132
  5   133 	/* END OF:	rdc_end_.incl.pl1		  *  *  *  *  *  *  *  *  *  *  *  *  *  *  *  *  */
      805
      806
      807 	     else do;				/* relative syntax function.			*/
      808 		go to RD_TOKEN_FCN(TOKEN_REQD.TYPE);
      809
      810 RD_TOKEN_FCN(1):	STOKEN_FCN = date_time_offset();
      811 		go to RD_TEST_RESULT;
      812 RD_TOKEN_FCN(2):	STOKEN_FCN = absolute_path();
      813 		go to RD_TEST_RESULT;
      814 RD_TOKEN_FCN(3):	STOKEN_FCN = before_journal_name();
      815 		go to RD_TEST_RESULT;
      816
      817 RD_TEST_RESULT:	if STOKEN_FCN then go to RD_MATCH;
      818 		else go to RD_NEXT_REDUCTION;
      819 		end;
      820
      821 RD_MATCH:      Ptoken = token.Pnext;
      822 RD_MATCH_NO_TOKEN:
      823 	     end;
      824 	Ptoken = Pthis_token;
      825 	go to RD_ACTION(NRED);
      826 
      827
      828 RD_ACTION(1):					/* /					*/
      829 	ca]\Ğ˜€qÂŠÅ›‡¤`ñ±¤	~-šM&]uŒÁ‘…†jøV€ÜêL^…‡^…Ç¢uş4yÈf‰×õ¤`§€qqœ&ƒ¤`‡€övWw+¤`ğ,€ïZà‡şÍdÆĞŠñˆ'€q fÌY‘…0¤`§€q…€q‘	l±‘	l=‰JìZ€q5€q!™¦=µ¤`	€q„–ºRv—Z3P–ºRiÅwóš’q—Yñ¿—Z3U¿‹úš’uešÙ×¥šÙØúÅxú}—vÅ8¤`hÅ„ÇÅ„¼Å†Çnm£óDò‘²rö›¾‹›İ%ŒŠ7œÎÇ)’¯Í¤`š•òí2£•)’ƒšp„da”Š«¢¤`u”ök¤	£Å€q3€qES‰—5T›‚€qTH}çSÖı9¤`ûÂ+ü©€q"¤`ñÁ„dg,€öx¡€q”¤š€q€q4€qz€q$€qÖ€q¹€q»€qş‰×è|üÇ€q#€qøSwÃŸ†jø1€qÀ€qo}Ì©¼d¤B¨€q
€qúŠÅ›iS€Œ„dgF‰JèG€q‰×ó€qëx_@™,E€qr€{€qû=2Ò€qæ‹l8Ï‰JèÅ‰]ƒš‰]†«Šñ¢Á‰‘æZ‰‘æv‰‘æŠñÑMŠñÆL„«%SwÃ €q,Vó€qnSğ•!€qõ„d\-Šñœ‰]†˜yğø2«¤`µ™,E×‰Jè‘¤`¸¤`ÀñÜrœ&‚¤`ï)–&Ò–&Ê²'¤`îV9@eÌ¤`øÈ”Ùä¤`îlƒÜÅ–D¤`ù¤`ğ$ÅpæÅqAÅqHÅqJ¤`ù¤`ödÅx	Å|³ÅšgÅ¾¤`ògšgÅ»¤	·ã¤`ñ,¤`ù¤`¤¤`Ë¿
"œÌ¿õÅ‚ŸŒ…ïD‰$Fˆe×š†Ø£g7Šñ‰­—Ìeªš’d‚‰ÈİÔ˜¤kã‰$c¤	¶O˜y-u‘	l¿–É‚aŒXVš†Ú¤“Œ}éš’a†÷¡ôhvÇy€qi€q6Sğ•[8—f€q	‰JìÅ€q~€q‚š’d§À0§”yü]”ü.•ó´£•Ğ£ó^Ë¤`ïâ¡ÎèJ¤`	f¤`¿¤	£U£”Ø4^D£”÷ÙW»S#€rÄUÈ*Ş€q€qÈ„QuÌ€qÕSÖı.€rÛ‡·¤Pyd@€q-€q‰Jé+}6ãZS‰”Ó}›C‰Jèÿ€qÔ€qµ€q!€q(€q‡Øh‡à	¤`	«¤`	­¤`|‰‘ø‰‘øö¤`öa¤`ò¢‰¿&‰¿î‰¿Ÿ‰¿ˆ‰¿‘¤`öe¤`öX¤`öñ¤`÷}¤`úX¤`÷´¤`÷&¤`÷4¤`÷+¤`÷[¤`÷a¤`÷d¤`÷v¤`ú|¤`ú¤`ú¨¤`ú¤`ùZ¤`ùL¤`ù¿‰¿š±¤`£¤`ú­¤`å¤`_¤`úğ¤`]¤`e¤`ú¤`úA¤`úH¤`ì¤	†û¤`ú¤`úé¤`¾¤`£¤`ûE¤`€¤`û\¤`À¤`ûâ¤`	¡¤`	¤¤`	P¤`™¤`œ¤`	‰¤	†Ì£•,‰ÈÅs‰‘îF¤`÷V¤`÷¤`÷L¤`öl¤`öÕ¤`÷t¤`Á¤`÷¤¤`ú/¤`÷J¤`÷›¤`÷Ç¤`.¤`úl¤`ù¤`ù¦¤`ù·¤`ùş¤`úJ¤`üL¤`úÙ¤`úË¤`ü¤`úê¤`û7¤`d¤`	„¤`	Ÿ¤`úÁ¤`úÿ¤`7¤`û¤`:¤`û-¤`—¤`û¤`r¤`v¤`9¤`œ‰¿šk¤	†ó¤	{…¤`	O‰‘şí¤`öé‰’û¤`òœ¤`ôÏ¤`÷©¤`öC¤`ù¤`Z¤`÷¤`÷İ¤`÷¤`÷B¤`÷Ş¤`÷n¤`÷‡¤`ù&‰¿4¤`ùW¤`ûE¤`¤`D¤`	Ù¤`
O¤`û€¤`ù¤`ù¤`úv¤`úÃ¿¥¤`ú#¤` ¤`ûø¤`ê¤`ûû¤`”¤`a¤`š¤`	B¤`Ä¤`	#£•,­™Á7¤`ö7¤`õ£‰‘æH‰‘æ¤`ò¦¤`ôG¤`÷°¤`ú)¤`÷:¤`úò¤`8¤`÷Ÿ¤`ùË¤`ùK¤`F¤`úM¤`úW¤`Q¤`^¤`úr¤`û¤¤`û•¤`;¤`ûö¤`«¤`>¤`Ş¤`±‰’?¤`·¤`¶¤`	³¤`	¤`	^¤`n‰¿‘‰¿–?¤`÷Å¤	†ãæ"¾‰‘æt‰‘ø£‰‘şŞ¤`ñg¤`ò§¤`ôS¤`õº¤`ö¼¤`ö‚¤`÷W¤`÷Å¤`÷µ¤`÷Æ¤`÷Ğ¤`ø¤`ûÁ¤`ü	¤`µ¤`úe¤`t¤`ù¤`Ÿ¤`ùq¤`ùæ¤`ò¤`úğ¤`!¤`û‚¤`ûÚ¤`	à¤`	¶¤`æ¤`±¤`	·¤`	Ã¤`	“¤`ş¤`	È¤`ğ1‰‘î^¤`ñ7‰‘ø¤`÷°¤`÷Ù¤`÷€¤`÷¤`òÒ¤`ôï¤`ôĞ‰¿C¤`÷ì¤`õ¹¤`÷~¤`ú[¤`ùT¤`ù^¤`ù[£”ò,¤`*¤`úU¤`ùÔ¤`ùª¤`ùø¤`ù	¤`ún
Absentee user Schroth SysMaint logged in: 04/02/95  0100.0 mdt Sun, request_id: 950326070010.824193
ACTC Technologies Inc. (MR12.5)
Load: 17.0/100.0; Users: 17.
Absentee queue:  1
Absentee input:  >udd>sm>sup>hk>checkvtoc.absin
Absentee output: >udd>sm>sup>hk>checkvtoc.absout


ACTC{SysMaint}  00:00:10.0  5.31  135  >udd>sm>ds
ear >udd>sm>sup>hk>checkvtoc.absin -of >udd>sm>sup>hk>checkvtoc -q 1 -limit 100 -time 95-04-09_00:00 -tc
ID: 88112587; 8 already requested.
>udd>sm>sup>hk>checkvtoc.absin in queue 1
send_admin_command ec admin repair salvquota > 3				 -check_vtoce -compact
send_admin_command: Execution started ... completed.
logout

Absentee user Schroth SysMaint logged out 95-04-02_0000.48_Sun_mst
CPU usage 7 sec, memory usage 0.0 units
ÿÿÿÖMaryniuk              Multics  €ì<Q»V(¯³èìÿÿÿÖMaryniuk              Multics  €Q»ŸH®-0:(ÿÿÿÖMaryniuk              Multics  €Q»ŸÊ¼?B:<ÿÿÿÖMaryniuk              Multics  Q» ¡‘QUèP(ÿÿÿÖMaryniuk              Multics  xQ»¡‡%ÏÒ:d<ÿÿÿÖMaryniuk              Multics  Q»¡ gáä6xPÿÿÿÖ Maryniuk              Multics  PQ»ß~¬fòöyŒdÿÿÿÖ!Maryniuk              Multics  ØQÃÅ5à xÿÿÿÖ"Maryniuk              Multics  €Ô´QÃÆ†Èf!Šê´ŒÿÿÿÖ#Maryniuk              Multics   ÈQÃÇjx‘Å+ĞÈ ÿÿÿÖ$Maryniuk              Multics  ´ÜQÈ®=ô-`Ü´ÿÿÿÖ%Maryniuk              Multics  ÈğQÈø7X_VğÈÿÿÿÖ&Maryniuk              Multics  Ü@QÈ%2@µ2ÂÀÜÿÿÿÖ'Maryniuk              Multics  °QÈR9—òø¨ğÿÿÿÖ(Maryniuk              Multics  ,QÈÏ£±"*ù,ÿÿÿÖ)Maryniuk              Multics  ¤QÊ™3íiqÁ@ÿÿÿÖ*Maryniuk              Multics  ğTQÊšCø›¢#«ÿT,ÿÿÿÖ+Maryniuk              Multics  @hQÊ›£€ëòúh@ÿÿÿÖ,Maryniuk              Multics  T|QÊœYÏ1&;Ê|TÿÿÿÖ-Maryniuk              Multics  hàQÊ·n vhÿÿÿÖ.Maryniuk              Multics  Œ¸QÊaØ8¸»¤|ÿÿÿÖ/Maryniuk              Multics  ,DQÊ[¯ü ¸ÿÿÿÖ0Maryniuk              Multics  ÌQÒà™r€FM|Ì¤ÿÿÿÖ1Maryniuk              Multics  ¸QÒá|N|ls°à¸ÿÿÿÖ2Maryniuk              Multics  |ôQÒâ{òŸ¦ŸôÌÿÿÿÖ3Maryniuk              Multics  àQÒâÈÖìÎ$×µàÿÿÿÖ4Maryniuk              Multics  ôQÒã¬Ø¶ ¥ôÿÿÿÖ5Maryniuk              Multics  0QÒãš57?¢0ÿÿÿÖ6Maryniuk              Multics  €QÒå½Wh&r«DÿÿÿÖ7Maryniuk              Multics  ¤XQÖ=…Á>¤äX0ÿÿÿÖ8Maryniuk              Multics  DlQÖ>Şíhİä·lDÿÿÿÖ9Maryniuk              Multics  X QÖ>K:·€XÿÿÿÖ:Maryniuk              Multics  0”QÖA1qG'Qà”lÿÿÿÖ;Maryniuk              Multics  €¨QÖBGó³‰ú¨€ÿÿÿÖ<Maryniuk              Multics  ”¼QÖCˆeÏAàë¼”ÿÿÿÖ=Maryniuk              Multics  ¨ĞQÖCŠÿ;[cÄĞ¨ÿÿÿÖ>Maryniuk              Multics  ¼äQÖDtªl”)ŸÒä¼ÿÿÿÖ?Maryniuk              Multics  ĞøQÖDâ%ÕÔ+ßøĞÿÿÿÖ@Maryniuk              Multics  ä¬QÛ}Ù¥I%'/eäÿÿÿÖAMaryniuk              Multics  ÌpQÛ}h³v‰´ øÿÿÿÖBMaryniuk              Multics  l4QÛ~Ülk½(Ç¯4ÿÿÿÖCMaryniuk              Multics   HQŞí°¥3:àH ÿÿÿÖDMaryniuk              Multics  4\QŞî’5ÒryŒ\4ÿÿÿÖEMaryniuk              Multics  HQŞî÷‹¶œ£ÍpHÿÿÿÖFMaryniuk              Multics  „QŞî•áÚ×Şº„\ÿÿÿÖGMaryniuk              Multics  p˜QŞîï­V¯˜pÿÿÿÖHMaryniuk              Multics  „8QŞï?â@G{¬„ÿÿÿÖIMaryniuk              Multics  øÀQŞïvdyfnñÀ˜ÿÿÿÖJMaryniuk              Multics  ¬ÔQŞğ"ÉÆ«;º×Ô¬ÿÿÿÖKMaryniuk              Multics  ÀÀèQßFk”²ğñHèÀÿÿÿÖLMaryniuk              Multics  @ÔüQßH«	Ã	ÄäüÔÿÿÿÖMMaryniukltics  äQ>•UîrC8QÛäÿÿÿÖMaryniuk              Multics  ø Q>•#šÔˆ(’› øÿÿÿÖ‚Maryniuk              Multics  4Q>–"_¹'ÃÃ4ÿÿÿÖƒMaryniuk              Multics   HQ>–ıO4,?ÖH ÿÿÿÖ„Maryniuk              Multics  4\Q>–˜šíu{œ\4ÿÿÿÖ…Maryniuk              Multics  HpQ> P(š¢9±ôpHÿÿÿÖ†Maryniuk              Multics  \„Q>¡H²öî)ù;„\ÿÿÿÖ‡Maryniuk              Multics  p˜Q>¡XH(Rã˜pÿÿÿÖˆMaryniuk              Multics  „¬Q>¡Î†ğ‹)–ÿ¬„ÿÿÿÖ‰Maryniuk              Multics  ˜ÀQ>¢Ú¬Ö!ßÖÀ˜ÿÿÿÖŠMaryniuk              Multics  ¬ÔQ>¤ö2%!ÓÔ¬ÿÿÿÖ‹Maryniuk              Multics  ÀèQ>¤­)S[ÒèÀÿÿÿÖŒMaryniuk              Multics  ÔüQ>¥>BC˜
üÔÿÿÿÖMaryniuk              Multics  @èQ@(ØèÛ)æ	èÿÿÿÖMaryniuk              Multics  ü$Q@+zJÑipã$üÿÿÿÖMaryniuk              Multics  8Q@+~ü©¯Ê8ÿÿÿÖMaryniuk              Multics  $LQ@,vâ4âêÑL$ÿÿÿÖ‘Maryniuk              Multics  8tQ@, r2')·`8ÿÿÿÖ’Maryniuk              Multics  ĞœQ@LåW^ntLÿÿÿÖ“Maryniuk              Multics  LÄQ@Mêàáú3Ùˆ`ÿÿÿÖ”Maryniuk              Multics  ôQG¼`p:>E¢œtÿÿÿÖ•Maryniuk              Multics  `°QG¼£Épnu°ˆÿÿÿÖ–Maryniuk              Multics  œ<QLFÀ0™ ÀÄœÿÿÿÖ—Maryniuk              Multics  tØQLIy)ĞÔØ°ÿÿÿÖ˜Maryniuk              Multics  ÄìQLJ½rz+&»ìÄÿÿÿÖ™Maryniuk              Multics  ØQLKDÿ¡U]ØÿÿÿÖšMaryniuk              Multics  ìPQLLÏ8£$¬ÎìÿÿÿÖ›Maryniuk              Multics  ˆ(QP°ûàçœ(ÿÿÿÖœMaryniuk              Multics  xQPöMÃ<ÿÿÿÖMaryniuk              Multics  ° QPğÍ|FMJP(ÿÿÿÖMaryniuk              Multics  dQP1$' +«	d<ÿÿÿÖŸMaryniuk              Multics  PÈQPqşOîôKxPÿÿÿÖ Maryniuk              Multics  (ŒQP	¼3ğGNwŒdÿÿÿÖ¡Lyttle                Multics  x,Q_†Á¥™ls¬ xÿÿÿÖ¢Lyttle                Multics  <´Q_‡Ä¥®´ŒÿÿÿÖ£Lyttle                Multics   ¤Q_ˆ#8'ÑØœÈ ÿÿÿÖ¤Lyttle                Multics  dÜQ_‹úÈÿ/|Ü´ÿÿÿÖ¥Lyttle                Multics  ÈğQ_Œ¯áj.vÿğÈÿÿÿÖ¦Lyttle                Multics  ÜQ_•F¶>ÆÜÿÿÿÖ§Lyttle                Multics  ğQ_—¯ÏK+_ğÿÿÿÖ¨Lyttle                Multics  0Q_˜**¥kp,ÿÿÿÖ©Maryniuk              Multics  Œ@Qj]S‰°·«@ÿÿÿÖªMaryniuk              Multics  ,TQjO½±âéÛT,ÿÿÿÖ«Maryniuk              Multics  @hQj¦pˆ '¢h@ÿÿÿÖ¬Maryniuk              Multics  T|QjğPW‡|TÿÿÿÖ­Maryniuk              Multics  hQjxµäy€hÿÿÿÖ®Maryniuk              Multics  |àQjø6c¨¯¤|ÿÿÿÖ¯Maryniuk              Multics  ´¸Qj0QÓÚ¯¸ÿÿÿÖ°Maryniuk              Multics  ¤ÌQjy!ÜÌ¤ÿÿÿÖ±Maryniuk              Multics  ¸èQj‹‘·5<±à¸ÿÿÿÖ²Maryniuk              Multics  ôQjÉÔqéğ7ôÌÿÿÿÖ³Maryniuk              Multics  à/* START OF:	rdc_error_.incl.pl1		  *  *  *  *  *  *  *  *  *  *  *  *  *  *  *  *  */
  7     2
  7     3      dcl	MERROR_SEVERITY		fixed bin init (0),	/* Severity of highest-severity error.		*/
  7     4 	SERROR_CONTROL		bit(2) init ("00"b),/* Global switches control error message format.	*/
  7     5 	SERROR_PRINTED (dimension (error_control_table,1))
  7     6 				bit(1) unaligned init ((dimension (error_control_table,1))(1)"0"b),
  7     7 						/* Array bit is on if corresponding error message	*/
  7     8 						/* in error_control_table has already been printed*/
  7     9 	MIN_PRINT_SEVERITY		fixed bin init (0), /* Mimimum severity message that will be printed	*/
  7    10 	PRINT_SEVERITY_CONTROL	bit(2) init ("11"b);/* Action if severity < MIN_PRINT_SEVERITY	*/
  7    11
  7    12 	/*  *  *  *  *  *  *  *  *  *  *  *  *  *  *  *  *  *  *  *  *  *  *  *  *  *  *  *  *  * */
  7    13 	/*									*/
  7    14 	/* N__a_m_e:  rdc_error_.incl.pl1							*/
  7    15 	/*									*/
  7    16 	/*      This include segment is used by compilers generated by the reduction_compiler.	*/
  7    17 	/* It defines a procedure which the compilers can use to print error messages.  	*/
  7    18 	/*									*/
  7    19 	/* E__n_t_r_y:  ERROR								*/
  7    20 	/*									*/
  7    21 	/*      Given an error number, this procedure prints a corresponding error message.	*/
  7    22 	/* The message is stored in a compiler-defined error_control_table, along with an integer	*/
  7    23 	/* which specifies the severity level of the error, and a switch which specifies whether	*/
  7    24 	/* the source statement in which the error occurred (if any) should be printed after the	*/
  7    25 	/* error message.  The printing of the error message may be supressed for all messages	*/
  7    26 	/* having a severity less than a specified (MIN_PRINT_SEVERITY) value.  The ERROR	*/
  7    27 	/*  procedure calls the lex_error_ subroutine to perform the formatting and printing of	*/
  7    28 	/*  the error message.							*/
  7    29 	/*									*/
  7    30 	/* U__s_a_g_e									*/
  7    31 	/*									*/
  7    32 	/*      call ERROR (error_number);						*/
  7    33 	/*									*/
  7    34 	/* 1) error_number	is the index of one of the structures in the error_control_table	*/
  7    35 	/*		which defines the error message to be printed.			*/
  7    36 	/*									*/
  7    37 	/* N__o_t_e_s									*/
  7    38 	/*									*/
  7    39 	/*      The format of the error_control_table is shown below.			*/
  7    40 	/*									*/
  7    41 	/*   dcl	1 error_control_table (2)	aligned internal static,			*/
  7    42 	/*	  2 severity		fixed bin(17) unaligned init (2,3),		*/
  7    43 	/*	  2 Soutput_stmt		bit(1) unaligned initial ("0"b,"1"b),		*/
  7    44 	/*	  2 message		char(252) varying initial (			*/
  7    45 	/*		"The reduction source segment does not contain any reductions.",	*/
  7    46 	/*		"Reduction label  '^a'  is invalid."),				*/
  7    47 	/*	  2 brief_message		char(100) varying initial (			*/
  7    48 	/*		"", "'^a'");						*/
  7    49 	/*									*/
  7    50 	/* error_control_table is an array of structures, with one array element per error.	*/
  7    51 	/* Each structure contains: a severity level for the error; a switch which specifies	*/
  7    52 	/* whether the source statement being processed should be output after the error message;	*/
  7    53 	/* the long form of the error message text;  and the brief form of the error message text.*/
  7    54 	/* The dimension of the error_control_table array of structures, and the lengths of	*/
  7    55 	/* message (long message) and brief_message (brief message), are compiler-defined.	*/
  7    56 	/* structures and the lengths of the message and brief_message are compiler-defined.	*/
  7    57 	/* The only requirement is that the messages be 256 characters or less in length.	*/
  7    58 	/* (Remember that the longest character string which can be used in an initial attribute	*/
  7    59 	/* is 254 characters in length.)						*/
  7    60 	/*								 Œ
	ÜÿÿÿÖçMaryniuk              Multics  	ğ
QŸìèÖÿ ¬ ³
	ğÿÿÿÖèMaryniuk              Multics

,QŸí6†ê × Ş…
,
ÿÿÿÖéMaryniuk              Multics

@QŸí…d'  ©
@
ÿÿÿÖêMaryniuk              Multics
,
TQŸî^r[ 2 9Ç
T
,ÿÿÿÖëMaryniuk              Multics
@
hQŸîØ•ÿ k ró
h
@ÿÿÿÖìMaryniuk              Multics
T
|QŸïUu° ¯ ¶Û
|
TÿÿÿÖíMaryniuk              Multics
h
øQŸï÷D-!-!4F

hÿÿÿÖîMaryniuk              Multics  	Ä
¤QŸö©8!Æ!Í‹
¤
|ÿÿÿÖïMaryniuk              Multics

¸QŸ•añ!ğ!÷”
¸
ÿÿÿÖğMaryniuk              Multics
¤
ÌQŸèd¸!œ!£‡
Ì
¤ÿÿÿÖñMaryniuk              Multics
¸
àQŸ#°g!Å!Ì§
à
¸ÿÿÿÖòMaryniuk              Multics
Ì
ôQŸ‚×,!ö!ı±
ô
ÌÿÿÿÖóMaryniuk              Multics
à
QŸó*"*"1„

àÿÿÿÖôMaryniuk              Multics
ô˜QŸ·äÔ"R"Y

ôÿÿÿÖõMaryniuk              Multics  	 
0QŸárá"/")m
0
ÿÿÿÖöMaryniuk              Multics

DQŸŸ,¡"…3"’N
D
ÿÿÿÖ÷Maryniuk              Multics
0
XQŸ$"æ!"ï-
X
0ÿÿÿÖøMaryniuk              Multics
D
lQŸ›¯İ#;,#F³
l
DÿÿÿÖùMaryniuk              Multics
X
€QŸ_*#s'#}±
€
XÿÿÿÖúMaryniuk              Multics
l
”QŸ†H#ê#í¨
”
lÿÿÿÖûMaryniuk              Multics
€
¨QŸ#pÁ¤#W#_¶
¨
€ÿÿÿÖüMaryniuk              Multics
”
¼QŸ#ûÌ#Í#Óà
¼
”ÿÿÿÖıMaryniuk              Multics
¨
ĞQŸ$zÆ$$ë
Ğ
¨ÿÿÿÖşMaryniuk              Multics
¼
äQŸ$
›$L$QÉ
ä
¼ÿÿÿÖÿMaryniuk              Multics
Ğ8QŸ*u²$„+$y
ø
ĞÿÿÿÖLyttle                Multics
|Q¸DÇÆ@$.$5Î
äÿÿÿÖLyttle                Multics
ø Q¸G+E$i$p–
øÿÿÿÖLyttle                Multics  4Q¸Gí˜½$–$4ÿÿÿÖLyttle                Multics   HQ¸H$Á$È‰H ÿÿÿÖLyttle                Multics  4\Q¸HÑFê$ë$ò¦\4ÿÿÿÖLyttle                Multics  HpQ¸IÌêœ%%#¬pHÿÿÿÖLyttle                Multics  \„Q¸I^±G%N%U‚„\ÿÿÿÖLyttle                Multics  pœQ¸J‘?%v%}˜pÿÿÿÖLyttle                Multics
¬Q¸KF—%„%‹.¬„ÿÿÿÖ	Lyttle                Multics  ˜ÀQ¸K…;%W%^¼À˜ÿÿÿÖ
Lyttle                Multics  ¬ÔQ¸LğUÒ%%”	Ô¬ÿÿÿÖLyttle                Multics  ÀèQ¸M<Ã%×%Ş©èÀÿÿÿÖLyttle                Multics  ÔüQ¸MÛ<ó&	&ÜüÔÿÿÿÖLyttle                Multics  èQ¸Nİr&G&NŒèÿÿÿÖLyttle                Multics  ü$Q¸Nß&q&xà$üÿÿÿÖLyttle                Multics  ÄQ¸O|È&°&·œ8ÿÿÿÖLyttle                Multics
äLQ¸V¿±&Ş	&áL$ÿÿÿÖLyttle                Multics  8`Q¸VŠää&â	&å`8ÿÿÿÖLyttle                Multics  LtQ¸\ék&æ&é«tLÿÿÿÖLyttle                Multics  `ˆQ¸_h¦O&)&Àˆ`ÿÿÿÖLyttle                Multics  tØQ¸_ñÍW&O-&[ÁœtÿÿÿÖLyttle                Multics  „°QÁ©õÚÑ&Œ&“­°ˆÿÿÿÖLyttle                Multics  œ(QÁ©¸]§&¿&Æ–ÄœÿÿÿÖLyttle                Multics  $ÌQÁ«¤#&ì&óUØ°ÿÿÿÖLyttle                Multics  ˆìQÂœÕ™Ì'I'O•ìÄÿÿÿÖLyttle                Multics  ØQÂÇÀ9'µ'¼ÜØs bit string, as shown below.			*/
  7   119 	/*									*/
  7   120 	/* PRINT_SEVERITY_CONTROL	_m_e_a_n_i_n_g						*/
  7   121 	/*	"00"b		update neither SERROR_PRINTED nor MERROR_SEVERITY.	*/
  7   122 	/*	"01"b		update SERROR_PRINTED to reflect the error.		*/
  7   123 	/*	"10"b		update MERROR_SEVERITY to reflect the error severity.	*/
  7   124 	/*	"11"b		update SERROR_PRINTED and MERROR_SEVERITY appropriately.	*/
  7   125 	/*The initial value of PRINT_SEVERITY_CONTROL is "11"b.				*/
  7   126 	/*									*/
  7   127 	/*      The ERROR procedure is simple to use, but it does limit the flexibility of the	*/
  7   128 	/* error message.  A compiler action routine can output more flexible error messages	*/
  7   129 	/* by calling lex_error_ directly.  See lex_error_ documentation for more details.	*/
  7   130 	/*									*/
  7   131 	/* S__t_a_t_u_s									*/
  7   132 	/*									*/
  7   133 	/* 0) Created:  April, 1974 by G. C. Dixon					*/
  7   134 	/* 1) Modified: April, 1982 by E. N. Kittlitz.  Added MIN_PRINT_SEVERITY, 		*/
  7   135 	/*		PRINT_SEVERITY_CONTROL.					*/
  7   136 	/*									*/
  7   137 	/*  *  *  *  *  *  *  *  *  *  *  *  *  *  *  *  *  *  *  *  *  *  *  *  *  *  *  *  *  * */
  7   138 
  7   139 ERROR:	procedure (Nerror);
  7   140
  7   141      dcl	Nerror			fixed bin;	/* Number of the error which was detected. (In)	*/
  7   142
  7   143      dcl	Pstmt			ptr,
  7   144 	1 erring_token		aligned based (Perring_token) like token,
  7   145 	Perring_token		ptr,
  7   146 	erring_token_value		char(erring_token.Lvalue) based (erring_token.Pvalue);
  7   147
  7   148      dcl 	(max, null)		builtin;
  7   149
  7   150      dcl	lex_error_		entry options (variable);
  7   151
  7   152
  7   153 	if error_control_table.severity(Nerror) < MIN_PRINT_SEVERITY then do; /* don't print		*/
  7   154 	     if PRINT_SEVERITY_CONTROL & "1"b then	/* update MERROR_SEVERITY			*/
  7   155 		MERROR_SEVERITY = max (MERROR_SEVERITY, error_control_table.severity(Nerror));
  7   156 	     if PRINT_SEVERITY_CONTROL & "01"b then	/* update SERROR_PRINTED			*/
  7   157 		SERROR_PRINTED(Nerror) = "1"b;
  7   158 	     return;
  7   159 	end;
  7   160 	Perring_token = Pthis_token;			/* address the current erring_token.		*/
  7   161 	if error_control_table.Soutput_stmt(Nerror) then
  7   162 	     if Perring_token = null then
  7   163 		Pstmt = null;
  7   164 	     else
  7   165 		Pstmt = erring_token.Pstmt;		/* address the statement descriptor.		*/
  7   166 	else
  7   167 	     Pstmt = null;
  7   168 	if Perring_token = null then
  7   169 	     call lex_error_ (Nerror, SERROR_PRINTED(Nerror), (error_control_table.severity(Nerror)),
  7   170 		MERROR_SEVERITY, Pstmt, Perring_token, SERROR_CONTROL, (error_control_table.message(Nerror)),
  7   171 		(error_control_table.brief_message(Nerror)));
  7   172 	else
  7   173 	     call lex_error_ (Nerror, SERROR_PRINTED(Nerror), (error_control_table.severity(Nerror)),
  7   174 		MERROR_SEVERITY, Pstmt, Perring_token, SERROR_CONTROL, (error_control_table.message(Nerror)),
  7   175 		(error_control_table.brief_message(Nerror)), erring_token_value, erring_token_value, erring_token_value);
  7   176
  7   177 	end ERROR;
  7   178
  7   179 	/* END OF:	rdc_error_.incl.pl1		  *  *  *  *  *  *  *  *  *  *  *  *  *  *  *  *  */
     1246
     1247 
     1248 		/* START OF:	rdc_next_stmt_.incl.pl1	  *  *  *  *  *  *  */
  8     2
  8     3 	/*  *  *  *  *  *  *  *  *  *  *  *  *  *  *  *  *  *  *  *  *  *  *  */
  8     4 	/*							*/
  8     5 	/* N__a_m_e:  rdc_next_stmt_.incl.pl1				*/
  8     6 	/*							*/
  8     7 	/*      This include segment is used by compilers generated by the	*/
  8     8 	/* reduction_compiler.  It includes a procedure which shifts the	*/
  8     9 	/* compilation process to the next source statement.		*/
  8    10 	/*							*/
  8    11 	/* S__t_a_t_u_s							*/
  8    12 	/*							*/
  8    13 	/* 0) Created:  April, 1974 by G. C. Dixon			*/
  8    14 	/*							*/
  8    15 	/*  *  *  *  *  *  *  *  *  *  *  *  *  *  *  *  *  *  *  *  *  *  *  */
  8    16
  8    17
  8    18 NEXT_STMT:	procedure;			/* invoked to begin parsing the next statement of	*/
  8    19 						/* the input tokens.			*/
  8    20
  8    21      dcl	null			builtin,
  8    22 	Ssearching		bit(1) aligned;
  8    23
  8    24 	Ptoken = Pthis_token;			/* make sure these pointers are the same.	*/
  8    25 	Pstmt = token.Pstmt;			/* address "current" statement's descriptor.	*/
  8    26 	Ssearching = "1"b;				/* start scanning forward for next statement.	*/
  8    27 	do while (Ssearching & token.Pnext ^= null);
  8    28 	     Ptoken = token.Pnext;
  8    29 	     if token.Pstmt = Pstmt then;
  8    30 	     else Ssearching = "0"b;
  8    31 	     end;
  8    32 	if token.Pstmt = Pstmt then			/* if there is no next statement, and		*/
  8    33 	     if SPDL then				/*   in PUSH DOWN LANGUAGE mode, can't run off	*/
  8    34 		Ptoken = Ptoken;			/*   end of input list.			*/
  8    35 	     else Ptoken, Pthis_token = null;		/*   otherwise, input list exhausted.		*/
  8    36 	else Pthis_token = Ptoken;			/* normally, next statement exists and Ptoken	*/
  8    37 						/*   points to its 1st _n_o_n-__d_e_l_e_t_e_d token.	*/
  8    38
  8    39 	end NEXT_STMT;
  8    40
  8    41 	/* END OF:	rdc_next_stmt_.incl.pl1	  *  *  *  *  *  *  */
     1248
     1249
     1250 	end dm_translate_system_config_;
	SOURCE FILES USED IN THIS COMPILATION.

LINE      NUMBER  DATE MODIFIED     NAME			PATHNAME
             0    03/17/86  1446.6  dm_translate_system_config_.pl1   >spec>install>1032>dm_translate_system_config_.pl1
660          1    01/07/85  0859.9  dm_system_config.incl.pl1         >ldd>include>dm_system_config.incl.pl1
662          2    04/16/82  0958.1  sub_err_flags.incl.pl1            >ldd>include>sub_err_flags.incl.pl1
669          3    04/18/75  1242.4  rdc_start_.incl.pl1               >ldd>include>rdc_start_.incl.pl1
3-25         4    04/18/75  1242.4  lex_descriptors_.incl.pl1         >ldd>include>lex_descriptors_.incl.pl1
805          5    03/17/86  1404.9  rdc_end_.incl.pl1                 >spec>install>1032>rdc_end_.incl.pl1
1244         6    04/18/75  1242.4  rdc_lex_.incl.pl1                 >ldd>include>rdc_lex_.incl.pl1
1246         7    08/15/83  1511.7  rdc_error_.incl.pl1               >ldd>include>rdc_error_.incl.pl1
1248         8    04/18/75  1242.4  rdc_next_stmt_.incl.pl1           >ldd>include>rdc_next_stmt_.incl.pl1
	NAMES DECLARED IN THIS COMPILATION.

IDENTIFIER	     OFFSET    LOC STORAGE CLASS   DATA TYPE		ATTRIBUTES AND REFERENCES
								(* indicates a set context)

NAMES DECLARED BY DECLARE STATEMENT.
ACTION_DEFAULT_RESTART          000623 constant        bit(36)                  initial dcl 2-7 set ref 573* 582*
BACKSPACE                       005473 constant        char(1)                  initial dcl 3-99 ref 5-113
CODE                            000647 automatic       fixed bin(35,0)          dcl 3-33 set ref 5-106* 5-107
DIRECTION                       000652 automatic       fixed bin(17,0)          initial dcl 671 set ref 5-62 671*
DM_ADOPT_OLD_BOOTLOAD           000604 constant        char(8)                  initial dcl 1-63 ref 499 1105 1111
DM_CONFIG_VERSION_2             000606 constant        char(8)                  initial dcl 1-63 ref 489
DM_DO_NOT_ADOPT_OLD_BOOTLOAD    000602 constant        char(8)                  initial dcl 1-63 ref 1125 1131
DM_DO_NOT_FORCE_ENABLE_NEW_BOOTLOAD
                                000576 constant        char(8)                  initial dcl 1-63 ref 503 945
DM_DO_NOT_HOLD_OLD_BOOTLOAD_DIRECTORY
                                000572 constant        char(8)                  initial dcl 1-63 ref 500 1085 1091
DM_DO_NOT_RECOVER_OLD_BOOTLOAD  000566 constant        char(8)                  initial dcl 1-63 ref 1165 1171
DM_FORCE_ENABLE_NEW_BOOTLOAD    000600 constant        char(8)                  initial dcl 1-63 ref 939
DM_HOLD_OLD_BOOTLOAD_DIRECTORY  000574 constant        char(8)                  initial dcl 1-63 ref 1065 1071
DM_RECOVERY_CHECK_MODE_OFF      000562 constant        char(8)                  initial dcl 1-63 ref 502 1205 1211
DM_RECOVERY_CHECK_MODE_ON       000564 constant        char(8)                  initial dcl 1-63 ref 1185 1191
DM_RECOVER_OLD_BOOTLOAD         000570 constant        char(8)                  initial dcl 1-63 ref 501 1145 1151
FORM                                   based           fixed bin(17,0)          level 2 packed unaligned dcl 3-48 ref 5-65 5-70
                                                                                  5-123
I                               000650 automatic       fixed bin(17,0)          dcl 3-33 in procedure "SEMANTIC_ANALYSIS" set ref
                                                                                  5-62* 5-63 5-79*
I                                      based           fixed bin(17,0)          level 2 in structure "TOKEN_REQD_STRING" packed
                                                                                  unaligned dcl 3-48 in procedure
                                                                                  "SEMANTIC_ANALYSIS" ref 5-126
IFIRST                                 based           fixed bin(17,0)          level 3 packed unaligned dcl 3-48 ref 5-62 5-73 5-79
                                                                                  5-79
ILAST                     0(18)        based           fixed bin(17,0)          level 3 packed unaligned dcl 3-48 ref 5-62 5-73 5-79
L                         0(18)        based           fixed bin(17,0)          level 2 packed unaligned dcl 3-48 ref 5-127
LTOKEN_REQD_VALUE               000636 automatic       fixed bin(18,0)          dcl 3-33 set ref 5-127* 5-128
Lvalue                    4            based           fixed bin(18,0)          level 2 in structure "token" dcl 4-68 in procedure
                                                                                  "dm_translate_system_config_" ref 536 536 539 542
                                                                                  542 563 573 573 603 603 606 609 5-92 5-92 5-92
                                                                                  5-92 5-106 5-106 5-113 5-113 5-128 1014 1021 1035
                                                                                  1042
Lvalue                    4            based           fixed bin(18,0)          level 2 in structure "erring_token" dcl 7-143
                                                                                  in procedure "ERROR" ref 7-172 7-172 7-172 7-172
                                                                                  7-172 7-172
ME                              000610 constant        char(32)                 initial dcl 408 set ref 466* 472* 521* 573* 582*
MERROR_SEVERITY                 000527 automatic       fixed bin(17,0)          initial dcl 7-3 set ref 7-3* 643 7-154* 7-154 7-168*
                                                                                  7-172*
MIN_PRINT_SEVERITY              000531 automatic       fixed bin(17,0)          initial dcl 7-3 set ref 7-3* 7-153
NRED                            000637 automatic       fixed bin(17,0)          dcl 3-33 set ref 5-52* 5-55* 5-55 5-58 825 833* 840*
                                                                                  845* 853* 860* 865* 873* 880* 885* 893* 900* 905*
                                                                                  913* 920* 925* 930* 936* 942* 948* 955* 960* 966*
                                                                                  972* 979* 984* 999* 1009* 1016* 1023* 1030* 1037*
                                                                                  1044* 1051* 1057* 1062* 1068* 1074* 1082* 1088*
                                                                                  1094* 1102* 1108* 1114* 1122* 1128* 1134* 1142*
                                                                                  1148* 1154* 1162* 1168* 1174* 1182* 1188* 1194*
                                                 RzÄì;ó;úàÿÿÿÖ´Lyttle                Multics  ôRz €ë<<%¶ôÿÿÿÖµLyttle                Multics  0R{ĞÆ<S<Z0ÿÿÿÖ¶Lyttle                Multics  €R{Ÿjò<~<…êDÿÿÿÖ·Lyttle                Multics  ÌXR)¸ ˆÀ<À<ÇTX0ÿÿÿÖ¸Lyttle                Multics  DlR)¸¼9<<#|lDÿÿÿÖ¹Lyttle                Multics  X`R)¹CáÚ<B<IŠ€XÿÿÿÖºLyttle                Multics  0”R)¹I>¾<l<s”lÿÿÿÖ»Lyttle                Multics  €€¨R)»‚¢i<·<¾P¨€ÿÿÿÖ¼Lyttle                Multics  ”pR)»¹T==F¼”ÿÿÿÖ½Lyttle                Multics  ˜ĞR-¦¤ÿ`=k	=nĞ¨ÿÿÿÖ¾Lyttle                Multics  ¼äR-¦Cˆ=¯	=²ä¼ÿÿÿÖ¿Lyttle                Multics  €ĞøR-¦óQâ=ô	=÷µøĞÿÿÿÖÀLyttle                Multics  €äR-§¯88=%	=(säÿÿÿÖÁLyttle                Multics  €ø R-©¸û|=E	=H øÿÿÿÖÂLyttle                Multics  4R-©ı–=M	=Pˆ4ÿÿÿÖÃLyttle                Multics   HR-ª…OQ=r	=u¼H ÿÿÿÖÄLyttle                Multics  4\R-ªW$x=¤	=§g\4ÿÿÿÖÅLyttle                Multics  H¬R-«)®«>	>pHÿÿÿÖÆLyttle                Multics  ¨„R-äl>E>Lo„\ÿÿÿÖÇLyttle                Multics  p˜R-ä‰ñ >h>oo˜pÿÿÿÖÈLyttle                Multics  „<R-å5	>‹>’Ç¬„ÿÿÿÖÉLyttle                Multics  \ÀR2S4ËS>Ä>È¢À˜ÿÿÿÖÊLyttle                Multics  ¬ÔR2SÓ>ñ>ö‰Ô¬ÿÿÿÖËLyttle                Multics  ÀèR2T´¼_>Y2>f™èÀÿÿÿÖÌLyttle                Multics  ÔüR2ULŒ®>4>šRüÔÿÿÿÖÍLyttle                Multics  èR2U\ƒ>>ï)>ú}èÿÿÿÖÎLyttle                Multics  ü$R2VŠ?Z*?er$üÿÿÿÖÏLyttle                Multics  8R2WòXâ?Â
?Å±8ÿÿÿÖĞLyttle                Multics  $LR2XZzú?ò
?õ±L$ÿÿÿÖÑLyttle                Multics  8 R2X:e?"?%˜`8ÿÿÿÖÒMaryniuk              Multics  ltRB÷:¸^?K?R³tLÿÿÿÖÓMaryniuk              Multics  `ˆRB÷¯Bœ??†ºˆ`ÿÿÿÖÔMaryniuk              Multics  tœRB÷CÁ?µ?¼†œtÿÿÿÖÕMaryniuk              Multics  ˆ°RB÷g…?Ş?å¢°ˆÿÿÿÖÖMaryniuk              Multics  œÄRB÷ÇoT@@ÄœÿÿÿÖ×Maryniuk              Multics  °ØRBøb‰@\@cGØ°ÿÿÿÖØMaryniuk              Multics  ÄìRBøÍ™à@µ@¼óìÄÿÿÿÖÙMaryniuk              Multics  ØRBøj 0@ù@šØÿÿÿÖÚMaryniuk              Multics  ìRBøÒEa@'@.ÕìÿÿÿÖÛMaryniuk              Multics  (RBù K§@d@k¡(ÿÿÿÖÜMaryniuk              Multics  RBù•[/@”@›^<ÿÿÿÖİMaryniuk              Multics  ˜PRBù©Ë@ó@úšP(ÿÿÿÖŞMaryniuk              Multics  <dRBùƒFnA!A(d<ÿÿÿÖßMaryniuk              Multics  PxRBùäáAjAq­xPÿÿÿÖàMaryniuk              Multics  dŒRBúÂ–¨AİAä&ŒdÿÿÿÖáMaryniuk              Multics  xàRBú2é§B.B5Ñ xÿÿÿÖâMaryniuk              Multics  L´RBûÅ–ˆBj+Buû´ŒÿÿÿÖãMaryniuk              Multics   ÈRBüS®×Bt>B„lÈ ÿÿÿÖäMaryniuk              Multics  ´ÜRBüâ×BßBæšÜ´ÿÿÿÖåMaryniuk              Multics  ÈğRBı¸İCCÙğÈÿÿÿÖæMaryniuk              Multics  ÜRBı5ECL2 5-92
                                                                                  5-92 5-101 5-104 5-106 5-106 5-106 5-108 5-113
                                                                                  5-113 5-113 5-113 5-118 5-124 5-128 5-128 821* 821
                                                                                  824* 830 830 850 850 870 870 890 890 1014 1014
                                                                                  1021 1021 1035 1035 1042 1042 6-36* 6-37 6-39
                                                                                  6-40* 6-40 6-42* 6-45 6-47* 6-47 6-49 8-24* 8-25
                                                                                  8-27 8-28* 8-28 8-29 8-32 8-32* 8-32 8-35* 8-36
Pvalue                    3            based           pointer                  level 2 in structure "token" packed unaligned
                                                                                  dcl 4-68 in procedure
                                                                                  "dm_translate_system_config_" ref 536 536 539 542
                                                                                  563 573 606 609 5-92 5-92 5-106 5-113 5-128 1014
                                                                                  1021 1035 1042
Pvalue                    3            based           pointer                  level 2 in structure "erring_token" packed unaligned
                                                                                  dcl 7-143 in procedure "ERROR" ref 7-172 7-172
                                                                                  7-172
RED                                    based           structure                level 1 dcl 3-48
REDUCTION                              based           structure                array level 1 packed unaligned dcl 674 set ref 5-58
REDUCTIONS                      000461 constant        fixed bin(17,0)          initial array unaligned dcl 674 set ref 5-58
S                        11            based           structure                level 3 packed unaligned dcl 4-68
SERROR_CONTROL                  000530 automatic       bit(2)                   initial unaligned dcl 7-3 set ref 7-3* 7-168* 7-172*
SERROR_PRINTED                  000531 automatic       bit(1)                   initial array unaligned dcl 7-3 set ref 7-3* 7-156*
                                                                                  7-168* 7-172*
SPDL                            000526 automatic       bit(1)                   initial dcl 1241 set ref 1241* 5-73 6-42 8-32
STOKEN_FCN                      000646 automatic       bit(1)                   dcl 3-33 set ref 810* 812* 814* 817
Soutput_stmt              0(18) 000010 internal static bit(1)                   initial array level 2 packed unaligned dcl 373 set
                                                                                  ref 459* 7-161
Ssearching                      000730 automatic       bit(1)                   dcl 8-21 set ref 8-26* 8-27 8-30*
TOKEN_REQD                             based           structure                level 2 in structure "RED" packed unaligned dcl 3-48
                                                                                  in procedure "SEMANTIC_ANALYSIS"
TOKEN_REQD                             based           structure                level 1 dcl 3-48 in procedure "SEMANTIC_ANALYSIS"
TOKEN_REQD_STRING                      based           structure                level 1 dcl 3-48
TOKEN_REQD_VALUE                       based           char                     unaligned dcl 3-48 ref 5-128
TOKEN_REQUIREMENT                      based           structure                array level 1 packed unaligned dcl 746 set ref 5-63
TOKEN_REQUIREMENTS              000224 constant        fixed bin(17,0)          initial array unaligned dcl 746 set ref 5-63
TOKEN_STRINGS                          based           char(219)                dcl 798 set ref 5-126
TOKEN_STRING_              Multics  èR…×³ NQµQ¼èÿÿÿÖNLyttle                Multics  ü$R…Ø5¨QàQç„$üÿÿÿÖOLyttle                Multics  8R…Øœ9¡RRu8ÿÿÿÖPLyttle                Multics  $PR…ØM:dR-R4¡L$ÿÿÿÖQLyttle                Multics  ä`R…ÙÑ€ÊR]RdG`8ÿÿÿÖRLyttle                Multics  LtR…ÙG‰ÂR¶R½ÿtLÿÿÿÖSLyttle                Multics  `ˆR…Ù²’RıR|ˆ`ÿÿÿÖTLyttle                Multics  tœR…Ú	$R#R*™œtÿÿÿÖULyttle                Multics  ˆ°R…ÚÍ½zRQRXÔ°ˆÿÿÿÖVLyttle                Multics  œÄR…Ú4ïzRR”œÄœÿÿÿÖWLyttle                Multics  °ØR…Ú¦7SR»RÂ'Ø°ÿÿÿÖXLyttle                Multics  ÄìR…ÛİÌSS•ìÄÿÿÿÖYLyttle                Multics  ØR…Û†%S9S@œØÿÿÿÖZLyttle                Multics  HR…Ü-lSg*Sr:ìÿÿÿÖ[Lyttle                Multics  (R…ÜöSSÁ%SË+(ÿÿÿÖ\Lyttle                Multics  <R…İĞ;)SS«<ÿÿÿÖ]Lyttle                Multics  (hR…İ”Š—SH(SRŸP(ÿÿÿÖ^Lyttle                Multics  8dRŒÒO›SzSÎd<ÿÿÿÖ_Lyttle                Multics  PxRŒÒñb\SµS¼¬xPÿÿÿÖ`Lyttle                Multics  dŒRŒÒœR7SçSîêŒdÿÿÿÖaLyttle                Multics  x RŒÓQíT)T0Š xÿÿÿÖbLyttle                Multics  Œ´RŒÓtñTSTZ´ŒÿÿÿÖcLyttle                Multics   ÈRŒÓäi°T~T…ƒÈ ÿÿÿÖdLyttle                Multics  ´ÜRŒÓV<pT¦T­ŒÜ´ÿÿÿÖeLyttle                Multics  ÈğRŒÓÖ¯ÂTĞT×šğÈÿÿÿÖfLyttle                Multics  ÜÌRŒÔÍÎ¦TşTBÜÿÿÿÖgLyttle                Multics  ìRŒÔÆ%TVT]£ğÿÿÿÖhLyttle                Multics  ,RŒÕ-vËT†Tƒ,ÿÿÿÖiLyttle                Multics  €@RŒÕ•_;T®Tµ›@ÿÿÿÖjLyttle                Multics  ,TRŒÖ?ƒ~TÜTã¸T,ÿÿÿÖkLyttle                Multics  @ÔRŒÖÕ™UU¥h@ÿÿÿÖlLyttle                Multics  <|RŒ×€LoUBUJ|TÿÿÿÖmLyttle                Multics  hRŒ×LëUU•¿hÿÿÿÖnLyttle                Multics  |¤RŒØ@R@UÅUÊµ¤|ÿÿÿÖoLyttle                Multics  ¸RŒØ[ÍUøUı©¸ÿÿÿÖpLyttle                Multics  ¤ˆRŒÙlëU(U0ÃÌ¤ÿÿÿÖqLyttle                Multics  ğàR~‚‹ßUaUhÍà¸ÿÿÿÖrLyttle                Multics  ÌôR2vÄUœU£­ôÌÿÿÿÖsLyttle                Multics  àR®·‡UÏUÖêàÿÿÿÖtLyttle                Multics  ôRØ/<VV‹ôÿÿÿÖuLyttle                Multics  0R€x½KV;VB0ÿÿÿÖvLyttle                Multics  DR€è|8VfVm…DÿÿÿÖwLyttle                Multics  0XR€`ûVV–ŒX0ÿÿÿÖxLyttle                Multics  €DlR-EV¹VÀŒlDÿÿÿÖyLyttle                Multics  X€R
İVãVê6€XÿÿÿÖzLyttle                Multics  l”Rˆ;5V8V?C”lÿÿÿÖ{Lyttle                Multics  €¨R‚§VV—Ş¨€ÿÿÿÖ|Lyttle                Multics  ”¼R‚ƒ8^VÏVÖ·¼”ÿÿÿÖ}Lyttle                Multics  ¨ĞR‚ò¼WW~Ğ¨ÿÿÿÖ~Lyttle                Multics  ¼äR‚]Ö¯W+W2šä¼ÿÿÿÖLyttle                Multics  €ĞøR‚³5ÈWYW`xøĞÿÿÿÖ€Lyttle                MuR®œCh÷]¯]²ÏàÿÿÿÖ´Maryniuk              Multics  ô¼R¾¯mC]æ']ğHôÿÿÿÖµLyttle                Multics  x0R¿o ¶ ^‚^‰~0ÿÿÿÖ¶Lyttle                Multics  pR¿pÒ.^©^°DÿÿÿÖ·Lyttle                Multics  XR¿p‘­^Ô^Û¥X0ÿÿÿÖ¸Lyttle                Multics  DlR¿qf¤^^|lDÿÿÿÖ¹Lyttle                Multics  X€R¿qqØV^+^2}€XÿÿÿÖºLyttle                Multics  l”R¿qñv^R^Y£”lÿÿÿÖ»Lyttle                Multics  €¨R¿qd¨`^‚^‰–¨€ÿÿÿÖ¼Lyttle                Multics  ”8R¿qø6û^¯^¶Ê¼”ÿÿÿÖ½Lyttle                Multics  ĞR¿rÜ^é,^ô$Ğ¨ÿÿÿÖ¾Lyttle                Multics  ¼äR¿sì”ã_=_D+ä¼ÿÿÿÖ¿Lyttle                Multics  ĞøR¿sØ:ô_,_šöøĞÿÿÿÖÀLyttle                Multics  äR¿t¥h_Ø!_áĞäÿÿÿÖÁLyttle                Multics  ø R¿t—¶P_'_× øÿÿÿÖÂLyttle                Multics  4R¿ug5_U_\º4ÿÿÿÖÃLyttle                Multics   HR¿uIh_‹_‘´H ÿÿÿÖÄLyttle                Multics  4\R¿v>â8_¾_Ã³\4ÿÿÿÖÅLyttle                Multics  H|R¿v´ú)_ğ_öápHÿÿÿÖÆLyttle                Multics  0„RÃÊú–`/`6ü„\ÿÿÿÖÇLyttle                Multics  p˜RÃ••`u`|˜pÿÿÿÖÈLyttle                Multics  „¬RÃ1@z` `§—¬„ÿÿÿÖÉLyttle                Multics  ˜ÀRÃ¼Ä?`Í`Ô£À˜ÿÿÿÖÊLyttle                Multics  ¬ÔRÃ;xÖ`ı`ÀÔ¬ÿÿÿÖËLyttle                Multics  ÀèRÃÅˆk`4`;ƒèÀÿÿÿÖÌLyttle                Multics  ÔüRÃ+€2`\`c}üÔÿÿÿÖÍLyttle                Multics  èRÃš×™`ƒ`Š¤èÿÿÿÖÎLyttle                Multics  ü$RÃ&`³`º‹$üÿÿÿÖÏLyttle                Multics  °RÃ{Ì’`İ`ä‚8ÿÿÿÖĞLyttle                Multics  ¨LRÃBÔÍaawL$ÿÿÿÖÑLyttle                Multics  8`RÃ«2<a*a1v`8ÿÿÿÖÒLyttle                Multics  LtRÃ^%aOaV‚tLÿÿÿÖÓLyttle                Multics  `ˆRÃm•ßawa~¶ˆ`ÿÿÿÖÔLyttle                Multics  tœRÃ×óa¬a³›œtÿÿÿÖÕLyttle                Multics  ˆRÃGÑ’aÚaá~°ˆÿÿÿÖÖLyttle                Multics  $ÄRĞ¹ØbaaŒÄœÿÿÿÖ×Lyttle                Multics  °ØRĞ¹ˆba+a2„Ø°ÿÿÿÖØLyttle                Multics  ÄìRĞº{aSaZšìÄÿÿÿÖÙLyttle                Multics  ØRĞºqÅ&aaˆ»ØÿÿÿÖÚLyttle                Multics  ìàRĞºØ7Şa·a¾»ìÿÿÿÖÛLyttle                Multics  œ(RĞº¶ïéaíaô«(ÿÿÿÖÜLyttle                Multics  <RĞ»=6Šbb&Á<ÿÿÿÖİLyttle                Multics  (PRĞ»È›ZbWb^tP(ÿÿÿÖŞLyttle                Multics  <dRĞ»;Lb{b‚	d<ÿÿÿÖßLyttle                Multics  PxRĞ»µ§•bÅbÌØxPÿÿÿÖàLyttle                Multics  dŒRĞ¼9õ7bb	›ŒdÿÿÿÖáLyttle                Multics  x RĞ¼çâÜb0b7Ÿ xÿÿÿÖâLyttle                Multics  Œ´RĞ¼—ÙÌb_bf±´ŒÿÿÿÖãLyttle                Multics   ÈRĞ½ü=b“bš¤È ÿÿÿÖäLyttle                Multics  ´ÜRĞ½xÛÎbÃbÊçÜ´ÿÿÿÖåLyttle                Multics  ÈğRĞ½ò@cc¶ğÈÿÿÿÖæLyttle                Multics  €ÜRĞ½pClc9ÿÿÿÖLyttle                Multics  ì Ræƒo liÃiÊ| ìÿÿÿÖLyttle                Multics    (Ræƒ#“JiéiğŸ ( ÿÿÿÖLyttle                Multics    <Ræƒ‰—Tjj~ < ÿÿÿÖLyttle                Multics   ( PRæƒıäÊj?jF0 P (ÿÿÿÖLyttle                Multics   < dRæ„kzaj’j™ã d <ÿÿÿÖLyttle                Multics   P xRæ„ˆ;¿jÒjÙx x PÿÿÿÖ Lyttle                Multics   d ŒRæ„ü5j÷jş Œ dÿÿÿÖ!Lyttle                Multics   x  Ræ…{nhj?jF   xÿÿÿÖ"Lyttle                Multics   Œ |Ræ…é€jjjq² ´ ŒÿÿÿÖ#Lyttle                Multics  t ÈRæ†?®Dj.jªÅ È  ÿÿÿÖ$Lyttle                Multics   ´ ÜRæ†5áXjÜjä Ü ´ÿÿÿÖ%Lyttle                Multics   È ğRæ‡Q®k&k, ğ ÈÿÿÿÖ&Lyttle                Multics  € Ü Ræ‡ùaÙkT/k`ã  ÜÿÿÿÖ'Lyttle                Multics   ğ àRæˆ=.Æk™/k¥ã  ğÿÿÿÖ(Lyttle                Multics  €Ø ,Ríw½9ŠkŞkå , ÿÿÿÖ)Lyttle                Multics    @RíxŸ-Şkékğ¼ @ ÿÿÿÖ*Lyttle                Multics   , TRíx	>kk&‹ T ,ÿÿÿÖ+Lyttle                Multics   @ hRíxxkIkP¤ h @ÿÿÿÖ,Lyttle                Multics   T!lRíy
éÌkyk€² | TÿÿÿÖ-Lyttle                Multics     Ríyéjïk­k´  hÿÿÿÖ.Lyttle                Multics   | ¤Ríy«kõkü³ ¤ |ÿÿÿÖ/Lyttle                Multics    ¸Ríyó5Jl)l0 ¸ ÿÿÿÖ0Lyttle                Multics   ¤ ÌRízq@õlXl_Ä Ì ¤ÿÿÿÖ1Lyttle                Multics   ¸!”Ríz(}Ãll—ş à ¸ÿÿÿÖ2Lyttle                Multics    ôRí{Äl×&láÅ ô ÌÿÿÿÖ3Lyttle                Multics   à!Rí|´=Fllÿ! àÿÿÿÖ4Lyttle                Multics   ô!Rí|Š{l[la! ôÿÿÿÖ5Lyttle                Multics  €!!0Rí}…Nl‰/l•ã!0!ÿÿÿÖ6Lyttle                Multics  !!DRí~›ÍlÎ/lÚã!D!ÿÿÿÖ7Maryniuk              Multics  !0!XRíÌGÆºmmñ!X!0ÿÿÿÖ8Maryniuk              Multics  !D"8RíÍ½m–
m™®!l!DÿÿÿÖ9Lyttle                Multics   h!€RşHèímÅmÌ|!€!XÿÿÿÖ:Lyttle                Multics  !l!4RşIWxìmëmò‰!”!lÿÿÿÖ;Lyttle                Multics   Ì!¨RşI'~mmã!¨!€ÿÿÿÖ<Lyttle                Multics  !”!¼RşIº7^mUm\æ!¼!”ÿÿÿÖ=Lyttle                Multics  !¨!ĞRşJoÙm–mÜ!Ğ!¨ÿÿÿÖ>Lyttle                Multics  !¼!äRşK¡îmÔmÛó!ä!¼ÿÿÿÖ?Lyttle                Multics  !Ğ!øRşKUënn‹!ø!ĞÿÿÿÖ@Lyttle                Multics  !ä!RşKmT#nBnIo!!äÿÿÿÖALyttle                Multics  !ø! RşL5HnenlÚ! !øÿÿÿÖBLyttle                Multics  !!˜RşLXVn£nªÒ!4!ÿÿÿÖCLyttle                Multics  !€!HRªMnßnæµ!H! ÿÿÿÖDLyttle                Multics  !4!\RƒLnn~!\!4ÿÿÿÖELyttle                Multics  !H!pR'Ñğn;nB’!p!HÿÿÿÖFLyttle                Multics  !\!„R‰Efngnn~!„!\ÿÿÿÖGLyttle                Multics  €!p"`Rõ'›nn•!˜!pÿÿÿÖHLyttle                Multics  ! !¬RÒ0nµn¼v!¬!„ÿÿÿÖILyttle                Multics  !˜!ÀRF²½ošo¡O!À!˜ÿÿÿÖJLyttle                Multics  !¬!ÔRÕ&Vouo|$!Ô!¬ÿÿÿÖKLyttle                Multics  !À!èRE¬ÚoÅoÌˆ!è!ÀÿÿÿÖLLyttle                Multics  !Ô!üRÉ/Foîoõ£!ü!ÔÿÿÿÖMLyttle  ltics  #ä$R4f–Şhufum¬$#äÿÿÿÖLyttle                Multics  #ø$ R4g+{@u˜uŸ‹$ #øÿÿÿÖ‚Lyttle                Multics  $$4R4g‘×úuÂuÉœ$4$ÿÿÿÖƒLyttle                Multics  $ $HR4gìó•uğu÷Ù$H$ ÿÿÿÖ„Lyttle                Multics  $4$\R4g‡íu.u5Ù$\$4ÿÿÿÖ…Lyttle                Multics  $H$pR4gãCáulus®$p$HÿÿÿÖ†Lyttle                Multics  $\$„R4hfjuŸu¦¨$„$\ÿÿÿÖ‡Lyttle                Multics  $p$8R4hëÃ9uĞu×­$˜$pÿÿÿÖˆLyttle                Multics  #Ğ$¬R9bª
kvv
$¬$„ÿÿÿÖ‰Lyttle                Multics  $˜$ÀR9c8©v+v2w$À$˜ÿÿÿÖŠLyttle                Multics  $¬$ÔR9cudvPvW{$Ô$¬ÿÿÿÖ‹Lyttle                Multics  $À$èR9cÙ­vvv}x$è$ÀÿÿÿÖŒLyttle                Multics  $Ô$üR9cMÜ˜v›v¢¡$ü$ÔÿÿÿÖLyttle                Multics  $è$R9cßƒvËvÒ{$$èÿÿÿÖLyttle                Multics  $ü$$R9dDèvñvø«$$$üÿÿÿÖLyttle                Multics  $%ÜR9d²Bpv#v*£$8$ÿÿÿÖLyttle                Multics  $„$LR9d{¥vSvZ$L$$ÿÿÿÖ‘Lyttle                Multics  $8$`R9dó¸av‚v‰¯$`$8ÿÿÿÖ’Lyttle                Multics  $L$tR9emİvµv¼‹$t$LÿÿÿÖ“Lyttle                Multics  $`$ˆR9eÑ¾ivßvæœ$ˆ$`ÿÿÿÖ”Lyttle                Multics  $t$œR9eM×ìwwÙ$œ$tÿÿÿÖ•Lyttle                Multics  $ˆ$°R9e¸åŸwKwR¤$°$ˆÿÿÿÖ–Lyttle                Multics  $œ$ÄR9fI0w{w‚®$Ä$œÿÿÿÖ—Lyttle                Multics  $°$ØR9fzê÷w®wµ¨$Ø$°ÿÿÿÖ˜Lyttle                Multics  $Ä$ìR9føwßwæÑ$ì$ÄÿÿÿÖ™Lyttle                Multics  $Ø%R9f$³ww"¬%$ØÿÿÿÖšLyttle                Multics  $ì%R9fßGùwMwT„%$ìÿÿÿÖ›Lyttle                Multics  %%@R9gGwuw|%(%ÿÿÿÖœLyttle                Multics  €#l%<R9gÂÖÎw½	wÀ%<%ÿÿÿÖLyttle                Multics  %(%PR9iÀµîwÁ"wÊ$%P%(ÿÿÿÖLyttle                Multics  %<%dR9j|åxx‘%d%<ÿÿÿÖŸLyttle                Multics  %P%xR9jE"x>5xLñ%x%PÿÿÿÖ Lyttle                Multics  %d%ŒR9jî¾x‰-x•Ñ%Œ%dÿÿÿÖ¡Lyttle                Multics  %x% R9kğ­QxÊ2x×ö% %xÿÿÿÖ¢Lyttle                Multics  %Œ%´R9k¦|şx&x¿%´%ŒÿÿÿÖ£Lyttle                Multics  % %ÈR9lš7ÖxO9x^P%È% ÿÿÿÖ¤Lyttle                Multics  %´' R9mXˆ‡x²x¹%Ü%´ÿÿÿÖ¥Lyttle                Multics  $$%ğR>ney:yA¤%ğ%ÈÿÿÿÖ¦Lyttle                Multics  %Ü%R>ì§;yjyq°%%ÜÿÿÿÖ§Lyttle                Multics  %ğ%R>VÜyy¤¢%%ğÿÿÿÖ¨Lyttle                Multics  %%,R>ÉMyÍyÔ¤%,%ÿÿÿÖ©Lyttle                Multics  %%¸R>5Ùúyıy—%@%ÿÿÿÖªLyttle                Multics  %%TR>(Q y*y1¦%T%,ÿÿÿÖ«Lyttle                Multics  %@%hR>„)y[ybÎ%h%@ÿÿÿÖ¬Lyttle                Multics  %T%|R>éòÙy–yÙ%|%TÿÿÿÖ­Lyttle                Multics  %h%R>ŸE©yÔyÛ”%%hÿÿÿÖ®Lyttle                Multics  %|%¤R>Ÿ¤jzzÕ%¤%|ÿÿÿÖ¯Lyttle                Multics  %&pR>Ÿ'İz=zD›%¸%ÿÿÿÖ°Lyttle                Multics  %,%ÌRVta3zkzr'%Ì%¤ÿÿÿÖ±Lyttle                Multics  %¸%àRVt€»ãz¼zÃª%à%¸ÿÿÿÖ²Lyttle                Multics  %Ì%ôRVtYzîzõ…%ô%ÌÿÿÿÖ³Lyttle                Multics  %à&€A¯('ÜÿÿÿÖçLyttle                Multics  'ğ(RgqYf»€m€tq('ğÿÿÿÖèLyttle                Multics  ((,RgqÌ.ã€‘€˜†(,(ÿÿÿÖéLyttle                Multics  ((@Rgr:Õ²€º€Á£(@(ÿÿÿÖêLyttle                Multics  (,(TRgršã€ê€ñ(T(,ÿÿÿÖëLyttle                Multics  (@(hRgrğÈê}(h(@ÿÿÿÖìLyttle                Multics  (T(|Rgr¨Ğ®<Cª(|(TÿÿÿÖíLyttle                Multics  (h(Rgs=ğ¤nuª((hÿÿÿÖîLyttle                Multics  (|(¤Rgs\O §®(¤(|ÿÿÿÖïLyttle                Multics  ((¸Rgs€ŞîÓÚx(¸(ÿÿÿÖğLyttle                Multics  (¤(ÌRgsó¬øÿv(Ì(¤ÿÿÿÖñLyttle                Multics  (¸(àRgti•È$—(à(¸ÿÿÿÖòLyttle                Multics  (Ì(ôRgtË<+JQ(ô(ÌÿÿÿÖóLyttle                Multics  (à)¼Rgt„nşry ((àÿÿÿÖôLyttle                Multics  'Œ(RguwøÖ¡¨ô((ôÿÿÿÖõLyttle                Multics  ((0RguìÉmåì(0(ÿÿÿÖöLyttle                Multics  ()DRgvxO‚‚—
)D(÷öRgvÿ¢rQ|)D)X)l)€)”)¨)¼)Ğ)ä)ø** *4*H*\*p*„*˜*¬*À*Ô*è*ü**$*8*L*`*t*ˆ*œ*°*Ä*Ø*ì+++(+<+P+d+x+Œ+ +´+È+Ü+ğ+++,+@+T+h+|++¤+¸+Ì+à+ô,,,0,D,X,l,€,”,¨,¼,Ğ,ä,ø,, ,4,H,\,p,„,˜,¬,À,Ô,è,ü--$-8-L-`-t-ˆ-œ-°-Ä-Ø-ì---(-<-P-d-x-Œ- -´-È-Ü-ğ...,.@.T.h.|..¤.¸.Ì.à.ô...0.D.X.l.€.”.¨.¼.Ğ.ä.ø// /4/H/\/p/„/˜/¬/À/Ô/è/ü//$/8/L/`/t/ˆ/œ/°/Ä/Ø/ì000(0<0P0d0x0Œ0 0´0È0Ü0ğ000,0@0T0h0|00¤0¸0Ì0à0ô11101D1X1l1€1”1¨1¼1Ğ1ä1ø11 141H1\1p1„1˜1¬1À1Ô1è1ü22$282L2`2t2ˆ2œ2°2Ä2Ø2ì222(2<2P2d2x2Œ2 2´2È2Ü2ğ333,3@3T3h3|33¤3¸3Ì3à3ô33303D3X3l3€3”3¨3¼3Ğ3ä3ø44 444H4\4p4„4˜4¬4À4Ô4è4ü44$484L4`4t4ˆ4œ4°4Ä4Ø4ì555(5<5P5d5x5Œ5 5´5È5Ü5ğ555,5@5T5h5|55¤5¸5Ì5à5ô66606D6X6l6€6”6¨6¼6Ğ6ä6ø66 646H6\6p6„6˜6¬6À6Ô6è6ü77$787L7`7t7ˆ7œ7°7Ä7Ø7ì777(7<7P7d7x7Œ7 7´7È7Ü7ğ888,8@8T8h8|88¤8¸8Ì8à8ô88808D8X8l8€8”8¨8¼8Ğ8ä8ø99 949H9\9p9„9˜9¬9À9Ô9è9ü99$989L9`9t9ˆ9œ9°9Ä9Ø9ì:::(:<:P:d:x:Œ: :´:È:Ü:ğ:::,:@:T:h:|::¤:¸:Ì:à:ô;;;0;D;X;l;€;”;¨;¼;Ğ;ä;ø;; ;4;H;\;p;„;˜;¬;À;Ô;è;ü<<$<8<L<`<t<ˆ<œ<°<Ä<Ø<ì<<<(<<<P<d<x<Œ< <´<È<Ü<ğ===,=@=T=h=|==¤=¸=Ì=à=ô===0=D=X=l=€=”=¨=¼=Ğ=ä=ø>> >4>H>\>p>„>˜>¬>À>Ô>è>ü>>$>8>L>`>t>ˆ>œ>°>Ä>Ø>ì???(?<?P?d?x?Œ? ?´?È?Ü?ğ???,?@?T?h?|??¤?¸?Ì?à?ô@@@0@D@X@l@€@”@¨@¼@Ğ@ä@ø@@ @4@H@\@p@„@˜@¬@À@Ô@è@üAA$A8ALA`AtAˆAœA°AÄAØAìAAA(A<APAdAxAŒA A´AÈAÜAğBBB,B@BTBhB|BB¤B¸BÌBàBôBBB0BDBXBlB€B”B¨B¼BĞBäBøCC C4CHC\CpC„C˜C¬CÀCÔCèCüCC$C8CLC`CtCˆCœC°CÄCØCìDDD(D<DPDdDxDŒD D´DÈDÜDğDDD,D@DTDhD|DD¤D¸DÌDàDôEEE0EDEXElE€E”E¨E¼EĞEäEøEE E4EHE\EpE„E˜E¬EÀEÔEèEüFF$F8FLF`FtFˆFœF°FÄFØFìFFF(F<FPFdFxFŒF F´FÈFÜFğGGG,G@GTGhG|GG¤G¸GÌGàGôGGG0GDGXGlG€G”G¨G¼GĞGäGøHH H4HHH\HpH„H˜H¬HÀHÔHèHüHH$H8HLH`HtHˆHœH°HÄHØHìIII(I<IPIdIxIŒI I´IÈIÜIğIII,I@ITIhI|II¤I¸IÌIàIôJJJ0JDJXJlJ€J”J¨J¼JĞJäJøJJ J4JHJ\JpJ„J˜J¬JÀJÔJèJüKK$K8KLK`KtKˆKœK°KÄKØKìKKK(K<KPKdKxKŒK K´KÈKÜKğLLL,L@LTLhL|LL¤L¸LÌLàLôLLL0LDLXLlL€L”L¨L¼LĞLäLøMM M4MHM\MpM„M˜M¬MÀMÔMèMüMM$M8MLM`MtMˆMœM°MÄMØMìNNN(N<NPNdNxNŒN N´NÈNÜNğNNN,N@NTNhN|NN¤N¸NÌNàNôOOO0ODOXOlO€O”O¨O¼OĞOäOøOO O4OHO\OpO„O˜O¬OÀOÔOèOüPP$P8PLP`PtPˆPœP°PÄPØPìPPP(P<PPPdPxPŒP P´PÈPÜPğQQQ,Q@QTQhÿÿÿÖ÷Lyttle                Multics  (0)XRgvÿæa‚Ú‚á»)X(0ÿÿÿÖøLyttle                Multics  €)D)lRgvêd‚‚î)l)DÿÿÿÖùLyttle                Multics  )X)€RgwNp‚S‚Zê)€)XÿÿÿÖúLyttle                Multics  )l)”Rgw­g‚•‚œ{)”)lÿÿÿÖûLyttle                Multics  )€)¨RgwA‚»‚ÂŒ)¨)€ÿÿÿÖüLyttle                Multics  )”*üRgwcpº‚å‚ìŒ)¼)”ÿÿÿÖıLyttle                Multics  (ô)ĞRx¶â‹sƒƒ—)Ğ)¨ÿÿÿÖşLyttle                Multics  )¼)äRx¶K°^ƒ<ƒCÁ)ä)¼ÿÿÿÖÿLyttle                Multics  )Ğ)øRx¶ÜÒƒtƒ{œ)ø)ĞÿÿÿÖLyttle                Muernal procedure  shares stack frame of external procedure dm_translate_system_config_.
before_journal_name                     internal procedure  shares stack frame of external procedure dm_translate_system_config_.
return_table                         80 internal procedure  enables or reverts conditions.
on unit on line 629                  64 on unit
dm_translate_system_config_abort
                                     70 internal procedure  is called by several nonquick procedures.
SEMANTIC_ANALYSIS                       internal procedure  shares stack frame of external procedure dm_translate_system_config_.
LEX                                     internal procedure  shares stack frame of external procedure dm_translate_system_config_.
ERROR                                   internal procedure  shares stack frame of external procedure dm_translate_system_config_.
NEXT_STMT                               internal procedure  shares stack frame of external procedure dm_translate_system_config_.

STORAGE FOR INTERNAL STATIC VARIABLES.

   LOC IDENTIFIER                  BLOCK NAME
000010 error_control_table         dm_translate_system_config_
000616 TRACING                     dm_translate_system_config_

STORAGE FOR AUTOMATIC VARIABLES.

STACK FRAME                 LOC IDENTIFIER                  BLOCK NAME
dm_translate_system_config_
                         000100 code                        dm_translate_system_config_
                         000101 breaks                      dm_translate_system_config_
                         000142 ignored_breaks              dm_translate_system_config_
                         000203 lex_delims                  dm_translate_system_config_
                         000244 lex_control_chars           dm_translate_system_config_
                         000305 byte_count                  dm_translate_system_config_
                         000306 source_ptr                  dm_translate_system_config_
                         000310 temp_storage_ptr            dm_translate_system_config_
                         000312 Pfirst_stmt_descriptor      dm_translate_system_config_
                         000314 Pfirst_token_descriptor     dm_translate_system_config_
                         000316 abs_path                    dm_translate_system_config_
                         000370 my_dm_system_config         dm_translate_system_config_
                         000500 save_prev_dm_disp           dm_translate_system_config_
                         000516 dm_system_config_ptr        dm_translate_system_config_
                         000520 Pthis_token                 dm_translate_system_config_
                         000522 Pstmt                       dm_translate_system_config_
                         000524 Ptoken                      dm_translate_system_config_
                         000526 SPDL                        dm_translate_system_config_
                         000527 MERROR_SEVERITY             dm_translate_system_config_
                         000530 SERROR_CONTROL              dm_translate_system_config_
                         000531 MIN_PRINT_SEVERITY          dm_translate_system_config_
                         000531 SERROR_PRINTED              dm_translate_system_config_
                         000532 PRINT_SEVERITY_CONTROL      dm_translate_system_config_
                         000560 dto_convert                 date_time_offset
                         000561 dto_code                    date_time_offset
                         000562 dto_constant_time_str       date_time_offset
                         000573 dto_new_time_str            date_time_offset
                         000614 dto_constant_time           date_time_offset
                         000616 dto_new_time                date_time_offset
                         000636 LTOKEN_REQD_VALUE           SEMANTIC_ANALYSIS
                         000637 NRED                        SEMANTIC_ANALYSIS
                         000640 PRED                        SEMANTIC_ANALYSIS
                         000642 PTOKEN_REQD                 SEMANTIC_ANALYSIS
                         000644 PTOKEN_REQD_VALUE           SEMANTIC_ANALYSIS
                         000646 STOKEN_FCN                  SEMANTIC_ANALYSIS
                         000647 CODE                        SEMANTIC_ANALYSIS
                         000650 I                           SEMANTIC_ANALYSIS
                         000651 NUMBER                      SEMANTIC_ANALYSIS
                         000652 DIRECTION                   SEMANTIC_ANALYSIS
                         000704 i                           LEX
                         000716 Pstmt                       ERROR
                         000720 Perring_token               ERROR
                         000730 Ssearching                  NEXT_STMT

THE FOLLOWING EXTERNAL OPERATORS ARE USED BY THIS PROGRAM.
alloc_cs            unpk_to_pk          cat_realloc_cs      call_ext_out_desc   call_ext_out        call_int_this
call_int_other      return              tra_ext             alloc_auto_adj      enable              shorten_stack
ext_entry           int_entry           reverse_cs          set_cs_eis          alloc_based

THE FOLLOWING EXTERNAL ENTRIES ARE CALLED BY THIS PROGRAM.
absolute_pathname_            convert_date_to_binary_       cv_dec_check_                 dm_gen_checksum_
lex_error_                    lex_string_$init_lex_delims   lex_string_$lex               release_temp_segment_
sub_err_                      translator_temp_$get_segment  translator_temp_$release_all_segments

THE FOLLOWING EXTERNAL VARIABLES ARE USED BY THIS PROGRAM.
error_table_$no_stmt_delim    error_table_$notalloc         error_table_$translation_failed


   LINE    LOC      LINE    LOC      LINE    LOC      LINE    LOC      LINE    LOC      LINE    LOC      LINE    LOC
    333 001007      1241 001022    7    3 001023    7  168 001055       454 001057       455 001063       456 001065
    457 001067       459 001072       463 001114       465 001130       466 001141       467 001163       472 001166
    473 001207       478 001215       479 001237       481 001262       487 001345       489 001347       490 001352
    491 001353       492 001355       493 001357       494 001360       495 001361       496 001362       497 001363
    498 001366       499 001371       500 001374       501 001377       502 001402       503 001405       507 001410
    510 001523       513 001530       516 001534       518 001536       520 001537       521 001550       523 001571
    528 001572       536 001574       539 001614       542 001622       543 001646       545 001653       552 001660
    553 001661       554 001662       555 001667       556 001670       557 001672       549 001675       559 001702
    560 001703       562 001707       563 001711       565 001750       566 002002       569 002020       570 002032
    573 002034       576 002110       578 002121       579 002152       582 002155       585 002224       588 002235
    594 002256       603 002260       606 002270       609 002306       612 002336       620 002342       623 002350
    627 002356       629 002373       631 002407       632 002413       633 002420       635 002421       637 002433
    639 002434       643 002440       646 002444       650 002445       653 002453       654 002457       656 002467
 3   30 002472       671 002473    5   50 002475    5   52 002500    5   53 002501    5   55 002502    5   58 002503
 5   60 002506    5   62 002510    5   63 002534    5   64 002537    5   65 002543    5   68 002553    5   70 002554
 5   71 002560    5   73 002562    5   79 002601    5   84 002612    5   86 002613    5   88 002617    5   90 002620
 5   92 002621    5   99 002655    5  101 002656    5  104 002661    5  106 002664    5  107 002710    5  108 002712
 5  109 002715    5  111 002716    5  113 002717    5  116 002733    5  118 002734    5  120 002740    5  123 002741
 5  124 002742    5  126 002746    5  127 002753    5  128 002757    5  130 002765       808 002766       810 002770
    811 002772       812 002773       813 002775       814 002776       815 003000       817 003001       818 003004
    821 003005       822 003010       824 003013       825 003015       828 003017       830 003023       831 003032
    832 003036       833 003042       834 003044       836 003045       838 003051       839 003055       840 003056
    841 003060       843 003061       845 003065       846 003067       848 003070       850 003074       851 003102
    852 003106       853 003112       854 003114       856 003115       858 003121       859 003125       860 003126
    861 003130       863 003131       865 003135       866 003137       868 003140       870 003144       871 003152
    872 003156       873 003162       874 003164       876 003165       878 003171       879 003175       880 003176
    881 003200       883 003201       885 003205       886 003207       888 003210       890 003214       891 003222
    892 003226       893 003232       894 003234       896 003235       898 003241       899 003245       900 003246
    901 003250       903 003251       905 003255       906 003257       908 003260       910 003264       912 003273
    913 003277       914 003301       916 003302       918 003306       919 003312       920 003313       921 003315
    923 003316       925 003322       926 003324       928 003325       930 003331       931 003333       933 003334
    935 003340       936 003344       937 003346       939 003347       941 003353       942 003357       943 003361
    945 003362       947 003366       948 003372       949 003374       951 003375       953 003401       954 003405
    955 003406       956 003410       958 003411       960 003415       961 003417       963 003420       965 003423
    966 003427       967 003431       969 003432       971 003434       972 003440       973 003442       975 003443
    977 003447       978 003453       979 003454       980 003456       982 003457       984 003463       985 003465
    987 003466       989 003472       991 003473       993 003477       994 003503       996 003504       998 003510
    999 003511      1000 003513      1002 003514      1004 003520      1005 003524      1007 003525      1009 003531
   1010 003533      1012 003534      1014 003540      1015 003550      1016 003554      1017 003556      1019 003557
   1021 003563      1022 003573      1023 003577      1024 003601      1026 003602      1028 003606      1029 003612
   1030 003613      1031 003615      1033 003616      1035 003622      1036 003632      1037 003636      1038 003640
   1040 003641      1042 003645      1043 003655      1044 003661      1045 003663      1047 003664      1049 003670
   1050 003674      1051 003675      1052 003677      1054 003700      1056 003704      1057 003705      1058 003707
   1060 003710      1062 003714      1063 003716      1065 003717      1067 003723      1068 003727      1069 003731
   1071 003732      1073 003736      1074 003742      1075 003744      1077 003745      1079 003751      1080 003755
   1081 003761      1082 003762      1083 003764      1085 003765      1087 003771      1088 003775      1089 003777
   1091 004000      1093 004004      1094 004010      1095 004012      1097 004013      1099 004017      1100 004023
   1101 004027      1102 004030      1103 004032      1105 004033      1107 004037      1108 004043      1109 004045
   1111 004046      1113 004052      1114 004056      1115 004060      1117 004061      1119 004065      1120 004071
   1121 004075      1122 004076      1123 004100      1125 004101      1127 004105      1128 004111      1129 004113
   1131 004114      1133 004120      1134 004124      1135 004126      1137 004127      1139 004133      1140 004137
   1141 004143      1142 004144      1143 004146      1145 004147      1147 004153      1148 004157      1149 004161
   1151 004162      1153 004166      1154 004172      1155 004174      1157 004175      1159 004201      1160 004205
   1161 004211      1162 004212      1163 004214      1165 004215      1167 004221      1168 004225      1169 004227
   1171 004230      1173 004234      1174 004240      1175 004242      1177 004243      1179 004247      1180 004253
   1181 004257      1182 004260      1183 004262      1185 004263      1187 004267      1188 004273      1189 004275
   1191 004276      1193 004302      1194 004306      1195 004310      1197 004311      1199 004315      1200 004321
   1201 004325      1202 004326      1203 004330      1205 004331      1207 004335      1208 004341      1209 004343
   1211 004344      1213 004350      1214 004354      1215 004356      1217 004357      1219 004363      1220 004367
   1221 004373      1222 004374      1223 004376      1225 004377      1227 004403      1228 004404      1229 004406
   1231 004407      1233 004413      1234 004415    6   31 004416    6   36 004420    6   37 004422    6   38 004427
 6   39 004431    6   40 004443    6   41 004445    6   42 004447    6   44 004457    6   45 004460    6   47 004473
 6   48 004475    6   49 004500    6   51 004502    7  139 004503    7  153 004505    7  154 004516    7  156 004525
 7  158 004534    7  160 004535    7  161 004537    7  164 004552    7  166 004556    7  168 004560    7  172 004663
 7  177 005011    8   18 005013    8   24 005014    8   25 005016    8   26 005021    8   27 005023    8   28 005032
 8   29 005034    8   30 005041    8   31 005042    8   32 005043    8   35 005054    8   36 005060    8   39 005061


                                          -----------------------------------------------------------


Historical Background

This edition of the Multics software materials and documentation is provided and donated
to Massachusetts Institute of Technology by Group BULL including BULL HN Information Systems Inc.
as a contribution to computer science knowledge.
This donation is made also to give evidence of the common contributions of Massachusetts Institute of Technology,
Bell Laboratories, General Electric, Honeywell Information Systems Inc., Honeywell BULL Inc., Groupe BULL
and BULL HN Information Systems Inc. to the development of this operating system.
Multics development was initiated by Massachusetts Institute of Technology Project MAC (1963-1970),
renamed the MIT Laboratory for Computer Science and Artificial Intelligence in the mid 1970s, under the leadership
of Professor Fernando Jose Corbato. Users consider that Multics provided the best software architecture
for managing computer hardware properly and for executing programs. Many subsequent operating systems
incorporated Multics principles.
Multics was distributed in 1975 to 2000 by Group Bull in Europe , and in the U.S. by Bull HN Information Systems Inc.,
as successor in interest by change in name only to Honeywell Bull Inc. and Honeywell Information Systems Inc. .

                                          -----------------------------------------------------------

Permission to use, copy, modify, and distribute these programs and their documentation for any purpose and without
fee is hereby granted,provided that the below copyright notice and historical background appear in all copies
and that both the copyright notice and historical background and this permission notice appear in supporting
documentation, and that the names of MIT, HIS, BULL or BULL HN not be used in advertising or publicity pertaining
to distribution of the programs without specific prior written permission.
    Copyright 1972 by Massachusetts Institute of Technology and Honeywell Information Systems Inc.
    Copyright 2006 by BULL HN Information Systems Inc.
    Copyright 2006 by Bull SAS
    All Rights Reserved
