ASSEMBLY LISTING OF SEGMENT >spec>h>3.17>p1200i.alm
ASSEMBLED ON:	11/29/83  1529.0 mst Tue
OPTIONS USED:	list
ASSEMBLED BY:	ALM Version  6.6  November 1982
ASSEMBLER CREATED:	09/21/83  1227.3 mst Wed

                                     1  " ***********************************************************
                                     2  " *                                                         *
                                     3  " * Copyright, (C) Honeywell Information Systems Inc., 1982 *
                                     4  " *                                                         *
                                     5  " ***********************************************************
                                     6  " P1200I - PRU1200/1600 Print Belt Images for BOS.
                                     7  "	coded 9/30/74 by Noel I. Morris
                                     8
                                     9
                                    10  "  ******************************************************
                                    11  "  *                                                    *
                                    12  "  *                                                    *
                                    13  "  * Copyright (c) 1972 by Massachusetts Institute of   *
                                    14  "  * Technology and Honeywell Information Systems, Inc. *
                                    15  "  *                                                    *
                                    16  "  *                                                    *
                                    17  "  ******************************************************
                                    18
                                    19
                                    20  " 
                                    21
                                    22  " Image Buffer for ASCII Print Belt. (Part # 600)
    000000  aa  222 426 273 041     23  	bci	oBDFGHJ S0ACEINORLT      K      M0PQUVWXYZ:;?!%7 o
    000001  aa  206 200 212 325
    000002  aa  314 546 514 363
    000003  aa  202 020 202 020
    000004  aa  422 020 202 020
    000005  aa  204 400 475 064
    000006  aa  656 667 707 115
    000007  aa  561 777 740 720
    000010  aa  202 020 202 020     24  	bci	o        0 123456#89.,()@$=&/'\ _0"<>[] S ACEINORo
    000011  aa  202 000 200 102
    000012  aa  030 405 061 310
    000013  aa  113 373 355 514
    000014  aa  537 532 615 737
    000015  aa  207 200 763 616
    000016  aa  123 420 622 021
    000017  aa  232 531 454 651
    000020  aa  206 320 202 020     25  	bci	o T      0       | -*+   BDFGHJ7 0       L 123456o
    000021  aa  202 000 202 020
    000022  aa  202 020 204 020
    000023  aa  525 460 202 020
    000024  aa  222 426 273 041
    000025  aa  072 000 202 020
    000026  aa  202 020 204 320
    000027  aa  010 203 040 506
    000030  aa  421 011 337 335     26  	bci	oK89.,()M0PQUVWXYZ:;?!% S ACEINOR0T      #      @o
    000031  aa  554 400 475 064
    000032  aa  656 667 707 115
    000033  aa  561 777 742 062
    000034  aa  202 123 253 145
    000035  aa  465 100 632 020
    000036  aa  202 020 201 320
    000037  aa  202 020 202 014
    000040  aa  537 532 615 737     27  	bci	o$=&/'\ _0"<>[]'           123456089.,() | -*+   o
    000041  aa  207 200 763 616
    000042  aa  123 457 202 020
    000043  aa  202 020 202 020
    000044  aa  202 001 020 304
    000045  aa  050 600 101 133
    000046  aa  733 555 204 020
    000047  aa  525 460 202 020
                                    28
    000050  aa   000000 0110 03     29  	mod	64
    000051  aa   000000 0110 03
    000052  aa   000000 0110 03
    000053  aa   000000 0110 03
    000054  aa   000000 0110 03
    000055  aa   000000 0110 03
    000056  aa   000000 0110 03
    000057  aa   000000 0110 03
    000060  aa   000000 0110 03
    000061  aa   000000 0110 03
    000062  aa   000000 0110 03
    000063  aa   000000 0110 03
    000064  aa   000000 0110 03
    000065  aa   000000 0110 03
    000066  aa   000000 0110 03
    000067  aa   000000 0110 03
    000070  aa   000000 0110 03
    000071  aa   000000 0110 03
    000072  aa   000000 0110 03
    000073  aa   000000 0110 03
    000074  aa   000000 0110 03
    000075  aa   000000 0110 03
    000076  aa   000000 0110 03
    000077  aa   000000 0110 03
                                    30
                                    31  " 
                                    32
                                    33  " Image Buffer to BCD Print Belt. (Part # 500)
    000100  aa  750 506 071 027     34  	bci	o=5678GHIJKL\0,-*/MNOPQR:&(9),STUVWX]01234YZ$@#+!o
    000101  aa  303 141 424 337
    000102  aa  007 352 546 144
    000103  aa  454 647 505 115
    000104  aa  323 511 557 362
    000105  aa  636 465 666 734
    000106  aa  000 102 030 470
    000107  aa  715 314 136 077
    000110  aa  170 506 071 021     35  	bci	o?5678ABCDEF|0.-*/GHIJKL<>(9),MNOPQR]01234STUVWX;o
    000111  aa  222 324 252 640
    000112  aa  003 352 546 127
    000113  aa  303 141 424 336
    000114  aa  163 511 557 344
    000115  aa  454 647 505 134
    000116  aa  000 102 030 462
    000117  aa  636 465 666 756
    000120  aa  570 506 071 070     36  	bci	o'5678YZ$@#&_0.-*/ABCDEF"=(9),GHIJKL\01234MNOPQR:o
    000121  aa  715 314 133 272
    000122  aa  003 352 546 121
    000123  aa  222 324 252 676
    000124  aa  753 511 557 327
    000125  aa  303 141 424 337
    000126  aa  000 102 030 444
    000127  aa  454 647 505 115
    000130  aa  320 506 071 062     37  	bci	o&5678STUVWX]0.-*/YZ$@#+!?(9),ABCDEF|01234GHIJKL<o
    000131  aa  636 465 666 734
    000132  aa  003 352 546 170
    000133  aa  715 314 136 077
    000134  aa  173 511 557 321
    000135  aa  222 324 252 640
    000136  aa  000 102 030 427
    000137  aa  303 141 424 336
    000140  aa  160 506 071 044     38  	bci	o>5678MNOPQR[0.-*/STUVWX;'(9),YZ$@#%_01234ABCDEF"o
    000141  aa  454 647 505 112
    000142  aa  003 352 546 162
    000143  aa  636 465 666 756
    000144  aa  573 511 557 370
    000145  aa  715 314 137 472
    000146  aa  000 102 030 421
    000147  aa  222 324 252 676
                                    39
                                    40
                                    41
                                    42  	end

NO LITERALS

NAME DEFINITIONS FOR ENTRY POINTS AND SEGDEFS

    000150  5a   000003 000000
    000151  5a   000017 600000
    000152  aa   000000 000000
    000153  55   000010 000002
    000154  5a   000002 400003
    000155  55   000006 000010
    000156  aa  006 160 061 062
    000157  aa  060 060 151 000
    000160  55   000002 000003
    000161  6a   000000 400002
    000162  55   000013 000003
    000163  aa  014 163 171 155         symbol_table
    000164  aa  142 157 154 137
    000165  aa  164 141 142 154
    000166  aa  145 000 000 000

DEFINITIONS HASH TABLE

    000167  aa   000000 000015
    000170  aa   000000 000000
    000171  aa   000000 000000
    000172  aa   000000 000000
    000173  aa   000000 000000
    000174  aa   000000 000000
    000175  aa   000000 000000
    000176  5a   000010 000000
    000177  aa   000000 000000
    000200  aa   000000 000000
    000201  aa   000000 000000
    000202  aa   000000 000000
    000203  aa   000000 000000
    000204  aa   000000 000000

NO EXTERNAL NAMES

NO TRAP POINTER WORDS

TYPE PAIR BLOCKS

    000205  aa   000001 000000
    000206  aa   000000 000000

INTERNAL EXPRESSION WORDS

    000207  aa   000000 000000
LINKAGE INFORMATION

    000000  aa   000000 000000
    000001  0a   000150 000000
    000002  aa   000000 000000
    000003  aa   000000 000000
    000004  aa   000000 000000
    000005  aa   000000 000000
    000006  22   000010 000010
    000007  a2   000000 000000
SYMBOL INFORMATION

SYMBOL TABLE HEADER

    000000  aa   000000 000001
    000001  aa   163171 155142
    000002  aa   164162 145145
    000003  aa   000000 000004
    000004  aa   000000 112143
    000005  aa   305203 523135
    000006  aa   000000 112272
    000007  aa   227706 401152
    000010  aa   141154 155040
    000011  aa   040040 040040
    000012  aa   000024 000040
    000013  aa   000034 000040
    000014  aa   000044 000100
    000015  aa   000100 000002
    000016  aa   000064 000000
    000017  aa   000000 000121
    000020  aa   000000 000100
    000021  aa   000000 000110
    000022  aa   000113 000100
    000023  aa   000064 000000
    000024  aa   101114 115040
    000025  aa   126145 162163
    000026  aa   151157 156040
    000027  aa   040066 056066
    000030  aa   040040 116157
    000031  aa   166145 155142
    000032  aa   145162 040061
    000033  aa   071070 062040
    000034  aa   110157 154155
    000035  aa   163164 145144
    000036  aa   164056 123171
    000037  aa   163115 141151
    000040  aa   156164 056141
    000041  aa   040040 040040
    000042  aa   040040 040040
    000043  aa   040040 040040
    000044  aa   154151 163164
    000045  aa   040040 040040
    000046  aa   040040 040040
    000047  aa   040040 040040
    000050  aa   040040 040040
    000051  aa   040040 040040
    000052  aa   040040 040040
    000053  aa   040040 040040
    000054  aa   040040 040040
    000055  aa   040040 040040
    000056  aa   040040 040040
    000057  aa   040040 040040
    000060  aa   040040 040040
    000061  aa   040040 040040
    000062  aa   040040 040040
    000063  aa   040040 040040
    000064  aa   000000 000001
    000065  aa   000000 000001
    000066  aa   000072 000027
    000067  aa   122721 273066
    000070  aa   000000 112272
    000071  aa   216117 400000
    000072  aa   076163 160145          >spec>h>3.17>p1200i.alm
    000073  aa   143076 150076
    000074  aa   063056 061067
    000075  aa   076160 061062
    000076  aa   060060 151056
    000077  aa   141154 155040
               MULTICS ASSEMBLY CROSS REFERENCE LISTING

   Value        Symbol                   Source file   Line number


NO FATAL ERRORS


                                          -----------------------------------------------------------


Historical Background

This edition of the Multics software materials and documentation is provided and donated
to Massachusetts Institute of Technology by Group BULL including BULL HN Information Systems Inc.
as a contribution to computer science knowledge.
This donation is made also to give evidence of the common contributions of Massachusetts Institute of Technology,
Bell Laboratories, General Electric, Honeywell Information Systems Inc., Honeywell BULL Inc., Groupe BULL
and BULL HN Information Systems Inc. to the development of this operating system.
Multics development was initiated by Massachusetts Institute of Technology Project MAC (1963-1970),
renamed the MIT Laboratory for Computer Science and Artificial Intelligence in the mid 1970s, under the leadership
of Professor Fernando Jose Corbato. Users consider that Multics provided the best software architecture
for managing computer hardware properly and for executing programs. Many subsequent operating systems
incorporated Multics principles.
Multics was distributed in 1975 to 2000 by Group Bull in Europe , and in the U.S. by Bull HN Information Systems Inc.,
as successor in interest by change in name only to Honeywell Bull Inc. and Honeywell Information Systems Inc. .

                                          -----------------------------------------------------------

Permission to use, copy, modify, and distribute these programs and their documentation for any purpose and without
fee is hereby granted,provided that the below copyright notice and historical background appear in all copies
and that both the copyright notice and historical background and this permission notice appear in supporting
documentation, and that the names of MIT, HIS, BULL or BULL HN not be used in advertising or publicity pertaining
to distribution of the programs without specific prior written permission.
    Copyright 1972 by Massachusetts Institute of Technology and Honeywell Information Systems Inc.
    Copyright 2006 by BULL HN Information Systems Inc.
    Copyright 2006 by Bull SAS
    All Rights Reserved
