ASSEMBLY LISTING OF SEGMENT >spec>h>3.17>p300i.alm
ASSEMBLED ON:	11/29/83  1529.1 mst Tue
OPTIONS USED:	list
ASSEMBLED BY:	ALM Version  6.6  November 1982
ASSEMBLER CREATED:	09/21/83  1227.3 mst Wed

                                     1  " ***********************************************************
                                     2  " *                                                         *
                                     3  " * Copyright, (C) Honeywell Information Systems Inc., 1982 *
                                     4  " *                                                         *
                                     5  " ***********************************************************
                                     6  " P300I - PRT300 Print Train Buffer Images for BOS.
                                     7  "	coded 9/30/74 by Noel I. Morris
                                     8
                                     9
                                    10  "  ******************************************************
                                    11  "  *                                                    *
                                    12  "  *                                                    *
                                    13  "  * Copyright (c) 1972 by Massachusetts Institute of   *
                                    14  "  * Technology and Honeywell Information Systems, Inc. *
                                    15  "  *                                                    *
                                    16  "  *                                                    *
                                    17  "  ******************************************************
                                    18
                                    19  " 
                                    20
                                    21  " Image Buffer for M.I.T. Print Chain.
    000000  aa  000 102 030 405     22  	bci	o0123456789                          $="&.|  %0#@o
    000001  aa  060 710 112 020
    000002  aa  202 020 202 020
    000003  aa  202 020 202 020
    000004  aa  202 020 202 020
    000005  aa  202 020 202 020
    000006  aa  537 576 323 340
    000007  aa  202 074 001 314
    000010  aa  412 142 252 423     23  	bci	oJAKEDCSTBWGHMIORPNFLVZXY\ QU(/*)! _ <>[]+-.,:;'?o
    000011  aa  626 322 662 730
    000012  aa  443 146 514 745
    000013  aa  264 365 716 770
    000014  aa  372 050 643 561
    000015  aa  545 577 207 220
    000016  aa  361 612 346 052
    000017  aa  337 315 565 717
    000020  aa  000 102 030 405     24  	bci	o0123456789                          $="&.|  %0#@o
    000021  aa  060 710 112 020
    000022  aa  202 020 202 020
    000023  aa  202 020 202 020
    000024  aa  202 020 202 020
    000025  aa  202 020 202 020
    000026  aa  537 576 323 340
    000027  aa  202 074 001 314
    000030  aa  412 142 252 423     25  	bci	oJAKEDCSTBWGHMIORPNFLVZXY\ QU(/*)! _ <>[]+-.,:;'?o
    000031  aa  626 322 662 730
    000032  aa  443 146 514 745
    000033  aa  264 365 716 770
    000034  aa  372 050 643 561
    000035  aa  545 577 207 220
    000036  aa  361 612 346 052
    000037  aa  337 315 565 717
    000040  aa  000 102 030 405     26  	bci	o0123456789                          $="&.|  %0#@o
    000041  aa  060 710 112 020
    000042  aa  202 020 202 020
    000043  aa  202 020 202 020
    000044  aa  202 020 202 020
    000045  aa  202 020 202 020
    000046  aa  537 576 323 340
    000047  aa  202 074 001 314
    000050  aa  412 142 252 423     27  	bci	oJAKEDCSTBWGHMIORPNFLVZXY\ QU(/*)! _ <>[]+-.,:;'?o
    000051  aa  626 322 662 730
    000052  aa  443 146 514 745
    000053  aa  264 365 716 770
    000054  aa  372 050 643 561
    000055  aa  545 577 207 220
    000056  aa  361 612 346 052
    000057  aa  337 315 565 717
                                    28
    000060  aa   000000 0110 03     29  	mod	64
    000061  aa   000000 0110 03
    000062  aa   000000 0110 03
    000063  aa   000000 0110 03
    000064  aa   000000 0110 03
    000065  aa   000000 0110 03
    000066  aa   000000 0110 03
    000067  aa   000000 0110 03
    000070  aa   000000 0110 03
    000071  aa   000000 0110 03
    000072  aa   000000 0110 03
    000073  aa   000000 0110 03
    000074  aa   000000 0110 03
    000075  aa   000000 0110 03
    000076  aa   000000 0110 03
    000077  aa   000000 0110 03
                                    30
                                    31  " 
                                    32
                                    33  " Image Buffer for Honeywell Standard ASCII Print Chain. (Group 002)
    000100  aa  000 102 034 121     34  	bci	o0123JAKE.|  456789          BWGHMIOR            o
    000101  aa  422 533 402 020
    000102  aa  040 506 071 011
    000103  aa  202 020 202 020
    000104  aa  202 020 202 266
    000105  aa  273 044 314 651
    000106  aa  202 020 202 020
    000107  aa  202 020 202 020
    000110  aa  242 362 634 745     35  	bci	oDCSTPNFL:;'?\ QU! _ VZXY0123PNFL:;'?456789      o
    000111  aa  264 315 565 717
    000112  aa  372 050 647 720
    000113  aa  722 065 716 770
    000114  aa  000 102 034 745
    000115  aa  264 315 565 717
    000116  aa  040 506 071 011
    000117  aa  202 020 202 020
    000120  aa  202 020 204 121     36  	bci	o    JAKEMIOR            DCST+-.,    %0#@$="&(/*)o
    000121  aa  422 544 314 651
    000122  aa  202 020 202 020
    000123  aa  202 020 202 020
    000124  aa  242 362 636 052
    000125  aa  337 320 202 020
    000126  aa  740 013 145 375
    000127  aa  763 235 615 455
    000130  aa  000 102 036 052     37  	bci	o0123+-.,    456789          PNFL:;'?            o
    000131  aa  337 320 202 020
    000132  aa  040 506 071 011
    000133  aa  202 020 202 020
    000134  aa  202 020 204 745
    000135  aa  264 315 565 717
    000136  aa  202 020 202 020
    000137  aa  202 020 202 020
    000140  aa  242 362 632 266     38  	bci	oDCSTBWGHMIOR\ QU! _ VZXY0123BWGHMIOR456789      o
    000141  aa  273 044 314 651
    000142  aa  372 050 647 720
    000143  aa  722 065 716 770
    000144  aa  000 102 032 266
    000145  aa  273 044 314 651
    000146  aa  040 506 071 011
    000147  aa  202 020 202 020
    000150  aa  202 020 206 052     39  	bci	o    +-.,                DCSTJAKE<>[]%0#@$="&(/*)o
    000151  aa  337 320 202 020
    000152  aa  202 020 202 020
    000153  aa  202 020 202 020
    000154  aa  242 362 634 121
    000155  aa  422 536 161 234
    000156  aa  740 013 145 375
    000157  aa  763 235 615 455
                                    40
    000160  aa   000000 0110 03     41  	mod	64
    000161  aa   000000 0110 03
    000162  aa   000000 0110 03
    000163  aa   000000 0110 03
    000164  aa   000000 0110 03
    000165  aa   000000 0110 03
    000166  aa   000000 0110 03
    000167  aa   000000 0110 03
    000170  aa   000000 0110 03
    000171  aa   000000 0110 03
    000172  aa   000000 0110 03
    000173  aa   000000 0110 03
    000174  aa   000000 0110 03
    000175  aa   000000 0110 03
    000176  aa   000000 0110 03
    000177  aa   000000 0110 03
                                    42
                                    43  " 
                                    44
                                    45  " Image Buffer for Honeywell Upper/Lower Case Print Chain. (Group 008)
    000200  aa  000 102 030 405     46  	bci	o0123456789ACRIFLMNOPDUST+-.EBZ,/JKQ*VWXY(GH):;&?o
    000201  aa  060 710 112 123
    000202  aa  513 126 434 445
    000203  aa  464 724 646 263
    000204  aa  605 233 252 271
    000205  aa  736 141 425 054
    000206  aa  656 667 703 527
    000207  aa  305 515 563 217
    000210  aa  772 072 203 616     47  	bci	o! _ <>[]$="'%=#@ |  \                           o
    000211  aa  123 453 757 657
    000212  aa  747 513 142 040
    000213  aa  202 037 202 020
    000214  aa  202 020 202 020
    000215  aa  202 020 202 020
    000216  aa  202 020 202 020
    000217  aa  202 020 202 020
    000220  aa  000 102 030 405     48  	bci	o0123456789ACRIFLMNOPDUST+-.EBZ,/JKQ*VWXY(GH):;&?o
    000221  aa  060 710 112 123
    000222  aa  513 126 434 445
    000223  aa  464 724 646 263
    000224  aa  605 233 252 271
    000225  aa  736 141 425 054
    000226  aa  656 667 703 527
    000227  aa  305 515 563 217
    000230  aa  772 072 203 616     49  	bci	o! _ <>[]$="'%=#@ |  \                           o
    000231  aa  123 453 757 657
    000232  aa  747 513 142 040
    000233  aa  202 037 202 020
    000234  aa  202 020 202 020
    000235  aa  202 020 202 020
    000236  aa  202 020 202 020
    000237  aa  202 020 202 020
    000240  aa  000 102 030 405     50  	bci	o0123456789ACRIFLMNOPDUST+-.EBZ,/JKQ*VWXY(GH):;&?o
    000241  aa  060 710 112 123
    000242  aa  513 126 434 445
    000243  aa  464 724 646 263
    000244  aa  605 233 252 271
    000245  aa  736 141 425 054
    000246  aa  656 667 703 527
    000247  aa  305 515 563 217
    000250  aa  772 072 203 616     51  	bci	o! _ <>[]$="'%=#@ |  \                           o
    000251  aa  123 453 757 657
    000252  aa  747 513 142 040
    000253  aa  202 037 202 020
    000254  aa  202 020 202 020
    000255  aa  202 020 202 020
    000256  aa  202 020 202 020
    000257  aa  202 020 202 020
                                    52
    000260  aa   000000 0110 03     53  	mod	64
    000261  aa   000000 0110 03
    000262  aa   000000 0110 03
    000263  aa   000000 0110 03
    000264  aa   000000 0110 03
    000265  aa   000000 0110 03
    000266  aa   000000 0110 03
    000267  aa   000000 0110 03
    000270  aa   000000 0110 03
    000271  aa   000000 0110 03
    000272  aa   000000 0110 03
    000273  aa   000000 0110 03
    000274  aa   000000 0110 03
    000275  aa   000000 0110 03
    000276  aa   000000 0110 03
    000277  aa   000000 0110 03
                                    54
                                    55  " 
                                    56
                                    57  " Image Buffer for Honeywell Standard 63-Character Print Chain. (Group 007)
    000300  aa  000 102 030 405     58  	bci	o01234567BZ,/89.-DUGHREST(=')MNOP[]?!VWXYA:;@JKQ*o
    000301  aa  060 722 717 361
    000302  aa  101 133 522 464
    000303  aa  273 051 256 263
    000304  aa  357 557 554 445
    000305  aa  464 712 341 777
    000306  aa  656 667 702 115
    000307  aa  561 441 425 054
    000310  aa  000 102 030 405     59  	bci	o01234567CIFL89.-BZ,/REST%\|_DUGH&+<>MNOPA$"#VWXYo
    000311  aa  060 723 312 643
    000312  aa  101 133 522 271
    000313  aa  736 151 256 263
    000314  aa  743 740 722 464
    000315  aa  273 032 603 616
    000316  aa  444 546 472 153
    000317  aa  761 365 666 770
    000320  aa  000 102 030 405     60  	bci	o01234567JKQ*89.-CIFLREST(=')BZ,/[]?!DUGHA:;@MNOPo
    000321  aa  060 741 425 054
    000322  aa  101 133 522 331
    000323  aa  264 351 256 263
    000324  aa  357 557 552 271
    000325  aa  736 112 341 777
    000326  aa  246 427 302 115
    000327  aa  561 444 454 647
    000330  aa  000 102 030 405     61  	bci	o01234567VWXY89.-JKQ*REST%\|_CIFL&+<>BZ,/A$"#DUGHo
    000331  aa  060 765 666 770
    000332  aa  101 133 524 142
    000333  aa  505 451 256 263
    000334  aa  743 740 722 331
    000335  aa  264 332 603 616
    000336  aa  227 173 612 153
    000337  aa  761 324 642 730
    000340  aa  000 102 030 405     62  	bci	o01234567MNOP89.-VWXYREST(=')JKQ*[]?!CIFLA:;@BZ,/o
    000341  aa  060 744 454 647
    000342  aa  101 133 526 566
    000343  aa  677 051 256 263
    000344  aa  357 557 554 142
    000345  aa  505 412 341 777
    000346  aa  233 126 432 115
    000347  aa  561 422 717 361
    000350  aa  000 102 030 405     63  	bci	o01234567DUGH89.-MNOPREST%\|_VWXY&+<>JKQ*A$"#CIFLo
    000351  aa  060 724 642 730
    000352  aa  101 133 524 445
    000353  aa  464 751 256 263
    000354  aa  743 740 726 566
    000355  aa  677 032 603 616
    000356  aa  414 250 542 153
    000357  aa  761 323 312 643
                                    64
                                    65
                                    66
                                    67  	end

NO LITERALS

NAME DEFINITIONS FOR ENTRY POINTS AND SEGDEFS

    000360  5a   000003 000000
    000361  5a   000017 600000
    000362  aa   000000 000000
    000363  55   000010 000002
    000364  5a   000002 400003
    000365  55   000006 000010
    000366  aa  005 160 063 060
    000367  aa  060 151 000 000
    000370  55   000002 000003
    000371  6a   000000 400002
    000372  55   000013 000003
    000373  aa  014 163 171 155         symbol_table
    000374  aa  142 157 154 137
    000375  aa  164 141 142 154
    000376  aa  145 000 000 000

DEFINITIONS HASH TABLE

    000377  aa   000000 000015
    000400  aa   000000 000000
    000401  aa   000000 000000
    000402  aa   000000 000000
    000403  aa   000000 000000
    000404  aa   000000 000000
    000405  aa   000000 000000
    000406  5a   000010 000000
    000407  aa   000000 000000
    000410  aa   000000 000000
    000411  aa   000000 000000
    000412  aa   000000 000000
    000413  aa   000000 000000
    000414  aa   000000 000000

NO EXTERNAL NAMES

NO TRAP POINTER WORDS

TYPE PAIR BLOCKS

    000415  aa   000001 000000
    000416  aa   000000 000000

INTERNAL EXPRESSION WORDS

    000417  aa   000000 000000
LINKAGE INFORMATION

    000000  aa   000000 000000
    000001  0a   000360 000000
    000002  aa   000000 000000
    000003  aa   000000 000000
    000004  aa   000000 000000
    000005  aa   000000 000000
    000006  22   000010 000010
    000007  a2   000000 000000
SYMBOL INFORMATION

SYMBOL TABLE HEADER

    000000  aa   000000 000001
    000001  aa   163171 155142
    000002  aa   164162 145145
    000003  aa   000000 000004
    000004  aa   000000 112143
    000005  aa   305203 523135
    000006  aa   000000 112272
    000007  aa   227733 471045
    000010  aa   141154 155040
    000011  aa   040040 040040
    000012  aa   000024 000040
    000013  aa   000034 000040
    000014  aa   000044 000100
    000015  aa   000100 000002
    000016  aa   000064 000000
    000017  aa   000000 000131
    000020  aa   000000 000100
    000021  aa   000000 000120
    000022  aa   000123 000100
    000023  aa   000064 000000
    000024  aa   101114 115040
    000025  aa   126145 162163
    000026  aa   151157 156040
    000027  aa   040066 056066
    000030  aa   040040 116157
    000031  aa   166145 155142
    000032  aa   145162 040061
    000033  aa   071070 062040
    000034  aa   110157 154155
    000035  aa   163164 145144
    000036  aa   164056 123171
    000037  aa   163115 141151
    000040  aa   156164 056141
    000041  aa   040040 040040
    000042  aa   040040 040040
    000043  aa   040040 040040
    000044  aa   154151 163164
    000045  aa   040040 040040
    000046  aa   040040 040040
    000047  aa   040040 040040
    000050  aa   040040 040040
    000051  aa   040040 040040
    000052  aa   040040 040040
    000053  aa   040040 040040
    000054  aa   040040 040040
    000055  aa   040040 040040
    000056  aa   040040 040040
    000057  aa   040040 040040
    000060  aa   040040 040040
    000061  aa   040040 040040
    000062  aa   040040 040040
    000063  aa   040040 040040
    000064  aa   000000 000001
    000065  aa   000000 000001
    000066  aa   000072 000026
    000067  aa   122721 273071
    000070  aa   000000 112272
    000071  aa   216126 200000
    000072  aa   076163 160145          >spec>h>3.17>p300i.alm
    000073  aa   143076 150076
    000074  aa   063056 061067
    000075  aa   076160 063060
    000076  aa   060151 056141
    000077  aa   154155 040040
               MULTICS ASSEMBLY CROSS REFERENCE LISTING

   Value        Symbol                   Source file   Line number


NO FATAL ERRORS


                                          -----------------------------------------------------------


Historical Background

This edition of the Multics software materials and documentation is provided and donated
to Massachusetts Institute of Technology by Group BULL including BULL HN Information Systems Inc.
as a contribution to computer science knowledge.
This donation is made also to give evidence of the common contributions of Massachusetts Institute of Technology,
Bell Laboratories, General Electric, Honeywell Information Systems Inc., Honeywell BULL Inc., Groupe BULL
and BULL HN Information Systems Inc. to the development of this operating system.
Multics development was initiated by Massachusetts Institute of Technology Project MAC (1963-1970),
renamed the MIT Laboratory for Computer Science and Artificial Intelligence in the mid 1970s, under the leadership
of Professor Fernando Jose Corbato. Users consider that Multics provided the best software architecture
for managing computer hardware properly and for executing programs. Many subsequent operating systems
incorporated Multics principles.
Multics was distributed in 1975 to 2000 by Group Bull in Europe , and in the U.S. by Bull HN Information Systems Inc.,
as successor in interest by change in name only to Honeywell Bull Inc. and Honeywell Information Systems Inc. .

                                          -----------------------------------------------------------

Permission to use, copy, modify, and distribute these programs and their documentation for any purpose and without
fee is hereby granted,provided that the below copyright notice and historical background appear in all copies
and that both the copyright notice and historical background and this permission notice appear in supporting
documentation, and that the names of MIT, HIS, BULL or BULL HN not be used in advertising or publicity pertaining
to distribution of the programs without specific prior written permission.
    Copyright 1972 by Massachusetts Institute of Technology and Honeywell Information Systems Inc.
    Copyright 2006 by BULL HN Information Systems Inc.
    Copyright 2006 by Bull SAS
    All Rights Reserved
