ASSEMBLY LISTING OF SEGMENT >spec>h>3.17>salv.alm
ASSEMBLED ON:	11/29/83  1532.8 mst Tue
OPTIONS USED:	list
ASSEMBLED BY:	ALM Version  6.6  November 1982
ASSEMBLER CREATED:	09/21/83  1227.3 mst Wed

                                     1  " ***********************************************************
                                     2  " *                                                         *
                                     3  " * Copyright, (C) Honeywell Information Systems Inc., 1982 *
                                     4  " *                                                         *
                                     5  " ***********************************************************
                                     6  " BOS command to execute the command "BOOT COLD SALV n"
                                     7  "	last modified 6/28/74 by Noel I. Morris
                                     8
                                     9  "  ******************************************************
                                    10  "  *                                                    *
                                    11  "  *                                                    *
                                    12  "  * Copyright (c) 1972 by Massachusetts Institute of   *
                                    13  "  * Technology and Honeywell Information Systems, Inc. *
                                    14  "  *                                                    *
                                    15  "  *                                                    *
                                    16  "  ******************************************************
                                    17
    000000                          18  	name	salv
                                    19
                                    20
                                    21  	include	bosequ
                                   1-1  " Begin include file ...... bosequ.incl.alm
                                   1-2  " Modified 8/25/76 by N. I. Morris
                                   1-3  " Modified 8/79 by R.J.C. Kissel to expand BOS.
                                   1-4  " Modified November 1981 by C. Hornig to add pgmorg.
                                   1-5  " Modified October 1982 by J. Bongiovanni to take it out
                                   1-6
                        000000     1-7  	bool	ds,0		descriptor segment
                        000001     1-8  	bool	tmp,1		temp seg
                        000002     1-9  	bool	bf,2		buffer segment for save/restor
                        000003    1-10  	bool	pgm,3		program in control
                        000004    1-11  	bool	xs1,4		spare segment
                        000005    1-12  	bool	xs2,5		spare segment
                        000005    1-13  	bool	fgb,5		flagbox segment
                        000006    1-14  	bool	com,6		common
                        000007    1-15  	bool	mem,7		all memory
                                  1-16
                        000017    1-17  	equ	arglen,15		max number of args from scan
                                  1-18
                        004000    1-19  	bool	runcom_bit,4000	runcom bit in dir entry
                        002000    1-20  	bool	firmware_bit,2000	firmware bit in dir entry
                                  1-21
                        012000    1-22  	bool	utilorg,12000	origin of utility package
                                  1-23
                                  1-24  " End of include file ...... bosequ.incl.alm
                                    22
                                    23
                                    24  " 
                                    25
    000000  aa  7 00000 2201 12     26  	ldx0	mem|0,2		get loc of arg list
                                    27
    000001  aa  7 00001 2351 10     28  	lda	mem|1,0		get first argument
    000002  0a   000004 6054 00     29  	tpnz	*+2		if supplied, use it
    000003  aa   000002 2350 07     30  	lda	2,dl		default tape number is 2
    000004  aa  7 00003 7551 10     31  	sta	mem|3,0
                                    32
    000005  0a   000014 2350 00     33  	lda	=h  salv
    000006  aa  7 00002 7551 10     34  	sta	mem|2,0
                                    35
    000007  0a   000015 2350 00     36  	lda	=h  cold
    000010  aa  7 00001 7551 10     37  	sta	mem|1,0
                                    38
    000011  0a   000016 2350 00     39  	lda	=h  boot
    000012  aa  7 00001 7101 12     40  	tra	mem|1,2
                                    41
                                    42
                                    43  	end
LITERALS

    000014  aa   202062 214365
    000015  aa   202023 464324
    000016  aa   202022 464663
NAME DEFINITIONS FOR ENTRY POINTS AND SEGDEFS

    000017  5a   000003 000000
    000020  5a   000017 600000
    000021  aa   000000 000000
    000022  55   000010 000002
    000023  5a   000002 400003
    000024  55   000006 000010
    000025  aa  004 163 141 154
    000026  aa  166 000 000 000
    000027  55   000002 000003
    000030  6a   000000 400002
    000031  55   000013 000003
    000032  aa  014 163 171 155         symbol_table
    000033  aa  142 157 154 137
    000034  aa  164 141 142 154
    000035  aa  145 000 000 000

DEFINITIONS HASH TABLE

    000036  aa   000000 000015
    000037  aa   000000 000000
    000040  aa   000000 000000
    000041  aa   000000 000000
    000042  aa   000000 000000
    000043  aa   000000 000000
    000044  aa   000000 000000
    000045  5a   000010 000000
    000046  aa   000000 000000
    000047  aa   000000 000000
    000050  aa   000000 000000
    000051  aa   000000 000000
    000052  aa   000000 000000
    000053  aa   000000 000000

NO EXTERNAL NAMES

NO TRAP POINTER WORDS

TYPE PAIR BLOCKS

    000054  aa   000001 000000
    000055  aa   000000 000000

INTERNAL EXPRESSION WORDS

LINKAGE INFORMATION

    000000  aa   000000 000000
    000001  0a   000017 000000
    000002  aa   000000 000000
    000003  aa   000000 000000
    000004  aa   000000 000000
    000005  aa   000000 000000
    000006  22   000010 000010
    000007  a2   000000 000000
SYMBOL INFORMATION

SYMBOL TABLE HEADER

    000000  aa   000000 000001
    000001  aa   163171 155142
    000002  aa   164162 145145
    000003  aa   000000 000004
    000004  aa   000000 112143
    000005  aa   305203 523135
    000006  aa   000000 112272
    000007  aa   231453 772442
    000010  aa   141154 155040
    000011  aa   040040 040040
    000012  aa   000024 000040
    000013  aa   000034 000040
    000014  aa   000044 000100
    000015  aa   000002 000002
    000016  aa   000064 000000
    000017  aa   000000 000132
    000020  aa   000000 000114
    000021  aa   000000 000120
    000022  aa   000123 000114
    000023  aa   000064 000000
    000024  aa   101114 115040
    000025  aa   126145 162163
    000026  aa   151157 156040
    000027  aa   040066 056066
    000030  aa   040040 116157
    000031  aa   166145 155142
    000032  aa   145162 040061
    000033  aa   071070 062040
    000034  aa   110157 154155
    000035  aa   163164 145144
    000036  aa   164056 123171
    000037  aa   163115 141151
    000040  aa   156164 056141
    000041  aa   040040 040040
    000042  aa   040040 040040
    000043  aa   040040 040040
    000044  aa   154151 163164
    000045  aa   040040 040040
    000046  aa   040040 040040
    000047  aa   040040 040040
    000050  aa   040040 040040
    000051  aa   040040 040040
    000052  aa   040040 040040
    000053  aa   040040 040040
    000054  aa   040040 040040
    000055  aa   040040 040040
    000056  aa   040040 040040
    000057  aa   040040 040040
    000060  aa   040040 040040
    000061  aa   040040 040040
    000062  aa   040040 040040
    000063  aa   040040 040040
    000064  aa   000000 000001
    000065  aa   000000 000002
    000066  aa   000076 000025
    000067  aa   122721 273104
    000070  aa   000000 112272
    000071  aa   216210 200000
    000072  aa   000104 000040
    000073  aa   113400 415301
    000074  aa   000000 111341
    000075  aa   220414 400000
    000076  aa   076163 160145          >spec>h>3.17>salv.alm
    000077  aa   143076 150076
    000100  aa   063056 061067
    000101  aa   076163 141154
    000102  aa   166056 141154
    000103  aa   155040 040040
    000104  aa   076154 144144          >ldd>bos>include>bosequ.incl.alm
    000105  aa   076142 157163
    000106  aa   076151 156143
    000107  aa   154165 144145
    000110  aa   076142 157163
    000111  aa   145161 165056
    000112  aa   151156 143154
    000113  aa   056141 154155
               MULTICS ASSEMBLY CROSS REFERENCE LISTING

   Value        Symbol                   Source file   Line number

          17    arglen                   bosequ:        17.
           2    bf                       bosequ:         9.
           6    com                      bosequ:        14.
           0    ds                       bosequ:         7.
           5    fgb                      bosequ:        13.
        2000    firmware_bit             bosequ:        20.
           7    mem                      salv:          26,   28,   31,   34,   37,   40,
                                         bosequ:        15.
           3    pgm                      bosequ:        10.
        4000    runcom_bit               bosequ:        19.
           1    tmp                      bosequ:         8.
       12000    utilorg                  bosequ:        22.
           4    xs1                      bosequ:        11.
           5    xs2                      bosequ:        12.


NO FATAL ERRORS


                                          -----------------------------------------------------------


Historical Background

This edition of the Multics software materials and documentation is provided and donated
to Massachusetts Institute of Technology by Group BULL including BULL HN Information Systems Inc.
as a contribution to computer science knowledge.
This donation is made also to give evidence of the common contributions of Massachusetts Institute of Technology,
Bell Laboratories, General Electric, Honeywell Information Systems Inc., Honeywell BULL Inc., Groupe BULL
and BULL HN Information Systems Inc. to the development of this operating system.
Multics development was initiated by Massachusetts Institute of Technology Project MAC (1963-1970),
renamed the MIT Laboratory for Computer Science and Artificial Intelligence in the mid 1970s, under the leadership
of Professor Fernando Jose Corbato. Users consider that Multics provided the best software architecture
for managing computer hardware properly and for executing programs. Many subsequent operating systems
incorporated Multics principles.
Multics was distributed in 1975 to 2000 by Group Bull in Europe , and in the U.S. by Bull HN Information Systems Inc.,
as successor in interest by change in name only to Honeywell Bull Inc. and Honeywell Information Systems Inc. .

                                          -----------------------------------------------------------

Permission to use, copy, modify, and distribute these programs and their documentation for any purpose and without
fee is hereby granted,provided that the below copyright notice and historical background appear in all copies
and that both the copyright notice and historical background and this permission notice appear in supporting
documentation, and that the names of MIT, HIS, BULL or BULL HN not be used in advertising or publicity pertaining
to distribution of the programs without specific prior written permission.
    Copyright 1972 by Massachusetts Institute of Technology and Honeywell Information Systems Inc.
    Copyright 2006 by BULL HN Information Systems Inc.
    Copyright 2006 by Bull SAS
    All Rights Reserved
