ASSEMBLY LISTING OF SEGMENT >spec>h>3.17>taped.alm
ASSEMBLED ON:	11/29/83  1535.5 mst Tue
OPTIONS USED:	list
ASSEMBLED BY:	ALM Version  6.6  November 1982
ASSEMBLER CREATED:	09/21/83  1227.3 mst Wed

                                     1  " ***********************************************************
                                     2  " *                                                         *
                                     3  " * Copyright, (C) Honeywell Information Systems Inc., 1982 *
                                     4  " *                                                         *
                                     5  " ***********************************************************
                                     6  "tape dump prog
                                     7  " Modified on 11/9/71 by Noel I. Morris
                                     8
                                     9  "  ******************************************************
                                    10  "  *                                                    *
                                    11  "  *                                                    *
                                    12  "  * Copyright (c) 1972 by Massachusetts Institute of   *
                                    13  "  * Technology and Honeywell Information Systems, Inc. *
                                    14  "  *                                                    *
                                    15  "  *                                                    *
                                    16  "  ******************************************************
                                    17
                                    18
                                    19  	include	bosequ
                                   1-1  " Begin include file ...... bosequ.incl.alm
                                   1-2  " Modified 8/25/76 by N. I. Morris
                                   1-3  " Modified 8/79 by R.J.C. Kissel to expand BOS.
                                   1-4  " Modified November 1981 by C. Hornig to add pgmorg.
                                   1-5  " Modified October 1982 by J. Bongiovanni to take it out
                                   1-6
                        000000     1-7  	bool	ds,0		descriptor segment
                        000001     1-8  	bool	tmp,1		temp seg
                        000002     1-9  	bool	bf,2		buffer segment for save/restor
                        000003    1-10  	bool	pgm,3		program in control
                        000004    1-11  	bool	xs1,4		spare segment
                        000005    1-12  	bool	xs2,5		spare segment
                        000005    1-13  	bool	fgb,5		flagbox segment
                        000006    1-14  	bool	com,6		common
                        000007    1-15  	bool	mem,7		all memory
                                  1-16
                        000017    1-17  	equ	arglen,15		max number of args from scan
                                  1-18
                        004000    1-19  	bool	runcom_bit,4000	runcom bit in dir entry
                        002000    1-20  	bool	firmware_bit,2000	firmware bit in dir entry
                                  1-21
                        012000    1-22  	bool	utilorg,12000	origin of utility package
                                  1-23
                                  1-24  " End of include file ...... bosequ.incl.alm
                                    20
                                    21
                        002020      22  	equ	bufl,1040		max record size
                                    23
    000000  0a   000132 7420 00     24  	stx2	x2
    000001  aa  7 00000 2271 12     25  	ldx7	mem|0,2
    000002  aa  7 00021 2351 17     26  	lda	mem|arglen+1+1,7	get tape number in decimal
    000003  0a   000010 6044 00     27  	tmoz	*+5
    000004  aa   000020 1150 03     28  	cmpa	=16,du
    000005  0a   000010 6054 00     29  	tpnz	*+3
    000006  aa   000014 7350 00     30  	als	12
    000007  0a   002241 7510 04     31  	stca	tpch,04		store as device number
                                    32
    000010  aa   012271 7020 00     33  	tsx2	init_io
    000011  aa   012245 7020 00     34  	tsx2	ttyinit
    000012  0a   000131 0000 00     35  	arg	ttyrequest
                                    36
    000013  aa   012237 7020 00     37  	tsx2	itaper		initialize tape for reading
    000014  0a   002241 0000 00     38  	arg	tpch
                                    39
    000015  0a   002242 2350 00     40  	lda	=h ptpkg
    000016  aa   006000 6360 00     41  	eaq	pt_org		load the print package
    000017  aa   012206 7020 00     42  	tsx2	ldcom
    000020  0a   000132 7100 00     43  	tra	x2
                                    44
    000021  aa   000002 6270 00     45  	eax7	nheading_lth-1	copy the page heading
    000022  0a   000135 2350 17     46  	lda	nheading,7
    000023  aa   006016 7550 17     47  	sta	pthdr,7
    000024  aa   777777 6270 17     48  	eax7	-1,7
    000025  0a   000022 6050 00     49  	tpl	*-3
                                    50
    000026  aa   012267 7020 00     51  	tsx2	rdclock		put date and time in header
    000027  aa   006021 7550 00     52  	sta	pthdr+3
    000030  aa   006022 7560 00     53  	stq	pthdr+4
                                    54
    000031  0a   000132 2220 00     55  	ldx2	x2		restore X2
    000032  aa  7 00000 7271 12     56  	lxl7	mem|0,2		get address of command line
    000033  aa   006024 6260 00     57  	eax6	pthdr+6		get address of header line
    000034  aa   000000 0110 03     58  odd;	rpd	14,1		copy command line in header
    000035  aa   035600 5602 01
    000036  aa  7 00000 2351 17     59  	lda	mem|0,7		..
    000037  aa   000000 7550 16     60  	sta	0,6		..
                                    61
    000040  aa   006000 7020 00     62  	tsx2	printon		turn printer on
                                    63
    000041  aa   006004 7020 00     64  	tsx2	headform
                                    65
    000042  aa   000110 7370 00     66  loop:	lls	72		clear buffer
    000043  aa   002020 6270 00     67  	eax7	bufl
    000044  0a   000136 7570 17     68  	staq	buf-2,7
    000045  aa   777776 6270 17     69  	eax7	-2,7
    000046  0a   000044 6050 00     70  	tpl	*-2
                                    71
    000047  aa   006003 7020 00     72  	tsx2	space		blank buffer
    000050  aa   006005 7020 00     73  	tsx2	print
                                    74
    000051  aa   000024 6200 00     75  	eax0	20
    000052  aa   012277 7020 00     76  reread:	tsx2	xio_wait		start tape io
    000053  0a   000140 202000      77  	vfd	18/buf,12/bufl
    000054  0a   002241 000005      78  	zero	tpch,5
    000055  0a   000075 7100 00     79  	tra	tper
                                    80
    000056  aa   006014 5540 00     81  	stc1	ptbfirst		kill dup line suppress
    000057  aa   000000 6210 00     82  	eax1	0		print each 64 words so we can
    000060  0a   000140 6270 11     83  l1:	eax7	buf,1
    000061  0a   002240 7470 00     84  	stx7	pbuf		fill in addr
    000062  aa   000000 6350 11     85  	eaa	0,1
    000063  aa   012252 7020 00     86  	tsx2	octwd
    000064  aa   000014 7710 00     87  	arl	12
    000065  0a   002243 2750 00     88  	ora	=h    00
    000066  aa   012002 7550 00     89  	sta	line+1
    000067  aa   006006 7020 00     90  	tsx2	ptblock
    000070  0a   002240 000100      91  	zero	pbuf,64
    000071  aa   000100 6210 11     92  	eax1	64,1
    000072  aa   002020 1010 03     93  	cmpx1	bufl,du
    000073  0a   000060 6040 00     94  	tmi	l1
                                    95
    000074  0a   000042 7100 00     96  	tra	loop
                                    97
    000075  aa   000036 7710 00     98  tper:	arl	30
    000076  aa   000007 3750 07     99  	ana	=o7,dl		dispatch on major status
    000077  0a   000100 7100 05    100  	tra	*+1,al
    000100  0a   000110 7100 00    101  	tra	retry
    000101  0a   000052 7100 00    102  	tra	reread
    000102  0a   000052 7100 00    103  	tra	reread
    000103  0a   000110 7100 00    104  	tra	retry
    000104  0a   000123 7100 00    105  	tra	eof
    000105  0a   000052 7100 00    106  	tra	reread
    000106  0a   000106 7100 00    107  	tra	*
    000107  0a   000107 7100 00    108  	tra	*
                                   109
    000110  aa   777777 6200 10    110  retry:	eax0	-1,0		count down errors
    000111  0a   000117 6040 00    111  	tmi	rder
    000112  aa   012277 7020 00    112  	tsx2	xio_wait		backspace
    000113  aa   000000 000000     113  	zero
    000114  0a   002241 000046     114  	zero	tpch,38
    000115  0a   000052 7100 00    115  	tra	reread
    000116  0a   000052 7100 00    116  	tra	reread
                                   117
    000117  aa   006003 7020 00    118  rder:	tsx2	space		here on tape error
    000120  aa   006005 7020 00    119  	tsx2	print
    000121  0a   002244 2350 00    120  	lda	=herror "
    000122  0a   000126 7100 00    121  	tra	*+4
                                   122
    000123  aa   006003 7020 00    123  eof:	tsx2	space
    000124  aa   006005 7020 00    124  	tsx2	print
    000125  0a   002245 2350 00    125  	lda	=heof   "
    000126  aa   012001 7550 00    126  	sta	line
    000127  aa   006005 7020 00    127  	tsx2	print
    000130  0a   000042 7100 00    128  	tra	loop
                                   129
    000131                         130  ttyrequest:
    000131  aa   006002 7020 00    131  	tsx2	wteof		eject paper
    000132  0a   000132 6220 00    132  x2:	eax2	*
    000133  aa   000001 3350 07    133  	lca	=1,dl
    000134  aa  7 00001 7101 12    134  	tra	mem|1,2
                                   135
                                   136  "
    000135  aa  012 020 202 020    137  nheading:	bci	'1     tape dump   '
    000136  aa  632 147 252 024
    000137  aa  644 447 202 020
                        000003     138  	equ	nheading_lth,*-nheading
                                   139
                                   140  	even
    000140                         141  buf:	bss	,((bufl+63)/64)*64
                                   142
                                   143  	even
    002240  aa   000000 0000 00    144  pbuf:	arg	0
    002241  aa   000000 010000     145  tpch:	vfd	18/0,6/1,12/0
                                   146
                                   147
                                   148  	include	pt_equ
                                   2-1  " 
                                   2-2  " Begin include file ...... pt_equ.incl.alm
                                   2-3  " Created 8/28/73 by N. I. Morris
                                   2-4  " Modified 8/79 by R.J.C. Kissel to use expanded BOS.
                                   2-5  " Last modified by Sherman D. Sprague 02/11/81 for DPS8 support.
                        006000     2-6  	bool	pt_org,6000
                                   2-7
                        006000     2-8  	equ	printon,pt_org+0		turn on printer
                        006001     2-9  	equ	tapeon,pt_org+1		turn on tape
                        006002    2-10  	equ	wteof,pt_org+2		close out tape or print
                        006003    2-11  	equ	space,pt_org+3		fill line with blanks
                        006004    2-12  	equ	headform,pt_org+4		print header
                        006005    2-13  	equ	print,pt_org+5		print line
                        006006    2-14  	equ	ptblock,pt_org+6		print block of data
                        006010    2-15  	equ	initprint,pt_org+8		init print package
                        006011    2-16  	equ	print_edited,pt_org+9	print edited
                        006014    2-17  	equ	ptbfirst,pt_org+12		non-zero on first call to ptblock
                        006015    2-18  	equ	ptsegno,pt_org+13		non-zero to print segment #
                        006016    2-19  	equ	pthdr,pt_org+14		page heading
                                  2-20
                                  2-21  " End of include file ...... pt_equ.incl.alm
                                  2-22
                                   149  	include	bos_tv
                                   3-1  " 
                                   3-2  " Begin include file ...... bos_tv.incl.alm
                                   3-3  " Created in November 1971 by N. I. Morris.
                                   3-4  " Modified 9/9/76 by Noel I. Morris
                                   3-5  " Modified by Sherman D. Sprague 02/11/81 for DPS8 support.
                                   3-6  " Modified November 1981 by C. Hornig to remove iom_connect_rel.
                                   3-7  " Modified January 1982 by J. Bongiovanni to add getport_info
                                   3-8  " Modified May 1982 by Sherman D. Sprague to add getmpc.
                                   3-9
                                  3-10  " BOS Utility Package Transfer Vector.
                                  3-11
                        012000    3-12  	equ	pagectl,utilorg
                        012001    3-13  	equ	line,pagectl+1
                        012040    3-14  	equ	arg,line+31
                        012060    3-15  	equ	darg,arg+arglen+1
                        012100    3-16  	equ	earg,darg+arglen+1
                        012120    3-17  	equ	fltscu,earg+arglen+1
                                  3-18
                        012200    3-19  	equ	tv_org,utilorg+128
                                  3-20
                        012200    3-21  	equ	scan,tv_org+0
                        012201    3-22  	equ	arg_count,tv_org+1
                        012202    3-23  	equ	nextline,tv_org+2
                        012203    3-24  	equ	nlraw,tv_org+3
                        012204    3-25  	equ	search,tv_org+4
                        012205    3-26  	equ	makefil,tv_org+5
                        012206    3-27  	equ	ldcom,tv_org+6
                        012207    3-28  	equ	getsec,tv_org+7
                        012210    3-29  	equ	cvinit,tv_org+8
                        012211    3-30  	equ	rdev,tv_org+9
                        012212    3-31  	equ	wdev,tv_org+10
                        012213    3-32  	equ	phybos,tv_org+11
                        012214    3-33  	equ	bosphy,tv_org+12
                        012215    3-34  	equ	phyadd,tv_org+13
                        012216    3-35  	equ	mulbos,tv_org+14
                        012217    3-36  	equ	bosmul,tv_org+15
                        012220    3-37  	equ	lookup_devmodel,tv_org+16
                        012221    3-38  	equ	makesdw,tv_org+17
                        012222    3-39  	equ	argbos,tv_org+18
                        012223    3-40  	equ	argmul,tv_org+19
                        012224    3-41  	equ	amdvt,tv_org+20
                        012225    3-42  	equ	amfirst,tv_org+21
                        012226    3-43  	equ	amlast,tv_org+22
                        012227    3-44  	equ	cvnamla,tv_org+23
                        012230    3-45  	equ	sect_per_cyl_list,tv_org+24
                        012231    3-46  	equ	sect_per_dev_list,tv_org+25
                        012232    3-47  	equ	rec_per_dev_list,tv_org+26
                        012233    3-48  	equ	amaxio,tv_org+27
                        012234    3-49  	equ	rdsec,tv_org+28
                        012235    3-50  	equ	wtsec,tv_org+29
                        012236    3-51  	equ	disk_brief,tv_org+30
                        012237    3-52  	equ	itaper,tv_org+31
                        012240    3-53  	equ	itapew,tv_org+32
                        012241    3-54  	equ	erpt,tv_org+33
                        012242    3-55  	equ	ercv,tv_org+34
                        012243    3-56  	equ	erbuf,tv_org+35
                        012244    3-57  	equ	type,tv_org+36
                        012245    3-58  	equ	ttyinit,tv_org+37
                        012246    3-59  	equ	readcd,tv_org+38
                        012247    3-60  	equ	readtty,tv_org+39
                        012250    3-61  	equ	getprt,tv_org+40
                        012251    3-62  	equ	punch,tv_org+41
                        012252    3-63  	equ	octwd,tv_org+42
                        012253    3-64  	equ	geas,tv_org+43
                        012254    3-65  	equ	geastab,tv_org+44
                        012255    3-66  	equ	asge,tv_org+45
                        012256    3-67  	equ	asgetab,tv_org+46
                        012257    3-68  	equ	ljust,tv_org+47
                        012260    3-69  	equ	rjust,tv_org+48
                        012261    3-70  	equ	bzel,tv_org+49
                        012262    3-71  	equ	stripa,tv_org+50
                        012263    3-72  	equ	stripg,tv_org+51
                        012264    3-73  	equ	getconf,tv_org+52
                        012265    3-74  	equ	getmore,tv_org+53
                        012266    3-75  	equ	getperiph,tv_org+54
                        012267    3-76  	equ	rdclock,tv_org+55
                        012270    3-77  	equ	cvclock,tv_org+56
                        012271    3-78  	equ	init_io,tv_org+57
                        012272    3-79  	equ	connect_iom,tv_org+58
                        012273    3-80  	equ	getmpc,tv_org+59
                        012274    3-81  	equ	check_status,tv_org+60
                        012275    3-82  	equ	get_special_interrupt,tv_org+61
                        012276    3-83  	equ	get_status_interrupt,tv_org+62
                        012277    3-84  	equ	xio_wait,tv_org+63
                        012300    3-85  	equ	initint,tv_org+64
                        012301    3-86  	equ	wantflt,tv_org+65
                        012302    3-87  	equ	intno,tv_org+66
                        012303    3-88  	equ	intrpts1,tv_org+67
                        012304    3-89  	equ	hexwd,tv_org+68
                        012305    3-90  	equ	find_disk,tv_org+69
                        012306    3-91  	equ	find_root,tv_org+70
                        012307    3-92  	equ	find_part,tv_org+71
                        012310    3-93  	equ	check_status_no_stat,tv_org+72
                        012311    3-94  	equ	check_special_status,tv_org+73
                        012312    3-95  	equ	check_cpu_type,tv_org+74
                        012313    3-96  	equ	getportinfo,tv_org+75
                                  3-97
                                  3-98  " End of include file ...... bos_tv.incl.alm
                                  3-99
                                   150  	include	bos_common
                                   4-1  "
                                   4-2  " Begin include file ...... bos_common.incl.alm
                                   4-3  " Modified on 8/31/76 by N. I. Morris
                                   4-4  " Modified on 9/01/80 by Sherman D. Sprague for DPS8 operation
                                   4-5  " Modified on 5/26/82 by Sherman D. Sprague to lengthen config size
                                   4-6  " Modified on 3/01/83 by Sherman D. Sprague to lengthen dirlen
                                   4-7  "	MACHINE CONDITIONS AREA
                                   4-8  "		Its length is "storlen".
                                   4-9
                        000000    4-10  	equ	amptwregs,0	Ass. Mem  PTW registers
                        000100    4-11  	equ	amptwptr,64	Ass. Mem  PTW pointers
                        000200    4-12  	equ	amsdwregs,128	Ass. Mem  SDW registers
                        000400    4-13  	equ	amsdwptr,256	Ass. Mem  SDW pointers
                        000500    4-14  	equ	ouhist,320	operations hist regs
                        000700    4-15  	equ	cuhist,448	control unit hist regs
                        001100    4-16  	equ	eishist,576	eis hist regs
                        001300    4-17  	equ	aphist,704	appending unit hist regs
                        001500    4-18  	equ	prs,832		pointer regs
                        001520    4-19  	equ	regs,848		sreg
                        001530    4-20  	equ	low_order_port,856	port to read clock from
                        001532    4-21  	equ	mctime,858	bootload memory clock
                        001540    4-22  	equ	scu,864
                        001550    4-23  	equ	mcm,872		memory masks 8 ports
                        001570    4-24  	equ	dbr,888
                        001572    4-25  	equ	intrpts,890	waiting interrupts
                        001573    4-26  	equ	bar,891		bar
                        001574    4-27  	equ	modereg,892	processor & cache mode registers
                        001576    4-28  	equ	faultreg,894	processor fault register
                        001600    4-29  	equ	ptrlen,896	pointer-lengths EIS 0 mod 8
                        001610    4-30  	equ	coreblocks,904	array of port information
                                  4-31  "				Bits  0-17 => num 1st 64-word block
                                  4-32  "				Bits 18-35 => num of 64-word blocks
                                  4-33  "				(-1) => no mem on this port
                        001620    4-34  	equ	lowport_cfg,912	Saved CFG from bootload SCU
                                  4-35
                        002000    4-36  	equ	storlen,1024
                                  4-37
                                  4-38
                                  4-39
                                  4-40  "	BOS COMMAND DIRECTORY
                                  4-41  "		Its length is "dirlen".
                                  4-42
                        002000    4-43  	equ	dir,1024		( 0-23) => sector # of first sector on BOS disk
                                  4-44  "				(24-35) => # of sectors in BOS common
                        002001    4-45  	equ	used,dir+1	( 0-23) => # of next available sector on BOS disk
                        002002    4-46  	equ	useable,dir+2	( 0-23) => first unavailable sector on BOS disk
                        002003    4-47  	equ	corearea,dir+3	( 0-23) => starting sector of Multics core image
                                  4-48  "				(24-35) => # of sectors in Multics core image
                        002004    4-49  	equ	setuparea,dir+4	Sector and length of setup
                        002005    4-50  	equ	utilarea,dir+5	where utility package is kept
                        002010    4-51  	equ	iom_mxbase,dir+8	IOM IMW area address
                        002011    4-52  	equ	iom_mbbase,dir+9	IOM mailbox base
                        002012    4-53  	equ	bos_dvt,dir+10	BOS disk loc: (o3/iom,o6/chn,o9/drive,o18/devtype)
                        002013    4-54  	equ	unitgroup,dir+11	disk unitgroup (device no. or area no.)
                        002014    4-55  	equ	diskchanno,dir+12	channel to be used for disk
                        002015    4-56  	equ	tapechanno,dir+13	channel # for tapes
                        002016    4-57  	equ	rdrchanno,dir+14	channel number for card reader
                        002017    4-58  	equ	ttychanno,dir+15	channel # for operator's tty
                        002020    4-59  	equ	quietsw,dir+16	if on, don't print card and macro commands
                        002021    4-60  	equ	inputsw,dir+17	read from tty, cards, macros
                        002022    4-61  	equ	macroloc,dir+18	disk addr, buffer index of macro file
                        002023    4-62  	equ	fdump_state,dir+19	completion flag for last FDUMP
                        002024    4-63  	equ	d355_state,dir+20	= 1 if DataNet 355 loaded successfully
                        002025    4-64  	equ	skipsw,dir+21	if on, skip runcom lines
                        002026    4-65  	equ	ttypmtsw,dir+22	if on, prompt
                        002027    4-66  	equ	curtcmd,dir+23	current bos command
                        002030    4-67  	equ	readysw,dir+24	if on, print ready message
                        002032    4-68  	equ	cmdlst,dir+26	list of commands
                                  4-69
                        000600    4-70  	equ	dirlen,384
                                  4-71
                                  4-72
                                  4-73
                                  4-74  "	MACRO BUFFER AREA
                                  4-75
                        002600    4-76  	equ	macrobuf,dir+dirlen  io buffer for macro files
                        002700    4-77  	equ	macroline,macrobuf+64  runcom command line
                        002716    4-78  	equ	macroargs,macroline+14  argument descriptors for runcom
                                  4-79
                                  4-80
                                  4-81
                                  4-82  "	CONFIGURATION CARD AREA
                                  4-83  "		Its length is 2048 words.
                                  4-84
                        003000    4-85  	equ	conf,macrobuf+128	start of configuration info
                        007000    4-86  	equ	econf,conf+2048	end of configuration info
                        000020    4-87  	equ	confl,16		length of each line
                                  4-88
                                  4-89
                        007000    4-90  	equ	seg6length,econf	length of bos_common area segment
                                  4-91
                                  4-92  " End of include file ...... bos_common.incl.alm
                                  4-93
                                   151
                                   152  	end
LITERALS

    002242  aa   204763 474227
    002243  aa   202020 200000
    002244  aa   255151 465120
    002245  aa   254626 202020
NAME DEFINITIONS FOR ENTRY POINTS AND SEGDEFS

    002246  5a   000003 000000
    002247  5a   000017 600000
    002250  aa   000000 000000
    002251  55   000010 000002
    002252  5a   000002 400003
    002253  55   000006 000010
    002254  aa  005 164 141 160
    002255  aa  145 144 000 000
    002256  55   000002 000003
    002257  6a   000000 400002
    002260  55   000013 000003
    002261  aa  014 163 171 155         symbol_table
    002262  aa  142 157 154 137
    002263  aa  164 141 142 154
    002264  aa  145 000 000 000

DEFINITIONS HASH TABLE

    002265  aa   000000 000015
    002266  aa   000000 000000
    002267  aa   000000 000000
    002270  aa   000000 000000
    002271  aa   000000 000000
    002272  aa   000000 000000
    002273  aa   000000 000000
    002274  5a   000010 000000
    002275  aa   000000 000000
    002276  aa   000000 000000
    002277  aa   000000 000000
    002300  aa   000000 000000
    002301  aa   000000 000000
    002302  aa   000000 000000

NO EXTERNAL NAMES

NO TRAP POINTER WORDS

TYPE PAIR BLOCKS

    002303  aa   000001 000000
    002304  aa   000000 000000

INTERNAL EXPRESSION WORDS

    002305  aa   000000 000000
LINKAGE INFORMATION

    000000  aa   000000 000000
    000001  0a   002246 000000
    000002  aa   000000 000000
    000003  aa   000000 000000
    000004  aa   000000 000000
    000005  aa   000000 000000
    000006  22   000010 000010
    000007  a2   000000 000000
SYMBOL INFORMATION

SYMBOL TABLE HEADER

    000000  aa   000000 000001
    000001  aa   163171 155142
    000002  aa   164162 145145
    000003  aa   000000 000004
    000004  aa   000000 112143
    000005  aa   305203 523135
    000006  aa   000000 112272
    000007  aa   232623 323247
    000010  aa   141154 155040
    000011  aa   040040 040040
    000012  aa   000024 000040
    000013  aa   000034 000040
    000014  aa   000044 000100
    000015  aa   000002 000002
    000016  aa   000064 000000
    000017  aa   000000 000306
    000020  aa   000000 000161
    000021  aa   000000 000272
    000022  aa   000275 000161
    000023  aa   000064 000000
    000024  aa   101114 115040
    000025  aa   126145 162163
    000026  aa   151157 156040
    000027  aa   040066 056066
    000030  aa   040040 116157
    000031  aa   166145 155142
    000032  aa   145162 040061
    000033  aa   071070 062040
    000034  aa   110157 154155
    000035  aa   163164 145144
    000036  aa   164056 123171
    000037  aa   163115 141151
    000040  aa   156164 056141
    000041  aa   040040 040040
    000042  aa   040040 040040
    000043  aa   040040 040040
    000044  aa   154151 163164
    000045  aa   040040 040040
    000046  aa   040040 040040
    000047  aa   040040 040040
    000050  aa   040040 040040
    000051  aa   040040 040040
    000052  aa   040040 040040
    000053  aa   040040 040040
    000054  aa   040040 040040
    000055  aa   040040 040040
    000056  aa   040040 040040
    000057  aa   040040 040040
    000060  aa   040040 040040
    000061  aa   040040 040040
    000062  aa   040040 040040
    000063  aa   040040 040040
    000064  aa   000000 000001
    000065  aa   000000 000005
    000066  aa   000112 000026
    000067  aa   122721 273130
    000070  aa   000000 112272
    000071  aa   216134 000000
    000072  aa   000120 000040
    000073  aa   113400 415301
    000074  aa   000000 111341
    000075  aa   220414 400000
    000076  aa   000130 000040
    000077  aa   077322 074066
    000100  aa   000000 107733
    000101  aa   111404 200000
    000102  aa   000140 000040
    000103  aa   110235 072677
    000104  aa   000000 111024
    000105  aa   524460 600000
    000106  aa   000150 000044
    000107  aa   121622 277475
    000110  aa   000000 112162
    000111  aa   321563 400000
    000112  aa   076163 160145          >spec>h>3.17>taped.alm
    000113  aa   143076 150076
    000114  aa   063056 061067
    000115  aa   076164 141160
    000116  aa   145144 056141
    000117  aa   154155 040040
    000120  aa   076154 144144          >ldd>bos>include>bosequ.incl.alm
    000121  aa   076142 157163
    000122  aa   076151 156143
    000123  aa   154165 144145
    000124  aa   076142 157163
    000125  aa   145161 165056
    000126  aa   151156 143154
    000127  aa   056141 154155
    000130  aa   076154 144144          >ldd>bos>include>pt_equ.incl.alm
    000131  aa   076142 157163
    000132  aa   076151 156143
    000133  aa   154165 144145
    000134  aa   076160 164137
    000135  aa   145161 165056
    000136  aa   151156 143154
    000137  aa   056141 154155
    000140  aa   076154 144144          >ldd>bos>include>bos_tv.incl.alm
    000141  aa   076142 157163
    000142  aa   076151 156143
    000143  aa   154165 144145
    000144  aa   076142 157163
    000145  aa   137164 166056
    000146  aa   151156 143154
    000147  aa   056141 154155
    000150  aa   076154 144144          >ldd>bos>include>bos_common.incl.alm
    000151  aa   076142 157163
    000152  aa   076151 156143
    000153  aa   154165 144145
    000154  aa   076142 157163
    000155  aa   137143 157155
    000156  aa   155157 156056
    000157  aa   151156 143154
    000160  aa   056141 154155
               MULTICS ASSEMBLY CROSS REFERENCE LISTING

   Value        Symbol                   Source file   Line number

       12233    amaxio                   bos_tv:        48.
       12224    amdvt                    bos_tv:        41.
       12225    amfirst                  bos_tv:        42.
       12226    amlast                   bos_tv:        43.
         100    amptwptr                 bos_common:    11.
           0    amptwregs                bos_common:    10.
         400    amsdwptr                 bos_common:    13.
         200    amsdwregs                bos_common:    12.
        1300    aphist                   bos_common:    17.
       12040    arg                      bos_tv:        14,   15.
       12222    argbos                   bos_tv:        39.
          17    arglen                   taped:         26,
                                         bosequ:        17,
                                         bos_tv:        15,   16,   17.
       12223    argmul                   bos_tv:        40.
       12201    arg_count                bos_tv:        22.
       12255    asge                     bos_tv:        66.
       12256    asgetab                  bos_tv:        67.
        1573    bar                      bos_common:    26.
           2    bf                       bosequ:         9.
       12217    bosmul                   bos_tv:        36.
       12214    bosphy                   bos_tv:        33.
        2012    bos_dvt                  bos_common:    53.
         140    buf                      taped:         68,   77,   83,  141.
        2020    bufl                     taped:         22,   67,   77,   93,  141.
       12261    bzel                     bos_tv:        70.
       12312    check_cpu_type           bos_tv:        95.
       12311    check_special_status     bos_tv:        94.
       12274    check_status             bos_tv:        81.
       12310    check_status_no_stat     bos_tv:        93.
        2032    cmdlst                   bos_common:    68.
           6    com                      bosequ:        14.
        3000    conf                     bos_common:    85,   86.
          20    confl                    bos_common:    87.
       12272    connect_iom              bos_tv:        79.
        2003    corearea                 bos_common:    47.
        1610    coreblocks               bos_common:    30.
         700    cuhist                   bos_common:    15.
        2027    curtcmd                  bos_common:    66.
       12270    cvclock                  bos_tv:        77.
       12210    cvinit                   bos_tv:        29.
       12227    cvnamla                  bos_tv:        44.
        2024    d355_state               bos_common:    63.
       12060    darg                     bos_tv:        15,   16.
        1570    dbr                      bos_common:    24.
        2000    dir                      bos_common:    43,   45,   46,   47,   49,   50,   51,   52,   53,   54,   55,   56,
                                                        57,   58,   59,   60,   61,   62,   63,   64,   65,   66,   67,   68,   76.
         600    dirlen                   bos_common:    70,   76.
        2014    diskchanno               bos_common:    55.
       12236    disk_brief               bos_tv:        51.
           0    ds                       bosequ:         7.
       12100    earg                     bos_tv:        16,   17.
        7000    econf                    bos_common:    86,   90.
        1100    eishist                  bos_common:    16.
         123    eof                      taped:        105,  123.
       12243    erbuf                    bos_tv:        56.
       12242    ercv                     bos_tv:        55.
       12241    erpt                     bos_tv:        54.
        1576    faultreg                 bos_common:    28.
        2023    fdump_state              bos_common:    62.
           5    fgb                      bosequ:        13.
       12305    find_disk                bos_tv:        90.
       12307    find_part                bos_tv:        92.
       12306    find_root                bos_tv:        91.
        2000    firmware_bit             bosequ:        20.
       12120    fltscu                   bos_tv:        17.
       12253    geas                     bos_tv:        64.
       12254    geastab                  bos_tv:        65.
       12264    getconf                  bos_tv:        73.
       12265    getmore                  bos_tv:        74.
       12273    getmpc                   bos_tv:        80.
       12266    getperiph                bos_tv:        75.
       12313    getportinfo              bos_tv:        96.
       12250    getprt                   bos_tv:        61.
       12207    getsec                   bos_tv:        28.
       12275    get_special_interrupt    bos_tv:        82.
       12276    get_status_interrupt     bos_tv:        83.
        6004    headform                 taped:         64,
                                         pt_equ:        12.
       12304    hexwd                    bos_tv:        89.
       12300    initint                  bos_tv:        85.
        6010    initprint                pt_equ:        15.
       12271    init_io                  taped:         33,
                                         bos_tv:        78.
        2021    inputsw                  bos_common:    60.
       12302    intno                    bos_tv:        87.
        1572    intrpts                  bos_common:    25.
       12303    intrpts1                 bos_tv:        88.
        2011    iom_mbbase               bos_common:    52.
        2010    iom_mxbase               bos_common:    51.
       12237    itaper                   taped:         37,
                                         bos_tv:        52.
       12240    itapew                   bos_tv:        53.
          60    l1                       taped:         83,   94.
       12206    ldcom                    taped:         42,
                                         bos_tv:        27.
       12001    line                     taped:         89,  126,
                                         bos_tv:        13,   14.
       12257    ljust                    bos_tv:        68.
       12220    lookup_devmodel          bos_tv:        37.
          42    loop                     taped:         66,   96,  128.
        1620    lowport_cfg              bos_common:    34.
        1530    low_order_port           bos_common:    20.
        2716    macroargs                bos_common:    78.
        2600    macrobuf                 bos_common:    76,   77,   85.
        2700    macroline                bos_common:    77,   78.
        2022    macroloc                 bos_common:    61.
       12205    makefil                  bos_tv:        26.
       12221    makesdw                  bos_tv:        38.
        1550    mcm                      bos_common:    23.
        1532    mctime                   bos_common:    21.
           7    mem                      taped:         25,   26,   56,   59,  134,
                                         bosequ:        15.
        1574    modereg                  bos_common:    27.
       12216    mulbos                   bos_tv:        35.
       12202    nextline                 bos_tv:        23.
         135    nheading                 taped:         46,  137,  138.
           3    nheading_lth             taped:         45,  138.
       12203    nlraw                    bos_tv:        24.
       12252    octwd                    taped:         86,
                                         bos_tv:        63.
         500    ouhist                   bos_common:    14.
       12000    pagectl                  bos_tv:        12,   13.
        2240    pbuf                     taped:         84,   91,  144.
           3    pgm                      bosequ:        10.
       12215    phyadd                   bos_tv:        34.
       12213    phybos                   bos_tv:        32.
        6005    print                    taped:         73,  119,  124,  127,
                                         pt_equ:        13.
        6000    printon                  taped:         62,
                                         pt_equ:         8.
        6011    print_edited             pt_equ:        16.
        1500    prs                      bos_common:    18.
        6014    ptbfirst                 taped:         81,
                                         pt_equ:        17.
        6006    ptblock                  taped:         90,
                                         pt_equ:        14.
        6016    pthdr                    taped:         47,   52,   53,   57,
                                         pt_equ:        19.
        1600    ptrlen                   bos_common:    29.
        6015    ptsegno                  pt_equ:        18.
        6000    pt_org                   taped:         41,
                                         pt_equ:         6,    8,    9,   10,   11,   12,   13,   14,   15,   16,   17,   18,   19.
       12251    punch                    bos_tv:        62.
        2020    quietsw                  bos_common:    59.
       12267    rdclock                  taped:         51,
                                         bos_tv:        76.
         117    rder                     taped:        111,  118.
       12211    rdev                     bos_tv:        30.
        2016    rdrchanno                bos_common:    57.
       12234    rdsec                    bos_tv:        49.
       12246    readcd                   bos_tv:        59.
       12247    readtty                  bos_tv:        60.
        2030    readysw                  bos_common:    67.
       12232    rec_per_dev_list         bos_tv:        47.
        1520    regs                     bos_common:    19.
          52    reread                   taped:         76,  102,  103,  106,  115,  116.
         110    retry                    taped:        101,  104,  110.
       12260    rjust                    bos_tv:        69.
        4000    runcom_bit               bosequ:        19.
       12200    scan                     bos_tv:        21.
        1540    scu                      bos_common:    22.
       12204    search                   bos_tv:        25.
       12230    sect_per_cyl_list        bos_tv:        45.
       12231    sect_per_dev_list        bos_tv:        46.
        7000    seg6length               bos_common:    90.
        2004    setuparea                bos_common:    49.
        2025    skipsw                   bos_common:    64.
        6003    space                    taped:         72,  118,  123,
                                         pt_equ:        11.
        2000    storlen                  bos_common:    36.
       12262    stripa                   bos_tv:        71.
       12263    stripg                   bos_tv:        72.
        2015    tapechanno               bos_common:    56.
        6001    tapeon                   pt_equ:         9.
           1    tmp                      bosequ:         8.
        2241    tpch                     taped:         31,   38,   78,  114,  145.
          75    tper                     taped:         79,   98.
        2017    ttychanno                bos_common:    58.
       12245    ttyinit                  taped:         34,
                                         bos_tv:        58.
        2026    ttypmtsw                 bos_common:    65.
         131    ttyrequest               taped:         35,  130.
       12200    tv_org                   bos_tv:        19,   21,   22,   23,   24,   25,   26,   27,   28,   29,   30,   31,
                                                        32,   33,   34,   35,   36,   37,   38,   39,   40,   41,   42,   43,
                                                        44,   45,   46,   47,   48,   49,   50,   51,   52,   53,   54,   55,
                                                        56,   57,   58,   59,   60,   61,   62,   63,   64,   65,   66,   67,
                                                        68,   69,   70,   71,   72,   73,   74,   75,   76,   77,   78,   79,
                                                        80,   81,   82,   83,   84,   85,   86,   87,   88,   89,   90,   91,
                                                        92,   93,   94,   95,   96.
       12244    type                     bos_tv:        57.
        2013    unitgroup                bos_common:    54.
        2002    useable                  bos_common:    46.
        2001    used                     bos_common:    45.
        2005    utilarea                 bos_common:    50.
       12000    utilorg                  bosequ:        22,
                                         bos_tv:        12,   19.
       12301    wantflt                  bos_tv:        86.
       12212    wdev                     bos_tv:        31.
        6002    wteof                    taped:        131,
                                         pt_equ:        10.
       12235    wtsec                    bos_tv:        50.
         132    x2                       taped:         24,   43,   55,  132.
       12277    xio_wait                 taped:         76,  112,
                                         bos_tv:        84.
           4    xs1                      bosequ:        11.
           5    xs2                      bosequ:        12.


NO FATAL ERRORS


                                          -----------------------------------------------------------


Historical Background

This edition of the Multics software materials and documentation is provided and donated
to Massachusetts Institute of Technology by Group BULL including BULL HN Information Systems Inc.
as a contribution to computer science knowledge.
This donation is made also to give evidence of the common contributions of Massachusetts Institute of Technology,
Bell Laboratories, General Electric, Honeywell Information Systems Inc., Honeywell BULL Inc., Groupe BULL
and BULL HN Information Systems Inc. to the development of this operating system.
Multics development was initiated by Massachusetts Institute of Technology Project MAC (1963-1970),
renamed the MIT Laboratory for Computer Science and Artificial Intelligence in the mid 1970s, under the leadership
of Professor Fernando Jose Corbato. Users consider that Multics provided the best software architecture
for managing computer hardware properly and for executing programs. Many subsequent operating systems
incorporated Multics principles.
Multics was distributed in 1975 to 2000 by Group Bull in Europe , and in the U.S. by Bull HN Information Systems Inc.,
as successor in interest by change in name only to Honeywell Bull Inc. and Honeywell Information Systems Inc. .

                                          -----------------------------------------------------------

Permission to use, copy, modify, and distribute these programs and their documentation for any purpose and without
fee is hereby granted,provided that the below copyright notice and historical background appear in all copies
and that both the copyright notice and historical background and this permission notice appear in supporting
documentation, and that the names of MIT, HIS, BULL or BULL HN not be used in advertising or publicity pertaining
to distribution of the programs without specific prior written permission.
    Copyright 1972 by Massachusetts Institute of Technology and Honeywell Information Systems Inc.
    Copyright 2006 by BULL HN Information Systems Inc.
    Copyright 2006 by Bull SAS
    All Rights Reserved
