ASSEMBLY LISTING OF SEGMENT >special_ldd>online>comp-dir>ascii.comp_dsm.alm
ASSEMBLED ON:	08/01/81  1356.8 mst Sat
OPTIONS USED:	list
ASSEMBLED BY:	ALM Version  6.4  April 1981
ASSEMBLER CREATED:	07/17/81  1819.2 mst Fri

                                     1  	include	compdv
                                   1-1  	macro	econ
                              1    1-2  itp	bp,e&U-*
                              2    1-3  its	-1,-1
                              3    1-4  use	s.exec
                              4    1-5  e&U:getlp
                              5    1-6  tra	&1
                              6    1-7  use	s.table
                              7    1-8  	&end
                                   1-9
                                  1-10  	macro	dvid.version
                              1   1-11  	maclist	object save
                              2   1-12  	vfd	36/&1
                              3   1-13  	maclist	restore
                              4   1-14  	&end
                                  1-15
                                  1-16  	macro	dvid.devname
                              1   1-17  	maclist	off save
                              2   1-18  	aci	|&1|,&2
                              3   1-19  	maclist	restore
                              4   1-20  	&end
                                  1-21
                                  1-22  	macro	dvid.dvt_r
                              1   1-23  	maclist	object save
                              2   1-24  	zero	&1
                              3   1-25  	maclist	restore
                              4   1-26  	&end
                                  1-27
                                  1-28  	macro	dvid_segdef
                              1   1-29  	   equ	&2.dvt,dvid.&1
                              2   1-30  	   segdef	&2.dvt
                              3   1-31  	&end
                                  1-32
                                  1-33  	macro	dvt.devclass
                              1   1-34  	maclist	off save
                              2   1-35  	aci	|&1|,&2
                              3   1-36  	maclist	restore
                              4   1-37  	&end
                                  1-38
                                  1-39  	macro	dvt.atd_r
                              1   1-40  	maclist	object save
                              2   1-41  	zero	&1
                              3   1-42  	maclist	restore
                              4   1-43  	&end
                                  1-44
                                  1-45  	macro	dvt.outproc
                              1   1-46  	maclist	object save
                              2   1-47  	econ	&1
                              3   1-48  	maclist	restore
                              4   1-49  	&end
                                  1-50
                                  1-51  	macro	dvt.footproc
                              1   1-52  	maclist	object save
                              2   1-53  	econ	&1
                              3   1-54  	maclist	restore
                              4   1-55  	&end
                                  1-56
                                  1-57  	macro	dvt.artproc
                              1   1-58  	maclist	object save
                              2   1-59  	econ	&1
                              3   1-60  	maclist	restore
                              4   1-61  	&end
                                  1-62
                                  1-63  	macro	dvt.inl_min
                              1   1-64  	maclist	object save
                              2   1-65  	vfd	36/&1
                              3   1-66  	maclist	restore
                              4   1-67  	&end
                                  1-68
                                  1-69  	macro	dvt.min_lead
                              1   1-70  	maclist	object save
                              2   1-71  	vfd	36/&1
                              3   1-72  	maclist	restore
                              4   1-73  	&end
                                  1-74
                                  1-75  	macro	dvt.vmt_min
                              1   1-76  	maclist	object save
                              2   1-77  	vfd	36/&1
                              3   1-78  	maclist	restore
                              4   1-79  	&end
                                  1-80
                                  1-81  	macro	dvt.vmb_min
                              1   1-82  	maclist	object save
                              2   1-83  	vfd	36/&1
                              3   1-84  	maclist	restore
                              4   1-85  	&end
                                  1-86
                                  1-87  	macro	dvt.def_vmt
                              1   1-88  	maclist	object save
                              2   1-89  	vfd	36/&1
                              3   1-90  	maclist	restore
                              4   1-91  	&end
                                  1-92
                                  1-93  	macro	dvt.def_vmh
                              1   1-94  	maclist	object save
                              2   1-95  	vfd	36/&1
                              3   1-96  	maclist	restore
                              4   1-97  	&end
                                  1-98
                                  1-99  	macro	dvt.def_vmf
                              1  1-100  	maclist	object save
                              2  1-101  	vfd	36/&1
                              3  1-102  	maclist	restore
                              4  1-103  	&end
                                 1-104
                                 1-105  	macro	dvt.def_vmb
                              1  1-106  	maclist	object save
                              2  1-107  	vfd	36/&1
                              3  1-108  	maclist	restore
                              4  1-109  	&end
                                 1-110
                                 1-111  	macro	dvt.pdw_max
                              1  1-112  	maclist	object save
                              2  1-113  	vfd	36/&1
                              3  1-114  	maclist	restore
                              4  1-115  	&end
                                 1-116
                                 1-117  	macro	dvt.pdl_max
                              1  1-118  	maclist	object save
                              2  1-119  	vfd	36/&1
                              3  1-120  	maclist	restore
                              4  1-121  	&end
                                 1-122
                                 1-123  	macro	dvt.upshift
                              1  1-124  	maclist	object save
                              2  1-125  	vfd	36/&1
                              3  1-126  	maclist	restore
                              4  1-127  	&end
                                 1-128
                                 1-129  	macro	dvt.init_ps
                              1  1-130  	maclist	object save
                              2  1-131  	vfd	36/&1
                              3  1-132  	maclist	restore
                              4  1-133  	&end
                                 1-134
                                 1-135  	macro	dvt.lettersp
                              1  1-136  	maclist	object save
                              2  1-137  	vfd	36/&1
                              3  1-138  	maclist	restore
                              4  1-139  	&end
                                 1-140
                                 1-141  	macro	dvt.max_pages
                              1  1-142  	maclist	object save
                              2  1-143  	vfd	36/&1
                              3  1-144  	maclist	restore
                              4  1-145  	&end
                                 1-146
                                 1-147  	macro	dvt.max_files
                              1  1-148  	maclist	object save
                              2  1-149  	vfd	36/&1
                              3  1-150  	maclist	restore
                              4  1-151  	&end
                                 1-152
                                 1-153  	macro	dvt.init_fam
                              1  1-154  	maclist	object save
                              2  1-155  	vfd	36/&1
                              3  1-156  	maclist	restore
                              4  1-157  	&end
                                 1-158
                                 1-159  	macro	dvt.init_mem
                              1  1-160  	maclist	object save
                              2  1-161  	vfd	36/&1
                              3  1-162  	maclist	restore
                              4  1-163  	&end
                                 1-164
                                 1-165  	macro	dvt.foot_fam
                              1  1-166  	maclist	object save
                              2  1-167  	vfd	36/&1
                              3  1-168  	maclist	restore
                              4  1-169  	&end
                                 1-170
                                 1-171  	macro	dvt.foot_mem
                              1  1-172  	maclist	object save
                              2  1-173  	vfd	36/&1
                              3  1-174  	maclist	restore
                              4  1-175  	&end
                                 1-176
                                 1-177  	macro	dvt.init_family
                              1  1-178  	maclist	off save
                              2  1-179  	aci	|&1|,&2
                              3  1-180  	maclist	restore
                              4  1-181  	&end
                                 1-182
                                 1-183  	macro	dvt.init_member
                              1  1-184  	maclist	off save
                              2  1-185  	aci	|&1|,&2
                              3  1-186  	maclist	restore
                              4  1-187  	&end
                                 1-188
                                 1-189  	macro	dvt.dvc_r
                              1  1-190  	maclist	object save
                              2  1-191  	zero	&1
                              3  1-192  	maclist	restore
                              4  1-193  	&end
                                 1-194
                                 1-195  	macro	dvt.med_sel_tab_r
                              1  1-196  	maclist	object save
                              2  1-197  	zero	&1
                              3  1-198  	maclist	restore
                              4  1-199  	&end
                                 1-200
                                 1-201  	macro	dvt.comment_r
                              1  1-202  	maclist	object save
                              2  1-203  	zero	&1
                              3  1-204  	maclist	restore
                              4  1-205  	&end
                                 1-206
                                 1-207  	macro	dvt.cleanup_r
                              1  1-208  	maclist	object save
                              2  1-209  	zero	&1
                              3  1-210  	maclist	restore
                              4  1-211  	&end
                                 1-212
                                 1-213  	macro	dvt.foot_family
                              1  1-214  	maclist	off save
                              2  1-215  	aci	|&1|,&2
                              3  1-216  	maclist	restore
                              4  1-217  	&end
                                 1-218
                                 1-219  	macro	dvt.foot_member
                              1  1-220  	maclist	off save
                              2  1-221  	aci	|&1|,&2
                              3  1-222  	maclist	restore
                              4  1-223  	&end
                                 1-224
                                 1-225  	macro	dvt.sws
                              1  1-226  	maclist	object save
                              2  1-227  	oct	&1
                              3  1-228  	maclist	restore
                              4  1-229  	&end
                                 1-230
                                 1-231  	macro	dvt.open_mode
                              1  1-232  	maclist	object save
                              2  1-233  	vfd	36/&1
                              3  1-234  	maclist	restore
                              4  1-235  	&end
                                 1-236
                                 1-237  	macro	dvt.recleng
                              1  1-238  	maclist	object save
                              2  1-239  	vfd	36/&1
                              3  1-240  	maclist	restore
                              4  1-241  	&end
                                 1-242
                                 1-243  	macro	dvt.family_ct
                              1  1-244  	maclist	object save
                              2  1-245  	vfd	36/&1
                              3  1-246  	maclist	restore
                              4  1-247  	&end
                                 1-248
                                 1-249  	macro	dvt..member_r
                              1  1-250  	maclist	object save
                              2  1-251  	zero	&1
                              3  1-252  	maclist	restore
                              4  1-253  	&end
                                 1-254
                                 1-255  	macro	dvt..name
                              1  1-256  	maclist	off save
                              2  1-257  	aci	|&1|,&2
                              3  1-258  	maclist	restore
                              4  1-259  	&end
                                 1-260
                                 1-261  	macro	member.count
                              1  1-262  	maclist	object save
                              2  1-263  	vfd	36/&1
                              3  1-264  	maclist	restore
                              4  1-265  	&end
                                 1-266
                                 1-267  	macro	member..font_r
                              1  1-268  	maclist	object save
                              2  1-269  	zero	&1
                              3  1-270  	maclist	restore
                              4  1-271  	&end
                                 1-272
                                 1-273  	macro	member..size_r
                              1  1-274  	maclist	object save
                              2  1-275  	zero	&1
                              3  1-276  	maclist	restore
                              4  1-277  	&end
                                 1-278
                                 1-279  	macro	member..Scale
                              1  1-280  	maclist	object save
                              2  1-281  	dec	&1,&2
                              3  1-282  	maclist	restore
                              4  1-283  	&end
                                 1-284
                                 1-285  	macro	member..name
                              1  1-286  	maclist	off save
                              2  1-287  	aci	|&1|,&2
                              3  1-288  	maclist	restore
                              4  1-289  	&end
                                 1-290
                                 1-291  	macro	med_sel_tab.count
                              1  1-292  	maclist	object save
                              2  1-293  	vfd	36/&1
                              3  1-294  	maclist	restore
                              4  1-295  	&end
                                 1-296
                                 1-297  	macro	med_sel_tab..ref_r
                              1  1-298  	maclist	object save
                              2  1-299  	zero	&1
                              3  1-300  	maclist	restore
                              4  1-301  	&end
                                 1-302
                                 1-303  	macro	family.member_ct
                              1  1-304  	maclist	object save
                              2  1-305  	vfd	36/&1
                              3  1-306  	maclist	restore
                              4  1-307  	&end
                                 1-308
                                 1-309  	macro	font.units_r
                              1  1-310  	maclist	object save
                              2  1-311  	zero	&1
                              3  1-312  	maclist	restore
                              4  1-313  	&end
                                 1-314
                                 1-315  	macro	font.oput_r
                              1  1-316  	maclist	object save
                              2  1-317  	zero	&1
                              3  1-318  	maclist	restore
                              4  1-319  	&end
                                 1-320
                                 1-321  	macro	font.rel_units
                              1  1-322  	maclist	object save
                              2  1-323  	vfd	36/&1
                              3  1-324  	maclist	restore
                              4  1-325  	&end
                                 1-326
                                 1-327  	macro	font.footsep
                              1  1-328  	maclist	object save
                              2  1-329  	aci	&=&1,|&[/&1/&;|&1|&],1
                              3  1-330  	maclist	restore
                              4  1-331  	&end
                                 1-332
                                 1-333  	macro	font.min_spb
                              1  1-334  	maclist	object save
                              2  1-335  	vfd	36/&1
                              3  1-336  	maclist	restore
                              4  1-337  	&end
                                 1-338
                                 1-339  	macro	font.avg_spb
                              1  1-340  	maclist	object save
                              2  1-341  	vfd	36/&1
                              3  1-342  	maclist	restore
                              4  1-343  	&end
                                 1-344
                                 1-345  	macro	font.max_spb
                              1  1-346  	maclist	object save
                              2  1-347  	vfd	36/&1
                              3  1-348  	maclist	restore
                              4  1-349  	&end
                                 1-350
                                 1-351  	macro	units
                              1  1-352  	maclist	&=&2,0&[off&;object&] save
                              2  1-353  	dup	&1
                              3  1-354  	vfd	36/&2
                              4  1-355  	dupend
                              5  1-356  	maclist	restore
                              6  1-357  	&end
                                 1-358
                                 1-359  	macro	oput.data_ct
                              1  1-360  	maclist	object save
                              2  1-361  	vfd	36/&1
                              3  1-362  	maclist	restore
                              4  1-363  	&end
                                 1-364
                                 1-365  	macro	ch
                              1  1-366  	maclist object save
                              2  1-367  	zero	&1,&2
                              3  1-368  	maclist restore
                              4  1-369  	&end
                                 1-370
                                 1-371  	macro	no_ch
                              1  1-372  	maclist off save
                              2  1-373  	dup	&1
                              3  1-374  	dec	0
                              4  1-375  	dupend
                              5  1-376  	maclist restore
                              6  1-377  	&end
                                 1-378
                                 1-379  	macro	sizel.val_ct
                              1  1-380  	maclist	object save
                              2  1-381  	vfd	36/&1
                              3  1-382  	maclist	restore
                              4  1-383  	&end
                                 1-384
                                 1-385  	macro	sizel..val
                              1  1-386  	maclist	object save
                              2  1-387  	vfd	36/&1
                              3  1-388  	maclist	restore
                              4  1-389  	&end
                                 1-390  " BEGIN a compose device table definition segment
                                 1-391  	use	s.table
    000000  aa  052 144 166 164  1-392  	aci	|*dvt|		"marker
                        000000   1-393  	equ	s000000,0
                        000000   1-394  	equ	art000000,0
                        000000   1-395  	equ	dvc000000,0
                        000002   1-396  	equ	.str_out.,2
                        000005   1-397  	equ	.seq_out.,5
                                     2
    000001                           3  dvid.1:
                                     4  	dvid.version	1
    000001  aa   000000 000001
                                     5  	dvid.devname	ascii,32
                                     6  	dvid.dvt_r	dvt.1
    000012  0a   000076 000000
                                     7
                                     8  	dvid_segdef	1,ascii
                        000001          	   equ	ascii.dvt,dvid.1
                        000001          	   segdef	ascii.dvt
                                     9
    000013                          10  dvid.2:
                                    11  	dvid.version	1
    000013  aa   000000 000001
                                    12  	dvid.devname	ascii,32
                                    13  	dvid.dvt_r	dvt.3
    000024  0a   000660 000000
                                    14
                                    15  	dvid_segdef	2,ascii_draft
                        000013          	   equ	ascii_draft.dvt,dvid.2
                        000013          	   segdef	ascii_draft.dvt
                                    16
    000025                          17  dvid.3:
                                    18  	dvid.version	1
    000025  aa   000000 000001
                                    19  	dvid.devname	ascii,32
                                    20  	dvid.dvt_r	dvt.5
    000036  0a   001454 000000
                                    21
                                    22  	dvid_segdef	3,printer
                        000025          	   equ	printer.dvt,dvid.3
                        000025          	   segdef	printer.dvt
                                    23
    000037                          24  dvid.4:
                                    25  	dvid.version	1
    000037  aa   000000 000001
                                    26  	dvid.devname	ascii,32
                                    27  	dvid.dvt_r	dvt.7
    000050  0a   002236 000000
                                    28
                                    29  	dvid_segdef	4,printer_draft
                        000037          	   equ	printer_draft.dvt,dvid.4
                        000037          	   segdef	printer_draft.dvt
                                    30
    000051                          31  dvid.5:
                                    32  	dvid.version	1
    000051  aa   000000 000001
                                    33  	dvid.devname	ascii,32
                                    34  	dvid.dvt_r	dvt.9
    000062  0a   003032 000000
                                    35
                                    36  	dvid_segdef	5,led120
                        000051          	   equ	led120.dvt,dvid.5
                        000051          	   segdef	led120.dvt
                                    37
                                    38  	dvid_segdef	5,LED120
                        000051          	   equ	LED120.dvt,dvid.5
                        000051          	   segdef	LED120.dvt
                                    39
    000063                          40  dvid.6:
                                    41  	dvid.version	1
    000063  aa   000000 000001
                                    42  	dvid.devname	ascii,32
                                    43  	dvid.dvt_r	dvt.11
    000074  0a   003614 000000
                                    44
                                    45  	dvid_segdef	6,ascii_sqo
                        000063          	   equ	ascii_sqo.dvt,dvid.6
                        000063          	   segdef	ascii_sqo.dvt
    000075  aa   000000 0110 03     46  	even
    000076                          47  dvt.1:
                                    48  	dvt.devclass	typewriter,32
                                    49  	dvt.outproc	ascii_writer_$ascii_writer_
    000106  aa   200000 000041
    000107  aa   021330 000000
    000110  aa   077777 000043
    000111  aa   777777 000000
    021436  aa  7 00046 2721 20
    021437  4a  4 00010 7101 20
                                    50  	dvt.footproc	ascii_writer_$footproc
    000112  aa   200000 000041
    000113  aa   021326 000000
    000114  aa   077777 000043
    000115  aa   777777 000000
    021440  aa  7 00046 2721 20
    021441  4a  4 00012 7101 20
                                    51  	dvt.artproc	ascii_writer_$artproc
    000116  aa   200000 000041
    000117  aa   021324 000000
    000120  aa   077777 000043
    000121  aa   777777 000000
    021442  aa  7 00046 2721 20
    021443  4a  4 00014 7101 20
                                    52  	dvt.inl_min	7200
    000122  aa   000000 016040
                                    53  	dvt.min_lead	12000
    000123  aa   000000 027340
                                    54  	dvt.vmt_min	0
    000124  aa   000000 000000
                                    55  	dvt.vmb_min	0
    000125  aa   000000 000000
                                    56  	dvt.def_vmt	48000
    000126  aa   000000 135600
                                    57  	dvt.def_vmh	24000
    000127  aa   000000 056700
                                    58  	dvt.def_vmf	24000
    000130  aa   000000 056700
                                    59  	dvt.def_vmb	48000
    000131  aa   000000 135600
                                    60  	dvt.pdw_max	950400
    000132  aa   000003 500200
                                    61  	dvt.pdl_max	-1
    000133  aa   777777 777777
                                    62  	dvt.upshift	0
    000134  aa   000000 000000
                                    63  	dvt.init_ps	7200
    000135  aa   000000 016040
                                    64  	dvt.lettersp	0
    000136  aa   000000 000000
                                    65  	dvt.max_pages	-1
    000137  aa   777777 777777
                                    66  	dvt.max_files	-1
    000140  aa   777777 777777
                                    67  	dvt.init_fam	5
    000141  aa   000000 000005
                                    68  	dvt.init_mem	12
    000142  aa   000000 000014
                                    69  	dvt.foot_fam	5
    000143  aa   000000 000005
                                    70  	dvt.foot_mem	12
    000144  aa   000000 000014
                                    71  	dvt.init_family	pica10,32
                                    72  	dvt.init_member	/m,32
                                    73  	dvt.atd_r		s002247
    000165  0a   021431 000000
                                    74  	dvt.dvc_r		dvc000000
    000166  aa   000000 000000
                                    75  	dvt.med_sel_tab_r	med_sel.1
    000167  0a   000656 000000
                                    76  	dvt.comment_r	s002237
    000170  0a   021421 000000
                                    77  	dvt.cleanup_r	s000000
    000171  aa   000000 000000
                                    78  	dvt.foot_family	pica10,32
                                    79  	dvt.foot_member	/m,32
                                    80  	dvt.sws		400000000000
    000212  aa   400000 000000
                                    81  	dvt.open_mode	.str_out.
    000213  aa   000000 000002
                                    82  	dvt.recleng	-1
    000214  aa   777777 777777
                                    83  	dvt.family_ct	32
    000215  aa   000000 000040
                                    84  	dvt..member_r	mem.1
    000216  0a   004376 000000
                                    85  	dvt..name		centuryschoolbook,32
                                    86  	dvt..member_r	mem.1
    000227  0a   004376 000000
                                    87  	dvt..name		cs,32
                                    88  	dvt..member_r	mem.1
    000240  0a   004376 000000
                                    89  	dvt..name		helvetica,32
                                    90  	dvt..member_r	mem.1
    000251  0a   004376 000000
                                    91  	dvt..name		h,32
                                    92  	dvt..member_r	mem.2
    000262  0a   004663 000000
                                    93  	dvt..name		pica10,32
                                    94  	dvt..member_r	mem.3
    000273  0a   005200 000000
                                    95  	dvt..name		ascii,32
                                    96  	dvt..member_r	mem.3
    000304  0a   005200 000000
                                    97  	dvt..name		l4font,32
                                    98  	dvt..member_r	mem.3
    000315  0a   005200 000000
                                    99  	dvt..name		l3exact,32
                                   100  	dvt..member_r	mem.3
    000326  0a   005200 000000
                                   101  	dvt..name		l4exact,32
                                   102  	dvt..member_r	mem.3
    000337  0a   005200 000000
                                   103  	dvt..name		text,32
                                   104  	dvt..member_r	mem.3
    000350  0a   005200 000000
                                   105  	dvt..name		footnote,32
                                   106  	dvt..member_r	mem.3
    000361  0a   005200 000000
                                   107  	dvt..name		APL,32
                                   108  	dvt..member_r	mem.3
    000372  0a   005200 000000
                                   109  	dvt..name		CSR,32
                                   110  	dvt..member_r	mem.3
    000403  0a   005200 000000
                                   111  	dvt..name		HR,32
                                   112  	dvt..member_r	mem.4
    000414  0a   005215 000000
                                   113  	dvt..name		l0font,32
                                   114  	dvt..member_r	mem.4
    000425  0a   005215 000000
                                   115  	dvt..name		l3font,32
                                   116  	dvt..member_r	mem.4
    000436  0a   005215 000000
                                   117  	dvt..name		ASCII,32
                                   118  	dvt..member_r	mem.4
    000447  0a   005215 000000
                                   119  	dvt..name		bold,32
                                   120  	dvt..member_r	mem.4
    000460  0a   005215 000000
                                   121  	dvt..name		CSBR,32
                                   122  	dvt..member_r	mem.4
    000471  0a   005215 000000
                                   123  	dvt..name		HBR,32
                                   124  	dvt..member_r	mem.4
    000502  0a   005215 000000
                                   125  	dvt..name		HBBl,32
                                   126  	dvt..member_r	mem.6
    000513  0a   005232 000000
                                   127  	dvt..name		italic,32
                                   128  	dvt..member_r	mem.6
    000524  0a   005232 000000
                                   129  	dvt..name		l2font,32
                                   130  	dvt..member_r	mem.6
    000535  0a   005232 000000
                                   131  	dvt..name		l1exact,32
                                   132  	dvt..member_r	mem.6
    000546  0a   005232 000000
                                   133  	dvt..name		l2exact,32
                                   134  	dvt..member_r	mem.6
    000557  0a   005232 000000
                                   135  	dvt..name		CSI,32
                                   136  	dvt..member_r	mem.6
    000570  0a   005232 000000
                                   137  	dvt..name		HmI,32
                                   138  	dvt..member_r	mem.6
    000601  0a   005232 000000
                                   139  	dvt..name		ascii_,32
                                   140  	dvt..member_r	mem.7
    000612  0a   005247 000000
                                   141  	dvt..name		l1font,32
                                   142  	dvt..member_r	mem.7
    000623  0a   005247 000000
                                   143  	dvt..name		ASCII_,32
                                   144  	dvt..member_r	mem.7
    000634  0a   005247 000000
                                   145  	dvt..name		CSBI,32
                                   146  	dvt..member_r	mem.7
    000645  0a   005247 000000
                                   147  	dvt..name		HBI,32
    000656                         148  med_sel.1:
                                   149  	med_sel_tab.count	1
    000656  aa   000000 000001
                                   150  	med_sel_tab..ref_r	s000002	1
    000657  0a   017500 000000
                                   151  	even
    000660                         152  dvt.3:
                                   153  	dvt.devclass	typewriter,32
                                   154  	dvt.outproc	ascii_writer_$ascii_writer_
    000670  aa   200000 000041
    000671  aa   020554 000000
    000672  aa   077777 000043
    000673  aa   777777 000000
    021444  aa  7 00046 2721 20
    021445  4a  4 00010 7101 20
                                   155  	dvt.footproc	ascii_writer_$footproc
    000674  aa   200000 000041
    000675  aa   020552 000000
    000676  aa   077777 000043
    000677  aa   777777 000000
    021446  aa  7 00046 2721 20
    021447  4a  4 00012 7101 20
                                   156  	dvt.artproc	ascii_writer_$artproc
    000700  aa   200000 000041
    000701  aa   020550 000000
    000702  aa   077777 000043
    000703  aa   777777 000000
    021450  aa  7 00046 2721 20
    021451  4a  4 00014 7101 20
                                   157  	dvt.inl_min	7200
    000704  aa   000000 016040
                                   158  	dvt.min_lead	12000
    000705  aa   000000 027340
                                   159  	dvt.vmt_min	0
    000706  aa   000000 000000
                                   160  	dvt.vmb_min	0
    000707  aa   000000 000000
                                   161  	dvt.def_vmt	48000
    000710  aa   000000 135600
                                   162  	dvt.def_vmh	24000
    000711  aa   000000 056700
                                   163  	dvt.def_vmf	24000
    000712  aa   000000 056700
                                   164  	dvt.def_vmb	48000
    000713  aa   000000 135600
                                   165  	dvt.pdw_max	950400
    000714  aa   000003 500200
                                   166  	dvt.pdl_max	-1
    000715  aa   777777 777777
                                   167  	dvt.upshift	0
    000716  aa   000000 000000
                                   168  	dvt.init_ps	7200
    000717  aa   000000 016040
                                   169  	dvt.lettersp	0
    000720  aa   000000 000000
                                   170  	dvt.max_pages	-1
    000721  aa   777777 777777
                                   171  	dvt.max_files	-1
    000722  aa   777777 777777
                                   172  	dvt.init_fam	2
    000723  aa   000000 000002
                                   173  	dvt.init_mem	10
    000724  aa   000000 000012
                                   174  	dvt.foot_fam	2
    000725  aa   000000 000002
                                   175  	dvt.foot_mem	10
    000726  aa   000000 000012
                                   176  	dvt.init_family	cs,32
                                   177  	dvt.init_member	/m,32
                                   178  	dvt.atd_r		s002247
    000747  0a   021431 000000
                                   179  	dvt.dvc_r		dvc000000
    000750  aa   000000 000000
                                   180  	dvt.med_sel_tab_r	med_sel.3
    000751  0a   001451 000000
                                   181  	dvt.comment_r	s002237
    000752  0a   021421 000000
                                   182  	dvt.cleanup_r	s000000
    000753  aa   000000 000000
                                   183  	dvt.foot_family	cs,32
                                   184  	dvt.foot_member	/m,32
                                   185  	dvt.sws		400000000000
    000774  aa   400000 000000
                                   186  	dvt.open_mode	.str_out.
    000775  aa   000000 000002
                                   187  	dvt.recleng	-1
    000776  aa   777777 777777
                                   188  	dvt.family_ct	33
    000777  aa   000000 000041
                                   189  	dvt..member_r	mem.1
    001000  0a   004376 000000
                                   190  	dvt..name		centuryschoolbook,32
                                   191  	dvt..member_r	mem.1
    001011  0a   004376 000000
                                   192  	dvt..name		cs,32
                                   193  	dvt..member_r	mem.1
    001022  0a   004376 000000
                                   194  	dvt..name		helvetica,32
                                   195  	dvt..member_r	mem.1
    001033  0a   004376 000000
                                   196  	dvt..name		h,32
                                   197  	dvt..member_r	mem.2
    001044  0a   004663 000000
                                   198  	dvt..name		pica,32
                                   199  	dvt..member_r	mem.3
    001055  0a   005200 000000
                                   200  	dvt..name		text,32
                                   201  	dvt..member_r	mem.3
    001066  0a   005200 000000
                                   202  	dvt..name		footnote,32
                                   203  	dvt..member_r	mem.3
    001077  0a   005200 000000
                                   204  	dvt..name		APL,32
                                   205  	dvt..member_r	mem.3
    001110  0a   005200 000000
                                   206  	dvt..name		CSR,32
                                   207  	dvt..member_r	mem.3
    001121  0a   005200 000000
                                   208  	dvt..name		HR,32
                                   209  	dvt..member_r	mem.3
    001132  0a   005200 000000
                                   210  	dvt..name		ascii,32
                                   211  	dvt..member_r	mem.4
    001143  0a   005215 000000
                                   212  	dvt..name		l0font,32
                                   213  	dvt..member_r	mem.4
    001154  0a   005215 000000
                                   214  	dvt..name		ASCII,32
                                   215  	dvt..member_r	mem.13
    001165  0a   005264 000000
                                   216  	dvt..name		bold,32
                                   217  	dvt..member_r	mem.13
    001176  0a   005264 000000
                                   218  	dvt..name		CSBR,32
                                   219  	dvt..member_r	mem.13
    001207  0a   005264 000000
                                   220  	dvt..name		HBR,32
                                   221  	dvt..member_r	mem.13
    001220  0a   005264 000000
                                   222  	dvt..name		HBBl,32
                                   223  	dvt..member_r	mem.13
    001231  0a   005264 000000
                                   224  	dvt..name		l4font,32
                                   225  	dvt..member_r	mem.13
    001242  0a   005264 000000
                                   226  	dvt..name		l3exact,32
                                   227  	dvt..member_r	mem.13
    001253  0a   005264 000000
                                   228  	dvt..name		l4exact,32
                                   229  	dvt..member_r	mem.6
    001264  0a   005232 000000
                                   230  	dvt..name		italic,32
                                   231  	dvt..member_r	mem.6
    001275  0a   005232 000000
                                   232  	dvt..name		l2font,32
                                   233  	dvt..member_r	mem.6
    001306  0a   005232 000000
                                   234  	dvt..name		l1exact,32
                                   235  	dvt..member_r	mem.6
    001317  0a   005232 000000
                                   236  	dvt..name		l2exact,32
                                   237  	dvt..member_r	mem.6
    001330  0a   005232 000000
                                   238  	dvt..name		CSI,32
                                   239  	dvt..member_r	mem.6
    001341  0a   005232 000000
                                   240  	dvt..name		HmI,32
                                   241  	dvt..member_r	mem.6
    001352  0a   005232 000000
                                   242  	dvt..name		ascii_,32
                                   243  	dvt..member_r	mem.7
    001363  0a   005247 000000
                                   244  	dvt..name		l1font,32
                                   245  	dvt..member_r	mem.7
    001374  0a   005247 000000
                                   246  	dvt..name		ASCII_,32
                                   247  	dvt..member_r	mem.16
    001405  0a   005301 000000
                                   248  	dvt..name		CSBI,32
                                   249  	dvt..member_r	mem.16
    001416  0a   005301 000000
                                   250  	dvt..name		HBI,32
                                   251  	dvt..member_r	mem.16
    001427  0a   005301 000000
                                   252  	dvt..name		l3font,32
                                   253  	dvt..member_r	mem.16
    001440  0a   005301 000000
                                   254  	dvt..name		l3exact,32
    001451                         255  med_sel.3:
                                   256  	med_sel_tab.count	1
    001451  aa   000000 000001
                                   257  	med_sel_tab..ref_r	s000002	1
    001452  0a   017500 000000
    001453  aa   000000 0110 03    258  	even
    001454                         259  dvt.5:
                                   260  	dvt.devclass	typewriter,32
                                   261  	dvt.outproc	ascii_writer_$ascii_writer_
    001464  aa   200000 000041
    001465  aa   017766 000000
    001466  aa   077777 000043
    001467  aa   777777 000000
    021452  aa  7 00046 2721 20
    021453  4a  4 00010 7101 20
                                   262  	dvt.footproc	ascii_writer_$footproc
    001470  aa   200000 000041
    001471  aa   017764 000000
    001472  aa   077777 000043
    001473  aa   777777 000000
    021454  aa  7 00046 2721 20
    021455  4a  4 00012 7101 20
                                   263  	dvt.artproc	ascii_writer_$artproc
    001474  aa   200000 000041
    001475  aa   017762 000000
    001476  aa   077777 000043
    001477  aa   777777 000000
    021456  aa  7 00046 2721 20
    021457  4a  4 00014 7101 20
                                   264  	dvt.inl_min	7200
    001500  aa   000000 016040
                                   265  	dvt.min_lead	12000
    001501  aa   000000 027340
                                   266  	dvt.vmt_min	36000
    001502  aa   000000 106240
                                   267  	dvt.vmb_min	36000
    001503  aa   000000 106240
                                   268  	dvt.def_vmt	48000
    001504  aa   000000 135600
                                   269  	dvt.def_vmh	24000
    001505  aa   000000 056700
                                   270  	dvt.def_vmf	24000
    001506  aa   000000 056700
                                   271  	dvt.def_vmb	48000
    001507  aa   000000 135600
                                   272  	dvt.pdw_max	979200
    001510  aa   000003 570400
                                   273  	dvt.pdl_max	-1
    001511  aa   777777 777777
                                   274  	dvt.upshift	0
    001512  aa   000000 000000
                                   275  	dvt.init_ps	7200
    001513  aa   000000 016040
                                   276  	dvt.lettersp	0
    001514  aa   000000 000000
                                   277  	dvt.max_pages	-1
    001515  aa   777777 777777
                                   278  	dvt.max_files	-1
    001516  aa   777777 777777
                                   279  	dvt.init_fam	2
    001517  aa   000000 000002
                                   280  	dvt.init_mem	10
    001520  aa   000000 000012
                                   281  	dvt.foot_fam	2
    001521  aa   000000 000002
                                   282  	dvt.foot_mem	10
    001522  aa   000000 000012
                                   283  	dvt.init_family	cs,32
                                   284  	dvt.init_member	/m,32
                                   285  	dvt.atd_r		s002247
    001543  0a   021431 000000
                                   286  	dvt.dvc_r		dvc000000
    001544  aa   000000 000000
                                   287  	dvt.med_sel_tab_r	med_sel.5
    001545  0a   002234 000000
                                   288  	dvt.comment_r	s002237
    001546  0a   021421 000000
                                   289  	dvt.cleanup_r	s000000
    001547  aa   000000 000000
                                   290  	dvt.foot_family	cs,32
                                   291  	dvt.foot_member	/m,32
                                   292  	dvt.sws		400000000030
    001570  aa   400000 000030
                                   293  	dvt.open_mode	.str_out.
    001571  aa   000000 000002
                                   294  	dvt.recleng	-1
    001572  aa   777777 777777
                                   295  	dvt.family_ct	32
    001573  aa   000000 000040
                                   296  	dvt..member_r	mem.1
    001574  0a   004376 000000
                                   297  	dvt..name		centuryschoolbook,32
                                   298  	dvt..member_r	mem.1
    001605  0a   004376 000000
                                   299  	dvt..name		cs,32
                                   300  	dvt..member_r	mem.1
    001616  0a   004376 000000
                                   301  	dvt..name		helvetica,32
                                   302  	dvt..member_r	mem.1
    001627  0a   004376 000000
                                   303  	dvt..name		h,32
                                   304  	dvt..member_r	mem.2
    001640  0a   004663 000000
                                   305  	dvt..name		pica10,32
                                   306  	dvt..member_r	mem.3
    001651  0a   005200 000000
                                   307  	dvt..name		ascii,32
                                   308  	dvt..member_r	mem.3
    001662  0a   005200 000000
                                   309  	dvt..name		l4font,32
                                   310  	dvt..member_r	mem.3
    001673  0a   005200 000000
                                   311  	dvt..name		l3exact,32
                                   312  	dvt..member_r	mem.3
    001704  0a   005200 000000
                                   313  	dvt..name		l4exact,32
                                   314  	dvt..member_r	mem.3
    001715  0a   005200 000000
                                   315  	dvt..name		text,32
                                   316  	dvt..member_r	mem.3
    001726  0a   005200 000000
                                   317  	dvt..name		footnote,32
                                   318  	dvt..member_r	mem.3
    001737  0a   005200 000000
                                   319  	dvt..name		APL,32
                                   320  	dvt..member_r	mem.3
    001750  0a   005200 000000
                                   321  	dvt..name		CSR,32
                                   322  	dvt..member_r	mem.3
    001761  0a   005200 000000
                                   323  	dvt..name		HR,32
                                   324  	dvt..member_r	mem.4
    001772  0a   005215 000000
                                   325  	dvt..name		l0font,32
                                   326  	dvt..member_r	mem.4
    002003  0a   005215 000000
                                   327  	dvt..name		l3font,32
                                   328  	dvt..member_r	mem.4
    002014  0a   005215 000000
                                   329  	dvt..name		ASCII,32
                                   330  	dvt..member_r	mem.4
    002025  0a   005215 000000
                                   331  	dvt..name		bold,32
                                   332  	dvt..member_r	mem.4
    002036  0a   005215 000000
                                   333  	dvt..name		CSBR,32
                                   334  	dvt..member_r	mem.4
    002047  0a   005215 000000
                                   335  	dvt..name		HBR,32
                                   336  	dvt..member_r	mem.4
    002060  0a   005215 000000
                                   337  	dvt..name		HBBl,32
                                   338  	dvt..member_r	mem.6
    002071  0a   005232 000000
                                   339  	dvt..name		italic,32
                                   340  	dvt..member_r	mem.6
    002102  0a   005232 000000
                                   341  	dvt..name		l2font,32
                                   342  	dvt..member_r	mem.6
    002113  0a   005232 000000
                                   343  	dvt..name		l1exact,32
                                   344  	dvt..member_r	mem.6
    002124  0a   005232 000000
                                   345  	dvt..name		l2exact,32
                                   346  	dvt..member_r	mem.6
    002135  0a   005232 000000
                                   347  	dvt..name		CSI,32
                                   348  	dvt..member_r	mem.6
    002146  0a   005232 000000
                                   349  	dvt..name		HmI,32
                                   350  	dvt..member_r	mem.6
    002157  0a   005232 000000
                                   351  	dvt..name		ascii_,32
                                   352  	dvt..member_r	mem.7
    002170  0a   005247 000000
                                   353  	dvt..name		l1font,32
                                   354  	dvt..member_r	mem.7
    002201  0a   005247 000000
                                   355  	dvt..name		ASCII_,32
                                   356  	dvt..member_r	mem.7
    002212  0a   005247 000000
                                   357  	dvt..name		CSBI,32
                                   358  	dvt..member_r	mem.7
    002223  0a   005247 000000
                                   359  	dvt..name		HBI,32
    002234                         360  med_sel.5:
                                   361  	med_sel_tab.count	1
    002234  aa   000000 000001
                                   362  	med_sel_tab..ref_r	s000002	1
    002235  0a   017500 000000
                                   363  	even
    002236                         364  dvt.7:
                                   365  	dvt.devclass	typewriter,32
                                   366  	dvt.outproc	ascii_writer_$ascii_writer_
    002246  aa   200000 000041
    002247  aa   017212 000000
    002250  aa   077777 000043
    002251  aa   777777 000000
    021460  aa  7 00046 2721 20
    021461  4a  4 00010 7101 20
                                   367  	dvt.footproc	ascii_writer_$footproc
    002252  aa   200000 000041
    002253  aa   017210 000000
    002254  aa   077777 000043
    002255  aa   777777 000000
    021462  aa  7 00046 2721 20
    021463  4a  4 00012 7101 20
                                   368  	dvt.artproc	ascii_writer_$artproc
    002256  aa   200000 000041
    002257  aa   017206 000000
    002260  aa   077777 000043
    002261  aa   777777 000000
    021464  aa  7 00046 2721 20
    021465  4a  4 00014 7101 20
                                   369  	dvt.inl_min	7200
    002262  aa   000000 016040
                                   370  	dvt.min_lead	12000
    002263  aa   000000 027340
                                   371  	dvt.vmt_min	36000
    002264  aa   000000 106240
                                   372  	dvt.vmb_min	36000
    002265  aa   000000 106240
                                   373  	dvt.def_vmt	48000
    002266  aa   000000 135600
                                   374  	dvt.def_vmh	24000
    002267  aa   000000 056700
                                   375  	dvt.def_vmf	24000
    002270  aa   000000 056700
                                   376  	dvt.def_vmb	48000
    002271  aa   000000 135600
                                   377  	dvt.pdw_max	979200
    002272  aa   000003 570400
                                   378  	dvt.pdl_max	-1
    002273  aa   777777 777777
                                   379  	dvt.upshift	0
    002274  aa   000000 000000
                                   380  	dvt.init_ps	7200
    002275  aa   000000 016040
                                   381  	dvt.lettersp	0
    002276  aa   000000 000000
                                   382  	dvt.max_pages	-1
    002277  aa   777777 777777
                                   383  	dvt.max_files	-1
    002300  aa   777777 777777
                                   384  	dvt.init_fam	2
    002301  aa   000000 000002
                                   385  	dvt.init_mem	10
    002302  aa   000000 000012
                                   386  	dvt.foot_fam	2
    002303  aa   000000 000002
                                   387  	dvt.foot_mem	10
    002304  aa   000000 000012
                                   388  	dvt.init_family	cs,32
                                   389  	dvt.init_member	/m,32
                                   390  	dvt.atd_r		s002247
    002325  0a   021431 000000
                                   391  	dvt.dvc_r		dvc000000
    002326  aa   000000 000000
                                   392  	dvt.med_sel_tab_r	med_sel.7
    002327  0a   003027 000000
                                   393  	dvt.comment_r	s002237
    002330  0a   021421 000000
                                   394  	dvt.cleanup_r	s000000
    002331  aa   000000 000000
                                   395  	dvt.foot_family	cs,32
                                   396  	dvt.foot_member	/m,32
                                   397  	dvt.sws		400000000030
    002352  aa   400000 000030
                                   398  	dvt.open_mode	.str_out.
    002353  aa   000000 000002
                                   399  	dvt.recleng	-1
    002354  aa   777777 777777
                                   400  	dvt.family_ct	33
    002355  aa   000000 000041
                                   401  	dvt..member_r	mem.1
    002356  0a   004376 000000
                                   402  	dvt..name		centuryschoolbook,32
                                   403  	dvt..member_r	mem.1
    002367  0a   004376 000000
                                   404  	dvt..name		cs,32
                                   405  	dvt..member_r	mem.1
    002400  0a   004376 000000
                                   406  	dvt..name		helvetica,32
                                   407  	dvt..member_r	mem.1
    002411  0a   004376 000000
                                   408  	dvt..name		h,32
                                   409  	dvt..member_r	mem.2
    002422  0a   004663 000000
                                   410  	dvt..name		pica,32
                                   411  	dvt..member_r	mem.3
    002433  0a   005200 000000
                                   412  	dvt..name		text,32
                                   413  	dvt..member_r	mem.3
    002444  0a   005200 000000
                                   414  	dvt..name		footnote,32
                                   415  	dvt..member_r	mem.3
    002455  0a   005200 000000
                                   416  	dvt..name		APL,32
                                   417  	dvt..member_r	mem.3
    002466  0a   005200 000000
                                   418  	dvt..name		CSR,32
                                   419  	dvt..member_r	mem.3
    002477  0a   005200 000000
                                   420  	dvt..name		HR,32
                                   421  	dvt..member_r	mem.3
    002510  0a   005200 000000
                                   422  	dvt..name		ascii,32
                                   423  	dvt..member_r	mem.4
    002521  0a   005215 000000
                                   424  	dvt..name		l0font,32
                                   425  	dvt..member_r	mem.4
    002532  0a   005215 000000
                                   426  	dvt..name		ASCII,32
                                   427  	dvt..member_r	mem.13
    002543  0a   005264 000000
                                   428  	dvt..name		bold,32
                                   429  	dvt..member_r	mem.13
    002554  0a   005264 000000
                                   430  	dvt..name		CSBR,32
                                   431  	dvt..member_r	mem.13
    002565  0a   005264 000000
                                   432  	dvt..name		HBR,32
                                   433  	dvt..member_r	mem.13
    002576  0a   005264 000000
                                   434  	dvt..name		HBBl,32
                                   435  	dvt..member_r	mem.13
    002607  0a   005264 000000
                                   436  	dvt..name		l4font,32
                                   437  	dvt..member_r	mem.13
    002620  0a   005264 000000
                                   438  	dvt..name		l3exact,32
                                   439  	dvt..member_r	mem.13
    002631  0a   005264 000000
                                   440  	dvt..name		l4exact,32
                                   441  	dvt..member_r	mem.6
    002642  0a   005232 000000
                                   442  	dvt..name		italic,32
                                   443  	dvt..member_r	mem.6
    002653  0a   005232 000000
                                   444  	dvt..name		l2font,32
                                   445  	dvt..member_r	mem.6
    002664  0a   005232 000000
                                   446  	dvt..name		l1exact,32
                                   447  	dvt..member_r	mem.6
    002675  0a   005232 000000
                                   448  	dvt..name		l2exact,32
                                   449  	dvt..member_r	mem.6
    002706  0a   005232 000000
                                   450  	dvt..name		CSI,32
                                   451  	dvt..member_r	mem.6
    002717  0a   005232 000000
                                   452  	dvt..name		HmI,32
                                   453  	dvt..member_r	mem.6
    002730  0a   005232 000000
                                   454  	dvt..name		ascii_,32
                                   455  	dvt..member_r	mem.7
    002741  0a   005247 000000
                                   456  	dvt..name		l1font,32
                                   457  	dvt..member_r	mem.7
    002752  0a   005247 000000
                                   458  	dvt..name		ASCII_,32
                                   459  	dvt..member_r	mem.16
    002763  0a   005301 000000
                                   460  	dvt..name		CSBI,32
                                   461  	dvt..member_r	mem.16
    002774  0a   005301 000000
                                   462  	dvt..name		HBI,32
                                   463  	dvt..member_r	mem.16
    003005  0a   005301 000000
                                   464  	dvt..name		l3font,32
                                   465  	dvt..member_r	mem.16
    003016  0a   005301 000000
                                   466  	dvt..name		l3exact,32
    003027                         467  med_sel.7:
                                   468  	med_sel_tab.count	1
    003027  aa   000000 000001
                                   469  	med_sel_tab..ref_r	s000002	1
    003030  0a   017500 000000
    003031  aa   000000 0110 03    470  	even
    003032                         471  dvt.9:
                                   472  	dvt.devclass	braille,32
                                   473  	dvt.outproc	ascii_writer_$ascii_writer_
    003042  aa   200000 000041
    003043  aa   016424 000000
    003044  aa   077777 000043
    003045  aa   777777 000000
    021466  aa  7 00046 2721 20
    021467  4a  4 00010 7101 20
                                   474  	dvt.footproc	ascii_writer_$footproc
    003046  aa   200000 000041
    003047  aa   016422 000000
    003050  aa   077777 000043
    003051  aa   777777 000000
    021470  aa  7 00046 2721 20
    021471  4a  4 00012 7101 20
                                   475  	dvt.artproc	ascii_writer_$artproc
    003052  aa   200000 000041
    003053  aa   016420 000000
    003054  aa   077777 000043
    003055  aa   777777 000000
    021472  aa  7 00046 2721 20
    021473  4a  4 00014 7101 20
                                   476  	dvt.inl_min	7200
    003056  aa   000000 016040
                                   477  	dvt.min_lead	12000
    003057  aa   000000 027340
                                   478  	dvt.vmt_min	0
    003060  aa   000000 000000
                                   479  	dvt.vmb_min	0
    003061  aa   000000 000000
                                   480  	dvt.def_vmt	0
    003062  aa   000000 000000
                                   481  	dvt.def_vmh	24000
    003063  aa   000000 056700
                                   482  	dvt.def_vmf	24000
    003064  aa   000000 056700
                                   483  	dvt.def_vmb	0
    003065  aa   000000 000000
                                   484  	dvt.pdw_max	288000
    003066  aa   000001 062400
                                   485  	dvt.pdl_max	300000
    003067  aa   000001 111740
                                   486  	dvt.upshift	0
    003070  aa   000000 000000
                                   487  	dvt.init_ps	7200
    003071  aa   000000 016040
                                   488  	dvt.lettersp	0
    003072  aa   000000 000000
                                   489  	dvt.max_pages	-1
    003073  aa   777777 777777
                                   490  	dvt.max_files	-1
    003074  aa   777777 777777
                                   491  	dvt.init_fam	2
    003075  aa   000000 000002
                                   492  	dvt.init_mem	10
    003076  aa   000000 000012
                                   493  	dvt.foot_fam	2
    003077  aa   000000 000002
                                   494  	dvt.foot_mem	10
    003100  aa   000000 000012
                                   495  	dvt.init_family	cs,32
                                   496  	dvt.init_member	/m,32
                                   497  	dvt.atd_r		s002247
    003121  0a   021431 000000
                                   498  	dvt.dvc_r		dvc000000
    003122  aa   000000 000000
                                   499  	dvt.med_sel_tab_r	med_sel.9
    003123  0a   003612 000000
                                   500  	dvt.comment_r	s002237
    003124  0a   021421 000000
                                   501  	dvt.cleanup_r	s000000
    003125  aa   000000 000000
                                   502  	dvt.foot_family	cs,32
                                   503  	dvt.foot_member	/m,32
                                   504  	dvt.sws		400000000030
    003146  aa   400000 000030
                                   505  	dvt.open_mode	.str_out.
    003147  aa   000000 000002
                                   506  	dvt.recleng	-1
    003150  aa   777777 777777
                                   507  	dvt.family_ct	32
    003151  aa   000000 000040
                                   508  	dvt..member_r	mem.1
    003152  0a   004376 000000
                                   509  	dvt..name		centuryschoolbook,32
                                   510  	dvt..member_r	mem.1
    003163  0a   004376 000000
                                   511  	dvt..name		cs,32
                                   512  	dvt..member_r	mem.1
    003174  0a   004376 000000
                                   513  	dvt..name		helvetica,32
                                   514  	dvt..member_r	mem.1
    003205  0a   004376 000000
                                   515  	dvt..name		h,32
                                   516  	dvt..member_r	mem.2
    003216  0a   004663 000000
                                   517  	dvt..name		pica10,32
                                   518  	dvt..member_r	mem.3
    003227  0a   005200 000000
                                   519  	dvt..name		ascii,32
                                   520  	dvt..member_r	mem.3
    003240  0a   005200 000000
                                   521  	dvt..name		l4font,32
                                   522  	dvt..member_r	mem.3
    003251  0a   005200 000000
                                   523  	dvt..name		l3exact,32
                                   524  	dvt..member_r	mem.3
    003262  0a   005200 000000
                                   525  	dvt..name		l4exact,32
                                   526  	dvt..member_r	mem.3
    003273  0a   005200 000000
                                   527  	dvt..name		text,32
                                   528  	dvt..member_r	mem.3
    003304  0a   005200 000000
                                   529  	dvt..name		footnote,32
                                   530  	dvt..member_r	mem.3
    003315  0a   005200 000000
                                   531  	dvt..name		APL,32
                                   532  	dvt..member_r	mem.3
    003326  0a   005200 000000
                                   533  	dvt..name		CSR,32
                                   534  	dvt..member_r	mem.3
    003337  0a   005200 000000
                                   535  	dvt..name		HR,32
                                   536  	dvt..member_r	mem.4
    003350  0a   005215 000000
                                   537  	dvt..name		l0font,32
                                   538  	dvt..member_r	mem.4
    003361  0a   005215 000000
                                   539  	dvt..name		l3font,32
                                   540  	dvt..member_r	mem.4
    003372  0a   005215 000000
                                   541  	dvt..name		ASCII,32
                                   542  	dvt..member_r	mem.4
    003403  0a   005215 000000
                                   543  	dvt..name		bold,32
                                   544  	dvt..member_r	mem.4
    003414  0a   005215 000000
                                   545  	dvt..name		CSBR,32
                                   546  	dvt..member_r	mem.4
    003425  0a   005215 000000
                                   547  	dvt..name		HBR,32
                                   548  	dvt..member_r	mem.4
    003436  0a   005215 000000
                                   549  	dvt..name		HBBl,32
                                   550  	dvt..member_r	mem.6
    003447  0a   005232 000000
                                   551  	dvt..name		italic,32
                                   552  	dvt..member_r	mem.6
    003460  0a   005232 000000
                                   553  	dvt..name		l2font,32
                                   554  	dvt..member_r	mem.6
    003471  0a   005232 000000
                                   555  	dvt..name		l1exact,32
                                   556  	dvt..member_r	mem.6
    003502  0a   005232 000000
                                   557  	dvt..name		l2exact,32
                                   558  	dvt..member_r	mem.6
    003513  0a   005232 000000
                                   559  	dvt..name		CSI,32
                                   560  	dvt..member_r	mem.6
    003524  0a   005232 000000
                                   561  	dvt..name		HmI,32
                                   562  	dvt..member_r	mem.6
    003535  0a   005232 000000
                                   563  	dvt..name		ascii_,32
                                   564  	dvt..member_r	mem.7
    003546  0a   005247 000000
                                   565  	dvt..name		l1font,32
                                   566  	dvt..member_r	mem.7
    003557  0a   005247 000000
                                   567  	dvt..name		ASCII_,32
                                   568  	dvt..member_r	mem.7
    003570  0a   005247 000000
                                   569  	dvt..name		CSBI,32
                                   570  	dvt..member_r	mem.7
    003601  0a   005247 000000
                                   571  	dvt..name		HBI,32
    003612                         572  med_sel.9:
                                   573  	med_sel_tab.count	1
    003612  aa   000000 000001
                                   574  	med_sel_tab..ref_r	s000002	1
    003613  0a   017500 000000
                                   575  	even
    003614                         576  dvt.11:
                                   577  	dvt.devclass	typewriter,32
                                   578  	dvt.outproc	ascii_writer_$ascii_writer_
    003624  aa   200000 000041
    003625  aa   015650 000000
    003626  aa   077777 000043
    003627  aa   777777 000000
    021474  aa  7 00046 2721 20
    021475  4a  4 00010 7101 20
                                   579  	dvt.footproc	ascii_writer_$footproc
    003630  aa   200000 000041
    003631  aa   015646 000000
    003632  aa   077777 000043
    003633  aa   777777 000000
    021476  aa  7 00046 2721 20
    021477  4a  4 00012 7101 20
                                   580  	dvt.artproc	ascii_writer_$artproc
    003634  aa   200000 000041
    003635  aa   015644 000000
    003636  aa   077777 000043
    003637  aa   777777 000000
    021500  aa  7 00046 2721 20
    021501  4a  4 00014 7101 20
                                   581  	dvt.inl_min	7200
    003640  aa   000000 016040
                                   582  	dvt.min_lead	12000
    003641  aa   000000 027340
                                   583  	dvt.vmt_min	0
    003642  aa   000000 000000
                                   584  	dvt.vmb_min	0
    003643  aa   000000 000000
                                   585  	dvt.def_vmt	48000
    003644  aa   000000 135600
                                   586  	dvt.def_vmh	24000
    003645  aa   000000 056700
                                   587  	dvt.def_vmf	24000
    003646  aa   000000 056700
                                   588  	dvt.def_vmb	48000
    003647  aa   000000 135600
                                   589  	dvt.pdw_max	950400
    003650  aa   000003 500200
                                   590  	dvt.pdl_max	-1
    003651  aa   777777 777777
                                   591  	dvt.upshift	0
    003652  aa   000000 000000
                                   592  	dvt.init_ps	7200
    003653  aa   000000 016040
                                   593  	dvt.lettersp	0
    003654  aa   000000 000000
                                   594  	dvt.max_pages	-1
    003655  aa   777777 777777
                                   595  	dvt.max_files	-1
    003656  aa   777777 777777
                                   596  	dvt.init_fam	2
    003657  aa   000000 000002
                                   597  	dvt.init_mem	10
    003660  aa   000000 000012
                                   598  	dvt.foot_fam	2
    003661  aa   000000 000002
                                   599  	dvt.foot_mem	10
    003662  aa   000000 000012
                                   600  	dvt.init_family	cs,32
                                   601  	dvt.init_member	/m,32
                                   602  	dvt.atd_r		s002247
    003703  0a   021431 000000
                                   603  	dvt.dvc_r		dvc000000
    003704  aa   000000 000000
                                   604  	dvt.med_sel_tab_r	med_sel.11
    003705  0a   004374 000000
                                   605  	dvt.comment_r	s002237
    003706  0a   021421 000000
                                   606  	dvt.cleanup_r	s000000
    003707  aa   000000 000000
                                   607  	dvt.foot_family	cs,32
                                   608  	dvt.foot_member	/m,32
                                   609  	dvt.sws		400000000000
    003730  aa   400000 000000
                                   610  	dvt.open_mode	.seq_out.
    003731  aa   000000 000005
                                   611  	dvt.recleng	-1
    003732  aa   777777 777777
                                   612  	dvt.family_ct	32
    003733  aa   000000 000040
                                   613  	dvt..member_r	mem.1
    003734  0a   004376 000000
                                   614  	dvt..name		centuryschoolbook,32
                                   615  	dvt..member_r	mem.1
    003745  0a   004376 000000
                                   616  	dvt..name		cs,32
                                   617  	dvt..member_r	mem.1
    003756  0a   004376 000000
                                   618  	dvt..name		helvetica,32
                                   619  	dvt..member_r	mem.1
    003767  0a   004376 000000
                                   620  	dvt..name		h,32
                                   621  	dvt..member_r	mem.2
    004000  0a   004663 000000
                                   622  	dvt..name		pica10,32
                                   623  	dvt..member_r	mem.3
    004011  0a   005200 000000
                                   624  	dvt..name		ascii,32
                                   625  	dvt..member_r	mem.3
    004022  0a   005200 000000
                                   626  	dvt..name		l4font,32
                                   627  	dvt..member_r	mem.3
    004033  0a   005200 000000
                                   628  	dvt..name		l3exact,32
                                   629  	dvt..member_r	mem.3
    004044  0a   005200 000000
                                   630  	dvt..name		l4exact,32
                                   631  	dvt..member_r	mem.3
    004055  0a   005200 000000
                                   632  	dvt..name		text,32
                                   633  	dvt..member_r	mem.3
    004066  0a   005200 000000
                                   634  	dvt..name		footnote,32
                                   635  	dvt..member_r	mem.3
    004077  0a   005200 000000
                                   636  	dvt..name		APL,32
                                   637  	dvt..member_r	mem.3
    004110  0a   005200 000000
                                   638  	dvt..name		CSR,32
                                   639  	dvt..member_r	mem.3
    004121  0a   005200 000000
                                   640  	dvt..name		HR,32
                                   641  	dvt..member_r	mem.4
    004132  0a   005215 000000
                                   642  	dvt..name		l0font,32
                                   643  	dvt..member_r	mem.4
    004143  0a   005215 000000
                                   644  	dvt..name		l3font,32
                                   645  	dvt..member_r	mem.4
    004154  0a   005215 000000
                                   646  	dvt..name		ASCII,32
                                   647  	dvt..member_r	mem.4
    004165  0a   005215 000000
                                   648  	dvt..name		bold,32
                                   649  	dvt..member_r	mem.4
    004176  0a   005215 000000
                                   650  	dvt..name		CSBR,32
                                   651  	dvt..member_r	mem.4
    004207  0a   005215 000000
                                   652  	dvt..name		HBR,32
                                   653  	dvt..member_r	mem.4
    004220  0a   005215 000000
                                   654  	dvt..name		HBBl,32
                                   655  	dvt..member_r	mem.6
    004231  0a   005232 000000
                                   656  	dvt..name		italic,32
                                   657  	dvt..member_r	mem.6
    004242  0a   005232 000000
                                   658  	dvt..name		l2font,32
                                   659  	dvt..member_r	mem.6
    004253  0a   005232 000000
                                   660  	dvt..name		l1exact,32
                                   661  	dvt..member_r	mem.6
    004264  0a   005232 000000
                                   662  	dvt..name		l2exact,32
                                   663  	dvt..member_r	mem.6
    004275  0a   005232 000000
                                   664  	dvt..name		CSI,32
                                   665  	dvt..member_r	mem.6
    004306  0a   005232 000000
                                   666  	dvt..name		HmI,32
                                   667  	dvt..member_r	mem.6
    004317  0a   005232 000000
                                   668  	dvt..name		ascii_,32
                                   669  	dvt..member_r	mem.7
    004330  0a   005247 000000
                                   670  	dvt..name		l1font,32
                                   671  	dvt..member_r	mem.7
    004341  0a   005247 000000
                                   672  	dvt..name		ASCII_,32
                                   673  	dvt..member_r	mem.7
    004352  0a   005247 000000
                                   674  	dvt..name		CSBI,32
                                   675  	dvt..member_r	mem.7
    004363  0a   005247 000000
                                   676  	dvt..name		HBI,32
    004374                         677  med_sel.11:
                                   678  	med_sel_tab.count	1
    004374  aa   000000 000001
                                   679  	med_sel_tab..ref_r	s000002	1
    004375  0a   017500 000000
    004376                         680  mem.1:
                                   681  	member.count	15
    004376  aa   000000 000017
                                   682  	member..font_r	f.1
    004377  0a   005316 000000
                                   683  	member..size_r	size.1
    004400  0a   017476 000000
                                   684  	member..Scale	100000000,100000000
    004401  aa   000575 360400
    004402  aa   000575 360400
                                   685  	member..name	/,32
                                   686  	member..font_r	f.2
    004413  0a   005325 000000
                                   687  	member..size_r	size.1
    004414  0a   017476 000000
                                   688  	member..Scale	100000000,100000000
    004415  aa   000575 360400
    004416  aa   000575 360400
                                   689  	member..name	/b,32
                                   690  	member..font_r	f.4
    004427  0a   005343 000000
                                   691  	member..size_r	size.1
    004430  0a   017476 000000
                                   692  	member..Scale	100000000,100000000
    004431  aa   000575 360400
    004432  aa   000575 360400
                                   693  	member..name	/bi,32
                                   694  	member..font_r	f.2
    004443  0a   005325 000000
                                   695  	member..size_r	size.1
    004444  0a   017476 000000
                                   696  	member..Scale	100000000,100000000
    004445  aa   000575 360400
    004446  aa   000575 360400
                                   697  	member..name	/bold,32
                                   698  	member..font_r	f.4
    004457  0a   005343 000000
                                   699  	member..size_r	size.1
    004460  0a   017476 000000
                                   700  	member..Scale	100000000,100000000
    004461  aa   000575 360400
    004462  aa   000575 360400
                                   701  	member..name	/bolditalic,32
                                   702  	member..font_r	f.2
    004473  0a   005325 000000
                                   703  	member..size_r	size.1
    004474  0a   017476 000000
                                   704  	member..Scale	100000000,100000000
    004475  aa   000575 360400
    004476  aa   000575 360400
                                   705  	member..name	/boldroman,32
                                   706  	member..font_r	f.2
    004507  0a   005325 000000
                                   707  	member..size_r	size.1
    004510  0a   017476 000000
                                   708  	member..Scale	100000000,100000000
    004511  aa   000575 360400
    004512  aa   000575 360400
                                   709  	member..name	/br,32
                                   710  	member..font_r	f.3
    004523  0a   005334 000000
                                   711  	member..size_r	size.1
    004524  0a   017476 000000
                                   712  	member..Scale	100000000,100000000
    004525  aa   000575 360400
    004526  aa   000575 360400
                                   713  	member..name	/i,32
                                   714  	member..font_r	f.3
    004537  0a   005334 000000
                                   715  	member..size_r	size.1
    004540  0a   017476 000000
                                   716  	member..Scale	100000000,100000000
    004541  aa   000575 360400
    004542  aa   000575 360400
                                   717  	member..name	/italic,32
                                   718  	member..font_r	f.1
    004553  0a   005316 000000
                                   719  	member..size_r	size.1
    004554  0a   017476 000000
                                   720  	member..Scale	100000000,100000000
    004555  aa   000575 360400
    004556  aa   000575 360400
                                   721  	member..name	/m,32
                                   722  	member..font_r	f.1
    004567  0a   005316 000000
                                   723  	member..size_r	size.1
    004570  0a   017476 000000
                                   724  	member..Scale	100000000,100000000
    004571  aa   000575 360400
    004572  aa   000575 360400
                                   725  	member..name	/medium,32
                                   726  	member..font_r	f.3
    004603  0a   005334 000000
                                   727  	member..size_r	size.1
    004604  0a   017476 000000
                                   728  	member..Scale	100000000,100000000
    004605  aa   000575 360400
    004606  aa   000575 360400
                                   729  	member..name	/mediumitalic,32
                                   730  	member..font_r	f.3
    004617  0a   005334 000000
                                   731  	member..size_r	size.1
    004620  0a   017476 000000
                                   732  	member..Scale	100000000,100000000
    004621  aa   000575 360400
    004622  aa   000575 360400
                                   733  	member..name	/mi,32
                                   734  	member..font_r	f.1
    004633  0a   005316 000000
                                   735  	member..size_r	size.1
    004634  0a   017476 000000
                                   736  	member..Scale	100000000,100000000
    004635  aa   000575 360400
    004636  aa   000575 360400
                                   737  	member..name	/r,32
                                   738  	member..font_r	f.1
    004647  0a   005316 000000
                                   739  	member..size_r	size.1
    004650  0a   017476 000000
                                   740  	member..Scale	100000000,100000000
    004651  aa   000575 360400
    004652  aa   000575 360400
                                   741  	member..name	/roman,32
    004663                         742  mem.2:
                                   743  	member.count	17
    004663  aa   000000 000021
                                   744  	member..font_r	f.1
    004664  0a   005316 000000
                                   745  	member..size_r	size.1
    004665  0a   017476 000000
                                   746  	member..Scale	100000000,100000000
    004666  aa   000575 360400
    004667  aa   000575 360400
                                   747  	member..name	/,32
                                   748  	member..font_r	f.2
    004700  0a   005325 000000
                                   749  	member..size_r	size.1
    004701  0a   017476 000000
                                   750  	member..Scale	100000000,100000000
    004702  aa   000575 360400
    004703  aa   000575 360400
                                   751  	member..name	/b,32
                                   752  	member..font_r	f.4
    004714  0a   005343 000000
                                   753  	member..size_r	size.1
    004715  0a   017476 000000
                                   754  	member..Scale	100000000,100000000
    004716  aa   000575 360400
    004717  aa   000575 360400
                                   755  	member..name	/bi,32
                                   756  	member..font_r	f.2
    004730  0a   005325 000000
                                   757  	member..size_r	size.1
    004731  0a   017476 000000
                                   758  	member..Scale	100000000,100000000
    004732  aa   000575 360400
    004733  aa   000575 360400
                                   759  	member..name	/bold,32
                                   760  	member..font_r	f.4
    004744  0a   005343 000000
                                   761  	member..size_r	size.1
    004745  0a   017476 000000
                                   762  	member..Scale	100000000,100000000
    004746  aa   000575 360400
    004747  aa   000575 360400
                                   763  	member..name	/bolditalic,32
                                   764  	member..font_r	f.2
    004760  0a   005325 000000
                                   765  	member..size_r	size.1
    004761  0a   017476 000000
                                   766  	member..Scale	100000000,100000000
    004762  aa   000575 360400
    004763  aa   000575 360400
                                   767  	member..name	/boldroman,32
                                   768  	member..font_r	f.2
    004774  0a   005325 000000
                                   769  	member..size_r	size.1
    004775  0a   017476 000000
                                   770  	member..Scale	100000000,100000000
    004776  aa   000575 360400
    004777  aa   000575 360400
                                   771  	member..name	/br,32
                                   772  	member..font_r	f.2
    005010  0a   005325 000000
                                   773  	member..size_r	size.1
    005011  0a   017476 000000
                                   774  	member..Scale	100000000,100000000
    005012  aa   000575 360400
    005013  aa   000575 360400
                                   775  	member..name	/caps,32
                                   776  	member..font_r	f.4
    005024  0a   005343 000000
                                   777  	member..size_r	size.1
    005025  0a   017476 000000
                                   778  	member..Scale	100000000,100000000
    005026  aa   000575 360400
    005027  aa   000575 360400
                                   779  	member..name	/caps_,32
                                   780  	member..font_r	f.3
    005040  0a   005334 000000
                                   781  	member..size_r	size.1
    005041  0a   017476 000000
                                   782  	member..Scale	100000000,100000000
    005042  aa   000575 360400
    005043  aa   000575 360400
                                   783  	member..name	/i,32
                                   784  	member..font_r	f.3
    005054  0a   005334 000000
                                   785  	member..size_r	size.1
    005055  0a   017476 000000
                                   786  	member..Scale	100000000,100000000
    005056  aa   000575 360400
    005057  aa   000575 360400
                                   787  	member..name	/italic,32
                                   788  	member..font_r	f.1
    005070  0a   005316 000000
                                   789  	member..size_r	size.1
    005071  0a   017476 000000
                                   790  	member..Scale	100000000,100000000
    005072  aa   000575 360400
    005073  aa   000575 360400
                                   791  	member..name	/m,32
                                   792  	member..font_r	f.1
    005104  0a   005316 000000
                                   793  	member..size_r	size.1
    005105  0a   017476 000000
                                   794  	member..Scale	100000000,100000000
    005106  aa   000575 360400
    005107  aa   000575 360400
                                   795  	member..name	/medium,32
                                   796  	member..font_r	f.3
    005120  0a   005334 000000
                                   797  	member..size_r	size.1
    005121  0a   017476 000000
                                   798  	member..Scale	100000000,100000000
    005122  aa   000575 360400
    005123  aa   000575 360400
                                   799  	member..name	/mediumitalic,32
                                   800  	member..font_r	f.3
    005134  0a   005334 000000
                                   801  	member..size_r	size.1
    005135  0a   017476 000000
                                   802  	member..Scale	100000000,100000000
    005136  aa   000575 360400
    005137  aa   000575 360400
                                   803  	member..name	/mi,32
                                   804  	member..font_r	f.1
    005150  0a   005316 000000
                                   805  	member..size_r	size.1
    005151  0a   017476 000000
                                   806  	member..Scale	100000000,100000000
    005152  aa   000575 360400
    005153  aa   000575 360400
                                   807  	member..name	/r,32
                                   808  	member..font_r	f.1
    005164  0a   005316 000000
                                   809  	member..size_r	size.1
    005165  0a   017476 000000
                                   810  	member..Scale	100000000,100000000
    005166  aa   000575 360400
    005167  aa   000575 360400
                                   811  	member..name	/roman,32
    005200                         812  mem.3:
                                   813  	member.count	1
    005200  aa   000000 000001
                                   814  	member..font_r	f.1
    005201  0a   005316 000000
                                   815  	member..size_r	size.1
    005202  0a   017476 000000
                                   816  	member..Scale	100000000,100000000
    005203  aa   000575 360400
    005204  aa   000575 360400
                                   817  	member..name	,32
    005215                         818  mem.4:
                                   819  	member.count	1
    005215  aa   000000 000001
                                   820  	member..font_r	f.2
    005216  0a   005325 000000
                                   821  	member..size_r	size.1
    005217  0a   017476 000000
                                   822  	member..Scale	100000000,100000000
    005220  aa   000575 360400
    005221  aa   000575 360400
                                   823  	member..name	,32
    005232                         824  mem.6:
                                   825  	member.count	1
    005232  aa   000000 000001
                                   826  	member..font_r	f.3
    005233  0a   005334 000000
                                   827  	member..size_r	size.1
    005234  0a   017476 000000
                                   828  	member..Scale	100000000,100000000
    005235  aa   000575 360400
    005236  aa   000575 360400
                                   829  	member..name	,32
    005247                         830  mem.7:
                                   831  	member.count	1
    005247  aa   000000 000001
                                   832  	member..font_r	f.4
    005250  0a   005343 000000
                                   833  	member..size_r	size.1
    005251  0a   017476 000000
                                   834  	member..Scale	100000000,100000000
    005252  aa   000575 360400
    005253  aa   000575 360400
                                   835  	member..name	,32
    005264                         836  mem.13:
                                   837  	member.count	1
    005264  aa   000000 000001
                                   838  	member..font_r	f.5
    005265  0a   005352 000000
                                   839  	member..size_r	size.1
    005266  0a   017476 000000
                                   840  	member..Scale	100000000,100000000
    005267  aa   000575 360400
    005270  aa   000575 360400
                                   841  	member..name	,32
    005301                         842  mem.16:
                                   843  	member.count	1
    005301  aa   000000 000001
                                   844  	member..font_r	f.6
    005302  0a   005361 000000
                                   845  	member..size_r	size.1
    005303  0a   017476 000000
                                   846  	member..Scale	100000000,100000000
    005304  aa   000575 360400
    005305  aa   000575 360400
                                   847  	member..name	,32
                                   848  
    005316                         849  f.1:		"asc10
                                   850  	font.units_r	uni.1
    005316  0a   005370 000000
                                   851  	font.oput_r	opu.1
    005317  0a   013370 000000
                                   852  	font.rel_units	1
    005320  aa   000000 000001
                                   853  	font.footsep	(,)
    005321  aa  054 000 000 000
                                   854  	font.min_spb	1
    005322  aa   000000 000001
                                   855  	font.avg_spb	1
    005323  aa   000000 000001
                                   856  	font.max_spb	2
    005324  aa   000000 000002
    005325                         857  f.2:		"ASC10
                                   858  	font.units_r	uni.2
    005325  0a   006370 000000
                                   859  	font.oput_r	opu.2
    005326  0a   014131 000000
                                   860  	font.rel_units	1
    005327  aa   000000 000001
                                   861  	font.footsep	(,)
    005330  aa  054 000 000 000
                                   862  	font.min_spb	1
    005331  aa   000000 000001
                                   863  	font.avg_spb	1
    005332  aa   000000 000001
                                   864  	font.max_spb	2
    005333  aa   000000 000002
    005334                         865  f.3:		"asc10_
                                   866  	font.units_r	uni.3
    005334  0a   007370 000000
                                   867  	font.oput_r	opu.3
    005335  0a   014672 000000
                                   868  	font.rel_units	1
    005336  aa   000000 000001
                                   869  	font.footsep	(,)
    005337  aa  054 000 000 000
                                   870  	font.min_spb	1
    005340  aa   000000 000001
                                   871  	font.avg_spb	1
    005341  aa   000000 000001
                                   872  	font.max_spb	2
    005342  aa   000000 000002
    005343                         873  f.4:		"ASC10_
                                   874  	font.units_r	uni.4
    005343  0a   010370 000000
                                   875  	font.oput_r	opu.4
    005344  0a   015433 000000
                                   876  	font.rel_units	1
    005345  aa   000000 000001
                                   877  	font.footsep	(,)
    005346  aa  054 000 000 000
                                   878  	font.min_spb	1
    005347  aa   000000 000001
                                   879  	font.avg_spb	1
    005350  aa   000000 000001
                                   880  	font.max_spb	2
    005351  aa   000000 000002
    005352                         881  f.5:		"ASC10OS
                                   882  	font.units_r	uni.5
    005352  0a   011370 000000
                                   883  	font.oput_r	opu.5
    005353  0a   016174 000000
                                   884  	font.rel_units	1
    005354  aa   000000 000001
                                   885  	font.footsep	(,)
    005355  aa  054 000 000 000
                                   886  	font.min_spb	1
    005356  aa   000000 000001
                                   887  	font.avg_spb	1
    005357  aa   000000 000001
                                   888  	font.max_spb	2
    005360  aa   000000 000002
    005361                         889  f.6:		"ASC10_OS
                                   890  	font.units_r	uni.6
    005361  0a   012370 000000
                                   891  	font.oput_r	opu.6
    005362  0a   016735 000000
                                   892  	font.rel_units	1
    005363  aa   000000 000001
                                   893  	font.footsep	(,)
    005364  aa  054 000 000 000
                                   894  	font.min_spb	1
    005365  aa   000000 000001
                                   895  	font.avg_spb	1
    005366  aa   000000 000001
                                   896  	font.max_spb	2
    005367  aa   000000 000002
    005370                         897  uni.1:
                                   898  	units (8),0
                                   899  	units (1),-1
                        000001
    005400  aa   777777 777777
                                   900  	units (18),0
                                   901  	units (1),-1
                        000001
    005423  aa   777777 777777
                                   902  	units (4),0
                                   903  	units (95),1
                        000137
    005430  aa   000000 000001
    005431  aa   000000 000001
    005432  aa   000000 000001
    005433  aa   000000 000001
    005434  aa   000000 000001
    005435  aa   000000 000001
    005436  aa   000000 000001
    005437  aa   000000 000001
    005440  aa   000000 000001
    005441  aa   000000 000001
    005442  aa   000000 000001
    005443  aa   000000 000001
    005444  aa   000000 000001
    005445  aa   000000 000001
    005446  aa   000000 000001
    005447  aa   000000 000001
    005450  aa   000000 000001
    005451  aa   000000 000001
    005452  aa   000000 000001
    005453  aa   000000 000001
    005454  aa   000000 000001
    005455  aa   000000 000001
    005456  aa   000000 000001
    005457  aa   000000 000001
    005460  aa   000000 000001
    005461  aa   000000 000001
    005462  aa   000000 000001
    005463  aa   000000 000001
    005464  aa   000000 000001
    005465  aa   000000 000001
    005466  aa   000000 000001
    005467  aa   000000 000001
    005470  aa   000000 000001
    005471  aa   000000 000001
    005472  aa   000000 000001
    005473  aa   000000 000001
    005474  aa   000000 000001
    005475  aa   000000 000001
    005476  aa   000000 000001
    005477  aa   000000 000001
    005500  aa   000000 000001
    005501  aa   000000 000001
    005502  aa   000000 000001
    005503  aa   000000 000001
    005504  aa   000000 000001
    005505  aa   000000 000001
    005506  aa   000000 000001
    005507  aa   000000 000001
    005510  aa   000000 000001
    005511  aa   000000 000001
    005512  aa   000000 000001
    005513  aa   000000 000001
    005514  aa   000000 000001
    005515  aa   000000 000001
    005516  aa   000000 000001
    005517  aa   000000 000001
    005520  aa   000000 000001
    005521  aa   000000 000001
    005522  aa   000000 000001
    005523  aa   000000 000001
    005524  aa   000000 000001
    005525  aa   000000 000001
    005526  aa   000000 000001
    005527  aa   000000 000001
    005530  aa   000000 000001
    005531  aa   000000 000001
    005532  aa   000000 000001
    005533  aa   000000 000001
    005534  aa   000000 000001
    005535  aa   000000 000001
    005536  aa   000000 000001
    005537  aa   000000 000001
    005540  aa   000000 000001
    005541  aa   000000 000001
    005542  aa   000000 000001
    005543  aa   000000 000001
    005544  aa   000000 000001
    005545  aa   000000 000001
    005546  aa   000000 000001
    005547  aa   000000 000001
    005550  aa   000000 000001
    005551  aa   000000 000001
    005552  aa   000000 000001
    005553  aa   000000 000001
    005554  aa   000000 000001
    005555  aa   000000 000001
    005556  aa   000000 000001
    005557  aa   000000 000001
    005560  aa   000000 000001
    005561  aa   000000 000001
    005562  aa   000000 000001
    005563  aa   000000 000001
    005564  aa   000000 000001
    005565  aa   000000 000001
    005566  aa   000000 000001
                                   904  	units (30),0
                                   905  	units (4),1
                        000004
    005625  aa   000000 000001
    005626  aa   000000 000001
    005627  aa   000000 000001
    005630  aa   000000 000001
                                   906  	units (12),0
                                   907  	units (1),2
                        000001
    005645  aa   000000 000002
                                   908  	units (21),0
                                   909  	units (1),3
                        000001
    005673  aa   000000 000003
                                   910  	units (9),0
                                   911  	units (1),1
                        000001
    005705  aa   000000 000001
                                   912  	units (2),0
                                   913  	units (1),2
                        000001
    005710  aa   000000 000002
                                   914  	units (3),0
                                   915  	units (1),4
                        000001
    005714  aa   000000 000004
                                   916  	units (27),0
                                   917  	units (1),2
                        000001
    005750  aa   000000 000002
                                   918  	units (12),0
                                   919  	units (1),1
                        000001
    005765  aa   000000 000001
                                   920  	units (1),0
                                   921  	units (1),1
                        000001
    005767  aa   000000 000001
                                   922  	units (10),0
                                   923  	units (2),2
                        000002
    006002  aa   000000 000002
    006003  aa   000000 000002
                                   924  	units (26),1
                        000032
    006004  aa   000000 000001
    006005  aa   000000 000001
    006006  aa   000000 000001
    006007  aa   000000 000001
    006010  aa   000000 000001
    006011  aa   000000 000001
    006012  aa   000000 000001
    006013  aa   000000 000001
    006014  aa   000000 000001
    006015  aa   000000 000001
    006016  aa   000000 000001
    006017  aa   000000 000001
    006020  aa   000000 000001
    006021  aa   000000 000001
    006022  aa   000000 000001
    006023  aa   000000 000001
    006024  aa   000000 000001
    006025  aa   000000 000001
    006026  aa   000000 000001
    006027  aa   000000 000001
    006030  aa   000000 000001
    006031  aa   000000 000001
    006032  aa   000000 000001
    006033  aa   000000 000001
    006034  aa   000000 000001
    006035  aa   000000 000001
                                   925  	units (1),0
                                   926  	units (4),1
                        000004
    006037  aa   000000 000001
    006040  aa   000000 000001
    006041  aa   000000 000001
    006042  aa   000000 000001
                                   927  	units (1),0
                                   928  	units (5),1
                        000005
    006044  aa   000000 000001
    006045  aa   000000 000001
    006046  aa   000000 000001
    006047  aa   000000 000001
    006050  aa   000000 000001
                                   929  	units (1),0
                                   930  	units (5),1
                        000005
    006052  aa   000000 000001
    006053  aa   000000 000001
    006054  aa   000000 000001
    006055  aa   000000 000001
    006056  aa   000000 000001
                                   931  	units (1),0
                                   932  	units (5),1
                        000005
    006060  aa   000000 000001
    006061  aa   000000 000001
    006062  aa   000000 000001
    006063  aa   000000 000001
    006064  aa   000000 000001
                                   933  	units (1),0
                                   934  	units (5),1
                        000005
    006066  aa   000000 000001
    006067  aa   000000 000001
    006070  aa   000000 000001
    006071  aa   000000 000001
    006072  aa   000000 000001
                                   935  	units (1),0
                                   936  	units (5),1
                        000005
    006074  aa   000000 000001
    006075  aa   000000 000001
    006076  aa   000000 000001
    006077  aa   000000 000001
    006100  aa   000000 000001
                                   937  	units (1),0
                                   938  	units (5),1
                        000005
    006102  aa   000000 000001
    006103  aa   000000 000001
    006104  aa   000000 000001
    006105  aa   000000 000001
    006106  aa   000000 000001
                                   939  	units (1),0
                                   940  	units (5),1
                        000005
    006110  aa   000000 000001
    006111  aa   000000 000001
    006112  aa   000000 000001
    006113  aa   000000 000001
    006114  aa   000000 000001
                                   941  	units (1),0
                                   942  	units (4),1
                        000004
    006116  aa   000000 000001
    006117  aa   000000 000001
    006120  aa   000000 000001
    006121  aa   000000 000001
                                   943  	units (2),0
                                   944  	units (1),1
                        000001
    006124  aa   000000 000001
                                   945  	units (1),0
                                   946  	units (2),1
                        000002
    006126  aa   000000 000001
    006127  aa   000000 000001
                                   947  	units (160),0
    006370                         948  uni.2:
                                   949  	units (8),0
                                   950  	units (1),-1
                        000001
    006400  aa   777777 777777
                                   951  	units (18),0
                                   952  	units (1),-1
                        000001
    006423  aa   777777 777777
                                   953  	units (4),0
                                   954  	units (95),1
                        000137
    006430  aa   000000 000001
    006431  aa   000000 000001
    006432  aa   000000 000001
    006433  aa   000000 000001
    006434  aa   000000 000001
    006435  aa   000000 000001
    006436  aa   000000 000001
    006437  aa   000000 000001
    006440  aa   000000 000001
    006441  aa   000000 000001
    006442  aa   000000 000001
    006443  aa   000000 000001
    006444  aa   000000 000001
    006445  aa   000000 000001
    006446  aa   000000 000001
    006447  aa   000000 000001
    006450  aa   000000 000001
    006451  aa   000000 000001
    006452  aa   000000 000001
    006453  aa   000000 000001
    006454  aa   000000 000001
    006455  aa   000000 000001
    006456  aa   000000 000001
    006457  aa   000000 000001
    006460  aa   000000 000001
    006461  aa   000000 000001
    006462  aa   000000 000001
    006463  aa   000000 000001
    006464  aa   000000 000001
    006465  aa   000000 000001
    006466  aa   000000 000001
    006467  aa   000000 000001
    006470  aa   000000 000001
    006471  aa   000000 000001
    006472  aa   000000 000001
    006473  aa   000000 000001
    006474  aa   000000 000001
    006475  aa   000000 000001
    006476  aa   000000 000001
    006477  aa   000000 000001
    006500  aa   000000 000001
    006501  aa   000000 000001
    006502  aa   000000 000001
    006503  aa   000000 000001
    006504  aa   000000 000001
    006505  aa   000000 000001
    006506  aa   000000 000001
    006507  aa   000000 000001
    006510  aa   000000 000001
    006511  aa   000000 000001
    006512  aa   000000 000001
    006513  aa   000000 000001
    006514  aa   000000 000001
    006515  aa   000000 000001
    006516  aa   000000 000001
    006517  aa   000000 000001
    006520  aa   000000 000001
    006521  aa   000000 000001
    006522  aa   000000 000001
    006523  aa   000000 000001
    006524  aa   000000 000001
    006525  aa   000000 000001
    006526  aa   000000 000001
    006527  aa   000000 000001
    006530  aa   000000 000001
    006531  aa   000000 000001
    006532  aa   000000 000001
    006533  aa   000000 000001
    006534  aa   000000 000001
    006535  aa   000000 000001
    006536  aa   000000 000001
    006537  aa   000000 000001
    006540  aa   000000 000001
    006541  aa   000000 000001
    006542  aa   000000 000001
    006543  aa   000000 000001
    006544  aa   000000 000001
    006545  aa   000000 000001
    006546  aa   000000 000001
    006547  aa   000000 000001
    006550  aa   000000 000001
    006551  aa   000000 000001
    006552  aa   000000 000001
    006553  aa   000000 000001
    006554  aa   000000 000001
    006555  aa   000000 000001
    006556  aa   000000 000001
    006557  aa   000000 000001
    006560  aa   000000 000001
    006561  aa   000000 000001
    006562  aa   000000 000001
    006563  aa   000000 000001
    006564  aa   000000 000001
    006565  aa   000000 000001
    006566  aa   000000 000001
                                   955  	units (30),0
                                   956  	units (4),1
                        000004
    006625  aa   000000 000001
    006626  aa   000000 000001
    006627  aa   000000 000001
    006630  aa   000000 000001
                                   957  	units (12),0
                                   958  	units (1),2
                        000001
    006645  aa   000000 000002
                                   959  	units (21),0
                                   960  	units (1),3
                        000001
    006673  aa   000000 000003
                                   961  	units (9),0
                                   962  	units (1),1
                        000001
    006705  aa   000000 000001
                                   963  	units (2),0
                                   964  	units (1),2
                        000001
    006710  aa   000000 000002
                                   965  	units (3),0
                                   966  	units (1),4
                        000001
    006714  aa   000000 000004
                                   967  	units (27),0
                                   968  	units (1),2
                        000001
    006750  aa   000000 000002
                                   969  	units (12),0
                                   970  	units (1),1
                        000001
    006765  aa   000000 000001
                                   971  	units (1),0
                                   972  	units (1),1
                        000001
    006767  aa   000000 000001
                                   973  	units (10),0
                                   974  	units (2),2
                        000002
    007002  aa   000000 000002
    007003  aa   000000 000002
                                   975  	units (26),1
                        000032
    007004  aa   000000 000001
    007005  aa   000000 000001
    007006  aa   000000 000001
    007007  aa   000000 000001
    007010  aa   000000 000001
    007011  aa   000000 000001
    007012  aa   000000 000001
    007013  aa   000000 000001
    007014  aa   000000 000001
    007015  aa   000000 000001
    007016  aa   000000 000001
    007017  aa   000000 000001
    007020  aa   000000 000001
    007021  aa   000000 000001
    007022  aa   000000 000001
    007023  aa   000000 000001
    007024  aa   000000 000001
    007025  aa   000000 000001
    007026  aa   000000 000001
    007027  aa   000000 000001
    007030  aa   000000 000001
    007031  aa   000000 000001
    007032  aa   000000 000001
    007033  aa   000000 000001
    007034  aa   000000 000001
    007035  aa   000000 000001
                                   976  	units (1),0
                                   977  	units (4),1
                        000004
    007037  aa   000000 000001
    007040  aa   000000 000001
    007041  aa   000000 000001
    007042  aa   000000 000001
                                   978  	units (1),0
                                   979  	units (5),1
                        000005
    007044  aa   000000 000001
    007045  aa   000000 000001
    007046  aa   000000 000001
    007047  aa   000000 000001
    007050  aa   000000 000001
                                   980  	units (1),0
                                   981  	units (5),1
                        000005
    007052  aa   000000 000001
    007053  aa   000000 000001
    007054  aa   000000 000001
    007055  aa   000000 000001
    007056  aa   000000 000001
                                   982  	units (1),0
                                   983  	units (5),1
                        000005
    007060  aa   000000 000001
    007061  aa   000000 000001
    007062  aa   000000 000001
    007063  aa   000000 000001
    007064  aa   000000 000001
                                   984  	units (1),0
                                   985  	units (5),1
                        000005
    007066  aa   000000 000001
    007067  aa   000000 000001
    007070  aa   000000 000001
    007071  aa   000000 000001
    007072  aa   000000 000001
                                   986  	units (1),0
                                   987  	units (5),1
                        000005
    007074  aa   000000 000001
    007075  aa   000000 000001
    007076  aa   000000 000001
    007077  aa   000000 000001
    007100  aa   000000 000001
                                   988  	units (1),0
                                   989  	units (5),1
                        000005
    007102  aa   000000 000001
    007103  aa   000000 000001
    007104  aa   000000 000001
    007105  aa   000000 000001
    007106  aa   000000 000001
                                   990  	units (1),0
                                   991  	units (5),1
                        000005
    007110  aa   000000 000001
    007111  aa   000000 000001
    007112  aa   000000 000001
    007113  aa   000000 000001
    007114  aa   000000 000001
                                   992  	units (1),0
                                   993  	units (4),1
                        000004
    007116  aa   000000 000001
    007117  aa   000000 000001
    007120  aa   000000 000001
    007121  aa   000000 000001
                                   994  	units (2),0
                                   995  	units (1),1
                        000001
    007124  aa   000000 000001
                                   996  	units (1),0
                                   997  	units (2),1
                        000002
    007126  aa   000000 000001
    007127  aa   000000 000001
                                   998  	units (160),0
    007370                         999  uni.3:
                                  1000  	units (8),0
                                  1001  	units (1),-1
                        000001
    007400  aa   777777 777777
                                  1002  	units (18),0
                                  1003  	units (1),-1
                        000001
    007423  aa   777777 777777
                                  1004  	units (4),0
                                  1005  	units (95),1
                        000137
    007430  aa   000000 000001
    007431  aa   000000 000001
    007432  aa   000000 000001
    007433  aa   000000 000001
    007434  aa   000000 000001
    007435  aa   000000 000001
    007436  aa   000000 000001
    007437  aa   000000 000001
    007440  aa   000000 000001
    007441  aa   000000 000001
    007442  aa   000000 000001
    007443  aa   000000 000001
    007444  aa   000000 000001
    007445  aa   000000 000001
    007446  aa   000000 000001
    007447  aa   000000 000001
    007450  aa   000000 000001
    007451  aa   000000 000001
    007452  aa   000000 000001
    007453  aa   000000 000001
    007454  aa   000000 000001
    007455  aa   000000 000001
    007456  aa   000000 000001
    007457  aa   000000 000001
    007460  aa   000000 000001
    007461  aa   000000 000001
    007462  aa   000000 000001
    007463  aa   000000 000001
    007464  aa   000000 000001
    007465  aa   000000 000001
    007466  aa   000000 000001
    007467  aa   000000 000001
    007470  aa   000000 000001
    007471  aa   000000 000001
    007472  aa   000000 000001
    007473  aa   000000 000001
    007474  aa   000000 000001
    007475  aa   000000 000001
    007476  aa   000000 000001
    007477  aa   000000 000001
    007500  aa   000000 000001
    007501  aa   000000 000001
    007502  aa   000000 000001
    007503  aa   000000 000001
    007504  aa   000000 000001
    007505  aa   000000 000001
    007506  aa   000000 000001
    007507  aa   000000 000001
    007510  aa   000000 000001
    007511  aa   000000 000001
    007512  aa   000000 000001
    007513  aa   000000 000001
    007514  aa   000000 000001
    007515  aa   000000 000001
    007516  aa   000000 000001
    007517  aa   000000 000001
    007520  aa   000000 000001
    007521  aa   000000 000001
    007522  aa   000000 000001
    007523  aa   000000 000001
    007524  aa   000000 000001
    007525  aa   000000 000001
    007526  aa   000000 000001
    007527  aa   000000 000001
    007530  aa   000000 000001
    007531  aa   000000 000001
    007532  aa   000000 000001
    007533  aa   000000 000001
    007534  aa   000000 000001
    007535  aa   000000 000001
    007536  aa   000000 000001
    007537  aa   000000 000001
    007540  aa   000000 000001
    007541  aa   000000 000001
    007542  aa   000000 000001
    007543  aa   000000 000001
    007544  aa   000000 000001
    007545  aa   000000 000001
    007546  aa   000000 000001
    007547  aa   000000 000001
    007550  aa   000000 000001
    007551  aa   000000 000001
    007552  aa   000000 000001
    007553  aa   000000 000001
    007554  aa   000000 000001
    007555  aa   000000 000001
    007556  aa   000000 000001
    007557  aa   000000 000001
    007560  aa   000000 000001
    007561  aa   000000 000001
    007562  aa   000000 000001
    007563  aa   000000 000001
    007564  aa   000000 000001
    007565  aa   000000 000001
    007566  aa   000000 000001
                                  1006  	units (30),0
                                  1007  	units (3),1
                        000003
    007625  aa   000000 000001
    007626  aa   000000 000001
    007627  aa   000000 000001
                                  1008  	units (13),0
                                  1009  	units (1),2
                        000001
    007645  aa   000000 000002
                                  1010  	units (21),0
                                  1011  	units (1),3
                        000001
    007673  aa   000000 000003
                                  1012  	units (9),0
                                  1013  	units (1),1
                        000001
    007705  aa   000000 000001
                                  1014  	units (2),0
                                  1015  	units (1),2
                        000001
    007710  aa   000000 000002
                                  1016  	units (3),0
                                  1017  	units (1),4
                        000001
    007714  aa   000000 000004
                                  1018  	units (27),0
                                  1019  	units (1),2
                        000001
    007750  aa   000000 000002
                                  1020  	units (12),0
                                  1021  	units (1),1
                        000001
    007765  aa   000000 000001
                                  1022  	units (1),0
                                  1023  	units (1),1
                        000001
    007767  aa   000000 000001
                                  1024  	units (10),0
                                  1025  	units (2),2
                        000002
    010002  aa   000000 000002
    010003  aa   000000 000002
                                  1026  	units (26),1
                        000032
    010004  aa   000000 000001
    010005  aa   000000 000001
    010006  aa   000000 000001
    010007  aa   000000 000001
    010010  aa   000000 000001
    010011  aa   000000 000001
    010012  aa   000000 000001
    010013  aa   000000 000001
    010014  aa   000000 000001
    010015  aa   000000 000001
    010016  aa   000000 000001
    010017  aa   000000 000001
    010020  aa   000000 000001
    010021  aa   000000 000001
    010022  aa   000000 000001
    010023  aa   000000 000001
    010024  aa   000000 000001
    010025  aa   000000 000001
    010026  aa   000000 000001
    010027  aa   000000 000001
    010030  aa   000000 000001
    010031  aa   000000 000001
    010032  aa   000000 000001
    010033  aa   000000 000001
    010034  aa   000000 000001
    010035  aa   000000 000001
                                  1027  	units (1),0
                                  1028  	units (4),1
                        000004
    010037  aa   000000 000001
    010040  aa   000000 000001
    010041  aa   000000 000001
    010042  aa   000000 000001
                                  1029  	units (1),0
                                  1030  	units (5),1
                        000005
    010044  aa   000000 000001
    010045  aa   000000 000001
    010046  aa   000000 000001
    010047  aa   000000 000001
    010050  aa   000000 000001
                                  1031  	units (1),0
                                  1032  	units (5),1
                        000005
    010052  aa   000000 000001
    010053  aa   000000 000001
    010054  aa   000000 000001
    010055  aa   000000 000001
    010056  aa   000000 000001
                                  1033  	units (1),0
                                  1034  	units (5),1
                        000005
    010060  aa   000000 000001
    010061  aa   000000 000001
    010062  aa   000000 000001
    010063  aa   000000 000001
    010064  aa   000000 000001
                                  1035  	units (1),0
                                  1036  	units (5),1
                        000005
    010066  aa   000000 000001
    010067  aa   000000 000001
    010070  aa   000000 000001
    010071  aa   000000 000001
    010072  aa   000000 000001
                                  1037  	units (1),0
                                  1038  	units (5),1
                        000005
    010074  aa   000000 000001
    010075  aa   000000 000001
    010076  aa   000000 000001
    010077  aa   000000 000001
    010100  aa   000000 000001
                                  1039  	units (1),0
                                  1040  	units (5),1
                        000005
    010102  aa   000000 000001
    010103  aa   000000 000001
    010104  aa   000000 000001
    010105  aa   000000 000001
    010106  aa   000000 000001
                                  1041  	units (1),0
                                  1042  	units (5),1
                        000005
    010110  aa   000000 000001
    010111  aa   000000 000001
    010112  aa   000000 000001
    010113  aa   000000 000001
    010114  aa   000000 000001
                                  1043  	units (1),0
                                  1044  	units (4),1
                        000004
    010116  aa   000000 000001
    010117  aa   000000 000001
    010120  aa   000000 000001
    010121  aa   000000 000001
                                  1045  	units (2),0
                                  1046  	units (1),1
                        000001
    010124  aa   000000 000001
                                  1047  	units (1),0
                                  1048  	units (2),1
                        000002
    010126  aa   000000 000001
    010127  aa   000000 000001
                                  1049  	units (160),0
    010370                        1050  uni.4:
                                  1051  	units (8),0
                                  1052  	units (1),-1
                        000001
    010400  aa   777777 777777
                                  1053  	units (18),0
                                  1054  	units (1),-1
                        000001
    010423  aa   777777 777777
                                  1055  	units (4),0
                                  1056  	units (95),1
                        000137
    010430  aa   000000 000001
    010431  aa   000000 000001
    010432  aa   000000 000001
    010433  aa   000000 000001
    010434  aa   000000 000001
    010435  aa   000000 000001
    010436  aa   000000 000001
    010437  aa   000000 000001
    010440  aa   000000 000001
    010441  aa   000000 000001
    010442  aa   000000 000001
    010443  aa   000000 000001
    010444  aa   000000 000001
    010445  aa   000000 000001
    010446  aa   000000 000001
    010447  aa   000000 000001
    010450  aa   000000 000001
    010451  aa   000000 000001
    010452  aa   000000 000001
    010453  aa   000000 000001
    010454  aa   000000 000001
    010455  aa   000000 000001
    010456  aa   000000 000001
    010457  aa   000000 000001
    010460  aa   000000 000001
    010461  aa   000000 000001
    010462  aa   000000 000001
    010463  aa   000000 000001
    010464  aa   000000 000001
    010465  aa   000000 000001
    010466  aa   000000 000001
    010467  aa   000000 000001
    010470  aa   000000 000001
    010471  aa   000000 000001
    010472  aa   000000 000001
    010473  aa   000000 000001
    010474  aa   000000 000001
    010475  aa   000000 000001
    010476  aa   000000 000001
    010477  aa   000000 000001
    010500  aa   000000 000001
    010501  aa   000000 000001
    010502  aa   000000 000001
    010503  aa   000000 000001
    010504  aa   000000 000001
    010505  aa   000000 000001
    010506  aa   000000 000001
    010507  aa   000000 000001
    010510  aa   000000 000001
    010511  aa   000000 000001
    010512  aa   000000 000001
    010513  aa   000000 000001
    010514  aa   000000 000001
    010515  aa   000000 000001
    010516  aa   000000 000001
    010517  aa   000000 000001
    010520  aa   000000 000001
    010521  aa   000000 000001
    010522  aa   000000 000001
    010523  aa   000000 000001
    010524  aa   000000 000001
    010525  aa   000000 000001
    010526  aa   000000 000001
    010527  aa   000000 000001
    010530  aa   000000 000001
    010531  aa   000000 000001
    010532  aa   000000 000001
    010533  aa   000000 000001
    010534  aa   000000 000001
    010535  aa   000000 000001
    010536  aa   000000 000001
    010537  aa   000000 000001
    010540  aa   000000 000001
    010541  aa   000000 000001
    010542  aa   000000 000001
    010543  aa   000000 000001
    010544  aa   000000 000001
    010545  aa   000000 000001
    010546  aa   000000 000001
    010547  aa   000000 000001
    010550  aa   000000 000001
    010551  aa   000000 000001
    010552  aa   000000 000001
    010553  aa   000000 000001
    010554  aa   000000 000001
    010555  aa   000000 000001
    010556  aa   000000 000001
    010557  aa   000000 000001
    010560  aa   000000 000001
    010561  aa   000000 000001
    010562  aa   000000 000001
    010563  aa   000000 000001
    010564  aa   000000 000001
    010565  aa   000000 000001
    010566  aa   000000 000001
                                  1057  	units (30),0
                                  1058  	units (3),1
                        000003
    010625  aa   000000 000001
    010626  aa   000000 000001
    010627  aa   000000 000001
                                  1059  	units (13),0
                                  1060  	units (1),2
                        000001
    010645  aa   000000 000002
                                  1061  	units (21),0
                                  1062  	units (1),3
                        000001
    010673  aa   000000 000003
                                  1063  	units (9),0
                                  1064  	units (1),1
                        000001
    010705  aa   000000 000001
                                  1065  	units (2),0
                                  1066  	units (1),2
                        000001
    010710  aa   000000 000002
                                  1067  	units (3),0
                                  1068  	units (1),4
                        000001
    010714  aa   000000 000004
                                  1069  	units (27),0
                                  1070  	units (1),2
                        000001
    010750  aa   000000 000002
                                  1071  	units (12),0
                                  1072  	units (1),1
                        000001
    010765  aa   000000 000001
                                  1073  	units (1),0
                                  1074  	units (1),1
                        000001
    010767  aa   000000 000001
                                  1075  	units (10),0
                                  1076  	units (2),2
                        000002
    011002  aa   000000 000002
    011003  aa   000000 000002
                                  1077  	units (26),1
                        000032
    011004  aa   000000 000001
    011005  aa   000000 000001
    011006  aa   000000 000001
    011007  aa   000000 000001
    011010  aa   000000 000001
    011011  aa   000000 000001
    011012  aa   000000 000001
    011013  aa   000000 000001
    011014  aa   000000 000001
    011015  aa   000000 000001
    011016  aa   000000 000001
    011017  aa   000000 000001
    011020  aa   000000 000001
    011021  aa   000000 000001
    011022  aa   000000 000001
    011023  aa   000000 000001
    011024  aa   000000 000001
    011025  aa   000000 000001
    011026  aa   000000 000001
    011027  aa   000000 000001
    011030  aa   000000 000001
    011031  aa   000000 000001
    011032  aa   000000 000001
    011033  aa   000000 000001
    011034  aa   000000 000001
    011035  aa   000000 000001
                                  1078  	units (1),0
                                  1079  	units (4),1
                        000004
    011037  aa   000000 000001
    011040  aa   000000 000001
    011041  aa   000000 000001
    011042  aa   000000 000001
                                  1080  	units (1),0
                                  1081  	units (5),1
                        000005
    011044  aa   000000 000001
    011045  aa   000000 000001
    011046  aa   000000 000001
    011047  aa   000000 000001
    011050  aa   000000 000001
                                  1082  	units (1),0
                                  1083  	units (5),1
                        000005
    011052  aa   000000 000001
    011053  aa   000000 000001
    011054  aa   000000 000001
    011055  aa   000000 000001
    011056  aa   000000 000001
                                  1084  	units (1),0
                                  1085  	units (5),1
                        000005
    011060  aa   000000 000001
    011061  aa   000000 000001
    011062  aa   000000 000001
    011063  aa   000000 000001
    011064  aa   000000 000001
                                  1086  	units (1),0
                                  1087  	units (5),1
                        000005
    011066  aa   000000 000001
    011067  aa   000000 000001
    011070  aa   000000 000001
    011071  aa   000000 000001
    011072  aa   000000 000001
                                  1088  	units (1),0
                                  1089  	units (5),1
                        000005
    011074  aa   000000 000001
    011075  aa   000000 000001
    011076  aa   000000 000001
    011077  aa   000000 000001
    011100  aa   000000 000001
                                  1090  	units (1),0
                                  1091  	units (5),1
                        000005
    011102  aa   000000 000001
    011103  aa   000000 000001
    011104  aa   000000 000001
    011105  aa   000000 000001
    011106  aa   000000 000001
                                  1092  	units (1),0
                                  1093  	units (5),1
                        000005
    011110  aa   000000 000001
    011111  aa   000000 000001
    011112  aa   000000 000001
    011113  aa   000000 000001
    011114  aa   000000 000001
                                  1094  	units (1),0
                                  1095  	units (4),1
                        000004
    011116  aa   000000 000001
    011117  aa   000000 000001
    011120  aa   000000 000001
    011121  aa   000000 000001
                                  1096  	units (2),0
                                  1097  	units (1),1
                        000001
    011124  aa   000000 000001
                                  1098  	units (1),0
                                  1099  	units (2),1
                        000002
    011126  aa   000000 000001
    011127  aa   000000 000001
                                  1100  	units (160),0
    011370                        1101  uni.5:
                                  1102  	units (8),0
                                  1103  	units (1),-1
                        000001
    011400  aa   777777 777777
                                  1104  	units (18),0
                                  1105  	units (1),-1
                        000001
    011423  aa   777777 777777
                                  1106  	units (4),0
                                  1107  	units (95),1
                        000137
    011430  aa   000000 000001
    011431  aa   000000 000001
    011432  aa   000000 000001
    011433  aa   000000 000001
    011434  aa   000000 000001
    011435  aa   000000 000001
    011436  aa   000000 000001
    011437  aa   000000 000001
    011440  aa   000000 000001
    011441  aa   000000 000001
    011442  aa   000000 000001
    011443  aa   000000 000001
    011444  aa   000000 000001
    011445  aa   000000 000001
    011446  aa   000000 000001
    011447  aa   000000 000001
    011450  aa   000000 000001
    011451  aa   000000 000001
    011452  aa   000000 000001
    011453  aa   000000 000001
    011454  aa   000000 000001
    011455  aa   000000 000001
    011456  aa   000000 000001
    011457  aa   000000 000001
    011460  aa   000000 000001
    011461  aa   000000 000001
    011462  aa   000000 000001
    011463  aa   000000 000001
    011464  aa   000000 000001
    011465  aa   000000 000001
    011466  aa   000000 000001
    011467  aa   000000 000001
    011470  aa   000000 000001
    011471  aa   000000 000001
    011472  aa   000000 000001
    011473  aa   000000 000001
    011474  aa   000000 000001
    011475  aa   000000 000001
    011476  aa   000000 000001
    011477  aa   000000 000001
    011500  aa   000000 000001
    011501  aa   000000 000001
    011502  aa   000000 000001
    011503  aa   000000 000001
    011504  aa   000000 000001
    011505  aa   000000 000001
    011506  aa   000000 000001
    011507  aa   000000 000001
    011510  aa   000000 000001
    011511  aa   000000 000001
    011512  aa   000000 000001
    011513  aa   000000 000001
    011514  aa   000000 000001
    011515  aa   000000 000001
    011516  aa   000000 000001
    011517  aa   000000 000001
    011520  aa   000000 000001
    011521  aa   000000 000001
    011522  aa   000000 000001
    011523  aa   000000 000001
    011524  aa   000000 000001
    011525  aa   000000 000001
    011526  aa   000000 000001
    011527  aa   000000 000001
    011530  aa   000000 000001
    011531  aa   000000 000001
    011532  aa   000000 000001
    011533  aa   000000 000001
    011534  aa   000000 000001
    011535  aa   000000 000001
    011536  aa   000000 000001
    011537  aa   000000 000001
    011540  aa   000000 000001
    011541  aa   000000 000001
    011542  aa   000000 000001
    011543  aa   000000 000001
    011544  aa   000000 000001
    011545  aa   000000 000001
    011546  aa   000000 000001
    011547  aa   000000 000001
    011550  aa   000000 000001
    011551  aa   000000 000001
    011552  aa   000000 000001
    011553  aa   000000 000001
    011554  aa   000000 000001
    011555  aa   000000 000001
    011556  aa   000000 000001
    011557  aa   000000 000001
    011560  aa   000000 000001
    011561  aa   000000 000001
    011562  aa   000000 000001
    011563  aa   000000 000001
    011564  aa   000000 000001
    011565  aa   000000 000001
    011566  aa   000000 000001
                                  1108  	units (30),0
                                  1109  	units (4),1
                        000004
    011625  aa   000000 000001
    011626  aa   000000 000001
    011627  aa   000000 000001
    011630  aa   000000 000001
                                  1110  	units (12),0
                                  1111  	units (1),2
                        000001
    011645  aa   000000 000002
                                  1112  	units (21),0
                                  1113  	units (1),3
                        000001
    011673  aa   000000 000003
                                  1114  	units (9),0
                                  1115  	units (1),1
                        000001
    011705  aa   000000 000001
                                  1116  	units (2),0
                                  1117  	units (1),2
                        000001
    011710  aa   000000 000002
                                  1118  	units (3),0
                                  1119  	units (1),4
                        000001
    011714  aa   000000 000004
                                  1120  	units (27),0
                                  1121  	units (1),2
                        000001
    011750  aa   000000 000002
                                  1122  	units (12),0
                                  1123  	units (1),1
                        000001
    011765  aa   000000 000001
                                  1124  	units (1),0
                                  1125  	units (1),1
                        000001
    011767  aa   000000 000001
                                  1126  	units (10),0
                                  1127  	units (2),2
                        000002
    012002  aa   000000 000002
    012003  aa   000000 000002
                                  1128  	units (26),1
                        000032
    012004  aa   000000 000001
    012005  aa   000000 000001
    012006  aa   000000 000001
    012007  aa   000000 000001
    012010  aa   000000 000001
    012011  aa   000000 000001
    012012  aa   000000 000001
    012013  aa   000000 000001
    012014  aa   000000 000001
    012015  aa   000000 000001
    012016  aa   000000 000001
    012017  aa   000000 000001
    012020  aa   000000 000001
    012021  aa   000000 000001
    012022  aa   000000 000001
    012023  aa   000000 000001
    012024  aa   000000 000001
    012025  aa   000000 000001
    012026  aa   000000 000001
    012027  aa   000000 000001
    012030  aa   000000 000001
    012031  aa   000000 000001
    012032  aa   000000 000001
    012033  aa   000000 000001
    012034  aa   000000 000001
    012035  aa   000000 000001
                                  1129  	units (1),0
                                  1130  	units (4),1
                        000004
    012037  aa   000000 000001
    012040  aa   000000 000001
    012041  aa   000000 000001
    012042  aa   000000 000001
                                  1131  	units (1),0
                                  1132  	units (5),1
                        000005
    012044  aa   000000 000001
    012045  aa   000000 000001
    012046  aa   000000 000001
    012047  aa   000000 000001
    012050  aa   000000 000001
                                  1133  	units (1),0
                                  1134  	units (5),1
                        000005
    012052  aa   000000 000001
    012053  aa   000000 000001
    012054  aa   000000 000001
    012055  aa   000000 000001
    012056  aa   000000 000001
                                  1135  	units (1),0
                                  1136  	units (5),1
                        000005
    012060  aa   000000 000001
    012061  aa   000000 000001
    012062  aa   000000 000001
    012063  aa   000000 000001
    012064  aa   000000 000001
                                  1137  	units (1),0
                                  1138  	units (5),1
                        000005
    012066  aa   000000 000001
    012067  aa   000000 000001
    012070  aa   000000 000001
    012071  aa   000000 000001
    012072  aa   000000 000001
                                  1139  	units (1),0
                                  1140  	units (5),1
                        000005
    012074  aa   000000 000001
    012075  aa   000000 000001
    012076  aa   000000 000001
    012077  aa   000000 000001
    012100  aa   000000 000001
                                  1141  	units (1),0
                                  1142  	units (5),1
                        000005
    012102  aa   000000 000001
    012103  aa   000000 000001
    012104  aa   000000 000001
    012105  aa   000000 000001
    012106  aa   000000 000001
                                  1143  	units (1),0
                                  1144  	units (5),1
                        000005
    012110  aa   000000 000001
    012111  aa   000000 000001
    012112  aa   000000 000001
    012113  aa   000000 000001
    012114  aa   000000 000001
                                  1145  	units (1),0
                                  1146  	units (4),1
                        000004
    012116  aa   000000 000001
    012117  aa   000000 000001
    012120  aa   000000 000001
    012121  aa   000000 000001
                                  1147  	units (2),0
                                  1148  	units (1),1
                        000001
    012124  aa   000000 000001
                                  1149  	units (1),0
                                  1150  	units (2),1
                        000002
    012126  aa   000000 000001
    012127  aa   000000 000001
                                  1151  	units (160),0
    012370                        1152  uni.6:
                                  1153  	units (8),0
                                  1154  	units (1),-1
                        000001
    012400  aa   777777 777777
                                  1155  	units (18),0
                                  1156  	units (1),-1
                        000001
    012423  aa   777777 777777
                                  1157  	units (4),0
                                  1158  	units (95),1
                        000137
    012430  aa   000000 000001
    012431  aa   000000 000001
    012432  aa   000000 000001
    012433  aa   000000 000001
    012434  aa   000000 000001
    012435  aa   000000 000001
    012436  aa   000000 000001
    012437  aa   000000 000001
    012440  aa   000000 000001
    012441  aa   000000 000001
    012442  aa   000000 000001
    012443  aa   000000 000001
    012444  aa   000000 000001
    012445  aa   000000 000001
    012446  aa   000000 000001
    012447  aa   000000 000001
    012450  aa   000000 000001
    012451  aa   000000 000001
    012452  aa   000000 000001
    012453  aa   000000 000001
    012454  aa   000000 000001
    012455  aa   000000 000001
    012456  aa   000000 000001
    012457  aa   000000 000001
    012460  aa   000000 000001
    012461  aa   000000 000001
    012462  aa   000000 000001
    012463  aa   000000 000001
    012464  aa   000000 000001
    012465  aa   000000 000001
    012466  aa   000000 000001
    012467  aa   000000 000001
    012470  aa   000000 000001
    012471  aa   000000 000001
    012472  aa   000000 000001
    012473  aa   000000 000001
    012474  aa   000000 000001
    012475  aa   000000 000001
    012476  aa   000000 000001
    012477  aa   000000 000001
    012500  aa   000000 000001
    012501  aa   000000 000001
    012502  aa   000000 000001
    012503  aa   000000 000001
    012504  aa   000000 000001
    012505  aa   000000 000001
    012506  aa   000000 000001
    012507  aa   000000 000001
    012510  aa   000000 000001
    012511  aa   000000 000001
    012512  aa   000000 000001
    012513  aa   000000 000001
    012514  aa   000000 000001
    012515  aa   000000 000001
    012516  aa   000000 000001
    012517  aa   000000 000001
    012520  aa   000000 000001
    012521  aa   000000 000001
    012522  aa   000000 000001
    012523  aa   000000 000001
    012524  aa   000000 000001
    012525  aa   000000 000001
    012526  aa   000000 000001
    012527  aa   000000 000001
    012530  aa   000000 000001
    012531  aa   000000 000001
    012532  aa   000000 000001
    012533  aa   000000 000001
    012534  aa   000000 000001
    012535  aa   000000 000001
    012536  aa   000000 000001
    012537  aa   000000 000001
    012540  aa   000000 000001
    012541  aa   000000 000001
    012542  aa   000000 000001
    012543  aa   000000 000001
    012544  aa   000000 000001
    012545  aa   000000 000001
    012546  aa   000000 000001
    012547  aa   000000 000001
    012550  aa   000000 000001
    012551  aa   000000 000001
    012552  aa   000000 000001
    012553  aa   000000 000001
    012554  aa   000000 000001
    012555  aa   000000 000001
    012556  aa   000000 000001
    012557  aa   000000 000001
    012560  aa   000000 000001
    012561  aa   000000 000001
    012562  aa   000000 000001
    012563  aa   000000 000001
    012564  aa   000000 000001
    012565  aa   000000 000001
    012566  aa   000000 000001
                                  1159  	units (30),0
                                  1160  	units (4),1
                        000004
    012625  aa   000000 000001
    012626  aa   000000 000001
    012627  aa   000000 000001
    012630  aa   000000 000001
                                  1161  	units (12),0
                                  1162  	units (1),2
                        000001
    012645  aa   000000 000002
                                  1163  	units (21),0
                                  1164  	units (1),3
                        000001
    012673  aa   000000 000003
                                  1165  	units (9),0
                                  1166  	units (1),1
                        000001
    012705  aa   000000 000001
                                  1167  	units (2),0
                                  1168  	units (1),2
                        000001
    012710  aa   000000 000002
                                  1169  	units (3),0
                                  1170  	units (1),4
                        000001
    012714  aa   000000 000004
                                  1171  	units (27),0
                                  1172  	units (1),2
                        000001
    012750  aa   000000 000002
                                  1173  	units (12),0
                                  1174  	units (1),1
                        000001
    012765  aa   000000 000001
                                  1175  	units (1),0
                                  1176  	units (1),1
                        000001
    012767  aa   000000 000001
                                  1177  	units (10),0
                                  1178  	units (2),2
                        000002
    013002  aa   000000 000002
    013003  aa   000000 000002
                                  1179  	units (26),1
                        000032
    013004  aa   000000 000001
    013005  aa   000000 000001
    013006  aa   000000 000001
    013007  aa   000000 000001
    013010  aa   000000 000001
    013011  aa   000000 000001
    013012  aa   000000 000001
    013013  aa   000000 000001
    013014  aa   000000 000001
    013015  aa   000000 000001
    013016  aa   000000 000001
    013017  aa   000000 000001
    013020  aa   000000 000001
    013021  aa   000000 000001
    013022  aa   000000 000001
    013023  aa   000000 000001
    013024  aa   000000 000001
    013025  aa   000000 000001
    013026  aa   000000 000001
    013027  aa   000000 000001
    013030  aa   000000 000001
    013031  aa   000000 000001
    013032  aa   000000 000001
    013033  aa   000000 000001
    013034  aa   000000 000001
    013035  aa   000000 000001
                                  1180  	units (1),0
                                  1181  	units (4),1
                        000004
    013037  aa   000000 000001
    013040  aa   000000 000001
    013041  aa   000000 000001
    013042  aa   000000 000001
                                  1182  	units (1),0
                                  1183  	units (5),1
                        000005
    013044  aa   000000 000001
    013045  aa   000000 000001
    013046  aa   000000 000001
    013047  aa   000000 000001
    013050  aa   000000 000001
                                  1184  	units (1),0
                                  1185  	units (5),1
                        000005
    013052  aa   000000 000001
    013053  aa   000000 000001
    013054  aa   000000 000001
    013055  aa   000000 000001
    013056  aa   000000 000001
                                  1186  	units (1),0
                                  1187  	units (5),1
                        000005
    013060  aa   000000 000001
    013061  aa   000000 000001
    013062  aa   000000 000001
    013063  aa   000000 000001
    013064  aa   000000 000001
                                  1188  	units (1),0
                                  1189  	units (5),1
                        000005
    013066  aa   000000 000001
    013067  aa   000000 000001
    013070  aa   000000 000001
    013071  aa   000000 000001
    013072  aa   000000 000001
                                  1190  	units (1),0
                                  1191  	units (5),1
                        000005
    013074  aa   000000 000001
    013075  aa   000000 000001
    013076  aa   000000 000001
    013077  aa   000000 000001
    013100  aa   000000 000001
                                  1192  	units (1),0
                                  1193  	units (5),1
                        000005
    013102  aa   000000 000001
    013103  aa   000000 000001
    013104  aa   000000 000001
    013105  aa   000000 000001
    013106  aa   000000 000001
                                  1194  	units (1),0
                                  1195  	units (5),1
                        000005
    013110  aa   000000 000001
    013111  aa   000000 000001
    013112  aa   000000 000001
    013113  aa   000000 000001
    013114  aa   000000 000001
                                  1196  	units (1),0
                                  1197  	units (4),1
                        000004
    013116  aa   000000 000001
    013117  aa   000000 000001
    013120  aa   000000 000001
    013121  aa   000000 000001
                                  1198  	units (2),0
                                  1199  	units (1),1
                        000001
    013124  aa   000000 000001
                                  1200  	units (1),0
                                  1201  	units (2),1
                        000002
    013126  aa   000000 000001
    013127  aa   000000 000001
                                  1202  	units (160),0
    013370                        1203  opu.1:
                                  1204  	oput.data_ct	351
    013370  aa   000000 000537
                                  1205  	no_ch (8)
                                  1206  	ch    1,s000615 [-1]	010 BSP
    013401  a0   000001 017777
                                  1207  	no_ch (3)
                                  1208  	ch    1,s000631 [ 0]	014 FF
    013405  a0   000001 020013
                                  1209  	no_ch (1)
                                  1210  	ch    1,s000625 [ 0]	016
    013407  a0   000001 020007
                                  1211  	ch    1,s000627 [ 0]	017
    013410  a0   000001 020011
                                  1212  	no_ch (11)
                                  1213  	ch    1,s000633 [-1]	033 ESC
    013424  a0   000001 020015
                                  1214  	no_ch (4)
                                  1215  	ch    1,s000317 [ 1]	040 SP
    013431  a0   000001 017501
                                  1216  	ch    1,s000321 [ 1]	041 !
    013432  a0   000001 017503
                                  1217  	ch    1,s000323 [ 1]	042 "
    013433  a0   000001 017505
                                  1218  	ch    1,s000325 [ 1]	043 #
    013434  a0   000001 017507
                                  1219  	ch    1,s000327 [ 1]	044 $
    013435  a0   000001 017511
                                  1220  	ch    1,s000331 [ 1]	045 %
    013436  a0   000001 017513
                                  1221  	ch    1,s000333 [ 1]	046 &
    013437  a0   000001 017515
                                  1222  	ch    1,s000335 [ 1]	047 '
    013440  a0   000001 017517
                                  1223  	ch    1,s000337 [ 1]	050 Lp
    013441  a0   000001 017521
                                  1224  	ch    1,s000341 [ 1]	051 Rp
    013442  a0   000001 017523
                                  1225  	ch    1,s000343 [ 1]	052 *
    013443  a0   000001 017525
                                  1226  	ch    1,s000345 [ 1]	053 +
    013444  a0   000001 017527
                                  1227  	ch    1,s000347 [ 1]	054 ,
    013445  a0   000001 017531
                                  1228  	ch    1,s000351 [ 1]	055 -
    013446  a0   000001 017533
                                  1229  	ch    1,s000353 [ 1]	056 .
    013447  a0   000001 017535
                                  1230  	ch    1,s000355 [ 1]	057 /
    013450  a0   000001 017537
                                  1231  	ch    1,s000357 [ 1]	060 0
    013451  a0   000001 017541
                                  1232  	ch    1,s000361 [ 1]	061 1
    013452  a0   000001 017543
                                  1233  	ch    1,s000363 [ 1]	062 2
    013453  a0   000001 017545
                                  1234  	ch    1,s000365 [ 1]	063 3
    013454  a0   000001 017547
                                  1235  	ch    1,s000367 [ 1]	064 4
    013455  a0   000001 017551
                                  1236  	ch    1,s000371 [ 1]	065 5
    013456  a0   000001 017553
                                  1237  	ch    1,s000373 [ 1]	066 6
    013457  a0   000001 017555
                                  1238  	ch    1,s000375 [ 1]	067 7
    013460  a0   000001 017557
                                  1239  	ch    1,s000377 [ 1]	070 8
    013461  a0   000001 017561
                                  1240  	ch    1,s000401 [ 1]	071 9
    013462  a0   000001 017563
                                  1241  	ch    1,s000403 [ 1]	072 :
    013463  a0   000001 017565
                                  1242  	ch    1,s000405 [ 1]	073 ;
    013464  a0   000001 017567
                                  1243  	ch    1,s000407 [ 1]	074 <
    013465  a0   000001 017571
                                  1244  	ch    1,s000411 [ 1]	075 =
    013466  a0   000001 017573
                                  1245  	ch    1,s000413 [ 1]	076 >
    013467  a0   000001 017575
                                  1246  	ch    1,s000415 [ 1]	077 ?
    013470  a0   000001 017577
                                  1247  	ch    1,s000417 [ 1]	100 @
    013471  a0   000001 017601
                                  1248  	ch    1,s000421 [ 1]	101 A
    013472  a0   000001 017603
                                  1249  	ch    1,s000423 [ 1]	102 B
    013473  a0   000001 017605
                                  1250  	ch    1,s000425 [ 1]	103 C
    013474  a0   000001 017607
                                  1251  	ch    1,s000427 [ 1]	104 D
    013475  a0   000001 017611
                                  1252  	ch    1,s000431 [ 1]	105 E
    013476  a0   000001 017613
                                  1253  	ch    1,s000433 [ 1]	106 F
    013477  a0   000001 017615
                                  1254  	ch    1,s000435 [ 1]	107 G
    013500  a0   000001 017617
                                  1255  	ch    1,s000437 [ 1]	110 H
    013501  a0   000001 017621
                                  1256  	ch    1,s000441 [ 1]	111 I
    013502  a0   000001 017623
                                  1257  	ch    1,s000443 [ 1]	112 J
    013503  a0   000001 017625
                                  1258  	ch    1,s000445 [ 1]	113 K
    013504  a0   000001 017627
                                  1259  	ch    1,s000447 [ 1]	114 L
    013505  a0   000001 017631
                                  1260  	ch    1,s000451 [ 1]	115 M
    013506  a0   000001 017633
                                  1261  	ch    1,s000453 [ 1]	116 N
    013507  a0   000001 017635
                                  1262  	ch    1,s000455 [ 1]	117 O
    013510  a0   000001 017637
                                  1263  	ch    1,s000457 [ 1]	120 P
    013511  a0   000001 017641
                                  1264  	ch    1,s000461 [ 1]	121 Q
    013512  a0   000001 017643
                                  1265  	ch    1,s000463 [ 1]	122 R
    013513  a0   000001 017645
                                  1266  	ch    1,s000465 [ 1]	123 S
    013514  a0   000001 017647
                                  1267  	ch    1,s000467 [ 1]	124 T
    013515  a0   000001 017651
                                  1268  	ch    1,s000471 [ 1]	125 U
    013516  a0   000001 017653
                                  1269  	ch    1,s000473 [ 1]	126 V
    013517  a0   000001 017655
                                  1270  	ch    1,s000475 [ 1]	127 W
    013520  a0   000001 017657
                                  1271  	ch    1,s000477 [ 1]	130 X
    013521  a0   000001 017661
                                  1272  	ch    1,s000501 [ 1]	131 Y
    013522  a0   000001 017663
                                  1273  	ch    1,s000503 [ 1]	132 Z
    013523  a0   000001 017665
                                  1274  	ch    1,s000505 [ 1]	133 [
    013524  a0   000001 017667
                                  1275  	ch    1,s000507 [ 1]	134 \
    013525  a0   000001 017671
                                  1276  	ch    1,s000511 [ 1]	135 ]
    013526  a0   000001 017673
                                  1277  	ch    1,s000513 [ 1]	136 ^
    013527  a0   000001 017675
                                  1278  	ch    1,s000515 [ 1]	137 _
    013530  a0   000001 017677
                                  1279  	ch    1,s000517 [ 1]	140 `
    013531  a0   000001 017701
                                  1280  	ch    1,s000521 [ 1]	141 a
    013532  a0   000001 017703
                                  1281  	ch    1,s000523 [ 1]	142 b
    013533  a0   000001 017705
                                  1282  	ch    1,s000525 [ 1]	143 c
    013534  a0   000001 017707
                                  1283  	ch    1,s000527 [ 1]	144 d
    013535  a0   000001 017711
                                  1284  	ch    1,s000531 [ 1]	145 e
    013536  a0   000001 017713
                                  1285  	ch    1,s000533 [ 1]	146 f
    013537  a0   000001 017715
                                  1286  	ch    1,s000535 [ 1]	147 g
    013540  a0   000001 017717
                                  1287  	ch    1,s000537 [ 1]	150 h
    013541  a0   000001 017721
                                  1288  	ch    1,s000541 [ 1]	151 i
    013542  a0   000001 017723
                                  1289  	ch    1,s000543 [ 1]	152 j
    013543  a0   000001 017725
                                  1290  	ch    1,s000545 [ 1]	153 k
    013544  a0   000001 017727
                                  1291  	ch    1,s000547 [ 1]	154 l
    013545  a0   000001 017731
                                  1292  	ch    1,s000551 [ 1]	155 m
    013546  a0   000001 017733
                                  1293  	ch    1,s000553 [ 1]	156 n
    013547  a0   000001 017735
                                  1294  	ch    1,s000555 [ 1]	157 o
    013550  a0   000001 017737
                                  1295  	ch    1,s000557 [ 1]	160 p
    013551  a0   000001 017741
                                  1296  	ch    1,s000561 [ 1]	161 q
    013552  a0   000001 017743
                                  1297  	ch    1,s000563 [ 1]	162 r
    013553  a0   000001 017745
                                  1298  	ch    1,s000565 [ 1]	163 s
    013554  a0   000001 017747
                                  1299  	ch    1,s000567 [ 1]	164 t
    013555  a0   000001 017751
                                  1300  	ch    1,s000571 [ 1]	165 u
    013556  a0   000001 017753
                                  1301  	ch    1,s000573 [ 1]	166 v
    013557  a0   000001 017755
                                  1302  	ch    1,s000575 [ 1]	167 w
    013560  a0   000001 017757
                                  1303  	ch    1,s000577 [ 1]	170 x
    013561  a0   000001 017761
                                  1304  	ch    1,s000601 [ 1]	171 y
    013562  a0   000001 017763
                                  1305  	ch    1,s000603 [ 1]	172 z
    013563  a0   000001 017765
                                  1306  	ch    1,s000605 [ 1]	173 {
    013564  a0   000001 017767
                                  1307  	ch    1,s000607 [ 1]	174 |
    013565  a0   000001 017771
                                  1308  	ch    1,s000611 [ 1]	175 }
    013566  a0   000001 017773
                                  1309  	ch    1,s000613 [ 1]	176 ~
    013567  a0   000001 017775
                                  1310  	ch    1,s000635 [ 0]	177 PAD
    013570  a0   000001 020017
                                  1311  	no_ch (29)
                                  1312  	ch    1,s000637 [ 1]	235
    013626  a0   000001 020021
                                  1313  	ch    1,s000641 [ 1]	236
    013627  a0   000001 020023
                                  1314  	ch    1,s000643 [ 1]	237
    013630  a0   000001 020025
                                  1315  	ch    1,s000617 [ 1]	240
    013631  a0   000001 020001
                                  1316  	no_ch (12)
                                  1317  	ch    1,s000623 [ 2]	255 EMdash
    013646  a0   000001 020005
                                  1318  	no_ch (17)
                                  1319  	ch    1,s000002 [ 0]	277
    013670  a0   000001 017500
                                  1320  	no_ch (3)
                                  1321  	ch    1,s000664 [ 3]	303 copyright
    013674  a0   000001 020046
                                  1322  	no_ch (9)
                                  1323  	ch    1,s000651 [ 1]	315 bullet
    013706  a0   000001 020033
                                  1324  	no_ch (2)
                                  1325  	ch    1,s000660 [ 2]	320 PI
    013711  a0   000001 020042
                                  1326  	no_ch (3)
                                  1327  	ch    1,s000666 [ 4]	324
    013715  a0   000001 020050
                                  1328  	no_ch (27)
                                  1329  	ch    1,s000662 [ 2]	360 pi
    013751  a0   000001 020044
                                  1330  	no_ch (12)
                                  1331  	ch    1,s000645 [ 1]	375 square
    013766  a0   000001 020027
                                  1332  	no_ch (1)
                                  1333  	ch    1,s000317 [ 1]	377 punct SP
    013770  a0   000001 017501
                                  1334  	no_ch (10)
                                  1335  	ch    1,s000621 [ 2]	412 EM
    014003  a0   000001 020003
                                  1336  	ch    1,s000647 [ 2]	413 EM _dash
    014004  a0   000001 020031
                                  1337  	ch    1,s000317 [ 1]	414 EN
    014005  a0   000001 017501
                                  1338  	ch    1,s000515 [ 1]	415 EN _dash
    014006  a0   000001 017677
                                  1339  	ch    1,s000351 [ 1]	416 EN dash
    014007  a0   000001 017533
                                  1340  	ch    1,s000317 [ 1]	417 thin space
    014010  a0   000001 017501
                                  1341  	ch    1,s000351 [ 1]	420 hyphen
    014011  a0   000001 017533
                                  1342  	ch    1,s000323 [ 1]	421 ``
    014012  a0   000001 017505
                                  1343  	ch    1,s000323 [ 1]	422 ''
    014013  a0   000001 017505
                                  1344  	ch    1,s000477 [ 1]	423 1hi X
    014014  a0   000001 017661
                                  1345  	ch    1,s000653 [ 1]	424
    014015  a0   000001 020035
                                  1346  	ch    1,s000573 [ 1]	425 v|
    014016  a0   000001 017755
                                  1347  	ch    1,s000573 [ 1]	426
    014017  a0   000001 017755
                                  1348  	ch    1,s000407 [ 1]	427 dia left
    014020  a0   000001 017571
                                  1349  	ch    1,s000343 [ 1]	430 delete mark
    014021  a0   000001 017525
                                  1350  	ch    1,s000413 [ 1]	431 dia right
    014022  a0   000001 017575
                                  1351  	ch    1,s000513 [ 1]	432 dia top
    014023  a0   000001 017675
                                  1352  	ch    1,s000407 [ 1]	433 <
    014024  a0   000001 017571
                                  1353  	ch    1,s000605 [ 1]	434 1hi {
    014025  a0   000001 017767
                                  1354  	ch    1,s000505 [ 1]	435 1hi [
    014026  a0   000001 017667
                                  1355  	ch    1,s000337 [ 1]	436 left circle
    014027  a0   000001 017521
                                  1356  	ch    1,s000337 [ 1]	437
    014030  a0   000001 017521
                                  1357  	ch    1,s000413 [ 1]	440 ->
    014031  a0   000001 017575
                                  1358  	ch    1,s000611 [ 1]	441 1hi }
    014032  a0   000001 017773
                                  1359  	ch    1,s000511 [ 1]	442 1hi ]
    014033  a0   000001 017673
                                  1360  	ch    1,s000341 [ 1]	443 right circle
    014034  a0   000001 017523
                                  1361  	ch    1,s000341 [ 1]	444
    014035  a0   000001 017523
                                  1362  	ch    1,s000513 [ 1]	445 ^|
    014036  a0   000001 017675
                                  1363  	no_ch (1)
                                  1364  	ch    1,s000505 [ 1]	447
    014040  a0   000001 017667
                                  1365  	ch    1,s000505 [ 1]	450
    014041  a0   000001 017667
                                  1366  	ch    1,s000505 [ 1]	451
    014042  a0   000001 017667
                                  1367  	ch    1,s000505 [ 1]	452
    014043  a0   000001 017667
                                  1368  	ch    1,s000002 [ 0]	453
    014044  a0   000001 017500
                                  1369  	ch    1,s000505 [ 1]	454
    014045  a0   000001 017667
                                  1370  	ch    1,s000511 [ 1]	455
    014046  a0   000001 017673
                                  1371  	ch    1,s000511 [ 1]	456
    014047  a0   000001 017673
                                  1372  	ch    1,s000511 [ 1]	457
    014050  a0   000001 017673
                                  1373  	ch    1,s000511 [ 1]	460
    014051  a0   000001 017673
                                  1374  	ch    1,s000002 [ 0]	461
    014052  a0   000001 017500
                                  1375  	ch    1,s000511 [ 1]	462
    014053  a0   000001 017673
                                  1376  	ch    1,s000605 [ 1]	463
    014054  a0   000001 017767
                                  1377  	ch    1,s000605 [ 1]	464
    014055  a0   000001 017767
                                  1378  	ch    1,s000605 [ 1]	465
    014056  a0   000001 017767
                                  1379  	ch    1,s000605 [ 1]	466
    014057  a0   000001 017767
                                  1380  	ch    1,s000002 [ 0]	467
    014060  a0   000001 017500
                                  1381  	ch    1,s000605 [ 1]	470
    014061  a0   000001 017767
                                  1382  	ch    1,s000611 [ 1]	471
    014062  a0   000001 017773
                                  1383  	ch    1,s000611 [ 1]	472
    014063  a0   000001 017773
                                  1384  	ch    1,s000611 [ 1]	473
    014064  a0   000001 017773
                                  1385  	ch    1,s000611 [ 1]	474
    014065  a0   000001 017773
                                  1386  	ch    1,s000002 [ 0]	475
    014066  a0   000001 017500
                                  1387  	ch    1,s000611 [ 1]	476
    014067  a0   000001 017773
                                  1388  	ch    1,s000337 [ 1]	477
    014070  a0   000001 017521
                                  1389  	ch    1,s000337 [ 1]	500
    014071  a0   000001 017521
                                  1390  	ch    1,s000337 [ 1]	501
    014072  a0   000001 017521
                                  1391  	ch    1,s000337 [ 1]	502
    014073  a0   000001 017521
                                  1392  	ch    1,s000002 [ 0]	503
    014074  a0   000001 017500
                                  1393  	ch    1,s000337 [ 1]	504
    014075  a0   000001 017521
                                  1394  	ch    1,s000341 [ 1]	505
    014076  a0   000001 017523
                                  1395  	ch    1,s000341 [ 1]	506
    014077  a0   000001 017523
                                  1396  	ch    1,s000341 [ 1]	507
    014100  a0   000001 017523
                                  1397  	ch    1,s000341 [ 1]	510
    014101  a0   000001 017523
                                  1398  	ch    1,s000002 [ 0]	511
    014102  a0   000001 017500
                                  1399  	ch    1,s000341 [ 1]	512
    014103  a0   000001 017523
                                  1400  	ch    1,s000607 [ 1]	513
    014104  a0   000001 017771
                                  1401  	ch    1,s000607 [ 1]	514
    014105  a0   000001 017771
                                  1402  	ch    1,s000607 [ 1]	515
    014106  a0   000001 017771
                                  1403  	ch    1,s000607 [ 1]	516
    014107  a0   000001 017771
                                  1404  	ch    1,s000002 [ 0]	517
    014110  a0   000001 017500
                                  1405  	ch    1,s000607 [ 1]	520
    014111  a0   000001 017771
                                  1406  	ch    1,s000656 [ 1]	521
    014112  a0   000001 020040
                                  1407  	ch    1,s000656 [ 1]	522
    014113  a0   000001 020040
                                  1408  	ch    1,s000656 [ 1]	523
    014114  a0   000001 020040
                                  1409  	ch    1,s000656 [ 1]	524
    014115  a0   000001 020040
                                  1410  	ch    1,s000002 [ 0]	525
    014116  a0   000001 017500
                                  1411  	ch    1,s000656 [ 1]	526
    014117  a0   000001 020040
                                  1412  	ch    1,s000607 [ 1]	527
    014120  a0   000001 017771
                                  1413  	ch    1,s000656 [ 1]	530
    014121  a0   000001 020040
                                  1414  	ch    1,s000355 [ 1]	531
    014122  a0   000001 017537
                                  1415  	ch    1,s000670 [ 0]	532
    014123  a0   000001 020052
                                  1416  	ch    1,s000002 [ 0]	533
    014124  a0   000001 017500
                                  1417  	ch    1,s000515 [ 1]	534
    014125  a0   000001 017677
                                  1418  	ch    1,s000002 [ 0]	535
    014126  a0   000001 017500
                                  1419  	ch    1,s000507 [ 1]	536
    014127  a0   000001 017671
                                  1420  	ch    1,s000355 [ 1]	537
    014130  a0   000001 017537
    014131                        1421  opu.2:
                                  1422  	oput.data_ct	351
    014131  aa   000000 000537
                                  1423  	no_ch (8)
                                  1424  	ch    1,s000615 [-1]	010 BSP
    014142  a0   000001 017777
                                  1425  	no_ch (3)
                                  1426  	ch    1,s000631 [ 0]	014 FF
    014146  a0   000001 020013
                                  1427  	no_ch (1)
                                  1428  	ch    1,s000625 [ 0]	016
    014150  a0   000001 020007
                                  1429  	ch    1,s000627 [ 0]	017
    014151  a0   000001 020011
                                  1430  	no_ch (11)
                                  1431  	ch    1,s000633 [-1]	033 ESC
    014165  a0   000001 020015
                                  1432  	no_ch (4)
                                  1433  	ch    1,s000317 [ 1]	040 SP
    014172  a0   000001 017501
                                  1434  	ch    1,s000321 [ 1]	041 !
    014173  a0   000001 017503
                                  1435  	ch    1,s000323 [ 1]	042 "
    014174  a0   000001 017505
                                  1436  	ch    1,s000325 [ 1]	043 #
    014175  a0   000001 017507
                                  1437  	ch    1,s000327 [ 1]	044 $
    014176  a0   000001 017511
                                  1438  	ch    1,s000331 [ 1]	045 %
    014177  a0   000001 017513
                                  1439  	ch    1,s000333 [ 1]	046 &
    014200  a0   000001 017515
                                  1440  	ch    1,s000335 [ 1]	047 '
    014201  a0   000001 017517
                                  1441  	ch    1,s000337 [ 1]	050 Lp
    014202  a0   000001 017521
                                  1442  	ch    1,s000341 [ 1]	051 Rp
    014203  a0   000001 017523
                                  1443  	ch    1,s000343 [ 1]	052 *
    014204  a0   000001 017525
                                  1444  	ch    1,s000345 [ 1]	053 +
    014205  a0   000001 017527
                                  1445  	ch    1,s000347 [ 1]	054 ,
    014206  a0   000001 017531
                                  1446  	ch    1,s000351 [ 1]	055 -
    014207  a0   000001 017533
                                  1447  	ch    1,s000353 [ 1]	056 .
    014210  a0   000001 017535
                                  1448  	ch    1,s000355 [ 1]	057 /
    014211  a0   000001 017537
                                  1449  	ch    1,s000357 [ 1]	060 0
    014212  a0   000001 017541
                                  1450  	ch    1,s000361 [ 1]	061 1
    014213  a0   000001 017543
                                  1451  	ch    1,s000363 [ 1]	062 2
    014214  a0   000001 017545
                                  1452  	ch    1,s000365 [ 1]	063 3
    014215  a0   000001 017547
                                  1453  	ch    1,s000367 [ 1]	064 4
    014216  a0   000001 017551
                                  1454  	ch    1,s000371 [ 1]	065 5
    014217  a0   000001 017553
                                  1455  	ch    1,s000373 [ 1]	066 6
    014220  a0   000001 017555
                                  1456  	ch    1,s000375 [ 1]	067 7
    014221  a0   000001 017557
                                  1457  	ch    1,s000377 [ 1]	070 8
    014222  a0   000001 017561
                                  1458  	ch    1,s000401 [ 1]	071 9
    014223  a0   000001 017563
                                  1459  	ch    1,s000403 [ 1]	072 :
    014224  a0   000001 017565
                                  1460  	ch    1,s000405 [ 1]	073 ;
    014225  a0   000001 017567
                                  1461  	ch    1,s000407 [ 1]	074 <
    014226  a0   000001 017571
                                  1462  	ch    1,s000411 [ 1]	075 =
    014227  a0   000001 017573
                                  1463  	ch    1,s000413 [ 1]	076 >
    014230  a0   000001 017575
                                  1464  	ch    1,s000415 [ 1]	077 ?
    014231  a0   000001 017577
                                  1465  	ch    1,s000417 [ 1]	100 @
    014232  a0   000001 017601
                                  1466  	ch    1,s000421 [ 1]	101 A
    014233  a0   000001 017603
                                  1467  	ch    1,s000423 [ 1]	102 B
    014234  a0   000001 017605
                                  1468  	ch    1,s000425 [ 1]	103 C
    014235  a0   000001 017607
                                  1469  	ch    1,s000427 [ 1]	104 D
    014236  a0   000001 017611
                                  1470  	ch    1,s000431 [ 1]	105 E
    014237  a0   000001 017613
                                  1471  	ch    1,s000433 [ 1]	106 F
    014240  a0   000001 017615
                                  1472  	ch    1,s000435 [ 1]	107 G
    014241  a0   000001 017617
                                  1473  	ch    1,s000437 [ 1]	110 H
    014242  a0   000001 017621
                                  1474  	ch    1,s000441 [ 1]	111 I
    014243  a0   000001 017623
                                  1475  	ch    1,s000443 [ 1]	112 J
    014244  a0   000001 017625
                                  1476  	ch    1,s000445 [ 1]	113 K
    014245  a0   000001 017627
                                  1477  	ch    1,s000447 [ 1]	114 L
    014246  a0   000001 017631
                                  1478  	ch    1,s000451 [ 1]	115 M
    014247  a0   000001 017633
                                  1479  	ch    1,s000453 [ 1]	116 N
    014250  a0   000001 017635
                                  1480  	ch    1,s000455 [ 1]	117 O
    014251  a0   000001 017637
                                  1481  	ch    1,s000457 [ 1]	120 P
    014252  a0   000001 017641
                                  1482  	ch    1,s000461 [ 1]	121 Q
    014253  a0   000001 017643
                                  1483  	ch    1,s000463 [ 1]	122 R
    014254  a0   000001 017645
                                  1484  	ch    1,s000465 [ 1]	123 S
    014255  a0   000001 017647
                                  1485  	ch    1,s000467 [ 1]	124 T
    014256  a0   000001 017651
                                  1486  	ch    1,s000471 [ 1]	125 U
    014257  a0   000001 017653
                                  1487  	ch    1,s000473 [ 1]	126 V
    014260  a0   000001 017655
                                  1488  	ch    1,s000475 [ 1]	127 W
    014261  a0   000001 017657
                                  1489  	ch    1,s000477 [ 1]	130 X
    014262  a0   000001 017661
                                  1490  	ch    1,s000501 [ 1]	131 Y
    014263  a0   000001 017663
                                  1491  	ch    1,s000503 [ 1]	132 Z
    014264  a0   000001 017665
                                  1492  	ch    1,s000505 [ 1]	133 [
    014265  a0   000001 017667
                                  1493  	ch    1,s000507 [ 1]	134 \
    014266  a0   000001 017671
                                  1494  	ch    1,s000511 [ 1]	135 ]
    014267  a0   000001 017673
                                  1495  	ch    1,s000513 [ 1]	136 ^
    014270  a0   000001 017675
                                  1496  	ch    1,s000515 [ 1]	137 _
    014271  a0   000001 017677
                                  1497  	ch    1,s000517 [ 1]	140 `
    014272  a0   000001 017701
                                  1498  	ch    1,s000421 [ 1]	141 a
    014273  a0   000001 017603
                                  1499  	ch    1,s000423 [ 1]	142 b
    014274  a0   000001 017605
                                  1500  	ch    1,s000425 [ 1]	143 c
    014275  a0   000001 017607
                                  1501  	ch    1,s000427 [ 1]	144 d
    014276  a0   000001 017611
                                  1502  	ch    1,s000431 [ 1]	145 e
    014277  a0   000001 017613
                                  1503  	ch    1,s000433 [ 1]	146 f
    014300  a0   000001 017615
                                  1504  	ch    1,s000435 [ 1]	147 g
    014301  a0   000001 017617
                                  1505  	ch    1,s000437 [ 1]	150 h
    014302  a0   000001 017621
                                  1506  	ch    1,s000441 [ 1]	151 i
    014303  a0   000001 017623
                                  1507  	ch    1,s000443 [ 1]	152 j
    014304  a0   000001 017625
                                  1508  	ch    1,s000445 [ 1]	153 k
    014305  a0   000001 017627
                                  1509  	ch    1,s000447 [ 1]	154 l
    014306  a0   000001 017631
                                  1510  	ch    1,s000451 [ 1]	155 m
    014307  a0   000001 017633
                                  1511  	ch    1,s000453 [ 1]	156 n
    014310  a0   000001 017635
                                  1512  	ch    1,s000455 [ 1]	157 o
    014311  a0   000001 017637
                                  1513  	ch    1,s000457 [ 1]	160 p
    014312  a0   000001 017641
                                  1514  	ch    1,s000461 [ 1]	161 q
    014313  a0   000001 017643
                                  1515  	ch    1,s000463 [ 1]	162 r
    014314  a0   000001 017645
                                  1516  	ch    1,s000465 [ 1]	163 s
    014315  a0   000001 017647
                                  1517  	ch    1,s000467 [ 1]	164 t
    014316  a0   000001 017651
                                  1518  	ch    1,s000471 [ 1]	165 u
    014317  a0   000001 017653
                                  1519  	ch    1,s000473 [ 1]	166 v
    014320  a0   000001 017655
                                  1520  	ch    1,s000475 [ 1]	167 w
    014321  a0   000001 017657
                                  1521  	ch    1,s000477 [ 1]	170 x
    014322  a0   000001 017661
                                  1522  	ch    1,s000501 [ 1]	171 y
    014323  a0   000001 017663
                                  1523  	ch    1,s000503 [ 1]	172 z
    014324  a0   000001 017665
                                  1524  	ch    1,s000605 [ 1]	173 {
    014325  a0   000001 017767
                                  1525  	ch    1,s000607 [ 1]	174 |
    014326  a0   000001 017771
                                  1526  	ch    1,s000611 [ 1]	175 }
    014327  a0   000001 017773
                                  1527  	ch    1,s000613 [ 1]	176 ~
    014330  a0   000001 017775
                                  1528  	ch    1,s000635 [ 0]	177 PAD
    014331  a0   000001 020017
                                  1529  	no_ch (29)
                                  1530  	ch    1,s000637 [ 1]	235
    014367  a0   000001 020021
                                  1531  	ch    1,s000641 [ 1]	236
    014370  a0   000001 020023
                                  1532  	ch    1,s000643 [ 1]	237
    014371  a0   000001 020025
                                  1533  	ch    1,s000617 [ 1]	240
    014372  a0   000001 020001
                                  1534  	no_ch (12)
                                  1535  	ch    1,s000623 [ 2]	255 EMdash
    014407  a0   000001 020005
                                  1536  	no_ch (17)
                                  1537  	ch    1,s000002 [ 0]	277
    014431  a0   000001 017500
                                  1538  	no_ch (3)
                                  1539  	ch    1,s000664 [ 3]	303 copyright
    014435  a0   000001 020046
                                  1540  	no_ch (9)
                                  1541  	ch    1,s000651 [ 1]	315 bullet
    014447  a0   000001 020033
                                  1542  	no_ch (2)
                                  1543  	ch    1,s000660 [ 2]	320 PI
    014452  a0   000001 020042
                                  1544  	no_ch (3)
                                  1545  	ch    1,s000666 [ 4]	324
    014456  a0   000001 020050
                                  1546  	no_ch (27)
                                  1547  	ch    1,s000662 [ 2]	360 pi
    014512  a0   000001 020044
                                  1548  	no_ch (12)
                                  1549  	ch    1,s000645 [ 1]	375 square
    014527  a0   000001 020027
                                  1550  	no_ch (1)
                                  1551  	ch    1,s000317 [ 1]	377 punct SP
    014531  a0   000001 017501
                                  1552  	no_ch (10)
                                  1553  	ch    1,s000621 [ 2]	412 EM
    014544  a0   000001 020003
                                  1554  	ch    1,s000647 [ 2]	413 EM _dash
    014545  a0   000001 020031
                                  1555  	ch    1,s000317 [ 1]	414 EN
    014546  a0   000001 017501
                                  1556  	ch    1,s000515 [ 1]	415 EN _dash
    014547  a0   000001 017677
                                  1557  	ch    1,s000351 [ 1]	416 EN dash
    014550  a0   000001 017533
                                  1558  	ch    1,s000317 [ 1]	417 thin space
    014551  a0   000001 017501
                                  1559  	ch    1,s000351 [ 1]	420 hyphen
    014552  a0   000001 017533
                                  1560  	ch    1,s000323 [ 1]	421 ``
    014553  a0   000001 017505
                                  1561  	ch    1,s000323 [ 1]	422 ''
    014554  a0   000001 017505
                                  1562  	ch    1,s000477 [ 1]	423 1hi X
    014555  a0   000001 017661
                                  1563  	ch    1,s000653 [ 1]	424
    014556  a0   000001 020035
                                  1564  	ch    1,s000573 [ 1]	425 v|
    014557  a0   000001 017755
                                  1565  	ch    1,s000573 [ 1]	426
    014560  a0   000001 017755
                                  1566  	ch    1,s000407 [ 1]	427 dia left
    014561  a0   000001 017571
                                  1567  	ch    1,s000343 [ 1]	430 delete mark
    014562  a0   000001 017525
                                  1568  	ch    1,s000413 [ 1]	431 dia right
    014563  a0   000001 017575
                                  1569  	ch    1,s000513 [ 1]	432 dia top
    014564  a0   000001 017675
                                  1570  	ch    1,s000407 [ 1]	433 <
    014565  a0   000001 017571
                                  1571  	ch    1,s000605 [ 1]	434 1hi {
    014566  a0   000001 017767
                                  1572  	ch    1,s000505 [ 1]	435 1hi [
    014567  a0   000001 017667
                                  1573  	ch    1,s000337 [ 1]	436 left circle
    014570  a0   000001 017521
                                  1574  	ch    1,s000337 [ 1]	437
    014571  a0   000001 017521
                                  1575  	ch    1,s000413 [ 1]	440 ->
    014572  a0   000001 017575
                                  1576  	ch    1,s000611 [ 1]	441 1hi }
    014573  a0   000001 017773
                                  1577  	ch    1,s000511 [ 1]	442 1hi ]
    014574  a0   000001 017673
                                  1578  	ch    1,s000341 [ 1]	443 right circle
    014575  a0   000001 017523
                                  1579  	ch    1,s000341 [ 1]	444
    014576  a0   000001 017523
                                  1580  	ch    1,s000513 [ 1]	445 ^|
    014577  a0   000001 017675
                                  1581  	no_ch (1)
                                  1582  	ch    1,s000505 [ 1]	447
    014601  a0   000001 017667
                                  1583  	ch    1,s000505 [ 1]	450
    014602  a0   000001 017667
                                  1584  	ch    1,s000505 [ 1]	451
    014603  a0   000001 017667
                                  1585  	ch    1,s000505 [ 1]	452
    014604  a0   000001 017667
                                  1586  	ch    1,s000002 [ 0]	453
    014605  a0   000001 017500
                                  1587  	ch    1,s000505 [ 1]	454
    014606  a0   000001 017667
                                  1588  	ch    1,s000511 [ 1]	455
    014607  a0   000001 017673
                                  1589  	ch    1,s000511 [ 1]	456
    014610  a0   000001 017673
                                  1590  	ch    1,s000511 [ 1]	457
    014611  a0   000001 017673
                                  1591  	ch    1,s000511 [ 1]	460
    014612  a0   000001 017673
                                  1592  	ch    1,s000002 [ 0]	461
    014613  a0   000001 017500
                                  1593  	ch    1,s000511 [ 1]	462
    014614  a0   000001 017673
                                  1594  	ch    1,s000605 [ 1]	463
    014615  a0   000001 017767
                                  1595  	ch    1,s000605 [ 1]	464
    014616  a0   000001 017767
                                  1596  	ch    1,s000605 [ 1]	465
    014617  a0   000001 017767
                                  1597  	ch    1,s000605 [ 1]	466
    014620  a0   000001 017767
                                  1598  	ch    1,s000002 [ 0]	467
    014621  a0   000001 017500
                                  1599  	ch    1,s000605 [ 1]	470
    014622  a0   000001 017767
                                  1600  	ch    1,s000611 [ 1]	471
    014623  a0   000001 017773
                                  1601  	ch    1,s000611 [ 1]	472
    014624  a0   000001 017773
                                  1602  	ch    1,s000611 [ 1]	473
    014625  a0   000001 017773
                                  1603  	ch    1,s000611 [ 1]	474
    014626  a0   000001 017773
                                  1604  	ch    1,s000002 [ 0]	475
    014627  a0   000001 017500
                                  1605  	ch    1,s000611 [ 1]	476
    014630  a0   000001 017773
                                  1606  	ch    1,s000337 [ 1]	477
    014631  a0   000001 017521
                                  1607  	ch    1,s000337 [ 1]	500
    014632  a0   000001 017521
                                  1608  	ch    1,s000337 [ 1]	501
    014633  a0   000001 017521
                                  1609  	ch    1,s000337 [ 1]	502
    014634  a0   000001 017521
                                  1610  	ch    1,s000002 [ 0]	503
    014635  a0   000001 017500
                                  1611  	ch    1,s000337 [ 1]	504
    014636  a0   000001 017521
                                  1612  	ch    1,s000341 [ 1]	505
    014637  a0   000001 017523
                                  1613  	ch    1,s000341 [ 1]	506
    014640  a0   000001 017523
                                  1614  	ch    1,s000341 [ 1]	507
    014641  a0   000001 017523
                                  1615  	ch    1,s000341 [ 1]	510
    014642  a0   000001 017523
                                  1616  	ch    1,s000002 [ 0]	511
    014643  a0   000001 017500
                                  1617  	ch    1,s000341 [ 1]	512
    014644  a0   000001 017523
                                  1618  	ch    1,s000607 [ 1]	513
    014645  a0   000001 017771
                                  1619  	ch    1,s000607 [ 1]	514
    014646  a0   000001 017771
                                  1620  	ch    1,s000607 [ 1]	515
    014647  a0   000001 017771
                                  1621  	ch    1,s000607 [ 1]	516
    014650  a0   000001 017771
                                  1622  	ch    1,s000002 [ 0]	517
    014651  a0   000001 017500
                                  1623  	ch    1,s000607 [ 1]	520
    014652  a0   000001 017771
                                  1624  	ch    1,s000656 [ 1]	521
    014653  a0   000001 020040
                                  1625  	ch    1,s000656 [ 1]	522
    014654  a0   000001 020040
                                  1626  	ch    1,s000656 [ 1]	523
    014655  a0   000001 020040
                                  1627  	ch    1,s000656 [ 1]	524
    014656  a0   000001 020040
                                  1628  	ch    1,s000002 [ 0]	525
    014657  a0   000001 017500
                                  1629  	ch    1,s000656 [ 1]	526
    014660  a0   000001 020040
                                  1630  	ch    1,s000607 [ 1]	527
    014661  a0   000001 017771
                                  1631  	ch    1,s000656 [ 1]	530
    014662  a0   000001 020040
                                  1632  	ch    1,s000355 [ 1]	531
    014663  a0   000001 017537
                                  1633  	ch    1,s000670 [ 0]	532
    014664  a0   000001 020052
                                  1634  	ch    1,s000002 [ 0]	533
    014665  a0   000001 017500
                                  1635  	ch    1,s000515 [ 1]	534
    014666  a0   000001 017677
                                  1636  	ch    1,s000002 [ 0]	535
    014667  a0   000001 017500
                                  1637  	ch    1,s000507 [ 1]	536
    014670  a0   000001 017671
                                  1638  	ch    1,s000355 [ 1]	537
    014671  a0   000001 017537
    014672                        1639  opu.3:
                                  1640  	oput.data_ct	351
    014672  aa   000000 000537
                                  1641  	no_ch (8)
                                  1642  	ch    1,s000615 [-1]	010 BSP
    014703  a0   000001 017777
                                  1643  	no_ch (3)
                                  1644  	ch    1,s000631 [ 0]	014 FF
    014707  a0   000001 020013
                                  1645  	no_ch (1)
                                  1646  	ch    1,s000625 [ 0]	016
    014711  a0   000001 020007
                                  1647  	ch    1,s000627 [ 0]	017
    014712  a0   000001 020011
                                  1648  	no_ch (11)
                                  1649  	ch    1,s000633 [-1]	033 ESC
    014726  a0   000001 020015
                                  1650  	no_ch (4)
                                  1651  	ch    1,s000317 [ 1]	040 SP
    014733  a0   000001 017501
                                  1652  	ch    1,s000672 [ 1]	041 !
    014734  a0   000001 020054
                                  1653  	ch    1,s000674 [ 1]	042 "
    014735  a0   000001 020056
                                  1654  	ch    1,s000676 [ 1]	043 #
    014736  a0   000001 020060
                                  1655  	ch    1,s000700 [ 1]	044 $
    014737  a0   000001 020062
                                  1656  	ch    1,s000702 [ 1]	045 %
    014740  a0   000001 020064
                                  1657  	ch    1,s000704 [ 1]	046 &
    014741  a0   000001 020066
                                  1658  	ch    1,s000706 [ 1]	047 '
    014742  a0   000001 020070
                                  1659  	ch    1,s000710 [ 1]	050 Lp
    014743  a0   000001 020072
                                  1660  	ch    1,s000712 [ 1]	051 Rp
    014744  a0   000001 020074
                                  1661  	ch    1,s000714 [ 1]	052 *
    014745  a0   000001 020076
                                  1662  	ch    1,s000716 [ 1]	053 +
    014746  a0   000001 020100
                                  1663  	ch    1,s000720 [ 1]	054 ,
    014747  a0   000001 020102
                                  1664  	ch    1,s000722 [ 1]	055 -
    014750  a0   000001 020104
                                  1665  	ch    1,s000724 [ 1]	056 .
    014751  a0   000001 020106
                                  1666  	ch    1,s000726 [ 1]	057 /
    014752  a0   000001 020110
                                  1667  	ch    1,s000730 [ 1]	060 0
    014753  a0   000001 020112
                                  1668  	ch    1,s000732 [ 1]	061 1
    014754  a0   000001 020114
                                  1669  	ch    1,s000734 [ 1]	062 2
    014755  a0   000001 020116
                                  1670  	ch    1,s000736 [ 1]	063 3
    014756  a0   000001 020120
                                  1671  	ch    1,s000740 [ 1]	064 4
    014757  a0   000001 020122
                                  1672  	ch    1,s000742 [ 1]	065 5
    014760  a0   000001 020124
                                  1673  	ch    1,s000744 [ 1]	066 6
    014761  a0   000001 020126
                                  1674  	ch    1,s000746 [ 1]	067 7
    014762  a0   000001 020130
                                  1675  	ch    1,s000750 [ 1]	070 8
    014763  a0   000001 020132
                                  1676  	ch    1,s000752 [ 1]	071 9
    014764  a0   000001 020134
                                  1677  	ch    1,s000754 [ 1]	072 :
    014765  a0   000001 020136
                                  1678  	ch    1,s000756 [ 1]	073 ;
    014766  a0   000001 020140
                                  1679  	ch    1,s000760 [ 1]	074 <
    014767  a0   000001 020142
                                  1680  	ch    1,s000762 [ 1]	075 =
    014770  a0   000001 020144
                                  1681  	ch    1,s000764 [ 1]	076 >
    014771  a0   000001 020146
                                  1682  	ch    1,s000766 [ 1]	077 ?
    014772  a0   000001 020150
                                  1683  	ch    1,s000770 [ 1]	100 @
    014773  a0   000001 020152
                                  1684  	ch    1,s000772 [ 1]	101 A
    014774  a0   000001 020154
                                  1685  	ch    1,s000774 [ 1]	102 B
    014775  a0   000001 020156
                                  1686  	ch    1,s000776 [ 1]	103 C
    014776  a0   000001 020160
                                  1687  	ch    1,s001000 [ 1]	104 D
    014777  a0   000001 020162
                                  1688  	ch    1,s001002 [ 1]	105 E
    015000  a0   000001 020164
                                  1689  	ch    1,s001004 [ 1]	106 F
    015001  a0   000001 020166
                                  1690  	ch    1,s001006 [ 1]	107 G
    015002  a0   000001 020170
                                  1691  	ch    1,s001010 [ 1]	110 H
    015003  a0   000001 020172
                                  1692  	ch    1,s001012 [ 1]	111 I
    015004  a0   000001 020174
                                  1693  	ch    1,s001014 [ 1]	112 J
    015005  a0   000001 020176
                                  1694  	ch    1,s001016 [ 1]	113 K
    015006  a0   000001 020200
                                  1695  	ch    1,s001020 [ 1]	114 L
    015007  a0   000001 020202
                                  1696  	ch    1,s001022 [ 1]	115 M
    015010  a0   000001 020204
                                  1697  	ch    1,s001024 [ 1]	116 N
    015011  a0   000001 020206
                                  1698  	ch    1,s001026 [ 1]	117 O
    015012  a0   000001 020210
                                  1699  	ch    1,s001030 [ 1]	120 P
    015013  a0   000001 020212
                                  1700  	ch    1,s001032 [ 1]	121 Q
    015014  a0   000001 020214
                                  1701  	ch    1,s001034 [ 1]	122 R
    015015  a0   000001 020216
                                  1702  	ch    1,s001036 [ 1]	123 S
    015016  a0   000001 020220
                                  1703  	ch    1,s001040 [ 1]	124 T
    015017  a0   000001 020222
                                  1704  	ch    1,s001042 [ 1]	125 U
    015020  a0   000001 020224
                                  1705  	ch    1,s001044 [ 1]	126 V
    015021  a0   000001 020226
                                  1706  	ch    1,s001046 [ 1]	127 W
    015022  a0   000001 020230
                                  1707  	ch    1,s001050 [ 1]	130 X
    015023  a0   000001 020232
                                  1708  	ch    1,s001052 [ 1]	131 Y
    015024  a0   000001 020234
                                  1709  	ch    1,s001054 [ 1]	132 Z
    015025  a0   000001 020236
                                  1710  	ch    1,s001056 [ 1]	133 [
    015026  a0   000001 020240
                                  1711  	ch    1,s001060 [ 1]	134 \
    015027  a0   000001 020242
                                  1712  	ch    1,s001062 [ 1]	135 ]
    015030  a0   000001 020244
                                  1713  	ch    1,s001064 [ 1]	136 ^
    015031  a0   000001 020246
                                  1714  	ch    1,s000515 [ 1]	137 _
    015032  a0   000001 017677
                                  1715  	ch    1,s001066 [ 1]	140 `
    015033  a0   000001 020250
                                  1716  	ch    1,s001070 [ 1]	141 a
    015034  a0   000001 020252
                                  1717  	ch    1,s001072 [ 1]	142 b
    015035  a0   000001 020254
                                  1718  	ch    1,s001074 [ 1]	143 c
    015036  a0   000001 020256
                                  1719  	ch    1,s000637 [ 1]	144 d
    015037  a0   000001 020021
                                  1720  	ch    1,s001076 [ 1]	145 e
    015040  a0   000001 020260
                                  1721  	ch    1,s001100 [ 1]	146 f
    015041  a0   000001 020262
                                  1722  	ch    1,s001102 [ 1]	147 g
    015042  a0   000001 020264
                                  1723  	ch    1,s001104 [ 1]	150 h
    015043  a0   000001 020266
                                  1724  	ch    1,s001106 [ 1]	151 i
    015044  a0   000001 020270
                                  1725  	ch    1,s001110 [ 1]	152 j
    015045  a0   000001 020272
                                  1726  	ch    1,s001112 [ 1]	153 k
    015046  a0   000001 020274
                                  1727  	ch    1,s001114 [ 1]	154 l
    015047  a0   000001 020276
                                  1728  	ch    1,s001116 [ 1]	155 m
    015050  a0   000001 020300
                                  1729  	ch    1,s000641 [ 1]	156 n
    015051  a0   000001 020023
                                  1730  	ch    1,s001120 [ 1]	157 o
    015052  a0   000001 020302
                                  1731  	ch    1,s001122 [ 1]	160 p
    015053  a0   000001 020304
                                  1732  	ch    1,s001124 [ 1]	161 q
    015054  a0   000001 020306
                                  1733  	ch    1,s001126 [ 1]	162 r
    015055  a0   000001 020310
                                  1734  	ch    1,s001130 [ 1]	163 s
    015056  a0   000001 020312
                                  1735  	ch    1,s001132 [ 1]	164 t
    015057  a0   000001 020314
                                  1736  	ch    1,s001134 [ 1]	165 u
    015060  a0   000001 020316
                                  1737  	ch    1,s001136 [ 1]	166 v
    015061  a0   000001 020320
                                  1738  	ch    1,s001140 [ 1]	167 w
    015062  a0   000001 020322
                                  1739  	ch    1,s000643 [ 1]	170 x
    015063  a0   000001 020025
                                  1740  	ch    1,s001142 [ 1]	171 y
    015064  a0   000001 020324
                                  1741  	ch    1,s001144 [ 1]	172 z
    015065  a0   000001 020326
                                  1742  	ch    1,s001146 [ 1]	173 {
    015066  a0   000001 020330
                                  1743  	ch    1,s001150 [ 1]	174 |
    015067  a0   000001 020332
                                  1744  	ch    1,s001152 [ 1]	175 }
    015070  a0   000001 020334
                                  1745  	ch    1,s001154 [ 1]	176 ~
    015071  a0   000001 020336
                                  1746  	ch    1,s000635 [ 0]	177 PAD
    015072  a0   000001 020017
                                  1747  	no_ch (29)
                                  1748  	ch    1,s000637 [ 1]	235
    015130  a0   000001 020021
                                  1749  	ch    1,s000641 [ 1]	236
    015131  a0   000001 020023
                                  1750  	ch    1,s000643 [ 1]	237
    015132  a0   000001 020025
                                  1751  	no_ch (13)
                                  1752  	ch    1,s001156 [ 2]	255 EMdash
    015150  a0   000001 020340
                                  1753  	no_ch (17)
                                  1754  	ch    1,s000002 [ 0]	277
    015172  a0   000001 017500
                                  1755  	no_ch (3)
                                  1756  	ch    1,s000664 [ 3]	303 copyright
    015176  a0   000001 020046
                                  1757  	no_ch (9)
                                  1758  	ch    1,s000651 [ 1]	315 bullet
    015210  a0   000001 020033
                                  1759  	no_ch (2)
                                  1760  	ch    1,s000660 [ 2]	320 PI
    015213  a0   000001 020042
                                  1761  	no_ch (3)
                                  1762  	ch    1,s000666 [ 4]	324
    015217  a0   000001 020050
                                  1763  	no_ch (27)
                                  1764  	ch    1,s000662 [ 2]	360 pi
    015253  a0   000001 020044
                                  1765  	no_ch (12)
                                  1766  	ch    1,s000645 [ 1]	375 square
    015270  a0   000001 020027
                                  1767  	no_ch (1)
                                  1768  	ch    1,s000515 [ 1]	377 punct SP
    015272  a0   000001 017677
                                  1769  	no_ch (10)
                                  1770  	ch    1,s000647 [ 2]	412 EM
    015305  a0   000001 020031
                                  1771  	ch    1,s000647 [ 2]	413 EM _dash
    015306  a0   000001 020031
                                  1772  	ch    1,s000515 [ 1]	414 EN
    015307  a0   000001 017677
                                  1773  	ch    1,s000515 [ 1]	415 EN _dash
    015310  a0   000001 017677
                                  1774  	ch    1,s000722 [ 1]	416 EN dash
    015311  a0   000001 020104
                                  1775  	ch    1,s000317 [ 1]	417 thin space
    015312  a0   000001 017501
                                  1776  	ch    1,s000722 [ 1]	420 hyphen
    015313  a0   000001 020104
                                  1777  	ch    1,s000674 [ 1]	421 ``
    015314  a0   000001 020056
                                  1778  	ch    1,s000674 [ 1]	422 ''
    015315  a0   000001 020056
                                  1779  	ch    1,s000477 [ 1]	423 1hi X
    015316  a0   000001 017661
                                  1780  	ch    1,s000653 [ 1]	424
    015317  a0   000001 020035
                                  1781  	ch    1,s000573 [ 1]	425 v|
    015320  a0   000001 017755
                                  1782  	ch    1,s000573 [ 1]	426
    015321  a0   000001 017755
                                  1783  	ch    1,s000407 [ 1]	427 dia left
    015322  a0   000001 017571
                                  1784  	ch    1,s000343 [ 1]	430 delete mark
    015323  a0   000001 017525
                                  1785  	ch    1,s000413 [ 1]	431 dia right
    015324  a0   000001 017575
                                  1786  	ch    1,s000513 [ 1]	432 dia top
    015325  a0   000001 017675
                                  1787  	ch    1,s000407 [ 1]	433 <
    015326  a0   000001 017571
                                  1788  	ch    1,s000605 [ 1]	434 1hi {
    015327  a0   000001 017767
                                  1789  	ch    1,s000505 [ 1]	435 1hi [
    015330  a0   000001 017667
                                  1790  	ch    1,s000337 [ 1]	436 left circle
    015331  a0   000001 017521
                                  1791  	ch    1,s000337 [ 1]	437
    015332  a0   000001 017521
                                  1792  	ch    1,s000413 [ 1]	440 ->
    015333  a0   000001 017575
                                  1793  	ch    1,s000611 [ 1]	441 1hi }
    015334  a0   000001 017773
                                  1794  	ch    1,s000511 [ 1]	442 1hi ]
    015335  a0   000001 017673
                                  1795  	ch    1,s000341 [ 1]	443 right circle
    015336  a0   000001 017523
                                  1796  	ch    1,s000341 [ 1]	444
    015337  a0   000001 017523
                                  1797  	ch    1,s000513 [ 1]	445 ^|
    015340  a0   000001 017675
                                  1798  	no_ch (1)
                                  1799  	ch    1,s000505 [ 1]	447
    015342  a0   000001 017667
                                  1800  	ch    1,s000505 [ 1]	450
    015343  a0   000001 017667
                                  1801  	ch    1,s000505 [ 1]	451
    015344  a0   000001 017667
                                  1802  	ch    1,s000505 [ 1]	452
    015345  a0   000001 017667
                                  1803  	ch    1,s000002 [ 0]	453
    015346  a0   000001 017500
                                  1804  	ch    1,s000505 [ 1]	454
    015347  a0   000001 017667
                                  1805  	ch    1,s000511 [ 1]	455
    015350  a0   000001 017673
                                  1806  	ch    1,s000511 [ 1]	456
    015351  a0   000001 017673
                                  1807  	ch    1,s000511 [ 1]	457
    015352  a0   000001 017673
                                  1808  	ch    1,s000511 [ 1]	460
    015353  a0   000001 017673
                                  1809  	ch    1,s000002 [ 0]	461
    015354  a0   000001 017500
                                  1810  	ch    1,s000511 [ 1]	462
    015355  a0   000001 017673
                                  1811  	ch    1,s000605 [ 1]	463
    015356  a0   000001 017767
                                  1812  	ch    1,s000605 [ 1]	464
    015357  a0   000001 017767
                                  1813  	ch    1,s000605 [ 1]	465
    015360  a0   000001 017767
                                  1814  	ch    1,s000605 [ 1]	466
    015361  a0   000001 017767
                                  1815  	ch    1,s000002 [ 0]	467
    015362  a0   000001 017500
                                  1816  	ch    1,s000605 [ 1]	470
    015363  a0   000001 017767
                                  1817  	ch    1,s000611 [ 1]	471
    015364  a0   000001 017773
                                  1818  	ch    1,s000611 [ 1]	472
    015365  a0   000001 017773
                                  1819  	ch    1,s000611 [ 1]	473
    015366  a0   000001 017773
                                  1820  	ch    1,s000611 [ 1]	474
    015367  a0   000001 017773
                                  1821  	ch    1,s000002 [ 0]	475
    015370  a0   000001 017500
                                  1822  	ch    1,s000611 [ 1]	476
    015371  a0   000001 017773
                                  1823  	ch    1,s000337 [ 1]	477
    015372  a0   000001 017521
                                  1824  	ch    1,s000337 [ 1]	500
    015373  a0   000001 017521
                                  1825  	ch    1,s000337 [ 1]	501
    015374  a0   000001 017521
                                  1826  	ch    1,s000337 [ 1]	502
    015375  a0   000001 017521
                                  1827  	ch    1,s000002 [ 0]	503
    015376  a0   000001 017500
                                  1828  	ch    1,s000337 [ 1]	504
    015377  a0   000001 017521
                                  1829  	ch    1,s000341 [ 1]	505
    015400  a0   000001 017523
                                  1830  	ch    1,s000341 [ 1]	506
    015401  a0   000001 017523
                                  1831  	ch    1,s000341 [ 1]	507
    015402  a0   000001 017523
                                  1832  	ch    1,s000341 [ 1]	510
    015403  a0   000001 017523
                                  1833  	ch    1,s000002 [ 0]	511
    015404  a0   000001 017500
                                  1834  	ch    1,s000341 [ 1]	512
    015405  a0   000001 017523
                                  1835  	ch    1,s000607 [ 1]	513
    015406  a0   000001 017771
                                  1836  	ch    1,s000607 [ 1]	514
    015407  a0   000001 017771
                                  1837  	ch    1,s000607 [ 1]	515
    015410  a0   000001 017771
                                  1838  	ch    1,s000607 [ 1]	516
    015411  a0   000001 017771
                                  1839  	ch    1,s000002 [ 0]	517
    015412  a0   000001 017500
                                  1840  	ch    1,s000607 [ 1]	520
    015413  a0   000001 017771
                                  1841  	ch    1,s000656 [ 1]	521
    015414  a0   000001 020040
                                  1842  	ch    1,s000656 [ 1]	522
    015415  a0   000001 020040
                                  1843  	ch    1,s000656 [ 1]	523
    015416  a0   000001 020040
                                  1844  	ch    1,s000656 [ 1]	524
    015417  a0   000001 020040
                                  1845  	ch    1,s000002 [ 0]	525
    015420  a0   000001 017500
                                  1846  	ch    1,s000656 [ 1]	526
    015421  a0   000001 020040
                                  1847  	ch    1,s000607 [ 1]	527
    015422  a0   000001 017771
                                  1848  	ch    1,s000656 [ 1]	530
    015423  a0   000001 020040
                                  1849  	ch    1,s000355 [ 1]	531
    015424  a0   000001 017537
                                  1850  	ch    1,s000670 [ 0]	532
    015425  a0   000001 020052
                                  1851  	ch    1,s000002 [ 0]	533
    015426  a0   000001 017500
                                  1852  	ch    1,s000515 [ 1]	534
    015427  a0   000001 017677
                                  1853  	ch    1,s000002 [ 0]	535
    015430  a0   000001 017500
                                  1854  	ch    1,s000507 [ 1]	536
    015431  a0   000001 017671
                                  1855  	ch    1,s000355 [ 1]	537
    015432  a0   000001 017537
    015433                        1856  opu.4:
                                  1857  	oput.data_ct	351
    015433  aa   000000 000537
                                  1858  	no_ch (8)
                                  1859  	ch    1,s000615 [-1]	010 BSP
    015444  a0   000001 017777
                                  1860  	no_ch (3)
                                  1861  	ch    1,s000631 [ 0]	014 FF
    015450  a0   000001 020013
                                  1862  	no_ch (1)
                                  1863  	ch    1,s000625 [ 0]	016
    015452  a0   000001 020007
                                  1864  	ch    1,s000627 [ 0]	017
    015453  a0   000001 020011
                                  1865  	no_ch (11)
                                  1866  	ch    1,s000633 [-1]	033 ESC
    015467  a0   000001 020015
                                  1867  	no_ch (4)
                                  1868  	ch    1,s000317 [ 1]	040 SP
    015474  a0   000001 017501
                                  1869  	ch    1,s000672 [ 1]	041 !
    015475  a0   000001 020054
                                  1870  	ch    1,s000674 [ 1]	042 "
    015476  a0   000001 020056
                                  1871  	ch    1,s000676 [ 1]	043 #
    015477  a0   000001 020060
                                  1872  	ch    1,s000700 [ 1]	044 $
    015500  a0   000001 020062
                                  1873  	ch    1,s000702 [ 1]	045 %
    015501  a0   000001 020064
                                  1874  	ch    1,s000704 [ 1]	046 &
    015502  a0   000001 020066
                                  1875  	ch    1,s000706 [ 1]	047 '
    015503  a0   000001 020070
                                  1876  	ch    1,s000710 [ 1]	050 Lp
    015504  a0   000001 020072
                                  1877  	ch    1,s000712 [ 1]	051 Rp
    015505  a0   000001 020074
                                  1878  	ch    1,s000714 [ 1]	052 *
    015506  a0   000001 020076
                                  1879  	ch    1,s000716 [ 1]	053 +
    015507  a0   000001 020100
                                  1880  	ch    1,s000720 [ 1]	054 ,
    015510  a0   000001 020102
                                  1881  	ch    1,s000722 [ 1]	055 -
    015511  a0   000001 020104
                                  1882  	ch    1,s000724 [ 1]	056 .
    015512  a0   000001 020106
                                  1883  	ch    1,s000726 [ 1]	057 /
    015513  a0   000001 020110
                                  1884  	ch    1,s000730 [ 1]	060 0
    015514  a0   000001 020112
                                  1885  	ch    1,s000732 [ 1]	061 1
    015515  a0   000001 020114
                                  1886  	ch    1,s000734 [ 1]	062 2
    015516  a0   000001 020116
                                  1887  	ch    1,s000736 [ 1]	063 3
    015517  a0   000001 020120
                                  1888  	ch    1,s000740 [ 1]	064 4
    015520  a0   000001 020122
                                  1889  	ch    1,s000742 [ 1]	065 5
    015521  a0   000001 020124
                                  1890  	ch    1,s000744 [ 1]	066 6
    015522  a0   000001 020126
                                  1891  	ch    1,s000746 [ 1]	067 7
    015523  a0   000001 020130
                                  1892  	ch    1,s000750 [ 1]	070 8
    015524  a0   000001 020132
                                  1893  	ch    1,s000752 [ 1]	071 9
    015525  a0   000001 020134
                                  1894  	ch    1,s000754 [ 1]	072 :
    015526  a0   000001 020136
                                  1895  	ch    1,s000756 [ 1]	073 ;
    015527  a0   000001 020140
                                  1896  	ch    1,s000760 [ 1]	074 <
    015530  a0   000001 020142
                                  1897  	ch    1,s000762 [ 1]	075 =
    015531  a0   000001 020144
                                  1898  	ch    1,s000764 [ 1]	076 >
    015532  a0   000001 020146
                                  1899  	ch    1,s000766 [ 1]	077 ?
    015533  a0   000001 020150
                                  1900  	ch    1,s000770 [ 1]	100 @
    015534  a0   000001 020152
                                  1901  	ch    1,s000772 [ 1]	101 A
    015535  a0   000001 020154
                                  1902  	ch    1,s000774 [ 1]	102 B
    015536  a0   000001 020156
                                  1903  	ch    1,s000776 [ 1]	103 C
    015537  a0   000001 020160
                                  1904  	ch    1,s001000 [ 1]	104 D
    015540  a0   000001 020162
                                  1905  	ch    1,s001002 [ 1]	105 E
    015541  a0   000001 020164
                                  1906  	ch    1,s001004 [ 1]	106 F
    015542  a0   000001 020166
                                  1907  	ch    1,s001006 [ 1]	107 G
    015543  a0   000001 020170
                                  1908  	ch    1,s001010 [ 1]	110 H
    015544  a0   000001 020172
                                  1909  	ch    1,s001012 [ 1]	111 I
    015545  a0   000001 020174
                                  1910  	ch    1,s001014 [ 1]	112 J
    015546  a0   000001 020176
                                  1911  	ch    1,s001016 [ 1]	113 K
    015547  a0   000001 020200
                                  1912  	ch    1,s001020 [ 1]	114 L
    015550  a0   000001 020202
                                  1913  	ch    1,s001022 [ 1]	115 M
    015551  a0   000001 020204
                                  1914  	ch    1,s001024 [ 1]	116 N
    015552  a0   000001 020206
                                  1915  	ch    1,s001026 [ 1]	117 O
    015553  a0   000001 020210
                                  1916  	ch    1,s001030 [ 1]	120 P
    015554  a0   000001 020212
                                  1917  	ch    1,s001032 [ 1]	121 Q
    015555  a0   000001 020214
                                  1918  	ch    1,s001034 [ 1]	122 R
    015556  a0   000001 020216
                                  1919  	ch    1,s001036 [ 1]	123 S
    015557  a0   000001 020220
                                  1920  	ch    1,s001040 [ 1]	124 T
    015560  a0   000001 020222
                                  1921  	ch    1,s001042 [ 1]	125 U
    015561  a0   000001 020224
                                  1922  	ch    1,s001044 [ 1]	126 V
    015562  a0   000001 020226
                                  1923  	ch    1,s001046 [ 1]	127 W
    015563  a0   000001 020230
                                  1924  	ch    1,s001050 [ 1]	130 X
    015564  a0   000001 020232
                                  1925  	ch    1,s001052 [ 1]	131 Y
    015565  a0   000001 020234
                                  1926  	ch    1,s001054 [ 1]	132 Z
    015566  a0   000001 020236
                                  1927  	ch    1,s001056 [ 1]	133 [
    015567  a0   000001 020240
                                  1928  	ch    1,s001060 [ 1]	134 \
    015570  a0   000001 020242
                                  1929  	ch    1,s001062 [ 1]	135 ]
    015571  a0   000001 020244
                                  1930  	ch    1,s001064 [ 1]	136 ^
    015572  a0   000001 020246
                                  1931  	ch    1,s000515 [ 1]	137 _
    015573  a0   000001 017677
                                  1932  	ch    1,s001066 [ 1]	140 `
    015574  a0   000001 020250
                                  1933  	ch    1,s000772 [ 1]	141 a
    015575  a0   000001 020154
                                  1934  	ch    1,s000774 [ 1]	142 b
    015576  a0   000001 020156
                                  1935  	ch    1,s000776 [ 1]	143 c
    015577  a0   000001 020160
                                  1936  	ch    1,s001000 [ 1]	144 d
    015600  a0   000001 020162
                                  1937  	ch    1,s001002 [ 1]	145 e
    015601  a0   000001 020164
                                  1938  	ch    1,s001004 [ 1]	146 f
    015602  a0   000001 020166
                                  1939  	ch    1,s001006 [ 1]	147 g
    015603  a0   000001 020170
                                  1940  	ch    1,s001010 [ 1]	150 h
    015604  a0   000001 020172
                                  1941  	ch    1,s001012 [ 1]	151 i
    015605  a0   000001 020174
                                  1942  	ch    1,s001014 [ 1]	152 j
    015606  a0   000001 020176
                                  1943  	ch    1,s001016 [ 1]	153 k
    015607  a0   000001 020200
                                  1944  	ch    1,s001020 [ 1]	154 l
    015610  a0   000001 020202
                                  1945  	ch    1,s001022 [ 1]	155 m
    015611  a0   000001 020204
                                  1946  	ch    1,s001024 [ 1]	156 n
    015612  a0   000001 020206
                                  1947  	ch    1,s001026 [ 1]	157 o
    015613  a0   000001 020210
                                  1948  	ch    1,s001030 [ 1]	160 p
    015614  a0   000001 020212
                                  1949  	ch    1,s001032 [ 1]	161 q
    015615  a0   000001 020214
                                  1950  	ch    1,s001034 [ 1]	162 r
    015616  a0   000001 020216
                                  1951  	ch    1,s001036 [ 1]	163 s
    015617  a0   000001 020220
                                  1952  	ch    1,s001040 [ 1]	164 t
    015620  a0   000001 020222
                                  1953  	ch    1,s001042 [ 1]	165 u
    015621  a0   000001 020224
                                  1954  	ch    1,s001044 [ 1]	166 v
    015622  a0   000001 020226
                                  1955  	ch    1,s001046 [ 1]	167 w
    015623  a0   000001 020230
                                  1956  	ch    1,s001050 [ 1]	170 x
    015624  a0   000001 020232
                                  1957  	ch    1,s001052 [ 1]	171 y
    015625  a0   000001 020234
                                  1958  	ch    1,s001054 [ 1]	172 z
    015626  a0   000001 020236
                                  1959  	ch    1,s001146 [ 1]	173 {
    015627  a0   000001 020330
                                  1960  	ch    1,s001150 [ 1]	174 |
    015630  a0   000001 020332
                                  1961  	ch    1,s001152 [ 1]	175 }
    015631  a0   000001 020334
                                  1962  	ch    1,s001154 [ 1]	176 ~
    015632  a0   000001 020336
                                  1963  	ch    1,s000635 [ 0]	177 PAD
    015633  a0   000001 020017
                                  1964  	no_ch (29)
                                  1965  	ch    1,s000637 [ 1]	235
    015671  a0   000001 020021
                                  1966  	ch    1,s000641 [ 1]	236
    015672  a0   000001 020023
                                  1967  	ch    1,s000643 [ 1]	237
    015673  a0   000001 020025
                                  1968  	no_ch (13)
                                  1969  	ch    1,s001156 [ 2]	255 EMdash
    015711  a0   000001 020340
                                  1970  	no_ch (17)
                                  1971  	ch    1,s000002 [ 0]	277
    015733  a0   000001 017500
                                  1972  	no_ch (3)
                                  1973  	ch    1,s000664 [ 3]	303 copyright
    015737  a0   000001 020046
                                  1974  	no_ch (9)
                                  1975  	ch    1,s000651 [ 1]	315 bullet
    015751  a0   000001 020033
                                  1976  	no_ch (2)
                                  1977  	ch    1,s000660 [ 2]	320 PI
    015754  a0   000001 020042
                                  1978  	no_ch (3)
                                  1979  	ch    1,s000666 [ 4]	324
    015760  a0   000001 020050
                                  1980  	no_ch (27)
                                  1981  	ch    1,s000662 [ 2]	360 pi
    016014  a0   000001 020044
                                  1982  	no_ch (12)
                                  1983  	ch    1,s000645 [ 1]	375 square
    016031  a0   000001 020027
                                  1984  	no_ch (1)
                                  1985  	ch    1,s000515 [ 1]	377 punct SP
    016033  a0   000001 017677
                                  1986  	no_ch (10)
                                  1987  	ch    1,s000647 [ 2]	412 EM
    016046  a0   000001 020031
                                  1988  	ch    1,s000647 [ 2]	413 EM _dash
    016047  a0   000001 020031
                                  1989  	ch    1,s000515 [ 1]	414 EN
    016050  a0   000001 017677
                                  1990  	ch    1,s000515 [ 1]	415 EN _dash
    016051  a0   000001 017677
                                  1991  	ch    1,s000722 [ 1]	416 EN dash
    016052  a0   000001 020104
                                  1992  	ch    1,s000317 [ 1]	417 thin space
    016053  a0   000001 017501
                                  1993  	ch    1,s000722 [ 1]	420 hyphen
    016054  a0   000001 020104
                                  1994  	ch    1,s000674 [ 1]	421 ``
    016055  a0   000001 020056
                                  1995  	ch    1,s000674 [ 1]	422 ''
    016056  a0   000001 020056
                                  1996  	ch    1,s000477 [ 1]	423 1hi X
    016057  a0   000001 017661
                                  1997  	ch    1,s000653 [ 1]	424
    016060  a0   000001 020035
                                  1998  	ch    1,s000573 [ 1]	425 v|
    016061  a0   000001 017755
                                  1999  	ch    1,s000573 [ 1]	426
    016062  a0   000001 017755
                                  2000  	ch    1,s000407 [ 1]	427 dia left
    016063  a0   000001 017571
                                  2001  	ch    1,s000343 [ 1]	430 delete mark
    016064  a0   000001 017525
                                  2002  	ch    1,s000413 [ 1]	431 dia right
    016065  a0   000001 017575
                                  2003  	ch    1,s000513 [ 1]	432 dia top
    016066  a0   000001 017675
                                  2004  	ch    1,s000407 [ 1]	433 <
    016067  a0   000001 017571
                                  2005  	ch    1,s000605 [ 1]	434 1hi {
    016070  a0   000001 017767
                                  2006  	ch    1,s000505 [ 1]	435 1hi [
    016071  a0   000001 017667
                                  2007  	ch    1,s000337 [ 1]	436 left circle
    016072  a0   000001 017521
                                  2008  	ch    1,s000337 [ 1]	437
    016073  a0   000001 017521
                                  2009  	ch    1,s000413 [ 1]	440 ->
    016074  a0   000001 017575
                                  2010  	ch    1,s000611 [ 1]	441 1hi }
    016075  a0   000001 017773
                                  2011  	ch    1,s000511 [ 1]	442 1hi ]
    016076  a0   000001 017673
                                  2012  	ch    1,s000341 [ 1]	443 right circle
    016077  a0   000001 017523
                                  2013  	ch    1,s000341 [ 1]	444
    016100  a0   000001 017523
                                  2014  	ch    1,s000513 [ 1]	445 ^|
    016101  a0   000001 017675
                                  2015  	no_ch (1)
                                  2016  	ch    1,s000505 [ 1]	447
    016103  a0   000001 017667
                                  2017  	ch    1,s000505 [ 1]	450
    016104  a0   000001 017667
                                  2018  	ch    1,s000505 [ 1]	451
    016105  a0   000001 017667
                                  2019  	ch    1,s000505 [ 1]	452
    016106  a0   000001 017667
                                  2020  	ch    1,s000002 [ 0]	453
    016107  a0   000001 017500
                                  2021  	ch    1,s000505 [ 1]	454
    016110  a0   000001 017667
                                  2022  	ch    1,s000511 [ 1]	455
    016111  a0   000001 017673
                                  2023  	ch    1,s000511 [ 1]	456
    016112  a0   000001 017673
                                  2024  	ch    1,s000511 [ 1]	457
    016113  a0   000001 017673
                                  2025  	ch    1,s000511 [ 1]	460
    016114  a0   000001 017673
                                  2026  	ch    1,s000002 [ 0]	461
    016115  a0   000001 017500
                                  2027  	ch    1,s000511 [ 1]	462
    016116  a0   000001 017673
                                  2028  	ch    1,s000605 [ 1]	463
    016117  a0   000001 017767
                                  2029  	ch    1,s000605 [ 1]	464
    016120  a0   000001 017767
                                  2030  	ch    1,s000605 [ 1]	465
    016121  a0   000001 017767
                                  2031  	ch    1,s000605 [ 1]	466
    016122  a0   000001 017767
                                  2032  	ch    1,s000002 [ 0]	467
    016123  a0   000001 017500
                                  2033  	ch    1,s000605 [ 1]	470
    016124  a0   000001 017767
                                  2034  	ch    1,s000611 [ 1]	471
    016125  a0   000001 017773
                                  2035  	ch    1,s000611 [ 1]	472
    016126  a0   000001 017773
                                  2036  	ch    1,s000611 [ 1]	473
    016127  a0   000001 017773
                                  2037  	ch    1,s000611 [ 1]	474
    016130  a0   000001 017773
                                  2038  	ch    1,s000002 [ 0]	475
    016131  a0   000001 017500
                                  2039  	ch    1,s000611 [ 1]	476
    016132  a0   000001 017773
                                  2040  	ch    1,s000337 [ 1]	477
    016133  a0   000001 017521
                                  2041  	ch    1,s000337 [ 1]	500
    016134  a0   000001 017521
                                  2042  	ch    1,s000337 [ 1]	501
    016135  a0   000001 017521
                                  2043  	ch    1,s000337 [ 1]	502
    016136  a0   000001 017521
                                  2044  	ch    1,s000002 [ 0]	503
    016137  a0   000001 017500
                                  2045  	ch    1,s000337 [ 1]	504
    016140  a0   000001 017521
                                  2046  	ch    1,s000341 [ 1]	505
    016141  a0   000001 017523
                                  2047  	ch    1,s000341 [ 1]	506
    016142  a0   000001 017523
                                  2048  	ch    1,s000341 [ 1]	507
    016143  a0   000001 017523
                                  2049  	ch    1,s000341 [ 1]	510
    016144  a0   000001 017523
                                  2050  	ch    1,s000002 [ 0]	511
    016145  a0   000001 017500
                                  2051  	ch    1,s000341 [ 1]	512
    016146  a0   000001 017523
                                  2052  	ch    1,s000607 [ 1]	513
    016147  a0   000001 017771
                                  2053  	ch    1,s000607 [ 1]	514
    016150  a0   000001 017771
                                  2054  	ch    1,s000607 [ 1]	515
    016151  a0   000001 017771
                                  2055  	ch    1,s000607 [ 1]	516
    016152  a0   000001 017771
                                  2056  	ch    1,s000002 [ 0]	517
    016153  a0   000001 017500
                                  2057  	ch    1,s000607 [ 1]	520
    016154  a0   000001 017771
                                  2058  	ch    1,s000656 [ 1]	521
    016155  a0   000001 020040
                                  2059  	ch    1,s000656 [ 1]	522
    016156  a0   000001 020040
                                  2060  	ch    1,s000656 [ 1]	523
    016157  a0   000001 020040
                                  2061  	ch    1,s000656 [ 1]	524
    016160  a0   000001 020040
                                  2062  	ch    1,s000002 [ 0]	525
    016161  a0   000001 017500
                                  2063  	ch    1,s000656 [ 1]	526
    016162  a0   000001 020040
                                  2064  	ch    1,s000607 [ 1]	527
    016163  a0   000001 017771
                                  2065  	ch    1,s000656 [ 1]	530
    016164  a0   000001 020040
                                  2066  	ch    1,s000355 [ 1]	531
    016165  a0   000001 017537
                                  2067  	ch    1,s000670 [ 0]	532
    016166  a0   000001 020052
                                  2068  	ch    1,s000002 [ 0]	533
    016167  a0   000001 017500
                                  2069  	ch    1,s000515 [ 1]	534
    016170  a0   000001 017677
                                  2070  	ch    1,s000002 [ 0]	535
    016171  a0   000001 017500
                                  2071  	ch    1,s000507 [ 1]	536
    016172  a0   000001 017671
                                  2072  	ch    1,s000355 [ 1]	537
    016173  a0   000001 017537
    016174                        2073  opu.5:
                                  2074  	oput.data_ct	351
    016174  aa   000000 000537
                                  2075  	no_ch (8)
                                  2076  	ch    1,s000615 [-1]	010 BSP
    016205  a0   000001 017777
                                  2077  	no_ch (3)
                                  2078  	ch    1,s000631 [ 0]	014 FF
    016211  a0   000001 020013
                                  2079  	no_ch (1)
                                  2080  	ch    1,s000625 [ 0]	016
    016213  a0   000001 020007
                                  2081  	ch    1,s000627 [ 0]	017
    016214  a0   000001 020011
                                  2082  	no_ch (11)
                                  2083  	ch    1,s000633 [-1]	033 ESC
    016230  a0   000001 020015
                                  2084  	no_ch (4)
                                  2085  	ch    1,s000317 [ 1]	040 SP
    016235  a0   000001 017501
                                  2086  	ch    1,s001161 [ 1]	041 !
    016236  a0   000001 020343
                                  2087  	ch    1,s001164 [ 1]	042 "
    016237  a0   000001 020346
                                  2088  	ch    1,s001167 [ 1]	043 #
    016240  a0   000001 020351
                                  2089  	ch    1,s001172 [ 1]	044 $
    016241  a0   000001 020354
                                  2090  	ch    1,s001175 [ 1]	045 %
    016242  a0   000001 020357
                                  2091  	ch    1,s001200 [ 1]	046 &
    016243  a0   000001 020362
                                  2092  	ch    1,s001203 [ 1]	047 '
    016244  a0   000001 020365
                                  2093  	ch    1,s001206 [ 1]	050 Lp
    016245  a0   000001 020370
                                  2094  	ch    1,s001211 [ 1]	051 Rp
    016246  a0   000001 020373
                                  2095  	ch    1,s001214 [ 1]	052 *
    016247  a0   000001 020376
                                  2096  	ch    1,s001217 [ 1]	053 +
    016250  a0   000001 020401
                                  2097  	ch    1,s001222 [ 1]	054 ,
    016251  a0   000001 020404
                                  2098  	ch    1,s001225 [ 1]	055 -
    016252  a0   000001 020407
                                  2099  	ch    1,s001230 [ 1]	056 .
    016253  a0   000001 020412
                                  2100  	ch    1,s001233 [ 1]	057 /
    016254  a0   000001 020415
                                  2101  	ch    1,s001236 [ 1]	060 0
    016255  a0   000001 020420
                                  2102  	ch    1,s001241 [ 1]	061 1
    016256  a0   000001 020423
                                  2103  	ch    1,s001244 [ 1]	062 2
    016257  a0   000001 020426
                                  2104  	ch    1,s001247 [ 1]	063 3
    016260  a0   000001 020431
                                  2105  	ch    1,s001252 [ 1]	064 4
    016261  a0   000001 020434
                                  2106  	ch    1,s001255 [ 1]	065 5
    016262  a0   000001 020437
                                  2107  	ch    1,s001260 [ 1]	066 6
    016263  a0   000001 020442
                                  2108  	ch    1,s001263 [ 1]	067 7
    016264  a0   000001 020445
                                  2109  	ch    1,s001266 [ 1]	070 8
    016265  a0   000001 020450
                                  2110  	ch    1,s001271 [ 1]	071 9
    016266  a0   000001 020453
                                  2111  	ch    1,s001274 [ 1]	072 :
    016267  a0   000001 020456
                                  2112  	ch    1,s001277 [ 1]	073 ;
    016270  a0   000001 020461
                                  2113  	ch    1,s001302 [ 1]	074 <
    016271  a0   000001 020464
                                  2114  	ch    1,s001305 [ 1]	075 =
    016272  a0   000001 020467
                                  2115  	ch    1,s001310 [ 1]	076 >
    016273  a0   000001 020472
                                  2116  	ch    1,s001313 [ 1]	077 ?
    016274  a0   000001 020475
                                  2117  	ch    1,s001316 [ 1]	100 @
    016275  a0   000001 020500
                                  2118  	ch    1,s001321 [ 1]	101 A
    016276  a0   000001 020503
                                  2119  	ch    1,s001324 [ 1]	102 B
    016277  a0   000001 020506
                                  2120  	ch    1,s001327 [ 1]	103 C
    016300  a0   000001 020511
                                  2121  	ch    1,s001332 [ 1]	104 D
    016301  a0   000001 020514
                                  2122  	ch    1,s001335 [ 1]	105 E
    016302  a0   000001 020517
                                  2123  	ch    1,s001340 [ 1]	106 F
    016303  a0   000001 020522
                                  2124  	ch    1,s001343 [ 1]	107 G
    016304  a0   000001 020525
                                  2125  	ch    1,s001346 [ 1]	110 H
    016305  a0   000001 020530
                                  2126  	ch    1,s001351 [ 1]	111 I
    016306  a0   000001 020533
                                  2127  	ch    1,s001354 [ 1]	112 J
    016307  a0   000001 020536
                                  2128  	ch    1,s001357 [ 1]	113 K
    016310  a0   000001 020541
                                  2129  	ch    1,s001362 [ 1]	114 L
    016311  a0   000001 020544
                                  2130  	ch    1,s001365 [ 1]	115 M
    016312  a0   000001 020547
                                  2131  	ch    1,s001370 [ 1]	116 N
    016313  a0   000001 020552
                                  2132  	ch    1,s001373 [ 1]	117 O
    016314  a0   000001 020555
                                  2133  	ch    1,s001376 [ 1]	120 P
    016315  a0   000001 020560
                                  2134  	ch    1,s001401 [ 1]	121 Q
    016316  a0   000001 020563
                                  2135  	ch    1,s001404 [ 1]	122 R
    016317  a0   000001 020566
                                  2136  	ch    1,s001407 [ 1]	123 S
    016320  a0   000001 020571
                                  2137  	ch    1,s001412 [ 1]	124 T
    016321  a0   000001 020574
                                  2138  	ch    1,s001415 [ 1]	125 U
    016322  a0   000001 020577
                                  2139  	ch    1,s001420 [ 1]	126 V
    016323  a0   000001 020602
                                  2140  	ch    1,s001423 [ 1]	127 W
    016324  a0   000001 020605
                                  2141  	ch    1,s001426 [ 1]	130 X
    016325  a0   000001 020610
                                  2142  	ch    1,s001431 [ 1]	131 Y
    016326  a0   000001 020613
                                  2143  	ch    1,s001434 [ 1]	132 Z
    016327  a0   000001 020616
                                  2144  	ch    1,s001437 [ 1]	133 [
    016330  a0   000001 020621
                                  2145  	ch    1,s001442 [ 1]	134 \
    016331  a0   000001 020624
                                  2146  	ch    1,s001445 [ 1]	135 ]
    016332  a0   000001 020627
                                  2147  	ch    1,s001450 [ 1]	136 ^
    016333  a0   000001 020632
                                  2148  	ch    1,s000515 [ 1]	137 _
    016334  a0   000001 017677
                                  2149  	ch    1,s001453 [ 1]	140 `
    016335  a0   000001 020635
                                  2150  	ch    1,s001456 [ 1]	141 a
    016336  a0   000001 020640
                                  2151  	ch    1,s001461 [ 1]	142 b
    016337  a0   000001 020643
                                  2152  	ch    1,s001464 [ 1]	143 c
    016340  a0   000001 020646
                                  2153  	ch    1,s001467 [ 1]	144 d
    016341  a0   000001 020651
                                  2154  	ch    1,s001472 [ 1]	145 e
    016342  a0   000001 020654
                                  2155  	ch    1,s001475 [ 1]	146 f
    016343  a0   000001 020657
                                  2156  	ch    1,s001500 [ 1]	147 g
    016344  a0   000001 020662
                                  2157  	ch    1,s001503 [ 1]	150 h
    016345  a0   000001 020665
                                  2158  	ch    1,s001506 [ 1]	151 i
    016346  a0   000001 020670
                                  2159  	ch    1,s001511 [ 1]	152 j
    016347  a0   000001 020673
                                  2160  	ch    1,s001514 [ 1]	153 k
    016350  a0   000001 020676
                                  2161  	ch    1,s001517 [ 1]	154 l
    016351  a0   000001 020701
                                  2162  	ch    1,s001522 [ 1]	155 m
    016352  a0   000001 020704
                                  2163  	ch    1,s001525 [ 1]	156 n
    016353  a0   000001 020707
                                  2164  	ch    1,s001530 [ 1]	157 o
    016354  a0   000001 020712
                                  2165  	ch    1,s001533 [ 1]	160 p
    016355  a0   000001 020715
                                  2166  	ch    1,s001536 [ 1]	161 q
    016356  a0   000001 020720
                                  2167  	ch    1,s001541 [ 1]	162 r
    016357  a0   000001 020723
                                  2168  	ch    1,s001544 [ 1]	163 s
    016360  a0   000001 020726
                                  2169  	ch    1,s001547 [ 1]	164 t
    016361  a0   000001 020731
                                  2170  	ch    1,s001552 [ 1]	165 u
    016362  a0   000001 020734
                                  2171  	ch    1,s001555 [ 1]	166 v
    016363  a0   000001 020737
                                  2172  	ch    1,s001560 [ 1]	167 w
    016364  a0   000001 020742
                                  2173  	ch    1,s001563 [ 1]	170 x
    016365  a0   000001 020745
                                  2174  	ch    1,s001566 [ 1]	171 y
    016366  a0   000001 020750
                                  2175  	ch    1,s001571 [ 1]	172 z
    016367  a0   000001 020753
                                  2176  	ch    1,s001574 [ 1]	173 {
    016370  a0   000001 020756
                                  2177  	ch    1,s001577 [ 1]	174 |
    016371  a0   000001 020761
                                  2178  	ch    1,s001602 [ 1]	175 }
    016372  a0   000001 020764
                                  2179  	ch    1,s001605 [ 1]	176 ~
    016373  a0   000001 020767
                                  2180  	ch    1,s000635 [ 0]	177 PAD
    016374  a0   000001 020017
                                  2181  	no_ch (29)
                                  2182  	ch    1,s000637 [ 1]	235
    016432  a0   000001 020021
                                  2183  	ch    1,s000641 [ 1]	236
    016433  a0   000001 020023
                                  2184  	ch    1,s000643 [ 1]	237
    016434  a0   000001 020025
                                  2185  	ch    1,s000617 [ 1]	240
    016435  a0   000001 020001
                                  2186  	no_ch (12)
                                  2187  	ch    1,s000623 [ 2]	255 EMdash
    016452  a0   000001 020005
                                  2188  	no_ch (17)
                                  2189  	ch    1,s000002 [ 0]	277
    016474  a0   000001 017500
                                  2190  	no_ch (3)
                                  2191  	ch    1,s000664 [ 3]	303 copyright
    016500  a0   000001 020046
                                  2192  	no_ch (9)
                                  2193  	ch    1,s000651 [ 1]	315 bullet
    016512  a0   000001 020033
                                  2194  	no_ch (2)
                                  2195  	ch    1,s000660 [ 2]	320 PI
    016515  a0   000001 020042
                                  2196  	no_ch (3)
                                  2197  	ch    1,s000666 [ 4]	324
    016521  a0   000001 020050
                                  2198  	no_ch (27)
                                  2199  	ch    1,s000662 [ 2]	360 pi
    016555  a0   000001 020044
                                  2200  	no_ch (12)
                                  2201  	ch    1,s000645 [ 1]	375 square
    016572  a0   000001 020027
                                  2202  	no_ch (1)
                                  2203  	ch    1,s000317 [ 1]	377 punct SP
    016574  a0   000001 017501
                                  2204  	no_ch (10)
                                  2205  	ch    1,s000621 [ 2]	412 EM
    016607  a0   000001 020003
                                  2206  	ch    1,s000647 [ 2]	413 EM _dash
    016610  a0   000001 020031
                                  2207  	ch    1,s000317 [ 1]	414 EN
    016611  a0   000001 017501
                                  2208  	ch    1,s000515 [ 1]	415 EN _dash
    016612  a0   000001 017677
                                  2209  	ch    1,s000351 [ 1]	416 EN dash
    016613  a0   000001 017533
                                  2210  	ch    1,s000317 [ 1]	417 thin space
    016614  a0   000001 017501
                                  2211  	ch    1,s000351 [ 1]	420 hyphen
    016615  a0   000001 017533
                                  2212  	ch    1,s000323 [ 1]	421 ``
    016616  a0   000001 017505
                                  2213  	ch    1,s000323 [ 1]	422 ''
    016617  a0   000001 017505
                                  2214  	ch    1,s000477 [ 1]	423 1hi X
    016620  a0   000001 017661
                                  2215  	ch    1,s000653 [ 1]	424
    016621  a0   000001 020035
                                  2216  	ch    1,s000573 [ 1]	425 v|
    016622  a0   000001 017755
                                  2217  	ch    1,s000573 [ 1]	426
    016623  a0   000001 017755
                                  2218  	ch    1,s000407 [ 1]	427 dia left
    016624  a0   000001 017571
                                  2219  	ch    1,s000343 [ 1]	430 delete mark
    016625  a0   000001 017525
                                  2220  	ch    1,s000413 [ 1]	431 dia right
    016626  a0   000001 017575
                                  2221  	ch    1,s000513 [ 1]	432 dia top
    016627  a0   000001 017675
                                  2222  	ch    1,s000407 [ 1]	433 <
    016630  a0   000001 017571
                                  2223  	ch    1,s000605 [ 1]	434 1hi {
    016631  a0   000001 017767
                                  2224  	ch    1,s000505 [ 1]	435 1hi [
    016632  a0   000001 017667
                                  2225  	ch    1,s000337 [ 1]	436 left circle
    016633  a0   000001 017521
                                  2226  	ch    1,s000337 [ 1]	437
    016634  a0   000001 017521
                                  2227  	ch    1,s000413 [ 1]	440 ->
    016635  a0   000001 017575
                                  2228  	ch    1,s000611 [ 1]	441 1hi }
    016636  a0   000001 017773
                                  2229  	ch    1,s000511 [ 1]	442 1hi ]
    016637  a0   000001 017673
                                  2230  	ch    1,s000341 [ 1]	443 right circle
    016640  a0   000001 017523
                                  2231  	ch    1,s000341 [ 1]	444
    016641  a0   000001 017523
                                  2232  	ch    1,s000513 [ 1]	445 ^|
    016642  a0   000001 017675
                                  2233  	no_ch (1)
                                  2234  	ch    1,s000505 [ 1]	447
    016644  a0   000001 017667
                                  2235  	ch    1,s000505 [ 1]	450
    016645  a0   000001 017667
                                  2236  	ch    1,s000505 [ 1]	451
    016646  a0   000001 017667
                                  2237  	ch    1,s000505 [ 1]	452
    016647  a0   000001 017667
                                  2238  	ch    1,s000002 [ 0]	453
    016650  a0   000001 017500
                                  2239  	ch    1,s000505 [ 1]	454
    016651  a0   000001 017667
                                  2240  	ch    1,s000511 [ 1]	455
    016652  a0   000001 017673
                                  2241  	ch    1,s000511 [ 1]	456
    016653  a0   000001 017673
                                  2242  	ch    1,s000511 [ 1]	457
    016654  a0   000001 017673
                                  2243  	ch    1,s000511 [ 1]	460
    016655  a0   000001 017673
                                  2244  	ch    1,s000002 [ 0]	461
    016656  a0   000001 017500
                                  2245  	ch    1,s000511 [ 1]	462
    016657  a0   000001 017673
                                  2246  	ch    1,s000605 [ 1]	463
    016660  a0   000001 017767
                                  2247  	ch    1,s000605 [ 1]	464
    016661  a0   000001 017767
                                  2248  	ch    1,s000605 [ 1]	465
    016662  a0   000001 017767
                                  2249  	ch    1,s000605 [ 1]	466
    016663  a0   000001 017767
                                  2250  	ch    1,s000002 [ 0]	467
    016664  a0   000001 017500
                                  2251  	ch    1,s000605 [ 1]	470
    016665  a0   000001 017767
                                  2252  	ch    1,s000611 [ 1]	471
    016666  a0   000001 017773
                                  2253  	ch    1,s000611 [ 1]	472
    016667  a0   000001 017773
                                  2254  	ch    1,s000611 [ 1]	473
    016670  a0   000001 017773
                                  2255  	ch    1,s000611 [ 1]	474
    016671  a0   000001 017773
                                  2256  	ch    1,s000002 [ 0]	475
    016672  a0   000001 017500
                                  2257  	ch    1,s000611 [ 1]	476
    016673  a0   000001 017773
                                  2258  	ch    1,s000337 [ 1]	477
    016674  a0   000001 017521
                                  2259  	ch    1,s000337 [ 1]	500
    016675  a0   000001 017521
                                  2260  	ch    1,s000337 [ 1]	501
    016676  a0   000001 017521
                                  2261  	ch    1,s000337 [ 1]	502
    016677  a0   000001 017521
                                  2262  	ch    1,s000002 [ 0]	503
    016700  a0   000001 017500
                                  2263  	ch    1,s000337 [ 1]	504
    016701  a0   000001 017521
                                  2264  	ch    1,s000341 [ 1]	505
    016702  a0   000001 017523
                                  2265  	ch    1,s000341 [ 1]	506
    016703  a0   000001 017523
                                  2266  	ch    1,s000341 [ 1]	507
    016704  a0   000001 017523
                                  2267  	ch    1,s000341 [ 1]	510
    016705  a0   000001 017523
                                  2268  	ch    1,s000002 [ 0]	511
    016706  a0   000001 017500
                                  2269  	ch    1,s000341 [ 1]	512
    016707  a0   000001 017523
                                  2270  	ch    1,s000607 [ 1]	513
    016710  a0   000001 017771
                                  2271  	ch    1,s000607 [ 1]	514
    016711  a0   000001 017771
                                  2272  	ch    1,s000607 [ 1]	515
    016712  a0   000001 017771
                                  2273  	ch    1,s000607 [ 1]	516
    016713  a0   000001 017771
                                  2274  	ch    1,s000002 [ 0]	517
    016714  a0   000001 017500
                                  2275  	ch    1,s000607 [ 1]	520
    016715  a0   000001 017771
                                  2276  	ch    1,s000656 [ 1]	521
    016716  a0   000001 020040
                                  2277  	ch    1,s000656 [ 1]	522
    016717  a0   000001 020040
                                  2278  	ch    1,s000656 [ 1]	523
    016720  a0   000001 020040
                                  2279  	ch    1,s000656 [ 1]	524
    016721  a0   000001 020040
                                  2280  	ch    1,s000002 [ 0]	525
    016722  a0   000001 017500
                                  2281  	ch    1,s000656 [ 1]	526
    016723  a0   000001 020040
                                  2282  	ch    1,s000607 [ 1]	527
    016724  a0   000001 017771
                                  2283  	ch    1,s000656 [ 1]	530
    016725  a0   000001 020040
                                  2284  	ch    1,s000355 [ 1]	531
    016726  a0   000001 017537
                                  2285  	ch    1,s000670 [ 0]	532
    016727  a0   000001 020052
                                  2286  	ch    1,s000002 [ 0]	533
    016730  a0   000001 017500
                                  2287  	ch    1,s000515 [ 1]	534
    016731  a0   000001 017677
                                  2288  	ch    1,s000002 [ 0]	535
    016732  a0   000001 017500
                                  2289  	ch    1,s000507 [ 1]	536
    016733  a0   000001 017671
                                  2290  	ch    1,s000355 [ 1]	537
    016734  a0   000001 017537
    016735                        2291  opu.6:
                                  2292  	oput.data_ct	351
    016735  aa   000000 000537
                                  2293  	no_ch (8)
                                  2294  	ch    1,s000615 [-1]	010 BSP
    016746  a0   000001 017777
                                  2295  	no_ch (3)
                                  2296  	ch    1,s000631 [ 0]	014 FF
    016752  a0   000001 020013
                                  2297  	no_ch (1)
                                  2298  	ch    1,s000625 [ 0]	016
    016754  a0   000001 020007
                                  2299  	ch    1,s000627 [ 0]	017
    016755  a0   000001 020011
                                  2300  	no_ch (11)
                                  2301  	ch    1,s000633 [-1]	033 ESC
    016771  a0   000001 020015
                                  2302  	no_ch (4)
                                  2303  	ch    1,s000317 [ 1]	040 SP
    016776  a0   000001 017501
                                  2304  	ch    1,s001610 [ 1]	041 !
    016777  a0   000001 020772
                                  2305  	ch    1,s001613 [ 1]	042 "
    017000  a0   000001 020775
                                  2306  	ch    1,s001616 [ 1]	043 #
    017001  a0   000001 021000
                                  2307  	ch    1,s001621 [ 1]	044 $
    017002  a0   000001 021003
                                  2308  	ch    1,s001624 [ 1]	045 %
    017003  a0   000001 021006
                                  2309  	ch    1,s001627 [ 1]	046 &
    017004  a0   000001 021011
                                  2310  	ch    1,s001632 [ 1]	047 '
    017005  a0   000001 021014
                                  2311  	ch    1,s001635 [ 1]	050 Lp
    017006  a0   000001 021017
                                  2312  	ch    1,s001640 [ 1]	051 Rp
    017007  a0   000001 021022
                                  2313  	ch    1,s001643 [ 1]	052 *
    017010  a0   000001 021025
                                  2314  	ch    1,s001646 [ 1]	053 +
    017011  a0   000001 021030
                                  2315  	ch    1,s001651 [ 1]	054 ,
    017012  a0   000001 021033
                                  2316  	ch    1,s001654 [ 1]	055 -
    017013  a0   000001 021036
                                  2317  	ch    1,s001657 [ 1]	056 .
    017014  a0   000001 021041
                                  2318  	ch    1,s001662 [ 1]	057 /
    017015  a0   000001 021044
                                  2319  	ch    1,s001665 [ 1]	060 0
    017016  a0   000001 021047
                                  2320  	ch    1,s001670 [ 1]	061 1
    017017  a0   000001 021052
                                  2321  	ch    1,s001673 [ 1]	062 2
    017020  a0   000001 021055
                                  2322  	ch    1,s001676 [ 1]	063 3
    017021  a0   000001 021060
                                  2323  	ch    1,s001701 [ 1]	064 4
    017022  a0   000001 021063
                                  2324  	ch    1,s001704 [ 1]	065 5
    017023  a0   000001 021066
                                  2325  	ch    1,s001707 [ 1]	066 6
    017024  a0   000001 021071
                                  2326  	ch    1,s001712 [ 1]	067 7
    017025  a0   000001 021074
                                  2327  	ch    1,s001715 [ 1]	070 8
    017026  a0   000001 021077
                                  2328  	ch    1,s001720 [ 1]	071 9
    017027  a0   000001 021102
                                  2329  	ch    1,s001723 [ 1]	072 :
    017030  a0   000001 021105
                                  2330  	ch    1,s001726 [ 1]	073 ;
    017031  a0   000001 021110
                                  2331  	ch    1,s001731 [ 1]	074 <
    017032  a0   000001 021113
                                  2332  	ch    1,s001734 [ 1]	075 =
    017033  a0   000001 021116
                                  2333  	ch    1,s001737 [ 1]	076 >
    017034  a0   000001 021121
                                  2334  	ch    1,s001742 [ 1]	077 ?
    017035  a0   000001 021124
                                  2335  	ch    1,s001745 [ 1]	100 @
    017036  a0   000001 021127
                                  2336  	ch    1,s001750 [ 1]	101 A
    017037  a0   000001 021132
                                  2337  	ch    1,s001753 [ 1]	102 B
    017040  a0   000001 021135
                                  2338  	ch    1,s001756 [ 1]	103 C
    017041  a0   000001 021140
                                  2339  	ch    1,s001761 [ 1]	104 D
    017042  a0   000001 021143
                                  2340  	ch    1,s001764 [ 1]	105 E
    017043  a0   000001 021146
                                  2341  	ch    1,s001767 [ 1]	106 F
    017044  a0   000001 021151
                                  2342  	ch    1,s001772 [ 1]	107 G
    017045  a0   000001 021154
                                  2343  	ch    1,s001775 [ 1]	110 H
    017046  a0   000001 021157
                                  2344  	ch    1,s002000 [ 1]	111 I
    017047  a0   000001 021162
                                  2345  	ch    1,s002003 [ 1]	112 J
    017050  a0   000001 021165
                                  2346  	ch    1,s002006 [ 1]	113 K
    017051  a0   000001 021170
                                  2347  	ch    1,s002011 [ 1]	114 L
    017052  a0   000001 021173
                                  2348  	ch    1,s002014 [ 1]	115 M
    017053  a0   000001 021176
                                  2349  	ch    1,s002017 [ 1]	116 N
    017054  a0   000001 021201
                                  2350  	ch    1,s002022 [ 1]	117 O
    017055  a0   000001 021204
                                  2351  	ch    1,s002025 [ 1]	120 P
    017056  a0   000001 021207
                                  2352  	ch    1,s002030 [ 1]	121 Q
    017057  a0   000001 021212
                                  2353  	ch    1,s002033 [ 1]	122 R
    017060  a0   000001 021215
                                  2354  	ch    1,s002036 [ 1]	123 S
    017061  a0   000001 021220
                                  2355  	ch    1,s002041 [ 1]	124 T
    017062  a0   000001 021223
                                  2356  	ch    1,s002044 [ 1]	125 U
    017063  a0   000001 021226
                                  2357  	ch    1,s002047 [ 1]	126 V
    017064  a0   000001 021231
                                  2358  	ch    1,s002052 [ 1]	127 W
    017065  a0   000001 021234
                                  2359  	ch    1,s002055 [ 1]	130 X
    017066  a0   000001 021237
                                  2360  	ch    1,s002060 [ 1]	131 Y
    017067  a0   000001 021242
                                  2361  	ch    1,s002063 [ 1]	132 Z
    017070  a0   000001 021245
                                  2362  	ch    1,s002066 [ 1]	133 [
    017071  a0   000001 021250
                                  2363  	ch    1,s002071 [ 1]	134 \
    017072  a0   000001 021253
                                  2364  	ch    1,s002074 [ 1]	135 ]
    017073  a0   000001 021256
                                  2365  	ch    1,s002077 [ 1]	136 ^
    017074  a0   000001 021261
                                  2366  	ch    1,s000515 [ 1]	137 _
    017075  a0   000001 017677
                                  2367  	ch    1,s002102 [ 1]	140 `
    017076  a0   000001 021264
                                  2368  	ch    1,s002105 [ 1]	141 a
    017077  a0   000001 021267
                                  2369  	ch    1,s002110 [ 1]	142 b
    017100  a0   000001 021272
                                  2370  	ch    1,s002113 [ 1]	143 c
    017101  a0   000001 021275
                                  2371  	ch    1,s002116 [ 1]	144 d
    017102  a0   000001 021300
                                  2372  	ch    1,s002121 [ 1]	145 e
    017103  a0   000001 021303
                                  2373  	ch    1,s002124 [ 1]	146 f
    017104  a0   000001 021306
                                  2374  	ch    1,s002127 [ 1]	147 g
    017105  a0   000001 021311
                                  2375  	ch    1,s002132 [ 1]	150 h
    017106  a0   000001 021314
                                  2376  	ch    1,s002135 [ 1]	151 i
    017107  a0   000001 021317
                                  2377  	ch    1,s002140 [ 1]	152 j
    017110  a0   000001 021322
                                  2378  	ch    1,s002143 [ 1]	153 k
    017111  a0   000001 021325
                                  2379  	ch    1,s002146 [ 1]	154 l
    017112  a0   000001 021330
                                  2380  	ch    1,s002151 [ 1]	155 m
    017113  a0   000001 021333
                                  2381  	ch    1,s002154 [ 1]	156 n
    017114  a0   000001 021336
                                  2382  	ch    1,s002157 [ 1]	157 o
    017115  a0   000001 021341
                                  2383  	ch    1,s002162 [ 1]	160 p
    017116  a0   000001 021344
                                  2384  	ch    1,s002165 [ 1]	161 q
    017117  a0   000001 021347
                                  2385  	ch    1,s002170 [ 1]	162 r
    017120  a0   000001 021352
                                  2386  	ch    1,s002173 [ 1]	163 s
    017121  a0   000001 021355
                                  2387  	ch    1,s002176 [ 1]	164 t
    017122  a0   000001 021360
                                  2388  	ch    1,s002201 [ 1]	165 u
    017123  a0   000001 021363
                                  2389  	ch    1,s002204 [ 1]	166 v
    017124  a0   000001 021366
                                  2390  	ch    1,s002207 [ 1]	167 w
    017125  a0   000001 021371
                                  2391  	ch    1,s002212 [ 1]	170 x
    017126  a0   000001 021374
                                  2392  	ch    1,s002215 [ 1]	171 y
    017127  a0   000001 021377
                                  2393  	ch    1,s002220 [ 1]	172 z
    017130  a0   000001 021402
                                  2394  	ch    1,s002223 [ 1]	173 {
    017131  a0   000001 021405
                                  2395  	ch    1,s002226 [ 1]	174 |
    017132  a0   000001 021410
                                  2396  	ch    1,s002231 [ 1]	175 }
    017133  a0   000001 021413
                                  2397  	ch    1,s002234 [ 1]	176 ~
    017134  a0   000001 021416
                                  2398  	ch    1,s000635 [ 0]	177 PAD
    017135  a0   000001 020017
                                  2399  	no_ch (29)
                                  2400  	ch    1,s000637 [ 1]	235
    017173  a0   000001 020021
                                  2401  	ch    1,s000641 [ 1]	236
    017174  a0   000001 020023
                                  2402  	ch    1,s000643 [ 1]	237
    017175  a0   000001 020025
                                  2403  	ch    1,s000617 [ 1]	240
    017176  a0   000001 020001
                                  2404  	no_ch (12)
                                  2405  	ch    1,s000623 [ 2]	255 EMdash
    017213  a0   000001 020005
                                  2406  	no_ch (17)
                                  2407  	ch    1,s000002 [ 0]	277
    017235  a0   000001 017500
                                  2408  	no_ch (3)
                                  2409  	ch    1,s000664 [ 3]	303 copyright
    017241  a0   000001 020046
                                  2410  	no_ch (9)
                                  2411  	ch    1,s000651 [ 1]	315 bullet
    017253  a0   000001 020033
                                  2412  	no_ch (2)
                                  2413  	ch    1,s000660 [ 2]	320 PI
    017256  a0   000001 020042
                                  2414  	no_ch (3)
                                  2415  	ch    1,s000666 [ 4]	324
    017262  a0   000001 020050
                                  2416  	no_ch (27)
                                  2417  	ch    1,s000662 [ 2]	360 pi
    017316  a0   000001 020044
                                  2418  	no_ch (12)
                                  2419  	ch    1,s000645 [ 1]	375 square
    017333  a0   000001 020027
                                  2420  	no_ch (1)
                                  2421  	ch    1,s000317 [ 1]	377 punct SP
    017335  a0   000001 017501
                                  2422  	no_ch (10)
                                  2423  	ch    1,s000621 [ 2]	412 EM
    017350  a0   000001 020003
                                  2424  	ch    1,s000647 [ 2]	413 EM _dash
    017351  a0   000001 020031
                                  2425  	ch    1,s000317 [ 1]	414 EN
    017352  a0   000001 017501
                                  2426  	ch    1,s000515 [ 1]	415 EN _dash
    017353  a0   000001 017677
                                  2427  	ch    1,s000351 [ 1]	416 EN dash
    017354  a0   000001 017533
                                  2428  	ch    1,s000317 [ 1]	417 thin space
    017355  a0   000001 017501
                                  2429  	ch    1,s000351 [ 1]	420 hyphen
    017356  a0   000001 017533
                                  2430  	ch    1,s000323 [ 1]	421 ``
    017357  a0   000001 017505
                                  2431  	ch    1,s000323 [ 1]	422 ''
    017360  a0   000001 017505
                                  2432  	ch    1,s000477 [ 1]	423 1hi X
    017361  a0   000001 017661
                                  2433  	ch    1,s000653 [ 1]	424
    017362  a0   000001 020035
                                  2434  	ch    1,s000573 [ 1]	425 v|
    017363  a0   000001 017755
                                  2435  	ch    1,s000573 [ 1]	426
    017364  a0   000001 017755
                                  2436  	ch    1,s000407 [ 1]	427 dia left
    017365  a0   000001 017571
                                  2437  	ch    1,s000343 [ 1]	430 delete mark
    017366  a0   000001 017525
                                  2438  	ch    1,s000413 [ 1]	431 dia right
    017367  a0   000001 017575
                                  2439  	ch    1,s000513 [ 1]	432 dia top
    017370  a0   000001 017675
                                  2440  	ch    1,s000407 [ 1]	433 <
    017371  a0   000001 017571
                                  2441  	ch    1,s000605 [ 1]	434 1hi {
    017372  a0   000001 017767
                                  2442  	ch    1,s000505 [ 1]	435 1hi [
    017373  a0   000001 017667
                                  2443  	ch    1,s000337 [ 1]	436 left circle
    017374  a0   000001 017521
                                  2444  	ch    1,s000337 [ 1]	437
    017375  a0   000001 017521
                                  2445  	ch    1,s000413 [ 1]	440 ->
    017376  a0   000001 017575
                                  2446  	ch    1,s000611 [ 1]	441 1hi }
    017377  a0   000001 017773
                                  2447  	ch    1,s000511 [ 1]	442 1hi ]
    017400  a0   000001 017673
                                  2448  	ch    1,s000341 [ 1]	443 right circle
    017401  a0   000001 017523
                                  2449  	ch    1,s000341 [ 1]	444
    017402  a0   000001 017523
                                  2450  	ch    1,s000513 [ 1]	445 ^|
    017403  a0   000001 017675
                                  2451  	no_ch (1)
                                  2452  	ch    1,s000505 [ 1]	447
    017405  a0   000001 017667
                                  2453  	ch    1,s000505 [ 1]	450
    017406  a0   000001 017667
                                  2454  	ch    1,s000505 [ 1]	451
    017407  a0   000001 017667
                                  2455  	ch    1,s000505 [ 1]	452
    017410  a0   000001 017667
                                  2456  	ch    1,s000002 [ 0]	453
    017411  a0   000001 017500
                                  2457  	ch    1,s000505 [ 1]	454
    017412  a0   000001 017667
                                  2458  	ch    1,s000511 [ 1]	455
    017413  a0   000001 017673
                                  2459  	ch    1,s000511 [ 1]	456
    017414  a0   000001 017673
                                  2460  	ch    1,s000511 [ 1]	457
    017415  a0   000001 017673
                                  2461  	ch    1,s000511 [ 1]	460
    017416  a0   000001 017673
                                  2462  	ch    1,s000002 [ 0]	461
    017417  a0   000001 017500
                                  2463  	ch    1,s000511 [ 1]	462
    017420  a0   000001 017673
                                  2464  	ch    1,s000605 [ 1]	463
    017421  a0   000001 017767
                                  2465  	ch    1,s000605 [ 1]	464
    017422  a0   000001 017767
                                  2466  	ch    1,s000605 [ 1]	465
    017423  a0   000001 017767
                                  2467  	ch    1,s000605 [ 1]	466
    017424  a0   000001 017767
                                  2468  	ch    1,s000002 [ 0]	467
    017425  a0   000001 017500
                                  2469  	ch    1,s000605 [ 1]	470
    017426  a0   000001 017767
                                  2470  	ch    1,s000611 [ 1]	471
    017427  a0   000001 017773
                                  2471  	ch    1,s000611 [ 1]	472
    017430  a0   000001 017773
                                  2472  	ch    1,s000611 [ 1]	473
    017431  a0   000001 017773
                                  2473  	ch    1,s000611 [ 1]	474
    017432  a0   000001 017773
                                  2474  	ch    1,s000002 [ 0]	475
    017433  a0   000001 017500
                                  2475  	ch    1,s000611 [ 1]	476
    017434  a0   000001 017773
                                  2476  	ch    1,s000337 [ 1]	477
    017435  a0   000001 017521
                                  2477  	ch    1,s000337 [ 1]	500
    017436  a0   000001 017521
                                  2478  	ch    1,s000337 [ 1]	501
    017437  a0   000001 017521
                                  2479  	ch    1,s000337 [ 1]	502
    017440  a0   000001 017521
                                  2480  	ch    1,s000002 [ 0]	503
    017441  a0   000001 017500
                                  2481  	ch    1,s000337 [ 1]	504
    017442  a0   000001 017521
                                  2482  	ch    1,s000341 [ 1]	505
    017443  a0   000001 017523
                                  2483  	ch    1,s000341 [ 1]	506
    017444  a0   000001 017523
                                  2484  	ch    1,s000341 [ 1]	507
    017445  a0   000001 017523
                                  2485  	ch    1,s000341 [ 1]	510
    017446  a0   000001 017523
                                  2486  	ch    1,s000002 [ 0]	511
    017447  a0   000001 017500
                                  2487  	ch    1,s000341 [ 1]	512
    017450  a0   000001 017523
                                  2488  	ch    1,s000607 [ 1]	513
    017451  a0   000001 017771
                                  2489  	ch    1,s000607 [ 1]	514
    017452  a0   000001 017771
                                  2490  	ch    1,s000607 [ 1]	515
    017453  a0   000001 017771
                                  2491  	ch    1,s000607 [ 1]	516
    017454  a0   000001 017771
                                  2492  	ch    1,s000002 [ 0]	517
    017455  a0   000001 017500
                                  2493  	ch    1,s000607 [ 1]	520
    017456  a0   000001 017771
                                  2494  	ch    1,s000656 [ 1]	521
    017457  a0   000001 020040
                                  2495  	ch    1,s000656 [ 1]	522
    017460  a0   000001 020040
                                  2496  	ch    1,s000656 [ 1]	523
    017461  a0   000001 020040
                                  2497  	ch    1,s000656 [ 1]	524
    017462  a0   000001 020040
                                  2498  	ch    1,s000002 [ 0]	525
    017463  a0   000001 017500
                                  2499  	ch    1,s000656 [ 1]	526
    017464  a0   000001 020040
                                  2500  	ch    1,s000607 [ 1]	527
    017465  a0   000001 017771
                                  2501  	ch    1,s000656 [ 1]	530
    017466  a0   000001 020040
                                  2502  	ch    1,s000355 [ 1]	531
    017467  a0   000001 017537
                                  2503  	ch    1,s000670 [ 0]	532
    017470  a0   000001 020052
                                  2504  	ch    1,s000002 [ 0]	533
    017471  a0   000001 017500
                                  2505  	ch    1,s000515 [ 1]	534
    017472  a0   000001 017677
                                  2506  	ch    1,s000002 [ 0]	535
    017473  a0   000001 017500
                                  2507  	ch    1,s000507 [ 1]	536
    017474  a0   000001 017671
                                  2508  	ch    1,s000355 [ 1]	537
    017475  a0   000001 017537
                                  2509
    017476                        2510  size.1:
                                  2511  	sizel.val_ct	1
    017476  aa   000000 000001
                                  2512  	sizel..val	7200
    017477  aa   000000 016040
    017500  aa   000000 000000    2513  s000002:	oct	0
    017501  aa   000000 000001    2514  s000317:	oct	1
    017502  aa   040000 000000    2515  	oct	040000000000
    017503  aa   000000 000001    2516  s000321:	oct	1
    017504  aa   041000 000000    2517  	oct	041000000000
    017505  aa   000000 000001    2518  s000323:	oct	1
    017506  aa   042000 000000    2519  	oct	042000000000
    017507  aa   000000 000001    2520  s000325:	oct	1
    017510  aa   043000 000000    2521  	oct	043000000000
    017511  aa   000000 000001    2522  s000327:	oct	1
    017512  aa   044000 000000    2523  	oct	044000000000
    017513  aa   000000 000001    2524  s000331:	oct	1
    017514  aa   045000 000000    2525  	oct	045000000000
    017515  aa   000000 000001    2526  s000333:	oct	1
    017516  aa   046000 000000    2527  	oct	046000000000
    017517  aa   000000 000001    2528  s000335:	oct	1
    017520  aa   047000 000000    2529  	oct	047000000000
    017521  aa   000000 000001    2530  s000337:	oct	1
    017522  aa   050000 000000    2531  	oct	050000000000
    017523  aa   000000 000001    2532  s000341:	oct	1
    017524  aa   051000 000000    2533  	oct	051000000000
    017525  aa   000000 000001    2534  s000343:	oct	1
    017526  aa   052000 000000    2535  	oct	052000000000
    017527  aa   000000 000001    2536  s000345:	oct	1
    017530  aa   053000 000000    2537  	oct	053000000000
    017531  aa   000000 000001    2538  s000347:	oct	1
    017532  aa   054000 000000    2539  	oct	054000000000
    017533  aa   000000 000001    2540  s000351:	oct	1
    017534  aa   055000 000000    2541  	oct	055000000000
    017535  aa   000000 000001    2542  s000353:	oct	1
    017536  aa   056000 000000    2543  	oct	056000000000
    017537  aa   000000 000001    2544  s000355:	oct	1
    017540  aa   057000 000000    2545  	oct	057000000000
    017541  aa   000000 000001    2546  s000357:	oct	1
    017542  aa   060000 000000    2547  	oct	060000000000
    017543  aa   000000 000001    2548  s000361:	oct	1
    017544  aa   061000 000000    2549  	oct	061000000000
    017545  aa   000000 000001    2550  s000363:	oct	1
    017546  aa   062000 000000    2551  	oct	062000000000
    017547  aa   000000 000001    2552  s000365:	oct	1
    017550  aa   063000 000000    2553  	oct	063000000000
    017551  aa   000000 000001    2554  s000367:	oct	1
    017552  aa   064000 000000    2555  	oct	064000000000
    017553  aa   000000 000001    2556  s000371:	oct	1
    017554  aa   065000 000000    2557  	oct	065000000000
    017555  aa   000000 000001    2558  s000373:	oct	1
    017556  aa   066000 000000    2559  	oct	066000000000
    017557  aa   000000 000001    2560  s000375:	oct	1
    017560  aa   067000 000000    2561  	oct	067000000000
    017561  aa   000000 000001    2562  s000377:	oct	1
    017562  aa   070000 000000    2563  	oct	070000000000
    017563  aa   000000 000001    2564  s000401:	oct	1
    017564  aa   071000 000000    2565  	oct	071000000000
    017565  aa   000000 000001    2566  s000403:	oct	1
    017566  aa   072000 000000    2567  	oct	072000000000
    017567  aa   000000 000001    2568  s000405:	oct	1
    017570  aa   073000 000000    2569  	oct	073000000000
    017571  aa   000000 000001    2570  s000407:	oct	1
    017572  aa   074000 000000    2571  	oct	074000000000
    017573  aa   000000 000001    2572  s000411:	oct	1
    017574  aa   075000 000000    2573  	oct	075000000000
    017575  aa   000000 000001    2574  s000413:	oct	1
    017576  aa   076000 000000    2575  	oct	076000000000
    017577  aa   000000 000001    2576  s000415:	oct	1
    017600  aa   077000 000000    2577  	oct	077000000000
    017601  aa   000000 000001    2578  s000417:	oct	1
    017602  aa   100000 000000    2579  	oct	100000000000
    017603  aa   000000 000001    2580  s000421:	oct	1
    017604  aa   101000 000000    2581  	oct	101000000000
    017605  aa   000000 000001    2582  s000423:	oct	1
    017606  aa   102000 000000    2583  	oct	102000000000
    017607  aa   000000 000001    2584  s000425:	oct	1
    017610  aa   103000 000000    2585  	oct	103000000000
    017611  aa   000000 000001    2586  s000427:	oct	1
    017612  aa   104000 000000    2587  	oct	104000000000
    017613  aa   000000 000001    2588  s000431:	oct	1
    017614  aa   105000 000000    2589  	oct	105000000000
    017615  aa   000000 000001    2590  s000433:	oct	1
    017616  aa   106000 000000    2591  	oct	106000000000
    017617  aa   000000 000001    2592  s000435:	oct	1
    017620  aa   107000 000000    2593  	oct	107000000000
    017621  aa   000000 000001    2594  s000437:	oct	1
    017622  aa   110000 000000    2595  	oct	110000000000
    017623  aa   000000 000001    2596  s000441:	oct	1
    017624  aa   111000 000000    2597  	oct	111000000000
    017625  aa   000000 000001    2598  s000443:	oct	1
    017626  aa   112000 000000    2599  	oct	112000000000
    017627  aa   000000 000001    2600  s000445:	oct	1
    017630  aa   113000 000000    2601  	oct	113000000000
    017631  aa   000000 000001    2602  s000447:	oct	1
    017632  aa   114000 000000    2603  	oct	114000000000
    017633  aa   000000 000001    2604  s000451:	oct	1
    017634  aa   115000 000000    2605  	oct	115000000000
    017635  aa   000000 000001    2606  s000453:	oct	1
    017636  aa   116000 000000    2607  	oct	116000000000
    017637  aa   000000 000001    2608  s000455:	oct	1
    017640  aa   117000 000000    2609  	oct	117000000000
    017641  aa   000000 000001    2610  s000457:	oct	1
    017642  aa   120000 000000    2611  	oct	120000000000
    017643  aa   000000 000001    2612  s000461:	oct	1
    017644  aa   121000 000000    2613  	oct	121000000000
    017645  aa   000000 000001    2614  s000463:	oct	1
    017646  aa   122000 000000    2615  	oct	122000000000
    017647  aa   000000 000001    2616  s000465:	oct	1
    017650  aa   123000 000000    2617  	oct	123000000000
    017651  aa   000000 000001    2618  s000467:	oct	1
    017652  aa   124000 000000    2619  	oct	124000000000
    017653  aa   000000 000001    2620  s000471:	oct	1
    017654  aa   125000 000000    2621  	oct	125000000000
    017655  aa   000000 000001    2622  s000473:	oct	1
    017656  aa   126000 000000    2623  	oct	126000000000
    017657  aa   000000 000001    2624  s000475:	oct	1
    017660  aa   127000 000000    2625  	oct	127000000000
    017661  aa   000000 000001    2626  s000477:	oct	1
    017662  aa   130000 000000    2627  	oct	130000000000
    017663  aa   000000 000001    2628  s000501:	oct	1
    017664  aa   131000 000000    2629  	oct	131000000000
    017665  aa   000000 000001    2630  s000503:	oct	1
    017666  aa   132000 000000    2631  	oct	132000000000
    017667  aa   000000 000001    2632  s000505:	oct	1
    017670  aa   133000 000000    2633  	oct	133000000000
    017671  aa   000000 000001    2634  s000507:	oct	1
    017672  aa   134000 000000    2635  	oct	134000000000
    017673  aa   000000 000001    2636  s000511:	oct	1
    017674  aa   135000 000000    2637  	oct	135000000000
    017675  aa   000000 000001    2638  s000513:	oct	1
    017676  aa   136000 000000    2639  	oct	136000000000
    017677  aa   000000 000001    2640  s000515:	oct	1
    017700  aa   137000 000000    2641  	oct	137000000000
    017701  aa   000000 000001    2642  s000517:	oct	1
    017702  aa   140000 000000    2643  	oct	140000000000
    017703  aa   000000 000001    2644  s000521:	oct	1
    017704  aa   141000 000000    2645  	oct	141000000000
    017705  aa   000000 000001    2646  s000523:	oct	1
    017706  aa   142000 000000    2647  	oct	142000000000
    017707  aa   000000 000001    2648  s000525:	oct	1
    017710  aa   143000 000000    2649  	oct	143000000000
    017711  aa   000000 000001    2650  s000527:	oct	1
    017712  aa   144000 000000    2651  	oct	144000000000
    017713  aa   000000 000001    2652  s000531:	oct	1
    017714  aa   145000 000000    2653  	oct	145000000000
    017715  aa   000000 000001    2654  s000533:	oct	1
    017716  aa   146000 000000    2655  	oct	146000000000
    017717  aa   000000 000001    2656  s000535:	oct	1
    017720  aa   147000 000000    2657  	oct	147000000000
    017721  aa   000000 000001    2658  s000537:	oct	1
    017722  aa   150000 000000    2659  	oct	150000000000
    017723  aa   000000 000001    2660  s000541:	oct	1
    017724  aa   151000 000000    2661  	oct	151000000000
    017725  aa   000000 000001    2662  s000543:	oct	1
    017726  aa   152000 000000    2663  	oct	152000000000
    017727  aa   000000 000001    2664  s000545:	oct	1
    017730  aa   153000 000000    2665  	oct	153000000000
    017731  aa   000000 000001    2666  s000547:	oct	1
    017732  aa   154000 000000    2667  	oct	154000000000
    017733  aa   000000 000001    2668  s000551:	oct	1
    017734  aa   155000 000000    2669  	oct	155000000000
    017735  aa   000000 000001    2670  s000553:	oct	1
    017736  aa   156000 000000    2671  	oct	156000000000
    017737  aa   000000 000001    2672  s000555:	oct	1
    017740  aa   157000 000000    2673  	oct	157000000000
    017741  aa   000000 000001    2674  s000557:	oct	1
    017742  aa   160000 000000    2675  	oct	160000000000
    017743  aa   000000 000001    2676  s000561:	oct	1
    017744  aa   161000 000000    2677  	oct	161000000000
    017745  aa   000000 000001    2678  s000563:	oct	1
    017746  aa   162000 000000    2679  	oct	162000000000
    017747  aa   000000 000001    2680  s000565:	oct	1
    017750  aa   163000 000000    2681  	oct	163000000000
    017751  aa   000000 000001    2682  s000567:	oct	1
    017752  aa   164000 000000    2683  	oct	164000000000
    017753  aa   000000 000001    2684  s000571:	oct	1
    017754  aa   165000 000000    2685  	oct	165000000000
    017755  aa   000000 000001    2686  s000573:	oct	1
    017756  aa   166000 000000    2687  	oct	166000000000
    017757  aa   000000 000001    2688  s000575:	oct	1
    017760  aa   167000 000000    2689  	oct	167000000000
    017761  aa   000000 000001    2690  s000577:	oct	1
    017762  aa   170000 000000    2691  	oct	170000000000
    017763  aa   000000 000001    2692  s000601:	oct	1
    017764  aa   171000 000000    2693  	oct	171000000000
    017765  aa   000000 000001    2694  s000603:	oct	1
    017766  aa   172000 000000    2695  	oct	172000000000
    017767  aa   000000 000001    2696  s000605:	oct	1
    017770  aa   173000 000000    2697  	oct	173000000000
    017771  aa   000000 000001    2698  s000607:	oct	1
    017772  aa   174000 000000    2699  	oct	174000000000
    017773  aa   000000 000001    2700  s000611:	oct	1
    017774  aa   175000 000000    2701  	oct	175000000000
    017775  aa   000000 000001    2702  s000613:	oct	1
    017776  aa   176000 000000    2703  	oct	176000000000
    017777  aa   000000 000001    2704  s000615:	oct	1
    020000  aa   010000 000000    2705  	oct	010000000000
    020001  aa   000000 000003    2706  s000617:	oct	3
    020002  aa   166010 136000    2707  	oct	166010136000
    020003  aa   000000 000002    2708  s000621:	oct	2
    020004  aa   040040 000000    2709  	oct	040040000000
    020005  aa   000000 000002    2710  s000623:	oct	2
    020006  aa   055055 000000    2711  	oct	055055000000
    020007  aa   000000 000001    2712  s000625:	oct	1
    020010  aa   016000 000000    2713  	oct	016000000000
    020011  aa   000000 000001    2714  s000627:	oct	1
    020012  aa   017000 000000    2715  	oct	017000000000
    020013  aa   000000 000001    2716  s000631:	oct	1
    020014  aa   014000 000000    2717  	oct	014000000000
    020015  aa   000000 000001    2718  s000633:	oct	1
    020016  aa   033000 000000    2719  	oct	033000000000
    020017  aa   000000 000001    2720  s000635:	oct	1
    020020  aa   177000 000000    2721  	oct	177000000000
    020021  aa   000000 000003    2722  s000637:	oct	3
    020022  aa   137010 144000    2723  	oct	137010144000
    020023  aa   000000 000003    2724  s000641:	oct	3
    020024  aa   137010 156000    2725  	oct	137010156000
    020025  aa   000000 000003    2726  s000643:	oct	3
    020026  aa   137010 170000    2727  	oct	137010170000
    020027  aa   000000 000003    2728  s000645:	oct	3
    020030  aa   132010 116000    2729  	oct	132010116000
    020031  aa   000000 000002    2730  s000647:	oct	2
    020032  aa   137137 000000    2731  	oct	137137000000
    020033  aa   000000 000003    2732  s000651:	oct	3
    020034  aa   157010 170000    2733  	oct	157010170000
    020035  aa   000000 000005    2734  s000653:	oct	5
    020036  aa   174010 133010    2735  	oct	174010133010
    020037  aa   135000 000000    2736  	oct	135000000000
    020040  aa   000000 000003    2737  s000656:	oct	3
    020041  aa   133010 135000    2738  	oct	133010135000
    020042  aa   000000 000002    2739  s000660:	oct	2
    020043  aa   120111 000000    2740  	oct	120111000000
    020044  aa   000000 000002    2741  s000662:	oct	2
    020045  aa   160151 000000    2742  	oct	160151000000
    020046  aa   000000 000003    2743  s000664:	oct	3
    020047  aa   050103 051000    2744  	oct	050103051000
    020050  aa   000000 000004    2745  s000666:	oct	4
    020051  aa   050124 115051    2746  	oct	050124115051
    020052  aa   000000 000002    2747  s000670:	oct	2
    020053  aa   174010 000000    2748  	oct	174010000000
    020054  aa   000000 000003    2749  s000672:	oct	3
    020055  aa   137010 041000    2750  	oct	137010041000
    020056  aa   000000 000003    2751  s000674:	oct	3
    020057  aa   137010 042000    2752  	oct	137010042000
    020060  aa   000000 000003    2753  s000676:	oct	3
    020061  aa   137010 043000    2754  	oct	137010043000
    020062  aa   000000 000003    2755  s000700:	oct	3
    020063  aa   137010 044000    2756  	oct	137010044000
    020064  aa   000000 000003    2757  s000702:	oct	3
    020065  aa   137010 045000    2758  	oct	137010045000
    020066  aa   000000 000003    2759  s000704:	oct	3
    020067  aa   137010 046000    2760  	oct	137010046000
    020070  aa   000000 000003    2761  s000706:	oct	3
    020071  aa   137010 047000    2762  	oct	137010047000
    020072  aa   000000 000003    2763  s000710:	oct	3
    020073  aa   137010 050000    2764  	oct	137010050000
    020074  aa   000000 000003    2765  s000712:	oct	3
    020075  aa   137010 051000    2766  	oct	137010051000
    020076  aa   000000 000003    2767  s000714:	oct	3
    020077  aa   137010 052000    2768  	oct	137010052000
    020100  aa   000000 000003    2769  s000716:	oct	3
    020101  aa   137010 053000    2770  	oct	137010053000
    020102  aa   000000 000003    2771  s000720:	oct	3
    020103  aa   137010 054000    2772  	oct	137010054000
    020104  aa   000000 000003    2773  s000722:	oct	3
    020105  aa   137010 055000    2774  	oct	137010055000
    020106  aa   000000 000003    2775  s000724:	oct	3
    020107  aa   137010 056000    2776  	oct	137010056000
    020110  aa   000000 000003    2777  s000726:	oct	3
    020111  aa   137010 057000    2778  	oct	137010057000
    020112  aa   000000 000003    2779  s000730:	oct	3
    020113  aa   137010 060000    2780  	oct	137010060000
    020114  aa   000000 000003    2781  s000732:	oct	3
    020115  aa   137010 061000    2782  	oct	137010061000
    020116  aa   000000 000003    2783  s000734:	oct	3
    020117  aa   137010 062000    2784  	oct	137010062000
    020120  aa   000000 000003    2785  s000736:	oct	3
    020121  aa   137010 063000    2786  	oct	137010063000
    020122  aa   000000 000003    2787  s000740:	oct	3
    020123  aa   137010 064000    2788  	oct	137010064000
    020124  aa   000000 000003    2789  s000742:	oct	3
    020125  aa   137010 065000    2790  	oct	137010065000
    020126  aa   000000 000003    2791  s000744:	oct	3
    020127  aa   137010 066000    2792  	oct	137010066000
    020130  aa   000000 000003    2793  s000746:	oct	3
    020131  aa   137010 067000    2794  	oct	137010067000
    020132  aa   000000 000003    2795  s000750:	oct	3
    020133  aa   137010 070000    2796  	oct	137010070000
    020134  aa   000000 000003    2797  s000752:	oct	3
    020135  aa   137010 071000    2798  	oct	137010071000
    020136  aa   000000 000003    2799  s000754:	oct	3
    020137  aa   137010 072000    2800  	oct	137010072000
    020140  aa   000000 000003    2801  s000756:	oct	3
    020141  aa   137010 073000    2802  	oct	137010073000
    020142  aa   000000 000003    2803  s000760:	oct	3
    020143  aa   137010 074000    2804  	oct	137010074000
    020144  aa   000000 000003    2805  s000762:	oct	3
    020145  aa   137010 075000    2806  	oct	137010075000
    020146  aa   000000 000003    2807  s000764:	oct	3
    020147  aa   137010 076000    2808  	oct	137010076000
    020150  aa   000000 000003    2809  s000766:	oct	3
    020151  aa   137010 077000    2810  	oct	137010077000
    020152  aa   000000 000003    2811  s000770:	oct	3
    020153  aa   137010 100000    2812  	oct	137010100000
    020154  aa   000000 000003    2813  s000772:	oct	3
    020155  aa   137010 101000    2814  	oct	137010101000
    020156  aa   000000 000003    2815  s000774:	oct	3
    020157  aa   137010 102000    2816  	oct	137010102000
    020160  aa   000000 000003    2817  s000776:	oct	3
    020161  aa   137010 103000    2818  	oct	137010103000
    020162  aa   000000 000003    2819  s001000:	oct	3
    020163  aa   137010 104000    2820  	oct	137010104000
    020164  aa   000000 000003    2821  s001002:	oct	3
    020165  aa   137010 105000    2822  	oct	137010105000
    020166  aa   000000 000003    2823  s001004:	oct	3
    020167  aa   137010 106000    2824  	oct	137010106000
    020170  aa   000000 000003    2825  s001006:	oct	3
    020171  aa   137010 107000    2826  	oct	137010107000
    020172  aa   000000 000003    2827  s001010:	oct	3
    020173  aa   137010 110000    2828  	oct	137010110000
    020174  aa   000000 000003    2829  s001012:	oct	3
    020175  aa   137010 111000    2830  	oct	137010111000
    020176  aa   000000 000003    2831  s001014:	oct	3
    020177  aa   137010 112000    2832  	oct	137010112000
    020200  aa   000000 000003    2833  s001016:	oct	3
    020201  aa   137010 113000    2834  	oct	137010113000
    020202  aa   000000 000003    2835  s001020:	oct	3
    020203  aa   137010 114000    2836  	oct	137010114000
    020204  aa   000000 000003    2837  s001022:	oct	3
    020205  aa   137010 115000    2838  	oct	137010115000
    020206  aa   000000 000003    2839  s001024:	oct	3
    020207  aa   137010 116000    2840  	oct	137010116000
    020210  aa   000000 000003    2841  s001026:	oct	3
    020211  aa   137010 117000    2842  	oct	137010117000
    020212  aa   000000 000003    2843  s001030:	oct	3
    020213  aa   137010 120000    2844  	oct	137010120000
    020214  aa   000000 000003    2845  s001032:	oct	3
    020215  aa   137010 121000    2846  	oct	137010121000
    020216  aa   000000 000003    2847  s001034:	oct	3
    020217  aa   137010 122000    2848  	oct	137010122000
    020220  aa   000000 000003    2849  s001036:	oct	3
    020221  aa   137010 123000    2850  	oct	137010123000
    020222  aa   000000 000003    2851  s001040:	oct	3
    020223  aa   137010 124000    2852  	oct	137010124000
    020224  aa   000000 000003    2853  s001042:	oct	3
    020225  aa   137010 125000    2854  	oct	137010125000
    020226  aa   000000 000003    2855  s001044:	oct	3
    020227  aa   137010 126000    2856  	oct	137010126000
    020230  aa   000000 000003    2857  s001046:	oct	3
    020231  aa   137010 127000    2858  	oct	137010127000
    020232  aa   000000 000003    2859  s001050:	oct	3
    020233  aa   137010 130000    2860  	oct	137010130000
    020234  aa   000000 000003    2861  s001052:	oct	3
    020235  aa   137010 131000    2862  	oct	137010131000
    020236  aa   000000 000003    2863  s001054:	oct	3
    020237  aa   137010 132000    2864  	oct	137010132000
    020240  aa   000000 000003    2865  s001056:	oct	3
    020241  aa   137010 133000    2866  	oct	137010133000
    020242  aa   000000 000003    2867  s001060:	oct	3
    020243  aa   137010 134000    2868  	oct	137010134000
    020244  aa   000000 000003    2869  s001062:	oct	3
    020245  aa   137010 135000    2870  	oct	137010135000
    020246  aa   000000 000003    2871  s001064:	oct	3
    020247  aa   137010 136000    2872  	oct	137010136000
    020250  aa   000000 000003    2873  s001066:	oct	3
    020251  aa   137010 140000    2874  	oct	137010140000
    020252  aa   000000 000003    2875  s001070:	oct	3
    020253  aa   137010 141000    2876  	oct	137010141000
    020254  aa   000000 000003    2877  s001072:	oct	3
    020255  aa   137010 142000    2878  	oct	137010142000
    020256  aa   000000 000003    2879  s001074:	oct	3
    020257  aa   137010 143000    2880  	oct	137010143000
    020260  aa   000000 000003    2881  s001076:	oct	3
    020261  aa   137010 145000    2882  	oct	137010145000
    020262  aa   000000 000003    2883  s001100:	oct	3
    020263  aa   137010 146000    2884  	oct	137010146000
    020264  aa   000000 000003    2885  s001102:	oct	3
    020265  aa   137010 147000    2886  	oct	137010147000
    020266  aa   000000 000003    2887  s001104:	oct	3
    020267  aa   137010 150000    2888  	oct	137010150000
    020270  aa   000000 000003    2889  s001106:	oct	3
    020271  aa   137010 151000    2890  	oct	137010151000
    020272  aa   000000 000003    2891  s001110:	oct	3
    020273  aa   137010 152000    2892  	oct	137010152000
    020274  aa   000000 000003    2893  s001112:	oct	3
    020275  aa   137010 153000    2894  	oct	137010153000
    020276  aa   000000 000003    2895  s001114:	oct	3
    020277  aa   137010 154000    2896  	oct	137010154000
    020300  aa   000000 000003    2897  s001116:	oct	3
    020301  aa   137010 155000    2898  	oct	137010155000
    020302  aa   000000 000003    2899  s001120:	oct	3
    020303  aa   137010 157000    2900  	oct	137010157000
    020304  aa   000000 000003    2901  s001122:	oct	3
    020305  aa   137010 160000    2902  	oct	137010160000
    020306  aa   000000 000003    2903  s001124:	oct	3
    020307  aa   137010 161000    2904  	oct	137010161000
    020310  aa   000000 000003    2905  s001126:	oct	3
    020311  aa   137010 162000    2906  	oct	137010162000
    020312  aa   000000 000003    2907  s001130:	oct	3
    020313  aa   137010 163000    2908  	oct	137010163000
    020314  aa   000000 000003    2909  s001132:	oct	3
    020315  aa   137010 164000    2910  	oct	137010164000
    020316  aa   000000 000003    2911  s001134:	oct	3
    020317  aa   137010 165000    2912  	oct	137010165000
    020320  aa   000000 000003    2913  s001136:	oct	3
    020321  aa   137010 166000    2914  	oct	137010166000
    020322  aa   000000 000003    2915  s001140:	oct	3
    020323  aa   137010 167000    2916  	oct	137010167000
    020324  aa   000000 000003    2917  s001142:	oct	3
    020325  aa   137010 171000    2918  	oct	137010171000
    020326  aa   000000 000003    2919  s001144:	oct	3
    020327  aa   137010 172000    2920  	oct	137010172000
    020330  aa   000000 000003    2921  s001146:	oct	3
    020331  aa   137010 173000    2922  	oct	137010173000
    020332  aa   000000 000003    2923  s001150:	oct	3
    020333  aa   137010 174000    2924  	oct	137010174000
    020334  aa   000000 000003    2925  s001152:	oct	3
    020335  aa   137010 175000    2926  	oct	137010175000
    020336  aa   000000 000003    2927  s001154:	oct	3
    020337  aa   137010 176000    2928  	oct	137010176000
    020340  aa   000000 000006    2929  s001156:	oct	6
    020341  aa   137010 055137    2930  	oct	137010055137
    020342  aa   010055 000000    2931  	oct	010055000000
    020343  aa   000000 000005    2932  s001161:	oct	5
    020344  aa   041010 041010    2933  	oct	041010041010
    020345  aa   041000 000000    2934  	oct	041000000000
    020346  aa   000000 000005    2935  s001164:	oct	5
    020347  aa   042010 042010    2936  	oct	042010042010
    020350  aa   042000 000000    2937  	oct	042000000000
    020351  aa   000000 000005    2938  s001167:	oct	5
    020352  aa   043010 043010    2939  	oct	043010043010
    020353  aa   043000 000000    2940  	oct	043000000000
    020354  aa   000000 000005    2941  s001172:	oct	5
    020355  aa   044010 044010    2942  	oct	044010044010
    020356  aa   044000 000000    2943  	oct	044000000000
    020357  aa   000000 000005    2944  s001175:	oct	5
    020360  aa   045010 045010    2945  	oct	045010045010
    020361  aa   045000 000000    2946  	oct	045000000000
    020362  aa   000000 000005    2947  s001200:	oct	5
    020363  aa   046010 046010    2948  	oct	046010046010
    020364  aa   046000 000000    2949  	oct	046000000000
    020365  aa   000000 000005    2950  s001203:	oct	5
    020366  aa   047010 047010    2951  	oct	047010047010
    020367  aa   047000 000000    2952  	oct	047000000000
    020370  aa   000000 000005    2953  s001206:	oct	5
    020371  aa   050010 050010    2954  	oct	050010050010
    020372  aa   050000 000000    2955  	oct	050000000000
    020373  aa   000000 000005    2956  s001211:	oct	5
    020374  aa   051010 051010    2957  	oct	051010051010
    020375  aa   051000 000000    2958  	oct	051000000000
    020376  aa   000000 000005    2959  s001214:	oct	5
    020377  aa   052010 052010    2960  	oct	052010052010
    020400  aa   052000 000000    2961  	oct	052000000000
    020401  aa   000000 000005    2962  s001217:	oct	5
    020402  aa   053010 053010    2963  	oct	053010053010
    020403  aa   053000 000000    2964  	oct	053000000000
    020404  aa   000000 000005    2965  s001222:	oct	5
    020405  aa   054010 054010    2966  	oct	054010054010
    020406  aa   054000 000000    2967  	oct	054000000000
    020407  aa   000000 000005    2968  s001225:	oct	5
    020410  aa   055010 055010    2969  	oct	055010055010
    020411  aa   055000 000000    2970  	oct	055000000000
    020412  aa   000000 000005    2971  s001230:	oct	5
    020413  aa   056010 056010    2972  	oct	056010056010
    020414  aa   056000 000000    2973  	oct	056000000000
    020415  aa   000000 000005    2974  s001233:	oct	5
    020416  aa   057010 057010    2975  	oct	057010057010
    020417  aa   057000 000000    2976  	oct	057000000000
    020420  aa   000000 000005    2977  s001236:	oct	5
    020421  aa   060010 060010    2978  	oct	060010060010
    020422  aa   060000 000000    2979  	oct	060000000000
    020423  aa   000000 000005    2980  s001241:	oct	5
    020424  aa   061010 061010    2981  	oct	061010061010
    020425  aa   061000 000000    2982  	oct	061000000000
    020426  aa   000000 000005    2983  s001244:	oct	5
    020427  aa   062010 062010    2984  	oct	062010062010
    020430  aa   062000 000000    2985  	oct	062000000000
    020431  aa   000000 000005    2986  s001247:	oct	5
    020432  aa   063010 063010    2987  	oct	063010063010
    020433  aa   063000 000000    2988  	oct	063000000000
    020434  aa   000000 000005    2989  s001252:	oct	5
    020435  aa   064010 064010    2990  	oct	064010064010
    020436  aa   064000 000000    2991  	oct	064000000000
    020437  aa   000000 000005    2992  s001255:	oct	5
    020440  aa   065010 065010    2993  	oct	065010065010
    020441  aa   065000 000000    2994  	oct	065000000000
    020442  aa   000000 000005    2995  s001260:	oct	5
    020443  aa   066010 066010    2996  	oct	066010066010
    020444  aa   066000 000000    2997  	oct	066000000000
    020445  aa   000000 000005    2998  s001263:	oct	5
    020446  aa   067010 067010    2999  	oct	067010067010
    020447  aa   067000 000000    3000  	oct	067000000000
    020450  aa   000000 000005    3001  s001266:	oct	5
    020451  aa   070010 070010    3002  	oct	070010070010
    020452  aa   070000 000000    3003  	oct	070000000000
    020453  aa   000000 000005    3004  s001271:	oct	5
    020454  aa   071010 071010    3005  	oct	071010071010
    020455  aa   071000 000000    3006  	oct	071000000000
    020456  aa   000000 000005    3007  s001274:	oct	5
    020457  aa   072010 072010    3008  	oct	072010072010
    020460  aa   072000 000000    3009  	oct	072000000000
    020461  aa   000000 000005    3010  s001277:	oct	5
    020462  aa   073010 073010    3011  	oct	073010073010
    020463  aa   073000 000000    3012  	oct	073000000000
    020464  aa   000000 000005    3013  s001302:	oct	5
    020465  aa   074010 074010    3014  	oct	074010074010
    020466  aa   074000 000000    3015  	oct	074000000000
    020467  aa   000000 000005    3016  s001305:	oct	5
    020470  aa   075010 075010    3017  	oct	075010075010
    020471  aa   075000 000000    3018  	oct	075000000000
    020472  aa   000000 000005    3019  s001310:	oct	5
    020473  aa   076010 076010    3020  	oct	076010076010
    020474  aa   076000 000000    3021  	oct	076000000000
    020475  aa   000000 000005    3022  s001313:	oct	5
    020476  aa   077010 077010    3023  	oct	077010077010
    020477  aa   077000 000000    3024  	oct	077000000000
    020500  aa   000000 000005    3025  s001316:	oct	5
    020501  aa   100010 100010    3026  	oct	100010100010
    020502  aa   100000 000000    3027  	oct	100000000000
    020503  aa   000000 000005    3028  s001321:	oct	5
    020504  aa   101010 101010    3029  	oct	101010101010
    020505  aa   101000 000000    3030  	oct	101000000000
    020506  aa   000000 000005    3031  s001324:	oct	5
    020507  aa   102010 102010    3032  	oct	102010102010
    020510  aa   102000 000000    3033  	oct	102000000000
    020511  aa   000000 000005    3034  s001327:	oct	5
    020512  aa   103010 103010    3035  	oct	103010103010
    020513  aa   103000 000000    3036  	oct	103000000000
    020514  aa   000000 000005    3037  s001332:	oct	5
    020515  aa   104010 104010    3038  	oct	104010104010
    020516  aa   104000 000000    3039  	oct	104000000000
    020517  aa   000000 000005    3040  s001335:	oct	5
    020520  aa   105010 105010    3041  	oct	105010105010
    020521  aa   105000 000000    3042  	oct	105000000000
    020522  aa   000000 000005    3043  s001340:	oct	5
    020523  aa   106010 106010    3044  	oct	106010106010
    020524  aa   106000 000000    3045  	oct	106000000000
    020525  aa   000000 000005    3046  s001343:	oct	5
    020526  aa   107010 107010    3047  	oct	107010107010
    020527  aa   107000 000000    3048  	oct	107000000000
    020530  aa   000000 000005    3049  s001346:	oct	5
    020531  aa   110010 110010    3050  	oct	110010110010
    020532  aa   110000 000000    3051  	oct	110000000000
    020533  aa   000000 000005    3052  s001351:	oct	5
    020534  aa   111010 111010    3053  	oct	111010111010
    020535  aa   111000 000000    3054  	oct	111000000000
    020536  aa   000000 000005    3055  s001354:	oct	5
    020537  aa   112010 112010    3056  	oct	112010112010
    020540  aa   112000 000000    3057  	oct	112000000000
    020541  aa   000000 000005    3058  s001357:	oct	5
    020542  aa   113010 113010    3059  	oct	113010113010
    020543  aa   113000 000000    3060  	oct	113000000000
    020544  aa   000000 000005    3061  s001362:	oct	5
    020545  aa   114010 114010    3062  	oct	114010114010
    020546  aa   114000 000000    3063  	oct	114000000000
    020547  aa   000000 000005    3064  s001365:	oct	5
    020550  aa   115010 115010    3065  	oct	115010115010
    020551  aa   115000 000000    3066  	oct	115000000000
    020552  aa   000000 000005    3067  s001370:	oct	5
    020553  aa   116010 116010    3068  	oct	116010116010
    020554  aa   116000 000000    3069  	oct	116000000000
    020555  aa   000000 000005    3070  s001373:	oct	5
    020556  aa   117010 117010    3071  	oct	117010117010
    020557  aa   117000 000000    3072  	oct	117000000000
    020560  aa   000000 000005    3073  s001376:	oct	5
    020561  aa   120010 120010    3074  	oct	120010120010
    020562  aa   120000 000000    3075  	oct	120000000000
    020563  aa   000000 000005    3076  s001401:	oct	5
    020564  aa   121010 121010    3077  	oct	121010121010
    020565  aa   121000 000000    3078  	oct	121000000000
    020566  aa   000000 000005    3079  s001404:	oct	5
    020567  aa   122010 122010    3080  	oct	122010122010
    020570  aa   122000 000000    3081  	oct	122000000000
    020571  aa   000000 000005    3082  s001407:	oct	5
    020572  aa   123010 123010    3083  	oct	123010123010
    020573  aa   123000 000000    3084  	oct	123000000000
    020574  aa   000000 000005    3085  s001412:	oct	5
    020575  aa   124010 124010    3086  	oct	124010124010
    020576  aa   124000 000000    3087  	oct	124000000000
    020577  aa   000000 000005    3088  s001415:	oct	5
    020600  aa   125010 125010    3089  	oct	125010125010
    020601  aa   125000 000000    3090  	oct	125000000000
    020602  aa   000000 000005    3091  s001420:	oct	5
    020603  aa   126010 126010    3092  	oct	126010126010
    020604  aa   126000 000000    3093  	oct	126000000000
    020605  aa   000000 000005    3094  s001423:	oct	5
    020606  aa   127010 127010    3095  	oct	127010127010
    020607  aa   127000 000000    3096  	oct	127000000000
    020610  aa   000000 000005    3097  s001426:	oct	5
    020611  aa   130010 130010    3098  	oct	130010130010
    020612  aa   130000 000000    3099  	oct	130000000000
    020613  aa   000000 000005    3100  s001431:	oct	5
    020614  aa   131010 131010    3101  	oct	131010131010
    020615  aa   131000 000000    3102  	oct	131000000000
    020616  aa   000000 000005    3103  s001434:	oct	5
    020617  aa   132010 132010    3104  	oct	132010132010
    020620  aa   132000 000000    3105  	oct	132000000000
    020621  aa   000000 000005    3106  s001437:	oct	5
    020622  aa   133010 133010    3107  	oct	133010133010
    020623  aa   133000 000000    3108  	oct	133000000000
    020624  aa   000000 000005    3109  s001442:	oct	5
    020625  aa   134010 134010    3110  	oct	134010134010
    020626  aa   134000 000000    3111  	oct	134000000000
    020627  aa   000000 000005    3112  s001445:	oct	5
    020630  aa   135010 135010    3113  	oct	135010135010
    020631  aa   135000 000000    3114  	oct	135000000000
    020632  aa   000000 000005    3115  s001450:	oct	5
    020633  aa   136010 136010    3116  	oct	136010136010
    020634  aa   136000 000000    3117  	oct	136000000000
    020635  aa   000000 000005    3118  s001453:	oct	5
    020636  aa   140010 140010    3119  	oct	140010140010
    020637  aa   140000 000000    3120  	oct	140000000000
    020640  aa   000000 000005    3121  s001456:	oct	5
    020641  aa   141010 141010    3122  	oct	141010141010
    020642  aa   141000 000000    3123  	oct	141000000000
    020643  aa   000000 000005    3124  s001461:	oct	5
    020644  aa   142010 142010    3125  	oct	142010142010
    020645  aa   142000 000000    3126  	oct	142000000000
    020646  aa   000000 000005    3127  s001464:	oct	5
    020647  aa   143010 143010    3128  	oct	143010143010
    020650  aa   143000 000000    3129  	oct	143000000000
    020651  aa   000000 000005    3130  s001467:	oct	5
    020652  aa   144010 144010    3131  	oct	144010144010
    020653  aa   144000 000000    3132  	oct	144000000000
    020654  aa   000000 000005    3133  s001472:	oct	5
    020655  aa   145010 145010    3134  	oct	145010145010
    020656  aa   145000 000000    3135  	oct	145000000000
    020657  aa   000000 000005    3136  s001475:	oct	5
    020660  aa   146010 146010    3137  	oct	146010146010
    020661  aa   146000 000000    3138  	oct	146000000000
    020662  aa   000000 000005    3139  s001500:	oct	5
    020663  aa   147010 147010    3140  	oct	147010147010
    020664  aa   147000 000000    3141  	oct	147000000000
    020665  aa   000000 000005    3142  s001503:	oct	5
    020666  aa   150010 150010    3143  	oct	150010150010
    020667  aa   150000 000000    3144  	oct	150000000000
    020670  aa   000000 000005    3145  s001506:	oct	5
    020671  aa   151010 151010    3146  	oct	151010151010
    020672  aa   151000 000000    3147  	oct	151000000000
    020673  aa   000000 000005    3148  s001511:	oct	5
    020674  aa   152010 152010    3149  	oct	152010152010
    020675  aa   152000 000000    3150  	oct	152000000000
    020676  aa   000000 000005    3151  s001514:	oct	5
    020677  aa   153010 153010    3152  	oct	153010153010
    020700  aa   153000 000000    3153  	oct	153000000000
    020701  aa   000000 000005    3154  s001517:	oct	5
    020702  aa   154010 154010    3155  	oct	154010154010
    020703  aa   154000 000000    3156  	oct	154000000000
    020704  aa   000000 000005    3157  s001522:	oct	5
    020705  aa   155010 155010    3158  	oct	155010155010
    020706  aa   155000 000000    3159  	oct	155000000000
    020707  aa   000000 000005    3160  s001525:	oct	5
    020710  aa   156010 156010    3161  	oct	156010156010
    020711  aa   156000 000000    3162  	oct	156000000000
    020712  aa   000000 000005    3163  s001530:	oct	5
    020713  aa   157010 157010    3164  	oct	157010157010
    020714  aa   157000 000000    3165  	oct	157000000000
    020715  aa   000000 000005    3166  s001533:	oct	5
    020716  aa   160010 160010    3167  	oct	160010160010
    020717  aa   160000 000000    3168  	oct	160000000000
    020720  aa   000000 000005    3169  s001536:	oct	5
    020721  aa   161010 161010    3170  	oct	161010161010
    020722  aa   161000 000000    3171  	oct	161000000000
    020723  aa   000000 000005    3172  s001541:	oct	5
    020724  aa   162010 162010    3173  	oct	162010162010
    020725  aa   162000 000000    3174  	oct	162000000000
    020726  aa   000000 000005    3175  s001544:	oct	5
    020727  aa   163010 163010    3176  	oct	163010163010
    020730  aa   163000 000000    3177  	oct	163000000000
    020731  aa   000000 000005    3178  s001547:	oct	5
    020732  aa   164010 164010    3179  	oct	164010164010
    020733  aa   164000 000000    3180  	oct	164000000000
    020734  aa   000000 000005    3181  s001552:	oct	5
    020735  aa   165010 165010    3182  	oct	165010165010
    020736  aa   165000 000000    3183  	oct	165000000000
    020737  aa   000000 000005    3184  s001555:	oct	5
    020740  aa   166010 166010    3185  	oct	166010166010
    020741  aa   166000 000000    3186  	oct	166000000000
    020742  aa   000000 000005    3187  s001560:	oct	5
    020743  aa   167010 167010    3188  	oct	167010167010
    020744  aa   167000 000000    3189  	oct	167000000000
    020745  aa   000000 000005    3190  s001563:	oct	5
    020746  aa   170010 170010    3191  	oct	170010170010
    020747  aa   170000 000000    3192  	oct	170000000000
    020750  aa   000000 000005    3193  s001566:	oct	5
    020751  aa   171010 171010    3194  	oct	171010171010
    020752  aa   171000 000000    3195  	oct	171000000000
    020753  aa   000000 000005    3196  s001571:	oct	5
    020754  aa   172010 172010    3197  	oct	172010172010
    020755  aa   172000 000000    3198  	oct	172000000000
    020756  aa   000000 000005    3199  s001574:	oct	5
    020757  aa   173010 173010    3200  	oct	173010173010
    020760  aa   173000 000000    3201  	oct	173000000000
    020761  aa   000000 000005    3202  s001577:	oct	5
    020762  aa   174010 174010    3203  	oct	174010174010
    020763  aa   174000 000000    3204  	oct	174000000000
    020764  aa   000000 000005    3205  s001602:	oct	5
    020765  aa   175010 175010    3206  	oct	175010175010
    020766  aa   175000 000000    3207  	oct	175000000000
    020767  aa   000000 000005    3208  s001605:	oct	5
    020770  aa   176010 176010    3209  	oct	176010176010
    020771  aa   176000 000000    3210  	oct	176000000000
    020772  aa   000000 000007    3211  s001610:	oct	7
    020773  aa   137010 041010    3212  	oct	137010041010
    020774  aa   041010 041000    3213  	oct	041010041000
    020775  aa   000000 000007    3214  s001613:	oct	7
    020776  aa   137010 042010    3215  	oct	137010042010
    020777  aa   042010 042000    3216  	oct	042010042000
    021000  aa   000000 000007    3217  s001616:	oct	7
    021001  aa   137010 043010    3218  	oct	137010043010
    021002  aa   043010 043000    3219  	oct	043010043000
    021003  aa   000000 000007    3220  s001621:	oct	7
    021004  aa   137010 044010    3221  	oct	137010044010
    021005  aa   044010 044000    3222  	oct	044010044000
    021006  aa   000000 000007    3223  s001624:	oct	7
    021007  aa   137010 045010    3224  	oct	137010045010
    021010  aa   045010 045000    3225  	oct	045010045000
    021011  aa   000000 000007    3226  s001627:	oct	7
    021012  aa   137010 046010    3227  	oct	137010046010
    021013  aa   046010 046000    3228  	oct	046010046000
    021014  aa   000000 000007    3229  s001632:	oct	7
    021015  aa   137010 047010    3230  	oct	137010047010
    021016  aa   047010 047000    3231  	oct	047010047000
    021017  aa   000000 000007    3232  s001635:	oct	7
    021020  aa   137010 050010    3233  	oct	137010050010
    021021  aa   050010 050000    3234  	oct	050010050000
    021022  aa   000000 000007    3235  s001640:	oct	7
    021023  aa   137010 051010    3236  	oct	137010051010
    021024  aa   051010 051000    3237  	oct	051010051000
    021025  aa   000000 000007    3238  s001643:	oct	7
    021026  aa   137010 052010    3239  	oct	137010052010
    021027  aa   052010 052000    3240  	oct	052010052000
    021030  aa   000000 000007    3241  s001646:	oct	7
    021031  aa   137010 053010    3242  	oct	137010053010
    021032  aa   053010 053000    3243  	oct	053010053000
    021033  aa   000000 000007    3244  s001651:	oct	7
    021034  aa   137010 054010    3245  	oct	137010054010
    021035  aa   054010 054000    3246  	oct	054010054000
    021036  aa   000000 000007    3247  s001654:	oct	7
    021037  aa   137010 055010    3248  	oct	137010055010
    021040  aa   055010 055000    3249  	oct	055010055000
    021041  aa   000000 000007    3250  s001657:	oct	7
    021042  aa   137010 056010    3251  	oct	137010056010
    021043  aa   056010 056000    3252  	oct	056010056000
    021044  aa   000000 000007    3253  s001662:	oct	7
    021045  aa   137010 057010    3254  	oct	137010057010
    021046  aa   057010 057000    3255  	oct	057010057000
    021047  aa   000000 000007    3256  s001665:	oct	7
    021050  aa   137010 060010    3257  	oct	137010060010
    021051  aa   060010 060000    3258  	oct	060010060000
    021052  aa   000000 000007    3259  s001670:	oct	7
    021053  aa   137010 061010    3260  	oct	137010061010
    021054  aa   061010 061000    3261  	oct	061010061000
    021055  aa   000000 000007    3262  s001673:	oct	7
    021056  aa   137010 062010    3263  	oct	137010062010
    021057  aa   062010 062000    3264  	oct	062010062000
    021060  aa   000000 000007    3265  s001676:	oct	7
    021061  aa   137010 063010    3266  	oct	137010063010
    021062  aa   063010 063000    3267  	oct	063010063000
    021063  aa   000000 000007    3268  s001701:	oct	7
    021064  aa   137010 064010    3269  	oct	137010064010
    021065  aa   064010 064000    3270  	oct	064010064000
    021066  aa   000000 000007    3271  s001704:	oct	7
    021067  aa   137010 065010    3272  	oct	137010065010
    021070  aa   065010 065000    3273  	oct	065010065000
    021071  aa   000000 000007    3274  s001707:	oct	7
    021072  aa   137010 066010    3275  	oct	137010066010
    021073  aa   066010 066000    3276  	oct	066010066000
    021074  aa   000000 000007    3277  s001712:	oct	7
    021075  aa   137010 067010    3278  	oct	137010067010
    021076  aa   067010 067000    3279  	oct	067010067000
    021077  aa   000000 000007    3280  s001715:	oct	7
    021100  aa   137010 070010    3281  	oct	137010070010
    021101  aa   070010 070000    3282  	oct	070010070000
    021102  aa   000000 000007    3283  s001720:	oct	7
    021103  aa   137010 071010    3284  	oct	137010071010
    021104  aa   071010 071000    3285  	oct	071010071000
    021105  aa   000000 000007    3286  s001723:	oct	7
    021106  aa   137010 072010    3287  	oct	137010072010
    021107  aa   072010 072000    3288  	oct	072010072000
    021110  aa   000000 000007    3289  s001726:	oct	7
    021111  aa   137010 073010    3290  	oct	137010073010
    021112  aa   073010 073000    3291  	oct	073010073000
    021113  aa   000000 000007    3292  s001731:	oct	7
    021114  aa   137010 074010    3293  	oct	137010074010
    021115  aa   074010 074000    3294  	oct	074010074000
    021116  aa   000000 000007    3295  s001734:	oct	7
    021117  aa   137010 075010    3296  	oct	137010075010
    021120  aa   075010 075000    3297  	oct	075010075000
    021121  aa   000000 000007    3298  s001737:	oct	7
    021122  aa   137010 076010    3299  	oct	137010076010
    021123  aa   076010 076000    3300  	oct	076010076000
    021124  aa   000000 000007    3301  s001742:	oct	7
    021125  aa   137010 077010    3302  	oct	137010077010
    021126  aa   077010 077000    3303  	oct	077010077000
    021127  aa   000000 000007    3304  s001745:	oct	7
    021130  aa   137010 100010    3305  	oct	137010100010
    021131  aa   100010 100000    3306  	oct	100010100000
    021132  aa   000000 000007    3307  s001750:	oct	7
    021133  aa   137010 101010    3308  	oct	137010101010
    021134  aa   101010 101000    3309  	oct	101010101000
    021135  aa   000000 000007    3310  s001753:	oct	7
    021136  aa   137010 102010    3311  	oct	137010102010
    021137  aa   102010 102000    3312  	oct	102010102000
    021140  aa   000000 000007    3313  s001756:	oct	7
    021141  aa   137010 103010    3314  	oct	137010103010
    021142  aa   103010 103000    3315  	oct	103010103000
    021143  aa   000000 000007    3316  s001761:	oct	7
    021144  aa   137010 104010    3317  	oct	137010104010
    021145  aa   104010 104000    3318  	oct	104010104000
    021146  aa   000000 000007    3319  s001764:	oct	7
    021147  aa   137010 105010    3320  	oct	137010105010
    021150  aa   105010 105000    3321  	oct	105010105000
    021151  aa   000000 000007    3322  s001767:	oct	7
    021152  aa   137010 106010    3323  	oct	137010106010
    021153  aa   106010 106000    3324  	oct	106010106000
    021154  aa   000000 000007    3325  s001772:	oct	7
    021155  aa   137010 107010    3326  	oct	137010107010
    021156  aa   107010 107000    3327  	oct	107010107000
    021157  aa   000000 000007    3328  s001775:	oct	7
    021160  aa   137010 110010    3329  	oct	137010110010
    021161  aa   110010 110000    3330  	oct	110010110000
    021162  aa   000000 000007    3331  s002000:	oct	7
    021163  aa   137010 111010    3332  	oct	137010111010
    021164  aa   111010 111000    3333  	oct	111010111000
    021165  aa   000000 000007    3334  s002003:	oct	7
    021166  aa   137010 112010    3335  	oct	137010112010
    021167  aa   112010 112000    3336  	oct	112010112000
    021170  aa   000000 000007    3337  s002006:	oct	7
    021171  aa   137010 113010    3338  	oct	137010113010
    021172  aa   113010 113000    3339  	oct	113010113000
    021173  aa   000000 000007    3340  s002011:	oct	7
    021174  aa   137010 114010    3341  	oct	137010114010
    021175  aa   114010 114000    3342  	oct	114010114000
    021176  aa   000000 000007    3343  s002014:	oct	7
    021177  aa   137010 115010    3344  	oct	137010115010
    021200  aa   115010 115000    3345  	oct	115010115000
    021201  aa   000000 000007    3346  s002017:	oct	7
    021202  aa   137010 116010    3347  	oct	137010116010
    021203  aa   116010 116000    3348  	oct	116010116000
    021204  aa   000000 000007    3349  s002022:	oct	7
    021205  aa   137010 117010    3350  	oct	137010117010
    021206  aa   117010 117000    3351  	oct	117010117000
    021207  aa   000000 000007    3352  s002025:	oct	7
    021210  aa   137010 120010    3353  	oct	137010120010
    021211  aa   120010 120000    3354  	oct	120010120000
    021212  aa   000000 000007    3355  s002030:	oct	7
    021213  aa   137010 121010    3356  	oct	137010121010
    021214  aa   121010 121000    3357  	oct	121010121000
    021215  aa   000000 000007    3358  s002033:	oct	7
    021216  aa   137010 122010    3359  	oct	137010122010
    021217  aa   122010 122000    3360  	oct	122010122000
    021220  aa   000000 000007    3361  s002036:	oct	7
    021221  aa   137010 123010    3362  	oct	137010123010
    021222  aa   123010 123000    3363  	oct	123010123000
    021223  aa   000000 000007    3364  s002041:	oct	7
    021224  aa   137010 124010    3365  	oct	137010124010
    021225  aa   124010 124000    3366  	oct	124010124000
    021226  aa   000000 000007    3367  s002044:	oct	7
    021227  aa   137010 125010    3368  	oct	137010125010
    021230  aa   125010 125000    3369  	oct	125010125000
    021231  aa   000000 000007    3370  s002047:	oct	7
    021232  aa   137010 126010    3371  	oct	137010126010
    021233  aa   126010 126000    3372  	oct	126010126000
    021234  aa   000000 000007    3373  s002052:	oct	7
    021235  aa   137010 127010    3374  	oct	137010127010
    021236  aa   127010 127000    3375  	oct	127010127000
    021237  aa   000000 000007    3376  s002055:	oct	7
    021240  aa   137010 130010    3377  	oct	137010130010
    021241  aa   130010 130000    3378  	oct	130010130000
    021242  aa   000000 000007    3379  s002060:	oct	7
    021243  aa   137010 131010    3380  	oct	137010131010
    021244  aa   131010 131000    3381  	oct	131010131000
    021245  aa   000000 000007    3382  s002063:	oct	7
    021246  aa   137010 132010    3383  	oct	137010132010
    021247  aa   132010 132000    3384  	oct	132010132000
    021250  aa   000000 000007    3385  s002066:	oct	7
    021251  aa   137010 133010    3386  	oct	137010133010
    021252  aa   133010 133000    3387  	oct	133010133000
    021253  aa   000000 000007    3388  s002071:	oct	7
    021254  aa   137010 134010    3389  	oct	137010134010
    021255  aa   134010 134000    3390  	oct	134010134000
    021256  aa   000000 000007    3391  s002074:	oct	7
    021257  aa   137010 135010    3392  	oct	137010135010
    021260  aa   135010 135000    3393  	oct	135010135000
    021261  aa   000000 000007    3394  s002077:	oct	7
    021262  aa   137010 136010    3395  	oct	137010136010
    021263  aa   136010 136000    3396  	oct	136010136000
    021264  aa   000000 000007    3397  s002102:	oct	7
    021265  aa   137010 140010    3398  	oct	137010140010
    021266  aa   140010 140000    3399  	oct	140010140000
    021267  aa   000000 000007    3400  s002105:	oct	7
    021270  aa   137010 141010    3401  	oct	137010141010
    021271  aa   141010 141000    3402  	oct	141010141000
    021272  aa   000000 000007    3403  s002110:	oct	7
    021273  aa   137010 142010    3404  	oct	137010142010
    021274  aa   142010 142000    3405  	oct	142010142000
    021275  aa   000000 000007    3406  s002113:	oct	7
    021276  aa   137010 143010    3407  	oct	137010143010
    021277  aa   143010 143000    3408  	oct	143010143000
    021300  aa   000000 000007    3409  s002116:	oct	7
    021301  aa   137010 144010    3410  	oct	137010144010
    021302  aa   144010 144000    3411  	oct	144010144000
    021303  aa   000000 000007    3412  s002121:	oct	7
    021304  aa   137010 145010    3413  	oct	137010145010
    021305  aa   145010 145000    3414  	oct	145010145000
    021306  aa   000000 000007    3415  s002124:	oct	7
    021307  aa   137010 146010    3416  	oct	137010146010
    021310  aa   146010 146000    3417  	oct	146010146000
    021311  aa   000000 000007    3418  s002127:	oct	7
    021312  aa   137010 147010    3419  	oct	137010147010
    021313  aa   147010 147000    3420  	oct	147010147000
    021314  aa   000000 000007    3421  s002132:	oct	7
    021315  aa   137010 150010    3422  	oct	137010150010
    021316  aa   150010 150000    3423  	oct	150010150000
    021317  aa   000000 000007    3424  s002135:	oct	7
    021320  aa   137010 151010    3425  	oct	137010151010
    021321  aa   151010 151000    3426  	oct	151010151000
    021322  aa   000000 000007    3427  s002140:	oct	7
    021323  aa   137010 152010    3428  	oct	137010152010
    021324  aa   152010 152000    3429  	oct	152010152000
    021325  aa   000000 000007    3430  s002143:	oct	7
    021326  aa   137010 153010    3431  	oct	137010153010
    021327  aa   153010 153000    3432  	oct	153010153000
    021330  aa   000000 000007    3433  s002146:	oct	7
    021331  aa   137010 154010    3434  	oct	137010154010
    021332  aa   154010 154000    3435  	oct	154010154000
    021333  aa   000000 000007    3436  s002151:	oct	7
    021334  aa   137010 155010    3437  	oct	137010155010
    021335  aa   155010 155000    3438  	oct	155010155000
    021336  aa   000000 000007    3439  s002154:	oct	7
    021337  aa   137010 156010    3440  	oct	137010156010
    021340  aa   156010 156000    3441  	oct	156010156000
    021341  aa   000000 000007    3442  s002157:	oct	7
    021342  aa   137010 157010    3443  	oct	137010157010
    021343  aa   157010 157000    3444  	oct	157010157000
    021344  aa   000000 000007    3445  s002162:	oct	7
    021345  aa   137010 160010    3446  	oct	137010160010
    021346  aa   160010 160000    3447  	oct	160010160000
    021347  aa   000000 000007    3448  s002165:	oct	7
    021350  aa   137010 161010    3449  	oct	137010161010
    021351  aa   161010 161000    3450  	oct	161010161000
    021352  aa   000000 000007    3451  s002170:	oct	7
    021353  aa   137010 162010    3452  	oct	137010162010
    021354  aa   162010 162000    3453  	oct	162010162000
    021355  aa   000000 000007    3454  s002173:	oct	7
    021356  aa   137010 163010    3455  	oct	137010163010
    021357  aa   163010 163000    3456  	oct	163010163000
    021360  aa   000000 000007    3457  s002176:	oct	7
    021361  aa   137010 164010    3458  	oct	137010164010
    021362  aa   164010 164000    3459  	oct	164010164000
    021363  aa   000000 000007    3460  s002201:	oct	7
    021364  aa   137010 165010    3461  	oct	137010165010
    021365  aa   165010 165000    3462  	oct	165010165000
    021366  aa   000000 000007    3463  s002204:	oct	7
    021367  aa   137010 166010    3464  	oct	137010166010
    021370  aa   166010 166000    3465  	oct	166010166000
    021371  aa   000000 000007    3466  s002207:	oct	7
    021372  aa   137010 167010    3467  	oct	137010167010
    021373  aa   167010 167000    3468  	oct	167010167000
    021374  aa   000000 000007    3469  s002212:	oct	7
    021375  aa   137010 170010    3470  	oct	137010170010
    021376  aa   170010 170000    3471  	oct	170010170000
    021377  aa   000000 000007    3472  s002215:	oct	7
    021400  aa   137010 171010    3473  	oct	137010171010
    021401  aa   171010 171000    3474  	oct	171010171000
    021402  aa   000000 000007    3475  s002220:	oct	7
    021403  aa   137010 172010    3476  	oct	137010172010
    021404  aa   172010 172000    3477  	oct	172010172000
    021405  aa   000000 000007    3478  s002223:	oct	7
    021406  aa   137010 173010    3479  	oct	137010173010
    021407  aa   173010 173000    3480  	oct	173010173000
    021410  aa   000000 000007    3481  s002226:	oct	7
    021411  aa   137010 174010    3482  	oct	137010174010
    021412  aa   174010 174000    3483  	oct	174010174000
    021413  aa   000000 000007    3484  s002231:	oct	7
    021414  aa   137010 175010    3485  	oct	137010175010
    021415  aa   175010 175000    3486  	oct	175010175000
    021416  aa   000000 000007    3487  s002234:	oct	7
    021417  aa   137010 176010    3488  	oct	137010176010
    021420  aa   176010 176000    3489  	oct	176010176000
    021421  aa   000000 000031    3490  s002237:	oct	31
    021422  aa   104102 072040    3491  	oct	104102072040
    021423  aa   141163 143151    3492  	oct	141163143151
    021424  aa   151137 167162    3493  	oct	151137167162
    021425  aa   151164 145162    3494  	oct	151164145162
    021426  aa   137044 144151    3495  	oct	137044144151
    021427  aa   163160 154141    3496  	oct	163160154141
    021430  aa   171000 000000    3497  	oct	171000000000
    021431  aa   000000 000020    3498  s002247:	oct	20
    021432  aa   163171 156137    3499  	oct	163171156137
    021433  aa   040165 163145    3500  	oct	040165163145
    021434  aa   162137 157165    3501  	oct	162137157165
    021435  aa   164160 165164    3502  	oct	164160165164
                                  3503  	end

NO LITERALS

NAME DEFINITIONS FOR ENTRY POINTS AND SEGDEFS

    021502  5a   000003 000000
    021503  5a   000077 600000
    021504  aa   000000 000000
    021505  55   000012 000002
    021506  5a   000002 400003
    021507  55   000006 000012
    021510  aa  016 141 163 143
    021511  aa  151 151 056 143
    021512  aa  157 155 160 137
    021513  aa  144 163 155 000
    021514  55   000021 000003
    021515  0a   000063 400000
    021516  55   000015 000003
    021517  aa  015 141 163 143         ascii_sqo.dvt
    021520  aa  151 151 137 163
    021521  aa  161 157 056 144
    021522  aa  166 164 000 000
    021523  55   000027 000012
    021524  0a   000051 400000
    021525  55   000024 000003
    021526  aa  012 114 105 104         LED120.dvt
    021527  aa  061 062 060 056
    021530  aa  144 166 164 000
    021531  55   000035 000021
    021532  0a   000051 400000
    021533  55   000032 000003
    021534  aa  012 154 145 144         led120.dvt
    021535  aa  061 062 060 056
    021536  aa  144 166 164 000
    021537  55   000045 000027
    021540  0a   000037 400000
    021541  55   000040 000003
    021542  aa  021 160 162 151         printer_draft.dvt
    021543  aa  156 164 145 162
    021544  aa  137 144 162 141
    021545  aa  146 164 056 144
    021546  aa  166 164 000 000
    021547  55   000053 000035
    021550  0a   000025 400000
    021551  55   000050 000003
    021552  aa  013 160 162 151         printer.dvt
    021553  aa  156 164 145 162
    021554  aa  056 144 166 164
    021555  55   000062 000045
    021556  0a   000013 400000
    021557  55   000056 000003
    021560  aa  017 141 163 143         ascii_draft.dvt
    021561  aa  151 151 137 144
    021562  aa  162 141 146 164
    021563  aa  056 144 166 164
    021564  55   000070 000053
    021565  0a   000001 400000
    021566  55   000065 000003
    021567  aa  011 141 163 143         ascii.dvt
    021570  aa  151 151 056 144
    021571  aa  166 164 000 000
    021572  55   000002 000062
    021573  6a   000000 400002
    021574  55   000073 000003
    021575  aa  014 163 171 155         symbol_table
    021576  aa  142 157 154 137
    021577  aa  164 141 142 154
    021600  aa  145 000 000 000

DEFINITIONS HASH TABLE

    021601  aa   000000 000015
    021602  aa   000000 000000
    021603  5a   000021 000000
    021604  5a   000045 000000
    021605  aa   000000 000000
    021606  aa   000000 000000
    021607  5a   000012 000000
    021610  5a   000027 000000
    021611  5a   000070 000000
    021612  5a   000053 000000
    021613  aa   000000 000000
    021614  5a   000035 000000
    021615  aa   000000 000000
    021616  5a   000062 000000

EXTERNAL NAMES

    021617  aa  007 141 162 164         artproc
    021620  aa  160 162 157 143
    021621  aa  010 146 157 157         footproc
    021622  aa  164 160 162 157
    021623  aa  143 000 000 000
    021624  aa  015 141 163 143         ascii_writer_
    021625  aa  151 151 137 167
    021626  aa  162 151 164 145
    021627  aa  162 137 000 000

NO TRAP POINTER WORDS

TYPE PAIR BLOCKS

    021630  aa   000004 000000
    021631  55   000122 000115
    021632  aa   000004 000000
    021633  55   000122 000117
    021634  aa   000004 000000
    021635  55   000122 000122
    021636  aa   000001 000000
    021637  aa   000000 000000

INTERNAL EXPRESSION WORDS

    021640  5a   000126 000000
    021641  5a   000130 000000
    021642  5a   000132 000000
    021643  aa   000000 000000
LINKAGE INFORMATION

    000000  aa   000000 000000
    000001  0a   021502 000000
    000002  aa   000000 000000
    000003  aa   000000 000000
    000004  aa   000000 000000
    000005  aa   000000 000000
    000006  22   000010 000016
    000007  a2   000000 000000
    000010  9a   777770 0000 46         ascii_writer_|ascii_writer_
    000011  5a   000140 0000 00
    000012  9a   777766 0000 46         ascii_writer_|footproc
    000013  5a   000137 0000 00
    000014  9a   777764 0000 46         ascii_writer_|artproc
    000015  5a   000136 0000 00
SYMBOL INFORMATION

SYMBOL TABLE HEADER

    000000  aa   000000 000001
    000001  aa   163171 155142
    000002  aa   164162 145145
    000003  aa   000000 000004
    000004  aa   000000 110172
    000005  aa   711315 365225
    000006  aa   000000 110215
    000007  aa   414015 651226
    000010  aa   141154 155040
    000011  aa   040040 040040
    000012  aa   000024 000040
    000013  aa   000034 000040
    000014  aa   000044 000100
    000015  aa   000002 000002
    000016  aa   000064 000000
    000017  aa   000000 001401
    000020  aa   000000 000125
    000021  aa   000000 001366
    000022  aa   001372 000125
    000023  aa   000064 000000
    000024  aa   101114 115040
    000025  aa   126145 162163
    000026  aa   151157 156040
    000027  aa   040066 056064
    000030  aa   040040 101160
    000031  aa   162151 154040
    000032  aa   061071 070061
    000033  aa   040040 040040
    000034  aa   115141 162164
    000035  aa   151156 163157
    000036  aa   156056 123171
    000037  aa   163115 141151
    000040  aa   156164 056141
    000041  aa   040040 040040
    000042  aa   040040 040040
    000043  aa   040040 040040
    000044  aa   154151 163164
    000045  aa   040040 040040
    000046  aa   040040 040040
    000047  aa   040040 040040
    000050  aa   040040 040040
    000051  aa   040040 040040
    000052  aa   040040 040040
    000053  aa   040040 040040
    000054  aa   040040 040040
    000055  aa   040040 040040
    000056  aa   040040 040040
    000057  aa   040040 040040
    000060  aa   040040 040040
    000061  aa   040040 040040
    000062  aa   040040 040040
    000063  aa   040040 040040
    000064  aa   000000 000001
    000065  aa   000000 000002
    000066  aa   000076 000057
    000067  aa   102146 306740
    000070  aa   000000 110215
    000071  aa   414015 600000
    000072  aa   000112 000054
    000073  aa   102146 277174
    000074  aa   000000 110215
    000075  aa   166406 000000
    000076  aa   076163 160145          >special_ldd>online>comp-dir>ascii.comp_dsm.alm
    000077  aa   143151 141154
    000100  aa   137154 144144
    000101  aa   076157 156154
    000102  aa   151156 145076
    000103  aa   143157 155160
    000104  aa   055144 151162
    000105  aa   076141 163143
    000106  aa   151151 056143
    000107  aa   157155 160137
    000110  aa   144163 155056
    000111  aa   141154 155040
    000112  aa   076163 160145          >special_ldd>online>comp-dir>compdv.incl.alm
    000113  aa   143151 141154
    000114  aa   137154 144144
    000115  aa   076157 156154
    000116  aa   151156 145076
    000117  aa   143157 155160
    000120  aa   055144 151162
    000121  aa   076143 157155
    000122  aa   160144 166056
    000123  aa   151156 143154
    000124  aa   056141 154155
               MULTICS ASSEMBLY CROSS REFERENCE LISTING

   Value        Symbol                   Source file   Line number

           5    .seq_out.                ascii.comp_dsm:     610,
                                         compdv:       397.
           2    .str_out.                ascii.comp_dsm:      81,  186,  293,  398,  505,
                                         compdv:       396.
           0    art000000                compdv:       394.
                artproc                  ascii.comp_dsm:      51,  156,  263,  368,  475,  580.
           1    ascii.dvt                ascii.comp_dsm:       8.
          13    ascii_draft.dvt          ascii.comp_dsm:      15.
          63    ascii_sqo.dvt            ascii.comp_dsm:      45.
                ascii_writer_            ascii.comp_dsm:      49,   50,   51,  154,  155,  156,  261,  262,  263,  366,  367,
                                                             368,  473,  474,  475,  578,  579,  580.
           0    dvc000000                ascii.comp_dsm:      74,  179,  286,  391,  498,  603,
                                         compdv:       395.
           1    dvid.1                   ascii.comp_dsm:       3,    8.
          13    dvid.2                   ascii.comp_dsm:      10,   15.
          25    dvid.3                   ascii.comp_dsm:      17,   22.
          37    dvid.4                   ascii.comp_dsm:      24,   29.
          51    dvid.5                   ascii.comp_dsm:      31,   36,   38.
          63    dvid.6                   ascii.comp_dsm:      40,   45.
          76    dvt.1                    ascii.comp_dsm:       6,   47.
        3614    dvt.11                   ascii.comp_dsm:      43,  576.
         660    dvt.3                    ascii.comp_dsm:      13,  152.
        1454    dvt.5                    ascii.comp_dsm:      20,  259.
        2236    dvt.7                    ascii.comp_dsm:      27,  364.
        3032    dvt.9                    ascii.comp_dsm:      34,  471.
       21436    e.._00000                ascii.comp_dsm:      49.
       21440    e.._00001                ascii.comp_dsm:      50.
       21442    e.._00002                ascii.comp_dsm:      51.
       21444    e.._00003                ascii.comp_dsm:     154.
       21446    e.._00004                ascii.comp_dsm:     155.
       21450    e.._00005                ascii.comp_dsm:     156.
       21452    e.._00006                ascii.comp_dsm:     261.
       21454    e.._00007                ascii.comp_dsm:     262.
       21456    e.._00010                ascii.comp_dsm:     263.
       21460    e.._00011                ascii.comp_dsm:     366.
       21462    e.._00012                ascii.comp_dsm:     367.
       21464    e.._00013                ascii.comp_dsm:     368.
       21466    e.._00014                ascii.comp_dsm:     473.
       21470    e.._00015                ascii.comp_dsm:     474.
       21472    e.._00016                ascii.comp_dsm:     475.
       21474    e.._00017                ascii.comp_dsm:     578.
       21476    e.._00020                ascii.comp_dsm:     579.
       21500    e.._00021                ascii.comp_dsm:     580.
        5316    f.1                      ascii.comp_dsm:     682,  718,  722,  734,  738,  744,  788,  792,  804,  808,  814,  849.
        5325    f.2                      ascii.comp_dsm:     686,  694,  702,  706,  748,  756,  764,  768,  772,  820,  857.
        5334    f.3                      ascii.comp_dsm:     710,  714,  726,  730,  780,  784,  796,  800,  826,  865.
        5343    f.4                      ascii.comp_dsm:     690,  698,  752,  760,  776,  832,  873.
        5352    f.5                      ascii.comp_dsm:     838,  881.
        5361    f.6                      ascii.comp_dsm:     844,  889.
                footproc                 ascii.comp_dsm:      50,  155,  262,  367,  474,  579.
          51    LED120.dvt               ascii.comp_dsm:      38.
          51    led120.dvt               ascii.comp_dsm:      36.
         656    med_sel.1                ascii.comp_dsm:      75,  148.
        4374    med_sel.11               ascii.comp_dsm:     604,  677.
        1451    med_sel.3                ascii.comp_dsm:     180,  255.
        2234    med_sel.5                ascii.comp_dsm:     287,  360.
        3027    med_sel.7                ascii.comp_dsm:     392,  467.
        3612    med_sel.9                ascii.comp_dsm:     499,  572.
        4376    mem.1                    ascii.comp_dsm:      84,   86,   88,   90,  189,  191,  193,  195,  296,  298,  300,
                                                             302,  401,  403,  405,  407,  508,  510,  512,  514,  613,  615,
                                                             617,  619,  680.
        5264    mem.13                   ascii.comp_dsm:     215,  217,  219,  221,  223,  225,  227,  427,  429,  431,  433,
                                                             435,  437,  439,  836.
        5301    mem.16                   ascii.comp_dsm:     247,  249,  251,  253,  459,  461,  463,  465,  842.
        4663    mem.2                    ascii.comp_dsm:      92,  197,  304,  409,  516,  621,  742.
        5200    mem.3                    ascii.comp_dsm:      94,   96,   98,  100,  102,  104,  106,  108,  110,  199,  201,
                                                             203,  205,  207,  209,  306,  308,  310,  312,  314,  316,  318,
                                                             320,  322,  411,  413,  415,  417,  419,  421,  518,  520,  522,
                                                             524,  526,  528,  530,  532,  534,  623,  625,  627,  629,  631,
                                                             633,  635,  637,  639,  812.
        5215    mem.4                    ascii.comp_dsm:     112,  114,  116,  118,  120,  122,  124,  211,  213,  324,  326,
                                                             328,  330,  332,  334,  336,  423,  425,  536,  538,  540,  542,
                                                             544,  546,  548,  641,  643,  645,  647,  649,  651,  653,  818.
        5232    mem.6                    ascii.comp_dsm:     126,  128,  130,  132,  134,  136,  138,  229,  231,  233,  235,
                                                             237,  239,  241,  338,  340,  342,  344,  346,  348,  350,  441,
                                                             443,  445,  447,  449,  451,  453,  550,  552,  554,  556,  558,
                                                             560,  562,  655,  657,  659,  661,  663,  665,  667,  824.
        5247    mem.7                    ascii.comp_dsm:     140,  142,  144,  146,  243,  245,  352,  354,  356,  358,  455,
                                                             457,  564,  566,  568,  570,  669,  671,  673,  675,  830.
       13370    opu.1                    ascii.comp_dsm:     851, 1203.
       14131    opu.2                    ascii.comp_dsm:     859, 1421.
       14672    opu.3                    ascii.comp_dsm:     867, 1639.
       15433    opu.4                    ascii.comp_dsm:     875, 1856.
       16174    opu.5                    ascii.comp_dsm:     883, 2073.
       16735    opu.6                    ascii.comp_dsm:     891, 2291.
          25    printer.dvt              ascii.comp_dsm:      22.
          37    printer_draft.dvt        ascii.comp_dsm:      29.
       21436    s.exec                   ascii.comp_dsm:      49,   50,   51,  154,  155,  156,  261,  262,  263,  366,  367,
                                                             368,  473,  474,  475,  578,  579,  580.
           0    s.table                  ascii.comp_dsm:      49,   50,   51,  154,  155,  156,  261,  262,  263,  366,  367,
                                                             368,  473,  474,  475,  578,  579,  580,
                                         compdv:       391.
           0    s000000                  ascii.comp_dsm:      77,  182,  289,  394,  501,  606,
                                         compdv:       393.
       17500    s000002                  ascii.comp_dsm:     150,  257,  362,  469,  574,  679, 1319, 1368, 1374, 1380, 1386,
                                                            1392, 1398, 1404, 1410, 1416, 1418, 1537, 1586, 1592, 1598, 1604,
                                                            1610, 1616, 1622, 1628, 1634, 1636, 1754, 1803, 1809, 1815, 1821,
                                                            1827, 1833, 1839, 1845, 1851, 1853, 1971, 2020, 2026, 2032, 2038,
                                                            2044, 2050, 2056, 2062, 2068, 2070, 2189, 2238, 2244, 2250, 2256,
                                                            2262, 2268, 2274, 2280, 2286, 2288, 2407, 2456, 2462, 2468, 2474,
                                                            2480, 2486, 2492, 2498, 2504, 2506, 2513.
       17501    s000317                  ascii.comp_dsm:    1215, 1333, 1337, 1340, 1433, 1551, 1555, 1558, 1651, 1775, 1868,
                                                            1992, 2085, 2203, 2207, 2210, 2303, 2421, 2425, 2428, 2514.
       17503    s000321                  ascii.comp_dsm:    1216, 1434, 2516.
       17505    s000323                  ascii.comp_dsm:    1217, 1342, 1343, 1435, 1560, 1561, 2212, 2213, 2430, 2431, 2518.
       17507    s000325                  ascii.comp_dsm:    1218, 1436, 2520.
       17511    s000327                  ascii.comp_dsm:    1219, 1437, 2522.
       17513    s000331                  ascii.comp_dsm:    1220, 1438, 2524.
       17515    s000333                  ascii.comp_dsm:    1221, 1439, 2526.
       17517    s000335                  ascii.comp_dsm:    1222, 1440, 2528.
       17521    s000337                  ascii.comp_dsm:    1223, 1355, 1356, 1388, 1389, 1390, 1391, 1393, 1441, 1573, 1574,
                                                            1606, 1607, 1608, 1609, 1611, 1790, 1791, 1823, 1824, 1825, 1826,
                                                            1828, 2007, 2008, 2040, 2041, 2042, 2043, 2045, 2225, 2226, 2258,
                                                            2259, 2260, 2261, 2263, 2443, 2444, 2476, 2477, 2478, 2479, 2481, 2530.
       17523    s000341                  ascii.comp_dsm:    1224, 1360, 1361, 1394, 1395, 1396, 1397, 1399, 1442, 1578, 1579,
                                                            1612, 1613, 1614, 1615, 1617, 1795, 1796, 1829, 1830, 1831, 1832,
                                                            1834, 2012, 2013, 2046, 2047, 2048, 2049, 2051, 2230, 2231, 2264,
                                                            2265, 2266, 2267, 2269, 2448, 2449, 2482, 2483, 2484, 2485, 2487, 2532.
       17525    s000343                  ascii.comp_dsm:    1225, 1349, 1443, 1567, 1784, 2001, 2219, 2437, 2534.
       17527    s000345                  ascii.comp_dsm:    1226, 1444, 2536.
       17531    s000347                  ascii.comp_dsm:    1227, 1445, 2538.
       17533    s000351                  ascii.comp_dsm:    1228, 1339, 1341, 1446, 1557, 1559, 2209, 2211, 2427, 2429, 2540.
       17535    s000353                  ascii.comp_dsm:    1229, 1447, 2542.
       17537    s000355                  ascii.comp_dsm:    1230, 1414, 1420, 1448, 1632, 1638, 1849, 1855, 2066, 2072, 2284,
                                                            2290, 2502, 2508, 2544.
       17541    s000357                  ascii.comp_dsm:    1231, 1449, 2546.
       17543    s000361                  ascii.comp_dsm:    1232, 1450, 2548.
       17545    s000363                  ascii.comp_dsm:    1233, 1451, 2550.
       17547    s000365                  ascii.comp_dsm:    1234, 1452, 2552.
       17551    s000367                  ascii.comp_dsm:    1235, 1453, 2554.
       17553    s000371                  ascii.comp_dsm:    1236, 1454, 2556.
       17555    s000373                  ascii.comp_dsm:    1237, 1455, 2558.
       17557    s000375                  ascii.comp_dsm:    1238, 1456, 2560.
       17561    s000377                  ascii.comp_dsm:    1239, 1457, 2562.
       17563    s000401                  ascii.comp_dsm:    1240, 1458, 2564.
       17565    s000403                  ascii.comp_dsm:    1241, 1459, 2566.
       17567    s000405                  ascii.comp_dsm:    1241, 1459, 2568.
       17571    s000407                  ascii.comp_dsm:    1243, 1348, 1352, 1461, 1566, 1570, 1783, 1787, 2000, 2004, 2218,
                                                            2222, 2436, 2440, 2570.
       17573    s000411                  ascii.comp_dsm:    1244, 1462, 2572.
       17575    s000413                  ascii.comp_dsm:    1245, 1350, 1357, 1463, 1568, 1575, 1785, 1792, 2002, 2009, 2220,
                                                            2227, 2438, 2445, 2574.
       17577    s000415                  ascii.comp_dsm:    1246, 1464, 2576.
       17601    s000417                  ascii.comp_dsm:    1247, 1465, 2578.
       17603    s000421                  ascii.comp_dsm:    1248, 1466, 1498, 2580.
       17605    s000423                  ascii.comp_dsm:    1249, 1467, 1499, 2582.
       17607    s000425                  ascii.comp_dsm:    1250, 1468, 1500, 2584.
       17611    s000427                  ascii.comp_dsm:    1251, 1469, 1501, 2586.
       17613    s000431                  ascii.comp_dsm:    1252, 1470, 1502, 2588.
       17615    s000433                  ascii.comp_dsm:    1253, 1471, 1503, 2590.
       17617    s000435                  ascii.comp_dsm:    1254, 1472, 1504, 2592.
       17621    s000437                  ascii.comp_dsm:    1255, 1473, 1505, 2594.
       17623    s000441                  ascii.comp_dsm:    1256, 1474, 1506, 2596.
       17625    s000443                  ascii.comp_dsm:    1257, 1475, 1507, 2598.
       17627    s000445                  ascii.comp_dsm:    1258, 1476, 1508, 2600.
       17631    s000447                  ascii.comp_dsm:    1259, 1477, 1509, 2602.
       17633    s000451                  ascii.comp_dsm:    1260, 1478, 1510, 2604.
       17635    s000453                  ascii.comp_dsm:    1261, 1479, 1511, 2606.
       17637    s000455                  ascii.comp_dsm:    1262, 1480, 1512, 2608.
       17641    s000457                  ascii.comp_dsm:    1263, 1481, 1513, 2610.
       17643    s000461                  ascii.comp_dsm:    1264, 1482, 1514, 2612.
       17645    s000463                  ascii.comp_dsm:    1265, 1483, 1515, 2614.
       17647    s000465                  ascii.comp_dsm:    1266, 1484, 1516, 2616.
       17651    s000467                  ascii.comp_dsm:    1267, 1485, 1517, 2618.
       17653    s000471                  ascii.comp_dsm:    1268, 1486, 1518, 2620.
       17655    s000473                  ascii.comp_dsm:    1269, 1487, 1519, 2622.
       17657    s000475                  ascii.comp_dsm:    1270, 1488, 1520, 2624.
       17661    s000477                  ascii.comp_dsm:    1271, 1344, 1489, 1521, 1562, 1779, 1996, 2214, 2432, 2626.
       17663    s000501                  ascii.comp_dsm:    1272, 1490, 1522, 2628.
       17665    s000503                  ascii.comp_dsm:    1273, 1491, 1523, 2630.
       17667    s000505                  ascii.comp_dsm:    1274, 1354, 1364, 1365, 1366, 1367, 1369, 1492, 1572, 1582, 1583,
                                                            1584, 1585, 1587, 1789, 1799, 1800, 1801, 1802, 1804, 2006, 2016,
                                                            2017, 2018, 2019, 2021, 2224, 2234, 2235, 2236, 2237, 2239, 2442,
                                                            2452, 2453, 2454, 2455, 2457, 2632.
       17671    s000507                  ascii.comp_dsm:    1275, 1419, 1493, 1637, 1854, 2071, 2289, 2507, 2634.
       17673    s000511                  ascii.comp_dsm:    1276, 1359, 1370, 1371, 1372, 1373, 1375, 1494, 1577, 1588, 1589,
                                                            1590, 1591, 1593, 1794, 1805, 1806, 1807, 1808, 1810, 2011, 2022,
                                                            2023, 2024, 2025, 2027, 2229, 2240, 2241, 2242, 2243, 2245, 2447,
                                                            2458, 2459, 2460, 2461, 2463, 2636.
       17675    s000513                  ascii.comp_dsm:    1277, 1351, 1362, 1495, 1569, 1580, 1786, 1797, 2003, 2014, 2221,
                                                            2232, 2439, 2450, 2638.
       17677    s000515                  ascii.comp_dsm:    1278, 1338, 1417, 1496, 1556, 1635, 1714, 1768, 1772, 1773, 1852,
                                                            1931, 1985, 1989, 1990, 2069, 2148, 2208, 2287, 2366, 2426, 2505, 2640.
       17701    s000517                  ascii.comp_dsm:    1279, 1497, 2642.
       17703    s000521                  ascii.comp_dsm:    1280, 2644.
       17705    s000523                  ascii.comp_dsm:    1281, 2646.
       17707    s000525                  ascii.comp_dsm:    1282, 2648.
       17711    s000527                  ascii.comp_dsm:    1283, 2650.
       17713    s000531                  ascii.comp_dsm:    1284, 2652.
       17715    s000533                  ascii.comp_dsm:    1285, 2654.
       17717    s000535                  ascii.comp_dsm:    1286, 2656.
       17721    s000537                  ascii.comp_dsm:    1287, 2658.
       17723    s000541                  ascii.comp_dsm:    1288, 2660.
       17725    s000543                  ascii.comp_dsm:    1289, 2662.
       17727    s000545                  ascii.comp_dsm:    1290, 2664.
       17731    s000547                  ascii.comp_dsm:    1291, 2666.
       17733    s000551                  ascii.comp_dsm:    1292, 2668.
       17735    s000553                  ascii.comp_dsm:    1293, 2670.
       17737    s000555                  ascii.comp_dsm:    1294, 2672.
       17741    s000557                  ascii.comp_dsm:    1295, 2674.
       17743    s000561                  ascii.comp_dsm:    1296, 2676.
       17745    s000563                  ascii.comp_dsm:    1297, 2678.
       17747    s000565                  ascii.comp_dsm:    1298, 2680.
       17751    s000567                  ascii.comp_dsm:    1299, 2682.
       17753    s000571                  ascii.comp_dsm:    1300, 2684.
       17755    s000573                  ascii.comp_dsm:    1301, 1346, 1347, 1564, 1565, 1781, 1782, 1998, 1999, 2216, 2217,
                                                            2434, 2435, 2686.
       17757    s000575                  ascii.comp_dsm:    1302, 2688.
       17761    s000577                  ascii.comp_dsm:    1303, 2690.
       17763    s000601                  ascii.comp_dsm:    1304, 2692.
       17765    s000603                  ascii.comp_dsm:    1305, 2694.
       17767    s000605                  ascii.comp_dsm:    1306, 1353, 1376, 1377, 1378, 1379, 1381, 1524, 1571, 1594, 1595,
                                                            1596, 1597, 1599, 1788, 1811, 1812, 1813, 1814, 1816, 2005, 2028,
                                                            2029, 2030, 2031, 2033, 2223, 2246, 2247, 2248, 2249, 2251, 2441,
                                                            2464, 2465, 2466, 2467, 2469, 2696.
       17771    s000607                  ascii.comp_dsm:    1307, 1400, 1401, 1402, 1403, 1405, 1412, 1525, 1618, 1619, 1620,
                                                            1621, 1623, 1630, 1835, 1836, 1837, 1838, 1840, 1847, 2052, 2053,
                                                            2054, 2055, 2057, 2064, 2270, 2271, 2272, 2273, 2275, 2282, 2488,
                                                            2489, 2490, 2491, 2493, 2500, 2698.
       17773    s000611                  ascii.comp_dsm:    1308, 1358, 1382, 1383, 1384, 1385, 1387, 1526, 1576, 1600, 1601,
                                                            1602, 1603, 1605, 1793, 1817, 1818, 1819, 1820, 1822, 2010, 2034,
                                                            2035, 2036, 2037, 2039, 2228, 2252, 2253, 2254, 2255, 2257, 2446,
                                                            2470, 2471, 2472, 2473, 2475, 2700.
       17775    s000613                  ascii.comp_dsm:    1309, 1527, 2702.
       17777    s000615                  ascii.comp_dsm:    1206, 1424, 1642, 1859, 2076, 2294, 2704.
       20001    s000617                  ascii.comp_dsm:    1315, 1533, 2185, 2403, 2706.
       20003    s000621                  ascii.comp_dsm:    1335, 1553, 2205, 2423, 2708.
       20005    s000623                  ascii.comp_dsm:    1317, 1535, 2187, 2405, 2710.
       20007    s000625                  ascii.comp_dsm:    1210, 1428, 1646, 1863, 2080, 2298, 2712.
       20011    s000627                  ascii.comp_dsm:    1211, 1429, 1647, 1864, 2081, 2299, 2714.
       20013    s000631                  ascii.comp_dsm:    1208, 1426, 1644, 1861, 2078, 2296, 2716.
       20015    s000633                  ascii.comp_dsm:    1213, 1431, 1649, 1866, 2083, 2301, 2718.
       20017    s000635                  ascii.comp_dsm:    1310, 1528, 1746, 1963, 2180, 2398, 2720.
       20021    s000637                  ascii.comp_dsm:    1312, 1530, 1719, 1748, 1965, 2182, 2400, 2722.
       20023    s000641                  ascii.comp_dsm:    1313, 1531, 1729, 1749, 1966, 2183, 2401, 2724.
       20025    s000643                  ascii.comp_dsm:    1314, 1532, 1739, 1750, 1967, 2184, 2402, 2726.
       20027    s000645                  ascii.comp_dsm:    1331, 1549, 1766, 1983, 2201, 2419, 2728.
       20031    s000647                  ascii.comp_dsm:    1336, 1554, 1770, 1771, 1987, 1988, 2206, 2424, 2730.
       20033    s000651                  ascii.comp_dsm:    1323, 1541, 1758, 1975, 2193, 2411, 2732.
       20035    s000653                  ascii.comp_dsm:    1345, 1563, 1780, 1997, 2215, 2433, 2734.
       20040    s000656                  ascii.comp_dsm:    1406, 1407, 1408, 1409, 1411, 1413, 1624, 1625, 1626, 1627, 1629,
                                                            1631, 1841, 1842, 1843, 1844, 1846, 1848, 2058, 2059, 2060, 2061,
                                                            2063, 2065, 2276, 2277, 2278, 2279, 2281, 2283, 2494, 2495, 2496,
                                                            2497, 2499, 2501, 2737.
       20042    s000660                  ascii.comp_dsm:    1325, 1543, 1760, 1977, 2195, 2413, 2739.
       20044    s000662                  ascii.comp_dsm:    1329, 1547, 1764, 1981, 2199, 2417, 2741.
       20046    s000664                  ascii.comp_dsm:    1321, 1539, 1756, 1973, 2191, 2409, 2743.
       20050    s000666                  ascii.comp_dsm:    1327, 1545, 1762, 1979, 2197, 2415, 2745.
       20052    s000670                  ascii.comp_dsm:    1415, 1633, 1850, 2067, 2285, 2503, 2747.
       20054    s000672                  ascii.comp_dsm:    1652, 1869, 2749.
       20056    s000674                  ascii.comp_dsm:    1653, 1777, 1778, 1870, 1994, 1995, 2751.
       20060    s000676                  ascii.comp_dsm:    1654, 1871, 2753.
       20062    s000700                  ascii.comp_dsm:    1655, 1872, 2755.
       20064    s000702                  ascii.comp_dsm:    1656, 1873, 2757.
       20066    s000704                  ascii.comp_dsm:    1657, 1874, 2759.
       20070    s000706                  ascii.comp_dsm:    1658, 1875, 2761.
       20072    s000710                  ascii.comp_dsm:    1659, 1876, 2763.
       20074    s000712                  ascii.comp_dsm:    1660, 1877, 2765.
       20076    s000714                  ascii.comp_dsm:    1661, 1878, 2767.
       20100    s000716                  ascii.comp_dsm:    1662, 1879, 2769.
       20102    s000720                  ascii.comp_dsm:    1663, 1880, 2771.
       20104    s000722                  ascii.comp_dsm:    1664, 1774, 1776, 1881, 1991, 1993, 2773.
       20106    s000724                  ascii.comp_dsm:    1665, 1882, 2775.
       20110    s000726                  ascii.comp_dsm:    1666, 1883, 2777.
       20112    s000730                  ascii.comp_dsm:    1667, 1884, 2779.
       20114    s000732                  ascii.comp_dsm:    1668, 1885, 2781.
       20116    s000734                  ascii.comp_dsm:    1669, 1886, 2783.
       20120    s000736                  ascii.comp_dsm:    1670, 1887, 2785.
       20122    s000740                  ascii.comp_dsm:    1671, 1888, 2787.
       20124    s000742                  ascii.comp_dsm:    1672, 1889, 2789.
       20126    s000744                  ascii.comp_dsm:    1673, 1890, 2791.
       20130    s000746                  ascii.comp_dsm:    1674, 1891, 2793.
       20132    s000750                  ascii.comp_dsm:    1675, 1892, 2795.
       20134    s000752                  ascii.comp_dsm:    1676, 1893, 2797.
       20136    s000754                  ascii.comp_dsm:    1677, 1894, 2799.
       20140    s000756                  ascii.comp_dsm:    1677, 1894, 2801.
       20142    s000760                  ascii.comp_dsm:    1679, 1896, 2803.
       20144    s000762                  ascii.comp_dsm:    1680, 1897, 2805.
       20146    s000764                  ascii.comp_dsm:    1681, 1898, 2807.
       20150    s000766                  ascii.comp_dsm:    1682, 1899, 2809.
       20152    s000770                  ascii.comp_dsm:    1683, 1900, 2811.
       20154    s000772                  ascii.comp_dsm:    1684, 1901, 1933, 2813.
       20156    s000774                  ascii.comp_dsm:    1685, 1902, 1934, 2815.
       20160    s000776                  ascii.comp_dsm:    1686, 1903, 1935, 2817.
       20162    s001000                  ascii.comp_dsm:    1687, 1904, 1936, 2819.
       20164    s001002                  ascii.comp_dsm:    1688, 1905, 1937, 2821.
       20166    s001004                  ascii.comp_dsm:    1689, 1906, 1938, 2823.
       20170    s001006                  ascii.comp_dsm:    1690, 1907, 1939, 2825.
       20172    s001010                  ascii.comp_dsm:    1691, 1908, 1940, 2827.
       20174    s001012                  ascii.comp_dsm:    1692, 1909, 1941, 2829.
       20176    s001014                  ascii.comp_dsm:    1693, 1910, 1942, 2831.
       20200    s001016                  ascii.comp_dsm:    1694, 1911, 1943, 2833.
       20202    s001020                  ascii.comp_dsm:    1695, 1912, 1944, 2835.
       20204    s001022                  ascii.comp_dsm:    1696, 1913, 1945, 2837.
       20206    s001024                  ascii.comp_dsm:    1697, 1914, 1946, 2839.
       20210    s001026                  ascii.comp_dsm:    1698, 1915, 1947, 2841.
       20212    s001030                  ascii.comp_dsm:    1699, 1916, 1948, 2843.
       20214    s001032                  ascii.comp_dsm:    1700, 1917, 1949, 2845.
       20216    s001034                  ascii.comp_dsm:    1701, 1918, 1950, 2847.
       20220    s001036                  ascii.comp_dsm:    1702, 1919, 1951, 2849.
       20222    s001040                  ascii.comp_dsm:    1703, 1920, 1952, 2851.
       20224    s001042                  ascii.comp_dsm:    1704, 1921, 1953, 2853.
       20226    s001044                  ascii.comp_dsm:    1705, 1922, 1954, 2855.
       20230    s001046                  ascii.comp_dsm:    1706, 1923, 1955, 2857.
       20232    s001050                  ascii.comp_dsm:    1707, 1924, 1956, 2859.
       20234    s001052                  ascii.comp_dsm:    1708, 1925, 1957, 2861.
       20236    s001054                  ascii.comp_dsm:    1709, 1926, 1958, 2863.
       20240    s001056                  ascii.comp_dsm:    1710, 1927, 2865.
       20242    s001060                  ascii.comp_dsm:    1711, 1928, 2867.
       20244    s001062                  ascii.comp_dsm:    1712, 1929, 2869.
       20246    s001064                  ascii.comp_dsm:    1713, 1930, 2871.
       20250    s001066                  ascii.comp_dsm:    1715, 1932, 2873.
       20252    s001070                  ascii.comp_dsm:    1716, 2875.
       20254    s001072                  ascii.comp_dsm:    1717, 2877.
       20256    s001074                  ascii.comp_dsm:    1718, 2879.
       20260    s001076                  ascii.comp_dsm:    1720, 2881.
       20262    s001100                  ascii.comp_dsm:    1721, 2883.
       20264    s001102                  ascii.comp_dsm:    1722, 2885.
       20266    s001104                  ascii.comp_dsm:    1723, 2887.
       20270    s001106                  ascii.comp_dsm:    1724, 2889.
       20272    s001110                  ascii.comp_dsm:    1725, 2891.
       20274    s001112                  ascii.comp_dsm:    1726, 2893.
       20276    s001114                  ascii.comp_dsm:    1727, 2895.
       20300    s001116                  ascii.comp_dsm:    1728, 2897.
       20302    s001120                  ascii.comp_dsm:    1730, 2899.
       20304    s001122                  ascii.comp_dsm:    1731, 2901.
       20306    s001124                  ascii.comp_dsm:    1732, 2903.
       20310    s001126                  ascii.comp_dsm:    1733, 2905.
       20312    s001130                  ascii.comp_dsm:    1734, 2907.
       20314    s001132                  ascii.comp_dsm:    1735, 2909.
       20316    s001134                  ascii.comp_dsm:    1736, 2911.
       20320    s001136                  ascii.comp_dsm:    1737, 2913.
       20322    s001140                  ascii.comp_dsm:    1738, 2915.
       20324    s001142                  ascii.comp_dsm:    1740, 2917.
       20326    s001144                  ascii.comp_dsm:    1741, 2919.
       20330    s001146                  ascii.comp_dsm:    1742, 1959, 2921.
       20332    s001150                  ascii.comp_dsm:    1743, 1960, 2923.
       20334    s001152                  ascii.comp_dsm:    1744, 1961, 2925.
       20336    s001154                  ascii.comp_dsm:    1745, 1962, 2927.
       20340    s001156                  ascii.comp_dsm:    1752, 1969, 2929.
       20343    s001161                  ascii.comp_dsm:    2086, 2932.
       20346    s001164                  ascii.comp_dsm:    2087, 2935.
       20351    s001167                  ascii.comp_dsm:    2088, 2938.
       20354    s001172                  ascii.comp_dsm:    2089, 2941.
       20357    s001175                  ascii.comp_dsm:    2090, 2944.
       20362    s001200                  ascii.comp_dsm:    2091, 2947.
       20365    s001203                  ascii.comp_dsm:    2092, 2950.
       20370    s001206                  ascii.comp_dsm:    2093, 2953.
       20373    s001211                  ascii.comp_dsm:    2094, 2956.
       20376    s001214                  ascii.comp_dsm:    2095, 2959.
       20401    s001217                  ascii.comp_dsm:    2096, 2962.
       20404    s001222                  ascii.comp_dsm:    2097, 2965.
       20407    s001225                  ascii.comp_dsm:    2098, 2968.
       20412    s001230                  ascii.comp_dsm:    2099, 2971.
       20415    s001233                  ascii.comp_dsm:    2100, 2974.
       20420    s001236                  ascii.comp_dsm:    2101, 2977.
       20423    s001241                  ascii.comp_dsm:    2102, 2980.
       20426    s001244                  ascii.comp_dsm:    2103, 2983.
       20431    s001247                  ascii.comp_dsm:    2104, 2986.
       20434    s001252                  ascii.comp_dsm:    2105, 2989.
       20437    s001255                  ascii.comp_dsm:    2106, 2992.
       20442    s001260                  ascii.comp_dsm:    2107, 2995.
       20445    s001263                  ascii.comp_dsm:    2108, 2998.
       20450    s001266                  ascii.comp_dsm:    2109, 3001.
       20453    s001271                  ascii.comp_dsm:    2110, 3004.
       20456    s001274                  ascii.comp_dsm:    2111, 3007.
       20461    s001277                  ascii.comp_dsm:    2111, 3010.
       20464    s001302                  ascii.comp_dsm:    2113, 3013.
       20467    s001305                  ascii.comp_dsm:    2114, 3016.
       20472    s001310                  ascii.comp_dsm:    2115, 3019.
       20475    s001313                  ascii.comp_dsm:    2116, 3022.
       20500    s001316                  ascii.comp_dsm:    2117, 3025.
       20503    s001321                  ascii.comp_dsm:    2118, 3028.
       20506    s001324                  ascii.comp_dsm:    2119, 3031.
       20511    s001327                  ascii.comp_dsm:    2120, 3034.
       20514    s001332                  ascii.comp_dsm:    2121, 3037.
       20517    s001335                  ascii.comp_dsm:    2122, 3040.
       20522    s001340                  ascii.comp_dsm:    2123, 3043.
       20525    s001343                  ascii.comp_dsm:    2124, 3046.
       20530    s001346                  ascii.comp_dsm:    2125, 3049.
       20533    s001351                  ascii.comp_dsm:    2126, 3052.
       20536    s001354                  ascii.comp_dsm:    2127, 3055.
       20541    s001357                  ascii.comp_dsm:    2128, 3058.
       20544    s001362                  ascii.comp_dsm:    2129, 3061.
       20547    s001365                  ascii.comp_dsm:    2130, 3064.
       20552    s001370                  ascii.comp_dsm:    2131, 3067.
       20555    s001373                  ascii.comp_dsm:    2132, 3070.
       20560    s001376                  ascii.comp_dsm:    2133, 3073.
       20563    s001401                  ascii.comp_dsm:    2134, 3076.
       20566    s001404                  ascii.comp_dsm:    2135, 3079.
       20571    s001407                  ascii.comp_dsm:    2136, 3082.
       20574    s001412                  ascii.comp_dsm:    2137, 3085.
       20577    s001415                  ascii.comp_dsm:    2138, 3088.
       20602    s001420                  ascii.comp_dsm:    2139, 3091.
       20605    s001423                  ascii.comp_dsm:    2140, 3094.
       20610    s001426                  ascii.comp_dsm:    2141, 3097.
       20613    s001431                  ascii.comp_dsm:    2142, 3100.
       20616    s001434                  ascii.comp_dsm:    2143, 3103.
       20621    s001437                  ascii.comp_dsm:    2144, 3106.
       20624    s001442                  ascii.comp_dsm:    2145, 3109.
       20627    s001445                  ascii.comp_dsm:    2146, 3112.
       20632    s001450                  ascii.comp_dsm:    2147, 3115.
       20635    s001453                  ascii.comp_dsm:    2149, 3118.
       20640    s001456                  ascii.comp_dsm:    2150, 3121.
       20643    s001461                  ascii.comp_dsm:    2151, 3124.
       20646    s001464                  ascii.comp_dsm:    2152, 3127.
       20651    s001467                  ascii.comp_dsm:    2153, 3130.
       20654    s001472                  ascii.comp_dsm:    2154, 3133.
       20657    s001475                  ascii.comp_dsm:    2155, 3136.
       20662    s001500                  ascii.comp_dsm:    2156, 3139.
       20665    s001503                  ascii.comp_dsm:    2157, 3142.
       20670    s001506                  ascii.comp_dsm:    2158, 3145.
       20673    s001511                  ascii.comp_dsm:    2159, 3148.
       20676    s001514                  ascii.comp_dsm:    2160, 3151.
       20701    s001517                  ascii.comp_dsm:    2161, 3154.
       20704    s001522                  ascii.comp_dsm:    2162, 3157.
       20707    s001525                  ascii.comp_dsm:    2163, 3160.
       20712    s001530                  ascii.comp_dsm:    2164, 3163.
       20715    s001533                  ascii.comp_dsm:    2165, 3166.
       20720    s001536                  ascii.comp_dsm:    2166, 3169.
       20723    s001541                  ascii.comp_dsm:    2167, 3172.
       20726    s001544                  ascii.comp_dsm:    2168, 3175.
       20731    s001547                  ascii.comp_dsm:    2169, 3178.
       20734    s001552                  ascii.comp_dsm:    2170, 3181.
       20737    s001555                  ascii.comp_dsm:    2171, 3184.
       20742    s001560                  ascii.comp_dsm:    2172, 3187.
       20745    s001563                  ascii.comp_dsm:    2173, 3190.
       20750    s001566                  ascii.comp_dsm:    2174, 3193.
       20753    s001571                  ascii.comp_dsm:    2175, 3196.
       20756    s001574                  ascii.comp_dsm:    2176, 3199.
       20761    s001577                  ascii.comp_dsm:    2177, 3202.
       20764    s001602                  ascii.comp_dsm:    2178, 3205.
       20767    s001605                  ascii.comp_dsm:    2179, 3208.
       20772    s001610                  ascii.comp_dsm:    2304, 3211.
       20775    s001613                  ascii.comp_dsm:    2305, 3214.
       21000    s001616                  ascii.comp_dsm:    2306, 3217.
       21003    s001621                  ascii.comp_dsm:    2307, 3220.
       21006    s001624                  ascii.comp_dsm:    2308, 3223.
       21011    s001627                  ascii.comp_dsm:    2309, 3226.
       21014    s001632                  ascii.comp_dsm:    2310, 3229.
       21017    s001635                  ascii.comp_dsm:    2311, 3232.
       21022    s001640                  ascii.comp_dsm:    2312, 3235.
       21025    s001643                  ascii.comp_dsm:    2313, 3238.
       21030    s001646                  ascii.comp_dsm:    2314, 3241.
       21033    s001651                  ascii.comp_dsm:    2315, 3244.
       21036    s001654                  ascii.comp_dsm:    2316, 3247.
       21041    s001657                  ascii.comp_dsm:    2317, 3250.
       21044    s001662                  ascii.comp_dsm:    2318, 3253.
       21047    s001665                  ascii.comp_dsm:    2319, 3256.
       21052    s001670                  ascii.comp_dsm:    2320, 3259.
       21055    s001673                  ascii.comp_dsm:    2321, 3262.
       21060    s001676                  ascii.comp_dsm:    2322, 3265.
       21063    s001701                  ascii.comp_dsm:    2323, 3268.
       21066    s001704                  ascii.comp_dsm:    2324, 3271.
       21071    s001707                  ascii.comp_dsm:    2325, 3274.
       21074    s001712                  ascii.comp_dsm:    2326, 3277.
       21077    s001715                  ascii.comp_dsm:    2327, 3280.
       21102    s001720                  ascii.comp_dsm:    2328, 3283.
       21105    s001723                  ascii.comp_dsm:    2329, 3286.
       21110    s001726                  ascii.comp_dsm:    2329, 3289.
       21113    s001731                  ascii.comp_dsm:    2331, 3292.
       21116    s001734                  ascii.comp_dsm:    2332, 3295.
       21121    s001737                  ascii.comp_dsm:    2333, 3298.
       21124    s001742                  ascii.comp_dsm:    2334, 3301.
       21127    s001745                  ascii.comp_dsm:    2335, 3304.
       21132    s001750                  ascii.comp_dsm:    2336, 3307.
       21135    s001753                  ascii.comp_dsm:    2337, 3310.
       21140    s001756                  ascii.comp_dsm:    2338, 3313.
       21143    s001761                  ascii.comp_dsm:    2339, 3316.
       21146    s001764                  ascii.comp_dsm:    2340, 3319.
       21151    s001767                  ascii.comp_dsm:    2341, 3322.
       21154    s001772                  ascii.comp_dsm:    2342, 3325.
       21157    s001775                  ascii.comp_dsm:    2343, 3328.
       21162    s002000                  ascii.comp_dsm:    2344, 3331.
       21165    s002003                  ascii.comp_dsm:    2345, 3334.
       21170    s002006                  ascii.comp_dsm:    2346, 3337.
       21173    s002011                  ascii.comp_dsm:    2347, 3340.
       21176    s002014                  ascii.comp_dsm:    2348, 3343.
       21201    s002017                  ascii.comp_dsm:    2349, 3346.
       21204    s002022                  ascii.comp_dsm:    2350, 3349.
       21207    s002025                  ascii.comp_dsm:    2351, 3352.
       21212    s002030                  ascii.comp_dsm:    2352, 3355.
       21215    s002033                  ascii.comp_dsm:    2353, 3358.
       21220    s002036                  ascii.comp_dsm:    2354, 3361.
       21223    s002041                  ascii.comp_dsm:    2355, 3364.
       21226    s002044                  ascii.comp_dsm:    2356, 3367.
       21231    s002047                  ascii.comp_dsm:    2357, 3370.
       21234    s002052                  ascii.comp_dsm:    2358, 3373.
       21237    s002055                  ascii.comp_dsm:    2359, 3376.
       21242    s002060                  ascii.comp_dsm:    2360, 3379.
       21245    s002063                  ascii.comp_dsm:    2361, 3382.
       21250    s002066                  ascii.comp_dsm:    2362, 3385.
       21253    s002071                  ascii.comp_dsm:    2363, 3388.
       21256    s002074                  ascii.comp_dsm:    2364, 3391.
       21261    s002077                  ascii.comp_dsm:    2365, 3394.
       21264    s002102                  ascii.comp_dsm:    2367, 3397.
       21267    s002105                  ascii.comp_dsm:    2368, 3400.
       21272    s002110                  ascii.comp_dsm:    2369, 3403.
       21275    s002113                  ascii.comp_dsm:    2370, 3406.
       21300    s002116                  ascii.comp_dsm:    2371, 3409.
       21303    s002121                  ascii.comp_dsm:    2372, 3412.
       21306    s002124                  ascii.comp_dsm:    2373, 3415.
       21311    s002127                  ascii.comp_dsm:    2374, 3418.
       21314    s002132                  ascii.comp_dsm:    2375, 3421.
       21317    s002135                  ascii.comp_dsm:    2376, 3424.
       21322    s002140                  ascii.comp_dsm:    2377, 3427.
       21325    s002143                  ascii.comp_dsm:    2378, 3430.
       21330    s002146                  ascii.comp_dsm:    2379, 3433.
       21333    s002151                  ascii.comp_dsm:    2380, 3436.
       21336    s002154                  ascii.comp_dsm:    2381, 3439.
       21341    s002157                  ascii.comp_dsm:    2382, 3442.
       21344    s002162                  ascii.comp_dsm:    2383, 3445.
       21347    s002165                  ascii.comp_dsm:    2384, 3448.
       21352    s002170                  ascii.comp_dsm:    2385, 3451.
       21355    s002173                  ascii.comp_dsm:    2386, 3454.
       21360    s002176                  ascii.comp_dsm:    2387, 3457.
       21363    s002201                  ascii.comp_dsm:    2388, 3460.
       21366    s002204                  ascii.comp_dsm:    2389, 3463.
       21371    s002207                  ascii.comp_dsm:    2390, 3466.
       21374    s002212                  ascii.comp_dsm:    2391, 3469.
       21377    s002215                  ascii.comp_dsm:    2392, 3472.
       21402    s002220                  ascii.comp_dsm:    2393, 3475.
       21405    s002223                  ascii.comp_dsm:    2394, 3478.
       21410    s002226                  ascii.comp_dsm:    2395, 3481.
       21413    s002231                  ascii.comp_dsm:    2396, 3484.
       21416    s002234                  ascii.comp_dsm:    2397, 3487.
       21421    s002237                  ascii.comp_dsm:      76,  181,  288,  393,  500,  605, 3490.
       21431    s002247                  ascii.comp_dsm:      73,  178,  285,  390,  497,  602, 3498.
       17476    size.1                   ascii.comp_dsm:     683,  687,  691,  695,  699,  703,  707,  711,  715,  719,  723,
                                                             727,  731,  735,  739,  745,  749,  753,  757,  761,  765,  769,
                                                             773,  777,  781,  785,  789,  793,  797,  801,  805,  809,  815,
                                                             821,  827,  833,  839,  845, 2510.
        5370    uni.1                    ascii.comp_dsm:     850,  897.
        6370    uni.2                    ascii.comp_dsm:     858,  948.
        7370    uni.3                    ascii.comp_dsm:     866,  999.
       10370    uni.4                    ascii.comp_dsm:     874, 1050.
       11370    uni.5                    ascii.comp_dsm:     882, 1101.
       12370    uni.6                    ascii.comp_dsm:     890, 1152.


NO FATAL ERRORS


                                          -----------------------------------------------------------


Historical Background

This edition of the Multics software materials and documentation is provided and donated
to Massachusetts Institute of Technology by Group BULL including BULL HN Information Systems Inc.
as a contribution to computer science knowledge.
This donation is made also to give evidence of the common contributions of Massachusetts Institute of Technology,
Bell Laboratories, General Electric, Honeywell Information Systems Inc., Honeywell BULL Inc., Groupe BULL
and BULL HN Information Systems Inc. to the development of this operating system.
Multics development was initiated by Massachusetts Institute of Technology Project MAC (1963-1970),
renamed the MIT Laboratory for Computer Science and Artificial Intelligence in the mid 1970s, under the leadership
of Professor Fernando Jose Corbato. Users consider that Multics provided the best software architecture
for managing computer hardware properly and for executing programs. Many subsequent operating systems
incorporated Multics principles.
Multics was distributed in 1975 to 2000 by Group Bull in Europe , and in the U.S. by Bull HN Information Systems Inc.,
as successor in interest by change in name only to Honeywell Bull Inc. and Honeywell Information Systems Inc. .

                                          -----------------------------------------------------------

Permission to use, copy, modify, and distribute these programs and their documentation for any purpose and without
fee is hereby granted,provided that the below copyright notice and historical background appear in all copies
and that both the copyright notice and historical background and this permission notice appear in supporting
documentation, and that the names of MIT, HIS, BULL or BULL HN not be used in advertising or publicity pertaining
to distribution of the programs without specific prior written permission.
    Copyright 1972 by Massachusetts Institute of Technology and Honeywell Information Systems Inc.
    Copyright 2006 by BULL HN Information Systems Inc.
    Copyright 2006 by Bull SAS
    All Rights Reserved
