ASSEMBLY LISTING OF SEGMENT >spec>online>graphics>fix>calcomp_915.alm
ASSEMBLED ON:	11/02/77  1751.8 mst Wed
OPTIONS USED:	list
ASSEMBLED BY:	ALM Version 6.1, June 1977
ASSEMBLER CREATED:	08/03/77  1524.2 mst Wed

                                     1
    000000                           2  	name	CalComp_915_table
                                     3
                        000000       4  	segdef	table_start
                                     5
    000000                           6  table_start:
    000000  aa   000000 000001       7  	dec	1		"version number
    000001  aa  103 141 154 103      8  	aci	"CalComp_915                     "
    000002  aa  157 155 160 137
    000003  aa  071 061 065 040
    000004  aa  040 040 040 040
    000005  aa  040 040 040 040
    000006  aa  040 040 040 040
    000007  aa  040 040 040 040
    000010  aa  040 040 040 040
    000011  aa  163 164 141 164      9  	aci	"stat"
    000012  aa   010664 272077      10  	oct	010664272077, 006762547045, 006566015234	"character parameters
    000013  aa   006762 547045
    000014  aa   006566 015234
    000015  aa   000003 770000      11  	dec	1044480		"message size
    000016                          12  	bss	.pad,12
                                    13
    000032  aa   000000 000000      14  	oct	000000000000	"not used
    000033  aa   000000 000000      15  	oct	000000000000	"not used
    000034  aa   000000 000000      16  	oct	000000000000	"not used
    000035  aa   000000 000000      17  	oct	000000000000	"not used
    000036  aa   100000 000000      18  	oct	100000000000	"pause
    000037  aa   040000 000000      19  	oct	040000000000	"reference
    000040  aa   040000 000000      20  	oct	040000000000	"increment
    000041  aa   040000 000000      21  	oct	040000000000	"alter
    000042  aa   200000 000000      22  	oct	200000000000	"node_begin
    000043  aa   200000 000000      23  	oct	200000000000	"node_end
    000044  aa   040000 000000      24  	oct	040000000000	"control
    000045  aa   100000 000000      25  	oct	100000000000	"display
    000046  aa   040000 000000      26  	oct	040000000000	"query
    000047  aa   200000 000000      27  	oct	200000000000	"erase
    000050  aa   100000 000000      28  	oct	100000000000	"synchronize
    000051  aa   100000 000000      29  	oct	100000000000	"delete
    000052  aa   200000 000000      30  	oct	200000000000	"setposition
    000053  aa   200000 000000      31  	oct	200000000000	"setpoint
    000054  aa   200000 000000      32  	oct	200000000000	"vector
    000055  aa   200000 000000      33  	oct	200000000000	"shift
    000056  aa   200000 000000      34  	oct	200000000000	"point
    000057  aa   600000 000000      35  	oct	600000000000	"scaling
    000060  aa   600000 000000      36  	oct	600000000000	"rotation
    000061  aa   100000 000000      37  	oct	100000000000	"clipping
    000062  aa   600000 000000      38  	oct	600000000000	"intensity
    000063  aa   600000 000000      39  	oct	600000000000	"line_type
    000064  aa   100000 000000      40  	oct	100000000000	"blinking
    000065  aa   100000 000000      41  	oct	100000000000	"sensitivity
    000066  aa   600000 000000      42  	oct	600000000000	"color
    000067  aa   100000 000000      43  	oct	100000000000	"symbol
    000070  aa   200000 000000      44  	oct	200000000000	"text
    000071  aa   100000 000000      45  	oct	100000000000	"data
    000072  aa   040000 000000      46  	oct	040000000000	"input
    000073  aa   200000 000000      47  	oct	200000000000	"graphic_mode
    000074  aa   200000 000000      48  	oct	200000000000	"text_mode
    000075  aa   200000 000000      49  	oct	200000000000	"expansion
    000076  aa   200000 000000      50  	oct	200000000000	"open
    000077  aa   200000 000000      51  	oct	200000000000	"close
                                    52
                        000100      53  	entry	gdt_proc
                                    54
    000100                          55  gdt_proc:
    000100  aa  0 00002 2361 20     56  	ldq	ap|2,*
    000101  aa   000037 1760 07     57  	sbq	31,dl
    000102  0a   000102 7100 06     58  	tra	*,ql
                                    59
    000103  4a  4 00010 7101 20     60  	tra	<graphic_dim_>|[no_entry]                	"not used
    000104  4a  4 00010 7101 20     61  	tra	<graphic_dim_>|[no_entry]                	"not used
    000105  4a  4 00010 7101 20     62  	tra	<graphic_dim_>|[no_entry]                	"not used
    000106  4a  4 00010 7101 20     63  	tra	<graphic_dim_>|[no_entry]                	"not used
    000107  4a  4 00010 7101 20     64  	tra	<graphic_dim_>|[no_entry]                	"pause
    000110  4a  4 00010 7101 20     65  	tra	<graphic_dim_>|[no_entry]                	"reference
    000111  4a  4 00010 7101 20     66  	tra	<graphic_dim_>|[no_entry]                	"increment
    000112  4a  4 00010 7101 20     67  	tra	<graphic_dim_>|[no_entry]                	"alter
    000113  4a  4 00012 7101 20     68  	tra	<calcomp_915_>|[node_in]                 	"node_begin
    000114  4a  4 00014 7101 20     69  	tra	<calcomp_915_>|[node_out]                	"node_end
    000115  4a  4 00010 7101 20     70  	tra	<graphic_dim_>|[no_entry]                	"control
    000116  4a  4 00010 7101 20     71  	tra	<graphic_dim_>|[no_entry]                	"display
    000117  4a  4 00010 7101 20     72  	tra	<graphic_dim_>|[no_entry]                	"query
    000120  4a  4 00016 7101 20     73  	tra	<calcomp_915_>|[erase]                   	"erase
    000121  4a  4 00010 7101 20     74  	tra	<graphic_dim_>|[no_entry]                	"synchronize
    000122  4a  4 00010 7101 20     75  	tra	<graphic_dim_>|[no_entry]                	"delete
    000123  4a  4 00020 7101 20     76  	tra	<calcomp_915_>|[position]                	"setposition
    000124  4a  4 00020 7101 20     77  	tra	<calcomp_915_>|[position]                	"setpoint
    000125  4a  4 00020 7101 20     78  	tra	<calcomp_915_>|[position]                	"vector
    000126  4a  4 00020 7101 20     79  	tra	<calcomp_915_>|[position]                	"shift
    000127  4a  4 00020 7101 20     80  	tra	<calcomp_915_>|[position]                	"point
    000130  4a  4 00022 7101 20     81  	tra	<calcomp_915_>|[set_maps]                	"scaling
    000131  4a  4 00022 7101 20     82  	tra	<calcomp_915_>|[set_maps]                	"rotation
    000132  4a  4 00010 7101 20     83  	tra	<graphic_dim_>|[no_entry]                	"clipping
    000133  4a  4 00024 7101 20     84  	tra	<calcomp_915_>|[set_modes]               	"intensity
    000134  4a  4 00024 7101 20     85  	tra	<calcomp_915_>|[set_modes]               	"line_type
    000135  4a  4 00010 7101 20     86  	tra	<graphic_dim_>|[no_entry]                	"blinking
    000136  4a  4 00010 7101 20     87  	tra	<graphic_dim_>|[no_entry]                	"sensitivity
    000137  4a  4 00024 7101 20     88  	tra	<calcomp_915_>|[set_modes]               	"color
    000140  4a  4 00010 7101 20     89  	tra	<graphic_dim_>|[no_entry]                	"symbol
    000141  4a  4 00026 7101 20     90  	tra	<calcomp_915_>|[text]                    	"text
    000142  4a  4 00010 7101 20     91  	tra	<graphic_dim_>|[no_entry]                	"data
    000143  4a  4 00010 7101 20     92  	tra	<graphic_dim_>|[no_entry]                	"input
    000144  4a  4 00030 7101 20     93  	tra	<calcomp_915_>|[enter_graphic_mode]      	"graphic_mode
    000145  4a  4 00032 7101 20     94  	tra	<calcomp_915_>|[exit_graphic_mode]       	"text_mode
    000146  4a  4 00034 7101 20     95  	tra	<calcomp_915_>|[expansion]               	"expansion
    000147  4a  4 00036 7101 20     96  	tra	<calcomp_915_>|[open]                    	"open
    000150  4a  4 00040 7101 20     97  	tra	<calcomp_915_>|[close]                   	"close
                                    98
                                    99  	end
ENTRY SEQUENCES

    000151  5a   000013 0000 00
    000152  aa  7 00046 2721 20
    000153  0a   000100 7100 00

NO LITERALS

NAME DEFINITIONS FOR ENTRY POINTS AND SEGDEFS

    000154  5a   000003 000000
    000155  5a   000036 600000
    000156  aa   000000 000000
    000157  55   000013 000002
    000160  5a   000002 400003
    000161  55   000006 000013
    000162  aa  021 103 141 154
    000163  aa  103 157 155 160
    000164  aa  137 071 061 065
    000165  aa  137 164 141 142
    000166  aa  154 145 000 000
    000167  55   000021 000003
    000170  0a   000152 500000
    000171  55   000016 000003
    000172  aa  010 147 144 164         gdt_proc
    000173  aa  137 160 162 157
    000174  aa  143 000 000 000
    000175  55   000027 000013
    000176  0a   000000 400000
    000177  55   000024 000003
    000200  aa  013 164 141 142         table_start
    000201  aa  154 145 137 163
    000202  aa  164 141 162 164
    000203  55   000002 000021
    000204  6a   000000 400002
    000205  55   000032 000003
    000206  aa  014 163 171 155         symbol_table
    000207  aa  142 157 154 137
    000210  aa  164 141 142 154
    000211  aa  145 000 000 000

DEFINITIONS HASH TABLE

    000212  aa   000000 000015
    000213  aa   000000 000000
    000214  aa   000000 000000
    000215  aa   000000 000000
    000216  aa   000000 000000
    000217  aa   000000 000000
    000220  5a   000013 000000
    000221  5a   000027 000000
    000222  aa   000000 000000
    000223  aa   000000 000000
    000224  5a   000021 000000
    000225  aa   000000 000000
    000226  aa   000000 000000
    000227  aa   000000 000000

EXTERNAL NAMES

    000230  aa  005 143 154 157         close
    000231  aa  163 145 000 000
    000232  aa  004 157 160 145         open
    000233  aa  156 000 000 000
    000234  aa  011 145 170 160         expansion
    000235  aa  141 156 163 151
    000236  aa  157 156 000 000
    000237  aa  021 145 170 151         exit_graphic_mode
    000240  aa  164 137 147 162
    000241  aa  141 160 150 151
    000242  aa  143 137 155 157
    000243  aa  144 145 000 000
    000244  aa  022 145 156 164         enter_graphic_mode
    000245  aa  145 162 137 147
    000246  aa  162 141 160 150
    000247  aa  151 143 137 155
    000250  aa  157 144 145 000
    000251  aa  004 164 145 170         text
    000252  aa  164 000 000 000
    000253  aa  011 163 145 164         set_modes
    000254  aa  137 155 157 144
    000255  aa  145 163 000 000
    000256  aa  010 163 145 164         set_maps
    000257  aa  137 155 141 160
    000260  aa  163 000 000 000
    000261  aa  010 160 157 163         position
    000262  aa  151 164 151 157
    000263  aa  156 000 000 000
    000264  aa  005 145 162 141         erase
    000265  aa  163 145 000 000
    000266  aa  010 156 157 144         node_out
    000267  aa  145 137 157 165
    000270  aa  164 000 000 000
    000271  aa  007 156 157 144         node_in
    000272  aa  145 137 151 156
    000273  aa  014 143 141 154         calcomp_915_
    000274  aa  143 157 155 160
    000275  aa  137 071 061 065
    000276  aa  137 000 000 000
    000277  aa  010 156 157 137         no_entry
    000300  aa  145 156 164 162
    000301  aa  171 000 000 000
    000302  aa  014 147 162 141         graphic_dim_
    000303  aa  160 150 151 143
    000304  aa  137 144 151 155
    000305  aa  137 000 000 000

NO TRAP POINTER WORDS

TYPE PAIR BLOCKS

    000306  aa   000004 000000
    000307  55   000117 000054
    000310  aa   000004 000000
    000311  55   000117 000056
    000312  aa   000004 000000
    000313  55   000117 000060
    000314  aa   000004 000000
    000315  55   000117 000063
    000316  aa   000004 000000
    000317  55   000117 000070
    000320  aa   000004 000000
    000321  55   000117 000075
    000322  aa   000004 000000
    000323  55   000117 000077
    000324  aa   000004 000000
    000325  55   000117 000102
    000326  aa   000004 000000
    000327  55   000117 000105
    000330  aa   000004 000000
    000331  55   000117 000110
    000332  aa   000004 000000
    000333  55   000117 000112
    000334  aa   000004 000000
    000335  55   000117 000115
    000336  aa   000004 000000
    000337  55   000126 000123
    000340  aa   000001 000000
    000341  aa   000000 000000

INTERNAL EXPRESSION WORDS

    000342  5a   000132 000000
    000343  5a   000134 000000
    000344  5a   000136 000000
    000345  5a   000140 000000
    000346  5a   000142 000000
    000347  5a   000144 000000
    000350  5a   000146 000000
    000351  5a   000150 000000
    000352  5a   000152 000000
    000353  5a   000154 000000
    000354  5a   000156 000000
    000355  5a   000160 000000
    000356  5a   000162 000000
    000357  aa   000000 000000
LINKAGE INFORMATION

    000000  aa   000000 000000
    000001  0a   000154 000000
    000002  aa   000000 000000
    000003  aa   000000 000000
    000004  aa   000000 000000
    000005  aa   000000 000000
    000006  22   000010 000042
    000007  a2   000000 000000
    000010  9a   777770 0000 46         graphic_dim_|no_entry
    000011  5a   000202 0000 00
    000012  9a   777766 0000 46         calcomp_915_|node_in
    000013  5a   000201 0000 00
    000014  9a   777764 0000 46         calcomp_915_|node_out
    000015  5a   000200 0000 00
    000016  9a   777762 0000 46         calcomp_915_|erase
    000017  5a   000177 0000 00
    000020  9a   777760 0000 46         calcomp_915_|position
    000021  5a   000176 0000 00
    000022  9a   777756 0000 46         calcomp_915_|set_maps
    000023  5a   000175 0000 00
    000024  9a   777754 0000 46         calcomp_915_|set_modes
    000025  5a   000174 0000 00
    000026  9a   777752 0000 46         calcomp_915_|text
    000027  5a   000173 0000 00
    000030  9a   777750 0000 46         calcomp_915_|enter_graphic_mode
    000031  5a   000172 0000 00
    000032  9a   777746 0000 46         calcomp_915_|exit_graphic_mode
    000033  5a   000171 0000 00
    000034  9a   777744 0000 46         calcomp_915_|expansion
    000035  5a   000170 0000 00
    000036  9a   777742 0000 46         calcomp_915_|open
    000037  5a   000167 0000 00
    000040  9a   777740 0000 46         calcomp_915_|close
    000041  5a   000166 0000 00
SYMBOL INFORMATION

SYMBOL TABLE HEADER

    000000  aa   000000 000001
    000001  aa   163171 155142
    000002  aa   164162 145145
    000003  aa   000000 000004
    000004  aa   000000 104543
    000005  aa   160620 150561
    000006  aa   000000 104725
    000007  aa   606152 603244
    000010  aa   141154 155040
    000011  aa   040040 040040
    000012  aa   000024 000040
    000013  aa   000034 000040
    000014  aa   000044 000100
    000015  aa   000002 000002
    000016  aa   000064 000000
    000017  aa   000000 000140
    000020  aa   000000 000105
    000021  aa   000000 000122
    000022  aa   000132 000105
    000023  aa   000064 000000
    000024  aa   101114 115040
    000025  aa   126145 162163
    000026  aa   151157 156040
    000027  aa   066056 061054
    000030  aa   040112 165156
    000031  aa   145040 061071
    000032  aa   067067 040040
    000033  aa   040040 040040
    000034  aa   115141 162164
    000035  aa   151156 163157
    000036  aa   156056 123171
    000037  aa   163115 141151
    000040  aa   156164 056141
    000041  aa   040040 040040
    000042  aa   040040 040040
    000043  aa   040040 040040
    000044  aa   154151 163164
    000045  aa   040040 040040
    000046  aa   040040 040040
    000047  aa   040040 040040
    000050  aa   040040 040040
    000051  aa   040040 040040
    000052  aa   040040 040040
    000053  aa   040040 040040
    000054  aa   040040 040040
    000055  aa   040040 040040
    000056  aa   040040 040040
    000057  aa   040040 040040
    000060  aa   040040 040040
    000061  aa   040040 040040
    000062  aa   040040 040040
    000063  aa   040040 040040
    000064  aa   000000 000001
    000065  aa   000000 000001
    000066  aa   000072 000051
    000067  aa   047250 057765
    000070  aa   000000 104725
    000071  aa   606150 600000
    000072  aa   076163 160145          >spec>online>graphics>fix>calcomp_915.alm
    000073  aa   143076 157156
    000074  aa   154151 156145
    000075  aa   076147 162141
    000076  aa   160150 151143
    000077  aa   163076 146151
    000100  aa   170076 143141
    000101  aa   154143 157155
    000102  aa   160137 071061
    000103  aa   065056 141154
    000104  aa   155040 040040
               MULTICS ASSEMBLY CROSS REFERENCE LISTING

   Value        Symbol                   Source file   Line number

          16    .pad                     calcomp_915:   12.
                calcomp_915_             calcomp_915:   68,   69,   73,   76,   77,   78,   79,   80,   81,   82,   84,   85,
                                                        88,   90,   93,   94,   95,   96,   97.
                close                    calcomp_915:   97.
                enter_graphic_mode       calcomp_915:   93.
                erase                    calcomp_915:   73.
                exit_graphic_mode        calcomp_915:   94.
                expansion                calcomp_915:   95.
         100    gdt_proc                 calcomp_915:   53,   55.
                graphic_dim_             calcomp_915:   60,   61,   62,   63,   64,   65,   66,   67,   70,   71,   72,   74,
                                                        75,   83,   86,   87,   89,   91,   92.
                node_in                  calcomp_915:   68.
                node_out                 calcomp_915:   69.
                no_entry                 calcomp_915:   60,   61,   62,   63,   64,   65,   66,   67,   70,   71,   72,   74,
                                                        75,   83,   86,   87,   89,   91,   92.
                open                     calcomp_915:   96.
                position                 calcomp_915:   76,   77,   78,   79,   80.
                set_maps                 calcomp_915:   81,   82.
                set_modes                calcomp_915:   84,   85,   88.
           0    table_start              calcomp_915:    4,    6.
                text                     calcomp_915:   90.


NO FATAL ERRORS


                                          -----------------------------------------------------------


Historical Background

This edition of the Multics software materials and documentation is provided and donated
to Massachusetts Institute of Technology by Group BULL including BULL HN Information Systems Inc.
as a contribution to computer science knowledge.
This donation is made also to give evidence of the common contributions of Massachusetts Institute of Technology,
Bell Laboratories, General Electric, Honeywell Information Systems Inc., Honeywell BULL Inc., Groupe BULL
and BULL HN Information Systems Inc. to the development of this operating system.
Multics development was initiated by Massachusetts Institute of Technology Project MAC (1963-1970),
renamed the MIT Laboratory for Computer Science and Artificial Intelligence in the mid 1970s, under the leadership
of Professor Fernando Jose Corbato. Users consider that Multics provided the best software architecture
for managing computer hardware properly and for executing programs. Many subsequent operating systems
incorporated Multics principles.
Multics was distributed in 1975 to 2000 by Group Bull in Europe , and in the U.S. by Bull HN Information Systems Inc.,
as successor in interest by change in name only to Honeywell Bull Inc. and Honeywell Information Systems Inc. .

                                          -----------------------------------------------------------

Permission to use, copy, modify, and distribute these programs and their documentation for any purpose and without
fee is hereby granted,provided that the below copyright notice and historical background appear in all copies
and that both the copyright notice and historical background and this permission notice appear in supporting
documentation, and that the names of MIT, HIS, BULL or BULL HN not be used in advertising or publicity pertaining
to distribution of the programs without specific prior written permission.
    Copyright 1972 by Massachusetts Institute of Technology and Honeywell Information Systems Inc.
    Copyright 2006 by BULL HN Information Systems Inc.
    Copyright 2006 by Bull SAS
    All Rights Reserved
