ASSEMBLY LISTING OF SEGMENT >spec>on>11/11/82>cmcs_error_table_.alm
ASSEMBLED ON:	11/11/82  1045.0 mst Thu
OPTIONS USED:	list
ASSEMBLED BY:	ALM Version  6.4  April 1981
ASSEMBLER CREATED:	11/03/82  1423.6 mst Wed

                                     1  "  ***********************************************************
                                     2  "  *                                                         *
                                     3  "  *                                                         *
                                     4  "  * Copyright, (C) Honeywell Information Systems Inc., 1981 *
                                     5  "  *                                                         *
                                     6  "  *                                                         *
                                     7  "  ***********************************************************
                                     8
                                     9
                                    10  "  Modified since Version 4.3
                                    11
    000000                          12  	name	cmcs_error_table_
                                    13  	use	codes
    000010                          14  .code_start:	null
                                    15  	use	past_codes
    000040                          16  .code_end:	null
                                    17  	use	codes
                        000010      18  	segdef	ambiguous_tree_path
    000010  a0   000000 000002      19  ambiguous_tree_path:	vfd	18/.sys_sw,18/.ambiguous_tree_path
                                    20  	use	messages
    000000  aa  141 155 142 151     21  	aci	,ambig_tp,
    000001  aa  147 137 164 160
    000002  aa  104 111 156 163     22  .ambiguous_tree_path:	acc	;Insufficient qualification. Subordinate receives already in process.;
    000003  aa  165 146 146 151
    000004  aa  143 151 145 156
    000005  aa  164 040 161 165
    000006  aa  141 154 151 146
    000007  aa  151 143 141 164
    000010  aa  151 157 156 056
    000011  aa  040 123 165 142
    000012  aa  157 162 144 151
    000013  aa  156 141 164 145
    000014  aa  040 162 145 143
    000015  aa  145 151 166 145
    000016  aa  163 040 141 154
    000017  aa  162 145 141 144
    000020  aa  171 040 151 156
    000021  aa  040 160 162 157
    000022  aa  143 145 163 163
    000023  aa  056 000 000 000
                                    23  	use	codes
                        000011      24  	segdef	bad_call_parm
    000011  a0   000000 000026      25  bad_call_parm:	vfd	18/.sys_sw,18/.bad_call_parm
                                    26  	use	messages
    000024  aa  142 141 144 137     27  	aci	,bad_call,
    000025  aa  143 141 154 154
    000026  aa  112 101 156 040     28  .bad_call_parm:	acc	;An invalid parameter was passed to the COBOL MCS runtime support facility.;
    000027  aa  151 156 166 141
    000030  aa  154 151 144 040
    000031  aa  160 141 162 141
    000032  aa  155 145 164 145
    000033  aa  162 040 167 141
    000034  aa  163 040 160 141
    000035  aa  163 163 145 144
    000036  aa  040 164 157 040
    000037  aa  164 150 145 040
    000040  aa  103 117 102 117
    000041  aa  114 040 115 103
    000042  aa  123 040 162 165
    000043  aa  156 164 151 155
    000044  aa  145 040 163 165
    000045  aa  160 160 157 162
    000046  aa  164 040 146 141
    000047  aa  143 151 154 151
    000050  aa  164 171 056 000
                                    29  	use	codes
                        000012      30  	segdef	bad_dest
    000012  a0   000000 000053      31  bad_dest:	vfd	18/.sys_sw,18/.bad_dest
                                    32  	use	messages
    000051  aa  142 141 144 137     33  	aci	,bad_dest,
    000052  aa  144 145 163 164
    000053  aa  055 101 040 163     34  .bad_dest:	acc	;A specified message destination is undefined.;
    000054  aa  160 145 143 151
    000055  aa  146 151 145 144
    000056  aa  040 155 145 163
    000057  aa  163 141 147 145
    000060  aa  040 144 145 163
    000061  aa  164 151 156 141
    000062  aa  164 151 157 156
    000063  aa  040 151 163 040
    000064  aa  165 156 144 145
    000065  aa  146 151 156 145
    000066  aa  144 056 000 000
                                    35  	use	codes
                        000013      36  	segdef	bad_dest_count
    000013  a0   000000 000071      37  bad_dest_count:	vfd	18/.sys_sw,18/.bad_dest_count
                                    38  	use	messages
    000067  aa  142 141 144 137     39  	aci	,bad_dc  ,
    000070  aa  144 143 040 040
    000071  aa  075 123 160 145     40  .bad_dest_count:	acc	;Specified message destination count is outside defined range.;
    000072  aa  143 151 146 151
    000073  aa  145 144 040 155
    000074  aa  145 163 163 141
    000075  aa  147 145 040 144
    000076  aa  145 163 164 151
    000077  aa  156 141 164 151
    000100  aa  157 156 040 143
    000101  aa  157 165 156 164
    000102  aa  040 151 163 040
    000103  aa  157 165 164 163
    000104  aa  151 144 145 040
    000105  aa  144 145 146 151
    000106  aa  156 145 144 040
    000107  aa  162 141 156 147
    000110  aa  145 056 000 000
                                    41  	use	codes
                        000014      42  	segdef	bad_message_length
    000014  a0   000000 000113      43  bad_message_length:	vfd	18/.sys_sw,18/.bad_message_length
                                    44  	use	messages
    000111  aa  142 141 144 137     45  	aci	,bad_msgl,
    000112  aa  155 163 147 154
    000113  aa  062 123 160 145     46  .bad_message_length:	acc	;Specified length of message to be sent is invalid.;
    000114  aa  143 151 146 151
    000115  aa  145 144 040 154
    000116  aa  145 156 147 164
    000117  aa  150 040 157 146
    000120  aa  040 155 145 163
    000121  aa  163 141 147 145
    000122  aa  040 164 157 040
    000123  aa  142 145 040 163
    000124  aa  145 156 164 040
    000125  aa  151 163 040 151
    000126  aa  156 166 141 154
    000127  aa  151 144 056 000
                                    47  	use	codes
                        000015      48  	segdef	bad_password
    000015  a0   000000 000132      49  bad_password:	vfd	18/.sys_sw,18/.bad_password
                                    50  	use	messages
    000130  aa  142 141 144 137     51  	aci	,bad_psw ,
    000131  aa  160 163 167 040
    000132  aa  115 101 164 164     52  .bad_password:	acc	;Attempt to perform an enable or disable function using an incorrect password.;
    000133  aa  145 155 160 164
    000134  aa  040 164 157 040
    000135  aa  160 145 162 146
    000136  aa  157 162 155 040
    000137  aa  141 156 040 145
    000140  aa  156 141 142 154
    000141  aa  145 040 157 162
    000142  aa  040 144 151 163
    000143  aa  141 142 154 145
    000144  aa  040 146 165 156
    000145  aa  143 164 151 157
    000146  aa  156 040 165 163
    000147  aa  151 156 147 040
    000150  aa  141 156 040 151
    000151  aa  156 143 157 162
    000152  aa  162 145 143 164
    000153  aa  040 160 141 163
    000154  aa  163 167 157 162
    000155  aa  144 056 000 000
                                    53  	use	codes
                        000016      54  	segdef	bad_queue_path
    000016  a0   000000 000160      55  bad_queue_path:	vfd	18/.sys_sw,18/.bad_queue_path
                                    56  	use	messages
    000156  aa  142 141 144 137     57  	aci	,bad_qp  ,
    000157  aa  161 160 040 040
    000160  aa  113 124 150 145     58  .bad_queue_path:	acc	;The specified symbolic message queue is not in the current queue hierarchy.;
    000161  aa  040 163 160 145
    000162  aa  143 151 146 151
    000163  aa  145 144 040 163
    000164  aa  171 155 142 157
    000165  aa  154 151 143 040
    000166  aa  155 145 163 163
    000167  aa  141 147 145 040
    000170  aa  161 165 145 165
    000171  aa  145 040 151 163
    000172  aa  040 156 157 164
    000173  aa  040 151 156 040
    000174  aa  164 150 145 040
    000175  aa  143 165 162 162
    000176  aa  145 156 164 040
    000177  aa  161 165 145 165
    000200  aa  145 040 150 151
    000201  aa  145 162 141 162
    000202  aa  143 150 171 056
                                    59  	use	codes
                        000017      60  	segdef	bad_slew
    000017  a0   000000 000205      61  bad_slew:	vfd	18/.sys_sw,18/.bad_slew
                                    62  	use	messages
    000203  aa  142 141 144 137     63  	aci	,bad_slew,
    000204  aa  163 154 145 167
    000205  aa  043 124 150 145     64  .bad_slew:	acc	;The CMCS slew control is incorrect.;
    000206  aa  040 103 115 103
    000207  aa  123 040 163 154
    000210  aa  145 167 040 143
    000211  aa  157 156 164 162
    000212  aa  157 154 040 151
    000213  aa  163 040 151 156
    000214  aa  143 157 162 162
    000215  aa  145 143 164 056
                                    65  	use	codes
                        000020      66  	segdef	bad_source
    000020  a0   000000 000220      67  bad_source:	vfd	18/.sys_sw,18/.bad_source
                                    68  	use	messages
    000216  aa  142 141 144 137     69  	aci	,bad_src ,
    000217  aa  163 162 143 040
    000220  aa  063 124 150 145     70  .bad_source:	acc	;The specified symbolic message source is undefined.;
    000221  aa  040 163 160 145
    000222  aa  143 151 146 151
    000223  aa  145 144 040 163
    000224  aa  171 155 142 157
    000225  aa  154 151 143 040
    000226  aa  155 145 163 163
    000227  aa  141 147 145 040
    000230  aa  163 157 165 162
    000231  aa  143 145 040 151
    000232  aa  163 040 165 156
    000233  aa  144 145 146 151
    000234  aa  156 145 144 056
                                    71  	use	codes
                        000021      72  	segdef	bad_station
    000021  a0   000000 000237      73  bad_station:	vfd	18/.sys_sw,18/.bad_station
                                    74  	use	messages
    000235  aa  142 141 144 137     75  	aci	,bad_sta ,
    000236  aa  163 164 141 040
    000237  aa  062 124 150 145     76  .bad_station:	acc	;The specified station is not defined for CMCS use.;
    000240  aa  040 163 160 145
    000241  aa  143 151 146 151
    000242  aa  145 144 040 163
    000243  aa  164 141 164 151
    000244  aa  157 156 040 151
    000245  aa  163 040 156 157
    000246  aa  164 040 144 145
    000247  aa  146 151 156 145
    000250  aa  144 040 146 157
    000251  aa  162 040 103 115
    000252  aa  103 123 040 165
    000253  aa  163 145 056 000
                                    77  	use	codes
                        000022      78  	segdef	bad_term_devchn
    000022  a0   000000 000256      79  bad_term_devchn:	vfd	18/.sys_sw,18/.bad_term_devchn
                                    80  	use	messages
    000254  aa  142 141 144 137     81  	aci	,bad_term,
    000255  aa  164 145 162 155
    000256  aa  102 124 150 145     82  .bad_term_devchn:	acc	;The specified terminal device_channel is not defined for CMCS use.;
    000257  aa  040 163 160 145
    000260  aa  143 151 146 151
    000261  aa  145 144 040 164
    000262  aa  145 162 155 151
    000263  aa  156 141 154 040
    000264  aa  144 145 166 151
    000265  aa  143 145 137 143
    000266  aa  150 141 156 156
    000267  aa  145 154 040 151
    000270  aa  163 040 156 157
    000271  aa  164 040 144 145
    000272  aa  146 151 156 145
    000273  aa  144 040 146 157
    000274  aa  162 040 103 115
    000275  aa  103 123 040 165
    000276  aa  163 145 056 000
                                    83  	use	codes
                        000023      84  	segdef	bad_tree_path
    000023  a0   000000 000301      85  bad_tree_path:	vfd	18/.sys_sw,18/.bad_tree_path
                                    86  	use	messages
    000277  aa  142 141 144 137     87  	aci	,bad_tree,
    000300  aa  164 162 145 145
    000301  aa  113 124 150 145     88  .bad_tree_path:	acc	;The specified symbolic message queue is not in the current queue hierarchy.;
    000302  aa  040 163 160 145
    000303  aa  143 151 146 151
    000304  aa  145 144 040 163
    000305  aa  171 155 142 157
    000306  aa  154 151 143 040
    000307  aa  155 145 163 163
    000310  aa  141 147 145 040
    000311  aa  161 165 145 165
    000312  aa  145 040 151 163
    000313  aa  040 156 157 164
    000314  aa  040 151 156 040
    000315  aa  164 150 145 040
    000316  aa  143 165 162 162
    000317  aa  145 156 164 040
    000320  aa  161 165 145 165
    000321  aa  145 040 150 151
    000322  aa  145 162 141 162
    000323  aa  143 150 171 056
                                    89  	use	codes
                        000024      90  	segdef	dest_already_disabled
    000024  a0   000000 000326      91  dest_already_disabled:	vfd	18/.sys_sw,18/.dest_already_disabled
                                    92  	use	messages
    000324  aa  144 145 163 164     93  	aci	,dest_ad ,
    000325  aa  137 141 144 040
    000326  aa  064 101 040 163     94  .dest_already_disabled:	acc	;A specified message destination is already disabled.;
    000327  aa  160 145 143 151
    000330  aa  146 151 145 144
    000331  aa  040 155 145 163
    000332  aa  163 141 147 145
    000333  aa  040 144 145 163
    000334  aa  164 151 156 141
    000335  aa  164 151 157 156
    000336  aa  040 151 163 040
    000337  aa  141 154 162 145
    000340  aa  141 144 171 040
    000341  aa  144 151 163 141
    000342  aa  142 154 145 144
    000343  aa  056 000 000 000
                                    95  	use	codes
                        000025      96  	segdef	dest_already_enabled
    000025  a0   000000 000346      97  dest_already_enabled:	vfd	18/.sys_sw,18/.dest_already_enabled
                                    98  	use	messages
    000344  aa  144 145 163 164     99  	aci	,dest_ae ,
    000345  aa  137 141 145 040
    000346  aa  063 101 040 163    100  .dest_already_enabled:	acc	;A specified message destination is already enabled.;
    000347  aa  160 145 143 151
    000350  aa  146 151 145 144
    000351  aa  040 155 145 163
    000352  aa  163 141 147 145
    000353  aa  040 144 145 163
    000354  aa  164 151 156 141
    000355  aa  164 151 157 156
    000356  aa  040 151 163 040
    000357  aa  141 154 162 145
    000360  aa  141 144 171 040
    000361  aa  145 156 141 142
    000362  aa  154 145 144 056
                                   101  	use	codes
                        000026     102  	segdef	dest_disabled
    000026  a0   000000 000365     103  dest_disabled:	vfd	18/.sys_sw,18/.dest_disabled
                                   104  	use	messages
    000363  aa  144 145 163 164    105  	aci	,dest_d  ,
    000364  aa  137 144 040 040
    000365  aa  066 101 040 163    106  .dest_disabled:	acc	;A specified message destination is currently disabled.;
    000366  aa  160 145 143 151
    000367  aa  146 151 145 144
    000370  aa  040 155 145 163
    000371  aa  163 141 147 145
    000372  aa  040 144 145 163
    000373  aa  164 151 156 141
    000374  aa  164 151 157 156
    000375  aa  040 151 163 040
    000376  aa  143 165 162 162
    000377  aa  145 156 164 154
    000400  aa  171 040 144 151
    000401  aa  163 141 142 154
    000402  aa  145 144 056 000
                                   107  	use	codes
                        000027     108  	segdef	no_message
    000027  a0   000000 000405     109  no_message:	vfd	18/.sys_sw,18/.no_message
                                   110  	use	messages
    000403  aa  156 157 137 155    111  	aci	,no_msg  ,
    000404  aa  163 147 040 040
    000405  aa  063 116 157 040    112  .no_message:	acc	;No message exists in the specified queue hierarchy.;
    000406  aa  155 145 163 163
    000407  aa  141 147 145 040
    000410  aa  145 170 151 163
    000411  aa  164 163 040 151
    000412  aa  156 040 164 150
    000413  aa  145 040 163 160
    000414  aa  145 143 151 146
    000415  aa  151 145 144 040
    000416  aa  161 165 145 165
    000417  aa  145 040 150 151
    000420  aa  145 162 141 162
    000421  aa  143 150 171 056
                                   113  	use	codes
                        000030     114  	segdef	no_partial_messages
    000030  a0   000000 000424     115  no_partial_messages:	vfd	18/.sys_sw,18/.no_partial_messages
                                   116  	use	messages
    000422  aa  156 157 137 160    117  	aci	,no_pmsg ,
    000423  aa  155 163 147 040
    000424  aa  101 101 040 155    118  .no_partial_messages:	acc	;A message queue contains no partial messages which can be purged.;
    000425  aa  145 163 163 141
    000426  aa  147 145 040 161
    000427  aa  165 145 165 145
    000430  aa  040 143 157 156
    000431  aa  164 141 151 156
    000432  aa  163 040 156 157
    000433  aa  040 160 141 162
    000434  aa  164 151 141 154
    000435  aa  040 155 145 163
    000436  aa  163 141 147 145
    000437  aa  163 040 167 150
    000440  aa  151 143 150 040
    000441  aa  143 141 156 040
    000442  aa  142 145 040 160
    000443  aa  165 162 147 145
    000444  aa  144 056 000 000
                                   119  	use	codes
                        000031     120  	segdef	null_partial_message
    000031  a0   000000 000447     121  null_partial_message:	vfd	18/.sys_sw,18/.null_partial_message
                                   122  	use	messages
    000445  aa  156 165 154 137    123  	aci	,nul_pmsg,
    000446  aa  160 155 163 147
    000447  aa  047 101 164 164    124  .null_partial_message:	acc	;Attempt to send a null partial message.;
    000450  aa  145 155 160 164
    000451  aa  040 164 157 040
    000452  aa  163 145 156 144
    000453  aa  040 141 040 156
    000454  aa  165 154 154 040
    000455  aa  160 141 162 164
    000456  aa  151 141 154 040
    000457  aa  155 145 163 163
    000460  aa  141 147 145 056
                                   125  	use	codes
                        000032     126  	segdef	queue_already_disabled
    000032  a0   000000 000463     127  queue_already_disabled:	vfd	18/.sys_sw,18/.queue_already_disabled
                                   128  	use	messages
    000461  aa  161 137 141 144    129  	aci	,q_ad    ,
    000462  aa  040 040 040 040
    000463  aa  056 101 040 163    130  .queue_already_disabled:	acc	;A specified message queue is already disabled.;
    000464  aa  160 145 143 151
    000465  aa  146 151 145 144
    000466  aa  040 155 145 163
    000467  aa  163 141 147 145
    000470  aa  040 161 165 145
    000471  aa  165 145 040 151
    000472  aa  163 040 141 154
    000473  aa  162 145 141 144
    000474  aa  171 040 144 151
    000475  aa  163 141 142 154
    000476  aa  145 144 056 000
                                   131  	use	codes
                        000033     132  	segdef	queue_already_enabled
    000033  a0   000000 000501     133  queue_already_enabled:	vfd	18/.sys_sw,18/.queue_already_enabled
                                   134  	use	messages
    000477  aa  161 137 141 145    135  	aci	,q_ae    ,
    000500  aa  040 040 040 040
    000501  aa  055 101 040 163    136  .queue_already_enabled:	acc	;A specified message queue is already enabled.;
    000502  aa  160 145 143 151
    000503  aa  146 151 145 144
    000504  aa  040 155 145 163
    000505  aa  163 141 147 145
    000506  aa  040 161 165 145
    000507  aa  165 145 040 151
    000510  aa  163 040 141 154
    000511  aa  162 145 141 144
    000512  aa  171 040 145 156
    000513  aa  141 142 154 145
    000514  aa  144 056 000 000
                                   137  	use	codes
                        000034     138  	segdef	queue_disabled
    000034  a0   000000 000517     139  queue_disabled:	vfd	18/.sys_sw,18/.queue_disabled
                                   140  	use	messages
    000515  aa  161 137 144 040    141  	aci	,q_d     ,
    000516  aa  040 040 040 040
    000517  aa  060 101 040 163    142  .queue_disabled:	acc	;A specified message queue is currently disabled.;
    000520  aa  160 145 143 151
    000521  aa  146 151 145 144
    000522  aa  040 155 145 163
    000523  aa  163 141 147 145
    000524  aa  040 161 165 145
    000525  aa  165 145 040 151
    000526  aa  163 040 143 165
    000527  aa  162 162 145 156
    000530  aa  164 154 171 040
    000531  aa  144 151 163 141
    000532  aa  142 154 145 144
    000533  aa  056 000 000 000
                                   143  	use	codes
                        000035     144  	segdef	source_already_disabled
    000035  a0   000000 000536     145  source_already_disabled:	vfd	18/.sys_sw,18/.source_already_disabled
                                   146  	use	messages
    000534  aa  163 162 143 137    147  	aci	,src_ad  ,
    000535  aa  141 144 040 040
    000536  aa  057 101 040 163    148  .source_already_disabled:	acc	;A specified message source is already disabled.;
    000537  aa  160 145 143 151
    000540  aa  146 151 145 144
    000541  aa  040 155 145 163
    000542  aa  163 141 147 145
    000543  aa  040 163 157 165
    000544  aa  162 143 145 040
    000545  aa  151 163 040 141
    000546  aa  154 162 145 141
    000547  aa  144 171 040 144
    000550  aa  151 163 141 142
    000551  aa  154 145 144 056
                                   149  	use	codes
                        000036     150  	segdef	source_already_enabled
    000036  a0   000000 000554     151  source_already_enabled:	vfd	18/.sys_sw,18/.source_already_enabled
                                   152  	use	messages
    000552  aa  163 162 143 137    153  	aci	,src_ae  ,
    000553  aa  141 145 040 040
    000554  aa  056 101 040 163    154  .source_already_enabled:	acc	;A specified message source is already enabled.;
    000555  aa  160 145 143 151
    000556  aa  146 151 145 144
    000557  aa  040 155 145 163
    000560  aa  163 141 147 145
    000561  aa  040 163 157 165
    000562  aa  162 143 145 040
    000563  aa  151 163 040 141
    000564  aa  154 162 145 141
    000565  aa  144 171 040 145
    000566  aa  156 141 142 154
    000567  aa  145 144 056 000
                                   155  	use	codes
                        000037     156  	segdef	source_disabled
    000037  a0   000000 000572     157  source_disabled:	vfd	18/.sys_sw,18/.source_disabled
                                   158  	use	messages
    000570  aa  163 162 143 137    159  	aci	,src_d   ,
    000571  aa  144 040 040 040
    000572  aa  061 101 040 163    160  .source_disabled:	acc	;A specified message source is currently disabled.;
    000573  aa  160 145 143 151
    000574  aa  146 151 145 144
    000575  aa  040 155 145 163
    000576  aa  163 141 147 145
    000577  aa  040 163 157 165
    000600  aa  162 143 145 040
    000601  aa  151 163 040 143
    000602  aa  165 162 162 145
    000603  aa  156 164 154 171
    000604  aa  040 144 151 163
    000605  aa  141 142 154 145
    000606  aa  144 056 000 000
                        000000     161  	bool	.sys_sw,0
                                   162  "
                                   163  	use	messages
                                   164  	tempd	.tp
    000607  aa   000060 6270 00    165  .trapproc: save
    000610  aa  7 00040 2721 20
    000611  aa   000000 3520 04    166  	eppbp	0,ic
    000612  aa  6 00050 2521 00    167  	spribp	.tp
    000613  aa  6 00050 2351 00    168  	lda	.tp
    000614  aa   077777 3750 03    169  	ana	=o77777,du
    000615  aa  6 00000 3731 00    170  	epbpsb	sp|0
    000616  aa  7 00026 2351 61    171  	lda	sb|22,*au
    000617  aa   000000 3310 01    172  	easplp	0,au
    000620  aa   000000 3300 05    173  	eawplp	0,al
    000621  aa  6 00050 2201 00    174  	ldx0	.tp
    000622  8a   000010 6210 00    175  	eax1	.code_start
    000623  aa  4 00000 7401 11    176  .loop:	stx0	lp|0,x1
    000624  aa   000001 6210 11    177  	eax1	1,x1
    000625  8a   000040 1010 03    178  	cmpx1	.code_end,du
    000626  aa   777775 6040 04    179  	tmi	.loop-*,ic
    000627  aa  7 00042 7101 20    180  	return
                                   181
    000630                         182  	firstref	<*text>|.trapproc
                                   183  	join	/text/messages
                                   184  	join	/link/codes,past_codes
                                   185  	end

NO LITERALS

NAME DEFINITIONS FOR ENTRY POINTS AND SEGDEFS

    000630  5a   000003 000000
    000631  5a   000306 600000
    000632  aa   000000 000000
    000633  55   000013 000002
    000634  5a   000002 400003
    000635  55   000006 000013
    000636  aa  021 143 155 143
    000637  aa  163 137 145 162
    000640  aa  162 157 162 137
    000641  aa  164 141 142 154
    000642  aa  145 137 000 000
    000643  55   000022 000003
    000644  2a   000037 400001
    000645  55   000016 000003
    000646  aa  017 163 157 165         source_disabled
    000647  aa  162 143 145 137
    000650  aa  144 151 163 141
    000651  aa  142 154 145 144
    000652  55   000033 000013
    000653  2a   000036 400001
    000654  55   000025 000003
    000655  aa  026 163 157 165         source_already_enabled
    000656  aa  162 143 145 137
    000657  aa  141 154 162 145
    000660  aa  141 144 171 137
    000661  aa  145 156 141 142
    000662  aa  154 145 144 000
    000663  55   000044 000022
    000664  2a   000035 400001
    000665  55   000036 000003
    000666  aa  027 163 157 165         source_already_disabled
    000667  aa  162 143 145 137
    000670  aa  141 154 162 145
    000671  aa  141 144 171 137
    000672  aa  144 151 163 141
    000673  aa  142 154 145 144
    000674  55   000053 000033
    000675  2a   000034 400001
    000676  55   000047 000003
    000677  aa  016 161 165 145         queue_disabled
    000700  aa  165 145 137 144
    000701  aa  151 163 141 142
    000702  aa  154 145 144 000
    000703  55   000064 000044
    000704  2a   000033 400001
    000705  55   000056 000003
    000706  aa  025 161 165 145         queue_already_enabled
    000707  aa  165 145 137 141
    000710  aa  154 162 145 141
    000711  aa  144 171 137 145
    000712  aa  156 141 142 154
    000713  aa  145 144 000 000
    000714  55   000075 000053
    000715  2a   000032 400001
    000716  55   000067 000003
    000717  aa  026 161 165 145         queue_already_disabled
    000720  aa  165 145 137 141
    000721  aa  154 162 145 141
    000722  aa  144 171 137 144
    000723  aa  151 163 141 142
    000724  aa  154 145 144 000
    000725  55   000106 000064
    000726  2a   000031 400001
    000727  55   000100 000003
    000730  aa  024 156 165 154         null_partial_message
    000731  aa  154 137 160 141
    000732  aa  162 164 151 141
    000733  aa  154 137 155 145
    000734  aa  163 163 141 147
    000735  aa  145 000 000 000
    000736  55   000116 000075
    000737  2a   000030 400001
    000740  55   000111 000003
    000741  aa  023 156 157 137         no_partial_messages
    000742  aa  160 141 162 164
    000743  aa  151 141 154 137
    000744  aa  155 145 163 163
    000745  aa  141 147 145 163
    000746  55   000124 000106
    000747  2a   000027 400001
    000750  55   000121 000003
    000751  aa  012 156 157 137         no_message
    000752  aa  155 145 163 163
    000753  aa  141 147 145 000
    000754  55   000133 000116
    000755  2a   000026 400001
    000756  55   000127 000003
    000757  aa  015 144 145 163         dest_disabled
    000760  aa  164 137 144 151
    000761  aa  163 141 142 154
    000762  aa  145 144 000 000
    000763  55   000144 000124
    000764  2a   000025 400001
    000765  55   000136 000003
    000766  aa  024 144 145 163         dest_already_enabled
    000767  aa  164 137 141 154
    000770  aa  162 145 141 144
    000771  aa  171 137 145 156
    000772  aa  141 142 154 145
    000773  aa  144 000 000 000
    000774  55   000155 000133
    000775  2a   000024 400001
    000776  55   000147 000003
    000777  aa  025 144 145 163         dest_already_disabled
    001000  aa  164 137 141 154
    001001  aa  162 145 141 144
    001002  aa  171 137 144 151
    001003  aa  163 141 142 154
    001004  aa  145 144 000 000
    001005  55   000164 000144
    001006  2a   000023 400001
    001007  55   000160 000003
    001010  aa  015 142 141 144         bad_tree_path
    001011  aa  137 164 162 145
    001012  aa  145 137 160 141
    001013  aa  164 150 000 000
    001014  55   000173 000155
    001015  2a   000022 400001
    001016  55   000167 000003
    001017  aa  017 142 141 144         bad_term_devchn
    001020  aa  137 164 145 162
    001021  aa  155 137 144 145
    001022  aa  166 143 150 156
    001023  55   000201 000164
    001024  2a   000021 400001
    001025  55   000176 000003
    001026  aa  013 142 141 144         bad_station
    001027  aa  137 163 164 141
    001030  aa  164 151 157 156
    001031  55   000207 000173
    001032  2a   000020 400001
    001033  55   000204 000003
    001034  aa  012 142 141 144         bad_source
    001035  aa  137 163 157 165
    001036  aa  162 143 145 000
    001037  55   000215 000201
    001040  2a   000017 400001
    001041  55   000212 000003
    001042  aa  010 142 141 144         bad_slew
    001043  aa  137 163 154 145
    001044  aa  167 000 000 000
    001045  55   000224 000207
    001046  2a   000016 400001
    001047  55   000220 000003
    001050  aa  016 142 141 144         bad_queue_path
    001051  aa  137 161 165 145
    001052  aa  165 145 137 160
    001053  aa  141 164 150 000
    001054  55   000233 000215
    001055  2a   000015 400001
    001056  55   000227 000003
    001057  aa  014 142 141 144         bad_password
    001060  aa  137 160 141 163
    001061  aa  163 167 157 162
    001062  aa  144 000 000 000
    001063  55   000243 000224
    001064  2a   000014 400001
    001065  55   000236 000003
    001066  aa  022 142 141 144         bad_message_length
    001067  aa  137 155 145 163
    001070  aa  163 141 147 145
    001071  aa  137 154 145 156
    001072  aa  147 164 150 000
    001073  55   000252 000233
    001074  2a   000013 400001
    001075  55   000246 000003
    001076  aa  016 142 141 144         bad_dest_count
    001077  aa  137 144 145 163
    001100  aa  164 137 143 157
    001101  aa  165 156 164 000
    001102  55   000260 000243
    001103  2a   000012 400001
    001104  55   000255 000003
    001105  aa  010 142 141 144         bad_dest
    001106  aa  137 144 145 163
    001107  aa  164 000 000 000
    001110  55   000267 000252
    001111  2a   000011 400001
    001112  55   000263 000003
    001113  aa  015 142 141 144         bad_call_parm
    001114  aa  137 143 141 154
    001115  aa  154 137 160 141
    001116  aa  162 155 000 000
    001117  55   000277 000260
    001120  2a   000010 400001
    001121  55   000272 000003
    001122  aa  023 141 155 142         ambiguous_tree_path
    001123  aa  151 147 165 157
    001124  aa  165 163 137 164
    001125  aa  162 145 145 137
    001126  aa  160 141 164 150
    001127  55   000002 000267
    001130  6a   000000 400002
    001131  55   000302 000003
    001132  aa  014 163 171 155         symbol_table
    001133  aa  142 157 154 137
    001134  aa  164 141 142 154
    001135  aa  145 000 000 000

DEFINITIONS HASH TABLE

    001136  aa   000000 000065
    001137  5a   000075 000000
    001140  aa   000000 000000
    001141  aa   000000 000000
    001142  aa   000000 000000
    001143  aa   000000 000000
    001144  5a   000267 000000
    001145  aa   000000 000000
    001146  5a   000064 000000
    001147  aa   000000 000000
    001150  5a   000053 000000
    001151  5a   000116 000000
    001152  aa   000000 000000
    001153  aa   000000 000000
    001154  aa   000000 000000
    001155  aa   000000 000000
    001156  aa   000000 000000
    001157  aa   000000 000000
    001160  aa   000000 000000
    001161  aa   000000 000000
    001162  5a   000233 000000
    001163  aa   000000 000000
    001164  5a   000144 000000
    001165  aa   000000 000000
    001166  5a   000044 000000
    001167  5a   000133 000000
    001170  5a   000164 000000
    001171  aa   000000 000000
    001172  5a   000215 000000
    001173  5a   000243 000000
    001174  5a   000155 000000
    001175  5a   000260 000000
    001176  5a   000224 000000
    001177  5a   000277 000000
    001200  5a   000173 000000
    001201  aa   000000 000000
    001202  5a   000033 000000
    001203  5a   000201 000000
    001204  5a   000022 000000
    001205  5a   000124 000000
    001206  5a   000207 000000
    001207  5a   000252 000000
    001210  aa   000000 000000
    001211  aa   000000 000000
    001212  aa   000000 000000
    001213  5a   000106 000000
    001214  aa   000000 000000
    001215  aa   000000 000000
    001216  aa   000000 000000
    001217  aa   000000 000000
    001220  aa   000000 000000
    001221  aa   000000 000000
    001222  5a   000013 000000
    001223  aa   000000 000000

NO EXTERNAL NAMES

NO TRAP POINTER WORDS

TYPE PAIR BLOCKS

    001224  aa   000001 000000
    001225  aa   000000 000000

INTERNAL EXPRESSION WORDS

    001226  50   000374 000607
    001227  aa   000000 000000
LINKAGE INFORMATION

    000000  aa   000000 000000
    000001  02   000630 000042
    000002  aa   000000 000000
    000003  aa   000000 000000
    000004  aa   000000 000000
    000005  aa   000000 000000
    000006  22   000040 000045
    000007  a2   000000 000030
    000040  9a   777740 0000 46         *text|
    000041  5a   000376 0000 00

FIRST REFERENCE TRAP LIST

    000042  aa   000000 000001
    000043  aa   000000 000001
    000044  2a   000040 000000
    000045  aa   000000 000000
SYMBOL INFORMATION

SYMBOL TABLE HEADER

    000000  aa   000000 000001
    000001  aa   163171 155142
    000002  aa   164162 145145
    000003  aa   000000 000004
    000004  aa   000000 111316
    000005  aa   510113 575622
    000006  aa   000000 111330
    000007  aa   404217 307662
    000010  aa   141154 155040
    000011  aa   040040 040040
    000012  aa   000024 000040
    000013  aa   000034 000040
    000014  aa   000044 000100
    000015  aa   000002 000002
    000016  aa   000064 000000
    000017  aa   000000 000153
    000020  aa   000000 000104
    000021  aa   000000 000135
    000022  aa   000145 000104
    000023  aa   000064 000000
    000024  aa   101114 115040
    000025  aa   126145 162163
    000026  aa   151157 156040
    000027  aa   040066 056064
    000030  aa   040040 101160
    000031  aa   162151 154040
    000032  aa   061071 070061
    000033  aa   040040 040040
    000034  aa   110157 154155
    000035  aa   163164 145144
    000036  aa   164056 123171
    000037  aa   163115 141151
    000040  aa   156164 056155
    000041  aa   040040 040040
    000042  aa   040040 040040
    000043  aa   040040 040040
    000044  aa   154151 163164
    000045  aa   040040 040040
    000046  aa   040040 040040
    000047  aa   040040 040040
    000050  aa   040040 040040
    000051  aa   040040 040040
    000052  aa   040040 040040
    000053  aa   040040 040040
    000054  aa   040040 040040
    000055  aa   040040 040040
    000056  aa   040040 040040
    000057  aa   040040 040040
    000060  aa   040040 040040
    000061  aa   040040 040040
    000062  aa   040040 040040
    000063  aa   040040 040040
    000064  aa   000000 000001
    000065  aa   000000 000001
    000066  aa   000072 000047
    000067  aa   113225 115317
    000070  aa   000000 111330
    000071  aa   367275 200000
    000072  aa   076163 160145          >spec>on>11/11/82>cmcs_error_table_.alm
    000073  aa   143076 157156
    000074  aa   076061 061057
    000075  aa   061061 057070
    000076  aa   062076 143155
    000077  aa   143163 137145
    000100  aa   162162 157162
    000101  aa   137164 141142
    000102  aa   154145 137056
    000103  aa   141154 155040
               MULTICS ASSEMBLY CROSS REFERENCE LISTING

   Value        Symbol                   Source file   Line number

                *text                    cmcs_error_table_:  182.
           2    .ambiguous_tree_path     cmcs_error_table_:   19,   22.
          26    .bad_call_parm           cmcs_error_table_:   25,   28.
          53    .bad_dest                cmcs_error_table_:   31,   34.
          71    .bad_dest_count          cmcs_error_table_:   37,   40.
         113    .bad_message_length      cmcs_error_table_:   43,   46.
         132    .bad_password            cmcs_error_table_:   49,   52.
         160    .bad_queue_path          cmcs_error_table_:   55,   58.
         205    .bad_slew                cmcs_error_table_:   61,   64.
         220    .bad_source              cmcs_error_table_:   67,   70.
         237    .bad_station             cmcs_error_table_:   73,   76.
         256    .bad_term_devchn         cmcs_error_table_:   79,   82.
         301    .bad_tree_path           cmcs_error_table_:   85,   88.
          40    .code_end                cmcs_error_table_:   16,  178.
          10    .code_start              cmcs_error_table_:   14,  175.
         326    .dest_already_disabled   cmcs_error_table_:   91,   94.
         346    .dest_already_enabled    cmcs_error_table_:   97,  100.
         365    .dest_disabled           cmcs_error_table_:  103,  106.
         623    .loop                    cmcs_error_table_:  176,  179.
         405    .no_message              cmcs_error_table_:  109,  112.
         424    .no_partial_messages     cmcs_error_table_:  115,  118.
         447    .null_partial_message    cmcs_error_table_:  121,  124.
         463    .queue_already_disabled  cmcs_error_table_:  127,  130.
         501    .queue_already_enabled   cmcs_error_table_:  133,  136.
         517    .queue_disabled          cmcs_error_table_:  139,  142.
         536    .source_already_disabled       cmcs_error_table_:  145,  148.
         554    .source_already_enabled  cmcs_error_table_:  151,  154.
         572    .source_disabled         cmcs_error_table_:  157,  160.
           0    .sys_sw                  cmcs_error_table_:   19,   25,   31,   37,   43,   49,   55,   61,   67,   73,   79,
                                                              85,   91,   97,  103,  109,  115,  121,  127,  133,  139,  145,
                                                             151,  157,  161.
          50    .tp                      cmcs_error_table_:  164,  167,  168,  174.
         607    .trapproc                cmcs_error_table_:  165,  182.
          10    ambiguous_tree_path      cmcs_error_table_:   18,   19.
          11    bad_call_parm            cmcs_error_table_:   24,   25.
          12    bad_dest                 cmcs_error_table_:   30,   31.
          13    bad_dest_count           cmcs_error_table_:   36,   37.
          14    bad_message_length       cmcs_error_table_:   42,   43.
          15    bad_password             cmcs_error_table_:   48,   49.
          16    bad_queue_path           cmcs_error_table_:   54,   55.
          17    bad_slew                 cmcs_error_table_:   60,   61.
          20    bad_source               cmcs_error_table_:   66,   67.
          21    bad_station              cmcs_error_table_:   72,   73.
          22    bad_term_devchn          cmcs_error_table_:   78,   79.
          23    bad_tree_path            cmcs_error_table_:   84,   85.
          10    codes                    cmcs_error_table_:   13,   17,   23,   29,   35,   41,   47,   53,   59,   65,   71,
                                                              77,   83,   89,   95,  101,  107,  113,  119,  125,  131,  137,
                                                             143,  149,  155,  184.
          24    dest_already_disabled    cmcs_error_table_:   90,   91.
          25    dest_already_enabled     cmcs_error_table_:   96,   97.
          26    dest_disabled            cmcs_error_table_:  102,  103.
           0    messages                 cmcs_error_table_:   20,   26,   32,   38,   44,   50,   56,   62,   68,   74,   80,
                                                              86,   92,   98,  104,  110,  116,  122,  128,  134,  140,  146,
                                                             152,  158,  163,  183.
          27    no_message               cmcs_error_table_:  108,  109.
          30    no_partial_messages      cmcs_error_table_:  114,  115.
          31    null_partial_message     cmcs_error_table_:  120,  121.
          40    past_codes               cmcs_error_table_:   15,  184.
          32    queue_already_disabled   cmcs_error_table_:  126,  127.
          33    queue_already_enabled    cmcs_error_table_:  132,  133.
          34    queue_disabled           cmcs_error_table_:  138,  139.
          35    source_already_disabled  cmcs_error_table_:  144,  145.
          36    source_already_enabled   cmcs_error_table_:  150,  151.
          37    source_disabled          cmcs_error_table_:  156,  157.


NO FATAL ERRORS


                                          -----------------------------------------------------------


Historical Background

This edition of the Multics software materials and documentation is provided and donated
to Massachusetts Institute of Technology by Group BULL including BULL HN Information Systems Inc.
as a contribution to computer science knowledge.
This donation is made also to give evidence of the common contributions of Massachusetts Institute of Technology,
Bell Laboratories, General Electric, Honeywell Information Systems Inc., Honeywell BULL Inc., Groupe BULL
and BULL HN Information Systems Inc. to the development of this operating system.
Multics development was initiated by Massachusetts Institute of Technology Project MAC (1963-1970),
renamed the MIT Laboratory for Computer Science and Artificial Intelligence in the mid 1970s, under the leadership
of Professor Fernando Jose Corbato. Users consider that Multics provided the best software architecture
for managing computer hardware properly and for executing programs. Many subsequent operating systems
incorporated Multics principles.
Multics was distributed in 1975 to 2000 by Group Bull in Europe , and in the U.S. by Bull HN Information Systems Inc.,
as successor in interest by change in name only to Honeywell Bull Inc. and Honeywell Information Systems Inc. .

                                          -----------------------------------------------------------

Permission to use, copy, modify, and distribute these programs and their documentation for any purpose and without
fee is hereby granted,provided that the below copyright notice and historical background appear in all copies
and that both the copyright notice and historical background and this permission notice appear in supporting
documentation, and that the names of MIT, HIS, BULL or BULL HN not be used in advertising or publicity pertaining
to distribution of the programs without specific prior written permission.
    Copyright 1972 by Massachusetts Institute of Technology and Honeywell Information Systems Inc.
    Copyright 2006 by BULL HN Information Systems Inc.
    Copyright 2006 by Bull SAS
    All Rights Reserved
