	COMPILATION LISTING OF SEGMENT comp_measure_
	Compiled by: Multics PL/I Compiler, Release 28e, of February 14, 1985
	Compiled at: Honeywell Multics Op. - System M
	Compiled on: 04/23/85  1006.2 mst Tue
	    Options: optimize map

        1 /* ***********************************************************
        2*   *                                                         *
        3*   *                                                         *
        4*   * Copyright, (C) Honeywell Information Systems Inc., 1981 *
        5*   * Copyright, (C) Honeywell Information Systems Inc., 1980 *
        6*   *                                                         *
        7*   *                                                         *
        8*   *********************************************************** */
        9
       10 /* compose subroutine to measure string lengths in millipoints */
       11
       12 /* format: style2,ind2,ll79,dclind4,idind15,comcol41,linecom */
       13
       14 comp_measure_:
       15   proc (a_str, afnt_ptr, fill, art, quad, a_lmeas, meas1_ptr, meas2_ptr,
       16        info_ptr);
       17
       18 /* PARAMETERS */
       19
       20     dcl a_str	   char (1020) var; /* string to be measured - IN */
       21     dcl afnt_ptr	   ptr;		/* font description - IN */
       22     dcl fill	   bit (1);	/* 0 = simple measuring - IN */
       23 				/* 1 = measuring filled text */
       24     dcl art	   bit (1);	/* 1 = line may have art - IN */
       25     dcl quad	   bit (6);	/* line set control */
       26     dcl a_lmeas	   fixed bin (31);	/* measure of target line - IN */
       27 				/* if a_lmeas is 0, then then entire */
       28 				/* string is to be measured */
       29     dcl meas1_ptr	   ptr;		/* str that fits - IN */
       30     dcl meas2_ptr	   ptr;		/* overflow str - IN */
       31     dcl info_ptr	   ptr;		/* info structure for str - IN */
       32
       33     dcl 1 afnt	   aligned like fntstk_entry based (afnt_ptr);
       34 				/* string that fits */
       35     dcl 1 meas1	   aligned like text_entry.cur based (meas1_ptr);
       36 				/* overflow string */
       37     dcl 1 meas2	   aligned like text_entry.cur based (meas2_ptr);
       38
       39 /* LOCAL STORAGE */
       40
       41     dcl art_str_ptr	   ptr;		/* art symbol overlay */
       42     dcl art_str	   char (3) unal based (art_str_ptr);
       43 				/* artwork strings */
       44     dcl 1 art_xcep	   static options (constant),
       45 	2 str	   (50) char (6)
       46 		   init ("/oo/", "/ss/", "/cc/", "/==/", "|--|", "|**|", "-~~-", "~**~",
       47 		   "SvvS", "svvs", "s""""s", "S^^S", "s^^s", "S""""S", "HvvH", "hvvh",
       48 		   "h""""h", "H^^H", "h^^h", "H""""H", "0^^0", "1^^1", "2^^2", "3^^3",
       49 		   "4^^4", "5^^5", "6^^6", "7^^7", "8^^8", "9^^9", "0vv0", "1vv1", "2vv2",
       50 		   "3vv3", "4vv5", "5vv5", "6vv6", "7vv7", "8vv8", "9vv9", "0^^0", "1^^1",
       51 		   "2^^2", "3^^3", "4^^5", "5^^5", "6^^6", "7^^7", "8^^8", "9^^9"),
       52 	2 code	   (50) char (1)
       53 		   init ("o", "s", "c", "=", "`", " ", "f", " ",
       54 		   (42) (1)"");
       55     dcl art_xcep_ndx   fixed bin;	/* index of art_str in xcep list */
       56     dcl avg1	   fixed bin (31);	/* accumulated average wordspace */
       57     dcl avgwsp	   fixed bin (31);	/* current average wordspace */
       58     dcl brkrw	   fixed bin (31);	/* width of word breaker */
       59     dcl chrct1	   fixed bin;
       60     dcl ctl_width	   fixed bin (31);	/* width of device ctl string */
       61     dcl debug_sw	   bit (1);	/* effective debug switch */
       62     dcl detail_sw	   bit (1);	/* effective detail debug switch */
       63     dcl ENwidth	   fixed bin (31);	/* width of EN */
       64     dcl gap_ahead	   fixed bin;
       65     dcl gap_found	   bit (1);
       66     dcl gaps1	   fixed bin;
       67     dcl hyphenated	   bit (1);
       68     dcl iscn	   fixed bin;	/* string scanning index */
       69     dcl (jj, k)	   fixed bin;	/* working index */
       70     dcl 1 lfnt	   aligned like fntstk_entry;
       71     dcl lmeas	   fixed bin (31);
       72     dcl max1	   fixed bin (31);	/* accumulated maximum wordspace */
       73     dcl maxwsp	   fixed bin (31);	/* current maximum wordspace */
       74     dcl min1	   fixed bin (31);	/* accumulated minimum wordspace */
       75     dcl minwsp	   fixed bin (31);	/* current minimum wordspace */
       76     dcl mptstrk	   fixed bin (31);	/* mpt -> strokes conversion */
       77     dcl oflo	   bit (1);	/* line overflow switch */
       78     dcl PSwidth	   fixed bin (31);	/* width of PS */
       79     dcl runits	   fixed bin;	/* rel_units in current font */
       80     dcl str	   char (1020) var; /* working string */
       81     dcl strlen	   fixed bin;
       82     dcl tchar	   char (1);	/* for debugging */
       83     dcl trnsw	   bit (1);	/* 1= translation is active */
       84     dcl true_size	   fixed bin (31);	/* true point size */
       85     dcl width1	   fixed bin (31);	/* string width accumulator */
       86     dcl word	   char (1020) var; /* measured word */
       87     dcl wordct	   fixed bin;	/* chars in word */
       88     dcl wrdstrt	   fixed bin;	/* start of word in string */
       89     dcl wordu	   fixed bin (31);	/* word size */
       90     dcl wrdbrkr	   char (1);
       91
       92     dcl (addr, bin, dec, divide, index, length, ltrim, max, min, null, rank,
       93         reverse, round, rtrim, search, substr, unspec, verify)
       94 		   builtin;
       95
       96     strlen = length (a_str);		/* copy args */
       97     str = a_str;			/**/
       98 				/* set debug switches */
       99     debug_sw = (shared.bug_mode & db_sw);
      100     detail_sw = (debug_sw & dt_sw);
      101
      102     if debug_sw
      103     then call ioa_ ("measure: (^d/^d w^f g^d ^f^2(/^f^) m^f ^a ^f"
      104 	    || "^[ F^; ^^F^]^[ A^; ^^A^])^/^5x""^a^vx""", meas1.chrct,
      105 	    strlen, show (meas1.width, 12000), meas1.gaps,
      106 	    show (meas1.width + meas1.min, 12000),
      107 	    show (meas1.width + meas1.avg, 12000),
      108 	    show (meas1.width + meas1.max, 12000), show (a_lmeas, 12000),
      109 	    afnt.name, show (afnt.size, 1000), fill, art,
      110 	    comp_util_$display (a_str, 0, "0"b),
      111 	    strlen - length (rtrim (a_str)));
      112
      113     lfnt, meas1.font = afnt;		/* starting font for string */
      114     fnttbl_ptr = fnttbldata.ptr (lfnt.devfnt);
      115     if fill
      116     then wrdbrkr = shared.wrd_brkr;
      117     else wrdbrkr = "";
      118
      119     if siztbl.ct = 1		/* validate size */
      120     then true_size = siztbl.size (1);
      121     else true_size = afnt.size;
      122
      123     runits = fnttbl.rel_units;	/* conversion values in current font */
      124     mptstrk = divide (true_size, runits, 31, 0);
      125
      126     minwsp = fnttbl.min_wsp;		/* wordspace values */
      127     avgwsp = fnttbl.avg_wsp;
      128     maxwsp = fnttbl.max_wsp;		/**/
      129 				/* other useful widths */
      130     ENwidth = fnttbl.units (rank (EN));
      131     PSwidth = fnttbl.units (rank (PS));
      132
      133     wrdstrt, wordu, ctl_width, gap_ahead = 0;
      134
      135     word = "";			/* initialize local values */
      136     unspec (meas2), gap_found, hyphenated, oflo = "0"b;
      137     meas2.font = afnt;
      138     trnsw = (length (shared.trans.in) > 0);
      139
      140     lmeas = a_lmeas;
      141     if lmeas ^= 0
      142     then lmeas = divide (lmeas, mptstrk, 31, 0);
      143     width1 = meas1.width;
      144
      145     chrct1 = meas1.chrct;
      146     gaps1 = meas1.gaps;
      147     if width1 ^= 0
      148     then width1 = divide (width1, mptstrk, 31, 0);
      149     min1 = meas1.min;
      150     if min1 ^= 0
      151     then min1 = divide (min1, mptstrk, 31, 0);
      152     avg1 = meas1.avg;
      153     if avg1 ^= 0
      154     then avg1 = divide (avg1, mptstrk, 31, 0);
      155     max1 = meas1.max;
      156     if max1 ^= 0
      157     then max1 = divide (max1, mptstrk, 31, 0);
      158
      159 scan_loop:			/* scan the given string */
      160     do iscn = chrct1 + 1 by 0 while (iscn <= strlen);
      161
      162 font_char:
      163       do;
      164         word = "";
      165         wordct, wordu = 0;
      166         wrdstrt = iscn;
      167
      168         if iscn <= strlen
      169         then
      170 font_char_loop:
      171 	do iscn = iscn to strlen;	/* take all font chars */
      172
      173 (nostrg):
      174 next_tchar:
      175 	  tchar = substr (str, iscn, 1);
      176 	  if tchar = DC1		/* device control string? */
      177 	  then
      178 ctl_char:
      179 	    do;			/**/
      180 	      if wordu > 0		/* any text pending? */
      181 	      then
      182 	        do;
      183 		if detail_sw
      184 		then call ioa_ ("^[^-^6x^]^4d,^2d ""^a"" ^f "
      185 			|| "(g^d ^f = ^f/^f/^f)", ^gap_found, wrdstrt,
      186 			wordct, comp_util_$display (word, 0, "0"b),
      187 			show (wordu * mptstrk, 12000), gaps1,
      188 			show ((width1 + wordu) * mptstrk, 12000),
      189 			show ((width1 + wordu + min1) * mptstrk, 12000),
      190 			show ((width1 + wordu + avg1) * mptstrk, 12000),
      191 			show ((width1 + wordu + max1) * mptstrk, 12000));
      192
      193 /*		width1 = width1 + wordu;
      194*/*		wordu = 0;*/
      195 		gap_found = "0"b;
      196 	        end;		/**/
      197 				/* set control pointer */
      198 	      DCxx_p = addr (substr (str, iscn, 1));
      199 				/* nothing more for waits */
      200 	      if dcfs.type = type_wait
      201 	      then ;
      202
      203 	      if dcfs.type = type_font/* is it a font change? */
      204 	      then
      205 	        do;		/* really changing? */
      206 		if lfnt.devfnt ^= dcfs.f
      207 		then
      208 		  do;
      209 		    lfnt.devfnt = dcfs.f;
      210 		    fnttbl_ptr = fnttbldata.ptr (lfnt.devfnt);
      211 		    lfnt.name = fnttbl.name;
      212 				/* new rel units? */
      213 		    if runits ^= fnttbl.rel_units
      214 		    then
      215 		      do;
      216 		        runits = fnttbl.rel_units;
      217 		        mptstrk = divide (true_size, runits, 31, 0);
      218 		        minwsp = divide (fnttbl.min_wsp, mptstrk, 31, 0);
      219 		        avgwsp = divide (fnttbl.avg_wsp, mptstrk, 31, 0);
      220 		        maxwsp = divide (fnttbl.max_wsp, mptstrk, 31, 0);
      221 		        ENwidth = fnttbl.units (rank (EN));
      222 		        PSwidth = fnttbl.units (rank (PS));
      223 		      end;
      224 		  end;		/**/
      225 				/* changing size? */
      226 		if lfnt.size ^= dcfs.p
      227 		then
      228 		  do;
      229 		    lfnt.size = dcfs.p;
      230 				/* revalidate size */
      231 		    if siztbl.ct = 1
      232 		    then true_size = siztbl.size (1);
      233 		    else true_size = lfnt.size;
      234 		  end;
      235 	        end;
      236
      237 	      else
      238 	        do;		/* must be shift or plot */
      239 		if dcxx.Xctl = "01"b/* if an X value, account for it */
      240 		then ctl_width = divide (dcshort_val.v1, mptstrk, 31, 0);
      241 		else if dcxx.Xctl = "10"b
      242 		then ctl_width = divide (dclong_val.v1, mptstrk, 31, 0);
      243 		else ctl_width = 0; /* clear control width */
      244 	        end;
      245
      246 	      if lmeas > 0		/* dont do more than we have to */
      247 	      then if width1 + ctl_width > lmeas
      248 		 then goto return_;
      249
      250 	      wordu = wordu + ctl_width;
      251 	      wordct = wordct + dcxx.leng + 3;
      252 	      word = word || substr (str, iscn, dcxx.leng + 3);
      253
      254 	      if detail_sw
      255 	      then call ioa_ ("^[^-^6x^]^4d,^2d ""^a"" ^f "
      256 		      || "(g^d ^f = ^f/^f/^f)", ^gap_found, wrdstrt,
      257 		      wordct, comp_util_$display (word, 0, "0"b),
      258 		      show (wordu * mptstrk, 12000), gaps1,
      259 		      show ((width1 + wordu) * mptstrk, 12000),
      260 		      show ((width1 + wordu + min1) * mptstrk, 12000),
      261 		      show ((width1 + wordu + avg1) * mptstrk, 12000),
      262 		      show ((width1 + wordu + max1) * mptstrk, 12000));
      263
      264 	      gap_found = "0"b;	/* skip over control string */
      265 	      iscn = iscn + dcxx.leng + 3;
      266
      267 	      if iscn <= strlen
      268 	      then goto next_tchar;
      269 	      else goto EOL_check;
      270 	    end ctl_char;
      271
      272 	  if art			/* check for line art symbols */
      273 	  then
      274 art_:
      275 	    do;
      276 	      art_str_ptr = addr (substr (str, iscn));
      277
      278 	      if iscn < strlen - 1	/* dont check EOL garbage */
      279 	      then if substr (art_str, 2, 1) = BSP
      280 		 then
      281 		   do;
      282 		     art_xcep_ndx = index (string (art_xcep.str), art_str);
      283 				/* find it? */
      284 		     if art_xcep_ndx > 0
      285 		     then
      286 		       do;
      287 		         art_xcep_ndx =
      288 			    divide (art_xcep_ndx + 5, 6, 17, 0);
      289
      290 		         wordu = wordu
      291 			    + fnttbl
      292 			    .units (rank (art_xcep.code (art_xcep_ndx)));
      293 		         word = word || substr (str, iscn, 3);
      294 		         wordct = wordct + 3;
      295 				/* step over it */
      296 		         iscn = iscn + 3;
      297
      298 		         if iscn > strlen
      299 		         then
      300 			 do;
      301 			   if detail_sw
      302 			   then call ioa_ ("^[^-^6x^]^4d,^2d ""^a"" ^f "
      303 				   || "(g^d ^f = ^f/^f/^f)",
      304 				   ^gap_found,
      305 				   wrdstrt - bin (word = ""), wordct,
      306 				   comp_util_$display (word, 0, "0"b),
      307 				   show (wordu * mptstrk, 12000),
      308 				   gaps1,
      309 				   show ((width1 + wordu) * mptstrk,
      310 				   12000),
      311 				   show ((width1 + wordu + min1)
      312 				   * mptstrk, 12000),
      313 				   show ((width1 + wordu + avg1)
      314 				   * mptstrk, 12000),
      315 				   show ((width1 + wordu + max1)
      316 				   * mptstrk, 12000));
      317
      318 			   width1 = width1 + wordu;
      319 			   chrct1 = chrct1 + wordct + gap_ahead;
      320 			   meas1.font = lfnt;
      321 			   gap_found = "0"b;
      322 			   gap_ahead, wordu = 0;
      323
      324 			   goto return_;
      325 			 end;
      326
      327 		         else goto next_tchar;
      328 		       end;
      329 		   end;
      330 	    end art_;
      331
      332 	  if trnsw
      333 	  then
      334 	    do;
      335 	      k = index (shared.trans.in, tchar);
      336 	      if k > 0
      337 	      then tchar = substr (shared.trans.out, k, 1);
      338 	    end;			/**/
      339 				/* if a word break */
      340 	  if tchar = " " | tchar = wrdbrkr & wrdbrkr ^= ""
      341 	  then
      342 	    do;
      343 EOL_check:
      344 	      if detail_sw
      345 	      then call ioa_ ("^[^-^6x^]^4d,^2d ""^a"" ^f "
      346 		      || "(g^d ^f = ^f/^f/^f)", ^gap_found,
      347 		      wrdstrt - bin (word = ""), wordct,
      348 		      comp_util_$display (word, 0, "0"b),
      349 		      show (wordu * mptstrk, 12000), gaps1,
      350 		      show ((width1 + wordu) * mptstrk, 12000),
      351 		      show ((width1 + wordu + min1) * mptstrk, 12000),
      352 		      show ((width1 + wordu + avg1) * mptstrk, 12000),
      353 		      show ((width1 + wordu + max1) * mptstrk, 12000));
      354 				/* if word does not overset */
      355 				/* or no measure was given */
      356 	      if width1 + wordu + avg1 <= lmeas | quad = just
      357 /****		 & (width1 + wordu + avg1 > lmeas*/
      358 		 & width1 + wordu + min1 <= lmeas | lmeas <= 0
      359 	      then
      360 	        do;		/* stay up to date */
      361 		width1 = width1 + wordu;
      362 		chrct1 = chrct1 + wordct + gap_ahead;
      363 		meas1.font = lfnt;
      364 		gap_found = "0"b;
      365 		gap_ahead, wordu, wordct = 0;
      366 	        end;
      367
      368 	      else		/* this word oversets */
      369 	        do;
      370 		if shared.hyph_mode & ^hyphenated
      371 		     & (quad = just & width1 + max1 - maxwsp <= lmeas
      372 		     | quad ^= just & width1 + avg1 - avgwsp <= lmeas)
      373 		then if try_hyph ()
      374 		     then
      375 		       do;
      376 		         hyphenated = "1"b;
      377 		         iscn = wrdstrt;
      378 		         goto font_char;
      379 		       end;
      380
      381 		wrdbrkr = shared.wrd_brkr;
      382
      383 		if chrct1 > 0 & gap_ahead > 0
      384 		then
      385 		  do;
      386 		    gaps1 = gaps1 - 1;
      387 		    min1 = min1 - minwsp;
      388 		    avg1 = avg1 - avgwsp;
      389 		    max1 = max1 - maxwsp;
      390 		  end;
      391
      392 		if detail_sw
      393 		then call ioa_$nnl ("^5xOFLO");
      394
      395 		oflo = "1"b;
      396 		goto return_;
      397 	        end;
      398
      399 	      if iscn < strlen	/* if not EOL */
      400 				/* or measuring all */
      401 		 | (iscn = strlen & lmeas = 0)
      402 	      then
      403 word_break:
      404 	        do;
      405 		if tchar ^= " "	/* if a word breaker */
      406 		then
      407 breaker:
      408 		  do;
      409 		    word = word || tchar;
      410 		    wordct = wordct + 1;
      411 		    brkrw = fnttbl.units (rank (tchar));
      412
      413 		    if detail_sw
      414 		    then call ioa_ ("^[^-^6x^]^4d,^2d ""^a"" ^f "
      415 			    || "(g^d ^f = ^f/^f/^f)", ^gap_found,
      416 			    wrdstrt - bin (word = ""), wordct,
      417 			    comp_util_$display (word, 0, "0"b),
      418 			    show ((wordu + brkrw) * mptstrk, 12000),
      419 			    gaps1,
      420 			    show ((width1 + brkrw) * mptstrk, 12000),
      421 			    show ((width1 + brkrw + min1) * mptstrk,
      422 			    12000),
      423 			    show ((width1 + brkrw + avg1) * mptstrk,
      424 			    12000),
      425 			    show ((width1 + brkrw + max1) * mptstrk,
      426 			    12000));
      427
      428 		    iscn = iscn + 1;/* and count the breaker */
      429 				/* does it all still fit? */
      430 		    if width1 + max (min1, 0) + brkrw <= lmeas
      431 		    then
      432 		      do;		/* update first return data */
      433 		        width1 = width1 + brkrw;
      434 		        chrct1 = iscn - 1;
      435 		        meas1.font = lfnt;
      436 		        gap_ahead = 0;
      437 		        goto font_char;
      438 		      end;
      439
      440 		    else		/* this is the overset "word" */
      441 		      do;
      442 		        if shared.hyph_mode & ^hyphenated & lmeas > 0
      443 			   & (quad = just
      444 			   & width1 + max1 - maxwsp <= lmeas
      445 			   | quad ^= just
      446 			   & width1 + avg1 - avgwsp <= lmeas)
      447 		        then if try_hyph ()
      448 			   then
      449 			     do;
      450 			       hyphenated = "1"b;
      451 			       iscn = wrdstrt;
      452 			       goto font_char;
      453 			     end;
      454
      455 		        wrdbrkr = shared.wrd_brkr;
      456 		        oflo = "1"b;
      457 		        goto return_;
      458 		      end;	/**/
      459 				/* does it all still fit? */
      460 		    if width1 + avg1 + avgwsp + wordu <= lmeas
      461 		         | quad = just & width1 + wordu + min1 <= lmeas
      462 		    then
      463 		      do;		/* update first return data */
      464 		        width1 = width1 + wordu;
      465 		        chrct1 = iscn - 1;
      466 		        meas1.font = lfnt;
      467 		        goto font_char;
      468 		      end;
      469
      470 		    else		/* this is the overset word */
      471 		      do;
      472 		        if shared.hyph_mode & ^hyphenated
      473 			   & (quad = just
      474 			   & width1 + max1 - maxwsp <= lmeas
      475 			   | quad ^= just
      476 			   & width1 + avg1 - avgwsp <= lmeas)
      477 		        then if try_hyph ()
      478 			   then
      479 			     do;
      480 			       hyphenated = "1"b;
      481 			       iscn = wrdstrt;
      482 			       goto font_char;
      483 			     end;
      484
      485 		        wrdbrkr = shared.wrd_brkr;
      486 		        oflo = "1"b;
      487 		        goto return_;
      488 		      end;
      489 		  end breaker;
      490
      491 		else		/* its a wordspace */
      492 wrdspc:
      493 		  do;
      494 		    if fill	/* preserve punctuation space */
      495 		         & search (reverse (word), ".:!?") = 1
      496 		         | search (reverse (word), """)") = 1
      497 		         & search (reverse (word), ".!?") = 2
      498 		    then if width1 + avg1 + PSwidth <= lmeas
      499 			    | quad = just
      500 			    & width1 + min1 + PSwidth <= lmeas
      501 		         then
      502 punct:
      503 			 do;	/* add PS to the measured string */
      504 (nostrg):
      505 			   str = substr (str, 1, iscn - 1) || PS
      506 			        || substr (str, iscn);
      507 			   strlen = strlen + 1;
      508 				/* take some width */
      509 			   width1 = width1 + PSwidth;
      510 			   chrct1 = chrct1 + 1;
      511
      512 			   if detail_sw
      513 			   then call ioa_ ("^-^6x^4d, 1 ""^a"" ^f "
      514 				   || "(g^d ^f = ^f/^f/^f)", iscn,
      515 				   comp_util_$display ((PS), 0, "0"b),
      516 				   show (PSwidth * mptstrk, 12000),
      517 				   gaps1,
      518 				   show (width1 * mptstrk, 12000),
      519 				   show ((width1 + min1) * mptstrk,
      520 				   12000),
      521 				   show ((width1 + avg1) * mptstrk,
      522 				   12000),
      523 				   show ((width1 + max1) * mptstrk,
      524 				   12000));
      525 				/* step over it */
      526 			   iscn = iscn + 1;
      527 			 end punct;
      528
      529 (nostrg):
      530 		    jj = verify (substr (str, iscn), " ") - 1;
      531 		    if jj < 0
      532 		    then jj = strlen - iscn + 1;
      533
      534 		    if fill
      535 		    then
      536 		      do;
      537 		        gap_found = "1"b;
      538 		        gap_ahead = 1;
      539
      540 		        if jj > 1	/* cast out all multiple blanks */
      541 		        then
      542 			do;
      543 (nostrg, nostrz):
      544 			  str = substr (str, 1, iscn - 1) || " "
      545 			       || ltrim (substr (str, iscn));
      546 			  strlen = length (str);
      547 			end;	/**/
      548 				/* this isnt EOL */
      549 		        if iscn <= strlen
      550 		        then
      551 			do;
      552 			  gaps1 = gaps1 + 1;
      553 			  min1 = min1 + minwsp;
      554 			  avg1 = avg1 + avgwsp;
      555 			  max1 = max1 + maxwsp;
      556 				/* end of undent field? */
      557 			  if width1 >= lmeas & lmeas > 0 & ^fill
      558 			  then goto return_;
      559 			end;
      560
      561 		        if detail_sw & gaps1 > 0
      562 		        then call ioa_$nnl ("^4d gap ^2d ^f", iscn, gaps1,
      563 			        show (avgwsp * mptstrk, 12000));
      564
      565 		        iscn = iscn + 1;
      566 		      end;
      567
      568 		    else if art
      569 		    then
      570 		      do;
      571 		        str = substr (str, 1, iscn - 1) || copy (EN, jj)
      572 			   || ltrim (substr (str, iscn));
      573
      574 		        width1 = width1 + jj * ENwidth;
      575 		        chrct1 = chrct1 + jj;
      576
      577 		        if detail_sw
      578 		        then call ioa_$nnl ("^4d ^2d EN^[s^;^x^] ^f", iscn,
      579 			        jj, (jj > 1), show (jj * ENwidth, 12000))
      580 			        ;
      581 		        iscn = iscn + jj;
      582 		        gap_found = "1"b;
      583 		      end;
      584
      585 		    else
      586 		      do;
      587 		        width1 = width1 + jj * ENwidth;
      588 		        chrct1 = chrct1 + jj;
      589
      590 		        if detail_sw
      591 		        then call ioa_$nnl ("^4d ^2d SP^[s^;^x^] ^f", iscn,
      592 			        jj, (jj > 1),
      593 			        show (jj * ENwidth * mptstrk, 12000));
      594 		        iscn = iscn + jj;
      595 		        gap_found = "1"b;
      596 		      end;
      597
      598 		    goto font_char;
      599 		  end wrdspc;
      600 	        end word_break;
      601 	      else goto return_;
      602 	    end;
      603
      604 	  else
      605 	    do;
      606 	      if tchar = PS		/* punctuation space? */
      607 	      then
      608 	        do;		/* does the word fit? */
      609 		if width1 + wordu + avg1 <= lmeas
      610 		     | quad = just & width1 + wordu + min1 <= lmeas
      611 		then
      612 		  do;		/* if PS does not overset */
      613 				/* take the units for PS */
      614 		    if width1 + avg1 + PSwidth < lmeas
      615 		         | quad = just & width1 + PSwidth + min1 <= lmeas
      616 		    then
      617 		      do;
      618 		        wordu = wordu + fnttbl.units (rank (tchar));
      619 		        word = word || PS;
      620 		        wordct = wordct + 1;
      621 		      end;
      622
      623 		    else
      624 		      do;		/* throw the PS away */
      625 		        substr (str, iscn) = substr (str, iscn + 1);
      626 		        strlen = strlen - 1;
      627 				/* discard 1 char for loop control */
      628 		        iscn = iscn - 1;
      629 		      end;
      630 		  end;
      631
      632 		else if fill	/* this is the overset word */
      633 		then
      634 		  do;		/* set return data */
      635 		    if shared.hyph_mode & ^hyphenated
      636 		         & (quad = just & width1 + max1 - maxwsp <= lmeas
      637 		         | quad ^= just & width1 + avg1 - avgwsp <= lmeas)
      638 		    then if try_hyph ()
      639 		         then
      640 			 do;
      641 			   hyphenated = "1"b;
      642 			   iscn = wrdstrt;
      643 			   goto font_char;
      644 			 end;
      645
      646 		    wrdbrkr = shared.wrd_brkr;
      647 		    oflo = "1"b;
      648 		    goto return_;
      649 		  end;
      650 	        end;		/**/
      651 				/* NOT punctuation space */
      652 	      else if tchar ^= DC1
      653 	      then
      654 	        do;
      655 		wordu = wordu + fnttbl.units (rank (tchar));
      656 		word = word || tchar;
      657 		wordct = wordct + 1;
      658 	        end;
      659 	    end;
      660 	end font_char_loop;
      661       end font_char;
      662 end_scan_loop:
      663     end scan_loop;			/**/
      664 				/* fell out, must be EOL */
      665     if wordu > 0			/* any leftovers? */
      666     then goto EOL_check;
      667
      668 return_:
      669     if chrct1 > 0			/* strip trailing PS */
      670     then if substr (str, chrct1, 1) = PS
      671          then
      672 	 do;
      673 	   if chrct1 = strlen
      674 	   then str = substr (str, 1, chrct1 - 1);
      675 	   else
      676 (nostrg):
      677 	     str = substr (str, 1, chrct1 - 1) || substr (str, chrct1 + 1);
      678 	   width1 = width1 - PSwidth;
      679 	   chrct1 = chrct1 - 1;
      680 	   meas2.chrct = meas2.chrct - 1;
      681 	   strlen = strlen - 1;
      682 	 end;
      683
      684     meas1.chrct = min (chrct1, strlen);
      685     meas1.gaps = max (gaps1, 0);
      686     meas1.avg = max (avg1 * mptstrk, 0);
      687     meas1.min = max (min1 * mptstrk, 0);
      688     meas1.max = max (max1 * mptstrk, 0);
      689     meas1.width = max (width1 * mptstrk, 0);
      690
      691     if ^oflo
      692     then meas2.font = meas1.font;
      693
      694     else
      695       do;
      696         meas2.font = lfnt;
      697         meas2.chrct = min (iscn - bin (iscn < strlen), strlen);
      698         meas2.gaps = gaps1 + gap_ahead;
      699         meas2.width = (width1 + wordu) * mptstrk;
      700         meas2.min = (min1 + minwsp) * mptstrk;
      701         meas2.avg = (avg1 + avgwsp) * mptstrk;
      702         meas2.max = (max1 + maxwsp) * mptstrk;
      703       end;
      704
      705     a_str = str;			/* store back possibly modified str */
      706
      707     if debug_sw
      708     then
      709       do;
      710         if detail_sw & (^fill & chrct1 = strlen)
      711 	   | (fill & chrct1 = length (rtrim (a_str)))
      712         then call ioa_$nnl ("^5xEOL");
      713
      714         iscn = chrct1 - length (rtrim (substr (str, 1, chrct1)));
      715         call ioa_ ("^/^5x(measure: [1=^d/^d^2( ^f^)^2(/^f^)] "
      716 	   || "[2=^d/^d^2( ^f^)^2(/^f^)] ^a ^f)^[^/^-""^a^vx""^]",
      717 	   meas1.chrct, meas1.gaps, show (meas1.width, 12000),
      718 	   show (meas1.width + meas1.min, 12000),
      719 	   show (meas1.width + meas1.avg, 12000),
      720 	   show (meas1.width + meas1.max, 12000), meas2.chrct, meas2.gaps,
      721 	   show (meas2.width, 12000), show (meas2.width + meas2.min, 12000),
      722 	   show (meas2.width + meas2.avg, 12000),
      723 	   show (meas2.width + meas2.max, 12000), meas2.font.name,
      724 	   show (meas2.font.size, 1000), (meas1.chrct > 0),
      725 	   comp_util_$display (substr (str, 1, meas1.chrct), 0, "0"b), iscn);
      726
      727         if meas2.chrct > 0
      728         then
      729 	do;
      730 	  call ioa_ ("^-""^a""",
      731 	       comp_util_$display (
      732 	       substr (str, meas1.chrct + 1, meas2.chrct - meas1.chrct), 0,
      733 	       "0"b));
      734 	end;
      735       end;
      736
      737     return;
      738
      739 hyph_wrd:
      740   proc (hword, hspace, hpoint, ercd);
      741
      742     dcl hword	   char (*);
      743     dcl hspace	   fixed bin;
      744     dcl hpoint	   fixed bin;
      745     dcl ercd	   fixed bin (35);
      746
      747     dcl (i, j)	   fixed bin;
      748     dcl space	   fixed bin;
      749
      750     dcl hyphenate_word_
      751 		   entry (char (*), fixed bin, fixed bin, fixed bin (35));
      752
      753     ercd = 0;			/* preset output values */
      754     hpoint = 0;			/**/
      755 				/* check impossible cases */
      756     if hspace < 2 | hspace > length (hword)
      757     then return;
      758     else space = hspace;
      759
      760     if shared.hwrd_data_ptr ^= null	/* is hword in the hwrd list */
      761     then
      762       do;
      763         do j = 1 to hwrd_data.count while (hwrd_data.word (j) ^= hword);
      764         end;
      765
      766         if j <= hwrd_data.count	/* yes */
      767         then
      768 	do;			/* try hyphenation first */
      769 	  i = index (reverse (substr (hwrd_data.hpts (j), 1, space - 1)),
      770 	       "1"b);
      771 	  if i ^= 0
      772 	  then i = space - i;
      773 	  if i < length (hword)
      774 	  then if substr (hword, i + 1, 1) = "-"
      775 	       then i = i + 1;
      776
      777 	  if i = 0		/* no hyphenation point */
      778 	  then
      779 	    do;
      780 	      i = index (reverse (hwrd_data.brkpts (j)), "1"b);
      781 	    end;
      782
      783 	  hpoint = i;
      784 	end;
      785
      786         else call hyphenate_word_ (hword, space, hpoint, ercd);
      787
      788       end;
      789
      790     else call hyphenate_word_ (hword, space, hpoint, ercd);
      791
      792   end hyph_wrd;
      793
      794 show:
      795   proc (datum, scale) returns (fixed dec (11, 3));
      796     dcl datum	   fixed bin (31);
      797     dcl scale	   fixed bin (31);
      798     dcl retval	   fixed dec (11, 3);
      799
      800     retval = round (dec (round (divide (datum, scale, 31, 11), 10), 11, 4), 3);
      801     return (retval);
      802   end show;
      803
      804 try_hyph:
      805   proc returns (bit (1));
      806
      807     dcl ercd	   fixed bin (35);
      808     dcl hp_space	   fixed bin (31);	/* width of hyph punct */
      809     dcl hpoint	   fixed bin;
      810     dcl hscndx	   fixed bin;	/* word scan index */
      811     dcl hspace	   fixed bin;	/* line chars left for hyphenation */
      812     dcl hword	   char (strlen - chrct1 + 2) var;
      813     dcl hwrdl	   fixed bin static;/* length of trial hyphenation word */
      814     dcl i		   fixed bin;
      815
      816     hscndx = wrdstrt;
      817     hwrdl = iscn - wrdstrt;
      818
      819 trim_trailing:			/* any trailing punctuation? */
      820     if search (reverse (substr (str, hscndx, hwrdl)), ".,;:!?""" || wrdbrkr)
      821          = 1
      822     then
      823       do;
      824         hwrdl = hwrdl - 1;
      825         goto trim_trailing;
      826       end;			/**/
      827 				/* line space left (in chars) */
      828     if quad = just
      829     then hspace =
      830 	    divide ((lmeas - width1 - min1) * mptstrk, shared.EN_width, 17,
      831 	    0);
      832     else hspace =
      833 	    divide ((lmeas - width1 - avg1) * mptstrk, shared.EN_width, 17,
      834 	    0);
      835
      836     hp_space = 0;			/* check leading punctuation */
      837 trim_leading:
      838     if index ("/([{""" || PAD || wrdbrkr, substr (str, hscndx, 1)) ^= 0
      839     then
      840       do;
      841         hp_space = hp_space +		/* calculate its width */
      842 	   fnttbl.units (rank (substr (str, hscndx, 1)));
      843         hscndx = hscndx + 1;		/* step over it */
      844         hspace = hspace - 1;		/* 1 fewer hyph chars */
      845         hwrdl = hwrdl - 1;
      846         goto trim_leading;
      847       end;
      848
      849     i = -1			/* anything embedded? */
      850          +
      851          verify (reverse (substr (str, hscndx, hwrdl)),
      852          "/.;:!?,()[]{}""" || PAD || PS);
      853     if i > 0
      854     then
      855       do;
      856         hwrdl = hwrdl - i;		/* to force hyphenation */
      857         hspace = min (hspace, hwrdl - 1);
      858       end;
      859
      860     if hspace > shared.hyph_size	/* enough space? */
      861     then
      862       do;
      863         hpoint = 0;			/* clear hyph point index */
      864         hword = substr (str, hscndx, hwrdl);
      865
      866         if shared.bug_mode
      867         then call ioa_$nnl ("^5x(hyph: ^d ^d ""^a""", hspace, hwrdl, hword);
      868
      869         call hyph_wrd (substr (str, hscndx, hwrdl), hspace, hpoint, ercd);
      870         if ercd ^= 0
      871         then goto hyph_err;
      872
      873         if hpoint = 0		/* try simple plurals */
      874         then
      875 	do;
      876 	  if index (substr (hword, hwrdl), "s") = 1
      877 	  then
      878 	    do;
      879 	      call hyph_wrd (substr (hword, 1, hwrdl - 1), hspace, hpoint,
      880 		 ercd);
      881 	      if ercd ^= 0
      882 	      then goto hyph_err;
      883 	    end;
      884
      885 	  if hpoint = 0
      886 	  then
      887 	    do;
      888 	      if index (substr (hword, hwrdl), "es") = 1
      889 	      then
      890 	        do;
      891 		call hyph_wrd (substr (hword, 2, hwrdl - 2), hspace,
      892 		     hpoint, ercd);
      893 		if ercd ^= 0
      894 		then goto hyph_err;
      895 	        end;
      896
      897 	      if hpoint = 0
      898 	      then
      899 	        do;
      900 		if index (substr (hword, hwrdl), "ies") = 1
      901 		then
      902 		  do;
      903 		    call hyph_wrd (substr (hword, 3, hwrdl - 3) || "y",
      904 		         hspace, hpoint, ercd);
      905 		    if ercd ^= 0
      906 		    then
      907 hyph_err:
      908 		      call comp_report_$ctlstr (2, ercd, text.input.info,
      909 			 str,
      910 			 "Error returned by hyphenate_word_ subroutine.")
      911 			 ;
      912 		    return ("0"b);
      913 		  end;
      914 	        end;
      915 	    end;
      916 	end;
      917
      918         if shared.bug_mode
      919         then call ioa_ (" @ ^d)", hpoint);
      920
      921 hyph_it:
      922         if hpoint >= shared.hyph_size
      923         then
      924 	do;
      925 	  hpoint = hscndx + hpoint - 1;
      926
      927 	  if substr (str, hpoint, 1) ^= "-"
      928 	  then
      929 	    do;			/* insert the "-" */
      930 	      str = substr (str, 1, hpoint) || "-"
      931 		 || substr (str, hpoint + 1);
      932 	      strlen = strlen + length ("-");
      933 	      hpoint = hpoint + length ("-");
      934 				/* adjust modified text */
      935 	      if strlen <= text.input.mod_start
      936 	      then text.input.mod_start =
      937 		      text.input.mod_start + length ("-");
      938 	      else if strlen <= text.input.mod_start + text.input.mod_len - 1
      939 	      then text.input.mod_len = text.input.mod_len + length ("-");
      940 	    end;
      941
      942 	  wrdbrkr = "-";		/* set hyphen as word breaker */
      943 	  gap_found = "0"b;
      944 	  return ("1"b);
      945 	end;
      946
      947         if hpoint = 0
      948         then
      949 	do;			/**/
      950 				/* unbreakable word? */
      951 	  if width1 = 0 & wordu > divide (text.parms.measure, mptstrk, 31, 0)
      952 	  then
      953 	    do;
      954 	      call comp_report_$ctlstr (2, 0, info_ptr, ctl_line,
      955 		 "Text too long for output line.");
      956
      957 /*	      meas1 = meas2;
      958*/*	      strlen = meas2.chrct;
      959*/*	      text.input.quad = quadl;*/
      960
      961 /*	      call put_line;
      962*/*	      text.input.quad = just;*/
      963
      964 /*	      goto fill_loop;*/
      965 	      return ("0"b);
      966 	    end;
      967 	end;
      968
      969       end;
      970
      971     return ("0"b);
      972
      973   end try_hyph;
      974
      975 alln:
      976   entry;
      977     db_sw, dt_sw = "1"b;
      978     return;
      979 allf:
      980   entry;
      981     db_sw, dt_sw = "0"b;
      982     return;
      983 dbn:
      984   entry;
      985     db_sw = "1"b;
      986     return;
      987 dbf:
      988   entry;
      989     db_sw = "0"b;
      990     dt_sw = "0"b;
      991     return;
      992     dcl db_sw	   bit (1) static init ("0"b);
      993
      994 dtn:
      995   entry;
      996     db_sw = "1"b;
      997     dt_sw = "1"b;
      998     return;
      999 dtf:
     1000   entry;
     1001     dt_sw = "0"b;
     1002     return;
     1003     dcl dt_sw	   bit (1) static init ("0"b);
     1004
  1     1 /* BEGIN INCLUDE FILE ..... comp_DCdata.incl.pl1 ..... 11/16/78 J Falksen
  1     2*   Modified: ??/81 - EJW - Addded type_wait
  1     3*   Modified:  4/83 - EJW - Added type_un(strt stop), reorganized file.
  1     4**/
  1     5
  1     6 /* format: style2,ind3,ll79,dclind4,idind15,comcol41,linecom */
  1     7
  1     8      dcl DCxx_p	    ptr;		/* for qualification of embedded     */
  1     9 				/*  control strings		       */
  1    10 				/* an embedded control string	       */
  1    11      dcl 1 dcxx	    unal based (DCxx_p),
  1    12 	 2 mark	    char (1) unal,	/* control marker -	DC1 (\021)       */
  1    13 	 2 ctl,
  1    14 	   3 type	    bit (3) unal,	/* 000- device/writer control        */
  1    15 				/* 001-                              */
  1    16 				/* 010- literal data	       */
  1    17 				/* 011- family/member/size data      */
  1    18 				/* 100- shift		       */
  1    19 				/* 101-			       */
  1    20 				/* 110- vector		       */
  1    21 				/* 111- zero-offset vector	       */
  1    22 	   3 fill1    bit (1) unal,
  1    23 	   3 Xctl	    bit (2) unal,	/* 00- no X value present	       */
  1    24 				/* 01- short X value	       */
  1    25 				/* 10- long X value		       */
  1    26 	   3 fill2    bit (1) unal,
  1    27 	   3 Yctl	    bit (2) unal,	/* 00- no Y value present	       */
  1    28 				/* 01- short Y value present	       */
  1    29 				/* 10- long Y value present	       */
  1    30 	 2 leng	    fixed bin (9) unal unsigned,
  1    31 				/* # of remaining bytes  */
  1    32 	 2 etc;			/* the rest of the control bytes */
  1    33 				/* device/writer controls */
  1    34      dcl 1 dcctl	    unal based (DCxx_p),
  1    35 	 2 mark	    char (1) unal,
  1    36 	 2 type	    char (1) unal,	/* control type */
  1    37 				/* leng is always 0 for these */
  1    38 	 2 leng	    fixed bin (9) unal unsigned;
  1    39      dcl (
  1    40          wait_signal    init (""),	/* = 021001000 */
  1    41          unstart_signal init (""),	/* = 021002000 */
  1    42          unstop_signal  init ("")	/* = 021003000 */
  1    43          )	    char (3) static options (constant);
  1    44 				/* the "literal" control string      */
  1    45      dcl 1 dclit	    unal based (DCxx_p),
  1    46 	 2 mark	    char (1) unal,
  1    47 	 2 type	    char (1) unal,	/* control type */
  1    48 	 2 leng	    fixed bin (9) unal unsigned,
  1    49 				/* width in milli-points of literal  */
  1    50 	 2 width	    fixed bin (31) unal,
  1    51 				/* actual literal, max length 509    */
  1    52 	 2 data	    char (dclit.leng - 4);
  1    53 				/* long (31 bits) values */
  1    54      dcl 1 dclong_val   unal based (DCxx_p),
  1    55 	 2 mark	    char (1) unal,
  1    56 	 2 type	    char (1) unal,	/* control type */
  1    57 	 2 leng	    fixed bin (9) unal unsigned,
  1    58 	 (
  1    59 	 2 v1	    fixed bin (31), /* long value		       */
  1    60 	 2 v2	    fixed bin (31)	/* long value		       */
  1    61 	 )	    unal;
  1    62      dcl (
  1    63          dclong_len	    init (8),	/* 2 long values */
  1    64          dclong1_len    init (4)	/* 1 long value */
  1    65          )	    fixed bin static options (constant);
  1    66 				/* short (17 bit) values */
  1    67      dcl 1 dcshort_val  unal based (DCxx_p),
  1    68 	 2 mark	    char (1) unal,
  1    69 	 2 type	    char (1) unal,	/* control type */
  1    70 	 2 leng	    fixed bin (9) unal unsigned,
  1    71 	 (
  1    72 	 2 v1	    fixed bin,	/* short value		       */
  1    73 	 2 v2	    fixed bin	/* short value		       */
  1    74 	 )	    unal;
  1    75      dcl (
  1    76          dcshort_len    init (4),	/* 2 short values */
  1    77          dcshort1_len   init (2)	/* 1 short value */
  1    78          )	    fixed bin static options (constant);
  1    79 				/* a font change string */
  1    80      dcl 1 dcfs	    unal based (DCxx_p),
  1    81 	 2 mark	    char (1) unal,	/* font/size data		       */
  1    82 	 2 type	    char (1) unal,	/* control type */
  1    83 	 2 leng	    fixed bin (9) unal unsigned,
  1    84 				/* fnttbldata index */
  1    85 	 2 f	    fixed bin (9) unal unsigned,
  1    86 				/* point size in milli-points	       */
  1    87 	 2 p	    fixed bin (31) unal;
  1    88      dcl dcfs_len	    fixed bin init (5) static options (constant);
  1    89
  1    90      dcl (			/* symbolic definitions of DC types  */
  1    91          type_wait	    init (""),	/* writer wait */
  1    92          type_unstart   init (""),	/* underscore start */
  1    93          type_unstop    init (""),	/* underscore stop */
  1    94          type_lit	    init ("ˆ"),	/* literal data		       */
  1    95          type_font	    init ("À"),	/* family/member/size data	       */
  1    96 				/* SHIFTS -		       */
  1    97          type_sy	    init (""),	/* -- no x, short y		       */
  1    98          type_sly	    init (""),	/* -- no x, long y		       */
  1    99          type_sx	    init (""),	/* -- short x, no y		       */
  1   100          type_sxy	    init ("	"),	/* -- short x, short y	       */
  1   101          type_slx	    init (""),	/* -- long x, no y		       */
  1   102          type_slxly	    init (""),	/* -- long x, long y	       */
  1   103 				/* VECTORS		       */
  1   104          type_vy	    init (""),	/* -- no x, short y		       */
  1   105          type_vly	    init ("‚"),	/* -- no x, long y		       */
  1   106          type_vx	    init ("ˆ"),	/* -- short x, no y		       */
  1   107          type_vxy	    init ("‰"),	/* -- short x, short y	       */
  1   108          type_vlx	    init (""),	/* -- long x, no y		       */
  1   109          type_vlxly	    init ("’"),	/* -- long x, long y	       */
  1   110 				/* ZERO-OFFSET VECTORS-	       */
  1   111          type_v0y	    init ("Á"),	/* -- no x, short y		       */
  1   112          type_v0ly	    init ("Â"),	/* -- no x, long y		       */
  1   113          type_v0x	    init ("È"),	/* -- short x, no y		       */
  1   114          type_v0xy	    init ("É"),	/* -- short x, short y 	       */
  1   115          type_v0lx	    init ("Ð"),	/* -- long x, no y		       */
  1   116          type_v0lxly    init ("Ò")	/* -- long x, long y	       */
  1   117          )	    char (1) unal int static options (constant);
  1   118
  1   119 /* END INCLUDE FILE ..... comp_DCdata.incl.pl1 ..... */
     1005
  2     1 /* 	BEGIN INCLUDE FILE - comp_dvt.incl.pl1 	       */
  2     2
  2     3 /*  Written:  9/80 - JA Falksen
  2     4*/* Modified: 11/81 - EJW - Added comp_dvt.displayproc
  2     5*/* Modified:  1/82 - EJW - Added length arg to comp_dvt.displayproc
  2     6*/* Modified:  2/82 - EJW - Deleted ptr arg from comp_dvt.displayproc
  2     7*/* Modified:  3/83 - EJW - Changed footref arg of comp_dvt.footproc to
  2     8*		       (3) char (*) var. Version 4. */
  2     9 /* Modified:  6/83 - EJW - Added error print control switch to calling
  2    10*		       sequence for comp_dvt.displayproc. - Version 5.
  2    11*/* Modified: 11/84 - EJW - Renamed no_adjust to justifying.
  2    12**/
  2    13
  2    14 /* All names which end in "_r"are offset values within the device table      */
  2    15 /* segment. The version of this structure is in comp_dvid.incl.pl1       */
  2    16
  2    17 /* format: style2,ind3,ll79,dclind4,idind15,comcol41,linecom */
  2    18
  2    19      dcl 1 comp_dvt	    aligned based (const.devptr),
  2    20 	 2 devclass   char (32),	/* what general kind of device is */
  2    21 				/* this, currently available: */
  2    22 				/* "printer" (includes terminals), */
  2    23 				/* "braille", "bitmap" */
  2    24 	 2 outproc    entry		/* page output processor */
  2    25 		    (fixed bin,	/*   function - 0=build */
  2    26 				/*              1=init page */
  2    27 				/*              2=init file */
  2    28 				/*              3=cleanup */
  2    29 		    fixed bin (35)),/*   error code */
  2    30 	 2 footproc   entry		/* footnote reference proc */
  2    31 		    ((3) char (*) var,
  2    32 				/*   reference string (IN/OUT) */
  2    33 		    ptr),		/*   comp_dvt_p (IN) */
  2    34 	 2 artproc    entry (),	/* artwork proc */
  2    35 				/* dont know how to describe yet */
  2    36 	 2 displayproc
  2    37 		    entry		/* string display interpreter */
  2    38 		    (char (*) var,	/* raw input string */
  2    39 		    fixed bin (24), /* chars used in this call */
  2    40 		    bit (1))	/* 1= dont show display errors */
  2    41 		    returns (char (*) var),
  2    42 				/* interpreted output string */
  2    43 				/* following values are in millipoints */
  2    44 	 2 min_WS	    fixed bin (31), /* minimum whitespace */
  2    45 	 2 min_lead   fixed bin (31), /* minimun lead */
  2    46 	 2 vmt_min    fixed bin (31), /* min usable .vmt */
  2    47 	 2 vmb_min    fixed bin (31), /* min usable .vmb */
  2    48 	 2 def_vmt    fixed bin (31), /* default .vmt */
  2    49 	 2 def_vmh    fixed bin (31), /* default .vmh */
  2    50 	 2 def_vmf    fixed bin (31), /* default .vmf		       */
  2    51 	 2 def_vmb    fixed bin (31), /* default .vmb		       */
  2    52 	 2 pdw_max    fixed bin (31), /* max page width available	       */
  2    53 	 2 pdl_max    fixed bin (31), /* max page length available,	       */
  2    54 				/*   (0 = unlimited)	       */
  2    55 	 2 upshift    fixed bin (31), /* footnote reference shift	       */
  2    56 	 2 init_ps    fixed bin (31), /* initial pointsize (millipoints)   */
  2    57 	 2 lettersp   fixed bin (31), /* max letterspacing	       */
  2    58 	 2 max_pages  fixed bin,	/* max pages/"file" -1 ->unlimited   */
  2    59 	 2 max_files  fixed bin,	/* max "files"/reel -1 ->unlimited   */
  2    60 	 2 init_fam   fixed bin,	/* initial family index	       */
  2    61 	 2 init_mem   fixed bin,	/* initial member index	       */
  2    62 	 2 foot_fam   fixed bin,	/* initial foot family index	       */
  2    63 	 2 foot_mem   fixed bin,	/* initial foot member index	       */
  2    64 	 2 init_family
  2    65 		    char (32),	/* initial font family to use	       */
  2    66 	 2 init_member
  2    67 		    char (32),	/* initial font member to use */
  2    68 	 (			/* the following are offsets */
  2    69 	 2 atd_r,			/* attach desc for on-line output */
  2    70 	 2 dvc_r,			/* device control table relptr */
  2    71 	 2 comment_r,		/* comment string relptr */
  2    72 	 2 cleanup_r,		/* "cleanup" string relptr */
  2    73 	 2 medsel_table_r		/* media select table relptr */
  2    74 	 )	    bit (18) aligned,
  2    75 	 2 foot_family
  2    76 		    char (32),	/* family for footnote reference     */
  2    77 	 2 foot_member
  2    78 		    char (32),	/* member for footnote reference     */
  2    79 				/*   if one was specified	       */
  2    80 	 2 sws	    unaligned,
  2    81 	   3 interleave		/* 0- page block has lines in column */
  2    82 		    bit (1),	/*    order left-to-right */
  2    83 				/* 1- page block has lines in line */
  2    84 				/*    order top-to-bottom */
  2    85 	   3 justifying		/* 1- device justifies lines */
  2    86 		    bit (1),
  2    87 	   3 mbz	    bit (24),
  2    88 	   3 endpage  bit (9),	/* EOP char if not "0"b	       */
  2    89 	 2 open_mode  fixed bin (35), /* when going to a file	       */
  2    90 	 2 recleng    fixed bin,	/* length of tape records	       */
  2    91 	 2 family_ct  fixed bin,	/* # families present	       */
  2    92 	 2 family	    (comp_dvt.family_ct),
  2    93 				/* families of fonts defined	       */
  2    94 	   3 member_r bit (18) aligned,
  2    95 				/* member table relptr	       */
  2    96 	   3 name	    char (32);	/* family name		       */
  2    97
  2    98
  2    99 /* The usage formula for units:				       */
  2   100 /*							       */
  2   101 /*    rel_units * length_in_points				       */
  2   102 /*    ----------------------------   = length_in_units		       */
  2   103 /*    points_per_EM						       */
  2   104
  2   105 /*	END INCLUDE FILE comp_dvt.incl.pl1			       */
     1006
  3     1 /* BEGIN INCLUDE FILE comp_entries.incl.pl1 */
  3     2
  3     3 /* format: style2,ind2,ll79,dclind4,idind15,comcol41,linecom */
  3     4
  3     5      dcl compose_severity_
  3     6 		    fixed bin (35) ext static;
  3     7      dcl comp_	    entry;
  3     8      dcl comp_art_	    entry (ptr, bit (1));
  3     9      dcl comp_block_ctls_
  3    10 		    entry (fixed bin);
  3    11      dcl comp_break_    entry (fixed bin, fixed bin);
  3    12      dcl comp_break_ctls_
  3    13 		    entry (fixed bin);
  3    14      dcl comp_ctls_	    entry (bit (1) aligned);
  3    15      dcl comp_eject_page_
  3    16 		    entry;
  3    17      dcl comp_expr_eval_
  3    18 		    entry (char (*) var, fixed bin (21), ptr, fixed bin,
  3    19 		    fixed bin, bit (1), fixed bin (31), char (*) var,
  3    20 		    bit (9), fixed bin (35));
  3    21      dcl comp_extr_str_ entry (bit (1), char (*) var, fixed bin (21),
  3    22 		    fixed bin (21), fixed bin (21), ptr)
  3    23 		    returns (char (*) var);
  3    24      dcl comp_fill_	    entry;
  3    25      dcl comp_font_	    entry (bit (1), char (*) var, char (8) aligned);
  3    26      dcl comp_format_ctls_
  3    27 		    entry (fixed bin);
  3    28      dcl comp_get_file_$find
  3    29 		    entry (char (*), ptr, char (*), bit (1), char (*) var,
  3    30 		    fixed bin (35));
  3    31      dcl comp_get_file_$open
  3    32 		    entry (ptr, bit (1), fixed bin (35));
  3    33      dcl comp_head_page_
  3    34 		    entry (fixed bin (31));
  3    35      dcl comp_hft_ctls_ entry (fixed bin);
  3    36      dcl comp_hft_ctls_$title
  3    37 		    entry (ptr, ptr, char (*) var, fixed bin (31));
  3    38      dcl comp_init_$one entry;
  3    39      dcl comp_init_$two entry;
  3    40      dcl comp_init_$three
  3    41 		    entry;
  3    42      dcl comp_insert_ctls_
  3    43 		    entry (fixed bin);
  3    44      dcl comp_make_page_
  3    45 		    entry (fixed bin, bit (1));
  3    46      dcl comp_make_page_$cleanup
  3    47 		    entry;
  3    48      dcl comp_measure_  entry (char (1020) var, ptr, bit (1), bit (1), bit (6),
  3    49 		    fixed bin (31), ptr, ptr, ptr);
  3    50      dcl comp_read_$name
  3    51 		    entry (char (*) var, fixed bin (21), fixed bin (21),
  3    52 		    ptr) returns (char (*) var);
  3    53      dcl comp_read_$number
  3    54 		    entry (char (*) var, (*) fixed bin (31),
  3    55 		    fixed bin (21), fixed bin (21), ptr, fixed bin (35))
  3    56 		    returns (fixed bin (31));
  3    57      dcl comp_read_$line
  3    58 		    entry (ptr, char (*) var, bit (1));
  3    59      dcl comp_report_   entry (fixed bin, fixed bin (35), char (*), ptr,
  3    60 		    char (*) var);
  3    61      dcl comp_report_$ctlstr
  3    62 		    entry options (variable);
  3    63 /****		 (sev, code, info, line, ctl_str, args... */
  3    64      dcl comp_report_$exact
  3    65 		    entry (char (*), ptr);
  3    66      dcl comp_space_    entry (fixed bin (31), ptr, bit (1), bit (1), bit (1),
  3    67 		    bit (1));
  3    68      dcl comp_tbl_ctls_ entry (fixed bin);
  3    69      dcl comp_title_block_
  3    70 		    entry (ptr);
  3    71      dcl comp_update_symbol_
  3    72 		    entry (bit (1), bit (1), bit (1), char (32),
  3    73 		    char (*) var);
  3    74      dcl comp_use_ref_  entry (char (*) var, bit (1), bit (1), ptr);
  3    75      dcl comp_util_$add_text
  3    76 		    entry (ptr, bit (1), bit (1), bit (1), bit (1), ptr);
  3    77      dcl comp_util_$display
  3    78 		    entry (char (*) var, fixed bin, bit (1))
  3    79 		    returns (char (*) var);
  3    80      dcl comp_util_$escape
  3    81 		    entry (char (*) var, ptr);
  3    82      dcl comp_util_$getblk
  3    83 		    entry (fixed bin, ptr, char (2), ptr, bit (1));
  3    84      dcl comp_util_$num_display
  3    85 		    entry (ptr, fixed bin) returns (char (256) var);
  3    86      dcl comp_util_$pageno
  3    87 		    entry (fixed bin, char (*) var);
  3    88      dcl comp_util_$pictures		/* emit pending pictures */
  3    89 		    entry		/**/
  3    90 		    (ptr);	/* current text block */
  3    91      dcl comp_util_$pop entry (char (32));
  3    92      dcl comp_util_$push
  3    93 		    entry (char (32));
  3    94      dcl comp_util_$relblk
  3    95 		    entry (fixed bin, ptr);
  3    96      dcl comp_util_$replace_text
  3    97 		    entry (ptr, bit (1), ptr, ptr);
  3    98      dcl comp_util_$search_tree
  3    99 		    entry (char (32), bit (1));
  3   100      dcl comp_util_$set_bin
  3   101 		    entry (fixed bin (31), char (32) var, fixed bin (31),
  3   102 		    fixed bin (31), fixed bin (31), (*) fixed bin (31),
  3   103 		    fixed bin (31));
  3   104      dcl comp_util_$set_net_page
  3   105 		    entry (bit (1));
  3   106      dcl comp_util_$translate
  3   107 		    entry (char (*) var) returns (char (*) var);
  3   108      dcl comp_write_block_
  3   109 		    entry (fixed bin);
  3   110      dcl comp_write_page_
  3   111 		    entry;
  3   112
  3   113 /*	END INCLUDE FILE comp_entries.incl.pl1	*/
     1007
  4     1 /*	BEGIN INCLUDE FILE comp_fntstk.incl.pl1	*/
  4     2
  4     3 /* format: style2,ind2,ll79,dclind4,idind15,comcol41,linecom */
  4     4
  4     5      dcl fntstk_eptr    ptr;		/* font stack entry structure */
  4     6      dcl 1 fntstk_entry aligned based (fntstk_eptr),
  4     7 	 2 bachelor   bit (1),	/* 1= has no members */
  4     8 	 2 devfnt	    fixed bin,	/* font in the device */
  4     9 	 2 fam_name   char (32),	/* family name */
  4    10 	 2 famndx	    fixed bin,	/* family index */
  4    11 	 2 fntptr	    ptr,		/* font table pointer */
  4    12 	 2 mem_name   char (32),	/* /member name (or null) */
  4    13 	 2 memndx	    fixed bin,	/* member index */
  4    14 	 2 memptr	    ptr,		/* member table pointer */
  4    15 	 2 name	    char (65) var,	/* font name */
  4    16 	 2 size	    fixed bin (31), /* requested point size */
  4    17 	 2 ps	    fixed bin (31), /* effective point size */
  4    18 	 2 fcs_str    char (8);	/* FCS string */
  4    19
  4    20 /*	END INCLUDE FILE comp_fntstk.incl.pl1	*/
     1008
  5     1 /*	BEGIN INCLUDE FILE comp_font.incl.pl1			       */
  5     2
  5     3 /* Fonts already loaded into the compose (pdir) database */
  5     4
  5     5 /* format: style2,ind2,ll79,dclind4,idind15,comcol41,linecom */
  5     6
  5     7      dcl 1 fnttbldata   aligned based (const.fnttbldata_ptr),
  5     8 	 2 count	    fixed bin,	/* number of fonts loaded */
  5     9 	 2 ndx	    fixed bin,	/* index of current font */
  5    10 	 2 medsel_ptr ptr,		/* -> media select table */
  5    11 	 2 ptr	    (100) ptr;	/* 100 fonts should be plenty! */
  5    12
  5    13      dcl fnttbl_ptr	    ptr init (null);
  5    14      dcl 1 fnttbl	    aligned based (fnttbl_ptr),
  5    15 	 2 min_wsp    fixed bin,	/* min wordspace - in strokes	       */
  5    16 	 2 avg_wsp    fixed bin,	/* nominal wordspace - in strokes */
  5    17 	 2 max_wsp    fixed bin,	/* max wordspace - in strokes	*/
  5    18 	 2 rel_units  fixed bin,	/* stroke value for this font */
  5    19 	 2 siztbl_ptr ptr,		/* -> loaded size table */
  5    20 	 2 entry			/* stack entry for this font */
  5    21 		    like fntstk_entry,
  5    22 	 (			/* for each font character */
  5    23 	 2 devfnt	    fixed bin,	/* font in the device */
  5    24 	 2 replptr    ptr,		/* replacement string ptrs */
  5    25 	 2 units	    fixed bin,	/* width in strokes */
  5    26 	 2 white	    bit (1) unal	/* white space flags */
  5    27 	 )	    dimension (0:511);
  5    28
  5    29      dcl repl_str_ptr   ptr;		/* replacement strings */
  5    30      dcl 1 repl_str	    based (repl_str_ptr),
  5    31 	 2 len	    fixed bin (35),
  5    32 	 2 str	    char (256);
  5    33      dcl replstr	    char (256) var based (repl_str_ptr);
  5    34 				/* media select strings */
  5    35 				/* (indexed on fnttbldata.ndx) */
  5    36      dcl medsel	    (100) char (12) based (fnttbldata.medsel_ptr);
  5    37
  5    38      dcl 1 siztbl	    based (fnttbl.siztbl_ptr),
  5    39 	 2 ct	    fixed bin,	/* number of sizes */
  5    40 	 2 size	    (siztbl.ct) fixed bin (31);
  5    41
  5    42 /* This is the storage referred by family.member_r in comp_dvt
  5    43*
  5    44*   If member.count is 1 and member.name(1) is null, then the font is a
  5    45*   'bachelor'.
  5    46*
  5    47*   The font stack will hold the family/member names which were used to
  5    48*   originally get to the font. When a bachelor is accessed, the member name
  5    49*   will remain but the bachelor flag will be set to tell any displayers not
  5    50*   to include it.
  5    51*
  5    52*   %FontName% will contain either "family" or "family/member" depending on
  5    53*   the setting of the bachelor switch. */
  5    54
  5    55      dcl member_ptr	    ptr;
  5    56      dcl 1 member	    based (member_ptr),
  5    57 	 2 count	    fixed bin,	/* # members present	       */
  5    58 	 2 e	    (member.count), /* members defined for this device   */
  5    59 	   3 font_r   bit (18) unal,	/* font character table relptr       */
  5    60 	   3 size_r   bit (18) aligned,
  5    61 				/* point size list relptr            */
  5    62 	   3 Scalex   fixed bin (35), /* X (hor) scaling * 1e8 - FUTURE    */
  5    63 	   3 Scaley   fixed bin (35), /* Y (ver) scaling * 1e8 - FUTURE    */
  5    64 	   3 name	    char (32);	/* member name		       */
  5    65
  5    66 /* Storage referred by member.font_r */
  5    67      dcl font_ptr	    ptr;
  5    68      dcl 1 font	    based (font_ptr),
  5    69          ( 2 oput_r,		/* offset of output data array */
  5    70 	 2 units_r		/* offset of width array */
  5    71 	 )	    bit (18) aligned,
  5    72 	 2 rel_units  fixed bin,	/* stroke value for this table  */
  5    73 	 2 footsep    char (1),	/* footref separator */
  5    74 	 2 fill	    char (3),
  5    75 	 2 min_wsp    fixed bin,	/* min wordspace */
  5    76 	 2 avg_wsp    fixed bin,	/* nominal wordspace */
  5    77 	 2 max_wsp    fixed bin;	/* max wordspace */
  5    78
  5    79 /* storage referred by font.units_r */
  5    80      dcl units_ptr	    ptr;		/* width in strokes */
  5    81      dcl units	    (0:511) fixed bin based (units_ptr);
  5    82
  5    83 /* media select table in the device table */
  5    84      dcl medsel_table_ptr
  5    85 		    ptr;
  5    86      dcl 1 medsel_table based (medsel_table_ptr),
  5    87 	 2 count	    fixed bin,
  5    88 	 2 ref_r	    (medsel_table.count) bit (18) aligned;
  5    89
  5    90 /* storage referred by font.oput_r */
  5    91      dcl oput_p	    ptr;
  5    92      dcl 1 oput	    based (oput_p),
  5    93 	 2 data_ct    fixed bin,	/* highest char defined */
  5    94 	 2 e	    (0:oput.data_ct),
  5    95 	   3 which		/* index into view array */
  5    96 		    fixed bin (17) unal,
  5    97 	   3 what_r		/* output string */
  5    98 		    bit (18) unal;
  5    99
  5   100 /* storage referred by member.size_r */
  5   101
  5   102      dcl sizel_p	    ptr;
  5   103      dcl 1 sizel	    based (sizel_p),/* list of allowed point sizes       */
  5   104 	 2 val_ct	    fixed bin,
  5   105 	 2 val	    (sizel.val_ct) fixed bin (31);
  5   106
  5   107 /* storage referred by oput.what_r */
  5   108
  5   109      dcl medchar_sel_p  ptr;		/* MediaChar select string */
  5   110      dcl 1 medchar_sel  based (medchar_sel_p),
  5   111 	 2 str_l	    fixed bin,
  5   112 	 2 str	    char (medchar_sel.str_l);
  5   113      dcl medchar	    char (medchar_sel.str_l) var based (medchar_sel_p);
  5   114
  5   115      dcl med_sel_p	    ptr;		/* media select string */
  5   116      dcl 1 med_sel	    based (med_sel_p),
  5   117 	 2 str_l	    fixed bin,
  5   118 	 2 str	    char (med_sel.str_l);
  5   119
  5   120 /*	END INCLUDE FILE comp_font.incl.pl1	*/
     1009
  6     1 /* BEGIN INCLUDE FILE comp_hwrd_data.incl.pl1	*/
  6     2
  6     3      dcl	   1 hwrd_data	      aligned based (shared.hwrd_data_ptr),
  6     4 	     2 count	      fixed bin,		/* number of words */
  6     5 	     2 e		      (100),		/* list entries */
  6     6 	       3 hpts	      bit (288),		/* hyphenation points */
  6     7 	       3 brkpts	      bit (288),		/* word break points */
  6     8 	       3 word	      char (256);		/* the word */
  6     9
  6    10 /* END INCLUDE FILE comp_hwrd_data.incl.pl1	*/
     1010
  7     1 /* BEGIN INCLUDE FILE - comp_metacodes.incl.pl1 */
  7     2
  7     3 /* format: style2,ind2,ll79,dclind4,idind25,comcol51,linecom */
  7     4
  7     5 /* ASCII control characters */
  7     6      dcl (
  7     7          NUL		    init (""),	/* 000 */
  7     8          SOH		    init (""),	/* 001 */
  7     9          STX		    init (""),	/* 002 */
  7    10          ETX		    init (""),	/* 003 */
  7    11          EOT		    init (""),	/* 004 */
  7    12          ENQ		    init (""),	/* 005 */
  7    13          ACK		    init (""),	/* 006 */
  7    14          BEL		    init (""),	/* 007 */
  7    15          BSP		    init (""),	/* 010 */
  7    16          HT		    init ("	"),
  7    17 					/* 011 */
  7    18          (NL, LF)		    init ("
  7    19 "),					/* 012 */
  7    20          VT		    init (""),					/* 013 */
  7    21          FF		    init (""),					/* 014 */
  7    22          CR		    init (""),	/* 015 */
  7    23          (RRS, SO)		    init (""),	/* 016 */
  7    24          (BRS, SI)		    init (""),	/* 017 */
  7    25          DLE		    init (""),	/* 020 */
  7    26          DC1		    init (""),	/* 021 */
  7    27          (DC2, HLF, HUGE)	    init (""),	/* 022 */
  7    28          DC3		    init (""),	/* 023 */
  7    29          (DC4, HLR, THICK)	    init (""),	/* 024 */
  7    30          (NAK, MEDIUM)	    init (""),	/* 025 */
  7    31          SYN		    init (""),	/* 026 */
  7    32          (ETB, HAIR)	    init (""),	/* 027 */
  7    33          (CAN, STROKE)	    init (""),	/* 030 */
  7    34          oct031		    init (""),	/* 031 */
  7    35          SUB		    init (""),	/* 032 */
  7    36          ESC		    init (""),	/* 033 */
  7    37          FS		    init (""),	/* 034 */
  7    38          GS		    init (""),	/* 035 */
  7    39          RS		    init (""),	/* 036 */
  7    40          US		    init (""),	/* 037 */
  7    41          (DEL, PAD)		    init (""),	/* 177 */
  7    42 					/* compose meta-characters */
  7    43          multiply		    init ("ª"),	/* 252 - multiply symbol */
  7    44          pl_mi		    init ("«"),	/* 253 - plus/minus sign */
  7    45          nabla		    init ("¬"),	/* 254 */
  7    46          EMdash		    init ("­"),	/* 255 - EM dash */
  7    47          slash		    init ("¯"),	/* 256 */
  7    48          dagger		    init ("±"),	/* 261 */
  7    49          perpen		    init ("»"),	/* 273 - perpendicular mark */
  7    50          not_eq		    init ("½"),	/* 275 - not-equal mark */
  7    51          dbldag		    init ("Á"),	/* 301 - double daggar */
  7    52          cright		    init ("Ã"),	/* 303 - copyright mark */
  7    53          delta		    init ("Ä"),	/* 304 */
  7    54          bullet		    init ("Í"),	/* 315 */
  7    55          prll		    init ("Î"),	/* 316 - parallel mark */
  7    56          PI		    init ("Ð"),	/* 320 - uppercase Greek pi */
  7    57          tmark		    init ("Ô"),	/* 324 - trademark */
  7    58          tfore		    init ("Ö"),	/* 326 - therefore mark */
  7    59          approx		    init ("Ú"),	/* 332 - approximately-equal mark */
  7    60          infin		    init ("ß"),	/* 337 - infinity */
  7    61          theta		    init ("ê"),	/* 352 */
  7    62          pi		    init ("ð"),	/* 360 - lowercase Greek pi */
  7    63          square		    init ("ý"),	/* 375 */
  7    64          overbar		    init ("þ"),	/* 376 */
  7    65          PS		    init ("ÿ"),	/* 377 - punctuation space */
  7    66          sup0		    init (""),	/* 400 - superior digit 0 */
  7    67          sup1		    init (""),	/* 401 - superior digit 1 */
  7    68          sup2		    init (""),	/* 402 - superior digit 2 */
  7    69          sup3		    init (""),	/* 403 - superior digit 3 */
  7    70          sup4		    init (""),	/* 404 - superior digit 4 */
  7    71          sup5		    init (""),	/* 405 - superior digit 5 */
  7    72          sup6		    init (""),	/* 406 - superior digit 6 */
  7    73          sup7		    init (""),	/* 407 - superior digit 7 */
  7    74          sup8		    init (""),	/* 410 - superior digit 8 */
  7    75          sup9		    init ("	"),	/* 411 - superior digit 9 */
  7    76          EM		    init ("
"),	/* 412 - EM space */
  7    77          EM_		    init (""),	/* 413 - EM aligned dash */
  7    78          EN		    init (""),	/* 414 - EN space */
  7    79          EN_		    init (""),	/* 415 - EN aligned dash */
  7    80          ENd		    init (""),	/* 416 - EN dash */
  7    81          THIN		    init (""),	/* 417 - thinspace */
  7    82          DEVIT		    init (""),	/* 420 - device unit */
  7    83          lquote		    init (""),	/* 421 - left double quote */
  7    84          rquote		    init (""),	/* 422 - right double quote */
  7    85          modmark		    init (""),	/* 424 - text modification/addition mark */
  7    86          delmark		    init (""),	/* 430 - deletion mark */
  7    87          vrule		    init ("Z"),	/* 532 - vertical rule */
  7    88          lslnt		    init ("^")	/* 536 - left slant */
  7    89          )		    char (1) unaligned static options (constant);
  7    90
  7    91 /* END INCLUDE FILE  comp_metacodes.incl.pl1  */
     1011
  8     1 /*	BEGIN INCLUDE FILE comp_shared.incl.pl1	*/
  8     2
  8     3 /* format: style2,ind2,ll79,dclind4,idind15,comcol41,linecom */
  8     4
  8     5      dcl shared_version fixed bin (35) static options (constant) init (17);
  8     6
  8     7      dcl 1 shared	    aligned based (const.shared_ptr),
  8     8 	 2 version    fixed bin (35), /* version of this structure */
  8     9 	 2 chars,
  8    10 	 ( 3 sym_delim,		/* delimiter for symbols */
  8    11 	   3 ttl_delim,		/* delimiter for title parts */
  8    12 	   3 wrd_brkr		/* word break character */
  8    13 	   )	    char (1) unal,
  8    14 	   3 PAD	    char (1) unal,
  8    15 	 2 cbar_type  char (4) var,	/* change bar type */
  8    16 	 2 dot_add_letter		/* dot page add letter */
  8    17 		    char (1) var,
  8    18 	 2 EN_width   fixed bin (31), /* width of EN in current font */
  8    19 	 2 eqn_refct  fixed bin,	/* equation reference counter */
  8    20 	 2 footref_fcs		/* footnote ref FCS string */
  8    21 		    char (8) aligned,
  8    22 	 2 ftn_reset  char (8) var,	/* footnote reset mode */
  8    23 	 2 ftnrefct   fixed bin,	/* footnote ref counter */
  8    24 	 2 hyph_size  fixed bin (31), /* least word part size for hyphing */
  8    25 	 2 if_nest,		/* if/then/else logic control */
  8    26 	   3 ndx	    fixed bin,	/* depth of logic nest */
  8    27 	   3 e	    (25),		/* nest entries */
  8    28 				/* .if control switch */
  8    29 	     4 sw	    fixed bin,	/* 0=off, 1=(then), -1=(else) */
  8    30 	     4 info   aligned like text_entry.info,
  8    31 	     4 line   char (256) var, /* the control line */
  8    32 	 2 indctl,		/* indent ctls stack */
  8    33 	   3 ndx	    fixed bin,	/* current level */
  8    34 				/* switch bits */
  8    35 	   3 stk	    (0:35) bit (1) unal,
  8    36 	 2 input_dirname
  8    37 		    char (168) var, /* dir containing current input file */
  8    38 	 2 input_filename
  8    39 		    char (200) var, /* current input file name */
  8    40 	 2 lead	    fixed bin (31), /* current linespacing value */
  8    41 	 2 lit_count  fixed bin (35), /* count of literal lines */
  8    42 	 2 next_pagenmbr
  8    43 		    char (32) var,	/* next page number / */
  8    44 	 2 output_file
  8    45 		    char (32) var,	/* output file identifier */
  8    46 	 2 pagecount  fixed bin,	/* number of pages produced */
  8    47 	 2 pagenum,		/* page number structure */
  8    48 	   3 index    fixed bin,	/* level currently counting */
  8    49 	   (
  8    50 	   3 sep	    char (1) unal,	/* separator chars */
  8    51 	   3 nmbr	    fixed bin (31), /* the counters */
  8    52 	   3 mode			/* display modes */
  8    53 		    fixed bin (8) unal
  8    54 	   )	    dimension (20),
  8    55 	 2 parameter  char (254) var, /* command line parameter */
  8    56 	 2 param_pres bit (1),	/* passed parameter flag */
  8    57 	 2 pass_counter
  8    58 		    fixed bin,	/* pass counter */
  8    59 	 2 picture,		/* picture blocks */
  8    60 	   3 count    fixed bin,	/* number of them */
  8    61 	   3 space    fixed bin (31), /* total picture space */
  8    62 	   3 blk	    (10),		/* picture blocks */
  8    63 	     4 type   char (4),	/* type = page/col */
  8    64 	     4 place  char (4),	/* place = top/cen/bot */
  8    65 	     4 ptr    ptr,		/* pointer to block */
  8    66 	     4 size   fixed bin (31), /* size of the picture */
  8    67 	 2 ptrs,
  8    68 	 ( 3 aux_file_data_ptr,	/* -> auxiliary file data */
  8    69 	   3 blank_footer_ptr,	/* -> blank page footer */
  8    70 	   3 blank_header_ptr,	/* -> blank page header */
  8    71 	   3 blank_text_ptr,	/* -> blank page text */
  8    72 	   3 blkptr,		/* -> active text */
  8    73 	   3 colptr,		/* current column */
  8    74 	   3 compout_ptr,		/* iocb pointer for output */
  8    75 	   3 compx_ptr,		/* iocb pointer for compx file */
  8    76 	   3 ctb_ptr,		/* current line artwork table */
  8    77 	   3 epftrptr,		/* even page footer block */
  8    78 	   3 ephdrptr,		/* even page header block */
  8    79 	   3 fcb_ptr,		/* input file control block pointer */
  8    80 	   3 ftnblk_data_ptr,	/* footnote block data pointer */
  8    81 	   3 footnote_header_ptr,	/* footnote header "title" */
  8    82 	   3 graphic_page_ptr,	/* graphic output page */
  8    83 	   3 hit_data_ptr,		/* hit data pointer */
  8    84 	   3 htab_ptr,		/* horizontal tab tables */
  8    85 	   3 hwrd_data_ptr,		/* local hyphenation table */
  8    86 	   3 insert_ptr,		/* data entry for current input file */
  8    87 	   3 opftrptr,		/* odd page footer block */
  8    88 	   3 ophdrptr,		/* odd page header block */
  8    89 	   3 ptb_ptr,		/* previous line artwork table */
  8    90 	   3 spcl_blkptr,		/* "special" block pointer */
  8    91 	   3 tbldata_ptr,		/* table column data structure */
  8    92 	   3 tblkdata_ptr,		/* text block data array */
  8    93 	   3 text_header_ptr	/* empty text header structure */
  8    94 	   )	    ptr,
  8    95 	 2 scale,			/* space conversion scale factors */
  8    96 	   3 horz	    fixed bin (31), /* horizontal */
  8    97 	   3 vert	    fixed bin (31), /* vertical */
  8    98 	 2 source_filename
  8    99 		    char (200) var, /* current source file name */
  8   100 	 2 sws,			/* switch bits */
  8   101 	 ( 3 bug_mode,		/* debug mode */
  8   102 	   3 compout_not_headed,	/* compout is not headed */
  8   103 	   3 end_input,		/* EOF for current input file */
  8   104 	   3 end_output,		/* no more output is wanted */
  8   105 	   3 firstpass,		/* first pass over input */
  8   106 	   3 ftn_mode,		/* in footnote mode */
  8   107 	   3 hyph_mode,		/* hyphenating mode */
  8   108 	   3 inserting_hfc,		/* inserting hdr, ftr, or cap */
  8   109 	   3 literal_mode,		/* literal line mode flag */
  8   110 	   3 pageblock,		/* blocks belong to page */
  8   111 	   3 picture_mode,		/* building a picture */
  8   112 	   3 print_flag,		/* producing output */
  8   113 	   3 purge_ftns,		/* purging footnotes */
  8   114 	   3 suppress_footref,	/* suppress next footnote ref */
  8   115 	   3 table_mode		/* table mode */
  8   116 	   )	    bit (1) unal,
  8   117 	   3 MBZ	    bit (21) unal,
  8   118 	 2 trans,			/* trans table for .tr */
  8   119 	   3 in	    char (128) var, /* input chars */
  8   120 	   3 out	    char (128) var, /* output chars */
  8   121 	 2 widow_size fixed bin (31), /* widow size */
  8   122 	 2 widow_foot fixed bin (31); /* widow for footnotes */
  8   123 				/* to save shared data between files/passes */
  8   124      dcl 1 save_shared  aligned like shared based (const.save_shared_ptr);
  8   125
  8   126      dcl dot_addltr_symb_index
  8   127 		    fixed bin static options (constant) init (12);
  8   128      dcl max_text_lines fixed bin static options (constant) init (1000);
  8   129      dcl mode_string    char (16) static options (constant)
  8   130 		    init ("arbihxocalaurlru");
  8   131 				/* value overlays */
  8   132      dcl flag_value	    bit (1) based;
  8   133      dcl num_value	    fixed bin (31) based;
  8   134
  8   135 /*	END INCLUDE FILE comp_shared.incl.pl1	*/
     1012
  9     1 /* 	BEGIN INCLUDE FILE comp_text.incl.pl1	 */
  9     2
  9     3 /* format: style2,ind2,ll79,dclind4,idind15,comcol41,linecom */
  9     4
  9     5      dcl 1 tblkdata			/* data for allocated text blocks */
  9     6 		    aligned based (shared.tblkdata_ptr),
  9     7 	 2 block,			/* block pool */
  9     8 	   3 count    fixed bin,
  9     9 	   3 ptr	    (500) ptr,	/* block pointers */
  9    10 				/* block state flags */
  9    11 	   3 free	    (500) bit (1) unal,
  9    12 	 2 line_area,		/* line area pool */
  9    13 	   3 count    fixed bin,
  9    14 	   3 ptr	    (500) ptr,	/* area pointers */
  9    15 				/* area state flags */
  9    16 	   3 free	    (500) bit (1) unal,
  9    17 	 2 text_area,		/* text area pool */
  9    18 	   3 count    fixed bin,
  9    19 	   3 ptr	    (500) ptr,	/* area pointers */
  9    20 				/* area state flags */
  9    21 	   3 free	    (500) bit (1) unal,
  9    22 	   3 string_area_count
  9    23 		    fixed bin;	/* line areas */
  9    24      dcl LINE_AREA_SIZE fixed bin static options (constant) init (24);
  9    25      dcl line_area_ptr  ptr init (null);
  9    26      dcl 1 line_area    aligned based (line_area_ptr),
  9    27 	 2 next	    ptr,		/* forward thread */
  9    28 	 2 prev	    ptr,		/* backward thread */
  9    29 	 2 count	    fixed bin,	/* number of lines allocated */
  9    30 	 2 ndx	    fixed bin,	/* index of current line */
  9    31 	 2 pndx	    fixed bin,	/* area pool index */
  9    32 	 2 linptr	    (LINE_AREA_SIZE) ptr;
  9    33 				/* text areas */
  9    34      dcl TEXT_AREA_SIZE fixed bin static options (constant) init (6);
  9    35      dcl text_area_ptr  ptr init (null);
  9    36      dcl 1 text_area    aligned based (text_area_ptr),
  9    37 	 2 next	    ptr,		/* forward thread */
  9    38 	 2 count	    fixed bin,	/* number of areas allocated */
  9    39 	 2 ndx	    fixed bin,	/* index of current strarea */
  9    40 	 2 pndx	    fixed bin,	/* area pool index */
  9    41 	 2 strareaptr (TEXT_AREA_SIZE) ptr;
  9    42 				/* text string area */
  9    43      dcl string_area    (256) fixed bin based;
  9    44      dcl txtstrptr	    ptr;		/* current text string */
  9    45      dcl txtstr	    char (1020) var based (txtstrptr);
  9    46
  9    47      dcl TEXT_VERSION   fixed bin static options (constant) init (9);
  9    48 				/* general text block */
  9    49      dcl 1 text	    aligned based (shared.blkptr),
  9    50 	 2 version    fixed bin,	/* version of structure */
  9    51 	 2 blkndx	    fixed bin,	/* block data index */
  9    52 	 2 blktype    char (2),	/* block type code */
  9    53 				/* dynamic block control stuff */
  9    54 	 2 hdr	    aligned like text_header,
  9    55 				/* text read from input file */
  9    56 	 2 input	    aligned like text_entry,
  9    57 	 2 input_line char (1020) var,/* input buffer */
  9    58 	 2 line_area,
  9    59 	   3 first    ptr,		/* head of line area thread */
  9    60 	   3 cur	    ptr,		/* current line area */
  9    61 	 2 next_text  ptr,		/* next text string */
  9    62 				/* text formatting parameters */
  9    63 	 2 parms	    aligned like default_parms,
  9    64 	 2 text_area,
  9    65 	   3 first    ptr,		/* head of text area thread */
  9    66 	   3 cur	    ptr;		/* current text area */
  9    67 				/* an empty text block line */
  9    68      dcl 1 text_entry   aligned based (const.text_entry_ptr),
  9    69 	 2 sws,			/* unaligned switches, etc. */
  9    70 	   3 art	    bit (1) unal,	/* line has artwork */
  9    71 	   3 cbar,		/* change bar flags */
  9    72 	     4 add    bit (1) unal,	/* text addition flag */
  9    73 	     4 del    bit (1) unal,	/* text deletion flag */
  9    74 	     4 mod    bit (1) unal,	/* text modification flag */
  9    75 	   3 default  bit (1) unal,	/* 1 = default case as needed */
  9    76 	   3 DVctl    bit (1) unal,	/* 1 = line is a device ctl string */
  9    77 	   3 embedded bit (1) unal,	/* 1 = line has an embedded control */
  9    78 	   3 end_keep bit (1) unal,	/* 1= line ends a keep */
  9    79 	   3 fnt_chng bit (1) unal,	/* 1 = text is a font change string */
  9    80 	   3 footref  bit (1) unal,	/* 1 = line has a footnote reference */
  9    81 	   3 hanging  bit (1) unal,	/* 1 = a hanging undent */
  9    82 	   3 keep	    bit (1) unal,	/* 1 = unsplittable line */
  9    83 	   3 no_trim  bit (1) unal,	/* 1 = untrimmable white line */
  9    84 	   3 oflo	    bit (1) unal,	/* line causes overflow */
  9    85 	   3 punct    bit (1) unal,	/* 1 = line ends with punctuation */
  9    86 	   3 quad	    bit (6) unal,	/* text alignment flags */
  9    87 	   3 space_added		/* 1= line has added space */
  9    88 		    bit (1) unal,
  9    89 	   3 spcl,		/* special entry - not output text */
  9    90 	     4 file   bit (1) unal,	/* 1= output to special file */
  9    91 	     4 blk_splt		/* 1= action at block split time */
  9    92 		    bit (1) unal,
  9    93 	     4 page_mkup		/* 1= action at page makeup time */
  9    94 		    bit (1) unal,
  9    95 	   3 table    bit (1) unal,	/* 1= line is a table entry */
  9    96 	   3 tblspc   bit (1) unal,	/* 1= WS fill for table mode */
  9    97 	   3 title    bit (1) unal,	/* 1= line is a <title> */
  9    98 	   3 unspnct  bit (1) unal,	/* 1= underscore punctuation */
  9    99 	   3 unstop   bit (1) unal,	/* 1= line is/ends with UNSTOP */
  9   100 	   3 unstrt   bit (1) unal,	/* 1= line is/ends with UNSTART */
  9   101 	   3 unswrds  bit (1) unal,	/* 1= underscore words only */
  9   102 	   3 white    bit (1) unal,	/* 1= line is white space */
  9   103 	   3 und_prot bit (1) unal,	/* 1= undent is protected */
  9   104 	   3 MBZ	    bit (4) unal,
  9   105 	 2 art_start  fixed bin unal, /* start of art string in line */
  9   106 	 2 art_len    fixed bin unal, /* length of art string in line */
  9   107 	 2 cbar_level		/* change level for cbars */
  9   108 		    char (1) aligned,
  9   109 	 2 cur,			/* current scanning data for line */
  9   110 	   3 chrct    fixed bin,	/* count of chars scanned */
  9   111 	   3 gaps	    fixed bin,	/* gap count */
  9   112 	   3 width    fixed bin (31), /* width of font chars */
  9   113 	   3 min	    fixed bin (31), /* width of min spbnds */
  9   114 	   3 avg	    fixed bin (31), /* width of avg spbnds */
  9   115 	   3 max	    fixed bin (31), /* width of max spbnds */
  9   116 	   3 font	    like fntstk_entry,
  9   117 	 2 depth	    fixed bin (31), /* page depth for line */
  9   118 				/* font at start of line */
  9   119 	 2 font	    like fntstk_entry,
  9   120 	 2 index	    fixed bin (21), /* char index for line scanning */
  9   121 	 2 info,			/* stuff created during line input */
  9   122 	   3 fileno   fixed bin,	/* input file index */
  9   123 	   3 lineno   fixed bin,	/* input file line number */
  9   124 	   3 lineno0  fixed bin,	/* call_box0 line number */
  9   125 	 2 linespace  fixed bin (31), /* linespace value for the line */
  9   126 	 2 lmarg	    fixed bin (31), /* adjusted left margin position */
  9   127 	 2 mod_len    fixed bin,	/* length of modified text */
  9   128 	 2 mod_start  fixed bin,	/* index for start of modified text */
  9   129 	 2 net	    fixed bin (31), /* net line width for filling */
  9   130 	 2 ptr	    ptr,		/* pointer to the actual text */
  9   131 	 2 rmarg	    fixed bin (31), /* adjusted right margin position */
  9   132 	 2 spcl_iocbp ptr,		/* iocb ptr for spcl line */
  9   133 	 2 sym_delim  char (1) unal,	/* symbol delimiter for this line */
  9   134 	 2 tblcol	    fixed bin,	/* column for table entries */
  9   135 	 2 title_delim
  9   136 		    char (1) unal,	/* title delimiter if a <title> */
  9   137 	 2 title_index
  9   138 		    fixed bin,	/* <title> block index for line */
  9   139 	 2 width	    fixed bin (31), /* width of text */
  9   140 	 2 ftn,			/* footnote info for line */
  9   141 	   3 ct	    fixed bin,	/* number of footnote refs */
  9   142 	   3 used	    fixed bin (31), /* space used */
  9   143 	   3 e	    (40),		/* limit is arbitrary */
  9   144 	     4 blkndx fixed bin unal, /* block index of footnote - if this
  9   145*				   value is 0, then .frf was used */
  9   146 	     4 refno  fixed bin unal; /* reference number */
  9   147
  9   148      dcl (
  9   149          quadi	    init ("40"b3),	/* set to the inside margin */
  9   150          quado	    init ("20"b3),	/* set to the outside margin */
  9   151          quadl	    init ("10"b3),	/* set left */
  9   152          quadc	    init ("04"b3),	/* set centered */
  9   153          quadr	    init ("02"b3),	/* set right */
  9   154          just	    init ("01"b3)	/* justified */
  9   155          )	    bit (6) static options (constant);
  9   156 				/* control line structure */
  9   157      dcl 1 ctl	    aligned like text_entry based (const.ctl_ptr);
  9   158      dcl ctl_line	    char (1020) var based (ctl.ptr);
  9   159
  9   160      dcl txtlinptr	    ptr;		/* the current text line */
  9   161      dcl 1 txtlin	    aligned like text_entry based (txtlinptr);
  9   162 				/* empty text header structure */
  9   163      dcl 1 text_header  aligned based (const.text_header_ptr),
  9   164 	 2 sws,			/* control switches */
  9   165 	   3 art	    bit (1) unal,	/* block has artwork */
  9   166 	   3 dfrftn   bit (1) unal,	/* block is a deferred footnote */
  9   167 	   3 modified bit (1) unal,	/* block contains modified lines */
  9   168 	   3 no_trim  bit (1) unal,	/* 1 = dont trim WS block */
  9   169 	   3 oflo_ftn bit (1) unal,	/* overflow footnote */
  9   170 	   3 tblblk   bit (1) unal,	/* a table block */
  9   171 	   3 unref    bit (1) unal,	/* block is an unreffed footnote */
  9   172 	   3 white    bit (1) unal,	/* block is a white space block */
  9   173 	   3 picture  bit (1) unal,	/* picture block */
  9   174 	   3 orphan   bit (1) unal,	/* 1= footnote is an orphan */
  9   175 	   3 MBZ	    bit (26) unal,
  9   176 	 2 art_count  fixed bin unal, /* to count input art lines */
  9   177 	 2 blkptr	    ptr,		/* pointer to suspended block */
  9   178 	 2 cap_size   fixed bin unal, /* line count of text caption */
  9   179 	 2 cap_used   fixed bin (31), /* size of text caption */
  9   180 	 2 colno	    fixed bin unal, /* column owning the block */
  9   181 	 2 count	    fixed bin unal, /* line count for block */
  9   182 	 2 eqn_line_count
  9   183 		    fixed bin unal, /* counter for equation lines */
  9   184 	 2 first_text fixed bin unal, /* OBSOLETE */
  9   185 	 2 ftn,			/* footnotes */
  9   186 	   3 ct	    fixed bin,	/* count */
  9   187 	   3 usd	    fixed bin (31), /* space used */
  9   188 	   3 blkndx   (40) fixed bin, /* footnote block index values */
  9   189 	 2 head_size  fixed bin,	/* line count of text header */
  9   190 	 2 head_used  fixed bin (31), /* size of text header */
  9   191 	 2 index	    fixed bin unal, /* block index of next output line */
  9   192 	 2 keep_count fixed bin unal, /* to count input keep lines */
  9   193 	 2 last_line  fixed bin,	/* last text line in column */
  9   194 	 2 mx_ttl_ndx fixed bin,	/* max title index value in block */
  9   195 	 2 name	    char (32) var,	/* block name, if any */
  9   196 	 2 nofill_count		/* to count nofill lines */
  9   197 		    fixed bin,
  9   198 	 2 parms_ptr  ptr,		/* parms for suspended block */
  9   199 	 2 refer	    fixed bin,	/* inter-block reference */
  9   200 	 2 refer_index		/* OBSOLETE */
  9   201 		    fixed bin,	/* a reference */
  9   202 	 2 split	    fixed bin,	/* split point for balancing */
  9   203 	 2 trl_ws	    fixed bin (31), /* trailing WS */
  9   204 	 2 used	    fixed bin (31); /* page space used by a column/block */
  9   205 				/* text formatting parameters */
  9   206      dcl 1 text_parms   aligned like default_parms
  9   207 		    based (const.text_parms_ptr);
  9   208
  9   209      dcl 1 current_parms
  9   210 		    aligned like default_parms
  9   211 		    based (const.current_parms_ptr);
  9   212
  9   213      dcl 1 default_parms
  9   214 		    aligned based (const.default_parms_ptr),
  9   215 	 2 sws,			/* control switches */
  9   216 	   3 quad	    bit (6) unal,	/* text alignment mode */
  9   217 	   3 art	    bit (1) unal,	/* 1 = block countains artwork */
  9   218 	   3 cbar,		/* change bar flags */
  9   219 	     4 add    bit (1) unal,	/* text addition flag */
  9   220 	     4 del    bit (1) unal,	/* text deletion flag for next line */
  9   221 	     4 mod    bit (1) unal,	/* text modification flag */
  9   222 	   3 fill_mode
  9   223 		    bit (1) unal,	/* 1 = fill mode ON */
  9   224 	   3 footnote bit (1) unal,	/* block is a footnote */
  9   225 	   3 hfc	    bit (1) unal,	/* OBSOLETE */
  9   226 	   3 htab_mode
  9   227 		    bit (1) unal,	/* 1 = horizontal tab mode ON */
  9   228 	   3 keep	    bit (1) unal,	/* keep mode */
  9   229 	   3 page	    bit (1) unal,	/* block belongs to page, not text */
  9   230 	   3 title_mode
  9   231 		    bit (1) unal,	/* 0 = plain text, 1 = <title>s OK */
  9   232 	   3 MBZ	    bit (19) unal,
  9   233 	 2 ftrptr	    ptr,		/* text caption block */
  9   234 	 2 cbar_level		/* change level for cbars */
  9   235 		    char (1) aligned,
  9   236 	 2 hdrptr	    ptr,		/* text header block */
  9   237 	 2 left,			/* left margin data */
  9   238 	   3 indent   fixed bin (31),
  9   239 	   3 undent   fixed bin (31),
  9   240 	 2 linespace  fixed bin (31), /* line spacing value */
  9   241 	 2 measure    fixed bin (31), /* line space for text */
  9   242 				/* right margin data */
  9   243 	 2 right	    like default_parms.left,
  9   244 	 2 fntstk,		/* stack of last 20 font changes */
  9   245 	   3 index    fixed bin,	/* which one in use */
  9   246 				/* entry(0) is the default */
  9   247 	   3 entry    (0:19) like fntstk_entry;
  9   248
  9   249      dcl hfcblk_ptr	    ptr;
  9   250      dcl 1 hfcblk	    aligned like text based (hfcblk_ptr);
  9   251
  9   252 /*	END INCLUDE FILE comp_text.incl.pl1	*/
     1013
 10     1 /*	BEGIN INCLUDE FILE comp_tree.incl.pl1	*/
 10     2
 10     3 /* format: style2,ind2,ll79,dclind4,idind15,comcol41,linecom */
 10     4
 10     5      dcl 1 tree			/* symbol tree structure */
 10     6 		    based (const.tree_ptr) aligned,
 10     7          ( 2 align_mode,		/* current text alignment mode */
 10     8 	 2 art_mode,		/* artwork mode */
 10     9 	 2 block_index,		/* current block index */
 10    10 	 2 block_name,		/* name of current block */
 10    11 	 2 bottom_margin,		/* page bottom margin */
 10    12 	 2 calling_file_name,	/* caller of inserted file */
 10    13 	 2 callers_lineno,		/* lineno of .ifi in calling file */
 10    14 	 2 devclass,		/* DeviceClass */
 10    15 	 2 devname,		/* DeviceName */
 10    16 	 2 dot_addltr,		/* add letter of dot page */
 10    17 	 2 equation_mode,		/* equation mode */
 10    18 	 2 fill_mode,		/* text filling mode */
 10    19 	 2 fontname,		/* fontname function */
 10    20 	 2 footer_margin,		/* page footer margin function */
 10    21 	 2 frontpage,		/* front page flag function */
 10    22 	 2 head_space,		/* head space function */
 10    23 	 2 header_margin,		/* page header margin function */
 10    24 	 2 keep_mode,		/* block splitting mode */
 10    25 	 2 left_indent,		/* left margin indention */
 10    26 	 2 left_undent,		/* left margin adjustment */
 10    27 	 2 line_input,		/* line input function */
 10    28 	 2 linesleft,		/* lines left function */
 10    29 	 2 linespace,		/* linespace function */
 10    30 	 2 measure_bif,		/* measure function */
 10    31 	 2 next_pageno,		/* next page number */
 10    32 	 2 pagecount,		/* total page count function */
 10    33 	 2 pagelines,		/* line number on page function */
 10    34 	 2 page_length,		/* current page length function */
 10    35 	 2 pageno,		/* page number function */
 10    36 	 2 pointsize,		/* pointsize function */
 10    37 	 2 right_indent,		/* right margin indention */
 10    38 	 2 right_undent,		/* right margin adjustment */
 10    39 	 2 symbol_delimiter,	/* symbol delimiter function */
 10    40 	 2 text_depth,		/* text depth function */
 10    41 	 2 text_lineno,		/* input file line number for output_line */
 10    42 	 2 text_width,		/* text width function */
 10    43 	 2 title_delimiter,		/* title delimiter function */
 10    44 	 2 top_margin,		/* page top margin function */
 10    45 	 2 trans,			/* translation table for .trf */
 10    46 	 2 userinput		/* terminal insert function */
 10    47 	 )	    label,	/**/
 10    48 				/* VARIABLE TABLES */
 10    49 	 2 count	    fixed bin,	/* variable areas allocated */
 10    50 	 2 areandx    fixed bin,	/* current area */
 10    51 				/* entry count per area */
 10    52 	 2 entry_ct   (MAX_TREE_AREAS) fixed bin,
 10    53 	 2 entryndx   fixed bin,	/* current entry in area */
 10    54 	 (			/* storage area pointers */
 10    55 	 2 flag_ptr,		/* flags */
 10    56 	 2 name_ptr,		/* names */
 10    57 	 2 num_ptr,		/* number values */
 10    58 	 2 incr_ptr,		/* counter increments */
 10    59 	 2 var_ptr		/* variable structures */
 10    60 	 )	    ptr dimension (MAX_TREE_AREAS);
 10    61 				/* flag values */
 10    62      dcl tree_flags	    (MAX_TREE_AREA_CT) bit (1) aligned
 10    63 		    based (tree.flag_ptr (tree.areandx));
 10    64 				/* counter increment values */
 10    65      dcl tree_incrs	    (MAX_TREE_AREA_CT) fixed bin (31)
 10    66 		    based (tree.incr_ptr (tree.areandx));
 10    67 				/* variable names */
 10    68      dcl tree_names_ptr ptr init (null);
 10    69      dcl tree_names	    (MAX_TREE_AREA_CT) char (32) unal
 10    70 		    based (tree_names_ptr);
 10    71 				/* numeric values */
 10    72      dcl tree_nums	    (MAX_TREE_AREA_CT) fixed bin (31)
 10    73 		    based (tree.num_ptr (tree.areandx));
 10    74
 10    75      dcl tree_var_ptr   ptr init (null);/* variable entry structures */
 10    76      dcl 1 tree_var	    (MAX_TREE_AREA_CT) aligned based (tree_var_ptr),
 10    77 	 2 flags	    bit (9) aligned,/* type flags */
 10    78 	 2 mode	    fixed bin,	/* numeric display mode */
 10    79 	 2 flag_loc   ptr,		/* flag value pointer */
 10    80 	 2 num_loc    ptr,		/* num value pointer */
 10    81 	 2 incr_loc   ptr,		/* num increment pointer */
 10    82 	 2 str_loc    ptr;		/* str value pointer */
 10    83
 10    84 /* END INCLUDE FILE comp_tree.incl.pl1	*/
     1014
 11     1 /* BEGIN INCLUDE FILE compstat.incl.pl1 - external static data for compose
 11     2*
 11     3*   This storage is converted from external (as declared) to internal by the
 11     4*   binder and contains items that must be accessible to both the bound and
 11     5*   unbound program. */
 11     6
 11     7 /* Written:  ??/??/7? - EJW
 11     8*   Modified: 10/18/84 - EJW - (First recorded change) Added current_parms_ptr
 11     9*			and removed the codes array; version 6.
 11    10**/
 11    11
 11    12 /* format: style2,ind2,ll79,dclind4,idind15,comcol41,linecom */
 11    13
 11    14      dcl 1 compstat$compconst
 11    15 		    aligned like const ext static;
 11    16
 11    17      dcl const_version  fixed bin (35) static options (constant) init (6);
 11    18      dcl MAX_TREE_AREA_CT		/* entries in a tree area */
 11    19 		    fixed bin static options (constant) init (80);
 11    20      dcl MAX_TREE_AREAS		/* number of tree areas */
 11    21 		    fixed bin static options (constant) init (20);
 11    22
 11    23      dcl 1 const	    aligned based (compstat$compconst.ptr),
 11    24 	 2 ptr	    ptr,		/* self pointer - MUST BE FIRST */
 11    25 	 2 version    fixed bin (35), /* structure version */
 11    26 	 2 art_symbols		/* string of art symbols */
 11    27 		    char (28) aligned,
 11    28 	 2 builtin_count		/* count of builtin variables */
 11    29 		    fixed bin,
 11    30 	 2 comp_dir   char (200),	/* dir in which compose lives */
 11    31 	 2 comp_version
 11    32 		    char (8) var,	/* compose version id */
 11    33 	 2 date_value char (8) var,	/* current date */
 11    34 	 2 dsm_name   char (32),	/* device support module name */
 11    35 	 2 dvt_name   char (32),	/* device table name */
 11    36 	 2 max_seg_chars
 11    37 		    fixed bin (35), /* char count in a max seg */
 11    38 	 2 null_str   char (1) var,	/* an empty string */
 11    39 	 2 ptrs,
 11    40 	 ( 3 call_stk_ptr,		/* -> insert call stack */
 11    41 	   3 colhdrptr,		/* empty column header structure */
 11    42 	   3 ctl_ptr,		/* input line structure */
 11    43 	   3 current_parms_ptr,	/* current formatting parms */
 11    44 	   3 default_parms_ptr,	/* default initial text parms */
 11    45 	   3 devptr,		/* -> comp_dvt structure */
 11    46 	   3 dvidptr,		/* -> comp_dvid structure       */
 11    47 	   3 errblk_ptr,		/* error message block pointer */
 11    48 	   3 footnote_parms_ptr,	/* footnote formatting parms */
 11    49 	   3 fnttbldata_ptr,	/* -> font table data */
 11    50 	   3 global_area_ptr,	/* per invocation storage */
 11    51 	   3 init_page_parms_ptr,	/* default initial page parms */
 11    52 	   3 insert_data_ptr,	/* insert file data block */
 11    53 	   3 local_area_ptr,	/* per file storage */
 11    54 	   3 loctbl_ptr,		/* for font copying */
 11    55 	   3 option_ptr,		/* program options block */
 11    56 	   3 outproc_ptr,		/* device writer for cleanup */
 11    57 	   3 page_ptr,		/* active page structure */
 11    58 	   3 page_header_ptr,	/* empty page header structure */
 11    59 	   3 page_parms_ptr,	/* page formatting parameter block */
 11    60 	   3 save_shared_ptr,	/* saved shared data */
 11    61 	   3 shared_ptr,		/* shared data structure */
 11    62 	   3 text_entry_ptr,	/* empty text entry structure */
 11    63 	   3 text_header_ptr,	/* empty text header structure */
 11    64 	   3 text_parms_ptr,	/* main body formatting parms */
 11    65 	   3 tree_ptr		/* symbol tree structure */
 11    66 	   )	    ptr,
 11    67 	 2 time_value char (6) var;	/* time at start */
 11    68
 11    69 /* Other external */
 11    70      dcl (
 11    71          ioa_,
 11    72          ioa_$nnl
 11    73          )	    entry options (variable);
 11    74      dcl iox_$error_output
 11    75 		    ptr ext static, /* iocb pointer for error_output */
 11    76          iox_$user_input
 11    77 		    ptr ext static, /* iocb pointer for user_input */
 11    78          iox_$user_output
 11    79 		    ptr ext static; /* iocb pointer for user_output */
 11    80      dcl sys_info$max_seg_size
 11    81 		    fixed bin (18) ext static;
 11    82
 11    83 /* END INCLUDE FILE compstat.incl.pl1 */
     1015
     1016
     1017   end comp_measure_;
	SOURCE FILES USED IN THIS COMPILATION.

LINE      NUMBER  DATE MODIFIED     NAME			PATHNAME
             0    04/23/85  0910.3  comp_measure_.pl1                 >spec>online>comp>comp_measure_.pl1
1005         1    03/01/85  1411.8  comp_DCdata.incl.pl1              >ldd>include>comp_DCdata.incl.pl1
1006         2    03/01/85  1411.9  comp_dvt.incl.pl1                 >ldd>include>comp_dvt.incl.pl1
1007         3    03/01/85  1411.9  comp_entries.incl.pl1             >ldd>include>comp_entries.incl.pl1
1008         4    03/01/85  1412.0  comp_fntstk.incl.pl1              >ldd>include>comp_fntstk.incl.pl1
1009         5    04/23/85  0912.3  comp_font.incl.pl1                >spec>online>comp>comp_font.incl.pl1
1010         6    03/01/85  1412.0  comp_hwrd_data.incl.pl1           >ldd>include>comp_hwrd_data.incl.pl1
1011         7    04/23/85  0912.3  comp_metacodes.incl.pl1           >spec>online>comp>comp_metacodes.incl.pl1
1012         8    03/01/85  1412.0  comp_shared.incl.pl1              >ldd>include>comp_shared.incl.pl1
1013         9    04/23/85  0912.6  comp_text.incl.pl1                >spec>online>comp>comp_text.incl.pl1
1014        10    03/01/85  1412.0  comp_tree.incl.pl1                >ldd>include>comp_tree.incl.pl1
1015        11    03/01/85  1412.1  compstat.incl.pl1                 >ldd>include>compstat.incl.pl1
	NAMES DECLARED IN THIS COMPILATION.

IDENTIFIER	     OFFSET    LOC STORAGE CLASS   DATA TYPE		ATTRIBUTES AND REFERENCES
								(* indicates a set context)

NAMES DECLARED BY DECLARE STATEMENT.
BSP                             010473 constant        char(1)                  initial unaligned dcl 7-6 ref 278
DC1                                    constant        char(1)                  initial unaligned dcl 7-6 ref 176 652
DCxx_p                          001224 automatic       pointer                  dcl 1-8 set ref 198* 200 203 206 209 226 229 239 239
                                                                                  241 241 251 252 265
EN                                     constant        char(1)                  initial unaligned dcl 7-6 ref 130 221 571
EN_width                  6            based           fixed bin(31,0)          level 2 dcl 8-7 ref 828 832
ENwidth                         000112 automatic       fixed bin(31,0)          dcl 63 set ref 130* 221* 574 577 577 587 590 590
PAD                             010475 constant        char(1)                  initial unaligned dcl 7-6 ref 837 849
PS                              010474 constant        char(1)                  initial unaligned dcl 7-6 ref 131 222 504 512 606
                                                                                  619 668 849
PSwidth                         000211 automatic       fixed bin(31,0)          dcl 78 set ref 131* 222* 494 494 509 512 512 614 614
                                                                                  678
Xctl                      0(13)        based           bit(2)                   level 3 packed unaligned dcl 1-11 ref 239 241
a_lmeas                                parameter       fixed bin(31,0)          dcl 26 set ref 14 102* 102* 140
a_str                                  parameter       varying char(1020)       dcl 20 set ref 14 96 97 102* 102 705* 710
addr                                                   builtin function         dcl 92 ref 198 276
afnt                                   based           structure                level 1 dcl 33 set ref 113 137
afnt_ptr                               parameter       pointer                  dcl 21 ref 14 102 102 102 113 121 137
art                                    parameter       bit(1)                   unaligned dcl 24 set ref 14 102* 272 568
art_str                                based           char(3)                  unaligned dcl 42 ref 278 282
art_str_ptr                     000100 automatic       pointer                  dcl 41 set ref 276* 278 282
art_xcep                        000000 constant        structure                level 1 packed unaligned dcl 44
art_xcep_ndx                    000102 automatic       fixed bin(17,0)          dcl 55 set ref 282* 284 287* 287 290
avg                       4            based           fixed bin(31,0)          level 2 in structure "meas2" dcl 37 in procedure
                                                                                  "comp_measure_" set ref 701* 715 715
avg                       4            based           fixed bin(31,0)          level 2 in structure "meas1" dcl 35 in procedure
                                                                                  "comp_measure_" set ref 102 102 152 686* 715 715
avg1                            000103 automatic       fixed bin(31,0)          dcl 56 set ref 152* 153 153* 153 183 183 254 254 301
                                                                                  301 343 343 356 370 388* 388 413 413 442 460 472
                                                                                  494 512 512 554* 554 609 614 635 686 701 832
avg_wsp                   1            based           fixed bin(17,0)          level 2 dcl 5-14 ref 127 219
avgwsp                          000104 automatic       fixed bin(31,0)          dcl 57 set ref 127* 219* 370 388 442 460 472 554 561
                                                                                  561 635 701
bin                                                    builtin function         dcl 92 ref 301 343 413 697
blkptr                 3752            based           pointer                  level 3 dcl 8-7 ref 905 935 935 935 938 938 938 938
                                                                                  951
brkpts                   11            based           bit(288)                 array level 3 dcl 6-3 ref 780
brkrw                           000105 automatic       fixed bin(31,0)          dcl 58 set ref 411* 413 413 413 413 413 413 413 413
                                                                                  413 413 430 433
bug_mode               4113            based           bit(1)                   level 3 packed unaligned dcl 8-7 ref 99 866 918
chars                     1            based           structure                level 2 dcl 8-7
chrct                                  based           fixed bin(17,0)          level 2 in structure "meas2" dcl 37 in procedure
                                                                                  "comp_measure_" set ref 680* 680 697* 715* 727 730
                                                                                  730
chrct                                  based           fixed bin(17,0)          level 2 in structure "meas1" dcl 35 in procedure
                                                                                  "comp_measure_" set ref 102* 145 684* 715* 715 715
                                                                                  715 730 730 730 730
chrct1                          000106 automatic       fixed bin(17,0)          dcl 59 set ref 145* 159 319* 319 362* 362 383 434*
                                                                                  465* 510* 510 575* 575 588* 588 668 668 673 673
                                                                                  675 675 679* 679 684 710 710 714 714 812
code                    113     000000 constant        char(1)                  initial array level 2 packed unaligned dcl 44 ref
                                                                                  290
comp_report_$ctlstr             000014 constant        entry                    external dcl 3-61 ref 905 954
comp_util_$display              000016 constant        entry                    external dcl 3-77 ref 102 183 254 301 343 413 512
                                                                                  715 730
compstat$compconst              000020 external static structure                level 1 dcl 11-14
const                                  based           structure                level 1 dcl 11-23
count                                  based           fixed bin(17,0)          level 2 dcl 6-3 ref 763 766
ct                                     based           fixed bin(17,0)          level 2 dcl 5-38 ref 119 231
ctl                       0(09)        based           structure                level 2 in structure "dcxx" packed unaligned
                                                                                  dcl 1-11 in procedure "comp_measure_"
ctl                                    based           structure                level 1 dcl 9-157 in procedure "comp_measure_"
ctl_line                               based           varying char(1020)       dcl 9-158 set ref 954*
ctl_ptr                 132            based           pointer                  level 3 dcl 11-23 ref 954
ctl_width                       000107 automatic       fixed bin(31,0)          dcl 60 set ref 133* 239* 241* 243* 246 250
cur                     126            based           structure                level 3 in structure "text" dcl 9-49 in procedure
                                                                                  "comp_measure_"
cur                      10            based           structure                level 2 in structure "text_entry" dcl 9-68
                                                                                  in procedure "comp_measure_"
cur                      10            based           structure                level 2 in structure "ctl" dcl 9-157 in procedure
                                                                                  "comp_measure_"
cur                     126            based           structure                level 3 in structure "hfcblk" dcl 9-250 in procedure
                                                                                  "comp_measure_"
cur                      10            based           structure                level 2 in structure "txtlin" dcl 9-161 in procedure
                                                                                  "comp_measure_"
datum                                  parameter       fixed bin(31,0)          dcl 796 ref 794 800
db_sw                           000010 internal static bit(1)                   initial unaligned dcl 992 set ref 99 977* 981* 985*
                                                                                  989* 996*
dcfs                                   based           structure                level 1 packed unaligned dcl 1-80
dclong_val                             based           structure                level 1 packed unaligned dcl 1-54
dcshort_val                            based           structure                level 1 packed unaligned dcl 1-67
dcxx                                   based           structure                level 1 packed unaligned dcl 1-11
debug_sw                        000110 automatic       bit(1)                   unaligned dcl 61 set ref 99* 100 102 707
dec                                                    builtin function         dcl 92 ref 800
default_parms                          based           structure                level 1 dcl 9-213
detail_sw                       000111 automatic       bit(1)                   unaligned dcl 62 set ref 100* 183 254 301 343 392
                                                                                  413 512 561 577 590 710
devfnt                    1     000122 automatic       fixed bin(17,0)          level 2 dcl 70 set ref 114 206 209* 210
divide                                                 builtin function         dcl 92 ref 124 141 147 150 153 156 217 218 219 220
                                                                                  239 241 287 800 828 832 951
dt_sw                           000011 internal static bit(1)                   initial unaligned dcl 1003 set ref 100 977* 981*
                                                                                  990* 997* 1001*
e                         1            based           structure                array level 2 dcl 6-3
entry                     6            based           structure                level 2 dcl 5-14
ercd                            000100 automatic       fixed bin(35,0)          dcl 807 in procedure "try_hyph" set ref 869* 870
                                                                                  879* 881 891* 893 903* 905 905*
ercd                                   parameter       fixed bin(35,0)          dcl 745 in procedure "hyph_wrd" set ref 739 753*
                                                                                  786* 790*
f                         0(27)        based           fixed bin(9,0)           level 2 packed unsigned unaligned dcl 1-80 ref 206
                                                                                  209
fill                                   parameter       bit(1)                   unaligned dcl 22 set ref 14 102* 115 494 534 557 632
                                                                                  710 710
fntstk_entry                           based           structure                level 1 dcl 4-6
fnttbl                                 based           structure                level 1 dcl 5-14
fnttbl_ptr                      001226 automatic       pointer                  initial dcl 5-13 set ref 114* 119 119 123 126 127
                                                                                  128 130 131 210* 211 213 216 218 219 220 221 222
                                                                                  231 231 290 411 618 655 5-13* 841
fnttbldata                             based           structure                level 1 dcl 5-7
fnttbldata_ptr          150            based           pointer                  level 3 dcl 11-23 ref 114 210
font                      6            based           structure                level 2 in structure "meas1" dcl 35 in procedure
                                                                                  "comp_measure_" set ref 113* 320* 363* 435* 466*
                                                                                  691
font                      6            based           structure                level 2 in structure "meas2" dcl 37 in procedure
                                                                                  "comp_measure_" set ref 137* 691* 696*
gap_ahead                       000113 automatic       fixed bin(17,0)          dcl 64 set ref 133* 319 322* 362 365* 383 436* 538*
                                                                                  698
gap_found                       000114 automatic       bit(1)                   unaligned dcl 65 set ref 136* 183 195* 254 264* 301
                                                                                  321* 343 364* 413 537* 582* 595* 943*
gaps                      1            based           fixed bin(17,0)          level 2 in structure "meas1" dcl 35 in procedure
                                                                                  "comp_measure_" set ref 102* 146 685* 715*
gaps                      1            based           fixed bin(17,0)          level 2 in structure "meas2" dcl 37 in procedure
                                                                                  "comp_measure_" set ref 698* 715*
gaps1                           000115 automatic       fixed bin(17,0)          dcl 66 set ref 146* 183* 254* 301* 343* 386* 386
                                                                                  413* 512* 552* 552 561 561* 685 698
hp_space                        000101 automatic       fixed bin(31,0)          dcl 808 set ref 836* 841* 841
hpoint                          000102 automatic       fixed bin(17,0)          dcl 809 in procedure "try_hyph" set ref 863* 869*
                                                                                  873 879* 885 891* 897 903* 918* 921 925* 925 927
                                                                                  930 930 933* 933 947
hpoint                                 parameter       fixed bin(17,0)          dcl 744 in procedure "hyph_wrd" set ref 739 754*
                                                                                  783* 786* 790*
hpts                      1            based           bit(288)                 array level 3 dcl 6-3 ref 769
hscndx                          000103 automatic       fixed bin(17,0)          dcl 810 set ref 816* 819 837 841 843* 843 849 864
                                                                                  869 869 925
hspace                                 parameter       fixed bin(17,0)          dcl 743 in procedure "hyph_wrd" ref 739 756 756 758
hspace                          000104 automatic       fixed bin(17,0)          dcl 811 in procedure "try_hyph" set ref 828* 832*
                                                                                  844* 844 857* 857 860 866* 869* 879* 891* 903*
hword                                  parameter       char                     unaligned dcl 742 in procedure "hyph_wrd" set ref
                                                                                  739 756 763 773 773 786* 790*
hword                           000105 automatic       varying char             dcl 812 in procedure "try_hyph" set ref 864* 866*
                                                                                  876 879 879 888 891 891 900 903
hwrd_data                              based           structure                level 1 dcl 6-3
hwrd_data_ptr          4004            based           pointer                  level 3 dcl 8-7 ref 760 763 763 766 769 780
hwrdl                           000012 internal static fixed bin(17,0)          dcl 813 set ref 817* 819 824* 824 845* 845 849 856*
                                                                                  856 857 864 866* 869 869 876 879 879 888 891 891
                                                                                  900 903
hyph_mode              4113(06)        based           bit(1)                   level 3 packed unaligned dcl 8-7 ref 370 442 472 635
hyph_size                16            based           fixed bin(31,0)          level 2 dcl 8-7 ref 860 921
hyphenate_word_                 000026 constant        entry                    external dcl 750 ref 786 790
hyphenated                      000116 automatic       bit(1)                   unaligned dcl 67 set ref 136* 370 376* 442 450* 472
                                                                                  480* 635 641*
i                               000100 automatic       fixed bin(17,0)          dcl 747 in procedure "hyph_wrd" set ref 769* 771
                                                                                  771* 771 773 773 773* 773 777 780* 783
i                               000105 automatic       fixed bin(17,0)          dcl 814 in procedure "try_hyph" set ref 849* 853 856
in                     4114            based           varying char(128)        level 3 dcl 8-7 ref 138 335
index                                                  builtin function         dcl 92 ref 282 335 769 780 837 876 888 900
info                    161            based           structure                level 2 in structure "text_entry" dcl 9-68
                                                                                  in procedure "comp_measure_"
info                    161            based           structure                level 2 in structure "ctl" dcl 9-157 in procedure
                                                                                  "comp_measure_"
info                    161            based           structure                level 2 in structure "txtlin" dcl 9-161 in procedure
                                                                                  "comp_measure_"
info                    277            based           structure                level 3 in structure "hfcblk" dcl 9-250 in procedure
                                                                                  "comp_measure_"
info                    277            based           structure                level 3 in structure "text" dcl 9-49 in procedure
                                                                                  "comp_measure_" set ref 905*
info_ptr                               parameter       pointer                  dcl 31 set ref 14 954*
input                   116            based           structure                level 2 dcl 9-49
ioa_                            000022 constant        entry                    external dcl 11-70 ref 102 183 254 301 343 413 512
                                                                                  715 730 918
ioa_$nnl                        000024 constant        entry                    external dcl 11-70 ref 392 561 577 590 710 866
iscn                            000117 automatic       fixed bin(17,0)          dcl 68 set ref 159* 159* 166 168 168* 168* 173 198
                                                                                  252 265* 265 267 276 278 293 296* 296 298 377* 399
                                                                                  399 428* 428 434 451* 465 481* 504 504 512* 526*
                                                                                  526 529 531 543 543 549 561* 565* 565 571 571 577*
                                                                                  581* 581 590* 594* 594 625 625 628* 628 642* 697
                                                                                  697 714* 715* 817
j                               000101 automatic       fixed bin(17,0)          dcl 747 set ref 763* 763* 766 769 780
jj                              000120 automatic       fixed bin(17,0)          dcl 69 set ref 529* 531 531* 540 571 574 575 577*
                                                                                  577 577 577 581 587 588 590* 590 590 590 594
just                            010473 constant        bit(6)                   initial unaligned dcl 9-148 ref 356 370 370 442 442
                                                                                  460 472 472 494 609 614 635 635 828
k                               000121 automatic       fixed bin(17,0)          dcl 69 set ref 335* 336 336
left                   1016            based           structure                level 3 in structure "hfcblk" dcl 9-250 in procedure
                                                                                  "comp_measure_"
left                     12            based           structure                level 2 in structure "text_parms" dcl 9-206
                                                                                  in procedure "comp_measure_"
left                     12            based           structure                level 2 in structure "default_parms" dcl 9-213
                                                                                  in procedure "comp_measure_"
left                   1016            based           structure                level 3 in structure "text" dcl 9-49 in procedure
                                                                                  "comp_measure_"
left                     12            based           structure                level 2 in structure "current_parms" dcl 9-209
                                                                                  in procedure "comp_measure_"
leng                      0(18)        based           fixed bin(9,0)           level 2 packed unsigned unaligned dcl 1-11 ref 251
                                                                                  252 265
length                                                 builtin function         dcl 92 ref 96 102 138 546 710 714 756 773 932 933
                                                                                  935 938
lfnt                            000122 automatic       structure                level 1 dcl 70 set ref 113* 320 363 435 466 696
line_area_ptr                   001230 automatic       pointer                  initial dcl 9-25 set ref 9-25*
lmeas                           000202 automatic       fixed bin(31,0)          dcl 71 set ref 140* 141 141* 141 246 246 356 356 356
                                                                                  370 370 399 430 442 442 442 460 460 472 472 494
                                                                                  494 557 557 609 609 614 614 635 635 828 832
ltrim                                                  builtin function         dcl 92 ref 543 571
max                       5            based           fixed bin(31,0)          level 2 in structure "meas2" dcl 37 in procedure
                                                                                  "comp_measure_" set ref 702* 715 715
max                       5            based           fixed bin(31,0)          level 2 in structure "meas1" dcl 35 in procedure
                                                                                  "comp_measure_" set ref 102 102 155 688* 715 715
max                                                    builtin function         dcl 92 in procedure "comp_measure_" ref 430 685 686
                                                                                  687 688 689
max1                            000203 automatic       fixed bin(31,0)          dcl 72 set ref 155* 156 156* 156 183 183 254 254 301
                                                                                  301 343 343 370 389* 389 413 413 442 472 512 512
                                                                                  555* 555 635 688 702
max_wsp                   2            based           fixed bin(17,0)          level 2 dcl 5-14 ref 128 220
maxwsp                          000204 automatic       fixed bin(31,0)          dcl 73 set ref 128* 220* 370 389 442 472 555 635 702
meas1                                  based           structure                level 1 dcl 35
meas1_ptr                              parameter       pointer                  dcl 29 ref 14 102 102 102 102 102 102 102 102 102
                                                                                  102 102 102 102 102 102 102 113 143 145 146 149
                                                                                  152 155 320 363 435 466 684 685 686 687 688 689
                                                                                  691 715 715 715 715 715 715 715 715 715 715 715
                                                                                  715 715 715 715 715 715 715 715 730 730 730 730
meas2                                  based           structure                level 1 dcl 37 set ref 136*
meas2_ptr                              parameter       pointer                  dcl 30 ref 14 136 137 680 680 691 696 697 698 699
                                                                                  700 701 702 715 715 715 715 715 715 715 715 715
                                                                                  715 715 715 715 715 715 715 715 715 715 727 730
                                                                                  730
measure                1021            based           fixed bin(31,0)          level 3 dcl 9-49 ref 951
min                       3            based           fixed bin(31,0)          level 2 in structure "meas2" dcl 37 in procedure
                                                                                  "comp_measure_" set ref 700* 715 715
min                                                    builtin function         dcl 92 in procedure "comp_measure_" ref 684 697 857
min                       3            based           fixed bin(31,0)          level 2 in structure "meas1" dcl 35 in procedure
                                                                                  "comp_measure_" set ref 102 102 149 687* 715 715
min1                            000205 automatic       fixed bin(31,0)          dcl 74 set ref 149* 150 150* 150 183 183 254 254 301
                                                                                  301 343 343 356 387* 387 413 413 430 460 494 512
                                                                                  512 553* 553 609 614 687 700 828
min_wsp                                based           fixed bin(17,0)          level 2 dcl 5-14 ref 126 218
minwsp                          000206 automatic       fixed bin(31,0)          dcl 75 set ref 126* 218* 387 553 700
mod_len                 304            based           fixed bin(17,0)          level 3 dcl 9-49 set ref 938 938* 938
mod_start               305            based           fixed bin(17,0)          level 3 dcl 9-49 set ref 935 935* 935 938
mptstrk                         000207 automatic       fixed bin(31,0)          dcl 76 set ref 124* 141 147 150 153 156 183 183 183
                                                                                  183 183 183 183 183 183 183 217* 218 219 220 239
                                                                                  241 254 254 254 254 254 254 254 254 254 254 301
                                                                                  301 301 301 301 301 301 301 301 301 343 343 343
                                                                                  343 343 343 343 343 343 343 413 413 413 413 413
                                                                                  413 413 413 413 413 512 512 512 512 512 512 512
                                                                                  512 512 512 561 561 590 590 686 687 688 689 699
                                                                                  700 701 702 828 832 951
name                     40            based           varying char(65)         level 3 in structure "meas2" dcl 37 in procedure
                                                                                  "comp_measure_" set ref 715*
name                     32            based           varying char(65)         level 2 in structure "afnt" dcl 33 in procedure
                                                                                  "comp_measure_" set ref 102*
name                     40            based           varying char(65)         level 3 in structure "fnttbl" dcl 5-14 in procedure
                                                                                  "comp_measure_" ref 211
name                     32     000122 automatic       varying char(65)         level 2 in structure "lfnt" dcl 70 in procedure
                                                                                  "comp_measure_" set ref 211*
null                                                   builtin function         dcl 92 ref 5-13 9-25 9-35 10-68 10-75 760
oflo                            000210 automatic       bit(1)                   unaligned dcl 77 set ref 136* 395* 456* 486* 647*
                                                                                  691
out                    4155            based           varying char(128)        level 3 dcl 8-7 ref 336
p                         1            based           fixed bin(31,0)          level 2 packed unaligned dcl 1-80 ref 226 229
parms                  1004            based           structure                level 2 dcl 9-49
ptr                             000020 external static pointer                  level 2 in structure "compstat$compconst" dcl 11-14
                                                                                  in procedure "comp_measure_" ref 99 114 115 138
                                                                                  210 335 336 370 381 442 455 472 485 635 646 760
                                                                                  763 763 766 769 780 828 832 860 866 905 918 921
                                                                                  935 935 935 938 938 938 938 951 954
ptr                       4            based           pointer                  array level 2 in structure "fnttbldata" dcl 5-7
                                                                                  in procedure "comp_measure_" ref 114 210
ptr                     172            based           pointer                  level 2 in structure "ctl" dcl 9-157 in procedure
                                                                                  "comp_measure_" ref 954
ptrs                   3742            based           structure                level 2 in structure "shared" dcl 8-7 in procedure
                                                                                  "comp_measure_"
ptrs                    126            based           structure                level 2 in structure "const" dcl 11-23 in procedure
                                                                                  "comp_measure_"
quad                                   parameter       bit(6)                   unaligned dcl 25 ref 14 356 370 370 442 442 460 472
                                                                                  472 494 609 614 635 635 828
rank                                                   builtin function         dcl 92 ref 130 131 221 222 290 411 618 655 841
rel_units                 3            based           fixed bin(17,0)          level 2 dcl 5-14 ref 123 213 216
retval                          000100 automatic       fixed dec(11,3)          dcl 798 set ref 800* 801
reverse                                                builtin function         dcl 92 ref 494 494 494 769 780 819 849
round                                                  builtin function         dcl 92 ref 800 800
rtrim                                                  builtin function         dcl 92 ref 102 710 714
runits                          000212 automatic       fixed bin(17,0)          dcl 79 set ref 123* 124 213 216* 217
scale                                  parameter       fixed bin(31,0)          dcl 797 ref 794 800
search                                                 builtin function         dcl 92 ref 494 494 494 819
shared                                 based           structure                level 1 dcl 8-7
shared_ptr              200            based           pointer                  level 3 dcl 11-23 ref 99 115 138 335 336 370 381 442
                                                                                  455 472 485 635 646 760 763 763 766 769 780 828
                                                                                  832 860 866 905 918 921 935 935 935 938 938 938
                                                                                  938 951
size                     54     000122 automatic       fixed bin(31,0)          level 2 in structure "lfnt" dcl 70 in procedure
                                                                                  "comp_measure_" set ref 226 229* 233
size                     54            based           fixed bin(31,0)          level 2 in structure "afnt" dcl 33 in procedure
                                                                                  "comp_measure_" set ref 102* 102* 121
size                      1            based           fixed bin(31,0)          array level 2 in structure "siztbl" dcl 5-38
                                                                                  in procedure "comp_measure_" ref 119 231
size                     62            based           fixed bin(31,0)          level 3 in structure "meas2" dcl 37 in procedure
                                                                                  "comp_measure_" set ref 715* 715*
siztbl                                 based           structure                level 1 unaligned dcl 5-38
siztbl_ptr                4            based           pointer                  level 2 dcl 5-14 ref 119 119 231 231
space                           000102 automatic       fixed bin(17,0)          dcl 748 set ref 758* 769 771 786* 790*
str                             000213 automatic       varying char(1020)       dcl 80 in procedure "comp_measure_" set ref 97* 173
                                                                                  198 252 276 293 504* 504 504 529 543* 543 543 546
                                                                                  571* 571 571 625* 625 668 673* 673 675* 675 675
                                                                                  705 714 715 715 730 730 819 837 841 849 864 869
                                                                                  869 905* 927 930* 930 930
str                             000000 constant        char(6)                  initial array level 2 in structure "art_xcep" packed
                                                                                  unaligned dcl 44 in procedure "comp_measure_" ref
                                                                                  282
strlen                          000613 automatic       fixed bin(17,0)          dcl 81 set ref 96* 102* 102 159 168 168 267 278 298
                                                                                  399 399 507* 507 531 546* 549 626* 626 673 681*
                                                                                  681 684 697 697 710 812 932* 932 935 938
substr                                                 builtin function         dcl 92 set ref 173 198 252 276 278 293 336 504 504
                                                                                  529 543 543 571 571 625* 625 668 673 675 675 714
                                                                                  715 715 730 730 769 773 819 837 841 849 864 869
                                                                                  869 876 879 879 888 891 891 900 903 927 930 930
sws                    4113            based           structure                level 2 dcl 8-7
tchar                           000614 automatic       char(1)                  unaligned dcl 82 set ref 173* 176 335 336* 340 340
                                                                                  405 409 411 606 618 652 655 656
text                                   based           structure                level 1 dcl 9-49
text_area_ptr                   001232 automatic       pointer                  initial dcl 9-35 set ref 9-35*
text_entry                             based           structure                level 1 dcl 9-68
text_header                            based           structure                level 1 dcl 9-163
trans                  4114            based           structure                level 2 dcl 8-7
tree_names_ptr                  001234 automatic       pointer                  initial dcl 10-68 set ref 10-68*
tree_var_ptr                    001236 automatic       pointer                  initial dcl 10-75 set ref 10-75*
trnsw                           000615 automatic       bit(1)                   unaligned dcl 83 set ref 138* 332
true_size                       000616 automatic       fixed bin(31,0)          dcl 84 set ref 119* 121* 124 217 231* 233*
type                      0(09)        based           char(1)                  level 2 packed unaligned dcl 1-80 ref 200 203
type_font                              constant        char(1)                  initial unaligned dcl 1-90 ref 203
type_wait                              constant        char(1)                  initial unaligned dcl 1-90 ref 200
units                  3066            based           fixed bin(17,0)          array level 2 dcl 5-14 ref 130 131 221 222 290 411
                                                                                  618 655 841
unspec                                                 builtin function         dcl 92 set ref 136*
v1                        0(27)        based           fixed bin(31,0)          level 2 in structure "dclong_val" packed unaligned
                                                                                  dcl 1-54 in procedure "comp_measure_" ref 241
v1                        0(27)        based           fixed bin(17,0)          level 2 in structure "dcshort_val" packed unaligned
                                                                                  dcl 1-67 in procedure "comp_measure_" ref 239
verify                                                 builtin function         dcl 92 ref 529 849
width                     2            based           fixed bin(31,0)          level 2 in structure "meas2" dcl 37 in procedure
                                                                                  "comp_measure_" set ref 699* 715* 715* 715 715 715
                                                                                  715 715 715
width                     2            based           fixed bin(31,0)          level 2 in structure "meas1" dcl 35 in procedure
                                                                                  "comp_measure_" set ref 102* 102* 102 102 102 102
                                                                                  102 102 143 689* 715* 715* 715 715 715 715 715 715
width1                          000617 automatic       fixed bin(31,0)          dcl 85 set ref 143* 147 147* 147 183 183 183 183 183
                                                                                  183 183 183 246 254 254 254 254 254 254 254 254
                                                                                  301 301 301 301 301 301 301 301 318* 318 343 343
                                                                                  343 343 343 343 343 343 356 356 361* 361 370 370
                                                                                  413 413 413 413 413 413 413 413 430 433* 433 442
                                                                                  442 460 460 464* 464 472 472 494 494 509* 509 512
                                                                                  512 512 512 512 512 512 512 557 574* 574 587* 587
                                                                                  609 609 614 614 635 635 678* 678 689 699 828 832
                                                                                  951
word                            000620 automatic       varying char(1020)       dcl 86 in procedure "comp_measure_" set ref 135*
                                                                                  164* 183* 252* 252 254* 293* 293 301 301* 343 343*
                                                                                  409* 409 413 413* 494 494 494 619* 619 656* 656
word                     21            based           char(256)                array level 3 in structure "hwrd_data" dcl 6-3
                                                                                  in procedure "comp_measure_" ref 763
wordct                          001220 automatic       fixed bin(17,0)          dcl 87 set ref 165* 183* 251* 251 254* 294* 294 301*
                                                                                  319 343* 362 365* 410* 410 413* 620* 620 657* 657
wordu                           001222 automatic       fixed bin(31,0)          dcl 89 set ref 133* 165* 180 183 183 183 183 183 183
                                                                                  183 183 183 183 250* 250 254 254 254 254 254 254
                                                                                  254 254 254 254 290* 290 301 301 301 301 301 301
                                                                                  301 301 301 301 318 322* 343 343 343 343 343 343
                                                                                  343 343 343 343 356 356 361 365* 413 413 460 460
                                                                                  464 609 609 618* 618 655* 655 665 699 951
wrd_brkr                  1(18)        based           char(1)                  level 3 packed unaligned dcl 8-7 ref 115 381 455 485
                                                                                  646
wrdbrkr                         001223 automatic       char(1)                  unaligned dcl 90 set ref 115* 117* 340 340 381* 455*
                                                                                  485* 646* 819 837 942*
wrdstrt                         001221 automatic       fixed bin(17,0)          dcl 88 set ref 133* 166* 183* 254* 301 343 377 413
                                                                                  451 481 642 816 817

NAMES DECLARED BY DECLARE STATEMENT AND NEVER REFERENCED.
ACK                                    internal static char(1)                  initial unaligned dcl 7-6
BEL                                    internal static char(1)                  initial unaligned dcl 7-6
BRS                                    internal static char(1)                  initial unaligned dcl 7-6
CAN                                    internal static char(1)                  initial unaligned dcl 7-6
CR                                     internal static char(1)                  initial unaligned dcl 7-6
DC2                                    internal static char(1)                  initial unaligned dcl 7-6
DC3                                    internal static char(1)                  initial unaligned dcl 7-6
DC4                                    internal static char(1)                  initial unaligned dcl 7-6
DEL                                    internal static char(1)                  initial unaligned dcl 7-6
DEVIT                                  internal static char(1)                  initial unaligned dcl 7-6
DLE                                    internal static char(1)                  initial unaligned dcl 7-6
EM                                     internal static char(1)                  initial unaligned dcl 7-6
EM_                                    internal static char(1)                  initial unaligned dcl 7-6
EMdash                                 internal static char(1)                  initial unaligned dcl 7-6
ENQ                                    internal static char(1)                  initial unaligned dcl 7-6
EN_                                    internal static char(1)                  initial unaligned dcl 7-6
ENd                                    internal static char(1)                  initial unaligned dcl 7-6
EOT                                    internal static char(1)                  initial unaligned dcl 7-6
ESC                                    internal static char(1)                  initial unaligned dcl 7-6
ETB                                    internal static char(1)                  initial unaligned dcl 7-6
ETX                                    internal static char(1)                  initial unaligned dcl 7-6
FF                                     internal static char(1)                  initial unaligned dcl 7-6
FS                                     internal static char(1)                  initial unaligned dcl 7-6
GS                                     internal static char(1)                  initial unaligned dcl 7-6
HAIR                                   internal static char(1)                  initial unaligned dcl 7-6
HLF                                    internal static char(1)                  initial unaligned dcl 7-6
HLR                                    internal static char(1)                  initial unaligned dcl 7-6
HT                                     internal static char(1)                  initial unaligned dcl 7-6
HUGE                                   internal static char(1)                  initial unaligned dcl 7-6
LF                                     internal static char(1)                  initial unaligned dcl 7-6
LINE_AREA_SIZE                         internal static fixed bin(17,0)          initial dcl 9-24
MAX_TREE_AREAS                         internal static fixed bin(17,0)          initial dcl 11-20
MAX_TREE_AREA_CT                       internal static fixed bin(17,0)          initial dcl 11-18
MEDIUM                                 internal static char(1)                  initial unaligned dcl 7-6
NAK                                    internal static char(1)                  initial unaligned dcl 7-6
NL                                     internal static char(1)                  initial unaligned dcl 7-6
NUL                                    internal static char(1)                  initial unaligned dcl 7-6
PI                                     internal static char(1)                  initial unaligned dcl 7-6
RRS                                    internal static char(1)                  initial unaligned dcl 7-6
RS                                     internal static char(1)                  initial unaligned dcl 7-6
SI                                     internal static char(1)                  initial unaligned dcl 7-6
SO                                     internal static char(1)                  initial unaligned dcl 7-6
SOH                                    internal static char(1)                  initial unaligned dcl 7-6
STROKE                                 internal static char(1)                  initial unaligned dcl 7-6
STX                                    internal static char(1)                  initial unaligned dcl 7-6
SUB                                    internal static char(1)                  initial unaligned dcl 7-6
SYN                                    internal static char(1)                  initial unaligned dcl 7-6
TEXT_AREA_SIZE                         internal static fixed bin(17,0)          initial dcl 9-34
TEXT_VERSION                           internal static fixed bin(17,0)          initial dcl 9-47
THICK                                  internal static char(1)                  initial unaligned dcl 7-6
THIN                                   internal static char(1)                  initial unaligned dcl 7-6
US                                     internal static char(1)                  initial unaligned dcl 7-6
VT                                     internal static char(1)                  initial unaligned dcl 7-6
approx                                 internal static char(1)                  initial unaligned dcl 7-6
bullet                                 internal static char(1)                  initial unaligned dcl 7-6
comp_                           000000 constant        entry                    external dcl 3-7
comp_art_                       000000 constant        entry                    external dcl 3-8
comp_block_ctls_                000000 constant        entry                    external dcl 3-9
comp_break_                     000000 constant        entry                    external dcl 3-11
comp_break_ctls_                000000 constant        entry                    external dcl 3-12
comp_ctls_                      000000 constant        entry                    external dcl 3-14
comp_dvt                               based           structure                level 1 dcl 2-19
comp_eject_page_                000000 constant        entry                    external dcl 3-15
comp_expr_eval_                 000000 constant        entry                    external dcl 3-17
comp_extr_str_                  000000 constant        entry                    external dcl 3-21
comp_fill_                      000000 constant        entry                    external dcl 3-24
comp_font_                      000000 constant        entry                    external dcl 3-25
comp_format_ctls_               000000 constant        entry                    external dcl 3-26
comp_get_file_$find             000000 constant        entry                    external dcl 3-28
comp_get_file_$open             000000 constant        entry                    external dcl 3-31
comp_head_page_                 000000 constant        entry                    external dcl 3-33
comp_hft_ctls_                  000000 constant        entry                    external dcl 3-35
comp_hft_ctls_$title            000000 constant        entry                    external dcl 3-36
comp_init_$one                  000000 constant        entry                    external dcl 3-38
comp_init_$three                000000 constant        entry                    external dcl 3-40
comp_init_$two                  000000 constant        entry                    external dcl 3-39
comp_insert_ctls_               000000 constant        entry                    external dcl 3-42
comp_make_page_                 000000 constant        entry                    external dcl 3-44
comp_make_page_$cleanup         000000 constant        entry                    external dcl 3-46
comp_measure_                   000000 constant        entry                    external dcl 3-48
comp_read_$line                 000000 constant        entry                    external dcl 3-57
comp_read_$name                 000000 constant        entry                    external dcl 3-50
comp_read_$number               000000 constant        entry                    external dcl 3-53
comp_report_                    000000 constant        entry                    external dcl 3-59
comp_report_$exact              000000 constant        entry                    external dcl 3-64
comp_space_                     000000 constant        entry                    external dcl 3-66
comp_tbl_ctls_                  000000 constant        entry                    external dcl 3-68
comp_title_block_               000000 constant        entry                    external dcl 3-69
comp_update_symbol_             000000 constant        entry                    external dcl 3-71
comp_use_ref_                   000000 constant        entry                    external dcl 3-74
comp_util_$add_text             000000 constant        entry                    external dcl 3-75
comp_util_$escape               000000 constant        entry                    external dcl 3-80
comp_util_$getblk               000000 constant        entry                    external dcl 3-82
comp_util_$num_display          000000 constant        entry                    external dcl 3-84
comp_util_$pageno               000000 constant        entry                    external dcl 3-86
comp_util_$pictures             000000 constant        entry                    external dcl 3-88
comp_util_$pop                  000000 constant        entry                    external dcl 3-91
comp_util_$push                 000000 constant        entry                    external dcl 3-92
comp_util_$relblk               000000 constant        entry                    external dcl 3-94
comp_util_$replace_text         000000 constant        entry                    external dcl 3-96
comp_util_$search_tree          000000 constant        entry                    external dcl 3-98
comp_util_$set_bin              000000 constant        entry                    external dcl 3-100
comp_util_$set_net_page         000000 constant        entry                    external dcl 3-104
comp_util_$translate            000000 constant        entry                    external dcl 3-106
comp_write_block_               000000 constant        entry                    external dcl 3-108
comp_write_page_                000000 constant        entry                    external dcl 3-110
compose_severity_                      external static fixed bin(35,0)          dcl 3-5
const_version                          internal static fixed bin(35,0)          initial dcl 11-17
cright                                 internal static char(1)                  initial unaligned dcl 7-6
current_parms                          based           structure                level 1 dcl 9-209
dagger                                 internal static char(1)                  initial unaligned dcl 7-6
dbldag                                 internal static char(1)                  initial unaligned dcl 7-6
dcctl                                  based           structure                level 1 packed unaligned dcl 1-34
dcfs_len                               internal static fixed bin(17,0)          initial dcl 1-88
dclit                                  based           structure                level 1 packed unaligned dcl 1-45
dclong1_len                            internal static fixed bin(17,0)          initial dcl 1-62
dclong_len                             internal static fixed bin(17,0)          initial dcl 1-62
dcshort1_len                           internal static fixed bin(17,0)          initial dcl 1-75
dcshort_len                            internal static fixed bin(17,0)          initial dcl 1-75
delmark                                internal static char(1)                  initial unaligned dcl 7-6
delta                                  internal static char(1)                  initial unaligned dcl 7-6
dot_addltr_symb_index                  internal static fixed bin(17,0)          initial dcl 8-126
flag_value                             based           bit(1)                   unaligned dcl 8-132
fntstk_eptr                            automatic       pointer                  dcl 4-5
font                                   based           structure                level 1 unaligned dcl 5-68
font_ptr                               automatic       pointer                  dcl 5-67
hfcblk                                 based           structure                level 1 dcl 9-250
hfcblk_ptr                             automatic       pointer                  dcl 9-249
infin                                  internal static char(1)                  initial unaligned dcl 7-6
iox_$error_output                      external static pointer                  dcl 11-74
iox_$user_input                        external static pointer                  dcl 11-74
iox_$user_output                       external static pointer                  dcl 11-74
line_area                              based           structure                level 1 dcl 9-26
lquote                                 internal static char(1)                  initial unaligned dcl 7-6
lslnt                                  internal static char(1)                  initial unaligned dcl 7-6
max_text_lines                         internal static fixed bin(17,0)          initial dcl 8-128
med_sel                                based           structure                level 1 unaligned dcl 5-116
med_sel_p                              automatic       pointer                  dcl 5-115
medchar                                based           varying char             dcl 5-113
medchar_sel                            based           structure                level 1 unaligned dcl 5-110
medchar_sel_p                          automatic       pointer                  dcl 5-109
medsel                                 based           char(12)                 array unaligned dcl 5-36
medsel_table                           based           structure                level 1 unaligned dcl 5-86
medsel_table_ptr                       automatic       pointer                  dcl 5-84
member                                 based           structure                level 1 unaligned dcl 5-56
member_ptr                             automatic       pointer                  dcl 5-55
mode_string                            internal static char(16)                 initial unaligned dcl 8-129
modmark                                internal static char(1)                  initial unaligned dcl 7-6
multiply                               internal static char(1)                  initial unaligned dcl 7-6
nabla                                  internal static char(1)                  initial unaligned dcl 7-6
not_eq                                 internal static char(1)                  initial unaligned dcl 7-6
num_value                              based           fixed bin(31,0)          dcl 8-133
oct031                                 internal static char(1)                  initial unaligned dcl 7-6
oput                                   based           structure                level 1 unaligned dcl 5-92
oput_p                                 automatic       pointer                  dcl 5-91
overbar                                internal static char(1)                  initial unaligned dcl 7-6
perpen                                 internal static char(1)                  initial unaligned dcl 7-6
pi                                     internal static char(1)                  initial unaligned dcl 7-6
pl_mi                                  internal static char(1)                  initial unaligned dcl 7-6
prll                                   internal static char(1)                  initial unaligned dcl 7-6
quadc                                  internal static bit(6)                   initial unaligned dcl 9-148
quadi                                  internal static bit(6)                   initial unaligned dcl 9-148
quadl                                  internal static bit(6)                   initial unaligned dcl 9-148
quado                                  internal static bit(6)                   initial unaligned dcl 9-148
quadr                                  internal static bit(6)                   initial unaligned dcl 9-148
repl_str                               based           structure                level 1 unaligned dcl 5-30
repl_str_ptr                           automatic       pointer                  dcl 5-29
replstr                                based           varying char(256)        dcl 5-33
rquote                                 internal static char(1)                  initial unaligned dcl 7-6
save_shared                            based           structure                level 1 dcl 8-124
shared_version                         internal static fixed bin(35,0)          initial dcl 8-5
sizel                                  based           structure                level 1 unaligned dcl 5-103
sizel_p                                automatic       pointer                  dcl 5-102
slash                                  internal static char(1)                  initial unaligned dcl 7-6
square                                 internal static char(1)                  initial unaligned dcl 7-6
string_area                            based           fixed bin(17,0)          array dcl 9-43
sup0                                   internal static char(1)                  initial unaligned dcl 7-6
sup1                                   internal static char(1)                  initial unaligned dcl 7-6
sup2                                   internal static char(1)                  initial unaligned dcl 7-6
sup3                                   internal static char(1)                  initial unaligned dcl 7-6
sup4                                   internal static char(1)                  initial unaligned dcl 7-6
sup5                                   internal static char(1)                  initial unaligned dcl 7-6
sup6                                   internal static char(1)                  initial unaligned dcl 7-6
sup7                                   internal static char(1)                  initial unaligned dcl 7-6
sup8                                   internal static char(1)                  initial unaligned dcl 7-6
sup9                                   internal static char(1)                  initial unaligned dcl 7-6
sys_info$max_seg_size                  external static fixed bin(18,0)          dcl 11-80
tblkdata                               based           structure                level 1 dcl 9-5
text_area                              based           structure                level 1 dcl 9-36
text_parms                             based           structure                level 1 dcl 9-206
tfore                                  internal static char(1)                  initial unaligned dcl 7-6
theta                                  internal static char(1)                  initial unaligned dcl 7-6
tmark                                  internal static char(1)                  initial unaligned dcl 7-6
tree                                   based           structure                level 1 dcl 10-5
tree_flags                             based           bit(1)                   array dcl 10-62
tree_incrs                             based           fixed bin(31,0)          array dcl 10-65
tree_names                             based           char(32)                 array unaligned dcl 10-69
tree_nums                              based           fixed bin(31,0)          array dcl 10-72
tree_var                               based           structure                array level 1 dcl 10-76
txtlin                                 based           structure                level 1 dcl 9-161
txtlinptr                              automatic       pointer                  dcl 9-160
txtstr                                 based           varying char(1020)       dcl 9-45
txtstrptr                              automatic       pointer                  dcl 9-44
type_lit                               internal static char(1)                  initial unaligned dcl 1-90
type_slx                               internal static char(1)                  initial unaligned dcl 1-90
type_slxly                             internal static char(1)                  initial unaligned dcl 1-90
type_sly                               internal static char(1)                  initial unaligned dcl 1-90
type_sx                                internal static char(1)                  initial unaligned dcl 1-90
type_sxy                               internal static char(1)                  initial unaligned dcl 1-90
type_sy                                internal static char(1)                  initial unaligned dcl 1-90
type_unstart                           internal static char(1)                  initial unaligned dcl 1-90
type_unstop                            internal static char(1)                  initial unaligned dcl 1-90
type_v0lx                              internal static char(1)                  initial unaligned dcl 1-90
type_v0lxly                            internal static char(1)                  initial unaligned dcl 1-90
type_v0ly                              internal static char(1)                  initial unaligned dcl 1-90
type_v0x                               internal static char(1)                  initial unaligned dcl 1-90
type_v0xy                              internal static char(1)                  initial unaligned dcl 1-90
type_v0y                               internal static char(1)                  initial unaligned dcl 1-90
type_vlx                               internal static char(1)                  initial unaligned dcl 1-90
type_vlxly                             internal static char(1)                  initial unaligned dcl 1-90
type_vly                               internal static char(1)                  initial unaligned dcl 1-90
type_vx                                internal static char(1)                  initial unaligned dcl 1-90
type_vxy                               internal static char(1)                  initial unaligned dcl 1-90
type_vy                                internal static char(1)                  initial unaligned dcl 1-90
units                                  based           fixed bin(17,0)          array dcl 5-81
units_ptr                              automatic       pointer                  dcl 5-80
unstart_signal                         internal static char(3)                  initial unaligned dcl 1-39
unstop_signal                          internal static char(3)                  initial unaligned dcl 1-39
vrule                                  internal static char(1)                  initial unaligned dcl 7-6
wait_signal                            internal static char(3)                  initial unaligned dcl 1-39

NAMES DECLARED BY EXPLICIT CONTEXT.
EOL_check                       002534 constant        label                    dcl 343 ref 269 665
allf                            006223 constant        entry                    external dcl 979
alln                            006207 constant        entry                    external dcl 975
art_                            002127 constant        label                    dcl 272
breaker                         003175 constant        label                    dcl 405
comp_measure_                   000407 constant        entry                    external dcl 14
ctl_char                        001177 constant        label                    dcl 176
dbf                             006251 constant        entry                    external dcl 987
dbn                             006236 constant        entry                    external dcl 983
dtf                             006300 constant        entry                    external dcl 999
dtn                             006264 constant        entry                    external dcl 994
end_scan_loop                   005166 constant        label                    dcl 662
font_char                       001151 constant        label                    dcl 162 ref 378 437 452 467 482 598 643
font_char_loop                  001160 constant        label                    dcl 168
hyph_err                        007377 constant        label                    dcl 905 ref 870 881 893
hyph_it                         007475 constant        label                    dcl 921
hyph_wrd                        006312 constant        entry                    internal dcl 739 ref 869 879 891 903
next_tchar                      001167 constant        label                    dcl 173 set ref 267 298
punct                           003755 constant        label                    dcl 494
return_                         005173 constant        label                    dcl 668 ref 246 324 396 399 457 487 557 648
scan_loop                       001143 constant        label                    dcl 159
show                            006540 constant        entry                    internal dcl 794 ref 102 102 102 102 102 102 102 102
                                                                                  102 102 102 102 183 183 183 183 183 183 183 183
                                                                                  183 183 254 254 254 254 254 254 254 254 254 254
                                                                                  301 301 301 301 301 301 301 301 301 301 343 343
                                                                                  343 343 343 343 343 343 343 343 413 413 413 413
                                                                                  413 413 413 413 413 413 512 512 512 512 512 512
                                                                                  512 512 512 512 561 561 577 577 590 590 715 715
                                                                                  715 715 715 715 715 715 715 715 715 715 715 715
                                                                                  715 715 715 715
trim_leading                    006714 constant        label                    dcl 837 ref 846
trim_trailing                   006632 constant        label                    dcl 819 ref 825
try_hyph                        006602 constant        entry                    internal dcl 804 ref 370 442 472 635
word_break                      003172 constant        label                    dcl 399
wrdspc                          003670 constant        label                    dcl 491

NAMES DECLARED BY CONTEXT OR IMPLICATION.
copy                                                   builtin function         ref 571
string                                                 builtin function         ref 282

STORAGE REQUIREMENTS FOR THIS PROGRAM.

	Object	Text	Link	Symbol	Defs	Static
Start          0       0     10654       10704   10502       10664
Length     11356   10502        30         436     152           4

BLOCK NAME	         STACK SIZE     TYPE		WHY NONQUICK/WHO SHARES STACK FRAME
comp_measure_                       942 external procedure  is an external procedure.
hyph_wrd                             90 internal procedure  is called during a stack extension.
show                                100 internal procedure  is called during a stack extension.
try_hyph                            150 internal procedure  uses auto adjustable storage.

STORAGE FOR INTERNAL STATIC VARIABLES.

   LOC IDENTIFIER                  BLOCK NAME
000010 db_sw                       comp_measure_
000011 dt_sw                       comp_measure_
000012 hwrdl                       try_hyph

STORAGE FOR AUTOMATIC VARIABLES.

STACK FRAME                 LOC IDENTIFIER                  BLOCK NAME
comp_measure_            000100 art_str_ptr                 comp_measure_
                         000102 art_xcep_ndx                comp_measure_
                         000103 avg1                        comp_measure_
                         000104 avgwsp                      comp_measure_
                         000105 brkrw                       comp_measure_
                         000106 chrct1                      comp_measure_
                         000107 ctl_width                   comp_measure_
                         000110 debug_sw                    comp_measure_
                         000111 detail_sw                   comp_measure_
                         000112 ENwidth                     comp_measure_
                         000113 gap_ahead                   comp_measure_
                         000114 gap_found                   comp_measure_
                         000115 gaps1                       comp_measure_
                         000116 hyphenated                  comp_measure_
                         000117 iscn                        comp_measure_
                         000120 jj                          comp_measure_
                         000121 k                           comp_measure_
                         000122 lfnt                        comp_measure_
                         000202 lmeas                       comp_measure_
                         000203 max1                        comp_measure_
                         000204 maxwsp                      comp_measure_
                         000205 min1                        comp_measure_
                         000206 minwsp                      comp_measure_
                         000207 mptstrk                     comp_measure_
                         000210 oflo                        comp_measure_
                         000211 PSwidth                     comp_measure_
                         000212 runits                      comp_measure_
                         000213 str                         comp_measure_
                         000613 strlen                      comp_measure_
                         000614 tchar                       comp_measure_
                         000615 trnsw                       comp_measure_
                         000616 true_size                   comp_measure_
                         000617 width1                      comp_measure_
                         000620 word                        comp_measure_
                         001220 wordct                      comp_measure_
                         001221 wrdstrt                     comp_measure_
                         001222 wordu                       comp_measure_
                         001223 wrdbrkr                     comp_measure_
                         001224 DCxx_p                      comp_measure_
                         001226 fnttbl_ptr                  comp_measure_
                         001230 line_area_ptr               comp_measure_
                         001232 text_area_ptr               comp_measure_
                         001234 tree_names_ptr              comp_measure_
                         001236 tree_var_ptr                comp_measure_
hyph_wrd                 000100 i                           hyph_wrd
                         000101 j                           hyph_wrd
                         000102 space                       hyph_wrd
show                     000100 retval                      show
try_hyph                 000100 ercd                        try_hyph
                         000101 hp_space                    try_hyph
                         000102 hpoint                      try_hyph
                         000103 hscndx                      try_hyph
                         000104 hspace                      try_hyph
                         000105 hword                       try_hyph
                         000105 i                           try_hyph

THE FOLLOWING EXTERNAL OPERATORS ARE USED BY THIS PROGRAM.
r_l_a               r_g_a               r_e_as              alloc_cs            cat_realloc_cs      call_ext_out_desc
call_int_this       call_int_other_desc return              alloc_auto_adj      mpfx2               shorten_stack
ext_entry           int_entry           int_entry_desc      round_fx1           reverse_bs          set_cs_eis
set_bs_eis          index_cs_eis        index_bs_eis        real_to_real_tr     divide_fx1          divide_fx3
verify_reverse_cs   search_reverse_cs

THE FOLLOWING EXTERNAL ENTRIES ARE CALLED BY THIS PROGRAM.
comp_report_$ctlstr           comp_util_$display            hyphenate_word_               ioa_
ioa_$nnl

THE FOLLOWING EXTERNAL VARIABLES ARE USED BY THIS PROGRAM.
compstat$compconst


   LINE    LOC      LINE    LOC      LINE    LOC      LINE    LOC      LINE    LOC      LINE    LOC      LINE    LOC
 5   13 000370    9   25 000372    9   35 000373   10   68 000374   10   75 000375        14 000400        96 000415
     97 000421        99 000426       100 000436       102 000440       113 000753       114 000772       115 001002
    117 001017       119 001021       121 001031       123 001033       124 001036       126 001041       127 001043
    128 001045       130 001047       131 001053       133 001057       135 001063       136 001064       137 001074
    138 001077       140 001105       141 001107       143 001112       145 001114       146 001116       147 001120
    149 001124       150 001126       152 001131       153 001133       155 001136       156 001140       159 001143
    164 001151       165 001152       166 001154       168 001156       173 001167       176 001174       180 001177
    183 001201       195 001436       198 001440       200 001445       203 001453       206 001455       209 001465
    210 001466       211 001475       213 001502       216 001505       217 001507       218 001512       219 001515
    220 001520       221 001523       222 001527       226 001533       229 001542       231 001543       233 001553
    235 001555       239 001556       241 001574       243 001606       246 001607       250 001615       251 001617
    252 001630       254 001646       264 002103       265 002105       267 002116       269 002120       272 002121
    276 002127       278 002133       282 002143       284 002152       287 002153       290 002156       293 002165
    294 002177       296 002201       298 002202       301 002205       318 002454       319 002457       320 002463
    321 002471       322 002472       324 002474       332 002475       335 002477       336 002515       340 002522
    343 002534       356 003003       361 003033       362 003035       363 003041       364 003046       365 003047
    366 003052       370 003053       376 003114       377 003116       378 003120       381 003121       383 003131
    386 003135       387 003137       388 003141       389 003143       392 003145       395 003161       396 003163
    399 003164       405 003172       409 003175       410 003204       411 003205       413 003211       428 003461
    430 003463       433 003473       434 003475       435 003500       436 003506       437 003507       442 003510
    450 003561       451 003563       452 003565       455 003566       456 003576       457 003600       472 003601
    480 003650       481 003652       482 003654       485 003655       486 003665       487 003667       494 003670
    504 003755       507 004020       509 004022       510 004024       512 004025       526 004250       529 004252
    531 004272       534 004277       537 004306       538 004310       540 004312       543 004315       546 004373
    549 004376       552 004401       553 004402       554 004404       555 004406       557 004410       561 004417
    565 004472       566 004473       568 004474       571 004501       574 004565       575 004573       577 004575
    581 004654       582 004656       583 004660       587 004661       588 004665       590 004667       594 004750
    595 004752       598 004754       602 004755       606 004756       609 004761       614 005005       618 005021
    619 005026       620 005035       621 005036       625 005037       626 005052       628 005054       630 005056
    632 005057       635 005064       641 005125       642 005127       643 005131       646 005132       647 005142
    648 005144       650 005145       652 005146       655 005150       656 005154       657 005163       660 005164
    662 005166       665 005171       668 005173       673 005201       675 005211       678 005240       679 005243
    680 005245       681 005251       684 005253       685 005262       686 005270       687 005301       688 005312
    689 005323       691 005334       696 005344       697 005351       698 005366       699 005371       700 005375
    701 005401       702 005405       705 005411       707 005417       710 005421       714 005466       715 005504
    727 006116       730 006123       734 006204       737 006205       975 006206       977 006215       978 006221
    979 006222       981 006231       982 006234       983 006235       985 006244       986 006247       987 006250
    989 006257       990 006261       991 006262       994 006263       996 006272       997 006275       998 006276
    999 006277      1001 006306      1002 006310       739 006311       753 006325       754 006327       756 006330
    758 006335       760 006336       763 006345       764 006373       766 006375       769 006404       771 006427
    773 006434       777 006446       780 006450       781 006461       783 006462       784 006464       786 006465
    788 006512       790 006513       792 006536       794 006537       800 006545       801 006571       804 006601
    812 006607       866 006622       816 006625       817 006627       819 006632       824 006653       825 006655
    828 006656       832 006700       836 006713       837 006714       841 006744       843 006751       844 006752
    845 006754       846 006757       849 006760       853 007010       856 007013       857 007015       860 007023
    863 007031       864 007032       866 007043       869 007077       870 007135       873 007140       876 007142
    879 007164       881 007217       885 007222       888 007224       891 007246       893 007303       897 007306
    900 007310       903 007330       905 007374       912 007442       918 007450       921 007475       925 007504
    927 007507       930 007514       932 007552       933 007554       935 007555       938 007563       942 007571
    943 007573       944 007574       947 007602       951 007604       954 007614       965 007654       971 007662


                                          -----------------------------------------------------------


Historical Background

This edition of the Multics software materials and documentation is provided and donated
to Massachusetts Institute of Technology by Group BULL including BULL HN Information Systems Inc.
as a contribution to computer science knowledge.
This donation is made also to give evidence of the common contributions of Massachusetts Institute of Technology,
Bell Laboratories, General Electric, Honeywell Information Systems Inc., Honeywell BULL Inc., Groupe BULL
and BULL HN Information Systems Inc. to the development of this operating system.
Multics development was initiated by Massachusetts Institute of Technology Project MAC (1963-1970),
renamed the MIT Laboratory for Computer Science and Artificial Intelligence in the mid 1970s, under the leadership
of Professor Fernando Jose Corbato. Users consider that Multics provided the best software architecture
for managing computer hardware properly and for executing programs. Many subsequent operating systems
incorporated Multics principles.
Multics was distributed in 1975 to 2000 by Group Bull in Europe , and in the U.S. by Bull HN Information Systems Inc.,
as successor in interest by change in name only to Honeywell Bull Inc. and Honeywell Information Systems Inc. .

                                          -----------------------------------------------------------

Permission to use, copy, modify, and distribute these programs and their documentation for any purpose and without
fee is hereby granted,provided that the below copyright notice and historical background appear in all copies
and that both the copyright notice and historical background and this permission notice appear in supporting
documentation, and that the names of MIT, HIS, BULL or BULL HN not be used in advertising or publicity pertaining
to distribution of the programs without specific prior written permission.
    Copyright 1972 by Massachusetts Institute of Technology and Honeywell Information Systems Inc.
    Copyright 2006 by BULL HN Information Systems Inc.
    Copyright 2006 by Bull SAS
    All Rights Reserved
