ASSEMBLY LISTING OF SEGMENT >spec>on>11/19/82>cv_bcd_to_ascii_.alm
ASSEMBLED ON:	11/19/82  0955.1 mst Fri
OPTIONS USED:	list
ASSEMBLED BY:	ALM Version  6.4  April 1981
ASSEMBLER CREATED:	11/03/82  1423.6 mst Wed

                                     1  " ***********************************************************
                                     2  " *                                                         *
                                     3  " * Copyright, (C) Honeywell Information Systems Inc., 1982 *
                                     4  " *                                                         *
                                     5  " * Copyright (c) 1972 by Massachusetts Institute of        *
                                     6  " * Technology and Honeywell Information Systems, Inc.      *
                                     7  " *                                                         *
                                     8  " ***********************************************************
                                     9
                                    10  "  Modified by RH Morrison 6/22/76
                                    11
    000000                          12  name	cv_bcd_to_ascii_
                        000000      13  entry	cv_bcd_to_ascii_
                                    14
    000000                          15  cv_bcd_to_ascii_:
                                    16
    000000  aa   000060 6270 00     17  	push
    000001  aa  7 00040 2721 20
                                    18
    000002  aa  0 00002 3521 20     19  	eppbp	ap|2,*		bp -> input data
    000003  aa  2 00000 3521 20     20  	eppbp	bp|0,*
                                    21
    000004  aa  0 00004 3501 20     22  	eppap	ap|4,*		ap -> output data
    000005  aa  0 00000 3501 20     23  	eppap	ap|0,*
                                    24
    000006  aa   000120 6270 00     25  	eax7	80   		init total character count
    000007  aa   000000 6240 00     26  	eax4	0   		init ascii word offset
    000010  aa   000000 6230 00     27  	eax3	0   		init bcd word offset
    000011  aa   000004 6220 00     28  	eax2	4   		init ascii char count
    000012  aa   000006 6210 00     29  	eax1	6   		init bcd char count
    000013  aa  2 00000 2361 00     30  	ldq	bp|0		init btemp
    000014  aa  6 00050 7561 00     31  	stq	btemp
                                    32
    000015                          33  continue:
                                    34
    000015  aa   000000 1020 03     35  	cmpx2	=0,du		check for full ascii word
    000016  0a   000024 6010 00     36  	tnz	moreascii		need more ascii characters
    000017  aa  0 00000 7551 14     37  	sta	ap|0,4		store full ascii word in output string
    000020  aa   000001 0640 03     38  	adx4	=1,du		increment ascii word count
    000021  aa   000004 6220 00     39  	eax2	4   		re-init ascii character count
                                    40
    000022  aa   000000 1070 03     41  	cmpx7	=0,du		check for completion
    000023  0a   000044 6000 00     42  	tze	fin
                                    43
    000024                          44  moreascii:
                                    45
    000024  aa   000000 1010 03     46  	cmpx1	=0,du		check for used bcd word
    000025  0a   000032 6010 00     47  	tnz	morebcd		need more bcd characters
    000026  aa   000001 0630 03     48  	adx3	=1,du		increment bcd word count
    000027  aa   000006 6210 00     49  	eax1	6		re-init bcd character count
    000030  aa  2 00000 2361 13     50  	ldq	bp|0,3		get next full bcd word
    000031  aa  6 00050 7561 00     51  	stq	btemp		save it
                                    52
    000032                          53  morebcd:
                                    54
    000032  aa  6 00050 2361 00     55  	ldq	btemp		load current bcd word
    000033  aa   000006 7760 00     56  	qlr	6		make next bcd char leftmost
    000034  aa  6 00050 7561 00     57  	stq	btemp		save for next time
    000035  aa   000077 3760 07     58  	anq	=o000077,dl	isolate current character
    000036  0a   000045 2360 06     59  	ldq	btable,ql		load ascii character into q
    000037  aa   000011 7370 00     60  	lls	9		concatenate in a
    000040  aa   000001 1620 03     61  	sbx2	=1,du		decrement ascii char count
    000041  aa   000001 1610 03     62  	sbx1	=1,du		decrement bcd char count
    000042  aa   000001 1670 03     63  	sbx7	=1,du		decrement total character count
    000043  0a   000015 7100 00     64  	tra	continue		convert another character
                                    65
    000044                          66  fin:
                                    67
    000044  aa  7 00042 7101 20     68  	return
                                    69
    000045  aa   060000 000000      70  btable:	vfd	a9/0,27/0
    000046  aa   061000 000000      71  	vfd	a9/1,27/0
    000047  aa   062000 000000      72  	vfd	a9/2,27/0
    000050  aa   063000 000000      73  	vfd	a9/3,27/0
    000051  aa   064000 000000      74  	vfd	a9/4,27/0
    000052  aa   065000 000000      75  	vfd	a9/5,27/0
    000053  aa   066000 000000      76  	vfd	a9/6,27/0
    000054  aa   067000 000000      77  	vfd	a9/7,27/0
    000055  aa   070000 000000      78  	vfd	a9/8,27/0
    000056  aa   071000 000000      79  	vfd	a9/9,27/0
    000057  aa   133000 000000      80  	vfd	a9/[,27/0
    000060  aa   043000 000000      81  	vfd	a9/#,27/0
    000061  aa   100000 000000      82  	vfd	a9/@,27/0
    000062  aa   072000 000000      83  	vfd	a9/:,27/0
    000063  aa   076000 000000      84  	vfd	a9/>,27/0
    000064  aa   077000 000000      85  	vfd	a9/?,27/0
    000065  aa   040000 000000      86  	vfd	a9/ ,27/0
    000066  aa   141000 000000      87  	vfd	a9/a,27/0
    000067  aa   142000 000000      88  	vfd	a9/b,27/0
    000070  aa   143000 000000      89  	vfd	a9/c,27/0
    000071  aa   144000 000000      90  	vfd	a9/d,27/0
    000072  aa   145000 000000      91  	vfd	a9/e,27/0
    000073  aa   146000 000000      92  	vfd	a9/f,27/0
    000074  aa   147000 000000      93  	vfd	a9/g,27/0
    000075  aa   150000 000000      94  	vfd	a9/h,27/0
    000076  aa   151000 000000      95  	vfd	a9/i,27/0
    000077  aa   046000 000000      96  	vfd	a9/&,27/0
    000100  aa   056000 000000      97  	vfd	a9/.,27/0
    000101  aa   135000 000000      98  	vfd	a9/],27/0
    000102  aa   050000 000000      99  	vfd	a9/(,27/0
    000103  aa   074000 000000     100  	vfd	a9/<,27/0
    000104  aa   134000 000000     101  	vfd	a9/\,27/0
    000105  aa   136000 000000     102  	vfd	a9/^,27/0
    000106  aa   152000 000000     103  	vfd	a9/j,27/0
    000107  aa   153000 000000     104  	vfd	a9/k,27/0
    000110  aa   154000 000000     105  	vfd	a9/l,27/0
    000111  aa   155000 000000     106  	vfd	a9/m,27/0
    000112  aa   156000 000000     107  	vfd	a9/n,27/0
    000113  aa   157000 000000     108  	vfd	a9/o,27/0
    000114  aa   160000 000000     109  	vfd	a9/p,27/0
    000115  aa   161000 000000     110  	vfd	a9/q,27/0
    000116  aa   162000 000000     111  	vfd	a9/r,27/0
    000117  aa   055000 000000     112  	vfd	a9/-,27/0
    000120  aa   044000 000000     113  	vfd	a9/$,27/0
    000121  aa   052000 000000     114  	vfd	a9/*,27/0
    000122  aa   051000 000000     115  	vfd	a9/),27/0
    000123  aa   073000 000000     116  	vfd	o9/073,27/0		";
    000124  aa   047000 000000     117  	vfd	a9/',27/0
    000125  aa   053000 000000     118  	vfd	a9/+,27/0
    000126  aa   057000 000000     119  	vfd	a9//,27/0
    000127  aa   163000 000000     120  	vfd	a9/s,27/0
    000130  aa   164000 000000     121  	vfd	a9/t,27/0
    000131  aa   165000 000000     122  	vfd	a9/u,27/0
    000132  aa   166000 000000     123  	vfd	a9/v,27/0
    000133  aa   167000 000000     124  	vfd	a9/w,27/0
    000134  aa   170000 000000     125  	vfd	a9/x,27/0
    000135  aa   171000 000000     126  	vfd	a9/y,27/0
    000136  aa   172000 000000     127  	vfd	a9/z,27/0
    000137  aa   137000 000000     128  	vfd	a9/_,27/0			"<-
    000140  aa   054000 000000     129  	vfd	o9/054,27/0		",
    000141  aa   045000 000000     130  	vfd	a9/%,27/0
    000142  aa   075000 000000     131  	vfd	a9/=,27/0
    000143  aa   042000 000000     132  	vfd	a9/",27/0
    000144  aa   041000 000000     133  	vfd	a9/!,27/0
                                   134
                                   135  temp	btemp
                                   136
                                   137  end
ENTRY SEQUENCES

    000145  5a   000013 0000 00
    000146  aa  7 00046 2721 20
    000147  0a   000000 7100 00

NO LITERALS

NAME DEFINITIONS FOR ENTRY POINTS AND SEGDEFS

    000150  5a   000003 000000
    000151  5a   000032 600000
    000152  aa   000000 000000
    000153  55   000013 000002
    000154  5a   000002 400003
    000155  55   000006 000013
    000156  aa  020 143 166 137
    000157  aa  142 143 144 137
    000160  aa  164 157 137 141
    000161  aa  163 143 151 151
    000162  aa  137 000 000 000
    000163  55   000023 000003
    000164  0a   000146 500000
    000165  55   000016 000003
    000166  aa  020 143 166 137         cv_bcd_to_ascii_
    000167  aa  142 143 144 137
    000170  aa  164 157 137 141
    000171  aa  163 143 151 151
    000172  aa  137 000 000 000
    000173  55   000002 000013
    000174  6a   000000 400002
    000175  55   000026 000003
    000176  aa  014 163 171 155         symbol_table
    000177  aa  142 157 154 137
    000200  aa  164 141 142 154
    000201  aa  145 000 000 000

DEFINITIONS HASH TABLE

    000202  aa   000000 000015
    000203  aa   000000 000000
    000204  aa   000000 000000
    000205  aa   000000 000000
    000206  aa   000000 000000
    000207  aa   000000 000000
    000210  aa   000000 000000
    000211  5a   000023 000000
    000212  aa   000000 000000
    000213  aa   000000 000000
    000214  aa   000000 000000
    000215  aa   000000 000000
    000216  aa   000000 000000
    000217  5a   000013 000000

NO EXTERNAL NAMES

NO TRAP POINTER WORDS

TYPE PAIR BLOCKS

    000220  aa   000001 000000
    000221  aa   000000 000000

INTERNAL EXPRESSION WORDS

LINKAGE INFORMATION

    000000  aa   000000 000000
    000001  0a   000150 000000
    000002  aa   000000 000000
    000003  aa   000000 000000
    000004  aa   000000 000000
    000005  aa   000000 000000
    000006  22   000010 000010
    000007  a2   000000 000000
SYMBOL INFORMATION

SYMBOL TABLE HEADER

    000000  aa   000000 000001
    000001  aa   163171 155142
    000002  aa   164162 145145
    000003  aa   000000 000004
    000004  aa   000000 111316
    000005  aa   510113 575622
    000006  aa   000000 111342
    000007  aa   413636 403050
    000010  aa   141154 155040
    000011  aa   040040 040040
    000012  aa   000024 000040
    000013  aa   000034 000040
    000014  aa   000044 000100
    000015  aa   000002 000002
    000016  aa   000064 000000
    000017  aa   000000 000126
    000020  aa   000000 000104
    000021  aa   000000 000115
    000022  aa   000120 000104
    000023  aa   000064 000000
    000024  aa   101114 115040
    000025  aa   126145 162163
    000026  aa   151157 156040
    000027  aa   040066 056064
    000030  aa   040040 101160
    000031  aa   162151 154040
    000032  aa   061071 070061
    000033  aa   040040 040040
    000034  aa   110157 154155
    000035  aa   163164 145144
    000036  aa   164056 123171
    000037  aa   163115 141151
    000040  aa   156164 056155
    000041  aa   040040 040040
    000042  aa   040040 040040
    000043  aa   040040 040040
    000044  aa   154151 163164
    000045  aa   040040 040040
    000046  aa   040040 040040
    000047  aa   040040 040040
    000050  aa   040040 040040
    000051  aa   040040 040040
    000052  aa   040040 040040
    000053  aa   040040 040040
    000054  aa   040040 040040
    000055  aa   040040 040040
    000056  aa   040040 040040
    000057  aa   040040 040040
    000060  aa   040040 040040
    000061  aa   040040 040040
    000062  aa   040040 040040
    000063  aa   040040 040040
    000064  aa   000000 000001
    000065  aa   000000 000001
    000066  aa   000072 000046
    000067  aa   113400 563327
    000070  aa   000000 111342
    000071  aa   411265 600000
    000072  aa   076163 160145          >spec>on>11/19/82>cv_bcd_to_ascii_.alm
    000073  aa   143076 157156
    000074  aa   076061 061057
    000075  aa   061071 057070
    000076  aa   062076 143166
    000077  aa   137142 143144
    000100  aa   137164 157137
    000101  aa   141163 143151
    000102  aa   151137 056141
    000103  aa   154155 040040
               MULTICS ASSEMBLY CROSS REFERENCE LISTING

   Value        Symbol                   Source file   Line number

          45    btable                   cv_bcd_to_ascii_:    59,   70.
          50    btemp                    cv_bcd_to_ascii_:    31,   51,   55,   57,  135.
          15    continue                 cv_bcd_to_ascii_:    33,   64.
           0    cv_bcd_to_ascii_         cv_bcd_to_ascii_:    13,   15.
          44    fin                      cv_bcd_to_ascii_:    42,   66.
          24    moreascii                cv_bcd_to_ascii_:    36,   44.
          32    morebcd                  cv_bcd_to_ascii_:    47,   53.


NO FATAL ERRORS


                                          -----------------------------------------------------------


Historical Background

This edition of the Multics software materials and documentation is provided and donated
to Massachusetts Institute of Technology by Group BULL including BULL HN Information Systems Inc.
as a contribution to computer science knowledge.
This donation is made also to give evidence of the common contributions of Massachusetts Institute of Technology,
Bell Laboratories, General Electric, Honeywell Information Systems Inc., Honeywell BULL Inc., Groupe BULL
and BULL HN Information Systems Inc. to the development of this operating system.
Multics development was initiated by Massachusetts Institute of Technology Project MAC (1963-1970),
renamed the MIT Laboratory for Computer Science and Artificial Intelligence in the mid 1970s, under the leadership
of Professor Fernando Jose Corbato. Users consider that Multics provided the best software architecture
for managing computer hardware properly and for executing programs. Many subsequent operating systems
incorporated Multics principles.
Multics was distributed in 1975 to 2000 by Group Bull in Europe , and in the U.S. by Bull HN Information Systems Inc.,
as successor in interest by change in name only to Honeywell Bull Inc. and Honeywell Information Systems Inc. .

                                          -----------------------------------------------------------

Permission to use, copy, modify, and distribute these programs and their documentation for any purpose and without
fee is hereby granted,provided that the below copyright notice and historical background appear in all copies
and that both the copyright notice and historical background and this permission notice appear in supporting
documentation, and that the names of MIT, HIS, BULL or BULL HN not be used in advertising or publicity pertaining
to distribution of the programs without specific prior written permission.
    Copyright 1972 by Massachusetts Institute of Technology and Honeywell Information Systems Inc.
    Copyright 2006 by BULL HN Information Systems Inc.
    Copyright 2006 by Bull SAS
    All Rights Reserved
