	COMPILATION LISTING OF SEGMENT delete_from_remote_cat_
	Compiled by: Multics PL/I Compiler, Release 29, of July 28, 1986
	Compiled at: Honeywell Bull, Phx. Az., Sys-M
	Compiled on: 08/07/87  1503.9 mst Fri
	    Options: optimize map

        1 /****^  ***********************************************************
        2*        *                                                         *
        3*        * Copyright, (C) Honeywell Bull Inc., 1987                *
        4*        *                                                         *
        5*        * Copyright, (C) Honeywell Information Systems Inc., 1986 *
        6*        *                                                         *
        7*        *********************************************************** */
        8
        9 /****^  HISTORY COMMENTS:
       10*  1) change(86-08-28,Smith), approve(87-07-15,MCR7580),
       11*     audit(87-07-30,RBarstad), install(87-08-07,MR12.1-1075):
       12*     Created.
       13*  2) change(86-10-22,Smith), approve(87-07-15,MCR7580),
       14*     audit(87-07-30,RBarstad), install(87-08-07,MR12.1-1075):
       15*     Removed name of capability as an input parameter since it is not sent
       16*     with a delete_from_remote_cat_message.
       17*  3) change(86-11-27,Flegel), approve(86-11-27,MCR7580),
       18*     audit(87-07-30,RBarstad), install(87-08-07,MR12.1-1075):
       19*     Approved.
       20*  4) change(86-12-10,Flegel), approve(86-12-10,MCR7580),
       21*     audit(87-07-30,RBarstad), install(87-08-07,MR12.1-1075):
       22*     Replaced signalling of mowse_fatal_error with a call to fatal_mowse_trap_.
       23*                                                   END HISTORY COMMENTS */
       24 /* format: style4,indattr,ifthen,^indcomtxt,thendo,^indproc,^indblkcom,initcol1,declareind8,dclind4,struclvlind3,comcol55 */
       25 delete_from_remote_cat_:
       26      proc (p_mcb_ptr, p_major_capability_number, p_code);
       27
       28 /* : PROCEDURE FUNCTION
       29*
       30*Handles DELETE_FROM_REMOTE_CAT messages sent to MOWSE from a remote system.
       31*Since this is an internal function and no replys to such messages are given
       32*any errors detected are fatal to  MOWSE.
       33**/
       34
       35 /* : NOTES
       36**/
       37
       38
       39 /* INPUT PARAMETERS */
       40 dcl p_mcb_ptr	       ptr;
       41 dcl p_major_capability_number
       42 		       fixed bin parameter;	    /* major capability number (system|cap_num) */
       43
       44
       45 /* OUTPUT PARAMETERS */
       46 dcl p_code	       fixed bin (35);	    /* return code */
       47
       48
       49 /* MISC VARIABLES */
       50 dcl mowse_info_ptr	       ptr;		    /* Pointer to mowse info structure */
       51 dcl cap_numb	       fixed bin;		    /* major capability index (usable as index into CAT tables ) */
       52 dcl sysid		       fixed bin;		    /* MOWSE system id */
       53
       54
       55 /* STRUCTURES */
       56
       57
       58 /* SYSTEM CALLS */
       59 dcl capability_$unpack     entry (fixed bin, fixed bin, fixed bin,
       60 		       fixed bin (35));
       61
       62
       63 /* SYSTEM CALL SUPPORT */
       64 dcl ws_error_$invalid_capability_number
       65 		       fixed bin (35) ext static;
       66
       67 /* EXTERNAL CALLS */
       68 dcl get_mowse_info_ptr_    entry (ptr, ptr, fixed bin (35));
       69 dcl fatal_mowse_trap_      entry (fixed bin (35));
       70
       71 /* CONDITIONS */
       72
       73 /* BUILTINS */
       74
       75 /* CONSTANTS */
       76 dcl FALSE		       bit (1) int static options (constant) init ("0"b);
       77
       78 /**/
       79 /* INITIALIZATION */
       80
       81 	call get_mowse_info_ptr_ (p_mcb_ptr, mowse_info_ptr, p_code);
       82 	if p_code ^= 0 then
       83 	     return;
       84
       85 /* MAIN */
       86
       87 /* : Check the major_capability_number */
       88
       89 	if p_major_capability_number < MINIMUM_CAT_ENTRY |
       90 	     p_major_capability_number > MAXIMUM_CAT_ENTRY
       91 	then do;
       92 	     call fatal_mowse_trap_ (ws_error_$invalid_capability_number);
       93 	     return;
       94 	end;
       95
       96 /* : Find the remote cat table entry associated with input parameters
       97*     If it is not found then return ws_error_$invalid_capability_number */
       98
       99 	call capability_$unpack (sysid, cap_numb,
      100 	     (mowse_info_ptr
      101 	     -> mowse_info.remote_cat (p_major_capability_number)
      102 	     .major_capability), p_code);
      103 	if p_code ^= 0 | cap_numb ^= p_major_capability_number then do;
      104 	     call fatal_mowse_trap_ (ws_error_$invalid_capability_number);
      105 	     return;
      106 	end;
      107
      108 /* : re - initialize the remote cat entry */
      109
      110 	mowse_info_ptr
      111 	     -> mowse_info.remote_cat (p_major_capability_number)
      112 	     .major_capability = 0;
      113 	mowse_info_ptr
      114 	     -> mowse_info.remote_cat (p_major_capability_number)
      115 	     .capability_name = "";
      116 	mowse_info_ptr
      117 	     -> mowse_info.remote_cat (p_major_capability_number).flags
      118 	     .reset = "0"b;
      119 	mowse_info_ptr
      120 	     -> mowse_info.remote_cat (p_major_capability_number).flags
      121 	     .suspended = "0"b;
      122 	mowse_info_ptr
      123 	     -> mowse_info.remote_cat (p_major_capability_number)
      124 	     .sleep_time = FALSE;
      125
      126 	p_code = 0;
      127 	return;
      128
      129
      130 /* INCLUDE FILES */
  1     1 /*  BEGIN INCLUDE FILE:	mowse.incl.pl1			  *  *  *  *  *  *  *  *  *  *  *  *  */
  1     2
  1     3 /****^  HISTORY COMMENTS:
  1     4*  1) change(86-09-17,Flegel), approve(86-12-16,MCR7580),
  1     5*     audit(86-12-15,Gilcrease), install(87-01-06,MR12.0-1255):
  1     6*     Created.
  1     7*  2) change(86-10-03,Flegel), approve(86-12-16,MCR7580),
  1     8*     audit(86-12-15,Gilcrease), install(87-01-06,MR12.0-1255):
  1     9*     Combined mowse_minor_caps.incl.pl1 and
  1    10*     mowse.incl.pl1 so that programmer only needs include mowse.incl.pl1
  1    11*  3) change(86-11-27,Flegel), approve(86-11-27,MCR7580),
  1    12*     audit(86-12-15,Gilcrease), install(87-01-06,MR12.0-1255):
  1    13*     Approved.
  1    14*  4) change(87-07-31,Flegel), approve(87-07-31,MCR7580),
  1    15*     audit(87-07-31,RBarstad), install(87-08-07,MR12.1-1075):
  1    16*     Changes to support async call channels.
  1    17*                                                   END HISTORY COMMENTS */
  1    18
  1    19 /* Name of MOWSE temp seg for data */
  1    20
  1    21 /* format: style4,indattr,ifthen,^indcomtxt,thendo,^indproc,^indblkcom,initcol1,declareind8,dclind4,struclvlind3,comcol55 */
  1    22 dcl temp_seg_name	       char (6) init ("MOWSE_");
  1    23
  1    24 /* Version number */
  1    25
  1    26 dcl MOWSE_VERSION_	       char (8) int static options (constant) init ("version1");
  1    27
  1    28 /* System identification */
  1    29
  1    30 dcl LOCAL_SYSTEM	       fixed bin int static options (constant) init (32);
  1    31 dcl REMOTE_SYSTEM	       fixed bin int static options (constant) init (33);
  1    32
  1    33 /* Status request return codes */
  1    34
  1    35 dcl STATUS_SUCCESS	       fixed bin (8) int static options (constant)
  1    36 		       init (32);
  1    37 dcl STATUS_FAILED	       fixed bin (8) int static options (constant)
  1    38 		       init (33);
  1    39
  1    40 /* Input/output capability buffer size limits */
  1    41
  1    42 dcl MINIMUM_BUFFER_SIZE    fixed bin int static options (constant) init (128);
  1    43 dcl MAXIMUM_BUFFER_SIZE    fixed bin int static options (constant) init (65536);
  1    44 dcl MAXIMUM_BG_SIZE	       fixed bin int static options (constant) init (512);
  1    45
  1    46 /* Packet size (communication) constants */
  1    47
  1    48 dcl PACKET_SIZE	       fixed bin int static options (constant) init (124);
  1    49 dcl MAXIMUM_PACKET_SIZE    fixed bin int static options (constant) init (118);
  1    50
  1    51 /* Query message constants */
  1    52
  1    53 dcl SEND_QUERY	       fixed bin int static options (constant) init (128);
  1    54 dcl ACCEPT	       fixed bin int static options (constant) init (32);
  1    55 dcl REJECT	       fixed bin int static options (constant) init (33);
  1    56
  1    57 /* Trace information constants */
  1    58
  1    59 dcl RECEIVE	       fixed bin int static options (constant) init (1);
  1    60 dcl SEND		       fixed bin int static options (constant) init (0);
  1    61
  1    62 /* Limits on dedicated minor capabilities */
  1    63
  1    64 dcl MINIMUM_SYSTEM_MINOR   fixed bin int static options (constant) init (32);
  1    65 dcl MAXIMUM_SYSTEM_MINOR   fixed bin int static options (constant) init (63);
  1    66 dcl MINIMUM_USER_MINOR     fixed bin int static options (constant) init (64);
  1    67 dcl MAXIMUM_USER_MINOR     fixed bin int static options (constant) init (127);
  1    68
  1    69 /* Dedicated Minor Capabilities */
  1    70
  1    71 dcl LAST		       fixed bin int static options (constant) init (0);
  1    72 dcl EXECUTE_COMMAND_REPLY  fixed bin int static options (constant) init (32);
  1    73 dcl EXECUTE_CAPABILITY_REPLY
  1    74 		       fixed bin int static options (constant) init (33);
  1    75 dcl FAIL_CAPABILITY	       fixed bin int static options (constant) init (33);
  1    76 dcl INTERNAL	       fixed bin int static options (constant) init (32);
  1    77 dcl EXECUTE_COMMAND	       fixed bin int static options (constant) init (34);
  1    78 dcl ADD_TO_REMOTE_CAT      fixed bin int static options (constant) init (35);
  1    79 dcl DELETE_FROM_REMOTE_CAT fixed bin int static options (constant) init (36);
  1    80 dcl SUSPEND_APPLICATION    fixed bin int static options (constant) init (37);
  1    81 dcl RESUME_APPLICATION     fixed bin int static options (constant) init (38);
  1    82 dcl TERMINATE_APPLICATION  fixed bin int static options (constant) init (39);
  1    83 dcl RESET_APPLICATION      fixed bin int static options (constant) init (40);
  1    84 dcl RESET_REPLY	       fixed bin int static options (constant) init (41);
  1    85 dcl WAKE_UP	       fixed bin int static options (constant) init (42);
  1    86 dcl STATUS	       fixed bin int static options (constant) init (43);
  1    87 dcl OVERFLOWED_BUFFER      fixed bin int static options (constant) init (44);
  1    88 dcl SYSTEM_ERROR	       fixed bin int static options (constant) init (45);
  1    89 dcl QUERY_REPLY	       fixed bin int static options (constant) init (46);
  1    90 dcl RESPONSE_CONNECT       fixed bin int static options (constant) init (47);
  1    91 dcl RESPONSE_DISCONNECT    fixed bin int static options (constant) init (48);
  1    92 dcl REQUEST_CONNECT	       fixed bin int static options (constant) init (49);
  1    93 dcl REQUEST_DISCONNECT     fixed bin int static options (constant) init (50);
  1    94 dcl CONTINUE	       fixed bin int static options (constant) init (51);
  1    95 dcl MORE		       fixed bin int static options (constant) init (52);
  1    96 dcl SET_SLEEP_FLAG	       fixed bin int static options (constant) init (53);
  1    97 dcl RESET_SLEEP_FLAG       fixed bin int static options (constant) init (54);
  1    98 dcl SET_SUSPEND	       fixed bin int static options (constant) init (55);
  1    99 dcl RESET_SUSPEND	       fixed bin int static options (constant) init (56);
  1   100 dcl STATUS_REPLY	       fixed bin int static options (constant) init (57);
  1   101
  1   102 /* Foreground */
  1   103
  1   104 dcl FG_CONTROL_MESSAGE     fixed bin int static options (constant) init (33);
  1   105 dcl FG_BREAK	       fixed bin int static options (constant) init (34);
  1   106 dcl FG_TERMINAL_DATA       fixed bin int static options (constant) init (35);
  1   107 dcl FG_MORE_DATA	       fixed bin int static options (constant) init (36);
  1   108 dcl PUT_TO_BACKGROUND_BUFFER
  1   109 		       fixed bin int static options (constant) init (37);
  1   110 dcl PUT_TO_QUERY_MESSAGE_BUFFER
  1   111 		       fixed bin int static options (constant) init (38);
  1   112
  1   113 /*  END INCLUDE FILE:	mowse.incl.pl1			  *  *  *  *  *  *  *  *  *  *  *  *  */
      131
  2     1 /*  BEGIN INCLUDE FILE:	mowse_info.incl.pl1			  *  *  *  *  *  *  *  *  *  *  *  *  */
  2     2
  2     3 /****^  HISTORY COMMENTS:
  2     4*  1) change(86-07-19,Smith), approve(87-07-15,MCR7580),
  2     5*     audit(87-07-30,RBarstad), install(87-08-07,MR12.1-1075):
  2     6*     Created to define MOWSE information to be
  2     7*     placed into a temp segment.
  2     8*  2) change(86-11-27,Flegel), approve(86-11-27,MCR7580),
  2     9*     audit(87-07-30,RBarstad), install(87-08-07,MR12.1-1075):
  2    10*     Approved.
  2    11*  3) change(87-02-25,Flegel), approve(87-02-25,MCR7580),
  2    12*     audit(87-07-30,RBarstad), install(87-08-07,MR12.1-1075):
  2    13*     Added bit switches to the init_mowse_info structure as well as the force
  2    14*     flag.
  2    15*  4) change(87-03-24,Flegel), approve(87-03-24,MCR7580),
  2    16*     audit(87-07-30,RBarstad), install(87-08-07,MR12.1-1075):
  2    17*     Added open_struc for passing EOP and escape char info from attach_mowse
  2    18*     to mowse_io_.
  2    19*                                                   END HISTORY COMMENTS */
  2    20
  2    21 /* CAT index limits */
  2    22
  2    23 /* format: style4,indattr,ifthen,^indcomtxt,thendo,^indproc,^indblkcom,initcol1,declareind8,dclind4,struclvlind3,comcol55 */
  2    24 dcl MINIMUM_CAT_ENTRY      fixed bin int static options (constant) init (33);
  2    25 dcl MAXIMUM_CAT_ENTRY      fixed bin int static options (constant) init (64);
  2    26
  2    27 dcl CAPABILITY_NAME_LENGTH fixed bin int static options (constant) init (32);
  2    28
  2    29 /* Mowse information structure */
  2    30
  2    31 dcl 01 mowse_info	       based aligned,
  2    32        02 version	       char (8),
  2    33        02 local_cat	       dimension (33:64),	    /* Multics CAT table */
  2    34 	03 flags,
  2    35 	   04 reset      bit (1) unal,	    /* Reset in progress */
  2    36 	   04 suspended  bit (1) unal,	    /* Suspended applciation */
  2    37 	   04 status     bit (1) unal,	    /* Status pending */
  2    38 	   04 mbz1       bit (33) unal,
  2    39 	03 sleep_time    fixed bin,		    /* Time application is sleeping */
  2    40 	03 mcb_ptr       ptr,		    /* Capability MCB */
  2    41        02 remote_cat       dimension (33:64),	    /* PC CAT table */
  2    42 	03 major_capability
  2    43 		       fixed bin,		    /* Capability number */
  2    44 	03 capability_name char (32),		    /* Name of capability */
  2    45 	03 flags,
  2    46 	   04 reset      bit (1) unal,	    /* Reset in progress */
  2    47 	   04 suspended  bit (1) unal,	    /* Suspended capability */
  2    48 	   04 sleep_time bit (1) unal,	    /* Application sleeping */
  2    49 	   04 mbz2       bit (33) unal,
  2    50        02 message_manager_info,		    /* Info for processing messages */
  2    51 	03 head_list_ptr ptr,		    /* Head of message list */
  2    52 	03 tail_list_ptr ptr,		    /* Tail of message list */
  2    53 	03 pending_messages
  2    54 		       fixed bin,		    /* Number of pending messages */
  2    55        02 mowse_flags,
  2    56 	03 trace	       bit (1) unal,	    /* Message tracing facility active */
  2    57 	03 debug	       bit (1) unal,	    /* Debugging packets facility active */
  2    58 	03 error_handled bit (1) unal,	    /* In mowse_error_handler procedure */
  2    59 	03 mbz1	       bit (33) unal,
  2    60 	03 trace_file_iocb ptr,		    /* Trace file iocb */
  2    61 	03 debug_file_iocb ptr,		    /* Debug file iocb */
  2    62        02 init_mowse_info_ptr
  2    63 		       ptr;		    /* Initialization information */
  2    64
  2    65 /* MOWSE initialization information */
  2    66
  2    67 dcl init_mowse_info_ptr    ptr;
  2    68 dcl 01 init_mowse_info     based (init_mowse_info_ptr),
  2    69        02 version	       char (8),
  2    70        02 flags,				    /* Bit switches */
  2    71 	03 trace_sw      bit (1) unal,
  2    72 	03 debug_sw      bit (1) unal,
  2    73 	03 io_switch_sw  bit (1) unal,
  2    74 	03 force_sw      bit (1) unal,
  2    75 	03 start_up_sw   bit (1) unal,
  2    76 	03 escape_sw     bit (1) unal,
  2    77 	03 network_sw    bit (1) unal,
  2    78 	03 pad	       bit (29) unal,
  2    79        02 escape,
  2    80 	03 chars	       (0:255) bit (1) unal,	    /* Character escapes */
  2    81 	03 pad	       bit (32) unal,
  2    82        02 trace	       char (512) var,	    /* Trace file name */
  2    83        02 debug	       char (512) var,	    /* Debug file name */
  2    84        02 io_switch	       char (512) var,	    /* Io switch name of mowse_io_ attachment */
  2    85        02 startup	       (MAXIMUM_CAT_ENTRY - MINIMUM_CAT_ENTRY + 1)
  2    86 		       char (168) var;	    /* Capability to be autoloaded */
  2    87
  2    88 /* Open description structure (this is padded to character bounds as it
  2    89*   is a character overlay structure - passed as a character string) */
  2    90
  2    91 dcl open_struc_ptr	       ptr;
  2    92 dcl 01 open_struc	       based (open_struc_ptr),
  2    93        02 flags,
  2    94 	03 network_sw    bit (1) unal,
  2    95 	03 escape_sw     bit (1) unal,
  2    96 	03 pad	       bit (7) unal,
  2    97        02 escape,
  2    98 	03 switches      (0:255) bit (1) unal,
  2    99 	03 pad	       bit (32) unal,
  2   100        02 mbz	       bit (16) unal;
  2   101
  2   102 /*  END INCLUDE FILE:	mowse_info.incl.pl1			  *  *  *  *  *  *  *  *  *  *  *  *  */
      132
      133
      134 /* : END */
      135      end;
	SOURCE FILES USED IN THIS COMPILATION.

LINE      NUMBER  DATE MODIFIED     NAME			PATHNAME
             0    08/07/87  1450.4  delete_from_remote_cat_.pl1       >special_ldd>install>MR12.1-1075>delete_from_remote_cat_.pl1
131          1    08/07/87  1445.8  mowse.incl.pl1                    >special_ldd>install>MR12.1-1075>mowse.incl.pl1
132          2    08/07/87  1445.8  mowse_info.incl.pl1               >special_ldd>install>MR12.1-1075>mowse_info.incl.pl1
	NAMES DECLARED IN THIS COMPILATION.

IDENTIFIER	     OFFSET    LOC STORAGE CLASS   DATA TYPE		ATTRIBUTES AND REFERENCES
								(* indicates a set context)

NAMES DECLARED BY DECLARE STATEMENT.
FALSE                                  constant        bit(1)                   initial unaligned dcl 76 ref 122
MAXIMUM_CAT_ENTRY                      constant        fixed bin(17,0)          initial dcl 2-25 ref 89
MINIMUM_CAT_ENTRY                      constant        fixed bin(17,0)          initial dcl 2-24 ref 89
cap_numb                        000102 automatic       fixed bin(17,0)          dcl 51 set ref 99* 103
capability_$unpack              000010 constant        entry                    external dcl 59 ref 99
capability_name         203            based           char(32)                 array level 3 dcl 2-31 set ref 113*
fatal_mowse_trap_               000016 constant        entry                    external dcl 69 ref 92 104
flags                   213            based           structure                array level 3 dcl 2-31
get_mowse_info_ptr_             000014 constant        entry                    external dcl 68 ref 81
major_capability        202            based           fixed bin(17,0)          array level 3 dcl 2-31 set ref 99 110*
mowse_info                             based           structure                level 1 dcl 2-31
mowse_info_ptr                  000100 automatic       pointer                  dcl 50 set ref 81* 99 110 113 116 119 122
p_code                                 parameter       fixed bin(35,0)          dcl 46 set ref 25 81* 82 99* 103 126*
p_major_capability_number              parameter       fixed bin(17,0)          dcl 41 ref 25 89 89 99 103 110 113 116 119 122
p_mcb_ptr                              parameter       pointer                  dcl 40 set ref 25 81*
remote_cat              202            based           structure                array level 2 dcl 2-31
reset                   213            based           bit(1)                   array level 4 packed unaligned dcl 2-31 set ref 116*
sleep_time              213(02)        based           bit(1)                   array level 4 packed unaligned dcl 2-31 set ref 122*
suspended               213(01)        based           bit(1)                   array level 4 packed unaligned dcl 2-31 set ref 119*
sysid                           000103 automatic       fixed bin(17,0)          dcl 52 set ref 99*
temp_seg_name                   000104 automatic       char(6)                  initial unaligned dcl 1-22 set ref 1-22*
ws_error_$invalid_capability_number
                                000012 external static fixed bin(35,0)          dcl 64 set ref 92* 104*

NAMES DECLARED BY DECLARE STATEMENT AND NEVER REFERENCED.
ACCEPT                                 internal static fixed bin(17,0)          initial dcl 1-54
ADD_TO_REMOTE_CAT                      internal static fixed bin(17,0)          initial dcl 1-78
CAPABILITY_NAME_LENGTH                 internal static fixed bin(17,0)          initial dcl 2-27
CONTINUE                               internal static fixed bin(17,0)          initial dcl 1-94
DELETE_FROM_REMOTE_CAT                 internal static fixed bin(17,0)          initial dcl 1-79
EXECUTE_CAPABILITY_REPLY               internal static fixed bin(17,0)          initial dcl 1-73
EXECUTE_COMMAND                        internal static fixed bin(17,0)          initial dcl 1-77
EXECUTE_COMMAND_REPLY                  internal static fixed bin(17,0)          initial dcl 1-72
FAIL_CAPABILITY                        internal static fixed bin(17,0)          initial dcl 1-75
FG_BREAK                               internal static fixed bin(17,0)          initial dcl 1-105
FG_CONTROL_MESSAGE                     internal static fixed bin(17,0)          initial dcl 1-104
FG_MORE_DATA                           internal static fixed bin(17,0)          initial dcl 1-107
FG_TERMINAL_DATA                       internal static fixed bin(17,0)          initial dcl 1-106
INTERNAL                               internal static fixed bin(17,0)          initial dcl 1-76
LAST                                   internal static fixed bin(17,0)          initial dcl 1-71
LOCAL_SYSTEM                           internal static fixed bin(17,0)          initial dcl 1-30
MAXIMUM_BG_SIZE                        internal static fixed bin(17,0)          initial dcl 1-44
MAXIMUM_BUFFER_SIZE                    internal static fixed bin(17,0)          initial dcl 1-43
MAXIMUM_PACKET_SIZE                    internal static fixed bin(17,0)          initial dcl 1-49
MAXIMUM_SYSTEM_MINOR                   internal static fixed bin(17,0)          initial dcl 1-65
MAXIMUM_USER_MINOR                     internal static fixed bin(17,0)          initial dcl 1-67
MINIMUM_BUFFER_SIZE                    internal static fixed bin(17,0)          initial dcl 1-42
MINIMUM_SYSTEM_MINOR                   internal static fixed bin(17,0)          initial dcl 1-64
MINIMUM_USER_MINOR                     internal static fixed bin(17,0)          initial dcl 1-66
MORE                                   internal static fixed bin(17,0)          initial dcl 1-95
MOWSE_VERSION_                         internal static char(8)                  initial unaligned dcl 1-26
OVERFLOWED_BUFFER                      internal static fixed bin(17,0)          initial dcl 1-87
PACKET_SIZE                            internal static fixed bin(17,0)          initial dcl 1-48
PUT_TO_BACKGROUND_BUFFER               internal static fixed bin(17,0)          initial dcl 1-108
PUT_TO_QUERY_MESSAGE_BUFFER            internal static fixed bin(17,0)          initial dcl 1-110
QUERY_REPLY                            internal static fixed bin(17,0)          initial dcl 1-89
RECEIVE                                internal static fixed bin(17,0)          initial dcl 1-59
REJECT                                 internal static fixed bin(17,0)          initial dcl 1-55
REMOTE_SYSTEM                          internal static fixed bin(17,0)          initial dcl 1-31
REQUEST_CONNECT                        internal static fixed bin(17,0)          initial dcl 1-92
REQUEST_DISCONNECT                     internal static fixed bin(17,0)          initial dcl 1-93
RESET_APPLICATION                      internal static fixed bin(17,0)          initial dcl 1-83
RESET_REPLY                            internal static fixed bin(17,0)          initial dcl 1-84
RESET_SLEEP_FLAG                       internal static fixed bin(17,0)          initial dcl 1-97
RESET_SUSPEND                          internal static fixed bin(17,0)          initial dcl 1-99
RESPONSE_CONNECT                       internal static fixed bin(17,0)          initial dcl 1-90
RESPONSE_DISCONNECT                    internal static fixed bin(17,0)          initial dcl 1-91
RESUME_APPLICATION                     internal static fixed bin(17,0)          initial dcl 1-81
SEND                                   internal static fixed bin(17,0)          initial dcl 1-60
SEND_QUERY                             internal static fixed bin(17,0)          initial dcl 1-53
SET_SLEEP_FLAG                         internal static fixed bin(17,0)          initial dcl 1-96
SET_SUSPEND                            internal static fixed bin(17,0)          initial dcl 1-98
STATUS                                 internal static fixed bin(17,0)          initial dcl 1-86
STATUS_FAILED                          internal static fixed bin(8,0)           initial dcl 1-37
STATUS_REPLY                           internal static fixed bin(17,0)          initial dcl 1-100
STATUS_SUCCESS                         internal static fixed bin(8,0)           initial dcl 1-35
SUSPEND_APPLICATION                    internal static fixed bin(17,0)          initial dcl 1-80
SYSTEM_ERROR                           internal static fixed bin(17,0)          initial dcl 1-88
TERMINATE_APPLICATION                  internal static fixed bin(17,0)          initial dcl 1-82
WAKE_UP                                internal static fixed bin(17,0)          initial dcl 1-85
init_mowse_info                        based           structure                level 1 unaligned dcl 2-68
init_mowse_info_ptr                    automatic       pointer                  dcl 2-67
open_struc                             based           structure                level 1 packed unaligned dcl 2-92
open_struc_ptr                         automatic       pointer                  dcl 2-91

NAME DECLARED BY EXPLICIT CONTEXT.
delete_from_remote_cat_         000012 constant        entry                    external dcl 25

THERE WERE NO NAMES DECLARED BY CONTEXT OR IMPLICATION.

STORAGE REQUIREMENTS FOR THIS PROGRAM.

	Object	Text	Link	Symbol	Defs	Static
Start          0       0       234         254     140         244
Length       476     140        20         205      74           0

BLOCK NAME	         STACK SIZE     TYPE		WHY NONQUICK/WHO SHARES STACK FRAME
delete_from_remote_cat_              90 external procedure  is an external procedure.

STORAGE FOR AUTOMATIC VARIABLES.

STACK FRAME                 LOC IDENTIFIER                  BLOCK NAME
delete_from_remote_cat_  000100 mowse_info_ptr              delete_from_remote_cat_
                         000102 cap_numb                    delete_from_remote_cat_
                         000103 sysid                       delete_from_remote_cat_
                         000104 temp_seg_name               delete_from_remote_cat_

THE FOLLOWING EXTERNAL OPERATORS ARE USED BY THIS PROGRAM.
call_ext_out        return_mac          ext_entry

THE FOLLOWING EXTERNAL ENTRIES ARE CALLED BY THIS PROGRAM.
capability_$unpack            fatal_mowse_trap_             get_mowse_info_ptr_

THE FOLLOWING EXTERNAL VARIABLES ARE USED BY THIS PROGRAM.
ws_error_$invalid_capability_number


   LINE    LOC      LINE    LOC      LINE    LOC      LINE    LOC      LINE    LOC      LINE    LOC      LINE    LOC
     25 000006    1   22 000017        81 000021        82 000034        89 000037        92 000044        93 000053
     99 000054       103 000075       104 000103       105 000112       110 000113       113 000117       116 000125
    119 000127       122 000131       126 000133       127 000134


                                          -----------------------------------------------------------


Historical Background

This edition of the Multics software materials and documentation is provided and donated
to Massachusetts Institute of Technology by Group BULL including BULL HN Information Systems Inc.
as a contribution to computer science knowledge.
This donation is made also to give evidence of the common contributions of Massachusetts Institute of Technology,
Bell Laboratories, General Electric, Honeywell Information Systems Inc., Honeywell BULL Inc., Groupe BULL
and BULL HN Information Systems Inc. to the development of this operating system.
Multics development was initiated by Massachusetts Institute of Technology Project MAC (1963-1970),
renamed the MIT Laboratory for Computer Science and Artificial Intelligence in the mid 1970s, under the leadership
of Professor Fernando Jose Corbato. Users consider that Multics provided the best software architecture
for managing computer hardware properly and for executing programs. Many subsequent operating systems
incorporated Multics principles.
Multics was distributed in 1975 to 2000 by Group Bull in Europe , and in the U.S. by Bull HN Information Systems Inc.,
as successor in interest by change in name only to Honeywell Bull Inc. and Honeywell Information Systems Inc. .

                                          -----------------------------------------------------------

Permission to use, copy, modify, and distribute these programs and their documentation for any purpose and without
fee is hereby granted,provided that the below copyright notice and historical background appear in all copies
and that both the copyright notice and historical background and this permission notice appear in supporting
documentation, and that the names of MIT, HIS, BULL or BULL HN not be used in advertising or publicity pertaining
to distribution of the programs without specific prior written permission.
    Copyright 1972 by Massachusetts Institute of Technology and Honeywell Information Systems Inc.
    Copyright 2006 by BULL HN Information Systems Inc.
    Copyright 2006 by Bull SAS
    All Rights Reserved
