	COMPILATION LISTING OF SEGMENT detach
	Compiled by: Multics PL/I Compiler, Release 33e, of October 6, 1992
	Compiled at: CGI
	Compiled on: 2000-04-18_1108.63_Tue_mdt
	    Options: optimize map

        1 detach : proc;
        2
        3 dcl  iox_$find_iocb entry (char(*), ptr, fixed bin(35));
        4 dcl  iox_$close entry (ptr,fixed bin(35));
        5 dcl  iox_$detach_iocb entry (ptr, fixed bin(35));
        6 dcl  ptr ptr;
        7 dcl  code fixed bin(35);
        8
        9 call iox_$find_iocb ("file10", ptr, code);
       10 call iox_$close (ptr,code);
       11 call iox_$detach_iocb (ptr, code);
       12 return;
       13
       14 end detach;
	SOURCE FILES USED IN THIS COMPILATION.

LINE      NUMBER  DATE MODIFIED     NAME			PATHNAME
             0    04/18/00  1108.6  detach.pl1                        >udd>sm>ds>w>ml>detach.pl1
	NAMES DECLARED IN THIS COMPILATION.

IDENTIFIER	     OFFSET    LOC STORAGE CLASS   DATA TYPE		ATTRIBUTES AND REFERENCES
								(* indicates a set context)

NAMES DECLARED BY DECLARE STATEMENT.
code                            000102 automatic       fixed bin(35,0)          dcl 7 set ref 9* 10* 11*
iox_$close                      000012 constant        entry                    external dcl 4 ref 10
iox_$detach_iocb                000014 constant        entry                    external dcl 5 ref 11
iox_$find_iocb                  000010 constant        entry                    external dcl 3 ref 9
ptr                             000100 automatic       pointer                  dcl 6 set ref 9* 10* 11*

NAME DECLARED BY EXPLICIT CONTEXT.
detach                          000007 constant        entry                    external dcl 1

THERE WERE NO NAMES DECLARED BY CONTEXT OR IMPLICATION.

STORAGE REQUIREMENTS FOR THIS PROGRAM.

	Object	Text	Link	Symbol	Defs	Static
Start          0       0       130         146      61         140
Length       306      61        16         124      46           0

BLOCK NAME	         STACK SIZE     TYPE		WHY NONQUICK/WHO SHARES STACK FRAME
detach                               84 external procedure  is an external procedure.

STORAGE FOR AUTOMATIC VARIABLES.

STACK FRAME                 LOC IDENTIFIER                  BLOCK NAME
detach                   000100 ptr                         detach
                         000102 code                        detach

THE FOLLOWING EXTERNAL OPERATORS ARE USED BY THIS PROGRAM.
call_ext_out_desc   call_ext_out        return_mac          ext_entry

THE FOLLOWING EXTERNAL ENTRIES ARE CALLED BY THIS PROGRAM.
iox_$close                    iox_$detach_iocb              iox_$find_iocb

NO EXTERNAL VARIABLES ARE USED BY THIS PROGRAM.


   LINE    LOC      LINE    LOC      LINE    LOC      LINE    LOC      LINE    LOC      LINE    LOC      LINE    LOC
      1 000006         9 000014        10 000036        11 000047        12 000060


                                          -----------------------------------------------------------


Historical Background

This edition of the Multics software materials and documentation is provided and donated
to Massachusetts Institute of Technology by Group BULL including BULL HN Information Systems Inc.
as a contribution to computer science knowledge.
This donation is made also to give evidence of the common contributions of Massachusetts Institute of Technology,
Bell Laboratories, General Electric, Honeywell Information Systems Inc., Honeywell BULL Inc., Groupe BULL
and BULL HN Information Systems Inc. to the development of this operating system.
Multics development was initiated by Massachusetts Institute of Technology Project MAC (1963-1970),
renamed the MIT Laboratory for Computer Science and Artificial Intelligence in the mid 1970s, under the leadership
of Professor Fernando Jose Corbato. Users consider that Multics provided the best software architecture
for managing computer hardware properly and for executing programs. Many subsequent operating systems
incorporated Multics principles.
Multics was distributed in 1975 to 2000 by Group Bull in Europe , and in the U.S. by Bull HN Information Systems Inc.,
as successor in interest by change in name only to Honeywell Bull Inc. and Honeywell Information Systems Inc. .

                                          -----------------------------------------------------------

Permission to use, copy, modify, and distribute these programs and their documentation for any purpose and without
fee is hereby granted,provided that the below copyright notice and historical background appear in all copies
and that both the copyright notice and historical background and this permission notice appear in supporting
documentation, and that the names of MIT, HIS, BULL or BULL HN not be used in advertising or publicity pertaining
to distribution of the programs without specific prior written permission.
    Copyright 1972 by Massachusetts Institute of Technology and Honeywell Information Systems Inc.
    Copyright 2006 by BULL HN Information Systems Inc.
    Copyright 2006 by Bull SAS
    All Rights Reserved
