ASSEMBLY LISTING OF SEGMENT >spec>online>fort_recompile>display_entries.alm
ASSEMBLED ON:	12/27/84  0756.6 mst Thu
OPTIONS USED:	list
ASSEMBLED BY:	ALM Version  6.6  November 1982
ASSEMBLER CREATED:	09/21/83  1227.3 mst Wed

                                     1  " ******************************************************
                                     2  " *                                                    *
                                     3  " * Copyright, (C) Honeywell Limited, 1983             *
                                     4  " *                                                    *
                                     5  " * Copyright (c) 1972 by Massachusetts Institute of   *
                                     6  " * Technology and Honeywell Information Systems, Inc. *
                                     7  " *                                                    *
                                     8  " ******************************************************
                                     9
                        000010      10  	segdef	fdisplay
                                    11
                                    12  	use	linkc
                                    13
    000010                          14  fdisplay:
    000010  aa   077777 000043      15  	its	-1,1,n
    000011  aa   000001 000000
    000012  aa   077777 000043      16  	its	-1,1,n
    000013  aa   000001 000000
                                    17  	join	/link/linkc
                                    18  	end

NO LITERALS

NAME DEFINITIONS FOR ENTRY POINTS AND SEGDEFS

    000000  5a   000003 000000
    000001  5a   000027 600000
    000002  aa   000000 000000
    000003  55   000012 000002
    000004  5a   000002 400003
    000005  55   000006 000012
    000006  aa  017 144 151 163
    000007  aa  160 154 141 171
    000010  aa  137 145 156 164
    000011  aa  162 151 145 163
    000012  55   000020 000003
    000013  2a   000010 400001
    000014  55   000015 000003
    000015  aa  010 146 144 151         fdisplay
    000016  aa  163 160 154 141
    000017  aa  171 000 000 000
    000020  55   000002 000012
    000021  6a   000000 400002
    000022  55   000023 000003
    000023  aa  014 163 171 155         symbol_table
    000024  aa  142 157 154 137
    000025  aa  164 141 142 154
    000026  aa  145 000 000 000

DEFINITIONS HASH TABLE

    000027  aa   000000 000015
    000030  aa   000000 000000
    000031  aa   000000 000000
    000032  aa   000000 000000
    000033  aa   000000 000000
    000034  aa   000000 000000
    000035  aa   000000 000000
    000036  5a   000020 000000
    000037  aa   000000 000000
    000040  5a   000012 000000
    000041  aa   000000 000000
    000042  aa   000000 000000
    000043  aa   000000 000000
    000044  aa   000000 000000

NO EXTERNAL NAMES

NO TRAP POINTER WORDS

TYPE PAIR BLOCKS

    000045  aa   000001 000000
    000046  aa   000000 000000

INTERNAL EXPRESSION WORDS

    000047  aa   000000 000000
LINKAGE INFORMATION

    000000  aa   000000 000000
    000001  0a   000000 000000
    000002  aa   000000 000000
    000003  aa   000000 000000
    000004  aa   000000 000000
    000005  aa   000000 000000
    000006  22   000014 000014
    000007  a2   000000 000004
SYMBOL INFORMATION

SYMBOL TABLE HEADER

    000000  aa   000000 000001
    000001  aa   163171 155142
    000002  aa   164162 145145
    000003  aa   000000 000004
    000004  aa   000000 112143
    000005  aa   305203 523135
    000006  aa   000000 113251
    000007  aa   213254 270310
    000010  aa   141154 155040
    000011  aa   040040 040040
    000012  aa   000024 000040
    000013  aa   000034 000040
    000014  aa   000044 000100
    000015  aa   000002 000002
    000016  aa   000064 000000
    000017  aa   000000 000122
    000020  aa   000000 000106
    000021  aa   000000 000110
    000022  aa   000114 000106
    000023  aa   000064 000000
    000024  aa   101114 115040
    000025  aa   126145 162163
    000026  aa   151157 156040
    000027  aa   040066 056066
    000030  aa   040040 116157
    000031  aa   166145 155142
    000032  aa   145162 040061
    000033  aa   071070 062040
    000034  aa   107112 157150
    000035  aa   156163 157156
    000036  aa   056123 171163
    000037  aa   115141 151156
    000040  aa   164056 155040
    000041  aa   040040 040040
    000042  aa   040040 040040
    000043  aa   040040 040040
    000044  aa   154151 163164
    000045  aa   040040 040040
    000046  aa   040040 040040
    000047  aa   040040 040040
    000050  aa   040040 040040
    000051  aa   040040 040040
    000052  aa   040040 040040
    000053  aa   040040 040040
    000054  aa   040040 040040
    000055  aa   040040 040040
    000056  aa   040040 040040
    000057  aa   040040 040040
    000060  aa   040040 040040
    000061  aa   040040 040040
    000062  aa   040040 040040
    000063  aa   040040 040040
    000064  aa   000000 000001
    000065  aa   000000 000001
    000066  aa   000072 000057
    000067  aa   132414 136701
    000070  aa   000000 113251
    000071  aa   210705 000000
    000072  aa   076163 160145          >spec>online>fort_recompile>display_entries.alm
    000073  aa   143076 157156
    000074  aa   154151 156145
    000075  aa   076146 157162
    000076  aa   164137 162145
    000077  aa   143157 155160
    000100  aa   151154 145076
    000101  aa   144151 163160
    000102  aa   154141 171137
    000103  aa   145156 164162
    000104  aa   151145 163056
    000105  aa   141154 155040
               MULTICS ASSEMBLY CROSS REFERENCE LISTING

   Value        Symbol                   Source file   Line number

          10    fdisplay                 display_entries:     10,   14.
          10    linkc                    display_entries:     12,   17.


NO FATAL ERRORS


                                          -----------------------------------------------------------


Historical Background

This edition of the Multics software materials and documentation is provided and donated
to Massachusetts Institute of Technology by Group BULL including BULL HN Information Systems Inc.
as a contribution to computer science knowledge.
This donation is made also to give evidence of the common contributions of Massachusetts Institute of Technology,
Bell Laboratories, General Electric, Honeywell Information Systems Inc., Honeywell BULL Inc., Groupe BULL
and BULL HN Information Systems Inc. to the development of this operating system.
Multics development was initiated by Massachusetts Institute of Technology Project MAC (1963-1970),
renamed the MIT Laboratory for Computer Science and Artificial Intelligence in the mid 1970s, under the leadership
of Professor Fernando Jose Corbato. Users consider that Multics provided the best software architecture
for managing computer hardware properly and for executing programs. Many subsequent operating systems
incorporated Multics principles.
Multics was distributed in 1975 to 2000 by Group Bull in Europe , and in the U.S. by Bull HN Information Systems Inc.,
as successor in interest by change in name only to Honeywell Bull Inc. and Honeywell Information Systems Inc. .

                                          -----------------------------------------------------------

Permission to use, copy, modify, and distribute these programs and their documentation for any purpose and without
fee is hereby granted,provided that the below copyright notice and historical background appear in all copies
and that both the copyright notice and historical background and this permission notice appear in supporting
documentation, and that the names of MIT, HIS, BULL or BULL HN not be used in advertising or publicity pertaining
to distribution of the programs without specific prior written permission.
    Copyright 1972 by Massachusetts Institute of Technology and Honeywell Information Systems Inc.
    Copyright 2006 by BULL HN Information Systems Inc.
    Copyright 2006 by Bull SAS
    All Rights Reserved
