	COMPILATION LISTING OF SEGMENT flat
	Compiled by: Multics PL/I Compiler, Release 23b, of September 28, 1977
	Compiled at: Honeywell LISD Phoenix, System M
	Compiled on: 10/21/77  1617.8 mst Fri
	    Options: optimize map

        1 flat:    proc(seed) returns (float bin);
        2     dcl  random_$uniform   entry (fixed bin (35), float bin (27));
        3     dcl  s                 fixed bin(35),
        4          seed              fixed bin (35),
        5          xret              float bin (27);
        6
        7     call random_$uniform(seed,xret);
        8     return(xret);
        9     end flat;
	SOURCE FILES USED IN THIS COMPILATION.

LINE      NUMBER  DATE MODIFIED     NAME			PATHNAME
             0    10/21/77  1534.7  flat.pl1                          >spec>online>spec1021>flat.pl1
	NAMES DECLARED IN THIS COMPILATION.

IDENTIFIER	    OFFSET     LOC STORAGE CLASS   DATA TYPE		ATTRIBUTES AND REFERENCES

NAMES DECLARED BY DECLARE STATEMENT.
random_$uniform                 000010 constant        entry                    external dcl 2 ref 7
seed                                   parameter       fixed bin(35,0)          dcl 3 set ref 1 7
xret                            000100 automatic       float bin(27)            dcl 3 set ref 7 8

NAME DECLARED BY DECLARE STATEMENT AND NEVER REFERENCED.
s                                      automatic       fixed bin(35,0)          dcl 3

NAME DECLARED BY EXPLICIT CONTEXT.
flat                            000006 constant        entry                    external dcl 1 ref 1

THERE WERE NO NAMES DECLARED BY CONTEXT OR IMPLICATION.

STORAGE REQUIREMENTS FOR THIS PROGRAM.

	Object	Text	Link	Symbol	Defs	Static
Start          0       0        62          74      30          72
Length       234      30        12         123      32           0

BLOCK NAME	         STACK SIZE     TYPE		WHY NONQUICK/WHO SHARES STACK FRAME
flat                                 72 external procedure  is an external procedure.

THE FOLLOWING EXTERNAL OPERATORS ARE USED BY THIS PROGRAM.
call_ext_out        return              ext_entry

THE FOLLOWING EXTERNAL ENTRIES ARE CALLED BY THIS PROGRAM.
random_$uniform

NO EXTERNAL VARIABLES ARE USED BY THIS PROGRAM.


   LINE    LOC      LINE    LOC      LINE    LOC      LINE    LOC      LINE    LOC      LINE    LOC      LINE    LOC
      1 000002         7 000013         8 000024


                                          -----------------------------------------------------------


Historical Background

This edition of the Multics software materials and documentation is provided and donated
to Massachusetts Institute of Technology by Group BULL including BULL HN Information Systems Inc.
as a contribution to computer science knowledge.
This donation is made also to give evidence of the common contributions of Massachusetts Institute of Technology,
Bell Laboratories, General Electric, Honeywell Information Systems Inc., Honeywell BULL Inc., Groupe BULL
and BULL HN Information Systems Inc. to the development of this operating system.
Multics development was initiated by Massachusetts Institute of Technology Project MAC (1963-1970),
renamed the MIT Laboratory for Computer Science and Artificial Intelligence in the mid 1970s, under the leadership
of Professor Fernando Jose Corbato. Users consider that Multics provided the best software architecture
for managing computer hardware properly and for executing programs. Many subsequent operating systems
incorporated Multics principles.
Multics was distributed in 1975 to 2000 by Group Bull in Europe , and in the U.S. by Bull HN Information Systems Inc.,
as successor in interest by change in name only to Honeywell Bull Inc. and Honeywell Information Systems Inc. .

                                          -----------------------------------------------------------

Permission to use, copy, modify, and distribute these programs and their documentation for any purpose and without
fee is hereby granted,provided that the below copyright notice and historical background appear in all copies
and that both the copyright notice and historical background and this permission notice appear in supporting
documentation, and that the names of MIT, HIS, BULL or BULL HN not be used in advertising or publicity pertaining
to distribution of the programs without specific prior written permission.
    Copyright 1972 by Massachusetts Institute of Technology and Honeywell Information Systems Inc.
    Copyright 2006 by BULL HN Information Systems Inc.
    Copyright 2006 by Bull SAS
    All Rights Reserved
