ASSEMBLY LISTING OF SEGMENT >spec>install>1004>fort_version_info.alm
ASSEMBLED ON:	12/11/91  2227.1 mst Wed
OPTIONS USED:	-target l68                              list symbols
ASSEMBLED BY:	ALM Version 8.14 March 1989
ASSEMBLER CREATED:	06/09/89  1002.3 mst Fri

                                     1  " *********************************************************
                                     2  " *                                                       *
                                     3  " * Copyright, (C) BULL HN Information Systems Inc., 1989 *
                                     4  " *                                                       *
                                     5  " * Copyright, (C) Honeywell Limited, 1983                *
                                     6  " *                                                       *
                                     7  " *********************************************************
                                     8
                                     9  " HISTORY COMMENTS:
                                    10  "  1) change(86-07-14,BWong), approve(86-07-14,MCR7286),
                                    11  "     audit(86-07-17,Ginter), install(86-07-28,MR12.0-1105):
                                    12  "     Fix fortran bugs 427, 430, 433, 449, 451, 452, 453, 454, 455, 456, 457,
                                    13  "     458, 460, 461, 462, 463, 464, 467, 468, and 492.
                                    14  "  2) change(86-07-14,BWong), approve(86-07-14,MCR7382),
                                    15  "     audit(86-07-17,Ginter), install(86-07-28,MR12.0-1105):
                                    16  "     Fix fortran bugs 122, 355, 389, 396, 411, 425, 428, 470, 471, 472, 473,
                                    17  "     476, 477, 478, 480, 481, 482, 490 (SCP6284), and 494.
                                    18  "  3) change(86-07-14,BWong), approve(86-07-14,MCR7442),
                                    19  "     audit(86-07-17,Ginter), install(86-07-28,MR12.0-1105):
                                    20  "     Fix fortran bugs 410, 488, 493, 497, and 498.
                                    21  "  4) change(86-10-17,Ginter), approve(86-10-17,MCR7556),
                                    22  "     audit(86-10-22,Huen), install(86-11-13,MR12.0-1216):
                                    23  "     Fixed fortran bugs 496 and 502.
                                    24  "  5) change(88-07-19,RWaters), approve(88-07-19,MCR7875),
                                    25  "     audit(88-07-19,Huen), install(88-11-10,MR12.2-1209):
                                    26  "     New version number for scp 6339.
                                    27  "  6) change(89-06-14,RWaters), approve(89-06-14,MCR8115),
                                    28  "     audit(89-07-21,Blackmore), install(89-07-31,MR12.3-1065):
                                    29  "     Updated version number for MR12.3
                                    30  "  7) change(90-04-27,Huen), approve(90-04-27,MCR8155), audit(90-05-16,Gray),
                                    31  "     install(90-05-30,MR12.4-1011):
                                    32  "     Update version number from MR12.3a MR12.4a - including fix for ft_508.
                                    33  "  8) change(90-05-02,Huen), approve(90-05-02,MCR8159), audit(90-05-16,Gray),
                                    34  "     install(90-05-30,MR12.4-1011):
                                    35  "     Version MR12.4a include fix for ft_512.
                                    36  "  9) change(91-06-27,Huen), approve(91-06-27,MCR8245), audit(91-11-25,Vu),
                                    37  "     install(91-12-11,MR12.5-1004):
                                    38  "     Version MR12.5a include fix for ft_513.
                                    39  " 10) change(91-11-06,Huen), approve(91-11-06,MCR8246), audit(91-11-25,Vu),
                                    40  "     install(91-12-11,MR12.5-1004):
                                    41  "     Version MR12.5b include fix for ft_514.
                                    42  "                                                      END HISTORY COMMENTS
                                    43
                                    44
                                    45  "  ***************************************
                                    46  "  *                                     *
                                    47  "  *  COPYRIGHT (C) HONEYWELL LTD. 1983  *
                                    48  "  *                                     *
                                    49  "  ***************************************
                                    50
    000000                          51  	name	fort_version_info
                        000010      52  	segdef	version_name
                        000004      53  	segdef	version_number
                        000000      54  	segdef	greeting
                                    55  "
                                    56  "
                                    57  "		dcl	fort_version_info$greeting char(16) aligned ext static
                                    58  "
    000000                          59  greeting:			" must be char(16)
    000000  aa  116 145 167 040     60  	aci	"New Fortran     "
    000001  aa  106 157 162 164
    000002  aa  162 141 156 040
    000003  aa  040 040 040 040
                                    61  "		012345678901234567 This is here for those who cannot count
                                    62  "
                                    63  "
                                    64  "		dcl	fort_version_info$version_number char(16) aligned ext static
                                    65  "
    000004                          66  version_number:		" must be char(16)
    000004  aa  054 040 122 145     67  	aci	", Release 12.5b "
    000005  aa  154 145 141 163
    000006  aa  145 040 061 062
    000007  aa  056 065 142 040
                                    68  "		012345678901234567 This is here for those who cannot count
                                    69  "		This field must have numbers in it somewhere
                                    70  "
                                    71  "
                                    72  "		dcl	fort_version_info$version_name char(132) varying ext static
                                    73  "
    000010                          74  version_name:
    000010  aa   000000 000034      75  	dec	28
    000011  aa  115 165 154 164     76  	aci	"Multics New Fortran Compiler"
    000012  aa  151 143 163 040
    000013  aa  116 145 167 040
    000014  aa  106 157 162 164
    000015  aa  162 141 156 040
    000016  aa  103 157 155 160
    000017  aa  151 154 145 162
                                    77  	end

NO LITERALS

NAME DEFINITIONS FOR ENTRY POINTS AND SEGDEFS

    000020  5a   000003 000000
    000021  5a   000046 600000
    000022  aa   000000 000000
    000023  55   000013 000002
    000024  5a   000002 400003
    000025  55   000006 000013
    000026  aa  021 146 157 162
    000027  aa  164 137 166 145
    000030  aa  162 163 151 157
    000031  aa  156 137 151 156
    000032  aa  146 157 000 000
    000033  55   000021 000003
    000034  0a   000000 400000
    000035  55   000016 000003
    000036  aa  010 147 162 145         greeting
    000037  aa  145 164 151 156
    000040  aa  147 000 000 000
    000041  55   000030 000013
    000042  0a   000004 400000
    000043  55   000024 000003
    000044  aa  016 166 145 162         version_number
    000045  aa  163 151 157 156
    000046  aa  137 156 165 155
    000047  aa  142 145 162 000
    000050  55   000037 000021
    000051  0a   000010 400000
    000052  55   000033 000003
    000053  aa  014 166 145 162         version_name
    000054  aa  163 151 157 156
    000055  aa  137 156 141 155
    000056  aa  145 000 000 000
    000057  55   000002 000030
    000060  6a   000000 400002
    000061  55   000042 000003
    000062  aa  014 163 171 155         symbol_table
    000063  aa  142 157 154 137
    000064  aa  164 141 142 154
    000065  aa  145 000 000 000

DEFINITIONS HASH TABLE

    000066  aa   000000 000015
    000067  aa   000000 000000
    000070  aa   000000 000000
    000071  5a   000021 000000
    000072  aa   000000 000000
    000073  aa   000000 000000
    000074  aa   000000 000000
    000075  5a   000037 000000
    000076  aa   000000 000000
    000077  5a   000013 000000
    000100  aa   000000 000000
    000101  aa   000000 000000
    000102  aa   000000 000000
    000103  5a   000030 000000

NO EXTERNAL NAMES

NO TRAP POINTER WORDS

TYPE PAIR BLOCKS

    000104  aa   000001 000000
    000105  aa   000000 000000

INTERNAL EXPRESSION WORDS

LINKAGE INFORMATION

    000000  aa   000000 000000
    000001  0a   000020 000000
    000002  aa   000000 000000
    000003  aa   000000 000000
    000004  aa   000000 000000
    000005  aa   000000 000000
    000006  22   000010 000010
    000007  a2   000000 000000
SYMBOL INFORMATION

SYMBOL TABLE HEADER

    000000  aa   000000 000001
    000001  aa   163171 155142
    000002  aa   164162 145145
    000003  aa   000000 000010
    000004  aa   000000 117244
    000005  aa   361023 525721
    000006  aa   000000 121443
    000007  aa   423052 655101
    000010  aa   141154 155040
    000011  aa   040040 040040
    000012  aa   000024 000040
    000013  aa   000034 000040
    000014  aa   000044 000100
    000015  aa   000002 000002
    000016  aa   000064 000000
    000017  aa   000000 000131
    000020  aa   000000 000104
    000021  aa   000112 000107
    000022  aa   000123 000104
    000023  aa   000064 000000
    000024  aa   101114 115040
    000025  aa   126145 162163
    000026  aa   151157 156040
    000027  aa   070056 061064
    000030  aa   040115 141162
    000031  aa   143150 040061
    000032  aa   071070 071040
    000033  aa   040040 040040
    000034  aa   123143 150162
    000035  aa   157164 150056
    000036  aa   123171 163115
    000037  aa   141151 156164
    000040  aa   056141 040040
    000041  aa   040040 040040
    000042  aa   040040 040040
    000043  aa   040040 040040
    000044  aa   055164 141162
    000045  aa   147145 164040
    000046  aa   154066 070040
    000047  aa   040040 040040
    000050  aa   040040 040040
    000051  aa   040040 040040
    000052  aa   040040 040040
    000053  aa   040040 040040
    000054  aa   040040 040040
    000055  aa   040040 040040
    000056  aa   040154 151163
    000057  aa   164040 163171
    000060  aa   155142 157154
    000061  aa   163040 040040
    000062  aa   040040 040040
    000063  aa   040040 040040
    000064  aa   000000 000001
    000065  aa   000000 000001
    000066  aa   000072 000050
    000067  aa   214422 355664
    000070  aa   000000 121443
    000071  aa   423053 200000
    000072  aa   076163 160145          >spec>install>1004>fort_version_info.alm
    000073  aa   143076 151156
    000074  aa   163164 141154
    000075  aa   154076 061060
    000076  aa   060064 076146
    000077  aa   157162 164137
    000100  aa   166145 162163
    000101  aa   151157 156137
    000102  aa   151156 146157
    000103  aa   056141 154155
               MULTICS ASSEMBLY CROSS REFERENCE LISTING

   Value        Symbol                   Source file   Line number

           0    greeting                 fort_version_info:   54,   59.
          10    version_name             fort_version_info:   52,   74.
           4    version_number           fort_version_info:   53,   66.


NO FATAL ERRORS


                                          -----------------------------------------------------------


Historical Background

This edition of the Multics software materials and documentation is provided and donated
to Massachusetts Institute of Technology by Group BULL including BULL HN Information Systems Inc.
as a contribution to computer science knowledge.
This donation is made also to give evidence of the common contributions of Massachusetts Institute of Technology,
Bell Laboratories, General Electric, Honeywell Information Systems Inc., Honeywell BULL Inc., Groupe BULL
and BULL HN Information Systems Inc. to the development of this operating system.
Multics development was initiated by Massachusetts Institute of Technology Project MAC (1963-1970),
renamed the MIT Laboratory for Computer Science and Artificial Intelligence in the mid 1970s, under the leadership
of Professor Fernando Jose Corbato. Users consider that Multics provided the best software architecture
for managing computer hardware properly and for executing programs. Many subsequent operating systems
incorporated Multics principles.
Multics was distributed in 1975 to 2000 by Group Bull in Europe , and in the U.S. by Bull HN Information Systems Inc.,
as successor in interest by change in name only to Honeywell Bull Inc. and Honeywell Information Systems Inc. .

                                          -----------------------------------------------------------

Permission to use, copy, modify, and distribute these programs and their documentation for any purpose and without
fee is hereby granted,provided that the below copyright notice and historical background appear in all copies
and that both the copyright notice and historical background and this permission notice appear in supporting
documentation, and that the names of MIT, HIS, BULL or BULL HN not be used in advertising or publicity pertaining
to distribution of the programs without specific prior written permission.
    Copyright 1972 by Massachusetts Institute of Technology and Honeywell Information Systems Inc.
    Copyright 2006 by BULL HN Information Systems Inc.
    Copyright 2006 by Bull SAS
    All Rights Reserved
