ASSEMBLY LISTING OF SEGMENT >udd>sm>ds>w>ml>fort_message_table.alm
ASSEMBLED ON:	04/18/00  1109.0 mdt Tue
OPTIONS USED:	list symbols
ASSEMBLED BY:	ALM Version 8.14 March 1989
ASSEMBLER CREATED:	06/09/89  1102.3 mdt Fri

                                     1  " ******************************************************
                                     2  " *                                                    *
                                     3  " * Copyright, (C) Honeywell Limited, 1983             *
                                     4  " *                                                    *
                                     5  " * Copyright (c) 1972 by Massachusetts Institute of   *
                                     6  " * Technology and Honeywell Information Systems, Inc. *
                                     7  " *                                                    *
                                     8  " ******************************************************
                                     9
                                    10  " HISTORY COMMENTS:
                                    11  "  1) change(86-07-14,BWong), approve(86-07-14,MCR7286),
                                    12  "     audit(86-07-17,Ginter), install(86-07-28,MR12.0-1105):
                                    13  "     Fix fortran bug 452.
                                    14  "  2) change(86-07-14,BWong), approve(86-07-14,MCR7382),
                                    15  "     audit(86-07-17,Ginter), install(86-07-28,MR12.0-1105):
                                    16  "     Fix fortran bugs 389, 411, 470, 476, and 481.
                                    17  "  3) change(86-07-14,BWong), approve(86-07-14,MCR7442),
                                    18  "     audit(86-07-17,Ginter), install(86-07-28,MR12.0-1105):
                                    19  "     Fix fortran bug 498.
                                    20  "  4) change(87-04-15,Huen), approve(87-04-15,MCR7651),
                                    21  "     audit(87-04-15,RWaters), install(87-05-08,MR12.1-1031):
                                    22  "     Fix fortran bug 479.
                                    23  "                                                      END HISTORY COMMENTS
                                    24
                                    25
                                    26  " Written:
                                    27  "
                                    28  " Modified:
                                    29  "	13 Mar 86, NS - 498: Add message 194 for invalid unit numbers.
                                    30  "	12 Dec 85, NS, MM, & BW - 389/481/482: Add message 366 for real
                                    31  "		and double precision declarations that are not supported.
                                    32  "		Add message 365 for complex declarations that are not
                                    33  "		supported.
                                    34  "	07 Nov 85, SH & MM - 476: Change message 422 from severity 3 to
                                    35  "		a warning.
                                    36  "	29 Oct 85, BW - 411: Reword message 426 to specify word or character
                                    37  "		units.
                                    38  "	26 Sep 85, BW - 470: Reword messages 36 and 120.  Only significant
                                    39  "		digits count in real and double precision constants.
                                    40  "	13 May 85, BW - 452: Change messages 329 and 358 to severity 3.
                                    41  "	05 Oct 84, MM - hfp_acs: Add message 522.
                                    42  "	22 Jun 84, MM - Install typeless functions support.  Added messages
                                    43  "		359, 360, 361, 362, 363, and 364.
                                    44  "	13 Apr 84, MM - 419 Remove obsolete messages 2 and 7.
                                    45  "	19 Sep 83, RG & MM - 242/370: Update messages 400 & 401.
                                    46  "	24 Aug 83, TO - 401: Update message 136 for VLA mods.
                                    47  "	14 Aug 83, HH - 387: Change message 155.
                                    48  "	12 Jul 83, MM - Add 193 for illegal %globals
                                    49  "	12 Jul 83, MM - Add 191, 192 for compilation option conflicts.
                                    50  "	19 Jun 83, HH - 145: Add message 190.
                                    51  "	17 Jun 83, HH - 383: Change messages 019 and 169.
                                    52  "	31 Jan 83, TO & HH - Install LA/VLA support.
                                    53  "	19 May 82, TO  - Make 468 a level 2 warning.
                                    54  "	13 Apr 82, TO  - Modify message 384 to list line range.
                                    55  "	 5 Apr 82, TO  - Add 189 for parameter list limit warning.
                                    56  "	16 Nov 81, MEP - Add 188 for no s permission on directory containing include file
                                    57  "	27 October 1981, CRD - Add 356, 357 for inquire statement.
                                    58  "	20 October 1981, CRD - Add message 303 for internal files.
                                    59  "	8 September 1981, CRD - Improve message 338.
                                    60  "	23 June 1981, MEP - Added message 187, for invalid specification(s) in new I/O statements.
                                    61  "	12 June 1981, MEP - Added message 40, for a missing, but indeterminate, keyword.  Made message 31 more general,
                                    62  "		with caller supplying the refinement.
                                    63  "	11 June 1981, MEP - Changed the severity of error 48 to 3, as it is a bone fide error.
                                    64  "	2 June 1981, MEP - Removed message 40, as fortran no longer requires at least one parameter for a function.
                                    65  "	14 May 1981, MEP - Added message 186 for SAVE /foo/ for foo not a common-block name
                                    66  "	11 May 1981, MEP - Revised wording of 93 for once per statement.
                                    67  "	30 April 1981, MEP - Revised wording of message 15 for named block data subprogramsss.
                                    68  "	16 April 1981, MEP - Revised wording of message 19 to include common blocks.
                                    69  "	21 March 1981, MEP - Revised messages 78 and 136, added messages 166 - 168,
                                    70  "	          and 198 -199, all for new array bounds.
                                    71  "	13 March 1981, CRD - Added message 468.
                                    72  "	21 January 1981, CRD - Removed message 392.
                                    73  "	29 December 1980, MEP - Reworded messages 178 -181 for block if.
                                    74  "	18 December 1980, CRD - Reworded message 324 for block IF.
                                    75  "	16 December 1980, MEP - Added messages 178 thru 181 for block if.
                                    76  "	23 October 1980, CRD - Added message 314.
                                    77  "	1 October 1980, CRD - Added message 392.
                                    78  "	16 September 1980, CRD - Added message 391.
                                    79  "	27 June 1980, CRD - Added message 355, for *-length parameter functions.
                                    80  "	26 June 1980, CRD - Added message 159, for invalid substring dt.
                                    81  "		Many changes and additions by PES and CRD went unrecorded.
                                    82  "	03 Dec 1979, PES - Change msg 96 to be more precise.  Add msgs 153
                                    83  "		thru 155 for ANSI77 character mode.
                                    84  "	01 Oct 1979, PES - Added msg 147 for *-length misuse.
                                    85  "	12 Sep 1979, CRD - Added msg 503 in fixing bug 241 (symbol nodes
                                    86  "		too far apart to chain runtime_symbol.next).
                                    87  "	18 Jul 1979, PES - Added msg 144 for change to exponentiation precedence.
                                    88  "	12 Jul 1979, PES - Changed msgs 29 and 305 to reflect relaxed restriction on encode/decode
                                    89  "		string--change phrase end line to end statement in recognition of ANSI 77.
                                    90  "	02 Jun 1979, RAB - New messages for optimizer
                                    91  "	21 Mar 1979, PES - New messages for %include and %(global options).
                                    92  "	05 Dec 1978, PES - New messages for %global and %options.
                                    93  "	26 Sep 1978, RAB - fixes 187 (add a new error message)
                                    94  "	28 Jul 1978, PES - bug in entry for error 443 fixed.
                                    95  "	30 May 1978, PES - converter error messages
                                    96  "	18 Jan 1978, RAB - loop optimizer error messages
                                    97  "	04 Jan 1978, DSL - implement print_once_per_(stmnt subpgm).
                                    98  "	27 Dec 1977, DSL - change format of table to allow bit values to be associated with
                                    99  "		each error message.
                                   100  "	Previous changes went unrecorded.
    000000                         101  	maclist	off
                                   102  	macro	message
                              1    103  	vfd	9/&2,9/&l3,18/&n
                              2    104  	use	.message_area.
                              3    105  &u:	aci	"&3"
                              4    106  	use	.text.
                              5    107  	&end
                                   108
                        000400     109  	bool	print_once,400	" print only once per compilation
                        000600     110  	bool	print_once_per_stmnt,200+print_once
                        000500     111  	bool	print_once_per_subpgm,100+print_once
                        000060     112  	bool	save_opnd3,060
                        000040     113  	bool	save_opnd2,040
                        000020     114  	bool	save_opnd1,020
                                   115
    000000                         116  	name	fort_message_table
                                   117
                        000000     118  	segdef	fort_message_table
                                   119
    000000                         120  fort_message_table:
    000000  a0   000000 001015     121  	zero	0,message_text-1
                                   122
                                   123  	message	001,3,(This segment contains no FORTRAN statements, just comment lines.)
                                   124  	message	002,0,()
                                   125  	message	003,3,(Main program must be the first program unit in the segment.)
                                   126  	message	004,2+print_once_per_subpgm,
                                   127  		     (Executable statements cannot appear in a block data subprogram.)
                                   128  	message	005,1,(This statement is preceded by an unconditional transfer of control and cannot be referenced.)
                                   129  	message	006,3,(Syntax error in ^a statement. Text follows logical end of statement.)
                                   130  	message	007,0,()
                                   131  	message	008,3,(The do loop ending with ^a has not been terminated.)
                                   132  	message	009,2,(Return value of function ^a has not been set.)
                                   133  	message	010,3,(Syntax error. A variable name is required in place of ^a.)
                                   134  	message	011,3,(Syntax error. A right parenthesis is required in place of ^a.)
                                   135  	message	012,3,(The label ^a has been referenced but not declared.)
                                   136  	message	013,3,(Syntax error. A slash is required in place of ^a.)
                                   137  	message	014,3,(^a is declared with variable bounds but is not a parameter.)
                                   138  	message	015,1+print_once,
                                   139  		     (More than one unnamed block data subprogram.)
                                   140  	message	016,3,(A ^a statement cannot terminate a do loop.)
                                   141  	message	017,2,(A ^a statement cannot appear in a main program.)
                                   142  	message	018,3,(^a is the index of two or more nested implied do loops.)
                                   143  	message	019,3,(^a appears in a bound of ^a, but is not a common or parameter, scalar, integer variable.)
                                   144  	message	020,3,(^a cannot be declared as a member of the common block ^a.)
                                   145  	message	021,3,(^a cannot be referenced as a subroutine.)
                                   146  	message	022,3,(Syntax error. A left parenthesis is required in place of ^a.)
                                   147  	message	023,3,(Syntax error. A statement label is required in place of ^a.)
                                   148  	message	024,3,(Syntax error. An unsigned integer constant is required in place of ^a.)
                                   149  	message	025,3,(Syntax error. A reference to a scalar variable is required in place of ^a.)
                                   150  	message	026,3,(Syntax error. A comma is required in place of ^a.)
                                   151  	message	027,3,(Implementation restriction: Do loop and block if nesting has exceeded ^a.)
                                   152  	message	028,3,(Syntax error. An equivalence group must contain at least two members.)
                                   153  	message	029,2,(An ^a statement file must be a variable, array, or array element of arithmetic or character type.)
                                   154  	message	030,3,(The ^a attribute is redundant or conflicting for ^a and is ignored.)
                                   155  	message	031,3,(A ^a statement must have a ^a specification.)
                                   156  	message	032,3,(This is not an assignment statement and ^a is not a known keyword.)
                                   157  	message	033,3,(A global save statement must be the only save statement in a program unit.)
                                   158  	message	034,3,(Syntax error. A left parenthesis encountered that does not delimit an implied do loop.)
                                   159  	message	035,3,(A ^a statement cannot appear in a main program.)
                                   160  	message	036,1+print_once_per_stmnt+save_opnd1,
                                   161  		     (The real constant ^a has more than ^a significant digits and has been converted to double precision.)
                                   162  	message	037,3,(Syntax error. A format statement must have a statement label.)
                                   163  	message	038,3,(A program unit cannot contain both automatic statements and save statements.)
                                   164  	message	039,3,(^a can only appear in this parameter list once.)
                                   165  	message	040,3,(Syntax error. A keyword is required in place of ^a.)
                                   166  	message	041,3,(Syntax error. A label, variable name, or list of labels is required in place of ^a.)
                                   167  	message	042,3,(A ^a statement cannot be the second part of a logical if statement.)
                                   168  	message	043,1,(^a has been referenced but not set.)
                                   169  	message	044,3,(Syntax error. The keyword ^a is required in place of ^a.)
                                   170  	message	045,3,(Syntax error. A single letter is required in place of ^a.)
                                   171  	message	046,3,(Syntax error. The letter range specified must be in ascending alphabetical order.)
                                   172  	message	047,3,(Syntax error. The letters in the letter range must be in the same case.)
                                   173  	message	048,3,(The ^a keyword has been specified more than once in this statement.)
                                   174  	message	049,3,(Syntax error. An equals sign is required in place of ^a.)
                                   175  	message	050,3,(Syntax error. A constant is required in place of ^a.)
                                   176  	message	051,3,(Syntax error. Only arithmetic constants can be signed.)
                                   177  	message	052,3,(Syntax error. The characters ^a are out of place.)
                                   178  	message	053,3,(Syntax error. A character string constant is required in place of ^a.)
                                   179  	message	054,3,(Pathname in library statement is not acceptable.)
                                   180  	message	055,3,(Implementation restriction: A statement function is limited to ^a arguments.)
                                   181  	message	056,3,(This ^a statement is out of sequence and is ignored.)
                                   182  	message	057,1,(Adding a word to common block ^a in order to store ^a on a double word boundary.)
                                   183  	message	058,3,(^a is a member of common and cannot have variable bounds.)
                                   184  	message	059,3,(Storage class for ^a conflicts with storage class of the equivalence group.)
                                   185  	message	060,3,(Attempt to equivalence ^a to more than one location.)
                                   186  	message	061,3,(Attempt to change the address of common block ^a.)
                                   187  	message	062,3,(Cannot equivalence a member of a common block, ^a, to another common block, ^a.)
                                   188  	message	063,3,(Alignment requirements for equivalence group containing ^a cannot be resolved.)
                                   189  	message	064,3,(^a cannot appear in an equivalence group.)
                                   190  	message	065,3,(^a cannot appear in an equivalence group because it has variable bounds.)
                                   191  	message	066,3,(Syntax error. ^a is not a valid keyword for the ^a statement.)
                                   192  	message	067,4,(Implementation restriction: ^a has overflowed its limit of ^a words.)
                                   193  	message	068,1,(^a, which is a formal parameter of the statement function ^a, has not been referenced.)
                                   194  	message	069,2+print_once_per_stmnt+save_opnd1,
                                   195  		     (The statement label ^a is less than 1 or greater than 99999.)
                                   196  	message	070,3,(The statement label ^a has been previously defined. This definition is ignored.)
                                   197  	message	071,3,(This executable statement label is used as a format specification.)
                                   198  	message	072,3,(This format statement label is used in an executable context.)
                                   199  	message	073,3,(The statement label on this statement cannot be referenced.)
                                   200  	message	074,3,(A reference to an executable statement label is required in place of ^a.)
                                   201  	message	075,3,(A reference to a format statement label is required in place of ^a.)
                                   202  	message	076,3,(A subscripted reference to ^a is not possible.)
                                   203  	message	077,3,(This reference to ^a is not valid because it has variable bounds.)
                                   204  	message	078,3,(The subscript ^a exceeds the corresponding ^a bound for ^a.)
                                   205  	message	079,3,(A reference to ^a has ^a subscripts.)
                                   206  	message	080,3,(Initialization of common blocks can only occur in a block data subprogram. ^a not initialized.)
                                   207  	message	081,2+print_once_per_stmnt+save_opnd1,
                                   208  		     (More than one initial value assigned to an element of ^a.)
                                   209  	message	082,3,(Fewer constants than variables in a data specification.)
                                   210  	message	083,3+print_once_per_stmnt+save_opnd2,
                                   211  		     (The mode of ^a is not compatible with the mode of ^a.)
                                   212  	message	084,3,(More constants than variables in a data specification.)
                                   213  	message	085,3,(Implementation restriction: Format specification is longer than ^a characters.)
                                   214  	message	086,3,(Syntax error in a format specification. ^a)
                                   215  	message	087,3,(Implementation restriction: The character length of ^a exceeds ^a.)
                                   216  	message	088,3,(Syntax error. A format or namelist reference is required in place of ^a.)
                                   217  	message	089,3,(Implementation restriction: Implied do loop nesting exceeds ^a.)
                                   218  	message	090,3,(Syntax error. Parentheses do not balance.)
                                   219  	message	091,3,(Syntax error in an implied do loop.)
                                   220  	message	092,3,(^a is not a keyword or variable name and cannot start a FORTRAN statement.)
                                   221  	message	093,3+print_once_per_stmnt+save_opnd1,(^a cannot be declared as a builtin function.)
                                   222  	message	094,3,(Syntax error. An operand is required in place of ^a.)
                                   223  	message	095,3,(Only scalar variables and array elements may appear in a set context.)
                                   224  	message	096,3+print_once_per_stmnt+save_opnd1,
                                   225  		     (The function ^a cannot appear in a set context.)
                                   226  	message	097,3,(^a is followed by a parenthesized list but is not dimensioned and cannot be a function.)
                                   227  	message	098,3,(^a is dimensioned and must appear in this context with subscripts.)
                                   228  	message	099,3,(^a is an entry value and cannot appear in this context.)
                                   229  	message	100,3,(^a cannot appear in this context.)
                                   230  	message	101,3,(Syntax error. A binary operator is required in place of ^a.)
                                   231  	message	102,3,(Syntax error. Unexpected occurance of ^a.)
                                   232  	message	103,1,(Implementation restriction: The line number ^a must be less than 16384.)
                                   233  	message	104,2,(Missing end statement. One will be supplied by the compiler.)
                                   234  	message	105,2,(Syntax error. Statement consisting of only a statement label.)
                                   235  	message	106,3,(The character ^a is not a member of the FORTRAN character set or is out of place.)
                                   236  	message	107,3,(Invalid use of ^a.)
                                   237  	message	108,2,(Character string constant whose length is zero.)
                                   238  	message	109,2,(A character string constant has been terminated by the end of the statement.)
                                   239  	message	110,3,(Implementation restriction: More than ^a constants in this statement.)
                                   240  	message	111,3,(Text of this statement exceeds ^a characters.)
                                   241  	message	112,3,(A continuation line was encountered that was not preceded by an initial line.)
                                   242  	message	113,3,(There is no line number on this line:^5x^a)
                                   243  	message	114,3,(The rightmost six digits of ^a will be used as the line number.)
                                   244  	message	115,3,(The line number ^a is not greater than ^a.)
                                   245  	message	116,3,(Syntax error. Decimal point missing from end of an operator or logical constant.)
                                   246  	message	117,3,(.^a. is not an operator or constant known to this compiler.)
                                   247  	message	118,3,(Missing or incomplete exponent field. The value zero will be used.)
                                   248  	message	119,3+print_once_per_stmnt+save_opnd1,
                                   249  		     (Integer constant ^a cannot be represented internally.)
                                   250  	message	120,3+print_once_per_stmnt+save_opnd2,
                                   251  		     (More than ^a significant digits in the floating point constant ^a.)
                                   252  	message	121,3+print_once_per_stmnt+save_opnd1,
                                   253  		     (Exponent overflow while converting the floating point constant ^a.)
                                   254  	message	122,3+print_once_per_stmnt+save_opnd1,
                                   255  		     (Exponent underflow while converting the floating point constant ^a.)
                                   256  	message	123,3,(Implementation restriction: More than ^a tokens in this statement.)
                                   257  	message	124,3,(Implementation restriction: Tokens are limited to ^a characters.)
                                   258  	message	125,2,(The data type of ^a must be the same as that of ^a.)
                                   259  	message	126,3,(^a cannot be assigned an initial value.)
                                   260  	message	127,3,(The name ^a cannot be used as an entry point name.)
                                   261  	message	128,3,(^a is a member of blank common and cannot be assigned an initial value.)
                                   262  	message	129,2,(The letter range specified in this statement overlaps a previous range.)
                                   263  	message	130,3,(^a is contained in an octal constant but is not an octal digit.)
                                   264  	message	131,3,(A statement label appears on a line without any other text.)
                                   265  	message	132,1,(This statement contains a line with more than 80 characters.)
                                   266  	message	133,3,(A non-numeric character was encountered in a label field.)
                                   267  	message	134,2,(Text appears after the closing right parenthesis of a format specification.)
                                   268  	message	135,3,(The variable ^a must be the index variable of a containing implied do loop.)
                                   269  	message	136,3,(Implementation restriction: The ^a of ^a exceeds ^a.)
                                   270  	message	137,3+print_once_per_stmnt+save_opnd1,
                                   271  		     (A prefix minus cannot precede ^a.)
                                   272  	message	138,3,(Implementation restriction: There are more than ^a arguments in this reference to ^a.)
                                   273  	message	139,2,(A character constant used to initialize ^a is longer than ^a characters.)
                                   274  	message	140,3,(Variable ^a has already been defined, and cannot appear in a ^a statement.)
                                   275  	message	141,2,(^a must be a scalar integer reference.)
                                   276  	message	142,3,(The named constant ^a must not appear in this context.)
                                   277  	message	143,3,(The expression starting with ^a must be a scalar or subscripted variable.)
                                   278  	message	144,1+print_once_per_stmnt,
                                   279  		     (Warning: the meaning of multiple exponentiation has been changed from a previous release.)
                                   280  	message	145,3,(This ^a statement cannot have an input-output list.)
                                   281  	message	146,3,(This ^a statement must have an input-output list.)
                                   282  	message	147,2,(Variable ^a was declared with *-length, but is not a parameter or external function--length has been set to ^a.)
                                   283  	message	148,1,(Line ^a^a was interpreted as a comment, but a legal non-space character follows the initial c.)
                                   284  	message	149,3,(Asterisks designating external units are not permitted in ^a statements.)
                                   285  	message	150,1,(Unknown keyword ^a found in %global statement.)
                                   286  	message	151,1,(Unknown keyword ^a found in %options statement.)
                                   287  	message	152,3,(The terminating semicolon is missing from a %options or %global statement.)
                                   288  	message	153,3+print_once_per_subpgm,
                                   289  		     (The concatenation operator may only be used if the ansi77 control argument or option was specified.)
                                   290  	message	154,3+print_once_per_subpgm,
                                   291  		     (The substring operation may only be used if the ansi77 control argument or option was specified.)
                                   292  	message	155,3,(Invalid substring of ^a:  ^a.)
                                   293  	message	156,3+print_once_per_stmnt+save_opnd1,
                                   294  		     (^a cannot contain both ansi77 character variables and other data types.)
                                   295  	message	157,3+print_once_per_stmnt,
                                   296  		     (An equivalence group cannot contain both ansi77 character variables and other data types.)
                                   297  	message	158,3+print_once_per_stmnt,
                                   298  		     (Star-extent character strings may only be used if the ansi77 control argument or option was specified.)
                                   299  	message	159,3,(This statement contains a substring reference to ^a, which is not of the character data type.)
                                   300  	message	160,3,(The %include statement does not contain a file name.)
                                   301  	message	161,3,(The include file name ^a is longer than 19 characters.  Statement ignored.)
                                   302  	message	162,3,(Include file ^a not found.  Statement ignored.)
                                   303  	message	163,3,(Implementation restriction: only 255 include files allowed per compilation.  Include file ^a ignored.)
                                   304  	message	164,3,(Implementation restriction:  include file ^a exceeds the nesting limit of 32.  Statement ignored.)
                                   305  	message	165,3,(This reference to ^a would cause infinite recursion of include files.  Statement ignored.)
                                   306  	message	166,3,(An assumed-size array is not permitted in an ^a statement.)
                                   307  	message	167,3,(The array ^a has an assumed-size declarator in other than the upper bound of the last dimension.)
                                   308  	message	168,3,(A lower dimension bound of ^a is greater than the corresponding upper bound.)
                                   309  	message	169,3,(A dimension bound of ^a is not an arithmetic expression of integer constants and scalar variables.)
                                   310  	message	170,4,(Compiler error:  An invalid data type has been encountered during evaluation of a parameter expression.)
                                   311  	message	171,3,(A non-constant operand ^a was found while evaluating ^a.)
                                   312  	message	172,3,(An operator whose operands are of invalid type was found while evalating ^a .)
                                   313  	message	173,3,(An attempt was made to use an unimplemented operation while evaluating ^a.)
                                   314  	message	174,3,(The ^a condition was raised during evaluation of ^a.)
                                   315  	message	175,3,(An invalid operator was found during evaluation of ^a.)
                                   316  	message	176,3,(An operand of invalid data type was found during evaluation of ^a.)
                                   317  	message	177,4,(Compiler error:  the parameter statement work area has overflowed.)
                                   318  	message	178,3,(The block if beginning at line ^a has not been terminated.)
                                   319  	message	179,3,(The keyword ^a is missing in a ^a statement.)
                                   320  	message	180,3,(There is no block if statement corresponding to this ^a statement.)
                                   321  	message	181,3,(This ^a statement has followed an else statement in the same block if.)
                                   322  	message	182,3,(The do loop ending at ^a must be ended before this ^a statement.)
                                   323  	message	183,3,(This statement ends a do loop, but the do loop ending at ^a must be ended first.)
                                   324  	message	184,3,(This statement ends a do loop, but the block if at line ^a must be ended first.)
                                   325  	message	185,3,(The label ^a is on a statement that must not be referenced.)
                                   326  	message	186,2,(^a is not the name of a common block.)
                                   327  	message	187,3,(Invalid specification or combination of specifications in a ^a statement:  ^a.)
                                   328  	message	188,2,(The compiler is unable to get status information on source or include file ^a.^/The object segment will be nonstandard.)
                                   329  	message	189,2,(Implementation restriction:  There are more than ^a arguments in this parameter list.)
                                   330  	message	190,3,(The label ^a is referenced from outside the do loop ending with ^a.)
                                   331  	message	191,2,(The ^a ^a supercedes ^a.)
                                   332  	message	192,2,(The control argument ^a supercedes the %global option ^a.)
                                   333  	message	193,2,(An invalid %global has been found and will be ignored.  All %globals must be^/at the beginning of the program.)
                                   334  	message	194,3,(Invalid unit number ^a.  Unit numbers must be in the range from 0 to 99.)
                                   335  	message	195,0,()
                                   336  	message	196,0,()
                                   337  	message	197,0,()
                                   338  	message	198,0,()
                                   339  	message	199,0,()
                                   340  	message	200,4,(Compiler error: the converter has encountered an unexpected operator with the op_code ^a.)
                                   341  	message	201,4,(Compiler error: attempt to increment_polish beyond end of polish input stack.)
                                   342  	message	202,4,(Compiler error: the converter work segment has overflowed while adding an entry to the ^a list.)
                                   343  	message	203,3+print_once_per_subpgm,
                                   344  		(Compiler error: an sf dummy arg has been found which does not match a known invocation.)
                                   345  	message	204,3+print_once_per_stmnt,
                                   346  		(Implementation restriction: an operator cannot use more than ^a operands.)
                                   347  	message	205,4,(Compiler error: converter work stack pointer has become negative.)
                                   348  	message	206,4,(Compiler error: converter work stack pointer has exceeded its upper bound of ^a.)
                                   349  	message	207,0,()
                                   350  	message	208,0,()
                                   351  	message	209,0,()
                                   352  	message	210,0,()
                                   353  	message	211,0,()
                                   354  	message	212,0,()
                                   355  	message	213,0,()
                                   356  	message	214,0,()
                                   357  	message	215,0,()
                                   358  	message	216,0,()
                                   359  	message	217,0,()
                                   360  	message	218,0,()
                                   361  	message	219,0,()
                                   362  	message	220,0,()
                                   363  	message	221,0,()
                                   364  	message	222,0,()
                                   365  	message	223,0,()
                                   366  	message	224,0,()
                                   367  	message	225,0,()
                                   368  	message	226,0,()
                                   369  	message	227,0,()
                                   370  	message	228,0,()
                                   371  	message	229,3,(Constant type not implemented.)
                                   372  	message	230,0,()
                                   373  	message	231,0,()
                                   374  	message	232,0,()
                                   375  	message	233,0,()
                                   376  	message	234,0,()
                                   377  	message	235,0,()
                                   378  	message	236,0,()
                                   379  	message	237,0,()
                                   380  	message	238,0,()
                                   381  	message	239,0,()
                                   382  	message	240,0,()
                                   383  	message	241,0,()
                                   384  	message	242,0,()
                                   385  	message	243,0,()
                                   386  	message	244,0,()
                                   387  	message	245,0,()
                                   388  	message	246,0,()
                                   389  	message	247,0,()
                                   390  	message	248,0,()
                                   391  	message	249,0,()
                                   392  	message	250,0,()
                                   393  	message	251,0,()
                                   394  	message	252,0,()
                                   395  	message	253,0,()
                                   396  	message	254,0,()
                                   397  	message	255,0,()
                                   398  	message	256,0,()
                                   399  	message	257,0,()
                                   400  	message	258,0,()
                                   401  	message	259,0,()
                                   402  	message	260,0,()
                                   403  	message	261,0,()
                                   404  	message	262,0,()
                                   405  	message	263,0,()
                                   406  	message	264,0,()
                                   407  	message	265,0,()
                                   408  	message	266,0,()
                                   409  	message	267,0,()
                                   410  	message	268,0,()
                                   411  	message	269,0,()
                                   412  	message	270,0,()
                                   413  	message	271,0,()
                                   414  	message	272,0,()
                                   415  	message	273,0,()
                                   416  	message	274,0,()
                                   417  	message	275,0,()
                                   418  	message	276,0,()
                                   419  	message	277,0,()
                                   420  	message	278,0,()
                                   421  	message	279,0,()
                                   422  	message	280,0,()
                                   423  	message	281,0,()
                                   424  	message	282,0,()
                                   425  	message	283,0,()
                                   426  	message	284,0,()
                                   427  	message	285,0,()
                                   428  	message	286,0,()
                                   429  	message	287,0,()
                                   430  	message	288,0,()
                                   431  	message	289,0,()
                                   432  	message	290,0,()
                                   433  	message	291,0,()
                                   434  	message	292,0,()
                                   435  	message	293,0,()
                                   436  	message	294,0,()
                                   437  	message	295,0,()
                                   438  	message	296,0,()
                                   439  	message	297,0,()
                                   440  	message	298,0,()
                                   441  	message	299,0,()
                                   442  	message	300,1,
                                   443  		     (^a must be a scalar integer variable.)
                                   444  	message	301,3,
                                   445  		     (^a must be a scalar integer variable.)
                                   446  	message	302,3,(The data type of a file expression, ^a, must be integer.)
                                   447  	message	303,3,(An internal file must have the character data type.)
                                   448  	message	304,3,(The record number expression, ^a, must be integer.)
                                   449  	message	305,2,(The encode or decode string may not be of logical data type.)
                                   450  	message	306,3,(Error detected in the definition of the statement function ^a.)
                                   451  	message	307,3,(Insufficient number of arguments in a reference to the statement function ^a.)
                                   452  	message	308,3,(Too many arguments supplied in a reference to the statement function ^a.)
                                   453  	message	309,3,(The data type of ^a is not compatible with its use.)
                                   454  	message	310,3,(The data type of ^a is not compatible with its use.)
                                   455  	message	311,3,(^a is complex and ^a is double precision in an expression.)
                                   456  	message	312,3,(^a is double precision and ^a is complex in an expression.)
                                   457  	message	313,3,(The data type of ^a must be logical.)
                                   458  	message	314,3,(The arguments to the builtin function ^a must have the same data type.)
                                   459  	message	315,3,(^a does not have an arithmetic data type.)
                                   460  	message	316,3,(The do-loop control variable ^a cannot be complex.)
                                   461  	message	317,3,(^a in a do statement must be arithmetic.)
                                   462  	message	318,3,(The do-loop control variable ^a must be arithmetic.)
                                   463  	message	319,3,(Wrong number of arguments in a reference to the builtin function ^a.)
                                   464  	message	320,3,(The builtin function ^a has an argument, ^a, that has an invalid data type.)
                                   465  	message	321,3,(Error in the use of the builtin function ^a. ^a has an invalid data type.)
                                   466  	message	322,3,(Error in the use of the builtin function ^a. ^a and ^a are complex values.)
                                   467  	message	323,3,(The complex value ^a cannot be used in this comparison.)
                                   468  	message	324,3,(^a in a logical if, block if, or else if statement must be a logical value.)
                                   469  	message	325,3,(^a in an arithmetic if statement must be an arithmetic value.)
                                   470  	message	326,3,(^a in a computed if statement must be an arithmetic value.)
                                   471  	message	327,3,(Insufficient number of labels in a computed goto statement.)
                                   472  	message	328,3,(The complex values ^a and ^a cannot be used in this comparison.)
                                   473  	message	329,3,(The format item ^a must be an integer array or a character variable.)
                                   474  	message	330,4,
                                   475  		     (Compiler error: obsolete macro ^a occurs in the text.)
                                   476  	message	331,3,(The margin setting ^a must have the integer data type.)
                                   477  	message	332,3,(The filename ^a must be a character string.)
                                   478  	message	333,3,(The filetype ^a must be a character string.)
                                   479  	message	334,3,(In the use of the statement function ^a, ^a does not have the correct data type.)
                                   480  	message	335,3,(The file to be chained to ^a must be a character string or an integer array.)
                                   481  	message	336,3,(The system to be chained to ^a must be a character string or an integer array.)
                                   482  	message	337,3,
                                   483  		     (The character variable ^a cannot be assigned to an arithmetic variable.)
                                   484  	message	338,3,(^a cannot be assigned to ^a, because it is not a logical variable.)
                                   485  	message	339,3,
                                   486  		     (The logical value ^a cannot be an operand of a relational operator.)
                                   487  	message	340,3,
                                   488  		     (The arithmetic value ^a can only be compared to another arithmetic value or a hollerith constant.)
                                   489  	message	341,3,(^a does not have the character or integer data type and cannot be compared with ^a.)
                                   490  	message	342,3,(Error in processing the label list in a computed goto statement.)
                                   491  	message	343,3+print_once_per_subpgm+save_opnd1,
                                   492  		     (The data type of the statement function ^a must be arithmetic or logical.)
                                   493  	message	344,3,(Cannot convert a double precision expression to complex in the statement function ^a.)
                                   494  	message	345,3,(Cannot convert a complex expression to double precision in the statement function ^a.)
                                   495  	message	346,3,(Cannot convert the defining expression to the data type of the statement function ^a.)
                                   496  	message	347,3,(The statement function ^a does not have the proper data type.)
                                   497  	message	348,1+print_once_per_subpgm+save_opnd1,
                                   498  		     (This reference to ^a contains a character argument that may require descriptors.)
                                   499  	message	349,3,(An error has been detected in the processing of an open field.)
                                   500  	message	350,3,(The iostat variable ^a must have the integer data type.)
                                   501  	message	351,3,(The argument ^a used in this field must have the character data type.)
                                   502  	message	352,3,(The argument ^a used in this field must have the integer data type.)
                                   503  	message	353,3,(The argument ^a used in this field must have the logical data type.)
                                   504  	message	354,3,(^a is used in a character expression but does not have the character data type.)
                                   505  	message	355,3+print_once_per_stmnt+save_opnd1,
                                   506  		(The character valued function parameter ^a may not be declared to have *-length.)
                                   507  	message	356,3,(An error has been detected in the processing of an inquire statement field.)
                                   508  	message	357,4,(Compiler error: Invalid field number ^a encountered in inquire statement.)
                                   509  	message	358,3,(The format item ^a cannot be a Very Large Array.)
                                   510  	message	359,3,(The fld function has an argument, ^a, that must have an integer data type.)
                                   511  	message	360,3,(The fld function has an argument, ^a, that must have a one word data type.)
                                   512  	message	361,3,(The value assigned to the fld function must be a one word data type.)
                                   513  	message	362,3,(^a has an invalid data type.  Typeless expressions can only be compared with typeless or integer values.)
                                   514  	message	363,2,(The first argument to the fld function must be an integer value in the range 0 to 35.)
                                   515  	message	364,2,(The second argument to the fld function must be an integer value in the range 1 to 36.)
                                   516  	message	365,2,(Implementation restriction: only precision of *8 supported for complex types - variables will acquire single precision *8 instead of *^a.)
                                   517  	message	366,2,(Implementation restriction: only precisions of *4 and *8 are supported for real types - variables will acquire ^a precision instead of *^a.)
                                   518  	message	367,0,()
                                   519  	message	368,0,()
                                   520  	message	369,0,()
                                   521  	message	370,0,()
                                   522  	message	371,0,()
                                   523  	message	372,0,()
                                   524  	message	373,0,()
                                   525  	message	374,0,()
                                   526  	message	375,0,()
                                   527  	message	376,0,()
                                   528  	message	377,0,()
                                   529  	message	378,0,()
                                   530  	message	379,0,()
                                   531  	message	380,3,(An undefined label has been found in this program.)
                                   532  	message	381,4,(Compiler error: the output from the optimizer overwrites the next statement.)
                                   533  	message	382,4,(Compiler error: ^a does not agree with ^a.)
                                   534  	message	383,4,(Compiler error: The optimizer has encountered an unexpected operator with the op_code ^a.)
                                   535  	message	384,1,(The code from LINE ^a to LINE ^a is unreachable or unnecessary.  It will not be compiled.)
                                   536  	message	385,4,(Implementation restriction: optimization has terminated due to lack of available bits in the masks.)
                                   537  	message	386,4,(Compiler error: Inconsistency found between an operator and the inputs chain of one of its inputs.)
                                   538  	message	387,1,(This loop has been eliminated because, after optimization, it has no effect on the result of the program.)
                                   539  	message	388,4,(Implementation restriction: flow_unit table overflow.  Simplify flow of control:  use do statements for looping.)
                                   540  	message	389,1,(This loop has no exit.)
                                   541  	message	390,4,(Implementation restriction: optimizer has created too many new operators.)
                                   542  	message	391,4,(Compiler error: an expression unthreaded by strength reduction is input to other expressions.)
                                   543  	message	392,0,()
                                   544  	message	393,0,()
                                   545  	message	394,0,()
                                   546  	message	395,0,()
                                   547  	message	396,0,()
                                   548  	message	397,0,()
                                   549  	message	398,0,()
                                   550  	message	399,0,()
                                   551  	message	400,2,(^a has been called with an inconsistent number of arguments.)
                                   552  	message	401,2,(^a is inconsistent with the corresponding argument type used in ^a.)
                                   553  	message	402,4,(Compiler error: an invalid index has been used with a ^a macro.)
                                   554  	message	403,4,(Compiler error: a return macro without arguments has been used to return from a func.)
                                   555  	message	404,4,(Compiler error: a return macro with an argument has been used to return from a proc.)
                                   556  	message	405,4,(Compiler error: an exit macro has been used to return from a func.)
                                   557  	message	406,4,(Compiler error: an exit macro has been used in a proc not invoked by scan.)
                                   558  	message	407,4,(Compiler error: ^a overflows its maximum of ^a words.)
                                   559  	message	408,4,(Compiler error: an s_return has been used when no matching s_call exists.)
                                   560  	message 	409,4,(Compiler error: an ind_jump macro was used when the eaq was not in an indicator substate.)
                                   561  	message	410,4,(Compiler error: an if_ind or unless_ind macro was used when the eaq was in an invalid state.)
                                   562  	message	411,4,(Compiler error: an add_to_address macro was used with non-rel_constant ^a.)
                                   563  	message	412,4,(Compiler error: an attempt was made to get the character length of the non-character operand ^a.)
                                   564  	message	413,4,(Compiler error: there was an attempt to execute a nonexecutable macro.)
                                   565  	message	414,4,(Implementation restriction: ^a has overflowed its limit of ^a words.)
                                   566  	message	415,4,(Compiler error: the reference count of ^a has become less than 0.)
                                   567  	message	416,4,(Compiler error: ^a has an invalid address field.)
                                   568  	message	417,4,(Compiler error: ^a needs a pointer register for addressing, but is neither a parameter nor in common.)
                                   569  	message	418,4,(Compiler error: no index or pointer registers are available for allocation.)
                                   570  	message	419,4,(Compiler error: the offset of ^a cannot be found in storage.)
                                   571  	message	420,4,(Compiler error: an attempt was made to update the eaq with ^a to the ind state.)
                                   572  	message	421,4,(Compiler error: an attempt was made to load ^a into an invalid eaq state.)
                                   573  	message	422,1,(The subscript ^a of ^a is out of range.)
                                   574  	message	423,3,(The number of subscripts of ^a does not equal the number of its bounds.)
                                   575  	message	424,4,(Compiler error: ^a not implemented.)
                                   576  	message	425,4,(Compiler error: operand stack in improper state at end of subprogram.)
                                   577  	message	426,1,
                                   578  		     (The length for common block ^a has been increased to ^a ^a.)
                                   579  	message	427,4,(Compiler error: the address of ^a has been lost.)
                                   580  	message	428,3,(The entry point ^a has been multiply declared.)
                                   581  	message	429,2,(Multics restriction: The common block name ^a contains a dollar-sign and cannot be initialized.)
                                   582  	message	430,3,(Compiler error: the value of ^a should be in the index register, but it has been lost.)
                                   583  	message	431,1+print_once_per_subpgm+save_opnd2,
                                   584  		     (The subscript ^a of parameter ^a is out of range.)
                                   585  	message	432,2+print_once+save_opnd1,
                                   586  		     (The common block ^a is initialized more than once. The first initialization is used.)
                                   587  	message	433,4,
                                   588  		     (Implementation restriction: the product of ^a and ^a cannot be stored in the stack.)
                                   589  	message	434,1+print_once+save_opnd1,
                                   590  		     (Common block ^a is declared with more than one length.)
                                   591  	message	435,4,
                                   592  		     (Compiler error: ^a must be a temporary or an array ref.)
                                   593  	message	436,4,
                                   594  		     (Compiler error: obsolete macro ^a occurs in the text.)
                                   595  	message	437,4,
                                   596  		     (Compiler error: a var proc is invoked by a call macro.)
                                   597  	message	438,4,
                                   598  		     (Compiler error: proc arg count not equal to actual arg count. ^a ^a)
                                   599  	message	439,4,
                                   600  		     (Compiler error: eaq not loaded by load_for_test macro.)
                                   601  	message	440,4,
                                   602  		     (Compiler error: eaq not loaded correctly for ^a.)
                                   603  	message	441,4,
                                   604  		     (Compiler error: operand ^a in return macro is not a temporary node.)
                                   605  	message	442,4,
                                   606  		     (Compiler error: temporary already has an address.)
                                   607  	message	443,1+print_once_per_stmnt+save_opnd2,
                                   608  		     (Only the first ^a characters of ^a can be used.)
                                   609  	message	444,4,(Compiler error: This statement cannot have a machine state associated with it.)
                                   610  	message	445,4,(Compiler error: ^a has an invalid ^a field.)
                                   611  	message	446,4,(Compiler error: ^a has an uninitialized address field.)
                                   612  	message	447,4,(Compiler error:  an increment cannot be added to the address of ^a.)
                                   613  	message	448,4,(Compiler error: Could not put operand into EAQ machine state.)
                                   614  	message	449,4,(Compiler error: Both A and Q found already locked by eaq_man.)
                                   615  	message	450,4,(Compiler error: An operand which should be in the eaq was not found by get_eaq_name.)
                                   616  	message	451,1+print_once_per_subpgm,
                                   617  		     (Implementation restriction: Global ^a table overflows. Optimization may be degraded.)
                                   618  	message	452,4,
                                   619  		     (Compiler error: data type ^a undefined for a call to create_constant.)
                                   620  	message	453,4,(Compiler error: attempt to load global item in a reserved register.)
                                   621  	message	454,4,(Compiler error: attempt to set up ^a while it has a non-positive reference count.)
                                   622  	message	455,4,(Compiler error: an operator appears in the polish that should only appear in the quadruples.)
                                   623  	message	456,3,(Compiler error: the reference count of ^a was left too high.)
                                   624  	message	457,3,(The ^a appears in a substring reference to ^a, but falls outside the range of a legal character index.)
                                   625  	message	458,3,(The ^a which appears as a subscript of ^a does not have a numerical data type.)
                                   626  	message	459,3,(The ^a which appears in a substring reference to ^a does not have a numerical data type.)
                                   627  	message	460,3,(A substring reference to ^a has a constant length which is less than 1.)
                                   628  	message	461,3,(The ^a intrinsic function may not be used as an external function.)
                                   629  	message	462,4,(Compiler error: No integer constant was present on the operand stack when the int_to_char1 macro was invoked.)
                                   630  	message	463,4,(Compiler error: No character constant was present on the operand stack when the char1_to_int macro was invoked.)
                                   631  	message	464,4,(Compiler error: The optimizing code generator encountered the ^a intrinsic function.)
                                   632  	message	465,4,(Compiler error: The output of an operator called from a scan is not a temporary.)
                                   633  	message	466,4,(Compiler error: An emit_eis macro with the equal_lengths flag was encountered in which the length of the second operand was nonzero.)
                                   634  	message	467,4,(Compiler error: base_man_store_temp cannot find a usable pointer register.)
                                   635  	message	468,2,(^a requires argument descriptors and may not be passed the assumed size array ^a.)
                                   636  	message	469,2,(Implementation restriction: Cannot initialize /^a/ the definition section would overflow its limit of ^a words.)
                                   637
                                   638  	message	470,4,(Compiler error: ^a is not a valid operand for ^a.)
                                   639  	message	471,0,()
                                   640  	message	472,0,()
                                   641  	message	473,0,()
                                   642  	message	474,0,()
                                   643  	message	475,0,()
                                   644  	message	476,0,()
                                   645  	message	477,0,()
                                   646  	message	478,0,()
                                   647  	message	479,0,()
                                   648  	message	480,0,()
                                   649  	message	481,0,()
                                   650  	message	482,0,()
                                   651  	message	483,0,()
                                   652  	message	484,0,()
                                   653  	message	485,0,()
                                   654  	message	486,0,()
                                   655  	message	487,0,()
                                   656  	message	488,0,()
                                   657  	message	489,0,()
                                   658  	message	490,0,()
                                   659  	message	491,0,()
                                   660  	message	492,0,()
                                   661  	message	493,0,()
                                   662  	message	494,0,()
                                   663  	message	495,0,()
                                   664  	message	496,0,()
                                   665  	message	497,0,()
                                   666  	message	498,0,()
                                   667  	message	499,0,()
                                   668  	message	500,2,(Cannot get pointer to subsequent source segment.)
                                   669  	message	501,2,(Number of symbols exceeds ^a. Symbol table will be processed in sections.)
                                   670  	message	502,2,(Compiler Error: Unknown node ^a discovered in symbol table.)
                                   671  	message	503,2,(The symbol ^a cannot be chained to others of the same name because the symbol table is too large.)
                                   672  	message	504,0,()
                                   673  	message	505,0,()
                                   674  	message	506,0,()
                                   675  	message	507,0,()
                                   676  	message	508,0,()
                                   677  	message	509,0,()
                                   678  	message	510,0,()
                                   679  	message	511,0,()
                                   680  	message	512,0,()
                                   681  	message	513,0,()
                                   682  	message	514,0,()
                                   683  	message	515,0,()
                                   684  	message	516,0,()
                                   685  	message	517,0,()
                                   686  	message	518,0,()
                                   687  	message	519,0,()
                                   688  	message	520,0,()
                                   689  	message	521,0,()
                                   690  	message	522,4,(Compiler request to enter Hexadecimal Floating Point mode was denied.)
                                   691  	message	523,4,(Compiler error: VLA ^a has been encountered which is neither auto, static, common, nor parameter.)
                                   692  	message	524,3,(Development compiler error:  ^a)
                                   693  	message	525,4,
                                   694  		     (Compiler error: unknown error ^a.)
                                   695
    001016                         696  message_text:
                                   697  	join	/text/.message_area.
                                   698
                                   699  	end

NO LITERALS

NAME DEFINITIONS FOR ENTRY POINTS AND SEGDEFS

    015004  5a   000003 000000
    015005  5a   000032 600000
    015006  aa   000000 000000
    015007  55   000013 000002
    015010  5a   000002 400003
    015011  55   000006 000013
    015012  aa  022 146 157 162
    015013  aa  164 137 155 145
    015014  aa  163 163 141 147
    015015  aa  145 137 164 141
    015016  aa  142 154 145 000
    015017  55   000023 000003
    015020  0a   000000 400000
    015021  55   000016 000003
    015022  aa  022 146 157 162         fort_message_table
    015023  aa  164 137 155 145
    015024  aa  163 163 141 147
    015025  aa  145 137 164 141
    015026  aa  142 154 145 000
    015027  55   000002 000013
    015030  6a   000000 400002
    015031  55   000026 000003
    015032  aa  014 163 171 155         symbol_table
    015033  aa  142 157 154 137
    015034  aa  164 141 142 154
    015035  aa  145 000 000 000

DEFINITIONS HASH TABLE

    015036  aa   000000 000015
    015037  aa   000000 000000
    015040  aa   000000 000000
    015041  aa   000000 000000
    015042  aa   000000 000000
    015043  aa   000000 000000
    015044  aa   000000 000000
    015045  5a   000023 000000
    015046  aa   000000 000000
    015047  aa   000000 000000
    015050  5a   000013 000000
    015051  aa   000000 000000
    015052  aa   000000 000000
    015053  aa   000000 000000

NO EXTERNAL NAMES

NO TRAP POINTER WORDS

TYPE PAIR BLOCKS

    015054  aa   000001 000000
    015055  aa   000000 000000

INTERNAL EXPRESSION WORDS

LINKAGE INFORMATION

    000000  aa   000000 000000
    000001  0a   015004 000000
    000002  aa   000000 000000
    000003  aa   000000 000000
    000004  aa   000000 000000
    000005  aa   000000 000000
    000006  22   000010 000010
    000007  a2   000000 000000
SYMBOL INFORMATION

SYMBOL TABLE HEADER

    000000  aa   000000 000001
    000001  aa   163171 155142
    000002  aa   164162 145145
    000003  aa   000000 000010
    000004  aa   000000 117244
    000005  aa   361023 525721
    000006  aa   000000 131036
    000007  aa   675666 410154
    000010  aa   141154 155040
    000011  aa   040040 040040
    000012  aa   000024 000040
    000013  aa   000034 000040
    000014  aa   000044 000100
    000015  aa   000002 000002
    000016  aa   000064 000000
    000017  aa   000000 001003
    000020  aa   000000 000104
    000021  aa   000766 000763
    000022  aa   000775 000104
    000023  aa   000064 000000
    000024  aa   101114 115040
    000025  aa   126145 162163
    000026  aa   151157 156040
    000027  aa   070056 061064
    000030  aa   040115 141162
    000031  aa   143150 040061
    000032  aa   071070 071040
    000033  aa   040040 040040
    000034  aa   123143 150162
    000035  aa   157164 150056
    000036  aa   123171 163115
    000037  aa   141151 156164
    000040  aa   056155 040040
    000041  aa   040040 040040
    000042  aa   040040 040040
    000043  aa   040040 040040
    000044  aa   154151 163164
    000045  aa   040163 171155
    000046  aa   142157 154163
    000047  aa   040040 040040
    000050  aa   040040 040040
    000051  aa   040040 040040
    000052  aa   040040 040040
    000053  aa   040040 040040
    000054  aa   040040 040040
    000055  aa   040040 040040
    000056  aa   040040 040040
    000057  aa   040040 040040
    000060  aa   040040 040040
    000061  aa   040040 040040
    000062  aa   040040 040040
    000063  aa   040040 040040
    000064  aa   000000 000001
    000065  aa   000000 000001
    000066  aa   000072 000046
    000067  aa   310157 124672
    000070  aa   000000 131036
    000071  aa   675666 400000
    000072  aa   076165 144144          >udd>sm>ds>w>ml>fort_message_table.alm
    000073  aa   076163 155076
    000074  aa   144163 076167
    000075  aa   076155 154076
    000076  aa   146157 162164
    000077  aa   137155 145163
    000100  aa   163141 147145
    000101  aa   137164 141142
    000102  aa   154145 056141
    000103  aa   154155 040040
               MULTICS ASSEMBLY CROSS REFERENCE LISTING

   Value        Symbol                   Source file   Line number

        1016    ...00001                 fort_message_table:       123.
        1036    ...00002                 fort_message_table:       124.
        1036    ...00003                 fort_message_table:       125.
        1055    ...00004                 fort_message_table:       127.
        1075    ...00005                 fort_message_table:       128.
        1124    ...00006                 fort_message_table:       129.
        1145    ...00007                 fort_message_table:       130.
        1145    ...00010                 fort_message_table:       131.
        1162    ...00011                 fort_message_table:       132.
        1176    ...00012                 fort_message_table:       133.
        1215    ...00013                 fort_message_table:       134.
        1235    ...00014                 fort_message_table:       135.
        1252    ...00015                 fort_message_table:       136.
        1267    ...00016                 fort_message_table:       137.
        1306    ...00017                 fort_message_table:       139.
        1321    ...00020                 fort_message_table:       140.
        1334    ...00021                 fort_message_table:       141.
        1350    ...00022                 fort_message_table:       142.
        1366    ...00023                 fort_message_table:       143.
        1414    ...00024                 fort_message_table:       144.
        1433    ...00025                 fort_message_table:       145.
        1445    ...00026                 fort_message_table:       146.
        1464    ...00027                 fort_message_table:       147.
        1503    ...00030                 fort_message_table:       148.
        1525    ...00031                 fort_message_table:       149.
        1550    ...00032                 fort_message_table:       150.
        1565    ...00033                 fort_message_table:       151.
        1610    ...00034                 fort_message_table:       152.
        1632    ...00035                 fort_message_table:       153.
        1663    ...00036                 fort_message_table:       154.
        1704    ...00037                 fort_message_table:       155.
        1717    ...00040                 fort_message_table:       156.
        1740    ...00041                 fort_message_table:       157.
        1763    ...00042                 fort_message_table:       158.
        2011    ...00043                 fort_message_table:       159.
        2025    ...00044                 fort_message_table:       161.
        2056    ...00045                 fort_message_table:       162.
        2076    ...00046                 fort_message_table:       163.
        2121    ...00047                 fort_message_table:       164.
        2135    ...00050                 fort_message_table:       165.
        2152    ...00051                 fort_message_table:       166.
        2177    ...00052                 fort_message_table:       167.
        2220    ...00053                 fort_message_table:       168.
        2231    ...00054                 fort_message_table:       169.
        2247    ...00055                 fort_message_table:       170.
        2266    ...00056                 fort_message_table:       171.
        2313    ...00057                 fort_message_table:       172.
        2335    ...00060                 fort_message_table:       173.
        2356    ...00061                 fort_message_table:       174.
        2374    ...00062                 fort_message_table:       175.
        2411    ...00063                 fort_message_table:       176.
        2427    ...00064                 fort_message_table:       177.
        2444    ...00065                 fort_message_table:       178.
        2466    ...00066                 fort_message_table:       179.
        2502    ...00067                 fort_message_table:       180.
        2525    ...00070                 fort_message_table:       181.
        2542    ...00071                 fort_message_table:       182.
        2566    ...00072                 fort_message_table:       183.
        2605    ...00073                 fort_message_table:       184.
        2630    ...00074                 fort_message_table:       185.
        2645    ...00075                 fort_message_table:       186.
        2662    ...00076                 fort_message_table:       187.
        2706    ...00077                 fort_message_table:       188.
        2732    ...00100                 fort_message_table:       189.
        2745    ...00101                 fort_message_table:       190.
        2767    ...00102                 fort_message_table:       191.
        3007    ...00103                 fort_message_table:       192.
        3030    ...00104                 fort_message_table:       193.
        3056    ...00105                 fort_message_table:       195.
        3075    ...00106                 fort_message_table:       196.
        3121    ...00107                 fort_message_table:       197.
        3142    ...00110                 fort_message_table:       198.
        3162    ...00111                 fort_message_table:       199.
        3201    ...00112                 fort_message_table:       200.
        3223    ...00113                 fort_message_table:       201.
        3244    ...00114                 fort_message_table:       202.
        3260    ...00115                 fort_message_table:       203.
        3301    ...00116                 fort_message_table:       204.
        3320    ...00117                 fort_message_table:       205.
        3331    ...00120                 fort_message_table:       206.
        3361    ...00121                 fort_message_table:       208.
        3400    ...00122                 fort_message_table:       209.
        3416    ...00123                 fort_message_table:       211.
        3434    ...00124                 fort_message_table:       212.
        3452    ...00125                 fort_message_table:       213.
        3476    ...00126                 fort_message_table:       214.
        3511    ...00127                 fort_message_table:       215.
        3532    ...00130                 fort_message_table:       216.
        3554    ...00131                 fort_message_table:       217.
        3574    ...00132                 fort_message_table:       218.
        3607    ...00133                 fort_message_table:       219.
        3620    ...00134                 fort_message_table:       220.
        3643    ...00135                 fort_message_table:       221.
        3656    ...00136                 fort_message_table:       222.
        3673    ...00137                 fort_message_table:       223.
        3715    ...00140                 fort_message_table:       225.
        3731    ...00141                 fort_message_table:       226.
        3757    ...00142                 fort_message_table:       227.
        4000    ...00143                 fort_message_table:       228.
        4016    ...00144                 fort_message_table:       229.
        4027    ...00145                 fort_message_table:       230.
        4046    ...00146                 fort_message_table:       231.
        4061    ...00147                 fort_message_table:       232.
        4103    ...00150                 fort_message_table:       233.
        4122    ...00151                 fort_message_table:       234.
        4142    ...00152                 fort_message_table:       235.
        4167    ...00153                 fort_message_table:       236.
        4174    ...00154                 fort_message_table:       237.
        4210    ...00155                 fort_message_table:       238.
        4233    ...00156                 fort_message_table:       239.
        4255    ...00157                 fort_message_table:       240.
        4271    ...00160                 fort_message_table:       241.
        4315    ...00161                 fort_message_table:       242.
        4330    ...00162                 fort_message_table:       243.
        4350    ...00163                 fort_message_table:       244.
        4363    ...00164                 fort_message_table:       245.
        4407    ...00165                 fort_message_table:       246.
        4426    ...00166                 fort_message_table:       247.
        4447    ...00167                 fort_message_table:       249.
        4465    ...00170                 fort_message_table:       251.
        4506    ...00171                 fort_message_table:       253.
        4527    ...00172                 fort_message_table:       255.
        4550    ...00173                 fort_message_table:       256.
        4571    ...00174                 fort_message_table:       257.
        4611    ...00175                 fort_message_table:       258.
        4626    ...00176                 fort_message_table:       259.
        4640    ...00177                 fort_message_table:       260.
        4655    ...00200                 fort_message_table:       261.
        4677    ...00201                 fort_message_table:       262.
        4721    ...00202                 fort_message_table:       263.
        4741    ...00203                 fort_message_table:       264.
        4760    ...00204                 fort_message_table:       265.
        4777    ...00205                 fort_message_table:       266.
        5016    ...00206                 fort_message_table:       267.
        5041    ...00207                 fort_message_table:       268.
        5064    ...00210                 fort_message_table:       269.
        5101    ...00211                 fort_message_table:       271.
        5112    ...00212                 fort_message_table:       272.
        5140    ...00213                 fort_message_table:       273.
        5162    ...00214                 fort_message_table:       274.
        5205    ...00215                 fort_message_table:       275.
        5217    ...00216                 fort_message_table:       276.
        5235    ...00217                 fort_message_table:       277.
        5260    ...00220                 fort_message_table:       279.
        5307    ...00221                 fort_message_table:       280.
        5324    ...00222                 fort_message_table:       281.
        5341    ...00223                 fort_message_table:       282.
        5375    ...00224                 fort_message_table:       283.
        5425    ...00225                 fort_message_table:       284.
        5447    ...00226                 fort_message_table:       285.
        5463    ...00227                 fort_message_table:       286.
        5477    ...00230                 fort_message_table:       287.
        5522    ...00231                 fort_message_table:       289.
        5553    ...00232                 fort_message_table:       291.
        5603    ...00233                 fort_message_table:       292.
        5613    ...00234                 fort_message_table:       294.
        5635    ...00235                 fort_message_table:       296.
        5664    ...00236                 fort_message_table:       298.
        5716    ...00237                 fort_message_table:       299.
        5746    ...00240                 fort_message_table:       300.
        5763    ...00241                 fort_message_table:       301.
        6006    ...00242                 fort_message_table:       302.
        6022    ...00243                 fort_message_table:       303.
        6054    ...00244                 fort_message_table:       304.
        6105    ...00245                 fort_message_table:       305.
        6134    ...00246                 fort_message_table:       306.
        6153    ...00247                 fort_message_table:       307.
        6203    ...00250                 fort_message_table:       308.
        6226    ...00251                 fort_message_table:       309.
        6257    ...00252                 fort_message_table:       310.
        6311    ...00253                 fort_message_table:       311.
        6327    ...00254                 fort_message_table:       312.
        6353    ...00255                 fort_message_table:       313.
        6376    ...00256                 fort_message_table:       314.
        6413    ...00257                 fort_message_table:       315.
        6431    ...00260                 fort_message_table:       316.
        6452    ...00261                 fort_message_table:       317.
        6473    ...00262                 fort_message_table:       318.
        6512    ...00263                 fort_message_table:       319.
        6525    ...00264                 fort_message_table:       320.
        6546    ...00265                 fort_message_table:       321.
        6570    ...00266                 fort_message_table:       322.
        6610    ...00267                 fort_message_table:       323.
        6634    ...00270                 fort_message_table:       324.
        6660    ...00271                 fort_message_table:       325.
        6677    ...00272                 fort_message_table:       326.
        6711    ...00273                 fort_message_table:       327.
        6735    ...00274                 fort_message_table:       328.
        6773    ...00275                 fort_message_table:       329.
        7021    ...00276                 fort_message_table:       330.
        7042    ...00277                 fort_message_table:       331.
        7050    ...00300                 fort_message_table:       332.
        7067    ...00301                 fort_message_table:       333.
        7123    ...00302                 fort_message_table:       334.
        7145    ...00303                 fort_message_table:       335.
        7145    ...00304                 fort_message_table:       336.
        7145    ...00305                 fort_message_table:       337.
        7145    ...00306                 fort_message_table:       338.
        7145    ...00307                 fort_message_table:       339.
        7145    ...00310                 fort_message_table:       340.
        7174    ...00311                 fort_message_table:       341.
        7220    ...00312                 fort_message_table:       342.
        7250    ...00313                 fort_message_table:       344.
        7276    ...00314                 fort_message_table:       346.
        7321    ...00315                 fort_message_table:       347.
        7342    ...00316                 fort_message_table:       348.
        7366    ...00317                 fort_message_table:       349.
        7366    ...00320                 fort_message_table:       350.
        7366    ...00321                 fort_message_table:       351.
        7366    ...00322                 fort_message_table:       352.
        7366    ...00323                 fort_message_table:       353.
        7366    ...00324                 fort_message_table:       354.
        7366    ...00325                 fort_message_table:       355.
        7366    ...00326                 fort_message_table:       356.
        7366    ...00327                 fort_message_table:       357.
        7366    ...00330                 fort_message_table:       358.
        7366    ...00331                 fort_message_table:       359.
        7366    ...00332                 fort_message_table:       360.
        7366    ...00333                 fort_message_table:       361.
        7366    ...00334                 fort_message_table:       362.
        7366    ...00335                 fort_message_table:       363.
        7366    ...00336                 fort_message_table:       364.
        7366    ...00337                 fort_message_table:       365.
        7366    ...00340                 fort_message_table:       366.
        7366    ...00341                 fort_message_table:       367.
        7366    ...00342                 fort_message_table:       368.
        7366    ...00343                 fort_message_table:       369.
        7366    ...00344                 fort_message_table:       370.
        7366    ...00345                 fort_message_table:       371.
        7376    ...00346                 fort_message_table:       372.
        7376    ...00347                 fort_message_table:       373.
        7376    ...00350                 fort_message_table:       374.
        7376    ...00351                 fort_message_table:       375.
        7376    ...00352                 fort_message_table:       376.
        7376    ...00353                 fort_message_table:       377.
        7376    ...00354                 fort_message_table:       378.
        7376    ...00355                 fort_message_table:       379.
        7376    ...00356                 fort_message_table:       380.
        7376    ...00357                 fort_message_table:       381.
        7376    ...00360                 fort_message_table:       382.
        7376    ...00361                 fort_message_table:       383.
        7376    ...00362                 fort_message_table:       384.
        7376    ...00363                 fort_message_table:       385.
        7376    ...00364                 fort_message_table:       386.
        7376    ...00365                 fort_message_table:       387.
        7376    ...00366                 fort_message_table:       388.
        7376    ...00367                 fort_message_table:       389.
        7376    ...00370                 fort_message_table:       390.
        7376    ...00371                 fort_message_table:       391.
        7376    ...00372                 fort_message_table:       392.
        7376    ...00373                 fort_message_table:       393.
        7376    ...00374                 fort_message_table:       394.
        7376    ...00375                 fort_message_table:       395.
        7376    ...00376                 fort_message_table:       396.
        7376    ...00377                 fort_message_table:       397.
        7376    ...00400                 fort_message_table:       398.
        7376    ...00401                 fort_message_table:       399.
        7376    ...00402                 fort_message_table:       400.
        7376    ...00403                 fort_message_table:       401.
        7376    ...00404                 fort_message_table:       402.
        7376    ...00405                 fort_message_table:       403.
        7376    ...00406                 fort_message_table:       404.
        7376    ...00407                 fort_message_table:       405.
        7376    ...00410                 fort_message_table:       406.
        7376    ...00411                 fort_message_table:       407.
        7376    ...00412                 fort_message_table:       408.
        7376    ...00413                 fort_message_table:       409.
        7376    ...00414                 fort_message_table:       410.
        7376    ...00415                 fort_message_table:       411.
        7376    ...00416                 fort_message_table:       412.
        7376    ...00417                 fort_message_table:       413.
        7376    ...00420                 fort_message_table:       414.
        7376    ...00421                 fort_message_table:       415.
        7376    ...00422                 fort_message_table:       416.
        7376    ...00423                 fort_message_table:       417.
        7376    ...00424                 fort_message_table:       418.
        7376    ...00425                 fort_message_table:       419.
        7376    ...00426                 fort_message_table:       420.
        7376    ...00427                 fort_message_table:       421.
        7376    ...00430                 fort_message_table:       422.
        7376    ...00431                 fort_message_table:       423.
        7376    ...00432                 fort_message_table:       424.
        7376    ...00433                 fort_message_table:       425.
        7376    ...00434                 fort_message_table:       426.
        7376    ...00435                 fort_message_table:       427.
        7376    ...00436                 fort_message_table:       428.
        7376    ...00437                 fort_message_table:       429.
        7376    ...00440                 fort_message_table:       430.
        7376    ...00441                 fort_message_table:       431.
        7376    ...00442                 fort_message_table:       432.
        7376    ...00443                 fort_message_table:       433.
        7376    ...00444                 fort_message_table:       434.
        7376    ...00445                 fort_message_table:       435.
        7376    ...00446                 fort_message_table:       436.
        7376    ...00447                 fort_message_table:       437.
        7376    ...00450                 fort_message_table:       438.
        7376    ...00451                 fort_message_table:       439.
        7376    ...00452                 fort_message_table:       440.
        7376    ...00453                 fort_message_table:       441.
        7376    ...00454                 fort_message_table:       443.
        7410    ...00455                 fort_message_table:       445.
        7422    ...00456                 fort_message_table:       446.
        7440    ...00457                 fort_message_table:       447.
        7455    ...00460                 fort_message_table:       448.
        7472    ...00461                 fort_message_table:       449.
        7511    ...00462                 fort_message_table:       450.
        7531    ...00463                 fort_message_table:       451.
        7555    ...00464                 fort_message_table:       452.
        7577    ...00465                 fort_message_table:       453.
        7614    ...00466                 fort_message_table:       454.
        7631    ...00467                 fort_message_table:       455.
        7650    ...00470                 fort_message_table:       456.
        7667    ...00471                 fort_message_table:       457.
        7700    ...00472                 fort_message_table:       458.
        7722    ...00473                 fort_message_table:       459.
        7735    ...00474                 fort_message_table:       460.
        7752    ...00475                 fort_message_table:       461.
        7764    ...00476                 fort_message_table:       462.
       10001    ...00477                 fort_message_table:       463.
       10022    ...00500                 fort_message_table:       464.
       10045    ...00501                 fort_message_table:       465.
       10070    ...00502                 fort_message_table:       466.
       10113    ...00503                 fort_message_table:       467.
       10131    ...00504                 fort_message_table:       468.
       10154    ...00505                 fort_message_table:       469.
       10174    ...00506                 fort_message_table:       470.
       10213    ...00507                 fort_message_table:       471.
       10232    ...00510                 fort_message_table:       472.
       10252    ...00511                 fort_message_table:       473.
       10273    ...00512                 fort_message_table:       475.
       10311    ...00513                 fort_message_table:       476.
       10327    ...00514                 fort_message_table:       477.
       10342    ...00515                 fort_message_table:       478.
       10355    ...00516                 fort_message_table:       479.
       10401    ...00517                 fort_message_table:       480.
       10424    ...00520                 fort_message_table:       481.
       10450    ...00521                 fort_message_table:       483.
       10472    ...00522                 fort_message_table:       484.
       10513    ...00523                 fort_message_table:       486.
       10534    ...00524                 fort_message_table:       488.
       10565    ...00525                 fort_message_table:       489.
       10612    ...00526                 fort_message_table:       490.
       10632    ...00527                 fort_message_table:       492.
       10655    ...00530                 fort_message_table:       493.
       10703    ...00531                 fort_message_table:       494.
       10731    ...00532                 fort_message_table:       495.
       10757    ...00533                 fort_message_table:       496.
       10777    ...00534                 fort_message_table:       498.
       11023    ...00535                 fort_message_table:       499.
       11043    ...00536                 fort_message_table:       500.
       11061    ...00537                 fort_message_table:       501.
       11103    ...00540                 fort_message_table:       502.
       11124    ...00541                 fort_message_table:       503.
       11145    ...00542                 fort_message_table:       504.
       11171    ...00543                 fort_message_table:       506.
       11215    ...00544                 fort_message_table:       507.
       11240    ...00545                 fort_message_table:       508.
       11263    ...00546                 fort_message_table:       509.
       11277    ...00547                 fort_message_table:       510.
       11322    ...00550                 fort_message_table:       511.
       11345    ...00551                 fort_message_table:       512.
       11366    ...00552                 fort_message_table:       513.
       11420    ...00553                 fort_message_table:       514.
       11446    ...00554                 fort_message_table:       515.
       11474    ...00555                 fort_message_table:       516.
       11537    ...00556                 fort_message_table:       517.
       11602    ...00557                 fort_message_table:       518.
       11602    ...00560                 fort_message_table:       519.
       11602    ...00561                 fort_message_table:       520.
       11602    ...00562                 fort_message_table:       521.
       11602    ...00563                 fort_message_table:       522.
       11602    ...00564                 fort_message_table:       523.
       11602    ...00565                 fort_message_table:       524.
       11602    ...00566                 fort_message_table:       525.
       11602    ...00567                 fort_message_table:       526.
       11602    ...00570                 fort_message_table:       527.
       11602    ...00571                 fort_message_table:       528.
       11602    ...00572                 fort_message_table:       529.
       11602    ...00573                 fort_message_table:       530.
       11602    ...00574                 fort_message_table:       531.
       11617    ...00575                 fort_message_table:       532.
       11642    ...00576                 fort_message_table:       533.
       11655    ...00577                 fort_message_table:       534.
       11704    ...00600                 fort_message_table:       535.
       11733    ...00601                 fort_message_table:       536.
       11764    ...00602                 fort_message_table:       537.
       12015    ...00603                 fort_message_table:       538.
       12050    ...00604                 fort_message_table:       539.
       12104    ...00605                 fort_message_table:       540.
       12112    ...00606                 fort_message_table:       541.
       12135    ...00607                 fort_message_table:       542.
       12165    ...00610                 fort_message_table:       543.
       12165    ...00611                 fort_message_table:       544.
       12165    ...00612                 fort_message_table:       545.
       12165    ...00613                 fort_message_table:       546.
       12165    ...00614                 fort_message_table:       547.
       12165    ...00615                 fort_message_table:       548.
       12165    ...00616                 fort_message_table:       549.
       12165    ...00617                 fort_message_table:       550.
       12165    ...00620                 fort_message_table:       551.
       12204    ...00621                 fort_message_table:       552.
       12225    ...00622                 fort_message_table:       553.
       12245    ...00623                 fort_message_table:       554.
       12273    ...00624                 fort_message_table:       555.
       12320    ...00625                 fort_message_table:       556.
       12341    ...00626                 fort_message_table:       557.
       12364    ...00627                 fort_message_table:       558.
       12402    ...00630                 fort_message_table:       559.
       12425    ...00631                 fort_message_table:       560.
       12454    ...00632                 fort_message_table:       561.
       12503    ...00633                 fort_message_table:       562.
       12526    ...00634                 fort_message_table:       563.
       12556    ...00635                 fort_message_table:       564.
       12600    ...00636                 fort_message_table:       565.
       12621    ...00637                 fort_message_table:       566.
       12642    ...00640                 fort_message_table:       567.
       12656    ...00641                 fort_message_table:       568.
       12710    ...00642                 fort_message_table:       569.
       12733    ...00643                 fort_message_table:       570.
       12752    ...00644                 fort_message_table:       571.
       12776    ...00645                 fort_message_table:       572.
       13021    ...00646                 fort_message_table:       573.
       13033    ...00647                 fort_message_table:       574.
       13055    ...00650                 fort_message_table:       575.
       13066    ...00651                 fort_message_table:       576.
       13110    ...00652                 fort_message_table:       578.
       13127    ...00653                 fort_message_table:       579.
       13143    ...00654                 fort_message_table:       580.
       13157    ...00655                 fort_message_table:       581.
       13207    ...00656                 fort_message_table:       582.
       13235    ...00657                 fort_message_table:       584.
       13252    ...00660                 fort_message_table:       586.
       13277    ...00661                 fort_message_table:       588.
       13324    ...00662                 fort_message_table:       590.
       13342    ...00663                 fort_message_table:       592.
       13360    ...00664                 fort_message_table:       594.
       13376    ...00665                 fort_message_table:       596.
       13414    ...00666                 fort_message_table:       598.
       13435    ...00667                 fort_message_table:       600.
       13453    ...00670                 fort_message_table:       602.
       13467    ...00671                 fort_message_table:       604.
       13510    ...00672                 fort_message_table:       606.
       13525    ...00673                 fort_message_table:       608.
       13541    ...00674                 fort_message_table:       609.
       13565    ...00675                 fort_message_table:       610.
       13600    ...00676                 fort_message_table:       611.
       13616    ...00677                 fort_message_table:       612.
       13637    ...00700                 fort_message_table:       613.
       13657    ...00701                 fort_message_table:       614.
       13677    ...00702                 fort_message_table:       615.
       13724    ...00703                 fort_message_table:       617.
       13751    ...00704                 fort_message_table:       619.
       13773    ...00705                 fort_message_table:       620.
       14014    ...00706                 fort_message_table:       621.
       14041    ...00707                 fort_message_table:       622.
       14070    ...00710                 fort_message_table:       623.
       14107    ...00711                 fort_message_table:       624.
       14141    ...00712                 fort_message_table:       625.
       14165    ...00713                 fort_message_table:       626.
       14213    ...00714                 fort_message_table:       627.
       14235    ...00715                 fort_message_table:       628.
       14256    ...00716                 fort_message_table:       629.
       14312    ...00717                 fort_message_table:       630.
       14346    ...00720                 fort_message_table:       631.
       14373    ...00721                 fort_message_table:       632.
       14417    ...00722                 fort_message_table:       633.
       14460    ...00723                 fort_message_table:       634.
       14503    ...00724                 fort_message_table:       635.
       14530    ...00725                 fort_message_table:       636.
       14564    ...00726                 fort_message_table:       638.
       14601    ...00727                 fort_message_table:       639.
       14601    ...00730                 fort_message_table:       640.
       14601    ...00731                 fort_message_table:       641.
       14601    ...00732                 fort_message_table:       642.
       14601    ...00733                 fort_message_table:       643.
       14601    ...00734                 fort_message_table:       644.
       14601    ...00735                 fort_message_table:       645.
       14601    ...00736                 fort_message_table:       646.
       14601    ...00737                 fort_message_table:       647.
       14601    ...00740                 fort_message_table:       648.
       14601    ...00741                 fort_message_table:       649.
       14601    ...00742                 fort_message_table:       650.
       14601    ...00743                 fort_message_table:       651.
       14601    ...00744                 fort_message_table:       652.
       14601    ...00745                 fort_message_table:       653.
       14601    ...00746                 fort_message_table:       654.
       14601    ...00747                 fort_message_table:       655.
       14601    ...00750                 fort_message_table:       656.
       14601    ...00751                 fort_message_table:       657.
       14601    ...00752                 fort_message_table:       658.
       14601    ...00753                 fort_message_table:       659.
       14601    ...00754                 fort_message_table:       660.
       14601    ...00755                 fort_message_table:       661.
       14601    ...00756                 fort_message_table:       662.
       14601    ...00757                 fort_message_table:       663.
       14601    ...00760                 fort_message_table:       664.
       14601    ...00761                 fort_message_table:       665.
       14601    ...00762                 fort_message_table:       666.
       14601    ...00763                 fort_message_table:       667.
       14601    ...00764                 fort_message_table:       668.
       14615    ...00765                 fort_message_table:       669.
       14640    ...00766                 fort_message_table:       670.
       14657    ...00767                 fort_message_table:       671.
       14710    ...00770                 fort_message_table:       672.
       14710    ...00771                 fort_message_table:       673.
       14710    ...00772                 fort_message_table:       674.
       14710    ...00773                 fort_message_table:       675.
       14710    ...00774                 fort_message_table:       676.
       14710    ...00775                 fort_message_table:       677.
       14710    ...00776                 fort_message_table:       678.
       14710    ...00777                 fort_message_table:       679.
       14710    ...01000                 fort_message_table:       680.
       14710    ...01001                 fort_message_table:       681.
       14710    ...01002                 fort_message_table:       682.
       14710    ...01003                 fort_message_table:       683.
       14710    ...01004                 fort_message_table:       684.
       14710    ...01005                 fort_message_table:       685.
       14710    ...01006                 fort_message_table:       686.
       14710    ...01007                 fort_message_table:       687.
       14710    ...01010                 fort_message_table:       688.
       14710    ...01011                 fort_message_table:       689.
       14710    ...01012                 fort_message_table:       690.
       14732    ...01013                 fort_message_table:       691.
       14763    ...01014                 fort_message_table:       692.
       14773    ...01015                 fort_message_table:       694.
        1016    .message_area.           fort_message_table:       123,  124,  125,  127,  128,  129,  130,  131,  132,  133,
                                                                   134,  135,  136,  137,  139,  140,  141,  142,  143,  144,
                                                                   145,  146,  147,  148,  149,  150,  151,  152,  153,  154,
                                                                   155,  156,  157,  158,  159,  161,  162,  163,  164,  165,
                                                                   166,  167,  168,  169,  170,  171,  172,  173,  174,  175,
                                                                   176,  177,  178,  179,  180,  181,  182,  183,  184,  185,
                                                                   186,  187,  188,  189,  190,  191,  192,  193,  195,  196,
                                                                   197,  198,  199,  200,  201,  202,  203,  204,  205,  206,
                                                                   208,  209,  211,  212,  213,  214,  215,  216,  217,  218,
                                                                   219,  220,  221,  222,  223,  225,  226,  227,  228,  229,
                                                                   230,  231,  232,  233,  234,  235,  236,  237,  238,  239,
                                                                   240,  241,  242,  243,  244,  245,  246,  247,  249,  251,
                                                                   253,  255,  256,  257,  258,  259,  260,  261,  262,  263,
                                                                   264,  265,  266,  267,  268,  269,  271,  272,  273,  274,
                                                                   275,  276,  277,  279,  280,  281,  282,  283,  284,  285,
                                                                   286,  287,  289,  291,  292,  294,  296,  298,  299,  300,
                                                                   301,  302,  303,  304,  305,  306,  307,  308,  309,  310,
                                                                   311,  312,  313,  314,  315,  316,  317,  318,  319,  320,
                                                                   321,  322,  323,  324,  325,  326,  327,  328,  329,  330,
                                                                   331,  332,  333,  334,  335,  336,  337,  338,  339,  340,
                                                                   341,  342,  344,  346,  347,  348,  349,  350,  351,  352,
                                                                   353,  354,  355,  356,  357,  358,  359,  360,  361,  362,
                                                                   363,  364,  365,  366,  367,  368,  369,  370,  371,  372,
                                                                   373,  374,  375,  376,  377,  378,  379,  380,  381,  382,
                                                                   383,  384,  385,  386,  387,  388,  389,  390,  391,  392,
                                                                   393,  394,  395,  396,  397,  398,  399,  400,  401,  402,
                                                                   403,  404,  405,  406,  407,  408,  409,  410,  411,  412,
                                                                   413,  414,  415,  416,  417,  418,  419,  420,  421,  422,
                                                                   423,  424,  425,  426,  427,  428,  429,  430,  431,  432,
                                                                   433,  434,  435,  436,  437,  438,  439,  440,  441,  443,
                                                                   445,  446,  447,  448,  449,  450,  451,  452,  453,  454,
                                                                   455,  456,  457,  458,  459,  460,  461,  462,  463,  464,
                                                                   465,  466,  467,  468,  469,  470,  471,  472,  473,  475,
                                                                   476,  477,  478,  479,  480,  481,  483,  484,  486,  488,
                                                                   489,  490,  492,  493,  494,  495,  496,  498,  499,  500,
                                                                   501,  502,  503,  504,  506,  507,  508,  509,  510,  511,
                                                                   512,  513,  514,  515,  516,  517,  518,  519,  520,  521,
                                                                   522,  523,  524,  525,  526,  527,  528,  529,  530,  531,
                                                                   532,  533,  534,  535,  536,  537,  538,  539,  540,  541,
                                                                   542,  543,  544,  545,  546,  547,  548,  549,  550,  551,
                                                                   552,  553,  554,  555,  556,  557,  558,  559,  560,  561,
                                                                   562,  563,  564,  565,  566,  567,  568,  569,  570,  571,
                                                                   572,  573,  574,  575,  576,  578,  579,  580,  581,  582,
                                                                   584,  586,  588,  590,  592,  594,  596,  598,  600,  602,
                                                                   604,  606,  608,  609,  610,  611,  612,  613,  614,  615,
                                                                   617,  619,  620,  621,  622,  623,  624,  625,  626,  627,
                                                                   628,  629,  630,  631,  632,  633,  634,  635,  636,  638,
                                                                   639,  640,  641,  642,  643,  644,  645,  646,  647,  648,
                                                                   649,  650,  651,  652,  653,  654,  655,  656,  657,  658,
                                                                   659,  660,  661,  662,  663,  664,  665,  666,  667,  668,
                                                                   669,  670,  671,  672,  673,  674,  675,  676,  677,  678,
                                                                   679,  680,  681,  682,  683,  684,  685,  686,  687,  688,
                                                                   689,  690,  691,  692,  694,  697.
           0    .text.                   fort_message_table:       123,  124,  125,  127,  128,  129,  130,  131,  132,  133,
                                                                   134,  135,  136,  137,  139,  140,  141,  142,  143,  144,
                                                                   145,  146,  147,  148,  149,  150,  151,  152,  153,  154,
                                                                   155,  156,  157,  158,  159,  161,  162,  163,  164,  165,
                                                                   166,  167,  168,  169,  170,  171,  172,  173,  174,  175,
                                                                   176,  177,  178,  179,  180,  181,  182,  183,  184,  185,
                                                                   186,  187,  188,  189,  190,  191,  192,  193,  195,  196,
                                                                   197,  198,  199,  200,  201,  202,  203,  204,  205,  206,
                                                                   208,  209,  211,  212,  213,  214,  215,  216,  217,  218,
                                                                   219,  220,  221,  222,  223,  225,  226,  227,  228,  229,
                                                                   230,  231,  232,  233,  234,  235,  236,  237,  238,  239,
                                                                   240,  241,  242,  243,  244,  245,  246,  247,  249,  251,
                                                                   253,  255,  256,  257,  258,  259,  260,  261,  262,  263,
                                                                   264,  265,  266,  267,  268,  269,  271,  272,  273,  274,
                                                                   275,  276,  277,  279,  280,  281,  282,  283,  284,  285,
                                                                   286,  287,  289,  291,  292,  294,  296,  298,  299,  300,
                                                                   301,  302,  303,  304,  305,  306,  307,  308,  309,  310,
                                                                   311,  312,  313,  314,  315,  316,  317,  318,  319,  320,
                                                                   321,  322,  323,  324,  325,  326,  327,  328,  329,  330,
                                                                   331,  332,  333,  334,  335,  336,  337,  338,  339,  340,
                                                                   341,  342,  344,  346,  347,  348,  349,  350,  351,  352,
                                                                   353,  354,  355,  356,  357,  358,  359,  360,  361,  362,
                                                                   363,  364,  365,  366,  367,  368,  369,  370,  371,  372,
                                                                   373,  374,  375,  376,  377,  378,  379,  380,  381,  382,
                                                                   383,  384,  385,  386,  387,  388,  389,  390,  391,  392,
                                                                   393,  394,  395,  396,  397,  398,  399,  400,  401,  402,
                                                                   403,  404,  405,  406,  407,  408,  409,  410,  411,  412,
                                                                   413,  414,  415,  416,  417,  418,  419,  420,  421,  422,
                                                                   423,  424,  425,  426,  427,  428,  429,  430,  431,  432,
                                                                   433,  434,  435,  436,  437,  438,  439,  440,  441,  443,
                                                                   445,  446,  447,  448,  449,  450,  451,  452,  453,  454,
                                                                   455,  456,  457,  458,  459,  460,  461,  462,  463,  464,
                                                                   465,  466,  467,  468,  469,  470,  471,  472,  473,  475,
                                                                   476,  477,  478,  479,  480,  481,  483,  484,  486,  488,
                                                                   489,  490,  492,  493,  494,  495,  496,  498,  499,  500,
                                                                   501,  502,  503,  504,  506,  507,  508,  509,  510,  511,
                                                                   512,  513,  514,  515,  516,  517,  518,  519,  520,  521,
                                                                   522,  523,  524,  525,  526,  527,  528,  529,  530,  531,
                                                                   532,  533,  534,  535,  536,  537,  538,  539,  540,  541,
                                                                   542,  543,  544,  545,  546,  547,  548,  549,  550,  551,
                                                                   552,  553,  554,  555,  556,  557,  558,  559,  560,  561,
                                                                   562,  563,  564,  565,  566,  567,  568,  569,  570,  571,
                                                                   572,  573,  574,  575,  576,  578,  579,  580,  581,  582,
                                                                   584,  586,  588,  590,  592,  594,  596,  598,  600,  602,
                                                                   604,  606,  608,  609,  610,  611,  612,  613,  614,  615,
                                                                   617,  619,  620,  621,  622,  623,  624,  625,  626,  627,
                                                                   628,  629,  630,  631,  632,  633,  634,  635,  636,  638,
                                                                   639,  640,  641,  642,  643,  644,  645,  646,  647,  648,
                                                                   649,  650,  651,  652,  653,  654,  655,  656,  657,  658,
                                                                   659,  660,  661,  662,  663,  664,  665,  666,  667,  668,
                                                                   669,  670,  671,  672,  673,  674,  675,  676,  677,  678,
                                                                   679,  680,  681,  682,  683,  684,  685,  686,  687,  688,
                                                                   689,  690,  691,  692,  694.
           0    fort_message_table       fort_message_table:       118,  120.
        1016    message_text             fort_message_table:       121,  696.
         400    print_once               fort_message_table:       109,  110,  111,  139,  586,  590.
         600    print_once_per_stmnt     fort_message_table:       110,  161,  195,  208,  211,  221,  225,  249,  251,  253,
                                                                   255,  271,  279,  294,  296,  298,  346,  506,  608.
         500    print_once_per_subpgm    fort_message_table:       111,  127,  289,  291,  344,  492,  498,  584,  617.
          20    save_opnd1               fort_message_table:       114,  161,  195,  208,  221,  225,  249,  253,  255,  271,
                                                                   294,  492,  498,  506,  586,  590.
          40    save_opnd2               fort_message_table:       113,  211,  251,  584,  608.
          60    save_opnd3               fort_message_table:       112.


NO FATAL ERRORS


                                          -----------------------------------------------------------


Historical Background

This edition of the Multics software materials and documentation is provided and donated
to Massachusetts Institute of Technology by Group BULL including BULL HN Information Systems Inc.
as a contribution to computer science knowledge.
This donation is made also to give evidence of the common contributions of Massachusetts Institute of Technology,
Bell Laboratories, General Electric, Honeywell Information Systems Inc., Honeywell BULL Inc., Groupe BULL
and BULL HN Information Systems Inc. to the development of this operating system.
Multics development was initiated by Massachusetts Institute of Technology Project MAC (1963-1970),
renamed the MIT Laboratory for Computer Science and Artificial Intelligence in the mid 1970s, under the leadership
of Professor Fernando Jose Corbato. Users consider that Multics provided the best software architecture
for managing computer hardware properly and for executing programs. Many subsequent operating systems
incorporated Multics principles.
Multics was distributed in 1975 to 2000 by Group Bull in Europe , and in the U.S. by Bull HN Information Systems Inc.,
as successor in interest by change in name only to Honeywell Bull Inc. and Honeywell Information Systems Inc. .

                                          -----------------------------------------------------------

Permission to use, copy, modify, and distribute these programs and their documentation for any purpose and without
fee is hereby granted,provided that the below copyright notice and historical background appear in all copies
and that both the copyright notice and historical background and this permission notice appear in supporting
documentation, and that the names of MIT, HIS, BULL or BULL HN not be used in advertising or publicity pertaining
to distribution of the programs without specific prior written permission.
    Copyright 1972 by Massachusetts Institute of Technology and Honeywell Information Systems Inc.
    Copyright 2006 by BULL HN Information Systems Inc.
    Copyright 2006 by Bull SAS
    All Rights Reserved
