               MULTICS ASSEMBLY CROSS REFERENCE LISTING

   Value        Symbol                   Source file   Line number

         470    ...00001                 fort_cg_macros_:    286.
         472    ...00002                 fort_cg_macros_:    289.
         575    ...00004                 fort_cg_macros_:    383.
         630    ...00005                 fort_cg_macros_:    425.
         634    ...00006                 fort_cg_macros_:    429.
         637    ...00007                 fort_cg_macros_:    433.
        1023    ...00010                 fort_cg_macros_:    607.
        1025    ...00011                 fort_cg_macros_:    610.
        1414    ...00012                 fort_cg_macros_:    959.
        1416    ...00013                 fort_cg_macros_:    962.
        1616    ...00014                 fort_cg_macros_:   1147.
        1620    ...00015                 fort_cg_macros_:   1150.
        2044    ...00016                 fort_cg_macros_:   1358.
        2046    ...00017                 fort_cg_macros_:   1361.
        2353    ...00020                 fort_cg_macros_:   1659.
        2355    ...00021                 fort_cg_macros_:   1662.
        2364    ...00022                 fort_cg_macros_:   1671.
        2500    ...00023                 fort_cg_macros_:   1780.
        2534    ...00024                 fort_cg_macros_:   1829.
        2617    ...00025                 fort_cg_macros_:   1908.
        2663    ...00026                 fort_cg_macros_:   1960.
        2736    ...00027                 fort_cg_macros_:   2024.
        2745    ...00030                 fort_cg_macros_:   2034.
        2751    ...00031                 fort_cg_macros_:   2041.
        2755    ...00032                 fort_cg_macros_:   2048.
        2760    ...00033                 fort_cg_macros_:   2052.
        2763    ...00034                 fort_cg_macros_:   2056.
        3052    ...00035                 fort_cg_macros_:   2071.
        3056    ...00036                 fort_cg_macros_:   2077.
        3310    ...00037                 fort_cg_macros_:   2107.
        3315    ...00040                 fort_cg_macros_:   2116.
        3322    ...00041                 fort_cg_macros_:   2121.
        3326    ...00042                 fort_cg_macros_:   2126.
        3332    ...00043                 fort_cg_macros_:   2131.
        3336    ...00044                 fort_cg_macros_:   2136.
        3342    ...00045                 fort_cg_macros_:   2141.
        3346    ...00046                 fort_cg_macros_:   2146.
        3352    ...00047                 fort_cg_macros_:   2151.
        3356    ...00050                 fort_cg_macros_:   2156.
        3402    ...00051                 fort_cg_macros_:   2187.
        3406    ...00053                 fort_cg_macros_:   2192.
        3411    ...00055                 fort_cg_macros_:   2197.
        3415    ...00056                 fort_cg_macros_:   2202.
        5735    ...00057                 fort_cg_macros_:   4173.
        6064    ...00060                 fort_cg_macros_:   4284.
        6100    ...00061                 fort_cg_macros_:   4301.
        6111    ...00062                 fort_cg_macros_:   4311.
        6562    ...00063                 fort_cg_macros_:   4772.
        6566    ...00064                 fort_cg_macros_:   4776.
        6572    ...00065                 fort_cg_macros_:   4780.
        6576    ...00066                 fort_cg_macros_:   4784.
        6602    ...00067                 fort_cg_macros_:   4788.
        6605    ...00070                 fort_cg_macros_:   4791.
        6610    ...00071                 fort_cg_macros_:   4795.
        6612    ...00072                 fort_cg_macros_:   4798.
        6614    ...00073                 fort_cg_macros_:   4801.
        6616    ...00074                 fort_cg_macros_:   4804.
        6620    ...00075                 fort_cg_macros_:   4807.
        6622    ...00076                 fort_cg_macros_:   4810.
        6723    ...00077                 fort_cg_macros_:   4906.
        6725    ...00100                 fort_cg_macros_:   4909.
        6727    ...00101                 fort_cg_macros_:   4912.
        6731    ...00102                 fort_cg_macros_:   4915.
        6733    ...00103                 fort_cg_macros_:   4918.
        6736    ...00104                 fort_cg_macros_:   4921.
        6741    ...00105                 fort_cg_macros_:   4924.
        7131    ...00106                 fort_cg_macros_:   5100.
        7133    ...00107                 fort_cg_macros_:   5103.
        7135    ...00110                 fort_cg_macros_:   5106.
        7137    ...00111                 fort_cg_macros_:   5109.
        7141    ...00112                 fort_cg_macros_:   5112.
        7144    ...00113                 fort_cg_macros_:   5115.
        7147    ...00114                 fort_cg_macros_:   5118.
        7310    ...00115                 fort_cg_macros_:   5257.
        7312    ...00116                 fort_cg_macros_:   5260.
        7314    ...00117                 fort_cg_macros_:   5263.
        7316    ...00120                 fort_cg_macros_:   5266.
        7320    ...00121                 fort_cg_macros_:   5269.
        7323    ...00122                 fort_cg_macros_:   5272.
        7334    ...00123                 fort_cg_macros_:   5284.
        7473    ...00124                 fort_cg_macros_:   5422.
        7475    ...00125                 fort_cg_macros_:   5425.
        7477    ...00126                 fort_cg_macros_:   5428.
        7501    ...00127                 fort_cg_macros_:   5431.
        7503    ...00130                 fort_cg_macros_:   5434.
        7506    ...00131                 fort_cg_macros_:   5437.
        7517    ...00132                 fort_cg_macros_:   5449.
        7705    ...00133                 fort_cg_macros_:   5624.
        7707    ...00134                 fort_cg_macros_:   5627.
        7711    ...00135                 fort_cg_macros_:   5630.
        7713    ...00136                 fort_cg_macros_:   5633.
        7715    ...00137                 fort_cg_macros_:   5636.
        7720    ...00140                 fort_cg_macros_:   5639.
        7723    ...00141                 fort_cg_macros_:   5642.
       10113    ...00142                 fort_cg_macros_:   5817.
       10115    ...00143                 fort_cg_macros_:   5820.
       10117    ...00144                 fort_cg_macros_:   5823.
       10121    ...00145                 fort_cg_macros_:   5826.
       10123    ...00146                 fort_cg_macros_:   5829.
       10126    ...00147                 fort_cg_macros_:   5832.
       10131    ...00150                 fort_cg_macros_:   5835.
       10231    ...00151                 fort_cg_macros_:   5929.
       10233    ...00152                 fort_cg_macros_:   5932.
       10244    ...00153                 fort_cg_macros_:   5945.
       10246    ...00154                 fort_cg_macros_:   5948.
       10273    ...00155                 fort_cg_macros_:   5988.
       10315    ...00156                 fort_cg_macros_:   6019.
       10362    ...00157                 fort_cg_macros_:   6089.
       10364    ...00160                 fort_cg_macros_:   6090.
       10371    ...00161                 fort_cg_macros_:   6097.
       10517    ...00162                 fort_cg_macros_:   6242.
       10525    ...00163                 fort_cg_macros_:   6253.
       10530    ...00164                 fort_cg_macros_:   6255.
       10567    ...00165                 fort_cg_macros_:   6309.
       10570    ...00166                 fort_cg_macros_:   6311.
       10573    ...00167                 fort_cg_macros_:   6312.
       10576    ...00170                 fort_cg_macros_:   6316.
       10601    ...00171                 fort_cg_macros_:   6320.
       10603    ...00172                 fort_cg_macros_:   6322.
       10606    ...00173                 fort_cg_macros_:   6323.
       10614    ...00174                 fort_cg_macros_:   6333.
       10623    ...00175                 fort_cg_macros_:   6345.
       10631    ...00176                 fort_cg_macros_:   6354.
       10647    ...00177                 fort_cg_macros_:   6378.
       10717    ...00200                 fort_cg_macros_:   6458.
       10735    ...00201                 fort_cg_macros_:   6482.
       10737    ...00202                 fort_cg_macros_:   6483.
       11001    ...00203                 fort_cg_macros_:   6542.
       11020    ...00204                 fort_cg_macros_:   6570.
       11036    ...00205                 fort_cg_macros_:   6589.
       11053    ...00206                 fort_cg_macros_:   6612.
       11055    ...00207                 fort_cg_macros_:   6615.
       11300    ...00210                 fort_cg_macros_:   6847.
       11315    ...00211                 fort_cg_macros_:   6864.
       11332    ...00212                 fort_cg_macros_:   6882.
       11354    ...00213                 fort_cg_macros_:   6904.
       11357    ...00214                 fort_cg_macros_:   6908.
       11413    ...00215                 fort_cg_macros_:   6940.
       11416    ...00216                 fort_cg_macros_:   6944.
       11421    ...00217                 fort_cg_macros_:   6948.
       11441    ...00220                 fort_cg_macros_:   6985.
       11501    ...00221                 fort_cg_macros_:   7039.
       11503    ...00222                 fort_cg_macros_:   7043.
       11506    ...00223                 fort_cg_macros_:   7047.
       11511    ...00224                 fort_cg_macros_:   7051.
       11525    ...00225                 fort_cg_macros_:   7066.
       11544    ...00226                 fort_cg_macros_:   7096.
       11613    ...00227                 fort_cg_macros_:   7189.
       11616    ...00230                 fort_cg_macros_:   7194.
       11620    ...00231                 fort_cg_macros_:   7198.
       11623    ...00232                 fort_cg_macros_:   7202.
       11626    ...00233                 fort_cg_macros_:   7206.
       11652    ...00234                 fort_cg_macros_:   7235.
       11664    ...00235                 fort_cg_macros_:   7251.
       11675    ...00236                 fort_cg_macros_:   7265.
       11702    ...00237                 fort_cg_macros_:   7273.
       11740    ...00240                 fort_cg_macros_:   7323.
       11755    ...00241                 fort_cg_macros_:   7344.
       12050    ...00242                 fort_cg_macros_:   7430.
       12061    ...00243                 fort_cg_macros_:   7446.
       12063    ...00244                 fort_cg_macros_:   7447.
       12066    ...00245                 fort_cg_macros_:   7451.
       12102    ...00246                 fort_cg_macros_:   7472.
       12206    ...00247                 fort_cg_macros_:   7564.
       12214    ...00250                 fort_cg_macros_:   7571.
       12246    ...00251                 fort_cg_macros_:   7610.
       12302    ...00252                 fort_cg_macros_:   7646.
       12304    ...00253                 fort_cg_macros_:   7649.
       12310    ...00255                 fort_cg_macros_:   7654.
       12313    ...00256                 fort_cg_macros_:   7658.
       12374    ...00257                 fort_cg_macros_:   7746.
       12431    ...00260                 fort_cg_macros_:   7783.
       12451    ...00261                 fort_cg_macros_:   7823.
       12457    ...00262                 fort_cg_macros_:   7836.
       12540    ...00263                 fort_cg_macros_:   7913.
       12710    ...00264                 fort_cg_macros_:   8096.
       12720    ...00265                 fort_cg_macros_:   8122.
       12743    ...00266                 fort_cg_macros_:   8170.
       13052    ...00267                 fort_cg_macros_:   8215.
       13204    ...00270                 fort_cg_macros_:   8375.
       13220    ...00271                 fort_cg_macros_:   8392.
       13222    ...00272                 fort_cg_macros_:   8393.
       13226    ...00273                 fort_cg_macros_:   8397.
       13230    ...00274                 fort_cg_macros_:   8398.
       13350    ...00275                 fort_cg_macros_:   8547.
       13352    ...00276                 fort_cg_macros_:   8550.
       13356    ...00277                 fort_cg_macros_:   8580.
         472    .._00000                 fort_cg_macros_:    286.
         475    .._00001                 fort_cg_macros_:    289.
          24    .._00003                 fort_cg_macros_:    296.
           1    .._00004                 fort_cg_macros_:    383.
           7    .._00007                 fort_cg_macros_:    395.
           2    .._00010                 fort_cg_macros_:    425.
           1    .._00014                 fort_cg_macros_:    429.
           1    .._00017                 fort_cg_macros_:    433.
           6    .._00022                 fort_cg_macros_:    437.
          24    .._00023                 fort_cg_macros_:    458.
           1    .._00024                 fort_cg_macros_:    607.
           1    .._00027                 fort_cg_macros_:    610.
           7    .._00032                 fort_cg_macros_:    614.
          24    .._00033                 fort_cg_macros_:    622.
           1    .._00034                 fort_cg_macros_:    959.
           1    .._00037                 fort_cg_macros_:    962.
           7    .._00042                 fort_cg_macros_:    966.
          24    .._00043                 fort_cg_macros_:    975.
           7    .._00044                 fort_cg_macros_:   1134.
           1    .._00045                 fort_cg_macros_:   1147.
           1    .._00050                 fort_cg_macros_:   1150.
          24    .._00053                 fort_cg_macros_:   1154.
           7    .._00054                 fort_cg_macros_:   1349.
           1    .._00055                 fort_cg_macros_:   1358.
           1    .._00060                 fort_cg_macros_:   1361.
          24    .._00063                 fort_cg_macros_:   1444.
           1    .._00064                 fort_cg_macros_:   1659.
           1    .._00067                 fort_cg_macros_:   1662.
           1    .._00072                 fort_cg_macros_:   1671.
        2502    .._00075                 fort_cg_macros_:   1780.
        2536    .._00076                 fort_cg_macros_:   1829.
        2621    .._00077                 fort_cg_macros_:   1908.
        2665    .._00100                 fort_cg_macros_:   1960.
          24    .._00101                 fort_cg_macros_:   1980.
           1    .._00102                 fort_cg_macros_:   2024.
           1    .._00105                 fort_cg_macros_:   2034.
           1    .._00110                 fort_cg_macros_:   2041.
           1    .._00113                 fort_cg_macros_:   2048.
           1    .._00116                 fort_cg_macros_:   2052.
           1    .._00121                 fort_cg_macros_:   2056.
         135    .._00124                 fort_cg_macros_:   2066.
           1    .._00125                 fort_cg_macros_:   2071.
        3060    .._00130                 fort_cg_macros_:   2077.
         135    .._00131                 fort_cg_macros_:   2079.
         135    .._00132                 fort_cg_macros_:   2100.
         135    .._00133                 fort_cg_macros_:   2103.
        3313    .._00134                 fort_cg_macros_:   2107.
        3320    .._00135                 fort_cg_macros_:   2116.
        3325    .._00136                 fort_cg_macros_:   2121.
        3331    .._00137                 fort_cg_macros_:   2126.
        3335    .._00140                 fort_cg_macros_:   2131.
        3341    .._00141                 fort_cg_macros_:   2136.
        3345    .._00142                 fort_cg_macros_:   2141.
        3351    .._00143                 fort_cg_macros_:   2146.
        3355    .._00144                 fort_cg_macros_:   2151.
        3361    .._00145                 fort_cg_macros_:   2156.
        3405    .._00146                 fort_cg_macros_:   2187.
           1    .._00150                 fort_cg_macros_:   2192.
           2    .._00154                 fort_cg_macros_:   2197.
           1    .._00160                 fort_cg_macros_:   2202.
          24    .._00163                 fort_cg_macros_:   2393.
          24    .._00164                 fort_cg_macros_:   2551.
          24    .._00165                 fort_cg_macros_:   2746.
          24    .._00166                 fort_cg_macros_:   3093.
          24    .._00167                 fort_cg_macros_:   3440.
          24    .._00170                 fort_cg_macros_:   3545.
           7    .._00171                 fort_cg_macros_:   3864.
           7    .._00172                 fort_cg_macros_:   3903.
           7    .._00173                 fort_cg_macros_:   3942.
           7    .._00174                 fort_cg_macros_:   3981.
           7    .._00175                 fort_cg_macros_:   4020.
           7    .._00176                 fort_cg_macros_:   4047.
           7    .._00177                 fort_cg_macros_:   4074.
           7    .._00200                 fort_cg_macros_:   4103.
           7    .._00201                 fort_cg_macros_:   4149.
           1    .._00202                 fort_cg_macros_:   4173.
           7    .._00205                 fort_cg_macros_:   4176.
          24    .._00206                 fort_cg_macros_:   4208.
           1    .._00207                 fort_cg_macros_:   4284.
        6103    .._00212                 fort_cg_macros_:   4301.
        6114    .._00213                 fort_cg_macros_:   4311.
           7    .._00214                 fort_cg_macros_:   4690.
           7    .._00215                 fort_cg_macros_:   4693.
           7    .._00216                 fort_cg_macros_:   4702.
           7    .._00217                 fort_cg_macros_:   4705.
           7    .._00220                 fort_cg_macros_:   4714.
           7    .._00221                 fort_cg_macros_:   4717.
           7    .._00222                 fort_cg_macros_:   4726.
           7    .._00223                 fort_cg_macros_:   4729.
           2    .._00224                 fort_cg_macros_:   4772.
           2    .._00230                 fort_cg_macros_:   4776.
           2    .._00234                 fort_cg_macros_:   4780.
           2    .._00240                 fort_cg_macros_:   4784.
           2    .._00244                 fort_cg_macros_:   4788.
           2    .._00250                 fort_cg_macros_:   4791.
           1    .._00254                 fort_cg_macros_:   4795.
           1    .._00257                 fort_cg_macros_:   4798.
           1    .._00262                 fort_cg_macros_:   4801.
           1    .._00265                 fort_cg_macros_:   4804.
           1    .._00270                 fort_cg_macros_:   4807.
           1    .._00273                 fort_cg_macros_:   4810.
          24    .._00276                 fort_cg_macros_:   4818.
           1    .._00277                 fort_cg_macros_:   4906.
           1    .._00302                 fort_cg_macros_:   4909.
           1    .._00305                 fort_cg_macros_:   4912.
           1    .._00310                 fort_cg_macros_:   4915.
           2    .._00313                 fort_cg_macros_:   4918.
           2    .._00317                 fort_cg_macros_:   4921.
           2    .._00323                 fort_cg_macros_:   4924.
           7    .._00327                 fort_cg_macros_:   4928.
           7    .._00330                 fort_cg_macros_:   4973.
           7    .._00331                 fort_cg_macros_:   4994.
          24    .._00332                 fort_cg_macros_:   5012.
           1    .._00333                 fort_cg_macros_:   5100.
           1    .._00336                 fort_cg_macros_:   5103.
           1    .._00341                 fort_cg_macros_:   5106.
           1    .._00344                 fort_cg_macros_:   5109.
           2    .._00347                 fort_cg_macros_:   5112.
           2    .._00353                 fort_cg_macros_:   5115.
           2    .._00357                 fort_cg_macros_:   5118.
           7    .._00363                 fort_cg_macros_:   5122.
           7    .._00364                 fort_cg_macros_:   5167.
           7    .._00365                 fort_cg_macros_:   5188.
          24    .._00366                 fort_cg_macros_:   5206.
           1    .._00367                 fort_cg_macros_:   5257.
           1    .._00372                 fort_cg_macros_:   5260.
           1    .._00375                 fort_cg_macros_:   5263.
           1    .._00400                 fort_cg_macros_:   5266.
           2    .._00403                 fort_cg_macros_:   5269.
           2    .._00407                 fort_cg_macros_:   5272.
           1    .._00413                 fort_cg_macros_:   5284.
           7    .._00416                 fort_cg_macros_:   5292.
           7    .._00417                 fort_cg_macros_:   5337.
           7    .._00420                 fort_cg_macros_:   5358.
          24    .._00421                 fort_cg_macros_:   5371.
           1    .._00422                 fort_cg_macros_:   5422.
           1    .._00425                 fort_cg_macros_:   5425.
           1    .._00430                 fort_cg_macros_:   5428.
           1    .._00433                 fort_cg_macros_:   5431.
           2    .._00436                 fort_cg_macros_:   5434.
           2    .._00442                 fort_cg_macros_:   5437.
           1    .._00446                 fort_cg_macros_:   5449.
           7    .._00451                 fort_cg_macros_:   5457.
           7    .._00452                 fort_cg_macros_:   5502.
           7    .._00453                 fort_cg_macros_:   5524.
          24    .._00454                 fort_cg_macros_:   5536.
           1    .._00455                 fort_cg_macros_:   5624.
           1    .._00460                 fort_cg_macros_:   5627.
           1    .._00463                 fort_cg_macros_:   5630.
           1    .._00466                 fort_cg_macros_:   5633.
           2    .._00471                 fort_cg_macros_:   5636.
           2    .._00475                 fort_cg_macros_:   5639.
           2    .._00501                 fort_cg_macros_:   5642.
           7    .._00505                 fort_cg_macros_:   5646.
           7    .._00506                 fort_cg_macros_:   5691.
           7    .._00507                 fort_cg_macros_:   5712.
          24    .._00510                 fort_cg_macros_:   5729.
           1    .._00511                 fort_cg_macros_:   5817.
           1    .._00514                 fort_cg_macros_:   5820.
           1    .._00517                 fort_cg_macros_:   5823.
           1    .._00522                 fort_cg_macros_:   5826.
           2    .._00525                 fort_cg_macros_:   5829.
           2    .._00531                 fort_cg_macros_:   5832.
           2    .._00535                 fort_cg_macros_:   5835.
           7    .._00541                 fort_cg_macros_:   5839.
           7    .._00542                 fort_cg_macros_:   5884.
           7    .._00543                 fort_cg_macros_:   5905.
           1    .._00544                 fort_cg_macros_:   5929.
           1    .._00547                 fort_cg_macros_:   5932.
           1    .._00552                 fort_cg_macros_:   5945.
           1    .._00555                 fort_cg_macros_:   5948.
          10    .._00560                 fort_cg_macros_:   5961.
           1    .._00561                 fort_cg_macros_:   5988.
           1    .._00564                 fort_cg_macros_:   6019.
          10    .._00567                 fort_cg_macros_:   6054.
           1    .._00570                 fort_cg_macros_:   6089.
       10366    .._00573                 fort_cg_macros_:   6090.
       10373    .._00574                 fort_cg_macros_:   6097.
           1    .._00575                 fort_cg_macros_:   6242.
       10530    .._00600                 fort_cg_macros_:   6253.
       10532    .._00601                 fort_cg_macros_:   6255.
           0    .._00602                 fort_cg_macros_:   6309.
       10573    .._00604                 fort_cg_macros_:   6311.
       10575    .._00605                 fort_cg_macros_:   6312.
           1    .._00606                 fort_cg_macros_:   6316.
           1    .._00611                 fort_cg_macros_:   6320.
       10606    .._00614                 fort_cg_macros_:   6322.
       10610    .._00615                 fort_cg_macros_:   6323.
           1    .._00616                 fort_cg_macros_:   6333.
           1    .._00621                 fort_cg_macros_:   6345.
           1    .._00624                 fort_cg_macros_:   6354.
           1    .._00627                 fort_cg_macros_:   6378.
          10    .._00632                 fort_cg_macros_:   6409.
       10722    .._00633                 fort_cg_macros_:   6458.
           1    .._00634                 fort_cg_macros_:   6482.
       10742    .._00637                 fort_cg_macros_:   6483.
          10    .._00640                 fort_cg_macros_:   6507.
           1    .._00641                 fort_cg_macros_:   6542.
           1    .._00644                 fort_cg_macros_:   6570.
           1    .._00647                 fort_cg_macros_:   6589.
           1    .._00652                 fort_cg_macros_:   6612.
           1    .._00655                 fort_cg_macros_:   6615.
           7    .._00660                 fort_cg_macros_:   6653.
           7    .._00661                 fort_cg_macros_:   6697.
           7    .._00662                 fort_cg_macros_:   6770.
           1    .._00663                 fort_cg_macros_:   6847.
           1    .._00666                 fort_cg_macros_:   6864.
           1    .._00671                 fort_cg_macros_:   6882.
           1    .._00674                 fort_cg_macros_:   6904.
           1    .._00677                 fort_cg_macros_:   6908.
           1    .._00702                 fort_cg_macros_:   6940.
           1    .._00705                 fort_cg_macros_:   6944.
           1    .._00710                 fort_cg_macros_:   6948.
       11444    .._00713                 fort_cg_macros_:   6985.
          16    .._00714                 fort_cg_macros_:   6993.
           0    .._00715                 fort_cg_macros_:   7039.
           1    .._00717                 fort_cg_macros_:   7043.
           1    .._00722                 fort_cg_macros_:   7047.
           1    .._00725                 fort_cg_macros_:   7051.
           1    .._00730                 fort_cg_macros_:   7066.
       11547    .._00733                 fort_cg_macros_:   7096.
          32    .._00734                 fort_cg_macros_:   7102.
           1    .._00735                 fort_cg_macros_:   7189.
           0    .._00740                 fort_cg_macros_:   7194.
           1    .._00742                 fort_cg_macros_:   7198.
           1    .._00745                 fort_cg_macros_:   7202.
           1    .._00750                 fort_cg_macros_:   7206.
           1    .._00753                 fort_cg_macros_:   7235.
           1    .._00756                 fort_cg_macros_:   7251.
           1    .._00761                 fort_cg_macros_:   7265.
           1    .._00764                 fort_cg_macros_:   7273.
           0    .._00767                 fort_cg_macros_:   7323.
       11757    .._00771                 fort_cg_macros_:   7344.
          24    .._00772                 fort_cg_macros_:   7348.
           1    .._00773                 fort_cg_macros_:   7430.
           1    .._00776                 fort_cg_macros_:   7446.
       12065    .._01001                 fort_cg_macros_:   7447.
           1    .._01002                 fort_cg_macros_:   7451.
       12104    .._01005                 fort_cg_macros_:   7472.
          24    .._01006                 fort_cg_macros_:   7474.
           2    .._01007                 fort_cg_macros_:   7564.
           2    .._01013                 fort_cg_macros_:   7571.
       12251    .._01017                 fort_cg_macros_:   7610.
           7    .._01020                 fort_cg_macros_:   7612.
           1    .._01021                 fort_cg_macros_:   7646.
       12307    .._01024                 fort_cg_macros_:   7649.
           1    .._01026                 fort_cg_macros_:   7654.
           1    .._01031                 fort_cg_macros_:   7658.
       12377    .._01034                 fort_cg_macros_:   7746.
           2    .._01035                 fort_cg_macros_:   7783.
           1    .._01041                 fort_cg_macros_:   7823.
           2    .._01044                 fort_cg_macros_:   7836.
           7    .._01050                 fort_cg_macros_:   7872.
           1    .._01051                 fort_cg_macros_:   7913.
       12713    .._01054                 fort_cg_macros_:   8096.
           1    .._01055                 fort_cg_macros_:   8122.
       12746    .._01060                 fort_cg_macros_:   8170.
         135    .._01061                 fort_cg_macros_:   8202.
           1    .._01062                 fort_cg_macros_:   8215.
       13207    .._01065                 fort_cg_macros_:   8375.
           1    .._01066                 fort_cg_macros_:   8392.
       13225    .._01071                 fort_cg_macros_:   8393.
           1    .._01072                 fort_cg_macros_:   8397.
       13233    .._01075                 fort_cg_macros_:   8398.
           1    .._01076                 fort_cg_macros_:   8547.
           0    .._01101                 fort_cg_macros_:   8550.
           0    .._01103                 fort_cg_macros_:   8580.
           0    .text.                   fort_cg_macros_:    185.
        1000    a                        fort_cg_macros_:    390,  391,  403,  404, 1263, 1620, 1633, 4940, 4980, 5134, 5174,
                                                            5287, 5304, 5344, 5452, 5469, 5509, 5658, 5698, 5851, 5891, 5924,
                                                            5926, 5940, 5942, 5956, 5958, 5998, 6012, 6040, 6043, 6400, 6401,
                                                            6498, 6499, 7028, 7379, 7404, 7426, 7580, 7641,
                                         fort_equs:     74.
         472    abort_list               fort_cg_macros_:    182,  288, 7040, 7044, 7048, 7052, 7190, 7195, 7199, 7203, 7207,
                                                            8096, 8170.
        3401    abort_list_op            fort_cg_macros_:   2059, 2183.
        3420    abs                      fort_cg_macros_:   2100, 2206.
        3432    abs.1                    fort_cg_macros_:   2208, 2221.
        6176    acos                     fort_cg_macros_:   2100, 4395.
        6202    acos.1                   fort_cg_macros_:   4397, 4401.
        6205    acos.2                   fort_cg_macros_:   4403, 4408.
        6224    acos.p                   fort_cg_macros_:   4399, 4428.
        1305    acos_                    fort_cg_macros_:   4412,
                                         fort_equs:    238.
        6204    acos_i                   fort_cg_macros_:   4396, 4405.
         660    add                      fort_cg_macros_:    456,
                                         fort_operator_table:       18.
         774    add_cc                   fort_cg_macros_:    458,  571.
        1002    add_cc.01                fort_cg_macros_:    580,  600.
        1010    add_cc.1                 fort_cg_macros_:    574,  588.
        1011    add_cc.11                fort_cg_macros_:    590,  604.
        1017    add_cc.2                 fort_cg_macros_:    575,  598.
        1021    add_cc.3                 fort_cg_macros_:    576,  602.
         753    add_cd                   fort_cg_macros_:    458,  545.
         764    add_cd.1                 fort_cg_macros_:    548,  558.
         765    add_cd.11                fort_cg_macros_:    560,  569.
         772    add_cd.2                 fort_cg_macros_:    549,  567.
         725    add_ci                   fort_cg_macros_:    458,  508.
         731    add_cr                   fort_cg_macros_:    458,  516.
         742    add_cr.1                 fort_cg_macros_:    511,  519,  529.
         743    add_cr.11                fort_cg_macros_:    531,  540.
         750    add_cr.2                 fort_cg_macros_:    520,  538.
         752    add_dc                   fort_cg_macros_:    458,  542.
         712    add_dd                   fort_cg_macros_:    458,  486.
         704    add_di                   fort_cg_macros_:    458,  476.
         716    add_dr                   fort_cg_macros_:    458,  494.
         722    add_dr.1                 fort_cg_macros_:    495,  501.
        1023    add_e1                   fort_cg_macros_:    458,  606,  614.
        1025    add_e2                   fort_cg_macros_:    458,  609.
         724    add_ic                   fort_cg_macros_:    458,  505.
         703    add_id                   fort_cg_macros_:    458,  473.
         674    add_ii                   fort_cg_macros_:    458,  460.
         677    add_ir                   fort_cg_macros_:    458,  465.
         730    add_rc                   fort_cg_macros_:    458,  513.
         715    add_rd                   fort_cg_macros_:    458,  491.
         700    add_ri                   fort_cg_macros_:    458,  468.
         707    add_rr                   fort_cg_macros_:    458,  481.
        1027    add_tl                   fort_cg_macros_:    458,  612.
        1035    add_tl.1                 fort_cg_macros_:    614,  616.
        5711    aimag                    fort_cg_macros_:   2100, 4139.
        5714    aimag.p                  fort_cg_macros_:   4140, 4145.
        5603    aint                     fort_cg_macros_:   2100, 4019.
        5615    aint.dp                  fort_cg_macros_:   4020, 4031, 4039.
        5610    aint.int                 fort_cg_macros_:   4020, 4022.
        5622    aint.p                   fort_cg_macros_:   4020, 4042.
        5612    aint.real                fort_cg_macros_:   4020, 4026.
      777760    all                      fort_cg_macros_:   7606, 8005, 8266, 8319,
                                         fort_equs:    124.
         110    all_ones                 fort_cg_macros_:   2217,
                                         fort_equs:    177.
         242    almost_one               fort_equs:    280.
        3462    alog                     fort_cg_macros_:   2100, 2259.
        3466    alog.1                   fort_cg_macros_:   2261, 2265.
        3471    alog.2                   fort_cg_macros_:   2267, 2272.
        3525    alog10                   fort_cg_macros_:   2100, 2312.
        3531    alog10.1                 fort_cg_macros_:   2314, 2318.
        3534    alog10.2                 fort_cg_macros_:   2320, 2325.
        3554    alog10.p                 fort_cg_macros_:   2316, 2346.
        1313    alog10_                  fort_cg_macros_:   2330,
                                         fort_equs:    211.
        3533    alog10_i                 fort_cg_macros_:   2313, 2322.
        3470    alog_i                   fort_cg_macros_:   2260, 2269.
        4341    amax0                    fort_cg_macros_:   2100, 2935.
        4351    amax0.loop               fort_cg_macros_:   2946, 2958.
        4365    amax0.p                  fort_cg_macros_:   2938, 2940, 2957, 2964.
        4363    amax0.r                  fort_cg_macros_:   2952, 2960.
        4366    amax1                    fort_cg_macros_:   2100, 2967.
        4375    amax1.loop               fort_cg_macros_:   2977, 2989.
        4410    amax1.p                  fort_cg_macros_:   2970, 2972, 2988, 2994.
        4407    amax1.r                  fort_cg_macros_:   2983, 2991.
        4670    amin0                    fort_cg_macros_:   2100, 3282.
        4700    amin0.loop               fort_cg_macros_:   3293, 3305.
        4714    amin0.p                  fort_cg_macros_:   3285, 3287, 3304, 3311.
        4712    amin0.r                  fort_cg_macros_:   3299, 3307.
        4715    amin1                    fort_cg_macros_:   2100, 3314.
        4725    amin1.loop               fort_cg_macros_:   3325, 3337.
        4740    amin1.p                  fort_cg_macros_:   3317, 3319, 3336, 3342.
        4737    amin1.r                  fort_cg_macros_:   3331, 3339.
        5105    amod                     fort_cg_macros_:   2100, 3508.
        5111    amod.1                   fort_cg_macros_:   3447, 3451, 3462, 3514.
        5132    amod.p                   fort_cg_macros_:   3510, 3512, 3540.
       10235    and                      fort_cg_macros_:   5934,
                                         fort_operator_table:       31.
        6421    and.tl                   fort_cg_macros_:   2100, 4658.
        6424    and.tl.loop              fort_cg_macros_:   4663, 4670.
        6433    and.tl.r                 fort_cg_macros_:   4666, 4672.
       10244    and_e1                   fort_cg_macros_:   5938, 5944.
       10246    and_e2                   fort_cg_macros_:   5936, 5947.
        5623    anint                    fort_cg_macros_:   2100, 4046.
        5635    anint.dp                 fort_cg_macros_:   4047, 4058, 4066.
        5630    anint.int                fort_cg_macros_:   4047, 4049.
        5642    anint.p                  fort_cg_macros_:   4047, 4069.
        5632    anint.real               fort_cg_macros_:   4047, 4053.
        1400    aq                       fort_cg_macros_:    376,  377,  411,  412, 1124, 1129, 1271, 1340, 1345, 1582, 1607,
                                                            1644, 1649, 1656, 2138, 2240, 2296, 2534, 2728, 3801, 3850, 4193,
                                                            4194, 4953, 4988, 5147, 5182, 5275, 5317, 5352, 5440, 5482, 5517,
                                                            5671, 5706, 5864, 5899, 7417, 7559, 7635, 8227,
                                         fort_equs:     75.
       40000    arg1                     fort_cg_macros_:    201,  207,  210,  227,  231,  234,  253,  269,  275,  300,  305,
                                                             310,  315,  320,  325,  330,  335,  340,  345,  354,  360,  363,
                                                             368,  377,  386,  390,  395,  420,  425,  433,  437,  444,  448,
                                                             450,  462,  466,  470,  474,  478,  483,  488,  492,  497,  502,
                                                             506,  514,  520,  522,  524,  530,  534,  543,  549,  551,  553,
                                                             559,  563,  576,  578,  583,  589,  593,  599,  607,  614,  617,
                                                             625,  630,  633,  644,  652,  660,  664,  667,  678,  686,  694,
                                                             701,  708,  715,  722,  729,  736,  743,  750,  756,  760,  761,
                                                             768,  769,  796,  803,  822,  830,  832,  834,  843,  847,  859,
                                                             866,  885,  893,  895,  897,  906,  910,  924,  926,  931,  939,
                                                             943,  951,  959,  966,  967,  980,  989,  993,  997, 1001, 1006,
                                                            1011, 1015, 1020, 1025, 1029, 1058, 1064, 1066, 1070, 1077, 1081,
                                                            1091, 1097, 1099, 1103, 1110, 1114, 1124, 1134, 1138, 1147, 1158,
                                                            1163, 1166, 1171, 1175, 1178, 1183, 1189, 1194, 1200, 1205, 1209,
                                                            1215, 1219, 1223, 1224, 1233, 1263, 1277, 1279, 1284, 1291, 1298,
                                                            1304, 1306, 1313, 1315, 1320, 1327, 1334, 1340, 1349, 1350, 1358,
                                                            1449, 1460, 1464, 1465, 1473, 1479, 1490, 1494, 1495, 1503, 1509,
                                                            1521, 1534, 1546, 1552, 1563, 1567, 1569, 1581, 1582, 1612, 1614,
                                                            1620, 1638, 1649, 1659, 1721, 1726, 1730, 1736, 1743, 1757, 1785,
                                                            1833, 1843, 1854, 1864, 1874, 1888, 1912, 1915, 1926, 1940, 1964,
                                                            1967, 1983, 1986, 1992, 1998, 2004, 2010, 2013, 2016, 2020, 2027,
                                                            2037, 2044, 2052, 2065, 2071, 2192, 2197, 4173, 4284, 4772, 4776,
                                                            4780, 4784, 4788, 4791, 4823, 4828, 4832, 4835, 4840, 4844, 4847,
                                                            4852, 4858, 4865, 4871, 4878, 4884, 4890, 4896, 4902, 4909, 4915,
                                                            4918, 4921, 4924, 4928, 4935, 4938, 4941, 4948, 4951, 4954, 4962,
                                                            4970, 4981, 4989, 4999, 5004, 5017, 5022, 5026, 5029, 5034, 5038,
                                                            5041, 5046, 5052, 5059, 5065, 5072, 5078, 5084, 5090, 5096, 5103,
                                                            5109, 5112, 5115, 5118, 5122, 5129, 5132, 5134, 5142, 5145, 5147,
                                                            5157, 5164, 5174, 5182, 5193, 5198, 5210, 5214, 5218, 5222, 5226,
                                                            5232, 5238, 5242, 5247, 5253, 5260, 5266, 5269, 5272, 5276, 5281,
                                                            5288, 5292, 5299, 5302, 5305, 5312, 5315, 5318, 5326, 5334, 5345,
                                                            5353, 5362, 5375, 5379, 5383, 5387, 5391, 5397, 5403, 5407, 5412,
                                                            5418, 5425, 5431, 5434, 5437, 5441, 5446, 5453, 5457, 5464, 5467,
                                                            5470, 5477, 5480, 5483, 5491, 5499, 5510, 5518, 5528, 5541, 5546,
                                                            5550, 5553, 5558, 5562, 5565, 5570, 5576, 5583, 5589, 5596, 5602,
                                                            5608, 5614, 5620, 5627, 5633, 5636, 5639, 5642, 5646, 5653, 5656,
                                                            5659, 5666, 5669, 5672, 5680, 5688, 5699, 5707, 5717, 5722, 5734,
                                                            5739, 5743, 5746, 5751, 5755, 5758, 5763, 5769, 5776, 5782, 5789,
                                                            5795, 5801, 5807, 5813, 5820, 5826, 5829, 5832, 5835, 5839, 5846,
                                                            5849, 5851, 5859, 5862, 5864, 5874, 5881, 5891, 5899, 5910, 5915,
                                                            5921, 5925, 5929, 5937, 5941, 5945, 5993, 5999, 6007, 6013, 6026,
                                                            6038, 6040, 6094, 6105, 6113, 6115, 6120, 6125, 6126, 6131, 6137,
                                                            6141, 6143, 6148, 6155, 6159, 6164, 6188, 6191, 6196, 6200, 6203,
                                                            6207, 6210, 6217, 6220, 6228, 6237, 6247, 6249, 6287, 6316, 6339,
                                                            6357, 6363, 6364, 6373, 6374, 6384, 6386, 6398, 6400, 6448, 6450,
                                                            6462, 6478, 6503, 6510, 6514, 6518, 6522, 6526, 6530, 6534, 6538,
                                                            6556, 6560, 6561, 6575, 6579, 6580, 6605, 6612, 6615, 6618, 6619,
                                                            6629, 6640, 6651, 6677, 6695, 6746, 6753, 6765, 6768, 6835, 6839,
                                                            6852, 6856, 6870, 6874, 6888, 6890, 6892, 6913, 6915, 6932, 7034,
                                                            7055, 7213, 7226, 7235, 7244, 7259, 7265, 7273, 7276, 7285, 7298,
                                                            7301, 7306, 7309, 7315, 7338, 7346, 7430, 7439, 7446, 7451, 7461,
                                                            7564, 7571, 7600, 7603, 7612, 7646, 7654, 7658, 7700, 7703, 7722,
                                                            7725, 7783, 7802, 7804, 7836, 7872, 7875, 7913, 7956, 7963, 8014,
                                                            8063, 8064, 8077, 8116, 8117, 8122, 8146, 8200, 8215, 8220, 8236,
                                                            8242, 8248, 8264, 8268, 8270, 8280, 8311, 8317, 8321, 8334, 8341,
                                                            8364, 8421, 8439, 8449, 8459, 8460, 8469, 8470, 8481, 8482, 8493,
                                                            8494, 8503, 8504, 8511, 8521, 8523, 8530,
                                         fort_equs:     30.
      100000    arg2                     fort_cg_macros_:    208,  214,  254,  270,  274,  299,  324,  329,  334,  339,  353,
                                                             358,  367,  372,  376,  391,  419,  440,  449,  495,  498,  519,
                                                             525,  539,  548,  554,  568,  574,  575,  579,  584,  594,  603,
                                                             610,  626,  637,  642,  649,  671,  676,  683,  699,  702,  713,
                                                             716,  727,  730,  741,  744,  775,  779,  781,  788,  789,  797,
                                                             799,  804,  809,  813,  829,  835,  852,  860,  862,  867,  872,
                                                             876,  892,  898,  915,  922,  923,  927,  932,  944,  955,  962,
                                                             970, 1018, 1021, 1034, 1038, 1041, 1045, 1046, 1053, 1054, 1063,
                                                            1067, 1071, 1080, 1087, 1096, 1100, 1104, 1113, 1120, 1125, 1150,
                                                            1159, 1187, 1190, 1198, 1201, 1210, 1214, 1239, 1243, 1246, 1250,
                                                            1251, 1258, 1259, 1266, 1276, 1281, 1285, 1295, 1299, 1312, 1317,
                                                            1321, 1331, 1335, 1341, 1354, 1361, 1450, 1480, 1510, 1523, 1536,
                                                            1553, 1590, 1594, 1595, 1606, 1607, 1633, 1651, 1662, 1720, 1723,
                                                            1756, 1766, 1815, 1887, 1893, 1939, 1945, 2069, 2076, 2097, 2745,
                                                            2838, 2840, 2842, 2879, 2881, 2883, 2925, 2927, 2929, 2936, 2952,
                                                            2954, 2956, 2968, 2983, 2985, 2987, 2998, 3013, 3015, 3017, 3028,
                                                            3045, 3047, 3049, 3061, 3077, 3079, 3081, 3092, 3185, 3187, 3189,
                                                            3226, 3228, 3230, 3272, 3274, 3276, 3283, 3299, 3301, 3303, 3315,
                                                            3331, 3333, 3335, 3346, 3361, 3363, 3365, 3376, 3393, 3395, 3397,
                                                            3409, 3425, 3427, 3429, 4171, 4172, 4659, 4666, 4667, 4669, 4738,
                                                            4745, 4746, 4748, 4755, 4762, 4763, 4765, 4821, 4824, 4856, 4860,
                                                            4869, 4873, 4882, 4885, 4894, 4898, 4906, 4912, 4918, 4921, 4924,
                                                            4940, 4953, 4963, 4973, 4978, 4980, 4986, 4988, 4997, 5000, 5015,
                                                            5018, 5050, 5054, 5063, 5067, 5076, 5079, 5088, 5092, 5100, 5106,
                                                            5112, 5115, 5118, 5135, 5148, 5156, 5167, 5172, 5175, 5180, 5183,
                                                            5191, 5194, 5245, 5249, 5257, 5263, 5269, 5272, 5327, 5337, 5342,
                                                            5350, 5410, 5414, 5422, 5428, 5434, 5437, 5492, 5502, 5507, 5515,
                                                            5539, 5542, 5574, 5578, 5587, 5591, 5600, 5603, 5612, 5616, 5624,
                                                            5630, 5636, 5639, 5642, 5658, 5671, 5681, 5691, 5696, 5698, 5704,
                                                            5706, 5715, 5718, 5732, 5735, 5767, 5771, 5780, 5784, 5793, 5796,
                                                            5805, 5809, 5817, 5823, 5829, 5832, 5835, 5852, 5865, 5873, 5884,
                                                            5889, 5892, 5897, 5900, 5908, 5911, 5932, 5948, 6163, 6178, 6181,
                                                            6186, 6201, 6205, 6211, 6229, 6236, 6299, 6301, 6302, 6362, 6372,
                                                            6460, 6461, 6467, 6496, 6498, 6562, 6581, 6766, 6819, 6838, 6855,
                                                            6873, 6894, 6916, 6919, 6923, 6925, 7058, 7088, 7299, 7303, 7456,
                                                            7597, 7601, 7808, 7810, 7904, 7971, 8234, 8261, 8262, 8303, 8305,
                                                            8343, 8350, 8367, 8440, 8450, 8467, 8479, 8492, 8538,
                                         fort_equs:     31.
      140000    arg3                     fort_cg_macros_:    215,  220,  276, 1725, 1728, 1765, 1802, 1811, 1816, 1845, 1855,
                                                            1866, 1892, 1944, 2066, 2079, 2100, 2103, 6168, 6171, 6176, 6198,
                                                            6208, 6212, 6218, 6221, 6226, 6234, 6286, 6288, 6305, 6465, 6468,
                                                            6474, 6927, 6972, 7091, 7342, 7436, 7465, 7467, 7470, 7596, 8352,
                                                            8359,
                                         fort_equs:     32.
      200000    arg4                     fort_cg_macros_:   1744, 1754, 1761, 1763, 1767, 1784, 1798, 1818, 1837, 1840, 1842,
                                                            1863, 1875, 1885, 1894, 1914, 1927, 1937, 1946, 1966, 2068, 6160,
                                                            6172, 6182, 6192, 6405, 6412, 6416, 6420, 6424, 6428, 6432, 6436,
                                                            6440, 6977,
                                         fort_equs:     33.
      240000    arg5                     fort_cg_macros_:   1778, 1791, 1827, 1846, 1856, 1867, 1906, 1919, 1958, 1971, 2215,
                                                            2222, 2231, 2240, 2266, 2284, 2296, 2319, 2337, 2359, 2377, 2422,
                                                            2465, 2476, 2478, 2482, 2504, 2522, 2534, 2554, 2556, 2562, 2564,
                                                            2569, 2629, 2631, 2638, 2642, 2644, 2648, 2650, 2657, 2661, 2663,
                                                            2670, 2674, 2676, 2682, 2696, 2715, 2728, 3501, 3509, 3511, 3515,
                                                            3522, 3524, 3528, 3537, 3548, 3550, 3555, 3617, 3623, 3625, 3630,
                                                            3638, 3772, 3789, 3801, 3821, 3838, 3850, 3864, 3871, 3883, 3903,
                                                            3910, 3922, 3942, 3949, 3961, 3981, 3984, 4000, 4020, 4027, 4032,
                                                            4047, 4054, 4059, 4074, 4077, 4081, 4087, 4103, 4110, 4114, 4120,
                                                            4142, 4149, 4156, 4160, 4164, 4176, 4183, 4187, 4193, 4213, 4215,
                                                            4228, 4230, 4237, 4245, 4252, 4266, 4292, 4294, 4296, 4308, 4324,
                                                            4341, 4363, 4380, 4402, 4419, 4647, 4649, 4676, 4682, 4690, 4696,
                                                            4702, 4708, 4714, 4720, 4726, 4732, 4780, 6173, 6183, 6193,
                                         fort_equs:     34.
      300000    arg6                     fort_cg_macros_:   1774, 1793, 1819, 1823, 1848, 1858, 1869, 1902, 1921, 1954, 1973,
                                                            2426, 2431, 2433, 2469, 2486, 2564, 2565, 2567, 2631, 2633, 2635,
                                                            2650, 2652, 2654, 2663, 2665, 2667, 2676, 2677, 2679, 3503, 3516,
                                                            3531, 3554, 3616, 3629, 3637, 4212, 4217, 4219, 4224, 4226, 4236,
                                                            4239, 4251, 4256, 4693, 4697, 4705, 4709, 4717, 4721, 4729, 4733,
                                                            4784,
                                         fort_equs:     35.
      340000    arg7                     fort_cg_macros_:   1771, 1790, 1899, 1918, 1951, 1970,
                                         fort_equs:     36.
      100000    array_ref                fort_cg_macros_:   4936, 4949, 4968, 5130, 5143, 5162, 5300, 5313, 5332, 5465, 5478,
                                                            5497, 5654, 5667, 5686, 5847, 5860, 5879,
                                         fort_equs:     96.
        6146    asin                     fort_cg_macros_:   2100, 4356.
        6152    asin.1                   fort_cg_macros_:   4358, 4362.
        6155    asin.2                   fort_cg_macros_:   4364, 4369.
        6174    asin.p                   fort_cg_macros_:   4360, 4389.
        1303    asin_                    fort_cg_macros_:   4373,
                                         fort_equs:    236.
        6154    asin_i                   fort_cg_macros_:   4357, 4366.
         476    assign                   fort_cg_macros_:    294,
                                         fort_operator_table:       17.
         570    assign_cc                fort_cg_macros_:    296,  375.
         566    assign_cd                fort_cg_macros_:    296,  371.
         616    assign_ch                fort_cg_macros_:    395,  408.
         550    assign_ci                fort_cg_macros_:    296,  348.
         555    assign_cr                fort_cg_macros_:    296,  357.
         556    assign_cr.01             fort_cg_macros_:    350,  359,  373.
         563    assign_dc                fort_cg_macros_:    296,  366.
         534    assign_dd                fort_cg_macros_:    296,  328.
         616    assign_dh                fort_cg_macros_:    395,  407.
         526    assign_di                fort_cg_macros_:    296,  318.
         542    assign_dr                fort_cg_macros_:    296,  338.
         637    assign_e1                fort_cg_macros_:    296,  432,  437,  448.
         573    assign_e2                fort_cg_macros_:    296,  380.
         604    assign_h                 fort_cg_macros_:    382,  394.
         623    assign_hh                fort_cg_macros_:    395,  416.
         545    assign_ic                fort_cg_macros_:    296,  343.
         523    assign_id                fort_cg_macros_:    296,  313.
         611    assign_ih                fort_cg_macros_:    395,  397.
         512    assign_ii                fort_cg_macros_:    296,  298.
         515    assign_ir                fort_cg_macros_:    296,  303.
         577    assign_l                 fort_cg_macros_:    381,  385.
       10626    assign_label             fort_cg_macros_:   6348,
                                         fort_operator_table:       38.
       10633    assign_label.1           fort_cg_macros_:   6352, 6356.
       10642    assign_label.2           fort_cg_macros_:   6358, 6370.
       10647    assign_label.e           fort_cg_macros_:   6351, 6377.
         611    assign_lh                fort_cg_macros_:    395,  399.
         552    assign_rc                fort_cg_macros_:    296,  352.
         537    assign_rd                fort_cg_macros_:    296,  333.
         611    assign_rh                fort_cg_macros_:    395,  398.
         520    assign_ri                fort_cg_macros_:    296,  308.
         531    assign_rr                fort_cg_macros_:    296,  323.
         642    assign_t                 fort_cg_macros_:    296,  436.
         654    assign_t.normal          fort_cg_macros_:    437,  447.
         657    assign_t.return          fort_cg_macros_:    445,  452.
         646    assign_t.to_logical      fort_cg_macros_:    437,  439.
         611    assign_th                fort_cg_macros_:    395,  400.
        3556    atan                     fort_cg_macros_:   2100, 2352.
        3562    atan.1                   fort_cg_macros_:   2354, 2358.
        3565    atan.2                   fort_cg_macros_:   2360, 2365.
        3605    atan.p                   fort_cg_macros_:   2356, 2386.
        3607    atan2                    fort_cg_macros_:   2100, 2392.
        3663    atan2.1                  fort_cg_macros_:   2397, 2401, 2405, 2416, 2464.
        3711    atan2.p                  fort_cg_macros_:   2477, 2493.
        1336    atan2_                   fort_cg_macros_:   2471,
                                         fort_equs:    215.
        3660    atan2_cc                 fort_cg_macros_:   2393, 2455.
        3657    atan2_cd                 fort_cg_macros_:   2393, 2452.
        3653    atan2_ci                 fort_cg_macros_:   2393, 2440.
        3655    atan2_cr                 fort_cg_macros_:   2393, 2446.
        3656    atan2_dc                 fort_cg_macros_:   2393, 2449.
        3635    atan2_dd                 fort_cg_macros_:   2393, 2418.
        3632    atan2_di                 fort_cg_macros_:   2393, 2411.
        3644    atan2_dr                 fort_cg_macros_:   2393, 2429.
        3661    atan2_e1                 fort_cg_macros_:   2393, 2458.
        3662    atan2_e2                 fort_cg_macros_:   2393, 2461.
        3711    atan2_ee                 fort_cg_macros_:   2479, 2494.
        3652    atan2_ic                 fort_cg_macros_:   2393, 2437.
        3630    atan2_id                 fort_cg_macros_:   2393, 2407.
        3622    atan2_ii                 fort_cg_macros_:   2393, 2395.
        3624    atan2_ir                 fort_cg_macros_:   2393, 2399.
        3654    atan2_rc                 fort_cg_macros_:   2393, 2443.
        3636    atan2_rd                 fort_cg_macros_:   2393, 2421.
        3626    atan2_ri                 fort_cg_macros_:   2393, 2403.
        3634    atan2_rr                 fort_cg_macros_:   2393, 2415.
        1307    atan_                    fort_cg_macros_:   2370,
                                         fort_equs:    213.
        3564    atan_i                   fort_cg_macros_:   2353, 2362.
           4    auto_overlay             fort_cg_macros_:   8045,
                                         fort_equs:    146.
           3    auto_template            fort_cg_macros_:   8051,
                                         fort_equs:    145.
       11320    backspace                fort_cg_macros_:   6867,
                                         fort_operator_table:       49.
       11332    backspace.p              fort_cg_macros_:   6871, 6881.
        1760    bases                    fort_equs:    123,  124.
        4000    bif                      fort_cg_macros_:   8171,
                                         fort_equs:    100.
         440    blanks                   fort_equs:    178.
       12571    block_data               fort_cg_macros_:   7950,
                                         fort_operator_table:       69.
       10652    block_if                 fort_cg_macros_:   6381,
                                         fort_operator_table:      116.
       10667    block_if.ind             fort_cg_macros_:   6398, 6408.
       10665    block_if.no_cmpa         fort_cg_macros_:   6401, 6404.
       10725    block_if.no_tra          fort_cg_macros_:   6461, 6464.
       10735    block_if.p               fort_cg_macros_:   6385, 6481.
       10714    block_if.pop_predicate   fort_cg_macros_:   6406, 6413, 6417, 6421, 6425, 6429, 6433, 6437, 6441, 6443.
       10700    block_if.tmi             fort_cg_macros_:   6409, 6419.
       10704    block_if.tmoz            fort_cg_macros_:   6409, 6427.
       10710    block_if.tnc             fort_cg_macros_:   6409, 6435.
       10676    block_if.tnz             fort_cg_macros_:   6409, 6415.
       10702    block_if.tpl             fort_cg_macros_:   6409, 6423.
       10706    block_if.tpnz            fort_cg_macros_:   6409, 6431.
       10712    block_if.trc             fort_cg_macros_:   6409, 6439.
       10674    block_if.tze             fort_cg_macros_:   6409, 6411.
       10733    block_if_end             fort_cg_macros_:   6458, 6477.
       10717    block_if_loop            fort_cg_macros_:   6457, 6467, 6475.
        6434    bool.tl                  fort_cg_macros_:   2100, 4675.
         665    bound_ck_signal          fort_cg_macros_:    217,
                                         fort_equs:    279.
          33    buffer_size_slot         fort_cg_macros_:   7309, 7315,
                                         fort_equs:    167.
        2766    builtin                  fort_cg_macros_:   2059,
                                         fort_operator_table:       64.
        3055    builtin2                 fort_cg_macros_:   2069, 2075, 2097.
        3140    builtin2.char_ok         fort_cg_macros_:   2079, 2081.
        3147    builtin2.join            fort_cg_macros_:   2083, 2087, 2091, 2096.
        3146    builtin2.nc              fort_cg_macros_:   2079, 2093.
        3142    builtin2.one_word        fort_cg_macros_:   2079, 2085.
        3144    builtin2.tl              fort_cg_macros_:   2079, 2089.
        3150    builtin3                 fort_cg_macros_:   2099, 2107, 2116.
        5326    builtin_2args_di         fort_cg_macros_:   2412, 2586, 2764, 3111, 3458, 3573, 3747.
        5310    builtin_2args_id         fort_cg_macros_:   2408, 2582, 2760, 3107, 3454, 3569, 3725.
        5226    builtin_2args_ii         fort_cg_macros_:   2396, 3645.
        5244    builtin_2args_ii.1       fort_cg_macros_:   3659, 3665, 3667.
        5257    builtin_2args_ir         fort_cg_macros_:   2400, 2574, 2752, 3099, 3446, 3561, 3685.
        5275    builtin_2args_ri         fort_cg_macros_:   2404, 2578, 2756, 3103, 3450, 3565, 3707.
        3230    builtin_var              fort_cg_macros_:   2068, 2102.
        3310    builtin_var.1            fort_cg_macros_:   2103, 2106, 2113.
        3315    builtin_var.2            fort_cg_macros_:   2103, 2115, 2118.
        3402    bu_abort_list            fort_cg_macros_:   2073, 2077, 2107, 2116, 2186, 2199, 2204, 4773, 4777, 4781, 4785.
        6562    bu_dt1.p                 fort_cg_macros_:   2086, 2117, 4457, 4492, 4566, 4576, 4593, 4610, 4627, 4644, 4771.
        6566    bu_dt2.p                 fort_cg_macros_:   4775.
        6572    bu_dt5.p                 fort_cg_macros_:   2251, 2254, 2257, 2307, 2310, 2347, 2350, 2387, 2390, 2441, 2447,
                                                            2453, 2456, 2459, 2545, 2548, 2605, 2611, 2617, 2620, 2623, 2739,
                                                            2742, 3477, 3483, 3489, 3492, 3495, 3592, 3598, 3604, 3607, 3610,
                                                            3812, 3861, 3900, 3939, 3978, 4017, 4044, 4071, 4100, 4137, 4146,
                                                            4168, 4315, 4351, 4354, 4390, 4393, 4429, 4432, 4690, 4702, 4714,
                                                            4726, 4779.
        6576    bu_dt6.p                 fort_cg_macros_:   2438, 2444, 2450, 2462, 2495, 2602, 2608, 2614, 2626, 2687, 3474,
                                                            3480, 3486, 3498, 3542, 3589, 3595, 3601, 3613, 3643, 4656, 4693,
                                                            4705, 4717, 4729, 4783.
        3336    bu_ret_aq                fort_cg_macros_:   2135, 2304, 2542, 2736, 3808, 3857.
        3332    bu_ret_deaq              fort_cg_macros_:   2130, 2235, 2291, 2344, 2384, 2491, 2529, 2658, 2671, 2683, 2722,
                                                            3534, 3634, 3796, 3845, 3890, 3929, 3968, 4034, 4061, 4153, 4157,
                                                            4161, 4165, 4348, 4387, 4426, 4653.
        3326    bu_ret_eaq               fort_cg_macros_:   2125, 2226, 2248, 2279, 2332, 2372, 2473, 2517, 2639, 2709, 3519,
                                                            3620, 3784, 3833, 3880, 3919, 3958, 4024, 4029, 4051, 4056, 4107,
                                                            4111, 4117, 4121, 4143, 4336, 4375, 4414.
        3356    bu_ret_op1               fort_cg_macros_:   2155, 4450, 4454, 4475, 4489, 4573.
        3322    bu_ret_q                 fort_cg_macros_:   2120, 2219, 2571, 3506, 3558, 3985, 3989, 3993, 3997, 4001, 4078,
                                                            4084, 4090, 4485, 4523, 4543, 4563, 4699, 4711, 4723, 4735.
        3352    bu_ret_tnc               fort_cg_macros_:   2150, 4607, 4641.
        3342    bu_ret_tq                fort_cg_macros_:   2140, 4677, 4683, 4687.
        3346    bu_ret_trc               fort_cg_macros_:   2145, 4590, 4624.
        3445    cabs                     fort_cg_macros_:   2100, 2237.
        3446    cabs.1                   fort_cg_macros_:   2210, 2239.
        3461    cabs.p                   fort_cg_macros_:   2238, 2256.
        1406    cabs_                    fort_cg_macros_:   2245,
                                         fort_equs:    207.
       12737    call                     fort_cg_macros_:   8161,
                                         fort_operator_table:       76.
       13114    call_ext_desc            fort_cg_macros_:   8270, 8275.
         623    call_ext_out             fort_cg_macros_:   8272,
                                         fort_equs:    245.
         622    call_ext_out_desc        fort_cg_macros_:   8276,
                                         fort_equs:    246.
       13122    call_join                fort_cg_macros_:   8273, 8277, 8283, 8288.
        1170    call_offset              stack_header:        80.
         617    call_var                 fort_cg_macros_:   8282,
                                         fort_equs:    247.
       13116    call_variable            fort_cg_macros_:   8268, 8279.
       13121    call_variable_desc       fort_cg_macros_:   8280, 8285.
         616    call_var_desc            fort_cg_macros_:   8286,
                                         fort_equs:    248.
       13326    cat                      fort_cg_macros_:   8517,
                                         fort_operator_table:      112.
       13341    cat.dont_copy_arg1       fort_cg_macros_:   8526, 8533.
       13352    cat.not_ansi77           fort_cg_macros_:   8519, 8549.
       13350    cat.p                    fort_cg_macros_:   8522, 8524, 8546.
        3741    ccos                     fort_cg_macros_:   2100, 2531.
        3742    ccos.1                   fort_cg_macros_:   2501, 2533.
        3754    ccos.p                   fort_cg_macros_:   2532, 2547.
        1407    ccos_                    fort_cg_macros_:   2539,
                                         fort_equs:    219.
        2755    ccv_cc                   fort_cg_macros_:   1980, 2047.
        2753    ccv_cd                   fort_cg_macros_:   1980, 2043.
        2740    ccv_ci                   fort_cg_macros_:   1980, 2026.
        2747    ccv_cr                   fort_cg_macros_:   1980, 2036.
        2751    ccv_dc                   fort_cg_macros_:   1980, 2040.
        2731    ccv_dd                   fort_cg_macros_:   1980, 2012.
        2725    ccv_di                   fort_cg_macros_:   1980, 2003.
        2734    ccv_dr                   fort_cg_macros_:   1980, 2019.
        2760    ccv_e1                   fort_cg_macros_:   1980, 2051.
        2763    ccv_e2                   fort_cg_macros_:   1980, 2055.
        2736    ccv_ic                   fort_cg_macros_:   1980, 2023.
        2722    ccv_id                   fort_cg_macros_:   1980, 1997.
        2713    ccv_ii                   fort_cg_macros_:   1980, 1982.
        2714    ccv_ir                   fort_cg_macros_:   1980, 1985.
        2745    ccv_rc                   fort_cg_macros_:   1980, 2033.
        2732    ccv_rd                   fort_cg_macros_:   1980, 2015.
        2717    ccv_ri                   fort_cg_macros_:   1980, 1991.
        2730    ccv_rr                   fort_cg_macros_:   1980, 2009.
        4143    cexp                     fort_cg_macros_:   2100, 2724.
        4144    cexp.1                   fort_cg_macros_:   2693, 2727.
        4156    cexp.p                   fort_cg_macros_:   2725, 2741.
        1410    cexp_                    fort_cg_macros_:   2733,
                                         fort_equs:    222.
       13152    chain                    fort_cg_macros_:   8332,
                                         fort_operator_table:       77.
       13157    chain2                   fort_cg_macros_:   8336, 8340.
       13164    chain3                   fort_cg_macros_:   8345, 8349.
       13170    chain_fill               fort_cg_macros_:   8356.
       13204    chain_next_file          fort_cg_macros_:   8374, 8380.
       13220    chain_path.p             fort_cg_macros_:   8337, 8338, 8391.
       13213    chain_ret                fort_cg_macros_:   8375, 8382.
       13226    chain_sys.p              fort_cg_macros_:   8346, 8347, 8396.
       10000    char                     fort_cg_macros_:    382, 2082, 4460, 4495, 4497, 4569, 4579, 4581, 4596, 4598, 4613,
                                                            4615, 4630, 4632, 5280, 5445, 6594, 6917, 6920, 7004, 7118, 7294,
                                                            7569, 7586, 7803, 8174, 8336, 8345, 8522, 8524,
                                         fort_equs:     57.
        6237    char.constant            fort_cg_macros_:   4437, 4452.
        6241    char.p                   fort_cg_macros_:   4435, 4456.
         634    char2.p                  fort_cg_macros_:    401,  409,  428.
        3000    charn                    fort_equs:     66.
        6226    char_builtin             fort_cg_macros_:   2100, 4434.
       12516    char_func                fort_cg_macros_:   7872, 7874.
       12760    check_args               fort_cg_macros_:   8170, 8193.
         453    check_stringrange        fort_cg_macros_:    195,  259.
         417    check_subscript          fort_cg_macros_:    192,  198.
        3511    clog                     fort_cg_macros_:   2100, 2293.
        3512    clog.1                   fort_cg_macros_:   2263, 2295.
        3524    clog.p                   fort_cg_macros_:   2294, 2309.
        1411    clog_                    fort_cg_macros_:   2301,
                                         fort_equs:    210.
       11424    close                    fort_cg_macros_:   6952,
                                         fort_operator_table:       92.
       11641    closefile                fort_cg_macros_:   7221,
                                         fort_operator_table:       52.
       11652    closefile.p              fort_cg_macros_:   7224, 7234.
        5733    cmplx                    fort_cg_macros_:   2100, 4170.
        5737    cmplx.one                fort_cg_macros_:   4171, 4175.
        5754    cmplx.one.cmpx           fort_cg_macros_:   4176, 4192.
        5750    cmplx.one.dp             fort_cg_macros_:   4176, 4186.
        5744    cmplx.one.int            fort_cg_macros_:   4176, 4178.
        5756    cmplx.one.join           fort_cg_macros_:   4180, 4184, 4190, 4196.
        5764    cmplx.one.p              fort_cg_macros_:   4176, 4204.
        5746    cmplx.one.real           fort_cg_macros_:   4176, 4182.
        5765    cmplx.two                fort_cg_macros_:   4172, 4207.
        6037    cmplx.two.dd             fort_cg_macros_:   4208, 4249.
        6052    cmplx.two.dd.1           fort_cg_macros_:   4251, 4262.
        6064    cmplx.two.di             fort_cg_macros_:   4208, 4279.
        6064    cmplx.two.dr             fort_cg_macros_:   4208, 4281.
        6062    cmplx.two.e1             fort_cg_macros_:   4208, 4272.
        6063    cmplx.two.e2             fort_cg_macros_:   4208, 4275.
        6064    cmplx.two.id             fort_cg_macros_:   4208, 4282.
        6000    cmplx.two.ii             fort_cg_macros_:   4208, 4210.
        6013    cmplx.two.ii.1           fort_cg_macros_:   4212, 4223.
        6064    cmplx.two.ir             fort_cg_macros_:   4208, 4280.
        6064    cmplx.two.rd             fort_cg_macros_:   4208, 4283.
        6064    cmplx.two.ri             fort_cg_macros_:   4208, 4278.
        6024    cmplx.two.rr             fort_cg_macros_:   4208, 4234.
        6033    cmplx.two.rr.1           fort_cg_macros_:   4236, 4243.
       40000    cmpx                     fort_cg_macros_:   1669, 2082, 2090, 2094, 2112, 2238, 2294, 2532, 2725, 3799, 3848,
                                                            4140, 4287, 6257, 7750, 7832,
                                         fort_equs:     55.
        2000    cmpxn                    fort_cg_macros_:    510,  517,  546,  572,  754,  773,  793,  826,  856,  889,  919,
                                                            1032, 1061, 1094, 1237, 1274, 1310, 1568, 1579, 1588, 1604, 1631,
                                                            1691, 4198, 4211, 4235, 4250, 4289, 7634, 7897,
                                         fort_equs:     64.
       12531    cmpx_func                fort_cg_macros_:   7872, 7896.
        1416    cmpx_p_cmpx              fort_cg_macros_:   1641, 1653,
                                         fort_equs:    200.
       12453    coerce_substr_exp        fort_cg_macros_:   7809, 7814, 7826.
        6436    compl.tl                 fort_cg_macros_:   2100, 4679.
          70    complex                  fort_cg_macros_:   1127, 1269, 1343,
                                         fort_equs:    173.
         775    complex_divide           fort_cg_macros_:   1268, 1342,
                                         fort_equs:    191.
         773    complex_multiply         fort_cg_macros_:   1126,
                                         fort_equs:    190.
        6066    conjg                    fort_cg_macros_:   2100, 4286.
        6104    conjg.1                  fort_cg_macros_:   4292, 4304.
        6115    conjg.p                  fort_cg_macros_:   4287, 4314.
      200000    constant                 fort_cg_macros_:    401,  409,  639,  673,  758,  777, 1036, 1221, 1241, 1364, 1379,
                                                            1394, 1409, 1432, 1462, 1492, 1565, 1592, 1746, 1762, 1803, 1877,
                                                            1929, 3648, 3668, 3688, 3708, 3728, 3748, 4437, 4462, 4933, 4946,
                                                            4971, 5127, 5140, 5165, 5297, 5310, 5335, 5462, 5475, 5500, 5651,
                                                            5664, 5689, 5844, 5857, 5882, 7749, 7830,
                                         fort_equs:     95.
       12425    convert_subscript        fort_cg_macros_:   7749, 7774.
       13356    convert_to_cmpx          fort_cg_macros_:   8563,
                                         fort_operator_table:       97.
        2677    convert_to_cv_type       fort_cg_macros_:   1722, 1727, 1731, 1977.
       13356    convert_to_dp            fort_cg_macros_:   8562,
                                         fort_operator_table:       96.
       13356    convert_to_int           fort_cg_macros_:   8560,
                                         fort_operator_table:       94.
       13356    convert_to_real          fort_cg_macros_:   8561,
                                         fort_operator_table:       95.
       12753    conv_bif                 fort_cg_macros_:   8171, 8183.
        5337    conv_bu_di               fort_cg_macros_:   3748, 3760.
        5323    conv_bu_id               fort_cg_macros_:   3728, 3741.
        5241    conv_bu_ii.1             fort_cg_macros_:   3648, 3661.
        5255    conv_bu_ii.2             fort_cg_macros_:   3668, 3680.
        5272    conv_bu_ir               fort_cg_macros_:   3688, 3701.
        5306    conv_bu_ri               fort_cg_macros_:   3708, 3720.
        2107    conv_di                  fort_cg_macros_:   1409, 1416.
        1732    conv_div_ci              fort_cg_macros_:   1241, 1255.
        1713    conv_div_ic              fort_cg_macros_:   1221, 1231.
        2305    conv_exponentiation_ci   fort_cg_macros_:   1592, 1603.
        2264    conv_exponentiation_ic   fort_cg_macros_:   1565, 1578.
        2200    conv_exponentiation_id   fort_cg_macros_:   1492, 1500.
        2155    conv_exponentiation_ir   fort_cg_macros_:   1462, 1470.
       12755    conv_external            fort_cg_macros_:   8172, 8187.
        2076    conv_id                  fort_cg_macros_:   1394, 1401.
        2055    conv_ir                  fort_cg_macros_:   1364, 1371.
        1515    conv_mult_ci             fort_cg_macros_:   1036, 1050.
        2066    conv_ri                  fort_cg_macros_:   1379, 1386.
        1224    conv_sub_ci              fort_cg_macros_:    777,  785.
        1120    conv_sub_di              fort_cg_macros_:    673,  681.
        1210    conv_sub_ic              fort_cg_macros_:    758,  766.
        1071    conv_sub_ri              fort_cg_macros_:    639,  647.
        3712    cos                      fort_cg_macros_:   2100, 2497.
        3716    cos.1                    fort_cg_macros_:   2499, 2503.
        3721    cos.2                    fort_cg_macros_:   2505, 2510.
        5525    cosh                     fort_cg_macros_:   2100, 3941.
        5535    cosh.1                   fort_cg_macros_:   3946, 3951.
        5544    cosh.dp                  fort_cg_macros_:   3942, 3960, 3973.
        5532    cosh.int                 fort_cg_macros_:   3942, 3944.
        5556    cosh.p                   fort_cg_macros_:   3942, 3976.
        5534    cosh.real                fort_cg_macros_:   3942, 3948.
        1462    cosh_                    fort_cg_macros_:   3955,
                                         fort_equs:    259.
        1277    cos_                     fort_cg_macros_:   2515,
                                         fort_equs:    217.
        3720    cos_i                    fort_cg_macros_:   2498, 2507.
       20000    count                    fort_cg_macros_:   7876,
                                         fort_equs:     98.
       12463    cse_convert_constant     fort_cg_macros_:   7830, 7840.
       12476    cse_convert_dp           fort_cg_macros_:   7834, 7855.
       12465    cse_convert_real         fort_cg_macros_:   7832, 7844.
       12506    cse_return               fort_cg_macros_:   7828, 7865.
        5367    csin                     fort_cg_macros_:   2100, 3798.
        5370    csin.1                   fort_cg_macros_:   3769, 3800.
        5400    csin.p                   fort_cg_macros_:   3799, 3811.
        1412    csin_                    fort_cg_macros_:   3805,
                                         fort_equs:    229.
        5427    csqrt                    fort_cg_macros_:   2100, 3847.
        5430    csqrt.1                  fort_cg_macros_:   3818, 3849.
        5440    csqrt.p                  fort_cg_macros_:   3848, 3860.
        1413    csqrt_                   fort_cg_macros_:   3854,
                                         fort_equs:    232.
       12762    cv_bif_to_external       fort_cg_macros_:   8184, 8197.
        2101    cv_load.di               fort_cg_macros_:    314, 1408, 2006, 3992, 6275, 7371, 7492.
        2071    cv_load.id               fort_cg_macros_:    319,  477,  666, 1000, 1177, 1182, 1393, 2000, 2907, 3254, 4152,
                                                            4846, 4851, 5040, 5045, 5225, 5390, 5564, 5569, 5757, 5762, 7366, 7497.
        2050    cv_load.ir               fort_cg_macros_:    309,  349,  469,  509,  632,  992, 1165, 1170, 1363, 1988, 2270,
                                                            2323, 2363, 2508, 2700, 2866, 3213, 3776, 3825, 3867, 3906, 3945,
                                                            4023, 4050, 4106, 4179, 4214, 4218, 4225, 4229, 4328, 4367, 4406,
                                                            4834, 4839, 5028, 5033, 5217, 5382, 5552, 5557, 5745, 5750, 7356,
                                                            7376, 7487, 7527.
        2060    cv_load.ri               fort_cg_macros_:    304,  344, 1378, 1994, 3988, 3996, 6271, 7361, 7385, 7482, 7522.
        3437    dabs                     fort_cg_macros_:   2100, 2228.
        3440    dabs.1                   fort_cg_macros_:   2209, 2230.
        3460    dabs.p                   fort_cg_macros_:   2229, 2253.
        6213    dacos                    fort_cg_macros_:   2100, 4416.
        6214    dacos.1                  fort_cg_macros_:   4398, 4418.
        6225    dacos.p                  fort_cg_macros_:   4417, 4431.
        1326    dacos_                   fort_cg_macros_:   4424,
                                         fort_equs:    239.
        6163    dasin                    fort_cg_macros_:   2100, 4377.
        6164    dasin.1                  fort_cg_macros_:   4359, 4379.
        6175    dasin.p                  fort_cg_macros_:   4378, 4392.
        1324    dasin_                   fort_cg_macros_:   4385,
                                         fort_equs:    237.
        3574    datan                    fort_cg_macros_:   2100, 2374.
        3575    datan.1                  fort_cg_macros_:   2355, 2376.
        3606    datan.p                  fort_cg_macros_:   2375, 2389.
        3674    datan2                   fort_cg_macros_:   2100, 2475.
        3700    datan2.1                 fort_cg_macros_:   2409, 2413, 2419, 2435, 2481.
        3705    datan2.2                 fort_cg_macros_:   2427, 2487.
        1340    datan2_                  fort_cg_macros_:   2489,
                                         fort_equs:    216.
        1330    datan_                   fort_cg_macros_:   2382,
                                         fort_equs:    214.
        5715    dble                     fort_cg_macros_:   2100, 4148.
        5730    dble.cmpx                fort_cg_macros_:   4149, 4163.
        5726    dble.dp                  fort_cg_macros_:   4149, 4159.
        5722    dble.int                 fort_cg_macros_:   4149, 4151.
        5732    dble.p                   fort_cg_macros_:   4149, 4167.
        5724    dble.real                fort_cg_macros_:   4149, 4155.
        1345    dbl_p_dbl                fort_cg_macros_:   1539,
                                         fort_equs:    199.
        1346    dbl_p_int                fort_cg_macros_:   1513,
                                         fort_equs:    197.
        1344    dbl_p_real               fort_cg_macros_:   1556,
                                         fort_equs:    198.
        3730    dcos                     fort_cg_macros_:   2100, 2519.
        3731    dcos.1                   fort_cg_macros_:   2500, 2521.
        3753    dcos.p                   fort_cg_macros_:   2520, 2544.
        5554    dcosh                    fort_cg_macros_:   2100, 3971.
        5556    dcosh.p                  fort_cg_macros_:   3972, 3977.
        1463    dcosh_                   fort_cg_macros_:   3965,
                                         fort_equs:    260.
        1320    dcos_                    fort_cg_macros_:   2527,
                                         fort_equs:    218.
        4047    ddim                     fort_cg_macros_:   2100, 2641.
        4053    ddim.1                   fort_cg_macros_:   2583, 2587, 2593, 2647.
        4113    ddim.p                   fort_cg_macros_:   2643, 2645, 2686.
        2400    deaq                     fort_cg_macros_:    320,  329,  330,  334,  340,  368,  372,  479,  487,  489,  497,
                                                             499,  503,  548,  668,  679,  683,  687,  695,  713,  715,  717,
                                                             723,  727,  731,  737,  743,  745,  751,  859,  892, 1002, 1010,
                                                            1012, 1020, 1022, 1026, 1096, 1179, 1184, 1198, 1200, 1202, 1206,
                                                            1211, 1216, 1312, 1403, 1410, 1411, 1434, 1509, 1515, 1534, 1541,
                                                            1552, 1558, 1685, 1688, 1930, 1932, 1939, 1940, 1964, 1967, 2001,
                                                            2017, 2020, 2045, 2133, 2174, 2231, 2284, 2337, 2377, 2432, 2482,
                                                            2522, 2648, 2651, 2664, 2674, 2715, 2890, 2891, 2904, 3067, 3068,
                                                            3237, 3238, 3251, 3415, 3416, 3528, 3630, 3735, 3755, 3789, 3838,
                                                            3883, 3922, 3961, 4032, 4059, 4087, 4114, 4160, 4187, 4251, 4252,
                                                            4341, 4380, 4419, 4869, 4871, 4872, 4877, 4882, 4889, 4896, 4897,
                                                            5063, 5065, 5066, 5071, 5076, 5083, 5090, 5091, 5236, 5237, 5247,
                                                            5248, 5401, 5402, 5412, 5413, 5587, 5589, 5590, 5595, 5600, 5607,
                                                            5614, 5615, 5780, 5782, 5783, 5788, 5793, 5800, 5807, 5808, 6115,
                                                            6117, 6120, 7395, 7413, 7498, 7507, 7508, 7512, 7518, 7547, 7551,
                                                            7629, 7765, 7766, 7857, 7858,
                                         fort_equs:     77.
       13356    decode_string            fort_cg_macros_:   8576,
                                         fort_operator_table:      110.
       12715    descriptor_check         fort_cg_macros_:   7879, 8101, 8179.
       12724    descriptor_check.return  fort_cg_macros_:   8116, 8117, 8123, 8131.
       12723    descriptor_check.set     fort_cg_macros_:   8118, 8125.
          42    descriptor_ptr           fort_cg_macros_:   8016,
                                         fort_equs:    169.
          13    desc_overlay             fort_equs:    153.
        4132    dexp                     fort_cg_macros_:   2100, 2711.
        4133    dexp.1                   fort_cg_macros_:   2692, 2714.
        4155    dexp.p                   fort_cg_macros_:   2712, 2738.
        1335    dexp_                    fort_cg_macros_:   2720,
                                         fort_equs:    221.
        3755    dim                      fort_cg_macros_:   2100, 2550.
        4034    dim.1                    fort_cg_macros_:   2575, 2579, 2590, 2628.
        4031    dim_cc                   fort_cg_macros_:   2551, 2619.
        4030    dim_cd                   fort_cg_macros_:   2551, 2616.
        4024    dim_ci                   fort_cg_macros_:   2551, 2604.
        4026    dim_cr                   fort_cg_macros_:   2551, 2610.
        4027    dim_dc                   fort_cg_macros_:   2551, 2613.
        4020    dim_dd                   fort_cg_macros_:   2551, 2592.
        4015    dim_di                   fort_cg_macros_:   2551, 2585.
        4022    dim_dr                   fort_cg_macros_:   2551, 2598.
        4032    dim_e1                   fort_cg_macros_:   2551, 2622.
        4033    dim_e2                   fort_cg_macros_:   2551, 2625.
        4023    dim_ic                   fort_cg_macros_:   2551, 2601.
        4013    dim_id                   fort_cg_macros_:   2551, 2581.
        3774    dim_ii                   fort_cg_macros_:   2551, 2559.
        4007    dim_ir                   fort_cg_macros_:   2551, 2573.
        4025    dim_rc                   fort_cg_macros_:   2551, 2607.
        4021    dim_rd                   fort_cg_macros_:   2551, 2595.
        4011    dim_ri                   fort_cg_macros_:   2551, 2577.
        4017    dim_rr                   fort_cg_macros_:   2551, 2589.
        5620    dint                     fort_cg_macros_:   2100, 4037.
        5622    dint.p                   fort_cg_macros_:   4038, 4043.
           2    discard                  fort_equs:    135.
        1622    div                      fort_cg_macros_:   1152,
                                         fort_operator_table:       21.
        2024    div_cc                   fort_cg_macros_:   1154, 1339.
        1777    div_cd                   fort_cg_macros_:   1154, 1309.
        2005    div_cd.01                fort_cg_macros_:   1318, 1328.
        2012    div_cd.1                 fort_cg_macros_:   1312, 1325.
        2015    div_cd.2                 fort_cg_macros_:   1313, 1330.
        1716    div_ci                   fort_cg_macros_:   1154, 1236.
        1746    div_cr                   fort_cg_macros_:   1154, 1273.
        1754    div_cr.01                fort_cg_macros_:   1282, 1292.
        1761    div_cr.1                 fort_cg_macros_:   1253, 1260, 1276, 1289.
        1764    div_cr.2                 fort_cg_macros_:   1277, 1294.
        1773    div_dc                   fort_cg_macros_:   1154, 1303.
        1666    div_dd                   fort_cg_macros_:   1154, 1197.
        1672    div_dd.1                 fort_cg_macros_:   1198, 1204.
        1655    div_di                   fort_cg_macros_:   1154, 1181.
        1677    div_dr                   fort_cg_macros_:   1154, 1213.
        2044    div_e1                   fort_cg_macros_:   1154, 1349, 1357.
        2046    div_e2                   fort_cg_macros_:   1154, 1348, 1360.
        1702    div_ic                   fort_cg_macros_:   1154, 1218.
        1651    div_id                   fort_cg_macros_:   1154, 1174.
        1636    div_ii                   fort_cg_macros_:   1154, 1156.
        1642    div_ir                   fort_cg_macros_:   1154, 1162.
        1736    div_rc                   fort_cg_macros_:   1154, 1234, 1262, 1307.
        1737    div_rc.01                fort_cg_macros_:   1229, 1264.
        1674    div_rd                   fort_cg_macros_:   1154, 1208.
        1646    div_ri                   fort_cg_macros_:   1154, 1169.
        1660    div_rr                   fort_cg_macros_:   1154, 1186.
        1664    div_rr.1                 fort_cg_macros_:   1187, 1193.
        2032    div_tl                   fort_cg_macros_:   1154, 1347.
        2041    div_tl.1                 fort_cg_macros_:   1349, 1352.
        3500    dlog                     fort_cg_macros_:   2100, 2281.
        3501    dlog.1                   fort_cg_macros_:   2262, 2283.
        3523    dlog.p                   fort_cg_macros_:   2282, 2306.
        3543    dlog10                   fort_cg_macros_:   2100, 2334.
        3544    dlog10.1                 fort_cg_macros_:   2315, 2336.
        3555    dlog10.p                 fort_cg_macros_:   2335, 2349.
        1334    dlog10_                  fort_cg_macros_:   2342,
                                         fort_equs:    212.
        1333    dlog_                    fort_cg_macros_:   2289,
                                         fort_equs:    209.
        4462    dmax1                    fort_cg_macros_:   2100, 3060.
        4472    dmax1.loop               fort_cg_macros_:   3071, 3083.
        4505    dmax1.p                  fort_cg_macros_:   3063, 3065, 3082, 3088.
        4504    dmax1.r                  fort_cg_macros_:   3077, 3085.
        5012    dmin1                    fort_cg_macros_:   2100, 3408.
        5022    dmin1.loop               fort_cg_macros_:   3419, 3431.
        5035    dmin1.p                  fort_cg_macros_:   3411, 3413, 3430, 3436.
        5034    dmin1.r                  fort_cg_macros_:   3425, 3433.
        5116    dmod                     fort_cg_macros_:   2100, 3521.
        5122    dmod.1                   fort_cg_macros_:   3455, 3459, 3465, 3471, 3527.
        5123    dmod.2                   fort_cg_macros_:   3529, 3538.
        5132    dmod.p                   fort_cg_macros_:   3523, 3525, 3541.
        1415    dmod_                    fort_equs:    224.
        5640    dnint                    fort_cg_macros_:   2100, 4064.
        5642    dnint.p                  fort_cg_macros_:   4065, 4070.
        2425    do                       fort_cg_macros_:   1718,
                                         fort_operator_table:       63.
       13073    double_count             fort_cg_macros_:   8242, 8245.
          56    double_temp              fort_cg_macros_:   1227, 1228, 4536, 4538, 4556, 4558,
                                         fort_equs:    170.
         654    double_to_integer        fort_cg_macros_:   1413, 1948, 7768, 7860,
                                         fort_equs:    189.
        2633    do_d                     fort_cg_macros_:   1740, 1925.
        2644    do_d.no_save_incre       fort_cg_macros_:   1928, 1929, 1936.
        2661    do_d.one_trip            fort_cg_macros_:   1953, 1956.
        2446    do_i                     fort_cg_macros_:   1738, 1742.
        2457    do_i.no_save_incre       fort_cg_macros_:   1745, 1746, 1753.
        2476    do_i.one_trip            fort_cg_macros_:   1773, 1776.
        2531    do_i.zero_trip.negative  fort_cg_macros_:   1818, 1822.
        2553    do_i_1                   fort_cg_macros_:   1840, 1852.
        2513    do_i_constant            fort_cg_macros_:   1762, 1797.
        2532    do_i_constant.one_trip   fort_cg_macros_:   1813, 1820, 1825.
        2560    do_i_negative            fort_cg_macros_:   1837, 1862.
        2567    do_r                     fort_cg_macros_:   1739, 1873.
        2600    do_r.no_save_incre       fort_cg_macros_:   1876, 1877, 1884.
        2615    do_r.one_trip            fort_cg_macros_:   1901, 1904.
      100000    dp                       fort_cg_macros_:   1668, 2082, 2090, 2094, 2112, 2209, 2229, 2262, 2282, 2315, 2335,
                                                            2355, 2375, 2477, 2479, 2500, 2520, 2643, 2645, 2692, 2712, 2820,
                                                            2857, 2896, 3063, 3065, 3082, 3167, 3204, 3243, 3411, 3413, 3430,
                                                            3523, 3525, 3624, 3626, 3768, 3787, 3817, 3836, 3894, 3933, 3972,
                                                            4010, 4038, 4065, 4094, 4130, 4320, 4339, 4359, 4378, 4398, 4417,
                                                            6107, 6257, 6263, 7750, 7752, 7834,
                                         fort_equs:     54.
        1400    dpn                      fort_cg_macros_:    682, 1402, 1501, 1931, 2173, 2430, 2903, 3250, 3730, 3742, 3750,
                                                            3761, 7628, 7893,
                                         fort_equs:     63.
        6411    dprod                    fort_cg_macros_:   2100, 4646.
        6420    dprod.p                  fort_cg_macros_:   4648, 4650, 4655.
       12527    dp_func                  fort_cg_macros_:   7872, 7892.
        4101    drdim.1                  fort_cg_macros_:   2599, 2673.
        5211    dsign                    fort_cg_macros_:   2100, 3622.
        5215    dsign.1                  fort_cg_macros_:   3570, 3574, 3580, 3586, 3628.
        5217    dsign.2                  fort_cg_macros_:   3631, 3639.
        5225    dsign.p                  fort_cg_macros_:   3624, 3626, 3642.
        5356    dsin                     fort_cg_macros_:   2100, 3786.
        5357    dsin.1                   fort_cg_macros_:   3768, 3788.
        5400    dsin.p                   fort_cg_macros_:   3787, 3810.
        5522    dsinh                    fort_cg_macros_:   2100, 3932.
        5524    dsinh.p                  fort_cg_macros_:   3933, 3938.
        1461    dsinh_                   fort_cg_macros_:   3926,
                                         fort_equs:    258.
        1316    dsin_                    fort_cg_macros_:   3794,
                                         fort_equs:    228.
        5416    dsqrt                    fort_cg_macros_:   2100, 3835.
        5417    dsqrt.1                  fort_cg_macros_:   3817, 3837.
        5440    dsqrt.p                  fort_cg_macros_:   3836, 3859.
        1315    dsqrt_                   fort_cg_macros_:   3843,
                                         fort_equs:    231.
        6133    dtan                     fort_cg_macros_:   2100, 4338.
        6134    dtan.1                   fort_cg_macros_:   4320, 4340.
        6145    dtan.p                   fort_cg_macros_:   4339, 4353.
        5470    dtanh                    fort_cg_macros_:   2100, 3893.
        5472    dtanh.p                  fort_cg_macros_:   3894, 3899.
        1457    dtanh_                   fort_cg_macros_:   3887,
                                         fort_equs:    256.
        1322    dtan_                    fort_cg_macros_:   4346,
                                         fort_equs:    235.
         200    dummy                    fort_equs:    104.
        2000    eaq                      fort_cg_macros_:    310,  324,  325,  339,  353,  354,  358,  360,  367,  471,  482,
                                                             484,  495,  519,  520,  526,  533,  549,  555,  562,  574,  576,
                                                             585,  592,  634,  645,  649,  653,  661,  699,  701,  703,  709,
                                                             729,  741,  769,  789,  796,  797,  805,  812,  829,  830,  836,
                                                             846,  860,  868,  875,  893,  899,  909,  922,  924,  933,  942,
                                                             994, 1005, 1007, 1018, 1046, 1054, 1063, 1064, 1072, 1079, 1097,
                                                            1105, 1112, 1167, 1172, 1187, 1189, 1191, 1195, 1209, 1214, 1251,
                                                            1259, 1276, 1277, 1286, 1297, 1313, 1322, 1333, 1373, 1380, 1381,
                                                            1435, 1479, 1485, 1521, 1528, 1546, 1572, 1598, 1679, 1682, 1694,
                                                            1700, 1703, 1709, 1878, 1880, 1887, 1888, 1912, 1915, 1989, 2016,
                                                            2021, 2027, 2028, 2037, 2038, 2044, 2128, 2168, 2222, 2266, 2319,
                                                            2359, 2422, 2431, 2465, 2504, 2629, 2632, 2661, 2696, 2775, 2776,
                                                            2849, 2850, 2863, 2974, 3034, 3035, 3122, 3123, 3196, 3197, 3210,
                                                            3321, 3322, 3382, 3383, 3515, 3537, 3617, 3638, 3655, 3675, 3695,
                                                            3715, 3772, 3821, 3871, 3910, 3949, 4027, 4054, 4081, 4110, 4120,
                                                            4156, 4164, 4183, 4199, 4216, 4231, 4236, 4237, 4238, 4246, 4255,
                                                            4269, 4294, 4295, 4309, 4324, 4363, 4402, 4651, 4856, 4858, 4859,
                                                            4864, 4884, 4894, 5050, 5052, 5053, 5058, 5078, 5088, 5230, 5231,
                                                            5245, 5395, 5396, 5410, 5574, 5576, 5577, 5582, 5602, 5612, 5767,
                                                            5769, 5770, 5775, 5795, 5805, 6143, 6145, 6148, 7378, 7390, 7409,
                                                            7488, 7502, 7503, 7517, 7528, 7534, 7535, 7539, 7540, 7546, 7552,
                                                            7623, 7754, 7755, 7846, 7847,
                                         fort_equs:     76.
       11003    else                     fort_cg_macros_:   6544,
                                         fort_operator_table:      118.
       10743    else_if                  fort_cg_macros_:   6486,
                                         fort_operator_table:      117.
       10754    else_if.ind              fort_cg_macros_:   6496, 6506.
       10752    else_if.no_cmpa          fort_cg_macros_:   6499, 6502.
       11001    else_if.p                fort_cg_macros_:   6489, 6541.
       10765    else_if.tmi              fort_cg_macros_:   6507, 6517.
       10771    else_if.tmoz             fort_cg_macros_:   6507, 6525.
       10775    else_if.tnc              fort_cg_macros_:   6507, 6533.
       10763    else_if.tnz              fort_cg_macros_:   6507, 6513.
       10767    else_if.tpl              fort_cg_macros_:   6507, 6521.
       10773    else_if.tpnz             fort_cg_macros_:   6507, 6529.
       10777    else_if.trc              fort_cg_macros_:   6507, 6537.
       10761    else_if.tze              fort_cg_macros_:   6507, 6509.
       10333    emit_tze                 fort_cg_macros_:   6043, 6047.
           0    empty                    fort_equs:     72.
       13356    encode_string            fort_cg_macros_:   8577,
                                         fort_operator_table:      111.
       11266    endfile                  fort_cg_macros_:   6833,
                                         fort_operator_table:       47.
       11300    endfile.p                fort_cg_macros_:   6836, 6846.
       13234    endunit                  fort_cg_macros_:   8401,
                                         fort_operator_table:       78.
       11065    end_label                fort_cg_macros_:   6627,
                                         fort_operator_table:       42.
          14    end_label_slot           fort_cg_macros_:   6631,
                                         fort_equs:    157.
        1473    enter_BFP_mode           fort_equs:    268.
        1474    enter_HFP_mode           fort_cg_macros_:   7982,
                                         fort_equs:    269.
         400    entry                    fort_equs:    103.
          10    entry_info               fort_cg_macros_:   7691, 8078,
                                         fort_equs:    150.
        1174    entry_offset             stack_header:        84.
       12324    eol                      fort_cg_macros_:   7675,
                                         fort_operator_table:       62.
        7240    equal                    fort_cg_macros_:   5202,
                                         fort_operator_table:       26.
        7341    equal_ah                 fort_cg_macros_:   5280, 5291.
        7326    equal_cc                 fort_cg_macros_:   5206, 5274.
        7323    equal_cd                 fort_cg_macros_:   5206, 5271.
        7355    equal_ch                 fort_cg_macros_:   5292, 5309.
        7312    equal_ci                 fort_cg_macros_:   5206, 5259.
        7316    equal_cr                 fort_cg_macros_:   5206, 5265.
        7320    equal_dc                 fort_cg_macros_:   5206, 5268.
        7274    equal_dd                 fort_cg_macros_:   5206, 5235.
        7355    equal_dh                 fort_cg_macros_:   5292, 5308.
        7265    equal_di                 fort_cg_macros_:   5206, 5224.
        7301    equal_dr                 fort_cg_macros_:   5206, 5244.
        7306    equal_dr.1               fort_cg_macros_:   5245, 5252.
        7372    equal_e1                 fort_cg_macros_:   5206, 5331.
        7331    equal_e2                 fort_cg_macros_:   5206, 5279.
        7406    equal_hc                 fort_cg_macros_:   5337, 5349.
        7406    equal_hd                 fort_cg_macros_:   5337, 5348.
        7364    equal_hh                 fort_cg_macros_:   5292, 5321, 5337.
        7402    equal_hi                 fort_cg_macros_:   5337, 5339.
        7402    equal_hr                 fort_cg_macros_:   5337, 5340.
        7402    equal_ht                 fort_cg_macros_:   5337, 5341.
        7310    equal_ic                 fort_cg_macros_:   5206, 5256.
        7264    equal_id                 fort_cg_macros_:   5206, 5221.
        7346    equal_ih                 fort_cg_macros_:   5292, 5294.
        7255    equal_ii                 fort_cg_macros_:   5206, 5208.
        7260    equal_ir                 fort_cg_macros_:   5206, 5213.
           1    equal_lengths            fort_cg_macros_:   8528, 8536,
                                         fort_equs:    133.
        7336    equal_ll                 fort_cg_macros_:   5283, 5286.
        7314    equal_rc                 fort_cg_macros_:   5206, 5262.
        7300    equal_rd                 fort_cg_macros_:   5206, 5241.
        7346    equal_rh                 fort_cg_macros_:   5292, 5295.
        7261    equal_ri                 fort_cg_macros_:   5206, 5216.
        7270    equal_rr                 fort_cg_macros_:   5206, 5229.
        7346    equal_th                 fort_cg_macros_:   5292, 5296.
        7412    equal_tl                 fort_cg_macros_:   5206, 5356.
        7420    equal_tl.1               fort_cg_macros_:   5358, 5360.
       10275    equiv                    fort_cg_macros_:   5990,
                                         fort_operator_table:      119.
       10315    equiv.p                  fort_cg_macros_:   5992, 5994, 6017.
         100    error                    fort_equs:    105.
       11073    error_label              fort_cg_macros_:   6637,
                                         fort_operator_table:       43.
          12    error_label_slot         fort_cg_macros_:   6642,
                                         fort_equs:    158.
         475    error_macro              fort_cg_macros_:    183,  291.
       12743    evaluate_arglist         fort_cg_macros_:   7870, 8164, 8169, 8174, 8181, 8185, 8188, 8191.
       12321    exit                     fort_cg_macros_:   7668,
                                         fort_operator_table:       61.
        4114    exp                      fort_cg_macros_:   2100, 2689.
        4120    exp.1                    fort_cg_macros_:   2691, 2695.
        4123    exp.2                    fort_cg_macros_:   2697, 2702.
        2121    exponentiation           fort_cg_macros_:   1441,
                                         fort_operator_table:       22.
        2342    exponentiation_cc        fort_cg_macros_:   1444, 1646.
        2345    exponentiation_cc.01     fort_cg_macros_:   1576, 1583, 1623, 1650.
        2323    exponentiation_cd        fort_cg_macros_:   1444, 1625.
        2270    exponentiation_ci        fort_cg_macros_:   1444, 1585.
        2324    exponentiation_cr        fort_cg_macros_:   1444, 1628.
        2333    exponentiation_cr.01     fort_cg_macros_:   1601, 1609, 1637.
        2312    exponentiation_dc        fort_cg_macros_:   1444, 1611.
        2223    exponentiation_dd        fort_cg_macros_:   1444, 1530.
        2224    exponentiation_dd.01     fort_cg_macros_:   1504, 1533.
        2225    exponentiation_dd.02     fort_cg_macros_:   1498, 1535, 1547.
        2203    exponentiation_di        fort_cg_macros_:   1444, 1506.
        2236    exponentiation_dr        fort_cg_macros_:   1444, 1549.
        2353    exponentiation_e1        fort_cg_macros_:   1444, 1658.
        2355    exponentiation_e2        fort_cg_macros_:   1444, 1661.
        2246    exponentiation_ic        fort_cg_macros_:   1444, 1560.
        2170    exponentiation_id        fort_cg_macros_:   1444, 1487.
        2135    exponentiation_ii        fort_cg_macros_:   1444, 1446.
        2145    exponentiation_ir        fort_cg_macros_:   1444, 1457.
        2315    exponentiation_rc        fort_cg_macros_:   1444, 1616.
        2233    exponentiation_rd        fort_cg_macros_:   1444, 1543.
        2160    exponentiation_ri        fort_cg_macros_:   1444, 1476.
        2213    exponentiation_rr        fort_cg_macros_:   1444, 1517.
        2214    exponentiation_rr.01     fort_cg_macros_:   1474, 1520.
        2215    exponentiation_rr.02     fort_cg_macros_:   1468, 1522.
        1314    exp_                     fort_cg_macros_:   2707,
                                         fort_equs:    220.
        4122    exp_i                    fort_cg_macros_:   2690, 2699.
        1000    external                 fort_cg_macros_:   8172,
                                         fort_equs:    102.
        1045    ext_entry                fort_cg_macros_:   7964,
                                         fort_equs:    180.
        1046    ext_entry_desc           fort_cg_macros_:   7968,
                                         fort_equs:    181.
       13056    ext_join                 fort_cg_macros_:   8212, 8222.
          36    file_name_slot           fort_cg_macros_:   6926,
                                         fort_equs:    163.
          40    file_type_slot           fort_cg_macros_:   6928,
                                         fort_equs:    164.
         470    first_scan               fort_cg_macros_:    181,  285.
        6442    fld.tl                   fort_cg_macros_:   2100, 4685.
        5704    float                    fort_cg_macros_:   2100, 4124.
        5710    float.p                  fort_cg_macros_:   4125, 4135.
       11041    format                   fort_cg_macros_:   6592,
                                         fort_operator_table:       41.
       11053    format.pp                fort_cg_macros_:   6596, 6611.
       11055    format.pv                fort_cg_macros_:   6614, 6618.
       11057    format_c                 fort_cg_macros_:   6594, 6598, 6617.
           6    format_slot              fort_cg_macros_:   6607, 6621,
                                         fort_equs:    156.
       13243    form_VLA_packed_ptr      fort_cg_macros_:   8419,
                                         fort_operator_table:       81.
        1422    fortran_chain            fort_cg_macros_:   8385,
                                         fort_equs:    244.
        1447    fortran_end              fort_cg_macros_:   7686,
                                         fort_equs:    183.
        1420    fortran_pause            fort_cg_macros_:   7709,
                                         fort_equs:    242.
        1421    fortran_stop             fort_cg_macros_:   7730,
                                         fort_equs:    243.
        1471    fort_cleanup             fort_cg_macros_:   7989,
                                         fort_equs:    266.
        1450    fort_dmod                fort_cg_macros_:   3532,
                                         fort_equs:    184.
         767    fort_modfl               fort_cg_macros_:   3517,
                                         fort_equs:    223.
        1470    fort_return_mac          fort_cg_macros_:   8070,
                                         fort_equs:    265.
        1472    fort_storage             fort_cg_macros_:   8006,
                                         fort_equs:    267.
         400    for_divide               fort_equs:    138.
        1252    ftn_array_xmit           fort_cg_macros_:   6757, 6828,
                                         fort_equs:    204.
        1440    ftn_get_area_ptr         fort_cg_macros_:   6962, 7079,
                                         fort_equs:    250.
        1466    ftn_inquire_element      fort_cg_macros_:   7093,
                                         fort_equs:    263.
        1250    ftn_manip                fort_cg_macros_:   6841, 6858, 6876, 6898, 6934, 7060, 7215, 7229,
                                         fort_equs:    205.
        1437    ftn_open_element         fort_cg_macros_:   6981,
                                         fort_equs:    249.
        1246    ftn_read                 fort_cg_macros_:   6564,
                                         fort_equs:    201.
        1251    ftn_scalar_xmit          fort_cg_macros_:   6685,
                                         fort_equs:    203.
        1253    ftn_terminate            fort_cg_macros_:   7330,
                                         fort_equs:    206.
        1247    ftn_write                fort_cg_macros_:   6583,
                                         fort_equs:    202.
       12561    func                     fort_cg_macros_:   7938,
                                         fort_operator_table:       72.
       12534    func_join                fort_cg_macros_:   7881, 7886, 7890, 7894, 7898, 7903.
       12507    func_ref                 fort_cg_macros_:   7868,
                                         fort_operator_table:       68.
       12540    func_ref.star_extent     fort_cg_macros_:   7876, 7912.
        4254    g.amax1                  fort_cg_macros_:   2753, 2757, 2768, 2848.
        4272    g.amax1.dp               fort_cg_macros_:   2857, 2870.
        4264    g.amax1.int              fort_cg_macros_:   2856, 2861.
        4260    g.amax1.loop             fort_cg_macros_:   2854, 2884.
        4273    g.amax1.loop.1           fort_cg_macros_:   2826, 2852, 2855, 2868, 2873.
        4304    g.amax1.r                fort_cg_macros_:   2879, 2886.
        4603    g.amin1                  fort_cg_macros_:   3100, 3104, 3115, 3195.
        4621    g.amin1.dp               fort_cg_macros_:   3204, 3217.
        4613    g.amin1.int              fort_cg_macros_:   3203, 3208.
        4607    g.amin1.loop             fort_cg_macros_:   3201, 3231.
        4622    g.amin1.loop.1           fort_cg_macros_:   3173, 3199, 3202, 3215, 3220.
        4633    g.amin1.r                fort_cg_macros_:   3226, 3233.
        4305    g.dmax1                  fort_cg_macros_:   2761, 2765, 2771, 2889.
        4315    g.dmax1.int              fort_cg_macros_:   2897, 2902.
        4311    g.dmax1.loop             fort_cg_macros_:   2895, 2930.
        4327    g.dmax1.loop.1           fort_cg_macros_:   2778, 2830, 2871, 2893, 2896, 2909, 2917.
        4332    g.dmax1.loop.2           fort_cg_macros_:   2915, 2922.
        4340    g.dmax1.r                fort_cg_macros_:   2925, 2932.
        4323    g.dmax1.real             fort_cg_macros_:   2898, 2911.
        4634    g.dmin1                  fort_cg_macros_:   3108, 3112, 3118, 3236.
        4644    g.dmin1.int              fort_cg_macros_:   3244, 3249.
        4640    g.dmin1.loop             fort_cg_macros_:   3242, 3277.
        4656    g.dmin1.loop.1           fort_cg_macros_:   3125, 3177, 3218, 3240, 3243, 3256, 3264.
        4661    g.dmin1.loop.2           fort_cg_macros_:   3262, 3269.
        4667    g.dmin1.r                fort_cg_macros_:   3272, 3279.
        4652    g.dmin1.real             fort_cg_macros_:   3245, 3258.
        4226    g.max0                   fort_cg_macros_:   2749, 2811.
        4240    g.max0.dp                fort_cg_macros_:   2820, 2828.
        4232    g.max0.loop              fort_cg_macros_:   2817, 2843.
        4242    g.max0.loop.1            fort_cg_macros_:   2815, 2818, 2832.
        4253    g.max0.r                 fort_cg_macros_:   2838, 2845.
        4236    g.max0.real              fort_cg_macros_:   2819, 2824.
        4555    g.min0                   fort_cg_macros_:   3096, 3158.
        4567    g.min0.dp                fort_cg_macros_:   3167, 3175.
        4561    g.min0.loop              fort_cg_macros_:   3164, 3190.
        4571    g.min0.loop.1            fort_cg_macros_:   3162, 3165, 3179.
        4602    g.min0.r                 fort_cg_macros_:   3185, 3192.
        4565    g.min0.real              fort_cg_macros_:   3166, 3171.
        1417    get_math_entry           fort_cg_macros_:   8210,
                                         fort_equs:    241.
       10014    greater                  fort_cg_macros_:   5725,
                                         fort_operator_table:       29.
       10131    greater_cc               fort_cg_macros_:   5729, 5834.
       10126    greater_cd               fort_cg_macros_:   5729, 5831.
       10151    greater_ch               fort_cg_macros_:   5839, 5856.
       10115    greater_ci               fort_cg_macros_:   5729, 5819.
       10121    greater_cr               fort_cg_macros_:   5729, 5825.
       10123    greater_dc               fort_cg_macros_:   5729, 5828.
       10065    greater_dd               fort_cg_macros_:   5729, 5779.
       10072    greater_dd.1             fort_cg_macros_:   5780, 5787.
       10151    greater_dh               fort_cg_macros_:   5839, 5855.
       10052    greater_di               fort_cg_macros_:   5729, 5761.
       10104    greater_dr               fort_cg_macros_:   5729, 5804.
       10111    greater_dr.1             fort_cg_macros_:   5805, 5812.
       10166    greater_e1               fort_cg_macros_:   5729, 5878.
       10134    greater_e2               fort_cg_macros_:   5729, 5837.
       10202    greater_hc               fort_cg_macros_:   5884, 5896.
       10202    greater_hd               fort_cg_macros_:   5884, 5895.
       10160    greater_hh               fort_cg_macros_:   5839, 5868, 5884.
       10176    greater_hi               fort_cg_macros_:   5884, 5886.
       10176    greater_hr               fort_cg_macros_:   5884, 5887.
       10176    greater_ht               fort_cg_macros_:   5884, 5888.
       10113    greater_ic               fort_cg_macros_:   5729, 5816.
       10046    greater_id               fort_cg_macros_:   5729, 5754.
       10142    greater_ih               fort_cg_macros_:   5839, 5841.
       10031    greater_ii               fort_cg_macros_:   5729, 5731.
       10035    greater_ii.1             fort_cg_macros_:   5732, 5738.
       10037    greater_ir               fort_cg_macros_:   5729, 5742.
        7606    greater_or_equal         fort_cg_macros_:   5531,
                                         fort_operator_table:       28.
        7723    greater_or_equal_cc      fort_cg_macros_:   5536, 5641.
        7720    greater_or_equal_cd      fort_cg_macros_:   5536, 5638.
        7743    greater_or_equal_ch      fort_cg_macros_:   5646, 5663.
        7707    greater_or_equal_ci      fort_cg_macros_:   5536, 5626.
        7713    greater_or_equal_cr      fort_cg_macros_:   5536, 5632.
        7715    greater_or_equal_dc      fort_cg_macros_:   5536, 5635.
        7657    greater_or_equal_dd      fort_cg_macros_:   5536, 5586.
        7664    greater_or_equal_dd.1    fort_cg_macros_:   5587, 5594.
        7743    greater_or_equal_dh      fort_cg_macros_:   5646, 5662.
        7644    greater_or_equal_di      fort_cg_macros_:   5536, 5568.
        7676    greater_or_equal_dr      fort_cg_macros_:   5536, 5611.
        7703    greater_or_equal_dr.1    fort_cg_macros_:   5612, 5619.
        7760    greater_or_equal_e1      fort_cg_macros_:   5536, 5685.
        7726    greater_or_equal_e2      fort_cg_macros_:   5536, 5644.
        7774    greater_or_equal_hc      fort_cg_macros_:   5691, 5703.
        7774    greater_or_equal_hd      fort_cg_macros_:   5691, 5702.
        7752    greater_or_equal_hh      fort_cg_macros_:   5646, 5675, 5691.
        7770    greater_or_equal_hi      fort_cg_macros_:   5691, 5693.
        7770    greater_or_equal_hr      fort_cg_macros_:   5691, 5694.
        7770    greater_or_equal_ht      fort_cg_macros_:   5691, 5695.
        7705    greater_or_equal_ic      fort_cg_macros_:   5536, 5623.
        7640    greater_or_equal_id      fort_cg_macros_:   5536, 5561.
        7734    greater_or_equal_ih      fort_cg_macros_:   5646, 5648.
        7623    greater_or_equal_ii      fort_cg_macros_:   5536, 5538.
        7627    greater_or_equal_ii.1    fort_cg_macros_:   5539, 5545.
        7631    greater_or_equal_ir      fort_cg_macros_:   5536, 5549.
        7711    greater_or_equal_rc      fort_cg_macros_:   5536, 5629.
        7667    greater_or_equal_rd      fort_cg_macros_:   5536, 5599.
        7673    greater_or_equal_rd.1    fort_cg_macros_:   5600, 5606.
        7734    greater_or_equal_rh      fort_cg_macros_:   5646, 5649.
        7635    greater_or_equal_ri      fort_cg_macros_:   5536, 5556.
        7647    greater_or_equal_rr      fort_cg_macros_:   5536, 5573.
        7654    greater_or_equal_rr.1    fort_cg_macros_:   5574, 5581.
        7734    greater_or_equal_th      fort_cg_macros_:   5646, 5650.
       10000    greater_or_equal_tl      fort_cg_macros_:   5536, 5710.
       10006    greater_or_equal_tl.1    fort_cg_macros_:   5712, 5714.
       10012    greater_or_equal_tl.2    fort_cg_macros_:   5715, 5721.
       10117    greater_rc               fort_cg_macros_:   5729, 5822.
       10075    greater_rd               fort_cg_macros_:   5729, 5792.
       10101    greater_rd.1             fort_cg_macros_:   5793, 5799.
       10142    greater_rh               fort_cg_macros_:   5839, 5842.
       10043    greater_ri               fort_cg_macros_:   5729, 5749.
       10055    greater_rr               fort_cg_macros_:   5729, 5766.
       10062    greater_rr.1             fort_cg_macros_:   5767, 5774.
       10142    greater_th               fort_cg_macros_:   5839, 5843.
       10206    greater_tl               fort_cg_macros_:   5729, 5903.
       10214    greater_tl.1             fort_cg_macros_:   5905, 5907.
       10220    greater_tl.2             fort_cg_macros_:   5908, 5914.
        4000    ia                       fort_cg_macros_:   4697, 4709, 4721, 4733,
                                         fort_equs:     80.
        3424    iabs                     fort_cg_macros_:   2100, 2212.
        3425    iabs.1                   fort_cg_macros_:   2207, 2214.
        3457    iabs.p                   fort_cg_macros_:   2213, 2250.
        6242    ichar                    fort_cg_macros_:   2100, 4459.
        6254    ichar.aligned            fort_cg_macros_:   4466, 4477.
        6261    ichar.constant           fort_cg_macros_:   4462, 4487.
        6263    ichar.p                  fort_cg_macros_:   4460, 4491.
        3770    idim                     fort_cg_macros_:   2100, 2553.
        4113    idim.p                   fort_cg_macros_:   2555, 2557, 2685.
        5600    idint                    fort_cg_macros_:   2100, 4009.
        5602    idint.p                  fort_cg_macros_:   4010, 4016.
        5662    idnint                   fort_cg_macros_:   2100, 4093.
        5664    idnint.p                 fort_cg_macros_:   4094, 4099.
        3000    ieaq                     fort_cg_macros_:    522,  523,  535,  551,  552,  564,  575,  578,  582,  595,  799,
                                                             802,  816,  832,  833,  848,  862,  865,  879,  895,  896,  911,
                                                             923,  926,  930,  945, 1066, 1069, 1082, 1099, 1102, 1115, 1279,
                                                            1283, 1300, 1315, 1319, 1336, 1696, 1699, 1710, 1713, 4142, 4220,
                                                            4227, 4240, 4244, 4259, 4265, 4292, 4299, 4307,
                                         fort_equs:     78.
        5576    ifix                     fort_cg_macros_:   2100, 4004.
        5602    ifix.p                   fort_cg_macros_:   4005, 4015.
         400    if_bit                   fort_cg_macros_:    229, 1818, 1837, 4466, 6598, 6618, 6701, 6710, 6719, 6728, 6737,
                                                            6774, 6783, 6792, 6801, 6810, 6918, 6921, 7307, 7963, 8116, 8117,
                                                            8118, 8188, 8248, 8268, 8270, 8280, 8295,
                                         fort_equs:     50.
        6451    ilr.1                    fort_cg_macros_:   4690, 4692.
        6456    ilr.2                    fort_cg_macros_:   4693, 4695.
        6444    ilr.tl                   fort_cg_macros_:   2100, 4689.
        6467    ils.1                    fort_cg_macros_:   4702, 4704.
        6474    ils.2                    fort_cg_macros_:   4705, 4707.
        6462    ils.tl                   fort_cg_macros_:   2100, 4701.
       12725    increment_polish         fort_cg_macros_:   8134,
                                         fort_operator_table:       70.
       13070    inc_for_hdr              fort_cg_macros_:   8236, 8239.
        5000    ind                      fort_cg_macros_:   5954, 6038, 6398, 6496,
                                         fort_equs:     82.
        6264    index                    fort_cg_macros_:   2100, 4494.
        6306    index.1                  fort_cg_macros_:   4500, 4525.
        6321    index.2                  fort_cg_macros_:   4501, 4545.
        6334    index.p                  fort_cg_macros_:   4495, 4497, 4565.
        1231    index_cs_eis             fort_cg_macros_:   4519,
                                         fort_equs:    252.
      776000    indices                  fort_cg_macros_:   8257,
                                         fort_equs:    122,  124.
         200    inhibit                  fort_cg_macros_:    201,  207,  208,  210,  212,  220,  227,  229,  231,  236,  239,
                                                             241,  245,  251,  256,  266,  269,  275,  280,  286,  289,  292,
                                                             296,  299,  300,  301,  304,  305,  306,  309,  310,  311,  314,
                                                             315,  316,  319,  320,  321,  324,  325,  326,  329,  330,  331,
                                                             334,  336,  339,  340,  341,  344,  345,  346,  349,  350,  353,
                                                             354,  355,  358,  360,  361,  364,  367,  368,  369,  372,  373,
                                                             376,  377,  378,  381,  382,  383,  386,  388,  390,  391,  392,
                                                             395,  401,  402,  403,  404,  405,  409,  410,  411,  412,  413,
                                                             417,  422,  425,  426,  429,  430,  433,  434,  437,  440,  441,
                                                             444,  445,  448,  449,  450,  453,  458,  461,  463,  466,  469,
                                                             471,  474,  477,  479,  482,  484,  487,  489,  492,  495,  497,
                                                             499,  503,  506,  509,  510,  511,  514,  517,  519,  520,  522,
                                                             523,  526,  527,  532,  533,  535,  536,  540,  543,  546,  548,
                                                             549,  551,  552,  555,  556,  561,  562,  564,  565,  569,  572,
                                                             574,  575,  576,  578,  581,  582,  585,  586,  591,  592,  595,
                                                             596,  600,  604,  607,  610,  613,  614,  618,  622,  625,  627,
                                                             630,  632,  634,  637,  639,  641,  645,  648,  649,  650,  653,
                                                             656,  658,  661,  664,  666,  668,  671,  673,  675,  679,  682,
                                                             683,  684,  687,  690,  692,  695,  698,  699,  701,  703,  706,
                                                             709,  712,  713,  715,  717,  720,  723,  726,  727,  729,  731,
                                                             734,  737,  740,  741,  743,  745,  748,  751,  754,  756,  758,
                                                             760,  761,  762,  764,  767,  768,  769,  770,  773,  775,  777,
                                                             779,  780,  783,  786,  788,  789,  790,  793,  795,  796,  797,
                                                             799,  800,  802,  805,  806,  811,  812,  814,  816,  817,  820,
                                                             823,  826,  828,  829,  830,  832,  833,  836,  837,  840,  845,
                                                             846,  848,  849,  853,  856,  858,  859,  860,  862,  863,  865,
                                                             868,  869,  874,  875,  877,  879,  880,  883,  886,  889,  891,
                                                             892,  893,  895,  896,  899,  900,  903,  908,  909,  911,  912,
                                                             916,  919,  921,  922,  923,  924,  926,  929,  930,  933,  934,
                                                             937,  941,  942,  945,  946,  949,  952,  956,  959,  962,  965,
                                                             966,  967,  971,  975,  978,  979,  982,  986,  989,  992,  994,
                                                             997, 1000, 1002, 1005, 1007, 1010, 1012, 1015, 1018, 1020, 1022,
                                                            1026, 1029, 1032, 1034, 1036, 1038, 1039, 1041, 1042, 1045, 1046,
                                                            1047, 1048, 1051, 1053, 1054, 1055, 1058, 1061, 1063, 1064, 1066,
                                                            1068, 1069, 1072, 1073, 1076, 1079, 1082, 1083, 1086, 1088, 1091,
                                                            1094, 1096, 1097, 1099, 1101, 1102, 1105, 1106, 1109, 1112, 1115,
                                                            1116, 1119, 1121, 1124, 1125, 1128, 1129, 1133, 1134, 1137, 1140,
                                                            1144, 1147, 1150, 1154, 1157, 1158, 1160, 1163, 1165, 1167, 1170,
                                                            1172, 1175, 1177, 1179, 1182, 1184, 1187, 1189, 1191, 1195, 1198,
                                                            1200, 1202, 1206, 1209, 1211, 1214, 1216, 1219, 1221, 1223, 1224,
                                                            1225, 1229, 1232, 1233, 1234, 1237, 1239, 1241, 1243, 1244, 1246,
                                                            1247, 1250, 1251, 1252, 1253, 1256, 1258, 1259, 1260, 1263, 1266,
                                                            1267, 1270, 1271, 1274, 1276, 1277, 1279, 1280, 1283, 1286, 1287,
                                                            1290, 1292, 1296, 1297, 1300, 1301, 1304, 1305, 1306, 1307, 1310,
                                                            1312, 1313, 1315, 1316, 1319, 1322, 1323, 1326, 1328, 1332, 1333,
                                                            1336, 1337, 1340, 1341, 1344, 1345, 1348, 1349, 1350, 1353, 1355,
                                                            1358, 1361, 1364, 1366, 1367, 1369, 1372, 1373, 1374, 1379, 1380,
                                                            1381, 1382, 1384, 1387, 1388, 1389, 1394, 1396, 1397, 1399, 1402,
                                                            1403, 1404, 1409, 1410, 1411, 1412, 1414, 1417, 1418, 1419, 1432,
                                                            1433, 1434, 1435, 1438, 1439, 1444, 1447, 1449, 1450, 1451, 1452,
                                                            1454, 1455, 1458, 1460, 1462, 1464, 1465, 1466, 1468, 1471, 1473,
                                                            1474, 1477, 1479, 1480, 1481, 1482, 1484, 1485, 1488, 1490, 1492,
                                                            1494, 1495, 1496, 1498, 1501, 1503, 1504, 1507, 1509, 1510, 1511,
                                                            1512, 1514, 1515, 1518, 1521, 1523, 1524, 1525, 1527, 1528, 1531,
                                                            1534, 1536, 1537, 1538, 1540, 1541, 1544, 1546, 1547, 1550, 1552,
                                                            1553, 1554, 1555, 1557, 1558, 1561, 1562, 1563, 1565, 1567, 1568,
                                                            1569, 1570, 1572, 1576, 1579, 1581, 1582, 1583, 1586, 1587, 1588,
                                                            1590, 1592, 1594, 1595, 1596, 1598, 1601, 1604, 1606, 1607, 1609,
                                                            1612, 1613, 1614, 1617, 1618, 1620, 1621, 1623, 1626, 1629, 1630,
                                                            1631, 1633, 1634, 1639, 1640, 1643, 1644, 1647, 1648, 1649, 1651,
                                                            1652, 1655, 1656, 1659, 1662, 1666, 1667, 1668, 1669, 1671, 1674,
                                                            1676, 1679, 1680, 1682, 1685, 1686, 1688, 1691, 1693, 1694, 1696,
                                                            1697, 1699, 1700, 1701, 1703, 1704, 1707, 1709, 1710, 1711, 1713,
                                                            1714, 1720, 1721, 1722, 1723, 1725, 1726, 1727, 1728, 1730, 1731,
                                                            1733, 1734, 1736, 1738, 1739, 1740, 1743, 1744, 1745, 1746, 1747,
                                                            1748, 1749, 1750, 1751, 1754, 1756, 1757, 1759, 1761, 1762, 1763,
                                                            1770, 1771, 1773, 1777, 1778, 1780, 1782, 1784, 1787, 1793, 1795,
                                                            1798, 1802, 1803, 1805, 1806, 1807, 1808, 1811, 1813, 1815, 1816,
                                                            1818, 1820, 1826, 1827, 1829, 1831, 1833, 1835, 1837, 1839, 1840,
                                                            1843, 1844, 1848, 1850, 1858, 1860, 1864, 1865, 1869, 1871, 1874,
                                                            1875, 1876, 1877, 1878, 1879, 1880, 1881, 1882, 1885, 1887, 1888,
                                                            1890, 1898, 1899, 1901, 1905, 1906, 1908, 1910, 1912, 1913, 1915,
                                                            1921, 1923, 1926, 1927, 1928, 1929, 1930, 1931, 1932, 1933, 1934,
                                                            1937, 1939, 1940, 1942, 1950, 1951, 1953, 1957, 1958, 1960, 1962,
                                                            1964, 1965, 1967, 1973, 1975, 1980, 1983, 1986, 1988, 1989, 1992,
                                                            1994, 1995, 1998, 2000, 2001, 2004, 2006, 2007, 2010, 2013, 2016,
                                                            2017, 2020, 2021, 2024, 2027, 2028, 2029, 2031, 2034, 2037, 2038,
                                                            2041, 2044, 2045, 2048, 2049, 2052, 2053, 2056, 2057, 2065, 2066,
                                                            2068, 2069, 2071, 2073, 2076, 2077, 2079, 2082, 2083, 2086, 2087,
                                                            2090, 2091, 2094, 2097, 2100, 2103, 2107, 2112, 2113, 2116, 2117,
                                                            2118, 2121, 2123, 2126, 2128, 2131, 2133, 2136, 2138, 2141, 2143,
                                                            2146, 2148, 2151, 2153, 2156, 2158, 2161, 2162, 2163, 2164, 2167,
                                                            2168, 2169, 2170, 2173, 2174, 2175, 2176, 2179, 2180, 2181, 2187,
                                                            2189, 2192, 2194, 2197, 2199, 2202, 2204, 2207, 2208, 2209, 2210,
                                                            2213, 2215, 2219, 2222, 2224, 2226, 2229, 2231, 2233, 2235, 2238,
                                                            2240, 2241, 2242, 2243, 2244, 2247, 2248, 2251, 2254, 2257, 2260,
                                                            2261, 2262, 2263, 2266, 2267, 2270, 2273, 2274, 2275, 2276, 2278,
                                                            2279, 2282, 2284, 2285, 2286, 2287, 2288, 2290, 2291, 2294, 2296,
                                                            2297, 2298, 2299, 2300, 2303, 2304, 2307, 2310, 2313, 2314, 2315,
                                                            2316, 2319, 2320, 2323, 2326, 2327, 2328, 2329, 2331, 2332, 2335,
                                                            2337, 2338, 2339, 2340, 2341, 2343, 2344, 2347, 2350, 2353, 2354,
                                                            2355, 2356, 2359, 2360, 2363, 2366, 2367, 2368, 2369, 2371, 2372,
                                                            2375, 2377, 2378, 2379, 2380, 2381, 2383, 2384, 2387, 2390, 2393,
                                                            2396, 2397, 2400, 2401, 2404, 2405, 2408, 2409, 2412, 2413, 2416,
                                                            2419, 2422, 2423, 2424, 2425, 2426, 2427, 2430, 2431, 2432, 2433,
                                                            2434, 2435, 2438, 2441, 2444, 2447, 2450, 2453, 2456, 2459, 2462,
                                                            2465, 2466, 2467, 2468, 2469, 2470, 2472, 2473, 2476, 2477, 2478,
                                                            2479, 2482, 2483, 2484, 2485, 2486, 2488, 2490, 2491, 2495, 2498,
                                                            2499, 2500, 2501, 2504, 2505, 2508, 2511, 2512, 2513, 2514, 2516,
                                                            2517, 2520, 2522, 2523, 2524, 2525, 2526, 2528, 2529, 2532, 2534,
                                                            2535, 2536, 2537, 2538, 2541, 2542, 2545, 2548, 2551, 2554, 2555,
                                                            2556, 2557, 2560, 2562, 2563, 2564, 2571, 2574, 2575, 2578, 2579,
                                                            2582, 2583, 2586, 2587, 2590, 2593, 2596, 2599, 2602, 2605, 2608,
                                                            2611, 2614, 2617, 2620, 2623, 2626, 2629, 2630, 2631, 2632, 2636,
                                                            2639, 2642, 2643, 2644, 2645, 2648, 2649, 2650, 2651, 2655, 2658,
                                                            2661, 2662, 2663, 2664, 2668, 2671, 2674, 2675, 2676, 2680, 2683,
                                                            2687, 2690, 2691, 2692, 2693, 2696, 2697, 2700, 2703, 2704, 2705,
                                                            2706, 2708, 2709, 2712, 2715, 2716, 2717, 2718, 2719, 2721, 2722,
                                                            2725, 2728, 2729, 2730, 2731, 2732, 2735, 2736, 2739, 2742, 2745,
                                                            2746, 2749, 2752, 2753, 2756, 2757, 2760, 2761, 2764, 2765, 2768,
                                                            2771, 2774, 2775, 2776, 2777, 2778, 2781, 2782, 2785, 2788, 2791,
                                                            2794, 2797, 2800, 2803, 2806, 2809, 2812, 2813, 2814, 2815, 2818,
                                                            2819, 2820, 2822, 2826, 2830, 2836, 2838, 2840, 2841, 2842, 2843,
                                                            2846, 2849, 2850, 2851, 2852, 2855, 2856, 2857, 2859, 2862, 2863,
                                                            2864, 2866, 2867, 2868, 2871, 2877, 2879, 2881, 2882, 2883, 2884,
                                                            2887, 2890, 2891, 2892, 2893, 2896, 2897, 2898, 2900, 2903, 2904,
                                                            2905, 2907, 2908, 2909, 2915, 2923, 2925, 2927, 2928, 2929, 2930,
                                                            2933, 2936, 2937, 2938, 2939, 2940, 2942, 2943, 2944, 2950, 2952,
                                                            2954, 2955, 2956, 2957, 2958, 2962, 2965, 2968, 2969, 2970, 2971,
                                                            2972, 2974, 2975, 2981, 2983, 2985, 2986, 2987, 2988, 2989, 2992,
                                                            2995, 2998, 2999, 3000, 3001, 3002, 3004, 3005, 3011, 3013, 3015,
                                                            3016, 3017, 3018, 3019, 3022, 3025, 3028, 3029, 3030, 3031, 3032,
                                                            3034, 3035, 3036, 3037, 3043, 3045, 3047, 3048, 3049, 3050, 3051,
                                                            3055, 3058, 3061, 3062, 3063, 3064, 3065, 3067, 3068, 3069, 3075,
                                                            3077, 3079, 3080, 3081, 3082, 3083, 3086, 3089, 3092, 3093, 3096,
                                                            3099, 3100, 3103, 3104, 3107, 3108, 3111, 3112, 3115, 3118, 3121,
                                                            3122, 3123, 3124, 3125, 3128, 3129, 3132, 3135, 3138, 3141, 3144,
                                                            3147, 3150, 3153, 3156, 3159, 3160, 3161, 3162, 3165, 3166, 3167,
                                                            3169, 3173, 3177, 3183, 3185, 3187, 3188, 3189, 3190, 3193, 3196,
                                                            3197, 3198, 3199, 3202, 3203, 3204, 3206, 3209, 3210, 3211, 3213,
                                                            3214, 3215, 3218, 3224, 3226, 3228, 3229, 3230, 3231, 3234, 3237,
                                                            3238, 3239, 3240, 3243, 3244, 3245, 3247, 3250, 3251, 3252, 3254,
                                                            3255, 3256, 3262, 3270, 3272, 3274, 3275, 3276, 3277, 3280, 3283,
                                                            3284, 3285, 3286, 3287, 3289, 3290, 3291, 3297, 3299, 3301, 3302,
                                                            3303, 3304, 3305, 3309, 3312, 3315, 3316, 3317, 3318, 3319, 3321,
                                                            3322, 3323, 3329, 3331, 3333, 3334, 3335, 3336, 3337, 3340, 3343,
                                                            3346, 3347, 3348, 3349, 3350, 3352, 3353, 3359, 3361, 3363, 3364,
                                                            3365, 3366, 3367, 3370, 3373, 3376, 3377, 3378, 3379, 3380, 3382,
                                                            3383, 3384, 3385, 3391, 3393, 3395, 3396, 3397, 3398, 3399, 3403,
                                                            3406, 3409, 3410, 3411, 3412, 3413, 3415, 3416, 3417, 3423, 3425,
                                                            3427, 3428, 3429, 3430, 3431, 3434, 3437, 3440, 3443, 3446, 3447,
                                                            3450, 3451, 3454, 3455, 3458, 3459, 3462, 3465, 3468, 3471, 3474,
                                                            3477, 3480, 3483, 3486, 3489, 3492, 3495, 3498, 3501, 3502, 3504,
                                                            3506, 3509, 3510, 3511, 3512, 3515, 3516, 3518, 3519, 3522, 3523,
                                                            3524, 3525, 3528, 3530, 3531, 3533, 3534, 3537, 3538, 3542, 3545,
                                                            3548, 3549, 3550, 3551, 3554, 3555, 3557, 3558, 3561, 3562, 3565,
                                                            3566, 3569, 3570, 3573, 3574, 3577, 3580, 3583, 3586, 3589, 3592,
                                                            3595, 3598, 3601, 3604, 3607, 3610, 3613, 3616, 3617, 3619, 3620,
                                                            3623, 3624, 3625, 3626, 3629, 3630, 3633, 3634, 3637, 3638, 3639,
                                                            3643, 3646, 3648, 3650, 3652, 3653, 3655, 3656, 3657, 3658, 3659,
                                                            3662, 3664, 3665, 3668, 3670, 3672, 3673, 3675, 3676, 3677, 3678,
                                                            3681, 3683, 3686, 3688, 3690, 3692, 3693, 3695, 3696, 3697, 3698,
                                                            3699, 3702, 3704, 3705, 3708, 3710, 3712, 3713, 3715, 3716, 3717,
                                                            3718, 3721, 3723, 3726, 3728, 3730, 3732, 3733, 3735, 3736, 3737,
                                                            3738, 3739, 3742, 3744, 3745, 3748, 3750, 3752, 3753, 3755, 3756,
                                                            3757, 3758, 3761, 3763, 3766, 3767, 3768, 3769, 3772, 3773, 3776,
                                                            3779, 3780, 3781, 3783, 3784, 3787, 3789, 3790, 3791, 3792, 3793,
                                                            3795, 3796, 3799, 3801, 3802, 3803, 3804, 3807, 3808, 3812, 3815,
                                                            3816, 3817, 3818, 3821, 3822, 3825, 3828, 3829, 3830, 3832, 3833,
                                                            3836, 3838, 3839, 3840, 3841, 3842, 3844, 3845, 3848, 3850, 3851,
                                                            3852, 3853, 3856, 3857, 3861, 3864, 3867, 3868, 3871, 3874, 3875,
                                                            3876, 3879, 3880, 3883, 3884, 3885, 3886, 3889, 3890, 3894, 3895,
                                                            3900, 3903, 3906, 3907, 3910, 3913, 3914, 3915, 3918, 3919, 3922,
                                                            3923, 3924, 3925, 3928, 3929, 3933, 3934, 3939, 3942, 3945, 3946,
                                                            3949, 3952, 3953, 3954, 3957, 3958, 3961, 3962, 3963, 3964, 3967,
                                                            3968, 3972, 3973, 3978, 3981, 3984, 3985, 3988, 3989, 3992, 3993,
                                                            3996, 3997, 4000, 4001, 4005, 4006, 4010, 4011, 4017, 4020, 4023,
                                                            4024, 4027, 4029, 4032, 4034, 4038, 4039, 4044, 4047, 4050, 4051,
                                                            4054, 4056, 4059, 4061, 4065, 4066, 4071, 4074, 4077, 4078, 4081,
                                                            4082, 4084, 4087, 4088, 4090, 4094, 4095, 4100, 4103, 4106, 4107,
                                                            4110, 4111, 4114, 4115, 4117, 4120, 4121, 4125, 4126, 4130, 4131,
                                                            4137, 4140, 4142, 4143, 4146, 4149, 4152, 4153, 4156, 4157, 4160,
                                                            4161, 4164, 4165, 4168, 4171, 4172, 4173, 4176, 4179, 4180, 4183,
                                                            4184, 4187, 4188, 4190, 4193, 4194, 4197, 4198, 4199, 4202, 4205,
                                                            4208, 4211, 4212, 4213, 4214, 4215, 4216, 4217, 4218, 4219, 4220,
                                                            4221, 4224, 4225, 4226, 4227, 4228, 4229, 4230, 4231, 4232, 4235,
                                                            4236, 4237, 4238, 4240, 4241, 4244, 4246, 4247, 4250, 4251, 4252,
                                                            4253, 4255, 4257, 4259, 4260, 4263, 4265, 4267, 4269, 4270, 4273,
                                                            4276, 4284, 4287, 4289, 4291, 4292, 4294, 4295, 4297, 4299, 4301,
                                                            4302, 4305, 4307, 4309, 4311, 4312, 4315, 4318, 4319, 4320, 4321,
                                                            4324, 4325, 4328, 4331, 4332, 4333, 4335, 4336, 4339, 4341, 4342,
                                                            4343, 4344, 4345, 4347, 4348, 4351, 4354, 4357, 4358, 4359, 4360,
                                                            4363, 4364, 4367, 4370, 4371, 4372, 4374, 4375, 4378, 4380, 4381,
                                                            4382, 4383, 4384, 4386, 4387, 4390, 4393, 4396, 4397, 4398, 4399,
                                                            4402, 4403, 4406, 4409, 4410, 4411, 4413, 4414, 4417, 4419, 4420,
                                                            4421, 4422, 4423, 4425, 4426, 4429, 4432, 4435, 4437, 4439, 4441,
                                                            4443, 4448, 4450, 4453, 4454, 4457, 4460, 4462, 4464, 4466, 4468,
                                                            4473, 4475, 4478, 4482, 4485, 4488, 4489, 4492, 4495, 4496, 4497,
                                                            4499, 4500, 4501, 4505, 4507, 4509, 4510, 4513, 4515, 4517, 4518,
                                                            4521, 4523, 4529, 4531, 4543, 4549, 4551, 4563, 4566, 4569, 4571,
                                                            4573, 4576, 4579, 4580, 4581, 4583, 4585, 4590, 4593, 4596, 4597,
                                                            4598, 4600, 4602, 4607, 4610, 4613, 4614, 4615, 4617, 4619, 4624,
                                                            4627, 4630, 4631, 4632, 4634, 4636, 4641, 4644, 4647, 4648, 4649,
                                                            4650, 4651, 4653, 4656, 4659, 4660, 4661, 4665, 4666, 4667, 4668,
                                                            4669, 4670, 4673, 4676, 4677, 4680, 4683, 4686, 4687, 4690, 4693,
                                                            4696, 4697, 4699, 4702, 4705, 4708, 4709, 4711, 4714, 4717, 4720,
                                                            4721, 4723, 4726, 4729, 4732, 4733, 4735, 4738, 4739, 4740, 4744,
                                                            4745, 4746, 4747, 4748, 4749, 4752, 4755, 4756, 4757, 4761, 4762,
                                                            4763, 4764, 4765, 4766, 4769, 4772, 4773, 4776, 4777, 4780, 4781,
                                                            4784, 4785, 4788, 4791, 4795, 4798, 4801, 4804, 4807, 4810, 4816,
                                                            4818, 4821, 4823, 4825, 4829, 4832, 4834, 4836, 4839, 4841, 4844,
                                                            4846, 4848, 4851, 4853, 4856, 4858, 4859, 4861, 4864, 4866, 4869,
                                                            4871, 4872, 4874, 4877, 4879, 4882, 4884, 4886, 4889, 4891, 4894,
                                                            4896, 4897, 4899, 4903, 4906, 4909, 4912, 4915, 4918, 4921, 4924,
                                                            4927, 4928, 4933, 4935, 4936, 4938, 4940, 4942, 4946, 4948, 4949,
                                                            4951, 4953, 4955, 4958, 4960, 4965, 4968, 4970, 4971, 4973, 4978,
                                                            4980, 4982, 4986, 4988, 4990, 4993, 4994, 4997, 4999, 5001, 5005,
                                                            5010, 5012, 5015, 5017, 5019, 5023, 5026, 5028, 5030, 5033, 5035,
                                                            5038, 5040, 5042, 5045, 5047, 5050, 5052, 5053, 5055, 5058, 5060,
                                                            5063, 5065, 5066, 5068, 5071, 5073, 5076, 5078, 5080, 5083, 5085,
                                                            5088, 5090, 5091, 5093, 5097, 5100, 5103, 5106, 5109, 5112, 5115,
                                                            5118, 5121, 5122, 5127, 5129, 5130, 5132, 5134, 5136, 5140, 5142,
                                                            5143, 5145, 5147, 5149, 5152, 5154, 5159, 5162, 5164, 5165, 5167,
                                                            5172, 5174, 5176, 5180, 5182, 5184, 5187, 5188, 5191, 5193, 5195,
                                                            5199, 5204, 5206, 5209, 5211, 5214, 5217, 5219, 5222, 5225, 5227,
                                                            5230, 5231, 5233, 5236, 5237, 5239, 5242, 5245, 5247, 5248, 5250,
                                                            5254, 5257, 5260, 5263, 5266, 5269, 5272, 5275, 5277, 5280, 5281,
                                                            5283, 5284, 5287, 5289, 5292, 5297, 5299, 5300, 5302, 5304, 5306,
                                                            5310, 5312, 5313, 5315, 5317, 5319, 5322, 5324, 5329, 5332, 5334,
                                                            5335, 5337, 5342, 5344, 5346, 5350, 5352, 5354, 5357, 5358, 5361,
                                                            5363, 5369, 5371, 5374, 5376, 5379, 5382, 5384, 5387, 5390, 5392,
                                                            5395, 5396, 5398, 5401, 5402, 5404, 5407, 5410, 5412, 5413, 5415,
                                                            5419, 5422, 5425, 5428, 5431, 5434, 5437, 5440, 5442, 5445, 5446,
                                                            5448, 5449, 5452, 5454, 5457, 5462, 5464, 5465, 5467, 5469, 5471,
                                                            5475, 5477, 5478, 5480, 5482, 5484, 5487, 5489, 5494, 5497, 5499,
                                                            5500, 5502, 5507, 5509, 5511, 5515, 5517, 5519, 5523, 5524, 5527,
                                                            5529, 5534, 5536, 5539, 5541, 5543, 5547, 5550, 5552, 5554, 5557,
                                                            5559, 5562, 5564, 5566, 5569, 5571, 5574, 5576, 5577, 5579, 5582,
                                                            5584, 5587, 5589, 5590, 5592, 5595, 5597, 5600, 5602, 5604, 5607,
                                                            5609, 5612, 5614, 5615, 5617, 5621, 5624, 5627, 5630, 5633, 5636,
                                                            5639, 5642, 5645, 5646, 5651, 5653, 5654, 5656, 5658, 5660, 5664,
                                                            5666, 5667, 5669, 5671, 5673, 5676, 5678, 5683, 5686, 5688, 5689,
                                                            5691, 5696, 5698, 5700, 5704, 5706, 5708, 5711, 5712, 5715, 5717,
                                                            5719, 5723, 5727, 5729, 5732, 5734, 5736, 5740, 5743, 5745, 5747,
                                                            5750, 5752, 5755, 5757, 5759, 5762, 5764, 5767, 5769, 5770, 5772,
                                                            5775, 5777, 5780, 5782, 5783, 5785, 5788, 5790, 5793, 5795, 5797,
                                                            5800, 5802, 5805, 5807, 5808, 5810, 5814, 5817, 5820, 5823, 5826,
                                                            5829, 5832, 5835, 5838, 5839, 5844, 5846, 5847, 5849, 5851, 5853,
                                                            5857, 5859, 5860, 5862, 5864, 5866, 5869, 5871, 5876, 5879, 5881,
                                                            5882, 5884, 5889, 5891, 5893, 5897, 5899, 5901, 5904, 5905, 5908,
                                                            5910, 5912, 5916, 5920, 5921, 5922, 5924, 5926, 5929, 5932, 5936,
                                                            5937, 5938, 5940, 5942, 5945, 5948, 5952, 5954, 5956, 5958, 5961,
                                                            5964, 5967, 5970, 5973, 5976, 5979, 5982, 5985, 5988, 5992, 5993,
                                                            5994, 5996, 5998, 6000, 6006, 6007, 6008, 6010, 6012, 6014, 6019,
                                                            6024, 6027, 6032, 6034, 6036, 6038, 6040, 6043, 6049, 6054, 6058,
                                                            6062, 6066, 6070, 6074, 6078, 6082, 6086, 6089, 6090, 6091, 6094,
                                                            6095, 6097, 6099, 6100, 6105, 6107, 6109, 6111, 6112, 6113, 6115,
                                                            6117, 6120, 6122, 6125, 6126, 6128, 6131, 6133, 6136, 6138, 6141,
                                                            6143, 6145, 6148, 6150, 6153, 6154, 6156, 6159, 6160, 6163, 6164,
                                                            6166, 6168, 6169, 6171, 6172, 6173, 6176, 6178, 6179, 6181, 6182,
                                                            6183, 6186, 6188, 6189, 6191, 6192, 6193, 6196, 6198, 6200, 6201,
                                                            6203, 6205, 6207, 6208, 6213, 6214, 6217, 6218, 6222, 6223, 6226,
                                                            6230, 6231, 6234, 6238, 6239, 6242, 6247, 6249, 6251, 6253, 6255,
                                                            6257, 6259, 6261, 6262, 6263, 6264, 6267, 6268, 6271, 6272, 6275,
                                                            6276, 6279, 6282, 6290, 6292, 6296, 6299, 6301, 6302, 6305, 6306,
                                                            6311, 6312, 6313, 6316, 6317, 6320, 6322, 6323, 6324, 6329, 6331,
                                                            6333, 6336, 6337, 6342, 6345, 6346, 6351, 6352, 6354, 6357, 6358,
                                                            6362, 6364, 6365, 6366, 6371, 6374, 6375, 6378, 6379, 6384, 6385,
                                                            6386, 6388, 6390, 6391, 6398, 6400, 6401, 6406, 6409, 6413, 6417,
                                                            6421, 6425, 6429, 6433, 6437, 6441, 6448, 6449, 6450, 6458, 6460,
                                                            6461, 6465, 6467, 6468, 6469, 6474, 6475, 6478, 6479, 6482, 6483,
                                                            6484, 6489, 6491, 6496, 6498, 6499, 6504, 6507, 6511, 6515, 6519,
                                                            6523, 6527, 6531, 6535, 6539, 6542, 6552, 6556, 6558, 6560, 6561,
                                                            6563, 6565, 6566, 6567, 6570, 6571, 6575, 6577, 6579, 6580, 6582,
                                                            6584, 6585, 6586, 6589, 6590, 6594, 6596, 6598, 6604, 6606, 6608,
                                                            6609, 6612, 6615, 6618, 6619, 6620, 6622, 6623, 6629, 6630, 6632,
                                                            6633, 6640, 6641, 6643, 6644, 6649, 6651, 6653, 6658, 6662, 6666,
                                                            6670, 6674, 6677, 6679, 6684, 6686, 6687, 6688, 6693, 6695, 6697,
                                                            6701, 6703, 6707, 6710, 6712, 6716, 6719, 6721, 6725, 6728, 6730,
                                                            6734, 6737, 6739, 6743, 6746, 6748, 6753, 6756, 6758, 6759, 6760,
                                                            6765, 6766, 6768, 6770, 6774, 6776, 6780, 6783, 6785, 6789, 6792,
                                                            6794, 6798, 6801, 6803, 6807, 6810, 6812, 6816, 6819, 6821, 6827,
                                                            6829, 6830, 6831, 6835, 6836, 6838, 6840, 6842, 6843, 6844, 6847,
                                                            6848, 6852, 6853, 6855, 6857, 6859, 6860, 6861, 6864, 6865, 6870,
                                                            6871, 6873, 6875, 6877, 6878, 6879, 6882, 6883, 6887, 6888, 6889,
                                                            6890, 6892, 6893, 6897, 6899, 6900, 6901, 6904, 6905, 6908, 6909,
                                                            6913, 6914, 6915, 6916, 6917, 6918, 6919, 6920, 6921, 6923, 6924,
                                                            6925, 6927, 6932, 6933, 6935, 6936, 6937, 6940, 6941, 6944, 6945,
                                                            6948, 6949, 6960, 6961, 6963, 6967, 6968, 6969, 6977, 6982, 6985,
                                                            6993, 7003, 7004, 7006, 7007, 7008, 7009, 7010, 7013, 7014, 7016,
                                                            7017, 7018, 7024, 7026, 7028, 7029, 7030, 7033, 7034, 7035, 7036,
                                                            7040, 7043, 7044, 7047, 7048, 7051, 7052, 7055, 7056, 7057, 7059,
                                                            7061, 7062, 7063, 7066, 7077, 7078, 7080, 7082, 7083, 7087, 7091,
                                                            7094, 7096, 7102, 7117, 7118, 7122, 7123, 7124, 7126, 7127, 7136,
                                                            7137, 7141, 7143, 7144, 7151, 7152, 7156, 7158, 7159, 7168, 7169,
                                                            7173, 7175, 7176, 7189, 7190, 7195, 7198, 7199, 7202, 7203, 7206,
                                                            7207, 7211, 7212, 7214, 7216, 7217, 7218, 7224, 7226, 7228, 7230,
                                                            7231, 7232, 7235, 7236, 7241, 7243, 7244, 7246, 7248, 7251, 7252,
                                                            7257, 7259, 7260, 7262, 7265, 7266, 7271, 7273, 7276, 7277, 7279,
                                                            7280, 7285, 7286, 7288, 7294, 7296, 7298, 7301, 7302, 7304, 7306,
                                                            7307, 7310, 7313, 7314, 7318, 7319, 7329, 7331, 7332, 7333, 7337,
                                                            7338, 7339, 7341, 7344, 7346, 7348, 7351, 7352, 7355, 7356, 7357,
                                                            7360, 7361, 7362, 7365, 7366, 7367, 7370, 7371, 7372, 7375, 7376,
                                                            7377, 7378, 7379, 7381, 7384, 7385, 7386, 7390, 7391, 7395, 7396,
                                                            7399, 7400, 7401, 7404, 7406, 7409, 7410, 7413, 7414, 7417, 7418,
                                                            7421, 7423, 7424, 7426, 7427, 7430, 7431, 7434, 7439, 7441, 7443,
                                                            7446, 7447, 7448, 7451, 7452, 7456, 7458, 7461, 7463, 7465, 7466,
                                                            7467, 7470, 7472, 7474, 7477, 7479, 7482, 7484, 7487, 7488, 7489,
                                                            7492, 7494, 7497, 7498, 7499, 7502, 7503, 7504, 7507, 7508, 7509,
                                                            7512, 7514, 7517, 7518, 7519, 7522, 7524, 7527, 7528, 7531, 7534,
                                                            7535, 7536, 7539, 7540, 7543, 7546, 7547, 7548, 7551, 7552, 7555,
                                                            7558, 7559, 7561, 7564, 7565, 7568, 7569, 7571, 7572, 7575, 7576,
                                                            7578, 7580, 7582, 7585, 7586, 7588, 7593, 7596, 7597, 7600, 7601,
                                                            7603, 7605, 7606, 7608, 7610, 7612, 7616, 7617, 7618, 7619, 7622,
                                                            7623, 7624, 7625, 7628, 7629, 7630, 7631, 7634, 7635, 7636, 7637,
                                                            7640, 7641, 7642, 7643, 7646, 7649, 7651, 7654, 7655, 7658, 7659,
                                                            7663, 7664, 7670, 7671, 7677, 7678, 7684, 7688, 7691, 7695, 7699,
                                                            7700, 7701, 7703, 7706, 7710, 7711, 7712, 7716, 7717, 7721, 7722,
                                                            7723, 7725, 7727, 7731, 7732, 7733, 7737, 7738, 7743, 7746, 7748,
                                                            7749, 7750, 7752, 7753, 7754, 7755, 7756, 7758, 7759, 7760, 7761,
                                                            7764, 7765, 7766, 7767, 7769, 7770, 7771, 7772, 7775, 7776, 7779,
                                                            7780, 7783, 7786, 7789, 7791, 7802, 7803, 7804, 7808, 7809, 7810,
                                                            7814, 7818, 7820, 7823, 7828, 7830, 7832, 7834, 7836, 7838, 7841,
                                                            7842, 7845, 7846, 7847, 7848, 7850, 7851, 7852, 7853, 7856, 7857,
                                                            7858, 7859, 7861, 7862, 7863, 7866, 7870, 7872, 7875, 7876, 7877,
                                                            7879, 7881, 7885, 7886, 7889, 7890, 7893, 7894, 7897, 7898, 7901,
                                                            7904, 7906, 7908, 7910, 7913, 7917, 7918, 7920, 7921, 7922, 7928,
                                                            7929, 7931, 7932, 7933, 7934, 7940, 7941, 7943, 7944, 7945, 7946,
                                                            7953, 7956, 7958, 7963, 7965, 7971, 7972, 7974, 7976, 7979, 7981,
                                                            7985, 7987, 7990, 7993, 7994, 7996, 7998, 8001, 8003, 8004, 8005,
                                                            8007, 8008, 8014, 8019, 8022, 8024, 8025, 8027, 8030, 8035, 8036,
                                                            8040, 8045, 8047, 8049, 8051, 8053, 8060, 8063, 8064, 8069, 8071,
                                                            8077, 8078, 8082, 8084, 8086, 8089, 8090, 8092, 8096, 8098, 8099,
                                                            8116, 8117, 8118, 8122, 8123, 8129, 8132, 8137, 8139, 8146, 8148,
                                                            8154, 8155, 8157, 8164, 8165, 8167, 8170, 8171, 8172, 8174, 8179,
                                                            8181, 8184, 8185, 8188, 8190, 8191, 8194, 8195, 8200, 8202, 8204,
                                                            8206, 8207, 8212, 8215, 8220, 8223, 8224, 8227, 8230, 8231, 8234,
                                                            8236, 8237, 8240, 8242, 8243, 8246, 8248, 8250, 8252, 8254, 8256,
                                                            8257, 8258, 8261, 8264, 8266, 8268, 8270, 8273, 8277, 8280, 8283,
                                                            8289, 8290, 8291, 8295, 8297, 8299, 8301, 8303, 8304, 8309, 8311,
                                                            8317, 8319, 8323, 8324, 8325, 8328, 8329, 8330, 8334, 8336, 8337,
                                                            8338, 8341, 8343, 8345, 8346, 8347, 8350, 8352, 8353, 8354, 8357,
                                                            8362, 8370, 8371, 8375, 8380, 8383, 8386, 8387, 8389, 8392, 8393,
                                                            8394, 8397, 8398, 8399, 8403, 8404, 8410, 8415, 8421, 8423, 8426,
                                                            8433, 8434, 8439, 8442, 8449, 8452, 8460, 8462, 8467, 8468, 8470,
                                                            8472, 8479, 8480, 8482, 8484, 8491, 8494, 8496, 8501, 8504, 8506,
                                                            8510, 8511, 8514, 8515, 8519, 8521, 8522, 8523, 8524, 8526, 8528,
                                                            8534, 8536, 8541, 8543, 8547, 8554, 8555,
                                         fort_equs:     48.
       12654    init_auto                fort_cg_macros_:   7985, 8042.
       12665    init_return              fort_cg_macros_:   8049, 8059.
       11527    inquire                  fort_cg_macros_:   7068,
                                         fort_operator_table:      123.
       11613    inquire_case_1           fort_cg_macros_:   7102, 7179.
       11613    inquire_case_10          fort_cg_macros_:   7102, 7184.
       11613    inquire_case_11          fort_cg_macros_:   7102, 7185.
       11613    inquire_case_12          fort_cg_macros_:   7102, 7186.
       11565    inquire_case_13          fort_cg_macros_:   7102, 7108.
       11601    inquire_case_14          fort_cg_macros_:   7102, 7147.
       11613    inquire_case_15          fort_cg_macros_:   7102, 7187.
       11613    inquire_case_16          fort_cg_macros_:   7102, 7188.
       11606    inquire_case_17          fort_cg_macros_:   7102, 7162.
       11606    inquire_case_18          fort_cg_macros_:   7102, 7163.
       11574    inquire_case_19          fort_cg_macros_:   7102, 7131.
       11613    inquire_case_2           fort_cg_macros_:   7102, 7180.
       11606    inquire_case_20          fort_cg_macros_:   7102, 7164.
       11565    inquire_case_21          fort_cg_macros_:   7102, 7109.
       11565    inquire_case_22          fort_cg_macros_:   7102, 7110.
       11565    inquire_case_23          fort_cg_macros_:   7102, 7111.
       11565    inquire_case_24          fort_cg_macros_:   7102, 7112.
       11574    inquire_case_25          fort_cg_macros_:   7102, 7132.
       11565    inquire_case_26          fort_cg_macros_:   7102, 7113.
       11613    inquire_case_3           fort_cg_macros_:   7102, 7181.
       11565    inquire_case_4           fort_cg_macros_:   7102, 7105.
       11613    inquire_case_5           fort_cg_macros_:   7102, 7182.
       11565    inquire_case_6           fort_cg_macros_:   7102, 7106.
       11565    inquire_case_7           fort_cg_macros_:   7102, 7107.
       11574    inquire_case_8           fort_cg_macros_:   7102, 7130.
       11613    inquire_case_9           fort_cg_macros_:   7102, 7183.
       11540    inquire_loop             fort_cg_macros_:   7090, 7127, 7144, 7159, 7176.
       11616    inquire_loop.e           fort_cg_macros_:   7096, 7193.
       11620    inquire_loop.not_char    fort_cg_macros_:   7118, 7197.
       11623    inquire_loop.not_int     fort_cg_macros_:   7137, 7152, 7201.
       11626    inquire_loop.not_logical       fort_cg_macros_:   7169, 7205.
       11631    inquire_return           fort_cg_macros_:   7096, 7210.
       40000    inst_word                fort_cg_macros_:   4443, 4482, 8423,
                                         fort_equs:    136.
      400000    int                      fort_cg_macros_:    965, 1348, 1666, 1738, 2082, 2090, 2094, 2112, 2207, 2213, 2260,
                                                            2313, 2353, 2498, 2555, 2557, 2690, 2818, 2856, 2897, 2938, 2940,
                                                            2957, 3000, 3002, 3018, 3165, 3203, 3244, 3285, 3287, 3304, 3348,
                                                            3350, 3366, 3549, 3551, 3766, 3815, 4125, 4318, 4357, 4396, 4435,
                                                            4993, 5187, 5357, 5523, 5711, 5904, 6107, 6111, 6257, 6261, 6329,
                                                            6351, 6558, 6577, 6596, 6836, 6853, 6871, 6887, 6889, 6914, 7014,
                                                            7056, 7137, 7152, 7224, 7241, 7257, 7748, 7828, 8337, 8346,
                                         fort_equs:     52.
        5602    int.p                    fort_cg_macros_:   3981, 4014.
         465    integer_to_double        fort_cg_macros_:    677,  691, 1398, 1497, 2829, 3176, 3734, 3754,
                                         fort_equs:    187.
         465    integer_to_real          fort_cg_macros_:    643,  657,  763,  782, 1043, 1226, 1248, 1368, 1467, 1571, 1597,
                                                            2825, 2961, 3172, 3308, 3654, 3674, 3694, 3714,
                                         fort_equs:    186.
       11733    internal_file.array      fort_cg_macros_:   7307, 7312.
       11740    internal_file.p          fort_cg_macros_:   7294, 7322.
       11736    internal_file.ret        fort_cg_macros_:   7310, 7317.
         413    interpreter_macros       fort_cg_macros_:    180,  191.
         400    intn                     fort_cg_macros_:   1387, 1417, 1748, 1770, 1807, 1898, 1950, 2161, 2560, 4464, 7341,
                                                            7616, 7753, 7764, 7775, 7841, 7845, 7856, 7885,
                                         fort_equs:     61.
        5557    int_builtin              fort_cg_macros_:   2100, 3980.
        5572    int_builtin.cmpx         fort_cg_macros_:   3981, 3995.
        5570    int_builtin.dp           fort_cg_macros_:   3981, 3991, 4011.
        5564    int_builtin.int          fort_cg_macros_:   3981, 3983.
        5566    int_builtin.real         fort_cg_macros_:   3981, 3987, 4006.
        5574    int_builtin.tl           fort_cg_macros_:   3981, 3999.
       12523    int_func                 fort_cg_macros_:   7872, 7883.
        1351    int_p_int                fort_cg_macros_:   1453,
                                         fort_equs:    194.
        6614    invalid_opnd             fort_cg_macros_:   4800, 4933, 4946, 4971, 5127, 5140, 5165, 5297, 5310, 5335, 5462,
                                                            5475, 5500, 5651, 5664, 5689, 5844, 5857, 5882.
       11655    iostat                   fort_cg_macros_:   7238,
                                         fort_operator_table:       93.
       11664    iostat.p                 fort_cg_macros_:   7241, 7250.
          56    iostat_slot              fort_cg_macros_:   7245,
                                         fort_equs:    166.
        3400    iq                       fort_equs:     79.
        6505    irl.1                    fort_cg_macros_:   4714, 4716.
        6512    irl.2                    fort_cg_macros_:   4717, 4719.
        6500    irl.tl                   fort_cg_macros_:   2100, 4713.
        6523    irs.1                    fort_cg_macros_:   4726, 4728.
        6530    irs.2                    fort_cg_macros_:   4729, 4731.
        6516    irs.tl                   fort_cg_macros_:   2100, 4725.
        5146    isign                    fort_cg_macros_:   2100, 3547.
        5225    isign.p                  fort_cg_macros_:   3549, 3551, 3641.
       12316    item                     fort_cg_macros_:   7661,
                                         fort_operator_table:       60.
       10462    ja1                      fort_cg_macros_:   6189, 6195.
       10454    ja2                      fort_cg_macros_:   6179, 6185.
       10446    ja3                      fort_cg_macros_:   6169, 6175.
       10601    jc_error                 fort_cg_macros_:   6253, 6319.
       10561    jc_labels                fort_cg_macros_:   6298, 6302.
       10567    jc_list.p                fort_cg_macros_:   6247, 6308.
       10565    jc_ret                   fort_cg_macros_:   6304, 6313, 6324.
       10551    jc_tmoz                  fort_cg_macros_:   6282, 6285.
       10546    jc_transfer              fort_cg_macros_:   6268, 6272, 6276, 6278.
       10367    jl_statement             fort_cg_macros_:   6049, 6058, 6062, 6066, 6070, 6074, 6078, 6082, 6086, 6093.
       10317    jump                     fort_cg_macros_:   6021,
                                         fort_operator_table:       33.
       10375    jump_arithmetic          fort_cg_macros_:   6102,
                                         fort_operator_table:       35.
       10434    jump_arithmetic.01       fort_cg_macros_:   6117, 6122, 6128, 6133, 6138, 6145, 6150, 6156, 6158.
       10517    jump_arithmetic.e        fort_cg_macros_:   6107, 6241.
       10477    jump_arithmetic_12       fort_cg_macros_:   6205, 6216.
       10505    jump_arithmetic_13       fort_cg_macros_:   6200, 6225.
       10512    jump_arithmetic_23       fort_cg_macros_:   6201, 6233.
       10411    jump_arithmetic_i        fort_cg_macros_:   6111, 6124.
       10417    jump_arithmetic_i.1      fort_cg_macros_:   6126, 6135.
       10422    jump_arithmetic_r        fort_cg_macros_:   6112, 6140.
       10430    jump_arithmetic_r.1      fort_cg_macros_:   6115, 6143, 6152.
       10611    jump_assigned            fort_cg_macros_:   6326,
                                         fort_operator_table:       37.
       10616    jump_assigned.1          fort_cg_macros_:   6331, 6335.
       10623    jump_assigned.e          fort_cg_macros_:   6329, 6344.
       10521    jump_computed            fort_cg_macros_:   6244,
                                         fort_operator_table:       36.
       10576    jump_computed.p          fort_cg_macros_:   6257, 6315.
       10544    jump_computed_d          fort_cg_macros_:   6263, 6274.
       10540    jump_computed_i          fort_cg_macros_:   6261, 6266.
       10542    jump_computed_r          fort_cg_macros_:   6262, 6264, 6270.
       13356    jump_false               fort_cg_macros_:   8571,
                                         fort_operator_table:      105.
       10323    jump_logical             fort_cg_macros_:   6029,
                                         fort_operator_table:       34.
       10362    jump_logical.p           fort_cg_macros_:   6032, 6088.
       10335    jump_logical_ind         fort_cg_macros_:   6038, 6051.
       10346    jump_logical_tmi         fort_cg_macros_:   6054, 6064.
       10352    jump_logical_tmoz        fort_cg_macros_:   6054, 6072.
       10356    jump_logical_tnc         fort_cg_macros_:   6054, 6080.
       10344    jump_logical_tnz         fort_cg_macros_:   6054, 6060.
       10350    jump_logical_tpl         fort_cg_macros_:   6054, 6068.
       10354    jump_logical_tpnz        fort_cg_macros_:   6054, 6076.
       10360    jump_logical_trc         fort_cg_macros_:   6054, 6084.
       10342    jump_logical_tze         fort_cg_macros_:   6054, 6056.
       13356    jump_true                fort_cg_macros_:   8570,
                                         fort_operator_table:      104.
       12000    j_g_s                    fort_equs:     92.
       11400    j_le_s                   fort_equs:     91.
        2000    label                    fort_equs:     59.
        4000    labeln                   fort_equs:     68.
       12730    label_operator           fort_cg_macros_:   8143,
                                         fort_operator_table:       75.
       13141    lc_no_desc               fort_cg_macros_:   8311, 8316.
       13255    left_shift               fort_cg_macros_:   8436,
                                         fort_operator_table:       83.
        6335    len                      fort_cg_macros_:   2100, 4568.
        6340    len.p                    fort_cg_macros_:   4569, 4575.
        6624    less                     fort_cg_macros_:   4814,
                                         fort_operator_table:       24.
        6741    less_cc                  fort_cg_macros_:   4818, 4923.
        6736    less_cd                  fort_cg_macros_:   4818, 4920.
        6761    less_ch                  fort_cg_macros_:   4928, 4945.
        6725    less_ci                  fort_cg_macros_:   4818, 4908.
        6731    less_cr                  fort_cg_macros_:   4818, 4914.
        6733    less_dc                  fort_cg_macros_:   4818, 4917.
        6675    less_dd                  fort_cg_macros_:   4818, 4868.
        6702    less_dd.1                fort_cg_macros_:   4869, 4876.
        6761    less_dh                  fort_cg_macros_:   4928, 4944.
        6662    less_di                  fort_cg_macros_:   4818, 4850.
        6714    less_dr                  fort_cg_macros_:   4818, 4893.
        6721    less_dr.1                fort_cg_macros_:   4894, 4901.
        6776    less_e1                  fort_cg_macros_:   4818, 4967.
        6744    less_e2                  fort_cg_macros_:   4818, 4926.
        7012    less_hc                  fort_cg_macros_:   4973, 4985.
        7012    less_hd                  fort_cg_macros_:   4973, 4984.
        6770    less_hh                  fort_cg_macros_:   4928, 4957, 4973.
        7006    less_hi                  fort_cg_macros_:   4973, 4975.
        7006    less_hr                  fort_cg_macros_:   4973, 4976.
        7006    less_ht                  fort_cg_macros_:   4973, 4977.
        6723    less_ic                  fort_cg_macros_:   4818, 4905.
        6656    less_id                  fort_cg_macros_:   4818, 4843.
        6752    less_ih                  fort_cg_macros_:   4928, 4930.
        6641    less_ii                  fort_cg_macros_:   4818, 4820.
        6645    less_ii.1                fort_cg_macros_:   4821, 4827.
        6647    less_ir                  fort_cg_macros_:   4818, 4831.
        7032    less_or_equal            fort_cg_macros_:   5007,
                                         fort_operator_table:       25.
        7147    less_or_equal_cc         fort_cg_macros_:   5012, 5117.
        7144    less_or_equal_cd         fort_cg_macros_:   5012, 5114.
        7167    less_or_equal_ch         fort_cg_macros_:   5122, 5139.
        7133    less_or_equal_ci         fort_cg_macros_:   5012, 5102.
        7137    less_or_equal_cr         fort_cg_macros_:   5012, 5108.
        7141    less_or_equal_dc         fort_cg_macros_:   5012, 5111.
        7103    less_or_equal_dd         fort_cg_macros_:   5012, 5062.
        7110    less_or_equal_dd.1       fort_cg_macros_:   5063, 5070.
        7167    less_or_equal_dh         fort_cg_macros_:   5122, 5138.
        7070    less_or_equal_di         fort_cg_macros_:   5012, 5044.
        7122    less_or_equal_dr         fort_cg_macros_:   5012, 5087.
        7127    less_or_equal_dr.1       fort_cg_macros_:   5088, 5095.
        7204    less_or_equal_e1         fort_cg_macros_:   5012, 5161.
        7152    less_or_equal_e2         fort_cg_macros_:   5012, 5120.
        7220    less_or_equal_hc         fort_cg_macros_:   5167, 5179.
        7220    less_or_equal_hd         fort_cg_macros_:   5167, 5178.
        7176    less_or_equal_hh         fort_cg_macros_:   5122, 5151, 5167.
        7214    less_or_equal_hi         fort_cg_macros_:   5167, 5169.
        7214    less_or_equal_hr         fort_cg_macros_:   5167, 5170.
        7214    less_or_equal_ht         fort_cg_macros_:   5167, 5171.
        7131    less_or_equal_ic         fort_cg_macros_:   5012, 5099.
        7064    less_or_equal_id         fort_cg_macros_:   5012, 5037.
        7160    less_or_equal_ih         fort_cg_macros_:   5122, 5124.
        7047    less_or_equal_ii         fort_cg_macros_:   5012, 5014.
        7053    less_or_equal_ii.1       fort_cg_macros_:   5015, 5021.
        7055    less_or_equal_ir         fort_cg_macros_:   5012, 5025.
        7135    less_or_equal_rc         fort_cg_macros_:   5012, 5105.
        7113    less_or_equal_rd         fort_cg_macros_:   5012, 5075.
        7117    less_or_equal_rd.1       fort_cg_macros_:   5076, 5082.
        7160    less_or_equal_rh         fort_cg_macros_:   5122, 5125.
        7061    less_or_equal_ri         fort_cg_macros_:   5012, 5032.
        7073    less_or_equal_rr         fort_cg_macros_:   5012, 5049.
        7100    less_or_equal_rr.1       fort_cg_macros_:   5050, 5057.
        7160    less_or_equal_th         fort_cg_macros_:   5122, 5126.
        7224    less_or_equal_tl         fort_cg_macros_:   5012, 5186.
        7232    less_or_equal_tl.1       fort_cg_macros_:   5188, 5190.
        7236    less_or_equal_tl.2       fort_cg_macros_:   5191, 5197.
        6727    less_rc                  fort_cg_macros_:   4818, 4911.
        6705    less_rd                  fort_cg_macros_:   4818, 4881.
        6711    less_rd.1                fort_cg_macros_:   4882, 4888.
        6752    less_rh                  fort_cg_macros_:   4928, 4931.
        6653    less_ri                  fort_cg_macros_:   4818, 4838.
        6665    less_rr                  fort_cg_macros_:   4818, 4855.
        6672    less_rr.1                fort_cg_macros_:   4856, 4863.
        6752    less_th                  fort_cg_macros_:   4928, 4932.
        7016    less_tl                  fort_cg_macros_:   4818, 4992.
        7024    less_tl.1                fort_cg_macros_:   4994, 4996.
        7030    less_tl.2                fort_cg_macros_:   4997, 5003.
        6341    lge                      fort_cg_macros_:   2100, 4578.
        6352    lge.p                    fort_cg_macros_:   4579, 4581, 4592.
        6353    lgt                      fort_cg_macros_:   2100, 4595.
        6364    lgt.p                    fort_cg_macros_:   4596, 4598, 4609.
       13353    lhs_fld                  fort_cg_macros_:   8552,
                                         fort_operator_table:      125.
        6365    lle                      fort_cg_macros_:   2100, 4612.
        6376    lle.p                    fort_cg_macros_:   4613, 4615, 4626.
        6377    llt                      fort_cg_macros_:   2100, 4629.
        6410    llt.p                    fort_cg_macros_:   4630, 4632, 4643.
       13356    load_preg                fort_cg_macros_:   8579,
                                         fort_operator_table:      115.
       13356    load_xreg                fort_cg_macros_:   8578,
                                         fort_operator_table:      114.
       13125    local_call               fort_cg_macros_:   8248, 8294.
       13135    local_join               fort_cg_macros_:   8308, 8330.
       20000    logical                  fort_cg_macros_:    381,  388, 4927, 5121, 5283, 5448, 5645, 5838, 5920, 5922, 5936,
                                                            5938, 5952, 5992, 5994, 6006, 6008, 6032, 6385, 6489, 7026, 7169,
                                                            7271, 7421, 7424, 7568, 7576,
                                         fort_equs:     56.
         630    logical.p                fort_cg_macros_:    388,  424.
        2400    logicaln                 fort_cg_macros_:   7640, 7901,
                                         fort_equs:     65.
       12533    logical_func             fort_cg_macros_:   7872, 7900.
        6610    logical_op1              fort_cg_macros_:   4794, 4927, 4973, 5121, 5167, 5337, 5502, 5645, 5691, 5838, 5884.
        6612    logical_op2              fort_cg_macros_:   4797, 4928, 5122, 5292, 5457, 5646, 5839.
        1312    log_                     fort_cg_macros_:   2277,
                                         fort_equs:    208.
       13356    loop_end                 fort_cg_macros_:   8573,
                                         fort_operator_table:      107.
       12542    main                     fort_cg_macros_:   7915,
                                         fort_operator_table:       71.
       13065    make_call                fort_cg_macros_:   7908, 8165, 8233.
       12573    make_entry               fort_cg_macros_:   7920, 7931, 7943, 7955.
       12602    make_et_desc             fort_cg_macros_:   7963, 7967.
       12635    make_et_descp            fort_cg_macros_:   8004, 8010.
       12614    make_et_init_auto        fort_cg_macros_:   7981, 7984.
       12603    make_et_join             fort_cg_macros_:   7965, 7970.
       12620    make_et_no_cleanup       fort_cg_macros_:   7987, 7992.
       12640    make_et_ret              fort_cg_macros_:   8014, 8018.
       13054    make_external_variable   fort_cg_macros_:   8190, 8217.
       12666    make_quick_entry         fort_cg_macros_:   7932, 7944, 8062.
       11335    margin                   fort_cg_macros_:   6885,
                                         fort_operator_table:       50.
       11354    margin1.p                fort_cg_macros_:   6889, 6903.
       11357    margin2.p                fort_cg_macros_:   6887, 6907.
          34    margin_slot              fort_cg_macros_:   6895,
                                         fort_equs:    159.
        4157    max                      fort_cg_macros_:   2100, 2744.
        4411    max0                     fort_cg_macros_:   2100, 2997.
        4420    max0.loop                fort_cg_macros_:   3007, 3019.
        4433    max0.p                   fort_cg_macros_:   3000, 3002, 3018, 3024.
        4432    max0.r                   fort_cg_macros_:   3013, 3021.
        4434    max1                     fort_cg_macros_:   2100, 3027.
        4445    max1.loop                fort_cg_macros_:   3039, 3051.
        4461    max1.p                   fort_cg_macros_:   3030, 3032, 3050, 3057.
        4457    max1.r                   fort_cg_macros_:   3045, 3053.
        4223    max_cc                   fort_cg_macros_:   2746, 2802.
        4222    max_cd                   fort_cg_macros_:   2746, 2799.
        4216    max_ci                   fort_cg_macros_:   2746, 2787.
        4220    max_cr                   fort_cg_macros_:   2746, 2793.
        4221    max_dc                   fort_cg_macros_:   2746, 2796.
        4205    max_dd                   fort_cg_macros_:   2746, 2770.
        4202    max_di                   fort_cg_macros_:   2746, 2763.
        4213    max_dr                   fort_cg_macros_:   2746, 2780.
        4224    max_e1                   fort_cg_macros_:   2746, 2805.
        4225    max_e2                   fort_cg_macros_:   2746, 2808.
        4215    max_ic                   fort_cg_macros_:   2746, 2784.
        4200    max_id                   fort_cg_macros_:   2746, 2759.
        4173    max_ii                   fort_cg_macros_:   2746, 2748.
        4174    max_ir                   fort_cg_macros_:   2746, 2751.
        4217    max_rc                   fort_cg_macros_:   2746, 2790.
        4206    max_rd                   fort_cg_macros_:   2746, 2773, 2782.
        4176    max_ri                   fort_cg_macros_:   2746, 2755.
        4204    max_rr                   fort_cg_macros_:   2746, 2767.
        4506    min                      fort_cg_macros_:   2100, 3091.
        4741    min0                     fort_cg_macros_:   2100, 3345.
        4750    min0.loop                fort_cg_macros_:   3355, 3367.
        4763    min0.p                   fort_cg_macros_:   3348, 3350, 3366, 3372.
        4762    min0.r                   fort_cg_macros_:   3361, 3369.
        4764    min1                     fort_cg_macros_:   2100, 3375.
        4775    min1.loop                fort_cg_macros_:   3387, 3399.
        5011    min1.p                   fort_cg_macros_:   3378, 3380, 3398, 3405.
        5007    min1.r                   fort_cg_macros_:   3393, 3401.
        4552    min_cc                   fort_cg_macros_:   3093, 3149.
        4551    min_cd                   fort_cg_macros_:   3093, 3146.
        4545    min_ci                   fort_cg_macros_:   3093, 3134.
        4547    min_cr                   fort_cg_macros_:   3093, 3140.
        4550    min_dc                   fort_cg_macros_:   3093, 3143.
        4534    min_dd                   fort_cg_macros_:   3093, 3117.
        4531    min_di                   fort_cg_macros_:   3093, 3110.
        4542    min_dr                   fort_cg_macros_:   3093, 3127.
        4553    min_e1                   fort_cg_macros_:   3093, 3152.
        4554    min_e2                   fort_cg_macros_:   3093, 3155.
        4544    min_ic                   fort_cg_macros_:   3093, 3131.
        4527    min_id                   fort_cg_macros_:   3093, 3106.
        4522    min_ii                   fort_cg_macros_:   3093, 3095.
        4523    min_ir                   fort_cg_macros_:   3093, 3098.
        4546    min_rc                   fort_cg_macros_:   3093, 3137.
        4535    min_rd                   fort_cg_macros_:   3093, 3120, 3129.
        4525    min_ri                   fort_cg_macros_:   3093, 3102.
        4533    min_rr                   fort_cg_macros_:   3093, 3114.
        6602    mm_dt1.p                 fort_cg_macros_:   2785, 2791, 2797, 2803, 2809, 2822, 2859, 2900, 2965, 2995, 3025,
                                                            3058, 3089, 3132, 3138, 3144, 3150, 3156, 3169, 3206, 3247, 3312,
                                                            3343, 3373, 3406, 3437, 4205, 4276, 4787.
        6605    mm_dt2.p                 fort_cg_macros_:   2788, 2794, 2800, 2806, 3135, 3141, 3147, 3153, 4273, 4790.
        3372    mm_ret_deaq              fort_cg_macros_:   2172, 2933, 3086, 3280, 3434.
        3366    mm_ret_eaq               fort_cg_macros_:   2166, 2887, 2962, 2992, 3234, 3309, 3340.
        3362    mm_ret_q                 fort_cg_macros_:   2160, 2846, 3022, 3055, 3193, 3370, 3403.
        3376    mm_ret_tq                fort_cg_macros_:   2178, 4673, 4752, 4769.
        5036    mod                      fort_cg_macros_:   2100, 3439.
        5077    mod.1                    fort_cg_macros_:   3443, 3500.
        5074    mod_cc                   fort_cg_macros_:   3440, 3491.
        5073    mod_cd                   fort_cg_macros_:   3440, 3488.
        5067    mod_ci                   fort_cg_macros_:   3440, 3476.
        5071    mod_cr                   fort_cg_macros_:   3440, 3482.
        5072    mod_dc                   fort_cg_macros_:   3440, 3485.
        5063    mod_dd                   fort_cg_macros_:   3440, 3464.
        5060    mod_di                   fort_cg_macros_:   3440, 3457.
        5065    mod_dr                   fort_cg_macros_:   3440, 3470.
        5075    mod_e1                   fort_cg_macros_:   3440, 3494.
        5076    mod_e2                   fort_cg_macros_:   3440, 3497.
        5066    mod_ic                   fort_cg_macros_:   3440, 3473.
        5056    mod_id                   fort_cg_macros_:   3440, 3453.
        5051    mod_ii                   fort_cg_macros_:   3440, 3442.
        5052    mod_ir                   fort_cg_macros_:   3440, 3445.
        5070    mod_rc                   fort_cg_macros_:   3440, 3479.
        5064    mod_rd                   fort_cg_macros_:   3440, 3467.
        5054    mod_ri                   fort_cg_macros_:   3440, 3449.
        5062    mod_rr                   fort_cg_macros_:   3440, 3461.
         445    move_eis                 fort_cg_macros_:    194,  248.
        1467    mpy_overflow_check       fort_cg_macros_:    237,  983, 1141,
                                         fort_equs:    264.
       12674    mqe_end_storage          fort_cg_macros_:   8071, 8076.
       12704    mqe_no_desc              fort_cg_macros_:   8084, 8088.
       12673    mqe_no_storage           fort_cg_macros_:   8069, 8073.
        1431    mult                     fort_cg_macros_:    973,
                                         fort_operator_table:       20.
        1575    mult_cc                  fort_cg_macros_:    975, 1123.
        1550    mult_cd                  fort_cg_macros_:    975, 1093.
        1563    mult_cd.1                fort_cg_macros_:   1096, 1108.
        1565    mult_cd.11               fort_cg_macros_:   1111, 1121.
        1572    mult_cd.2                fort_cg_macros_:   1097, 1118.
        1501    mult_ci                  fort_cg_macros_:    975, 1031.
        1522    mult_cr                  fort_cg_macros_:    975, 1060.
        1535    mult_cr.1                fort_cg_macros_:   1048, 1055, 1063, 1075.
        1537    mult_cr.11               fort_cg_macros_:   1078, 1088.
        1544    mult_cr.2                fort_cg_macros_:   1064, 1085.
        1547    mult_dc                  fort_cg_macros_:    975, 1090.
        1466    mult_dd                  fort_cg_macros_:    975, 1009.
        1460    mult_di                  fort_cg_macros_:    975,  999.
        1472    mult_dr                  fort_cg_macros_:    975, 1017.
        1476    mult_dr.1                fort_cg_macros_:   1018, 1024.
        1616    mult_e1                  fort_cg_macros_:    975, 1134, 1146.
        1620    mult_e2                  fort_cg_macros_:    975, 1149.
        1500    mult_ic                  fort_cg_macros_:    975, 1028.
        1457    mult_id                  fort_cg_macros_:    975,  996.
        1445    mult_ii                  fort_cg_macros_:    975,  977.
        1452    mult_ii.1                fort_cg_macros_:    982,  985.
        1453    mult_ir                  fort_cg_macros_:    975,  988.
        1521    mult_rc                  fort_cg_macros_:    975, 1057.
        1471    mult_rd                  fort_cg_macros_:    975, 1014.
        1454    mult_ri                  fort_cg_macros_:    975,  991.
        1463    mult_rr                  fort_cg_macros_:    975, 1004.
        1603    mult_tl                  fort_cg_macros_:    975, 1132.
        1611    mult_tl.1                fort_cg_macros_:   1134, 1136.
        1615    mult_tl.2                fort_cg_macros_:   1140, 1143.
       13320    namelist                 fort_cg_macros_:   8508,
                                         fort_operator_table:       90.
          22    namelist_slot            fort_cg_macros_:   8512,
                                         fort_equs:    165.
        1465    nearest_integer          fort_cg_macros_:   4083, 4089,
                                         fort_equs:    262.
        1464    nearest_whole_number     fort_cg_macros_:   4055, 4060,
                                         fort_equs:    261.
        2357    negate                   fort_cg_macros_:   1664,
                                         fort_operator_table:       23.
        2401    negate_c                 fort_cg_macros_:   1669, 1690.
        2415    negate_c.1               fort_cg_macros_:   1694, 1706.
        2375    negate_d                 fort_cg_macros_:   1668, 1684.
        2366    negate_i                 fort_cg_macros_:   1666, 1673.
        2371    negate_r                 fort_cg_macros_:   1667, 1678.
       13305    neg_storage_add          fort_cg_macros_:   8488,
                                         fort_operator_table:       88.
       13357    new                      fort_cg_macros_:    156.
        5643    nint                     fort_cg_macros_:   2100, 4073.
        5656    nint.dp                  fort_cg_macros_:   4074, 4086, 4095.
        5650    nint.int                 fort_cg_macros_:   4074, 4076.
        5664    nint.p                   fort_cg_macros_:   4074, 4098.
        5652    nint.real                fort_cg_macros_:   4074, 4080.
       13237    non_executable           fort_cg_macros_:   8408,
                                         fort_operator_table:       79.
       10250    not                      fort_cg_macros_:   5950,
                                         fort_operator_table:       32.
       10273    not.e                    fort_cg_macros_:   5952, 5987.
        7423    not_equal                fort_cg_macros_:   5366,
                                         fort_operator_table:       27.
        7524    not_equal_ah             fort_cg_macros_:   5445, 5456.
        7511    not_equal_cc             fort_cg_macros_:   5371, 5439.
        7506    not_equal_cd             fort_cg_macros_:   5371, 5436.
        7540    not_equal_ch             fort_cg_macros_:   5457, 5474.
        7475    not_equal_ci             fort_cg_macros_:   5371, 5424.
        7501    not_equal_cr             fort_cg_macros_:   5371, 5430.
        7503    not_equal_dc             fort_cg_macros_:   5371, 5433.
        7457    not_equal_dd             fort_cg_macros_:   5371, 5400.
        7540    not_equal_dh             fort_cg_macros_:   5457, 5473.
        7450    not_equal_di             fort_cg_macros_:   5371, 5389.
        7464    not_equal_dr             fort_cg_macros_:   5371, 5409.
        7471    not_equal_dr.1           fort_cg_macros_:   5410, 5417.
        7555    not_equal_e1             fort_cg_macros_:   5371, 5496.
        7514    not_equal_e2             fort_cg_macros_:   5371, 5444.
        7571    not_equal_hc             fort_cg_macros_:   5502, 5514.
        7571    not_equal_hd             fort_cg_macros_:   5502, 5513.
        7547    not_equal_hh             fort_cg_macros_:   5457, 5486, 5502.
        7565    not_equal_hi             fort_cg_macros_:   5502, 5504.
        7565    not_equal_hr             fort_cg_macros_:   5502, 5505.
        7565    not_equal_ht             fort_cg_macros_:   5502, 5506.
        7473    not_equal_ic             fort_cg_macros_:   5371, 5421.
        7447    not_equal_id             fort_cg_macros_:   5371, 5386.
        7531    not_equal_ih             fort_cg_macros_:   5457, 5459.
        7440    not_equal_ii             fort_cg_macros_:   5371, 5373.
        7443    not_equal_ir             fort_cg_macros_:   5371, 5378.
        7521    not_equal_ll             fort_cg_macros_:   5448, 5451.
        7477    not_equal_rc             fort_cg_macros_:   5371, 5427.
        7463    not_equal_rd             fort_cg_macros_:   5371, 5406.
        7531    not_equal_rh             fort_cg_macros_:   5457, 5460.
        7444    not_equal_ri             fort_cg_macros_:   5371, 5381.
        7453    not_equal_rr             fort_cg_macros_:   5371, 5394.
        7531    not_equal_th             fort_cg_macros_:   5457, 5461.
        7575    not_equal_tl             fort_cg_macros_:   5371, 5522.
        7603    not_equal_tl.1           fort_cg_macros_:   5524, 5526.
       10305    not_equiv                fort_cg_macros_:   6003,
                                         fort_operator_table:      120.
       10315    not_equiv.p              fort_cg_macros_:   6006, 6008, 6018.
       13052    not_external_bif         fort_cg_macros_:   8204, 8214.
       10256    not_ind                  fort_cg_macros_:   5954, 5960.
        6616    not_scalar               fort_cg_macros_:   4803, 4936, 4949, 4968, 5130, 5143, 5162, 5300, 5313, 5332, 5465,
                                                            5478, 5497, 5654, 5667, 5686, 5847, 5860, 5879.
       10265    not_tmi                  fort_cg_macros_:   5961, 5969.
       10267    not_tmoz                 fort_cg_macros_:   5961, 5975.
       10271    not_tnc                  fort_cg_macros_:   5961, 5981.
       10264    not_tnz                  fort_cg_macros_:   5961, 5966.
       10266    not_tpl                  fort_cg_macros_:   5961, 5972.
       10270    not_tpnz                 fort_cg_macros_:   5961, 5978.
       10272    not_trc                  fort_cg_macros_:   5961, 5984.
       10263    not_tze                  fort_cg_macros_:   5961, 5963.
       13241    no_op                    fort_cg_macros_:   8414,
                                         fort_operator_table:       80.
           6    null                     fort_cg_macros_:   7993,
                                         fort_equs:    148.
           5    null_ptr                 fort_cg_macros_:   8223,
                                         fort_equs:    147.
           1    one                      fort_cg_macros_:   1839,
                                         fort_equs:    143.
      740000    op1                      fort_cg_macros_:    383,  402,  403,  410,  411,  425,  429,  523,  526,  527,  533,
                                                             535,  536,  552,  555,  556,  562,  564,  565,  582,  585,  586,
                                                             592,  595,  596,  802,  805,  806,  812,  816,  817,  833,  836,
                                                             837,  846,  848,  849,  865,  868,  869,  875,  879,  880,  896,
                                                             899,  900,  909,  911,  912,  930,  933,  934,  942,  945,  946,
                                                            1047, 1069, 1072, 1073, 1079, 1082, 1083, 1102, 1105, 1106, 1112,
                                                            1115, 1116, 1252, 1283, 1286, 1287, 1297, 1300, 1301, 1319, 1322,
                                                            1323, 1333, 1336, 1337, 1366, 1373, 1380, 1388, 1396, 1403, 1410,
                                                            1418, 1439, 1451, 1481, 1511, 1524, 1537, 1554, 1562, 1572, 1574,
                                                            1575, 1587, 1598, 1600, 1608, 1618, 1630, 1636, 1639, 1648, 1671,
                                                            1675, 1679, 1685, 1699, 1703, 1704, 1709, 1713, 1714, 1747, 1749,
                                                            1751, 1805, 1806, 1808, 1878, 1880, 1882, 1930, 1932, 1934, 2024,
                                                            2034, 2041, 2048, 2056, 2086, 2117, 2158, 2162, 2164, 2168, 2170,
                                                            2174, 2176, 2180, 2181, 2197, 2243, 2275, 2287, 2299, 2328, 2340,
                                                            2368, 2380, 2425, 2432, 2434, 2468, 2485, 2513, 2525, 2537, 2568,
                                                            2570, 2705, 2718, 2731, 2775, 2833, 2835, 2836, 2863, 2867, 2874,
                                                            2876, 2877, 2904, 2908, 2912, 2914, 2918, 2920, 2923, 2947, 2949,
                                                            2950, 2978, 2980, 2981, 3008, 3010, 3011, 3040, 3042, 3043, 3072,
                                                            3074, 3075, 3122, 3180, 3182, 3183, 3210, 3214, 3221, 3223, 3224,
                                                            3251, 3255, 3259, 3261, 3265, 3267, 3270, 3294, 3296, 3297, 3326,
                                                            3328, 3329, 3356, 3358, 3359, 3388, 3390, 3391, 3420, 3422, 3423,
                                                            3655, 3657, 3675, 3677, 3695, 3697, 3715, 3717, 3735, 3737, 3755,
                                                            3757, 3780, 3792, 3803, 3829, 3841, 3852, 3875, 3885, 3914, 3924,
                                                            3953, 3963, 4199, 4201, 4202, 4216, 4220, 4221, 4227, 4231, 4232,
                                                            4238, 4240, 4241, 4244, 4246, 4247, 4255, 4259, 4260, 4265, 4269,
                                                            4270, 4295, 4299, 4302, 4307, 4309, 4312, 4332, 4344, 4371, 4383,
                                                            4410, 4422, 4446, 4471, 4473, 4500, 4501, 4510, 4571, 4587, 4605,
                                                            4622, 4638, 4664, 4665, 4743, 4744, 4760, 4761, 4772, 4788, 4795,
                                                            4804, 4807, 5284, 5449, 5954, 5956, 5988, 6019, 6048, 6057, 6061,
                                                            6065, 6069, 6073, 6077, 6081, 6085, 6089, 6095, 6099, 6213, 6222,
                                                            6230, 6238, 6242, 6267, 6279, 6291, 6292, 6296, 6320, 6333, 6345,
                                                            6354, 6378, 6449, 6482, 6542, 6570, 6589, 6607, 6621, 6631, 6642,
                                                            6653, 6678, 6697, 6701, 6710, 6719, 6728, 6737, 6747, 6754, 6770,
                                                            6774, 6783, 6792, 6801, 6810, 6820, 6847, 6864, 6882, 6895, 6904,
                                                            6908, 6926, 6928, 6930, 6940, 6944, 6948, 6967, 6979, 6993, 7006,
                                                            7008, 7016, 7017, 7028, 7029, 7043, 7047, 7051, 7057, 7066, 7082,
                                                            7092, 7102, 7122, 7124, 7141, 7143, 7156, 7158, 7173, 7175, 7189,
                                                            7198, 7202, 7206, 7212, 7245, 7251, 7261, 7278, 7287, 7302, 7304,
                                                            7313, 7314, 7339, 7355, 7360, 7365, 7370, 7375, 7378, 7379, 7384,
                                                            7426, 7477, 7502, 7507, 7512, 7517, 7534, 7539, 7546, 7551, 7559,
                                                            7571, 7580, 7592, 7607, 7617, 7619, 7623, 7625, 7629, 7631, 7635,
                                                            7637, 7641, 7643, 7693, 7701, 7704, 7715, 7723, 7726, 7736, 7758,
                                                            7760, 7769, 7771, 7783, 7791, 7820, 7823, 7836, 7850, 7852, 7861,
                                                            7863, 7906, 7972, 7973, 7974, 7998, 8028, 8033, 8047, 8049, 8056,
                                                            8080, 8081, 8085, 8090, 8188, 8202, 8204, 8209, 8226, 8228, 8231,
                                                            8237, 8240, 8243, 8246, 8260, 8306, 8309, 8353, 8360, 8365, 8368,
                                                            8370, 8377, 8392, 8397, 8512, 8531, 8539, 8543, 8547,
                                         fort_equs:     40.
      700000    op2                      fort_cg_macros_:    404,  412, 1434, 1694, 1696, 1700, 1710, 1750, 1881, 1933, 2202,
                                                            2774, 2777, 2781, 2814, 2851, 2864, 2892, 2905, 2937, 2939, 2944,
                                                            2969, 2971, 2975, 2999, 3001, 3005, 3029, 3031, 3037, 3062, 3064,
                                                            3069, 3121, 3124, 3128, 3161, 3198, 3211, 3239, 3252, 3284, 3286,
                                                            3291, 3316, 3318, 3323, 3347, 3349, 3353, 3377, 3379, 3385, 3410,
                                                            3412, 3417, 3646, 3652, 3656, 3658, 3664, 3672, 3676, 3686, 3692,
                                                            3696, 3698, 3704, 3712, 3716, 3726, 3732, 3736, 3738, 3744, 3752,
                                                            3756, 4441, 4466, 4470, 4480, 4496, 4499, 4505, 4518, 4533, 4553,
                                                            4580, 4588, 4597, 4604, 4614, 4621, 4631, 4639, 4652, 4661, 4740,
                                                            4757, 4776, 4791, 4798, 4801, 4810, 4994, 5188, 5358, 5524, 5712,
                                                            5905, 6929, 7003, 7007, 7009, 7013, 7024, 7033, 7035, 7117, 7123,
                                                            7126, 7136, 7151, 7168, 7351, 7390, 7395, 7399, 7401, 7404, 7409,
                                                            7413, 7417, 7423, 7463, 7466, 7478, 7483, 7488, 7493, 7498, 7503,
                                                            7508, 7513, 7518, 7523, 7528, 7530, 7535, 7540, 7542, 7547, 7552,
                                                            7554, 7560, 7564, 7575, 7578, 7581, 7585, 7591, 7754, 7759, 7765,
                                                            7770, 7846, 7851, 7857, 7862, 7910, 7996, 8003, 8027, 8036, 8084,
                                                            8089, 8227, 8378,
                                         fort_equs:     41.
      640000    op3                      fort_cg_macros_:   4509, 4534, 4554, 8057,
                                         fort_equs:     42.
      600000    op4                      fort_cg_macros_:   4517,
                                         fort_equs:     43.
      540000    op5                      fort_equs:     44.
      500000    op6                      fort_equs:     45.
      440000    op7                      fort_equs:     46.
       11424    open                     fort_cg_macros_:   6951,
                                         fort_operator_table:       91.
       11525    open.p                   fort_cg_macros_:   7056, 7065.
       11454    opencase1                fort_cg_macros_:   6993, 6995.
       11470    opencase10               fort_cg_macros_:   6993, 7021.
       11470    opencase11               fort_cg_macros_:   6993, 7022.
       11470    opencase12               fort_cg_macros_:   6993, 7023.
       11454    opencase13               fort_cg_macros_:   6993, 7002.
       11475    opencase14               fort_cg_macros_:   6993, 7032.
       11454    opencase2                fort_cg_macros_:   6993, 6996.
       11454    opencase3                fort_cg_macros_:   6993, 6997.
       11454    opencase4                fort_cg_macros_:   6993, 6998.
       11454    opencase5                fort_cg_macros_:   6993, 6999.
       11454    opencase6                fort_cg_macros_:   6993, 7000.
       11454    opencase7                fort_cg_macros_:   6993, 7001.
       11463    opencase8                fort_cg_macros_:   6993, 7012.
       11470    opencase9                fort_cg_macros_:   6993, 7020.
       11362    openfile                 fort_cg_macros_:   6911,
                                         fort_operator_table:       51.
       11413    openfile1.p              fort_cg_macros_:   6914, 6939.
       11416    openfile2.p              fort_cg_macros_:   6917, 6918, 6943.
       11421    openfile3.p              fort_cg_macros_:   6920, 6921, 6947.
       11435    open_loop                fort_cg_macros_:   6976, 7010, 7018, 7030.
       11441    open_loop.2              fort_cg_macros_:   6984, 7036.
       11501    open_loop.e              fort_cg_macros_:   6985, 7038.
       11503    open_loop1.p             fort_cg_macros_:   7004, 7042.
       11506    open_loop2.p             fort_cg_macros_:   7014, 7046.
       11511    open_loop3.p             fort_cg_macros_:   7026, 7050.
       11514    open_return              fort_cg_macros_:   6985, 7054.
           0    operator_table           fort_cg_macros_:    178,
                                         fort_operator_table:       16.
       40000    opf                      fort_equs:     29,   30,   31,   32,   33,   34,   35,   36,   38,   40,   41,   42,
                                                        43,   44,   45,   46.
       13252    opt_subscript            fort_cg_macros_:   8430,
                                         fort_operator_table:       82.
           0    opv                      fort_cg_macros_:   2841, 2882, 2928, 2955, 2986, 3016, 3048, 3080, 3188, 3229, 3275,
                                                            3302, 3334, 3364, 3396, 3428, 4668, 4747, 4764, 6300,
                                         fort_equs:     38.
         551    op_base                  fort_equs:    175,  177,  178,  180,  181,  182,  183,  184,  185,  186,  187,  188,
                                                       189,  190,  191,  192,  193,  194,  195,  196,  197,  198,  199,  200,
                                                       201,  202,  203,  204,  205,  206,  207,  208,  209,  210,  211,  212,
                                                       213,  214,  215,  216,  217,  218,  219,  220,  221,  222,  223,  224,
                                                       225,  226,  227,  228,  229,  230,  231,  232,  233,  234,  235,  236,
                                                       237,  238,  239,  240,  241,  242,  243,  244,  245,  246,  247,  248,
                                                       249,  250,  251,  252,  253,  254,  255,  256,  257,  258,  259,  260,
                                                       261,  262,  263,  264,  265,  266,  267,  268,  269,  279,  281.
       10222    or                       fort_cg_macros_:   5918,
                                         fort_operator_table:       30.
        6534    or.tl                    fort_cg_macros_:   2100, 4737.
        6537    or.tl.loop               fort_cg_macros_:   4742, 4749.
        6546    or.tl.r                  fort_cg_macros_:   4745, 4751.
       10231    or_e1                    fort_cg_macros_:   5922, 5928.
       10233    or_e2                    fort_cg_macros_:   5920, 5931.
         400    P0.5H                    fort_equs:    286.
        2040    P1.0H                    fort_equs:    287.
        2100    P2.0H                    fort_equs:    288.
       12336    pause                    fort_cg_macros_:   7697,
                                         fort_operator_table:       58.
       12345    pause.1                  fort_cg_macros_:   7708, 7717.
       12653    pfn_ret                  fort_cg_macros_:   8022, 8038.
       12627    pop_ps                   fort_cg_macros_:   7996, 8003.
         400    pr1                      fort_cg_macros_:   2244, 2276, 2288, 2300, 2329, 2341, 2369, 2381, 2514, 2526, 2538,
                                                            2706, 2719, 2732, 3781, 3793, 3804, 3830, 3842, 3853, 3876, 3886,
                                                            3915, 3925, 3954, 3964, 4333, 4345, 4372, 4384, 4411, 4423, 6563,
                                                            6582, 6684, 6756, 6827, 6840, 6857, 6875, 6897, 6933, 6961, 7059,
                                                            7078, 7214, 7228, 7329, 7706, 7716, 7727, 7737, 8383,
                                         fort_equs:    117,  123.
           2    pr1n                     fort_cg_macros_:   1450, 1480, 1510, 1523, 1536, 1553, 1639, 1651, 2426, 2469, 2486,
                                                            8309,
                                         fort_equs:    127.
         200    pr2                      fort_cg_macros_:   6563, 6582, 6604, 6840, 6857, 6875, 6897, 6961, 7059, 7078, 7214,
                                                            7228, 7329, 7716, 7737, 8206, 8383,
                                         fort_equs:    118,  123.
           3    pr2n                     fort_cg_macros_:   1125, 1266, 1341, 1451, 1481, 1511, 1524, 1537, 1554, 1562, 1587,
                                                            1618, 1630, 1648, 2243, 2275, 2287, 2299, 2328, 2340, 2368, 2380,
                                                            2425, 2468, 2485, 2513, 2525, 2537, 2705, 2718, 2731, 3516, 3531,
                                                            3554, 3616, 3629, 3637, 3780, 3792, 3803, 3829, 3841, 3852, 3875,
                                                            3885, 3914, 3924, 3953, 3963, 4332, 4344, 4371, 4383, 4410, 4422,
                                                            4509, 4517, 6362, 6619, 6651, 6695, 6765, 6925, 6927, 7007, 7123,
                                                            7141, 7173, 7244, 7276, 7298, 7703, 7725, 7998, 8027, 8220, 8264,
                                                            8370, 8511,
                                         fort_equs:    128.
         100    pr3                      fort_cg_macros_:   1452, 1482, 1512, 1525, 1538, 1555, 1640, 1652, 2244, 2276, 2288,
                                                            2300, 2329, 2341, 2369, 2381, 2470, 2488, 2514, 2526, 2538, 2706,
                                                            2719, 2732, 3781, 3793, 3804, 3830, 3842, 3853, 3876, 3886, 3915,
                                                            3925, 3954, 3964, 4333, 4345, 4372, 4384, 4411, 4423, 6563, 6582,
                                                            6684, 6756, 6827, 6840, 6857, 6875, 6897, 6933, 6961, 7059, 7078,
                                                            7214, 7228, 7329, 7706, 7716, 7727, 7737, 8383,
                                         fort_equs:    119,  123.
           4    pr3n                     fort_cg_macros_:   6977, 7091,
                                         fort_equs:    129.
        1000    pr4                      fort_cg_macros_:   1452, 1482, 1512, 1525, 1538, 1555, 1640, 1652, 2244, 2276, 2288,
                                                            2300, 2329, 2341, 2369, 2381, 2470, 2488, 2514, 2526, 2538, 2706,
                                                            2719, 2732, 3781, 3793, 3804, 3830, 3842, 3853, 3876, 3886, 3915,
                                                            3925, 3954, 3964, 4333, 4345, 4372, 4384, 4411, 4423, 6563, 6582,
                                                            6684, 6756, 6827, 6840, 6857, 6875, 6897, 6933, 6961, 7059, 7078,
                                                            7214, 7228, 7329, 7606, 7706, 7716, 7727, 7737, 8206, 8319, 8383,
                                         fort_equs:    116,  123.
           1    pr4n                     fort_equs:    126.
          40    pr5                      fort_cg_macros_:   1452, 1482, 1512, 1525, 1538, 1555, 1640, 1652, 2244, 2276, 2288,
                                                            2300, 2329, 2341, 2369, 2381, 2470, 2488, 2514, 2526, 2538, 2706,
                                                            2719, 2732, 3781, 3793, 3804, 3830, 3842, 3853, 3876, 3886, 3915,
                                                            3925, 3954, 3964, 4333, 4345, 4372, 4384, 4411, 4423, 6563, 6582,
                                                            6684, 6756, 6827, 6840, 6857, 6875, 6897, 6933, 6961, 7059, 7078,
                                                            7214, 7228, 7329, 7706, 7716, 7727, 7737, 8383,
                                         fort_equs:    120,  123.
           5    pr5n                     fort_cg_macros_:   6629, 6640,
                                         fort_equs:    130.
          20    pr7                      fort_cg_macros_:   1452, 1482, 1512, 1525, 1538, 1555, 1640, 1652, 2244, 2276, 2288,
                                                            2300, 2329, 2341, 2369, 2381, 2470, 2488, 2514, 2526, 2538, 2706,
                                                            2719, 2732, 3781, 3793, 3804, 3830, 3842, 3853, 3876, 3886, 3915,
                                                            3925, 3954, 3964, 4333, 4345, 4372, 4384, 4411, 4423, 6563, 6582,
                                                            6684, 6756, 6827, 6840, 6857, 6875, 6897, 6933, 6961, 7059, 7078,
                                                            7214, 7228, 7329, 7706, 7716, 7727, 7737, 8383,
                                         fort_equs:    121,  123.
           6    pr7n                     fort_equs:    131.
       12641    prepare_for_namelists    fort_cg_macros_:   7921, 7933, 7945, 8021.
       12707    process_param_list       fort_cg_macros_:   8094,
                                         fort_operator_table:      124.
       12427    process_subscript        fort_cg_macros_:   7748, 7761, 7772, 7776, 7778.
           1    protect_indicators       fort_cg_macros_:   6034, 6388, 6491,
                                         fort_equs:    134.
           2    ps                       fort_cg_macros_:   6606, 6620, 6630, 6641, 6893, 6924, 7243, 7260, 7277, 7286, 7296,
                                                            7994, 8025, 8510,
                                         fort_equs:    144.
          12    ps_area_ptr              fort_cg_macros_:   6968, 7083,
                                         fort_equs:    152.
          52    ps_ptr                   fort_cg_macros_:   7999,
                                         fort_equs:    155.
        1171    push_offset              stack_header:        81.
         400    q                        fort_cg_macros_:    210,  269,  275,  299,  300,  305,  315,  345,  461,  463,  625,
                                                             627,  637,  671,  761,  979,  986, 1041, 1158, 1160, 1224, 1246,
                                                            1366, 1388, 1396, 1418, 1449, 1455, 1465, 1495, 1569, 1595, 1676,
                                                            1747, 1749, 1756, 1757, 1771, 1784, 1805, 1808, 1815, 1816, 1833,
                                                            1843, 1864, 1899, 1951, 1995, 2007, 2031, 2123, 2162, 2215, 2562,
                                                            2812, 2942, 3004, 3159, 3289, 3352, 3501, 3555, 3652, 3672, 3692,
                                                            3712, 3732, 3752, 3984, 4000, 4077, 4212, 4441, 4510, 4518, 4696,
                                                            4708, 4720, 4732, 4821, 4823, 5015, 5017, 5209, 5374, 5539, 5541,
                                                            5732, 5734, 6126, 6128, 6131, 6267, 6282, 6561, 6580, 6766, 6838,
                                                            6855, 6873, 6892, 6932, 7008, 7016, 7057, 7124, 7156, 7212, 7226,
                                                            7259, 7285, 7302, 7314, 7351, 7477, 7617, 7758, 7769, 7850, 7861,
                                                            8421, 8426, 8439, 8442, 8449, 8452, 8467, 8479,
                                         fort_equs:     73.
         442    qls1                     fort_cg_macros_:    231,  241.
       12333    quick_return             fort_cg_macros_:   7684, 7690.
        4066    rddim.1                  fort_cg_macros_:   2596, 2660.
        5130    rdmod.1                  fort_cg_macros_:   3468, 3536.
        5222    rdsign.1                 fort_cg_macros_:   3583, 3636.
       11005    read                     fort_cg_macros_:   6554,
                                         fort_operator_table:       39.
       11020    read.p                   fort_cg_macros_:   6558, 6569.
       13356    read_array               fort_cg_macros_:   8565,
                                         fort_operator_table:       99.
       11716    read_internal_file       fort_cg_macros_:   7290,
                                         fort_operator_table:      121.
       13356    read_namelist            fort_cg_macros_:   8574,
                                         fort_operator_table:      108.
       13356    read_scalar              fort_cg_macros_:   8564,
                                         fort_operator_table:       98.
       13356    read_vector              fort_cg_macros_:   8566,
                                         fort_operator_table:      100.
      200000    real                     fort_cg_macros_:   1667, 1739, 2082, 2090, 2094, 2112, 2208, 2261, 2314, 2354, 2499,
                                                            2691, 2819, 2855, 2898, 2970, 2972, 2988, 3030, 3032, 3050, 3166,
                                                            3202, 3245, 3317, 3319, 3336, 3378, 3380, 3398, 3510, 3512, 3767,
                                                            3816, 4005, 4319, 4358, 4397, 4648, 4650, 6107, 6112, 6257, 6262,
                                                            7750, 7832,
                                         fort_equs:     53.
        5710    real.p                   fort_cg_macros_:   4103, 4134.
        1000    realn                    fort_cg_macros_:    648,  767,  786, 1039, 1051, 1232, 1244, 1256, 1372, 1433, 1438,
                                                            1471, 1879, 2167, 2862, 3209, 3650, 3662, 3670, 3681, 3690, 3702,
                                                            3710, 3721, 7377, 7622, 7889,
                                         fort_equs:     62.
        5665    real_builtin             fort_cg_macros_:   2100, 4102.
        5702    real_builtin.cmpx        fort_cg_macros_:   4103, 4119.
        5676    real_builtin.dp          fort_cg_macros_:   4103, 4113, 4131.
        5672    real_builtin.int         fort_cg_macros_:   4103, 4105, 4126.
        5674    real_builtin.real        fort_cg_macros_:   4103, 4109.
       12525    real_func                fort_cg_macros_:   7872, 7888.
        1350    real_p_int               fort_cg_macros_:   1483,
                                         fort_equs:    195.
        1347    real_p_real              fort_cg_macros_:   1526,
                                         fort_equs:    196.
         654    real_to_integer          fort_cg_macros_:   1383, 1896, 2030, 3054, 3402, 7757, 7849,
                                         fort_equs:    188.
       11667    record_number            fort_cg_macros_:   7254,
                                         fort_operator_table:       53.
       11675    record_number.p          fort_cg_macros_:   7257, 7264.
          11    record_number_slot       fort_cg_macros_:   7261,
                                         fort_equs:    160.
       10000    rel_constant             fort_cg_macros_:   6169, 6179, 6189, 6358,
                                         fort_equs:     99.
        1456    restore_stack_quick      fort_equs:    254.
       12327    return                   fort_cg_macros_:   7682,
                                         fort_operator_table:       57.
        1173    return_no_pop_offset     stack_header:        83.
        1172    return_offset            stack_header:        82.
         631    return_op                fort_cg_macros_:   8074,
                                         fort_equs:    182.
         441    ret_mpy                  fort_cg_macros_:    227,  236,  239.
         431    ret_sub                  fort_cg_macros_:    207,  208,  219.
       11303    rewind                   fort_cg_macros_:   6850,
                                         fort_operator_table:       48.
       11315    rewind.p                 fort_cg_macros_:   6853, 6863.
       13261    right_shift              fort_cg_macros_:   8446,
                                         fort_operator_table:       84.
        2117    round_dp_const           fort_cg_macros_:   1432, 1437.
        2112    round_dp_to_real         fort_cg_macros_:   1305, 1429, 1613, 1626, 7400.
         512    r_e_as                   fort_equs:    273,
                                         fort_single_inst:    61.
         527    r_ge_a                   fort_equs:    276,
                                         fort_single_inst:    64.
         524    r_ge_s                   fort_equs:    278,
                                         fort_single_inst:    68.
         503    r_g_a                    fort_equs:    272,
                                         fort_single_inst:    66.
         477    r_g_s                    fort_equs:    192,
                                         fort_single_inst:   103.
         520    r_le_a                   fort_equs:    275,
                                         fort_single_inst:    65.
         532    r_le_s                   fort_equs:    193,
                                         fort_single_inst:   102.
         474    r_l_a                    fort_equs:    271,
                                         fort_single_inst:    63.
         507    r_l_s                    fort_equs:    277,
                                         fort_single_inst:    67.
         515    r_ne_as                  fort_equs:    274,
                                         fort_single_inst:    62.
        1455    save_stack_quick         fort_equs:    253.
        1227    set_cs_eis               fort_cg_macros_:   4511,
                                         fort_equs:    251.
       12071    sf                       fort_cg_macros_:   7454,
                                         fort_operator_table:       65.
       12202    sf_cc                    fort_cg_macros_:   7474, 7557.
       12175    sf_cd                    fort_cg_macros_:   7474, 7550.
       12155    sf_ci                    fort_cg_macros_:   7474, 7526.
       12165    sf_cr                    fort_cg_macros_:   7474, 7538.
       12172    sf_dc                    fort_cg_macros_:   7474, 7545.
       12141    sf_dd                    fort_cg_macros_:   7474, 7506.
       11747    sf_def                   fort_cg_macros_:   7335,
                                         fort_operator_table:       66.
       12061    sf_def.p                 fort_cg_macros_:   7344, 7445.
       12066    sf_def.p0                fort_cg_macros_:   7421, 7450.
       12041    sf_def_cc                fort_cg_macros_:   7348, 7416.
       12037    sf_def_cd                fort_cg_macros_:   7348, 7412.
       12020    sf_def_ci                fort_cg_macros_:   7348, 7383.
       12035    sf_def_cr                fort_cg_macros_:   7348, 7408.
       12027    sf_def_dc                fort_cg_macros_:   7348, 7398.
       12025    sf_def_dd                fort_cg_macros_:   7348, 7394.
       12006    sf_def_di                fort_cg_macros_:   7348, 7369.
       12025    sf_def_dr                fort_cg_macros_:   7348, 7393.
       12050    sf_def_e1                fort_cg_macros_:   7348, 7424, 7429.
       12043    sf_def_e2                fort_cg_macros_:   7348, 7420.
       12011    sf_def_ic                fort_cg_macros_:   7348, 7374.
       12003    sf_def_id                fort_cg_macros_:   7348, 7364.
       11773    sf_def_ii                fort_cg_macros_:   7348, 7350.
       11775    sf_def_ir                fort_cg_macros_:   7348, 7354.
       12032    sf_def_rc                fort_cg_macros_:   7348, 7403.
       12023    sf_def_rd                fort_cg_macros_:   7348, 7388.
       12053    sf_def_ret               fort_cg_macros_:   7352, 7357, 7362, 7367, 7372, 7381, 7386, 7391, 7396, 7406, 7410,
                                                            7414, 7418, 7427, 7433.
       12000    sf_def_ri                fort_cg_macros_:   7348, 7359.
       12023    sf_def_rr                fort_cg_macros_:   7348, 7389.
       12133    sf_di                    fort_cg_macros_:   7474, 7496.
       12147    sf_dr                    fort_cg_macros_:   7474, 7516.
       12206    sf_e1                    fort_cg_macros_:   7474, 7563, 7576, 7586.
       12212    sf_e2                    fort_cg_macros_:   7474, 7567.
       12304    sf_error_r               fort_cg_macros_:   7472, 7565, 7572, 7648, 7655, 7659.
       12226    sf_h                     fort_cg_macros_:   7569, 7584.
       12152    sf_ic                    fort_cg_macros_:   7474, 7521.
       12130    sf_id                    fort_cg_macros_:   7474, 7491.
       12117    sf_ii                    fort_cg_macros_:   7474, 7476.
       12310    sf_insuf.p               fort_cg_macros_:   7601, 7653.
       12122    sf_ir                    fort_cg_macros_:   7474, 7481.
       12220    sf_l                     fort_cg_macros_:   7568, 7574.
       12074    sf_loop                  fort_cg_macros_:   7460, 7597.
       12237    sf_no_args               fort_cg_macros_:   7456, 7599.
       12235    sf_r                     fort_cg_macros_:   7479, 7484, 7489, 7494, 7499, 7504, 7509, 7514, 7519, 7524, 7531,
                                                            7536, 7543, 7548, 7555, 7561, 7582, 7593, 7595.
       12162    sf_rc                    fort_cg_macros_:   7474, 7533.
       12144    sf_rd                    fort_cg_macros_:   7474, 7511.
       12272    sf_ret_c                 fort_cg_macros_:   7612, 7633.
       12266    sf_ret_d                 fort_cg_macros_:   7612, 7627.
       12302    sf_ret_h                 fort_cg_macros_:   7612, 7645.
       12256    sf_ret_i                 fort_cg_macros_:   7612, 7614.
       12276    sf_ret_l                 fort_cg_macros_:   7612, 7639.
       12262    sf_ret_r                 fort_cg_macros_:   7612, 7621.
       12256    sf_ret_t                 fort_cg_macros_:   7612, 7615.
       12125    sf_ri                    fort_cg_macros_:   7474, 7486.
       12136    sf_rr                    fort_cg_macros_:   7474, 7501.
       12101    sf_skip                  fort_cg_macros_:   7463, 7469.
       12313    sf_too_many.p            fort_cg_macros_:   7461, 7657.
        1014    shorten_stack            fort_equs:    255.
       12351    short_pause              fort_cg_macros_:   7701, 7714.
       12367    short_stop               fort_cg_macros_:   7723, 7735.
        5133    sign                     fort_cg_macros_:   2100, 3544.
        5204    sign.1                   fort_cg_macros_:   3562, 3566, 3577, 3615.
        1375    signal_stringrange       fort_cg_macros_:    272,  278,
                                         fort_equs:    185.
        5201    sign_cc                  fort_cg_macros_:   3545, 3606.
        5200    sign_cd                  fort_cg_macros_:   3545, 3603.
        5174    sign_ci                  fort_cg_macros_:   3545, 3591.
        5176    sign_cr                  fort_cg_macros_:   3545, 3597.
        5177    sign_dc                  fort_cg_macros_:   3545, 3600.
        5170    sign_dd                  fort_cg_macros_:   3545, 3579.
        5165    sign_di                  fort_cg_macros_:   3545, 3572.
        5172    sign_dr                  fort_cg_macros_:   3545, 3585.
        5202    sign_e1                  fort_cg_macros_:   3545, 3609.
        5203    sign_e2                  fort_cg_macros_:   3545, 3612.
         667    sign_fl                  fort_cg_macros_:   3618, 3632,
                                         fort_equs:    226.
         666    sign_fx                  fort_cg_macros_:   3556,
                                         fort_equs:    225.
        5173    sign_ic                  fort_cg_macros_:   3545, 3588.
        5163    sign_id                  fort_cg_macros_:   3545, 3568.
        5152    sign_ii                  fort_cg_macros_:   3545, 3553.
        5157    sign_ir                  fort_cg_macros_:   3545, 3560.
        5175    sign_rc                  fort_cg_macros_:   3545, 3594.
        5171    sign_rd                  fort_cg_macros_:   3545, 3582.
        5161    sign_ri                  fort_cg_macros_:   3545, 3564.
        5167    sign_rr                  fort_cg_macros_:   3545, 3576.
        5341    sin                      fort_cg_macros_:   2100, 3765.
        5345    sin.1                    fort_cg_macros_:   3767, 3771.
        5350    sin.2                    fort_cg_macros_:   3773, 3778.
         155    single_inst              fort_cg_macros_:    179,
                                         fort_single_inst:    16.
        5473    sinh                     fort_cg_macros_:   2100, 3902.
        5503    sinh.1                   fort_cg_macros_:   3907, 3912.
        5512    sinh.dp                  fort_cg_macros_:   3903, 3921, 3934.
        5500    sinh.int                 fort_cg_macros_:   3903, 3905.
        5524    sinh.p                   fort_cg_macros_:   3903, 3937.
        5502    sinh.real                fort_cg_macros_:   3903, 3909.
        1460    sinh_                    fort_cg_macros_:   3916,
                                         fort_equs:    257.
        1275    sin_                     fort_cg_macros_:   3782,
                                         fort_equs:    227.
        5347    sin_i                    fort_cg_macros_:   3766, 3775.
        5706    sngl                     fort_cg_macros_:   2100, 4129.
        5710    sngl.p                   fort_cg_macros_:   4130, 4136.
        5401    sqrt                     fort_cg_macros_:   2100, 3814.
        5405    sqrt.1                   fort_cg_macros_:   3816, 3820.
        5410    sqrt.2                   fort_cg_macros_:   3822, 3827.
        1274    sqrt_                    fort_cg_macros_:   3831,
                                         fort_equs:    230.
        5407    sqrt_i                   fort_cg_macros_:   3815, 3824.
          73    stach_header.trace_top_ptr     stack_header:        62.
          32    stack_frame.arg_ptr      fort_cg_macros_:   8012,
                                         stack_frame:   16.
         100    stack_frame.condition_bit      stack_frame:   32.
          20    stack_frame.condition_word     stack_frame:    9.
        2000    stack_frame.crawl_out_bit      stack_frame:   28.
          26    stack_frame.entry_ptr    stack_frame:   13.
          20    stack_frame.flag_word    stack_frame:   24.
         400    stack_frame.link_trap_bit      stack_frame:   30.
          30    stack_frame.lp_ptr       stack_frame:   15.
       20000    stack_frame.main_proc_bit      stack_frame:   25.
          60    stack_frame.min_length   stack_frame:   23.
          22    stack_frame.next_sp      stack_frame:   10.
          36    stack_frame.on_unit_rel_ptrs   stack_frame:   19.
          30    stack_frame.operator_ptr       stack_frame:   14.
          37    stack_frame.operator_ret_ptr   stack_frame:   20.
          20    stack_frame.prev_sp      stack_frame:    8.
          40    stack_frame.regs         stack_frame:   22.
          24    stack_frame.return_ptr   stack_frame:   12.
       10000    stack_frame.run_unit_manager   stack_frame:   26.
        1000    stack_frame.signaller_bit      stack_frame:   29.
          22    stack_frame.signaller_word     stack_frame:   11.
        4000    stack_frame.signal_bit   stack_frame:   27.
          34    stack_frame.static_ptr   stack_frame:   17.
         200    stack_frame.support_bit  stack_frame:   31.
          35    stack_frame.support_ptr  stack_frame:   18.
          37    stack_frame.translator_id      stack_frame:   21.
          66    stack_header.assign_linkage_ptr      stack_header:        59.
          32    stack_header.bar_mode_sp       stack_header:        42.
          36    stack_header.call_op_ptr       stack_header:        44.
          10    stack_header.clr_ptr     stack_header:        27.
           6    stack_header.combined_stat_ptr       stack_header:        25.
           4    stack_header.cpm_data_ptr      stack_header:        24.
          13    stack_header.cpm_enabled       stack_header:        32.
          13    stack_header.cur_lot_size      stack_header:        31.
          64    stack_header.ect_ptr     stack_header:        58.
          46    stack_header.entry_op_ptr      stack_header:        49.
          70    stack_header.heap_header_ptr   stack_header:        60.
          74    stack_header.in_trace    stack_header:        63.
          52    stack_header.isot_ptr    stack_header:        52.
          26    stack_header.lot_ptr     stack_header:        39.
          12    stack_header.main_proc_invoked       stack_header:        29.
          12    stack_header.max_lot_size      stack_header:        28.
          20    stack_header.parent_ptr  stack_header:        36.
          34    stack_header.pl1_operators_ptr       fort_cg_macros_:   7961,
                                                     stack_header:        43.
          40    stack_header.push_op_ptr       stack_header:        46.
          42    stack_header.return_op_ptr     stack_header:        47.
          44    stack_header.ret_no_pop_op_ptr       stack_header:        48.
          62    stack_header.rnt_ptr     stack_header:        57.
          12    stack_header.run_unit_depth    stack_header:        30.
          54    stack_header.sct_ptr     stack_header:        53.
          30    stack_header.signal_ptr  stack_header:        41.
          22    stack_header.stack_begin_ptr   stack_header:        37.
          24    stack_header.stack_end_ptr     stack_header:        38.
          14    stack_header.system_free_ptr   stack_header:        33.
          60    stack_header.sys_link_info_ptr       stack_header:        56.
          72    stack_header.trace_frames      stack_header:        61.
          50    stack_header.trans_op_tv_ptr   stack_header:        51.
          56    stack_header.unwinder_ptr      stack_header:        54.
          16    stack_header.user_free_ptr     stack_header:        34.
         100    stack_header_end         stack_header:        64.
          11    star_symbol              fort_cg_macros_:   8024,
                                         fort_equs:    151.
       12733    stat                     fort_cg_macros_:   8152,
                                         fort_operator_table:       74.
        2000    statement_function       fort_equs:    101.
       12354    stop                     fort_cg_macros_:   7719,
                                         fort_operator_table:       59.
       12363    stop.1                   fort_cg_macros_:   7729, 7738.
       13271    storage_add              fort_cg_macros_:   8464,
                                         fort_operator_table:       86.
       13313    storage_add_one          fort_cg_macros_:   8498,
                                         fort_operator_table:       89.
       13277    storage_sub              fort_cg_macros_:   8476,
                                         fort_operator_table:       87.
       13265    store_zero               fort_cg_macros_:   8456,
                                         fort_operator_table:       85.
       11700    string                   fort_cg_macros_:   7268,
                                         fort_operator_table:       54.
       11704    string_c                 fort_cg_macros_:   7271, 7275.
       11711    string_length            fort_cg_macros_:   7282,
                                         fort_operator_table:       55.
          25    string_length_slot       fort_cg_macros_:   6930, 7287, 7303,
                                         fort_equs:    162.
          20    string_slot              fort_cg_macros_:   7278, 7299,
                                         fort_equs:    161.
        1037    sub                      fort_cg_macros_:    620,
                                         fort_operator_table:       19.
       12551    subr                     fort_cg_macros_:   7926,
                                         fort_operator_table:       73.
       12372    subscript                fort_cg_macros_:   7740,
                                         fort_operator_table:       67.
       12414    subscript_dp             fort_cg_macros_:   7752, 7763.
       12431    subscript_dt_err         fort_cg_macros_:   7750, 7782.
       12435    subscript_end            fort_cg_macros_:   7746, 7788.
       12434    subscript_err            fort_cg_macros_:   7746, 7785.
         432    subscript_mpy            fort_cg_macros_:    193,  223.
         436    subscript_mpy.1          fort_cg_macros_:    229,  233.
       12374    subscript_scan           fort_cg_macros_:   7745, 7780.
       12437    substr                   fort_cg_macros_:   7793,
                                         fort_operator_table:      113.
       12451    substr.not_char          fort_cg_macros_:   7803, 7822.
          40    substr_ref               fort_equs:    106.
        1360    sub_cc                   fort_cg_macros_:    622,  918.
        1367    sub_cc.01                fort_cg_macros_:    928,  952.
        1375    sub_cc.1                 fort_cg_macros_:    922,  936.
        1400    sub_cc.11                fort_cg_macros_:    940,  956.
        1406    sub_cc.2                 fort_cg_macros_:    923,  948.
        1412    sub_cc.3                 fort_cg_macros_:    924,  954.
        1334    sub_cd                   fort_cg_macros_:    622,  888.
        1346    sub_cd.1                 fort_cg_macros_:    892,  902.
        1350    sub_cd.10                fort_cg_macros_:    905.
        1351    sub_cd.11                fort_cg_macros_:    907,  916.
        1356    sub_cd.2                 fort_cg_macros_:    893,  914.
        1214    sub_ci                   fort_cg_macros_:    622,  772.
        1260    sub_cr                   fort_cg_macros_:    622,  825.
        1272    sub_cr.1                 fort_cg_macros_:    790,  829,  839.
        1274    sub_cr.10                fort_cg_macros_:    783,  842.
        1275    sub_cr.11                fort_cg_macros_:    844,  853.
        1302    sub_cr.2                 fort_cg_macros_:    830,  851.
        1304    sub_dc                   fort_cg_macros_:    622,  855.
        1320    sub_dc.1                 fort_cg_macros_:    859,  871.
        1321    sub_dc.11                fort_cg_macros_:    873,  886.
        1330    sub_dc.2                 fort_cg_macros_:    860,  882.
        1145    sub_dd                   fort_cg_macros_:    622,  711.
        1152    sub_dd.1                 fort_cg_macros_:    713,  719.
        1111    sub_di                   fort_cg_macros_:    622,  670.
        1126    sub_di.1                 fort_cg_macros_:    671,  689.
        1167    sub_dr                   fort_cg_macros_:    622,  739.
        1174    sub_dr.1                 fort_cg_macros_:    741,  747.
        1414    sub_e1                   fort_cg_macros_:    622,  958,  966.
        1416    sub_e2                   fort_cg_macros_:    622,  961,  965.
        1200    sub_ic                   fort_cg_macros_:    622,  753.
        1105    sub_id                   fort_cg_macros_:    622,  663.
        1053    sub_ii                   fort_cg_macros_:    622,  624.
       13356    sub_index                fort_cg_macros_:   8572,
                                         fort_operator_table:      106.
        1056    sub_ir                   fort_cg_macros_:    622,  629.
        1230    sub_rc                   fort_cg_macros_:    622,  792.
        1244    sub_rc.1                 fort_cg_macros_:    764,  770,  796,  808.
        1245    sub_rc.11                fort_cg_macros_:    810,  823.
        1254    sub_rc.2                 fort_cg_macros_:    797,  819.
        1156    sub_rd                   fort_cg_macros_:    622,  725.
        1163    sub_rd.1                 fort_cg_macros_:    727,  733.
        1062    sub_ri                   fort_cg_macros_:    622,  636.
        1077    sub_ri.1                 fort_cg_macros_:    637,  655.
        1134    sub_rr                   fort_cg_macros_:    622,  697.
        1141    sub_rr.1                 fort_cg_macros_:    699,  705.
        1420    sub_tl                   fort_cg_macros_:    622,  964.
        1427    sub_tl.1                 fort_cg_macros_:    966,  969.
        6116    tan                      fort_cg_macros_:   2100, 4317.
        6122    tan.1                    fort_cg_macros_:   4319, 4323.
        6125    tan.2                    fort_cg_macros_:   4325, 4330.
        6144    tan.p                    fort_cg_macros_:   4321, 4350.
        5441    tanh                     fort_cg_macros_:   2100, 3863.
        5451    tanh.1                   fort_cg_macros_:   3868, 3873.
        5460    tanh.dp                  fort_cg_macros_:   3864, 3882, 3895.
        5446    tanh.int                 fort_cg_macros_:   3864, 3866.
        5472    tanh.p                   fort_cg_macros_:   3864, 3898.
        5450    tanh.real                fort_cg_macros_:   3864, 3870.
        1414    tanh_                    fort_cg_macros_:   3877,
                                         fort_equs:    233.
        1301    tan_                     fort_cg_macros_:   4334,
                                         fort_equs:    234.
        6124    tan_i                    fort_cg_macros_:   4318, 4327.
       40000    temp                     fort_cg_macros_:   4936, 4949, 4968, 5130, 5143, 5162, 5300, 5313, 5332, 5465, 5478,
                                                            5497, 5654, 5667, 5686, 5847, 5860, 5879,
                                         fort_equs:     97.
          50    temp_pt                  fort_cg_macros_:   1642, 1654, 2246, 2302, 2540, 2734, 3806, 3855, 3878, 3888, 3917,
                                                            3927, 3956, 3966,
                                         fort_equs:    172.
       11741    terminate                fort_cg_macros_:   7326,
                                         fort_operator_table:       56.
        6400    tmi                      fort_cg_macros_:   4825, 4836, 4848, 4861, 4874, 4886, 4899, 5001, 5740, 5752, 5764,
                                                            5777, 5790, 5802, 5814, 5916, 5973,
                                         fort_equs:     85.
        7400    tmoz                     fort_cg_macros_:   5019, 5030, 5042, 5055, 5068, 5080, 5093, 5195, 5547, 5559, 5571,
                                                            5584, 5597, 5609, 5621, 5723, 5979,
                                         fort_equs:     87.
       10400    tnc                      fort_cg_macros_:   2153, 4942, 4955, 4965, 4982, 4990, 5853, 5866, 5876, 5893, 5901,
                                                            5985,
                                         fort_equs:     89.
        6000    tnz                      fort_cg_macros_:   5376, 5384, 5392, 5398, 5404, 5415, 5419, 5442, 5454, 5471, 5484,
                                                            5494, 5511, 5519, 5529, 5964, 6014,
                                         fort_equs:     84.
        2522    to_is_constant           fort_cg_macros_:   1803, 1810.
        7000    tpl                      fort_cg_macros_:   5023, 5035, 5047, 5060, 5073, 5085, 5097, 5199, 5543, 5554, 5566,
                                                            5579, 5592, 5604, 5617, 5719, 5970,
                                         fort_equs:     86.
       10000    tpnz                     fort_cg_macros_:   4829, 4841, 4853, 4866, 4879, 4891, 4903, 5005, 5736, 5747, 5759,
                                                            5772, 5785, 5797, 5810, 5912, 5976,
                                         fort_equs:     88.
        4400    tq                       fort_cg_macros_:    440,  444,  449,  450,  613,  618,  967,  971, 1133, 1144, 1350,
                                                            1355, 2143, 2180, 4660, 4676, 4739, 4756, 4997, 4999, 5191, 5193,
                                                            5361, 5527, 5715, 5717, 5908, 5910,
                                         fort_equs:     81.
           0    trace_frames.count       stack_header:        69.
           1    trace_frames.top_ptr     stack_header:        70.
       11000    trc                      fort_cg_macros_:   2148, 5136, 5149, 5159, 5176, 5184, 5660, 5673, 5683, 5700, 5708,
                                                            5982,
                                         fort_equs:     90.
        1124    trunc_fl                 fort_cg_macros_:   4028, 4033,
                                         fort_equs:    240.
         551    tv_offset                stack_header:        75,   80,   81,   82,   83,   84.
           7    two                      fort_equs:    149.
        4000    typeless                 fort_cg_macros_:    965, 1348, 2090, 4993, 5187, 5357, 5523, 5711, 5904,
                                         fort_equs:     58.
        3400    typelessn                fort_cg_macros_:   2179,
                                         fort_equs:     67.
       12523    typeless_func            fort_cg_macros_:   7872, 7884.
        6620    typeless_op1             fort_cg_macros_:   4806, 4993, 5187, 5357, 5523, 5711, 5904.
        6622    typeless_op2             fort_cg_macros_:   4809, 4994, 5188, 5358, 5524, 5712, 5905.
        5400    tze                      fort_cg_macros_:   5211, 5219, 5227, 5233, 5239, 5250, 5254, 5277, 5289, 5306, 5319,
                                                            5329, 5346, 5354, 5363, 5967, 6000,
                                         fort_equs:     83.
       13147    use_itp                  fort_cg_macros_:   8295, 8327.
      777777    var                      fort_equs:     70.
      400000    variable                 fort_cg_macros_:   4936, 4949, 4968, 5130, 5143, 5162, 5300, 5313, 5332, 5465, 5478,
                                                            5497, 5654, 5667, 5686, 5847, 5860, 5879,
                                         fort_equs:     94.
      777615    VLA_words_per_seg        fort_cg_macros_:   8422,
                                         fort_equs:    281.
       11023    write                    fort_cg_macros_:   6573,
                                         fort_operator_table:       40.
       11036    write.p                  fort_cg_macros_:   6577, 6588.
       13356    write_array              fort_cg_macros_:   8568,
                                         fort_operator_table:      102.
       11716    write_internal_file      fort_cg_macros_:   7291,
                                         fort_operator_table:      122.
       13356    write_namelist           fort_cg_macros_:   8575,
                                         fort_operator_table:      109.
       13356    write_scalar             fort_cg_macros_:   8567,
                                         fort_operator_table:      101.
       13356    write_vector             fort_cg_macros_:   8569,
                                         fort_operator_table:      103.
        3415    wrong_char_length.p      fort_cg_macros_:   2201.
        3406    wrong_number.p           fort_cg_macros_:   2191, 2745, 2936, 2968, 2998, 3028, 3061, 3092, 3283, 3315, 3346,
                                                            3376, 3409, 4659, 4738, 4755.
        3411    wrong_type.p             fort_cg_macros_:   2082, 2090, 2094, 2112, 2196.
      400000    x0                       fort_equs:    108,  122.
      200000    x1                       fort_cg_macros_:   1452, 1482, 1512, 1525, 1538, 1555, 1640, 1652, 2244, 2276, 2288,
                                                            2300, 2329, 2341, 2369, 2381, 2470, 2488, 2514, 2526, 2538, 2706,
                                                            2719, 2732, 3781, 3793, 3804, 3830, 3842, 3853, 3876, 3886, 3915,
                                                            3925, 3954, 3964, 4333, 4345, 4372, 4384, 4411, 4423, 7706, 7716,
                                                            7727, 7737, 8383,
                                         fort_equs:    109,  122.
      100000    x2                       fort_cg_macros_:   1452, 1482, 1512, 1525, 1538, 1555, 1640, 1652, 2244, 2276, 2288,
                                                            2300, 2329, 2341, 2369, 2381, 2470, 2488, 2514, 2526, 2538, 2706,
                                                            2719, 2732, 3781, 3793, 3804, 3830, 3842, 3853, 3876, 3886, 3915,
                                                            3925, 3954, 3964, 4333, 4345, 4372, 4384, 4411, 4423, 7706, 7716,
                                                            7727, 7737, 8206, 8383,
                                         fort_equs:    110,  122.
       40000    x3                       fort_cg_macros_:   1452, 1482, 1512, 1525, 1538, 1555, 1640, 1652, 2244, 2276, 2288,
                                                            2300, 2329, 2341, 2369, 2381, 2470, 2488, 2514, 2526, 2538, 2706,
                                                            2719, 2732, 3781, 3793, 3804, 3830, 3842, 3853, 3876, 3886, 3915,
                                                            3925, 3954, 3964, 4333, 4345, 4372, 4384, 4411, 4423, 7706, 7716,
                                                            7727, 7737, 8383,
                                         fort_equs:    111,  122.
       20000    x4                       fort_cg_macros_:   1452, 1482, 1512, 1525, 1538, 1555, 1640, 1652, 2244, 2276, 2288,
                                                            2300, 2329, 2341, 2369, 2381, 2470, 2488, 2514, 2526, 2538, 2706,
                                                            2719, 2732, 3781, 3793, 3804, 3830, 3842, 3853, 3876, 3886, 3915,
                                                            3925, 3954, 3964, 4333, 4345, 4372, 4384, 4411, 4423, 7706, 7716,
                                                            7727, 7737, 8383,
                                         fort_equs:    112,  122.
       10000    x5                       fort_cg_macros_:   1452, 1482, 1512, 1525, 1538, 1555, 1640, 1652, 2244, 2276, 2288,
                                                            2300, 2329, 2341, 2369, 2381, 2470, 2488, 2514, 2526, 2538, 2706,
                                                            2719, 2732, 3781, 3793, 3804, 3830, 3842, 3853, 3876, 3886, 3915,
                                                            3925, 3954, 3964, 4333, 4345, 4372, 4384, 4411, 4423, 7706, 7716,
                                                            7727, 7737, 8383,
                                         fort_equs:    113,  122.
        4000    x6                       fort_cg_macros_:   1452, 1482, 1512, 1525, 1538, 1555, 1640, 1652, 2244, 2276, 2288,
                                                            2300, 2329, 2341, 2369, 2381, 2470, 2488, 2514, 2526, 2538, 2706,
                                                            2719, 2732, 3781, 3793, 3804, 3830, 3842, 3853, 3876, 3886, 3915,
                                                            3925, 3954, 3964, 4333, 4345, 4372, 4384, 4411, 4423, 6563, 6582,
                                                            6684, 6756, 6827, 6840, 6857, 6875, 6897, 6933, 6961, 7059, 7078,
                                                            7214, 7228, 7329, 7706, 7716, 7727, 7737, 8383,
                                         fort_equs:    114,  122.
        2000    x7                       fort_cg_macros_:   1452, 1482, 1512, 1525, 1538, 1555, 1640, 1652, 2244, 2276, 2288,
                                                            2300, 2329, 2341, 2369, 2381, 2470, 2488, 2514, 2526, 2538, 2706,
                                                            2719, 2732, 3781, 3793, 3804, 3830, 3842, 3853, 3876, 3886, 3915,
                                                            3925, 3954, 3964, 4333, 4345, 4372, 4384, 4411, 4423, 7706, 7716,
                                                            7727, 7737, 8383,
                                         fort_equs:    115,  122.
       11164    xa_c                     fort_cg_macros_:   6697, 6727.
       11167    xa_c_VLA                 fort_cg_macros_:   6728, 6732.
       11157    xa_d                     fort_cg_macros_:   6697, 6718.
       11162    xa_d_VLA                 fort_cg_macros_:   6719, 6723.
       11176    xa_h                     fort_cg_macros_:   6697, 6745.
       11145    xa_i                     fort_cg_macros_:   6697, 6699.
       11150    xa_i_VLA                 fort_cg_macros_:   6701, 6705.
       11171    xa_l                     fort_cg_macros_:   6697, 6736.
       11174    xa_l_VLA                 fort_cg_macros_:   6737, 6741.
       11152    xa_r                     fort_cg_macros_:   6697, 6709.
       11155    xa_r_VLA                 fort_cg_macros_:   6710, 6714.
       11145    xa_t                     fort_cg_macros_:   6697, 6700.
       11203    xa_transfer              fort_cg_macros_:   6703, 6707, 6712, 6716, 6721, 6725, 6730, 6734, 6739, 6743, 6752.
       11135    xmit_array               fort_cg_macros_:   6690,
                                         fort_operator_table:       45.
       11101    xmit_scalar              fort_cg_macros_:   6646,
                                         fort_operator_table:       44.
       11212    xmit_vector              fort_cg_macros_:   6762,
                                         fort_operator_table:       46.
        6547    xor.tl                   fort_cg_macros_:   2100, 4754.
        6552    xor.tl.loop              fort_cg_macros_:   4759, 4766.
        6561    xor.tl.r                 fort_cg_macros_:   4762, 4768.
       11117    xs_c                     fort_cg_macros_:   6653, 6668.
       11115    xs_d                     fort_cg_macros_:   6653, 6664.
       11123    xs_h                     fort_cg_macros_:   6653, 6676.
       11111    xs_i                     fort_cg_macros_:   6653, 6655.
       11121    xs_l                     fort_cg_macros_:   6653, 6672.
       11113    xs_r                     fort_cg_macros_:   6653, 6660.
       11111    xs_t                     fort_cg_macros_:   6653, 6656.
       11130    xs_transfer              fort_cg_macros_:   6658, 6662, 6666, 6670, 6674, 6683.
       11242    xv_c                     fort_cg_macros_:   6770, 6800.
       11245    xv_c_VLA                 fort_cg_macros_:   6801, 6805.
       11235    xv_d                     fort_cg_macros_:   6770, 6791.
       11240    xv_d_VLA                 fort_cg_macros_:   6792, 6796.
       11254    xv_h                     fort_cg_macros_:   6770, 6818.
       11223    xv_i                     fort_cg_macros_:   6770, 6772.
       11226    xv_i_VLA                 fort_cg_macros_:   6774, 6778.
       11247    xv_l                     fort_cg_macros_:   6770, 6809.
       11252    xv_l_VLA                 fort_cg_macros_:   6810, 6814.
       11230    xv_r                     fort_cg_macros_:   6770, 6782.
       11233    xv_r_VLA                 fort_cg_macros_:   6783, 6787.
       11223    xv_t                     fort_cg_macros_:   6770, 6773.
       11261    xv_transfer              fort_cg_macros_:   6776, 6780, 6785, 6789, 6794, 6798, 6803, 6807, 6812, 6816, 6825.
           0    zero                     fort_equs:    142.


NO FATAL ERRORS


                                          -----------------------------------------------------------


Historical Background

This edition of the Multics software materials and documentation is provided and donated
to Massachusetts Institute of Technology by Group BULL including BULL HN Information Systems Inc.
as a contribution to computer science knowledge.
This donation is made also to give evidence of the common contributions of Massachusetts Institute of Technology,
Bell Laboratories, General Electric, Honeywell Information Systems Inc., Honeywell BULL Inc., Groupe BULL
and BULL HN Information Systems Inc. to the development of this operating system.
Multics development was initiated by Massachusetts Institute of Technology Project MAC (1963-1970),
renamed the MIT Laboratory for Computer Science and Artificial Intelligence in the mid 1970s, under the leadership
of Professor Fernando Jose Corbato. Users consider that Multics provided the best software architecture
for managing computer hardware properly and for executing programs. Many subsequent operating systems
incorporated Multics principles.
Multics was distributed in 1975 to 2000 by Group Bull in Europe , and in the U.S. by Bull HN Information Systems Inc.,
as successor in interest by change in name only to Honeywell Bull Inc. and Honeywell Information Systems Inc. .

                                          -----------------------------------------------------------

Permission to use, copy, modify, and distribute these programs and their documentation for any purpose and without
fee is hereby granted,provided that the below copyright notice and historical background appear in all copies
and that both the copyright notice and historical background and this permission notice appear in supporting
documentation, and that the names of MIT, HIS, BULL or BULL HN not be used in advertising or publicity pertaining
to distribution of the programs without specific prior written permission.
    Copyright 1972 by Massachusetts Institute of Technology and Honeywell Information Systems Inc.
    Copyright 2006 by BULL HN Information Systems Inc.
    Copyright 2006 by Bull SAS
    All Rights Reserved
