ASSEMBLY LISTING OF SEGMENT >dumps>old>recomp>graphic_char_table_.alm
ASSEMBLED ON:	11/18/82  1705.3 mst Thu
OPTIONS USED:	list
ASSEMBLED BY:	ALM Version  6.4  April 1981
ASSEMBLER CREATED:	11/03/82  1423.6 mst Wed

                                     1  " ***********************************************************
                                     2  " *                                                         *
                                     3  " * Copyright, (C) Honeywell Information Systems Inc., 1982 *
                                     4  " *                                                         *
                                     5  " * Copyright (c) 1972 by Massachusetts Institute of        *
                                     6  " * Technology and Honeywell Information Systems, Inc.      *
                                     7  " *                                                         *
                                     8  " ***********************************************************
                                     9
                                    10  " " " " " " " " " " " " " " " " " " " " " " " " " " " " " " " " " "
                                    11  "
                                    12  "  graphic_char_table_ is a character table for the Multics
                                    13  "  graphics system. In it are stored vector representations of ascii
                                    14  "  characters.
                                    15  "
                                    16  "  The first section is a dispatch table. A reference to
                                    17  "	graphic_char_table_$char_ptr (fixed (unspec (char)))
                                    18  "  is a pointer to the following pl1 structure:
                                    19  "
                                    20  "	dcl 1 char_info aligned based,
                                    21  "	    2 n_elements fixed bin,
                                    22  "	    2 elements (0 refer n_elements) aligned,
                                    23  "	      3 move_type fixed bin,
                                    24  "	      3 x_length fixed bin,
                                    25  "	      3 y_length fixed bin,:
                                    26  "
                                    27  "     n_elements is the number of vectors or shifts comprising this char.
                                    28  "     move_type is taken from:
                                    29  "	3	shift
                                    30  "	2	vector
                                    31  "     x_length and y_length are the vector components of the move.
                                    32  "  A special value of -1 for pairs is used in difficult situations, like
                                    33  "  cr and nl.
                                    34  "
                                    35  "  This database uses trap on first reference to do its pointer hackery.
                                    36  "
                                    37  "  Written by C. D. Tavares and Dave Reed eons ago but never installed.
                                    38  "  Rewritten for trap on first link and cleaned for installation by
                                    39  "  C. D. Tavares 10/10/74.
                                    40  "
                                    41  " " " " " " " " " " " " " " " " " " " " " " " " " " " " " " " " " "
                                    42
    000000                          43  	name	graphic_char_table_
                                    44
                        000010      45  	segdef	char_ptr
                                    46
                                    47  	use	index_table
                                    48
    000010                          49  char_ptr:	null
    000010                          50  index_table_start:	null
    000010  aa   077777 000043      51  	its	-1,nul
    000011  0a   000003 000000
    000012  aa   077777 000043      52  	its	-1,soh
    000013  0a   000003 000000
    000014  aa   077777 000043      53  	its	-1,stx
    000015  0a   000003 000000
    000016  aa   077777 000043      54  	its	-1,etx
    000017  0a   000003 000000
    000020  aa   077777 000043      55  	its	-1,eot
    000021  0a   000003 000000
    000022  aa   077777 000043      56  	its	-1,enq
    000023  0a   000003 000000
    000024  aa   077777 000043      57  	its	-1,ack
    000025  0a   000003 000000
    000026  aa   077777 000043      58  	its	-1,bel
    000027  0a   000003 000000
    000030  aa   077777 000043      59  	its	-1,bs
    000031  0a   000004 000000
    000032  aa   077777 000043      60  	its	-1,ht
    000033  0a   000005 000000
    000034  aa   077777 000043      61  	its	-1,nl
    000035  0a   000004 000000
    000036  aa   077777 000043      62  	its	-1,vt
    000037  0a   000003 000000
    000040  aa   077777 000043      63  	its	-1,ff
    000041  0a   000003 000000
    000042  aa   077777 000043      64  	its	-1,cr
    000043  0a   000004 000000
    000044  aa   077777 000043      65  	its	-1,rrs
    000045  0a   000003 000000
    000046  aa   077777 000043      66  	its	-1,brs
    000047  0a   000003 000000
    000050  aa   077777 000043      67  	its	-1,dle
    000051  0a   000003 000000
    000052  aa   077777 000043      68  	its	-1,dc1
    000053  0a   000003 000000
    000054  aa   077777 000043      69  	its	-1,dc2
    000055  0a   000003 000000
    000056  aa   077777 000043      70  	its	-1,dc3
    000057  0a   000003 000000
    000060  aa   077777 000043      71  	its	-1,dc4
    000061  0a   000003 000000
    000062  aa   077777 000043      72  	its	-1,nak
    000063  0a   000003 000000
    000064  aa   077777 000043      73  	its	-1,syn
    000065  0a   000003 000000
    000066  aa   077777 000043      74  	its	-1,etb
    000067  0a   000003 000000
    000070  aa   077777 000043      75  	its	-1,can
    000071  0a   000003 000000
    000072  aa   077777 000043      76  	its	-1,em
    000073  0a   000003 000000
    000074  aa   077777 000043      77  	its	-1,sub
    000075  0a   000003 000000
    000076  aa   077777 000043      78  	its	-1,esc
    000077  0a   000003 000000
    000100  aa   077777 000043      79  	its	-1,fs
    000101  0a   000003 000000
    000102  aa   077777 000043      80  	its	-1,gs
    000103  0a   000003 000000
    000104  aa   077777 000043      81  	its	-1,rs
    000105  0a   000003 000000
    000106  aa   077777 000043      82  	its	-1,us
    000107  0a   000003 000000
    000110  aa   077777 000043      83  	its	-1,space
    000111  0a   000005 000000
    000112  aa   077777 000043      84  	its	-1,excl_pt
    000113  0a   000011 000000
    000114  aa   077777 000043      85  	its	-1,dbl_quot
    000115  0a   000042 000000
    000116  aa   077777 000043      86  	its	-1,sharp
    000117  0a   000062 000000
    000120  aa   077777 000043      87  	its	-1,dollar
    000121  0a   000116 000000
    000122  aa   077777 000043      88  	its	-1,percent
    000123  0a   000160 000000
    000124  aa   077777 000043      89  	its	-1,amprsnd
    000125  0a   000230 000000
    000126  aa   077777 000043      90  	its	-1,l_quote
    000127  0a   000264 000000
    000130  aa   077777 000043      91  	its	-1,l_paren
    000131  0a   000310 000000
    000132  aa   077777 000043      92  	its	-1,r_paren
    000133  0a   000330 000000
    000134  aa   077777 000043      93  	its	-1,star
    000135  0a   000350 000000
    000136  aa   077777 000043      94  	its	-1,plus
    000137  0a   000376 000000
    000140  aa   077777 000043      95  	its	-1,comma
    000141  0a   000416 000000
    000142  aa   077777 000043      96  	its	-1,minus
    000143  0a   000433 000000
    000144  aa   077777 000043      97  	its	-1,dot
    000145  0a   000445 000000
    000146  aa   077777 000043      98  	its	-1,slash
    000147  0a   000470 000000
    000150  aa   077777 000043      99  	its	-1,zero
    000151  0a   001125 000000
    000152  aa   077777 000043     100  	its	-1,one
    000153  0a   001164 000000
    000154  aa   077777 000043     101  	its	-1,two
    000155  0a   001207 000000
    000156  aa   077777 000043     102  	its	-1,three
    000157  0a   001243 000000
    000160  aa   077777 000043     103  	its	-1,four
    000161  0a   001310 000000
    000162  aa   077777 000043     104  	its	-1,five
    000163  0a   001330 000000
    000164  aa   077777 000043     105  	its	-1,six
    000165  0a   001367 000000
    000166  aa   077777 000043     106  	its	-1,seven
    000167  0a   001437 000000
    000170  aa   077777 000043     107  	its	-1,eight
    000171  0a   001451 000000
    000172  aa   077777 000043     108  	its	-1,nine
    000173  0a   001535 000000
    000174  aa   077777 000043     109  	its	-1,colon
    000175  0a   000743 000000
    000176  aa   077777 000043     110  	its	-1,semi
    000177  0a   001005 000000
    000200  aa   077777 000043     111  	its	-1,lesthan
    000201  0a   000632 000000
    000202  aa   077777 000043     112  	its	-1,equal
    000203  0a   000664 000000
    000204  aa   077777 000043     113  	its	-1,grthan
    000205  0a   000647 000000
    000206  aa   077777 000043     114  	its	-1,ques_mrk
    000207  0a   000704 000000
    000210  aa   077777 000043     115  	its	-1,atsign
    000211  0a   001052 000000
    000212  aa   077777 000043     116  	its	-1,A
    000213  0a   001667 000000
    000214  aa   077777 000043     117  	its	-1,B
    000215  0a   001723 000000
    000216  aa   077777 000043     118  	its	-1,C
    000217  0a   001770 000000
    000220  aa   077777 000043     119  	its	-1,D
    000221  0a   002024 000000
    000222  aa   077777 000043     120  	its	-1,E
    000223  0a   002052 000000
    000224  aa   077777 000043     121  	its	-1,F
    000225  0a   002100 000000
    000226  aa   077777 000043     122  	its	-1,G
    000227  0a   002123 000000
    000230  aa   077777 000043     123  	its	-1,H
    000231  0a   002170 000000
    000232  aa   077777 000043     124  	its	-1,I
    000233  0a   002213 000000
    000234  aa   077777 000043     125  	its	-1,J
    000235  0a   002236 000000
    000236  aa   077777 000043     126  	its	-1,K
    000237  0a   002272 000000
    000240  aa   077777 000043     127  	its	-1,L
    000241  0a   002315 000000
    000242  aa   077777 000043     128  	its	-1,M
    000243  0a   002327 000000
    000244  aa   077777 000043     129  	its	-1,N
    000245  0a   002352 000000
    000246  aa   077777 000043     130  	its	-1,O
    000247  0a   002372 000000
    000250  aa   077777 000043     131  	its	-1,P
    000251  0a   002431 000000
    000252  aa   077777 000043     132  	its	-1,Q
    000253  0a   002462 000000
    000254  aa   077777 000043     133  	its	-1,R
    000255  0a   002532 000000
    000256  aa   077777 000043     134  	its	-1,S
    000257  0a   002571 000000
    000260  aa   077777 000043     135  	its	-1,T
    000261  0a   002641 000000
    000262  aa   077777 000043     136  	its	-1,U
    000263  0a   002656 000000
    000264  aa   077777 000043     137  	its	-1,V
    000265  0a   002701 000000
    000266  aa   077777 000043     138  	its	-1,W
    000267  0a   002713 000000
    000270  aa   077777 000043     139  	its	-1,X
    000271  0a   002733 000000
    000272  aa   077777 000043     140  	its	-1,Y
    000273  0a   002750 000000
    000274  aa   077777 000043     141  	its	-1,Z
    000275  0a   002770 000000
    000276  aa   077777 000043     142  	its	-1,l_brack
    000277  0a   000522 000000
    000300  aa   077777 000043     143  	its	-1,cent
    000301  0a   000574 000000
    000302  aa   077777 000043     144  	its	-1,r_brack
    000303  0a   000542 000000
    000304  aa   077777 000043     145  	its	-1,cirflex
    000305  0a   000603 000000
    000306  aa   077777 000043     146  	its	-1,underbar
    000307  0a   000620 000000
    000310  aa   077777 000043     147  	its	-1,r_quote
    000311  0a   000276 000000
    000312  aa   077777 000043     148  	its	-1,a
    000313  0a   003005 000000
    000314  aa   077777 000043     149  	its	-1,b
    000315  0a   003055 000000
    000316  aa   077777 000043     150  	its	-1,c
    000317  0a   003117 000000
    000320  aa   077777 000043     151  	its	-1,d
    000321  0a   003153 000000
    000322  aa   077777 000043     152  	its	-1,e
    000323  0a   003215 000000
    000324  aa   077777 000043     153  	its	-1,f
    000325  0a   003257 000000
    000326  aa   077777 000043     154  	its	-1,g
    000327  0a   003305 000000
    000330  aa   077777 000043     155  	its	-1,h
    000331  0a   003355 000000
    000332  aa   077777 000043     156  	its	-1,i
    000333  0a   003406 000000
    000334  aa   077777 000043     157  	its	-1,j
    000335  0a   003426 000000
    000336  aa   077777 000043     158  	its	-1,k
    000337  0a   003454 000000
    000340  aa   077777 000043     159  	its	-1,l
    000341  0a   003502 000000
    000342  aa   077777 000043     160  	its	-1,m
    000343  0a   003514 000000
    000344  aa   077777 000043     161  	its	-1,n
    000345  0a   003556 000000
    000346  aa   077777 000043     162  	its	-1,o
    000347  0a   003607 000000
    000350  aa   077777 000043     163  	its	-1,p
    000351  0a   003646 000000
    000352  aa   077777 000043     164  	its	-1,q
    000353  0a   003702 000000
    000354  aa   077777 000043     165  	its	-1,r
    000355  0a   003736 000000
    000356  aa   077777 000043     166  	its	-1,s
    000357  0a   003764 000000
    000360  aa   077777 000043     167  	its	-1,t
    000361  0a   004020 000000
    000362  aa   077777 000043     168  	its	-1,u
    000363  0a   004046 000000
    000364  aa   077777 000043     169  	its	-1,v
    000365  0a   004074 000000
    000366  aa   077777 000043     170  	its	-1,w
    000367  0a   004111 000000
    000370  aa   077777 000043     171  	its	-1,x
    000371  0a   004134 000000
    000372  aa   077777 000043     172  	its	-1,y
    000373  0a   004154 000000
    000374  aa   077777 000043     173  	its	-1,z
    000375  0a   004174 000000
    000376  aa   077777 000043     174  	its	-1,l_brace
    000377  0a   001636 000000
    000400  aa   077777 000043     175  	its	-1,vert_bar
    000401  0a   000562 000000
    000402  aa   077777 000043     176  	its	-1,r_brace
    000403  0a   001605 000000
    000404  aa   077777 000043     177  	its	-1,tilde
    000405  0a   000502 000000
    000406  aa   077777 000043     178  	its	-1,del
    000407  0a   000003 000000
                                   179
    000410                         180  index_table_end:	null
                                   181
                                   182  " Here lies info concerning the size of the characters.
                                   183
                                   184  	use	char_structures
                                   185
                        000000     186  	segdef	character_sizes
                                   187
    000000                         188  character_sizes:
    000000  aa   000000 000010     189  	dec	8		" height in points
    000001  aa   000000 000006     190  	dec	6		" width in points
    000002  aa   000000 000002     191  	dec	2		" space between chars in points
                                   192
                                   193  " Following are the vector representations of characters.
                                   194
                        000003     195  	equ	shift,3
                        000002     196  	equ	vector,2
                                   197
    000003                         198  nul:	null
    000003                         199  soh:	null
    000003                         200  stx:	null
    000003                         201  etx:	null
    000003                         202  eot:	null
    000003                         203  enq:	null
    000003                         204  ack:	null
    000003                         205  bel:	null
    000003                         206  vt:	null
    000003                         207  ff:	null
    000003                         208  rrs:	null
    000003                         209  brs:	null
    000003                         210  dle:	null
    000003                         211  dc1:	null
    000003                         212  dc2:	null
    000003                         213  dc3:	null
    000003                         214  dc4:	null
    000003                         215  nak:	null
    000003                         216  syn:	null
    000003                         217  etb:	null
    000003                         218  can:	null
    000003                         219  em:	null
    000003                         220  sub:	null
    000003                         221  esc:	null
    000003                         222  fs:	null
    000003                         223  gs:	null
    000003                         224  rs:	null
    000003                         225  us:	null
    000003                         226  del:	null
    000003  aa   000000 000000     227  	dec	0
    000004                         228  bs:	null
    000004                         229  nl:	null
    000004  aa   777777 777777     230  cr:	dec	-1
    000005                         231  ht:	null
    000005  aa   000000 000001     232  space:	dec	1
    000006  aa   000000 000003     233  	zero	0,shift;	dec	8,	0
    000007  aa   000000 000010
    000010  aa   000000 000000
    000011  aa   000000 000010     234  excl_pt:	dec	8
    000012  aa   000000 000003     235  	zero	0,shift;	dec	2,	-8
    000013  aa   000000 000002
    000014  aa   777777 777770
    000015  aa   000000 000002     236  	zero	0,vector;	dec	2,	0
    000016  aa   000000 000002
    000017  aa   000000 000000
    000020  aa   000000 000002     237  	zero	0,vector;	dec	0,	2
    000021  aa   000000 000000
    000022  aa   000000 000002
    000023  aa   000000 000002     238  	zero	0,vector;	dec	-2,	0
    000024  aa   777777 777776
    000025  aa   000000 000000
    000026  aa   000000 000002     239  	zero	0,vector;	dec	0,	-2
    000027  aa   000000 000000
    000030  aa   777777 777776
    000031  aa   000000 000003     240  	zero	0,shift;	dec	1,	3
    000032  aa   000000 000001
    000033  aa   000000 000003
    000034  aa   000000 000002     241  	zero	0,vector;	dec	0,	5
    000035  aa   000000 000000
    000036  aa   000000 000005
    000037  aa   000000 000003     242  	zero	0,shift;	dec	5,	0
    000040  aa   000000 000005
    000041  aa   000000 000000
    000042  aa   000000 000005     243  dbl_quot:	dec	5
    000043  aa   000000 000003     244  	zero	0,shift;	dec	2,	0
    000044  aa   000000 000002
    000045  aa   000000 000000
    000046  aa   000000 000002     245  	zero	0,vector;	dec	0,	-2
    000047  aa   000000 000000
    000050  aa   777777 777776
    000051  aa   000000 000003     246  	zero	0,shift;	dec	2,	2
    000052  aa   000000 000002
    000053  aa   000000 000002
    000054  aa   000000 000002     247  	zero	0,vector;	dec	0,	-2
    000055  aa   000000 000000
    000056  aa   777777 777776
    000057  aa   000000 000003     248  	zero	0,shift;	dec	4,	2
    000060  aa   000000 000004
    000061  aa   000000 000002
    000062  aa   000000 000011     249  sharp:	dec	9
    000063  aa   000000 000003     250  	zero	0,shift;	dec	0,	-2
    000064  aa   000000 000000
    000065  aa   777777 777776
    000066  aa   000000 000002     251  	zero	0,vector;	dec	6,	0
    000067  aa   000000 000006
    000070  aa   000000 000000
    000071  aa   000000 000003     252  	zero	0,shift;	dec	0,	2
    000072  aa   000000 000000
    000073  aa   000000 000002
    000074  aa   000000 000002     253  	zero	0,vector;	dec	-2,	-8
    000075  aa   777777 777776
    000076  aa   777777 777770
    000077  aa   000000 000003     254  	zero	0,shift;	dec	2,	2
    000100  aa   000000 000002
    000101  aa   000000 000002
    000102  aa   000000 000002     255  	zero	0,vector;	dec	-6,	0
    000103  aa   777777 777772
    000104  aa   000000 000000
    000105  aa   000000 000003     256  	zero	0,shift;	dec	0,	-2
    000106  aa   000000 000000
    000107  aa   777777 777776
    000110  aa   000000 000002     257  	zero	0,vector;	dec	2,	8
    000111  aa   000000 000002
    000112  aa   000000 000010
    000113  aa   000000 000003     258  	zero	0,shift;	dec	6,	0
    000114  aa   000000 000006
    000115  aa   000000 000000
    000116  aa   000000 000013     259  dollar:	dec	11
    000117  aa   000000 000003     260  	zero	0,shift;	dec	0,	-5
    000120  aa   000000 000000
    000121  aa   777777 777773
    000122  aa   000000 000002     261  	zero	0,vector;	dec	2,	-2
    000123  aa   000000 000002
    000124  aa   777777 777776
    000125  aa   000000 000002     262  	zero	0,vector;	dec	2,	0
    000126  aa   000000 000002
    000127  aa   000000 000000
    000130  aa   000000 000002     263  	zero	0,vector;	dec	2,	2
    000131  aa   000000 000002
    000132  aa   000000 000002
    000133  aa   000000 000002     264  	zero	0,vector;	dec	-6,	2
    000134  aa   777777 777772
    000135  aa   000000 000002
    000136  aa   000000 000002     265  	zero	0,vector;	dec	2,	2
    000137  aa   000000 000002
    000140  aa   000000 000002
    000141  aa   000000 000002     266  	zero	0,vector;	dec	2,	0
    000142  aa   000000 000002
    000143  aa   000000 000000
    000144  aa   000000 000002     267  	zero	0,vector;	dec	2,	-2
    000145  aa   000000 000002
    000146  aa   777777 777776
    000147  aa   000000 000003     268  	zero	0,shift;	dec	-3,	3
    000150  aa   777777 777775
    000151  aa   000000 000003
    000152  aa   000000 000002     269  	zero	0,vector;	dec	0,	-8
    000153  aa   000000 000000
    000154  aa   777777 777770
    000155  aa   000000 000003     270  	zero	0,shift;	dec	5,	8
    000156  aa   000000 000005
    000157  aa   000000 000010
    000160  aa   000000 000015     271  percent:	dec	13
    000161  aa   000000 000003     272  	zero	0,shift;	dec	2,	-1
    000162  aa   000000 000002
    000163  aa   777777 777777
    000164  aa   000000 000002     273  	zero	0,vector;	dec	-2,	0
    000165  aa   777777 777776
    000166  aa   000000 000000
    000167  aa   000000 000002     274  	zero	0,vector;	dec	0,	-2
    000170  aa   000000 000000
    000171  aa   777777 777776
    000172  aa   000000 000002     275  	zero	0,vector;	dec	2,	0
    000173  aa   000000 000002
    000174  aa   000000 000000
    000175  aa   000000 000002     276  	zero	0,vector;	dec	0,	2
    000176  aa   000000 000000
    000177  aa   000000 000002
    000200  aa   000000 000003     277  	zero	0,shift;	dec	2,	-4
    000201  aa   000000 000002
    000202  aa   777777 777774
    000203  aa   000000 000002     278  	zero	0,vector;	dec	2,	0
    000204  aa   000000 000002
    000205  aa   000000 000000
    000206  aa   000000 000002     279  	zero	0,vector;	dec	0,	-2
    000207  aa   000000 000000
    000210  aa   777777 777776
    000211  aa   000000 000002     280  	zero	0,vector;	dec	-2,	0
    000212  aa   777777 777776
    000213  aa   000000 000000
    000214  aa   000000 000002     281  	zero	0,vector;	dec	0,	2
    000215  aa   000000 000000
    000216  aa   000000 000002
    000217  aa   000000 000003     282  	zero	0,shift;	dec	-4,	-3
    000220  aa   777777 777774
    000221  aa   777777 777775
    000222  aa   000000 000002     283  	zero	0,vector;	dec	6,	8
    000223  aa   000000 000006
    000224  aa   000000 000010
    000225  aa   000000 000003     284  	zero	0,shift;	dec	2,	0
    000226  aa   000000 000002
    000227  aa   000000 000000
    000230  aa   000000 000011     285  amprsnd:	dec	9
    000231  aa   000000 000003     286  	zero	0,shift;	dec	6,	-8
    000232  aa   000000 000006
    000233  aa   777777 777770
    000234  aa   000000 000002     287  	zero	0,vector;	dec	-5,	6
    000235  aa   777777 777773
    000236  aa   000000 000006
    000237  aa   000000 000002     288  	zero	0,vector;	dec	2,	2
    000240  aa   000000 000002
    000241  aa   000000 000002
    000242  aa   000000 000002     289  	zero	0,vector;	dec	2,	-2
    000243  aa   000000 000002
    000244  aa   777777 777776
    000245  aa   000000 000002     290  	zero	0,vector;	dec	-5,	-4
    000246  aa   777777 777773
    000247  aa   777777 777774
    000250  aa   000000 000002     291  	zero	0,vector;	dec	2,	-2
    000251  aa   000000 000002
    000252  aa   777777 777776
    000253  aa   000000 000002     292  	zero	0,vector;	dec	2,	0
    000254  aa   000000 000002
    000255  aa   000000 000000
    000256  aa   000000 000002     293  	zero	0,vector;	dec	2,	2
    000257  aa   000000 000002
    000260  aa   000000 000002
    000261  aa   000000 000003     294  	zero	0,shift;	dec	2,	6
    000262  aa   000000 000002
    000263  aa   000000 000006
    000264  aa   000000 000003     295  l_quote:	dec	3
    000265  aa   000000 000003     296  	zero	0,shift;	dec	2,	-3
    000266  aa   000000 000002
    000267  aa   777777 777775
    000270  aa   000000 000002     297  	zero	0,vector;	dec	2,	3
    000271  aa   000000 000002
    000272  aa   000000 000003
    000273  aa   000000 000003     298  	zero	0,shift;	dec	4,	0
    000274  aa   000000 000004
    000275  aa   000000 000000
    000276  aa   000000 000003     299  r_quote:	dec	3
    000277  aa   000000 000003     300  	zero	0,shift;	dec	2,	0
    000300  aa   000000 000002
    000301  aa   000000 000000
    000302  aa   000000 000002     301  	zero	0,vector;	dec	2,	-3
    000303  aa   000000 000002
    000304  aa   777777 777775
    000305  aa   000000 000003     302  	zero	0,shift;	dec	4,	3
    000306  aa   000000 000004
    000307  aa   000000 000003
    000310  aa   000000 000005     303  l_paren:	dec	5
    000311  aa   000000 000003     304  	zero	0,shift;	dec	4,	-8
    000312  aa   000000 000004
    000313  aa   777777 777770
    000314  aa   000000 000002     305  	zero	0,vector;	dec	-2,	2
    000315  aa   777777 777776
    000316  aa   000000 000002
    000317  aa   000000 000002     306  	zero	0,vector;	dec	0,	4
    000320  aa   000000 000000
    000321  aa   000000 000004
    000322  aa   000000 000002     307  	zero	0,vector;	dec	2,	2
    000323  aa   000000 000002
    000324  aa   000000 000002
    000325  aa   000000 000003     308  	zero	0,shift;	dec	4,	0
    000326  aa   000000 000004
    000327  aa   000000 000000
    000330  aa   000000 000005     309  r_paren:	dec	5
    000331  aa   000000 000003     310  	zero	0,shift;	dec	2,	-8
    000332  aa   000000 000002
    000333  aa   777777 777770
    000334  aa   000000 000002     311  	zero	0,vector;	dec	2,	2
    000335  aa   000000 000002
    000336  aa   000000 000002
    000337  aa   000000 000002     312  	zero	0,vector;	dec	0,	4
    000340  aa   000000 000000
    000341  aa   000000 000004
    000342  aa   000000 000002     313  	zero	0,vector;	dec	-2,	2
    000343  aa   777777 777776
    000344  aa   000000 000002
    000345  aa   000000 000003     314  	zero	0,shift;	dec	6,	0
    000346  aa   000000 000006
    000347  aa   000000 000000
    000350  aa   000000 000007     315  star:	dec	7
    000351  aa   000000 000003     316  	zero	0,shift;	dec	1,	-7
    000352  aa   000000 000001
    000353  aa   777777 777771
    000354  aa   000000 000002     317  	zero	0,vector;	dec	4,	6
    000355  aa   000000 000004
    000356  aa   000000 000006
    000357  aa   000000 000003     318  	zero	0,shift;	dec	-4,	0
    000360  aa   777777 777774
    000361  aa   000000 000000
    000362  aa   000000 000002     319  	zero	0,vector;	dec	4,	-6
    000363  aa   000000 000004
    000364  aa   777777 777772
    000365  aa   000000 000003     320  	zero	0,shift;	dec	-5,	3
    000366  aa   777777 777773
    000367  aa   000000 000003
    000370  aa   000000 000002     321  	zero	0,vector;	dec	6,	0
    000371  aa   000000 000006
    000372  aa   000000 000000
    000373  aa   000000 000003     322  	zero	0,shift;	dec	2,	4
    000374  aa   000000 000002
    000375  aa   000000 000004
    000376  aa   000000 000005     323  plus:	dec	5
    000377  aa   000000 000003     324  	zero	0,shift;	dec	1,	-4
    000400  aa   000000 000001
    000401  aa   777777 777774
    000402  aa   000000 000002     325  	zero	0,vector;	dec	4,	0
    000403  aa   000000 000004
    000404  aa   000000 000000
    000405  aa   000000 000003     326  	zero	0,shift;	dec	-2,	2
    000406  aa   777777 777776
    000407  aa   000000 000002
    000410  aa   000000 000002     327  	zero	0,vector;	dec	0,	-4
    000411  aa   000000 000000
    000412  aa   777777 777774
    000413  aa   000000 000003     328  	zero	0,shift;	dec	5,	6
    000414  aa   000000 000005
    000415  aa   000000 000006
    000416  aa   000000 000004     329  comma:	dec	4
    000417  aa   000000 000003     330  	zero	0,shift;	dec	3,	-7
    000420  aa   000000 000003
    000421  aa   777777 777771
    000422  aa   000000 000002     331  	zero	0,vector;	dec	0,	-1
    000423  aa   000000 000000
    000424  aa   777777 777777
    000425  aa   000000 000002     332  	zero	0,vector;	dec	-1,	-1
    000426  aa   777777 777777
    000427  aa   777777 777777
    000430  aa   000000 000003     333  	zero	0,shift;	dec	6,	9
    000431  aa   000000 000006
    000432  aa   000000 000011
    000433  aa   000000 000003     334  minus:	dec	3
    000434  aa   000000 000003     335  	zero	0,shift;	dec	1,	-4
    000435  aa   000000 000001
    000436  aa   777777 777774
    000437  aa   000000 000002     336  	zero	0,vector;	dec	4,	0
    000440  aa   000000 000004
    000441  aa   000000 000000
    000442  aa   000000 000003     337  	zero	0,shift;	dec	3,	4
    000443  aa   000000 000003
    000444  aa   000000 000004
    000445  aa   000000 000006     338  dot:	dec	6
    000446  aa   000000 000003     339  	zero	0,shift;	dec	3,	-8
    000447  aa   000000 000003
    000450  aa   777777 777770
    000451  aa   000000 000002     340  	zero	0,vector;	dec	0,	1
    000452  aa   000000 000000
    000453  aa   000000 000001
    000454  aa   000000 000002     341  	zero	0,vector;	dec	-1,	0
    000455  aa   777777 777777
    000456  aa   000000 000000
    000457  aa   000000 000002     342  	zero	0,vector;	dec	0,	-1
    000460  aa   000000 000000
    000461  aa   777777 777777
    000462  aa   000000 000002     343  	zero	0,vector;	dec	1,	0
    000463  aa   000000 000001
    000464  aa   000000 000000
    000465  aa   000000 000003     344  	zero	0,shift;	dec	5,	8
    000466  aa   000000 000005
    000467  aa   000000 000010
    000470  aa   000000 000003     345  slash:	dec	3
    000471  aa   000000 000003     346  	zero	0,shift;	dec	0,	-8
    000472  aa   000000 000000
    000473  aa   777777 777770
    000474  aa   000000 000002     347  	zero	0,vector;	dec	6,	8
    000475  aa   000000 000006
    000476  aa   000000 000010
    000477  aa   000000 000003     348  	zero	0,shift;	dec	2,	0
    000500  aa   000000 000002
    000501  aa   000000 000000
    000502  aa   000000 000005     349  tilde:	dec	5
    000503  aa   000000 000003     350  	zero	0,shift;	dec	1,	-1
    000504  aa   000000 000001
    000505  aa   777777 777777
    000506  aa   000000 000002     351  	zero	0,vector;	dec	1,	1
    000507  aa   000000 000001
    000510  aa   000000 000001
    000511  aa   000000 000002     352  	zero	0,vector;	dec	2,	-1
    000512  aa   000000 000002
    000513  aa   777777 777777
    000514  aa   000000 000002     353  	zero	0,vector;	dec	1,	1
    000515  aa   000000 000001
    000516  aa   000000 000001
    000517  aa   000000 000003     354  	zero	0,shift;	dec	3,	0
    000520  aa   000000 000003
    000521  aa   000000 000000
    000522  aa   000000 000005     355  l_brack:	dec	5
    000523  aa   000000 000003     356  	zero	0,shift;	dec	5,	0
    000524  aa   000000 000005
    000525  aa   000000 000000
    000526  aa   000000 000002     357  	zero	0,vector;	dec	-3,	0
    000527  aa   777777 777775
    000530  aa   000000 000000
    000531  aa   000000 000002     358  	zero	0,vector;	dec	0,	-8
    000532  aa   000000 000000
    000533  aa   777777 777770
    000534  aa   000000 000002     359  	zero	0,vector;	dec	3,	0
    000535  aa   000000 000003
    000536  aa   000000 000000
    000537  aa   000000 000003     360  	zero	0,shift;	dec	3,	8
    000540  aa   000000 000003
    000541  aa   000000 000010
    000542  aa   000000 000005     361  r_brack:	dec	5
    000543  aa   000000 000003     362  	zero	0,shift;	dec	1,	0
    000544  aa   000000 000001
    000545  aa   000000 000000
    000546  aa   000000 000002     363  	zero	0,vector;	dec	3,	0
    000547  aa   000000 000003
    000550  aa   000000 000000
    000551  aa   000000 000002     364  	zero	0,vector;	dec	0,	-8
    000552  aa   000000 000000
    000553  aa   777777 777770
    000554  aa   000000 000002     365  	zero	0,vector;	dec	-3,	0
    000555  aa   777777 777775
    000556  aa   000000 000000
    000557  aa   000000 000003     366  	zero	0,shift;	dec	7,	8
    000560  aa   000000 000007
    000561  aa   000000 000010
    000562  aa   000000 000003     367  vert_bar:	dec	3
    000563  aa   000000 000003     368  	zero	0,shift;	dec	3,	-8
    000564  aa   000000 000003
    000565  aa   777777 777770
    000566  aa   000000 000002     369  	zero	0,vector;	dec	0,	8
    000567  aa   000000 000000
    000570  aa   000000 000010
    000571  aa   000000 000003     370  	zero	0,shift;	dec	5,	0
    000572  aa   000000 000005
    000573  aa   000000 000000
    000574  aa   000000 000002     371  cent:	dec	2
    000575  aa   000000 000002     372  	zero	0,vector;	dec	6,	-8
    000576  aa   000000 000006
    000577  aa   777777 777770
    000600  aa   000000 000003     373  	zero	0,shift;	dec	2,	8
    000601  aa   000000 000002
    000602  aa   000000 000010
    000603  aa   000000 000004     374  cirflex:	dec	4
    000604  aa   000000 000003     375  	zero	0,shift;	dec	1,	-2
    000605  aa   000000 000001
    000606  aa   777777 777776
    000607  aa   000000 000002     376  	zero	0,vector;	dec	2,	2
    000610  aa   000000 000002
    000611  aa   000000 000002
    000612  aa   000000 000002     377  	zero	0,vector;	dec	2,	-2
    000613  aa   000000 000002
    000614  aa   777777 777776
    000615  aa   000000 000003     378  	zero	0,shift;	dec	3,	2
    000616  aa   000000 000003
    000617  aa   000000 000002
    000620  aa   000000 000003     379  underbar:	dec	3
    000621  aa   000000 000003     380  	zero	0,shift;	dec	0,	-9
    000622  aa   000000 000000
    000623  aa   777777 777767
    000624  aa   000000 000002     381  	zero	0,vector;	dec	6,	0
    000625  aa   000000 000006
    000626  aa   000000 000000
    000627  aa   000000 000003     382  	zero	0,shift;	dec	2,	9
    000630  aa   000000 000002
    000631  aa   000000 000011
    000632  aa   000000 000004     383  lesthan:	dec	4
    000633  aa   000000 000003     384  	zero	0,shift;	dec	6,	-1
    000634  aa   000000 000006
    000635  aa   777777 777777
    000636  aa   000000 000002     385  	zero	0,vector;	dec	-6,	-3
    000637  aa   777777 777772
    000640  aa   777777 777775
    000641  aa   000000 000002     386  	zero	0,vector;	dec	6,	-3
    000642  aa   000000 000006
    000643  aa   777777 777775
    000644  aa   000000 000003     387  	zero	0,shift;	dec	2,	7
    000645  aa   000000 000002
    000646  aa   000000 000007
    000647  aa   000000 000004     388  grthan:	dec	4
    000650  aa   000000 000003     389  	zero	0,shift;	dec	0,	-1
    000651  aa   000000 000000
    000652  aa   777777 777777
    000653  aa   000000 000002     390  	zero	0,vector;	dec	6,	-3
    000654  aa   000000 000006
    000655  aa   777777 777775
    000656  aa   000000 000002     391  	zero	0,vector;	dec	-6,	-3
    000657  aa   777777 777772
    000660  aa   777777 777775
    000661  aa   000000 000003     392  	zero	0,shift;	dec	8,	7
    000662  aa   000000 000010
    000663  aa   000000 000007
    000664  aa   000000 000005     393  equal:	dec	5
    000665  aa   000000 000003     394  	zero	0,shift;	dec	1,	-3
    000666  aa   000000 000001
    000667  aa   777777 777775
    000670  aa   000000 000002     395  	zero	0,vector;	dec	4,	0
    000671  aa   000000 000004
    000672  aa   000000 000000
    000673  aa   000000 000003     396  	zero	0,shift;	dec	0,	-2
    000674  aa   000000 000000
    000675  aa   777777 777776
    000676  aa   000000 000002     397  	zero	0,vector;	dec	-4,	0
    000677  aa   777777 777774
    000700  aa   000000 000000
    000701  aa   000000 000003     398  	zero	0,shift;	dec	7,	5
    000702  aa   000000 000007
    000703  aa   000000 000005
    000704  aa   000000 000012     399  ques_mrk:	dec	10
    000705  aa   000000 000003     400  	zero	0,shift;	dec	0,	-2
    000706  aa   000000 000000
    000707  aa   777777 777776
    000710  aa   000000 000002     401  	zero	0,vector;	dec	2,	2
    000711  aa   000000 000002
    000712  aa   000000 000002
    000713  aa   000000 000002     402  	zero	0,vector;	dec	2,	0
    000714  aa   000000 000002
    000715  aa   000000 000000
    000716  aa   000000 000002     403  	zero	0,vector;	dec	2,	-2
    000717  aa   000000 000002
    000720  aa   777777 777776
    000721  aa   000000 000002     404  	zero	0,vector;	dec	0,	-1
    000722  aa   000000 000000
    000723  aa   777777 777777
    000724  aa   000000 000002     405  	zero	0,vector;	dec	-3,	-2
    000725  aa   777777 777775
    000726  aa   777777 777776
    000727  aa   000000 000002     406  	zero	0,vector;	dec	0,	-1
    000730  aa   000000 000000
    000731  aa   777777 777777
    000732  aa   000000 000003     407  	zero	0,shift;	dec	0,	-1
    000733  aa   000000 000000
    000734  aa   777777 777777
    000735  aa   000000 000002     408  	zero	0,vector;	dec	0,	-1
    000736  aa   000000 000000
    000737  aa   777777 777777
    000740  aa   000000 000003     409  	zero	0,shift;	dec	5,	8
    000741  aa   000000 000005
    000742  aa   000000 000010
    000743  aa   000000 000013     410  colon:	dec	11
    000744  aa   000000 000003     411  	zero	0,shift;	dec	2,	-3
    000745  aa   000000 000002
    000746  aa   777777 777775
    000747  aa   000000 000002     412  	zero	0,vector;	dec	1,	0
    000750  aa   000000 000001
    000751  aa   000000 000000
    000752  aa   000000 000002     413  	zero	0,vector;	dec	0,	1
    000753  aa   000000 000000
    000754  aa   000000 000001
    000755  aa   000000 000002     414  	zero	0,vector;	dec	-1,	0
    000756  aa   777777 777777
    000757  aa   000000 000000
    000760  aa   000000 000002     415  	zero	0,vector;	dec	0,	-1
    000761  aa   000000 000000
    000762  aa   777777 777777
    000763  aa   000000 000003     416  	zero	0,shift;	dec	1,	-3
    000764  aa   000000 000001
    000765  aa   777777 777775
    000766  aa   000000 000002     417  	zero	0,vector;	dec	0,	1
    000767  aa   000000 000000
    000770  aa   000000 000001
    000771  aa   000000 000002     418  	zero	0,vector;	dec	-1,	0
    000772  aa   777777 777777
    000773  aa   000000 000000
    000774  aa   000000 000002     419  	zero	0,vector;	dec	0,	-1
    000775  aa   000000 000000
    000776  aa   777777 777777
    000777  aa   000000 000002     420  	zero	0,vector;	dec	1,	0
    001000  aa   000000 000001
    001001  aa   000000 000000
    001002  aa   000000 000003     421  	zero	0,shift;	dec	5,	6
    001003  aa   000000 000005
    001004  aa   000000 000006
    001005  aa   000000 000014     422  semi:	dec	12
    001006  aa   000000 000003     423  	zero	0,shift;	dec	2,	-3
    001007  aa   000000 000002
    001010  aa   777777 777775
    001011  aa   000000 000002     424  	zero	0,vector;	dec	1,	0
    001012  aa   000000 000001
    001013  aa   000000 000000
    001014  aa   000000 000002     425  	zero	0,vector;	dec	0,	1
    001015  aa   000000 000000
    001016  aa   000000 000001
    001017  aa   000000 000002     426  	zero	0,vector;	dec	-1,	0
    001020  aa   777777 777777
    001021  aa   000000 000000
    001022  aa   000000 000002     427  	zero	0,vector;	dec	0,	-1
    001023  aa   000000 000000
    001024  aa   777777 777777
    001025  aa   000000 000003     428  	zero	0,shift;	dec	1,	-3
    001026  aa   000000 000001
    001027  aa   777777 777775
    001030  aa   000000 000002     429  	zero	0,vector;	dec	0,	1
    001031  aa   000000 000000
    001032  aa   000000 000001
    001033  aa   000000 000002     430  	zero	0,vector;	dec	-1,	0
    001034  aa   777777 777777
    001035  aa   000000 000000
    001036  aa   000000 000002     431  	zero	0,vector;	dec	0,	-1
    001037  aa   000000 000000
    001040  aa   777777 777777
    001041  aa   000000 000002     432  	zero	0,vector;	dec	1,	0
    001042  aa   000000 000001
    001043  aa   000000 000000
    001044  aa   000000 000002     433  	zero	0,vector;	dec	-1,	-2
    001045  aa   777777 777777
    001046  aa   777777 777776
    001047  aa   000000 000003     434  	zero	0,shift;	dec	6,	8
    001050  aa   000000 000006
    001051  aa   000000 000010
    001052  aa   000000 000016     435  atsign:	dec	14
    001053  aa   000000 000003     436  	zero	0,shift;	dec	4,	-5
    001054  aa   000000 000004
    001055  aa   777777 777773
    001056  aa   000000 000002     437  	zero	0,vector;	dec	0,	2
    001057  aa   000000 000000
    001060  aa   000000 000002
    001061  aa   000000 000002     438  	zero	0,vector;	dec	-2,	0
    001062  aa   777777 777776
    001063  aa   000000 000000
    001064  aa   000000 000002     439  	zero	0,vector;	dec	0,	-2
    001065  aa   000000 000000
    001066  aa   777777 777776
    001067  aa   000000 000002     440  	zero	0,vector;	dec	2,	0
    001070  aa   000000 000002
    001071  aa   000000 000000
    001072  aa   000000 000002     441  	zero	0,vector;	dec	2,	2
    001073  aa   000000 000002
    001074  aa   000000 000002
    001075  aa   000000 000002     442  	zero	0,vector;	dec	-2,	3
    001076  aa   777777 777776
    001077  aa   000000 000003
    001100  aa   000000 000002     443  	zero	0,vector;	dec	-2,	0
    001101  aa   777777 777776
    001102  aa   000000 000000
    001103  aa   000000 000002     444  	zero	0,vector;	dec	-2,	-3
    001104  aa   777777 777776
    001105  aa   777777 777775
    001106  aa   000000 000002     445  	zero	0,vector;	dec	0,	-2
    001107  aa   000000 000000
    001110  aa   777777 777776
    001111  aa   000000 000002     446  	zero	0,vector;	dec	2,	-3
    001112  aa   000000 000002
    001113  aa   777777 777775
    001114  aa   000000 000002     447  	zero	0,vector;	dec	2,	0
    001115  aa   000000 000002
    001116  aa   000000 000000
    001117  aa   000000 000002     448  	zero	0,vector;	dec	2,	3
    001120  aa   000000 000002
    001121  aa   000000 000003
    001122  aa   000000 000003     449  	zero	0,shift;	dec	2,	5
    001123  aa   000000 000002
    001124  aa   000000 000005
    001125  aa   000000 000012     450  zero:	dec	10
    001126  aa   000000 000003     451  	zero	0,shift;	dec	2,	0
    001127  aa   000000 000002
    001130  aa   000000 000000
    001131  aa   000000 000002     452  	zero	0,vector;	dec	2,	0
    001132  aa   000000 000002
    001133  aa   000000 000000
    001134  aa   000000 000002     453  	zero	0,vector;	dec	1,	-2
    001135  aa   000000 000001
    001136  aa   777777 777776
    001137  aa   000000 000002     454  	zero	0,vector;	dec	0,	-4
    001140  aa   000000 000000
    001141  aa   777777 777774
    001142  aa   000000 000002     455  	zero	0,vector;	dec	-1,	-2
    001143  aa   777777 777777
    001144  aa   777777 777776
    001145  aa   000000 000002     456  	zero	0,vector;	dec	-2,	0
    001146  aa   777777 777776
    001147  aa   000000 000000
    001150  aa   000000 000002     457  	zero	0,vector;	dec	-1,	2
    001151  aa   777777 777777
    001152  aa   000000 000002
    001153  aa   000000 000002     458  	zero	0,vector;	dec	0,	4
    001154  aa   000000 000000
    001155  aa   000000 000004
    001156  aa   000000 000002     459  	zero	0,vector;	dec	1,	2
    001157  aa   000000 000001
    001160  aa   000000 000002
    001161  aa   000000 000003     460  	zero	0,shift;	dec	6,	0
    001162  aa   000000 000006
    001163  aa   000000 000000
    001164  aa   000000 000006     461  one:	dec	6
    001165  aa   000000 000003     462  	zero	0,shift;	dec	1,	-2
    001166  aa   000000 000001
    001167  aa   777777 777776
    001170  aa   000000 000002     463  	zero	0,vector;	dec	2,	2
    001171  aa   000000 000002
    001172  aa   000000 000002
    001173  aa   000000 000002     464  	zero	0,vector;	dec	0,	-8
    001174  aa   000000 000000
    001175  aa   777777 777770
    001176  aa   000000 000003     465  	zero	0,shift;	dec	-3,	0
    001177  aa   777777 777775
    001200  aa   000000 000000
    001201  aa   000000 000002     466  	zero	0,vector;	dec	6,	0
    001202  aa   000000 000006
    001203  aa   000000 000000
    001204  aa   000000 000003     467  	zero	0,shift;	dec	2,	8
    001205  aa   000000 000002
    001206  aa   000000 000010
    001207  aa   000000 000011     468  two:	dec	9
    001210  aa   000000 000003     469  	zero	0,shift;	dec	0,	-2
    001211  aa   000000 000000
    001212  aa   777777 777776
    001213  aa   000000 000002     470  	zero	0,vector;	dec	2,	2
    001214  aa   000000 000002
    001215  aa   000000 000002
    001216  aa   000000 000002     471  	zero	0,vector;	dec	2,	0
    001217  aa   000000 000002
    001220  aa   000000 000000
    001221  aa   000000 000002     472  	zero	0,vector;	dec	2,	-2
    001222  aa   000000 000002
    001223  aa   777777 777776
    001224  aa   000000 000002     473  	zero	0,vector;	dec	0,	-2
    001225  aa   000000 000000
    001226  aa   777777 777776
    001227  aa   000000 000002     474  	zero	0,vector;	dec	-6,	-2
    001230  aa   777777 777772
    001231  aa   777777 777776
    001232  aa   000000 000002     475  	zero	0,vector;	dec	0,	-2
    001233  aa   000000 000000
    001234  aa   777777 777776
    001235  aa   000000 000002     476  	zero	0,vector;	dec	6,	0
    001236  aa   000000 000006
    001237  aa   000000 000000
    001240  aa   000000 000003     477  	zero	0,shift;	dec	2,	8
    001241  aa   000000 000002
    001242  aa   000000 000010
    001243  aa   000000 000014     478  three:	dec	12
    001244  aa   000000 000003     479  	zero	0,shift;	dec	0,	-2
    001245  aa   000000 000000
    001246  aa   777777 777776
    001247  aa   000000 000002     480  	zero	0,vector;	dec	2,	2
    001250  aa   000000 000002
    001251  aa   000000 000002
    001252  aa   000000 000002     481  	zero	0,vector;	dec	2,	0
    001253  aa   000000 000002
    001254  aa   000000 000000
    001255  aa   000000 000002     482  	zero	0,vector;	dec	2,	-2
    001256  aa   000000 000002
    001257  aa   777777 777776
    001260  aa   000000 000002     483  	zero	0,vector;	dec	-1,	-2
    001261  aa   777777 777777
    001262  aa   777777 777776
    001263  aa   000000 000002     484  	zero	0,vector;	dec	-3,	0
    001264  aa   777777 777775
    001265  aa   000000 000000
    001266  aa   000000 000003     485  	zero	0,shift;	dec	3,	0
    001267  aa   000000 000003
    001270  aa   000000 000000
    001271  aa   000000 000002     486  	zero	0,vector;	dec	1,	-2
    001272  aa   000000 000001
    001273  aa   777777 777776
    001274  aa   000000 000002     487  	zero	0,vector;	dec	-2,	-2
    001275  aa   777777 777776
    001276  aa   777777 777776
    001277  aa   000000 000002     488  	zero	0,vector;	dec	-2,	0
    001300  aa   777777 777776
    001301  aa   000000 000000
    001302  aa   000000 000002     489  	zero	0,vector;	dec	-2,	2
    001303  aa   777777 777776
    001304  aa   000000 000002
    001305  aa   000000 000003     490  	zero	0,shift;	dec	8,	6
    001306  aa   000000 000010
    001307  aa   000000 000006
    001310  aa   000000 000005     491  four:	dec	5
    001311  aa   000000 000003     492  	zero	0,shift;	dec	4,	-8
    001312  aa   000000 000004
    001313  aa   777777 777770
    001314  aa   000000 000002     493  	zero	0,vector;	dec	0,	8
    001315  aa   000000 000000
    001316  aa   000000 000010
    001317  aa   000000 000002     494  	zero	0,vector;	dec	-4,	-5
    001320  aa   777777 777774
    001321  aa   777777 777773
    001322  aa   000000 000002     495  	zero	0,vector;	dec	6,	0
    001323  aa   000000 000006
    001324  aa   000000 000000
    001325  aa   000000 000003     496  	zero	0,shift;	dec	2,	5
    001326  aa   000000 000002
    001327  aa   000000 000005
    001330  aa   000000 000012     497  five:	dec	10
    001331  aa   000000 000003     498  	zero	0,shift;	dec	0,	-6
    001332  aa   000000 000000
    001333  aa   777777 777772
    001334  aa   000000 000002     499  	zero	0,vector;	dec	1,	-2
    001335  aa   000000 000001
    001336  aa   777777 777776
    001337  aa   000000 000002     500  	zero	0,vector;	dec	3,	0
    001340  aa   000000 000003
    001341  aa   000000 000000
    001342  aa   000000 000002     501  	zero	0,vector;	dec	2,	2
    001343  aa   000000 000002
    001344  aa   000000 000002
    001345  aa   000000 000002     502  	zero	0,vector;	dec	0,	1
    001346  aa   000000 000000
    001347  aa   000000 000001
    001350  aa   000000 000002     503  	zero	0,vector;	dec	-2,	2
    001351  aa   777777 777776
    001352  aa   000000 000002
    001353  aa   000000 000002     504  	zero	0,vector;	dec	-4,	0
    001354  aa   777777 777774
    001355  aa   000000 000000
    001356  aa   000000 000002     505  	zero	0,vector;	dec	0,	3
    001357  aa   000000 000000
    001360  aa   000000 000003
    001361  aa   000000 000002     506  	zero	0,vector;	dec	6,	0
    001362  aa   000000 000006
    001363  aa   000000 000000
    001364  aa   000000 000003     507  	zero	0,shift;	dec	2,	0
    001365  aa   000000 000002
    001366  aa   000000 000000
    001367  aa   000000 000015     508  six:	dec	13
    001370  aa   000000 000003     509  	zero	0,shift;	dec	0,	-5
    001371  aa   000000 000000
    001372  aa   777777 777773
    001373  aa   000000 000002     510  	zero	0,vector;	dec	2,	2
    001374  aa   000000 000002
    001375  aa   000000 000002
    001376  aa   000000 000002     511  	zero	0,vector;	dec	2,	0
    001377  aa   000000 000002
    001400  aa   000000 000000
    001401  aa   000000 000002     512  	zero	0,vector;	dec	2,	-2
    001402  aa   000000 000002
    001403  aa   777777 777776
    001404  aa   000000 000002     513  	zero	0,vector;	dec	0,	-1
    001405  aa   000000 000000
    001406  aa   777777 777777
    001407  aa   000000 000002     514  	zero	0,vector;	dec	-2,	-2
    001410  aa   777777 777776
    001411  aa   777777 777776
    001412  aa   000000 000002     515  	zero	0,vector;	dec	-2,	0
    001413  aa   777777 777776
    001414  aa   000000 000000
    001415  aa   000000 000002     516  	zero	0,vector;	dec	-2,	2
    001416  aa   777777 777776
    001417  aa   000000 000002
    001420  aa   000000 000002     517  	zero	0,vector;	dec	0,	4
    001421  aa   000000 000000
    001422  aa   000000 000004
    001423  aa   000000 000002     518  	zero	0,vector;	dec	2,	2
    001424  aa   000000 000002
    001425  aa   000000 000002
    001426  aa   000000 000002     519  	zero	0,vector;	dec	2,	0
    001427  aa   000000 000002
    001430  aa   000000 000000
    001431  aa   000000 000002     520  	zero	0,vector;	dec	2,	-2
    001432  aa   000000 000002
    001433  aa   777777 777776
    001434  aa   000000 000003     521  	zero	0,shift;	dec	2,	2
    001435  aa   000000 000002
    001436  aa   000000 000002
    001437  aa   000000 000003     522  seven:	dec	3
    001440  aa   000000 000002     523  	zero	0,vector;	dec	6,	0
    001441  aa   000000 000006
    001442  aa   000000 000000
    001443  aa   000000 000002     524  	zero	0,vector;	dec	-4,	-8
    001444  aa   777777 777774
    001445  aa   777777 777770
    001446  aa   000000 000003     525  	zero	0,shift;	dec	6,	8
    001447  aa   000000 000006
    001450  aa   000000 000010
    001451  aa   000000 000021     526  eight:	dec	17
    001452  aa   000000 000003     527  	zero	0,shift;	dec	2,	-4
    001453  aa   000000 000002
    001454  aa   777777 777774
    001455  aa   000000 000002     528  	zero	0,vector;	dec	2,	0
    001456  aa   000000 000002
    001457  aa   000000 000000
    001460  aa   000000 000002     529  	zero	0,vector;	dec	2,	1
    001461  aa   000000 000002
    001462  aa   000000 000001
    001463  aa   000000 000002     530  	zero	0,vector;	dec	0,	2
    001464  aa   000000 000000
    001465  aa   000000 000002
    001466  aa   000000 000002     531  	zero	0,vector;	dec	-2,	1
    001467  aa   777777 777776
    001470  aa   000000 000001
    001471  aa   000000 000002     532  	zero	0,vector;	dec	-2,	0
    001472  aa   777777 777776
    001473  aa   000000 000000
    001474  aa   000000 000002     533  	zero	0,vector;	dec	-2,	-1
    001475  aa   777777 777776
    001476  aa   777777 777777
    001477  aa   000000 000002     534  	zero	0,vector;	dec	0,	-2
    001500  aa   000000 000000
    001501  aa   777777 777776
    001502  aa   000000 000002     535  	zero	0,vector;	dec	2,	-1
    001503  aa   000000 000002
    001504  aa   777777 777777
    001505  aa   000000 000002     536  	zero	0,vector;	dec	-2,	-1
    001506  aa   777777 777776
    001507  aa   777777 777777
    001510  aa   000000 000002     537  	zero	0,vector;	dec	0,	-2
    001511  aa   000000 000000
    001512  aa   777777 777776
    001513  aa   000000 000002     538  	zero	0,vector;	dec	2,	-1
    001514  aa   000000 000002
    001515  aa   777777 777777
    001516  aa   000000 000002     539  	zero	0,vector;	dec	2,	0
    001517  aa   000000 000002
    001520  aa   000000 000000
    001521  aa   000000 000002     540  	zero	0,vector;	dec	2,	1
    001522  aa   000000 000002
    001523  aa   000000 000001
    001524  aa   000000 000002     541  	zero	0,vector;	dec	0,	2
    001525  aa   000000 000000
    001526  aa   000000 000002
    001527  aa   000000 000002     542  	zero	0,vector;	dec	-2,	1
    001530  aa   777777 777776
    001531  aa   000000 000001
    001532  aa   000000 000003     543  	zero	0,shift;	dec	4,	4
    001533  aa   000000 000004
    001534  aa   000000 000004
    001535  aa   000000 000015     544  nine:	dec	13
    001536  aa   000000 000003     545  	zero	0,shift;	dec	0,	-6
    001537  aa   000000 000000
    001540  aa   777777 777772
    001541  aa   000000 000002     546  	zero	0,vector;	dec	2,	-2
    001542  aa   000000 000002
    001543  aa   777777 777776
    001544  aa   000000 000002     547  	zero	0,vector;	dec	2,	0
    001545  aa   000000 000002
    001546  aa   000000 000000
    001547  aa   000000 000002     548  	zero	0,vector;	dec	2,	2
    001550  aa   000000 000002
    001551  aa   000000 000002
    001552  aa   000000 000002     549  	zero	0,vector;	dec	0,	4
    001553  aa   000000 000000
    001554  aa   000000 000004
    001555  aa   000000 000002     550  	zero	0,vector;	dec	-2,	2
    001556  aa   777777 777776
    001557  aa   000000 000002
    001560  aa   000000 000002     551  	zero	0,vector;	dec	-2,	0
    001561  aa   777777 777776
    001562  aa   000000 000000
    001563  aa   000000 000002     552  	zero	0,vector;	dec	-2,	-2
    001564  aa   777777 777776
    001565  aa   777777 777776
    001566  aa   000000 000002     553  	zero	0,vector;	dec	0,	-1
    001567  aa   000000 000000
    001570  aa   777777 777777
    001571  aa   000000 000002     554  	zero	0,vector;	dec	2,	-2
    001572  aa   000000 000002
    001573  aa   777777 777776
    001574  aa   000000 000002     555  	zero	0,vector;	dec	2,	0
    001575  aa   000000 000002
    001576  aa   000000 000000
    001577  aa   000000 000002     556  	zero	0,vector;	dec	2,	2
    001600  aa   000000 000002
    001601  aa   000000 000002
    001602  aa   000000 000003     557  	zero	0,shift;	dec	2,	3
    001603  aa   000000 000002
    001604  aa   000000 000003
    001605  aa   000000 000010     558  r_brace:	dec	8
    001606  aa   000000 000003     559  	zero	0,shift;	dec	2,	-8
    001607  aa   000000 000002
    001610  aa   777777 777770
    001611  aa   000000 000002     560  	zero	0,vector;	dec	2,	1
    001612  aa   000000 000002
    001613  aa   000000 000001
    001614  aa   000000 000002     561  	zero	0,vector;	dec	0,	2
    001615  aa   000000 000000
    001616  aa   000000 000002
    001617  aa   000000 000002     562  	zero	0,vector;	dec	1,	1
    001620  aa   000000 000001
    001621  aa   000000 000001
    001622  aa   000000 000002     563  	zero	0,vector;	dec	-1,	1
    001623  aa   777777 777777
    001624  aa   000000 000001
    001625  aa   000000 000002     564  	zero	0,vector;	dec	0,	2
    001626  aa   000000 000000
    001627  aa   000000 000002
    001630  aa   000000 000002     565  	zero	0,vector;	dec	-2,	1
    001631  aa   777777 777776
    001632  aa   000000 000001
    001633  aa   000000 000003     566  	zero	0,shift;	dec	6,	0
    001634  aa   000000 000006
    001635  aa   000000 000000
    001636  aa   000000 000010     567  l_brace:	dec	8
    001637  aa   000000 000003     568  	zero	0,shift;	dec	4,	-8
    001640  aa   000000 000004
    001641  aa   777777 777770
    001642  aa   000000 000002     569  	zero	0,vector;	dec	-2,	1
    001643  aa   777777 777776
    001644  aa   000000 000001
    001645  aa   000000 000002     570  	zero	0,vector;	dec	0,	2
    001646  aa   000000 000000
    001647  aa   000000 000002
    001650  aa   000000 000002     571  	zero	0,vector;	dec	-1,	1
    001651  aa   777777 777777
    001652  aa   000000 000001
    001653  aa   000000 000002     572  	zero	0,vector;	dec	1,	1
    001654  aa   000000 000001
    001655  aa   000000 000001
    001656  aa   000000 000002     573  	zero	0,vector;	dec	0,	2
    001657  aa   000000 000000
    001660  aa   000000 000002
    001661  aa   000000 000002     574  	zero	0,vector;	dec	2,	1
    001662  aa   000000 000002
    001663  aa   000000 000001
    001664  aa   000000 000003     575  	zero	0,shift;	dec	4,	0
    001665  aa   000000 000004
    001666  aa   000000 000000
    001667  aa   000000 000011     576  A:	dec	9
    001670  aa   000000 000003     577  	zero	0,shift;	dec	0,	-8
    001671  aa   000000 000000
    001672  aa   777777 777770
    001673  aa   000000 000002     578  	zero	0,vector;	dec	0,	6
    001674  aa   000000 000000
    001675  aa   000000 000006
    001676  aa   000000 000002     579  	zero	0,vector;	dec	2,	2
    001677  aa   000000 000002
    001700  aa   000000 000002
    001701  aa   000000 000002     580  	zero	0,vector;	dec	2,	0
    001702  aa   000000 000002
    001703  aa   000000 000000
    001704  aa   000000 000002     581  	zero	0,vector;	dec	2,	-2
    001705  aa   000000 000002
    001706  aa   777777 777776
    001707  aa   000000 000002     582  	zero	0,vector;	dec	0,	-6
    001710  aa   000000 000000
    001711  aa   777777 777772
    001712  aa   000000 000003     583  	zero	0,shift;	dec	-6,	4
    001713  aa   777777 777772
    001714  aa   000000 000004
    001715  aa   000000 000002     584  	zero	0,vector;	dec	6,	0
    001716  aa   000000 000006
    001717  aa   000000 000000
    001720  aa   000000 000003     585  	zero	0,shift;	dec	2,	4
    001721  aa   000000 000002
    001722  aa   000000 000004
    001723  aa   000000 000014     586  B:	dec	12
    001724  aa   000000 000002     587  	zero	0,vector;	dec	0,	-8
    001725  aa   000000 000000
    001726  aa   777777 777770
    001727  aa   000000 000002     588  	zero	0,vector;	dec	5,	0
    001730  aa   000000 000005
    001731  aa   000000 000000
    001732  aa   000000 000002     589  	zero	0,vector;	dec	1,	1
    001733  aa   000000 000001
    001734  aa   000000 000001
    001735  aa   000000 000002     590  	zero	0,vector;	dec	0,	2
    001736  aa   000000 000000
    001737  aa   000000 000002
    001740  aa   000000 000002     591  	zero	0,vector;	dec	-1,	1
    001741  aa   777777 777777
    001742  aa   000000 000001
    001743  aa   000000 000002     592  	zero	0,vector;	dec	-5,	0
    001744  aa   777777 777773
    001745  aa   000000 000000
    001746  aa   000000 000003     593  	zero	0,shift;	dec	5,	0
    001747  aa   000000 000005
    001750  aa   000000 000000
    001751  aa   000000 000002     594  	zero	0,vector;	dec	1,	1
    001752  aa   000000 000001
    001753  aa   000000 000001
    001754  aa   000000 000002     595  	zero	0,vector;	dec	0,	2
    001755  aa   000000 000000
    001756  aa   000000 000002
    001757  aa   000000 000002     596  	zero	0,vector;	dec	-1,	1
    001760  aa   777777 777777
    001761  aa   000000 000001
    001762  aa   000000 000002     597  	zero	0,vector;	dec	-5,	0
    001763  aa   777777 777773
    001764  aa   000000 000000
    001765  aa   000000 000003     598  	zero	0,shift;	dec	8,	0
    001766  aa   000000 000010
    001767  aa   000000 000000
    001770  aa   000000 000011     599  C:	dec	9
    001771  aa   000000 000003     600  	zero	0,shift;	dec	6,	-2
    001772  aa   000000 000006
    001773  aa   777777 777776
    001774  aa   000000 000002     601  	zero	0,vector;	dec	-1,	2
    001775  aa   777777 777777
    001776  aa   000000 000002
    001777  aa   000000 000002     602  	zero	0,vector;	dec	-4,	0
    002000  aa   777777 777774
    002001  aa   000000 000000
    002002  aa   000000 000002     603  	zero	0,vector;	dec	-1,	-1
    002003  aa   777777 777777
    002004  aa   777777 777777
    002005  aa   000000 000002     604  	zero	0,vector;	dec	0,	-6
    002006  aa   000000 000000
    002007  aa   777777 777772
    002010  aa   000000 000002     605  	zero	0,vector;	dec	1,	-1
    002011  aa   000000 000001
    002012  aa   777777 777777
    002013  aa   000000 000002     606  	zero	0,vector;	dec	4,	0
    002014  aa   000000 000004
    002015  aa   000000 000000
    002016  aa   000000 000002     607  	zero	0,vector;	dec	1,	2
    002017  aa   000000 000001
    002020  aa   000000 000002
    002021  aa   000000 000003     608  	zero	0,shift;	dec	2,	6
    002022  aa   000000 000002
    002023  aa   000000 000006
    002024  aa   000000 000007     609  D:	dec	7
    002025  aa   000000 000002     610  	zero	0,vector;	dec	0,	-8
    002026  aa   000000 000000
    002027  aa   777777 777770
    002030  aa   000000 000002     611  	zero	0,vector;	dec	4,	0
    002031  aa   000000 000004
    002032  aa   000000 000000
    002033  aa   000000 000002     612  	zero	0,vector;	dec	2,	2
    002034  aa   000000 000002
    002035  aa   000000 000002
    002036  aa   000000 000002     613  	zero	0,vector;	dec	0,	4
    002037  aa   000000 000000
    002040  aa   000000 000004
    002041  aa   000000 000002     614  	zero	0,vector;	dec	-2,	2
    002042  aa   777777 777776
    002043  aa   000000 000002
    002044  aa   000000 000002     615  	zero	0,vector;	dec	-4,	0
    002045  aa   777777 777774
    002046  aa   000000 000000
    002047  aa   000000 000003     616  	zero	0,shift;	dec	8,	0
    002050  aa   000000 000010
    002051  aa   000000 000000
    002052  aa   000000 000007     617  E:	dec	7
    002053  aa   000000 000003     618  	zero	0,shift;	dec	6,	0
    002054  aa   000000 000006
    002055  aa   000000 000000
    002056  aa   000000 000002     619  	zero	0,vector;	dec	-6,	0
    002057  aa   777777 777772
    002060  aa   000000 000000
    002061  aa   000000 000002     620  	zero	0,vector;	dec	0,	-8
    002062  aa   000000 000000
    002063  aa   777777 777770
    002064  aa   000000 000002     621  	zero	0,vector;	dec	6,	0
    002065  aa   000000 000006
    002066  aa   000000 000000
    002067  aa   000000 000003     622  	zero	0,shift;	dec	-6,	4
    002070  aa   777777 777772
    002071  aa   000000 000004
    002072  aa   000000 000002     623  	zero	0,vector;	dec	4,	0
    002073  aa   000000 000004
    002074  aa   000000 000000
    002075  aa   000000 000003     624  	zero	0,shift;	dec	4,	4
    002076  aa   000000 000004
    002077  aa   000000 000004
    002100  aa   000000 000006     625  F:	dec	6
    002101  aa   000000 000003     626  	zero	0,shift;	dec	4,	-4
    002102  aa   000000 000004
    002103  aa   777777 777774
    002104  aa   000000 000002     627  	zero	0,vector;	dec	-4,	0
    002105  aa   777777 777774
    002106  aa   000000 000000
    002107  aa   000000 000003     628  	zero	0,shift;	dec	0,	-4
    002110  aa   000000 000000
    002111  aa   777777 777774
    002112  aa   000000 000002     629  	zero	0,vector;	dec	0,	8
    002113  aa   000000 000000
    002114  aa   000000 000010
    002115  aa   000000 000002     630  	zero	0,vector;	dec	6,	0
    002116  aa   000000 000006
    002117  aa   000000 000000
    002120  aa   000000 000003     631  	zero	0,shift;	dec	2,	0
    002121  aa   000000 000002
    002122  aa   000000 000000
    002123  aa   000000 000014     632  G:	dec	12
    002124  aa   000000 000003     633  	zero	0,shift;	dec	6,	-2
    002125  aa   000000 000006
    002126  aa   777777 777776
    002127  aa   000000 000002     634  	zero	0,vector;	dec	-2,	2
    002130  aa   777777 777776
    002131  aa   000000 000002
    002132  aa   000000 000002     635  	zero	0,vector;	dec	-2,	0
    002133  aa   777777 777776
    002134  aa   000000 000000
    002135  aa   000000 000002     636  	zero	0,vector;	dec	-2,	-2
    002136  aa   777777 777776
    002137  aa   777777 777776
    002140  aa   000000 000002     637  	zero	0,vector;	dec	0,	-4
    002141  aa   000000 000000
    002142  aa   777777 777774
    002143  aa   000000 000002     638  	zero	0,vector;	dec	2,	-2
    002144  aa   000000 000002
    002145  aa   777777 777776
    002146  aa   000000 000002     639  	zero	0,vector;	dec	2,	0
    002147  aa   000000 000002
    002150  aa   000000 000000
    002151  aa   000000 000002     640  	zero	0,vector;	dec	2,	2
    002152  aa   000000 000002
    002153  aa   000000 000002
    002154  aa   000000 000003     641  	zero	0,shift;	dec	-3,	2
    002155  aa   777777 777775
    002156  aa   000000 000002
    002157  aa   000000 000002     642  	zero	0,vector;	dec	3,	0
    002160  aa   000000 000003
    002161  aa   000000 000000
    002162  aa   000000 000002     643  	zero	0,vector;	dec	0,	-4
    002163  aa   000000 000000
    002164  aa   777777 777774
    002165  aa   000000 000003     644  	zero	0,shift;	dec	2,	8
    002166  aa   000000 000002
    002167  aa   000000 000010
    002170  aa   000000 000006     645  H:	dec	6
    002171  aa   000000 000002     646  	zero	0,vector;	dec	0,	-8
    002172  aa   000000 000000
    002173  aa   777777 777770
    002174  aa   000000 000003     647  	zero	0,shift;	dec	0,	4
    002175  aa   000000 000000
    002176  aa   000000 000004
    002177  aa   000000 000002     648  	zero	0,vector;	dec	6,	0
    002200  aa   000000 000006
    002201  aa   000000 000000
    002202  aa   000000 000003     649  	zero	0,shift;	dec	0,	-4
    002203  aa   000000 000000
    002204  aa   777777 777774
    002205  aa   000000 000002     650  	zero	0,vector;	dec	0,	8
    002206  aa   000000 000000
    002207  aa   000000 000010
    002210  aa   000000 000003     651  	zero	0,shift;	dec	2,	0
    002211  aa   000000 000002
    002212  aa   000000 000000
    002213  aa   000000 000006     652  I:	dec	6
    002214  aa   000000 000002     653  	zero	0,vector;	dec	6,	0
    002215  aa   000000 000006
    002216  aa   000000 000000
    002217  aa   000000 000003     654  	zero	0,shift;	dec	0,	-8
    002220  aa   000000 000000
    002221  aa   777777 777770
    002222  aa   000000 000002     655  	zero	0,vector;	dec	-6,	0
    002223  aa   777777 777772
    002224  aa   000000 000000
    002225  aa   000000 000003     656  	zero	0,shift;	dec	3,	0
    002226  aa   000000 000003
    002227  aa   000000 000000
    002230  aa   000000 000002     657  	zero	0,vector;	dec	0,	8
    002231  aa   000000 000000
    002232  aa   000000 000010
    002233  aa   000000 000003     658  	zero	0,shift;	dec	5,	0
    002234  aa   000000 000005
    002235  aa   000000 000000
    002236  aa   000000 000011     659  J:	dec	9
    002237  aa   000000 000003     660  	zero	0,shift;	dec	1,	0
    002240  aa   000000 000001
    002241  aa   000000 000000
    002242  aa   000000 000002     661  	zero	0,vector;	dec	5,	0
    002243  aa   000000 000005
    002244  aa   000000 000000
    002245  aa   000000 000003     662  	zero	0,shift;	dec	-2,	0
    002246  aa   777777 777776
    002247  aa   000000 000000
    002250  aa   000000 000002     663  	zero	0,vector;	dec	0,	-7
    002251  aa   000000 000000
    002252  aa   777777 777771
    002253  aa   000000 000002     664  	zero	0,vector;	dec	-1,	-1
    002254  aa   777777 777777
    002255  aa   777777 777777
    002256  aa   000000 000002     665  	zero	0,vector;	dec	-2,	0
    002257  aa   777777 777776
    002260  aa   000000 000000
    002261  aa   000000 000002     666  	zero	0,vector;	dec	-1,	1
    002262  aa   777777 777777
    002263  aa   000000 000001
    002264  aa   000000 000002     667  	zero	0,vector;	dec	0,	2
    002265  aa   000000 000000
    002266  aa   000000 000002
    002267  aa   000000 000003     668  	zero	0,shift;	dec	8,	5
    002270  aa   000000 000010
    002271  aa   000000 000005
    002272  aa   000000 000006     669  K:	dec	6
    002273  aa   000000 000002     670  	zero	0,vector;	dec	0,	-8
    002274  aa   000000 000000
    002275  aa   777777 777770
    002276  aa   000000 000003     671  	zero	0,shift;	dec	6,	0
    002277  aa   000000 000006
    002300  aa   000000 000000
    002301  aa   000000 000002     672  	zero	0,vector;	dec	-4,	5
    002302  aa   777777 777774
    002303  aa   000000 000005
    002304  aa   000000 000003     673  	zero	0,shift;	dec	-2,	-1
    002305  aa   777777 777776
    002306  aa   777777 777777
    002307  aa   000000 000002     674  	zero	0,vector;	dec	6,	4
    002310  aa   000000 000006
    002311  aa   000000 000004
    002312  aa   000000 000003     675  	zero	0,shift;	dec	2,	0
    002313  aa   000000 000002
    002314  aa   000000 000000
    002315  aa   000000 000003     676  L:	dec	3
    002316  aa   000000 000002     677  	zero	0,vector;	dec	0,	-8
    002317  aa   000000 000000
    002320  aa   777777 777770
    002321  aa   000000 000002     678  	zero	0,vector;	dec	6,	0
    002322  aa   000000 000006
    002323  aa   000000 000000
    002324  aa   000000 000003     679  	zero	0,shift;	dec	2,	8
    002325  aa   000000 000002
    002326  aa   000000 000010
    002327  aa   000000 000006     680  M:	dec	6
    002330  aa   000000 000003     681  	zero	0,shift;	dec	0,	-8
    002331  aa   000000 000000
    002332  aa   777777 777770
    002333  aa   000000 000002     682  	zero	0,vector;	dec	0,	8
    002334  aa   000000 000000
    002335  aa   000000 000010
    002336  aa   000000 000002     683  	zero	0,vector;	dec	3,	-5
    002337  aa   000000 000003
    002340  aa   777777 777773
    002341  aa   000000 000002     684  	zero	0,vector;	dec	3,	5
    002342  aa   000000 000003
    002343  aa   000000 000005
    002344  aa   000000 000002     685  	zero	0,vector;	dec	0,	-8
    002345  aa   000000 000000
    002346  aa   777777 777770
    002347  aa   000000 000003     686  	zero	0,shift;	dec	2,	8
    002350  aa   000000 000002
    002351  aa   000000 000010
    002352  aa   000000 000005     687  N:	dec	5
    002353  aa   000000 000003     688  	zero	0,shift;	dec	0,	-8
    002354  aa   000000 000000
    002355  aa   777777 777770
    002356  aa   000000 000002     689  	zero	0,vector;	dec	0,	8
    002357  aa   000000 000000
    002360  aa   000000 000010
    002361  aa   000000 000002     690  	zero	0,vector;	dec	6,	-8
    002362  aa   000000 000006
    002363  aa   777777 777770
    002364  aa   000000 000002     691  	zero	0,vector;	dec	0,	8
    002365  aa   000000 000000
    002366  aa   000000 000010
    002367  aa   000000 000003     692  	zero	0,shift;	dec	2,	0
    002370  aa   000000 000002
    002371  aa   000000 000000
    002372  aa   000000 000012     693  O:	dec	10
    002373  aa   000000 000003     694  	zero	0,shift;	dec	6,	-2
    002374  aa   000000 000006
    002375  aa   777777 777776
    002376  aa   000000 000002     695  	zero	0,vector;	dec	-2,	2
    002377  aa   777777 777776
    002400  aa   000000 000002
    002401  aa   000000 000002     696  	zero	0,vector;	dec	-2,	0
    002402  aa   777777 777776
    002403  aa   000000 000000
    002404  aa   000000 000002     697  	zero	0,vector;	dec	-2,	-2
    002405  aa   777777 777776
    002406  aa   777777 777776
    002407  aa   000000 000002     698  	zero	0,vector;	dec	0,	-4
    002410  aa   000000 000000
    002411  aa   777777 777774
    002412  aa   000000 000002     699  	zero	0,vector;	dec	2,	-2
    002413  aa   000000 000002
    002414  aa   777777 777776
    002415  aa   000000 000002     700  	zero	0,vector;	dec	2,	0
    002416  aa   000000 000002
    002417  aa   000000 000000
    002420  aa   000000 000002     701  	zero	0,vector;	dec	2,	2
    002421  aa   000000 000002
    002422  aa   000000 000002
    002423  aa   000000 000002     702  	zero	0,vector;	dec	0,	4
    002424  aa   000000 000000
    002425  aa   000000 000004
    002426  aa   000000 000003     703  	zero	0,shift;	dec	2,	2
    002427  aa   000000 000002
    002430  aa   000000 000002
    002431  aa   000000 000010     704  P:	dec	8
    002432  aa   000000 000003     705  	zero	0,shift;	dec	0,	-8
    002433  aa   000000 000000
    002434  aa   777777 777770
    002435  aa   000000 000002     706  	zero	0,vector;	dec	0,	8
    002436  aa   000000 000000
    002437  aa   000000 000010
    002440  aa   000000 000002     707  	zero	0,vector;	dec	5,	0
    002441  aa   000000 000005
    002442  aa   000000 000000
    002443  aa   000000 000002     708  	zero	0,vector;	dec	1,	-1
    002444  aa   000000 000001
    002445  aa   777777 777777
    002446  aa   000000 000002     709  	zero	0,vector;	dec	0,	-2
    002447  aa   000000 000000
    002450  aa   777777 777776
    002451  aa   000000 000002     710  	zero	0,vector;	dec	-1,	-1
    002452  aa   777777 777777
    002453  aa   777777 777777
    002454  aa   000000 000002     711  	zero	0,vector;	dec	-5,	0
    002455  aa   777777 777773
    002456  aa   000000 000000
    002457  aa   000000 000003     712  	zero	0,shift;	dec	8,	4
    002460  aa   000000 000010
    002461  aa   000000 000004
    002462  aa   000000 000015     713  Q:	dec	13
    002463  aa   000000 000003     714  	zero	0,shift;	dec	6,	-2
    002464  aa   000000 000006
    002465  aa   777777 777776
    002466  aa   000000 000002     715  	zero	0,vector;	dec	-2,	2
    002467  aa   777777 777776
    002470  aa   000000 000002
    002471  aa   000000 000002     716  	zero	0,vector;	dec	-2,	0
    002472  aa   777777 777776
    002473  aa   000000 000000
    002474  aa   000000 000002     717  	zero	0,vector;	dec	-2,	-2
    002475  aa   777777 777776
    002476  aa   777777 777776
    002477  aa   000000 000002     718  	zero	0,vector;	dec	0,	-4
    002500  aa   000000 000000
    002501  aa   777777 777774
    002502  aa   000000 000002     719  	zero	0,vector;	dec	2,	-2
    002503  aa   000000 000002
    002504  aa   777777 777776
    002505  aa   000000 000002     720  	zero	0,vector;	dec	2,	0
    002506  aa   000000 000002
    002507  aa   000000 000000
    002510  aa   000000 000002     721  	zero	0,vector;	dec	2,	2
    002511  aa   000000 000002
    002512  aa   000000 000002
    002513  aa   000000 000002     722  	zero	0,vector;	dec	0,	4
    002514  aa   000000 000000
    002515  aa   000000 000004
    002516  aa   000000 000003     723  	zero	0,shift;	dec	-3,	-4
    002517  aa   777777 777775
    002520  aa   777777 777774
    002521  aa   000000 000002     724  	zero	0,vector;	dec	1,	0
    002522  aa   000000 000001
    002523  aa   000000 000000
    002524  aa   000000 000002     725  	zero	0,vector;	dec	2,	-2
    002525  aa   000000 000002
    002526  aa   777777 777776
    002527  aa   000000 000003     726  	zero	0,shift;	dec	2,	8
    002530  aa   000000 000002
    002531  aa   000000 000010
    002532  aa   000000 000012     727  R:	dec	10
    002533  aa   000000 000003     728  	zero	0,shift;	dec	0,	-8
    002534  aa   000000 000000
    002535  aa   777777 777770
    002536  aa   000000 000002     729  	zero	0,vector;	dec	0,	8
    002537  aa   000000 000000
    002540  aa   000000 000010
    002541  aa   000000 000002     730  	zero	0,vector;	dec	5,	0
    002542  aa   000000 000005
    002543  aa   000000 000000
    002544  aa   000000 000002     731  	zero	0,vector;	dec	1,	-1
    002545  aa   000000 000001
    002546  aa   777777 777777
    002547  aa   000000 000002     732  	zero	0,vector;	dec	0,	-2
    002550  aa   000000 000000
    002551  aa   777777 777776
    002552  aa   000000 000002     733  	zero	0,vector;	dec	-1,	-1
    002553  aa   777777 777777
    002554  aa   777777 777777
    002555  aa   000000 000002     734  	zero	0,vector;	dec	-5,	0
    002556  aa   777777 777773
    002557  aa   000000 000000
    002560  aa   000000 000003     735  	zero	0,shift;	dec	3,	0
    002561  aa   000000 000003
    002562  aa   000000 000000
    002563  aa   000000 000002     736  	zero	0,vector;	dec	3,	-4
    002564  aa   000000 000003
    002565  aa   777777 777774
    002566  aa   000000 000003     737  	zero	0,shift;	dec	2,	8
    002567  aa   000000 000002
    002570  aa   000000 000010
    002571  aa   000000 000015     738  S:	dec	13
    002572  aa   000000 000003     739  	zero	0,shift;	dec	0,	-7
    002573  aa   000000 000000
    002574  aa   777777 777771
    002575  aa   000000 000002     740  	zero	0,vector;	dec	1,	-1
    002576  aa   000000 000001
    002577  aa   777777 777777
    002600  aa   000000 000002     741  	zero	0,vector;	dec	4,	0
    002601  aa   000000 000004
    002602  aa   000000 000000
    002603  aa   000000 000002     742  	zero	0,vector;	dec	1,	1
    002604  aa   000000 000001
    002605  aa   000000 000001
    002606  aa   000000 000002     743  	zero	0,vector;	dec	0,	2
    002607  aa   000000 000000
    002610  aa   000000 000002
    002611  aa   000000 000002     744  	zero	0,vector;	dec	-1,	1
    002612  aa   777777 777777
    002613  aa   000000 000001
    002614  aa   000000 000002     745  	zero	0,vector;	dec	-4,	0
    002615  aa   777777 777774
    002616  aa   000000 000000
    002617  aa   000000 000002     746  	zero	0,vector;	dec	-1,	1
    002620  aa   777777 777777
    002621  aa   000000 000001
    002622  aa   000000 000002     747  	zero	0,vector;	dec	0,	2
    002623  aa   000000 000000
    002624  aa   000000 000002
    002625  aa   000000 000002     748  	zero	0,vector;	dec	1,	1
    002626  aa   000000 000001
    002627  aa   000000 000001
    002630  aa   000000 000002     749  	zero	0,vector;	dec	4,	0
    002631  aa   000000 000004
    002632  aa   000000 000000
    002633  aa   000000 000002     750  	zero	0,vector;	dec	1,	-1
    002634  aa   000000 000001
    002635  aa   777777 777777
    002636  aa   000000 000003     751  	zero	0,shift;	dec	2,	1
    002637  aa   000000 000002
    002640  aa   000000 000001
    002641  aa   000000 000004     752  T:	dec	4
    002642  aa   000000 000002     753  	zero	0,vector;	dec	6,	0
    002643  aa   000000 000006
    002644  aa   000000 000000
    002645  aa   000000 000003     754  	zero	0,shift;	dec	-3,	0
    002646  aa   777777 777775
    002647  aa   000000 000000
    002650  aa   000000 000002     755  	zero	0,vector;	dec	0,	-8
    002651  aa   000000 000000
    002652  aa   777777 777770
    002653  aa   000000 000003     756  	zero	0,shift;	dec	5,	8
    002654  aa   000000 000005
    002655  aa   000000 000010
    002656  aa   000000 000006     757  U:	dec	6
    002657  aa   000000 000002     758  	zero	0,vector;	dec	0,	-6
    002660  aa   000000 000000
    002661  aa   777777 777772
    002662  aa   000000 000002     759  	zero	0,vector;	dec	2,	-2
    002663  aa   000000 000002
    002664  aa   777777 777776
    002665  aa   000000 000002     760  	zero	0,vector;	dec	2,	0
    002666  aa   000000 000002
    002667  aa   000000 000000
    002670  aa   000000 000002     761  	zero	0,vector;	dec	2,	2
    002671  aa   000000 000002
    002672  aa   000000 000002
    002673  aa   000000 000002     762  	zero	0,vector;	dec	0,	6
    002674  aa   000000 000000
    002675  aa   000000 000006
    002676  aa   000000 000003     763  	zero	0,shift;	dec	2,	0
    002677  aa   000000 000002
    002700  aa   000000 000000
    002701  aa   000000 000003     764  V:	dec	3
    002702  aa   000000 000002     765  	zero	0,vector;	dec	3,	-8
    002703  aa   000000 000003
    002704  aa   777777 777770
    002705  aa   000000 000002     766  	zero	0,vector;	dec	3,	8
    002706  aa   000000 000003
    002707  aa   000000 000010
    002710  aa   000000 000003     767  	zero	0,shift;	dec	2,	0
    002711  aa   000000 000002
    002712  aa   000000 000000
    002713  aa   000000 000005     768  W:	dec	5
    002714  aa   000000 000002     769  	zero	0,vector;	dec	1,	-8
    002715  aa   000000 000001
    002716  aa   777777 777770
    002717  aa   000000 000002     770  	zero	0,vector;	dec	2,	6
    002720  aa   000000 000002
    002721  aa   000000 000006
    002722  aa   000000 000002     771  	zero	0,vector;	dec	2,	-6
    002723  aa   000000 000002
    002724  aa   777777 777772
    002725  aa   000000 000002     772  	zero	0,vector;	dec	1,	8
    002726  aa   000000 000001
    002727  aa   000000 000010
    002730  aa   000000 000003     773  	zero	0,shift;	dec	2,	0
    002731  aa   000000 000002
    002732  aa   000000 000000
    002733  aa   000000 000004     774  X:	dec	4
    002734  aa   000000 000002     775  	zero	0,vector;	dec	6,	-8
    002735  aa   000000 000006
    002736  aa   777777 777770
    002737  aa   000000 000003     776  	zero	0,shift;	dec	-6,	0
    002740  aa   777777 777772
    002741  aa   000000 000000
    002742  aa   000000 000002     777  	zero	0,vector;	dec	6,	8
    002743  aa   000000 000006
    002744  aa   000000 000010
    002745  aa   000000 000003     778  	zero	0,shift;	dec	2,	0
    002746  aa   000000 000002
    002747  aa   000000 000000
    002750  aa   000000 000005     779  Y:	dec	5
    002751  aa   000000 000002     780  	zero	0,vector;	dec	3,	-4
    002752  aa   000000 000003
    002753  aa   777777 777774
    002754  aa   000000 000002     781  	zero	0,vector;	dec	0,	-4
    002755  aa   000000 000000
    002756  aa   777777 777774
    002757  aa   000000 000003     782  	zero	0,shift;	dec	0,	4
    002760  aa   000000 000000
    002761  aa   000000 000004
    002762  aa   000000 000002     783  	zero	0,vector;	dec	3,	4
    002763  aa   000000 000003
    002764  aa   000000 000004
    002765  aa   000000 000003     784  	zero	0,shift;	dec	2,	0
    002766  aa   000000 000002
    002767  aa   000000 000000
    002770  aa   000000 000004     785  Z:	dec	4
    002771  aa   000000 000002     786  	zero	0,vector;	dec	6,	0
    002772  aa   000000 000006
    002773  aa   000000 000000
    002774  aa   000000 000002     787  	zero	0,vector;	dec	-6,	-8
    002775  aa   777777 777772
    002776  aa   777777 777770
    002777  aa   000000 000002     788  	zero	0,vector;	dec	6,	0
    003000  aa   000000 000006
    003001  aa   000000 000000
    003002  aa   000000 000003     789  	zero	0,shift;	dec	2,	8
    003003  aa   000000 000002
    003004  aa   000000 000010
                                   790
    003005  aa   000000 000015     791  a:	dec	13
    003006  aa   000000 000003     792  	zero	0,shift;	dec	1,	-4
    003007  aa   000000 000001
    003010  aa   777777 777774
    003011  aa   000000 000002     793  	zero	0,vector;	dec	2,	1
    003012  aa   000000 000002
    003013  aa   000000 000001
    003014  aa   000000 000002     794  	zero	0,vector;	dec	2,	-1
    003015  aa   000000 000002
    003016  aa   777777 777777
    003017  aa   000000 000002     795  	zero	0,vector;	dec	0,	-4
    003020  aa   000000 000000
    003021  aa   777777 777774
    003022  aa   000000 000003     796  	zero	0,shift;	dec	0,	1
    003023  aa   000000 000000
    003024  aa   000000 000001
    003025  aa   000000 000002     797  	zero	0,vector;	dec	-1,	-1
    003026  aa   777777 777777
    003027  aa   777777 777777
    003030  aa   000000 000002     798  	zero	0,vector;	dec	-2,	0
    003031  aa   777777 777776
    003032  aa   000000 000000
    003033  aa   000000 000002     799  	zero	0,vector;	dec	-1,	1
    003034  aa   777777 777777
    003035  aa   000000 000001
    003036  aa   000000 000002     800  	zero	0,vector;	dec	0,	1
    003037  aa   000000 000000
    003040  aa   000000 000001
    003041  aa   000000 000002     801  	zero	0,vector;	dec	1,	1
    003042  aa   000000 000001
    003043  aa   000000 000001
    003044  aa   000000 000002     802  	zero	0,vector;	dec	2,	0
    003045  aa   000000 000002
    003046  aa   000000 000000
    003047  aa   000000 000002     803  	zero	0,vector;	dec	1,	-1
    003050  aa   000000 000001
    003051  aa   777777 777777
    003052  aa   000000 000003     804  	zero	0,shift;	dec	3,	6
    003053  aa   000000 000003
    003054  aa   000000 000006
    003055  aa   000000 000013     805  b:	dec	11
    003056  aa   000000 000003     806  	zero	0,shift;	dec	1,	0
    003057  aa   000000 000001
    003060  aa   000000 000000
    003061  aa   000000 000002     807  	zero	0,vector;	dec	0,	-8
    003062  aa   000000 000000
    003063  aa   777777 777770
    003064  aa   000000 000003     808  	zero	0,shift;	dec	0,	1
    003065  aa   000000 000000
    003066  aa   000000 000001
    003067  aa   000000 000002     809  	zero	0,vector;	dec	1,	-1
    003070  aa   000000 000001
    003071  aa   777777 777777
    003072  aa   000000 000002     810  	zero	0,vector;	dec	2,	0
    003073  aa   000000 000002
    003074  aa   000000 000000
    003075  aa   000000 000002     811  	zero	0,vector;	dec	1,	1
    003076  aa   000000 000001
    003077  aa   000000 000001
    003100  aa   000000 000002     812  	zero	0,vector;	dec	0,	3
    003101  aa   000000 000000
    003102  aa   000000 000003
    003103  aa   000000 000002     813  	zero	0,vector;	dec	-1,	1
    003104  aa   777777 777777
    003105  aa   000000 000001
    003106  aa   000000 000002     814  	zero	0,vector;	dec	-2,	0
    003107  aa   777777 777776
    003110  aa   000000 000000
    003111  aa   000000 000002     815  	zero	0,vector;	dec	-1,	-1
    003112  aa   777777 777777
    003113  aa   777777 777777
    003114  aa   000000 000003     816  	zero	0,shift;	dec	7,	4
    003115  aa   000000 000007
    003116  aa   000000 000004
    003117  aa   000000 000011     817  c:	dec	9
    003120  aa   000000 000003     818  	zero	0,shift;	dec	5,	-4
    003121  aa   000000 000005
    003122  aa   777777 777774
    003123  aa   000000 000002     819  	zero	0,vector;	dec	-1,	1
    003124  aa   777777 777777
    003125  aa   000000 000001
    003126  aa   000000 000002     820  	zero	0,vector;	dec	-2,	0
    003127  aa   777777 777776
    003130  aa   000000 000000
    003131  aa   000000 000002     821  	zero	0,vector;	dec	-1,	-1
    003132  aa   777777 777777
    003133  aa   777777 777777
    003134  aa   000000 000002     822  	zero	0,vector;	dec	0,	-3
    003135  aa   000000 000000
    003136  aa   777777 777775
    003137  aa   000000 000002     823  	zero	0,vector;	dec	1,	-1
    003140  aa   000000 000001
    003141  aa   777777 777777
    003142  aa   000000 000002     824  	zero	0,vector;	dec	2,	0
    003143  aa   000000 000002
    003144  aa   000000 000000
    003145  aa   000000 000002     825  	zero	0,vector;	dec	1,	1
    003146  aa   000000 000001
    003147  aa   000000 000001
    003150  aa   000000 000003     826  	zero	0,shift;	dec	3,	7
    003151  aa   000000 000003
    003152  aa   000000 000007
    003153  aa   000000 000013     827  d:	dec	11
    003154  aa   000000 000003     828  	zero	0,shift;	dec	5,	-4
    003155  aa   000000 000005
    003156  aa   777777 777774
    003157  aa   000000 000002     829  	zero	0,vector;	dec	-1,	1
    003160  aa   777777 777777
    003161  aa   000000 000001
    003162  aa   000000 000002     830  	zero	0,vector;	dec	-2,	0
    003163  aa   777777 777776
    003164  aa   000000 000000
    003165  aa   000000 000002     831  	zero	0,vector;	dec	-1,	-1
    003166  aa   777777 777777
    003167  aa   777777 777777
    003170  aa   000000 000002     832  	zero	0,vector;	dec	0,	-3
    003171  aa   000000 000000
    003172  aa   777777 777775
    003173  aa   000000 000002     833  	zero	0,vector;	dec	1,	-1
    003174  aa   000000 000001
    003175  aa   777777 777777
    003176  aa   000000 000002     834  	zero	0,vector;	dec	2,	0
    003177  aa   000000 000002
    003200  aa   000000 000000
    003201  aa   000000 000002     835  	zero	0,vector;	dec	1,	1
    003202  aa   000000 000001
    003203  aa   000000 000001
    003204  aa   000000 000003     836  	zero	0,shift;	dec	0,	-1
    003205  aa   000000 000000
    003206  aa   777777 777777
    003207  aa   000000 000002     837  	zero	0,vector;	dec	0,	8
    003210  aa   000000 000000
    003211  aa   000000 000010
    003212  aa   000000 000003     838  	zero	0,shift;	dec	3,	0
    003213  aa   000000 000003
    003214  aa   000000 000000
    003215  aa   000000 000013     839  e:	dec	11
    003216  aa   000000 000003     840  	zero	0,shift;	dec	1,	-5
    003217  aa   000000 000001
    003220  aa   777777 777773
    003221  aa   000000 000002     841  	zero	0,vector;	dec	4,	0
    003222  aa   000000 000004
    003223  aa   000000 000000
    003224  aa   000000 000002     842  	zero	0,vector;	dec	0,	1
    003225  aa   000000 000000
    003226  aa   000000 000001
    003227  aa   000000 000002     843  	zero	0,vector;	dec	-1,	1
    003230  aa   777777 777777
    003231  aa   000000 000001
    003232  aa   000000 000002     844  	zero	0,vector;	dec	-2,	0
    003233  aa   777777 777776
    003234  aa   000000 000000
    003235  aa   000000 000002     845  	zero	0,vector;	dec	-1,	-1
    003236  aa   777777 777777
    003237  aa   777777 777777
    003240  aa   000000 000002     846  	zero	0,vector;	dec	0,	-3
    003241  aa   000000 000000
    003242  aa   777777 777775
    003243  aa   000000 000002     847  	zero	0,vector;	dec	1,	-1
    003244  aa   000000 000001
    003245  aa   777777 777777
    003246  aa   000000 000002     848  	zero	0,vector;	dec	2,	0
    003247  aa   000000 000002
    003250  aa   000000 000000
    003251  aa   000000 000002     849  	zero	0,vector;	dec	1,	1
    003252  aa   000000 000001
    003253  aa   000000 000001
    003254  aa   000000 000003     850  	zero	0,shift;	dec	3,	7
    003255  aa   000000 000003
    003256  aa   000000 000007
    003257  aa   000000 000007     851  f:	dec	7
    003260  aa   000000 000003     852  	zero	0,shift;	dec	2,	-8
    003261  aa   000000 000002
    003262  aa   777777 777770
    003263  aa   000000 000002     853  	zero	0,vector;	dec	0,	6
    003264  aa   000000 000000
    003265  aa   000000 000006
    003266  aa   000000 000002     854  	zero	0,vector;	dec	1,	2
    003267  aa   000000 000001
    003270  aa   000000 000002
    003271  aa   000000 000002     855  	zero	0,vector;	dec	2,	0
    003272  aa   000000 000002
    003273  aa   000000 000000
    003274  aa   000000 000003     856  	zero	0,shift;	dec	-4,	-4
    003275  aa   777777 777774
    003276  aa   777777 777774
    003277  aa   000000 000002     857  	zero	0,vector;	dec	3,	0
    003300  aa   000000 000003
    003301  aa   000000 000000
    003302  aa   000000 000003     858  	zero	0,shift;	dec	4,	4
    003303  aa   000000 000004
    003304  aa   000000 000004
    003305  aa   000000 000015     859  g:	dec	13
    003306  aa   000000 000003     860  	zero	0,shift;	dec	1,	-9
    003307  aa   000000 000001
    003310  aa   777777 777767
    003311  aa   000000 000002     861  	zero	0,vector;	dec	1,	-1
    003312  aa   000000 000001
    003313  aa   777777 777777
    003314  aa   000000 000002     862  	zero	0,vector;	dec	2,	0
    003315  aa   000000 000002
    003316  aa   000000 000000
    003317  aa   000000 000002     863  	zero	0,vector;	dec	1,	1
    003320  aa   000000 000001
    003321  aa   000000 000001
    003322  aa   000000 000002     864  	zero	0,vector;	dec	0,	5
    003323  aa   000000 000000
    003324  aa   000000 000005
    003325  aa   000000 000002     865  	zero	0,vector;	dec	-1,	1
    003326  aa   777777 777777
    003327  aa   000000 000001
    003330  aa   000000 000002     866  	zero	0,vector;	dec	-2,	0
    003331  aa   777777 777776
    003332  aa   000000 000000
    003333  aa   000000 000002     867  	zero	0,vector;	dec	-1,	-1
    003334  aa   777777 777777
    003335  aa   777777 777777
    003336  aa   000000 000002     868  	zero	0,vector;	dec	0,	-3
    003337  aa   000000 000000
    003340  aa   777777 777775
    003341  aa   000000 000002     869  	zero	0,vector;	dec	1,	-1
    003342  aa   000000 000001
    003343  aa   777777 777777
    003344  aa   000000 000002     870  	zero	0,vector;	dec	2,	0
    003345  aa   000000 000002
    003346  aa   000000 000000
    003347  aa   000000 000002     871  	zero	0,vector;	dec	1,	1
    003350  aa   000000 000001
    003351  aa   000000 000001
    003352  aa   000000 000003     872  	zero	0,shift;	dec	3,	7
    003353  aa   000000 000003
    003354  aa   000000 000007
    003355  aa   000000 000010     873  h:	dec	8
    003356  aa   000000 000003     874  	zero	0,shift;	dec	1,	0
    003357  aa   000000 000001
    003360  aa   000000 000000
    003361  aa   000000 000002     875  	zero	0,vector;	dec	0,	-8
    003362  aa   000000 000000
    003363  aa   777777 777770
    003364  aa   000000 000003     876  	zero	0,shift;	dec	0,	4
    003365  aa   000000 000000
    003366  aa   000000 000004
    003367  aa   000000 000002     877  	zero	0,vector;	dec	1,	1
    003370  aa   000000 000001
    003371  aa   000000 000001
    003372  aa   000000 000002     878  	zero	0,vector;	dec	2,	0
    003373  aa   000000 000002
    003374  aa   000000 000000
    003375  aa   000000 000002     879  	zero	0,vector;	dec	1,	-1
    003376  aa   000000 000001
    003377  aa   777777 777777
    003400  aa   000000 000002     880  	zero	0,vector;	dec	0,	-4
    003401  aa   000000 000000
    003402  aa   777777 777774
    003403  aa   000000 000003     881  	zero	0,shift;	dec	3,	8
    003404  aa   000000 000003
    003405  aa   000000 000010
    003406  aa   000000 000005     882  i:	dec	5
    003407  aa   000000 000003     883  	zero	0,shift;	dec	3,	-1
    003410  aa   000000 000003
    003411  aa   777777 777777
    003412  aa   000000 000002     884  	zero	0,vector;	dec	0,	-1
    003413  aa   000000 000000
    003414  aa   777777 777777
    003415  aa   000000 000003     885  	zero	0,shift;	dec	0,	-1
    003416  aa   000000 000000
    003417  aa   777777 777777
    003420  aa   000000 000002     886  	zero	0,vector;	dec	0,	-5
    003421  aa   000000 000000
    003422  aa   777777 777773
    003423  aa   000000 000003     887  	zero	0,shift;	dec	5,	8
    003424  aa   000000 000005
    003425  aa   000000 000010
    003426  aa   000000 000007     888  j:	dec	7
    003427  aa   000000 000003     889  	zero	0,shift;	dec	4,	-2
    003430  aa   000000 000004
    003431  aa   777777 777776
    003432  aa   000000 000002     890  	zero	0,vector;	dec	0,	-1
    003433  aa   000000 000000
    003434  aa   777777 777777
    003435  aa   000000 000003     891  	zero	0,shift;	dec	0,	-1
    003436  aa   000000 000000
    003437  aa   777777 777777
    003440  aa   000000 000002     892  	zero	0,vector;	dec	0,	-5
    003441  aa   000000 000000
    003442  aa   777777 777773
    003443  aa   000000 000002     893  	zero	0,vector;	dec	-1,	-1
    003444  aa   777777 777777
    003445  aa   777777 777777
    003446  aa   000000 000002     894  	zero	0,vector;	dec	-1,	1
    003447  aa   777777 777777
    003450  aa   000000 000001
    003451  aa   000000 000003     895  	zero	0,shift;	dec	6,	9
    003452  aa   000000 000006
    003453  aa   000000 000011
    003454  aa   000000 000007     896  k:	dec	7
    003455  aa   000000 000003     897  	zero	0,shift;	dec	1,	0
    003456  aa   000000 000001
    003457  aa   000000 000000
    003460  aa   000000 000002     898  	zero	0,vector;	dec	0,	-8
    003461  aa   000000 000000
    003462  aa   777777 777770
    003463  aa   000000 000003     899  	zero	0,shift;	dec	0,	2
    003464  aa   000000 000000
    003465  aa   000000 000002
    003466  aa   000000 000002     900  	zero	0,vector;	dec	3,	3
    003467  aa   000000 000003
    003470  aa   000000 000003
    003471  aa   000000 000003     901  	zero	0,shift;	dec	-2,	-2
    003472  aa   777777 777776
    003473  aa   777777 777776
    003474  aa   000000 000002     902  	zero	0,vector;	dec	3,	-3
    003475  aa   000000 000003
    003476  aa   777777 777775
    003477  aa   000000 000003     903  	zero	0,shift;	dec	3,	8
    003500  aa   000000 000003
    003501  aa   000000 000010
    003502  aa   000000 000003     904  l:	dec	3
    003503  aa   000000 000003     905  	zero	0,shift;	dec	3,	-8
    003504  aa   000000 000003
    003505  aa   777777 777770
    003506  aa   000000 000002     906  	zero	0,vector;	dec	0,	8
    003507  aa   000000 000000
    003510  aa   000000 000010
    003511  aa   000000 000003     907  	zero	0,shift;	dec	5,	0
    003512  aa   000000 000005
    003513  aa   000000 000000
    003514  aa   000000 000013     908  m:	dec	11
    003515  aa   000000 000003     909  	zero	0,shift;	dec	0,	-8
    003516  aa   000000 000000
    003517  aa   777777 777770
    003520  aa   000000 000002     910  	zero	0,vector;	dec	0,	5
    003521  aa   000000 000000
    003522  aa   000000 000005
    003523  aa   000000 000003     911  	zero	0,shift;	dec	0,	-1
    003524  aa   000000 000000
    003525  aa   777777 777777
    003526  aa   000000 000002     912  	zero	0,vector;	dec	2,	1
    003527  aa   000000 000002
    003530  aa   000000 000001
    003531  aa   000000 000002     913  	zero	0,vector;	dec	1,	-1
    003532  aa   000000 000001
    003533  aa   777777 777777
    003534  aa   000000 000002     914  	zero	0,vector;	dec	0,	-4
    003535  aa   000000 000000
    003536  aa   777777 777774
    003537  aa   000000 000003     915  	zero	0,shift;	dec	0,	4
    003540  aa   000000 000000
    003541  aa   000000 000004
    003542  aa   000000 000002     916  	zero	0,vector;	dec	1,	1
    003543  aa   000000 000001
    003544  aa   000000 000001
    003545  aa   000000 000002     917  	zero	0,vector;	dec	2,	-1
    003546  aa   000000 000002
    003547  aa   777777 777777
    003550  aa   000000 000002     918  	zero	0,vector;	dec	0,	-4
    003551  aa   000000 000000
    003552  aa   777777 777774
    003553  aa   000000 000003     919  	zero	0,shift;	dec	2,	8
    003554  aa   000000 000002
    003555  aa   000000 000010
    003556  aa   000000 000010     920  n:	dec	8
    003557  aa   000000 000003     921  	zero	0,shift;	dec	1,	-3
    003560  aa   000000 000001
    003561  aa   777777 777775
    003562  aa   000000 000002     922  	zero	0,vector;	dec	0,	-5
    003563  aa   000000 000000
    003564  aa   777777 777773
    003565  aa   000000 000003     923  	zero	0,shift;	dec	0,	4
    003566  aa   000000 000000
    003567  aa   000000 000004
    003570  aa   000000 000002     924  	zero	0,vector;	dec	1,	1
    003571  aa   000000 000001
    003572  aa   000000 000001
    003573  aa   000000 000002     925  	zero	0,vector;	dec	2,	0
    003574  aa   000000 000002
    003575  aa   000000 000000
    003576  aa   000000 000002     926  	zero	0,vector;	dec	1,	-1
    003577  aa   000000 000001
    003600  aa   777777 777777
    003601  aa   000000 000002     927  	zero	0,vector;	dec	0,	-4
    003602  aa   000000 000000
    003603  aa   777777 777774
    003604  aa   000000 000003     928  	zero	0,shift;	dec	3,	8
    003605  aa   000000 000003
    003606  aa   000000 000010
    003607  aa   000000 000012     929  o:	dec	10
    003610  aa   000000 000003     930  	zero	0,shift;	dec	1,	-4
    003611  aa   000000 000001
    003612  aa   777777 777774
    003613  aa   000000 000002     931  	zero	0,vector;	dec	0,	-3
    003614  aa   000000 000000
    003615  aa   777777 777775
    003616  aa   000000 000002     932  	zero	0,vector;	dec	1,	-1
    003617  aa   000000 000001
    003620  aa   777777 777777
    003621  aa   000000 000002     933  	zero	0,vector;	dec	2,	0
    003622  aa   000000 000002
    003623  aa   000000 000000
    003624  aa   000000 000002     934  	zero	0,vector;	dec	1,	1
    003625  aa   000000 000001
    003626  aa   000000 000001
    003627  aa   000000 000002     935  	zero	0,vector;	dec	0,	3
    003630  aa   000000 000000
    003631  aa   000000 000003
    003632  aa   000000 000002     936  	zero	0,vector;	dec	-1,	1
    003633  aa   777777 777777
    003634  aa   000000 000001
    003635  aa   000000 000002     937  	zero	0,vector;	dec	-2,	0
    003636  aa   777777 777776
    003637  aa   000000 000000
    003640  aa   000000 000002     938  	zero	0,vector;	dec	-1,	-1
    003641  aa   777777 777777
    003642  aa   777777 777777
    003643  aa   000000 000003     939  	zero	0,shift;	dec	7,	4
    003644  aa   000000 000007
    003645  aa   000000 000004
    003646  aa   000000 000011     940  p:	dec	9
    003647  aa   000000 000003     941  	zero	0,shift;	dec	1,	-3
    003650  aa   000000 000001
    003651  aa   777777 777775
    003652  aa   000000 000002     942  	zero	0,vector;	dec	0,	-8
    003653  aa   000000 000000
    003654  aa   777777 777770
    003655  aa   000000 000003     943  	zero	0,shift;	dec	0,	3
    003656  aa   000000 000000
    003657  aa   000000 000003
    003660  aa   000000 000002     944  	zero	0,vector;	dec	3,	0
    003661  aa   000000 000003
    003662  aa   000000 000000
    003663  aa   000000 000002     945  	zero	0,vector;	dec	1,	1
    003664  aa   000000 000001
    003665  aa   000000 000001
    003666  aa   000000 000002     946  	zero	0,vector;	dec	0,	3
    003667  aa   000000 000000
    003670  aa   000000 000003
    003671  aa   000000 000002     947  	zero	0,vector;	dec	-1,	1
    003672  aa   777777 777777
    003673  aa   000000 000001
    003674  aa   000000 000002     948  	zero	0,vector;	dec	-3,	0
    003675  aa   777777 777775
    003676  aa   000000 000000
    003677  aa   000000 000003     949  	zero	0,shift;	dec	7,	3
    003700  aa   000000 000007
    003701  aa   000000 000003
    003702  aa   000000 000011     950  q:	dec	9
    003703  aa   000000 000003     951  	zero	0,shift;	dec	5,	-3
    003704  aa   000000 000005
    003705  aa   777777 777775
    003706  aa   000000 000002     952  	zero	0,vector;	dec	0,	-8
    003707  aa   000000 000000
    003710  aa   777777 777770
    003711  aa   000000 000003     953  	zero	0,shift;	dec	0,	3
    003712  aa   000000 000000
    003713  aa   000000 000003
    003714  aa   000000 000002     954  	zero	0,vector;	dec	-3,	0
    003715  aa   777777 777775
    003716  aa   000000 000000
    003717  aa   000000 000002     955  	zero	0,vector;	dec	-1,	1
    003720  aa   777777 777777
    003721  aa   000000 000001
    003722  aa   000000 000002     956  	zero	0,vector;	dec	0,	3
    003723  aa   000000 000000
    003724  aa   000000 000003
    003725  aa   000000 000002     957  	zero	0,vector;	dec	1,	1
    003726  aa   000000 000001
    003727  aa   000000 000001
    003730  aa   000000 000002     958  	zero	0,vector;	dec	3,	0
    003731  aa   000000 000003
    003732  aa   000000 000000
    003733  aa   000000 000003     959  	zero	0,shift;	dec	3,	3
    003734  aa   000000 000003
    003735  aa   000000 000003
    003736  aa   000000 000007     960  r:	dec	7
    003737  aa   000000 000003     961  	zero	0,shift;	dec	1,	-3
    003740  aa   000000 000001
    003741  aa   777777 777775
    003742  aa   000000 000002     962  	zero	0,vector;	dec	0,	-5
    003743  aa   000000 000000
    003744  aa   777777 777773
    003745  aa   000000 000003     963  	zero	0,shift;	dec	0,	4
    003746  aa   000000 000000
    003747  aa   000000 000004
    003750  aa   000000 000002     964  	zero	0,vector;	dec	1,	1
    003751  aa   000000 000001
    003752  aa   000000 000001
    003753  aa   000000 000002     965  	zero	0,vector;	dec	2,	0
    003754  aa   000000 000002
    003755  aa   000000 000000
    003756  aa   000000 000002     966  	zero	0,vector;	dec	1,	-1
    003757  aa   000000 000001
    003760  aa   777777 777777
    003761  aa   000000 000003     967  	zero	0,shift;	dec	3,	4
    003762  aa   000000 000003
    003763  aa   000000 000004
    003764  aa   000000 000011     968  s:	dec	9
    003765  aa   000000 000003     969  	zero	0,shift;	dec	1,	-8
    003766  aa   000000 000001
    003767  aa   777777 777770
    003770  aa   000000 000002     970  	zero	0,vector;	dec	3,	0
    003771  aa   000000 000003
    003772  aa   000000 000000
    003773  aa   000000 000002     971  	zero	0,vector;	dec	1,	1
    003774  aa   000000 000001
    003775  aa   000000 000001
    003776  aa   000000 000002     972  	zero	0,vector;	dec	0,	1
    003777  aa   000000 000000
    004000  aa   000000 000001
    004001  aa   000000 000002     973  	zero	0,vector;	dec	-4,	1
    004002  aa   777777 777774
    004003  aa   000000 000001
    004004  aa   000000 000002     974  	zero	0,vector;	dec	0,	1
    004005  aa   000000 000000
    004006  aa   000000 000001
    004007  aa   000000 000002     975  	zero	0,vector;	dec	1,	1
    004010  aa   000000 000001
    004011  aa   000000 000001
    004012  aa   000000 000002     976  	zero	0,vector;	dec	3,	0
    004013  aa   000000 000003
    004014  aa   000000 000000
    004015  aa   000000 000003     977  	zero	0,shift;	dec	3,	3
    004016  aa   000000 000003
    004017  aa   000000 000003
    004020  aa   000000 000007     978  t:	dec	7
    004021  aa   000000 000003     979  	zero	0,shift;	dec	2,	-1
    004022  aa   000000 000002
    004023  aa   777777 777777
    004024  aa   000000 000002     980  	zero	0,vector;	dec	0,	-6
    004025  aa   000000 000000
    004026  aa   777777 777772
    004027  aa   000000 000002     981  	zero	0,vector;	dec	1,	-1
    004030  aa   000000 000001
    004031  aa   777777 777777
    004032  aa   000000 000002     982  	zero	0,vector;	dec	2,	0
    004033  aa   000000 000002
    004034  aa   000000 000000
    004035  aa   000000 000003     983  	zero	0,shift;	dec	-4,	5
    004036  aa   777777 777774
    004037  aa   000000 000005
    004040  aa   000000 000002     984  	zero	0,vector;	dec	4,	0
    004041  aa   000000 000004
    004042  aa   000000 000000
    004043  aa   000000 000003     985  	zero	0,shift;	dec	3,	3
    004044  aa   000000 000003
    004045  aa   000000 000003
    004046  aa   000000 000007     986  u:	dec	7
    004047  aa   000000 000003     987  	zero	0,shift;	dec	1,	-3
    004050  aa   000000 000001
    004051  aa   777777 777775
    004052  aa   000000 000002     988  	zero	0,vector;	dec	0,	-4
    004053  aa   000000 000000
    004054  aa   777777 777774
    004055  aa   000000 000002     989  	zero	0,vector;	dec	2,	-1
    004056  aa   000000 000002
    004057  aa   777777 777777
    004060  aa   000000 000002     990  	zero	0,vector;	dec	2,	1
    004061  aa   000000 000002
    004062  aa   000000 000001
    004063  aa   000000 000003     991  	zero	0,shift;	dec	0,	-1
    004064  aa   000000 000000
    004065  aa   777777 777777
    004066  aa   000000 000002     992  	zero	0,vector;	dec	0,	5
    004067  aa   000000 000000
    004070  aa   000000 000005
    004071  aa   000000 000003     993  	zero	0,shift;	dec	3,	3
    004072  aa   000000 000003
    004073  aa   000000 000003
    004074  aa   000000 000004     994  v:	dec	4
    004075  aa   000000 000003     995  	zero	0,shift;	dec	1,	-3
    004076  aa   000000 000001
    004077  aa   777777 777775
    004100  aa   000000 000002     996  	zero	0,vector;	dec	2,	-5
    004101  aa   000000 000002
    004102  aa   777777 777773
    004103  aa   000000 000002     997  	zero	0,vector;	dec	2,	5
    004104  aa   000000 000002
    004105  aa   000000 000005
    004106  aa   000000 000003     998  	zero	0,shift;	dec	3,	3
    004107  aa   000000 000003
    004110  aa   000000 000003
    004111  aa   000000 000006     999  w:	dec	6
    004112  aa   000000 000003    1000  	zero	0,shift;	dec	0,	-3
    004113  aa   000000 000000
    004114  aa   777777 777775
    004115  aa   000000 000002    1001  	zero	0,vector;	dec	1,	-5
    004116  aa   000000 000001
    004117  aa   777777 777773
    004120  aa   000000 000002    1002  	zero	0,vector;	dec	2,	4
    004121  aa   000000 000002
    004122  aa   000000 000004
    004123  aa   000000 000002    1003  	zero	0,vector;	dec	2,	-4
    004124  aa   000000 000002
    004125  aa   777777 777774
    004126  aa   000000 000002    1004  	zero	0,vector;	dec	1,	5
    004127  aa   000000 000001
    004130  aa   000000 000005
    004131  aa   000000 000003    1005  	zero	0,shift;	dec	2,	3
    004132  aa   000000 000002
    004133  aa   000000 000003
    004134  aa   000000 000005    1006  x:	dec	5
    004135  aa   000000 000003    1007  	zero	0,shift;	dec	1,	-3
    004136  aa   000000 000001
    004137  aa   777777 777775
    004140  aa   000000 000002    1008  	zero	0,vector;	dec	4,	-5
    004141  aa   000000 000004
    004142  aa   777777 777773
    004143  aa   000000 000003    1009  	zero	0,shift;	dec	-4,	0
    004144  aa   777777 777774
    004145  aa   000000 000000
    004146  aa   000000 000002    1010  	zero	0,vector;	dec	4,	5
    004147  aa   000000 000004
    004150  aa   000000 000005
    004151  aa   000000 000003    1011  	zero	0,shift;	dec	3,	3
    004152  aa   000000 000003
    004153  aa   000000 000003
    004154  aa   000000 000005    1012  y:	dec	5
    004155  aa   000000 000003    1013  	zero	0,shift;	dec	1,	-3
    004156  aa   000000 000001
    004157  aa   777777 777775
    004160  aa   000000 000002    1014  	zero	0,vector;	dec	2,	-4
    004161  aa   000000 000002
    004162  aa   777777 777774
    004163  aa   000000 000003    1015  	zero	0,shift;	dec	-2,	-3
    004164  aa   777777 777776
    004165  aa   777777 777775
    004166  aa   000000 000002    1016  	zero	0,vector;	dec	4,	7
    004167  aa   000000 000004
    004170  aa   000000 000007
    004171  aa   000000 000003    1017  	zero	0,shift;	dec	3,	3
    004172  aa   000000 000003
    004173  aa   000000 000003
    004174  aa   000000 000005    1018  z:	dec	5
    004175  aa   000000 000003    1019  	zero	0,shift;	dec	1,	-3
    004176  aa   000000 000001
    004177  aa   777777 777775
    004200  aa   000000 000002    1020  	zero	0,vector;	dec	4,	0
    004201  aa   000000 000004
    004202  aa   000000 000000
    004203  aa   000000 000002    1021  	zero	0,vector;	dec	-4,	-5
    004204  aa   777777 777774
    004205  aa   777777 777773
    004206  aa   000000 000002    1022  	zero	0,vector;	dec	4,	0
    004207  aa   000000 000004
    004210  aa   000000 000000
    004211  aa   000000 000003    1023  	zero	0,shift;	dec	3,	8
    004212  aa   000000 000003
    004213  aa   000000 000010
                                  1024
                                  1025  	use	text_section
                                  1026  	tempd	temp
                                  1027
    004214  aa   000060 6270 00   1028  trap:	save
    004215  aa  7 00040 2721 20
                                  1029
    004216  aa   000000 3520 04   1030  	eppbp	0,ic		"get my text ptr in bp
    004217  aa  6 00050 2521 00   1031  	spribp	temp		"put it in temp
    004220  aa  6 00050 2351 00   1032  	lda	temp
    004221  aa   077777 3750 03   1033  	ana	=o77777,du	"get segno portion only in au
    004222  aa  6 00000 3731 00   1034  	epbpsb	sp|0		"make sure sb is really stack base
    004223  aa  7 00026 2351 61   1035  	lda	sb|22,*au		"get word in LOT locating our linkage
    004224  aa   000000 3310 01   1036  	easplp	0,au		"load segno from upper half into lp
    004225  aa   000000 3300 05   1037  	eawplp	0,al		"load wordno from lower half into lp
    004226  aa  6 00050 2201 00   1038  	ldx0	temp		"put our segno in x0
    004227  8a   000010 6210 00   1039  	eax1	index_table_start	"get start of words to fill in
                                  1040
    004230  aa  4 00000 7401 11   1041  loop:	stx0	lp|0,x1		"fill in segno of one of our pointers
    004231  aa   000002 6210 11   1042  	eax1	2,x1		"bump to skip word portion
    004232  8a   000410 1010 03   1043  	cmpx1	index_table_end,du	"are we done?
    004233  aa   777775 6040 04   1044  	tmi	loop-*,ic		"no, do next one
    004234  aa  7 00042 7101 20   1045  	return
                                  1046
    004235                        1047  	firstref	<*text>|trap
                                  1048  	join	/text/char_structures,text_section
                                  1049  	join	/link/index_table
                                  1050
                                  1051  	end

NO LITERALS

NAME DEFINITIONS FOR ENTRY POINTS AND SEGDEFS

    004236  5a   000003 000000
    004237  5a   000037 600000
    004240  aa   000000 000000
    004241  55   000013 000002
    004242  5a   000002 400003
    004243  55   000006 000013
    004244  aa  023 147 162 141
    004245  aa  160 150 151 143
    004246  aa  137 143 150 141
    004247  aa  162 137 164 141
    004250  aa  142 154 145 137
    004251  55   000022 000003
    004252  0a   000000 400000
    004253  55   000016 000003
    004254  aa  017 143 150 141         character_sizes
    004255  aa  162 141 143 164
    004256  aa  145 162 137 163
    004257  aa  151 172 145 163
    004260  55   000030 000013
    004261  2a   000010 400001
    004262  55   000025 000003
    004263  aa  010 143 150 141         char_ptr
    004264  aa  162 137 160 164
    004265  aa  162 000 000 000
    004266  55   000002 000022
    004267  6a   000000 400002
    004270  55   000033 000003
    004271  aa  014 163 171 155         symbol_table
    004272  aa  142 157 154 137
    004273  aa  164 141 142 154
    004274  aa  145 000 000 000

DEFINITIONS HASH TABLE

    004275  aa   000000 000015
    004276  aa   000000 000000
    004277  5a   000013 000000
    004300  aa   000000 000000
    004301  aa   000000 000000
    004302  aa   000000 000000
    004303  aa   000000 000000
    004304  5a   000030 000000
    004305  aa   000000 000000
    004306  aa   000000 000000
    004307  aa   000000 000000
    004310  5a   000022 000000
    004311  aa   000000 000000
    004312  aa   000000 000000

NO EXTERNAL NAMES

NO TRAP POINTER WORDS

TYPE PAIR BLOCKS

    004313  aa   000001 000000
    004314  aa   000000 000000

INTERNAL EXPRESSION WORDS

    004315  50   000055 004214
LINKAGE INFORMATION

    000000  aa   000000 000000
    000001  02   004236 000412
    000002  aa   000000 000000
    000003  aa   000000 000000
    000004  aa   000000 000000
    000005  aa   000000 000000
    000006  22   000410 000415
    000007  a2   000000 000400
    000410  9a   777370 0000 46         *text|
    000411  5a   000057 0000 00

FIRST REFERENCE TRAP LIST

    000412  aa   000000 000001
    000413  aa   000000 000001
    000414  2a   000410 000000
    000415  aa   000000 000000
SYMBOL INFORMATION

SYMBOL TABLE HEADER

    000000  aa   000000 000001
    000001  aa   163171 155142
    000002  aa   164162 145145
    000003  aa   000000 000004
    000004  aa   000000 111316
    000005  aa   510113 575622
    000006  aa   000000 111341
    000007  aa   510313 426400
    000010  aa   141154 155040
    000011  aa   040040 040040
    000012  aa   000024 000040
    000013  aa   000034 000040
    000014  aa   000044 000100
    000015  aa   000002 000002
    000016  aa   000064 000000
    000017  aa   000000 000351
    000020  aa   000000 000105
    000021  aa   000000 000302
    000022  aa   000343 000105
    000023  aa   000064 000000
    000024  aa   101114 115040
    000025  aa   126145 162163
    000026  aa   151157 156040
    000027  aa   040066 056064
    000030  aa   040040 101160
    000031  aa   162151 154040
    000032  aa   061071 070061
    000033  aa   040040 040040
    000034  aa   110157 154155
    000035  aa   163164 145144
    000036  aa   164056 123171
    000037  aa   163115 141151
    000040  aa   156164 056155
    000041  aa   040040 040040
    000042  aa   040040 040040
    000043  aa   040040 040040
    000044  aa   154151 163164
    000045  aa   040040 040040
    000046  aa   040040 040040
    000047  aa   040040 040040
    000050  aa   040040 040040
    000051  aa   040040 040040
    000052  aa   040040 040040
    000053  aa   040040 040040
    000054  aa   040040 040040
    000055  aa   040040 040040
    000056  aa   040040 040040
    000057  aa   040040 040040
    000060  aa   040040 040040
    000061  aa   040040 040040
    000062  aa   040040 040040
    000063  aa   040040 040040
    000064  aa   000000 000001
    000065  aa   000000 000001
    000066  aa   000072 000051
    000067  aa   113400 472306
    000070  aa   000000 111341
    000071  aa   471436 000000
    000072  aa   076144 165155          >dumps>old>recomp>graphic_char_table_.alm
    000073  aa   160163 076157
    000074  aa   154144 076162
    000075  aa   145143 157155
    000076  aa   160076 147162
    000077  aa   141160 150151
    000100  aa   143137 143150
    000101  aa   141162 137164
    000102  aa   141142 154145
    000103  aa   137056 141154
    000104  aa   155040 040040
               MULTICS ASSEMBLY CROSS REFERENCE LISTING

   Value        Symbol                   Source file   Line number

                *text                    graphic_char_table_:     1047.
        1667    A                        graphic_char_table_:      116,  576.
        3005    a                        graphic_char_table_:      148,  791.
           3    ack                      graphic_char_table_:       57,  204.
         230    amprsnd                  graphic_char_table_:       89,  285.
        1052    atsign                   graphic_char_table_:      115,  435.
        1723    B                        graphic_char_table_:      117,  586.
        3055    b                        graphic_char_table_:      149,  805.
           3    bel                      graphic_char_table_:       58,  205.
           3    brs                      graphic_char_table_:       66,  209.
           4    bs                       graphic_char_table_:       59,  228.
        1770    C                        graphic_char_table_:      118,  599.
        3117    c                        graphic_char_table_:      150,  817.
           3    can                      graphic_char_table_:       75,  218.
         574    cent                     graphic_char_table_:      143,  371.
           0    character_sizes          graphic_char_table_:      186,  188.
          10    char_ptr                 graphic_char_table_:       45,   49.
           0    char_structures          graphic_char_table_:      184, 1048.
         603    cirflex                  graphic_char_table_:      145,  374.
         743    colon                    graphic_char_table_:      109,  410.
         416    comma                    graphic_char_table_:       95,  329.
           4    cr                       graphic_char_table_:       64,  230.
        2024    D                        graphic_char_table_:      119,  609.
        3153    d                        graphic_char_table_:      151,  827.
          42    dbl_quot                 graphic_char_table_:       85,  243.
           3    dc1                      graphic_char_table_:       68,  211.
           3    dc2                      graphic_char_table_:       69,  212.
           3    dc3                      graphic_char_table_:       70,  213.
           3    dc4                      graphic_char_table_:       71,  214.
           3    del                      graphic_char_table_:      178,  226.
           3    dle                      graphic_char_table_:       67,  210.
         116    dollar                   graphic_char_table_:       87,  259.
         445    dot                      graphic_char_table_:       97,  338.
        2052    E                        graphic_char_table_:      120,  617.
        3215    e                        graphic_char_table_:      152,  839.
        1451    eight                    graphic_char_table_:      107,  526.
           3    em                       graphic_char_table_:       76,  219.
           3    enq                      graphic_char_table_:       56,  203.
           3    eot                      graphic_char_table_:       55,  202.
         664    equal                    graphic_char_table_:      112,  393.
           3    esc                      graphic_char_table_:       78,  221.
           3    etb                      graphic_char_table_:       74,  217.
           3    etx                      graphic_char_table_:       54,  201.
          11    excl_pt                  graphic_char_table_:       84,  234.
        2100    F                        graphic_char_table_:      121,  625.
        3257    f                        graphic_char_table_:      153,  851.
           3    ff                       graphic_char_table_:       63,  207.
        1330    five                     graphic_char_table_:      104,  497.
        1310    four                     graphic_char_table_:      103,  491.
           3    fs                       graphic_char_table_:       79,  222.
        2123    G                        graphic_char_table_:      122,  632.
        3305    g                        graphic_char_table_:      154,  859.
         647    grthan                   graphic_char_table_:      113,  388.
           3    gs                       graphic_char_table_:       80,  223.
        2170    H                        graphic_char_table_:      123,  645.
        3355    h                        graphic_char_table_:      155,  873.
           5    ht                       graphic_char_table_:       60,  231.
        2213    I                        graphic_char_table_:      124,  652.
        3406    i                        graphic_char_table_:      156,  882.
          10    index_table              graphic_char_table_:       47, 1049.
         410    index_table_end          graphic_char_table_:      180, 1043.
          10    index_table_start        graphic_char_table_:       50, 1039.
        2236    J                        graphic_char_table_:      125,  659.
        3426    j                        graphic_char_table_:      157,  888.
        2272    K                        graphic_char_table_:      126,  669.
        3454    k                        graphic_char_table_:      158,  896.
        2315    L                        graphic_char_table_:      127,  676.
        3502    l                        graphic_char_table_:      159,  904.
         632    lesthan                  graphic_char_table_:      111,  383.
        4230    loop                     graphic_char_table_:     1041, 1044.
        1636    l_brace                  graphic_char_table_:      174,  567.
         522    l_brack                  graphic_char_table_:      142,  355.
         310    l_paren                  graphic_char_table_:       91,  303.
         264    l_quote                  graphic_char_table_:       90,  295.
        2327    M                        graphic_char_table_:      128,  680.
        3514    m                        graphic_char_table_:      160,  908.
         433    minus                    graphic_char_table_:       96,  334.
        2352    N                        graphic_char_table_:      129,  687.
        3556    n                        graphic_char_table_:      161,  920.
           3    nak                      graphic_char_table_:       72,  215.
        1535    nine                     graphic_char_table_:      108,  544.
           4    nl                       graphic_char_table_:       61,  229.
           3    nul                      graphic_char_table_:       51,  198.
        2372    O                        graphic_char_table_:      130,  693.
        3607    o                        graphic_char_table_:      162,  929.
        1164    one                      graphic_char_table_:      100,  461.
        2431    P                        graphic_char_table_:      131,  704.
        3646    p                        graphic_char_table_:      163,  940.
         160    percent                  graphic_char_table_:       88,  271.
         376    plus                     graphic_char_table_:       94,  323.
        2462    Q                        graphic_char_table_:      132,  713.
        3702    q                        graphic_char_table_:      164,  950.
         704    ques_mrk                 graphic_char_table_:      114,  399.
        2532    R                        graphic_char_table_:      133,  727.
        3736    r                        graphic_char_table_:      165,  960.
           3    rrs                      graphic_char_table_:       65,  208.
           3    rs                       graphic_char_table_:       81,  224.
        1605    r_brace                  graphic_char_table_:      176,  558.
         542    r_brack                  graphic_char_table_:      144,  361.
         330    r_paren                  graphic_char_table_:       92,  309.
         276    r_quote                  graphic_char_table_:      147,  299.
        2571    S                        graphic_char_table_:      134,  738.
        3764    s                        graphic_char_table_:      166,  968.
        1005    semi                     graphic_char_table_:      110,  422.
        1437    seven                    graphic_char_table_:      106,  522.
          62    sharp                    graphic_char_table_:       86,  249.
           3    shift                    graphic_char_table_:      195,  233,  235,  240,  242,  244,  246,  248,  250,  252,
                                                                   254,  256,  258,  260,  268,  270,  272,  277,  282,  284,
                                                                   286,  294,  296,  298,  300,  302,  304,  308,  310,  314,
                                                                   316,  318,  320,  322,  324,  326,  328,  330,  333,  335,
                                                                   337,  339,  344,  346,  348,  350,  354,  356,  360,  362,
                                                                   366,  368,  370,  373,  375,  378,  380,  382,  384,  387,
                                                                   389,  392,  394,  396,  398,  400,  407,  409,  411,  416,
                                                                   421,  423,  428,  434,  436,  449,  451,  460,  462,  465,
                                                                   467,  469,  477,  479,  485,  490,  492,  496,  498,  507,
                                                                   509,  521,  525,  527,  543,  545,  557,  559,  566,  568,
                                                                   575,  577,  583,  585,  593,  598,  600,  608,  616,  618,
                                                                   622,  624,  626,  628,  631,  633,  641,  644,  647,  649,
                                                                   651,  654,  656,  658,  660,  662,  668,  671,  673,  675,
                                                                   679,  681,  686,  688,  692,  694,  703,  705,  712,  714,
                                                                   723,  726,  728,  735,  737,  739,  751,  754,  756,  763,
                                                                   767,  773,  776,  778,  782,  784,  789,  792,  796,  804,
                                                                   806,  808,  816,  818,  826,  828,  836,  838,  840,  850,
                                                                   852,  856,  858,  860,  872,  874,  876,  881,  883,  885,
                                                                   887,  889,  891,  895,  897,  899,  901,  903,  905,  907,
                                                                   909,  911,  915,  919,  921,  923,  928,  930,  939,  941,
                                                                   943,  949,  951,  953,  959,  961,  963,  967,  969,  977,
                                                                   979,  983,  985,  987,  991,  993,  995,  998, 1000, 1005,
                                                                  1007, 1009, 1011, 1013, 1015, 1017, 1019, 1023.
        1367    six                      graphic_char_table_:      105,  508.
         470    slash                    graphic_char_table_:       98,  345.
           3    soh                      graphic_char_table_:       52,  199.
           5    space                    graphic_char_table_:       83,  232.
         350    star                     graphic_char_table_:       93,  315.
           3    stx                      graphic_char_table_:       53,  200.
           3    sub                      graphic_char_table_:       77,  220.
           3    syn                      graphic_char_table_:       73,  216.
        2641    T                        graphic_char_table_:      135,  752.
        4020    t                        graphic_char_table_:      167,  978.
          50    temp                     graphic_char_table_:     1026, 1031, 1032, 1038.
        4214    text_section             graphic_char_table_:     1025, 1048.
        1243    three                    graphic_char_table_:      102,  478.
         502    tilde                    graphic_char_table_:      177,  349.
        4214    trap                     graphic_char_table_:     1028, 1047.
        1207    two                      graphic_char_table_:      101,  468.
        2656    U                        graphic_char_table_:      136,  757.
        4046    u                        graphic_char_table_:      168,  986.
         620    underbar                 graphic_char_table_:      146,  379.
           3    us                       graphic_char_table_:       82,  225.
        2701    V                        graphic_char_table_:      137,  764.
        4074    v                        graphic_char_table_:      169,  994.
           2    vector                   graphic_char_table_:      196,  236,  237,  238,  239,  241,  245,  247,  251,  253,
                                                                   255,  257,  261,  262,  263,  264,  265,  266,  267,  269,
                                                                   273,  274,  275,  276,  278,  279,  280,  281,  283,  287,
                                                                   288,  289,  290,  291,  292,  293,  297,  301,  305,  306,
                                                                   307,  311,  312,  313,  317,  319,  321,  325,  327,  331,
                                                                   332,  336,  340,  341,  342,  343,  347,  351,  352,  353,
                                                                   357,  358,  359,  363,  364,  365,  369,  372,  376,  377,
                                                                   381,  385,  386,  390,  391,  395,  397,  401,  402,  403,
                                                                   404,  405,  406,  408,  412,  413,  414,  415,  417,  418,
                                                                   419,  420,  424,  425,  426,  427,  429,  430,  431,  432,
                                                                   433,  437,  438,  439,  440,  441,  442,  443,  444,  445,
                                                                   446,  447,  448,  452,  453,  454,  455,  456,  457,  458,
                                                                   459,  463,  464,  466,  470,  471,  472,  473,  474,  475,
                                                                   476,  480,  481,  482,  483,  484,  486,  487,  488,  489,
                                                                   493,  494,  495,  499,  500,  501,  502,  503,  504,  505,
                                                                   506,  510,  511,  512,  513,  514,  515,  516,  517,  518,
                                                                   519,  520,  523,  524,  528,  529,  530,  531,  532,  533,
                                                                   534,  535,  536,  537,  538,  539,  540,  541,  542,  546,
                                                                   547,  548,  549,  550,  551,  552,  553,  554,  555,  556,
                                                                   560,  561,  562,  563,  564,  565,  569,  570,  571,  572,
                                                                   573,  574,  578,  579,  580,  581,  582,  584,  587,  588,
                                                                   589,  590,  591,  592,  594,  595,  596,  597,  601,  602,
                                                                   603,  604,  605,  606,  607,  610,  611,  612,  613,  614,
                                                                   615,  619,  620,  621,  623,  627,  629,  630,  634,  635,
                                                                   636,  637,  638,  639,  640,  642,  643,  646,  648,  650,
                                                                   653,  655,  657,  661,  663,  664,  665,  666,  667,  670,
                                                                   672,  674,  677,  678,  682,  683,  684,  685,  689,  690,
                                                                   691,  695,  696,  697,  698,  699,  700,  701,  702,  706,
                                                                   707,  708,  709,  710,  711,  715,  716,  717,  718,  719,
                                                                   720,  721,  722,  724,  725,  729,  730,  731,  732,  733,
                                                                   734,  736,  740,  741,  742,  743,  744,  745,  746,  747,
                                                                   748,  749,  750,  753,  755,  758,  759,  760,  761,  762,
                                                                   765,  766,  769,  770,  771,  772,  775,  777,  780,  781,
                                                                   783,  786,  787,  788,  793,  794,  795,  797,  798,  799,
                                                                   800,  801,  802,  803,  807,  809,  810,  811,  812,  813,
                                                                   814,  815,  819,  820,  821,  822,  823,  824,  825,  829,
                                                                   830,  831,  832,  833,  834,  835,  837,  841,  842,  843,
                                                                   844,  845,  846,  847,  848,  849,  853,  854,  855,  857,
                                                                   861,  862,  863,  864,  865,  866,  867,  868,  869,  870,
                                                                   871,  875,  877,  878,  879,  880,  884,  886,  890,  892,
                                                                   893,  894,  898,  900,  902,  906,  910,  912,  913,  914,
                                                                   916,  917,  918,  922,  924,  925,  926,  927,  931,  932,
                                                                   933,  934,  935,  936,  937,  938,  942,  944,  945,  946,
                                                                   947,  948,  952,  954,  955,  956,  957,  958,  962,  964,
                                                                   965,  966,  970,  971,  972,  973,  974,  975,  976,  980,
                                                                   981,  982,  984,  988,  989,  990,  992,  996,  997, 1001,
                                                                  1002, 1003, 1004, 1008, 1010, 1014, 1016, 1020, 1021, 1022.
         562    vert_bar                 graphic_char_table_:      175,  367.
           3    vt                       graphic_char_table_:       62,  206.
        2713    W                        graphic_char_table_:      138,  768.
        4111    w                        graphic_char_table_:      170,  999.
        2733    X                        graphic_char_table_:      139,  774.
        4134    x                        graphic_char_table_:      171, 1006.
        2750    Y                        graphic_char_table_:      140,  779.
        4154    y                        graphic_char_table_:      172, 1012.
        2770    Z                        graphic_char_table_:      141,  785.
        4174    z                        graphic_char_table_:      173, 1018.
        1125    zero                     graphic_char_table_:       99,  450.


NO FATAL ERRORS


                                          -----------------------------------------------------------


Historical Background

This edition of the Multics software materials and documentation is provided and donated
to Massachusetts Institute of Technology by Group BULL including BULL HN Information Systems Inc.
as a contribution to computer science knowledge.
This donation is made also to give evidence of the common contributions of Massachusetts Institute of Technology,
Bell Laboratories, General Electric, Honeywell Information Systems Inc., Honeywell BULL Inc., Groupe BULL
and BULL HN Information Systems Inc. to the development of this operating system.
Multics development was initiated by Massachusetts Institute of Technology Project MAC (1963-1970),
renamed the MIT Laboratory for Computer Science and Artificial Intelligence in the mid 1970s, under the leadership
of Professor Fernando Jose Corbato. Users consider that Multics provided the best software architecture
for managing computer hardware properly and for executing programs. Many subsequent operating systems
incorporated Multics principles.
Multics was distributed in 1975 to 2000 by Group Bull in Europe , and in the U.S. by Bull HN Information Systems Inc.,
as successor in interest by change in name only to Honeywell Bull Inc. and Honeywell Information Systems Inc. .

                                          -----------------------------------------------------------

Permission to use, copy, modify, and distribute these programs and their documentation for any purpose and without
fee is hereby granted,provided that the below copyright notice and historical background appear in all copies
and that both the copyright notice and historical background and this permission notice appear in supporting
documentation, and that the names of MIT, HIS, BULL or BULL HN not be used in advertising or publicity pertaining
to distribution of the programs without specific prior written permission.
    Copyright 1972 by Massachusetts Institute of Technology and Honeywell Information Systems Inc.
    Copyright 2006 by BULL HN Information Systems Inc.
    Copyright 2006 by Bull SAS
    All Rights Reserved
