ASSEMBLY LISTING OF SEGMENT >special_ldd>online>comp-dir>hyterm.comp_dsm.alm
ASSEMBLED ON:	08/01/81  1343.6 mst Sat
OPTIONS USED:	list
ASSEMBLED BY:	ALM Version  6.4  April 1981
ASSEMBLER CREATED:	07/17/81  1819.2 mst Fri

                                     1  	include	compdv
                                   1-1  	macro	econ
                              1    1-2  itp	bp,e&U-*
                              2    1-3  its	-1,-1
                              3    1-4  use	s.exec
                              4    1-5  e&U:getlp
                              5    1-6  tra	&1
                              6    1-7  use	s.table
                              7    1-8  	&end
                                   1-9
                                  1-10  	macro	dvid.version
                              1   1-11  	maclist	object save
                              2   1-12  	vfd	36/&1
                              3   1-13  	maclist	restore
                              4   1-14  	&end
                                  1-15
                                  1-16  	macro	dvid.devname
                              1   1-17  	maclist	off save
                              2   1-18  	aci	|&1|,&2
                              3   1-19  	maclist	restore
                              4   1-20  	&end
                                  1-21
                                  1-22  	macro	dvid.dvt_r
                              1   1-23  	maclist	object save
                              2   1-24  	zero	&1
                              3   1-25  	maclist	restore
                              4   1-26  	&end
                                  1-27
                                  1-28  	macro	dvid_segdef
                              1   1-29  	   equ	&2.dvt,dvid.&1
                              2   1-30  	   segdef	&2.dvt
                              3   1-31  	&end
                                  1-32
                                  1-33  	macro	dvt.devclass
                              1   1-34  	maclist	off save
                              2   1-35  	aci	|&1|,&2
                              3   1-36  	maclist	restore
                              4   1-37  	&end
                                  1-38
                                  1-39  	macro	dvt.atd_r
                              1   1-40  	maclist	object save
                              2   1-41  	zero	&1
                              3   1-42  	maclist	restore
                              4   1-43  	&end
                                  1-44
                                  1-45  	macro	dvt.outproc
                              1   1-46  	maclist	object save
                              2   1-47  	econ	&1
                              3   1-48  	maclist	restore
                              4   1-49  	&end
                                  1-50
                                  1-51  	macro	dvt.footproc
                              1   1-52  	maclist	object save
                              2   1-53  	econ	&1
                              3   1-54  	maclist	restore
                              4   1-55  	&end
                                  1-56
                                  1-57  	macro	dvt.artproc
                              1   1-58  	maclist	object save
                              2   1-59  	econ	&1
                              3   1-60  	maclist	restore
                              4   1-61  	&end
                                  1-62
                                  1-63  	macro	dvt.inl_min
                              1   1-64  	maclist	object save
                              2   1-65  	vfd	36/&1
                              3   1-66  	maclist	restore
                              4   1-67  	&end
                                  1-68
                                  1-69  	macro	dvt.min_lead
                              1   1-70  	maclist	object save
                              2   1-71  	vfd	36/&1
                              3   1-72  	maclist	restore
                              4   1-73  	&end
                                  1-74
                                  1-75  	macro	dvt.vmt_min
                              1   1-76  	maclist	object save
                              2   1-77  	vfd	36/&1
                              3   1-78  	maclist	restore
                              4   1-79  	&end
                                  1-80
                                  1-81  	macro	dvt.vmb_min
                              1   1-82  	maclist	object save
                              2   1-83  	vfd	36/&1
                              3   1-84  	maclist	restore
                              4   1-85  	&end
                                  1-86
                                  1-87  	macro	dvt.def_vmt
                              1   1-88  	maclist	object save
                              2   1-89  	vfd	36/&1
                              3   1-90  	maclist	restore
                              4   1-91  	&end
                                  1-92
                                  1-93  	macro	dvt.def_vmh
                              1   1-94  	maclist	object save
                              2   1-95  	vfd	36/&1
                              3   1-96  	maclist	restore
                              4   1-97  	&end
                                  1-98
                                  1-99  	macro	dvt.def_vmf
                              1  1-100  	maclist	object save
                              2  1-101  	vfd	36/&1
                              3  1-102  	maclist	restore
                              4  1-103  	&end
                                 1-104
                                 1-105  	macro	dvt.def_vmb
                              1  1-106  	maclist	object save
                              2  1-107  	vfd	36/&1
                              3  1-108  	maclist	restore
                              4  1-109  	&end
                                 1-110
                                 1-111  	macro	dvt.pdw_max
                              1  1-112  	maclist	object save
                              2  1-113  	vfd	36/&1
                              3  1-114  	maclist	restore
                              4  1-115  	&end
                                 1-116
                                 1-117  	macro	dvt.pdl_max
                              1  1-118  	maclist	object save
                              2  1-119  	vfd	36/&1
                              3  1-120  	maclist	restore
                              4  1-121  	&end
                                 1-122
                                 1-123  	macro	dvt.upshift
                              1  1-124  	maclist	object save
                              2  1-125  	vfd	36/&1
                              3  1-126  	maclist	restore
                              4  1-127  	&end
                                 1-128
                                 1-129  	macro	dvt.init_ps
                              1  1-130  	maclist	object save
                              2  1-131  	vfd	36/&1
                              3  1-132  	maclist	restore
                              4  1-133  	&end
                                 1-134
                                 1-135  	macro	dvt.lettersp
                              1  1-136  	maclist	object save
                              2  1-137  	vfd	36/&1
                              3  1-138  	maclist	restore
                              4  1-139  	&end
                                 1-140
                                 1-141  	macro	dvt.max_pages
                              1  1-142  	maclist	object save
                              2  1-143  	vfd	36/&1
                              3  1-144  	maclist	restore
                              4  1-145  	&end
                                 1-146
                                 1-147  	macro	dvt.max_files
                              1  1-148  	maclist	object save
                              2  1-149  	vfd	36/&1
                              3  1-150  	maclist	restore
                              4  1-151  	&end
                                 1-152
                                 1-153  	macro	dvt.init_fam
                              1  1-154  	maclist	object save
                              2  1-155  	vfd	36/&1
                              3  1-156  	maclist	restore
                              4  1-157  	&end
                                 1-158
                                 1-159  	macro	dvt.init_mem
                              1  1-160  	maclist	object save
                              2  1-161  	vfd	36/&1
                              3  1-162  	maclist	restore
                              4  1-163  	&end
                                 1-164
                                 1-165  	macro	dvt.foot_fam
                              1  1-166  	maclist	object save
                              2  1-167  	vfd	36/&1
                              3  1-168  	maclist	restore
                              4  1-169  	&end
                                 1-170
                                 1-171  	macro	dvt.foot_mem
                              1  1-172  	maclist	object save
                              2  1-173  	vfd	36/&1
                              3  1-174  	maclist	restore
                              4  1-175  	&end
                                 1-176
                                 1-177  	macro	dvt.init_family
                              1  1-178  	maclist	off save
                              2  1-179  	aci	|&1|,&2
                              3  1-180  	maclist	restore
                              4  1-181  	&end
                                 1-182
                                 1-183  	macro	dvt.init_member
                              1  1-184  	maclist	off save
                              2  1-185  	aci	|&1|,&2
                              3  1-186  	maclist	restore
                              4  1-187  	&end
                                 1-188
                                 1-189  	macro	dvt.dvc_r
                              1  1-190  	maclist	object save
                              2  1-191  	zero	&1
                              3  1-192  	maclist	restore
                              4  1-193  	&end
                                 1-194
                                 1-195  	macro	dvt.med_sel_tab_r
                              1  1-196  	maclist	object save
                              2  1-197  	zero	&1
                              3  1-198  	maclist	restore
                              4  1-199  	&end
                                 1-200
                                 1-201  	macro	dvt.comment_r
                              1  1-202  	maclist	object save
                              2  1-203  	zero	&1
                              3  1-204  	maclist	restore
                              4  1-205  	&end
                                 1-206
                                 1-207  	macro	dvt.cleanup_r
                              1  1-208  	maclist	object save
                              2  1-209  	zero	&1
                              3  1-210  	maclist	restore
                              4  1-211  	&end
                                 1-212
                                 1-213  	macro	dvt.foot_family
                              1  1-214  	maclist	off save
                              2  1-215  	aci	|&1|,&2
                              3  1-216  	maclist	restore
                              4  1-217  	&end
                                 1-218
                                 1-219  	macro	dvt.foot_member
                              1  1-220  	maclist	off save
                              2  1-221  	aci	|&1|,&2
                              3  1-222  	maclist	restore
                              4  1-223  	&end
                                 1-224
                                 1-225  	macro	dvt.sws
                              1  1-226  	maclist	object save
                              2  1-227  	oct	&1
                              3  1-228  	maclist	restore
                              4  1-229  	&end
                                 1-230
                                 1-231  	macro	dvt.open_mode
                              1  1-232  	maclist	object save
                              2  1-233  	vfd	36/&1
                              3  1-234  	maclist	restore
                              4  1-235  	&end
                                 1-236
                                 1-237  	macro	dvt.recleng
                              1  1-238  	maclist	object save
                              2  1-239  	vfd	36/&1
                              3  1-240  	maclist	restore
                              4  1-241  	&end
                                 1-242
                                 1-243  	macro	dvt.family_ct
                              1  1-244  	maclist	object save
                              2  1-245  	vfd	36/&1
                              3  1-246  	maclist	restore
                              4  1-247  	&end
                                 1-248
                                 1-249  	macro	dvt..member_r
                              1  1-250  	maclist	object save
                              2  1-251  	zero	&1
                              3  1-252  	maclist	restore
                              4  1-253  	&end
                                 1-254
                                 1-255  	macro	dvt..name
                              1  1-256  	maclist	off save
                              2  1-257  	aci	|&1|,&2
                              3  1-258  	maclist	restore
                              4  1-259  	&end
                                 1-260
                                 1-261  	macro	member.count
                              1  1-262  	maclist	object save
                              2  1-263  	vfd	36/&1
                              3  1-264  	maclist	restore
                              4  1-265  	&end
                                 1-266
                                 1-267  	macro	member..font_r
                              1  1-268  	maclist	object save
                              2  1-269  	zero	&1
                              3  1-270  	maclist	restore
                              4  1-271  	&end
                                 1-272
                                 1-273  	macro	member..size_r
                              1  1-274  	maclist	object save
                              2  1-275  	zero	&1
                              3  1-276  	maclist	restore
                              4  1-277  	&end
                                 1-278
                                 1-279  	macro	member..Scale
                              1  1-280  	maclist	object save
                              2  1-281  	dec	&1,&2
                              3  1-282  	maclist	restore
                              4  1-283  	&end
                                 1-284
                                 1-285  	macro	member..name
                              1  1-286  	maclist	off save
                              2  1-287  	aci	|&1|,&2
                              3  1-288  	maclist	restore
                              4  1-289  	&end
                                 1-290
                                 1-291  	macro	med_sel_tab.count
                              1  1-292  	maclist	object save
                              2  1-293  	vfd	36/&1
                              3  1-294  	maclist	restore
                              4  1-295  	&end
                                 1-296
                                 1-297  	macro	med_sel_tab..ref_r
                              1  1-298  	maclist	object save
                              2  1-299  	zero	&1
                              3  1-300  	maclist	restore
                              4  1-301  	&end
                                 1-302
                                 1-303  	macro	family.member_ct
                              1  1-304  	maclist	object save
                              2  1-305  	vfd	36/&1
                              3  1-306  	maclist	restore
                              4  1-307  	&end
                                 1-308
                                 1-309  	macro	font.units_r
                              1  1-310  	maclist	object save
                              2  1-311  	zero	&1
                              3  1-312  	maclist	restore
                              4  1-313  	&end
                                 1-314
                                 1-315  	macro	font.oput_r
                              1  1-316  	maclist	object save
                              2  1-317  	zero	&1
                              3  1-318  	maclist	restore
                              4  1-319  	&end
                                 1-320
                                 1-321  	macro	font.rel_units
                              1  1-322  	maclist	object save
                              2  1-323  	vfd	36/&1
                              3  1-324  	maclist	restore
                              4  1-325  	&end
                                 1-326
                                 1-327  	macro	font.footsep
                              1  1-328  	maclist	object save
                              2  1-329  	aci	&=&1,|&[/&1/&;|&1|&],1
                              3  1-330  	maclist	restore
                              4  1-331  	&end
                                 1-332
                                 1-333  	macro	font.min_spb
                              1  1-334  	maclist	object save
                              2  1-335  	vfd	36/&1
                              3  1-336  	maclist	restore
                              4  1-337  	&end
                                 1-338
                                 1-339  	macro	font.avg_spb
                              1  1-340  	maclist	object save
                              2  1-341  	vfd	36/&1
                              3  1-342  	maclist	restore
                              4  1-343  	&end
                                 1-344
                                 1-345  	macro	font.max_spb
                              1  1-346  	maclist	object save
                              2  1-347  	vfd	36/&1
                              3  1-348  	maclist	restore
                              4  1-349  	&end
                                 1-350
                                 1-351  	macro	units
                              1  1-352  	maclist	&=&2,0&[off&;object&] save
                              2  1-353  	dup	&1
                              3  1-354  	vfd	36/&2
                              4  1-355  	dupend
                              5  1-356  	maclist	restore
                              6  1-357  	&end
                                 1-358
                                 1-359  	macro	oput.data_ct
                              1  1-360  	maclist	object save
                              2  1-361  	vfd	36/&1
                              3  1-362  	maclist	restore
                              4  1-363  	&end
                                 1-364
                                 1-365  	macro	ch
                              1  1-366  	maclist object save
                              2  1-367  	zero	&1,&2
                              3  1-368  	maclist restore
                              4  1-369  	&end
                                 1-370
                                 1-371  	macro	no_ch
                              1  1-372  	maclist off save
                              2  1-373  	dup	&1
                              3  1-374  	dec	0
                              4  1-375  	dupend
                              5  1-376  	maclist restore
                              6  1-377  	&end
                                 1-378
                                 1-379  	macro	sizel.val_ct
                              1  1-380  	maclist	object save
                              2  1-381  	vfd	36/&1
                              3  1-382  	maclist	restore
                              4  1-383  	&end
                                 1-384
                                 1-385  	macro	sizel..val
                              1  1-386  	maclist	object save
                              2  1-387  	vfd	36/&1
                              3  1-388  	maclist	restore
                              4  1-389  	&end
                                 1-390  " BEGIN a compose device table definition segment
                                 1-391  	use	s.table
    000000  aa  052 144 166 164  1-392  	aci	|*dvt|		"marker
                        000000   1-393  	equ	s000000,0
                        000000   1-394  	equ	art000000,0
                        000000   1-395  	equ	dvc000000,0
                        000002   1-396  	equ	.str_out.,2
                        000005   1-397  	equ	.seq_out.,5
                                     2
    000001                           3  dvid.1:
                                     4  	dvid.version	1
    000001  aa   000000 000001
                                     5  	dvid.devname	hyterm,32
                                     6  	dvid.dvt_r	dvt.1
    000012  0a   000052 000000
                                     7
                                     8  	dvid_segdef	1,hyterm
                        000001          	   equ	hyterm.dvt,dvid.1
                        000001          	   segdef	hyterm.dvt
                                     9
                                    10  	dvid_segdef	1,HYTERM
                        000001          	   equ	HYTERM.dvt,dvid.1
                        000001          	   segdef	HYTERM.dvt
                                    11
                                    12  	dvid_segdef	1,diablo1620
                        000001          	   equ	diablo1620.dvt,dvid.1
                        000001          	   segdef	diablo1620.dvt
                                    13
    000013                          14  dvid.2:
                                    15  	dvid.version	1
    000013  aa   000000 000001
                                    16  	dvid.devname	hyterm,32
                                    17  	dvid.dvt_r	dvt.3
    000024  0a   000714 000000
                                    18
                                    19  	dvid_segdef	2,hyterm_draft
                        000013          	   equ	hyterm_draft.dvt,dvid.2
                        000013          	   segdef	hyterm_draft.dvt
                                    20
    000025                          21  dvid.3:
                                    22  	dvid.version	1
    000025  aa   000000 000001
                                    23  	dvid.devname	hyterm,32
                                    24  	dvid.dvt_r	dvt.5
    000036  0a   001566 000000
                                    25
                                    26  	dvid_segdef	3,vhyt
                        000025          	   equ	vhyt.dvt,dvid.3
                        000025          	   segdef	vhyt.dvt
                                    27
    000037                          28  dvid.4:
                                    29  	dvid.version	1
    000037  aa   000000 000001
                                    30  	dvid.devname	hyterm,32
                                    31  	dvid.dvt_r	dvt.7
    000050  0a   002320 000000
                                    32
                                    33  	dvid_segdef	4,nec5525
                        000037          	   equ	nec5525.dvt,dvid.4
                        000037          	   segdef	nec5525.dvt
                                    34
                                    35  	dvid_segdef	4,spinwriter
                        000037          	   equ	spinwriter.dvt,dvid.4
                        000037          	   segdef	spinwriter.dvt
    000051  aa   000000 0110 03     36  	even
    000052                          37  dvt.1:
                                    38  	dvt.devclass	diablo,32
                                    39  	dvt.outproc	hyterm_writer_$hyterm_writer_
    000062  aa   200000 000041
    000063  aa   052342 000000
    000064  aa   077777 000043
    000065  aa   777777 000000
    052424  aa  7 00046 2721 20
    052425  4a  4 00010 7101 20
                                    40  	dvt.footproc	hyterm_writer_$footproc
    000066  aa   200000 000041
    000067  aa   052340 000000
    000070  aa   077777 000043
    000071  aa   777777 000000
    052426  aa  7 00046 2721 20
    052427  4a  4 00012 7101 20
                                    41  	dvt.artproc	hyterm_writer_$artproc
    000072  aa   200000 000041
    000073  aa   052336 000000
    000074  aa   077777 000043
    000075  aa   777777 000000
    052430  aa  7 00046 2721 20
    052431  4a  4 00014 7101 20
                                    42  	dvt.inl_min	1200
    000076  aa   000000 002260
                                    43  	dvt.min_lead	1500
    000077  aa   000000 002734
                                    44  	dvt.vmt_min	0
    000100  aa   000000 000000
                                    45  	dvt.vmb_min	0
    000101  aa   000000 000000
                                    46  	dvt.def_vmt	48000
    000102  aa   000000 135600
                                    47  	dvt.def_vmh	24000
    000103  aa   000000 056700
                                    48  	dvt.def_vmf	24000
    000104  aa   000000 056700
                                    49  	dvt.def_vmb	48000
    000105  aa   000000 135600
                                    50  	dvt.pdw_max	950400
    000106  aa   000003 500200
                                    51  	dvt.pdl_max	-1
    000107  aa   777777 777777
                                    52  	dvt.upshift	0
    000110  aa   000000 000000
                                    53  	dvt.init_ps	7200
    000111  aa   000000 016040
                                    54  	dvt.lettersp	1
    000112  aa   000000 000001
                                    55  	dvt.max_pages	-1
    000113  aa   777777 777777
                                    56  	dvt.max_files	-1
    000114  aa   777777 777777
                                    57  	dvt.init_fam	5
    000115  aa   000000 000005
                                    58  	dvt.init_mem	12
    000116  aa   000000 000014
                                    59  	dvt.foot_fam	5
    000117  aa   000000 000005
                                    60  	dvt.foot_mem	12
    000120  aa   000000 000014
                                    61  	dvt.init_family	pica10,32
                                    62  	dvt.init_member	/m,32
                                    63  	dvt.atd_r		s004127
    000141  0a   052417 000000
                                    64  	dvt.dvc_r		dvc000000
    000142  aa   000000 000000
                                    65  	dvt.med_sel_tab_r	med_sel.1
    000143  0a   000707 000000
                                    66  	dvt.comment_r	s004062
    000144  0a   052352 000000
                                    67  	dvt.cleanup_r	s004057
    000145  0a   052347 000000
                                    68  	dvt.foot_family	pica10,32
                                    69  	dvt.foot_member	/m,32
                                    70  	dvt.sws		400000000000
    000166  aa   400000 000000
                                    71  	dvt.open_mode	.seq_out.
    000167  aa   000000 000005
                                    72  	dvt.recleng	-1
    000170  aa   777777 777777
                                    73  	dvt.family_ct	37
    000171  aa   000000 000045
                                    74  	dvt..member_r	mem.1
    000172  0a   003161 000000
                                    75  	dvt..name		centuryschoolbook,32
                                    76  	dvt..member_r	mem.1
    000203  0a   003161 000000
                                    77  	dvt..name		cs,32
                                    78  	dvt..member_r	mem.1
    000214  0a   003161 000000
                                    79  	dvt..name		helvetica,32
                                    80  	dvt..member_r	mem.1
    000225  0a   003161 000000
                                    81  	dvt..name		h,32
                                    82  	dvt..member_r	mem.2
    000236  0a   003446 000000
                                    83  	dvt..name		pica10,32
                                    84  	dvt..member_r	mem.3
    000247  0a   003763 000000
                                    85  	dvt..name		ascii,32
                                    86  	dvt..member_r	mem.3
    000260  0a   003763 000000
                                    87  	dvt..name		l4font,32
                                    88  	dvt..member_r	mem.3
    000271  0a   003763 000000
                                    89  	dvt..name		l3exact,32
                                    90  	dvt..member_r	mem.3
    000302  0a   003763 000000
                                    91  	dvt..name		l4exact,32
                                    92  	dvt..member_r	mem.3
    000313  0a   003763 000000
                                    93  	dvt..name		text,32
                                    94  	dvt..member_r	mem.3
    000324  0a   003763 000000
                                    95  	dvt..name		footnote,32
                                    96  	dvt..member_r	mem.3
    000335  0a   003763 000000
                                    97  	dvt..name		APL,32
                                    98  	dvt..member_r	mem.3
    000346  0a   003763 000000
                                    99  	dvt..name		CSR,32
                                   100  	dvt..member_r	mem.3
    000357  0a   003763 000000
                                   101  	dvt..name		HR,32
                                   102  	dvt..member_r	mem.4
    000370  0a   004000 000000
                                   103  	dvt..name		l0font,32
                                   104  	dvt..member_r	mem.4
    000401  0a   004000 000000
                                   105  	dvt..name		l3font,32
                                   106  	dvt..member_r	mem.4
    000412  0a   004000 000000
                                   107  	dvt..name		ASCII,32
                                   108  	dvt..member_r	mem.5
    000423  0a   004015 000000
                                   109  	dvt..name		bold,32
                                   110  	dvt..member_r	mem.5
    000434  0a   004015 000000
                                   111  	dvt..name		CSBR,32
                                   112  	dvt..member_r	mem.5
    000445  0a   004015 000000
                                   113  	dvt..name		HBR,32
                                   114  	dvt..member_r	mem.5
    000456  0a   004015 000000
                                   115  	dvt..name		HBBl,32
                                   116  	dvt..member_r	mem.6
    000467  0a   004032 000000
                                   117  	dvt..name		italic,32
                                   118  	dvt..member_r	mem.6
    000500  0a   004032 000000
                                   119  	dvt..name		l2font,32
                                   120  	dvt..member_r	mem.6
    000511  0a   004032 000000
                                   121  	dvt..name		l1exact,32
                                   122  	dvt..member_r	mem.6
    000522  0a   004032 000000
                                   123  	dvt..name		l2exact,32
                                   124  	dvt..member_r	mem.6
    000533  0a   004032 000000
                                   125  	dvt..name		CSI,32
                                   126  	dvt..member_r	mem.6
    000544  0a   004032 000000
                                   127  	dvt..name		HmI,32
                                   128  	dvt..member_r	mem.6
    000555  0a   004032 000000
                                   129  	dvt..name		ascii_,32
                                   130  	dvt..member_r	mem.7
    000566  0a   004047 000000
                                   131  	dvt..name		l1font,32
                                   132  	dvt..member_r	mem.7
    000577  0a   004047 000000
                                   133  	dvt..name		ASCII_,32
                                   134  	dvt..member_r	mem.8
    000610  0a   004064 000000
                                   135  	dvt..name		CSBI,32
                                   136  	dvt..member_r	mem.8
    000621  0a   004064 000000
                                   137  	dvt..name		HBI,32
                                   138  	dvt..member_r	mem.9
    000632  0a   004101 000000
                                   139  	dvt..name		pica12,32
                                   140  	dvt..member_r	mem.10
    000643  0a   004416 000000
                                   141  	dvt..name		pica12,32
                                   142  	dvt..member_r	mem.11
    000654  0a   004433 000000
                                   143  	dvt..name		pica12_,32
                                   144  	dvt..member_r	mem.12
    000665  0a   004450 000000
                                   145  	dvt..name		PICA12,32
                                   146  	dvt..member_r	mem.13
    000676  0a   004465 000000
                                   147  	dvt..name		PICA12_,32
    000707                         148  med_sel.1:
                                   149  	med_sel_tab.count	3
    000707  aa   000000 000003
                                   150  	med_sel_tab..ref_r	s004121	1
    000710  0a   052411 000000
                                   151  	med_sel_tab..ref_r	s004123	2
    000711  0a   052413 000000
                                   152  	med_sel_tab..ref_r	s004125	3
    000712  0a   052415 000000
    000713  aa   000000 0110 03    153  	even
    000714                         154  dvt.3:
                                   155  	dvt.devclass	diablo,32
                                   156  	dvt.outproc	hyterm_writer_$hyterm_writer_
    000724  aa   200000 000041
    000725  aa   051506 000000
    000726  aa   077777 000043
    000727  aa   777777 000000
    052432  aa  7 00046 2721 20
    052433  4a  4 00010 7101 20
                                   157  	dvt.footproc	hyterm_writer_$footproc
    000730  aa   200000 000041
    000731  aa   051504 000000
    000732  aa   077777 000043
    000733  aa   777777 000000
    052434  aa  7 00046 2721 20
    052435  4a  4 00012 7101 20
                                   158  	dvt.artproc	hyterm_writer_$artproc
    000734  aa   200000 000041
    000735  aa   051502 000000
    000736  aa   077777 000043
    000737  aa   777777 000000
    052436  aa  7 00046 2721 20
    052437  4a  4 00014 7101 20
                                   159  	dvt.inl_min	1200
    000740  aa   000000 002260
                                   160  	dvt.min_lead	1500
    000741  aa   000000 002734
                                   161  	dvt.vmt_min	0
    000742  aa   000000 000000
                                   162  	dvt.vmb_min	0
    000743  aa   000000 000000
                                   163  	dvt.def_vmt	48000
    000744  aa   000000 135600
                                   164  	dvt.def_vmh	24000
    000745  aa   000000 056700
                                   165  	dvt.def_vmf	24000
    000746  aa   000000 056700
                                   166  	dvt.def_vmb	48000
    000747  aa   000000 135600
                                   167  	dvt.pdw_max	950400
    000750  aa   000003 500200
                                   168  	dvt.pdl_max	-1
    000751  aa   777777 777777
                                   169  	dvt.upshift	0
    000752  aa   000000 000000
                                   170  	dvt.init_ps	7200
    000753  aa   000000 016040
                                   171  	dvt.lettersp	1
    000754  aa   000000 000001
                                   172  	dvt.max_pages	-1
    000755  aa   777777 777777
                                   173  	dvt.max_files	-1
    000756  aa   777777 777777
                                   174  	dvt.init_fam	5
    000757  aa   000000 000005
                                   175  	dvt.init_mem	12
    000760  aa   000000 000014
                                   176  	dvt.foot_fam	5
    000761  aa   000000 000005
                                   177  	dvt.foot_mem	12
    000762  aa   000000 000014
                                   178  	dvt.init_family	pica10,32
                                   179  	dvt.init_member	/m,32
                                   180  	dvt.atd_r		s004127
    001003  0a   052417 000000
                                   181  	dvt.dvc_r		dvc000000
    001004  aa   000000 000000
                                   182  	dvt.med_sel_tab_r	med_sel.3
    001005  0a   001562 000000
                                   183  	dvt.comment_r	s004062
    001006  0a   052352 000000
                                   184  	dvt.cleanup_r	s004057
    001007  0a   052347 000000
                                   185  	dvt.foot_family	pica10,32
                                   186  	dvt.foot_member	/m,32
                                   187  	dvt.sws		400000000000
    001030  aa   400000 000000
                                   188  	dvt.open_mode	.seq_out.
    001031  aa   000000 000005
                                   189  	dvt.recleng	-1
    001032  aa   777777 777777
                                   190  	dvt.family_ct	38
    001033  aa   000000 000046
                                   191  	dvt..member_r	mem.1
    001034  0a   003161 000000
                                   192  	dvt..name		centuryschoolbook,32
                                   193  	dvt..member_r	mem.1
    001045  0a   003161 000000
                                   194  	dvt..name		cs,32
                                   195  	dvt..member_r	mem.1
    001056  0a   003161 000000
                                   196  	dvt..name		helvetica,32
                                   197  	dvt..member_r	mem.1
    001067  0a   003161 000000
                                   198  	dvt..name		h,32
                                   199  	dvt..member_r	mem.2
    001100  0a   003446 000000
                                   200  	dvt..name		pica10,32
                                   201  	dvt..member_r	mem.2
    001111  0a   003446 000000
                                   202  	dvt..name		pica,32
                                   203  	dvt..member_r	mem.3
    001122  0a   003763 000000
                                   204  	dvt..name		text,32
                                   205  	dvt..member_r	mem.3
    001133  0a   003763 000000
                                   206  	dvt..name		footnote,32
                                   207  	dvt..member_r	mem.3
    001144  0a   003763 000000
                                   208  	dvt..name		APL,32
                                   209  	dvt..member_r	mem.3
    001155  0a   003763 000000
                                   210  	dvt..name		CSR,32
                                   211  	dvt..member_r	mem.3
    001166  0a   003763 000000
                                   212  	dvt..name		HR,32
                                   213  	dvt..member_r	mem.3
    001177  0a   003763 000000
                                   214  	dvt..name		ascii,32
                                   215  	dvt..member_r	mem.4
    001210  0a   004000 000000
                                   216  	dvt..name		l0font,32
                                   217  	dvt..member_r	mem.4
    001221  0a   004000 000000
                                   218  	dvt..name		ASCII,32
                                   219  	dvt..member_r	mem.5
    001232  0a   004015 000000
                                   220  	dvt..name		bold,32
                                   221  	dvt..member_r	mem.5
    001243  0a   004015 000000
                                   222  	dvt..name		CSBR,32
                                   223  	dvt..member_r	mem.5
    001254  0a   004015 000000
                                   224  	dvt..name		HBR,32
                                   225  	dvt..member_r	mem.5
    001265  0a   004015 000000
                                   226  	dvt..name		HBBl,32
                                   227  	dvt..member_r	mem.5
    001276  0a   004015 000000
                                   228  	dvt..name		l4font,32
                                   229  	dvt..member_r	mem.5
    001307  0a   004015 000000
                                   230  	dvt..name		l3exact,32
                                   231  	dvt..member_r	mem.5
    001320  0a   004015 000000
                                   232  	dvt..name		l4exact,32
                                   233  	dvt..member_r	mem.6
    001331  0a   004032 000000
                                   234  	dvt..name		italic,32
                                   235  	dvt..member_r	mem.6
    001342  0a   004032 000000
                                   236  	dvt..name		l2font,32
                                   237  	dvt..member_r	mem.6
    001353  0a   004032 000000
                                   238  	dvt..name		l1exact,32
                                   239  	dvt..member_r	mem.6
    001364  0a   004032 000000
                                   240  	dvt..name		l2exact,32
                                   241  	dvt..member_r	mem.6
    001375  0a   004032 000000
                                   242  	dvt..name		CSI,32
                                   243  	dvt..member_r	mem.6
    001406  0a   004032 000000
                                   244  	dvt..name		HmI,32
                                   245  	dvt..member_r	mem.6
    001417  0a   004032 000000
                                   246  	dvt..name		ascii_,32
                                   247  	dvt..member_r	mem.7
    001430  0a   004047 000000
                                   248  	dvt..name		l1font,32
                                   249  	dvt..member_r	mem.7
    001441  0a   004047 000000
                                   250  	dvt..name		ASCII_,32
                                   251  	dvt..member_r	mem.8
    001452  0a   004064 000000
                                   252  	dvt..name		CSBI,32
                                   253  	dvt..member_r	mem.8
    001463  0a   004064 000000
                                   254  	dvt..name		HBI,32
                                   255  	dvt..member_r	mem.8
    001474  0a   004064 000000
                                   256  	dvt..name		l3font,32
                                   257  	dvt..member_r	mem.9
    001505  0a   004101 000000
                                   258  	dvt..name		pica12,32
                                   259  	dvt..member_r	mem.10
    001516  0a   004416 000000
                                   260  	dvt..name		pica12,32
                                   261  	dvt..member_r	mem.11
    001527  0a   004433 000000
                                   262  	dvt..name		pica12_,32
                                   263  	dvt..member_r	mem.12
    001540  0a   004450 000000
                                   264  	dvt..name		PICA12,32
                                   265  	dvt..member_r	mem.13
    001551  0a   004465 000000
                                   266  	dvt..name		PICA12_,32
    001562                         267  med_sel.3:
                                   268  	med_sel_tab.count	3
    001562  aa   000000 000003
                                   269  	med_sel_tab..ref_r	s004121	1
    001563  0a   052411 000000
                                   270  	med_sel_tab..ref_r	s004123	2
    001564  0a   052413 000000
                                   271  	med_sel_tab..ref_r	s004125	3
    001565  0a   052415 000000
                                   272  	even
    001566                         273  dvt.5:
                                   274  	dvt.devclass	photocomp,32
                                   275  	dvt.outproc	hyterm_writer_$hyterm_writer_
    001576  aa   200000 000041
    001577  aa   050642 000000
    001600  aa   077777 000043
    001601  aa   777777 000000
    052440  aa  7 00046 2721 20
    052441  4a  4 00010 7101 20
                                   276  	dvt.footproc	hyterm_writer_$footproc
    001602  aa   200000 000041
    001603  aa   050640 000000
    001604  aa   077777 000043
    001605  aa   777777 000000
    052442  aa  7 00046 2721 20
    052443  4a  4 00012 7101 20
                                   277  	dvt.artproc	hyterm_writer_$artproc
    001606  aa   200000 000041
    001607  aa   050636 000000
    001610  aa   077777 000043
    001611  aa   777777 000000
    052444  aa  7 00046 2721 20
    052445  4a  4 00014 7101 20
                                   278  	dvt.inl_min	1200
    001612  aa   000000 002260
                                   279  	dvt.min_lead	1500
    001613  aa   000000 002734
                                   280  	dvt.vmt_min	0
    001614  aa   000000 000000
                                   281  	dvt.vmb_min	0
    001615  aa   000000 000000
                                   282  	dvt.def_vmt	48000
    001616  aa   000000 135600
                                   283  	dvt.def_vmh	24000
    001617  aa   000000 056700
                                   284  	dvt.def_vmf	24000
    001620  aa   000000 056700
                                   285  	dvt.def_vmb	48000
    001621  aa   000000 135600
                                   286  	dvt.pdw_max	950400
    001622  aa   000003 500200
                                   287  	dvt.pdl_max	-1
    001623  aa   777777 777777
                                   288  	dvt.upshift	0
    001624  aa   000000 000000
                                   289  	dvt.init_ps	7200
    001625  aa   000000 016040
                                   290  	dvt.lettersp	1
    001626  aa   000000 000001
                                   291  	dvt.max_pages	-1
    001627  aa   777777 777777
                                   292  	dvt.max_files	-1
    001630  aa   777777 777777
                                   293  	dvt.init_fam	3
    001631  aa   000000 000003
                                   294  	dvt.init_mem	1
    001632  aa   000000 000001
                                   295  	dvt.foot_fam	3
    001633  aa   000000 000003
                                   296  	dvt.foot_mem	1
    001634  aa   000000 000001
                                   297  	dvt.init_family	CSR,32
                                   298  	dvt.init_member	,32
                                   299  	dvt.atd_r		s004127
    001655  0a   052417 000000
                                   300  	dvt.dvc_r		dvc000000
    001656  aa   000000 000000
                                   301  	dvt.med_sel_tab_r	med_sel.5
    001657  0a   002313 000000
                                   302  	dvt.comment_r	s004062
    001660  0a   052352 000000
                                   303  	dvt.cleanup_r	s004057
    001661  0a   052347 000000
                                   304  	dvt.foot_family	CSR,32
                                   305  	dvt.foot_member	,32
                                   306  	dvt.sws		400000000000
    001702  aa   400000 000000
                                   307  	dvt.open_mode	.seq_out.
    001703  aa   000000 000005
                                   308  	dvt.recleng	-1
    001704  aa   777777 777777
                                   309  	dvt.family_ct	29
    001705  aa   000000 000035
                                   310  	dvt..member_r	mem.27
    001706  0a   004502 000000
                                   311  	dvt..name		centuryschoolbook,32
                                   312  	dvt..member_r	mem.27
    001717  0a   004502 000000
                                   313  	dvt..name		cs,32
                                   314  	dvt..member_r	mem.28
    001730  0a   004767 000000
                                   315  	dvt..name		CSR,32
                                   316  	dvt..member_r	mem.28
    001741  0a   004767 000000
                                   317  	dvt..name		HR,32
                                   318  	dvt..member_r	mem.28
    001752  0a   004767 000000
                                   319  	dvt..name		text,32
                                   320  	dvt..member_r	mem.28
    001763  0a   004767 000000
                                   321  	dvt..name		l4font,32
                                   322  	dvt..member_r	mem.28
    001774  0a   004767 000000
                                   323  	dvt..name		footnote,32
                                   324  	dvt..member_r	mem.29
    002005  0a   005004 000000
                                   325  	dvt..name		l0font,32
                                   326  	dvt..member_r	mem.29
    002016  0a   005004 000000
                                   327  	dvt..name		l3font,32
                                   328  	dvt..member_r	mem.29
    002027  0a   005004 000000
                                   329  	dvt..name		bold,32
                                   330  	dvt..member_r	mem.29
    002040  0a   005004 000000
                                   331  	dvt..name		CSBR,32
                                   332  	dvt..member_r	mem.29
    002051  0a   005004 000000
                                   333  	dvt..name		HBR,32
                                   334  	dvt..member_r	mem.29
    002062  0a   005004 000000
                                   335  	dvt..name		HBBl,32
                                   336  	dvt..member_r	mem.30
    002073  0a   005021 000000
                                   337  	dvt..name		italic,32
                                   338  	dvt..member_r	mem.30
    002104  0a   005021 000000
                                   339  	dvt..name		l2font,32
                                   340  	dvt..member_r	mem.30
    002115  0a   005021 000000
                                   341  	dvt..name		CSI,32
                                   342  	dvt..member_r	mem.30
    002126  0a   005021 000000
                                   343  	dvt..name		HmI,32
                                   344  	dvt..member_r	mem.31
    002137  0a   005036 000000
                                   345  	dvt..name		l1font,32
                                   346  	dvt..member_r	mem.31
    002150  0a   005036 000000
                                   347  	dvt..name		CSBI,32
                                   348  	dvt..member_r	mem.31
    002161  0a   005036 000000
                                   349  	dvt..name		HBI,32
                                   350  	dvt..member_r	mem.9
    002172  0a   004101 000000
                                   351  	dvt..name		pica,32
                                   352  	dvt..member_r	mem.10
    002203  0a   004416 000000
                                   353  	dvt..name		pica12,32
                                   354  	dvt..member_r	mem.10
    002214  0a   004416 000000
                                   355  	dvt..name		ascii,32
                                   356  	dvt..member_r	mem.11
    002225  0a   004433 000000
                                   357  	dvt..name		pica12_,32
                                   358  	dvt..member_r	mem.11
    002236  0a   004433 000000
                                   359  	dvt..name		ascii_,32
                                   360  	dvt..member_r	mem.12
    002247  0a   004450 000000
                                   361  	dvt..name		PICA12,32
                                   362  	dvt..member_r	mem.12
    002260  0a   004450 000000
                                   363  	dvt..name		ASCII,32
                                   364  	dvt..member_r	mem.13
    002271  0a   004465 000000
                                   365  	dvt..name		PICA12_,32
                                   366  	dvt..member_r	mem.13
    002302  0a   004465 000000
                                   367  	dvt..name		ASCII_,32
    002313                         368  med_sel.5:
                                   369  	med_sel_tab.count	3
    002313  aa   000000 000003
                                   370  	med_sel_tab..ref_r	s000000	1
    002314  aa   000000 000000
                                   371  	med_sel_tab..ref_r	s004123	2
    002315  0a   052413 000000
                                   372  	med_sel_tab..ref_r	s004125	3
    002316  0a   052415 000000
    002317  aa   000000 0110 03    373  	even
    002320                         374  dvt.7:
                                   375  	dvt.devclass	diablo,32
                                   376  	dvt.outproc	hyterm_writer_$hyterm_writer_
    002330  aa   200000 000041
    002331  aa   050116 000000
    002332  aa   077777 000043
    002333  aa   777777 000000
    052446  aa  7 00046 2721 20
    052447  4a  4 00010 7101 20
                                   377  	dvt.footproc	hyterm_writer_$footproc
    002334  aa   200000 000041
    002335  aa   050114 000000
    002336  aa   077777 000043
    002337  aa   777777 000000
    052450  aa  7 00046 2721 20
    052451  4a  4 00012 7101 20
                                   378  	dvt.artproc	hyterm_writer_$artproc
    002340  aa   200000 000041
    002341  aa   050112 000000
    002342  aa   077777 000043
    002343  aa   777777 000000
    052452  aa  7 00046 2721 20
    052453  4a  4 00014 7101 20
                                   379  	dvt.inl_min	1200
    002344  aa   000000 002260
                                   380  	dvt.min_lead	1500
    002345  aa   000000 002734
                                   381  	dvt.vmt_min	0
    002346  aa   000000 000000
                                   382  	dvt.vmb_min	0
    002347  aa   000000 000000
                                   383  	dvt.def_vmt	48000
    002350  aa   000000 135600
                                   384  	dvt.def_vmh	24000
    002351  aa   000000 056700
                                   385  	dvt.def_vmf	24000
    002352  aa   000000 056700
                                   386  	dvt.def_vmb	48000
    002353  aa   000000 135600
                                   387  	dvt.pdw_max	950400
    002354  aa   000003 500200
                                   388  	dvt.pdl_max	-1
    002355  aa   777777 777777
                                   389  	dvt.upshift	0
    002356  aa   000000 000000
                                   390  	dvt.init_ps	7200
    002357  aa   000000 016040
                                   391  	dvt.lettersp	1
    002360  aa   000000 000001
                                   392  	dvt.max_pages	-1
    002361  aa   777777 777777
                                   393  	dvt.max_files	-1
    002362  aa   777777 777777
                                   394  	dvt.init_fam	13
    002363  aa   000000 000015
                                   395  	dvt.init_mem	1
    002364  aa   000000 000001
                                   396  	dvt.foot_fam	13
    002365  aa   000000 000015
                                   397  	dvt.foot_mem	1
    002366  aa   000000 000001
                                   398  	dvt.init_family	CSR,32
                                   399  	dvt.init_member	,32
                                   400  	dvt.atd_r		s004127
    002407  0a   052417 000000
                                   401  	dvt.dvc_r		dvc000000
    002410  aa   000000 000000
                                   402  	dvt.med_sel_tab_r	med_sel.7
    002411  0a   003155 000000
                                   403  	dvt.comment_r	s004062
    002412  0a   052352 000000
                                   404  	dvt.cleanup_r	s004057
    002413  0a   052347 000000
                                   405  	dvt.foot_family	CSR,32
                                   406  	dvt.foot_member	,32
                                   407  	dvt.sws		400000000000
    002434  aa   400000 000000
                                   408  	dvt.open_mode	.seq_out.
    002435  aa   000000 000005
                                   409  	dvt.recleng	-1
    002436  aa   777777 777777
                                   410  	dvt.family_ct	37
    002437  aa   000000 000045
                                   411  	dvt..member_r	mem.1
    002440  0a   003161 000000
                                   412  	dvt..name		centuryschoolbook,32
                                   413  	dvt..member_r	mem.1
    002451  0a   003161 000000
                                   414  	dvt..name		cs,32
                                   415  	dvt..member_r	mem.1
    002462  0a   003161 000000
                                   416  	dvt..name		helvetica,32
                                   417  	dvt..member_r	mem.1
    002473  0a   003161 000000
                                   418  	dvt..name		h,32
                                   419  	dvt..member_r	mem.2
    002504  0a   003446 000000
                                   420  	dvt..name		pica10,32
                                   421  	dvt..member_r	mem.3
    002515  0a   003763 000000
                                   422  	dvt..name		ascii,32
                                   423  	dvt..member_r	mem.3
    002526  0a   003763 000000
                                   424  	dvt..name		l4font,32
                                   425  	dvt..member_r	mem.3
    002537  0a   003763 000000
                                   426  	dvt..name		l3exact,32
                                   427  	dvt..member_r	mem.3
    002550  0a   003763 000000
                                   428  	dvt..name		l4exact,32
                                   429  	dvt..member_r	mem.3
    002561  0a   003763 000000
                                   430  	dvt..name		text,32
                                   431  	dvt..member_r	mem.3
    002572  0a   003763 000000
                                   432  	dvt..name		footnote,32
                                   433  	dvt..member_r	mem.3
    002603  0a   003763 000000
                                   434  	dvt..name		APL,32
                                   435  	dvt..member_r	mem.3
    002614  0a   003763 000000
                                   436  	dvt..name		CSR,32
                                   437  	dvt..member_r	mem.3
    002625  0a   003763 000000
                                   438  	dvt..name		HR,32
                                   439  	dvt..member_r	mem.4
    002636  0a   004000 000000
                                   440  	dvt..name		l0font,32
                                   441  	dvt..member_r	mem.4
    002647  0a   004000 000000
                                   442  	dvt..name		l3font,32
                                   443  	dvt..member_r	mem.4
    002660  0a   004000 000000
                                   444  	dvt..name		ASCII,32
                                   445  	dvt..member_r	mem.5
    002671  0a   004015 000000
                                   446  	dvt..name		bold,32
                                   447  	dvt..member_r	mem.5
    002702  0a   004015 000000
                                   448  	dvt..name		CSBR,32
                                   449  	dvt..member_r	mem.5
    002713  0a   004015 000000
                                   450  	dvt..name		HBR,32
                                   451  	dvt..member_r	mem.5
    002724  0a   004015 000000
                                   452  	dvt..name		HBBl,32
                                   453  	dvt..member_r	mem.6
    002735  0a   004032 000000
                                   454  	dvt..name		italic,32
                                   455  	dvt..member_r	mem.6
    002746  0a   004032 000000
                                   456  	dvt..name		l2font,32
                                   457  	dvt..member_r	mem.6
    002757  0a   004032 000000
                                   458  	dvt..name		l1exact,32
                                   459  	dvt..member_r	mem.6
    002770  0a   004032 000000
                                   460  	dvt..name		l2exact,32
                                   461  	dvt..member_r	mem.6
    003001  0a   004032 000000
                                   462  	dvt..name		CSI,32
                                   463  	dvt..member_r	mem.6
    003012  0a   004032 000000
                                   464  	dvt..name		HmI,32
                                   465  	dvt..member_r	mem.6
    003023  0a   004032 000000
                                   466  	dvt..name		ascii_,32
                                   467  	dvt..member_r	mem.7
    003034  0a   004047 000000
                                   468  	dvt..name		l1font,32
                                   469  	dvt..member_r	mem.7
    003045  0a   004047 000000
                                   470  	dvt..name		ASCII_,32
                                   471  	dvt..member_r	mem.8
    003056  0a   004064 000000
                                   472  	dvt..name		CSBI,32
                                   473  	dvt..member_r	mem.8
    003067  0a   004064 000000
                                   474  	dvt..name		HBI,32
                                   475  	dvt..member_r	mem.9
    003100  0a   004101 000000
                                   476  	dvt..name		pica12,32
                                   477  	dvt..member_r	mem.10
    003111  0a   004416 000000
                                   478  	dvt..name		pica12,32
                                   479  	dvt..member_r	mem.11
    003122  0a   004433 000000
                                   480  	dvt..name		pica12_,32
                                   481  	dvt..member_r	mem.12
    003133  0a   004450 000000
                                   482  	dvt..name		PICA12,32
                                   483  	dvt..member_r	mem.13
    003144  0a   004465 000000
                                   484  	dvt..name		PICA12_,32
    003155                         485  med_sel.7:
                                   486  	med_sel_tab.count	3
    003155  aa   000000 000003
                                   487  	med_sel_tab..ref_r	s004121	1
    003156  0a   052411 000000
                                   488  	med_sel_tab..ref_r	s004123	2
    003157  0a   052413 000000
                                   489  	med_sel_tab..ref_r	s004125	3
    003160  0a   052415 000000
    003161                         490  mem.1:
                                   491  	member.count	15
    003161  aa   000000 000017
                                   492  	member..font_r	f.1
    003162  0a   005053 000000
                                   493  	member..size_r	size.1
    003163  0a   046646 000000
                                   494  	member..Scale	100000000,100000000
    003164  aa   000575 360400
    003165  aa   000575 360400
                                   495  	member..name	/,32
                                   496  	member..font_r	f.4
    003176  0a   005100 000000
                                   497  	member..size_r	size.1
    003177  0a   046646 000000
                                   498  	member..Scale	100000000,100000000
    003200  aa   000575 360400
    003201  aa   000575 360400
                                   499  	member..name	/b,32
                                   500  	member..font_r	f.7
    003212  0a   005125 000000
                                   501  	member..size_r	size.1
    003213  0a   046646 000000
                                   502  	member..Scale	100000000,100000000
    003214  aa   000575 360400
    003215  aa   000575 360400
                                   503  	member..name	/bi,32
                                   504  	member..font_r	f.4
    003226  0a   005100 000000
                                   505  	member..size_r	size.1
    003227  0a   046646 000000
                                   506  	member..Scale	100000000,100000000
    003230  aa   000575 360400
    003231  aa   000575 360400
                                   507  	member..name	/bold,32
                                   508  	member..font_r	f.7
    003242  0a   005125 000000
                                   509  	member..size_r	size.1
    003243  0a   046646 000000
                                   510  	member..Scale	100000000,100000000
    003244  aa   000575 360400
    003245  aa   000575 360400
                                   511  	member..name	/bolditalic,32
                                   512  	member..font_r	f.4
    003256  0a   005100 000000
                                   513  	member..size_r	size.1
    003257  0a   046646 000000
                                   514  	member..Scale	100000000,100000000
    003260  aa   000575 360400
    003261  aa   000575 360400
                                   515  	member..name	/boldroman,32
                                   516  	member..font_r	f.4
    003272  0a   005100 000000
                                   517  	member..size_r	size.1
    003273  0a   046646 000000
                                   518  	member..Scale	100000000,100000000
    003274  aa   000575 360400
    003275  aa   000575 360400
                                   519  	member..name	/br,32
                                   520  	member..font_r	f.5
    003306  0a   005107 000000
                                   521  	member..size_r	size.1
    003307  0a   046646 000000
                                   522  	member..Scale	100000000,100000000
    003310  aa   000575 360400
    003311  aa   000575 360400
                                   523  	member..name	/i,32
                                   524  	member..font_r	f.5
    003322  0a   005107 000000
                                   525  	member..size_r	size.1
    003323  0a   046646 000000
                                   526  	member..Scale	100000000,100000000
    003324  aa   000575 360400
    003325  aa   000575 360400
                                   527  	member..name	/italic,32
                                   528  	member..font_r	f.1
    003336  0a   005053 000000
                                   529  	member..size_r	size.1
    003337  0a   046646 000000
                                   530  	member..Scale	100000000,100000000
    003340  aa   000575 360400
    003341  aa   000575 360400
                                   531  	member..name	/m,32
                                   532  	member..font_r	f.1
    003352  0a   005053 000000
                                   533  	member..size_r	size.1
    003353  0a   046646 000000
                                   534  	member..Scale	100000000,100000000
    003354  aa   000575 360400
    003355  aa   000575 360400
                                   535  	member..name	/medium,32
                                   536  	member..font_r	f.5
    003366  0a   005107 000000
                                   537  	member..size_r	size.1
    003367  0a   046646 000000
                                   538  	member..Scale	100000000,100000000
    003370  aa   000575 360400
    003371  aa   000575 360400
                                   539  	member..name	/mediumitalic,32
                                   540  	member..font_r	f.5
    003402  0a   005107 000000
                                   541  	member..size_r	size.1
    003403  0a   046646 000000
                                   542  	member..Scale	100000000,100000000
    003404  aa   000575 360400
    003405  aa   000575 360400
                                   543  	member..name	/mi,32
                                   544  	member..font_r	f.1
    003416  0a   005053 000000
                                   545  	member..size_r	size.1
    003417  0a   046646 000000
                                   546  	member..Scale	100000000,100000000
    003420  aa   000575 360400
    003421  aa   000575 360400
                                   547  	member..name	/r,32
                                   548  	member..font_r	f.1
    003432  0a   005053 000000
                                   549  	member..size_r	size.1
    003433  0a   046646 000000
                                   550  	member..Scale	100000000,100000000
    003434  aa   000575 360400
    003435  aa   000575 360400
                                   551  	member..name	/roman,32
    003446                         552  mem.2:
                                   553  	member.count	17
    003446  aa   000000 000021
                                   554  	member..font_r	f.1
    003447  0a   005053 000000
                                   555  	member..size_r	size.1
    003450  0a   046646 000000
                                   556  	member..Scale	100000000,100000000
    003451  aa   000575 360400
    003452  aa   000575 360400
                                   557  	member..name	/,32
                                   558  	member..font_r	f.4
    003463  0a   005100 000000
                                   559  	member..size_r	size.1
    003464  0a   046646 000000
                                   560  	member..Scale	100000000,100000000
    003465  aa   000575 360400
    003466  aa   000575 360400
                                   561  	member..name	/b,32
                                   562  	member..font_r	f.7
    003477  0a   005125 000000
                                   563  	member..size_r	size.1
    003500  0a   046646 000000
                                   564  	member..Scale	100000000,100000000
    003501  aa   000575 360400
    003502  aa   000575 360400
                                   565  	member..name	/bi,32
                                   566  	member..font_r	f.4
    003513  0a   005100 000000
                                   567  	member..size_r	size.1
    003514  0a   046646 000000
                                   568  	member..Scale	100000000,100000000
    003515  aa   000575 360400
    003516  aa   000575 360400
                                   569  	member..name	/bold,32
                                   570  	member..font_r	f.7
    003527  0a   005125 000000
                                   571  	member..size_r	size.1
    003530  0a   046646 000000
                                   572  	member..Scale	100000000,100000000
    003531  aa   000575 360400
    003532  aa   000575 360400
                                   573  	member..name	/bolditalic,32
                                   574  	member..font_r	f.4
    003543  0a   005100 000000
                                   575  	member..size_r	size.1
    003544  0a   046646 000000
                                   576  	member..Scale	100000000,100000000
    003545  aa   000575 360400
    003546  aa   000575 360400
                                   577  	member..name	/boldroman,32
                                   578  	member..font_r	f.4
    003557  0a   005100 000000
                                   579  	member..size_r	size.1
    003560  0a   046646 000000
                                   580  	member..Scale	100000000,100000000
    003561  aa   000575 360400
    003562  aa   000575 360400
                                   581  	member..name	/br,32
                                   582  	member..font_r	f.3
    003573  0a   005071 000000
                                   583  	member..size_r	size.1
    003574  0a   046646 000000
                                   584  	member..Scale	100000000,100000000
    003575  aa   000575 360400
    003576  aa   000575 360400
                                   585  	member..name	/caps,32
                                   586  	member..font_r	f.6
    003607  0a   005116 000000
                                   587  	member..size_r	size.1
    003610  0a   046646 000000
                                   588  	member..Scale	100000000,100000000
    003611  aa   000575 360400
    003612  aa   000575 360400
                                   589  	member..name	/caps_,32
                                   590  	member..font_r	f.5
    003623  0a   005107 000000
                                   591  	member..size_r	size.1
    003624  0a   046646 000000
                                   592  	member..Scale	100000000,100000000
    003625  aa   000575 360400
    003626  aa   000575 360400
                                   593  	member..name	/i,32
                                   594  	member..font_r	f.5
    003637  0a   005107 000000
                                   595  	member..size_r	size.1
    003640  0a   046646 000000
                                   596  	member..Scale	100000000,100000000
    003641  aa   000575 360400
    003642  aa   000575 360400
                                   597  	member..name	/italic,32
                                   598  	member..font_r	f.1
    003653  0a   005053 000000
                                   599  	member..size_r	size.1
    003654  0a   046646 000000
                                   600  	member..Scale	100000000,100000000
    003655  aa   000575 360400
    003656  aa   000575 360400
                                   601  	member..name	/m,32
                                   602  	member..font_r	f.1
    003667  0a   005053 000000
                                   603  	member..size_r	size.1
    003670  0a   046646 000000
                                   604  	member..Scale	100000000,100000000
    003671  aa   000575 360400
    003672  aa   000575 360400
                                   605  	member..name	/medium,32
                                   606  	member..font_r	f.5
    003703  0a   005107 000000
                                   607  	member..size_r	size.1
    003704  0a   046646 000000
                                   608  	member..Scale	100000000,100000000
    003705  aa   000575 360400
    003706  aa   000575 360400
                                   609  	member..name	/mediumitalic,32
                                   610  	member..font_r	f.5
    003717  0a   005107 000000
                                   611  	member..size_r	size.1
    003720  0a   046646 000000
                                   612  	member..Scale	100000000,100000000
    003721  aa   000575 360400
    003722  aa   000575 360400
                                   613  	member..name	/mi,32
                                   614  	member..font_r	f.1
    003733  0a   005053 000000
                                   615  	member..size_r	size.1
    003734  0a   046646 000000
                                   616  	member..Scale	100000000,100000000
    003735  aa   000575 360400
    003736  aa   000575 360400
                                   617  	member..name	/r,32
                                   618  	member..font_r	f.1
    003747  0a   005053 000000
                                   619  	member..size_r	size.1
    003750  0a   046646 000000
                                   620  	member..Scale	100000000,100000000
    003751  aa   000575 360400
    003752  aa   000575 360400
                                   621  	member..name	/roman,32
    003763                         622  mem.3:
                                   623  	member.count	1
    003763  aa   000000 000001
                                   624  	member..font_r	f.1
    003764  0a   005053 000000
                                   625  	member..size_r	size.1
    003765  0a   046646 000000
                                   626  	member..Scale	100000000,100000000
    003766  aa   000575 360400
    003767  aa   000575 360400
                                   627  	member..name	,32
    004000                         628  mem.4:
                                   629  	member.count	1
    004000  aa   000000 000001
                                   630  	member..font_r	f.3
    004001  0a   005071 000000
                                   631  	member..size_r	size.1
    004002  0a   046646 000000
                                   632  	member..Scale	100000000,100000000
    004003  aa   000575 360400
    004004  aa   000575 360400
                                   633  	member..name	,32
    004015                         634  mem.5:
                                   635  	member.count	1
    004015  aa   000000 000001
                                   636  	member..font_r	f.4
    004016  0a   005100 000000
                                   637  	member..size_r	size.1
    004017  0a   046646 000000
                                   638  	member..Scale	100000000,100000000
    004020  aa   000575 360400
    004021  aa   000575 360400
                                   639  	member..name	,32
    004032                         640  mem.6:
                                   641  	member.count	1
    004032  aa   000000 000001
                                   642  	member..font_r	f.5
    004033  0a   005107 000000
                                   643  	member..size_r	size.1
    004034  0a   046646 000000
                                   644  	member..Scale	100000000,100000000
    004035  aa   000575 360400
    004036  aa   000575 360400
                                   645  	member..name	,32
    004047                         646  mem.7:
                                   647  	member.count	1
    004047  aa   000000 000001
                                   648  	member..font_r	f.6
    004050  0a   005116 000000
                                   649  	member..size_r	size.1
    004051  0a   046646 000000
                                   650  	member..Scale	100000000,100000000
    004052  aa   000575 360400
    004053  aa   000575 360400
                                   651  	member..name	,32
    004064                         652  mem.8:
                                   653  	member.count	1
    004064  aa   000000 000001
                                   654  	member..font_r	f.7
    004065  0a   005125 000000
                                   655  	member..size_r	size.1
    004066  0a   046646 000000
                                   656  	member..Scale	100000000,100000000
    004067  aa   000575 360400
    004070  aa   000575 360400
                                   657  	member..name	,32
    004101                         658  mem.9:
                                   659  	member.count	17
    004101  aa   000000 000021
                                   660  	member..font_r	f.8
    004102  0a   005134 000000
                                   661  	member..size_r	size.1
    004103  0a   046646 000000
                                   662  	member..Scale	100000000,100000000
    004104  aa   000575 360400
    004105  aa   000575 360400
                                   663  	member..name	/,32
                                   664  	member..font_r	f.9
    004116  0a   005143 000000
                                   665  	member..size_r	size.1
    004117  0a   046646 000000
                                   666  	member..Scale	100000000,100000000
    004120  aa   000575 360400
    004121  aa   000575 360400
                                   667  	member..name	/b,32
                                   668  	member..font_r	f.11
    004132  0a   005161 000000
                                   669  	member..size_r	size.1
    004133  0a   046646 000000
                                   670  	member..Scale	100000000,100000000
    004134  aa   000575 360400
    004135  aa   000575 360400
                                   671  	member..name	/bi,32
                                   672  	member..font_r	f.9
    004146  0a   005143 000000
                                   673  	member..size_r	size.1
    004147  0a   046646 000000
                                   674  	member..Scale	100000000,100000000
    004150  aa   000575 360400
    004151  aa   000575 360400
                                   675  	member..name	/bold,32
                                   676  	member..font_r	f.11
    004162  0a   005161 000000
                                   677  	member..size_r	size.1
    004163  0a   046646 000000
                                   678  	member..Scale	100000000,100000000
    004164  aa   000575 360400
    004165  aa   000575 360400
                                   679  	member..name	/bolditalic,32
                                   680  	member..font_r	f.9
    004176  0a   005143 000000
                                   681  	member..size_r	size.1
    004177  0a   046646 000000
                                   682  	member..Scale	100000000,100000000
    004200  aa   000575 360400
    004201  aa   000575 360400
                                   683  	member..name	/boldroman,32
                                   684  	member..font_r	f.9
    004212  0a   005143 000000
                                   685  	member..size_r	size.1
    004213  0a   046646 000000
                                   686  	member..Scale	100000000,100000000
    004214  aa   000575 360400
    004215  aa   000575 360400
                                   687  	member..name	/br,32
                                   688  	member..font_r	f.9
    004226  0a   005143 000000
                                   689  	member..size_r	size.1
    004227  0a   046646 000000
                                   690  	member..Scale	100000000,100000000
    004230  aa   000575 360400
    004231  aa   000575 360400
                                   691  	member..name	/caps,32
                                   692  	member..font_r	f.11
    004242  0a   005161 000000
                                   693  	member..size_r	size.1
    004243  0a   046646 000000
                                   694  	member..Scale	100000000,100000000
    004244  aa   000575 360400
    004245  aa   000575 360400
                                   695  	member..name	/caps_,32
                                   696  	member..font_r	f.10
    004256  0a   005152 000000
                                   697  	member..size_r	size.1
    004257  0a   046646 000000
                                   698  	member..Scale	100000000,100000000
    004260  aa   000575 360400
    004261  aa   000575 360400
                                   699  	member..name	/i,32
                                   700  	member..font_r	f.10
    004272  0a   005152 000000
                                   701  	member..size_r	size.1
    004273  0a   046646 000000
                                   702  	member..Scale	100000000,100000000
    004274  aa   000575 360400
    004275  aa   000575 360400
                                   703  	member..name	/italic,32
                                   704  	member..font_r	f.8
    004306  0a   005134 000000
                                   705  	member..size_r	size.1
    004307  0a   046646 000000
                                   706  	member..Scale	100000000,100000000
    004310  aa   000575 360400
    004311  aa   000575 360400
                                   707  	member..name	/m,32
                                   708  	member..font_r	f.8
    004322  0a   005134 000000
                                   709  	member..size_r	size.1
    004323  0a   046646 000000
                                   710  	member..Scale	100000000,100000000
    004324  aa   000575 360400
    004325  aa   000575 360400
                                   711  	member..name	/medium,32
                                   712  	member..font_r	f.10
    004336  0a   005152 000000
                                   713  	member..size_r	size.1
    004337  0a   046646 000000
                                   714  	member..Scale	100000000,100000000
    004340  aa   000575 360400
    004341  aa   000575 360400
                                   715  	member..name	/mediumitalic,32
                                   716  	member..font_r	f.10
    004352  0a   005152 000000
                                   717  	member..size_r	size.1
    004353  0a   046646 000000
                                   718  	member..Scale	100000000,100000000
    004354  aa   000575 360400
    004355  aa   000575 360400
                                   719  	member..name	/mi,32
                                   720  	member..font_r	f.8
    004366  0a   005134 000000
                                   721  	member..size_r	size.1
    004367  0a   046646 000000
                                   722  	member..Scale	100000000,100000000
    004370  aa   000575 360400
    004371  aa   000575 360400
                                   723  	member..name	/r,32
                                   724  	member..font_r	f.8
    004402  0a   005134 000000
                                   725  	member..size_r	size.1
    004403  0a   046646 000000
                                   726  	member..Scale	100000000,100000000
    004404  aa   000575 360400
    004405  aa   000575 360400
                                   727  	member..name	/roman,32
    004416                         728  mem.10:
                                   729  	member.count	1
    004416  aa   000000 000001
                                   730  	member..font_r	f.8
    004417  0a   005134 000000
                                   731  	member..size_r	size.1
    004420  0a   046646 000000
                                   732  	member..Scale	100000000,100000000
    004421  aa   000575 360400
    004422  aa   000575 360400
                                   733  	member..name	,32
    004433                         734  mem.11:
                                   735  	member.count	1
    004433  aa   000000 000001
                                   736  	member..font_r	f.10
    004434  0a   005152 000000
                                   737  	member..size_r	size.1
    004435  0a   046646 000000
                                   738  	member..Scale	100000000,100000000
    004436  aa   000575 360400
    004437  aa   000575 360400
                                   739  	member..name	,32
    004450                         740  mem.12:
                                   741  	member.count	1
    004450  aa   000000 000001
                                   742  	member..font_r	f.9
    004451  0a   005143 000000
                                   743  	member..size_r	size.1
    004452  0a   046646 000000
                                   744  	member..Scale	100000000,100000000
    004453  aa   000575 360400
    004454  aa   000575 360400
                                   745  	member..name	,32
    004465                         746  mem.13:
                                   747  	member.count	1
    004465  aa   000000 000001
                                   748  	member..font_r	f.11
    004466  0a   005161 000000
                                   749  	member..size_r	size.1
    004467  0a   046646 000000
                                   750  	member..Scale	100000000,100000000
    004470  aa   000575 360400
    004471  aa   000575 360400
                                   751  	member..name	,32
    004502                         752  mem.27:
                                   753  	member.count	15
    004502  aa   000000 000017
                                   754  	member..font_r	f.12
    004503  0a   005170 000000
                                   755  	member..size_r	size.1
    004504  0a   046646 000000
                                   756  	member..Scale	100000000,100000000
    004505  aa   000575 360400
    004506  aa   000575 360400
                                   757  	member..name	/,32
                                   758  	member..font_r	f.13
    004517  0a   005177 000000
                                   759  	member..size_r	size.1
    004520  0a   046646 000000
                                   760  	member..Scale	100000000,100000000
    004521  aa   000575 360400
    004522  aa   000575 360400
                                   761  	member..name	/b,32
                                   762  	member..font_r	f.15
    004533  0a   005215 000000
                                   763  	member..size_r	size.1
    004534  0a   046646 000000
                                   764  	member..Scale	100000000,100000000
    004535  aa   000575 360400
    004536  aa   000575 360400
                                   765  	member..name	/bi,32
                                   766  	member..font_r	f.13
    004547  0a   005177 000000
                                   767  	member..size_r	size.1
    004550  0a   046646 000000
                                   768  	member..Scale	100000000,100000000
    004551  aa   000575 360400
    004552  aa   000575 360400
                                   769  	member..name	/bold,32
                                   770  	member..font_r	f.15
    004563  0a   005215 000000
                                   771  	member..size_r	size.1
    004564  0a   046646 000000
                                   772  	member..Scale	100000000,100000000
    004565  aa   000575 360400
    004566  aa   000575 360400
                                   773  	member..name	/bolditalic,32
                                   774  	member..font_r	f.13
    004577  0a   005177 000000
                                   775  	member..size_r	size.1
    004600  0a   046646 000000
                                   776  	member..Scale	100000000,100000000
    004601  aa   000575 360400
    004602  aa   000575 360400
                                   777  	member..name	/boldroman,32
                                   778  	member..font_r	f.13
    004613  0a   005177 000000
                                   779  	member..size_r	size.1
    004614  0a   046646 000000
                                   780  	member..Scale	100000000,100000000
    004615  aa   000575 360400
    004616  aa   000575 360400
                                   781  	member..name	/br,32
                                   782  	member..font_r	f.14
    004627  0a   005206 000000
                                   783  	member..size_r	size.1
    004630  0a   046646 000000
                                   784  	member..Scale	100000000,100000000
    004631  aa   000575 360400
    004632  aa   000575 360400
                                   785  	member..name	/i,32
                                   786  	member..font_r	f.14
    004643  0a   005206 000000
                                   787  	member..size_r	size.1
    004644  0a   046646 000000
                                   788  	member..Scale	100000000,100000000
    004645  aa   000575 360400
    004646  aa   000575 360400
                                   789  	member..name	/italic,32
                                   790  	member..font_r	f.12
    004657  0a   005170 000000
                                   791  	member..size_r	size.1
    004660  0a   046646 000000
                                   792  	member..Scale	100000000,100000000
    004661  aa   000575 360400
    004662  aa   000575 360400
                                   793  	member..name	/m,32
                                   794  	member..font_r	f.12
    004673  0a   005170 000000
                                   795  	member..size_r	size.1
    004674  0a   046646 000000
                                   796  	member..Scale	100000000,100000000
    004675  aa   000575 360400
    004676  aa   000575 360400
                                   797  	member..name	/medium,32
                                   798  	member..font_r	f.14
    004707  0a   005206 000000
                                   799  	member..size_r	size.1
    004710  0a   046646 000000
                                   800  	member..Scale	100000000,100000000
    004711  aa   000575 360400
    004712  aa   000575 360400
                                   801  	member..name	/mediumitalic,32
                                   802  	member..font_r	f.14
    004723  0a   005206 000000
                                   803  	member..size_r	size.1
    004724  0a   046646 000000
                                   804  	member..Scale	100000000,100000000
    004725  aa   000575 360400
    004726  aa   000575 360400
                                   805  	member..name	/mi,32
                                   806  	member..font_r	f.12
    004737  0a   005170 000000
                                   807  	member..size_r	size.1
    004740  0a   046646 000000
                                   808  	member..Scale	100000000,100000000
    004741  aa   000575 360400
    004742  aa   000575 360400
                                   809  	member..name	/r,32
                                   810  	member..font_r	f.12
    004753  0a   005170 000000
                                   811  	member..size_r	size.1
    004754  0a   046646 000000
                                   812  	member..Scale	100000000,100000000
    004755  aa   000575 360400
    004756  aa   000575 360400
                                   813  	member..name	/roman,32
    004767                         814  mem.28:
                                   815  	member.count	1
    004767  aa   000000 000001
                                   816  	member..font_r	f.12
    004770  0a   005170 000000
                                   817  	member..size_r	size.1
    004771  0a   046646 000000
                                   818  	member..Scale	100000000,100000000
    004772  aa   000575 360400
    004773  aa   000575 360400
                                   819  	member..name	,32
    005004                         820  mem.29:
                                   821  	member.count	1
    005004  aa   000000 000001
                                   822  	member..font_r	f.13
    005005  0a   005177 000000
                                   823  	member..size_r	size.1
    005006  0a   046646 000000
                                   824  	member..Scale	100000000,100000000
    005007  aa   000575 360400
    005010  aa   000575 360400
                                   825  	member..name	,32
    005021                         826  mem.30:
                                   827  	member.count	1
    005021  aa   000000 000001
                                   828  	member..font_r	f.14
    005022  0a   005206 000000
                                   829  	member..size_r	size.1
    005023  0a   046646 000000
                                   830  	member..Scale	100000000,100000000
    005024  aa   000575 360400
    005025  aa   000575 360400
                                   831  	member..name	,32
    005036                         832  mem.31:
                                   833  	member.count	1
    005036  aa   000000 000001
                                   834  	member..font_r	f.15
    005037  0a   005215 000000
                                   835  	member..size_r	size.1
    005040  0a   046646 000000
                                   836  	member..Scale	100000000,100000000
    005041  aa   000575 360400
    005042  aa   000575 360400
                                   837  	member..name	,32
                                   838  
    005053                         839  f.1:		"asc10
                                   840  	font.units_r	uni.1
    005053  0a   005314 000000
                                   841  	font.oput_r	opu.1
    005054  0a   034314 000000
                                   842  	font.rel_units	6
    005055  aa   000000 000006
                                   843  	font.footsep	(,)
    005056  aa  054 000 000 000
                                   844  	font.min_spb	3
    005057  aa   000000 000003
                                   845  	font.avg_spb	6
    005060  aa   000000 000006
                                   846  	font.max_spb	9
    005061  aa   000000 000011
    005062                         847  f.2:		"apl
                                   848  	font.units_r	uni.2
    005062  0a   006314 000000
                                   849  	font.oput_r	opu.2
    005063  0a   035055 000000
                                   850  	font.rel_units	6
    005064  aa   000000 000006
                                   851  	font.footsep	(,)
    005065  aa  054 000 000 000
                                   852  	font.min_spb	3
    005066  aa   000000 000003
                                   853  	font.avg_spb	6
    005067  aa   000000 000006
                                   854  	font.max_spb	9
    005070  aa   000000 000011
    005071                         855  f.3:		"ASC10
                                   856  	font.units_r	uni.3
    005071  0a   007314 000000
                                   857  	font.oput_r	opu.3
    005072  0a   035616 000000
                                   858  	font.rel_units	6
    005073  aa   000000 000006
                                   859  	font.footsep	(,)
    005074  aa  054 000 000 000
                                   860  	font.min_spb	3
    005075  aa   000000 000003
                                   861  	font.avg_spb	6
    005076  aa   000000 000006
                                   862  	font.max_spb	9
    005077  aa   000000 000011
    005100                         863  f.4:		"ASC10OS
                                   864  	font.units_r	uni.4
    005100  0a   010314 000000
                                   865  	font.oput_r	opu.4
    005101  0a   036357 000000
                                   866  	font.rel_units	6
    005102  aa   000000 000006
                                   867  	font.footsep	(,)
    005103  aa  054 000 000 000
                                   868  	font.min_spb	3
    005104  aa   000000 000003
                                   869  	font.avg_spb	6
    005105  aa   000000 000006
                                   870  	font.max_spb	9
    005106  aa   000000 000011
    005107                         871  f.5:		"asc10_
                                   872  	font.units_r	uni.5
    005107  0a   011314 000000
                                   873  	font.oput_r	opu.5
    005110  0a   037120 000000
                                   874  	font.rel_units	6
    005111  aa   000000 000006
                                   875  	font.footsep	(,)
    005112  aa  054 000 000 000
                                   876  	font.min_spb	3
    005113  aa   000000 000003
                                   877  	font.avg_spb	6
    005114  aa   000000 000006
                                   878  	font.max_spb	9
    005115  aa   000000 000011
    005116                         879  f.6:		"ASC10_
                                   880  	font.units_r	uni.6
    005116  0a   012314 000000
                                   881  	font.oput_r	opu.6
    005117  0a   037661 000000
                                   882  	font.rel_units	6
    005120  aa   000000 000006
                                   883  	font.footsep	(,)
    005121  aa  054 000 000 000
                                   884  	font.min_spb	3
    005122  aa   000000 000003
                                   885  	font.avg_spb	6
    005123  aa   000000 000006
                                   886  	font.max_spb	9
    005124  aa   000000 000011
    005125                         887  f.7:		"ASC10_OS
                                   888  	font.units_r	uni.7
    005125  0a   013314 000000
                                   889  	font.oput_r	opu.7
    005126  0a   040422 000000
                                   890  	font.rel_units	6
    005127  aa   000000 000006
                                   891  	font.footsep	(,)
    005130  aa  054 000 000 000
                                   892  	font.min_spb	3
    005131  aa   000000 000003
                                   893  	font.avg_spb	6
    005132  aa   000000 000006
                                   894  	font.max_spb	9
    005133  aa   000000 000011
    005134                         895  f.8:		"asc12
                                   896  	font.units_r	uni.8
    005134  0a   014314 000000
                                   897  	font.oput_r	opu.8
    005135  0a   041163 000000
                                   898  	font.rel_units	6
    005136  aa   000000 000006
                                   899  	font.footsep	(,)
    005137  aa  054 000 000 000
                                   900  	font.min_spb	3
    005140  aa   000000 000003
                                   901  	font.avg_spb	6
    005141  aa   000000 000006
                                   902  	font.max_spb	9
    005142  aa   000000 000011
    005143                         903  f.9:		"ASC12
                                   904  	font.units_r	uni.9
    005143  0a   015314 000000
                                   905  	font.oput_r	opu.9
    005144  0a   041724 000000
                                   906  	font.rel_units	6
    005145  aa   000000 000006
                                   907  	font.footsep	(,)
    005146  aa  054 000 000 000
                                   908  	font.min_spb	3
    005147  aa   000000 000003
                                   909  	font.avg_spb	6
    005150  aa   000000 000006
                                   910  	font.max_spb	9
    005151  aa   000000 000011
    005152                         911  f.10:		"asc12_
                                   912  	font.units_r	uni.10
    005152  0a   016314 000000
                                   913  	font.oput_r	opu.10
    005153  0a   042465 000000
                                   914  	font.rel_units	6
    005154  aa   000000 000006
                                   915  	font.footsep	(,)
    005155  aa  054 000 000 000
                                   916  	font.min_spb	3
    005156  aa   000000 000003
                                   917  	font.avg_spb	6
    005157  aa   000000 000006
                                   918  	font.max_spb	9
    005160  aa   000000 000011
    005161                         919  f.11:		"ASC12_
                                   920  	font.units_r	uni.11
    005161  0a   017314 000000
                                   921  	font.oput_r	opu.11
    005162  0a   043226 000000
                                   922  	font.rel_units	6
    005163  aa   000000 000006
                                   923  	font.footsep	(,)
    005164  aa  054 000 000 000
                                   924  	font.min_spb	3
    005165  aa   000000 000003
                                   925  	font.avg_spb	6
    005166  aa   000000 000006
                                   926  	font.max_spb	9
    005167  aa   000000 000011
    005170                         927  f.12:		"asc15
                                   928  	font.units_r	uni.12
    005170  0a   020314 000000
                                   929  	font.oput_r	opu.12
    005171  0a   043767 000000
                                   930  	font.rel_units	6
    005172  aa   000000 000006
                                   931  	font.footsep	(,)
    005173  aa  054 000 000 000
                                   932  	font.min_spb	3
    005174  aa   000000 000003
                                   933  	font.avg_spb	6
    005175  aa   000000 000006
                                   934  	font.max_spb	9
    005176  aa   000000 000011
    005177                         935  f.13:		"ASC15
                                   936  	font.units_r	uni.13
    005177  0a   021314 000000
                                   937  	font.oput_r	opu.13
    005200  0a   044530 000000
                                   938  	font.rel_units	6
    005201  aa   000000 000006
                                   939  	font.footsep	(,)
    005202  aa  054 000 000 000
                                   940  	font.min_spb	3
    005203  aa   000000 000003
                                   941  	font.avg_spb	6
    005204  aa   000000 000006
                                   942  	font.max_spb	9
    005205  aa   000000 000011
    005206                         943  f.14:		"asc15_
                                   944  	font.units_r	uni.14
    005206  0a   022314 000000
                                   945  	font.oput_r	opu.14
    005207  0a   045271 000000
                                   946  	font.rel_units	6
    005210  aa   000000 000006
                                   947  	font.footsep	(,)
    005211  aa  054 000 000 000
                                   948  	font.min_spb	3
    005212  aa   000000 000003
                                   949  	font.avg_spb	6
    005213  aa   000000 000006
                                   950  	font.max_spb	9
    005214  aa   000000 000011
    005215                         951  f.15:		"ASC15_
                                   952  	font.units_r	uni.15
    005215  0a   023314 000000
                                   953  	font.oput_r	opu.15
    005216  0a   046032 000000
                                   954  	font.rel_units	6
    005217  aa   000000 000006
                                   955  	font.footsep	(,)
    005220  aa  054 000 000 000
                                   956  	font.min_spb	3
    005221  aa   000000 000003
                                   957  	font.avg_spb	6
    005222  aa   000000 000006
                                   958  	font.max_spb	9
    005223  aa   000000 000011
    005224                         959  f.16:		"elite
                                   960  	font.units_r	uni.16
    005224  0a   024314 000000
                                   961  	font.oput_r	opu.16
    005225  0a   046226 000000
                                   962  	font.rel_units	6
    005226  aa   000000 000006
                                   963  	font.footsep	(,)
    005227  aa  054 000 000 000
                                   964  	font.min_spb	3
    005230  aa   000000 000003
                                   965  	font.avg_spb	6
    005231  aa   000000 000006
                                   966  	font.max_spb	9
    005232  aa   000000 000011
    005233                         967  f.17:		"elite_
                                   968  	font.units_r	uni.17
    005233  0a   025314 000000
                                   969  	font.oput_r	opu.17
    005234  0a   046270 000000
                                   970  	font.rel_units	6
    005235  aa   000000 000006
                                   971  	font.footsep	(,)
    005236  aa  054 000 000 000
                                   972  	font.min_spb	3
    005237  aa   000000 000003
                                   973  	font.avg_spb	6
    005240  aa   000000 000006
                                   974  	font.max_spb	9
    005241  aa   000000 000011
    005242                         975  f.18:		"ELITE
                                   976  	font.units_r	uni.18
    005242  0a   026314 000000
                                   977  	font.oput_r	opu.18
    005243  0a   046332 000000
                                   978  	font.rel_units	6
    005244  aa   000000 000006
                                   979  	font.footsep	(,)
    005245  aa  054 000 000 000
                                   980  	font.min_spb	3
    005246  aa   000000 000003
                                   981  	font.avg_spb	6
    005247  aa   000000 000006
                                   982  	font.max_spb	9
    005250  aa   000000 000011
    005251                         983  f.19:		"ELITE_
                                   984  	font.units_r	uni.19
    005251  0a   027314 000000
                                   985  	font.oput_r	opu.19
    005252  0a   046374 000000
                                   986  	font.rel_units	6
    005253  aa   000000 000006
                                   987  	font.footsep	(,)
    005254  aa  054 000 000 000
                                   988  	font.min_spb	3
    005255  aa   000000 000003
                                   989  	font.avg_spb	6
    005256  aa   000000 000006
                                   990  	font.max_spb	9
    005257  aa   000000 000011
    005260                         991  f.20:		"elite15
                                   992  	font.units_r	uni.20
    005260  0a   030314 000000
                                   993  	font.oput_r	opu.20
    005261  0a   046436 000000
                                   994  	font.rel_units	6
    005262  aa   000000 000006
                                   995  	font.footsep	(,)
    005263  aa  054 000 000 000
                                   996  	font.min_spb	3
    005264  aa   000000 000003
                                   997  	font.avg_spb	6
    005265  aa   000000 000006
                                   998  	font.max_spb	9
    005266  aa   000000 000011
    005267                         999  f.21:		"elite15_
                                  1000  	font.units_r	uni.21
    005267  0a   031314 000000
                                  1001  	font.oput_r	opu.21
    005270  0a   046500 000000
                                  1002  	font.rel_units	6
    005271  aa   000000 000006
                                  1003  	font.footsep	(,)
    005272  aa  054 000 000 000
                                  1004  	font.min_spb	3
    005273  aa   000000 000003
                                  1005  	font.avg_spb	6
    005274  aa   000000 000006
                                  1006  	font.max_spb	9
    005275  aa   000000 000011
    005276                        1007  f.22:		"ELITE15
                                  1008  	font.units_r	uni.22
    005276  0a   032314 000000
                                  1009  	font.oput_r	opu.22
    005277  0a   046542 000000
                                  1010  	font.rel_units	6
    005300  aa   000000 000006
                                  1011  	font.footsep	(,)
    005301  aa  054 000 000 000
                                  1012  	font.min_spb	3
    005302  aa   000000 000003
                                  1013  	font.avg_spb	6
    005303  aa   000000 000006
                                  1014  	font.max_spb	9
    005304  aa   000000 000011
    005305                        1015  f.23:		"ELITE15_
                                  1016  	font.units_r	uni.23
    005305  0a   033314 000000
                                  1017  	font.oput_r	opu.23
    005306  0a   046604 000000
                                  1018  	font.rel_units	6
    005307  aa   000000 000006
                                  1019  	font.footsep	(,)
    005310  aa  054 000 000 000
                                  1020  	font.min_spb	3
    005311  aa   000000 000003
                                  1021  	font.avg_spb	6
    005312  aa   000000 000006
                                  1022  	font.max_spb	9
    005313  aa   000000 000011
    005314                        1023  uni.1:
                                  1024  	units (8),0
                                  1025  	units (1),-6
                        000001
    005324  aa   777777 777772
                                  1026  	units (23),0
                                  1027  	units (95),6
                        000137
    005354  aa   000000 000006
    005355  aa   000000 000006
    005356  aa   000000 000006
    005357  aa   000000 000006
    005360  aa   000000 000006
    005361  aa   000000 000006
    005362  aa   000000 000006
    005363  aa   000000 000006
    005364  aa   000000 000006
    005365  aa   000000 000006
    005366  aa   000000 000006
    005367  aa   000000 000006
    005370  aa   000000 000006
    005371  aa   000000 000006
    005372  aa   000000 000006
    005373  aa   000000 000006
    005374  aa   000000 000006
    005375  aa   000000 000006
    005376  aa   000000 000006
    005377  aa   000000 000006
    005400  aa   000000 000006
    005401  aa   000000 000006
    005402  aa   000000 000006
    005403  aa   000000 000006
    005404  aa   000000 000006
    005405  aa   000000 000006
    005406  aa   000000 000006
    005407  aa   000000 000006
    005410  aa   000000 000006
    005411  aa   000000 000006
    005412  aa   000000 000006
    005413  aa   000000 000006
    005414  aa   000000 000006
    005415  aa   000000 000006
    005416  aa   000000 000006
    005417  aa   000000 000006
    005420  aa   000000 000006
    005421  aa   000000 000006
    005422  aa   000000 000006
    005423  aa   000000 000006
    005424  aa   000000 000006
    005425  aa   000000 000006
    005426  aa   000000 000006
    005427  aa   000000 000006
    005430  aa   000000 000006
    005431  aa   000000 000006
    005432  aa   000000 000006
    005433  aa   000000 000006
    005434  aa   000000 000006
    005435  aa   000000 000006
    005436  aa   000000 000006
    005437  aa   000000 000006
    005440  aa   000000 000006
    005441  aa   000000 000006
    005442  aa   000000 000006
    005443  aa   000000 000006
    005444  aa   000000 000006
    005445  aa   000000 000006
    005446  aa   000000 000006
    005447  aa   000000 000006
    005450  aa   000000 000006
    005451  aa   000000 000006
    005452  aa   000000 000006
    005453  aa   000000 000006
    005454  aa   000000 000006
    005455  aa   000000 000006
    005456  aa   000000 000006
    005457  aa   000000 000006
    005460  aa   000000 000006
    005461  aa   000000 000006
    005462  aa   000000 000006
    005463  aa   000000 000006
    005464  aa   000000 000006
    005465  aa   000000 000006
    005466  aa   000000 000006
    005467  aa   000000 000006
    005470  aa   000000 000006
    005471  aa   000000 000006
    005472  aa   000000 000006
    005473  aa   000000 000006
    005474  aa   000000 000006
    005475  aa   000000 000006
    005476  aa   000000 000006
    005477  aa   000000 000006
    005500  aa   000000 000006
    005501  aa   000000 000006
    005502  aa   000000 000006
    005503  aa   000000 000006
    005504  aa   000000 000006
    005505  aa   000000 000006
    005506  aa   000000 000006
    005507  aa   000000 000006
    005510  aa   000000 000006
    005511  aa   000000 000006
    005512  aa   000000 000006
                                  1028  	units (30),0
                                  1029  	units (4),6
                        000004
    005551  aa   000000 000006
    005552  aa   000000 000006
    005553  aa   000000 000006
    005554  aa   000000 000006
                                  1030  	units (11),0
                                  1031  	units (1),10
                        000001
    005570  aa   000000 000012
                                  1032  	units (1),12
                        000001
    005571  aa   000000 000014
                                  1033  	units (3),0
                                  1034  	units (1),6
                        000001
    005575  aa   000000 000006
                                  1035  	units (15),0
                                  1036  	units (1),6
                        000001
    005615  aa   000000 000006
                                  1037  	units (1),0
                                  1038  	units (1),12
                        000001
    005617  aa   000000 000014
                                  1039  	units (1),9
                        000001
    005620  aa   000000 000011
                                  1040  	units (8),0
                                  1041  	units (1),6
                        000001
    005631  aa   000000 000006
                                  1042  	units (6),0
                                  1043  	units (1),12
                        000001
    005640  aa   000000 000014
                                  1044  	units (40),0
                                  1045  	units (1),6
                        000001
    005711  aa   000000 000006
                                  1046  	units (1),0
                                  1047  	units (1),6
                        000001
    005713  aa   000000 000006
                                  1048  	units (10),0
                                  1049  	units (2),12
                        000002
    005726  aa   000000 000014
    005727  aa   000000 000014
                                  1050  	units (3),6
                        000003
    005730  aa   000000 000006
    005731  aa   000000 000006
    005732  aa   000000 000006
                                  1051  	units (1),3
                        000001
    005733  aa   000000 000003
                                  1052  	units (22),6
                        000026
    005734  aa   000000 000006
    005735  aa   000000 000006
    005736  aa   000000 000006
    005737  aa   000000 000006
    005740  aa   000000 000006
    005741  aa   000000 000006
    005742  aa   000000 000006
    005743  aa   000000 000006
    005744  aa   000000 000006
    005745  aa   000000 000006
    005746  aa   000000 000006
    005747  aa   000000 000006
    005750  aa   000000 000006
    005751  aa   000000 000006
    005752  aa   000000 000006
    005753  aa   000000 000006
    005754  aa   000000 000006
    005755  aa   000000 000006
    005756  aa   000000 000006
    005757  aa   000000 000006
    005760  aa   000000 000006
    005761  aa   000000 000006
                                  1053  	units (1),0
                                  1054  	units (4),6
                        000004
    005763  aa   000000 000006
    005764  aa   000000 000006
    005765  aa   000000 000006
    005766  aa   000000 000006
                                  1055  	units (1),0
                                  1056  	units (5),6
                        000005
    005770  aa   000000 000006
    005771  aa   000000 000006
    005772  aa   000000 000006
    005773  aa   000000 000006
    005774  aa   000000 000006
                                  1057  	units (1),0
                                  1058  	units (5),6
                        000005
    005776  aa   000000 000006
    005777  aa   000000 000006
    006000  aa   000000 000006
    006001  aa   000000 000006
    006002  aa   000000 000006
                                  1059  	units (1),0
                                  1060  	units (5),6
                        000005
    006004  aa   000000 000006
    006005  aa   000000 000006
    006006  aa   000000 000006
    006007  aa   000000 000006
    006010  aa   000000 000006
                                  1061  	units (1),0
                                  1062  	units (5),6
                        000005
    006012  aa   000000 000006
    006013  aa   000000 000006
    006014  aa   000000 000006
    006015  aa   000000 000006
    006016  aa   000000 000006
                                  1063  	units (1),0
                                  1064  	units (5),6
                        000005
    006020  aa   000000 000006
    006021  aa   000000 000006
    006022  aa   000000 000006
    006023  aa   000000 000006
    006024  aa   000000 000006
                                  1065  	units (1),0
                                  1066  	units (5),6
                        000005
    006026  aa   000000 000006
    006027  aa   000000 000006
    006030  aa   000000 000006
    006031  aa   000000 000006
    006032  aa   000000 000006
                                  1067  	units (1),0
                                  1068  	units (5),6
                        000005
    006034  aa   000000 000006
    006035  aa   000000 000006
    006036  aa   000000 000006
    006037  aa   000000 000006
    006040  aa   000000 000006
                                  1069  	units (1),0
                                  1070  	units (4),6
                        000004
    006042  aa   000000 000006
    006043  aa   000000 000006
    006044  aa   000000 000006
    006045  aa   000000 000006
                                  1071  	units (2),0
                                  1072  	units (1),6
                        000001
    006050  aa   000000 000006
                                  1073  	units (1),0
                                  1074  	units (2),6
                        000002
    006052  aa   000000 000006
    006053  aa   000000 000006
                                  1075  	units (160),0
    006314                        1076  uni.2:
                                  1077  	units (8),0
                                  1078  	units (1),-6
                        000001
    006324  aa   777777 777772
                                  1079  	units (23),0
                                  1080  	units (95),6
                        000137
    006354  aa   000000 000006
    006355  aa   000000 000006
    006356  aa   000000 000006
    006357  aa   000000 000006
    006360  aa   000000 000006
    006361  aa   000000 000006
    006362  aa   000000 000006
    006363  aa   000000 000006
    006364  aa   000000 000006
    006365  aa   000000 000006
    006366  aa   000000 000006
    006367  aa   000000 000006
    006370  aa   000000 000006
    006371  aa   000000 000006
    006372  aa   000000 000006
    006373  aa   000000 000006
    006374  aa   000000 000006
    006375  aa   000000 000006
    006376  aa   000000 000006
    006377  aa   000000 000006
    006400  aa   000000 000006
    006401  aa   000000 000006
    006402  aa   000000 000006
    006403  aa   000000 000006
    006404  aa   000000 000006
    006405  aa   000000 000006
    006406  aa   000000 000006
    006407  aa   000000 000006
    006410  aa   000000 000006
    006411  aa   000000 000006
    006412  aa   000000 000006
    006413  aa   000000 000006
    006414  aa   000000 000006
    006415  aa   000000 000006
    006416  aa   000000 000006
    006417  aa   000000 000006
    006420  aa   000000 000006
    006421  aa   000000 000006
    006422  aa   000000 000006
    006423  aa   000000 000006
    006424  aa   000000 000006
    006425  aa   000000 000006
    006426  aa   000000 000006
    006427  aa   000000 000006
    006430  aa   000000 000006
    006431  aa   000000 000006
    006432  aa   000000 000006
    006433  aa   000000 000006
    006434  aa   000000 000006
    006435  aa   000000 000006
    006436  aa   000000 000006
    006437  aa   000000 000006
    006440  aa   000000 000006
    006441  aa   000000 000006
    006442  aa   000000 000006
    006443  aa   000000 000006
    006444  aa   000000 000006
    006445  aa   000000 000006
    006446  aa   000000 000006
    006447  aa   000000 000006
    006450  aa   000000 000006
    006451  aa   000000 000006
    006452  aa   000000 000006
    006453  aa   000000 000006
    006454  aa   000000 000006
    006455  aa   000000 000006
    006456  aa   000000 000006
    006457  aa   000000 000006
    006460  aa   000000 000006
    006461  aa   000000 000006
    006462  aa   000000 000006
    006463  aa   000000 000006
    006464  aa   000000 000006
    006465  aa   000000 000006
    006466  aa   000000 000006
    006467  aa   000000 000006
    006470  aa   000000 000006
    006471  aa   000000 000006
    006472  aa   000000 000006
    006473  aa   000000 000006
    006474  aa   000000 000006
    006475  aa   000000 000006
    006476  aa   000000 000006
    006477  aa   000000 000006
    006500  aa   000000 000006
    006501  aa   000000 000006
    006502  aa   000000 000006
    006503  aa   000000 000006
    006504  aa   000000 000006
    006505  aa   000000 000006
    006506  aa   000000 000006
    006507  aa   000000 000006
    006510  aa   000000 000006
    006511  aa   000000 000006
    006512  aa   000000 000006
                                  1081  	units (30),0
                                  1082  	units (3),6
                        000003
    006551  aa   000000 000006
    006552  aa   000000 000006
    006553  aa   000000 000006
                                  1083  	units (12),0
                                  1084  	units (1),10
                        000001
    006570  aa   000000 000012
                                  1085  	units (4),0
                                  1086  	units (1),6
                        000001
    006575  aa   000000 000006
                                  1087  	units (15),0
                                  1088  	units (1),6
                        000001
    006615  aa   000000 000006
                                  1089  	units (1),0
                                  1090  	units (1),12
                        000001
    006617  aa   000000 000014
                                  1091  	units (1),9
                        000001
    006620  aa   000000 000011
                                  1092  	units (8),0
                                  1093  	units (1),6
                        000001
    006631  aa   000000 000006
                                  1094  	units (6),0
                                  1095  	units (1),12
                        000001
    006640  aa   000000 000014
                                  1096  	units (40),0
                                  1097  	units (1),6
                        000001
    006711  aa   000000 000006
                                  1098  	units (12),0
                                  1099  	units (2),12
                        000002
    006726  aa   000000 000014
    006727  aa   000000 000014
                                  1100  	units (2),6
                        000002
    006730  aa   000000 000006
    006731  aa   000000 000006
                                  1101  	units (1),0
                                  1102  	units (1),3
                        000001
    006733  aa   000000 000003
                                  1103  	units (3),0
                                  1104  	units (19),6
                        000023
    006737  aa   000000 000006
    006740  aa   000000 000006
    006741  aa   000000 000006
    006742  aa   000000 000006
    006743  aa   000000 000006
    006744  aa   000000 000006
    006745  aa   000000 000006
    006746  aa   000000 000006
    006747  aa   000000 000006
    006750  aa   000000 000006
    006751  aa   000000 000006
    006752  aa   000000 000006
    006753  aa   000000 000006
    006754  aa   000000 000006
    006755  aa   000000 000006
    006756  aa   000000 000006
    006757  aa   000000 000006
    006760  aa   000000 000006
    006761  aa   000000 000006
                                  1105  	units (1),0
                                  1106  	units (4),6
                        000004
    006763  aa   000000 000006
    006764  aa   000000 000006
    006765  aa   000000 000006
    006766  aa   000000 000006
                                  1107  	units (1),0
                                  1108  	units (5),6
                        000005
    006770  aa   000000 000006
    006771  aa   000000 000006
    006772  aa   000000 000006
    006773  aa   000000 000006
    006774  aa   000000 000006
                                  1109  	units (1),0
                                  1110  	units (5),6
                        000005
    006776  aa   000000 000006
    006777  aa   000000 000006
    007000  aa   000000 000006
    007001  aa   000000 000006
    007002  aa   000000 000006
                                  1111  	units (1),0
                                  1112  	units (5),6
                        000005
    007004  aa   000000 000006
    007005  aa   000000 000006
    007006  aa   000000 000006
    007007  aa   000000 000006
    007010  aa   000000 000006
                                  1113  	units (1),0
                                  1114  	units (5),6
                        000005
    007012  aa   000000 000006
    007013  aa   000000 000006
    007014  aa   000000 000006
    007015  aa   000000 000006
    007016  aa   000000 000006
                                  1115  	units (1),0
                                  1116  	units (5),6
                        000005
    007020  aa   000000 000006
    007021  aa   000000 000006
    007022  aa   000000 000006
    007023  aa   000000 000006
    007024  aa   000000 000006
                                  1117  	units (1),0
                                  1118  	units (5),6
                        000005
    007026  aa   000000 000006
    007027  aa   000000 000006
    007030  aa   000000 000006
    007031  aa   000000 000006
    007032  aa   000000 000006
                                  1119  	units (1),0
                                  1120  	units (5),6
                        000005
    007034  aa   000000 000006
    007035  aa   000000 000006
    007036  aa   000000 000006
    007037  aa   000000 000006
    007040  aa   000000 000006
                                  1121  	units (1),0
                                  1122  	units (4),6
                        000004
    007042  aa   000000 000006
    007043  aa   000000 000006
    007044  aa   000000 000006
    007045  aa   000000 000006
                                  1123  	units (2),0
                                  1124  	units (1),6
                        000001
    007050  aa   000000 000006
                                  1125  	units (1),0
                                  1126  	units (2),6
                        000002
    007052  aa   000000 000006
    007053  aa   000000 000006
                                  1127  	units (160),0
    007314                        1128  uni.3:
                                  1129  	units (8),0
                                  1130  	units (1),-6
                        000001
    007324  aa   777777 777772
                                  1131  	units (23),0
                                  1132  	units (95),6
                        000137
    007354  aa   000000 000006
    007355  aa   000000 000006
    007356  aa   000000 000006
    007357  aa   000000 000006
    007360  aa   000000 000006
    007361  aa   000000 000006
    007362  aa   000000 000006
    007363  aa   000000 000006
    007364  aa   000000 000006
    007365  aa   000000 000006
    007366  aa   000000 000006
    007367  aa   000000 000006
    007370  aa   000000 000006
    007371  aa   000000 000006
    007372  aa   000000 000006
    007373  aa   000000 000006
    007374  aa   000000 000006
    007375  aa   000000 000006
    007376  aa   000000 000006
    007377  aa   000000 000006
    007400  aa   000000 000006
    007401  aa   000000 000006
    007402  aa   000000 000006
    007403  aa   000000 000006
    007404  aa   000000 000006
    007405  aa   000000 000006
    007406  aa   000000 000006
    007407  aa   000000 000006
    007410  aa   000000 000006
    007411  aa   000000 000006
    007412  aa   000000 000006
    007413  aa   000000 000006
    007414  aa   000000 000006
    007415  aa   000000 000006
    007416  aa   000000 000006
    007417  aa   000000 000006
    007420  aa   000000 000006
    007421  aa   000000 000006
    007422  aa   000000 000006
    007423  aa   000000 000006
    007424  aa   000000 000006
    007425  aa   000000 000006
    007426  aa   000000 000006
    007427  aa   000000 000006
    007430  aa   000000 000006
    007431  aa   000000 000006
    007432  aa   000000 000006
    007433  aa   000000 000006
    007434  aa   000000 000006
    007435  aa   000000 000006
    007436  aa   000000 000006
    007437  aa   000000 000006
    007440  aa   000000 000006
    007441  aa   000000 000006
    007442  aa   000000 000006
    007443  aa   000000 000006
    007444  aa   000000 000006
    007445  aa   000000 000006
    007446  aa   000000 000006
    007447  aa   000000 000006
    007450  aa   000000 000006
    007451  aa   000000 000006
    007452  aa   000000 000006
    007453  aa   000000 000006
    007454  aa   000000 000006
    007455  aa   000000 000006
    007456  aa   000000 000006
    007457  aa   000000 000006
    007460  aa   000000 000006
    007461  aa   000000 000006
    007462  aa   000000 000006
    007463  aa   000000 000006
    007464  aa   000000 000006
    007465  aa   000000 000006
    007466  aa   000000 000006
    007467  aa   000000 000006
    007470  aa   000000 000006
    007471  aa   000000 000006
    007472  aa   000000 000006
    007473  aa   000000 000006
    007474  aa   000000 000006
    007475  aa   000000 000006
    007476  aa   000000 000006
    007477  aa   000000 000006
    007500  aa   000000 000006
    007501  aa   000000 000006
    007502  aa   000000 000006
    007503  aa   000000 000006
    007504  aa   000000 000006
    007505  aa   000000 000006
    007506  aa   000000 000006
    007507  aa   000000 000006
    007510  aa   000000 000006
    007511  aa   000000 000006
    007512  aa   000000 000006
                                  1133  	units (30),0
                                  1134  	units (3),6
                        000003
    007551  aa   000000 000006
    007552  aa   000000 000006
    007553  aa   000000 000006
                                  1135  	units (12),0
                                  1136  	units (1),10
                        000001
    007570  aa   000000 000012
                                  1137  	units (4),0
                                  1138  	units (1),6
                        000001
    007575  aa   000000 000006
                                  1139  	units (15),0
                                  1140  	units (1),6
                        000001
    007615  aa   000000 000006
                                  1141  	units (1),0
                                  1142  	units (1),12
                        000001
    007617  aa   000000 000014
                                  1143  	units (1),9
                        000001
    007620  aa   000000 000011
                                  1144  	units (8),0
                                  1145  	units (1),6
                        000001
    007631  aa   000000 000006
                                  1146  	units (6),0
                                  1147  	units (1),12
                        000001
    007640  aa   000000 000014
                                  1148  	units (40),0
                                  1149  	units (1),6
                        000001
    007711  aa   000000 000006
                                  1150  	units (12),0
                                  1151  	units (2),12
                        000002
    007726  aa   000000 000014
    007727  aa   000000 000014
                                  1152  	units (2),6
                        000002
    007730  aa   000000 000006
    007731  aa   000000 000006
                                  1153  	units (1),0
                                  1154  	units (1),3
                        000001
    007733  aa   000000 000003
                                  1155  	units (3),0
                                  1156  	units (19),6
                        000023
    007737  aa   000000 000006
    007740  aa   000000 000006
    007741  aa   000000 000006
    007742  aa   000000 000006
    007743  aa   000000 000006
    007744  aa   000000 000006
    007745  aa   000000 000006
    007746  aa   000000 000006
    007747  aa   000000 000006
    007750  aa   000000 000006
    007751  aa   000000 000006
    007752  aa   000000 000006
    007753  aa   000000 000006
    007754  aa   000000 000006
    007755  aa   000000 000006
    007756  aa   000000 000006
    007757  aa   000000 000006
    007760  aa   000000 000006
    007761  aa   000000 000006
                                  1157  	units (1),0
                                  1158  	units (4),6
                        000004
    007763  aa   000000 000006
    007764  aa   000000 000006
    007765  aa   000000 000006
    007766  aa   000000 000006
                                  1159  	units (1),0
                                  1160  	units (5),6
                        000005
    007770  aa   000000 000006
    007771  aa   000000 000006
    007772  aa   000000 000006
    007773  aa   000000 000006
    007774  aa   000000 000006
                                  1161  	units (1),0
                                  1162  	units (5),6
                        000005
    007776  aa   000000 000006
    007777  aa   000000 000006
    010000  aa   000000 000006
    010001  aa   000000 000006
    010002  aa   000000 000006
                                  1163  	units (1),0
                                  1164  	units (5),6
                        000005
    010004  aa   000000 000006
    010005  aa   000000 000006
    010006  aa   000000 000006
    010007  aa   000000 000006
    010010  aa   000000 000006
                                  1165  	units (1),0
                                  1166  	units (5),6
                        000005
    010012  aa   000000 000006
    010013  aa   000000 000006
    010014  aa   000000 000006
    010015  aa   000000 000006
    010016  aa   000000 000006
                                  1167  	units (1),0
                                  1168  	units (5),6
                        000005
    010020  aa   000000 000006
    010021  aa   000000 000006
    010022  aa   000000 000006
    010023  aa   000000 000006
    010024  aa   000000 000006
                                  1169  	units (1),0
                                  1170  	units (5),6
                        000005
    010026  aa   000000 000006
    010027  aa   000000 000006
    010030  aa   000000 000006
    010031  aa   000000 000006
    010032  aa   000000 000006
                                  1171  	units (1),0
                                  1172  	units (5),6
                        000005
    010034  aa   000000 000006
    010035  aa   000000 000006
    010036  aa   000000 000006
    010037  aa   000000 000006
    010040  aa   000000 000006
                                  1173  	units (1),0
                                  1174  	units (4),6
                        000004
    010042  aa   000000 000006
    010043  aa   000000 000006
    010044  aa   000000 000006
    010045  aa   000000 000006
                                  1175  	units (2),0
                                  1176  	units (1),6
                        000001
    010050  aa   000000 000006
                                  1177  	units (1),0
                                  1178  	units (2),6
                        000002
    010052  aa   000000 000006
    010053  aa   000000 000006
                                  1179  	units (160),0
    010314                        1180  uni.4:
                                  1181  	units (32),0
                                  1182  	units (95),6
                        000137
    010354  aa   000000 000006
    010355  aa   000000 000006
    010356  aa   000000 000006
    010357  aa   000000 000006
    010360  aa   000000 000006
    010361  aa   000000 000006
    010362  aa   000000 000006
    010363  aa   000000 000006
    010364  aa   000000 000006
    010365  aa   000000 000006
    010366  aa   000000 000006
    010367  aa   000000 000006
    010370  aa   000000 000006
    010371  aa   000000 000006
    010372  aa   000000 000006
    010373  aa   000000 000006
    010374  aa   000000 000006
    010375  aa   000000 000006
    010376  aa   000000 000006
    010377  aa   000000 000006
    010400  aa   000000 000006
    010401  aa   000000 000006
    010402  aa   000000 000006
    010403  aa   000000 000006
    010404  aa   000000 000006
    010405  aa   000000 000006
    010406  aa   000000 000006
    010407  aa   000000 000006
    010410  aa   000000 000006
    010411  aa   000000 000006
    010412  aa   000000 000006
    010413  aa   000000 000006
    010414  aa   000000 000006
    010415  aa   000000 000006
    010416  aa   000000 000006
    010417  aa   000000 000006
    010420  aa   000000 000006
    010421  aa   000000 000006
    010422  aa   000000 000006
    010423  aa   000000 000006
    010424  aa   000000 000006
    010425  aa   000000 000006
    010426  aa   000000 000006
    010427  aa   000000 000006
    010430  aa   000000 000006
    010431  aa   000000 000006
    010432  aa   000000 000006
    010433  aa   000000 000006
    010434  aa   000000 000006
    010435  aa   000000 000006
    010436  aa   000000 000006
    010437  aa   000000 000006
    010440  aa   000000 000006
    010441  aa   000000 000006
    010442  aa   000000 000006
    010443  aa   000000 000006
    010444  aa   000000 000006
    010445  aa   000000 000006
    010446  aa   000000 000006
    010447  aa   000000 000006
    010450  aa   000000 000006
    010451  aa   000000 000006
    010452  aa   000000 000006
    010453  aa   000000 000006
    010454  aa   000000 000006
    010455  aa   000000 000006
    010456  aa   000000 000006
    010457  aa   000000 000006
    010460  aa   000000 000006
    010461  aa   000000 000006
    010462  aa   000000 000006
    010463  aa   000000 000006
    010464  aa   000000 000006
    010465  aa   000000 000006
    010466  aa   000000 000006
    010467  aa   000000 000006
    010470  aa   000000 000006
    010471  aa   000000 000006
    010472  aa   000000 000006
    010473  aa   000000 000006
    010474  aa   000000 000006
    010475  aa   000000 000006
    010476  aa   000000 000006
    010477  aa   000000 000006
    010500  aa   000000 000006
    010501  aa   000000 000006
    010502  aa   000000 000006
    010503  aa   000000 000006
    010504  aa   000000 000006
    010505  aa   000000 000006
    010506  aa   000000 000006
    010507  aa   000000 000006
    010510  aa   000000 000006
    010511  aa   000000 000006
    010512  aa   000000 000006
                                  1183  	units (30),0
                                  1184  	units (3),6
                        000003
    010551  aa   000000 000006
    010552  aa   000000 000006
    010553  aa   000000 000006
                                  1185  	units (12),0
                                  1186  	units (1),10
                        000001
    010570  aa   000000 000012
                                  1187  	units (4),0
                                  1188  	units (1),6
                        000001
    010575  aa   000000 000006
                                  1189  	units (15),0
                                  1190  	units (1),6
                        000001
    010615  aa   000000 000006
                                  1191  	units (1),0
                                  1192  	units (1),12
                        000001
    010617  aa   000000 000014
                                  1193  	units (1),9
                        000001
    010620  aa   000000 000011
                                  1194  	units (8),0
                                  1195  	units (1),6
                        000001
    010631  aa   000000 000006
                                  1196  	units (6),0
                                  1197  	units (1),12
                        000001
    010640  aa   000000 000014
                                  1198  	units (40),0
                                  1199  	units (1),6
                        000001
    010711  aa   000000 000006
                                  1200  	units (12),0
                                  1201  	units (2),12
                        000002
    010726  aa   000000 000014
    010727  aa   000000 000014
                                  1202  	units (2),6
                        000002
    010730  aa   000000 000006
    010731  aa   000000 000006
                                  1203  	units (1),0
                                  1204  	units (1),3
                        000001
    010733  aa   000000 000003
                                  1205  	units (3),0
                                  1206  	units (19),6
                        000023
    010737  aa   000000 000006
    010740  aa   000000 000006
    010741  aa   000000 000006
    010742  aa   000000 000006
    010743  aa   000000 000006
    010744  aa   000000 000006
    010745  aa   000000 000006
    010746  aa   000000 000006
    010747  aa   000000 000006
    010750  aa   000000 000006
    010751  aa   000000 000006
    010752  aa   000000 000006
    010753  aa   000000 000006
    010754  aa   000000 000006
    010755  aa   000000 000006
    010756  aa   000000 000006
    010757  aa   000000 000006
    010760  aa   000000 000006
    010761  aa   000000 000006
                                  1207  	units (1),0
                                  1208  	units (4),6
                        000004
    010763  aa   000000 000006
    010764  aa   000000 000006
    010765  aa   000000 000006
    010766  aa   000000 000006
                                  1209  	units (1),0
                                  1210  	units (5),6
                        000005
    010770  aa   000000 000006
    010771  aa   000000 000006
    010772  aa   000000 000006
    010773  aa   000000 000006
    010774  aa   000000 000006
                                  1211  	units (1),0
                                  1212  	units (5),6
                        000005
    010776  aa   000000 000006
    010777  aa   000000 000006
    011000  aa   000000 000006
    011001  aa   000000 000006
    011002  aa   000000 000006
                                  1213  	units (1),0
                                  1214  	units (5),6
                        000005
    011004  aa   000000 000006
    011005  aa   000000 000006
    011006  aa   000000 000006
    011007  aa   000000 000006
    011010  aa   000000 000006
                                  1215  	units (1),0
                                  1216  	units (5),6
                        000005
    011012  aa   000000 000006
    011013  aa   000000 000006
    011014  aa   000000 000006
    011015  aa   000000 000006
    011016  aa   000000 000006
                                  1217  	units (1),0
                                  1218  	units (5),6
                        000005
    011020  aa   000000 000006
    011021  aa   000000 000006
    011022  aa   000000 000006
    011023  aa   000000 000006
    011024  aa   000000 000006
                                  1219  	units (1),0
                                  1220  	units (5),6
                        000005
    011026  aa   000000 000006
    011027  aa   000000 000006
    011030  aa   000000 000006
    011031  aa   000000 000006
    011032  aa   000000 000006
                                  1221  	units (1),0
                                  1222  	units (5),6
                        000005
    011034  aa   000000 000006
    011035  aa   000000 000006
    011036  aa   000000 000006
    011037  aa   000000 000006
    011040  aa   000000 000006
                                  1223  	units (1),0
                                  1224  	units (4),6
                        000004
    011042  aa   000000 000006
    011043  aa   000000 000006
    011044  aa   000000 000006
    011045  aa   000000 000006
                                  1225  	units (2),0
                                  1226  	units (1),6
                        000001
    011050  aa   000000 000006
                                  1227  	units (1),0
                                  1228  	units (2),6
                        000002
    011052  aa   000000 000006
    011053  aa   000000 000006
                                  1229  	units (160),0
    011314                        1230  uni.5:
                                  1231  	units (32),0
                                  1232  	units (95),6
                        000137
    011354  aa   000000 000006
    011355  aa   000000 000006
    011356  aa   000000 000006
    011357  aa   000000 000006
    011360  aa   000000 000006
    011361  aa   000000 000006
    011362  aa   000000 000006
    011363  aa   000000 000006
    011364  aa   000000 000006
    011365  aa   000000 000006
    011366  aa   000000 000006
    011367  aa   000000 000006
    011370  aa   000000 000006
    011371  aa   000000 000006
    011372  aa   000000 000006
    011373  aa   000000 000006
    011374  aa   000000 000006
    011375  aa   000000 000006
    011376  aa   000000 000006
    011377  aa   000000 000006
    011400  aa   000000 000006
    011401  aa   000000 000006
    011402  aa   000000 000006
    011403  aa   000000 000006
    011404  aa   000000 000006
    011405  aa   000000 000006
    011406  aa   000000 000006
    011407  aa   000000 000006
    011410  aa   000000 000006
    011411  aa   000000 000006
    011412  aa   000000 000006
    011413  aa   000000 000006
    011414  aa   000000 000006
    011415  aa   000000 000006
    011416  aa   000000 000006
    011417  aa   000000 000006
    011420  aa   000000 000006
    011421  aa   000000 000006
    011422  aa   000000 000006
    011423  aa   000000 000006
    011424  aa   000000 000006
    011425  aa   000000 000006
    011426  aa   000000 000006
    011427  aa   000000 000006
    011430  aa   000000 000006
    011431  aa   000000 000006
    011432  aa   000000 000006
    011433  aa   000000 000006
    011434  aa   000000 000006
    011435  aa   000000 000006
    011436  aa   000000 000006
    011437  aa   000000 000006
    011440  aa   000000 000006
    011441  aa   000000 000006
    011442  aa   000000 000006
    011443  aa   000000 000006
    011444  aa   000000 000006
    011445  aa   000000 000006
    011446  aa   000000 000006
    011447  aa   000000 000006
    011450  aa   000000 000006
    011451  aa   000000 000006
    011452  aa   000000 000006
    011453  aa   000000 000006
    011454  aa   000000 000006
    011455  aa   000000 000006
    011456  aa   000000 000006
    011457  aa   000000 000006
    011460  aa   000000 000006
    011461  aa   000000 000006
    011462  aa   000000 000006
    011463  aa   000000 000006
    011464  aa   000000 000006
    011465  aa   000000 000006
    011466  aa   000000 000006
    011467  aa   000000 000006
    011470  aa   000000 000006
    011471  aa   000000 000006
    011472  aa   000000 000006
    011473  aa   000000 000006
    011474  aa   000000 000006
    011475  aa   000000 000006
    011476  aa   000000 000006
    011477  aa   000000 000006
    011500  aa   000000 000006
    011501  aa   000000 000006
    011502  aa   000000 000006
    011503  aa   000000 000006
    011504  aa   000000 000006
    011505  aa   000000 000006
    011506  aa   000000 000006
    011507  aa   000000 000006
    011510  aa   000000 000006
    011511  aa   000000 000006
    011512  aa   000000 000006
                                  1233  	units (1),0
                                  1234  	units (1),6
                        000001
    011514  aa   000000 000006
                                  1235  	units (28),0
                                  1236  	units (4),6
                        000004
    011551  aa   000000 000006
    011552  aa   000000 000006
    011553  aa   000000 000006
    011554  aa   000000 000006
                                  1237  	units (11),0
                                  1238  	units (1),10
                        000001
    011570  aa   000000 000012
                                  1239  	units (1),12
                        000001
    011571  aa   000000 000014
                                  1240  	units (3),0
                                  1241  	units (1),6
                        000001
    011575  aa   000000 000006
                                  1242  	units (15),0
                                  1243  	units (1),6
                        000001
    011615  aa   000000 000006
                                  1244  	units (1),0
                                  1245  	units (1),12
                        000001
    011617  aa   000000 000014
                                  1246  	units (1),9
                        000001
    011620  aa   000000 000011
                                  1247  	units (8),0
                                  1248  	units (1),6
                        000001
    011631  aa   000000 000006
                                  1249  	units (6),0
                                  1250  	units (1),12
                        000001
    011640  aa   000000 000014
                                  1251  	units (40),0
                                  1252  	units (1),6
                        000001
    011711  aa   000000 000006
                                  1253  	units (12),0
                                  1254  	units (2),12
                        000002
    011726  aa   000000 000014
    011727  aa   000000 000014
                                  1255  	units (3),6
                        000003
    011730  aa   000000 000006
    011731  aa   000000 000006
    011732  aa   000000 000006
                                  1256  	units (1),3
                        000001
    011733  aa   000000 000003
                                  1257  	units (22),6
                        000026
    011734  aa   000000 000006
    011735  aa   000000 000006
    011736  aa   000000 000006
    011737  aa   000000 000006
    011740  aa   000000 000006
    011741  aa   000000 000006
    011742  aa   000000 000006
    011743  aa   000000 000006
    011744  aa   000000 000006
    011745  aa   000000 000006
    011746  aa   000000 000006
    011747  aa   000000 000006
    011750  aa   000000 000006
    011751  aa   000000 000006
    011752  aa   000000 000006
    011753  aa   000000 000006
    011754  aa   000000 000006
    011755  aa   000000 000006
    011756  aa   000000 000006
    011757  aa   000000 000006
    011760  aa   000000 000006
    011761  aa   000000 000006
                                  1258  	units (1),0
                                  1259  	units (4),6
                        000004
    011763  aa   000000 000006
    011764  aa   000000 000006
    011765  aa   000000 000006
    011766  aa   000000 000006
                                  1260  	units (1),0
                                  1261  	units (5),6
                        000005
    011770  aa   000000 000006
    011771  aa   000000 000006
    011772  aa   000000 000006
    011773  aa   000000 000006
    011774  aa   000000 000006
                                  1262  	units (1),0
                                  1263  	units (5),6
                        000005
    011776  aa   000000 000006
    011777  aa   000000 000006
    012000  aa   000000 000006
    012001  aa   000000 000006
    012002  aa   000000 000006
                                  1264  	units (1),0
                                  1265  	units (5),6
                        000005
    012004  aa   000000 000006
    012005  aa   000000 000006
    012006  aa   000000 000006
    012007  aa   000000 000006
    012010  aa   000000 000006
                                  1266  	units (1),0
                                  1267  	units (5),6
                        000005
    012012  aa   000000 000006
    012013  aa   000000 000006
    012014  aa   000000 000006
    012015  aa   000000 000006
    012016  aa   000000 000006
                                  1268  	units (1),0
                                  1269  	units (5),6
                        000005
    012020  aa   000000 000006
    012021  aa   000000 000006
    012022  aa   000000 000006
    012023  aa   000000 000006
    012024  aa   000000 000006
                                  1270  	units (1),0
                                  1271  	units (5),6
                        000005
    012026  aa   000000 000006
    012027  aa   000000 000006
    012030  aa   000000 000006
    012031  aa   000000 000006
    012032  aa   000000 000006
                                  1272  	units (1),0
                                  1273  	units (5),6
                        000005
    012034  aa   000000 000006
    012035  aa   000000 000006
    012036  aa   000000 000006
    012037  aa   000000 000006
    012040  aa   000000 000006
                                  1274  	units (1),0
                                  1275  	units (4),6
                        000004
    012042  aa   000000 000006
    012043  aa   000000 000006
    012044  aa   000000 000006
    012045  aa   000000 000006
                                  1276  	units (2),0
                                  1277  	units (1),6
                        000001
    012050  aa   000000 000006
                                  1278  	units (1),0
                                  1279  	units (2),6
                        000002
    012052  aa   000000 000006
    012053  aa   000000 000006
                                  1280  	units (160),0
    012314                        1281  uni.6:
                                  1282  	units (32),0
                                  1283  	units (95),6
                        000137
    012354  aa   000000 000006
    012355  aa   000000 000006
    012356  aa   000000 000006
    012357  aa   000000 000006
    012360  aa   000000 000006
    012361  aa   000000 000006
    012362  aa   000000 000006
    012363  aa   000000 000006
    012364  aa   000000 000006
    012365  aa   000000 000006
    012366  aa   000000 000006
    012367  aa   000000 000006
    012370  aa   000000 000006
    012371  aa   000000 000006
    012372  aa   000000 000006
    012373  aa   000000 000006
    012374  aa   000000 000006
    012375  aa   000000 000006
    012376  aa   000000 000006
    012377  aa   000000 000006
    012400  aa   000000 000006
    012401  aa   000000 000006
    012402  aa   000000 000006
    012403  aa   000000 000006
    012404  aa   000000 000006
    012405  aa   000000 000006
    012406  aa   000000 000006
    012407  aa   000000 000006
    012410  aa   000000 000006
    012411  aa   000000 000006
    012412  aa   000000 000006
    012413  aa   000000 000006
    012414  aa   000000 000006
    012415  aa   000000 000006
    012416  aa   000000 000006
    012417  aa   000000 000006
    012420  aa   000000 000006
    012421  aa   000000 000006
    012422  aa   000000 000006
    012423  aa   000000 000006
    012424  aa   000000 000006
    012425  aa   000000 000006
    012426  aa   000000 000006
    012427  aa   000000 000006
    012430  aa   000000 000006
    012431  aa   000000 000006
    012432  aa   000000 000006
    012433  aa   000000 000006
    012434  aa   000000 000006
    012435  aa   000000 000006
    012436  aa   000000 000006
    012437  aa   000000 000006
    012440  aa   000000 000006
    012441  aa   000000 000006
    012442  aa   000000 000006
    012443  aa   000000 000006
    012444  aa   000000 000006
    012445  aa   000000 000006
    012446  aa   000000 000006
    012447  aa   000000 000006
    012450  aa   000000 000006
    012451  aa   000000 000006
    012452  aa   000000 000006
    012453  aa   000000 000006
    012454  aa   000000 000006
    012455  aa   000000 000006
    012456  aa   000000 000006
    012457  aa   000000 000006
    012460  aa   000000 000006
    012461  aa   000000 000006
    012462  aa   000000 000006
    012463  aa   000000 000006
    012464  aa   000000 000006
    012465  aa   000000 000006
    012466  aa   000000 000006
    012467  aa   000000 000006
    012470  aa   000000 000006
    012471  aa   000000 000006
    012472  aa   000000 000006
    012473  aa   000000 000006
    012474  aa   000000 000006
    012475  aa   000000 000006
    012476  aa   000000 000006
    012477  aa   000000 000006
    012500  aa   000000 000006
    012501  aa   000000 000006
    012502  aa   000000 000006
    012503  aa   000000 000006
    012504  aa   000000 000006
    012505  aa   000000 000006
    012506  aa   000000 000006
    012507  aa   000000 000006
    012510  aa   000000 000006
    012511  aa   000000 000006
    012512  aa   000000 000006
                                  1284  	units (30),0
                                  1285  	units (4),6
                        000004
    012551  aa   000000 000006
    012552  aa   000000 000006
    012553  aa   000000 000006
    012554  aa   000000 000006
                                  1286  	units (11),0
                                  1287  	units (1),10
                        000001
    012570  aa   000000 000012
                                  1288  	units (1),12
                        000001
    012571  aa   000000 000014
                                  1289  	units (3),0
                                  1290  	units (1),6
                        000001
    012575  aa   000000 000006
                                  1291  	units (15),0
                                  1292  	units (1),6
                        000001
    012615  aa   000000 000006
                                  1293  	units (1),0
                                  1294  	units (1),12
                        000001
    012617  aa   000000 000014
                                  1295  	units (1),9
                        000001
    012620  aa   000000 000011
                                  1296  	units (8),0
                                  1297  	units (1),6
                        000001
    012631  aa   000000 000006
                                  1298  	units (6),0
                                  1299  	units (1),12
                        000001
    012640  aa   000000 000014
                                  1300  	units (40),0
                                  1301  	units (1),6
                        000001
    012711  aa   000000 000006
                                  1302  	units (12),0
                                  1303  	units (2),12
                        000002
    012726  aa   000000 000014
    012727  aa   000000 000014
                                  1304  	units (3),6
                        000003
    012730  aa   000000 000006
    012731  aa   000000 000006
    012732  aa   000000 000006
                                  1305  	units (1),3
                        000001
    012733  aa   000000 000003
                                  1306  	units (22),6
                        000026
    012734  aa   000000 000006
    012735  aa   000000 000006
    012736  aa   000000 000006
    012737  aa   000000 000006
    012740  aa   000000 000006
    012741  aa   000000 000006
    012742  aa   000000 000006
    012743  aa   000000 000006
    012744  aa   000000 000006
    012745  aa   000000 000006
    012746  aa   000000 000006
    012747  aa   000000 000006
    012750  aa   000000 000006
    012751  aa   000000 000006
    012752  aa   000000 000006
    012753  aa   000000 000006
    012754  aa   000000 000006
    012755  aa   000000 000006
    012756  aa   000000 000006
    012757  aa   000000 000006
    012760  aa   000000 000006
    012761  aa   000000 000006
                                  1307  	units (1),0
                                  1308  	units (4),6
                        000004
    012763  aa   000000 000006
    012764  aa   000000 000006
    012765  aa   000000 000006
    012766  aa   000000 000006
                                  1309  	units (1),0
                                  1310  	units (5),6
                        000005
    012770  aa   000000 000006
    012771  aa   000000 000006
    012772  aa   000000 000006
    012773  aa   000000 000006
    012774  aa   000000 000006
                                  1311  	units (1),0
                                  1312  	units (5),6
                        000005
    012776  aa   000000 000006
    012777  aa   000000 000006
    013000  aa   000000 000006
    013001  aa   000000 000006
    013002  aa   000000 000006
                                  1313  	units (1),0
                                  1314  	units (5),6
                        000005
    013004  aa   000000 000006
    013005  aa   000000 000006
    013006  aa   000000 000006
    013007  aa   000000 000006
    013010  aa   000000 000006
                                  1315  	units (1),0
                                  1316  	units (5),6
                        000005
    013012  aa   000000 000006
    013013  aa   000000 000006
    013014  aa   000000 000006
    013015  aa   000000 000006
    013016  aa   000000 000006
                                  1317  	units (1),0
                                  1318  	units (5),6
                        000005
    013020  aa   000000 000006
    013021  aa   000000 000006
    013022  aa   000000 000006
    013023  aa   000000 000006
    013024  aa   000000 000006
                                  1319  	units (1),0
                                  1320  	units (5),6
                        000005
    013026  aa   000000 000006
    013027  aa   000000 000006
    013030  aa   000000 000006
    013031  aa   000000 000006
    013032  aa   000000 000006
                                  1321  	units (1),0
                                  1322  	units (5),6
                        000005
    013034  aa   000000 000006
    013035  aa   000000 000006
    013036  aa   000000 000006
    013037  aa   000000 000006
    013040  aa   000000 000006
                                  1323  	units (1),0
                                  1324  	units (4),6
                        000004
    013042  aa   000000 000006
    013043  aa   000000 000006
    013044  aa   000000 000006
    013045  aa   000000 000006
                                  1325  	units (2),0
                                  1326  	units (1),6
                        000001
    013050  aa   000000 000006
                                  1327  	units (1),0
                                  1328  	units (2),6
                        000002
    013052  aa   000000 000006
    013053  aa   000000 000006
                                  1329  	units (160),0
    013314                        1330  uni.7:
                                  1331  	units (32),0
                                  1332  	units (95),6
                        000137
    013354  aa   000000 000006
    013355  aa   000000 000006
    013356  aa   000000 000006
    013357  aa   000000 000006
    013360  aa   000000 000006
    013361  aa   000000 000006
    013362  aa   000000 000006
    013363  aa   000000 000006
    013364  aa   000000 000006
    013365  aa   000000 000006
    013366  aa   000000 000006
    013367  aa   000000 000006
    013370  aa   000000 000006
    013371  aa   000000 000006
    013372  aa   000000 000006
    013373  aa   000000 000006
    013374  aa   000000 000006
    013375  aa   000000 000006
    013376  aa   000000 000006
    013377  aa   000000 000006
    013400  aa   000000 000006
    013401  aa   000000 000006
    013402  aa   000000 000006
    013403  aa   000000 000006
    013404  aa   000000 000006
    013405  aa   000000 000006
    013406  aa   000000 000006
    013407  aa   000000 000006
    013410  aa   000000 000006
    013411  aa   000000 000006
    013412  aa   000000 000006
    013413  aa   000000 000006
    013414  aa   000000 000006
    013415  aa   000000 000006
    013416  aa   000000 000006
    013417  aa   000000 000006
    013420  aa   000000 000006
    013421  aa   000000 000006
    013422  aa   000000 000006
    013423  aa   000000 000006
    013424  aa   000000 000006
    013425  aa   000000 000006
    013426  aa   000000 000006
    013427  aa   000000 000006
    013430  aa   000000 000006
    013431  aa   000000 000006
    013432  aa   000000 000006
    013433  aa   000000 000006
    013434  aa   000000 000006
    013435  aa   000000 000006
    013436  aa   000000 000006
    013437  aa   000000 000006
    013440  aa   000000 000006
    013441  aa   000000 000006
    013442  aa   000000 000006
    013443  aa   000000 000006
    013444  aa   000000 000006
    013445  aa   000000 000006
    013446  aa   000000 000006
    013447  aa   000000 000006
    013450  aa   000000 000006
    013451  aa   000000 000006
    013452  aa   000000 000006
    013453  aa   000000 000006
    013454  aa   000000 000006
    013455  aa   000000 000006
    013456  aa   000000 000006
    013457  aa   000000 000006
    013460  aa   000000 000006
    013461  aa   000000 000006
    013462  aa   000000 000006
    013463  aa   000000 000006
    013464  aa   000000 000006
    013465  aa   000000 000006
    013466  aa   000000 000006
    013467  aa   000000 000006
    013470  aa   000000 000006
    013471  aa   000000 000006
    013472  aa   000000 000006
    013473  aa   000000 000006
    013474  aa   000000 000006
    013475  aa   000000 000006
    013476  aa   000000 000006
    013477  aa   000000 000006
    013500  aa   000000 000006
    013501  aa   000000 000006
    013502  aa   000000 000006
    013503  aa   000000 000006
    013504  aa   000000 000006
    013505  aa   000000 000006
    013506  aa   000000 000006
    013507  aa   000000 000006
    013510  aa   000000 000006
    013511  aa   000000 000006
    013512  aa   000000 000006
                                  1333  	units (30),0
                                  1334  	units (3),6
                        000003
    013551  aa   000000 000006
    013552  aa   000000 000006
    013553  aa   000000 000006
                                  1335  	units (12),0
                                  1336  	units (1),10
                        000001
    013570  aa   000000 000012
                                  1337  	units (4),0
                                  1338  	units (1),6
                        000001
    013575  aa   000000 000006
                                  1339  	units (15),0
                                  1340  	units (1),6
                        000001
    013615  aa   000000 000006
                                  1341  	units (1),0
                                  1342  	units (1),12
                        000001
    013617  aa   000000 000014
                                  1343  	units (1),9
                        000001
    013620  aa   000000 000011
                                  1344  	units (8),0
                                  1345  	units (1),6
                        000001
    013631  aa   000000 000006
                                  1346  	units (6),0
                                  1347  	units (1),12
                        000001
    013640  aa   000000 000014
                                  1348  	units (40),0
                                  1349  	units (1),6
                        000001
    013711  aa   000000 000006
                                  1350  	units (12),0
                                  1351  	units (2),12
                        000002
    013726  aa   000000 000014
    013727  aa   000000 000014
                                  1352  	units (2),6
                        000002
    013730  aa   000000 000006
    013731  aa   000000 000006
                                  1353  	units (1),0
                                  1354  	units (1),3
                        000001
    013733  aa   000000 000003
                                  1355  	units (3),0
                                  1356  	units (19),6
                        000023
    013737  aa   000000 000006
    013740  aa   000000 000006
    013741  aa   000000 000006
    013742  aa   000000 000006
    013743  aa   000000 000006
    013744  aa   000000 000006
    013745  aa   000000 000006
    013746  aa   000000 000006
    013747  aa   000000 000006
    013750  aa   000000 000006
    013751  aa   000000 000006
    013752  aa   000000 000006
    013753  aa   000000 000006
    013754  aa   000000 000006
    013755  aa   000000 000006
    013756  aa   000000 000006
    013757  aa   000000 000006
    013760  aa   000000 000006
    013761  aa   000000 000006
                                  1357  	units (1),0
                                  1358  	units (4),6
                        000004
    013763  aa   000000 000006
    013764  aa   000000 000006
    013765  aa   000000 000006
    013766  aa   000000 000006
                                  1359  	units (1),0
                                  1360  	units (5),6
                        000005
    013770  aa   000000 000006
    013771  aa   000000 000006
    013772  aa   000000 000006
    013773  aa   000000 000006
    013774  aa   000000 000006
                                  1361  	units (1),0
                                  1362  	units (5),6
                        000005
    013776  aa   000000 000006
    013777  aa   000000 000006
    014000  aa   000000 000006
    014001  aa   000000 000006
    014002  aa   000000 000006
                                  1363  	units (1),0
                                  1364  	units (5),6
                        000005
    014004  aa   000000 000006
    014005  aa   000000 000006
    014006  aa   000000 000006
    014007  aa   000000 000006
    014010  aa   000000 000006
                                  1365  	units (1),0
                                  1366  	units (5),6
                        000005
    014012  aa   000000 000006
    014013  aa   000000 000006
    014014  aa   000000 000006
    014015  aa   000000 000006
    014016  aa   000000 000006
                                  1367  	units (1),0
                                  1368  	units (5),6
                        000005
    014020  aa   000000 000006
    014021  aa   000000 000006
    014022  aa   000000 000006
    014023  aa   000000 000006
    014024  aa   000000 000006
                                  1369  	units (1),0
                                  1370  	units (5),6
                        000005
    014026  aa   000000 000006
    014027  aa   000000 000006
    014030  aa   000000 000006
    014031  aa   000000 000006
    014032  aa   000000 000006
                                  1371  	units (1),0
                                  1372  	units (5),6
                        000005
    014034  aa   000000 000006
    014035  aa   000000 000006
    014036  aa   000000 000006
    014037  aa   000000 000006
    014040  aa   000000 000006
                                  1373  	units (1),0
                                  1374  	units (4),6
                        000004
    014042  aa   000000 000006
    014043  aa   000000 000006
    014044  aa   000000 000006
    014045  aa   000000 000006
                                  1375  	units (2),0
                                  1376  	units (1),6
                        000001
    014050  aa   000000 000006
                                  1377  	units (1),0
                                  1378  	units (2),6
                        000002
    014052  aa   000000 000006
    014053  aa   000000 000006
                                  1379  	units (160),0
    014314                        1380  uni.8:
                                  1381  	units (8),0
                                  1382  	units (1),-5
                        000001
    014324  aa   777777 777773
                                  1383  	units (23),0
                                  1384  	units (95),5
                        000137
    014354  aa   000000 000005
    014355  aa   000000 000005
    014356  aa   000000 000005
    014357  aa   000000 000005
    014360  aa   000000 000005
    014361  aa   000000 000005
    014362  aa   000000 000005
    014363  aa   000000 000005
    014364  aa   000000 000005
    014365  aa   000000 000005
    014366  aa   000000 000005
    014367  aa   000000 000005
    014370  aa   000000 000005
    014371  aa   000000 000005
    014372  aa   000000 000005
    014373  aa   000000 000005
    014374  aa   000000 000005
    014375  aa   000000 000005
    014376  aa   000000 000005
    014377  aa   000000 000005
    014400  aa   000000 000005
    014401  aa   000000 000005
    014402  aa   000000 000005
    014403  aa   000000 000005
    014404  aa   000000 000005
    014405  aa   000000 000005
    014406  aa   000000 000005
    014407  aa   000000 000005
    014410  aa   000000 000005
    014411  aa   000000 000005
    014412  aa   000000 000005
    014413  aa   000000 000005
    014414  aa   000000 000005
    014415  aa   000000 000005
    014416  aa   000000 000005
    014417  aa   000000 000005
    014420  aa   000000 000005
    014421  aa   000000 000005
    014422  aa   000000 000005
    014423  aa   000000 000005
    014424  aa   000000 000005
    014425  aa   000000 000005
    014426  aa   000000 000005
    014427  aa   000000 000005
    014430  aa   000000 000005
    014431  aa   000000 000005
    014432  aa   000000 000005
    014433  aa   000000 000005
    014434  aa   000000 000005
    014435  aa   000000 000005
    014436  aa   000000 000005
    014437  aa   000000 000005
    014440  aa   000000 000005
    014441  aa   000000 000005
    014442  aa   000000 000005
    014443  aa   000000 000005
    014444  aa   000000 000005
    014445  aa   000000 000005
    014446  aa   000000 000005
    014447  aa   000000 000005
    014450  aa   000000 000005
    014451  aa   000000 000005
    014452  aa   000000 000005
    014453  aa   000000 000005
    014454  aa   000000 000005
    014455  aa   000000 000005
    014456  aa   000000 000005
    014457  aa   000000 000005
    014460  aa   000000 000005
    014461  aa   000000 000005
    014462  aa   000000 000005
    014463  aa   000000 000005
    014464  aa   000000 000005
    014465  aa   000000 000005
    014466  aa   000000 000005
    014467  aa   000000 000005
    014470  aa   000000 000005
    014471  aa   000000 000005
    014472  aa   000000 000005
    014473  aa   000000 000005
    014474  aa   000000 000005
    014475  aa   000000 000005
    014476  aa   000000 000005
    014477  aa   000000 000005
    014500  aa   000000 000005
    014501  aa   000000 000005
    014502  aa   000000 000005
    014503  aa   000000 000005
    014504  aa   000000 000005
    014505  aa   000000 000005
    014506  aa   000000 000005
    014507  aa   000000 000005
    014510  aa   000000 000005
    014511  aa   000000 000005
    014512  aa   000000 000005
                                  1385  	units (30),0
                                  1386  	units (3),5
                        000003
    014551  aa   000000 000005
    014552  aa   000000 000005
    014553  aa   000000 000005
                                  1387  	units (1),6
                        000001
    014554  aa   000000 000006
                                  1388  	units (11),0
                                  1389  	units (2),10
                        000002
    014570  aa   000000 000012
    014571  aa   000000 000012
                                  1390  	units (3),0
                                  1391  	units (1),6
                        000001
    014575  aa   000000 000006
                                  1392  	units (15),0
                                  1393  	units (1),6
                        000001
    014615  aa   000000 000006
                                  1394  	units (1),0
                                  1395  	units (1),12
                        000001
    014617  aa   000000 000014
                                  1396  	units (1),9
                        000001
    014620  aa   000000 000011
                                  1397  	units (8),0
                                  1398  	units (1),6
                        000001
    014631  aa   000000 000006
                                  1399  	units (6),0
                                  1400  	units (1),12
                        000001
    014640  aa   000000 000014
                                  1401  	units (40),0
                                  1402  	units (1),5
                        000001
    014711  aa   000000 000005
                                  1403  	units (1),0
                                  1404  	units (1),5
                        000001
    014713  aa   000000 000005
                                  1405  	units (10),0
                                  1406  	units (2),10
                        000002
    014726  aa   000000 000012
    014727  aa   000000 000012
                                  1407  	units (3),5
                        000003
    014730  aa   000000 000005
    014731  aa   000000 000005
    014732  aa   000000 000005
                                  1408  	units (1),3
                        000001
    014733  aa   000000 000003
                                  1409  	units (3),0
                                  1410  	units (19),6
                        000023
    014737  aa   000000 000006
    014740  aa   000000 000006
    014741  aa   000000 000006
    014742  aa   000000 000006
    014743  aa   000000 000006
    014744  aa   000000 000006
    014745  aa   000000 000006
    014746  aa   000000 000006
    014747  aa   000000 000006
    014750  aa   000000 000006
    014751  aa   000000 000006
    014752  aa   000000 000006
    014753  aa   000000 000006
    014754  aa   000000 000006
    014755  aa   000000 000006
    014756  aa   000000 000006
    014757  aa   000000 000006
    014760  aa   000000 000006
    014761  aa   000000 000006
                                  1411  	units (1),0
                                  1412  	units (4),6
                        000004
    014763  aa   000000 000006
    014764  aa   000000 000006
    014765  aa   000000 000006
    014766  aa   000000 000006
                                  1413  	units (1),0
                                  1414  	units (5),6
                        000005
    014770  aa   000000 000006
    014771  aa   000000 000006
    014772  aa   000000 000006
    014773  aa   000000 000006
    014774  aa   000000 000006
                                  1415  	units (1),0
                                  1416  	units (5),6
                        000005
    014776  aa   000000 000006
    014777  aa   000000 000006
    015000  aa   000000 000006
    015001  aa   000000 000006
    015002  aa   000000 000006
                                  1417  	units (1),0
                                  1418  	units (5),6
                        000005
    015004  aa   000000 000006
    015005  aa   000000 000006
    015006  aa   000000 000006
    015007  aa   000000 000006
    015010  aa   000000 000006
                                  1419  	units (1),0
                                  1420  	units (5),6
                        000005
    015012  aa   000000 000006
    015013  aa   000000 000006
    015014  aa   000000 000006
    015015  aa   000000 000006
    015016  aa   000000 000006
                                  1421  	units (1),0
                                  1422  	units (5),6
                        000005
    015020  aa   000000 000006
    015021  aa   000000 000006
    015022  aa   000000 000006
    015023  aa   000000 000006
    015024  aa   000000 000006
                                  1423  	units (1),0
                                  1424  	units (5),6
                        000005
    015026  aa   000000 000006
    015027  aa   000000 000006
    015030  aa   000000 000006
    015031  aa   000000 000006
    015032  aa   000000 000006
                                  1425  	units (1),0
                                  1426  	units (5),6
                        000005
    015034  aa   000000 000006
    015035  aa   000000 000006
    015036  aa   000000 000006
    015037  aa   000000 000006
    015040  aa   000000 000006
                                  1427  	units (1),0
                                  1428  	units (4),6
                        000004
    015042  aa   000000 000006
    015043  aa   000000 000006
    015044  aa   000000 000006
    015045  aa   000000 000006
                                  1429  	units (2),0
                                  1430  	units (1),6
                        000001
    015050  aa   000000 000006
                                  1431  	units (1),0
                                  1432  	units (2),6
                        000002
    015052  aa   000000 000006
    015053  aa   000000 000006
                                  1433  	units (160),0
    015314                        1434  uni.9:
                                  1435  	units (32),0
                                  1436  	units (1),5
                        000001
    015354  aa   000000 000005
                                  1437  	units (64),0
                                  1438  	units (26),5
                        000032
    015455  aa   000000 000005
    015456  aa   000000 000005
    015457  aa   000000 000005
    015460  aa   000000 000005
    015461  aa   000000 000005
    015462  aa   000000 000005
    015463  aa   000000 000005
    015464  aa   000000 000005
    015465  aa   000000 000005
    015466  aa   000000 000005
    015467  aa   000000 000005
    015470  aa   000000 000005
    015471  aa   000000 000005
    015472  aa   000000 000005
    015473  aa   000000 000005
    015474  aa   000000 000005
    015475  aa   000000 000005
    015476  aa   000000 000005
    015477  aa   000000 000005
    015500  aa   000000 000005
    015501  aa   000000 000005
    015502  aa   000000 000005
    015503  aa   000000 000005
    015504  aa   000000 000005
    015505  aa   000000 000005
    015506  aa   000000 000005
                                  1439  	units (34),0
                                  1440  	units (3),5
                        000003
    015551  aa   000000 000005
    015552  aa   000000 000005
    015553  aa   000000 000005
                                  1441  	units (12),0
                                  1442  	units (1),10
                        000001
    015570  aa   000000 000012
                                  1443  	units (4),0
                                  1444  	units (1),6
                        000001
    015575  aa   000000 000006
                                  1445  	units (15),0
                                  1446  	units (1),6
                        000001
    015615  aa   000000 000006
                                  1447  	units (1),0
                                  1448  	units (1),12
                        000001
    015617  aa   000000 000014
                                  1449  	units (1),9
                        000001
    015620  aa   000000 000011
                                  1450  	units (8),0
                                  1451  	units (1),6
                        000001
    015631  aa   000000 000006
                                  1452  	units (6),0
                                  1453  	units (1),12
                        000001
    015640  aa   000000 000014
                                  1454  	units (40),0
                                  1455  	units (1),5
                        000001
    015711  aa   000000 000005
                                  1456  	units (12),0
                                  1457  	units (2),10
                        000002
    015726  aa   000000 000012
    015727  aa   000000 000012
                                  1458  	units (2),5
                        000002
    015730  aa   000000 000005
    015731  aa   000000 000005
                                  1459  	units (1),0
                                  1460  	units (1),3
                        000001
    015733  aa   000000 000003
                                  1461  	units (3),0
                                  1462  	units (19),6
                        000023
    015737  aa   000000 000006
    015740  aa   000000 000006
    015741  aa   000000 000006
    015742  aa   000000 000006
    015743  aa   000000 000006
    015744  aa   000000 000006
    015745  aa   000000 000006
    015746  aa   000000 000006
    015747  aa   000000 000006
    015750  aa   000000 000006
    015751  aa   000000 000006
    015752  aa   000000 000006
    015753  aa   000000 000006
    015754  aa   000000 000006
    015755  aa   000000 000006
    015756  aa   000000 000006
    015757  aa   000000 000006
    015760  aa   000000 000006
    015761  aa   000000 000006
                                  1463  	units (1),0
                                  1464  	units (4),6
                        000004
    015763  aa   000000 000006
    015764  aa   000000 000006
    015765  aa   000000 000006
    015766  aa   000000 000006
                                  1465  	units (1),0
                                  1466  	units (5),6
                        000005
    015770  aa   000000 000006
    015771  aa   000000 000006
    015772  aa   000000 000006
    015773  aa   000000 000006
    015774  aa   000000 000006
                                  1467  	units (1),0
                                  1468  	units (5),6
                        000005
    015776  aa   000000 000006
    015777  aa   000000 000006
    016000  aa   000000 000006
    016001  aa   000000 000006
    016002  aa   000000 000006
                                  1469  	units (1),0
                                  1470  	units (5),6
                        000005
    016004  aa   000000 000006
    016005  aa   000000 000006
    016006  aa   000000 000006
    016007  aa   000000 000006
    016010  aa   000000 000006
                                  1471  	units (1),0
                                  1472  	units (5),6
                        000005
    016012  aa   000000 000006
    016013  aa   000000 000006
    016014  aa   000000 000006
    016015  aa   000000 000006
    016016  aa   000000 000006
                                  1473  	units (1),0
                                  1474  	units (5),6
                        000005
    016020  aa   000000 000006
    016021  aa   000000 000006
    016022  aa   000000 000006
    016023  aa   000000 000006
    016024  aa   000000 000006
                                  1475  	units (1),0
                                  1476  	units (5),6
                        000005
    016026  aa   000000 000006
    016027  aa   000000 000006
    016030  aa   000000 000006
    016031  aa   000000 000006
    016032  aa   000000 000006
                                  1477  	units (1),0
                                  1478  	units (5),6
                        000005
    016034  aa   000000 000006
    016035  aa   000000 000006
    016036  aa   000000 000006
    016037  aa   000000 000006
    016040  aa   000000 000006
                                  1479  	units (1),0
                                  1480  	units (4),6
                        000004
    016042  aa   000000 000006
    016043  aa   000000 000006
    016044  aa   000000 000006
    016045  aa   000000 000006
                                  1481  	units (2),0
                                  1482  	units (1),6
                        000001
    016050  aa   000000 000006
                                  1483  	units (1),0
                                  1484  	units (2),6
                        000002
    016052  aa   000000 000006
    016053  aa   000000 000006
                                  1485  	units (160),0
    016314                        1486  uni.10:
                                  1487  	units (32),0
                                  1488  	units (95),5
                        000137
    016354  aa   000000 000005
    016355  aa   000000 000005
    016356  aa   000000 000005
    016357  aa   000000 000005
    016360  aa   000000 000005
    016361  aa   000000 000005
    016362  aa   000000 000005
    016363  aa   000000 000005
    016364  aa   000000 000005
    016365  aa   000000 000005
    016366  aa   000000 000005
    016367  aa   000000 000005
    016370  aa   000000 000005
    016371  aa   000000 000005
    016372  aa   000000 000005
    016373  aa   000000 000005
    016374  aa   000000 000005
    016375  aa   000000 000005
    016376  aa   000000 000005
    016377  aa   000000 000005
    016400  aa   000000 000005
    016401  aa   000000 000005
    016402  aa   000000 000005
    016403  aa   000000 000005
    016404  aa   000000 000005
    016405  aa   000000 000005
    016406  aa   000000 000005
    016407  aa   000000 000005
    016410  aa   000000 000005
    016411  aa   000000 000005
    016412  aa   000000 000005
    016413  aa   000000 000005
    016414  aa   000000 000005
    016415  aa   000000 000005
    016416  aa   000000 000005
    016417  aa   000000 000005
    016420  aa   000000 000005
    016421  aa   000000 000005
    016422  aa   000000 000005
    016423  aa   000000 000005
    016424  aa   000000 000005
    016425  aa   000000 000005
    016426  aa   000000 000005
    016427  aa   000000 000005
    016430  aa   000000 000005
    016431  aa   000000 000005
    016432  aa   000000 000005
    016433  aa   000000 000005
    016434  aa   000000 000005
    016435  aa   000000 000005
    016436  aa   000000 000005
    016437  aa   000000 000005
    016440  aa   000000 000005
    016441  aa   000000 000005
    016442  aa   000000 000005
    016443  aa   000000 000005
    016444  aa   000000 000005
    016445  aa   000000 000005
    016446  aa   000000 000005
    016447  aa   000000 000005
    016450  aa   000000 000005
    016451  aa   000000 000005
    016452  aa   000000 000005
    016453  aa   000000 000005
    016454  aa   000000 000005
    016455  aa   000000 000005
    016456  aa   000000 000005
    016457  aa   000000 000005
    016460  aa   000000 000005
    016461  aa   000000 000005
    016462  aa   000000 000005
    016463  aa   000000 000005
    016464  aa   000000 000005
    016465  aa   000000 000005
    016466  aa   000000 000005
    016467  aa   000000 000005
    016470  aa   000000 000005
    016471  aa   000000 000005
    016472  aa   000000 000005
    016473  aa   000000 000005
    016474  aa   000000 000005
    016475  aa   000000 000005
    016476  aa   000000 000005
    016477  aa   000000 000005
    016500  aa   000000 000005
    016501  aa   000000 000005
    016502  aa   000000 000005
    016503  aa   000000 000005
    016504  aa   000000 000005
    016505  aa   000000 000005
    016506  aa   000000 000005
    016507  aa   000000 000005
    016510  aa   000000 000005
    016511  aa   000000 000005
    016512  aa   000000 000005
                                  1489  	units (30),0
                                  1490  	units (4),5
                        000004
    016551  aa   000000 000005
    016552  aa   000000 000005
    016553  aa   000000 000005
    016554  aa   000000 000005
                                  1491  	units (11),0
                                  1492  	units (2),10
                        000002
    016570  aa   000000 000012
    016571  aa   000000 000012
                                  1493  	units (3),0
                                  1494  	units (1),6
                        000001
    016575  aa   000000 000006
                                  1495  	units (15),0
                                  1496  	units (1),6
                        000001
    016615  aa   000000 000006
                                  1497  	units (1),0
                                  1498  	units (1),12
                        000001
    016617  aa   000000 000014
                                  1499  	units (1),9
                        000001
    016620  aa   000000 000011
                                  1500  	units (8),0
                                  1501  	units (1),6
                        000001
    016631  aa   000000 000006
                                  1502  	units (6),0
                                  1503  	units (1),12
                        000001
    016640  aa   000000 000014
                                  1504  	units (40),0
                                  1505  	units (1),5
                        000001
    016711  aa   000000 000005
                                  1506  	units (12),0
                                  1507  	units (2),10
                        000002
    016726  aa   000000 000012
    016727  aa   000000 000012
                                  1508  	units (3),5
                        000003
    016730  aa   000000 000005
    016731  aa   000000 000005
    016732  aa   000000 000005
                                  1509  	units (1),3
                        000001
    016733  aa   000000 000003
                                  1510  	units (3),5
                        000003
    016734  aa   000000 000005
    016735  aa   000000 000005
    016736  aa   000000 000005
                                  1511  	units (19),6
                        000023
    016737  aa   000000 000006
    016740  aa   000000 000006
    016741  aa   000000 000006
    016742  aa   000000 000006
    016743  aa   000000 000006
    016744  aa   000000 000006
    016745  aa   000000 000006
    016746  aa   000000 000006
    016747  aa   000000 000006
    016750  aa   000000 000006
    016751  aa   000000 000006
    016752  aa   000000 000006
    016753  aa   000000 000006
    016754  aa   000000 000006
    016755  aa   000000 000006
    016756  aa   000000 000006
    016757  aa   000000 000006
    016760  aa   000000 000006
    016761  aa   000000 000006
                                  1512  	units (1),0
                                  1513  	units (4),6
                        000004
    016763  aa   000000 000006
    016764  aa   000000 000006
    016765  aa   000000 000006
    016766  aa   000000 000006
                                  1514  	units (1),0
                                  1515  	units (5),6
                        000005
    016770  aa   000000 000006
    016771  aa   000000 000006
    016772  aa   000000 000006
    016773  aa   000000 000006
    016774  aa   000000 000006
                                  1516  	units (1),0
                                  1517  	units (5),6
                        000005
    016776  aa   000000 000006
    016777  aa   000000 000006
    017000  aa   000000 000006
    017001  aa   000000 000006
    017002  aa   000000 000006
                                  1518  	units (1),0
                                  1519  	units (5),6
                        000005
    017004  aa   000000 000006
    017005  aa   000000 000006
    017006  aa   000000 000006
    017007  aa   000000 000006
    017010  aa   000000 000006
                                  1520  	units (1),0
                                  1521  	units (5),6
                        000005
    017012  aa   000000 000006
    017013  aa   000000 000006
    017014  aa   000000 000006
    017015  aa   000000 000006
    017016  aa   000000 000006
                                  1522  	units (1),0
                                  1523  	units (5),6
                        000005
    017020  aa   000000 000006
    017021  aa   000000 000006
    017022  aa   000000 000006
    017023  aa   000000 000006
    017024  aa   000000 000006
                                  1524  	units (1),0
                                  1525  	units (5),6
                        000005
    017026  aa   000000 000006
    017027  aa   000000 000006
    017030  aa   000000 000006
    017031  aa   000000 000006
    017032  aa   000000 000006
                                  1526  	units (1),0
                                  1527  	units (5),6
                        000005
    017034  aa   000000 000006
    017035  aa   000000 000006
    017036  aa   000000 000006
    017037  aa   000000 000006
    017040  aa   000000 000006
                                  1528  	units (1),0
                                  1529  	units (4),6
                        000004
    017042  aa   000000 000006
    017043  aa   000000 000006
    017044  aa   000000 000006
    017045  aa   000000 000006
                                  1530  	units (2),0
                                  1531  	units (1),6
                        000001
    017050  aa   000000 000006
                                  1532  	units (1),0
                                  1533  	units (2),6
                        000002
    017052  aa   000000 000006
    017053  aa   000000 000006
                                  1534  	units (160),0
    017314                        1535  uni.11:
                                  1536  	units (32),0
                                  1537  	units (1),5
                        000001
    017354  aa   000000 000005
                                  1538  	units (64),0
                                  1539  	units (26),5
                        000032
    017455  aa   000000 000005
    017456  aa   000000 000005
    017457  aa   000000 000005
    017460  aa   000000 000005
    017461  aa   000000 000005
    017462  aa   000000 000005
    017463  aa   000000 000005
    017464  aa   000000 000005
    017465  aa   000000 000005
    017466  aa   000000 000005
    017467  aa   000000 000005
    017470  aa   000000 000005
    017471  aa   000000 000005
    017472  aa   000000 000005
    017473  aa   000000 000005
    017474  aa   000000 000005
    017475  aa   000000 000005
    017476  aa   000000 000005
    017477  aa   000000 000005
    017500  aa   000000 000005
    017501  aa   000000 000005
    017502  aa   000000 000005
    017503  aa   000000 000005
    017504  aa   000000 000005
    017505  aa   000000 000005
    017506  aa   000000 000005
                                  1540  	units (34),0
                                  1541  	units (3),5
                        000003
    017551  aa   000000 000005
    017552  aa   000000 000005
    017553  aa   000000 000005
                                  1542  	units (12),0
                                  1543  	units (1),10
                        000001
    017570  aa   000000 000012
                                  1544  	units (4),0
                                  1545  	units (1),6
                        000001
    017575  aa   000000 000006
                                  1546  	units (15),0
                                  1547  	units (1),6
                        000001
    017615  aa   000000 000006
                                  1548  	units (1),0
                                  1549  	units (1),12
                        000001
    017617  aa   000000 000014
                                  1550  	units (1),9
                        000001
    017620  aa   000000 000011
                                  1551  	units (8),0
                                  1552  	units (1),6
                        000001
    017631  aa   000000 000006
                                  1553  	units (6),0
                                  1554  	units (1),12
                        000001
    017640  aa   000000 000014
                                  1555  	units (40),0
                                  1556  	units (1),5
                        000001
    017711  aa   000000 000005
                                  1557  	units (12),0
                                  1558  	units (2),10
                        000002
    017726  aa   000000 000012
    017727  aa   000000 000012
                                  1559  	units (2),5
                        000002
    017730  aa   000000 000005
    017731  aa   000000 000005
                                  1560  	units (1),0
                                  1561  	units (1),3
                        000001
    017733  aa   000000 000003
                                  1562  	units (3),0
                                  1563  	units (19),6
                        000023
    017737  aa   000000 000006
    017740  aa   000000 000006
    017741  aa   000000 000006
    017742  aa   000000 000006
    017743  aa   000000 000006
    017744  aa   000000 000006
    017745  aa   000000 000006
    017746  aa   000000 000006
    017747  aa   000000 000006
    017750  aa   000000 000006
    017751  aa   000000 000006
    017752  aa   000000 000006
    017753  aa   000000 000006
    017754  aa   000000 000006
    017755  aa   000000 000006
    017756  aa   000000 000006
    017757  aa   000000 000006
    017760  aa   000000 000006
    017761  aa   000000 000006
                                  1564  	units (1),0
                                  1565  	units (4),6
                        000004
    017763  aa   000000 000006
    017764  aa   000000 000006
    017765  aa   000000 000006
    017766  aa   000000 000006
                                  1566  	units (1),0
                                  1567  	units (5),6
                        000005
    017770  aa   000000 000006
    017771  aa   000000 000006
    017772  aa   000000 000006
    017773  aa   000000 000006
    017774  aa   000000 000006
                                  1568  	units (1),0
                                  1569  	units (5),6
                        000005
    017776  aa   000000 000006
    017777  aa   000000 000006
    020000  aa   000000 000006
    020001  aa   000000 000006
    020002  aa   000000 000006
                                  1570  	units (1),0
                                  1571  	units (5),6
                        000005
    020004  aa   000000 000006
    020005  aa   000000 000006
    020006  aa   000000 000006
    020007  aa   000000 000006
    020010  aa   000000 000006
                                  1572  	units (1),0
                                  1573  	units (5),6
                        000005
    020012  aa   000000 000006
    020013  aa   000000 000006
    020014  aa   000000 000006
    020015  aa   000000 000006
    020016  aa   000000 000006
                                  1574  	units (1),0
                                  1575  	units (5),6
                        000005
    020020  aa   000000 000006
    020021  aa   000000 000006
    020022  aa   000000 000006
    020023  aa   000000 000006
    020024  aa   000000 000006
                                  1576  	units (1),0
                                  1577  	units (5),6
                        000005
    020026  aa   000000 000006
    020027  aa   000000 000006
    020030  aa   000000 000006
    020031  aa   000000 000006
    020032  aa   000000 000006
                                  1578  	units (1),0
                                  1579  	units (5),6
                        000005
    020034  aa   000000 000006
    020035  aa   000000 000006
    020036  aa   000000 000006
    020037  aa   000000 000006
    020040  aa   000000 000006
                                  1580  	units (1),0
                                  1581  	units (4),6
                        000004
    020042  aa   000000 000006
    020043  aa   000000 000006
    020044  aa   000000 000006
    020045  aa   000000 000006
                                  1582  	units (2),0
                                  1583  	units (1),6
                        000001
    020050  aa   000000 000006
                                  1584  	units (1),0
                                  1585  	units (2),6
                        000002
    020052  aa   000000 000006
    020053  aa   000000 000006
                                  1586  	units (160),0
    020314                        1587  uni.12:
                                  1588  	units (8),0
                                  1589  	units (1),-4
                        000001
    020324  aa   777777 777774
                                  1590  	units (23),0
                                  1591  	units (95),4
                        000137
    020354  aa   000000 000004
    020355  aa   000000 000004
    020356  aa   000000 000004
    020357  aa   000000 000004
    020360  aa   000000 000004
    020361  aa   000000 000004
    020362  aa   000000 000004
    020363  aa   000000 000004
    020364  aa   000000 000004
    020365  aa   000000 000004
    020366  aa   000000 000004
    020367  aa   000000 000004
    020370  aa   000000 000004
    020371  aa   000000 000004
    020372  aa   000000 000004
    020373  aa   000000 000004
    020374  aa   000000 000004
    020375  aa   000000 000004
    020376  aa   000000 000004
    020377  aa   000000 000004
    020400  aa   000000 000004
    020401  aa   000000 000004
    020402  aa   000000 000004
    020403  aa   000000 000004
    020404  aa   000000 000004
    020405  aa   000000 000004
    020406  aa   000000 000004
    020407  aa   000000 000004
    020410  aa   000000 000004
    020411  aa   000000 000004
    020412  aa   000000 000004
    020413  aa   000000 000004
    020414  aa   000000 000004
    020415  aa   000000 000004
    020416  aa   000000 000004
    020417  aa   000000 000004
    020420  aa   000000 000004
    020421  aa   000000 000004
    020422  aa   000000 000004
    020423  aa   000000 000004
    020424  aa   000000 000004
    020425  aa   000000 000004
    020426  aa   000000 000004
    020427  aa   000000 000004
    020430  aa   000000 000004
    020431  aa   000000 000004
    020432  aa   000000 000004
    020433  aa   000000 000004
    020434  aa   000000 000004
    020435  aa   000000 000004
    020436  aa   000000 000004
    020437  aa   000000 000004
    020440  aa   000000 000004
    020441  aa   000000 000004
    020442  aa   000000 000004
    020443  aa   000000 000004
    020444  aa   000000 000004
    020445  aa   000000 000004
    020446  aa   000000 000004
    020447  aa   000000 000004
    020450  aa   000000 000004
    020451  aa   000000 000004
    020452  aa   000000 000004
    020453  aa   000000 000004
    020454  aa   000000 000004
    020455  aa   000000 000004
    020456  aa   000000 000004
    020457  aa   000000 000004
    020460  aa   000000 000004
    020461  aa   000000 000004
    020462  aa   000000 000004
    020463  aa   000000 000004
    020464  aa   000000 000004
    020465  aa   000000 000004
    020466  aa   000000 000004
    020467  aa   000000 000004
    020470  aa   000000 000004
    020471  aa   000000 000004
    020472  aa   000000 000004
    020473  aa   000000 000004
    020474  aa   000000 000004
    020475  aa   000000 000004
    020476  aa   000000 000004
    020477  aa   000000 000004
    020500  aa   000000 000004
    020501  aa   000000 000004
    020502  aa   000000 000004
    020503  aa   000000 000004
    020504  aa   000000 000004
    020505  aa   000000 000004
    020506  aa   000000 000004
    020507  aa   000000 000004
    020510  aa   000000 000004
    020511  aa   000000 000004
    020512  aa   000000 000004
                                  1592  	units (30),0
                                  1593  	units (4),4
                        000004
    020551  aa   000000 000004
    020552  aa   000000 000004
    020553  aa   000000 000004
    020554  aa   000000 000004
                                  1594  	units (11),0
                                  1595  	units (1),10
                        000001
    020570  aa   000000 000012
                                  1596  	units (1),8
                        000001
    020571  aa   000000 000010
                                  1597  	units (3),0
                                  1598  	units (1),6
                        000001
    020575  aa   000000 000006
                                  1599  	units (15),0
                                  1600  	units (1),6
                        000001
    020615  aa   000000 000006
                                  1601  	units (1),0
                                  1602  	units (1),12
                        000001
    020617  aa   000000 000014
                                  1603  	units (1),9
                        000001
    020620  aa   000000 000011
                                  1604  	units (8),0
                                  1605  	units (1),6
                        000001
    020631  aa   000000 000006
                                  1606  	units (6),0
                                  1607  	units (1),12
                        000001
    020640  aa   000000 000014
                                  1608  	units (40),0
                                  1609  	units (1),4
                        000001
    020711  aa   000000 000004
                                  1610  	units (12),0
                                  1611  	units (2),8
                        000002
    020726  aa   000000 000010
    020727  aa   000000 000010
                                  1612  	units (3),4
                        000003
    020730  aa   000000 000004
    020731  aa   000000 000004
    020732  aa   000000 000004
                                  1613  	units (1),3
                        000001
    020733  aa   000000 000003
                                  1614  	units (1),0
                                  1615  	units (2),4
                        000002
    020735  aa   000000 000004
    020736  aa   000000 000004
                                  1616  	units (19),6
                        000023
    020737  aa   000000 000006
    020740  aa   000000 000006
    020741  aa   000000 000006
    020742  aa   000000 000006
    020743  aa   000000 000006
    020744  aa   000000 000006
    020745  aa   000000 000006
    020746  aa   000000 000006
    020747  aa   000000 000006
    020750  aa   000000 000006
    020751  aa   000000 000006
    020752  aa   000000 000006
    020753  aa   000000 000006
    020754  aa   000000 000006
    020755  aa   000000 000006
    020756  aa   000000 000006
    020757  aa   000000 000006
    020760  aa   000000 000006
    020761  aa   000000 000006
                                  1617  	units (1),0
                                  1618  	units (4),6
                        000004
    020763  aa   000000 000006
    020764  aa   000000 000006
    020765  aa   000000 000006
    020766  aa   000000 000006
                                  1619  	units (1),0
                                  1620  	units (5),6
                        000005
    020770  aa   000000 000006
    020771  aa   000000 000006
    020772  aa   000000 000006
    020773  aa   000000 000006
    020774  aa   000000 000006
                                  1621  	units (1),0
                                  1622  	units (5),6
                        000005
    020776  aa   000000 000006
    020777  aa   000000 000006
    021000  aa   000000 000006
    021001  aa   000000 000006
    021002  aa   000000 000006
                                  1623  	units (1),0
                                  1624  	units (5),6
                        000005
    021004  aa   000000 000006
    021005  aa   000000 000006
    021006  aa   000000 000006
    021007  aa   000000 000006
    021010  aa   000000 000006
                                  1625  	units (1),0
                                  1626  	units (5),6
                        000005
    021012  aa   000000 000006
    021013  aa   000000 000006
    021014  aa   000000 000006
    021015  aa   000000 000006
    021016  aa   000000 000006
                                  1627  	units (1),0
                                  1628  	units (5),6
                        000005
    021020  aa   000000 000006
    021021  aa   000000 000006
    021022  aa   000000 000006
    021023  aa   000000 000006
    021024  aa   000000 000006
                                  1629  	units (1),0
                                  1630  	units (5),6
                        000005
    021026  aa   000000 000006
    021027  aa   000000 000006
    021030  aa   000000 000006
    021031  aa   000000 000006
    021032  aa   000000 000006
                                  1631  	units (1),0
                                  1632  	units (5),6
                        000005
    021034  aa   000000 000006
    021035  aa   000000 000006
    021036  aa   000000 000006
    021037  aa   000000 000006
    021040  aa   000000 000006
                                  1633  	units (1),0
                                  1634  	units (4),6
                        000004
    021042  aa   000000 000006
    021043  aa   000000 000006
    021044  aa   000000 000006
    021045  aa   000000 000006
                                  1635  	units (2),0
                                  1636  	units (1),6
                        000001
    021050  aa   000000 000006
                                  1637  	units (1),0
                                  1638  	units (2),6
                        000002
    021052  aa   000000 000006
    021053  aa   000000 000006
                                  1639  	units (160),0
    021314                        1640  uni.13:
                                  1641  	units (32),0
                                  1642  	units (1),4
                        000001
    021354  aa   000000 000004
                                  1643  	units (64),0
                                  1644  	units (26),4
                        000032
    021455  aa   000000 000004
    021456  aa   000000 000004
    021457  aa   000000 000004
    021460  aa   000000 000004
    021461  aa   000000 000004
    021462  aa   000000 000004
    021463  aa   000000 000004
    021464  aa   000000 000004
    021465  aa   000000 000004
    021466  aa   000000 000004
    021467  aa   000000 000004
    021470  aa   000000 000004
    021471  aa   000000 000004
    021472  aa   000000 000004
    021473  aa   000000 000004
    021474  aa   000000 000004
    021475  aa   000000 000004
    021476  aa   000000 000004
    021477  aa   000000 000004
    021500  aa   000000 000004
    021501  aa   000000 000004
    021502  aa   000000 000004
    021503  aa   000000 000004
    021504  aa   000000 000004
    021505  aa   000000 000004
    021506  aa   000000 000004
                                  1645  	units (34),0
                                  1646  	units (3),4
                        000003
    021551  aa   000000 000004
    021552  aa   000000 000004
    021553  aa   000000 000004
                                  1647  	units (12),0
                                  1648  	units (1),10
                        000001
    021570  aa   000000 000012
                                  1649  	units (4),0
                                  1650  	units (1),6
                        000001
    021575  aa   000000 000006
                                  1651  	units (15),0
                                  1652  	units (1),6
                        000001
    021615  aa   000000 000006
                                  1653  	units (1),0
                                  1654  	units (1),12
                        000001
    021617  aa   000000 000014
                                  1655  	units (1),9
                        000001
    021620  aa   000000 000011
                                  1656  	units (8),0
                                  1657  	units (1),6
                        000001
    021631  aa   000000 000006
                                  1658  	units (6),0
                                  1659  	units (1),12
                        000001
    021640  aa   000000 000014
                                  1660  	units (40),0
                                  1661  	units (1),4
                        000001
    021711  aa   000000 000004
                                  1662  	units (12),0
                                  1663  	units (2),8
                        000002
    021726  aa   000000 000010
    021727  aa   000000 000010
                                  1664  	units (2),4
                        000002
    021730  aa   000000 000004
    021731  aa   000000 000004
                                  1665  	units (1),0
                                  1666  	units (1),3
                        000001
    021733  aa   000000 000003
                                  1667  	units (3),0
                                  1668  	units (19),6
                        000023
    021737  aa   000000 000006
    021740  aa   000000 000006
    021741  aa   000000 000006
    021742  aa   000000 000006
    021743  aa   000000 000006
    021744  aa   000000 000006
    021745  aa   000000 000006
    021746  aa   000000 000006
    021747  aa   000000 000006
    021750  aa   000000 000006
    021751  aa   000000 000006
    021752  aa   000000 000006
    021753  aa   000000 000006
    021754  aa   000000 000006
    021755  aa   000000 000006
    021756  aa   000000 000006
    021757  aa   000000 000006
    021760  aa   000000 000006
    021761  aa   000000 000006
                                  1669  	units (1),0
                                  1670  	units (4),6
                        000004
    021763  aa   000000 000006
    021764  aa   000000 000006
    021765  aa   000000 000006
    021766  aa   000000 000006
                                  1671  	units (1),0
                                  1672  	units (5),6
                        000005
    021770  aa   000000 000006
    021771  aa   000000 000006
    021772  aa   000000 000006
    021773  aa   000000 000006
    021774  aa   000000 000006
                                  1673  	units (1),0
                                  1674  	units (5),6
                        000005
    021776  aa   000000 000006
    021777  aa   000000 000006
    022000  aa   000000 000006
    022001  aa   000000 000006
    022002  aa   000000 000006
                                  1675  	units (1),0
                                  1676  	units (5),6
                        000005
    022004  aa   000000 000006
    022005  aa   000000 000006
    022006  aa   000000 000006
    022007  aa   000000 000006
    022010  aa   000000 000006
                                  1677  	units (1),0
                                  1678  	units (5),6
                        000005
    022012  aa   000000 000006
    022013  aa   000000 000006
    022014  aa   000000 000006
    022015  aa   000000 000006
    022016  aa   000000 000006
                                  1679  	units (1),0
                                  1680  	units (5),6
                        000005
    022020  aa   000000 000006
    022021  aa   000000 000006
    022022  aa   000000 000006
    022023  aa   000000 000006
    022024  aa   000000 000006
                                  1681  	units (1),0
                                  1682  	units (5),6
                        000005
    022026  aa   000000 000006
    022027  aa   000000 000006
    022030  aa   000000 000006
    022031  aa   000000 000006
    022032  aa   000000 000006
                                  1683  	units (1),0
                                  1684  	units (5),6
                        000005
    022034  aa   000000 000006
    022035  aa   000000 000006
    022036  aa   000000 000006
    022037  aa   000000 000006
    022040  aa   000000 000006
                                  1685  	units (1),0
                                  1686  	units (4),6
                        000004
    022042  aa   000000 000006
    022043  aa   000000 000006
    022044  aa   000000 000006
    022045  aa   000000 000006
                                  1687  	units (2),0
                                  1688  	units (1),6
                        000001
    022050  aa   000000 000006
                                  1689  	units (1),0
                                  1690  	units (2),6
                        000002
    022052  aa   000000 000006
    022053  aa   000000 000006
                                  1691  	units (160),0
    022314                        1692  uni.14:
                                  1693  	units (32),0
                                  1694  	units (95),4
                        000137
    022354  aa   000000 000004
    022355  aa   000000 000004
    022356  aa   000000 000004
    022357  aa   000000 000004
    022360  aa   000000 000004
    022361  aa   000000 000004
    022362  aa   000000 000004
    022363  aa   000000 000004
    022364  aa   000000 000004
    022365  aa   000000 000004
    022366  aa   000000 000004
    022367  aa   000000 000004
    022370  aa   000000 000004
    022371  aa   000000 000004
    022372  aa   000000 000004
    022373  aa   000000 000004
    022374  aa   000000 000004
    022375  aa   000000 000004
    022376  aa   000000 000004
    022377  aa   000000 000004
    022400  aa   000000 000004
    022401  aa   000000 000004
    022402  aa   000000 000004
    022403  aa   000000 000004
    022404  aa   000000 000004
    022405  aa   000000 000004
    022406  aa   000000 000004
    022407  aa   000000 000004
    022410  aa   000000 000004
    022411  aa   000000 000004
    022412  aa   000000 000004
    022413  aa   000000 000004
    022414  aa   000000 000004
    022415  aa   000000 000004
    022416  aa   000000 000004
    022417  aa   000000 000004
    022420  aa   000000 000004
    022421  aa   000000 000004
    022422  aa   000000 000004
    022423  aa   000000 000004
    022424  aa   000000 000004
    022425  aa   000000 000004
    022426  aa   000000 000004
    022427  aa   000000 000004
    022430  aa   000000 000004
    022431  aa   000000 000004
    022432  aa   000000 000004
    022433  aa   000000 000004
    022434  aa   000000 000004
    022435  aa   000000 000004
    022436  aa   000000 000004
    022437  aa   000000 000004
    022440  aa   000000 000004
    022441  aa   000000 000004
    022442  aa   000000 000004
    022443  aa   000000 000004
    022444  aa   000000 000004
    022445  aa   000000 000004
    022446  aa   000000 000004
    022447  aa   000000 000004
    022450  aa   000000 000004
    022451  aa   000000 000004
    022452  aa   000000 000004
    022453  aa   000000 000004
    022454  aa   000000 000004
    022455  aa   000000 000004
    022456  aa   000000 000004
    022457  aa   000000 000004
    022460  aa   000000 000004
    022461  aa   000000 000004
    022462  aa   000000 000004
    022463  aa   000000 000004
    022464  aa   000000 000004
    022465  aa   000000 000004
    022466  aa   000000 000004
    022467  aa   000000 000004
    022470  aa   000000 000004
    022471  aa   000000 000004
    022472  aa   000000 000004
    022473  aa   000000 000004
    022474  aa   000000 000004
    022475  aa   000000 000004
    022476  aa   000000 000004
    022477  aa   000000 000004
    022500  aa   000000 000004
    022501  aa   000000 000004
    022502  aa   000000 000004
    022503  aa   000000 000004
    022504  aa   000000 000004
    022505  aa   000000 000004
    022506  aa   000000 000004
    022507  aa   000000 000004
    022510  aa   000000 000004
    022511  aa   000000 000004
    022512  aa   000000 000004
                                  1695  	units (30),0
                                  1696  	units (4),4
                        000004
    022551  aa   000000 000004
    022552  aa   000000 000004
    022553  aa   000000 000004
    022554  aa   000000 000004
                                  1697  	units (11),0
                                  1698  	units (1),10
                        000001
    022570  aa   000000 000012
                                  1699  	units (1),8
                        000001
    022571  aa   000000 000010
                                  1700  	units (3),0
                                  1701  	units (1),6
                        000001
    022575  aa   000000 000006
                                  1702  	units (15),0
                                  1703  	units (1),6
                        000001
    022615  aa   000000 000006
                                  1704  	units (1),0
                                  1705  	units (1),12
                        000001
    022617  aa   000000 000014
                                  1706  	units (1),9
                        000001
    022620  aa   000000 000011
                                  1707  	units (8),0
                                  1708  	units (1),6
                        000001
    022631  aa   000000 000006
                                  1709  	units (6),0
                                  1710  	units (1),12
                        000001
    022640  aa   000000 000014
                                  1711  	units (40),0
                                  1712  	units (1),4
                        000001
    022711  aa   000000 000004
                                  1713  	units (12),0
                                  1714  	units (2),8
                        000002
    022726  aa   000000 000010
    022727  aa   000000 000010
                                  1715  	units (3),4
                        000003
    022730  aa   000000 000004
    022731  aa   000000 000004
    022732  aa   000000 000004
                                  1716  	units (1),3
                        000001
    022733  aa   000000 000003
                                  1717  	units (3),4
                        000003
    022734  aa   000000 000004
    022735  aa   000000 000004
    022736  aa   000000 000004
                                  1718  	units (19),6
                        000023
    022737  aa   000000 000006
    022740  aa   000000 000006
    022741  aa   000000 000006
    022742  aa   000000 000006
    022743  aa   000000 000006
    022744  aa   000000 000006
    022745  aa   000000 000006
    022746  aa   000000 000006
    022747  aa   000000 000006
    022750  aa   000000 000006
    022751  aa   000000 000006
    022752  aa   000000 000006
    022753  aa   000000 000006
    022754  aa   000000 000006
    022755  aa   000000 000006
    022756  aa   000000 000006
    022757  aa   000000 000006
    022760  aa   000000 000006
    022761  aa   000000 000006
                                  1719  	units (1),0
                                  1720  	units (4),6
                        000004
    022763  aa   000000 000006
    022764  aa   000000 000006
    022765  aa   000000 000006
    022766  aa   000000 000006
                                  1721  	units (1),0
                                  1722  	units (5),6
                        000005
    022770  aa   000000 000006
    022771  aa   000000 000006
    022772  aa   000000 000006
    022773  aa   000000 000006
    022774  aa   000000 000006
                                  1723  	units (1),0
                                  1724  	units (5),6
                        000005
    022776  aa   000000 000006
    022777  aa   000000 000006
    023000  aa   000000 000006
    023001  aa   000000 000006
    023002  aa   000000 000006
                                  1725  	units (1),0
                                  1726  	units (5),6
                        000005
    023004  aa   000000 000006
    023005  aa   000000 000006
    023006  aa   000000 000006
    023007  aa   000000 000006
    023010  aa   000000 000006
                                  1727  	units (1),0
                                  1728  	units (5),6
                        000005
    023012  aa   000000 000006
    023013  aa   000000 000006
    023014  aa   000000 000006
    023015  aa   000000 000006
    023016  aa   000000 000006
                                  1729  	units (1),0
                                  1730  	units (5),6
                        000005
    023020  aa   000000 000006
    023021  aa   000000 000006
    023022  aa   000000 000006
    023023  aa   000000 000006
    023024  aa   000000 000006
                                  1731  	units (1),0
                                  1732  	units (5),6
                        000005
    023026  aa   000000 000006
    023027  aa   000000 000006
    023030  aa   000000 000006
    023031  aa   000000 000006
    023032  aa   000000 000006
                                  1733  	units (1),0
                                  1734  	units (5),6
                        000005
    023034  aa   000000 000006
    023035  aa   000000 000006
    023036  aa   000000 000006
    023037  aa   000000 000006
    023040  aa   000000 000006
                                  1735  	units (1),0
                                  1736  	units (4),6
                        000004
    023042  aa   000000 000006
    023043  aa   000000 000006
    023044  aa   000000 000006
    023045  aa   000000 000006
                                  1737  	units (2),0
                                  1738  	units (1),6
                        000001
    023050  aa   000000 000006
                                  1739  	units (1),0
                                  1740  	units (2),6
                        000002
    023052  aa   000000 000006
    023053  aa   000000 000006
                                  1741  	units (160),0
    023314                        1742  uni.15:
                                  1743  	units (32),0
                                  1744  	units (1),4
                        000001
    023354  aa   000000 000004
                                  1745  	units (64),0
                                  1746  	units (26),4
                        000032
    023455  aa   000000 000004
    023456  aa   000000 000004
    023457  aa   000000 000004
    023460  aa   000000 000004
    023461  aa   000000 000004
    023462  aa   000000 000004
    023463  aa   000000 000004
    023464  aa   000000 000004
    023465  aa   000000 000004
    023466  aa   000000 000004
    023467  aa   000000 000004
    023470  aa   000000 000004
    023471  aa   000000 000004
    023472  aa   000000 000004
    023473  aa   000000 000004
    023474  aa   000000 000004
    023475  aa   000000 000004
    023476  aa   000000 000004
    023477  aa   000000 000004
    023500  aa   000000 000004
    023501  aa   000000 000004
    023502  aa   000000 000004
    023503  aa   000000 000004
    023504  aa   000000 000004
    023505  aa   000000 000004
    023506  aa   000000 000004
                                  1747  	units (389),0
    024314                        1748  uni.16:
                                  1749  	units (32),0
                                  1750  	units (1),5
                        000001
    024354  aa   000000 000005
                                  1751  	units (479),0
    025314                        1752  uni.17:
                                  1753  	units (32),0
                                  1754  	units (1),5
                        000001
    025354  aa   000000 000005
                                  1755  	units (479),0
    026314                        1756  uni.18:
                                  1757  	units (32),0
                                  1758  	units (1),5
                        000001
    026354  aa   000000 000005
                                  1759  	units (479),0
    027314                        1760  uni.19:
                                  1761  	units (32),0
                                  1762  	units (1),5
                        000001
    027354  aa   000000 000005
                                  1763  	units (479),0
    030314                        1764  uni.20:
                                  1765  	units (32),0
                                  1766  	units (1),4
                        000001
    030354  aa   000000 000004
                                  1767  	units (479),0
    031314                        1768  uni.21:
                                  1769  	units (32),0
                                  1770  	units (1),4
                        000001
    031354  aa   000000 000004
                                  1771  	units (479),0
    032314                        1772  uni.22:
                                  1773  	units (32),0
                                  1774  	units (1),4
                        000001
    032354  aa   000000 000004
                                  1775  	units (479),0
    033314                        1776  uni.23:
                                  1777  	units (32),0
                                  1778  	units (1),4
                        000001
    033354  aa   000000 000004
                                  1779  	units (479),0
    034314                        1780  opu.1:
                                  1781  	oput.data_ct	351
    034314  aa   000000 000537
                                  1782  	no_ch (8)
                                  1783  	ch    1,s000657 [ 0]	010 BSP
    034325  a0   000001 047147
                                  1784  	no_ch (23)
                                  1785  	ch    1,s000361 [ 4]	040 SP
    034355  a0   000001 046651
                                  1786  	ch    1,s000363 [ 0]	041 !
    034356  a0   000001 046653
                                  1787  	ch    1,s000365 [ 0]	042 "
    034357  a0   000001 046655
                                  1788  	ch    1,s000367 [ 0]	043 #
    034360  a0   000001 046657
                                  1789  	ch    1,s000371 [ 0]	044 $
    034361  a0   000001 046661
                                  1790  	ch    1,s000373 [ 0]	045 %
    034362  a0   000001 046663
                                  1791  	ch    1,s000375 [ 0]	046 &
    034363  a0   000001 046665
                                  1792  	ch    1,s000377 [ 0]	047 '
    034364  a0   000001 046667
                                  1793  	ch    1,s000401 [ 0]	050 Lp
    034365  a0   000001 046671
                                  1794  	ch    1,s000403 [ 0]	051 Rp
    034366  a0   000001 046673
                                  1795  	ch    1,s000405 [ 0]	052 *
    034367  a0   000001 046675
                                  1796  	ch    1,s000407 [ 0]	053 +
    034370  a0   000001 046677
                                  1797  	ch    1,s000411 [ 0]	054 ,
    034371  a0   000001 046701
                                  1798  	ch    1,s000413 [ 0]	055 -
    034372  a0   000001 046703
                                  1799  	ch    1,s000415 [ 0]	056 .
    034373  a0   000001 046705
                                  1800  	ch    1,s000417 [ 0]	057 /
    034374  a0   000001 046707
                                  1801  	ch    1,s000421 [ 0]	060 0
    034375  a0   000001 046711
                                  1802  	ch    1,s000423 [ 0]	061 1
    034376  a0   000001 046713
                                  1803  	ch    1,s000425 [ 0]	062 2
    034377  a0   000001 046715
                                  1804  	ch    1,s000427 [ 0]	063 3
    034400  a0   000001 046717
                                  1805  	ch    1,s000431 [ 0]	064 4
    034401  a0   000001 046721
                                  1806  	ch    1,s000433 [ 0]	065 5
    034402  a0   000001 046723
                                  1807  	ch    1,s000435 [ 0]	066 6
    034403  a0   000001 046725
                                  1808  	ch    1,s000437 [ 0]	067 7
    034404  a0   000001 046727
                                  1809  	ch    1,s000441 [ 0]	070 8
    034405  a0   000001 046731
                                  1810  	ch    1,s000443 [ 0]	071 9
    034406  a0   000001 046733
                                  1811  	ch    1,s000445 [ 0]	072 :
    034407  a0   000001 046735
                                  1812  	ch    1,s000447 [ 0]	073 ;
    034410  a0   000001 046737
                                  1813  	ch    1,s000451 [ 0]	074 <
    034411  a0   000001 046741
                                  1814  	ch    1,s000453 [ 0]	075 =
    034412  a0   000001 046743
                                  1815  	ch    1,s000455 [ 0]	076 >
    034413  a0   000001 046745
                                  1816  	ch    1,s000457 [ 0]	077 ?
    034414  a0   000001 046747
                                  1817  	ch    1,s000461 [ 0]	100 @
    034415  a0   000001 046751
                                  1818  	ch    1,s000463 [ 0]	101 A
    034416  a0   000001 046753
                                  1819  	ch    1,s000465 [ 0]	102 B
    034417  a0   000001 046755
                                  1820  	ch    1,s000467 [ 0]	103 C
    034420  a0   000001 046757
                                  1821  	ch    1,s000471 [ 0]	104 D
    034421  a0   000001 046761
                                  1822  	ch    1,s000473 [ 0]	105 E
    034422  a0   000001 046763
                                  1823  	ch    1,s000475 [ 0]	106 F
    034423  a0   000001 046765
                                  1824  	ch    1,s000477 [ 0]	107 G
    034424  a0   000001 046767
                                  1825  	ch    1,s000501 [ 0]	110 H
    034425  a0   000001 046771
                                  1826  	ch    1,s000503 [ 0]	111 I
    034426  a0   000001 046773
                                  1827  	ch    1,s000505 [ 0]	112 J
    034427  a0   000001 046775
                                  1828  	ch    1,s000507 [ 0]	113 K
    034430  a0   000001 046777
                                  1829  	ch    1,s000511 [ 0]	114 L
    034431  a0   000001 047001
                                  1830  	ch    1,s000513 [ 0]	115 M
    034432  a0   000001 047003
                                  1831  	ch    1,s000515 [ 0]	116 N
    034433  a0   000001 047005
                                  1832  	ch    1,s000517 [ 0]	117 O
    034434  a0   000001 047007
                                  1833  	ch    1,s000521 [ 0]	120 P
    034435  a0   000001 047011
                                  1834  	ch    1,s000523 [ 0]	121 Q
    034436  a0   000001 047013
                                  1835  	ch    1,s000525 [ 0]	122 R
    034437  a0   000001 047015
                                  1836  	ch    1,s000527 [ 0]	123 S
    034440  a0   000001 047017
                                  1837  	ch    1,s000531 [ 0]	124 T
    034441  a0   000001 047021
                                  1838  	ch    1,s000533 [ 0]	125 U
    034442  a0   000001 047023
                                  1839  	ch    1,s000535 [ 0]	126 V
    034443  a0   000001 047025
                                  1840  	ch    1,s000537 [ 0]	127 W
    034444  a0   000001 047027
                                  1841  	ch    1,s000541 [ 0]	130 X
    034445  a0   000001 047031
                                  1842  	ch    1,s000543 [ 0]	131 Y
    034446  a0   000001 047033
                                  1843  	ch    1,s000545 [ 0]	132 Z
    034447  a0   000001 047035
                                  1844  	ch    1,s000547 [ 0]	133 [
    034450  a0   000001 047037
                                  1845  	ch    1,s000551 [ 0]	134 \
    034451  a0   000001 047041
                                  1846  	ch    1,s000553 [ 0]	135 ]
    034452  a0   000001 047043
                                  1847  	ch    1,s000555 [ 0]	136 ^
    034453  a0   000001 047045
                                  1848  	ch    1,s000557 [ 0]	137 _
    034454  a0   000001 047047
                                  1849  	ch    1,s000561 [ 0]	140 `
    034455  a0   000001 047051
                                  1850  	ch    1,s000563 [ 0]	141 a
    034456  a0   000001 047053
                                  1851  	ch    1,s000565 [ 0]	142 b
    034457  a0   000001 047055
                                  1852  	ch    1,s000567 [ 0]	143 c
    034460  a0   000001 047057
                                  1853  	ch    1,s000571 [ 0]	144 d
    034461  a0   000001 047061
                                  1854  	ch    1,s000573 [ 0]	145 e
    034462  a0   000001 047063
                                  1855  	ch    1,s000575 [ 0]	146 f
    034463  a0   000001 047065
                                  1856  	ch    1,s000577 [ 0]	147 g
    034464  a0   000001 047067
                                  1857  	ch    1,s000601 [ 0]	150 h
    034465  a0   000001 047071
                                  1858  	ch    1,s000603 [ 0]	151 i
    034466  a0   000001 047073
                                  1859  	ch    1,s000605 [ 0]	152 j
    034467  a0   000001 047075
                                  1860  	ch    1,s000607 [ 0]	153 k
    034470  a0   000001 047077
                                  1861  	ch    1,s000611 [ 0]	154 l
    034471  a0   000001 047101
                                  1862  	ch    1,s000613 [ 0]	155 m
    034472  a0   000001 047103
                                  1863  	ch    1,s000615 [ 0]	156 n
    034473  a0   000001 047105
                                  1864  	ch    1,s000617 [ 0]	157 o
    034474  a0   000001 047107
                                  1865  	ch    1,s000621 [ 0]	160 p
    034475  a0   000001 047111
                                  1866  	ch    1,s000623 [ 0]	161 q
    034476  a0   000001 047113
                                  1867  	ch    1,s000625 [ 0]	162 r
    034477  a0   000001 047115
                                  1868  	ch    1,s000627 [ 0]	163 s
    034500  a0   000001 047117
                                  1869  	ch    1,s000631 [ 0]	164 t
    034501  a0   000001 047121
                                  1870  	ch    1,s000633 [ 0]	165 u
    034502  a0   000001 047123
                                  1871  	ch    1,s000635 [ 0]	166 v
    034503  a0   000001 047125
                                  1872  	ch    1,s000637 [ 0]	167 w
    034504  a0   000001 047127
                                  1873  	ch    1,s000641 [ 0]	170 x
    034505  a0   000001 047131
                                  1874  	ch    1,s000643 [ 0]	171 y
    034506  a0   000001 047133
                                  1875  	ch    1,s000645 [ 0]	172 z
    034507  a0   000001 047135
                                  1876  	ch    1,s000647 [ 0]	173 {
    034510  a0   000001 047137
                                  1877  	ch    1,s000651 [ 0]	174 |
    034511  a0   000001 047141
                                  1878  	ch    1,s000653 [ 0]	175 }
    034512  a0   000001 047143
                                  1879  	ch    1,s000655 [ 0]	176 ~
    034513  a0   000001 047145
                                  1880  	ch    1,s000661 [ 0]	177 PAD
    034514  a0   000001 047151
                                  1881  	no_ch (29)
                                  1882  	ch    1,s000663 [ 0]	235
    034552  a0   000001 047153
                                  1883  	ch    1,s000665 [ 0]	236
    034553  a0   000001 047155
                                  1884  	ch    1,s000667 [ 0]	237
    034554  a0   000001 047157
                                  1885  	ch    1,s002371 [ 0]	240
    034555  a0   000001 050661
                                  1886  	no_ch (11)
                                  1887  	ch    1,s002334 [ 0]	254 nabla
    034571  a0   000001 050624
                                  1888  	ch    1,s002347 [ 0]	255 EMdash
    034572  a0   000001 050637
                                  1889  	no_ch (3)
                                  1890  	ch    1,s002310 [ 0]	261 dagger
    034576  a0   000001 050600
                                  1891  	no_ch (13)
                                  1892  	ch    1,s000002 [ 0]	277
    034614  a0   000001 046650
                                  1893  	no_ch (1)
                                  1894  	ch    1,s002316 [ 0]	301 dbl dagger
    034616  a0   000001 050606
                                  1895  	no_ch (1)
                                  1896  	ch    1,s002227 [ 0]	303 copyright
    034620  a0   000001 050517
                                  1897  	ch    1,s002325 [ 0]	304 delta
    034621  a0   000001 050615
                                  1898  	no_ch (8)
                                  1899  	ch    1,s001572 [ 0]	315 bullet
    034632  a0   000001 050062
                                  1900  	no_ch (6)
                                  1901  	ch    1,s002255 [ 0]	324
    034641  a0   000001 050545
                                  1902  	no_ch (40)
                                  1903  	ch    1,s000671 [ 0]	375 square
    034712  a0   000001 047161
                                  1904  	no_ch (1)
                                  1905  	ch    1,s000361 [ 0]	377 punct SP
    034714  a0   000001 046651
                                  1906  	no_ch (10)
                                  1907  	ch    1,s000675 [ 0]	412 EM
    034727  a0   000001 047165
                                  1908  	ch    1,s002355 [ 0]	413 EM _dash
    034730  a0   000001 050645
                                  1909  	ch    1,s000361 [ 0]	414 EN
    034731  a0   000001 046651
                                  1910  	ch    1,s002364 [ 0]	415 EN _dash
    034732  a0   000001 050654
                                  1911  	ch    1,s000413 [ 0]	416 EN dash
    034733  a0   000001 046703
                                  1912  	ch    1,s000677 [ 0]	417 thin space
    034734  a0   000001 047167
                                  1913  	ch    1,s000413 [ 0]	420 hyphen
    034735  a0   000001 046703
                                  1914  	ch    1,s000365 [ 0]	421 ``
    034736  a0   000001 046655
                                  1915  	ch    1,s000365 [ 0]	422 ''
    034737  a0   000001 046655
                                  1916  	ch    1,s001626 [ 0]	423 1hi X
    034740  a0   000001 050116
                                  1917  	ch    1,s001666 [ 0]	424
    034741  a0   000001 050156
                                  1918  	ch    1,s001717 [ 0]	425 v|
    034742  a0   000001 050207
                                  1919  	ch    1,s002070 [ 0]	426
    034743  a0   000001 050360
                                  1920  	ch    1,s002034 [ 0]	427 dia left
    034744  a0   000001 050324
                                  1921  	ch    1,s001645 [ 0]	430 delete mark
    034745  a0   000001 050135
                                  1922  	ch    1,s002052 [ 0]	431 dia right
    034746  a0   000001 050342
                                  1923  	ch    1,s002023 [ 0]	432 dia top
    034747  a0   000001 050313
                                  1924  	ch    1,s001761 [ 0]	433 <
    034750  a0   000001 050251
                                  1925  	ch    1,s001401 [ 0]	434 1hi {
    034751  a0   000001 047671
                                  1926  	ch    1,s001327 [ 0]	435 1hi [
    034752  a0   000001 047617
                                  1927  	ch    1,s002136 [ 0]	436 left circle
    034753  a0   000001 050426
                                  1928  	ch    1,s001453 [ 0]	437
    034754  a0   000001 047743
                                  1929  	ch    1,s002002 [ 0]	440 ->
    034755  a0   000001 050272
                                  1930  	ch    1,s001425 [ 0]	441 1hi }
    034756  a0   000001 047715
                                  1931  	ch    1,s001353 [ 0]	442 1hi ]
    034757  a0   000001 047643
                                  1932  	ch    1,s002171 [ 0]	443 right circle
    034760  a0   000001 050461
                                  1933  	ch    1,s001476 [ 0]	444
    034761  a0   000001 047766
                                  1934  	ch    1,s001734 [ 0]	445 ^|
    034762  a0   000001 050224
                                  1935  	no_ch (1)
                                  1936  	ch    1,s000704 [ 0]	447
    034764  a0   000001 047174
                                  1937  	ch    1,s001025 [ 0]	450
    034765  a0   000001 047315
                                  1938  	ch    1,s000772 [ 0]	451
    034766  a0   000001 047262
                                  1939  	ch    1,s001235 [ 0]	452
    034767  a0   000001 047525
                                  1940  	ch    1,s001147 [ 0]	453
    034770  a0   000001 047437
                                  1941  	ch    1,s000772 [ 0]	454
    034771  a0   000001 047262
                                  1942  	ch    1,s000721 [ 0]	455
    034772  a0   000001 047211
                                  1943  	ch    1,s001036 [ 0]	456
    034773  a0   000001 047326
                                  1944  	ch    1,s000772 [ 0]	457
    034774  a0   000001 047262
                                  1945  	ch    1,s001254 [ 0]	460
    034775  a0   000001 047544
                                  1946  	ch    1,s001160 [ 0]	461
    034776  a0   000001 047450
                                  1947  	ch    1,s000772 [ 0]	462
    034777  a0   000001 047262
                                  1948  	ch    1,s000740 [ 0]	463
    035000  a0   000001 047230
                                  1949  	ch    1,s001051 [ 0]	464
    035001  a0   000001 047341
                                  1950  	ch    1,s001115 [ 0]	465
    035002  a0   000001 047405
                                  1951  	ch    1,s001273 [ 0]	466
    035003  a0   000001 047563
                                  1952  	ch    1,s001171 [ 0]	467
    035004  a0   000001 047461
                                  1953  	ch    1,s000772 [ 0]	470
    035005  a0   000001 047262
                                  1954  	ch    1,s000754 [ 0]	471
    035006  a0   000001 047244
                                  1955  	ch    1,s001061 [ 0]	472
    035007  a0   000001 047351
                                  1956  	ch    1,s001132 [ 0]	473
    035010  a0   000001 047422
                                  1957  	ch    1,s001311 [ 0]	474
    035011  a0   000001 047601
                                  1958  	ch    1,s001202 [ 0]	475
    035012  a0   000001 047472
                                  1959  	ch    1,s000772 [ 0]	476
    035013  a0   000001 047262
                                  1960  	ch    1,s000740 [ 0]	477
    035014  a0   000001 047230
                                  1961  	ch    1,s001051 [ 0]	500
    035015  a0   000001 047341
                                  1962  	ch    1,s000772 [ 0]	501
    035016  a0   000001 047262
                                  1963  	ch    1,s001273 [ 0]	502
    035017  a0   000001 047563
                                  1964  	ch    1,s001171 [ 0]	503
    035020  a0   000001 047461
                                  1965  	ch    1,s000772 [ 0]	504
    035021  a0   000001 047262
                                  1966  	ch    1,s000754 [ 0]	505
    035022  a0   000001 047244
                                  1967  	ch    1,s001061 [ 0]	506
    035023  a0   000001 047351
                                  1968  	ch    1,s000772 [ 0]	507
    035024  a0   000001 047262
                                  1969  	ch    1,s001311 [ 0]	510
    035025  a0   000001 047601
                                  1970  	ch    1,s001202 [ 0]	511
    035026  a0   000001 047472
                                  1971  	ch    1,s000772 [ 0]	512
    035027  a0   000001 047262
                                  1972  	ch    1,s000772 [ 0]	513
    035030  a0   000001 047262
                                  1973  	ch    1,s001073 [ 0]	514
    035031  a0   000001 047363
                                  1974  	ch    1,s000772 [ 0]	515
    035032  a0   000001 047262
                                  1975  	ch    1,s000772 [ 0]	516
    035033  a0   000001 047262
                                  1976  	ch    1,s001213 [ 0]	517
    035034  a0   000001 047503
                                  1977  	ch    1,s000772 [ 0]	520
    035035  a0   000001 047262
                                  1978  	ch    1,s001006 [ 0]	521
    035036  a0   000001 047276
                                  1979  	ch    1,s001103 [ 0]	522
    035037  a0   000001 047373
                                  1980  	ch    1,s001006 [ 0]	523
    035040  a0   000001 047276
                                  1981  	ch    1,s001006 [ 0]	524
    035041  a0   000001 047276
                                  1982  	ch    1,s001221 [ 0]	525
    035042  a0   000001 047511
                                  1983  	ch    1,s001006 [ 0]	526
    035043  a0   000001 047276
                                  1984  	ch    1,s001523 [ 0]	527
    035044  a0   000001 050013
                                  1985  	ch    1,s001543 [ 0]	530
    035045  a0   000001 050033
                                  1986  	ch    1,s001610 [ 0]	531
    035046  a0   000001 050100
                                  1987  	ch    1,s001705 [ 0]	532
    035047  a0   000001 050175
                                  1988  	no_ch (1)
                                  1989  	ch    1,s001754 [ 0]	534
    035051  a0   000001 050244
                                  1990  	no_ch (1)
                                  1991  	ch    1,s002104 [ 0]	536
    035053  a0   000001 050374
                                  1992  	ch    1,s002121 [ 0]	537
    035054  a0   000001 050411
    035055                        1993  opu.2:
                                  1994  	oput.data_ct	351
    035055  aa   000000 000537
                                  1995  	no_ch (8)
                                  1996  	ch    1,s000657 [ 0]	010 BSP
    035066  a0   000001 047147
                                  1997  	no_ch (23)
                                  1998  	ch    1,s000361 [ 4]	040 SP
    035116  a0   000001 046651
                                  1999  	ch    1,s000363 [ 0]	041 !
    035117  a0   000001 046653
                                  2000  	ch    1,s000365 [ 0]	042 "
    035120  a0   000001 046655
                                  2001  	ch    1,s000367 [ 0]	043 #
    035121  a0   000001 046657
                                  2002  	ch    1,s000371 [ 0]	044 $
    035122  a0   000001 046661
                                  2003  	ch    1,s000373 [ 0]	045 %
    035123  a0   000001 046663
                                  2004  	ch    1,s000375 [ 0]	046 &
    035124  a0   000001 046665
                                  2005  	ch    1,s000377 [ 0]	047 '
    035125  a0   000001 046667
                                  2006  	ch    1,s000401 [ 0]	050 Lp
    035126  a0   000001 046671
                                  2007  	ch    1,s000403 [ 0]	051 Rp
    035127  a0   000001 046673
                                  2008  	ch    1,s000405 [ 0]	052 *
    035130  a0   000001 046675
                                  2009  	ch    1,s000407 [ 0]	053 +
    035131  a0   000001 046677
                                  2010  	ch    1,s000411 [ 0]	054 ,
    035132  a0   000001 046701
                                  2011  	ch    1,s000413 [ 0]	055 -
    035133  a0   000001 046703
                                  2012  	ch    1,s000415 [ 0]	056 .
    035134  a0   000001 046705
                                  2013  	ch    1,s000417 [ 0]	057 /
    035135  a0   000001 046707
                                  2014  	ch    1,s000421 [ 0]	060 0
    035136  a0   000001 046711
                                  2015  	ch    1,s000423 [ 0]	061 1
    035137  a0   000001 046713
                                  2016  	ch    1,s000425 [ 0]	062 2
    035140  a0   000001 046715
                                  2017  	ch    1,s000427 [ 0]	063 3
    035141  a0   000001 046717
                                  2018  	ch    1,s000431 [ 0]	064 4
    035142  a0   000001 046721
                                  2019  	ch    1,s000433 [ 0]	065 5
    035143  a0   000001 046723
                                  2020  	ch    1,s000435 [ 0]	066 6
    035144  a0   000001 046725
                                  2021  	ch    1,s000437 [ 0]	067 7
    035145  a0   000001 046727
                                  2022  	ch    1,s000441 [ 0]	070 8
    035146  a0   000001 046731
                                  2023  	ch    1,s000443 [ 0]	071 9
    035147  a0   000001 046733
                                  2024  	ch    1,s000445 [ 0]	072 :
    035150  a0   000001 046735
                                  2025  	ch    1,s000447 [ 0]	073 ;
    035151  a0   000001 046737
                                  2026  	ch    1,s000451 [ 0]	074 <
    035152  a0   000001 046741
                                  2027  	ch    1,s000453 [ 0]	075 =
    035153  a0   000001 046743
                                  2028  	ch    1,s000455 [ 0]	076 >
    035154  a0   000001 046745
                                  2029  	ch    1,s000457 [ 0]	077 ?
    035155  a0   000001 046747
                                  2030  	ch    1,s000461 [ 0]	100 @
    035156  a0   000001 046751
                                  2031  	ch    1,s000463 [ 0]	101 A
    035157  a0   000001 046753
                                  2032  	ch    1,s000465 [ 0]	102 B
    035160  a0   000001 046755
                                  2033  	ch    1,s000467 [ 0]	103 C
    035161  a0   000001 046757
                                  2034  	ch    1,s000471 [ 0]	104 D
    035162  a0   000001 046761
                                  2035  	ch    1,s000473 [ 0]	105 E
    035163  a0   000001 046763
                                  2036  	ch    1,s000475 [ 0]	106 F
    035164  a0   000001 046765
                                  2037  	ch    1,s000477 [ 0]	107 G
    035165  a0   000001 046767
                                  2038  	ch    1,s000501 [ 0]	110 H
    035166  a0   000001 046771
                                  2039  	ch    1,s000503 [ 0]	111 I
    035167  a0   000001 046773
                                  2040  	ch    1,s000505 [ 0]	112 J
    035170  a0   000001 046775
                                  2041  	ch    1,s000507 [ 0]	113 K
    035171  a0   000001 046777
                                  2042  	ch    1,s000511 [ 0]	114 L
    035172  a0   000001 047001
                                  2043  	ch    1,s000513 [ 0]	115 M
    035173  a0   000001 047003
                                  2044  	ch    1,s000515 [ 0]	116 N
    035174  a0   000001 047005
                                  2045  	ch    1,s000517 [ 0]	117 O
    035175  a0   000001 047007
                                  2046  	ch    1,s000521 [ 0]	120 P
    035176  a0   000001 047011
                                  2047  	ch    1,s000523 [ 0]	121 Q
    035177  a0   000001 047013
                                  2048  	ch    1,s000525 [ 0]	122 R
    035200  a0   000001 047015
                                  2049  	ch    1,s000527 [ 0]	123 S
    035201  a0   000001 047017
                                  2050  	ch    1,s000531 [ 0]	124 T
    035202  a0   000001 047021
                                  2051  	ch    1,s000533 [ 0]	125 U
    035203  a0   000001 047023
                                  2052  	ch    1,s000535 [ 0]	126 V
    035204  a0   000001 047025
                                  2053  	ch    1,s000537 [ 0]	127 W
    035205  a0   000001 047027
                                  2054  	ch    1,s000541 [ 0]	130 X
    035206  a0   000001 047031
                                  2055  	ch    1,s000543 [ 0]	131 Y
    035207  a0   000001 047033
                                  2056  	ch    1,s000545 [ 0]	132 Z
    035210  a0   000001 047035
                                  2057  	ch    1,s000547 [ 0]	133 [
    035211  a0   000001 047037
                                  2058  	ch    1,s000551 [ 0]	134 \
    035212  a0   000001 047041
                                  2059  	ch    1,s000553 [ 0]	135 ]
    035213  a0   000001 047043
                                  2060  	ch    1,s000555 [ 0]	136 ^
    035214  a0   000001 047045
                                  2061  	ch    1,s000557 [ 0]	137 _
    035215  a0   000001 047047
                                  2062  	ch    1,s000561 [ 0]	140 `
    035216  a0   000001 047051
                                  2063  	ch    1,s000563 [ 0]	141 a
    035217  a0   000001 047053
                                  2064  	ch    1,s000565 [ 0]	142 b
    035220  a0   000001 047055
                                  2065  	ch    1,s000567 [ 0]	143 c
    035221  a0   000001 047057
                                  2066  	ch    1,s000571 [ 0]	144 d
    035222  a0   000001 047061
                                  2067  	ch    1,s000573 [ 0]	145 e
    035223  a0   000001 047063
                                  2068  	ch    1,s000575 [ 0]	146 f
    035224  a0   000001 047065
                                  2069  	ch    1,s000577 [ 0]	147 g
    035225  a0   000001 047067
                                  2070  	ch    1,s000601 [ 0]	150 h
    035226  a0   000001 047071
                                  2071  	ch    1,s000603 [ 0]	151 i
    035227  a0   000001 047073
                                  2072  	ch    1,s000605 [ 0]	152 j
    035230  a0   000001 047075
                                  2073  	ch    1,s000607 [ 0]	153 k
    035231  a0   000001 047077
                                  2074  	ch    1,s000611 [ 0]	154 l
    035232  a0   000001 047101
                                  2075  	ch    1,s000613 [ 0]	155 m
    035233  a0   000001 047103
                                  2076  	ch    1,s000615 [ 0]	156 n
    035234  a0   000001 047105
                                  2077  	ch    1,s000617 [ 0]	157 o
    035235  a0   000001 047107
                                  2078  	ch    1,s000621 [ 0]	160 p
    035236  a0   000001 047111
                                  2079  	ch    1,s000623 [ 0]	161 q
    035237  a0   000001 047113
                                  2080  	ch    1,s000625 [ 0]	162 r
    035240  a0   000001 047115
                                  2081  	ch    1,s000627 [ 0]	163 s
    035241  a0   000001 047117
                                  2082  	ch    1,s000631 [ 0]	164 t
    035242  a0   000001 047121
                                  2083  	ch    1,s000633 [ 0]	165 u
    035243  a0   000001 047123
                                  2084  	ch    1,s000635 [ 0]	166 v
    035244  a0   000001 047125
                                  2085  	ch    1,s000637 [ 0]	167 w
    035245  a0   000001 047127
                                  2086  	ch    1,s000641 [ 0]	170 x
    035246  a0   000001 047131
                                  2087  	ch    1,s000643 [ 0]	171 y
    035247  a0   000001 047133
                                  2088  	ch    1,s000645 [ 0]	172 z
    035250  a0   000001 047135
                                  2089  	ch    1,s000647 [ 0]	173 {
    035251  a0   000001 047137
                                  2090  	ch    1,s000651 [ 0]	174 |
    035252  a0   000001 047141
                                  2091  	ch    1,s000653 [ 0]	175 }
    035253  a0   000001 047143
                                  2092  	ch    1,s000655 [ 0]	176 ~
    035254  a0   000001 047145
                                  2093  	ch    1,s000661 [ 0]	177 PAD
    035255  a0   000001 047151
                                  2094  	no_ch (29)
                                  2095  	ch    1,s000663 [ 0]	235
    035313  a0   000001 047153
                                  2096  	ch    1,s000665 [ 0]	236
    035314  a0   000001 047155
                                  2097  	ch    1,s000667 [ 0]	237
    035315  a0   000001 047157
                                  2098  	no_ch (12)
                                  2099  	ch    1,s002334 [ 0]	254 nabla
    035332  a0   000001 050624
                                  2100  	no_ch (4)
                                  2101  	ch    1,s002310 [ 0]	261 dagger
    035337  a0   000001 050600
                                  2102  	no_ch (13)
                                  2103  	ch    1,s000002 [ 0]	277
    035355  a0   000001 046650
                                  2104  	no_ch (1)
                                  2105  	ch    1,s002316 [ 0]	301 dbl dagger
    035357  a0   000001 050606
                                  2106  	no_ch (1)
                                  2107  	ch    1,s002227 [ 0]	303 copyright
    035361  a0   000001 050517
                                  2108  	ch    1,s002325 [ 0]	304 delta
    035362  a0   000001 050615
                                  2109  	no_ch (8)
                                  2110  	ch    1,s001572 [ 0]	315 bullet
    035373  a0   000001 050062
                                  2111  	no_ch (6)
                                  2112  	ch    1,s002255 [ 0]	324
    035402  a0   000001 050545
                                  2113  	no_ch (40)
                                  2114  	ch    1,s000671 [ 0]	375 square
    035453  a0   000001 047161
                                  2115  	no_ch (12)
                                  2116  	ch    1,s000675 [ 0]	412 EM
    035470  a0   000001 047165
                                  2117  	ch    1,s000702 [ 0]	413 EM _dash
    035471  a0   000001 047172
                                  2118  	ch    1,s000361 [ 0]	414 EN
    035472  a0   000001 046651
                                  2119  	ch    1,s000557 [ 0]	415 EN _dash
    035473  a0   000001 047047
                                  2120  	no_ch (1)
                                  2121  	ch    1,s000677 [ 0]	417 thin space
    035475  a0   000001 047167
                                  2122  	no_ch (3)
                                  2123  	ch    1,s001626 [ 0]	423 1hi X
    035501  a0   000001 050116
                                  2124  	ch    1,s001666 [ 0]	424
    035502  a0   000001 050156
                                  2125  	ch    1,s001717 [ 0]	425 v|
    035503  a0   000001 050207
                                  2126  	ch    1,s002070 [ 0]	426
    035504  a0   000001 050360
                                  2127  	ch    1,s002034 [ 0]	427 dia left
    035505  a0   000001 050324
                                  2128  	ch    1,s001645 [ 0]	430 delete mark
    035506  a0   000001 050135
                                  2129  	ch    1,s002052 [ 0]	431 dia right
    035507  a0   000001 050342
                                  2130  	ch    1,s002023 [ 0]	432 dia top
    035510  a0   000001 050313
                                  2131  	ch    1,s001761 [ 0]	433 <
    035511  a0   000001 050251
                                  2132  	ch    1,s001401 [ 0]	434 1hi {
    035512  a0   000001 047671
                                  2133  	ch    1,s001327 [ 0]	435 1hi [
    035513  a0   000001 047617
                                  2134  	ch    1,s002136 [ 0]	436 left circle
    035514  a0   000001 050426
                                  2135  	ch    1,s001453 [ 0]	437
    035515  a0   000001 047743
                                  2136  	ch    1,s002002 [ 0]	440 ->
    035516  a0   000001 050272
                                  2137  	ch    1,s001425 [ 0]	441 1hi }
    035517  a0   000001 047715
                                  2138  	ch    1,s001353 [ 0]	442 1hi ]
    035520  a0   000001 047643
                                  2139  	ch    1,s002171 [ 0]	443 right circle
    035521  a0   000001 050461
                                  2140  	ch    1,s001476 [ 0]	444
    035522  a0   000001 047766
                                  2141  	ch    1,s001734 [ 0]	445 ^|
    035523  a0   000001 050224
                                  2142  	no_ch (1)
                                  2143  	ch    1,s000704 [ 0]	447
    035525  a0   000001 047174
                                  2144  	ch    1,s001025 [ 0]	450
    035526  a0   000001 047315
                                  2145  	ch    1,s000772 [ 0]	451
    035527  a0   000001 047262
                                  2146  	ch    1,s001235 [ 0]	452
    035530  a0   000001 047525
                                  2147  	ch    1,s001147 [ 0]	453
    035531  a0   000001 047437
                                  2148  	ch    1,s000772 [ 0]	454
    035532  a0   000001 047262
                                  2149  	ch    1,s000721 [ 0]	455
    035533  a0   000001 047211
                                  2150  	ch    1,s001036 [ 0]	456
    035534  a0   000001 047326
                                  2151  	ch    1,s000772 [ 0]	457
    035535  a0   000001 047262
                                  2152  	ch    1,s001254 [ 0]	460
    035536  a0   000001 047544
                                  2153  	ch    1,s001160 [ 0]	461
    035537  a0   000001 047450
                                  2154  	ch    1,s000772 [ 0]	462
    035540  a0   000001 047262
                                  2155  	ch    1,s000740 [ 0]	463
    035541  a0   000001 047230
                                  2156  	ch    1,s001051 [ 0]	464
    035542  a0   000001 047341
                                  2157  	ch    1,s001115 [ 0]	465
    035543  a0   000001 047405
                                  2158  	ch    1,s001273 [ 0]	466
    035544  a0   000001 047563
                                  2159  	ch    1,s001171 [ 0]	467
    035545  a0   000001 047461
                                  2160  	ch    1,s000772 [ 0]	470
    035546  a0   000001 047262
                                  2161  	ch    1,s000754 [ 0]	471
    035547  a0   000001 047244
                                  2162  	ch    1,s001061 [ 0]	472
    035550  a0   000001 047351
                                  2163  	ch    1,s001132 [ 0]	473
    035551  a0   000001 047422
                                  2164  	ch    1,s001311 [ 0]	474
    035552  a0   000001 047601
                                  2165  	ch    1,s001202 [ 0]	475
    035553  a0   000001 047472
                                  2166  	ch    1,s000772 [ 0]	476
    035554  a0   000001 047262
                                  2167  	ch    1,s000740 [ 0]	477
    035555  a0   000001 047230
                                  2168  	ch    1,s001051 [ 0]	500
    035556  a0   000001 047341
                                  2169  	ch    1,s000772 [ 0]	501
    035557  a0   000001 047262
                                  2170  	ch    1,s001273 [ 0]	502
    035560  a0   000001 047563
                                  2171  	ch    1,s001171 [ 0]	503
    035561  a0   000001 047461
                                  2172  	ch    1,s000772 [ 0]	504
    035562  a0   000001 047262
                                  2173  	ch    1,s000754 [ 0]	505
    035563  a0   000001 047244
                                  2174  	ch    1,s001061 [ 0]	506
    035564  a0   000001 047351
                                  2175  	ch    1,s000772 [ 0]	507
    035565  a0   000001 047262
                                  2176  	ch    1,s001311 [ 0]	510
    035566  a0   000001 047601
                                  2177  	ch    1,s001202 [ 0]	511
    035567  a0   000001 047472
                                  2178  	ch    1,s000772 [ 0]	512
    035570  a0   000001 047262
                                  2179  	ch    1,s000772 [ 0]	513
    035571  a0   000001 047262
                                  2180  	ch    1,s001073 [ 0]	514
    035572  a0   000001 047363
                                  2181  	ch    1,s000772 [ 0]	515
    035573  a0   000001 047262
                                  2182  	ch    1,s000772 [ 0]	516
    035574  a0   000001 047262
                                  2183  	ch    1,s001213 [ 0]	517
    035575  a0   000001 047503
                                  2184  	ch    1,s000772 [ 0]	520
    035576  a0   000001 047262
                                  2185  	ch    1,s001006 [ 0]	521
    035577  a0   000001 047276
                                  2186  	ch    1,s001103 [ 0]	522
    035600  a0   000001 047373
                                  2187  	ch    1,s001006 [ 0]	523
    035601  a0   000001 047276
                                  2188  	ch    1,s001006 [ 0]	524
    035602  a0   000001 047276
                                  2189  	ch    1,s001221 [ 0]	525
    035603  a0   000001 047511
                                  2190  	ch    1,s001006 [ 0]	526
    035604  a0   000001 047276
                                  2191  	ch    1,s001523 [ 0]	527
    035605  a0   000001 050013
                                  2192  	ch    1,s001543 [ 0]	530
    035606  a0   000001 050033
                                  2193  	ch    1,s001610 [ 0]	531
    035607  a0   000001 050100
                                  2194  	ch    1,s001705 [ 0]	532
    035610  a0   000001 050175
                                  2195  	no_ch (1)
                                  2196  	ch    1,s001754 [ 0]	534
    035612  a0   000001 050244
                                  2197  	no_ch (1)
                                  2198  	ch    1,s002104 [ 0]	536
    035614  a0   000001 050374
                                  2199  	ch    1,s002121 [ 0]	537
    035615  a0   000001 050411
    035616                        2200  opu.3:
                                  2201  	oput.data_ct	351
    035616  aa   000000 000537
                                  2202  	no_ch (8)
                                  2203  	ch    1,s000657 [ 0]	010 BSP
    035627  a0   000001 047147
                                  2204  	no_ch (23)
                                  2205  	ch    1,s000361 [ 4]	040 SP
    035657  a0   000001 046651
                                  2206  	ch    1,s000363 [ 0]	041 !
    035660  a0   000001 046653
                                  2207  	ch    1,s000365 [ 0]	042 "
    035661  a0   000001 046655
                                  2208  	ch    1,s000367 [ 0]	043 #
    035662  a0   000001 046657
                                  2209  	ch    1,s000371 [ 0]	044 $
    035663  a0   000001 046661
                                  2210  	ch    1,s000373 [ 0]	045 %
    035664  a0   000001 046663
                                  2211  	ch    1,s000375 [ 0]	046 &
    035665  a0   000001 046665
                                  2212  	ch    1,s000377 [ 0]	047 '
    035666  a0   000001 046667
                                  2213  	ch    1,s000401 [ 0]	050 Lp
    035667  a0   000001 046671
                                  2214  	ch    1,s000403 [ 0]	051 Rp
    035670  a0   000001 046673
                                  2215  	ch    1,s000405 [ 0]	052 *
    035671  a0   000001 046675
                                  2216  	ch    1,s000407 [ 0]	053 +
    035672  a0   000001 046677
                                  2217  	ch    1,s000411 [ 0]	054 ,
    035673  a0   000001 046701
                                  2218  	ch    1,s000413 [ 0]	055 -
    035674  a0   000001 046703
                                  2219  	ch    1,s000415 [ 0]	056 .
    035675  a0   000001 046705
                                  2220  	ch    1,s000417 [ 0]	057 /
    035676  a0   000001 046707
                                  2221  	ch    1,s000421 [ 0]	060 0
    035677  a0   000001 046711
                                  2222  	ch    1,s000423 [ 0]	061 1
    035700  a0   000001 046713
                                  2223  	ch    1,s000425 [ 0]	062 2
    035701  a0   000001 046715
                                  2224  	ch    1,s000427 [ 0]	063 3
    035702  a0   000001 046717
                                  2225  	ch    1,s000431 [ 0]	064 4
    035703  a0   000001 046721
                                  2226  	ch    1,s000433 [ 0]	065 5
    035704  a0   000001 046723
                                  2227  	ch    1,s000435 [ 0]	066 6
    035705  a0   000001 046725
                                  2228  	ch    1,s000437 [ 0]	067 7
    035706  a0   000001 046727
                                  2229  	ch    1,s000441 [ 0]	070 8
    035707  a0   000001 046731
                                  2230  	ch    1,s000443 [ 0]	071 9
    035710  a0   000001 046733
                                  2231  	ch    1,s000445 [ 0]	072 :
    035711  a0   000001 046735
                                  2232  	ch    1,s000447 [ 0]	073 ;
    035712  a0   000001 046737
                                  2233  	ch    1,s000451 [ 0]	074 <
    035713  a0   000001 046741
                                  2234  	ch    1,s000453 [ 0]	075 =
    035714  a0   000001 046743
                                  2235  	ch    1,s000455 [ 0]	076 >
    035715  a0   000001 046745
                                  2236  	ch    1,s000457 [ 0]	077 ?
    035716  a0   000001 046747
                                  2237  	ch    1,s000461 [ 0]	100 @
    035717  a0   000001 046751
                                  2238  	ch    1,s000463 [ 0]	101 A
    035720  a0   000001 046753
                                  2239  	ch    1,s000465 [ 0]	102 B
    035721  a0   000001 046755
                                  2240  	ch    1,s000467 [ 0]	103 C
    035722  a0   000001 046757
                                  2241  	ch    1,s000471 [ 0]	104 D
    035723  a0   000001 046761
                                  2242  	ch    1,s000473 [ 0]	105 E
    035724  a0   000001 046763
                                  2243  	ch    1,s000475 [ 0]	106 F
    035725  a0   000001 046765
                                  2244  	ch    1,s000477 [ 0]	107 G
    035726  a0   000001 046767
                                  2245  	ch    1,s000501 [ 0]	110 H
    035727  a0   000001 046771
                                  2246  	ch    1,s000503 [ 0]	111 I
    035730  a0   000001 046773
                                  2247  	ch    1,s000505 [ 0]	112 J
    035731  a0   000001 046775
                                  2248  	ch    1,s000507 [ 0]	113 K
    035732  a0   000001 046777
                                  2249  	ch    1,s000511 [ 0]	114 L
    035733  a0   000001 047001
                                  2250  	ch    1,s000513 [ 0]	115 M
    035734  a0   000001 047003
                                  2251  	ch    1,s000515 [ 0]	116 N
    035735  a0   000001 047005
                                  2252  	ch    1,s000517 [ 0]	117 O
    035736  a0   000001 047007
                                  2253  	ch    1,s000521 [ 0]	120 P
    035737  a0   000001 047011
                                  2254  	ch    1,s000523 [ 0]	121 Q
    035740  a0   000001 047013
                                  2255  	ch    1,s000525 [ 0]	122 R
    035741  a0   000001 047015
                                  2256  	ch    1,s000527 [ 0]	123 S
    035742  a0   000001 047017
                                  2257  	ch    1,s000531 [ 0]	124 T
    035743  a0   000001 047021
                                  2258  	ch    1,s000533 [ 0]	125 U
    035744  a0   000001 047023
                                  2259  	ch    1,s000535 [ 0]	126 V
    035745  a0   000001 047025
                                  2260  	ch    1,s000537 [ 0]	127 W
    035746  a0   000001 047027
                                  2261  	ch    1,s000541 [ 0]	130 X
    035747  a0   000001 047031
                                  2262  	ch    1,s000543 [ 0]	131 Y
    035750  a0   000001 047033
                                  2263  	ch    1,s000545 [ 0]	132 Z
    035751  a0   000001 047035
                                  2264  	ch    1,s000547 [ 0]	133 [
    035752  a0   000001 047037
                                  2265  	ch    1,s000551 [ 0]	134 \
    035753  a0   000001 047041
                                  2266  	ch    1,s000553 [ 0]	135 ]
    035754  a0   000001 047043
                                  2267  	ch    1,s000555 [ 0]	136 ^
    035755  a0   000001 047045
                                  2268  	ch    1,s000557 [ 0]	137 _
    035756  a0   000001 047047
                                  2269  	ch    1,s000561 [ 0]	140 `
    035757  a0   000001 047051
                                  2270  	ch    1,s000463 [ 0]	141 a
    035760  a0   000001 046753
                                  2271  	ch    1,s000465 [ 0]	142 b
    035761  a0   000001 046755
                                  2272  	ch    1,s000467 [ 0]	143 c
    035762  a0   000001 046757
                                  2273  	ch    1,s000471 [ 0]	144 d
    035763  a0   000001 046761
                                  2274  	ch    1,s000473 [ 0]	145 e
    035764  a0   000001 046763
                                  2275  	ch    1,s000475 [ 0]	146 f
    035765  a0   000001 046765
                                  2276  	ch    1,s000477 [ 0]	147 g
    035766  a0   000001 046767
                                  2277  	ch    1,s000501 [ 0]	150 h
    035767  a0   000001 046771
                                  2278  	ch    1,s000503 [ 0]	151 i
    035770  a0   000001 046773
                                  2279  	ch    1,s000505 [ 0]	152 j
    035771  a0   000001 046775
                                  2280  	ch    1,s000507 [ 0]	153 k
    035772  a0   000001 046777
                                  2281  	ch    1,s000511 [ 0]	154 l
    035773  a0   000001 047001
                                  2282  	ch    1,s000513 [ 0]	155 m
    035774  a0   000001 047003
                                  2283  	ch    1,s000515 [ 0]	156 n
    035775  a0   000001 047005
                                  2284  	ch    1,s000517 [ 0]	157 o
    035776  a0   000001 047007
                                  2285  	ch    1,s000521 [ 0]	160 p
    035777  a0   000001 047011
                                  2286  	ch    1,s000523 [ 0]	161 q
    036000  a0   000001 047013
                                  2287  	ch    1,s000525 [ 0]	162 r
    036001  a0   000001 047015
                                  2288  	ch    1,s000527 [ 0]	163 s
    036002  a0   000001 047017
                                  2289  	ch    1,s000531 [ 0]	164 t
    036003  a0   000001 047021
                                  2290  	ch    1,s000533 [ 0]	165 u
    036004  a0   000001 047023
                                  2291  	ch    1,s000535 [ 0]	166 v
    036005  a0   000001 047025
                                  2292  	ch    1,s000537 [ 0]	167 w
    036006  a0   000001 047027
                                  2293  	ch    1,s000541 [ 0]	170 x
    036007  a0   000001 047031
                                  2294  	ch    1,s000543 [ 0]	171 y
    036010  a0   000001 047033
                                  2295  	ch    1,s000545 [ 0]	172 z
    036011  a0   000001 047035
                                  2296  	ch    1,s000647 [ 0]	173 {
    036012  a0   000001 047137
                                  2297  	ch    1,s000651 [ 0]	174 |
    036013  a0   000001 047141
                                  2298  	ch    1,s000653 [ 0]	175 }
    036014  a0   000001 047143
                                  2299  	ch    1,s000655 [ 0]	176 ~
    036015  a0   000001 047145
                                  2300  	ch    1,s000661 [ 0]	177 PAD
    036016  a0   000001 047151
                                  2301  	no_ch (29)
                                  2302  	ch    1,s000663 [ 0]	235
    036054  a0   000001 047153
                                  2303  	ch    1,s000665 [ 0]	236
    036055  a0   000001 047155
                                  2304  	ch    1,s000667 [ 0]	237
    036056  a0   000001 047157
                                  2305  	no_ch (12)
                                  2306  	ch    1,s002334 [ 0]	254 nabla
    036073  a0   000001 050624
                                  2307  	no_ch (4)
                                  2308  	ch    1,s002310 [ 0]	261 dagger
    036100  a0   000001 050600
                                  2309  	no_ch (13)
                                  2310  	ch    1,s000002 [ 0]	277
    036116  a0   000001 046650
                                  2311  	no_ch (1)
                                  2312  	ch    1,s002316 [ 0]	301 dbl dagger
    036120  a0   000001 050606
                                  2313  	no_ch (1)
                                  2314  	ch    1,s002227 [ 0]	303 copyright
    036122  a0   000001 050517
                                  2315  	ch    1,s002325 [ 0]	304 delta
    036123  a0   000001 050615
                                  2316  	no_ch (8)
                                  2317  	ch    1,s001572 [ 0]	315 bullet
    036134  a0   000001 050062
                                  2318  	no_ch (6)
                                  2319  	ch    1,s002255 [ 0]	324
    036143  a0   000001 050545
                                  2320  	no_ch (40)
                                  2321  	ch    1,s000671 [ 0]	375 square
    036214  a0   000001 047161
                                  2322  	no_ch (12)
                                  2323  	ch    1,s000675 [ 0]	412 EM
    036231  a0   000001 047165
                                  2324  	ch    1,s000702 [ 0]	413 EM _dash
    036232  a0   000001 047172
                                  2325  	ch    1,s000361 [ 0]	414 EN
    036233  a0   000001 046651
                                  2326  	ch    1,s000557 [ 0]	415 EN _dash
    036234  a0   000001 047047
                                  2327  	no_ch (1)
                                  2328  	ch    1,s000677 [ 0]	417 thin space
    036236  a0   000001 047167
                                  2329  	no_ch (3)
                                  2330  	ch    1,s001626 [ 0]	423 1hi X
    036242  a0   000001 050116
                                  2331  	ch    1,s001666 [ 0]	424
    036243  a0   000001 050156
                                  2332  	ch    1,s001717 [ 0]	425 v|
    036244  a0   000001 050207
                                  2333  	ch    1,s002070 [ 0]	426
    036245  a0   000001 050360
                                  2334  	ch    1,s002034 [ 0]	427 dia left
    036246  a0   000001 050324
                                  2335  	ch    1,s001645 [ 0]	430 delete mark
    036247  a0   000001 050135
                                  2336  	ch    1,s002052 [ 0]	431 dia right
    036250  a0   000001 050342
                                  2337  	ch    1,s002023 [ 0]	432 dia top
    036251  a0   000001 050313
                                  2338  	ch    1,s001761 [ 0]	433 <
    036252  a0   000001 050251
                                  2339  	ch    1,s001401 [ 0]	434 1hi {
    036253  a0   000001 047671
                                  2340  	ch    1,s001327 [ 0]	435 1hi [
    036254  a0   000001 047617
                                  2341  	ch    1,s002136 [ 0]	436 left circle
    036255  a0   000001 050426
                                  2342  	ch    1,s001453 [ 0]	437
    036256  a0   000001 047743
                                  2343  	ch    1,s002002 [ 0]	440 ->
    036257  a0   000001 050272
                                  2344  	ch    1,s001425 [ 0]	441 1hi }
    036260  a0   000001 047715
                                  2345  	ch    1,s001353 [ 0]	442 1hi ]
    036261  a0   000001 047643
                                  2346  	ch    1,s002171 [ 0]	443 right circle
    036262  a0   000001 050461
                                  2347  	ch    1,s001476 [ 0]	444
    036263  a0   000001 047766
                                  2348  	ch    1,s001734 [ 0]	445 ^|
    036264  a0   000001 050224
                                  2349  	no_ch (1)
                                  2350  	ch    1,s000704 [ 0]	447
    036266  a0   000001 047174
                                  2351  	ch    1,s001025 [ 0]	450
    036267  a0   000001 047315
                                  2352  	ch    1,s000772 [ 0]	451
    036270  a0   000001 047262
                                  2353  	ch    1,s001235 [ 0]	452
    036271  a0   000001 047525
                                  2354  	ch    1,s001147 [ 0]	453
    036272  a0   000001 047437
                                  2355  	ch    1,s000772 [ 0]	454
    036273  a0   000001 047262
                                  2356  	ch    1,s000721 [ 0]	455
    036274  a0   000001 047211
                                  2357  	ch    1,s001036 [ 0]	456
    036275  a0   000001 047326
                                  2358  	ch    1,s000772 [ 0]	457
    036276  a0   000001 047262
                                  2359  	ch    1,s001254 [ 0]	460
    036277  a0   000001 047544
                                  2360  	ch    1,s001160 [ 0]	461
    036300  a0   000001 047450
                                  2361  	ch    1,s000772 [ 0]	462
    036301  a0   000001 047262
                                  2362  	ch    1,s000740 [ 0]	463
    036302  a0   000001 047230
                                  2363  	ch    1,s001051 [ 0]	464
    036303  a0   000001 047341
                                  2364  	ch    1,s001115 [ 0]	465
    036304  a0   000001 047405
                                  2365  	ch    1,s001273 [ 0]	466
    036305  a0   000001 047563
                                  2366  	ch    1,s001171 [ 0]	467
    036306  a0   000001 047461
                                  2367  	ch    1,s000772 [ 0]	470
    036307  a0   000001 047262
                                  2368  	ch    1,s000754 [ 0]	471
    036310  a0   000001 047244
                                  2369  	ch    1,s001061 [ 0]	472
    036311  a0   000001 047351
                                  2370  	ch    1,s001132 [ 0]	473
    036312  a0   000001 047422
                                  2371  	ch    1,s001311 [ 0]	474
    036313  a0   000001 047601
                                  2372  	ch    1,s001202 [ 0]	475
    036314  a0   000001 047472
                                  2373  	ch    1,s000772 [ 0]	476
    036315  a0   000001 047262
                                  2374  	ch    1,s000740 [ 0]	477
    036316  a0   000001 047230
                                  2375  	ch    1,s001051 [ 0]	500
    036317  a0   000001 047341
                                  2376  	ch    1,s000772 [ 0]	501
    036320  a0   000001 047262
                                  2377  	ch    1,s001273 [ 0]	502
    036321  a0   000001 047563
                                  2378  	ch    1,s001171 [ 0]	503
    036322  a0   000001 047461
                                  2379  	ch    1,s000772 [ 0]	504
    036323  a0   000001 047262
                                  2380  	ch    1,s000754 [ 0]	505
    036324  a0   000001 047244
                                  2381  	ch    1,s001061 [ 0]	506
    036325  a0   000001 047351
                                  2382  	ch    1,s000772 [ 0]	507
    036326  a0   000001 047262
                                  2383  	ch    1,s001311 [ 0]	510
    036327  a0   000001 047601
                                  2384  	ch    1,s001202 [ 0]	511
    036330  a0   000001 047472
                                  2385  	ch    1,s000772 [ 0]	512
    036331  a0   000001 047262
                                  2386  	ch    1,s000772 [ 0]	513
    036332  a0   000001 047262
                                  2387  	ch    1,s001073 [ 0]	514
    036333  a0   000001 047363
                                  2388  	ch    1,s000772 [ 0]	515
    036334  a0   000001 047262
                                  2389  	ch    1,s000772 [ 0]	516
    036335  a0   000001 047262
                                  2390  	ch    1,s001213 [ 0]	517
    036336  a0   000001 047503
                                  2391  	ch    1,s000772 [ 0]	520
    036337  a0   000001 047262
                                  2392  	ch    1,s001006 [ 0]	521
    036340  a0   000001 047276
                                  2393  	ch    1,s001103 [ 0]	522
    036341  a0   000001 047373
                                  2394  	ch    1,s001006 [ 0]	523
    036342  a0   000001 047276
                                  2395  	ch    1,s001006 [ 0]	524
    036343  a0   000001 047276
                                  2396  	ch    1,s001221 [ 0]	525
    036344  a0   000001 047511
                                  2397  	ch    1,s001006 [ 0]	526
    036345  a0   000001 047276
                                  2398  	ch    1,s001523 [ 0]	527
    036346  a0   000001 050013
                                  2399  	ch    1,s001543 [ 0]	530
    036347  a0   000001 050033
                                  2400  	ch    1,s001610 [ 0]	531
    036350  a0   000001 050100
                                  2401  	ch    1,s001705 [ 0]	532
    036351  a0   000001 050175
                                  2402  	no_ch (1)
                                  2403  	ch    1,s001754 [ 0]	534
    036353  a0   000001 050244
                                  2404  	no_ch (1)
                                  2405  	ch    1,s002104 [ 0]	536
    036355  a0   000001 050374
                                  2406  	ch    1,s002121 [ 0]	537
    036356  a0   000001 050411
    036357                        2407  opu.4:
                                  2408  	oput.data_ct	351
    036357  aa   000000 000537
                                  2409  	no_ch (32)
                                  2410  	ch    1,s000361 [ 4]	040 SP
    036420  a0   000001 046651
                                  2411  	ch    1,s002375 [ 0]	041 !
    036421  a0   000001 050665
                                  2412  	ch    1,s002400 [ 0]	042 "
    036422  a0   000001 050670
                                  2413  	ch    1,s002403 [ 0]	043 #
    036423  a0   000001 050673
                                  2414  	ch    1,s002406 [ 0]	044 $
    036424  a0   000001 050676
                                  2415  	ch    1,s002411 [ 0]	045 %
    036425  a0   000001 050701
                                  2416  	ch    1,s002414 [ 0]	046 &
    036426  a0   000001 050704
                                  2417  	ch    1,s002417 [ 0]	047 '
    036427  a0   000001 050707
                                  2418  	ch    1,s002422 [ 0]	050 Lp
    036430  a0   000001 050712
                                  2419  	ch    1,s002425 [ 0]	051 Rp
    036431  a0   000001 050715
                                  2420  	ch    1,s002430 [ 0]	052 *
    036432  a0   000001 050720
                                  2421  	ch    1,s002433 [ 0]	053 +
    036433  a0   000001 050723
                                  2422  	ch    1,s002436 [ 0]	054 ,
    036434  a0   000001 050726
                                  2423  	ch    1,s002441 [ 0]	055 -
    036435  a0   000001 050731
                                  2424  	ch    1,s002444 [ 0]	056 .
    036436  a0   000001 050734
                                  2425  	ch    1,s002447 [ 0]	057 /
    036437  a0   000001 050737
                                  2426  	ch    1,s002452 [ 0]	060 0
    036440  a0   000001 050742
                                  2427  	ch    1,s002455 [ 0]	061 1
    036441  a0   000001 050745
                                  2428  	ch    1,s002460 [ 0]	062 2
    036442  a0   000001 050750
                                  2429  	ch    1,s002463 [ 0]	063 3
    036443  a0   000001 050753
                                  2430  	ch    1,s002466 [ 0]	064 4
    036444  a0   000001 050756
                                  2431  	ch    1,s002471 [ 0]	065 5
    036445  a0   000001 050761
                                  2432  	ch    1,s002474 [ 0]	066 6
    036446  a0   000001 050764
                                  2433  	ch    1,s002477 [ 0]	067 7
    036447  a0   000001 050767
                                  2434  	ch    1,s002502 [ 0]	070 8
    036450  a0   000001 050772
                                  2435  	ch    1,s002505 [ 0]	071 9
    036451  a0   000001 050775
                                  2436  	ch    1,s002510 [ 0]	072 :
    036452  a0   000001 051000
                                  2437  	ch    1,s002513 [ 0]	073 ;
    036453  a0   000001 051003
                                  2438  	ch    1,s002516 [ 0]	074 <
    036454  a0   000001 051006
                                  2439  	ch    1,s002521 [ 0]	075 =
    036455  a0   000001 051011
                                  2440  	ch    1,s002524 [ 0]	076 >
    036456  a0   000001 051014
                                  2441  	ch    1,s002527 [ 0]	077 ?
    036457  a0   000001 051017
                                  2442  	ch    1,s002532 [ 0]	100 @
    036460  a0   000001 051022
                                  2443  	ch    1,s002535 [ 0]	101 A
    036461  a0   000001 051025
                                  2444  	ch    1,s002540 [ 0]	102 B
    036462  a0   000001 051030
                                  2445  	ch    1,s002543 [ 0]	103 C
    036463  a0   000001 051033
                                  2446  	ch    1,s002546 [ 0]	104 D
    036464  a0   000001 051036
                                  2447  	ch    1,s002551 [ 0]	105 E
    036465  a0   000001 051041
                                  2448  	ch    1,s002554 [ 0]	106 F
    036466  a0   000001 051044
                                  2449  	ch    1,s002557 [ 0]	107 G
    036467  a0   000001 051047
                                  2450  	ch    1,s002562 [ 0]	110 H
    036470  a0   000001 051052
                                  2451  	ch    1,s002565 [ 0]	111 I
    036471  a0   000001 051055
                                  2452  	ch    1,s002570 [ 0]	112 J
    036472  a0   000001 051060
                                  2453  	ch    1,s002573 [ 0]	113 K
    036473  a0   000001 051063
                                  2454  	ch    1,s002576 [ 0]	114 L
    036474  a0   000001 051066
                                  2455  	ch    1,s002601 [ 0]	115 M
    036475  a0   000001 051071
                                  2456  	ch    1,s002604 [ 0]	116 N
    036476  a0   000001 051074
                                  2457  	ch    1,s002607 [ 0]	117 O
    036477  a0   000001 051077
                                  2458  	ch    1,s002612 [ 0]	120 P
    036500  a0   000001 051102
                                  2459  	ch    1,s002615 [ 0]	121 Q
    036501  a0   000001 051105
                                  2460  	ch    1,s002620 [ 0]	122 R
    036502  a0   000001 051110
                                  2461  	ch    1,s002623 [ 0]	123 S
    036503  a0   000001 051113
                                  2462  	ch    1,s002626 [ 0]	124 T
    036504  a0   000001 051116
                                  2463  	ch    1,s002631 [ 0]	125 U
    036505  a0   000001 051121
                                  2464  	ch    1,s002634 [ 0]	126 V
    036506  a0   000001 051124
                                  2465  	ch    1,s002637 [ 0]	127 W
    036507  a0   000001 051127
                                  2466  	ch    1,s002642 [ 0]	130 X
    036510  a0   000001 051132
                                  2467  	ch    1,s002645 [ 0]	131 Y
    036511  a0   000001 051135
                                  2468  	ch    1,s002650 [ 0]	132 Z
    036512  a0   000001 051140
                                  2469  	ch    1,s002653 [ 0]	133 [
    036513  a0   000001 051143
                                  2470  	ch    1,s002656 [ 0]	134 \
    036514  a0   000001 051146
                                  2471  	ch    1,s002661 [ 0]	135 ]
    036515  a0   000001 051151
                                  2472  	ch    1,s002664 [ 0]	136 ^
    036516  a0   000001 051154
                                  2473  	ch    1,s002667 [ 0]	137 _
    036517  a0   000001 051157
                                  2474  	ch    1,s002672 [ 0]	140 `
    036520  a0   000001 051162
                                  2475  	ch    1,s002675 [ 0]	141 a
    036521  a0   000001 051165
                                  2476  	ch    1,s002700 [ 0]	142 b
    036522  a0   000001 051170
                                  2477  	ch    1,s002703 [ 0]	143 c
    036523  a0   000001 051173
                                  2478  	ch    1,s002706 [ 0]	144 d
    036524  a0   000001 051176
                                  2479  	ch    1,s002711 [ 0]	145 e
    036525  a0   000001 051201
                                  2480  	ch    1,s002714 [ 0]	146 f
    036526  a0   000001 051204
                                  2481  	ch    1,s002717 [ 0]	147 g
    036527  a0   000001 051207
                                  2482  	ch    1,s002722 [ 0]	150 h
    036530  a0   000001 051212
                                  2483  	ch    1,s002725 [ 0]	151 i
    036531  a0   000001 051215
                                  2484  	ch    1,s002730 [ 0]	152 j
    036532  a0   000001 051220
                                  2485  	ch    1,s002733 [ 0]	153 k
    036533  a0   000001 051223
                                  2486  	ch    1,s002736 [ 0]	154 l
    036534  a0   000001 051226
                                  2487  	ch    1,s002741 [ 0]	155 m
    036535  a0   000001 051231
                                  2488  	ch    1,s002744 [ 0]	156 n
    036536  a0   000001 051234
                                  2489  	ch    1,s002747 [ 0]	157 o
    036537  a0   000001 051237
                                  2490  	ch    1,s002752 [ 0]	160 p
    036540  a0   000001 051242
                                  2491  	ch    1,s002755 [ 0]	161 q
    036541  a0   000001 051245
                                  2492  	ch    1,s002760 [ 0]	162 r
    036542  a0   000001 051250
                                  2493  	ch    1,s002763 [ 0]	163 s
    036543  a0   000001 051253
                                  2494  	ch    1,s002766 [ 0]	164 t
    036544  a0   000001 051256
                                  2495  	ch    1,s002771 [ 0]	165 u
    036545  a0   000001 051261
                                  2496  	ch    1,s002774 [ 0]	166 v
    036546  a0   000001 051264
                                  2497  	ch    1,s002777 [ 0]	167 w
    036547  a0   000001 051267
                                  2498  	ch    1,s003002 [ 0]	170 x
    036550  a0   000001 051272
                                  2499  	ch    1,s003005 [ 0]	171 y
    036551  a0   000001 051275
                                  2500  	ch    1,s003010 [ 0]	172 z
    036552  a0   000001 051300
                                  2501  	ch    1,s003013 [ 0]	173 {
    036553  a0   000001 051303
                                  2502  	ch    1,s003016 [ 0]	174 |
    036554  a0   000001 051306
                                  2503  	ch    1,s003021 [ 0]	175 }
    036555  a0   000001 051311
                                  2504  	ch    1,s003024 [ 0]	176 ~
    036556  a0   000001 051314
                                  2505  	ch    1,s000661 [ 0]	177 PAD
    036557  a0   000001 047151
                                  2506  	no_ch (29)
                                  2507  	ch    1,s000663 [ 0]	235
    036615  a0   000001 047153
                                  2508  	ch    1,s000665 [ 0]	236
    036616  a0   000001 047155
                                  2509  	ch    1,s000667 [ 0]	237
    036617  a0   000001 047157
                                  2510  	no_ch (12)
                                  2511  	ch    1,s002334 [ 0]	254 nabla
    036634  a0   000001 050624
                                  2512  	no_ch (4)
                                  2513  	ch    1,s002310 [ 0]	261 dagger
    036641  a0   000001 050600
                                  2514  	no_ch (13)
                                  2515  	ch    1,s000002 [ 0]	277
    036657  a0   000001 046650
                                  2516  	no_ch (1)
                                  2517  	ch    1,s002316 [ 0]	301 dbl dagger
    036661  a0   000001 050606
                                  2518  	no_ch (1)
                                  2519  	ch    1,s002227 [ 0]	303 copyright
    036663  a0   000001 050517
                                  2520  	ch    1,s002325 [ 0]	304 delta
    036664  a0   000001 050615
                                  2521  	no_ch (8)
                                  2522  	ch    1,s001572 [ 0]	315 bullet
    036675  a0   000001 050062
                                  2523  	no_ch (6)
                                  2524  	ch    1,s002255 [ 0]	324
    036704  a0   000001 050545
                                  2525  	no_ch (40)
                                  2526  	ch    1,s000671 [ 0]	375 square
    036755  a0   000001 047161
                                  2527  	no_ch (12)
                                  2528  	ch    1,s000675 [ 0]	412 EM
    036772  a0   000001 047165
                                  2529  	ch    1,s000702 [ 0]	413 EM _dash
    036773  a0   000001 047172
                                  2530  	ch    1,s000361 [ 0]	414 EN
    036774  a0   000001 046651
                                  2531  	ch    1,s000557 [ 0]	415 EN _dash
    036775  a0   000001 047047
                                  2532  	no_ch (1)
                                  2533  	ch    1,s000677 [ 0]	417 thin space
    036777  a0   000001 047167
                                  2534  	no_ch (3)
                                  2535  	ch    1,s001626 [ 0]	423 1hi X
    037003  a0   000001 050116
                                  2536  	ch    1,s001666 [ 0]	424
    037004  a0   000001 050156
                                  2537  	ch    1,s001717 [ 0]	425 v|
    037005  a0   000001 050207
                                  2538  	ch    1,s002070 [ 0]	426
    037006  a0   000001 050360
                                  2539  	ch    1,s002034 [ 0]	427 dia left
    037007  a0   000001 050324
                                  2540  	ch    1,s001645 [ 0]	430 delete mark
    037010  a0   000001 050135
                                  2541  	ch    1,s002052 [ 0]	431 dia right
    037011  a0   000001 050342
                                  2542  	ch    1,s002023 [ 0]	432 dia top
    037012  a0   000001 050313
                                  2543  	ch    1,s001761 [ 0]	433 <
    037013  a0   000001 050251
                                  2544  	ch    1,s001401 [ 0]	434 1hi {
    037014  a0   000001 047671
                                  2545  	ch    1,s001327 [ 0]	435 1hi [
    037015  a0   000001 047617
                                  2546  	ch    1,s002136 [ 0]	436 left circle
    037016  a0   000001 050426
                                  2547  	ch    1,s001453 [ 0]	437
    037017  a0   000001 047743
                                  2548  	ch    1,s002002 [ 0]	440 ->
    037020  a0   000001 050272
                                  2549  	ch    1,s001425 [ 0]	441 1hi }
    037021  a0   000001 047715
                                  2550  	ch    1,s001353 [ 0]	442 1hi ]
    037022  a0   000001 047643
                                  2551  	ch    1,s002171 [ 0]	443 right circle
    037023  a0   000001 050461
                                  2552  	ch    1,s001476 [ 0]	444
    037024  a0   000001 047766
                                  2553  	ch    1,s001734 [ 0]	445 ^|
    037025  a0   000001 050224
                                  2554  	no_ch (1)
                                  2555  	ch    1,s000704 [ 0]	447
    037027  a0   000001 047174
                                  2556  	ch    1,s001025 [ 0]	450
    037030  a0   000001 047315
                                  2557  	ch    1,s000772 [ 0]	451
    037031  a0   000001 047262
                                  2558  	ch    1,s001235 [ 0]	452
    037032  a0   000001 047525
                                  2559  	ch    1,s001147 [ 0]	453
    037033  a0   000001 047437
                                  2560  	ch    1,s000772 [ 0]	454
    037034  a0   000001 047262
                                  2561  	ch    1,s000721 [ 0]	455
    037035  a0   000001 047211
                                  2562  	ch    1,s001036 [ 0]	456
    037036  a0   000001 047326
                                  2563  	ch    1,s000772 [ 0]	457
    037037  a0   000001 047262
                                  2564  	ch    1,s001254 [ 0]	460
    037040  a0   000001 047544
                                  2565  	ch    1,s001160 [ 0]	461
    037041  a0   000001 047450
                                  2566  	ch    1,s000772 [ 0]	462
    037042  a0   000001 047262
                                  2567  	ch    1,s000740 [ 0]	463
    037043  a0   000001 047230
                                  2568  	ch    1,s001051 [ 0]	464
    037044  a0   000001 047341
                                  2569  	ch    1,s001115 [ 0]	465
    037045  a0   000001 047405
                                  2570  	ch    1,s001273 [ 0]	466
    037046  a0   000001 047563
                                  2571  	ch    1,s001171 [ 0]	467
    037047  a0   000001 047461
                                  2572  	ch    1,s000772 [ 0]	470
    037050  a0   000001 047262
                                  2573  	ch    1,s000754 [ 0]	471
    037051  a0   000001 047244
                                  2574  	ch    1,s001061 [ 0]	472
    037052  a0   000001 047351
                                  2575  	ch    1,s001132 [ 0]	473
    037053  a0   000001 047422
                                  2576  	ch    1,s001311 [ 0]	474
    037054  a0   000001 047601
                                  2577  	ch    1,s001202 [ 0]	475
    037055  a0   000001 047472
                                  2578  	ch    1,s000772 [ 0]	476
    037056  a0   000001 047262
                                  2579  	ch    1,s000740 [ 0]	477
    037057  a0   000001 047230
                                  2580  	ch    1,s001051 [ 0]	500
    037060  a0   000001 047341
                                  2581  	ch    1,s000772 [ 0]	501
    037061  a0   000001 047262
                                  2582  	ch    1,s001273 [ 0]	502
    037062  a0   000001 047563
                                  2583  	ch    1,s001171 [ 0]	503
    037063  a0   000001 047461
                                  2584  	ch    1,s000772 [ 0]	504
    037064  a0   000001 047262
                                  2585  	ch    1,s000754 [ 0]	505
    037065  a0   000001 047244
                                  2586  	ch    1,s001061 [ 0]	506
    037066  a0   000001 047351
                                  2587  	ch    1,s000772 [ 0]	507
    037067  a0   000001 047262
                                  2588  	ch    1,s001311 [ 0]	510
    037070  a0   000001 047601
                                  2589  	ch    1,s001202 [ 0]	511
    037071  a0   000001 047472
                                  2590  	ch    1,s000772 [ 0]	512
    037072  a0   000001 047262
                                  2591  	ch    1,s000772 [ 0]	513
    037073  a0   000001 047262
                                  2592  	ch    1,s001073 [ 0]	514
    037074  a0   000001 047363
                                  2593  	ch    1,s000772 [ 0]	515
    037075  a0   000001 047262
                                  2594  	ch    1,s000772 [ 0]	516
    037076  a0   000001 047262
                                  2595  	ch    1,s001213 [ 0]	517
    037077  a0   000001 047503
                                  2596  	ch    1,s000772 [ 0]	520
    037100  a0   000001 047262
                                  2597  	ch    1,s001006 [ 0]	521
    037101  a0   000001 047276
                                  2598  	ch    1,s001103 [ 0]	522
    037102  a0   000001 047373
                                  2599  	ch    1,s001006 [ 0]	523
    037103  a0   000001 047276
                                  2600  	ch    1,s001006 [ 0]	524
    037104  a0   000001 047276
                                  2601  	ch    1,s001221 [ 0]	525
    037105  a0   000001 047511
                                  2602  	ch    1,s001006 [ 0]	526
    037106  a0   000001 047276
                                  2603  	ch    1,s001523 [ 0]	527
    037107  a0   000001 050013
                                  2604  	ch    1,s001543 [ 0]	530
    037110  a0   000001 050033
                                  2605  	ch    1,s001610 [ 0]	531
    037111  a0   000001 050100
                                  2606  	ch    1,s001705 [ 0]	532
    037112  a0   000001 050175
                                  2607  	no_ch (1)
                                  2608  	ch    1,s001754 [ 0]	534
    037114  a0   000001 050244
                                  2609  	no_ch (1)
                                  2610  	ch    1,s002104 [ 0]	536
    037116  a0   000001 050374
                                  2611  	ch    1,s002121 [ 0]	537
    037117  a0   000001 050411
    037120                        2612  opu.5:
                                  2613  	oput.data_ct	351
    037120  aa   000000 000537
                                  2614  	no_ch (32)
                                  2615  	ch    1,s000361 [ 4]	040 SP
    037161  a0   000001 046651
                                  2616  	ch    1,s003027 [ 0]	041 !
    037162  a0   000001 051317
                                  2617  	ch    1,s003031 [ 0]	042 "
    037163  a0   000001 051321
                                  2618  	ch    1,s003033 [ 0]	043 #
    037164  a0   000001 051323
                                  2619  	ch    1,s003035 [ 0]	044 $
    037165  a0   000001 051325
                                  2620  	ch    1,s003037 [ 0]	045 %
    037166  a0   000001 051327
                                  2621  	ch    1,s003041 [ 0]	046 &
    037167  a0   000001 051331
                                  2622  	ch    1,s003043 [ 0]	047 '
    037170  a0   000001 051333
                                  2623  	ch    1,s003045 [ 0]	050 Lp
    037171  a0   000001 051335
                                  2624  	ch    1,s003047 [ 0]	051 Rp
    037172  a0   000001 051337
                                  2625  	ch    1,s003051 [ 0]	052 *
    037173  a0   000001 051341
                                  2626  	ch    1,s003053 [ 0]	053 +
    037174  a0   000001 051343
                                  2627  	ch    1,s003055 [ 0]	054 ,
    037175  a0   000001 051345
                                  2628  	ch    1,s003057 [ 0]	055 -
    037176  a0   000001 051347
                                  2629  	ch    1,s003061 [ 0]	056 .
    037177  a0   000001 051351
                                  2630  	ch    1,s003063 [ 0]	057 /
    037200  a0   000001 051353
                                  2631  	ch    1,s003065 [ 0]	060 0
    037201  a0   000001 051355
                                  2632  	ch    1,s003067 [ 0]	061 1
    037202  a0   000001 051357
                                  2633  	ch    1,s003071 [ 0]	062 2
    037203  a0   000001 051361
                                  2634  	ch    1,s003073 [ 0]	063 3
    037204  a0   000001 051363
                                  2635  	ch    1,s003075 [ 0]	064 4
    037205  a0   000001 051365
                                  2636  	ch    1,s003077 [ 0]	065 5
    037206  a0   000001 051367
                                  2637  	ch    1,s003101 [ 0]	066 6
    037207  a0   000001 051371
                                  2638  	ch    1,s003103 [ 0]	067 7
    037210  a0   000001 051373
                                  2639  	ch    1,s003105 [ 0]	070 8
    037211  a0   000001 051375
                                  2640  	ch    1,s003107 [ 0]	071 9
    037212  a0   000001 051377
                                  2641  	ch    1,s003111 [ 0]	072 :
    037213  a0   000001 051401
                                  2642  	ch    1,s003113 [ 0]	073 ;
    037214  a0   000001 051403
                                  2643  	ch    1,s003115 [ 0]	074 <
    037215  a0   000001 051405
                                  2644  	ch    1,s003117 [ 0]	075 =
    037216  a0   000001 051407
                                  2645  	ch    1,s003121 [ 0]	076 >
    037217  a0   000001 051411
                                  2646  	ch    1,s003123 [ 0]	077 ?
    037220  a0   000001 051413
                                  2647  	ch    1,s003125 [ 0]	100 @
    037221  a0   000001 051415
                                  2648  	ch    1,s003127 [ 0]	101 A
    037222  a0   000001 051417
                                  2649  	ch    1,s003131 [ 0]	102 B
    037223  a0   000001 051421
                                  2650  	ch    1,s003133 [ 0]	103 C
    037224  a0   000001 051423
                                  2651  	ch    1,s003135 [ 0]	104 D
    037225  a0   000001 051425
                                  2652  	ch    1,s003137 [ 0]	105 E
    037226  a0   000001 051427
                                  2653  	ch    1,s003141 [ 0]	106 F
    037227  a0   000001 051431
                                  2654  	ch    1,s003143 [ 0]	107 G
    037230  a0   000001 051433
                                  2655  	ch    1,s003145 [ 0]	110 H
    037231  a0   000001 051435
                                  2656  	ch    1,s003147 [ 0]	111 I
    037232  a0   000001 051437
                                  2657  	ch    1,s003151 [ 0]	112 J
    037233  a0   000001 051441
                                  2658  	ch    1,s003153 [ 0]	113 K
    037234  a0   000001 051443
                                  2659  	ch    1,s003155 [ 0]	114 L
    037235  a0   000001 051445
                                  2660  	ch    1,s003157 [ 0]	115 M
    037236  a0   000001 051447
                                  2661  	ch    1,s003161 [ 0]	116 N
    037237  a0   000001 051451
                                  2662  	ch    1,s003163 [ 0]	117 O
    037240  a0   000001 051453
                                  2663  	ch    1,s003165 [ 0]	120 P
    037241  a0   000001 051455
                                  2664  	ch    1,s003167 [ 0]	121 Q
    037242  a0   000001 051457
                                  2665  	ch    1,s003171 [ 0]	122 R
    037243  a0   000001 051461
                                  2666  	ch    1,s003173 [ 0]	123 S
    037244  a0   000001 051463
                                  2667  	ch    1,s003175 [ 0]	124 T
    037245  a0   000001 051465
                                  2668  	ch    1,s003177 [ 0]	125 U
    037246  a0   000001 051467
                                  2669  	ch    1,s003201 [ 0]	126 V
    037247  a0   000001 051471
                                  2670  	ch    1,s003203 [ 0]	127 W
    037250  a0   000001 051473
                                  2671  	ch    1,s003205 [ 0]	130 X
    037251  a0   000001 051475
                                  2672  	ch    1,s003207 [ 0]	131 Y
    037252  a0   000001 051477
                                  2673  	ch    1,s003211 [ 0]	132 Z
    037253  a0   000001 051501
                                  2674  	ch    1,s003213 [ 0]	133 [
    037254  a0   000001 051503
                                  2675  	ch    1,s003215 [ 0]	134 \
    037255  a0   000001 051505
                                  2676  	ch    1,s003217 [ 0]	135 ]
    037256  a0   000001 051507
                                  2677  	ch    1,s003221 [ 0]	136 ^
    037257  a0   000001 051511
                                  2678  	ch    1,s003223 [ 0]	137 _
    037260  a0   000001 051513
                                  2679  	ch    1,s003225 [ 0]	140 `
    037261  a0   000001 051515
                                  2680  	ch    1,s003227 [ 0]	141 a
    037262  a0   000001 051517
                                  2681  	ch    1,s003231 [ 0]	142 b
    037263  a0   000001 051521
                                  2682  	ch    1,s003233 [ 0]	143 c
    037264  a0   000001 051523
                                  2683  	ch    1,s000663 [ 0]	144 d
    037265  a0   000001 047153
                                  2684  	ch    1,s003235 [ 0]	145 e
    037266  a0   000001 051525
                                  2685  	ch    1,s003237 [ 0]	146 f
    037267  a0   000001 051527
                                  2686  	ch    1,s003241 [ 0]	147 g
    037270  a0   000001 051531
                                  2687  	ch    1,s003243 [ 0]	150 h
    037271  a0   000001 051533
                                  2688  	ch    1,s003245 [ 0]	151 i
    037272  a0   000001 051535
                                  2689  	ch    1,s003247 [ 0]	152 j
    037273  a0   000001 051537
                                  2690  	ch    1,s003251 [ 0]	153 k
    037274  a0   000001 051541
                                  2691  	ch    1,s003253 [ 0]	154 l
    037275  a0   000001 051543
                                  2692  	ch    1,s003255 [ 0]	155 m
    037276  a0   000001 051545
                                  2693  	ch    1,s000665 [ 0]	156 n
    037277  a0   000001 047155
                                  2694  	ch    1,s003257 [ 0]	157 o
    037300  a0   000001 051547
                                  2695  	ch    1,s003261 [ 0]	160 p
    037301  a0   000001 051551
                                  2696  	ch    1,s003263 [ 0]	161 q
    037302  a0   000001 051553
                                  2697  	ch    1,s003265 [ 0]	162 r
    037303  a0   000001 051555
                                  2698  	ch    1,s003267 [ 0]	163 s
    037304  a0   000001 051557
                                  2699  	ch    1,s003271 [ 0]	164 t
    037305  a0   000001 051561
                                  2700  	ch    1,s003273 [ 0]	165 u
    037306  a0   000001 051563
                                  2701  	ch    1,s003275 [ 0]	166 v
    037307  a0   000001 051565
                                  2702  	ch    1,s003277 [ 0]	167 w
    037310  a0   000001 051567
                                  2703  	ch    1,s000667 [ 0]	170 x
    037311  a0   000001 047157
                                  2704  	ch    1,s003301 [ 0]	171 y
    037312  a0   000001 051571
                                  2705  	ch    1,s003303 [ 0]	172 z
    037313  a0   000001 051573
                                  2706  	ch    1,s003305 [ 0]	173 {
    037314  a0   000001 051575
                                  2707  	ch    1,s003307 [ 0]	174 |
    037315  a0   000001 051577
                                  2708  	ch    1,s003311 [ 0]	175 }
    037316  a0   000001 051601
                                  2709  	ch    1,s003313 [ 0]	176 ~
    037317  a0   000001 051603
                                  2710  	ch    1,s000661 [ 0]	177 PAD
    037320  a0   000001 047151
                                  2711  	ch    1,s003330 [ 0]	200
    037321  a0   000001 051620
                                  2712  	no_ch (28)
                                  2713  	ch    1,s000663 [ 0]	235
    037356  a0   000001 047153
                                  2714  	ch    1,s000665 [ 0]	236
    037357  a0   000001 047155
                                  2715  	ch    1,s000667 [ 0]	237
    037360  a0   000001 047157
                                  2716  	ch    1,s002371 [ 0]	240
    037361  a0   000001 050661
                                  2717  	no_ch (11)
                                  2718  	ch    1,s002334 [ 0]	254 nabla
    037375  a0   000001 050624
                                  2719  	ch    1,s003315 [ 0]	255 EMdash
    037376  a0   000001 051605
                                  2720  	no_ch (3)
                                  2721  	ch    1,s002310 [ 0]	261 dagger
    037402  a0   000001 050600
                                  2722  	no_ch (13)
                                  2723  	ch    1,s000002 [ 0]	277
    037420  a0   000001 046650
                                  2724  	no_ch (1)
                                  2725  	ch    1,s002316 [ 0]	301 dbl dagger
    037422  a0   000001 050606
                                  2726  	no_ch (1)
                                  2727  	ch    1,s002227 [ 0]	303 copyright
    037424  a0   000001 050517
                                  2728  	ch    1,s002325 [ 0]	304 delta
    037425  a0   000001 050615
                                  2729  	no_ch (8)
                                  2730  	ch    1,s001572 [ 0]	315 bullet
    037436  a0   000001 050062
                                  2731  	no_ch (6)
                                  2732  	ch    1,s002255 [ 0]	324
    037445  a0   000001 050545
                                  2733  	no_ch (40)
                                  2734  	ch    1,s000671 [ 0]	375 square
    037516  a0   000001 047161
                                  2735  	no_ch (12)
                                  2736  	ch    1,s000675 [ 0]	412 EM
    037533  a0   000001 047165
                                  2737  	ch    1,s000702 [ 0]	413 EM _dash
    037534  a0   000001 047172
                                  2738  	ch    1,s000361 [ 0]	414 EN
    037535  a0   000001 046651
                                  2739  	ch    1,s000557 [ 0]	415 EN _dash
    037536  a0   000001 047047
                                  2740  	ch    1,s003057 [ 0]	416 EN dash
    037537  a0   000001 051347
                                  2741  	ch    1,s000677 [ 0]	417 thin space
    037540  a0   000001 047167
                                  2742  	ch    1,s003057 [ 0]	420 hyphen
    037541  a0   000001 051347
                                  2743  	ch    1,s003031 [ 0]	421 ``
    037542  a0   000001 051321
                                  2744  	ch    1,s003031 [ 0]	422 ''
    037543  a0   000001 051321
                                  2745  	ch    1,s001626 [ 0]	423 1hi X
    037544  a0   000001 050116
                                  2746  	ch    1,s001666 [ 0]	424
    037545  a0   000001 050156
                                  2747  	ch    1,s001717 [ 0]	425 v|
    037546  a0   000001 050207
                                  2748  	ch    1,s002070 [ 0]	426
    037547  a0   000001 050360
                                  2749  	ch    1,s002034 [ 0]	427 dia left
    037550  a0   000001 050324
                                  2750  	ch    1,s001645 [ 0]	430 delete mark
    037551  a0   000001 050135
                                  2751  	ch    1,s002052 [ 0]	431 dia right
    037552  a0   000001 050342
                                  2752  	ch    1,s002023 [ 0]	432 dia top
    037553  a0   000001 050313
                                  2753  	ch    1,s001761 [ 0]	433 <
    037554  a0   000001 050251
                                  2754  	ch    1,s001401 [ 0]	434 1hi {
    037555  a0   000001 047671
                                  2755  	ch    1,s001327 [ 0]	435 1hi [
    037556  a0   000001 047617
                                  2756  	ch    1,s002136 [ 0]	436 left circle
    037557  a0   000001 050426
                                  2757  	ch    1,s001453 [ 0]	437
    037560  a0   000001 047743
                                  2758  	ch    1,s002002 [ 0]	440 ->
    037561  a0   000001 050272
                                  2759  	ch    1,s001425 [ 0]	441 1hi }
    037562  a0   000001 047715
                                  2760  	ch    1,s001353 [ 0]	442 1hi ]
    037563  a0   000001 047643
                                  2761  	ch    1,s002171 [ 0]	443 right circle
    037564  a0   000001 050461
                                  2762  	ch    1,s001476 [ 0]	444
    037565  a0   000001 047766
                                  2763  	ch    1,s001734 [ 0]	445 ^|
    037566  a0   000001 050224
                                  2764  	no_ch (1)
                                  2765  	ch    1,s000704 [ 0]	447
    037570  a0   000001 047174
                                  2766  	ch    1,s001025 [ 0]	450
    037571  a0   000001 047315
                                  2767  	ch    1,s000772 [ 0]	451
    037572  a0   000001 047262
                                  2768  	ch    1,s001235 [ 0]	452
    037573  a0   000001 047525
                                  2769  	ch    1,s001147 [ 0]	453
    037574  a0   000001 047437
                                  2770  	ch    1,s000772 [ 0]	454
    037575  a0   000001 047262
                                  2771  	ch    1,s000721 [ 0]	455
    037576  a0   000001 047211
                                  2772  	ch    1,s001036 [ 0]	456
    037577  a0   000001 047326
                                  2773  	ch    1,s000772 [ 0]	457
    037600  a0   000001 047262
                                  2774  	ch    1,s001254 [ 0]	460
    037601  a0   000001 047544
                                  2775  	ch    1,s001160 [ 0]	461
    037602  a0   000001 047450
                                  2776  	ch    1,s000772 [ 0]	462
    037603  a0   000001 047262
                                  2777  	ch    1,s000740 [ 0]	463
    037604  a0   000001 047230
                                  2778  	ch    1,s001051 [ 0]	464
    037605  a0   000001 047341
                                  2779  	ch    1,s001115 [ 0]	465
    037606  a0   000001 047405
                                  2780  	ch    1,s001273 [ 0]	466
    037607  a0   000001 047563
                                  2781  	ch    1,s001171 [ 0]	467
    037610  a0   000001 047461
                                  2782  	ch    1,s000772 [ 0]	470
    037611  a0   000001 047262
                                  2783  	ch    1,s000754 [ 0]	471
    037612  a0   000001 047244
                                  2784  	ch    1,s001061 [ 0]	472
    037613  a0   000001 047351
                                  2785  	ch    1,s001132 [ 0]	473
    037614  a0   000001 047422
                                  2786  	ch    1,s001311 [ 0]	474
    037615  a0   000001 047601
                                  2787  	ch    1,s001202 [ 0]	475
    037616  a0   000001 047472
                                  2788  	ch    1,s000772 [ 0]	476
    037617  a0   000001 047262
                                  2789  	ch    1,s000740 [ 0]	477
    037620  a0   000001 047230
                                  2790  	ch    1,s001051 [ 0]	500
    037621  a0   000001 047341
                                  2791  	ch    1,s000772 [ 0]	501
    037622  a0   000001 047262
                                  2792  	ch    1,s001273 [ 0]	502
    037623  a0   000001 047563
                                  2793  	ch    1,s001171 [ 0]	503
    037624  a0   000001 047461
                                  2794  	ch    1,s000772 [ 0]	504
    037625  a0   000001 047262
                                  2795  	ch    1,s000754 [ 0]	505
    037626  a0   000001 047244
                                  2796  	ch    1,s001061 [ 0]	506
    037627  a0   000001 047351
                                  2797  	ch    1,s000772 [ 0]	507
    037630  a0   000001 047262
                                  2798  	ch    1,s001311 [ 0]	510
    037631  a0   000001 047601
                                  2799  	ch    1,s001202 [ 0]	511
    037632  a0   000001 047472
                                  2800  	ch    1,s000772 [ 0]	512
    037633  a0   000001 047262
                                  2801  	ch    1,s000772 [ 0]	513
    037634  a0   000001 047262
                                  2802  	ch    1,s001073 [ 0]	514
    037635  a0   000001 047363
                                  2803  	ch    1,s000772 [ 0]	515
    037636  a0   000001 047262
                                  2804  	ch    1,s000772 [ 0]	516
    037637  a0   000001 047262
                                  2805  	ch    1,s001213 [ 0]	517
    037640  a0   000001 047503
                                  2806  	ch    1,s000772 [ 0]	520
    037641  a0   000001 047262
                                  2807  	ch    1,s001006 [ 0]	521
    037642  a0   000001 047276
                                  2808  	ch    1,s001103 [ 0]	522
    037643  a0   000001 047373
                                  2809  	ch    1,s001006 [ 0]	523
    037644  a0   000001 047276
                                  2810  	ch    1,s001006 [ 0]	524
    037645  a0   000001 047276
                                  2811  	ch    1,s001221 [ 0]	525
    037646  a0   000001 047511
                                  2812  	ch    1,s001006 [ 0]	526
    037647  a0   000001 047276
                                  2813  	ch    1,s001523 [ 0]	527
    037650  a0   000001 050013
                                  2814  	ch    1,s001543 [ 0]	530
    037651  a0   000001 050033
                                  2815  	ch    1,s001610 [ 0]	531
    037652  a0   000001 050100
                                  2816  	ch    1,s001705 [ 0]	532
    037653  a0   000001 050175
                                  2817  	no_ch (1)
                                  2818  	ch    1,s001754 [ 0]	534
    037655  a0   000001 050244
                                  2819  	no_ch (1)
                                  2820  	ch    1,s002104 [ 0]	536
    037657  a0   000001 050374
                                  2821  	ch    1,s002121 [ 0]	537
    037660  a0   000001 050411
    037661                        2822  opu.6:
                                  2823  	oput.data_ct	351
    037661  aa   000000 000537
                                  2824  	no_ch (32)
                                  2825  	ch    1,s000361 [ 4]	040 SP
    037722  a0   000001 046651
                                  2826  	ch    1,s003027 [ 0]	041 !
    037723  a0   000001 051317
                                  2827  	ch    1,s003031 [ 0]	042 "
    037724  a0   000001 051321
                                  2828  	ch    1,s003033 [ 0]	043 #
    037725  a0   000001 051323
                                  2829  	ch    1,s003035 [ 0]	044 $
    037726  a0   000001 051325
                                  2830  	ch    1,s003037 [ 0]	045 %
    037727  a0   000001 051327
                                  2831  	ch    1,s003041 [ 0]	046 &
    037730  a0   000001 051331
                                  2832  	ch    1,s003043 [ 0]	047 '
    037731  a0   000001 051333
                                  2833  	ch    1,s003045 [ 0]	050 Lp
    037732  a0   000001 051335
                                  2834  	ch    1,s003047 [ 0]	051 Rp
    037733  a0   000001 051337
                                  2835  	ch    1,s003051 [ 0]	052 *
    037734  a0   000001 051341
                                  2836  	ch    1,s003053 [ 0]	053 +
    037735  a0   000001 051343
                                  2837  	ch    1,s003055 [ 0]	054 ,
    037736  a0   000001 051345
                                  2838  	ch    1,s003057 [ 0]	055 -
    037737  a0   000001 051347
                                  2839  	ch    1,s003061 [ 0]	056 .
    037740  a0   000001 051351
                                  2840  	ch    1,s003063 [ 0]	057 /
    037741  a0   000001 051353
                                  2841  	ch    1,s003065 [ 0]	060 0
    037742  a0   000001 051355
                                  2842  	ch    1,s003067 [ 0]	061 1
    037743  a0   000001 051357
                                  2843  	ch    1,s003071 [ 0]	062 2
    037744  a0   000001 051361
                                  2844  	ch    1,s003073 [ 0]	063 3
    037745  a0   000001 051363
                                  2845  	ch    1,s003075 [ 0]	064 4
    037746  a0   000001 051365
                                  2846  	ch    1,s003077 [ 0]	065 5
    037747  a0   000001 051367
                                  2847  	ch    1,s003101 [ 0]	066 6
    037750  a0   000001 051371
                                  2848  	ch    1,s003103 [ 0]	067 7
    037751  a0   000001 051373
                                  2849  	ch    1,s003105 [ 0]	070 8
    037752  a0   000001 051375
                                  2850  	ch    1,s003107 [ 0]	071 9
    037753  a0   000001 051377
                                  2851  	ch    1,s003111 [ 0]	072 :
    037754  a0   000001 051401
                                  2852  	ch    1,s003113 [ 0]	073 ;
    037755  a0   000001 051403
                                  2853  	ch    1,s003115 [ 0]	074 <
    037756  a0   000001 051405
                                  2854  	ch    1,s003117 [ 0]	075 =
    037757  a0   000001 051407
                                  2855  	ch    1,s003121 [ 0]	076 >
    037760  a0   000001 051411
                                  2856  	ch    1,s003123 [ 0]	077 ?
    037761  a0   000001 051413
                                  2857  	ch    1,s003125 [ 0]	100 @
    037762  a0   000001 051415
                                  2858  	ch    1,s003127 [ 0]	101 A
    037763  a0   000001 051417
                                  2859  	ch    1,s003131 [ 0]	102 B
    037764  a0   000001 051421
                                  2860  	ch    1,s003133 [ 0]	103 C
    037765  a0   000001 051423
                                  2861  	ch    1,s003135 [ 0]	104 D
    037766  a0   000001 051425
                                  2862  	ch    1,s003137 [ 0]	105 E
    037767  a0   000001 051427
                                  2863  	ch    1,s003141 [ 0]	106 F
    037770  a0   000001 051431
                                  2864  	ch    1,s003143 [ 0]	107 G
    037771  a0   000001 051433
                                  2865  	ch    1,s003145 [ 0]	110 H
    037772  a0   000001 051435
                                  2866  	ch    1,s003147 [ 0]	111 I
    037773  a0   000001 051437
                                  2867  	ch    1,s003151 [ 0]	112 J
    037774  a0   000001 051441
                                  2868  	ch    1,s003153 [ 0]	113 K
    037775  a0   000001 051443
                                  2869  	ch    1,s003155 [ 0]	114 L
    037776  a0   000001 051445
                                  2870  	ch    1,s003157 [ 0]	115 M
    037777  a0   000001 051447
                                  2871  	ch    1,s003161 [ 0]	116 N
    040000  a0   000001 051451
                                  2872  	ch    1,s003163 [ 0]	117 O
    040001  a0   000001 051453
                                  2873  	ch    1,s003165 [ 0]	120 P
    040002  a0   000001 051455
                                  2874  	ch    1,s003167 [ 0]	121 Q
    040003  a0   000001 051457
                                  2875  	ch    1,s003171 [ 0]	122 R
    040004  a0   000001 051461
                                  2876  	ch    1,s003173 [ 0]	123 S
    040005  a0   000001 051463
                                  2877  	ch    1,s003175 [ 0]	124 T
    040006  a0   000001 051465
                                  2878  	ch    1,s003177 [ 0]	125 U
    040007  a0   000001 051467
                                  2879  	ch    1,s003201 [ 0]	126 V
    040010  a0   000001 051471
                                  2880  	ch    1,s003203 [ 0]	127 W
    040011  a0   000001 051473
                                  2881  	ch    1,s003205 [ 0]	130 X
    040012  a0   000001 051475
                                  2882  	ch    1,s003207 [ 0]	131 Y
    040013  a0   000001 051477
                                  2883  	ch    1,s003211 [ 0]	132 Z
    040014  a0   000001 051501
                                  2884  	ch    1,s003213 [ 0]	133 [
    040015  a0   000001 051503
                                  2885  	ch    1,s003215 [ 0]	134 \
    040016  a0   000001 051505
                                  2886  	ch    1,s003217 [ 0]	135 ]
    040017  a0   000001 051507
                                  2887  	ch    1,s003221 [ 0]	136 ^
    040020  a0   000001 051511
                                  2888  	ch    1,s003223 [ 0]	137 _
    040021  a0   000001 051513
                                  2889  	ch    1,s003225 [ 0]	140 `
    040022  a0   000001 051515
                                  2890  	ch    1,s003127 [ 0]	141 a
    040023  a0   000001 051417
                                  2891  	ch    1,s003131 [ 0]	142 b
    040024  a0   000001 051421
                                  2892  	ch    1,s003133 [ 0]	143 c
    040025  a0   000001 051423
                                  2893  	ch    1,s003135 [ 0]	144 d
    040026  a0   000001 051425
                                  2894  	ch    1,s003137 [ 0]	145 e
    040027  a0   000001 051427
                                  2895  	ch    1,s003141 [ 0]	146 f
    040030  a0   000001 051431
                                  2896  	ch    1,s003143 [ 0]	147 g
    040031  a0   000001 051433
                                  2897  	ch    1,s003145 [ 0]	150 h
    040032  a0   000001 051435
                                  2898  	ch    1,s003147 [ 0]	151 i
    040033  a0   000001 051437
                                  2899  	ch    1,s003151 [ 0]	152 j
    040034  a0   000001 051441
                                  2900  	ch    1,s003153 [ 0]	153 k
    040035  a0   000001 051443
                                  2901  	ch    1,s003155 [ 0]	154 l
    040036  a0   000001 051445
                                  2902  	ch    1,s003157 [ 0]	155 m
    040037  a0   000001 051447
                                  2903  	ch    1,s003161 [ 0]	156 n
    040040  a0   000001 051451
                                  2904  	ch    1,s003163 [ 0]	157 o
    040041  a0   000001 051453
                                  2905  	ch    1,s003165 [ 0]	160 p
    040042  a0   000001 051455
                                  2906  	ch    1,s003167 [ 0]	161 q
    040043  a0   000001 051457
                                  2907  	ch    1,s003171 [ 0]	162 r
    040044  a0   000001 051461
                                  2908  	ch    1,s003173 [ 0]	163 s
    040045  a0   000001 051463
                                  2909  	ch    1,s003175 [ 0]	164 t
    040046  a0   000001 051465
                                  2910  	ch    1,s003177 [ 0]	165 u
    040047  a0   000001 051467
                                  2911  	ch    1,s003201 [ 0]	166 v
    040050  a0   000001 051471
                                  2912  	ch    1,s003203 [ 0]	167 w
    040051  a0   000001 051473
                                  2913  	ch    1,s003205 [ 0]	170 x
    040052  a0   000001 051475
                                  2914  	ch    1,s003207 [ 0]	171 y
    040053  a0   000001 051477
                                  2915  	ch    1,s003211 [ 0]	172 z
    040054  a0   000001 051501
                                  2916  	ch    1,s003305 [ 0]	173 {
    040055  a0   000001 051575
                                  2917  	ch    1,s003307 [ 0]	174 |
    040056  a0   000001 051577
                                  2918  	ch    1,s003311 [ 0]	175 }
    040057  a0   000001 051601
                                  2919  	ch    1,s003313 [ 0]	176 ~
    040060  a0   000001 051603
                                  2920  	ch    1,s000661 [ 0]	177 PAD
    040061  a0   000001 047151
                                  2921  	no_ch (29)
                                  2922  	ch    1,s000663 [ 0]	235
    040117  a0   000001 047153
                                  2923  	ch    1,s000665 [ 0]	236
    040120  a0   000001 047155
                                  2924  	ch    1,s000667 [ 0]	237
    040121  a0   000001 047157
                                  2925  	ch    1,s003353 [ 0]	240
    040122  a0   000001 051643
                                  2926  	no_ch (11)
                                  2927  	ch    1,s002334 [ 0]	254 nabla
    040136  a0   000001 050624
                                  2928  	ch    1,s003335 [ 0]	255 EMdash
    040137  a0   000001 051625
                                  2929  	no_ch (3)
                                  2930  	ch    1,s002310 [ 0]	261 dagger
    040143  a0   000001 050600
                                  2931  	no_ch (13)
                                  2932  	ch    1,s000002 [ 0]	277
    040161  a0   000001 046650
                                  2933  	no_ch (1)
                                  2934  	ch    1,s002316 [ 0]	301 dbl dagger
    040163  a0   000001 050606
                                  2935  	no_ch (1)
                                  2936  	ch    1,s002227 [ 0]	303 copyright
    040165  a0   000001 050517
                                  2937  	ch    1,s002325 [ 0]	304 delta
    040166  a0   000001 050615
                                  2938  	no_ch (8)
                                  2939  	ch    1,s001572 [ 0]	315 bullet
    040177  a0   000001 050062
                                  2940  	no_ch (6)
                                  2941  	ch    1,s002255 [ 0]	324
    040206  a0   000001 050545
                                  2942  	no_ch (40)
                                  2943  	ch    1,s000671 [ 0]	375 square
    040257  a0   000001 047161
                                  2944  	no_ch (12)
                                  2945  	ch    1,s000675 [ 0]	412 EM
    040274  a0   000001 047165
                                  2946  	ch    1,s000702 [ 0]	413 EM _dash
    040275  a0   000001 047172
                                  2947  	ch    1,s000361 [ 0]	414 EN
    040276  a0   000001 046651
                                  2948  	ch    1,s000557 [ 0]	415 EN _dash
    040277  a0   000001 047047
                                  2949  	ch    1,s003345 [ 0]	416 EN dash
    040300  a0   000001 051635
                                  2950  	ch    1,s000677 [ 0]	417 thin space
    040301  a0   000001 047167
                                  2951  	ch    1,s003057 [ 0]	420 hyphen
    040302  a0   000001 051347
                                  2952  	ch    1,s003031 [ 0]	421 ``
    040303  a0   000001 051321
                                  2953  	ch    1,s003031 [ 0]	422 ''
    040304  a0   000001 051321
                                  2954  	ch    1,s001626 [ 0]	423 1hi X
    040305  a0   000001 050116
                                  2955  	ch    1,s001666 [ 0]	424
    040306  a0   000001 050156
                                  2956  	ch    1,s001717 [ 0]	425 v|
    040307  a0   000001 050207
                                  2957  	ch    1,s002070 [ 0]	426
    040310  a0   000001 050360
                                  2958  	ch    1,s002034 [ 0]	427 dia left
    040311  a0   000001 050324
                                  2959  	ch    1,s001645 [ 0]	430 delete mark
    040312  a0   000001 050135
                                  2960  	ch    1,s002052 [ 0]	431 dia right
    040313  a0   000001 050342
                                  2961  	ch    1,s002023 [ 0]	432 dia top
    040314  a0   000001 050313
                                  2962  	ch    1,s001761 [ 0]	433 <
    040315  a0   000001 050251
                                  2963  	ch    1,s001401 [ 0]	434 1hi {
    040316  a0   000001 047671
                                  2964  	ch    1,s001327 [ 0]	435 1hi [
    040317  a0   000001 047617
                                  2965  	ch    1,s002136 [ 0]	436 left circle
    040320  a0   000001 050426
                                  2966  	ch    1,s001453 [ 0]	437
    040321  a0   000001 047743
                                  2967  	ch    1,s002002 [ 0]	440 ->
    040322  a0   000001 050272
                                  2968  	ch    1,s001425 [ 0]	441 1hi }
    040323  a0   000001 047715
                                  2969  	ch    1,s001353 [ 0]	442 1hi ]
    040324  a0   000001 047643
                                  2970  	ch    1,s002171 [ 0]	443 right circle
    040325  a0   000001 050461
                                  2971  	ch    1,s001476 [ 0]	444
    040326  a0   000001 047766
                                  2972  	ch    1,s001734 [ 0]	445 ^|
    040327  a0   000001 050224
                                  2973  	no_ch (1)
                                  2974  	ch    1,s000704 [ 0]	447
    040331  a0   000001 047174
                                  2975  	ch    1,s001025 [ 0]	450
    040332  a0   000001 047315
                                  2976  	ch    1,s000772 [ 0]	451
    040333  a0   000001 047262
                                  2977  	ch    1,s001235 [ 0]	452
    040334  a0   000001 047525
                                  2978  	ch    1,s001147 [ 0]	453
    040335  a0   000001 047437
                                  2979  	ch    1,s000772 [ 0]	454
    040336  a0   000001 047262
                                  2980  	ch    1,s000721 [ 0]	455
    040337  a0   000001 047211
                                  2981  	ch    1,s001036 [ 0]	456
    040340  a0   000001 047326
                                  2982  	ch    1,s000772 [ 0]	457
    040341  a0   000001 047262
                                  2983  	ch    1,s001254 [ 0]	460
    040342  a0   000001 047544
                                  2984  	ch    1,s001160 [ 0]	461
    040343  a0   000001 047450
                                  2985  	ch    1,s000772 [ 0]	462
    040344  a0   000001 047262
                                  2986  	ch    1,s000740 [ 0]	463
    040345  a0   000001 047230
                                  2987  	ch    1,s001051 [ 0]	464
    040346  a0   000001 047341
                                  2988  	ch    1,s001115 [ 0]	465
    040347  a0   000001 047405
                                  2989  	ch    1,s001273 [ 0]	466
    040350  a0   000001 047563
                                  2990  	ch    1,s001171 [ 0]	467
    040351  a0   000001 047461
                                  2991  	ch    1,s000772 [ 0]	470
    040352  a0   000001 047262
                                  2992  	ch    1,s000754 [ 0]	471
    040353  a0   000001 047244
                                  2993  	ch    1,s001061 [ 0]	472
    040354  a0   000001 047351
                                  2994  	ch    1,s001132 [ 0]	473
    040355  a0   000001 047422
                                  2995  	ch    1,s001311 [ 0]	474
    040356  a0   000001 047601
                                  2996  	ch    1,s001202 [ 0]	475
    040357  a0   000001 047472
                                  2997  	ch    1,s000772 [ 0]	476
    040360  a0   000001 047262
                                  2998  	ch    1,s000740 [ 0]	477
    040361  a0   000001 047230
                                  2999  	ch    1,s001051 [ 0]	500
    040362  a0   000001 047341
                                  3000  	ch    1,s000772 [ 0]	501
    040363  a0   000001 047262
                                  3001  	ch    1,s001273 [ 0]	502
    040364  a0   000001 047563
                                  3002  	ch    1,s001171 [ 0]	503
    040365  a0   000001 047461
                                  3003  	ch    1,s000772 [ 0]	504
    040366  a0   000001 047262
                                  3004  	ch    1,s000754 [ 0]	505
    040367  a0   000001 047244
                                  3005  	ch    1,s001061 [ 0]	506
    040370  a0   000001 047351
                                  3006  	ch    1,s000772 [ 0]	507
    040371  a0   000001 047262
                                  3007  	ch    1,s001311 [ 0]	510
    040372  a0   000001 047601
                                  3008  	ch    1,s001202 [ 0]	511
    040373  a0   000001 047472
                                  3009  	ch    1,s000772 [ 0]	512
    040374  a0   000001 047262
                                  3010  	ch    1,s000772 [ 0]	513
    040375  a0   000001 047262
                                  3011  	ch    1,s001073 [ 0]	514
    040376  a0   000001 047363
                                  3012  	ch    1,s000772 [ 0]	515
    040377  a0   000001 047262
                                  3013  	ch    1,s000772 [ 0]	516
    040400  a0   000001 047262
                                  3014  	ch    1,s001213 [ 0]	517
    040401  a0   000001 047503
                                  3015  	ch    1,s000772 [ 0]	520
    040402  a0   000001 047262
                                  3016  	ch    1,s001006 [ 0]	521
    040403  a0   000001 047276
                                  3017  	ch    1,s001103 [ 0]	522
    040404  a0   000001 047373
                                  3018  	ch    1,s001006 [ 0]	523
    040405  a0   000001 047276
                                  3019  	ch    1,s001006 [ 0]	524
    040406  a0   000001 047276
                                  3020  	ch    1,s001221 [ 0]	525
    040407  a0   000001 047511
                                  3021  	ch    1,s001006 [ 0]	526
    040410  a0   000001 047276
                                  3022  	ch    1,s001523 [ 0]	527
    040411  a0   000001 050013
                                  3023  	ch    1,s001543 [ 0]	530
    040412  a0   000001 050033
                                  3024  	ch    1,s001610 [ 0]	531
    040413  a0   000001 050100
                                  3025  	ch    1,s001705 [ 0]	532
    040414  a0   000001 050175
                                  3026  	no_ch (1)
                                  3027  	ch    1,s001754 [ 0]	534
    040416  a0   000001 050244
                                  3028  	no_ch (1)
                                  3029  	ch    1,s002104 [ 0]	536
    040420  a0   000001 050374
                                  3030  	ch    1,s002121 [ 0]	537
    040421  a0   000001 050411
    040422                        3031  opu.7:
                                  3032  	oput.data_ct	351
    040422  aa   000000 000537
                                  3033  	no_ch (32)
                                  3034  	ch    1,s000361 [ 4]	040 SP
    040463  a0   000001 046651
                                  3035  	ch    1,s003360 [ 0]	041 !
    040464  a0   000001 051650
                                  3036  	ch    1,s003363 [ 0]	042 "
    040465  a0   000001 051653
                                  3037  	ch    1,s003366 [ 0]	043 #
    040466  a0   000001 051656
                                  3038  	ch    1,s003371 [ 0]	044 $
    040467  a0   000001 051661
                                  3039  	ch    1,s003374 [ 0]	045 %
    040470  a0   000001 051664
                                  3040  	ch    1,s003377 [ 0]	046 &
    040471  a0   000001 051667
                                  3041  	ch    1,s003402 [ 0]	047 '
    040472  a0   000001 051672
                                  3042  	ch    1,s003405 [ 0]	050 Lp
    040473  a0   000001 051675
                                  3043  	ch    1,s003410 [ 0]	051 Rp
    040474  a0   000001 051700
                                  3044  	ch    1,s003413 [ 0]	052 *
    040475  a0   000001 051703
                                  3045  	ch    1,s003416 [ 0]	053 +
    040476  a0   000001 051706
                                  3046  	ch    1,s003421 [ 0]	054 ,
    040477  a0   000001 051711
                                  3047  	ch    1,s003424 [ 0]	055 -
    040500  a0   000001 051714
                                  3048  	ch    1,s003427 [ 0]	056 .
    040501  a0   000001 051717
                                  3049  	ch    1,s003432 [ 0]	057 /
    040502  a0   000001 051722
                                  3050  	ch    1,s003435 [ 0]	060 0
    040503  a0   000001 051725
                                  3051  	ch    1,s003440 [ 0]	061 1
    040504  a0   000001 051730
                                  3052  	ch    1,s003443 [ 0]	062 2
    040505  a0   000001 051733
                                  3053  	ch    1,s003446 [ 0]	063 3
    040506  a0   000001 051736
                                  3054  	ch    1,s003451 [ 0]	064 4
    040507  a0   000001 051741
                                  3055  	ch    1,s003454 [ 0]	065 5
    040510  a0   000001 051744
                                  3056  	ch    1,s003457 [ 0]	066 6
    040511  a0   000001 051747
                                  3057  	ch    1,s003462 [ 0]	067 7
    040512  a0   000001 051752
                                  3058  	ch    1,s003465 [ 0]	070 8
    040513  a0   000001 051755
                                  3059  	ch    1,s003470 [ 0]	071 9
    040514  a0   000001 051760
                                  3060  	ch    1,s003473 [ 0]	072 :
    040515  a0   000001 051763
                                  3061  	ch    1,s003476 [ 0]	073 ;
    040516  a0   000001 051766
                                  3062  	ch    1,s003501 [ 0]	074 <
    040517  a0   000001 051771
                                  3063  	ch    1,s003504 [ 0]	075 =
    040520  a0   000001 051774
                                  3064  	ch    1,s003507 [ 0]	076 >
    040521  a0   000001 051777
                                  3065  	ch    1,s003512 [ 0]	077 ?
    040522  a0   000001 052002
                                  3066  	ch    1,s003515 [ 0]	100 @
    040523  a0   000001 052005
                                  3067  	ch    1,s003520 [ 0]	101 A
    040524  a0   000001 052010
                                  3068  	ch    1,s003523 [ 0]	102 B
    040525  a0   000001 052013
                                  3069  	ch    1,s003526 [ 0]	103 C
    040526  a0   000001 052016
                                  3070  	ch    1,s003531 [ 0]	104 D
    040527  a0   000001 052021
                                  3071  	ch    1,s003534 [ 0]	105 E
    040530  a0   000001 052024
                                  3072  	ch    1,s003537 [ 0]	106 F
    040531  a0   000001 052027
                                  3073  	ch    1,s003542 [ 0]	107 G
    040532  a0   000001 052032
                                  3074  	ch    1,s003545 [ 0]	110 H
    040533  a0   000001 052035
                                  3075  	ch    1,s003550 [ 0]	111 I
    040534  a0   000001 052040
                                  3076  	ch    1,s003553 [ 0]	112 J
    040535  a0   000001 052043
                                  3077  	ch    1,s003556 [ 0]	113 K
    040536  a0   000001 052046
                                  3078  	ch    1,s003561 [ 0]	114 L
    040537  a0   000001 052051
                                  3079  	ch    1,s003564 [ 0]	115 M
    040540  a0   000001 052054
                                  3080  	ch    1,s003567 [ 0]	116 N
    040541  a0   000001 052057
                                  3081  	ch    1,s003572 [ 0]	117 O
    040542  a0   000001 052062
                                  3082  	ch    1,s003575 [ 0]	120 P
    040543  a0   000001 052065
                                  3083  	ch    1,s003600 [ 0]	121 Q
    040544  a0   000001 052070
                                  3084  	ch    1,s003603 [ 0]	122 R
    040545  a0   000001 052073
                                  3085  	ch    1,s003606 [ 0]	123 S
    040546  a0   000001 052076
                                  3086  	ch    1,s003611 [ 0]	124 T
    040547  a0   000001 052101
                                  3087  	ch    1,s003614 [ 0]	125 U
    040550  a0   000001 052104
                                  3088  	ch    1,s003617 [ 0]	126 V
    040551  a0   000001 052107
                                  3089  	ch    1,s003622 [ 0]	127 W
    040552  a0   000001 052112
                                  3090  	ch    1,s003625 [ 0]	130 X
    040553  a0   000001 052115
                                  3091  	ch    1,s003630 [ 0]	131 Y
    040554  a0   000001 052120
                                  3092  	ch    1,s003633 [ 0]	132 Z
    040555  a0   000001 052123
                                  3093  	ch    1,s003636 [ 0]	133 [
    040556  a0   000001 052126
                                  3094  	ch    1,s003641 [ 0]	134 \
    040557  a0   000001 052131
                                  3095  	ch    1,s003644 [ 0]	135 ]
    040560  a0   000001 052134
                                  3096  	ch    1,s003647 [ 0]	136 ^
    040561  a0   000001 052137
                                  3097  	ch    1,s002667 [ 0]	137 _
    040562  a0   000001 051157
                                  3098  	ch    1,s003652 [ 0]	140 `
    040563  a0   000001 052142
                                  3099  	ch    1,s003655 [ 0]	141 a
    040564  a0   000001 052145
                                  3100  	ch    1,s003660 [ 0]	142 b
    040565  a0   000001 052150
                                  3101  	ch    1,s003663 [ 0]	143 c
    040566  a0   000001 052153
                                  3102  	ch    1,s003666 [ 0]	144 d
    040567  a0   000001 052156
                                  3103  	ch    1,s003671 [ 0]	145 e
    040570  a0   000001 052161
                                  3104  	ch    1,s003674 [ 0]	146 f
    040571  a0   000001 052164
                                  3105  	ch    1,s003677 [ 0]	147 g
    040572  a0   000001 052167
                                  3106  	ch    1,s003702 [ 0]	150 h
    040573  a0   000001 052172
                                  3107  	ch    1,s003705 [ 0]	151 i
    040574  a0   000001 052175
                                  3108  	ch    1,s003710 [ 0]	152 j
    040575  a0   000001 052200
                                  3109  	ch    1,s003713 [ 0]	153 k
    040576  a0   000001 052203
                                  3110  	ch    1,s003716 [ 0]	154 l
    040577  a0   000001 052206
                                  3111  	ch    1,s003721 [ 0]	155 m
    040600  a0   000001 052211
                                  3112  	ch    1,s003724 [ 0]	156 n
    040601  a0   000001 052214
                                  3113  	ch    1,s003727 [ 0]	157 o
    040602  a0   000001 052217
                                  3114  	ch    1,s003732 [ 0]	160 p
    040603  a0   000001 052222
                                  3115  	ch    1,s003735 [ 0]	161 q
    040604  a0   000001 052225
                                  3116  	ch    1,s003740 [ 0]	162 r
    040605  a0   000001 052230
                                  3117  	ch    1,s003743 [ 0]	163 s
    040606  a0   000001 052233
                                  3118  	ch    1,s003746 [ 0]	164 t
    040607  a0   000001 052236
                                  3119  	ch    1,s003751 [ 0]	165 u
    040610  a0   000001 052241
                                  3120  	ch    1,s003754 [ 0]	166 v
    040611  a0   000001 052244
                                  3121  	ch    1,s003757 [ 0]	167 w
    040612  a0   000001 052247
                                  3122  	ch    1,s003762 [ 0]	170 x
    040613  a0   000001 052252
                                  3123  	ch    1,s003765 [ 0]	171 y
    040614  a0   000001 052255
                                  3124  	ch    1,s003770 [ 0]	172 z
    040615  a0   000001 052260
                                  3125  	ch    1,s003773 [ 0]	173 {
    040616  a0   000001 052263
                                  3126  	ch    1,s003776 [ 0]	174 |
    040617  a0   000001 052266
                                  3127  	ch    1,s004001 [ 0]	175 }
    040620  a0   000001 052271
                                  3128  	ch    1,s004004 [ 0]	176 ~
    040621  a0   000001 052274
                                  3129  	ch    1,s000661 [ 0]	177 PAD
    040622  a0   000001 047151
                                  3130  	no_ch (29)
                                  3131  	ch    1,s000663 [ 0]	235
    040660  a0   000001 047153
                                  3132  	ch    1,s000665 [ 0]	236
    040661  a0   000001 047155
                                  3133  	ch    1,s000667 [ 0]	237
    040662  a0   000001 047157
                                  3134  	no_ch (12)
                                  3135  	ch    1,s002334 [ 0]	254 nabla
    040677  a0   000001 050624
                                  3136  	no_ch (4)
                                  3137  	ch    1,s002310 [ 0]	261 dagger
    040704  a0   000001 050600
                                  3138  	no_ch (13)
                                  3139  	ch    1,s000002 [ 0]	277
    040722  a0   000001 046650
                                  3140  	no_ch (1)
                                  3141  	ch    1,s002316 [ 0]	301 dbl dagger
    040724  a0   000001 050606
                                  3142  	no_ch (1)
                                  3143  	ch    1,s002227 [ 0]	303 copyright
    040726  a0   000001 050517
                                  3144  	ch    1,s002325 [ 0]	304 delta
    040727  a0   000001 050615
                                  3145  	no_ch (8)
                                  3146  	ch    1,s001572 [ 0]	315 bullet
    040740  a0   000001 050062
                                  3147  	no_ch (6)
                                  3148  	ch    1,s002255 [ 0]	324
    040747  a0   000001 050545
                                  3149  	no_ch (40)
                                  3150  	ch    1,s000671 [ 0]	375 square
    041020  a0   000001 047161
                                  3151  	no_ch (12)
                                  3152  	ch    1,s000675 [ 0]	412 EM
    041035  a0   000001 047165
                                  3153  	ch    1,s000702 [ 0]	413 EM _dash
    041036  a0   000001 047172
                                  3154  	ch    1,s000361 [ 0]	414 EN
    041037  a0   000001 046651
                                  3155  	ch    1,s000557 [ 0]	415 EN _dash
    041040  a0   000001 047047
                                  3156  	no_ch (1)
                                  3157  	ch    1,s000677 [ 0]	417 thin space
    041042  a0   000001 047167
                                  3158  	no_ch (3)
                                  3159  	ch    1,s001626 [ 0]	423 1hi X
    041046  a0   000001 050116
                                  3160  	ch    1,s001666 [ 0]	424
    041047  a0   000001 050156
                                  3161  	ch    1,s001717 [ 0]	425 v|
    041050  a0   000001 050207
                                  3162  	ch    1,s002070 [ 0]	426
    041051  a0   000001 050360
                                  3163  	ch    1,s002034 [ 0]	427 dia left
    041052  a0   000001 050324
                                  3164  	ch    1,s001645 [ 0]	430 delete mark
    041053  a0   000001 050135
                                  3165  	ch    1,s002052 [ 0]	431 dia right
    041054  a0   000001 050342
                                  3166  	ch    1,s002023 [ 0]	432 dia top
    041055  a0   000001 050313
                                  3167  	ch    1,s001761 [ 0]	433 <
    041056  a0   000001 050251
                                  3168  	ch    1,s001401 [ 0]	434 1hi {
    041057  a0   000001 047671
                                  3169  	ch    1,s001327 [ 0]	435 1hi [
    041060  a0   000001 047617
                                  3170  	ch    1,s002136 [ 0]	436 left circle
    041061  a0   000001 050426
                                  3171  	ch    1,s001453 [ 0]	437
    041062  a0   000001 047743
                                  3172  	ch    1,s002002 [ 0]	440 ->
    041063  a0   000001 050272
                                  3173  	ch    1,s001425 [ 0]	441 1hi }
    041064  a0   000001 047715
                                  3174  	ch    1,s001353 [ 0]	442 1hi ]
    041065  a0   000001 047643
                                  3175  	ch    1,s002171 [ 0]	443 right circle
    041066  a0   000001 050461
                                  3176  	ch    1,s001476 [ 0]	444
    041067  a0   000001 047766
                                  3177  	ch    1,s001734 [ 0]	445 ^|
    041070  a0   000001 050224
                                  3178  	no_ch (1)
                                  3179  	ch    1,s000704 [ 0]	447
    041072  a0   000001 047174
                                  3180  	ch    1,s001025 [ 0]	450
    041073  a0   000001 047315
                                  3181  	ch    1,s000772 [ 0]	451
    041074  a0   000001 047262
                                  3182  	ch    1,s001235 [ 0]	452
    041075  a0   000001 047525
                                  3183  	ch    1,s001147 [ 0]	453
    041076  a0   000001 047437
                                  3184  	ch    1,s000772 [ 0]	454
    041077  a0   000001 047262
                                  3185  	ch    1,s000721 [ 0]	455
    041100  a0   000001 047211
                                  3186  	ch    1,s001036 [ 0]	456
    041101  a0   000001 047326
                                  3187  	ch    1,s000772 [ 0]	457
    041102  a0   000001 047262
                                  3188  	ch    1,s001254 [ 0]	460
    041103  a0   000001 047544
                                  3189  	ch    1,s001160 [ 0]	461
    041104  a0   000001 047450
                                  3190  	ch    1,s000772 [ 0]	462
    041105  a0   000001 047262
                                  3191  	ch    1,s000740 [ 0]	463
    041106  a0   000001 047230
                                  3192  	ch    1,s001051 [ 0]	464
    041107  a0   000001 047341
                                  3193  	ch    1,s001115 [ 0]	465
    041110  a0   000001 047405
                                  3194  	ch    1,s001273 [ 0]	466
    041111  a0   000001 047563
                                  3195  	ch    1,s001171 [ 0]	467
    041112  a0   000001 047461
                                  3196  	ch    1,s000772 [ 0]	470
    041113  a0   000001 047262
                                  3197  	ch    1,s000754 [ 0]	471
    041114  a0   000001 047244
                                  3198  	ch    1,s001061 [ 0]	472
    041115  a0   000001 047351
                                  3199  	ch    1,s001132 [ 0]	473
    041116  a0   000001 047422
                                  3200  	ch    1,s001311 [ 0]	474
    041117  a0   000001 047601
                                  3201  	ch    1,s001202 [ 0]	475
    041120  a0   000001 047472
                                  3202  	ch    1,s000772 [ 0]	476
    041121  a0   000001 047262
                                  3203  	ch    1,s000740 [ 0]	477
    041122  a0   000001 047230
                                  3204  	ch    1,s001051 [ 0]	500
    041123  a0   000001 047341
                                  3205  	ch    1,s000772 [ 0]	501
    041124  a0   000001 047262
                                  3206  	ch    1,s001273 [ 0]	502
    041125  a0   000001 047563
                                  3207  	ch    1,s001171 [ 0]	503
    041126  a0   000001 047461
                                  3208  	ch    1,s000772 [ 0]	504
    041127  a0   000001 047262
                                  3209  	ch    1,s000754 [ 0]	505
    041130  a0   000001 047244
                                  3210  	ch    1,s001061 [ 0]	506
    041131  a0   000001 047351
                                  3211  	ch    1,s000772 [ 0]	507
    041132  a0   000001 047262
                                  3212  	ch    1,s001311 [ 0]	510
    041133  a0   000001 047601
                                  3213  	ch    1,s001202 [ 0]	511
    041134  a0   000001 047472
                                  3214  	ch    1,s000772 [ 0]	512
    041135  a0   000001 047262
                                  3215  	ch    1,s000772 [ 0]	513
    041136  a0   000001 047262
                                  3216  	ch    1,s001073 [ 0]	514
    041137  a0   000001 047363
                                  3217  	ch    1,s000772 [ 0]	515
    041140  a0   000001 047262
                                  3218  	ch    1,s000772 [ 0]	516
    041141  a0   000001 047262
                                  3219  	ch    1,s001213 [ 0]	517
    041142  a0   000001 047503
                                  3220  	ch    1,s000772 [ 0]	520
    041143  a0   000001 047262
                                  3221  	ch    1,s001006 [ 0]	521
    041144  a0   000001 047276
                                  3222  	ch    1,s001103 [ 0]	522
    041145  a0   000001 047373
                                  3223  	ch    1,s001006 [ 0]	523
    041146  a0   000001 047276
                                  3224  	ch    1,s001006 [ 0]	524
    041147  a0   000001 047276
                                  3225  	ch    1,s001221 [ 0]	525
    041150  a0   000001 047511
                                  3226  	ch    1,s001006 [ 0]	526
    041151  a0   000001 047276
                                  3227  	ch    1,s001523 [ 0]	527
    041152  a0   000001 050013
                                  3228  	ch    1,s001543 [ 0]	530
    041153  a0   000001 050033
                                  3229  	ch    1,s001610 [ 0]	531
    041154  a0   000001 050100
                                  3230  	ch    1,s001705 [ 0]	532
    041155  a0   000001 050175
                                  3231  	no_ch (1)
                                  3232  	ch    1,s001754 [ 0]	534
    041157  a0   000001 050244
                                  3233  	no_ch (1)
                                  3234  	ch    1,s002104 [ 0]	536
    041161  a0   000001 050374
                                  3235  	ch    1,s002121 [ 0]	537
    041162  a0   000001 050411
    041163                        3236  opu.8:
                                  3237  	oput.data_ct	351
    041163  aa   000000 000537
                                  3238  	no_ch (8)
                                  3239  	ch    2,s000657 [ 0]	010 BSP
    041174  a0   000002 047147
                                  3240  	no_ch (23)
                                  3241  	ch    2,s000361 [ 4]	040 SP
    041224  a0   000002 046651
                                  3242  	ch    2,s000363 [ 0]	041 !
    041225  a0   000002 046653
                                  3243  	ch    2,s000365 [ 0]	042 "
    041226  a0   000002 046655
                                  3244  	ch    2,s000367 [ 0]	043 #
    041227  a0   000002 046657
                                  3245  	ch    2,s000371 [ 0]	044 $
    041230  a0   000002 046661
                                  3246  	ch    2,s000373 [ 0]	045 %
    041231  a0   000002 046663
                                  3247  	ch    2,s000375 [ 0]	046 &
    041232  a0   000002 046665
                                  3248  	ch    2,s000377 [ 0]	047 '
    041233  a0   000002 046667
                                  3249  	ch    2,s000401 [ 0]	050 Lp
    041234  a0   000002 046671
                                  3250  	ch    2,s000403 [ 0]	051 Rp
    041235  a0   000002 046673
                                  3251  	ch    2,s000405 [ 0]	052 *
    041236  a0   000002 046675
                                  3252  	ch    2,s000407 [ 0]	053 +
    041237  a0   000002 046677
                                  3253  	ch    2,s000411 [ 0]	054 ,
    041240  a0   000002 046701
                                  3254  	ch    2,s000413 [ 0]	055 -
    041241  a0   000002 046703
                                  3255  	ch    2,s000415 [ 0]	056 .
    041242  a0   000002 046705
                                  3256  	ch    2,s000417 [ 0]	057 /
    041243  a0   000002 046707
                                  3257  	ch    2,s000421 [ 0]	060 0
    041244  a0   000002 046711
                                  3258  	ch    2,s000423 [ 0]	061 1
    041245  a0   000002 046713
                                  3259  	ch    2,s000425 [ 0]	062 2
    041246  a0   000002 046715
                                  3260  	ch    2,s000427 [ 0]	063 3
    041247  a0   000002 046717
                                  3261  	ch    2,s000431 [ 0]	064 4
    041250  a0   000002 046721
                                  3262  	ch    2,s000433 [ 0]	065 5
    041251  a0   000002 046723
                                  3263  	ch    2,s000435 [ 0]	066 6
    041252  a0   000002 046725
                                  3264  	ch    2,s000437 [ 0]	067 7
    041253  a0   000002 046727
                                  3265  	ch    2,s000441 [ 0]	070 8
    041254  a0   000002 046731
                                  3266  	ch    2,s000443 [ 0]	071 9
    041255  a0   000002 046733
                                  3267  	ch    2,s000445 [ 0]	072 :
    041256  a0   000002 046735
                                  3268  	ch    2,s000447 [ 0]	073 ;
    041257  a0   000002 046737
                                  3269  	ch    2,s000451 [ 0]	074 <
    041260  a0   000002 046741
                                  3270  	ch    2,s000453 [ 0]	075 =
    041261  a0   000002 046743
                                  3271  	ch    2,s000455 [ 0]	076 >
    041262  a0   000002 046745
                                  3272  	ch    2,s000457 [ 0]	077 ?
    041263  a0   000002 046747
                                  3273  	ch    2,s000461 [ 0]	100 @
    041264  a0   000002 046751
                                  3274  	ch    2,s000463 [ 0]	101 A
    041265  a0   000002 046753
                                  3275  	ch    2,s000465 [ 0]	102 B
    041266  a0   000002 046755
                                  3276  	ch    2,s000467 [ 0]	103 C
    041267  a0   000002 046757
                                  3277  	ch    2,s000471 [ 0]	104 D
    041270  a0   000002 046761
                                  3278  	ch    2,s000473 [ 0]	105 E
    041271  a0   000002 046763
                                  3279  	ch    2,s000475 [ 0]	106 F
    041272  a0   000002 046765
                                  3280  	ch    2,s000477 [ 0]	107 G
    041273  a0   000002 046767
                                  3281  	ch    2,s000501 [ 0]	110 H
    041274  a0   000002 046771
                                  3282  	ch    2,s000503 [ 0]	111 I
    041275  a0   000002 046773
                                  3283  	ch    2,s000505 [ 0]	112 J
    041276  a0   000002 046775
                                  3284  	ch    2,s000507 [ 0]	113 K
    041277  a0   000002 046777
                                  3285  	ch    2,s000511 [ 0]	114 L
    041300  a0   000002 047001
                                  3286  	ch    2,s000513 [ 0]	115 M
    041301  a0   000002 047003
                                  3287  	ch    2,s000515 [ 0]	116 N
    041302  a0   000002 047005
                                  3288  	ch    2,s000517 [ 0]	117 O
    041303  a0   000002 047007
                                  3289  	ch    2,s000521 [ 0]	120 P
    041304  a0   000002 047011
                                  3290  	ch    2,s000523 [ 0]	121 Q
    041305  a0   000002 047013
                                  3291  	ch    2,s000525 [ 0]	122 R
    041306  a0   000002 047015
                                  3292  	ch    2,s000527 [ 0]	123 S
    041307  a0   000002 047017
                                  3293  	ch    2,s000531 [ 0]	124 T
    041310  a0   000002 047021
                                  3294  	ch    2,s000533 [ 0]	125 U
    041311  a0   000002 047023
                                  3295  	ch    2,s000535 [ 0]	126 V
    041312  a0   000002 047025
                                  3296  	ch    2,s000537 [ 0]	127 W
    041313  a0   000002 047027
                                  3297  	ch    2,s000541 [ 0]	130 X
    041314  a0   000002 047031
                                  3298  	ch    2,s000543 [ 0]	131 Y
    041315  a0   000002 047033
                                  3299  	ch    2,s000545 [ 0]	132 Z
    041316  a0   000002 047035
                                  3300  	ch    2,s000547 [ 0]	133 [
    041317  a0   000002 047037
                                  3301  	ch    2,s000551 [ 0]	134 \
    041320  a0   000002 047041
                                  3302  	ch    2,s000553 [ 0]	135 ]
    041321  a0   000002 047043
                                  3303  	ch    2,s000555 [ 0]	136 ^
    041322  a0   000002 047045
                                  3304  	ch    2,s000557 [ 0]	137 _
    041323  a0   000002 047047
                                  3305  	ch    2,s000561 [ 0]	140 `
    041324  a0   000002 047051
                                  3306  	ch    2,s000563 [ 0]	141 a
    041325  a0   000002 047053
                                  3307  	ch    2,s000565 [ 0]	142 b
    041326  a0   000002 047055
                                  3308  	ch    2,s000567 [ 0]	143 c
    041327  a0   000002 047057
                                  3309  	ch    2,s000571 [ 0]	144 d
    041330  a0   000002 047061
                                  3310  	ch    2,s000573 [ 0]	145 e
    041331  a0   000002 047063
                                  3311  	ch    2,s000575 [ 0]	146 f
    041332  a0   000002 047065
                                  3312  	ch    2,s000577 [ 0]	147 g
    041333  a0   000002 047067
                                  3313  	ch    2,s000601 [ 0]	150 h
    041334  a0   000002 047071
                                  3314  	ch    2,s000603 [ 0]	151 i
    041335  a0   000002 047073
                                  3315  	ch    2,s000605 [ 0]	152 j
    041336  a0   000002 047075
                                  3316  	ch    2,s000607 [ 0]	153 k
    041337  a0   000002 047077
                                  3317  	ch    2,s000611 [ 0]	154 l
    041340  a0   000002 047101
                                  3318  	ch    2,s000613 [ 0]	155 m
    041341  a0   000002 047103
                                  3319  	ch    2,s000615 [ 0]	156 n
    041342  a0   000002 047105
                                  3320  	ch    2,s000617 [ 0]	157 o
    041343  a0   000002 047107
                                  3321  	ch    2,s000621 [ 0]	160 p
    041344  a0   000002 047111
                                  3322  	ch    2,s000623 [ 0]	161 q
    041345  a0   000002 047113
                                  3323  	ch    2,s000625 [ 0]	162 r
    041346  a0   000002 047115
                                  3324  	ch    2,s000627 [ 0]	163 s
    041347  a0   000002 047117
                                  3325  	ch    2,s000631 [ 0]	164 t
    041350  a0   000002 047121
                                  3326  	ch    2,s000633 [ 0]	165 u
    041351  a0   000002 047123
                                  3327  	ch    2,s000635 [ 0]	166 v
    041352  a0   000002 047125
                                  3328  	ch    2,s000637 [ 0]	167 w
    041353  a0   000002 047127
                                  3329  	ch    2,s000641 [ 0]	170 x
    041354  a0   000002 047131
                                  3330  	ch    2,s000643 [ 0]	171 y
    041355  a0   000002 047133
                                  3331  	ch    2,s000645 [ 0]	172 z
    041356  a0   000002 047135
                                  3332  	ch    2,s000647 [ 0]	173 {
    041357  a0   000002 047137
                                  3333  	ch    2,s000651 [ 0]	174 |
    041360  a0   000002 047141
                                  3334  	ch    2,s000653 [ 0]	175 }
    041361  a0   000002 047143
                                  3335  	ch    2,s000655 [ 0]	176 ~
    041362  a0   000002 047145
                                  3336  	ch    2,s000661 [ 0]	177 PAD
    041363  a0   000002 047151
                                  3337  	no_ch (29)
                                  3338  	ch    2,s000663 [ 0]	235
    041421  a0   000002 047153
                                  3339  	ch    2,s000665 [ 0]	236
    041422  a0   000002 047155
                                  3340  	ch    2,s000667 [ 0]	237
    041423  a0   000002 047157
                                  3341  	ch    2,s002371 [ 0]	240
    041424  a0   000002 050661
                                  3342  	no_ch (11)
                                  3343  	ch    2,s002334 [ 0]	254 nabla
    041440  a0   000002 050624
                                  3344  	ch    2,s004007 [ 0]	255 EMdash
    041441  a0   000002 052277
                                  3345  	no_ch (3)
                                  3346  	ch    2,s002310 [ 0]	261 dagger
    041445  a0   000002 050600
                                  3347  	no_ch (13)
                                  3348  	ch    2,s000002 [ 0]	277
    041463  a0   000002 046650
                                  3349  	no_ch (1)
                                  3350  	ch    2,s002316 [ 0]	301 dbl dagger
    041465  a0   000002 050606
                                  3351  	no_ch (1)
                                  3352  	ch    2,s002227 [ 0]	303 copyright
    041467  a0   000002 050517
                                  3353  	ch    2,s002325 [ 0]	304 delta
    041470  a0   000002 050615
                                  3354  	no_ch (8)
                                  3355  	ch    2,s001572 [ 0]	315 bullet
    041501  a0   000002 050062
                                  3356  	no_ch (6)
                                  3357  	ch    2,s002255 [ 0]	324
    041510  a0   000002 050545
                                  3358  	no_ch (40)
                                  3359  	ch    2,s000671 [ 0]	375 square
    041561  a0   000002 047161
                                  3360  	no_ch (1)
                                  3361  	ch    2,s000361 [ 0]	377 punct SP
    041563  a0   000002 046651
                                  3362  	no_ch (10)
                                  3363  	ch    2,s000675 [ 0]	412 EM
    041576  a0   000002 047165
                                  3364  	ch    2,s000702 [ 0]	413 EM _dash
    041577  a0   000002 047172
                                  3365  	ch    2,s000361 [ 0]	414 EN
    041600  a0   000002 046651
                                  3366  	ch    2,s000557 [ 0]	415 EN _dash
    041601  a0   000002 047047
                                  3367  	ch    2,s000413 [ 0]	416 EN dash
    041602  a0   000002 046703
                                  3368  	ch    2,s000677 [ 0]	417 thin space
    041603  a0   000002 047167
                                  3369  	no_ch (3)
                                  3370  	ch    2,s001626 [ 0]	423 1hi X
    041607  a0   000002 050116
                                  3371  	ch    2,s001666 [ 0]	424
    041610  a0   000002 050156
                                  3372  	ch    2,s001717 [ 0]	425 v|
    041611  a0   000002 050207
                                  3373  	ch    2,s002070 [ 0]	426
    041612  a0   000002 050360
                                  3374  	ch    2,s002034 [ 0]	427 dia left
    041613  a0   000002 050324
                                  3375  	ch    2,s001645 [ 0]	430 delete mark
    041614  a0   000002 050135
                                  3376  	ch    2,s002052 [ 0]	431 dia right
    041615  a0   000002 050342
                                  3377  	ch    2,s002023 [ 0]	432 dia top
    041616  a0   000002 050313
                                  3378  	ch    2,s001761 [ 0]	433 <
    041617  a0   000002 050251
                                  3379  	ch    2,s001401 [ 0]	434 1hi {
    041620  a0   000002 047671
                                  3380  	ch    2,s001327 [ 0]	435 1hi [
    041621  a0   000002 047617
                                  3381  	ch    2,s002136 [ 0]	436 left circle
    041622  a0   000002 050426
                                  3382  	ch    2,s001453 [ 0]	437
    041623  a0   000002 047743
                                  3383  	ch    2,s002002 [ 0]	440 ->
    041624  a0   000002 050272
                                  3384  	ch    2,s001425 [ 0]	441 1hi }
    041625  a0   000002 047715
                                  3385  	ch    2,s001353 [ 0]	442 1hi ]
    041626  a0   000002 047643
                                  3386  	ch    2,s002171 [ 0]	443 right circle
    041627  a0   000002 050461
                                  3387  	ch    2,s001476 [ 0]	444
    041630  a0   000002 047766
                                  3388  	ch    2,s001734 [ 0]	445 ^|
    041631  a0   000002 050224
                                  3389  	no_ch (1)
                                  3390  	ch    2,s000704 [ 0]	447
    041633  a0   000002 047174
                                  3391  	ch    2,s001025 [ 0]	450
    041634  a0   000002 047315
                                  3392  	ch    2,s000772 [ 0]	451
    041635  a0   000002 047262
                                  3393  	ch    2,s001235 [ 0]	452
    041636  a0   000002 047525
                                  3394  	ch    2,s001147 [ 0]	453
    041637  a0   000002 047437
                                  3395  	ch    2,s000772 [ 0]	454
    041640  a0   000002 047262
                                  3396  	ch    2,s000721 [ 0]	455
    041641  a0   000002 047211
                                  3397  	ch    2,s001036 [ 0]	456
    041642  a0   000002 047326
                                  3398  	ch    2,s000772 [ 0]	457
    041643  a0   000002 047262
                                  3399  	ch    2,s001254 [ 0]	460
    041644  a0   000002 047544
                                  3400  	ch    2,s001160 [ 0]	461
    041645  a0   000002 047450
                                  3401  	ch    2,s000772 [ 0]	462
    041646  a0   000002 047262
                                  3402  	ch    2,s000740 [ 0]	463
    041647  a0   000002 047230
                                  3403  	ch    2,s001051 [ 0]	464
    041650  a0   000002 047341
                                  3404  	ch    2,s001115 [ 0]	465
    041651  a0   000002 047405
                                  3405  	ch    2,s001273 [ 0]	466
    041652  a0   000002 047563
                                  3406  	ch    2,s001171 [ 0]	467
    041653  a0   000002 047461
                                  3407  	ch    2,s000772 [ 0]	470
    041654  a0   000002 047262
                                  3408  	ch    2,s000754 [ 0]	471
    041655  a0   000002 047244
                                  3409  	ch    2,s001061 [ 0]	472
    041656  a0   000002 047351
                                  3410  	ch    2,s001132 [ 0]	473
    041657  a0   000002 047422
                                  3411  	ch    2,s001311 [ 0]	474
    041660  a0   000002 047601
                                  3412  	ch    2,s001202 [ 0]	475
    041661  a0   000002 047472
                                  3413  	ch    2,s000772 [ 0]	476
    041662  a0   000002 047262
                                  3414  	ch    2,s000740 [ 0]	477
    041663  a0   000002 047230
                                  3415  	ch    2,s001051 [ 0]	500
    041664  a0   000002 047341
                                  3416  	ch    2,s000772 [ 0]	501
    041665  a0   000002 047262
                                  3417  	ch    2,s001273 [ 0]	502
    041666  a0   000002 047563
                                  3418  	ch    2,s001171 [ 0]	503
    041667  a0   000002 047461
                                  3419  	ch    2,s000772 [ 0]	504
    041670  a0   000002 047262
                                  3420  	ch    2,s000754 [ 0]	505
    041671  a0   000002 047244
                                  3421  	ch    2,s001061 [ 0]	506
    041672  a0   000002 047351
                                  3422  	ch    2,s000772 [ 0]	507
    041673  a0   000002 047262
                                  3423  	ch    2,s001311 [ 0]	510
    041674  a0   000002 047601
                                  3424  	ch    2,s001202 [ 0]	511
    041675  a0   000002 047472
                                  3425  	ch    2,s000772 [ 0]	512
    041676  a0   000002 047262
                                  3426  	ch    2,s000772 [ 0]	513
    041677  a0   000002 047262
                                  3427  	ch    2,s001073 [ 0]	514
    041700  a0   000002 047363
                                  3428  	ch    2,s000772 [ 0]	515
    041701  a0   000002 047262
                                  3429  	ch    2,s000772 [ 0]	516
    041702  a0   000002 047262
                                  3430  	ch    2,s001213 [ 0]	517
    041703  a0   000002 047503
                                  3431  	ch    2,s000772 [ 0]	520
    041704  a0   000002 047262
                                  3432  	ch    2,s001006 [ 0]	521
    041705  a0   000002 047276
                                  3433  	ch    2,s001103 [ 0]	522
    041706  a0   000002 047373
                                  3434  	ch    2,s001006 [ 0]	523
    041707  a0   000002 047276
                                  3435  	ch    2,s001006 [ 0]	524
    041710  a0   000002 047276
                                  3436  	ch    2,s001221 [ 0]	525
    041711  a0   000002 047511
                                  3437  	ch    2,s001006 [ 0]	526
    041712  a0   000002 047276
                                  3438  	ch    2,s001523 [ 0]	527
    041713  a0   000002 050013
                                  3439  	ch    2,s001543 [ 0]	530
    041714  a0   000002 050033
                                  3440  	ch    2,s001610 [ 0]	531
    041715  a0   000002 050100
                                  3441  	ch    2,s001705 [ 0]	532
    041716  a0   000002 050175
                                  3442  	no_ch (1)
                                  3443  	ch    2,s001754 [ 0]	534
    041720  a0   000002 050244
                                  3444  	no_ch (1)
                                  3445  	ch    2,s002104 [ 0]	536
    041722  a0   000002 050374
                                  3446  	ch    2,s002121 [ 0]	537
    041723  a0   000002 050411
    041724                        3447  opu.9:
                                  3448  	oput.data_ct	351
    041724  aa   000000 000537
                                  3449  	no_ch (32)
                                  3450  	ch    2,s000361 [ 4]	040 SP
    041765  a0   000002 046651
                                  3451  	no_ch (64)
                                  3452  	ch    2,s000463 [ 0]	141 a
    042066  a0   000002 046753
                                  3453  	ch    2,s000465 [ 0]	142 b
    042067  a0   000002 046755
                                  3454  	ch    2,s000467 [ 0]	143 c
    042070  a0   000002 046757
                                  3455  	ch    2,s000471 [ 0]	144 d
    042071  a0   000002 046761
                                  3456  	ch    2,s000473 [ 0]	145 e
    042072  a0   000002 046763
                                  3457  	ch    2,s000475 [ 0]	146 f
    042073  a0   000002 046765
                                  3458  	ch    2,s000477 [ 0]	147 g
    042074  a0   000002 046767
                                  3459  	ch    2,s000501 [ 0]	150 h
    042075  a0   000002 046771
                                  3460  	ch    2,s000503 [ 0]	151 i
    042076  a0   000002 046773
                                  3461  	ch    2,s000505 [ 0]	152 j
    042077  a0   000002 046775
                                  3462  	ch    2,s000507 [ 0]	153 k
    042100  a0   000002 046777
                                  3463  	ch    2,s000511 [ 0]	154 l
    042101  a0   000002 047001
                                  3464  	ch    2,s000513 [ 0]	155 m
    042102  a0   000002 047003
                                  3465  	ch    2,s000515 [ 0]	156 n
    042103  a0   000002 047005
                                  3466  	ch    2,s000517 [ 0]	157 o
    042104  a0   000002 047007
                                  3467  	ch    2,s000521 [ 0]	160 p
    042105  a0   000002 047011
                                  3468  	ch    2,s000523 [ 0]	161 q
    042106  a0   000002 047013
                                  3469  	ch    2,s000525 [ 0]	162 r
    042107  a0   000002 047015
                                  3470  	ch    2,s000527 [ 0]	163 s
    042110  a0   000002 047017
                                  3471  	ch    2,s000531 [ 0]	164 t
    042111  a0   000002 047021
                                  3472  	ch    2,s000533 [ 0]	165 u
    042112  a0   000002 047023
                                  3473  	ch    2,s000535 [ 0]	166 v
    042113  a0   000002 047025
                                  3474  	ch    2,s000537 [ 0]	167 w
    042114  a0   000002 047027
                                  3475  	ch    2,s000541 [ 0]	170 x
    042115  a0   000002 047031
                                  3476  	ch    2,s000543 [ 0]	171 y
    042116  a0   000002 047033
                                  3477  	ch    2,s000545 [ 0]	172 z
    042117  a0   000002 047035
                                  3478  	no_ch (4)
                                  3479  	ch    2,s000661 [ 0]	177 PAD
    042124  a0   000002 047151
                                  3480  	no_ch (29)
                                  3481  	ch    2,s000663 [ 0]	235
    042162  a0   000002 047153
                                  3482  	ch    2,s000665 [ 0]	236
    042163  a0   000002 047155
                                  3483  	ch    2,s000667 [ 0]	237
    042164  a0   000002 047157
                                  3484  	no_ch (12)
                                  3485  	ch    2,s002334 [ 0]	254 nabla
    042201  a0   000002 050624
                                  3486  	no_ch (4)
                                  3487  	ch    2,s002310 [ 0]	261 dagger
    042206  a0   000002 050600
                                  3488  	no_ch (13)
                                  3489  	ch    2,s000002 [ 0]	277
    042224  a0   000002 046650
                                  3490  	no_ch (1)
                                  3491  	ch    2,s002316 [ 0]	301 dbl dagger
    042226  a0   000002 050606
                                  3492  	no_ch (1)
                                  3493  	ch    2,s002227 [ 0]	303 copyright
    042230  a0   000002 050517
                                  3494  	ch    2,s002325 [ 0]	304 delta
    042231  a0   000002 050615
                                  3495  	no_ch (8)
                                  3496  	ch    2,s001572 [ 0]	315 bullet
    042242  a0   000002 050062
                                  3497  	no_ch (6)
                                  3498  	ch    2,s002255 [ 0]	324
    042251  a0   000002 050545
                                  3499  	no_ch (40)
                                  3500  	ch    2,s000671 [ 0]	375 square
    042322  a0   000002 047161
                                  3501  	no_ch (12)
                                  3502  	ch    2,s000675 [ 0]	412 EM
    042337  a0   000002 047165
                                  3503  	ch    2,s000702 [ 0]	413 EM _dash
    042340  a0   000002 047172
                                  3504  	ch    2,s000361 [ 0]	414 EN
    042341  a0   000002 046651
                                  3505  	ch    2,s000557 [ 0]	415 EN _dash
    042342  a0   000002 047047
                                  3506  	no_ch (1)
                                  3507  	ch    2,s000677 [ 0]	417 thin space
    042344  a0   000002 047167
                                  3508  	no_ch (3)
                                  3509  	ch    2,s001626 [ 0]	423 1hi X
    042350  a0   000002 050116
                                  3510  	ch    2,s001666 [ 0]	424
    042351  a0   000002 050156
                                  3511  	ch    2,s001717 [ 0]	425 v|
    042352  a0   000002 050207
                                  3512  	ch    2,s002070 [ 0]	426
    042353  a0   000002 050360
                                  3513  	ch    2,s002034 [ 0]	427 dia left
    042354  a0   000002 050324
                                  3514  	ch    2,s001645 [ 0]	430 delete mark
    042355  a0   000002 050135
                                  3515  	ch    2,s002052 [ 0]	431 dia right
    042356  a0   000002 050342
                                  3516  	ch    2,s002023 [ 0]	432 dia top
    042357  a0   000002 050313
                                  3517  	ch    2,s001761 [ 0]	433 <
    042360  a0   000002 050251
                                  3518  	ch    2,s001401 [ 0]	434 1hi {
    042361  a0   000002 047671
                                  3519  	ch    2,s001327 [ 0]	435 1hi [
    042362  a0   000002 047617
                                  3520  	ch    2,s002136 [ 0]	436 left circle
    042363  a0   000002 050426
                                  3521  	ch    2,s001453 [ 0]	437
    042364  a0   000002 047743
                                  3522  	ch    2,s002002 [ 0]	440 ->
    042365  a0   000002 050272
                                  3523  	ch    2,s001425 [ 0]	441 1hi }
    042366  a0   000002 047715
                                  3524  	ch    2,s001353 [ 0]	442 1hi ]
    042367  a0   000002 047643
                                  3525  	ch    2,s002171 [ 0]	443 right circle
    042370  a0   000002 050461
                                  3526  	ch    2,s001476 [ 0]	444
    042371  a0   000002 047766
                                  3527  	ch    2,s001734 [ 0]	445 ^|
    042372  a0   000002 050224
                                  3528  	no_ch (1)
                                  3529  	ch    2,s000704 [ 0]	447
    042374  a0   000002 047174
                                  3530  	ch    2,s001025 [ 0]	450
    042375  a0   000002 047315
                                  3531  	ch    2,s000772 [ 0]	451
    042376  a0   000002 047262
                                  3532  	ch    2,s001235 [ 0]	452
    042377  a0   000002 047525
                                  3533  	ch    2,s001147 [ 0]	453
    042400  a0   000002 047437
                                  3534  	ch    2,s000772 [ 0]	454
    042401  a0   000002 047262
                                  3535  	ch    2,s000721 [ 0]	455
    042402  a0   000002 047211
                                  3536  	ch    2,s001036 [ 0]	456
    042403  a0   000002 047326
                                  3537  	ch    2,s000772 [ 0]	457
    042404  a0   000002 047262
                                  3538  	ch    2,s001254 [ 0]	460
    042405  a0   000002 047544
                                  3539  	ch    2,s001160 [ 0]	461
    042406  a0   000002 047450
                                  3540  	ch    2,s000772 [ 0]	462
    042407  a0   000002 047262
                                  3541  	ch    2,s000740 [ 0]	463
    042410  a0   000002 047230
                                  3542  	ch    2,s001051 [ 0]	464
    042411  a0   000002 047341
                                  3543  	ch    2,s001115 [ 0]	465
    042412  a0   000002 047405
                                  3544  	ch    2,s001273 [ 0]	466
    042413  a0   000002 047563
                                  3545  	ch    2,s001171 [ 0]	467
    042414  a0   000002 047461
                                  3546  	ch    2,s000772 [ 0]	470
    042415  a0   000002 047262
                                  3547  	ch    2,s000754 [ 0]	471
    042416  a0   000002 047244
                                  3548  	ch    2,s001061 [ 0]	472
    042417  a0   000002 047351
                                  3549  	ch    2,s001132 [ 0]	473
    042420  a0   000002 047422
                                  3550  	ch    2,s001311 [ 0]	474
    042421  a0   000002 047601
                                  3551  	ch    2,s001202 [ 0]	475
    042422  a0   000002 047472
                                  3552  	ch    2,s000772 [ 0]	476
    042423  a0   000002 047262
                                  3553  	ch    2,s000740 [ 0]	477
    042424  a0   000002 047230
                                  3554  	ch    2,s001051 [ 0]	500
    042425  a0   000002 047341
                                  3555  	ch    2,s000772 [ 0]	501
    042426  a0   000002 047262
                                  3556  	ch    2,s001273 [ 0]	502
    042427  a0   000002 047563
                                  3557  	ch    2,s001171 [ 0]	503
    042430  a0   000002 047461
                                  3558  	ch    2,s000772 [ 0]	504
    042431  a0   000002 047262
                                  3559  	ch    2,s000754 [ 0]	505
    042432  a0   000002 047244
                                  3560  	ch    2,s001061 [ 0]	506
    042433  a0   000002 047351
                                  3561  	ch    2,s000772 [ 0]	507
    042434  a0   000002 047262
                                  3562  	ch    2,s001311 [ 0]	510
    042435  a0   000002 047601
                                  3563  	ch    2,s001202 [ 0]	511
    042436  a0   000002 047472
                                  3564  	ch    2,s000772 [ 0]	512
    042437  a0   000002 047262
                                  3565  	ch    2,s000772 [ 0]	513
    042440  a0   000002 047262
                                  3566  	ch    2,s001073 [ 0]	514
    042441  a0   000002 047363
                                  3567  	ch    2,s000772 [ 0]	515
    042442  a0   000002 047262
                                  3568  	ch    2,s000772 [ 0]	516
    042443  a0   000002 047262
                                  3569  	ch    2,s001213 [ 0]	517
    042444  a0   000002 047503
                                  3570  	ch    2,s000772 [ 0]	520
    042445  a0   000002 047262
                                  3571  	ch    2,s001006 [ 0]	521
    042446  a0   000002 047276
                                  3572  	ch    2,s001103 [ 0]	522
    042447  a0   000002 047373
                                  3573  	ch    2,s001006 [ 0]	523
    042450  a0   000002 047276
                                  3574  	ch    2,s001006 [ 0]	524
    042451  a0   000002 047276
                                  3575  	ch    2,s001221 [ 0]	525
    042452  a0   000002 047511
                                  3576  	ch    2,s001006 [ 0]	526
    042453  a0   000002 047276
                                  3577  	ch    2,s001523 [ 0]	527
    042454  a0   000002 050013
                                  3578  	ch    2,s001543 [ 0]	530
    042455  a0   000002 050033
                                  3579  	ch    2,s001610 [ 0]	531
    042456  a0   000002 050100
                                  3580  	ch    2,s001705 [ 0]	532
    042457  a0   000002 050175
                                  3581  	no_ch (1)
                                  3582  	ch    2,s001754 [ 0]	534
    042461  a0   000002 050244
                                  3583  	no_ch (1)
                                  3584  	ch    2,s002104 [ 0]	536
    042463  a0   000002 050374
                                  3585  	ch    2,s002121 [ 0]	537
    042464  a0   000002 050411
    042465                        3586  opu.10:
                                  3587  	oput.data_ct	351
    042465  aa   000000 000537
                                  3588  	no_ch (32)
                                  3589  	ch    2,s000361 [ 4]	040 SP
    042526  a0   000002 046651
                                  3590  	ch    2,s003027 [ 0]	041 !
    042527  a0   000002 051317
                                  3591  	ch    2,s003031 [ 0]	042 "
    042530  a0   000002 051321
                                  3592  	ch    2,s003033 [ 0]	043 #
    042531  a0   000002 051323
                                  3593  	ch    2,s003035 [ 0]	044 $
    042532  a0   000002 051325
                                  3594  	ch    2,s003037 [ 0]	045 %
    042533  a0   000002 051327
                                  3595  	ch    2,s003041 [ 0]	046 &
    042534  a0   000002 051331
                                  3596  	ch    2,s003043 [ 0]	047 '
    042535  a0   000002 051333
                                  3597  	ch    2,s003045 [ 0]	050 Lp
    042536  a0   000002 051335
                                  3598  	ch    2,s003047 [ 0]	051 Rp
    042537  a0   000002 051337
                                  3599  	ch    2,s003051 [ 0]	052 *
    042540  a0   000002 051341
                                  3600  	ch    2,s003053 [ 0]	053 +
    042541  a0   000002 051343
                                  3601  	ch    2,s003055 [ 0]	054 ,
    042542  a0   000002 051345
                                  3602  	ch    2,s003057 [ 0]	055 -
    042543  a0   000002 051347
                                  3603  	ch    2,s003061 [ 0]	056 .
    042544  a0   000002 051351
                                  3604  	ch    2,s003063 [ 0]	057 /
    042545  a0   000002 051353
                                  3605  	ch    2,s003065 [ 0]	060 0
    042546  a0   000002 051355
                                  3606  	ch    2,s003067 [ 0]	061 1
    042547  a0   000002 051357
                                  3607  	ch    2,s003071 [ 0]	062 2
    042550  a0   000002 051361
                                  3608  	ch    2,s003073 [ 0]	063 3
    042551  a0   000002 051363
                                  3609  	ch    2,s003075 [ 0]	064 4
    042552  a0   000002 051365
                                  3610  	ch    2,s003077 [ 0]	065 5
    042553  a0   000002 051367
                                  3611  	ch    2,s003101 [ 0]	066 6
    042554  a0   000002 051371
                                  3612  	ch    2,s003103 [ 0]	067 7
    042555  a0   000002 051373
                                  3613  	ch    2,s003105 [ 0]	070 8
    042556  a0   000002 051375
                                  3614  	ch    2,s003107 [ 0]	071 9
    042557  a0   000002 051377
                                  3615  	ch    2,s003111 [ 0]	072 :
    042560  a0   000002 051401
                                  3616  	ch    2,s003113 [ 0]	073 ;
    042561  a0   000002 051403
                                  3617  	ch    2,s003115 [ 0]	074 <
    042562  a0   000002 051405
                                  3618  	ch    2,s003117 [ 0]	075 =
    042563  a0   000002 051407
                                  3619  	ch    2,s003121 [ 0]	076 >
    042564  a0   000002 051411
                                  3620  	ch    2,s003123 [ 0]	077 ?
    042565  a0   000002 051413
                                  3621  	ch    2,s003125 [ 0]	100 @
    042566  a0   000002 051415
                                  3622  	ch    2,s003127 [ 0]	101 A
    042567  a0   000002 051417
                                  3623  	ch    2,s003131 [ 0]	102 B
    042570  a0   000002 051421
                                  3624  	ch    2,s003133 [ 0]	103 C
    042571  a0   000002 051423
                                  3625  	ch    2,s003135 [ 0]	104 D
    042572  a0   000002 051425
                                  3626  	ch    2,s003137 [ 0]	105 E
    042573  a0   000002 051427
                                  3627  	ch    2,s003141 [ 0]	106 F
    042574  a0   000002 051431
                                  3628  	ch    2,s003143 [ 0]	107 G
    042575  a0   000002 051433
                                  3629  	ch    2,s003145 [ 0]	110 H
    042576  a0   000002 051435
                                  3630  	ch    2,s003147 [ 0]	111 I
    042577  a0   000002 051437
                                  3631  	ch    2,s003151 [ 0]	112 J
    042600  a0   000002 051441
                                  3632  	ch    2,s003153 [ 0]	113 K
    042601  a0   000002 051443
                                  3633  	ch    2,s003155 [ 0]	114 L
    042602  a0   000002 051445
                                  3634  	ch    2,s003157 [ 0]	115 M
    042603  a0   000002 051447
                                  3635  	ch    2,s003161 [ 0]	116 N
    042604  a0   000002 051451
                                  3636  	ch    2,s003163 [ 0]	117 O
    042605  a0   000002 051453
                                  3637  	ch    2,s003165 [ 0]	120 P
    042606  a0   000002 051455
                                  3638  	ch    2,s003167 [ 0]	121 Q
    042607  a0   000002 051457
                                  3639  	ch    2,s003171 [ 0]	122 R
    042610  a0   000002 051461
                                  3640  	ch    2,s003173 [ 0]	123 S
    042611  a0   000002 051463
                                  3641  	ch    2,s003175 [ 0]	124 T
    042612  a0   000002 051465
                                  3642  	ch    2,s003177 [ 0]	125 U
    042613  a0   000002 051467
                                  3643  	ch    2,s003201 [ 0]	126 V
    042614  a0   000002 051471
                                  3644  	ch    2,s003203 [ 0]	127 W
    042615  a0   000002 051473
                                  3645  	ch    2,s003205 [ 0]	130 X
    042616  a0   000002 051475
                                  3646  	ch    2,s003207 [ 0]	131 Y
    042617  a0   000002 051477
                                  3647  	ch    2,s003211 [ 0]	132 Z
    042620  a0   000002 051501
                                  3648  	ch    2,s003213 [ 0]	133 [
    042621  a0   000002 051503
                                  3649  	ch    2,s003215 [ 0]	134 \
    042622  a0   000002 051505
                                  3650  	ch    2,s003217 [ 0]	135 ]
    042623  a0   000002 051507
                                  3651  	ch    2,s003221 [ 0]	136 ^
    042624  a0   000002 051511
                                  3652  	ch    2,s003223 [ 0]	137 _
    042625  a0   000002 051513
                                  3653  	ch    2,s003225 [ 0]	140 `
    042626  a0   000002 051515
                                  3654  	ch    2,s003227 [ 0]	141 a
    042627  a0   000002 051517
                                  3655  	ch    2,s003231 [ 0]	142 b
    042630  a0   000002 051521
                                  3656  	ch    2,s003233 [ 0]	143 c
    042631  a0   000002 051523
                                  3657  	ch    2,s000663 [ 0]	144 d
    042632  a0   000002 047153
                                  3658  	ch    2,s003235 [ 0]	145 e
    042633  a0   000002 051525
                                  3659  	ch    2,s003237 [ 0]	146 f
    042634  a0   000002 051527
                                  3660  	ch    2,s003241 [ 0]	147 g
    042635  a0   000002 051531
                                  3661  	ch    2,s003243 [ 0]	150 h
    042636  a0   000002 051533
                                  3662  	ch    2,s003245 [ 0]	151 i
    042637  a0   000002 051535
                                  3663  	ch    2,s003247 [ 0]	152 j
    042640  a0   000002 051537
                                  3664  	ch    2,s003251 [ 0]	153 k
    042641  a0   000002 051541
                                  3665  	ch    2,s003253 [ 0]	154 l
    042642  a0   000002 051543
                                  3666  	ch    2,s003255 [ 0]	155 m
    042643  a0   000002 051545
                                  3667  	ch    2,s000665 [ 0]	156 n
    042644  a0   000002 047155
                                  3668  	ch    2,s003257 [ 0]	157 o
    042645  a0   000002 051547
                                  3669  	ch    2,s003261 [ 0]	160 p
    042646  a0   000002 051551
                                  3670  	ch    2,s003263 [ 0]	161 q
    042647  a0   000002 051553
                                  3671  	ch    2,s003265 [ 0]	162 r
    042650  a0   000002 051555
                                  3672  	ch    2,s003267 [ 0]	163 s
    042651  a0   000002 051557
                                  3673  	ch    2,s003271 [ 0]	164 t
    042652  a0   000002 051561
                                  3674  	ch    2,s003273 [ 0]	165 u
    042653  a0   000002 051563
                                  3675  	ch    2,s003275 [ 0]	166 v
    042654  a0   000002 051565
                                  3676  	ch    2,s003277 [ 0]	167 w
    042655  a0   000002 051567
                                  3677  	ch    2,s000667 [ 0]	170 x
    042656  a0   000002 047157
                                  3678  	ch    2,s003301 [ 0]	171 y
    042657  a0   000002 051571
                                  3679  	ch    2,s003303 [ 0]	172 z
    042660  a0   000002 051573
                                  3680  	ch    2,s003305 [ 0]	173 {
    042661  a0   000002 051575
                                  3681  	ch    2,s003307 [ 0]	174 |
    042662  a0   000002 051577
                                  3682  	ch    2,s003311 [ 0]	175 }
    042663  a0   000002 051601
                                  3683  	ch    2,s003313 [ 0]	176 ~
    042664  a0   000002 051603
                                  3684  	ch    2,s000661 [ 0]	177 PAD
    042665  a0   000002 047151
                                  3685  	no_ch (29)
                                  3686  	ch    2,s000663 [ 0]	235
    042723  a0   000002 047153
                                  3687  	ch    2,s000665 [ 0]	236
    042724  a0   000002 047155
                                  3688  	ch    2,s000667 [ 0]	237
    042725  a0   000002 047157
                                  3689  	ch    2,s004024 [ 0]	240
    042726  a0   000002 052314
                                  3690  	no_ch (11)
                                  3691  	ch    2,s002334 [ 0]	254 nabla
    042742  a0   000002 050624
                                  3692  	ch    2,s004015 [ 0]	255 EMdash
    042743  a0   000002 052305
                                  3693  	no_ch (3)
                                  3694  	ch    2,s002310 [ 0]	261 dagger
    042747  a0   000002 050600
                                  3695  	no_ch (13)
                                  3696  	ch    2,s000002 [ 0]	277
    042765  a0   000002 046650
                                  3697  	no_ch (1)
                                  3698  	ch    2,s002316 [ 0]	301 dbl dagger
    042767  a0   000002 050606
                                  3699  	no_ch (1)
                                  3700  	ch    2,s002227 [ 0]	303 copyright
    042771  a0   000002 050517
                                  3701  	ch    2,s002325 [ 0]	304 delta
    042772  a0   000002 050615
                                  3702  	no_ch (8)
                                  3703  	ch    2,s001572 [ 0]	315 bullet
    043003  a0   000002 050062
                                  3704  	no_ch (6)
                                  3705  	ch    2,s002255 [ 0]	324
    043012  a0   000002 050545
                                  3706  	no_ch (40)
                                  3707  	ch    2,s000671 [ 0]	375 square
    043063  a0   000002 047161
                                  3708  	no_ch (12)
                                  3709  	ch    2,s000675 [ 0]	412 EM
    043100  a0   000002 047165
                                  3710  	ch    2,s000702 [ 0]	413 EM _dash
    043101  a0   000002 047172
                                  3711  	ch    2,s000361 [ 0]	414 EN
    043102  a0   000002 046651
                                  3712  	ch    2,s000557 [ 0]	415 EN _dash
    043103  a0   000002 047047
                                  3713  	ch    2,s003057 [ 0]	416 EN dash
    043104  a0   000002 051347
                                  3714  	ch    2,s000677 [ 0]	417 thin space
    043105  a0   000002 047167
                                  3715  	ch    2,s003057 [ 0]	420 hyphen
    043106  a0   000002 051347
                                  3716  	ch    2,s003031 [ 0]	421 ``
    043107  a0   000002 051321
                                  3717  	ch    2,s003031 [ 0]	422 ''
    043110  a0   000002 051321
                                  3718  	ch    2,s001626 [ 0]	423 1hi X
    043111  a0   000002 050116
                                  3719  	ch    2,s001666 [ 0]	424
    043112  a0   000002 050156
                                  3720  	ch    2,s001717 [ 0]	425 v|
    043113  a0   000002 050207
                                  3721  	ch    2,s002070 [ 0]	426
    043114  a0   000002 050360
                                  3722  	ch    2,s002034 [ 0]	427 dia left
    043115  a0   000002 050324
                                  3723  	ch    2,s001645 [ 0]	430 delete mark
    043116  a0   000002 050135
                                  3724  	ch    2,s002052 [ 0]	431 dia right
    043117  a0   000002 050342
                                  3725  	ch    2,s002023 [ 0]	432 dia top
    043120  a0   000002 050313
                                  3726  	ch    2,s001761 [ 0]	433 <
    043121  a0   000002 050251
                                  3727  	ch    2,s001401 [ 0]	434 1hi {
    043122  a0   000002 047671
                                  3728  	ch    2,s001327 [ 0]	435 1hi [
    043123  a0   000002 047617
                                  3729  	ch    2,s002136 [ 0]	436 left circle
    043124  a0   000002 050426
                                  3730  	ch    2,s001453 [ 0]	437
    043125  a0   000002 047743
                                  3731  	ch    2,s002002 [ 0]	440 ->
    043126  a0   000002 050272
                                  3732  	ch    2,s001425 [ 0]	441 1hi }
    043127  a0   000002 047715
                                  3733  	ch    2,s001353 [ 0]	442 1hi ]
    043130  a0   000002 047643
                                  3734  	ch    2,s002171 [ 0]	443 right circle
    043131  a0   000002 050461
                                  3735  	ch    2,s001476 [ 0]	444
    043132  a0   000002 047766
                                  3736  	ch    2,s001734 [ 0]	445 ^|
    043133  a0   000002 050224
                                  3737  	no_ch (1)
                                  3738  	ch    2,s000704 [ 0]	447
    043135  a0   000002 047174
                                  3739  	ch    2,s001025 [ 0]	450
    043136  a0   000002 047315
                                  3740  	ch    2,s000772 [ 0]	451
    043137  a0   000002 047262
                                  3741  	ch    2,s001235 [ 0]	452
    043140  a0   000002 047525
                                  3742  	ch    2,s001147 [ 0]	453
    043141  a0   000002 047437
                                  3743  	ch    2,s000772 [ 0]	454
    043142  a0   000002 047262
                                  3744  	ch    2,s000721 [ 0]	455
    043143  a0   000002 047211
                                  3745  	ch    2,s001036 [ 0]	456
    043144  a0   000002 047326
                                  3746  	ch    2,s000772 [ 0]	457
    043145  a0   000002 047262
                                  3747  	ch    2,s001254 [ 0]	460
    043146  a0   000002 047544
                                  3748  	ch    2,s001160 [ 0]	461
    043147  a0   000002 047450
                                  3749  	ch    2,s000772 [ 0]	462
    043150  a0   000002 047262
                                  3750  	ch    2,s000740 [ 0]	463
    043151  a0   000002 047230
                                  3751  	ch    2,s001051 [ 0]	464
    043152  a0   000002 047341
                                  3752  	ch    2,s001115 [ 0]	465
    043153  a0   000002 047405
                                  3753  	ch    2,s001273 [ 0]	466
    043154  a0   000002 047563
                                  3754  	ch    2,s001171 [ 0]	467
    043155  a0   000002 047461
                                  3755  	ch    2,s000772 [ 0]	470
    043156  a0   000002 047262
                                  3756  	ch    2,s000754 [ 0]	471
    043157  a0   000002 047244
                                  3757  	ch    2,s001061 [ 0]	472
    043160  a0   000002 047351
                                  3758  	ch    2,s001132 [ 0]	473
    043161  a0   000002 047422
                                  3759  	ch    2,s001311 [ 0]	474
    043162  a0   000002 047601
                                  3760  	ch    2,s001202 [ 0]	475
    043163  a0   000002 047472
                                  3761  	ch    2,s000772 [ 0]	476
    043164  a0   000002 047262
                                  3762  	ch    2,s000740 [ 0]	477
    043165  a0   000002 047230
                                  3763  	ch    2,s001051 [ 0]	500
    043166  a0   000002 047341
                                  3764  	ch    2,s000772 [ 0]	501
    043167  a0   000002 047262
                                  3765  	ch    2,s001273 [ 0]	502
    043170  a0   000002 047563
                                  3766  	ch    2,s001171 [ 0]	503
    043171  a0   000002 047461
                                  3767  	ch    2,s000772 [ 0]	504
    043172  a0   000002 047262
                                  3768  	ch    2,s000754 [ 0]	505
    043173  a0   000002 047244
                                  3769  	ch    2,s001061 [ 0]	506
    043174  a0   000002 047351
                                  3770  	ch    2,s000772 [ 0]	507
    043175  a0   000002 047262
                                  3771  	ch    2,s001311 [ 0]	510
    043176  a0   000002 047601
                                  3772  	ch    2,s001202 [ 0]	511
    043177  a0   000002 047472
                                  3773  	ch    2,s000772 [ 0]	512
    043200  a0   000002 047262
                                  3774  	ch    2,s000772 [ 0]	513
    043201  a0   000002 047262
                                  3775  	ch    2,s001073 [ 0]	514
    043202  a0   000002 047363
                                  3776  	ch    2,s000772 [ 0]	515
    043203  a0   000002 047262
                                  3777  	ch    2,s000772 [ 0]	516
    043204  a0   000002 047262
                                  3778  	ch    2,s001213 [ 0]	517
    043205  a0   000002 047503
                                  3779  	ch    2,s000772 [ 0]	520
    043206  a0   000002 047262
                                  3780  	ch    2,s001006 [ 0]	521
    043207  a0   000002 047276
                                  3781  	ch    2,s001103 [ 0]	522
    043210  a0   000002 047373
                                  3782  	ch    2,s001006 [ 0]	523
    043211  a0   000002 047276
                                  3783  	ch    2,s001006 [ 0]	524
    043212  a0   000002 047276
                                  3784  	ch    2,s001221 [ 0]	525
    043213  a0   000002 047511
                                  3785  	ch    2,s001006 [ 0]	526
    043214  a0   000002 047276
                                  3786  	ch    2,s001523 [ 0]	527
    043215  a0   000002 050013
                                  3787  	ch    2,s001543 [ 0]	530
    043216  a0   000002 050033
                                  3788  	ch    2,s001610 [ 0]	531
    043217  a0   000002 050100
                                  3789  	ch    2,s001705 [ 0]	532
    043220  a0   000002 050175
                                  3790  	no_ch (1)
                                  3791  	ch    2,s001754 [ 0]	534
    043222  a0   000002 050244
                                  3792  	no_ch (1)
                                  3793  	ch    2,s002104 [ 0]	536
    043224  a0   000002 050374
                                  3794  	ch    2,s002121 [ 0]	537
    043225  a0   000002 050411
    043226                        3795  opu.11:
                                  3796  	oput.data_ct	351
    043226  aa   000000 000537
                                  3797  	no_ch (32)
                                  3798  	ch    2,s000361 [ 4]	040 SP
    043267  a0   000002 046651
                                  3799  	no_ch (64)
                                  3800  	ch    2,s003127 [ 0]	141 a
    043370  a0   000002 051417
                                  3801  	ch    2,s003131 [ 0]	142 b
    043371  a0   000002 051421
                                  3802  	ch    2,s003133 [ 0]	143 c
    043372  a0   000002 051423
                                  3803  	ch    2,s003135 [ 0]	144 d
    043373  a0   000002 051425
                                  3804  	ch    2,s003137 [ 0]	145 e
    043374  a0   000002 051427
                                  3805  	ch    2,s003141 [ 0]	146 f
    043375  a0   000002 051431
                                  3806  	ch    2,s003143 [ 0]	147 g
    043376  a0   000002 051433
                                  3807  	ch    2,s003145 [ 0]	150 h
    043377  a0   000002 051435
                                  3808  	ch    2,s003147 [ 0]	151 i
    043400  a0   000002 051437
                                  3809  	ch    2,s003151 [ 0]	152 j
    043401  a0   000002 051441
                                  3810  	ch    2,s003153 [ 0]	153 k
    043402  a0   000002 051443
                                  3811  	ch    2,s003155 [ 0]	154 l
    043403  a0   000002 051445
                                  3812  	ch    2,s003157 [ 0]	155 m
    043404  a0   000002 051447
                                  3813  	ch    2,s003161 [ 0]	156 n
    043405  a0   000002 051451
                                  3814  	ch    2,s003163 [ 0]	157 o
    043406  a0   000002 051453
                                  3815  	ch    2,s003165 [ 0]	160 p
    043407  a0   000002 051455
                                  3816  	ch    2,s003167 [ 0]	161 q
    043410  a0   000002 051457
                                  3817  	ch    2,s003171 [ 0]	162 r
    043411  a0   000002 051461
                                  3818  	ch    2,s003173 [ 0]	163 s
    043412  a0   000002 051463
                                  3819  	ch    2,s003175 [ 0]	164 t
    043413  a0   000002 051465
                                  3820  	ch    2,s003177 [ 0]	165 u
    043414  a0   000002 051467
                                  3821  	ch    2,s003201 [ 0]	166 v
    043415  a0   000002 051471
                                  3822  	ch    2,s003203 [ 0]	167 w
    043416  a0   000002 051473
                                  3823  	ch    2,s003205 [ 0]	170 x
    043417  a0   000002 051475
                                  3824  	ch    2,s003207 [ 0]	171 y
    043420  a0   000002 051477
                                  3825  	ch    2,s003211 [ 0]	172 z
    043421  a0   000002 051501
                                  3826  	no_ch (4)
                                  3827  	ch    2,s000661 [ 0]	177 PAD
    043426  a0   000002 047151
                                  3828  	no_ch (29)
                                  3829  	ch    2,s000663 [ 0]	235
    043464  a0   000002 047153
                                  3830  	ch    2,s000665 [ 0]	236
    043465  a0   000002 047155
                                  3831  	ch    2,s000667 [ 0]	237
    043466  a0   000002 047157
                                  3832  	no_ch (12)
                                  3833  	ch    2,s002334 [ 0]	254 nabla
    043503  a0   000002 050624
                                  3834  	no_ch (4)
                                  3835  	ch    2,s002310 [ 0]	261 dagger
    043510  a0   000002 050600
                                  3836  	no_ch (13)
                                  3837  	ch    2,s000002 [ 0]	277
    043526  a0   000002 046650
                                  3838  	no_ch (1)
                                  3839  	ch    2,s002316 [ 0]	301 dbl dagger
    043530  a0   000002 050606
                                  3840  	no_ch (1)
                                  3841  	ch    2,s002227 [ 0]	303 copyright
    043532  a0   000002 050517
                                  3842  	ch    2,s002325 [ 0]	304 delta
    043533  a0   000002 050615
                                  3843  	no_ch (8)
                                  3844  	ch    2,s001572 [ 0]	315 bullet
    043544  a0   000002 050062
                                  3845  	no_ch (6)
                                  3846  	ch    2,s002255 [ 0]	324
    043553  a0   000002 050545
                                  3847  	no_ch (40)
                                  3848  	ch    2,s000671 [ 0]	375 square
    043624  a0   000002 047161
                                  3849  	no_ch (12)
                                  3850  	ch    2,s000675 [ 0]	412 EM
    043641  a0   000002 047165
                                  3851  	ch    2,s000702 [ 0]	413 EM _dash
    043642  a0   000002 047172
                                  3852  	ch    2,s000361 [ 0]	414 EN
    043643  a0   000002 046651
                                  3853  	ch    2,s000557 [ 0]	415 EN _dash
    043644  a0   000002 047047
                                  3854  	no_ch (1)
                                  3855  	ch    2,s000677 [ 0]	417 thin space
    043646  a0   000002 047167
                                  3856  	no_ch (3)
                                  3857  	ch    2,s001626 [ 0]	423 1hi X
    043652  a0   000002 050116
                                  3858  	ch    2,s001666 [ 0]	424
    043653  a0   000002 050156
                                  3859  	ch    2,s001717 [ 0]	425 v|
    043654  a0   000002 050207
                                  3860  	ch    2,s002070 [ 0]	426
    043655  a0   000002 050360
                                  3861  	ch    2,s002034 [ 0]	427 dia left
    043656  a0   000002 050324
                                  3862  	ch    2,s001645 [ 0]	430 delete mark
    043657  a0   000002 050135
                                  3863  	ch    2,s002052 [ 0]	431 dia right
    043660  a0   000002 050342
                                  3864  	ch    2,s002023 [ 0]	432 dia top
    043661  a0   000002 050313
                                  3865  	ch    2,s001761 [ 0]	433 <
    043662  a0   000002 050251
                                  3866  	ch    2,s001401 [ 0]	434 1hi {
    043663  a0   000002 047671
                                  3867  	ch    2,s001327 [ 0]	435 1hi [
    043664  a0   000002 047617
                                  3868  	ch    2,s002136 [ 0]	436 left circle
    043665  a0   000002 050426
                                  3869  	ch    2,s001453 [ 0]	437
    043666  a0   000002 047743
                                  3870  	ch    2,s002002 [ 0]	440 ->
    043667  a0   000002 050272
                                  3871  	ch    2,s001425 [ 0]	441 1hi }
    043670  a0   000002 047715
                                  3872  	ch    2,s001353 [ 0]	442 1hi ]
    043671  a0   000002 047643
                                  3873  	ch    2,s002171 [ 0]	443 right circle
    043672  a0   000002 050461
                                  3874  	ch    2,s001476 [ 0]	444
    043673  a0   000002 047766
                                  3875  	ch    2,s001734 [ 0]	445 ^|
    043674  a0   000002 050224
                                  3876  	no_ch (1)
                                  3877  	ch    2,s000704 [ 0]	447
    043676  a0   000002 047174
                                  3878  	ch    2,s001025 [ 0]	450
    043677  a0   000002 047315
                                  3879  	ch    2,s000772 [ 0]	451
    043700  a0   000002 047262
                                  3880  	ch    2,s001235 [ 0]	452
    043701  a0   000002 047525
                                  3881  	ch    2,s001147 [ 0]	453
    043702  a0   000002 047437
                                  3882  	ch    2,s000772 [ 0]	454
    043703  a0   000002 047262
                                  3883  	ch    2,s000721 [ 0]	455
    043704  a0   000002 047211
                                  3884  	ch    2,s001036 [ 0]	456
    043705  a0   000002 047326
                                  3885  	ch    2,s000772 [ 0]	457
    043706  a0   000002 047262
                                  3886  	ch    2,s001254 [ 0]	460
    043707  a0   000002 047544
                                  3887  	ch    2,s001160 [ 0]	461
    043710  a0   000002 047450
                                  3888  	ch    2,s000772 [ 0]	462
    043711  a0   000002 047262
                                  3889  	ch    2,s000740 [ 0]	463
    043712  a0   000002 047230
                                  3890  	ch    2,s001051 [ 0]	464
    043713  a0   000002 047341
                                  3891  	ch    2,s001115 [ 0]	465
    043714  a0   000002 047405
                                  3892  	ch    2,s001273 [ 0]	466
    043715  a0   000002 047563
                                  3893  	ch    2,s001171 [ 0]	467
    043716  a0   000002 047461
                                  3894  	ch    2,s000772 [ 0]	470
    043717  a0   000002 047262
                                  3895  	ch    2,s000754 [ 0]	471
    043720  a0   000002 047244
                                  3896  	ch    2,s001061 [ 0]	472
    043721  a0   000002 047351
                                  3897  	ch    2,s001132 [ 0]	473
    043722  a0   000002 047422
                                  3898  	ch    2,s001311 [ 0]	474
    043723  a0   000002 047601
                                  3899  	ch    2,s001202 [ 0]	475
    043724  a0   000002 047472
                                  3900  	ch    2,s000772 [ 0]	476
    043725  a0   000002 047262
                                  3901  	ch    2,s000740 [ 0]	477
    043726  a0   000002 047230
                                  3902  	ch    2,s001051 [ 0]	500
    043727  a0   000002 047341
                                  3903  	ch    2,s000772 [ 0]	501
    043730  a0   000002 047262
                                  3904  	ch    2,s001273 [ 0]	502
    043731  a0   000002 047563
                                  3905  	ch    2,s001171 [ 0]	503
    043732  a0   000002 047461
                                  3906  	ch    2,s000772 [ 0]	504
    043733  a0   000002 047262
                                  3907  	ch    2,s000754 [ 0]	505
    043734  a0   000002 047244
                                  3908  	ch    2,s001061 [ 0]	506
    043735  a0   000002 047351
                                  3909  	ch    2,s000772 [ 0]	507
    043736  a0   000002 047262
                                  3910  	ch    2,s001311 [ 0]	510
    043737  a0   000002 047601
                                  3911  	ch    2,s001202 [ 0]	511
    043740  a0   000002 047472
                                  3912  	ch    2,s000772 [ 0]	512
    043741  a0   000002 047262
                                  3913  	ch    2,s000772 [ 0]	513
    043742  a0   000002 047262
                                  3914  	ch    2,s001073 [ 0]	514
    043743  a0   000002 047363
                                  3915  	ch    2,s000772 [ 0]	515
    043744  a0   000002 047262
                                  3916  	ch    2,s000772 [ 0]	516
    043745  a0   000002 047262
                                  3917  	ch    2,s001213 [ 0]	517
    043746  a0   000002 047503
                                  3918  	ch    2,s000772 [ 0]	520
    043747  a0   000002 047262
                                  3919  	ch    2,s001006 [ 0]	521
    043750  a0   000002 047276
                                  3920  	ch    2,s001103 [ 0]	522
    043751  a0   000002 047373
                                  3921  	ch    2,s001006 [ 0]	523
    043752  a0   000002 047276
                                  3922  	ch    2,s001006 [ 0]	524
    043753  a0   000002 047276
                                  3923  	ch    2,s001221 [ 0]	525
    043754  a0   000002 047511
                                  3924  	ch    2,s001006 [ 0]	526
    043755  a0   000002 047276
                                  3925  	ch    2,s001523 [ 0]	527
    043756  a0   000002 050013
                                  3926  	ch    2,s001543 [ 0]	530
    043757  a0   000002 050033
                                  3927  	ch    2,s001610 [ 0]	531
    043760  a0   000002 050100
                                  3928  	ch    2,s001705 [ 0]	532
    043761  a0   000002 050175
                                  3929  	no_ch (1)
                                  3930  	ch    2,s001754 [ 0]	534
    043763  a0   000002 050244
                                  3931  	no_ch (1)
                                  3932  	ch    2,s002104 [ 0]	536
    043765  a0   000002 050374
                                  3933  	ch    2,s002121 [ 0]	537
    043766  a0   000002 050411
    043767                        3934  opu.12:
                                  3935  	oput.data_ct	351
    043767  aa   000000 000537
                                  3936  	no_ch (8)
                                  3937  	ch    3,s000657 [ 0]	010 BSP
    044000  a0   000003 047147
                                  3938  	no_ch (23)
                                  3939  	ch    3,s000361 [ 4]	040 SP
    044030  a0   000003 046651
                                  3940  	ch    3,s000363 [ 0]	041 !
    044031  a0   000003 046653
                                  3941  	ch    3,s000365 [ 0]	042 "
    044032  a0   000003 046655
                                  3942  	ch    3,s000367 [ 0]	043 #
    044033  a0   000003 046657
                                  3943  	ch    3,s000371 [ 0]	044 $
    044034  a0   000003 046661
                                  3944  	ch    3,s000373 [ 0]	045 %
    044035  a0   000003 046663
                                  3945  	ch    3,s000375 [ 0]	046 &
    044036  a0   000003 046665
                                  3946  	ch    3,s000377 [ 0]	047 '
    044037  a0   000003 046667
                                  3947  	ch    3,s000401 [ 0]	050 Lp
    044040  a0   000003 046671
                                  3948  	ch    3,s000403 [ 0]	051 Rp
    044041  a0   000003 046673
                                  3949  	ch    3,s000405 [ 0]	052 *
    044042  a0   000003 046675
                                  3950  	ch    3,s000407 [ 0]	053 +
    044043  a0   000003 046677
                                  3951  	ch    3,s000411 [ 0]	054 ,
    044044  a0   000003 046701
                                  3952  	ch    3,s000413 [ 0]	055 -
    044045  a0   000003 046703
                                  3953  	ch    3,s000415 [ 0]	056 .
    044046  a0   000003 046705
                                  3954  	ch    3,s000417 [ 0]	057 /
    044047  a0   000003 046707
                                  3955  	ch    3,s000421 [ 0]	060 0
    044050  a0   000003 046711
                                  3956  	ch    3,s000423 [ 0]	061 1
    044051  a0   000003 046713
                                  3957  	ch    3,s000425 [ 0]	062 2
    044052  a0   000003 046715
                                  3958  	ch    3,s000427 [ 0]	063 3
    044053  a0   000003 046717
                                  3959  	ch    3,s000431 [ 0]	064 4
    044054  a0   000003 046721
                                  3960  	ch    3,s000433 [ 0]	065 5
    044055  a0   000003 046723
                                  3961  	ch    3,s000435 [ 0]	066 6
    044056  a0   000003 046725
                                  3962  	ch    3,s000437 [ 0]	067 7
    044057  a0   000003 046727
                                  3963  	ch    3,s000441 [ 0]	070 8
    044060  a0   000003 046731
                                  3964  	ch    3,s000443 [ 0]	071 9
    044061  a0   000003 046733
                                  3965  	ch    3,s000445 [ 0]	072 :
    044062  a0   000003 046735
                                  3966  	ch    3,s000447 [ 0]	073 ;
    044063  a0   000003 046737
                                  3967  	ch    3,s000451 [ 0]	074 <
    044064  a0   000003 046741
                                  3968  	ch    3,s000453 [ 0]	075 =
    044065  a0   000003 046743
                                  3969  	ch    3,s000455 [ 0]	076 >
    044066  a0   000003 046745
                                  3970  	ch    3,s000457 [ 0]	077 ?
    044067  a0   000003 046747
                                  3971  	ch    3,s000461 [ 0]	100 @
    044070  a0   000003 046751
                                  3972  	ch    3,s000463 [ 0]	101 A
    044071  a0   000003 046753
                                  3973  	ch    3,s000465 [ 0]	102 B
    044072  a0   000003 046755
                                  3974  	ch    3,s000467 [ 0]	103 C
    044073  a0   000003 046757
                                  3975  	ch    3,s000471 [ 0]	104 D
    044074  a0   000003 046761
                                  3976  	ch    3,s000473 [ 0]	105 E
    044075  a0   000003 046763
                                  3977  	ch    3,s000475 [ 0]	106 F
    044076  a0   000003 046765
                                  3978  	ch    3,s000477 [ 0]	107 G
    044077  a0   000003 046767
                                  3979  	ch    3,s000501 [ 0]	110 H
    044100  a0   000003 046771
                                  3980  	ch    3,s000503 [ 0]	111 I
    044101  a0   000003 046773
                                  3981  	ch    3,s000505 [ 0]	112 J
    044102  a0   000003 046775
                                  3982  	ch    3,s000507 [ 0]	113 K
    044103  a0   000003 046777
                                  3983  	ch    3,s000511 [ 0]	114 L
    044104  a0   000003 047001
                                  3984  	ch    3,s000513 [ 0]	115 M
    044105  a0   000003 047003
                                  3985  	ch    3,s000515 [ 0]	116 N
    044106  a0   000003 047005
                                  3986  	ch    3,s000517 [ 0]	117 O
    044107  a0   000003 047007
                                  3987  	ch    3,s000521 [ 0]	120 P
    044110  a0   000003 047011
                                  3988  	ch    3,s000523 [ 0]	121 Q
    044111  a0   000003 047013
                                  3989  	ch    3,s000525 [ 0]	122 R
    044112  a0   000003 047015
                                  3990  	ch    3,s000527 [ 0]	123 S
    044113  a0   000003 047017
                                  3991  	ch    3,s000531 [ 0]	124 T
    044114  a0   000003 047021
                                  3992  	ch    3,s000533 [ 0]	125 U
    044115  a0   000003 047023
                                  3993  	ch    3,s000535 [ 0]	126 V
    044116  a0   000003 047025
                                  3994  	ch    3,s000537 [ 0]	127 W
    044117  a0   000003 047027
                                  3995  	ch    3,s000541 [ 0]	130 X
    044120  a0   000003 047031
                                  3996  	ch    3,s000543 [ 0]	131 Y
    044121  a0   000003 047033
                                  3997  	ch    3,s000545 [ 0]	132 Z
    044122  a0   000003 047035
                                  3998  	ch    3,s000547 [ 0]	133 [
    044123  a0   000003 047037
                                  3999  	ch    3,s000551 [ 0]	134 \
    044124  a0   000003 047041
                                  4000  	ch    3,s000553 [ 0]	135 ]
    044125  a0   000003 047043
                                  4001  	ch    3,s000555 [ 0]	136 ^
    044126  a0   000003 047045
                                  4002  	ch    3,s000557 [ 0]	137 _
    044127  a0   000003 047047
                                  4003  	ch    3,s000561 [ 0]	140 `
    044130  a0   000003 047051
                                  4004  	ch    3,s000563 [ 0]	141 a
    044131  a0   000003 047053
                                  4005  	ch    3,s000565 [ 0]	142 b
    044132  a0   000003 047055
                                  4006  	ch    3,s000567 [ 0]	143 c
    044133  a0   000003 047057
                                  4007  	ch    3,s000571 [ 0]	144 d
    044134  a0   000003 047061
                                  4008  	ch    3,s000573 [ 0]	145 e
    044135  a0   000003 047063
                                  4009  	ch    3,s000575 [ 0]	146 f
    044136  a0   000003 047065
                                  4010  	ch    3,s000577 [ 0]	147 g
    044137  a0   000003 047067
                                  4011  	ch    3,s000601 [ 0]	150 h
    044140  a0   000003 047071
                                  4012  	ch    3,s000603 [ 0]	151 i
    044141  a0   000003 047073
                                  4013  	ch    3,s000605 [ 0]	152 j
    044142  a0   000003 047075
                                  4014  	ch    3,s000607 [ 0]	153 k
    044143  a0   000003 047077
                                  4015  	ch    3,s000611 [ 0]	154 l
    044144  a0   000003 047101
                                  4016  	ch    3,s000613 [ 0]	155 m
    044145  a0   000003 047103
                                  4017  	ch    3,s000615 [ 0]	156 n
    044146  a0   000003 047105
                                  4018  	ch    3,s000617 [ 0]	157 o
    044147  a0   000003 047107
                                  4019  	ch    3,s000621 [ 0]	160 p
    044150  a0   000003 047111
                                  4020  	ch    3,s000623 [ 0]	161 q
    044151  a0   000003 047113
                                  4021  	ch    3,s000625 [ 0]	162 r
    044152  a0   000003 047115
                                  4022  	ch    3,s000627 [ 0]	163 s
    044153  a0   000003 047117
                                  4023  	ch    3,s000631 [ 0]	164 t
    044154  a0   000003 047121
                                  4024  	ch    3,s000633 [ 0]	165 u
    044155  a0   000003 047123
                                  4025  	ch    3,s000635 [ 0]	166 v
    044156  a0   000003 047125
                                  4026  	ch    3,s000637 [ 0]	167 w
    044157  a0   000003 047127
                                  4027  	ch    3,s000641 [ 0]	170 x
    044160  a0   000003 047131
                                  4028  	ch    3,s000643 [ 0]	171 y
    044161  a0   000003 047133
                                  4029  	ch    3,s000645 [ 0]	172 z
    044162  a0   000003 047135
                                  4030  	ch    3,s000647 [ 0]	173 {
    044163  a0   000003 047137
                                  4031  	ch    3,s000651 [ 0]	174 |
    044164  a0   000003 047141
                                  4032  	ch    3,s000653 [ 0]	175 }
    044165  a0   000003 047143
                                  4033  	ch    3,s000655 [ 0]	176 ~
    044166  a0   000003 047145
                                  4034  	ch    3,s000661 [ 0]	177 PAD
    044167  a0   000003 047151
                                  4035  	no_ch (29)
                                  4036  	ch    3,s000663 [ 0]	235
    044225  a0   000003 047153
                                  4037  	ch    3,s000665 [ 0]	236
    044226  a0   000003 047155
                                  4038  	ch    3,s000667 [ 0]	237
    044227  a0   000003 047157
                                  4039  	ch    3,s004045 [ 0]	240
    044230  a0   000003 052335
                                  4040  	no_ch (11)
                                  4041  	ch    3,s002334 [ 0]	254 nabla
    044244  a0   000003 050624
                                  4042  	ch    3,s004040 [ 0]	255 EMdash
    044245  a0   000003 052330
                                  4043  	no_ch (3)
                                  4044  	ch    3,s002310 [ 0]	261 dagger
    044251  a0   000003 050600
                                  4045  	no_ch (13)
                                  4046  	ch    3,s000002 [ 0]	277
    044267  a0   000003 046650
                                  4047  	no_ch (1)
                                  4048  	ch    3,s002316 [ 0]	301 dbl dagger
    044271  a0   000003 050606
                                  4049  	no_ch (1)
                                  4050  	ch    3,s002227 [ 0]	303 copyright
    044273  a0   000003 050517
                                  4051  	ch    3,s002325 [ 0]	304 delta
    044274  a0   000003 050615
                                  4052  	no_ch (8)
                                  4053  	ch    3,s001572 [ 0]	315 bullet
    044305  a0   000003 050062
                                  4054  	no_ch (6)
                                  4055  	ch    3,s002255 [ 0]	324
    044314  a0   000003 050545
                                  4056  	no_ch (40)
                                  4057  	ch    3,s000671 [ 0]	375 square
    044365  a0   000003 047161
                                  4058  	no_ch (12)
                                  4059  	ch    3,s000675 [ 0]	412 EM
    044402  a0   000003 047165
                                  4060  	ch    3,s000702 [ 0]	413 EM _dash
    044403  a0   000003 047172
                                  4061  	ch    3,s000361 [ 0]	414 EN
    044404  a0   000003 046651
                                  4062  	ch    3,s000557 [ 0]	415 EN _dash
    044405  a0   000003 047047
                                  4063  	ch    3,s000413 [ 0]	416 EN dash
    044406  a0   000003 046703
                                  4064  	ch    3,s000677 [ 0]	417 thin space
    044407  a0   000003 047167
                                  4065  	no_ch (1)
                                  4066  	ch    3,s004030 [ 0]	421 ``
    044411  a0   000003 052320
                                  4067  	ch    3,s004034 [ 0]	422 ''
    044412  a0   000003 052324
                                  4068  	ch    3,s001626 [ 0]	423 1hi X
    044413  a0   000003 050116
                                  4069  	ch    3,s001666 [ 0]	424
    044414  a0   000003 050156
                                  4070  	ch    3,s001717 [ 0]	425 v|
    044415  a0   000003 050207
                                  4071  	ch    3,s002070 [ 0]	426
    044416  a0   000003 050360
                                  4072  	ch    3,s002034 [ 0]	427 dia left
    044417  a0   000003 050324
                                  4073  	ch    3,s001645 [ 0]	430 delete mark
    044420  a0   000003 050135
                                  4074  	ch    3,s002052 [ 0]	431 dia right
    044421  a0   000003 050342
                                  4075  	ch    3,s002023 [ 0]	432 dia top
    044422  a0   000003 050313
                                  4076  	ch    3,s001761 [ 0]	433 <
    044423  a0   000003 050251
                                  4077  	ch    3,s001401 [ 0]	434 1hi {
    044424  a0   000003 047671
                                  4078  	ch    3,s001327 [ 0]	435 1hi [
    044425  a0   000003 047617
                                  4079  	ch    3,s002136 [ 0]	436 left circle
    044426  a0   000003 050426
                                  4080  	ch    3,s001453 [ 0]	437
    044427  a0   000003 047743
                                  4081  	ch    3,s002002 [ 0]	440 ->
    044430  a0   000003 050272
                                  4082  	ch    3,s001425 [ 0]	441 1hi }
    044431  a0   000003 047715
                                  4083  	ch    3,s001353 [ 0]	442 1hi ]
    044432  a0   000003 047643
                                  4084  	ch    3,s002171 [ 0]	443 right circle
    044433  a0   000003 050461
                                  4085  	ch    3,s001476 [ 0]	444
    044434  a0   000003 047766
                                  4086  	ch    3,s001734 [ 0]	445 ^|
    044435  a0   000003 050224
                                  4087  	no_ch (1)
                                  4088  	ch    3,s000704 [ 0]	447
    044437  a0   000003 047174
                                  4089  	ch    3,s001025 [ 0]	450
    044440  a0   000003 047315
                                  4090  	ch    3,s000772 [ 0]	451
    044441  a0   000003 047262
                                  4091  	ch    3,s001235 [ 0]	452
    044442  a0   000003 047525
                                  4092  	ch    3,s001147 [ 0]	453
    044443  a0   000003 047437
                                  4093  	ch    3,s000772 [ 0]	454
    044444  a0   000003 047262
                                  4094  	ch    3,s000721 [ 0]	455
    044445  a0   000003 047211
                                  4095  	ch    3,s001036 [ 0]	456
    044446  a0   000003 047326
                                  4096  	ch    3,s000772 [ 0]	457
    044447  a0   000003 047262
                                  4097  	ch    3,s001254 [ 0]	460
    044450  a0   000003 047544
                                  4098  	ch    3,s001160 [ 0]	461
    044451  a0   000003 047450
                                  4099  	ch    3,s000772 [ 0]	462
    044452  a0   000003 047262
                                  4100  	ch    3,s000740 [ 0]	463
    044453  a0   000003 047230
                                  4101  	ch    3,s001051 [ 0]	464
    044454  a0   000003 047341
                                  4102  	ch    3,s001115 [ 0]	465
    044455  a0   000003 047405
                                  4103  	ch    3,s001273 [ 0]	466
    044456  a0   000003 047563
                                  4104  	ch    3,s001171 [ 0]	467
    044457  a0   000003 047461
                                  4105  	ch    3,s000772 [ 0]	470
    044460  a0   000003 047262
                                  4106  	ch    3,s000754 [ 0]	471
    044461  a0   000003 047244
                                  4107  	ch    3,s001061 [ 0]	472
    044462  a0   000003 047351
                                  4108  	ch    3,s001132 [ 0]	473
    044463  a0   000003 047422
                                  4109  	ch    3,s001311 [ 0]	474
    044464  a0   000003 047601
                                  4110  	ch    3,s001202 [ 0]	475
    044465  a0   000003 047472
                                  4111  	ch    3,s000772 [ 0]	476
    044466  a0   000003 047262
                                  4112  	ch    3,s000740 [ 0]	477
    044467  a0   000003 047230
                                  4113  	ch    3,s001051 [ 0]	500
    044470  a0   000003 047341
                                  4114  	ch    3,s000772 [ 0]	501
    044471  a0   000003 047262
                                  4115  	ch    3,s001273 [ 0]	502
    044472  a0   000003 047563
                                  4116  	ch    3,s001171 [ 0]	503
    044473  a0   000003 047461
                                  4117  	ch    3,s000772 [ 0]	504
    044474  a0   000003 047262
                                  4118  	ch    3,s000754 [ 0]	505
    044475  a0   000003 047244
                                  4119  	ch    3,s001061 [ 0]	506
    044476  a0   000003 047351
                                  4120  	ch    3,s000772 [ 0]	507
    044477  a0   000003 047262
                                  4121  	ch    3,s001311 [ 0]	510
    044500  a0   000003 047601
                                  4122  	ch    3,s001202 [ 0]	511
    044501  a0   000003 047472
                                  4123  	ch    3,s000772 [ 0]	512
    044502  a0   000003 047262
                                  4124  	ch    3,s000772 [ 0]	513
    044503  a0   000003 047262
                                  4125  	ch    3,s001073 [ 0]	514
    044504  a0   000003 047363
                                  4126  	ch    3,s000772 [ 0]	515
    044505  a0   000003 047262
                                  4127  	ch    3,s000772 [ 0]	516
    044506  a0   000003 047262
                                  4128  	ch    3,s001213 [ 0]	517
    044507  a0   000003 047503
                                  4129  	ch    3,s000772 [ 0]	520
    044510  a0   000003 047262
                                  4130  	ch    3,s001006 [ 0]	521
    044511  a0   000003 047276
                                  4131  	ch    3,s001103 [ 0]	522
    044512  a0   000003 047373
                                  4132  	ch    3,s001006 [ 0]	523
    044513  a0   000003 047276
                                  4133  	ch    3,s001006 [ 0]	524
    044514  a0   000003 047276
                                  4134  	ch    3,s001221 [ 0]	525
    044515  a0   000003 047511
                                  4135  	ch    3,s001006 [ 0]	526
    044516  a0   000003 047276
                                  4136  	ch    3,s001523 [ 0]	527
    044517  a0   000003 050013
                                  4137  	ch    3,s001543 [ 0]	530
    044520  a0   000003 050033
                                  4138  	ch    3,s001610 [ 0]	531
    044521  a0   000003 050100
                                  4139  	ch    3,s001705 [ 0]	532
    044522  a0   000003 050175
                                  4140  	no_ch (1)
                                  4141  	ch    3,s001754 [ 0]	534
    044524  a0   000003 050244
                                  4142  	no_ch (1)
                                  4143  	ch    3,s002104 [ 0]	536
    044526  a0   000003 050374
                                  4144  	ch    3,s002121 [ 0]	537
    044527  a0   000003 050411
    044530                        4145  opu.13:
                                  4146  	oput.data_ct	351
    044530  aa   000000 000537
                                  4147  	no_ch (32)
                                  4148  	ch    3,s000361 [ 4]	040 SP
    044571  a0   000003 046651
                                  4149  	no_ch (64)
                                  4150  	ch    3,s000463 [ 0]	141 a
    044672  a0   000003 046753
                                  4151  	ch    3,s000465 [ 0]	142 b
    044673  a0   000003 046755
                                  4152  	ch    3,s000467 [ 0]	143 c
    044674  a0   000003 046757
                                  4153  	ch    3,s000471 [ 0]	144 d
    044675  a0   000003 046761
                                  4154  	ch    3,s000473 [ 0]	145 e
    044676  a0   000003 046763
                                  4155  	ch    3,s000475 [ 0]	146 f
    044677  a0   000003 046765
                                  4156  	ch    3,s000477 [ 0]	147 g
    044700  a0   000003 046767
                                  4157  	ch    3,s000501 [ 0]	150 h
    044701  a0   000003 046771
                                  4158  	ch    3,s000503 [ 0]	151 i
    044702  a0   000003 046773
                                  4159  	ch    3,s000505 [ 0]	152 j
    044703  a0   000003 046775
                                  4160  	ch    3,s000507 [ 0]	153 k
    044704  a0   000003 046777
                                  4161  	ch    3,s000511 [ 0]	154 l
    044705  a0   000003 047001
                                  4162  	ch    3,s000513 [ 0]	155 m
    044706  a0   000003 047003
                                  4163  	ch    3,s000515 [ 0]	156 n
    044707  a0   000003 047005
                                  4164  	ch    3,s000517 [ 0]	157 o
    044710  a0   000003 047007
                                  4165  	ch    3,s000521 [ 0]	160 p
    044711  a0   000003 047011
                                  4166  	ch    3,s000523 [ 0]	161 q
    044712  a0   000003 047013
                                  4167  	ch    3,s000525 [ 0]	162 r
    044713  a0   000003 047015
                                  4168  	ch    3,s000527 [ 0]	163 s
    044714  a0   000003 047017
                                  4169  	ch    3,s000531 [ 0]	164 t
    044715  a0   000003 047021
                                  4170  	ch    3,s000533 [ 0]	165 u
    044716  a0   000003 047023
                                  4171  	ch    3,s000535 [ 0]	166 v
    044717  a0   000003 047025
                                  4172  	ch    3,s000537 [ 0]	167 w
    044720  a0   000003 047027
                                  4173  	ch    3,s000541 [ 0]	170 x
    044721  a0   000003 047031
                                  4174  	ch    3,s000543 [ 0]	171 y
    044722  a0   000003 047033
                                  4175  	ch    3,s000545 [ 0]	172 z
    044723  a0   000003 047035
                                  4176  	no_ch (4)
                                  4177  	ch    3,s000661 [ 0]	177 PAD
    044730  a0   000003 047151
                                  4178  	no_ch (29)
                                  4179  	ch    3,s000663 [ 0]	235
    044766  a0   000003 047153
                                  4180  	ch    3,s000665 [ 0]	236
    044767  a0   000003 047155
                                  4181  	ch    3,s000667 [ 0]	237
    044770  a0   000003 047157
                                  4182  	no_ch (12)
                                  4183  	ch    3,s002334 [ 0]	254 nabla
    045005  a0   000003 050624
                                  4184  	no_ch (4)
                                  4185  	ch    3,s002310 [ 0]	261 dagger
    045012  a0   000003 050600
                                  4186  	no_ch (13)
                                  4187  	ch    3,s000002 [ 0]	277
    045030  a0   000003 046650
                                  4188  	no_ch (1)
                                  4189  	ch    3,s002316 [ 0]	301 dbl dagger
    045032  a0   000003 050606
                                  4190  	no_ch (1)
                                  4191  	ch    3,s002227 [ 0]	303 copyright
    045034  a0   000003 050517
                                  4192  	ch    3,s002325 [ 0]	304 delta
    045035  a0   000003 050615
                                  4193  	no_ch (8)
                                  4194  	ch    3,s001572 [ 0]	315 bullet
    045046  a0   000003 050062
                                  4195  	no_ch (6)
                                  4196  	ch    3,s002255 [ 0]	324
    045055  a0   000003 050545
                                  4197  	no_ch (40)
                                  4198  	ch    3,s000671 [ 0]	375 square
    045126  a0   000003 047161
                                  4199  	no_ch (12)
                                  4200  	ch    3,s000675 [ 0]	412 EM
    045143  a0   000003 047165
                                  4201  	ch    3,s000702 [ 0]	413 EM _dash
    045144  a0   000003 047172
                                  4202  	ch    3,s000361 [ 0]	414 EN
    045145  a0   000003 046651
                                  4203  	ch    3,s000557 [ 0]	415 EN _dash
    045146  a0   000003 047047
                                  4204  	no_ch (1)
                                  4205  	ch    3,s000677 [ 0]	417 thin space
    045150  a0   000003 047167
                                  4206  	no_ch (3)
                                  4207  	ch    3,s001626 [ 0]	423 1hi X
    045154  a0   000003 050116
                                  4208  	ch    3,s001666 [ 0]	424
    045155  a0   000003 050156
                                  4209  	ch    3,s001717 [ 0]	425 v|
    045156  a0   000003 050207
                                  4210  	ch    3,s002070 [ 0]	426
    045157  a0   000003 050360
                                  4211  	ch    3,s002034 [ 0]	427 dia left
    045160  a0   000003 050324
                                  4212  	ch    3,s001645 [ 0]	430 delete mark
    045161  a0   000003 050135
                                  4213  	ch    3,s002052 [ 0]	431 dia right
    045162  a0   000003 050342
                                  4214  	ch    3,s002023 [ 0]	432 dia top
    045163  a0   000003 050313
                                  4215  	ch    3,s001761 [ 0]	433 <
    045164  a0   000003 050251
                                  4216  	ch    3,s001401 [ 0]	434 1hi {
    045165  a0   000003 047671
                                  4217  	ch    3,s001327 [ 0]	435 1hi [
    045166  a0   000003 047617
                                  4218  	ch    3,s002136 [ 0]	436 left circle
    045167  a0   000003 050426
                                  4219  	ch    3,s001453 [ 0]	437
    045170  a0   000003 047743
                                  4220  	ch    3,s002002 [ 0]	440 ->
    045171  a0   000003 050272
                                  4221  	ch    3,s001425 [ 0]	441 1hi }
    045172  a0   000003 047715
                                  4222  	ch    3,s001353 [ 0]	442 1hi ]
    045173  a0   000003 047643
                                  4223  	ch    3,s002171 [ 0]	443 right circle
    045174  a0   000003 050461
                                  4224  	ch    3,s001476 [ 0]	444
    045175  a0   000003 047766
                                  4225  	ch    3,s001734 [ 0]	445 ^|
    045176  a0   000003 050224
                                  4226  	no_ch (1)
                                  4227  	ch    3,s000704 [ 0]	447
    045200  a0   000003 047174
                                  4228  	ch    3,s001025 [ 0]	450
    045201  a0   000003 047315
                                  4229  	ch    3,s000772 [ 0]	451
    045202  a0   000003 047262
                                  4230  	ch    3,s001235 [ 0]	452
    045203  a0   000003 047525
                                  4231  	ch    3,s001147 [ 0]	453
    045204  a0   000003 047437
                                  4232  	ch    3,s000772 [ 0]	454
    045205  a0   000003 047262
                                  4233  	ch    3,s000721 [ 0]	455
    045206  a0   000003 047211
                                  4234  	ch    3,s001036 [ 0]	456
    045207  a0   000003 047326
                                  4235  	ch    3,s000772 [ 0]	457
    045210  a0   000003 047262
                                  4236  	ch    3,s001254 [ 0]	460
    045211  a0   000003 047544
                                  4237  	ch    3,s001160 [ 0]	461
    045212  a0   000003 047450
                                  4238  	ch    3,s000772 [ 0]	462
    045213  a0   000003 047262
                                  4239  	ch    3,s000740 [ 0]	463
    045214  a0   000003 047230
                                  4240  	ch    3,s001051 [ 0]	464
    045215  a0   000003 047341
                                  4241  	ch    3,s001115 [ 0]	465
    045216  a0   000003 047405
                                  4242  	ch    3,s001273 [ 0]	466
    045217  a0   000003 047563
                                  4243  	ch    3,s001171 [ 0]	467
    045220  a0   000003 047461
                                  4244  	ch    3,s000772 [ 0]	470
    045221  a0   000003 047262
                                  4245  	ch    3,s000754 [ 0]	471
    045222  a0   000003 047244
                                  4246  	ch    3,s001061 [ 0]	472
    045223  a0   000003 047351
                                  4247  	ch    3,s001132 [ 0]	473
    045224  a0   000003 047422
                                  4248  	ch    3,s001311 [ 0]	474
    045225  a0   000003 047601
                                  4249  	ch    3,s001202 [ 0]	475
    045226  a0   000003 047472
                                  4250  	ch    3,s000772 [ 0]	476
    045227  a0   000003 047262
                                  4251  	ch    3,s000740 [ 0]	477
    045230  a0   000003 047230
                                  4252  	ch    3,s001051 [ 0]	500
    045231  a0   000003 047341
                                  4253  	ch    3,s000772 [ 0]	501
    045232  a0   000003 047262
                                  4254  	ch    3,s001273 [ 0]	502
    045233  a0   000003 047563
                                  4255  	ch    3,s001171 [ 0]	503
    045234  a0   000003 047461
                                  4256  	ch    3,s000772 [ 0]	504
    045235  a0   000003 047262
                                  4257  	ch    3,s000754 [ 0]	505
    045236  a0   000003 047244
                                  4258  	ch    3,s001061 [ 0]	506
    045237  a0   000003 047351
                                  4259  	ch    3,s000772 [ 0]	507
    045240  a0   000003 047262
                                  4260  	ch    3,s001311 [ 0]	510
    045241  a0   000003 047601
                                  4261  	ch    3,s001202 [ 0]	511
    045242  a0   000003 047472
                                  4262  	ch    3,s000772 [ 0]	512
    045243  a0   000003 047262
                                  4263  	ch    3,s000772 [ 0]	513
    045244  a0   000003 047262
                                  4264  	ch    3,s001073 [ 0]	514
    045245  a0   000003 047363
                                  4265  	ch    3,s000772 [ 0]	515
    045246  a0   000003 047262
                                  4266  	ch    3,s000772 [ 0]	516
    045247  a0   000003 047262
                                  4267  	ch    3,s001213 [ 0]	517
    045250  a0   000003 047503
                                  4268  	ch    3,s000772 [ 0]	520
    045251  a0   000003 047262
                                  4269  	ch    3,s001006 [ 0]	521
    045252  a0   000003 047276
                                  4270  	ch    3,s001103 [ 0]	522
    045253  a0   000003 047373
                                  4271  	ch    3,s001006 [ 0]	523
    045254  a0   000003 047276
                                  4272  	ch    3,s001006 [ 0]	524
    045255  a0   000003 047276
                                  4273  	ch    3,s001221 [ 0]	525
    045256  a0   000003 047511
                                  4274  	ch    3,s001006 [ 0]	526
    045257  a0   000003 047276
                                  4275  	ch    3,s001523 [ 0]	527
    045260  a0   000003 050013
                                  4276  	ch    3,s001543 [ 0]	530
    045261  a0   000003 050033
                                  4277  	ch    3,s001610 [ 0]	531
    045262  a0   000003 050100
                                  4278  	ch    3,s001705 [ 0]	532
    045263  a0   000003 050175
                                  4279  	no_ch (1)
                                  4280  	ch    3,s001754 [ 0]	534
    045265  a0   000003 050244
                                  4281  	no_ch (1)
                                  4282  	ch    3,s002104 [ 0]	536
    045267  a0   000003 050374
                                  4283  	ch    3,s002121 [ 0]	537
    045270  a0   000003 050411
    045271                        4284  opu.14:
                                  4285  	oput.data_ct	351
    045271  aa   000000 000537
                                  4286  	no_ch (32)
                                  4287  	ch    3,s000361 [ 4]	040 SP
    045332  a0   000003 046651
                                  4288  	ch    3,s003027 [ 0]	041 !
    045333  a0   000003 051317
                                  4289  	ch    3,s003031 [ 0]	042 "
    045334  a0   000003 051321
                                  4290  	ch    3,s003033 [ 0]	043 #
    045335  a0   000003 051323
                                  4291  	ch    3,s003035 [ 0]	044 $
    045336  a0   000003 051325
                                  4292  	ch    3,s003037 [ 0]	045 %
    045337  a0   000003 051327
                                  4293  	ch    3,s003041 [ 0]	046 &
    045340  a0   000003 051331
                                  4294  	ch    3,s003043 [ 0]	047 '
    045341  a0   000003 051333
                                  4295  	ch    3,s003045 [ 0]	050 Lp
    045342  a0   000003 051335
                                  4296  	ch    3,s003047 [ 0]	051 Rp
    045343  a0   000003 051337
                                  4297  	ch    3,s003051 [ 0]	052 *
    045344  a0   000003 051341
                                  4298  	ch    3,s003053 [ 0]	053 +
    045345  a0   000003 051343
                                  4299  	ch    3,s003055 [ 0]	054 ,
    045346  a0   000003 051345
                                  4300  	ch    3,s003057 [ 0]	055 -
    045347  a0   000003 051347
                                  4301  	ch    3,s003061 [ 0]	056 .
    045350  a0   000003 051351
                                  4302  	ch    3,s003063 [ 0]	057 /
    045351  a0   000003 051353
                                  4303  	ch    3,s003065 [ 0]	060 0
    045352  a0   000003 051355
                                  4304  	ch    3,s003067 [ 0]	061 1
    045353  a0   000003 051357
                                  4305  	ch    3,s003071 [ 0]	062 2
    045354  a0   000003 051361
                                  4306  	ch    3,s003073 [ 0]	063 3
    045355  a0   000003 051363
                                  4307  	ch    3,s003075 [ 0]	064 4
    045356  a0   000003 051365
                                  4308  	ch    3,s003077 [ 0]	065 5
    045357  a0   000003 051367
                                  4309  	ch    3,s003101 [ 0]	066 6
    045360  a0   000003 051371
                                  4310  	ch    3,s003103 [ 0]	067 7
    045361  a0   000003 051373
                                  4311  	ch    3,s003105 [ 0]	070 8
    045362  a0   000003 051375
                                  4312  	ch    3,s003107 [ 0]	071 9
    045363  a0   000003 051377
                                  4313  	ch    3,s003111 [ 0]	072 :
    045364  a0   000003 051401
                                  4314  	ch    3,s003113 [ 0]	073 ;
    045365  a0   000003 051403
                                  4315  	ch    3,s003115 [ 0]	074 <
    045366  a0   000003 051405
                                  4316  	ch    3,s003117 [ 0]	075 =
    045367  a0   000003 051407
                                  4317  	ch    3,s003121 [ 0]	076 >
    045370  a0   000003 051411
                                  4318  	ch    3,s003123 [ 0]	077 ?
    045371  a0   000003 051413
                                  4319  	ch    3,s003125 [ 0]	100 @
    045372  a0   000003 051415
                                  4320  	ch    3,s003127 [ 0]	101 A
    045373  a0   000003 051417
                                  4321  	ch    3,s003131 [ 0]	102 B
    045374  a0   000003 051421
                                  4322  	ch    3,s003133 [ 0]	103 C
    045375  a0   000003 051423
                                  4323  	ch    3,s003135 [ 0]	104 D
    045376  a0   000003 051425
                                  4324  	ch    3,s003137 [ 0]	105 E
    045377  a0   000003 051427
                                  4325  	ch    3,s003141 [ 0]	106 F
    045400  a0   000003 051431
                                  4326  	ch    3,s003143 [ 0]	107 G
    045401  a0   000003 051433
                                  4327  	ch    3,s003145 [ 0]	110 H
    045402  a0   000003 051435
                                  4328  	ch    3,s003147 [ 0]	111 I
    045403  a0   000003 051437
                                  4329  	ch    3,s003151 [ 0]	112 J
    045404  a0   000003 051441
                                  4330  	ch    3,s003153 [ 0]	113 K
    045405  a0   000003 051443
                                  4331  	ch    3,s003155 [ 0]	114 L
    045406  a0   000003 051445
                                  4332  	ch    3,s003157 [ 0]	115 M
    045407  a0   000003 051447
                                  4333  	ch    3,s003161 [ 0]	116 N
    045410  a0   000003 051451
                                  4334  	ch    3,s003163 [ 0]	117 O
    045411  a0   000003 051453
                                  4335  	ch    3,s003165 [ 0]	120 P
    045412  a0   000003 051455
                                  4336  	ch    3,s003167 [ 0]	121 Q
    045413  a0   000003 051457
                                  4337  	ch    3,s003171 [ 0]	122 R
    045414  a0   000003 051461
                                  4338  	ch    3,s003173 [ 0]	123 S
    045415  a0   000003 051463
                                  4339  	ch    3,s003175 [ 0]	124 T
    045416  a0   000003 051465
                                  4340  	ch    3,s003177 [ 0]	125 U
    045417  a0   000003 051467
                                  4341  	ch    3,s003201 [ 0]	126 V
    045420  a0   000003 051471
                                  4342  	ch    3,s003203 [ 0]	127 W
    045421  a0   000003 051473
                                  4343  	ch    3,s003205 [ 0]	130 X
    045422  a0   000003 051475
                                  4344  	ch    3,s003207 [ 0]	131 Y
    045423  a0   000003 051477
                                  4345  	ch    3,s003211 [ 0]	132 Z
    045424  a0   000003 051501
                                  4346  	ch    3,s003213 [ 0]	133 [
    045425  a0   000003 051503
                                  4347  	ch    3,s003215 [ 0]	134 \
    045426  a0   000003 051505
                                  4348  	ch    3,s003217 [ 0]	135 ]
    045427  a0   000003 051507
                                  4349  	ch    3,s003221 [ 0]	136 ^
    045430  a0   000003 051511
                                  4350  	ch    3,s003223 [ 0]	137 _
    045431  a0   000003 051513
                                  4351  	ch    3,s003225 [ 0]	140 `
    045432  a0   000003 051515
                                  4352  	ch    3,s003227 [ 0]	141 a
    045433  a0   000003 051517
                                  4353  	ch    3,s003231 [ 0]	142 b
    045434  a0   000003 051521
                                  4354  	ch    3,s003233 [ 0]	143 c
    045435  a0   000003 051523
                                  4355  	ch    3,s000663 [ 0]	144 d
    045436  a0   000003 047153
                                  4356  	ch    3,s003235 [ 0]	145 e
    045437  a0   000003 051525
                                  4357  	ch    3,s003237 [ 0]	146 f
    045440  a0   000003 051527
                                  4358  	ch    3,s003241 [ 0]	147 g
    045441  a0   000003 051531
                                  4359  	ch    3,s003243 [ 0]	150 h
    045442  a0   000003 051533
                                  4360  	ch    3,s003245 [ 0]	151 i
    045443  a0   000003 051535
                                  4361  	ch    3,s003247 [ 0]	152 j
    045444  a0   000003 051537
                                  4362  	ch    3,s003251 [ 0]	153 k
    045445  a0   000003 051541
                                  4363  	ch    3,s003253 [ 0]	154 l
    045446  a0   000003 051543
                                  4364  	ch    3,s003255 [ 0]	155 m
    045447  a0   000003 051545
                                  4365  	ch    3,s000665 [ 0]	156 n
    045450  a0   000003 047155
                                  4366  	ch    3,s003257 [ 0]	157 o
    045451  a0   000003 051547
                                  4367  	ch    3,s003261 [ 0]	160 p
    045452  a0   000003 051551
                                  4368  	ch    3,s003263 [ 0]	161 q
    045453  a0   000003 051553
                                  4369  	ch    3,s003265 [ 0]	162 r
    045454  a0   000003 051555
                                  4370  	ch    3,s003267 [ 0]	163 s
    045455  a0   000003 051557
                                  4371  	ch    3,s003271 [ 0]	164 t
    045456  a0   000003 051561
                                  4372  	ch    3,s003273 [ 0]	165 u
    045457  a0   000003 051563
                                  4373  	ch    3,s003275 [ 0]	166 v
    045460  a0   000003 051565
                                  4374  	ch    3,s003277 [ 0]	167 w
    045461  a0   000003 051567
                                  4375  	ch    3,s000667 [ 0]	170 x
    045462  a0   000003 047157
                                  4376  	ch    3,s003301 [ 0]	171 y
    045463  a0   000003 051571
                                  4377  	ch    3,s003303 [ 0]	172 z
    045464  a0   000003 051573
                                  4378  	ch    3,s003305 [ 0]	173 {
    045465  a0   000003 051575
                                  4379  	ch    3,s003307 [ 0]	174 |
    045466  a0   000003 051577
                                  4380  	ch    3,s003311 [ 0]	175 }
    045467  a0   000003 051601
                                  4381  	ch    3,s003313 [ 0]	176 ~
    045470  a0   000003 051603
                                  4382  	ch    3,s000661 [ 0]	177 PAD
    045471  a0   000003 047151
                                  4383  	no_ch (29)
                                  4384  	ch    3,s000663 [ 0]	235
    045527  a0   000003 047153
                                  4385  	ch    3,s000665 [ 0]	236
    045530  a0   000003 047155
                                  4386  	ch    3,s000667 [ 0]	237
    045531  a0   000003 047157
                                  4387  	ch    3,s004045 [ 0]	240
    045532  a0   000003 052335
                                  4388  	no_ch (11)
                                  4389  	ch    3,s002334 [ 0]	254 nabla
    045546  a0   000003 050624
                                  4390  	ch    3,s004051 [ 0]	255 EMdash
    045547  a0   000003 052341
                                  4391  	no_ch (3)
                                  4392  	ch    3,s002310 [ 0]	261 dagger
    045553  a0   000003 050600
                                  4393  	no_ch (13)
                                  4394  	ch    3,s000002 [ 0]	277
    045571  a0   000003 046650
                                  4395  	no_ch (1)
                                  4396  	ch    3,s002316 [ 0]	301 dbl dagger
    045573  a0   000003 050606
                                  4397  	no_ch (1)
                                  4398  	ch    3,s002227 [ 0]	303 copyright
    045575  a0   000003 050517
                                  4399  	ch    3,s002325 [ 0]	304 delta
    045576  a0   000003 050615
                                  4400  	no_ch (8)
                                  4401  	ch    3,s001572 [ 0]	315 bullet
    045607  a0   000003 050062
                                  4402  	no_ch (6)
                                  4403  	ch    3,s002255 [ 0]	324
    045616  a0   000003 050545
                                  4404  	no_ch (40)
                                  4405  	ch    3,s000671 [ 0]	375 square
    045667  a0   000003 047161
                                  4406  	no_ch (12)
                                  4407  	ch    3,s000675 [ 0]	412 EM
    045704  a0   000003 047165
                                  4408  	ch    3,s000702 [ 0]	413 EM _dash
    045705  a0   000003 047172
                                  4409  	ch    3,s000361 [ 0]	414 EN
    045706  a0   000003 046651
                                  4410  	ch    3,s000557 [ 0]	415 EN _dash
    045707  a0   000003 047047
                                  4411  	ch    3,s003057 [ 0]	416 EN dash
    045710  a0   000003 051347
                                  4412  	ch    3,s000677 [ 0]	417 thin space
    045711  a0   000003 047167
                                  4413  	ch    3,s003057 [ 0]	420 hyphen
    045712  a0   000003 051347
                                  4414  	ch    3,s003031 [ 0]	421 ``
    045713  a0   000003 051321
                                  4415  	ch    3,s003031 [ 0]	422 ''
    045714  a0   000003 051321
                                  4416  	ch    3,s001626 [ 0]	423 1hi X
    045715  a0   000003 050116
                                  4417  	ch    3,s001666 [ 0]	424
    045716  a0   000003 050156
                                  4418  	ch    3,s001717 [ 0]	425 v|
    045717  a0   000003 050207
                                  4419  	ch    3,s002070 [ 0]	426
    045720  a0   000003 050360
                                  4420  	ch    3,s002034 [ 0]	427 dia left
    045721  a0   000003 050324
                                  4421  	ch    3,s001645 [ 0]	430 delete mark
    045722  a0   000003 050135
                                  4422  	ch    3,s002052 [ 0]	431 dia right
    045723  a0   000003 050342
                                  4423  	ch    3,s002023 [ 0]	432 dia top
    045724  a0   000003 050313
                                  4424  	ch    3,s001761 [ 0]	433 <
    045725  a0   000003 050251
                                  4425  	ch    3,s001401 [ 0]	434 1hi {
    045726  a0   000003 047671
                                  4426  	ch    3,s001327 [ 0]	435 1hi [
    045727  a0   000003 047617
                                  4427  	ch    3,s002136 [ 0]	436 left circle
    045730  a0   000003 050426
                                  4428  	ch    3,s001453 [ 0]	437
    045731  a0   000003 047743
                                  4429  	ch    3,s002002 [ 0]	440 ->
    045732  a0   000003 050272
                                  4430  	ch    3,s001425 [ 0]	441 1hi }
    045733  a0   000003 047715
                                  4431  	ch    3,s001353 [ 0]	442 1hi ]
    045734  a0   000003 047643
                                  4432  	ch    3,s002171 [ 0]	443 right circle
    045735  a0   000003 050461
                                  4433  	ch    3,s001476 [ 0]	444
    045736  a0   000003 047766
                                  4434  	ch    3,s001734 [ 0]	445 ^|
    045737  a0   000003 050224
                                  4435  	no_ch (1)
                                  4436  	ch    3,s000704 [ 0]	447
    045741  a0   000003 047174
                                  4437  	ch    3,s001025 [ 0]	450
    045742  a0   000003 047315
                                  4438  	ch    3,s000772 [ 0]	451
    045743  a0   000003 047262
                                  4439  	ch    3,s001235 [ 0]	452
    045744  a0   000003 047525
                                  4440  	ch    3,s001147 [ 0]	453
    045745  a0   000003 047437
                                  4441  	ch    3,s000772 [ 0]	454
    045746  a0   000003 047262
                                  4442  	ch    3,s000721 [ 0]	455
    045747  a0   000003 047211
                                  4443  	ch    3,s001036 [ 0]	456
    045750  a0   000003 047326
                                  4444  	ch    3,s000772 [ 0]	457
    045751  a0   000003 047262
                                  4445  	ch    3,s001254 [ 0]	460
    045752  a0   000003 047544
                                  4446  	ch    3,s001160 [ 0]	461
    045753  a0   000003 047450
                                  4447  	ch    3,s000772 [ 0]	462
    045754  a0   000003 047262
                                  4448  	ch    3,s000740 [ 0]	463
    045755  a0   000003 047230
                                  4449  	ch    3,s001051 [ 0]	464
    045756  a0   000003 047341
                                  4450  	ch    3,s001115 [ 0]	465
    045757  a0   000003 047405
                                  4451  	ch    3,s001273 [ 0]	466
    045760  a0   000003 047563
                                  4452  	ch    3,s001171 [ 0]	467
    045761  a0   000003 047461
                                  4453  	ch    3,s000772 [ 0]	470
    045762  a0   000003 047262
                                  4454  	ch    3,s000754 [ 0]	471
    045763  a0   000003 047244
                                  4455  	ch    3,s001061 [ 0]	472
    045764  a0   000003 047351
                                  4456  	ch    3,s001132 [ 0]	473
    045765  a0   000003 047422
                                  4457  	ch    3,s001311 [ 0]	474
    045766  a0   000003 047601
                                  4458  	ch    3,s001202 [ 0]	475
    045767  a0   000003 047472
                                  4459  	ch    3,s000772 [ 0]	476
    045770  a0   000003 047262
                                  4460  	ch    3,s000740 [ 0]	477
    045771  a0   000003 047230
                                  4461  	ch    3,s001051 [ 0]	500
    045772  a0   000003 047341
                                  4462  	ch    3,s000772 [ 0]	501
    045773  a0   000003 047262
                                  4463  	ch    3,s001273 [ 0]	502
    045774  a0   000003 047563
                                  4464  	ch    3,s001171 [ 0]	503
    045775  a0   000003 047461
                                  4465  	ch    3,s000772 [ 0]	504
    045776  a0   000003 047262
                                  4466  	ch    3,s000754 [ 0]	505
    045777  a0   000003 047244
                                  4467  	ch    3,s001061 [ 0]	506
    046000  a0   000003 047351
                                  4468  	ch    3,s000772 [ 0]	507
    046001  a0   000003 047262
                                  4469  	ch    3,s001311 [ 0]	510
    046002  a0   000003 047601
                                  4470  	ch    3,s001202 [ 0]	511
    046003  a0   000003 047472
                                  4471  	ch    3,s000772 [ 0]	512
    046004  a0   000003 047262
                                  4472  	ch    3,s000772 [ 0]	513
    046005  a0   000003 047262
                                  4473  	ch    3,s001073 [ 0]	514
    046006  a0   000003 047363
                                  4474  	ch    3,s000772 [ 0]	515
    046007  a0   000003 047262
                                  4475  	ch    3,s000772 [ 0]	516
    046010  a0   000003 047262
                                  4476  	ch    3,s001213 [ 0]	517
    046011  a0   000003 047503
                                  4477  	ch    3,s000772 [ 0]	520
    046012  a0   000003 047262
                                  4478  	ch    3,s001006 [ 0]	521
    046013  a0   000003 047276
                                  4479  	ch    3,s001103 [ 0]	522
    046014  a0   000003 047373
                                  4480  	ch    3,s001006 [ 0]	523
    046015  a0   000003 047276
                                  4481  	ch    3,s001006 [ 0]	524
    046016  a0   000003 047276
                                  4482  	ch    3,s001221 [ 0]	525
    046017  a0   000003 047511
                                  4483  	ch    3,s001006 [ 0]	526
    046020  a0   000003 047276
                                  4484  	ch    3,s001523 [ 0]	527
    046021  a0   000003 050013
                                  4485  	ch    3,s001543 [ 0]	530
    046022  a0   000003 050033
                                  4486  	ch    3,s001610 [ 0]	531
    046023  a0   000003 050100
                                  4487  	ch    3,s001705 [ 0]	532
    046024  a0   000003 050175
                                  4488  	no_ch (1)
                                  4489  	ch    3,s001754 [ 0]	534
    046026  a0   000003 050244
                                  4490  	no_ch (1)
                                  4491  	ch    3,s002104 [ 0]	536
    046030  a0   000003 050374
                                  4492  	ch    3,s002121 [ 0]	537
    046031  a0   000003 050411
    046032                        4493  opu.15:
                                  4494  	oput.data_ct	122
    046032  aa   000000 000172
                                  4495  	no_ch (32)
                                  4496  	ch    3,s000361 [ 4]	040 SP
    046073  a0   000003 046651
                                  4497  	no_ch (64)
                                  4498  	ch    3,s003127 [ 0]	141 a
    046174  a0   000003 051417
                                  4499  	ch    3,s003131 [ 0]	142 b
    046175  a0   000003 051421
                                  4500  	ch    3,s003133 [ 0]	143 c
    046176  a0   000003 051423
                                  4501  	ch    3,s003135 [ 0]	144 d
    046177  a0   000003 051425
                                  4502  	ch    3,s003137 [ 0]	145 e
    046200  a0   000003 051427
                                  4503  	ch    3,s003141 [ 0]	146 f
    046201  a0   000003 051431
                                  4504  	ch    3,s003143 [ 0]	147 g
    046202  a0   000003 051433
                                  4505  	ch    3,s003145 [ 0]	150 h
    046203  a0   000003 051435
                                  4506  	ch    3,s003147 [ 0]	151 i
    046204  a0   000003 051437
                                  4507  	ch    3,s003151 [ 0]	152 j
    046205  a0   000003 051441
                                  4508  	ch    3,s003153 [ 0]	153 k
    046206  a0   000003 051443
                                  4509  	ch    3,s003155 [ 0]	154 l
    046207  a0   000003 051445
                                  4510  	ch    3,s003157 [ 0]	155 m
    046210  a0   000003 051447
                                  4511  	ch    3,s003161 [ 0]	156 n
    046211  a0   000003 051451
                                  4512  	ch    3,s003163 [ 0]	157 o
    046212  a0   000003 051453
                                  4513  	ch    3,s003165 [ 0]	160 p
    046213  a0   000003 051455
                                  4514  	ch    3,s003167 [ 0]	161 q
    046214  a0   000003 051457
                                  4515  	ch    3,s003171 [ 0]	162 r
    046215  a0   000003 051461
                                  4516  	ch    3,s003173 [ 0]	163 s
    046216  a0   000003 051463
                                  4517  	ch    3,s003175 [ 0]	164 t
    046217  a0   000003 051465
                                  4518  	ch    3,s003177 [ 0]	165 u
    046220  a0   000003 051467
                                  4519  	ch    3,s003201 [ 0]	166 v
    046221  a0   000003 051471
                                  4520  	ch    3,s003203 [ 0]	167 w
    046222  a0   000003 051473
                                  4521  	ch    3,s003205 [ 0]	170 x
    046223  a0   000003 051475
                                  4522  	ch    3,s003207 [ 0]	171 y
    046224  a0   000003 051477
                                  4523  	ch    3,s003211 [ 0]	172 z
    046225  a0   000003 051501
    046226                        4524  opu.16:
                                  4525  	oput.data_ct	32
    046226  aa   000000 000040
                                  4526  	no_ch (32)
                                  4527  	ch    2,s000361 [ 4]	040 SP
    046267  a0   000002 046651
    046270                        4528  opu.17:
                                  4529  	oput.data_ct	32
    046270  aa   000000 000040
                                  4530  	no_ch (32)
                                  4531  	ch    2,s000361 [ 4]	040 SP
    046331  a0   000002 046651
    046332                        4532  opu.18:
                                  4533  	oput.data_ct	32
    046332  aa   000000 000040
                                  4534  	no_ch (32)
                                  4535  	ch    2,s000361 [ 4]	040 SP
    046373  a0   000002 046651
    046374                        4536  opu.19:
                                  4537  	oput.data_ct	32
    046374  aa   000000 000040
                                  4538  	no_ch (32)
                                  4539  	ch    2,s000361 [ 4]	040 SP
    046435  a0   000002 046651
    046436                        4540  opu.20:
                                  4541  	oput.data_ct	32
    046436  aa   000000 000040
                                  4542  	no_ch (32)
                                  4543  	ch    3,s000361 [ 4]	040 SP
    046477  a0   000003 046651
    046500                        4544  opu.21:
                                  4545  	oput.data_ct	32
    046500  aa   000000 000040
                                  4546  	no_ch (32)
                                  4547  	ch    3,s000361 [ 4]	040 SP
    046541  a0   000003 046651
    046542                        4548  opu.22:
                                  4549  	oput.data_ct	32
    046542  aa   000000 000040
                                  4550  	no_ch (32)
                                  4551  	ch    3,s000361 [ 4]	040 SP
    046603  a0   000003 046651
    046604                        4552  opu.23:
                                  4553  	oput.data_ct	32
    046604  aa   000000 000040
                                  4554  	no_ch (32)
                                  4555  	ch    3,s000361 [ 4]	040 SP
    046645  a0   000003 046651
                                  4556
    046646                        4557  size.1:
                                  4558  	sizel.val_ct	1
    046646  aa   000000 000001
                                  4559  	sizel..val	7200
    046647  aa   000000 016040
    046650  aa   000000 000000    4560  s000002:	oct	0
    046651  aa   000000 000001    4561  s000361:	oct	1
    046652  aa   040000 000000    4562  	oct	040000000000
    046653  aa   000000 000001    4563  s000363:	oct	1
    046654  aa   041000 000000    4564  	oct	041000000000
    046655  aa   000000 000001    4565  s000365:	oct	1
    046656  aa   042000 000000    4566  	oct	042000000000
    046657  aa   000000 000001    4567  s000367:	oct	1
    046660  aa   043000 000000    4568  	oct	043000000000
    046661  aa   000000 000001    4569  s000371:	oct	1
    046662  aa   044000 000000    4570  	oct	044000000000
    046663  aa   000000 000001    4571  s000373:	oct	1
    046664  aa   045000 000000    4572  	oct	045000000000
    046665  aa   000000 000001    4573  s000375:	oct	1
    046666  aa   046000 000000    4574  	oct	046000000000
    046667  aa   000000 000001    4575  s000377:	oct	1
    046670  aa   047000 000000    4576  	oct	047000000000
    046671  aa   000000 000001    4577  s000401:	oct	1
    046672  aa   050000 000000    4578  	oct	050000000000
    046673  aa   000000 000001    4579  s000403:	oct	1
    046674  aa   051000 000000    4580  	oct	051000000000
    046675  aa   000000 000001    4581  s000405:	oct	1
    046676  aa   052000 000000    4582  	oct	052000000000
    046677  aa   000000 000001    4583  s000407:	oct	1
    046700  aa   053000 000000    4584  	oct	053000000000
    046701  aa   000000 000001    4585  s000411:	oct	1
    046702  aa   054000 000000    4586  	oct	054000000000
    046703  aa   000000 000001    4587  s000413:	oct	1
    046704  aa   055000 000000    4588  	oct	055000000000
    046705  aa   000000 000001    4589  s000415:	oct	1
    046706  aa   056000 000000    4590  	oct	056000000000
    046707  aa   000000 000001    4591  s000417:	oct	1
    046710  aa   057000 000000    4592  	oct	057000000000
    046711  aa   000000 000001    4593  s000421:	oct	1
    046712  aa   060000 000000    4594  	oct	060000000000
    046713  aa   000000 000001    4595  s000423:	oct	1
    046714  aa   061000 000000    4596  	oct	061000000000
    046715  aa   000000 000001    4597  s000425:	oct	1
    046716  aa   062000 000000    4598  	oct	062000000000
    046717  aa   000000 000001    4599  s000427:	oct	1
    046720  aa   063000 000000    4600  	oct	063000000000
    046721  aa   000000 000001    4601  s000431:	oct	1
    046722  aa   064000 000000    4602  	oct	064000000000
    046723  aa   000000 000001    4603  s000433:	oct	1
    046724  aa   065000 000000    4604  	oct	065000000000
    046725  aa   000000 000001    4605  s000435:	oct	1
    046726  aa   066000 000000    4606  	oct	066000000000
    046727  aa   000000 000001    4607  s000437:	oct	1
    046730  aa   067000 000000    4608  	oct	067000000000
    046731  aa   000000 000001    4609  s000441:	oct	1
    046732  aa   070000 000000    4610  	oct	070000000000
    046733  aa   000000 000001    4611  s000443:	oct	1
    046734  aa   071000 000000    4612  	oct	071000000000
    046735  aa   000000 000001    4613  s000445:	oct	1
    046736  aa   072000 000000    4614  	oct	072000000000
    046737  aa   000000 000001    4615  s000447:	oct	1
    046740  aa   073000 000000    4616  	oct	073000000000
    046741  aa   000000 000001    4617  s000451:	oct	1
    046742  aa   074000 000000    4618  	oct	074000000000
    046743  aa   000000 000001    4619  s000453:	oct	1
    046744  aa   075000 000000    4620  	oct	075000000000
    046745  aa   000000 000001    4621  s000455:	oct	1
    046746  aa   076000 000000    4622  	oct	076000000000
    046747  aa   000000 000001    4623  s000457:	oct	1
    046750  aa   077000 000000    4624  	oct	077000000000
    046751  aa   000000 000001    4625  s000461:	oct	1
    046752  aa   100000 000000    4626  	oct	100000000000
    046753  aa   000000 000001    4627  s000463:	oct	1
    046754  aa   101000 000000    4628  	oct	101000000000
    046755  aa   000000 000001    4629  s000465:	oct	1
    046756  aa   102000 000000    4630  	oct	102000000000
    046757  aa   000000 000001    4631  s000467:	oct	1
    046760  aa   103000 000000    4632  	oct	103000000000
    046761  aa   000000 000001    4633  s000471:	oct	1
    046762  aa   104000 000000    4634  	oct	104000000000
    046763  aa   000000 000001    4635  s000473:	oct	1
    046764  aa   105000 000000    4636  	oct	105000000000
    046765  aa   000000 000001    4637  s000475:	oct	1
    046766  aa   106000 000000    4638  	oct	106000000000
    046767  aa   000000 000001    4639  s000477:	oct	1
    046770  aa   107000 000000    4640  	oct	107000000000
    046771  aa   000000 000001    4641  s000501:	oct	1
    046772  aa   110000 000000    4642  	oct	110000000000
    046773  aa   000000 000001    4643  s000503:	oct	1
    046774  aa   111000 000000    4644  	oct	111000000000
    046775  aa   000000 000001    4645  s000505:	oct	1
    046776  aa   112000 000000    4646  	oct	112000000000
    046777  aa   000000 000001    4647  s000507:	oct	1
    047000  aa   113000 000000    4648  	oct	113000000000
    047001  aa   000000 000001    4649  s000511:	oct	1
    047002  aa   114000 000000    4650  	oct	114000000000
    047003  aa   000000 000001    4651  s000513:	oct	1
    047004  aa   115000 000000    4652  	oct	115000000000
    047005  aa   000000 000001    4653  s000515:	oct	1
    047006  aa   116000 000000    4654  	oct	116000000000
    047007  aa   000000 000001    4655  s000517:	oct	1
    047010  aa   117000 000000    4656  	oct	117000000000
    047011  aa   000000 000001    4657  s000521:	oct	1
    047012  aa   120000 000000    4658  	oct	120000000000
    047013  aa   000000 000001    4659  s000523:	oct	1
    047014  aa   121000 000000    4660  	oct	121000000000
    047015  aa   000000 000001    4661  s000525:	oct	1
    047016  aa   122000 000000    4662  	oct	122000000000
    047017  aa   000000 000001    4663  s000527:	oct	1
    047020  aa   123000 000000    4664  	oct	123000000000
    047021  aa   000000 000001    4665  s000531:	oct	1
    047022  aa   124000 000000    4666  	oct	124000000000
    047023  aa   000000 000001    4667  s000533:	oct	1
    047024  aa   125000 000000    4668  	oct	125000000000
    047025  aa   000000 000001    4669  s000535:	oct	1
    047026  aa   126000 000000    4670  	oct	126000000000
    047027  aa   000000 000001    4671  s000537:	oct	1
    047030  aa   127000 000000    4672  	oct	127000000000
    047031  aa   000000 000001    4673  s000541:	oct	1
    047032  aa   130000 000000    4674  	oct	130000000000
    047033  aa   000000 000001    4675  s000543:	oct	1
    047034  aa   131000 000000    4676  	oct	131000000000
    047035  aa   000000 000001    4677  s000545:	oct	1
    047036  aa   132000 000000    4678  	oct	132000000000
    047037  aa   000000 000001    4679  s000547:	oct	1
    047040  aa   133000 000000    4680  	oct	133000000000
    047041  aa   000000 000001    4681  s000551:	oct	1
    047042  aa   134000 000000    4682  	oct	134000000000
    047043  aa   000000 000001    4683  s000553:	oct	1
    047044  aa   135000 000000    4684  	oct	135000000000
    047045  aa   000000 000001    4685  s000555:	oct	1
    047046  aa   136000 000000    4686  	oct	136000000000
    047047  aa   000000 000001    4687  s000557:	oct	1
    047050  aa   137000 000000    4688  	oct	137000000000
    047051  aa   000000 000001    4689  s000561:	oct	1
    047052  aa   140000 000000    4690  	oct	140000000000
    047053  aa   000000 000001    4691  s000563:	oct	1
    047054  aa   141000 000000    4692  	oct	141000000000
    047055  aa   000000 000001    4693  s000565:	oct	1
    047056  aa   142000 000000    4694  	oct	142000000000
    047057  aa   000000 000001    4695  s000567:	oct	1
    047060  aa   143000 000000    4696  	oct	143000000000
    047061  aa   000000 000001    4697  s000571:	oct	1
    047062  aa   144000 000000    4698  	oct	144000000000
    047063  aa   000000 000001    4699  s000573:	oct	1
    047064  aa   145000 000000    4700  	oct	145000000000
    047065  aa   000000 000001    4701  s000575:	oct	1
    047066  aa   146000 000000    4702  	oct	146000000000
    047067  aa   000000 000001    4703  s000577:	oct	1
    047070  aa   147000 000000    4704  	oct	147000000000
    047071  aa   000000 000001    4705  s000601:	oct	1
    047072  aa   150000 000000    4706  	oct	150000000000
    047073  aa   000000 000001    4707  s000603:	oct	1
    047074  aa   151000 000000    4708  	oct	151000000000
    047075  aa   000000 000001    4709  s000605:	oct	1
    047076  aa   152000 000000    4710  	oct	152000000000
    047077  aa   000000 000001    4711  s000607:	oct	1
    047100  aa   153000 000000    4712  	oct	153000000000
    047101  aa   000000 000001    4713  s000611:	oct	1
    047102  aa   154000 000000    4714  	oct	154000000000
    047103  aa   000000 000001    4715  s000613:	oct	1
    047104  aa   155000 000000    4716  	oct	155000000000
    047105  aa   000000 000001    4717  s000615:	oct	1
    047106  aa   156000 000000    4718  	oct	156000000000
    047107  aa   000000 000001    4719  s000617:	oct	1
    047110  aa   157000 000000    4720  	oct	157000000000
    047111  aa   000000 000001    4721  s000621:	oct	1
    047112  aa   160000 000000    4722  	oct	160000000000
    047113  aa   000000 000001    4723  s000623:	oct	1
    047114  aa   161000 000000    4724  	oct	161000000000
    047115  aa   000000 000001    4725  s000625:	oct	1
    047116  aa   162000 000000    4726  	oct	162000000000
    047117  aa   000000 000001    4727  s000627:	oct	1
    047120  aa   163000 000000    4728  	oct	163000000000
    047121  aa   000000 000001    4729  s000631:	oct	1
    047122  aa   164000 000000    4730  	oct	164000000000
    047123  aa   000000 000001    4731  s000633:	oct	1
    047124  aa   165000 000000    4732  	oct	165000000000
    047125  aa   000000 000001    4733  s000635:	oct	1
    047126  aa   166000 000000    4734  	oct	166000000000
    047127  aa   000000 000001    4735  s000637:	oct	1
    047130  aa   167000 000000    4736  	oct	167000000000
    047131  aa   000000 000001    4737  s000641:	oct	1
    047132  aa   170000 000000    4738  	oct	170000000000
    047133  aa   000000 000001    4739  s000643:	oct	1
    047134  aa   171000 000000    4740  	oct	171000000000
    047135  aa   000000 000001    4741  s000645:	oct	1
    047136  aa   172000 000000    4742  	oct	172000000000
    047137  aa   000000 000001    4743  s000647:	oct	1
    047140  aa   173000 000000    4744  	oct	173000000000
    047141  aa   000000 000001    4745  s000651:	oct	1
    047142  aa   174000 000000    4746  	oct	174000000000
    047143  aa   000000 000001    4747  s000653:	oct	1
    047144  aa   175000 000000    4748  	oct	175000000000
    047145  aa   000000 000001    4749  s000655:	oct	1
    047146  aa   176000 000000    4750  	oct	176000000000
    047147  aa   000000 000001    4751  s000657:	oct	1
    047150  aa   010000 000000    4752  	oct	010000000000
    047151  aa   000000 000001    4753  s000661:	oct	1
    047152  aa   177000 000000    4754  	oct	177000000000
    047153  aa   000000 000003    4755  s000663:	oct	3
    047154  aa   144010 137000    4756  	oct	144010137000
    047155  aa   000000 000003    4757  s000665:	oct	3
    047156  aa   156010 137000    4758  	oct	156010137000
    047157  aa   000000 000003    4759  s000667:	oct	3
    047160  aa   170010 137000    4760  	oct	170010137000
    047161  aa   000000 000003    4761  s000671:	oct	3
    047162  aa   132010 116000    4762  	oct	132010116000
    047163  aa   000000 000004    4763  s000673:	oct	4
    047164  aa   050124 115051    4764  	oct	050124115051
    047165  aa   000000 000002    4765  s000675:	oct	2
    047166  aa   040040 000000    4766  	oct	040040000000
    047167  aa   000000 000005    4767  s000677:	oct	5
    047170  aa   033063 040040    4768  	oct	033063040040
    047171  aa   040000 000000    4769  	oct	040000000000
    047172  aa   000000 000002    4770  s000702:	oct	2
    047173  aa   137137 000000    4771  	oct	137137000000
    047174  aa   000000 000055    4772  s000704:	oct	55
    047175  aa   033063 056033    4773  	oct	033063056033
    047176  aa   012056 033012    4774  	oct	012056033012
    047177  aa   056033 012056    4775  	oct	056033012056
    047200  aa   033012 056033    4776  	oct	033012056033
    047201  aa   012056 033012    4777  	oct	012056033012
    047202  aa   056033 012056    4778  	oct	056033012056
    047203  aa   033012 056040    4779  	oct	033012056040
    047204  aa   056040 056040    4780  	oct	056040056040
    047205  aa   056040 056012    4781  	oct	056040056012
    047206  aa   012012 012040    4782  	oct	012012012040
    047207  aa   012040 012012    4783  	oct	012040012012
    047210  aa   012000 000000    4784  	oct	012000000000
    047211  aa   000000 000065    4785  s000721:	oct	65
    047212  aa   033063 056033    4786  	oct	033063056033
    047213  aa   012056 033012    4787  	oct	012056033012
    047214  aa   056033 012056    4788  	oct	056033012056
    047215  aa   033012 056033    4789  	oct	033012056033
    047216  aa   012056 033012    4790  	oct	012056033012
    047217  aa   056033 012056    4791  	oct	056033012056
    047220  aa   033012 056010    4792  	oct	033012056010
    047221  aa   056010 056010    4793  	oct	056010056010
    047222  aa   056010 056012    4794  	oct	056010056012
    047223  aa   012012 012040    4795  	oct	012012012040
    047224  aa   012040 012040    4796  	oct	012040012040
    047225  aa   012040 012040    4797  	oct	012040012040
    047226  aa   040040 040040    4798  	oct	040040040040
    047227  aa   040000 000000    4799  	oct	040000000000
    047230  aa   000000 000053    4800  s000740:	oct	53
    047231  aa   033063 056033    4801  	oct	033063056033
    047232  aa   012056 033012    4802  	oct	012056033012
    047233  aa   056033 012056    4803  	oct	056033012056
    047234  aa   033012 056033    4804  	oct	033012056033
    047235  aa   012056 033012    4805  	oct	012056033012
    047236  aa   056040 033012    4806  	oct	056040033012
    047237  aa   056040 033012    4807  	oct	056040033012
    047240  aa   056040 056040    4808  	oct	056040056040
    047241  aa   056012 012012    4809  	oct	056012012012
    047242  aa   012040 012040    4810  	oct	012040012040
    047243  aa   012012 012000    4811  	oct	012012012000
    047244  aa   000000 000063    4812  s000754:	oct	63
    047245  aa   033063 056033    4813  	oct	033063056033
    047246  aa   012056 033012    4814  	oct	012056033012
    047247  aa   056033 012056    4815  	oct	056033012056
    047250  aa   033012 056033    4816  	oct	033012056033
    047251  aa   012056 033012    4817  	oct	012056033012
    047252  aa   056010 033012    4818  	oct	056010033012
    047253  aa   056010 033012    4819  	oct	056010033012
    047254  aa   056010 056010    4820  	oct	056010056010
    047255  aa   056012 012012    4821  	oct	056012012012
    047256  aa   012040 012040    4822  	oct	012040012040
    047257  aa   012040 012040    4823  	oct	012040012040
    047260  aa   012040 040040    4824  	oct	012040040040
    047261  aa   040040 040000    4825  	oct	040040040000
    047262  aa   000000 000051    4826  s000772:	oct	51
    047263  aa   033063 056033    4827  	oct	033063056033
    047264  aa   012056 033012    4828  	oct	012056033012
    047265  aa   056033 012056    4829  	oct	056033012056
    047266  aa   033012 056033    4830  	oct	033012056033
    047267  aa   012056 033012    4831  	oct	012056033012
    047270  aa   056033 012056    4832  	oct	056033012056
    047271  aa   033012 056012    4833  	oct	033012056012
    047272  aa   012012 012040    4834  	oct	012012012040
    047273  aa   012040 012040    4835  	oct	012040012040
    047274  aa   012040 012040    4836  	oct	012040012040
    047275  aa   040000 000000    4837  	oct	040000000000
    047276  aa   000000 000066    4838  s001006:	oct	66
    047277  aa   033063 010010    4839  	oct	033063010010
    047300  aa   056033 012056    4840  	oct	056033012056
    047301  aa   033012 056033    4841  	oct	033012056033
    047302  aa   012056 033012    4842  	oct	012056033012
    047303  aa   056033 012056    4843  	oct	056033012056
    047304  aa   033012 056033    4844  	oct	033012056033
    047305  aa   012056 033012    4845  	oct	012056033012
    047306  aa   056040 040040    4846  	oct	056040040040
    047307  aa   056012 056012    4847  	oct	056012056012
    047310  aa   056012 056012    4848  	oct	056012056012
    047311  aa   056012 056012    4849  	oct	056012056012
    047312  aa   056012 056012    4850  	oct	056012056012
    047313  aa   056040 040040    4851  	oct	056040040040
    047314  aa   040040 000000    4852  	oct	040040000000
    047315  aa   000000 000035    4853  s001025:	oct	35
    047316  aa   033063 056033    4854  	oct	033063056033
    047317  aa   012056 033012    4855  	oct	012056033012
    047320  aa   056033 012056    4856  	oct	056033012056
    047321  aa   033012 056040    4857  	oct	033012056040
    047322  aa   056040 056040    4858  	oct	056040056040
    047323  aa   056040 056040    4859  	oct	056040056040
    047324  aa   012040 012012    4860  	oct	012040012012
    047325  aa   012000 000000    4861  	oct	012000000000
    047326  aa   000000 000045    4862  s001036:	oct	45
    047327  aa   033063 056033    4863  	oct	033063056033
    047330  aa   012056 033012    4864  	oct	012056033012
    047331  aa   056033 012056    4865  	oct	056033012056
    047332  aa   033012 056010    4866  	oct	033012056010
    047333  aa   056010 056010    4867  	oct	056010056010
    047334  aa   056010 056040    4868  	oct	056010056040
    047335  aa   012040 012040    4869  	oct	012040012040
    047336  aa   012040 012040    4870  	oct	012040012040
    047337  aa   040040 040040    4871  	oct	040040040040
    047340  aa   040000 000000    4872  	oct	040000000000
    047341  aa   000000 000033    4873  s001051:	oct	33
    047342  aa   033063 056033    4874  	oct	033063056033
    047343  aa   012056 033012    4875  	oct	012056033012
    047344  aa   056040 033012    4876  	oct	056040033012
    047345  aa   056040 033012    4877  	oct	056040033012
    047346  aa   056040 056040    4878  	oct	056040056040
    047347  aa   056040 012040    4879  	oct	056040012040
    047350  aa   012012 012000    4880  	oct	012012012000
    047351  aa   000000 000043    4881  s001061:	oct	43
    047352  aa   033063 056033    4882  	oct	033063056033
    047353  aa   012056 033012    4883  	oct	012056033012
    047354  aa   056010 033012    4884  	oct	056010033012
    047355  aa   056010 033012    4885  	oct	056010033012
    047356  aa   056010 056010    4886  	oct	056010056010
    047357  aa   056040 012040    4887  	oct	056040012040
    047360  aa   012040 012040    4888  	oct	012040012040
    047361  aa   012040 040040    4889  	oct	012040040040
    047362  aa   040040 040000    4890  	oct	040040040000
    047363  aa   000000 000031    4891  s001073:	oct	31
    047364  aa   033063 056033    4892  	oct	033063056033
    047365  aa   012056 033012    4893  	oct	012056033012
    047366  aa   056033 012056    4894  	oct	056033012056
    047367  aa   033012 056040    4895  	oct	033012056040
    047370  aa   012040 012040    4896  	oct	012040012040
    047371  aa   012040 012040    4897  	oct	012040012040
    047372  aa   040000 000000    4898  	oct	040000000000
    047373  aa   000000 000042    4899  s001103:	oct	42
    047374  aa   033063 010010    4900  	oct	033063010010
    047375  aa   056033 012056    4901  	oct	056033012056
    047376  aa   033012 056033    4902  	oct	033012056033
    047377  aa   012056 033012    4903  	oct	012056033012
    047400  aa   056040 040040    4904  	oct	056040040040
    047401  aa   056012 056012    4905  	oct	056012056012
    047402  aa   056012 056012    4906  	oct	056012056012
    047403  aa   056040 040040    4907  	oct	056040040040
    047404  aa   040040 000000    4908  	oct	040040000000
    047405  aa   000000 000055    4909  s001115:	oct	55
    047406  aa   033063 056033    4910  	oct	033063056033
    047407  aa   012056 033012    4911  	oct	012056033012
    047410  aa   056010 033012    4912  	oct	056010033012
    047411  aa   056010 033012    4913  	oct	056010033012
    047412  aa   056040 033012    4914  	oct	056040033012
    047413  aa   056040 033012    4915  	oct	056040033012
    047414  aa   056033 012056    4916  	oct	056033012056
    047415  aa   033012 056012    4917  	oct	033012056012
    047416  aa   012012 012040    4918  	oct	012012012040
    047417  aa   012040 012040    4919  	oct	012040012040
    047420  aa   012040 012040    4920  	oct	012040012040
    047421  aa   040000 000000    4921  	oct	040000000000
    047422  aa   000000 000055    4922  s001132:	oct	55
    047423  aa   033063 056033    4923  	oct	033063056033
    047424  aa   012056 033012    4924  	oct	012056033012
    047425  aa   056040 033012    4925  	oct	056040033012
    047426  aa   056040 033012    4926  	oct	056040033012
    047427  aa   056010 033012    4927  	oct	056010033012
    047430  aa   056010 033012    4928  	oct	056010033012
    047431  aa   056033 012056    4929  	oct	056033012056
    047432  aa   033012 056012    4930  	oct	033012056012
    047433  aa   012012 012040    4931  	oct	012012012040
    047434  aa   012040 012040    4932  	oct	012040012040
    047435  aa   012040 012040    4933  	oct	012040012040
    047436  aa   040000 000000    4934  	oct	040000000000
    047437  aa   000000 000037    4935  s001147:	oct	37
    047440  aa   033063 040012    4936  	oct	033063040012
    047441  aa   040012 040012    4937  	oct	040012040012
    047442  aa   040012 056010    4938  	oct	040012056010
    047443  aa   056010 056010    4939  	oct	056010056010
    047444  aa   056010 056033    4940  	oct	056010056033
    047445  aa   012056 033012    4941  	oct	012056033012
    047446  aa   056033 012056    4942  	oct	056033012056
    047447  aa   033012 056000    4943  	oct	033012056000
    047450  aa   000000 000037    4944  s001160:	oct	37
    047451  aa   033063 010012    4945  	oct	033063010012
    047452  aa   010012 010012    4946  	oct	010012010012
    047453  aa   010012 056040    4947  	oct	010012056040
    047454  aa   056040 056040    4948  	oct	056040056040
    047455  aa   056040 056033    4949  	oct	056040056033
    047456  aa   012056 033012    4950  	oct	012056033012
    047457  aa   056033 012056    4951  	oct	056033012056
    047460  aa   033012 056000    4952  	oct	033012056000
    047461  aa   000000 000035    4953  s001171:	oct	35
    047462  aa   033063 040012    4954  	oct	033063040012
    047463  aa   040012 040012    4955  	oct	040012040012
    047464  aa   040012 056010    4956  	oct	040012056010
    047465  aa   056010 056010    4957  	oct	056010056010
    047466  aa   033012 056010    4958  	oct	033012056010
    047467  aa   033012 056033    4959  	oct	033012056033
    047470  aa   012056 033012    4960  	oct	012056033012
    047471  aa   056000 000000    4961  	oct	056000000000
    047472  aa   000000 000035    4962  s001202:	oct	35
    047473  aa   033063 010012    4963  	oct	033063010012
    047474  aa   010012 010012    4964  	oct	010012010012
    047475  aa   010012 056040    4965  	oct	010012056040
    047476  aa   056040 056040    4966  	oct	056040056040
    047477  aa   033012 056040    4967  	oct	033012056040
    047500  aa   033012 056033    4968  	oct	033012056033
    047501  aa   012056 033012    4969  	oct	012056033012
    047502  aa   056000 000000    4970  	oct	056000000000
    047503  aa   000000 000023    4971  s001213:	oct	23
    047504  aa   033063 012012    4972  	oct	033063012012
    047505  aa   012012 056033    4973  	oct	012012056033
    047506  aa   012056 033012    4974  	oct	012056033012
    047507  aa   056033 012056    4975  	oct	056033012056
    047510  aa   033012 056000    4976  	oct	033012056000
    047511  aa   000000 000052    4977  s001221:	oct	52
    047512  aa   033063 010012    4978  	oct	033063010012
    047513  aa   010012 012012    4979  	oct	010012012012
    047514  aa   056033 012056    4980  	oct	056033012056
    047515  aa   033012 056033    4981  	oct	033012056033
    047516  aa   012056 033012    4982  	oct	012056033012
    047517  aa   056040 040040    4983  	oct	056040040040
    047520  aa   056012 056012    4984  	oct	056012056012
    047521  aa   056012 056012    4985  	oct	056012056012
    047522  aa   056010 033012    4986  	oct	056010033012
    047523  aa   033012 033012    4987  	oct	033012033012
    047524  aa   033012 000000    4988  	oct	033012000000
    047525  aa   000000 000065    4989  s001235:	oct	65
    047526  aa   033063 040040    4990  	oct	033063040040
    047527  aa   040040 056010    4991  	oct	040040056010
    047530  aa   056010 056010    4992  	oct	056010056010
    047531  aa   056010 056033    4993  	oct	056010056033
    047532  aa   012056 033012    4994  	oct	012056033012
    047533  aa   056033 012056    4995  	oct	056033012056
    047534  aa   033012 056033    4996  	oct	033012056033
    047535  aa   012056 033012    4997  	oct	012056033012
    047536  aa   056033 012056    4998  	oct	056033012056
    047537  aa   033012 056012    4999  	oct	033012056012
    047540  aa   012012 012040    5000  	oct	012012012040
    047541  aa   012040 012040    5001  	oct	012040012040
    047542  aa   012040 012040    5002  	oct	012040012040
    047543  aa   040000 000000    5003  	oct	040000000000
    047544  aa   000000 000065    5004  s001254:	oct	65
    047545  aa   033063 010010    5005  	oct	033063010010
    047546  aa   010010 056040    5006  	oct	010010056040
    047547  aa   056040 056040    5007  	oct	056040056040
    047550  aa   056040 056033    5008  	oct	056040056033
    047551  aa   012056 033012    5009  	oct	012056033012
    047552  aa   056033 012056    5010  	oct	056033012056
    047553  aa   033012 056033    5011  	oct	033012056033
    047554  aa   012056 033012    5012  	oct	012056033012
    047555  aa   056033 012056    5013  	oct	056033012056
    047556  aa   033012 056012    5014  	oct	033012056012
    047557  aa   012012 012040    5015  	oct	012012012040
    047560  aa   012040 012040    5016  	oct	012040012040
    047561  aa   012040 012040    5017  	oct	012040012040
    047562  aa   040000 000000    5018  	oct	040000000000
    047563  aa   000000 000063    5019  s001273:	oct	63
    047564  aa   033063 040040    5020  	oct	033063040040
    047565  aa   040040 056010    5021  	oct	040040056010
    047566  aa   056010 056010    5022  	oct	056010056010
    047567  aa   033012 056010    5023  	oct	033012056010
    047570  aa   033012 056033    5024  	oct	033012056033
    047571  aa   012056 033012    5025  	oct	012056033012
    047572  aa   056033 012056    5026  	oct	056033012056
    047573  aa   033012 056033    5027  	oct	033012056033
    047574  aa   012056 033012    5028  	oct	012056033012
    047575  aa   056012 012012    5029  	oct	056012012012
    047576  aa   012040 012040    5030  	oct	012040012040
    047577  aa   012040 012040    5031  	oct	012040012040
    047600  aa   012040 040000    5032  	oct	012040040000
    047601  aa   000000 000063    5033  s001311:	oct	63
    047602  aa   033063 010010    5034  	oct	033063010010
    047603  aa   010010 056040    5035  	oct	010010056040
    047604  aa   056040 056040    5036  	oct	056040056040
    047605  aa   033012 056040    5037  	oct	033012056040
    047606  aa   033012 056033    5038  	oct	033012056033
    047607  aa   012056 033012    5039  	oct	012056033012
    047610  aa   056033 012056    5040  	oct	056033012056
    047611  aa   033012 056033    5041  	oct	033012056033
    047612  aa   012056 033012    5042  	oct	012056033012
    047613  aa   056012 012012    5043  	oct	056012012012
    047614  aa   012040 012040    5044  	oct	012040012040
    047615  aa   012040 012040    5045  	oct	012040012040
    047616  aa   012040 040000    5046  	oct	012040040000
    047617  aa   000000 000111    5047  s001327:	oct	111
    047620  aa   033063 040012    5048  	oct	033063040012
    047621  aa   040012 040012    5049  	oct	040012040012
    047622  aa   040012 056010    5050  	oct	040012056010
    047623  aa   056010 056010    5051  	oct	056010056010
    047624  aa   056010 056033    5052  	oct	056010056033
    047625  aa   012056 033012    5053  	oct	012056033012
    047626  aa   056033 012056    5054  	oct	056033012056
    047627  aa   033012 056033    5055  	oct	033012056033
    047630  aa   012056 033012    5056  	oct	012056033012
    047631  aa   056033 012056    5057  	oct	056033012056
    047632  aa   033012 056033    5058  	oct	033012056033
    047633  aa   012056 033012    5059  	oct	012056033012
    047634  aa   056033 012056    5060  	oct	056033012056
    047635  aa   033012 056040    5061  	oct	033012056040
    047636  aa   056040 056040    5062  	oct	056040056040
    047637  aa   056040 056012    5063  	oct	056040056012
    047640  aa   012012 012040    5064  	oct	012012012040
    047641  aa   012040 012012    5065  	oct	012040012012
    047642  aa   012000 000000    5066  	oct	012000000000
    047643  aa   000000 000121    5067  s001353:	oct	121
    047644  aa   033063 010012    5068  	oct	033063010012
    047645  aa   010012 010012    5069  	oct	010012010012
    047646  aa   010012 056040    5070  	oct	010012056040
    047647  aa   056040 056040    5071  	oct	056040056040
    047650  aa   056040 056033    5072  	oct	056040056033
    047651  aa   012056 033012    5073  	oct	012056033012
    047652  aa   056033 012056    5074  	oct	056033012056
    047653  aa   033012 056033    5075  	oct	033012056033
    047654  aa   012056 033012    5076  	oct	012056033012
    047655  aa   056033 012056    5077  	oct	056033012056
    047656  aa   033012 056033    5078  	oct	033012056033
    047657  aa   012056 033012    5079  	oct	012056033012
    047660  aa   056033 012056    5080  	oct	056033012056
    047661  aa   033012 056010    5081  	oct	033012056010
    047662  aa   056010 056010    5082  	oct	056010056010
    047663  aa   056010 056012    5083  	oct	056010056012
    047664  aa   012012 012040    5084  	oct	012012012040
    047665  aa   012040 012040    5085  	oct	012040012040
    047666  aa   012040 012040    5086  	oct	012040012040
    047667  aa   040040 040040    5087  	oct	040040040040
    047670  aa   040000 000000    5088  	oct	040000000000
    047671  aa   000000 000111    5089  s001401:	oct	111
    047672  aa   033063 040012    5090  	oct	033063040012
    047673  aa   040012 040012    5091  	oct	040012040012
    047674  aa   040012 056010    5092  	oct	040012056010
    047675  aa   056010 056010    5093  	oct	056010056010
    047676  aa   033012 056010    5094  	oct	033012056010
    047677  aa   033012 056033    5095  	oct	033012056033
    047700  aa   012056 033012    5096  	oct	012056033012
    047701  aa   056010 033012    5097  	oct	056010033012
    047702  aa   056010 033012    5098  	oct	056010033012
    047703  aa   056040 033012    5099  	oct	056040033012
    047704  aa   056040 033012    5100  	oct	056040033012
    047705  aa   056033 012056    5101  	oct	056033012056
    047706  aa   033012 056040    5102  	oct	033012056040
    047707  aa   033012 056040    5103  	oct	033012056040
    047710  aa   033012 056040    5104  	oct	033012056040
    047711  aa   056040 056012    5105  	oct	056040056012
    047712  aa   012012 012040    5106  	oct	012012012040
    047713  aa   012040 012012    5107  	oct	012040012012
    047714  aa   012000 000000    5108  	oct	012000000000
    047715  aa   000000 000121    5109  s001425:	oct	121
    047716  aa   033063 010012    5110  	oct	033063010012
    047717  aa   010012 010012    5111  	oct	010012010012
    047720  aa   010012 056040    5112  	oct	010012056040
    047721  aa   056040 056040    5113  	oct	056040056040
    047722  aa   033012 056040    5114  	oct	033012056040
    047723  aa   033012 056033    5115  	oct	033012056033
    047724  aa   012056 033012    5116  	oct	012056033012
    047725  aa   056040 033012    5117  	oct	056040033012
    047726  aa   056040 033012    5118  	oct	056040033012
    047727  aa   056010 033012    5119  	oct	056010033012
    047730  aa   056010 033012    5120  	oct	056010033012
    047731  aa   056033 012056    5121  	oct	056033012056
    047732  aa   033012 056010    5122  	oct	033012056010
    047733  aa   033012 056010    5123  	oct	033012056010
    047734  aa   033012 056010    5124  	oct	033012056010
    047735  aa   056010 056012    5125  	oct	056010056012
    047736  aa   012012 012040    5126  	oct	012012012040
    047737  aa   012040 012040    5127  	oct	012040012040
    047740  aa   012040 012040    5128  	oct	012040012040
    047741  aa   040040 040040    5129  	oct	040040040040
    047742  aa   040000 000000    5130  	oct	040000000000
    047743  aa   000000 000105    5131  s001453:	oct	105
    047744  aa   033063 040012    5132  	oct	033063040012
    047745  aa   040012 040012    5133  	oct	040012040012
    047746  aa   040012 056010    5134  	oct	040012056010
    047747  aa   056010 056010    5135  	oct	056010056010
    047750  aa   033012 056010    5136  	oct	033012056010
    047751  aa   033012 056033    5137  	oct	033012056033
    047752  aa   012056 033012    5138  	oct	012056033012
    047753  aa   056033 012056    5139  	oct	056033012056
    047754  aa   033012 056033    5140  	oct	033012056033
    047755  aa   012056 033012    5141  	oct	012056033012
    047756  aa   056033 012056    5142  	oct	056033012056
    047757  aa   033012 056040    5143  	oct	033012056040
    047760  aa   033012 056040    5144  	oct	033012056040
    047761  aa   033012 056040    5145  	oct	033012056040
    047762  aa   056040 056012    5146  	oct	056040056012
    047763  aa   012012 012040    5147  	oct	012012012040
    047764  aa   012040 012012    5148  	oct	012040012012
    047765  aa   012000 000000    5149  	oct	012000000000
    047766  aa   000000 000115    5150  s001476:	oct	115
    047767  aa   033063 010012    5151  	oct	033063010012
    047770  aa   010012 010012    5152  	oct	010012010012
    047771  aa   010012 056040    5153  	oct	010012056040
    047772  aa   056040 056040    5154  	oct	056040056040
    047773  aa   033012 056040    5155  	oct	033012056040
    047774  aa   033012 056033    5156  	oct	033012056033
    047775  aa   012056 033012    5157  	oct	012056033012
    047776  aa   056033 012056    5158  	oct	056033012056
    047777  aa   033012 056033    5159  	oct	033012056033
    050000  aa   012056 033012    5160  	oct	012056033012
    050001  aa   056033 012056    5161  	oct	056033012056
    050002  aa   033012 056010    5162  	oct	033012056010
    050003  aa   033012 056010    5163  	oct	033012056010
    050004  aa   033012 056010    5164  	oct	033012056010
    050005  aa   056010 056012    5165  	oct	056010056012
    050006  aa   012012 012040    5166  	oct	012012012040
    050007  aa   012040 012040    5167  	oct	012040012040
    050010  aa   012040 012040    5168  	oct	012040012040
    050011  aa   040040 040040    5169  	oct	040040040040
    050012  aa   040000 000000    5170  	oct	040000000000
    050013  aa   000000 000071    5171  s001523:	oct	71
    050014  aa   033063 012012    5172  	oct	033063012012
    050015  aa   012012 056033    5173  	oct	012012056033
    050016  aa   012056 033012    5174  	oct	012056033012
    050017  aa   056033 012056    5175  	oct	056033012056
    050020  aa   033012 056033    5176  	oct	033012056033
    050021  aa   012056 033012    5177  	oct	012056033012
    050022  aa   056033 012056    5178  	oct	056033012056
    050023  aa   033012 056033    5179  	oct	033012056033
    050024  aa   012056 033012    5180  	oct	012056033012
    050025  aa   056033 012056    5181  	oct	056033012056
    050026  aa   033012 056012    5182  	oct	033012056012
    050027  aa   012012 012040    5183  	oct	012012012040
    050030  aa   012040 012040    5184  	oct	012040012040
    050031  aa   012040 012040    5185  	oct	012040012040
    050032  aa   040000 000000    5186  	oct	040000000000
    050033  aa   000000 000126    5187  s001543:	oct	126
    050034  aa   033063 010012    5188  	oct	033063010012
    050035  aa   010012 012012    5189  	oct	010012012012
    050036  aa   056033 012056    5190  	oct	056033012056
    050037  aa   033012 056033    5191  	oct	033012056033
    050040  aa   012056 033012    5192  	oct	012056033012
    050041  aa   056033 012056    5193  	oct	056033012056
    050042  aa   033012 056033    5194  	oct	033012056033
    050043  aa   012056 033012    5195  	oct	012056033012
    050044  aa   056033 012056    5196  	oct	056033012056
    050045  aa   033012 056033    5197  	oct	033012056033
    050046  aa   012056 033012    5198  	oct	012056033012
    050047  aa   056040 040040    5199  	oct	056040040040
    050050  aa   056012 056012    5200  	oct	056012056012
    050051  aa   056012 056012    5201  	oct	056012056012
    050052  aa   056012 056012    5202  	oct	056012056012
    050053  aa   056012 056012    5203  	oct	056012056012
    050054  aa   056012 056012    5204  	oct	056012056012
    050055  aa   056012 056012    5205  	oct	056012056012
    050056  aa   056040 033012    5206  	oct	056040033012
    050057  aa   040033 012040    5207  	oct	040033012040
    050060  aa   033012 040033    5208  	oct	033012040033
    050061  aa   012040 000000    5209  	oct	012040000000
    050062  aa   000000 000061    5210  s001572:	oct	61
    050063  aa   033063 010056    5211  	oct	033063010056
    050064  aa   040056 040056    5212  	oct	040056040056
    050065  aa   040033 012056    5213  	oct	040033012056
    050066  aa   010056 010056    5214  	oct	010056010056
    050067  aa   010056 010056    5215  	oct	010056010056
    050070  aa   033012 056040    5216  	oct	033012056040
    050071  aa   056040 056040    5217  	oct	056040056040
    050072  aa   056040 056010    5218  	oct	056040056010
    050073  aa   033012 056010    5219  	oct	033012056010
    050074  aa   056010 056040    5220  	oct	056010056040
    050075  aa   012040 012040    5221  	oct	012040012040
    050076  aa   012040 040040    5222  	oct	012040040040
    050077  aa   040000 000000    5223  	oct	040000000000
    050100  aa   000000 000063    5224  s001610:	oct	63
    050101  aa   033063 010012    5225  	oct	033063010012
    050102  aa   010010 056040    5226  	oct	010010056040
    050103  aa   033012 056040    5227  	oct	033012056040
    050104  aa   033012 056040    5228  	oct	033012056040
    050105  aa   033012 056040    5229  	oct	033012056040
    050106  aa   033012 056040    5230  	oct	033012056040
    050107  aa   033012 056040    5231  	oct	033012056040
    050110  aa   033012 056040    5232  	oct	033012056040
    050111  aa   033012 056040    5233  	oct	033012056040
    050112  aa   033012 056040    5234  	oct	033012056040
    050113  aa   033012 056012    5235  	oct	033012056012
    050114  aa   012012 012012    5236  	oct	012012012012
    050115  aa   012012 012000    5237  	oct	012012012000
    050116  aa   000000 000070    5238  s001626:	oct	70
    050117  aa   033063 010010    5239  	oct	033063010010
    050120  aa   056040 033012    5240  	oct	056040033012
    050121  aa   056040 033012    5241  	oct	056040033012
    050122  aa   056040 033012    5242  	oct	056040033012
    050123  aa   056040 033012    5243  	oct	056040033012
    050124  aa   056040 033012    5244  	oct	056040033012
    050125  aa   056040 033012    5245  	oct	056040033012
    050126  aa   056010 010010    5246  	oct	056010010010
    050127  aa   010010 010056    5247  	oct	010010010056
    050130  aa   040012 056040    5248  	oct	040012056040
    050131  aa   012056 040012    5249  	oct	012056040012
    050132  aa   056040 012056    5250  	oct	056040012056
    050133  aa   040012 056040    5251  	oct	040012056040
    050134  aa   012056 040040    5252  	oct	012056040040
    050135  aa   000000 000075    5253  s001645:	oct	75
    050136  aa   033063 010056    5254  	oct	033063010056
    050137  aa   040033 012056    5255  	oct	040033012056
    050140  aa   040033 012056    5256  	oct	040033012056
    050141  aa   040033 012056    5257  	oct	040033012056
    050142  aa   040033 012056    5258  	oct	040033012056
    050143  aa   012012 012012    5259  	oct	012012012012
    050144  aa   056010 033012    5260  	oct	056010033012
    050145  aa   056010 033012    5261  	oct	056010033012
    050146  aa   056010 033012    5262  	oct	056010033012
    050147  aa   056010 033012    5263  	oct	056010033012
    050150  aa   056010 012012    5264  	oct	056010012012
    050151  aa   056040 056040    5265  	oct	056040056040
    050152  aa   056040 056040    5266  	oct	056040056040
    050153  aa   056040 056040    5267  	oct	056040056040
    050154  aa   056040 012040    5268  	oct	056040012040
    050155  aa   012000 000000    5269  	oct	012000000000
    050156  aa   000000 000070    5270  s001666:	oct	70
    050157  aa   033063 012012    5271  	oct	033063012012
    050160  aa   056033 012056    5272  	oct	056033012056
    050161  aa   033012 056033    5273  	oct	033012056033
    050162  aa   012056 033012    5274  	oct	012056033012
    050163  aa   056033 012056    5275  	oct	056033012056
    050164  aa   033012 056033    5276  	oct	033012056033
    050165  aa   012056 033012    5277  	oct	012056033012
    050166  aa   056040 056012    5278  	oct	056040056012
    050167  aa   056012 056012    5279  	oct	056012056012
    050170  aa   056012 056012    5280  	oct	056012056012
    050171  aa   056012 056012    5281  	oct	056012056012
    050172  aa   056012 056040    5282  	oct	056012056040
    050173  aa   033012 040033    5283  	oct	033012040033
    050174  aa   012040 040040    5284  	oct	012040040040
    050175  aa   000000 000043    5285  s001705:	oct	43
    050176  aa   033063 012012    5286  	oct	033063012012
    050177  aa   056033 012056    5287  	oct	056033012056
    050200  aa   033012 056033    5288  	oct	033012056033
    050201  aa   012056 033012    5289  	oct	012056033012
    050202  aa   056033 012056    5290  	oct	056033012056
    050203  aa   033012 056033    5291  	oct	033012056033
    050204  aa   012056 033012    5292  	oct	012056033012
    050205  aa   056012 012012    5293  	oct	056012012012
    050206  aa   012012 012000    5294  	oct	012012012000
    050207  aa   000000 000055    5295  s001717:	oct	55
    050210  aa   033063 012012    5296  	oct	033063012012
    050211  aa   056010 033012    5297  	oct	056010033012
    050212  aa   056040 056040    5298  	oct	056040056040
    050213  aa   056040 033012    5299  	oct	056040033012
    050214  aa   056010 056010    5300  	oct	056010056010
    050215  aa   056010 056010    5301  	oct	056010056010
    050216  aa   056010 033012    5302  	oct	056010033012
    050217  aa   056040 056040    5303  	oct	056040056040
    050220  aa   056040 056040    5304  	oct	056040056040
    050221  aa   056040 056040    5305  	oct	056040056040
    050222  aa   056040 012040    5306  	oct	056040012040
    050223  aa   040000 000000    5307  	oct	040000000000
    050224  aa   000000 000074    5308  s001734:	oct	74
    050225  aa   033063 010033    5309  	oct	033063010033
    050226  aa   012010 033012    5310  	oct	012010033012
    050227  aa   010033 012056    5311  	oct	010033012056
    050230  aa   040056 040056    5312  	oct	040056040056
    050231  aa   040056 040056    5313  	oct	040056040056
    050232  aa   040056 040056    5314  	oct	040056040056
    050233  aa   010033 012056    5315  	oct	010033012056
    050234  aa   010056 010056    5316  	oct	010056010056
    050235  aa   010056 010056    5317  	oct	010056010056
    050236  aa   040033 012056    5318  	oct	040033012056
    050237  aa   040056 040056    5319  	oct	040056040056
    050240  aa   010033 012056    5320  	oct	010033012056
    050241  aa   012012 012012    5321  	oct	012012012012
    050242  aa   040012 040012    5322  	oct	040012040012
    050243  aa   040040 040040    5323  	oct	040040040040
    050244  aa   000000 000016    5324  s001754:	oct	16
    050245  aa   033063 056040    5325  	oct	033063056040
    050246  aa   056040 056040    5326  	oct	056040056040
    050247  aa   056040 056040    5327  	oct	056040056040
    050250  aa   056040 000000    5328  	oct	056040000000
    050251  aa   000000 000077    5329  s001761:	oct	77
    050252  aa   033063 012012    5330  	oct	033063012012
    050253  aa   012012 040012    5331  	oct	012012040012
    050254  aa   040040 056033    5332  	oct	040040056033
    050255  aa   012056 033012    5333  	oct	012056033012
    050256  aa   056033 012056    5334  	oct	056033012056
    050257  aa   033012 056033    5335  	oct	033012056033
    050260  aa   012056 033012    5336  	oct	012056033012
    050261  aa   056010 012056    5337  	oct	056010012056
    050262  aa   012056 012056    5338  	oct	012056012056
    050263  aa   012056 012056    5339  	oct	012056012056
    050264  aa   010033 012056    5340  	oct	010033012056
    050265  aa   033012 056033    5341  	oct	033012056033
    050266  aa   012056 010012    5342  	oct	012056010012
    050267  aa   056040 033012    5343  	oct	056040033012
    050270  aa   040033 012040    5344  	oct	040033012040
    050271  aa   040040 040000    5345  	oct	040040040000
    050272  aa   000000 000077    5346  s002002:	oct	77
    050273  aa   033063 012012    5347  	oct	033063012012
    050274  aa   012012 010012    5348  	oct	012012010012
    050275  aa   010010 056033    5349  	oct	010010056033
    050276  aa   012056 033012    5350  	oct	012056033012
    050277  aa   056033 012056    5351  	oct	056033012056
    050300  aa   033012 056033    5352  	oct	033012056033
    050301  aa   012056 033012    5353  	oct	012056033012
    050302  aa   056040 012056    5354  	oct	056040012056
    050303  aa   012056 012056    5355  	oct	012056012056
    050304  aa   012056 012056    5356  	oct	012056012056
    050305  aa   040033 012056    5357  	oct	040033012056
    050306  aa   033012 056033    5358  	oct	033012056033
    050307  aa   012056 040012    5359  	oct	012056040012
    050310  aa   056040 033012    5360  	oct	056040033012
    050311  aa   040033 012040    5361  	oct	040033012040
    050312  aa   040040 040000    5362  	oct	040040040000
    050313  aa   000000 000036    5363  s002023:	oct	36
    050314  aa   033063 012012    5364  	oct	033063012012
    050315  aa   056040 033012    5365  	oct	056040033012
    050316  aa   056040 033012    5366  	oct	056040033012
    050317  aa   056040 033012    5367  	oct	056040033012
    050320  aa   056040 012056    5368  	oct	056040012056
    050321  aa   040012 056040    5369  	oct	040012056040
    050322  aa   012056 033012    5370  	oct	012056033012
    050323  aa   033012 000000    5371  	oct	033012000000
    050324  aa   000000 000062    5372  s002034:	oct	62
    050325  aa   033063 040012    5373  	oct	033063040012
    050326  aa   040012 040040    5374  	oct	040012040040
    050327  aa   040040 056056    5375  	oct	040040056056
    050330  aa   010033 012056    5376  	oct	010033012056
    050331  aa   010033 012056    5377  	oct	010033012056
    050332  aa   010033 012056    5378  	oct	010033012056
    050333  aa   010033 012056    5379  	oct	010033012056
    050334  aa   040033 012056    5380  	oct	040033012056
    050335  aa   040033 012056    5381  	oct	040033012056
    050336  aa   040033 012056    5382  	oct	040033012056
    050337  aa   040033 012056    5383  	oct	040033012056
    050340  aa   012012 012012    5384  	oct	012012012012
    050341  aa   012012 000000    5385  	oct	012012000000
    050342  aa   000000 000061    5386  s002052:	oct	61
    050343  aa   033063 012012    5387  	oct	033063012012
    050344  aa   056040 033012    5388  	oct	056040033012
    050345  aa   056040 033012    5389  	oct	056040033012
    050346  aa   056040 033012    5390  	oct	056040033012
    050347  aa   056040 033012    5391  	oct	056040033012
    050350  aa   056010 033012    5392  	oct	056010033012
    050351  aa   056010 033012    5393  	oct	056010033012
    050352  aa   056010 033012    5394  	oct	056010033012
    050353  aa   056010 033012    5395  	oct	056010033012
    050354  aa   056012 012012    5396  	oct	056012012012
    050355  aa   012040 012040    5397  	oct	012040012040
    050356  aa   012040 040040    5398  	oct	012040040040
    050357  aa   040000 000000    5399  	oct	040000000000
    050360  aa   000000 000052    5400  s002070:	oct	52
    050361  aa   033063 033012    5401  	oct	033063033012
    050362  aa   033012 033012    5402  	oct	033012033012
    050363  aa   033012 033012    5403  	oct	033012033012
    050364  aa   033012 056040    5404  	oct	033012056040
    050365  aa   012056 040012    5405  	oct	012056040012
    050366  aa   056040 012056    5406  	oct	056040012056
    050367  aa   040033 012056    5407  	oct	040033012056
    050370  aa   040033 012056    5408  	oct	040033012056
    050371  aa   040033 012056    5409  	oct	040033012056
    050372  aa   012012 012012    5410  	oct	012012012012
    050373  aa   012012 000000    5411  	oct	012012000000
    050374  aa   000000 000055    5412  s002104:	oct	55
    050375  aa   033063 033012    5413  	oct	033063033012
    050376  aa   033012 033012    5414  	oct	033012033012
    050377  aa   033012 010033    5415  	oct	033012010033
    050400  aa   012010 033012    5416  	oct	012010033012
    050401  aa   056040 012056    5417  	oct	056040012056
    050402  aa   040012 056040    5418  	oct	040012056040
    050403  aa   012056 040012    5419  	oct	012056040012
    050404  aa   056040 012056    5420  	oct	056040012056
    050405  aa   040012 056040    5421  	oct	040012056040
    050406  aa   012056 040012    5422  	oct	012056040012
    050407  aa   056033 012033    5423  	oct	056033012033
    050410  aa   012000 000000    5424  	oct	012000000000
    050411  aa   000000 000055    5425  s002121:	oct	55
    050412  aa   033063 010012    5426  	oct	033063010012
    050413  aa   012056 040033    5427  	oct	012056040033
    050414  aa   012056 040033    5428  	oct	012056040033
    050415  aa   012056 040033    5429  	oct	012056040033
    050416  aa   012056 040033    5430  	oct	012056040033
    050417  aa   012056 040033    5431  	oct	012056040033
    050420  aa   012056 040033    5432  	oct	012056040033
    050421  aa   012056 040033    5433  	oct	012056040033
    050422  aa   012056 040033    5434  	oct	012056040033
    050423  aa   012056 012012    5435  	oct	012056012012
    050424  aa   012012 010012    5436  	oct	012012010012
    050425  aa   012000 000000    5437  	oct	012000000000
    050426  aa   000000 000147    5438  s002136:	oct	147
    050427  aa   033063 012012    5439  	oct	033063012012
    050430  aa   012012 012012    5440  	oct	012012012012
    050431  aa   012012 040012    5441  	oct	012012040012
    050432  aa   040012 040040    5442  	oct	040012040040
    050433  aa   040040 056010    5443  	oct	040040056010
    050434  aa   056010 056010    5444  	oct	056010056010
    050435  aa   056010 033012    5445  	oct	056010033012
    050436  aa   056010 056010    5446  	oct	056010056010
    050437  aa   056010 033012    5447  	oct	056010033012
    050440  aa   056010 033012    5448  	oct	056010033012
    050441  aa   056010 033012    5449  	oct	056010033012
    050442  aa   056033 012056    5450  	oct	056033012056
    050443  aa   010033 012056    5451  	oct	010033012056
    050444  aa   033012 056033    5452  	oct	033012056033
    050445  aa   012056 033012    5453  	oct	012056033012
    050446  aa   056033 012056    5454  	oct	056033012056
    050447  aa   040033 012056    5455  	oct	040033012056
    050450  aa   033012 056040    5456  	oct	033012056040
    050451  aa   033012 056040    5457  	oct	033012056040
    050452  aa   033012 056040    5458  	oct	033012056040
    050453  aa   033012 056040    5459  	oct	033012056040
    050454  aa   056040 056040    5460  	oct	056040056040
    050455  aa   033012 056040    5461  	oct	033012056040
    050456  aa   056040 056040    5462  	oct	056040056040
    050457  aa   056012 012012    5463  	oct	056012012012
    050460  aa   012012 012000    5464  	oct	012012012000
    050461  aa   000000 000163    5465  s002171:	oct	163
    050462  aa   033063 012012    5466  	oct	033063012012
    050463  aa   012012 012012    5467  	oct	012012012012
    050464  aa   012012 010012    5468  	oct	012012010012
    050465  aa   010012 010010    5469  	oct	010012010010
    050466  aa   010010 056040    5470  	oct	010010056040
    050467  aa   056040 056040    5471  	oct	056040056040
    050470  aa   056040 033012    5472  	oct	056040033012
    050471  aa   056040 056040    5473  	oct	056040056040
    050472  aa   056040 033012    5474  	oct	056040033012
    050473  aa   056040 033012    5475  	oct	056040033012
    050474  aa   056040 033012    5476  	oct	056040033012
    050475  aa   056033 012056    5477  	oct	056033012056
    050476  aa   040033 012056    5478  	oct	040033012056
    050477  aa   033012 056033    5479  	oct	033012056033
    050500  aa   012056 033012    5480  	oct	012056033012
    050501  aa   056033 012056    5481  	oct	056033012056
    050502  aa   010033 012056    5482  	oct	010033012056
    050503  aa   033012 056010    5483  	oct	033012056010
    050504  aa   033012 056010    5484  	oct	033012056010
    050505  aa   033012 056010    5485  	oct	033012056010
    050506  aa   033012 056010    5486  	oct	033012056010
    050507  aa   056010 056010    5487  	oct	056010056010
    050510  aa   033012 056010    5488  	oct	033012056010
    050511  aa   056010 056010    5489  	oct	056010056010
    050512  aa   056012 012012    5490  	oct	056012012012
    050513  aa   012040 012040    5491  	oct	012040012040
    050514  aa   012040 040040    5492  	oct	012040040040
    050515  aa   040040 040040    5493  	oct	040040040040
    050516  aa   040040 040000    5494  	oct	040040040000
    050517  aa   000000 000123    5495  s002227:	oct	123
    050520  aa   033063 040033    5496  	oct	033063040033
    050521  aa   012040 040033    5497  	oct	012040040033
    050522  aa   064143 033063    5498  	oct	064143033063
    050523  aa   010056 033012    5499  	oct	010056033012
    050524  aa   056033 012056    5500  	oct	056033012056
    050525  aa   010033 012056    5501  	oct	010033012056
    050526  aa   010033 012056    5502  	oct	010033012056
    050527  aa   010056 010033    5503  	oct	010056010033
    050530  aa   012056 010056    5504  	oct	012056010056
    050531  aa   010056 010012    5505  	oct	010056010012
    050532  aa   056010 056010    5506  	oct	056010056010
    050533  aa   012056 010012    5507  	oct	012056010012
    050534  aa   056012 056012    5508  	oct	056012056012
    050535  aa   056040 012056    5509  	oct	056040012056
    050536  aa   040012 056040    5510  	oct	040012056040
    050537  aa   056040 012056    5511  	oct	056040012056
    050540  aa   040056 040056    5512  	oct	040056040056
    050541  aa   040033 012056    5513  	oct	040033012056
    050542  aa   040056 040033    5514  	oct	040056040033
    050543  aa   012056 040040    5515  	oct	012056040040
    050544  aa   040040 040000    5516  	oct	040040040000
    050545  aa   000000 000147    5517  s002255:	oct	147
    050546  aa   033063 040040    5518  	oct	033063040040
    050547  aa   040056 033012    5519  	oct	040056033012
    050550  aa   056033 012056    5520  	oct	056033012056
    050551  aa   033012 056033    5521  	oct	033012056033
    050552  aa   012056 033012    5522  	oct	012056033012
    050553  aa   010010 010056    5523  	oct	010010010056
    050554  aa   040056 040056    5524  	oct	040056040056
    050555  aa   040056 040056    5525  	oct	040056040056
    050556  aa   040056 040056    5526  	oct	040056040056
    050557  aa   012056 012056    5527  	oct	012056012056
    050560  aa   012056 012056    5528  	oct	012056012056
    050561  aa   012056 033012    5529  	oct	012056033012
    050562  aa   033012 040033    5530  	oct	033012040033
    050563  aa   012056 040012    5531  	oct	012056040012
    050564  aa   056040 012056    5532  	oct	056040012056
    050565  aa   040033 012056    5533  	oct	040033012056
    050566  aa   040033 012056    5534  	oct	040033012056
    050567  aa   040033 012056    5535  	oct	040033012056
    050570  aa   012056 012056    5536  	oct	012056012056
    050571  aa   012056 012056    5537  	oct	012056012056
    050572  aa   012056 012056    5538  	oct	012056012056
    050573  aa   012056 012056    5539  	oct	012056012056
    050574  aa   012056 012056    5540  	oct	012056012056
    050575  aa   012056 012056    5541  	oct	012056012056
    050576  aa   012056 012056    5542  	oct	012056012056
    050577  aa   040040 040000    5543  	oct	040040040000
    050600  aa   000000 000024    5544  s002310:	oct	24
    050601  aa   033063 174033    5545  	oct	033063174033
    050602  aa   012174 033012    5546  	oct	012174033012
    050603  aa   033012 055040    5547  	oct	033012055040
    050604  aa   012040 012040    5548  	oct	012040012040
    050605  aa   012040 040040    5549  	oct	012040040040
    050606  aa   000000 000030    5550  s002316:	oct	30
    050607  aa   033063 174033    5551  	oct	033063174033
    050610  aa   012174 033012    5552  	oct	012174033012
    050611  aa   033012 055012    5553  	oct	033012055012
    050612  aa   012012 012055    5554  	oct	012012012055
    050613  aa   040033 012040    5555  	oct	040033012040
    050614  aa   040040 040040    5556  	oct	040040040040
    050615  aa   000000 000025    5557  s002325:	oct	25
    050616  aa   033063 057040    5558  	oct	033063057040
    050617  aa   033012 033012    5559  	oct	033012033012
    050620  aa   137040 137040    5560  	oct	137040137040
    050621  aa   012012 134040    5561  	oct	012012134040
    050622  aa   040040 040040    5562  	oct	040040040040
    050623  aa   040000 000000    5563  	oct	040000000000
    050624  aa   000000 000045    5564  s002334:	oct	45
    050625  aa   033063 134033    5565  	oct	033063134033
    050626  aa   012033 012033    5566  	oct	012033012033
    050627  aa   012033 012040    5567  	oct	012033012040
    050630  aa   033012 040033    5568  	oct	033012040033
    050631  aa   012033 012137    5569  	oct	012033012137
    050632  aa   040137 012012    5570  	oct	040137012012
    050633  aa   012012 040012    5571  	oct	012012040012
    050634  aa   040012 012057    5572  	oct	040012012057
    050635  aa   040040 040040    5573  	oct	040040040040
    050636  aa   040000 000000    5574  	oct	040000000000
    050637  aa   000000 000023    5575  s002347:	oct	23
    050640  aa   033063 055040    5576  	oct	033063055040
    050641  aa   040040 040055    5577  	oct	040040040055
    050642  aa   040040 040040    5578  	oct	040040040040
    050643  aa   055040 040040    5579  	oct	055040040040
    050644  aa   040033 064000    5580  	oct	040033064000
    050645  aa   000000 000027    5581  s002355:	oct	27
    050646  aa   000033 063033    5582  	oct	000033063033
    050647  aa   012033 012137    5583  	oct	012033012137
    050650  aa   040040 040040    5584  	oct	040040040040
    050651  aa   040137 040040    5585  	oct	040137040040
    050652  aa   040040 040012    5586  	oct	040040040012
    050653  aa   012033 064000    5587  	oct	012033064000
    050654  aa   000000 000015    5588  s002364:	oct	15
    050655  aa   000033 063033    5589  	oct	000033063033
    050656  aa   012033 012137    5590  	oct	012033012137
    050657  aa   012012 033064    5591  	oct	012012033064
    050660  aa   040000 000000    5592  	oct	040000000000
    050661  aa   000000 000014    5593  s002371:	oct	14
    050662  aa   033063 010133    5594  	oct	033063010133
    050663  aa   040040 135040    5595  	oct	040040135040
    050664  aa   040040 040040    5596  	oct	040040040040
    050665  aa   000000 000005    5597  s002375:	oct	5
    050666  aa   041010 041010    5598  	oct	041010041010
    050667  aa   041000 000000    5599  	oct	041000000000
    050670  aa   000000 000005    5600  s002400:	oct	5
    050671  aa   042010 042010    5601  	oct	042010042010
    050672  aa   042000 000000    5602  	oct	042000000000
    050673  aa   000000 000005    5603  s002403:	oct	5
    050674  aa   043010 043010    5604  	oct	043010043010
    050675  aa   043000 000000    5605  	oct	043000000000
    050676  aa   000000 000005    5606  s002406:	oct	5
    050677  aa   044010 044010    5607  	oct	044010044010
    050700  aa   044000 000000    5608  	oct	044000000000
    050701  aa   000000 000005    5609  s002411:	oct	5
    050702  aa   045010 045010    5610  	oct	045010045010
    050703  aa   045000 000000    5611  	oct	045000000000
    050704  aa   000000 000005    5612  s002414:	oct	5
    050705  aa   046010 046010    5613  	oct	046010046010
    050706  aa   046000 000000    5614  	oct	046000000000
    050707  aa   000000 000005    5615  s002417:	oct	5
    050710  aa   047010 047010    5616  	oct	047010047010
    050711  aa   047000 000000    5617  	oct	047000000000
    050712  aa   000000 000005    5618  s002422:	oct	5
    050713  aa   050010 050010    5619  	oct	050010050010
    050714  aa   050000 000000    5620  	oct	050000000000
    050715  aa   000000 000005    5621  s002425:	oct	5
    050716  aa   051010 051010    5622  	oct	051010051010
    050717  aa   051000 000000    5623  	oct	051000000000
    050720  aa   000000 000005    5624  s002430:	oct	5
    050721  aa   052010 052010    5625  	oct	052010052010
    050722  aa   052000 000000    5626  	oct	052000000000
    050723  aa   000000 000005    5627  s002433:	oct	5
    050724  aa   053010 053010    5628  	oct	053010053010
    050725  aa   053000 000000    5629  	oct	053000000000
    050726  aa   000000 000005    5630  s002436:	oct	5
    050727  aa   054010 054010    5631  	oct	054010054010
    050730  aa   054000 000000    5632  	oct	054000000000
    050731  aa   000000 000005    5633  s002441:	oct	5
    050732  aa   055010 055010    5634  	oct	055010055010
    050733  aa   055000 000000    5635  	oct	055000000000
    050734  aa   000000 000005    5636  s002444:	oct	5
    050735  aa   056010 056010    5637  	oct	056010056010
    050736  aa   056000 000000    5638  	oct	056000000000
    050737  aa   000000 000005    5639  s002447:	oct	5
    050740  aa   057010 057010    5640  	oct	057010057010
    050741  aa   057000 000000    5641  	oct	057000000000
    050742  aa   000000 000005    5642  s002452:	oct	5
    050743  aa   060010 060010    5643  	oct	060010060010
    050744  aa   060000 000000    5644  	oct	060000000000
    050745  aa   000000 000005    5645  s002455:	oct	5
    050746  aa   061010 061010    5646  	oct	061010061010
    050747  aa   061000 000000    5647  	oct	061000000000
    050750  aa   000000 000005    5648  s002460:	oct	5
    050751  aa   062010 062010    5649  	oct	062010062010
    050752  aa   062000 000000    5650  	oct	062000000000
    050753  aa   000000 000005    5651  s002463:	oct	5
    050754  aa   063010 063010    5652  	oct	063010063010
    050755  aa   063000 000000    5653  	oct	063000000000
    050756  aa   000000 000005    5654  s002466:	oct	5
    050757  aa   064010 064010    5655  	oct	064010064010
    050760  aa   064000 000000    5656  	oct	064000000000
    050761  aa   000000 000005    5657  s002471:	oct	5
    050762  aa   065010 065010    5658  	oct	065010065010
    050763  aa   065000 000000    5659  	oct	065000000000
    050764  aa   000000 000005    5660  s002474:	oct	5
    050765  aa   066010 066010    5661  	oct	066010066010
    050766  aa   066000 000000    5662  	oct	066000000000
    050767  aa   000000 000005    5663  s002477:	oct	5
    050770  aa   067010 067010    5664  	oct	067010067010
    050771  aa   067000 000000    5665  	oct	067000000000
    050772  aa   000000 000005    5666  s002502:	oct	5
    050773  aa   070010 070010    5667  	oct	070010070010
    050774  aa   070000 000000    5668  	oct	070000000000
    050775  aa   000000 000005    5669  s002505:	oct	5
    050776  aa   071010 071010    5670  	oct	071010071010
    050777  aa   071000 000000    5671  	oct	071000000000
    051000  aa   000000 000005    5672  s002510:	oct	5
    051001  aa   072010 072010    5673  	oct	072010072010
    051002  aa   072000 000000    5674  	oct	072000000000
    051003  aa   000000 000005    5675  s002513:	oct	5
    051004  aa   073010 073010    5676  	oct	073010073010
    051005  aa   073000 000000    5677  	oct	073000000000
    051006  aa   000000 000005    5678  s002516:	oct	5
    051007  aa   074010 074010    5679  	oct	074010074010
    051010  aa   074000 000000    5680  	oct	074000000000
    051011  aa   000000 000005    5681  s002521:	oct	5
    051012  aa   075010 075010    5682  	oct	075010075010
    051013  aa   075000 000000    5683  	oct	075000000000
    051014  aa   000000 000005    5684  s002524:	oct	5
    051015  aa   076010 076010    5685  	oct	076010076010
    051016  aa   076000 000000    5686  	oct	076000000000
    051017  aa   000000 000005    5687  s002527:	oct	5
    051020  aa   077010 077010    5688  	oct	077010077010
    051021  aa   077000 000000    5689  	oct	077000000000
    051022  aa   000000 000005    5690  s002532:	oct	5
    051023  aa   100010 100010    5691  	oct	100010100010
    051024  aa   100000 000000    5692  	oct	100000000000
    051025  aa   000000 000005    5693  s002535:	oct	5
    051026  aa   101010 101010    5694  	oct	101010101010
    051027  aa   101000 000000    5695  	oct	101000000000
    051030  aa   000000 000005    5696  s002540:	oct	5
    051031  aa   102010 102010    5697  	oct	102010102010
    051032  aa   102000 000000    5698  	oct	102000000000
    051033  aa   000000 000005    5699  s002543:	oct	5
    051034  aa   103010 103010    5700  	oct	103010103010
    051035  aa   103000 000000    5701  	oct	103000000000
    051036  aa   000000 000005    5702  s002546:	oct	5
    051037  aa   104010 104010    5703  	oct	104010104010
    051040  aa   104000 000000    5704  	oct	104000000000
    051041  aa   000000 000005    5705  s002551:	oct	5
    051042  aa   105010 105010    5706  	oct	105010105010
    051043  aa   105000 000000    5707  	oct	105000000000
    051044  aa   000000 000005    5708  s002554:	oct	5
    051045  aa   106010 106010    5709  	oct	106010106010
    051046  aa   106000 000000    5710  	oct	106000000000
    051047  aa   000000 000005    5711  s002557:	oct	5
    051050  aa   107010 107010    5712  	oct	107010107010
    051051  aa   107000 000000    5713  	oct	107000000000
    051052  aa   000000 000005    5714  s002562:	oct	5
    051053  aa   110010 110010    5715  	oct	110010110010
    051054  aa   110000 000000    5716  	oct	110000000000
    051055  aa   000000 000005    5717  s002565:	oct	5
    051056  aa   111010 111010    5718  	oct	111010111010
    051057  aa   111000 000000    5719  	oct	111000000000
    051060  aa   000000 000005    5720  s002570:	oct	5
    051061  aa   112010 112010    5721  	oct	112010112010
    051062  aa   112000 000000    5722  	oct	112000000000
    051063  aa   000000 000005    5723  s002573:	oct	5
    051064  aa   113010 113010    5724  	oct	113010113010
    051065  aa   113000 000000    5725  	oct	113000000000
    051066  aa   000000 000005    5726  s002576:	oct	5
    051067  aa   114010 114010    5727  	oct	114010114010
    051070  aa   114000 000000    5728  	oct	114000000000
    051071  aa   000000 000005    5729  s002601:	oct	5
    051072  aa   115010 115010    5730  	oct	115010115010
    051073  aa   115000 000000    5731  	oct	115000000000
    051074  aa   000000 000005    5732  s002604:	oct	5
    051075  aa   116010 116010    5733  	oct	116010116010
    051076  aa   116000 000000    5734  	oct	116000000000
    051077  aa   000000 000005    5735  s002607:	oct	5
    051100  aa   117010 117010    5736  	oct	117010117010
    051101  aa   117000 000000    5737  	oct	117000000000
    051102  aa   000000 000005    5738  s002612:	oct	5
    051103  aa   120010 120010    5739  	oct	120010120010
    051104  aa   120000 000000    5740  	oct	120000000000
    051105  aa   000000 000005    5741  s002615:	oct	5
    051106  aa   121010 121010    5742  	oct	121010121010
    051107  aa   121000 000000    5743  	oct	121000000000
    051110  aa   000000 000005    5744  s002620:	oct	5
    051111  aa   122010 122010    5745  	oct	122010122010
    051112  aa   122000 000000    5746  	oct	122000000000
    051113  aa   000000 000005    5747  s002623:	oct	5
    051114  aa   123010 123010    5748  	oct	123010123010
    051115  aa   123000 000000    5749  	oct	123000000000
    051116  aa   000000 000005    5750  s002626:	oct	5
    051117  aa   124010 124010    5751  	oct	124010124010
    051120  aa   124000 000000    5752  	oct	124000000000
    051121  aa   000000 000005    5753  s002631:	oct	5
    051122  aa   125010 125010    5754  	oct	125010125010
    051123  aa   125000 000000    5755  	oct	125000000000
    051124  aa   000000 000005    5756  s002634:	oct	5
    051125  aa   126010 126010    5757  	oct	126010126010
    051126  aa   126000 000000    5758  	oct	126000000000
    051127  aa   000000 000005    5759  s002637:	oct	5
    051130  aa   127010 127010    5760  	oct	127010127010
    051131  aa   127000 000000    5761  	oct	127000000000
    051132  aa   000000 000005    5762  s002642:	oct	5
    051133  aa   130010 130010    5763  	oct	130010130010
    051134  aa   130000 000000    5764  	oct	130000000000
    051135  aa   000000 000005    5765  s002645:	oct	5
    051136  aa   131010 131010    5766  	oct	131010131010
    051137  aa   131000 000000    5767  	oct	131000000000
    051140  aa   000000 000005    5768  s002650:	oct	5
    051141  aa   132010 132010    5769  	oct	132010132010
    051142  aa   132000 000000    5770  	oct	132000000000
    051143  aa   000000 000005    5771  s002653:	oct	5
    051144  aa   133010 133010    5772  	oct	133010133010
    051145  aa   133000 000000    5773  	oct	133000000000
    051146  aa   000000 000005    5774  s002656:	oct	5
    051147  aa   134010 134010    5775  	oct	134010134010
    051150  aa   134000 000000    5776  	oct	134000000000
    051151  aa   000000 000005    5777  s002661:	oct	5
    051152  aa   135010 135010    5778  	oct	135010135010
    051153  aa   135000 000000    5779  	oct	135000000000
    051154  aa   000000 000005    5780  s002664:	oct	5
    051155  aa   136010 136010    5781  	oct	136010136010
    051156  aa   136000 000000    5782  	oct	136000000000
    051157  aa   000000 000005    5783  s002667:	oct	5
    051160  aa   137010 137010    5784  	oct	137010137010
    051161  aa   137000 000000    5785  	oct	137000000000
    051162  aa   000000 000005    5786  s002672:	oct	5
    051163  aa   140010 140010    5787  	oct	140010140010
    051164  aa   140000 000000    5788  	oct	140000000000
    051165  aa   000000 000005    5789  s002675:	oct	5
    051166  aa   141010 141010    5790  	oct	141010141010
    051167  aa   141000 000000    5791  	oct	141000000000
    051170  aa   000000 000005    5792  s002700:	oct	5
    051171  aa   142010 142010    5793  	oct	142010142010
    051172  aa   142000 000000    5794  	oct	142000000000
    051173  aa   000000 000005    5795  s002703:	oct	5
    051174  aa   143010 143010    5796  	oct	143010143010
    051175  aa   143000 000000    5797  	oct	143000000000
    051176  aa   000000 000005    5798  s002706:	oct	5
    051177  aa   144010 144010    5799  	oct	144010144010
    051200  aa   144000 000000    5800  	oct	144000000000
    051201  aa   000000 000005    5801  s002711:	oct	5
    051202  aa   145010 145010    5802  	oct	145010145010
    051203  aa   145000 000000    5803  	oct	145000000000
    051204  aa   000000 000005    5804  s002714:	oct	5
    051205  aa   146010 146010    5805  	oct	146010146010
    051206  aa   146000 000000    5806  	oct	146000000000
    051207  aa   000000 000005    5807  s002717:	oct	5
    051210  aa   147010 147010    5808  	oct	147010147010
    051211  aa   147000 000000    5809  	oct	147000000000
    051212  aa   000000 000005    5810  s002722:	oct	5
    051213  aa   150010 150010    5811  	oct	150010150010
    051214  aa   150000 000000    5812  	oct	150000000000
    051215  aa   000000 000005    5813  s002725:	oct	5
    051216  aa   151010 151010    5814  	oct	151010151010
    051217  aa   151000 000000    5815  	oct	151000000000
    051220  aa   000000 000005    5816  s002730:	oct	5
    051221  aa   152010 152010    5817  	oct	152010152010
    051222  aa   152000 000000    5818  	oct	152000000000
    051223  aa   000000 000005    5819  s002733:	oct	5
    051224  aa   153010 153010    5820  	oct	153010153010
    051225  aa   153000 000000    5821  	oct	153000000000
    051226  aa   000000 000005    5822  s002736:	oct	5
    051227  aa   154010 154010    5823  	oct	154010154010
    051230  aa   154000 000000    5824  	oct	154000000000
    051231  aa   000000 000005    5825  s002741:	oct	5
    051232  aa   155010 155010    5826  	oct	155010155010
    051233  aa   155000 000000    5827  	oct	155000000000
    051234  aa   000000 000005    5828  s002744:	oct	5
    051235  aa   156010 156010    5829  	oct	156010156010
    051236  aa   156000 000000    5830  	oct	156000000000
    051237  aa   000000 000005    5831  s002747:	oct	5
    051240  aa   157010 157010    5832  	oct	157010157010
    051241  aa   157000 000000    5833  	oct	157000000000
    051242  aa   000000 000005    5834  s002752:	oct	5
    051243  aa   160010 160010    5835  	oct	160010160010
    051244  aa   160000 000000    5836  	oct	160000000000
    051245  aa   000000 000005    5837  s002755:	oct	5
    051246  aa   161010 161010    5838  	oct	161010161010
    051247  aa   161000 000000    5839  	oct	161000000000
    051250  aa   000000 000005    5840  s002760:	oct	5
    051251  aa   162010 162010    5841  	oct	162010162010
    051252  aa   162000 000000    5842  	oct	162000000000
    051253  aa   000000 000005    5843  s002763:	oct	5
    051254  aa   163010 163010    5844  	oct	163010163010
    051255  aa   163000 000000    5845  	oct	163000000000
    051256  aa   000000 000005    5846  s002766:	oct	5
    051257  aa   164010 164010    5847  	oct	164010164010
    051260  aa   164000 000000    5848  	oct	164000000000
    051261  aa   000000 000005    5849  s002771:	oct	5
    051262  aa   165010 165010    5850  	oct	165010165010
    051263  aa   165000 000000    5851  	oct	165000000000
    051264  aa   000000 000005    5852  s002774:	oct	5
    051265  aa   166010 166010    5853  	oct	166010166010
    051266  aa   166000 000000    5854  	oct	166000000000
    051267  aa   000000 000005    5855  s002777:	oct	5
    051270  aa   167010 167010    5856  	oct	167010167010
    051271  aa   167000 000000    5857  	oct	167000000000
    051272  aa   000000 000005    5858  s003002:	oct	5
    051273  aa   170010 170010    5859  	oct	170010170010
    051274  aa   170000 000000    5860  	oct	170000000000
    051275  aa   000000 000005    5861  s003005:	oct	5
    051276  aa   171010 171010    5862  	oct	171010171010
    051277  aa   171000 000000    5863  	oct	171000000000
    051300  aa   000000 000005    5864  s003010:	oct	5
    051301  aa   172010 172010    5865  	oct	172010172010
    051302  aa   172000 000000    5866  	oct	172000000000
    051303  aa   000000 000005    5867  s003013:	oct	5
    051304  aa   173010 173010    5868  	oct	173010173010
    051305  aa   173000 000000    5869  	oct	173000000000
    051306  aa   000000 000005    5870  s003016:	oct	5
    051307  aa   174010 174010    5871  	oct	174010174010
    051310  aa   174000 000000    5872  	oct	174000000000
    051311  aa   000000 000005    5873  s003021:	oct	5
    051312  aa   175010 175010    5874  	oct	175010175010
    051313  aa   175000 000000    5875  	oct	175000000000
    051314  aa   000000 000005    5876  s003024:	oct	5
    051315  aa   176010 176010    5877  	oct	176010176010
    051316  aa   176000 000000    5878  	oct	176000000000
    051317  aa   000000 000003    5879  s003027:	oct	3
    051320  aa   041010 137000    5880  	oct	041010137000
    051321  aa   000000 000003    5881  s003031:	oct	3
    051322  aa   042010 137000    5882  	oct	042010137000
    051323  aa   000000 000003    5883  s003033:	oct	3
    051324  aa   043010 137000    5884  	oct	043010137000
    051325  aa   000000 000003    5885  s003035:	oct	3
    051326  aa   044010 137000    5886  	oct	044010137000
    051327  aa   000000 000003    5887  s003037:	oct	3
    051330  aa   045010 137000    5888  	oct	045010137000
    051331  aa   000000 000003    5889  s003041:	oct	3
    051332  aa   046010 137000    5890  	oct	046010137000
    051333  aa   000000 000003    5891  s003043:	oct	3
    051334  aa   047010 137000    5892  	oct	047010137000
    051335  aa   000000 000003    5893  s003045:	oct	3
    051336  aa   050010 137000    5894  	oct	050010137000
    051337  aa   000000 000003    5895  s003047:	oct	3
    051340  aa   051010 137000    5896  	oct	051010137000
    051341  aa   000000 000003    5897  s003051:	oct	3
    051342  aa   052010 137000    5898  	oct	052010137000
    051343  aa   000000 000003    5899  s003053:	oct	3
    051344  aa   053010 137000    5900  	oct	053010137000
    051345  aa   000000 000003    5901  s003055:	oct	3
    051346  aa   054010 137000    5902  	oct	054010137000
    051347  aa   000000 000003    5903  s003057:	oct	3
    051350  aa   055010 137000    5904  	oct	055010137000
    051351  aa   000000 000003    5905  s003061:	oct	3
    051352  aa   056010 137000    5906  	oct	056010137000
    051353  aa   000000 000003    5907  s003063:	oct	3
    051354  aa   057010 137000    5908  	oct	057010137000
    051355  aa   000000 000003    5909  s003065:	oct	3
    051356  aa   060010 137000    5910  	oct	060010137000
    051357  aa   000000 000003    5911  s003067:	oct	3
    051360  aa   061010 137000    5912  	oct	061010137000
    051361  aa   000000 000003    5913  s003071:	oct	3
    051362  aa   062010 137000    5914  	oct	062010137000
    051363  aa   000000 000003    5915  s003073:	oct	3
    051364  aa   063010 137000    5916  	oct	063010137000
    051365  aa   000000 000003    5917  s003075:	oct	3
    051366  aa   064010 137000    5918  	oct	064010137000
    051367  aa   000000 000003    5919  s003077:	oct	3
    051370  aa   065010 137000    5920  	oct	065010137000
    051371  aa   000000 000003    5921  s003101:	oct	3
    051372  aa   066010 137000    5922  	oct	066010137000
    051373  aa   000000 000003    5923  s003103:	oct	3
    051374  aa   067010 137000    5924  	oct	067010137000
    051375  aa   000000 000003    5925  s003105:	oct	3
    051376  aa   070010 137000    5926  	oct	070010137000
    051377  aa   000000 000003    5927  s003107:	oct	3
    051400  aa   071010 137000    5928  	oct	071010137000
    051401  aa   000000 000003    5929  s003111:	oct	3
    051402  aa   072010 137000    5930  	oct	072010137000
    051403  aa   000000 000003    5931  s003113:	oct	3
    051404  aa   073010 137000    5932  	oct	073010137000
    051405  aa   000000 000003    5933  s003115:	oct	3
    051406  aa   074010 137000    5934  	oct	074010137000
    051407  aa   000000 000003    5935  s003117:	oct	3
    051410  aa   075010 137000    5936  	oct	075010137000
    051411  aa   000000 000003    5937  s003121:	oct	3
    051412  aa   076010 137000    5938  	oct	076010137000
    051413  aa   000000 000003    5939  s003123:	oct	3
    051414  aa   077010 137000    5940  	oct	077010137000
    051415  aa   000000 000003    5941  s003125:	oct	3
    051416  aa   100010 137000    5942  	oct	100010137000
    051417  aa   000000 000003    5943  s003127:	oct	3
    051420  aa   101010 137000    5944  	oct	101010137000
    051421  aa   000000 000003    5945  s003131:	oct	3
    051422  aa   102010 137000    5946  	oct	102010137000
    051423  aa   000000 000003    5947  s003133:	oct	3
    051424  aa   103010 137000    5948  	oct	103010137000
    051425  aa   000000 000003    5949  s003135:	oct	3
    051426  aa   104010 137000    5950  	oct	104010137000
    051427  aa   000000 000003    5951  s003137:	oct	3
    051430  aa   105010 137000    5952  	oct	105010137000
    051431  aa   000000 000003    5953  s003141:	oct	3
    051432  aa   106010 137000    5954  	oct	106010137000
    051433  aa   000000 000003    5955  s003143:	oct	3
    051434  aa   107010 137000    5956  	oct	107010137000
    051435  aa   000000 000003    5957  s003145:	oct	3
    051436  aa   110010 137000    5958  	oct	110010137000
    051437  aa   000000 000003    5959  s003147:	oct	3
    051440  aa   111010 137000    5960  	oct	111010137000
    051441  aa   000000 000003    5961  s003151:	oct	3
    051442  aa   112010 137000    5962  	oct	112010137000
    051443  aa   000000 000003    5963  s003153:	oct	3
    051444  aa   113010 137000    5964  	oct	113010137000
    051445  aa   000000 000003    5965  s003155:	oct	3
    051446  aa   114010 137000    5966  	oct	114010137000
    051447  aa   000000 000003    5967  s003157:	oct	3
    051450  aa   115010 137000    5968  	oct	115010137000
    051451  aa   000000 000003    5969  s003161:	oct	3
    051452  aa   116010 137000    5970  	oct	116010137000
    051453  aa   000000 000003    5971  s003163:	oct	3
    051454  aa   117010 137000    5972  	oct	117010137000
    051455  aa   000000 000003    5973  s003165:	oct	3
    051456  aa   120010 137000    5974  	oct	120010137000
    051457  aa   000000 000003    5975  s003167:	oct	3
    051460  aa   121010 137000    5976  	oct	121010137000
    051461  aa   000000 000003    5977  s003171:	oct	3
    051462  aa   122010 137000    5978  	oct	122010137000
    051463  aa   000000 000003    5979  s003173:	oct	3
    051464  aa   123010 137000    5980  	oct	123010137000
    051465  aa   000000 000003    5981  s003175:	oct	3
    051466  aa   124010 137000    5982  	oct	124010137000
    051467  aa   000000 000003    5983  s003177:	oct	3
    051470  aa   125010 137000    5984  	oct	125010137000
    051471  aa   000000 000003    5985  s003201:	oct	3
    051472  aa   126010 137000    5986  	oct	126010137000
    051473  aa   000000 000003    5987  s003203:	oct	3
    051474  aa   127010 137000    5988  	oct	127010137000
    051475  aa   000000 000003    5989  s003205:	oct	3
    051476  aa   130010 137000    5990  	oct	130010137000
    051477  aa   000000 000003    5991  s003207:	oct	3
    051500  aa   131010 137000    5992  	oct	131010137000
    051501  aa   000000 000003    5993  s003211:	oct	3
    051502  aa   132010 137000    5994  	oct	132010137000
    051503  aa   000000 000003    5995  s003213:	oct	3
    051504  aa   133010 137000    5996  	oct	133010137000
    051505  aa   000000 000003    5997  s003215:	oct	3
    051506  aa   134010 137000    5998  	oct	134010137000
    051507  aa   000000 000003    5999  s003217:	oct	3
    051510  aa   135010 137000    6000  	oct	135010137000
    051511  aa   000000 000003    6001  s003221:	oct	3
    051512  aa   136010 137000    6002  	oct	136010137000
    051513  aa   000000 000003    6003  s003223:	oct	3
    051514  aa   137010 137000    6004  	oct	137010137000
    051515  aa   000000 000003    6005  s003225:	oct	3
    051516  aa   140010 137000    6006  	oct	140010137000
    051517  aa   000000 000003    6007  s003227:	oct	3
    051520  aa   141010 137000    6008  	oct	141010137000
    051521  aa   000000 000003    6009  s003231:	oct	3
    051522  aa   142010 137000    6010  	oct	142010137000
    051523  aa   000000 000003    6011  s003233:	oct	3
    051524  aa   143010 137000    6012  	oct	143010137000
    051525  aa   000000 000003    6013  s003235:	oct	3
    051526  aa   145010 137000    6014  	oct	145010137000
    051527  aa   000000 000003    6015  s003237:	oct	3
    051530  aa   146010 137000    6016  	oct	146010137000
    051531  aa   000000 000003    6017  s003241:	oct	3
    051532  aa   147010 137000    6018  	oct	147010137000
    051533  aa   000000 000003    6019  s003243:	oct	3
    051534  aa   150010 137000    6020  	oct	150010137000
    051535  aa   000000 000003    6021  s003245:	oct	3
    051536  aa   151010 137000    6022  	oct	151010137000
    051537  aa   000000 000003    6023  s003247:	oct	3
    051540  aa   152010 137000    6024  	oct	152010137000
    051541  aa   000000 000003    6025  s003251:	oct	3
    051542  aa   153010 137000    6026  	oct	153010137000
    051543  aa   000000 000003    6027  s003253:	oct	3
    051544  aa   154010 137000    6028  	oct	154010137000
    051545  aa   000000 000003    6029  s003255:	oct	3
    051546  aa   155010 137000    6030  	oct	155010137000
    051547  aa   000000 000003    6031  s003257:	oct	3
    051550  aa   157010 137000    6032  	oct	157010137000
    051551  aa   000000 000003    6033  s003261:	oct	3
    051552  aa   160010 137000    6034  	oct	160010137000
    051553  aa   000000 000003    6035  s003263:	oct	3
    051554  aa   161010 137000    6036  	oct	161010137000
    051555  aa   000000 000003    6037  s003265:	oct	3
    051556  aa   162010 137000    6038  	oct	162010137000
    051557  aa   000000 000003    6039  s003267:	oct	3
    051560  aa   163010 137000    6040  	oct	163010137000
    051561  aa   000000 000003    6041  s003271:	oct	3
    051562  aa   164010 137000    6042  	oct	164010137000
    051563  aa   000000 000003    6043  s003273:	oct	3
    051564  aa   165010 137000    6044  	oct	165010137000
    051565  aa   000000 000003    6045  s003275:	oct	3
    051566  aa   166010 137000    6046  	oct	166010137000
    051567  aa   000000 000003    6047  s003277:	oct	3
    051570  aa   167010 137000    6048  	oct	167010137000
    051571  aa   000000 000003    6049  s003301:	oct	3
    051572  aa   171010 137000    6050  	oct	171010137000
    051573  aa   000000 000003    6051  s003303:	oct	3
    051574  aa   172010 137000    6052  	oct	172010137000
    051575  aa   000000 000003    6053  s003305:	oct	3
    051576  aa   173010 137000    6054  	oct	173010137000
    051577  aa   000000 000003    6055  s003307:	oct	3
    051600  aa   174010 137000    6056  	oct	174010137000
    051601  aa   000000 000003    6057  s003311:	oct	3
    051602  aa   175010 137000    6058  	oct	175010137000
    051603  aa   000000 000003    6059  s003313:	oct	3
    051604  aa   176010 137000    6060  	oct	176010137000
    051605  aa   000000 000045    6061  s003315:	oct	45
    051606  aa   033063 055040    6062  	oct	033063055040
    051607  aa   040040 040055    6063  	oct	040040040055
    051610  aa   040040 040040    6064  	oct	040040040040
    051611  aa   055040 040040    6065  	oct	055040040040
    051612  aa   040033 064010    6066  	oct	040033064010
    051613  aa   010033 063137    6067  	oct	010033063137
    051614  aa   040040 040040    6068  	oct	040040040040
    051615  aa   040137 040040    6069  	oct	040137040040
    051616  aa   040040 040033    6070  	oct	040040040033
    051617  aa   064000 000000    6071  	oct	064000000000
    051620  aa   000000 000015    6072  s003330:	oct	15
    051621  aa   033063 012174    6073  	oct	033063012174
    051622  aa   033012 033012    6074  	oct	033012033012
    051623  aa   174012 033064    6075  	oct	174012033064
    051624  aa   040000 000000    6076  	oct	040000000000
    051625  aa   000000 000033    6077  s003335:	oct	33
    051626  aa   033063 137033    6078  	oct	033063137033
    051627  aa   012033 012033    6079  	oct	012033012033
    051630  aa   012033 012033    6080  	oct	012033012033
    051631  aa   064137 137010    6081  	oct	064137137010
    051632  aa   033063 012012    6082  	oct	033063012012
    051633  aa   012012 033064    6083  	oct	012012033064
    051634  aa   137033 063000    6084  	oct	137033063000
    051635  aa   000000 000024    6085  s003345:	oct	24
    051636  aa   033063 033012    6086  	oct	033063033012
    051637  aa   033012 033012    6087  	oct	033012033012
    051640  aa   033012 137012    6088  	oct	033012137012
    051641  aa   012012 012033    6089  	oct	012012012033
    051642  aa   064137 033063    6090  	oct	064137033063
    051643  aa   000000 000015    6091  s003353:	oct	15
    051644  aa   033063 010133    6092  	oct	033063010133
    051645  aa   040040 135010    6093  	oct	040040135010
    051646  aa   033064 040033    6094  	oct	033064040033
    051647  aa   063000 000000    6095  	oct	063000000000
    051650  aa   000000 000007    6096  s003360:	oct	7
    051651  aa   041010 041010    6097  	oct	041010041010
    051652  aa   041010 137000    6098  	oct	041010137000
    051653  aa   000000 000007    6099  s003363:	oct	7
    051654  aa   042010 042010    6100  	oct	042010042010
    051655  aa   042010 137000    6101  	oct	042010137000
    051656  aa   000000 000007    6102  s003366:	oct	7
    051657  aa   043010 043010    6103  	oct	043010043010
    051660  aa   043010 137000    6104  	oct	043010137000
    051661  aa   000000 000007    6105  s003371:	oct	7
    051662  aa   044010 044010    6106  	oct	044010044010
    051663  aa   044010 137000    6107  	oct	044010137000
    051664  aa   000000 000007    6108  s003374:	oct	7
    051665  aa   045010 045010    6109  	oct	045010045010
    051666  aa   045010 137000    6110  	oct	045010137000
    051667  aa   000000 000007    6111  s003377:	oct	7
    051670  aa   046010 046010    6112  	oct	046010046010
    051671  aa   046010 137000    6113  	oct	046010137000
    051672  aa   000000 000007    6114  s003402:	oct	7
    051673  aa   047010 047010    6115  	oct	047010047010
    051674  aa   047010 137000    6116  	oct	047010137000
    051675  aa   000000 000007    6117  s003405:	oct	7
    051676  aa   050010 050010    6118  	oct	050010050010
    051677  aa   050010 137000    6119  	oct	050010137000
    051700  aa   000000 000007    6120  s003410:	oct	7
    051701  aa   051010 051010    6121  	oct	051010051010
    051702  aa   051010 137000    6122  	oct	051010137000
    051703  aa   000000 000007    6123  s003413:	oct	7
    051704  aa   052010 052010    6124  	oct	052010052010
    051705  aa   052010 137000    6125  	oct	052010137000
    051706  aa   000000 000007    6126  s003416:	oct	7
    051707  aa   053010 053010    6127  	oct	053010053010
    051710  aa   053010 137000    6128  	oct	053010137000
    051711  aa   000000 000007    6129  s003421:	oct	7
    051712  aa   054010 054010    6130  	oct	054010054010
    051713  aa   054010 137000    6131  	oct	054010137000
    051714  aa   000000 000007    6132  s003424:	oct	7
    051715  aa   055010 055010    6133  	oct	055010055010
    051716  aa   055010 137000    6134  	oct	055010137000
    051717  aa   000000 000007    6135  s003427:	oct	7
    051720  aa   056010 056010    6136  	oct	056010056010
    051721  aa   056010 137000    6137  	oct	056010137000
    051722  aa   000000 000007    6138  s003432:	oct	7
    051723  aa   057010 057010    6139  	oct	057010057010
    051724  aa   057010 137000    6140  	oct	057010137000
    051725  aa   000000 000007    6141  s003435:	oct	7
    051726  aa   060010 060010    6142  	oct	060010060010
    051727  aa   060010 137000    6143  	oct	060010137000
    051730  aa   000000 000007    6144  s003440:	oct	7
    051731  aa   061010 061010    6145  	oct	061010061010
    051732  aa   061010 137000    6146  	oct	061010137000
    051733  aa   000000 000007    6147  s003443:	oct	7
    051734  aa   062010 062010    6148  	oct	062010062010
    051735  aa   062010 137000    6149  	oct	062010137000
    051736  aa   000000 000007    6150  s003446:	oct	7
    051737  aa   063010 063010    6151  	oct	063010063010
    051740  aa   063010 137000    6152  	oct	063010137000
    051741  aa   000000 000007    6153  s003451:	oct	7
    051742  aa   064010 064010    6154  	oct	064010064010
    051743  aa   064010 137000    6155  	oct	064010137000
    051744  aa   000000 000007    6156  s003454:	oct	7
    051745  aa   065010 065010    6157  	oct	065010065010
    051746  aa   065010 137000    6158  	oct	065010137000
    051747  aa   000000 000007    6159  s003457:	oct	7
    051750  aa   066010 066010    6160  	oct	066010066010
    051751  aa   066010 137000    6161  	oct	066010137000
    051752  aa   000000 000007    6162  s003462:	oct	7
    051753  aa   067010 067010    6163  	oct	067010067010
    051754  aa   067010 137000    6164  	oct	067010137000
    051755  aa   000000 000007    6165  s003465:	oct	7
    051756  aa   070010 070010    6166  	oct	070010070010
    051757  aa   070010 137000    6167  	oct	070010137000
    051760  aa   000000 000007    6168  s003470:	oct	7
    051761  aa   071010 071010    6169  	oct	071010071010
    051762  aa   071010 137000    6170  	oct	071010137000
    051763  aa   000000 000007    6171  s003473:	oct	7
    051764  aa   072010 072010    6172  	oct	072010072010
    051765  aa   072010 137000    6173  	oct	072010137000
    051766  aa   000000 000007    6174  s003476:	oct	7
    051767  aa   073010 073010    6175  	oct	073010073010
    051770  aa   073010 137000    6176  	oct	073010137000
    051771  aa   000000 000007    6177  s003501:	oct	7
    051772  aa   074010 074010    6178  	oct	074010074010
    051773  aa   074010 137000    6179  	oct	074010137000
    051774  aa   000000 000007    6180  s003504:	oct	7
    051775  aa   075010 075010    6181  	oct	075010075010
    051776  aa   075010 137000    6182  	oct	075010137000
    051777  aa   000000 000007    6183  s003507:	oct	7
    052000  aa   076010 076010    6184  	oct	076010076010
    052001  aa   076010 137000    6185  	oct	076010137000
    052002  aa   000000 000007    6186  s003512:	oct	7
    052003  aa   077010 077010    6187  	oct	077010077010
    052004  aa   077010 137000    6188  	oct	077010137000
    052005  aa   000000 000007    6189  s003515:	oct	7
    052006  aa   100010 100010    6190  	oct	100010100010
    052007  aa   100010 137000    6191  	oct	100010137000
    052010  aa   000000 000007    6192  s003520:	oct	7
    052011  aa   101010 101010    6193  	oct	101010101010
    052012  aa   101010 137000    6194  	oct	101010137000
    052013  aa   000000 000007    6195  s003523:	oct	7
    052014  aa   102010 102010    6196  	oct	102010102010
    052015  aa   102010 137000    6197  	oct	102010137000
    052016  aa   000000 000007    6198  s003526:	oct	7
    052017  aa   103010 103010    6199  	oct	103010103010
    052020  aa   103010 137000    6200  	oct	103010137000
    052021  aa   000000 000007    6201  s003531:	oct	7
    052022  aa   104010 104010    6202  	oct	104010104010
    052023  aa   104010 137000    6203  	oct	104010137000
    052024  aa   000000 000007    6204  s003534:	oct	7
    052025  aa   105010 105010    6205  	oct	105010105010
    052026  aa   105010 137000    6206  	oct	105010137000
    052027  aa   000000 000007    6207  s003537:	oct	7
    052030  aa   106010 106010    6208  	oct	106010106010
    052031  aa   106010 137000    6209  	oct	106010137000
    052032  aa   000000 000007    6210  s003542:	oct	7
    052033  aa   107010 107010    6211  	oct	107010107010
    052034  aa   107010 137000    6212  	oct	107010137000
    052035  aa   000000 000007    6213  s003545:	oct	7
    052036  aa   110010 110010    6214  	oct	110010110010
    052037  aa   110010 137000    6215  	oct	110010137000
    052040  aa   000000 000007    6216  s003550:	oct	7
    052041  aa   111010 111010    6217  	oct	111010111010
    052042  aa   111010 137000    6218  	oct	111010137000
    052043  aa   000000 000007    6219  s003553:	oct	7
    052044  aa   112010 112010    6220  	oct	112010112010
    052045  aa   112010 137000    6221  	oct	112010137000
    052046  aa   000000 000007    6222  s003556:	oct	7
    052047  aa   113010 113010    6223  	oct	113010113010
    052050  aa   113010 137000    6224  	oct	113010137000
    052051  aa   000000 000007    6225  s003561:	oct	7
    052052  aa   114010 114010    6226  	oct	114010114010
    052053  aa   114010 137000    6227  	oct	114010137000
    052054  aa   000000 000007    6228  s003564:	oct	7
    052055  aa   115010 115010    6229  	oct	115010115010
    052056  aa   115010 137000    6230  	oct	115010137000
    052057  aa   000000 000007    6231  s003567:	oct	7
    052060  aa   116010 116010    6232  	oct	116010116010
    052061  aa   116010 137000    6233  	oct	116010137000
    052062  aa   000000 000007    6234  s003572:	oct	7
    052063  aa   117010 117010    6235  	oct	117010117010
    052064  aa   117010 137000    6236  	oct	117010137000
    052065  aa   000000 000007    6237  s003575:	oct	7
    052066  aa   120010 120010    6238  	oct	120010120010
    052067  aa   120010 137000    6239  	oct	120010137000
    052070  aa   000000 000007    6240  s003600:	oct	7
    052071  aa   121010 121010    6241  	oct	121010121010
    052072  aa   121010 137000    6242  	oct	121010137000
    052073  aa   000000 000007    6243  s003603:	oct	7
    052074  aa   122010 122010    6244  	oct	122010122010
    052075  aa   122010 137000    6245  	oct	122010137000
    052076  aa   000000 000007    6246  s003606:	oct	7
    052077  aa   123010 123010    6247  	oct	123010123010
    052100  aa   123010 137000    6248  	oct	123010137000
    052101  aa   000000 000007    6249  s003611:	oct	7
    052102  aa   124010 124010    6250  	oct	124010124010
    052103  aa   124010 137000    6251  	oct	124010137000
    052104  aa   000000 000007    6252  s003614:	oct	7
    052105  aa   125010 125010    6253  	oct	125010125010
    052106  aa   125010 137000    6254  	oct	125010137000
    052107  aa   000000 000007    6255  s003617:	oct	7
    052110  aa   126010 126010    6256  	oct	126010126010
    052111  aa   126010 137000    6257  	oct	126010137000
    052112  aa   000000 000007    6258  s003622:	oct	7
    052113  aa   127010 127010    6259  	oct	127010127010
    052114  aa   127010 137000    6260  	oct	127010137000
    052115  aa   000000 000007    6261  s003625:	oct	7
    052116  aa   130010 130010    6262  	oct	130010130010
    052117  aa   130010 137000    6263  	oct	130010137000
    052120  aa   000000 000007    6264  s003630:	oct	7
    052121  aa   131010 131010    6265  	oct	131010131010
    052122  aa   131010 137000    6266  	oct	131010137000
    052123  aa   000000 000007    6267  s003633:	oct	7
    052124  aa   132010 132010    6268  	oct	132010132010
    052125  aa   132010 137000    6269  	oct	132010137000
    052126  aa   000000 000007    6270  s003636:	oct	7
    052127  aa   133010 133010    6271  	oct	133010133010
    052130  aa   133010 137000    6272  	oct	133010137000
    052131  aa   000000 000007    6273  s003641:	oct	7
    052132  aa   134010 134010    6274  	oct	134010134010
    052133  aa   134010 137000    6275  	oct	134010137000
    052134  aa   000000 000007    6276  s003644:	oct	7
    052135  aa   135010 135010    6277  	oct	135010135010
    052136  aa   135010 137000    6278  	oct	135010137000
    052137  aa   000000 000007    6279  s003647:	oct	7
    052140  aa   136010 136010    6280  	oct	136010136010
    052141  aa   136010 137000    6281  	oct	136010137000
    052142  aa   000000 000007    6282  s003652:	oct	7
    052143  aa   140010 140010    6283  	oct	140010140010
    052144  aa   140010 137000    6284  	oct	140010137000
    052145  aa   000000 000007    6285  s003655:	oct	7
    052146  aa   141010 141010    6286  	oct	141010141010
    052147  aa   141010 137000    6287  	oct	141010137000
    052150  aa   000000 000007    6288  s003660:	oct	7
    052151  aa   142010 142010    6289  	oct	142010142010
    052152  aa   142010 137000    6290  	oct	142010137000
    052153  aa   000000 000007    6291  s003663:	oct	7
    052154  aa   143010 143010    6292  	oct	143010143010
    052155  aa   143010 137000    6293  	oct	143010137000
    052156  aa   000000 000007    6294  s003666:	oct	7
    052157  aa   144010 144010    6295  	oct	144010144010
    052160  aa   144010 137000    6296  	oct	144010137000
    052161  aa   000000 000007    6297  s003671:	oct	7
    052162  aa   145010 145010    6298  	oct	145010145010
    052163  aa   145010 137000    6299  	oct	145010137000
    052164  aa   000000 000007    6300  s003674:	oct	7
    052165  aa   146010 146010    6301  	oct	146010146010
    052166  aa   146010 137000    6302  	oct	146010137000
    052167  aa   000000 000007    6303  s003677:	oct	7
    052170  aa   147010 147010    6304  	oct	147010147010
    052171  aa   147010 137000    6305  	oct	147010137000
    052172  aa   000000 000007    6306  s003702:	oct	7
    052173  aa   150010 150010    6307  	oct	150010150010
    052174  aa   150010 137000    6308  	oct	150010137000
    052175  aa   000000 000007    6309  s003705:	oct	7
    052176  aa   151010 151010    6310  	oct	151010151010
    052177  aa   151010 137000    6311  	oct	151010137000
    052200  aa   000000 000007    6312  s003710:	oct	7
    052201  aa   152010 152010    6313  	oct	152010152010
    052202  aa   152010 137000    6314  	oct	152010137000
    052203  aa   000000 000007    6315  s003713:	oct	7
    052204  aa   153010 153010    6316  	oct	153010153010
    052205  aa   153010 137000    6317  	oct	153010137000
    052206  aa   000000 000007    6318  s003716:	oct	7
    052207  aa   154010 154010    6319  	oct	154010154010
    052210  aa   154010 137000    6320  	oct	154010137000
    052211  aa   000000 000007    6321  s003721:	oct	7
    052212  aa   155010 155010    6322  	oct	155010155010
    052213  aa   155010 137000    6323  	oct	155010137000
    052214  aa   000000 000007    6324  s003724:	oct	7
    052215  aa   156010 156010    6325  	oct	156010156010
    052216  aa   156010 137000    6326  	oct	156010137000
    052217  aa   000000 000007    6327  s003727:	oct	7
    052220  aa   157010 157010    6328  	oct	157010157010
    052221  aa   157010 137000    6329  	oct	157010137000
    052222  aa   000000 000007    6330  s003732:	oct	7
    052223  aa   160010 160010    6331  	oct	160010160010
    052224  aa   160010 137000    6332  	oct	160010137000
    052225  aa   000000 000007    6333  s003735:	oct	7
    052226  aa   161010 161010    6334  	oct	161010161010
    052227  aa   161010 137000    6335  	oct	161010137000
    052230  aa   000000 000007    6336  s003740:	oct	7
    052231  aa   162010 162010    6337  	oct	162010162010
    052232  aa   162010 137000    6338  	oct	162010137000
    052233  aa   000000 000007    6339  s003743:	oct	7
    052234  aa   163010 163010    6340  	oct	163010163010
    052235  aa   163010 137000    6341  	oct	163010137000
    052236  aa   000000 000007    6342  s003746:	oct	7
    052237  aa   164010 164010    6343  	oct	164010164010
    052240  aa   164010 137000    6344  	oct	164010137000
    052241  aa   000000 000007    6345  s003751:	oct	7
    052242  aa   165010 165010    6346  	oct	165010165010
    052243  aa   165010 137000    6347  	oct	165010137000
    052244  aa   000000 000007    6348  s003754:	oct	7
    052245  aa   166010 166010    6349  	oct	166010166010
    052246  aa   166010 137000    6350  	oct	166010137000
    052247  aa   000000 000007    6351  s003757:	oct	7
    052250  aa   167010 167010    6352  	oct	167010167010
    052251  aa   167010 137000    6353  	oct	167010137000
    052252  aa   000000 000007    6354  s003762:	oct	7
    052253  aa   170010 170010    6355  	oct	170010170010
    052254  aa   170010 137000    6356  	oct	170010137000
    052255  aa   000000 000007    6357  s003765:	oct	7
    052256  aa   171010 171010    6358  	oct	171010171010
    052257  aa   171010 137000    6359  	oct	171010137000
    052260  aa   000000 000007    6360  s003770:	oct	7
    052261  aa   172010 172010    6361  	oct	172010172010
    052262  aa   172010 137000    6362  	oct	172010137000
    052263  aa   000000 000007    6363  s003773:	oct	7
    052264  aa   173010 173010    6364  	oct	173010173010
    052265  aa   173010 137000    6365  	oct	173010137000
    052266  aa   000000 000007    6366  s003776:	oct	7
    052267  aa   174010 174010    6367  	oct	174010174010
    052270  aa   174010 137000    6368  	oct	174010137000
    052271  aa   000000 000007    6369  s004001:	oct	7
    052272  aa   175010 175010    6370  	oct	175010175010
    052273  aa   175010 137000    6371  	oct	175010137000
    052274  aa   000000 000007    6372  s004004:	oct	7
    052275  aa   176010 176010    6373  	oct	176010176010
    052276  aa   176010 137000    6374  	oct	176010137000
    052277  aa   000000 000021    6375  s004007:	oct	21
    052300  aa   033063 055040    6376  	oct	033063055040
    052301  aa   040040 055040    6377  	oct	040040055040
    052302  aa   040040 055040    6378  	oct	040040055040
    052303  aa   040040 040033    6379  	oct	040040040033
    052304  aa   064000 000000    6380  	oct	064000000000
    052305  aa   000000 000025    6381  s004015:	oct	25
    052306  aa   033063 055040    6382  	oct	033063055040
    052307  aa   040040 055040    6383  	oct	040040055040
    052310  aa   040040 055040    6384  	oct	040040055040
    052311  aa   040040 040033    6385  	oct	040040040033
    052312  aa   064010 010137    6386  	oct	064010010137
    052313  aa   137000 000000    6387  	oct	137000000000
    052314  aa   000000 000013    6388  s004024:	oct	13
    052315  aa   033063 010133    6389  	oct	033063010133
    052316  aa   040040 135040    6390  	oct	040040135040
    052317  aa   040040 040000    6391  	oct	040040040000
    052320  aa   000000 000012    6392  s004030:	oct	12
    052321  aa   033063 010140    6393  	oct	033063010140
    052322  aa   040040 040140    6394  	oct	040040040140
    052323  aa   040040 000000    6395  	oct	040040000000
    052324  aa   000000 000012    6396  s004034:	oct	12
    052325  aa   033063 010047    6397  	oct	033063010047
    052326  aa   040040 040047    6398  	oct	040040040047
    052327  aa   040040 000000    6399  	oct	040040000000
    052330  aa   000000 000016    6400  s004040:	oct	16
    052331  aa   033063 055040    6401  	oct	033063055040
    052332  aa   040040 040055    6402  	oct	040040040055
    052333  aa   040040 040040    6403  	oct	040040040040
    052334  aa   033064 000000    6404  	oct	033064000000
    052335  aa   000000 000012    6405  s004045:	oct	12
    052336  aa   033063 010133    6406  	oct	033063010133
    052337  aa   040040 135040    6407  	oct	040040135040
    052340  aa   040040 000000    6408  	oct	040040000000
    052341  aa   000000 000022    6409  s004051:	oct	22
    052342  aa   033063 055040    6410  	oct	033063055040
    052343  aa   040040 040055    6411  	oct	040040040055
    052344  aa   040040 040040    6412  	oct	040040040040
    052345  aa   033064 010010    6413  	oct	033064010010
    052346  aa   137137 000000    6414  	oct	137137000000
    052347  aa   000000 000010    6415  s004057:	oct	10
    052350  aa   033064 033037    6416  	oct	033064033037
    052351  aa   015033 036011    6417  	oct	015033036011
    052352  aa   000000 000165    6418  s004062:	oct	165
    052353  aa   040124 171160    6419  	oct	040124171160
    052354  aa   145040 127150    6420  	oct	145040127150
    052355  aa   145145 154040    6421  	oct	145145154040
    052356  aa   111144 145156    6422  	oct	111144145156
    052357  aa   164151 146151    6423  	oct	164151146151
    052360  aa   143141 164151    6424  	oct	143141164151
    052361  aa   157156 012040    6425  	oct	157156012040
    052362  aa   061040 055040    6426  	oct	061040055040
    052363  aa   063070 061060    6427  	oct	063070061060
    052364  aa   061055 060061    6428  	oct	061055060061
    052365  aa   011120 111103    6429  	oct	011120111103
    052366  aa   101040 061060    6430  	oct	101040061060
    052367  aa   012040 062040    6431  	oct	012040062040
    052370  aa   055040 063070    6432  	oct	055040063070
    052371  aa   065061 060011    6433  	oct	065061060011
    052372  aa   101120 114040    6434  	oct	101120114040
    052373  aa   061060 012040    6435  	oct	061060012040
    052374  aa   063040 055040    6436  	oct	063040055040
    052375  aa   063070 061060    6437  	oct	063070061060
    052376  aa   062055 060061    6438  	oct	062055060061
    052377  aa   011105 114111    6439  	oct	011105114111
    052400  aa   124105 040061    6440  	oct	124105040061
    052401  aa   062012 104102    6441  	oct	062012104102
    052402  aa   072040 150171    6442  	oct	072040150171
    052403  aa   164145 162155    6443  	oct	164145162155
    052404  aa   137167 162151    6444  	oct	137167162151
    052405  aa   164145 162137    6445  	oct	164145162137
    052406  aa   044144 151163    6446  	oct	044144151163
    052407  aa   160154 141171    6447  	oct	160154141171
    052410  aa   012000 000000    6448  	oct	012000000000
    052411  aa   000000 000003    6449  s004121:	oct	3
    052412  aa   001015 066000    6450  	oct	001015066000
    052413  aa   000000 000003    6451  s004123:	oct	3
    052414  aa   001013 065000    6452  	oct	001013065000
    052415  aa   000000 000003    6453  s004125:	oct	3
    052416  aa   001011 064000    6454  	oct	001011064000
    052417  aa   000000 000020    6455  s004127:	oct	20
    052420  aa   163171 156137    6456  	oct	163171156137
    052421  aa   040165 163145    6457  	oct	040165163145
    052422  aa   162137 157165    6458  	oct	162137157165
    052423  aa   164160 165164    6459  	oct	164160165164
                                  6460  	end

NO LITERALS

NAME DEFINITIONS FOR ENTRY POINTS AND SEGDEFS

    052454  5a   000003 000000
    052455  5a   000077 600000
    052456  aa   000000 000000
    052457  55   000012 000002
    052460  5a   000002 400003
    052461  55   000006 000012
    052462  aa  017 150 171 164
    052463  aa  145 162 155 056
    052464  aa  143 157 155 160
    052465  aa  137 144 163 155
    052466  55   000021 000003
    052467  0a   000037 400000
    052470  55   000015 000003
    052471  aa  016 163 160 151         spinwriter.dvt
    052472  aa  156 167 162 151
    052473  aa  164 145 162 056
    052474  aa  144 166 164 000
    052475  55   000027 000012
    052476  0a   000037 400000
    052477  55   000024 000003
    052500  aa  013 156 145 143         nec5525.dvt
    052501  aa  065 065 062 065
    052502  aa  056 144 166 164
    052503  55   000035 000021
    052504  0a   000025 400000
    052505  55   000032 000003
    052506  aa  010 166 150 171         vhyt.dvt
    052507  aa  164 056 144 166
    052510  aa  164 000 000 000
    052511  55   000045 000027
    052512  0a   000013 400000
    052513  55   000040 000003
    052514  aa  020 150 171 164         hyterm_draft.dvt
    052515  aa  145 162 155 137
    052516  aa  144 162 141 146
    052517  aa  164 056 144 166
    052520  aa  164 000 000 000
    052521  55   000054 000035
    052522  0a   000001 400000
    052523  55   000050 000003
    052524  aa  016 144 151 141         diablo1620.dvt
    052525  aa  142 154 157 061
    052526  aa  066 062 060 056
    052527  aa  144 166 164 000
    052530  55   000062 000045
    052531  0a   000001 400000
    052532  55   000057 000003
    052533  aa  012 110 131 124         HYTERM.dvt
    052534  aa  105 122 115 056
    052535  aa  144 166 164 000
    052536  55   000070 000054
    052537  0a   000001 400000
    052540  55   000065 000003
    052541  aa  012 150 171 164         hyterm.dvt
    052542  aa  145 162 155 056
    052543  aa  144 166 164 000
    052544  55   000002 000062
    052545  6a   000000 400002
    052546  55   000073 000003
    052547  aa  014 163 171 155         symbol_table
    052550  aa  142 157 154 137
    052551  aa  164 141 142 154
    052552  aa  145 000 000 000

DEFINITIONS HASH TABLE

    052553  aa   000000 000015
    052554  aa   000000 000000
    052555  aa   000000 000000
    052556  5a   000027 000000
    052557  aa   000000 000000
    052560  5a   000035 000000
    052561  5a   000054 000000
    052562  5a   000070 000000
    052563  aa   000000 000000
    052564  5a   000062 000000
    052565  aa   000000 000000
    052566  5a   000021 000000
    052567  5a   000045 000000
    052570  5a   000012 000000

EXTERNAL NAMES

    052571  aa  007 141 162 164         artproc
    052572  aa  160 162 157 143
    052573  aa  010 146 157 157         footproc
    052574  aa  164 160 162 157
    052575  aa  143 000 000 000
    052576  aa  016 150 171 164         hyterm_writer_
    052577  aa  145 162 155 137
    052600  aa  167 162 151 164
    052601  aa  145 162 137 000

NO TRAP POINTER WORDS

TYPE PAIR BLOCKS

    052602  aa   000004 000000
    052603  55   000122 000115
    052604  aa   000004 000000
    052605  55   000122 000117
    052606  aa   000004 000000
    052607  55   000122 000122
    052610  aa   000001 000000
    052611  aa   000000 000000

INTERNAL EXPRESSION WORDS

    052612  5a   000126 000000
    052613  5a   000130 000000
    052614  5a   000132 000000
    052615  aa   000000 000000
LINKAGE INFORMATION

    000000  aa   000000 000000
    000001  0a   052454 000000
    000002  aa   000000 000000
    000003  aa   000000 000000
    000004  aa   000000 000000
    000005  aa   000000 000000
    000006  22   000010 000016
    000007  a2   000000 000000
    000010  9a   777770 0000 46         hyterm_writer_|hyterm_writer_
    000011  5a   000140 0000 00
    000012  9a   777766 0000 46         hyterm_writer_|footproc
    000013  5a   000137 0000 00
    000014  9a   777764 0000 46         hyterm_writer_|artproc
    000015  5a   000136 0000 00
SYMBOL INFORMATION

SYMBOL TABLE HEADER

    000000  aa   000000 000001
    000001  aa   163171 155142
    000002  aa   164162 145145
    000003  aa   000000 000004
    000004  aa   000000 110172
    000005  aa   711315 365225
    000006  aa   000000 110215
    000007  aa   406073 165327
    000010  aa   141154 155040
    000011  aa   040040 040040
    000012  aa   000024 000040
    000013  aa   000034 000040
    000014  aa   000044 000100
    000015  aa   000002 000002
    000016  aa   000064 000000
    000017  aa   000000 003136
    000020  aa   000000 000125
    000021  aa   000000 003123
    000022  aa   003127 000125
    000023  aa   000064 000000
    000024  aa   101114 115040
    000025  aa   126145 162163
    000026  aa   151157 156040
    000027  aa   040066 056064
    000030  aa   040040 101160
    000031  aa   162151 154040
    000032  aa   061071 070061
    000033  aa   040040 040040
    000034  aa   115141 162164
    000035  aa   151156 163157
    000036  aa   156056 123171
    000037  aa   163115 141151
    000040  aa   156164 056141
    000041  aa   040040 040040
    000042  aa   040040 040040
    000043  aa   040040 040040
    000044  aa   154151 163164
    000045  aa   040040 040040
    000046  aa   040040 040040
    000047  aa   040040 040040
    000050  aa   040040 040040
    000051  aa   040040 040040
    000052  aa   040040 040040
    000053  aa   040040 040040
    000054  aa   040040 040040
    000055  aa   040040 040040
    000056  aa   040040 040040
    000057  aa   040040 040040
    000060  aa   040040 040040
    000061  aa   040040 040040
    000062  aa   040040 040040
    000063  aa   040040 040040
    000064  aa   000000 000001
    000065  aa   000000 000002
    000066  aa   000076 000060
    000067  aa   102146 306536
    000070  aa   000000 110215
    000071  aa   406074 000000
    000072  aa   000112 000054
    000073  aa   102146 277174
    000074  aa   000000 110215
    000075  aa   166406 000000
    000076  aa   076163 160145          >special_ldd>online>comp-dir>hyterm.comp_dsm.alm
    000077  aa   143151 141154
    000100  aa   137154 144144
    000101  aa   076157 156154
    000102  aa   151156 145076
    000103  aa   143157 155160
    000104  aa   055144 151162
    000105  aa   076150 171164
    000106  aa   145162 155056
    000107  aa   143157 155160
    000110  aa   137144 163155
    000111  aa   056141 154155
    000112  aa   076163 160145          >special_ldd>online>comp-dir>compdv.incl.alm
    000113  aa   143151 141154
    000114  aa   137154 144144
    000115  aa   076157 156154
    000116  aa   151156 145076
    000117  aa   143157 155160
    000120  aa   055144 151162
    000121  aa   076143 157155
    000122  aa   160144 166056
    000123  aa   151156 143154
    000124  aa   056141 154155
               MULTICS ASSEMBLY CROSS REFERENCE LISTING

   Value        Symbol                   Source file   Line number

           5    .seq_out.                hyterm.comp_dsm:     71,  188,  307,  408,
                                         compdv:       397.
           2    .str_out.                compdv:       396.
           0    art000000                compdv:       394.
                artproc                  hyterm.comp_dsm:     41,  158,  277,  378.
           1    diablo1620.dvt           hyterm.comp_dsm:     12.
           0    dvc000000                hyterm.comp_dsm:     64,  181,  300,  401,
                                         compdv:       395.
           1    dvid.1                   hyterm.comp_dsm:      3,    8,   10,   12.
          13    dvid.2                   hyterm.comp_dsm:     14,   19.
          25    dvid.3                   hyterm.comp_dsm:     21,   26.
          37    dvid.4                   hyterm.comp_dsm:     28,   33,   35.
          52    dvt.1                    hyterm.comp_dsm:      6,   37.
         714    dvt.3                    hyterm.comp_dsm:     17,  154.
        1566    dvt.5                    hyterm.comp_dsm:     24,  273.
        2320    dvt.7                    hyterm.comp_dsm:     31,  374.
       52424    e.._00000                hyterm.comp_dsm:     39.
       52426    e.._00001                hyterm.comp_dsm:     40.
       52430    e.._00002                hyterm.comp_dsm:     41.
       52432    e.._00003                hyterm.comp_dsm:    156.
       52434    e.._00004                hyterm.comp_dsm:    157.
       52436    e.._00005                hyterm.comp_dsm:    158.
       52440    e.._00006                hyterm.comp_dsm:    275.
       52442    e.._00007                hyterm.comp_dsm:    276.
       52444    e.._00010                hyterm.comp_dsm:    277.
       52446    e.._00011                hyterm.comp_dsm:    376.
       52450    e.._00012                hyterm.comp_dsm:    377.
       52452    e.._00013                hyterm.comp_dsm:    378.
        5053    f.1                      hyterm.comp_dsm:    492,  528,  532,  544,  548,  554,  598,  602,  614,  618,  624,  839.
        5152    f.10                     hyterm.comp_dsm:    696,  700,  712,  716,  736,  911.
        5161    f.11                     hyterm.comp_dsm:    668,  676,  692,  748,  919.
        5170    f.12                     hyterm.comp_dsm:    754,  790,  794,  806,  810,  816,  927.
        5177    f.13                     hyterm.comp_dsm:    758,  766,  774,  778,  822,  935.
        5206    f.14                     hyterm.comp_dsm:    782,  786,  798,  802,  828,  943.
        5215    f.15                     hyterm.comp_dsm:    762,  770,  834,  951.
        5224    f.16                     hyterm.comp_dsm:    959.
        5233    f.17                     hyterm.comp_dsm:    967.
        5242    f.18                     hyterm.comp_dsm:    975.
        5251    f.19                     hyterm.comp_dsm:    983.
        5062    f.2                      hyterm.comp_dsm:    847.
        5260    f.20                     hyterm.comp_dsm:    991.
        5267    f.21                     hyterm.comp_dsm:    999.
        5276    f.22                     hyterm.comp_dsm:   1007.
        5305    f.23                     hyterm.comp_dsm:   1015.
        5071    f.3                      hyterm.comp_dsm:    582,  630,  855.
        5100    f.4                      hyterm.comp_dsm:    496,  504,  512,  516,  558,  566,  574,  578,  636,  863.
        5107    f.5                      hyterm.comp_dsm:    520,  524,  536,  540,  590,  594,  606,  610,  642,  871.
        5116    f.6                      hyterm.comp_dsm:    586,  648,  879.
        5125    f.7                      hyterm.comp_dsm:    500,  508,  562,  570,  654,  887.
        5134    f.8                      hyterm.comp_dsm:    660,  704,  708,  720,  724,  730,  895.
        5143    f.9                      hyterm.comp_dsm:    664,  672,  680,  684,  688,  742,  903.
                footproc                 hyterm.comp_dsm:     40,  157,  276,  377.
           1    HYTERM.dvt               hyterm.comp_dsm:     10.
           1    hyterm.dvt               hyterm.comp_dsm:      8.
          13    hyterm_draft.dvt         hyterm.comp_dsm:     19.
                hyterm_writer_           hyterm.comp_dsm:     39,   40,   41,  156,  157,  158,  275,  276,  277,  376,  377,  378.
         707    med_sel.1                hyterm.comp_dsm:     65,  148.
        1562    med_sel.3                hyterm.comp_dsm:    182,  267.
        2313    med_sel.5                hyterm.comp_dsm:    301,  368.
        3155    med_sel.7                hyterm.comp_dsm:    402,  485.
        3161    mem.1                    hyterm.comp_dsm:     74,   76,   78,   80,  191,  193,  195,  197,  411,  413,  415,
                                                             417,  490.
        4416    mem.10                   hyterm.comp_dsm:    140,  259,  352,  354,  477,  728.
        4433    mem.11                   hyterm.comp_dsm:    142,  261,  356,  358,  479,  734.
        4450    mem.12                   hyterm.comp_dsm:    144,  263,  360,  362,  481,  740.
        4465    mem.13                   hyterm.comp_dsm:    146,  265,  364,  366,  483,  746.
        3446    mem.2                    hyterm.comp_dsm:     82,  199,  201,  419,  552.
        4502    mem.27                   hyterm.comp_dsm:    310,  312,  752.
        4767    mem.28                   hyterm.comp_dsm:    314,  316,  318,  320,  322,  814.
        5004    mem.29                   hyterm.comp_dsm:    324,  326,  328,  330,  332,  334,  820.
        3763    mem.3                    hyterm.comp_dsm:     84,   86,   88,   90,   92,   94,   96,   98,  100,  203,  205,
                                                             207,  209,  211,  213,  421,  423,  425,  427,  429,  431,  433,
                                                             435,  437,  622.
        5021    mem.30                   hyterm.comp_dsm:    336,  338,  340,  342,  826.
        5036    mem.31                   hyterm.comp_dsm:    344,  346,  348,  832.
        4000    mem.4                    hyterm.comp_dsm:    102,  104,  106,  215,  217,  439,  441,  443,  628.
        4015    mem.5                    hyterm.comp_dsm:    108,  110,  112,  114,  219,  221,  223,  225,  227,  229,  231,
                                                             445,  447,  449,  451,  634.
        4032    mem.6                    hyterm.comp_dsm:    116,  118,  120,  122,  124,  126,  128,  233,  235,  237,  239,
                                                             241,  243,  245,  453,  455,  457,  459,  461,  463,  465,  640.
        4047    mem.7                    hyterm.comp_dsm:    130,  132,  247,  249,  467,  469,  646.
        4064    mem.8                    hyterm.comp_dsm:    134,  136,  251,  253,  255,  471,  473,  652.
        4101    mem.9                    hyterm.comp_dsm:    138,  257,  350,  475,  658.
          37    nec5525.dvt              hyterm.comp_dsm:     33.
       34314    opu.1                    hyterm.comp_dsm:    841, 1780.
       42465    opu.10                   hyterm.comp_dsm:    913, 3586.
       43226    opu.11                   hyterm.comp_dsm:    921, 3795.
       43767    opu.12                   hyterm.comp_dsm:    929, 3934.
       44530    opu.13                   hyterm.comp_dsm:    937, 4145.
       45271    opu.14                   hyterm.comp_dsm:    945, 4284.
       46032    opu.15                   hyterm.comp_dsm:    953, 4493.
       46226    opu.16                   hyterm.comp_dsm:    961, 4524.
       46270    opu.17                   hyterm.comp_dsm:    969, 4528.
       46332    opu.18                   hyterm.comp_dsm:    977, 4532.
       46374    opu.19                   hyterm.comp_dsm:    985, 4536.
       35055    opu.2                    hyterm.comp_dsm:    849, 1993.
       46436    opu.20                   hyterm.comp_dsm:    993, 4540.
       46500    opu.21                   hyterm.comp_dsm:   1001, 4544.
       46542    opu.22                   hyterm.comp_dsm:   1009, 4548.
       46604    opu.23                   hyterm.comp_dsm:   1017, 4552.
       35616    opu.3                    hyterm.comp_dsm:    857, 2200.
       36357    opu.4                    hyterm.comp_dsm:    865, 2407.
       37120    opu.5                    hyterm.comp_dsm:    873, 2612.
       37661    opu.6                    hyterm.comp_dsm:    881, 2822.
       40422    opu.7                    hyterm.comp_dsm:    889, 3031.
       41163    opu.8                    hyterm.comp_dsm:    897, 3236.
       41724    opu.9                    hyterm.comp_dsm:    905, 3447.
       52424    s.exec                   hyterm.comp_dsm:     39,   40,   41,  156,  157,  158,  275,  276,  277,  376,  377,  378.
           0    s.table                  hyterm.comp_dsm:     39,   40,   41,  156,  157,  158,  275,  276,  277,  376,  377,
                                                             378,
                                         compdv:       391.
           0    s000000                  hyterm.comp_dsm:    370,
                                         compdv:       393.
       46650    s000002                  hyterm.comp_dsm:   1892, 2103, 2310, 2515, 2723, 2932, 3139, 3348, 3489, 3696, 3837,
                                                            4046, 4187, 4394, 4560.
       46651    s000361                  hyterm.comp_dsm:   1785, 1905, 1909, 1998, 2118, 2205, 2325, 2410, 2530, 2615, 2738,
                                                            2825, 2947, 3034, 3154, 3241, 3361, 3365, 3450, 3504, 3589, 3711,
                                                            3798, 3852, 3939, 4061, 4148, 4202, 4287, 4409, 4496, 4527, 4531,
                                                            4535, 4539, 4543, 4547, 4551, 4555, 4561.
       46653    s000363                  hyterm.comp_dsm:   1786, 1999, 2206, 3242, 3940, 4563.
       46655    s000365                  hyterm.comp_dsm:   1787, 1914, 1915, 2000, 2207, 3243, 3941, 4565.
       46657    s000367                  hyterm.comp_dsm:   1788, 2001, 2208, 3244, 3942, 4567.
       46661    s000371                  hyterm.comp_dsm:   1789, 2002, 2209, 3245, 3943, 4569.
       46663    s000373                  hyterm.comp_dsm:   1790, 2003, 2210, 3246, 3944, 4571.
       46665    s000375                  hyterm.comp_dsm:   1791, 2004, 2211, 3247, 3945, 4573.
       46667    s000377                  hyterm.comp_dsm:   1792, 2005, 2212, 3248, 3946, 4575.
       46671    s000401                  hyterm.comp_dsm:   1793, 2006, 2213, 3249, 3947, 4577.
       46673    s000403                  hyterm.comp_dsm:   1794, 2007, 2214, 3250, 3948, 4579.
       46675    s000405                  hyterm.comp_dsm:   1795, 2008, 2215, 3251, 3949, 4581.
       46677    s000407                  hyterm.comp_dsm:   1796, 2009, 2216, 3252, 3950, 4583.
       46701    s000411                  hyterm.comp_dsm:   1797, 2010, 2217, 3253, 3951, 4585.
       46703    s000413                  hyterm.comp_dsm:   1798, 1911, 1913, 2011, 2218, 3254, 3367, 3952, 4063, 4587.
       46705    s000415                  hyterm.comp_dsm:   1799, 2012, 2219, 3255, 3953, 4589.
       46707    s000417                  hyterm.comp_dsm:   1800, 2013, 2220, 3256, 3954, 4591.
       46711    s000421                  hyterm.comp_dsm:   1801, 2014, 2221, 3257, 3955, 4593.
       46713    s000423                  hyterm.comp_dsm:   1802, 2015, 2222, 3258, 3956, 4595.
       46715    s000425                  hyterm.comp_dsm:   1803, 2016, 2223, 3259, 3957, 4597.
       46717    s000427                  hyterm.comp_dsm:   1804, 2017, 2224, 3260, 3958, 4599.
       46721    s000431                  hyterm.comp_dsm:   1805, 2018, 2225, 3261, 3959, 4601.
       46723    s000433                  hyterm.comp_dsm:   1806, 2019, 2226, 3262, 3960, 4603.
       46725    s000435                  hyterm.comp_dsm:   1807, 2020, 2227, 3263, 3961, 4605.
       46727    s000437                  hyterm.comp_dsm:   1808, 2021, 2228, 3264, 3962, 4607.
       46731    s000441                  hyterm.comp_dsm:   1809, 2022, 2229, 3265, 3963, 4609.
       46733    s000443                  hyterm.comp_dsm:   1810, 2023, 2230, 3266, 3964, 4611.
       46735    s000445                  hyterm.comp_dsm:   1811, 2024, 2231, 3267, 3965, 4613.
       46737    s000447                  hyterm.comp_dsm:   1811, 2024, 2231, 3267, 3965, 4615.
       46741    s000451                  hyterm.comp_dsm:   1813, 2026, 2233, 3269, 3967, 4617.
       46743    s000453                  hyterm.comp_dsm:   1814, 2027, 2234, 3270, 3968, 4619.
       46745    s000455                  hyterm.comp_dsm:   1815, 2028, 2235, 3271, 3969, 4621.
       46747    s000457                  hyterm.comp_dsm:   1816, 2029, 2236, 3272, 3970, 4623.
       46751    s000461                  hyterm.comp_dsm:   1817, 2030, 2237, 3273, 3971, 4625.
       46753    s000463                  hyterm.comp_dsm:   1818, 2031, 2238, 2270, 3274, 3452, 3972, 4150, 4627.
       46755    s000465                  hyterm.comp_dsm:   1819, 2032, 2239, 2271, 3275, 3453, 3973, 4151, 4629.
       46757    s000467                  hyterm.comp_dsm:   1820, 2033, 2240, 2272, 3276, 3454, 3974, 4152, 4631.
       46761    s000471                  hyterm.comp_dsm:   1821, 2034, 2241, 2273, 3277, 3455, 3975, 4153, 4633.
       46763    s000473                  hyterm.comp_dsm:   1822, 2035, 2242, 2274, 3278, 3456, 3976, 4154, 4635.
       46765    s000475                  hyterm.comp_dsm:   1823, 2036, 2243, 2275, 3279, 3457, 3977, 4155, 4637.
       46767    s000477                  hyterm.comp_dsm:   1824, 2037, 2244, 2276, 3280, 3458, 3978, 4156, 4639.
       46771    s000501                  hyterm.comp_dsm:   1825, 2038, 2245, 2277, 3281, 3459, 3979, 4157, 4641.
       46773    s000503                  hyterm.comp_dsm:   1826, 2039, 2246, 2278, 3282, 3460, 3980, 4158, 4643.
       46775    s000505                  hyterm.comp_dsm:   1827, 2040, 2247, 2279, 3283, 3461, 3981, 4159, 4645.
       46777    s000507                  hyterm.comp_dsm:   1828, 2041, 2248, 2280, 3284, 3462, 3982, 4160, 4647.
       47001    s000511                  hyterm.comp_dsm:   1829, 2042, 2249, 2281, 3285, 3463, 3983, 4161, 4649.
       47003    s000513                  hyterm.comp_dsm:   1830, 2043, 2250, 2282, 3286, 3464, 3984, 4162, 4651.
       47005    s000515                  hyterm.comp_dsm:   1831, 2044, 2251, 2283, 3287, 3465, 3985, 4163, 4653.
       47007    s000517                  hyterm.comp_dsm:   1832, 2045, 2252, 2284, 3288, 3466, 3986, 4164, 4655.
       47011    s000521                  hyterm.comp_dsm:   1833, 2046, 2253, 2285, 3289, 3467, 3987, 4165, 4657.
       47013    s000523                  hyterm.comp_dsm:   1834, 2047, 2254, 2286, 3290, 3468, 3988, 4166, 4659.
       47015    s000525                  hyterm.comp_dsm:   1835, 2048, 2255, 2287, 3291, 3469, 3989, 4167, 4661.
       47017    s000527                  hyterm.comp_dsm:   1836, 2049, 2256, 2288, 3292, 3470, 3990, 4168, 4663.
       47021    s000531                  hyterm.comp_dsm:   1837, 2050, 2257, 2289, 3293, 3471, 3991, 4169, 4665.
       47023    s000533                  hyterm.comp_dsm:   1838, 2051, 2258, 2290, 3294, 3472, 3992, 4170, 4667.
       47025    s000535                  hyterm.comp_dsm:   1839, 2052, 2259, 2291, 3295, 3473, 3993, 4171, 4669.
       47027    s000537                  hyterm.comp_dsm:   1840, 2053, 2260, 2292, 3296, 3474, 3994, 4172, 4671.
       47031    s000541                  hyterm.comp_dsm:   1841, 2054, 2261, 2293, 3297, 3475, 3995, 4173, 4673.
       47033    s000543                  hyterm.comp_dsm:   1842, 2055, 2262, 2294, 3298, 3476, 3996, 4174, 4675.
       47035    s000545                  hyterm.comp_dsm:   1843, 2056, 2263, 2295, 3299, 3477, 3997, 4175, 4677.
       47037    s000547                  hyterm.comp_dsm:   1844, 2057, 2264, 3300, 3998, 4679.
       47041    s000551                  hyterm.comp_dsm:   1845, 2058, 2265, 3301, 3999, 4681.
       47043    s000553                  hyterm.comp_dsm:   1846, 2059, 2266, 3302, 4000, 4683.
       47045    s000555                  hyterm.comp_dsm:   1847, 2060, 2267, 3303, 4001, 4685.
       47047    s000557                  hyterm.comp_dsm:   1848, 2061, 2119, 2268, 2326, 2531, 2739, 2948, 3155, 3304, 3366,
                                                            3505, 3712, 3853, 4002, 4062, 4203, 4410, 4687.
       47051    s000561                  hyterm.comp_dsm:   1849, 2062, 2269, 3305, 4003, 4689.
       47053    s000563                  hyterm.comp_dsm:   1850, 2063, 3306, 4004, 4691.
       47055    s000565                  hyterm.comp_dsm:   1851, 2064, 3307, 4005, 4693.
       47057    s000567                  hyterm.comp_dsm:   1852, 2065, 3308, 4006, 4695.
       47061    s000571                  hyterm.comp_dsm:   1853, 2066, 3309, 4007, 4697.
       47063    s000573                  hyterm.comp_dsm:   1854, 2067, 3310, 4008, 4699.
       47065    s000575                  hyterm.comp_dsm:   1855, 2068, 3311, 4009, 4701.
       47067    s000577                  hyterm.comp_dsm:   1856, 2069, 3312, 4010, 4703.
       47071    s000601                  hyterm.comp_dsm:   1857, 2070, 3313, 4011, 4705.
       47073    s000603                  hyterm.comp_dsm:   1858, 2071, 3314, 4012, 4707.
       47075    s000605                  hyterm.comp_dsm:   1859, 2072, 3315, 4013, 4709.
       47077    s000607                  hyterm.comp_dsm:   1860, 2073, 3316, 4014, 4711.
       47101    s000611                  hyterm.comp_dsm:   1861, 2074, 3317, 4015, 4713.
       47103    s000613                  hyterm.comp_dsm:   1862, 2075, 3318, 4016, 4715.
       47105    s000615                  hyterm.comp_dsm:   1863, 2076, 3319, 4017, 4717.
       47107    s000617                  hyterm.comp_dsm:   1864, 2077, 3320, 4018, 4719.
       47111    s000621                  hyterm.comp_dsm:   1865, 2078, 3321, 4019, 4721.
       47113    s000623                  hyterm.comp_dsm:   1866, 2079, 3322, 4020, 4723.
       47115    s000625                  hyterm.comp_dsm:   1867, 2080, 3323, 4021, 4725.
       47117    s000627                  hyterm.comp_dsm:   1868, 2081, 3324, 4022, 4727.
       47121    s000631                  hyterm.comp_dsm:   1869, 2082, 3325, 4023, 4729.
       47123    s000633                  hyterm.comp_dsm:   1870, 2083, 3326, 4024, 4731.
       47125    s000635                  hyterm.comp_dsm:   1871, 2084, 3327, 4025, 4733.
       47127    s000637                  hyterm.comp_dsm:   1872, 2085, 3328, 4026, 4735.
       47131    s000641                  hyterm.comp_dsm:   1873, 2086, 3329, 4027, 4737.
       47133    s000643                  hyterm.comp_dsm:   1874, 2087, 3330, 4028, 4739.
       47135    s000645                  hyterm.comp_dsm:   1875, 2088, 3331, 4029, 4741.
       47137    s000647                  hyterm.comp_dsm:   1876, 2089, 2296, 3332, 4030, 4743.
       47141    s000651                  hyterm.comp_dsm:   1877, 2090, 2297, 3333, 4031, 4745.
       47143    s000653                  hyterm.comp_dsm:   1878, 2091, 2298, 3334, 4032, 4747.
       47145    s000655                  hyterm.comp_dsm:   1879, 2092, 2299, 3335, 4033, 4749.
       47147    s000657                  hyterm.comp_dsm:   1783, 1996, 2203, 3239, 3937, 4751.
       47151    s000661                  hyterm.comp_dsm:   1880, 2093, 2300, 2505, 2710, 2920, 3129, 3336, 3479, 3684, 3827,
                                                            4034, 4177, 4382, 4753.
       47153    s000663                  hyterm.comp_dsm:   1882, 2095, 2302, 2507, 2683, 2713, 2922, 3131, 3338, 3481, 3657,
                                                            3686, 3829, 4036, 4179, 4355, 4384, 4755.
       47155    s000665                  hyterm.comp_dsm:   1883, 2096, 2303, 2508, 2693, 2714, 2923, 3132, 3339, 3482, 3667,
                                                            3687, 3830, 4037, 4180, 4365, 4385, 4757.
       47157    s000667                  hyterm.comp_dsm:   1884, 2097, 2304, 2509, 2703, 2715, 2924, 3133, 3340, 3483, 3677,
                                                            3688, 3831, 4038, 4181, 4375, 4386, 4759.
       47161    s000671                  hyterm.comp_dsm:   1903, 2114, 2321, 2526, 2734, 2943, 3150, 3359, 3500, 3707, 3848,
                                                            4057, 4198, 4405, 4761.
       47163    s000673                  hyterm.comp_dsm:   4763.
       47165    s000675                  hyterm.comp_dsm:   1907, 2116, 2323, 2528, 2736, 2945, 3152, 3363, 3502, 3709, 3850,
                                                            4059, 4200, 4407, 4765.
       47167    s000677                  hyterm.comp_dsm:   1912, 2121, 2328, 2533, 2741, 2950, 3157, 3368, 3507, 3714, 3855,
                                                            4064, 4205, 4412, 4767.
       47172    s000702                  hyterm.comp_dsm:   2117, 2324, 2529, 2737, 2946, 3153, 3364, 3503, 3710, 3851, 4060,
                                                            4201, 4408, 4770.
       47174    s000704                  hyterm.comp_dsm:   1936, 2143, 2350, 2555, 2765, 2974, 3179, 3390, 3529, 3738, 3877,
                                                            4088, 4227, 4436, 4772.
       47211    s000721                  hyterm.comp_dsm:   1942, 2149, 2356, 2561, 2771, 2980, 3185, 3396, 3535, 3744, 3883,
                                                            4094, 4233, 4442, 4785.
       47230    s000740                  hyterm.comp_dsm:   1948, 1960, 2155, 2167, 2362, 2374, 2567, 2579, 2777, 2789, 2986,
                                                            2998, 3191, 3203, 3402, 3414, 3541, 3553, 3750, 3762, 3889, 3901,
                                                            4100, 4112, 4239, 4251, 4448, 4460, 4800.
       47244    s000754                  hyterm.comp_dsm:   1954, 1966, 2161, 2173, 2368, 2380, 2573, 2585, 2783, 2795, 2992,
                                                            3004, 3197, 3209, 3408, 3420, 3547, 3559, 3756, 3768, 3895, 3907,
                                                            4106, 4118, 4245, 4257, 4454, 4466, 4812.
       47262    s000772                  hyterm.comp_dsm:   1938, 1941, 1944, 1947, 1953, 1959, 1962, 1965, 1968, 1971, 1972,
                                                            1974, 1975, 1977, 2145, 2148, 2151, 2154, 2160, 2166, 2169, 2172,
                                                            2175, 2178, 2179, 2181, 2182, 2184, 2352, 2355, 2358, 2361, 2367,
                                                            2373, 2376, 2379, 2382, 2385, 2386, 2388, 2389, 2391, 2557, 2560,
                                                            2563, 2566, 2572, 2578, 2581, 2584, 2587, 2590, 2591, 2593, 2594,
                                                            2596, 2767, 2770, 2773, 2776, 2782, 2788, 2791, 2794, 2797, 2800,
                                                            2801, 2803, 2804, 2806, 2976, 2979, 2982, 2985, 2991, 2997, 3000,
                                                            3003, 3006, 3009, 3010, 3012, 3013, 3015, 3181, 3184, 3187, 3190,
                                                            3196, 3202, 3205, 3208, 3211, 3214, 3215, 3217, 3218, 3220, 3392,
                                                            3395, 3398, 3401, 3407, 3413, 3416, 3419, 3422, 3425, 3426, 3428,
                                                            3429, 3431, 3531, 3534, 3537, 3540, 3546, 3552, 3555, 3558, 3561,
                                                            3564, 3565, 3567, 3568, 3570, 3740, 3743, 3746, 3749, 3755, 3761,
                                                            3764, 3767, 3770, 3773, 3774, 3776, 3777, 3779, 3879, 3882, 3885,
                                                            3888, 3894, 3900, 3903, 3906, 3909, 3912, 3913, 3915, 3916, 3918,
                                                            4090, 4093, 4096, 4099, 4105, 4111, 4114, 4117, 4120, 4123, 4124,
                                                            4126, 4127, 4129, 4229, 4232, 4235, 4238, 4244, 4250, 4253, 4256,
                                                            4259, 4262, 4263, 4265, 4266, 4268, 4438, 4441, 4444, 4447, 4453,
                                                            4459, 4462, 4465, 4468, 4471, 4472, 4474, 4475, 4477, 4826.
       47276    s001006                  hyterm.comp_dsm:   1978, 1980, 1981, 1983, 2185, 2187, 2188, 2190, 2392, 2394, 2395,
                                                            2397, 2597, 2599, 2600, 2602, 2807, 2809, 2810, 2812, 3016, 3018,
                                                            3019, 3021, 3221, 3223, 3224, 3226, 3432, 3434, 3435, 3437, 3571,
                                                            3573, 3574, 3576, 3780, 3782, 3783, 3785, 3919, 3921, 3922, 3924,
                                                            4130, 4132, 4133, 4135, 4269, 4271, 4272, 4274, 4478, 4480, 4481,
                                                            4483, 4838.
       47315    s001025                  hyterm.comp_dsm:   1937, 2144, 2351, 2556, 2766, 2975, 3180, 3391, 3530, 3739, 3878,
                                                            4089, 4228, 4437, 4853.
       47326    s001036                  hyterm.comp_dsm:   1943, 2150, 2357, 2562, 2772, 2981, 3186, 3397, 3536, 3745, 3884,
                                                            4095, 4234, 4443, 4862.
       47341    s001051                  hyterm.comp_dsm:   1949, 1961, 2156, 2168, 2363, 2375, 2568, 2580, 2778, 2790, 2987,
                                                            2999, 3192, 3204, 3403, 3415, 3542, 3554, 3751, 3763, 3890, 3902,
                                                            4101, 4113, 4240, 4252, 4449, 4461, 4873.
       47351    s001061                  hyterm.comp_dsm:   1955, 1967, 2162, 2174, 2369, 2381, 2574, 2586, 2784, 2796, 2993,
                                                            3005, 3198, 3210, 3409, 3421, 3548, 3560, 3757, 3769, 3896, 3908,
                                                            4107, 4119, 4246, 4258, 4455, 4467, 4881.
       47363    s001073                  hyterm.comp_dsm:   1973, 2180, 2387, 2592, 2802, 3011, 3216, 3427, 3566, 3775, 3914,
                                                            4125, 4264, 4473, 4891.
       47373    s001103                  hyterm.comp_dsm:   1979, 2186, 2393, 2598, 2808, 3017, 3222, 3433, 3572, 3781, 3920,
                                                            4131, 4270, 4479, 4899.
       47405    s001115                  hyterm.comp_dsm:   1950, 2157, 2364, 2569, 2779, 2988, 3193, 3404, 3543, 3752, 3891,
                                                            4102, 4241, 4450, 4909.
       47422    s001132                  hyterm.comp_dsm:   1956, 2163, 2370, 2575, 2785, 2994, 3199, 3410, 3549, 3758, 3897,
                                                            4108, 4247, 4456, 4922.
       47437    s001147                  hyterm.comp_dsm:   1940, 2147, 2354, 2559, 2769, 2978, 3183, 3394, 3533, 3742, 3881,
                                                            4092, 4231, 4440, 4935.
       47450    s001160                  hyterm.comp_dsm:   1946, 2153, 2360, 2565, 2775, 2984, 3189, 3400, 3539, 3748, 3887,
                                                            4098, 4237, 4446, 4944.
       47461    s001171                  hyterm.comp_dsm:   1952, 1964, 2159, 2171, 2366, 2378, 2571, 2583, 2781, 2793, 2990,
                                                            3002, 3195, 3207, 3406, 3418, 3545, 3557, 3754, 3766, 3893, 3905,
                                                            4104, 4116, 4243, 4255, 4452, 4464, 4953.
       47472    s001202                  hyterm.comp_dsm:   1958, 1970, 2165, 2177, 2372, 2384, 2577, 2589, 2787, 2799, 2996,
                                                            3008, 3201, 3213, 3412, 3424, 3551, 3563, 3760, 3772, 3899, 3911,
                                                            4110, 4122, 4249, 4261, 4458, 4470, 4962.
       47503    s001213                  hyterm.comp_dsm:   1976, 2183, 2390, 2595, 2805, 3014, 3219, 3430, 3569, 3778, 3917,
                                                            4128, 4267, 4476, 4971.
       47511    s001221                  hyterm.comp_dsm:   1982, 2189, 2396, 2601, 2811, 3020, 3225, 3436, 3575, 3784, 3923,
                                                            4134, 4273, 4482, 4977.
       47525    s001235                  hyterm.comp_dsm:   1939, 2146, 2353, 2558, 2768, 2977, 3182, 3393, 3532, 3741, 3880,
                                                            4091, 4230, 4439, 4989.
       47544    s001254                  hyterm.comp_dsm:   1945, 2152, 2359, 2564, 2774, 2983, 3188, 3399, 3538, 3747, 3886,
                                                            4097, 4236, 4445, 5004.
       47563    s001273                  hyterm.comp_dsm:   1951, 1963, 2158, 2170, 2365, 2377, 2570, 2582, 2780, 2792, 2989,
                                                            3001, 3194, 3206, 3405, 3417, 3544, 3556, 3753, 3765, 3892, 3904,
                                                            4103, 4115, 4242, 4254, 4451, 4463, 5019.
       47601    s001311                  hyterm.comp_dsm:   1957, 1969, 2164, 2176, 2371, 2383, 2576, 2588, 2786, 2798, 2995,
                                                            3007, 3200, 3212, 3411, 3423, 3550, 3562, 3759, 3771, 3898, 3910,
                                                            4109, 4121, 4248, 4260, 4457, 4469, 5033.
       47617    s001327                  hyterm.comp_dsm:   1926, 2133, 2340, 2545, 2755, 2964, 3169, 3380, 3519, 3728, 3867,
                                                            4078, 4217, 4426, 5047.
       47643    s001353                  hyterm.comp_dsm:   1931, 2138, 2345, 2550, 2760, 2969, 3174, 3385, 3524, 3733, 3872,
                                                            4083, 4222, 4431, 5067.
       47671    s001401                  hyterm.comp_dsm:   1925, 2132, 2339, 2544, 2754, 2963, 3168, 3379, 3518, 3727, 3866,
                                                            4077, 4216, 4425, 5089.
       47715    s001425                  hyterm.comp_dsm:   1930, 2137, 2344, 2549, 2759, 2968, 3173, 3384, 3523, 3732, 3871,
                                                            4082, 4221, 4430, 5109.
       47743    s001453                  hyterm.comp_dsm:   1928, 2135, 2342, 2547, 2757, 2966, 3171, 3382, 3521, 3730, 3869,
                                                            4080, 4219, 4428, 5131.
       47766    s001476                  hyterm.comp_dsm:   1933, 2140, 2347, 2552, 2762, 2971, 3176, 3387, 3526, 3735, 3874,
                                                            4085, 4224, 4433, 5150.
       50013    s001523                  hyterm.comp_dsm:   1984, 2191, 2398, 2603, 2813, 3022, 3227, 3438, 3577, 3786, 3925,
                                                            4136, 4275, 4484, 5171.
       50033    s001543                  hyterm.comp_dsm:   1985, 2192, 2399, 2604, 2814, 3023, 3228, 3439, 3578, 3787, 3926,
                                                            4137, 4276, 4485, 5187.
       50062    s001572                  hyterm.comp_dsm:   1899, 2110, 2317, 2522, 2730, 2939, 3146, 3355, 3496, 3703, 3844,
                                                            4053, 4194, 4401, 5210.
       50100    s001610                  hyterm.comp_dsm:   1986, 2193, 2400, 2605, 2815, 3024, 3229, 3440, 3579, 3788, 3927,
                                                            4138, 4277, 4486, 5224.
       50116    s001626                  hyterm.comp_dsm:   1916, 2123, 2330, 2535, 2745, 2954, 3159, 3370, 3509, 3718, 3857,
                                                            4068, 4207, 4416, 5238.
       50135    s001645                  hyterm.comp_dsm:   1921, 2128, 2335, 2540, 2750, 2959, 3164, 3375, 3514, 3723, 3862,
                                                            4073, 4212, 4421, 5253.
       50156    s001666                  hyterm.comp_dsm:   1917, 2124, 2331, 2536, 2746, 2955, 3160, 3371, 3510, 3719, 3858,
                                                            4069, 4208, 4417, 5270.
       50175    s001705                  hyterm.comp_dsm:   1987, 2194, 2401, 2606, 2816, 3025, 3230, 3441, 3580, 3789, 3928,
                                                            4139, 4278, 4487, 5285.
       50207    s001717                  hyterm.comp_dsm:   1918, 2125, 2332, 2537, 2747, 2956, 3161, 3372, 3511, 3720, 3859,
                                                            4070, 4209, 4418, 5295.
       50224    s001734                  hyterm.comp_dsm:   1934, 2141, 2348, 2553, 2763, 2972, 3177, 3388, 3527, 3736, 3875,
                                                            4086, 4225, 4434, 5308.
       50244    s001754                  hyterm.comp_dsm:   1989, 2196, 2403, 2608, 2818, 3027, 3232, 3443, 3582, 3791, 3930,
                                                            4141, 4280, 4489, 5324.
       50251    s001761                  hyterm.comp_dsm:   1924, 2131, 2338, 2543, 2753, 2962, 3167, 3378, 3517, 3726, 3865,
                                                            4076, 4215, 4424, 5329.
       50272    s002002                  hyterm.comp_dsm:   1929, 2136, 2343, 2548, 2758, 2967, 3172, 3383, 3522, 3731, 3870,
                                                            4081, 4220, 4429, 5346.
       50313    s002023                  hyterm.comp_dsm:   1923, 2130, 2337, 2542, 2752, 2961, 3166, 3377, 3516, 3725, 3864,
                                                            4075, 4214, 4423, 5363.
       50324    s002034                  hyterm.comp_dsm:   1920, 2127, 2334, 2539, 2749, 2958, 3163, 3374, 3513, 3722, 3861,
                                                            4072, 4211, 4420, 5372.
       50342    s002052                  hyterm.comp_dsm:   1922, 2129, 2336, 2541, 2751, 2960, 3165, 3376, 3515, 3724, 3863,
                                                            4074, 4213, 4422, 5386.
       50360    s002070                  hyterm.comp_dsm:   1919, 2126, 2333, 2538, 2748, 2957, 3162, 3373, 3512, 3721, 3860,
                                                            4071, 4210, 4419, 5400.
       50374    s002104                  hyterm.comp_dsm:   1991, 2198, 2405, 2610, 2820, 3029, 3234, 3445, 3584, 3793, 3932,
                                                            4143, 4282, 4491, 5412.
       50411    s002121                  hyterm.comp_dsm:   1992, 2199, 2406, 2611, 2821, 3030, 3235, 3446, 3585, 3794, 3933,
                                                            4144, 4283, 4492, 5425.
       50426    s002136                  hyterm.comp_dsm:   1927, 2134, 2341, 2546, 2756, 2965, 3170, 3381, 3520, 3729, 3868,
                                                            4079, 4218, 4427, 5438.
       50461    s002171                  hyterm.comp_dsm:   1932, 2139, 2346, 2551, 2761, 2970, 3175, 3386, 3525, 3734, 3873,
                                                            4084, 4223, 4432, 5465.
       50517    s002227                  hyterm.comp_dsm:   1896, 2107, 2314, 2519, 2727, 2936, 3143, 3352, 3493, 3700, 3841,
                                                            4050, 4191, 4398, 5495.
       50545    s002255                  hyterm.comp_dsm:   1901, 2112, 2319, 2524, 2732, 2941, 3148, 3357, 3498, 3705, 3846,
                                                            4055, 4196, 4403, 5517.
       50600    s002310                  hyterm.comp_dsm:   1890, 2101, 2308, 2513, 2721, 2930, 3137, 3346, 3487, 3694, 3835,
                                                            4044, 4185, 4392, 5544.
       50606    s002316                  hyterm.comp_dsm:   1894, 2105, 2312, 2517, 2725, 2934, 3141, 3350, 3491, 3698, 3839,
                                                            4048, 4189, 4396, 5550.
       50615    s002325                  hyterm.comp_dsm:   1897, 2108, 2315, 2520, 2728, 2937, 3144, 3353, 3494, 3701, 3842,
                                                            4051, 4192, 4399, 5557.
       50624    s002334                  hyterm.comp_dsm:   1887, 2099, 2306, 2511, 2718, 2927, 3135, 3343, 3485, 3691, 3833,
                                                            4041, 4183, 4389, 5564.
       50637    s002347                  hyterm.comp_dsm:   1888, 5575.
       50645    s002355                  hyterm.comp_dsm:   1908, 5581.
       50654    s002364                  hyterm.comp_dsm:   1910, 5588.
       50661    s002371                  hyterm.comp_dsm:   1885, 2716, 3341, 5593.
       50665    s002375                  hyterm.comp_dsm:   2411, 5597.
       50670    s002400                  hyterm.comp_dsm:   2412, 5600.
       50673    s002403                  hyterm.comp_dsm:   2413, 5603.
       50676    s002406                  hyterm.comp_dsm:   2414, 5606.
       50701    s002411                  hyterm.comp_dsm:   2415, 5609.
       50704    s002414                  hyterm.comp_dsm:   2416, 5612.
       50707    s002417                  hyterm.comp_dsm:   2417, 5615.
       50712    s002422                  hyterm.comp_dsm:   2418, 5618.
       50715    s002425                  hyterm.comp_dsm:   2419, 5621.
       50720    s002430                  hyterm.comp_dsm:   2420, 5624.
       50723    s002433                  hyterm.comp_dsm:   2421, 5627.
       50726    s002436                  hyterm.comp_dsm:   2422, 5630.
       50731    s002441                  hyterm.comp_dsm:   2423, 5633.
       50734    s002444                  hyterm.comp_dsm:   2424, 5636.
       50737    s002447                  hyterm.comp_dsm:   2425, 5639.
       50742    s002452                  hyterm.comp_dsm:   2426, 5642.
       50745    s002455                  hyterm.comp_dsm:   2427, 5645.
       50750    s002460                  hyterm.comp_dsm:   2428, 5648.
       50753    s002463                  hyterm.comp_dsm:   2429, 5651.
       50756    s002466                  hyterm.comp_dsm:   2430, 5654.
       50761    s002471                  hyterm.comp_dsm:   2431, 5657.
       50764    s002474                  hyterm.comp_dsm:   2432, 5660.
       50767    s002477                  hyterm.comp_dsm:   2433, 5663.
       50772    s002502                  hyterm.comp_dsm:   2434, 5666.
       50775    s002505                  hyterm.comp_dsm:   2435, 5669.
       51000    s002510                  hyterm.comp_dsm:   2436, 5672.
       51003    s002513                  hyterm.comp_dsm:   2436, 5675.
       51006    s002516                  hyterm.comp_dsm:   2438, 5678.
       51011    s002521                  hyterm.comp_dsm:   2439, 5681.
       51014    s002524                  hyterm.comp_dsm:   2440, 5684.
       51017    s002527                  hyterm.comp_dsm:   2441, 5687.
       51022    s002532                  hyterm.comp_dsm:   2442, 5690.
       51025    s002535                  hyterm.comp_dsm:   2443, 5693.
       51030    s002540                  hyterm.comp_dsm:   2444, 5696.
       51033    s002543                  hyterm.comp_dsm:   2445, 5699.
       51036    s002546                  hyterm.comp_dsm:   2446, 5702.
       51041    s002551                  hyterm.comp_dsm:   2447, 5705.
       51044    s002554                  hyterm.comp_dsm:   2448, 5708.
       51047    s002557                  hyterm.comp_dsm:   2449, 5711.
       51052    s002562                  hyterm.comp_dsm:   2450, 5714.
       51055    s002565                  hyterm.comp_dsm:   2451, 5717.
       51060    s002570                  hyterm.comp_dsm:   2452, 5720.
       51063    s002573                  hyterm.comp_dsm:   2453, 5723.
       51066    s002576                  hyterm.comp_dsm:   2454, 5726.
       51071    s002601                  hyterm.comp_dsm:   2455, 5729.
       51074    s002604                  hyterm.comp_dsm:   2456, 5732.
       51077    s002607                  hyterm.comp_dsm:   2457, 5735.
       51102    s002612                  hyterm.comp_dsm:   2458, 5738.
       51105    s002615                  hyterm.comp_dsm:   2459, 5741.
       51110    s002620                  hyterm.comp_dsm:   2460, 5744.
       51113    s002623                  hyterm.comp_dsm:   2461, 5747.
       51116    s002626                  hyterm.comp_dsm:   2462, 5750.
       51121    s002631                  hyterm.comp_dsm:   2463, 5753.
       51124    s002634                  hyterm.comp_dsm:   2464, 5756.
       51127    s002637                  hyterm.comp_dsm:   2465, 5759.
       51132    s002642                  hyterm.comp_dsm:   2466, 5762.
       51135    s002645                  hyterm.comp_dsm:   2467, 5765.
       51140    s002650                  hyterm.comp_dsm:   2468, 5768.
       51143    s002653                  hyterm.comp_dsm:   2469, 5771.
       51146    s002656                  hyterm.comp_dsm:   2470, 5774.
       51151    s002661                  hyterm.comp_dsm:   2471, 5777.
       51154    s002664                  hyterm.comp_dsm:   2472, 5780.
       51157    s002667                  hyterm.comp_dsm:   2473, 3097, 5783.
       51162    s002672                  hyterm.comp_dsm:   2474, 5786.
       51165    s002675                  hyterm.comp_dsm:   2475, 5789.
       51170    s002700                  hyterm.comp_dsm:   2476, 5792.
       51173    s002703                  hyterm.comp_dsm:   2477, 5795.
       51176    s002706                  hyterm.comp_dsm:   2478, 5798.
       51201    s002711                  hyterm.comp_dsm:   2479, 5801.
       51204    s002714                  hyterm.comp_dsm:   2480, 5804.
       51207    s002717                  hyterm.comp_dsm:   2481, 5807.
       51212    s002722                  hyterm.comp_dsm:   2482, 5810.
       51215    s002725                  hyterm.comp_dsm:   2483, 5813.
       51220    s002730                  hyterm.comp_dsm:   2484, 5816.
       51223    s002733                  hyterm.comp_dsm:   2485, 5819.
       51226    s002736                  hyterm.comp_dsm:   2486, 5822.
       51231    s002741                  hyterm.comp_dsm:   2487, 5825.
       51234    s002744                  hyterm.comp_dsm:   2488, 5828.
       51237    s002747                  hyterm.comp_dsm:   2489, 5831.
       51242    s002752                  hyterm.comp_dsm:   2490, 5834.
       51245    s002755                  hyterm.comp_dsm:   2491, 5837.
       51250    s002760                  hyterm.comp_dsm:   2492, 5840.
       51253    s002763                  hyterm.comp_dsm:   2493, 5843.
       51256    s002766                  hyterm.comp_dsm:   2494, 5846.
       51261    s002771                  hyterm.comp_dsm:   2495, 5849.
       51264    s002774                  hyterm.comp_dsm:   2496, 5852.
       51267    s002777                  hyterm.comp_dsm:   2497, 5855.
       51272    s003002                  hyterm.comp_dsm:   2498, 5858.
       51275    s003005                  hyterm.comp_dsm:   2499, 5861.
       51300    s003010                  hyterm.comp_dsm:   2500, 5864.
       51303    s003013                  hyterm.comp_dsm:   2501, 5867.
       51306    s003016                  hyterm.comp_dsm:   2502, 5870.
       51311    s003021                  hyterm.comp_dsm:   2503, 5873.
       51314    s003024                  hyterm.comp_dsm:   2504, 5876.
       51317    s003027                  hyterm.comp_dsm:   2616, 2826, 3590, 4288, 5879.
       51321    s003031                  hyterm.comp_dsm:   2617, 2743, 2744, 2827, 2952, 2953, 3591, 3716, 3717, 4289, 4414,
                                                            4415, 5881.
       51323    s003033                  hyterm.comp_dsm:   2618, 2828, 3592, 4290, 5883.
       51325    s003035                  hyterm.comp_dsm:   2619, 2829, 3593, 4291, 5885.
       51327    s003037                  hyterm.comp_dsm:   2620, 2830, 3594, 4292, 5887.
       51331    s003041                  hyterm.comp_dsm:   2621, 2831, 3595, 4293, 5889.
       51333    s003043                  hyterm.comp_dsm:   2622, 2832, 3596, 4294, 5891.
       51335    s003045                  hyterm.comp_dsm:   2623, 2833, 3597, 4295, 5893.
       51337    s003047                  hyterm.comp_dsm:   2624, 2834, 3598, 4296, 5895.
       51341    s003051                  hyterm.comp_dsm:   2625, 2835, 3599, 4297, 5897.
       51343    s003053                  hyterm.comp_dsm:   2626, 2836, 3600, 4298, 5899.
       51345    s003055                  hyterm.comp_dsm:   2627, 2837, 3601, 4299, 5901.
       51347    s003057                  hyterm.comp_dsm:   2628, 2740, 2742, 2838, 2951, 3602, 3713, 3715, 4300, 4411, 4413, 5903.
       51351    s003061                  hyterm.comp_dsm:   2629, 2839, 3603, 4301, 5905.
       51353    s003063                  hyterm.comp_dsm:   2630, 2840, 3604, 4302, 5907.
       51355    s003065                  hyterm.comp_dsm:   2631, 2841, 3605, 4303, 5909.
       51357    s003067                  hyterm.comp_dsm:   2632, 2842, 3606, 4304, 5911.
       51361    s003071                  hyterm.comp_dsm:   2633, 2843, 3607, 4305, 5913.
       51363    s003073                  hyterm.comp_dsm:   2634, 2844, 3608, 4306, 5915.
       51365    s003075                  hyterm.comp_dsm:   2635, 2845, 3609, 4307, 5917.
       51367    s003077                  hyterm.comp_dsm:   2636, 2846, 3610, 4308, 5919.
       51371    s003101                  hyterm.comp_dsm:   2637, 2847, 3611, 4309, 5921.
       51373    s003103                  hyterm.comp_dsm:   2638, 2848, 3612, 4310, 5923.
       51375    s003105                  hyterm.comp_dsm:   2639, 2849, 3613, 4311, 5925.
       51377    s003107                  hyterm.comp_dsm:   2640, 2850, 3614, 4312, 5927.
       51401    s003111                  hyterm.comp_dsm:   2641, 2851, 3615, 4313, 5929.
       51403    s003113                  hyterm.comp_dsm:   2641, 2851, 3615, 4313, 5931.
       51405    s003115                  hyterm.comp_dsm:   2643, 2853, 3617, 4315, 5933.
       51407    s003117                  hyterm.comp_dsm:   2644, 2854, 3618, 4316, 5935.
       51411    s003121                  hyterm.comp_dsm:   2645, 2855, 3619, 4317, 5937.
       51413    s003123                  hyterm.comp_dsm:   2646, 2856, 3620, 4318, 5939.
       51415    s003125                  hyterm.comp_dsm:   2647, 2857, 3621, 4319, 5941.
       51417    s003127                  hyterm.comp_dsm:   2648, 2858, 2890, 3622, 3800, 4320, 4498, 5943.
       51421    s003131                  hyterm.comp_dsm:   2649, 2859, 2891, 3623, 3801, 4321, 4499, 5945.
       51423    s003133                  hyterm.comp_dsm:   2650, 2860, 2892, 3624, 3802, 4322, 4500, 5947.
       51425    s003135                  hyterm.comp_dsm:   2651, 2861, 2893, 3625, 3803, 4323, 4501, 5949.
       51427    s003137                  hyterm.comp_dsm:   2652, 2862, 2894, 3626, 3804, 4324, 4502, 5951.
       51431    s003141                  hyterm.comp_dsm:   2653, 2863, 2895, 3627, 3805, 4325, 4503, 5953.
       51433    s003143                  hyterm.comp_dsm:   2654, 2864, 2896, 3628, 3806, 4326, 4504, 5955.
       51435    s003145                  hyterm.comp_dsm:   2655, 2865, 2897, 3629, 3807, 4327, 4505, 5957.
       51437    s003147                  hyterm.comp_dsm:   2656, 2866, 2898, 3630, 3808, 4328, 4506, 5959.
       51441    s003151                  hyterm.comp_dsm:   2657, 2867, 2899, 3631, 3809, 4329, 4507, 5961.
       51443    s003153                  hyterm.comp_dsm:   2658, 2868, 2900, 3632, 3810, 4330, 4508, 5963.
       51445    s003155                  hyterm.comp_dsm:   2659, 2869, 2901, 3633, 3811, 4331, 4509, 5965.
       51447    s003157                  hyterm.comp_dsm:   2660, 2870, 2902, 3634, 3812, 4332, 4510, 5967.
       51451    s003161                  hyterm.comp_dsm:   2661, 2871, 2903, 3635, 3813, 4333, 4511, 5969.
       51453    s003163                  hyterm.comp_dsm:   2662, 2872, 2904, 3636, 3814, 4334, 4512, 5971.
       51455    s003165                  hyterm.comp_dsm:   2663, 2873, 2905, 3637, 3815, 4335, 4513, 5973.
       51457    s003167                  hyterm.comp_dsm:   2664, 2874, 2906, 3638, 3816, 4336, 4514, 5975.
       51461    s003171                  hyterm.comp_dsm:   2665, 2875, 2907, 3639, 3817, 4337, 4515, 5977.
       51463    s003173                  hyterm.comp_dsm:   2666, 2876, 2908, 3640, 3818, 4338, 4516, 5979.
       51465    s003175                  hyterm.comp_dsm:   2667, 2877, 2909, 3641, 3819, 4339, 4517, 5981.
       51467    s003177                  hyterm.comp_dsm:   2668, 2878, 2910, 3642, 3820, 4340, 4518, 5983.
       51471    s003201                  hyterm.comp_dsm:   2669, 2879, 2911, 3643, 3821, 4341, 4519, 5985.
       51473    s003203                  hyterm.comp_dsm:   2670, 2880, 2912, 3644, 3822, 4342, 4520, 5987.
       51475    s003205                  hyterm.comp_dsm:   2671, 2881, 2913, 3645, 3823, 4343, 4521, 5989.
       51477    s003207                  hyterm.comp_dsm:   2672, 2882, 2914, 3646, 3824, 4344, 4522, 5991.
       51501    s003211                  hyterm.comp_dsm:   2673, 2883, 2915, 3647, 3825, 4345, 4523, 5993.
       51503    s003213                  hyterm.comp_dsm:   2674, 2884, 3648, 4346, 5995.
       51505    s003215                  hyterm.comp_dsm:   2675, 2885, 3649, 4347, 5997.
       51507    s003217                  hyterm.comp_dsm:   2676, 2886, 3650, 4348, 5999.
       51511    s003221                  hyterm.comp_dsm:   2677, 2887, 3651, 4349, 6001.
       51513    s003223                  hyterm.comp_dsm:   2678, 2888, 3652, 4350, 6003.
       51515    s003225                  hyterm.comp_dsm:   2679, 2889, 3653, 4351, 6005.
       51517    s003227                  hyterm.comp_dsm:   2680, 3654, 4352, 6007.
       51521    s003231                  hyterm.comp_dsm:   2681, 3655, 4353, 6009.
       51523    s003233                  hyterm.comp_dsm:   2682, 3656, 4354, 6011.
       51525    s003235                  hyterm.comp_dsm:   2684, 3658, 4356, 6013.
       51527    s003237                  hyterm.comp_dsm:   2685, 3659, 4357, 6015.
       51531    s003241                  hyterm.comp_dsm:   2686, 3660, 4358, 6017.
       51533    s003243                  hyterm.comp_dsm:   2687, 3661, 4359, 6019.
       51535    s003245                  hyterm.comp_dsm:   2688, 3662, 4360, 6021.
       51537    s003247                  hyterm.comp_dsm:   2689, 3663, 4361, 6023.
       51541    s003251                  hyterm.comp_dsm:   2690, 3664, 4362, 6025.
       51543    s003253                  hyterm.comp_dsm:   2691, 3665, 4363, 6027.
       51545    s003255                  hyterm.comp_dsm:   2692, 3666, 4364, 6029.
       51547    s003257                  hyterm.comp_dsm:   2694, 3668, 4366, 6031.
       51551    s003261                  hyterm.comp_dsm:   2695, 3669, 4367, 6033.
       51553    s003263                  hyterm.comp_dsm:   2696, 3670, 4368, 6035.
       51555    s003265                  hyterm.comp_dsm:   2697, 3671, 4369, 6037.
       51557    s003267                  hyterm.comp_dsm:   2698, 3672, 4370, 6039.
       51561    s003271                  hyterm.comp_dsm:   2699, 3673, 4371, 6041.
       51563    s003273                  hyterm.comp_dsm:   2700, 3674, 4372, 6043.
       51565    s003275                  hyterm.comp_dsm:   2701, 3675, 4373, 6045.
       51567    s003277                  hyterm.comp_dsm:   2702, 3676, 4374, 6047.
       51571    s003301                  hyterm.comp_dsm:   2704, 3678, 4376, 6049.
       51573    s003303                  hyterm.comp_dsm:   2705, 3679, 4377, 6051.
       51575    s003305                  hyterm.comp_dsm:   2706, 2916, 3680, 4378, 6053.
       51577    s003307                  hyterm.comp_dsm:   2707, 2917, 3681, 4379, 6055.
       51601    s003311                  hyterm.comp_dsm:   2708, 2918, 3682, 4380, 6057.
       51603    s003313                  hyterm.comp_dsm:   2709, 2919, 3683, 4381, 6059.
       51605    s003315                  hyterm.comp_dsm:   2719, 6061.
       51620    s003330                  hyterm.comp_dsm:   2711, 6072.
       51625    s003335                  hyterm.comp_dsm:   2928, 6077.
       51635    s003345                  hyterm.comp_dsm:   2949, 6085.
       51643    s003353                  hyterm.comp_dsm:   2925, 6091.
       51650    s003360                  hyterm.comp_dsm:   3035, 6096.
       51653    s003363                  hyterm.comp_dsm:   3036, 6099.
       51656    s003366                  hyterm.comp_dsm:   3037, 6102.
       51661    s003371                  hyterm.comp_dsm:   3038, 6105.
       51664    s003374                  hyterm.comp_dsm:   3039, 6108.
       51667    s003377                  hyterm.comp_dsm:   3040, 6111.
       51672    s003402                  hyterm.comp_dsm:   3041, 6114.
       51675    s003405                  hyterm.comp_dsm:   3042, 6117.
       51700    s003410                  hyterm.comp_dsm:   3043, 6120.
       51703    s003413                  hyterm.comp_dsm:   3044, 6123.
       51706    s003416                  hyterm.comp_dsm:   3045, 6126.
       51711    s003421                  hyterm.comp_dsm:   3046, 6129.
       51714    s003424                  hyterm.comp_dsm:   3047, 6132.
       51717    s003427                  hyterm.comp_dsm:   3048, 6135.
       51722    s003432                  hyterm.comp_dsm:   3049, 6138.
       51725    s003435                  hyterm.comp_dsm:   3050, 6141.
       51730    s003440                  hyterm.comp_dsm:   3051, 6144.
       51733    s003443                  hyterm.comp_dsm:   3052, 6147.
       51736    s003446                  hyterm.comp_dsm:   3053, 6150.
       51741    s003451                  hyterm.comp_dsm:   3054, 6153.
       51744    s003454                  hyterm.comp_dsm:   3055, 6156.
       51747    s003457                  hyterm.comp_dsm:   3056, 6159.
       51752    s003462                  hyterm.comp_dsm:   3057, 6162.
       51755    s003465                  hyterm.comp_dsm:   3058, 6165.
       51760    s003470                  hyterm.comp_dsm:   3059, 6168.
       51763    s003473                  hyterm.comp_dsm:   3060, 6171.
       51766    s003476                  hyterm.comp_dsm:   3060, 6174.
       51771    s003501                  hyterm.comp_dsm:   3062, 6177.
       51774    s003504                  hyterm.comp_dsm:   3063, 6180.
       51777    s003507                  hyterm.comp_dsm:   3064, 6183.
       52002    s003512                  hyterm.comp_dsm:   3065, 6186.
       52005    s003515                  hyterm.comp_dsm:   3066, 6189.
       52010    s003520                  hyterm.comp_dsm:   3067, 6192.
       52013    s003523                  hyterm.comp_dsm:   3068, 6195.
       52016    s003526                  hyterm.comp_dsm:   3069, 6198.
       52021    s003531                  hyterm.comp_dsm:   3070, 6201.
       52024    s003534                  hyterm.comp_dsm:   3071, 6204.
       52027    s003537                  hyterm.comp_dsm:   3072, 6207.
       52032    s003542                  hyterm.comp_dsm:   3073, 6210.
       52035    s003545                  hyterm.comp_dsm:   3074, 6213.
       52040    s003550                  hyterm.comp_dsm:   3075, 6216.
       52043    s003553                  hyterm.comp_dsm:   3076, 6219.
       52046    s003556                  hyterm.comp_dsm:   3077, 6222.
       52051    s003561                  hyterm.comp_dsm:   3078, 6225.
       52054    s003564                  hyterm.comp_dsm:   3079, 6228.
       52057    s003567                  hyterm.comp_dsm:   3080, 6231.
       52062    s003572                  hyterm.comp_dsm:   3081, 6234.
       52065    s003575                  hyterm.comp_dsm:   3082, 6237.
       52070    s003600                  hyterm.comp_dsm:   3083, 6240.
       52073    s003603                  hyterm.comp_dsm:   3084, 6243.
       52076    s003606                  hyterm.comp_dsm:   3085, 6246.
       52101    s003611                  hyterm.comp_dsm:   3086, 6249.
       52104    s003614                  hyterm.comp_dsm:   3087, 6252.
       52107    s003617                  hyterm.comp_dsm:   3088, 6255.
       52112    s003622                  hyterm.comp_dsm:   3089, 6258.
       52115    s003625                  hyterm.comp_dsm:   3090, 6261.
       52120    s003630                  hyterm.comp_dsm:   3091, 6264.
       52123    s003633                  hyterm.comp_dsm:   3092, 6267.
       52126    s003636                  hyterm.comp_dsm:   3093, 6270.
       52131    s003641                  hyterm.comp_dsm:   3094, 6273.
       52134    s003644                  hyterm.comp_dsm:   3095, 6276.
       52137    s003647                  hyterm.comp_dsm:   3096, 6279.
       52142    s003652                  hyterm.comp_dsm:   3098, 6282.
       52145    s003655                  hyterm.comp_dsm:   3099, 6285.
       52150    s003660                  hyterm.comp_dsm:   3100, 6288.
       52153    s003663                  hyterm.comp_dsm:   3101, 6291.
       52156    s003666                  hyterm.comp_dsm:   3102, 6294.
       52161    s003671                  hyterm.comp_dsm:   3103, 6297.
       52164    s003674                  hyterm.comp_dsm:   3104, 6300.
       52167    s003677                  hyterm.comp_dsm:   3105, 6303.
       52172    s003702                  hyterm.comp_dsm:   3106, 6306.
       52175    s003705                  hyterm.comp_dsm:   3107, 6309.
       52200    s003710                  hyterm.comp_dsm:   3108, 6312.
       52203    s003713                  hyterm.comp_dsm:   3109, 6315.
       52206    s003716                  hyterm.comp_dsm:   3110, 6318.
       52211    s003721                  hyterm.comp_dsm:   3111, 6321.
       52214    s003724                  hyterm.comp_dsm:   3112, 6324.
       52217    s003727                  hyterm.comp_dsm:   3113, 6327.
       52222    s003732                  hyterm.comp_dsm:   3114, 6330.
       52225    s003735                  hyterm.comp_dsm:   3115, 6333.
       52230    s003740                  hyterm.comp_dsm:   3116, 6336.
       52233    s003743                  hyterm.comp_dsm:   3117, 6339.
       52236    s003746                  hyterm.comp_dsm:   3118, 6342.
       52241    s003751                  hyterm.comp_dsm:   3119, 6345.
       52244    s003754                  hyterm.comp_dsm:   3120, 6348.
       52247    s003757                  hyterm.comp_dsm:   3121, 6351.
       52252    s003762                  hyterm.comp_dsm:   3122, 6354.
       52255    s003765                  hyterm.comp_dsm:   3123, 6357.
       52260    s003770                  hyterm.comp_dsm:   3124, 6360.
       52263    s003773                  hyterm.comp_dsm:   3125, 6363.
       52266    s003776                  hyterm.comp_dsm:   3126, 6366.
       52271    s004001                  hyterm.comp_dsm:   3127, 6369.
       52274    s004004                  hyterm.comp_dsm:   3128, 6372.
       52277    s004007                  hyterm.comp_dsm:   3344, 6375.
       52305    s004015                  hyterm.comp_dsm:   3692, 6381.
       52314    s004024                  hyterm.comp_dsm:   3689, 6388.
       52320    s004030                  hyterm.comp_dsm:   4066, 6392.
       52324    s004034                  hyterm.comp_dsm:   4067, 6396.
       52330    s004040                  hyterm.comp_dsm:   4042, 6400.
       52335    s004045                  hyterm.comp_dsm:   4039, 4387, 6405.
       52341    s004051                  hyterm.comp_dsm:   4390, 6409.
       52347    s004057                  hyterm.comp_dsm:     67,  184,  303,  404, 6415.
       52352    s004062                  hyterm.comp_dsm:     66,  183,  302,  403, 6418.
       52411    s004121                  hyterm.comp_dsm:    150,  269,  487, 6449.
       52413    s004123                  hyterm.comp_dsm:    151,  270,  371,  488, 6451.
       52415    s004125                  hyterm.comp_dsm:    152,  271,  372,  489, 6453.
       52417    s004127                  hyterm.comp_dsm:     63,  180,  299,  400, 6455.
       46646    size.1                   hyterm.comp_dsm:    493,  497,  501,  505,  509,  513,  517,  521,  525,  529,  533,
                                                             537,  541,  545,  549,  555,  559,  563,  567,  571,  575,  579,
                                                             583,  587,  591,  595,  599,  603,  607,  611,  615,  619,  625,
                                                             631,  637,  643,  649,  655,  661,  665,  669,  673,  677,  681,
                                                             685,  689,  693,  697,  701,  705,  709,  713,  717,  721,  725,
                                                             731,  737,  743,  749,  755,  759,  763,  767,  771,  775,  779,
                                                             783,  787,  791,  795,  799,  803,  807,  811,  817,  823,  829,
                                                             835, 4557.
          37    spinwriter.dvt           hyterm.comp_dsm:     35.
        5314    uni.1                    hyterm.comp_dsm:    840, 1023.
       16314    uni.10                   hyterm.comp_dsm:    912, 1486.
       17314    uni.11                   hyterm.comp_dsm:    920, 1535.
       20314    uni.12                   hyterm.comp_dsm:    928, 1587.
       21314    uni.13                   hyterm.comp_dsm:    936, 1640.
       22314    uni.14                   hyterm.comp_dsm:    944, 1692.
       23314    uni.15                   hyterm.comp_dsm:    952, 1742.
       24314    uni.16                   hyterm.comp_dsm:    960, 1748.
       25314    uni.17                   hyterm.comp_dsm:    968, 1752.
       26314    uni.18                   hyterm.comp_dsm:    976, 1756.
       27314    uni.19                   hyterm.comp_dsm:    984, 1760.
        6314    uni.2                    hyterm.comp_dsm:    848, 1076.
       30314    uni.20                   hyterm.comp_dsm:    992, 1764.
       31314    uni.21                   hyterm.comp_dsm:   1000, 1768.
       32314    uni.22                   hyterm.comp_dsm:   1008, 1772.
       33314    uni.23                   hyterm.comp_dsm:   1016, 1776.
        7314    uni.3                    hyterm.comp_dsm:    856, 1128.
       10314    uni.4                    hyterm.comp_dsm:    864, 1180.
       11314    uni.5                    hyterm.comp_dsm:    872, 1230.
       12314    uni.6                    hyterm.comp_dsm:    880, 1281.
       13314    uni.7                    hyterm.comp_dsm:    888, 1330.
       14314    uni.8                    hyterm.comp_dsm:    896, 1380.
       15314    uni.9                    hyterm.comp_dsm:    904, 1434.
          25    vhyt.dvt                 hyterm.comp_dsm:     26.


NO FATAL ERRORS


                                          -----------------------------------------------------------


Historical Background

This edition of the Multics software materials and documentation is provided and donated
to Massachusetts Institute of Technology by Group BULL including BULL HN Information Systems Inc.
as a contribution to computer science knowledge.
This donation is made also to give evidence of the common contributions of Massachusetts Institute of Technology,
Bell Laboratories, General Electric, Honeywell Information Systems Inc., Honeywell BULL Inc., Groupe BULL
and BULL HN Information Systems Inc. to the development of this operating system.
Multics development was initiated by Massachusetts Institute of Technology Project MAC (1963-1970),
renamed the MIT Laboratory for Computer Science and Artificial Intelligence in the mid 1970s, under the leadership
of Professor Fernando Jose Corbato. Users consider that Multics provided the best software architecture
for managing computer hardware properly and for executing programs. Many subsequent operating systems
incorporated Multics principles.
Multics was distributed in 1975 to 2000 by Group Bull in Europe , and in the U.S. by Bull HN Information Systems Inc.,
as successor in interest by change in name only to Honeywell Bull Inc. and Honeywell Information Systems Inc. .

                                          -----------------------------------------------------------

Permission to use, copy, modify, and distribute these programs and their documentation for any purpose and without
fee is hereby granted,provided that the below copyright notice and historical background appear in all copies
and that both the copyright notice and historical background and this permission notice appear in supporting
documentation, and that the names of MIT, HIS, BULL or BULL HN not be used in advertising or publicity pertaining
to distribution of the programs without specific prior written permission.
    Copyright 1972 by Massachusetts Institute of Technology and Honeywell Information Systems Inc.
    Copyright 2006 by BULL HN Information Systems Inc.
    Copyright 2006 by Bull SAS
    All Rights Reserved
