ASSEMBLY LISTING OF SEGMENT >special_ldd>install>MR12.0-1206>linus_error_.alm
ASSEMBLED ON:	11/05/86  1059.4 mst Wed
OPTIONS USED:	list
ASSEMBLED BY:	ALM Version  6.7  October 1986
ASSEMBLER CREATED:	10/08/86  1557.5 mst Wed

                                     1  "  ***********************************************************
                                     2  "  *                                                         *
                                     3  "  *                                                         *
                                     4  "  * Copyright, (C) Honeywell Information Systems Inc., 1981 *
                                     5  "  *                                                         *
                                     6  "  *                                                         *
                                     7  "  ***********************************************************
                                     8
                                     9  "  ******************************************************
                                    10  "  *                                                    *
                                    11  "  *                                                    *
                                    12  "  * Copyright (c) 1972 by Massachusetts Institute of   *
                                    13  "  * Technology and Honeywell Information Systems, Inc. *
                                    14  "  *                                                    *
                                    15  "  *                                                    *
                                    16  "  ******************************************************
                                    17
                                    18  " LINUS Error Table 	9/1/77
                                    19
                                    20  " 79-12-15  Rickie  E.  Brinegar:  Modified  to use et_macros and to eliminate
                                    21  " quotes  from  error  messages  (replaced with '), so not take as comments by
                                    22  " ALM.
                                    23
                                    24  " 81-06-19   Rickie  E.  Brinegar:   Removed   the   following  unused  codes:
                                    25  " cannot_ready,     empty_col_value,     inv_lila_set,    lister_inv_ctrl_arg,
                                    26  " no_arg_string, no_mode, no_set_var_list, no_tabs_read, old_version, set, and
                                    27  " too_many_tabs.
                                    28
                                    29  " 82-02-02  DJ Schimke: Added build_overflow for build mode
                                    30
                                    31  " 82-02-02  DJ Schimke: Modified inv_lila_req to user tell about '?' help
                                    32  "                       feature rather than listing valid requests.
                                    33
                                    34  " 82-24-08  Al Dupuis   Added bad_option_identifier, bad_option_name, and
                                    35  "                       bad_option_value for report options.
                                    36
                                    37  " 82-09-03  DJ Schimke: Added update_not_allowed for reporting attempts to
                                    38  "                       store, modify, or delete with only a "r" opening mode.
                                    39
                                    40  " 83-18-02  Al Dupuis:  Added bad_report_setup, bad_report_format,
                                    41  "		    and bad_report_display.
                                    42
                                    43  " 83-08-08  Al Dupuis:  Added bad_fkey_name and bad_fkey_sequence.
                                    44
                                    45  " 83-08-29  Al Dupuis:  Added no_current_query.
                                    46
                                    47  " 83-09-30  Al Dupuis:  Added bad_file_process.
                                    48
                                    49  	include	et_macros
                                   1-1  " Begin include file ...... et_macros.incl.alm
                                   1-2  "	Written 6/15/77 by Noel I. Morris
                                   1-3  "	Modified '82 so error code entries are in first page of segment.
                                   1-4
                                   1-5  " This include file contains macros for generating error tables
                                   1-6  " for both system and non-system use.
                                   1-7
                                   1-8  " ET MACRO
                                   1-9  "
                                  1-10  " This macro is used to initialize the error table for either
                                  1-11  " system or non-system use.  It is invoked at the beginning of
                                  1-12  " the error table as follows:
                                  1-13  "
                                  1-14  "	et	table_name{,system}
                                  1-15  "
                                  1-16
                                  1-17  macro	et
                              1   1-18  	maclist	on
                              2   1-19
                              3   1-20  	name	&1
                              4   1-21
                              5   1-22  &^=&2,system&[
                              6   1-23
                              7   1-24  	include	stack_header
                              8   1-25
                              9   1-26  
                             10   1-27
                             11   1-28  	use	codes
                             12   1-29  .code_start:
                             13   1-30
                             14   1-31  	use	past_codes
                             15   1-32  .code_end:
                             16   1-33
                             17   1-34  	join	/link/codes,past_codes
                             18   1-35
                             19   1-36  	use	messages
                             20   1-37
                             21   1-38  .trapproc:
                             22   1-39  	epaq	0,ic
                             23   1-40  	eax0	0,au
                             24   1-41  	epbpsb	sp|0
                             25   1-42  	lprplp	sb|stack_header.lot_ptr,*au
                             26   1-43  	eax1	.code_start
                             27   1-44  .loop:	stx0	lp|0,x1
                             28   1-45  	eax1	1,x1
                             29   1-46  	cmpx1	.code_end,du
                             30   1-47  	tmi	.loop-*,ic
                             31   1-48  	short_return
                             32   1-49
                             33   1-50  	firstref	<*text>|.trapproc
                             34   1-51
                             35   1-52  &;	use	codes
                             36   1-53  	use	messages
                             37   1-54
                             38   1-55  	join	/text/codes,messages
                             39   1-56
                             40   1-57  &]
                             41   1-58
                             42   1-59  	bool	.segno,77777
                             43   1-60
                             44   1-61  	maclist	off
                             45   1-62
                             46   1-63  	&end
                                  1-64
                                  1-65  
                                  1-66
                                  1-67  " EC MACRO
                                  1-68  "
                                  1-69  " This macro is used to define an error code as shown:
                                  1-70  "
                                  1-71  "	ec	name,{short_mess},(long_mess)
                                  1-72  "
                                  1-73  " If more than a single name is to be defined for a given message,
                                  1-74  " a list of names separated by commas and enclosed in parentheses
                                  1-75  " must be given.   short_mess must be 8 or less characters.  If omitted,
                                  1-76  " the short_mess will be set to the name.  long_mess is enclosed
                                  1-77  " in parentheses in order to cause ALM to ignore embedded blanks.  Please
                                  1-78  " note that double quote characters in either short_mess or long_mess
                                  1-79  " must be doubled in order to make the ALM assembly work properly.
                                  1-80  " Note that a macro invocation line terminated by a comma will cause that
                                  1-81  " statement to be continued on the next line.
                                  1-82
                                  1-83  macro	ec
                              1   1-84  	use	codes
                              2   1-85
                              3   1-86  	maclist	on,save
                              4   1-87  &(1	segdef  &i
                              5   1-88  &)	maclist	restore
                              6   1-89  &(1&i:
                              7   1-90  &)	maclist	object,save
                              8   1-91  	zero	.segno,&U
                              9   1-92  	maclist	restore
                             10   1-93  	use	messages
                             11   1-94  &^=&l2,0&[	shortname    &2
                             12   1-95  &;	shortname    &1
                             13   1-96  &]
                             14   1-97  &U:
                             15   1-98  	maclist	on,save
                             16   1-99  	acc  "&3"
                             17  1-100
                             18  1-101  	maclist	restore
                             19  1-102  	&end
                                 1-103
                                 1-104  macro	shortname
                              1  1-105  	maclist	on,save
                              2  1-106  	aci  "&1",8
                              3  1-107  	maclist	restore
                              4  1-108  	&end
                                 1-109
                                 1-110  
                                 1-111
                                 1-112  " A typical error table source program might have the following format:
                                 1-113  "
                                 1-114  "	include	et_macros
                                 1-115  "
                                 1-116  "	et	name_of_error_table
                                 1-117  "
                                 1-118  "	ec	error_code_1,ecode1,(This is error code 1.)
                                 1-119  "
                                 1-120  "	ec	error_code_2,ecode2,(This is error code 2.)
                                 1-121  "
                                 1-122  "	:	     :	      :		:
                                 1-123  "
                                 1-124  "	ec	error_code_n,ecoden,(This is the nth error code.)
                                 1-125  "
                                 1-126  "	end
                                 1-127  "
                                 1-128
                                 1-129  " End of include file ...... et_macros.incl.alm
                                 1-130
                                    50  	et	linus_error_

    000000                              	name	linus_error_


                                        	include	stack_header
                                   2-1  "	BEGIN INCLUDE FILE ... stack_header.incl.alm  3/72  Bill Silver
                                   2-2  "
                                   2-3  "	modified 7/76 by M. Weaver for *system links and more system use of areas
                                   2-4  "	modified 3/77 by M. Weaver  to add rnt_ptr
                                   2-5  "	modified 7/77 by S. Webber to add run_unit_depth and assign_linkage_ptr
                                   2-6  "	modified 6/83 by J. Ives to add trace_frames and in_trace.
                                   2-7
                                   2-8  " HISTORY COMMENTS:
                                   2-9  "  1) change(86-06-24,DGHowe), approve(86-06-24,MCR7396),
                                  2-10  "     audit(86-08-05,Schroth), install(86-11-03,MR12.0-1206):
                                  2-11  "     added the heap_header_ptr definition
                                  2-12  "  2) change(86-08-12,Kissel), approve(86-08-12,MCR7473),
                                  2-13  "     audit(86-10-10,Fawcett), install(86-11-03,MR12.0-1206):
                                  2-14  "     Modified to support control point management.  These changes were
                                  2-15  "     actually made in February 1985 by G. Palter.
                                  2-16  "  3) change(86-10-22,Fawcett), approve(86-10-22,MCR7473),
                                  2-17  "     audit(86-10-22,Farley), install(86-11-03,MR12.0-1206):
                                  2-18  "     Remove the old_lot pointer and replace it with cpm_data_ptr. Use the 18
                                  2-19  "     bit pad after cur_lot_size for the cpm_enabled. This was done to save
                                  2-20  "     some space int the stack header and change the cpd_ptr unal to
                                  2-21  "     cpm_data_ptr (ITS pair).
                                  2-22  "                                                      END HISTORY COMMENTS
                                  2-23
                        000004    2-24  	equ	stack_header.cpm_data_ptr,4		ptr to control point for this stack
                        000006    2-25  	equ	stack_header.combined_stat_ptr,6	ptr to separate static area
                                  2-26
                        000010    2-27  	equ	stack_header.clr_ptr,8		ptr to area containing linkage sections
                        000012    2-28  	equ	stack_header.max_lot_size,10		number of words allowed in lot (DU)
                        000012    2-29  	equ	stack_header.main_proc_invoked,10	nonzero if main proc was invoked in run unit (DL)
                        000012    2-30  	equ	stack_header.run_unit_depth,10	number of active run units stacked (DL)
                        000013    2-31  	equ	stack_header.cur_lot_size,11		DU number of words (entries) in lot
                        000013    2-32            equ	stack_header.cpm_enabled,11		DL  non-zero if control point management is enabled
                        000014    2-33  	equ	stack_header.system_free_ptr,12	ptr to system storage area
                        000016    2-34  	equ	stack_header.user_free_ptr,14		ptr to user storage area
                                  2-35
                        000020    2-36  	equ	stack_header.parent_ptr,16		ptr to parent stack or null
                        000022    2-37  	equ	stack_header.stack_begin_ptr,18	ptr to first stack frame
                        000024    2-38  	equ	stack_header.stack_end_ptr,20		ptr to next useable stack frame
                        000026    2-39  	equ	stack_header.lot_ptr,22		ptr to the lot for the current ring
                                  2-40
                        000030    2-41  	equ	stack_header.signal_ptr,24		ptr to signal proc for current ring
                        000032    2-42  	equ	stack_header.bar_mode_sp,26		value of sp before entering bar mode
                        000034    2-43  	equ	stack_header.pl1_operators_ptr,28	ptr: pl1_operators_$operator_table
                        000036    2-44  	equ	stack_header.call_op_ptr,30		ptr to standard call operator
                                  2-45
                        000040    2-46  	equ	stack_header.push_op_ptr,32		ptr to standard push operator
                        000042    2-47  	equ	stack_header.return_op_ptr,34		ptr to standard return operator
                        000044    2-48  	equ	stack_header.ret_no_pop_op_ptr,36	ptr: stand. return/ no pop operator
                        000046    2-49  	equ	stack_header.entry_op_ptr,38		ptr to standard entry operator
                                  2-50
                        000050    2-51  	equ	stack_header.trans_op_tv_ptr,40	ptr to table of translator operator ptrs
                        000052    2-52  	equ	stack_header.isot_ptr,42		pointer to ISOT
                        000054    2-53  	equ	stack_header.sct_ptr,44		pointer to System Condition Table
                        000056    2-54  	equ	stack_header.unwinder_ptr,46		pointer to unwinder for current ring
                                  2-55
                        000060    2-56  	equ	stack_header.sys_link_info_ptr,48	ptr to *system link name table
                        000062    2-57  	equ	stack_header.rnt_ptr,50		ptr to reference name table
                        000064    2-58  	equ	stack_header.ect_ptr,52		ptr to event channel table
                        000066    2-59  	equ	stack_header.assign_linkage_ptr,54	ptr to area for hcs_$assign_linkage calls
                        000070    2-60  	equ	stack_header.heap_header_ptr,56	ptr to heap header.
                        000072    2-61  	equ	stack_header.trace_frames,58		stack of trace_catch_ frames
                        000073    2-62  	equ	stach_header.trace_top_ptr,59		trace pointer
                        000074    2-63  	equ	stack_header.in_trace,60		trace antirecurse bit
                        000100    2-64  	equ	stack_header_end,64			length of stack header
                                  2-65
                                  2-66
                                  2-67
                                  2-68
                        000000    2-69  	equ	trace_frames.count,0		number of trace frames on stack
                        000001    2-70  	equ	trace_frames.top_ptr,1		packed pointer to top one
                                  2-71
                                  2-72  "	The  following constant is an offset within the  pl1  operators table.
                                  2-73  "	It  references a  transfer vector table.
                                  2-74
                        000551    2-75  	bool	tv_offset,551
                                  2-76
                                  2-77
                                  2-78  "	The  following constants are offsets within this transfer vector table.
                                  2-79
                        001170    2-80  	equ	call_offset,tv_offset+271
                        001171    2-81  	equ	push_offset,tv_offset+272
                        001172    2-82  	equ	return_offset,tv_offset+273
                        001173    2-83  	equ	return_no_pop_offset,tv_offset+274
                        001174    2-84  	equ	entry_offset,tv_offset+275
                                  2-85
                                  2-86
                                  2-87  " 	END INCLUDE FILE stack_header.incl.alm

                                        

                                        	use	codes
    000010                              .code_start:

                                        	use	past_codes
    000235                              .code_end:

                                        	join	/link/codes,past_codes

                                        	use	messages

    000000                              .trapproc:
    000000  aa   000000 2130 04         	epaq	0,ic
    000001  aa   000000 6200 01         	eax0	0,au
    000002  aa  6 00000 3731 00         	epbpsb	sp|0
    000003  aa  7 00026 7641 61         	lprplp	sb|stack_header.lot_ptr,*au
    000004  8a   000010 6210 00         	eax1	.code_start
    000005  aa  4 00000 7401 11         .loop:	stx0	lp|0,x1
    000006  aa   000001 6210 11         	eax1	1,x1
    000007  8a   000235 1010 03         	cmpx1	.code_end,du
    000010  aa   777775 6040 04         	tmi	.loop-*,ic
    000011  aa  7 00044 7101 20         	short_return

    000012                              	firstref	<*text>|.trapproc


                        077777          	bool	.segno,77777

                                    51
                                    52  ec abort,abort,
                                    53  	(Fatal error. LINUS session aborted.)
                        000010          	segdef  abort
    000010  a0   077777 000014
    000012  aa  141 142 157 162         	aci  "abort",8
    000013  aa  164 040 040 040
    000014  aa  043 106 141 164         	acc  "Fatal error. LINUS session aborted."
    000015  aa  141 154 040 145
    000016  aa  162 162 157 162
    000017  aa  056 040 114 111
    000020  aa  116 125 123 040
    000021  aa  163 145 163 163
    000022  aa  151 157 156 040
    000023  aa  141 142 157 162
    000024  aa  164 145 144 056

                                    54  ec bad_builtin_obj,badbobj,
                                    55  	(There is an inconsistency in a LINUS builtin set function.)
                        000011          	segdef  bad_builtin_obj
    000011  a0   077777 000027
    000025  aa  142 141 144 142         	aci  "badbobj",8
    000026  aa  157 142 152 040
    000027  aa  072 124 150 145         	acc  "There is an inconsistency in a LINUS builtin set function."
    000030  aa  162 145 040 151
    000031  aa  163 040 141 156
    000032  aa  040 151 156 143
    000033  aa  157 156 163 151
    000034  aa  163 164 145 156
    000035  aa  143 171 040 151
    000036  aa  156 040 141 040
    000037  aa  114 111 116 125
    000040  aa  123 040 142 165
    000041  aa  151 154 164 151
    000042  aa  156 040 163 145
    000043  aa  164 040 146 165
    000044  aa  156 143 164 151
    000045  aa  157 156 056 000

                                    56  ec bad_comment,badcom,
                                    57  	(A comment has been incorrectly specified.)
                        000012          	segdef  bad_comment
    000012  a0   077777 000050
    000046  aa  142 141 144 143         	aci  "badcom",8
    000047  aa  157 155 040 040
    000050  aa  051 101 040 143         	acc  "A comment has been incorrectly specified."
    000051  aa  157 155 155 145
    000052  aa  156 164 040 150
    000053  aa  141 163 040 142
    000054  aa  145 145 156 040
    000055  aa  151 156 143 157
    000056  aa  162 162 145 143
    000057  aa  164 154 171 040
    000060  aa  163 160 145 143
    000061  aa  151 146 151 145
    000062  aa  144 056 000 000

                                    58  ec bad_file_process,badflps,
                                    59  	(An error has occured while processing the file.)
                        000013          	segdef  bad_file_process
    000013  a0   077777 000065
    000063  aa  142 141 144 146         	aci  "badflps",8
    000064  aa  154 160 163 040
    000065  aa  057 101 156 040         	acc  "An error has occured while processing the file."
    000066  aa  145 162 162 157
    000067  aa  162 040 150 141
    000070  aa  163 040 157 143
    000071  aa  143 165 162 145
    000072  aa  144 040 167 150
    000073  aa  151 154 145 040
    000074  aa  160 162 157 143
    000075  aa  145 163 163 151
    000076  aa  156 147 040 164
    000077  aa  150 145 040 146
    000100  aa  151 154 145 056

                                    60  ec bad_fkey_name,badfname,
                                    61  	(An unacceptable scroll function name has been used.)
                        000014          	segdef  bad_fkey_name
    000014  a0   077777 000103
    000101  aa  142 141 144 146         	aci  "badfname",8
    000102  aa  156 141 155 145
    000103  aa  063 101 156 040         	acc  "An unacceptable scroll function name has been used."
    000104  aa  165 156 141 143
    000105  aa  143 145 160 164
    000106  aa  141 142 154 145
    000107  aa  040 163 143 162
    000110  aa  157 154 154 040
    000111  aa  146 165 156 143
    000112  aa  164 151 157 156
    000113  aa  040 156 141 155
    000114  aa  145 040 150 141
    000115  aa  163 040 142 145
    000116  aa  145 156 040 165
    000117  aa  163 145 144 056

                                    62  ec bad_fkey_sequence,badfseq,
                                    63  	(An unacceptable function key sequence has been used.)
                        000015          	segdef  bad_fkey_sequence
    000015  a0   077777 000122
    000120  aa  142 141 144 146         	aci  "badfseq",8
    000121  aa  163 145 161 040
    000122  aa  064 101 156 040         	acc  "An unacceptable function key sequence has been used."
    000123  aa  165 156 141 143
    000124  aa  143 145 160 164
    000125  aa  141 142 154 145
    000126  aa  040 146 165 156
    000127  aa  143 164 151 157
    000130  aa  156 040 153 145
    000131  aa  171 040 163 145
    000132  aa  161 165 145 156
    000133  aa  143 145 040 150
    000134  aa  141 163 040 142
    000135  aa  145 145 156 040
    000136  aa  165 163 145 144
    000137  aa  056 000 000 000

                                    64  ec bad_inner_select,badisel,
                                    65  	(The select clause for an inner LILA block can specify only one item.)
                        000016          	segdef  bad_inner_select
    000016  a0   077777 000142
    000140  aa  142 141 144 151         	aci  "badisel",8
    000141  aa  163 145 154 040
    000142  aa  104 124 150 145         	acc  "The select clause for an inner LILA block can specify only one item."
    000143  aa  040 163 145 154
    000144  aa  145 143 164 040
    000145  aa  143 154 141 165
    000146  aa  163 145 040 146
    000147  aa  157 162 040 141
    000150  aa  156 040 151 156
    000151  aa  156 145 162 040
    000152  aa  114 111 114 101
    000153  aa  040 142 154 157
    000154  aa  143 153 040 143
    000155  aa  141 156 040 163
    000156  aa  160 145 143 151
    000157  aa  146 171 040 157
    000160  aa  156 154 171 040
    000161  aa  157 156 145 040
    000162  aa  151 164 145 155
    000163  aa  056 000 000 000

                                    66  ec bad_option_identifier,badoi,
                                    67  	(An unacceptable option identifier has been used.)
                        000017          	segdef  bad_option_identifier
    000017  a0   077777 000166
    000164  aa  142 141 144 157         	aci  "badoi",8
    000165  aa  151 040 040 040
    000166  aa  060 101 156 040         	acc  "An unacceptable option identifier has been used."
    000167  aa  165 156 141 143
    000170  aa  143 145 160 164
    000171  aa  141 142 154 145
    000172  aa  040 157 160 164
    000173  aa  151 157 156 040
    000174  aa  151 144 145 156
    000175  aa  164 151 146 151
    000176  aa  145 162 040 150
    000177  aa  141 163 040 142
    000200  aa  145 145 156 040
    000201  aa  165 163 145 144
    000202  aa  056 000 000 000

                                    68  ec bad_option_name,badon,
                                    69  	(An unacceptable option name has been used.)
                        000020          	segdef  bad_option_name
    000020  a0   077777 000205
    000203  aa  142 141 144 157         	aci  "badon",8
    000204  aa  156 040 040 040
    000205  aa  052 101 156 040         	acc  "An unacceptable option name has been used."
    000206  aa  165 156 141 143
    000207  aa  143 145 160 164
    000210  aa  141 142 154 145
    000211  aa  040 157 160 164
    000212  aa  151 157 156 040
    000213  aa  156 141 155 145
    000214  aa  040 150 141 163
    000215  aa  040 142 145 145
    000216  aa  156 040 165 163
    000217  aa  145 144 056 000

                                    70  ec bad_option_value,badov,
                                    71  	(An unacceptable option value has been used.)
                        000021          	segdef  bad_option_value
    000021  a0   077777 000222
    000220  aa  142 141 144 157         	aci  "badov",8
    000221  aa  166 040 040 040
    000222  aa  053 101 156 040         	acc  "An unacceptable option value has been used."
    000223  aa  165 156 141 143
    000224  aa  143 145 160 164
    000225  aa  141 142 154 145
    000226  aa  040 157 160 164
    000227  aa  151 157 156 040
    000230  aa  166 141 154 165
    000231  aa  145 040 150 141
    000232  aa  163 040 142 145
    000233  aa  145 156 040 165
    000234  aa  163 145 144 056

                                    72  ec bad_macro_arg,badmarg,
                                    73  	(Dummy argument incorrectly specified within macro.)
                        000022          	segdef  bad_macro_arg
    000022  a0   077777 000237
    000235  aa  142 141 144 155         	aci  "badmarg",8
    000236  aa  141 162 147 040
    000237  aa  062 104 165 155         	acc  "Dummy argument incorrectly specified within macro."
    000240  aa  155 171 040 141
    000241  aa  162 147 165 155
    000242  aa  145 156 164 040
    000243  aa  151 156 143 157
    000244  aa  162 162 145 143
    000245  aa  164 154 171 040
    000246  aa  163 160 145 143
    000247  aa  151 146 151 145
    000250  aa  144 040 167 151
    000251  aa  164 150 151 156
    000252  aa  040 155 141 143
    000253  aa  162 157 056 000

                                    74  ec bad_mode,badmode,
                                    75  	(Unrecognized mode.)
                        000023          	segdef  bad_mode
    000023  a0   077777 000256
    000254  aa  142 141 144 155         	aci  "badmode",8
    000255  aa  157 144 145 040
    000256  aa  022 125 156 162         	acc  "Unrecognized mode."
    000257  aa  145 143 157 147
    000260  aa  156 151 172 145
    000261  aa  144 040 155 157
    000262  aa  144 145 056 000

                                    76  ec bad_num_args,badnargs,
                                    77  	(Incorrect number of arguments has been specified for this request.)
                        000024          	segdef  bad_num_args
    000024  a0   077777 000265
    000263  aa  142 141 144 156         	aci  "badnargs",8
    000264  aa  141 162 147 163
    000265  aa  102 111 156 143         	acc  "Incorrect number of arguments has been specified for this request."
    000266  aa  157 162 162 145
    000267  aa  143 164 040 156
    000270  aa  165 155 142 145
    000271  aa  162 040 157 146
    000272  aa  040 141 162 147
    000273  aa  165 155 145 156
    000274  aa  164 163 040 150
    000275  aa  141 163 040 142
    000276  aa  145 145 156 040
    000277  aa  163 160 145 143
    000300  aa  151 146 151 145
    000301  aa  144 040 146 157
    000302  aa  162 040 164 150
    000303  aa  151 163 040 162
    000304  aa  145 161 165 145
    000305  aa  163 164 056 000

                                    78  ec bad_report_display,badrpdi,
                                    79  	(An error has occured while displaying the report.)
                        000025          	segdef  bad_report_display
    000025  a0   077777 000310
    000306  aa  142 141 144 162         	aci  "badrpdi",8
    000307  aa  160 144 151 040
    000310  aa  061 101 156 040         	acc  "An error has occured while displaying the report."
    000311  aa  145 162 162 157
    000312  aa  162 040 150 141
    000313  aa  163 040 157 143
    000314  aa  143 165 162 145
    000315  aa  144 040 167 150
    000316  aa  151 154 145 040
    000317  aa  144 151 163 160
    000320  aa  154 141 171 151
    000321  aa  156 147 040 164
    000322  aa  150 145 040 162
    000323  aa  145 160 157 162
    000324  aa  164 056 000 000

                                    80  ec bad_report_format,badrpfmt,
                                    81  	(An error has ocurred while formatting the report.)
                        000026          	segdef  bad_report_format
    000026  a0   077777 000327
    000325  aa  142 141 144 162         	aci  "badrpfmt",8
    000326  aa  160 146 155 164
    000327  aa  061 101 156 040         	acc  "An error has ocurred while formatting the report."
    000330  aa  145 162 162 157
    000331  aa  162 040 150 141
    000332  aa  163 040 157 143
    000333  aa  165 162 162 145
    000334  aa  144 040 167 150
    000335  aa  151 154 145 040
    000336  aa  146 157 162 155
    000337  aa  141 164 164 151
    000340  aa  156 147 040 164
    000341  aa  150 145 040 162
    000342  aa  145 160 157 162
    000343  aa  164 056 000 000

                                    82  ec bad_report_setup,badrpstp,
                                    83  	(An error has ocurred while setting up the report.)
                        000027          	segdef  bad_report_setup
    000027  a0   077777 000346
    000344  aa  142 141 144 162         	aci  "badrpstp",8
    000345  aa  160 163 164 160
    000346  aa  061 101 156 040         	acc  "An error has ocurred while setting up the report."
    000347  aa  145 162 162 157
    000350  aa  162 040 150 141
    000351  aa  163 040 157 143
    000352  aa  165 162 162 145
    000353  aa  144 040 167 150
    000354  aa  151 154 145 040
    000355  aa  163 145 164 164
    000356  aa  151 156 147 040
    000357  aa  165 160 040 164
    000360  aa  150 145 040 162
    000361  aa  145 160 157 162
    000362  aa  164 056 000 000

                                    84  ec bad_stmt_no,badstno,
                                    85  	(An invalid LILA statement number has been specified.)
                        000030          	segdef  bad_stmt_no
    000030  a0   077777 000365
    000363  aa  142 141 144 163         	aci  "badstno",8
    000364  aa  164 156 157 040
    000365  aa  064 101 156 040         	acc  "An invalid LILA statement number has been specified."
    000366  aa  151 156 166 141
    000367  aa  154 151 144 040
    000370  aa  114 111 114 101
    000371  aa  040 163 164 141
    000372  aa  164 145 155 145
    000373  aa  156 164 040 156
    000374  aa  165 155 142 145
    000375  aa  162 040 150 141
    000376  aa  163 040 142 145
    000377  aa  145 156 040 163
    000400  aa  160 145 143 151
    000401  aa  146 151 145 144
    000402  aa  056 000 000 000

                                    86  ec build_overflow,bldovfl,
                                    87  	(A build-generated line number exceeds the maximum of 9999.)
                        000031          	segdef  build_overflow
    000031  a0   077777 000405
    000403  aa  142 154 144 157         	aci  "bldovfl",8
    000404  aa  166 146 154 040
    000405  aa  072 101 040 142         	acc  "A build-generated line number exceeds the maximum of 9999."
    000406  aa  165 151 154 144
    000407  aa  055 147 145 156
    000410  aa  145 162 141 164
    000411  aa  145 144 040 154
    000412  aa  151 156 145 040
    000413  aa  156 165 155 142
    000414  aa  145 162 040 145
    000415  aa  170 143 145 145
    000416  aa  144 163 040 164
    000417  aa  150 145 040 155
    000420  aa  141 170 151 155
    000421  aa  165 155 040 157
    000422  aa  146 040 071 071
    000423  aa  071 071 056 000

                                    88  ec cant_alloc_lit,cntallit,
                                    89  	(LILA translator error -- unable to allocate literal.)
                        000032          	segdef  cant_alloc_lit
    000032  a0   077777 000426
    000424  aa  143 156 164 141         	aci  "cntallit",8
    000425  aa  154 154 151 164
    000426  aa  064 114 111 114         	acc  "LILA translator error -- unable to allocate literal."
    000427  aa  101 040 164 162
    000430  aa  141 156 163 154
    000431  aa  141 164 157 162
    000432  aa  040 145 162 162
    000433  aa  157 162 040 055
    000434  aa  055 040 165 156
    000435  aa  141 142 154 145
    000436  aa  040 164 157 040
    000437  aa  141 154 154 157
    000440  aa  143 141 164 145
    000441  aa  040 154 151 164
    000442  aa  145 162 141 154
    000443  aa  056 000 000 000

                                    90  ec cant_open,cantopen,
                                    91  	(Unable to open database, check pathname and database access.)
                        000033          	segdef  cant_open
    000033  a0   077777 000446
    000444  aa  143 141 156 164         	aci  "cantopen",8
    000445  aa  157 160 145 156
    000446  aa  074 125 156 141         	acc  "Unable to open database, check pathname and database access."
    000447  aa  142 154 145 040
    000450  aa  164 157 040 157
    000451  aa  160 145 156 040
    000452  aa  144 141 164 141
    000453  aa  142 141 163 145
    000454  aa  054 040 143 150
    000455  aa  145 143 153 040
    000456  aa  160 141 164 150
    000457  aa  156 141 155 145
    000460  aa  040 141 156 144
    000461  aa  040 144 141 164
    000462  aa  141 142 141 163
    000463  aa  145 040 141 143
    000464  aa  143 145 163 163
    000465  aa  056 000 000 000

                                    92  ec cant_ref_fun,cantrfun,
                                    93  	(Cannot reference specified function.)
                        000034          	segdef  cant_ref_fun
    000034  a0   077777 000470
    000466  aa  143 141 156 164         	aci  "cantrfun",8
    000467  aa  162 146 165 156
    000470  aa  044 103 141 156         	acc  "Cannot reference specified function."
    000471  aa  156 157 164 040
    000472  aa  162 145 146 145
    000473  aa  162 145 156 143
    000474  aa  145 040 163 160
    000475  aa  145 143 151 146
    000476  aa  151 145 144 040
    000477  aa  146 165 156 143
    000500  aa  164 151 157 156
    000501  aa  056 000 000 000

                                    94  ec const_expr_fn,conexfn,
                                    95  	(An expression or scalar function has no variable arguments. Replace with a constant.)
                        000035          	segdef  const_expr_fn
    000035  a0   077777 000504
    000502  aa  143 157 156 145         	aci  "conexfn",8
    000503  aa  170 146 156 040
    000504  aa  124 101 156 040         	acc  "An expression or scalar function has no variable arguments. Replace with a constant."
    000505  aa  145 170 160 162
    000506  aa  145 163 163 151
    000507  aa  157 156 040 157
    000510  aa  162 040 163 143
    000511  aa  141 154 141 162
    000512  aa  040 146 165 156
    000513  aa  143 164 151 157
    000514  aa  156 040 150 141
    000515  aa  163 040 156 157
    000516  aa  040 166 141 162
    000517  aa  151 141 142 154
    000520  aa  145 040 141 162
    000521  aa  147 165 155 145
    000522  aa  156 164 163 056
    000523  aa  040 122 145 160
    000524  aa  154 141 143 145
    000525  aa  040 167 151 164
    000526  aa  150 040 141 040
    000527  aa  143 157 156 163
    000530  aa  164 141 156 164
    000531  aa  056 000 000 000

                                    96  ec conv,conv,
                                    97  	(A CONVERSION error occured.)
                        000036          	segdef  conv
    000036  a0   077777 000534
    000532  aa  143 157 156 166         	aci  "conv",8
    000533  aa  040 040 040 040
    000534  aa  033 101 040 103         	acc  "A CONVERSION error occured."
    000535  aa  117 116 126 105
    000536  aa  122 123 111 117
    000537  aa  116 040 145 162
    000540  aa  162 157 162 040
    000541  aa  157 143 143 165
    000542  aa  162 145 144 056

                                    98  ec dtt_key_select,dttkeyse,
                                    99  	(A key column specified in the define temp table request is not one of the items selected by LILA.)
                        000037          	segdef  dtt_key_select
    000037  a0   077777 000545
    000543  aa  144 164 164 153         	aci  "dttkeyse",8
    000544  aa  145 171 163 145
    000545  aa  141 101 040 153         	acc  "A key column specified in the define temp table request is not one of the items selected by LILA."
    000546  aa  145 171 040 143
    000547  aa  157 154 165 155
    000550  aa  156 040 163 160
    000551  aa  145 143 151 146
    000552  aa  151 145 144 040
    000553  aa  151 156 040 164
    000554  aa  150 145 040 144
    000555  aa  145 146 151 156
    000556  aa  145 040 164 145
    000557  aa  155 160 040 164
    000560  aa  141 142 154 145
    000561  aa  040 162 145 161
    000562  aa  165 145 163 164
    000563  aa  040 151 163 040
    000564  aa  156 157 164 040
    000565  aa  157 156 145 040
    000566  aa  157 146 040 164
    000567  aa  150 145 040 151
    000570  aa  164 145 155 163
    000571  aa  040 163 145 154
    000572  aa  145 143 164 145
    000573  aa  144 040 142 171
    000574  aa  040 114 111 114
    000575  aa  101 056 000 000

                                   100  ec dtt_max_tabs,dttmaxtb,
                                   101  	(You have exceeded the maximum number of temporary tables allowed.)
                        000040          	segdef  dtt_max_tabs
    000040  a0   077777 000600
    000576  aa  144 164 164 155         	aci  "dttmaxtb",8
    000577  aa  141 170 164 142
    000600  aa  101 131 157 165         	acc  "You have exceeded the maximum number of temporary tables allowed."
    000601  aa  040 150 141 166
    000602  aa  145 040 145 170
    000603  aa  143 145 145 144
    000604  aa  145 144 040 164
    000605  aa  150 145 040 155
    000606  aa  141 170 151 155
    000607  aa  165 155 040 156
    000610  aa  165 155 142 145
    000611  aa  162 040 157 146
    000612  aa  040 164 145 155
    000613  aa  160 157 162 141
    000614  aa  162 171 040 164
    000615  aa  141 142 154 145
    000616  aa  163 040 141 154
    000617  aa  154 157 167 145
    000620  aa  144 056 000 000

                                   102  ec dtt_no_key,dttnokey,
                                   103  	(No key column was specified for the define temp table request.)
                        000041          	segdef  dtt_no_key
    000041  a0   077777 000623
    000621  aa  144 164 164 156         	aci  "dttnokey",8
    000622  aa  157 153 145 171
    000623  aa  076 116 157 040         	acc  "No key column was specified for the define temp table request."
    000624  aa  153 145 171 040
    000625  aa  143 157 154 165
    000626  aa  155 156 040 167
    000627  aa  141 163 040 163
    000630  aa  160 145 143 151
    000631  aa  146 151 145 144
    000632  aa  040 146 157 162
    000633  aa  040 164 150 145
    000634  aa  040 144 145 146
    000635  aa  151 156 145 040
    000636  aa  164 145 155 160
    000637  aa  040 164 141 142
    000640  aa  154 145 040 162
    000641  aa  145 161 165 145
    000642  aa  163 164 056 000

                                   104  ec dtt_not_valid,dttnval,
                                   105  	(The LILA expression is not valid for the define temporary table request.)
                        000042          	segdef  dtt_not_valid
    000042  a0   077777 000645
    000643  aa  144 164 164 156         	aci  "dttnval",8
    000644  aa  166 141 154 040
    000645  aa  110 124 150 145         	acc  "The LILA expression is not valid for the define temporary table request."
    000646  aa  040 114 111 114
    000647  aa  101 040 145 170
    000650  aa  160 162 145 163
    000651  aa  163 151 157 156
    000652  aa  040 151 163 040
    000653  aa  156 157 164 040
    000654  aa  166 141 154 151
    000655  aa  144 040 146 157
    000656  aa  162 040 164 150
    000657  aa  145 040 144 145
    000660  aa  146 151 156 145
    000661  aa  040 164 145 155
    000662  aa  160 157 162 141
    000663  aa  162 171 040 164
    000664  aa  141 142 154 145
    000665  aa  040 162 145 161
    000666  aa  165 145 163 164
    000667  aa  056 000 000 000

                                   106  ec dup_ctl_args,dupctlar,
                                   107  	(Duplicate control arguments were encountered.)
                        000043          	segdef  dup_ctl_args
    000043  a0   077777 000672
    000670  aa  144 165 160 143         	aci  "dupctlar",8
    000671  aa  164 154 141 162
    000672  aa  055 104 165 160         	acc  "Duplicate control arguments were encountered."
    000673  aa  154 151 143 141
    000674  aa  164 145 040 143
    000675  aa  157 156 164 162
    000676  aa  157 154 040 141
    000677  aa  162 147 165 155
    000700  aa  145 156 164 163
    000701  aa  040 167 145 162
    000702  aa  145 040 145 156
    000703  aa  143 157 165 156
    000704  aa  164 145 162 145
    000705  aa  144 056 000 000

                                   108  ec dup_row_des,duprwdes,
                                   109  	(A row designator has been multiply defined.)
                        000044          	segdef  dup_row_des
    000044  a0   077777 000710
    000706  aa  144 165 160 162         	aci  "duprwdes",8
    000707  aa  167 144 145 163
    000710  aa  053 101 040 162         	acc  "A row designator has been multiply defined."
    000711  aa  157 167 040 144
    000712  aa  145 163 151 147
    000713  aa  156 141 164 157
    000714  aa  162 040 150 141
    000715  aa  163 040 142 145
    000716  aa  145 156 040 155
    000717  aa  165 154 164 151
    000720  aa  160 154 171 040
    000721  aa  144 145 146 151
    000722  aa  156 145 144 056

                                   110  ec early_end,earlyend,
                                   111  	(The LILA expression has been prematurely terminated.)
                        000045          	segdef  early_end
    000045  a0   077777 000725
    000723  aa  145 141 162 154         	aci  "earlyend",8
    000724  aa  171 145 156 144
    000725  aa  064 124 150 145         	acc  "The LILA expression has been prematurely terminated."
    000726  aa  040 114 111 114
    000727  aa  101 040 145 170
    000730  aa  160 162 145 163
    000731  aa  163 151 157 156
    000732  aa  040 150 141 163
    000733  aa  040 142 145 145
    000734  aa  156 040 160 162
    000735  aa  145 155 141 164
    000736  aa  165 162 145 154
    000737  aa  171 040 164 145
    000740  aa  162 155 151 156
    000741  aa  141 164 145 144
    000742  aa  056 000 000 000

                                   112  ec empty_file,emptfl,
                                   113  	(Unexpected end of input stream.)
                        000046          	segdef  empty_file
    000046  a0   077777 000745
    000743  aa  145 155 160 164         	aci  "emptfl",8
    000744  aa  146 154 040 040
    000745  aa  037 125 156 145         	acc  "Unexpected end of input stream."
    000746  aa  170 160 145 143
    000747  aa  164 145 144 040
    000750  aa  145 156 144 040
    000751  aa  157 146 040 151
    000752  aa  156 160 165 164
    000753  aa  040 163 164 162
    000754  aa  145 141 155 056

                                   114  ec exp_line_len,expllen,
                                   115  	(A macro line has grown too large after argument substitution.)
                        000047          	segdef  exp_line_len
    000047  a0   077777 000757
    000755  aa  145 170 160 154         	aci  "expllen",8
    000756  aa  154 145 156 040
    000757  aa  075 101 040 155         	acc  "A macro line has grown too large after argument substitution."
    000760  aa  141 143 162 157
    000761  aa  040 154 151 156
    000762  aa  145 040 150 141
    000763  aa  163 040 147 162
    000764  aa  157 167 156 040
    000765  aa  164 157 157 040
    000766  aa  154 141 162 147
    000767  aa  145 040 141 146
    000770  aa  164 145 162 040
    000771  aa  141 162 147 165
    000772  aa  155 145 156 164
    000773  aa  040 163 165 142
    000774  aa  163 164 151 164
    000775  aa  165 164 151 157
    000776  aa  156 056 000 000

                                   116  ec expr_not_alld,expnalld,
                                   117  	(A select clause containing an expression is not allowed in a set operand.)
                        000050          	segdef  expr_not_alld
    000050  a0   077777 001001
    000777  aa  145 170 160 156         	aci  "expnalld",8
    001000  aa  141 154 154 144
    001001  aa  111 101 040 163         	acc  "A select clause containing an expression is not allowed in a set operand."
    001002  aa  145 154 145 143
    001003  aa  164 040 143 154
    001004  aa  141 165 163 145
    001005  aa  040 143 157 156
    001006  aa  164 141 151 156
    001007  aa  151 156 147 040
    001010  aa  141 156 040 145
    001011  aa  170 160 162 145
    001012  aa  163 163 151 157
    001013  aa  156 040 151 163
    001014  aa  040 156 157 164
    001015  aa  040 141 154 154
    001016  aa  157 167 145 144
    001017  aa  040 151 156 040
    001020  aa  141 040 163 145
    001021  aa  164 040 157 160
    001022  aa  145 162 141 156
    001023  aa  144 056 000 000

                                   118  ec expr_ovfl,exprovfl,
                                   119  	(LILA translator error -- A table overflow has occurred while processing an expression.)
                        000051          	segdef  expr_ovfl
    000051  a0   077777 001026
    001024  aa  145 170 160 162         	aci  "exprovfl",8
    001025  aa  157 166 146 154
    001026  aa  126 114 111 114         	acc  "LILA translator error -- A table overflow has occurred while processing an expression."
    001027  aa  101 040 164 162
    001030  aa  141 156 163 154
    001031  aa  141 164 157 162
    001032  aa  040 145 162 162
    001033  aa  157 162 040 055
    001034  aa  055 040 101 040
    001035  aa  164 141 142 154
    001036  aa  145 040 157 166
    001037  aa  145 162 146 154
    001040  aa  157 167 040 150
    001041  aa  141 163 040 157
    001042  aa  143 143 165 162
    001043  aa  162 145 144 040
    001044  aa  167 150 151 154
    001045  aa  145 040 160 162
    001046  aa  157 143 145 163
    001047  aa  163 151 156 147
    001050  aa  040 141 156 040
    001051  aa  145 170 160 162
    001052  aa  145 163 163 151
    001053  aa  157 156 056 000

                                   120  ec expr_str,exprstr,
                                   121  	(A string constant has been specified as an operand in an expression.)
                        000052          	segdef  expr_str
    000052  a0   077777 001056
    001054  aa  145 170 160 162         	aci  "exprstr",8
    001055  aa  163 164 162 040
    001056  aa  104 101 040 163         	acc  "A string constant has been specified as an operand in an expression."
    001057  aa  164 162 151 156
    001060  aa  147 040 143 157
    001061  aa  156 163 164 141
    001062  aa  156 164 040 150
    001063  aa  141 163 040 142
    001064  aa  145 145 156 040
    001065  aa  163 160 145 143
    001066  aa  151 146 151 145
    001067  aa  144 040 141 163
    001070  aa  040 141 156 040
    001071  aa  157 160 145 162
    001072  aa  141 156 144 040
    001073  aa  151 156 040 141
    001074  aa  156 040 145 170
    001075  aa  160 162 145 163
    001076  aa  163 151 157 156
    001077  aa  056 000 000 000

                                   122  ec first_expr_item,ex_item,
                                   123  	(An expression must begin with a column specification.)
                        000053          	segdef  first_expr_item
    000053  a0   077777 001102
    001100  aa  145 170 137 151         	aci  "ex_item",8
    001101  aa  164 145 155 040
    001102  aa  065 101 156 040         	acc  "An expression must begin with a column specification."
    001103  aa  145 170 160 162
    001104  aa  145 163 163 151
    001105  aa  157 156 040 155
    001106  aa  165 163 164 040
    001107  aa  142 145 147 151
    001110  aa  156 040 167 151
    001111  aa  164 150 040 141
    001112  aa  040 143 157 154
    001113  aa  165 155 156 040
    001114  aa  163 160 145 143
    001115  aa  151 146 151 143
    001116  aa  141 164 151 157
    001117  aa  156 056 000 000

                                   124  ec func_args_parens,funcparn,
                                   125  	(Builtin function arguments must be enclosed by parentheses.)
                        000054          	segdef  func_args_parens
    000054  a0   077777 001122
    001120  aa  146 165 156 143         	aci  "funcparn",8
    001121  aa  160 141 162 156
    001122  aa  073 102 165 151         	acc  "Builtin function arguments must be enclosed by parentheses."
    001123  aa  154 164 151 156
    001124  aa  040 146 165 156
    001125  aa  143 164 151 157
    001126  aa  156 040 141 162
    001127  aa  147 165 155 145
    001130  aa  156 164 163 040
    001131  aa  155 165 163 164
    001132  aa  040 142 145 040
    001133  aa  145 156 143 154
    001134  aa  157 163 145 144
    001135  aa  040 142 171 040
    001136  aa  160 141 162 145
    001137  aa  156 164 150 145
    001140  aa  163 145 163 056

                                   126  ec func_err,fn_err,
                                   127  	(An error occured while evaluating a scalar function that was specified in the select clause.)
                        000055          	segdef  func_err
    000055  a0   077777 001143
    001141  aa  146 156 137 145         	aci  "fn_err",8
    001142  aa  162 162 040 040
    001143  aa  134 101 156 040         	acc  "An error occured while evaluating a scalar function that was specified in the select clause."
    001144  aa  145 162 162 157
    001145  aa  162 040 157 143
    001146  aa  143 165 162 145
    001147  aa  144 040 167 150
    001150  aa  151 154 145 040
    001151  aa  145 166 141 154
    001152  aa  165 141 164 151
    001153  aa  156 147 040 141
    001154  aa  040 163 143 141
    001155  aa  154 141 162 040
    001156  aa  146 165 156 143
    001157  aa  164 151 157 156
    001160  aa  040 164 150 141
    001161  aa  164 040 167 141
    001162  aa  163 040 163 160
    001163  aa  145 143 151 146
    001164  aa  151 145 144 040
    001165  aa  151 156 040 164
    001166  aa  150 145 040 163
    001167  aa  145 154 145 143
    001170  aa  164 040 143 154
    001171  aa  141 165 163 145
    001172  aa  056 000 000 000

                                   128  ec ill_scp_op,illscpop,
                                   129  	(Invalid LINUS scope operation.)
                        000056          	segdef  ill_scp_op
    000056  a0   077777 001175
    001173  aa  151 154 154 163         	aci  "illscpop",8
    001174  aa  143 160 157 160
    001175  aa  036 111 156 166         	acc  "Invalid LINUS scope operation."
    001176  aa  141 154 151 144
    001177  aa  040 114 111 116
    001200  aa  125 123 040 163
    001201  aa  143 157 160 145
    001202  aa  040 157 160 145
    001203  aa  162 141 164 151
    001204  aa  157 156 056 000

                                   130  ec incomplete_select,incsel,
                                   131  	(A select clause is incomplete as specified.)
                        000057          	segdef  incomplete_select
    000057  a0   077777 001207
    001205  aa  151 156 143 163         	aci  "incsel",8
    001206  aa  145 154 040 040
    001207  aa  053 101 040 163         	acc  "A select clause is incomplete as specified."
    001210  aa  145 154 145 143
    001211  aa  164 040 143 154
    001212  aa  141 165 163 145
    001213  aa  040 151 163 040
    001214  aa  151 156 143 157
    001215  aa  155 160 154 145
    001216  aa  164 145 040 141
    001217  aa  163 040 163 160
    001220  aa  145 143 151 146
    001221  aa  151 145 144 056

                                   132  ec incomplete_where,incwhere,
                                   133  	(A where clause is incomplete as specified.)
                        000060          	segdef  incomplete_where
    000060  a0   077777 001224
    001222  aa  151 156 143 167         	aci  "incwhere",8
    001223  aa  150 145 162 145
    001224  aa  052 101 040 167         	acc  "A where clause is incomplete as specified."
    001225  aa  150 145 162 145
    001226  aa  040 143 154 141
    001227  aa  165 163 145 040
    001230  aa  151 163 040 151
    001231  aa  156 143 157 155
    001232  aa  160 154 145 164
    001233  aa  145 040 141 163
    001234  aa  040 163 160 145
    001235  aa  143 151 146 151
    001236  aa  145 144 056 000

                                   134  ec incons_args,inconarg,
                                   135  	(Inconsistent control arguments have been specified for this request.)
                        000061          	segdef  incons_args
    000061  a0   077777 001241
    001237  aa  151 156 143 157         	aci  "inconarg",8
    001240  aa  156 141 162 147
    001241  aa  104 111 156 143         	acc  "Inconsistent control arguments have been specified for this request."
    001242  aa  157 156 163 151
    001243  aa  163 164 145 156
    001244  aa  164 040 143 157
    001245  aa  156 164 162 157
    001246  aa  154 040 141 162
    001247  aa  147 165 155 145
    001250  aa  156 164 163 040
    001251  aa  150 141 166 145
    001252  aa  040 142 145 145
    001253  aa  156 040 163 160
    001254  aa  145 143 151 146
    001255  aa  151 145 144 040
    001256  aa  146 157 162 040
    001257  aa  164 150 151 163
    001260  aa  040 162 145 161
    001261  aa  165 145 163 164
    001262  aa  056 000 000 000

                                   136  ec incons_fun,inconsfn,
                                   137  	(Set function assign and calc entries are inconsistent.)
                        000062          	segdef  incons_fun
    000062  a0   077777 001265
    001263  aa  151 156 143 157         	aci  "inconsfn",8
    001264  aa  156 163 146 156
    001265  aa  066 123 145 164         	acc  "Set function assign and calc entries are inconsistent."
    001266  aa  040 146 165 156
    001267  aa  143 164 151 157
    001270  aa  156 040 141 163
    001271  aa  163 151 147 156
    001272  aa  040 141 156 144
    001273  aa  040 143 141 154
    001274  aa  143 040 145 156
    001275  aa  164 162 151 145
    001276  aa  163 040 141 162
    001277  aa  145 040 151 156
    001300  aa  143 157 156 163
    001301  aa  151 163 164 145
    001302  aa  156 164 056 000

                                   138  ec integer_too_large,inttoolg,
                                   139  	(An integer was given that exceeded the maximum allowable value.)
                        000063          	segdef  integer_too_large
    000063  a0   077777 001305
    001303  aa  151 156 164 164         	aci  "inttoolg",8
    001304  aa  157 157 154 147
    001305  aa  077 101 156 040         	acc  "An integer was given that exceeded the maximum allowable value."
    001306  aa  151 156 164 145
    001307  aa  147 145 162 040
    001310  aa  167 141 163 040
    001311  aa  147 151 166 145
    001312  aa  156 040 164 150
    001313  aa  141 164 040 145
    001314  aa  170 143 145 145
    001315  aa  144 145 144 040
    001316  aa  164 150 145 040
    001317  aa  155 141 170 151
    001320  aa  155 165 155 040
    001321  aa  141 154 154 157
    001322  aa  167 141 142 154
    001323  aa  145 040 166 141
    001324  aa  154 165 145 056

                                   140  ec integer_too_small,inttoosm,
                                   141  	(An integer was given that was below the minimum allowable value.)
                        000064          	segdef  integer_too_small
    000064  a0   077777 001327
    001325  aa  151 156 164 164         	aci  "inttoosm",8
    001326  aa  157 157 163 155
    001327  aa  100 101 156 040         	acc  "An integer was given that was below the minimum allowable value."
    001330  aa  151 156 164 145
    001331  aa  147 145 162 040
    001332  aa  167 141 163 040
    001333  aa  147 151 166 145
    001334  aa  156 040 164 150
    001335  aa  141 164 040 167
    001336  aa  141 163 040 142
    001337  aa  145 154 157 167
    001340  aa  040 164 150 145
    001341  aa  040 155 151 156
    001342  aa  151 155 165 155
    001343  aa  040 141 154 154
    001344  aa  157 167 141 142
    001345  aa  154 145 040 166
    001346  aa  141 154 165 145
    001347  aa  056 000 000 000

                                   142  ec inv_arg,inv_arg,
                                   143  	(An invalid argument has been specified for a LINUS request.)
                        000065          	segdef  inv_arg
    000065  a0   077777 001352
    001350  aa  151 156 166 137         	aci  "inv_arg",8
    001351  aa  141 162 147 040
    001352  aa  073 101 156 040         	acc  "An invalid argument has been specified for a LINUS request."
    001353  aa  151 156 166 141
    001354  aa  154 151 144 040
    001355  aa  141 162 147 165
    001356  aa  155 145 156 164
    001357  aa  040 150 141 163
    001360  aa  040 142 145 145
    001361  aa  156 040 163 160
    001362  aa  145 143 151 146
    001363  aa  151 145 144 040
    001364  aa  146 157 162 040
    001365  aa  141 040 114 111
    001366  aa  116 125 123 040
    001367  aa  162 145 161 165
    001370  aa  145 163 164 056

                                   144  ec inv_delim,invdelim,
                                   145  	(The DELIMITER for the delimiter option was not specified.)
                        000066          	segdef  inv_delim
    000066  a0   077777 001373
    001371  aa  151 156 166 144         	aci  "invdelim",8
    001372  aa  145 154 151 155
    001373  aa  071 124 150 145         	acc  "The DELIMITER for the delimiter option was not specified."
    001374  aa  040 104 105 114
    001375  aa  111 115 111 124
    001376  aa  105 122 040 146
    001377  aa  157 162 040 164
    001400  aa  150 145 040 144
    001401  aa  145 154 151 155
    001402  aa  151 164 145 162
    001403  aa  040 157 160 164
    001404  aa  151 157 156 040
    001405  aa  167 141 163 040
    001406  aa  156 157 164 040
    001407  aa  163 160 145 143
    001410  aa  151 146 151 145
    001411  aa  144 056 000 000

                                   146  ec inv_delimiter,inv_dm,
                                   147  	(An invalid delimiter was specified within a LINUS request argument.)
                        000067          	segdef  inv_delimiter
    000067  a0   077777 001414
    001412  aa  151 156 166 137         	aci  "inv_dm",8
    001413  aa  144 155 040 040
    001414  aa  103 101 156 040         	acc  "An invalid delimiter was specified within a LINUS request argument."
    001415  aa  151 156 166 141
    001416  aa  154 151 144 040
    001417  aa  144 145 154 151
    001420  aa  155 151 164 145
    001421  aa  162 040 167 141
    001422  aa  163 040 163 160
    001423  aa  145 143 151 146
    001424  aa  151 145 144 040
    001425  aa  167 151 164 150
    001426  aa  151 156 040 141
    001427  aa  040 114 111 116
    001430  aa  125 123 040 162
    001431  aa  145 161 165 145
    001432  aa  163 164 040 141
    001433  aa  162 147 165 155
    001434  aa  145 156 164 056

                                   148  ec inv_expr,inv_expr,
                                   149  	(An invalid LINUS expression was found.)
                        000070          	segdef  inv_expr
    000070  a0   077777 001437
    001435  aa  151 156 166 137         	aci  "inv_expr",8
    001436  aa  145 170 160 162
    001437  aa  046 101 156 040         	acc  "An invalid LINUS expression was found."
    001440  aa  151 156 166 141
    001441  aa  154 151 144 040
    001442  aa  114 111 116 125
    001443  aa  123 040 145 170
    001444  aa  160 162 145 163
    001445  aa  163 151 157 156
    001446  aa  040 167 141 163
    001447  aa  040 146 157 165
    001450  aa  156 144 056 000

                                   150  ec inv_fn_type,invfntyp,
                                   151  	(Function type must be either 'set' or 'scalar'.)
                        000071          	segdef  inv_fn_type
    000071  a0   077777 001453
    001451  aa  151 156 166 146         	aci  "invfntyp",8
    001452  aa  156 164 171 160
    001453  aa  057 106 165 156         	acc  "Function type must be either 'set' or 'scalar'."
    001454  aa  143 164 151 157
    001455  aa  156 040 164 171
    001456  aa  160 145 040 155
    001457  aa  165 163 164 040
    001460  aa  142 145 040 145
    001461  aa  151 164 150 145
    001462  aa  162 040 047 163
    001463  aa  145 164 047 040
    001464  aa  157 162 040 047
    001465  aa  163 143 141 154
    001466  aa  141 162 047 056

                                   152  ec inv_for_delete,invfrdel,
                                   153  	(The LILA selection expression is not valid for delete.)
                        000072          	segdef  inv_for_delete
    000072  a0   077777 001471
    001467  aa  151 156 166 146         	aci  "invfrdel",8
    001470  aa  162 144 145 154
    001471  aa  066 124 150 145         	acc  "The LILA selection expression is not valid for delete."
    001472  aa  040 114 111 114
    001473  aa  101 040 163 145
    001474  aa  154 145 143 164
    001475  aa  151 157 156 040
    001476  aa  145 170 160 162
    001477  aa  145 163 163 151
    001500  aa  157 156 040 151
    001501  aa  163 040 156 157
    001502  aa  164 040 166 141
    001503  aa  154 151 144 040
    001504  aa  146 157 162 040
    001505  aa  144 145 154 145
    001506  aa  164 145 056 000

                                   154  ec inv_lila_req,invlireq,
                                   155  	(Unrecognizable LILA request. Type '?' for a request list.)
                        000073          	segdef  inv_lila_req
    000073  a0   077777 001511
    001507  aa  151 156 166 154         	aci  "invlireq",8
    001510  aa  151 162 145 161
    001511  aa  071 125 156 162         	acc  "Unrecognizable LILA request. Type '?' for a request list."
    001512  aa  145 143 157 147
    001513  aa  156 151 172 141
    001514  aa  142 154 145 040
    001515  aa  114 111 114 101
    001516  aa  040 162 145 161
    001517  aa  165 145 163 164
    001520  aa  056 040 124 171
    001521  aa  160 145 040 047
    001522  aa  077 047 040 146
    001523  aa  157 162 040 141
    001524  aa  040 162 145 161
    001525  aa  165 145 163 164
    001526  aa  040 154 151 163
    001527  aa  164 056 000 000

                                   156  ec inv_lin_var,invlin,
                                   157  	('!' can occur only as the first character of a linus variable.)
                        000074          	segdef  inv_lin_var
    000074  a0   077777 001532
    001530  aa  151 156 166 154         	aci  "invlin",8
    001531  aa  151 156 040 040
    001532  aa  076 047 041 047         	acc  "'!' can occur only as the first character of a linus variable."
    001533  aa  040 143 141 156
    001534  aa  040 157 143 143
    001535  aa  165 162 040 157
    001536  aa  156 154 171 040
    001537  aa  141 163 040 164
    001540  aa  150 145 040 146
    001541  aa  151 162 163 164
    001542  aa  040 143 150 141
    001543  aa  162 141 143 164
    001544  aa  145 162 040 157
    001545  aa  146 040 141 040
    001546  aa  154 151 156 165
    001547  aa  163 040 166 141
    001550  aa  162 151 141 142
    001551  aa  154 145 056 000

                                   158  ec inv_linus_var,invlinvr,
                                   159  	(All linus variables must begin with '!'.)
                        000075          	segdef  inv_linus_var
    000075  a0   077777 001554
    001552  aa  151 156 166 154         	aci  "invlinvr",8
    001553  aa  151 156 166 162
    001554  aa  050 101 154 154         	acc  "All linus variables must begin with '!'."
    001555  aa  040 154 151 156
    001556  aa  165 163 040 166
    001557  aa  141 162 151 141
    001560  aa  142 154 145 163
    001561  aa  040 155 165 163
    001562  aa  164 040 142 145
    001563  aa  147 151 156 040
    001564  aa  167 151 164 150
    001565  aa  040 047 041 047
    001566  aa  056 000 000 000

                                   160  ec inv_mod_expr,invmodex,
                                   161  	(An invalid expression was found in the MODIFY request.)
                        000076          	segdef  inv_mod_expr
    000076  a0   077777 001571
    001567  aa  151 156 166 155         	aci  "invmodex",8
    001570  aa  157 144 145 170
    001571  aa  066 101 156 040         	acc  "An invalid expression was found in the MODIFY request."
    001572  aa  151 156 166 141
    001573  aa  154 151 144 040
    001574  aa  145 170 160 162
    001575  aa  145 163 163 151
    001576  aa  157 156 040 167
    001577  aa  141 163 040 146
    001600  aa  157 165 156 144
    001601  aa  040 151 156 040
    001602  aa  164 150 145 040
    001603  aa  115 117 104 111
    001604  aa  106 131 040 162
    001605  aa  145 161 165 145
    001606  aa  163 164 056 000

                                   162  ec inv_mode,inv_md,
                                   163  	(The mode specified is not valid.)
                        000077          	segdef  inv_mode
    000077  a0   077777 001611
    001607  aa  151 156 166 137         	aci  "inv_md",8
    001610  aa  155 144 040 040
    001611  aa  040 124 150 145         	acc  "The mode specified is not valid."
    001612  aa  040 155 157 144
    001613  aa  145 040 163 160
    001614  aa  145 143 151 146
    001615  aa  151 145 144 040
    001616  aa  151 163 040 156
    001617  aa  157 164 040 166
    001620  aa  141 154 151 144
    001621  aa  056 000 000 000

                                   164  ec inv_pathname,invpath,
                                   165  	(The PATHNAME for the file option was not specified.)
                        000100          	segdef  inv_pathname
    000100  a0   077777 001624
    001622  aa  151 156 166 160         	aci  "invpath",8
    001623  aa  141 164 150 040
    001624  aa  063 124 150 145         	acc  "The PATHNAME for the file option was not specified."
    001625  aa  040 120 101 124
    001626  aa  110 116 101 115
    001627  aa  105 040 146 157
    001630  aa  162 040 164 150
    001631  aa  145 040 146 151
    001632  aa  154 145 040 157
    001633  aa  160 164 151 157
    001634  aa  156 040 167 141
    001635  aa  163 040 156 157
    001636  aa  164 040 163 160
    001637  aa  145 143 151 146
    001640  aa  151 145 144 056

                                   166  ec inv_req,inv_req,
                                   167  	(Invalid LINUS request.)
                        000101          	segdef  inv_req
    000101  a0   077777 001643
    001641  aa  151 156 166 137         	aci  "inv_req",8
    001642  aa  162 145 161 040
    001643  aa  026 111 156 166         	acc  "Invalid LINUS request."
    001644  aa  141 154 151 144
    001645  aa  040 114 111 116
    001646  aa  125 123 040 162
    001647  aa  145 161 165 145
    001650  aa  163 164 056 000

                                   168  ec inv_sclf_args,invscfar,
                                   169  	(The input arguments to a scalar function are invalid.)
                        000102          	segdef  inv_sclf_args
    000102  a0   077777 001653
    001651  aa  151 156 166 163         	aci  "invscfar",8
    001652  aa  143 146 141 162
    001653  aa  065 124 150 145         	acc  "The input arguments to a scalar function are invalid."
    001654  aa  040 151 156 160
    001655  aa  165 164 040 141
    001656  aa  162 147 165 155
    001657  aa  145 156 164 163
    001660  aa  040 164 157 040
    001661  aa  141 040 163 143
    001662  aa  141 154 141 162
    001663  aa  040 146 165 156
    001664  aa  143 164 151 157
    001665  aa  156 040 141 162
    001666  aa  145 040 151 156
    001667  aa  166 141 154 151
    001670  aa  144 056 000 000

                                   170  ec inv_sclf_use,invscfus,
                                   171  	(A non-arithmetic scalar function cannot be used within a select clause expression.)
                        000103          	segdef  inv_sclf_use
    000103  a0   077777 001673
    001671  aa  151 156 166 163         	aci  "invscfus",8
    001672  aa  143 146 165 163
    001673  aa  122 101 040 156         	acc  "A non-arithmetic scalar function cannot be used within a select clause expression."
    001674  aa  157 156 055 141
    001675  aa  162 151 164 150
    001676  aa  155 145 164 151
    001677  aa  143 040 163 143
    001700  aa  141 154 141 162
    001701  aa  040 146 165 156
    001702  aa  143 164 151 157
    001703  aa  156 040 143 141
    001704  aa  156 156 157 164
    001705  aa  040 142 145 040
    001706  aa  165 163 145 144
    001707  aa  040 167 151 164
    001710  aa  150 151 156 040
    001711  aa  141 040 163 145
    001712  aa  154 145 143 164
    001713  aa  040 143 154 141
    001714  aa  165 163 145 040
    001715  aa  145 170 160 162
    001716  aa  145 163 163 151
    001717  aa  157 156 056 000

                                   172  ec inv_set_scope,inv_ss,
                                   173  	(All scope definitions must be deleted before the set scope request is made.)
                        000104          	segdef  inv_set_scope
    000104  a0   077777 001722
    001720  aa  151 156 166 137         	aci  "inv_ss",8
    001721  aa  163 163 040 040
    001722  aa  113 101 154 154         	acc  "All scope definitions must be deleted before the set scope request is made."
    001723  aa  040 163 143 157
    001724  aa  160 145 040 144
    001725  aa  145 146 151 156
    001726  aa  151 164 151 157
    001727  aa  156 163 040 155
    001730  aa  165 163 164 040
    001731  aa  142 145 040 144
    001732  aa  145 154 145 164
    001733  aa  145 144 040 142
    001734  aa  145 146 157 162
    001735  aa  145 040 164 150
    001736  aa  145 040 163 145
    001737  aa  164 040 163 143
    001740  aa  157 160 145 040
    001741  aa  162 145 161 165
    001742  aa  145 163 164 040
    001743  aa  151 163 040 155
    001744  aa  141 144 145 056

                                   174  ec inv_setfn_args,invsfarg,
                                   175  	(The selected items are unacceptable as arguments to the specified set function.)
                        000105          	segdef  inv_setfn_args
    000105  a0   077777 001747
    001745  aa  151 156 166 163         	aci  "invsfarg",8
    001746  aa  146 141 162 147
    001747  aa  117 124 150 145         	acc  "The selected items are unacceptable as arguments to the specified set function."
    001750  aa  040 163 145 154
    001751  aa  145 143 164 145
    001752  aa  144 040 151 164
    001753  aa  145 155 163 040
    001754  aa  141 162 145 040
    001755  aa  165 156 141 143
    001756  aa  143 145 160 164
    001757  aa  141 142 154 145
    001760  aa  040 141 163 040
    001761  aa  141 162 147 165
    001762  aa  155 145 156 164
    001763  aa  163 040 164 157
    001764  aa  040 164 150 145
    001765  aa  040 163 160 145
    001766  aa  143 151 146 151
    001767  aa  145 144 040 163
    001770  aa  145 164 040 146
    001771  aa  165 156 143 164
    001772  aa  151 157 156 056

                                   176  ec inv_setfn_set,invsfset,
                                   177  	(The specified LILA expression is not suitable as input to a set function.)
                        000106          	segdef  inv_setfn_set
    000106  a0   077777 001775
    001773  aa  151 156 166 163         	aci  "invsfset",8
    001774  aa  146 163 145 164
    001775  aa  111 124 150 145         	acc  "The specified LILA expression is not suitable as input to a set function."
    001776  aa  040 163 160 145
    001777  aa  143 151 146 151
    002000  aa  145 144 040 114
    002001  aa  111 114 101 040
    002002  aa  145 170 160 162
    002003  aa  145 163 163 151
    002004  aa  157 156 040 151
    002005  aa  163 040 156 157
    002006  aa  164 040 163 165
    002007  aa  151 164 141 142
    002010  aa  154 145 040 141
    002011  aa  163 040 151 156
    002012  aa  160 165 164 040
    002013  aa  164 157 040 141
    002014  aa  040 163 145 164
    002015  aa  040 146 165 156
    002016  aa  143 164 151 157
    002017  aa  156 056 000 000

                                   178  ec inv_string_const,invstrco,
                                   179  	(An invalid character or bit string constant has been found.)
                        000107          	segdef  inv_string_const
    000107  a0   077777 002022
    002020  aa  151 156 166 163         	aci  "invstrco",8
    002021  aa  164 162 143 157
    002022  aa  073 101 156 040         	acc  "An invalid character or bit string constant has been found."
    002023  aa  151 156 166 141
    002024  aa  154 151 144 040
    002025  aa  143 150 141 162
    002026  aa  141 143 164 145
    002027  aa  162 040 157 162
    002030  aa  040 142 151 164
    002031  aa  040 163 164 162
    002032  aa  151 156 147 040
    002033  aa  143 157 156 163
    002034  aa  164 141 156 164
    002035  aa  040 150 141 163
    002036  aa  040 142 145 145
    002037  aa  156 040 146 157
    002040  aa  165 156 144 056

                                   180  ec inv_table,inv_tab,
                                   181  	(An incorrect table name was specified.)
                        000110          	segdef  inv_table
    000110  a0   077777 002043
    002041  aa  151 156 166 137         	aci  "inv_tab",8
    002042  aa  164 141 142 040
    002043  aa  046 101 156 040         	acc  "An incorrect table name was specified."
    002044  aa  151 156 143 157
    002045  aa  162 162 145 143
    002046  aa  164 040 164 141
    002047  aa  142 154 145 040
    002050  aa  156 141 155 145
    002051  aa  040 167 141 163
    002052  aa  040 163 160 145
    002053  aa  143 151 146 151
    002054  aa  145 144 056 000

                                   182  ec inv_token_type,inv_tt,
                                   183  	(An invalid token type was found while parsing an expression.)
                        000111          	segdef  inv_token_type
    000111  a0   077777 002057
    002055  aa  151 156 166 137         	aci  "inv_tt",8
    002056  aa  164 164 040 040
    002057  aa  074 101 156 040         	acc  "An invalid token type was found while parsing an expression."
    002060  aa  151 156 166 141
    002061  aa  154 151 144 040
    002062  aa  164 157 153 145
    002063  aa  156 040 164 171
    002064  aa  160 145 040 167
    002065  aa  141 163 040 146
    002066  aa  157 165 156 144
    002067  aa  040 167 150 151
    002070  aa  154 145 040 160
    002071  aa  141 162 163 151
    002072  aa  156 147 040 141
    002073  aa  156 040 145 170
    002074  aa  160 162 145 163
    002075  aa  163 151 157 156
    002076  aa  056 000 000 000

                                   184  ec inv_tup_var,inv_tvar,
                                   185  	(All database items contained in an expression must be selected from the same table.)
                        000112          	segdef  inv_tup_var
    000112  a0   077777 002101
    002077  aa  151 156 166 137         	aci  "inv_tvar",8
    002100  aa  164 166 141 162
    002101  aa  123 101 154 154         	acc  "All database items contained in an expression must be selected from the same table."
    002102  aa  040 144 141 164
    002103  aa  141 142 141 163
    002104  aa  145 040 151 164
    002105  aa  145 155 163 040
    002106  aa  143 157 156 164
    002107  aa  141 151 156 145
    002110  aa  144 040 151 156
    002111  aa  040 141 156 040
    002112  aa  145 170 160 162
    002113  aa  145 163 163 151
    002114  aa  157 156 040 155
    002115  aa  165 163 164 040
    002116  aa  142 145 040 163
    002117  aa  145 154 145 143
    002120  aa  164 145 144 040
    002121  aa  146 162 157 155
    002122  aa  040 164 150 145
    002123  aa  040 163 141 155
    002124  aa  145 040 164 141
    002125  aa  142 154 145 056

                                   186  ec inval_ctl_arg,invcltar,
                                   187  	(An invalid control argument has been given.)
                        000113          	segdef  inval_ctl_arg
    000113  a0   077777 002130
    002126  aa  151 156 166 143         	aci  "invcltar",8
    002127  aa  154 164 141 162
    002130  aa  053 101 156 040         	acc  "An invalid control argument has been given."
    002131  aa  151 156 166 141
    002132  aa  154 151 144 040
    002133  aa  143 157 156 164
    002134  aa  162 157 154 040
    002135  aa  141 162 147 165
    002136  aa  155 145 156 164
    002137  aa  040 150 141 163
    002140  aa  040 142 145 145
    002141  aa  156 040 147 151
    002142  aa  166 145 156 056

                                   188  ec invalid_token,invtoken,
                                   189  	(An unrecognizable token has been found.)
                        000114          	segdef  invalid_token
    000114  a0   077777 002145
    002143  aa  151 156 166 164         	aci  "invtoken",8
    002144  aa  157 153 145 156
    002145  aa  047 101 156 040         	acc  "An unrecognizable token has been found."
    002146  aa  165 156 162 145
    002147  aa  143 157 147 156
    002150  aa  151 172 141 142
    002151  aa  154 145 040 164
    002152  aa  157 153 145 156
    002153  aa  040 150 141 163
    002154  aa  040 142 145 145
    002155  aa  156 040 146 157
    002156  aa  165 156 144 056

                                   190  ec linus_var_not_defined,lin_var,
                                   191  	(The LINUS variable used was not previously defined.)
                        000115          	segdef  linus_var_not_defined
    000115  a0   077777 002161
    002157  aa  154 151 156 137         	aci  "lin_var",8
    002160  aa  166 141 162 040
    002161  aa  063 124 150 145         	acc  "The LINUS variable used was not previously defined."
    002162  aa  040 114 111 116
    002163  aa  125 123 040 166
    002164  aa  141 162 151 141
    002165  aa  142 154 145 040
    002166  aa  165 163 145 144
    002167  aa  040 167 141 163
    002170  aa  040 156 157 164
    002171  aa  040 160 162 145
    002172  aa  166 151 157 165
    002173  aa  163 154 171 040
    002174  aa  144 145 146 151
    002175  aa  156 145 144 056

                                   192  ec lister_col_names,liscolnm,
                                   193  	(The column names selected are not the same as the field names stored in the LISTER file.)
                        000116          	segdef  lister_col_names
    000116  a0   077777 002200
    002176  aa  154 151 163 143         	aci  "liscolnm",8
    002177  aa  157 154 156 155
    002200  aa  130 124 150 145         	acc  "The column names selected are not the same as the field names stored in the LISTER file."
    002201  aa  040 143 157 154
    002202  aa  165 155 156 040
    002203  aa  156 141 155 145
    002204  aa  163 040 163 145
    002205  aa  154 145 143 164
    002206  aa  145 144 040 141
    002207  aa  162 145 040 156
    002210  aa  157 164 040 164
    002211  aa  150 145 040 163
    002212  aa  141 155 145 040
    002213  aa  141 163 040 164
    002214  aa  150 145 040 146
    002215  aa  151 145 154 144
    002216  aa  040 156 141 155
    002217  aa  145 163 040 163
    002220  aa  164 157 162 145
    002221  aa  144 040 151 156
    002222  aa  040 164 150 145
    002223  aa  040 114 111 123
    002224  aa  124 105 122 040
    002225  aa  146 151 154 145
    002226  aa  056 000 000 000

                                   194  ec lister_col_nums,liscolnu,
                                   195  	(The number of items selected are not the same as the number of fields stored in the LISTER file.)
                        000117          	segdef  lister_col_nums
    000117  a0   077777 002231
    002227  aa  154 151 163 143         	aci  "liscolnu",8
    002230  aa  157 154 156 165
    002231  aa  140 124 150 145         	acc  "The number of items selected are not the same as the number of fields stored in the LISTER file."
    002232  aa  040 156 165 155
    002233  aa  142 145 162 040
    002234  aa  157 146 040 151
    002235  aa  164 145 155 163
    002236  aa  040 163 145 154
    002237  aa  145 143 164 145
    002240  aa  144 040 141 162
    002241  aa  145 040 156 157
    002242  aa  164 040 164 150
    002243  aa  145 040 163 141
    002244  aa  155 145 040 141
    002245  aa  163 040 164 150
    002246  aa  145 040 156 165
    002247  aa  155 142 145 162
    002250  aa  040 157 146 040
    002251  aa  146 151 145 154
    002252  aa  144 163 040 163
    002253  aa  164 157 162 145
    002254  aa  144 040 151 156
    002255  aa  040 164 150 145
    002256  aa  040 114 111 123
    002257  aa  124 105 122 040
    002260  aa  146 151 154 145
    002261  aa  056 000 000 000

                                   196  ec long_id,longid,
                                   197  	(An identifier longer than the maximum length has been specified.)
                        000120          	segdef  long_id
    000120  a0   077777 002264
    002262  aa  154 157 156 147         	aci  "longid",8
    002263  aa  151 144 040 040
    002264  aa  100 101 156 040         	acc  "An identifier longer than the maximum length has been specified."
    002265  aa  151 144 145 156
    002266  aa  164 151 146 151
    002267  aa  145 162 040 154
    002270  aa  157 156 147 145
    002271  aa  162 040 164 150
    002272  aa  141 156 040 164
    002273  aa  150 145 040 155
    002274  aa  141 170 151 155
    002275  aa  165 155 040 154
    002276  aa  145 156 147 164
    002277  aa  150 040 150 141
    002300  aa  163 040 142 145
    002301  aa  145 156 040 163
    002302  aa  160 145 143 151
    002303  aa  146 151 145 144
    002304  aa  056 000 000 000

                                   198  ec long_lv_name,lglvnam,
                                   199  	(A LINUS variable name longer than the maximum length has been specified.)
                        000121          	segdef  long_lv_name
    000121  a0   077777 002307
    002305  aa  154 147 154 166         	aci  "lglvnam",8
    002306  aa  156 141 155 040
    002307  aa  110 101 040 114         	acc  "A LINUS variable name longer than the maximum length has been specified."
    002310  aa  111 116 125 123
    002311  aa  040 166 141 162
    002312  aa  151 141 142 154
    002313  aa  145 040 156 141
    002314  aa  155 145 040 154
    002315  aa  157 156 147 145
    002316  aa  162 040 164 150
    002317  aa  141 156 040 164
    002320  aa  150 145 040 155
    002321  aa  141 170 151 155
    002322  aa  165 155 040 154
    002323  aa  145 156 147 164
    002324  aa  150 040 150 141
    002325  aa  163 040 142 145
    002326  aa  145 156 040 163
    002327  aa  160 145 143 151
    002330  aa  146 151 145 144
    002331  aa  056 000 000 000

                                   200  ec max_req_args,maxrargs,
                                   201  	(The maximum number of arguments for a request has been exceeded.)
                        000122          	segdef  max_req_args
    000122  a0   077777 002334
    002332  aa  155 141 170 162         	aci  "maxrargs",8
    002333  aa  141 162 147 163
    002334  aa  100 124 150 145         	acc  "The maximum number of arguments for a request has been exceeded."
    002335  aa  040 155 141 170
    002336  aa  151 155 165 155
    002337  aa  040 156 165 155
    002340  aa  142 145 162 040
    002341  aa  157 146 040 141
    002342  aa  162 147 165 155
    002343  aa  145 156 164 163
    002344  aa  040 146 157 162
    002345  aa  040 141 040 162
    002346  aa  145 161 165 145
    002347  aa  163 164 040 150
    002350  aa  141 163 040 142
    002351  aa  145 145 156 040
    002352  aa  145 170 143 145
    002353  aa  145 144 145 144
    002354  aa  056 000 000 000

                                   202  ec misplaced_select,miselect,
                                   203  	(A select keyword has been detected in an invalid context.)
                        000123          	segdef  misplaced_select
    000123  a0   077777 002357
    002355  aa  155 151 163 145         	aci  "miselect",8
    002356  aa  154 145 143 164
    002357  aa  071 101 040 163         	acc  "A select keyword has been detected in an invalid context."
    002360  aa  145 154 145 143
    002361  aa  164 040 153 145
    002362  aa  171 167 157 162
    002363  aa  144 040 150 141
    002364  aa  163 040 142 145
    002365  aa  145 156 040 144
    002366  aa  145 164 145 143
    002367  aa  164 145 144 040
    002370  aa  151 156 040 141
    002371  aa  156 040 151 156
    002372  aa  166 141 154 151
    002373  aa  144 040 143 157
    002374  aa  156 164 145 170
    002375  aa  164 056 000 000

                                   204  ec misplaced_setop,missetop,
                                   205  	(A set operator has been detected in an invalid context.)
                        000124          	segdef  misplaced_setop
    000124  a0   077777 002400
    002376  aa  155 151 163 163         	aci  "missetop",8
    002377  aa  145 164 157 160
    002400  aa  067 101 040 163         	acc  "A set operator has been detected in an invalid context."
    002401  aa  145 164 040 157
    002402  aa  160 145 162 141
    002403  aa  164 157 162 040
    002404  aa  150 141 163 040
    002405  aa  142 145 145 156
    002406  aa  040 144 145 164
    002407  aa  145 143 164 145
    002410  aa  144 040 151 156
    002411  aa  040 141 156 040
    002412  aa  151 156 166 141
    002413  aa  154 151 144 040
    002414  aa  143 157 156 164
    002415  aa  145 170 164 056

                                   206  ec mod_key_col,modkey,
                                   207  	(Modification of key column values is not permitted.)
                        000125          	segdef  mod_key_col
    000125  a0   077777 002420
    002416  aa  155 157 144 153         	aci  "modkey",8
    002417  aa  145 171 040 040
    002420  aa  063 115 157 144         	acc  "Modification of key column values is not permitted."
    002421  aa  151 146 151 143
    002422  aa  141 164 151 157
    002423  aa  156 040 157 146
    002424  aa  040 153 145 171
    002425  aa  040 143 157 154
    002426  aa  165 155 156 040
    002427  aa  166 141 154 165
    002430  aa  145 163 040 151
    002431  aa  163 040 156 157
    002432  aa  164 040 160 145
    002433  aa  162 155 151 164
    002434  aa  164 145 144 056

                                   208  ec mod_not_valid,modnval,
                                   209  	(The LILA expression is not valid for the modify request.)
                        000126          	segdef  mod_not_valid
    000126  a0   077777 002437
    002435  aa  155 157 144 156         	aci  "modnval",8
    002436  aa  166 141 154 040
    002437  aa  070 124 150 145         	acc  "The LILA expression is not valid for the modify request."
    002440  aa  040 114 111 114
    002441  aa  101 040 145 170
    002442  aa  160 162 145 163
    002443  aa  163 151 157 156
    002444  aa  040 151 163 040
    002445  aa  156 157 164 040
    002446  aa  166 141 154 151
    002447  aa  144 040 146 157
    002450  aa  162 040 164 150
    002451  aa  145 040 155 157
    002452  aa  144 151 146 171
    002453  aa  040 162 145 161
    002454  aa  165 145 163 164
    002455  aa  056 000 000 000

                                   210  ec mrds_item_not_def,mrdsind,
                                   211  	(A data base item specified in the MODIFY request expression was not selected via LILA.)
                        000127          	segdef  mrds_item_not_def
    000127  a0   077777 002460
    002456  aa  155 162 144 163         	aci  "mrdsind",8
    002457  aa  151 156 144 040
    002460  aa  126 101 040 144         	acc  "A data base item specified in the MODIFY request expression was not selected via LILA."
    002461  aa  141 164 141 040
    002462  aa  142 141 163 145
    002463  aa  040 151 164 145
    002464  aa  155 040 163 160
    002465  aa  145 143 151 146
    002466  aa  151 145 144 040
    002467  aa  151 156 040 164
    002470  aa  150 145 040 115
    002471  aa  117 104 111 106
    002472  aa  131 040 162 145
    002473  aa  161 165 145 163
    002474  aa  164 040 145 170
    002475  aa  160 162 145 163
    002476  aa  163 151 157 156
    002477  aa  040 167 141 163
    002500  aa  040 156 157 164
    002501  aa  040 163 145 154
    002502  aa  145 143 164 145
    002503  aa  144 040 166 151
    002504  aa  141 040 114 111
    002505  aa  114 101 056 000

                                   212  ec mult_updt_rows,multupdt,
                                   213  	(Update of column values from more than one row is not permitted.)
                        000130          	segdef  mult_updt_rows
    000130  a0   077777 002510
    002506  aa  155 165 154 164         	aci  "multupdt",8
    002507  aa  165 160 144 164
    002510  aa  100 125 160 144         	acc  "Update of column values from more than one row is not permitted."
    002511  aa  141 164 145 040
    002512  aa  157 146 040 143
    002513  aa  157 154 165 155
    002514  aa  156 040 166 141
    002515  aa  154 165 145 163
    002516  aa  040 146 162 157
    002517  aa  155 040 155 157
    002520  aa  162 145 040 164
    002521  aa  150 141 156 040
    002522  aa  157 156 145 040
    002523  aa  162 157 167 040
    002524  aa  151 163 040 156
    002525  aa  157 164 040 160
    002526  aa  145 162 155 151
    002527  aa  164 164 145 144
    002530  aa  056 000 000 000

                                   214  ec no_comma,no_comma,
                                   215  	(Scalar function arguments must be separated by commas.)
                        000131          	segdef  no_comma
    000131  a0   077777 002533
    002531  aa  156 157 137 143         	aci  "no_comma",8
    002532  aa  157 155 155 141
    002533  aa  066 123 143 141         	acc  "Scalar function arguments must be separated by commas."
    002534  aa  154 141 162 040
    002535  aa  146 165 156 143
    002536  aa  164 151 157 156
    002537  aa  040 141 162 147
    002540  aa  165 155 145 156
    002541  aa  164 163 040 155
    002542  aa  165 163 164 040
    002543  aa  142 145 040 163
    002544  aa  145 160 141 162
    002545  aa  141 164 145 144
    002546  aa  040 142 171 040
    002547  aa  143 157 155 155
    002550  aa  141 163 056 000

                                   216  ec no_current_query,noquery,
                                   217  	(There are no query statements available.)
                        000132          	segdef  no_current_query
    000132  a0   077777 002553
    002551  aa  156 157 161 165         	aci  "noquery",8
    002552  aa  145 162 171 040
    002553  aa  050 124 150 145         	acc  "There are no query statements available."
    002554  aa  162 145 040 141
    002555  aa  162 145 040 156
    002556  aa  157 040 161 165
    002557  aa  145 162 171 040
    002560  aa  163 164 141 164
    002561  aa  145 155 145 156
    002562  aa  164 163 040 141
    002563  aa  166 141 151 154
    002564  aa  141 142 154 145
    002565  aa  056 000 000 000

                                   218  ec no_data,no_data,
                                   219  	(No data was found that satisfied the selection expression.)
                        000133          	segdef  no_data
    000133  a0   077777 002570
    002566  aa  156 157 137 144         	aci  "no_data",8
    002567  aa  141 164 141 040
    002570  aa  072 116 157 040         	acc  "No data was found that satisfied the selection expression."
    002571  aa  144 141 164 141
    002572  aa  040 167 141 163
    002573  aa  040 146 157 165
    002574  aa  156 144 040 164
    002575  aa  150 141 164 040
    002576  aa  163 141 164 151
    002577  aa  163 146 151 145
    002600  aa  144 040 164 150
    002601  aa  145 040 163 145
    002602  aa  154 145 143 164
    002603  aa  151 157 156 040
    002604  aa  145 170 160 162
    002605  aa  145 163 163 151
    002606  aa  157 156 056 000

                                   220  ec no_db,no_db,
                                   221  	(There is no data base currently open.)
                        000134          	segdef  no_db
    000134  a0   077777 002611
    002607  aa  156 157 137 144         	aci  "no_db",8
    002610  aa  142 040 040 040
    002611  aa  045 124 150 145         	acc  "There is no data base currently open."
    002612  aa  162 145 040 151
    002613  aa  163 040 156 157
    002614  aa  040 144 141 164
    002615  aa  141 040 142 141
    002616  aa  163 145 040 143
    002617  aa  165 162 162 145
    002620  aa  156 164 154 171
    002621  aa  040 157 160 145
    002622  aa  156 056 000 000

                                   222  ec no_from,nofrom,
                                   223  	(No from clause has been specified.)
                        000135          	segdef  no_from
    000135  a0   077777 002625
    002623  aa  156 157 146 162         	aci  "nofrom",8
    002624  aa  157 155 040 040
    002625  aa  042 116 157 040         	acc  "No from clause has been specified."
    002626  aa  146 162 157 155
    002627  aa  040 143 154 141
    002630  aa  165 163 145 040
    002631  aa  150 141 163 040
    002632  aa  142 145 145 156
    002633  aa  040 163 160 145
    002634  aa  143 151 146 151
    002635  aa  145 144 056 000

                                   224  ec no_input_arg,noinarg,
                                   225  	(No input argument was specified for this LINUS request.)
                        000136          	segdef  no_input_arg
    000136  a0   077777 002640
    002636  aa  156 157 151 156         	aci  "noinarg",8
    002637  aa  141 162 147 040
    002640  aa  067 116 157 040         	acc  "No input argument was specified for this LINUS request."
    002641  aa  151 156 160 165
    002642  aa  164 040 141 162
    002643  aa  147 165 155 145
    002644  aa  156 164 040 167
    002645  aa  141 163 040 163
    002646  aa  160 145 143 151
    002647  aa  146 151 145 144
    002650  aa  040 146 157 162
    002651  aa  040 164 150 151
    002652  aa  163 040 114 111
    002653  aa  116 125 123 040
    002654  aa  162 145 161 165
    002655  aa  145 163 164 056

                                   226  ec no_input_arg_reqd,noinargr,
                                   227  	(No input argument was required for this LINUS request.)
                        000137          	segdef  no_input_arg_reqd
    000137  a0   077777 002660
    002656  aa  156 157 151 156         	aci  "noinargr",8
    002657  aa  141 162 147 162
    002660  aa  066 116 157 040         	acc  "No input argument was required for this LINUS request."
    002661  aa  151 156 160 165
    002662  aa  164 040 141 162
    002663  aa  147 165 155 145
    002664  aa  156 164 040 167
    002665  aa  141 163 040 162
    002666  aa  145 161 165 151
    002667  aa  162 145 144 040
    002670  aa  146 157 162 040
    002671  aa  164 150 151 163
    002672  aa  040 114 111 116
    002673  aa  125 123 040 162
    002674  aa  145 161 165 145
    002675  aa  163 164 056 000

                                   228  ec no_lila_data,nolidat,
                                   229  	(There are no LILA statements upon which to act.)
                        000140          	segdef  no_lila_data
    000140  a0   077777 002700
    002676  aa  156 157 154 151         	aci  "nolidat",8
    002677  aa  144 141 164 040
    002700  aa  057 124 150 145         	acc  "There are no LILA statements upon which to act."
    002701  aa  162 145 040 141
    002702  aa  162 145 040 156
    002703  aa  157 040 114 111
    002704  aa  114 101 040 163
    002705  aa  164 141 164 145
    002706  aa  155 145 156 164
    002707  aa  163 040 165 160
    002710  aa  157 156 040 167
    002711  aa  150 151 143 150
    002712  aa  040 164 157 040
    002713  aa  141 143 164 056

                                   230  ec no_lila_expr_processed,nolilaep,
                                   231  	(There is no LILA expression currently available.)
                        000141          	segdef  no_lila_expr_processed
    000141  a0   077777 002716
    002714  aa  156 157 154 151         	aci  "nolilaep",8
    002715  aa  154 141 145 160
    002716  aa  060 124 150 145         	acc  "There is no LILA expression currently available."
    002717  aa  162 145 040 151
    002720  aa  163 040 156 157
    002721  aa  040 114 111 114
    002722  aa  101 040 145 170
    002723  aa  160 162 145 163
    002724  aa  163 151 157 156
    002725  aa  040 143 165 162
    002726  aa  162 145 156 164
    002727  aa  154 171 040 141
    002730  aa  166 141 151 154
    002731  aa  141 142 154 145
    002732  aa  056 000 000 000

                                   232  ec no_linus_var,nolv,
                                   233  	(There are currently no assigned values.)
                        000142          	segdef  no_linus_var
    000142  a0   077777 002735
    002733  aa  156 157 154 166         	aci  "nolv",8
    002734  aa  040 040 040 040
    002735  aa  047 124 150 145         	acc  "There are currently no assigned values."
    002736  aa  162 145 040 141
    002737  aa  162 145 040 143
    002740  aa  165 162 162 145
    002741  aa  156 164 154 171
    002742  aa  040 156 157 040
    002743  aa  141 163 163 151
    002744  aa  147 156 145 144
    002745  aa  040 166 141 154
    002746  aa  165 145 163 056

                                   234  ec no_macro_arg,nomarg,
                                   235  	(Required macro argument not supplied.)
                        000143          	segdef  no_macro_arg
    000143  a0   077777 002751
    002747  aa  156 157 155 141         	aci  "nomarg",8
    002750  aa  162 147 040 040
    002751  aa  045 122 145 161         	acc  "Required macro argument not supplied."
    002752  aa  165 151 162 145
    002753  aa  144 040 155 141
    002754  aa  143 162 157 040
    002755  aa  141 162 147 165
    002756  aa  155 145 156 164
    002757  aa  040 156 157 164
    002760  aa  040 163 165 160
    002761  aa  160 154 151 145
    002762  aa  144 056 000 000

                                   236  ec no_max_lines,nomaxlin,
                                   237  	(The maximum line number was not specified in the PRINT request.)
                        000144          	segdef  no_max_lines
    000144  a0   077777 002765
    002763  aa  156 157 155 141         	aci  "nomaxlin",8
    002764  aa  170 154 151 156
    002765  aa  077 124 150 145         	acc  "The maximum line number was not specified in the PRINT request."
    002766  aa  040 155 141 170
    002767  aa  151 155 165 155
    002770  aa  040 154 151 156
    002771  aa  145 040 156 165
    002772  aa  155 142 145 162
    002773  aa  040 167 141 163
    002774  aa  040 156 157 164
    002775  aa  040 163 160 145
    002776  aa  143 151 146 151
    002777  aa  145 144 040 151
    003000  aa  156 040 164 150
    003001  aa  145 040 120 122
    003002  aa  111 116 124 040
    003003  aa  162 145 161 165
    003004  aa  145 163 164 056

                                   238  ec no_path,nopath,
                                   239  	(Required pathname not specified.)
                        000145          	segdef  no_path
    000145  a0   077777 003007
    003005  aa  156 157 160 141         	aci  "nopath",8
    003006  aa  164 150 040 040
    003007  aa  040 122 145 161         	acc  "Required pathname not specified."
    003010  aa  165 151 162 145
    003011  aa  144 040 160 141
    003012  aa  164 150 156 141
    003013  aa  155 145 040 156
    003014  aa  157 164 040 163
    003015  aa  160 145 143 151
    003016  aa  146 151 145 144
    003017  aa  056 000 000 000

                                   240  ec no_report,norpt,
                                   241  	(There is no report currently in progress.)
                        000146          	segdef  no_report
    000146  a0   077777 003022
    003020  aa  156 157 162 160         	aci  "norpt",8
    003021  aa  164 040 040 040
    003022  aa  051 124 150 145         	acc  "There is no report currently in progress."
    003023  aa  162 145 040 151
    003024  aa  163 040 156 157
    003025  aa  040 162 145 160
    003026  aa  157 162 164 040
    003027  aa  143 165 162 162
    003030  aa  145 156 164 154
    003031  aa  171 040 151 156
    003032  aa  040 160 162 157
    003033  aa  147 162 145 163
    003034  aa  163 056 000 000

                                   242  ec no_scope,no_scope,
                                   243  	(No scope is currently in force.)
                        000147          	segdef  no_scope
    000147  a0   077777 003037
    003035  aa  156 157 137 163         	aci  "no_scope",8
    003036  aa  143 157 160 145
    003037  aa  037 116 157 040         	acc  "No scope is currently in force."
    003040  aa  163 143 157 160
    003041  aa  145 040 151 163
    003042  aa  040 143 165 162
    003043  aa  162 145 156 164
    003044  aa  154 171 040 151
    003045  aa  156 040 146 157
    003046  aa  162 143 145 056

                                   244  ec no_tab,no_tab,
                                   245  	(No table name has been specified following a -table control argument.)
                        000150          	segdef  no_tab
    000150  a0   077777 003051
    003047  aa  156 157 137 164         	aci  "no_tab",8
    003050  aa  141 142 040 040
    003051  aa  105 116 157 040         	acc  "No table name has been specified following a -table control argument."
    003052  aa  164 141 142 154
    003053  aa  145 040 156 141
    003054  aa  155 145 040 150
    003055  aa  141 163 040 142
    003056  aa  145 145 156 040
    003057  aa  163 160 145 143
    003060  aa  151 146 151 145
    003061  aa  144 040 146 157
    003062  aa  154 154 157 167
    003063  aa  151 156 147 040
    003064  aa  141 040 055 164
    003065  aa  141 142 154 145
    003066  aa  040 143 157 156
    003067  aa  164 162 157 154
    003070  aa  040 141 162 147
    003071  aa  165 155 145 156
    003072  aa  164 056 000 000

                                   246  ec no_table,notab,
                                   247  	(No tables have been defined, probably due to an error in the from clause.)
                        000151          	segdef  no_table
    000151  a0   077777 003075
    003073  aa  156 157 164 141         	aci  "notab",8
    003074  aa  142 040 040 040
    003075  aa  111 116 157 040         	acc  "No tables have been defined, probably due to an error in the from clause."
    003076  aa  164 141 142 154
    003077  aa  145 163 040 150
    003100  aa  141 166 145 040
    003101  aa  142 145 145 156
    003102  aa  040 144 145 146
    003103  aa  151 156 145 144
    003104  aa  054 040 160 162
    003105  aa  157 142 141 142
    003106  aa  154 171 040 144
    003107  aa  165 145 040 164
    003110  aa  157 040 141 156
    003111  aa  040 145 162 162
    003112  aa  157 162 040 151
    003113  aa  156 040 164 150
    003114  aa  145 040 146 162
    003115  aa  157 155 040 143
    003116  aa  154 141 165 163
    003117  aa  145 056 000 000

                                   248  ec no_table_list,ntablist,
                                   249  	(No table list has been specified in the from clause.)
                        000152          	segdef  no_table_list
    000152  a0   077777 003122
    003120  aa  156 164 141 142         	aci  "ntablist",8
    003121  aa  154 151 163 164
    003122  aa  064 116 157 040         	acc  "No table list has been specified in the from clause."
    003123  aa  164 141 142 154
    003124  aa  145 040 154 151
    003125  aa  163 164 040 150
    003126  aa  141 163 040 142
    003127  aa  145 145 156 040
    003130  aa  163 160 145 143
    003131  aa  151 146 151 145
    003132  aa  144 040 151 156
    003133  aa  040 164 150 145
    003134  aa  040 146 162 157
    003135  aa  155 040 143 154
    003136  aa  141 165 163 145
    003137  aa  056 000 000 000

                                   250  ec no_temp_tables,notmptbl,
                                   251  	(No temporary tables exist.)
                        000153          	segdef  no_temp_tables
    000153  a0   077777 003142
    003140  aa  156 157 164 155         	aci  "notmptbl",8
    003141  aa  160 164 142 154
    003142  aa  032 116 157 040         	acc  "No temporary tables exist."
    003143  aa  164 145 155 160
    003144  aa  157 162 141 162
    003145  aa  171 040 164 141
    003146  aa  142 154 145 163
    003147  aa  040 145 170 151
    003150  aa  163 164 056 000

                                   252  ec no_var_list,novarls,
                                   253  	(A variable list was not provided for the ASSIGN_VALUES request.)
                        000154          	segdef  no_var_list
    000154  a0   077777 003153
    003151  aa  156 157 166 141         	aci  "novarls",8
    003152  aa  162 154 163 040
    003153  aa  077 101 040 166         	acc  "A variable list was not provided for the ASSIGN_VALUES request."
    003154  aa  141 162 151 141
    003155  aa  142 154 145 040
    003156  aa  154 151 163 164
    003157  aa  040 167 141 163
    003160  aa  040 156 157 164
    003161  aa  040 160 162 157
    003162  aa  166 151 144 145
    003163  aa  144 040 146 157
    003164  aa  162 040 164 150
    003165  aa  145 040 101 123
    003166  aa  123 111 107 116
    003167  aa  137 126 101 114
    003170  aa  125 105 123 040
    003171  aa  162 145 161 165
    003172  aa  145 163 164 056

                                   254  ec non_integer,non_intg,
                                   255  	(A non integer argument was erroneously specified in a LINUS request.)
                        000155          	segdef  non_integer
    000155  a0   077777 003175
    003173  aa  156 157 156 137         	aci  "non_intg",8
    003174  aa  151 156 164 147
    003175  aa  104 101 040 156         	acc  "A non integer argument was erroneously specified in a LINUS request."
    003176  aa  157 156 040 151
    003177  aa  156 164 145 147
    003200  aa  145 162 040 141
    003201  aa  162 147 165 155
    003202  aa  145 156 164 040
    003203  aa  167 141 163 040
    003204  aa  145 162 162 157
    003205  aa  156 145 157 165
    003206  aa  163 154 171 040
    003207  aa  163 160 145 143
    003210  aa  151 146 151 145
    003211  aa  144 040 151 156
    003212  aa  040 141 040 114
    003213  aa  111 116 125 123
    003214  aa  040 162 145 161
    003215  aa  165 145 163 164
    003216  aa  056 000 000 000

                                   256  ec non_numeric_argument,nonumarg,
                                   257  	(An attempt was made to convert an non numeric argument from number to character format.)
                        000156          	segdef  non_numeric_argument
    000156  a0   077777 003221
    003217  aa  156 157 156 165         	aci  "nonumarg",8
    003220  aa  155 141 162 147
    003221  aa  127 101 156 040         	acc  "An attempt was made to convert an non numeric argument from number to character format."
    003222  aa  141 164 164 145
    003223  aa  155 160 164 040
    003224  aa  167 141 163 040
    003225  aa  155 141 144 145
    003226  aa  040 164 157 040
    003227  aa  143 157 156 166
    003230  aa  145 162 164 040
    003231  aa  141 156 040 156
    003232  aa  157 156 040 156
    003233  aa  165 155 145 162
    003234  aa  151 143 040 141
    003235  aa  162 147 165 155
    003236  aa  145 156 164 040
    003237  aa  146 162 157 155
    003240  aa  040 156 165 155
    003241  aa  142 145 162 040
    003242  aa  164 157 040 143
    003243  aa  150 141 162 141
    003244  aa  143 164 145 162
    003245  aa  040 146 157 162
    003246  aa  155 141 164 056

                                   258  ec nonex_del,nonexdel,
                                   259  	(An attempt has been made to delete a non-existent line.)
                        000157          	segdef  nonex_del
    000157  a0   077777 003251
    003247  aa  156 157 156 145         	aci  "nonexdel",8
    003250  aa  170 144 145 154
    003251  aa  067 101 156 040         	acc  "An attempt has been made to delete a non-existent line."
    003252  aa  141 164 164 145
    003253  aa  155 160 164 040
    003254  aa  150 141 163 040
    003255  aa  142 145 145 156
    003256  aa  040 155 141 144
    003257  aa  145 040 164 157
    003260  aa  040 144 145 154
    003261  aa  145 164 145 040
    003262  aa  141 040 156 157
    003263  aa  156 055 145 170
    003264  aa  151 163 164 145
    003265  aa  156 164 040 154
    003266  aa  151 156 145 056

                                   260  ec null_input,null_in,
                                   261  	(The NULL string in a modify is only permitted for character and varying bit strings.)
                        000160          	segdef  null_input
    000160  a0   077777 003271
    003267  aa  156 165 154 154         	aci  "null_in",8
    003270  aa  137 151 156 040
    003271  aa  124 124 150 145         	acc  "The NULL string in a modify is only permitted for character and varying bit strings."
    003272  aa  040 116 125 114
    003273  aa  114 040 163 164
    003274  aa  162 151 156 147
    003275  aa  040 151 156 040
    003276  aa  141 040 155 157
    003277  aa  144 151 146 171
    003300  aa  040 151 163 040
    003301  aa  157 156 154 171
    003302  aa  040 160 145 162
    003303  aa  155 151 164 164
    003304  aa  145 144 040 146
    003305  aa  157 162 040 143
    003306  aa  150 141 162 141
    003307  aa  143 164 145 162
    003310  aa  040 141 156 144
    003311  aa  040 166 141 162
    003312  aa  171 151 156 147
    003313  aa  040 142 151 164
    003314  aa  040 163 164 162
    003315  aa  151 156 147 163
    003316  aa  056 000 000 000

                                   262  ec one_dbitem_mod_expr,onedbime,
                                   263  	(Only one data base item is allowed in each expression within the MODIFY request.)
                        000161          	segdef  one_dbitem_mod_expr
    000161  a0   077777 003321
    003317  aa  157 156 145 144         	aci  "onedbime",8
    003320  aa  142 151 155 145
    003321  aa  120 117 156 154         	acc  "Only one data base item is allowed in each expression within the MODIFY request."
    003322  aa  171 040 157 156
    003323  aa  145 040 144 141
    003324  aa  164 141 040 142
    003325  aa  141 163 145 040
    003326  aa  151 164 145 155
    003327  aa  040 151 163 040
    003330  aa  141 154 154 157
    003331  aa  167 145 144 040
    003332  aa  151 156 040 145
    003333  aa  141 143 150 040
    003334  aa  145 170 160 162
    003335  aa  145 163 163 151
    003336  aa  157 156 040 167
    003337  aa  151 164 150 151
    003340  aa  156 040 164 150
    003341  aa  145 040 115 117
    003342  aa  104 111 106 131
    003343  aa  040 162 145 161
    003344  aa  165 145 163 164
    003345  aa  056 000 000 000

                                   264  ec op_follow_lp,opfollp,
                                   265  	(An operator follows a left parenthesis.)
                        000162          	segdef  op_follow_lp
    000162  a0   077777 003350
    003346  aa  157 160 146 157         	aci  "opfollp",8
    003347  aa  154 154 160 040
    003350  aa  047 101 156 040         	acc  "An operator follows a left parenthesis."
    003351  aa  157 160 145 162
    003352  aa  141 164 157 162
    003353  aa  040 146 157 154
    003354  aa  154 157 167 163
    003355  aa  040 141 040 154
    003356  aa  145 146 164 040
    003357  aa  160 141 162 145
    003360  aa  156 164 150 145
    003361  aa  163 151 163 056

                                   266  ec print_buf_ovfl,pr_ovfl,
                                   267  	(The print request line buffer has overflowed.)
                        000163          	segdef  print_buf_ovfl
    000163  a0   077777 003364
    003362  aa  160 162 137 157         	aci  "pr_ovfl",8
    003363  aa  166 146 154 040
    003364  aa  055 124 150 145         	acc  "The print request line buffer has overflowed."
    003365  aa  040 160 162 151
    003366  aa  156 164 040 162
    003367  aa  145 161 165 145
    003370  aa  163 164 040 154
    003371  aa  151 156 145 040
    003372  aa  142 165 146 146
    003373  aa  145 162 040 150
    003374  aa  141 163 040 157
    003375  aa  166 145 162 146
    003376  aa  154 157 167 145
    003377  aa  144 056 000 000

                                   268  ec r_scope_not_set,rscpnots,
                                   269  	(The RETRIEVE scope operation was not set, so it cannot be deleted.)
                        000164          	segdef  r_scope_not_set
    000164  a0   077777 003402
    003400  aa  162 163 143 160         	aci  "rscpnots",8
    003401  aa  156 157 164 163
    003402  aa  102 124 150 145         	acc  "The RETRIEVE scope operation was not set, so it cannot be deleted."
    003403  aa  040 122 105 124
    003404  aa  122 111 105 126
    003405  aa  105 040 163 143
    003406  aa  157 160 145 040
    003407  aa  157 160 145 162
    003410  aa  141 164 151 157
    003411  aa  156 040 167 141
    003412  aa  163 040 156 157
    003413  aa  164 040 163 145
    003414  aa  164 054 040 163
    003415  aa  157 040 151 164
    003416  aa  040 143 141 156
    003417  aa  156 157 164 040
    003420  aa  142 145 040 144
    003421  aa  145 154 145 164
    003422  aa  145 144 056 000

                                   270  ec range_ovfl,rangovfl,
                                   271  	(LILA translator error -- There has been an internal table overflow while processing a from clause.)
                        000165          	segdef  range_ovfl
    000165  a0   077777 003425
    003423  aa  162 141 156 147         	aci  "rangovfl",8
    003424  aa  157 166 146 154
    003425  aa  142 114 111 114         	acc  "LILA translator error -- There has been an internal table overflow while processing a from clause."
    003426  aa  101 040 164 162
    003427  aa  141 156 163 154
    003430  aa  141 164 157 162
    003431  aa  040 145 162 162
    003432  aa  157 162 040 055
    003433  aa  055 040 124 150
    003434  aa  145 162 145 040
    003435  aa  150 141 163 040
    003436  aa  142 145 145 156
    003437  aa  040 141 156 040
    003440  aa  151 156 164 145
    003441  aa  162 156 141 154
    003442  aa  040 164 141 142
    003443  aa  154 145 040 157
    003444  aa  166 145 162 146
    003445  aa  154 157 167 040
    003446  aa  167 150 151 154
    003447  aa  145 040 160 162
    003450  aa  157 143 145 163
    003451  aa  163 151 156 147
    003452  aa  040 141 040 146
    003453  aa  162 157 155 040
    003454  aa  143 154 141 165
    003455  aa  163 145 056 000

                                   272  ec recursed,recursed,
                                   273  	(A previous LINUS session has not been terminated. Command rejected.)
                        000166          	segdef  recursed
    000166  a0   077777 003460
    003456  aa  162 145 143 165         	aci  "recursed",8
    003457  aa  162 163 145 144
    003460  aa  103 101 040 160         	acc  "A previous LINUS session has not been terminated. Command rejected."
    003461  aa  162 145 166 151
    003462  aa  157 165 163 040
    003463  aa  114 111 116 125
    003464  aa  123 040 163 145
    003465  aa  163 163 151 157
    003466  aa  156 040 150 141
    003467  aa  163 040 156 157
    003470  aa  164 040 142 145
    003471  aa  145 156 040 164
    003472  aa  145 162 155 151
    003473  aa  156 141 164 145
    003474  aa  144 056 040 103
    003475  aa  157 155 155 141
    003476  aa  156 144 040 162
    003477  aa  145 152 145 143
    003500  aa  164 145 144 056

                                   274  ec ret_not_valid,retnoval,
                                   275  	(The LILA expression is not valid for retrieval.)
                        000167          	segdef  ret_not_valid
    000167  a0   077777 003503
    003501  aa  162 145 164 156         	aci  "retnoval",8
    003502  aa  157 166 141 154
    003503  aa  057 124 150 145         	acc  "The LILA expression is not valid for retrieval."
    003504  aa  040 114 111 114
    003505  aa  101 040 145 170
    003506  aa  160 162 145 163
    003507  aa  163 151 157 156
    003510  aa  040 151 163 040
    003511  aa  156 157 164 040
    003512  aa  166 141 154 151
    003513  aa  144 040 146 157
    003514  aa  162 040 162 145
    003515  aa  164 162 151 145
    003516  aa  166 141 154 056

                                   276  ec scfn_nargs,scfnargs,
                                   277  	(A scalar function invocation contains an incorrect number of arguments.)
                        000170          	segdef  scfn_nargs
    000170  a0   077777 003521
    003517  aa  163 143 146 156         	aci  "scfnargs",8
    003520  aa  141 162 147 163
    003521  aa  107 101 040 163         	acc  "A scalar function invocation contains an incorrect number of arguments."
    003522  aa  143 141 154 141
    003523  aa  162 040 146 165
    003524  aa  156 143 164 151
    003525  aa  157 156 040 151
    003526  aa  156 166 157 143
    003527  aa  141 164 151 157
    003530  aa  156 040 143 157
    003531  aa  156 164 141 151
    003532  aa  156 163 040 141
    003533  aa  156 040 151 156
    003534  aa  143 157 162 162
    003535  aa  145 143 164 040
    003536  aa  156 165 155 142
    003537  aa  145 162 040 157
    003540  aa  146 040 141 162
    003541  aa  147 165 155 145
    003542  aa  156 164 163 056

                                   278  ec scfn_syntax,scfnsys,
                                   279  	(A syntax error has been detected within a scalar function invocation.)
                        000171          	segdef  scfn_syntax
    000171  a0   077777 003545
    003543  aa  163 143 146 156         	aci  "scfnsys",8
    003544  aa  163 171 163 040
    003545  aa  105 101 040 163         	acc  "A syntax error has been detected within a scalar function invocation."
    003546  aa  171 156 164 141
    003547  aa  170 040 145 162
    003550  aa  162 157 162 040
    003551  aa  150 141 163 040
    003552  aa  142 145 145 156
    003553  aa  040 144 145 164
    003554  aa  145 143 164 145
    003555  aa  144 040 167 151
    003556  aa  164 150 151 156
    003557  aa  040 141 040 163
    003560  aa  143 141 154 141
    003561  aa  162 040 146 165
    003562  aa  156 143 164 151
    003563  aa  157 156 040 151
    003564  aa  156 166 157 143
    003565  aa  141 164 151 157
    003566  aa  156 056 000 000

                                   280  ec sclf_null_arg,sclfnarg,
                                   281  	(A NULL argument was found for a scalar function.)
                        000172          	segdef  sclf_null_arg
    000172  a0   077777 003571
    003567  aa  163 143 154 146         	aci  "sclfnarg",8
    003570  aa  156 141 162 147
    003571  aa  060 101 040 116         	acc  "A NULL argument was found for a scalar function."
    003572  aa  125 114 114 040
    003573  aa  141 162 147 165
    003574  aa  155 145 156 164
    003575  aa  040 167 141 163
    003576  aa  040 146 157 165
    003577  aa  156 144 040 146
    003600  aa  157 162 040 141
    003601  aa  040 163 143 141
    003602  aa  154 141 162 040
    003603  aa  146 165 156 143
    003604  aa  164 151 157 156
    003605  aa  056 000 000 000

                                   282  ec select_list_ovfl,sellovfl,
                                   283  	(LILA translator error -- There has been an internal table overflow while processing a select clause.)
                        000173          	segdef  select_list_ovfl
    000173  a0   077777 003610
    003606  aa  163 145 154 154         	aci  "sellovfl",8
    003607  aa  157 166 146 154
    003610  aa  144 114 111 114         	acc  "LILA translator error -- There has been an internal table overflow while processing a select clause."
    003611  aa  101 040 164 162
    003612  aa  141 156 163 154
    003613  aa  141 164 157 162
    003614  aa  040 145 162 162
    003615  aa  157 162 040 055
    003616  aa  055 040 124 150
    003617  aa  145 162 145 040
    003620  aa  150 141 163 040
    003621  aa  142 145 145 156
    003622  aa  040 141 156 040
    003623  aa  151 156 164 145
    003624  aa  162 156 141 154
    003625  aa  040 164 141 142
    003626  aa  154 145 040 157
    003627  aa  166 145 162 146
    003630  aa  154 157 167 040
    003631  aa  167 150 151 154
    003632  aa  145 040 160 162
    003633  aa  157 143 145 163
    003634  aa  163 151 156 147
    003635  aa  040 141 040 163
    003636  aa  145 154 145 143
    003637  aa  164 040 143 154
    003640  aa  141 165 163 145
    003641  aa  056 000 000 000

                                   284  ec select_syntax,selsyn,
                                   285  	(A syntax error has been detected in a select clause.)
                        000174          	segdef  select_syntax
    000174  a0   077777 003644
    003642  aa  163 145 154 163         	aci  "selsyn",8
    003643  aa  171 156 040 040
    003644  aa  064 101 040 163         	acc  "A syntax error has been detected in a select clause."
    003645  aa  171 156 164 141
    003646  aa  170 040 145 162
    003647  aa  162 157 162 040
    003650  aa  150 141 163 040
    003651  aa  142 145 145 156
    003652  aa  040 144 145 164
    003653  aa  145 143 164 145
    003654  aa  144 040 151 156
    003655  aa  040 141 040 163
    003656  aa  145 154 145 143
    003657  aa  164 040 143 154
    003660  aa  141 165 163 145
    003661  aa  056 000 000 000

                                   286  ec setfn_nargs,sfnargs,
                                   287  	(The number of selected items does not match the number of arguments required by the set function.)
                        000175          	segdef  setfn_nargs
    000175  a0   077777 003664
    003662  aa  163 146 156 141         	aci  "sfnargs",8
    003663  aa  162 147 163 040
    003664  aa  141 124 150 145         	acc  "The number of selected items does not match the number of arguments required by the set function."
    003665  aa  040 156 165 155
    003666  aa  142 145 162 040
    003667  aa  157 146 040 163
    003670  aa  145 154 145 143
    003671  aa  164 145 144 040
    003672  aa  151 164 145 155
    003673  aa  163 040 144 157
    003674  aa  145 163 040 156
    003675  aa  157 164 040 155
    003676  aa  141 164 143 150
    003677  aa  040 164 150 145
    003700  aa  040 156 165 155
    003701  aa  142 145 162 040
    003702  aa  157 146 040 141
    003703  aa  162 147 165 155
    003704  aa  145 156 164 163
    003705  aa  040 162 145 161
    003706  aa  165 151 162 145
    003707  aa  144 040 142 171
    003710  aa  040 164 150 145
    003711  aa  040 163 145 164
    003712  aa  040 146 165 156
    003713  aa  143 164 151 157
    003714  aa  156 056 000 000

                                   288  ec setfn_syntax,setfnsyn,
                                   289  	(A syntax error has been detected within a set function invocation.)
                        000176          	segdef  setfn_syntax
    000176  a0   077777 003717
    003715  aa  163 145 164 146         	aci  "setfnsyn",8
    003716  aa  156 163 171 156
    003717  aa  102 101 040 163         	acc  "A syntax error has been detected within a set function invocation."
    003720  aa  171 156 164 141
    003721  aa  170 040 145 162
    003722  aa  162 157 162 040
    003723  aa  150 141 163 040
    003724  aa  142 145 145 156
    003725  aa  040 144 145 164
    003726  aa  145 143 164 145
    003727  aa  144 040 167 151
    003730  aa  164 150 151 156
    003731  aa  040 141 040 163
    003732  aa  145 164 040 146
    003733  aa  165 156 143 164
    003734  aa  151 157 156 040
    003735  aa  151 156 166 157
    003736  aa  143 141 164 151
    003737  aa  157 156 056 000

                                   290  ec setop_ovfl,setovfl,
                                   291  	(LILA translator error -- the set operator stack has overflowed.)
                        000177          	segdef  setop_ovfl
    000177  a0   077777 003742
    003740  aa  163 145 164 157         	aci  "setovfl",8
    003741  aa  166 146 154 040
    003742  aa  077 114 111 114         	acc  "LILA translator error -- the set operator stack has overflowed."
    003743  aa  101 040 164 162
    003744  aa  141 156 163 154
    003745  aa  141 164 157 162
    003746  aa  040 145 162 162
    003747  aa  157 162 040 055
    003750  aa  055 040 164 150
    003751  aa  145 040 163 145
    003752  aa  164 040 157 160
    003753  aa  145 162 141 164
    003754  aa  157 162 040 163
    003755  aa  164 141 143 153
    003756  aa  040 150 141 163
    003757  aa  040 157 166 145
    003760  aa  162 146 154 157
    003761  aa  167 145 144 056

                                   292  ec syntax,syntax,
                                   293  	(A syntax error has been detected.)
                        000200          	segdef  syntax
    000200  a0   077777 003764
    003762  aa  163 171 156 164         	aci  "syntax",8
    003763  aa  141 170 040 040
    003764  aa  041 101 040 163         	acc  "A syntax error has been detected."
    003765  aa  171 156 164 141
    003766  aa  170 040 145 162
    003767  aa  162 157 162 040
    003770  aa  150 141 163 040
    003771  aa  142 145 145 156
    003772  aa  040 144 145 164
    003773  aa  145 143 164 145
    003774  aa  144 056 000 000

                                   294  ec table_exist,tabexist,
                                   295  	(A table already exist with the given name.)
                        000201          	segdef  table_exist
    000201  a0   077777 003777
    003775  aa  164 141 142 145         	aci  "tabexist",8
    003776  aa  170 151 163 164
    003777  aa  052 101 040 164         	acc  "A table already exist with the given name."
    004000  aa  141 142 154 145
    004001  aa  040 141 154 162
    004002  aa  145 141 144 171
    004003  aa  040 145 170 151
    004004  aa  163 164 040 167
    004005  aa  151 164 150 040
    004006  aa  164 150 145 040
    004007  aa  147 151 166 145
    004010  aa  156 040 156 141
    004011  aa  155 145 056 000

                                   296  ec table_not_ready,tabnotry,
                                   297  	(Tables must be readied for scope_update or scope_retrieve before executing this request.)
                        000202          	segdef  table_not_ready
    000202  a0   077777 004014
    004012  aa  164 141 142 156         	aci  "tabnotry",8
    004013  aa  157 164 162 171
    004014  aa  130 124 141 142         	acc  "Tables must be readied for scope_update or scope_retrieve before executing this request."
    004015  aa  154 145 163 040
    004016  aa  155 165 163 164
    004017  aa  040 142 145 040
    004020  aa  162 145 141 144
    004021  aa  151 145 144 040
    004022  aa  146 157 162 040
    004023  aa  163 143 157 160
    004024  aa  145 137 165 160
    004025  aa  144 141 164 145
    004026  aa  040 157 162 040
    004027  aa  163 143 157 160
    004030  aa  145 137 162 145
    004031  aa  164 162 151 145
    004032  aa  166 145 040 142
    004033  aa  145 146 157 162
    004034  aa  145 040 145 170
    004035  aa  145 143 165 164
    004036  aa  151 156 147 040
    004037  aa  164 150 151 163
    004040  aa  040 162 145 161
    004041  aa  165 145 163 164
    004042  aa  056 000 000 000

                                   298  ec text_follows,texfollw,
                                   299  	(Text follows the logical end of the LILA expression.)
                        000203          	segdef  text_follows
    000203  a0   077777 004045
    004043  aa  164 145 170 146         	aci  "texfollw",8
    004044  aa  157 154 154 167
    004045  aa  064 124 145 170         	acc  "Text follows the logical end of the LILA expression."
    004046  aa  164 040 146 157
    004047  aa  154 154 157 167
    004050  aa  163 040 164 150
    004051  aa  145 040 154 157
    004052  aa  147 151 143 141
    004053  aa  154 040 145 156
    004054  aa  144 040 157 146
    004055  aa  040 164 150 145
    004056  aa  040 114 111 114
    004057  aa  101 040 145 170
    004060  aa  160 162 145 163
    004061  aa  163 151 157 156
    004062  aa  056 000 000 000

                                   300  ec token_type_null,toktypnl,
                                   301  	(A NULL token type was found in the expression parser for the select clause.)
                        000204          	segdef  token_type_null
    000204  a0   077777 004065
    004063  aa  164 157 153 164         	aci  "toktypnl",8
    004064  aa  171 160 156 154
    004065  aa  113 101 040 116         	acc  "A NULL token type was found in the expression parser for the select clause."
    004066  aa  125 114 114 040
    004067  aa  164 157 153 145
    004070  aa  156 040 164 171
    004071  aa  160 145 040 167
    004072  aa  141 163 040 146
    004073  aa  157 165 156 144
    004074  aa  040 151 156 040
    004075  aa  164 150 145 040
    004076  aa  145 170 160 162
    004077  aa  145 163 163 151
    004100  aa  157 156 040 160
    004101  aa  141 162 163 145
    004102  aa  162 040 146 157
    004103  aa  162 040 164 150
    004104  aa  145 040 163 145
    004105  aa  154 145 143 164
    004106  aa  040 143 154 141
    004107  aa  165 163 145 056

                                   302  ec too_few_args,toofargs,
                                   303  	(Not enough input arguments were specified for this LINUS request.)
                        000205          	segdef  too_few_args
    000205  a0   077777 004112
    004110  aa  164 157 157 146         	aci  "toofargs",8
    004111  aa  141 162 147 163
    004112  aa  101 116 157 164         	acc  "Not enough input arguments were specified for this LINUS request."
    004113  aa  040 145 156 157
    004114  aa  165 147 150 040
    004115  aa  151 156 160 165
    004116  aa  164 040 141 162
    004117  aa  147 165 155 145
    004120  aa  156 164 163 040
    004121  aa  167 145 162 145
    004122  aa  040 163 160 145
    004123  aa  143 151 146 151
    004124  aa  145 144 040 146
    004125  aa  157 162 040 164
    004126  aa  150 151 163 040
    004127  aa  114 111 116 125
    004130  aa  123 040 162 145
    004131  aa  161 165 145 163
    004132  aa  164 056 000 000

                                   304  ec too_few_ctl_args,tfctlarg,
                                   305  	(Too few control arguments were given.)
                        000206          	segdef  too_few_ctl_args
    000206  a0   077777 004135
    004133  aa  164 146 143 164         	aci  "tfctlarg",8
    004134  aa  154 141 162 147
    004135  aa  045 124 157 157         	acc  "Too few control arguments were given."
    004136  aa  040 146 145 167
    004137  aa  040 143 157 156
    004140  aa  164 162 157 154
    004141  aa  040 141 162 147
    004142  aa  165 155 145 156
    004143  aa  164 163 040 167
    004144  aa  145 162 145 040
    004145  aa  147 151 166 145
    004146  aa  156 056 000 000

                                   306  ec too_few_sclf_args,fscfargs,
                                   307  	(Too few arguments are being passed to a scalar function.)
                        000207          	segdef  too_few_sclf_args
    000207  a0   077777 004151
    004147  aa  146 163 143 146         	aci  "fscfargs",8
    004150  aa  141 162 147 163
    004151  aa  070 124 157 157         	acc  "Too few arguments are being passed to a scalar function."
    004152  aa  040 146 145 167
    004153  aa  040 141 162 147
    004154  aa  165 155 145 156
    004155  aa  164 163 040 141
    004156  aa  162 145 040 142
    004157  aa  145 151 156 147
    004160  aa  040 160 141 163
    004161  aa  163 145 144 040
    004162  aa  164 157 040 141
    004163  aa  040 163 143 141
    004164  aa  154 141 162 040
    004165  aa  146 165 156 143
    004166  aa  164 151 157 156
    004167  aa  056 000 000 000

                                   308  ec too_many_args,toomanya,
                                   309  	(An invalid control argument or too many arguments were specified with this LINUS request.)
                        000210          	segdef  too_many_args
    000210  a0   077777 004172
    004170  aa  164 157 157 155         	aci  "toomanya",8
    004171  aa  141 156 171 141
    004172  aa  131 101 156 040         	acc  "An invalid control argument or too many arguments were specified with this LINUS request."
    004173  aa  151 156 166 141
    004174  aa  154 151 144 040
    004175  aa  143 157 156 164
    004176  aa  162 157 154 040
    004177  aa  141 162 147 165
    004200  aa  155 145 156 164
    004201  aa  040 157 162 040
    004202  aa  164 157 157 040
    004203  aa  155 141 156 171
    004204  aa  040 141 162 147
    004205  aa  165 155 145 156
    004206  aa  164 163 040 167
    004207  aa  145 162 145 040
    004210  aa  163 160 145 143
    004211  aa  151 146 151 145
    004212  aa  144 040 167 151
    004213  aa  164 150 040 164
    004214  aa  150 151 163 040
    004215  aa  114 111 116 125
    004216  aa  123 040 162 145
    004217  aa  161 165 145 163
    004220  aa  164 056 000 000

                                   310  ec too_many_dbs,open_dbs,
                                   311  	(Only one data base at a time can be open during a LINUS session.)
                        000211          	segdef  too_many_dbs
    000211  a0   077777 004223
    004221  aa  157 160 145 156         	aci  "open_dbs",8
    004222  aa  137 144 142 163
    004223  aa  100 117 156 154         	acc  "Only one data base at a time can be open during a LINUS session."
    004224  aa  171 040 157 156
    004225  aa  145 040 144 141
    004226  aa  164 141 040 142
    004227  aa  141 163 145 040
    004230  aa  141 164 040 141
    004231  aa  040 164 151 155
    004232  aa  145 040 143 141
    004233  aa  156 040 142 145
    004234  aa  040 157 160 145
    004235  aa  156 040 144 165
    004236  aa  162 151 156 147
    004237  aa  040 141 040 114
    004240  aa  111 116 125 123
    004241  aa  040 163 145 163
    004242  aa  163 151 157 156
    004243  aa  056 000 000 000

                                   312  ec too_many_expr_items,expritms,
                                   313  	(Too many items were used in an expression of a modify request.)
                        000212          	segdef  too_many_expr_items
    000212  a0   077777 004246
    004244  aa  145 170 160 162         	aci  "expritms",8
    004245  aa  151 164 155 163
    004246  aa  076 124 157 157         	acc  "Too many items were used in an expression of a modify request."
    004247  aa  040 155 141 156
    004250  aa  171 040 151 164
    004251  aa  145 155 163 040
    004252  aa  167 145 162 145
    004253  aa  040 165 163 145
    004254  aa  144 040 151 156
    004255  aa  040 141 156 040
    004256  aa  145 170 160 162
    004257  aa  145 163 163 151
    004260  aa  157 156 040 157
    004261  aa  146 040 141 040
    004262  aa  155 157 144 151
    004263  aa  146 171 040 162
    004264  aa  145 161 165 145
    004265  aa  163 164 056 000

                                   314  ec too_many_invocs,toomanyi,
                                   315  	(An attempt has been made to nest invokes too deeply.)
                        000213          	segdef  too_many_invocs
    000213  a0   077777 004270
    004266  aa  164 157 157 155         	aci  "toomanyi",8
    004267  aa  141 156 171 151
    004270  aa  064 101 156 040         	acc  "An attempt has been made to nest invokes too deeply."
    004271  aa  141 164 164 145
    004272  aa  155 160 164 040
    004273  aa  150 141 163 040
    004274  aa  142 145 145 156
    004275  aa  040 155 141 144
    004276  aa  145 040 164 157
    004277  aa  040 156 145 163
    004300  aa  164 040 151 156
    004301  aa  166 157 153 145
    004302  aa  163 040 164 157
    004303  aa  157 040 144 145
    004304  aa  145 160 154 171
    004305  aa  056 000 000 000

                                   316  ec too_many_sclf_args,sclfargs,
                                   317  	(Too many arguments are being passed to a scalar function.)
                        000214          	segdef  too_many_sclf_args
    000214  a0   077777 004310
    004306  aa  163 143 154 146         	aci  "sclfargs",8
    004307  aa  141 162 147 163
    004310  aa  071 124 157 157         	acc  "Too many arguments are being passed to a scalar function."
    004311  aa  040 155 141 156
    004312  aa  171 040 141 162
    004313  aa  147 165 155 145
    004314  aa  156 164 163 040
    004315  aa  141 162 145 040
    004316  aa  142 145 151 156
    004317  aa  147 040 160 141
    004320  aa  163 163 145 144
    004321  aa  040 164 157 040
    004322  aa  141 040 163 143
    004323  aa  141 154 141 162
    004324  aa  040 146 165 156
    004325  aa  143 164 151 157
    004326  aa  156 056 000 000

                                   318  ec too_many_scp_ops,toomsop,
                                   319  	(There are too many permit or prevent scope operators.)
                        000215          	segdef  too_many_scp_ops
    000215  a0   077777 004331
    004327  aa  164 157 157 155         	aci  "toomsop",8
    004330  aa  163 157 160 040
    004331  aa  065 124 150 145         	acc  "There are too many permit or prevent scope operators."
    004332  aa  162 145 040 141
    004333  aa  162 145 040 164
    004334  aa  157 157 040 155
    004335  aa  141 156 171 040
    004336  aa  160 145 162 155
    004337  aa  151 164 040 157
    004340  aa  162 040 160 162
    004341  aa  145 166 145 156
    004342  aa  164 040 163 143
    004343  aa  157 160 145 040
    004344  aa  157 160 145 162
    004345  aa  141 164 157 162
    004346  aa  163 056 000 000

                                   320  ec too_many_tables,manytbls,
                                   321  	(Too many tables have been specified in the LILA from clause.)
                        000216          	segdef  too_many_tables
    000216  a0   077777 004351
    004347  aa  155 141 156 171         	aci  "manytbls",8
    004350  aa  164 142 154 163
    004351  aa  074 124 157 157         	acc  "Too many tables have been specified in the LILA from clause."
    004352  aa  040 155 141 156
    004353  aa  171 040 164 141
    004354  aa  142 154 145 163
    004355  aa  040 150 141 166
    004356  aa  145 040 142 145
    004357  aa  145 156 040 163
    004360  aa  160 145 143 151
    004361  aa  146 151 145 144
    004362  aa  040 151 156 040
    004363  aa  164 150 145 040
    004364  aa  114 111 114 101
    004365  aa  040 146 162 157
    004366  aa  155 040 143 154
    004367  aa  141 165 163 145
    004370  aa  056 000 000 000

                                   322  ec unalld_setop,unasetop,
                                   323  	(A previous LILA block is not a valid set operand.)
                        000217          	segdef  unalld_setop
    000217  a0   077777 004373
    004371  aa  165 156 141 163         	aci  "unasetop",8
    004372  aa  145 164 157 160
    004373  aa  061 101 040 160         	acc  "A previous LILA block is not a valid set operand."
    004374  aa  162 145 166 151
    004375  aa  157 165 163 040
    004376  aa  114 111 114 101
    004377  aa  040 142 154 157
    004400  aa  143 153 040 151
    004401  aa  163 040 156 157
    004402  aa  164 040 141 040
    004403  aa  166 141 154 151
    004404  aa  144 040 163 145
    004405  aa  164 040 157 160
    004406  aa  145 162 141 156
    004407  aa  144 056 000 000

                                   324  ec unbal_parens,unbalpar,
                                   325  	(Parentheses do not balance.)
                        000220          	segdef  unbal_parens
    000220  a0   077777 004412
    004410  aa  165 156 142 141         	aci  "unbalpar",8
    004411  aa  154 160 141 162
    004412  aa  033 120 141 162         	acc  "Parentheses do not balance."
    004413  aa  145 156 164 150
    004414  aa  145 163 145 163
    004415  aa  040 144 157 040
    004416  aa  156 157 164 040
    004417  aa  142 141 154 141
    004420  aa  156 143 145 056

                                   326  ec unbal_quotes,ubalqts,
                                   327  	(Quotes do not balance.)
                        000221          	segdef  unbal_quotes
    000221  a0   077777 004423
    004421  aa  165 142 141 154         	aci  "ubalqts",8
    004422  aa  161 164 163 040
    004423  aa  026 121 165 157         	acc  "Quotes do not balance."
    004424  aa  164 145 163 040
    004425  aa  144 157 040 156
    004426  aa  157 164 040 142
    004427  aa  141 154 141 156
    004430  aa  143 145 056 000

                                   328  ec undef_col,undefcol,
                                   329  	(A previously undefined column name has been encountered.)
                        000222          	segdef  undef_col
    000222  a0   077777 004433
    004431  aa  165 156 144 145         	aci  "undefcol",8
    004432  aa  146 143 157 154
    004433  aa  070 101 040 160         	acc  "A previously undefined column name has been encountered."
    004434  aa  162 145 166 151
    004435  aa  157 165 163 154
    004436  aa  171 040 165 156
    004437  aa  144 145 146 151
    004440  aa  156 145 144 040
    004441  aa  143 157 154 165
    004442  aa  155 156 040 156
    004443  aa  141 155 145 040
    004444  aa  150 141 163 040
    004445  aa  142 145 145 156
    004446  aa  040 145 156 143
    004447  aa  157 165 156 164
    004450  aa  145 162 145 144
    004451  aa  056 000 000 000

                                   330  ec undef_id,undefid,
                                   331  	(An unidentifiable identifier has been found.)
                        000223          	segdef  undef_id
    000223  a0   077777 004454
    004452  aa  165 156 144 145         	aci  "undefid",8
    004453  aa  146 151 144 040
    004454  aa  054 101 156 040         	acc  "An unidentifiable identifier has been found."
    004455  aa  165 156 151 144
    004456  aa  145 156 164 151
    004457  aa  146 151 141 142
    004460  aa  154 145 040 151
    004461  aa  144 145 156 164
    004462  aa  151 146 151 145
    004463  aa  162 040 150 141
    004464  aa  163 040 142 145
    004465  aa  145 156 040 146
    004466  aa  157 165 156 144
    004467  aa  056 000 000 000

                                   332  ec undef_row_des,unrowdes,
                                   333  	(A specified row designator has not been previously defined.)
                        000224          	segdef  undef_row_des
    000224  a0   077777 004472
    004470  aa  165 156 162 157         	aci  "unrowdes",8
    004471  aa  167 144 145 163
    004472  aa  073 101 040 163         	acc  "A specified row designator has not been previously defined."
    004473  aa  160 145 143 151
    004474  aa  146 151 145 144
    004475  aa  040 162 157 167
    004476  aa  040 144 145 163
    004477  aa  151 147 156 141
    004500  aa  164 157 162 040
    004501  aa  150 141 163 040
    004502  aa  156 157 164 040
    004503  aa  142 145 145 156
    004504  aa  040 160 162 145
    004505  aa  166 151 157 165
    004506  aa  163 154 171 040
    004507  aa  144 145 146 151
    004510  aa  156 145 144 056

                                   334  ec undef_tab,undeftab,
                                   335  	(A specified table is not defined in the database.)
                        000225          	segdef  undef_tab
    000225  a0   077777 004513
    004511  aa  165 156 144 145         	aci  "undeftab",8
    004512  aa  146 164 141 142
    004513  aa  061 101 040 163         	acc  "A specified table is not defined in the database."
    004514  aa  160 145 143 151
    004515  aa  146 151 145 144
    004516  aa  040 164 141 142
    004517  aa  154 145 040 151
    004520  aa  163 040 156 157
    004521  aa  164 040 144 145
    004522  aa  146 151 156 145
    004523  aa  144 040 151 156
    004524  aa  040 164 150 145
    004525  aa  040 144 141 164
    004526  aa  141 142 141 163
    004527  aa  145 056 000 000

                                   336  ec undef_temp_table,undefttb,
                                   337  	(The given temporary table is not currently defined.)
                        000226          	segdef  undef_temp_table
    000226  a0   077777 004532
    004530  aa  165 156 144 145         	aci  "undefttb",8
    004531  aa  146 164 164 142
    004532  aa  063 124 150 145         	acc  "The given temporary table is not currently defined."
    004533  aa  040 147 151 166
    004534  aa  145 156 040 164
    004535  aa  145 155 160 157
    004536  aa  162 141 162 171
    004537  aa  040 164 141 142
    004540  aa  154 145 040 151
    004541  aa  163 040 156 157
    004542  aa  164 040 143 165
    004543  aa  162 162 145 156
    004544  aa  164 154 171 040
    004545  aa  144 145 146 151
    004546  aa  156 145 144 056

                                   338  ec union_compat,uncompat,
                                   339  	(The items specified in this select clause are not union compatible with those previously specified.)
                        000227          	segdef  union_compat
    000227  a0   077777 004551
    004547  aa  165 156 143 157         	aci  "uncompat",8
    004550  aa  155 160 141 164
    004551  aa  143 124 150 145         	acc  "The items specified in this select clause are not union compatible with those previously specified."
    004552  aa  040 151 164 145
    004553  aa  155 163 040 163
    004554  aa  160 145 143 151
    004555  aa  146 151 145 144
    004556  aa  040 151 156 040
    004557  aa  164 150 151 163
    004560  aa  040 163 145 154
    004561  aa  145 143 164 040
    004562  aa  143 154 141 165
    004563  aa  163 145 040 141
    004564  aa  162 145 040 156
    004565  aa  157 164 040 165
    004566  aa  156 151 157 156
    004567  aa  040 143 157 155
    004570  aa  160 141 164 151
    004571  aa  142 154 145 040
    004572  aa  167 151 164 150
    004573  aa  040 164 150 157
    004574  aa  163 145 040 160
    004575  aa  162 145 166 151
    004576  aa  157 165 163 154
    004577  aa  171 040 163 160
    004600  aa  145 143 151 146
    004601  aa  151 145 144 056

                                   340  ec upd_temp_tab,tempupdt,
                                   341  	(Update operations are not permitted for temporary tables.)
                        000230          	segdef  upd_temp_tab
    000230  a0   077777 004604
    004602  aa  164 145 155 160         	aci  "tempupdt",8
    004603  aa  165 160 144 164
    004604  aa  071 125 160 144         	acc  "Update operations are not permitted for temporary tables."
    004605  aa  141 164 145 040
    004606  aa  157 160 145 162
    004607  aa  141 164 151 157
    004610  aa  156 163 040 141
    004611  aa  162 145 040 156
    004612  aa  157 164 040 160
    004613  aa  145 162 155 151
    004614  aa  164 164 145 144
    004615  aa  040 146 157 162
    004616  aa  040 164 145 155
    004617  aa  160 157 162 141
    004620  aa  162 171 040 164
    004621  aa  141 142 154 145
    004622  aa  163 056 000 000

                                   342  ec update_not_allowed,noupdate,
                                   343  	(This operation is not valid for non-update openings.)
                        000231          	segdef  update_not_allowed
    000231  a0   077777 004625
    004623  aa  156 157 165 160         	aci  "noupdate",8
    004624  aa  144 141 164 145
    004625  aa  064 124 150 151         	acc  "This operation is not valid for non-update openings."
    004626  aa  163 040 157 160
    004627  aa  145 162 141 164
    004630  aa  151 157 156 040
    004631  aa  151 163 040 156
    004632  aa  157 164 040 166
    004633  aa  141 154 151 144
    004634  aa  040 146 157 162
    004635  aa  040 156 157 156
    004636  aa  055 165 160 144
    004637  aa  141 164 145 040
    004640  aa  157 160 145 156
    004641  aa  151 156 147 163
    004642  aa  056 000 000 000

                                   344  ec var_stck_ovrflw,varstkov,
                                   345  	(The maximum number of LINUS variables has been exceeded.)
                        000232          	segdef  var_stck_ovrflw
    000232  a0   077777 004645
    004643  aa  166 141 162 163         	aci  "varstkov",8
    004644  aa  164 153 157 166
    004645  aa  070 124 150 145         	acc  "The maximum number of LINUS variables has been exceeded."
    004646  aa  040 155 141 170
    004647  aa  151 155 165 155
    004650  aa  040 156 165 155
    004651  aa  142 145 162 040
    004652  aa  157 146 040 114
    004653  aa  111 116 125 123
    004654  aa  040 166 141 162
    004655  aa  151 141 142 154
    004656  aa  145 163 040 150
    004657  aa  141 163 040 142
    004660  aa  145 145 156 040
    004661  aa  145 170 143 145
    004662  aa  145 144 145 144
    004663  aa  056 000 000 000

                                   346  ec where_ovfl,whereovf,
                                   347  	(LILA translator error -- There has been an internal table overflow while processing a where clause.)
                        000233          	segdef  where_ovfl
    000233  a0   077777 004666
    004664  aa  167 150 145 162         	aci  "whereovf",8
    004665  aa  145 157 166 146
    004666  aa  143 114 111 114         	acc  "LILA translator error -- There has been an internal table overflow while processing a where clause."
    004667  aa  101 040 164 162
    004670  aa  141 156 163 154
    004671  aa  141 164 157 162
    004672  aa  040 145 162 162
    004673  aa  157 162 040 055
    004674  aa  055 040 124 150
    004675  aa  145 162 145 040
    004676  aa  150 141 163 040
    004677  aa  142 145 145 156
    004700  aa  040 141 156 040
    004701  aa  151 156 164 145
    004702  aa  162 156 141 154
    004703  aa  040 164 141 142
    004704  aa  154 145 040 157
    004705  aa  166 145 162 146
    004706  aa  154 157 167 040
    004707  aa  167 150 151 154
    004710  aa  145 040 160 162
    004711  aa  157 143 145 163
    004712  aa  163 151 156 147
    004713  aa  040 141 040 167
    004714  aa  150 145 162 145
    004715  aa  040 143 154 141
    004716  aa  165 163 145 056

                                   348  ec where_syntax,wheresyn,
                                   349  	(A syntax error has been detected in a where clause.)
                        000234          	segdef  where_syntax
    000234  a0   077777 004721
    004717  aa  167 150 145 162         	aci  "wheresyn",8
    004720  aa  145 163 171 156
    004721  aa  063 101 040 163         	acc  "A syntax error has been detected in a where clause."
    004722  aa  171 156 164 141
    004723  aa  170 040 145 162
    004724  aa  162 157 162 040
    004725  aa  150 141 163 040
    004726  aa  142 145 145 156
    004727  aa  040 144 145 164
    004730  aa  145 143 164 145
    004731  aa  144 040 151 156
    004732  aa  040 141 040 167
    004733  aa  150 145 162 145
    004734  aa  040 143 154 141
    004735  aa  165 163 145 056

                                   350  	end

NO LITERALS

NAME DEFINITIONS FOR ENTRY POINTS AND SEGDEFS

    004736  5a   000003 000000
    004737  5a   002010 600000
    004740  aa   000000 000000
    004741  55   000012 000002
    004742  5a   000002 400003
    004743  55   000006 000012
    004744  aa  014 154 151 156
    004745  aa  165 163 137 145
    004746  aa  162 162 157 162
    004747  aa  137 000 000 000
    004750  55   000021 000003
    004751  2a   000234 400001
    004752  55   000015 000003
    004753  aa  014 167 150 145         where_syntax
    004754  aa  162 145 137 163
    004755  aa  171 156 164 141
    004756  aa  170 000 000 000
    004757  55   000027 000012
    004760  2a   000233 400001
    004761  55   000024 000003
    004762  aa  012 167 150 145         where_ovfl
    004763  aa  162 145 137 157
    004764  aa  166 146 154 000
    004765  55   000036 000021
    004766  2a   000232 400001
    004767  55   000032 000003
    004770  aa  017 166 141 162         var_stck_ovrflw
    004771  aa  137 163 164 143
    004772  aa  153 137 157 166
    004773  aa  162 146 154 167
    004774  55   000046 000027
    004775  2a   000231 400001
    004776  55   000041 000003
    004777  aa  022 165 160 144         update_not_allowed
    005000  aa  141 164 145 137
    005001  aa  156 157 164 137
    005002  aa  141 154 154 157
    005003  aa  167 145 144 000
    005004  55   000055 000036
    005005  2a   000230 400001
    005006  55   000051 000003
    005007  aa  014 165 160 144         upd_temp_tab
    005010  aa  137 164 145 155
    005011  aa  160 137 164 141
    005012  aa  142 000 000 000
    005013  55   000064 000046
    005014  2a   000227 400001
    005015  55   000060 000003
    005016  aa  014 165 156 151         union_compat
    005017  aa  157 156 137 143
    005020  aa  157 155 160 141
    005021  aa  164 000 000 000
    005022  55   000074 000055
    005023  2a   000226 400001
    005024  55   000067 000003
    005025  aa  020 165 156 144         undef_temp_table
    005026  aa  145 146 137 164
    005027  aa  145 155 160 137
    005030  aa  164 141 142 154
    005031  aa  145 000 000 000
    005032  55   000102 000064
    005033  2a   000225 400001
    005034  55   000077 000003
    005035  aa  011 165 156 144         undef_tab
    005036  aa  145 146 137 164
    005037  aa  141 142 000 000
    005040  55   000111 000074
    005041  2a   000224 400001
    005042  55   000105 000003
    005043  aa  015 165 156 144         undef_row_des
    005044  aa  145 146 137 162
    005045  aa  157 167 137 144
    005046  aa  145 163 000 000
    005047  55   000117 000102
    005050  2a   000223 400001
    005051  55   000114 000003
    005052  aa  010 165 156 144         undef_id
    005053  aa  145 146 137 151
    005054  aa  144 000 000 000
    005055  55   000125 000111
    005056  2a   000222 400001
    005057  55   000122 000003
    005060  aa  011 165 156 144         undef_col
    005061  aa  145 146 137 143
    005062  aa  157 154 000 000
    005063  55   000134 000117
    005064  2a   000221 400001
    005065  55   000130 000003
    005066  aa  014 165 156 142         unbal_quotes
    005067  aa  141 154 137 161
    005070  aa  165 157 164 145
    005071  aa  163 000 000 000
    005072  55   000143 000125
    005073  2a   000220 400001
    005074  55   000137 000003
    005075  aa  014 165 156 142         unbal_parens
    005076  aa  141 154 137 160
    005077  aa  141 162 145 156
    005100  aa  163 000 000 000
    005101  55   000152 000134
    005102  2a   000217 400001
    005103  55   000146 000003
    005104  aa  014 165 156 141         unalld_setop
    005105  aa  154 154 144 137
    005106  aa  163 145 164 157
    005107  aa  160 000 000 000
    005110  55   000161 000143
    005111  2a   000216 400001
    005112  55   000155 000003
    005113  aa  017 164 157 157         too_many_tables
    005114  aa  137 155 141 156
    005115  aa  171 137 164 141
    005116  aa  142 154 145 163
    005117  55   000171 000152
    005120  2a   000215 400001
    005121  55   000164 000003
    005122  aa  020 164 157 157         too_many_scp_ops
    005123  aa  137 155 141 156
    005124  aa  171 137 163 143
    005125  aa  160 137 157 160
    005126  aa  163 000 000 000
    005127  55   000201 000161
    005130  2a   000214 400001
    005131  55   000174 000003
    005132  aa  022 164 157 157         too_many_sclf_args
    005133  aa  137 155 141 156
    005134  aa  171 137 163 143
    005135  aa  154 146 137 141
    005136  aa  162 147 163 000
    005137  55   000210 000171
    005140  2a   000213 400001
    005141  55   000204 000003
    005142  aa  017 164 157 157         too_many_invocs
    005143  aa  137 155 141 156
    005144  aa  171 137 151 156
    005145  aa  166 157 143 163
    005146  55   000220 000201
    005147  2a   000212 400001
    005150  55   000213 000003
    005151  aa  023 164 157 157         too_many_expr_items
    005152  aa  137 155 141 156
    005153  aa  171 137 145 170
    005154  aa  160 162 137 151
    005155  aa  164 145 155 163
    005156  55   000227 000210
    005157  2a   000211 400001
    005160  55   000223 000003
    005161  aa  014 164 157 157         too_many_dbs
    005162  aa  137 155 141 156
    005163  aa  171 137 144 142
    005164  aa  163 000 000 000
    005165  55   000236 000220
    005166  2a   000210 400001
    005167  55   000232 000003
    005170  aa  015 164 157 157         too_many_args
    005171  aa  137 155 141 156
    005172  aa  171 137 141 162
    005173  aa  147 163 000 000
    005174  55   000246 000227
    005175  2a   000207 400001
    005176  55   000241 000003
    005177  aa  021 164 157 157         too_few_sclf_args
    005200  aa  137 146 145 167
    005201  aa  137 163 143 154
    005202  aa  146 137 141 162
    005203  aa  147 163 000 000
    005204  55   000256 000236
    005205  2a   000206 400001
    005206  55   000251 000003
    005207  aa  020 164 157 157         too_few_ctl_args
    005210  aa  137 146 145 167
    005211  aa  137 143 164 154
    005212  aa  137 141 162 147
    005213  aa  163 000 000 000
    005214  55   000265 000246
    005215  2a   000205 400001
    005216  55   000261 000003
    005217  aa  014 164 157 157         too_few_args
    005220  aa  137 146 145 167
    005221  aa  137 141 162 147
    005222  aa  163 000 000 000
    005223  55   000274 000256
    005224  2a   000204 400001
    005225  55   000270 000003
    005226  aa  017 164 157 153         token_type_null
    005227  aa  145 156 137 164
    005230  aa  171 160 145 137
    005231  aa  156 165 154 154
    005232  55   000303 000265
    005233  2a   000203 400001
    005234  55   000277 000003
    005235  aa  014 164 145 170         text_follows
    005236  aa  164 137 146 157
    005237  aa  154 154 157 167
    005240  aa  163 000 000 000
    005241  55   000312 000274
    005242  2a   000202 400001
    005243  55   000306 000003
    005244  aa  017 164 141 142         table_not_ready
    005245  aa  154 145 137 156
    005246  aa  157 164 137 162
    005247  aa  145 141 144 171
    005250  55   000320 000303
    005251  2a   000201 400001
    005252  55   000315 000003
    005253  aa  013 164 141 142         table_exist
    005254  aa  154 145 137 145
    005255  aa  170 151 163 164
    005256  55   000325 000312
    005257  2a   000200 400001
    005260  55   000323 000003
    005261  aa  006 163 171 156         syntax
    005262  aa  164 141 170 000
    005263  55   000333 000320
    005264  2a   000177 400001
    005265  55   000330 000003
    005266  aa  012 163 145 164         setop_ovfl
    005267  aa  157 160 137 157
    005270  aa  166 146 154 000
    005271  55   000342 000325
    005272  2a   000176 400001
    005273  55   000336 000003
    005274  aa  014 163 145 164         setfn_syntax
    005275  aa  146 156 137 163
    005276  aa  171 156 164 141
    005277  aa  170 000 000 000
    005300  55   000350 000333
    005301  2a   000175 400001
    005302  55   000345 000003
    005303  aa  013 163 145 164         setfn_nargs
    005304  aa  146 156 137 156
    005305  aa  141 162 147 163
    005306  55   000357 000342
    005307  2a   000174 400001
    005310  55   000353 000003
    005311  aa  015 163 145 154         select_syntax
    005312  aa  145 143 164 137
    005313  aa  163 171 156 164
    005314  aa  141 170 000 000
    005315  55   000367 000350
    005316  2a   000173 400001
    005317  55   000362 000003
    005320  aa  020 163 145 154         select_list_ovfl
    005321  aa  145 143 164 137
    005322  aa  154 151 163 164
    005323  aa  137 157 166 146
    005324  aa  154 000 000 000
    005325  55   000376 000357
    005326  2a   000172 400001
    005327  55   000372 000003
    005330  aa  015 163 143 154         sclf_null_arg
    005331  aa  146 137 156 165
    005332  aa  154 154 137 141
    005333  aa  162 147 000 000
    005334  55   000404 000367
    005335  2a   000171 400001
    005336  55   000401 000003
    005337  aa  013 163 143 146         scfn_syntax
    005340  aa  156 137 163 171
    005341  aa  156 164 141 170
    005342  55   000412 000376
    005343  2a   000170 400001
    005344  55   000407 000003
    005345  aa  012 163 143 146         scfn_nargs
    005346  aa  156 137 156 141
    005347  aa  162 147 163 000
    005350  55   000421 000404
    005351  2a   000167 400001
    005352  55   000415 000003
    005353  aa  015 162 145 164         ret_not_valid
    005354  aa  137 156 157 164
    005355  aa  137 166 141 154
    005356  aa  151 144 000 000
    005357  55   000427 000412
    005360  2a   000166 400001
    005361  55   000424 000003
    005362  aa  010 162 145 143         recursed
    005363  aa  165 162 163 145
    005364  aa  144 000 000 000
    005365  55   000435 000421
    005366  2a   000165 400001
    005367  55   000432 000003
    005370  aa  012 162 141 156         range_ovfl
    005371  aa  147 145 137 157
    005372  aa  166 146 154 000
    005373  55   000444 000427
    005374  2a   000164 400001
    005375  55   000440 000003
    005376  aa  017 162 137 163         r_scope_not_set
    005377  aa  143 157 160 145
    005400  aa  137 156 157 164
    005401  aa  137 163 145 164
    005402  55   000453 000435
    005403  2a   000163 400001
    005404  55   000447 000003
    005405  aa  016 160 162 151         print_buf_ovfl
    005406  aa  156 164 137 142
    005407  aa  165 146 137 157
    005410  aa  166 146 154 000
    005411  55   000462 000444
    005412  2a   000162 400001
    005413  55   000456 000003
    005414  aa  014 157 160 137         op_follow_lp
    005415  aa  146 157 154 154
    005416  aa  157 167 137 154
    005417  aa  160 000 000 000
    005420  55   000472 000453
    005421  2a   000161 400001
    005422  55   000465 000003
    005423  aa  023 157 156 145         one_dbitem_mod_expr
    005424  aa  137 144 142 151
    005425  aa  164 145 155 137
    005426  aa  155 157 144 137
    005427  aa  145 170 160 162
    005430  55   000500 000462
    005431  2a   000160 400001
    005432  55   000475 000003
    005433  aa  012 156 165 154         null_input
    005434  aa  154 137 151 156
    005435  aa  160 165 164 000
    005436  55   000506 000472
    005437  2a   000157 400001
    005440  55   000503 000003
    005441  aa  011 156 157 156         nonex_del
    005442  aa  145 170 137 144
    005443  aa  145 154 000 000
    005444  55   000517 000500
    005445  2a   000156 400001
    005446  55   000511 000003
    005447  aa  024 156 157 156         non_numeric_argument
    005450  aa  137 156 165 155
    005451  aa  145 162 151 143
    005452  aa  137 141 162 147
    005453  aa  165 155 145 156
    005454  aa  164 000 000 000
    005455  55   000525 000506
    005456  2a   000155 400001
    005457  55   000522 000003
    005460  aa  013 156 157 156         non_integer
    005461  aa  137 151 156 164
    005462  aa  145 147 145 162
    005463  55   000533 000517
    005464  2a   000154 400001
    005465  55   000530 000003
    005466  aa  013 156 157 137         no_var_list
    005467  aa  166 141 162 137
    005470  aa  154 151 163 164
    005471  55   000542 000525
    005472  2a   000153 400001
    005473  55   000536 000003
    005474  aa  016 156 157 137         no_temp_tables
    005475  aa  164 145 155 160
    005476  aa  137 164 141 142
    005477  aa  154 145 163 000
    005500  55   000551 000533
    005501  2a   000152 400001
    005502  55   000545 000003
    005503  aa  015 156 157 137         no_table_list
    005504  aa  164 141 142 154
    005505  aa  145 137 154 151
    005506  aa  163 164 000 000
    005507  55   000557 000542
    005510  2a   000151 400001
    005511  55   000554 000003
    005512  aa  010 156 157 137         no_table
    005513  aa  164 141 142 154
    005514  aa  145 000 000 000
    005515  55   000564 000551
    005516  2a   000150 400001
    005517  55   000562 000003
    005520  aa  006 156 157 137         no_tab
    005521  aa  164 141 142 000
    005522  55   000572 000557
    005523  2a   000147 400001
    005524  55   000567 000003
    005525  aa  010 156 157 137         no_scope
    005526  aa  163 143 157 160
    005527  aa  145 000 000 000
    005530  55   000600 000564
    005531  2a   000146 400001
    005532  55   000575 000003
    005533  aa  011 156 157 137         no_report
    005534  aa  162 145 160 157
    005535  aa  162 164 000 000
    005536  55   000605 000572
    005537  2a   000145 400001
    005540  55   000603 000003
    005541  aa  007 156 157 137         no_path
    005542  aa  160 141 164 150
    005543  55   000614 000600
    005544  2a   000144 400001
    005545  55   000610 000003
    005546  aa  014 156 157 137         no_max_lines
    005547  aa  155 141 170 137
    005550  aa  154 151 156 145
    005551  aa  163 000 000 000
    005552  55   000623 000605
    005553  2a   000143 400001
    005554  55   000617 000003
    005555  aa  014 156 157 137         no_macro_arg
    005556  aa  155 141 143 162
    005557  aa  157 137 141 162
    005560  aa  147 000 000 000
    005561  55   000632 000614
    005562  2a   000142 400001
    005563  55   000626 000003
    005564  aa  014 156 157 137         no_linus_var
    005565  aa  154 151 156 165
    005566  aa  163 137 166 141
    005567  aa  162 000 000 000
    005570  55   000643 000623
    005571  2a   000141 400001
    005572  55   000635 000003
    005573  aa  026 156 157 137         no_lila_expr_processed
    005574  aa  154 151 154 141
    005575  aa  137 145 170 160
    005576  aa  162 137 160 162
    005577  aa  157 143 145 163
    005600  aa  163 145 144 000
    005601  55   000652 000632
    005602  2a   000140 400001
    005603  55   000646 000003
    005604  aa  014 156 157 137         no_lila_data
    005605  aa  154 151 154 141
    005606  aa  137 144 141 164
    005607  aa  141 000 000 000
    005610  55   000662 000643
    005611  2a   000137 400001
    005612  55   000655 000003
    005613  aa  021 156 157 137         no_input_arg_reqd
    005614  aa  151 156 160 165
    005615  aa  164 137 141 162
    005616  aa  147 137 162 145
    005617  aa  161 144 000 000
    005620  55   000671 000652
    005621  2a   000136 400001
    005622  55   000665 000003
    005623  aa  014 156 157 137         no_input_arg
    005624  aa  151 156 160 165
    005625  aa  164 137 141 162
    005626  aa  147 000 000 000
    005627  55   000676 000662
    005630  2a   000135 400001
    005631  55   000674 000003
    005632  aa  007 156 157 137         no_from
    005633  aa  146 162 157 155
    005634  55   000703 000671
    005635  2a   000134 400001
    005636  55   000701 000003
    005637  aa  005 156 157 137         no_db
    005640  aa  144 142 000 000
    005641  55   000710 000676
    005642  2a   000133 400001
    005643  55   000706 000003
    005644  aa  007 156 157 137         no_data
    005645  aa  144 141 164 141
    005646  55   000720 000703
    005647  2a   000132 400001
    005650  55   000713 000003
    005651  aa  020 156 157 137         no_current_query
    005652  aa  143 165 162 162
    005653  aa  145 156 164 137
    005654  aa  161 165 145 162
    005655  aa  171 000 000 000
    005656  55   000726 000710
    005657  2a   000131 400001
    005660  55   000723 000003
    005661  aa  010 156 157 137         no_comma
    005662  aa  143 157 155 155
    005663  aa  141 000 000 000
    005664  55   000735 000720
    005665  2a   000130 400001
    005666  55   000731 000003
    005667  aa  016 155 165 154         mult_updt_rows
    005670  aa  164 137 165 160
    005671  aa  144 164 137 162
    005672  aa  157 167 163 000
    005673  55   000745 000726
    005674  2a   000127 400001
    005675  55   000740 000003
    005676  aa  021 155 162 144         mrds_item_not_def
    005677  aa  163 137 151 164
    005700  aa  145 155 137 156
    005701  aa  157 164 137 144
    005702  aa  145 146 000 000
    005703  55   000754 000735
    005704  2a   000126 400001
    005705  55   000750 000003
    005706  aa  015 155 157 144         mod_not_valid
    005707  aa  137 156 157 164
    005710  aa  137 166 141 154
    005711  aa  151 144 000 000
    005712  55   000762 000745
    005713  2a   000125 400001
    005714  55   000757 000003
    005715  aa  013 155 157 144         mod_key_col
    005716  aa  137 153 145 171
    005717  aa  137 143 157 154
    005720  55   000771 000754
    005721  2a   000124 400001
    005722  55   000765 000003
    005723  aa  017 155 151 163         misplaced_setop
    005724  aa  160 154 141 143
    005725  aa  145 144 137 163
    005726  aa  145 164 157 160
    005727  55   001001 000762
    005730  2a   000123 400001
    005731  55   000774 000003
    005732  aa  020 155 151 163         misplaced_select
    005733  aa  160 154 141 143
    005734  aa  145 144 137 163
    005735  aa  145 154 145 143
    005736  aa  164 000 000 000
    005737  55   001010 000771
    005740  2a   000122 400001
    005741  55   001004 000003
    005742  aa  014 155 141 170         max_req_args
    005743  aa  137 162 145 161
    005744  aa  137 141 162 147
    005745  aa  163 000 000 000
    005746  55   001017 001001
    005747  2a   000121 400001
    005750  55   001013 000003
    005751  aa  014 154 157 156         long_lv_name
    005752  aa  147 137 154 166
    005753  aa  137 156 141 155
    005754  aa  145 000 000 000
    005755  55   001024 001010
    005756  2a   000120 400001
    005757  55   001022 000003
    005760  aa  007 154 157 156         long_id
    005761  aa  147 137 151 144
    005762  55   001033 001017
    005763  2a   000117 400001
    005764  55   001027 000003
    005765  aa  017 154 151 163         lister_col_nums
    005766  aa  164 145 162 137
    005767  aa  143 157 154 137
    005770  aa  156 165 155 163
    005771  55   001043 001024
    005772  2a   000116 400001
    005773  55   001036 000003
    005774  aa  020 154 151 163         lister_col_names
    005775  aa  164 145 162 137
    005776  aa  143 157 154 137
    005777  aa  156 141 155 145
    006000  aa  163 000 000 000
    006001  55   001054 001033
    006002  2a   000115 400001
    006003  55   001046 000003
    006004  aa  025 154 151 156         linus_var_not_defined
    006005  aa  165 163 137 166
    006006  aa  141 162 137 156
    006007  aa  157 164 137 144
    006010  aa  145 146 151 156
    006011  aa  145 144 000 000
    006012  55   001063 001043
    006013  2a   000114 400001
    006014  55   001057 000003
    006015  aa  015 151 156 166         invalid_token
    006016  aa  141 154 151 144
    006017  aa  137 164 157 153
    006020  aa  145 156 000 000
    006021  55   001072 001054
    006022  2a   000113 400001
    006023  55   001066 000003
    006024  aa  015 151 156 166         inval_ctl_arg
    006025  aa  141 154 137 143
    006026  aa  164 154 137 141
    006027  aa  162 147 000 000
    006030  55   001100 001063
    006031  2a   000112 400001
    006032  55   001075 000003
    006033  aa  013 151 156 166         inv_tup_var
    006034  aa  137 164 165 160
    006035  aa  137 166 141 162
    006036  55   001107 001072
    006037  2a   000111 400001
    006040  55   001103 000003
    006041  aa  016 151 156 166         inv_token_type
    006042  aa  137 164 157 153
    006043  aa  145 156 137 164
    006044  aa  171 160 145 000
    006045  55   001115 001100
    006046  2a   000110 400001
    006047  55   001112 000003
    006050  aa  011 151 156 166         inv_table
    006051  aa  137 164 141 142
    006052  aa  154 145 000 000
    006053  55   001125 001107
    006054  2a   000107 400001
    006055  55   001120 000003
    006056  aa  020 151 156 166         inv_string_const
    006057  aa  137 163 164 162
    006060  aa  151 156 147 137
    006061  aa  143 157 156 163
    006062  aa  164 000 000 000
    006063  55   001134 001115
    006064  2a   000106 400001
    006065  55   001130 000003
    006066  aa  015 151 156 166         inv_setfn_set
    006067  aa  137 163 145 164
    006070  aa  146 156 137 163
    006071  aa  145 164 000 000
    006072  55   001143 001125
    006073  2a   000105 400001
    006074  55   001137 000003
    006075  aa  016 151 156 166         inv_setfn_args
    006076  aa  137 163 145 164
    006077  aa  146 156 137 141
    006100  aa  162 147 163 000
    006101  55   001152 001134
    006102  2a   000104 400001
    006103  55   001146 000003
    006104  aa  015 151 156 166         inv_set_scope
    006105  aa  137 163 145 164
    006106  aa  137 163 143 157
    006107  aa  160 145 000 000
    006110  55   001161 001143
    006111  2a   000103 400001
    006112  55   001155 000003
    006113  aa  014 151 156 166         inv_sclf_use
    006114  aa  137 163 143 154
    006115  aa  146 137 165 163
    006116  aa  145 000 000 000
    006117  55   001170 001152
    006120  2a   000102 400001
    006121  55   001164 000003
    006122  aa  015 151 156 166         inv_sclf_args
    006123  aa  137 163 143 154
    006124  aa  146 137 141 162
    006125  aa  147 163 000 000
    006126  55   001175 001161
    006127  2a   000101 400001
    006130  55   001173 000003
    006131  aa  007 151 156 166         inv_req
    006132  aa  137 162 145 161
    006133  55   001204 001170
    006134  2a   000100 400001
    006135  55   001200 000003
    006136  aa  014 151 156 166         inv_pathname
    006137  aa  137 160 141 164
    006140  aa  150 156 141 155
    006141  aa  145 000 000 000
    006142  55   001212 001175
    006143  2a   000077 400001
    006144  55   001207 000003
    006145  aa  010 151 156 166         inv_mode
    006146  aa  137 155 157 144
    006147  aa  145 000 000 000
    006150  55   001221 001204
    006151  2a   000076 400001
    006152  55   001215 000003
    006153  aa  014 151 156 166         inv_mod_expr
    006154  aa  137 155 157 144
    006155  aa  137 145 170 160
    006156  aa  162 000 000 000
    006157  55   001230 001212
    006160  2a   000075 400001
    006161  55   001224 000003
    006162  aa  015 151 156 166         inv_linus_var
    006163  aa  137 154 151 156
    006164  aa  165 163 137 166
    006165  aa  141 162 000 000
    006166  55   001236 001221
    006167  2a   000074 400001
    006170  55   001233 000003
    006171  aa  013 151 156 166         inv_lin_var
    006172  aa  137 154 151 156
    006173  aa  137 166 141 162
    006174  55   001245 001230
    006175  2a   000073 400001
    006176  55   001241 000003
    006177  aa  014 151 156 166         inv_lila_req
    006200  aa  137 154 151 154
    006201  aa  141 137 162 145
    006202  aa  161 000 000 000
    006203  55   001254 001236
    006204  2a   000072 400001
    006205  55   001250 000003
    006206  aa  016 151 156 166         inv_for_delete
    006207  aa  137 146 157 162
    006210  aa  137 144 145 154
    006211  aa  145 164 145 000
    006212  55   001262 001245
    006213  2a   000071 400001
    006214  55   001257 000003
    006215  aa  013 151 156 166         inv_fn_type
    006216  aa  137 146 156 137
    006217  aa  164 171 160 145
    006220  55   001270 001254
    006221  2a   000070 400001
    006222  55   001265 000003
    006223  aa  010 151 156 166         inv_expr
    006224  aa  137 145 170 160
    006225  aa  162 000 000 000
    006226  55   001277 001262
    006227  2a   000067 400001
    006230  55   001273 000003
    006231  aa  015 151 156 166         inv_delimiter
    006232  aa  137 144 145 154
    006233  aa  151 155 151 164
    006234  aa  145 162 000 000
    006235  55   001305 001270
    006236  2a   000066 400001
    006237  55   001302 000003
    006240  aa  011 151 156 166         inv_delim
    006241  aa  137 144 145 154
    006242  aa  151 155 000 000
    006243  55   001312 001277
    006244  2a   000065 400001
    006245  55   001310 000003
    006246  aa  007 151 156 166         inv_arg
    006247  aa  137 141 162 147
    006250  55   001322 001305
    006251  2a   000064 400001
    006252  55   001315 000003
    006253  aa  021 151 156 164         integer_too_small
    006254  aa  145 147 145 162
    006255  aa  137 164 157 157
    006256  aa  137 163 155 141
    006257  aa  154 154 000 000
    006260  55   001332 001312
    006261  2a   000063 400001
    006262  55   001325 000003
    006263  aa  021 151 156 164         integer_too_large
    006264  aa  145 147 145 162
    006265  aa  137 164 157 157
    006266  aa  137 154 141 162
    006267  aa  147 145 000 000
    006270  55   001340 001322
    006271  2a   000062 400001
    006272  55   001335 000003
    006273  aa  012 151 156 143         incons_fun
    006274  aa  157 156 163 137
    006275  aa  146 165 156 000
    006276  55   001346 001332
    006277  2a   000061 400001
    006300  55   001343 000003
    006301  aa  013 151 156 143         incons_args
    006302  aa  157 156 163 137
    006303  aa  141 162 147 163
    006304  55   001356 001340
    006305  2a   000060 400001
    006306  55   001351 000003
    006307  aa  020 151 156 143         incomplete_where
    006310  aa  157 155 160 154
    006311  aa  145 164 145 137
    006312  aa  167 150 145 162
    006313  aa  145 000 000 000
    006314  55   001366 001346
    006315  2a   000057 400001
    006316  55   001361 000003
    006317  aa  021 151 156 143         incomplete_select
    006320  aa  157 155 160 154
    006321  aa  145 164 145 137
    006322  aa  163 145 154 145
    006323  aa  143 164 000 000
    006324  55   001374 001356
    006325  2a   000056 400001
    006326  55   001371 000003
    006327  aa  012 151 154 154         ill_scp_op
    006330  aa  137 163 143 160
    006331  aa  137 157 160 000
    006332  55   001402 001366
    006333  2a   000055 400001
    006334  55   001377 000003
    006335  aa  010 146 165 156         func_err
    006336  aa  143 137 145 162
    006337  aa  162 000 000 000
    006340  55   001412 001374
    006341  2a   000054 400001
    006342  55   001405 000003
    006343  aa  020 146 165 156         func_args_parens
    006344  aa  143 137 141 162
    006345  aa  147 163 137 160
    006346  aa  141 162 145 156
    006347  aa  163 000 000 000
    006350  55   001421 001402
    006351  2a   000053 400001
    006352  55   001415 000003
    006353  aa  017 146 151 162         first_expr_item
    006354  aa  163 164 137 145
    006355  aa  170 160 162 137
    006356  aa  151 164 145 155
    006357  55   001427 001412
    006360  2a   000052 400001
    006361  55   001424 000003
    006362  aa  010 145 170 160         expr_str
    006363  aa  162 137 163 164
    006364  aa  162 000 000 000
    006365  55   001435 001421
    006366  2a   000051 400001
    006367  55   001432 000003
    006370  aa  011 145 170 160         expr_ovfl
    006371  aa  162 137 157 166
    006372  aa  146 154 000 000
    006373  55   001444 001427
    006374  2a   000050 400001
    006375  55   001440 000003
    006376  aa  015 145 170 160         expr_not_alld
    006377  aa  162 137 156 157
    006400  aa  164 137 141 154
    006401  aa  154 144 000 000
    006402  55   001453 001435
    006403  2a   000047 400001
    006404  55   001447 000003
    006405  aa  014 145 170 160         exp_line_len
    006406  aa  137 154 151 156
    006407  aa  145 137 154 145
    006410  aa  156 000 000 000
    006411  55   001461 001444
    006412  2a   000046 400001
    006413  55   001456 000003
    006414  aa  012 145 155 160         empty_file
    006415  aa  164 171 137 146
    006416  aa  151 154 145 000
    006417  55   001467 001453
    006420  2a   000045 400001
    006421  55   001464 000003
    006422  aa  011 145 141 162         early_end
    006423  aa  154 171 137 145
    006424  aa  156 144 000 000
    006425  55   001475 001461
    006426  2a   000044 400001
    006427  55   001472 000003
    006430  aa  013 144 165 160         dup_row_des
    006431  aa  137 162 157 167
    006432  aa  137 144 145 163
    006433  55   001504 001467
    006434  2a   000043 400001
    006435  55   001500 000003
    006436  aa  014 144 165 160         dup_ctl_args
    006437  aa  137 143 164 154
    006440  aa  137 141 162 147
    006441  aa  163 000 000 000
    006442  55   001513 001475
    006443  2a   000042 400001
    006444  55   001507 000003
    006445  aa  015 144 164 164         dtt_not_valid
    006446  aa  137 156 157 164
    006447  aa  137 166 141 154
    006450  aa  151 144 000 000
    006451  55   001521 001504
    006452  2a   000041 400001
    006453  55   001516 000003
    006454  aa  012 144 164 164         dtt_no_key
    006455  aa  137 156 157 137
    006456  aa  153 145 171 000
    006457  55   001530 001513
    006460  2a   000040 400001
    006461  55   001524 000003
    006462  aa  014 144 164 164         dtt_max_tabs
    006463  aa  137 155 141 170
    006464  aa  137 164 141 142
    006465  aa  163 000 000 000
    006466  55   001537 001521
    006467  2a   000037 400001
    006470  55   001533 000003
    006471  aa  016 144 164 164         dtt_key_select
    006472  aa  137 153 145 171
    006473  aa  137 163 145 154
    006474  aa  145 143 164 000
    006475  55   001544 001530
    006476  2a   000036 400001
    006477  55   001542 000003
    006500  aa  004 143 157 156         conv
    006501  aa  166 000 000 000
    006502  55   001553 001537
    006503  2a   000035 400001
    006504  55   001547 000003
    006505  aa  015 143 157 156         const_expr_fn
    006506  aa  163 164 137 145
    006507  aa  170 160 162 137
    006510  aa  146 156 000 000
    006511  55   001562 001544
    006512  2a   000034 400001
    006513  55   001556 000003
    006514  aa  014 143 141 156         cant_ref_fun
    006515  aa  164 137 162 145
    006516  aa  146 137 146 165
    006517  aa  156 000 000 000
    006520  55   001570 001553
    006521  2a   000033 400001
    006522  55   001565 000003
    006523  aa  011 143 141 156         cant_open
    006524  aa  164 137 157 160
    006525  aa  145 156 000 000
    006526  55   001577 001562
    006527  2a   000032 400001
    006530  55   001573 000003
    006531  aa  016 143 141 156         cant_alloc_lit
    006532  aa  164 137 141 154
    006533  aa  154 157 143 137
    006534  aa  154 151 164 000
    006535  55   001606 001570
    006536  2a   000031 400001
    006537  55   001602 000003
    006540  aa  016 142 165 151         build_overflow
    006541  aa  154 144 137 157
    006542  aa  166 145 162 146
    006543  aa  154 157 167 000
    006544  55   001614 001577
    006545  2a   000030 400001
    006546  55   001611 000003
    006547  aa  013 142 141 144         bad_stmt_no
    006550  aa  137 163 164 155
    006551  aa  164 137 156 157
    006552  55   001624 001606
    006553  2a   000027 400001
    006554  55   001617 000003
    006555  aa  020 142 141 144         bad_report_setup
    006556  aa  137 162 145 160
    006557  aa  157 162 164 137
    006560  aa  163 145 164 165
    006561  aa  160 000 000 000
    006562  55   001634 001614
    006563  2a   000026 400001
    006564  55   001627 000003
    006565  aa  021 142 141 144         bad_report_format
    006566  aa  137 162 145 160
    006567  aa  157 162 164 137
    006570  aa  146 157 162 155
    006571  aa  141 164 000 000
    006572  55   001644 001624
    006573  2a   000025 400001
    006574  55   001637 000003
    006575  aa  022 142 141 144         bad_report_display
    006576  aa  137 162 145 160
    006577  aa  157 162 164 137
    006600  aa  144 151 163 160
    006601  aa  154 141 171 000
    006602  55   001653 001634
    006603  2a   000024 400001
    006604  55   001647 000003
    006605  aa  014 142 141 144         bad_num_args
    006606  aa  137 156 165 155
    006607  aa  137 141 162 147
    006610  aa  163 000 000 000
    006611  55   001661 001644
    006612  2a   000023 400001
    006613  55   001656 000003
    006614  aa  010 142 141 144         bad_mode
    006615  aa  137 155 157 144
    006616  aa  145 000 000 000
    006617  55   001670 001653
    006620  2a   000022 400001
    006621  55   001664 000003
    006622  aa  015 142 141 144         bad_macro_arg
    006623  aa  137 155 141 143
    006624  aa  162 157 137 141
    006625  aa  162 147 000 000
    006626  55   001700 001661
    006627  2a   000021 400001
    006630  55   001673 000003
    006631  aa  020 142 141 144         bad_option_value
    006632  aa  137 157 160 164
    006633  aa  151 157 156 137
    006634  aa  166 141 154 165
    006635  aa  145 000 000 000
    006636  55   001707 001670
    006637  2a   000020 400001
    006640  55   001703 000003
    006641  aa  017 142 141 144         bad_option_name
    006642  aa  137 157 160 164
    006643  aa  151 157 156 137
    006644  aa  156 141 155 145
    006645  55   001720 001700
    006646  2a   000017 400001
    006647  55   001712 000003
    006650  aa  025 142 141 144         bad_option_identifier
    006651  aa  137 157 160 164
    006652  aa  151 157 156 137
    006653  aa  151 144 145 156
    006654  aa  164 151 146 151
    006655  aa  145 162 000 000
    006656  55   001730 001707
    006657  2a   000016 400001
    006660  55   001723 000003
    006661  aa  020 142 141 144         bad_inner_select
    006662  aa  137 151 156 156
    006663  aa  145 162 137 163
    006664  aa  145 154 145 143
    006665  aa  164 000 000 000
    006666  55   001740 001720
    006667  2a   000015 400001
    006670  55   001733 000003
    006671  aa  021 142 141 144         bad_fkey_sequence
    006672  aa  137 146 153 145
    006673  aa  171 137 163 145
    006674  aa  161 165 145 156
    006675  aa  143 145 000 000
    006676  55   001747 001730
    006677  2a   000014 400001
    006700  55   001743 000003
    006701  aa  015 142 141 144         bad_fkey_name
    006702  aa  137 146 153 145
    006703  aa  171 137 156 141
    006704  aa  155 145 000 000
    006705  55   001757 001740
    006706  2a   000013 400001
    006707  55   001752 000003
    006710  aa  020 142 141 144         bad_file_process
    006711  aa  137 146 151 154
    006712  aa  145 137 160 162
    006713  aa  157 143 145 163
    006714  aa  163 000 000 000
    006715  55   001765 001747
    006716  2a   000012 400001
    006717  55   001762 000003
    006720  aa  013 142 141 144         bad_comment
    006721  aa  137 143 157 155
    006722  aa  155 145 156 164
    006723  55   001774 001757
    006724  2a   000011 400001
    006725  55   001770 000003
    006726  aa  017 142 141 144         bad_builtin_obj
    006727  aa  137 142 165 151
    006730  aa  154 164 151 156
    006731  aa  137 157 142 152
    006732  55   002001 001765
    006733  2a   000010 400001
    006734  55   001777 000003
    006735  aa  005 141 142 157         abort
    006736  aa  162 164 000 000
    006737  55   000002 001774
    006740  6a   000000 400002
    006741  55   002004 000003
    006742  aa  014 163 171 155         symbol_table
    006743  aa  142 157 154 137
    006744  aa  164 141 142 154
    006745  aa  145 000 000 000

DEFINITIONS HASH TABLE

    006746  aa   000000 000463
    006747  5a   001747 000000
    006750  aa   000000 000000
    006751  aa   000000 000000
    006752  aa   000000 000000
    006753  aa   000000 000000
    006754  aa   000000 000000
    006755  aa   000000 000000
    006756  aa   000000 000000
    006757  5a   000557 000000
    006760  aa   000000 000000
    006761  aa   000000 000000
    006762  aa   000000 000000
    006763  aa   000000 000000
    006764  aa   000000 000000
    006765  aa   000000 000000
    006766  5a   000325 000000
    006767  5a   000412 000000
    006770  aa   000000 000000
    006771  aa   000000 000000
    006772  5a   001054 000000
    006773  5a   001063 000000
    006774  5a   000265 000000
    006775  5a   001125 000000
    006776  5a   001010 000000
    006777  5a   001143 000000
    007000  5a   000152 000000
    007001  5a   000201 000000
    007002  5a   001161 000000
    007003  5a   001221 000000
    007004  5a   001270 000000
    007005  5a   001661 000000
    007006  5a   000542 000000
    007007  5a   001740 000000
    007010  aa   000000 000000
    007011  5a   001332 000000
    007012  aa   000000 000000
    007013  aa   000000 000000
    007014  5a   000462 000000
    007015  aa   000000 000000
    007016  aa   000000 000000
    007017  aa   000000 000000
    007020  aa   000000 000000
    007021  aa   000000 000000
    007022  aa   000000 000000
    007023  aa   000000 000000
    007024  aa   000000 000000
    007025  aa   000000 000000
    007026  5a   000012 000000
    007027  aa   000000 000000
    007030  5a   000771 000000
    007031  5a   001435 000000
    007032  aa   000000 000000
    007033  aa   000000 000000
    007034  aa   000000 000000
    007035  aa   000000 000000
    007036  aa   000000 000000
    007037  aa   000000 000000
    007040  5a   001356 000000
    007041  aa   000000 000000
    007042  5a   000111 000000
    007043  5a   000220 000000
    007044  5a   000256 000000
    007045  5a   000320 000000
    007046  aa   000000 000000
    007047  aa   000000 000000
    007050  5a   000444 000000
    007051  aa   000000 000000
    007052  aa   000000 000000
    007053  aa   000000 000000
    007054  5a   000506 000000
    007055  5a   000745 000000
    007056  aa   000000 000000
    007057  aa   000000 000000
    007060  aa   000000 000000
    007061  5a   001312 000000
    007062  5a   001322 000000
    007063  aa   000000 000000
    007064  aa   000000 000000
    007065  aa   000000 000000
    007066  aa   000000 000000
    007067  5a   000472 000000
    007070  aa   000000 000000
    007071  5a   000210 000000
    007072  5a   001033 000000
    007073  aa   000000 000000
    007074  aa   000000 000000
    007075  aa   000000 000000
    007076  5a   001170 000000
    007077  5a   000652 000000
    007100  5a   001305 000000
    007101  5a   001624 000000
    007102  5a   001730 000000
    007103  aa   000000 000000
    007104  aa   000000 000000
    007105  aa   000000 000000
    007106  aa   000000 000000
    007107  aa   000000 000000
    007110  5a   001570 000000
    007111  5a   001521 000000
    007112  5a   000600 000000
    007113  5a   000671 000000
    007114  5a   000703 000000
    007115  aa   000000 000000
    007116  aa   000000 000000
    007117  aa   000000 000000
    007120  aa   000000 000000
    007121  5a   000342 000000
    007122  aa   000000 000000
    007123  aa   000000 000000
    007124  aa   000000 000000
    007125  5a   001100 000000
    007126  5a   000453 000000
    007127  5a   001134 000000
    007130  5a   000143 000000
    007131  5a   000125 000000
    007132  5a   000134 000000
    007133  5a   000161 000000
    007134  5a   000246 000000
    007135  5a   001245 000000
    007136  5a   001544 000000
    007137  aa   000000 000000
    007140  5a   000055 000000
    007141  5a   000533 000000
    007142  aa   000000 000000
    007143  aa   000000 000000
    007144  5a   001340 000000
    007145  aa   000000 000000
    007146  aa   000000 000000
    007147  5a   000735 000000
    007150  aa   000000 000000
    007151  aa   000000 000000
    007152  aa   000000 000000
    007153  aa   000000 000000
    007154  aa   000000 000000
    007155  aa   000000 000000
    007156  aa   000000 000000
    007157  aa   000000 000000
    007160  aa   000000 000000
    007161  aa   000000 000000
    007162  aa   000000 000000
    007163  aa   000000 000000
    007164  aa   000000 000000
    007165  aa   000000 000000
    007166  aa   000000 000000
    007167  5a   000427 000000
    007170  5a   001072 000000
    007171  5a   001230 000000
    007172  5a   001254 000000
    007173  5a   001707 000000
    007174  aa   000000 000000
    007175  5a   000074 000000
    007176  5a   000036 000000
    007177  5a   000117 000000
    007200  5a   000227 000000
    007201  aa   000000 000000
    007202  5a   000312 000000
    007203  5a   000525 000000
    007204  5a   000421 000000
    007205  5a   001606 000000
    007206  5a   001757 000000
    007207  5a   000027 000000
    007210  aa   000000 000000
    007211  aa   000000 000000
    007212  aa   000000 000000
    007213  aa   000000 000000
    007214  aa   000000 000000
    007215  5a   001774 000000
    007216  5a   000274 000000
    007217  aa   000000 000000
    007220  aa   000000 000000
    007221  aa   000000 000000
    007222  5a   000517 000000
    007223  5a   000021 000000
    007224  5a   000064 000000
    007225  5a   000726 000000
    007226  5a   001374 000000
    007227  aa   000000 000000
    007230  5a   000367 000000
    007231  5a   001204 000000
    007232  5a   001262 000000
    007233  5a   001634 000000
    007234  aa   000000 000000
    007235  5a   001017 000000
    007236  aa   000000 000000
    007237  aa   000000 000000
    007240  aa   000000 000000
    007241  aa   000000 000000
    007242  aa   000000 000000
    007243  aa   000000 000000
    007244  5a   001504 000000
    007245  5a   000551 000000
    007246  5a   000564 000000
    007247  5a   000720 000000
    007250  5a   001461 000000
    007251  5a   000435 000000
    007252  5a   000754 000000
    007253  5a   001412 000000
    007254  5a   000333 000000
    007255  5a   001653 000000
    007256  5a   001001 000000
    007257  aa   000000 000000
    007260  aa   000000 000000
    007261  aa   000000 000000
    007262  aa   000000 000000
    007263  aa   000000 000000
    007264  5a   000404 000000
    007265  aa   000000 000000
    007266  5a   000102 000000
    007267  5a   000236 000000
    007270  5a   001421 000000
    007271  5a   001467 000000
    007272  aa   000000 000000
    007273  5a   000303 000000
    007274  5a   001700 000000
    007275  5a   001765 000000
    007276  5a   001537 000000
    007277  aa   000000 000000
    007300  aa   000000 000000
    007301  aa   000000 000000
    007302  5a   000046 000000
    007303  aa   000000 000000
    007304  aa   000000 000000
    007305  5a   001553 000000
    007306  5a   001513 000000
    007307  5a   000676 000000
    007310  aa   000000 000000
    007311  5a   001043 000000
    007312  aa   000000 000000
    007313  aa   000000 000000
    007314  aa   000000 000000
    007315  aa   000000 000000
    007316  aa   000000 000000
    007317  aa   000000 000000
    007320  aa   000000 000000
    007321  aa   000000 000000
    007322  5a   001152 000000
    007323  5a   000632 000000
    007324  5a   001175 000000
    007325  5a   001212 000000
    007326  5a   001236 000000
    007327  5a   001577 000000
    007330  aa   000000 000000
    007331  aa   000000 000000
    007332  aa   000000 000000
    007333  aa   000000 000000
    007334  aa   000000 000000
    007335  5a   000357 000000
    007336  5a   000605 000000
    007337  5a   000614 000000
    007340  5a   000623 000000
    007341  5a   000643 000000
    007342  5a   000662 000000
    007343  5a   001366 000000
    007344  5a   001644 000000
    007345  aa   000000 000000
    007346  aa   000000 000000
    007347  5a   001562 000000
    007350  aa   000000 000000
    007351  aa   000000 000000
    007352  aa   000000 000000
    007353  aa   000000 000000
    007354  aa   000000 000000
    007355  aa   000000 000000
    007356  aa   000000 000000
    007357  aa   000000 000000
    007360  5a   000762 000000
    007361  5a   001444 000000
    007362  aa   000000 000000
    007363  aa   000000 000000
    007364  5a   001107 000000
    007365  5a   001277 000000
    007366  aa   000000 000000
    007367  aa   000000 000000
    007370  5a   001346 000000
    007371  aa   000000 000000
    007372  aa   000000 000000
    007373  aa   000000 000000
    007374  aa   000000 000000
    007375  aa   000000 000000
    007376  aa   000000 000000
    007377  5a   000350 000000
    007400  5a   000572 000000
    007401  5a   001530 000000
    007402  aa   000000 000000
    007403  aa   000000 000000
    007404  5a   001453 000000
    007405  5a   001402 000000
    007406  aa   000000 000000
    007407  aa   000000 000000
    007410  aa   000000 000000
    007411  aa   000000 000000
    007412  aa   000000 000000
    007413  5a   001115 000000
    007414  aa   000000 000000
    007415  aa   000000 000000
    007416  aa   000000 000000
    007417  5a   000376 000000
    007420  5a   000500 000000
    007421  5a   000171 000000
    007422  5a   001024 000000
    007423  5a   001427 000000
    007424  5a   001475 000000
    007425  5a   002001 000000
    007426  5a   001614 000000
    007427  5a   000710 000000
    007430  5a   001670 000000
    007431  5a   001720 000000

NO EXTERNAL NAMES

NO TRAP POINTER WORDS

TYPE PAIR BLOCKS

    007432  aa   000001 000000
    007433  aa   000000 000000

INTERNAL EXPRESSION WORDS

    007434  50   002474 000000
    007435  aa   000000 000000
LINKAGE INFORMATION

    000000  aa   000000 000000
    000001  02   004736 000240
    000002  aa   000000 000000
    000003  aa   000000 000000
    000004  aa   000000 000000
    000005  aa   000000 000000
    000006  22   000236 000243
    000007  a2   000000 000226
    000236  9a   777542 0000 46         *text|
    000237  5a   002476 0000 00

FIRST REFERENCE TRAP LIST

    000240  aa   000000 000001
    000241  aa   000000 000001
    000242  2a   000236 000000
    000243  aa   000000 000000
SYMBOL INFORMATION

SYMBOL TABLE HEADER

    000000  aa   000000 000001
    000001  aa   163171 155142
    000002  aa   164162 145145
    000003  aa   000000 000004
    000004  aa   000000 114732
    000005  aa   732732 062314
    000006  aa   000000 114775
    000007  aa   676064 562016
    000010  aa   141154 155040
    000011  aa   040040 040040
    000012  aa   000024 000040
    000013  aa   000034 000040
    000014  aa   000044 000100
    000015  aa   000002 000002
    000016  aa   000064 000000
    000017  aa   000000 000431
    000020  aa   000000 000145
    000021  aa   000000 000364
    000022  aa   000421 000145
    000023  aa   000064 000000
    000024  aa   101114 115040
    000025  aa   126145 162163
    000026  aa   151157 156040
    000027  aa   040066 056067
    000030  aa   040040 117143
    000031  aa   164157 142145
    000032  aa   162040 061071
    000033  aa   070066 040040
    000034  aa   107112 157150
    000035  aa   156163 157156
    000036  aa   056123 171163
    000037  aa   115141 151156
    000040  aa   164056 141040
    000041  aa   040040 040040
    000042  aa   040040 040040
    000043  aa   040040 040040
    000044  aa   154151 163164
    000045  aa   040040 040040
    000046  aa   040040 040040
    000047  aa   040040 040040
    000050  aa   040040 040040
    000051  aa   040040 040040
    000052  aa   040040 040040
    000053  aa   040040 040040
    000054  aa   040040 040040
    000055  aa   040040 040040
    000056  aa   040040 040040
    000057  aa   040040 040040
    000060  aa   040040 040040
    000061  aa   040040 040040
    000062  aa   040040 040040
    000063  aa   040040 040040
    000064  aa   000000 000001
    000065  aa   000000 000003
    000066  aa   000102 000061
    000067  aa   147740 446167
    000070  aa   000000 114774
    000071  aa   461027 200000
    000072  aa   000117 000037
    000073  aa   120665 316464
    000074  aa   000000 112067
    000075  aa   253504 600000
    000076  aa   000127 000066
    000077  aa   147714 750316
    000100  aa   000000 114774
    000101  aa   453561 000000
    000102  aa   076163 160145          >special_ldd>install>MR12.0-1206>linus_error_.alm
    000103  aa   143151 141154
    000104  aa   137154 144144
    000105  aa   076151 156163
    000106  aa   164141 154154
    000107  aa   076115 122061
    000110  aa   062056 060055
    000111  aa   061062 060066
    000112  aa   076154 151156
    000113  aa   165163 137145
    000114  aa   162162 157162
    000115  aa   137056 141154
    000116  aa   155040 040040
    000117  aa   076154 144144          >ldd>include>et_macros.incl.alm
    000120  aa   076151 156143
    000121  aa   154165 144145
    000122  aa   076145 164137
    000123  aa   155141 143162
    000124  aa   157163 056151
    000125  aa   156143 154056
    000126  aa   141154 155040
    000127  aa   076163 160145          >special_ldd>install>MR12.0-1206>stack_header.incl.alm
    000130  aa   143151 141154
    000131  aa   137154 144144
    000132  aa   076151 156163
    000133  aa   164141 154154
    000134  aa   076115 122061
    000135  aa   062056 060055
    000136  aa   061062 060066
    000137  aa   076163 164141
    000140  aa   143153 137150
    000141  aa   145141 144145
    000142  aa   162056 151156
    000143  aa   143154 056141
    000144  aa   154155 040040
               MULTICS ASSEMBLY CROSS REFERENCE LISTING

   Value        Symbol                   Source file   Line number

                *text                    linus_error_:        50.
          14    .._00000                 linus_error_:        53.
          27    .._00001                 linus_error_:        55.
          50    .._00002                 linus_error_:        57.
          65    .._00003                 linus_error_:        59.
         103    .._00004                 linus_error_:        61.
         122    .._00005                 linus_error_:        63.
         142    .._00006                 linus_error_:        65.
         166    .._00007                 linus_error_:        67.
         205    .._00010                 linus_error_:        69.
         222    .._00011                 linus_error_:        71.
         237    .._00012                 linus_error_:        73.
         256    .._00013                 linus_error_:        75.
         265    .._00014                 linus_error_:        77.
         310    .._00015                 linus_error_:        79.
         327    .._00016                 linus_error_:        81.
         346    .._00017                 linus_error_:        83.
         365    .._00020                 linus_error_:        85.
         405    .._00021                 linus_error_:        87.
         426    .._00022                 linus_error_:        89.
         446    .._00023                 linus_error_:        91.
         470    .._00024                 linus_error_:        93.
         504    .._00025                 linus_error_:        95.
         534    .._00026                 linus_error_:        97.
         545    .._00027                 linus_error_:        99.
         600    .._00030                 linus_error_:       101.
         623    .._00031                 linus_error_:       103.
         645    .._00032                 linus_error_:       105.
         672    .._00033                 linus_error_:       107.
         710    .._00034                 linus_error_:       109.
         725    .._00035                 linus_error_:       111.
         745    .._00036                 linus_error_:       113.
         757    .._00037                 linus_error_:       115.
        1001    .._00040                 linus_error_:       117.
        1026    .._00041                 linus_error_:       119.
        1056    .._00042                 linus_error_:       121.
        1102    .._00043                 linus_error_:       123.
        1122    .._00044                 linus_error_:       125.
        1143    .._00045                 linus_error_:       127.
        1175    .._00046                 linus_error_:       129.
        1207    .._00047                 linus_error_:       131.
        1224    .._00050                 linus_error_:       133.
        1241    .._00051                 linus_error_:       135.
        1265    .._00052                 linus_error_:       137.
        1305    .._00053                 linus_error_:       139.
        1327    .._00054                 linus_error_:       141.
        1352    .._00055                 linus_error_:       143.
        1373    .._00056                 linus_error_:       145.
        1414    .._00057                 linus_error_:       147.
        1437    .._00060                 linus_error_:       149.
        1453    .._00061                 linus_error_:       151.
        1471    .._00062                 linus_error_:       153.
        1511    .._00063                 linus_error_:       155.
        1532    .._00064                 linus_error_:       157.
        1554    .._00065                 linus_error_:       159.
        1571    .._00066                 linus_error_:       161.
        1611    .._00067                 linus_error_:       163.
        1624    .._00070                 linus_error_:       165.
        1643    .._00071                 linus_error_:       167.
        1653    .._00072                 linus_error_:       169.
        1673    .._00073                 linus_error_:       171.
        1722    .._00074                 linus_error_:       173.
        1747    .._00075                 linus_error_:       175.
        1775    .._00076                 linus_error_:       177.
        2022    .._00077                 linus_error_:       179.
        2043    .._00100                 linus_error_:       181.
        2057    .._00101                 linus_error_:       183.
        2101    .._00102                 linus_error_:       185.
        2130    .._00103                 linus_error_:       187.
        2145    .._00104                 linus_error_:       189.
        2161    .._00105                 linus_error_:       191.
        2200    .._00106                 linus_error_:       193.
        2231    .._00107                 linus_error_:       195.
        2264    .._00110                 linus_error_:       197.
        2307    .._00111                 linus_error_:       199.
        2334    .._00112                 linus_error_:       201.
        2357    .._00113                 linus_error_:       203.
        2400    .._00114                 linus_error_:       205.
        2420    .._00115                 linus_error_:       207.
        2437    .._00116                 linus_error_:       209.
        2460    .._00117                 linus_error_:       211.
        2510    .._00120                 linus_error_:       213.
        2533    .._00121                 linus_error_:       215.
        2553    .._00122                 linus_error_:       217.
        2570    .._00123                 linus_error_:       219.
        2611    .._00124                 linus_error_:       221.
        2625    .._00125                 linus_error_:       223.
        2640    .._00126                 linus_error_:       225.
        2660    .._00127                 linus_error_:       227.
        2700    .._00130                 linus_error_:       229.
        2716    .._00131                 linus_error_:       231.
        2735    .._00132                 linus_error_:       233.
        2751    .._00133                 linus_error_:       235.
        2765    .._00134                 linus_error_:       237.
        3007    .._00135                 linus_error_:       239.
        3022    .._00136                 linus_error_:       241.
        3037    .._00137                 linus_error_:       243.
        3051    .._00140                 linus_error_:       245.
        3075    .._00141                 linus_error_:       247.
        3122    .._00142                 linus_error_:       249.
        3142    .._00143                 linus_error_:       251.
        3153    .._00144                 linus_error_:       253.
        3175    .._00145                 linus_error_:       255.
        3221    .._00146                 linus_error_:       257.
        3251    .._00147                 linus_error_:       259.
        3271    .._00150                 linus_error_:       261.
        3321    .._00151                 linus_error_:       263.
        3350    .._00152                 linus_error_:       265.
        3364    .._00153                 linus_error_:       267.
        3402    .._00154                 linus_error_:       269.
        3425    .._00155                 linus_error_:       271.
        3460    .._00156                 linus_error_:       273.
        3503    .._00157                 linus_error_:       275.
        3521    .._00160                 linus_error_:       277.
        3545    .._00161                 linus_error_:       279.
        3571    .._00162                 linus_error_:       281.
        3610    .._00163                 linus_error_:       283.
        3644    .._00164                 linus_error_:       285.
        3664    .._00165                 linus_error_:       287.
        3717    .._00166                 linus_error_:       289.
        3742    .._00167                 linus_error_:       291.
        3764    .._00170                 linus_error_:       293.
        3777    .._00171                 linus_error_:       295.
        4014    .._00172                 linus_error_:       297.
        4045    .._00173                 linus_error_:       299.
        4065    .._00174                 linus_error_:       301.
        4112    .._00175                 linus_error_:       303.
        4135    .._00176                 linus_error_:       305.
        4151    .._00177                 linus_error_:       307.
        4172    .._00200                 linus_error_:       309.
        4223    .._00201                 linus_error_:       311.
        4246    .._00202                 linus_error_:       313.
        4270    .._00203                 linus_error_:       315.
        4310    .._00204                 linus_error_:       317.
        4331    .._00205                 linus_error_:       319.
        4351    .._00206                 linus_error_:       321.
        4373    .._00207                 linus_error_:       323.
        4412    .._00210                 linus_error_:       325.
        4423    .._00211                 linus_error_:       327.
        4433    .._00212                 linus_error_:       329.
        4454    .._00213                 linus_error_:       331.
        4472    .._00214                 linus_error_:       333.
        4513    .._00215                 linus_error_:       335.
        4532    .._00216                 linus_error_:       337.
        4551    .._00217                 linus_error_:       339.
        4604    .._00220                 linus_error_:       341.
        4625    .._00221                 linus_error_:       343.
        4645    .._00222                 linus_error_:       345.
        4666    .._00223                 linus_error_:       347.
        4721    .._00224                 linus_error_:       349.
         235    .code_end                linus_error_:        50.
          10    .code_start              linus_error_:        50.
           5    .loop                    linus_error_:        50.
       77777    .segno                   linus_error_:        50,   53,   55,   57,   59,   61,   63,   65,   67,   69,   71,
                                                              73,   75,   77,   79,   81,   83,   85,   87,   89,   91,   93,
                                                              95,   97,   99,  101,  103,  105,  107,  109,  111,  113,  115,
                                                             117,  119,  121,  123,  125,  127,  129,  131,  133,  135,  137,
                                                             139,  141,  143,  145,  147,  149,  151,  153,  155,  157,  159,
                                                             161,  163,  165,  167,  169,  171,  173,  175,  177,  179,  181,
                                                             183,  185,  187,  189,  191,  193,  195,  197,  199,  201,  203,
                                                             205,  207,  209,  211,  213,  215,  217,  219,  221,  223,  225,
                                                             227,  229,  231,  233,  235,  237,  239,  241,  243,  245,  247,
                                                             249,  251,  253,  255,  257,  259,  261,  263,  265,  267,  269,
                                                             271,  273,  275,  277,  279,  281,  283,  285,  287,  289,  291,
                                                             293,  295,  297,  299,  301,  303,  305,  307,  309,  311,  313,
                                                             315,  317,  319,  321,  323,  325,  327,  329,  331,  333,  335,
                                                             337,  339,  341,  343,  345,  347,  349.
           0    .trapproc                linus_error_:        50.
          10    abort                    linus_error_:        53.
          11    bad_builtin_obj          linus_error_:        55.
          12    bad_comment              linus_error_:        57.
          13    bad_file_process         linus_error_:        59.
          14    bad_fkey_name            linus_error_:        61.
          15    bad_fkey_sequence        linus_error_:        63.
          16    bad_inner_select         linus_error_:        65.
          22    bad_macro_arg            linus_error_:        73.
          23    bad_mode                 linus_error_:        75.
          24    bad_num_args             linus_error_:        77.
          17    bad_option_identifier    linus_error_:        67.
          20    bad_option_name          linus_error_:        69.
          21    bad_option_value         linus_error_:        71.
          25    bad_report_display       linus_error_:        79.
          26    bad_report_format        linus_error_:        81.
          27    bad_report_setup         linus_error_:        83.
          30    bad_stmt_no              linus_error_:        85.
          31    build_overflow           linus_error_:        87.
        1170    call_offset              stack_header:        80.
          32    cant_alloc_lit           linus_error_:        89.
          33    cant_open                linus_error_:        91.
          34    cant_ref_fun             linus_error_:        93.
          10    codes                    linus_error_:        50,   53,   55,   57,   59,   61,   63,   65,   67,   69,   71,
                                                              73,   75,   77,   79,   81,   83,   85,   87,   89,   91,   93,
                                                              95,   97,   99,  101,  103,  105,  107,  109,  111,  113,  115,
                                                             117,  119,  121,  123,  125,  127,  129,  131,  133,  135,  137,
                                                             139,  141,  143,  145,  147,  149,  151,  153,  155,  157,  159,
                                                             161,  163,  165,  167,  169,  171,  173,  175,  177,  179,  181,
                                                             183,  185,  187,  189,  191,  193,  195,  197,  199,  201,  203,
                                                             205,  207,  209,  211,  213,  215,  217,  219,  221,  223,  225,
                                                             227,  229,  231,  233,  235,  237,  239,  241,  243,  245,  247,
                                                             249,  251,  253,  255,  257,  259,  261,  263,  265,  267,  269,
                                                             271,  273,  275,  277,  279,  281,  283,  285,  287,  289,  291,
                                                             293,  295,  297,  299,  301,  303,  305,  307,  309,  311,  313,
                                                             315,  317,  319,  321,  323,  325,  327,  329,  331,  333,  335,
                                                             337,  339,  341,  343,  345,  347,  349.
          35    const_expr_fn            linus_error_:        95.
          36    conv                     linus_error_:        97.
          37    dtt_key_select           linus_error_:        99.
          40    dtt_max_tabs             linus_error_:       101.
          42    dtt_not_valid            linus_error_:       105.
          41    dtt_no_key               linus_error_:       103.
          43    dup_ctl_args             linus_error_:       107.
          44    dup_row_des              linus_error_:       109.
          45    early_end                linus_error_:       111.
          46    empty_file               linus_error_:       113.
        1174    entry_offset             stack_header:        84.
          50    expr_not_alld            linus_error_:       117.
          51    expr_ovfl                linus_error_:       119.
          52    expr_str                 linus_error_:       121.
          47    exp_line_len             linus_error_:       115.
          53    first_expr_item          linus_error_:       123.
          54    func_args_parens         linus_error_:       125.
          55    func_err                 linus_error_:       127.
          56    ill_scp_op               linus_error_:       129.
          57    incomplete_select        linus_error_:       131.
          60    incomplete_where         linus_error_:       133.
          61    incons_args              linus_error_:       135.
          62    incons_fun               linus_error_:       137.
          63    integer_too_large        linus_error_:       139.
          64    integer_too_small        linus_error_:       141.
         114    invalid_token            linus_error_:       189.
         113    inval_ctl_arg            linus_error_:       187.
          65    inv_arg                  linus_error_:       143.
          66    inv_delim                linus_error_:       145.
          67    inv_delimiter            linus_error_:       147.
          70    inv_expr                 linus_error_:       149.
          71    inv_fn_type              linus_error_:       151.
          72    inv_for_delete           linus_error_:       153.
          73    inv_lila_req             linus_error_:       155.
          75    inv_linus_var            linus_error_:       159.
          74    inv_lin_var              linus_error_:       157.
          77    inv_mode                 linus_error_:       163.
          76    inv_mod_expr             linus_error_:       161.
         100    inv_pathname             linus_error_:       165.
         101    inv_req                  linus_error_:       167.
         102    inv_sclf_args            linus_error_:       169.
         103    inv_sclf_use             linus_error_:       171.
         105    inv_setfn_args           linus_error_:       175.
         106    inv_setfn_set            linus_error_:       177.
         104    inv_set_scope            linus_error_:       173.
         107    inv_string_const         linus_error_:       179.
         110    inv_table                linus_error_:       181.
         111    inv_token_type           linus_error_:       183.
         112    inv_tup_var              linus_error_:       185.
         115    linus_var_not_defined    linus_error_:       191.
         116    lister_col_names         linus_error_:       193.
         117    lister_col_nums          linus_error_:       195.
         120    long_id                  linus_error_:       197.
         121    long_lv_name             linus_error_:       199.
         122    max_req_args             linus_error_:       201.
           0    messages                 linus_error_:        50,   53,   55,   57,   59,   61,   63,   65,   67,   69,   71,
                                                              73,   75,   77,   79,   81,   83,   85,   87,   89,   91,   93,
                                                              95,   97,   99,  101,  103,  105,  107,  109,  111,  113,  115,
                                                             117,  119,  121,  123,  125,  127,  129,  131,  133,  135,  137,
                                                             139,  141,  143,  145,  147,  149,  151,  153,  155,  157,  159,
                                                             161,  163,  165,  167,  169,  171,  173,  175,  177,  179,  181,
                                                             183,  185,  187,  189,  191,  193,  195,  197,  199,  201,  203,
                                                             205,  207,  209,  211,  213,  215,  217,  219,  221,  223,  225,
                                                             227,  229,  231,  233,  235,  237,  239,  241,  243,  245,  247,
                                                             249,  251,  253,  255,  257,  259,  261,  263,  265,  267,  269,
                                                             271,  273,  275,  277,  279,  281,  283,  285,  287,  289,  291,
                                                             293,  295,  297,  299,  301,  303,  305,  307,  309,  311,  313,
                                                             315,  317,  319,  321,  323,  325,  327,  329,  331,  333,  335,
                                                             337,  339,  341,  343,  345,  347,  349.
         123    misplaced_select         linus_error_:       203.
         124    misplaced_setop          linus_error_:       205.
         125    mod_key_col              linus_error_:       207.
         126    mod_not_valid            linus_error_:       209.
         127    mrds_item_not_def        linus_error_:       211.
         130    mult_updt_rows           linus_error_:       213.
         157    nonex_del                linus_error_:       259.
         155    non_integer              linus_error_:       255.
         156    non_numeric_argument     linus_error_:       257.
         131    no_comma                 linus_error_:       215.
         132    no_current_query         linus_error_:       217.
         133    no_data                  linus_error_:       219.
         134    no_db                    linus_error_:       221.
         135    no_from                  linus_error_:       223.
         136    no_input_arg             linus_error_:       225.
         137    no_input_arg_reqd        linus_error_:       227.
         140    no_lila_data             linus_error_:       229.
         141    no_lila_expr_processed   linus_error_:       231.
         142    no_linus_var             linus_error_:       233.
         143    no_macro_arg             linus_error_:       235.
         144    no_max_lines             linus_error_:       237.
         145    no_path                  linus_error_:       239.
         146    no_report                linus_error_:       241.
         147    no_scope                 linus_error_:       243.
         150    no_tab                   linus_error_:       245.
         151    no_table                 linus_error_:       247.
         152    no_table_list            linus_error_:       249.
         153    no_temp_tables           linus_error_:       251.
         154    no_var_list              linus_error_:       253.
         160    null_input               linus_error_:       261.
         161    one_dbitem_mod_expr      linus_error_:       263.
         162    op_follow_lp             linus_error_:       265.
         235    past_codes               linus_error_:        50.
         163    print_buf_ovfl           linus_error_:       267.
        1171    push_offset              stack_header:        81.
         165    range_ovfl               linus_error_:       271.
         166    recursed                 linus_error_:       273.
        1173    return_no_pop_offset     stack_header:        83.
        1172    return_offset            stack_header:        82.
         167    ret_not_valid            linus_error_:       275.
         164    r_scope_not_set          linus_error_:       269.
         170    scfn_nargs               linus_error_:       277.
         171    scfn_syntax              linus_error_:       279.
         172    sclf_null_arg            linus_error_:       281.
         173    select_list_ovfl         linus_error_:       283.
         174    select_syntax            linus_error_:       285.
         175    setfn_nargs              linus_error_:       287.
         176    setfn_syntax             linus_error_:       289.
         177    setop_ovfl               linus_error_:       291.
          73    stach_header.trace_top_ptr     stack_header:        62.
          66    stack_header.assign_linkage_ptr      stack_header:        59.
          32    stack_header.bar_mode_sp       stack_header:        42.
          36    stack_header.call_op_ptr       stack_header:        44.
          10    stack_header.clr_ptr     stack_header:        27.
           6    stack_header.combined_stat_ptr       stack_header:        25.
           4    stack_header.cpm_data_ptr      stack_header:        24.
          13    stack_header.cpm_enabled       stack_header:        32.
          13    stack_header.cur_lot_size      stack_header:        31.
          64    stack_header.ect_ptr     stack_header:        58.
          46    stack_header.entry_op_ptr      stack_header:        49.
          70    stack_header.heap_header_ptr   stack_header:        60.
          74    stack_header.in_trace    stack_header:        63.
          52    stack_header.isot_ptr    stack_header:        52.
          26    stack_header.lot_ptr     linus_error_:        50,
                                         stack_header:        39.
          12    stack_header.main_proc_invoked       stack_header:        29.
          12    stack_header.max_lot_size      stack_header:        28.
          20    stack_header.parent_ptr  stack_header:        36.
          34    stack_header.pl1_operators_ptr       stack_header:        43.
          40    stack_header.push_op_ptr       stack_header:        46.
          42    stack_header.return_op_ptr     stack_header:        47.
          44    stack_header.ret_no_pop_op_ptr       stack_header:        48.
          62    stack_header.rnt_ptr     stack_header:        57.
          12    stack_header.run_unit_depth    stack_header:        30.
          54    stack_header.sct_ptr     stack_header:        53.
          30    stack_header.signal_ptr  stack_header:        41.
          22    stack_header.stack_begin_ptr   stack_header:        37.
          24    stack_header.stack_end_ptr     stack_header:        38.
          14    stack_header.system_free_ptr   stack_header:        33.
          60    stack_header.sys_link_info_ptr       stack_header:        56.
          72    stack_header.trace_frames      stack_header:        61.
          50    stack_header.trans_op_tv_ptr   stack_header:        51.
          56    stack_header.unwinder_ptr      stack_header:        54.
          16    stack_header.user_free_ptr     stack_header:        34.
         100    stack_header_end         stack_header:        64.
         200    syntax                   linus_error_:       293.
         201    table_exist              linus_error_:       295.
         202    table_not_ready          linus_error_:       297.
         203    text_follows             linus_error_:       299.
         204    token_type_null          linus_error_:       301.
         205    too_few_args             linus_error_:       303.
         206    too_few_ctl_args         linus_error_:       305.
         207    too_few_sclf_args        linus_error_:       307.
         210    too_many_args            linus_error_:       309.
         211    too_many_dbs             linus_error_:       311.
         212    too_many_expr_items      linus_error_:       313.
         213    too_many_invocs          linus_error_:       315.
         214    too_many_sclf_args       linus_error_:       317.
         215    too_many_scp_ops         linus_error_:       319.
         216    too_many_tables          linus_error_:       321.
           0    trace_frames.count       stack_header:        69.
           1    trace_frames.top_ptr     stack_header:        70.
         551    tv_offset                stack_header:        75,   80,   81,   82,   83,   84.
         217    unalld_setop             linus_error_:       323.
         220    unbal_parens             linus_error_:       325.
         221    unbal_quotes             linus_error_:       327.
         222    undef_col                linus_error_:       329.
         223    undef_id                 linus_error_:       331.
         224    undef_row_des            linus_error_:       333.
         225    undef_tab                linus_error_:       335.
         226    undef_temp_table         linus_error_:       337.
         227    union_compat             linus_error_:       339.
         231    update_not_allowed       linus_error_:       343.
         230    upd_temp_tab             linus_error_:       341.
         232    var_stck_ovrflw          linus_error_:       345.
         233    where_ovfl               linus_error_:       347.
         234    where_syntax             linus_error_:       349.


NO FATAL ERRORS


                                          -----------------------------------------------------------


Historical Background

This edition of the Multics software materials and documentation is provided and donated
to Massachusetts Institute of Technology by Group BULL including BULL HN Information Systems Inc.
as a contribution to computer science knowledge.
This donation is made also to give evidence of the common contributions of Massachusetts Institute of Technology,
Bell Laboratories, General Electric, Honeywell Information Systems Inc., Honeywell BULL Inc., Groupe BULL
and BULL HN Information Systems Inc. to the development of this operating system.
Multics development was initiated by Massachusetts Institute of Technology Project MAC (1963-1970),
renamed the MIT Laboratory for Computer Science and Artificial Intelligence in the mid 1970s, under the leadership
of Professor Fernando Jose Corbato. Users consider that Multics provided the best software architecture
for managing computer hardware properly and for executing programs. Many subsequent operating systems
incorporated Multics principles.
Multics was distributed in 1975 to 2000 by Group Bull in Europe , and in the U.S. by Bull HN Information Systems Inc.,
as successor in interest by change in name only to Honeywell Bull Inc. and Honeywell Information Systems Inc. .

                                          -----------------------------------------------------------

Permission to use, copy, modify, and distribute these programs and their documentation for any purpose and without
fee is hereby granted,provided that the below copyright notice and historical background appear in all copies
and that both the copyright notice and historical background and this permission notice appear in supporting
documentation, and that the names of MIT, HIS, BULL or BULL HN not be used in advertising or publicity pertaining
to distribution of the programs without specific prior written permission.
    Copyright 1972 by Massachusetts Institute of Technology and Honeywell Information Systems Inc.
    Copyright 2006 by BULL HN Information Systems Inc.
    Copyright 2006 by Bull SAS
    All Rights Reserved
