	COMPILATION LISTING OF SEGMENT lister_copy_records_
	Compiled by: Multics PL/I Compiler, Release 28d, of October 4, 1983
	Compiled at: Honeywell Multics Op. - System M
	Compiled on: 11/05/84  1154.1 mst Mon
	    Options: optimize map

        1 /* ***********************************************************
        2*   *                                                         *
        3*   *                                                         *
        4*   * Copyright, (C) Honeywell Information Systems Inc., 1981 *
        5*   *                                                         *
        6*   *                                                         *
        7*   *********************************************************** */
        8
        9 /* ******************************************************
       10*   *                                                    *
       11*   *                                                    *
       12*   * Copyright (c) 1972 by Massachusetts Institute of   *
       13*   * Technology and Honeywell Information Systems, Inc. *
       14*   *                                                    *
       15*   *                                                    *
       16*   ****************************************************** */
       17
       18 /* LISTER_COPY_RECORDS_ - Program to copy records from one Lister file to another.
       19*   Written 750316 by PG
       20*   Modified 761115 by PG to rename from assist_copy_records_ to lister_copy_records_
       21**/
       22
       23 /* format: style3 */
       24 lister_copy_records_:
       25      procedure (bv_in_file_ptr, bv_out_file_ptr, bv_list_ptr) options (packed_decimal);
       26
       27 /* parameters */
       28
       29 dcl (bv_in_file_ptr, bv_out_file_ptr, bv_list_ptr)
       30      ptr parameter;
       31
       32 /* automatic */
       33
       34 dcl  listp ptr,
       35      listx fixed bin;
       36
       37 /* builtins */
       38
       39 dcl (hbound, lbound, length, null)
       40      builtin;
       41
       42 /* include files */
       43
  1     1 /* ====== BEGIN INCLUDE FILE		lister_entries.incl.pl1 =================================== */
  1     2
  1     3 /*
  1     4*   Modified 800521 by PB to add code to calling sequence for lister_merge_.
  1     5*   Modified 800702 by PB to add lister_status_.
  1     6*   Modified 800813 by PB to add lister_assign_.
  1     7*   Modified 800826 by PB to add lister_create_record_$retain_uid.
  1     8*   Modified 801008 by PB to add display to calling sequence for lister_print_.
  1     9*   Modified 801024 by PB to add lister_convert_.
  1    10*   Modified 810226 by PB to add listform_path to calling sequence for lister_print_.
  1    11**/
  1    12
  1    13 dcl       lister_assign_
  1    14 	                    entry (ptr, bit (1) aligned, ptr, ptr);
  1    15 	                    /* param 1          (input)   ptr to lister segment */
  1    16 	                    /* param 2          (input)   "1"b iff all records are to be modified */
  1    17 	                    /* param 3          (input)   ptr to selected records */
  1    18 	                    /* param 4          (input)   ptr to assign info structure */
  1    19
  1    20 dcl	lister_compile_listin_
  1    21 			entry (ptr, ptr, fixed bin (21), ptr, fixed bin, char (*), fixed bin (35));
  1    22 			/* param 1	(input)	ptr to new file segment */
  1    23 			/* param 2	(input)	ptr to listin segment */
  1    24 			/* param 3	(input)	length in chars of listin segment */
  1    25 			/* param 4	(input)	ptr to system free area */
  1    26 			/* param 5	(output)	number of records parsed */
  1    27 			/* param 6	(output)	error token, if any errors */
  1    28 			/* param 7	(output)	status code */
  1    29
  1    30 dcl	lister_compile_select_
  1    31 			entry (char (*), ptr, ptr, ptr, char (*), fixed bin (35));
  1    32 			/* param 1	(input)	select expression to be parsed */
  1    33 			/* param 2	(input)	ptr to file that will be searched */
  1    34 			/* param 3	(input)	ptr to area */
  1    35 			/* param 4	(output)	ptr to compiled select expression */
  1    36 			/* param 5	(output)	error token */
  1    37 			/* param 6	(output)	standard status code */
  1    38
  1    39 dcl	lister_compile_sort_
  1    40 			entry (char (*), ptr, ptr, ptr, char (*), fixed bin (35));
  1    41 			/* param 1	(input)	sort string to be parsed */
  1    42 			/* param 2	(input)	ptr to file */
  1    43 			/* param 3	(input)	ptr to area */
  1    44 			/* param 4	(output)	ptr to compiled sort expression */
  1    45 			/* param 5	(output)	token in error (if any error) */
  1    46 			/* param 6	(output)	standard status code */
  1    47
  1    48 dcl       lister_convert_     entry (ptr, fixed bin (35));
  1    49 	                    /* param 1          (input)   input file ptr */
  1    50                               /* param 2          (output)  standard status code */
  1    51
  1    52 dcl	lister_copy_file_head_
  1    53 			entry (ptr, ptr);
  1    54 			/* param 1	(input)	input file ptr */
  1    55 			/* param 2	(input)	output file ptr */
  1    56
  1    57 dcl	lister_copy_records_
  1    58 			entry (ptr, ptr, ptr);
  1    59 			/* param 1	(input)	ptr to input file */
  1    60 			/* param 2	(input)	ptr to output file */
  1    61 			/* param 3	(input)	ptr to list of records to be copied */
  1    62
  1    63 dcl	lister_compare_field_tables_
  1    64 			entry (ptr, ptr)
  1    65 			returns (bit (1) aligned);
  1    66 			/* param 1	(input)	ptr to file 1 */
  1    67 			/* param 2	(input)	ptr to file 2 */
  1    68 			/* return		(output)	"1"b if field tables are equal */
  1    69
  1    70 dcl	lister_create_record_
  1    71 			entry (ptr)
  1    72 			returns (ptr);
  1    73 			/* param 1	(input)	file ptr */
  1    74 			/* return		(output)	record ptr */
  1    75
  1    76 dcl	lister_create_record_$after
  1    77 			entry (ptr, ptr)
  1    78 			returns (ptr);
  1    79 			/* param 1	(input)	ptr to file to create record in */
  1    80 			/* param 2	(input)	ptr to record that is to be just before created record */
  1    81 			/* return		(output)	ptr to created record */
  1    82
  1    83 dcl	lister_create_record_$retain_uid
  1    84 			entry (ptr, fixed bin (24) unsigned unaligned)
  1    85 			returns (ptr);
  1    86 			/* param 1	(input)	file ptr */
  1    87                               /* param 2          (input)   uid to be retained */
  1    88 			/* return		(output)	record ptr */
  1    89
  1    90 dcl	lister_delete_
  1    91 			entry (ptr, ptr);
  1    92 			/* param 1	(input)	file ptr */
  1    93 			/* param 2	(input)	ptr to list of record to be deleted */
  1    94
  1    95 dcl	lister_expand_
  1    96 			entry (ptr, ptr, fixed bin (21), fixed bin, bit (1) aligned)
  1    97 			returns (fixed bin);
  1    98 			/* param 1	(input)	file ptr */
  1    99 			/* param 2	(input)	ptr to output segment */
  1   100 			/* param 3	(in/out)	1-origin char index of next free char in output segment */
  1   101 			/* param 4	(input)	line length to use */
  1   102 			/* param 5	(input)	"1"b iff field names are always to appear */
  1   103 			/* return		(output)	number of records expanded */
  1   104
  1   105 dcl	lister_hash_fid_ reducible
  1   106 			entry (ptr, char (*))
  1   107 			returns (fixed bin);
  1   108 			/* param 1	(input)	file ptr */
  1   109 			/* param 2	(input)	field identifier */
  1   110 			/* return		(output)	field index */
  1   111
  1   112 dcl	lister_hash_fid_$enter irreducible
  1   113 			entry (ptr, char (*))
  1   114 			returns (ptr);
  1   115 			/* param 1	(input)	file ptr */
  1   116 			/* param 2	(input)	field identifier */
  1   117 			/* return		(output)	field identifier node offset */
  1   118
  1   119 dcl	lister_format_parse_
  1   120 			entry (ptr, ptr, char (*), ptr, char (*), fixed bin (35));
  1   121 			/* param 1	(input)	ptr to file containing field table */
  1   122 			/* param 2	(input)	ptr to area */
  1   123 			/* param 3	(input)	listform string */
  1   124 			/* param 4	(output)	format table ptr */
  1   125 			/* param 5	(output)	error token */
  1   126 			/* param 6	(output)	status code */
  1   127
  1   128 dcl	lister_merge_	entry (ptr, ptr, ptr, (*) fixed bin, fixed bin, fixed bin, fixed bin(35))
  1   129 			returns ((3) fixed bin);
  1   130 			/* param 1	(input)	input file ptr */
  1   131 			/* param 2	(input)	update file ptr */
  1   132 			/* param 3	(input)	output file ptr */
  1   133 			/* param 4	(input)	array of fields to merge on */
  1   134 			/* param 5	(input)	1-origin number of elements in field_list */
  1   135 			/* param 6	(input)	type of merge */
  1   136 	                    /* param 7          (output)  status code */
  1   137 			/* return		(output)	count of number of input, update, output records */
  1   138
  1   139 dcl	lister_print_	entry (ptr, ptr, ptr, fixed bin (21), bit (1) aligned,
  1   140 	ptr, ptr, fixed bin, bit (1) aligned, bit (1) aligned, char (*));
  1   141 			/* param 1	(input)	ptr to file to be printed */
  1   142 			/* param 2	(input)	format table ptr */
  1   143 			/* param 3	(input)	ptr to base of output segment */
  1   144 			/* param 4	(in/out)	index of next output character */
  1   145 			/* param 5	(input)	"1"b iff all records are to be printed */
  1   146 			/* param 6	(input)	ptr to list of records to print */
  1   147 			/*			null => print no records */
  1   148 			/* param 7	(input)	ptr to argument list for -ag */
  1   149 			/* param 8	(input)	index of -ag in above argument list */
  1   150 			/* param 9	(input)	brief error flag */
  1   151 	                    /* param 10         (input)   "1"b iff called by display_list af */
  1   152                               /* param 11         (input)   pathname of listform segment */
  1   153
  1   154 dcl	lister_select_	entry (ptr, ptr, ptr, ptr)
  1   155 			returns (fixed bin);
  1   156 			/* param 1	(input)	ptr to file to be searched */
  1   157 			/* param 2	(input)	ptr to select_expression */
  1   158 			/* param 3	(input)	ptr to area */
  1   159 			/* param 4	(output)	ptr to list of selected records */
  1   160 			/* return		(output)	number of records found */
  1   161
  1   162 dcl	lister_sort_	entry (ptr, ptr, ptr);
  1   163 			/* param 1	(input)	file ptr */
  1   164 			/* param 2	(input)	ptr to list of records */
  1   165 			/* param 3	(input)	ptr to sort list array */
  1   166
  1   167 dcl       lister_status_      entry (ptr, char (*), bit (1) aligned, ptr);
  1   168 	                    /* param 1          (input)   ptr to lister segment */
  1   169 	                    /* param 2          (input)   entryname of lister segment */
  1   170 	                    /* param 3          (input)   on if no selection expression given */
  1   171 	                    /* param 4          (input)   ptr to status info structure */
  1   172
  1   173 /* ------ END INCLUDE FILE		lister_entries.incl.pl1 ----------------------------------- */
       44
  2     1 /* ====== BEGIN INCLUDE FILE		lister_structures.incl.pl1 ================================ */
  2     2
  2     3 /*
  2     4*   Modified 800813 by PB to add PUT_UID to listform declarations.
  2     5*   Modified 800825 by PB for version 2 lister file.
  2     6*   Modified 840523 by PB to add SELECT_BEG and SELECT_END.
  2     7**/
  2     8 /* MASTER DECLARATIONS */
  2     9
  2    10 /* format: style3 */
  2    11 dcl	lister_file_version_2
  2    12 			fixed bin initial (2) internal static options (constant);
  2    13
  2    14 dcl	1 input_file	based (in_file_ptr) aligned,
  2    15 	  2 (
  2    16 	  field_table_offset,
  2    17 	  record_head,
  2    18 	  record_tail,
  2    19 	  unused		(2)
  2    20 	  )		offset (input_file.area),
  2    21 	  2 next_uid        fixed bin (24) unsigned,
  2    22 	  2 version	fixed bin,
  2    23 	  2 n_records	fixed bin (17),
  2    24 	  2 area		area (261112);
  2    25
  2    26 dcl	1 update_file	based (up_file_ptr) aligned,
  2    27 	  2 (
  2    28 	  field_table_offset,
  2    29 	  record_head,
  2    30 	  record_tail,
  2    31 	  unused		(2)
  2    32 	  )		offset (update_file.area),
  2    33 	  2 next_uid        fixed bin (24) unsigned,
  2    34 	  2 version	fixed bin,
  2    35 	  2 n_records	fixed bin (17),
  2    36 	  2 area		area (261112);
  2    37
  2    38 dcl	1 output_file	based (out_file_ptr) aligned,
  2    39 	  2 (
  2    40 	  field_table_offset,
  2    41 	  record_head,
  2    42 	  record_tail,
  2    43 	  unused		(2)
  2    44 	  )		offset (output_file.area),
  2    45 	  2 next_uid        fixed bin (24) unsigned,
  2    46 	  2 version	fixed bin,
  2    47 	  2 n_records	fixed bin (17),
  2    48 	  2 area		area (261112);
  2    49
  2    50 dcl	1 input_record	based (recordp) aligned,
  2    51 	  2 next		offset (input_file.area),
  2    52 	  2 uid             fixed bin (24) unsigned unaligned,
  2    53 	  2 max_field_index fixed bin (12) unsigned unaligned,
  2    54 	  2 field		dim (0:field_table.max_field_index refer (input_record.max_field_index))
  2    55 			offset (input_file.area);
  2    56
  2    57 dcl	1 update_record	based aligned,
  2    58 	  2 next		offset (update_file.area),
  2    59 	  2 uid             fixed bin (24) unsigned unaligned,
  2    60 	  2 max_field_index fixed bin (12) unsigned unaligned,
  2    61 	  2 field		dim (0:field_table.max_field_index refer (update_record.max_field_index))
  2    62 			offset (update_file.area);
  2    63
  2    64 dcl	1 output_record	based aligned,
  2    65 	  2 next		offset (output_file.area),
  2    66 	  2 uid             fixed bin (24) unsigned unaligned,
  2    67 	  2 max_field_index fixed bin (12) unsigned unaligned,
  2    68 	  2 field		dim (0:field_table.max_field_index refer (output_record.max_field_index))
  2    69 			offset (output_file.area);
  2    70
  2    71 dcl	atom		char (atom_length) based (atomp) varying aligned,
  2    72 	atom_length	fixed bin initial (0),	/* for table option */
  2    73 	atomp		ptr;
  2    74
  2    75 dcl	(fidp, field_table_ptr, format_table_ptr, in_file_ptr, ltp, recordp, select_ptr, out_file_ptr, up_file_ptr)
  2    76 			ptr,
  2    77 	n		fixed bin;
  2    78
  2    79 dcl	1 field_table	based (field_table_ptr) aligned,
  2    80 	  2 record_delimiter
  2    81 			unal char (1),
  2    82 	  2 field_delimiter unal char (1),
  2    83 	  2 max_field_index unal fixed bin (17),
  2    84 	  2 hash_field_id_to_index
  2    85 			dimension (0:18) offset,
  2    86 	  2 index_to_field_id
  2    87 			dimension (0:n refer (field_table.max_field_index)) offset;
  2    88
  2    89 dcl	1 field_identifier	based (fidp) aligned,
  2    90 	  2 next		offset,
  2    91 	  2 field_index	unal fixed bin (17),
  2    92 	  2 size		unal fixed bin (17),
  2    93 	  2 string	unal char (n refer (field_identifier.size));
  2    94
  2    95 dcl	system_area	area (261120) based (area_ptr);
  2    96 dcl	area_ptr		ptr;
  2    97
  2    98 /* LISTFORM DECLARATIONS */
  2    99
  2   100 declare	(
  2   101 	PUT_LITERAL	initial (-1),
  2   102 	PUT_SPACES	initial (-2),
  2   103 	PUT_END		initial (-3),
  2   104 	PUT_DATE		initial (-4),
  2   105 	PUT_TIME		initial (-5),
  2   106 	PUT_RECORD_COUNT	initial (-6),
  2   107 	PUT_ARGUMENT	initial (-7),
  2   108 	PUT_UID             initial (-8)
  2   109 	)		fixed bin internal static;
  2   110
  2   111 dcl	1 format_table	aligned based (format_table_ptr),
  2   112 	  2 size		fixed bin (17) unal,
  2   113 	  2 before	fixed bin (17) unal,
  2   114 	  2 after		fixed bin (17) unal,
  2   115 	  2 record	fixed bin (17) unal,
  2   116 	  2 literal_table	ptr,
  2   117 	  2 item		dim (n refer (format_table.size)),
  2   118 	    3 action	fixed bin (17) unal,
  2   119 	    3 justification bit (2) unal,
  2   120 	    3 argument_number
  2   121 			fixed bin (15) unal,
  2   122 	    3 width	fixed bin (21);
  2   123
  2   124 dcl	1 literal_table	aligned based (ltp),
  2   125 	  2 size		fixed bin,		/* number of slots allocated */
  2   126 	  2 n_literals	fixed bin,		/* number of slots in use */
  2   127 	  2 literal	dim (n refer (literal_table.size)) ptr unal;
  2   128
  2   129 dcl	(
  2   130 	flush_left	initial ("00"b),
  2   131 	center		initial ("01"b),
  2   132 	flush_right	initial ("10"b)
  2   133 	)		bit (2) aligned internal static options (constant);
  2   134
  2   135 dcl	MIN_FIELD_INDEX	fixed bin initial (0) internal static options (constant);
  2   136
  2   137 dcl	1 list_node	aligned based,
  2   138 	  2 size		fixed bin,
  2   139 	  2 list		dimension (n refer (list_node.size)) ptr;
  2   140
  2   141 /* SELECT DECLARATIONS */
  2   142
  2   143 dcl	1 select_expression based (select_ptr) aligned,
  2   144 	  2 literal_table_ptr
  2   145 			ptr,
  2   146 	  2 size		fixed bin,
  2   147 	  2 last_element	fixed bin,
  2   148 	  2 element	dim (n refer (select_expression.size)),
  2   149 	    3 opcode	unal bit (9),
  2   150 	    3 not		unal bit (1),
  2   151 	    3 top		unal bit (1),
  2   152 	    3 unused	unal bit (7),
  2   153 	    3 field_index	unal fixed bin (8),
  2   154 	    3 literal_index unal fixed bin (8),
  2   155 	1 element		aligned,
  2   156 	  2 opcode	fixed bin,
  2   157 	  2 not		bit (1) aligned,
  2   158 	  2 top		bit (1) aligned,
  2   159 	  2 field_index	fixed bin,
  2   160 	  2 literal_index	fixed bin,
  2   161 	operand1		fixed bin defined (element.field_index),
  2   162 	operand2		fixed bin defined (element.literal_index);
  2   163
  2   164 dcl	(
  2   165 	SELECT_AND	init ("000000001"b),
  2   166 	SELECT_OR		init ("000000010"b),
  2   167 	SELECT_NOT	init ("000000011"b),
  2   168 	SELECT_FIND	init ("000000100"b),
  2   169 	SELECT_EQ		init ("000000101"b),
  2   170 	SELECT_LT		init ("000000110"b),
  2   171 	SELECT_GT		init ("000000111"b),
  2   172 	SELECT_LE		init ("000001000"b),
  2   173 	SELECT_GE		init ("000001001"b),
  2   174 	SELECT_NEQ	init ("000001010"b),
  2   175 	SELECT_NLT	init ("000001011"b),
  2   176 	SELECT_NGT	init ("000001100"b),
  2   177 	SELECT_NLE	init ("000001101"b),
  2   178 	SELECT_NGE	init ("000001110"b),
  2   179 	SELECT_BEG	init ("000001111"b),
  2   180 	SELECT_END	init ("000010000"b)
  2   181 	)		bit (9) aligned internal static;
  2   182
  2   183 dcl	(
  2   184 	ANY_FIELD		init (-1),
  2   185 	NULL_FIELD	init (-2),
  2   186 	NUMERIC_FIELD	init (-3),
  2   187 	UID                 init (-4)
  2   188 	)		aligned fixed bin (8) static;
  2   189
  2   190 dcl	1 numeric_atom	aligned based (atomp),
  2   191 	  2 flag		fixed bin (35),		/* must be -1 */
  2   192 	  2 value		float dec (29) unal;
  2   193
  2   194 dcl	numeric_flag	fixed bin (35) internal static initial (-1) options (constant);
  2   195
  2   196 /* SORT DECLARATIONS */
  2   197
  2   198 declare	n_items_to_sort	fixed bin,
  2   199 	sort_list_ptr	ptr;
  2   200
  2   201 declare	1 sort_list	aligned based (sort_list_ptr),
  2   202 	  2 n_keys	fixed bin,
  2   203 	  2 key		(n_items_to_sort refer (sort_list.n_keys)),
  2   204 	    3 field_index	fixed bin,
  2   205 	    3 ascending	bit (1) aligned,
  2   206 	    3 numeric	bit (1) aligned;
  2   207
  2   208 /* MERGE DECLARATIONS */
  2   209
  2   210 dcl	(
  2   211 	MERGE_ADD		init (0),
  2   212 	MERGE_AND		init (1),
  2   213 	MERGE_OR		init (2),
  2   214 	MERGE_SUBTRACT	init (3)
  2   215 	)		fixed bin internal static options (constant);
  2   216
  2   217 /* ------ END INCLUDE FILE		lister_structures.incl.pl1 -------------------------------- */
       45
       46 
       47 /* program */
       48
       49 	in_file_ptr = bv_in_file_ptr;
       50 	out_file_ptr = bv_out_file_ptr;
       51 	listp = bv_list_ptr;
       52
       53 /* If no list is given, copy whole input file to output file.
       54*   Otherwise, just copy records specified in list */
       55
       56 	if listp = null
       57 	then do recordp = input_file.record_head repeat (input_record.next) while (recordp ^= null);
       58 	     call copy_record;
       59 	end;
       60 	else do listx = lbound (listp -> list_node.list, 1) to hbound (listp -> list_node.list, 1);
       61 	     recordp = listp -> list_node.list (listx);
       62 	     call copy_record;
       63 	end;
       64
       65 	return;
       66
       67 /* Internal procedure to copy the record pointed to by "recordp" from
       68*   the input file to the output file. */
       69
       70 copy_record:
       71 	procedure;
       72
       73 /* automatic */
       74
       75 dcl (to_recordp, to_atomp)
       76      ptr,
       77      fieldx fixed bin;
       78
       79 	     to_recordp = lister_create_record_ (out_file_ptr);
       80
       81 	     do fieldx = lbound (input_record.field, 1) to hbound (input_record.field, 1);
       82 		atomp = input_record.field (fieldx);	/* pick up old field value */
       83 		if atomp ^= null
       84 		then do;
       85 		     atom_length = length (atom);	/* get length of old field */
       86 		     allocate atom in (output_file.area) set (to_atomp);
       87 		     to_atomp -> atom = atom;		/* copy field */
       88 		     to_recordp -> output_record.field (fieldx) = to_atomp;
       89 		end;
       90 	     end;
       91
       92 	end copy_record;
       93
       94      end;
	SOURCE FILES USED IN THIS COMPILATION.

LINE      NUMBER  DATE MODIFIED     NAME			PATHNAME
             0    11/05/84  1151.5  lister_copy_records_.pl1          >special_ldd>online>6883-11/02/84>lister_copy_records_.pl1
44           1    04/25/81  0728.4  lister_entries.incl.pl1           >ldd>include>lister_entries.incl.pl1
45           2    11/02/84  1208.5  lister_structures.incl.pl1        >special_ldd>online>6883-11/02/84>lister_structures.incl.pl1
	NAMES DECLARED IN THIS COMPILATION.

IDENTIFIER	     OFFSET    LOC STORAGE CLASS   DATA TYPE		ATTRIBUTES AND REFERENCES
								(* indicates a set context)

NAMES DECLARED BY DECLARE STATEMENT.
area                     10            based           area(261112)             level 2 in structure "output_file" dcl 2-38
                                                                                  in procedure "lister_copy_records_" ref 86 88
area                     10            based           area(261112)             level 2 in structure "input_file" dcl 2-14
                                                                                  in procedure "lister_copy_records_" ref 56 59 82
atom                                   based           varying char             dcl 2-71 set ref 85 86 87* 87
atom_length                     000103 automatic       fixed bin(17,0)          initial dcl 2-71 set ref 2-71* 85* 86 87
atomp                           000104 automatic       pointer                  dcl 2-71 set ref 82* 83 85 87
bv_in_file_ptr                         parameter       pointer                  dcl 29 ref 24 49
bv_list_ptr                            parameter       pointer                  dcl 29 ref 24 51
bv_out_file_ptr                        parameter       pointer                  dcl 29 ref 24 50
field                     2            based           offset                   array level 2 in structure "input_record" dcl 2-50
                                                                                  in procedure "lister_copy_records_" ref 81 81 82
field                     2            based           offset                   array level 2 in structure "output_record" dcl 2-64
                                                                                  in procedure "lister_copy_records_" set ref 88*
fieldx                          000130 automatic       fixed bin(17,0)          dcl 75 set ref 81* 82 88*
hbound                                                 builtin function         dcl 39 ref 60 81
in_file_ptr                     000106 automatic       pointer                  dcl 2-75 set ref 49* 56 56 59 82
input_file                             based           structure                level 1 dcl 2-14
input_record                           based           structure                level 1 dcl 2-50
lbound                                                 builtin function         dcl 39 ref 60 81
length                                                 builtin function         dcl 39 ref 85
list                      2            based           pointer                  array level 2 dcl 2-137 ref 60 60 61
list_node                              based           structure                level 1 dcl 2-137
lister_create_record_           000010 constant        entry                    external dcl 1-70 ref 79
listp                           000100 automatic       pointer                  dcl 34 set ref 51* 56 60 60 61
listx                           000102 automatic       fixed bin(17,0)          dcl 34 set ref 60* 61*
max_field_index           1(24)        based           fixed bin(12,0)          level 2 packed unsigned unaligned dcl 2-50 ref 81
next                                   based           offset                   level 2 dcl 2-50 ref 59
null                                                   builtin function         dcl 39 ref 56 56 83
out_file_ptr                    000112 automatic       pointer                  dcl 2-75 set ref 50* 79* 86 88
output_file                            based           structure                level 1 dcl 2-38
output_record                          based           structure                level 1 dcl 2-64
record_head               1            based           offset                   level 2 dcl 2-14 ref 56
recordp                         000110 automatic       pointer                  dcl 2-75 set ref 56* 56* 59 61* 81 81 82
size                                   based           fixed bin(17,0)          level 2 dcl 2-137 ref 60
to_atomp                        000126 automatic       pointer                  dcl 75 set ref 86* 87 88
to_recordp                      000124 automatic       pointer                  dcl 75 set ref 79* 88

NAMES DECLARED BY DECLARE STATEMENT AND NEVER REFERENCED.
ANY_FIELD                              internal static fixed bin(8,0)           initial dcl 2-183
MERGE_ADD                              internal static fixed bin(17,0)          initial dcl 2-210
MERGE_AND                              internal static fixed bin(17,0)          initial dcl 2-210
MERGE_OR                               internal static fixed bin(17,0)          initial dcl 2-210
MERGE_SUBTRACT                         internal static fixed bin(17,0)          initial dcl 2-210
MIN_FIELD_INDEX                        internal static fixed bin(17,0)          initial dcl 2-135
NULL_FIELD                             internal static fixed bin(8,0)           initial dcl 2-183
NUMERIC_FIELD                          internal static fixed bin(8,0)           initial dcl 2-183
PUT_ARGUMENT                           internal static fixed bin(17,0)          initial dcl 2-100
PUT_DATE                               internal static fixed bin(17,0)          initial dcl 2-100
PUT_END                                internal static fixed bin(17,0)          initial dcl 2-100
PUT_LITERAL                            internal static fixed bin(17,0)          initial dcl 2-100
PUT_RECORD_COUNT                       internal static fixed bin(17,0)          initial dcl 2-100
PUT_SPACES                             internal static fixed bin(17,0)          initial dcl 2-100
PUT_TIME                               internal static fixed bin(17,0)          initial dcl 2-100
PUT_UID                                internal static fixed bin(17,0)          initial dcl 2-100
SELECT_AND                             internal static bit(9)                   initial dcl 2-164
SELECT_BEG                             internal static bit(9)                   initial dcl 2-164
SELECT_END                             internal static bit(9)                   initial dcl 2-164
SELECT_EQ                              internal static bit(9)                   initial dcl 2-164
SELECT_FIND                            internal static bit(9)                   initial dcl 2-164
SELECT_GE                              internal static bit(9)                   initial dcl 2-164
SELECT_GT                              internal static bit(9)                   initial dcl 2-164
SELECT_LE                              internal static bit(9)                   initial dcl 2-164
SELECT_LT                              internal static bit(9)                   initial dcl 2-164
SELECT_NEQ                             internal static bit(9)                   initial dcl 2-164
SELECT_NGE                             internal static bit(9)                   initial dcl 2-164
SELECT_NGT                             internal static bit(9)                   initial dcl 2-164
SELECT_NLE                             internal static bit(9)                   initial dcl 2-164
SELECT_NLT                             internal static bit(9)                   initial dcl 2-164
SELECT_NOT                             internal static bit(9)                   initial dcl 2-164
SELECT_OR                              internal static bit(9)                   initial dcl 2-164
UID                                    internal static fixed bin(8,0)           initial dcl 2-183
area_ptr                               automatic       pointer                  dcl 2-96
center                                 internal static bit(2)                   initial dcl 2-129
element                                automatic       structure                level 1 dcl 2-143
fidp                                   automatic       pointer                  dcl 2-75
field_identifier                       based           structure                level 1 dcl 2-89
field_table                            based           structure                level 1 dcl 2-79
field_table_ptr                        automatic       pointer                  dcl 2-75
flush_left                             internal static bit(2)                   initial dcl 2-129
flush_right                            internal static bit(2)                   initial dcl 2-129
format_table                           based           structure                level 1 dcl 2-111
format_table_ptr                       automatic       pointer                  dcl 2-75
lister_assign_                  000000 constant        entry                    external dcl 1-13
lister_compare_field_tables_    000000 constant        entry                    external dcl 1-63
lister_compile_listin_          000000 constant        entry                    external dcl 1-20
lister_compile_select_          000000 constant        entry                    external dcl 1-30
lister_compile_sort_            000000 constant        entry                    external dcl 1-39
lister_convert_                 000000 constant        entry                    external dcl 1-48
lister_copy_file_head_          000000 constant        entry                    external dcl 1-52
lister_copy_records_            000000 constant        entry                    external dcl 1-57
lister_create_record_$after     000000 constant        entry                    external dcl 1-76
lister_create_record_$retain_uid
                                000000 constant        entry                    external dcl 1-83
lister_delete_                  000000 constant        entry                    external dcl 1-90
lister_expand_                  000000 constant        entry                    external dcl 1-95
lister_file_version_2                  internal static fixed bin(17,0)          initial dcl 2-11
lister_format_parse_            000000 constant        entry                    external dcl 1-119
lister_hash_fid_                000000 constant        entry                    external dcl 1-105
lister_hash_fid_$enter          000000 constant        entry                    external dcl 1-112
lister_merge_                   000000 constant        entry                    external dcl 1-128
lister_print_                   000000 constant        entry                    external dcl 1-139
lister_select_                  000000 constant        entry                    external dcl 1-154
lister_sort_                    000000 constant        entry                    external dcl 1-162
lister_status_                  000000 constant        entry                    external dcl 1-167
literal_table                          based           structure                level 1 dcl 2-124
ltp                                    automatic       pointer                  dcl 2-75
n                                      automatic       fixed bin(17,0)          dcl 2-75
n_items_to_sort                        automatic       fixed bin(17,0)          dcl 2-198
numeric_atom                           based           structure                level 1 dcl 2-190
numeric_flag                           internal static fixed bin(35,0)          initial dcl 2-194
operand1                               defined         fixed bin(17,0)          dcl 2-143
operand2                               defined         fixed bin(17,0)          dcl 2-143
select_expression                      based           structure                level 1 dcl 2-143
select_ptr                             automatic       pointer                  dcl 2-75
sort_list                              based           structure                level 1 dcl 2-201
sort_list_ptr                          automatic       pointer                  dcl 2-198
system_area                            based           area(261120)             dcl 2-95
up_file_ptr                            automatic       pointer                  dcl 2-75
update_file                            based           structure                level 1 dcl 2-26
update_record                          based           structure                level 1 dcl 2-57

NAMES DECLARED BY EXPLICIT CONTEXT.
copy_record                     000101 constant        entry                    internal dcl 70 ref 58 62
lister_copy_records_            000016 constant        entry                    external dcl 24

THERE WERE NO NAMES DECLARED BY CONTEXT OR IMPLICATION.

STORAGE REQUIREMENTS FOR THIS PROGRAM.

	Object	Text	Link	Symbol	Defs	Static
Start          0       0       232         244     172         242
Length       456     172        12         175      40           0

BLOCK NAME	         STACK SIZE     TYPE		WHY NONQUICK/WHO SHARES STACK FRAME
lister_copy_records_                 96 external procedure  is an external procedure.
copy_record                             internal procedure  shares stack frame of external procedure lister_copy_records_.

STORAGE FOR AUTOMATIC VARIABLES.

STACK FRAME                 LOC IDENTIFIER                  BLOCK NAME
lister_copy_records_     000100 listp                       lister_copy_records_
                         000102 listx                       lister_copy_records_
                         000103 atom_length                 lister_copy_records_
                         000104 atomp                       lister_copy_records_
                         000106 in_file_ptr                 lister_copy_records_
                         000110 recordp                     lister_copy_records_
                         000112 out_file_ptr                lister_copy_records_
                         000124 to_recordp                  copy_record
                         000126 to_atomp                    copy_record
                         000130 fieldx                      copy_record

THE FOLLOWING EXTERNAL OPERATORS ARE USED BY THIS PROGRAM.
call_ext_out        return              ext_entry           pointer_hard        offset_hard         alloc_based

THE FOLLOWING EXTERNAL ENTRIES ARE CALLED BY THIS PROGRAM.
lister_create_record_

NO EXTERNAL VARIABLES ARE USED BY THIS PROGRAM.


   LINE    LOC      LINE    LOC      LINE    LOC      LINE    LOC      LINE    LOC      LINE    LOC      LINE    LOC
     24 000012    2   71 000023        49 000024        50 000030        51 000033        56 000036        58 000052
     59 000053        60 000062        61 000071        62 000075        63 000076        65 000100        70 000101
     79 000102        81 000113        82 000123        83 000131        85 000134        86 000136        87 000147
     88 000160        90 000167        92 000171


                                          -----------------------------------------------------------


Historical Background

This edition of the Multics software materials and documentation is provided and donated
to Massachusetts Institute of Technology by Group BULL including BULL HN Information Systems Inc.
as a contribution to computer science knowledge.
This donation is made also to give evidence of the common contributions of Massachusetts Institute of Technology,
Bell Laboratories, General Electric, Honeywell Information Systems Inc., Honeywell BULL Inc., Groupe BULL
and BULL HN Information Systems Inc. to the development of this operating system.
Multics development was initiated by Massachusetts Institute of Technology Project MAC (1963-1970),
renamed the MIT Laboratory for Computer Science and Artificial Intelligence in the mid 1970s, under the leadership
of Professor Fernando Jose Corbato. Users consider that Multics provided the best software architecture
for managing computer hardware properly and for executing programs. Many subsequent operating systems
incorporated Multics principles.
Multics was distributed in 1975 to 2000 by Group Bull in Europe , and in the U.S. by Bull HN Information Systems Inc.,
as successor in interest by change in name only to Honeywell Bull Inc. and Honeywell Information Systems Inc. .

                                          -----------------------------------------------------------

Permission to use, copy, modify, and distribute these programs and their documentation for any purpose and without
fee is hereby granted,provided that the below copyright notice and historical background appear in all copies
and that both the copyright notice and historical background and this permission notice appear in supporting
documentation, and that the names of MIT, HIS, BULL or BULL HN not be used in advertising or publicity pertaining
to distribution of the programs without specific prior written permission.
    Copyright 1972 by Massachusetts Institute of Technology and Honeywell Information Systems Inc.
    Copyright 2006 by BULL HN Information Systems Inc.
    Copyright 2006 by Bull SAS
    All Rights Reserved
