ASSEMBLY LISTING OF SEGMENT >spec>on>11/11/82>merge_.alm
ASSEMBLED ON:	11/11/82  1039.9 mst Thu
OPTIONS USED:	list
ASSEMBLED BY:	ALM Version  6.4  April 1981
ASSEMBLER CREATED:	11/03/82  1423.6 mst Wed

                                     1  " ***********************************************************
                                     2  " *                                                         *
                                     3  " * Copyright, (C) Honeywell Information Systems Inc., 1982 *
                                     4  " *                                                         *
                                     5  " * Copyright (c) 1972 by Massachusetts Institute of        *
                                     6  " * Technology and Honeywell Information Systems, Inc.      *
                                     7  " *                                                         *
                                     8  " ***********************************************************
    000000                           9  	name merge_
                                    10
                                    11  "macro which generates a call to an external entry point in sort_merge_
                                    12
                                    13  	macro	ext_transfer
                              1     14  	segdef	&1
                              2     15  &1:	getlp
                              3     16  	tra	&2
                              4     17
                              5     18  	&end
                                    19
                                    20  	ext_transfer	merge_,merge_merge$merge_merge
                        000000          	segdef	merge_
    000000  aa  7 00046 2721 20         merge_:	getlp
    000001  4a  4 00010 7101 20         	tra	merge_merge$merge_merge

                                    21  	ext_transfer	merge_private,merge_merge$merge_private
                        000002          	segdef	merge_private
    000002  aa  7 00046 2721 20         merge_private:	getlp
    000003  4a  4 00012 7101 20         	tra	merge_merge$merge_private

                                    22  	ext_transfer	noexit,sort_merge_subroutine$noexit
                        000004          	segdef	noexit
    000004  aa  7 00046 2721 20         noexit:	getlp
    000005  4a  4 00014 7101 20         	tra	sort_merge_subroutine$noexit

                                    23
                                    24  	end merge_

NO LITERALS

NAME DEFINITIONS FOR ENTRY POINTS AND SEGDEFS

    000006  5a   000003 000000
    000007  5a   000040 600000
    000010  aa   000000 000000
    000011  55   000010 000002
    000012  5a   000002 400003
    000013  55   000006 000010
    000014  aa  006 155 145 162
    000015  aa  147 145 137 000
    000016  55   000015 000003
    000017  0a   000004 400000
    000020  55   000013 000003
    000021  aa  006 156 157 145         noexit
    000022  aa  170 151 164 000
    000023  55   000024 000010
    000024  0a   000002 400000
    000025  55   000020 000003
    000026  aa  015 155 145 162         merge_private
    000027  aa  147 145 137 160
    000030  aa  162 151 166 141
    000031  aa  164 145 000 000
    000032  55   000031 000015
    000033  0a   000000 400000
    000034  55   000027 000003
    000035  aa  006 155 145 162         merge_
    000036  aa  147 145 137 000
    000037  55   000002 000024
    000040  6a   000000 400002
    000041  55   000034 000003
    000042  aa  014 163 171 155         symbol_table
    000043  aa  142 157 154 137
    000044  aa  164 141 142 154
    000045  aa  145 000 000 000

DEFINITIONS HASH TABLE

    000046  aa   000000 000015
    000047  aa   000000 000000
    000050  aa   000000 000000
    000051  aa   000000 000000
    000052  5a   000015 000000
    000053  aa   000000 000000
    000054  aa   000000 000000
    000055  5a   000031 000000
    000056  aa   000000 000000
    000057  aa   000000 000000
    000060  5a   000010 000000
    000061  aa   000000 000000
    000062  aa   000000 000000
    000063  5a   000024 000000

EXTERNAL NAMES

    000064  aa  025 163 157 162         sort_merge_subroutine
    000065  aa  164 137 155 145
    000066  aa  162 147 145 137
    000067  aa  163 165 142 162
    000070  aa  157 165 164 151
    000071  aa  156 145 000 000
    000072  aa  013 155 145 162         merge_merge
    000073  aa  147 145 137 155
    000074  aa  145 162 147 145

NO TRAP POINTER WORDS

TYPE PAIR BLOCKS

    000075  aa   000004 000000
    000076  55   000056 000013
    000077  aa   000004 000000
    000100  55   000064 000020
    000101  aa   000004 000000
    000102  55   000064 000064
    000103  aa   000001 000000
    000104  aa   000000 000000

INTERNAL EXPRESSION WORDS

    000105  5a   000067 000000
    000106  5a   000071 000000
    000107  5a   000073 000000
LINKAGE INFORMATION

    000000  aa   000000 000000
    000001  0a   000006 000000
    000002  aa   000000 000000
    000003  aa   000000 000000
    000004  aa   000000 000000
    000005  aa   000000 000000
    000006  22   000010 000016
    000007  a2   000000 000000
    000010  9a   777770 0000 46         merge_merge|merge_merge
    000011  5a   000101 0000 00
    000012  9a   777766 0000 46         merge_merge|merge_private
    000013  5a   000100 0000 00
    000014  9a   777764 0000 46         sort_merge_subroutine|noexit
    000015  5a   000077 0000 00
SYMBOL INFORMATION

SYMBOL TABLE HEADER

    000000  aa   000000 000001
    000001  aa   163171 155142
    000002  aa   164162 145145
    000003  aa   000000 000004
    000004  aa   000000 111316
    000005  aa   510113 575622
    000006  aa   000000 111330
    000007  aa   401777 607250
    000010  aa   141154 155040
    000011  aa   040040 040040
    000012  aa   000024 000040
    000013  aa   000034 000040
    000014  aa   000044 000100
    000015  aa   000002 000002
    000016  aa   000064 000000
    000017  aa   000000 000116
    000020  aa   000000 000101
    000021  aa   000000 000104
    000022  aa   000110 000101
    000023  aa   000064 000000
    000024  aa   101114 115040
    000025  aa   126145 162163
    000026  aa   151157 156040
    000027  aa   040066 056064
    000030  aa   040040 101160
    000031  aa   162151 154040
    000032  aa   061071 070061
    000033  aa   040040 040040
    000034  aa   110157 154155
    000035  aa   163164 145144
    000036  aa   164056 123171
    000037  aa   163115 141151
    000040  aa   156164 056155
    000041  aa   040040 040040
    000042  aa   040040 040040
    000043  aa   040040 040040
    000044  aa   154151 163164
    000045  aa   040040 040040
    000046  aa   040040 040040
    000047  aa   040040 040040
    000050  aa   040040 040040
    000051  aa   040040 040040
    000052  aa   040040 040040
    000053  aa   040040 040040
    000054  aa   040040 040040
    000055  aa   040040 040040
    000056  aa   040040 040040
    000057  aa   040040 040040
    000060  aa   040040 040040
    000061  aa   040040 040040
    000062  aa   040040 040040
    000063  aa   040040 040040
    000064  aa   000000 000001
    000065  aa   000000 000001
    000066  aa   000072 000034
    000067  aa   113225 112221
    000070  aa   000000 111330
    000071  aa   375543 400000
    000072  aa   076163 160145          >spec>on>11/11/82>merge_.alm
    000073  aa   143076 157156
    000074  aa   076061 061057
    000075  aa   061061 057070
    000076  aa   062076 155145
    000077  aa   162147 145137
    000100  aa   056141 154155
               MULTICS ASSEMBLY CROSS REFERENCE LISTING

   Value        Symbol                   Source file   Line number

           0    merge_                   merge_:        20.
                merge_merge              merge_:        20,   21.
           2    merge_private            merge_:        21.
           4    noexit                   merge_:        22.
                sort_merge_subroutine    merge_:        22.


NO FATAL ERRORS


                                          -----------------------------------------------------------


Historical Background

This edition of the Multics software materials and documentation is provided and donated
to Massachusetts Institute of Technology by Group BULL including BULL HN Information Systems Inc.
as a contribution to computer science knowledge.
This donation is made also to give evidence of the common contributions of Massachusetts Institute of Technology,
Bell Laboratories, General Electric, Honeywell Information Systems Inc., Honeywell BULL Inc., Groupe BULL
and BULL HN Information Systems Inc. to the development of this operating system.
Multics development was initiated by Massachusetts Institute of Technology Project MAC (1963-1970),
renamed the MIT Laboratory for Computer Science and Artificial Intelligence in the mid 1970s, under the leadership
of Professor Fernando Jose Corbato. Users consider that Multics provided the best software architecture
for managing computer hardware properly and for executing programs. Many subsequent operating systems
incorporated Multics principles.
Multics was distributed in 1975 to 2000 by Group Bull in Europe , and in the U.S. by Bull HN Information Systems Inc.,
as successor in interest by change in name only to Honeywell Bull Inc. and Honeywell Information Systems Inc. .

                                          -----------------------------------------------------------

Permission to use, copy, modify, and distribute these programs and their documentation for any purpose and without
fee is hereby granted,provided that the below copyright notice and historical background appear in all copies
and that both the copyright notice and historical background and this permission notice appear in supporting
documentation, and that the names of MIT, HIS, BULL or BULL HN not be used in advertising or publicity pertaining
to distribution of the programs without specific prior written permission.
    Copyright 1972 by Massachusetts Institute of Technology and Honeywell Information Systems Inc.
    Copyright 2006 by BULL HN Information Systems Inc.
    Copyright 2006 by Bull SAS
    All Rights Reserved
