ASSEMBLY LISTING OF SEGMENT >special_ldd>online>mrds.pbf-04/18/85>mrds_rst_parse_table.alm
ASSEMBLED ON:	04/18/85  1003.5 mst Thu
OPTIONS USED:	list
ASSEMBLED BY:	ALM Version  6.6  November 1982
ASSEMBLER CREATED:	09/21/83  1227.3 mst Wed

                                     1  " ***********************************************************
                                     2  " *                                                         *
                                     3  " * Copyright, (C) Honeywell Information Systems Inc., 1982 *
                                     4  " *                                                         *
                                     5  " ***********************************************************
                        000000       6  	equ	STRD,0
                        000001       7  	equ	LOOK,1
                        000002       8  	equ	STRDS,2
                        000003       9  	equ	LOOKS,3
                        000004      10  	equ	APLY,4
                        000005      11  	equ	APLY1,5
                        000006      12  	equ	APLYS,6
                        000007      13  	equ	SKIP,7
                        000010      14  	equ	ADJUST,8
                        000011      15  	equ	NSRD,9
                        000012      16  	equ	NSRDS,10
                        000000      17  	equ	T0,0
                        000000      18  	equ	ST0,0
                                    19  "
                                    20  "
                                    21  " DPDA table
    000000  aa   000000 001302      22  DPDA:	zero	0,DPDAs
                        000000      23  	segdef	DPDA
                                    24  "
                                    25  " STATE 1
                        000001      26  	equ	ST1,*-DPDA
    000001  aa   000000 000001      27  	zero	STRD,LN1
    000002  aa   000015 000015      28  	zero	13,ST13	"<domain>
                        000001      29  	equ	LN1,*-DPDA-ST1-1
                                    30  "
                                    31  " STATE 3
                        000003      32  	equ	ST3,*-DPDA
    000003  aa   000011 000004      33  	zero	NSRD,LN3
    000004  aa   000000 776672      34  	zero	0,-ST582	"EOI
    000005  aa   000016 776674      35  	zero	14,-ST580	"<attribute>
    000006  aa   000017 776672      36  	zero	15,-ST582	"<relation>
    000007  aa   000020 776672      37  	zero	16,-ST582	"<index>
                        000004      38  	equ	LN3,*-DPDA-ST3-1
                                    39  "
                                    40  " STATE 8
                        000010      41  	equ	ST8,*-DPDA
    000010  aa   000000 000002      42  	zero	STRD,LN8
    000011  aa   000004 000062      43  	zero	4,ST50	"<semicolon>
    000012  aa   777764 000066      44  	zero	-12,ST54	"<identifier>
                        000002      45  	equ	LN8,*-DPDA-ST8-1
                                    46  "
                                    47  " STATE 11
                        000013      48  	equ	ST11,*-DPDA
    000013  aa   000000 000001      49  	zero	STRD,LN11
    000014  aa   000000 000000      50  	zero	0,ST0	"EOI
                        000001      51  	equ	LN11,*-DPDA-ST11-1
                                    52  "
                                    53  " STATE 13
                        000015      54  	equ	ST13,*-DPDA
    000015  aa   000000 000001      55  	zero	STRD,LN13
    000016  aa   000005 000072      56  	zero	5,ST58	"<colon>
                        000001      57  	equ	LN13,*-DPDA-ST13-1
                                    58  "
                                    59  " STATE 15
                        000017      60  	equ	ST15,*-DPDA
    000017  aa   000011 000003      61  	zero	NSRD,LN15
    000020  aa   000000 776652      62  	zero	0,-ST598	"EOI
    000021  aa   000017 776654      63  	zero	15,-ST596	"<relation>
    000022  aa   000020 776652      64  	zero	16,-ST598	"<index>
                        000003      65  	equ	LN15,*-DPDA-ST15-1
                                    66  "
                                    67  " STATE 19
                        000023      68  	equ	ST19,*-DPDA
    000023  aa   000000 000002      69  	zero	STRD,LN19
    000024  aa   000004 000121      70  	zero	4,ST81	"<semicolon>
    000025  aa   777764 000125      71  	zero	-12,ST85	"<identifier>
                        000002      72  	equ	LN19,*-DPDA-ST19-1
                                    73  "
                                    74  " STATE 22
                        000026      75  	equ	ST22,*-DPDA
    000026  aa   000005 000003      76  	zero	APLY1,LN22
    000027  aa   000000 000000      77  	zero	0,0   pd ld
    000030  aa   000101 000001      78  	zero	65,1   rule/alt
    000031  aa   000037 000017      79  	zero	31,ST15 prod/val
                        000003      80  	equ	LN22,*-DPDA-ST22-1
                                    81  "
                                    82  " STATE 26
                        000032      83  	equ	ST26,*-DPDA
    000032  aa   000000 000001      84  	zero	STRD,LN26
    000033  aa   000005 000127      85  	zero	5,ST87	"<colon>
                        000001      86  	equ	LN26,*-DPDA-ST26-1
                                    87  "
                                    88  " STATE 28
                        000034      89  	equ	ST28,*-DPDA
    000034  aa   000000 000016      90  	zero	STRD,LN28
    000035  aa   000001 000207      91  	zero	1,ST135	"<left_parenthesis>
    000036  aa   000021 000211      92  	zero	17,ST137	"<real>
    000037  aa   000022 000215      93  	zero	18,ST141	"<complex>
    000040  aa   000023 000221      94  	zero	19,ST145	"<fixed>
    000041  aa   000024 000225      95  	zero	20,ST149	"<float>
    000042  aa   000025 000231      96  	zero	21,ST153	"<binary>
    000043  aa   000026 000235      97  	zero	22,ST157	"<decimal>
    000044  aa   000027 000241      98  	zero	23,ST161	"<precision>
    000045  aa   000030 000243      99  	zero	24,ST163	"<char>
    000046  aa   000031 000254     100  	zero	25,ST172	"<bit>
    000047  aa   000032 000265     101  	zero	26,ST181	"<varying>
    000050  aa   000033 000270     102  	zero	27,ST184	"<nonvarying>
    000051  aa   000034 000273     103  	zero	28,ST187	"<aligned>
    000052  aa   000035 000302     104  	zero	29,ST194	"<unaligned>
                        000016     105  	equ	LN28,*-DPDA-ST28-1
                                   106  "
                                   107  " STATE 43
                        000053     108  	equ	ST43,*-DPDA
    000053  aa   000005 000003     109  	zero	APLY1,LN43
    000054  aa   000000 000000     110  	zero	0,0   pd ld
    000055  aa   000010 000001     111  	zero	8,1   rule/alt
    000056  aa   000010 000057     112  	zero	8,ST47 prod/val
                        000003     113  	equ	LN43,*-DPDA-ST43-1
                                   114  "
                                   115  " STATE 47
                        000057     116  	equ	ST47,*-DPDA
    000057  aa   000000 000002     117  	zero	STRD,LN47
    000060  aa   000003 000306     118  	zero	3,ST198	"<comma>
    000061  aa   000004 000310     119  	zero	4,ST200	"<semicolon>
                        000002     120  	equ	LN47,*-DPDA-ST47-1
                                   121  "
                                   122  " STATE 50
                        000062     123  	equ	ST50,*-DPDA
    000062  aa   000005 000003     124  	zero	APLY1,LN50
    000063  aa   000001 000001     125  	zero	1,1   pd ld
    000064  aa   000007 000001     126  	zero	7,1   rule/alt
    000065  aa   000007 000003     127  	zero	7,ST3 prod/val
                        000003     128  	equ	LN50,*-DPDA-ST50-1
                                   129  "
                                   130  " STATE 54
                        000066     131  	equ	ST54,*-DPDA
    000066  aa   000005 000003     132  	zero	APLY1,LN54
    000067  aa   000000 000000     133  	zero	0,0   pd ld
    000070  aa   000013 000001     134  	zero	11,1   rule/alt
    000071  aa   000012 000034     135  	zero	10,ST28 prod/val
                        000003     136  	equ	LN54,*-DPDA-ST54-1
                                   137  "
                                   138  " STATE 58
                        000072     139  	equ	ST58,*-DPDA
    000072  aa   000005 000003     140  	zero	APLY1,LN58
    000073  aa   000001 000001     141  	zero	1,1   pd ld
    000074  aa   000003 000001     142  	zero	3,1   rule/alt
    000075  aa   000003 000010     143  	zero	3,ST8 prod/val
                        000003     144  	equ	LN58,*-DPDA-ST58-1
                                   145  "
                                   146  " STATE 62
                        000076     147  	equ	ST62,*-DPDA
    000076  aa   000011 000002     148  	zero	NSRD,LN62
    000077  aa   000000 776644     149  	zero	0,-ST604	"EOI
    000100  aa   000020 776646     150  	zero	16,-ST602	"<index>
                        000002     151  	equ	LN62,*-DPDA-ST62-1
                                   152  "
                                   153  " STATE 65
                        000101     154  	equ	ST65,*-DPDA
    000101  aa   000000 000002     155  	zero	STRD,LN65
    000102  aa   000004 000342     156  	zero	4,ST226	"<semicolon>
    000103  aa   777764 000346     157  	zero	-12,ST230	"<identifier>
                        000002     158  	equ	LN65,*-DPDA-ST65-1
                                   159  "
                                   160  " STATE 68
                        000104     161  	equ	ST68,*-DPDA
    000104  aa   000005 000003     162  	zero	APLY1,LN68
    000105  aa   000000 000000     163  	zero	0,0   pd ld
    000106  aa   000106 000001     164  	zero	70,1   rule/alt
    000107  aa   000042 000076     165  	zero	34,ST62 prod/val
                        000003     166  	equ	LN68,*-DPDA-ST68-1
                                   167  "
                                   168  " STATE 72
                        000110     169  	equ	ST72,*-DPDA
    000110  aa   000000 000001     170  	zero	STRD,LN72
    000111  aa   000005 000352     171  	zero	5,ST234	"<colon>
                        000001     172  	equ	LN72,*-DPDA-ST72-1
                                   173  "
                                   174  " STATE 74
                        000112     175  	equ	ST74,*-DPDA
    000112  aa   000005 000003     176  	zero	APLY1,LN74
    000113  aa   000000 000000     177  	zero	0,0   pd ld
    000114  aa   000102 000001     178  	zero	66,1   rule/alt
    000115  aa   000040 000116     179  	zero	32,ST78 prod/val
                        000003     180  	equ	LN74,*-DPDA-ST74-1
                                   181  "
                                   182  " STATE 78
                        000116     183  	equ	ST78,*-DPDA
    000116  aa   000000 000002     184  	zero	STRD,LN78
    000117  aa   000003 000356     185  	zero	3,ST238	"<comma>
    000120  aa   000004 000360     186  	zero	4,ST240	"<semicolon>
                        000002     187  	equ	LN78,*-DPDA-ST78-1
                                   188  "
                                   189  " STATE 81
                        000121     190  	equ	ST81,*-DPDA
    000121  aa   000005 000003     191  	zero	APLY1,LN81
    000122  aa   000001 000001     192  	zero	1,1   pd ld
    000123  aa   000101 000002     193  	zero	65,2   rule/alt
    000124  aa   000037 000017     194  	zero	31,ST15 prod/val
                        000003     195  	equ	LN81,*-DPDA-ST81-1
                                   196  "
                                   197  " STATE 85
                        000125     198  	equ	ST85,*-DPDA
    000125  aa   000000 000001     199  	zero	STRD,LN85
    000126  aa   777764 000364     200  	zero	-12,ST244	"<identifier>
                        000001     201  	equ	LN85,*-DPDA-ST85-1
                                   202  "
                                   203  " STATE 87
                        000127     204  	equ	ST87,*-DPDA
    000127  aa   000005 000003     205  	zero	APLY1,LN87
    000130  aa   000001 000001     206  	zero	1,1   pd ld
    000131  aa   000004 000001     207  	zero	4,1   rule/alt
    000132  aa   000004 000023     208  	zero	4,ST19 prod/val
                        000003     209  	equ	LN87,*-DPDA-ST87-1
                                   210  "
                                   211  " STATE 91
                        000133     212  	equ	ST91,*-DPDA
    000133  aa   000004 000004     213  	zero	APLY,LN91
    000134  aa   000000 000000     214  	zero	0,0   pd ld
    000135  aa   000015 000001     215  	zero	13,1   rule/alt
    000136  aa   000013 000203     216  	zero	11,ST131 prod/val
    000137  aa   000412 000647     217  	zero	ST266,ST423
                        000004     218  	equ	LN91,*-DPDA-ST91-1
                                   219  "
                                   220  " STATE 96
                        000140     221  	equ	ST96,*-DPDA
    000140  aa   000006 000003     222  	zero	APLYS,LN96
    000141  aa   000000 000000     223  	zero	0,0   pd ld
    000142  aa   000016 000001     224  	zero	14,1   rule/alt
    000143  aa   000013 000133     225  	zero	11,ST91 prod/val
                        000003     226  	equ	LN96,*-DPDA-ST96-1
                                   227  "
                                   228  " STATE 100
                        000144     229  	equ	ST100,*-DPDA
    000144  aa   000004 000004     230  	zero	APLY,LN100
    000145  aa   000000 000000     231  	zero	0,0   pd ld
    000146  aa   000037 000001     232  	zero	31,1   rule/alt
    000147  aa   000016 000155     233  	zero	14,ST109 prod/val
    000150  aa   001140 000371     234  	zero	ST608,ST249
                        000004     235  	equ	LN100,*-DPDA-ST100-1
                                   236  "
                                   237  " STATE 105
                        000151     238  	equ	ST105,*-DPDA
    000151  aa   000006 000003     239  	zero	APLYS,LN105
    000152  aa   000000 000000     240  	zero	0,0   pd ld
    000153  aa   000031 000001     241  	zero	25,1   rule/alt
    000154  aa   000016 000144     242  	zero	14,ST100 prod/val
                        000003     243  	equ	LN105,*-DPDA-ST105-1
                                   244  "
                                   245  " STATE 109
                        000155     246  	equ	ST109,*-DPDA
    000155  aa   000005 000003     247  	zero	APLY1,LN109
    000156  aa   000000 000000     248  	zero	0,0   pd ld
    000157  aa   000020 000001     249  	zero	16,1   rule/alt
    000160  aa   000015 000161     250  	zero	13,ST113 prod/val
                        000003     251  	equ	LN109,*-DPDA-ST109-1
                                   252  "
                                   253  " STATE 113
                        000161     254  	equ	ST113,*-DPDA
    000161  aa   000011 000015     255  	zero	NSRD,LN113
    000162  aa   000001 776640     256  	zero	1,-ST608	"<left_parenthesis>
    000163  aa   000003 776625     257  	zero	3,-ST619	"<comma>
    000164  aa   000004 776625     258  	zero	4,-ST619	"<semicolon>
    000165  aa   000006 776625     259  	zero	6,-ST619	"<hyphen>
    000166  aa   000021 776640     260  	zero	17,-ST608	"<real>
    000167  aa   000022 776640     261  	zero	18,-ST608	"<complex>
    000170  aa   000023 776640     262  	zero	19,-ST608	"<fixed>
    000171  aa   000024 776640     263  	zero	20,-ST608	"<float>
    000172  aa   000025 776640     264  	zero	21,-ST608	"<binary>
    000173  aa   000026 776640     265  	zero	22,-ST608	"<decimal>
    000174  aa   000027 776640     266  	zero	23,-ST608	"<precision>
    000175  aa   000034 776640     267  	zero	28,-ST608	"<aligned>
    000176  aa   000035 776640     268  	zero	29,-ST608	"<unaligned>
                        000015     269  	equ	LN113,*-DPDA-ST113-1
                                   270  "
                                   271  " STATE 127
                        000177     272  	equ	ST127,*-DPDA
    000177  aa   000006 000003     273  	zero	APLYS,LN127
    000200  aa   000000 000000     274  	zero	0,0   pd ld
    000201  aa   000014 000001     275  	zero	12,1   rule/alt
    000202  aa   000013 000133     276  	zero	11,ST91 prod/val
                        000003     277  	equ	LN127,*-DPDA-ST127-1
                                   278  "
                                   279  " STATE 131
                        000203     280  	equ	ST131,*-DPDA
    000203  aa   000011 000003     281  	zero	NSRD,LN131
    000204  aa   000003 776617     282  	zero	3,-ST625	"<comma>
    000205  aa   000004 776617     283  	zero	4,-ST625	"<semicolon>
    000206  aa   000006 776621     284  	zero	6,-ST623	"<hyphen>
                        000003     285  	equ	LN131,*-DPDA-ST131-1
                                   286  "
                                   287  " STATE 135
                        000207     288  	equ	ST135,*-DPDA
    000207  aa   000000 000001     289  	zero	STRD,LN135
    000210  aa   000013 000445     290  	zero	11,ST293	"<positive_integer>
                        000001     291  	equ	LN135,*-DPDA-ST135-1
                                   292  "
                                   293  " STATE 137
                        000211     294  	equ	ST137,*-DPDA
    000211  aa   000006 000003     295  	zero	APLYS,LN137
    000212  aa   000000 000000     296  	zero	0,0   pd ld
    000213  aa   000022 000001     297  	zero	18,1   rule/alt
    000214  aa   000016 000144     298  	zero	14,ST100 prod/val
                        000003     299  	equ	LN137,*-DPDA-ST137-1
                                   300  "
                                   301  " STATE 141
                        000215     302  	equ	ST141,*-DPDA
    000215  aa   000006 000003     303  	zero	APLYS,LN141
    000216  aa   000000 000000     304  	zero	0,0   pd ld
    000217  aa   000023 000001     305  	zero	19,1   rule/alt
    000220  aa   000016 000144     306  	zero	14,ST100 prod/val
                        000003     307  	equ	LN141,*-DPDA-ST141-1
                                   308  "
                                   309  " STATE 145
                        000221     310  	equ	ST145,*-DPDA
    000221  aa   000006 000003     311  	zero	APLYS,LN145
    000222  aa   000000 000000     312  	zero	0,0   pd ld
    000223  aa   000024 000001     313  	zero	20,1   rule/alt
    000224  aa   000016 000144     314  	zero	14,ST100 prod/val
                        000003     315  	equ	LN145,*-DPDA-ST145-1
                                   316  "
                                   317  " STATE 149
                        000225     318  	equ	ST149,*-DPDA
    000225  aa   000006 000003     319  	zero	APLYS,LN149
    000226  aa   000000 000000     320  	zero	0,0   pd ld
    000227  aa   000025 000001     321  	zero	21,1   rule/alt
    000230  aa   000016 000144     322  	zero	14,ST100 prod/val
                        000003     323  	equ	LN149,*-DPDA-ST149-1
                                   324  "
                                   325  " STATE 153
                        000231     326  	equ	ST153,*-DPDA
    000231  aa   000006 000003     327  	zero	APLYS,LN153
    000232  aa   000000 000000     328  	zero	0,0   pd ld
    000233  aa   000026 000001     329  	zero	22,1   rule/alt
    000234  aa   000016 000144     330  	zero	14,ST100 prod/val
                        000003     331  	equ	LN153,*-DPDA-ST153-1
                                   332  "
                                   333  " STATE 157
                        000235     334  	equ	ST157,*-DPDA
    000235  aa   000006 000003     335  	zero	APLYS,LN157
    000236  aa   000000 000000     336  	zero	0,0   pd ld
    000237  aa   000027 000001     337  	zero	23,1   rule/alt
    000240  aa   000016 000144     338  	zero	14,ST100 prod/val
                        000003     339  	equ	LN157,*-DPDA-ST157-1
                                   340  "
                                   341  " STATE 161
                        000241     342  	equ	ST161,*-DPDA
    000241  aa   000000 000001     343  	zero	STRD,LN161
    000242  aa   000001 000207     344  	zero	1,ST135	"<left_parenthesis>
                        000001     345  	equ	LN161,*-DPDA-ST161-1
                                   346  "
                                   347  " STATE 163
                        000243     348  	equ	ST163,*-DPDA
    000243  aa   000011 000010     349  	zero	NSRD,LN163
    000244  aa   000001 776613     350  	zero	1,-ST629	"<left_parenthesis>
    000245  aa   000003 776605     351  	zero	3,-ST635	"<comma>
    000246  aa   000004 776605     352  	zero	4,-ST635	"<semicolon>
    000247  aa   000006 776605     353  	zero	6,-ST635	"<hyphen>
    000250  aa   000032 776613     354  	zero	26,-ST629	"<varying>
    000251  aa   000033 776613     355  	zero	27,-ST629	"<nonvarying>
    000252  aa   000034 776613     356  	zero	28,-ST629	"<aligned>
    000253  aa   000035 776613     357  	zero	29,-ST629	"<unaligned>
                        000010     358  	equ	LN163,*-DPDA-ST163-1
                                   359  "
                                   360  " STATE 172
                        000254     361  	equ	ST172,*-DPDA
    000254  aa   000011 000010     362  	zero	NSRD,LN172
    000255  aa   000001 776601     363  	zero	1,-ST639	"<left_parenthesis>
    000256  aa   000003 776600     364  	zero	3,-ST640	"<comma>
    000257  aa   000004 776600     365  	zero	4,-ST640	"<semicolon>
    000260  aa   000006 776600     366  	zero	6,-ST640	"<hyphen>
    000261  aa   000032 776601     367  	zero	26,-ST639	"<varying>
    000262  aa   000033 776601     368  	zero	27,-ST639	"<nonvarying>
    000263  aa   000034 776601     369  	zero	28,-ST639	"<aligned>
    000264  aa   000035 776601     370  	zero	29,-ST639	"<unaligned>
                        000010     371  	equ	LN172,*-DPDA-ST172-1
                                   372  "
                                   373  " STATE 181
                        000265     374  	equ	ST181,*-DPDA
    000265  aa   000000 000002     375  	zero	STRD,LN181
    000266  aa   000030 000536     376  	zero	24,ST350	"<char>
    000267  aa   000031 000547     377  	zero	25,ST359	"<bit>
                        000002     378  	equ	LN181,*-DPDA-ST181-1
                                   379  "
                                   380  " STATE 184
                        000270     381  	equ	ST184,*-DPDA
    000270  aa   000000 000002     382  	zero	STRD,LN184
    000271  aa   000030 000560     383  	zero	24,ST368	"<char>
    000272  aa   000031 000571     384  	zero	25,ST377	"<bit>
                        000002     385  	equ	LN184,*-DPDA-ST184-1
                                   386  "
                                   387  " STATE 187
                        000273     388  	equ	ST187,*-DPDA
    000273  aa   000004 000006     389  	zero	APLY,LN187
    000274  aa   000000 000000     390  	zero	0,0   pd ld
    000275  aa   000040 000001     391  	zero	32,1   rule/alt
    000276  aa   000021 000475     392  	zero	17,ST317 prod/val
    000277  aa   000034 000144     393  	zero	ST28,ST100
    000300  aa   000412 000144     394  	zero	ST266,ST100
    000301  aa   001140 000144     395  	zero	ST608,ST100
                        000006     396  	equ	LN187,*-DPDA-ST187-1
                                   397  "
                                   398  " STATE 194
                        000302     399  	equ	ST194,*-DPDA
    000302  aa   000006 000003     400  	zero	APLYS,LN194
    000303  aa   000000 000000     401  	zero	0,0   pd ld
    000304  aa   000041 000001     402  	zero	33,1   rule/alt
    000305  aa   000021 000273     403  	zero	17,ST187 prod/val
                        000003     404  	equ	LN194,*-DPDA-ST194-1
                                   405  "
                                   406  " STATE 198
                        000306     407  	equ	ST198,*-DPDA
    000306  aa   000000 000001     408  	zero	STRD,LN198
    000307  aa   777764 000066     409  	zero	-12,ST54	"<identifier>
                        000001     410  	equ	LN198,*-DPDA-ST198-1
                                   411  "
                                   412  " STATE 200
                        000310     413  	equ	ST200,*-DPDA
    000310  aa   000005 000003     414  	zero	APLY1,LN200
    000311  aa   000002 000002     415  	zero	2,2   pd ld
    000312  aa   000007 000002     416  	zero	7,2   rule/alt
    000313  aa   000007 000003     417  	zero	7,ST3 prod/val
                        000003     418  	equ	LN200,*-DPDA-ST200-1
                                   419  "
                                   420  " STATE 204
                        000314     421  	equ	ST204,*-DPDA
    000314  aa   000005 000003     422  	zero	APLY1,LN204
    000315  aa   000003 000003     423  	zero	3,3   pd ld
    000316  aa   000001 000001     424  	zero	1,1   rule/alt
    000317  aa   000001 000013     425  	zero	1,ST11 prod/val
                        000003     426  	equ	LN204,*-DPDA-ST204-1
                                   427  "
                                   428  " STATE 208
                        000320     429  	equ	ST208,*-DPDA
    000320  aa   000000 000002     430  	zero	STRD,LN208
    000321  aa   000004 000617     431  	zero	4,ST399	"<semicolon>
    000322  aa   777764 000623     432  	zero	-12,ST403	"<identifier>
                        000002     433  	equ	LN208,*-DPDA-ST208-1
                                   434  "
                                   435  " STATE 211
                        000323     436  	equ	ST211,*-DPDA
    000323  aa   000005 000003     437  	zero	APLY1,LN211
    000324  aa   000000 000000     438  	zero	0,0   pd ld
    000325  aa   000120 000001     439  	zero	80,1   rule/alt
    000326  aa   000050 000314     440  	zero	40,ST204 prod/val
                        000003     441  	equ	LN211,*-DPDA-ST211-1
                                   442  "
                                   443  " STATE 215
                        000327     444  	equ	ST215,*-DPDA
    000327  aa   000000 000001     445  	zero	STRD,LN215
    000330  aa   000005 000627     446  	zero	5,ST407	"<colon>
                        000001     447  	equ	LN215,*-DPDA-ST215-1
                                   448  "
                                   449  " STATE 217
                        000331     450  	equ	ST217,*-DPDA
    000331  aa   000000 000001     451  	zero	STRD,LN217
    000332  aa   000001 000633     452  	zero	1,ST411	"<left_parenthesis>
                        000001     453  	equ	LN217,*-DPDA-ST217-1
                                   454  "
                                   455  " STATE 219
                        000333     456  	equ	ST219,*-DPDA
    000333  aa   000005 000003     457  	zero	APLY1,LN219
    000334  aa   000000 000000     458  	zero	0,0   pd ld
    000335  aa   000107 000001     459  	zero	71,1   rule/alt
    000336  aa   000043 000337     460  	zero	35,ST223 prod/val
                        000003     461  	equ	LN219,*-DPDA-ST219-1
                                   462  "
                                   463  " STATE 223
                        000337     464  	equ	ST223,*-DPDA
    000337  aa   000000 000002     465  	zero	STRD,LN223
    000340  aa   000003 000635     466  	zero	3,ST413	"<comma>
    000341  aa   000004 000637     467  	zero	4,ST415	"<semicolon>
                        000002     468  	equ	LN223,*-DPDA-ST223-1
                                   469  "
                                   470  " STATE 226
                        000342     471  	equ	ST226,*-DPDA
    000342  aa   000005 000003     472  	zero	APLY1,LN226
    000343  aa   000001 000001     473  	zero	1,1   pd ld
    000344  aa   000106 000002     474  	zero	70,2   rule/alt
    000345  aa   000042 000076     475  	zero	34,ST62 prod/val
                        000003     476  	equ	LN226,*-DPDA-ST226-1
                                   477  "
                                   478  " STATE 230
                        000346     479  	equ	ST230,*-DPDA
    000346  aa   000005 000003     480  	zero	APLY1,LN230
    000347  aa   000000 000000     481  	zero	0,0   pd ld
    000350  aa   000112 000001     482  	zero	74,1   rule/alt
    000351  aa   000045 000331     483  	zero	37,ST217 prod/val
                        000003     484  	equ	LN230,*-DPDA-ST230-1
                                   485  "
                                   486  " STATE 234
                        000352     487  	equ	ST234,*-DPDA
    000352  aa   000005 000003     488  	zero	APLY1,LN234
    000353  aa   000001 000001     489  	zero	1,1   pd ld
    000354  aa   000005 000001     490  	zero	5,1   rule/alt
    000355  aa   000005 000101     491  	zero	5,ST65 prod/val
                        000003     492  	equ	LN234,*-DPDA-ST234-1
                                   493  "
                                   494  " STATE 238
                        000356     495  	equ	ST238,*-DPDA
    000356  aa   000000 000001     496  	zero	STRD,LN238
    000357  aa   777764 000125     497  	zero	-12,ST85	"<identifier>
                        000001     498  	equ	LN238,*-DPDA-ST238-1
                                   499  "
                                   500  " STATE 240
                        000360     501  	equ	ST240,*-DPDA
    000360  aa   000005 000003     502  	zero	APLY1,LN240
    000361  aa   000002 000002     503  	zero	2,2   pd ld
    000362  aa   000100 000001     504  	zero	64,1   rule/alt
    000363  aa   000037 000017     505  	zero	31,ST15 prod/val
                        000003     506  	equ	LN240,*-DPDA-ST240-1
                                   507  "
                                   508  " STATE 244
                        000364     509  	equ	ST244,*-DPDA
    000364  aa   000004 000004     510  	zero	APLY,LN244
    000365  aa   000001 000001     511  	zero	1,1   pd ld
    000366  aa   000104 000001     512  	zero	68,1   rule/alt
    000367  aa   000041 000112     513  	zero	33,ST74 prod/val
    000370  aa   000356 000643     514  	zero	ST238,ST419
                        000004     515  	equ	LN244,*-DPDA-ST244-1
                                   516  "
                                   517  " STATE 249
                        000371     518  	equ	ST249,*-DPDA
    000371  aa   000005 000003     519  	zero	APLY1,LN249
    000372  aa   000001 000001     520  	zero	1,1   pd ld
    000373  aa   000021 000001     521  	zero	17,1   rule/alt
    000374  aa   000015 000161     522  	zero	13,ST113 prod/val
                        000003     523  	equ	LN249,*-DPDA-ST249-1
                                   524  "
                                   525  " STATE 253
                        000375     526  	equ	ST253,*-DPDA
    000375  aa   000004 000004     527  	zero	APLY,LN253
    000376  aa   000000 000000     528  	zero	0,0   pd ld
    000377  aa   000066 000001     529  	zero	54,1   rule/alt
    000400  aa   000031 000417     530  	zero	25,ST271 prod/val
    000401  aa   001204 000653     531  	zero	ST644,ST427
                        000004     532  	equ	LN253,*-DPDA-ST253-1
                                   533  "
                                   534  " STATE 258
                        000402     535  	equ	ST258,*-DPDA
    000402  aa   000006 000003     536  	zero	APLYS,LN258
    000403  aa   000000 000000     537  	zero	0,0   pd ld
    000404  aa   000065 000001     538  	zero	53,1   rule/alt
    000405  aa   000031 000375     539  	zero	25,ST253 prod/val
                        000003     540  	equ	LN258,*-DPDA-ST258-1
                                   541  "
                                   542  " STATE 262
                        000406     543  	equ	ST262,*-DPDA
    000406  aa   000006 000003     544  	zero	APLYS,LN262
    000407  aa   000000 000000     545  	zero	0,0   pd ld
    000410  aa   000064 000001     546  	zero	52,1   rule/alt
    000411  aa   000031 000375     547  	zero	25,ST253 prod/val
                        000003     548  	equ	LN262,*-DPDA-ST262-1
                                   549  "
                                   550  " STATE 266
                        000412     551  	equ	ST266,*-DPDA
    000412  aa   000002 000034     552  	zero	STRDS,ST28
                                   553
                                   554  "
                                   555  " STATE 267
                        000413     556  	equ	ST267,*-DPDA
    000413  aa   000006 000003     557  	zero	APLYS,LN267
    000414  aa   000000 000000     558  	zero	0,0   pd ld
    000415  aa   000067 000001     559  	zero	55,1   rule/alt
    000416  aa   000031 000375     560  	zero	25,ST253 prod/val
                        000003     561  	equ	LN267,*-DPDA-ST267-1
                                   562  "
                                   563  " STATE 271
                        000417     564  	equ	ST271,*-DPDA
    000417  aa   000005 000003     565  	zero	APLY1,LN271
    000420  aa   000000 000000     566  	zero	0,0   pd ld
    000421  aa   000063 000001     567  	zero	51,1   rule/alt
    000422  aa   000030 000423     568  	zero	24,ST275 prod/val
                        000003     569  	equ	LN271,*-DPDA-ST271-1
                                   570  "
                                   571  " STATE 275
                        000423     572  	equ	ST275,*-DPDA
    000423  aa   000011 000003     573  	zero	NSRD,LN275
    000424  aa   000003 776572     574  	zero	3,-ST646	"<comma>
    000425  aa   000004 776572     575  	zero	4,-ST646	"<semicolon>
    000426  aa   000006 776574     576  	zero	6,-ST644	"<hyphen>
                        000003     577  	equ	LN275,*-DPDA-ST275-1
                                   578  "
                                   579  " STATE 279
                        000427     580  	equ	ST279,*-DPDA
    000427  aa   000004 000004     581  	zero	APLY,LN279
    000430  aa   000002 000002     582  	zero	2,2   pd ld
    000431  aa   000012 000001     583  	zero	10,1   rule/alt
    000432  aa   000011 000053     584  	zero	9,ST43 prod/val
    000433  aa   000306 000602     585  	zero	ST198,ST386
                        000004     586  	equ	LN279,*-DPDA-ST279-1
                                   587  "
                                   588  " STATE 284
                        000434     589  	equ	ST284,*-DPDA
    000434  aa   000005 000003     590  	zero	APLY1,LN284
    000435  aa   000000 000000     591  	zero	0,0   pd ld
    000436  aa   000061 000001     592  	zero	49,1   rule/alt
    000437  aa   000027 000427     593  	zero	23,ST279 prod/val
                        000003     594  	equ	LN284,*-DPDA-ST284-1
                                   595  "
                                   596  " STATE 288
                        000440     597  	equ	ST288,*-DPDA
    000440  aa   000000 000004     598  	zero	STRD,LN288
    000441  aa   000036 000657     599  	zero	30,ST431	"<check_proc>
    000442  aa   000037 000661     600  	zero	31,ST433	"<encode_proc>
    000443  aa   000040 000663     601  	zero	32,ST435	"<decode_proc>
    000444  aa   000041 000665     602  	zero	33,ST437	"<decode_dcl>
                        000004     603  	equ	LN288,*-DPDA-ST288-1
                                   604  "
                                   605  " STATE 293
                        000445     606  	equ	ST293,*-DPDA
    000445  aa   000000 000002     607  	zero	STRD,LN293
    000446  aa   000002 000671     608  	zero	2,ST441	"<right_parenthesis>
    000447  aa   000003 000676     609  	zero	3,ST446	"<comma>
                        000002     610  	equ	LN293,*-DPDA-ST293-1
                                   611  "
                                   612  " STATE 296
                        000450     613  	equ	ST296,*-DPDA
    000450  aa   000006 000003     614  	zero	APLYS,LN296
    000451  aa   000001 000001     615  	zero	1,1   pd ld
    000452  aa   000030 000001     616  	zero	24,1   rule/alt
    000453  aa   000016 000144     617  	zero	14,ST100 prod/val
                        000003     618  	equ	LN296,*-DPDA-ST296-1
                                   619  "
                                   620  " STATE 300
                        000454     621  	equ	ST300,*-DPDA
    000454  aa   000005 000003     622  	zero	APLY1,LN300
    000455  aa   000000 000000     623  	zero	0,0   pd ld
    000456  aa   000047 000001     624  	zero	39,1   rule/alt
    000457  aa   000024 000460     625  	zero	20,ST304 prod/val
                        000003     626  	equ	LN300,*-DPDA-ST300-1
                                   627  "
                                   628  " STATE 304
                        000460     629  	equ	ST304,*-DPDA
    000460  aa   000011 000010     630  	zero	NSRD,LN304
    000461  aa   000001 776566     631  	zero	1,-ST650	"<left_parenthesis>
    000462  aa   000003 776565     632  	zero	3,-ST651	"<comma>
    000463  aa   000004 776565     633  	zero	4,-ST651	"<semicolon>
    000464  aa   000006 776565     634  	zero	6,-ST651	"<hyphen>
    000465  aa   000032 776566     635  	zero	26,-ST650	"<varying>
    000466  aa   000033 776566     636  	zero	27,-ST650	"<nonvarying>
    000467  aa   000034 776566     637  	zero	28,-ST650	"<aligned>
    000470  aa   000035 776566     638  	zero	29,-ST650	"<unaligned>
                        000010     639  	equ	LN304,*-DPDA-ST304-1
                                   640  "
                                   641  " STATE 313
                        000471     642  	equ	ST313,*-DPDA
    000471  aa   000005 000003     643  	zero	APLY1,LN313
    000472  aa   000001 000001     644  	zero	1,1   pd ld
    000473  aa   000055 000001     645  	zero	45,1   rule/alt
    000474  aa   000026 000133     646  	zero	22,ST91 prod/val
                        000003     647  	equ	LN313,*-DPDA-ST313-1
                                   648  "
                                   649  " STATE 317
                        000475     650  	equ	ST317,*-DPDA
    000475  aa   000004 000004     651  	zero	APLY,LN317
    000476  aa   000000 000000     652  	zero	0,0   pd ld
    000477  aa   000052 000001     653  	zero	42,1   rule/alt
    000500  aa   000025 000454     654  	zero	21,ST300 prod/val
    000501  aa   001212 000702     655  	zero	ST650,ST450
                        000004     656  	equ	LN317,*-DPDA-ST317-1
                                   657  "
                                   658  " STATE 322
                        000502     659  	equ	ST322,*-DPDA
    000502  aa   000004 000015     660  	zero	APLY,LN322
    000503  aa   000000 000000     661  	zero	0,0   pd ld
    000504  aa   000046 000001     662  	zero	38,1   rule/alt
    000505  aa   000023 000471     663  	zero	19,ST313 prod/val
    000506  aa   001177 000532     664  	zero	ST639,ST346
    000507  aa   001200 000532     665  	zero	ST640,ST346
    000510  aa   001217 000710     666  	zero	ST655,ST456
    000511  aa   001220 000710     667  	zero	ST656,ST456
    000512  aa   001224 000714     668  	zero	ST660,ST460
    000513  aa   001225 000714     669  	zero	ST661,ST460
    000514  aa   001231 000720     670  	zero	ST665,ST464
    000515  aa   001232 000720     671  	zero	ST666,ST464
    000516  aa   001236 000724     672  	zero	ST670,ST468
    000517  aa   001237 000724     673  	zero	ST671,ST468
                        000015     674  	equ	LN322,*-DPDA-ST322-1
                                   675  "
                                   676  " STATE 336
                        000520     677  	equ	ST336,*-DPDA
    000520  aa   000000 000001     678  	zero	STRD,LN336
    000521  aa   000013 000706     679  	zero	11,ST454	"<positive_integer>
                        000001     680  	equ	LN336,*-DPDA-ST336-1
                                   681  "
                                   682  " STATE 338
                        000522     683  	equ	ST338,*-DPDA
    000522  aa   000006 000003     684  	zero	APLYS,LN338
    000523  aa   000000 000000     685  	zero	0,0   pd ld
    000524  aa   000053 000001     686  	zero	43,1   rule/alt
    000525  aa   000025 000475     687  	zero	21,ST317 prod/val
                        000003     688  	equ	LN338,*-DPDA-ST338-1
                                   689  "
                                   690  " STATE 342
                        000526     691  	equ	ST342,*-DPDA
    000526  aa   000006 000003     692  	zero	APLYS,LN342
    000527  aa   000000 000000     693  	zero	0,0   pd ld
    000530  aa   000054 000001     694  	zero	44,1   rule/alt
    000531  aa   000025 000475     695  	zero	21,ST317 prod/val
                        000003     696  	equ	LN342,*-DPDA-ST342-1
                                   697  "
                                   698  " STATE 346
                        000532     699  	equ	ST346,*-DPDA
    000532  aa   000005 000003     700  	zero	APLY1,LN346
    000533  aa   000001 000001     701  	zero	1,1   pd ld
    000534  aa   000042 000001     702  	zero	34,1   rule/alt
    000535  aa   000022 000140     703  	zero	18,ST96 prod/val
                        000003     704  	equ	LN346,*-DPDA-ST346-1
                                   705  "
                                   706  " STATE 350
                        000536     707  	equ	ST350,*-DPDA
    000536  aa   000011 000010     708  	zero	NSRD,LN350
    000537  aa   000001 776561     709  	zero	1,-ST655	"<left_parenthesis>
    000540  aa   000003 776560     710  	zero	3,-ST656	"<comma>
    000541  aa   000004 776560     711  	zero	4,-ST656	"<semicolon>
    000542  aa   000006 776560     712  	zero	6,-ST656	"<hyphen>
    000543  aa   000032 776561     713  	zero	26,-ST655	"<varying>
    000544  aa   000033 776561     714  	zero	27,-ST655	"<nonvarying>
    000545  aa   000034 776561     715  	zero	28,-ST655	"<aligned>
    000546  aa   000035 776561     716  	zero	29,-ST655	"<unaligned>
                        000010     717  	equ	LN350,*-DPDA-ST350-1
                                   718  "
                                   719  " STATE 359
                        000547     720  	equ	ST359,*-DPDA
    000547  aa   000011 000010     721  	zero	NSRD,LN359
    000550  aa   000001 776554     722  	zero	1,-ST660	"<left_parenthesis>
    000551  aa   000003 776553     723  	zero	3,-ST661	"<comma>
    000552  aa   000004 776553     724  	zero	4,-ST661	"<semicolon>
    000553  aa   000006 776553     725  	zero	6,-ST661	"<hyphen>
    000554  aa   000032 776554     726  	zero	26,-ST660	"<varying>
    000555  aa   000033 776554     727  	zero	27,-ST660	"<nonvarying>
    000556  aa   000034 776554     728  	zero	28,-ST660	"<aligned>
    000557  aa   000035 776554     729  	zero	29,-ST660	"<unaligned>
                        000010     730  	equ	LN359,*-DPDA-ST359-1
                                   731  "
                                   732  " STATE 368
                        000560     733  	equ	ST368,*-DPDA
    000560  aa   000011 000010     734  	zero	NSRD,LN368
    000561  aa   000001 776547     735  	zero	1,-ST665	"<left_parenthesis>
    000562  aa   000003 776546     736  	zero	3,-ST666	"<comma>
    000563  aa   000004 776546     737  	zero	4,-ST666	"<semicolon>
    000564  aa   000006 776546     738  	zero	6,-ST666	"<hyphen>
    000565  aa   000032 776547     739  	zero	26,-ST665	"<varying>
    000566  aa   000033 776547     740  	zero	27,-ST665	"<nonvarying>
    000567  aa   000034 776547     741  	zero	28,-ST665	"<aligned>
    000570  aa   000035 776547     742  	zero	29,-ST665	"<unaligned>
                        000010     743  	equ	LN368,*-DPDA-ST368-1
                                   744  "
                                   745  " STATE 377
                        000571     746  	equ	ST377,*-DPDA
    000571  aa   000011 000010     747  	zero	NSRD,LN377
    000572  aa   000001 776542     748  	zero	1,-ST670	"<left_parenthesis>
    000573  aa   000003 776541     749  	zero	3,-ST671	"<comma>
    000574  aa   000004 776541     750  	zero	4,-ST671	"<semicolon>
    000575  aa   000006 776541     751  	zero	6,-ST671	"<hyphen>
    000576  aa   000032 776542     752  	zero	26,-ST670	"<varying>
    000577  aa   000033 776542     753  	zero	27,-ST670	"<nonvarying>
    000600  aa   000034 776542     754  	zero	28,-ST670	"<aligned>
    000601  aa   000035 776542     755  	zero	29,-ST670	"<unaligned>
                        000010     756  	equ	LN377,*-DPDA-ST377-1
                                   757  "
                                   758  " STATE 386
                        000602     759  	equ	ST386,*-DPDA
    000602  aa   000005 000003     760  	zero	APLY1,LN386
    000603  aa   000002 000002     761  	zero	2,2   pd ld
    000604  aa   000011 000001     762  	zero	9,1   rule/alt
    000605  aa   000010 000057     763  	zero	8,ST47 prod/val
                        000003     764  	equ	LN386,*-DPDA-ST386-1
                                   765  "
                                   766  " STATE 390
                        000606     767  	equ	ST390,*-DPDA
    000606  aa   000000 000001     768  	zero	STRD,LN390
    000607  aa   000001 000730     769  	zero	1,ST472	"<left_parenthesis>
                        000001     770  	equ	LN390,*-DPDA-ST390-1
                                   771  "
                                   772  " STATE 392
                        000610     773  	equ	ST392,*-DPDA
    000610  aa   000005 000003     774  	zero	APLY1,LN392
    000611  aa   000000 000000     775  	zero	0,0   pd ld
    000612  aa   000121 000001     776  	zero	81,1   rule/alt
    000613  aa   000051 000614     777  	zero	41,ST396 prod/val
                        000003     778  	equ	LN392,*-DPDA-ST392-1
                                   779  "
                                   780  " STATE 396
                        000614     781  	equ	ST396,*-DPDA
    000614  aa   000000 000002     782  	zero	STRD,LN396
    000615  aa   000003 000732     783  	zero	3,ST474	"<comma>
    000616  aa   000004 000734     784  	zero	4,ST476	"<semicolon>
                        000002     785  	equ	LN396,*-DPDA-ST396-1
                                   786  "
                                   787  " STATE 399
                        000617     788  	equ	ST399,*-DPDA
    000617  aa   000005 000003     789  	zero	APLY1,LN399
    000620  aa   000001 000001     790  	zero	1,1   pd ld
    000621  aa   000120 000002     791  	zero	80,2   rule/alt
    000622  aa   000050 000314     792  	zero	40,ST204 prod/val
                        000003     793  	equ	LN399,*-DPDA-ST399-1
                                   794  "
                                   795  " STATE 403
                        000623     796  	equ	ST403,*-DPDA
    000623  aa   000005 000003     797  	zero	APLY1,LN403
    000624  aa   000000 000000     798  	zero	0,0   pd ld
    000625  aa   000124 000001     799  	zero	84,1   rule/alt
    000626  aa   000053 000606     800  	zero	43,ST390 prod/val
                        000003     801  	equ	LN403,*-DPDA-ST403-1
                                   802  "
                                   803  " STATE 407
                        000627     804  	equ	ST407,*-DPDA
    000627  aa   000005 000003     805  	zero	APLY1,LN407
    000630  aa   000001 000001     806  	zero	1,1   pd ld
    000631  aa   000006 000001     807  	zero	6,1   rule/alt
    000632  aa   000006 000320     808  	zero	6,ST208 prod/val
                        000003     809  	equ	LN407,*-DPDA-ST407-1
                                   810  "
                                   811  " STATE 411
                        000633     812  	equ	ST411,*-DPDA
    000633  aa   000000 000001     813  	zero	STRD,LN411
    000634  aa   777764 000747     814  	zero	-12,ST487	"<identifier>
                        000001     815  	equ	LN411,*-DPDA-ST411-1
                                   816  "
                                   817  " STATE 413
                        000635     818  	equ	ST413,*-DPDA
    000635  aa   000000 000001     819  	zero	STRD,LN413
    000636  aa   777764 000346     820  	zero	-12,ST230	"<identifier>
                        000001     821  	equ	LN413,*-DPDA-ST413-1
                                   822  "
                                   823  " STATE 415
                        000637     824  	equ	ST415,*-DPDA
    000637  aa   000005 000003     825  	zero	APLY1,LN415
    000640  aa   000002 000002     826  	zero	2,2   pd ld
    000641  aa   000105 000001     827  	zero	69,1   rule/alt
    000642  aa   000042 000076     828  	zero	34,ST62 prod/val
                        000003     829  	equ	LN415,*-DPDA-ST415-1
                                   830  "
                                   831  " STATE 419
                        000643     832  	equ	ST419,*-DPDA
    000643  aa   000005 000003     833  	zero	APLY1,LN419
    000644  aa   000002 000002     834  	zero	2,2   pd ld
    000645  aa   000103 000001     835  	zero	67,1   rule/alt
    000646  aa   000040 000116     836  	zero	32,ST78 prod/val
                        000003     837  	equ	LN419,*-DPDA-ST419-1
                                   838  "
                                   839  " STATE 423
                        000647     840  	equ	ST423,*-DPDA
    000647  aa   000005 000003     841  	zero	APLY1,LN423
    000650  aa   000001 000001     842  	zero	1,1   pd ld
    000651  aa   000070 000001     843  	zero	56,1   rule/alt
    000652  aa   000032 000413     844  	zero	26,ST267 prod/val
                        000003     845  	equ	LN423,*-DPDA-ST423-1
                                   846  "
                                   847  " STATE 427
                        000653     848  	equ	ST427,*-DPDA
    000653  aa   000005 000003     849  	zero	APLY1,LN427
    000654  aa   000001 000001     850  	zero	1,1   pd ld
    000655  aa   000062 000001     851  	zero	50,1   rule/alt
    000656  aa   000030 000423     852  	zero	24,ST275 prod/val
                        000003     853  	equ	LN427,*-DPDA-ST427-1
                                   854  "
                                   855  " STATE 431
                        000657     856  	equ	ST431,*-DPDA
    000657  aa   000000 000001     857  	zero	STRD,LN431
    000660  aa   000011 000757     858  	zero	9,ST495	"<path_name>
                        000001     859  	equ	LN431,*-DPDA-ST431-1
                                   860  "
                                   861  " STATE 433
                        000661     862  	equ	ST433,*-DPDA
    000661  aa   000000 000001     863  	zero	STRD,LN433
    000662  aa   000011 000764     864  	zero	9,ST500	"<path_name>
                        000001     865  	equ	LN433,*-DPDA-ST433-1
                                   866  "
                                   867  " STATE 435
                        000663     868  	equ	ST435,*-DPDA
    000663  aa   000000 000001     869  	zero	STRD,LN435
    000664  aa   000011 000771     870  	zero	9,ST505	"<path_name>
                        000001     871  	equ	LN435,*-DPDA-ST435-1
                                   872  "
                                   873  " STATE 437
                        000665     874  	equ	ST437,*-DPDA
    000665  aa   000005 000003     875  	zero	APLY1,LN437
    000666  aa   000001 000001     876  	zero	1,1   pd ld
    000667  aa   000071 000001     877  	zero	57,1   rule/alt
    000670  aa   000033 000412     878  	zero	27,ST266 prod/val
                        000003     879  	equ	LN437,*-DPDA-ST437-1
                                   880  "
                                   881  " STATE 441
                        000671     882  	equ	ST441,*-DPDA
    000671  aa   000004 000004     883  	zero	APLY,LN441
    000672  aa   000002 000002     884  	zero	2,2   pd ld
    000673  aa   000036 000001     885  	zero	30,1   rule/alt
    000674  aa   000020 000151     886  	zero	16,ST105 prod/val
    000675  aa   000241 000450     887  	zero	ST161,ST296
                        000004     888  	equ	LN441,*-DPDA-ST441-1
                                   889  "
                                   890  " STATE 446
                        000676     891  	equ	ST446,*-DPDA
    000676  aa   000011 000003     892  	zero	NSRD,LN446
    000677  aa   000006 776535     893  	zero	6,-ST675	"<hyphen>
    000700  aa   000010 776535     894  	zero	8,-ST675	"<plus>
    000701  aa   000013 776532     895  	zero	11,-ST678	"<positive_integer>
                        000003     896  	equ	LN446,*-DPDA-ST446-1
                                   897  "
                                   898  " STATE 450
                        000702     899  	equ	ST450,*-DPDA
    000702  aa   000005 000003     900  	zero	APLY1,LN450
    000703  aa   000001 000001     901  	zero	1,1   pd ld
    000704  aa   000050 000001     902  	zero	40,1   rule/alt
    000705  aa   000024 000460     903  	zero	20,ST304 prod/val
                        000003     904  	equ	LN450,*-DPDA-ST450-1
                                   905  "
                                   906  " STATE 454
                        000706     907  	equ	ST454,*-DPDA
    000706  aa   000000 000001     908  	zero	STRD,LN454
    000707  aa   000002 001014     909  	zero	2,ST524	"<right_parenthesis>
                        000001     910  	equ	LN454,*-DPDA-ST454-1
                                   911  "
                                   912  " STATE 456
                        000710     913  	equ	ST456,*-DPDA
    000710  aa   000005 000003     914  	zero	APLY1,LN456
    000711  aa   000002 000002     915  	zero	2,2   pd ld
    000712  aa   000056 000001     916  	zero	46,1   rule/alt
    000713  aa   000026 000133     917  	zero	22,ST91 prod/val
                        000003     918  	equ	LN456,*-DPDA-ST456-1
                                   919  "
                                   920  " STATE 460
                        000714     921  	equ	ST460,*-DPDA
    000714  aa   000005 000003     922  	zero	APLY1,LN460
    000715  aa   000002 000002     923  	zero	2,2   pd ld
    000716  aa   000043 000001     924  	zero	35,1   rule/alt
    000717  aa   000022 000140     925  	zero	18,ST96 prod/val
                        000003     926  	equ	LN460,*-DPDA-ST460-1
                                   927  "
                                   928  " STATE 464
                        000720     929  	equ	ST464,*-DPDA
    000720  aa   000005 000003     930  	zero	APLY1,LN464
    000721  aa   000002 000002     931  	zero	2,2   pd ld
    000722  aa   000057 000001     932  	zero	47,1   rule/alt
    000723  aa   000026 000133     933  	zero	22,ST91 prod/val
                        000003     934  	equ	LN464,*-DPDA-ST464-1
                                   935  "
                                   936  " STATE 468
                        000724     937  	equ	ST468,*-DPDA
    000724  aa   000005 000003     938  	zero	APLY1,LN468
    000725  aa   000002 000002     939  	zero	2,2   pd ld
    000726  aa   000044 000001     940  	zero	36,1   rule/alt
    000727  aa   000022 000140     941  	zero	18,ST96 prod/val
                        000003     942  	equ	LN468,*-DPDA-ST468-1
                                   943  "
                                   944  " STATE 472
                        000730     945  	equ	ST472,*-DPDA
    000730  aa   000000 000001     946  	zero	STRD,LN472
    000731  aa   777764 001023     947  	zero	-12,ST531	"<identifier>
                        000001     948  	equ	LN472,*-DPDA-ST472-1
                                   949  "
                                   950  " STATE 474
                        000732     951  	equ	ST474,*-DPDA
    000732  aa   000000 000001     952  	zero	STRD,LN474
    000733  aa   777764 000623     953  	zero	-12,ST403	"<identifier>
                        000001     954  	equ	LN474,*-DPDA-ST474-1
                                   955  "
                                   956  " STATE 476
                        000734     957  	equ	ST476,*-DPDA
    000734  aa   000005 000003     958  	zero	APLY1,LN476
    000735  aa   000002 000002     959  	zero	2,2   pd ld
    000736  aa   000117 000001     960  	zero	79,1   rule/alt
    000737  aa   000050 000314     961  	zero	40,ST204 prod/val
                        000003     962  	equ	LN476,*-DPDA-ST476-1
                                   963  "
                                   964  " STATE 480
                        000740     965  	equ	ST480,*-DPDA
    000740  aa   000005 000003     966  	zero	APLY1,LN480
    000741  aa   000000 000000     967  	zero	0,0   pd ld
    000742  aa   000113 000001     968  	zero	75,1   rule/alt
    000743  aa   000046 000744     969  	zero	38,ST484 prod/val
                        000003     970  	equ	LN480,*-DPDA-ST480-1
                                   971  "
                                   972  " STATE 484
                        000744     973  	equ	ST484,*-DPDA
    000744  aa   000000 000002     974  	zero	STRD,LN484
    000745  aa   000002 001037     975  	zero	2,ST543	"<right_parenthesis>
    000746  aa   777764 000747     976  	zero	-12,ST487	"<identifier>
                        000002     977  	equ	LN484,*-DPDA-ST484-1
                                   978  "
                                   979  " STATE 487
                        000747     980  	equ	ST487,*-DPDA
    000747  aa   000011 000003     981  	zero	NSRD,LN487
    000750  aa   000002 776524     982  	zero	2,-ST684	"<right_parenthesis>
    000751  aa   000007 776526     983  	zero	7,-ST682	"<asterisk>
    000752  aa   777764 776524     984  	zero	-12,-ST684	"<identifier>
                        000003     985  	equ	LN487,*-DPDA-ST487-1
                                   986  "
                                   987  " STATE 491
                        000753     988  	equ	ST491,*-DPDA
    000753  aa   000005 000003     989  	zero	APLY1,LN491
    000754  aa   000002 000002     990  	zero	2,2   pd ld
    000755  aa   000110 000001     991  	zero	72,1   rule/alt
    000756  aa   000043 000337     992  	zero	35,ST223 prod/val
                        000003     993  	equ	LN491,*-DPDA-ST491-1
                                   994  "
                                   995  " STATE 495
                        000757     996  	equ	ST495,*-DPDA
    000757  aa   000011 000004     997  	zero	NSRD,LN495
    000760  aa   000003 776516     998  	zero	3,-ST690	"<comma>
    000761  aa   000004 776516     999  	zero	4,-ST690	"<semicolon>
    000762  aa   000006 776516    1000  	zero	6,-ST690	"<hyphen>
    000763  aa   000012 776520    1001  	zero	10,-ST688	"<entry_name>
                        000004    1002  	equ	LN495,*-DPDA-ST495-1
                                  1003  "
                                  1004  " STATE 500
                        000764    1005  	equ	ST500,*-DPDA
    000764  aa   000011 000004    1006  	zero	NSRD,LN500
    000765  aa   000003 776510    1007  	zero	3,-ST696	"<comma>
    000766  aa   000004 776510    1008  	zero	4,-ST696	"<semicolon>
    000767  aa   000006 776510    1009  	zero	6,-ST696	"<hyphen>
    000770  aa   000012 776512    1010  	zero	10,-ST694	"<entry_name>
                        000004    1011  	equ	LN500,*-DPDA-ST500-1
                                  1012  "
                                  1013  " STATE 505
                        000771    1014  	equ	ST505,*-DPDA
    000771  aa   000011 000004    1015  	zero	NSRD,LN505
    000772  aa   000003 776502    1016  	zero	3,-ST702	"<comma>
    000773  aa   000004 776502    1017  	zero	4,-ST702	"<semicolon>
    000774  aa   000006 776502    1018  	zero	6,-ST702	"<hyphen>
    000775  aa   000012 776504    1019  	zero	10,-ST700	"<entry_name>
                        000004    1020  	equ	LN505,*-DPDA-ST505-1
                                  1021  "
                                  1022  " STATE 510
                        000776    1023  	equ	ST510,*-DPDA
    000776  aa   000000 000001    1024  	zero	STRD,LN510
    000777  aa   000013 001065    1025  	zero	11,ST565	"<positive_integer>
                        000001    1026  	equ	LN510,*-DPDA-ST510-1
                                  1027  "
                                  1028  " STATE 512
                        001000    1029  	equ	ST512,*-DPDA
    001000  aa   000005 000003    1030  	zero	APLY1,LN512
    001001  aa   000000 000000    1031  	zero	0,0   pd ld
    001002  aa   000034 000001    1032  	zero	28,1   rule/alt
    001003  aa   000017 000776    1033  	zero	15,ST510 prod/val
                        000003    1034  	equ	LN512,*-DPDA-ST512-1
                                  1035  "
                                  1036  " STATE 516
                        001004    1037  	equ	ST516,*-DPDA
    001004  aa   000005 000003    1038  	zero	APLY1,LN516
    001005  aa   000000 000000    1039  	zero	0,0   pd ld
    001006  aa   000033 000001    1040  	zero	27,1   rule/alt
    001007  aa   000017 000776    1041  	zero	15,ST510 prod/val
                        000003    1042  	equ	LN516,*-DPDA-ST516-1
                                  1043  "
                                  1044  " STATE 520
                        001010    1045  	equ	ST520,*-DPDA
    001010  aa   000005 000003    1046  	zero	APLY1,LN520
    001011  aa   000000 000000    1047  	zero	0,0   pd ld
    001012  aa   000032 000001    1048  	zero	26,1   rule/alt
    001013  aa   000017 000776    1049  	zero	15,ST510 prod/val
                        000003    1050  	equ	LN520,*-DPDA-ST520-1
                                  1051  "
                                  1052  " STATE 524
                        001014    1053  	equ	ST524,*-DPDA
    001014  aa   000006 000003    1054  	zero	APLYS,LN524
    001015  aa   000002 000002    1055  	zero	2,2   pd ld
    001016  aa   000051 000001    1056  	zero	41,1   rule/alt
    001017  aa   000025 000475    1057  	zero	21,ST317 prod/val
                        000003    1058  	equ	LN524,*-DPDA-ST524-1
                                  1059  "
                                  1060  " STATE 528
                        001020    1061  	equ	ST528,*-DPDA
    001020  aa   000000 000002    1062  	zero	STRD,LN528
    001021  aa   000002 001067    1063  	zero	2,ST567	"<right_parenthesis>
    001022  aa   777764 001074    1064  	zero	-12,ST572	"<identifier>
                        000002    1065  	equ	LN528,*-DPDA-ST528-1
                                  1066  "
                                  1067  " STATE 531
                        001023    1068  	equ	ST531,*-DPDA
    001023  aa   000005 000003    1069  	zero	APLY1,LN531
    001024  aa   000000 000000    1070  	zero	0,0   pd ld
    001025  aa   000125 000001    1071  	zero	85,1   rule/alt
    001026  aa   000054 001020    1072  	zero	44,ST528 prod/val
                        000003    1073  	equ	LN531,*-DPDA-ST531-1
                                  1074  "
                                  1075  " STATE 535
                        001027    1076  	equ	ST535,*-DPDA
    001027  aa   000005 000003    1077  	zero	APLY1,LN535
    001030  aa   000002 000002    1078  	zero	2,2   pd ld
    001031  aa   000122 000001    1079  	zero	82,1   rule/alt
    001032  aa   000051 000614    1080  	zero	41,ST396 prod/val
                        000003    1081  	equ	LN535,*-DPDA-ST535-1
                                  1082  "
                                  1083  " STATE 539
                        001033    1084  	equ	ST539,*-DPDA
    001033  aa   000005 000003    1085  	zero	APLY1,LN539
    001034  aa   000001 000001    1086  	zero	1,1   pd ld
    001035  aa   000114 000001    1087  	zero	76,1   rule/alt
    001036  aa   000046 000744    1088  	zero	38,ST484 prod/val
                        000003    1089  	equ	LN539,*-DPDA-ST539-1
                                  1090  "
                                  1091  " STATE 543
                        001037    1092  	equ	ST543,*-DPDA
    001037  aa   000004 000004    1093  	zero	APLY,LN543
    001040  aa   000003 000003    1094  	zero	3,3   pd ld
    001041  aa   000111 000001    1095  	zero	73,1   rule/alt
    001042  aa   000044 000333    1096  	zero	36,ST219 prod/val
    001043  aa   000635 000753    1097  	zero	ST413,ST491
                        000004    1098  	equ	LN543,*-DPDA-ST543-1
                                  1099  "
                                  1100  " STATE 548
                        001044    1101  	equ	ST548,*-DPDA
    001044  aa   000004 000004    1102  	zero	APLY,LN548
    001045  aa   000001 000001    1103  	zero	1,1   pd ld
    001046  aa   000116 000001    1104  	zero	78,1   rule/alt
    001047  aa   000047 000740    1105  	zero	39,ST480 prod/val
    001050  aa   000744 001033    1106  	zero	ST484,ST539
                        000004    1107  	equ	LN548,*-DPDA-ST548-1
                                  1108  "
                                  1109  " STATE 553
                        001051    1110  	equ	ST553,*-DPDA
    001051  aa   000005 000003    1111  	zero	APLY1,LN553
    001052  aa   000003 000003    1112  	zero	3,3   pd ld
    001053  aa   000072 000001    1113  	zero	58,1   rule/alt
    001054  aa   000034 000406    1114  	zero	28,ST262 prod/val
                        000003    1115  	equ	LN553,*-DPDA-ST553-1
                                  1116  "
                                  1117  " STATE 557
                        001055    1118  	equ	ST557,*-DPDA
    001055  aa   000005 000003    1119  	zero	APLY1,LN557
    001056  aa   000003 000003    1120  	zero	3,3   pd ld
    001057  aa   000074 000001    1121  	zero	60,1   rule/alt
    001060  aa   000035 000402    1122  	zero	29,ST258 prod/val
                        000003    1123  	equ	LN557,*-DPDA-ST557-1
                                  1124  "
                                  1125  " STATE 561
                        001061    1126  	equ	ST561,*-DPDA
    001061  aa   000005 000003    1127  	zero	APLY1,LN561
    001062  aa   000003 000003    1128  	zero	3,3   pd ld
    001063  aa   000076 000001    1129  	zero	62,1   rule/alt
    001064  aa   000036 000375    1130  	zero	30,ST253 prod/val
                        000003    1131  	equ	LN561,*-DPDA-ST561-1
                                  1132  "
                                  1133  " STATE 565
                        001065    1134  	equ	ST565,*-DPDA
    001065  aa   000000 000001    1135  	zero	STRD,LN565
    001066  aa   000002 001100    1136  	zero	2,ST576	"<right_parenthesis>
                        000001    1137  	equ	LN565,*-DPDA-ST565-1
                                  1138  "
                                  1139  " STATE 567
                        001067    1140  	equ	ST567,*-DPDA
    001067  aa   000004 000004    1141  	zero	APLY,LN567
    001070  aa   000003 000003    1142  	zero	3,3   pd ld
    001071  aa   000123 000001    1143  	zero	83,1   rule/alt
    001072  aa   000052 000610    1144  	zero	42,ST392 prod/val
    001073  aa   000732 001027    1145  	zero	ST474,ST535
                        000004    1146  	equ	LN567,*-DPDA-ST567-1
                                  1147  "
                                  1148  " STATE 572
                        001074    1149  	equ	ST572,*-DPDA
    001074  aa   000005 000003    1150  	zero	APLY1,LN572
    001075  aa   000001 000001    1151  	zero	1,1   pd ld
    001076  aa   000126 000001    1152  	zero	86,1   rule/alt
    001077  aa   000054 001020    1153  	zero	44,ST528 prod/val
                        000003    1154  	equ	LN572,*-DPDA-ST572-1
                                  1155  "
                                  1156  " STATE 576
                        001100    1157  	equ	ST576,*-DPDA
    001100  aa   000006 000003    1158  	zero	APLYS,LN576
    001101  aa   000005 000005    1159  	zero	5,5   pd ld
    001102  aa   000035 000001    1160  	zero	29,1   rule/alt
    001103  aa   000020 000671    1161  	zero	16,ST441 prod/val
                        000003    1162  	equ	LN576,*-DPDA-ST576-1
                                  1163  "
                                  1164  " STATE 580
                        001104    1165  	equ	ST580,*-DPDA
    001104  aa   000000 000001    1166  	zero	STRD,LN580
    001105  aa   000016 000032    1167  	zero	14,ST26	"<attribute>
                        000001    1168  	equ	LN580,*-DPDA-ST580-1
                                  1169  "
                                  1170  " STATE 582
                        001106    1171  	equ	ST582,*-DPDA
    001106  aa   000004 000015    1172  	zero	APLY,LN582
    001107  aa   777777 777777    1173  	zero	-1,-1   pd ld
    001110  aa   000002 000001    1174  	zero	2,1   rule/alt
    001111  aa   000002 000502    1175  	zero	2,ST322 prod/val
    001112  aa   001104 000026    1176  	zero	ST580,ST22
    001113  aa   001106 000026    1177  	zero	ST582,ST22
    001114  aa   001124 000104    1178  	zero	ST596,ST68
    001115  aa   001126 000104    1179  	zero	ST598,ST68
    001116  aa   001132 000323    1180  	zero	ST602,ST211
    001117  aa   001134 000323    1181  	zero	ST604,ST211
    001120  aa   001157 000434    1182  	zero	ST623,ST284
    001121  aa   001161 000434    1183  	zero	ST625,ST284
    001122  aa   001243 001000    1184  	zero	ST675,ST512
    001123  aa   001246 001000    1185  	zero	ST678,ST512
                        000015    1186  	equ	LN582,*-DPDA-ST582-1
                                  1187  "
                                  1188  " STATE 596
                        001124    1189  	equ	ST596,*-DPDA
    001124  aa   000000 000001    1190  	zero	STRD,LN596
    001125  aa   000017 000110    1191  	zero	15,ST72	"<relation>
                        000001    1192  	equ	LN596,*-DPDA-ST596-1
                                  1193  "
                                  1194  " STATE 598
                        001126    1195  	equ	ST598,*-DPDA
    001126  aa   000006 000003    1196  	zero	APLYS,LN598
    001127  aa   777777 777777    1197  	zero	-1,-1   pd ld
    001130  aa   000002 000001    1198  	zero	2,1   rule/alt
    001131  aa   000002 001106    1199  	zero	2,ST582 prod/val
                        000003    1200  	equ	LN598,*-DPDA-ST598-1
                                  1201  "
                                  1202  " STATE 602
                        001132    1203  	equ	ST602,*-DPDA
    001132  aa   000000 000001    1204  	zero	STRD,LN602
    001133  aa   000020 000327    1205  	zero	16,ST215	"<index>
                        000001    1206  	equ	LN602,*-DPDA-ST602-1
                                  1207  "
                                  1208  " STATE 604
                        001134    1209  	equ	ST604,*-DPDA
    001134  aa   000006 000003    1210  	zero	APLYS,LN604
    001135  aa   777777 777777    1211  	zero	-1,-1   pd ld
    001136  aa   000002 000001    1212  	zero	2,1   rule/alt
    001137  aa   000002 001106    1213  	zero	2,ST582 prod/val
                        000003    1214  	equ	LN604,*-DPDA-ST604-1
                                  1215  "
                                  1216  " STATE 608
                        001140    1217  	equ	ST608,*-DPDA
    001140  aa   000000 000012    1218  	zero	STRD,LN608
    001141  aa   000001 000207    1219  	zero	1,ST135	"<left_parenthesis>
    001142  aa   000021 000211    1220  	zero	17,ST137	"<real>
    001143  aa   000022 000215    1221  	zero	18,ST141	"<complex>
    001144  aa   000023 000221    1222  	zero	19,ST145	"<fixed>
    001145  aa   000024 000225    1223  	zero	20,ST149	"<float>
    001146  aa   000025 000231    1224  	zero	21,ST153	"<binary>
    001147  aa   000026 000235    1225  	zero	22,ST157	"<decimal>
    001150  aa   000027 000241    1226  	zero	23,ST161	"<precision>
    001151  aa   000034 000273    1227  	zero	28,ST187	"<aligned>
    001152  aa   000035 000302    1228  	zero	29,ST194	"<unaligned>
                        000012    1229  	equ	LN608,*-DPDA-ST608-1
                                  1230  "
                                  1231  " STATE 619
                        001153    1232  	equ	ST619,*-DPDA
    001153  aa   000005 000003    1233  	zero	APLY1,LN619
    001154  aa   000000 000000    1234  	zero	0,0   pd ld
    001155  aa   000017 000001    1235  	zero	15,1   rule/alt
    001156  aa   000014 000177    1236  	zero	12,ST127 prod/val
                        000003    1237  	equ	LN619,*-DPDA-ST619-1
                                  1238  "
                                  1239  " STATE 623
                        001157    1240  	equ	ST623,*-DPDA
    001157  aa   000000 000001    1241  	zero	STRD,LN623
    001160  aa   000006 000440    1242  	zero	6,ST288	"<hyphen>
                        000001    1243  	equ	LN623,*-DPDA-ST623-1
                                  1244  "
                                  1245  " STATE 625
                        001161    1246  	equ	ST625,*-DPDA
    001161  aa   000006 000003    1247  	zero	APLYS,LN625
    001162  aa   777777 777777    1248  	zero	-1,-1   pd ld
    001163  aa   000002 000001    1249  	zero	2,1   rule/alt
    001164  aa   000002 001106    1250  	zero	2,ST582 prod/val
                        000003    1251  	equ	LN625,*-DPDA-ST625-1
                                  1252  "
                                  1253  " STATE 629
                        001165    1254  	equ	ST629,*-DPDA
    001165  aa   000000 000005    1255  	zero	STRD,LN629
    001166  aa   000001 000520    1256  	zero	1,ST336	"<left_parenthesis>
    001167  aa   000032 000522    1257  	zero	26,ST338	"<varying>
    001170  aa   000033 000526    1258  	zero	27,ST342	"<nonvarying>
    001171  aa   000034 000273    1259  	zero	28,ST187	"<aligned>
    001172  aa   000035 000302    1260  	zero	29,ST194	"<unaligned>
                        000005    1261  	equ	LN629,*-DPDA-ST629-1
                                  1262  "
                                  1263  " STATE 635
                        001173    1264  	equ	ST635,*-DPDA
    001173  aa   000006 000003    1265  	zero	APLYS,LN635
    001174  aa   777777 777777    1266  	zero	-1,-1   pd ld
    001175  aa   000002 000001    1267  	zero	2,1   rule/alt
    001176  aa   000002 001106    1268  	zero	2,ST582 prod/val
                        000003    1269  	equ	LN635,*-DPDA-ST635-1
                                  1270  "
                                  1271  " STATE 639
                        001177    1272  	equ	ST639,*-DPDA
    001177  aa   000002 001165    1273  	zero	STRDS,ST629
                                  1274
                                  1275  "
                                  1276  " STATE 640
                        001200    1277  	equ	ST640,*-DPDA
    001200  aa   000006 000003    1278  	zero	APLYS,LN640
    001201  aa   777777 777777    1279  	zero	-1,-1   pd ld
    001202  aa   000002 000001    1280  	zero	2,1   rule/alt
    001203  aa   000002 001106    1281  	zero	2,ST582 prod/val
                        000003    1282  	equ	LN640,*-DPDA-ST640-1
                                  1283  "
                                  1284  " STATE 644
                        001204    1285  	equ	ST644,*-DPDA
    001204  aa   000000 000001    1286  	zero	STRD,LN644
    001205  aa   000006 000440    1287  	zero	6,ST288	"<hyphen>
                        000001    1288  	equ	LN644,*-DPDA-ST644-1
                                  1289  "
                                  1290  " STATE 646
                        001206    1291  	equ	ST646,*-DPDA
    001206  aa   000005 000003    1292  	zero	APLY1,LN646
    001207  aa   000000 000000    1293  	zero	0,0   pd ld
    001210  aa   000060 000001    1294  	zero	48,1   rule/alt
    001211  aa   000027 000427    1295  	zero	23,ST279 prod/val
                        000003    1296  	equ	LN646,*-DPDA-ST646-1
                                  1297  "
                                  1298  " STATE 650
                        001212    1299  	equ	ST650,*-DPDA
    001212  aa   000002 001165    1300  	zero	STRDS,ST629
                                  1301
                                  1302  "
                                  1303  " STATE 651
                        001213    1304  	equ	ST651,*-DPDA
    001213  aa   000006 000003    1305  	zero	APLYS,LN651
    001214  aa   000000 000000    1306  	zero	0,0   pd ld
    001215  aa   000045 000001    1307  	zero	37,1   rule/alt
    001216  aa   000023 000502    1308  	zero	19,ST322 prod/val
                        000003    1309  	equ	LN651,*-DPDA-ST651-1
                                  1310  "
                                  1311  " STATE 655
                        001217    1312  	equ	ST655,*-DPDA
    001217  aa   000002 001165    1313  	zero	STRDS,ST629
                                  1314
                                  1315  "
                                  1316  " STATE 656
                        001220    1317  	equ	ST656,*-DPDA
    001220  aa   000006 000003    1318  	zero	APLYS,LN656
    001221  aa   777777 777777    1319  	zero	-1,-1   pd ld
    001222  aa   000002 000001    1320  	zero	2,1   rule/alt
    001223  aa   000002 001106    1321  	zero	2,ST582 prod/val
                        000003    1322  	equ	LN656,*-DPDA-ST656-1
                                  1323  "
                                  1324  " STATE 660
                        001224    1325  	equ	ST660,*-DPDA
    001224  aa   000002 001165    1326  	zero	STRDS,ST629
                                  1327
                                  1328  "
                                  1329  " STATE 661
                        001225    1330  	equ	ST661,*-DPDA
    001225  aa   000006 000003    1331  	zero	APLYS,LN661
    001226  aa   777777 777777    1332  	zero	-1,-1   pd ld
    001227  aa   000002 000001    1333  	zero	2,1   rule/alt
    001230  aa   000002 001106    1334  	zero	2,ST582 prod/val
                        000003    1335  	equ	LN661,*-DPDA-ST661-1
                                  1336  "
                                  1337  " STATE 665
                        001231    1338  	equ	ST665,*-DPDA
    001231  aa   000002 001165    1339  	zero	STRDS,ST629
                                  1340
                                  1341  "
                                  1342  " STATE 666
                        001232    1343  	equ	ST666,*-DPDA
    001232  aa   000006 000003    1344  	zero	APLYS,LN666
    001233  aa   777777 777777    1345  	zero	-1,-1   pd ld
    001234  aa   000002 000001    1346  	zero	2,1   rule/alt
    001235  aa   000002 001106    1347  	zero	2,ST582 prod/val
                        000003    1348  	equ	LN666,*-DPDA-ST666-1
                                  1349  "
                                  1350  " STATE 670
                        001236    1351  	equ	ST670,*-DPDA
    001236  aa   000002 001165    1352  	zero	STRDS,ST629
                                  1353
                                  1354  "
                                  1355  " STATE 671
                        001237    1356  	equ	ST671,*-DPDA
    001237  aa   000006 000003    1357  	zero	APLYS,LN671
    001240  aa   777777 777777    1358  	zero	-1,-1   pd ld
    001241  aa   000002 000001    1359  	zero	2,1   rule/alt
    001242  aa   000002 001106    1360  	zero	2,ST582 prod/val
                        000003    1361  	equ	LN671,*-DPDA-ST671-1
                                  1362  "
                                  1363  " STATE 675
                        001243    1364  	equ	ST675,*-DPDA
    001243  aa   000000 000002    1365  	zero	STRD,LN675
    001244  aa   000006 001004    1366  	zero	6,ST516	"<hyphen>
    001245  aa   000010 001010    1367  	zero	8,ST520	"<plus>
                        000002    1368  	equ	LN675,*-DPDA-ST675-1
                                  1369  "
                                  1370  " STATE 678
                        001246    1371  	equ	ST678,*-DPDA
    001246  aa   000006 000003    1372  	zero	APLYS,LN678
    001247  aa   777777 777777    1373  	zero	-1,-1   pd ld
    001250  aa   000002 000001    1374  	zero	2,1   rule/alt
    001251  aa   000002 001106    1375  	zero	2,ST582 prod/val
                        000003    1376  	equ	LN678,*-DPDA-ST678-1
                                  1377  "
                                  1378  " STATE 682
                        001252    1379  	equ	ST682,*-DPDA
    001252  aa   000000 000001    1380  	zero	STRD,LN682
    001253  aa   000007 001044    1381  	zero	7,ST548	"<asterisk>
                        000001    1382  	equ	LN682,*-DPDA-ST682-1
                                  1383  "
                                  1384  " STATE 684
                        001254    1385  	equ	ST684,*-DPDA
    001254  aa   000006 000003    1386  	zero	APLYS,LN684
    001255  aa   000000 000000    1387  	zero	0,0   pd ld
    001256  aa   000115 000001    1388  	zero	77,1   rule/alt
    001257  aa   000047 001044    1389  	zero	39,ST548 prod/val
                        000003    1390  	equ	LN684,*-DPDA-ST684-1
                                  1391  "
                                  1392  " STATE 688
                        001260    1393  	equ	ST688,*-DPDA
    001260  aa   000000 000001    1394  	zero	STRD,LN688
    001261  aa   000012 001051    1395  	zero	10,ST553	"<entry_name>
                        000001    1396  	equ	LN688,*-DPDA-ST688-1
                                  1397  "
                                  1398  " STATE 690
                        001262    1399  	equ	ST690,*-DPDA
    001262  aa   000005 000003    1400  	zero	APLY1,LN690
    001263  aa   000002 000002    1401  	zero	2,2   pd ld
    001264  aa   000073 000001    1402  	zero	59,1   rule/alt
    001265  aa   000034 000406    1403  	zero	28,ST262 prod/val
                        000003    1404  	equ	LN690,*-DPDA-ST690-1
                                  1405  "
                                  1406  " STATE 694
                        001266    1407  	equ	ST694,*-DPDA
    001266  aa   000000 000001    1408  	zero	STRD,LN694
    001267  aa   000012 001055    1409  	zero	10,ST557	"<entry_name>
                        000001    1410  	equ	LN694,*-DPDA-ST694-1
                                  1411  "
                                  1412  " STATE 696
                        001270    1413  	equ	ST696,*-DPDA
    001270  aa   000005 000003    1414  	zero	APLY1,LN696
    001271  aa   000002 000002    1415  	zero	2,2   pd ld
    001272  aa   000075 000001    1416  	zero	61,1   rule/alt
    001273  aa   000035 000402    1417  	zero	29,ST258 prod/val
                        000003    1418  	equ	LN696,*-DPDA-ST696-1
                                  1419  "
                                  1420  " STATE 700
                        001274    1421  	equ	ST700,*-DPDA
    001274  aa   000000 000001    1422  	zero	STRD,LN700
    001275  aa   000012 001061    1423  	zero	10,ST561	"<entry_name>
                        000001    1424  	equ	LN700,*-DPDA-ST700-1
                                  1425  "
                                  1426  " STATE 702
                        001276    1427  	equ	ST702,*-DPDA
    001276  aa   000005 000003    1428  	zero	APLY1,LN702
    001277  aa   000002 000002    1429  	zero	2,2   pd ld
    001300  aa   000077 000001    1430  	zero	63,1   rule/alt
    001301  aa   000036 000375    1431  	zero	30,ST253 prod/val
                        000003    1432  	equ	LN702,*-DPDA-ST702-1
                        001302    1433  	equ	DPDAs,*-DPDA
                                  1434
                                  1435
    001302  aa   000001 000014    1436  	zero	1,12	"SKIP/ADJ
                                  1437
    001303  aa   000007 000002    1438  	zero	7,2	"SKIP/ADJ
                                  1439
    001304  aa   000042 000000    1440  	zero	34,0	"SKIP/ADJ
                                  1441
    001305  aa   000004 001306    1442  	zero	4,710	"SKIP/ADJ
                                  1443
    001306  aa   000010 000010    1444  	zero	8,8	"SKIP/ADJ
                                  1445
    001307  aa   000013 000003    1446  	zero	11,3	"SKIP/ADJ
                                  1447
    001310  aa   000057 000003    1448  	zero	47,3	"SKIP/ADJ
                                  1449
    001311  aa   000776 000003    1450  	zero	510,3	"SKIP/ADJ
                                  1451
    001312  aa   001104 000003    1452  	zero	580,3	"SKIP/ADJ
                                  1453
    001313  aa   001124 000003    1454  	zero	596,3	"SKIP/ADJ
                                  1455
    001314  aa   001132 000003    1456  	zero	602,3	"SKIP/ADJ
                                  1457
    001315  aa   001157 000003    1458  	zero	623,3	"SKIP/ADJ
                                  1459
    001316  aa   001204 000003    1460  	zero	644,3	"SKIP/ADJ
                                  1461  	end

NO LITERALS

NAME DEFINITIONS FOR ENTRY POINTS AND SEGDEFS

    001320  5a   000003 000000
    001321  5a   000030 600000
    001322  aa   000000 000000
    001323  55   000014 000002
    001324  5a   000002 400003
    001325  55   000006 000014
    001326  aa  024 155 162 144
    001327  aa  163 137 162 163
    001330  aa  164 137 160 141
    001331  aa  162 163 145 137
    001332  aa  164 141 142 154
    001333  aa  145 000 000 000
    001334  55   000021 000003
    001335  0a   000000 400000
    001336  55   000017 000003
    001337  aa  004 104 120 104         DPDA
    001340  aa  101 000 000 000
    001341  55   000002 000014
    001342  6a   000000 400002
    001343  55   000024 000003
    001344  aa  014 163 171 155         symbol_table
    001345  aa  142 157 154 137
    001346  aa  164 141 142 154
    001347  aa  145 000 000 000

DEFINITIONS HASH TABLE

    001350  aa   000000 000015
    001351  aa   000000 000000
    001352  aa   000000 000000
    001353  aa   000000 000000
    001354  5a   000014 000000
    001355  aa   000000 000000
    001356  aa   000000 000000
    001357  5a   000021 000000
    001360  aa   000000 000000
    001361  aa   000000 000000
    001362  aa   000000 000000
    001363  aa   000000 000000
    001364  aa   000000 000000
    001365  aa   000000 000000

NO EXTERNAL NAMES

NO TRAP POINTER WORDS

TYPE PAIR BLOCKS

    001366  aa   000001 000000
    001367  aa   000000 000000

INTERNAL EXPRESSION WORDS

LINKAGE INFORMATION

    000000  aa   000000 000000
    000001  0a   001320 000000
    000002  aa   000000 000000
    000003  aa   000000 000000
    000004  aa   000000 000000
    000005  aa   000000 000000
    000006  22   000010 000010
    000007  a2   000000 000000
SYMBOL INFORMATION

SYMBOL TABLE HEADER

    000000  aa   000000 000001
    000001  aa   163171 155142
    000002  aa   164162 145145
    000003  aa   000000 000004
    000004  aa   000000 112143
    000005  aa   305203 523135
    000006  aa   000000 113466
    000007  aa   145652 114751
    000010  aa   141154 155040
    000011  aa   040040 040040
    000012  aa   000024 000040
    000013  aa   000034 000040
    000014  aa   000044 000100
    000015  aa   000002 000002
    000016  aa   000064 000000
    000017  aa   000000 000176
    000020  aa   000000 000112
    000021  aa   000000 000164
    000022  aa   000167 000112
    000023  aa   000064 000000
    000024  aa   101114 115040
    000025  aa   126145 162163
    000026  aa   151157 156040
    000027  aa   040066 056066
    000030  aa   040040 116157
    000031  aa   166145 155142
    000032  aa   145162 040061
    000033  aa   071070 062040
    000034  aa   107112 157150
    000035  aa   156163 157156
    000036  aa   056123 171163
    000037  aa   115141 151156
    000040  aa   164056 155040
    000041  aa   040040 040040
    000042  aa   040040 040040
    000043  aa   040040 040040
    000044  aa   154151 163164
    000045  aa   040040 040040
    000046  aa   040040 040040
    000047  aa   040040 040040
    000050  aa   040040 040040
    000051  aa   040040 040040
    000052  aa   040040 040040
    000053  aa   040040 040040
    000054  aa   040040 040040
    000055  aa   040040 040040
    000056  aa   040040 040040
    000057  aa   040040 040040
    000060  aa   040040 040040
    000061  aa   040040 040040
    000062  aa   040040 040040
    000063  aa   040040 040040
    000064  aa   000000 000001
    000065  aa   000000 000001
    000066  aa   000072 000076
    000067  aa   134642 013335
    000070  aa   000000 113466
    000071  aa   115442 400000
    000072  aa   076163 160145          >special_ldd>online>mrds.pbf-04/18/85>mrds_rst_parse_table.alm
    000073  aa   143151 141154
    000074  aa   137154 144144
    000075  aa   076157 156154
    000076  aa   151156 145076
    000077  aa   155162 144163
    000100  aa   056160 142146
    000101  aa   055060 064057
    000102  aa   061070 057070
    000103  aa   065076 155162
    000104  aa   144163 137162
    000105  aa   163164 137160
    000106  aa   141162 163145
    000107  aa   137164 141142
    000110  aa   154145 056141
    000111  aa   154155 040040
               MULTICS ASSEMBLY CROSS REFERENCE LISTING

   Value        Symbol                   Source file   Line number

          10    ADJUST                   mrds_rst_parse_table:      14.
           4    APLY                     mrds_rst_parse_table:      10,  213,  230,  389,  510,  527,  581,  651,  660,  883,
                                                                  1093, 1102, 1141, 1172.
           5    APLY1                    mrds_rst_parse_table:      11,   76,  109,  124,  132,  140,  162,  176,  191,  205,
                                                                   247,  414,  422,  437,  457,  472,  480,  488,  502,  519,
                                                                   565,  590,  622,  643,  700,  760,  774,  789,  797,  805,
                                                                   825,  833,  841,  849,  875,  900,  914,  922,  930,  938,
                                                                   958,  966,  989, 1030, 1038, 1046, 1069, 1077, 1085, 1111,
                                                                  1119, 1127, 1150, 1233, 1292, 1400, 1414, 1428.
           6    APLYS                    mrds_rst_parse_table:      12,  222,  239,  273,  295,  303,  311,  319,  327,  335,
                                                                   400,  536,  544,  557,  614,  684,  692, 1054, 1158, 1196,
                                                                  1210, 1247, 1265, 1278, 1305, 1318, 1331, 1344, 1357, 1372, 1386.
           0    DPDA                     mrds_rst_parse_table:      22,   23,   26,   29,   32,   38,   41,   45,   48,   51,
                                                                    54,   57,   60,   65,   68,   72,   75,   80,   83,   86,
                                                                    89,  105,  108,  113,  116,  120,  123,  128,  131,  136,
                                                                   139,  144,  147,  151,  154,  158,  161,  166,  169,  172,
                                                                   175,  180,  183,  187,  190,  195,  198,  201,  204,  209,
                                                                   212,  218,  221,  226,  229,  235,  238,  243,  246,  251,
                                                                   254,  269,  272,  277,  280,  285,  288,  291,  294,  299,
                                                                   302,  307,  310,  315,  318,  323,  326,  331,  334,  339,
                                                                   342,  345,  348,  358,  361,  371,  374,  378,  381,  385,
                                                                   388,  396,  399,  404,  407,  410,  413,  418,  421,  426,
                                                                   429,  433,  436,  441,  444,  447,  450,  453,  456,  461,
                                                                   464,  468,  471,  476,  479,  484,  487,  492,  495,  498,
                                                                   501,  506,  509,  515,  518,  523,  526,  532,  535,  540,
                                                                   543,  548,  551,  556,  561,  564,  569,  572,  577,  580,
                                                                   586,  589,  594,  597,  603,  606,  610,  613,  618,  621,
                                                                   626,  629,  639,  642,  647,  650,  656,  659,  674,  677,
                                                                   680,  683,  688,  691,  696,  699,  704,  707,  717,  720,
                                                                   730,  733,  743,  746,  756,  759,  764,  767,  770,  773,
                                                                   778,  781,  785,  788,  793,  796,  801,  804,  809,  812,
                                                                   815,  818,  821,  824,  829,  832,  837,  840,  845,  848,
                                                                   853,  856,  859,  862,  865,  868,  871,  874,  879,  882,
                                                                   888,  891,  896,  899,  904,  907,  910,  913,  918,  921,
                                                                   926,  929,  934,  937,  942,  945,  948,  951,  954,  957,
                                                                   962,  965,  970,  973,  977,  980,  985,  988,  993,  996,
                                                                  1002, 1005, 1011, 1014, 1020, 1023, 1026, 1029, 1034, 1037,
                                                                  1042, 1045, 1050, 1053, 1058, 1061, 1065, 1068, 1073, 1076,
                                                                  1081, 1084, 1089, 1092, 1098, 1101, 1107, 1110, 1115, 1118,
                                                                  1123, 1126, 1131, 1134, 1137, 1140, 1146, 1149, 1154, 1157,
                                                                  1162, 1165, 1168, 1171, 1186, 1189, 1192, 1195, 1200, 1203,
                                                                  1206, 1209, 1214, 1217, 1229, 1232, 1237, 1240, 1243, 1246,
                                                                  1251, 1254, 1261, 1264, 1269, 1272, 1277, 1282, 1285, 1288,
                                                                  1291, 1296, 1299, 1304, 1309, 1312, 1317, 1322, 1325, 1330,
                                                                  1335, 1338, 1343, 1348, 1351, 1356, 1361, 1364, 1368, 1371,
                                                                  1376, 1379, 1382, 1385, 1390, 1393, 1396, 1399, 1404, 1407,
                                                                  1410, 1413, 1418, 1421, 1424, 1427, 1432, 1433.
        1302    DPDAs                    mrds_rst_parse_table:      22, 1433.
           1    LN1                      mrds_rst_parse_table:      27,   29.
           4    LN100                    mrds_rst_parse_table:     230,  235.
           3    LN105                    mrds_rst_parse_table:     239,  243.
           3    LN109                    mrds_rst_parse_table:     247,  251.
           1    LN11                     mrds_rst_parse_table:      49,   51.
          15    LN113                    mrds_rst_parse_table:     255,  269.
           3    LN127                    mrds_rst_parse_table:     273,  277.
           1    LN13                     mrds_rst_parse_table:      55,   57.
           3    LN131                    mrds_rst_parse_table:     281,  285.
           1    LN135                    mrds_rst_parse_table:     289,  291.
           3    LN137                    mrds_rst_parse_table:     295,  299.
           3    LN141                    mrds_rst_parse_table:     303,  307.
           3    LN145                    mrds_rst_parse_table:     311,  315.
           3    LN149                    mrds_rst_parse_table:     319,  323.
           3    LN15                     mrds_rst_parse_table:      61,   65.
           3    LN153                    mrds_rst_parse_table:     327,  331.
           3    LN157                    mrds_rst_parse_table:     335,  339.
           1    LN161                    mrds_rst_parse_table:     343,  345.
          10    LN163                    mrds_rst_parse_table:     349,  358.
          10    LN172                    mrds_rst_parse_table:     362,  371.
           2    LN181                    mrds_rst_parse_table:     375,  378.
           2    LN184                    mrds_rst_parse_table:     382,  385.
           6    LN187                    mrds_rst_parse_table:     389,  396.
           2    LN19                     mrds_rst_parse_table:      69,   72.
           3    LN194                    mrds_rst_parse_table:     400,  404.
           1    LN198                    mrds_rst_parse_table:     408,  410.
           3    LN200                    mrds_rst_parse_table:     414,  418.
           3    LN204                    mrds_rst_parse_table:     422,  426.
           2    LN208                    mrds_rst_parse_table:     430,  433.
           3    LN211                    mrds_rst_parse_table:     437,  441.
           1    LN215                    mrds_rst_parse_table:     445,  447.
           1    LN217                    mrds_rst_parse_table:     451,  453.
           3    LN219                    mrds_rst_parse_table:     457,  461.
           3    LN22                     mrds_rst_parse_table:      76,   80.
           2    LN223                    mrds_rst_parse_table:     465,  468.
           3    LN226                    mrds_rst_parse_table:     472,  476.
           3    LN230                    mrds_rst_parse_table:     480,  484.
           3    LN234                    mrds_rst_parse_table:     488,  492.
           1    LN238                    mrds_rst_parse_table:     496,  498.
           3    LN240                    mrds_rst_parse_table:     502,  506.
           4    LN244                    mrds_rst_parse_table:     510,  515.
           3    LN249                    mrds_rst_parse_table:     519,  523.
           4    LN253                    mrds_rst_parse_table:     527,  532.
           3    LN258                    mrds_rst_parse_table:     536,  540.
           1    LN26                     mrds_rst_parse_table:      84,   86.
           3    LN262                    mrds_rst_parse_table:     544,  548.
           3    LN267                    mrds_rst_parse_table:     557,  561.
           3    LN271                    mrds_rst_parse_table:     565,  569.
           3    LN275                    mrds_rst_parse_table:     573,  577.
           4    LN279                    mrds_rst_parse_table:     581,  586.
          16    LN28                     mrds_rst_parse_table:      90,  105.
           3    LN284                    mrds_rst_parse_table:     590,  594.
           4    LN288                    mrds_rst_parse_table:     598,  603.
           2    LN293                    mrds_rst_parse_table:     607,  610.
           3    LN296                    mrds_rst_parse_table:     614,  618.
           4    LN3                      mrds_rst_parse_table:      33,   38.
           3    LN300                    mrds_rst_parse_table:     622,  626.
          10    LN304                    mrds_rst_parse_table:     630,  639.
           3    LN313                    mrds_rst_parse_table:     643,  647.
           4    LN317                    mrds_rst_parse_table:     651,  656.
          15    LN322                    mrds_rst_parse_table:     660,  674.
           1    LN336                    mrds_rst_parse_table:     678,  680.
           3    LN338                    mrds_rst_parse_table:     684,  688.
           3    LN342                    mrds_rst_parse_table:     692,  696.
           3    LN346                    mrds_rst_parse_table:     700,  704.
          10    LN350                    mrds_rst_parse_table:     708,  717.
          10    LN359                    mrds_rst_parse_table:     721,  730.
          10    LN368                    mrds_rst_parse_table:     734,  743.
          10    LN377                    mrds_rst_parse_table:     747,  756.
           3    LN386                    mrds_rst_parse_table:     760,  764.
           1    LN390                    mrds_rst_parse_table:     768,  770.
           3    LN392                    mrds_rst_parse_table:     774,  778.
           2    LN396                    mrds_rst_parse_table:     782,  785.
           3    LN399                    mrds_rst_parse_table:     789,  793.
           3    LN403                    mrds_rst_parse_table:     797,  801.
           3    LN407                    mrds_rst_parse_table:     805,  809.
           1    LN411                    mrds_rst_parse_table:     813,  815.
           1    LN413                    mrds_rst_parse_table:     819,  821.
           3    LN415                    mrds_rst_parse_table:     825,  829.
           3    LN419                    mrds_rst_parse_table:     833,  837.
           3    LN423                    mrds_rst_parse_table:     841,  845.
           3    LN427                    mrds_rst_parse_table:     849,  853.
           3    LN43                     mrds_rst_parse_table:     109,  113.
           1    LN431                    mrds_rst_parse_table:     857,  859.
           1    LN433                    mrds_rst_parse_table:     863,  865.
           1    LN435                    mrds_rst_parse_table:     869,  871.
           3    LN437                    mrds_rst_parse_table:     875,  879.
           4    LN441                    mrds_rst_parse_table:     883,  888.
           3    LN446                    mrds_rst_parse_table:     892,  896.
           3    LN450                    mrds_rst_parse_table:     900,  904.
           1    LN454                    mrds_rst_parse_table:     908,  910.
           3    LN456                    mrds_rst_parse_table:     914,  918.
           3    LN460                    mrds_rst_parse_table:     922,  926.
           3    LN464                    mrds_rst_parse_table:     930,  934.
           3    LN468                    mrds_rst_parse_table:     938,  942.
           2    LN47                     mrds_rst_parse_table:     117,  120.
           1    LN472                    mrds_rst_parse_table:     946,  948.
           1    LN474                    mrds_rst_parse_table:     952,  954.
           3    LN476                    mrds_rst_parse_table:     958,  962.
           3    LN480                    mrds_rst_parse_table:     966,  970.
           2    LN484                    mrds_rst_parse_table:     974,  977.
           3    LN487                    mrds_rst_parse_table:     981,  985.
           3    LN491                    mrds_rst_parse_table:     989,  993.
           4    LN495                    mrds_rst_parse_table:     997, 1002.
           3    LN50                     mrds_rst_parse_table:     124,  128.
           4    LN500                    mrds_rst_parse_table:    1006, 1011.
           4    LN505                    mrds_rst_parse_table:    1015, 1020.
           1    LN510                    mrds_rst_parse_table:    1024, 1026.
           3    LN512                    mrds_rst_parse_table:    1030, 1034.
           3    LN516                    mrds_rst_parse_table:    1038, 1042.
           3    LN520                    mrds_rst_parse_table:    1046, 1050.
           3    LN524                    mrds_rst_parse_table:    1054, 1058.
           2    LN528                    mrds_rst_parse_table:    1062, 1065.
           3    LN531                    mrds_rst_parse_table:    1069, 1073.
           3    LN535                    mrds_rst_parse_table:    1077, 1081.
           3    LN539                    mrds_rst_parse_table:    1085, 1089.
           3    LN54                     mrds_rst_parse_table:     132,  136.
           4    LN543                    mrds_rst_parse_table:    1093, 1098.
           4    LN548                    mrds_rst_parse_table:    1102, 1107.
           3    LN553                    mrds_rst_parse_table:    1111, 1115.
           3    LN557                    mrds_rst_parse_table:    1119, 1123.
           3    LN561                    mrds_rst_parse_table:    1127, 1131.
           1    LN565                    mrds_rst_parse_table:    1135, 1137.
           4    LN567                    mrds_rst_parse_table:    1141, 1146.
           3    LN572                    mrds_rst_parse_table:    1150, 1154.
           3    LN576                    mrds_rst_parse_table:    1158, 1162.
           3    LN58                     mrds_rst_parse_table:     140,  144.
           1    LN580                    mrds_rst_parse_table:    1166, 1168.
          15    LN582                    mrds_rst_parse_table:    1172, 1186.
           1    LN596                    mrds_rst_parse_table:    1190, 1192.
           3    LN598                    mrds_rst_parse_table:    1196, 1200.
           1    LN602                    mrds_rst_parse_table:    1204, 1206.
           3    LN604                    mrds_rst_parse_table:    1210, 1214.
          12    LN608                    mrds_rst_parse_table:    1218, 1229.
           3    LN619                    mrds_rst_parse_table:    1233, 1237.
           2    LN62                     mrds_rst_parse_table:     148,  151.
           1    LN623                    mrds_rst_parse_table:    1241, 1243.
           3    LN625                    mrds_rst_parse_table:    1247, 1251.
           5    LN629                    mrds_rst_parse_table:    1255, 1261.
           3    LN635                    mrds_rst_parse_table:    1265, 1269.
           3    LN640                    mrds_rst_parse_table:    1278, 1282.
           1    LN644                    mrds_rst_parse_table:    1286, 1288.
           3    LN646                    mrds_rst_parse_table:    1292, 1296.
           2    LN65                     mrds_rst_parse_table:     155,  158.
           3    LN651                    mrds_rst_parse_table:    1305, 1309.
           3    LN656                    mrds_rst_parse_table:    1318, 1322.
           3    LN661                    mrds_rst_parse_table:    1331, 1335.
           3    LN666                    mrds_rst_parse_table:    1344, 1348.
           3    LN671                    mrds_rst_parse_table:    1357, 1361.
           2    LN675                    mrds_rst_parse_table:    1365, 1368.
           3    LN678                    mrds_rst_parse_table:    1372, 1376.
           3    LN68                     mrds_rst_parse_table:     162,  166.
           1    LN682                    mrds_rst_parse_table:    1380, 1382.
           3    LN684                    mrds_rst_parse_table:    1386, 1390.
           1    LN688                    mrds_rst_parse_table:    1394, 1396.
           3    LN690                    mrds_rst_parse_table:    1400, 1404.
           1    LN694                    mrds_rst_parse_table:    1408, 1410.
           3    LN696                    mrds_rst_parse_table:    1414, 1418.
           1    LN700                    mrds_rst_parse_table:    1422, 1424.
           3    LN702                    mrds_rst_parse_table:    1428, 1432.
           1    LN72                     mrds_rst_parse_table:     170,  172.
           3    LN74                     mrds_rst_parse_table:     176,  180.
           2    LN78                     mrds_rst_parse_table:     184,  187.
           2    LN8                      mrds_rst_parse_table:      42,   45.
           3    LN81                     mrds_rst_parse_table:     191,  195.
           1    LN85                     mrds_rst_parse_table:     199,  201.
           3    LN87                     mrds_rst_parse_table:     205,  209.
           4    LN91                     mrds_rst_parse_table:     213,  218.
           3    LN96                     mrds_rst_parse_table:     222,  226.
           1    LOOK                     mrds_rst_parse_table:       7.
           3    LOOKS                    mrds_rst_parse_table:       9.
          11    NSRD                     mrds_rst_parse_table:      15,   33,   61,  148,  255,  281,  349,  362,  573,  630,
                                                                   708,  721,  734,  747,  892,  981,  997, 1006, 1015.
          12    NSRDS                    mrds_rst_parse_table:      16.
           7    SKIP                     mrds_rst_parse_table:      13.
           0    ST0                      mrds_rst_parse_table:      18,   50.
           1    ST1                      mrds_rst_parse_table:      26,   29.
         144    ST100                    mrds_rst_parse_table:     229,  235,  242,  298,  306,  314,  322,  330,  338,  393,
                                                                   394,  395,  617.
         151    ST105                    mrds_rst_parse_table:     238,  243,  886.
         155    ST109                    mrds_rst_parse_table:     233,  246,  251.
          13    ST11                     mrds_rst_parse_table:      48,   51,  425.
         161    ST113                    mrds_rst_parse_table:     250,  254,  269,  522.
         177    ST127                    mrds_rst_parse_table:     272,  277, 1236.
          15    ST13                     mrds_rst_parse_table:      28,   54,   57.
         203    ST131                    mrds_rst_parse_table:     216,  280,  285.
         207    ST135                    mrds_rst_parse_table:      91,  288,  291,  344, 1219.
         211    ST137                    mrds_rst_parse_table:      92,  294,  299, 1220.
         215    ST141                    mrds_rst_parse_table:      93,  302,  307, 1221.
         221    ST145                    mrds_rst_parse_table:      94,  310,  315, 1222.
         225    ST149                    mrds_rst_parse_table:      95,  318,  323, 1223.
          17    ST15                     mrds_rst_parse_table:      60,   65,   79,  194,  505.
         231    ST153                    mrds_rst_parse_table:      96,  326,  331, 1224.
         235    ST157                    mrds_rst_parse_table:      97,  334,  339, 1225.
         241    ST161                    mrds_rst_parse_table:      98,  342,  345,  887, 1226.
         243    ST163                    mrds_rst_parse_table:      99,  348,  358.
         254    ST172                    mrds_rst_parse_table:     100,  361,  371.
         265    ST181                    mrds_rst_parse_table:     101,  374,  378.
         270    ST184                    mrds_rst_parse_table:     102,  381,  385.
         273    ST187                    mrds_rst_parse_table:     103,  388,  396,  403, 1227, 1259.
          23    ST19                     mrds_rst_parse_table:      68,   72,  208.
         302    ST194                    mrds_rst_parse_table:     104,  399,  404, 1228, 1260.
         306    ST198                    mrds_rst_parse_table:     118,  407,  410,  585.
         310    ST200                    mrds_rst_parse_table:     119,  413,  418.
         314    ST204                    mrds_rst_parse_table:     421,  426,  440,  792,  961.
         320    ST208                    mrds_rst_parse_table:     429,  433,  808.
         323    ST211                    mrds_rst_parse_table:     436,  441, 1180, 1181.
         327    ST215                    mrds_rst_parse_table:     444,  447, 1205.
         331    ST217                    mrds_rst_parse_table:     450,  453,  483.
         333    ST219                    mrds_rst_parse_table:     456,  461, 1096.
          26    ST22                     mrds_rst_parse_table:      75,   80, 1176, 1177.
         337    ST223                    mrds_rst_parse_table:     460,  464,  468,  992.
         342    ST226                    mrds_rst_parse_table:     156,  471,  476.
         346    ST230                    mrds_rst_parse_table:     157,  479,  484,  820.
         352    ST234                    mrds_rst_parse_table:     171,  487,  492.
         356    ST238                    mrds_rst_parse_table:     185,  495,  498,  514.
         360    ST240                    mrds_rst_parse_table:     186,  501,  506.
         364    ST244                    mrds_rst_parse_table:     200,  509,  515.
         371    ST249                    mrds_rst_parse_table:     234,  518,  523.
         375    ST253                    mrds_rst_parse_table:     526,  532,  539,  547,  560, 1130, 1431.
         402    ST258                    mrds_rst_parse_table:     535,  540, 1122, 1417.
          32    ST26                     mrds_rst_parse_table:      83,   86, 1167.
         406    ST262                    mrds_rst_parse_table:     543,  548, 1114, 1403.
         412    ST266                    mrds_rst_parse_table:     217,  394,  551,  878.
         413    ST267                    mrds_rst_parse_table:     556,  561,  844.
         417    ST271                    mrds_rst_parse_table:     530,  564,  569.
         423    ST275                    mrds_rst_parse_table:     568,  572,  577,  852.
         427    ST279                    mrds_rst_parse_table:     580,  586,  593, 1295.
          34    ST28                     mrds_rst_parse_table:      89,  105,  135,  393,  552.
         434    ST284                    mrds_rst_parse_table:     589,  594, 1182, 1183.
         440    ST288                    mrds_rst_parse_table:     597,  603, 1242, 1287.
         445    ST293                    mrds_rst_parse_table:     290,  606,  610.
         450    ST296                    mrds_rst_parse_table:     613,  618,  887.
           3    ST3                      mrds_rst_parse_table:      32,   38,  127,  417.
         454    ST300                    mrds_rst_parse_table:     621,  626,  654.
         460    ST304                    mrds_rst_parse_table:     625,  629,  639,  903.
         471    ST313                    mrds_rst_parse_table:     642,  647,  663.
         475    ST317                    mrds_rst_parse_table:     392,  650,  656,  687,  695, 1057.
         502    ST322                    mrds_rst_parse_table:     659,  674, 1175, 1308.
         520    ST336                    mrds_rst_parse_table:     677,  680, 1256.
         522    ST338                    mrds_rst_parse_table:     683,  688, 1257.
         526    ST342                    mrds_rst_parse_table:     691,  696, 1258.
         532    ST346                    mrds_rst_parse_table:     664,  665,  699,  704.
         536    ST350                    mrds_rst_parse_table:     376,  707,  717.
         547    ST359                    mrds_rst_parse_table:     377,  720,  730.
         560    ST368                    mrds_rst_parse_table:     383,  733,  743.
         571    ST377                    mrds_rst_parse_table:     384,  746,  756.
         602    ST386                    mrds_rst_parse_table:     585,  759,  764.
         606    ST390                    mrds_rst_parse_table:     767,  770,  800.
         610    ST392                    mrds_rst_parse_table:     773,  778, 1144.
         614    ST396                    mrds_rst_parse_table:     777,  781,  785, 1080.
         617    ST399                    mrds_rst_parse_table:     431,  788,  793.
         623    ST403                    mrds_rst_parse_table:     432,  796,  801,  953.
         627    ST407                    mrds_rst_parse_table:     446,  804,  809.
         633    ST411                    mrds_rst_parse_table:     452,  812,  815.
         635    ST413                    mrds_rst_parse_table:     466,  818,  821, 1097.
         637    ST415                    mrds_rst_parse_table:     467,  824,  829.
         643    ST419                    mrds_rst_parse_table:     514,  832,  837.
         647    ST423                    mrds_rst_parse_table:     217,  840,  845.
         653    ST427                    mrds_rst_parse_table:     531,  848,  853.
          53    ST43                     mrds_rst_parse_table:     108,  113,  584.
         657    ST431                    mrds_rst_parse_table:     599,  856,  859.
         661    ST433                    mrds_rst_parse_table:     600,  862,  865.
         663    ST435                    mrds_rst_parse_table:     601,  868,  871.
         665    ST437                    mrds_rst_parse_table:     602,  874,  879.
         671    ST441                    mrds_rst_parse_table:     608,  882,  888, 1161.
         676    ST446                    mrds_rst_parse_table:     609,  891,  896.
         702    ST450                    mrds_rst_parse_table:     655,  899,  904.
         706    ST454                    mrds_rst_parse_table:     679,  907,  910.
         710    ST456                    mrds_rst_parse_table:     666,  667,  913,  918.
         714    ST460                    mrds_rst_parse_table:     668,  669,  921,  926.
         720    ST464                    mrds_rst_parse_table:     670,  671,  929,  934.
         724    ST468                    mrds_rst_parse_table:     672,  673,  937,  942.
          57    ST47                     mrds_rst_parse_table:     112,  116,  120,  763.
         730    ST472                    mrds_rst_parse_table:     769,  945,  948.
         732    ST474                    mrds_rst_parse_table:     783,  951,  954, 1145.
         734    ST476                    mrds_rst_parse_table:     784,  957,  962.
         740    ST480                    mrds_rst_parse_table:     965,  970, 1105.
         744    ST484                    mrds_rst_parse_table:     969,  973,  977, 1088, 1106.
         747    ST487                    mrds_rst_parse_table:     814,  976,  980,  985.
         753    ST491                    mrds_rst_parse_table:     988,  993, 1097.
         757    ST495                    mrds_rst_parse_table:     858,  996, 1002.
          62    ST50                     mrds_rst_parse_table:      43,  123,  128.
         764    ST500                    mrds_rst_parse_table:     864, 1005, 1011.
         771    ST505                    mrds_rst_parse_table:     870, 1014, 1020.
         776    ST510                    mrds_rst_parse_table:    1023, 1026, 1033, 1041, 1049.
        1000    ST512                    mrds_rst_parse_table:    1029, 1034, 1184, 1185.
        1004    ST516                    mrds_rst_parse_table:    1037, 1042, 1366.
        1010    ST520                    mrds_rst_parse_table:    1045, 1050, 1367.
        1014    ST524                    mrds_rst_parse_table:     909, 1053, 1058.
        1020    ST528                    mrds_rst_parse_table:    1061, 1065, 1072, 1153.
        1023    ST531                    mrds_rst_parse_table:     947, 1068, 1073.
        1027    ST535                    mrds_rst_parse_table:    1076, 1081, 1145.
        1033    ST539                    mrds_rst_parse_table:    1084, 1089, 1106.
          66    ST54                     mrds_rst_parse_table:      44,  131,  136,  409.
        1037    ST543                    mrds_rst_parse_table:     975, 1092, 1098.
        1044    ST548                    mrds_rst_parse_table:    1101, 1107, 1381, 1389.
        1051    ST553                    mrds_rst_parse_table:    1110, 1115, 1395.
        1055    ST557                    mrds_rst_parse_table:    1118, 1123, 1409.
        1061    ST561                    mrds_rst_parse_table:    1126, 1131, 1423.
        1065    ST565                    mrds_rst_parse_table:    1025, 1134, 1137.
        1067    ST567                    mrds_rst_parse_table:    1063, 1140, 1146.
        1074    ST572                    mrds_rst_parse_table:    1064, 1149, 1154.
        1100    ST576                    mrds_rst_parse_table:    1136, 1157, 1162.
          72    ST58                     mrds_rst_parse_table:      56,  139,  144.
        1104    ST580                    mrds_rst_parse_table:      35, 1165, 1168, 1176.
        1106    ST582                    mrds_rst_parse_table:      34,   36,   37, 1171, 1177, 1186, 1199, 1213, 1250, 1268,
                                                                  1281, 1321, 1334, 1347, 1360, 1375.
        1124    ST596                    mrds_rst_parse_table:      63, 1178, 1189, 1192.
        1126    ST598                    mrds_rst_parse_table:      62,   64, 1179, 1195, 1200.
        1132    ST602                    mrds_rst_parse_table:     150, 1180, 1203, 1206.
        1134    ST604                    mrds_rst_parse_table:     149, 1181, 1209, 1214.
        1140    ST608                    mrds_rst_parse_table:     234,  256,  260,  261,  262,  263,  264,  265,  266,  267,
                                                                   268,  395, 1217, 1229.
        1153    ST619                    mrds_rst_parse_table:     257,  258,  259, 1232, 1237.
          76    ST62                     mrds_rst_parse_table:     147,  151,  165,  475,  828.
        1157    ST623                    mrds_rst_parse_table:     284, 1182, 1240, 1243.
        1161    ST625                    mrds_rst_parse_table:     282,  283, 1183, 1246, 1251.
        1165    ST629                    mrds_rst_parse_table:     350,  354,  355,  356,  357, 1254, 1261, 1273, 1300, 1313,
                                                                  1326, 1339, 1352.
        1173    ST635                    mrds_rst_parse_table:     351,  352,  353, 1264, 1269.
        1177    ST639                    mrds_rst_parse_table:     363,  367,  368,  369,  370,  664, 1272.
        1200    ST640                    mrds_rst_parse_table:     364,  365,  366,  665, 1277, 1282.
        1204    ST644                    mrds_rst_parse_table:     531,  576, 1285, 1288.
        1206    ST646                    mrds_rst_parse_table:     574,  575, 1291, 1296.
         101    ST65                     mrds_rst_parse_table:     154,  158,  491.
        1212    ST650                    mrds_rst_parse_table:     631,  635,  636,  637,  638,  655, 1299.
        1213    ST651                    mrds_rst_parse_table:     632,  633,  634, 1304, 1309.
        1217    ST655                    mrds_rst_parse_table:     666,  709,  713,  714,  715,  716, 1312.
        1220    ST656                    mrds_rst_parse_table:     667,  710,  711,  712, 1317, 1322.
        1224    ST660                    mrds_rst_parse_table:     668,  722,  726,  727,  728,  729, 1325.
        1225    ST661                    mrds_rst_parse_table:     669,  723,  724,  725, 1330, 1335.
        1231    ST665                    mrds_rst_parse_table:     670,  735,  739,  740,  741,  742, 1338.
        1232    ST666                    mrds_rst_parse_table:     671,  736,  737,  738, 1343, 1348.
        1236    ST670                    mrds_rst_parse_table:     672,  748,  752,  753,  754,  755, 1351.
        1237    ST671                    mrds_rst_parse_table:     673,  749,  750,  751, 1356, 1361.
        1243    ST675                    mrds_rst_parse_table:     893,  894, 1184, 1364, 1368.
        1246    ST678                    mrds_rst_parse_table:     895, 1185, 1371, 1376.
         104    ST68                     mrds_rst_parse_table:     161,  166, 1178, 1179.
        1252    ST682                    mrds_rst_parse_table:     983, 1379, 1382.
        1254    ST684                    mrds_rst_parse_table:     982,  984, 1385, 1390.
        1260    ST688                    mrds_rst_parse_table:    1001, 1393, 1396.
        1262    ST690                    mrds_rst_parse_table:     998,  999, 1000, 1399, 1404.
        1266    ST694                    mrds_rst_parse_table:    1010, 1407, 1410.
        1270    ST696                    mrds_rst_parse_table:    1007, 1008, 1009, 1413, 1418.
        1274    ST700                    mrds_rst_parse_table:    1019, 1421, 1424.
        1276    ST702                    mrds_rst_parse_table:    1016, 1017, 1018, 1427, 1432.
         110    ST72                     mrds_rst_parse_table:     169,  172, 1191.
         112    ST74                     mrds_rst_parse_table:     175,  180,  513.
         116    ST78                     mrds_rst_parse_table:     179,  183,  187,  836.
          10    ST8                      mrds_rst_parse_table:      41,   45,  143.
         121    ST81                     mrds_rst_parse_table:      70,  190,  195.
         125    ST85                     mrds_rst_parse_table:      71,  198,  201,  497.
         127    ST87                     mrds_rst_parse_table:      85,  204,  209.
         133    ST91                     mrds_rst_parse_table:     212,  218,  225,  276,  646,  917,  933.
         140    ST96                     mrds_rst_parse_table:     221,  226,  703,  925,  941.
           0    STRD                     mrds_rst_parse_table:       6,   27,   42,   49,   55,   69,   84,   90,  117,  155,
                                                                   170,  184,  199,  289,  343,  375,  382,  408,  430,  445,
                                                                   451,  465,  496,  598,  607,  678,  768,  782,  813,  819,
                                                                   857,  863,  869,  908,  946,  952,  974, 1024, 1062, 1135,
                                                                  1166, 1190, 1204, 1218, 1241, 1255, 1286, 1365, 1380, 1394,
                                                                  1408, 1422.
           2    STRDS                    mrds_rst_parse_table:       8,  552, 1273, 1300, 1313, 1326, 1339, 1352.
           0    T0                       mrds_rst_parse_table:      17.


NO FATAL ERRORS


                                          -----------------------------------------------------------


Historical Background

This edition of the Multics software materials and documentation is provided and donated
to Massachusetts Institute of Technology by Group BULL including BULL HN Information Systems Inc.
as a contribution to computer science knowledge.
This donation is made also to give evidence of the common contributions of Massachusetts Institute of Technology,
Bell Laboratories, General Electric, Honeywell Information Systems Inc., Honeywell BULL Inc., Groupe BULL
and BULL HN Information Systems Inc. to the development of this operating system.
Multics development was initiated by Massachusetts Institute of Technology Project MAC (1963-1970),
renamed the MIT Laboratory for Computer Science and Artificial Intelligence in the mid 1970s, under the leadership
of Professor Fernando Jose Corbato. Users consider that Multics provided the best software architecture
for managing computer hardware properly and for executing programs. Many subsequent operating systems
incorporated Multics principles.
Multics was distributed in 1975 to 2000 by Group Bull in Europe , and in the U.S. by Bull HN Information Systems Inc.,
as successor in interest by change in name only to Honeywell Bull Inc. and Honeywell Information Systems Inc. .

                                          -----------------------------------------------------------

Permission to use, copy, modify, and distribute these programs and their documentation for any purpose and without
fee is hereby granted,provided that the below copyright notice and historical background appear in all copies
and that both the copyright notice and historical background and this permission notice appear in supporting
documentation, and that the names of MIT, HIS, BULL or BULL HN not be used in advertising or publicity pertaining
to distribution of the programs without specific prior written permission.
    Copyright 1972 by Massachusetts Institute of Technology and Honeywell Information Systems Inc.
    Copyright 2006 by BULL HN Information Systems Inc.
    Copyright 2006 by Bull SAS
    All Rights Reserved
