ASSEMBLY LISTING OF SEGMENT >spec>install>1199>mrds_rst_.alm
ASSEMBLED ON:	10/23/86  1010.7 mst Thu
OPTIONS USED:	-target Level68 list
ASSEMBLED BY:	ALM Version  6.7  October 1986
ASSEMBLER CREATED:	10/08/86  1557.5 mst Wed

                                     1  " ***********************************************************
                                     2  " *                                                         *
                                     3  " * Copyright, (C) Honeywell Information Systems Inc., 1981 *
                                     4  " *                                                         *
                                     5  " ***********************************************************
                                     6
                                     7  " HISTORY COMMENTS:
                                     8  "  1) change(86-06-13,Dupuis), approve(86-08-05,MCR7491),
                                     9  "     audit(86-08-08,Blair), install(86-08-15,MR12.0-1127):
                                    10  "     Made available so that an unbound version of mrds could be created
                                    11  "     easily. (phx20405, mrds #157)
                                    12  "  2) change(86-10-21,Blair), approve(86-10-21,PBF7311),
                                    13  "     audit(86-10-23,Dupuis), install(86-10-23,MR12.0-1199):
                                    14  "     Add the name execute_undo so that rmdb_execute_undo can be called from
                                    15  "     display_mrds_dm which is outside of the rmdb subsystem.
                                    16  "                                                      END HISTORY COMMENTS
                                    17
                                    18  "
                                    19  "81-05-27 Jim Gray : created to support the bound_mrds_create_ segment
                                    20  "since display_mrds_dm needs access to some mrds_rst_ modules, but is in bound_mrds_
                                    21  "
                                    22  "82-07-07 Roger Lackey : added add_rmdb_history for rmdb_add_rmdb_history
                                    23  "
                                    24  "83-02-15 Ron Harvey : deleted $create_rsc, $global_list_build, $build_seg_info_ls
                                    25  "	    as they were no longer called.
                                    26
                                    27
    000000                          28  	name	mrds_rst_
                                    29
                        000000      30  	entry	add_rmdb_history
    000000                          31  add_rmdb_history:
    000000  4a  4 00010 7101 20     32  	tra	<rmdb_add_rmdb_history>|[add_rmdb_history]
                                    33
                        000001      34  	entry     execute_undo
    000001                          35  execute_undo:
    000001  4a  4 00012 7101 20     36  	tra	<rmdb_execute_undo>|[execute_undo]
                                    37
                                    38  	end
ENTRY SEQUENCES

    000002  5a   000020 0000 00
    000003  aa  7 00046 2721 20
    000004  0a   000000 7100 00
    000005  5a   000011 0000 00
    000006  aa  7 00046 2721 20
    000007  0a   000001 7100 00

NO LITERALS

NAME DEFINITIONS FOR ENTRY POINTS AND SEGDEFS

    000010  5a   000003 000000
    000011  5a   000037 600000
    000012  aa   000000 000000
    000013  55   000011 000002
    000014  5a   000002 400003
    000015  55   000006 000011
    000016  aa  011 155 162 144
    000017  aa  163 137 162 163
    000020  aa  164 137 000 000
    000021  55   000020 000003
    000022  0a   000006 500000
    000023  55   000014 000003
    000024  aa  014 145 170 145         execute_undo
    000025  aa  143 165 164 145
    000026  aa  137 165 156 144
    000027  aa  157 000 000 000
    000030  55   000030 000011
    000031  0a   000003 500000
    000032  55   000023 000003
    000033  aa  020 141 144 144         add_rmdb_history
    000034  aa  137 162 155 144
    000035  aa  142 137 150 151
    000036  aa  163 164 157 162
    000037  aa  171 000 000 000
    000040  55   000002 000020
    000041  6a   000000 400002
    000042  55   000033 000003
    000043  aa  014 163 171 155         symbol_table
    000044  aa  142 157 154 137
    000045  aa  164 141 142 154
    000046  aa  145 000 000 000

DEFINITIONS HASH TABLE

    000047  aa   000000 000015
    000050  aa   000000 000000
    000051  aa   000000 000000
    000052  aa   000000 000000
    000053  aa   000000 000000
    000054  aa   000000 000000
    000055  aa   000000 000000
    000056  5a   000030 000000
    000057  5a   000011 000000
    000060  5a   000020 000000
    000061  aa   000000 000000
    000062  aa   000000 000000
    000063  aa   000000 000000
    000064  aa   000000 000000

EXTERNAL NAMES

    000065  aa  021 162 155 144         rmdb_execute_undo
    000066  aa  142 137 145 170
    000067  aa  145 143 165 164
    000070  aa  145 137 165 156
    000071  aa  144 157 000 000
    000072  aa  025 162 155 144         rmdb_add_rmdb_history
    000073  aa  142 137 141 144
    000074  aa  144 137 162 155
    000075  aa  144 142 137 150
    000076  aa  151 163 164 157
    000077  aa  162 171 000 000

NO TRAP POINTER WORDS

TYPE PAIR BLOCKS

    000100  aa   000004 000000
    000101  55   000055 000014
    000102  aa   000004 000000
    000103  55   000062 000023
    000104  aa   000001 000000
    000105  aa   000000 000000

INTERNAL EXPRESSION WORDS

    000106  5a   000070 000000
    000107  5a   000072 000000
LINKAGE INFORMATION

    000000  aa   000000 000000
    000001  0a   000010 000000
    000002  aa   000000 000000
    000003  aa   000000 000000
    000004  aa   000000 000000
    000005  aa   000000 000000
    000006  22   000010 000014
    000007  a2   000000 000000
    000010  9a   777770 0000 46         rmdb_add_rmdb_history|add_rmdb_history
    000011  5a   000077 0000 00
    000012  9a   777766 0000 46         rmdb_execute_undo|execute_undo
    000013  5a   000076 0000 00
SYMBOL INFORMATION

SYMBOL TABLE HEADER

    000000  aa   000000 000001
    000001  aa   163171 155142
    000002  aa   164162 145145
    000003  aa   000000 000004
    000004  aa   000000 114732
    000005  aa   732732 062314
    000006  aa   000000 114755
    000007  aa   367652 623064
    000010  aa   141154 155040
    000011  aa   040040 040040
    000012  aa   000024 000040
    000013  aa   000034 000040
    000014  aa   000044 000100
    000015  aa   000002 000002
    000016  aa   000064 000000
    000017  aa   000000 000120
    000020  aa   000000 000102
    000021  aa   000000 000106
    000022  aa   000112 000102
    000023  aa   000064 000000
    000024  aa   101114 115040
    000025  aa   126145 162163
    000026  aa   151157 156040
    000027  aa   040066 056067
    000030  aa   040040 117143
    000031  aa   164157 142145
    000032  aa   162040 061071
    000033  aa   070066 040040
    000034  aa   107112 157150
    000035  aa   156163 157156
    000036  aa   056123 171163
    000037  aa   115141 151156
    000040  aa   164056 141040
    000041  aa   040040 040040
    000042  aa   040040 040040
    000043  aa   040040 040040
    000044  aa   055164 141162
    000045  aa   147145 164040
    000046  aa   114145 166145
    000047  aa   154066 070040
    000050  aa   154151 163164
    000051  aa   040040 040040
    000052  aa   040040 040040
    000053  aa   040040 040040
    000054  aa   040040 040040
    000055  aa   040040 040040
    000056  aa   040040 040040
    000057  aa   040040 040040
    000060  aa   040040 040040
    000061  aa   040040 040040
    000062  aa   040040 040040
    000063  aa   040040 040040
    000064  aa   000000 000001
    000065  aa   000000 000001
    000066  aa   000072 000040
    000067  aa   147546 117441
    000070  aa   000000 114755
    000071  aa   366524 400000
    000072  aa   076163 160145          >spec>install>1199>mrds_rst_.alm
    000073  aa   143076 151156
    000074  aa   163164 141154
    000075  aa   154076 061061
    000076  aa   071071 076155
    000077  aa   162144 163137
    000100  aa   162163 164137
    000101  aa   056141 154155
               MULTICS ASSEMBLY CROSS REFERENCE LISTING

   Value        Symbol                   Source file   Line number

           0    add_rmdb_history         mrds_rst_:     30,   31,   32.
           1    execute_undo             mrds_rst_:     34,   35,   36.
                rmdb_add_rmdb_history    mrds_rst_:     32.
                rmdb_execute_undo        mrds_rst_:     36.


NO FATAL ERRORS


                                          -----------------------------------------------------------


Historical Background

This edition of the Multics software materials and documentation is provided and donated
to Massachusetts Institute of Technology by Group BULL including BULL HN Information Systems Inc.
as a contribution to computer science knowledge.
This donation is made also to give evidence of the common contributions of Massachusetts Institute of Technology,
Bell Laboratories, General Electric, Honeywell Information Systems Inc., Honeywell BULL Inc., Groupe BULL
and BULL HN Information Systems Inc. to the development of this operating system.
Multics development was initiated by Massachusetts Institute of Technology Project MAC (1963-1970),
renamed the MIT Laboratory for Computer Science and Artificial Intelligence in the mid 1970s, under the leadership
of Professor Fernando Jose Corbato. Users consider that Multics provided the best software architecture
for managing computer hardware properly and for executing programs. Many subsequent operating systems
incorporated Multics principles.
Multics was distributed in 1975 to 2000 by Group Bull in Europe , and in the U.S. by Bull HN Information Systems Inc.,
as successor in interest by change in name only to Honeywell Bull Inc. and Honeywell Information Systems Inc. .

                                          -----------------------------------------------------------

Permission to use, copy, modify, and distribute these programs and their documentation for any purpose and without
fee is hereby granted,provided that the below copyright notice and historical background appear in all copies
and that both the copyright notice and historical background and this permission notice appear in supporting
documentation, and that the names of MIT, HIS, BULL or BULL HN not be used in advertising or publicity pertaining
to distribution of the programs without specific prior written permission.
    Copyright 1972 by Massachusetts Institute of Technology and Honeywell Information Systems Inc.
    Copyright 2006 by BULL HN Information Systems Inc.
    Copyright 2006 by Bull SAS
    All Rights Reserved
