ASSEMBLY LISTING OF SEGMENT >spec>online>mrpg0520>mrpg_tables_.alm
ASSEMBLED ON:	05/20/80  1918.9 mst Tue
OPTIONS USED:	list
ASSEMBLED BY:	ALM Version 6.2, June 1979
ASSEMBLER CREATED:	01/28/80  0927.8 mst Mon

                                     1  "  ******************************************************
                                     2  "  *                                                    *
                                     3  "  *                                                    *
                                     4  "  * Copyright (c) 1972 by Massachusetts Institute of   *
                                     5  "  * Technology and Honeywell Information Systems, Inc. *
                                     6  "  *                                                    *
                                     7  "  *                                                    *
                                     8  "  ******************************************************
                                     9
                        000000      10  	equ	STRD,0
                        000001      11  	equ	LOOK,1
                        000002      12  	equ	STRDS,2
                        000003      13  	equ	LOOKS,3
                        000004      14  	equ	APLY,4
                        000005      15  	equ	APLY1,5
                        000006      16  	equ	APLYS,6
                        000007      17  	equ	SKIP,7
                        000010      18  	equ	ADJUST,8
                        000011      19  	equ	NSRD,9
                        000012      20  	equ	NSRDS,10
                        000000      21  	equ	T0,0
                        000000      22  	equ	ST0,0
                                    23  "
                                    24  "
                                    25  " TERMINALS table (TL TC)
                                    26  "
                                    27  	use	utc
    000000  aa   000000 000000      28  TC:	zero	0,TCs*4
                        000000      29  	segdef	TC
                        000000      30  	equ	T0,0
                                    31  	use	utl
    000317  aa   000000 000166      32  TL:	zero	0,TLs
                        000317      33  	segdef	TL
                                    34  "
                                    35  " TERMINAL 1
                                    36  	use	utc
                        000000      37  	set	Tsl,*-TC-1
    000001  aa  045 101 102 123     38  	aci	"%ABS"
    000002  aa  105 116 124 040     39  	aci	"ENT "
                                    40  	use	utl
                        000001      41  	equ	T1,*-TL
    000320  aa   000001 000007      42  	zero	Tsl*4+1,7
                                    43  "
                                    44  " TERMINAL 2
                                    45  	use	utc
                        000002      46  	set	Tsl,*-TC-1
    000003  aa  045 104 101 131     47  	aci	"%DAY"
                                    48  	use	utl
                        000002      49  	equ	T2,*-TL
    000321  aa   000011 000004      50  	zero	Tsl*4+1,4
                                    51  "
                                    52  " TERMINAL 3
                                    53  	use	utc
                        000003      54  	set	Tsl,*-TC-1
    000004  aa  045 106 111 124     55  	aci	"%FIT"
                                    56  	use	utl
                        000003      57  	equ	T3,*-TL
    000322  aa   000015 000004      58  	zero	Tsl*4+1,4
                                    59  "
                                    60  " TERMINAL 4
                                    61  	use	utc
                        000004      62  	set	Tsl,*-TC-1
    000005  aa  045 110 110 115     63  	aci	"%HHM"
    000006  aa  115 123 123 040     64  	aci	"MSS "
                                    65  	use	utl
                        000004      66  	equ	T4,*-TL
    000323  aa   000021 000007      67  	zero	Tsl*4+1,7
                                    68  "
                                    69  " TERMINAL 5
                                    70  	use	utc
                        000006      71  	set	Tsl,*-TC-1
    000007  aa  045 114 105 126     72  	aci	"%LEV"
    000010  aa  105 114 040 040     73  	aci	"EL  "
                                    74  	use	utl
                        000005      75  	equ	T5,*-TL
    000324  aa   000031 000006      76  	zero	Tsl*4+1,6
                                    77  "
                                    78  " TERMINAL 6
                                    79  	use	utc
                        000010      80  	set	Tsl,*-TC-1
    000011  aa  045 115 115 104     81  	aci	"%MMD"
    000012  aa  104 131 131 040     82  	aci	"DYY "
                                    83  	use	utl
                        000006      84  	equ	T6,*-TL
    000325  aa   000041 000007      85  	zero	Tsl*4+1,7
                                    86  "
                                    87  " TERMINAL 7
                                    88  	use	utc
                        000012      89  	set	Tsl,*-TC-1
    000013  aa  045 115 117 116     90  	aci	"%MON"
    000014  aa  124 110 040 040     91  	aci	"TH  "
                                    92  	use	utl
                        000007      93  	equ	T7,*-TL
    000326  aa   000051 000006      94  	zero	Tsl*4+1,6
                                    95  "
                                    96  " TERMINAL 8
                                    97  	use	utc
                        000014      98  	set	Tsl,*-TC-1
    000015  aa  045 120 101 107     99  	aci	"%PAG"
    000016  aa  105 116 125 115    100  	aci	"ENUM"
    000017  aa  102 105 122 040    101  	aci	"BER "
                                   102  	use	utl
                        000010     103  	equ	T8,*-TL
    000327  aa   000061 000013     104  	zero	Tsl*4+1,11
                                   105  "
                                   106  " TERMINAL 9
                                   107  	use	utc
                        000017     108  	set	Tsl,*-TC-1
    000020  aa  045 120 122 105    109  	aci	"%PRE"
    000021  aa  123 105 116 124    110  	aci	"SENT"
                                   111  	use	utl
                        000011     112  	equ	T9,*-TL
    000330  aa   000075 000010     113  	zero	Tsl*4+1,8
                                   114  "
                                   115  " TERMINAL 10
                                   116  	use	utc
                        000021     117  	set	Tsl,*-TC-1
    000022  aa  045 122 105 120    118  	aci	"%REP"
    000023  aa  105 101 124 040    119  	aci	"EAT "
                                   120  	use	utl
                        000012     121  	equ	T10,*-TL
    000331  aa   000105 000007     122  	zero	Tsl*4+1,7
                                   123  "
                                   124  " TERMINAL 11
                                   125  	use	utc
                        000023     126  	set	Tsl,*-TC-1
    000024  aa  045 122 117 115    127  	aci	"%ROM"
    000025  aa  101 116 040 040    128  	aci	"AN  "
                                   129  	use	utl
                        000013     130  	equ	T11,*-TL
    000332  aa   000115 000006     131  	zero	Tsl*4+1,6
                                   132  "
                                   133  " TERMINAL 12
                                   134  	use	utc
                        000025     135  	set	Tsl,*-TC-1
    000026  aa  045 123 125 102    136  	aci	"%SUB"
    000027  aa  123 124 122 040    137  	aci	"STR "
                                   138  	use	utl
                        000014     139  	equ	T12,*-TL
    000333  aa   000125 000007     140  	zero	Tsl*4+1,7
                                   141  "
                                   142  " TERMINAL 13
                                   143  	use	utc
                        000027     144  	set	Tsl,*-TC-1
    000030  aa  045 131 131 104    145  	aci	"%YYD"
    000031  aa  104 104 040 040    146  	aci	"DD  "
                                   147  	use	utl
                        000015     148  	equ	T13,*-TL
    000334  aa   000135 000006     149  	zero	Tsl*4+1,6
                                   150  "
                                   151  " TERMINAL 14
                                   152  	use	utc
                        000031     153  	set	Tsl,*-TC-1
    000032  aa  050 040 040 040    154  	aci	"(   "
                                   155  	use	utl
                        000016     156  	equ	T14,*-TL
    000335  aa   000145 000001     157  	zero	Tsl*4+1,1
                                   158  "
                                   159  " TERMINAL 15
                                   160  	use	utc
                        000032     161  	set	Tsl,*-TC-1
    000033  aa  051 040 040 040    162  	aci	")   "
                                   163  	use	utl
                        000017     164  	equ	T15,*-TL
    000336  aa   000151 000001     165  	zero	Tsl*4+1,1
                                   166  "
                                   167  " TERMINAL 16
                                   168  	use	utc
                        000033     169  	set	Tsl,*-TC-1
    000034  aa  052 040 040 040    170  	aci	"*   "
                                   171  	use	utl
                        000020     172  	equ	T16,*-TL
    000337  aa   000155 000001     173  	zero	Tsl*4+1,1
                                   174  "
                                   175  " TERMINAL 17
                                   176  	use	utc
                        000034     177  	set	Tsl,*-TC-1
    000035  aa  053 040 040 040    178  	aci	"+   "
                                   179  	use	utl
                        000021     180  	equ	T17,*-TL
    000340  aa   000161 000001     181  	zero	Tsl*4+1,1
                                   182  "
                                   183  " TERMINAL 18
                                   184  	use	utc
                        000035     185  	set	Tsl,*-TC-1
    000036  aa  054 040 040 040    186  	aci	",   "
                                   187  	use	utl
                        000022     188  	equ	T18,*-TL
    000341  aa   000165 000001     189  	zero	Tsl*4+1,1
                                   190  "
                                   191  " TERMINAL 19
                                   192  	use	utc
                        000036     193  	set	Tsl,*-TC-1
    000037  aa  055 040 040 040    194  	aci	"-   "
                                   195  	use	utl
                        000023     196  	equ	T19,*-TL
    000342  aa   000171 000001     197  	zero	Tsl*4+1,1
                                   198  "
                                   199  " TERMINAL 20
                                   200  	use	utc
                        000037     201  	set	Tsl,*-TC-1
    000040  aa  055 076 040 040    202  	aci	"->  "
                                   203  	use	utl
                        000024     204  	equ	T20,*-TL
    000343  aa   000175 000002     205  	zero	Tsl*4+1,2
                                   206  "
                                   207  " TERMINAL 21
                                   208  	use	utc
                        000040     209  	set	Tsl,*-TC-1
    000041  aa  057 040 040 040    210  	aci	"/   "
                                   211  	use	utl
                        000025     212  	equ	T21,*-TL
    000344  aa   000201 000001     213  	zero	Tsl*4+1,1
                                   214  "
                                   215  " TERMINAL 22
                                   216  	use	utc
                        000041     217  	set	Tsl,*-TC-1
    000042  aa  072 075 040 040    218  	aci	":=  "
                                   219  	use	utl
                        000026     220  	equ	T22,*-TL
    000345  aa   000205 000002     221  	zero	Tsl*4+1,2
                                   222  "
                                   223  " TERMINAL 23
                                   224  	use	utc
                        000042     225  	set	Tsl,*-TC-1
    000043  aa  073 040 040 040    226  	aci	";   "
                                   227  	use	utl
                        000027     228  	equ	T23,*-TL
    000346  aa   000211 000001     229  	zero	Tsl*4+1,1
                                   230  "
                                   231  " TERMINAL 24
                                   232  	use	utc
                        000043     233  	set	Tsl,*-TC-1
    000044  aa  101 114 111 107    234  	aci	"ALIG"
    000045  aa  116 040 040 040    235  	aci	"N   "
                                   236  	use	utl
                        000030     237  	equ	T24,*-TL
    000347  aa   000215 000005     238  	zero	Tsl*4+1,5
                                   239  "
                                   240  " TERMINAL 25
                                   241  	use	utc
                        000045     242  	set	Tsl,*-TC-1
    000046  aa  101 116 104 040    243  	aci	"AND "
                                   244  	use	utl
                        000031     245  	equ	T25,*-TL
    000350  aa   000225 000003     246  	zero	Tsl*4+1,3
                                   247  "
                                   248  " TERMINAL 26
                                   249  	use	utc
                        000046     250  	set	Tsl,*-TC-1
    000047  aa  101 123 103 105    251  	aci	"ASCE"
    000050  aa  116 104 111 116    252  	aci	"NDIN"
    000051  aa  107 040 040 040    253  	aci	"G   "
                                   254  	use	utl
                        000032     255  	equ	T26,*-TL
    000351  aa   000231 000011     256  	zero	Tsl*4+1,9
                                   257  "
                                   258  " TERMINAL 27
                                   259  	use	utc
                        000051     260  	set	Tsl,*-TC-1
    000052  aa  101 124 124 101    261  	aci	"ATTA"
    000053  aa  103 110 040 040    262  	aci	"CH  "
                                   263  	use	utl
                        000033     264  	equ	T27,*-TL
    000352  aa   000245 000006     265  	zero	Tsl*4+1,6
                                   266  "
                                   267  " TERMINAL 28
                                   268  	use	utc
                        000053     269  	set	Tsl,*-TC-1
    000054  aa  102 105 107 111    270  	aci	"BEGI"
    000055  aa  116 040 040 040    271  	aci	"N   "
                                   272  	use	utl
                        000034     273  	equ	T28,*-TL
    000353  aa   000255 000005     274  	zero	Tsl*4+1,5
                                   275  "
                                   276  " TERMINAL 29
                                   277  	use	utc
                        000055     278  	set	Tsl,*-TC-1
    000056  aa  102 105 107 111    279  	aci	"BEGI"
    000057  aa  116 123 040 040    280  	aci	"NS  "
                                   281  	use	utl
                        000035     282  	equ	T29,*-TL
    000354  aa   000265 000006     283  	zero	Tsl*4+1,6
                                   284  "
                                   285  " TERMINAL 30
                                   286  	use	utc
                        000057     287  	set	Tsl,*-TC-1
    000060  aa  104 105 103 111    288  	aci	"DECI"
    000061  aa  115 101 114 040    289  	aci	"MAL "
                                   290  	use	utl
                        000036     291  	equ	T30,*-TL
    000355  aa   000275 000007     292  	zero	Tsl*4+1,7
                                   293  "
                                   294  " TERMINAL 31
                                   295  	use	utc
                        000061     296  	set	Tsl,*-TC-1
    000062  aa  102 122 105 101    297  	aci	"BREA"
    000063  aa  113 040 040 040    298  	aci	"K   "
                                   299  	use	utl
                        000037     300  	equ	T31,*-TL
    000356  aa   000305 000005     301  	zero	Tsl*4+1,5
                                   302  "
                                   303  " TERMINAL 32
                                   304  	use	utc
                        000063     305  	set	Tsl,*-TC-1
    000064  aa  103 105 116 124    306  	aci	"CENT"
    000065  aa  105 122 040 040    307  	aci	"ER  "
                                   308  	use	utl
                        000040     309  	equ	T32,*-TL
    000357  aa   000315 000006     310  	zero	Tsl*4+1,6
                                   311  "
                                   312  " TERMINAL 33
                                   313  	use	utc
                        000065     314  	set	Tsl,*-TC-1
    000066  aa  103 110 101 122    315  	aci	"CHAR"
    000067  aa  101 103 124 105    316  	aci	"ACTE"
    000070  aa  122 040 040 040    317  	aci	"R   "
                                   318  	use	utl
                        000041     319  	equ	T33,*-TL
    000360  aa   000325 000011     320  	zero	Tsl*4+1,9
                                   321  "
                                   322  " TERMINAL 34
                                   323  	use	utc
                        000070     324  	set	Tsl,*-TC-1
    000071  aa  103 117 114 125    325  	aci	"COLU"
    000072  aa  115 116 040 040    326  	aci	"MN  "
                                   327  	use	utl
                        000042     328  	equ	T34,*-TL
    000361  aa   000341 000006     329  	zero	Tsl*4+1,6
                                   330  "
                                   331  " TERMINAL 35
                                   332  	use	utc
                        000072     333  	set	Tsl,*-TC-1
    000073  aa  103 117 116 103    334  	aci	"CONC"
    000074  aa  101 124 105 116    335  	aci	"ATEN"
    000075  aa  101 124 105 040    336  	aci	"ATE "
                                   337  	use	utl
                        000043     338  	equ	T35,*-TL
    000362  aa   000351 000013     339  	zero	Tsl*4+1,11
                                   340  "
                                   341  " TERMINAL 36
                                   342  	use	utc
                        000075     343  	set	Tsl,*-TC-1
    000076  aa  103 117 116 124    344  	aci	"CONT"
    000077  aa  101 111 116 040    345  	aci	"AIN "
                                   346  	use	utl
                        000044     347  	equ	T36,*-TL
    000363  aa   000365 000007     348  	zero	Tsl*4+1,7
                                   349  "
                                   350  " TERMINAL 37
                                   351  	use	utc
                        000077     352  	set	Tsl,*-TC-1
    000100  aa  103 117 116 124    353  	aci	"CONT"
    000101  aa  101 111 116 123    354  	aci	"AINS"
                                   355  	use	utl
                        000045     356  	equ	T37,*-TL
    000364  aa   000375 000010     357  	zero	Tsl*4+1,8
                                   358  "
                                   359  " TERMINAL 38
                                   360  	use	utc
                        000101     361  	set	Tsl,*-TC-1
    000102  aa  104 105 103 114    362  	aci	"DECL"
    000103  aa  101 122 105 040    363  	aci	"ARE "
                                   364  	use	utl
                        000046     365  	equ	T38,*-TL
    000365  aa   000405 000007     366  	zero	Tsl*4+1,7
                                   367  "
                                   368  " TERMINAL 39
                                   369  	use	utc
                        000103     370  	set	Tsl,*-TC-1
    000104  aa  104 105 103 114    371  	aci	"DECL"
    000105  aa  101 122 105 137    372  	aci	"ARE_"
    000106  aa  061 040 040 040    373  	aci	"1   "
                                   374  	use	utl
                        000047     375  	equ	T39,*-TL
    000366  aa   000415 000011     376  	zero	Tsl*4+1,9
                                   377  "
                                   378  " TERMINAL 40
                                   379  	use	utc
                        000106     380  	set	Tsl,*-TC-1
    000107  aa  104 105 106 101    381  	aci	"DEFA"
    000110  aa  125 114 124 040    382  	aci	"ULT "
                                   383  	use	utl
                        000050     384  	equ	T40,*-TL
    000367  aa   000431 000007     385  	zero	Tsl*4+1,7
                                   386  "
                                   387  " TERMINAL 41
                                   388  	use	utc
                        000110     389  	set	Tsl,*-TC-1
    000111  aa  104 105 106 111    390  	aci	"DEFI"
    000112  aa  116 105 137 061    391  	aci	"NE_1"
                                   392  	use	utl
                        000051     393  	equ	T41,*-TL
    000370  aa   000441 000010     394  	zero	Tsl*4+1,8
                                   395  "
                                   396  " TERMINAL 42
                                   397  	use	utc
                        000112     398  	set	Tsl,*-TC-1
    000113  aa  104 105 114 111    399  	aci	"DELI"
    000114  aa  115 111 124 105    400  	aci	"MITE"
    000115  aa  104 040 040 040    401  	aci	"D   "
                                   402  	use	utl
                        000052     403  	equ	T42,*-TL
    000371  aa   000451 000011     404  	zero	Tsl*4+1,9
                                   405  "
                                   406  " TERMINAL 43
                                   407  	use	utc
                        000115     408  	set	Tsl,*-TC-1
    000116  aa  104 105 123 103    409  	aci	"DESC"
    000117  aa  105 116 104 111    410  	aci	"ENDI"
    000120  aa  116 107 040 040    411  	aci	"NG  "
                                   412  	use	utl
                        000053     413  	equ	T43,*-TL
    000372  aa   000465 000012     414  	zero	Tsl*4+1,10
                                   415  "
                                   416  " TERMINAL 44
                                   417  	use	utc
                        000120     418  	set	Tsl,*-TC-1
    000121  aa  104 105 124 101    419  	aci	"DETA"
    000122  aa  111 114 040 040    420  	aci	"IL  "
                                   421  	use	utl
                        000054     422  	equ	T44,*-TL
    000373  aa   000501 000006     423  	zero	Tsl*4+1,6
                                   424  "
                                   425  " TERMINAL 45
                                   426  	use	utc
                        000122     427  	set	Tsl,*-TC-1
    000123  aa  104 105 124 101    428  	aci	"DETA"
    000124  aa  111 114 106 117    429  	aci	"ILFO"
    000125  aa  117 124 040 040    430  	aci	"OT  "
                                   431  	use	utl
                        000055     432  	equ	T45,*-TL
    000374  aa   000511 000012     433  	zero	Tsl*4+1,10
                                   434  "
                                   435  " TERMINAL 46
                                   436  	use	utc
                        000125     437  	set	Tsl,*-TC-1
    000126  aa  104 105 124 101    438  	aci	"DETA"
    000127  aa  111 114 110 105    439  	aci	"ILHE"
    000130  aa  101 104 040 040    440  	aci	"AD  "
                                   441  	use	utl
                        000056     442  	equ	T46,*-TL
    000375  aa   000525 000012     443  	zero	Tsl*4+1,10
                                   444  "
                                   445  " TERMINAL 47
                                   446  	use	utc
                        000130     447  	set	Tsl,*-TC-1
    000131  aa  104 125 120 114    448  	aci	"DUPL"
    000132  aa  111 103 101 124    449  	aci	"ICAT"
    000133  aa  105 040 040 040    450  	aci	"E   "
                                   451  	use	utl
                        000057     452  	equ	T47,*-TL
    000376  aa   000541 000011     453  	zero	Tsl*4+1,9
                                   454  "
                                   455  " TERMINAL 48
                                   456  	use	utc
                        000133     457  	set	Tsl,*-TC-1
    000134  aa  105 104 111 124    458  	aci	"EDIT"
                                   459  	use	utl
                        000060     460  	equ	T48,*-TL
    000377  aa   000555 000004     461  	zero	Tsl*4+1,4
                                   462  "
                                   463  " TERMINAL 49
                                   464  	use	utc
                        000134     465  	set	Tsl,*-TC-1
    000135  aa  105 116 104 040    466  	aci	"END "
                                   467  	use	utl
                        000061     468  	equ	T49,*-TL
    000400  aa   000561 000003     469  	zero	Tsl*4+1,3
                                   470  "
                                   471  " TERMINAL 50
                                   472  	use	utc
                        000135     473  	set	Tsl,*-TC-1
    000136  aa  105 116 104 123    474  	aci	"ENDS"
                                   475  	use	utl
                        000062     476  	equ	T50,*-TL
    000401  aa   000565 000004     477  	zero	Tsl*4+1,4
                                   478  "
                                   479  " TERMINAL 51
                                   480  	use	utc
                        000136     481  	set	Tsl,*-TC-1
    000137  aa  105 121 040 040    482  	aci	"EQ  "
                                   483  	use	utl
                        000063     484  	equ	T51,*-TL
    000402  aa   000571 000002     485  	zero	Tsl*4+1,2
                                   486  "
                                   487  " TERMINAL 52
                                   488  	use	utc
                        000137     489  	set	Tsl,*-TC-1
    000140  aa  106 101 114 123    490  	aci	"FALS"
    000141  aa  105 040 040 040    491  	aci	"E   "
                                   492  	use	utl
                        000064     493  	equ	T52,*-TL
    000403  aa   000575 000005     494  	zero	Tsl*4+1,5
                                   495  "
                                   496  " TERMINAL 53
                                   497  	use	utc
                        000141     498  	set	Tsl,*-TC-1
    000142  aa  106 111 114 105    499  	aci	"FILE"
                                   500  	use	utl
                        000065     501  	equ	T53,*-TL
    000404  aa   000605 000004     502  	zero	Tsl*4+1,4
                                   503  "
                                   504  " TERMINAL 54
                                   505  	use	utc
                        000142     506  	set	Tsl,*-TC-1
    000143  aa  106 111 114 114    507  	aci	"FILL"
                                   508  	use	utl
                        000066     509  	equ	T54,*-TL
    000405  aa   000611 000004     510  	zero	Tsl*4+1,4
                                   511  "
                                   512  " TERMINAL 55
                                   513  	use	utc
                        000143     514  	set	Tsl,*-TC-1
    000144  aa  106 111 124 040    515  	aci	"FIT "
                                   516  	use	utl
                        000067     517  	equ	T55,*-TL
    000406  aa   000615 000003     518  	zero	Tsl*4+1,3
                                   519  "
                                   520  " TERMINAL 56
                                   521  	use	utc
                        000144     522  	set	Tsl,*-TC-1
    000145  aa  102 117 117 114    523  	aci	"BOOL"
    000146  aa  105 101 116 040    524  	aci	"EAN "
                                   525  	use	utl
                        000070     526  	equ	T56,*-TL
    000407  aa   000621 000007     527  	zero	Tsl*4+1,7
                                   528  "
                                   529  " TERMINAL 57
                                   530  	use	utc
                        000146     531  	set	Tsl,*-TC-1
    000147  aa  106 114 117 101    532  	aci	"FLOA"
    000150  aa  124 137 165 156    533  	aci	"T_un"
    000151  aa  165 163 145 144    534  	aci	"used"
                                   535  	use	utl
                        000071     536  	equ	T57,*-TL
    000410  aa   000631 000014     537  	zero	Tsl*4+1,12
                                   538  "
                                   539  " TERMINAL 58
                                   540  	use	utc
                        000151     541  	set	Tsl,*-TC-1
    000152  aa  106 117 114 104    542  	aci	"FOLD"
                                   543  	use	utl
                        000072     544  	equ	T58,*-TL
    000411  aa   000645 000004     545  	zero	Tsl*4+1,4
                                   546  "
                                   547  " TERMINAL 59
                                   548  	use	utc
                        000152     549  	set	Tsl,*-TC-1
    000153  aa  107 105 040 040    550  	aci	"GE  "
                                   551  	use	utl
                        000073     552  	equ	T59,*-TL
    000412  aa   000651 000002     553  	zero	Tsl*4+1,2
                                   554  "
                                   555  " TERMINAL 60
                                   556  	use	utc
                        000153     557  	set	Tsl,*-TC-1
    000154  aa  107 124 040 040    558  	aci	"GT  "
                                   559  	use	utl
                        000074     560  	equ	T60,*-TL
    000413  aa   000655 000002     561  	zero	Tsl*4+1,2
                                   562  "
                                   563  " TERMINAL 61
                                   564  	use	utc
                        000154     565  	set	Tsl,*-TC-1
    000155  aa  110 117 114 104    566  	aci	"HOLD"
                                   567  	use	utl
                        000075     568  	equ	T61,*-TL
    000414  aa   000661 000004     569  	zero	Tsl*4+1,4
                                   570  "
                                   571  " TERMINAL 62
                                   572  	use	utc
                        000155     573  	set	Tsl,*-TC-1
    000156  aa  111 106 040 040    574  	aci	"IF  "
                                   575  	use	utl
                        000076     576  	equ	T62,*-TL
    000415  aa   000665 000002     577  	zero	Tsl*4+1,2
                                   578  "
                                   579  " TERMINAL 63
                                   580  	use	utc
                        000156     581  	set	Tsl,*-TC-1
    000157  aa  111 116 040 040    582  	aci	"IN  "
                                   583  	use	utl
                        000077     584  	equ	T63,*-TL
    000416  aa   000671 000002     585  	zero	Tsl*4+1,2
                                   586  "
                                   587  " TERMINAL 64
                                   588  	use	utc
                        000157     589  	set	Tsl,*-TC-1
    000160  aa  111 116 120 125    590  	aci	"INPU"
    000161  aa  124 040 040 040    591  	aci	"T   "
                                   592  	use	utl
                        000100     593  	equ	T64,*-TL
    000417  aa   000675 000005     594  	zero	Tsl*4+1,5
                                   595  "
                                   596  " TERMINAL 65
                                   597  	use	utc
                        000161     598  	set	Tsl,*-TC-1
    000162  aa  120 101 125 123    599  	aci	"PAUS"
    000163  aa  105 040 040 040    600  	aci	"E   "
                                   601  	use	utl
                        000101     602  	equ	T65,*-TL
    000420  aa   000705 000005     603  	zero	Tsl*4+1,5
                                   604  "
                                   605  " TERMINAL 66
                                   606  	use	utc
                        000163     607  	set	Tsl,*-TC-1
    000164  aa  113 105 131 040    608  	aci	"KEY "
                                   609  	use	utl
                        000102     610  	equ	T66,*-TL
    000421  aa   000715 000003     611  	zero	Tsl*4+1,3
                                   612  "
                                   613  " TERMINAL 67
                                   614  	use	utc
                        000164     615  	set	Tsl,*-TC-1
    000165  aa  114 105 040 040    616  	aci	"LE  "
                                   617  	use	utl
                        000103     618  	equ	T67,*-TL
    000422  aa   000721 000002     619  	zero	Tsl*4+1,2
                                   620  "
                                   621  " TERMINAL 68
                                   622  	use	utc
                        000165     623  	set	Tsl,*-TC-1
    000166  aa  114 105 106 124    624  	aci	"LEFT"
                                   625  	use	utl
                        000104     626  	equ	T68,*-TL
    000423  aa   000725 000004     627  	zero	Tsl*4+1,4
                                   628  "
                                   629  " TERMINAL 69
                                   630  	use	utc
                        000166     631  	set	Tsl,*-TC-1
    000167  aa  114 105 124 040    632  	aci	"LET "
                                   633  	use	utl
                        000105     634  	equ	T69,*-TL
    000424  aa   000731 000003     635  	zero	Tsl*4+1,3
                                   636  "
                                   637  " TERMINAL 70
                                   638  	use	utc
                        000167     639  	set	Tsl,*-TC-1
    000170  aa  114 111 116 105    640  	aci	"LINE"
                                   641  	use	utl
                        000106     642  	equ	T70,*-TL
    000425  aa   000735 000004     643  	zero	Tsl*4+1,4
                                   644  "
                                   645  " TERMINAL 71
                                   646  	use	utc
                        000170     647  	set	Tsl,*-TC-1
    000171  aa  114 124 040 040    648  	aci	"LT  "
                                   649  	use	utl
                        000107     650  	equ	T71,*-TL
    000426  aa   000741 000002     651  	zero	Tsl*4+1,2
                                   652  "
                                   653  " TERMINAL 72
                                   654  	use	utc
                        000171     655  	set	Tsl,*-TC-1
    000172  aa  115 101 130 114    656  	aci	"MAXL"
    000173  aa  111 116 105 040    657  	aci	"INE "
                                   658  	use	utl
                        000110     659  	equ	T72,*-TL
    000427  aa   000745 000007     660  	zero	Tsl*4+1,7
                                   661  "
                                   662  " TERMINAL 73
                                   663  	use	utc
                        000173     664  	set	Tsl,*-TC-1
    000174  aa  115 111 116 114    665  	aci	"MINL"
    000175  aa  111 116 105 040    666  	aci	"INE "
                                   667  	use	utl
                        000111     668  	equ	T73,*-TL
    000430  aa   000755 000007     669  	zero	Tsl*4+1,7
                                   670  "
                                   671  " TERMINAL 74
                                   672  	use	utc
                        000175     673  	set	Tsl,*-TC-1
    000176  aa  116 105 040 040    674  	aci	"NE  "
                                   675  	use	utl
                        000112     676  	equ	T74,*-TL
    000431  aa   000765 000002     677  	zero	Tsl*4+1,2
                                   678  "
                                   679  " TERMINAL 75
                                   680  	use	utc
                        000176     681  	set	Tsl,*-TC-1
    000177  aa  116 117 040 040    682  	aci	"NO  "
                                   683  	use	utl
                        000113     684  	equ	T75,*-TL
    000432  aa   000771 000002     685  	zero	Tsl*4+1,2
                                   686  "
                                   687  " TERMINAL 76
                                   688  	use	utc
                        000177     689  	set	Tsl,*-TC-1
    000200  aa  116 117 124 040    690  	aci	"NOT "
                                   691  	use	utl
                        000114     692  	equ	T76,*-TL
    000433  aa   000775 000003     693  	zero	Tsl*4+1,3
                                   694  "
                                   695  " TERMINAL 77
                                   696  	use	utc
                        000200     697  	set	Tsl,*-TC-1
    000201  aa  116 125 115 102    698  	aci	"NUMB"
    000202  aa  105 122 040 040    699  	aci	"ER  "
                                   700  	use	utl
                        000115     701  	equ	T77,*-TL
    000434  aa   001001 000006     702  	zero	Tsl*4+1,6
                                   703  "
                                   704  " TERMINAL 78
                                   705  	use	utc
                        000202     706  	set	Tsl,*-TC-1
    000203  aa  117 116 040 040    707  	aci	"ON  "
                                   708  	use	utl
                        000116     709  	equ	T78,*-TL
    000435  aa   001011 000002     710  	zero	Tsl*4+1,2
                                   711  "
                                   712  " TERMINAL 79
                                   713  	use	utc
                        000203     714  	set	Tsl,*-TC-1
    000204  aa  117 120 124 111    715  	aci	"OPTI"
    000205  aa  117 116 101 114    716  	aci	"ONAL"
                                   717  	use	utl
                        000117     718  	equ	T79,*-TL
    000436  aa   001015 000010     719  	zero	Tsl*4+1,8
                                   720  "
                                   721  " TERMINAL 80
                                   722  	use	utc
                        000205     723  	set	Tsl,*-TC-1
    000206  aa  117 122 040 040    724  	aci	"OR  "
                                   725  	use	utl
                        000120     726  	equ	T80,*-TL
    000437  aa   001025 000002     727  	zero	Tsl*4+1,2
                                   728  "
                                   729  " TERMINAL 81
                                   730  	use	utc
                        000206     731  	set	Tsl,*-TC-1
    000207  aa  120 101 107 105    732  	aci	"PAGE"
    000210  aa  106 117 117 124    733  	aci	"FOOT"
                                   734  	use	utl
                        000121     735  	equ	T81,*-TL
    000440  aa   001031 000010     736  	zero	Tsl*4+1,8
                                   737  "
                                   738  " TERMINAL 82
                                   739  	use	utc
                        000210     740  	set	Tsl,*-TC-1
    000211  aa  120 101 107 105    741  	aci	"PAGE"
    000212  aa  110 105 101 104    742  	aci	"HEAD"
                                   743  	use	utl
                        000122     744  	equ	T82,*-TL
    000441  aa   001041 000010     745  	zero	Tsl*4+1,8
                                   746  "
                                   747  " TERMINAL 83
                                   748  	use	utc
                        000212     749  	set	Tsl,*-TC-1
    000213  aa  120 101 107 105    750  	aci	"PAGE"
    000214  aa  114 105 116 107    751  	aci	"LENG"
    000215  aa  124 110 040 040    752  	aci	"TH  "
                                   753  	use	utl
                        000123     754  	equ	T83,*-TL
    000442  aa   001051 000012     755  	zero	Tsl*4+1,10
                                   756  "
                                   757  " TERMINAL 84
                                   758  	use	utc
                        000215     759  	set	Tsl,*-TC-1
    000216  aa  120 101 107 105    760  	aci	"PAGE"
    000217  aa  127 111 104 124    761  	aci	"WIDT"
    000220  aa  110 040 040 040    762  	aci	"H   "
                                   763  	use	utl
                        000124     764  	equ	T84,*-TL
    000443  aa   001065 000011     765  	zero	Tsl*4+1,9
                                   766  "
                                   767  " TERMINAL 85
                                   768  	use	utc
                        000220     769  	set	Tsl,*-TC-1
    000221  aa  120 101 122 101    770  	aci	"PARA"
    000222  aa  115 105 124 105    771  	aci	"METE"
    000223  aa  122 040 040 040    772  	aci	"R   "
                                   773  	use	utl
                        000125     774  	equ	T85,*-TL
    000444  aa   001101 000011     775  	zero	Tsl*4+1,9
                                   776  "
                                   777  " TERMINAL 86
                                   778  	use	utc
                        000223     779  	set	Tsl,*-TC-1
    000224  aa  120 111 103 124    780  	aci	"PICT"
    000225  aa  125 122 105 040    781  	aci	"URE "
                                   782  	use	utl
                        000126     783  	equ	T86,*-TL
    000445  aa   001115 000007     784  	zero	Tsl*4+1,7
                                   785  "
                                   786  " TERMINAL 87
                                   787  	use	utc
                        000225     788  	set	Tsl,*-TC-1
    000226  aa  120 117 123 111    789  	aci	"POSI"
    000227  aa  124 111 117 116    790  	aci	"TION"
                                   791  	use	utl
                        000127     792  	equ	T87,*-TL
    000446  aa   001125 000010     793  	zero	Tsl*4+1,8
                                   794  "
                                   795  " TERMINAL 88
                                   796  	use	utc
                        000227     797  	set	Tsl,*-TC-1
    000230  aa  120 122 111 116    798  	aci	"PRIN"
    000231  aa  124 040 040 040    799  	aci	"T   "
                                   800  	use	utl
                        000130     801  	equ	T88,*-TL
    000447  aa   001135 000005     802  	zero	Tsl*4+1,5
                                   803  "
                                   804  " TERMINAL 89
                                   805  	use	utc
                        000231     806  	set	Tsl,*-TC-1
    000232  aa  122 105 103 117    807  	aci	"RECO"
    000233  aa  122 104 040 040    808  	aci	"RD  "
                                   809  	use	utl
                        000131     810  	equ	T89,*-TL
    000450  aa   001145 000006     811  	zero	Tsl*4+1,6
                                   812  "
                                   813  " TERMINAL 90
                                   814  	use	utc
                        000233     815  	set	Tsl,*-TC-1
    000234  aa  122 105 120 117    816  	aci	"REPO"
    000235  aa  122 124 040 040    817  	aci	"RT  "
                                   818  	use	utl
                        000132     819  	equ	T90,*-TL
    000451  aa   001155 000006     820  	zero	Tsl*4+1,6
                                   821  "
                                   822  " TERMINAL 91
                                   823  	use	utc
                        000235     824  	set	Tsl,*-TC-1
    000236  aa  122 105 120 117    825  	aci	"REPO"
    000237  aa  122 124 106 117    826  	aci	"RTFO"
    000240  aa  117 124 040 040    827  	aci	"OT  "
                                   828  	use	utl
                        000133     829  	equ	T91,*-TL
    000452  aa   001165 000012     830  	zero	Tsl*4+1,10
                                   831  "
                                   832  " TERMINAL 92
                                   833  	use	utc
                        000240     834  	set	Tsl,*-TC-1
    000241  aa  122 105 120 117    835  	aci	"REPO"
    000242  aa  122 124 110 105    836  	aci	"RTHE"
    000243  aa  101 104 040 040    837  	aci	"AD  "
                                   838  	use	utl
                        000134     839  	equ	T92,*-TL
    000453  aa   001201 000012     840  	zero	Tsl*4+1,10
                                   841  "
                                   842  " TERMINAL 93
                                   843  	use	utc
                        000243     844  	set	Tsl,*-TC-1
    000244  aa  122 105 124 125    845  	aci	"RETU"
    000245  aa  122 116 123 040    846  	aci	"RNS "
                                   847  	use	utl
                        000135     848  	equ	T93,*-TL
    000454  aa   001215 000007     849  	zero	Tsl*4+1,7
                                   850  "
                                   851  " TERMINAL 94
                                   852  	use	utc
                        000245     853  	set	Tsl,*-TC-1
    000246  aa  122 111 107 110    854  	aci	"RIGH"
    000247  aa  124 040 040 040    855  	aci	"T   "
                                   856  	use	utl
                        000136     857  	equ	T94,*-TL
    000455  aa   001225 000005     858  	zero	Tsl*4+1,5
                                   859  "
                                   860  " TERMINAL 95
                                   861  	use	utc
                        000247     862  	set	Tsl,*-TC-1
    000250  aa  123 117 122 124    863  	aci	"SORT"
                                   864  	use	utl
                        000137     865  	equ	T95,*-TL
    000456  aa   001235 000004     866  	zero	Tsl*4+1,4
                                   867  "
                                   868  " TERMINAL 96
                                   869  	use	utc
                        000250     870  	set	Tsl,*-TC-1
    000251  aa  123 124 122 105    871  	aci	"STRE"
    000252  aa  101 115 040 040    872  	aci	"AM  "
                                   873  	use	utl
                        000140     874  	equ	T96,*-TL
    000457  aa   001241 000006     875  	zero	Tsl*4+1,6
                                   876  "
                                   877  " TERMINAL 97
                                   878  	use	utc
                        000252     879  	set	Tsl,*-TC-1
    000253  aa  123 127 111 124    880  	aci	"SWIT"
    000254  aa  103 110 040 040    881  	aci	"CH  "
                                   882  	use	utl
                        000141     883  	equ	T97,*-TL
    000460  aa   001251 000006     884  	zero	Tsl*4+1,6
                                   885  "
                                   886  " TERMINAL 98
                                   887  	use	utc
                        000254     888  	set	Tsl,*-TC-1
    000255  aa  124 101 102 114    889  	aci	"TABL"
    000256  aa  105 040 040 040    890  	aci	"E   "
                                   891  	use	utl
                        000142     892  	equ	T98,*-TL
    000461  aa   001261 000005     893  	zero	Tsl*4+1,5
                                   894  "
                                   895  " TERMINAL 99
                                   896  	use	utc
                        000256     897  	set	Tsl,*-TC-1
    000257  aa  124 122 101 116    898  	aci	"TRAN"
    000260  aa  123 106 117 122    899  	aci	"SFOR"
    000261  aa  115 040 040 040    900  	aci	"M   "
                                   901  	use	utl
                        000143     902  	equ	T99,*-TL
    000462  aa   001271 000011     903  	zero	Tsl*4+1,9
                                   904  "
                                   905  " TERMINAL 100
                                   906  	use	utc
                        000261     907  	set	Tsl,*-TC-1
    000262  aa  124 122 125 105    908  	aci	"TRUE"
                                   909  	use	utl
                        000144     910  	equ	T100,*-TL
    000463  aa   001305 000004     911  	zero	Tsl*4+1,4
                                   912  "
                                   913  " TERMINAL 101
                                   914  	use	utc
                        000262     915  	set	Tsl,*-TC-1
    000263  aa  126 101 122 131    916  	aci	"VARY"
    000264  aa  111 116 107 040    917  	aci	"ING "
                                   918  	use	utl
                        000145     919  	equ	T101,*-TL
    000464  aa   001311 000007     920  	zero	Tsl*4+1,7
                                   921  "
                                   922  " TERMINAL 102
                                   923  	use	utc
                        000264     924  	set	Tsl,*-TC-1
    000265  aa  127 117 122 104    925  	aci	"WORD"
                                   926  	use	utl
                        000146     927  	equ	T102,*-TL
    000465  aa   001321 000004     928  	zero	Tsl*4+1,4
                                   929  "
                                   930  " TERMINAL 103
                                   931  	use	utc
                        000265     932  	set	Tsl,*-TC-1
    000266  aa  074 151 144 145    933  	aci	"<ide"
    000267  aa  156 164 151 146    934  	aci	"ntif"
    000270  aa  151 145 162 076    935  	aci	"ier>"
                                   936  	use	utl
                        000147     937  	equ	T103,*-TL
    000466  aa   001325 000014     938  	zero	Tsl*4+1,12
                                   939  "
                                   940  " TERMINAL 104
                                   941  	use	utc
                        000270     942  	set	Tsl,*-TC-1
    000271  aa  074 156 165 155    943  	aci	"<num"
    000272  aa  142 145 162 076    944  	aci	"ber>"
                                   945  	use	utl
                        000150     946  	equ	T104,*-TL
    000467  aa   001341 000010     947  	zero	Tsl*4+1,8
                                   948  "
                                   949  " TERMINAL 105
                                   950  	use	utc
                        000272     951  	set	Tsl,*-TC-1
    000273  aa  074 161 165 157    952  	aci	"<quo"
    000274  aa  164 145 144 137    953  	aci	"ted_"
    000275  aa  163 164 162 076    954  	aci	"str>"
                                   955  	use	utl
                        000151     956  	equ	T105,*-TL
    000470  aa   001351 000014     957  	zero	Tsl*4+1,12
                                   958  "
                                   959  " TERMINAL 106
                                   960  	use	utc
                        000275     961  	set	Tsl,*-TC-1
    000276  aa  054 062 040 040    962  	aci	",2  "
                                   963  	use	utl
                        000152     964  	equ	T106,*-TL
    000471  aa   001365 000002     965  	zero	Tsl*4+1,2
                                   966  "
                                   967  " TERMINAL 107
                                   968  	use	utc
                        000276     969  	set	Tsl,*-TC-1
    000277  aa  054 063 040 040    970  	aci	",3  "
                                   971  	use	utl
                        000153     972  	equ	T107,*-TL
    000472  aa   001371 000002     973  	zero	Tsl*4+1,2
                                   974  "
                                   975  " TERMINAL 108
                                   976  	use	utc
                        000277     977  	set	Tsl,*-TC-1
    000300  aa  054 064 040 040    978  	aci	",4  "
                                   979  	use	utl
                        000154     980  	equ	T108,*-TL
    000473  aa   001375 000002     981  	zero	Tsl*4+1,2
                                   982  "
                                   983  " TERMINAL 109
                                   984  	use	utc
                        000300     985  	set	Tsl,*-TC-1
    000301  aa  102 123 120 040    986  	aci	"BSP "
                                   987  	use	utl
                        000155     988  	equ	T109,*-TL
    000474  aa   001401 000003     989  	zero	Tsl*4+1,3
                                   990  "
                                   991  " TERMINAL 110
                                   992  	use	utc
                        000301     993  	set	Tsl,*-TC-1
    000302  aa  123 120 105 103    994  	aci	"SPEC"
    000303  aa  111 101 114 040    995  	aci	"IAL "
                                   996  	use	utl
                        000156     997  	equ	T110,*-TL
    000475  aa   001405 000007     998  	zero	Tsl*4+1,7
                                   999  "
                                  1000  " TERMINAL 111
                                  1001  	use	utc
                        000303    1002  	set	Tsl,*-TC-1
    000304  aa  123 124 117 120   1003  	aci	"STOP"
                                  1004  	use	utl
                        000157    1005  	equ	T111,*-TL
    000476  aa   001415 000004    1006  	zero	Tsl*4+1,4
                                  1007  "
                                  1008  " TERMINAL 112
                                  1009  	use	utc
                        000304    1010  	set	Tsl,*-TC-1
    000305  aa  123 113 111 120   1011  	aci	"SKIP"
                                  1012  	use	utl
                        000160    1013  	equ	T112,*-TL
    000477  aa   001421 000004    1014  	zero	Tsl*4+1,4
                                  1015  "
                                  1016  " TERMINAL 113
                                  1017  	use	utc
                        000305    1018  	set	Tsl,*-TC-1
    000306  aa  123 105 124 040   1019  	aci	"SET "
                                  1020  	use	utl
                        000161    1021  	equ	T113,*-TL
    000500  aa   001425 000003    1022  	zero	Tsl*4+1,3
                                  1023  "
                                  1024  " TERMINAL 114
                                  1025  	use	utc
                        000306    1026  	set	Tsl,*-TC-1
    000307  aa  124 110 105 116   1027  	aci	"THEN"
                                  1028  	use	utl
                        000162    1029  	equ	T114,*-TL
    000501  aa   001431 000004    1030  	zero	Tsl*4+1,4
                                  1031  "
                                  1032  " TERMINAL 115
                                  1033  	use	utc
                        000307    1034  	set	Tsl,*-TC-1
    000310  aa  105 114 123 105   1035  	aci	"ELSE"
                                  1036  	use	utl
                        000163    1037  	equ	T115,*-TL
    000502  aa   001435 000004    1038  	zero	Tsl*4+1,4
                                  1039  "
                                  1040  " TERMINAL 116
                                  1041  	use	utc
                        000310    1042  	set	Tsl,*-TC-1
    000311  aa  106 111 040 040   1043  	aci	"FI  "
                                  1044  	use	utl
                        000164    1045  	equ	T116,*-TL
    000503  aa   001441 000002    1046  	zero	Tsl*4+1,2
                                  1047  "
                                  1048  " TERMINAL 117
                                  1049  	use	utc
                        000311    1050  	set	Tsl,*-TC-1
    000312  aa  106 111 073 040   1051  	aci	"FI; "
                                  1052  	use	utl
                        000165    1053  	equ	T117,*-TL
    000504  aa   001445 000003    1054  	zero	Tsl*4+1,3
                                  1055  "
                                  1056  " TERMINAL 118
                                  1057  	use	utc
                        000312    1058  	set	Tsl,*-TC-1
    000313  aa  122 105 103 117   1059  	aci	"RECO"
    000314  aa  126 105 122 131   1060  	aci	"VERY"
    000315  aa  137 124 117 113   1061  	aci	"_TOK"
    000316  aa  105 116 040 040   1062  	aci	"EN  "
                                  1063  	use	utl
                        000166    1064  	equ	T118,*-TL
    000505  aa   001451 000016    1065  	zero	Tsl*4+1,14
                                  1066  "
                                  1067  	use	utc
                        000000    1068  	equ	TCs,"-TC-1
                                  1069  	use	utl
                        000166    1070  	equ	TLs,*-TL-1
                                  1071
                                  1072  	use	text
                                  1073  "
                                  1074  "
                                  1075  " DPDA table
    000506  aa   000000 005726    1076  DPDA:	zero	0,DPDAs
                        000506    1077  	segdef	DPDA
                                  1078  "
                                  1079  " STATE 1
                        000001    1080  	equ	ST1,*-DPDA
    000507  aa   000000 000004    1081  	zero	STRD,LN1
    000510  aa   000034 000110    1082  	zero	T28,ST72	"BEGIN
    000511  aa   000046 000114    1083  	zero	T38,ST76	"DECLARE
    000512  aa   000047 000120    1084  	zero	T39,ST80	"DECLARE_1
    000513  aa   000051 000123    1085  	zero	T41,ST83	"DEFINE_1
                        000004    1086  	equ	LN1,*-DPDA-ST1-1
                                  1087  "
                                  1088  " STATE 6
                        000006    1089  	equ	ST6,*-DPDA
    000514  aa   000004 000004    1090  	zero	APLY,LN6
    000515  aa   000000 000000    1091  	zero	0,0   pd ld
    000516  aa   777775 000005    1092  	zero	-3,5   rule/alt
    000517  aa   000003 000074    1093  	zero	3,ST60 prod/val
    000520  aa   000100 000303    1094  	zero	ST64,ST195
                        000004    1095  	equ	LN6,*-DPDA-ST6-1
                                  1096  "
                                  1097  " STATE 11
                        000013    1098  	equ	ST11,*-DPDA
    000521  aa   000011 000014    1099  	zero	NSRD,LN11
    000522  aa   000027 773156    1100  	zero	T23,-ST2450	".
    000523  aa   000034 773156    1101  	zero	T28,-ST2450	"BEGIN
    000524  aa   000046 773156    1102  	zero	T38,-ST2450	"DECLARE
    000525  aa   000047 773156    1103  	zero	T39,-ST2450	"DECLARE_1
    000526  aa   000051 773156    1104  	zero	T41,-ST2450	"DEFINE_1
    000527  aa   000061 773156    1105  	zero	T49,-ST2450	"END
    000530  aa   000075 773156    1106  	zero	T61,-ST2450	"HOLD
    000531  aa   000076 773156    1107  	zero	T62,-ST2450	"IF
    000532  aa   000130 773156    1108  	zero	T88,-ST2450	"PRINT
    000533  aa   000137 773160    1109  	zero	T95,-ST2448	"SORT
    000534  aa   000147 773156    1110  	zero	T103,-ST2450	"<identifier>
    000535  aa   000162 773156    1111  	zero	T114,-ST2450	"THEN
                        000014    1112  	equ	LN11,*-DPDA-ST11-1
                                  1113  "
                                  1114  " STATE 24
                        000030    1115  	equ	ST24,*-DPDA
    000536  aa   000000 000001    1116  	zero	STRD,LN24
    000537  aa   000016 000147    1117  	zero	T14,ST103	"(
                        000001    1118  	equ	LN24,*-DPDA-ST24-1
                                  1119  "
                                  1120  " STATE 26
                        000032    1121  	equ	ST26,*-DPDA
    000540  aa   000006 000003    1122  	zero	APLYS,LN26
    000541  aa   000000 000000    1123  	zero	0,0   pd ld
    000542  aa   777775 000004    1124  	zero	-3,4   rule/alt
    000543  aa   000003 000006    1125  	zero	3,ST6 prod/val
                        000003    1126  	equ	LN26,*-DPDA-ST26-1
                                  1127  "
                                  1128  " STATE 30
                        000036    1129  	equ	ST30,*-DPDA
    000544  aa   000011 000007    1130  	zero	NSRD,LN30
    000545  aa   000037 773152    1131  	zero	T31,-ST2454	"BREAK
    000546  aa   000110 773152    1132  	zero	T72,-ST2454	"MAXLINE
    000547  aa   000111 773152    1133  	zero	T73,-ST2454	"MINLINE
    000550  aa   000116 773152    1134  	zero	T78,-ST2454	"ON
    000551  aa   000123 773152    1135  	zero	T83,-ST2454	"PAGELENGTH
    000552  aa   000124 773152    1136  	zero	T84,-ST2454	"PAGEWIDTH
    000553  aa   000152 773143    1137  	zero	T106,-ST2461	",2
                        000007    1138  	equ	LN30,*-DPDA-ST30-1
                                  1139  "
                                  1140  " STATE 38
                        000046    1141  	equ	ST38,*-DPDA
    000554  aa   000006 000003    1142  	zero	APLYS,LN38
    000555  aa   000000 000000    1143  	zero	0,0   pd ld
    000556  aa   777775 000003    1144  	zero	-3,3   rule/alt
    000557  aa   000003 000006    1145  	zero	3,ST6 prod/val
                        000003    1146  	equ	LN38,*-DPDA-ST38-1
                                  1147  "
                                  1148  " STATE 42
                        000052    1149  	equ	ST42,*-DPDA
    000560  aa   000000 000001    1150  	zero	STRD,LN42
    000561  aa   000147 000206    1151  	zero	T103,ST134	"<identifier>
                        000001    1152  	equ	LN42,*-DPDA-ST42-1
                                  1153  "
                                  1154  " STATE 44
                        000054    1155  	equ	ST44,*-DPDA
    000562  aa   000006 000003    1156  	zero	APLYS,LN44
    000563  aa   000000 000000    1157  	zero	0,0   pd ld
    000564  aa   777775 000002    1158  	zero	-3,2   rule/alt
    000565  aa   000003 000006    1159  	zero	3,ST6 prod/val
                        000003    1160  	equ	LN44,*-DPDA-ST44-1
                                  1161  "
                                  1162  " STATE 48
                        000060    1163  	equ	ST48,*-DPDA
    000566  aa   000011 000005    1164  	zero	NSRD,LN48
    000567  aa   000033 773137    1165  	zero	T27,-ST2465	"ATTACH
    000570  aa   000065 773137    1166  	zero	T53,-ST2465	"FILE
    000571  aa   000131 773137    1167  	zero	T89,-ST2465	"RECORD
    000572  aa   000140 773137    1168  	zero	T96,-ST2465	"STREAM
    000573  aa   000152 773132    1169  	zero	T106,-ST2470	",2
                        000005    1170  	equ	LN48,*-DPDA-ST48-1
                                  1171  "
                                  1172  " STATE 54
                        000066    1173  	equ	ST54,*-DPDA
    000574  aa   000006 000003    1174  	zero	APLYS,LN54
    000575  aa   000000 000000    1175  	zero	0,0   pd ld
    000576  aa   777775 000001    1176  	zero	-3,1   rule/alt
    000577  aa   000003 000006    1177  	zero	3,ST6 prod/val
                        000003    1178  	equ	LN54,*-DPDA-ST54-1
                                  1179  "
                                  1180  " STATE 58
                        000072    1181  	equ	ST58,*-DPDA
    000600  aa   000000 000001    1182  	zero	STRD,LN58
    000601  aa   000152 000301    1183  	zero	T106,ST193	",2
                        000001    1184  	equ	LN58,*-DPDA-ST58-1
                                  1185  "
                                  1186  " STATE 60
                        000074    1187  	equ	ST60,*-DPDA
    000602  aa   000005 000003    1188  	zero	APLY1,LN60
    000603  aa   000000 000000    1189  	zero	0,0   pd ld
    000604  aa   777776 000001    1190  	zero	-2,1   rule/alt
    000605  aa   000002 000100    1191  	zero	2,ST64 prod/val
                        000003    1192  	equ	LN60,*-DPDA-ST60-1
                                  1193  "
                                  1194  " STATE 64
                        000100    1195  	equ	ST64,*-DPDA
    000606  aa   000000 000005    1196  	zero	STRD,LN64
    000607  aa   000034 000110    1197  	zero	T28,ST72	"BEGIN
    000610  aa   000046 000114    1198  	zero	T38,ST76	"DECLARE
    000611  aa   000047 000120    1199  	zero	T39,ST80	"DECLARE_1
    000612  aa   000051 000123    1200  	zero	T41,ST83	"DEFINE_1
    000613  aa   000061 000307    1201  	zero	T49,ST199	"END
                        000005    1202  	equ	LN64,*-DPDA-ST64-1
                                  1203  "
                                  1204  " STATE 70
                        000106    1205  	equ	ST70,*-DPDA
    000614  aa   000000 000001    1206  	zero	STRD,LN70
    000615  aa   000000 000000    1207  	zero	T0,ST0	"EOI
                        000001    1208  	equ	LN70,*-DPDA-ST70-1
                                  1209  "
                                  1210  " STATE 72
                        000110    1211  	equ	ST72,*-DPDA
    000616  aa   000005 000003    1212  	zero	APLY1,LN72
    000617  aa   000000 000000    1213  	zero	0,0   pd ld
    000620  aa   000272 000001    1214  	zero	186,1   rule/alt
    000621  aa   000115 000030    1215  	zero	77,ST24 prod/val
                        000003    1216  	equ	LN72,*-DPDA-ST72-1
                                  1217  "
                                  1218  " STATE 76
                        000114    1219  	equ	ST76,*-DPDA
    000622  aa   000005 000003    1220  	zero	APLY1,LN76
    000623  aa   000000 000000    1221  	zero	0,0   pd ld
    000624  aa   000113 000001    1222  	zero	75,1   rule/alt
    000625  aa   000033 000052    1223  	zero	27,ST42 prod/val
                        000003    1224  	equ	LN76,*-DPDA-ST76-1
                                  1225  "
                                  1226  " STATE 80
                        000120    1227  	equ	ST80,*-DPDA
    000626  aa   000000 000002    1228  	zero	STRD,LN80
    000627  aa   000100 000311    1229  	zero	T64,ST201	"INPUT
    000630  aa   000125 000315    1230  	zero	T85,ST205	"PARAMETER
                        000002    1231  	equ	LN80,*-DPDA-ST80-1
                                  1232  "
                                  1233  " STATE 83
                        000123    1234  	equ	ST83,*-DPDA
    000631  aa   000000 000001    1235  	zero	STRD,LN83
    000632  aa   000132 000321    1236  	zero	T90,ST209	"REPORT
                        000001    1237  	equ	LN83,*-DPDA-ST83-1
                                  1238  "
                                  1239  " STATE 85
                        000125    1240  	equ	ST85,*-DPDA
    000633  aa   000000 000001    1241  	zero	STRD,LN85
    000634  aa   000147 000333    1242  	zero	T103,ST219	"<identifier>
                        000001    1243  	equ	LN85,*-DPDA-ST85-1
                                  1244  "
                                  1245  " STATE 87
                        000127    1246  	equ	ST87,*-DPDA
    000635  aa   000011 000013    1247  	zero	NSRD,LN87
    000636  aa   000027 773126    1248  	zero	T23,-ST2474	".
    000637  aa   000034 773125    1249  	zero	T28,-ST2475	"BEGIN
    000640  aa   000046 773125    1250  	zero	T38,-ST2475	"DECLARE
    000641  aa   000047 773125    1251  	zero	T39,-ST2475	"DECLARE_1
    000642  aa   000051 773125    1252  	zero	T41,-ST2475	"DEFINE_1
    000643  aa   000061 773125    1253  	zero	T49,-ST2475	"END
    000644  aa   000075 773125    1254  	zero	T61,-ST2475	"HOLD
    000645  aa   000076 773126    1255  	zero	T62,-ST2474	"IF
    000646  aa   000130 773126    1256  	zero	T88,-ST2474	"PRINT
    000647  aa   000147 773126    1257  	zero	T103,-ST2474	"<identifier>
    000650  aa   000162 773126    1258  	zero	T114,-ST2474	"THEN
                        000013    1259  	equ	LN87,*-DPDA-ST87-1
                                  1260  "
                                  1261  " STATE 99
                        000143    1262  	equ	ST99,*-DPDA
    000651  aa   000005 000003    1263  	zero	APLY1,LN99
    000652  aa   000000 000000    1264  	zero	0,0   pd ld
    000653  aa   000320 000001    1265  	zero	208,1   rule/alt
    000654  aa   000130 000125    1266  	zero	88,ST85 prod/val
                        000003    1267  	equ	LN99,*-DPDA-ST99-1
                                  1268  "
                                  1269  " STATE 103
                        000147    1270  	equ	ST103,*-DPDA
    000655  aa   000011 000002    1271  	zero	NSRD,LN103
    000656  aa   000017 773117    1272  	zero	T15,-ST2481	")
    000657  aa   000147 773121    1273  	zero	T103,-ST2479	"<identifier>
                        000002    1274  	equ	LN103,*-DPDA-ST103-1
                                  1275  "
                                  1276  " STATE 106
                        000152    1277  	equ	ST106,*-DPDA
    000660  aa   000005 000003    1278  	zero	APLY1,LN106
    000661  aa   000000 000000    1279  	zero	0,0   pd ld
    000662  aa   777630 000001    1280  	zero	-104,1   rule/alt
    000663  aa   000052 000156    1281  	zero	42,ST110 prod/val
                        000003    1282  	equ	LN106,*-DPDA-ST106-1
                                  1283  "
                                  1284  " STATE 110
                        000156    1285  	equ	ST110,*-DPDA
    000664  aa   000011 000007    1286  	zero	NSRD,LN110
    000665  aa   000037 773113    1287  	zero	T31,-ST2485	"BREAK
    000666  aa   000110 773113    1288  	zero	T72,-ST2485	"MAXLINE
    000667  aa   000111 773113    1289  	zero	T73,-ST2485	"MINLINE
    000670  aa   000116 773113    1290  	zero	T78,-ST2485	"ON
    000671  aa   000123 773113    1291  	zero	T83,-ST2485	"PAGELENGTH
    000672  aa   000124 773113    1292  	zero	T84,-ST2485	"PAGEWIDTH
    000673  aa   000152 773112    1293  	zero	T106,-ST2486	",2
                        000007    1294  	equ	LN110,*-DPDA-ST110-1
                                  1295  "
                                  1296  " STATE 118
                        000166    1297  	equ	ST118,*-DPDA
    000674  aa   000011 000001    1298  	zero	NSRD,LN118
    000675  aa   000152 773100    1299  	zero	T106,-ST2496	",2
                        000001    1300  	equ	LN118,*-DPDA-ST118-1
                                  1301  "
                                  1302  " STATE 120
                        000170    1303  	equ	ST120,*-DPDA
    000676  aa   000000 000001    1304  	zero	STRD,LN120
    000677  aa   000016 000500    1305  	zero	T14,ST320	"(
                        000001    1306  	equ	LN120,*-DPDA-ST120-1
                                  1307  "
                                  1308  " STATE 122
                        000172    1309  	equ	ST122,*-DPDA
    000700  aa   000000 000001    1310  	zero	STRD,LN122
    000701  aa   000150 000503    1311  	zero	T104,ST323	"<number>
                        000001    1312  	equ	LN122,*-DPDA-ST122-1
                                  1313  "
                                  1314  " STATE 124
                        000174    1315  	equ	ST124,*-DPDA
    000702  aa   000000 000001    1316  	zero	STRD,LN124
    000703  aa   000150 000510    1317  	zero	T104,ST328	"<number>
                        000001    1318  	equ	LN124,*-DPDA-ST124-1
                                  1319  "
                                  1320  " STATE 126
                        000176    1321  	equ	ST126,*-DPDA
    000704  aa   000000 000003    1322  	zero	STRD,LN126
    000705  aa   000016 000520    1323  	zero	T14,ST336	"(
    000706  aa   000065 000523    1324  	zero	T53,ST339	"FILE
    000707  aa   000141 000524    1325  	zero	T97,ST340	"SWITCH
                        000003    1326  	equ	LN126,*-DPDA-ST126-1
                                  1327  "
                                  1328  " STATE 130
                        000202    1329  	equ	ST130,*-DPDA
    000710  aa   000000 000001    1330  	zero	STRD,LN130
    000711  aa   000150 000525    1331  	zero	T104,ST341	"<number>
                        000001    1332  	equ	LN130,*-DPDA-ST130-1
                                  1333  "
                                  1334  " STATE 132
                        000204    1335  	equ	ST132,*-DPDA
    000712  aa   000000 000001    1336  	zero	STRD,LN132
    000713  aa   000150 000531    1337  	zero	T104,ST345	"<number>
                        000001    1338  	equ	LN132,*-DPDA-ST132-1
                                  1339  "
                                  1340  " STATE 134
                        000206    1341  	equ	ST134,*-DPDA
    000714  aa   000000 000005    1342  	zero	STRD,LN134
    000715  aa   000036 000537    1343  	zero	T30,ST351	"DECIMAL
    000716  aa   000041 000543    1344  	zero	T33,ST355	"CHARACTER
    000717  aa   000070 000545    1345  	zero	T56,ST357	"BOOLEAN
    000720  aa   000142 000551    1346  	zero	T98,ST361	"TABLE
    000721  aa   000161 000553    1347  	zero	T113,ST363	"SET
                        000005    1348  	equ	LN134,*-DPDA-ST134-1
                                  1349  "
                                  1350  " STATE 140
                        000214    1351  	equ	ST140,*-DPDA
    000722  aa   000005 000003    1352  	zero	APLY1,LN140
    000723  aa   000000 000000    1353  	zero	0,0   pd ld
    000724  aa   777742 000001    1354  	zero	-30,1   rule/alt
    000725  aa   000022 000220    1355  	zero	18,ST144 prod/val
                        000003    1356  	equ	LN140,*-DPDA-ST140-1
                                  1357  "
                                  1358  " STATE 144
                        000220    1359  	equ	ST144,*-DPDA
    000726  aa   000011 000005    1360  	zero	NSRD,LN144
    000727  aa   000033 773073    1361  	zero	T27,-ST2501	"ATTACH
    000730  aa   000065 773073    1362  	zero	T53,-ST2501	"FILE
    000731  aa   000131 773073    1363  	zero	T89,-ST2501	"RECORD
    000732  aa   000140 773073    1364  	zero	T96,-ST2501	"STREAM
    000733  aa   000152 773072    1365  	zero	T106,-ST2502	",2
                        000005    1366  	equ	LN144,*-DPDA-ST144-1
                                  1367  "
                                  1368  " STATE 150
                        000226    1369  	equ	ST150,*-DPDA
    000734  aa   000000 000001    1370  	zero	STRD,LN150
    000735  aa   000152 000571    1371  	zero	T106,ST377	",2
                        000001    1372  	equ	LN150,*-DPDA-ST150-1
                                  1373  "
                                  1374  " STATE 152
                        000230    1375  	equ	ST152,*-DPDA
    000736  aa   000000 000021    1376  	zero	STRD,LN152
    000737  aa   000002 001043    1377  	zero	T2,ST547	"%DAY
    000740  aa   000004 001047    1378  	zero	T4,ST551	"%HHMMSS
    000741  aa   000006 001053    1379  	zero	T6,ST555	"%MMDDYY
    000742  aa   000007 001057    1380  	zero	T7,ST559	"%MONTH
    000743  aa   000010 001063    1381  	zero	T8,ST563	"%PAGENUMBER
    000744  aa   000012 001065    1382  	zero	T10,ST565	"%REPEAT
    000745  aa   000013 001071    1383  	zero	T11,ST569	"%ROMAN
    000746  aa   000014 001075    1384  	zero	T12,ST573	"%SUBSTR
    000747  aa   000015 001101    1385  	zero	T13,ST577	"%YYDDD
    000750  aa   000016 001105    1386  	zero	T14,ST581	"(
    000751  aa   000021 001106    1387  	zero	T17,ST582	"+
    000752  aa   000023 001114    1388  	zero	T19,ST588	"-
    000753  aa   000076 001122    1389  	zero	T62,ST594	"IF
    000754  aa   000143 001124    1390  	zero	T99,ST596	"TRANSFORM
    000755  aa   000147 001130    1391  	zero	T103,ST600	"<identifier>
    000756  aa   000150 001134    1392  	zero	T104,ST604	"<number>
    000757  aa   000151 001140    1393  	zero	T105,ST608	"<quoted_str>
                        000021    1394  	equ	LN152,*-DPDA-ST152-1
                                  1395  "
                                  1396  " STATE 170
                        000252    1397  	equ	ST170,*-DPDA
    000760  aa   000002 000230    1398  	zero	STRDS,ST152
                                  1399
                                  1400  "
                                  1401  " STATE 171
                        000253    1402  	equ	ST171,*-DPDA
    000761  aa   000011 000006    1403  	zero	NSRD,LN171
    000762  aa   000033 773064    1404  	zero	T27,-ST2508	"ATTACH
    000763  aa   000065 773064    1405  	zero	T53,-ST2508	"FILE
    000764  aa   000131 773064    1406  	zero	T89,-ST2508	"RECORD
    000765  aa   000140 773064    1407  	zero	T96,-ST2508	"STREAM
    000766  aa   000150 773066    1408  	zero	T104,-ST2506	"<number>
    000767  aa   000152 773064    1409  	zero	T106,-ST2508	",2
                        000006    1410  	equ	LN171,*-DPDA-ST171-1
                                  1411  "
                                  1412  " STATE 178
                        000262    1413  	equ	ST178,*-DPDA
    000770  aa   000011 000006    1414  	zero	NSRD,LN178
    000771  aa   000033 773056    1415  	zero	T27,-ST2514	"ATTACH
    000772  aa   000065 773056    1416  	zero	T53,-ST2514	"FILE
    000773  aa   000131 773056    1417  	zero	T89,-ST2514	"RECORD
    000774  aa   000140 773056    1418  	zero	T96,-ST2514	"STREAM
    000775  aa   000150 773060    1419  	zero	T104,-ST2512	"<number>
    000776  aa   000152 773056    1420  	zero	T106,-ST2514	",2
                        000006    1421  	equ	LN178,*-DPDA-ST178-1
                                  1422  "
                                  1423  " STATE 185
                        000271    1424  	equ	ST185,*-DPDA
    000777  aa   000005 000003    1425  	zero	APLY1,LN185
    001000  aa   000000 000000    1426  	zero	0,0   pd ld
    001001  aa   000007 000001    1427  	zero	7,1   rule/alt
    001002  aa   000006 000275    1428  	zero	6,ST189 prod/val
                        000003    1429  	equ	LN185,*-DPDA-ST185-1
                                  1430  "
                                  1431  " STATE 189
                        000275    1432  	equ	ST189,*-DPDA
    001003  aa   000000 000003    1433  	zero	STRD,LN189
    001004  aa   000022 001170    1434  	zero	T18,ST632	",
    001005  aa   000027 001172    1435  	zero	T23,ST634	".
    001006  aa   000152 000301    1436  	zero	T106,ST193	",2
                        000003    1437  	equ	LN189,*-DPDA-ST189-1
                                  1438  "
                                  1439  " STATE 193
                        000301    1440  	equ	ST193,*-DPDA
    001007  aa   000000 000001    1441  	zero	STRD,LN193
    001010  aa   000147 001176    1442  	zero	T103,ST638	"<identifier>
                        000001    1443  	equ	LN193,*-DPDA-ST193-1
                                  1444  "
                                  1445  " STATE 195
                        000303    1446  	equ	ST195,*-DPDA
    001011  aa   000005 000003    1447  	zero	APLY1,LN195
    001012  aa   000001 000001    1448  	zero	1,1   pd ld
    001013  aa   777776 000002    1449  	zero	-2,2   rule/alt
    001014  aa   000002 000100    1450  	zero	2,ST64 prod/val
                        000003    1451  	equ	LN195,*-DPDA-ST195-1
                                  1452  "
                                  1453  " STATE 199
                        000307    1454  	equ	ST199,*-DPDA
    001015  aa   000000 000001    1455  	zero	STRD,LN199
    001016  aa   000027 001204    1456  	zero	T23,ST644	".
                        000001    1457  	equ	LN199,*-DPDA-ST199-1
                                  1458  "
                                  1459  " STATE 201
                        000311    1460  	equ	ST201,*-DPDA
    001017  aa   000005 000003    1461  	zero	APLY1,LN201
    001020  aa   000001 000001    1462  	zero	1,1   pd ld
    001021  aa   000025 000001    1463  	zero	21,1   rule/alt
    001022  aa   000014 000060    1464  	zero	12,ST48 prod/val
                        000003    1465  	equ	LN201,*-DPDA-ST201-1
                                  1466  "
                                  1467  " STATE 205
                        000315    1468  	equ	ST205,*-DPDA
    001023  aa   000005 000003    1469  	zero	APLY1,LN205
    001024  aa   000001 000001    1470  	zero	1,1   pd ld
    001025  aa   000004 000001    1471  	zero	4,1   rule/alt
    001026  aa   000004 000072    1472  	zero	4,ST58 prod/val
                        000003    1473  	equ	LN205,*-DPDA-ST205-1
                                  1474  "
                                  1475  " STATE 209
                        000321    1476  	equ	ST209,*-DPDA
    001027  aa   000000 000001    1477  	zero	STRD,LN209
    001030  aa   000147 001210    1478  	zero	T103,ST648	"<identifier>
                        000001    1479  	equ	LN209,*-DPDA-ST209-1
                                  1480  "
                                  1481  " STATE 211
                        000323    1482  	equ	ST211,*-DPDA
    001031  aa   000005 000003    1483  	zero	APLY1,LN211
    001032  aa   000000 000000    1484  	zero	0,0   pd ld
    001033  aa   777455 000001    1485  	zero	-211,1   rule/alt
    001034  aa   000131 000327    1486  	zero	89,ST215 prod/val
                        000003    1487  	equ	LN211,*-DPDA-ST211-1
                                  1488  "
                                  1489  " STATE 215
                        000327    1490  	equ	ST215,*-DPDA
    001035  aa   000000 000003    1491  	zero	STRD,LN215
    001036  aa   000022 001214    1492  	zero	T18,ST652	",
    001037  aa   000027 001216    1493  	zero	T23,ST654	".
    001040  aa   000113 001222    1494  	zero	T75,ST658	"NO
                        000003    1495  	equ	LN215,*-DPDA-ST215-1
                                  1496  "
                                  1497  " STATE 219
                        000333    1498  	equ	ST219,*-DPDA
    001041  aa   000011 000005    1499  	zero	NSRD,LN219
    001042  aa   000022 773047    1500  	zero	T18,-ST2521	",
    001043  aa   000027 773047    1501  	zero	T23,-ST2521	".
    001044  aa   000032 773052    1502  	zero	T26,-ST2518	"ASCENDING
    001045  aa   000053 773052    1503  	zero	T43,-ST2518	"DESCENDING
    001046  aa   000113 773047    1504  	zero	T75,-ST2521	"NO
                        000005    1505  	equ	LN219,*-DPDA-ST219-1
                                  1506  "
                                  1507  " STATE 225
                        000341    1508  	equ	ST225,*-DPDA
    001047  aa   000004 000006    1509  	zero	APLY,LN225
    001050  aa   000000 000000    1510  	zero	0,0   pd ld
    001051  aa   000307 000001    1511  	zero	199,1   rule/alt
    001052  aa   000124 000350    1512  	zero	84,ST232 prod/val
    001053  aa   003005 001235    1513  	zero	ST1541,ST669
    001054  aa   003723 001235    1514  	zero	ST2003,ST669
    001055  aa   004735 001235    1515  	zero	ST2525,ST669
                        000006    1516  	equ	LN225,*-DPDA-ST225-1
                                  1517  "
                                  1518  " STATE 232
                        000350    1519  	equ	ST232,*-DPDA
    001056  aa   000004 000005    1520  	zero	APLY,LN232
    001057  aa   000000 000000    1521  	zero	0,0   pd ld
    001060  aa   777501 000001    1522  	zero	-191,1   rule/alt
    001061  aa   000121 003005    1523  	zero	81,ST1541 prod/val
    001062  aa   003422 003723    1524  	zero	ST1810,ST2003
    001063  aa   004652 000356    1525  	zero	ST2474,ST238
                        000005    1526  	equ	LN232,*-DPDA-ST232-1
                                  1527  "
                                  1528  " STATE 238
                        000356    1529  	equ	ST238,*-DPDA
    001064  aa   000011 000013    1530  	zero	NSRD,LN238
    001065  aa   000027 773043    1531  	zero	T23,-ST2525	".
    001066  aa   000034 773042    1532  	zero	T28,-ST2526	"BEGIN
    001067  aa   000046 773042    1533  	zero	T38,-ST2526	"DECLARE
    001070  aa   000047 773042    1534  	zero	T39,-ST2526	"DECLARE_1
    001071  aa   000051 773042    1535  	zero	T41,-ST2526	"DEFINE_1
    001072  aa   000061 773042    1536  	zero	T49,-ST2526	"END
    001073  aa   000075 773042    1537  	zero	T61,-ST2526	"HOLD
    001074  aa   000076 773043    1538  	zero	T62,-ST2525	"IF
    001075  aa   000130 773043    1539  	zero	T88,-ST2525	"PRINT
    001076  aa   000147 773043    1540  	zero	T103,-ST2525	"<identifier>
    001077  aa   000162 773043    1541  	zero	T114,-ST2525	"THEN
                        000013    1542  	equ	LN238,*-DPDA-ST238-1
                                  1543  "
                                  1544  " STATE 250
                        000372    1545  	equ	ST250,*-DPDA
    001100  aa   000011 000006    1546  	zero	NSRD,LN250
    001101  aa   000034 773034    1547  	zero	T28,-ST2532	"BEGIN
    001102  aa   000046 773034    1548  	zero	T38,-ST2532	"DECLARE
    001103  aa   000047 773034    1549  	zero	T39,-ST2532	"DECLARE_1
    001104  aa   000051 773034    1550  	zero	T41,-ST2532	"DEFINE_1
    001105  aa   000061 773034    1551  	zero	T49,-ST2532	"END
    001106  aa   000075 773036    1552  	zero	T61,-ST2530	"HOLD
                        000006    1553  	equ	LN250,*-DPDA-ST250-1
                                  1554  "
                                  1555  " STATE 257
                        000401    1556  	equ	ST257,*-DPDA
    001107  aa   000006 000003    1557  	zero	APLYS,LN257
    001110  aa   000000 000000    1558  	zero	0,0   pd ld
    001111  aa   777467 000001    1559  	zero	-201,1   rule/alt
    001112  aa   000124 000341    1560  	zero	84,ST225 prod/val
                        000003    1561  	equ	LN257,*-DPDA-ST257-1
                                  1562  "
                                  1563  " STATE 261
                        000405    1564  	equ	ST261,*-DPDA
    001113  aa   000000 000030    1565  	zero	STRD,LN261
    001114  aa   000001 001341    1566  	zero	T1,ST737	"%ABSENT
    001115  aa   000002 001043    1567  	zero	T2,ST547	"%DAY
    001116  aa   000003 001343    1568  	zero	T3,ST739	"%FIT
    001117  aa   000004 001047    1569  	zero	T4,ST551	"%HHMMSS
    001120  aa   000005 001347    1570  	zero	T5,ST743	"%LEVEL
    001121  aa   000006 001053    1571  	zero	T6,ST555	"%MMDDYY
    001122  aa   000007 001057    1572  	zero	T7,ST559	"%MONTH
    001123  aa   000010 001063    1573  	zero	T8,ST563	"%PAGENUMBER
    001124  aa   000011 001351    1574  	zero	T9,ST745	"%PRESENT
    001125  aa   000012 001065    1575  	zero	T10,ST565	"%REPEAT
    001126  aa   000013 001071    1576  	zero	T11,ST569	"%ROMAN
    001127  aa   000014 001075    1577  	zero	T12,ST573	"%SUBSTR
    001130  aa   000015 001101    1578  	zero	T13,ST577	"%YYDDD
    001131  aa   000016 001105    1579  	zero	T14,ST581	"(
    001132  aa   000021 001106    1580  	zero	T17,ST582	"+
    001133  aa   000023 001114    1581  	zero	T19,ST588	"-
    001134  aa   000064 001353    1582  	zero	T52,ST747	"FALSE
    001135  aa   000076 001122    1583  	zero	T62,ST594	"IF
    001136  aa   000114 001357    1584  	zero	T76,ST751	"NOT
    001137  aa   000143 001124    1585  	zero	T99,ST596	"TRANSFORM
    001140  aa   000144 001407    1586  	zero	T100,ST775	"TRUE
    001141  aa   000147 001130    1587  	zero	T103,ST600	"<identifier>
    001142  aa   000150 001134    1588  	zero	T104,ST604	"<number>
    001143  aa   000151 001140    1589  	zero	T105,ST608	"<quoted_str>
                        000030    1590  	equ	LN261,*-DPDA-ST261-1
                                  1591  "
                                  1592  " STATE 286
                        000436    1593  	equ	ST286,*-DPDA
    001144  aa   000000 000001    1594  	zero	STRD,LN286
    001145  aa   000147 001413    1595  	zero	T103,ST779	"<identifier>
                        000001    1596  	equ	LN286,*-DPDA-ST286-1
                                  1597  "
                                  1598  " STATE 288
                        000440    1599  	equ	ST288,*-DPDA
    001146  aa   000000 000001    1600  	zero	STRD,LN288
    001147  aa   000026 001415    1601  	zero	T22,ST781	":=
                        000001    1602  	equ	LN288,*-DPDA-ST288-1
                                  1603  "
                                  1604  " STATE 290
                        000442    1605  	equ	ST290,*-DPDA
    001150  aa   000006 000003    1606  	zero	APLYS,LN290
    001151  aa   000000 000000    1607  	zero	0,0   pd ld
    001152  aa   000312 000001    1608  	zero	202,1   rule/alt
    001153  aa   000124 000341    1609  	zero	84,ST225 prod/val
                        000003    1610  	equ	LN290,*-DPDA-ST290-1
                                  1611  "
                                  1612  " STATE 294
                        000446    1613  	equ	ST294,*-DPDA
    001154  aa   000004 000004    1614  	zero	APLY,LN294
    001155  aa   000000 000000    1615  	zero	0,0   pd ld
    001156  aa   000332 000001    1616  	zero	218,1   rule/alt
    001157  aa   000134 004541    1617  	zero	92,ST2401 prod/val
    001160  aa   004657 000453    1618  	zero	ST2479,ST299
                        000004    1619  	equ	LN294,*-DPDA-ST294-1
                                  1620  "
                                  1621  " STATE 299
                        000453    1622  	equ	ST299,*-DPDA
    001161  aa   000011 000002    1623  	zero	NSRD,LN299
    001162  aa   000017 773026    1624  	zero	T15,-ST2538	")
    001163  aa   000147 773030    1625  	zero	T103,-ST2536	"<identifier>
                        000002    1626  	equ	LN299,*-DPDA-ST299-1
                                  1627  "
                                  1628  " STATE 302
                        000456    1629  	equ	ST302,*-DPDA
    001164  aa   000000 000001    1630  	zero	STRD,LN302
    001165  aa   000017 001422    1631  	zero	T15,ST786	")
                        000001    1632  	equ	LN302,*-DPDA-ST302-1
                                  1633  "
                                  1634  " STATE 304
                        000460    1635  	equ	ST304,*-DPDA
    001166  aa   000005 000003    1636  	zero	APLY1,LN304
    001167  aa   000001 000001    1637  	zero	1,1   pd ld
    001170  aa   777627 000001    1638  	zero	-105,1   rule/alt
    001171  aa   000052 000156    1639  	zero	42,ST110 prod/val
                        000003    1640  	equ	LN304,*-DPDA-ST304-1
                                  1641  "
                                  1642  " STATE 308
                        000464    1643  	equ	ST308,*-DPDA
    001172  aa   000005 000003    1644  	zero	APLY1,LN308
    001173  aa   000000 000000    1645  	zero	0,0   pd ld
    001174  aa   777610 000001    1646  	zero	-120,1   rule/alt
    001175  aa   000057 000470    1647  	zero	47,ST312 prod/val
                        000003    1648  	equ	LN308,*-DPDA-ST308-1
                                  1649  "
                                  1650  " STATE 312
                        000470    1651  	equ	ST312,*-DPDA
    001176  aa   000011 000001    1652  	zero	NSRD,LN312
    001177  aa   000152 773014    1653  	zero	T106,-ST2548	",2
                        000001    1654  	equ	LN312,*-DPDA-ST312-1
                                  1655  "
                                  1656  " STATE 314
                        000472    1657  	equ	ST314,*-DPDA
    001200  aa   000000 000001    1658  	zero	STRD,LN314
    001201  aa   000152 001441    1659  	zero	T106,ST801	",2
                        000001    1660  	equ	LN314,*-DPDA-ST314-1
                                  1661  "
                                  1662  " STATE 316
                        000474    1663  	equ	ST316,*-DPDA
    001202  aa   000000 000003    1664  	zero	STRD,LN316
    001203  aa   000056 001451    1665  	zero	T46,ST809	"DETAILHEAD
    001204  aa   000122 001455    1666  	zero	T82,ST813	"PAGEHEAD
    001205  aa   000134 001461    1667  	zero	T92,ST817	"REPORTHEAD
                        000003    1668  	equ	LN316,*-DPDA-ST316-1
                                  1669  "
                                  1670  " STATE 320
                        000500    1671  	equ	ST320,*-DPDA
    001206  aa   000000 000002    1672  	zero	STRD,LN320
    001207  aa   000100 001470    1673  	zero	T64,ST824	"INPUT
    001210  aa   000147 001475    1674  	zero	T103,ST829	"<identifier>
                        000002    1675  	equ	LN320,*-DPDA-ST320-1
                                  1676  "
                                  1677  " STATE 323
                        000503    1678  	equ	ST323,*-DPDA
    001211  aa   000004 000004    1679  	zero	APLY,LN323
    001212  aa   000001 000001    1680  	zero	1,1   pd ld
    001213  aa   000155 000001    1681  	zero	109,1   rule/alt
    001214  aa   000053 000152    1682  	zero	43,ST106 prod/val
    001215  aa   004665 000460    1683  	zero	ST2485,ST304
                        000004    1684  	equ	LN323,*-DPDA-ST323-1
                                  1685  "
                                  1686  " STATE 328
                        000510    1687  	equ	ST328,*-DPDA
    001216  aa   000006 000003    1688  	zero	APLYS,LN328
    001217  aa   000001 000001    1689  	zero	1,1   pd ld
    001220  aa   000154 000001    1690  	zero	108,1   rule/alt
    001221  aa   000053 000503    1691  	zero	43,ST323 prod/val
                        000003    1692  	equ	LN328,*-DPDA-ST328-1
                                  1693  "
                                  1694  " STATE 332
                        000514    1695  	equ	ST332,*-DPDA
    001222  aa   000006 000003    1696  	zero	APLYS,LN332
    001223  aa   000001 000001    1697  	zero	1,1   pd ld
    001224  aa   000157 000001    1698  	zero	111,1   rule/alt
    001225  aa   000053 000503    1699  	zero	43,ST323 prod/val
                        000003    1700  	equ	LN332,*-DPDA-ST332-1
                                  1701  "
                                  1702  " STATE 336
                        000520    1703  	equ	ST336,*-DPDA
    001226  aa   000000 000002    1704  	zero	STRD,LN336
    001227  aa   000065 000523    1705  	zero	T53,ST339	"FILE
    001230  aa   000141 000524    1706  	zero	T97,ST340	"SWITCH
                        000002    1707  	equ	LN336,*-DPDA-ST336-1
                                  1708  "
                                  1709  " STATE 339
                        000523    1710  	equ	ST339,*-DPDA
    001231  aa   000002 000230    1711  	zero	STRDS,ST152
                                  1712
                                  1713  "
                                  1714  " STATE 340
                        000524    1715  	equ	ST340,*-DPDA
    001232  aa   000002 000230    1716  	zero	STRDS,ST152
                                  1717
                                  1718  "
                                  1719  " STATE 341
                        000525    1720  	equ	ST341,*-DPDA
    001233  aa   000006 000003    1721  	zero	APLYS,LN341
    001234  aa   000001 000001    1722  	zero	1,1   pd ld
    001235  aa   000153 000001    1723  	zero	107,1   rule/alt
    001236  aa   000053 000503    1724  	zero	43,ST323 prod/val
                        000003    1725  	equ	LN341,*-DPDA-ST341-1
                                  1726  "
                                  1727  " STATE 345
                        000531    1728  	equ	ST345,*-DPDA
    001237  aa   000006 000003    1729  	zero	APLYS,LN345
    001240  aa   000001 000001    1730  	zero	1,1   pd ld
    001241  aa   000152 000001    1731  	zero	106,1   rule/alt
    001242  aa   000053 000503    1732  	zero	43,ST323 prod/val
                        000003    1733  	equ	LN345,*-DPDA-ST345-1
                                  1734  "
                                  1735  " STATE 349
                        000535    1736  	equ	ST349,*-DPDA
    001243  aa   000000 000001    1737  	zero	STRD,LN349
    001244  aa   000027 001535    1738  	zero	T23,ST861	".
                        000001    1739  	equ	LN349,*-DPDA-ST349-1
                                  1740  "
                                  1741  " STATE 351
                        000537    1742  	equ	ST351,*-DPDA
    001245  aa   000005 000003    1743  	zero	APLY1,LN351
    001246  aa   000000 000000    1744  	zero	0,0   pd ld
    001247  aa   000115 000001    1745  	zero	77,1   rule/alt
    001250  aa   000035 000535    1746  	zero	29,ST349 prod/val
                        000003    1747  	equ	LN351,*-DPDA-ST351-1
                                  1748  "
                                  1749  " STATE 355
                        000543    1750  	equ	ST355,*-DPDA
    001251  aa   000000 000001    1751  	zero	STRD,LN355
    001252  aa   000016 001541    1752  	zero	T14,ST865	"(
                        000001    1753  	equ	LN355,*-DPDA-ST355-1
                                  1754  "
                                  1755  " STATE 357
                        000545    1756  	equ	ST357,*-DPDA
    001253  aa   000005 000003    1757  	zero	APLY1,LN357
    001254  aa   000000 000000    1758  	zero	0,0   pd ld
    001255  aa   000120 000001    1759  	zero	80,1   rule/alt
    001256  aa   000035 000535    1760  	zero	29,ST349 prod/val
                        000003    1761  	equ	LN357,*-DPDA-ST357-1
                                  1762  "
                                  1763  " STATE 361
                        000551    1764  	equ	ST361,*-DPDA
    001257  aa   000000 000001    1765  	zero	STRD,LN361
    001260  aa   000016 001543    1766  	zero	T14,ST867	"(
                        000001    1767  	equ	LN361,*-DPDA-ST361-1
                                  1768  "
                                  1769  " STATE 363
                        000553    1770  	equ	ST363,*-DPDA
    001261  aa   000000 000001    1771  	zero	STRD,LN363
    001262  aa   000016 001546    1772  	zero	T14,ST870	"(
                        000001    1773  	equ	LN363,*-DPDA-ST363-1
                                  1774  "
                                  1775  " STATE 365
                        000555    1776  	equ	ST365,*-DPDA
    001263  aa   000005 000003    1777  	zero	APLY1,LN365
    001264  aa   000001 000001    1778  	zero	1,1   pd ld
    001265  aa   777741 000001    1779  	zero	-31,1   rule/alt
    001266  aa   000022 000220    1780  	zero	18,ST144 prod/val
                        000003    1781  	equ	LN365,*-DPDA-ST365-1
                                  1782  "
                                  1783  " STATE 369
                        000561    1784  	equ	ST369,*-DPDA
    001267  aa   000005 000003    1785  	zero	APLY1,LN369
    001270  aa   000000 000000    1786  	zero	0,0   pd ld
    001271  aa   777740 000001    1787  	zero	-32,1   rule/alt
    001272  aa   000023 000565    1788  	zero	19,ST373 prod/val
                        000003    1789  	equ	LN369,*-DPDA-ST369-1
                                  1790  "
                                  1791  " STATE 373
                        000565    1792  	equ	ST373,*-DPDA
    001273  aa   000011 000003    1793  	zero	NSRD,LN373
    001274  aa   000022 773007    1794  	zero	T18,-ST2553	",
    001275  aa   000027 773004    1795  	zero	T23,-ST2556	".
    001276  aa   000152 773007    1796  	zero	T106,-ST2553	",2
                        000003    1797  	equ	LN373,*-DPDA-ST373-1
                                  1798  "
                                  1799  " STATE 377
                        000571    1800  	equ	ST377,*-DPDA
    001277  aa   000000 000002    1801  	zero	STRD,LN377
    001300  aa   000066 001570    1802  	zero	T54,ST888	"FILL
    001301  aa   000147 001572    1803  	zero	T103,ST890	"<identifier>
                        000002    1804  	equ	LN377,*-DPDA-ST377-1
                                  1805  "
                                  1806  " STATE 380
                        000574    1807  	equ	ST380,*-DPDA
    001302  aa   000004 000005    1808  	zero	APLY,LN380
    001303  aa   000000 000000    1809  	zero	0,0   pd ld
    001304  aa   777316 000001    1810  	zero	-306,1   rule/alt
    001305  aa   000170 000602    1811  	zero	120,ST386 prod/val
    001306  aa   001106 001623    1812  	zero	ST582,ST915
    001307  aa   001114 001630    1813  	zero	ST588,ST920
                        000005    1814  	equ	LN380,*-DPDA-ST380-1
                                  1815  "
                                  1816  " STATE 386
                        000602    1817  	equ	ST386,*-DPDA
    001310  aa   000004 000005    1818  	zero	APLY,LN386
    001311  aa   000000 000000    1819  	zero	0,0   pd ld
    001312  aa   777327 000001    1820  	zero	-297,1   rule/alt
    001313  aa   000167 000610    1821  	zero	119,ST392 prod/val
    001314  aa   001575 002342    1822  	zero	ST893,ST1250
    001315  aa   001605 002346    1823  	zero	ST901,ST1254
                        000005    1824  	equ	LN386,*-DPDA-ST386-1
                                  1825  "
                                  1826  " STATE 392
                        000610    1827  	equ	ST392,*-DPDA
    001316  aa   000004 000005    1828  	zero	APLY,LN392
    001317  aa   000000 000000    1829  	zero	0,0   pd ld
    001320  aa   777330 000001    1830  	zero	-296,1   rule/alt
    001321  aa   000166 000616    1831  	zero	118,ST398 prod/val
    001322  aa   001606 002352    1832  	zero	ST902,ST1258
    001323  aa   001607 002437    1833  	zero	ST903,ST1311
                        000005    1834  	equ	LN392,*-DPDA-ST392-1
                                  1835  "
                                  1836  " STATE 398
                        000616    1837  	equ	ST398,*-DPDA
    001324  aa   000011 000064    1838  	zero	NSRD,LN398
    001325  aa   000017 772775    1839  	zero	T15,-ST2563	")
    001326  aa   000020 773000    1840  	zero	T16,-ST2560	"*
    001327  aa   000021 772775    1841  	zero	T17,-ST2563	"+
    001330  aa   000022 772775    1842  	zero	T18,-ST2563	",
    001331  aa   000023 772775    1843  	zero	T19,-ST2563	"-
    001332  aa   000025 773000    1844  	zero	T21,-ST2560	"/
    001333  aa   000027 772775    1845  	zero	T23,-ST2563	".
    001334  aa   000030 772775    1846  	zero	T24,-ST2563	"ALIGN
    001335  aa   000031 772775    1847  	zero	T25,-ST2563	"AND
    001336  aa   000033 772775    1848  	zero	T27,-ST2563	"ATTACH
    001337  aa   000035 772775    1849  	zero	T29,-ST2563	"BEGINS
    001340  aa   000037 772775    1850  	zero	T31,-ST2563	"BREAK
    001341  aa   000040 772775    1851  	zero	T32,-ST2563	"CENTER
    001342  aa   000041 772775    1852  	zero	T33,-ST2563	"CHARACTER
    001343  aa   000042 772775    1853  	zero	T34,-ST2563	"COLUMN
    001344  aa   000043 772775    1854  	zero	T35,-ST2563	"CONCATENATE
    001345  aa   000045 772775    1855  	zero	T37,-ST2563	"CONTAINS
    001346  aa   000050 772775    1856  	zero	T40,-ST2563	"DEFAULT
    001347  aa   000060 772775    1857  	zero	T48,-ST2563	"EDIT
    001350  aa   000062 772775    1858  	zero	T50,-ST2563	"ENDS
    001351  aa   000063 772775    1859  	zero	T51,-ST2563	"EQ
    001352  aa   000065 772775    1860  	zero	T53,-ST2563	"FILE
    001353  aa   000066 772775    1861  	zero	T54,-ST2563	"FILL
    001354  aa   000070 772775    1862  	zero	T56,-ST2563	"BOOLEAN
    001355  aa   000072 772775    1863  	zero	T58,-ST2563	"FOLD
    001356  aa   000073 772775    1864  	zero	T59,-ST2563	"GE
    001357  aa   000074 772775    1865  	zero	T60,-ST2563	"GT
    001360  aa   000076 772775    1866  	zero	T62,-ST2563	"IF
    001361  aa   000077 772775    1867  	zero	T63,-ST2563	"IN
    001362  aa   000102 772775    1868  	zero	T66,-ST2563	"KEY
    001363  aa   000103 772775    1869  	zero	T67,-ST2563	"LE
    001364  aa   000104 772775    1870  	zero	T68,-ST2563	"LEFT
    001365  aa   000105 772775    1871  	zero	T69,-ST2563	"LET
    001366  aa   000107 772775    1872  	zero	T71,-ST2563	"LT
    001367  aa   000110 772775    1873  	zero	T72,-ST2563	"MAXLINE
    001370  aa   000111 772775    1874  	zero	T73,-ST2563	"MINLINE
    001371  aa   000112 772775    1875  	zero	T74,-ST2563	"NE
    001372  aa   000114 772775    1876  	zero	T76,-ST2563	"NOT
    001373  aa   000115 772775    1877  	zero	T77,-ST2563	"NUMBER
    001374  aa   000116 772775    1878  	zero	T78,-ST2563	"ON
    001375  aa   000120 772775    1879  	zero	T80,-ST2563	"OR
    001376  aa   000123 772775    1880  	zero	T83,-ST2563	"PAGELENGTH
    001377  aa   000124 772775    1881  	zero	T84,-ST2563	"PAGEWIDTH
    001400  aa   000126 772775    1882  	zero	T86,-ST2563	"PICTURE
    001401  aa   000131 772775    1883  	zero	T89,-ST2563	"RECORD
    001402  aa   000136 772775    1884  	zero	T94,-ST2563	"RIGHT
    001403  aa   000140 772775    1885  	zero	T96,-ST2563	"STREAM
    001404  aa   000152 772775    1886  	zero	T106,-ST2563	",2
    001405  aa   000153 772775    1887  	zero	T107,-ST2563	",3
    001406  aa   000154 772775    1888  	zero	T108,-ST2563	",4
    001407  aa   000155 772775    1889  	zero	T109,-ST2563	"BSP
    001410  aa   000162 772775    1890  	zero	T114,-ST2563	"THEN
                        000064    1891  	equ	LN398,*-DPDA-ST398-1
                                  1892  "
                                  1893  " STATE 451
                        000703    1894  	equ	ST451,*-DPDA
    001411  aa   000011 000062    1895  	zero	NSRD,LN451
    001412  aa   000017 772760    1896  	zero	T15,-ST2576	")
    001413  aa   000021 772763    1897  	zero	T17,-ST2573	"+
    001414  aa   000022 772760    1898  	zero	T18,-ST2576	",
    001415  aa   000023 772763    1899  	zero	T19,-ST2573	"-
    001416  aa   000027 772760    1900  	zero	T23,-ST2576	".
    001417  aa   000030 772760    1901  	zero	T24,-ST2576	"ALIGN
    001420  aa   000031 772760    1902  	zero	T25,-ST2576	"AND
    001421  aa   000033 772760    1903  	zero	T27,-ST2576	"ATTACH
    001422  aa   000035 772760    1904  	zero	T29,-ST2576	"BEGINS
    001423  aa   000037 772760    1905  	zero	T31,-ST2576	"BREAK
    001424  aa   000040 772760    1906  	zero	T32,-ST2576	"CENTER
    001425  aa   000041 772760    1907  	zero	T33,-ST2576	"CHARACTER
    001426  aa   000042 772760    1908  	zero	T34,-ST2576	"COLUMN
    001427  aa   000043 772760    1909  	zero	T35,-ST2576	"CONCATENATE
    001430  aa   000045 772760    1910  	zero	T37,-ST2576	"CONTAINS
    001431  aa   000050 772760    1911  	zero	T40,-ST2576	"DEFAULT
    001432  aa   000060 772760    1912  	zero	T48,-ST2576	"EDIT
    001433  aa   000062 772760    1913  	zero	T50,-ST2576	"ENDS
    001434  aa   000063 772760    1914  	zero	T51,-ST2576	"EQ
    001435  aa   000065 772760    1915  	zero	T53,-ST2576	"FILE
    001436  aa   000066 772760    1916  	zero	T54,-ST2576	"FILL
    001437  aa   000070 772760    1917  	zero	T56,-ST2576	"BOOLEAN
    001440  aa   000072 772760    1918  	zero	T58,-ST2576	"FOLD
    001441  aa   000073 772760    1919  	zero	T59,-ST2576	"GE
    001442  aa   000074 772760    1920  	zero	T60,-ST2576	"GT
    001443  aa   000076 772760    1921  	zero	T62,-ST2576	"IF
    001444  aa   000077 772760    1922  	zero	T63,-ST2576	"IN
    001445  aa   000102 772760    1923  	zero	T66,-ST2576	"KEY
    001446  aa   000103 772760    1924  	zero	T67,-ST2576	"LE
    001447  aa   000104 772760    1925  	zero	T68,-ST2576	"LEFT
    001450  aa   000105 772760    1926  	zero	T69,-ST2576	"LET
    001451  aa   000107 772760    1927  	zero	T71,-ST2576	"LT
    001452  aa   000110 772760    1928  	zero	T72,-ST2576	"MAXLINE
    001453  aa   000111 772760    1929  	zero	T73,-ST2576	"MINLINE
    001454  aa   000112 772760    1930  	zero	T74,-ST2576	"NE
    001455  aa   000114 772760    1931  	zero	T76,-ST2576	"NOT
    001456  aa   000115 772760    1932  	zero	T77,-ST2576	"NUMBER
    001457  aa   000116 772760    1933  	zero	T78,-ST2576	"ON
    001460  aa   000120 772760    1934  	zero	T80,-ST2576	"OR
    001461  aa   000123 772760    1935  	zero	T83,-ST2576	"PAGELENGTH
    001462  aa   000124 772760    1936  	zero	T84,-ST2576	"PAGEWIDTH
    001463  aa   000126 772760    1937  	zero	T86,-ST2576	"PICTURE
    001464  aa   000131 772760    1938  	zero	T89,-ST2576	"RECORD
    001465  aa   000136 772760    1939  	zero	T94,-ST2576	"RIGHT
    001466  aa   000140 772760    1940  	zero	T96,-ST2576	"STREAM
    001467  aa   000152 772760    1941  	zero	T106,-ST2576	",2
    001470  aa   000153 772760    1942  	zero	T107,-ST2576	",3
    001471  aa   000154 772760    1943  	zero	T108,-ST2576	",4
    001472  aa   000155 772760    1944  	zero	T109,-ST2576	"BSP
    001473  aa   000162 772760    1945  	zero	T114,-ST2576	"THEN
                        000062    1946  	equ	LN451,*-DPDA-ST451-1
                                  1947  "
                                  1948  " STATE 502
                        000766    1949  	equ	ST502,*-DPDA
    001474  aa   000004 000004    1950  	zero	APLY,LN502
    001475  aa   000000 000000    1951  	zero	0,0   pd ld
    001476  aa   777347 000001    1952  	zero	-281,1   rule/alt
    001477  aa   000163 000773    1953  	zero	115,ST507 prod/val
    001500  aa   003336 003677    1954  	zero	ST1758,ST1983
                        000004    1955  	equ	LN502,*-DPDA-ST502-1
                                  1956  "
                                  1957  " STATE 507
                        000773    1958  	equ	ST507,*-DPDA
    001501  aa   000004 000004    1959  	zero	APLY,LN507
    001502  aa   000000 000000    1960  	zero	0,0   pd ld
    001503  aa   777352 000001    1961  	zero	-278,1   rule/alt
    001504  aa   000161 001007    1962  	zero	113,ST519 prod/val
    001505  aa   001610 002524    1963  	zero	ST904,ST1364
                        000004    1964  	equ	LN507,*-DPDA-ST507-1
                                  1965  "
                                  1966  " STATE 512
                        001000    1967  	equ	ST512,*-DPDA
    001506  aa   000011 000006    1968  	zero	NSRD,LN512
    001507  aa   000033 772752    1969  	zero	T27,-ST2582	"ATTACH
    001510  aa   000043 772754    1970  	zero	T35,-ST2580	"CONCATENATE
    001511  aa   000065 772752    1971  	zero	T53,-ST2582	"FILE
    001512  aa   000131 772752    1972  	zero	T89,-ST2582	"RECORD
    001513  aa   000140 772752    1973  	zero	T96,-ST2582	"STREAM
    001514  aa   000152 772752    1974  	zero	T106,-ST2582	",2
                        000006    1975  	equ	LN512,*-DPDA-ST512-1
                                  1976  "
                                  1977  " STATE 519
                        001007    1978  	equ	ST519,*-DPDA
    001515  aa   000004 000017    1979  	zero	APLY,LN519
    001516  aa   000000 000000    1980  	zero	0,0   pd ld
    001517  aa   777354 000001    1981  	zero	-276,1   rule/alt
    001520  aa   000162 001255    1982  	zero	114,ST685 prod/val
    001521  aa   000230 001000    1983  	zero	ST152,ST512
    001522  aa   000252 001144    1984  	zero	ST170,ST612
    001523  aa   000523 001506    1985  	zero	ST339,ST838
    001524  aa   000524 001522    1986  	zero	ST340,ST850
    001525  aa   001357 002077    1987  	zero	ST751,ST1087
    001526  aa   001612 002533    1988  	zero	ST906,ST1371
    001527  aa   001614 002542    1989  	zero	ST908,ST1378
    001530  aa   001675 002612    1990  	zero	ST957,ST1418
    001531  aa   001721 002636    1991  	zero	ST977,ST1438
    001532  aa   001722 002646    1992  	zero	ST978,ST1446
    001533  aa   001723 002656    1993  	zero	ST979,ST1454
    001534  aa   003753 004112    1994  	zero	ST2027,ST2122
                        000017    1995  	equ	LN519,*-DPDA-ST519-1
                                  1996  "
                                  1997  " STATE 535
                        001027    1998  	equ	ST535,*-DPDA
    001535  aa   000006 000003    1999  	zero	APLYS,LN535
    001536  aa   000000 000000    2000  	zero	0,0   pd ld
    001537  aa   777321 000001    2001  	zero	-303,1   rule/alt
    001540  aa   000170 000574    2002  	zero	120,ST380 prod/val
                        000003    2003  	equ	LN535,*-DPDA-ST535-1
                                  2004  "
                                  2005  " STATE 539
                        001033    2006  	equ	ST539,*-DPDA
    001541  aa   000000 000001    2007  	zero	STRD,LN539
    001542  aa   000016 001611    2008  	zero	T14,ST905	"(
                        000001    2009  	equ	LN539,*-DPDA-ST539-1
                                  2010  "
                                  2011  " STATE 541
                        001035    2012  	equ	ST541,*-DPDA
    001543  aa   000000 000001    2013  	zero	STRD,LN541
    001544  aa   000016 001612    2014  	zero	T14,ST906	"(
                        000001    2015  	equ	LN541,*-DPDA-ST541-1
                                  2016  "
                                  2017  " STATE 543
                        001037    2018  	equ	ST543,*-DPDA
    001545  aa   000000 000001    2019  	zero	STRD,LN543
    001546  aa   000016 001613    2020  	zero	T14,ST907	"(
                        000001    2021  	equ	LN543,*-DPDA-ST543-1
                                  2022  "
                                  2023  " STATE 545
                        001041    2024  	equ	ST545,*-DPDA
    001547  aa   000000 000001    2025  	zero	STRD,LN545
    001550  aa   000016 001614    2026  	zero	T14,ST908	"(
                        000001    2027  	equ	LN545,*-DPDA-ST545-1
                                  2028  "
                                  2029  " STATE 547
                        001043    2030  	equ	ST547,*-DPDA
    001551  aa   000005 000003    2031  	zero	APLY1,LN547
    001552  aa   000000 000000    2032  	zero	0,0   pd ld
    001553  aa   777340 000001    2033  	zero	-288,1   rule/alt
    001554  aa   000164 000766    2034  	zero	116,ST502 prod/val
                        000003    2035  	equ	LN547,*-DPDA-ST547-1
                                  2036  "
                                  2037  " STATE 551
                        001047    2038  	equ	ST551,*-DPDA
    001555  aa   000005 000003    2039  	zero	APLY1,LN551
    001556  aa   000000 000000    2040  	zero	0,0   pd ld
    001557  aa   777337 000001    2041  	zero	-289,1   rule/alt
    001560  aa   000164 000766    2042  	zero	116,ST502 prod/val
                        000003    2043  	equ	LN551,*-DPDA-ST551-1
                                  2044  "
                                  2045  " STATE 555
                        001053    2046  	equ	ST555,*-DPDA
    001561  aa   000005 000003    2047  	zero	APLY1,LN555
    001562  aa   000000 000000    2048  	zero	0,0   pd ld
    001563  aa   777343 000001    2049  	zero	-285,1   rule/alt
    001564  aa   000164 000766    2050  	zero	116,ST502 prod/val
                        000003    2051  	equ	LN555,*-DPDA-ST555-1
                                  2052  "
                                  2053  " STATE 559
                        001057    2054  	equ	ST559,*-DPDA
    001565  aa   000005 000003    2055  	zero	APLY1,LN559
    001566  aa   000000 000000    2056  	zero	0,0   pd ld
    001567  aa   777341 000001    2057  	zero	-287,1   rule/alt
    001570  aa   000164 000766    2058  	zero	116,ST502 prod/val
                        000003    2059  	equ	LN559,*-DPDA-ST559-1
                                  2060  "
                                  2061  " STATE 563
                        001063    2062  	equ	ST563,*-DPDA
    001571  aa   000000 000001    2063  	zero	STRD,LN563
    001572  aa   000016 001615    2064  	zero	T14,ST909	"(
                        000001    2065  	equ	LN563,*-DPDA-ST563-1
                                  2066  "
                                  2067  " STATE 565
                        001065    2068  	equ	ST565,*-DPDA
    001573  aa   000005 000003    2069  	zero	APLY1,LN565
    001574  aa   000000 000000    2070  	zero	0,0   pd ld
    001575  aa   000337 000001    2071  	zero	223,1   rule/alt
    001576  aa   000140 001035    2072  	zero	96,ST541 prod/val
                        000003    2073  	equ	LN565,*-DPDA-ST565-1
                                  2074  "
                                  2075  " STATE 569
                        001071    2076  	equ	ST569,*-DPDA
    001577  aa   000005 000003    2077  	zero	APLY1,LN569
    001600  aa   000000 000000    2078  	zero	0,0   pd ld
    001601  aa   000336 000001    2079  	zero	222,1   rule/alt
    001602  aa   000137 001037    2080  	zero	95,ST543 prod/val
                        000003    2081  	equ	LN569,*-DPDA-ST569-1
                                  2082  "
                                  2083  " STATE 573
                        001075    2084  	equ	ST573,*-DPDA
    001603  aa   000005 000003    2085  	zero	APLY1,LN573
    001604  aa   000000 000000    2086  	zero	0,0   pd ld
    001605  aa   000335 000001    2087  	zero	221,1   rule/alt
    001606  aa   000136 001041    2088  	zero	94,ST545 prod/val
                        000003    2089  	equ	LN573,*-DPDA-ST573-1
                                  2090  "
                                  2091  " STATE 577
                        001101    2092  	equ	ST577,*-DPDA
    001607  aa   000005 000003    2093  	zero	APLY1,LN577
    001610  aa   000000 000000    2094  	zero	0,0   pd ld
    001611  aa   777342 000001    2095  	zero	-286,1   rule/alt
    001612  aa   000164 000766    2096  	zero	116,ST502 prod/val
                        000003    2097  	equ	LN577,*-DPDA-ST577-1
                                  2098  "
                                  2099  " STATE 581
                        001105    2100  	equ	ST581,*-DPDA
    001613  aa   000002 000405    2101  	zero	STRDS,ST261
                                  2102
                                  2103  "
                                  2104  " STATE 582
                        001106    2105  	equ	ST582,*-DPDA
    001614  aa   000000 000005    2106  	zero	STRD,LN582
    001615  aa   000010 001063    2107  	zero	T8,ST563	"%PAGENUMBER
    001616  aa   000016 001627    2108  	zero	T14,ST919	"(
    001617  aa   000143 001124    2109  	zero	T99,ST596	"TRANSFORM
    001620  aa   000147 001130    2110  	zero	T103,ST600	"<identifier>
    001621  aa   000150 001134    2111  	zero	T104,ST604	"<number>
                        000005    2112  	equ	LN582,*-DPDA-ST582-1
                                  2113  "
                                  2114  " STATE 588
                        001114    2115  	equ	ST588,*-DPDA
    001622  aa   000000 000005    2116  	zero	STRD,LN588
    001623  aa   000010 001063    2117  	zero	T8,ST563	"%PAGENUMBER
    001624  aa   000016 001634    2118  	zero	T14,ST924	"(
    001625  aa   000143 001124    2119  	zero	T99,ST596	"TRANSFORM
    001626  aa   000147 001130    2120  	zero	T103,ST600	"<identifier>
    001627  aa   000150 001134    2121  	zero	T104,ST604	"<number>
                        000005    2122  	equ	LN588,*-DPDA-ST588-1
                                  2123  "
                                  2124  " STATE 594
                        001122    2125  	equ	ST594,*-DPDA
    001630  aa   000000 000001    2126  	zero	STRD,LN594
    001631  aa   000016 001635    2127  	zero	T14,ST925	"(
                        000001    2128  	equ	LN594,*-DPDA-ST594-1
                                  2129  "
                                  2130  " STATE 596
                        001124    2131  	equ	ST596,*-DPDA
    001632  aa   000005 000003    2132  	zero	APLY1,LN596
    001633  aa   000000 000000    2133  	zero	0,0   pd ld
    001634  aa   000340 000001    2134  	zero	224,1   rule/alt
    001635  aa   000141 001033    2135  	zero	97,ST539 prod/val
                        000003    2136  	equ	LN596,*-DPDA-ST596-1
                                  2137  "
                                  2138  " STATE 600
                        001130    2139  	equ	ST600,*-DPDA
    001636  aa   000006 000003    2140  	zero	APLYS,LN600
    001637  aa   000000 000000    2141  	zero	0,0   pd ld
    001640  aa   000461 000001    2142  	zero	305,1   rule/alt
    001641  aa   000170 000574    2143  	zero	120,ST380 prod/val
                        000003    2144  	equ	LN600,*-DPDA-ST600-1
                                  2145  "
                                  2146  " STATE 604
                        001134    2147  	equ	ST604,*-DPDA
    001642  aa   000006 000003    2148  	zero	APLYS,LN604
    001643  aa   000000 000000    2149  	zero	0,0   pd ld
    001644  aa   000460 000001    2150  	zero	304,1   rule/alt
    001645  aa   000170 000574    2151  	zero	120,ST380 prod/val
                        000003    2152  	equ	LN604,*-DPDA-ST604-1
                                  2153  "
                                  2154  " STATE 608
                        001140    2155  	equ	ST608,*-DPDA
    001646  aa   000006 000003    2156  	zero	APLYS,LN608
    001647  aa   000000 000000    2157  	zero	0,0   pd ld
    001650  aa   777350 000001    2158  	zero	-280,1   rule/alt
    001651  aa   000163 000766    2159  	zero	115,ST502 prod/val
                        000003    2160  	equ	LN608,*-DPDA-ST608-1
                                  2161  "
                                  2162  " STATE 612
                        001144    2163  	equ	ST612,*-DPDA
    001652  aa   000011 000006    2164  	zero	NSRD,LN612
    001653  aa   000033 772744    2165  	zero	T27,-ST2588	"ATTACH
    001654  aa   000043 772746    2166  	zero	T35,-ST2586	"CONCATENATE
    001655  aa   000065 772744    2167  	zero	T53,-ST2588	"FILE
    001656  aa   000131 772744    2168  	zero	T89,-ST2588	"RECORD
    001657  aa   000140 772744    2169  	zero	T96,-ST2588	"STREAM
    001660  aa   000152 772744    2170  	zero	T106,-ST2588	",2
                        000006    2171  	equ	LN612,*-DPDA-ST612-1
                                  2172  "
                                  2173  " STATE 619
                        001153    2174  	equ	ST619,*-DPDA
    001661  aa   000004 000004    2175  	zero	APLY,LN619
    001662  aa   000001 000001    2176  	zero	1,1   pd ld
    001663  aa   000042 000001    2177  	zero	34,1   rule/alt
    001664  aa   000024 000214    2178  	zero	20,ST140 prod/val
    001665  aa   004705 000555    2179  	zero	ST2501,ST365
                        000004    2180  	equ	LN619,*-DPDA-ST619-1
                                  2181  "
                                  2182  " STATE 624
                        001160    2183  	equ	ST624,*-DPDA
    001666  aa   000006 000003    2184  	zero	APLYS,LN624
    001667  aa   000001 000001    2185  	zero	1,1   pd ld
    001670  aa   000043 000001    2186  	zero	35,1   rule/alt
    001671  aa   000024 001153    2187  	zero	20,ST619 prod/val
                        000003    2188  	equ	LN624,*-DPDA-ST624-1
                                  2189  "
                                  2190  " STATE 628
                        001164    2191  	equ	ST628,*-DPDA
    001672  aa   000005 000003    2192  	zero	APLY1,LN628
    001673  aa   000001 000001    2193  	zero	1,1   pd ld
    001674  aa   000010 000001    2194  	zero	8,1   rule/alt
    001675  aa   000006 000275    2195  	zero	6,ST189 prod/val
                        000003    2196  	equ	LN628,*-DPDA-ST628-1
                                  2197  "
                                  2198  " STATE 632
                        001170    2199  	equ	ST632,*-DPDA
    001676  aa   000000 000001    2200  	zero	STRD,LN632
    001677  aa   000076 001647    2201  	zero	T62,ST935	"IF
                        000001    2202  	equ	LN632,*-DPDA-ST632-1
                                  2203  "
                                  2204  " STATE 634
                        001172    2205  	equ	ST634,*-DPDA
    001700  aa   000005 000003    2206  	zero	APLY1,LN634
    001701  aa   000002 000002    2207  	zero	2,2   pd ld
    001702  aa   777772 000001    2208  	zero	-6,1   rule/alt
    001703  aa   000005 000066    2209  	zero	5,ST54 prod/val
                        000003    2210  	equ	LN634,*-DPDA-ST634-1
                                  2211  "
                                  2212  " STATE 638
                        001176    2213  	equ	ST638,*-DPDA
    001704  aa   000000 000005    2214  	zero	STRD,LN638
    001705  aa   000041 001673    2215  	zero	T33,ST955	"CHARACTER
    001706  aa   000050 001675    2216  	zero	T40,ST957	"DEFAULT
    001707  aa   000070 001676    2217  	zero	T56,ST958	"BOOLEAN
    001710  aa   000076 001647    2218  	zero	T62,ST935	"IF
    001711  aa   000102 001702    2219  	zero	T66,ST962	"KEY
                        000005    2220  	equ	LN638,*-DPDA-ST638-1
                                  2221  "
                                  2222  " STATE 644
                        001204    2223  	equ	ST644,*-DPDA
    001712  aa   000005 000003    2224  	zero	APLY1,LN644
    001713  aa   000002 000002    2225  	zero	2,2   pd ld
    001714  aa   000001 000001    2226  	zero	1,1   rule/alt
    001715  aa   000001 000106    2227  	zero	1,ST70 prod/val
                        000003    2228  	equ	LN644,*-DPDA-ST644-1
                                  2229  "
                                  2230  " STATE 648
                        001210    2231  	equ	ST648,*-DPDA
    001716  aa   000005 000003    2232  	zero	APLY1,LN648
    001717  aa   000002 000002    2233  	zero	2,2   pd ld
    001720  aa   000144 000001    2234  	zero	100,1   rule/alt
    001721  aa   000047 000036    2235  	zero	39,ST30 prod/val
                        000003    2236  	equ	LN648,*-DPDA-ST648-1
                                  2237  "
                                  2238  " STATE 652
                        001214    2239  	equ	ST652,*-DPDA
    001722  aa   000000 000001    2240  	zero	STRD,LN652
    001723  aa   000147 000333    2241  	zero	T103,ST219	"<identifier>
                        000001    2242  	equ	LN652,*-DPDA-ST652-1
                                  2243  "
                                  2244  " STATE 654
                        001216    2245  	equ	ST654,*-DPDA
    001724  aa   000005 000003    2246  	zero	APLY1,LN654
    001725  aa   000002 000002    2247  	zero	2,2   pd ld
    001726  aa   000321 000001    2248  	zero	209,1   rule/alt
    001727  aa   000127 000127    2249  	zero	87,ST87 prod/val
                        000003    2250  	equ	LN654,*-DPDA-ST654-1
                                  2251  "
                                  2252  " STATE 658
                        001222    2253  	equ	ST658,*-DPDA
    001730  aa   000000 000001    2254  	zero	STRD,LN658
    001731  aa   000057 001710    2255  	zero	T47,ST968	"DUPLICATE
                        000001    2256  	equ	LN658,*-DPDA-ST658-1
                                  2257  "
                                  2258  " STATE 660
                        001224    2259  	equ	ST660,*-DPDA
    001732  aa   000004 000004    2260  	zero	APLY,LN660
    001733  aa   000001 000001    2261  	zero	1,1   pd ld
    001734  aa   000326 000001    2262  	zero	214,1   rule/alt
    001735  aa   000132 000323    2263  	zero	90,ST211 prod/val
    001736  aa   001214 001704    2264  	zero	ST652,ST964
                        000004    2265  	equ	LN660,*-DPDA-ST660-1
                                  2266  "
                                  2267  " STATE 665
                        001231    2268  	equ	ST665,*-DPDA
    001737  aa   000006 000003    2269  	zero	APLYS,LN665
    001740  aa   000001 000001    2270  	zero	1,1   pd ld
    001741  aa   000327 000001    2271  	zero	215,1   rule/alt
    001742  aa   000132 001224    2272  	zero	90,ST660 prod/val
                        000003    2273  	equ	LN665,*-DPDA-ST665-1
                                  2274  "
                                  2275  " STATE 669
                        001235    2276  	equ	ST669,*-DPDA
    001743  aa   000006 000003    2277  	zero	APLYS,LN669
    001744  aa   000001 000001    2278  	zero	1,1   pd ld
    001745  aa   777500 000001    2279  	zero	-192,1   rule/alt
    001746  aa   000121 000350    2280  	zero	81,ST232 prod/val
                        000003    2281  	equ	LN669,*-DPDA-ST669-1
                                  2282  "
                                  2283  " STATE 673
                        001241    2284  	equ	ST673,*-DPDA
    001747  aa   000005 000003    2285  	zero	APLY1,LN673
    001750  aa   000003 000003    2286  	zero	3,3   pd ld
    001751  aa   000274 000001    2287  	zero	188,1   rule/alt
    001752  aa   000117 000006    2288  	zero	79,ST6 prod/val
                        000003    2289  	equ	LN673,*-DPDA-ST673-1
                                  2290  "
                                  2291  " STATE 677
                        001245    2292  	equ	ST677,*-DPDA
    001753  aa   000000 000003    2293  	zero	STRD,LN677
    001754  aa   000027 001715    2294  	zero	T23,ST973	".
    001755  aa   000100 001470    2295  	zero	T64,ST824	"INPUT
    001756  aa   000147 001475    2296  	zero	T103,ST829	"<identifier>
                        000003    2297  	equ	LN677,*-DPDA-ST677-1
                                  2298  "
                                  2299  " STATE 681
                        001251    2300  	equ	ST681,*-DPDA
    001757  aa   000005 000003    2301  	zero	APLY1,LN681
    001760  aa   000000 000000    2302  	zero	0,0   pd ld
    001761  aa   000313 000001    2303  	zero	203,1   rule/alt
    001762  aa   000125 001245    2304  	zero	85,ST677 prod/val
                        000003    2305  	equ	LN681,*-DPDA-ST681-1
                                  2306  "
                                  2307  " STATE 685
                        001255    2308  	equ	ST685,*-DPDA
    001763  aa   000011 000022    2309  	zero	NSRD,LN685
    001764  aa   000017 772723    2310  	zero	T15,-ST2605	")
    001765  aa   000022 772723    2311  	zero	T18,-ST2605	",
    001766  aa   000027 772723    2312  	zero	T23,-ST2605	".
    001767  aa   000031 772723    2313  	zero	T25,-ST2605	"AND
    001770  aa   000035 772740    2314  	zero	T29,-ST2592	"BEGINS
    001771  aa   000043 772740    2315  	zero	T35,-ST2592	"CONCATENATE
    001772  aa   000045 772740    2316  	zero	T37,-ST2592	"CONTAINS
    001773  aa   000062 772740    2317  	zero	T50,-ST2592	"ENDS
    001774  aa   000063 772740    2318  	zero	T51,-ST2592	"EQ
    001775  aa   000073 772740    2319  	zero	T59,-ST2592	"GE
    001776  aa   000074 772740    2320  	zero	T60,-ST2592	"GT
    001777  aa   000077 772740    2321  	zero	T63,-ST2592	"IN
    002000  aa   000103 772740    2322  	zero	T67,-ST2592	"LE
    002001  aa   000107 772740    2323  	zero	T71,-ST2592	"LT
    002002  aa   000112 772740    2324  	zero	T74,-ST2592	"NE
    002003  aa   000114 772740    2325  	zero	T76,-ST2592	"NOT
    002004  aa   000120 772723    2326  	zero	T80,-ST2605	"OR
    002005  aa   000162 772723    2327  	zero	T114,-ST2605	"THEN
                        000022    2328  	equ	LN685,*-DPDA-ST685-1
                                  2329  "
                                  2330  " STATE 704
                        001300    2331  	equ	ST704,*-DPDA
    002006  aa   000004 000004    2332  	zero	APLY,LN704
    002007  aa   000000 000000    2333  	zero	0,0   pd ld
    002010  aa   777363 000001    2334  	zero	-269,1   rule/alt
    002011  aa   000157 001305    2335  	zero	111,ST709 prod/val
    002012  aa   001357 002107    2336  	zero	ST751,ST1095
                        000004    2337  	equ	LN704,*-DPDA-ST704-1
                                  2338  "
                                  2339  " STATE 709
                        001305    2340  	equ	ST709,*-DPDA
    002013  aa   000004 000004    2341  	zero	APLY,LN709
    002014  aa   000000 000000    2342  	zero	0,0   pd ld
    002015  aa   777427 000001    2343  	zero	-233,1   rule/alt
    002016  aa   000146 001322    2344  	zero	102,ST722 prod/val
    002017  aa   002054 003001    2345  	zero	ST1068,ST1537
                        000004    2346  	equ	LN709,*-DPDA-ST709-1
                                  2347  "
                                  2348  " STATE 714
                        001312    2349  	equ	ST714,*-DPDA
    002020  aa   000006 000003    2350  	zero	APLYS,LN714
    002021  aa   000000 000000    2351  	zero	0,0   pd ld
    002022  aa   777424 000001    2352  	zero	-236,1   rule/alt
    002023  aa   000146 001305    2353  	zero	102,ST709 prod/val
                        000003    2354  	equ	LN714,*-DPDA-ST714-1
                                  2355  "
                                  2356  " STATE 718
                        001316    2357  	equ	ST718,*-DPDA
    002024  aa   000006 000003    2358  	zero	APLYS,LN718
    002025  aa   000000 000000    2359  	zero	0,0   pd ld
    002026  aa   777425 000001    2360  	zero	-235,1   rule/alt
    002027  aa   000146 001305    2361  	zero	102,ST709 prod/val
                        000003    2362  	equ	LN718,*-DPDA-ST718-1
                                  2363  "
                                  2364  " STATE 722
                        001322    2365  	equ	ST722,*-DPDA
    002030  aa   000004 000004    2366  	zero	APLY,LN722
    002031  aa   000000 000000    2367  	zero	0,0   pd ld
    002032  aa   777430 000001    2368  	zero	-232,1   rule/alt
    002033  aa   000145 001327    2369  	zero	101,ST727 prod/val
    002034  aa   002063 003016    2370  	zero	ST1075,ST1550
                        000004    2371  	equ	LN722,*-DPDA-ST722-1
                                  2372  "
                                  2373  " STATE 727
                        001327    2374  	equ	ST727,*-DPDA
    002035  aa   000011 000006    2375  	zero	NSRD,LN727
    002036  aa   000017 772715    2376  	zero	T15,-ST2611	")
    002037  aa   000022 772715    2377  	zero	T18,-ST2611	",
    002040  aa   000027 772715    2378  	zero	T23,-ST2611	".
    002041  aa   000031 772717    2379  	zero	T25,-ST2609	"AND
    002042  aa   000120 772715    2380  	zero	T80,-ST2611	"OR
    002043  aa   000162 772715    2381  	zero	T114,-ST2611	"THEN
                        000006    2382  	equ	LN727,*-DPDA-ST727-1
                                  2383  "
                                  2384  " STATE 734
                        001336    2385  	equ	ST734,*-DPDA
    002044  aa   000000 000002    2386  	zero	STRD,LN734
    002045  aa   000120 002063    2387  	zero	T80,ST1075	"OR
    002046  aa   000162 002064    2388  	zero	T114,ST1076	"THEN
                        000002    2389  	equ	LN734,*-DPDA-ST734-1
                                  2390  "
                                  2391  " STATE 737
                        001341    2392  	equ	ST737,*-DPDA
    002047  aa   000000 000001    2393  	zero	STRD,LN737
    002050  aa   000016 002070    2394  	zero	T14,ST1080	"(
                        000001    2395  	equ	LN737,*-DPDA-ST737-1
                                  2396  "
                                  2397  " STATE 739
                        001343    2398  	equ	ST739,*-DPDA
    002051  aa   000005 000003    2399  	zero	APLY1,LN739
    002052  aa   000000 000000    2400  	zero	0,0   pd ld
    002053  aa   000422 000001    2401  	zero	274,1   rule/alt
    002054  aa   000160 001300    2402  	zero	112,ST704 prod/val
                        000003    2403  	equ	LN739,*-DPDA-ST739-1
                                  2404  "
                                  2405  " STATE 743
                        001347    2406  	equ	ST743,*-DPDA
    002055  aa   000000 000001    2407  	zero	STRD,LN743
    002056  aa   000016 002072    2408  	zero	T14,ST1082	"(
                        000001    2409  	equ	LN743,*-DPDA-ST743-1
                                  2410  "
                                  2411  " STATE 745
                        001351    2412  	equ	ST745,*-DPDA
    002057  aa   000000 000001    2413  	zero	STRD,LN745
    002060  aa   000016 002075    2414  	zero	T14,ST1085	"(
                        000001    2415  	equ	LN745,*-DPDA-ST745-1
                                  2416  "
                                  2417  " STATE 747
                        001353    2418  	equ	ST747,*-DPDA
    002061  aa   000006 000003    2419  	zero	APLYS,LN747
    002062  aa   000000 000000    2420  	zero	0,0   pd ld
    002063  aa   000414 000001    2421  	zero	268,1   rule/alt
    002064  aa   000157 001300    2422  	zero	111,ST704 prod/val
                        000003    2423  	equ	LN747,*-DPDA-ST747-1
                                  2424  "
                                  2425  " STATE 751
                        001357    2426  	equ	ST751,*-DPDA
    002065  aa   000000 000027    2427  	zero	STRD,LN751
    002066  aa   000001 001341    2428  	zero	T1,ST737	"%ABSENT
    002067  aa   000002 001043    2429  	zero	T2,ST547	"%DAY
    002070  aa   000003 001343    2430  	zero	T3,ST739	"%FIT
    002071  aa   000004 001047    2431  	zero	T4,ST551	"%HHMMSS
    002072  aa   000005 001347    2432  	zero	T5,ST743	"%LEVEL
    002073  aa   000006 001053    2433  	zero	T6,ST555	"%MMDDYY
    002074  aa   000007 001057    2434  	zero	T7,ST559	"%MONTH
    002075  aa   000010 001063    2435  	zero	T8,ST563	"%PAGENUMBER
    002076  aa   000011 001351    2436  	zero	T9,ST745	"%PRESENT
    002077  aa   000012 001065    2437  	zero	T10,ST565	"%REPEAT
    002100  aa   000013 001071    2438  	zero	T11,ST569	"%ROMAN
    002101  aa   000014 001075    2439  	zero	T12,ST573	"%SUBSTR
    002102  aa   000015 001101    2440  	zero	T13,ST577	"%YYDDD
    002103  aa   000016 001105    2441  	zero	T14,ST581	"(
    002104  aa   000021 001106    2442  	zero	T17,ST582	"+
    002105  aa   000023 001114    2443  	zero	T19,ST588	"-
    002106  aa   000064 001353    2444  	zero	T52,ST747	"FALSE
    002107  aa   000076 001122    2445  	zero	T62,ST594	"IF
    002110  aa   000143 001124    2446  	zero	T99,ST596	"TRANSFORM
    002111  aa   000144 001407    2447  	zero	T100,ST775	"TRUE
    002112  aa   000147 001130    2448  	zero	T103,ST600	"<identifier>
    002113  aa   000150 001134    2449  	zero	T104,ST604	"<number>
    002114  aa   000151 001140    2450  	zero	T105,ST608	"<quoted_str>
                        000027    2451  	equ	LN751,*-DPDA-ST751-1
                                  2452  "
                                  2453  " STATE 775
                        001407    2454  	equ	ST775,*-DPDA
    002115  aa   000006 000003    2455  	zero	APLYS,LN775
    002116  aa   000000 000000    2456  	zero	0,0   pd ld
    002117  aa   000413 000001    2457  	zero	267,1   rule/alt
    002120  aa   000157 001300    2458  	zero	111,ST704 prod/val
                        000003    2459  	equ	LN775,*-DPDA-ST775-1
                                  2460  "
                                  2461  " STATE 779
                        001413    2462  	equ	ST779,*-DPDA
    002121  aa   000000 000001    2463  	zero	STRD,LN779
    002122  aa   000027 002113    2464  	zero	T23,ST1099	".
                        000001    2465  	equ	LN779,*-DPDA-ST779-1
                                  2466  "
                                  2467  " STATE 781
                        001415    2468  	equ	ST781,*-DPDA
    002123  aa   000002 000405    2469  	zero	STRDS,ST261
                                  2470
                                  2471  "
                                  2472  " STATE 782
                        001416    2473  	equ	ST782,*-DPDA
    002124  aa   000006 000003    2474  	zero	APLYS,LN782
    002125  aa   000001 000001    2475  	zero	1,1   pd ld
    002126  aa   000333 000001    2476  	zero	219,1   rule/alt
    002127  aa   000134 000446    2477  	zero	92,ST294 prod/val
                        000003    2478  	equ	LN782,*-DPDA-ST782-1
                                  2479  "
                                  2480  " STATE 786
                        001422    2481  	equ	ST786,*-DPDA
    002130  aa   000005 000003    2482  	zero	APLY1,LN786
    002131  aa   000003 000003    2483  	zero	3,3   pd ld
    002132  aa   000273 000001    2484  	zero	187,1   rule/alt
    002133  aa   000116 000013    2485  	zero	78,ST11 prod/val
                        000003    2486  	equ	LN786,*-DPDA-ST786-1
                                  2487  "
                                  2488  " STATE 790
                        001426    2489  	equ	ST790,*-DPDA
    002134  aa   000005 000003    2490  	zero	APLY1,LN790
    002135  aa   000001 000001    2491  	zero	1,1   pd ld
    002136  aa   777607 000001    2492  	zero	-121,1   rule/alt
    002137  aa   000057 000470    2493  	zero	47,ST312 prod/val
                        000003    2494  	equ	LN790,*-DPDA-ST790-1
                                  2495  "
                                  2496  " STATE 794
                        001432    2497  	equ	ST794,*-DPDA
    002140  aa   000005 000003    2498  	zero	APLY1,LN794
    002141  aa   000000 000000    2499  	zero	0,0   pd ld
    002142  aa   777573 000001    2500  	zero	-133,1   rule/alt
    002143  aa   000071 001436    2501  	zero	57,ST798 prod/val
                        000003    2502  	equ	LN794,*-DPDA-ST794-1
                                  2503  "
                                  2504  " STATE 798
                        001436    2505  	equ	ST798,*-DPDA
    002144  aa   000011 000002    2506  	zero	NSRD,LN798
    002145  aa   000027 772671    2507  	zero	T23,-ST2631	".
    002146  aa   000152 772673    2508  	zero	T106,-ST2629	",2
                        000002    2509  	equ	LN798,*-DPDA-ST798-1
                                  2510  "
                                  2511  " STATE 801
                        001441    2512  	equ	ST801,*-DPDA
    002147  aa   000000 000001    2513  	zero	STRD,LN801
    002150  aa   000054 002146    2514  	zero	T44,ST1126	"DETAIL
                        000001    2515  	equ	LN801,*-DPDA-ST801-1
                                  2516  "
                                  2517  " STATE 803
                        001443    2518  	equ	ST803,*-DPDA
    002151  aa   000000 000001    2519  	zero	STRD,LN803
    002152  aa   000147 002152    2520  	zero	T103,ST1130	"<identifier>
                        000001    2521  	equ	LN803,*-DPDA-ST803-1
                                  2522  "
                                  2523  " STATE 805
                        001445    2524  	equ	ST805,*-DPDA
    002153  aa   000000 000001    2525  	zero	STRD,LN805
    002154  aa   000153 002173    2526  	zero	T107,ST1147	",3
                        000001    2527  	equ	LN805,*-DPDA-ST805-1
                                  2528  "
                                  2529  " STATE 807
                        001447    2530  	equ	ST807,*-DPDA
    002155  aa   000000 000001    2531  	zero	STRD,LN807
    002156  aa   000153 002173    2532  	zero	T107,ST1147	",3
                        000001    2533  	equ	LN807,*-DPDA-ST807-1
                                  2534  "
                                  2535  " STATE 809
                        001451    2536  	equ	ST809,*-DPDA
    002157  aa   000005 000003    2537  	zero	APLY1,LN809
    002160  aa   000000 000000    2538  	zero	0,0   pd ld
    002161  aa   000176 000001    2539  	zero	126,1   rule/alt
    002162  aa   000063 001443    2540  	zero	51,ST803 prod/val
                        000003    2541  	equ	LN809,*-DPDA-ST809-1
                                  2542  "
                                  2543  " STATE 813
                        001455    2544  	equ	ST813,*-DPDA
    002163  aa   000005 000003    2545  	zero	APLY1,LN813
    002164  aa   000000 000000    2546  	zero	0,0   pd ld
    002165  aa   000175 000001    2547  	zero	125,1   rule/alt
    002166  aa   000062 001445    2548  	zero	50,ST805 prod/val
                        000003    2549  	equ	LN813,*-DPDA-ST813-1
                                  2550  "
                                  2551  " STATE 817
                        001461    2552  	equ	ST817,*-DPDA
    002167  aa   000005 000003    2553  	zero	APLY1,LN817
    002170  aa   000000 000000    2554  	zero	0,0   pd ld
    002171  aa   000174 000001    2555  	zero	124,1   rule/alt
    002172  aa   000061 001447    2556  	zero	49,ST807 prod/val
                        000003    2557  	equ	LN817,*-DPDA-ST817-1
                                  2558  "
                                  2559  " STATE 821
                        001465    2560  	equ	ST821,*-DPDA
    002173  aa   000000 000002    2561  	zero	STRD,LN821
    002174  aa   000017 002200    2562  	zero	T15,ST1152	")
    002175  aa   000022 002204    2563  	zero	T18,ST1156	",
                        000002    2564  	equ	LN821,*-DPDA-ST821-1
                                  2565  "
                                  2566  " STATE 824
                        001470    2567  	equ	ST824,*-DPDA
    002176  aa   000004 000004    2568  	zero	APLY,LN824
    002177  aa   000000 000000    2569  	zero	0,0   pd ld
    002200  aa   000344 000001    2570  	zero	228,1   rule/alt
    002201  aa   000143 001465    2571  	zero	99,ST821 prod/val
    002202  aa   001245 001712    2572  	zero	ST677,ST970
                        000004    2573  	equ	LN824,*-DPDA-ST824-1
                                  2574  "
                                  2575  " STATE 829
                        001475    2576  	equ	ST829,*-DPDA
    002203  aa   000006 000003    2577  	zero	APLYS,LN829
    002204  aa   000000 000000    2578  	zero	0,0   pd ld
    002205  aa   000342 000001    2579  	zero	226,1   rule/alt
    002206  aa   000143 001470    2580  	zero	99,ST824 prod/val
                        000003    2581  	equ	LN829,*-DPDA-ST829-1
                                  2582  "
                                  2583  " STATE 833
                        001501    2584  	equ	ST833,*-DPDA
    002207  aa   000011 000002    2585  	zero	NSRD,LN833
    002210  aa   000017 772663    2586  	zero	T15,-ST2637	")
    002211  aa   000076 772665    2587  	zero	T62,-ST2635	"IF
                        000002    2588  	equ	LN833,*-DPDA-ST833-1
                                  2589  "
                                  2590  " STATE 836
                        001504    2591  	equ	ST836,*-DPDA
    002212  aa   000000 000001    2592  	zero	STRD,LN836
    002213  aa   000017 002210    2593  	zero	T15,ST1160	")
                        000001    2594  	equ	LN836,*-DPDA-ST836-1
                                  2595  "
                                  2596  " STATE 838
                        001506    2597  	equ	ST838,*-DPDA
    002214  aa   000011 000013    2598  	zero	NSRD,LN838
    002215  aa   000017 772654    2599  	zero	T15,-ST2644	")
    002216  aa   000037 772654    2600  	zero	T31,-ST2644	"BREAK
    002217  aa   000043 772657    2601  	zero	T35,-ST2641	"CONCATENATE
    002220  aa   000076 772654    2602  	zero	T62,-ST2644	"IF
    002221  aa   000110 772654    2603  	zero	T72,-ST2644	"MAXLINE
    002222  aa   000111 772654    2604  	zero	T73,-ST2644	"MINLINE
    002223  aa   000115 772657    2605  	zero	T77,-ST2641	"NUMBER
    002224  aa   000116 772654    2606  	zero	T78,-ST2644	"ON
    002225  aa   000123 772654    2607  	zero	T83,-ST2644	"PAGELENGTH
    002226  aa   000124 772654    2608  	zero	T84,-ST2644	"PAGEWIDTH
    002227  aa   000152 772654    2609  	zero	T106,-ST2644	",2
                        000013    2610  	equ	LN838,*-DPDA-ST838-1
                                  2611  "
                                  2612  " STATE 850
                        001522    2613  	equ	ST850,*-DPDA
    002230  aa   000011 000012    2614  	zero	NSRD,LN850
    002231  aa   000017 772646    2615  	zero	T15,-ST2650	")
    002232  aa   000037 772646    2616  	zero	T31,-ST2650	"BREAK
    002233  aa   000043 772650    2617  	zero	T35,-ST2648	"CONCATENATE
    002234  aa   000076 772646    2618  	zero	T62,-ST2650	"IF
    002235  aa   000110 772646    2619  	zero	T72,-ST2650	"MAXLINE
    002236  aa   000111 772646    2620  	zero	T73,-ST2650	"MINLINE
    002237  aa   000116 772646    2621  	zero	T78,-ST2650	"ON
    002240  aa   000123 772646    2622  	zero	T83,-ST2650	"PAGELENGTH
    002241  aa   000124 772646    2623  	zero	T84,-ST2650	"PAGEWIDTH
    002242  aa   000152 772646    2624  	zero	T106,-ST2650	",2
                        000012    2625  	equ	LN850,*-DPDA-ST850-1
                                  2626  "
                                  2627  " STATE 861
                        001535    2628  	equ	ST861,*-DPDA
    002243  aa   000005 000003    2629  	zero	APLY1,LN861
    002244  aa   000003 000003    2630  	zero	3,3   pd ld
    002245  aa   000114 000001    2631  	zero	76,1   rule/alt
    002246  aa   000034 000046    2632  	zero	28,ST38 prod/val
                        000003    2633  	equ	LN861,*-DPDA-ST861-1
                                  2634  "
                                  2635  " STATE 865
                        001541    2636  	equ	ST865,*-DPDA
    002247  aa   000000 000001    2637  	zero	STRD,LN865
    002250  aa   000150 002216    2638  	zero	T104,ST1166	"<number>
                        000001    2639  	equ	LN865,*-DPDA-ST865-1
                                  2640  "
                                  2641  " STATE 867
                        001543    2642  	equ	ST867,*-DPDA
    002251  aa   000000 000002    2643  	zero	STRD,LN867
    002252  aa   000150 002256    2644  	zero	T104,ST1198	"<number>
    002253  aa   000151 002260    2645  	zero	T105,ST1200	"<quoted_str>
                        000002    2646  	equ	LN867,*-DPDA-ST867-1
                                  2647  "
                                  2648  " STATE 870
                        001546    2649  	equ	ST870,*-DPDA
    002254  aa   000000 000002    2650  	zero	STRD,LN870
    002255  aa   000150 002272    2651  	zero	T104,ST1210	"<number>
    002256  aa   000151 002276    2652  	zero	T105,ST1214	"<quoted_str>
                        000002    2653  	equ	LN870,*-DPDA-ST870-1
                                  2654  "
                                  2655  " STATE 873
                        001551    2656  	equ	ST873,*-DPDA
    002257  aa   000005 000003    2657  	zero	APLY1,LN873
    002260  aa   000001 000001    2658  	zero	1,1   pd ld
    002261  aa   777737 000001    2659  	zero	-33,1   rule/alt
    002262  aa   000023 000565    2660  	zero	19,ST373 prod/val
                        000003    2661  	equ	LN873,*-DPDA-ST873-1
                                  2662  "
                                  2663  " STATE 877
                        001555    2664  	equ	ST877,*-DPDA
    002263  aa   000005 000003    2665  	zero	APLY1,LN877
    002264  aa   000000 000000    2666  	zero	0,0   pd ld
    002265  aa   777750 000001    2667  	zero	-24,1   rule/alt
    002266  aa   000017 001561    2668  	zero	15,ST881 prod/val
                        000003    2669  	equ	LN877,*-DPDA-ST877-1
                                  2670  "
                                  2671  " STATE 881
                        001561    2672  	equ	ST881,*-DPDA
    002267  aa   000011 000002    2673  	zero	NSRD,LN881
    002270  aa   000022 772642    2674  	zero	T18,-ST2654	",
    002271  aa   000027 772640    2675  	zero	T23,-ST2656	".
                        000002    2676  	equ	LN881,*-DPDA-ST881-1
                                  2677  "
                                  2678  " STATE 884
                        001564    2679  	equ	ST884,*-DPDA
    002272  aa   000000 000001    2680  	zero	STRD,LN884
    002273  aa   000027 002306    2681  	zero	T23,ST1222	".
                        000001    2682  	equ	LN884,*-DPDA-ST884-1
                                  2683  "
                                  2684  " STATE 886
                        001566    2685  	equ	ST886,*-DPDA
    002274  aa   000000 000001    2686  	zero	STRD,LN886
    002275  aa   000076 002323    2687  	zero	T62,ST1235	"IF
                        000001    2688  	equ	LN886,*-DPDA-ST886-1
                                  2689  "
                                  2690  " STATE 888
                        001570    2691  	equ	ST888,*-DPDA
    002276  aa   000000 000001    2692  	zero	STRD,LN888
    002277  aa   000016 002325    2693  	zero	T14,ST1237	"(
                        000001    2694  	equ	LN888,*-DPDA-ST888-1
                                  2695  "
                                  2696  " STATE 890
                        001572    2697  	equ	ST890,*-DPDA
    002300  aa   000000 000002    2698  	zero	STRD,LN890
    002301  aa   000036 002334    2699  	zero	T30,ST1244	"DECIMAL
    002302  aa   000041 002340    2700  	zero	T33,ST1248	"CHARACTER
                        000002    2701  	equ	LN890,*-DPDA-ST890-1
                                  2702  "
                                  2703  " STATE 893
                        001575    2704  	equ	ST893,*-DPDA
    002303  aa   000000 000007    2705  	zero	STRD,LN893
    002304  aa   000010 001063    2706  	zero	T8,ST563	"%PAGENUMBER
    002305  aa   000016 001105    2707  	zero	T14,ST581	"(
    002306  aa   000021 001106    2708  	zero	T17,ST582	"+
    002307  aa   000023 001114    2709  	zero	T19,ST588	"-
    002310  aa   000143 001124    2710  	zero	T99,ST596	"TRANSFORM
    002311  aa   000147 001130    2711  	zero	T103,ST600	"<identifier>
    002312  aa   000150 001134    2712  	zero	T104,ST604	"<number>
                        000007    2713  	equ	LN893,*-DPDA-ST893-1
                                  2714  "
                                  2715  " STATE 901
                        001605    2716  	equ	ST901,*-DPDA
    002313  aa   000002 001575    2717  	zero	STRDS,ST893
                                  2718
                                  2719  "
                                  2720  " STATE 902
                        001606    2721  	equ	ST902,*-DPDA
    002314  aa   000002 001575    2722  	zero	STRDS,ST893
                                  2723
                                  2724  "
                                  2725  " STATE 903
                        001607    2726  	equ	ST903,*-DPDA
    002315  aa   000002 001575    2727  	zero	STRDS,ST893
                                  2728
                                  2729  "
                                  2730  " STATE 904
                        001610    2731  	equ	ST904,*-DPDA
    002316  aa   000002 000230    2732  	zero	STRDS,ST152
                                  2733
                                  2734  "
                                  2735  " STATE 905
                        001611    2736  	equ	ST905,*-DPDA
    002317  aa   000002 000405    2737  	zero	STRDS,ST261
                                  2738
                                  2739  "
                                  2740  " STATE 906
                        001612    2741  	equ	ST906,*-DPDA
    002320  aa   000002 000230    2742  	zero	STRDS,ST152
                                  2743
                                  2744  "
                                  2745  " STATE 907
                        001613    2746  	equ	ST907,*-DPDA
    002321  aa   000002 001575    2747  	zero	STRDS,ST893
                                  2748
                                  2749  "
                                  2750  " STATE 908
                        001614    2751  	equ	ST908,*-DPDA
    002322  aa   000002 000230    2752  	zero	STRDS,ST152
                                  2753
                                  2754  "
                                  2755  " STATE 909
                        001615    2756  	equ	ST909,*-DPDA
    002323  aa   000000 000002    2757  	zero	STRD,LN909
    002324  aa   000017 002545    2758  	zero	T15,ST1381	")
    002325  aa   000147 002551    2759  	zero	T103,ST1385	"<identifier>
                        000002    2760  	equ	LN909,*-DPDA-ST909-1
                                  2761  "
                                  2762  " STATE 912
                        001620    2763  	equ	ST912,*-DPDA
    002326  aa   000000 000002    2764  	zero	STRD,LN912
    002327  aa   000017 002553    2765  	zero	T15,ST1387	")
    002330  aa   000120 002063    2766  	zero	T80,ST1075	"OR
                        000002    2767  	equ	LN912,*-DPDA-ST912-1
                                  2768  "
                                  2769  " STATE 915
                        001623    2770  	equ	ST915,*-DPDA
    002331  aa   000006 000003    2771  	zero	APLYS,LN915
    002332  aa   000001 000001    2772  	zero	1,1   pd ld
    002333  aa   000453 000001    2773  	zero	299,1   rule/alt
    002334  aa   000167 000602    2774  	zero	119,ST386 prod/val
                        000003    2775  	equ	LN915,*-DPDA-ST915-1
                                  2776  "
                                  2777  " STATE 919
                        001627    2778  	equ	ST919,*-DPDA
    002335  aa   000002 001575    2779  	zero	STRDS,ST893
                                  2780
                                  2781  "
                                  2782  " STATE 920
                        001630    2783  	equ	ST920,*-DPDA
    002336  aa   000006 000003    2784  	zero	APLYS,LN920
    002337  aa   000001 000001    2785  	zero	1,1   pd ld
    002340  aa   000452 000001    2786  	zero	298,1   rule/alt
    002341  aa   000167 000602    2787  	zero	119,ST386 prod/val
                        000003    2788  	equ	LN920,*-DPDA-ST920-1
                                  2789  "
                                  2790  " STATE 924
                        001634    2791  	equ	ST924,*-DPDA
    002342  aa   000002 001575    2792  	zero	STRDS,ST893
                                  2793
                                  2794  "
                                  2795  " STATE 925
                        001635    2796  	equ	ST925,*-DPDA
    002343  aa   000002 000405    2797  	zero	STRDS,ST261
                                  2798
                                  2799  "
                                  2800  " STATE 926
                        001636    2801  	equ	ST926,*-DPDA
    002344  aa   000004 000005    2802  	zero	APLY,LN926
    002345  aa   000000 000000    2803  	zero	0,0   pd ld
    002346  aa   777730 000001    2804  	zero	-40,1   rule/alt
    002347  aa   000025 001644    2805  	zero	21,ST932 prod/val
    002350  aa   005270 003270    2806  	zero	ST2744,ST1720
    002351  aa   005432 003634    2807  	zero	ST2842,ST1948
                        000005    2808  	equ	LN926,*-DPDA-ST926-1
                                  2809  "
                                  2810  " STATE 932
                        001644    2811  	equ	ST932,*-DPDA
    002352  aa   000000 000002    2812  	zero	STRD,LN932
    002353  aa   000027 002576    2813  	zero	T23,ST1406	".
    002354  aa   000076 001647    2814  	zero	T62,ST935	"IF
                        000002    2815  	equ	LN932,*-DPDA-ST932-1
                                  2816  "
                                  2817  " STATE 935
                        001647    2818  	equ	ST935,*-DPDA
    002355  aa   000000 000001    2819  	zero	STRD,LN935
    002356  aa   000016 002602    2820  	zero	T14,ST1410	"(
                        000001    2821  	equ	LN935,*-DPDA-ST935-1
                                  2822  "
                                  2823  " STATE 937
                        001651    2824  	equ	ST937,*-DPDA
    002357  aa   000004 000004    2825  	zero	APLY,LN937
    002360  aa   000000 000000    2826  	zero	0,0   pd ld
    002361  aa   000024 000001    2827  	zero	20,1   rule/alt
    002362  aa   000011 001656    2828  	zero	9,ST942 prod/val
    002363  aa   005144 002603    2829  	zero	ST2660,ST1411
                        000004    2830  	equ	LN937,*-DPDA-ST937-1
                                  2831  "
                                  2832  " STATE 942
                        001656    2833  	equ	ST942,*-DPDA
    002364  aa   000005 000003    2834  	zero	APLY1,LN942
    002365  aa   000000 000000    2835  	zero	0,0   pd ld
    002366  aa   777766 000001    2836  	zero	-10,1   rule/alt
    002367  aa   000010 001662    2837  	zero	8,ST946 prod/val
                        000003    2838  	equ	LN942,*-DPDA-ST942-1
                                  2839  "
                                  2840  " STATE 946
                        001662    2841  	equ	ST946,*-DPDA
    002370  aa   000011 000010    2842  	zero	NSRD,LN946
    002371  aa   000022 772633    2843  	zero	T18,-ST2661	",
    002372  aa   000027 772633    2844  	zero	T23,-ST2661	".
    002373  aa   000041 772634    2845  	zero	T33,-ST2660	"CHARACTER
    002374  aa   000050 772634    2846  	zero	T40,-ST2660	"DEFAULT
    002375  aa   000070 772634    2847  	zero	T56,-ST2660	"BOOLEAN
    002376  aa   000076 772634    2848  	zero	T62,-ST2660	"IF
    002377  aa   000102 772634    2849  	zero	T66,-ST2660	"KEY
    002400  aa   000152 772633    2850  	zero	T106,-ST2661	",2
                        000010    2851  	equ	LN946,*-DPDA-ST946-1
                                  2852  "
                                  2853  " STATE 955
                        001673    2854  	equ	ST955,*-DPDA
    002401  aa   000000 000001    2855  	zero	STRD,LN955
    002402  aa   000016 002607    2856  	zero	T14,ST1415	"(
                        000001    2857  	equ	LN955,*-DPDA-ST955-1
                                  2858  "
                                  2859  " STATE 957
                        001675    2860  	equ	ST957,*-DPDA
    002403  aa   000002 000230    2861  	zero	STRDS,ST152
                                  2862
                                  2863  "
                                  2864  " STATE 958
                        001676    2865  	equ	ST958,*-DPDA
    002404  aa   000006 000003    2866  	zero	APLYS,LN958
    002405  aa   000000 000000    2867  	zero	0,0   pd ld
    002406  aa   000016 000001    2868  	zero	14,1   rule/alt
    002407  aa   000011 001651    2869  	zero	9,ST937 prod/val
                        000003    2870  	equ	LN958,*-DPDA-ST958-1
                                  2871  "
                                  2872  " STATE 962
                        001702    2873  	equ	ST962,*-DPDA
    002410  aa   000000 000001    2874  	zero	STRD,LN962
    002411  aa   000016 002624    2875  	zero	T14,ST1428	"(
                        000001    2876  	equ	LN962,*-DPDA-ST962-1
                                  2877  "
                                  2878  " STATE 964
                        001704    2879  	equ	ST964,*-DPDA
    002412  aa   000005 000003    2880  	zero	APLY1,LN964
    002413  aa   000002 000002    2881  	zero	2,2   pd ld
    002414  aa   777454 000001    2882  	zero	-212,1   rule/alt
    002415  aa   000131 000327    2883  	zero	89,ST215 prod/val
                        000003    2884  	equ	LN964,*-DPDA-ST964-1
                                  2885  "
                                  2886  " STATE 968
                        001710    2887  	equ	ST968,*-DPDA
    002416  aa   000000 000001    2888  	zero	STRD,LN968
    002417  aa   000027 002626    2889  	zero	T23,ST1430	".
                        000001    2890  	equ	LN968,*-DPDA-ST968-1
                                  2891  "
                                  2892  " STATE 970
                        001712    2893  	equ	ST970,*-DPDA
    002420  aa   000000 000002    2894  	zero	STRD,LN970
    002421  aa   000022 002204    2895  	zero	T18,ST1156	",
    002422  aa   000027 002632    2896  	zero	T23,ST1434	".
                        000002    2897  	equ	LN970,*-DPDA-ST970-1
                                  2898  "
                                  2899  " STATE 973
                        001715    2900  	equ	ST973,*-DPDA
    002423  aa   000005 000003    2901  	zero	APLY1,LN973
    002424  aa   000001 000001    2902  	zero	1,1   pd ld
    002425  aa   000315 000001    2903  	zero	205,1   rule/alt
    002426  aa   000126 001241    2904  	zero	86,ST673 prod/val
                        000003    2905  	equ	LN973,*-DPDA-ST973-1
                                  2906  "
                                  2907  " STATE 977
                        001721    2908  	equ	ST977,*-DPDA
    002427  aa   000002 000230    2909  	zero	STRDS,ST152
                                  2910
                                  2911  "
                                  2912  " STATE 978
                        001722    2913  	equ	ST978,*-DPDA
    002430  aa   000002 000230    2914  	zero	STRDS,ST152
                                  2915
                                  2916  "
                                  2917  " STATE 979
                        001723    2918  	equ	ST979,*-DPDA
    002431  aa   000002 000230    2919  	zero	STRDS,ST152
                                  2920
                                  2921  "
                                  2922  " STATE 980
                        001724    2923  	equ	ST980,*-DPDA
    002432  aa   000011 000022    2924  	zero	NSRD,LN980
    002433  aa   000002 772624    2925  	zero	T2,-ST2668	"%DAY
    002434  aa   000004 772624    2926  	zero	T4,-ST2668	"%HHMMSS
    002435  aa   000006 772624    2927  	zero	T6,-ST2668	"%MMDDYY
    002436  aa   000007 772624    2928  	zero	T7,-ST2668	"%MONTH
    002437  aa   000010 772624    2929  	zero	T8,-ST2668	"%PAGENUMBER
    002440  aa   000012 772624    2930  	zero	T10,-ST2668	"%REPEAT
    002441  aa   000013 772624    2931  	zero	T11,-ST2668	"%ROMAN
    002442  aa   000014 772624    2932  	zero	T12,-ST2668	"%SUBSTR
    002443  aa   000015 772624    2933  	zero	T13,-ST2668	"%YYDDD
    002444  aa   000016 772624    2934  	zero	T14,-ST2668	"(
    002445  aa   000021 772624    2935  	zero	T17,-ST2668	"+
    002446  aa   000023 772624    2936  	zero	T19,-ST2668	"-
    002447  aa   000076 772624    2937  	zero	T62,-ST2668	"IF
    002450  aa   000143 772624    2938  	zero	T99,-ST2668	"TRANSFORM
    002451  aa   000146 772626    2939  	zero	T102,-ST2666	"WORD
    002452  aa   000147 772624    2940  	zero	T103,-ST2668	"<identifier>
    002453  aa   000150 772624    2941  	zero	T104,-ST2668	"<number>
    002454  aa   000151 772624    2942  	zero	T105,-ST2668	"<quoted_str>
                        000022    2943  	equ	LN980,*-DPDA-ST980-1
                                  2944  "
                                  2945  " STATE 999
                        001747    2946  	equ	ST999,*-DPDA
    002455  aa   000011 000022    2947  	zero	NSRD,LN999
    002456  aa   000002 772616    2948  	zero	T2,-ST2674	"%DAY
    002457  aa   000004 772616    2949  	zero	T4,-ST2674	"%HHMMSS
    002460  aa   000006 772616    2950  	zero	T6,-ST2674	"%MMDDYY
    002461  aa   000007 772616    2951  	zero	T7,-ST2674	"%MONTH
    002462  aa   000010 772616    2952  	zero	T8,-ST2674	"%PAGENUMBER
    002463  aa   000012 772616    2953  	zero	T10,-ST2674	"%REPEAT
    002464  aa   000013 772616    2954  	zero	T11,-ST2674	"%ROMAN
    002465  aa   000014 772616    2955  	zero	T12,-ST2674	"%SUBSTR
    002466  aa   000015 772616    2956  	zero	T13,-ST2674	"%YYDDD
    002467  aa   000016 772616    2957  	zero	T14,-ST2674	"(
    002470  aa   000021 772616    2958  	zero	T17,-ST2674	"+
    002471  aa   000023 772616    2959  	zero	T19,-ST2674	"-
    002472  aa   000076 772616    2960  	zero	T62,-ST2674	"IF
    002473  aa   000143 772616    2961  	zero	T99,-ST2674	"TRANSFORM
    002474  aa   000146 772620    2962  	zero	T102,-ST2672	"WORD
    002475  aa   000147 772616    2963  	zero	T103,-ST2674	"<identifier>
    002476  aa   000150 772616    2964  	zero	T104,-ST2674	"<number>
    002477  aa   000151 772616    2965  	zero	T105,-ST2674	"<quoted_str>
                        000022    2966  	equ	LN999,*-DPDA-ST999-1
                                  2967  "
                                  2968  " STATE 1018
                        001772    2969  	equ	ST1018,*-DPDA
    002500  aa   000011 000022    2970  	zero	NSRD,LN1018
    002501  aa   000002 772610    2971  	zero	T2,-ST2680	"%DAY
    002502  aa   000004 772610    2972  	zero	T4,-ST2680	"%HHMMSS
    002503  aa   000006 772610    2973  	zero	T6,-ST2680	"%MMDDYY
    002504  aa   000007 772610    2974  	zero	T7,-ST2680	"%MONTH
    002505  aa   000010 772610    2975  	zero	T8,-ST2680	"%PAGENUMBER
    002506  aa   000012 772610    2976  	zero	T10,-ST2680	"%REPEAT
    002507  aa   000013 772610    2977  	zero	T11,-ST2680	"%ROMAN
    002510  aa   000014 772610    2978  	zero	T12,-ST2680	"%SUBSTR
    002511  aa   000015 772610    2979  	zero	T13,-ST2680	"%YYDDD
    002512  aa   000016 772610    2980  	zero	T14,-ST2680	"(
    002513  aa   000021 772610    2981  	zero	T17,-ST2680	"+
    002514  aa   000023 772610    2982  	zero	T19,-ST2680	"-
    002515  aa   000076 772610    2983  	zero	T62,-ST2680	"IF
    002516  aa   000143 772610    2984  	zero	T99,-ST2680	"TRANSFORM
    002517  aa   000146 772612    2985  	zero	T102,-ST2678	"WORD
    002520  aa   000147 772610    2986  	zero	T103,-ST2680	"<identifier>
    002521  aa   000150 772610    2987  	zero	T104,-ST2680	"<number>
    002522  aa   000151 772610    2988  	zero	T105,-ST2680	"<quoted_str>
                        000022    2989  	equ	LN1018,*-DPDA-ST1018-1
                                  2990  "
                                  2991  " STATE 1037
                        002015    2992  	equ	ST1037,*-DPDA
    002523  aa   000005 000003    2993  	zero	APLY1,LN1037
    002524  aa   000000 000000    2994  	zero	0,0   pd ld
    002525  aa   000355 000001    2995  	zero	237,1   rule/alt
    002526  aa   000147 001723    2996  	zero	103,ST979 prod/val
                        000003    2997  	equ	LN1037,*-DPDA-ST1037-1
                                  2998  "
                                  2999  " STATE 1041
                        002021    3000  	equ	ST1041,*-DPDA
    002527  aa   000005 000003    3001  	zero	APLY1,LN1041
    002530  aa   000000 000000    3002  	zero	0,0   pd ld
    002531  aa   000360 000001    3003  	zero	240,1   rule/alt
    002532  aa   000147 001723    3004  	zero	103,ST979 prod/val
                        000003    3005  	equ	LN1041,*-DPDA-ST1041-1
                                  3006  "
                                  3007  " STATE 1045
                        002025    3008  	equ	ST1045,*-DPDA
    002533  aa   000005 000003    3009  	zero	APLY1,LN1045
    002534  aa   000000 000000    3010  	zero	0,0   pd ld
    002535  aa   000362 000001    3011  	zero	242,1   rule/alt
    002536  aa   000147 001723    3012  	zero	103,ST979 prod/val
                        000003    3013  	equ	LN1045,*-DPDA-ST1045-1
                                  3014  "
                                  3015  " STATE 1049
                        002031    3016  	equ	ST1049,*-DPDA
    002537  aa   000000 000001    3017  	zero	STRD,LN1049
    002540  aa   000147 002702    3018  	zero	T103,ST1474	"<identifier>
                        000001    3019  	equ	LN1049,*-DPDA-ST1049-1
                                  3020  "
                                  3021  " STATE 1051
                        002033    3022  	equ	ST1051,*-DPDA
    002541  aa   000005 000003    3023  	zero	APLY1,LN1051
    002542  aa   000000 000000    3024  	zero	0,0   pd ld
    002543  aa   000357 000001    3025  	zero	239,1   rule/alt
    002544  aa   000147 001723    3026  	zero	103,ST979 prod/val
                        000003    3027  	equ	LN1051,*-DPDA-ST1051-1
                                  3028  "
                                  3029  " STATE 1055
                        002037    3030  	equ	ST1055,*-DPDA
    002545  aa   000005 000003    3031  	zero	APLY1,LN1055
    002546  aa   000000 000000    3032  	zero	0,0   pd ld
    002547  aa   000361 000001    3033  	zero	241,1   rule/alt
    002550  aa   000147 001723    3034  	zero	103,ST979 prod/val
                        000003    3035  	equ	LN1055,*-DPDA-ST1055-1
                                  3036  "
                                  3037  " STATE 1059
                        002043    3038  	equ	ST1059,*-DPDA
    002551  aa   000005 000003    3039  	zero	APLY1,LN1059
    002552  aa   000000 000000    3040  	zero	0,0   pd ld
    002553  aa   000356 000001    3041  	zero	238,1   rule/alt
    002554  aa   000147 001723    3042  	zero	103,ST979 prod/val
                        000003    3043  	equ	LN1059,*-DPDA-ST1059-1
                                  3044  "
                                  3045  " STATE 1063
                        002047    3046  	equ	ST1063,*-DPDA
    002555  aa   000000 000004    3047  	zero	STRD,LN1063
    002556  aa   000034 002706    3048  	zero	T28,ST1478	"BEGIN
    002557  aa   000044 002731    3049  	zero	T36,ST1497	"CONTAIN
    002560  aa   000061 002754    3050  	zero	T49,ST1516	"END
    002561  aa   000077 002777    3051  	zero	T63,ST1535	"IN
                        000004    3052  	equ	LN1063,*-DPDA-ST1063-1
                                  3053  "
                                  3054  " STATE 1068
                        002054    3055  	equ	ST1068,*-DPDA
    002562  aa   000002 000405    3056  	zero	STRDS,ST261
                                  3057
                                  3058  "
                                  3059  " STATE 1069
                        002055    3060  	equ	ST1069,*-DPDA
    002563  aa   000000 000005    3061  	zero	STRD,LN1069
    002564  aa   000027 000401    3062  	zero	T23,ST257	".
    002565  aa   000076 000405    3063  	zero	T62,ST261	"IF
    002566  aa   000130 000436    3064  	zero	T88,ST286	"PRINT
    002567  aa   000147 000440    3065  	zero	T103,ST288	"<identifier>
    002570  aa   000162 000442    3066  	zero	T114,ST290	"THEN
                        000005    3067  	equ	LN1069,*-DPDA-ST1069-1
                                  3068  "
                                  3069  " STATE 1075
                        002063    3070  	equ	ST1075,*-DPDA
    002571  aa   000002 000405    3071  	zero	STRDS,ST261
                                  3072
                                  3073  "
                                  3074  " STATE 1076
                        002064    3075  	equ	ST1076,*-DPDA
    002572  aa   000005 000003    3076  	zero	APLY1,LN1076
    002573  aa   000000 000000    3077  	zero	0,0   pd ld
    002574  aa   000301 000001    3078  	zero	193,1   rule/alt
    002575  aa   000122 002055    3079  	zero	82,ST1069 prod/val
                        000003    3080  	equ	LN1076,*-DPDA-ST1076-1
                                  3081  "
                                  3082  " STATE 1080
                        002070    3083  	equ	ST1080,*-DPDA
    002576  aa   000000 000001    3084  	zero	STRD,LN1080
    002577  aa   000147 003025    3085  	zero	T103,ST1557	"<identifier>
                        000001    3086  	equ	LN1080,*-DPDA-ST1080-1
                                  3087  "
                                  3088  " STATE 1082
                        002072    3089  	equ	ST1082,*-DPDA
    002600  aa   000000 000002    3090  	zero	STRD,LN1082
    002601  aa   000147 003027    3091  	zero	T103,ST1559	"<identifier>
    002602  aa   000150 003031    3092  	zero	T104,ST1561	"<number>
                        000002    3093  	equ	LN1082,*-DPDA-ST1082-1
                                  3094  "
                                  3095  " STATE 1085
                        002075    3096  	equ	ST1085,*-DPDA
    002603  aa   000000 000001    3097  	zero	STRD,LN1085
    002604  aa   000147 003033    3098  	zero	T103,ST1563	"<identifier>
                        000001    3099  	equ	LN1085,*-DPDA-ST1085-1
                                  3100  "
                                  3101  " STATE 1087
                        002077    3102  	equ	ST1087,*-DPDA
    002605  aa   000011 000007    3103  	zero	NSRD,LN1087
    002606  aa   000017 772602    3104  	zero	T15,-ST2686	")
    002607  aa   000022 772602    3105  	zero	T18,-ST2686	",
    002610  aa   000027 772602    3106  	zero	T23,-ST2686	".
    002611  aa   000031 772602    3107  	zero	T25,-ST2686	"AND
    002612  aa   000043 772604    3108  	zero	T35,-ST2684	"CONCATENATE
    002613  aa   000120 772602    3109  	zero	T80,-ST2686	"OR
    002614  aa   000162 772602    3110  	zero	T114,-ST2686	"THEN
                        000007    3111  	equ	LN1087,*-DPDA-ST1087-1
                                  3112  "
                                  3113  " STATE 1095
                        002107    3114  	equ	ST1095,*-DPDA
    002615  aa   000006 000003    3115  	zero	APLYS,LN1095
    002616  aa   000001 000001    3116  	zero	1,1   pd ld
    002617  aa   000352 000001    3117  	zero	234,1   rule/alt
    002620  aa   000146 001305    3118  	zero	102,ST709 prod/val
                        000003    3119  	equ	LN1095,*-DPDA-ST1095-1
                                  3120  "
                                  3121  " STATE 1099
                        002113    3122  	equ	ST1099,*-DPDA
    002621  aa   000006 000003    3123  	zero	APLYS,LN1099
    002622  aa   000002 000002    3124  	zero	2,2   pd ld
    002623  aa   000310 000001    3125  	zero	200,1   rule/alt
    002624  aa   000124 000341    3126  	zero	84,ST225 prod/val
                        000003    3127  	equ	LN1099,*-DPDA-ST1099-1
                                  3128  "
                                  3129  " STATE 1103
                        002117    3130  	equ	ST1103,*-DPDA
    002625  aa   000000 000002    3131  	zero	STRD,LN1103
    002626  aa   000027 003035    3132  	zero	T23,ST1565	".
    002627  aa   000120 002063    3133  	zero	T80,ST1075	"OR
                        000002    3134  	equ	LN1103,*-DPDA-ST1103-1
                                  3135  "
                                  3136  " STATE 1106
                        002122    3137  	equ	ST1106,*-DPDA
    002630  aa   000011 000002    3138  	zero	NSRD,LN1106
    002631  aa   000027 772574    3139  	zero	T23,-ST2692	".
    002632  aa   000152 772576    3140  	zero	T106,-ST2690	",2
                        000002    3141  	equ	LN1106,*-DPDA-ST1106-1
                                  3142  "
                                  3143  " STATE 1109
                        002125    3144  	equ	ST1109,*-DPDA
    002633  aa   000000 000001    3145  	zero	STRD,LN1109
    002634  aa   000027 003055    3146  	zero	T23,ST1581	".
                        000001    3147  	equ	LN1109,*-DPDA-ST1109-1
                                  3148  "
                                  3149  " STATE 1111
                        002127    3150  	equ	ST1111,*-DPDA
    002635  aa   000005 000003    3151  	zero	APLY1,LN1111
    002636  aa   000001 000001    3152  	zero	1,1   pd ld
    002637  aa   777572 000001    3153  	zero	-134,1   rule/alt
    002640  aa   000071 001436    3154  	zero	57,ST798 prod/val
                        000003    3155  	equ	LN1111,*-DPDA-ST1111-1
                                  3156  "
                                  3157  " STATE 1115
                        002133    3158  	equ	ST1115,*-DPDA
    002641  aa   000005 000003    3159  	zero	APLY1,LN1115
    002642  aa   000000 000000    3160  	zero	0,0   pd ld
    002643  aa   777556 000001    3161  	zero	-146,1   rule/alt
    002644  aa   000100 002122    3162  	zero	64,ST1106 prod/val
                        000003    3163  	equ	LN1115,*-DPDA-ST1115-1
                                  3164  "
                                  3165  " STATE 1119
                        002137    3166  	equ	ST1119,*-DPDA
    002645  aa   000000 000004    3167  	zero	STRD,LN1119
    002646  aa   000054 002146    3168  	zero	T44,ST1126	"DETAIL
    002647  aa   000055 003067    3169  	zero	T45,ST1591	"DETAILFOOT
    002650  aa   000121 003073    3170  	zero	T81,ST1595	"PAGEFOOT
    002651  aa   000133 003077    3171  	zero	T91,ST1599	"REPORTFOOT
                        000004    3172  	equ	LN1119,*-DPDA-ST1119-1
                                  3173  "
                                  3174  " STATE 1124
                        002144    3175  	equ	ST1124,*-DPDA
    002652  aa   000000 000001    3176  	zero	STRD,LN1124
    002653  aa   000147 003103    3177  	zero	T103,ST1603	"<identifier>
                        000001    3178  	equ	LN1124,*-DPDA-ST1124-1
                                  3179  "
                                  3180  " STATE 1126
                        002146    3181  	equ	ST1126,*-DPDA
    002654  aa   000005 000003    3182  	zero	APLY1,LN1126
    002655  aa   000000 000000    3183  	zero	0,0   pd ld
    002656  aa   000177 000001    3184  	zero	127,1   rule/alt
    002657  aa   000064 002144    3185  	zero	52,ST1124 prod/val
                        000003    3186  	equ	LN1126,*-DPDA-ST1126-1
                                  3187  "
                                  3188  " STATE 1130
                        002152    3189  	equ	ST1130,*-DPDA
    002660  aa   000000 000004    3190  	zero	STRD,LN1130
    002661  aa   000067 003135    3191  	zero	T55,ST1629	"FIT
    002662  aa   000076 003141    3192  	zero	T62,ST1633	"IF
    002663  aa   000110 003143    3193  	zero	T72,ST1635	"MAXLINE
    002664  aa   000153 002173    3194  	zero	T107,ST1147	",3
                        000004    3195  	equ	LN1130,*-DPDA-ST1130-1
                                  3196  "
                                  3197  " STATE 1135
                        002157    3198  	equ	ST1135,*-DPDA
    002665  aa   000004 000010    3199  	zero	APLY,LN1135
    002666  aa   000000 000000    3200  	zero	0,0   pd ld
    002667  aa   777552 000001    3201  	zero	-150,1   rule/alt
    002670  aa   000101 003112    3202  	zero	65,ST1610 prod/val
    002671  aa   001445 002170    3203  	zero	ST805,ST1144
    002672  aa   001447 002175    3204  	zero	ST807,ST1149
    002673  aa   003061 003455    3205  	zero	ST1585,ST1837
    002674  aa   003063 003461    3206  	zero	ST1587,ST1841
    002675  aa   003127 003473    3207  	zero	ST1623,ST1851
                        000010    3208  	equ	LN1135,*-DPDA-ST1135-1
                                  3209  "
                                  3210  " STATE 1144
                        002170    3211  	equ	ST1144,*-DPDA
    002676  aa   000011 000002    3212  	zero	NSRD,LN1144
    002677  aa   000152 772566    3213  	zero	T106,-ST2698	",2
    002700  aa   000153 772570    3214  	zero	T107,-ST2696	",3
                        000002    3215  	equ	LN1144,*-DPDA-ST1144-1
                                  3216  "
                                  3217  " STATE 1147
                        002173    3218  	equ	ST1147,*-DPDA
    002701  aa   000000 000001    3219  	zero	STRD,LN1147
    002702  aa   000106 003162    3220  	zero	T70,ST1650	"LINE
                        000001    3221  	equ	LN1147,*-DPDA-ST1147-1
                                  3222  "
                                  3223  " STATE 1149
                        002175    3224  	equ	ST1149,*-DPDA
    002703  aa   000011 000002    3225  	zero	NSRD,LN1149
    002704  aa   000152 772560    3226  	zero	T106,-ST2704	",2
    002705  aa   000153 772562    3227  	zero	T107,-ST2702	",3
                        000002    3228  	equ	LN1149,*-DPDA-ST1149-1
                                  3229  "
                                  3230  " STATE 1152
                        002200    3231  	equ	ST1152,*-DPDA
    002706  aa   000006 000003    3232  	zero	APLYS,LN1152
    002707  aa   000003 000003    3233  	zero	3,3   pd ld
    002710  aa   000156 000001    3234  	zero	110,1   rule/alt
    002711  aa   000053 000503    3235  	zero	43,ST323 prod/val
                        000003    3236  	equ	LN1152,*-DPDA-ST1152-1
                                  3237  "
                                  3238  " STATE 1156
                        002204    3239  	equ	ST1156,*-DPDA
    002712  aa   000000 000001    3240  	zero	STRD,LN1156
    002713  aa   000147 003166    3241  	zero	T103,ST1654	"<identifier>
                        000001    3242  	equ	LN1156,*-DPDA-ST1156-1
                                  3243  "
                                  3244  " STATE 1158
                        002206    3245  	equ	ST1158,*-DPDA
    002714  aa   000000 000001    3246  	zero	STRD,LN1158
    002715  aa   000016 003172    3247  	zero	T14,ST1658	"(
                        000001    3248  	equ	LN1158,*-DPDA-ST1158-1
                                  3249  "
                                  3250  " STATE 1160
                        002210    3251  	equ	ST1160,*-DPDA
    002716  aa   000006 000003    3252  	zero	APLYS,LN1160
    002717  aa   000003 000003    3253  	zero	3,3   pd ld
    002720  aa   777620 000001    3254  	zero	-112,1   rule/alt
    002721  aa   000053 000503    3255  	zero	43,ST323 prod/val
                        000003    3256  	equ	LN1160,*-DPDA-ST1160-1
                                  3257  "
                                  3258  " STATE 1164
                        002214    3259  	equ	ST1164,*-DPDA
    002722  aa   000000 000001    3260  	zero	STRD,LN1164
    002723  aa   000150 003173    3261  	zero	T104,ST1659	"<number>
                        000001    3262  	equ	LN1164,*-DPDA-ST1164-1
                                  3263  "
                                  3264  " STATE 1166
                        002216    3265  	equ	ST1166,*-DPDA
    002724  aa   000000 000001    3266  	zero	STRD,LN1166
    002725  aa   000017 003200    3267  	zero	T15,ST1664	")
                        000001    3268  	equ	LN1166,*-DPDA-ST1166-1
                                  3269  "
                                  3270  " STATE 1168
                        002220    3271  	equ	ST1168,*-DPDA
    002726  aa   000005 000003    3272  	zero	APLY1,LN1168
    002727  aa   000000 000000    3273  	zero	0,0   pd ld
    002730  aa   777637 000001    3274  	zero	-97,1   rule/alt
    002731  aa   000045 002224    3275  	zero	37,ST1172 prod/val
                        000003    3276  	equ	LN1168,*-DPDA-ST1168-1
                                  3277  "
                                  3278  " STATE 1172
                        002224    3279  	equ	ST1172,*-DPDA
    002732  aa   000011 000002    3280  	zero	NSRD,LN1172
    002733  aa   000017 772552    3281  	zero	T15,-ST2710	")
    002734  aa   000151 772554    3282  	zero	T105,-ST2708	"<quoted_str>
                        000002    3283  	equ	LN1172,*-DPDA-ST1172-1
                                  3284  "
                                  3285  " STATE 1175
                        002227    3286  	equ	ST1175,*-DPDA
    002735  aa   000005 000003    3287  	zero	APLY1,LN1175
    002736  aa   000000 000000    3288  	zero	0,0   pd ld
    002737  aa   777643 000001    3289  	zero	-93,1   rule/alt
    002740  aa   000043 002233    3290  	zero	35,ST1179 prod/val
                        000003    3291  	equ	LN1175,*-DPDA-ST1175-1
                                  3292  "
                                  3293  " STATE 1179
                        002233    3294  	equ	ST1179,*-DPDA
    002741  aa   000011 000002    3295  	zero	NSRD,LN1179
    002742  aa   000017 772544    3296  	zero	T15,-ST2716	")
    002743  aa   000151 772546    3297  	zero	T105,-ST2714	"<quoted_str>
                        000002    3298  	equ	LN1179,*-DPDA-ST1179-1
                                  3299  "
                                  3300  " STATE 1182
                        002236    3301  	equ	ST1182,*-DPDA
    002744  aa   000005 000003    3302  	zero	APLY1,LN1182
    002745  aa   000000 000000    3303  	zero	0,0   pd ld
    002746  aa   777647 000001    3304  	zero	-89,1   rule/alt
    002747  aa   000041 002242    3305  	zero	33,ST1186 prod/val
                        000003    3306  	equ	LN1182,*-DPDA-ST1182-1
                                  3307  "
                                  3308  " STATE 1186
                        002242    3309  	equ	ST1186,*-DPDA
    002750  aa   000011 000002    3310  	zero	NSRD,LN1186
    002751  aa   000017 772536    3311  	zero	T15,-ST2722	")
    002752  aa   000150 772540    3312  	zero	T104,-ST2720	"<number>
                        000002    3313  	equ	LN1186,*-DPDA-ST1186-1
                                  3314  "
                                  3315  " STATE 1189
                        002245    3316  	equ	ST1189,*-DPDA
    002753  aa   000005 000003    3317  	zero	APLY1,LN1189
    002754  aa   000000 000000    3318  	zero	0,0   pd ld
    002755  aa   777653 000001    3319  	zero	-85,1   rule/alt
    002756  aa   000037 002251    3320  	zero	31,ST1193 prod/val
                        000003    3321  	equ	LN1189,*-DPDA-ST1189-1
                                  3322  "
                                  3323  " STATE 1193
                        002251    3324  	equ	ST1193,*-DPDA
    002757  aa   000011 000002    3325  	zero	NSRD,LN1193
    002760  aa   000017 772530    3326  	zero	T15,-ST2728	")
    002761  aa   000150 772532    3327  	zero	T104,-ST2726	"<number>
                        000002    3328  	equ	LN1193,*-DPDA-ST1193-1
                                  3329  "
                                  3330  " STATE 1196
                        002254    3331  	equ	ST1196,*-DPDA
    002762  aa   000000 000001    3332  	zero	STRD,LN1196
    002763  aa   000017 003233    3333  	zero	T15,ST1691	")
                        000001    3334  	equ	LN1196,*-DPDA-ST1196-1
                                  3335  "
                                  3336  " STATE 1198
                        002256    3337  	equ	ST1198,*-DPDA
    002764  aa   000000 000001    3338  	zero	STRD,LN1198
    002765  aa   000024 003236    3339  	zero	T20,ST1694	"->
                        000001    3340  	equ	LN1198,*-DPDA-ST1198-1
                                  3341  "
                                  3342  " STATE 1200
                        002260    3343  	equ	ST1200,*-DPDA
    002766  aa   000000 000001    3344  	zero	STRD,LN1200
    002767  aa   000024 003241    3345  	zero	T20,ST1697	"->
                        000001    3346  	equ	LN1200,*-DPDA-ST1200-1
                                  3347  "
                                  3348  " STATE 1202
                        002262    3349  	equ	ST1202,*-DPDA
    002770  aa   000011 000002    3350  	zero	NSRD,LN1202
    002771  aa   000017 772522    3351  	zero	T15,-ST2734	")
    002772  aa   000022 772524    3352  	zero	T18,-ST2732	",
                        000002    3353  	equ	LN1202,*-DPDA-ST1202-1
                                  3354  "
                                  3355  " STATE 1205
                        002265    3356  	equ	ST1205,*-DPDA
    002773  aa   000011 000002    3357  	zero	NSRD,LN1205
    002774  aa   000017 772514    3358  	zero	T15,-ST2740	")
    002775  aa   000022 772516    3359  	zero	T18,-ST2738	",
                        000002    3360  	equ	LN1205,*-DPDA-ST1205-1
                                  3361  "
                                  3362  " STATE 1208
                        002270    3363  	equ	ST1208,*-DPDA
    002776  aa   000000 000001    3364  	zero	STRD,LN1208
    002777  aa   000017 003250    3365  	zero	T15,ST1704	")
                        000001    3366  	equ	LN1208,*-DPDA-ST1208-1
                                  3367  "
                                  3368  " STATE 1210
                        002272    3369  	equ	ST1210,*-DPDA
    003000  aa   000005 000003    3370  	zero	APLY1,LN1210
    003001  aa   000000 000000    3371  	zero	0,0   pd ld
    003002  aa   000406 000001    3372  	zero	262,1   rule/alt
    003003  aa   000155 002265    3373  	zero	109,ST1205 prod/val
                        000003    3374  	equ	LN1210,*-DPDA-ST1210-1
                                  3375  "
                                  3376  " STATE 1214
                        002276    3377  	equ	ST1214,*-DPDA
    003004  aa   000005 000003    3378  	zero	APLY1,LN1214
    003005  aa   000000 000000    3379  	zero	0,0   pd ld
    003006  aa   000407 000001    3380  	zero	263,1   rule/alt
    003007  aa   000156 002262    3381  	zero	110,ST1202 prod/val
                        000003    3382  	equ	LN1214,*-DPDA-ST1214-1
                                  3383  "
                                  3384  " STATE 1218
                        002302    3385  	equ	ST1218,*-DPDA
    003010  aa   000005 000003    3386  	zero	APLY1,LN1218
    003011  aa   000001 000001    3387  	zero	1,1   pd ld
    003012  aa   777747 000001    3388  	zero	-25,1   rule/alt
    003013  aa   000017 001561    3389  	zero	15,ST881 prod/val
                        000003    3390  	equ	LN1218,*-DPDA-ST1218-1
                                  3391  "
                                  3392  " STATE 1222
                        002306    3393  	equ	ST1222,*-DPDA
    003014  aa   000005 000003    3394  	zero	APLY1,LN1222
    003015  aa   000004 000004    3395  	zero	4,4   pd ld
    003016  aa   777752 000001    3396  	zero	-22,1   rule/alt
    003017  aa   000015 000054    3397  	zero	13,ST44 prod/val
                        000003    3398  	equ	LN1222,*-DPDA-ST1222-1
                                  3399  "
                                  3400  " STATE 1226
                        002312    3401  	equ	ST1226,*-DPDA
    003020  aa   000004 000004    3402  	zero	APLY,LN1226
    003021  aa   000001 000001    3403  	zero	1,1   pd ld
    003022  aa   777745 000001    3404  	zero	-27,1   rule/alt
    003023  aa   000020 001555    3405  	zero	16,ST877 prod/val
    003024  aa   005136 002302    3406  	zero	ST2654,ST1218
                        000004    3407  	equ	LN1226,*-DPDA-ST1226-1
                                  3408  "
                                  3409  " STATE 1231
                        002317    3410  	equ	ST1231,*-DPDA
    003025  aa   000006 000003    3411  	zero	APLYS,LN1231
    003026  aa   000001 000001    3412  	zero	1,1   pd ld
    003027  aa   777746 000001    3413  	zero	-26,1   rule/alt
    003030  aa   000020 002312    3414  	zero	16,ST1226 prod/val
                        000003    3415  	equ	LN1231,*-DPDA-ST1231-1
                                  3416  "
                                  3417  " STATE 1235
                        002323    3418  	equ	ST1235,*-DPDA
    003031  aa   000000 000001    3419  	zero	STRD,LN1235
    003032  aa   000016 003254    3420  	zero	T14,ST1708	"(
                        000001    3421  	equ	LN1235,*-DPDA-ST1235-1
                                  3422  "
                                  3423  " STATE 1237
                        002325    3424  	equ	ST1237,*-DPDA
    003033  aa   000000 000001    3425  	zero	STRD,LN1237
    003034  aa   000150 003255    3426  	zero	T104,ST1709	"<number>
                        000001    3427  	equ	LN1237,*-DPDA-ST1237-1
                                  3428  "
                                  3429  " STATE 1239
                        002327    3430  	equ	ST1239,*-DPDA
    003035  aa   000011 000004    3431  	zero	NSRD,LN1239
    003036  aa   000022 772506    3432  	zero	T18,-ST2746	",
    003037  aa   000027 772506    3433  	zero	T23,-ST2746	".
    003040  aa   000076 772510    3434  	zero	T62,-ST2744	"IF
    003041  aa   000152 772506    3435  	zero	T106,-ST2746	",2
                        000004    3436  	equ	LN1239,*-DPDA-ST1239-1
                                  3437  "
                                  3438  " STATE 1244
                        002334    3439  	equ	ST1244,*-DPDA
    003042  aa   000000 000003    3440  	zero	STRD,LN1244
    003043  aa   000016 003275    3441  	zero	T14,ST1725	"(
    003044  aa   000052 003277    3442  	zero	T42,ST1727	"DELIMITED
    003045  aa   000156 003301    3443  	zero	T110,ST1729	"SPECIAL
                        000003    3444  	equ	LN1244,*-DPDA-ST1244-1
                                  3445  "
                                  3446  " STATE 1248
                        002340    3447  	equ	ST1248,*-DPDA
    003046  aa   000000 000001    3448  	zero	STRD,LN1248
    003047  aa   000016 003310    3449  	zero	T14,ST1736	"(
                        000001    3450  	equ	LN1248,*-DPDA-ST1248-1
                                  3451  "
                                  3452  " STATE 1250
                        002342    3453  	equ	ST1250,*-DPDA
    003050  aa   000006 000003    3454  	zero	APLYS,LN1250
    003051  aa   000002 000002    3455  	zero	2,2   pd ld
    003052  aa   000446 000001    3456  	zero	294,1   rule/alt
    003053  aa   000166 000610    3457  	zero	118,ST392 prod/val
                        000003    3458  	equ	LN1250,*-DPDA-ST1250-1
                                  3459  "
                                  3460  " STATE 1254
                        002346    3461  	equ	ST1254,*-DPDA
    003054  aa   000006 000003    3462  	zero	APLYS,LN1254
    003055  aa   000002 000002    3463  	zero	2,2   pd ld
    003056  aa   000447 000001    3464  	zero	295,1   rule/alt
    003057  aa   000166 000610    3465  	zero	118,ST392 prod/val
                        000003    3466  	equ	LN1254,*-DPDA-ST1254-1
                                  3467  "
                                  3468  " STATE 1258
                        002352    3469  	equ	ST1258,*-DPDA
    003060  aa   000011 000064    3470  	zero	NSRD,LN1258
    003061  aa   000017 772501    3471  	zero	T15,-ST2751	")
    003062  aa   000020 772502    3472  	zero	T16,-ST2750	"*
    003063  aa   000021 772501    3473  	zero	T17,-ST2751	"+
    003064  aa   000022 772501    3474  	zero	T18,-ST2751	",
    003065  aa   000023 772501    3475  	zero	T19,-ST2751	"-
    003066  aa   000025 772502    3476  	zero	T21,-ST2750	"/
    003067  aa   000027 772501    3477  	zero	T23,-ST2751	".
    003070  aa   000030 772501    3478  	zero	T24,-ST2751	"ALIGN
    003071  aa   000031 772501    3479  	zero	T25,-ST2751	"AND
    003072  aa   000033 772501    3480  	zero	T27,-ST2751	"ATTACH
    003073  aa   000035 772501    3481  	zero	T29,-ST2751	"BEGINS
    003074  aa   000037 772501    3482  	zero	T31,-ST2751	"BREAK
    003075  aa   000040 772501    3483  	zero	T32,-ST2751	"CENTER
    003076  aa   000041 772501    3484  	zero	T33,-ST2751	"CHARACTER
    003077  aa   000042 772501    3485  	zero	T34,-ST2751	"COLUMN
    003100  aa   000043 772501    3486  	zero	T35,-ST2751	"CONCATENATE
    003101  aa   000045 772501    3487  	zero	T37,-ST2751	"CONTAINS
    003102  aa   000050 772501    3488  	zero	T40,-ST2751	"DEFAULT
    003103  aa   000060 772501    3489  	zero	T48,-ST2751	"EDIT
    003104  aa   000062 772501    3490  	zero	T50,-ST2751	"ENDS
    003105  aa   000063 772501    3491  	zero	T51,-ST2751	"EQ
    003106  aa   000065 772501    3492  	zero	T53,-ST2751	"FILE
    003107  aa   000066 772501    3493  	zero	T54,-ST2751	"FILL
    003110  aa   000070 772501    3494  	zero	T56,-ST2751	"BOOLEAN
    003111  aa   000072 772501    3495  	zero	T58,-ST2751	"FOLD
    003112  aa   000073 772501    3496  	zero	T59,-ST2751	"GE
    003113  aa   000074 772501    3497  	zero	T60,-ST2751	"GT
    003114  aa   000076 772501    3498  	zero	T62,-ST2751	"IF
    003115  aa   000077 772501    3499  	zero	T63,-ST2751	"IN
    003116  aa   000102 772501    3500  	zero	T66,-ST2751	"KEY
    003117  aa   000103 772501    3501  	zero	T67,-ST2751	"LE
    003120  aa   000104 772501    3502  	zero	T68,-ST2751	"LEFT
    003121  aa   000105 772501    3503  	zero	T69,-ST2751	"LET
    003122  aa   000107 772501    3504  	zero	T71,-ST2751	"LT
    003123  aa   000110 772501    3505  	zero	T72,-ST2751	"MAXLINE
    003124  aa   000111 772501    3506  	zero	T73,-ST2751	"MINLINE
    003125  aa   000112 772501    3507  	zero	T74,-ST2751	"NE
    003126  aa   000114 772501    3508  	zero	T76,-ST2751	"NOT
    003127  aa   000115 772501    3509  	zero	T77,-ST2751	"NUMBER
    003130  aa   000116 772501    3510  	zero	T78,-ST2751	"ON
    003131  aa   000120 772501    3511  	zero	T80,-ST2751	"OR
    003132  aa   000123 772501    3512  	zero	T83,-ST2751	"PAGELENGTH
    003133  aa   000124 772501    3513  	zero	T84,-ST2751	"PAGEWIDTH
    003134  aa   000126 772501    3514  	zero	T86,-ST2751	"PICTURE
    003135  aa   000131 772501    3515  	zero	T89,-ST2751	"RECORD
    003136  aa   000136 772501    3516  	zero	T94,-ST2751	"RIGHT
    003137  aa   000140 772501    3517  	zero	T96,-ST2751	"STREAM
    003140  aa   000152 772501    3518  	zero	T106,-ST2751	",2
    003141  aa   000153 772501    3519  	zero	T107,-ST2751	",3
    003142  aa   000154 772501    3520  	zero	T108,-ST2751	",4
    003143  aa   000155 772501    3521  	zero	T109,-ST2751	"BSP
    003144  aa   000162 772501    3522  	zero	T114,-ST2751	"THEN
                        000064    3523  	equ	LN1258,*-DPDA-ST1258-1
                                  3524  "
                                  3525  " STATE 1311
                        002437    3526  	equ	ST1311,*-DPDA
    003145  aa   000011 000064    3527  	zero	NSRD,LN1311
    003146  aa   000017 772474    3528  	zero	T15,-ST2756	")
    003147  aa   000020 772475    3529  	zero	T16,-ST2755	"*
    003150  aa   000021 772474    3530  	zero	T17,-ST2756	"+
    003151  aa   000022 772474    3531  	zero	T18,-ST2756	",
    003152  aa   000023 772474    3532  	zero	T19,-ST2756	"-
    003153  aa   000025 772475    3533  	zero	T21,-ST2755	"/
    003154  aa   000027 772474    3534  	zero	T23,-ST2756	".
    003155  aa   000030 772474    3535  	zero	T24,-ST2756	"ALIGN
    003156  aa   000031 772474    3536  	zero	T25,-ST2756	"AND
    003157  aa   000033 772474    3537  	zero	T27,-ST2756	"ATTACH
    003160  aa   000035 772474    3538  	zero	T29,-ST2756	"BEGINS
    003161  aa   000037 772474    3539  	zero	T31,-ST2756	"BREAK
    003162  aa   000040 772474    3540  	zero	T32,-ST2756	"CENTER
    003163  aa   000041 772474    3541  	zero	T33,-ST2756	"CHARACTER
    003164  aa   000042 772474    3542  	zero	T34,-ST2756	"COLUMN
    003165  aa   000043 772474    3543  	zero	T35,-ST2756	"CONCATENATE
    003166  aa   000045 772474    3544  	zero	T37,-ST2756	"CONTAINS
    003167  aa   000050 772474    3545  	zero	T40,-ST2756	"DEFAULT
    003170  aa   000060 772474    3546  	zero	T48,-ST2756	"EDIT
    003171  aa   000062 772474    3547  	zero	T50,-ST2756	"ENDS
    003172  aa   000063 772474    3548  	zero	T51,-ST2756	"EQ
    003173  aa   000065 772474    3549  	zero	T53,-ST2756	"FILE
    003174  aa   000066 772474    3550  	zero	T54,-ST2756	"FILL
    003175  aa   000070 772474    3551  	zero	T56,-ST2756	"BOOLEAN
    003176  aa   000072 772474    3552  	zero	T58,-ST2756	"FOLD
    003177  aa   000073 772474    3553  	zero	T59,-ST2756	"GE
    003200  aa   000074 772474    3554  	zero	T60,-ST2756	"GT
    003201  aa   000076 772474    3555  	zero	T62,-ST2756	"IF
    003202  aa   000077 772474    3556  	zero	T63,-ST2756	"IN
    003203  aa   000102 772474    3557  	zero	T66,-ST2756	"KEY
    003204  aa   000103 772474    3558  	zero	T67,-ST2756	"LE
    003205  aa   000104 772474    3559  	zero	T68,-ST2756	"LEFT
    003206  aa   000105 772474    3560  	zero	T69,-ST2756	"LET
    003207  aa   000107 772474    3561  	zero	T71,-ST2756	"LT
    003210  aa   000110 772474    3562  	zero	T72,-ST2756	"MAXLINE
    003211  aa   000111 772474    3563  	zero	T73,-ST2756	"MINLINE
    003212  aa   000112 772474    3564  	zero	T74,-ST2756	"NE
    003213  aa   000114 772474    3565  	zero	T76,-ST2756	"NOT
    003214  aa   000115 772474    3566  	zero	T77,-ST2756	"NUMBER
    003215  aa   000116 772474    3567  	zero	T78,-ST2756	"ON
    003216  aa   000120 772474    3568  	zero	T80,-ST2756	"OR
    003217  aa   000123 772474    3569  	zero	T83,-ST2756	"PAGELENGTH
    003220  aa   000124 772474    3570  	zero	T84,-ST2756	"PAGEWIDTH
    003221  aa   000126 772474    3571  	zero	T86,-ST2756	"PICTURE
    003222  aa   000131 772474    3572  	zero	T89,-ST2756	"RECORD
    003223  aa   000136 772474    3573  	zero	T94,-ST2756	"RIGHT
    003224  aa   000140 772474    3574  	zero	T96,-ST2756	"STREAM
    003225  aa   000152 772474    3575  	zero	T106,-ST2756	",2
    003226  aa   000153 772474    3576  	zero	T107,-ST2756	",3
    003227  aa   000154 772474    3577  	zero	T108,-ST2756	",4
    003230  aa   000155 772474    3578  	zero	T109,-ST2756	"BSP
    003231  aa   000162 772474    3579  	zero	T114,-ST2756	"THEN
                        000064    3580  	equ	LN1311,*-DPDA-ST1311-1
                                  3581  "
                                  3582  " STATE 1364
                        002524    3583  	equ	ST1364,*-DPDA
    003232  aa   000006 000003    3584  	zero	APLYS,LN1364
    003233  aa   000002 000002    3585  	zero	2,2   pd ld
    003234  aa   000425 000001    3586  	zero	277,1   rule/alt
    003235  aa   000162 001007    3587  	zero	114,ST519 prod/val
                        000003    3588  	equ	LN1364,*-DPDA-ST1364-1
                                  3589  "
                                  3590  " STATE 1368
                        002530    3591  	equ	ST1368,*-DPDA
    003236  aa   000000 000002    3592  	zero	STRD,LN1368
    003237  aa   000022 003312    3593  	zero	T18,ST1738	",
    003240  aa   000120 002063    3594  	zero	T80,ST1075	"OR
                        000002    3595  	equ	LN1368,*-DPDA-ST1368-1
                                  3596  "
                                  3597  " STATE 1371
                        002533    3598  	equ	ST1371,*-DPDA
    003241  aa   000000 000002    3599  	zero	STRD,LN1371
    003242  aa   000022 003314    3600  	zero	T18,ST1740	",
    003243  aa   000043 001610    3601  	zero	T35,ST904	"CONCATENATE
                        000002    3602  	equ	LN1371,*-DPDA-ST1371-1
                                  3603  "
                                  3604  " STATE 1374
                        002536    3605  	equ	ST1374,*-DPDA
    003244  aa   000000 000003    3606  	zero	STRD,LN1374
    003245  aa   000017 003315    3607  	zero	T15,ST1741	")
    003246  aa   000021 001606    3608  	zero	T17,ST902	"+
    003247  aa   000023 001607    3609  	zero	T19,ST903	"-
                        000003    3610  	equ	LN1374,*-DPDA-ST1374-1
                                  3611  "
                                  3612  " STATE 1378
                        002542    3613  	equ	ST1378,*-DPDA
    003250  aa   000000 000002    3614  	zero	STRD,LN1378
    003251  aa   000022 003321    3615  	zero	T18,ST1745	",
    003252  aa   000043 001610    3616  	zero	T35,ST904	"CONCATENATE
                        000002    3617  	equ	LN1378,*-DPDA-ST1378-1
                                  3618  "
                                  3619  " STATE 1381
                        002545    3620  	equ	ST1381,*-DPDA
    003253  aa   000005 000003    3621  	zero	APLY1,LN1381
    003254  aa   000002 000002    3622  	zero	2,2   pd ld
    003255  aa   000464 000001    3623  	zero	308,1   rule/alt
    003256  aa   000171 000574    3624  	zero	121,ST380 prod/val
                        000003    3625  	equ	LN1381,*-DPDA-ST1381-1
                                  3626  "
                                  3627  " STATE 1385
                        002551    3628  	equ	ST1385,*-DPDA
    003257  aa   000000 000001    3629  	zero	STRD,LN1385
    003260  aa   000017 003322    3630  	zero	T15,ST1746	")
                        000001    3631  	equ	LN1385,*-DPDA-ST1385-1
                                  3632  "
                                  3633  " STATE 1387
                        002553    3634  	equ	ST1387,*-DPDA
    003261  aa   000006 000003    3635  	zero	APLYS,LN1387
    003262  aa   000002 000002    3636  	zero	2,2   pd ld
    003263  aa   000456 000001    3637  	zero	302,1   rule/alt
    003264  aa   000167 000602    3638  	zero	119,ST386 prod/val
                        000003    3639  	equ	LN1387,*-DPDA-ST1387-1
                                  3640  "
                                  3641  " STATE 1391
                        002557    3642  	equ	ST1391,*-DPDA
    003265  aa   000000 000003    3643  	zero	STRD,LN1391
    003266  aa   000017 003326    3644  	zero	T15,ST1750	")
    003267  aa   000021 001606    3645  	zero	T17,ST902	"+
    003270  aa   000023 001607    3646  	zero	T19,ST903	"-
                        000003    3647  	equ	LN1391,*-DPDA-ST1391-1
                                  3648  "
                                  3649  " STATE 1395
                        002563    3650  	equ	ST1395,*-DPDA
    003271  aa   000000 000003    3651  	zero	STRD,LN1395
    003272  aa   000017 003332    3652  	zero	T15,ST1754	")
    003273  aa   000021 001606    3653  	zero	T17,ST902	"+
    003274  aa   000023 001607    3654  	zero	T19,ST903	"-
                        000003    3655  	equ	LN1395,*-DPDA-ST1395-1
                                  3656  "
                                  3657  " STATE 1399
                        002567    3658  	equ	ST1399,*-DPDA
    003275  aa   000000 000002    3659  	zero	STRD,LN1399
    003276  aa   000017 003336    3660  	zero	T15,ST1758	")
    003277  aa   000120 002063    3661  	zero	T80,ST1075	"OR
                        000002    3662  	equ	LN1399,*-DPDA-ST1399-1
                                  3663  "
                                  3664  " STATE 1402
                        002572    3665  	equ	ST1402,*-DPDA
    003300  aa   000006 000003    3666  	zero	APLYS,LN1402
    003301  aa   000001 000001    3667  	zero	1,1   pd ld
    003302  aa   000052 000001    3668  	zero	42,1   rule/alt
    003303  aa   000025 001636    3669  	zero	21,ST926 prod/val
                        000003    3670  	equ	LN1402,*-DPDA-ST1402-1
                                  3671  "
                                  3672  " STATE 1406
                        002576    3673  	equ	ST1406,*-DPDA
    003304  aa   000005 000003    3674  	zero	APLY1,LN1406
    003305  aa   000004 000004    3675  	zero	4,4   pd ld
    003306  aa   000005 000001    3676  	zero	5,1   rule/alt
    003307  aa   000005 000066    3677  	zero	5,ST54 prod/val
                        000003    3678  	equ	LN1406,*-DPDA-ST1406-1
                                  3679  "
                                  3680  " STATE 1410
                        002602    3681  	equ	ST1410,*-DPDA
    003310  aa   000002 000405    3682  	zero	STRDS,ST261
                                  3683
                                  3684  "
                                  3685  " STATE 1411
                        002603    3686  	equ	ST1411,*-DPDA
    003311  aa   000005 000003    3687  	zero	APLY1,LN1411
    003312  aa   000001 000001    3688  	zero	1,1   pd ld
    003313  aa   777765 000001    3689  	zero	-11,1   rule/alt
    003314  aa   000010 001662    3690  	zero	8,ST946 prod/val
                        000003    3691  	equ	LN1411,*-DPDA-ST1411-1
                                  3692  "
                                  3693  " STATE 1415
                        002607    3694  	equ	ST1415,*-DPDA
    003315  aa   000000 000002    3695  	zero	STRD,LN1415
    003316  aa   000020 003362    3696  	zero	T16,ST1778	"*
    003317  aa   000150 003364    3697  	zero	T104,ST1780	"<number>
                        000002    3698  	equ	LN1415,*-DPDA-ST1415-1
                                  3699  "
                                  3700  " STATE 1418
                        002612    3701  	equ	ST1418,*-DPDA
    003320  aa   000011 000011    3702  	zero	NSRD,LN1418
    003321  aa   000022 772466    3703  	zero	T18,-ST2762	",
    003322  aa   000027 772466    3704  	zero	T23,-ST2762	".
    003323  aa   000041 772466    3705  	zero	T33,-ST2762	"CHARACTER
    003324  aa   000043 772470    3706  	zero	T35,-ST2760	"CONCATENATE
    003325  aa   000050 772466    3707  	zero	T40,-ST2762	"DEFAULT
    003326  aa   000070 772466    3708  	zero	T56,-ST2762	"BOOLEAN
    003327  aa   000076 772466    3709  	zero	T62,-ST2762	"IF
    003330  aa   000102 772466    3710  	zero	T66,-ST2762	"KEY
    003331  aa   000152 772466    3711  	zero	T106,-ST2762	",2
                        000011    3712  	equ	LN1418,*-DPDA-ST1418-1
                                  3713  "
                                  3714  " STATE 1428
                        002624    3715  	equ	ST1428,*-DPDA
    003332  aa   000000 000001    3716  	zero	STRD,LN1428
    003333  aa   000151 003375    3717  	zero	T105,ST1789	"<quoted_str>
                        000001    3718  	equ	LN1428,*-DPDA-ST1428-1
                                  3719  "
                                  3720  " STATE 1430
                        002626    3721  	equ	ST1430,*-DPDA
    003334  aa   000005 000003    3722  	zero	APLY1,LN1430
    003335  aa   000004 000004    3723  	zero	4,4   pd ld
    003336  aa   000322 000001    3724  	zero	210,1   rule/alt
    003337  aa   000127 000127    3725  	zero	87,ST87 prod/val
                        000003    3726  	equ	LN1430,*-DPDA-ST1430-1
                                  3727  "
                                  3728  " STATE 1434
                        002632    3729  	equ	ST1434,*-DPDA
    003340  aa   000005 000003    3730  	zero	APLY1,LN1434
    003341  aa   000002 000002    3731  	zero	2,2   pd ld
    003342  aa   000316 000001    3732  	zero	206,1   rule/alt
    003343  aa   000126 001241    3733  	zero	86,ST673 prod/val
                        000003    3734  	equ	LN1434,*-DPDA-ST1434-1
                                  3735  "
                                  3736  " STATE 1438
                        002636    3737  	equ	ST1438,*-DPDA
    003344  aa   000011 000007    3738  	zero	NSRD,LN1438
    003345  aa   000017 772460    3739  	zero	T15,-ST2768	")
    003346  aa   000022 772460    3740  	zero	T18,-ST2768	",
    003347  aa   000027 772460    3741  	zero	T23,-ST2768	".
    003350  aa   000031 772460    3742  	zero	T25,-ST2768	"AND
    003351  aa   000043 772462    3743  	zero	T35,-ST2766	"CONCATENATE
    003352  aa   000120 772460    3744  	zero	T80,-ST2768	"OR
    003353  aa   000162 772460    3745  	zero	T114,-ST2768	"THEN
                        000007    3746  	equ	LN1438,*-DPDA-ST1438-1
                                  3747  "
                                  3748  " STATE 1446
                        002646    3749  	equ	ST1446,*-DPDA
    003354  aa   000011 000007    3750  	zero	NSRD,LN1446
    003355  aa   000017 772452    3751  	zero	T15,-ST2774	")
    003356  aa   000022 772452    3752  	zero	T18,-ST2774	",
    003357  aa   000027 772452    3753  	zero	T23,-ST2774	".
    003360  aa   000031 772452    3754  	zero	T25,-ST2774	"AND
    003361  aa   000043 772454    3755  	zero	T35,-ST2772	"CONCATENATE
    003362  aa   000120 772452    3756  	zero	T80,-ST2774	"OR
    003363  aa   000162 772452    3757  	zero	T114,-ST2774	"THEN
                        000007    3758  	equ	LN1446,*-DPDA-ST1446-1
                                  3759  "
                                  3760  " STATE 1454
                        002656    3761  	equ	ST1454,*-DPDA
    003364  aa   000011 000007    3762  	zero	NSRD,LN1454
    003365  aa   000017 772444    3763  	zero	T15,-ST2780	")
    003366  aa   000022 772444    3764  	zero	T18,-ST2780	",
    003367  aa   000027 772444    3765  	zero	T23,-ST2780	".
    003370  aa   000031 772444    3766  	zero	T25,-ST2780	"AND
    003371  aa   000043 772446    3767  	zero	T35,-ST2778	"CONCATENATE
    003372  aa   000120 772444    3768  	zero	T80,-ST2780	"OR
    003373  aa   000162 772444    3769  	zero	T114,-ST2780	"THEN
                        000007    3770  	equ	LN1454,*-DPDA-ST1454-1
                                  3771  "
                                  3772  " STATE 1462
                        002666    3773  	equ	ST1462,*-DPDA
    003374  aa   000005 000003    3774  	zero	APLY1,LN1462
    003375  aa   000001 000001    3775  	zero	1,1   pd ld
    003376  aa   000374 000001    3776  	zero	252,1   rule/alt
    003377  aa   000152 001721    3777  	zero	106,ST977 prod/val
                        000003    3778  	equ	LN1462,*-DPDA-ST1462-1
                                  3779  "
                                  3780  " STATE 1466
                        002672    3781  	equ	ST1466,*-DPDA
    003400  aa   000005 000003    3782  	zero	APLY1,LN1466
    003401  aa   000001 000001    3783  	zero	1,1   pd ld
    003402  aa   000400 000001    3784  	zero	256,1   rule/alt
    003403  aa   000152 001721    3785  	zero	106,ST977 prod/val
                        000003    3786  	equ	LN1466,*-DPDA-ST1466-1
                                  3787  "
                                  3788  " STATE 1470
                        002676    3789  	equ	ST1470,*-DPDA
    003404  aa   000005 000003    3790  	zero	APLY1,LN1470
    003405  aa   000001 000001    3791  	zero	1,1   pd ld
    003406  aa   000376 000001    3792  	zero	254,1   rule/alt
    003407  aa   000152 001721    3793  	zero	106,ST977 prod/val
                        000003    3794  	equ	LN1470,*-DPDA-ST1470-1
                                  3795  "
                                  3796  " STATE 1474
                        002702    3797  	equ	ST1474,*-DPDA
    003410  aa   000005 000003    3798  	zero	APLY1,LN1474
    003411  aa   000002 000002    3799  	zero	2,2   pd ld
    003412  aa   000402 000001    3800  	zero	258,1   rule/alt
    003413  aa   000153 001312    3801  	zero	107,ST714 prod/val
                        000003    3802  	equ	LN1474,*-DPDA-ST1474-1
                                  3803  "
                                  3804  " STATE 1478
                        002706    3805  	equ	ST1478,*-DPDA
    003414  aa   000011 000022    3806  	zero	NSRD,LN1478
    003415  aa   000002 772436    3807  	zero	T2,-ST2786	"%DAY
    003416  aa   000004 772436    3808  	zero	T4,-ST2786	"%HHMMSS
    003417  aa   000006 772436    3809  	zero	T6,-ST2786	"%MMDDYY
    003420  aa   000007 772436    3810  	zero	T7,-ST2786	"%MONTH
    003421  aa   000010 772436    3811  	zero	T8,-ST2786	"%PAGENUMBER
    003422  aa   000012 772436    3812  	zero	T10,-ST2786	"%REPEAT
    003423  aa   000013 772436    3813  	zero	T11,-ST2786	"%ROMAN
    003424  aa   000014 772436    3814  	zero	T12,-ST2786	"%SUBSTR
    003425  aa   000015 772436    3815  	zero	T13,-ST2786	"%YYDDD
    003426  aa   000016 772436    3816  	zero	T14,-ST2786	"(
    003427  aa   000021 772436    3817  	zero	T17,-ST2786	"+
    003430  aa   000023 772436    3818  	zero	T19,-ST2786	"-
    003431  aa   000076 772436    3819  	zero	T62,-ST2786	"IF
    003432  aa   000143 772436    3820  	zero	T99,-ST2786	"TRANSFORM
    003433  aa   000146 772440    3821  	zero	T102,-ST2784	"WORD
    003434  aa   000147 772436    3822  	zero	T103,-ST2786	"<identifier>
    003435  aa   000150 772436    3823  	zero	T104,-ST2786	"<number>
    003436  aa   000151 772436    3824  	zero	T105,-ST2786	"<quoted_str>
                        000022    3825  	equ	LN1478,*-DPDA-ST1478-1
                                  3826  "
                                  3827  " STATE 1497
                        002731    3828  	equ	ST1497,*-DPDA
    003437  aa   000011 000022    3829  	zero	NSRD,LN1497
    003440  aa   000002 772430    3830  	zero	T2,-ST2792	"%DAY
    003441  aa   000004 772430    3831  	zero	T4,-ST2792	"%HHMMSS
    003442  aa   000006 772430    3832  	zero	T6,-ST2792	"%MMDDYY
    003443  aa   000007 772430    3833  	zero	T7,-ST2792	"%MONTH
    003444  aa   000010 772430    3834  	zero	T8,-ST2792	"%PAGENUMBER
    003445  aa   000012 772430    3835  	zero	T10,-ST2792	"%REPEAT
    003446  aa   000013 772430    3836  	zero	T11,-ST2792	"%ROMAN
    003447  aa   000014 772430    3837  	zero	T12,-ST2792	"%SUBSTR
    003450  aa   000015 772430    3838  	zero	T13,-ST2792	"%YYDDD
    003451  aa   000016 772430    3839  	zero	T14,-ST2792	"(
    003452  aa   000021 772430    3840  	zero	T17,-ST2792	"+
    003453  aa   000023 772430    3841  	zero	T19,-ST2792	"-
    003454  aa   000076 772430    3842  	zero	T62,-ST2792	"IF
    003455  aa   000143 772430    3843  	zero	T99,-ST2792	"TRANSFORM
    003456  aa   000146 772432    3844  	zero	T102,-ST2790	"WORD
    003457  aa   000147 772430    3845  	zero	T103,-ST2792	"<identifier>
    003460  aa   000150 772430    3846  	zero	T104,-ST2792	"<number>
    003461  aa   000151 772430    3847  	zero	T105,-ST2792	"<quoted_str>
                        000022    3848  	equ	LN1497,*-DPDA-ST1497-1
                                  3849  "
                                  3850  " STATE 1516
                        002754    3851  	equ	ST1516,*-DPDA
    003462  aa   000011 000022    3852  	zero	NSRD,LN1516
    003463  aa   000002 772422    3853  	zero	T2,-ST2798	"%DAY
    003464  aa   000004 772422    3854  	zero	T4,-ST2798	"%HHMMSS
    003465  aa   000006 772422    3855  	zero	T6,-ST2798	"%MMDDYY
    003466  aa   000007 772422    3856  	zero	T7,-ST2798	"%MONTH
    003467  aa   000010 772422    3857  	zero	T8,-ST2798	"%PAGENUMBER
    003470  aa   000012 772422    3858  	zero	T10,-ST2798	"%REPEAT
    003471  aa   000013 772422    3859  	zero	T11,-ST2798	"%ROMAN
    003472  aa   000014 772422    3860  	zero	T12,-ST2798	"%SUBSTR
    003473  aa   000015 772422    3861  	zero	T13,-ST2798	"%YYDDD
    003474  aa   000016 772422    3862  	zero	T14,-ST2798	"(
    003475  aa   000021 772422    3863  	zero	T17,-ST2798	"+
    003476  aa   000023 772422    3864  	zero	T19,-ST2798	"-
    003477  aa   000076 772422    3865  	zero	T62,-ST2798	"IF
    003500  aa   000143 772422    3866  	zero	T99,-ST2798	"TRANSFORM
    003501  aa   000146 772424    3867  	zero	T102,-ST2796	"WORD
    003502  aa   000147 772422    3868  	zero	T103,-ST2798	"<identifier>
    003503  aa   000150 772422    3869  	zero	T104,-ST2798	"<number>
    003504  aa   000151 772422    3870  	zero	T105,-ST2798	"<quoted_str>
                        000022    3871  	equ	LN1516,*-DPDA-ST1516-1
                                  3872  "
                                  3873  " STATE 1535
                        002777    3874  	equ	ST1535,*-DPDA
    003505  aa   000000 000001    3875  	zero	STRD,LN1535
    003506  aa   000147 003416    3876  	zero	T103,ST1806	"<identifier>
                        000001    3877  	equ	LN1535,*-DPDA-ST1535-1
                                  3878  "
                                  3879  " STATE 1537
                        003001    3880  	equ	ST1537,*-DPDA
    003507  aa   000006 000003    3881  	zero	APLYS,LN1537
    003510  aa   000002 000002    3882  	zero	2,2   pd ld
    003511  aa   000347 000001    3883  	zero	231,1   rule/alt
    003512  aa   000145 001322    3884  	zero	101,ST722 prod/val
                        000003    3885  	equ	LN1537,*-DPDA-ST1537-1
                                  3886  "
                                  3887  " STATE 1541
                        003005    3888  	equ	ST1541,*-DPDA
    003513  aa   000000 000010    3889  	zero	STRD,LN1541
    003514  aa   000027 000401    3890  	zero	T23,ST257	".
    003515  aa   000076 000405    3891  	zero	T62,ST261	"IF
    003516  aa   000130 000436    3892  	zero	T88,ST286	"PRINT
    003517  aa   000147 000440    3893  	zero	T103,ST288	"<identifier>
    003520  aa   000162 000442    3894  	zero	T114,ST290	"THEN
    003521  aa   000163 003423    3895  	zero	T115,ST1811	"ELSE
    003522  aa   000164 003427    3896  	zero	T116,ST1815	"FI
    003523  aa   000165 003431    3897  	zero	T117,ST1817	"FI.
                        000010    3898  	equ	LN1541,*-DPDA-ST1541-1
                                  3899  "
                                  3900  " STATE 1550
                        003016    3901  	equ	ST1550,*-DPDA
    003524  aa   000011 000006    3902  	zero	NSRD,LN1550
    003525  aa   000017 772414    3903  	zero	T15,-ST2804	")
    003526  aa   000022 772414    3904  	zero	T18,-ST2804	",
    003527  aa   000027 772414    3905  	zero	T23,-ST2804	".
    003530  aa   000031 772416    3906  	zero	T25,-ST2802	"AND
    003531  aa   000120 772414    3907  	zero	T80,-ST2804	"OR
    003532  aa   000162 772414    3908  	zero	T114,-ST2804	"THEN
                        000006    3909  	equ	LN1550,*-DPDA-ST1550-1
                                  3910  "
                                  3911  " STATE 1557
                        003025    3912  	equ	ST1557,*-DPDA
    003533  aa   000000 000001    3913  	zero	STRD,LN1557
    003534  aa   000017 003435    3914  	zero	T15,ST1821	")
                        000001    3915  	equ	LN1557,*-DPDA-ST1557-1
                                  3916  "
                                  3917  " STATE 1559
                        003027    3918  	equ	ST1559,*-DPDA
    003535  aa   000000 000001    3919  	zero	STRD,LN1559
    003536  aa   000017 003441    3920  	zero	T15,ST1825	")
                        000001    3921  	equ	LN1559,*-DPDA-ST1559-1
                                  3922  "
                                  3923  " STATE 1561
                        003031    3924  	equ	ST1561,*-DPDA
    003537  aa   000000 000001    3925  	zero	STRD,LN1561
    003540  aa   000017 003445    3926  	zero	T15,ST1829	")
                        000001    3927  	equ	LN1561,*-DPDA-ST1561-1
                                  3928  "
                                  3929  " STATE 1563
                        003033    3930  	equ	ST1563,*-DPDA
    003541  aa   000000 000001    3931  	zero	STRD,LN1563
    003542  aa   000017 003451    3932  	zero	T15,ST1833	")
                        000001    3933  	equ	LN1563,*-DPDA-ST1563-1
                                  3934  "
                                  3935  " STATE 1565
                        003035    3936  	equ	ST1565,*-DPDA
    003543  aa   000004 000007    3937  	zero	APLY,LN1565
    003544  aa   000003 000003    3938  	zero	3,3   pd ld
    003545  aa   000334 000001    3939  	zero	220,1   rule/alt
    003546  aa   000135 000341    3940  	zero	93,ST225 prod/val
    003547  aa   004431 000446    3941  	zero	ST2329,ST294
    003550  aa   004541 001416    3942  	zero	ST2401,ST782
    003551  aa   004657 000446    3943  	zero	ST2479,ST294
    003552  aa   004750 001416    3944  	zero	ST2536,ST782
                        000007    3945  	equ	LN1565,*-DPDA-ST1565-1
                                  3946  "
                                  3947  " STATE 1573
                        003045    3948  	equ	ST1573,*-DPDA
    003553  aa   000005 000003    3949  	zero	APLY1,LN1573
    003554  aa   000001 000001    3950  	zero	1,1   pd ld
    003555  aa   777555 000001    3951  	zero	-147,1   rule/alt
    003556  aa   000100 002122    3952  	zero	64,ST1106 prod/val
                        000003    3953  	equ	LN1573,*-DPDA-ST1573-1
                                  3954  "
                                  3955  " STATE 1577
                        003051    3956  	equ	ST1577,*-DPDA
    003557  aa   000000 000003    3957  	zero	STRD,LN1577
    003560  aa   000055 003067    3958  	zero	T45,ST1591	"DETAILFOOT
    003561  aa   000121 003073    3959  	zero	T81,ST1595	"PAGEFOOT
    003562  aa   000133 003077    3960  	zero	T91,ST1599	"REPORTFOOT
                        000003    3961  	equ	LN1577,*-DPDA-ST1577-1
                                  3962  "
                                  3963  " STATE 1581
                        003055    3964  	equ	ST1581,*-DPDA
    003563  aa   000005 000003    3965  	zero	APLY1,LN1581
    003564  aa   000005 000005    3966  	zero	5,5   pd ld
    003565  aa   000145 000001    3967  	zero	101,1   rule/alt
    003566  aa   000050 000032    3968  	zero	40,ST26 prod/val
                        000003    3969  	equ	LN1581,*-DPDA-ST1581-1
                                  3970  "
                                  3971  " STATE 1585
                        003061    3972  	equ	ST1585,*-DPDA
    003567  aa   000000 000001    3973  	zero	STRD,LN1585
    003570  aa   000153 002173    3974  	zero	T107,ST1147	",3
                        000001    3975  	equ	LN1585,*-DPDA-ST1585-1
                                  3976  "
                                  3977  " STATE 1587
                        003063    3978  	equ	ST1587,*-DPDA
    003571  aa   000000 000001    3979  	zero	STRD,LN1587
    003572  aa   000153 002173    3980  	zero	T107,ST1147	",3
                        000001    3981  	equ	LN1587,*-DPDA-ST1587-1
                                  3982  "
                                  3983  " STATE 1589
                        003065    3984  	equ	ST1589,*-DPDA
    003573  aa   000000 000001    3985  	zero	STRD,LN1589
    003574  aa   000147 003465    3986  	zero	T103,ST1845	"<identifier>
                        000001    3987  	equ	LN1589,*-DPDA-ST1589-1
                                  3988  "
                                  3989  " STATE 1591
                        003067    3990  	equ	ST1591,*-DPDA
    003575  aa   000005 000003    3991  	zero	APLY1,LN1591
    003576  aa   000000 000000    3992  	zero	0,0   pd ld
    003577  aa   000200 000001    3993  	zero	128,1   rule/alt
    003600  aa   000065 003065    3994  	zero	53,ST1589 prod/val
                        000003    3995  	equ	LN1591,*-DPDA-ST1591-1
                                  3996  "
                                  3997  " STATE 1595
                        003073    3998  	equ	ST1595,*-DPDA
    003601  aa   000005 000003    3999  	zero	APLY1,LN1595
    003602  aa   000000 000000    4000  	zero	0,0   pd ld
    003603  aa   000201 000001    4001  	zero	129,1   rule/alt
    003604  aa   000066 003063    4002  	zero	54,ST1587 prod/val
                        000003    4003  	equ	LN1595,*-DPDA-ST1595-1
                                  4004  "
                                  4005  " STATE 1599
                        003077    4006  	equ	ST1599,*-DPDA
    003605  aa   000005 000003    4007  	zero	APLY1,LN1599
    003606  aa   000000 000000    4008  	zero	0,0   pd ld
    003607  aa   000202 000001    4009  	zero	130,1   rule/alt
    003610  aa   000067 003061    4010  	zero	55,ST1585 prod/val
                        000003    4011  	equ	LN1599,*-DPDA-ST1599-1
                                  4012  "
                                  4013  " STATE 1603
                        003103    4014  	equ	ST1603,*-DPDA
    003611  aa   000011 000006    4015  	zero	NSRD,LN1603
    003612  aa   000027 772407    4016  	zero	T23,-ST2809	".
    003613  aa   000067 772410    4017  	zero	T55,-ST2808	"FIT
    003614  aa   000076 772410    4018  	zero	T62,-ST2808	"IF
    003615  aa   000110 772410    4019  	zero	T72,-ST2808	"MAXLINE
    003616  aa   000152 772407    4020  	zero	T106,-ST2809	",2
    003617  aa   000153 772410    4021  	zero	T107,-ST2808	",3
                        000006    4022  	equ	LN1603,*-DPDA-ST1603-1
                                  4023  "
                                  4024  " STATE 1610
                        003112    4025  	equ	ST1610,*-DPDA
    003620  aa   000011 000003    4026  	zero	NSRD,LN1610
    003621  aa   000027 772401    4027  	zero	T23,-ST2815	".
    003622  aa   000152 772401    4028  	zero	T106,-ST2815	",2
    003623  aa   000153 772403    4029  	zero	T107,-ST2813	",3
                        000003    4030  	equ	LN1610,*-DPDA-ST1610-1
                                  4031  "
                                  4032  " STATE 1614
                        003116    4033  	equ	ST1614,*-DPDA
    003624  aa   000004 000004    4034  	zero	APLY,LN1614
    003625  aa   000000 000000    4035  	zero	0,0   pd ld
    003626  aa   777564 000001    4036  	zero	-140,1   rule/alt
    003627  aa   000075 003123    4037  	zero	61,ST1619 prod/val
    003630  aa   003127 003477    4038  	zero	ST1623,ST1855
                        000004    4039  	equ	LN1614,*-DPDA-ST1614-1
                                  4040  "
                                  4041  " STATE 1619
                        003123    4042  	equ	ST1619,*-DPDA
    003631  aa   000005 000003    4043  	zero	APLY1,LN1619
    003632  aa   000000 000000    4044  	zero	0,0   pd ld
    003633  aa   777566 000001    4045  	zero	-138,1   rule/alt
    003634  aa   000074 003127    4046  	zero	60,ST1623 prod/val
                        000003    4047  	equ	LN1619,*-DPDA-ST1619-1
                                  4048  "
                                  4049  " STATE 1623
                        003127    4050  	equ	ST1623,*-DPDA
    003635  aa   000002 002152    4051  	zero	STRDS,ST1130
                                  4052
                                  4053  "
                                  4054  " STATE 1624
                        003130    4055  	equ	ST1624,*-DPDA
    003636  aa   000004 000004    4056  	zero	APLY,LN1624
    003637  aa   000003 000003    4057  	zero	3,3   pd ld
    003640  aa   000203 000001    4058  	zero	131,1   rule/alt
    003641  aa   000060 000464    4059  	zero	48,ST308 prod/val
    003642  aa   004756 001426    4060  	zero	ST2542,ST790
                        000004    4061  	equ	LN1624,*-DPDA-ST1624-1
                                  4062  "
                                  4063  " STATE 1629
                        003135    4064  	equ	ST1629,*-DPDA
    003643  aa   000006 000003    4065  	zero	APLYS,LN1629
    003644  aa   000000 000000    4066  	zero	0,0   pd ld
    003645  aa   000217 000001    4067  	zero	143,1   rule/alt
    003646  aa   000075 003116    4068  	zero	61,ST1614 prod/val
                        000003    4069  	equ	LN1629,*-DPDA-ST1629-1
                                  4070  "
                                  4071  " STATE 1633
                        003141    4072  	equ	ST1633,*-DPDA
    003647  aa   000000 000001    4073  	zero	STRD,LN1633
    003650  aa   000016 003503    4074  	zero	T14,ST1859	"(
                        000001    4075  	equ	LN1633,*-DPDA-ST1633-1
                                  4076  "
                                  4077  " STATE 1635
                        003143    4078  	equ	ST1635,*-DPDA
    003651  aa   000000 000001    4079  	zero	STRD,LN1635
    003652  aa   000150 003504    4080  	zero	T104,ST1860	"<number>
                        000001    4081  	equ	LN1635,*-DPDA-ST1635-1
                                  4082  "
                                  4083  " STATE 1637
                        003145    4084  	equ	ST1637,*-DPDA
    003653  aa   000006 000003    4085  	zero	APLYS,LN1637
    003654  aa   000001 000001    4086  	zero	1,1   pd ld
    003655  aa   777551 000001    4087  	zero	-151,1   rule/alt
    003656  aa   000101 002157    4088  	zero	65,ST1135 prod/val
                        000003    4089  	equ	LN1637,*-DPDA-ST1637-1
                                  4090  "
                                  4091  " STATE 1641
                        003151    4092  	equ	ST1641,*-DPDA
    003657  aa   000011 000010    4093  	zero	NSRD,LN1641
    003660  aa   000021 772373    4094  	zero	T17,-ST2821	"+
    003661  aa   000027 772366    4095  	zero	T23,-ST2826	".
    003662  aa   000076 772373    4096  	zero	T62,-ST2821	"IF
    003663  aa   000101 772373    4097  	zero	T65,-ST2821	"PAUSE
    003664  aa   000150 772373    4098  	zero	T104,-ST2821	"<number>
    003665  aa   000152 772366    4099  	zero	T106,-ST2826	",2
    003666  aa   000153 772366    4100  	zero	T107,-ST2826	",3
    003667  aa   000154 772366    4101  	zero	T108,-ST2826	",4
                        000010    4102  	equ	LN1641,*-DPDA-ST1641-1
                                  4103  "
                                  4104  " STATE 1650
                        003162    4105  	equ	ST1650,*-DPDA
    003670  aa   000005 000003    4106  	zero	APLY1,LN1650
    003671  aa   000000 000000    4107  	zero	0,0   pd ld
    003672  aa   000230 000001    4108  	zero	152,1   rule/alt
    003673  aa   000102 003151    4109  	zero	66,ST1641 prod/val
                        000003    4110  	equ	LN1650,*-DPDA-ST1650-1
                                  4111  "
                                  4112  " STATE 1654
                        003166    4113  	equ	ST1654,*-DPDA
    003674  aa   000006 000003    4114  	zero	APLYS,LN1654
    003675  aa   000002 000002    4115  	zero	2,2   pd ld
    003676  aa   000343 000001    4116  	zero	227,1   rule/alt
    003677  aa   000143 001470    4117  	zero	99,ST824 prod/val
                        000003    4118  	equ	LN1654,*-DPDA-ST1654-1
                                  4119  "
                                  4120  " STATE 1658
                        003172    4121  	equ	ST1658,*-DPDA
    003700  aa   000002 000405    4122  	zero	STRDS,ST261
                                  4123
                                  4124  "
                                  4125  " STATE 1659
                        003173    4126  	equ	ST1659,*-DPDA
    003701  aa   000004 000004    4127  	zero	APLY,LN1659
    003702  aa   000003 000003    4128  	zero	3,3   pd ld
    003703  aa   000164 000001    4129  	zero	116,1   rule/alt
    003704  aa   000055 001501    4130  	zero	45,ST833 prod/val
    003705  aa   000176 000514    4131  	zero	ST126,ST332
                        000004    4132  	equ	LN1659,*-DPDA-ST1659-1
                                  4133  "
                                  4134  " STATE 1664
                        003200    4135  	equ	ST1664,*-DPDA
    003706  aa   000011 000002    4136  	zero	NSRD,LN1664
    003707  aa   000027 772360    4137  	zero	T23,-ST2832	".
    003710  aa   000145 772362    4138  	zero	T101,-ST2830	"VARYING
                        000002    4139  	equ	LN1664,*-DPDA-ST1664-1
                                  4140  "
                                  4141  " STATE 1667
                        003203    4142  	equ	ST1667,*-DPDA
    003711  aa   000005 000003    4143  	zero	APLY1,LN1667
    003712  aa   000001 000001    4144  	zero	1,1   pd ld
    003713  aa   777636 000001    4145  	zero	-98,1   rule/alt
    003714  aa   000045 002224    4146  	zero	37,ST1172 prod/val
                        000003    4147  	equ	LN1667,*-DPDA-ST1667-1
                                  4148  "
                                  4149  " STATE 1671
                        003207    4150  	equ	ST1671,*-DPDA
    003715  aa   000000 000001    4151  	zero	STRD,LN1671
    003716  aa   000024 003550    4152  	zero	T20,ST1896	"->
                        000001    4153  	equ	LN1671,*-DPDA-ST1671-1
                                  4154  "
                                  4155  " STATE 1673
                        003211    4156  	equ	ST1673,*-DPDA
    003717  aa   000005 000003    4157  	zero	APLY1,LN1673
    003720  aa   000001 000001    4158  	zero	1,1   pd ld
    003721  aa   777642 000001    4159  	zero	-94,1   rule/alt
    003722  aa   000043 002233    4160  	zero	35,ST1179 prod/val
                        000003    4161  	equ	LN1673,*-DPDA-ST1673-1
                                  4162  "
                                  4163  " STATE 1677
                        003215    4164  	equ	ST1677,*-DPDA
    003723  aa   000000 000001    4165  	zero	STRD,LN1677
    003724  aa   000024 003552    4166  	zero	T20,ST1898	"->
                        000001    4167  	equ	LN1677,*-DPDA-ST1677-1
                                  4168  "
                                  4169  " STATE 1679
                        003217    4170  	equ	ST1679,*-DPDA
    003725  aa   000005 000003    4171  	zero	APLY1,LN1679
    003726  aa   000001 000001    4172  	zero	1,1   pd ld
    003727  aa   777646 000001    4173  	zero	-90,1   rule/alt
    003730  aa   000041 002242    4174  	zero	33,ST1186 prod/val
                        000003    4175  	equ	LN1679,*-DPDA-ST1679-1
                                  4176  "
                                  4177  " STATE 1683
                        003223    4178  	equ	ST1683,*-DPDA
    003731  aa   000000 000001    4179  	zero	STRD,LN1683
    003732  aa   000024 003554    4180  	zero	T20,ST1900	"->
                        000001    4181  	equ	LN1683,*-DPDA-ST1683-1
                                  4182  "
                                  4183  " STATE 1685
                        003225    4184  	equ	ST1685,*-DPDA
    003733  aa   000005 000003    4185  	zero	APLY1,LN1685
    003734  aa   000001 000001    4186  	zero	1,1   pd ld
    003735  aa   777652 000001    4187  	zero	-86,1   rule/alt
    003736  aa   000037 002251    4188  	zero	31,ST1193 prod/val
                        000003    4189  	equ	LN1685,*-DPDA-ST1685-1
                                  4190  "
                                  4191  " STATE 1689
                        003231    4192  	equ	ST1689,*-DPDA
    003737  aa   000000 000001    4193  	zero	STRD,LN1689
    003740  aa   000024 003556    4194  	zero	T20,ST1902	"->
                        000001    4195  	equ	LN1689,*-DPDA-ST1689-1
                                  4196  "
                                  4197  " STATE 1691
                        003233    4198  	equ	ST1691,*-DPDA
    003741  aa   000011 000002    4199  	zero	NSRD,LN1691
    003742  aa   000027 772352    4200  	zero	T23,-ST2838	".
    003743  aa   000145 772354    4201  	zero	T101,-ST2836	"VARYING
                        000002    4202  	equ	LN1691,*-DPDA-ST1691-1
                                  4203  "
                                  4204  " STATE 1694
                        003236    4205  	equ	ST1694,*-DPDA
    003744  aa   000000 000002    4206  	zero	STRD,LN1694
    003745  aa   000150 003564    4207  	zero	T104,ST1908	"<number>
    003746  aa   000151 003571    4208  	zero	T105,ST1913	"<quoted_str>
                        000002    4209  	equ	LN1694,*-DPDA-ST1694-1
                                  4210  "
                                  4211  " STATE 1697
                        003241    4212  	equ	ST1697,*-DPDA
    003747  aa   000000 000002    4213  	zero	STRD,LN1697
    003750  aa   000150 003576    4214  	zero	T104,ST1918	"<number>
    003751  aa   000151 003603    4215  	zero	T105,ST1923	"<quoted_str>
                        000002    4216  	equ	LN1697,*-DPDA-ST1697-1
                                  4217  "
                                  4218  " STATE 1700
                        003244    4219  	equ	ST1700,*-DPDA
    003752  aa   000000 000001    4220  	zero	STRD,LN1700
    003753  aa   000151 003610    4221  	zero	T105,ST1928	"<quoted_str>
                        000001    4222  	equ	LN1700,*-DPDA-ST1700-1
                                  4223  "
                                  4224  " STATE 1702
                        003246    4225  	equ	ST1702,*-DPDA
    003754  aa   000000 000001    4226  	zero	STRD,LN1702
    003755  aa   000150 003614    4227  	zero	T104,ST1932	"<number>
                        000001    4228  	equ	LN1702,*-DPDA-ST1702-1
                                  4229  "
                                  4230  " STATE 1704
                        003250    4231  	equ	ST1704,*-DPDA
    003756  aa   000005 000003    4232  	zero	APLY1,LN1704
    003757  aa   000003 000003    4233  	zero	3,3   pd ld
    003760  aa   000121 000001    4234  	zero	81,1   rule/alt
    003761  aa   000035 000535    4235  	zero	29,ST349 prod/val
                        000003    4236  	equ	LN1704,*-DPDA-ST1704-1
                                  4237  "
                                  4238  " STATE 1708
                        003254    4239  	equ	ST1708,*-DPDA
    003762  aa   000002 000405    4240  	zero	STRDS,ST261
                                  4241
                                  4242  "
                                  4243  " STATE 1709
                        003255    4244  	equ	ST1709,*-DPDA
    003763  aa   000000 000001    4245  	zero	STRD,LN1709
    003764  aa   000017 003623    4246  	zero	T15,ST1939	")
                        000001    4247  	equ	LN1709,*-DPDA-ST1709-1
                                  4248  "
                                  4249  " STATE 1711
                        003257    4250  	equ	ST1711,*-DPDA
    003765  aa   000005 000003    4251  	zero	APLY1,LN1711
    003766  aa   000000 000000    4252  	zero	0,0   pd ld
    003767  aa   777727 000001    4253  	zero	-41,1   rule/alt
    003770  aa   000026 003263    4254  	zero	22,ST1715 prod/val
                        000003    4255  	equ	LN1711,*-DPDA-ST1711-1
                                  4256  "
                                  4257  " STATE 1715
                        003263    4258  	equ	ST1715,*-DPDA
    003771  aa   000011 000004    4259  	zero	NSRD,LN1715
    003772  aa   000022 772344    4260  	zero	T18,-ST2844	",
    003773  aa   000027 772344    4261  	zero	T23,-ST2844	".
    003774  aa   000076 772346    4262  	zero	T62,-ST2842	"IF
    003775  aa   000152 772344    4263  	zero	T106,-ST2844	",2
                        000004    4264  	equ	LN1715,*-DPDA-ST1715-1
                                  4265  "
                                  4266  " STATE 1720
                        003270    4267  	equ	ST1720,*-DPDA
    003776  aa   000011 000004    4268  	zero	NSRD,LN1720
    003777  aa   000022 772336    4269  	zero	T18,-ST2850	",
    004000  aa   000027 772336    4270  	zero	T23,-ST2850	".
    004001  aa   000076 772340    4271  	zero	T62,-ST2848	"IF
    004002  aa   000152 772336    4272  	zero	T106,-ST2850	",2
                        000004    4273  	equ	LN1720,*-DPDA-ST1720-1
                                  4274  "
                                  4275  " STATE 1725
                        003275    4276  	equ	ST1725,*-DPDA
    004003  aa   000000 000001    4277  	zero	STRD,LN1725
    004004  aa   000150 003641    4278  	zero	T104,ST1953	"<number>
                        000001    4279  	equ	LN1725,*-DPDA-ST1725-1
                                  4280  "
                                  4281  " STATE 1727
                        003277    4282  	equ	ST1727,*-DPDA
    004005  aa   000000 000001    4283  	zero	STRD,LN1727
    004006  aa   000151 003643    4284  	zero	T105,ST1955	"<quoted_str>
                        000001    4285  	equ	LN1727,*-DPDA-ST1727-1
                                  4286  "
                                  4287  " STATE 1729
                        003301    4288  	equ	ST1729,*-DPDA
    004007  aa   000011 000006    4289  	zero	NSRD,LN1729
    004010  aa   000022 772327    4290  	zero	T18,-ST2857	",
    004011  aa   000027 772327    4291  	zero	T23,-ST2857	".
    004012  aa   000076 772327    4292  	zero	T62,-ST2857	"IF
    004013  aa   000117 772332    4293  	zero	T79,-ST2854	"OPTIONAL
    004014  aa   000127 772332    4294  	zero	T87,-ST2854	"POSITION
    004015  aa   000152 772327    4295  	zero	T106,-ST2857	",2
                        000006    4296  	equ	LN1729,*-DPDA-ST1729-1
                                  4297  "
                                  4298  " STATE 1736
                        003310    4299  	equ	ST1736,*-DPDA
    004016  aa   000000 000001    4300  	zero	STRD,LN1736
    004017  aa   000150 003662    4301  	zero	T104,ST1970	"<number>
                        000001    4302  	equ	LN1736,*-DPDA-ST1736-1
                                  4303  "
                                  4304  " STATE 1738
                        003312    4305  	equ	ST1738,*-DPDA
    004020  aa   000000 000001    4306  	zero	STRD,LN1738
    004021  aa   000147 003664    4307  	zero	T103,ST1972	"<identifier>
                        000001    4308  	equ	LN1738,*-DPDA-ST1738-1
                                  4309  "
                                  4310  " STATE 1740
                        003314    4311  	equ	ST1740,*-DPDA
    004022  aa   000002 001575    4312  	zero	STRDS,ST893
                                  4313
                                  4314  "
                                  4315  " STATE 1741
                        003315    4316  	equ	ST1741,*-DPDA
    004023  aa   000005 000003    4317  	zero	APLY1,LN1741
    004024  aa   000003 000003    4318  	zero	3,3   pd ld
    004025  aa   000434 000001    4319  	zero	284,1   rule/alt
    004026  aa   000164 000766    4320  	zero	116,ST502 prod/val
                        000003    4321  	equ	LN1741,*-DPDA-ST1741-1
                                  4322  "
                                  4323  " STATE 1745
                        003321    4324  	equ	ST1745,*-DPDA
    004027  aa   000002 001575    4325  	zero	STRDS,ST893
                                  4326
                                  4327  "
                                  4328  " STATE 1746
                        003322    4329  	equ	ST1746,*-DPDA
    004030  aa   000005 000003    4330  	zero	APLY1,LN1746
    004031  aa   000003 000003    4331  	zero	3,3   pd ld
    004032  aa   000463 000001    4332  	zero	307,1   rule/alt
    004033  aa   000171 000574    4333  	zero	121,ST380 prod/val
                        000003    4334  	equ	LN1746,*-DPDA-ST1746-1
                                  4335  "
                                  4336  " STATE 1750
                        003326    4337  	equ	ST1750,*-DPDA
    004034  aa   000006 000003    4338  	zero	APLYS,LN1750
    004035  aa   000003 000003    4339  	zero	3,3   pd ld
    004036  aa   000455 000001    4340  	zero	301,1   rule/alt
    004037  aa   000167 000602    4341  	zero	119,ST386 prod/val
                        000003    4342  	equ	LN1750,*-DPDA-ST1750-1
                                  4343  "
                                  4344  " STATE 1754
                        003332    4345  	equ	ST1754,*-DPDA
    004040  aa   000006 000003    4346  	zero	APLYS,LN1754
    004041  aa   000003 000003    4347  	zero	3,3   pd ld
    004042  aa   000454 000001    4348  	zero	300,1   rule/alt
    004043  aa   000167 000602    4349  	zero	119,ST386 prod/val
                        000003    4350  	equ	LN1754,*-DPDA-ST1754-1
                                  4351  "
                                  4352  " STATE 1758
                        003336    4353  	equ	ST1758,*-DPDA
    004044  aa   000000 000020    4354  	zero	STRD,LN1758
    004045  aa   000002 001043    4355  	zero	T2,ST547	"%DAY
    004046  aa   000004 001047    4356  	zero	T4,ST551	"%HHMMSS
    004047  aa   000006 001053    4357  	zero	T6,ST555	"%MMDDYY
    004050  aa   000007 001057    4358  	zero	T7,ST559	"%MONTH
    004051  aa   000010 001063    4359  	zero	T8,ST563	"%PAGENUMBER
    004052  aa   000012 001065    4360  	zero	T10,ST565	"%REPEAT
    004053  aa   000013 001071    4361  	zero	T11,ST569	"%ROMAN
    004054  aa   000014 001075    4362  	zero	T12,ST573	"%SUBSTR
    004055  aa   000015 001101    4363  	zero	T13,ST577	"%YYDDD
    004056  aa   000016 001105    4364  	zero	T14,ST581	"(
    004057  aa   000021 001106    4365  	zero	T17,ST582	"+
    004060  aa   000023 001114    4366  	zero	T19,ST588	"-
    004061  aa   000143 001124    4367  	zero	T99,ST596	"TRANSFORM
    004062  aa   000147 001130    4368  	zero	T103,ST600	"<identifier>
    004063  aa   000150 001134    4369  	zero	T104,ST604	"<number>
    004064  aa   000151 001140    4370  	zero	T105,ST608	"<quoted_str>
                        000020    4371  	equ	LN1758,*-DPDA-ST1758-1
                                  4372  "
                                  4373  " STATE 1775
                        003357    4374  	equ	ST1775,*-DPDA
    004065  aa   000000 000002    4375  	zero	STRD,LN1775
    004066  aa   000017 003703    4376  	zero	T15,ST1987	")
    004067  aa   000120 002063    4377  	zero	T80,ST1075	"OR
                        000002    4378  	equ	LN1775,*-DPDA-ST1775-1
                                  4379  "
                                  4380  " STATE 1778
                        003362    4381  	equ	ST1778,*-DPDA
    004070  aa   000000 000001    4382  	zero	STRD,LN1778
    004071  aa   000017 003705    4383  	zero	T15,ST1989	")
                        000001    4384  	equ	LN1778,*-DPDA-ST1778-1
                                  4385  "
                                  4386  " STATE 1780
                        003364    4387  	equ	ST1780,*-DPDA
    004072  aa   000000 000001    4388  	zero	STRD,LN1780
    004073  aa   000017 003711    4389  	zero	T15,ST1993	")
                        000001    4390  	equ	LN1780,*-DPDA-ST1780-1
                                  4391  "
                                  4392  " STATE 1782
                        003366    4393  	equ	ST1782,*-DPDA
    004074  aa   000005 000003    4394  	zero	APLY1,LN1782
    004075  aa   000000 000000    4395  	zero	0,0   pd ld
    004076  aa   777757 000001    4396  	zero	-17,1   rule/alt
    004077  aa   000012 003372    4397  	zero	10,ST1786 prod/val
                        000003    4398  	equ	LN1782,*-DPDA-ST1782-1
                                  4399  "
                                  4400  " STATE 1786
                        003372    4401  	equ	ST1786,*-DPDA
    004100  aa   000000 000002    4402  	zero	STRD,LN1786
    004101  aa   000017 003715    4403  	zero	T15,ST1997	")
    004102  aa   000022 003721    4404  	zero	T18,ST2001	",
                        000002    4405  	equ	LN1786,*-DPDA-ST1786-1
                                  4406  "
                                  4407  " STATE 1789
                        003375    4408  	equ	ST1789,*-DPDA
    004103  aa   000004 000004    4409  	zero	APLY,LN1789
    004104  aa   000000 000000    4410  	zero	0,0   pd ld
    004105  aa   000023 000001    4411  	zero	19,1   rule/alt
    004106  aa   000013 003366    4412  	zero	11,ST1782 prod/val
    004107  aa   003721 004074    4413  	zero	ST2001,ST2108
                        000004    4414  	equ	LN1789,*-DPDA-ST1789-1
                                  4415  "
                                  4416  " STATE 1794
                        003402    4417  	equ	ST1794,*-DPDA
    004110  aa   000005 000003    4418  	zero	APLY1,LN1794
    004111  aa   000002 000002    4419  	zero	2,2   pd ld
    004112  aa   000375 000001    4420  	zero	253,1   rule/alt
    004113  aa   000152 001721    4421  	zero	106,ST977 prod/val
                        000003    4422  	equ	LN1794,*-DPDA-ST1794-1
                                  4423  "
                                  4424  " STATE 1798
                        003406    4425  	equ	ST1798,*-DPDA
    004114  aa   000005 000003    4426  	zero	APLY1,LN1798
    004115  aa   000002 000002    4427  	zero	2,2   pd ld
    004116  aa   000401 000001    4428  	zero	257,1   rule/alt
    004117  aa   000152 001721    4429  	zero	106,ST977 prod/val
                        000003    4430  	equ	LN1798,*-DPDA-ST1798-1
                                  4431  "
                                  4432  " STATE 1802
                        003412    4433  	equ	ST1802,*-DPDA
    004120  aa   000005 000003    4434  	zero	APLY1,LN1802
    004121  aa   000002 000002    4435  	zero	2,2   pd ld
    004122  aa   000377 000001    4436  	zero	255,1   rule/alt
    004123  aa   000152 001721    4437  	zero	106,ST977 prod/val
                        000003    4438  	equ	LN1802,*-DPDA-ST1802-1
                                  4439  "
                                  4440  " STATE 1806
                        003416    4441  	equ	ST1806,*-DPDA
    004124  aa   000005 000003    4442  	zero	APLY1,LN1806
    004125  aa   000003 000003    4443  	zero	3,3   pd ld
    004126  aa   000403 000001    4444  	zero	259,1   rule/alt
    004127  aa   000153 001312    4445  	zero	107,ST714 prod/val
                        000003    4446  	equ	LN1806,*-DPDA-ST1806-1
                                  4447  "
                                  4448  " STATE 1810
                        003422    4449  	equ	ST1810,*-DPDA
    004130  aa   000002 002055    4450  	zero	STRDS,ST1069
                                  4451
                                  4452  "
                                  4453  " STATE 1811
                        003423    4454  	equ	ST1811,*-DPDA
    004131  aa   000005 000003    4455  	zero	APLY1,LN1811
    004132  aa   000000 000000    4456  	zero	0,0   pd ld
    004133  aa   000302 000001    4457  	zero	194,1   rule/alt
    004134  aa   000123 003422    4458  	zero	83,ST1810 prod/val
                        000003    4459  	equ	LN1811,*-DPDA-ST1811-1
                                  4460  "
                                  4461  " STATE 1815
                        003427    4462  	equ	ST1815,*-DPDA
    004135  aa   000000 000001    4463  	zero	STRD,LN1815
    004136  aa   000027 003733    4464  	zero	T23,ST2011	".
                        000001    4465  	equ	LN1815,*-DPDA-ST1815-1
                                  4466  "
                                  4467  " STATE 1817
                        003431    4468  	equ	ST1817,*-DPDA
    004137  aa   000006 000003    4469  	zero	APLYS,LN1817
    004140  aa   000004 000004    4470  	zero	4,4   pd ld
    004141  aa   000304 000001    4471  	zero	196,1   rule/alt
    004142  aa   000124 000341    4472  	zero	84,ST225 prod/val
                        000003    4473  	equ	LN1817,*-DPDA-ST1817-1
                                  4474  "
                                  4475  " STATE 1821
                        003435    4476  	equ	ST1821,*-DPDA
    004143  aa   000005 000003    4477  	zero	APLY1,LN1821
    004144  aa   000003 000003    4478  	zero	3,3   pd ld
    004145  aa   000420 000001    4479  	zero	272,1   rule/alt
    004146  aa   000160 001300    4480  	zero	112,ST704 prod/val
                        000003    4481  	equ	LN1821,*-DPDA-ST1821-1
                                  4482  "
                                  4483  " STATE 1825
                        003441    4484  	equ	ST1825,*-DPDA
    004147  aa   000005 000003    4485  	zero	APLY1,LN1825
    004150  aa   000003 000003    4486  	zero	3,3   pd ld
    004151  aa   000416 000001    4487  	zero	270,1   rule/alt
    004152  aa   000160 001300    4488  	zero	112,ST704 prod/val
                        000003    4489  	equ	LN1825,*-DPDA-ST1825-1
                                  4490  "
                                  4491  " STATE 1829
                        003445    4492  	equ	ST1829,*-DPDA
    004153  aa   000005 000003    4493  	zero	APLY1,LN1829
    004154  aa   000003 000003    4494  	zero	3,3   pd ld
    004155  aa   000417 000001    4495  	zero	271,1   rule/alt
    004156  aa   000160 001300    4496  	zero	112,ST704 prod/val
                        000003    4497  	equ	LN1829,*-DPDA-ST1829-1
                                  4498  "
                                  4499  " STATE 1833
                        003451    4500  	equ	ST1833,*-DPDA
    004157  aa   000005 000003    4501  	zero	APLY1,LN1833
    004160  aa   000003 000003    4502  	zero	3,3   pd ld
    004161  aa   000421 000001    4503  	zero	273,1   rule/alt
    004162  aa   000160 001300    4504  	zero	112,ST704 prod/val
                        000003    4505  	equ	LN1833,*-DPDA-ST1833-1
                                  4506  "
                                  4507  " STATE 1837
                        003455    4508  	equ	ST1837,*-DPDA
    004163  aa   000011 000003    4509  	zero	NSRD,LN1837
    004164  aa   000027 772321    4510  	zero	T23,-ST2863	".
    004165  aa   000152 772321    4511  	zero	T106,-ST2863	",2
    004166  aa   000153 772323    4512  	zero	T107,-ST2861	",3
                        000003    4513  	equ	LN1837,*-DPDA-ST1837-1
                                  4514  "
                                  4515  " STATE 1841
                        003461    4516  	equ	ST1841,*-DPDA
    004167  aa   000011 000003    4517  	zero	NSRD,LN1841
    004170  aa   000027 772313    4518  	zero	T23,-ST2869	".
    004171  aa   000152 772313    4519  	zero	T106,-ST2869	",2
    004172  aa   000153 772315    4520  	zero	T107,-ST2867	",3
                        000003    4521  	equ	LN1841,*-DPDA-ST1841-1
                                  4522  "
                                  4523  " STATE 1845
                        003465    4524  	equ	ST1845,*-DPDA
    004173  aa   000002 002152    4525  	zero	STRDS,ST1130
                                  4526
                                  4527  "
                                  4528  " STATE 1846
                        003466    4529  	equ	ST1846,*-DPDA
    004174  aa   000004 000004    4530  	zero	APLY,LN1846
    004175  aa   000003 000003    4531  	zero	3,3   pd ld
    004176  aa   000207 000001    4532  	zero	135,1   rule/alt
    004177  aa   000072 001432    4533  	zero	58,ST794 prod/val
    004200  aa   005105 002127    4534  	zero	ST2629,ST1111
                        000004    4535  	equ	LN1846,*-DPDA-ST1846-1
                                  4536  "
                                  4537  " STATE 1851
                        003473    4538  	equ	ST1851,*-DPDA
    004201  aa   000011 000003    4539  	zero	NSRD,LN1851
    004202  aa   000027 772305    4540  	zero	T23,-ST2875	".
    004203  aa   000152 772305    4541  	zero	T106,-ST2875	",2
    004204  aa   000153 772307    4542  	zero	T107,-ST2873	",3
                        000003    4543  	equ	LN1851,*-DPDA-ST1851-1
                                  4544  "
                                  4545  " STATE 1855
                        003477    4546  	equ	ST1855,*-DPDA
    004205  aa   000005 000003    4547  	zero	APLY1,LN1855
    004206  aa   000001 000001    4548  	zero	1,1   pd ld
    004207  aa   777565 000001    4549  	zero	-139,1   rule/alt
    004210  aa   000074 003127    4550  	zero	60,ST1623 prod/val
                        000003    4551  	equ	LN1855,*-DPDA-ST1855-1
                                  4552  "
                                  4553  " STATE 1859
                        003503    4554  	equ	ST1859,*-DPDA
    004211  aa   000002 000405    4555  	zero	STRDS,ST261
                                  4556
                                  4557  "
                                  4558  " STATE 1860
                        003504    4559  	equ	ST1860,*-DPDA
    004212  aa   000006 000003    4560  	zero	APLYS,LN1860
    004213  aa   000001 000001    4561  	zero	1,1   pd ld
    004214  aa   000216 000001    4562  	zero	142,1   rule/alt
    004215  aa   000075 003116    4563  	zero	61,ST1614 prod/val
                        000003    4564  	equ	LN1860,*-DPDA-ST1860-1
                                  4565  "
                                  4566  " STATE 1864
                        003510    4567  	equ	ST1864,*-DPDA
    004216  aa   000005 000003    4568  	zero	APLY1,LN1864
    004217  aa   000000 000000    4569  	zero	0,0   pd ld
    004220  aa   777546 000001    4570  	zero	-154,1   rule/alt
    004221  aa   000104 003514    4571  	zero	68,ST1868 prod/val
                        000003    4572  	equ	LN1864,*-DPDA-ST1864-1
                                  4573  "
                                  4574  " STATE 1868
                        003514    4575  	equ	ST1868,*-DPDA
    004222  aa   000011 000004    4576  	zero	NSRD,LN1868
    004223  aa   000027 772277    4577  	zero	T23,-ST2881	".
    004224  aa   000152 772277    4578  	zero	T106,-ST2881	",2
    004225  aa   000153 772277    4579  	zero	T107,-ST2881	",3
    004226  aa   000154 772301    4580  	zero	T108,-ST2879	",4
                        000004    4581  	equ	LN1868,*-DPDA-ST1868-1
                                  4582  "
                                  4583  " STATE 1873
                        003521    4584  	equ	ST1873,*-DPDA
    004227  aa   000000 000001    4585  	zero	STRD,LN1873
    004230  aa   000150 003777    4586  	zero	T104,ST2047	"<number>
                        000001    4587  	equ	LN1873,*-DPDA-ST1873-1
                                  4588  "
                                  4589  " STATE 1875
                        003523    4590  	equ	ST1875,*-DPDA
    004231  aa   000000 000001    4591  	zero	STRD,LN1875
    004232  aa   000016 004005    4592  	zero	T14,ST2053	"(
                        000001    4593  	equ	LN1875,*-DPDA-ST1875-1
                                  4594  "
                                  4595  " STATE 1877
                        003525    4596  	equ	ST1877,*-DPDA
    004233  aa   000011 000005    4597  	zero	NSRD,LN1877
    004234  aa   000027 772271    4598  	zero	T23,-ST2887	".
    004235  aa   000076 772273    4599  	zero	T62,-ST2885	"IF
    004236  aa   000152 772271    4600  	zero	T106,-ST2887	",2
    004237  aa   000153 772271    4601  	zero	T107,-ST2887	",3
    004240  aa   000154 772271    4602  	zero	T108,-ST2887	",4
                        000005    4603  	equ	LN1877,*-DPDA-ST1877-1
                                  4604  "
                                  4605  " STATE 1883
                        003533    4606  	equ	ST1883,*-DPDA
    004241  aa   000011 000005    4607  	zero	NSRD,LN1883
    004242  aa   000027 772263    4608  	zero	T23,-ST2893	".
    004243  aa   000076 772265    4609  	zero	T62,-ST2891	"IF
    004244  aa   000152 772263    4610  	zero	T106,-ST2893	",2
    004245  aa   000153 772263    4611  	zero	T107,-ST2893	",3
    004246  aa   000154 772263    4612  	zero	T108,-ST2893	",4
                        000005    4613  	equ	LN1883,*-DPDA-ST1883-1
                                  4614  "
                                  4615  " STATE 1889
                        003541    4616  	equ	ST1889,*-DPDA
    004247  aa   000000 000002    4617  	zero	STRD,LN1889
    004250  aa   000017 004012    4618  	zero	T15,ST2058	")
    004251  aa   000120 002063    4619  	zero	T80,ST1075	"OR
                        000002    4620  	equ	LN1889,*-DPDA-ST1889-1
                                  4621  "
                                  4622  " STATE 1892
                        003544    4623  	equ	ST1892,*-DPDA
    004252  aa   000005 000003    4624  	zero	APLY1,LN1892
    004253  aa   000004 000004    4625  	zero	4,4   pd ld
    004254  aa   000117 000001    4626  	zero	79,1   rule/alt
    004255  aa   000035 000535    4627  	zero	29,ST349 prod/val
                        000003    4628  	equ	LN1892,*-DPDA-ST1892-1
                                  4629  "
                                  4630  " STATE 1896
                        003550    4631  	equ	ST1896,*-DPDA
    004256  aa   000000 000001    4632  	zero	STRD,LN1896
    004257  aa   000151 003603    4633  	zero	T105,ST1923	"<quoted_str>
                        000001    4634  	equ	LN1896,*-DPDA-ST1896-1
                                  4635  "
                                  4636  " STATE 1898
                        003552    4637  	equ	ST1898,*-DPDA
    004260  aa   000000 000001    4638  	zero	STRD,LN1898
    004261  aa   000150 003576    4639  	zero	T104,ST1918	"<number>
                        000001    4640  	equ	LN1898,*-DPDA-ST1898-1
                                  4641  "
                                  4642  " STATE 1900
                        003554    4643  	equ	ST1900,*-DPDA
    004262  aa   000000 000001    4644  	zero	STRD,LN1900
    004263  aa   000151 003571    4645  	zero	T105,ST1913	"<quoted_str>
                        000001    4646  	equ	LN1900,*-DPDA-ST1900-1
                                  4647  "
                                  4648  " STATE 1902
                        003556    4649  	equ	ST1902,*-DPDA
    004264  aa   000000 000001    4650  	zero	STRD,LN1902
    004265  aa   000150 003564    4651  	zero	T104,ST1908	"<number>
                        000001    4652  	equ	LN1902,*-DPDA-ST1902-1
                                  4653  "
                                  4654  " STATE 1904
                        003560    4655  	equ	ST1904,*-DPDA
    004266  aa   000005 000003    4656  	zero	APLY1,LN1904
    004267  aa   000004 000004    4657  	zero	4,4   pd ld
    004270  aa   000123 000001    4658  	zero	83,1   rule/alt
    004271  aa   000035 000535    4659  	zero	29,ST349 prod/val
                        000003    4660  	equ	LN1904,*-DPDA-ST1904-1
                                  4661  "
                                  4662  " STATE 1908
                        003564    4663  	equ	ST1908,*-DPDA
    004272  aa   000004 000004    4664  	zero	APLY,LN1908
    004273  aa   000002 000002    4665  	zero	2,2   pd ld
    004274  aa   000127 000001    4666  	zero	87,1   rule/alt
    004275  aa   000040 002245    4667  	zero	32,ST1189 prod/val
    004276  aa   005246 003225    4668  	zero	ST2726,ST1685
                        000004    4669  	equ	LN1908,*-DPDA-ST1908-1
                                  4670  "
                                  4671  " STATE 1913
                        003571    4672  	equ	ST1913,*-DPDA
    004277  aa   000004 000004    4673  	zero	APLY,LN1913
    004300  aa   000002 000002    4674  	zero	2,2   pd ld
    004301  aa   000133 000001    4675  	zero	91,1   rule/alt
    004302  aa   000042 002236    4676  	zero	34,ST1182 prod/val
    004303  aa   005240 003217    4677  	zero	ST2720,ST1679
                        000004    4678  	equ	LN1913,*-DPDA-ST1913-1
                                  4679  "
                                  4680  " STATE 1918
                        003576    4681  	equ	ST1918,*-DPDA
    004304  aa   000004 000004    4682  	zero	APLY,LN1918
    004305  aa   000002 000002    4683  	zero	2,2   pd ld
    004306  aa   000137 000001    4684  	zero	95,1   rule/alt
    004307  aa   000044 002227    4685  	zero	36,ST1175 prod/val
    004310  aa   005232 003211    4686  	zero	ST2714,ST1673
                        000004    4687  	equ	LN1918,*-DPDA-ST1918-1
                                  4688  "
                                  4689  " STATE 1923
                        003603    4690  	equ	ST1923,*-DPDA
    004311  aa   000004 000004    4691  	zero	APLY,LN1923
    004312  aa   000002 000002    4692  	zero	2,2   pd ld
    004313  aa   000143 000001    4693  	zero	99,1   rule/alt
    004314  aa   000046 002220    4694  	zero	38,ST1168 prod/val
    004315  aa   005224 003203    4695  	zero	ST2708,ST1667
                        000004    4696  	equ	LN1923,*-DPDA-ST1923-1
                                  4697  "
                                  4698  " STATE 1928
                        003610    4699  	equ	ST1928,*-DPDA
    004316  aa   000005 000003    4700  	zero	APLY1,LN1928
    004317  aa   000002 000002    4701  	zero	2,2   pd ld
    004320  aa   000411 000001    4702  	zero	265,1   rule/alt
    004321  aa   000156 002262    4703  	zero	110,ST1202 prod/val
                        000003    4704  	equ	LN1928,*-DPDA-ST1928-1
                                  4705  "
                                  4706  " STATE 1932
                        003614    4707  	equ	ST1932,*-DPDA
    004322  aa   000005 000003    4708  	zero	APLY1,LN1932
    004323  aa   000002 000002    4709  	zero	2,2   pd ld
    004324  aa   000410 000001    4710  	zero	264,1   rule/alt
    004325  aa   000155 002265    4711  	zero	109,ST1205 prod/val
                        000003    4712  	equ	LN1932,*-DPDA-ST1932-1
                                  4713  "
                                  4714  " STATE 1936
                        003620    4715  	equ	ST1936,*-DPDA
    004326  aa   000000 000002    4716  	zero	STRD,LN1936
    004327  aa   000017 004014    4717  	zero	T15,ST2060	")
    004330  aa   000120 002063    4718  	zero	T80,ST1075	"OR
                        000002    4719  	equ	LN1936,*-DPDA-ST1936-1
                                  4720  "
                                  4721  " STATE 1939
                        003623    4722  	equ	ST1939,*-DPDA
    004331  aa   000004 000004    4723  	zero	APLY,LN1939
    004332  aa   000004 000004    4724  	zero	4,4   pd ld
    004333  aa   000112 000001    4725  	zero	74,1   rule/alt
    004334  aa   000031 000561    4726  	zero	25,ST369 prod/val
    004335  aa   004771 001551    4727  	zero	ST2553,ST873
                        000004    4728  	equ	LN1939,*-DPDA-ST1939-1
                                  4729  "
                                  4730  " STATE 1944
                        003630    4731  	equ	ST1944,*-DPDA
    004336  aa   000005 000003    4732  	zero	APLY1,LN1944
    004337  aa   000001 000001    4733  	zero	1,1   pd ld
    004340  aa   000053 000001    4734  	zero	43,1   rule/alt
    004341  aa   000026 003263    4735  	zero	22,ST1715 prod/val
                        000003    4736  	equ	LN1944,*-DPDA-ST1944-1
                                  4737  "
                                  4738  " STATE 1948
                        003634    4739  	equ	ST1948,*-DPDA
    004342  aa   000011 000004    4740  	zero	NSRD,LN1948
    004343  aa   000022 772255    4741  	zero	T18,-ST2899	",
    004344  aa   000027 772255    4742  	zero	T23,-ST2899	".
    004345  aa   000076 772257    4743  	zero	T62,-ST2897	"IF
    004346  aa   000152 772255    4744  	zero	T106,-ST2899	",2
                        000004    4745  	equ	LN1948,*-DPDA-ST1948-1
                                  4746  "
                                  4747  " STATE 1953
                        003641    4748  	equ	ST1953,*-DPDA
    004347  aa   000000 000001    4749  	zero	STRD,LN1953
    004350  aa   000017 004017    4750  	zero	T15,ST2063	")
                        000001    4751  	equ	LN1953,*-DPDA-ST1953-1
                                  4752  "
                                  4753  " STATE 1955
                        003643    4754  	equ	ST1955,*-DPDA
    004351  aa   000011 000006    4755  	zero	NSRD,LN1955
    004352  aa   000022 772246    4756  	zero	T18,-ST2906	",
    004353  aa   000027 772246    4757  	zero	T23,-ST2906	".
    004354  aa   000076 772246    4758  	zero	T62,-ST2906	"IF
    004355  aa   000117 772251    4759  	zero	T79,-ST2903	"OPTIONAL
    004356  aa   000127 772251    4760  	zero	T87,-ST2903	"POSITION
    004357  aa   000152 772246    4761  	zero	T106,-ST2906	",2
                        000006    4762  	equ	LN1955,*-DPDA-ST1955-1
                                  4763  "
                                  4764  " STATE 1962
                        003652    4765  	equ	ST1962,*-DPDA
    004360  aa   000011 000005    4766  	zero	NSRD,LN1962
    004361  aa   000022 772240    4767  	zero	T18,-ST2912	",
    004362  aa   000027 772240    4768  	zero	T23,-ST2912	".
    004363  aa   000076 772240    4769  	zero	T62,-ST2912	"IF
    004364  aa   000127 772242    4770  	zero	T87,-ST2910	"POSITION
    004365  aa   000152 772240    4771  	zero	T106,-ST2912	",2
                        000005    4772  	equ	LN1962,*-DPDA-ST1962-1
                                  4773  "
                                  4774  " STATE 1968
                        003660    4775  	equ	ST1968,*-DPDA
    004366  aa   000000 000001    4776  	zero	STRD,LN1968
    004367  aa   000150 004040    4777  	zero	T104,ST2080	"<number>
                        000001    4778  	equ	LN1968,*-DPDA-ST1968-1
                                  4779  "
                                  4780  " STATE 1970
                        003662    4781  	equ	ST1970,*-DPDA
    004370  aa   000000 000001    4782  	zero	STRD,LN1970
    004371  aa   000017 004044    4783  	zero	T15,ST2084	")
                        000001    4784  	equ	LN1970,*-DPDA-ST1970-1
                                  4785  "
                                  4786  " STATE 1972
                        003664    4787  	equ	ST1972,*-DPDA
    004372  aa   000000 000001    4788  	zero	STRD,LN1972
    004373  aa   000017 004055    4789  	zero	T15,ST2093	")
                        000001    4790  	equ	LN1972,*-DPDA-ST1972-1
                                  4791  "
                                  4792  " STATE 1974
                        003666    4793  	equ	ST1974,*-DPDA
    004374  aa   000000 000003    4794  	zero	STRD,LN1974
    004375  aa   000017 004061    4795  	zero	T15,ST2097	")
    004376  aa   000021 001606    4796  	zero	T17,ST902	"+
    004377  aa   000023 001607    4797  	zero	T19,ST903	"-
                        000003    4798  	equ	LN1974,*-DPDA-ST1974-1
                                  4799  "
                                  4800  " STATE 1978
                        003672    4801  	equ	ST1978,*-DPDA
    004400  aa   000000 000004    4802  	zero	STRD,LN1978
    004401  aa   000017 004065    4803  	zero	T15,ST2101	")
    004402  aa   000021 001606    4804  	zero	T17,ST902	"+
    004403  aa   000022 004071    4805  	zero	T18,ST2105	",
    004404  aa   000023 001607    4806  	zero	T19,ST903	"-
                        000004    4807  	equ	LN1978,*-DPDA-ST1978-1
                                  4808  "
                                  4809  " STATE 1983
                        003677    4810  	equ	ST1983,*-DPDA
    004405  aa   000006 000003    4811  	zero	APLYS,LN1983
    004406  aa   000004 000004    4812  	zero	4,4   pd ld
    004407  aa   000423 000001    4813  	zero	275,1   rule/alt
    004410  aa   000161 000773    4814  	zero	113,ST507 prod/val
                        000003    4815  	equ	LN1983,*-DPDA-ST1983-1
                                  4816  "
                                  4817  " STATE 1987
                        003703    4818  	equ	ST1987,*-DPDA
    004411  aa   000000 000001    4819  	zero	STRD,LN1987
    004412  aa   000157 004072    4820  	zero	T111,ST2106	"STOP
                        000001    4821  	equ	LN1987,*-DPDA-ST1987-1
                                  4822  "
                                  4823  " STATE 1989
                        003705    4824  	equ	ST1989,*-DPDA
    004413  aa   000006 000003    4825  	zero	APLYS,LN1989
    004414  aa   000003 000003    4826  	zero	3,3   pd ld
    004415  aa   000014 000001    4827  	zero	12,1   rule/alt
    004416  aa   000011 001651    4828  	zero	9,ST937 prod/val
                        000003    4829  	equ	LN1989,*-DPDA-ST1989-1
                                  4830  "
                                  4831  " STATE 1993
                        003711    4832  	equ	ST1993,*-DPDA
    004417  aa   000006 000003    4833  	zero	APLYS,LN1993
    004420  aa   000003 000003    4834  	zero	3,3   pd ld
    004421  aa   000015 000001    4835  	zero	13,1   rule/alt
    004422  aa   000011 001651    4836  	zero	9,ST937 prod/val
                        000003    4837  	equ	LN1993,*-DPDA-ST1993-1
                                  4838  "
                                  4839  " STATE 1997
                        003715    4840  	equ	ST1997,*-DPDA
    004423  aa   000006 000003    4841  	zero	APLYS,LN1997
    004424  aa   000003 000003    4842  	zero	3,3   pd ld
    004425  aa   777760 000001    4843  	zero	-16,1   rule/alt
    004426  aa   000011 001651    4844  	zero	9,ST937 prod/val
                        000003    4845  	equ	LN1997,*-DPDA-ST1997-1
                                  4846  "
                                  4847  " STATE 2001
                        003721    4848  	equ	ST2001,*-DPDA
    004427  aa   000000 000001    4849  	zero	STRD,LN2001
    004430  aa   000151 003375    4850  	zero	T105,ST1789	"<quoted_str>
                        000001    4851  	equ	LN2001,*-DPDA-ST2001-1
                                  4852  "
                                  4853  " STATE 2003
                        003723    4854  	equ	ST2003,*-DPDA
    004431  aa   000000 000007    4855  	zero	STRD,LN2003
    004432  aa   000027 000401    4856  	zero	T23,ST257	".
    004433  aa   000076 000405    4857  	zero	T62,ST261	"IF
    004434  aa   000130 000436    4858  	zero	T88,ST286	"PRINT
    004435  aa   000147 000440    4859  	zero	T103,ST288	"<identifier>
    004436  aa   000162 000442    4860  	zero	T114,ST290	"THEN
    004437  aa   000164 004100    4861  	zero	T116,ST2112	"FI
    004440  aa   000165 004102    4862  	zero	T117,ST2114	"FI.
                        000007    4863  	equ	LN2003,*-DPDA-ST2003-1
                                  4864  "
                                  4865  " STATE 2011
                        003733    4866  	equ	ST2011,*-DPDA
    004441  aa   000006 000003    4867  	zero	APLYS,LN2011
    004442  aa   000005 000005    4868  	zero	5,5   pd ld
    004443  aa   000303 000001    4869  	zero	195,1   rule/alt
    004444  aa   000124 000341    4870  	zero	84,ST225 prod/val
                        000003    4871  	equ	LN2011,*-DPDA-ST2011-1
                                  4872  "
                                  4873  " STATE 2015
                        003737    4874  	equ	ST2015,*-DPDA
    004445  aa   000004 000004    4875  	zero	APLY,LN2015
    004446  aa   000003 000003    4876  	zero	3,3   pd ld
    004447  aa   000204 000001    4877  	zero	132,1   rule/alt
    004450  aa   000070 002133    4878  	zero	56,ST1115 prod/val
    004451  aa   005202 003045    4879  	zero	ST2690,ST1573
                        000004    4880  	equ	LN2015,*-DPDA-ST2015-1
                                  4881  "
                                  4882  " STATE 2020
                        003744    4883  	equ	ST2020,*-DPDA
    004452  aa   000000 000002    4884  	zero	STRD,LN2020
    004453  aa   000017 004106    4885  	zero	T15,ST2118	")
    004454  aa   000120 002063    4886  	zero	T80,ST1075	"OR
                        000002    4887  	equ	LN2020,*-DPDA-ST2020-1
                                  4888  "
                                  4889  " STATE 2023
                        003747    4890  	equ	ST2023,*-DPDA
    004455  aa   000005 000003    4891  	zero	APLY1,LN2023
    004456  aa   000000 000000    4892  	zero	0,0   pd ld
    004457  aa   777533 000001    4893  	zero	-165,1   rule/alt
    004460  aa   000107 003754    4894  	zero	71,ST2028 prod/val
                        000003    4895  	equ	LN2023,*-DPDA-ST2023-1
                                  4896  "
                                  4897  " STATE 2027
                        003753    4898  	equ	ST2027,*-DPDA
    004461  aa   000002 000230    4899  	zero	STRDS,ST152
                                  4900
                                  4901  "
                                  4902  " STATE 2028
                        003754    4903  	equ	ST2028,*-DPDA
    004462  aa   000011 000004    4904  	zero	NSRD,LN2028
    004463  aa   000027 772232    4905  	zero	T23,-ST2918	".
    004464  aa   000152 772232    4906  	zero	T106,-ST2918	",2
    004465  aa   000153 772232    4907  	zero	T107,-ST2918	",3
    004466  aa   000154 772234    4908  	zero	T108,-ST2916	",4
                        000004    4909  	equ	LN2028,*-DPDA-ST2028-1
                                  4910  "
                                  4911  " STATE 2033
                        003761    4912  	equ	ST2033,*-DPDA
    004467  aa   000004 000011    4913  	zero	APLY,LN2033
    004470  aa   000003 000003    4914  	zero	3,3   pd ld
    004471  aa   000231 000001    4915  	zero	153,1   rule/alt
    004472  aa   000103 002157    4916  	zero	67,ST1135 prod/val
    004473  aa   005210 003145    4917  	zero	ST2696,ST1637
    004474  aa   005216 003145    4918  	zero	ST2702,ST1637
    004475  aa   005375 003145    4919  	zero	ST2813,ST1637
    004476  aa   005455 003145    4920  	zero	ST2861,ST1637
    004477  aa   005463 003145    4921  	zero	ST2867,ST1637
    004500  aa   005471 003145    4922  	zero	ST2873,ST1637
                        000011    4923  	equ	LN2033,*-DPDA-ST2033-1
                                  4924  "
                                  4925  " STATE 2043
                        003773    4926  	equ	ST2043,*-DPDA
    004501  aa   000005 000003    4927  	zero	APLY1,LN2043
    004502  aa   000000 000000    4928  	zero	0,0   pd ld
    004503  aa   000247 000001    4929  	zero	167,1   rule/alt
    004504  aa   000110 003753    4930  	zero	72,ST2027 prod/val
                        000003    4931  	equ	LN2043,*-DPDA-ST2043-1
                                  4932  "
                                  4933  " STATE 2047
                        003777    4934  	equ	ST2047,*-DPDA
    004505  aa   000011 000005    4935  	zero	NSRD,LN2047
    004506  aa   000027 772224    4936  	zero	T23,-ST2924	".
    004507  aa   000076 772226    4937  	zero	T62,-ST2922	"IF
    004510  aa   000152 772224    4938  	zero	T106,-ST2924	",2
    004511  aa   000153 772224    4939  	zero	T107,-ST2924	",3
    004512  aa   000154 772224    4940  	zero	T108,-ST2924	",4
                        000005    4941  	equ	LN2047,*-DPDA-ST2047-1
                                  4942  "
                                  4943  " STATE 2053
                        004005    4944  	equ	ST2053,*-DPDA
    004513  aa   000002 000405    4945  	zero	STRDS,ST261
                                  4946
                                  4947  "
                                  4948  " STATE 2054
                        004006    4949  	equ	ST2054,*-DPDA
    004514  aa   000000 000001    4950  	zero	STRD,LN2054
    004515  aa   000016 004145    4951  	zero	T14,ST2149	"(
                        000001    4952  	equ	LN2054,*-DPDA-ST2054-1
                                  4953  "
                                  4954  " STATE 2056
                        004010    4955  	equ	ST2056,*-DPDA
    004516  aa   000000 000001    4956  	zero	STRD,LN2056
    004517  aa   000016 004146    4957  	zero	T14,ST2150	"(
                        000001    4958  	equ	LN2056,*-DPDA-ST2056-1
                                  4959  "
                                  4960  " STATE 2058
                        004012    4961  	equ	ST2058,*-DPDA
    004520  aa   000000 000001    4962  	zero	STRD,LN2058
    004521  aa   000120 004147    4963  	zero	T80,ST2151	"OR
                        000001    4964  	equ	LN2058,*-DPDA-ST2058-1
                                  4965  "
                                  4966  " STATE 2060
                        004014    4967  	equ	ST2060,*-DPDA
    004522  aa   000000 000002    4968  	zero	STRD,LN2060
    004523  aa   000157 004072    4969  	zero	T111,ST2106	"STOP
    004524  aa   000160 004150    4970  	zero	T112,ST2152	"SKIP
                        000002    4971  	equ	LN2060,*-DPDA-ST2060-1
                                  4972  "
                                  4973  " STATE 2063
                        004017    4974  	equ	ST2063,*-DPDA
    004525  aa   000011 000006    4975  	zero	NSRD,LN2063
    004526  aa   000022 772215    4976  	zero	T18,-ST2931	",
    004527  aa   000027 772215    4977  	zero	T23,-ST2931	".
    004530  aa   000076 772215    4978  	zero	T62,-ST2931	"IF
    004531  aa   000117 772220    4979  	zero	T79,-ST2928	"OPTIONAL
    004532  aa   000127 772220    4980  	zero	T87,-ST2928	"POSITION
    004533  aa   000152 772215    4981  	zero	T106,-ST2931	",2
                        000006    4982  	equ	LN2063,*-DPDA-ST2063-1
                                  4983  "
                                  4984  " STATE 2070
                        004026    4985  	equ	ST2070,*-DPDA
    004534  aa   000011 000005    4986  	zero	NSRD,LN2070
    004535  aa   000022 772207    4987  	zero	T18,-ST2937	",
    004536  aa   000027 772207    4988  	zero	T23,-ST2937	".
    004537  aa   000076 772207    4989  	zero	T62,-ST2937	"IF
    004540  aa   000127 772211    4990  	zero	T87,-ST2935	"POSITION
    004541  aa   000152 772207    4991  	zero	T106,-ST2937	",2
                        000005    4992  	equ	LN2070,*-DPDA-ST2070-1
                                  4993  "
                                  4994  " STATE 2076
                        004034    4995  	equ	ST2076,*-DPDA
    004542  aa   000000 000001    4996  	zero	STRD,LN2076
    004543  aa   000150 004164    4997  	zero	T104,ST2164	"<number>
                        000001    4998  	equ	LN2076,*-DPDA-ST2076-1
                                  4999  "
                                  5000  " STATE 2078
                        004036    5001  	equ	ST2078,*-DPDA
    004544  aa   000000 000001    5002  	zero	STRD,LN2078
    004545  aa   000150 004170    5003  	zero	T104,ST2168	"<number>
                        000001    5004  	equ	LN2078,*-DPDA-ST2078-1
                                  5005  "
                                  5006  " STATE 2080
                        004040    5007  	equ	ST2080,*-DPDA
    004546  aa   000005 000003    5008  	zero	APLY1,LN2080
    004547  aa   000003 000003    5009  	zero	3,3   pd ld
    004550  aa   000104 000001    5010  	zero	68,1   rule/alt
    004551  aa   000032 002327    5011  	zero	26,ST1239 prod/val
                        000003    5012  	equ	LN2080,*-DPDA-ST2080-1
                                  5013  "
                                  5014  " STATE 2084
                        004044    5015  	equ	ST2084,*-DPDA
    004552  aa   000011 000010    5016  	zero	NSRD,LN2084
    004553  aa   000022 772176    5017  	zero	T18,-ST2946	",
    004554  aa   000027 772176    5018  	zero	T23,-ST2946	".
    004555  aa   000052 772203    5019  	zero	T42,-ST2941	"DELIMITED
    004556  aa   000076 772176    5020  	zero	T62,-ST2946	"IF
    004557  aa   000117 772203    5021  	zero	T79,-ST2941	"OPTIONAL
    004560  aa   000127 772203    5022  	zero	T87,-ST2941	"POSITION
    004561  aa   000152 772176    5023  	zero	T106,-ST2946	",2
    004562  aa   000156 772203    5024  	zero	T110,-ST2941	"SPECIAL
                        000010    5025  	equ	LN2084,*-DPDA-ST2084-1
                                  5026  "
                                  5027  " STATE 2093
                        004055    5028  	equ	ST2093,*-DPDA
    004563  aa   000005 000003    5029  	zero	APLY1,LN2093
    004564  aa   000005 000005    5030  	zero	5,5   pd ld
    004565  aa   000341 000001    5031  	zero	225,1   rule/alt
    004566  aa   000142 001027    5032  	zero	98,ST535 prod/val
                        000003    5033  	equ	LN2093,*-DPDA-ST2093-1
                                  5034  "
                                  5035  " STATE 2097
                        004061    5036  	equ	ST2097,*-DPDA
    004567  aa   000005 000003    5037  	zero	APLY1,LN2097
    004570  aa   000005 000005    5038  	zero	5,5   pd ld
    004571  aa   000442 000001    5039  	zero	290,1   rule/alt
    004572  aa   000164 000766    5040  	zero	116,ST502 prod/val
                        000003    5041  	equ	LN2097,*-DPDA-ST2097-1
                                  5042  "
                                  5043  " STATE 2101
                        004065    5044  	equ	ST2101,*-DPDA
    004573  aa   000005 000003    5045  	zero	APLY1,LN2101
    004574  aa   000005 000005    5046  	zero	5,5   pd ld
    004575  aa   000433 000001    5047  	zero	283,1   rule/alt
    004576  aa   000164 000766    5048  	zero	116,ST502 prod/val
                        000003    5049  	equ	LN2101,*-DPDA-ST2101-1
                                  5050  "
                                  5051  " STATE 2105
                        004071    5052  	equ	ST2105,*-DPDA
    004577  aa   000002 001575    5053  	zero	STRDS,ST893
                                  5054
                                  5055  "
                                  5056  " STATE 2106
                        004072    5057  	equ	ST2106,*-DPDA
    004600  aa   000000 000001    5058  	zero	STRD,LN2106
    004601  aa   000016 004221    5059  	zero	T14,ST2193	"(
                        000001    5060  	equ	LN2106,*-DPDA-ST2106-1
                                  5061  "
                                  5062  " STATE 2108
                        004074    5063  	equ	ST2108,*-DPDA
    004602  aa   000005 000003    5064  	zero	APLY1,LN2108
    004603  aa   000002 000002    5065  	zero	2,2   pd ld
    004604  aa   777756 000001    5066  	zero	-18,1   rule/alt
    004605  aa   000012 003372    5067  	zero	10,ST1786 prod/val
                        000003    5068  	equ	LN2108,*-DPDA-ST2108-1
                                  5069  "
                                  5070  " STATE 2112
                        004100    5071  	equ	ST2112,*-DPDA
    004606  aa   000000 000001    5072  	zero	STRD,LN2112
    004607  aa   000027 004222    5073  	zero	T23,ST2194	".
                        000001    5074  	equ	LN2112,*-DPDA-ST2112-1
                                  5075  "
                                  5076  " STATE 2114
                        004102    5077  	equ	ST2114,*-DPDA
    004610  aa   000006 000003    5078  	zero	APLYS,LN2114
    004611  aa   000006 000006    5079  	zero	6,6   pd ld
    004612  aa   000306 000001    5080  	zero	198,1   rule/alt
    004613  aa   000124 000341    5081  	zero	84,ST225 prod/val
                        000003    5082  	equ	LN2114,*-DPDA-ST2114-1
                                  5083  "
                                  5084  " STATE 2118
                        004106    5085  	equ	ST2118,*-DPDA
    004614  aa   000005 000003    5086  	zero	APLY1,LN2118
    004615  aa   000003 000003    5087  	zero	3,3   pd ld
    004616  aa   000215 000001    5088  	zero	141,1   rule/alt
    004617  aa   000076 003116    5089  	zero	62,ST1614 prod/val
                        000003    5090  	equ	LN2118,*-DPDA-ST2118-1
                                  5091  "
                                  5092  " STATE 2122
                        004112    5093  	equ	ST2122,*-DPDA
    004620  aa   000011 000021    5094  	zero	NSRD,LN2122
    004621  aa   000027 772154    5095  	zero	T23,-ST2964	".
    004622  aa   000030 772172    5096  	zero	T24,-ST2950	"ALIGN
    004623  aa   000040 772172    5097  	zero	T32,-ST2950	"CENTER
    004624  aa   000041 772172    5098  	zero	T33,-ST2950	"CHARACTER
    004625  aa   000042 772172    5099  	zero	T34,-ST2950	"COLUMN
    004626  aa   000043 772172    5100  	zero	T35,-ST2950	"CONCATENATE
    004627  aa   000060 772172    5101  	zero	T48,-ST2950	"EDIT
    004630  aa   000066 772172    5102  	zero	T54,-ST2950	"FILL
    004631  aa   000072 772172    5103  	zero	T58,-ST2950	"FOLD
    004632  aa   000104 772172    5104  	zero	T68,-ST2950	"LEFT
    004633  aa   000105 772172    5105  	zero	T69,-ST2950	"LET
    004634  aa   000126 772172    5106  	zero	T86,-ST2950	"PICTURE
    004635  aa   000136 772172    5107  	zero	T94,-ST2950	"RIGHT
    004636  aa   000152 772154    5108  	zero	T106,-ST2964	",2
    004637  aa   000153 772154    5109  	zero	T107,-ST2964	",3
    004640  aa   000154 772154    5110  	zero	T108,-ST2964	",4
    004641  aa   000155 772172    5111  	zero	T109,-ST2950	"BSP
                        000021    5112  	equ	LN2122,*-DPDA-ST2122-1
                                  5113  "
                                  5114  " STATE 2140
                        004134    5115  	equ	ST2140,*-DPDA
    004642  aa   000005 000003    5116  	zero	APLY1,LN2140
    004643  aa   000001 000001    5117  	zero	1,1   pd ld
    004644  aa   777532 000001    5118  	zero	-166,1   rule/alt
    004645  aa   000107 003754    5119  	zero	71,ST2028 prod/val
                        000003    5120  	equ	LN2140,*-DPDA-ST2140-1
                                  5121  "
                                  5122  " STATE 2144
                        004140    5123  	equ	ST2144,*-DPDA
    004646  aa   000000 000001    5124  	zero	STRD,LN2144
    004647  aa   000016 004342    5125  	zero	T14,ST2274	"(
                        000001    5126  	equ	LN2144,*-DPDA-ST2144-1
                                  5127  "
                                  5128  " STATE 2146
                        004142    5129  	equ	ST2146,*-DPDA
    004650  aa   000000 000002    5130  	zero	STRD,LN2146
    004651  aa   000017 004343    5131  	zero	T15,ST2275	")
    004652  aa   000120 002063    5132  	zero	T80,ST1075	"OR
                        000002    5133  	equ	LN2146,*-DPDA-ST2146-1
                                  5134  "
                                  5135  " STATE 2149
                        004145    5136  	equ	ST2149,*-DPDA
    004653  aa   000002 000405    5137  	zero	STRDS,ST261
                                  5138
                                  5139  "
                                  5140  " STATE 2150
                        004146    5141  	equ	ST2150,*-DPDA
    004654  aa   000002 000405    5142  	zero	STRDS,ST261
                                  5143
                                  5144  "
                                  5145  " STATE 2151
                        004147    5146  	equ	ST2151,*-DPDA
    004655  aa   000002 000520    5147  	zero	STRDS,ST336
                                  5148
                                  5149  "
                                  5150  " STATE 2152
                        004150    5151  	equ	ST2152,*-DPDA
    004656  aa   000000 000001    5152  	zero	STRD,LN2152
    004657  aa   000016 004362    5153  	zero	T14,ST2290	"(
                        000001    5154  	equ	LN2152,*-DPDA-ST2152-1
                                  5155  "
                                  5156  " STATE 2154
                        004152    5157  	equ	ST2154,*-DPDA
    004660  aa   000011 000005    5158  	zero	NSRD,LN2154
    004661  aa   000022 772145    5159  	zero	T18,-ST2971	",
    004662  aa   000027 772145    5160  	zero	T23,-ST2971	".
    004663  aa   000076 772145    5161  	zero	T62,-ST2971	"IF
    004664  aa   000127 772147    5162  	zero	T87,-ST2969	"POSITION
    004665  aa   000152 772145    5163  	zero	T106,-ST2971	",2
                        000005    5164  	equ	LN2154,*-DPDA-ST2154-1
                                  5165  "
                                  5166  " STATE 2160
                        004160    5167  	equ	ST2160,*-DPDA
    004666  aa   000000 000001    5168  	zero	STRD,LN2160
    004667  aa   000150 004365    5169  	zero	T104,ST2293	"<number>
                        000001    5170  	equ	LN2160,*-DPDA-ST2160-1
                                  5171  "
                                  5172  " STATE 2162
                        004162    5173  	equ	ST2162,*-DPDA
    004670  aa   000000 000001    5174  	zero	STRD,LN2162
    004671  aa   000150 004371    5175  	zero	T104,ST2297	"<number>
                        000001    5176  	equ	LN2162,*-DPDA-ST2162-1
                                  5177  "
                                  5178  " STATE 2164
                        004164    5179  	equ	ST2164,*-DPDA
    004672  aa   000005 000003    5180  	zero	APLY1,LN2164
    004673  aa   000004 000004    5181  	zero	4,4   pd ld
    004674  aa   000110 000001    5182  	zero	72,1   rule/alt
    004675  aa   000032 002327    5183  	zero	26,ST1239 prod/val
                        000003    5184  	equ	LN2164,*-DPDA-ST2164-1
                                  5185  "
                                  5186  " STATE 2168
                        004170    5187  	equ	ST2168,*-DPDA
    004676  aa   000005 000003    5188  	zero	APLY1,LN2168
    004677  aa   000004 000004    5189  	zero	4,4   pd ld
    004700  aa   000105 000001    5190  	zero	69,1   rule/alt
    004701  aa   000032 002327    5191  	zero	26,ST1239 prod/val
                        000003    5192  	equ	LN2168,*-DPDA-ST2168-1
                                  5193  "
                                  5194  " STATE 2172
                        004174    5195  	equ	ST2172,*-DPDA
    004702  aa   000000 000001    5196  	zero	STRD,LN2172
    004703  aa   000151 004375    5197  	zero	T105,ST2301	"<quoted_str>
                        000001    5198  	equ	LN2172,*-DPDA-ST2172-1
                                  5199  "
                                  5200  " STATE 2174
                        004176    5201  	equ	ST2174,*-DPDA
    004704  aa   000011 000005    5202  	zero	NSRD,LN2174
    004705  aa   000022 772137    5203  	zero	T18,-ST2977	",
    004706  aa   000027 772137    5204  	zero	T23,-ST2977	".
    004707  aa   000076 772137    5205  	zero	T62,-ST2977	"IF
    004710  aa   000127 772141    5206  	zero	T87,-ST2975	"POSITION
    004711  aa   000152 772137    5207  	zero	T106,-ST2977	",2
                        000005    5208  	equ	LN2174,*-DPDA-ST2174-1
                                  5209  "
                                  5210  " STATE 2180
                        004204    5211  	equ	ST2180,*-DPDA
    004712  aa   000000 000001    5212  	zero	STRD,LN2180
    004713  aa   000150 004406    5213  	zero	T104,ST2310	"<number>
                        000001    5214  	equ	LN2180,*-DPDA-ST2180-1
                                  5215  "
                                  5216  " STATE 2182
                        004206    5217  	equ	ST2182,*-DPDA
    004714  aa   000011 000006    5218  	zero	NSRD,LN2182
    004715  aa   000022 772130    5219  	zero	T18,-ST2984	",
    004716  aa   000027 772130    5220  	zero	T23,-ST2984	".
    004717  aa   000076 772130    5221  	zero	T62,-ST2984	"IF
    004720  aa   000117 772133    5222  	zero	T79,-ST2981	"OPTIONAL
    004721  aa   000127 772133    5223  	zero	T87,-ST2981	"POSITION
    004722  aa   000152 772130    5224  	zero	T106,-ST2984	",2
                        000006    5225  	equ	LN2182,*-DPDA-ST2182-1
                                  5226  "
                                  5227  " STATE 2189
                        004215    5228  	equ	ST2189,*-DPDA
    004723  aa   000000 000003    5229  	zero	STRD,LN2189
    004724  aa   000017 004422    5230  	zero	T15,ST2322	")
    004725  aa   000021 001606    5231  	zero	T17,ST902	"+
    004726  aa   000023 001607    5232  	zero	T19,ST903	"-
                        000003    5233  	equ	LN2189,*-DPDA-ST2189-1
                                  5234  "
                                  5235  " STATE 2193
                        004221    5236  	equ	ST2193,*-DPDA
    004727  aa   000002 000405    5237  	zero	STRDS,ST261
                                  5238
                                  5239  "
                                  5240  " STATE 2194
                        004222    5241  	equ	ST2194,*-DPDA
    004730  aa   000006 000003    5242  	zero	APLYS,LN2194
    004731  aa   000007 000007    5243  	zero	7,7   pd ld
    004732  aa   000305 000001    5244  	zero	197,1   rule/alt
    004733  aa   000124 000341    5245  	zero	84,ST225 prod/val
                        000003    5246  	equ	LN2194,*-DPDA-ST2194-1
                                  5247  "
                                  5248  " STATE 2198
                        004226    5249  	equ	ST2198,*-DPDA
    004734  aa   000000 000001    5250  	zero	STRD,LN2198
    004735  aa   000016 004431    5251  	zero	T14,ST2329	"(
                        000001    5252  	equ	LN2198,*-DPDA-ST2198-1
                                  5253  "
                                  5254  " STATE 2200
                        004230    5255  	equ	ST2200,*-DPDA
    004736  aa   000005 000003    5256  	zero	APLY1,LN2200
    004737  aa   000000 000000    5257  	zero	0,0   pd ld
    004740  aa   777526 000001    5258  	zero	-170,1   rule/alt
    004741  aa   000112 004234    5259  	zero	74,ST2204 prod/val
                        000003    5260  	equ	LN2200,*-DPDA-ST2200-1
                                  5261  "
                                  5262  " STATE 2204
                        004234    5263  	equ	ST2204,*-DPDA
    004742  aa   000011 000020    5264  	zero	NSRD,LN2204
    004743  aa   000027 772107    5265  	zero	T23,-ST3001	".
    004744  aa   000030 772124    5266  	zero	T24,-ST2988	"ALIGN
    004745  aa   000040 772124    5267  	zero	T32,-ST2988	"CENTER
    004746  aa   000041 772124    5268  	zero	T33,-ST2988	"CHARACTER
    004747  aa   000042 772124    5269  	zero	T34,-ST2988	"COLUMN
    004750  aa   000060 772124    5270  	zero	T48,-ST2988	"EDIT
    004751  aa   000066 772124    5271  	zero	T54,-ST2988	"FILL
    004752  aa   000072 772124    5272  	zero	T58,-ST2988	"FOLD
    004753  aa   000104 772124    5273  	zero	T68,-ST2988	"LEFT
    004754  aa   000105 772124    5274  	zero	T69,-ST2988	"LET
    004755  aa   000126 772124    5275  	zero	T86,-ST2988	"PICTURE
    004756  aa   000136 772124    5276  	zero	T94,-ST2988	"RIGHT
    004757  aa   000152 772107    5277  	zero	T106,-ST3001	",2
    004760  aa   000153 772107    5278  	zero	T107,-ST3001	",3
    004761  aa   000154 772107    5279  	zero	T108,-ST3001	",4
    004762  aa   000155 772124    5280  	zero	T109,-ST2988	"BSP
                        000020    5281  	equ	LN2204,*-DPDA-ST2204-1
                                  5282  "
                                  5283  " STATE 2221
                        004255    5284  	equ	ST2221,*-DPDA
    004763  aa   000000 000001    5285  	zero	STRD,LN2221
    004764  aa   000151 004437    5286  	zero	T105,ST2335	"<quoted_str>
                        000001    5287  	equ	LN2221,*-DPDA-ST2221-1
                                  5288  "
                                  5289  " STATE 2223
                        004257    5290  	equ	ST2223,*-DPDA
    004765  aa   000004 000004    5291  	zero	APLY,LN2223
    004766  aa   000000 000000    5292  	zero	0,0   pd ld
    004767  aa   000264 000001    5293  	zero	180,1   rule/alt
    004770  aa   000113 004230    5294  	zero	75,ST2200 prod/val
    004771  aa   005654 004433    5295  	zero	ST2988,ST2331
                        000004    5296  	equ	LN2223,*-DPDA-ST2223-1
                                  5297  "
                                  5298  " STATE 2228
                        004264    5299  	equ	ST2228,*-DPDA
    004772  aa   000000 000001    5300  	zero	STRD,LN2228
    004773  aa   000016 004443    5301  	zero	T14,ST2339	"(
                        000001    5302  	equ	LN2228,*-DPDA-ST2228-1
                                  5303  "
                                  5304  " STATE 2230
                        004266    5305  	equ	ST2230,*-DPDA
    004774  aa   000000 000001    5306  	zero	STRD,LN2230
    004775  aa   000150 004445    5307  	zero	T104,ST2341	"<number>
                        000001    5308  	equ	LN2230,*-DPDA-ST2230-1
                                  5309  "
                                  5310  " STATE 2232
                        004270    5311  	equ	ST2232,*-DPDA
    004776  aa   000000 000001    5312  	zero	STRD,LN2232
    004777  aa   000151 004451    5313  	zero	T105,ST2345	"<quoted_str>
                        000001    5314  	equ	LN2232,*-DPDA-ST2232-1
                                  5315  "
                                  5316  " STATE 2234
                        004272    5317  	equ	ST2234,*-DPDA
    005000  aa   000011 000021    5318  	zero	NSRD,LN2234
    005001  aa   000016 772103    5319  	zero	T14,-ST3005	"(
    005002  aa   000027 772101    5320  	zero	T23,-ST3007	".
    005003  aa   000030 772101    5321  	zero	T24,-ST3007	"ALIGN
    005004  aa   000040 772101    5322  	zero	T32,-ST3007	"CENTER
    005005  aa   000041 772101    5323  	zero	T33,-ST3007	"CHARACTER
    005006  aa   000042 772101    5324  	zero	T34,-ST3007	"COLUMN
    005007  aa   000060 772101    5325  	zero	T48,-ST3007	"EDIT
    005010  aa   000066 772101    5326  	zero	T54,-ST3007	"FILL
    005011  aa   000072 772101    5327  	zero	T58,-ST3007	"FOLD
    005012  aa   000104 772101    5328  	zero	T68,-ST3007	"LEFT
    005013  aa   000105 772101    5329  	zero	T69,-ST3007	"LET
    005014  aa   000126 772101    5330  	zero	T86,-ST3007	"PICTURE
    005015  aa   000136 772101    5331  	zero	T94,-ST3007	"RIGHT
    005016  aa   000152 772101    5332  	zero	T106,-ST3007	",2
    005017  aa   000153 772101    5333  	zero	T107,-ST3007	",3
    005020  aa   000154 772101    5334  	zero	T108,-ST3007	",4
    005021  aa   000155 772101    5335  	zero	T109,-ST3007	"BSP
                        000021    5336  	equ	LN2234,*-DPDA-ST2234-1
                                  5337  "
                                  5338  " STATE 2252
                        004314    5339  	equ	ST2252,*-DPDA
    005022  aa   000006 000003    5340  	zero	APLYS,LN2252
    005023  aa   000000 000000    5341  	zero	0,0   pd ld
    005024  aa   000271 000001    5342  	zero	185,1   rule/alt
    005025  aa   000113 004257    5343  	zero	75,ST2223 prod/val
                        000003    5344  	equ	LN2252,*-DPDA-ST2252-1
                                  5345  "
                                  5346  " STATE 2256
                        004320    5347  	equ	ST2256,*-DPDA
    005026  aa   000006 000003    5348  	zero	APLYS,LN2256
    005027  aa   000000 000000    5349  	zero	0,0   pd ld
    005030  aa   000263 000001    5350  	zero	179,1   rule/alt
    005031  aa   000113 004257    5351  	zero	75,ST2223 prod/val
                        000003    5352  	equ	LN2256,*-DPDA-ST2256-1
                                  5353  "
                                  5354  " STATE 2260
                        004324    5355  	equ	ST2260,*-DPDA
    005032  aa   000005 000003    5356  	zero	APLY1,LN2260
    005033  aa   000000 000000    5357  	zero	0,0   pd ld
    005034  aa   000257 000001    5358  	zero	175,1   rule/alt
    005035  aa   000114 004226    5359  	zero	76,ST2198 prod/val
                        000003    5360  	equ	LN2260,*-DPDA-ST2260-1
                                  5361  "
                                  5362  " STATE 2264
                        004330    5363  	equ	ST2264,*-DPDA
    005036  aa   000000 000001    5364  	zero	STRD,LN2264
    005037  aa   000151 004457    5365  	zero	T105,ST2351	"<quoted_str>
                        000001    5366  	equ	LN2264,*-DPDA-ST2264-1
                                  5367  "
                                  5368  " STATE 2266
                        004332    5369  	equ	ST2266,*-DPDA
    005040  aa   000006 000003    5370  	zero	APLYS,LN2266
    005041  aa   000000 000000    5371  	zero	0,0   pd ld
    005042  aa   000265 000001    5372  	zero	181,1   rule/alt
    005043  aa   000113 004257    5373  	zero	75,ST2223 prod/val
                        000003    5374  	equ	LN2266,*-DPDA-ST2266-1
                                  5375  "
                                  5376  " STATE 2270
                        004336    5377  	equ	ST2270,*-DPDA
    005044  aa   000006 000003    5378  	zero	APLYS,LN2270
    005045  aa   000000 000000    5379  	zero	0,0   pd ld
    005046  aa   000262 000001    5380  	zero	178,1   rule/alt
    005047  aa   000113 004257    5381  	zero	75,ST2223 prod/val
                        000003    5382  	equ	LN2270,*-DPDA-ST2270-1
                                  5383  "
                                  5384  " STATE 2274
                        004342    5385  	equ	ST2274,*-DPDA
    005050  aa   000002 000405    5386  	zero	STRDS,ST261
                                  5387
                                  5388  "
                                  5389  " STATE 2275
                        004343    5390  	equ	ST2275,*-DPDA
    005051  aa   000005 000003    5391  	zero	APLY1,LN2275
    005052  aa   000003 000003    5392  	zero	3,3   pd ld
    005053  aa   000240 000001    5393  	zero	160,1   rule/alt
    005054  aa   000105 003510    5394  	zero	69,ST1864 prod/val
                        000003    5395  	equ	LN2275,*-DPDA-ST2275-1
                                  5396  "
                                  5397  " STATE 2279
                        004347    5398  	equ	ST2279,*-DPDA
    005055  aa   000000 000002    5399  	zero	STRD,LN2279
    005056  aa   000017 004466    5400  	zero	T15,ST2358	")
    005057  aa   000120 002063    5401  	zero	T80,ST1075	"OR
                        000002    5402  	equ	LN2279,*-DPDA-ST2279-1
                                  5403  "
                                  5404  " STATE 2282
                        004352    5405  	equ	ST2282,*-DPDA
    005060  aa   000000 000002    5406  	zero	STRD,LN2282
    005061  aa   000017 004472    5407  	zero	T15,ST2362	")
    005062  aa   000120 002063    5408  	zero	T80,ST1075	"OR
                        000002    5409  	equ	LN2282,*-DPDA-ST2282-1
                                  5410  "
                                  5411  " STATE 2285
                        004355    5412  	equ	ST2285,*-DPDA
    005063  aa   000004 000004    5413  	zero	APLY,LN2285
    005064  aa   000006 000006    5414  	zero	6,6   pd ld
    005065  aa   000162 000001    5415  	zero	114,1   rule/alt
    005066  aa   000054 001504    5416  	zero	44,ST836 prod/val
    005067  aa   004147 004355    5417  	zero	ST2151,ST2285
                        000004    5418  	equ	LN2285,*-DPDA-ST2285-1
                                  5419  "
                                  5420  " STATE 2290
                        004362    5421  	equ	ST2290,*-DPDA
    005070  aa   000002 000405    5422  	zero	STRDS,ST261
                                  5423
                                  5424  "
                                  5425  " STATE 2291
                        004363    5426  	equ	ST2291,*-DPDA
    005071  aa   000000 000001    5427  	zero	STRD,LN2291
    005072  aa   000150 004501    5428  	zero	T104,ST2369	"<number>
                        000001    5429  	equ	LN2291,*-DPDA-ST2291-1
                                  5430  "
                                  5431  " STATE 2293
                        004365    5432  	equ	ST2293,*-DPDA
    005073  aa   000005 000003    5433  	zero	APLY1,LN2293
    005074  aa   000005 000005    5434  	zero	5,5   pd ld
    005075  aa   000076 000001    5435  	zero	62,1   rule/alt
    005076  aa   000032 002327    5436  	zero	26,ST1239 prod/val
                        000003    5437  	equ	LN2293,*-DPDA-ST2293-1
                                  5438  "
                                  5439  " STATE 2297
                        004371    5440  	equ	ST2297,*-DPDA
    005077  aa   000005 000003    5441  	zero	APLY1,LN2297
    005100  aa   000005 000005    5442  	zero	5,5   pd ld
    005101  aa   000111 000001    5443  	zero	73,1   rule/alt
    005102  aa   000032 002327    5444  	zero	26,ST1239 prod/val
                        000003    5445  	equ	LN2297,*-DPDA-ST2297-1
                                  5446  "
                                  5447  " STATE 2301
                        004375    5448  	equ	ST2301,*-DPDA
    005103  aa   000011 000006    5449  	zero	NSRD,LN2301
    005104  aa   000022 772072    5450  	zero	T18,-ST3014	",
    005105  aa   000027 772072    5451  	zero	T23,-ST3014	".
    005106  aa   000076 772072    5452  	zero	T62,-ST3014	"IF
    005107  aa   000117 772075    5453  	zero	T79,-ST3011	"OPTIONAL
    005110  aa   000127 772075    5454  	zero	T87,-ST3011	"POSITION
    005111  aa   000152 772072    5455  	zero	T106,-ST3014	",2
                        000006    5456  	equ	LN2301,*-DPDA-ST2301-1
                                  5457  "
                                  5458  " STATE 2308
                        004404    5459  	equ	ST2308,*-DPDA
    005112  aa   000000 000001    5460  	zero	STRD,LN2308
    005113  aa   000150 004515    5461  	zero	T104,ST2381	"<number>
                        000001    5462  	equ	LN2308,*-DPDA-ST2308-1
                                  5463  "
                                  5464  " STATE 2310
                        004406    5465  	equ	ST2310,*-DPDA
    005114  aa   000005 000003    5466  	zero	APLY1,LN2310
    005115  aa   000005 000005    5467  	zero	5,5   pd ld
    005116  aa   000062 000001    5468  	zero	50,1   rule/alt
    005117  aa   000032 002327    5469  	zero	26,ST1239 prod/val
                        000003    5470  	equ	LN2310,*-DPDA-ST2310-1
                                  5471  "
                                  5472  " STATE 2314
                        004412    5473  	equ	ST2314,*-DPDA
    005120  aa   000011 000005    5474  	zero	NSRD,LN2314
    005121  aa   000022 772064    5475  	zero	T18,-ST3020	",
    005122  aa   000027 772064    5476  	zero	T23,-ST3020	".
    005123  aa   000076 772064    5477  	zero	T62,-ST3020	"IF
    005124  aa   000127 772066    5478  	zero	T87,-ST3018	"POSITION
    005125  aa   000152 772064    5479  	zero	T106,-ST3020	",2
                        000005    5480  	equ	LN2314,*-DPDA-ST2314-1
                                  5481  "
                                  5482  " STATE 2320
                        004420    5483  	equ	ST2320,*-DPDA
    005126  aa   000000 000001    5484  	zero	STRD,LN2320
    005127  aa   000150 004523    5485  	zero	T104,ST2387	"<number>
                        000001    5486  	equ	LN2320,*-DPDA-ST2320-1
                                  5487  "
                                  5488  " STATE 2322
                        004422    5489  	equ	ST2322,*-DPDA
    005130  aa   000005 000003    5490  	zero	APLY1,LN2322
    005131  aa   000007 000007    5491  	zero	7,7   pd ld
    005132  aa   000432 000001    5492  	zero	282,1   rule/alt
    005133  aa   000164 000766    5493  	zero	116,ST502 prod/val
                        000003    5494  	equ	LN2322,*-DPDA-ST2322-1
                                  5495  "
                                  5496  " STATE 2326
                        004426    5497  	equ	ST2326,*-DPDA
    005134  aa   000000 000002    5498  	zero	STRD,LN2326
    005135  aa   000017 004527    5499  	zero	T15,ST2391	")
    005136  aa   000120 002063    5500  	zero	T80,ST1075	"OR
                        000002    5501  	equ	LN2326,*-DPDA-ST2326-1
                                  5502  "
                                  5503  " STATE 2329
                        004431    5504  	equ	ST2329,*-DPDA
    005137  aa   000000 000001    5505  	zero	STRD,LN2329
    005140  aa   000147 000440    5506  	zero	T103,ST288	"<identifier>
                        000001    5507  	equ	LN2329,*-DPDA-ST2329-1
                                  5508  "
                                  5509  " STATE 2331
                        004433    5510  	equ	ST2331,*-DPDA
    005141  aa   000005 000003    5511  	zero	APLY1,LN2331
    005142  aa   000001 000001    5512  	zero	1,1   pd ld
    005143  aa   777525 000001    5513  	zero	-171,1   rule/alt
    005144  aa   000112 004234    5514  	zero	74,ST2204 prod/val
                        000003    5515  	equ	LN2331,*-DPDA-ST2331-1
                                  5516  "
                                  5517  " STATE 2335
                        004437    5518  	equ	ST2335,*-DPDA
    005145  aa   000006 000003    5519  	zero	APLYS,LN2335
    005146  aa   000001 000001    5520  	zero	1,1   pd ld
    005147  aa   000270 000001    5521  	zero	184,1   rule/alt
    005150  aa   000113 004257    5522  	zero	75,ST2223 prod/val
                        000003    5523  	equ	LN2335,*-DPDA-ST2335-1
                                  5524  "
                                  5525  " STATE 2339
                        004443    5526  	equ	ST2339,*-DPDA
    005151  aa   000000 000001    5527  	zero	STRD,LN2339
    005152  aa   000150 004544    5528  	zero	T104,ST2404	"<number>
                        000001    5529  	equ	LN2339,*-DPDA-ST2339-1
                                  5530  "
                                  5531  " STATE 2341
                        004445    5532  	equ	ST2341,*-DPDA
    005153  aa   000006 000003    5533  	zero	APLYS,LN2341
    005154  aa   000001 000001    5534  	zero	1,1   pd ld
    005155  aa   000261 000001    5535  	zero	177,1   rule/alt
    005156  aa   000113 004257    5536  	zero	75,ST2223 prod/val
                        000003    5537  	equ	LN2341,*-DPDA-ST2341-1
                                  5538  "
                                  5539  " STATE 2345
                        004451    5540  	equ	ST2345,*-DPDA
    005157  aa   000006 000003    5541  	zero	APLYS,LN2345
    005160  aa   000001 000001    5542  	zero	1,1   pd ld
    005161  aa   000255 000001    5543  	zero	173,1   rule/alt
    005162  aa   000113 004257    5544  	zero	75,ST2223 prod/val
                        000003    5545  	equ	LN2345,*-DPDA-ST2345-1
                                  5546  "
                                  5547  " STATE 2349
                        004455    5548  	equ	ST2349,*-DPDA
    005163  aa   000000 000001    5549  	zero	STRD,LN2349
    005164  aa   000150 004546    5550  	zero	T104,ST2406	"<number>
                        000001    5551  	equ	LN2349,*-DPDA-ST2349-1
                                  5552  "
                                  5553  " STATE 2351
                        004457    5554  	equ	ST2351,*-DPDA
    005165  aa   000006 000003    5555  	zero	APLYS,LN2351
    005166  aa   000001 000001    5556  	zero	1,1   pd ld
    005167  aa   000254 000001    5557  	zero	172,1   rule/alt
    005170  aa   000113 004257    5558  	zero	75,ST2223 prod/val
                        000003    5559  	equ	LN2351,*-DPDA-ST2351-1
                                  5560  "
                                  5561  " STATE 2355
                        004463    5562  	equ	ST2355,*-DPDA
    005171  aa   000000 000002    5563  	zero	STRD,LN2355
    005172  aa   000017 004550    5564  	zero	T15,ST2408	")
    005173  aa   000120 002063    5565  	zero	T80,ST1075	"OR
                        000002    5566  	equ	LN2355,*-DPDA-ST2355-1
                                  5567  "
                                  5568  " STATE 2358
                        004466    5569  	equ	ST2358,*-DPDA
    005174  aa   000005 000003    5570  	zero	APLY1,LN2358
    005175  aa   000004 000004    5571  	zero	4,4   pd ld
    005176  aa   000241 000001    5572  	zero	161,1   rule/alt
    005177  aa   000105 003510    5573  	zero	69,ST1864 prod/val
                        000003    5574  	equ	LN2358,*-DPDA-ST2358-1
                                  5575  "
                                  5576  " STATE 2362
                        004472    5577  	equ	ST2362,*-DPDA
    005200  aa   000005 000003    5578  	zero	APLY1,LN2362
    005201  aa   000004 000004    5579  	zero	4,4   pd ld
    005202  aa   000234 000001    5580  	zero	156,1   rule/alt
    005203  aa   000105 003510    5581  	zero	69,ST1864 prod/val
                        000003    5582  	equ	LN2362,*-DPDA-ST2362-1
                                  5583  "
                                  5584  " STATE 2366
                        004476    5585  	equ	ST2366,*-DPDA
    005204  aa   000000 000002    5586  	zero	STRD,LN2366
    005205  aa   000017 004554    5587  	zero	T15,ST2412	")
    005206  aa   000120 002063    5588  	zero	T80,ST1075	"OR
                        000002    5589  	equ	LN2366,*-DPDA-ST2366-1
                                  5590  "
                                  5591  " STATE 2369
                        004501    5592  	equ	ST2369,*-DPDA
    005207  aa   000005 000003    5593  	zero	APLY1,LN2369
    005210  aa   000006 000006    5594  	zero	6,6   pd ld
    005211  aa   000103 000001    5595  	zero	67,1   rule/alt
    005212  aa   000032 002327    5596  	zero	26,ST1239 prod/val
                        000003    5597  	equ	LN2369,*-DPDA-ST2369-1
                                  5598  "
                                  5599  " STATE 2373
                        004505    5600  	equ	ST2373,*-DPDA
    005213  aa   000011 000005    5601  	zero	NSRD,LN2373
    005214  aa   000022 772056    5602  	zero	T18,-ST3026	",
    005215  aa   000027 772056    5603  	zero	T23,-ST3026	".
    005216  aa   000076 772056    5604  	zero	T62,-ST3026	"IF
    005217  aa   000127 772060    5605  	zero	T87,-ST3024	"POSITION
    005220  aa   000152 772056    5606  	zero	T106,-ST3026	",2
                        000005    5607  	equ	LN2373,*-DPDA-ST2373-1
                                  5608  "
                                  5609  " STATE 2379
                        004513    5610  	equ	ST2379,*-DPDA
    005221  aa   000000 000001    5611  	zero	STRD,LN2379
    005222  aa   000150 004564    5612  	zero	T104,ST2420	"<number>
                        000001    5613  	equ	LN2379,*-DPDA-ST2379-1
                                  5614  "
                                  5615  " STATE 2381
                        004515    5616  	equ	ST2381,*-DPDA
    005223  aa   000005 000003    5617  	zero	APLY1,LN2381
    005224  aa   000006 000006    5618  	zero	6,6   pd ld
    005225  aa   000071 000001    5619  	zero	57,1   rule/alt
    005226  aa   000032 002327    5620  	zero	26,ST1239 prod/val
                        000003    5621  	equ	LN2381,*-DPDA-ST2381-1
                                  5622  "
                                  5623  " STATE 2385
                        004521    5624  	equ	ST2385,*-DPDA
    005227  aa   000000 000001    5625  	zero	STRD,LN2385
    005230  aa   000150 004570    5626  	zero	T104,ST2424	"<number>
                        000001    5627  	equ	LN2385,*-DPDA-ST2385-1
                                  5628  "
                                  5629  " STATE 2387
                        004523    5630  	equ	ST2387,*-DPDA
    005231  aa   000005 000003    5631  	zero	APLY1,LN2387
    005232  aa   000006 000006    5632  	zero	6,6   pd ld
    005233  aa   000074 000001    5633  	zero	60,1   rule/alt
    005234  aa   000032 002327    5634  	zero	26,ST1239 prod/val
                        000003    5635  	equ	LN2387,*-DPDA-ST2387-1
                                  5636  "
                                  5637  " STATE 2391
                        004527    5638  	equ	ST2391,*-DPDA
    005235  aa   000004 000011    5639  	zero	APLY,LN2391
    005236  aa   000007 000007    5640  	zero	7,7   pd ld
    005237  aa   000055 000001    5641  	zero	45,1   rule/alt
    005240  aa   000030 001636    5642  	zero	24,ST926 prod/val
    005241  aa   001176 001651    5643  	zero	ST638,ST937
    005242  aa   001566 002312    5644  	zero	ST886,ST1226
    005243  aa   001644 002572    5645  	zero	ST932,ST1402
    005244  aa   005144 001651    5646  	zero	ST2660,ST937
    005245  aa   005440 002572    5647  	zero	ST2848,ST1402
    005246  aa   005521 002572    5648  	zero	ST2897,ST1402
                        000011    5649  	equ	LN2391,*-DPDA-ST2391-1
                                  5650  "
                                  5651  " STATE 2401
                        004541    5652  	equ	ST2401,*-DPDA
    005247  aa   000000 000002    5653  	zero	STRD,LN2401
    005250  aa   000017 004574    5654  	zero	T15,ST2428	")
    005251  aa   000147 000440    5655  	zero	T103,ST288	"<identifier>
                        000002    5656  	equ	LN2401,*-DPDA-ST2401-1
                                  5657  "
                                  5658  " STATE 2404
                        004544    5659  	equ	ST2404,*-DPDA
    005252  aa   000000 000001    5660  	zero	STRD,LN2404
    005253  aa   000017 004600    5661  	zero	T15,ST2432	")
                        000001    5662  	equ	LN2404,*-DPDA-ST2404-1
                                  5663  "
                                  5664  " STATE 2406
                        004546    5665  	equ	ST2406,*-DPDA
    005254  aa   000000 000001    5666  	zero	STRD,LN2406
    005255  aa   000022 004604    5667  	zero	T18,ST2436	",
                        000001    5668  	equ	LN2406,*-DPDA-ST2406-1
                                  5669  "
                                  5670  " STATE 2408
                        004550    5671  	equ	ST2408,*-DPDA
    005256  aa   000005 000003    5672  	zero	APLY1,LN2408
    005257  aa   000005 000005    5673  	zero	5,5   pd ld
    005260  aa   000235 000001    5674  	zero	157,1   rule/alt
    005261  aa   000105 003510    5675  	zero	69,ST1864 prod/val
                        000003    5676  	equ	LN2408,*-DPDA-ST2408-1
                                  5677  "
                                  5678  " STATE 2412
                        004554    5679  	equ	ST2412,*-DPDA
    005262  aa   000004 000005    5680  	zero	APLY,LN2412
    005263  aa   000007 000007    5681  	zero	7,7   pd ld
    005264  aa   000054 000001    5682  	zero	44,1   rule/alt
    005265  aa   000027 002317    5683  	zero	23,ST1231 prod/val
    005266  aa   005270 003257    5684  	zero	ST2744,ST1711
    005267  aa   005432 003630    5685  	zero	ST2842,ST1944
                        000005    5686  	equ	LN2412,*-DPDA-ST2412-1
                                  5687  "
                                  5688  " STATE 2418
                        004562    5689  	equ	ST2418,*-DPDA
    005270  aa   000000 000001    5690  	zero	STRD,LN2418
    005271  aa   000150 004606    5691  	zero	T104,ST2438	"<number>
                        000001    5692  	equ	LN2418,*-DPDA-ST2418-1
                                  5693  "
                                  5694  " STATE 2420
                        004564    5695  	equ	ST2420,*-DPDA
    005272  aa   000005 000003    5696  	zero	APLY1,LN2420
    005273  aa   000007 000007    5697  	zero	7,7   pd ld
    005274  aa   000072 000001    5698  	zero	58,1   rule/alt
    005275  aa   000032 002327    5699  	zero	26,ST1239 prod/val
                        000003    5700  	equ	LN2420,*-DPDA-ST2420-1
                                  5701  "
                                  5702  " STATE 2424
                        004570    5703  	equ	ST2424,*-DPDA
    005276  aa   000005 000003    5704  	zero	APLY1,LN2424
    005277  aa   000007 000007    5705  	zero	7,7   pd ld
    005300  aa   000075 000001    5706  	zero	61,1   rule/alt
    005301  aa   000032 002327    5707  	zero	26,ST1239 prod/val
                        000003    5708  	equ	LN2424,*-DPDA-ST2424-1
                                  5709  "
                                  5710  " STATE 2428
                        004574    5711  	equ	ST2428,*-DPDA
    005302  aa   000006 000003    5712  	zero	APLYS,LN2428
    005303  aa   000003 000003    5713  	zero	3,3   pd ld
    005304  aa   000260 000001    5714  	zero	176,1   rule/alt
    005305  aa   000113 004257    5715  	zero	75,ST2223 prod/val
                        000003    5716  	equ	LN2428,*-DPDA-ST2428-1
                                  5717  "
                                  5718  " STATE 2432
                        004600    5719  	equ	ST2432,*-DPDA
    005306  aa   000006 000003    5720  	zero	APLYS,LN2432
    005307  aa   000003 000003    5721  	zero	3,3   pd ld
    005310  aa   000256 000001    5722  	zero	174,1   rule/alt
    005311  aa   000113 004257    5723  	zero	75,ST2223 prod/val
                        000003    5724  	equ	LN2432,*-DPDA-ST2432-1
                                  5725  "
                                  5726  " STATE 2436
                        004604    5727  	equ	ST2436,*-DPDA
    005312  aa   000000 000001    5728  	zero	STRD,LN2436
    005313  aa   000150 004612    5729  	zero	T104,ST2442	"<number>
                        000001    5730  	equ	LN2436,*-DPDA-ST2436-1
                                  5731  "
                                  5732  " STATE 2438
                        004606    5733  	equ	ST2438,*-DPDA
    005314  aa   000005 000003    5734  	zero	APLY1,LN2438
    005315  aa   000010 000010    5735  	zero	8,8   pd ld
    005316  aa   000073 000001    5736  	zero	59,1   rule/alt
    005317  aa   000032 002327    5737  	zero	26,ST1239 prod/val
                        000003    5738  	equ	LN2438,*-DPDA-ST2438-1
                                  5739  "
                                  5740  " STATE 2442
                        004612    5741  	equ	ST2442,*-DPDA
    005320  aa   000000 000001    5742  	zero	STRD,LN2442
    005321  aa   000017 004614    5743  	zero	T15,ST2444	")
                        000001    5744  	equ	LN2442,*-DPDA-ST2442-1
                                  5745  "
                                  5746  " STATE 2444
                        004614    5747  	equ	ST2444,*-DPDA
    005322  aa   000006 000003    5748  	zero	APLYS,LN2444
    005323  aa   000005 000005    5749  	zero	5,5   pd ld
    005324  aa   000267 000001    5750  	zero	183,1   rule/alt
    005325  aa   000113 004257    5751  	zero	75,ST2223 prod/val
                        000003    5752  	equ	LN2444,*-DPDA-ST2444-1
                                  5753  "
                                  5754  " STATE 2448
                        004620    5755  	equ	ST2448,*-DPDA
    005326  aa   000000 000001    5756  	zero	STRD,LN2448
    005327  aa   000137 000143    5757  	zero	T95,ST99	"SORT
                        000001    5758  	equ	LN2448,*-DPDA-ST2448-1
                                  5759  "
                                  5760  " STATE 2450
                        004622    5761  	equ	ST2450,*-DPDA
    005330  aa   000005 000003    5762  	zero	APLY1,LN2450
    005331  aa   777777 777777    5763  	zero	-1,-1   pd ld
    005332  aa   000317 000001    5764  	zero	207,1   rule/alt
    005333  aa   000127 000127    5765  	zero	87,ST87 prod/val
                        000003    5766  	equ	LN2450,*-DPDA-ST2450-1
                                  5767  "
                                  5768  " STATE 2454
                        004626    5769  	equ	ST2454,*-DPDA
    005334  aa   000000 000006    5770  	zero	STRD,LN2454
    005335  aa   000037 000170    5771  	zero	T31,ST120	"BREAK
    005336  aa   000110 000172    5772  	zero	T72,ST122	"MAXLINE
    005337  aa   000111 000174    5773  	zero	T73,ST124	"MINLINE
    005340  aa   000116 000176    5774  	zero	T78,ST126	"ON
    005341  aa   000123 000202    5775  	zero	T83,ST130	"PAGELENGTH
    005342  aa   000124 000204    5776  	zero	T84,ST132	"PAGEWIDTH
                        000006    5777  	equ	LN2454,*-DPDA-ST2454-1
                                  5778  "
                                  5779  " STATE 2461
                        004635    5780  	equ	ST2461,*-DPDA
    005343  aa   000005 000003    5781  	zero	APLY1,LN2461
    005344  aa   777777 777777    5782  	zero	-1,-1   pd ld
    005345  aa   777631 000001    5783  	zero	-103,1   rule/alt
    005346  aa   000051 000166    5784  	zero	41,ST118 prod/val
                        000003    5785  	equ	LN2461,*-DPDA-ST2461-1
                                  5786  "
                                  5787  " STATE 2465
                        004641    5788  	equ	ST2465,*-DPDA
    005347  aa   000000 000004    5789  	zero	STRD,LN2465
    005350  aa   000033 000230    5790  	zero	T27,ST152	"ATTACH
    005351  aa   000065 000252    5791  	zero	T53,ST170	"FILE
    005352  aa   000131 000253    5792  	zero	T89,ST171	"RECORD
    005353  aa   000140 000262    5793  	zero	T96,ST178	"STREAM
                        000004    5794  	equ	LN2465,*-DPDA-ST2465-1
                                  5795  "
                                  5796  " STATE 2470
                        004646    5797  	equ	ST2470,*-DPDA
    005354  aa   000005 000003    5798  	zero	APLY1,LN2470
    005355  aa   777777 777777    5799  	zero	-1,-1   pd ld
    005356  aa   777743 000001    5800  	zero	-29,1   rule/alt
    005357  aa   000021 000226    5801  	zero	17,ST150 prod/val
                        000003    5802  	equ	LN2470,*-DPDA-ST2470-1
                                  5803  "
                                  5804  " STATE 2474
                        004652    5805  	equ	ST2474,*-DPDA
    005360  aa   000002 002055    5806  	zero	STRDS,ST1069
                                  5807
                                  5808  "
                                  5809  " STATE 2475
                        004653    5810  	equ	ST2475,*-DPDA
    005361  aa   000005 000003    5811  	zero	APLY1,LN2475
    005362  aa   777777 777777    5812  	zero	-1,-1   pd ld
    005363  aa   000275 000001    5813  	zero	189,1   rule/alt
    005364  aa   000120 000372    5814  	zero	80,ST250 prod/val
                        000003    5815  	equ	LN2475,*-DPDA-ST2475-1
                                  5816  "
                                  5817  " STATE 2479
                        004657    5818  	equ	ST2479,*-DPDA
    005365  aa   000000 000001    5819  	zero	STRD,LN2479
    005366  aa   000147 000440    5820  	zero	T103,ST288	"<identifier>
                        000001    5821  	equ	LN2479,*-DPDA-ST2479-1
                                  5822  "
                                  5823  " STATE 2481
                        004661    5824  	equ	ST2481,*-DPDA
    005367  aa   000005 000003    5825  	zero	APLY1,LN2481
    005370  aa   777777 777777    5826  	zero	-1,-1   pd ld
    005371  aa   777450 000001    5827  	zero	-216,1   rule/alt
    005372  aa   000133 000456    5828  	zero	91,ST302 prod/val
                        000003    5829  	equ	LN2481,*-DPDA-ST2481-1
                                  5830  "
                                  5831  " STATE 2485
                        004665    5832  	equ	ST2485,*-DPDA
    005373  aa   000002 004626    5833  	zero	STRDS,ST2454
                                  5834
                                  5835  "
                                  5836  " STATE 2486
                        004666    5837  	equ	ST2486,*-DPDA
    005374  aa   000005 000003    5838  	zero	APLY1,LN2486
    005375  aa   000000 000000    5839  	zero	0,0   pd ld
    005376  aa   777632 000001    5840  	zero	-102,1   rule/alt
    005377  aa   000051 000166    5841  	zero	41,ST118 prod/val
                        000003    5842  	equ	LN2486,*-DPDA-ST2486-1
                                  5843  "
                                  5844  " STATE 2490
                        004672    5845  	equ	ST2490,*-DPDA
    005400  aa   000000 000001    5846  	zero	STRD,LN2490
    005401  aa   000152 000474    5847  	zero	T106,ST316	",2
                        000001    5848  	equ	LN2490,*-DPDA-ST2490-1
                                  5849  "
                                  5850  " STATE 2492
                        004674    5851  	equ	ST2492,*-DPDA
    005402  aa   000005 000003    5852  	zero	APLY1,LN2492
    005403  aa   777777 777777    5853  	zero	-1,-1   pd ld
    005404  aa   777611 000001    5854  	zero	-119,1   rule/alt
    005405  aa   000056 000472    5855  	zero	46,ST314 prod/val
                        000003    5856  	equ	LN2492,*-DPDA-ST2492-1
                                  5857  "
                                  5858  " STATE 2496
                        004700    5859  	equ	ST2496,*-DPDA
    005406  aa   000001 000004    5860  	zero	LOOK,LN2496
    005407  aa   000054 773104    5861  	zero	T44,-ST2492	"DETAIL
    005410  aa   000056 773106    5862  	zero	T46,-ST2490	"DETAILHEAD
    005411  aa   000122 773106    5863  	zero	T82,-ST2490	"PAGEHEAD
    005412  aa   000134 773106    5864  	zero	T92,-ST2490	"REPORTHEAD
                        000004    5865  	equ	LN2496,*-DPDA-ST2496-1
                                  5866  "
                                  5867  " STATE 2501
                        004705    5868  	equ	ST2501,*-DPDA
    005413  aa   000002 004641    5869  	zero	STRDS,ST2465
                                  5870
                                  5871  "
                                  5872  " STATE 2502
                        004706    5873  	equ	ST2502,*-DPDA
    005414  aa   000005 000003    5874  	zero	APLY1,LN2502
    005415  aa   000000 000000    5875  	zero	0,0   pd ld
    005416  aa   777744 000001    5876  	zero	-28,1   rule/alt
    005417  aa   000021 000226    5877  	zero	17,ST150 prod/val
                        000003    5878  	equ	LN2502,*-DPDA-ST2502-1
                                  5879  "
                                  5880  " STATE 2506
                        004712    5881  	equ	ST2506,*-DPDA
    005420  aa   000000 000001    5882  	zero	STRD,LN2506
    005421  aa   000150 001153    5883  	zero	T104,ST619	"<number>
                        000001    5884  	equ	LN2506,*-DPDA-ST2506-1
                                  5885  "
                                  5886  " STATE 2508
                        004714    5887  	equ	ST2508,*-DPDA
    005422  aa   000006 000003    5888  	zero	APLYS,LN2508
    005423  aa   000000 000000    5889  	zero	0,0   pd ld
    005424  aa   000044 000001    5890  	zero	36,1   rule/alt
    005425  aa   000024 001153    5891  	zero	20,ST619 prod/val
                        000003    5892  	equ	LN2508,*-DPDA-ST2508-1
                                  5893  "
                                  5894  " STATE 2512
                        004720    5895  	equ	ST2512,*-DPDA
    005426  aa   000000 000001    5896  	zero	STRD,LN2512
    005427  aa   000150 001160    5897  	zero	T104,ST624	"<number>
                        000001    5898  	equ	LN2512,*-DPDA-ST2512-1
                                  5899  "
                                  5900  " STATE 2514
                        004722    5901  	equ	ST2514,*-DPDA
    005430  aa   000006 000003    5902  	zero	APLYS,LN2514
    005431  aa   000000 000000    5903  	zero	0,0   pd ld
    005432  aa   000045 000001    5904  	zero	37,1   rule/alt
    005433  aa   000024 001153    5905  	zero	20,ST619 prod/val
                        000003    5906  	equ	LN2514,*-DPDA-ST2514-1
                                  5907  "
                                  5908  " STATE 2518
                        004726    5909  	equ	ST2518,*-DPDA
    005434  aa   000000 000002    5910  	zero	STRD,LN2518
    005435  aa   000032 001224    5911  	zero	T26,ST660	"ASCENDING
    005436  aa   000053 001231    5912  	zero	T43,ST665	"DESCENDING
                        000002    5913  	equ	LN2518,*-DPDA-ST2518-1
                                  5914  "
                                  5915  " STATE 2521
                        004731    5916  	equ	ST2521,*-DPDA
    005437  aa   000006 000003    5917  	zero	APLYS,LN2521
    005440  aa   000000 000000    5918  	zero	0,0   pd ld
    005441  aa   000325 000001    5919  	zero	213,1   rule/alt
    005442  aa   000132 001224    5920  	zero	90,ST660 prod/val
                        000003    5921  	equ	LN2521,*-DPDA-ST2521-1
                                  5922  "
                                  5923  " STATE 2525
                        004735    5924  	equ	ST2525,*-DPDA
    005443  aa   000002 002055    5925  	zero	STRDS,ST1069
                                  5926
                                  5927  "
                                  5928  " STATE 2526
                        004736    5929  	equ	ST2526,*-DPDA
    005444  aa   000005 000003    5930  	zero	APLY1,LN2526
    005445  aa   000000 000000    5931  	zero	0,0   pd ld
    005446  aa   777502 000001    5932  	zero	-190,1   rule/alt
    005447  aa   000120 000372    5933  	zero	80,ST250 prod/val
                        000003    5934  	equ	LN2526,*-DPDA-ST2526-1
                                  5935  "
                                  5936  " STATE 2530
                        004742    5937  	equ	ST2530,*-DPDA
    005450  aa   000000 000001    5938  	zero	STRD,LN2530
    005451  aa   000075 001251    5939  	zero	T61,ST681	"HOLD
                        000001    5940  	equ	LN2530,*-DPDA-ST2530-1
                                  5941  "
                                  5942  " STATE 2532
                        004744    5943  	equ	ST2532,*-DPDA
    005452  aa   000005 000003    5944  	zero	APLY1,LN2532
    005453  aa   777777 777777    5945  	zero	-1,-1   pd ld
    005454  aa   000314 000001    5946  	zero	204,1   rule/alt
    005455  aa   000126 001241    5947  	zero	86,ST673 prod/val
                        000003    5948  	equ	LN2532,*-DPDA-ST2532-1
                                  5949  "
                                  5950  " STATE 2536
                        004750    5951  	equ	ST2536,*-DPDA
    005456  aa   000000 000001    5952  	zero	STRD,LN2536
    005457  aa   000147 000440    5953  	zero	T103,ST288	"<identifier>
                        000001    5954  	equ	LN2536,*-DPDA-ST2536-1
                                  5955  "
                                  5956  " STATE 2538
                        004752    5957  	equ	ST2538,*-DPDA
    005460  aa   000005 000003    5958  	zero	APLY1,LN2538
    005461  aa   000000 000000    5959  	zero	0,0   pd ld
    005462  aa   777447 000001    5960  	zero	-217,1   rule/alt
    005463  aa   000133 000456    5961  	zero	91,ST302 prod/val
                        000003    5962  	equ	LN2538,*-DPDA-ST2538-1
                                  5963  "
                                  5964  " STATE 2542
                        004756    5965  	equ	ST2542,*-DPDA
    005464  aa   000000 000001    5966  	zero	STRD,LN2542
    005465  aa   000152 000474    5967  	zero	T106,ST316	",2
                        000001    5968  	equ	LN2542,*-DPDA-ST2542-1
                                  5969  "
                                  5970  " STATE 2544
                        004760    5971  	equ	ST2544,*-DPDA
    005466  aa   000005 000003    5972  	zero	APLY1,LN2544
    005467  aa   000000 000000    5973  	zero	0,0   pd ld
    005470  aa   777612 000001    5974  	zero	-118,1   rule/alt
    005471  aa   000056 000472    5975  	zero	46,ST314 prod/val
                        000003    5976  	equ	LN2544,*-DPDA-ST2544-1
                                  5977  "
                                  5978  " STATE 2548
                        004764    5979  	equ	ST2548,*-DPDA
    005472  aa   000001 000004    5980  	zero	LOOK,LN2548
    005473  aa   000054 773020    5981  	zero	T44,-ST2544	"DETAIL
    005474  aa   000056 773022    5982  	zero	T46,-ST2542	"DETAILHEAD
    005475  aa   000122 773022    5983  	zero	T82,-ST2542	"PAGEHEAD
    005476  aa   000134 773022    5984  	zero	T92,-ST2542	"REPORTHEAD
                        000004    5985  	equ	LN2548,*-DPDA-ST2548-1
                                  5986  "
                                  5987  " STATE 2553
                        004771    5988  	equ	ST2553,*-DPDA
    005477  aa   000000 000002    5989  	zero	STRD,LN2553
    005500  aa   000022 001566    5990  	zero	T18,ST886	",
    005501  aa   000152 000571    5991  	zero	T106,ST377	",2
                        000002    5992  	equ	LN2553,*-DPDA-ST2553-1
                                  5993  "
                                  5994  " STATE 2556
                        004774    5995  	equ	ST2556,*-DPDA
    005502  aa   000005 000003    5996  	zero	APLY1,LN2556
    005503  aa   777777 777777    5997  	zero	-1,-1   pd ld
    005504  aa   777751 000002    5998  	zero	-23,2   rule/alt
    005505  aa   000016 001564    5999  	zero	14,ST884 prod/val
                        000003    6000  	equ	LN2556,*-DPDA-ST2556-1
                                  6001  "
                                  6002  " STATE 2560
                        005000    6003  	equ	ST2560,*-DPDA
    005506  aa   000000 000002    6004  	zero	STRD,LN2560
    005507  aa   000020 001575    6005  	zero	T16,ST893	"*
    005510  aa   000025 001605    6006  	zero	T21,ST901	"/
                        000002    6007  	equ	LN2560,*-DPDA-ST2560-1
                                  6008  "
                                  6009  " STATE 2563
                        005003    6010  	equ	ST2563,*-DPDA
    005511  aa   000004 000011    6011  	zero	APLY,LN2563
    005512  aa   000000 000000    6012  	zero	0,0   pd ld
    005513  aa   777333 000001    6013  	zero	-293,1   rule/alt
    005514  aa   000165 000703    6014  	zero	117,ST451 prod/val
    005515  aa   001613 002536    6015  	zero	ST907,ST1374
    005516  aa   001627 002557    6016  	zero	ST919,ST1391
    005517  aa   001634 002563    6017  	zero	ST924,ST1395
    005520  aa   003314 003666    6018  	zero	ST1740,ST1974
    005521  aa   003321 003672    6019  	zero	ST1745,ST1978
    005522  aa   004071 004215    6020  	zero	ST2105,ST2189
                        000011    6021  	equ	LN2563,*-DPDA-ST2563-1
                                  6022  "
                                  6023  " STATE 2573
                        005015    6024  	equ	ST2573,*-DPDA
    005523  aa   000000 000002    6025  	zero	STRD,LN2573
    005524  aa   000021 001606    6026  	zero	T17,ST902	"+
    005525  aa   000023 001607    6027  	zero	T19,ST903	"-
                        000002    6028  	equ	LN2573,*-DPDA-ST2573-1
                                  6029  "
                                  6030  " STATE 2576
                        005020    6031  	equ	ST2576,*-DPDA
    005526  aa   000006 000003    6032  	zero	APLYS,LN2576
    005527  aa   000000 000000    6033  	zero	0,0   pd ld
    005530  aa   777351 000001    6034  	zero	-279,1   rule/alt
    005531  aa   000163 000766    6035  	zero	115,ST502 prod/val
                        000003    6036  	equ	LN2576,*-DPDA-ST2576-1
                                  6037  "
                                  6038  " STATE 2580
                        005024    6039  	equ	ST2580,*-DPDA
    005532  aa   000000 000001    6040  	zero	STRD,LN2580
    005533  aa   000043 001610    6041  	zero	T35,ST904	"CONCATENATE
                        000001    6042  	equ	LN2580,*-DPDA-ST2580-1
                                  6043  "
                                  6044  " STATE 2582
                        005026    6045  	equ	ST2582,*-DPDA
    005534  aa   000006 000003    6046  	zero	APLYS,LN2582
    005535  aa   000001 000001    6047  	zero	1,1   pd ld
    005536  aa   000047 000001    6048  	zero	39,1   rule/alt
    005537  aa   000024 001153    6049  	zero	20,ST619 prod/val
                        000003    6050  	equ	LN2582,*-DPDA-ST2582-1
                                  6051  "
                                  6052  " STATE 2586
                        005032    6053  	equ	ST2586,*-DPDA
    005540  aa   000000 000001    6054  	zero	STRD,LN2586
    005541  aa   000043 001610    6055  	zero	T35,ST904	"CONCATENATE
                        000001    6056  	equ	LN2586,*-DPDA-ST2586-1
                                  6057  "
                                  6058  " STATE 2588
                        005034    6059  	equ	ST2588,*-DPDA
    005542  aa   000006 000003    6060  	zero	APLYS,LN2588
    005543  aa   000001 000001    6061  	zero	1,1   pd ld
    005544  aa   000046 000001    6062  	zero	38,1   rule/alt
    005545  aa   000024 001153    6063  	zero	20,ST619 prod/val
                        000003    6064  	equ	LN2588,*-DPDA-ST2588-1
                                  6065  "
                                  6066  " STATE 2592
                        005040    6067  	equ	ST2592,*-DPDA
    005546  aa   000000 000014    6068  	zero	STRD,LN2592
    005547  aa   000035 001724    6069  	zero	T29,ST980	"BEGINS
    005550  aa   000043 001610    6070  	zero	T35,ST904	"CONCATENATE
    005551  aa   000045 001747    6071  	zero	T37,ST999	"CONTAINS
    005552  aa   000062 001772    6072  	zero	T50,ST1018	"ENDS
    005553  aa   000063 002015    6073  	zero	T51,ST1037	"EQ
    005554  aa   000073 002021    6074  	zero	T59,ST1041	"GE
    005555  aa   000074 002025    6075  	zero	T60,ST1045	"GT
    005556  aa   000077 002031    6076  	zero	T63,ST1049	"IN
    005557  aa   000103 002033    6077  	zero	T67,ST1051	"LE
    005560  aa   000107 002037    6078  	zero	T71,ST1055	"LT
    005561  aa   000112 002043    6079  	zero	T74,ST1059	"NE
    005562  aa   000114 002047    6080  	zero	T76,ST1063	"NOT
                        000014    6081  	equ	LN2592,*-DPDA-ST2592-1
                                  6082  "
                                  6083  " STATE 2605
                        005055    6084  	equ	ST2605,*-DPDA
    005563  aa   000006 000003    6085  	zero	APLYS,LN2605
    005564  aa   000000 000000    6086  	zero	0,0   pd ld
    005565  aa   777366 000001    6087  	zero	-266,1   rule/alt
    005566  aa   000157 001300    6088  	zero	111,ST704 prod/val
                        000003    6089  	equ	LN2605,*-DPDA-ST2605-1
                                  6090  "
                                  6091  " STATE 2609
                        005061    6092  	equ	ST2609,*-DPDA
    005567  aa   000000 000001    6093  	zero	STRD,LN2609
    005570  aa   000031 002054    6094  	zero	T25,ST1068	"AND
                        000001    6095  	equ	LN2609,*-DPDA-ST2609-1
                                  6096  "
                                  6097  " STATE 2611
                        005063    6098  	equ	ST2611,*-DPDA
    005571  aa   000004 000021    6099  	zero	APLY,LN2611
    005572  aa   000000 000000    6100  	zero	0,0   pd ld
    005573  aa   777432 000001    6101  	zero	-230,1   rule/alt
    005574  aa   000144 001336    6102  	zero	100,ST734 prod/val
    005575  aa   001105 001620    6103  	zero	ST581,ST912
    005576  aa   001415 002117    6104  	zero	ST781,ST1103
    005577  aa   001611 002530    6105  	zero	ST905,ST1368
    005600  aa   001635 002567    6106  	zero	ST925,ST1399
    005601  aa   002602 003357    6107  	zero	ST1410,ST1775
    005602  aa   003172 003541    6108  	zero	ST1658,ST1889
    005603  aa   003254 003620    6109  	zero	ST1708,ST1936
    005604  aa   003503 003744    6110  	zero	ST1859,ST2020
    005605  aa   004005 004142    6111  	zero	ST2053,ST2146
    005606  aa   004145 004347    6112  	zero	ST2149,ST2279
    005607  aa   004146 004352    6113  	zero	ST2150,ST2282
    005610  aa   004221 004426    6114  	zero	ST2193,ST2326
    005611  aa   004342 004463    6115  	zero	ST2274,ST2355
    005612  aa   004362 004476    6116  	zero	ST2290,ST2366
                        000021    6117  	equ	LN2611,*-DPDA-ST2611-1
                                  6118  "
                                  6119  " STATE 2629
                        005105    6120  	equ	ST2629,*-DPDA
    005613  aa   000000 000001    6121  	zero	STRD,LN2629
    005614  aa   000152 002137    6122  	zero	T106,ST1119	",2
                        000001    6123  	equ	LN2629,*-DPDA-ST2629-1
                                  6124  "
                                  6125  " STATE 2631
                        005107    6126  	equ	ST2631,*-DPDA
    005615  aa   000005 000003    6127  	zero	APLY1,LN2631
    005616  aa   777777 777777    6128  	zero	-1,-1   pd ld
    005617  aa   777557 000001    6129  	zero	-145,1   rule/alt
    005620  aa   000077 002125    6130  	zero	63,ST1109 prod/val
                        000003    6131  	equ	LN2631,*-DPDA-ST2631-1
                                  6132  "
                                  6133  " STATE 2635
                        005113    6134  	equ	ST2635,*-DPDA
    005621  aa   000000 000001    6135  	zero	STRD,LN2635
    005622  aa   000076 002206    6136  	zero	T62,ST1158	"IF
                        000001    6137  	equ	LN2635,*-DPDA-ST2635-1
                                  6138  "
                                  6139  " STATE 2637
                        005115    6140  	equ	ST2637,*-DPDA
    005623  aa   000006 000003    6141  	zero	APLYS,LN2637
    005624  aa   000000 000000    6142  	zero	0,0   pd ld
    005625  aa   000161 000001    6143  	zero	113,1   rule/alt
    005626  aa   000054 004355    6144  	zero	44,ST2285 prod/val
                        000003    6145  	equ	LN2637,*-DPDA-ST2637-1
                                  6146  "
                                  6147  " STATE 2641
                        005121    6148  	equ	ST2641,*-DPDA
    005627  aa   000000 000002    6149  	zero	STRD,LN2641
    005630  aa   000043 001610    6150  	zero	T35,ST904	"CONCATENATE
    005631  aa   000115 002214    6151  	zero	T77,ST1164	"NUMBER
                        000002    6152  	equ	LN2641,*-DPDA-ST2641-1
                                  6153  "
                                  6154  " STATE 2644
                        005124    6155  	equ	ST2644,*-DPDA
    005632  aa   000006 000003    6156  	zero	APLYS,LN2644
    005633  aa   000001 000001    6157  	zero	1,1   pd ld
    005634  aa   000163 000001    6158  	zero	115,1   rule/alt
    005635  aa   000055 003173    6159  	zero	45,ST1659 prod/val
                        000003    6160  	equ	LN2644,*-DPDA-ST2644-1
                                  6161  "
                                  6162  " STATE 2648
                        005130    6163  	equ	ST2648,*-DPDA
    005636  aa   000000 000001    6164  	zero	STRD,LN2648
    005637  aa   000043 001610    6165  	zero	T35,ST904	"CONCATENATE
                        000001    6166  	equ	LN2648,*-DPDA-ST2648-1
                                  6167  "
                                  6168  " STATE 2650
                        005132    6169  	equ	ST2650,*-DPDA
    005640  aa   000006 000003    6170  	zero	APLYS,LN2650
    005641  aa   000001 000001    6171  	zero	1,1   pd ld
    005642  aa   000165 000001    6172  	zero	117,1   rule/alt
    005643  aa   000055 003173    6173  	zero	45,ST1659 prod/val
                        000003    6174  	equ	LN2650,*-DPDA-ST2650-1
                                  6175  "
                                  6176  " STATE 2654
                        005136    6177  	equ	ST2654,*-DPDA
    005644  aa   000000 000001    6178  	zero	STRD,LN2654
    005645  aa   000022 001566    6179  	zero	T18,ST886	",
                        000001    6180  	equ	LN2654,*-DPDA-ST2654-1
                                  6181  "
                                  6182  " STATE 2656
                        005140    6183  	equ	ST2656,*-DPDA
    005646  aa   000005 000003    6184  	zero	APLY1,LN2656
    005647  aa   000000 000000    6185  	zero	0,0   pd ld
    005650  aa   777751 000001    6186  	zero	-23,1   rule/alt
    005651  aa   000016 001564    6187  	zero	14,ST884 prod/val
                        000003    6188  	equ	LN2656,*-DPDA-ST2656-1
                                  6189  "
                                  6190  " STATE 2660
                        005144    6191  	equ	ST2660,*-DPDA
    005652  aa   000002 001176    6192  	zero	STRDS,ST638
                                  6193
                                  6194  "
                                  6195  " STATE 2661
                        005145    6196  	equ	ST2661,*-DPDA
    005653  aa   000004 000004    6197  	zero	APLY,LN2661
    005654  aa   000002 000002    6198  	zero	2,2   pd ld
    005655  aa   000011 000001    6199  	zero	9,1   rule/alt
    005656  aa   000007 000271    6200  	zero	7,ST185 prod/val
    005657  aa   000275 001164    6201  	zero	ST189,ST628
                        000004    6202  	equ	LN2661,*-DPDA-ST2661-1
                                  6203  "
                                  6204  " STATE 2666
                        005152    6205  	equ	ST2666,*-DPDA
    005660  aa   000000 000001    6206  	zero	STRD,LN2666
    005661  aa   000146 002666    6207  	zero	T102,ST1462	"WORD
                        000001    6208  	equ	LN2666,*-DPDA-ST2666-1
                                  6209  "
                                  6210  " STATE 2668
                        005154    6211  	equ	ST2668,*-DPDA
    005662  aa   000005 000003    6212  	zero	APLY1,LN2668
    005663  aa   000000 000000    6213  	zero	0,0   pd ld
    005664  aa   000366 000001    6214  	zero	246,1   rule/alt
    005665  aa   000151 001722    6215  	zero	105,ST978 prod/val
                        000003    6216  	equ	LN2668,*-DPDA-ST2668-1
                                  6217  "
                                  6218  " STATE 2672
                        005160    6219  	equ	ST2672,*-DPDA
    005666  aa   000000 000001    6220  	zero	STRD,LN2672
    005667  aa   000146 002672    6221  	zero	T102,ST1466	"WORD
                        000001    6222  	equ	LN2672,*-DPDA-ST2672-1
                                  6223  "
                                  6224  " STATE 2674
                        005162    6225  	equ	ST2674,*-DPDA
    005670  aa   000005 000003    6226  	zero	APLY1,LN2674
    005671  aa   000000 000000    6227  	zero	0,0   pd ld
    005672  aa   000372 000001    6228  	zero	250,1   rule/alt
    005673  aa   000151 001722    6229  	zero	105,ST978 prod/val
                        000003    6230  	equ	LN2674,*-DPDA-ST2674-1
                                  6231  "
                                  6232  " STATE 2678
                        005166    6233  	equ	ST2678,*-DPDA
    005674  aa   000000 000001    6234  	zero	STRD,LN2678
    005675  aa   000146 002676    6235  	zero	T102,ST1470	"WORD
                        000001    6236  	equ	LN2678,*-DPDA-ST2678-1
                                  6237  "
                                  6238  " STATE 2680
                        005170    6239  	equ	ST2680,*-DPDA
    005676  aa   000005 000003    6240  	zero	APLY1,LN2680
    005677  aa   000000 000000    6241  	zero	0,0   pd ld
    005700  aa   000370 000001    6242  	zero	248,1   rule/alt
    005701  aa   000151 001722    6243  	zero	105,ST978 prod/val
                        000003    6244  	equ	LN2680,*-DPDA-ST2680-1
                                  6245  "
                                  6246  " STATE 2684
                        005174    6247  	equ	ST2684,*-DPDA
    005702  aa   000000 000001    6248  	zero	STRD,LN2684
    005703  aa   000043 001610    6249  	zero	T35,ST904	"CONCATENATE
                        000001    6250  	equ	LN2684,*-DPDA-ST2684-1
                                  6251  "
                                  6252  " STATE 2686
                        005176    6253  	equ	ST2686,*-DPDA
    005704  aa   000006 000003    6254  	zero	APLYS,LN2686
    005705  aa   000000 000000    6255  	zero	0,0   pd ld
    005706  aa   777366 000001    6256  	zero	-266,1   rule/alt
    005707  aa   000157 001300    6257  	zero	111,ST704 prod/val
                        000003    6258  	equ	LN2686,*-DPDA-ST2686-1
                                  6259  "
                                  6260  " STATE 2690
                        005202    6261  	equ	ST2690,*-DPDA
    005710  aa   000000 000001    6262  	zero	STRD,LN2690
    005711  aa   000152 003051    6263  	zero	T106,ST1577	",2
                        000001    6264  	equ	LN2690,*-DPDA-ST2690-1
                                  6265  "
                                  6266  " STATE 2692
                        005204    6267  	equ	ST2692,*-DPDA
    005712  aa   000005 000003    6268  	zero	APLY1,LN2692
    005713  aa   000000 000000    6269  	zero	0,0   pd ld
    005714  aa   777560 000001    6270  	zero	-144,1   rule/alt
    005715  aa   000077 002125    6271  	zero	63,ST1109 prod/val
                        000003    6272  	equ	LN2692,*-DPDA-ST2692-1
                                  6273  "
                                  6274  " STATE 2696
                        005210    6275  	equ	ST2696,*-DPDA
    005716  aa   000000 000001    6276  	zero	STRD,LN2696
    005717  aa   000153 002173    6277  	zero	T107,ST1147	",3
                        000001    6278  	equ	LN2696,*-DPDA-ST2696-1
                                  6279  "
                                  6280  " STATE 2698
                        005212    6281  	equ	ST2698,*-DPDA
    005720  aa   000006 000003    6282  	zero	APLYS,LN2698
    005721  aa   000002 000002    6283  	zero	2,2   pd ld
    005722  aa   777605 000001    6284  	zero	-123,1   rule/alt
    005723  aa   000060 003130    6285  	zero	48,ST1624 prod/val
                        000003    6286  	equ	LN2698,*-DPDA-ST2698-1
                                  6287  "
                                  6288  " STATE 2702
                        005216    6289  	equ	ST2702,*-DPDA
    005724  aa   000000 000001    6290  	zero	STRD,LN2702
    005725  aa   000153 002173    6291  	zero	T107,ST1147	",3
                        000001    6292  	equ	LN2702,*-DPDA-ST2702-1
                                  6293  "
                                  6294  " STATE 2704
                        005220    6295  	equ	ST2704,*-DPDA
    005726  aa   000006 000003    6296  	zero	APLYS,LN2704
    005727  aa   000002 000002    6297  	zero	2,2   pd ld
    005730  aa   777606 000001    6298  	zero	-122,1   rule/alt
    005731  aa   000060 003130    6299  	zero	48,ST1624 prod/val
                        000003    6300  	equ	LN2704,*-DPDA-ST2704-1
                                  6301  "
                                  6302  " STATE 2708
                        005224    6303  	equ	ST2708,*-DPDA
    005732  aa   000000 000001    6304  	zero	STRD,LN2708
    005733  aa   000151 003207    6305  	zero	T105,ST1671	"<quoted_str>
                        000001    6306  	equ	LN2708,*-DPDA-ST2708-1
                                  6307  "
                                  6308  " STATE 2710
                        005226    6309  	equ	ST2710,*-DPDA
    005734  aa   000005 000003    6310  	zero	APLY1,LN2710
    005735  aa   000000 000000    6311  	zero	0,0   pd ld
    005736  aa   777640 000001    6312  	zero	-96,1   rule/alt
    005737  aa   000036 002254    6313  	zero	30,ST1196 prod/val
                        000003    6314  	equ	LN2710,*-DPDA-ST2710-1
                                  6315  "
                                  6316  " STATE 2714
                        005232    6317  	equ	ST2714,*-DPDA
    005740  aa   000000 000001    6318  	zero	STRD,LN2714
    005741  aa   000151 003215    6319  	zero	T105,ST1677	"<quoted_str>
                        000001    6320  	equ	LN2714,*-DPDA-ST2714-1
                                  6321  "
                                  6322  " STATE 2716
                        005234    6323  	equ	ST2716,*-DPDA
    005742  aa   000005 000003    6324  	zero	APLY1,LN2716
    005743  aa   000000 000000    6325  	zero	0,0   pd ld
    005744  aa   777644 000001    6326  	zero	-92,1   rule/alt
    005745  aa   000036 002254    6327  	zero	30,ST1196 prod/val
                        000003    6328  	equ	LN2716,*-DPDA-ST2716-1
                                  6329  "
                                  6330  " STATE 2720
                        005240    6331  	equ	ST2720,*-DPDA
    005746  aa   000000 000001    6332  	zero	STRD,LN2720
    005747  aa   000150 003223    6333  	zero	T104,ST1683	"<number>
                        000001    6334  	equ	LN2720,*-DPDA-ST2720-1
                                  6335  "
                                  6336  " STATE 2722
                        005242    6337  	equ	ST2722,*-DPDA
    005750  aa   000005 000003    6338  	zero	APLY1,LN2722
    005751  aa   000000 000000    6339  	zero	0,0   pd ld
    005752  aa   777650 000001    6340  	zero	-88,1   rule/alt
    005753  aa   000036 002254    6341  	zero	30,ST1196 prod/val
                        000003    6342  	equ	LN2722,*-DPDA-ST2722-1
                                  6343  "
                                  6344  " STATE 2726
                        005246    6345  	equ	ST2726,*-DPDA
    005754  aa   000000 000001    6346  	zero	STRD,LN2726
    005755  aa   000150 003231    6347  	zero	T104,ST1689	"<number>
                        000001    6348  	equ	LN2726,*-DPDA-ST2726-1
                                  6349  "
                                  6350  " STATE 2728
                        005250    6351  	equ	ST2728,*-DPDA
    005756  aa   000005 000003    6352  	zero	APLY1,LN2728
    005757  aa   000000 000000    6353  	zero	0,0   pd ld
    005760  aa   777654 000001    6354  	zero	-84,1   rule/alt
    005761  aa   000036 002254    6355  	zero	30,ST1196 prod/val
                        000003    6356  	equ	LN2728,*-DPDA-ST2728-1
                                  6357  "
                                  6358  " STATE 2732
                        005254    6359  	equ	ST2732,*-DPDA
    005762  aa   000000 000001    6360  	zero	STRD,LN2732
    005763  aa   000022 003244    6361  	zero	T18,ST1700	",
                        000001    6362  	equ	LN2732,*-DPDA-ST2732-1
                                  6363  "
                                  6364  " STATE 2734
                        005256    6365  	equ	ST2734,*-DPDA
    005764  aa   000005 000003    6366  	zero	APLY1,LN2734
    005765  aa   000000 000000    6367  	zero	0,0   pd ld
    005766  aa   777373 000001    6368  	zero	-261,1   rule/alt
    005767  aa   000154 002270    6369  	zero	108,ST1208 prod/val
                        000003    6370  	equ	LN2734,*-DPDA-ST2734-1
                                  6371  "
                                  6372  " STATE 2738
                        005262    6373  	equ	ST2738,*-DPDA
    005770  aa   000000 000001    6374  	zero	STRD,LN2738
    005771  aa   000022 003246    6375  	zero	T18,ST1702	",
                        000001    6376  	equ	LN2738,*-DPDA-ST2738-1
                                  6377  "
                                  6378  " STATE 2740
                        005264    6379  	equ	ST2740,*-DPDA
    005772  aa   000005 000003    6380  	zero	APLY1,LN2740
    005773  aa   000000 000000    6381  	zero	0,0   pd ld
    005774  aa   777374 000001    6382  	zero	-260,1   rule/alt
    005775  aa   000154 002270    6383  	zero	108,ST1208 prod/val
                        000003    6384  	equ	LN2740,*-DPDA-ST2740-1
                                  6385  "
                                  6386  " STATE 2744
                        005270    6387  	equ	ST2744,*-DPDA
    005776  aa   000000 000001    6388  	zero	STRD,LN2744
    005777  aa   000076 002323    6389  	zero	T62,ST1235	"IF
                        000001    6390  	equ	LN2744,*-DPDA-ST2744-1
                                  6391  "
                                  6392  " STATE 2746
                        005272    6393  	equ	ST2746,*-DPDA
    006000  aa   000006 000003    6394  	zero	APLYS,LN2746
    006001  aa   000002 000002    6395  	zero	2,2   pd ld
    006002  aa   000061 000001    6396  	zero	49,1   rule/alt
    006003  aa   000031 003623    6397  	zero	25,ST1939 prod/val
                        000003    6398  	equ	LN2746,*-DPDA-ST2746-1
                                  6399  "
                                  6400  " STATE 2750
                        005276    6401  	equ	ST2750,*-DPDA
    006004  aa   000002 005000    6402  	zero	STRDS,ST2560
                                  6403
                                  6404  "
                                  6405  " STATE 2751
                        005277    6406  	equ	ST2751,*-DPDA
    006005  aa   000006 000003    6407  	zero	APLYS,LN2751
    006006  aa   000002 000002    6408  	zero	2,2   pd ld
    006007  aa   000443 000001    6409  	zero	291,1   rule/alt
    006010  aa   000165 005003    6410  	zero	117,ST2563 prod/val
                        000003    6411  	equ	LN2751,*-DPDA-ST2751-1
                                  6412  "
                                  6413  " STATE 2755
                        005303    6414  	equ	ST2755,*-DPDA
    006011  aa   000002 005000    6415  	zero	STRDS,ST2560
                                  6416
                                  6417  "
                                  6418  " STATE 2756
                        005304    6419  	equ	ST2756,*-DPDA
    006012  aa   000006 000003    6420  	zero	APLYS,LN2756
    006013  aa   000002 000002    6421  	zero	2,2   pd ld
    006014  aa   000444 000001    6422  	zero	292,1   rule/alt
    006015  aa   000165 005003    6423  	zero	117,ST2563 prod/val
                        000003    6424  	equ	LN2756,*-DPDA-ST2756-1
                                  6425  "
                                  6426  " STATE 2760
                        005310    6427  	equ	ST2760,*-DPDA
    006016  aa   000000 000001    6428  	zero	STRD,LN2760
    006017  aa   000043 001610    6429  	zero	T35,ST904	"CONCATENATE
                        000001    6430  	equ	LN2760,*-DPDA-ST2760-1
                                  6431  "
                                  6432  " STATE 2762
                        005312    6433  	equ	ST2762,*-DPDA
    006020  aa   000006 000003    6434  	zero	APLYS,LN2762
    006021  aa   000001 000001    6435  	zero	1,1   pd ld
    006022  aa   000017 000001    6436  	zero	15,1   rule/alt
    006023  aa   000011 001651    6437  	zero	9,ST937 prod/val
                        000003    6438  	equ	LN2762,*-DPDA-ST2762-1
                                  6439  "
                                  6440  " STATE 2766
                        005316    6441  	equ	ST2766,*-DPDA
    006024  aa   000000 000001    6442  	zero	STRD,LN2766
    006025  aa   000043 001610    6443  	zero	T35,ST904	"CONCATENATE
                        000001    6444  	equ	LN2766,*-DPDA-ST2766-1
                                  6445  "
                                  6446  " STATE 2768
                        005320    6447  	equ	ST2768,*-DPDA
    006026  aa   000005 000003    6448  	zero	APLY1,LN2768
    006027  aa   000002 000002    6449  	zero	2,2   pd ld
    006030  aa   000365 000001    6450  	zero	245,1   rule/alt
    006031  aa   000150 001316    6451  	zero	104,ST718 prod/val
                        000003    6452  	equ	LN2768,*-DPDA-ST2768-1
                                  6453  "
                                  6454  " STATE 2772
                        005324    6455  	equ	ST2772,*-DPDA
    006032  aa   000000 000001    6456  	zero	STRD,LN2772
    006033  aa   000043 001610    6457  	zero	T35,ST904	"CONCATENATE
                        000001    6458  	equ	LN2772,*-DPDA-ST2772-1
                                  6459  "
                                  6460  " STATE 2774
                        005326    6461  	equ	ST2774,*-DPDA
    006034  aa   000005 000003    6462  	zero	APLY1,LN2774
    006035  aa   000002 000002    6463  	zero	2,2   pd ld
    006036  aa   000364 000001    6464  	zero	244,1   rule/alt
    006037  aa   000150 001316    6465  	zero	104,ST718 prod/val
                        000003    6466  	equ	LN2774,*-DPDA-ST2774-1
                                  6467  "
                                  6468  " STATE 2778
                        005332    6469  	equ	ST2778,*-DPDA
    006040  aa   000000 000001    6470  	zero	STRD,LN2778
    006041  aa   000043 001610    6471  	zero	T35,ST904	"CONCATENATE
                        000001    6472  	equ	LN2778,*-DPDA-ST2778-1
                                  6473  "
                                  6474  " STATE 2780
                        005334    6475  	equ	ST2780,*-DPDA
    006042  aa   000005 000003    6476  	zero	APLY1,LN2780
    006043  aa   000002 000002    6477  	zero	2,2   pd ld
    006044  aa   000363 000001    6478  	zero	243,1   rule/alt
    006045  aa   000150 001316    6479  	zero	104,ST718 prod/val
                        000003    6480  	equ	LN2780,*-DPDA-ST2780-1
                                  6481  "
                                  6482  " STATE 2784
                        005340    6483  	equ	ST2784,*-DPDA
    006046  aa   000000 000001    6484  	zero	STRD,LN2784
    006047  aa   000146 003402    6485  	zero	T102,ST1794	"WORD
                        000001    6486  	equ	LN2784,*-DPDA-ST2784-1
                                  6487  "
                                  6488  " STATE 2786
                        005342    6489  	equ	ST2786,*-DPDA
    006050  aa   000005 000003    6490  	zero	APLY1,LN2786
    006051  aa   000001 000001    6491  	zero	1,1   pd ld
    006052  aa   000367 000001    6492  	zero	247,1   rule/alt
    006053  aa   000151 001722    6493  	zero	105,ST978 prod/val
                        000003    6494  	equ	LN2786,*-DPDA-ST2786-1
                                  6495  "
                                  6496  " STATE 2790
                        005346    6497  	equ	ST2790,*-DPDA
    006054  aa   000000 000001    6498  	zero	STRD,LN2790
    006055  aa   000146 003406    6499  	zero	T102,ST1798	"WORD
                        000001    6500  	equ	LN2790,*-DPDA-ST2790-1
                                  6501  "
                                  6502  " STATE 2792
                        005350    6503  	equ	ST2792,*-DPDA
    006056  aa   000005 000003    6504  	zero	APLY1,LN2792
    006057  aa   000001 000001    6505  	zero	1,1   pd ld
    006060  aa   000373 000001    6506  	zero	251,1   rule/alt
    006061  aa   000151 001722    6507  	zero	105,ST978 prod/val
                        000003    6508  	equ	LN2792,*-DPDA-ST2792-1
                                  6509  "
                                  6510  " STATE 2796
                        005354    6511  	equ	ST2796,*-DPDA
    006062  aa   000000 000001    6512  	zero	STRD,LN2796
    006063  aa   000146 003412    6513  	zero	T102,ST1802	"WORD
                        000001    6514  	equ	LN2796,*-DPDA-ST2796-1
                                  6515  "
                                  6516  " STATE 2798
                        005356    6517  	equ	ST2798,*-DPDA
    006064  aa   000005 000003    6518  	zero	APLY1,LN2798
    006065  aa   000001 000001    6519  	zero	1,1   pd ld
    006066  aa   000371 000001    6520  	zero	249,1   rule/alt
    006067  aa   000151 001722    6521  	zero	105,ST978 prod/val
                        000003    6522  	equ	LN2798,*-DPDA-ST2798-1
                                  6523  "
                                  6524  " STATE 2802
                        005362    6525  	equ	ST2802,*-DPDA
    006070  aa   000000 000001    6526  	zero	STRD,LN2802
    006071  aa   000031 002054    6527  	zero	T25,ST1068	"AND
                        000001    6528  	equ	LN2802,*-DPDA-ST2802-1
                                  6529  "
                                  6530  " STATE 2804
                        005364    6531  	equ	ST2804,*-DPDA
    006072  aa   000006 000003    6532  	zero	APLYS,LN2804
    006073  aa   000002 000002    6533  	zero	2,2   pd ld
    006074  aa   000345 000001    6534  	zero	229,1   rule/alt
    006075  aa   000144 005063    6535  	zero	100,ST2611 prod/val
                        000003    6536  	equ	LN2804,*-DPDA-ST2804-1
                                  6537  "
                                  6538  " STATE 2808
                        005370    6539  	equ	ST2808,*-DPDA
    006076  aa   000002 002152    6540  	zero	STRDS,ST1130
                                  6541
                                  6542  "
                                  6543  " STATE 2809
                        005371    6544  	equ	ST2809,*-DPDA
    006077  aa   000006 000003    6545  	zero	APLYS,LN2809
    006100  aa   000002 000002    6546  	zero	2,2   pd ld
    006101  aa   000210 000001    6547  	zero	136,1   rule/alt
    006102  aa   000072 003466    6548  	zero	58,ST1846 prod/val
                        000003    6549  	equ	LN2809,*-DPDA-ST2809-1
                                  6550  "
                                  6551  " STATE 2813
                        005375    6552  	equ	ST2813,*-DPDA
    006103  aa   000000 000001    6553  	zero	STRD,LN2813
    006104  aa   000153 002173    6554  	zero	T107,ST1147	",3
                        000001    6555  	equ	LN2813,*-DPDA-ST2813-1
                                  6556  "
                                  6557  " STATE 2815
                        005377    6558  	equ	ST2815,*-DPDA
    006105  aa   000004 000005    6559  	zero	APLY,LN2815
    006106  aa   000000 000000    6560  	zero	0,0   pd ld
    006107  aa   777567 000001    6561  	zero	-137,1   rule/alt
    006110  aa   000073 003130    6562  	zero	59,ST1624 prod/val
    006111  aa   003465 003737    6563  	zero	ST1845,ST2015
    006112  aa   005370 003466    6564  	zero	ST2808,ST1846
                        000005    6565  	equ	LN2815,*-DPDA-ST2815-1
                                  6566  "
                                  6567  " STATE 2821
                        005405    6568  	equ	ST2821,*-DPDA
    006113  aa   000000 000004    6569  	zero	STRD,LN2821
    006114  aa   000021 003521    6570  	zero	T17,ST1873	"+
    006115  aa   000076 003523    6571  	zero	T62,ST1875	"IF
    006116  aa   000101 003525    6572  	zero	T65,ST1877	"PAUSE
    006117  aa   000150 003533    6573  	zero	T104,ST1883	"<number>
                        000004    6574  	equ	LN2821,*-DPDA-ST2821-1
                                  6575  "
                                  6576  " STATE 2826
                        005412    6577  	equ	ST2826,*-DPDA
    006120  aa   000005 000003    6578  	zero	APLY1,LN2826
    006121  aa   777777 777777    6579  	zero	-1,-1   pd ld
    006122  aa   777545 000001    6580  	zero	-155,1   rule/alt
    006123  aa   000104 003514    6581  	zero	68,ST1868 prod/val
                        000003    6582  	equ	LN2826,*-DPDA-ST2826-1
                                  6583  "
                                  6584  " STATE 2830
                        005416    6585  	equ	ST2830,*-DPDA
    006124  aa   000000 000001    6586  	zero	STRD,LN2830
    006125  aa   000145 003544    6587  	zero	T101,ST1892	"VARYING
                        000001    6588  	equ	LN2830,*-DPDA-ST2830-1
                                  6589  "
                                  6590  " STATE 2832
                        005420    6591  	equ	ST2832,*-DPDA
    006126  aa   000005 000003    6592  	zero	APLY1,LN2832
    006127  aa   000003 000003    6593  	zero	3,3   pd ld
    006130  aa   000116 000001    6594  	zero	78,1   rule/alt
    006131  aa   000035 000535    6595  	zero	29,ST349 prod/val
                        000003    6596  	equ	LN2832,*-DPDA-ST2832-1
                                  6597  "
                                  6598  " STATE 2836
                        005424    6599  	equ	ST2836,*-DPDA
    006132  aa   000000 000001    6600  	zero	STRD,LN2836
    006133  aa   000145 003560    6601  	zero	T101,ST1904	"VARYING
                        000001    6602  	equ	LN2836,*-DPDA-ST2836-1
                                  6603  "
                                  6604  " STATE 2838
                        005426    6605  	equ	ST2838,*-DPDA
    006134  aa   000005 000003    6606  	zero	APLY1,LN2838
    006135  aa   000003 000003    6607  	zero	3,3   pd ld
    006136  aa   000122 000001    6608  	zero	82,1   rule/alt
    006137  aa   000035 000535    6609  	zero	29,ST349 prod/val
                        000003    6610  	equ	LN2838,*-DPDA-ST2838-1
                                  6611  "
                                  6612  " STATE 2842
                        005432    6613  	equ	ST2842,*-DPDA
    006140  aa   000000 000001    6614  	zero	STRD,LN2842
    006141  aa   000076 002323    6615  	zero	T62,ST1235	"IF
                        000001    6616  	equ	LN2842,*-DPDA-ST2842-1
                                  6617  "
                                  6618  " STATE 2844
                        005434    6619  	equ	ST2844,*-DPDA
    006142  aa   000006 000003    6620  	zero	APLYS,LN2844
    006143  aa   000003 000003    6621  	zero	3,3   pd ld
    006144  aa   000056 000001    6622  	zero	46,1   rule/alt
    006145  aa   000031 003623    6623  	zero	25,ST1939 prod/val
                        000003    6624  	equ	LN2844,*-DPDA-ST2844-1
                                  6625  "
                                  6626  " STATE 2848
                        005440    6627  	equ	ST2848,*-DPDA
    006146  aa   000000 000001    6628  	zero	STRD,LN2848
    006147  aa   000076 001647    6629  	zero	T62,ST935	"IF
                        000001    6630  	equ	LN2848,*-DPDA-ST2848-1
                                  6631  "
                                  6632  " STATE 2850
                        005442    6633  	equ	ST2850,*-DPDA
    006150  aa   000006 000003    6634  	zero	APLYS,LN2850
    006151  aa   000003 000003    6635  	zero	3,3   pd ld
    006152  aa   000057 000001    6636  	zero	47,1   rule/alt
    006153  aa   000031 003623    6637  	zero	25,ST1939 prod/val
                        000003    6638  	equ	LN2850,*-DPDA-ST2850-1
                                  6639  "
                                  6640  " STATE 2854
                        005446    6641  	equ	ST2854,*-DPDA
    006154  aa   000000 000002    6642  	zero	STRD,LN2854
    006155  aa   000117 003652    6643  	zero	T79,ST1962	"OPTIONAL
    006156  aa   000127 003660    6644  	zero	T87,ST1968	"POSITION
                        000002    6645  	equ	LN2854,*-DPDA-ST2854-1
                                  6646  "
                                  6647  " STATE 2857
                        005451    6648  	equ	ST2857,*-DPDA
    006157  aa   000005 000003    6649  	zero	APLY1,LN2857
    006160  aa   000001 000001    6650  	zero	1,1   pd ld
    006161  aa   000101 000001    6651  	zero	65,1   rule/alt
    006162  aa   000032 002327    6652  	zero	26,ST1239 prod/val
                        000003    6653  	equ	LN2857,*-DPDA-ST2857-1
                                  6654  "
                                  6655  " STATE 2861
                        005455    6656  	equ	ST2861,*-DPDA
    006163  aa   000000 000001    6657  	zero	STRD,LN2861
    006164  aa   000153 002173    6658  	zero	T107,ST1147	",3
                        000001    6659  	equ	LN2861,*-DPDA-ST2861-1
                                  6660  "
                                  6661  " STATE 2863
                        005457    6662  	equ	ST2863,*-DPDA
    006165  aa   000006 000003    6663  	zero	APLYS,LN2863
    006166  aa   000002 000002    6664  	zero	2,2   pd ld
    006167  aa   777553 000001    6665  	zero	-149,1   rule/alt
    006170  aa   000070 003737    6666  	zero	56,ST2015 prod/val
                        000003    6667  	equ	LN2863,*-DPDA-ST2863-1
                                  6668  "
                                  6669  " STATE 2867
                        005463    6670  	equ	ST2867,*-DPDA
    006171  aa   000000 000001    6671  	zero	STRD,LN2867
    006172  aa   000153 002173    6672  	zero	T107,ST1147	",3
                        000001    6673  	equ	LN2867,*-DPDA-ST2867-1
                                  6674  "
                                  6675  " STATE 2869
                        005465    6676  	equ	ST2869,*-DPDA
    006173  aa   000006 000003    6677  	zero	APLYS,LN2869
    006174  aa   000002 000002    6678  	zero	2,2   pd ld
    006175  aa   777554 000001    6679  	zero	-148,1   rule/alt
    006176  aa   000070 003737    6680  	zero	56,ST2015 prod/val
                        000003    6681  	equ	LN2869,*-DPDA-ST2869-1
                                  6682  "
                                  6683  " STATE 2873
                        005471    6684  	equ	ST2873,*-DPDA
    006177  aa   000000 000001    6685  	zero	STRD,LN2873
    006200  aa   000153 002173    6686  	zero	T107,ST1147	",3
                        000001    6687  	equ	LN2873,*-DPDA-ST2873-1
                                  6688  "
                                  6689  " STATE 2875
                        005473    6690  	equ	ST2875,*-DPDA
    006201  aa   000006 000003    6691  	zero	APLYS,LN2875
    006202  aa   000001 000001    6692  	zero	1,1   pd ld
    006203  aa   777567 000002    6693  	zero	-137,2   rule/alt
    006204  aa   000073 005377    6694  	zero	59,ST2815 prod/val
                        000003    6695  	equ	LN2875,*-DPDA-ST2875-1
                                  6696  "
                                  6697  " STATE 2879
                        005477    6698  	equ	ST2879,*-DPDA
    006205  aa   000000 000001    6699  	zero	STRD,LN2879
    006206  aa   000154 003773    6700  	zero	T108,ST2043	",4
                        000001    6701  	equ	LN2879,*-DPDA-ST2879-1
                                  6702  "
                                  6703  " STATE 2881
                        005501    6704  	equ	ST2881,*-DPDA
    006207  aa   000005 000003    6705  	zero	APLY1,LN2881
    006210  aa   777777 777777    6706  	zero	-1,-1   pd ld
    006211  aa   777534 000001    6707  	zero	-164,1   rule/alt
    006212  aa   000106 003761    6708  	zero	70,ST2033 prod/val
                        000003    6709  	equ	LN2881,*-DPDA-ST2881-1
                                  6710  "
                                  6711  " STATE 2885
                        005505    6712  	equ	ST2885,*-DPDA
    006213  aa   000000 000001    6713  	zero	STRD,LN2885
    006214  aa   000076 004006    6714  	zero	T62,ST2054	"IF
                        000001    6715  	equ	LN2885,*-DPDA-ST2885-1
                                  6716  "
                                  6717  " STATE 2887
                        005507    6718  	equ	ST2887,*-DPDA
    006215  aa   000005 000003    6719  	zero	APLY1,LN2887
    006216  aa   000000 000000    6720  	zero	0,0   pd ld
    006217  aa   000242 000001    6721  	zero	162,1   rule/alt
    006220  aa   000105 003510    6722  	zero	69,ST1864 prod/val
                        000003    6723  	equ	LN2887,*-DPDA-ST2887-1
                                  6724  "
                                  6725  " STATE 2891
                        005513    6726  	equ	ST2891,*-DPDA
    006221  aa   000000 000001    6727  	zero	STRD,LN2891
    006222  aa   000076 004010    6728  	zero	T62,ST2056	"IF
                        000001    6729  	equ	LN2891,*-DPDA-ST2891-1
                                  6730  "
                                  6731  " STATE 2893
                        005515    6732  	equ	ST2893,*-DPDA
    006223  aa   000005 000003    6733  	zero	APLY1,LN2893
    006224  aa   000000 000000    6734  	zero	0,0   pd ld
    006225  aa   000236 000001    6735  	zero	158,1   rule/alt
    006226  aa   000105 003510    6736  	zero	69,ST1864 prod/val
                        000003    6737  	equ	LN2893,*-DPDA-ST2893-1
                                  6738  "
                                  6739  " STATE 2897
                        005521    6740  	equ	ST2897,*-DPDA
    006227  aa   000000 000001    6741  	zero	STRD,LN2897
    006230  aa   000076 001647    6742  	zero	T62,ST935	"IF
                        000001    6743  	equ	LN2897,*-DPDA-ST2897-1
                                  6744  "
                                  6745  " STATE 2899
                        005523    6746  	equ	ST2899,*-DPDA
    006231  aa   000006 000003    6747  	zero	APLYS,LN2899
    006232  aa   000004 000004    6748  	zero	4,4   pd ld
    006233  aa   000060 000001    6749  	zero	48,1   rule/alt
    006234  aa   000031 003623    6750  	zero	25,ST1939 prod/val
                        000003    6751  	equ	LN2899,*-DPDA-ST2899-1
                                  6752  "
                                  6753  " STATE 2903
                        005527    6754  	equ	ST2903,*-DPDA
    006235  aa   000000 000002    6755  	zero	STRD,LN2903
    006236  aa   000117 004026    6756  	zero	T79,ST2070	"OPTIONAL
    006237  aa   000127 004034    6757  	zero	T87,ST2076	"POSITION
                        000002    6758  	equ	LN2903,*-DPDA-ST2903-1
                                  6759  "
                                  6760  " STATE 2906
                        005532    6761  	equ	ST2906,*-DPDA
    006240  aa   000005 000003    6762  	zero	APLY1,LN2906
    006241  aa   000002 000002    6763  	zero	2,2   pd ld
    006242  aa   000106 000001    6764  	zero	70,1   rule/alt
    006243  aa   000032 002327    6765  	zero	26,ST1239 prod/val
                        000003    6766  	equ	LN2906,*-DPDA-ST2906-1
                                  6767  "
                                  6768  " STATE 2910
                        005536    6769  	equ	ST2910,*-DPDA
    006244  aa   000000 000001    6770  	zero	STRD,LN2910
    006245  aa   000127 004036    6771  	zero	T87,ST2078	"POSITION
                        000001    6772  	equ	LN2910,*-DPDA-ST2910-1
                                  6773  "
                                  6774  " STATE 2912
                        005540    6775  	equ	ST2912,*-DPDA
    006246  aa   000005 000003    6776  	zero	APLY1,LN2912
    006247  aa   000002 000002    6777  	zero	2,2   pd ld
    006250  aa   000102 000001    6778  	zero	66,1   rule/alt
    006251  aa   000032 002327    6779  	zero	26,ST1239 prod/val
                        000003    6780  	equ	LN2912,*-DPDA-ST2912-1
                                  6781  "
                                  6782  " STATE 2916
                        005544    6783  	equ	ST2916,*-DPDA
    006252  aa   000000 000001    6784  	zero	STRD,LN2916
    006253  aa   000154 003773    6785  	zero	T108,ST2043	",4
                        000001    6786  	equ	LN2916,*-DPDA-ST2916-1
                                  6787  "
                                  6788  " STATE 2918
                        005546    6789  	equ	ST2918,*-DPDA
    006254  aa   000005 000003    6790  	zero	APLY1,LN2918
    006255  aa   000000 000000    6791  	zero	0,0   pd ld
    006256  aa   777535 000001    6792  	zero	-163,1   rule/alt
    006257  aa   000106 003761    6793  	zero	70,ST2033 prod/val
                        000003    6794  	equ	LN2918,*-DPDA-ST2918-1
                                  6795  "
                                  6796  " STATE 2922
                        005552    6797  	equ	ST2922,*-DPDA
    006260  aa   000000 000001    6798  	zero	STRD,LN2922
    006261  aa   000076 004140    6799  	zero	T62,ST2144	"IF
                        000001    6800  	equ	LN2922,*-DPDA-ST2922-1
                                  6801  "
                                  6802  " STATE 2924
                        005554    6803  	equ	ST2924,*-DPDA
    006262  aa   000005 000003    6804  	zero	APLY1,LN2924
    006263  aa   000001 000001    6805  	zero	1,1   pd ld
    006264  aa   000237 000001    6806  	zero	159,1   rule/alt
    006265  aa   000105 003510    6807  	zero	69,ST1864 prod/val
                        000003    6808  	equ	LN2924,*-DPDA-ST2924-1
                                  6809  "
                                  6810  " STATE 2928
                        005560    6811  	equ	ST2928,*-DPDA
    006266  aa   000000 000002    6812  	zero	STRD,LN2928
    006267  aa   000117 004152    6813  	zero	T79,ST2154	"OPTIONAL
    006270  aa   000127 004160    6814  	zero	T87,ST2160	"POSITION
                        000002    6815  	equ	LN2928,*-DPDA-ST2928-1
                                  6816  "
                                  6817  " STATE 2931
                        005563    6818  	equ	ST2931,*-DPDA
    006271  aa   000005 000003    6819  	zero	APLY1,LN2931
    006272  aa   000003 000003    6820  	zero	3,3   pd ld
    006273  aa   000077 000001    6821  	zero	63,1   rule/alt
    006274  aa   000032 002327    6822  	zero	26,ST1239 prod/val
                        000003    6823  	equ	LN2931,*-DPDA-ST2931-1
                                  6824  "
                                  6825  " STATE 2935
                        005567    6826  	equ	ST2935,*-DPDA
    006275  aa   000000 000001    6827  	zero	STRD,LN2935
    006276  aa   000127 004162    6828  	zero	T87,ST2162	"POSITION
                        000001    6829  	equ	LN2935,*-DPDA-ST2935-1
                                  6830  "
                                  6831  " STATE 2937
                        005571    6832  	equ	ST2937,*-DPDA
    006277  aa   000005 000003    6833  	zero	APLY1,LN2937
    006300  aa   000003 000003    6834  	zero	3,3   pd ld
    006301  aa   000107 000001    6835  	zero	71,1   rule/alt
    006302  aa   000032 002327    6836  	zero	26,ST1239 prod/val
                        000003    6837  	equ	LN2937,*-DPDA-ST2937-1
                                  6838  "
                                  6839  " STATE 2941
                        005575    6840  	equ	ST2941,*-DPDA
    006303  aa   000000 000004    6841  	zero	STRD,LN2941
    006304  aa   000052 004174    6842  	zero	T42,ST2172	"DELIMITED
    006305  aa   000117 004176    6843  	zero	T79,ST2174	"OPTIONAL
    006306  aa   000127 004204    6844  	zero	T87,ST2180	"POSITION
    006307  aa   000156 004206    6845  	zero	T110,ST2182	"SPECIAL
                        000004    6846  	equ	LN2941,*-DPDA-ST2941-1
                                  6847  "
                                  6848  " STATE 2946
                        005602    6849  	equ	ST2946,*-DPDA
    006310  aa   000005 000003    6850  	zero	APLY1,LN2946
    006311  aa   000003 000003    6851  	zero	3,3   pd ld
    006312  aa   000063 000001    6852  	zero	51,1   rule/alt
    006313  aa   000032 002327    6853  	zero	26,ST1239 prod/val
                        000003    6854  	equ	LN2946,*-DPDA-ST2946-1
                                  6855  "
                                  6856  " STATE 2950
                        005606    6857  	equ	ST2950,*-DPDA
    006314  aa   000000 000015    6858  	zero	STRD,LN2950
    006315  aa   000030 004255    6859  	zero	T24,ST2221	"ALIGN
    006316  aa   000040 004257    6860  	zero	T32,ST2223	"CENTER
    006317  aa   000041 004264    6861  	zero	T33,ST2228	"CHARACTER
    006320  aa   000042 004266    6862  	zero	T34,ST2230	"COLUMN
    006321  aa   000043 001610    6863  	zero	T35,ST904	"CONCATENATE
    006322  aa   000060 004270    6864  	zero	T48,ST2232	"EDIT
    006323  aa   000066 004272    6865  	zero	T54,ST2234	"FILL
    006324  aa   000072 004314    6866  	zero	T58,ST2252	"FOLD
    006325  aa   000104 004320    6867  	zero	T68,ST2256	"LEFT
    006326  aa   000105 004324    6868  	zero	T69,ST2260	"LET
    006327  aa   000126 004330    6869  	zero	T86,ST2264	"PICTURE
    006330  aa   000136 004332    6870  	zero	T94,ST2266	"RIGHT
    006331  aa   000155 004336    6871  	zero	T109,ST2270	"BSP
                        000015    6872  	equ	LN2950,*-DPDA-ST2950-1
                                  6873  "
                                  6874  " STATE 2964
                        005624    6875  	equ	ST2964,*-DPDA
    006332  aa   000004 000004    6876  	zero	APLY,LN2964
    006333  aa   000001 000001    6877  	zero	1,1   pd ld
    006334  aa   000251 000001    6878  	zero	169,1   rule/alt
    006335  aa   000111 003747    6879  	zero	73,ST2023 prod/val
    006336  aa   005544 004134    6880  	zero	ST2916,ST2140
                        000004    6881  	equ	LN2964,*-DPDA-ST2964-1
                                  6882  "
                                  6883  " STATE 2969
                        005631    6884  	equ	ST2969,*-DPDA
    006337  aa   000000 000001    6885  	zero	STRD,LN2969
    006340  aa   000127 004363    6886  	zero	T87,ST2291	"POSITION
                        000001    6887  	equ	LN2969,*-DPDA-ST2969-1
                                  6888  "
                                  6889  " STATE 2971
                        005633    6890  	equ	ST2971,*-DPDA
    006341  aa   000005 000003    6891  	zero	APLY1,LN2971
    006342  aa   000004 000004    6892  	zero	4,4   pd ld
    006343  aa   000100 000001    6893  	zero	64,1   rule/alt
    006344  aa   000032 002327    6894  	zero	26,ST1239 prod/val
                        000003    6895  	equ	LN2971,*-DPDA-ST2971-1
                                  6896  "
                                  6897  " STATE 2975
                        005637    6898  	equ	ST2975,*-DPDA
    006345  aa   000000 000001    6899  	zero	STRD,LN2975
    006346  aa   000127 004404    6900  	zero	T87,ST2308	"POSITION
                        000001    6901  	equ	LN2975,*-DPDA-ST2975-1
                                  6902  "
                                  6903  " STATE 2977
                        005641    6904  	equ	ST2977,*-DPDA
    006347  aa   000005 000003    6905  	zero	APLY1,LN2977
    006350  aa   000004 000004    6906  	zero	4,4   pd ld
    006351  aa   000064 000001    6907  	zero	52,1   rule/alt
    006352  aa   000032 002327    6908  	zero	26,ST1239 prod/val
                        000003    6909  	equ	LN2977,*-DPDA-ST2977-1
                                  6910  "
                                  6911  " STATE 2981
                        005645    6912  	equ	ST2981,*-DPDA
    006353  aa   000000 000002    6913  	zero	STRD,LN2981
    006354  aa   000117 004412    6914  	zero	T79,ST2314	"OPTIONAL
    006355  aa   000127 004420    6915  	zero	T87,ST2320	"POSITION
                        000002    6916  	equ	LN2981,*-DPDA-ST2981-1
                                  6917  "
                                  6918  " STATE 2984
                        005650    6919  	equ	ST2984,*-DPDA
    006356  aa   000005 000003    6920  	zero	APLY1,LN2984
    006357  aa   000004 000004    6921  	zero	4,4   pd ld
    006360  aa   000067 000001    6922  	zero	55,1   rule/alt
    006361  aa   000032 002327    6923  	zero	26,ST1239 prod/val
                        000003    6924  	equ	LN2984,*-DPDA-ST2984-1
                                  6925  "
                                  6926  " STATE 2988
                        005654    6927  	equ	ST2988,*-DPDA
    006362  aa   000000 000014    6928  	zero	STRD,LN2988
    006363  aa   000030 004255    6929  	zero	T24,ST2221	"ALIGN
    006364  aa   000040 004257    6930  	zero	T32,ST2223	"CENTER
    006365  aa   000041 004264    6931  	zero	T33,ST2228	"CHARACTER
    006366  aa   000042 004266    6932  	zero	T34,ST2230	"COLUMN
    006367  aa   000060 004270    6933  	zero	T48,ST2232	"EDIT
    006370  aa   000066 004272    6934  	zero	T54,ST2234	"FILL
    006371  aa   000072 004314    6935  	zero	T58,ST2252	"FOLD
    006372  aa   000104 004320    6936  	zero	T68,ST2256	"LEFT
    006373  aa   000105 004324    6937  	zero	T69,ST2260	"LET
    006374  aa   000126 004330    6938  	zero	T86,ST2264	"PICTURE
    006375  aa   000136 004332    6939  	zero	T94,ST2266	"RIGHT
    006376  aa   000155 004336    6940  	zero	T109,ST2270	"BSP
                        000014    6941  	equ	LN2988,*-DPDA-ST2988-1
                                  6942  "
                                  6943  " STATE 3001
                        005671    6944  	equ	ST3001,*-DPDA
    006377  aa   000006 000003    6945  	zero	APLYS,LN3001
    006400  aa   000002 000002    6946  	zero	2,2   pd ld
    006401  aa   000250 000001    6947  	zero	168,1   rule/alt
    006402  aa   000111 005624    6948  	zero	73,ST2964 prod/val
                        000003    6949  	equ	LN3001,*-DPDA-ST3001-1
                                  6950  "
                                  6951  " STATE 3005
                        005675    6952  	equ	ST3005,*-DPDA
    006403  aa   000000 000001    6953  	zero	STRD,LN3005
    006404  aa   000016 004455    6954  	zero	T14,ST2349	"(
                        000001    6955  	equ	LN3005,*-DPDA-ST3005-1
                                  6956  "
                                  6957  " STATE 3007
                        005677    6958  	equ	ST3007,*-DPDA
    006405  aa   000006 000003    6959  	zero	APLYS,LN3007
    006406  aa   000000 000000    6960  	zero	0,0   pd ld
    006407  aa   000266 000001    6961  	zero	182,1   rule/alt
    006410  aa   000113 004257    6962  	zero	75,ST2223 prod/val
                        000003    6963  	equ	LN3007,*-DPDA-ST3007-1
                                  6964  "
                                  6965  " STATE 3011
                        005703    6966  	equ	ST3011,*-DPDA
    006411  aa   000000 000002    6967  	zero	STRD,LN3011
    006412  aa   000117 004505    6968  	zero	T79,ST2373	"OPTIONAL
    006413  aa   000127 004513    6969  	zero	T87,ST2379	"POSITION
                        000002    6970  	equ	LN3011,*-DPDA-ST3011-1
                                  6971  "
                                  6972  " STATE 3014
                        005706    6973  	equ	ST3014,*-DPDA
    006414  aa   000005 000003    6974  	zero	APLY1,LN3014
    006415  aa   000005 000005    6975  	zero	5,5   pd ld
    006416  aa   000065 000001    6976  	zero	53,1   rule/alt
    006417  aa   000032 002327    6977  	zero	26,ST1239 prod/val
                        000003    6978  	equ	LN3014,*-DPDA-ST3014-1
                                  6979  "
                                  6980  " STATE 3018
                        005712    6981  	equ	ST3018,*-DPDA
    006420  aa   000000 000001    6982  	zero	STRD,LN3018
    006421  aa   000127 004521    6983  	zero	T87,ST2385	"POSITION
                        000001    6984  	equ	LN3018,*-DPDA-ST3018-1
                                  6985  "
                                  6986  " STATE 3020
                        005714    6987  	equ	ST3020,*-DPDA
    006422  aa   000005 000003    6988  	zero	APLY1,LN3020
    006423  aa   000005 000005    6989  	zero	5,5   pd ld
    006424  aa   000070 000001    6990  	zero	56,1   rule/alt
    006425  aa   000032 002327    6991  	zero	26,ST1239 prod/val
                        000003    6992  	equ	LN3020,*-DPDA-ST3020-1
                                  6993  "
                                  6994  " STATE 3024
                        005720    6995  	equ	ST3024,*-DPDA
    006426  aa   000000 000001    6996  	zero	STRD,LN3024
    006427  aa   000127 004562    6997  	zero	T87,ST2418	"POSITION
                        000001    6998  	equ	LN3024,*-DPDA-ST3024-1
                                  6999  "
                                  7000  " STATE 3026
                        005722    7001  	equ	ST3026,*-DPDA
    006430  aa   000005 000003    7002  	zero	APLY1,LN3026
    006431  aa   000006 000006    7003  	zero	6,6   pd ld
    006432  aa   000066 000001    7004  	zero	54,1   rule/alt
    006433  aa   000032 002327    7005  	zero	26,ST1239 prod/val
                        000003    7006  	equ	LN3026,*-DPDA-ST3026-1
                        005726    7007  	equ	DPDAs,*-DPDA
                                  7008
                                  7009
    006434  aa   000001 000016    7010  	zero	1,14	"SKIP/ADJ
                                  7011
    006435  aa   000007 000002    7012  	zero	7,2	"SKIP/ADJ
                                  7013
    006436  aa   000166 000000    7014  	zero	118,0	"SKIP/ADJ
                                  7015
    006437  aa   000027 005732    7016  	zero	23,3034	"SKIP/ADJ
                                  7017
    006440  aa   000010 000012    7018  	zero	8,10	"SKIP/ADJ
                                  7019
    006441  aa   000100 000000    7020  	zero	64,0	"SKIP/ADJ
                                  7021
    006442  aa   000106 000000    7022  	zero	70,0	"SKIP/ADJ
                                  7023
    006443  aa   000456 000000    7024  	zero	302,0	"SKIP/ADJ
                                  7025
    006444  aa   003005 000000    7026  	zero	1541,0	"SKIP/ADJ
                                  7027
    006445  aa   003723 000000    7028  	zero	2003,0	"SKIP/ADJ
                                  7029
    006446  aa   004541 000000    7030  	zero	2401,0	"SKIP/ADJ
                                  7031
    006447  aa   004652 000000    7032  	zero	2474,0	"SKIP/ADJ
                                  7033
    006450  aa   004735 000000    7034  	zero	2525,0	"SKIP/ADJ
                                  7035
    006451  aa   004742 000000    7036  	zero	2530,0	"SKIP/ADJ
                                  7037
    006452  aa   004750 000000    7038  	zero	2536,0	"SKIP/ADJ
                                  7039
                                  7040  	end

NO LITERALS

NAME DEFINITIONS FOR ENTRY POINTS AND SEGDEFS

    006454  5a   000003 000000
    006455  5a   000036 600000
    006456  aa   000000 000000
    006457  55   000012 000002
    006460  5a   000002 400003
    006461  55   000006 000012
    006462  aa  014 155 162 160
    006463  aa  147 137 164 141
    006464  aa  142 154 145 163
    006465  aa  137 000 000 000
    006466  55   000017 000003
    006467  0a   000506 400000
    006470  55   000015 000003
    006471  aa  004 104 120 104         DPDA
    006472  aa  101 000 000 000
    006473  55   000023 000012
    006474  0a   000317 400000
    006475  55   000022 000003
    006476  aa  002 124 114 000         TL
    006477  55   000027 000017
    006500  0a   000000 400000
    006501  55   000026 000003
    006502  aa  002 124 103 000         TC
    006503  55   000002 000023
    006504  6a   000000 400002
    006505  55   000032 000003
    006506  aa  014 163 171 155         symbol_table
    006507  aa  142 157 154 137
    006510  aa  164 141 142 154
    006511  aa  145 000 000 000

DEFINITIONS HASH TABLE

    006512  aa   000000 000015
    006513  5a   000017 000000
    006514  aa   000000 000000
    006515  aa   000000 000000
    006516  5a   000012 000000
    006517  aa   000000 000000
    006520  aa   000000 000000
    006521  5a   000027 000000
    006522  5a   000023 000000
    006523  aa   000000 000000
    006524  aa   000000 000000
    006525  aa   000000 000000
    006526  aa   000000 000000
    006527  aa   000000 000000

NO EXTERNAL NAMES

NO TRAP POINTER WORDS

TYPE PAIR BLOCKS

    006530  aa   000001 000000
    006531  aa   000000 000000

INTERNAL EXPRESSION WORDS

LINKAGE INFORMATION

    000000  aa   000000 000000
    000001  0a   006454 000000
    000002  aa   000000 000000
    000003  aa   000000 000000
    000004  aa   000000 000000
    000005  aa   000000 000000
    000006  22   000010 000010
    000007  a2   000000 000000
SYMBOL INFORMATION

SYMBOL TABLE HEADER

    000000  aa   000000 000001
    000001  aa   163171 155142
    000002  aa   164162 145145
    000003  aa   000000 000004
    000004  aa   000000 106730
    000005  aa   414344 011300
    000006  aa   000000 107147
    000007  aa   072165 252752
    000010  aa   141154 155040
    000011  aa   040040 040040
    000012  aa   000024 000040
    000013  aa   000034 000040
    000014  aa   000044 000100
    000015  aa   000002 000002
    000016  aa   000064 000000
    000017  aa   000000 000413
    000020  aa   000000 000104
    000021  aa   000000 000402
    000022  aa   000405 000104
    000023  aa   000064 000000
    000024  aa   101114 115040
    000025  aa   126145 162163
    000026  aa   151157 156040
    000027  aa   066056 062054
    000030  aa   040112 165156
    000031  aa   145040 061071
    000032  aa   067071 040040
    000033  aa   040040 040040
    000034  aa   115141 162164
    000035  aa   151156 163157
    000036  aa   156056 123171
    000037  aa   163115 141151
    000040  aa   156164 056141
    000041  aa   040040 040040
    000042  aa   040040 040040
    000043  aa   040040 040040
    000044  aa   154151 163164
    000045  aa   040040 040040
    000046  aa   040040 040040
    000047  aa   040040 040040
    000050  aa   040040 040040
    000051  aa   040040 040040
    000052  aa   040040 040040
    000053  aa   040040 040040
    000054  aa   040040 040040
    000055  aa   040040 040040
    000056  aa   040040 040040
    000057  aa   040040 040040
    000060  aa   040040 040040
    000061  aa   040040 040040
    000062  aa   040040 040040
    000063  aa   040040 040040
    000064  aa   000000 000001
    000065  aa   000000 000001
    000066  aa   000072 000046
    000067  aa   071467 074313
    000070  aa   000000 107147
    000071  aa   072166 200000
    000072  aa   076163 160145          >spec>online>mrpg0520>mrpg_tables_.alm
    000073  aa   143076 157156
    000074  aa   154151 156145
    000075  aa   076155 162160
    000076  aa   147060 065062
    000077  aa   060076 155162
    000100  aa   160147 137164
    000101  aa   141142 154145
    000102  aa   163137 056141
    000103  aa   154155 040040
               MULTICS ASSEMBLY CROSS REFERENCE LISTING

   Value        Symbol                   Source file   Line number

          10    ADJUST                   mrpg_tables_:        18.
           4    APLY                     mrpg_tables_:        14, 1090, 1509, 1520, 1614, 1679, 1808, 1818, 1828, 1950, 1959,
                                                            1979, 2175, 2260, 2332, 2341, 2366, 2568, 2802, 2825, 3199, 3402,
                                                            3937, 4034, 4056, 4127, 4409, 4530, 4664, 4673, 4682, 4691, 4723,
                                                            4875, 4913, 5291, 5413, 5639, 5680, 6011, 6099, 6197, 6559, 6876.
           5    APLY1                    mrpg_tables_:        15, 1188, 1212, 1220, 1263, 1278, 1352, 1425, 1447, 1461, 1469,
                                                            1483, 1636, 1644, 1743, 1757, 1777, 1785, 2031, 2039, 2047, 2055,
                                                            2069, 2077, 2085, 2093, 2132, 2192, 2206, 2224, 2232, 2246, 2285,
                                                            2301, 2399, 2482, 2490, 2498, 2537, 2545, 2553, 2629, 2657, 2665,
                                                            2834, 2880, 2901, 2993, 3001, 3009, 3023, 3031, 3039, 3076, 3151,
                                                            3159, 3182, 3272, 3287, 3302, 3317, 3370, 3378, 3386, 3394, 3621,
                                                            3674, 3687, 3722, 3730, 3774, 3782, 3790, 3798, 3949, 3965, 3991,
                                                            3999, 4007, 4043, 4106, 4143, 4157, 4171, 4185, 4232, 4251, 4317,
                                                            4330, 4394, 4418, 4426, 4434, 4442, 4455, 4477, 4485, 4493, 4501,
                                                            4547, 4568, 4624, 4656, 4700, 4708, 4732, 4891, 4927, 5008, 5029,
                                                            5037, 5045, 5064, 5086, 5116, 5180, 5188, 5256, 5356, 5391, 5433,
                                                            5441, 5466, 5490, 5511, 5570, 5578, 5593, 5617, 5631, 5672, 5696,
                                                            5704, 5734, 5762, 5781, 5798, 5811, 5825, 5838, 5852, 5874, 5930,
                                                            5944, 5958, 5972, 5996, 6127, 6184, 6212, 6226, 6240, 6268, 6310,
                                                            6324, 6338, 6352, 6366, 6380, 6448, 6462, 6476, 6490, 6504, 6518,
                                                            6578, 6592, 6606, 6649, 6705, 6719, 6733, 6762, 6776, 6790, 6804,
                                                            6819, 6833, 6850, 6891, 6905, 6920, 6974, 6988, 7002.
           6    APLYS                    mrpg_tables_:        16, 1122, 1142, 1156, 1174, 1557, 1606, 1688, 1696, 1721, 1729,
                                                            1999, 2140, 2148, 2156, 2184, 2269, 2277, 2350, 2358, 2419, 2455,
                                                            2474, 2577, 2771, 2784, 2866, 3115, 3123, 3232, 3252, 3411, 3454,
                                                            3462, 3584, 3635, 3666, 3881, 4065, 4085, 4114, 4338, 4346, 4469,
                                                            4560, 4811, 4825, 4833, 4841, 4867, 5078, 5242, 5340, 5348, 5370,
                                                            5378, 5519, 5533, 5541, 5555, 5712, 5720, 5748, 5888, 5902, 5917,
                                                            6032, 6046, 6060, 6085, 6141, 6156, 6170, 6254, 6282, 6296, 6394,
                                                            6407, 6420, 6434, 6532, 6545, 6620, 6634, 6663, 6677, 6691, 6747,
                                                            6945, 6959.
         506    DPDA                     mrpg_tables_:      1076, 1077, 1080, 1086, 1089, 1095, 1098, 1112, 1115, 1118, 1121,
                                                            1126, 1129, 1138, 1141, 1146, 1149, 1152, 1155, 1160, 1163, 1170,
                                                            1173, 1178, 1181, 1184, 1187, 1192, 1195, 1202, 1205, 1208, 1211,
                                                            1216, 1219, 1224, 1227, 1231, 1234, 1237, 1240, 1243, 1246, 1259,
                                                            1262, 1267, 1270, 1274, 1277, 1282, 1285, 1294, 1297, 1300, 1303,
                                                            1306, 1309, 1312, 1315, 1318, 1321, 1326, 1329, 1332, 1335, 1338,
                                                            1341, 1348, 1351, 1356, 1359, 1366, 1369, 1372, 1375, 1394, 1397,
                                                            1402, 1410, 1413, 1421, 1424, 1429, 1432, 1437, 1440, 1443, 1446,
                                                            1451, 1454, 1457, 1460, 1465, 1468, 1473, 1476, 1479, 1482, 1487,
                                                            1490, 1495, 1498, 1505, 1508, 1516, 1519, 1526, 1529, 1542, 1545,
                                                            1553, 1556, 1561, 1564, 1590, 1593, 1596, 1599, 1602, 1605, 1610,
                                                            1613, 1619, 1622, 1626, 1629, 1632, 1635, 1640, 1643, 1648, 1651,
                                                            1654, 1657, 1660, 1663, 1668, 1671, 1675, 1678, 1684, 1687, 1692,
                                                            1695, 1700, 1703, 1707, 1710, 1715, 1720, 1725, 1728, 1733, 1736,
                                                            1739, 1742, 1747, 1750, 1753, 1756, 1761, 1764, 1767, 1770, 1773,
                                                            1776, 1781, 1784, 1789, 1792, 1797, 1800, 1804, 1807, 1814, 1817,
                                                            1824, 1827, 1834, 1837, 1891, 1894, 1946, 1949, 1955, 1958, 1964,
                                                            1967, 1975, 1978, 1995, 1998, 2003, 2006, 2009, 2012, 2015, 2018,
                                                            2021, 2024, 2027, 2030, 2035, 2038, 2043, 2046, 2051, 2054, 2059,
                                                            2062, 2065, 2068, 2073, 2076, 2081, 2084, 2089, 2092, 2097, 2100,
                                                            2105, 2112, 2115, 2122, 2125, 2128, 2131, 2136, 2139, 2144, 2147,
                                                            2152, 2155, 2160, 2163, 2171, 2174, 2180, 2183, 2188, 2191, 2196,
                                                            2199, 2202, 2205, 2210, 2213, 2220, 2223, 2228, 2231, 2236, 2239,
                                                            2242, 2245, 2250, 2253, 2256, 2259, 2265, 2268, 2273, 2276, 2281,
                                                            2284, 2289, 2292, 2297, 2300, 2305, 2308, 2328, 2331, 2337, 2340,
                                                            2346, 2349, 2354, 2357, 2362, 2365, 2371, 2374, 2382, 2385, 2389,
                                                            2392, 2395, 2398, 2403, 2406, 2409, 2412, 2415, 2418, 2423, 2426,
                                                            2451, 2454, 2459, 2462, 2465, 2468, 2473, 2478, 2481, 2486, 2489,
                                                            2494, 2497, 2502, 2505, 2509, 2512, 2515, 2518, 2521, 2524, 2527,
                                                            2530, 2533, 2536, 2541, 2544, 2549, 2552, 2557, 2560, 2564, 2567,
                                                            2573, 2576, 2581, 2584, 2588, 2591, 2594, 2597, 2610, 2613, 2625,
                                                            2628, 2633, 2636, 2639, 2642, 2646, 2649, 2653, 2656, 2661, 2664,
                                                            2669, 2672, 2676, 2679, 2682, 2685, 2688, 2691, 2694, 2697, 2701,
                                                            2704, 2713, 2716, 2721, 2726, 2731, 2736, 2741, 2746, 2751, 2756,
                                                            2760, 2763, 2767, 2770, 2775, 2778, 2783, 2788, 2791, 2796, 2801,
                                                            2808, 2811, 2815, 2818, 2821, 2824, 2830, 2833, 2838, 2841, 2851,
                                                            2854, 2857, 2860, 2865, 2870, 2873, 2876, 2879, 2884, 2887, 2890,
                                                            2893, 2897, 2900, 2905, 2908, 2913, 2918, 2923, 2943, 2946, 2966,
                                                            2969, 2989, 2992, 2997, 3000, 3005, 3008, 3013, 3016, 3019, 3022,
                                                            3027, 3030, 3035, 3038, 3043, 3046, 3052, 3055, 3060, 3067, 3070,
                                                            3075, 3080, 3083, 3086, 3089, 3093, 3096, 3099, 3102, 3111, 3114,
                                                            3119, 3122, 3127, 3130, 3134, 3137, 3141, 3144, 3147, 3150, 3155,
                                                            3158, 3163, 3166, 3172, 3175, 3178, 3181, 3186, 3189, 3195, 3198,
                                                            3208, 3211, 3215, 3218, 3221, 3224, 3228, 3231, 3236, 3239, 3242,
                                                            3245, 3248, 3251, 3256, 3259, 3262, 3265, 3268, 3271, 3276, 3279,
                                                            3283, 3286, 3291, 3294, 3298, 3301, 3306, 3309, 3313, 3316, 3321,
                                                            3324, 3328, 3331, 3334, 3337, 3340, 3343, 3346, 3349, 3353, 3356,
                                                            3360, 3363, 3366, 3369, 3374, 3377, 3382, 3385, 3390, 3393, 3398,
                                                            3401, 3407, 3410, 3415, 3418, 3421, 3424, 3427, 3430, 3436, 3439,
                                                            3444, 3447, 3450, 3453, 3458, 3461, 3466, 3469, 3523, 3526, 3580,
                                                            3583, 3588, 3591, 3595, 3598, 3602, 3605, 3610, 3613, 3617, 3620,
                                                            3625, 3628, 3631, 3634, 3639, 3642, 3647, 3650, 3655, 3658, 3662,
                                                            3665, 3670, 3673, 3678, 3681, 3686, 3691, 3694, 3698, 3701, 3712,
                                                            3715, 3718, 3721, 3726, 3729, 3734, 3737, 3746, 3749, 3758, 3761,
                                                            3770, 3773, 3778, 3781, 3786, 3789, 3794, 3797, 3802, 3805, 3825,
                                                            3828, 3848, 3851, 3871, 3874, 3877, 3880, 3885, 3888, 3898, 3901,
                                                            3909, 3912, 3915, 3918, 3921, 3924, 3927, 3930, 3933, 3936, 3945,
                                                            3948, 3953, 3956, 3961, 3964, 3969, 3972, 3975, 3978, 3981, 3984,
                                                            3987, 3990, 3995, 3998, 4003, 4006, 4011, 4014, 4022, 4025, 4030,
                                                            4033, 4039, 4042, 4047, 4050, 4055, 4061, 4064, 4069, 4072, 4075,
                                                            4078, 4081, 4084, 4089, 4092, 4102, 4105, 4110, 4113, 4118, 4121,
                                                            4126, 4132, 4135, 4139, 4142, 4147, 4150, 4153, 4156, 4161, 4164,
                                                            4167, 4170, 4175, 4178, 4181, 4184, 4189, 4192, 4195, 4198, 4202,
                                                            4205, 4209, 4212, 4216, 4219, 4222, 4225, 4228, 4231, 4236, 4239,
                                                            4244, 4247, 4250, 4255, 4258, 4264, 4267, 4273, 4276, 4279, 4282,
                                                            4285, 4288, 4296, 4299, 4302, 4305, 4308, 4311, 4316, 4321, 4324,
                                                            4329, 4334, 4337, 4342, 4345, 4350, 4353, 4371, 4374, 4378, 4381,
                                                            4384, 4387, 4390, 4393, 4398, 4401, 4405, 4408, 4414, 4417, 4422,
                                                            4425, 4430, 4433, 4438, 4441, 4446, 4449, 4454, 4459, 4462, 4465,
                                                            4468, 4473, 4476, 4481, 4484, 4489, 4492, 4497, 4500, 4505, 4508,
                                                            4513, 4516, 4521, 4524, 4529, 4535, 4538, 4543, 4546, 4551, 4554,
                                                            4559, 4564, 4567, 4572, 4575, 4581, 4584, 4587, 4590, 4593, 4596,
                                                            4603, 4606, 4613, 4616, 4620, 4623, 4628, 4631, 4634, 4637, 4640,
                                                            4643, 4646, 4649, 4652, 4655, 4660, 4663, 4669, 4672, 4678, 4681,
                                                            4687, 4690, 4696, 4699, 4704, 4707, 4712, 4715, 4719, 4722, 4728,
                                                            4731, 4736, 4739, 4745, 4748, 4751, 4754, 4762, 4765, 4772, 4775,
                                                            4778, 4781, 4784, 4787, 4790, 4793, 4798, 4801, 4807, 4810, 4815,
                                                            4818, 4821, 4824, 4829, 4832, 4837, 4840, 4845, 4848, 4851, 4854,
                                                            4863, 4866, 4871, 4874, 4880, 4883, 4887, 4890, 4895, 4898, 4903,
                                                            4909, 4912, 4923, 4926, 4931, 4934, 4941, 4944, 4949, 4952, 4955,
                                                            4958, 4961, 4964, 4967, 4971, 4974, 4982, 4985, 4992, 4995, 4998,
                                                            5001, 5004, 5007, 5012, 5015, 5025, 5028, 5033, 5036, 5041, 5044,
                                                            5049, 5052, 5057, 5060, 5063, 5068, 5071, 5074, 5077, 5082, 5085,
                                                            5090, 5093, 5112, 5115, 5120, 5123, 5126, 5129, 5133, 5136, 5141,
                                                            5146, 5151, 5154, 5157, 5164, 5167, 5170, 5173, 5176, 5179, 5184,
                                                            5187, 5192, 5195, 5198, 5201, 5208, 5211, 5214, 5217, 5225, 5228,
                                                            5233, 5236, 5241, 5246, 5249, 5252, 5255, 5260, 5263, 5281, 5284,
                                                            5287, 5290, 5296, 5299, 5302, 5305, 5308, 5311, 5314, 5317, 5336,
                                                            5339, 5344, 5347, 5352, 5355, 5360, 5363, 5366, 5369, 5374, 5377,
                                                            5382, 5385, 5390, 5395, 5398, 5402, 5405, 5409, 5412, 5418, 5421,
                                                            5426, 5429, 5432, 5437, 5440, 5445, 5448, 5456, 5459, 5462, 5465,
                                                            5470, 5473, 5480, 5483, 5486, 5489, 5494, 5497, 5501, 5504, 5507,
                                                            5510, 5515, 5518, 5523, 5526, 5529, 5532, 5537, 5540, 5545, 5548,
                                                            5551, 5554, 5559, 5562, 5566, 5569, 5574, 5577, 5582, 5585, 5589,
                                                            5592, 5597, 5600, 5607, 5610, 5613, 5616, 5621, 5624, 5627, 5630,
                                                            5635, 5638, 5649, 5652, 5656, 5659, 5662, 5665, 5668, 5671, 5676,
                                                            5679, 5686, 5689, 5692, 5695, 5700, 5703, 5708, 5711, 5716, 5719,
                                                            5724, 5727, 5730, 5733, 5738, 5741, 5744, 5747, 5752, 5755, 5758,
                                                            5761, 5766, 5769, 5777, 5780, 5785, 5788, 5794, 5797, 5802, 5805,
                                                            5810, 5815, 5818, 5821, 5824, 5829, 5832, 5837, 5842, 5845, 5848,
                                                            5851, 5856, 5859, 5865, 5868, 5873, 5878, 5881, 5884, 5887, 5892,
                                                            5895, 5898, 5901, 5906, 5909, 5913, 5916, 5921, 5924, 5929, 5934,
                                                            5937, 5940, 5943, 5948, 5951, 5954, 5957, 5962, 5965, 5968, 5971,
                                                            5976, 5979, 5985, 5988, 5992, 5995, 6000, 6003, 6007, 6010, 6021,
                                                            6024, 6028, 6031, 6036, 6039, 6042, 6045, 6050, 6053, 6056, 6059,
                                                            6064, 6067, 6081, 6084, 6089, 6092, 6095, 6098, 6117, 6120, 6123,
                                                            6126, 6131, 6134, 6137, 6140, 6145, 6148, 6152, 6155, 6160, 6163,
                                                            6166, 6169, 6174, 6177, 6180, 6183, 6188, 6191, 6196, 6202, 6205,
                                                            6208, 6211, 6216, 6219, 6222, 6225, 6230, 6233, 6236, 6239, 6244,
                                                            6247, 6250, 6253, 6258, 6261, 6264, 6267, 6272, 6275, 6278, 6281,
                                                            6286, 6289, 6292, 6295, 6300, 6303, 6306, 6309, 6314, 6317, 6320,
                                                            6323, 6328, 6331, 6334, 6337, 6342, 6345, 6348, 6351, 6356, 6359,
                                                            6362, 6365, 6370, 6373, 6376, 6379, 6384, 6387, 6390, 6393, 6398,
                                                            6401, 6406, 6411, 6414, 6419, 6424, 6427, 6430, 6433, 6438, 6441,
                                                            6444, 6447, 6452, 6455, 6458, 6461, 6466, 6469, 6472, 6475, 6480,
                                                            6483, 6486, 6489, 6494, 6497, 6500, 6503, 6508, 6511, 6514, 6517,
                                                            6522, 6525, 6528, 6531, 6536, 6539, 6544, 6549, 6552, 6555, 6558,
                                                            6565, 6568, 6574, 6577, 6582, 6585, 6588, 6591, 6596, 6599, 6602,
                                                            6605, 6610, 6613, 6616, 6619, 6624, 6627, 6630, 6633, 6638, 6641,
                                                            6645, 6648, 6653, 6656, 6659, 6662, 6667, 6670, 6673, 6676, 6681,
                                                            6684, 6687, 6690, 6695, 6698, 6701, 6704, 6709, 6712, 6715, 6718,
                                                            6723, 6726, 6729, 6732, 6737, 6740, 6743, 6746, 6751, 6754, 6758,
                                                            6761, 6766, 6769, 6772, 6775, 6780, 6783, 6786, 6789, 6794, 6797,
                                                            6800, 6803, 6808, 6811, 6815, 6818, 6823, 6826, 6829, 6832, 6837,
                                                            6840, 6846, 6849, 6854, 6857, 6872, 6875, 6881, 6884, 6887, 6890,
                                                            6895, 6898, 6901, 6904, 6909, 6912, 6916, 6919, 6924, 6927, 6941,
                                                            6944, 6949, 6952, 6955, 6958, 6963, 6966, 6970, 6973, 6978, 6981,
                                                            6984, 6987, 6992, 6995, 6998, 7001, 7006, 7007.
        5726    DPDAs                    mrpg_tables_:      1076, 7007.
           4    LN1                      mrpg_tables_:      1081, 1086.
          22    LN1018                   mrpg_tables_:      2970, 2989.
           2    LN103                    mrpg_tables_:      1271, 1274.
           3    LN1037                   mrpg_tables_:      2993, 2997.
           3    LN1041                   mrpg_tables_:      3001, 3005.
           3    LN1045                   mrpg_tables_:      3009, 3013.
           1    LN1049                   mrpg_tables_:      3017, 3019.
           3    LN1051                   mrpg_tables_:      3023, 3027.
           3    LN1055                   mrpg_tables_:      3031, 3035.
           3    LN1059                   mrpg_tables_:      3039, 3043.
           3    LN106                    mrpg_tables_:      1278, 1282.
           4    LN1063                   mrpg_tables_:      3047, 3052.
           5    LN1069                   mrpg_tables_:      3061, 3067.
           3    LN1076                   mrpg_tables_:      3076, 3080.
           1    LN1080                   mrpg_tables_:      3084, 3086.
           2    LN1082                   mrpg_tables_:      3090, 3093.
           1    LN1085                   mrpg_tables_:      3097, 3099.
           7    LN1087                   mrpg_tables_:      3103, 3111.
           3    LN1095                   mrpg_tables_:      3115, 3119.
           3    LN1099                   mrpg_tables_:      3123, 3127.
          14    LN11                     mrpg_tables_:      1099, 1112.
           7    LN110                    mrpg_tables_:      1286, 1294.
           2    LN1103                   mrpg_tables_:      3131, 3134.
           2    LN1106                   mrpg_tables_:      3138, 3141.
           1    LN1109                   mrpg_tables_:      3145, 3147.
           3    LN1111                   mrpg_tables_:      3151, 3155.
           3    LN1115                   mrpg_tables_:      3159, 3163.
           4    LN1119                   mrpg_tables_:      3167, 3172.
           1    LN1124                   mrpg_tables_:      3176, 3178.
           3    LN1126                   mrpg_tables_:      3182, 3186.
           4    LN1130                   mrpg_tables_:      3190, 3195.
          10    LN1135                   mrpg_tables_:      3199, 3208.
           2    LN1144                   mrpg_tables_:      3212, 3215.
           1    LN1147                   mrpg_tables_:      3219, 3221.
           2    LN1149                   mrpg_tables_:      3225, 3228.
           3    LN1152                   mrpg_tables_:      3232, 3236.
           1    LN1156                   mrpg_tables_:      3240, 3242.
           1    LN1158                   mrpg_tables_:      3246, 3248.
           3    LN1160                   mrpg_tables_:      3252, 3256.
           1    LN1164                   mrpg_tables_:      3260, 3262.
           1    LN1166                   mrpg_tables_:      3266, 3268.
           3    LN1168                   mrpg_tables_:      3272, 3276.
           2    LN1172                   mrpg_tables_:      3280, 3283.
           3    LN1175                   mrpg_tables_:      3287, 3291.
           2    LN1179                   mrpg_tables_:      3295, 3298.
           1    LN118                    mrpg_tables_:      1298, 1300.
           3    LN1182                   mrpg_tables_:      3302, 3306.
           2    LN1186                   mrpg_tables_:      3310, 3313.
           3    LN1189                   mrpg_tables_:      3317, 3321.
           2    LN1193                   mrpg_tables_:      3325, 3328.
           1    LN1196                   mrpg_tables_:      3332, 3334.
           1    LN1198                   mrpg_tables_:      3338, 3340.
           1    LN120                    mrpg_tables_:      1304, 1306.
           1    LN1200                   mrpg_tables_:      3344, 3346.
           2    LN1202                   mrpg_tables_:      3350, 3353.
           2    LN1205                   mrpg_tables_:      3357, 3360.
           1    LN1208                   mrpg_tables_:      3364, 3366.
           3    LN1210                   mrpg_tables_:      3370, 3374.
           3    LN1214                   mrpg_tables_:      3378, 3382.
           3    LN1218                   mrpg_tables_:      3386, 3390.
           1    LN122                    mrpg_tables_:      1310, 1312.
           3    LN1222                   mrpg_tables_:      3394, 3398.
           4    LN1226                   mrpg_tables_:      3402, 3407.
           3    LN1231                   mrpg_tables_:      3411, 3415.
           1    LN1235                   mrpg_tables_:      3419, 3421.
           1    LN1237                   mrpg_tables_:      3425, 3427.
           4    LN1239                   mrpg_tables_:      3431, 3436.
           1    LN124                    mrpg_tables_:      1316, 1318.
           3    LN1244                   mrpg_tables_:      3440, 3444.
           1    LN1248                   mrpg_tables_:      3448, 3450.
           3    LN1250                   mrpg_tables_:      3454, 3458.
           3    LN1254                   mrpg_tables_:      3462, 3466.
          64    LN1258                   mrpg_tables_:      3470, 3523.
           3    LN126                    mrpg_tables_:      1322, 1326.
           1    LN130                    mrpg_tables_:      1330, 1332.
          64    LN1311                   mrpg_tables_:      3527, 3580.
           1    LN132                    mrpg_tables_:      1336, 1338.
           5    LN134                    mrpg_tables_:      1342, 1348.
           3    LN1364                   mrpg_tables_:      3584, 3588.
           2    LN1368                   mrpg_tables_:      3592, 3595.
           2    LN1371                   mrpg_tables_:      3599, 3602.
           3    LN1374                   mrpg_tables_:      3606, 3610.
           2    LN1378                   mrpg_tables_:      3614, 3617.
           3    LN1381                   mrpg_tables_:      3621, 3625.
           1    LN1385                   mrpg_tables_:      3629, 3631.
           3    LN1387                   mrpg_tables_:      3635, 3639.
           3    LN1391                   mrpg_tables_:      3643, 3647.
           3    LN1395                   mrpg_tables_:      3651, 3655.
           2    LN1399                   mrpg_tables_:      3659, 3662.
           3    LN140                    mrpg_tables_:      1352, 1356.
           3    LN1402                   mrpg_tables_:      3666, 3670.
           3    LN1406                   mrpg_tables_:      3674, 3678.
           3    LN1411                   mrpg_tables_:      3687, 3691.
           2    LN1415                   mrpg_tables_:      3695, 3698.
          11    LN1418                   mrpg_tables_:      3702, 3712.
           1    LN1428                   mrpg_tables_:      3716, 3718.
           3    LN1430                   mrpg_tables_:      3722, 3726.
           3    LN1434                   mrpg_tables_:      3730, 3734.
           7    LN1438                   mrpg_tables_:      3738, 3746.
           5    LN144                    mrpg_tables_:      1360, 1366.
           7    LN1446                   mrpg_tables_:      3750, 3758.
           7    LN1454                   mrpg_tables_:      3762, 3770.
           3    LN1462                   mrpg_tables_:      3774, 3778.
           3    LN1466                   mrpg_tables_:      3782, 3786.
           3    LN1470                   mrpg_tables_:      3790, 3794.
           3    LN1474                   mrpg_tables_:      3798, 3802.
          22    LN1478                   mrpg_tables_:      3806, 3825.
          22    LN1497                   mrpg_tables_:      3829, 3848.
           1    LN150                    mrpg_tables_:      1370, 1372.
          22    LN1516                   mrpg_tables_:      3852, 3871.
          21    LN152                    mrpg_tables_:      1376, 1394.
           1    LN1535                   mrpg_tables_:      3875, 3877.
           3    LN1537                   mrpg_tables_:      3881, 3885.
          10    LN1541                   mrpg_tables_:      3889, 3898.
           6    LN1550                   mrpg_tables_:      3902, 3909.
           1    LN1557                   mrpg_tables_:      3913, 3915.
           1    LN1559                   mrpg_tables_:      3919, 3921.
           1    LN1561                   mrpg_tables_:      3925, 3927.
           1    LN1563                   mrpg_tables_:      3931, 3933.
           7    LN1565                   mrpg_tables_:      3937, 3945.
           3    LN1573                   mrpg_tables_:      3949, 3953.
           3    LN1577                   mrpg_tables_:      3957, 3961.
           3    LN1581                   mrpg_tables_:      3965, 3969.
           1    LN1585                   mrpg_tables_:      3973, 3975.
           1    LN1587                   mrpg_tables_:      3979, 3981.
           1    LN1589                   mrpg_tables_:      3985, 3987.
           3    LN1591                   mrpg_tables_:      3991, 3995.
           3    LN1595                   mrpg_tables_:      3999, 4003.
           3    LN1599                   mrpg_tables_:      4007, 4011.
           6    LN1603                   mrpg_tables_:      4015, 4022.
           3    LN1610                   mrpg_tables_:      4026, 4030.
           4    LN1614                   mrpg_tables_:      4034, 4039.
           3    LN1619                   mrpg_tables_:      4043, 4047.
           4    LN1624                   mrpg_tables_:      4056, 4061.
           3    LN1629                   mrpg_tables_:      4065, 4069.
           1    LN1633                   mrpg_tables_:      4073, 4075.
           1    LN1635                   mrpg_tables_:      4079, 4081.
           3    LN1637                   mrpg_tables_:      4085, 4089.
          10    LN1641                   mrpg_tables_:      4093, 4102.
           3    LN1650                   mrpg_tables_:      4106, 4110.
           3    LN1654                   mrpg_tables_:      4114, 4118.
           4    LN1659                   mrpg_tables_:      4127, 4132.
           2    LN1664                   mrpg_tables_:      4136, 4139.
           3    LN1667                   mrpg_tables_:      4143, 4147.
           1    LN1671                   mrpg_tables_:      4151, 4153.
           3    LN1673                   mrpg_tables_:      4157, 4161.
           1    LN1677                   mrpg_tables_:      4165, 4167.
           3    LN1679                   mrpg_tables_:      4171, 4175.
           1    LN1683                   mrpg_tables_:      4179, 4181.
           3    LN1685                   mrpg_tables_:      4185, 4189.
           1    LN1689                   mrpg_tables_:      4193, 4195.
           2    LN1691                   mrpg_tables_:      4199, 4202.
           2    LN1694                   mrpg_tables_:      4206, 4209.
           2    LN1697                   mrpg_tables_:      4213, 4216.
           1    LN1700                   mrpg_tables_:      4220, 4222.
           1    LN1702                   mrpg_tables_:      4226, 4228.
           3    LN1704                   mrpg_tables_:      4232, 4236.
           1    LN1709                   mrpg_tables_:      4245, 4247.
           6    LN171                    mrpg_tables_:      1403, 1410.
           3    LN1711                   mrpg_tables_:      4251, 4255.
           4    LN1715                   mrpg_tables_:      4259, 4264.
           4    LN1720                   mrpg_tables_:      4268, 4273.
           1    LN1725                   mrpg_tables_:      4277, 4279.
           1    LN1727                   mrpg_tables_:      4283, 4285.
           6    LN1729                   mrpg_tables_:      4289, 4296.
           1    LN1736                   mrpg_tables_:      4300, 4302.
           1    LN1738                   mrpg_tables_:      4306, 4308.
           3    LN1741                   mrpg_tables_:      4317, 4321.
           3    LN1746                   mrpg_tables_:      4330, 4334.
           3    LN1750                   mrpg_tables_:      4338, 4342.
           3    LN1754                   mrpg_tables_:      4346, 4350.
          20    LN1758                   mrpg_tables_:      4354, 4371.
           2    LN1775                   mrpg_tables_:      4375, 4378.
           1    LN1778                   mrpg_tables_:      4382, 4384.
           6    LN178                    mrpg_tables_:      1414, 1421.
           1    LN1780                   mrpg_tables_:      4388, 4390.
           3    LN1782                   mrpg_tables_:      4394, 4398.
           2    LN1786                   mrpg_tables_:      4402, 4405.
           4    LN1789                   mrpg_tables_:      4409, 4414.
           3    LN1794                   mrpg_tables_:      4418, 4422.
           3    LN1798                   mrpg_tables_:      4426, 4430.
           3    LN1802                   mrpg_tables_:      4434, 4438.
           3    LN1806                   mrpg_tables_:      4442, 4446.
           3    LN1811                   mrpg_tables_:      4455, 4459.
           1    LN1815                   mrpg_tables_:      4463, 4465.
           3    LN1817                   mrpg_tables_:      4469, 4473.
           3    LN1821                   mrpg_tables_:      4477, 4481.
           3    LN1825                   mrpg_tables_:      4485, 4489.
           3    LN1829                   mrpg_tables_:      4493, 4497.
           3    LN1833                   mrpg_tables_:      4501, 4505.
           3    LN1837                   mrpg_tables_:      4509, 4513.
           3    LN1841                   mrpg_tables_:      4517, 4521.
           4    LN1846                   mrpg_tables_:      4530, 4535.
           3    LN185                    mrpg_tables_:      1425, 1429.
           3    LN1851                   mrpg_tables_:      4539, 4543.
           3    LN1855                   mrpg_tables_:      4547, 4551.
           3    LN1860                   mrpg_tables_:      4560, 4564.
           3    LN1864                   mrpg_tables_:      4568, 4572.
           4    LN1868                   mrpg_tables_:      4576, 4581.
           1    LN1873                   mrpg_tables_:      4585, 4587.
           1    LN1875                   mrpg_tables_:      4591, 4593.
           5    LN1877                   mrpg_tables_:      4597, 4603.
           5    LN1883                   mrpg_tables_:      4607, 4613.
           2    LN1889                   mrpg_tables_:      4617, 4620.
           3    LN189                    mrpg_tables_:      1433, 1437.
           3    LN1892                   mrpg_tables_:      4624, 4628.
           1    LN1896                   mrpg_tables_:      4632, 4634.
           1    LN1898                   mrpg_tables_:      4638, 4640.
           1    LN1900                   mrpg_tables_:      4644, 4646.
           1    LN1902                   mrpg_tables_:      4650, 4652.
           3    LN1904                   mrpg_tables_:      4656, 4660.
           4    LN1908                   mrpg_tables_:      4664, 4669.
           4    LN1913                   mrpg_tables_:      4673, 4678.
           4    LN1918                   mrpg_tables_:      4682, 4687.
           4    LN1923                   mrpg_tables_:      4691, 4696.
           3    LN1928                   mrpg_tables_:      4700, 4704.
           1    LN193                    mrpg_tables_:      1441, 1443.
           3    LN1932                   mrpg_tables_:      4708, 4712.
           2    LN1936                   mrpg_tables_:      4716, 4719.
           4    LN1939                   mrpg_tables_:      4723, 4728.
           3    LN1944                   mrpg_tables_:      4732, 4736.
           4    LN1948                   mrpg_tables_:      4740, 4745.
           3    LN195                    mrpg_tables_:      1447, 1451.
           1    LN1953                   mrpg_tables_:      4749, 4751.
           6    LN1955                   mrpg_tables_:      4755, 4762.
           5    LN1962                   mrpg_tables_:      4766, 4772.
           1    LN1968                   mrpg_tables_:      4776, 4778.
           1    LN1970                   mrpg_tables_:      4782, 4784.
           1    LN1972                   mrpg_tables_:      4788, 4790.
           3    LN1974                   mrpg_tables_:      4794, 4798.
           4    LN1978                   mrpg_tables_:      4802, 4807.
           3    LN1983                   mrpg_tables_:      4811, 4815.
           1    LN1987                   mrpg_tables_:      4819, 4821.
           3    LN1989                   mrpg_tables_:      4825, 4829.
           1    LN199                    mrpg_tables_:      1455, 1457.
           3    LN1993                   mrpg_tables_:      4833, 4837.
           3    LN1997                   mrpg_tables_:      4841, 4845.
           1    LN2001                   mrpg_tables_:      4849, 4851.
           7    LN2003                   mrpg_tables_:      4855, 4863.
           3    LN201                    mrpg_tables_:      1461, 1465.
           3    LN2011                   mrpg_tables_:      4867, 4871.
           4    LN2015                   mrpg_tables_:      4875, 4880.
           2    LN2020                   mrpg_tables_:      4884, 4887.
           3    LN2023                   mrpg_tables_:      4891, 4895.
           4    LN2028                   mrpg_tables_:      4904, 4909.
          11    LN2033                   mrpg_tables_:      4913, 4923.
           3    LN2043                   mrpg_tables_:      4927, 4931.
           5    LN2047                   mrpg_tables_:      4935, 4941.
           3    LN205                    mrpg_tables_:      1469, 1473.
           1    LN2054                   mrpg_tables_:      4950, 4952.
           1    LN2056                   mrpg_tables_:      4956, 4958.
           1    LN2058                   mrpg_tables_:      4962, 4964.
           2    LN2060                   mrpg_tables_:      4968, 4971.
           6    LN2063                   mrpg_tables_:      4975, 4982.
           5    LN2070                   mrpg_tables_:      4986, 4992.
           1    LN2076                   mrpg_tables_:      4996, 4998.
           1    LN2078                   mrpg_tables_:      5002, 5004.
           3    LN2080                   mrpg_tables_:      5008, 5012.
          10    LN2084                   mrpg_tables_:      5016, 5025.
           1    LN209                    mrpg_tables_:      1477, 1479.
           3    LN2093                   mrpg_tables_:      5029, 5033.
           3    LN2097                   mrpg_tables_:      5037, 5041.
           3    LN2101                   mrpg_tables_:      5045, 5049.
           1    LN2106                   mrpg_tables_:      5058, 5060.
           3    LN2108                   mrpg_tables_:      5064, 5068.
           3    LN211                    mrpg_tables_:      1483, 1487.
           1    LN2112                   mrpg_tables_:      5072, 5074.
           3    LN2114                   mrpg_tables_:      5078, 5082.
           3    LN2118                   mrpg_tables_:      5086, 5090.
          21    LN2122                   mrpg_tables_:      5094, 5112.
           3    LN2140                   mrpg_tables_:      5116, 5120.
           1    LN2144                   mrpg_tables_:      5124, 5126.
           2    LN2146                   mrpg_tables_:      5130, 5133.
           3    LN215                    mrpg_tables_:      1491, 1495.
           1    LN2152                   mrpg_tables_:      5152, 5154.
           5    LN2154                   mrpg_tables_:      5158, 5164.
           1    LN2160                   mrpg_tables_:      5168, 5170.
           1    LN2162                   mrpg_tables_:      5174, 5176.
           3    LN2164                   mrpg_tables_:      5180, 5184.
           3    LN2168                   mrpg_tables_:      5188, 5192.
           1    LN2172                   mrpg_tables_:      5196, 5198.
           5    LN2174                   mrpg_tables_:      5202, 5208.
           1    LN2180                   mrpg_tables_:      5212, 5214.
           6    LN2182                   mrpg_tables_:      5218, 5225.
           3    LN2189                   mrpg_tables_:      5229, 5233.
           5    LN219                    mrpg_tables_:      1499, 1505.
           3    LN2194                   mrpg_tables_:      5242, 5246.
           1    LN2198                   mrpg_tables_:      5250, 5252.
           3    LN2200                   mrpg_tables_:      5256, 5260.
          20    LN2204                   mrpg_tables_:      5264, 5281.
           1    LN2221                   mrpg_tables_:      5285, 5287.
           4    LN2223                   mrpg_tables_:      5291, 5296.
           1    LN2228                   mrpg_tables_:      5300, 5302.
           1    LN2230                   mrpg_tables_:      5306, 5308.
           1    LN2232                   mrpg_tables_:      5312, 5314.
          21    LN2234                   mrpg_tables_:      5318, 5336.
           6    LN225                    mrpg_tables_:      1509, 1516.
           3    LN2252                   mrpg_tables_:      5340, 5344.
           3    LN2256                   mrpg_tables_:      5348, 5352.
           3    LN2260                   mrpg_tables_:      5356, 5360.
           1    LN2264                   mrpg_tables_:      5364, 5366.
           3    LN2266                   mrpg_tables_:      5370, 5374.
           3    LN2270                   mrpg_tables_:      5378, 5382.
           3    LN2275                   mrpg_tables_:      5391, 5395.
           2    LN2279                   mrpg_tables_:      5399, 5402.
           2    LN2282                   mrpg_tables_:      5406, 5409.
           4    LN2285                   mrpg_tables_:      5413, 5418.
           1    LN2291                   mrpg_tables_:      5427, 5429.
           3    LN2293                   mrpg_tables_:      5433, 5437.
           3    LN2297                   mrpg_tables_:      5441, 5445.
           6    LN2301                   mrpg_tables_:      5449, 5456.
           1    LN2308                   mrpg_tables_:      5460, 5462.
           3    LN2310                   mrpg_tables_:      5466, 5470.
           5    LN2314                   mrpg_tables_:      5474, 5480.
           5    LN232                    mrpg_tables_:      1520, 1526.
           1    LN2320                   mrpg_tables_:      5484, 5486.
           3    LN2322                   mrpg_tables_:      5490, 5494.
           2    LN2326                   mrpg_tables_:      5498, 5501.
           1    LN2329                   mrpg_tables_:      5505, 5507.
           3    LN2331                   mrpg_tables_:      5511, 5515.
           3    LN2335                   mrpg_tables_:      5519, 5523.
           1    LN2339                   mrpg_tables_:      5527, 5529.
           3    LN2341                   mrpg_tables_:      5533, 5537.
           3    LN2345                   mrpg_tables_:      5541, 5545.
           1    LN2349                   mrpg_tables_:      5549, 5551.
           3    LN2351                   mrpg_tables_:      5555, 5559.
           2    LN2355                   mrpg_tables_:      5563, 5566.
           3    LN2358                   mrpg_tables_:      5570, 5574.
           3    LN2362                   mrpg_tables_:      5578, 5582.
           2    LN2366                   mrpg_tables_:      5586, 5589.
           3    LN2369                   mrpg_tables_:      5593, 5597.
           5    LN2373                   mrpg_tables_:      5601, 5607.
           1    LN2379                   mrpg_tables_:      5611, 5613.
          13    LN238                    mrpg_tables_:      1530, 1542.
           3    LN2381                   mrpg_tables_:      5617, 5621.
           1    LN2385                   mrpg_tables_:      5625, 5627.
           3    LN2387                   mrpg_tables_:      5631, 5635.
          11    LN2391                   mrpg_tables_:      5639, 5649.
           1    LN24                     mrpg_tables_:      1116, 1118.
           2    LN2401                   mrpg_tables_:      5653, 5656.
           1    LN2404                   mrpg_tables_:      5660, 5662.
           1    LN2406                   mrpg_tables_:      5666, 5668.
           3    LN2408                   mrpg_tables_:      5672, 5676.
           5    LN2412                   mrpg_tables_:      5680, 5686.
           1    LN2418                   mrpg_tables_:      5690, 5692.
           3    LN2420                   mrpg_tables_:      5696, 5700.
           3    LN2424                   mrpg_tables_:      5704, 5708.
           3    LN2428                   mrpg_tables_:      5712, 5716.
           3    LN2432                   mrpg_tables_:      5720, 5724.
           1    LN2436                   mrpg_tables_:      5728, 5730.
           3    LN2438                   mrpg_tables_:      5734, 5738.
           1    LN2442                   mrpg_tables_:      5742, 5744.
           3    LN2444                   mrpg_tables_:      5748, 5752.
           1    LN2448                   mrpg_tables_:      5756, 5758.
           3    LN2450                   mrpg_tables_:      5762, 5766.
           6    LN2454                   mrpg_tables_:      5770, 5777.
           3    LN2461                   mrpg_tables_:      5781, 5785.
           4    LN2465                   mrpg_tables_:      5789, 5794.
           3    LN2470                   mrpg_tables_:      5798, 5802.
           3    LN2475                   mrpg_tables_:      5811, 5815.
           1    LN2479                   mrpg_tables_:      5819, 5821.
           3    LN2481                   mrpg_tables_:      5825, 5829.
           3    LN2486                   mrpg_tables_:      5838, 5842.
           1    LN2490                   mrpg_tables_:      5846, 5848.
           3    LN2492                   mrpg_tables_:      5852, 5856.
           4    LN2496                   mrpg_tables_:      5860, 5865.
           6    LN250                    mrpg_tables_:      1546, 1553.
           3    LN2502                   mrpg_tables_:      5874, 5878.
           1    LN2506                   mrpg_tables_:      5882, 5884.
           3    LN2508                   mrpg_tables_:      5888, 5892.
           1    LN2512                   mrpg_tables_:      5896, 5898.
           3    LN2514                   mrpg_tables_:      5902, 5906.
           2    LN2518                   mrpg_tables_:      5910, 5913.
           3    LN2521                   mrpg_tables_:      5917, 5921.
           3    LN2526                   mrpg_tables_:      5930, 5934.
           1    LN2530                   mrpg_tables_:      5938, 5940.
           3    LN2532                   mrpg_tables_:      5944, 5948.
           1    LN2536                   mrpg_tables_:      5952, 5954.
           3    LN2538                   mrpg_tables_:      5958, 5962.
           1    LN2542                   mrpg_tables_:      5966, 5968.
           3    LN2544                   mrpg_tables_:      5972, 5976.
           4    LN2548                   mrpg_tables_:      5980, 5985.
           2    LN2553                   mrpg_tables_:      5989, 5992.
           3    LN2556                   mrpg_tables_:      5996, 6000.
           2    LN2560                   mrpg_tables_:      6004, 6007.
          11    LN2563                   mrpg_tables_:      6011, 6021.
           3    LN257                    mrpg_tables_:      1557, 1561.
           2    LN2573                   mrpg_tables_:      6025, 6028.
           3    LN2576                   mrpg_tables_:      6032, 6036.
           1    LN2580                   mrpg_tables_:      6040, 6042.
           3    LN2582                   mrpg_tables_:      6046, 6050.
           1    LN2586                   mrpg_tables_:      6054, 6056.
           3    LN2588                   mrpg_tables_:      6060, 6064.
          14    LN2592                   mrpg_tables_:      6068, 6081.
           3    LN26                     mrpg_tables_:      1122, 1126.
           3    LN2605                   mrpg_tables_:      6085, 6089.
           1    LN2609                   mrpg_tables_:      6093, 6095.
          30    LN261                    mrpg_tables_:      1565, 1590.
          21    LN2611                   mrpg_tables_:      6099, 6117.
           1    LN2629                   mrpg_tables_:      6121, 6123.
           3    LN2631                   mrpg_tables_:      6127, 6131.
           1    LN2635                   mrpg_tables_:      6135, 6137.
           3    LN2637                   mrpg_tables_:      6141, 6145.
           2    LN2641                   mrpg_tables_:      6149, 6152.
           3    LN2644                   mrpg_tables_:      6156, 6160.
           1    LN2648                   mrpg_tables_:      6164, 6166.
           3    LN2650                   mrpg_tables_:      6170, 6174.
           1    LN2654                   mrpg_tables_:      6178, 6180.
           3    LN2656                   mrpg_tables_:      6184, 6188.
           4    LN2661                   mrpg_tables_:      6197, 6202.
           1    LN2666                   mrpg_tables_:      6206, 6208.
           3    LN2668                   mrpg_tables_:      6212, 6216.
           1    LN2672                   mrpg_tables_:      6220, 6222.
           3    LN2674                   mrpg_tables_:      6226, 6230.
           1    LN2678                   mrpg_tables_:      6234, 6236.
           3    LN2680                   mrpg_tables_:      6240, 6244.
           1    LN2684                   mrpg_tables_:      6248, 6250.
           3    LN2686                   mrpg_tables_:      6254, 6258.
           1    LN2690                   mrpg_tables_:      6262, 6264.
           3    LN2692                   mrpg_tables_:      6268, 6272.
           1    LN2696                   mrpg_tables_:      6276, 6278.
           3    LN2698                   mrpg_tables_:      6282, 6286.
           1    LN2702                   mrpg_tables_:      6290, 6292.
           3    LN2704                   mrpg_tables_:      6296, 6300.
           1    LN2708                   mrpg_tables_:      6304, 6306.
           3    LN2710                   mrpg_tables_:      6310, 6314.
           1    LN2714                   mrpg_tables_:      6318, 6320.
           3    LN2716                   mrpg_tables_:      6324, 6328.
           1    LN2720                   mrpg_tables_:      6332, 6334.
           3    LN2722                   mrpg_tables_:      6338, 6342.
           1    LN2726                   mrpg_tables_:      6346, 6348.
           3    LN2728                   mrpg_tables_:      6352, 6356.
           1    LN2732                   mrpg_tables_:      6360, 6362.
           3    LN2734                   mrpg_tables_:      6366, 6370.
           1    LN2738                   mrpg_tables_:      6374, 6376.
           3    LN2740                   mrpg_tables_:      6380, 6384.
           1    LN2744                   mrpg_tables_:      6388, 6390.
           3    LN2746                   mrpg_tables_:      6394, 6398.
           3    LN2751                   mrpg_tables_:      6407, 6411.
           3    LN2756                   mrpg_tables_:      6420, 6424.
           1    LN2760                   mrpg_tables_:      6428, 6430.
           3    LN2762                   mrpg_tables_:      6434, 6438.
           1    LN2766                   mrpg_tables_:      6442, 6444.
           3    LN2768                   mrpg_tables_:      6448, 6452.
           1    LN2772                   mrpg_tables_:      6456, 6458.
           3    LN2774                   mrpg_tables_:      6462, 6466.
           1    LN2778                   mrpg_tables_:      6470, 6472.
           3    LN2780                   mrpg_tables_:      6476, 6480.
           1    LN2784                   mrpg_tables_:      6484, 6486.
           3    LN2786                   mrpg_tables_:      6490, 6494.
           1    LN2790                   mrpg_tables_:      6498, 6500.
           3    LN2792                   mrpg_tables_:      6504, 6508.
           1    LN2796                   mrpg_tables_:      6512, 6514.
           3    LN2798                   mrpg_tables_:      6518, 6522.
           1    LN2802                   mrpg_tables_:      6526, 6528.
           3    LN2804                   mrpg_tables_:      6532, 6536.
           3    LN2809                   mrpg_tables_:      6545, 6549.
           1    LN2813                   mrpg_tables_:      6553, 6555.
           5    LN2815                   mrpg_tables_:      6559, 6565.
           4    LN2821                   mrpg_tables_:      6569, 6574.
           3    LN2826                   mrpg_tables_:      6578, 6582.
           1    LN2830                   mrpg_tables_:      6586, 6588.
           3    LN2832                   mrpg_tables_:      6592, 6596.
           1    LN2836                   mrpg_tables_:      6600, 6602.
           3    LN2838                   mrpg_tables_:      6606, 6610.
           1    LN2842                   mrpg_tables_:      6614, 6616.
           3    LN2844                   mrpg_tables_:      6620, 6624.
           1    LN2848                   mrpg_tables_:      6628, 6630.
           3    LN2850                   mrpg_tables_:      6634, 6638.
           2    LN2854                   mrpg_tables_:      6642, 6645.
           3    LN2857                   mrpg_tables_:      6649, 6653.
           1    LN286                    mrpg_tables_:      1594, 1596.
           1    LN2861                   mrpg_tables_:      6657, 6659.
           3    LN2863                   mrpg_tables_:      6663, 6667.
           1    LN2867                   mrpg_tables_:      6671, 6673.
           3    LN2869                   mrpg_tables_:      6677, 6681.
           1    LN2873                   mrpg_tables_:      6685, 6687.
           3    LN2875                   mrpg_tables_:      6691, 6695.
           1    LN2879                   mrpg_tables_:      6699, 6701.
           1    LN288                    mrpg_tables_:      1600, 1602.
           3    LN2881                   mrpg_tables_:      6705, 6709.
           1    LN2885                   mrpg_tables_:      6713, 6715.
           3    LN2887                   mrpg_tables_:      6719, 6723.
           1    LN2891                   mrpg_tables_:      6727, 6729.
           3    LN2893                   mrpg_tables_:      6733, 6737.
           1    LN2897                   mrpg_tables_:      6741, 6743.
           3    LN2899                   mrpg_tables_:      6747, 6751.
           3    LN290                    mrpg_tables_:      1606, 1610.
           2    LN2903                   mrpg_tables_:      6755, 6758.
           3    LN2906                   mrpg_tables_:      6762, 6766.
           1    LN2910                   mrpg_tables_:      6770, 6772.
           3    LN2912                   mrpg_tables_:      6776, 6780.
           1    LN2916                   mrpg_tables_:      6784, 6786.
           3    LN2918                   mrpg_tables_:      6790, 6794.
           1    LN2922                   mrpg_tables_:      6798, 6800.
           3    LN2924                   mrpg_tables_:      6804, 6808.
           2    LN2928                   mrpg_tables_:      6812, 6815.
           3    LN2931                   mrpg_tables_:      6819, 6823.
           1    LN2935                   mrpg_tables_:      6827, 6829.
           3    LN2937                   mrpg_tables_:      6833, 6837.
           4    LN294                    mrpg_tables_:      1614, 1619.
           4    LN2941                   mrpg_tables_:      6841, 6846.
           3    LN2946                   mrpg_tables_:      6850, 6854.
          15    LN2950                   mrpg_tables_:      6858, 6872.
           4    LN2964                   mrpg_tables_:      6876, 6881.
           1    LN2969                   mrpg_tables_:      6885, 6887.
           3    LN2971                   mrpg_tables_:      6891, 6895.
           1    LN2975                   mrpg_tables_:      6899, 6901.
           3    LN2977                   mrpg_tables_:      6905, 6909.
           2    LN2981                   mrpg_tables_:      6913, 6916.
           3    LN2984                   mrpg_tables_:      6920, 6924.
          14    LN2988                   mrpg_tables_:      6928, 6941.
           2    LN299                    mrpg_tables_:      1623, 1626.
           7    LN30                     mrpg_tables_:      1130, 1138.
           3    LN3001                   mrpg_tables_:      6945, 6949.
           1    LN3005                   mrpg_tables_:      6953, 6955.
           3    LN3007                   mrpg_tables_:      6959, 6963.
           2    LN3011                   mrpg_tables_:      6967, 6970.
           3    LN3014                   mrpg_tables_:      6974, 6978.
           1    LN3018                   mrpg_tables_:      6982, 6984.
           1    LN302                    mrpg_tables_:      1630, 1632.
           3    LN3020                   mrpg_tables_:      6988, 6992.
           1    LN3024                   mrpg_tables_:      6996, 6998.
           3    LN3026                   mrpg_tables_:      7002, 7006.
           3    LN304                    mrpg_tables_:      1636, 1640.
           3    LN308                    mrpg_tables_:      1644, 1648.
           1    LN312                    mrpg_tables_:      1652, 1654.
           1    LN314                    mrpg_tables_:      1658, 1660.
           3    LN316                    mrpg_tables_:      1664, 1668.
           2    LN320                    mrpg_tables_:      1672, 1675.
           4    LN323                    mrpg_tables_:      1679, 1684.
           3    LN328                    mrpg_tables_:      1688, 1692.
           3    LN332                    mrpg_tables_:      1696, 1700.
           2    LN336                    mrpg_tables_:      1704, 1707.
           3    LN341                    mrpg_tables_:      1721, 1725.
           3    LN345                    mrpg_tables_:      1729, 1733.
           1    LN349                    mrpg_tables_:      1737, 1739.
           3    LN351                    mrpg_tables_:      1743, 1747.
           1    LN355                    mrpg_tables_:      1751, 1753.
           3    LN357                    mrpg_tables_:      1757, 1761.
           1    LN361                    mrpg_tables_:      1765, 1767.
           1    LN363                    mrpg_tables_:      1771, 1773.
           3    LN365                    mrpg_tables_:      1777, 1781.
           3    LN369                    mrpg_tables_:      1785, 1789.
           3    LN373                    mrpg_tables_:      1793, 1797.
           2    LN377                    mrpg_tables_:      1801, 1804.
           3    LN38                     mrpg_tables_:      1142, 1146.
           5    LN380                    mrpg_tables_:      1808, 1814.
           5    LN386                    mrpg_tables_:      1818, 1824.
           5    LN392                    mrpg_tables_:      1828, 1834.
          64    LN398                    mrpg_tables_:      1838, 1891.
           1    LN42                     mrpg_tables_:      1150, 1152.
           3    LN44                     mrpg_tables_:      1156, 1160.
          62    LN451                    mrpg_tables_:      1895, 1946.
           5    LN48                     mrpg_tables_:      1164, 1170.
           4    LN502                    mrpg_tables_:      1950, 1955.
           4    LN507                    mrpg_tables_:      1959, 1964.
           6    LN512                    mrpg_tables_:      1968, 1975.
          17    LN519                    mrpg_tables_:      1979, 1995.
           3    LN535                    mrpg_tables_:      1999, 2003.
           1    LN539                    mrpg_tables_:      2007, 2009.
           3    LN54                     mrpg_tables_:      1174, 1178.
           1    LN541                    mrpg_tables_:      2013, 2015.
           1    LN543                    mrpg_tables_:      2019, 2021.
           1    LN545                    mrpg_tables_:      2025, 2027.
           3    LN547                    mrpg_tables_:      2031, 2035.
           3    LN551                    mrpg_tables_:      2039, 2043.
           3    LN555                    mrpg_tables_:      2047, 2051.
           3    LN559                    mrpg_tables_:      2055, 2059.
           1    LN563                    mrpg_tables_:      2063, 2065.
           3    LN565                    mrpg_tables_:      2069, 2073.
           3    LN569                    mrpg_tables_:      2077, 2081.
           3    LN573                    mrpg_tables_:      2085, 2089.
           3    LN577                    mrpg_tables_:      2093, 2097.
           1    LN58                     mrpg_tables_:      1182, 1184.
           5    LN582                    mrpg_tables_:      2106, 2112.
           5    LN588                    mrpg_tables_:      2116, 2122.
           1    LN594                    mrpg_tables_:      2126, 2128.
           3    LN596                    mrpg_tables_:      2132, 2136.
           4    LN6                      mrpg_tables_:      1090, 1095.
           3    LN60                     mrpg_tables_:      1188, 1192.
           3    LN600                    mrpg_tables_:      2140, 2144.
           3    LN604                    mrpg_tables_:      2148, 2152.
           3    LN608                    mrpg_tables_:      2156, 2160.
           6    LN612                    mrpg_tables_:      2164, 2171.
           4    LN619                    mrpg_tables_:      2175, 2180.
           3    LN624                    mrpg_tables_:      2184, 2188.
           3    LN628                    mrpg_tables_:      2192, 2196.
           1    LN632                    mrpg_tables_:      2200, 2202.
           3    LN634                    mrpg_tables_:      2206, 2210.
           5    LN638                    mrpg_tables_:      2214, 2220.
           5    LN64                     mrpg_tables_:      1196, 1202.
           3    LN644                    mrpg_tables_:      2224, 2228.
           3    LN648                    mrpg_tables_:      2232, 2236.
           1    LN652                    mrpg_tables_:      2240, 2242.
           3    LN654                    mrpg_tables_:      2246, 2250.
           1    LN658                    mrpg_tables_:      2254, 2256.
           4    LN660                    mrpg_tables_:      2260, 2265.
           3    LN665                    mrpg_tables_:      2269, 2273.
           3    LN669                    mrpg_tables_:      2277, 2281.
           3    LN673                    mrpg_tables_:      2285, 2289.
           3    LN677                    mrpg_tables_:      2293, 2297.
           3    LN681                    mrpg_tables_:      2301, 2305.
          22    LN685                    mrpg_tables_:      2309, 2328.
           1    LN70                     mrpg_tables_:      1206, 1208.
           4    LN704                    mrpg_tables_:      2332, 2337.
           4    LN709                    mrpg_tables_:      2341, 2346.
           3    LN714                    mrpg_tables_:      2350, 2354.
           3    LN718                    mrpg_tables_:      2358, 2362.
           3    LN72                     mrpg_tables_:      1212, 1216.
           4    LN722                    mrpg_tables_:      2366, 2371.
           6    LN727                    mrpg_tables_:      2375, 2382.
           2    LN734                    mrpg_tables_:      2386, 2389.
           1    LN737                    mrpg_tables_:      2393, 2395.
           3    LN739                    mrpg_tables_:      2399, 2403.
           1    LN743                    mrpg_tables_:      2407, 2409.
           1    LN745                    mrpg_tables_:      2413, 2415.
           3    LN747                    mrpg_tables_:      2419, 2423.
          27    LN751                    mrpg_tables_:      2427, 2451.
           3    LN76                     mrpg_tables_:      1220, 1224.
           3    LN775                    mrpg_tables_:      2455, 2459.
           1    LN779                    mrpg_tables_:      2463, 2465.
           3    LN782                    mrpg_tables_:      2474, 2478.
           3    LN786                    mrpg_tables_:      2482, 2486.
           3    LN790                    mrpg_tables_:      2490, 2494.
           3    LN794                    mrpg_tables_:      2498, 2502.
           2    LN798                    mrpg_tables_:      2506, 2509.
           2    LN80                     mrpg_tables_:      1228, 1231.
           1    LN801                    mrpg_tables_:      2513, 2515.
           1    LN803                    mrpg_tables_:      2519, 2521.
           1    LN805                    mrpg_tables_:      2525, 2527.
           1    LN807                    mrpg_tables_:      2531, 2533.
           3    LN809                    mrpg_tables_:      2537, 2541.
           3    LN813                    mrpg_tables_:      2545, 2549.
           3    LN817                    mrpg_tables_:      2553, 2557.
           2    LN821                    mrpg_tables_:      2561, 2564.
           4    LN824                    mrpg_tables_:      2568, 2573.
           3    LN829                    mrpg_tables_:      2577, 2581.
           1    LN83                     mrpg_tables_:      1235, 1237.
           2    LN833                    mrpg_tables_:      2585, 2588.
           1    LN836                    mrpg_tables_:      2592, 2594.
          13    LN838                    mrpg_tables_:      2598, 2610.
           1    LN85                     mrpg_tables_:      1241, 1243.
          12    LN850                    mrpg_tables_:      2614, 2625.
           3    LN861                    mrpg_tables_:      2629, 2633.
           1    LN865                    mrpg_tables_:      2637, 2639.
           2    LN867                    mrpg_tables_:      2643, 2646.
          13    LN87                     mrpg_tables_:      1247, 1259.
           2    LN870                    mrpg_tables_:      2650, 2653.
           3    LN873                    mrpg_tables_:      2657, 2661.
           3    LN877                    mrpg_tables_:      2665, 2669.
           2    LN881                    mrpg_tables_:      2673, 2676.
           1    LN884                    mrpg_tables_:      2680, 2682.
           1    LN886                    mrpg_tables_:      2686, 2688.
           1    LN888                    mrpg_tables_:      2692, 2694.
           2    LN890                    mrpg_tables_:      2698, 2701.
           7    LN893                    mrpg_tables_:      2705, 2713.
           2    LN909                    mrpg_tables_:      2757, 2760.
           2    LN912                    mrpg_tables_:      2764, 2767.
           3    LN915                    mrpg_tables_:      2771, 2775.
           3    LN920                    mrpg_tables_:      2784, 2788.
           5    LN926                    mrpg_tables_:      2802, 2808.
           2    LN932                    mrpg_tables_:      2812, 2815.
           1    LN935                    mrpg_tables_:      2819, 2821.
           4    LN937                    mrpg_tables_:      2825, 2830.
           3    LN942                    mrpg_tables_:      2834, 2838.
          10    LN946                    mrpg_tables_:      2842, 2851.
           1    LN955                    mrpg_tables_:      2855, 2857.
           3    LN958                    mrpg_tables_:      2866, 2870.
           1    LN962                    mrpg_tables_:      2874, 2876.
           3    LN964                    mrpg_tables_:      2880, 2884.
           1    LN968                    mrpg_tables_:      2888, 2890.
           2    LN970                    mrpg_tables_:      2894, 2897.
           3    LN973                    mrpg_tables_:      2901, 2905.
          22    LN980                    mrpg_tables_:      2924, 2943.
           3    LN99                     mrpg_tables_:      1263, 1267.
          22    LN999                    mrpg_tables_:      2947, 2966.
           1    LOOK                     mrpg_tables_:        11, 5860, 5980.
           3    LOOKS                    mrpg_tables_:        13.
          11    NSRD                     mrpg_tables_:        19, 1099, 1130, 1164, 1247, 1271, 1286, 1298, 1360, 1403, 1414,
                                                            1499, 1530, 1546, 1623, 1652, 1793, 1838, 1895, 1968, 2164, 2309,
                                                            2375, 2506, 2585, 2598, 2614, 2673, 2842, 2924, 2947, 2970, 3103,
                                                            3138, 3212, 3225, 3280, 3295, 3310, 3325, 3350, 3357, 3431, 3470,
                                                            3527, 3702, 3738, 3750, 3762, 3806, 3829, 3852, 3902, 4015, 4026,
                                                            4093, 4136, 4199, 4259, 4268, 4289, 4509, 4517, 4539, 4576, 4597,
                                                            4607, 4740, 4755, 4766, 4904, 4935, 4975, 4986, 5016, 5094, 5158,
                                                            5202, 5218, 5264, 5318, 5449, 5474, 5601.
          12    NSRDS                    mrpg_tables_:        20.
           7    SKIP                     mrpg_tables_:        17.
           0    ST0                      mrpg_tables_:        22, 1207.
           1    ST1                      mrpg_tables_:      1080, 1086.
        1772    ST1018                   mrpg_tables_:      2969, 2989, 6072.
         147    ST103                    mrpg_tables_:      1117, 1270, 1274.
        2015    ST1037                   mrpg_tables_:      2992, 2997, 6073.
        2021    ST1041                   mrpg_tables_:      3000, 3005, 6074.
        2025    ST1045                   mrpg_tables_:      3008, 3013, 6075.
        2031    ST1049                   mrpg_tables_:      3016, 3019, 6076.
        2033    ST1051                   mrpg_tables_:      3022, 3027, 6077.
        2037    ST1055                   mrpg_tables_:      3030, 3035, 6078.
        2043    ST1059                   mrpg_tables_:      3038, 3043, 6079.
         152    ST106                    mrpg_tables_:      1277, 1282, 1682.
        2047    ST1063                   mrpg_tables_:      3046, 3052, 6080.
        2054    ST1068                   mrpg_tables_:      2345, 3055, 6094, 6527.
        2055    ST1069                   mrpg_tables_:      3060, 3067, 3079, 4450, 5806, 5925.
        2063    ST1075                   mrpg_tables_:      2370, 2387, 2766, 3070, 3133, 3594, 3661, 4377, 4619, 4718, 4886,
                                                            5132, 5401, 5408, 5500, 5565, 5588.
        2064    ST1076                   mrpg_tables_:      2388, 3075, 3080.
        2070    ST1080                   mrpg_tables_:      2394, 3083, 3086.
        2072    ST1082                   mrpg_tables_:      2408, 3089, 3093.
        2075    ST1085                   mrpg_tables_:      2414, 3096, 3099.
        2077    ST1087                   mrpg_tables_:      1987, 3102, 3111.
        2107    ST1095                   mrpg_tables_:      2336, 3114, 3119.
        2113    ST1099                   mrpg_tables_:      2464, 3122, 3127.
          13    ST11                     mrpg_tables_:      1098, 1112, 2485.
         156    ST110                    mrpg_tables_:      1281, 1285, 1294, 1639.
        2117    ST1103                   mrpg_tables_:      3130, 3134, 6104.
        2122    ST1106                   mrpg_tables_:      3137, 3141, 3162, 3952.
        2125    ST1109                   mrpg_tables_:      3144, 3147, 6130, 6271.
        2127    ST1111                   mrpg_tables_:      3150, 3155, 4534.
        2133    ST1115                   mrpg_tables_:      3158, 3163, 4878.
        2137    ST1119                   mrpg_tables_:      3166, 3172, 6122.
        2144    ST1124                   mrpg_tables_:      3175, 3178, 3185.
        2146    ST1126                   mrpg_tables_:      2514, 3168, 3181, 3186.
        2152    ST1130                   mrpg_tables_:      2520, 3189, 3195, 4051, 4525, 6540.
        2157    ST1135                   mrpg_tables_:      3198, 3208, 4088, 4916.
        2170    ST1144                   mrpg_tables_:      3203, 3211, 3215.
        2173    ST1147                   mrpg_tables_:      2526, 2532, 3194, 3218, 3221, 3974, 3980, 6277, 6291, 6554, 6658,
                                                            6672, 6686.
        2175    ST1149                   mrpg_tables_:      3204, 3224, 3228.
        2200    ST1152                   mrpg_tables_:      2562, 3231, 3236.
        2204    ST1156                   mrpg_tables_:      2563, 2895, 3239, 3242.
        2206    ST1158                   mrpg_tables_:      3245, 3248, 6136.
        2210    ST1160                   mrpg_tables_:      2593, 3251, 3256.
        2214    ST1164                   mrpg_tables_:      3259, 3262, 6151.
        2216    ST1166                   mrpg_tables_:      2638, 3265, 3268.
        2220    ST1168                   mrpg_tables_:      3271, 3276, 4694.
        2224    ST1172                   mrpg_tables_:      3275, 3279, 3283, 4146.
        2227    ST1175                   mrpg_tables_:      3286, 3291, 4685.
        2233    ST1179                   mrpg_tables_:      3290, 3294, 3298, 4160.
         166    ST118                    mrpg_tables_:      1297, 1300, 5784, 5841.
        2236    ST1182                   mrpg_tables_:      3301, 3306, 4676.
        2242    ST1186                   mrpg_tables_:      3305, 3309, 3313, 4174.
        2245    ST1189                   mrpg_tables_:      3316, 3321, 4667.
        2251    ST1193                   mrpg_tables_:      3320, 3324, 3328, 4188.
        2254    ST1196                   mrpg_tables_:      3331, 3334, 6313, 6327, 6341, 6355.
        2256    ST1198                   mrpg_tables_:      2644, 3337, 3340.
         170    ST120                    mrpg_tables_:      1303, 1306, 5771.
        2260    ST1200                   mrpg_tables_:      2645, 3343, 3346.
        2262    ST1202                   mrpg_tables_:      3349, 3353, 3381, 4703.
        2265    ST1205                   mrpg_tables_:      3356, 3360, 3373, 4711.
        2270    ST1208                   mrpg_tables_:      3363, 3366, 6369, 6383.
        2272    ST1210                   mrpg_tables_:      2651, 3369, 3374.
        2276    ST1214                   mrpg_tables_:      2652, 3377, 3382.
        2302    ST1218                   mrpg_tables_:      3385, 3390, 3406.
         172    ST122                    mrpg_tables_:      1309, 1312, 5772.
        2306    ST1222                   mrpg_tables_:      2681, 3393, 3398.
        2312    ST1226                   mrpg_tables_:      3401, 3407, 3414, 5644.
        2317    ST1231                   mrpg_tables_:      3410, 3415, 5683.
        2323    ST1235                   mrpg_tables_:      2687, 3418, 3421, 6389, 6615.
        2325    ST1237                   mrpg_tables_:      2693, 3424, 3427.
        2327    ST1239                   mrpg_tables_:      3430, 3436, 5011, 5183, 5191, 5436, 5444, 5469, 5596, 5620, 5634,
                                                            5699, 5707, 5737, 6652, 6765, 6779, 6822, 6836, 6853, 6894, 6908,
                                                            6923, 6977, 6991, 7005.
         174    ST124                    mrpg_tables_:      1315, 1318, 5773.
        2334    ST1244                   mrpg_tables_:      2699, 3439, 3444.
        2340    ST1248                   mrpg_tables_:      2700, 3447, 3450.
        2342    ST1250                   mrpg_tables_:      1822, 3453, 3458.
        2346    ST1254                   mrpg_tables_:      1823, 3461, 3466.
        2352    ST1258                   mrpg_tables_:      1832, 3469, 3523.
         176    ST126                    mrpg_tables_:      1321, 1326, 4131, 5774.
         202    ST130                    mrpg_tables_:      1329, 1332, 5775.
        2437    ST1311                   mrpg_tables_:      1833, 3526, 3580.
         204    ST132                    mrpg_tables_:      1335, 1338, 5776.
         206    ST134                    mrpg_tables_:      1151, 1341, 1348.
        2524    ST1364                   mrpg_tables_:      1963, 3583, 3588.
        2530    ST1368                   mrpg_tables_:      3591, 3595, 6105.
        2533    ST1371                   mrpg_tables_:      1988, 3598, 3602.
        2536    ST1374                   mrpg_tables_:      3605, 3610, 6015.
        2542    ST1378                   mrpg_tables_:      1989, 3613, 3617.
        2545    ST1381                   mrpg_tables_:      2758, 3620, 3625.
        2551    ST1385                   mrpg_tables_:      2759, 3628, 3631.
        2553    ST1387                   mrpg_tables_:      2765, 3634, 3639.
        2557    ST1391                   mrpg_tables_:      3642, 3647, 6016.
        2563    ST1395                   mrpg_tables_:      3650, 3655, 6017.
        2567    ST1399                   mrpg_tables_:      3658, 3662, 6106.
         214    ST140                    mrpg_tables_:      1351, 1356, 2178.
        2572    ST1402                   mrpg_tables_:      3665, 3670, 5645, 5647, 5648.
        2576    ST1406                   mrpg_tables_:      2813, 3673, 3678.
        2602    ST1410                   mrpg_tables_:      2820, 3681, 6107.
        2603    ST1411                   mrpg_tables_:      2829, 3686, 3691.
        2607    ST1415                   mrpg_tables_:      2856, 3694, 3698.
        2612    ST1418                   mrpg_tables_:      1990, 3701, 3712.
        2624    ST1428                   mrpg_tables_:      2875, 3715, 3718.
        2626    ST1430                   mrpg_tables_:      2889, 3721, 3726.
        2632    ST1434                   mrpg_tables_:      2896, 3729, 3734.
        2636    ST1438                   mrpg_tables_:      1991, 3737, 3746.
         220    ST144                    mrpg_tables_:      1355, 1359, 1366, 1780.
        2646    ST1446                   mrpg_tables_:      1992, 3749, 3758.
        2656    ST1454                   mrpg_tables_:      1993, 3761, 3770.
        2666    ST1462                   mrpg_tables_:      3773, 3778, 6207.
        2672    ST1466                   mrpg_tables_:      3781, 3786, 6221.
        2676    ST1470                   mrpg_tables_:      3789, 3794, 6235.
        2702    ST1474                   mrpg_tables_:      3018, 3797, 3802.
        2706    ST1478                   mrpg_tables_:      3048, 3805, 3825.
        2731    ST1497                   mrpg_tables_:      3049, 3828, 3848.
         226    ST150                    mrpg_tables_:      1369, 1372, 5801, 5877.
        2754    ST1516                   mrpg_tables_:      3050, 3851, 3871.
         230    ST152                    mrpg_tables_:      1375, 1394, 1398, 1711, 1716, 1983, 2732, 2742, 2752, 2861, 2909,
                                                            2914, 2919, 4899, 5790.
        2777    ST1535                   mrpg_tables_:      3051, 3874, 3877.
        3001    ST1537                   mrpg_tables_:      2345, 3880, 3885.
        3005    ST1541                   mrpg_tables_:      1513, 1523, 3888, 3898.
        3016    ST1550                   mrpg_tables_:      2370, 3901, 3909.
        3025    ST1557                   mrpg_tables_:      3085, 3912, 3915.
        3027    ST1559                   mrpg_tables_:      3091, 3918, 3921.
        3031    ST1561                   mrpg_tables_:      3092, 3924, 3927.
        3033    ST1563                   mrpg_tables_:      3098, 3930, 3933.
        3035    ST1565                   mrpg_tables_:      3132, 3936, 3945.
        3045    ST1573                   mrpg_tables_:      3948, 3953, 4879.
        3051    ST1577                   mrpg_tables_:      3956, 3961, 6263.
        3055    ST1581                   mrpg_tables_:      3146, 3964, 3969.
        3061    ST1585                   mrpg_tables_:      3205, 3972, 3975, 4010.
        3063    ST1587                   mrpg_tables_:      3206, 3978, 3981, 4002.
        3065    ST1589                   mrpg_tables_:      3984, 3987, 3994.
        3067    ST1591                   mrpg_tables_:      3169, 3958, 3990, 3995.
        3073    ST1595                   mrpg_tables_:      3170, 3959, 3998, 4003.
        3077    ST1599                   mrpg_tables_:      3171, 3960, 4006, 4011.
        3103    ST1603                   mrpg_tables_:      3177, 4014, 4022.
        3112    ST1610                   mrpg_tables_:      3202, 4025, 4030.
        3116    ST1614                   mrpg_tables_:      4033, 4039, 4068, 4563, 5089.
        3123    ST1619                   mrpg_tables_:      4037, 4042, 4047.
        3127    ST1623                   mrpg_tables_:      3207, 4038, 4046, 4050, 4550.
        3130    ST1624                   mrpg_tables_:      4055, 4061, 6285, 6299, 6562.
        3135    ST1629                   mrpg_tables_:      3191, 4064, 4069.
        3141    ST1633                   mrpg_tables_:      3192, 4072, 4075.
        3143    ST1635                   mrpg_tables_:      3193, 4078, 4081.
        3145    ST1637                   mrpg_tables_:      4084, 4089, 4917, 4918, 4919, 4920, 4921, 4922.
        3151    ST1641                   mrpg_tables_:      4092, 4102, 4109.
        3162    ST1650                   mrpg_tables_:      3220, 4105, 4110.
        3166    ST1654                   mrpg_tables_:      3241, 4113, 4118.
        3172    ST1658                   mrpg_tables_:      3247, 4121, 6108.
        3173    ST1659                   mrpg_tables_:      3261, 4126, 4132, 6159, 6173.
        3200    ST1664                   mrpg_tables_:      3267, 4135, 4139.
        3203    ST1667                   mrpg_tables_:      4142, 4147, 4695.
        3207    ST1671                   mrpg_tables_:      4150, 4153, 6305.
        3211    ST1673                   mrpg_tables_:      4156, 4161, 4686.
        3215    ST1677                   mrpg_tables_:      4164, 4167, 6319.
        3217    ST1679                   mrpg_tables_:      4170, 4175, 4677.
        3223    ST1683                   mrpg_tables_:      4178, 4181, 6333.
        3225    ST1685                   mrpg_tables_:      4184, 4189, 4668.
        3231    ST1689                   mrpg_tables_:      4192, 4195, 6347.
        3233    ST1691                   mrpg_tables_:      3333, 4198, 4202.
        3236    ST1694                   mrpg_tables_:      3339, 4205, 4209.
        3241    ST1697                   mrpg_tables_:      3345, 4212, 4216.
         252    ST170                    mrpg_tables_:      1397, 1984, 5791.
        3244    ST1700                   mrpg_tables_:      4219, 4222, 6361.
        3246    ST1702                   mrpg_tables_:      4225, 4228, 6375.
        3250    ST1704                   mrpg_tables_:      3365, 4231, 4236.
        3254    ST1708                   mrpg_tables_:      3420, 4239, 6109.
        3255    ST1709                   mrpg_tables_:      3426, 4244, 4247.
         253    ST171                    mrpg_tables_:      1402, 1410, 5792.
        3257    ST1711                   mrpg_tables_:      4250, 4255, 5684.
        3263    ST1715                   mrpg_tables_:      4254, 4258, 4264, 4735.
        3270    ST1720                   mrpg_tables_:      2806, 4267, 4273.
        3275    ST1725                   mrpg_tables_:      3441, 4276, 4279.
        3277    ST1727                   mrpg_tables_:      3442, 4282, 4285.
        3301    ST1729                   mrpg_tables_:      3443, 4288, 4296.
        3310    ST1736                   mrpg_tables_:      3449, 4299, 4302.
        3312    ST1738                   mrpg_tables_:      3593, 4305, 4308.
        3314    ST1740                   mrpg_tables_:      3600, 4311, 6018.
        3315    ST1741                   mrpg_tables_:      3607, 4316, 4321.
        3321    ST1745                   mrpg_tables_:      3615, 4324, 6019.
        3322    ST1746                   mrpg_tables_:      3630, 4329, 4334.
        3326    ST1750                   mrpg_tables_:      3644, 4337, 4342.
        3332    ST1754                   mrpg_tables_:      3652, 4345, 4350.
        3336    ST1758                   mrpg_tables_:      1954, 3660, 4353, 4371.
        3357    ST1775                   mrpg_tables_:      4374, 4378, 6107.
        3362    ST1778                   mrpg_tables_:      3696, 4381, 4384.
         262    ST178                    mrpg_tables_:      1413, 1421, 5793.
        3364    ST1780                   mrpg_tables_:      3697, 4387, 4390.
        3366    ST1782                   mrpg_tables_:      4393, 4398, 4412.
        3372    ST1786                   mrpg_tables_:      4397, 4401, 4405, 5067.
        3375    ST1789                   mrpg_tables_:      3717, 4408, 4414, 4850.
        3402    ST1794                   mrpg_tables_:      4417, 4422, 6485.
        3406    ST1798                   mrpg_tables_:      4425, 4430, 6499.
        3412    ST1802                   mrpg_tables_:      4433, 4438, 6513.
        3416    ST1806                   mrpg_tables_:      3876, 4441, 4446.
        3422    ST1810                   mrpg_tables_:      1524, 4449, 4458.
        3423    ST1811                   mrpg_tables_:      3895, 4454, 4459.
        3427    ST1815                   mrpg_tables_:      3896, 4462, 4465.
        3431    ST1817                   mrpg_tables_:      3897, 4468, 4473.
        3435    ST1821                   mrpg_tables_:      3914, 4476, 4481.
        3441    ST1825                   mrpg_tables_:      3920, 4484, 4489.
        3445    ST1829                   mrpg_tables_:      3926, 4492, 4497.
        3451    ST1833                   mrpg_tables_:      3932, 4500, 4505.
        3455    ST1837                   mrpg_tables_:      3205, 4508, 4513.
        3461    ST1841                   mrpg_tables_:      3206, 4516, 4521.
        3465    ST1845                   mrpg_tables_:      3986, 4524, 6563.
        3466    ST1846                   mrpg_tables_:      4529, 4535, 6548, 6564.
         271    ST185                    mrpg_tables_:      1424, 1429, 6200.
        3473    ST1851                   mrpg_tables_:      3207, 4538, 4543.
        3477    ST1855                   mrpg_tables_:      4038, 4546, 4551.
        3503    ST1859                   mrpg_tables_:      4074, 4554, 6110.
        3504    ST1860                   mrpg_tables_:      4080, 4559, 4564.
        3510    ST1864                   mrpg_tables_:      4567, 4572, 5394, 5573, 5581, 5675, 6722, 6736, 6807.
        3514    ST1868                   mrpg_tables_:      4571, 4575, 4581, 6581.
        3521    ST1873                   mrpg_tables_:      4584, 4587, 6570.
        3523    ST1875                   mrpg_tables_:      4590, 4593, 6571.
        3525    ST1877                   mrpg_tables_:      4596, 4603, 6572.
        3533    ST1883                   mrpg_tables_:      4606, 4613, 6573.
        3541    ST1889                   mrpg_tables_:      4616, 4620, 6108.
         275    ST189                    mrpg_tables_:      1428, 1432, 1437, 2195, 6201.
        3544    ST1892                   mrpg_tables_:      4623, 4628, 6587.
        3550    ST1896                   mrpg_tables_:      4152, 4631, 4634.
        3552    ST1898                   mrpg_tables_:      4166, 4637, 4640.
        3554    ST1900                   mrpg_tables_:      4180, 4643, 4646.
        3556    ST1902                   mrpg_tables_:      4194, 4649, 4652.
        3560    ST1904                   mrpg_tables_:      4655, 4660, 6601.
        3564    ST1908                   mrpg_tables_:      4207, 4651, 4663, 4669.
        3571    ST1913                   mrpg_tables_:      4208, 4645, 4672, 4678.
        3576    ST1918                   mrpg_tables_:      4214, 4639, 4681, 4687.
        3603    ST1923                   mrpg_tables_:      4215, 4633, 4690, 4696.
        3610    ST1928                   mrpg_tables_:      4221, 4699, 4704.
         301    ST193                    mrpg_tables_:      1183, 1436, 1440, 1443.
        3614    ST1932                   mrpg_tables_:      4227, 4707, 4712.
        3620    ST1936                   mrpg_tables_:      4715, 4719, 6109.
        3623    ST1939                   mrpg_tables_:      4246, 4722, 4728, 6397, 6623, 6637, 6750.
        3630    ST1944                   mrpg_tables_:      4731, 4736, 5685.
        3634    ST1948                   mrpg_tables_:      2807, 4739, 4745.
         303    ST195                    mrpg_tables_:      1094, 1446, 1451.
        3641    ST1953                   mrpg_tables_:      4278, 4748, 4751.
        3643    ST1955                   mrpg_tables_:      4284, 4754, 4762.
        3652    ST1962                   mrpg_tables_:      4765, 4772, 6643.
        3660    ST1968                   mrpg_tables_:      4775, 4778, 6644.
        3662    ST1970                   mrpg_tables_:      4301, 4781, 4784.
        3664    ST1972                   mrpg_tables_:      4307, 4787, 4790.
        3666    ST1974                   mrpg_tables_:      4793, 4798, 6018.
        3672    ST1978                   mrpg_tables_:      4801, 4807, 6019.
        3677    ST1983                   mrpg_tables_:      1954, 4810, 4815.
        3703    ST1987                   mrpg_tables_:      4376, 4818, 4821.
        3705    ST1989                   mrpg_tables_:      4383, 4824, 4829.
         307    ST199                    mrpg_tables_:      1201, 1454, 1457.
        3711    ST1993                   mrpg_tables_:      4389, 4832, 4837.
        3715    ST1997                   mrpg_tables_:      4403, 4840, 4845.
        3721    ST2001                   mrpg_tables_:      4404, 4413, 4848, 4851.
        3723    ST2003                   mrpg_tables_:      1514, 1524, 4854, 4863.
         311    ST201                    mrpg_tables_:      1229, 1460, 1465.
        3733    ST2011                   mrpg_tables_:      4464, 4866, 4871.
        3737    ST2015                   mrpg_tables_:      4874, 4880, 6563, 6666, 6680.
        3744    ST2020                   mrpg_tables_:      4883, 4887, 6110.
        3747    ST2023                   mrpg_tables_:      4890, 4895, 6879.
        3753    ST2027                   mrpg_tables_:      1994, 4898, 4930.
        3754    ST2028                   mrpg_tables_:      4894, 4903, 4909, 5119.
        3761    ST2033                   mrpg_tables_:      4912, 4923, 6708, 6793.
        3773    ST2043                   mrpg_tables_:      4926, 4931, 6700, 6785.
        3777    ST2047                   mrpg_tables_:      4586, 4934, 4941.
         315    ST205                    mrpg_tables_:      1230, 1468, 1473.
        4005    ST2053                   mrpg_tables_:      4592, 4944, 6111.
        4006    ST2054                   mrpg_tables_:      4949, 4952, 6714.
        4010    ST2056                   mrpg_tables_:      4955, 4958, 6728.
        4012    ST2058                   mrpg_tables_:      4618, 4961, 4964.
        4014    ST2060                   mrpg_tables_:      4717, 4967, 4971.
        4017    ST2063                   mrpg_tables_:      4750, 4974, 4982.
        4026    ST2070                   mrpg_tables_:      4985, 4992, 6756.
        4034    ST2076                   mrpg_tables_:      4995, 4998, 6757.
        4036    ST2078                   mrpg_tables_:      5001, 5004, 6771.
        4040    ST2080                   mrpg_tables_:      4777, 5007, 5012.
        4044    ST2084                   mrpg_tables_:      4783, 5015, 5025.
         321    ST209                    mrpg_tables_:      1236, 1476, 1479.
        4055    ST2093                   mrpg_tables_:      4789, 5028, 5033.
        4061    ST2097                   mrpg_tables_:      4795, 5036, 5041.
        4065    ST2101                   mrpg_tables_:      4803, 5044, 5049.
        4071    ST2105                   mrpg_tables_:      4805, 5052, 6020.
        4072    ST2106                   mrpg_tables_:      4820, 4969, 5057, 5060.
        4074    ST2108                   mrpg_tables_:      4413, 5063, 5068.
         323    ST211                    mrpg_tables_:      1482, 1487, 2263.
        4100    ST2112                   mrpg_tables_:      4861, 5071, 5074.
        4102    ST2114                   mrpg_tables_:      4862, 5077, 5082.
        4106    ST2118                   mrpg_tables_:      4885, 5085, 5090.
        4112    ST2122                   mrpg_tables_:      1994, 5093, 5112.
        4134    ST2140                   mrpg_tables_:      5115, 5120, 6880.
        4140    ST2144                   mrpg_tables_:      5123, 5126, 6799.
        4142    ST2146                   mrpg_tables_:      5129, 5133, 6111.
        4145    ST2149                   mrpg_tables_:      4951, 5136, 6112.
         327    ST215                    mrpg_tables_:      1486, 1490, 1495, 2883.
        4146    ST2150                   mrpg_tables_:      4957, 5141, 6113.
        4147    ST2151                   mrpg_tables_:      4963, 5146, 5417.
        4150    ST2152                   mrpg_tables_:      4970, 5151, 5154.
        4152    ST2154                   mrpg_tables_:      5157, 5164, 6813.
        4160    ST2160                   mrpg_tables_:      5167, 5170, 6814.
        4162    ST2162                   mrpg_tables_:      5173, 5176, 6828.
        4164    ST2164                   mrpg_tables_:      4997, 5179, 5184.
        4170    ST2168                   mrpg_tables_:      5003, 5187, 5192.
        4174    ST2172                   mrpg_tables_:      5195, 5198, 6842.
        4176    ST2174                   mrpg_tables_:      5201, 5208, 6843.
        4204    ST2180                   mrpg_tables_:      5211, 5214, 6844.
        4206    ST2182                   mrpg_tables_:      5217, 5225, 6845.
        4215    ST2189                   mrpg_tables_:      5228, 5233, 6020.
         333    ST219                    mrpg_tables_:      1242, 1498, 1505, 2241.
        4221    ST2193                   mrpg_tables_:      5059, 5236, 6114.
        4222    ST2194                   mrpg_tables_:      5073, 5241, 5246.
        4226    ST2198                   mrpg_tables_:      5249, 5252, 5359.
        4230    ST2200                   mrpg_tables_:      5255, 5260, 5294.
        4234    ST2204                   mrpg_tables_:      5259, 5263, 5281, 5514.
        4255    ST2221                   mrpg_tables_:      5284, 5287, 6859, 6929.
        4257    ST2223                   mrpg_tables_:      5290, 5296, 5343, 5351, 5373, 5381, 5522, 5536, 5544, 5558, 5715,
                                                            5723, 5751, 6860, 6930, 6962.
        4264    ST2228                   mrpg_tables_:      5299, 5302, 6861, 6931.
        4266    ST2230                   mrpg_tables_:      5305, 5308, 6862, 6932.
        4270    ST2232                   mrpg_tables_:      5311, 5314, 6864, 6933.
        4272    ST2234                   mrpg_tables_:      5317, 5336, 6865, 6934.
         341    ST225                    mrpg_tables_:      1508, 1516, 1560, 1609, 3126, 3940, 4472, 4870, 5081, 5245.
        4314    ST2252                   mrpg_tables_:      5339, 5344, 6866, 6935.
        4320    ST2256                   mrpg_tables_:      5347, 5352, 6867, 6936.
        4324    ST2260                   mrpg_tables_:      5355, 5360, 6868, 6937.
        4330    ST2264                   mrpg_tables_:      5363, 5366, 6869, 6938.
        4332    ST2266                   mrpg_tables_:      5369, 5374, 6870, 6939.
        4336    ST2270                   mrpg_tables_:      5377, 5382, 6871, 6940.
        4342    ST2274                   mrpg_tables_:      5125, 5385, 6115.
        4343    ST2275                   mrpg_tables_:      5131, 5390, 5395.
        4347    ST2279                   mrpg_tables_:      5398, 5402, 6112.
        4352    ST2282                   mrpg_tables_:      5405, 5409, 6113.
        4355    ST2285                   mrpg_tables_:      5412, 5417, 5418, 6144.
        4362    ST2290                   mrpg_tables_:      5153, 5421, 6116.
        4363    ST2291                   mrpg_tables_:      5426, 5429, 6886.
        4365    ST2293                   mrpg_tables_:      5169, 5432, 5437.
        4371    ST2297                   mrpg_tables_:      5175, 5440, 5445.
        4375    ST2301                   mrpg_tables_:      5197, 5448, 5456.
        4404    ST2308                   mrpg_tables_:      5459, 5462, 6900.
        4406    ST2310                   mrpg_tables_:      5213, 5465, 5470.
        4412    ST2314                   mrpg_tables_:      5473, 5480, 6914.
         350    ST232                    mrpg_tables_:      1512, 1519, 1526, 2280.
        4420    ST2320                   mrpg_tables_:      5483, 5486, 6915.
        4422    ST2322                   mrpg_tables_:      5230, 5489, 5494.
        4426    ST2326                   mrpg_tables_:      5497, 5501, 6114.
        4431    ST2329                   mrpg_tables_:      3941, 5251, 5504, 5507.
        4433    ST2331                   mrpg_tables_:      5295, 5510, 5515.
        4437    ST2335                   mrpg_tables_:      5286, 5518, 5523.
        4443    ST2339                   mrpg_tables_:      5301, 5526, 5529.
        4445    ST2341                   mrpg_tables_:      5307, 5532, 5537.
        4451    ST2345                   mrpg_tables_:      5313, 5540, 5545.
        4455    ST2349                   mrpg_tables_:      5548, 5551, 6954.
        4457    ST2351                   mrpg_tables_:      5365, 5554, 5559.
        4463    ST2355                   mrpg_tables_:      5562, 5566, 6115.
        4466    ST2358                   mrpg_tables_:      5400, 5569, 5574.
        4472    ST2362                   mrpg_tables_:      5407, 5577, 5582.
        4476    ST2366                   mrpg_tables_:      5585, 5589, 6116.
        4501    ST2369                   mrpg_tables_:      5428, 5592, 5597.
        4505    ST2373                   mrpg_tables_:      5600, 5607, 6968.
        4513    ST2379                   mrpg_tables_:      5610, 5613, 6969.
         356    ST238                    mrpg_tables_:      1525, 1529, 1542.
        4515    ST2381                   mrpg_tables_:      5461, 5616, 5621.
        4521    ST2385                   mrpg_tables_:      5624, 5627, 6983.
        4523    ST2387                   mrpg_tables_:      5485, 5630, 5635.
        4527    ST2391                   mrpg_tables_:      5499, 5638, 5649.
          30    ST24                     mrpg_tables_:      1115, 1118, 1215.
        4541    ST2401                   mrpg_tables_:      1617, 3942, 5652, 5656.
        4544    ST2404                   mrpg_tables_:      5528, 5659, 5662.
        4546    ST2406                   mrpg_tables_:      5550, 5665, 5668.
        4550    ST2408                   mrpg_tables_:      5564, 5671, 5676.
        4554    ST2412                   mrpg_tables_:      5587, 5679, 5686.
        4562    ST2418                   mrpg_tables_:      5689, 5692, 6997.
        4564    ST2420                   mrpg_tables_:      5612, 5695, 5700.
        4570    ST2424                   mrpg_tables_:      5626, 5703, 5708.
        4574    ST2428                   mrpg_tables_:      5654, 5711, 5716.
        4600    ST2432                   mrpg_tables_:      5661, 5719, 5724.
        4604    ST2436                   mrpg_tables_:      5667, 5727, 5730.
        4606    ST2438                   mrpg_tables_:      5691, 5733, 5738.
        4612    ST2442                   mrpg_tables_:      5729, 5741, 5744.
        4614    ST2444                   mrpg_tables_:      5743, 5747, 5752.
        4620    ST2448                   mrpg_tables_:      1109, 5755, 5758.
        4622    ST2450                   mrpg_tables_:      1100, 1101, 1102, 1103, 1104, 1105, 1106, 1107, 1108, 1110, 1111,
                                                            5761, 5766.
        4626    ST2454                   mrpg_tables_:      1131, 1132, 1133, 1134, 1135, 1136, 5769, 5777, 5833.
        4635    ST2461                   mrpg_tables_:      1137, 5780, 5785.
        4641    ST2465                   mrpg_tables_:      1165, 1166, 1167, 1168, 5788, 5794, 5869.
        4646    ST2470                   mrpg_tables_:      1169, 5797, 5802.
        4652    ST2474                   mrpg_tables_:      1248, 1255, 1256, 1257, 1258, 1525, 5805.
        4653    ST2475                   mrpg_tables_:      1249, 1250, 1251, 1252, 1253, 1254, 5810, 5815.
        4657    ST2479                   mrpg_tables_:      1273, 1618, 3943, 5818, 5821.
        4661    ST2481                   mrpg_tables_:      1272, 5824, 5829.
        4665    ST2485                   mrpg_tables_:      1287, 1288, 1289, 1290, 1291, 1292, 1683, 5832.
        4666    ST2486                   mrpg_tables_:      1293, 5837, 5842.
        4672    ST2490                   mrpg_tables_:      5845, 5848, 5862, 5863, 5864.
        4674    ST2492                   mrpg_tables_:      5851, 5856, 5861.
        4700    ST2496                   mrpg_tables_:      1299, 5859, 5865.
         372    ST250                    mrpg_tables_:      1545, 1553, 5814, 5933.
        4705    ST2501                   mrpg_tables_:      1361, 1362, 1363, 1364, 2179, 5868.
        4706    ST2502                   mrpg_tables_:      1365, 5873, 5878.
        4712    ST2506                   mrpg_tables_:      1408, 5881, 5884.
        4714    ST2508                   mrpg_tables_:      1404, 1405, 1406, 1407, 1409, 5887, 5892.
        4720    ST2512                   mrpg_tables_:      1419, 5895, 5898.
        4722    ST2514                   mrpg_tables_:      1415, 1416, 1417, 1418, 1420, 5901, 5906.
        4726    ST2518                   mrpg_tables_:      1502, 1503, 5909, 5913.
        4731    ST2521                   mrpg_tables_:      1500, 1501, 1504, 5916, 5921.
        4735    ST2525                   mrpg_tables_:      1515, 1531, 1538, 1539, 1540, 1541, 5924.
        4736    ST2526                   mrpg_tables_:      1532, 1533, 1534, 1535, 1536, 1537, 5929, 5934.
        4742    ST2530                   mrpg_tables_:      1552, 5937, 5940.
        4744    ST2532                   mrpg_tables_:      1547, 1548, 1549, 1550, 1551, 5943, 5948.
        4750    ST2536                   mrpg_tables_:      1625, 3944, 5951, 5954.
        4752    ST2538                   mrpg_tables_:      1624, 5957, 5962.
        4756    ST2542                   mrpg_tables_:      4060, 5965, 5968, 5982, 5983, 5984.
        4760    ST2544                   mrpg_tables_:      5971, 5976, 5981.
        4764    ST2548                   mrpg_tables_:      1653, 5979, 5985.
        4771    ST2553                   mrpg_tables_:      1794, 1796, 4727, 5988, 5992.
        4774    ST2556                   mrpg_tables_:      1795, 5995, 6000.
        5000    ST2560                   mrpg_tables_:      1840, 1844, 6003, 6007, 6402, 6415.
        5003    ST2563                   mrpg_tables_:      1839, 1841, 1842, 1843, 1845, 1846, 1847, 1848, 1849, 1850, 1851,
                                                            1852, 1853, 1854, 1855, 1856, 1857, 1858, 1859, 1860, 1861, 1862,
                                                            1863, 1864, 1865, 1866, 1867, 1868, 1869, 1870, 1871, 1872, 1873,
                                                            1874, 1875, 1876, 1877, 1878, 1879, 1880, 1881, 1882, 1883, 1884,
                                                            1885, 1886, 1887, 1888, 1889, 1890, 6010, 6021, 6410, 6423.
         401    ST257                    mrpg_tables_:      1556, 1561, 3062, 3890, 4856.
        5015    ST2573                   mrpg_tables_:      1897, 1899, 6024, 6028.
        5020    ST2576                   mrpg_tables_:      1896, 1898, 1900, 1901, 1902, 1903, 1904, 1905, 1906, 1907, 1908,
                                                            1909, 1910, 1911, 1912, 1913, 1914, 1915, 1916, 1917, 1918, 1919,
                                                            1920, 1921, 1922, 1923, 1924, 1925, 1926, 1927, 1928, 1929, 1930,
                                                            1931, 1932, 1933, 1934, 1935, 1936, 1937, 1938, 1939, 1940, 1941,
                                                            1942, 1943, 1944, 1945, 6031, 6036.
        5024    ST2580                   mrpg_tables_:      1970, 6039, 6042.
        5026    ST2582                   mrpg_tables_:      1969, 1971, 1972, 1973, 1974, 6045, 6050.
        5032    ST2586                   mrpg_tables_:      2166, 6053, 6056.
        5034    ST2588                   mrpg_tables_:      2165, 2167, 2168, 2169, 2170, 6059, 6064.
        5040    ST2592                   mrpg_tables_:      2314, 2315, 2316, 2317, 2318, 2319, 2320, 2321, 2322, 2323, 2324,
                                                            2325, 6067, 6081.
          32    ST26                     mrpg_tables_:      1121, 1126, 3968.
        5055    ST2605                   mrpg_tables_:      2310, 2311, 2312, 2313, 2326, 2327, 6084, 6089.
        5061    ST2609                   mrpg_tables_:      2379, 6092, 6095.
         405    ST261                    mrpg_tables_:      1564, 1590, 2101, 2469, 2737, 2797, 3056, 3063, 3071, 3682, 3891,
                                                            4122, 4240, 4555, 4857, 4945, 5137, 5142, 5237, 5386, 5422.
        5063    ST2611                   mrpg_tables_:      2376, 2377, 2378, 2380, 2381, 6098, 6117, 6535.
        5105    ST2629                   mrpg_tables_:      2508, 4534, 6120, 6123.
        5107    ST2631                   mrpg_tables_:      2507, 6126, 6131.
        5113    ST2635                   mrpg_tables_:      2587, 6134, 6137.
        5115    ST2637                   mrpg_tables_:      2586, 6140, 6145.
        5121    ST2641                   mrpg_tables_:      2601, 2605, 6148, 6152.
        5124    ST2644                   mrpg_tables_:      2599, 2600, 2602, 2603, 2604, 2606, 2607, 2608, 2609, 6155, 6160.
        5130    ST2648                   mrpg_tables_:      2617, 6163, 6166.
        5132    ST2650                   mrpg_tables_:      2615, 2616, 2618, 2619, 2620, 2621, 2622, 2623, 2624, 6169, 6174.
        5136    ST2654                   mrpg_tables_:      2674, 3406, 6177, 6180.
        5140    ST2656                   mrpg_tables_:      2675, 6183, 6188.
        5144    ST2660                   mrpg_tables_:      2829, 2845, 2846, 2847, 2848, 2849, 5646, 6191.
        5145    ST2661                   mrpg_tables_:      2843, 2844, 2850, 6196, 6202.
        5152    ST2666                   mrpg_tables_:      2939, 6205, 6208.
        5154    ST2668                   mrpg_tables_:      2925, 2926, 2927, 2928, 2929, 2930, 2931, 2932, 2933, 2934, 2935,
                                                            2936, 2937, 2938, 2940, 2941, 2942, 6211, 6216.
        5160    ST2672                   mrpg_tables_:      2962, 6219, 6222.
        5162    ST2674                   mrpg_tables_:      2948, 2949, 2950, 2951, 2952, 2953, 2954, 2955, 2956, 2957, 2958,
                                                            2959, 2960, 2961, 2963, 2964, 2965, 6225, 6230.
        5166    ST2678                   mrpg_tables_:      2985, 6233, 6236.
        5170    ST2680                   mrpg_tables_:      2971, 2972, 2973, 2974, 2975, 2976, 2977, 2978, 2979, 2980, 2981,
                                                            2982, 2983, 2984, 2986, 2987, 2988, 6239, 6244.
        5174    ST2684                   mrpg_tables_:      3108, 6247, 6250.
        5176    ST2686                   mrpg_tables_:      3104, 3105, 3106, 3107, 3109, 3110, 6253, 6258.
        5202    ST2690                   mrpg_tables_:      3140, 4879, 6261, 6264.
        5204    ST2692                   mrpg_tables_:      3139, 6267, 6272.
        5210    ST2696                   mrpg_tables_:      3214, 4917, 6275, 6278.
        5212    ST2698                   mrpg_tables_:      3213, 6281, 6286.
        5216    ST2702                   mrpg_tables_:      3227, 4918, 6289, 6292.
        5220    ST2704                   mrpg_tables_:      3226, 6295, 6300.
        5224    ST2708                   mrpg_tables_:      3282, 4695, 6303, 6306.
        5226    ST2710                   mrpg_tables_:      3281, 6309, 6314.
        5232    ST2714                   mrpg_tables_:      3297, 4686, 6317, 6320.
        5234    ST2716                   mrpg_tables_:      3296, 6323, 6328.
        5240    ST2720                   mrpg_tables_:      3312, 4677, 6331, 6334.
        5242    ST2722                   mrpg_tables_:      3311, 6337, 6342.
        5246    ST2726                   mrpg_tables_:      3327, 4668, 6345, 6348.
        5250    ST2728                   mrpg_tables_:      3326, 6351, 6356.
        5254    ST2732                   mrpg_tables_:      3352, 6359, 6362.
        5256    ST2734                   mrpg_tables_:      3351, 6365, 6370.
        5262    ST2738                   mrpg_tables_:      3359, 6373, 6376.
        5264    ST2740                   mrpg_tables_:      3358, 6379, 6384.
        5270    ST2744                   mrpg_tables_:      2806, 3434, 5684, 6387, 6390.
        5272    ST2746                   mrpg_tables_:      3432, 3433, 3435, 6393, 6398.
        5276    ST2750                   mrpg_tables_:      3472, 3476, 6401.
        5277    ST2751                   mrpg_tables_:      3471, 3473, 3474, 3475, 3477, 3478, 3479, 3480, 3481, 3482, 3483,
                                                            3484, 3485, 3486, 3487, 3488, 3489, 3490, 3491, 3492, 3493, 3494,
                                                            3495, 3496, 3497, 3498, 3499, 3500, 3501, 3502, 3503, 3504, 3505,
                                                            3506, 3507, 3508, 3509, 3510, 3511, 3512, 3513, 3514, 3515, 3516,
                                                            3517, 3518, 3519, 3520, 3521, 3522, 6406, 6411.
        5303    ST2755                   mrpg_tables_:      3529, 3533, 6414.
        5304    ST2756                   mrpg_tables_:      3528, 3530, 3531, 3532, 3534, 3535, 3536, 3537, 3538, 3539, 3540,
                                                            3541, 3542, 3543, 3544, 3545, 3546, 3547, 3548, 3549, 3550, 3551,
                                                            3552, 3553, 3554, 3555, 3556, 3557, 3558, 3559, 3560, 3561, 3562,
                                                            3563, 3564, 3565, 3566, 3567, 3568, 3569, 3570, 3571, 3572, 3573,
                                                            3574, 3575, 3576, 3577, 3578, 3579, 6419, 6424.
        5310    ST2760                   mrpg_tables_:      3706, 6427, 6430.
        5312    ST2762                   mrpg_tables_:      3703, 3704, 3705, 3707, 3708, 3709, 3710, 3711, 6433, 6438.
        5316    ST2766                   mrpg_tables_:      3743, 6441, 6444.
        5320    ST2768                   mrpg_tables_:      3739, 3740, 3741, 3742, 3744, 3745, 6447, 6452.
        5324    ST2772                   mrpg_tables_:      3755, 6455, 6458.
        5326    ST2774                   mrpg_tables_:      3751, 3752, 3753, 3754, 3756, 3757, 6461, 6466.
        5332    ST2778                   mrpg_tables_:      3767, 6469, 6472.
        5334    ST2780                   mrpg_tables_:      3763, 3764, 3765, 3766, 3768, 3769, 6475, 6480.
        5340    ST2784                   mrpg_tables_:      3821, 6483, 6486.
        5342    ST2786                   mrpg_tables_:      3807, 3808, 3809, 3810, 3811, 3812, 3813, 3814, 3815, 3816, 3817,
                                                            3818, 3819, 3820, 3822, 3823, 3824, 6489, 6494.
        5346    ST2790                   mrpg_tables_:      3844, 6497, 6500.
        5350    ST2792                   mrpg_tables_:      3830, 3831, 3832, 3833, 3834, 3835, 3836, 3837, 3838, 3839, 3840,
                                                            3841, 3842, 3843, 3845, 3846, 3847, 6503, 6508.
        5354    ST2796                   mrpg_tables_:      3867, 6511, 6514.
        5356    ST2798                   mrpg_tables_:      3853, 3854, 3855, 3856, 3857, 3858, 3859, 3860, 3861, 3862, 3863,
                                                            3864, 3865, 3866, 3868, 3869, 3870, 6517, 6522.
        5362    ST2802                   mrpg_tables_:      3906, 6525, 6528.
        5364    ST2804                   mrpg_tables_:      3903, 3904, 3905, 3907, 3908, 6531, 6536.
        5370    ST2808                   mrpg_tables_:      4017, 4018, 4019, 4021, 6539, 6564.
        5371    ST2809                   mrpg_tables_:      4016, 4020, 6544, 6549.
        5375    ST2813                   mrpg_tables_:      4029, 4919, 6552, 6555.
        5377    ST2815                   mrpg_tables_:      4027, 4028, 6558, 6565, 6694.
        5405    ST2821                   mrpg_tables_:      4094, 4096, 4097, 4098, 6568, 6574.
        5412    ST2826                   mrpg_tables_:      4095, 4099, 4100, 4101, 6577, 6582.
        5416    ST2830                   mrpg_tables_:      4138, 6585, 6588.
        5420    ST2832                   mrpg_tables_:      4137, 6591, 6596.
        5424    ST2836                   mrpg_tables_:      4201, 6599, 6602.
        5426    ST2838                   mrpg_tables_:      4200, 6605, 6610.
        5432    ST2842                   mrpg_tables_:      2807, 4262, 5685, 6613, 6616.
        5434    ST2844                   mrpg_tables_:      4260, 4261, 4263, 6619, 6624.
        5440    ST2848                   mrpg_tables_:      4271, 5647, 6627, 6630.
        5442    ST2850                   mrpg_tables_:      4269, 4270, 4272, 6633, 6638.
        5446    ST2854                   mrpg_tables_:      4293, 4294, 6641, 6645.
        5451    ST2857                   mrpg_tables_:      4290, 4291, 4292, 4295, 6648, 6653.
         436    ST286                    mrpg_tables_:      1593, 1596, 3064, 3892, 4858.
        5455    ST2861                   mrpg_tables_:      4512, 4920, 6656, 6659.
        5457    ST2863                   mrpg_tables_:      4510, 4511, 6662, 6667.
        5463    ST2867                   mrpg_tables_:      4520, 4921, 6670, 6673.
        5465    ST2869                   mrpg_tables_:      4518, 4519, 6676, 6681.
        5471    ST2873                   mrpg_tables_:      4542, 4922, 6684, 6687.
        5473    ST2875                   mrpg_tables_:      4540, 4541, 6690, 6695.
        5477    ST2879                   mrpg_tables_:      4580, 6698, 6701.
         440    ST288                    mrpg_tables_:      1599, 1602, 3065, 3893, 4859, 5506, 5655, 5820, 5953.
        5501    ST2881                   mrpg_tables_:      4577, 4578, 4579, 6704, 6709.
        5505    ST2885                   mrpg_tables_:      4599, 6712, 6715.
        5507    ST2887                   mrpg_tables_:      4598, 4600, 4601, 4602, 6718, 6723.
        5513    ST2891                   mrpg_tables_:      4609, 6726, 6729.
        5515    ST2893                   mrpg_tables_:      4608, 4610, 4611, 4612, 6732, 6737.
        5521    ST2897                   mrpg_tables_:      4743, 5648, 6740, 6743.
        5523    ST2899                   mrpg_tables_:      4741, 4742, 4744, 6746, 6751.
         442    ST290                    mrpg_tables_:      1605, 1610, 3066, 3894, 4860.
        5527    ST2903                   mrpg_tables_:      4759, 4760, 6754, 6758.
        5532    ST2906                   mrpg_tables_:      4756, 4757, 4758, 4761, 6761, 6766.
        5536    ST2910                   mrpg_tables_:      4770, 6769, 6772.
        5540    ST2912                   mrpg_tables_:      4767, 4768, 4769, 4771, 6775, 6780.
        5544    ST2916                   mrpg_tables_:      4908, 6783, 6786, 6880.
        5546    ST2918                   mrpg_tables_:      4905, 4906, 4907, 6789, 6794.
        5552    ST2922                   mrpg_tables_:      4937, 6797, 6800.
        5554    ST2924                   mrpg_tables_:      4936, 4938, 4939, 4940, 6803, 6808.
        5560    ST2928                   mrpg_tables_:      4979, 4980, 6811, 6815.
        5563    ST2931                   mrpg_tables_:      4976, 4977, 4978, 4981, 6818, 6823.
        5567    ST2935                   mrpg_tables_:      4990, 6826, 6829.
        5571    ST2937                   mrpg_tables_:      4987, 4988, 4989, 4991, 6832, 6837.
         446    ST294                    mrpg_tables_:      1613, 1619, 2477, 3941, 3943.
        5575    ST2941                   mrpg_tables_:      5019, 5021, 5022, 5024, 6840, 6846.
        5602    ST2946                   mrpg_tables_:      5017, 5018, 5020, 5023, 6849, 6854.
        5606    ST2950                   mrpg_tables_:      5096, 5097, 5098, 5099, 5100, 5101, 5102, 5103, 5104, 5105, 5106,
                                                            5107, 5111, 6857, 6872.
        5624    ST2964                   mrpg_tables_:      5095, 5108, 5109, 5110, 6875, 6881, 6948.
        5631    ST2969                   mrpg_tables_:      5162, 6884, 6887.
        5633    ST2971                   mrpg_tables_:      5159, 5160, 5161, 5163, 6890, 6895.
        5637    ST2975                   mrpg_tables_:      5206, 6898, 6901.
        5641    ST2977                   mrpg_tables_:      5203, 5204, 5205, 5207, 6904, 6909.
        5645    ST2981                   mrpg_tables_:      5222, 5223, 6912, 6916.
        5650    ST2984                   mrpg_tables_:      5219, 5220, 5221, 5224, 6919, 6924.
        5654    ST2988                   mrpg_tables_:      5266, 5267, 5268, 5269, 5270, 5271, 5272, 5273, 5274, 5275, 5276,
                                                            5280, 5295, 6927, 6941.
         453    ST299                    mrpg_tables_:      1618, 1622, 1626.
          36    ST30                     mrpg_tables_:      1129, 1138, 2235.
        5671    ST3001                   mrpg_tables_:      5265, 5277, 5278, 5279, 6944, 6949.
        5675    ST3005                   mrpg_tables_:      5319, 6952, 6955.
        5677    ST3007                   mrpg_tables_:      5320, 5321, 5322, 5323, 5324, 5325, 5326, 5327, 5328, 5329, 5330,
                                                            5331, 5332, 5333, 5334, 5335, 6958, 6963.
        5703    ST3011                   mrpg_tables_:      5453, 5454, 6966, 6970.
        5706    ST3014                   mrpg_tables_:      5450, 5451, 5452, 5455, 6973, 6978.
        5712    ST3018                   mrpg_tables_:      5478, 6981, 6984.
         456    ST302                    mrpg_tables_:      1629, 1632, 5828, 5961.
        5714    ST3020                   mrpg_tables_:      5475, 5476, 5477, 5479, 6987, 6992.
        5720    ST3024                   mrpg_tables_:      5605, 6995, 6998.
        5722    ST3026                   mrpg_tables_:      5602, 5603, 5604, 5606, 7001, 7006.
         460    ST304                    mrpg_tables_:      1635, 1640, 1683.
         464    ST308                    mrpg_tables_:      1643, 1648, 4059.
         470    ST312                    mrpg_tables_:      1647, 1651, 1654, 2493.
         472    ST314                    mrpg_tables_:      1657, 1660, 5855, 5975.
         474    ST316                    mrpg_tables_:      1663, 1668, 5847, 5967.
         500    ST320                    mrpg_tables_:      1305, 1671, 1675.
         503    ST323                    mrpg_tables_:      1311, 1678, 1684, 1691, 1699, 1724, 1732, 3235, 3255.
         510    ST328                    mrpg_tables_:      1317, 1687, 1692.
         514    ST332                    mrpg_tables_:      1695, 1700, 4131.
         520    ST336                    mrpg_tables_:      1323, 1703, 1707, 5147.
         523    ST339                    mrpg_tables_:      1324, 1705, 1710, 1985.
         524    ST340                    mrpg_tables_:      1325, 1706, 1715, 1986.
         525    ST341                    mrpg_tables_:      1331, 1720, 1725.
         531    ST345                    mrpg_tables_:      1337, 1728, 1733.
         535    ST349                    mrpg_tables_:      1736, 1739, 1746, 1760, 4235, 4627, 4659, 6595, 6609.
         537    ST351                    mrpg_tables_:      1343, 1742, 1747.
         543    ST355                    mrpg_tables_:      1344, 1750, 1753.
         545    ST357                    mrpg_tables_:      1345, 1756, 1761.
         551    ST361                    mrpg_tables_:      1346, 1764, 1767.
         553    ST363                    mrpg_tables_:      1347, 1770, 1773.
         555    ST365                    mrpg_tables_:      1776, 1781, 2179.
         561    ST369                    mrpg_tables_:      1784, 1789, 4726.
         565    ST373                    mrpg_tables_:      1788, 1792, 1797, 2660.
         571    ST377                    mrpg_tables_:      1371, 1800, 1804, 5991.
          46    ST38                     mrpg_tables_:      1141, 1146, 2632.
         574    ST380                    mrpg_tables_:      1807, 1814, 2002, 2143, 2151, 3624, 4333.
         602    ST386                    mrpg_tables_:      1811, 1817, 1824, 2774, 2787, 3638, 4341, 4349.
         610    ST392                    mrpg_tables_:      1821, 1827, 1834, 3457, 3465.
         616    ST398                    mrpg_tables_:      1831, 1837, 1891.
          52    ST42                     mrpg_tables_:      1149, 1152, 1223.
          54    ST44                     mrpg_tables_:      1155, 1160, 3397.
         703    ST451                    mrpg_tables_:      1894, 1946, 6014.
          60    ST48                     mrpg_tables_:      1163, 1170, 1464.
         766    ST502                    mrpg_tables_:      1949, 1955, 2034, 2042, 2050, 2058, 2096, 2159, 4320, 5040, 5048,
                                                            5493, 6035.
         773    ST507                    mrpg_tables_:      1953, 1958, 1964, 4814.
        1000    ST512                    mrpg_tables_:      1967, 1975, 1983.
        1007    ST519                    mrpg_tables_:      1962, 1978, 1995, 3587.
        1027    ST535                    mrpg_tables_:      1998, 2003, 5032.
        1033    ST539                    mrpg_tables_:      2006, 2009, 2135.
          66    ST54                     mrpg_tables_:      1173, 1178, 2209, 3677.
        1035    ST541                    mrpg_tables_:      2012, 2015, 2072.
        1037    ST543                    mrpg_tables_:      2018, 2021, 2080.
        1041    ST545                    mrpg_tables_:      2024, 2027, 2088.
        1043    ST547                    mrpg_tables_:      1377, 1567, 2030, 2035, 2429, 4355.
        1047    ST551                    mrpg_tables_:      1378, 1569, 2038, 2043, 2431, 4356.
        1053    ST555                    mrpg_tables_:      1379, 1571, 2046, 2051, 2433, 4357.
        1057    ST559                    mrpg_tables_:      1380, 1572, 2054, 2059, 2434, 4358.
        1063    ST563                    mrpg_tables_:      1381, 1573, 2062, 2065, 2107, 2117, 2435, 2706, 4359.
        1065    ST565                    mrpg_tables_:      1382, 1575, 2068, 2073, 2437, 4360.
        1071    ST569                    mrpg_tables_:      1383, 1576, 2076, 2081, 2438, 4361.
        1075    ST573                    mrpg_tables_:      1384, 1577, 2084, 2089, 2439, 4362.
        1101    ST577                    mrpg_tables_:      1385, 1578, 2092, 2097, 2440, 4363.
          72    ST58                     mrpg_tables_:      1181, 1184, 1472.
        1105    ST581                    mrpg_tables_:      1386, 1579, 2100, 2441, 2707, 4364, 6103.
        1106    ST582                    mrpg_tables_:      1387, 1580, 1812, 2105, 2112, 2442, 2708, 4365.
        1114    ST588                    mrpg_tables_:      1388, 1581, 1813, 2115, 2122, 2443, 2709, 4366.
        1122    ST594                    mrpg_tables_:      1389, 1583, 2125, 2128, 2445.
        1124    ST596                    mrpg_tables_:      1390, 1585, 2109, 2119, 2131, 2136, 2446, 2710, 4367.
           6    ST6                      mrpg_tables_:      1089, 1095, 1125, 1145, 1159, 1177, 2288.
          74    ST60                     mrpg_tables_:      1093, 1187, 1192.
        1130    ST600                    mrpg_tables_:      1391, 1587, 2110, 2120, 2139, 2144, 2448, 2711, 4368.
        1134    ST604                    mrpg_tables_:      1392, 1588, 2111, 2121, 2147, 2152, 2449, 2712, 4369.
        1140    ST608                    mrpg_tables_:      1393, 1589, 2155, 2160, 2450, 4370.
        1144    ST612                    mrpg_tables_:      1984, 2163, 2171.
        1153    ST619                    mrpg_tables_:      2174, 2180, 2187, 5883, 5891, 5905, 6049, 6063.
        1160    ST624                    mrpg_tables_:      2183, 2188, 5897.
        1164    ST628                    mrpg_tables_:      2191, 2196, 6201.
        1170    ST632                    mrpg_tables_:      1434, 2199, 2202.
        1172    ST634                    mrpg_tables_:      1435, 2205, 2210.
        1176    ST638                    mrpg_tables_:      1442, 2213, 2220, 5643, 6192.
         100    ST64                     mrpg_tables_:      1094, 1191, 1195, 1202, 1450.
        1204    ST644                    mrpg_tables_:      1456, 2223, 2228.
        1210    ST648                    mrpg_tables_:      1478, 2231, 2236.
        1214    ST652                    mrpg_tables_:      1492, 2239, 2242, 2264.
        1216    ST654                    mrpg_tables_:      1493, 2245, 2250.
        1222    ST658                    mrpg_tables_:      1494, 2253, 2256.
        1224    ST660                    mrpg_tables_:      2259, 2265, 2272, 5911, 5920.
        1231    ST665                    mrpg_tables_:      2268, 2273, 5912.
        1235    ST669                    mrpg_tables_:      1513, 1514, 1515, 2276, 2281.
        1241    ST673                    mrpg_tables_:      2284, 2289, 2904, 3733, 5947.
        1245    ST677                    mrpg_tables_:      2292, 2297, 2304, 2572.
        1251    ST681                    mrpg_tables_:      2300, 2305, 5939.
        1255    ST685                    mrpg_tables_:      1982, 2308, 2328.
         106    ST70                     mrpg_tables_:      1205, 1208, 2227.
        1300    ST704                    mrpg_tables_:      2331, 2337, 2402, 2422, 2458, 4480, 4488, 4496, 4504, 6088, 6257.
        1305    ST709                    mrpg_tables_:      2335, 2340, 2346, 2353, 2361, 3118.
        1312    ST714                    mrpg_tables_:      2349, 2354, 3801, 4445.
        1316    ST718                    mrpg_tables_:      2357, 2362, 6451, 6465, 6479.
         110    ST72                     mrpg_tables_:      1082, 1197, 1211, 1216.
        1322    ST722                    mrpg_tables_:      2344, 2365, 2371, 3884.
        1327    ST727                    mrpg_tables_:      2369, 2374, 2382.
        1336    ST734                    mrpg_tables_:      2385, 2389, 6102.
        1341    ST737                    mrpg_tables_:      1566, 2392, 2395, 2428.
        1343    ST739                    mrpg_tables_:      1568, 2398, 2403, 2430.
        1347    ST743                    mrpg_tables_:      1570, 2406, 2409, 2432.
        1351    ST745                    mrpg_tables_:      1574, 2412, 2415, 2436.
        1353    ST747                    mrpg_tables_:      1582, 2418, 2423, 2444.
        1357    ST751                    mrpg_tables_:      1584, 1987, 2336, 2426, 2451.
         114    ST76                     mrpg_tables_:      1083, 1198, 1219, 1224.
        1407    ST775                    mrpg_tables_:      1586, 2447, 2454, 2459.
        1413    ST779                    mrpg_tables_:      1595, 2462, 2465.
        1415    ST781                    mrpg_tables_:      1601, 2468, 6104.
        1416    ST782                    mrpg_tables_:      2473, 2478, 3942, 3944.
        1422    ST786                    mrpg_tables_:      1631, 2481, 2486.
        1426    ST790                    mrpg_tables_:      2489, 2494, 4060.
        1432    ST794                    mrpg_tables_:      2497, 2502, 4533.
        1436    ST798                    mrpg_tables_:      2501, 2505, 2509, 3154.
         120    ST80                     mrpg_tables_:      1084, 1199, 1227, 1231.
        1441    ST801                    mrpg_tables_:      1659, 2512, 2515.
        1443    ST803                    mrpg_tables_:      2518, 2521, 2540.
        1445    ST805                    mrpg_tables_:      2524, 2527, 2548, 3203.
        1447    ST807                    mrpg_tables_:      2530, 2533, 2556, 3204.
        1451    ST809                    mrpg_tables_:      1665, 2536, 2541.
        1455    ST813                    mrpg_tables_:      1666, 2544, 2549.
        1461    ST817                    mrpg_tables_:      1667, 2552, 2557.
        1465    ST821                    mrpg_tables_:      2560, 2564, 2571.
        1470    ST824                    mrpg_tables_:      1673, 2295, 2567, 2573, 2580, 4117.
        1475    ST829                    mrpg_tables_:      1674, 2296, 2576, 2581.
         123    ST83                     mrpg_tables_:      1085, 1200, 1234, 1237.
        1501    ST833                    mrpg_tables_:      2584, 2588, 4130.
        1504    ST836                    mrpg_tables_:      2591, 2594, 5416.
        1506    ST838                    mrpg_tables_:      1985, 2597, 2610.
         125    ST85                     mrpg_tables_:      1240, 1243, 1266.
        1522    ST850                    mrpg_tables_:      1986, 2613, 2625.
        1535    ST861                    mrpg_tables_:      1738, 2628, 2633.
        1541    ST865                    mrpg_tables_:      1752, 2636, 2639.
        1543    ST867                    mrpg_tables_:      1766, 2642, 2646.
         127    ST87                     mrpg_tables_:      1246, 1259, 2249, 3725, 5765.
        1546    ST870                    mrpg_tables_:      1772, 2649, 2653.
        1551    ST873                    mrpg_tables_:      2656, 2661, 4727.
        1555    ST877                    mrpg_tables_:      2664, 2669, 3405.
        1561    ST881                    mrpg_tables_:      2668, 2672, 2676, 3389.
        1564    ST884                    mrpg_tables_:      2679, 2682, 5999, 6187.
        1566    ST886                    mrpg_tables_:      2685, 2688, 5644, 5990, 6179.
        1570    ST888                    mrpg_tables_:      1802, 2691, 2694.
        1572    ST890                    mrpg_tables_:      1803, 2697, 2701.
        1575    ST893                    mrpg_tables_:      1822, 2704, 2713, 2717, 2722, 2727, 2747, 2779, 2792, 4312, 4325,
                                                            5053, 6005.
        1605    ST901                    mrpg_tables_:      1823, 2716, 6006.
        1606    ST902                    mrpg_tables_:      1832, 2721, 3608, 3645, 3653, 4796, 4804, 5231, 6026.
        1607    ST903                    mrpg_tables_:      1833, 2726, 3609, 3646, 3654, 4797, 4806, 5232, 6027.
        1610    ST904                    mrpg_tables_:      1963, 2731, 3601, 3616, 6041, 6055, 6070, 6150, 6165, 6249, 6429,
                                                            6443, 6457, 6471, 6863.
        1611    ST905                    mrpg_tables_:      2008, 2736, 6105.
        1612    ST906                    mrpg_tables_:      1988, 2014, 2741.
        1613    ST907                    mrpg_tables_:      2020, 2746, 6015.
        1614    ST908                    mrpg_tables_:      1989, 2026, 2751.
        1615    ST909                    mrpg_tables_:      2064, 2756, 2760.
        1620    ST912                    mrpg_tables_:      2763, 2767, 6103.
        1623    ST915                    mrpg_tables_:      1812, 2770, 2775.
        1627    ST919                    mrpg_tables_:      2108, 2778, 6016.
        1630    ST920                    mrpg_tables_:      1813, 2783, 2788.
        1634    ST924                    mrpg_tables_:      2118, 2791, 6017.
        1635    ST925                    mrpg_tables_:      2127, 2796, 6106.
        1636    ST926                    mrpg_tables_:      2801, 2808, 3669, 5642.
        1644    ST932                    mrpg_tables_:      2805, 2811, 2815, 5645.
        1647    ST935                    mrpg_tables_:      2201, 2218, 2814, 2818, 2821, 6629, 6742.
        1651    ST937                    mrpg_tables_:      2824, 2830, 2869, 4828, 4836, 4844, 5643, 5646, 6437.
        1656    ST942                    mrpg_tables_:      2828, 2833, 2838.
        1662    ST946                    mrpg_tables_:      2837, 2841, 2851, 3690.
        1673    ST955                    mrpg_tables_:      2215, 2854, 2857.
        1675    ST957                    mrpg_tables_:      1990, 2216, 2860.
        1676    ST958                    mrpg_tables_:      2217, 2865, 2870.
        1702    ST962                    mrpg_tables_:      2219, 2873, 2876.
        1704    ST964                    mrpg_tables_:      2264, 2879, 2884.
        1710    ST968                    mrpg_tables_:      2255, 2887, 2890.
        1712    ST970                    mrpg_tables_:      2572, 2893, 2897.
        1715    ST973                    mrpg_tables_:      2294, 2900, 2905.
        1721    ST977                    mrpg_tables_:      1991, 2908, 3777, 3785, 3793, 4421, 4429, 4437.
        1722    ST978                    mrpg_tables_:      1992, 2913, 6215, 6229, 6243, 6493, 6507, 6521.
        1723    ST979                    mrpg_tables_:      1993, 2918, 2996, 3004, 3012, 3026, 3034, 3042.
        1724    ST980                    mrpg_tables_:      2923, 2943, 6069.
         143    ST99                     mrpg_tables_:      1262, 1267, 5757.
        1747    ST999                    mrpg_tables_:      2946, 2966, 6071.
           0    STRD                     mrpg_tables_:        10, 1081, 1116, 1150, 1182, 1196, 1206, 1228, 1235, 1241, 1304,
                                                            1310, 1316, 1322, 1330, 1336, 1342, 1370, 1376, 1433, 1441, 1455,
                                                            1477, 1491, 1565, 1594, 1600, 1630, 1658, 1664, 1672, 1704, 1737,
                                                            1751, 1765, 1771, 1801, 2007, 2013, 2019, 2025, 2063, 2106, 2116,
                                                            2126, 2200, 2214, 2240, 2254, 2293, 2386, 2393, 2407, 2413, 2427,
                                                            2463, 2513, 2519, 2525, 2531, 2561, 2592, 2637, 2643, 2650, 2680,
                                                            2686, 2692, 2698, 2705, 2757, 2764, 2812, 2819, 2855, 2874, 2888,
                                                            2894, 3017, 3047, 3061, 3084, 3090, 3097, 3131, 3145, 3167, 3176,
                                                            3190, 3219, 3240, 3246, 3260, 3266, 3332, 3338, 3344, 3364, 3419,
                                                            3425, 3440, 3448, 3592, 3599, 3606, 3614, 3629, 3643, 3651, 3659,
                                                            3695, 3716, 3875, 3889, 3913, 3919, 3925, 3931, 3957, 3973, 3979,
                                                            3985, 4073, 4079, 4151, 4165, 4179, 4193, 4206, 4213, 4220, 4226,
                                                            4245, 4277, 4283, 4300, 4306, 4354, 4375, 4382, 4388, 4402, 4463,
                                                            4585, 4591, 4617, 4632, 4638, 4644, 4650, 4716, 4749, 4776, 4782,
                                                            4788, 4794, 4802, 4819, 4849, 4855, 4884, 4950, 4956, 4962, 4968,
                                                            4996, 5002, 5058, 5072, 5124, 5130, 5152, 5168, 5174, 5196, 5212,
                                                            5229, 5250, 5285, 5300, 5306, 5312, 5364, 5399, 5406, 5427, 5460,
                                                            5484, 5498, 5505, 5527, 5549, 5563, 5586, 5611, 5625, 5653, 5660,
                                                            5666, 5690, 5728, 5742, 5756, 5770, 5789, 5819, 5846, 5882, 5896,
                                                            5910, 5938, 5952, 5966, 5989, 6004, 6025, 6040, 6054, 6068, 6093,
                                                            6121, 6135, 6149, 6164, 6178, 6206, 6220, 6234, 6248, 6262, 6276,
                                                            6290, 6304, 6318, 6332, 6346, 6360, 6374, 6388, 6428, 6442, 6456,
                                                            6470, 6484, 6498, 6512, 6526, 6553, 6569, 6586, 6600, 6614, 6628,
                                                            6642, 6657, 6671, 6685, 6699, 6713, 6727, 6741, 6755, 6770, 6784,
                                                            6798, 6812, 6827, 6841, 6858, 6885, 6899, 6913, 6928, 6953, 6967,
                                                            6982, 6996.
           2    STRDS                    mrpg_tables_:        12, 1398, 1711, 1716, 2101, 2469, 2717, 2722, 2727, 2732, 2737,
                                                            2742, 2747, 2752, 2779, 2792, 2797, 2861, 2909, 2914, 2919, 3056,
                                                            3071, 3682, 4051, 4122, 4240, 4312, 4325, 4450, 4525, 4555, 4899,
                                                            4945, 5053, 5137, 5142, 5147, 5237, 5386, 5422, 5806, 5833, 5869,
                                                            5925, 6192, 6402, 6415, 6540.
           0    T0                       mrpg_tables_:        21,   30, 1207.
           1    T1                       mrpg_tables_:        41, 1566, 2428.
          12    T10                      mrpg_tables_:       121, 1382, 1575, 2437, 2930, 2953, 2976, 3812, 3835, 3858, 4360.
         144    T100                     mrpg_tables_:       910, 1586, 2447.
         145    T101                     mrpg_tables_:       919, 4138, 4201, 6587, 6601.
         146    T102                     mrpg_tables_:       927, 2939, 2962, 2985, 3821, 3844, 3867, 6207, 6221, 6235, 6485,
                                                            6499, 6513.
         147    T103                     mrpg_tables_:       937, 1110, 1151, 1242, 1257, 1273, 1391, 1442, 1478, 1540, 1587,
                                                            1595, 1625, 1674, 1803, 2110, 2120, 2241, 2296, 2448, 2520, 2711,
                                                            2759, 2940, 2963, 2986, 3018, 3065, 3085, 3091, 3098, 3177, 3241,
                                                            3822, 3845, 3868, 3876, 3893, 3986, 4307, 4368, 4859, 5506, 5655,
                                                            5820, 5953.
         150    T104                     mrpg_tables_:       946, 1311, 1317, 1331, 1337, 1392, 1408, 1419, 1588, 2111, 2121,
                                                            2449, 2638, 2644, 2651, 2712, 2941, 2964, 2987, 3092, 3261, 3312,
                                                            3327, 3426, 3697, 3823, 3846, 3869, 4080, 4098, 4207, 4214, 4227,
                                                            4278, 4301, 4369, 4586, 4639, 4651, 4777, 4997, 5003, 5169, 5175,
                                                            5213, 5307, 5428, 5461, 5485, 5528, 5550, 5612, 5626, 5691, 5729,
                                                            5883, 5897, 6333, 6347, 6573.
         151    T105                     mrpg_tables_:       956, 1393, 1589, 2450, 2645, 2652, 2942, 2965, 2988, 3282, 3297,
                                                            3717, 3824, 3847, 3870, 4208, 4215, 4221, 4284, 4370, 4633, 4645,
                                                            4850, 5197, 5286, 5313, 5365, 6305, 6319.
         152    T106                     mrpg_tables_:       964, 1137, 1169, 1183, 1293, 1299, 1365, 1371, 1409, 1420, 1436,
                                                            1653, 1659, 1796, 1886, 1941, 1974, 2170, 2508, 2609, 2624, 2850,
                                                            3140, 3213, 3226, 3435, 3518, 3575, 3711, 4020, 4028, 4099, 4263,
                                                            4272, 4295, 4511, 4519, 4541, 4578, 4600, 4610, 4744, 4761, 4771,
                                                            4906, 4938, 4981, 4991, 5023, 5108, 5163, 5207, 5224, 5277, 5332,
                                                            5455, 5479, 5606, 5847, 5967, 5991, 6122, 6263.
         153    T107                     mrpg_tables_:       972, 1887, 1942, 2526, 2532, 3194, 3214, 3227, 3519, 3576, 3974,
                                                            3980, 4021, 4029, 4100, 4512, 4520, 4542, 4579, 4601, 4611, 4907,
                                                            4939, 5109, 5278, 5333, 6277, 6291, 6554, 6658, 6672, 6686.
         154    T108                     mrpg_tables_:       980, 1888, 1943, 3520, 3577, 4101, 4580, 4602, 4612, 4908, 4940,
                                                            5110, 5279, 5334, 6700, 6785.
         155    T109                     mrpg_tables_:       988, 1889, 1944, 3521, 3578, 5111, 5280, 5335, 6871, 6940.
          13    T11                      mrpg_tables_:       130, 1383, 1576, 2438, 2931, 2954, 2977, 3813, 3836, 3859, 4361.
         156    T110                     mrpg_tables_:       997, 3443, 5024, 6845.
         157    T111                     mrpg_tables_:      1005, 4820, 4969.
         160    T112                     mrpg_tables_:      1013, 4970.
         161    T113                     mrpg_tables_:      1021, 1347.
         162    T114                     mrpg_tables_:      1029, 1111, 1258, 1541, 1890, 1945, 2327, 2381, 2388, 3066, 3110,
                                                            3522, 3579, 3745, 3757, 3769, 3894, 3908, 4860.
         163    T115                     mrpg_tables_:      1037, 3895.
         164    T116                     mrpg_tables_:      1045, 3896, 4861.
         165    T117                     mrpg_tables_:      1053, 3897, 4862.
         166    T118                     mrpg_tables_:      1064.
          14    T12                      mrpg_tables_:       139, 1384, 1577, 2439, 2932, 2955, 2978, 3814, 3837, 3860, 4362.
          15    T13                      mrpg_tables_:       148, 1385, 1578, 2440, 2933, 2956, 2979, 3815, 3838, 3861, 4363.
          16    T14                      mrpg_tables_:       156, 1117, 1305, 1323, 1386, 1579, 1752, 1766, 1772, 2008, 2014,
                                                            2020, 2026, 2064, 2108, 2118, 2127, 2394, 2408, 2414, 2441, 2693,
                                                            2707, 2820, 2856, 2875, 2934, 2957, 2980, 3247, 3420, 3441, 3449,
                                                            3816, 3839, 3862, 4074, 4364, 4592, 4951, 4957, 5059, 5125, 5153,
                                                            5251, 5301, 5319, 6954.
          17    T15                      mrpg_tables_:       164, 1272, 1624, 1631, 1839, 1896, 2310, 2376, 2562, 2586, 2593,
                                                            2599, 2615, 2758, 2765, 3104, 3267, 3281, 3296, 3311, 3326, 3333,
                                                            3351, 3358, 3365, 3471, 3528, 3607, 3630, 3644, 3652, 3660, 3739,
                                                            3751, 3763, 3903, 3914, 3920, 3926, 3932, 4246, 4376, 4383, 4389,
                                                            4403, 4618, 4717, 4750, 4783, 4789, 4795, 4803, 4885, 5131, 5230,
                                                            5400, 5407, 5499, 5564, 5587, 5654, 5661, 5743.
          20    T16                      mrpg_tables_:       172, 1840, 3472, 3529, 3696, 6005.
          21    T17                      mrpg_tables_:       180, 1387, 1580, 1841, 1897, 2442, 2708, 2935, 2958, 2981, 3473,
                                                            3530, 3608, 3645, 3653, 3817, 3840, 3863, 4094, 4365, 4796, 4804,
                                                            5231, 6026, 6570.
          22    T18                      mrpg_tables_:       188, 1434, 1492, 1500, 1794, 1842, 1898, 2311, 2377, 2563, 2674,
                                                            2843, 2895, 3105, 3352, 3359, 3432, 3474, 3531, 3593, 3600, 3615,
                                                            3703, 3740, 3752, 3764, 3904, 4260, 4269, 4290, 4404, 4741, 4756,
                                                            4767, 4805, 4976, 4987, 5017, 5159, 5203, 5219, 5450, 5475, 5602,
                                                            5667, 5990, 6179, 6361, 6375.
          23    T19                      mrpg_tables_:       196, 1388, 1581, 1843, 1899, 2443, 2709, 2936, 2959, 2982, 3475,
                                                            3532, 3609, 3646, 3654, 3818, 3841, 3864, 4366, 4797, 4806, 5232, 6027.
           2    T2                       mrpg_tables_:        49, 1377, 1567, 2429, 2925, 2948, 2971, 3807, 3830, 3853, 4355.
          24    T20                      mrpg_tables_:       204, 3339, 3345, 4152, 4166, 4180, 4194.
          25    T21                      mrpg_tables_:       212, 1844, 3476, 3533, 6006.
          26    T22                      mrpg_tables_:       220, 1601.
          27    T23                      mrpg_tables_:       228, 1100, 1248, 1435, 1456, 1493, 1501, 1531, 1738, 1795, 1845,
                                                            1900, 2294, 2312, 2378, 2464, 2507, 2675, 2681, 2813, 2844, 2889,
                                                            2896, 3062, 3106, 3132, 3139, 3146, 3433, 3477, 3534, 3704, 3741,
                                                            3753, 3765, 3890, 3905, 4016, 4027, 4095, 4137, 4200, 4261, 4270,
                                                            4291, 4464, 4510, 4518, 4540, 4577, 4598, 4608, 4742, 4757, 4768,
                                                            4856, 4905, 4936, 4977, 4988, 5018, 5073, 5095, 5160, 5204, 5220,
                                                            5265, 5320, 5451, 5476, 5603.
          30    T24                      mrpg_tables_:       237, 1846, 1901, 3478, 3535, 5096, 5266, 5321, 6859, 6929.
          31    T25                      mrpg_tables_:       245, 1847, 1902, 2313, 2379, 3107, 3479, 3536, 3742, 3754, 3766,
                                                            3906, 6094, 6527.
          32    T26                      mrpg_tables_:       255, 1502, 5911.
          33    T27                      mrpg_tables_:       264, 1165, 1361, 1404, 1415, 1848, 1903, 1969, 2165, 3480, 3537, 5790.
          34    T28                      mrpg_tables_:       273, 1082, 1101, 1197, 1249, 1532, 1547, 3048.
          35    T29                      mrpg_tables_:       282, 1849, 1904, 2314, 3481, 3538, 6069.
           3    T3                       mrpg_tables_:        57, 1568, 2430.
          36    T30                      mrpg_tables_:       291, 1343, 2699.
          37    T31                      mrpg_tables_:       300, 1131, 1287, 1850, 1905, 2600, 2616, 3482, 3539, 5771.
          40    T32                      mrpg_tables_:       309, 1851, 1906, 3483, 3540, 5097, 5267, 5322, 6860, 6930.
          41    T33                      mrpg_tables_:       319, 1344, 1852, 1907, 2215, 2700, 2845, 3484, 3541, 3705, 5098,
                                                            5268, 5323, 6861, 6931.
          42    T34                      mrpg_tables_:       328, 1853, 1908, 3485, 3542, 5099, 5269, 5324, 6862, 6932.
          43    T35                      mrpg_tables_:       338, 1854, 1909, 1970, 2166, 2315, 2601, 2617, 3108, 3486, 3543,
                                                            3601, 3616, 3706, 3743, 3755, 3767, 5100, 6041, 6055, 6070, 6150,
                                                            6165, 6249, 6429, 6443, 6457, 6471, 6863.
          44    T36                      mrpg_tables_:       347, 3049.
          45    T37                      mrpg_tables_:       356, 1855, 1910, 2316, 3487, 3544, 6071.
          46    T38                      mrpg_tables_:       365, 1083, 1102, 1198, 1250, 1533, 1548.
          47    T39                      mrpg_tables_:       375, 1084, 1103, 1199, 1251, 1534, 1549.
           4    T4                       mrpg_tables_:        66, 1378, 1569, 2431, 2926, 2949, 2972, 3808, 3831, 3854, 4356.
          50    T40                      mrpg_tables_:       384, 1856, 1911, 2216, 2846, 3488, 3545, 3707.
          51    T41                      mrpg_tables_:       393, 1085, 1104, 1200, 1252, 1535, 1550.
          52    T42                      mrpg_tables_:       403, 3442, 5019, 6842.
          53    T43                      mrpg_tables_:       413, 1503, 5912.
          54    T44                      mrpg_tables_:       422, 2514, 3168, 5861, 5981.
          55    T45                      mrpg_tables_:       432, 3169, 3958.
          56    T46                      mrpg_tables_:       442, 1665, 5862, 5982.
          57    T47                      mrpg_tables_:       452, 2255.
          60    T48                      mrpg_tables_:       460, 1857, 1912, 3489, 3546, 5101, 5270, 5325, 6864, 6933.
          61    T49                      mrpg_tables_:       468, 1105, 1201, 1253, 1536, 1551, 3050.
           5    T5                       mrpg_tables_:        75, 1570, 2432.
          62    T50                      mrpg_tables_:       476, 1858, 1913, 2317, 3490, 3547, 6072.
          63    T51                      mrpg_tables_:       484, 1859, 1914, 2318, 3491, 3548, 6073.
          64    T52                      mrpg_tables_:       493, 1582, 2444.
          65    T53                      mrpg_tables_:       501, 1166, 1324, 1362, 1405, 1416, 1705, 1860, 1915, 1971, 2167,
                                                            3492, 3549, 5791.
          66    T54                      mrpg_tables_:       509, 1802, 1861, 1916, 3493, 3550, 5102, 5271, 5326, 6865, 6934.
          67    T55                      mrpg_tables_:       517, 3191, 4017.
          70    T56                      mrpg_tables_:       526, 1345, 1862, 1917, 2217, 2847, 3494, 3551, 3708.
          71    T57                      mrpg_tables_:       536.
          72    T58                      mrpg_tables_:       544, 1863, 1918, 3495, 3552, 5103, 5272, 5327, 6866, 6935.
          73    T59                      mrpg_tables_:       552, 1864, 1919, 2319, 3496, 3553, 6074.
           6    T6                       mrpg_tables_:        84, 1379, 1571, 2433, 2927, 2950, 2973, 3809, 3832, 3855, 4357.
          74    T60                      mrpg_tables_:       560, 1865, 1920, 2320, 3497, 3554, 6075.
          75    T61                      mrpg_tables_:       568, 1106, 1254, 1537, 1552, 5939.
          76    T62                      mrpg_tables_:       576, 1107, 1255, 1389, 1538, 1583, 1866, 1921, 2201, 2218, 2445,
                                                            2587, 2602, 2618, 2687, 2814, 2848, 2937, 2960, 2983, 3063, 3192,
                                                            3434, 3498, 3555, 3709, 3819, 3842, 3865, 3891, 4018, 4096, 4262,
                                                            4271, 4292, 4599, 4609, 4743, 4758, 4769, 4857, 4937, 4978, 4989,
                                                            5020, 5161, 5205, 5221, 5452, 5477, 5604, 6136, 6389, 6571, 6615,
                                                            6629, 6714, 6728, 6742, 6799.
          77    T63                      mrpg_tables_:       584, 1867, 1922, 2321, 3051, 3499, 3556, 6076.
         100    T64                      mrpg_tables_:       593, 1229, 1673, 2295.
         101    T65                      mrpg_tables_:       602, 4097, 6572.
         102    T66                      mrpg_tables_:       610, 1868, 1923, 2219, 2849, 3500, 3557, 3710.
         103    T67                      mrpg_tables_:       618, 1869, 1924, 2322, 3501, 3558, 6077.
         104    T68                      mrpg_tables_:       626, 1870, 1925, 3502, 3559, 5104, 5273, 5328, 6867, 6936.
         105    T69                      mrpg_tables_:       634, 1871, 1926, 3503, 3560, 5105, 5274, 5329, 6868, 6937.
           7    T7                       mrpg_tables_:        93, 1380, 1572, 2434, 2928, 2951, 2974, 3810, 3833, 3856, 4358.
         106    T70                      mrpg_tables_:       642, 3220.
         107    T71                      mrpg_tables_:       650, 1872, 1927, 2323, 3504, 3561, 6078.
         110    T72                      mrpg_tables_:       659, 1132, 1288, 1873, 1928, 2603, 2619, 3193, 3505, 3562, 4019, 5772.
         111    T73                      mrpg_tables_:       668, 1133, 1289, 1874, 1929, 2604, 2620, 3506, 3563, 5773.
         112    T74                      mrpg_tables_:       676, 1875, 1930, 2324, 3507, 3564, 6079.
         113    T75                      mrpg_tables_:       684, 1494, 1504.
         114    T76                      mrpg_tables_:       692, 1584, 1876, 1931, 2325, 3508, 3565, 6080.
         115    T77                      mrpg_tables_:       701, 1877, 1932, 2605, 3509, 3566, 6151.
         116    T78                      mrpg_tables_:       709, 1134, 1290, 1878, 1933, 2606, 2621, 3510, 3567, 5774.
         117    T79                      mrpg_tables_:       718, 4293, 4759, 4979, 5021, 5222, 5453, 6643, 6756, 6813, 6843,
                                                            6914, 6968.
          10    T8                       mrpg_tables_:       103, 1381, 1573, 2107, 2117, 2435, 2706, 2929, 2952, 2975, 3811,
                                                            3834, 3857, 4359.
         120    T80                      mrpg_tables_:       726, 1879, 1934, 2326, 2380, 2387, 2766, 3109, 3133, 3511, 3568,
                                                            3594, 3661, 3744, 3756, 3768, 3907, 4377, 4619, 4718, 4886, 4963,
                                                            5132, 5401, 5408, 5500, 5565, 5588.
         121    T81                      mrpg_tables_:       735, 3170, 3959.
         122    T82                      mrpg_tables_:       744, 1666, 5863, 5983.
         123    T83                      mrpg_tables_:       754, 1135, 1291, 1880, 1935, 2607, 2622, 3512, 3569, 5775.
         124    T84                      mrpg_tables_:       764, 1136, 1292, 1881, 1936, 2608, 2623, 3513, 3570, 5776.
         125    T85                      mrpg_tables_:       774, 1230.
         126    T86                      mrpg_tables_:       783, 1882, 1937, 3514, 3571, 5106, 5275, 5330, 6869, 6938.
         127    T87                      mrpg_tables_:       792, 4294, 4760, 4770, 4980, 4990, 5022, 5162, 5206, 5223, 5454,
                                                            5478, 5605, 6644, 6757, 6771, 6814, 6828, 6844, 6886, 6900, 6915,
                                                            6969, 6983, 6997.
         130    T88                      mrpg_tables_:       801, 1108, 1256, 1539, 3064, 3892, 4858.
         131    T89                      mrpg_tables_:       810, 1167, 1363, 1406, 1417, 1883, 1938, 1972, 2168, 3515, 3572, 5792.
          11    T9                       mrpg_tables_:       112, 1574, 2436.
         132    T90                      mrpg_tables_:       819, 1236.
         133    T91                      mrpg_tables_:       829, 3171, 3960.
         134    T92                      mrpg_tables_:       839, 1667, 5864, 5984.
         135    T93                      mrpg_tables_:       848.
         136    T94                      mrpg_tables_:       857, 1884, 1939, 3516, 3573, 5107, 5276, 5331, 6870, 6939.
         137    T95                      mrpg_tables_:       865, 1109, 5757.
         140    T96                      mrpg_tables_:       874, 1168, 1364, 1407, 1418, 1885, 1940, 1973, 2169, 3517, 3574, 5793.
         141    T97                      mrpg_tables_:       883, 1325, 1706.
         142    T98                      mrpg_tables_:       892, 1346.
         143    T99                      mrpg_tables_:       902, 1390, 1585, 2109, 2119, 2446, 2710, 2938, 2961, 2984, 3820,
                                                            3843, 3866, 4367.
           0    TC                       mrpg_tables_:        28,   29,   37,   46,   54,   62,   71,   80,   89,   98,  108,
                                                             117,  126,  135,  144,  153,  161,  169,  177,  185,  193,  201,
                                                             209,  217,  225,  233,  242,  250,  260,  269,  278,  287,  296,
                                                             305,  314,  324,  333,  343,  352,  361,  370,  380,  389,  398,
                                                             408,  418,  427,  437,  447,  457,  465,  473,  481,  489,  498,
                                                             506,  514,  522,  531,  541,  549,  557,  565,  573,  581,  589,
                                                             598,  607,  615,  623,  631,  639,  647,  655,  664,  673,  681,
                                                             689,  697,  706,  714,  723,  731,  740,  749,  759,  769,  779,
                                                             788,  797,  806,  815,  824,  834,  844,  853,  862,  870,  879,
                                                             888,  897,  907,  915,  924,  932,  942,  951,  961,  969,  977,
                                                             985,  993, 1002, 1010, 1018, 1026, 1034, 1042, 1050, 1058.
           0    TCs                      mrpg_tables_:        28, 1068.
         506    text                     mrpg_tables_:      1072.
         317    TL                       mrpg_tables_:        32,   33,   41,   49,   57,   66,   75,   84,   93,  103,  112,
                                                             121,  130,  139,  148,  156,  164,  172,  180,  188,  196,  204,
                                                             212,  220,  228,  237,  245,  255,  264,  273,  282,  291,  300,
                                                             309,  319,  328,  338,  347,  356,  365,  375,  384,  393,  403,
                                                             413,  422,  432,  442,  452,  460,  468,  476,  484,  493,  501,
                                                             509,  517,  526,  536,  544,  552,  560,  568,  576,  584,  593,
                                                             602,  610,  618,  626,  634,  642,  650,  659,  668,  676,  684,
                                                             692,  701,  709,  718,  726,  735,  744,  754,  764,  774,  783,
                                                             792,  801,  810,  819,  829,  839,  848,  857,  865,  874,  883,
                                                             892,  902,  910,  919,  927,  937,  946,  956,  964,  972,  980,
                                                             988,  997, 1005, 1013, 1021, 1029, 1037, 1045, 1053, 1064, 1070.
         166    TLs                      mrpg_tables_:        32, 1070.
         312    Tsl                      mrpg_tables_:        37,   42,   46,   50,   54,   58,   62,   67,   71,   76,   80,
                                                              85,   89,   94,   98,  104,  108,  113,  117,  122,  126,  131,
                                                             135,  140,  144,  149,  153,  157,  161,  165,  169,  173,  177,
                                                             181,  185,  189,  193,  197,  201,  205,  209,  213,  217,  221,
                                                             225,  229,  233,  238,  242,  246,  250,  256,  260,  265,  269,
                                                             274,  278,  283,  287,  292,  296,  301,  305,  310,  314,  320,
                                                             324,  329,  333,  339,  343,  348,  352,  357,  361,  366,  370,
                                                             376,  380,  385,  389,  394,  398,  404,  408,  414,  418,  423,
                                                             427,  433,  437,  443,  447,  453,  457,  461,  465,  469,  473,
                                                             477,  481,  485,  489,  494,  498,  502,  506,  510,  514,  518,
                                                             522,  527,  531,  537,  541,  545,  549,  553,  557,  561,  565,
                                                             569,  573,  577,  581,  585,  589,  594,  598,  603,  607,  611,
                                                             615,  619,  623,  627,  631,  635,  639,  643,  647,  651,  655,
                                                             660,  664,  669,  673,  677,  681,  685,  689,  693,  697,  702,
                                                             706,  710,  714,  719,  723,  727,  731,  736,  740,  745,  749,
                                                             755,  759,  765,  769,  775,  779,  784,  788,  793,  797,  802,
                                                             806,  811,  815,  820,  824,  830,  834,  840,  844,  849,  853,
                                                             858,  862,  866,  870,  875,  879,  884,  888,  893,  897,  903,
                                                             907,  911,  915,  920,  924,  928,  932,  938,  942,  947,  951,
                                                             957,  961,  965,  969,  973,  977,  981,  985,  989,  993,  998,
                                                            1002, 1006, 1010, 1014, 1018, 1022, 1026, 1030, 1034, 1038, 1042,
                                                            1046, 1050, 1054, 1058, 1065.
           0    utc                      mrpg_tables_:        27,   36,   45,   53,   61,   70,   79,   88,   97,  107,  116,
                                                             125,  134,  143,  152,  160,  168,  176,  184,  192,  200,  208,
                                                             216,  224,  232,  241,  249,  259,  268,  277,  286,  295,  304,
                                                             313,  323,  332,  342,  351,  360,  369,  379,  388,  397,  407,
                                                             417,  426,  436,  446,  456,  464,  472,  480,  488,  497,  505,
                                                             513,  521,  530,  540,  548,  556,  564,  572,  580,  588,  597,
                                                             606,  614,  622,  630,  638,  646,  654,  663,  672,  680,  688,
                                                             696,  705,  713,  722,  730,  739,  748,  758,  768,  778,  787,
                                                             796,  805,  814,  823,  833,  843,  852,  861,  869,  878,  887,
                                                             896,  906,  914,  923,  931,  941,  950,  960,  968,  976,  984,
                                                             992, 1001, 1009, 1017, 1025, 1033, 1041, 1049, 1057, 1067.
         317    utl                      mrpg_tables_:        31,   40,   48,   56,   65,   74,   83,   92,  102,  111,  120,
                                                             129,  138,  147,  155,  163,  171,  179,  187,  195,  203,  211,
                                                             219,  227,  236,  244,  254,  263,  272,  281,  290,  299,  308,
                                                             318,  327,  337,  346,  355,  364,  374,  383,  392,  402,  412,
                                                             421,  431,  441,  451,  459,  467,  475,  483,  492,  500,  508,
                                                             516,  525,  535,  543,  551,  559,  567,  575,  583,  592,  601,
                                                             609,  617,  625,  633,  641,  649,  658,  667,  675,  683,  691,
                                                             700,  708,  717,  725,  734,  743,  753,  763,  773,  782,  791,
                                                             800,  809,  818,  828,  838,  847,  856,  864,  873,  882,  891,
                                                             901,  909,  918,  926,  936,  945,  955,  963,  971,  979,  987,
                                                             996, 1004, 1012, 1020, 1028, 1036, 1044, 1052, 1063, 1069.


NO FATAL ERRORS


                                          -----------------------------------------------------------


Historical Background

This edition of the Multics software materials and documentation is provided and donated
to Massachusetts Institute of Technology by Group BULL including BULL HN Information Systems Inc.
as a contribution to computer science knowledge.
This donation is made also to give evidence of the common contributions of Massachusetts Institute of Technology,
Bell Laboratories, General Electric, Honeywell Information Systems Inc., Honeywell BULL Inc., Groupe BULL
and BULL HN Information Systems Inc. to the development of this operating system.
Multics development was initiated by Massachusetts Institute of Technology Project MAC (1963-1970),
renamed the MIT Laboratory for Computer Science and Artificial Intelligence in the mid 1970s, under the leadership
of Professor Fernando Jose Corbato. Users consider that Multics provided the best software architecture
for managing computer hardware properly and for executing programs. Many subsequent operating systems
incorporated Multics principles.
Multics was distributed in 1975 to 2000 by Group Bull in Europe , and in the U.S. by Bull HN Information Systems Inc.,
as successor in interest by change in name only to Honeywell Bull Inc. and Honeywell Information Systems Inc. .

                                          -----------------------------------------------------------

Permission to use, copy, modify, and distribute these programs and their documentation for any purpose and without
fee is hereby granted,provided that the below copyright notice and historical background appear in all copies
and that both the copyright notice and historical background and this permission notice appear in supporting
documentation, and that the names of MIT, HIS, BULL or BULL HN not be used in advertising or publicity pertaining
to distribution of the programs without specific prior written permission.
    Copyright 1972 by Massachusetts Institute of Technology and Honeywell Information Systems Inc.
    Copyright 2006 by BULL HN Information Systems Inc.
    Copyright 2006 by Bull SAS
    All Rights Reserved
