ASSEMBLY LISTING OF SEGMENT >dumps>old>recomp>PNOTICE_basic.alm
ASSEMBLED ON:	11/18/82  1704.6 mst Thu
OPTIONS USED:	list
ASSEMBLED BY:	ALM Version  6.4  April 1981
ASSEMBLER CREATED:	11/03/82  1423.6 mst Wed

                                     1  " ***********************************************************
                                     2  " *                                                         *
                                     3  " * Copyright, (C) Honeywell Information Systems Inc., 1982 *
                                     4  " *                                                         *
                                     5  " ***********************************************************
    000000  aa   000000 000001       6  	dec	1			"version 1 structure
    000001  aa   000000 000001       7  	dec	1			"no. of pnotices
    000002  aa   000000 000003       8  	dec	3			"no. of STIs
    000003  aa   000000 000144       9  	dec	100			"lgth of all pnotices + no. of pnotices
                                    10            acc       "Copyright (c) 1972 by Massachusetts Institute of
    000004  aa  143 103 157 160     11  Technology and Honeywell Information Systems, Inc."
    000005  aa  171 162 151 147
    000006  aa  150 164 040 050
    000007  aa  143 051 040 061
    000010  aa  071 067 062 040
    000011  aa  142 171 040 115
    000012  aa  141 163 163 141
    000013  aa  143 150 165 163
    000014  aa  145 164 164 163
    000015  aa  040 111 156 163
    000016  aa  164 151 164 165
    000017  aa  164 145 040 157
    000020  aa  146 012 124 145
    000021  aa  143 150 156 157
    000022  aa  154 157 147 171
    000023  aa  040 141 156 144
    000024  aa  040 110 157 156
    000025  aa  145 171 167 145
    000026  aa  154 154 040 111
    000027  aa  156 146 157 162
    000030  aa  155 141 164 151
    000031  aa  157 156 040 123
    000032  aa  171 163 164 145
    000033  aa  155 163 054 040
    000034  aa  111 156 143 056
                                    12
    000035  aa  127 061 102 101     13  	aci	"W1BACM090000"
    000036  aa  103 115 060 071
    000037  aa  060 060 060 060
    000040  aa  127 062 102 101     14  	aci	"W2BACM090000"
    000041  aa  103 115 060 071
    000042  aa  060 060 060 060
    000043  aa  127 063 102 101     15  	aci	"W3BACM090000"
    000044  aa  103 115 060 071
    000045  aa  060 060 060 060
                                    16  	end

NO LITERALS

NAME DEFINITIONS FOR ENTRY POINTS AND SEGDEFS

    000046  5a   000003 000000
    000047  5a   000021 600000
    000050  aa   000000 000000
    000051  55   000012 000002
    000052  5a   000002 400003
    000053  55   000006 000012
    000054  aa  015 120 116 117
    000055  aa  124 111 103 105
    000056  aa  137 142 141 163
    000057  aa  151 143 000 000
    000060  55   000002 000003
    000061  6a   000000 400002
    000062  55   000015 000003
    000063  aa  014 163 171 155         symbol_table
    000064  aa  142 157 154 137
    000065  aa  164 141 142 154
    000066  aa  145 000 000 000

DEFINITIONS HASH TABLE

    000067  aa   000000 000015
    000070  aa   000000 000000
    000071  aa   000000 000000
    000072  aa   000000 000000
    000073  aa   000000 000000
    000074  aa   000000 000000
    000075  aa   000000 000000
    000076  5a   000012 000000
    000077  aa   000000 000000
    000100  aa   000000 000000
    000101  aa   000000 000000
    000102  aa   000000 000000
    000103  aa   000000 000000
    000104  aa   000000 000000

NO EXTERNAL NAMES

NO TRAP POINTER WORDS

TYPE PAIR BLOCKS

    000105  aa   000001 000000
    000106  aa   000000 000000

INTERNAL EXPRESSION WORDS

    000107  aa   000000 000000
LINKAGE INFORMATION

    000000  aa   000000 000000
    000001  0a   000046 000000
    000002  aa   000000 000000
    000003  aa   000000 000000
    000004  aa   000000 000000
    000005  aa   000000 000000
    000006  22   000010 000010
    000007  a2   000000 000000
SYMBOL INFORMATION

SYMBOL TABLE HEADER

    000000  aa   000000 000001
    000001  aa   163171 155142
    000002  aa   164162 145145
    000003  aa   000000 000004
    000004  aa   000000 111316
    000005  aa   510113 575622
    000006  aa   000000 111341
    000007  aa   510041 307471
    000010  aa   141154 155040
    000011  aa   040040 040040
    000012  aa   000024 000040
    000013  aa   000034 000040
    000014  aa   000044 000100
    000015  aa   000002 000002
    000016  aa   000064 000000
    000017  aa   000000 000121
    000020  aa   000000 000103
    000021  aa   000000 000110
    000022  aa   000113 000103
    000023  aa   000064 000000
    000024  aa   101114 115040
    000025  aa   126145 162163
    000026  aa   151157 156040
    000027  aa   040066 056064
    000030  aa   040040 101160
    000031  aa   162151 154040
    000032  aa   061071 070061
    000033  aa   040040 040040
    000034  aa   110157 154155
    000035  aa   163164 145144
    000036  aa   164056 123171
    000037  aa   163115 141151
    000040  aa   156164 056155
    000041  aa   040040 040040
    000042  aa   040040 040040
    000043  aa   040040 040040
    000044  aa   154151 163164
    000045  aa   040040 040040
    000046  aa   040040 040040
    000047  aa   040040 040040
    000050  aa   040040 040040
    000051  aa   040040 040040
    000052  aa   040040 040040
    000053  aa   040040 040040
    000054  aa   040040 040040
    000055  aa   040040 040040
    000056  aa   040040 040040
    000057  aa   040040 040040
    000060  aa   040040 040040
    000061  aa   040040 040040
    000062  aa   040040 040040
    000063  aa   040040 040040
    000064  aa   000000 000001
    000065  aa   000000 000001
    000066  aa   000072 000043
    000067  aa   113400 472236
    000070  aa   000000 111341
    000071  aa   471131 000000
    000072  aa   076144 165155          >dumps>old>recomp>PNOTICE_basic.alm
    000073  aa   160163 076157
    000074  aa   154144 076162
    000075  aa   145143 157155
    000076  aa   160076 120116
    000077  aa   117124 111103
    000100  aa   105137 142141
    000101  aa   163151 143056
    000102  aa   141154 155040
               MULTICS ASSEMBLY CROSS REFERENCE LISTING

   Value        Symbol                   Source file   Line number


NO FATAL ERRORS


                                          -----------------------------------------------------------


Historical Background

This edition of the Multics software materials and documentation is provided and donated
to Massachusetts Institute of Technology by Group BULL including BULL HN Information Systems Inc.
as a contribution to computer science knowledge.
This donation is made also to give evidence of the common contributions of Massachusetts Institute of Technology,
Bell Laboratories, General Electric, Honeywell Information Systems Inc., Honeywell BULL Inc., Groupe BULL
and BULL HN Information Systems Inc. to the development of this operating system.
Multics development was initiated by Massachusetts Institute of Technology Project MAC (1963-1970),
renamed the MIT Laboratory for Computer Science and Artificial Intelligence in the mid 1970s, under the leadership
of Professor Fernando Jose Corbato. Users consider that Multics provided the best software architecture
for managing computer hardware properly and for executing programs. Many subsequent operating systems
incorporated Multics principles.
Multics was distributed in 1975 to 2000 by Group Bull in Europe , and in the U.S. by Bull HN Information Systems Inc.,
as successor in interest by change in name only to Honeywell Bull Inc. and Honeywell Information Systems Inc. .

                                          -----------------------------------------------------------

Permission to use, copy, modify, and distribute these programs and their documentation for any purpose and without
fee is hereby granted,provided that the below copyright notice and historical background appear in all copies
and that both the copyright notice and historical background and this permission notice appear in supporting
documentation, and that the names of MIT, HIS, BULL or BULL HN not be used in advertising or publicity pertaining
to distribution of the programs without specific prior written permission.
    Copyright 1972 by Massachusetts Institute of Technology and Honeywell Information Systems Inc.
    Copyright 2006 by BULL HN Information Systems Inc.
    Copyright 2006 by Bull SAS
    All Rights Reserved
