	COMPILATION LISTING OF SEGMENT rmdb_rq_dot
	Compiled by: Multics PL/I Compiler, Release 29, of July 28, 1986
	Compiled at: Honeywell Multics Op. - System M
	Compiled on: 10/16/86  1349.3 mst Thu
	    Options: optimize map

        1 /* ***********************************************************
        2*   *                                                         *
        3*   * Copyright, (C) Honeywell Information Systems Inc., 1982 *
        4*   *                                                         *
        5*   *********************************************************** */
        6 rmdb_rq_dot: proc (sci_ptr, info_ptr);
        7
        8 /*
        9*   .		       BEGIN_DESCRIPTION
       10*   This   routine   displays   the   current    version    of    the
       11*   restructure_mrds_db subsystem and the data base currently readied
       12*   for restructuring in response to the "." request.
       13*   .		       END_DESCRIPTION
       14*
       15*   Known Bugs:
       16*
       17*   Other Problems:
       18*
       19*   .                       HISTORY
       20*   82-03-29 Davids: Written
       21*
       22*   82-04-08 Davids: changed the name of  the  subsystem  that  is
       23*   .                printed  from  restructure_mrds_db to rmdb to
       24*   .                a name change that was made a while back.
       25*
       26*   82-06-22 Davids: removed call to get_shortest_path_
       27*
       28*   83-05-25 Davids: Added dcl for rtrim
       29**/
       30 
       31 /* PARAMETERS */
       32
       33 	dcl     sci_ptr		 ptr;		/* (input) pointer to the subsystem control info structure */
       34 						/* need to be able to pass it to the ssu entries */
       35 	dcl     info_ptr		 ptr;		/* (input) pointer to the rmdb_ctl structure which is both */
       36 						/* read and written */
       37
       38 /* BUILTINS */
       39
       40 	dcl     rtrim		 builtin;
       41
       42 /* ENTRIES */
       43
       44 	dcl     ioa_		 entry options (variable);
       45
       46 /* INCLUDES */
       47
  1     1 /* BEGIN - mrds_rmdb_ctl.incl.pl1 */
  1     2
  1     3
  1     4
  1     5 /****^  HISTORY COMMENTS:
  1     6*  1) change(82-03-26,Davids), approve(), audit(), install():
  1     7*     created
  1     8*  2) change(82-05-26,Davids), approve(), audit(), install():
  1     9*     added db_model_ptr
  1    10*  3) change(82-06-09,Harvey), approve(), audit(), install():
  1    11*     deleted ssu_ routines ptr storage
  1    12*  4) change(82-08-20,Davids), approve(), audit(), install():
  1    13*     added the relmgr like reference and included the rmdb_relmgr_entries
  1    14*     include file
  1    15*  5) change(83-05-24,Davids), approve(), audit(), install():
  1    16*     added the saved_res_version_ptr element
  1    17*  6) change(84-10-23,Benjamin), approve(), audit(), install():
  1    18*     added flags (just database_readied_by_rmdb for now).
  1    19*  7) change(85-11-08,Spitzer), approve(85-11-08,MCR7311),
  1    20*     audit(86-09-02,Blair), install(86-10-16,MR12.0-1187):
  1    21*     added crossref_file_info.
  1    22*                                                   END HISTORY COMMENTS */
  1    23
  1    24
  1    25 dcl 01 rmdb_ctl based (rmdb_ctl_ptr),
  1    26     02 version fixed bin,
  1    27     02 rmdb_version char (16) varying,
  1    28     02 absolute_db_path char (168),
  1    29     02 temp_dir_path char (168),
  1    30     02 work_area_ptr ptr,
  1    31     02 db_model_ptr ptr,
  1    32     02 saved_res_version_ptr ptr,
  1    33     02 crossref_file_info,
  1    34        03 iocb_ptr ptr,
  1    35        03 name char (32),
  1    36     02 relmgr_entries like rmdb_relmgr_entries,
  1    37     02 flags,
  1    38        03 database_readied_by_rmdb bit (1) unal,
  1    39        03 unused bit (35) unal;
  1    40
  1    41 dcl  RMDB_CTL_VERSION_1 fixed bin init (1) internal static options (constant);
  1    42
  1    43 dcl  rmdb_ctl_ptr ptr;
  1    44
  1    45
  2     1 /*  START OF:	rmdb_relmgr_entries.incl.pl1		  *  *  *  *  *  *  *  *  *  *  *  *  *  *  *  *  */
  2     2
  2     3
  2     4 /****^  HISTORY COMMENTS:
  2     5*  1) change(82-08-20,Davids), approve(), audit(), install():
  2     6*     written
  2     7*  2) change(86-01-28,Spitzer), approve(86-01-28,MCR7311),
  2     8*     audit(86-09-15,Gilcrease), install(86-10-16,MR12.0-1187):
  2     9*     add get_tuples_by_spec, put_tuple, put_tuples, create_cursor entry points.
  2    10*  3) change(86-08-21,Blair), approve(86-08-21,MCR7311),
  2    11*     audit(86-09-15,Gilcrease), install(86-10-16,MR12.0-1187):
  2    12*     Back out the entries get_tuples_by_spec and put_tuples since they aren't
  2    13*     sufficiently well tested to be reliable.  Replace with get_tuple_id and
  2    14*     get_tuple_by_id.
  2    15*                                                   END HISTORY COMMENTS */
  2    16
  2    17
  2    18 dcl 01 rmdb_relmgr_entries based (rmdb_relmgr_entries_ptr),
  2    19      02 create_relation entry (char (*), char (*), ptr, ptr, bit (36) aligned,
  2    20 	bit (36) aligned, fixed bin (35)),
  2    21      02 delete_relation entry (char (*), char (*), fixed bin (35)),
  2    22      02 open entry (char (*), char (*), bit (36) aligned, fixed bin (35)),
  2    23      02 close entry (bit (36) aligned, fixed bin (35)),
  2    24      02 create_index entry (bit (36) aligned, ptr, bit (36) aligned, fixed bin (17),
  2    25 	bit (36) aligned, fixed bin (35)),
  2    26      02 delete_index entry (bit (36) aligned, bit (36) aligned, fixed bin (35)),
  2    27      02 put_tuple entry (ptr, ptr, bit (36) aligned, fixed bin (35)),
  2    28      02 get_tuple_id entry (ptr, ptr, ptr, ptr, fixed bin (35)),
  2    29      02 get_tuple_by_id entry (ptr, bit (36) aligned, ptr, ptr, ptr, fixed bin (35)),
  2    30      02 create_cursor entry (bit (36) aligned, ptr, ptr, fixed bin (35));
  2    31
  2    32 dcl rmdb_relmgr_entries_ptr ptr;
  2    33
  2    34 /*  END OF:	rmdb_relmgr_entries.incl.pl1		  *  *  *  *  *  *  *  *  *  *  *  *  *  *  *  *  */
  1    46
  1    47
  1    48
  1    49 /* END - mrds_rmdb_ctl.incl.pl1 */
       48
       49 
       50 	rmdb_ctl_ptr = info_ptr;
       51
       52
       53 	if rmdb_ctl.absolute_db_path = ""
       54 	then call ioa_ ("rmdb: ^a^-No database is currently readied.", rmdb_ctl.rmdb_version);
       55 	else call ioa_ ("rmdb: ^a^-^a", rmdb_ctl.rmdb_version, rtrim (rmdb_ctl.absolute_db_path));
       56
       57 	return;
       58
       59      end rmdb_rq_dot;
	SOURCE FILES USED IN THIS COMPILATION.

LINE      NUMBER  DATE MODIFIED     NAME			PATHNAME
             0    10/16/86  1144.3  rmdb_rq_dot.pl1                   >special_ldd>install>MR12.0-1187>rmdb_rq_dot.pl1
48           1    10/16/86  1139.6  mrds_rmdb_ctl.incl.pl1            >special_ldd>install>MR12.0-1187>mrds_rmdb_ctl.incl.pl1
1-46         2    10/16/86  1140.2  rmdb_relmgr_entries.incl.pl1      >special_ldd>install>MR12.0-1187>rmdb_relmgr_entries.incl.pl1
	NAMES DECLARED IN THIS COMPILATION.

IDENTIFIER	     OFFSET    LOC STORAGE CLASS   DATA TYPE		ATTRIBUTES AND REFERENCES
								(* indicates a set context)

NAMES DECLARED BY DECLARE STATEMENT.
absolute_db_path          6            based           char(168)                level 2 packed unaligned dcl 1-25 ref 53 55 55
info_ptr                               parameter       pointer                  dcl 35 ref 6 50
ioa_                            000010 constant        entry                    external dcl 44 ref 53 55
rmdb_ctl                               based           structure                level 1 unaligned dcl 1-25
rmdb_ctl_ptr                    000100 automatic       pointer                  dcl 1-43 set ref 50* 53 53 55 55 55
rmdb_relmgr_entries                    based           structure                level 1 unaligned dcl 2-18
rmdb_version              1            based           varying char(16)         level 2 dcl 1-25 set ref 53* 55*
rtrim                                                  builtin function         dcl 40 ref 55 55
sci_ptr                                parameter       pointer                  dcl 33 ref 6

NAMES DECLARED BY DECLARE STATEMENT AND NEVER REFERENCED.
RMDB_CTL_VERSION_1                     internal static fixed bin(17,0)          initial dcl 1-41
rmdb_relmgr_entries_ptr                automatic       pointer                  dcl 2-32

NAME DECLARED BY EXPLICIT CONTEXT.
rmdb_rq_dot                     000027 constant        entry                    external dcl 6

THERE WERE NO NAMES DECLARED BY CONTEXT OR IMPLICATION.

STORAGE REQUIREMENTS FOR THIS PROGRAM.

	Object	Text	Link	Symbol	Defs	Static
Start          0       0       164         176     133         174
Length       406     133        12         174      31           0

BLOCK NAME	         STACK SIZE     TYPE		WHY NONQUICK/WHO SHARES STACK FRAME
rmdb_rq_dot                         106 external procedure  is an external procedure.

STORAGE FOR AUTOMATIC VARIABLES.

STACK FRAME                 LOC IDENTIFIER                  BLOCK NAME
rmdb_rq_dot              000100 rmdb_ctl_ptr                rmdb_rq_dot

THE FOLLOWING EXTERNAL OPERATORS ARE USED BY THIS PROGRAM.
alloc_char_temp     call_ext_out_desc   return_mac          shorten_stack       ext_entry

THE FOLLOWING EXTERNAL ENTRIES ARE CALLED BY THIS PROGRAM.
ioa_

NO EXTERNAL VARIABLES ARE USED BY THIS PROGRAM.


   LINE    LOC      LINE    LOC      LINE    LOC      LINE    LOC      LINE    LOC      LINE    LOC      LINE    LOC
      6 000023        50 000034        53 000040        55 000064        57 000131


                                          -----------------------------------------------------------


Historical Background

This edition of the Multics software materials and documentation is provided and donated
to Massachusetts Institute of Technology by Group BULL including BULL HN Information Systems Inc.
as a contribution to computer science knowledge.
This donation is made also to give evidence of the common contributions of Massachusetts Institute of Technology,
Bell Laboratories, General Electric, Honeywell Information Systems Inc., Honeywell BULL Inc., Groupe BULL
and BULL HN Information Systems Inc. to the development of this operating system.
Multics development was initiated by Massachusetts Institute of Technology Project MAC (1963-1970),
renamed the MIT Laboratory for Computer Science and Artificial Intelligence in the mid 1970s, under the leadership
of Professor Fernando Jose Corbato. Users consider that Multics provided the best software architecture
for managing computer hardware properly and for executing programs. Many subsequent operating systems
incorporated Multics principles.
Multics was distributed in 1975 to 2000 by Group Bull in Europe , and in the U.S. by Bull HN Information Systems Inc.,
as successor in interest by change in name only to Honeywell Bull Inc. and Honeywell Information Systems Inc. .

                                          -----------------------------------------------------------

Permission to use, copy, modify, and distribute these programs and their documentation for any purpose and without
fee is hereby granted,provided that the below copyright notice and historical background appear in all copies
and that both the copyright notice and historical background and this permission notice appear in supporting
documentation, and that the names of MIT, HIS, BULL or BULL HN not be used in advertising or publicity pertaining
to distribution of the programs without specific prior written permission.
    Copyright 1972 by Massachusetts Institute of Technology and Honeywell Information Systems Inc.
    Copyright 2006 by BULL HN Information Systems Inc.
    Copyright 2006 by Bull SAS
    All Rights Reserved
