	COMPILATION LISTING OF SEGMENT sort_merge_command_finish
	Compiled by: Multics PL/I Compiler, Release 27d, of October 11, 1982
	Compiled at: Honeywell LISD Phoenix, System M
	Compiled on: 11/11/82  1308.0 mst Thu
	    Options: optimize map

        1 /* ***********************************************************
        2*   *                                                         *
        3*   * Copyright, (C) Honeywell Information Systems Inc., 1982 *
        4*   *                                                         *
        5*   *********************************************************** */
        6
        7 /* ***************************************
        8*   *				 *
        9*   *				 *
       10*   * Copyright (c) 1975, 1976 by         *
       11*   * Honeywell Information Systems, Inc. *
       12*   *				 *
       13*   *				 *
       14*   *************************************** */
       15 sort_merge_command_finish:  proc(arg_err_code, sort_code, arg_err_sw, fatal_sw);
       16
       17 /*   PARAMETERS   */
       18 dcl (arg_err_code  fixed bin(35),	/*   Error(s) detected by sort or merge  (Output).   */
       19      sort_code	fixed bin(35),	/*   Errors detected by sort_ or merge_  (Input).   */
       20 				/*   error_table_$badarg = error(s) in arguments;   */
       21 				/*   other = some type of fatal error.		*/
       22      arg_err_sw	bit(1),		/*   Errors in arguments detected by sort or merge  (Input).   */
       23      fatal_sw	bit(1) ) parameter;	/*   Fatal error detected by sort or merge  (Input).   */
       24
       25 /*   EXTERNAL ENTRIES    */
       26 dcl  clock_ entry returns(fixed bin(71));
       27 dcl  com_err_  entry options(variable);
       28 dcl  convert_status_code_  entry(fixed bin(35), char(8) aligned, char(100) aligned);
       29 dcl  cpu_time_and_paging_ entry(fixed bin, fixed bin(71), fixed bin);
       30 dcl  hcs_$get_process_usage entry(ptr, fixed bin(35));
       31 dcl  ioa_ entry options(variable),
       32      ioa_$nnl  entry options(variable);
       33
       34 /*   EXTERNAL STATIC     */
       35
  1     1 dcl 1 sort_ext$acl(1) ext,
  1     2    2 x_user_id char(32),
  1     3    2 x_modes bit(36),
  1     4    2 x_pad bit(36),
  1     5    2 x_acl_code fixed bin(35);
  1     6 dcl 1 acl(1)
  1     7 	 defined(sort_ext$acl),
  1     8    2 user_id char(32),
  1     9    2 modes bit(36),
  1    10    2 pad bit(36),
  1    11    2 acl_code fixed bin(35);
  1    12 dcl sort_ext$b(0: 31) fixed bin(30) ext;		/*  keys - bit offset (usually) for sort_comp  */
  1    13 dcl b(0: 31) fixed bin(30)
  1    14 	 defined (sort_ext$b);
  1    15 dcl sort_ext$compares_counter fixed bin(34) ext;		/*  compares executed, excluding sequence checker  */
  1    16 dcl compares_counter fixed bin(34)
  1    17 	 defined(sort_ext$compares_counter);
  1    18 dcl sort_ext$compare_sw fixed bin(1) ext;		/*  1 = user compare exit specified  */
  1    19 dcl compare_sw fixed bin(1)
  1    20 	 defined (sort_ext$compare_sw);
  1    21 dcl sort_ext$curr_input_file_attach char(256) ext;	/*  attach description, current input file (Sort)  */
  1    22 dcl curr_input_file_attach char(256)
  1    23 	 defined(sort_ext$curr_input_file_attach);
  1    24 dcl sort_ext$curr_input_file_name char(256) ext;		/*  pathname, current input file (Sort)  */
  1    25 dcl curr_input_file_name char(256)
  1    26 	 defined (sort_ext$curr_input_file_name);
  1    27 dcl sort_ext$curr_input_file_num fixed bin(17) ext;	/*  number for current input file (Sort)  */
  1    28 dcl curr_input_file_num fixed bin(17)
  1    29 	 defined (sort_ext$curr_input_file_num);
  1    30 dcl sort_ext$curr_output_file_attach char(256) ext;	/*  attach description, output file  */
  1    31 dcl curr_output_file_attach char(256)
  1    32 	 defined(sort_ext$curr_output_file_attach);
  1    33 dcl sort_ext$curr_output_file_name char(256) ext;		/*  pathname, output file  */
  1    34 dcl curr_output_file_name char(256)
  1    35 	 defined (sort_ext$curr_output_file_name);
  1    36 dcl sort_ext$debug_sw bit(1) ext;			/*  1 = -debug argument specified  */
  1    37 dcl debug_sw bit(1)
  1    38 	 defined(sort_ext$debug_sw);
  1    39 dcl sort_ext$disaster2 fixed bin(17) ext;		/*  0 = first call to sort_return or merge_return  */
  1    40 dcl disaster2 fixed bin(17)
  1    41 	 defined (sort_ext$disaster2);
  1    42 dcl sort_ext$dt(0: 31) fixed bin(30) ext;		/*  keys - datatype for sort_comp  */
  1    43 dcl dt(0: 31) fixed bin(30)
  1    44 	 defined (sort_ext$dt);
  1    45 dcl sort_ext$input_driver_is_sort bit(1) ext;		/*  1 = Sort reads input files, 0 = input_file exit  */
  1    46 dcl input_driver_is_sort bit(1)
  1    47 	 defined(sort_ext$input_driver_is_sort);
  1    48 dcl sort_ext$input_file_exit_sw bit(1) ext;		/*  1 = user input_file exit specified  */
  1    49 dcl input_file_exit_sw bit(1)
  1    50 	 defined(sort_ext$input_file_exit_sw);
  1    51 dcl sort_ext$input_file_max fixed bin(17) ext;		/*  number of input files specified [init(10)]  */
  1    52 		/*  must also change  merge_return:  merge_read_count  &  input_file_len  */
  1    53 dcl input_file_max fixed bin(17)
  1    54 	 defined(sort_ext$input_file_max);
  1    55 dcl sort_ext$input_record_exit_sw fixed bin(1) ext;	/*  1 = user input_record exit specified  */
  1    56 dcl input_record_exit_sw fixed bin(1)
  1    57 	 defined(sort_ext$input_record_exit_sw);
  1    58 dcl sort_ext$input_rec_deleted fixed bin(30) ext;		/*  number of records deleted at input_record exit  */
  1    59 dcl input_rec_deleted fixed bin(30)
  1    60 	 defined(sort_ext$input_rec_deleted);
  1    61 dcl sort_ext$input_rec_inserted fixed bin(30) ext;	/*  number of records inserted _record exit  */
  1    62 dcl input_rec_inserted fixed bin(30)
  1    63 	 defined(sort_ext$input_rec_inserted);
  1    64 dcl sort_ext$in_buff_ptr ptr ext;			/*  buffer for an input record (Sort or Merge reading)  */
  1    65 dcl in_buff_ptr ptr
  1    66 	 defined (sort_ext$in_buff_ptr);
  1    67 dcl sort_ext$leng(0: 31) fixed bin(30) ext;		/*  keys - length or precision for sort_comp  */
  1    68 dcl leng(0: 31) fixed bin(30)
  1    69 	 defined (sort_ext$leng);
  1    70 dcl sort_ext$max1 fixed bin(30) ext;			/*  limits size of unsorted string SS (sort_release)  */
  1    71 dcl max1 fixed bin(30)
  1    72 	 defined (sort_ext$max1);
  1    73 dcl sort_ext$max2 fixed bin(30) ext;			/*  limits size of unsorted string SS (sort_release)  */
  1    74 dcl max2 fixed bin(30)
  1    75 	 defined (sort_ext$max2);
  1    76 dcl sort_ext$max3 fixed bin(30) ext;			/*  maximum number of records per string SS  */
  1    77 dcl max3 fixed bin(30)
  1    78 	 defined (sort_ext$max3);
  1    79 dcl sort_ext$max4 fixed bin(30) ext;			/*  maximum merge order allowed (sort_presort)  */
  1    80 dcl max4 fixed bin(30)
  1    81 	 defined (sort_ext$max4);
  1    82 dcl sort_ext$max_rec_length fixed bin(30) ext;		/*  maximum record length permitted by Sort or Merge;  */
  1    83 						/*  slightly less than sys_info$max_seg_size  */
  1    84 dcl max_rec_length fixed bin(30)
  1    85 	 defined (sort_ext$max_rec_length);
  1    86 dcl sort_ext$merge_compares fixed bin(34) ext;		/*  number of compares in merge  */
  1    87 dcl merge_compares fixed bin(34)
  1    88 	 defined(sort_ext$merge_compares);
  1    89 dcl sort_ext$merge_in_iocb_ptrs(10) ptr ext;		/*  iox_ iocb's for Merge input files  */
  1    90 dcl merge_in_iocb_ptrs(10) ptr
  1    91 	 defined(sort_ext$merge_in_iocb_ptrs);
  1    92 dcl sort_ext$merge_input_file_attaches(10) char(256) ext;	/*  attach descriptions, Merge input files  */
  1    93 dcl merge_input_file_attaches(10) char(256)
  1    94 	 defined(sort_ext$merge_input_file_attaches);
  1    95 dcl sort_ext$merge_input_file_names(10) char(256) ext;	/*  pathnames, Merge input files  */
  1    96 dcl merge_input_file_names(10) char(256)
  1    97 	 defined(sort_ext$merge_input_file_names);
  1    98 dcl sort_ext$mii fixed bin(17) ext;			/*  merge order for Sort [init(0)]  */
  1    99 dcl mii fixed bin(17)
  1   100 	 defined (sort_ext$mii);
  1   101 dcl sort_ext$min_rec_length fixed bin(30) ext;		/*  record length required to include all key fields  */
  1   102 dcl min_rec_length fixed bin(30)
  1   103 	 defined (sort_ext$min_rec_length);
  1   104 dcl sort_ext$mip (1000) fixed bin(30) ext;		/*  number of records in each string MS for merge  */
  1   105 dcl mip (1000) fixed bin(30)
  1   106 	 defined (sort_ext$mip);
  1   107 dcl sort_ext$msp (1000) ptr ext;			/*  sorted strings MS(1:mii) to be merged  */
  1   108 dcl msp (1000) ptr
  1   109 	 defined (sort_ext$msp);
  1   110 dcl sort_ext$no_of_keys fixed bin(30) ext;		/*  number of keys specified  */
  1   111 dcl no_of_keys fixed bin(30)
  1   112 	 defined(sort_ext$no_of_keys);
  1   113 dcl sort_ext$old_input_file_num fixed bin(17) ext;	/*  used for identifying files with bad key data  */
  1   114 dcl old_input_file_num fixed bin(17)			/*       (illegal_procedure handler in sort_presort)  */
  1   115 	 defined(sort_ext$old_input_file_num);
  1   116 dcl sort_ext$output_driver_is_sort bit(1) ext;		/*  1 = Sort or Merge writes output file;  */
  1   117 dcl output_driver_is_sort bit(1)			/*  0 = output_file exit  */
  1   118 	 defined(sort_ext$output_driver_is_sort);
  1   119 dcl sort_ext$output_file_exit_sw bit(1) ext;		/*  1 = user output_file exit specified  */
  1   120 dcl output_file_exit_sw bit(1)
  1   121 	 defined(sort_ext$output_file_exit_sw);
  1   122 dcl sort_ext$output_rec_deleted fixed bin(30) ext;	/*  number of records deleted at output_record exit  */
  1   123 dcl output_rec_deleted fixed bin(30)
  1   124 	 defined(sort_ext$output_rec_deleted);
  1   125 dcl sort_ext$output_rec_inserted fixed bin(30) ext;	/*  number of record inserted at output_record exit  */
  1   126 dcl output_rec_inserted fixed bin(30)
  1   127 	 defined(sort_ext$output_rec_inserted);
  1   128 dcl sort_ext$output_record_exit_sw fixed bin(1) ext;	/*  1 = user output_record exit specified  */
  1   129 dcl output_record_exit_sw fixed bin(1)
  1   130 	 defined(sort_ext$output_record_exit_sw);
  1   131 dcl sort_ext$presort_compares fixed bin(34) ext;		/*  number of compares in presort  */
  1   132 dcl presort_compares fixed bin(34)
  1   133 	 defined(sort_ext$presort_compares);
  1   134 dcl 1 sort_ext$pu(5) ext,
  1   135    2 x_n fixed bin,					/*  [init((5) 1)]  */
  1   136    2 x_rcpu fixed bin(71);
  1   137 dcl 1 pu(5)
  1   138 	 defined(sort_ext$pu),
  1   139    2 n fixed bin,
  1   140    2 rcpu fixed bin(71);
  1   141 dcl sort_ext$read_count fixed bin(30) ext;		/*  number of records read by Sort (or by Merge)  */
  1   142 dcl read_count fixed bin(30)
  1   143 	 defined (sort_ext$read_count);
  1   144 dcl sort_ext$rec_ptr_a ptr ext;			/*  buffer for output_record exit and sequence checker  */
  1   145 dcl rec_ptr_a ptr
  1   146 	 defined(sort_ext$rec_ptr_a);
  1   147 dcl sort_ext$rec_ptr_b ptr ext;			/*  buffer for output_record exit and sequence checker  */
  1   148 dcl rec_ptr_b ptr
  1   149 	 defined(sort_ext$rec_ptr_b);
  1   150 dcl sort_ext$release_count fixed bin(30) ext;		/*  number of records released to Sort (Merge)  */
  1   151 dcl release_count fixed bin(30)
  1   152 	 defined (sort_ext$release_count);
  1   153 dcl sort_ext$report_sw bit(2) ext;			/*  00 = print summary report, 01 = suppress  */
  1   154 dcl report_sw bit(2)
  1   155 	 defined (sort_ext$report_sw);
  1   156 dcl sort_ext$return_count fixed bin(30) ext;		/*  number of records returned from Sort (Merge)  */
  1   157 dcl return_count fixed bin(30)
  1   158 	 defined (sort_ext$return_count);
  1   159 dcl sort_ext$rev(0: 31) fixed bin(1) ext;		/*  keys - descending indicator for sort_comp  */
  1   160 dcl rev(0: 31) fixed bin(1)
  1   161 	 defined (sort_ext$rev);
  1   162 dcl sort_ext$sii fixed bin(30) ext;			/*  number of records, current string (sort_release)  */
  1   163 dcl sii fixed bin(30)
  1   164 	 defined (sort_ext$sii);
  1   165 dcl sort_ext$sip ptr ext;				/*  SI - tree of indices (subscripts) for records  */
  1   166 dcl sip ptr					/*       being sorted or merged  */
  1   167 	 defined (sort_ext$sip);
  1   168 dcl sort_ext$sort_compare_exit variable			/*  entry point, user compare exit procedure  */
  1   169 	 entry(ptr, ptr) returns(fixed bin(1)) ext;
  1   170 dcl sort_ext$sort_desc_pn  char(168) ext;		/*  pathname, Sort (Merge) Description segment  */
  1   171 dcl sort_desc_pn char(168)
  1   172 	 defined(sort_ext$sort_desc_pn);
  1   173 dcl sort_ext$sort_input_record_exit variable		/*  entry point, user input_record exit procedure  */
  1   174 	 entry(ptr, fixed bin(21), fixed bin, bit(1)) ext;
  1   175 dcl sort_input_record_exit variable
  1   176 	entry(ptr, fixed bin(21), fixed bin, bit(1))
  1   177 	 defined(sort_ext$sort_input_record_exit);
  1   178 dcl sort_ext$sort_output_record_exit variable		/*  entry point, user output_record exit procedure  */
  1   179 	entry(ptr, fixed bin(21), ptr, fixed bin(21), fixed bin, fixed bin(1), bit(1), bit(1), bit(1)) ext;
  1   180 dcl sort_output_record_exit variable
  1   181 	entry(ptr, fixed bin(21), ptr, fixed bin(21), fixed bin, fixed bin(1), bit(1), bit(1), bit(1))
  1   182 	defined(sort_ext$sort_output_record_exit);
  1   183 dcl sort_ext$srp ptr ext;				/*  SR - position and length of each record  */
  1   184 dcl srp ptr					/*       in SS string for presort  */
  1   185 	 defined (sort_ext$srp);
  1   186 dcl sort_ext$ssi fixed bin(30) ext;			/*  char offset in SS of current record (sort_release)  */
  1   187 dcl ssi fixed bin(30)
  1   188 	 defined (sort_ext$ssi);
  1   189 dcl sort_ext$ssp ptr ext;				/*  SS - unsorted string during presort  */
  1   190 dcl ssp ptr
  1   191 	 defined (sort_ext$ssp);
  1   192 dcl sort_ext$state fixed bin(17) ext;			/*  state variable controlling sequence of calls to  */
  1   193 dcl state fixed bin(17)				/*    the various stages of the Sort (Merge) [init(0)]  */
  1   194 	 defined (sort_ext$state);
  1   195 dcl sort_ext$terminate_print_sw bit(1) ext;		/*  0 = command prints (sort_merge_print_report)  */
  1   196 dcl terminate_print_sw bit(1)				/*  1 = subroutine prints (sort_merge_terminate)  */
  1   197 	 defined (sort_ext$terminate_print_sw);
  1   198 dcl 1 sort_ext$time_info(5) ext,			/*  used for -time information  */
  1   199    2 x_etime fixed bin(71),
  1   200    2 x_vtime fixed bin(71),
  1   201    2 x_pf fixed bin,
  1   202    2 x_pd_f fixed bin;
  1   203 dcl 1 time_info(5)
  1   204 	 defined(sort_ext$time_info),
  1   205    2 etime fixed bin(71),
  1   206    2 vtime fixed bin(71),
  1   207    2 pf fixed bin,
  1   208    2 pd_f fixed bin;
  1   209 dcl sort_ext$time_sw bit(1) ext;			/*  1 = -time argument specified  */
  1   210 dcl time_sw bit(1)
  1   211 	 defined(sort_ext$time_sw);
  1   212 dcl sort_ext$user_out_sw char(32) ext;			/*  I/O switch for summary report, diagnostics:  */
  1   213 dcl user_out_sw char(32)				/*       "user_output", "" = suppress, other = user switch  */
  1   214 	 defined(sort_ext$user_out_sw);
  1   215 dcl sort_ext$unique_prefix char(16) ext;		/*  unique to each invocation, for temporary names  */
  1   216 dcl unique_prefix char(16)
  1   217 	 defined (sort_ext$unique_prefix); /* -4- */
  1   218 dcl sort_ext$w(0: 31) fixed bin(30) ext;		/*  keys - word (sometimes char) offset for sort_comp  */
  1   219 dcl w(0: 31) fixed bin(30)
  1   220 	 defined (sort_ext$w);
  1   221 dcl sort_ext$wf_dir_name char(168) aligned ext;		/*  -td directory pathname argument  */
  1   222 dcl wf_dir_name char(168) aligned
  1   223 	 defined(sort_ext$wf_dir_name);
  1   224 dcl sort_ext$wf_full_name char(168) ext;		/*  absolute -td directory pathname  */
  1   225 dcl wf_full_name char(168)
  1   226 	 defined (sort_ext$wf_full_name); /* -42- */
  1   227 dcl sort_ext$whoami char(6) ext;			/*  "sort", "merge", "sort_", "merge_" called  */
  1   228 dcl whoami char(6)
  1   229 	 defined (sort_ext$whoami); /* -2- */
  1   230 dcl sort_ext$write_count fixed bin(30) ext;		/*  number of records written by Sort (Merge)  */
  1   231 dcl write_count fixed bin(30)
  1   232 	 defined (sort_ext$write_count);
       36
       37 dcl  error_table_$bad_arg fixed bin(35) external;
       38
       39 /*   INTERNAL STATIC (constants only)     */
       40 dcl (on init("1"b),
       41      off init("0"b) ) bit(1) internal static;
       42
       43 /*   AUTOMATIC AND BASED     */
       44 dcl  shortinfo char(8) aligned,
       45      longinfo char(100) aligned;
       46
       47
       48 dcl  hcs_code fixed bin(35);
       49
       50
       51 /*   Start   */
       52
       53 /*   Test for errors found by sort(merge):   */
       54      call test_arg_error(arg_err_code);
       55      if arg_err_code ^= 0 then return;
       56
       57 /*   Test for errors found by sort_(merge_):   */
       58      if sort_code ^= 0 then call test_sort_error;
       59      else if time_sw = on then do;
       60 	etime(5) = clock_();
       61 	call cpu_time_and_paging_(pf(5), vtime(5), pd_f(5));
       62 	call hcs_$get_process_usage(addr(pu(5)), hcs_code);
       63 	call print_time_info;
       64 	end;
       65      return;		/*   To caller (sort or merge).   */
       66
       67 test_arg_error:  proc(code);		/*   Process errors detected in argument processing:   */
       68 dcl  code fixed bin(35) parameter;
       69      code = 0;
       70      if arg_err_sw = on then do;	/*   Checked before fatal_sw since both may be on.   */
       71 	call sort_com_err(1);		/*   Bad argument(s).   */
       72 	code = 1;
       73 	end;
       74      else if fatal_sw = on then do;
       75 	call sort_com_err(0);	/*   Fatal error.   */
       76 	code = 1;
       77 	end;
       78 end test_arg_error;
       79
       80 test_sort_error:  proc;		/*   Process error detected by sort_(merge_).   */
       81      if sort_code = error_table_$bad_arg then do;	/*   Bad argument(s) detected by sort_(merge_).   */
       82 	call sort_com_err(1);
       83 	end;
       84      else do;			/*   Some other error detected by sort_(merge_).   */
       85 	call convert_status_code_(sort_code, shortinfo, longinfo);
       86 	call com_err_(0, whoami, " ^a  ^a is abandoned.", longinfo, caps(whoami));
       87 	end;
       88 end test_sort_error;
       89
       90 sort_com_err:  proc(code);
       91 dcl  code fixed bin parameter;
       92      if code ^= 0 then call com_err_(0, whoami,
       93 			" Errors in arguments.  ^a will not be attempted.", caps(whoami));
       94      else call com_err_(0, whoami, " ^a will not be attempted.", caps(whoami));
       95 end sort_com_err;
       96
       97
       98 caps:  proc(whoami)  returns(char(5));
       99 dcl  whoami  char(*) parameter;
      100      if substr(whoami, 1, 4) = "sort" then return("Sort");
      101      else return("Merge");
      102 end caps;
      103
      104
      105 print_time_info:  proc;
      106 dcl  head char(8);
      107      if whoami = "sort" then do;
      108 	call ioa_("^/Merge order = ^d.", mii);
      109 	call ioa_("String size =~ ^d.", max2);
      110 	end;
      111      if compares_counter > 0 then head = "COMPARES"; else head = "";
      112      call ioa_("^/PHASE^3x^2xELAPSED^5xRCPU^5xVCPU^2xPAGES^2xP_DEV ^8a", head);
      113      call form_line("Overhead",
      114 	etime(5) - etime(4) + etime(2) - etime(1),
      115 	rcpu(5) - rcpu(4) + rcpu(2) - rcpu(1),
      116 	vtime(5) - vtime(4) + vtime(2) - vtime(1),
      117 	   pf(5) -    pf(4) +    pf(2) -    pf(1),
      118 	pd_f(5) - pd_f(4) + pd_f(2) - pd_f(1),
      119 	0);
      120      if whoami = "sort" then do;
      121 	call form_line("Presort",
      122 	     etime(3) - etime(2),
      123 	     rcpu(3) - rcpu(2),
      124 	     vtime(3) - vtime(2),
      125 	        pf(3) -    pf(2),
      126 	     pd_f(3) - pd_f(2),
      127 	        presort_compares);
      128 	end;
      129      call form_line("Merge",
      130 	etime(4) - etime(3),
      131 	rcpu(4) - rcpu(3),
      132 	vtime(4) - vtime(3),
      133 	   pf(4) -    pf(3),
      134 	pd_f(4) - pd_f(3),
      135 	   merge_compares);
      136      call form_line("TOTAL",
      137 	etime(5) - etime(1),
      138 	rcpu(5) - rcpu(1),
      139 	vtime(5) - vtime(1),
      140 	   pf(5) -    pf(1),
      141 	pd_f(5) - pd_f(1),
      142 	   compares_counter);
      143      call ioa_("");
      144
      145 end print_time_info;
      146
      147
      148 form_line:  proc(name, etime, rtime, vtime, pf, pd_f, compares);
      149 dcl (name char(*),
      150      etime fixed bin(71),
      151      rtime fixed bin(71),
      152      vtime fixed bin(71),
      153      pf    fixed bin,
      154      pd_f fixed bin,
      155      compares fixed bin(34) ) parameter;
      156      call ioa_$nnl("^8a ^8.2f ^8.2f ^8.2f ^6d ^6d",
      157 	name,
      158 	divide(etime, 10**6, 35, 8),
      159 	divide(rtime, 10**6, 35, 8),
      160 	divide(vtime, 10**6, 35, 8),
      161 	pf,
      162 	pd_f);
      163      if compares > 0 then call ioa_(" ^8d", compares);
      164      else call ioa_("");
      165 end form_line;
      166
      167
      168 end sort_merge_command_finish;
	SOURCE FILES USED IN THIS COMPILATION.

LINE      NUMBER  DATE MODIFIED     NAME			PATHNAME
             0    11/11/82  1029.5  sort_merge_command_finish.pl1     >spec>on>11/11/82>sort_merge_command_finish.pl1
36           1    12/20/77  1614.2  sort_ext.incl.pl1                 >ldd>include>sort_ext.incl.pl1
	NAMES DECLARED IN THIS COMPILATION.

IDENTIFIER	     OFFSET    LOC STORAGE CLASS   DATA TYPE		ATTRIBUTES AND REFERENCES
								(* indicates a set context)

NAMES DECLARED BY DECLARE STATEMENT.
arg_err_code                           parameter       fixed bin(35,0)          dcl 18 set ref 15 54* 55
arg_err_sw                             parameter       bit(1)                   unaligned dcl 18 ref 15 70
clock_                          000012 constant        entry                    external dcl 26 ref 60
code                                   parameter       fixed bin(17,0)          dcl 91 in procedure "sort_com_err" ref 90 92
code                                   parameter       fixed bin(35,0)          dcl 68 in procedure "test_arg_error" set ref 67 69*
                                                                                  72* 76*
com_err_                        000014 constant        entry                    external dcl 27 ref 86 92 94
compares                               parameter       fixed bin(34,0)          dcl 149 set ref 148 163 163*
compares_counter                       defined         fixed bin(34,0)          dcl 1-16 set ref 111 136*
convert_status_code_            000016 constant        entry                    external dcl 28 ref 85
cpu_time_and_paging_            000020 constant        entry                    external dcl 29 ref 61
error_table_$bad_arg            000052 external static fixed bin(35,0)          dcl 37 ref 81
etime                                  parameter       fixed bin(71,0)          dcl 149 in procedure "form_line" ref 148 156 156
etime                                  defined         fixed bin(71,0)          array level 2 in structure "time_info" dcl 1-203
                                                                                  in procedure "sort_merge_command_finish" set ref
                                                                                  60* 113 113 113 113 121 121 129 129 136 136
fatal_sw                               parameter       bit(1)                   unaligned dcl 18 ref 15 74
hcs_$get_process_usage          000022 constant        entry                    external dcl 30 ref 62
hcs_code                        000133 automatic       fixed bin(35,0)          dcl 48 set ref 62*
head                            000172 automatic       char(8)                  unaligned dcl 106 set ref 111* 111* 112*
ioa_                            000024 constant        entry                    external dcl 31 ref 108 109 112 143 163 164
ioa_$nnl                        000026 constant        entry                    external dcl 31 ref 156
longinfo                        000102 automatic       char(100)                dcl 44 set ref 85* 86*
max2                                   defined         fixed bin(30,0)          dcl 1-74 set ref 109*
merge_compares                         defined         fixed bin(34,0)          dcl 1-87 set ref 129*
mii                                    defined         fixed bin(17,0)          dcl 1-99 set ref 108*
name                                   parameter       char                     unaligned dcl 149 set ref 148 156*
on                              001470 constant        bit(1)                   initial unaligned dcl 40 ref 59 70 74
pd_f                      5            defined         fixed bin(17,0)          array level 2 in structure "time_info" dcl 1-203
                                                                                  in procedure "sort_merge_command_finish" set ref
                                                                                  61* 113 113 113 113 121 121 129 129 136 136
pd_f                                   parameter       fixed bin(17,0)          dcl 149 in procedure "form_line" set ref 148 156*
pf                        4            defined         fixed bin(17,0)          array level 2 in structure "time_info" dcl 1-203
                                                                                  in procedure "sort_merge_command_finish" set ref
                                                                                  61* 113 113 113 113 121 121 129 129 136 136
pf                                     parameter       fixed bin(17,0)          dcl 149 in procedure "form_line" set ref 148 156*
presort_compares                       defined         fixed bin(34,0)          dcl 1-132 set ref 121*
pu                                     defined         structure                array level 1 unaligned dcl 1-137 set ref 62 62
rcpu                      2            defined         fixed bin(71,0)          array level 2 dcl 1-137 set ref 113 113 113 113 121
                                                                                  121 129 129 136 136
rtime                                  parameter       fixed bin(71,0)          dcl 149 ref 148 156 156
shortinfo                       000100 automatic       char(8)                  dcl 44 set ref 85*
sort_code                              parameter       fixed bin(35,0)          dcl 18 set ref 15 58 81 85*
sort_ext$compares_counter       000030 external static fixed bin(34,0)          dcl 1-15 ref 111 111 136 136
sort_ext$max2                   000032 external static fixed bin(30,0)          dcl 1-73 ref 109 109
sort_ext$merge_compares         000034 external static fixed bin(34,0)          dcl 1-86 ref 129 129
sort_ext$mii                    000036 external static fixed bin(17,0)          dcl 1-98 ref 108 108
sort_ext$presort_compares       000040 external static fixed bin(34,0)          dcl 1-131 ref 121 121
sort_ext$pu                     000042 external static structure                array level 1 unaligned dcl 1-134 ref 62 62 62 62 62
                                                                                  62 62 62 113 113 113 113 113 113 113 113 121 121
                                                                                  121 121 129 129 129 129 136 136 136 136
sort_ext$time_info              000044 external static structure                array level 1 unaligned dcl 1-198 set ref 60* 60 61
                                                                                  61 61 61 61 61 113 113 113 113 113 113 113 113 113
                                                                                  113 113 113 113 113 113 113 113 113 113 113 113
                                                                                  113 113 113 113 113 113 113 113 113 113 113 121
                                                                                  121 121 121 121 121 121 121 121 121 121 121 121
                                                                                  121 121 121 129 129 129 129 129 129 129 129 129
                                                                                  129 129 129 129 129 129 129 136 136 136 136 136
                                                                                  136 136 136 136 136 136 136 136 136 136 136
sort_ext$time_sw                000046 external static bit(1)                   unaligned dcl 1-209 ref 59 59
sort_ext$whoami                 000050 external static char(6)                  unaligned dcl 1-227 ref 86 86 86 86 86 86 92 92 92
                                                                                  92 92 92 94 94 94 94 94 94 107 107 120 120
time_info                              defined         structure                array level 1 unaligned dcl 1-203
time_sw                                defined         bit(1)                   unaligned dcl 1-210 ref 59
vtime                     2            defined         fixed bin(71,0)          array level 2 in structure "time_info" dcl 1-203
                                                                                  in procedure "sort_merge_command_finish" set ref
                                                                                  61* 113 113 113 113 121 121 129 129 136 136
vtime                                  parameter       fixed bin(71,0)          dcl 149 in procedure "form_line" ref 148 156 156
whoami                                 defined         char(6)                  unaligned dcl 1-228 in procedure
                                                                                  "sort_merge_command_finish" set ref 86* 86* 86*
                                                                                  92* 92* 92* 94* 94* 94* 107 120
whoami                                 parameter       char                     unaligned dcl 99 in procedure "caps" ref 98 100

NAMES DECLARED BY DECLARE STATEMENT AND NEVER REFERENCED.
acl                                    defined         structure                array level 1 unaligned dcl 1-6
b                                      defined         fixed bin(30,0)          array dcl 1-13
compare_sw                             defined         fixed bin(1,0)           dcl 1-19
curr_input_file_attach                 defined         char(256)                unaligned dcl 1-22
curr_input_file_name                   defined         char(256)                unaligned dcl 1-25
curr_input_file_num                    defined         fixed bin(17,0)          dcl 1-28
curr_output_file_attach                defined         char(256)                unaligned dcl 1-31
curr_output_file_name                  defined         char(256)                unaligned dcl 1-34
debug_sw                               defined         bit(1)                   unaligned dcl 1-37
disaster2                              defined         fixed bin(17,0)          dcl 1-40
dt                                     defined         fixed bin(30,0)          array dcl 1-43
in_buff_ptr                            defined         pointer                  dcl 1-65
input_driver_is_sort                   defined         bit(1)                   unaligned dcl 1-46
input_file_exit_sw                     defined         bit(1)                   unaligned dcl 1-49
input_file_max                         defined         fixed bin(17,0)          dcl 1-53
input_rec_deleted                      defined         fixed bin(30,0)          dcl 1-59
input_rec_inserted                     defined         fixed bin(30,0)          dcl 1-62
input_record_exit_sw                   defined         fixed bin(1,0)           dcl 1-56
leng                                   defined         fixed bin(30,0)          array dcl 1-68
max1                                   defined         fixed bin(30,0)          dcl 1-71
max3                                   defined         fixed bin(30,0)          dcl 1-77
max4                                   defined         fixed bin(30,0)          dcl 1-80
max_rec_length                         defined         fixed bin(30,0)          dcl 1-84
merge_in_iocb_ptrs                     defined         pointer                  array dcl 1-90
merge_input_file_attaches              defined         char(256)                array unaligned dcl 1-93
merge_input_file_names                 defined         char(256)                array unaligned dcl 1-96
min_rec_length                         defined         fixed bin(30,0)          dcl 1-102
mip                                    defined         fixed bin(30,0)          array dcl 1-105
msp                                    defined         pointer                  array dcl 1-108
no_of_keys                             defined         fixed bin(30,0)          dcl 1-111
off                                    internal static bit(1)                   initial unaligned dcl 40
old_input_file_num                     defined         fixed bin(17,0)          dcl 1-114
output_driver_is_sort                  defined         bit(1)                   unaligned dcl 1-117
output_file_exit_sw                    defined         bit(1)                   unaligned dcl 1-120
output_rec_deleted                     defined         fixed bin(30,0)          dcl 1-123
output_rec_inserted                    defined         fixed bin(30,0)          dcl 1-126
output_record_exit_sw                  defined         fixed bin(1,0)           dcl 1-129
read_count                             defined         fixed bin(30,0)          dcl 1-142
rec_ptr_a                              defined         pointer                  dcl 1-145
rec_ptr_b                              defined         pointer                  dcl 1-148
release_count                          defined         fixed bin(30,0)          dcl 1-151
report_sw                              defined         bit(2)                   unaligned dcl 1-154
return_count                           defined         fixed bin(30,0)          dcl 1-157
rev                                    defined         fixed bin(1,0)           array dcl 1-160
sii                                    defined         fixed bin(30,0)          dcl 1-163
sip                                    defined         pointer                  dcl 1-166
sort_desc_pn                           defined         char(168)                unaligned dcl 1-171
sort_ext$acl                           external static structure                array level 1 unaligned dcl 1-1
sort_ext$b                             external static fixed bin(30,0)          array dcl 1-12
sort_ext$compare_sw                    external static fixed bin(1,0)           dcl 1-18
sort_ext$curr_input_file_attach        external static char(256)                unaligned dcl 1-21
sort_ext$curr_input_file_name          external static char(256)                unaligned dcl 1-24
sort_ext$curr_input_file_num           external static fixed bin(17,0)          dcl 1-27
sort_ext$curr_output_file_attach       external static char(256)                unaligned dcl 1-30
sort_ext$curr_output_file_name         external static char(256)                unaligned dcl 1-33
sort_ext$debug_sw                      external static bit(1)                   unaligned dcl 1-36
sort_ext$disaster2                     external static fixed bin(17,0)          dcl 1-39
sort_ext$dt                            external static fixed bin(30,0)          array dcl 1-42
sort_ext$in_buff_ptr                   external static pointer                  dcl 1-64
sort_ext$input_driver_is_sort          external static bit(1)                   unaligned dcl 1-45
sort_ext$input_file_exit_sw            external static bit(1)                   unaligned dcl 1-48
sort_ext$input_file_max                external static fixed bin(17,0)          dcl 1-51
sort_ext$input_rec_deleted             external static fixed bin(30,0)          dcl 1-58
sort_ext$input_rec_inserted            external static fixed bin(30,0)          dcl 1-61
sort_ext$input_record_exit_sw          external static fixed bin(1,0)           dcl 1-55
sort_ext$leng                          external static fixed bin(30,0)          array dcl 1-67
sort_ext$max1                          external static fixed bin(30,0)          dcl 1-70
sort_ext$max3                          external static fixed bin(30,0)          dcl 1-76
sort_ext$max4                          external static fixed bin(30,0)          dcl 1-79
sort_ext$max_rec_length                external static fixed bin(30,0)          dcl 1-82
sort_ext$merge_in_iocb_ptrs            external static pointer                  array dcl 1-89
sort_ext$merge_input_file_attaches     external static char(256)                array unaligned dcl 1-92
sort_ext$merge_input_file_names        external static char(256)                array unaligned dcl 1-95
sort_ext$min_rec_length                external static fixed bin(30,0)          dcl 1-101
sort_ext$mip                           external static fixed bin(30,0)          array dcl 1-104
sort_ext$msp                           external static pointer                  array dcl 1-107
sort_ext$no_of_keys                    external static fixed bin(30,0)          dcl 1-110
sort_ext$old_input_file_num            external static fixed bin(17,0)          dcl 1-113
sort_ext$output_driver_is_sort         external static bit(1)                   unaligned dcl 1-116
sort_ext$output_file_exit_sw           external static bit(1)                   unaligned dcl 1-119
sort_ext$output_rec_deleted            external static fixed bin(30,0)          dcl 1-122
sort_ext$output_rec_inserted           external static fixed bin(30,0)          dcl 1-125
sort_ext$output_record_exit_sw         external static fixed bin(1,0)           dcl 1-128
sort_ext$read_count                    external static fixed bin(30,0)          dcl 1-141
sort_ext$rec_ptr_a                     external static pointer                  dcl 1-144
sort_ext$rec_ptr_b                     external static pointer                  dcl 1-147
sort_ext$release_count                 external static fixed bin(30,0)          dcl 1-150
sort_ext$report_sw                     external static bit(2)                   unaligned dcl 1-153
sort_ext$return_count                  external static fixed bin(30,0)          dcl 1-156
sort_ext$rev                           external static fixed bin(1,0)           array dcl 1-159
sort_ext$sii                           external static fixed bin(30,0)          dcl 1-162
sort_ext$sip                           external static pointer                  dcl 1-165
sort_ext$sort_compare_exit             external static entry variable           dcl 1-168
sort_ext$sort_desc_pn                  external static char(168)                unaligned dcl 1-170
sort_ext$sort_input_record_exit        external static entry variable           dcl 1-173
sort_ext$sort_output_record_exit       external static entry variable           dcl 1-178
sort_ext$srp                           external static pointer                  dcl 1-183
sort_ext$ssi                           external static fixed bin(30,0)          dcl 1-186
sort_ext$ssp                           external static pointer                  dcl 1-189
sort_ext$state                         external static fixed bin(17,0)          dcl 1-192
sort_ext$terminate_print_sw            external static bit(1)                   unaligned dcl 1-195
sort_ext$unique_prefix                 external static char(16)                 unaligned dcl 1-215
sort_ext$user_out_sw                   external static char(32)                 unaligned dcl 1-212
sort_ext$w                             external static fixed bin(30,0)          array dcl 1-218
sort_ext$wf_dir_name                   external static char(168)                dcl 1-221
sort_ext$wf_full_name                  external static char(168)                unaligned dcl 1-224
sort_ext$write_count                   external static fixed bin(30,0)          dcl 1-230
sort_input_record_exit                 defined         entry variable           dcl 1-175
sort_output_record_exit                defined         entry variable           dcl 1-180
srp                                    defined         pointer                  dcl 1-184
ssi                                    defined         fixed bin(30,0)          dcl 1-187
ssp                                    defined         pointer                  dcl 1-190
state                                  defined         fixed bin(17,0)          dcl 1-193
terminate_print_sw                     defined         bit(1)                   unaligned dcl 1-196
unique_prefix                          defined         char(16)                 unaligned dcl 1-216
user_out_sw                            defined         char(32)                 unaligned dcl 1-213
w                                      defined         fixed bin(30,0)          array dcl 1-219
wf_dir_name                            defined         char(168)                dcl 1-222
wf_full_name                           defined         char(168)                unaligned dcl 1-225
write_count                            defined         fixed bin(30,0)          dcl 1-231

NAMES DECLARED BY EXPLICIT CONTEXT.
caps                            000523 constant        entry                    internal dcl 98 ref 86 86 92 92 94 94
form_line                       001174 constant        entry                    internal dcl 148 ref 113 121 129 136
print_time_info                 000554 constant        entry                    internal dcl 105 ref 63
sort_com_err                    000401 constant        entry                    internal dcl 90 ref 71 75 82
sort_merge_command_finish       000150 constant        entry                    external dcl 15
test_arg_error                  000241 constant        entry                    internal dcl 67 ref 54
test_sort_error                 000276 constant        entry                    internal dcl 80 ref 58

NAMES DECLARED BY CONTEXT OR IMPLICATION.
addr                                                   builtin function         ref 62 62
divide                                                 builtin function         ref 156 156 156 156 156 156
substr                                                 builtin function         ref 100

STORAGE REQUIREMENTS FOR THIS PROGRAM.

	Object	Text	Link	Symbol	Defs	Static
Start          0       0      1712        1766    1472        1722
Length      2224    1472        54         222     217           0

BLOCK NAME	         STACK SIZE     TYPE		WHY NONQUICK/WHO SHARES STACK FRAME
sort_merge_command_finish           396 external procedure  is an external procedure.
test_arg_error                          internal procedure  shares stack frame of external procedure sort_merge_command_finish.
test_sort_error                         internal procedure  shares stack frame of external procedure sort_merge_command_finish.
sort_com_err                            internal procedure  shares stack frame of external procedure sort_merge_command_finish.
caps                                    internal procedure  shares stack frame of external procedure sort_merge_command_finish.
print_time_info                         internal procedure  shares stack frame of external procedure sort_merge_command_finish.
form_line                               internal procedure  shares stack frame of external procedure sort_merge_command_finish.

STORAGE FOR AUTOMATIC VARIABLES.

STACK FRAME                 LOC IDENTIFIER                  BLOCK NAME
sort_merge_command_finish
                         000100 shortinfo                   sort_merge_command_finish
                         000102 longinfo                    sort_merge_command_finish
                         000133 hcs_code                    sort_merge_command_finish
                         000172 head                        print_time_info

THE FOLLOWING EXTERNAL OPERATORS ARE USED BY THIS PROGRAM.
call_ext_out_desc   call_ext_out        return              ext_entry           divide_fx4

THE FOLLOWING EXTERNAL ENTRIES ARE CALLED BY THIS PROGRAM.
clock_                        com_err_                      convert_status_code_          cpu_time_and_paging_
decimal_exp_                  hcs_$get_process_usage        ioa_                          ioa_$nnl

THE FOLLOWING EXTERNAL VARIABLES ARE USED BY THIS PROGRAM.
error_table_$bad_arg          sort_ext$compares_counter     sort_ext$max2                 sort_ext$merge_compares
sort_ext$mii                  sort_ext$presort_compares     sort_ext$pu                   sort_ext$time_info
sort_ext$time_sw              sort_ext$whoami


   LINE    LOC      LINE    LOC      LINE    LOC      LINE    LOC      LINE    LOC      LINE    LOC      LINE    LOC
     15 000143        54 000155        55 000164        58 000167        59 000173        60 000200        61 000207
     62 000223        63 000237        65 000240        67 000241        69 000243        70 000244        71 000252
     72 000256        73 000261        74 000262        75 000267        76 000272        78 000275        80 000276
     81 000277        82 000304        83 000310        85 000311        86 000323        88 000400        90 000401
     92 000403        94 000454        95 000522        98 000523       100 000534       101 000547       105 000554
    107 000555       108 000571       109 000610       111 000633       111 000641       112 000643       113 000662
    120 000724       121 000740       129 001020       136 001101       143 001162       145 001173       148 001174
    156 001205       163 001365       164 001410       165 001421


                                          -----------------------------------------------------------


Historical Background

This edition of the Multics software materials and documentation is provided and donated
to Massachusetts Institute of Technology by Group BULL including BULL HN Information Systems Inc.
as a contribution to computer science knowledge.
This donation is made also to give evidence of the common contributions of Massachusetts Institute of Technology,
Bell Laboratories, General Electric, Honeywell Information Systems Inc., Honeywell BULL Inc., Groupe BULL
and BULL HN Information Systems Inc. to the development of this operating system.
Multics development was initiated by Massachusetts Institute of Technology Project MAC (1963-1970),
renamed the MIT Laboratory for Computer Science and Artificial Intelligence in the mid 1970s, under the leadership
of Professor Fernando Jose Corbato. Users consider that Multics provided the best software architecture
for managing computer hardware properly and for executing programs. Many subsequent operating systems
incorporated Multics principles.
Multics was distributed in 1975 to 2000 by Group Bull in Europe , and in the U.S. by Bull HN Information Systems Inc.,
as successor in interest by change in name only to Honeywell Bull Inc. and Honeywell Information Systems Inc. .

                                          -----------------------------------------------------------

Permission to use, copy, modify, and distribute these programs and their documentation for any purpose and without
fee is hereby granted,provided that the below copyright notice and historical background appear in all copies
and that both the copyright notice and historical background and this permission notice appear in supporting
documentation, and that the names of MIT, HIS, BULL or BULL HN not be used in advertising or publicity pertaining
to distribution of the programs without specific prior written permission.
    Copyright 1972 by Massachusetts Institute of Technology and Honeywell Information Systems Inc.
    Copyright 2006 by BULL HN Information Systems Inc.
    Copyright 2006 by Bull SAS
    All Rights Reserved
