ASSEMBLY LISTING OF SEGMENT >dumps>old_dumps>on>MIB-073181>tek_4662.alm
ASSEMBLED ON:	08/12/81  2218.4 mst Wed
OPTIONS USED:	list
ASSEMBLED BY:	ALM Version  6.4  April 1981
ASSEMBLER CREATED:	07/15/81  1221.6 mst Wed

                                     1  " Created by:  compile_gdt, Version of 22 December 1977.
                                     2
    000000                           3  	name	tek_4662_table
                                     4
                        000000       5  	segdef	table_start
                                     6
    000000                           7  table_start:
    000000  aa   000000 000002       8  	dec	2		"version number
    000001  aa  164 145 153 137      9  	aci	"tek_4662                        "
    000002  aa  064 066 066 062
    000003  aa  040 040 040 040
    000004  aa  040 040 040 040
    000005  aa  040 040 040 040
    000006  aa  040 040 040 040
    000007  aa  040 040 040 040
    000010  aa  040 040 040 040
    000011  aa  163 164 141 164     10  	aci	"stat"
    000012  aa   012500 000000      11  	dec	 2.e1, 1.5e1, 3.38e0	"character parameters
    000013  aa   010740 000000
    000014  aa   004660 507534
    000015  aa   000000 002000      12  	dec	1024		"message size
    000016  aa   016631 463146      13  	dec	 1.024d2		"points per inch
    000017  aa   314631 463146
    000020                          14  	bss	.pad,10
                                    15
                        000000      16  	bool	pass,000000
                        400000      17  	bool	expand,400000
                        200000      18  	bool	call,200000
                        100000      19  	bool	ignore,100000
                        040000      20  	bool	error,040000
                        020000      21  	bool	flush,020000
                                    22
    000032  aa   000000 0000 00     23  	arg	pass                             " not used
    000033  aa   000000 0000 00     24  	arg	pass                             " not used
    000034  aa   000000 0000 00     25  	arg	pass                             " not used
    000035  aa   000000 0000 00     26  	arg	pass                             " not used
    000036  aa   220000 0000 00     27  	arg	flush+call                       " pause
    000037  aa   040000 0000 00     28  	arg	error                            " reference
    000040  aa   040000 0000 00     29  	arg	error                            " increment
    000041  aa   040000 0000 00     30  	arg	error                            " alter
    000042  aa   600000 0000 00     31  	arg	expand+call                      " node_begin
    000043  aa   100000 0000 00     32  	arg	ignore                           " node_end
    000044  aa   040000 0000 00     33  	arg	error                            " control
    000045  aa   100000 0000 00     34  	arg	ignore                           " display
    000046  aa   200000 0000 00     35  	arg	call                             " query
    000047  aa   200000 0000 00     36  	arg	call                             " erase
    000050  aa   020000 0000 00     37  	arg	flush                            " synchronize
    000051  aa   100000 0000 00     38  	arg	ignore                           " delete
    000052  aa   200000 0000 00     39  	arg	call                             " setposition
    000053  aa   200000 0000 00     40  	arg	call                             " setpoint
    000054  aa   200000 0000 00     41  	arg	call                             " vector
    000055  aa   200000 0000 00     42  	arg	call                             " shift
    000056  aa   200000 0000 00     43  	arg	call                             " point
    000057  aa   040000 0000 00     44  	arg	error                            " scaling
    000060  aa   040000 0000 00     45  	arg	error                            " rotation
    000061  aa   040000 0000 00     46  	arg	error                            " clipping
    000062  aa   100000 0000 00     47  	arg	ignore                           " intensity
    000063  aa   200000 0000 00     48  	arg	call                             " line_type
    000064  aa   100000 0000 00     49  	arg	ignore                           " blinking
    000065  aa   100000 0000 00     50  	arg	ignore                           " sensitivity
    000066  aa   100000 0000 00     51  	arg	ignore                           " color
    000067  aa   100000 0000 00     52  	arg	ignore                           " symbol
    000070  aa   200000 0000 00     53  	arg	call                             " text
    000071  aa   100000 0000 00     54  	arg	ignore                           " data
    000072  aa   200000 0000 00     55  	arg	call                             " input
    000073  aa   200000 0000 00     56  	arg	call                             " graphic_mode
    000074  aa   200000 0000 00     57  	arg	call                             " text_mode
    000075  aa   100000 0000 00     58  	arg	ignore                           " expansion
    000076  aa   200000 0000 00     59  	arg	call                             " open
    000077  aa   200000 0000 00     60  	arg	call                             " close
    000100  aa   200000 0000 00     61  	arg	call                             " modes
                                    62
                        000101      63  	entry	gdt_proc
                                    64
    000101                          65  gdt_proc:
    000101  aa  0 00002 2361 20     66  	ldq	ap|2,*
    000102  aa   000037 1760 07     67  	sbq	31,dl
    000103  0a   000103 7100 06     68  	tra	*,ql
                                    69
    000104  4a  4 00010 7101 20     70  	tra	<graphic_dim_>|[no_entry]      	"not used
    000105  4a  4 00010 7101 20     71  	tra	<graphic_dim_>|[no_entry]      	"not used
    000106  4a  4 00010 7101 20     72  	tra	<graphic_dim_>|[no_entry]      	"not used
    000107  4a  4 00010 7101 20     73  	tra	<graphic_dim_>|[no_entry]      	"not used
    000110  4a  4 00012 7101 20     74  	tra	<tektronix_40XX_>|[pause]      	"pause
    000111  4a  4 00010 7101 20     75  	tra	<graphic_dim_>|[no_entry]      	"reference
    000112  4a  4 00010 7101 20     76  	tra	<graphic_dim_>|[no_entry]      	"increment
    000113  4a  4 00010 7101 20     77  	tra	<graphic_dim_>|[no_entry]      	"alter
    000114  4a  4 00014 7101 20     78  	tra	<tektronix_40XX_>|[node_in]    	"node_begin
    000115  4a  4 00010 7101 20     79  	tra	<graphic_dim_>|[no_entry]      	"node_end
    000116  4a  4 00010 7101 20     80  	tra	<graphic_dim_>|[no_entry]      	"control
    000117  4a  4 00010 7101 20     81  	tra	<graphic_dim_>|[no_entry]      	"display
    000120  4a  4 00016 7101 20     82  	tra	<tektronix_40XX_>|[query]      	"query
    000121  4a  4 00020 7101 20     83  	tra	<tektronix_40XX_>|[erase]      	"erase
    000122  4a  4 00010 7101 20     84  	tra	<graphic_dim_>|[no_entry]      	"synchronize
    000123  4a  4 00010 7101 20     85  	tra	<graphic_dim_>|[no_entry]      	"delete
    000124  4a  4 00022 7101 20     86  	tra	<tektronix_40XX_>|[position]   	"setposition
    000125  4a  4 00022 7101 20     87  	tra	<tektronix_40XX_>|[position]   	"setpoint
    000126  4a  4 00022 7101 20     88  	tra	<tektronix_40XX_>|[position]   	"vector
    000127  4a  4 00022 7101 20     89  	tra	<tektronix_40XX_>|[position]   	"shift
    000130  4a  4 00022 7101 20     90  	tra	<tektronix_40XX_>|[position]   	"point
    000131  4a  4 00010 7101 20     91  	tra	<graphic_dim_>|[no_entry]      	"scaling
    000132  4a  4 00010 7101 20     92  	tra	<graphic_dim_>|[no_entry]      	"rotation
    000133  4a  4 00010 7101 20     93  	tra	<graphic_dim_>|[no_entry]      	"clipping
    000134  4a  4 00010 7101 20     94  	tra	<graphic_dim_>|[no_entry]      	"intensity
    000135  4a  4 00024 7101 20     95  	tra	<tektronix_40XX_>|[line_type]  	"line_type
    000136  4a  4 00010 7101 20     96  	tra	<graphic_dim_>|[no_entry]      	"blinking
    000137  4a  4 00010 7101 20     97  	tra	<graphic_dim_>|[no_entry]      	"sensitivity
    000140  4a  4 00010 7101 20     98  	tra	<graphic_dim_>|[no_entry]      	"color
    000141  4a  4 00010 7101 20     99  	tra	<graphic_dim_>|[no_entry]      	"symbol
    000142  4a  4 00026 7101 20    100  	tra	<tektronix_40XX_>|[text]       	"text
    000143  4a  4 00010 7101 20    101  	tra	<graphic_dim_>|[no_entry]      	"data
    000144  4a  4 00030 7101 20    102  	tra	<tektronix_40XX_>|[input]      	"input
    000145  4a  4 00032 7101 20    103  	tra	<tektronix_40XX_>|[mode_switch]	"graphic_mode
    000146  4a  4 00032 7101 20    104  	tra	<tektronix_40XX_>|[mode_switch]	"text_mode
    000147  4a  4 00010 7101 20    105  	tra	<graphic_dim_>|[no_entry]      	"expansion
    000150  4a  4 00034 7101 20    106  	tra	<tektronix_40XX_>|[open_4662]  	"open
    000151  4a  4 00036 7101 20    107  	tra	<tektronix_40XX_>|[close]      	"close
    000152  4a  4 00040 7101 20    108  	tra	<tektronix_40XX_>|[changemode] 	"modes
                                   109
                                   110  	end
ENTRY SEQUENCES

    000153  5a   000012 0000 00
    000154  aa  7 00046 2721 20
    000155  0a   000101 7100 00

NO LITERALS

NAME DEFINITIONS FOR ENTRY POINTS AND SEGDEFS

    000156  5a   000003 000000
    000157  5a   000035 600000
    000160  aa   000000 000000
    000161  55   000012 000002
    000162  5a   000002 400003
    000163  55   000006 000012
    000164  aa  016 164 145 153
    000165  aa  137 064 066 066
    000166  aa  062 137 164 141
    000167  aa  142 154 145 000
    000170  55   000020 000003
    000171  0a   000154 500000
    000172  55   000015 000003
    000173  aa  010 147 144 164         gdt_proc
    000174  aa  137 160 162 157
    000175  aa  143 000 000 000
    000176  55   000026 000012
    000177  0a   000000 400000
    000200  55   000023 000003
    000201  aa  013 164 141 142         table_start
    000202  aa  154 145 137 163
    000203  aa  164 141 162 164
    000204  55   000002 000020
    000205  6a   000000 400002
    000206  55   000031 000003
    000207  aa  014 163 171 155         symbol_table
    000210  aa  142 157 154 137
    000211  aa  164 141 142 154
    000212  aa  145 000 000 000

DEFINITIONS HASH TABLE

    000213  aa   000000 000015
    000214  aa   000000 000000
    000215  aa   000000 000000
    000216  aa   000000 000000
    000217  aa   000000 000000
    000220  aa   000000 000000
    000221  5a   000012 000000
    000222  5a   000026 000000
    000223  aa   000000 000000
    000224  aa   000000 000000
    000225  5a   000020 000000
    000226  aa   000000 000000
    000227  aa   000000 000000
    000230  aa   000000 000000

EXTERNAL NAMES

    000231  aa  012 143 150 141         changemode
    000232  aa  156 147 145 155
    000233  aa  157 144 145 000
    000234  aa  005 143 154 157         close
    000235  aa  163 145 000 000
    000236  aa  011 157 160 145         open_4662
    000237  aa  156 137 064 066
    000240  aa  066 062 000 000
    000241  aa  013 155 157 144         mode_switch
    000242  aa  145 137 163 167
    000243  aa  151 164 143 150
    000244  aa  005 151 156 160         input
    000245  aa  165 164 000 000
    000246  aa  004 164 145 170         text
    000247  aa  164 000 000 000
    000250  aa  011 154 151 156         line_type
    000251  aa  145 137 164 171
    000252  aa  160 145 000 000
    000253  aa  010 160 157 163         position
    000254  aa  151 164 151 157
    000255  aa  156 000 000 000
    000256  aa  005 145 162 141         erase
    000257  aa  163 145 000 000
    000260  aa  005 161 165 145         query
    000261  aa  162 171 000 000
    000262  aa  007 156 157 144         node_in
    000263  aa  145 137 151 156
    000264  aa  005 160 141 165         pause
    000265  aa  163 145 000 000
    000266  aa  017 164 145 153         tektronix_40XX_
    000267  aa  164 162 157 156
    000270  aa  151 170 137 064
    000271  aa  060 130 130 137
    000272  aa  010 156 157 137         no_entry
    000273  aa  145 156 164 162
    000274  aa  171 000 000 000
    000275  aa  014 147 162 141         graphic_dim_
    000276  aa  160 150 151 143
    000277  aa  137 144 151 155
    000300  aa  137 000 000 000

NO TRAP POINTER WORDS

TYPE PAIR BLOCKS

    000301  aa   000004 000000
    000302  55   000110 000053
    000303  aa   000004 000000
    000304  55   000110 000056
    000305  aa   000004 000000
    000306  55   000110 000060
    000307  aa   000004 000000
    000310  55   000110 000063
    000311  aa   000004 000000
    000312  55   000110 000066
    000313  aa   000004 000000
    000314  55   000110 000070
    000315  aa   000004 000000
    000316  55   000110 000072
    000317  aa   000004 000000
    000320  55   000110 000075
    000321  aa   000004 000000
    000322  55   000110 000100
    000323  aa   000004 000000
    000324  55   000110 000102
    000325  aa   000004 000000
    000326  55   000110 000104
    000327  aa   000004 000000
    000330  55   000110 000106
    000331  aa   000004 000000
    000332  55   000117 000114
    000333  aa   000001 000000
    000334  aa   000000 000000

INTERNAL EXPRESSION WORDS

    000335  5a   000123 000000
    000336  5a   000125 000000
    000337  5a   000127 000000
    000340  5a   000131 000000
    000341  5a   000133 000000
    000342  5a   000135 000000
    000343  5a   000137 000000
    000344  5a   000141 000000
    000345  5a   000143 000000
    000346  5a   000145 000000
    000347  5a   000147 000000
    000350  5a   000151 000000
    000351  5a   000153 000000
LINKAGE INFORMATION

    000000  aa   000000 000000
    000001  0a   000156 000000
    000002  aa   000000 000000
    000003  aa   000000 000000
    000004  aa   000000 000000
    000005  aa   000000 000000
    000006  22   000010 000042
    000007  a2   000000 000000
    000010  9a   777770 0000 46         graphic_dim_|no_entry
    000011  5a   000173 0000 00
    000012  9a   777766 0000 46         tektronix_40XX_|pause
    000013  5a   000172 0000 00
    000014  9a   777764 0000 46         tektronix_40XX_|node_in
    000015  5a   000171 0000 00
    000016  9a   777762 0000 46         tektronix_40XX_|query
    000017  5a   000170 0000 00
    000020  9a   777760 0000 46         tektronix_40XX_|erase
    000021  5a   000167 0000 00
    000022  9a   777756 0000 46         tektronix_40XX_|position
    000023  5a   000166 0000 00
    000024  9a   777754 0000 46         tektronix_40XX_|line_type
    000025  5a   000165 0000 00
    000026  9a   777752 0000 46         tektronix_40XX_|text
    000027  5a   000164 0000 00
    000030  9a   777750 0000 46         tektronix_40XX_|input
    000031  5a   000163 0000 00
    000032  9a   777746 0000 46         tektronix_40XX_|mode_switch
    000033  5a   000162 0000 00
    000034  9a   777744 0000 46         tektronix_40XX_|open_4662
    000035  5a   000161 0000 00
    000036  9a   777742 0000 46         tektronix_40XX_|close
    000037  5a   000160 0000 00
    000040  9a   777740 0000 46         tektronix_40XX_|changemode
    000041  5a   000157 0000 00
SYMBOL INFORMATION

SYMBOL TABLE HEADER

    000000  aa   000000 000001
    000001  aa   163171 155142
    000002  aa   164162 145145
    000003  aa   000000 000004
    000004  aa   000000 110170
    000005  aa   042035 457451
    000006  aa   000000 110233
    000007  aa   625230 317063
    000010  aa   141154 155040
    000011  aa   040040 040040
    000012  aa   000024 000040
    000013  aa   000034 000040
    000014  aa   000044 000100
    000015  aa   000002 000002
    000016  aa   000064 000000
    000017  aa   000000 000140
    000020  aa   000000 000105
    000021  aa   000000 000122
    000022  aa   000132 000105
    000023  aa   000064 000000
    000024  aa   101114 115040
    000025  aa   126145 162163
    000026  aa   151157 156040
    000027  aa   040066 056064
    000030  aa   040040 101160
    000031  aa   162151 154040
    000032  aa   061071 070061
    000033  aa   040040 040040
    000034  aa   115141 162164
    000035  aa   151156 163157
    000036  aa   156056 123171
    000037  aa   163115 141151
    000040  aa   156164 056141
    000041  aa   040040 040040
    000042  aa   040040 040040
    000043  aa   040040 040040
    000044  aa   154151 163164
    000045  aa   040040 040040
    000046  aa   040040 040040
    000047  aa   040040 040040
    000050  aa   040040 040040
    000051  aa   040040 040040
    000052  aa   040040 040040
    000053  aa   040040 040040
    000054  aa   040040 040040
    000055  aa   040040 040040
    000056  aa   040040 040040
    000057  aa   040040 040040
    000060  aa   040040 040040
    000061  aa   040040 040040
    000062  aa   040040 040040
    000063  aa   040040 040040
    000064  aa   000000 000001
    000065  aa   000000 000001
    000066  aa   000072 000053
    000067  aa   102324 041635
    000070  aa   000000 110233
    000071  aa   625230 400000
    000072  aa   076144 165155          >dumps>old_dumps>on>MIB-073181>tek_4662.alm
    000073  aa   160163 076157
    000074  aa   154144 137144
    000075  aa   165155 160163
    000076  aa   076157 156076
    000077  aa   115111 102055
    000100  aa   060067 063061
    000101  aa   070061 076164
    000102  aa   145153 137064
    000103  aa   066066 062056
    000104  aa   141154 155040
               MULTICS ASSEMBLY CROSS REFERENCE LISTING

   Value        Symbol                   Source file   Line number

          20    .pad                     tek_4662:      14.
      200000    call                     tek_4662:      18,   27,   31,   35,   36,   39,   40,   41,   42,   43,   48,   53,
                                                        55,   56,   57,   59,   60,   61.
                changemode               tek_4662:     108.
                close                    tek_4662:     107.
                erase                    tek_4662:      83.
       40000    error                    tek_4662:      20,   28,   29,   30,   33,   44,   45,   46.
      400000    expand                   tek_4662:      17,   31.
       20000    flush                    tek_4662:      21,   27,   37.
         101    gdt_proc                 tek_4662:      63,   65.
                graphic_dim_             tek_4662:      70,   71,   72,   73,   75,   76,   77,   79,   80,   81,   84,   85,
                                                        91,   92,   93,   94,   96,   97,   98,   99,  101,  105.
      100000    ignore                   tek_4662:      19,   32,   34,   38,   47,   49,   50,   51,   52,   54,   58.
                input                    tek_4662:     102.
                line_type                tek_4662:      95.
                mode_switch              tek_4662:     103,  104.
                node_in                  tek_4662:      78.
                no_entry                 tek_4662:      70,   71,   72,   73,   75,   76,   77,   79,   80,   81,   84,   85,
                                                        91,   92,   93,   94,   96,   97,   98,   99,  101,  105.
                open_4662                tek_4662:     106.
           0    pass                     tek_4662:      16,   23,   24,   25,   26.
                pause                    tek_4662:      74.
                position                 tek_4662:      86,   87,   88,   89,   90.
                query                    tek_4662:      82.
           0    table_start              tek_4662:       5,    7.
                tektronix_40XX_          tek_4662:      74,   78,   82,   83,   86,   87,   88,   89,   90,   95,  100,  102,
                                                       103,  104,  106,  107,  108.
                text                     tek_4662:     100.


NO FATAL ERRORS


                                          -----------------------------------------------------------


Historical Background

This edition of the Multics software materials and documentation is provided and donated
to Massachusetts Institute of Technology by Group BULL including BULL HN Information Systems Inc.
as a contribution to computer science knowledge.
This donation is made also to give evidence of the common contributions of Massachusetts Institute of Technology,
Bell Laboratories, General Electric, Honeywell Information Systems Inc., Honeywell BULL Inc., Groupe BULL
and BULL HN Information Systems Inc. to the development of this operating system.
Multics development was initiated by Massachusetts Institute of Technology Project MAC (1963-1970),
renamed the MIT Laboratory for Computer Science and Artificial Intelligence in the mid 1970s, under the leadership
of Professor Fernando Jose Corbato. Users consider that Multics provided the best software architecture
for managing computer hardware properly and for executing programs. Many subsequent operating systems
incorporated Multics principles.
Multics was distributed in 1975 to 2000 by Group Bull in Europe , and in the U.S. by Bull HN Information Systems Inc.,
as successor in interest by change in name only to Honeywell Bull Inc. and Honeywell Information Systems Inc. .

                                          -----------------------------------------------------------

Permission to use, copy, modify, and distribute these programs and their documentation for any purpose and without
fee is hereby granted,provided that the below copyright notice and historical background appear in all copies
and that both the copyright notice and historical background and this permission notice appear in supporting
documentation, and that the names of MIT, HIS, BULL or BULL HN not be used in advertising or publicity pertaining
to distribution of the programs without specific prior written permission.
    Copyright 1972 by Massachusetts Institute of Technology and Honeywell Information Systems Inc.
    Copyright 2006 by BULL HN Information Systems Inc.
    Copyright 2006 by Bull SAS
    All Rights Reserved
