ASSEMBLY LISTING OF SEGMENT >special_ldd>install>MR12.1-1075>ws_tty_.alm
ASSEMBLED ON:	08/07/87  1456.9 mst Fri
OPTIONS USED:	-target l68                              list symbols
ASSEMBLED BY:	ALM Version 7.3 November 1986
ASSEMBLER CREATED:	11/26/86  1244.2 mst Wed

                                     1  " ***********************************************************
                                     2  " *                                                         *
                                     3  " * Copyright, (C) Honeywell Bull Inc., 1987                *
                                     4  " *                                                         *
                                     5  " * Copyright, (C) Honeywell Information Systems Inc., 1986 *
                                     6  " *                                                         *
                                     7  " ***********************************************************
                                     8
                                     9  " HISTORY COMMENTS:
                                    10  "  1) change(86-11-05,RBarstad), approve(86-12-11,MCR7585),
                                    11  "     audit(86-12-12,Gilcrease), install(87-08-07,MR12.1-1075):
                                    12  "     Created.
                                    13  "                                                      END HISTORY COMMENTS
                                    14
                                    15  "
                                    16  " ws_tty_: transfer vector to ws_tty_ functions.
                                    17  "
                                    18
    000000                          19  	name	ws_tty_
                                    20
                                    21  macro	dispatch
                              1     22  	segdef	&1
                              2     23  &1:	getlp
                              3     24  	tra	&2$&3
                              4     25  &end
                                    26
                                    27  	dispatch  abort,ws_tty_main_,abort
                        000000          	segdef	abort
    000000  aa  7 00046 2721 20         abort:	getlp
    000001  4a  4 00010 7101 20         	tra	ws_tty_main_$abort
                                    28  	dispatch  attach,ws_tty_main_,attach
                        000002          	segdef	attach
    000002  aa  7 00046 2721 20         attach:	getlp
    000003  4a  4 00012 7101 20         	tra	ws_tty_main_$attach
                                    29  	dispatch  detach,ws_tty_main_,detach
                        000004          	segdef	detach
    000004  aa  7 00046 2721 20         detach:	getlp
    000005  4a  4 00014 7101 20         	tra	ws_tty_main_$detach
                                    30  	dispatch  event,ws_tty_main_,event
                        000006          	segdef	event
    000006  aa  7 00046 2721 20         event:	getlp
    000007  4a  4 00016 7101 20         	tra	ws_tty_main_$event
                                    31  	dispatch  index,ws_tty_main_,index
                        000010          	segdef	index
    000010  aa  7 00046 2721 20         index:	getlp
    000011  4a  4 00020 7101 20         	tra	ws_tty_main_$index
                                    32  	dispatch  order,ws_tty_main_,order
                        000012          	segdef	order
    000012  aa  7 00046 2721 20         order:	getlp
    000013  4a  4 00022 7101 20         	tra	ws_tty_main_$order
                                    33  	dispatch	read,ws_tty_read_,read
                        000014          	segdef	read
    000014  aa  7 00046 2721 20         read:	getlp
    000015  4a  4 00024 7101 20         	tra	ws_tty_read_$read
                                    34  	dispatch	read_echoed,ws_tty_read_,read_echoed
                        000016          	segdef	read_echoed
    000016  aa  7 00046 2721 20         read_echoed:	getlp
    000017  4a  4 00026 7101 20         	tra	ws_tty_read_$read_echoed
                                    35  	dispatch	read_with_mark,ws_tty_read_,read_with_mark
                        000020          	segdef	read_with_mark
    000020  aa  7 00046 2721 20         read_with_mark:	getlp
    000021  4a  4 00030 7101 20         	tra	ws_tty_read_$read_with_mark
                                    36  	dispatch  write,ws_tty_write_,write
                        000022          	segdef	write
    000022  aa  7 00046 2721 20         write:	getlp
    000023  4a  4 00032 7101 20         	tra	ws_tty_write_$write
                                    37  	dispatch  write_whole_string,ws_tty_write_,write_whole_string
                        000024          	segdef	write_whole_string
    000024  aa  7 00046 2721 20         write_whole_string:	getlp
    000025  4a  4 00034 7101 20         	tra	ws_tty_write_$write_whole_string
                                    38
                                    39  	dispatch  set_trace,ws_trace_,set_trace
                        000026          	segdef	set_trace
    000026  aa  7 00046 2721 20         set_trace:	getlp
    000027  4a  4 00036 7101 20         	tra	ws_trace_$set_trace
                                    40  	dispatch  get_trace,ws_trace_,get_trace
                        000030          	segdef	get_trace
    000030  aa  7 00046 2721 20         get_trace:	getlp
    000031  4a  4 00040 7101 20         	tra	ws_trace_$get_trace
                                    41  	dispatch  set_debug,ws_trace_,set_debug
                        000032          	segdef	set_debug
    000032  aa  7 00046 2721 20         set_debug:	getlp
    000033  4a  4 00042 7101 20         	tra	ws_trace_$set_debug
                                    42  	dispatch  get_debug,ws_trace_,get_debug
                        000034          	segdef	get_debug
    000034  aa  7 00046 2721 20         get_debug:	getlp
    000035  4a  4 00044 7101 20         	tra	ws_trace_$get_debug
                                    43
                                    44  	end

NO LITERALS

NAME DEFINITIONS FOR ENTRY POINTS AND SEGDEFS

    000036  5a   000003 000000
    000037  5a   000144 600000
    000040  aa   000000 000000
    000041  55   000010 000002
    000042  5a   000002 400003
    000043  55   000006 000010
    000044  aa  007 167 163 137
    000045  aa  164 164 171 137
    000046  55   000016 000003
    000047  0a   000034 400000
    000050  55   000013 000003
    000051  aa  011 147 145 164         get_debug
    000052  aa  137 144 145 142
    000053  aa  165 147 000 000
    000054  55   000024 000010
    000055  0a   000032 400000
    000056  55   000021 000003
    000057  aa  011 163 145 164         set_debug
    000060  aa  137 144 145 142
    000061  aa  165 147 000 000
    000062  55   000032 000016
    000063  0a   000030 400000
    000064  55   000027 000003
    000065  aa  011 147 145 164         get_trace
    000066  aa  137 164 162 141
    000067  aa  143 145 000 000
    000070  55   000040 000024
    000071  0a   000026 400000
    000072  55   000035 000003
    000073  aa  011 163 145 164         set_trace
    000074  aa  137 164 162 141
    000075  aa  143 145 000 000
    000076  55   000050 000032
    000077  0a   000024 400000
    000100  55   000043 000003
    000101  aa  022 167 162 151         write_whole_string
    000102  aa  164 145 137 167
    000103  aa  150 157 154 145
    000104  aa  137 163 164 162
    000105  aa  151 156 147 000
    000106  55   000055 000040
    000107  0a   000022 400000
    000110  55   000053 000003
    000111  aa  005 167 162 151         write
    000112  aa  164 145 000 000
    000113  55   000064 000050
    000114  0a   000020 400000
    000115  55   000060 000003
    000116  aa  016 162 145 141         read_with_mark
    000117  aa  144 137 167 151
    000120  aa  164 150 137 155
    000121  aa  141 162 153 000
    000122  55   000072 000055
    000123  0a   000016 400000
    000124  55   000067 000003
    000125  aa  013 162 145 141         read_echoed
    000126  aa  144 137 145 143
    000127  aa  150 157 145 144
    000130  55   000077 000064
    000131  0a   000014 400000
    000132  55   000075 000003
    000133  aa  004 162 145 141         read
    000134  aa  144 000 000 000
    000135  55   000104 000072
    000136  0a   000012 400000
    000137  55   000102 000003
    000140  aa  005 157 162 144         order
    000141  aa  145 162 000 000
    000142  55   000111 000077
    000143  0a   000010 400000
    000144  55   000107 000003
    000145  aa  005 151 156 144         index
    000146  aa  145 170 000 000
    000147  55   000116 000104
    000150  0a   000006 400000
    000151  55   000114 000003
    000152  aa  005 145 166 145         event
    000153  aa  156 164 000 000
    000154  55   000123 000111
    000155  0a   000004 400000
    000156  55   000121 000003
    000157  aa  006 144 145 164         detach
    000160  aa  141 143 150 000
    000161  55   000130 000116
    000162  0a   000002 400000
    000163  55   000126 000003
    000164  aa  006 141 164 164         attach
    000165  aa  141 143 150 000
    000166  55   000135 000123
    000167  0a   000000 400000
    000170  55   000133 000003
    000171  aa  005 141 142 157         abort
    000172  aa  162 164 000 000
    000173  55   000002 000130
    000174  6a   000000 400002
    000175  55   000140 000003
    000176  aa  014 163 171 155         symbol_table
    000177  aa  142 157 154 137
    000200  aa  164 141 142 154
    000201  aa  145 000 000 000

DEFINITIONS HASH TABLE

    000202  aa   000000 000033
    000203  5a   000130 000000
    000204  5a   000010 000000
    000205  5a   000024 000000
    000206  5a   000116 000000
    000207  aa   000000 000000
    000210  aa   000000 000000
    000211  aa   000000 000000
    000212  aa   000000 000000
    000213  aa   000000 000000
    000214  5a   000104 000000
    000215  5a   000123 000000
    000216  5a   000040 000000
    000217  5a   000077 000000
    000220  5a   000016 000000
    000221  5a   000032 000000
    000222  5a   000055 000000
    000223  5a   000135 000000
    000224  aa   000000 000000
    000225  5a   000064 000000
    000226  aa   000000 000000
    000227  aa   000000 000000
    000230  aa   000000 000000
    000231  aa   000000 000000
    000232  aa   000000 000000
    000233  5a   000050 000000
    000234  5a   000072 000000
    000235  5a   000111 000000

EXTERNAL NAMES

    000236  aa  011 167 163 137         ws_trace_
    000237  aa  164 162 141 143
    000240  aa  145 137 000 000
    000241  aa  015 167 163 137         ws_tty_write_
    000242  aa  164 164 171 137
    000243  aa  167 162 151 164
    000244  aa  145 137 000 000
    000245  aa  014 167 163 137         ws_tty_read_
    000246  aa  164 164 171 137
    000247  aa  162 145 141 144
    000250  aa  137 000 000 000
    000251  aa  014 167 163 137         ws_tty_main_
    000252  aa  164 164 171 137
    000253  aa  155 141 151 156
    000254  aa  137 000 000 000

NO TRAP POINTER WORDS

TYPE PAIR BLOCKS

    000255  aa   000004 000000
    000256  55   000200 000013
    000257  aa   000004 000000
    000260  55   000200 000021
    000261  aa   000004 000000
    000262  55   000200 000027
    000263  aa   000004 000000
    000264  55   000200 000035
    000265  aa   000004 000000
    000266  55   000203 000043
    000267  aa   000004 000000
    000270  55   000203 000053
    000271  aa   000004 000000
    000272  55   000207 000060
    000273  aa   000004 000000
    000274  55   000207 000067
    000275  aa   000004 000000
    000276  55   000207 000075
    000277  aa   000004 000000
    000300  55   000213 000102
    000301  aa   000004 000000
    000302  55   000213 000107
    000303  aa   000004 000000
    000304  55   000213 000114
    000305  aa   000004 000000
    000306  55   000213 000121
    000307  aa   000004 000000
    000310  55   000213 000126
    000311  aa   000004 000000
    000312  55   000213 000133
    000313  aa   000001 000000
    000314  aa   000000 000000

INTERNAL EXPRESSION WORDS

    000315  5a   000217 000000
    000316  5a   000221 000000
    000317  5a   000223 000000
    000320  5a   000225 000000
    000321  5a   000227 000000
    000322  5a   000231 000000
    000323  5a   000233 000000
    000324  5a   000235 000000
    000325  5a   000237 000000
    000326  5a   000241 000000
    000327  5a   000243 000000
    000330  5a   000245 000000
    000331  5a   000247 000000
    000332  5a   000251 000000
    000333  5a   000253 000000
LINKAGE INFORMATION

    000000  aa   000000 000000
    000001  0a   000036 000000
    000002  aa   000000 000000
    000003  aa   000000 000000
    000004  aa   000000 000000
    000005  aa   000000 000000
    000006  22   000010 000046
    000007  a2   000000 000000
    000010  9a   777770 0000 46         ws_tty_main_|abort
    000011  5a   000275 0000 00
    000012  9a   777766 0000 46         ws_tty_main_|attach
    000013  5a   000274 0000 00
    000014  9a   777764 0000 46         ws_tty_main_|detach
    000015  5a   000273 0000 00
    000016  9a   777762 0000 46         ws_tty_main_|event
    000017  5a   000272 0000 00
    000020  9a   777760 0000 46         ws_tty_main_|index
    000021  5a   000271 0000 00
    000022  9a   777756 0000 46         ws_tty_main_|order
    000023  5a   000270 0000 00
    000024  9a   777754 0000 46         ws_tty_read_|read
    000025  5a   000267 0000 00
    000026  9a   777752 0000 46         ws_tty_read_|read_echoed
    000027  5a   000266 0000 00
    000030  9a   777750 0000 46         ws_tty_read_|read_with_mark
    000031  5a   000265 0000 00
    000032  9a   777746 0000 46         ws_tty_write_|write
    000033  5a   000264 0000 00
    000034  9a   777744 0000 46         ws_tty_write_|write_whole_string
    000035  5a   000263 0000 00
    000036  9a   777742 0000 46         ws_trace_|set_trace
    000037  5a   000262 0000 00
    000040  9a   777740 0000 46         ws_trace_|get_trace
    000041  5a   000261 0000 00
    000042  9a   777736 0000 46         ws_trace_|set_debug
    000043  5a   000260 0000 00
    000044  9a   777734 0000 46         ws_trace_|get_debug
    000045  5a   000257 0000 00
SYMBOL INFORMATION

SYMBOL TABLE HEADER

    000000  aa   000000 000001
    000001  aa   163171 155142
    000002  aa   164162 145145
    000003  aa   000000 000007
    000004  aa   000000 115030
    000005  aa   273207 326355
    000006  aa   000000 115527
    000007  aa   652027 612005
    000010  aa   141154 155040
    000011  aa   040040 040040
    000012  aa   000024 000040
    000013  aa   000034 000040
    000014  aa   000044 000100
    000015  aa   000002 000002
    000016  aa   000064 000000
    000017  aa   000000 000166
    000020  aa   000000 000105
    000021  aa   000123 000113
    000022  aa   000160 000105
    000023  aa   000064 000000
    000024  aa   101114 115040
    000025  aa   126145 162163
    000026  aa   151157 156040
    000027  aa   067056 063040
    000030  aa   116157 166145
    000031  aa   155142 145162
    000032  aa   040061 071070
    000033  aa   066040 040040
    000034  aa   107112 157150
    000035  aa   156163 157156
    000036  aa   056123 171163
    000037  aa   115141 151156
    000040  aa   164056 141040
    000041  aa   040040 040040
    000042  aa   040040 040040
    000043  aa   040040 040040
    000044  aa   055164 141162
    000045  aa   147145 164040
    000046  aa   154066 070040
    000047  aa   040040 040040
    000050  aa   040040 040040
    000051  aa   040040 040040
    000052  aa   040040 040040
    000053  aa   040040 040040
    000054  aa   040040 040040
    000055  aa   040040 040040
    000056  aa   040154 151163
    000057  aa   164040 163171
    000060  aa   155142 157154
    000061  aa   163040 040040
    000062  aa   040040 040040
    000063  aa   040040 040040
    000064  aa   000000 000001
    000065  aa   000000 000001
    000066  aa   000072 000054
    000067  aa   155267 027013
    000070  aa   000000 115527
    000071  aa   651173 400000
    000072  aa   076163 160145          >special_ldd>install>MR12.1-1075>ws_tty_.alm
    000073  aa   143151 141154
    000074  aa   137154 144144
    000075  aa   076151 156163
    000076  aa   164141 154154
    000077  aa   076115 122061
    000100  aa   062056 061055
    000101  aa   061060 067065
    000102  aa   076167 163137
    000103  aa   164164 171137
    000104  aa   056141 154155
               MULTICS ASSEMBLY CROSS REFERENCE LISTING

   Value        Symbol                   Source file   Line number

           0    abort                    ws_tty_:       27.
           2    attach                   ws_tty_:       28.
           4    detach                   ws_tty_:       29.
           6    event                    ws_tty_:       30.
          34    get_debug                ws_tty_:       42.
          30    get_trace                ws_tty_:       40.
          10    index                    ws_tty_:       31.
          12    order                    ws_tty_:       32.
          14    read                     ws_tty_:       33.
          16    read_echoed              ws_tty_:       34.
          20    read_with_mark           ws_tty_:       35.
          32    set_debug                ws_tty_:       41.
          26    set_trace                ws_tty_:       39.
          22    write                    ws_tty_:       36.
          24    write_whole_string       ws_tty_:       37.
                ws_trace_                ws_tty_:       39,   40,   41,   42.
                ws_tty_main_             ws_tty_:       27,   28,   29,   30,   31,   32.
                ws_tty_read_             ws_tty_:       33,   34,   35.
                ws_tty_write_            ws_tty_:       36,   37.


NO FATAL ERRORS


                                          -----------------------------------------------------------


Historical Background

This edition of the Multics software materials and documentation is provided and donated
to Massachusetts Institute of Technology by Group BULL including BULL HN Information Systems Inc.
as a contribution to computer science knowledge.
This donation is made also to give evidence of the common contributions of Massachusetts Institute of Technology,
Bell Laboratories, General Electric, Honeywell Information Systems Inc., Honeywell BULL Inc., Groupe BULL
and BULL HN Information Systems Inc. to the development of this operating system.
Multics development was initiated by Massachusetts Institute of Technology Project MAC (1963-1970),
renamed the MIT Laboratory for Computer Science and Artificial Intelligence in the mid 1970s, under the leadership
of Professor Fernando Jose Corbato. Users consider that Multics provided the best software architecture
for managing computer hardware properly and for executing programs. Many subsequent operating systems
incorporated Multics principles.
Multics was distributed in 1975 to 2000 by Group Bull in Europe , and in the U.S. by Bull HN Information Systems Inc.,
as successor in interest by change in name only to Honeywell Bull Inc. and Honeywell Information Systems Inc. .

                                          -----------------------------------------------------------

Permission to use, copy, modify, and distribute these programs and their documentation for any purpose and without
fee is hereby granted,provided that the below copyright notice and historical background appear in all copies
and that both the copyright notice and historical background and this permission notice appear in supporting
documentation, and that the names of MIT, HIS, BULL or BULL HN not be used in advertising or publicity pertaining
to distribution of the programs without specific prior written permission.
    Copyright 1972 by Massachusetts Institute of Technology and Honeywell Information Systems Inc.
    Copyright 2006 by BULL HN Information Systems Inc.
    Copyright 2006 by Bull SAS
    All Rights Reserved
