	NAMES DECLARED IN THIS COMPILATION.

IDENTIFIER	     OFFSET    LOC STORAGE CLASS   DATA TYPE		ATTRIBUTES AND REFERENCES
								(* indicates a set context)

NAMES DECLARED BY DECLARE STATEMENT.
A                               000024 external static bit(1)                   array level 3 in structure
                                                                                  "fort_instruction_info_$fort_instruction_info_"
                                                                                  packed packed unaligned dcl 2578 in procedure
                                                                                  "interpreter" ref 6091 6137 6190 6193
A                               000400 constant        fixed bin(18,0)          initial dcl 2620 in procedure "interpreter" set ref
                                                                                  3799* 6193 8750* 8783 8786 8790 8933* 9037 9038
                                                                                  9039 9041 9060 9061 9061 9092* 9201 9205 9205
                                                                                  9303* 12812* 12825*
AL_mod                          000612 constant        bit(6)                   initial dcl 614 set ref 7090 8750 8776 8807 12811*
                                                                                  12817* 12822* 12824*
Area_create_first      3144            based           fixed bin(18,0)          level 2 dcl 47 set ref 1106* 2183 2184 2264 2264*
                                                                                  4915 4945 4952
Area_create_last       3145            based           fixed bin(18,0)          level 2 dcl 47 set ref 2270 2275*
Area_init_first        3146            based           fixed bin(18,0)          level 2 dcl 47 set ref 1106* 4956 4962
BASE                                   constant        fixed bin(17,0)          initial dcl 609 set ref 4760* 12013* 12027* 12029*
DL_mod                          000613 constant        bit(6)                   initial dcl 614 set ref 6105 6267 6313 6347 12936*
                                                                                  12955* 12974*
DU_mod                          074410 constant        bit(6)                   initial dcl 614 ref 6279 6841
EAQ                             000753 constant        fixed bin(18,0)          initial dcl 2620 set ref 3807* 3900* 4408* 5839*
                                                                                  6190 6212 6212 6212 8928* 8931 9065 9068 9070 9072
                                                                                  9073 9083 9298* 9301 9778* 12926* 12945* 12962*
ERROR                           000740 constant        fixed bin(18,0)          initial dcl 2594 set ref 2880 2894 3313 3321 3334*
                                                                                  3979* 4392
FT2_mod                                constant        bit(6)                   initial dcl 614 ref 14039
IND                             000747 constant        fixed bin(18,0)          initial dcl 2620 set ref 3510 3513 3524 3524 3829
                                                                                  3902* 8790 8925 8928 9024 9024 9027 9031 9035
                                                                                  9036* 9107 9167 9195 9215 9298 9401 9407 9409 9410
                                                                                  9410 9443 9779*
INDEX                                  constant        fixed bin(17,0)          initial dcl 609 set ref 4718* 10076 12014* 12038*
                                                                                  12040* 12100 12132 12209 12239
ITP_mod                                constant        bit(6)                   initial dcl 614 ref 923 11632
K256                      0(23)        based           bit(1)                   level 3 packed packed unaligned dcl 21-23 set ref
                                                                                  2251*
LA                        4(01)        based           bit(1)                   level 3 in structure "symbol" packed packed
                                                                                  unaligned dcl 1-844 in procedure
                                                                                  "fort_optimizing_cg" set ref 6660
LA                        2(04)        based           bit(1)                   level 2 in structure "header" packed packed
                                                                                  unaligned dcl 1-436 in procedure
                                                                                  "fort_optimizing_cg" ref 2249
LA                        0(21)        based           bit(1)                   level 3 in structure "create_entry" packed packed
                                                                                  unaligned dcl 21-23 in procedure "code_generator"
                                                                                  set ref 2249*
LA_chain                 57(18)        based           fixed bin(18,0)          level 2 packed packed unsigned unaligned dcl 1-753
                                                                                  ref 1154
LIST_TEMPLATE_INIT                     constant        fixed bin(17,0)          initial dcl 28-98 ref 14153 14180
NO_INIT                                constant        fixed bin(17,0)          initial dcl 28-95 ref 14147 14166
Q                         0(01) 000024 external static bit(1)                   array level 3 in structure
                                                                                  "fort_instruction_info_$fort_instruction_info_"
                                                                                  packed packed unaligned dcl 2578 in procedure
                                                                                  "interpreter" ref 6091 6137 6190 6196
Q                               000354 constant        fixed bin(18,0)          initial dcl 2620 in procedure "interpreter" set ref
                                                                                  3803* 4224* 6196 8433* 8438 8748* 8783 8788 8790
                                                                                  8934* 8966 9167 9304* 10937* 11052* 11083* 11305*
                                                                                  11325* 11507* 11601* 12800* 12827* 12921*
QL_mod                                 constant        bit(6)                   initial dcl 614 ref 4814 6784 7091 7103 8748 8774
                                                                                  8805 11326
QU_mod                                 constant        bit(6)                   initial dcl 614 ref 7104
RHS                             006645 automatic       fixed bin(35,0)          dcl 12842 set ref 12905* 12907* 12907*
RI_mod                                 constant        bit(6)                   initial dcl 614 ref 1165 1506 1541 1630 11638
TEMPLATE_INIT                          constant        fixed bin(17,0)          initial dcl 28-96 ref 14158 14178
VLA                       1(06)        based           bit(1)                   array level 4 in structure "arg_desc" packed packed
                                                                                  unaligned dcl 1-130 in procedure
                                                                                  "fort_optimizing_cg" set ref 11705* 11749 11817*
VLA                       2(03)        based           bit(1)                   level 2 in structure "header" packed packed
                                                                                  unaligned dcl 1-436 in procedure
                                                                                  "fort_optimizing_cg" ref 1930 2250
VLA                             004137 automatic       bit(1)                   packed unaligned dcl 7188 in procedure
                                                                                  "base_man_load_pr" set ref 7198* 7200* 7202* 7204
                                                                                  7233
VLA                       4            based           bit(1)                   level 3 in structure "symbol" packed packed
                                                                                  unaligned dcl 1-844 in procedure
                                                                                  "fort_optimizing_cg" set ref 1438 1503 4130 4304
                                                                                  4926 6583 6638 6655 6991 6993 7198 7200 10571
                                                                                  11705 11749 11817 13744
VLA                             000103 automatic       bit(1)                   packed unaligned dcl 6942 in procedure
                                                                                  "base_man_load_any_pr" set ref 6991* 6993* 6995*
                                                                                  7011
VLA                       0(22)        based           bit(1)                   level 3 in structure "create_entry" packed packed
                                                                                  unaligned dcl 21-23 in procedure "code_generator"
                                                                                  set ref 2250*
VLA_base_addressor        4            based           fixed bin(18,0)          level 2 in structure "dimension" dcl 1-383
                                                                                  in procedure "fort_optimizing_cg" ref 1442 4138
VLA_base_addressor        7            based           fixed bin(18,0)          level 2 in structure "header" dcl 1-436 in procedure
                                                                                  "fort_optimizing_cg" ref 1238 2125 2125 2131 2131
                                                                                  13478 13489
VLA_chain                57            based           fixed bin(18,0)          level 2 packed packed unsigned unaligned dcl 1-753
                                                                                  ref 1219
VLA_is_256K             115(03)        based           bit(1)                   level 4 packed packed unaligned dcl 47 ref 1449 1933
                                                                                  2135 2251 4140
VLA_words_per_seg                      constant        fixed bin(14,0)          initial dcl 2650 ref 4153
X0_mod                                 constant        bit(6)                   initial dcl 614 set ref 12934* 12937* 12953* 12957*
                                                                                  12971* 12976*
X1_mod                          000611 constant        bit(6)                   initial dcl 614 set ref 12972* 12975*
XR                        0(09) 000024 external static bit(8)                   array level 3 packed packed unaligned dcl 2578 ref
                                                                                  6208 6208
a                               005704 automatic       pointer                  dcl 11666 set ref 11695* 11696 11700 11704 11705
                                                                                  11708 11709 11718* 11720 11723 11723 11737 11737
                                                                                  11747 11749 11753 11756
a9bd                            000517 constant        fixed bin(18,0)          initial dcl 25-16 set ref 7253* 7262* 7264* 7272*
                                                                                  7281*
a_base                          000224 automatic       pointer                  dcl 498 set ref 676* 678* 1952 2161 3753 3762 4127
                                                                                  4143 4156 4166 4181 4196 4270 4301 4355 4939 4966
                                                                                  5992 5995 6154 6157 6460 6463 7120 14271
a_data_type                     000100 automatic       fixed bin(4,0)           dcl 12-15 set ref 12-40* 12-43 12-43 12-43 12-45
                                                                                  12-45 12-47 12-65 12-81
a_name                                 based           fixed bin(18,0)          array dcl 540 set ref 1952* 2161* 3753* 3762* 4127*
                                                                                  4143* 4156* 4166* 4181* 4196* 4270* 4301* 4355*
                                                                                  4939* 4966* 5992* 5995* 6154* 6157* 6460* 6463*
                                                                                  7120* 14271*
a_new                                  parameter       fixed bin(18,0)          dcl 5535 ref 5527 5542
a_new_state                            parameter       structure                level 1 dcl 9514 set ref 9509 9519 9525
a_opnd                                 parameter       fixed bin(18,0)          dcl 10395 ref 10390 10400
a_ref                           005532 automatic       fixed bin(18,0)          dcl 11138 set ref 11141* 11145* 11175* 11176* 11184
a_state                                parameter       fixed bin(18,0)          dcl 9386 set ref 9380 9416* 9419 9422
a_temp                                 parameter       fixed bin(18,0)          dcl 5534 ref 5527 5540
a_value                         000102 automatic       bit(72)                  dcl 12-16 set ref 12-41* 12-51 12-52 12-54 12-54
                                                                                  12-65 12-85
abs                                                    builtin function         dcl 645 ref 961
acc                                    based           structure                level 1 dcl 14057
acc_ptrs                               based           pointer                  array level 2 packed packed unaligned dcl 14065 set
                                                                                  ref 14076 14077 14095*
adam                            005152 automatic       pointer                  dcl 10015 in procedure "assign_register" set ref
                                                                                  10026* 10035* 10037 10043 10054
adam                            006110 automatic       pointer                  dcl 12113 in procedure "ok_to_allocate" set ref
                                                                                  12119* 12121 12129 12145
adam                            006140 automatic       pointer                  dcl 12188 in procedure "allocate" set ref 12199*
                                                                                  12201 12212 12213 12215* 12216* 12221 12222 12234
                                                                                  12236 12259
add_base                        000464 constant        fixed bin(18,0)          initial array dcl 25-16 ref 7052 7448 7479
addr                                                   builtin function         dcl 645 in procedure "code_generator" ref 676 729
                                                                                  749 750 803 803 867 872 891 1027 1029 1034 1036
                                                                                  1117 1133 1143 1156 1195 1206 1221 1238 1278 1293
                                                                                  1308 1323 1371 1382 1394 1426 1442 1443 1530 1606
                                                                                  1624 1643 1661 1674 1728 1734 1740 1746 1772 1892
                                                                                  1932 1948 2052 2125 2125 2131 2131 2160 2272 2296
                                                                                  2303 2309 2339 2343 2364 2453 2459 2481 2491 2882
                                                                                  2885 2888 2908 2913 2917 2924 2931 2934 2940 2950
                                                                                  2972 2973 3062 3065 3083 3083 3098 3100 3117 3178
                                                                                  3178 3195 3205 3206 3209 3217 3218 3221 3229 3230
                                                                                  3306 3378 3397 3415 3423 3432 3453 3471 3473 3495
                                                                                  3498 3507 3513 3536 3542 3547 3554 3554 3566 3576
                                                                                  3576 3587 3612 3615 3618 3678 3724 3738 3753 3762
                                                                                  3789 3789 3794 3794 3829 3829 3839 3839 3848 3848
                                                                                  3848 3848 3940 3950 3951 4000 4036 4115 4125 4138
                                                                                  4139 4176 4190 4206 4219 4221 4270 4295 4299 4317
                                                                                  4317 4319 4329 4334 4334 4337 4345 4355 4372 4379
                                                                                  4439 4464 4470 4473 4481 4481 4502 4529 4542 4547
                                                                                  4547 4554 4563 4571 4598 4601 4604 4611 4614 4617
                                                                                  4623 4633 4680 4705 4705 4724 4785 4785 4785 4805
                                                                                  4820 4824 4831 4892 4899 4926 4926 5050 5296 5384
                                                                                  5385 5387 5388 5389 5390 5394 5395 5417 5429 5431
                                                                                  5433 5433 5438 5449 5471 5473 5474 5501 5541 5543
                                                                                  5573 5626 5699 5703 5733 5740 5763 5768 5768 5769
                                                                                  5785 5806 5835 6015 6039 6112 6118 6118 6248 6253
                                                                                  6290 6332 6405 6518 6518 6518 6520 6520 6563 6564
                                                                                  6564 6575 6620 6665 6670 6694 6882 6882 6990 6993
                                                                                  7013 7013 7077 7081 7144 7194 7200 7325 7848 7859
                                                                                  7905 7905 7960 7966 8080 8142 8242 8333 8391 8393
                                                                                  8461 8463 8470 8509 8511 8511 8511 8629 8633 8635
                                                                                  8654 8709 8821 8854 8870 8881 8883 8921 8966 8966
                                                                                  8980 9027 9061 9073 9121 9170 9215 9252 9252 9273
                                                                                  9276 9322 9344 9458 9461 9470 9482 9494 9525 9535
                                                                                  9546 9547 9547 9564 9564 9566 9566 9567 9568 9569
                                                                                  9570 9571 9610 9612 9612 9717 9719 9719 9737 9737
                                                                                  9752 9752 9783 9821 9856 9915 9971 9971 10211
                                                                                  10232 10264 10264 10270 10270 10276 10276 10307
                                                                                  10307 10327 10327 10338 10338 10383 10401 10406
                                                                                  10429 10546 10560 10583 10586 10590 10618 10637
                                                                                  10637 10702 10706 11104 11151 11164 11248 11267
                                                                                  11268 11300 11302 11314 11318 11346 11348 11348
                                                                                  11367 11385 11385 11421 11422 11429 11470 11481
                                                                                  11502 11523 11555 11594 11596 11606 11641 11669
                                                                                  11677 11678 11695 11699 11718 11728 11737 11786
                                                                                  11787 11789 11803 11811 11851 11855 11893 11952
                                                                                  11971 12315 12377 12385 12385 12397 12424 12441
                                                                                  12467 12483 12508 12570 12581 12582 12601 12621
                                                                                  12631 12657 12658 12660 27-13 27-82 27-114 27-138
                                                                                  27-139 27-149 27-165 27-166 27-220 27-222 27-249
                                                                                  27-290 12686 12700 12738 12744 12758 12761 12761
                                                                                  12770 12773 12773 12848 12854 12874 12877 12877
                                                                                  12883 12886 12886 12903 12905 12993 13027 13027
                                                                                  13030 13041 13043 13075 13083 13086 13108 13190
                                                                                  13228 13277 13285 13291 13297 13298 13338 13347
                                                                                  13350 13385 13434 13442 13464 13469 13477 13478
                                                                                  13488 13489 13500 13520 13541 13544 13569 13576
                                                                                  13632 13649 13662 13663 13664 13680 13684 13688
                                                                                  13692 13771 13782 13783 13784 13835 13835 13839
                                                                                  13839 13843 13843 13848 13848 14160 14255 14278
                                                                                  14281
addr                                                   builtin function         dcl 12-18 in procedure "create_constant" ref 12-51
                                                                                  12-52 12-54 12-54 12-63 12-80 12-91
addr                                                   builtin function         dcl 13-17 in procedure "create_node" ref 13-24 13-25
addr_hold                 2(18)        based           bit(18)                  level 2 in structure "symbol" packed packed
                                                                                  unaligned dcl 1-844 in procedure
                                                                                  "fort_optimizing_cg" set ref 2146* 7112
addr_hold                 2(18)        based           bit(18)                  level 2 in structure "node" packed packed unaligned
                                                                                  dcl 1-63 in procedure "fort_optimizing_cg" set ref
                                                                                  6598* 6643 7161 8726 9564*
addr_hold                 2(18)        based           bit(18)                  level 2 in structure "temporary" packed packed
                                                                                  unaligned dcl 1-1005 in procedure
                                                                                  "fort_optimizing_cg" set ref 5580* 5580 5712 5813*
                                                                                  7593
addrel                                                 builtin function         dcl 645 ref 741 742 761 762 769 770 809 829 872 902
                                                                                  921 1199 1199 1270 1270 2186 2236 2270 10509 13470
                                                                                  13479 13481 13490 13492 13508 13521 13521 13582
                                                                                  13627 13829 13853 13905 14019 14020 14021 14022
                                                                                  14035 14090 14132 14144 14145 14154 14154 14208
                                                                                  14209 14215 14269
address                         007054 automatic       pointer                  dcl 13595 in procedure "initialize_symbol" set ref
                                                                                  13619* 13627* 13627 13632* 13632 13680 13684 13688
                                                                                  13692
address                   1            based           structure                level 2 in structure "node" dcl 1-63 in procedure
                                                                                  "fort_optimizing_cg" set ref 5997 5997 6150 6159
                                                                                  6444 6451 6465 6598 6624 7161 8726 9564 11641
address                   1            based           structure                level 2 in structure "temporary" dcl 1-1005
                                                                                  in procedure "fort_optimizing_cg" set ref 5508*
                                                                                  5556 5583* 5583 5601* 5664 5700* 5712* 5813 5816*
                                                                                  11248 11346* 13089*
address                         000111 automatic       bit(36)                  dcl 6946 in procedure "base_man_load_any_pr" set ref
                                                                                  6978* 6979* 6985* 7021* 7022* 7024* 7030* 7034*
                                                                                  7049*
address                   1            based           structure                level 2 in structure "array_ref" dcl 1-155
                                                                                  in procedure "fort_optimizing_cg" set ref 10574*
                                                                                  10616* 10621* 10650
address                   1            based           structure                level 2 in structure "symbol" dcl 1-844 in procedure
                                                                                  "fort_optimizing_cg" set ref 1241* 1399* 1446*
                                                                                  1894* 2146 6698* 6698 7112 10621
address                                parameter       fixed bin(18,0)          dcl 5926 in procedure "emit_with_tag" ref 5921 5934
address                   1            based           structure                level 2 in structure "constant" dcl 1-256
                                                                                  in procedure "fort_optimizing_cg" set ref 6017
address                   1            based           structure                level 2 in structure "char_constant" dcl 1-316
                                                                                  in procedure "fort_optimizing_cg"
address                                parameter       bit(36)                  dcl 5960 in procedure "emit_c_a" ref 5954 5965
address                   1            based           structure                level 2 in structure "header" dcl 1-436 in procedure
                                                                                  "fort_optimizing_cg" set ref 1160* 1226* 1241
                                                                                  1297* 1349* 1894
address                         004251 automatic       bit(36)                  dcl 8196 in procedure "xr_man_add_const" set ref
                                                                                  8201* 8202* 8203* 8210*
address                   1            based           structure                level 2 in structure "label" dcl 1-530 in procedure
                                                                                  "fort_optimizing_cg"
address_in_base         111            based           bit(1)                   level 3 in structure "loop_state" dcl 2716
                                                                                  in procedure "interpreter" ref 9920
address_in_base         111            parameter       bit(1)                   level 3 in structure "existing_state" dcl 9514
                                                                                  in procedure "merge_state" set ref 9669*
address_in_base           0(21)        based           bit(1)                   level 3 in structure "node" packed packed unaligned
                                                                                  dcl 1-63 in procedure "fort_optimizing_cg" set ref
                                                                                  6555 6996* 7145* 8711 8732* 9571*
address_in_base           0(21)        based           bit(1)                   level 3 in structure "temporary" packed packed
                                                                                  unaligned dcl 1-1005 in procedure
                                                                                  "fort_optimizing_cg" set ref 3221 3229* 3230*
                                                                                  5845* 11331
address_in_base         111     004574 automatic       bit(1)                   level 3 in structure "new_state" dcl 9514
                                                                                  in procedure "merge_state" set ref 9556 9669
address_in_base         111            based           bit(1)                   level 3 in structure "machine_state" dcl 1-620
                                                                                  in procedure "fort_optimizing_cg" set ref 10089*
address_in_base         111     001511 automatic       bit(1)                   level 3 in structure "current_ms" dcl 2714
                                                                                  in procedure "interpreter" set ref 5844* 6997*
                                                                                  9692 9773 9920* 10274
address_in_base         111            parameter       bit(1)                   level 3 in structure "affected_ms" dcl 10301
                                                                                  in procedure "drop_all_ms_ref_counts" ref 10334
addressing_bits           0(14)        based           structure                level 2 in structure "constant" packed packed
                                                                                  unaligned dcl 1-256 in procedure
                                                                                  "fort_optimizing_cg"
addressing_bits           0(14)        based           structure                level 2 in structure "node" packed packed unaligned
                                                                                  dcl 1-63 in procedure "fort_optimizing_cg"
addressing_bits           0(14)        based           structure                level 2 in structure "array_ref" packed packed
                                                                                  unaligned dcl 1-155 in procedure
                                                                                  "fort_optimizing_cg"
addressing_bits           0(14)        based           structure                level 2 in structure "temporary" packed packed
                                                                                  unaligned dcl 1-1005 in procedure
                                                                                  "fort_optimizing_cg" set ref 5504* 5578* 5578 5578
addressing_bits           0(14)        based           structure                level 2 in structure "label" packed packed unaligned
                                                                                  dcl 1-530 in procedure "fort_optimizing_cg"
addressing_bits           0(14)        based           structure                level 2 in structure "header" packed packed
                                                                                  unaligned dcl 1-436 in procedure
                                                                                  "fort_optimizing_cg" set ref 1903
addressing_bits           0(14)        based           structure                level 2 in structure "symbol" packed packed
                                                                                  unaligned dcl 1-844 in procedure
                                                                                  "fort_optimizing_cg" set ref 1903*
addressing_bits           0(14)        based           structure                level 2 in structure "char_constant" packed packed
                                                                                  unaligned dcl 1-316 in procedure
                                                                                  "fort_optimizing_cg"
adesc                           005702 automatic       fixed bin(18,0)          dcl 11665 set ref 11694* 11695
adfx1                           000530 constant        fixed bin(18,0)          initial dcl 25-16 set ref 4211 11064 11316*
adlx0                                  constant        fixed bin(18,0)          initial dcl 25-16 ref 8523
adq                                    constant        bit(10)                  initial dcl 6234 ref 6299 6302
affected_ms                            parameter       structure                level 1 dcl 10301 set ref 10296
aliasable                 2(03)        based           bit(1)                   level 2 packed packed unaligned dcl 1-844 set ref
                                                                                  4040 12519 12703
alignment                 0(30)        based           structure                level 3 packed packed unaligned dcl 1-436
all_xrs_globally_assigned
                         25(21)        based           bit(1)                   level 3 packed packed unaligned dcl 2-100 set ref
                                                                                  4671 4710 12046* 12244*
alloc_auto_adj                         constant        fixed bin(14,0)          initial dcl 2650 ref 4214
alloc_auto_cleanup              000161 automatic       bit(1)                   dcl 484 set ref 1108* 1671 2261* 4933
alloc_length                    005542 automatic       fixed bin(18,0)          dcl 11204 set ref 11212* 11215* 11215 11240*
alloc_ps                        000135 automatic       bit(1)                   dcl 1082 set ref 1108* 1138* 1138 1640
allocate                  0(25)        based           bit(1)                   level 4 in structure "node" packed packed unaligned
                                                                                  dcl 1-63 in procedure "fort_optimizing_cg" set ref
                                                                                  1394* 6321* 13354* 13442*
allocate                  0(25)        based           bit(1)                   level 4 in structure "constant" packed packed
                                                                                  unaligned dcl 1-256 in procedure
                                                                                  "fort_optimizing_cg" ref 868
allocate                  0(25)        based           bit(1)                   level 4 in structure "char_constant" packed packed
                                                                                  unaligned dcl 1-316 in procedure
                                                                                  "fort_optimizing_cg" ref 892
allocate                  0(25)        based           bit(1)                   level 5 in structure "header" packed packed
                                                                                  unaligned dcl 1-436 in procedure
                                                                                  "fort_optimizing_cg" ref 1157 1222 1294 1324
allocate                  0(25)        based           bit(1)                   level 5 in structure "symbol" packed packed
                                                                                  unaligned dcl 1-844 in procedure
                                                                                  "fort_optimizing_cg" set ref 1393* 1397 1627*
                                                                                  1646* 1677* 2455* 4191 13289*
allocate                  0(25)        based           bit(1)                   level 4 in structure "temporary" packed packed
                                                                                  unaligned dcl 1-1005 in procedure
                                                                                  "fort_optimizing_cg" set ref 5506*
allocate_char_string                   constant        fixed bin(14,0)          initial dcl 2650 ref 11228
allocate_symbol_name            000126 automatic       fixed bin(17,0)          dcl 1-525 set ref 661* 1623 1623 1642 1642 1660 1660
                                                                                  1673 1673 2452 2452 2939 2939 2949 2949 13284
                                                                                  13284
allocated                 0(17)        based           bit(1)                   level 3 in structure "node" packed packed unaligned
                                                                                  dcl 1-63 in procedure "fort_optimizing_cg" ref
                                                                                  4307 6323 13922
allocated                 0(17)        based           bit(1)                   level 3 in structure "temporary" packed packed
                                                                                  unaligned dcl 1-1005 in procedure
                                                                                  "fort_optimizing_cg" set ref 5506*
allocated                 0(17)        based           bit(1)                   level 3 in structure "header" packed packed
                                                                                  unaligned dcl 1-436 in procedure
                                                                                  "fort_optimizing_cg" set ref 1161* 1224* 1298*
                                                                                  1358*
allocated                 0(17)        based           bit(1)                   level 3 in structure "symbol" packed packed
                                                                                  unaligned dcl 1-844 in procedure
                                                                                  "fort_optimizing_cg" set ref 1028* 1240* 1383
                                                                                  1445* 1597* 1627* 1646* 1677* 1754* 2943* 6696
                                                                                  6699* 10702 11470
allocated                 0(17)        based           bit(1)                   level 3 in structure "char_constant" packed packed
                                                                                  unaligned dcl 1-316 in procedure
                                                                                  "fort_optimizing_cg" set ref 892 906* 2911*
allocated                 0(17)        based           bit(1)                   level 3 in structure "constant" packed packed
                                                                                  unaligned dcl 1-256 in procedure
                                                                                  "fort_optimizing_cg" set ref 868 874*
allocated                 0(17)        based           bit(1)                   level 3 in structure "label" packed packed unaligned
                                                                                  dcl 1-530 in procedure "fort_optimizing_cg" set
                                                                                  ref 1029* 1037* 4470 10386*
allocated                 0(17)        based           bit(1)                   level 3 in structure "array_ref" packed packed
                                                                                  unaligned dcl 1-155 in procedure
                                                                                  "fort_optimizing_cg" set ref 2927*
alr                             000427 constant        fixed bin(18,0)          initial dcl 25-16 set ref 12934* 12953* 12971*
                                                                                  12972*
alters                          000024 external static structure                array level 2 packed packed unaligned dcl 2578
always_completely_set
                         25            based           pointer                  level 2 packed packed unaligned dcl 2-46 ref 10177
amount                                 parameter       fixed bin(18,0)          dcl 5487 in procedure "create_temp" ref 5481 5494
amount                                 parameter       fixed bin(18,0)          dcl 5406 in procedure "get_temp" ref 5401 5408
amt                             000126 automatic       fixed bin(18,0)          dcl 5488 in procedure "create_temp" set ref 5494*
                                                                                  5497 5499 5513 5521*
amt                             000112 automatic       fixed bin(18,0)          dcl 5406 in procedure "get_temp" set ref 5408* 5410
                                                                                  5412 5429 5453*
amt                                    parameter       fixed bin(17,0)          dcl 861 in procedure "alloc_constants" ref 856 864
                                                                                  872
amt                             000317 automatic       fixed bin(18,0)          dcl 534 in procedure "code_generator" set ref 900*
                                                                                  902 905 920
amt                                    parameter       fixed bin(18,0)          dcl 27-46 in procedure "get_quad_space" ref 27-44
                                                                                  27-51
analyzing                       000632 automatic       bit(1)                   dcl 2504 set ref 2854* 2856 3062 3714 3722 3740 4014
                                                                                  4061 4678 4718 4760 4796 4814 5385 5549 5558 5629
                                                                                  5783 5946 5962 5987 6011 6057 6096 6118 6142 6457
                                                                                  6460 6465 6564 6576 6624 6696 6882 6953 7015 7043
                                                                                  7084 7297 7302 7354 7384 7500 7542 7700 8007 8038
                                                                                  8054 8073 8088 8126 8224 8286 8306 8548 8688 8718
                                                                                  9547 10195 10213 10236 10245 10452 10550 11154
                                                                                  11167 11300 11594 13001
anq                             000656 constant        fixed bin(18,0)          initial dcl 25-16 set ref 11483* 11494* 11502*
                                                                                  11598* 12793* 12919*
ansi_77                  11(30)        based           bit(1)                   level 3 packed packed unaligned dcl 1-753 ref 3435
                                                                                  4889 5395
aos                             000646 constant        fixed bin(18,0)          initial dcl 25-16 set ref 10472*
ap                              005736 automatic       pointer                  dcl 11782 set ref 11803* 11805 11806 11808 11808
                                                                                  11809 11811 11812 11816 11817 11820 11821 11832
                                                                                  11833 11834
arg                                    parameter       pointer                  array dcl 6868 in procedure "make_both_addressable"
                                                                                  ref 6862 6875
arg                             004022 automatic       pointer                  array dcl 6373 in procedure "emit_eis" set ref 6405*
                                                                                  6412* 6444 6451 6457 6460 6460 6465 6465* 6467
                                                                                  6467 6467* 6479 6514
arg                       1            based           structure                array level 2 in structure "arg_desc" dcl 1-130
                                                                                  in procedure "fort_optimizing_cg" set ref 11808*
                                                                                  11808 11833*
arg1                            006646 automatic       fixed bin(18,0)          dcl 12843 in procedure "lhs_fld" set ref 12847*
                                                                                  12848 12850* 12883 12886 12948* 12965*
arg1                            006625 automatic       fixed bin(18,0)          dcl 12734 in procedure "rhs_fld" set ref 12737*
                                                                                  12738 12740* 12770 12773 12816* 12821*
arg1_is_const                   006655 automatic       bit(1)                   initial packed unaligned dcl 12844 in procedure
                                                                                  "lhs_fld" set ref 12844* 12885* 12891 12924
arg1_is_const                   006633 automatic       bit(1)                   initial packed unaligned dcl 12735 in procedure
                                                                                  "rhs_fld" set ref 12735* 12772* 12778 12806
arg2                            006647 automatic       fixed bin(18,0)          dcl 12843 in procedure "lhs_fld" set ref 12853*
                                                                                  12854 12856* 12874 12877 12929* 12966*
arg2                            006626 automatic       fixed bin(18,0)          dcl 12734 in procedure "rhs_fld" set ref 12743*
                                                                                  12744 12746* 12758 12761 12810* 12823*
arg2_is_const                   006634 automatic       bit(1)                   initial packed unaligned dcl 12735 in procedure
                                                                                  "rhs_fld" set ref 12735* 12760* 12778 12814
arg2_is_const                   006656 automatic       bit(1)                   initial packed unaligned dcl 12844 in procedure
                                                                                  "lhs_fld" set ref 12844* 12876* 12891 12943
arg3                            006650 automatic       fixed bin(18,0)          dcl 12843 in procedure "lhs_fld" set ref 12859*
                                                                                  12860* 12862* 12899* 12917* 12918* 12920* 12932*
                                                                                  12933* 12940* 12951* 12952* 12958* 12969* 12970*
                                                                                  12977*
arg3                            006627 automatic       fixed bin(18,0)          dcl 12734 in procedure "rhs_fld" set ref 12749*
                                                                                  12750* 12752* 12784* 12804*
arg4                            006651 automatic       fixed bin(18,0)          dcl 12843 set ref 12865* 12866* 12898* 12903 12905
                                                                                  12910* 12935* 12954* 12973*
arg_count                       002543 automatic       fixed bin(17,0)          level 3 packed packed unaligned dcl 2829 set ref
                                                                                  4326*
arg_desc                               based           structure                level 1 dcl 1-130 set ref 11694 11694
arg_desc_node                   000722 constant        fixed bin(4,0)           initial dcl 4-87 set ref 11694*
arg_list                        002543 automatic       structure                level 1 dcl 2829 set ref 4334 4334
arg_no                                 parameter       fixed bin(18,0)          dcl 11458 ref 11445 11481
arg_ptr                                constant        fixed bin(18,0)          initial dcl 2599 ref 7518
args                                   parameter       fixed bin(18,0)          dcl 5323 ref 5316 5325
array                     1(04)        based           bit(1)                   array level 4 packed packed unaligned dcl 1-130 set
                                                                                  ref 11704* 11753 11756 11816*
array_info                1     000117 automatic       structure                array level 2 in structure "descriptor" dcl 13173
                                                                                  in procedure "make_symbol_descriptor"
array_info                1     006754 automatic       structure                array level 2 in structure "descriptor" dcl 13322
                                                                                  in procedure "make_entry_descriptor"
array_ref                              based           structure                level 1 dcl 1-155 set ref 2923 2923
array_ref_node                  000754 constant        fixed bin(4,0)           initial dcl 4-87 set ref 2923* 3432 5992 6118 6154
                                                                                  6460 6479 6561 6620 6882 6993 7078 7200 7975 8966
                                                                                  10213 10234 11383 11709 11756 11821 27-224 13141
array_ref_type                         constant        fixed bin(4,0)           initial dcl 4-120 ref 2925
array_size                3            based           fixed bin(24,0)          level 2 in structure "dimension" dcl 1-383
                                                                                  in procedure "fort_optimizing_cg" set ref 2368*
                                                                                  2370 2396* 3953 3955 10712
array_size                      005436 automatic       fixed bin(18,0)          dcl 10687 in procedure "get_param_array_size" set
                                                                                  ref 10712* 10740* 10828* 10857* 10885* 10890*
                                                                                  10902* 10907* 10919*
array_sym                              parameter       fixed bin(18,0)          dcl 8915 in procedure "save_eaq_temps" ref 8908 8921
                                                                                  8921 8966
array_sym                              parameter       fixed bin(18,0)          dcl 8899 in procedure "use_eaq" ref 8893 8903
asp                             004442 automatic       pointer                  dcl 8919 set ref 8921* 8923* 8966 8966 8966* 8966
                                                                                  8966
asq                             000526 constant        fixed bin(18,0)          initial dcl 25-16 set ref 4155 10869*
assembly_list                   000251 automatic       bit(1)                   dcl 505 set ref 675* 676 1946 2158 3753 3762 4127
                                                                                  4143 4156 4166 4181 4196 4270 4301 4355 4939 4966
                                                                                  5992 6154 6460 7120 14271
assign_op                              constant        fixed bin(18,0)          initial dcl 4-197 ref 12506
assigns_constant_to_symbol
                          0(09)        based           bit(1)                   level 2 packed packed unaligned dcl 2-144 set ref
                                                                                  12576*
assumed_size              0(28)        based           bit(1)                   level 2 packed packed unaligned dcl 1-383 ref 2424
                                                                                  10736 10883 10919 10958 11678 13265 13422
attributes               10            based           structure                level 2 dcl 1-844
auto                      0(18)        based           bit(1)                   level 3 packed packed unaligned dcl 21-23 set ref
                                                                                  2246*
auto_template                   000332 automatic       fixed bin(18,0)          dcl 554 set ref 665* 2919 13517*
auto_zero                11(29)        based           bit(1)                   level 3 packed packed unaligned dcl 1-753 ref 845
automatic                 0(33)        based           bit(1)                   level 4 in structure "header" packed packed
                                                                                  unaligned dcl 1-436 in procedure
                                                                                  "fort_optimizing_cg" ref 1227 2243 2246 2261
automatic                11            based           bit(1)                   level 4 in structure "symbol" packed packed
                                                                                  unaligned dcl 1-844 in procedure
                                                                                  "fort_optimizing_cg" set ref 1646* 1677* 2455*
                                                                                  13290*
avail_pregs                     000670 automatic       fixed bin(4,0)           dcl 2533 set ref 2860* 12020 12025 12136*
avail_regs                             parameter       fixed bin(4,0)           dcl 12158 ref 12155 12165
avail_xregs                     000671 automatic       fixed bin(4,0)           dcl 2534 set ref 2861* 12018 12036 12046 12132*
                                                                                  12244
avoid_pr                 25(15)        based           bit(1)                   array level 3 packed packed unaligned dcl 2-100 set
                                                                                  ref 4733 4733 4733 4739 4751 5848* 6633* 6730*
                                                                                  11932* 11932 11932
b1                              000732 automatic       bit(1)                   dcl 2547 set ref 3052* 3056* 3062 3383* 3409* 3416*
                                                                                  3418* 3427* 3430* 3432* 3435* 3437* 3439* 3456*
                                                                                  3458* 3461* 3466 3530* 3536* 3542* 3548* 3555*
                                                                                  3561* 3567* 3568* 3576* 3581* 3587* 3592* 3597*
                                                                                  3607* 3615* 3640* 3644* 3648* 3652* 3656* 3660*
                                                                                  3663 4037* 4040* 4043* 4045* 4046* 4284* 4295*
                                                                                  4298 4304* 4307* 4400* 4410 4427 4673* 4710 4847*
                                                                                  4849 4889* 4899* 4904* 4909* 4915* 4917* 4926*
                                                                                  4928* 4933* 5075*
b18                             007236 automatic       bit(18)                  dcl 14196 set ref 14205* 14220
b2                              000733 automatic       bit(1)                   dcl 2547 set ref 3371* 3375* 3387* 3391* 3413* 3421*
                                                                                  3443* 3447* 3517* 3521* 3533* 3539* 3545* 3551*
                                                                                  3558* 3564* 3573* 3579* 3584* 3590* 3595* 3600*
                                                                                  3604* 3622* 3626* 3663 4034* 4280* 4887* 4896*
                                                                                  4902* 4907* 4913* 4920* 4931* 5073*
back                      1            based           pointer                  level 2 in structure "flow_unit" packed packed
                                                                                  unaligned dcl 2-46 in procedure
                                                                                  "fort_optimizing_cg" ref 11911 11916 11918
back                      1(18)        based           fixed bin(18,0)          level 2 in structure "operator" packed packed
                                                                                  unsigned unaligned dcl 2-144 in procedure
                                                                                  "fort_optimizing_cg" set ref 12530 12540 12584*
                                                                                  12586* 27-166 27-167* 27-167 27-172*
back                      2(18)        based           bit(18)                  level 2 in structure "opt_statement" packed packed
                                                                                  unaligned dcl 2-176 in procedure
                                                                                  "fort_optimizing_cg" ref 27-143
back_target              11            based           pointer                  level 2 packed packed unaligned dcl 2-100 ref 12201
                                                                                  12352 12357 12464 13015
backp                           006504 automatic       pointer                  dcl 27-158 set ref 27-166* 27-168
backward                  0(18)        based           bit(18)                  level 2 packed packed unaligned dcl 8-12 set ref
                                                                                  14211* 14213*
base                            004134 automatic       bit(3)                   level 2 in structure "inst_address" packed packed
                                                                                  unaligned dcl 7185 in procedure "base_man_load_pr"
                                                                                  set ref 7244*
base                                   parameter       bit(3)                   dcl 7470 in procedure
                                                                                  "base_man_load_large_base_no_flush" ref 7462 7476
                                                                                  7481
base                      1            based           bit(3)                   level 3 in structure "header" packed packed
                                                                                  unaligned dcl 1-436 in procedure
                                                                                  "fort_optimizing_cg" set ref 1175* 1185* 1227*
                                                                                  1230* 1353* 1356*
base                            000104 automatic       bit(3)                   level 2 in structure "inst_address" packed packed
                                                                                  unaligned dcl 7376 in procedure
                                                                                  "base_man_load_large_base" set ref 7445*
base                            007022 automatic       pointer                  dcl 13458 in procedure "initialize_static" set ref
                                                                                  13470* 13471 13479* 13481* 13482 13490* 13492*
                                                                                  13493 13508* 13509
base                            000101 automatic       bit(3)                   level 2 in structure "inst_address" packed packed
                                                                                  unaligned dcl 6778 in procedure "c_a" set ref
                                                                                  6788* 6792* 6796* 6801* 6813* 6813
base                            001472 automatic       bit(3)                   level 2 in structure "inst_address" packed packed
                                                                                  unaligned dcl 2685 in procedure "interpreter" set
                                                                                  ref 4146* 4152*
base                            004171 automatic       bit(3)                   dcl 7724 in procedure "base_man_dispatch" set ref
                                                                                  7732* 7734* 7735* 7735* 7738* 7741* 7744* 7746
base                            000123 automatic       bit(3)                   level 2 in structure "inst_address" packed packed
                                                                                  unaligned dcl 7586 in procedure
                                                                                  "base_man_store_temp" set ref 7626* 7642* 7654*
base                            007032 automatic       pointer                  dcl 13534 in procedure "initialize" set ref 13537*
                                                                                  13545* 13548*
base                            000110 automatic       bit(3)                   level 2 in structure "inst_address" packed packed
                                                                                  unaligned dcl 7473 in procedure
                                                                                  "base_man_load_large_base_no_flush" set ref 7476*
base                      1            based           bit(3)                   level 3 in structure "symbol" packed packed
                                                                                  unaligned dcl 1-844 in procedure
                                                                                  "fort_optimizing_cg" set ref 1447* 1457* 1513*
                                                                                  1539* 1585* 1588* 1629* 1648* 1679* 2944* 6681*
                                                                                  6683*
base                      1            based           bit(3)                   level 3 in structure "node" packed packed unaligned
                                                                                  dcl 1-63 in procedure "fort_optimizing_cg" set ref
                                                                                  4307 4307 6557* 6600* 6657* 6703* 6740* 6743* 6904
                                                                                  7226 9567* 11631
base                      1            based           bit(3)                   level 3 in structure "temporary" packed packed
                                                                                  unaligned dcl 1-1005 in procedure
                                                                                  "fort_optimizing_cg" set ref 5509* 5846* 6648*
                                                                                  11333
base                      1            based           bit(3)                   level 3 in structure "array_ref" packed packed
                                                                                  unaligned dcl 1-155 in procedure
                                                                                  "fort_optimizing_cg" set ref 2928*
base                            000633 automatic       fixed bin(18,0)          dcl 2507 in procedure "interpreter" set ref 2986*
                                                                                  3147* 3240* 3246 3247 3249 3251 3259* 4008 4091
                                                                                  4246 4282 4295 4324 4337 4340 4345 4379 4551 4551
                                                                                  4551 4560 4560 4560 4678 4680 4695 4696 4703 4705
                                                                                  4706 4714 4718 4765 4765 4769 4769 4773 4777 4777
                                                                                  4781 4781 4796 4892 5023 5048 5176* 5192 5277*
                                                                                  11224 11267 11346 11668 11669 11677 11678 11678
                                                                                  11699 11722 11728 11768 11768
base                      4            based           fixed bin(18,0)          level 2 in structure "proc_frame" dcl 2718
                                                                                  in procedure "interpreter" set ref 3981* 5176
                                                                                  5277*
base                                   parameter       bit(3)                   dcl 7371 in procedure "base_man_load_large_base" ref
                                                                                  7365 7380 7445
base_man_args                   001500 automatic       structure                level 1 unaligned dcl 2692
base_regs               112            based           structure                array level 3 in structure "machine_state" dcl 1-620
                                                                                  in procedure "fort_optimizing_cg"
base_regs               112            based           structure                array level 3 in structure "loop_state" dcl 9806
                                                                                  in procedure "leave_loop"
base_regs               112            parameter       structure                array level 3 in structure "existing_state" dcl 9514
                                                                                  in procedure "merge_state"
base_regs               112     004574 automatic       structure                array level 3 in structure "new_state" dcl 9514
                                                                                  in procedure "merge_state"
base_regs               112     001511 automatic       structure                array level 3 in structure "current_ms" dcl 2714
                                                                                  in procedure "interpreter" set ref 4265* 4353*
                                                                                  6981* 6999* 7026* 7039* 7440* 7515* 7557* 7637*
                                                                                  9660 9660 9904*
base_regs               112            parameter       structure                array level 3 in structure "a_new_state" dcl 9514
                                                                                  in procedure "merge_state"
base_regs               112            parameter       structure                array level 3 in structure "affected_ms" dcl 10301
                                                                                  in procedure "drop_all_ms_ref_counts"
base_regs               112            based           structure                array level 3 in structure "loop_state" dcl 9839
                                                                                  in procedure "enter_loop"
base_regs               112            based           structure                array level 3 in structure "loop_state" dcl 2716
                                                                                  in procedure "interpreter" set ref 9904
based_double                           based           structure                level 1 dcl 9267
based_dp                               based           float bin(63)            level 2 packed packed unaligned dcl 9267 ref 9286
based_integer                          based           fixed bin(35,0)          dcl 9265 in procedure "check_negative" ref 9279
based_integer                          based           fixed bin(35,0)          dcl 2683 in procedure "interpreter" ref 12761 12773
                                                                                  12877 12886
based_real                             based           float bin(27)            dcl 9266 ref 9282
bases                           000624 constant        bit(3)                   initial array dcl 593 ref 923 923 1175 1175 1185
                                                                                  1185 1227 1227 1230 1230 1353 1353 1356 1356 1447
                                                                                  1447 1457 1457 1513 1513 1539 1539 1585 1585 1588
                                                                                  1588 1629 1629 1648 1648 1679 1679 2928 2928 2944
                                                                                  2944 4307 4307 4307 4307 5509 5509 5846 6733 6733
                                                                                  6734 6734 6788 6788 6792 6792 6796 6796 6801 6801
                                                                                  6967 6979 7059 7226 7244 7380 7380 7395 7458 7481
                                                                                  7481 7488 7511 7529 7553 7571 7626 7642 7642 7654
                                                                                  7654 7732 7732 7734 7734 9567
begin_external_list             000205 automatic       fixed bin(18,0)          dcl 491 set ref 688* 1770 1770 1803 1810 13920
begin_forward_refs              000207 automatic       fixed bin(18,0)          dcl 493 set ref 708* 727 734 786 14076
begin_links                     000175 automatic       fixed bin(18,0)          dcl 488 set ref 819 1725* 13881 13883
bias                                   constant        fixed bin(19,0)          initial dcl 4-56 ref 1453 1474 1654 1686 3053 3090
                                                                                  3106 3112 3117 3175 3247 3355 3631 3634 3674 3706
                                                                                  3714 3729 3730 3814 3931 3932 3932 3935 3940 4029
                                                                                  4102 4149 4151 4211 4212 4235 4259 4283 4325 4341
                                                                                  4547 4551 4560 4601 4614 4641 4883 5048 5081 5093
                                                                                  5138 5198 5334 5334 5497 6108 6515 9249 9270 10604
                                                                                  10739 10809 10822 10866 10891 10934 10994 11022
                                                                                  11048 11048 11048 11079 11079 11079 11277 11286
                                                                                  11376 11389 11578 11668 12790 12797 12798 12808
                                                                                  12818 12912 12938 12956 13030 13131 13138 13145
                                                                                  13152 13212 13370 14135
bif                                    constant        fixed bin(4,0)           initial dcl 4-120 ref 1410 11568 13202 13360
bin                                                    builtin function         dcl 645 ref 637
binary                                                 builtin function         dcl 645 in procedure "code_generator" ref 2424 5995
                                                                                  7252 7252 7842 8109 14038
binary                                                 builtin function         dcl 12-19 in procedure "create_constant" ref 12-57
bit                                                    builtin function         dcl 6397 in procedure "emit_eis" ref 6455
bit                                                    builtin function         dcl 645 in procedure "code_generator" ref 781 781
                                                                                  813 814 815 816 817 818 819 820 821 829 4029 4084
                                                                                  6857 8021 8058 8109 8129 8202 8203 8227 11633
                                                                                  11634 13880 13881 13882 13883 14035 14042 14083
                                                                                  14098 14104 14143 14167 14207 14223 14264 14264
bit3                            005141 automatic       bit(3)                   dcl 9957 in procedure "refresh_regs" set ref 9983*
bit3                            000736 automatic       bit(3)                   dcl 2548 in procedure "interpreter" set ref 4137*
                                                                                  4140 4146 4158 4165* 4168 4736* 4737 4747* 4748
bit6                            004453 automatic       bit(6)                   dcl 8947 in procedure "save" set ref 8990*
bit6                            005140 automatic       bit(6)                   dcl 9956 in procedure "refresh_regs" set ref 9971*
bit6                            000117 automatic       bit(6)                   dcl 9057 in procedure "save_logical_temps" set ref
                                                                                  9080*
bit6                            000737 automatic       bit(6)                   dcl 2549 in procedure "interpreter" set ref 4681*
                                                                                  4682
bit_image                              based           bit(72)                  dcl 2710 set ref 3083* 3083*
bit_offset                3(21) 002543 automatic       bit(6)                   array level 3 packed packed unaligned dcl 2829 set
                                                                                  ref 11634*
bit_type                        000117 automatic       structure                level 3 in structure "descriptor" packed packed
                                                                                  unaligned dcl 13173 in procedure
                                                                                  "make_symbol_descriptor"
bit_type                        006754 automatic       structure                level 3 in structure "descriptor" packed packed
                                                                                  unaligned dcl 13322 in procedure
                                                                                  "make_entry_descriptor"
bit_type                        005661 automatic       structure                level 3 in structure "descriptor" packed packed
                                                                                  unaligned dcl 11546 in procedure "make_descriptor"
bits                    112            based           structure                array level 4 in structure "loop_state" packed
                                                                                  packed unaligned dcl 9839 in procedure
                                                                                  "enter_loop"
bits                     41            based           structure                array level 4 in structure "machine_state" packed
                                                                                  packed unaligned dcl 1-620 in procedure
                                                                                  "fort_optimizing_cg"
bits                      0(25)        based           structure                level 2 in structure "symbol" packed packed
                                                                                  unaligned dcl 1-844 in procedure
                                                                                  "fort_optimizing_cg"
bits                    112            parameter       structure                array level 4 in structure "existing_state" packed
                                                                                  packed unaligned dcl 9514 in procedure
                                                                                  "merge_state"
bits                      0(25)        based           structure                level 2 in structure "array_ref" packed packed
                                                                                  unaligned dcl 1-155 in procedure
                                                                                  "fort_optimizing_cg"
bits                     41     001511 automatic       structure                array level 4 in structure "current_ms" packed
                                                                                  packed unaligned dcl 2714 in procedure
                                                                                  "interpreter"
bits                    112            based           structure                array level 4 in structure "machine_state" packed
                                                                                  packed unaligned dcl 1-620 in procedure
                                                                                  "fort_optimizing_cg"
bits                      0(25)        based           structure                level 2 in structure "header" packed packed
                                                                                  unaligned dcl 1-436 in procedure
                                                                                  "fort_optimizing_cg"
bits                      0(25)        based           structure                level 2 in structure "node" packed packed unaligned
                                                                                  dcl 1-63 in procedure "fort_optimizing_cg"
bits                      0(25)        based           structure                level 2 in structure "label" packed packed unaligned
                                                                                  dcl 1-530 in procedure "fort_optimizing_cg"
bits                      2            based           structure                level 2 in structure "range" packed packed unaligned
                                                                                  dcl 2-243 in procedure "fort_optimizing_cg"
bits                                   based           bit                      dcl 2702 in procedure "interpreter" set ref 4691
                                                                                  4691 4696 8326 8410 8529 10126 10177 12317 12473
                                                                                  12473 12473 12522 12547 12547* 12623
bits                     41            based           structure                array level 4 in structure "loop_state" packed
                                                                                  packed unaligned dcl 9839 in procedure
                                                                                  "enter_loop"
bits                     25            based           structure                level 2 in structure "loop" packed packed unaligned
                                                                                  dcl 2-100 in procedure "fort_optimizing_cg"
bits                                   parameter       structure                array level 2 in structure "regs" packed packed
                                                                                  unaligned dcl 7882 in procedure "get_free_reg"
bits                      4            based           structure                level 2 in structure "opt_statement" packed packed
                                                                                  unaligned dcl 2-176 in procedure
                                                                                  "fort_optimizing_cg"
bits                      0(25)        based           structure                level 2 in structure "char_constant" packed packed
                                                                                  unaligned dcl 1-316 in procedure
                                                                                  "fort_optimizing_cg"
bits                    112     001511 automatic       structure                array level 4 in structure "current_ms" packed
                                                                                  packed unaligned dcl 2714 in procedure
                                                                                  "interpreter"
bits                      0(25)        based           structure                level 2 in structure "temporary" packed packed
                                                                                  unaligned dcl 1-1005 in procedure
                                                                                  "fort_optimizing_cg" set ref 5504*
bits                      0(18)        based           bit(10)                  array level 2 in structure "macro_bits_inst" packed
                                                                                  packed unaligned dcl 2780 in procedure
                                                                                  "interpreter" ref 3381 3383 3400 3409
bits                      0(25)        based           structure                level 2 in structure "constant" packed packed
                                                                                  unaligned dcl 1-256 in procedure
                                                                                  "fort_optimizing_cg"
bits                     41            parameter       structure                array level 4 in structure "existing_state" packed
                                                                                  packed unaligned dcl 9514 in procedure
                                                                                  "merge_state"
bits_per_char                          constant        fixed bin(9,0)           initial dcl 4-68 ref 10934 11634
blank_common_name               000644 constant        char(8)                  initial dcl 4-79 ref 1816 2022
block_name               10            based           char                     level 2 in structure "header" dcl 1-436 in procedure
                                                                                  "fort_optimizing_cg" set ref 1811 1811 1816 1995
                                                                                  1995 2022 2256 13937 13937* 13940* 13942* 14135*
block_name                3(18)        based           char                     level 2 in structure "create_entry" packed packed
                                                                                  unaligned dcl 21-23 in procedure "code_generator"
                                                                                  set ref 2256*
block_size                             parameter       fixed bin(18,0)          dcl 5376 ref 5371 5378
block_type                      007126 automatic       bit(18)                  dcl 13958 set ref 13974* 13983* 13985* 14001* 14024
boffset                         000116 automatic       fixed bin(35,0)          dcl 13715 set ref 13752* 13754* 13754 13803 13808
                                                                                  13813 13818
bool                                                   builtin function         dcl 645 in procedure "code_generator" ref 7841 7841
bool                                                   builtin function         dcl 12-20 in procedure "create_constant" ref 12-54
brother                   3            based           pointer                  level 2 packed packed unaligned dcl 2-100 ref 10052
                                                                                  10058 12143 12149 12257 12263
bsize                           000124 automatic       fixed bin(18,0)          dcl 13717 set ref 13801* 13803 13803 13803 13806*
                                                                                  13808 13808 13808 13811* 13813 13816* 13818 13831
                                                                                  13855
bt                              006252 automatic       pointer                  dcl 12459 in procedure
                                                                                  "propagate_and_eliminate_assignment" set ref
                                                                                  12464* 12473 12480 12482 12522 12540 12540 12547
                                                                                  12547
bt                                     parameter       pointer                  dcl 27-132 in procedure "derive_insert_for_bt" ref
                                                                                  27-130 27-137 27-143 27-144 27-147 27-149
bt                              006204 automatic       pointer                  dcl 12307 in procedure
                                                                                  "check_comparisons_and_increments" set ref 12357*
                                                                                  12375 12375 12387 12409
bt                              006146 automatic       pointer                  dcl 12194 in procedure "allocate" set ref 12201*
                                                                                  12226 12226
bt_statement                    006466 automatic       fixed bin(18,0)          dcl 27-134 set ref 27-137* 27-138 27-147
btst                            006472 automatic       pointer                  dcl 27-135 set ref 27-138* 27-139 27-143 27-144
                                                                                  27-148
builtin                  10(32)        based           bit(1)                   level 4 packed packed unaligned dcl 1-844 set ref
                                                                                  1408
builtins                        000254 automatic       fixed bin(18,0)          array dcl 508 set ref 666* 800 1623* 1624 1634*
                                                                                  1642* 1643 1660* 1661 1667* 1667* 2872* 2873*
                                                                                  2874* 2875* 2876* 2881 2895 2905 2907* 2908 2917
                                                                                  2921 2923* 2924 2931 2934 2937 2939* 2940 2947
                                                                                  2949* 2950 3122 4773* 11481 11482 13027 13027
busy_on_exit             22            based           pointer                  level 2 in structure "flow_unit" packed packed
                                                                                  unaligned dcl 2-46 in procedure
                                                                                  "fort_optimizing_cg" ref 4696
busy_on_exit             22            based           pointer                  level 2 in structure "loop" packed packed unaligned
                                                                                  dcl 2-100 in procedure "fort_optimizing_cg" ref
                                                                                  4691 8410 8529 12473
bvalue                          005376 automatic       bit(72)                  dcl 10519 set ref 10521* 10522*
by_compiler               0(35)        based           bit(1)                   level 3 packed packed unaligned dcl 1-844 set ref
                                                                                  1626* 1645* 1676* 2455* 2942* 2953* 13287*
byte                                                   builtin function         dcl 645 ref 4824
c                               006262 automatic       fixed bin(18,0)          dcl 12460 in procedure
                                                                                  "propagate_and_eliminate_assignment" set ref
                                                                                  12471* 12473 12473 12473 12547 12547
c                               006520 automatic       pointer                  dcl 27-184 in procedure "put_in_loop_end" set ref
                                                                                  27-191* 27-192 27-193 27-194 27-203*
c                                      parameter       fixed bin(18,0)          dcl 6776 in procedure "c_a" ref 6771 6780 6813
c                               000162 automatic       pointer                  dcl 486 in procedure "code_generator" set ref 750*
                                                                                  751 752 867* 868 868 868 871 872 874 876 891* 892
                                                                                  892 892 895 900 901 902 906 908
c                               006362 automatic       pointer                  dcl 12651 in procedure "process_loop_end_lists" set
                                                                                  ref 12663* 12663* 12665 12666* 12667
c                               004247 automatic       fixed bin(18,0)          dcl 8194 in procedure "xr_man_add_const" set ref
                                                                                  8200* 8202
c                               006170 automatic       pointer                  dcl 12277 in procedure "alloc_inner" set ref 12281*
                                                                                  12281* 12282* 12285 12288* 12289 12290 12291
c                               004224 automatic       fixed bin(18,0)          dcl 8102 in procedure "xr_man_load_const" set ref
                                                                                  8104* 8106* 8118* 8118* 8123
c                               006124 automatic       pointer                  dcl 12162 in procedure "ok" set ref 12168* 12168*
                                                                                  12169* 12171
c                               004235 automatic       fixed bin(18,0)          dcl 8166 in procedure "const_in_xr" set ref 8168*
                                                                                  8174
c                               006206 automatic       pointer                  dcl 12307 in procedure
                                                                                  "check_comparisons_and_increments" set ref 12317*
                                                                                  12317* 12321* 12444
c                               006150 automatic       pointer                  dcl 12194 in procedure "allocate" set ref 12206*
                                                                                  12207 12212 12213 12221 12222
c_mult_offset                   005442 automatic       fixed bin(18,0)          dcl 10687 set ref 10761* 10763* 10845 10845 10931
                                                                                  10931
c_multiplier                    005440 automatic       fixed bin(18,0)          dcl 10687 set ref 10753* 10757* 10780 10781* 10781
                                                                                  10790 10822 10824 10824
c_off                                  parameter       fixed bin(18,0)          dcl 6007 ref 6001 6015
c_virtual_origin                005437 automatic       fixed bin(18,0)          dcl 10687 set ref 10749* 10780* 10780 10790 10803
                                                                                  10809 10811 10811
call_op                                constant        fixed bin(18,0)          initial dcl 4-197 ref 12491
case                            000123 automatic       fixed bin(18,0)          dcl 13717 in procedure "list_initialize_symbol" set
                                                                                  ref 13761* 13765* 13767* 13799 13833
case                            007057 automatic       fixed bin(18,0)          dcl 13596 in procedure "initialize_symbol" set ref
                                                                                  13639* 13643* 13645* 13678
cat_offset_temp                 001474 automatic       fixed bin(18,0)          dcl 2688 set ref 11247* 11292 11299* 11300 11302
                                                                                  11306* 11313* 11314 11317* 11318 11348 11348 11348
cat_result                             parameter       fixed bin(18,0)          dcl 11417 ref 11410 11421
cdt                             000714 automatic       fixed bin(4,0)           dcl 2542 set ref 3100* 3102
ceil                                                   builtin function         dcl 1798 ref 1820 1832
cg_globals                             based           structure                level 1 dcl 52
cg_struc_ptr                    000102 automatic       pointer                  dcl 36 set ref 66* 670 705 738 743 748 803* 3962
                                                                                  3969 4334 10487 10488 10490 10499 10500 10507
                                                                                  10508 10509
chain                                  based           structure                level 1 dcl 2-27 in procedure "fort_optimizing_cg"
                                                                                  set ref 27-34 27-34 27-34 27-37 27-38 27-38
chain                     2            based           pointer                  level 2 in structure "entry" dcl 1982 in procedure
                                                                                  "create_storage_entry" set ref 2034 2035 2041*
                                                                                  2041 2042* 2057 2061 2062 2064 2073* 2073 2076*
                                                                                  2128 2133 2164 2210 2224*
chain                                  parameter       fixed bin(18,0)          dcl 5756 in procedure "thread_temp" ref 5750 5763
                                                                                  5764
chain_head                      000106 automatic       pointer                  dcl 1972 set ref 2015* 2034 2049* 2056 2099* 2099*
                                                                                  2103 2119 2121 2122 2122 2125 2125 2128 2168*
                                                                                  2168* 2169 2206* 2208
char                                                   builtin function         dcl 12-21 in procedure "create_constant" ref 12-45
                                                                                  12-45
char                                                   builtin function         dcl 13-17 in procedure "create_node" ref 13-29 13-29
char                                                   builtin function         dcl 645 in procedure "code_generator" ref 1718 1718
                                                                                  1772 1772 1841 1841 1844 1844 1876 1876 1882 1882
                                                                                  2022 2022 2343 2343 5301 5301 6329 6329 27-54
                                                                                  27-54 27-122 27-122
char1                           000721 automatic       char(1)                  packed unaligned dcl 2544 set ref 4824* 4825* 4825*
char77_target                          based           char                     array packed unaligned dcl 13736 in procedure
                                                                                  "list_initialize_symbol" set ref 13848*
char77_target                          based           char                     array packed unaligned dcl 13614 in procedure
                                                                                  "initialize_symbol" set ref 13692*
char_constant                          based           structure                level 1 dcl 1-316 set ref 2907 2907
char_constant_length            000125 automatic       fixed bin(18,0)          unsigned dcl 1-378 set ref 2903* 2907 2907
char_constant_node              000751 constant        fixed bin(4,0)           initial dcl 4-87 set ref 2907* 3848 4043 4833 6250
                                                                                  11735 12706 13131
char_image                             based           char                     dcl 530 set ref 902*
char_length                            parameter       fixed bin(18,0)          dcl 5363 ref 5358 5366
char_mode                              constant        fixed bin(4,0)           initial dcl 4-106 ref 12-43 1494 2910 2926 4040 5365
                                                                                  5392 5570 5591 5808 6593 8721 10601 11573 12703
                                                                                  13128 13207 13286 13365
char_num                  1(18)        based           fixed bin(2,0)           level 3 in structure "node" packed packed unsigned
                                                                                  unaligned dcl 1-63 in procedure
                                                                                  "fort_optimizing_cg" set ref 3437 7216 7217* 7285*
                                                                                  11634
char_num                  1(18)        based           fixed bin(2,0)           level 3 in structure "symbol" packed packed unsigned
                                                                                  unaligned dcl 1-844 in procedure
                                                                                  "fort_optimizing_cg" set ref 1899* 3430 10634
                                                                                  13631 13754
char_num                  1(18)        based           fixed bin(2,0)           level 3 in structure "array_ref" packed packed
                                                                                  unsigned unaligned dcl 1-155 in procedure
                                                                                  "fort_optimizing_cg" set ref 3435 10641* 10642
char_num                  1(18)        based           fixed bin(2,0)           level 3 in structure "temporary" packed packed
                                                                                  unsigned unaligned dcl 1-1005 in procedure
                                                                                  "fort_optimizing_cg" set ref 11277 11280* 11281
char_num_hold                   004136 automatic       fixed bin(2,0)           dcl 7187 set ref 7216* 7246 7252 7261 7271 7285
char_overlay                           based           char(1)                  array packed unaligned dcl 13616 set ref 13632
char_size                10            based           fixed bin(20,0)          level 4 packed packed unsigned unaligned dcl 1-844
                                                                                  set ref 3940 4040 12703 13138 13291* 13638 13642
                                                                                  13760 13764
char_star_ndims                 000114 automatic       fixed bin(18,0)          dcl 13170 in procedure "make_symbol_descriptor" set
                                                                                  ref 13193* 13232* 13277 13277 13291 13292
char_star_ndims                 006751 automatic       fixed bin(18,0)          dcl 13319 in procedure "make_entry_descriptor" set
                                                                                  ref 13341* 13389* 13434 13434
char_target                            based           char                     array dcl 13734 in procedure
                                                                                  "list_initialize_symbol" set ref 13843*
char_target                            based           char                     array dcl 13612 in procedure "initialize_symbol" set
                                                                                  ref 13688*
char_temp                       001476 automatic       char(8)                  packed unaligned dcl 2690 set ref 4604* 4605 4605
                                                                                  4617* 4618 4618
char_units                             constant        fixed bin(3,0)           initial dcl 4-136 ref 1896 3425 5395 6593 7207 7226
                                                                                  7238 8721 10634 10639 10761 10925 11575 13209
                                                                                  13367 13629 13635 13754 13757
character                 0(32)        based           bit(1)                   level 4 in structure "header" packed packed
                                                                                  unaligned dcl 1-436 in procedure
                                                                                  "fort_optimizing_cg" ref 14129
character                10(25)        based           bit(1)                   level 5 in structure "symbol" packed packed
                                                                                  unaligned dcl 1-844 in procedure
                                                                                  "fort_optimizing_cg" set ref 13288* 13635 13757
character_operand         1            based           fixed bin(18,0)          level 2 unsigned dcl 1-605 ref 750
chars_per_dw                           constant        fixed bin(9,0)           initial dcl 4-68 ref 895 4611 4614 4614 4617 4618
                                                                                  4618
chars_per_word                  000747 constant        fixed bin(9,0)           initial dcl 4-68 ref 900 900 1898 1899 2913 2932
                                                                                  4598 4601 4601 4604 4605 4605 5367 5367 10634
                                                                                  10641 10642 10644 11277 11278 11280 11281 11283
                                                                                  11400 13186 13335 14102 14102 14129 14129
check_multiply           11(31)        based           bit(1)                   level 3 packed packed unaligned dcl 1-753 ref 4909
class                     1(33)        based           bit(3)                   level 2 in structure "definition" packed packed
                                                                                  unaligned dcl 8-12 in procedure
                                                                                  "fort_optimizing_cg" set ref 14223*
class                                  parameter       fixed bin(3,0)           dcl 14191 in procedure "generate_definition" ref
                                                                                  14188 14223 14225 14229 14234
cleanup                                                builtin function         dcl 645 ref 1112
cleanup_body_address            000160 automatic       fixed bin(18,0)          unsigned dcl 483 set ref 1673* 1674 1684* 1689* 4937
clength                         000100 automatic       fixed bin(18,0)          dcl 5351 set ref 5366* 5367 5394
clp                             000114 automatic       pointer                  dcl 1078 set ref 1674* 1675 1676 1677 1677 1677 1677
                                                                                  1677 1679 1680 1683*
cm                              000216 automatic       fixed bin(18,0)          dcl 2358 in procedure "get_array_size" set ref 2375*
                                                                                  2377 2378* 2378
cm                              006745 automatic       fixed bin(18,0)          dcl 13319 in procedure "make_entry_descriptor" set
                                                                                  ref 13392* 13394* 13398 13405* 13405
cm                              000107 automatic       fixed bin(18,0)          dcl 13170 in procedure "make_symbol_descriptor" set
                                                                                  ref 13235* 13237* 13241 13248* 13248
cmpc                                   constant        bit(10)                  initial dcl 6388 ref 6479
cmpx0                                  constant        fixed bin(18,0)          initial dcl 25-16 ref 8482 9435
cmpx_image                             based           complex float bin(27)    dcl 2709 set ref 2888*
cmpx_mode                       000747 constant        fixed bin(4,0)           initial dcl 4-106 set ref 1492 2889* 3481 3490
code                            001500 automatic       fixed bin(18,0)          level 2 in structure "base_man_args" dcl 2692
                                                                                  in procedure "interpreter" set ref 4729* 4736*
                                                                                  4747* 4760*
code                            000103 automatic       fixed bin(18,0)          dcl 7375 in procedure "base_man_load_large_base" set
                                                                                  ref 7380* 7382* 7384* 7392 7406* 7450 7453
code                                   parameter       fixed bin(18,0)          dcl 7797 in procedure "add_global_ptr" ref 7792 7801
code                            000110 automatic       fixed bin(18,0)          dcl 7824 in procedure "find_ptr" set ref 7835* 7841
                                                                                  7850 7862
code                                   parameter       fixed bin(18,0)          dcl 6938 in procedure "base_man_load_any_pr" ref
                                                                                  6935 6949
code                      0(09)        based           fixed bin(9,0)           level 2 in structure "pointer" packed packed
                                                                                  unsigned unaligned dcl 1-672 in procedure
                                                                                  "fort_optimizing_cg" set ref 4729 7850 7862*
code                                   parameter       fixed bin(18,0)          dcl 6776 in procedure "c_a" ref 6771 6782
code                            005156 automatic       fixed bin(18,0)          dcl 10015 in procedure "assign_register" set ref
                                                                                  10029* 10079 10086 10089
code                                   parameter       fixed bin(18,0)          dcl 6827 in procedure "c_a_18" ref 6822 6841
code                            000100 automatic       fixed bin(18,0)          dcl 7667 in procedure "find_global_base" set ref
                                                                                  7675* 7680
code                            004166 automatic       fixed bin(18,0)          dcl 7720 in procedure "base_man_dispatch" set ref
                                                                                  7726* 7730 7730 7732 7738 7741 7744*
code_emitted                    005434 automatic       bit(1)                   dcl 10683 set ref 10733* 10747* 10776 10784* 10835
                                                                                  11034* 11045 11075
common                    0(20)        based           bit(1)                   level 3 packed packed unaligned dcl 21-23 set ref
                                                                                  2187 2248*
common_chain              2            based           fixed bin(18,0)          level 2 packed packed unsigned unaligned dcl 1-753
                                                                                  ref 1291
common_length                   000122 automatic       fixed bin(35,0)          dcl 2093 set ref 2103* 2129
common_link               3            based           fixed bin(18,0)          level 2 packed packed unsigned unaligned dcl 21-23
                                                                                  set ref 2122* 2187* 2187
compare_inst                    000506 constant        fixed bin(18,0)          initial array dcl 25-16 ref 3881 4425 9430
computed                 30            based           pointer                  level 2 packed packed unaligned dcl 2-100 ref 8334
                                                                                  12628 12632
computed_virtual_origin         001415 automatic       fixed bin(18,0)          array dcl 2555 set ref 11113 11121 11124*
con                             000320 automatic       fixed bin(18,0)          dcl 534 set ref 866* 866* 867* 890* 890* 891*
const                           006747 automatic       fixed bin(18,0)          dcl 13319 in procedure "make_entry_descriptor" set
                                                                                  ref 13432* 13434* 13438 13442 13446
const                           000106 automatic       pointer                  dcl 6008 in procedure "emit_c_a_const" set ref 6015*
                                                                                  6017 6019 6021*
const                           000112 automatic       fixed bin(18,0)          dcl 13170 in procedure "make_symbol_descriptor" set
                                                                                  ref 13275* 13277* 13293 13301
const                           005655 automatic       fixed bin(18,0)          dcl 11543 in procedure "make_descriptor" set ref
                                                                                  11586* 11599* 11609
constant                               based           structure                level 1 dcl 1-256 set ref 12-74 12-74
constant_address                005416 automatic       structure                level 1 dcl 10540
constant_count           77            based           fixed bin(17,0)          array level 3 dcl 47 set ref 12-87* 12-87
constant_info            77            based           structure                array level 2 dcl 47
constant_node                   000752 constant        fixed bin(4,0)           initial dcl 4-87 set ref 12-74* 3848 4576 4627 4822
                                                                                  6248 8470 8511 9252 12509 12637 12758 12770 12874
                                                                                  12883 12903
constant_type                          constant        fixed bin(4,0)           initial dcl 4-120 ref 12-82 2909 10584 11424
constant_vo                     000223 automatic       bit(1)                   dcl 2360 set ref 2407* 2408 2409* 2411
conv_round             2500            based           entry variable           array level 2 dcl 47 ref 3102
coord                                  parameter       fixed bin(18,0)          dcl 10161 ref 10158 10174
coordinate               14(25)        based           fixed bin(17,0)          level 2 in structure "symbol" packed packed
                                                                                  unaligned dcl 1-844 in procedure
                                                                                  "fort_optimizing_cg" set ref 4690 8326 8326 8410
                                                                                  8529 10126 10126 12317 12317 12471 12522 12623
                                                                                  12623
coordinate                0(18)        based           fixed bin(18,0)          level 2 in structure "operator" packed packed
                                                                                  unsigned unaligned dcl 2-144 in procedure
                                                                                  "fort_optimizing_cg" ref 8334 8334 12632 12632
copy                                                   builtin function         dcl 12845 in procedure "lhs_fld" ref 12905
copy                                                   builtin function         dcl 645 in procedure "code_generator" ref 2124 2241
                                                                                  2243 2273
count                                  based           bit(9)                   level 2 in structure "acc" packed packed unaligned
                                                                                  dcl 14057 in procedure "name_assign" set ref 14078
                                                                                  14098*
count                           000104 automatic       fixed bin(18,0)          dcl 5617 in procedure "free_temp" set ref 5629*
                                                                                  5631* 5632
count                           000102 automatic       fixed bin(18,0)          dcl 7887 in procedure "get_free_reg" set ref 7905*
                                                                                  7907* 7909 7911 7916
count                           000124 automatic       fixed bin(18,0)          dcl 7944 in procedure "get_usage_count" set ref
                                                                                  7958* 7967* 7967 7972
count                     1(18)        based           fixed bin(18,0)          level 2 in structure "pointer" packed packed
                                                                                  unsigned unaligned dcl 1-672 in procedure
                                                                                  "fort_optimizing_cg" set ref 7803 7815* 7815
                                                                                  11989* 12102 12102
count_is_zero                   005310 automatic       bit(1)                   dcl 10302 set ref 10307* 10309 10327* 10329 10338*
                                                                                  10340
count_type                             constant        fixed bin(4,0)           initial dcl 4-120 ref 3407
create_char_constant   1524            based           entry variable           level 2 dcl 47 ref 4605 4618 4825 4825 13277 13434
create_constant_block
                         34            based           entry variable           level 2 dcl 52 ref 4334
create_entry                           based           structure                level 1 unaligned dcl 21-23 set ref 1959 2166
create_init_entry                      based           structure                level 1 unaligned dcl 21-61 set ref 13853
cs                                     parameter       pointer                  dcl 842 in procedure "get_subr_options" ref 836 844
                                                                                  845 846 847 848
cs                              000614 automatic       pointer                  dcl 1021 in procedure "restore_after_analysis" set
                                                                                  ref 1034* 1035 1039
cs                              000104 automatic       pointer                  dcl 13169 in procedure "make_symbol_descriptor" set
                                                                                  ref 13297* 13298 13299
cs                              000106 automatic       pointer                  dcl 1078 in procedure "assign_storage" set ref 1133*
                                                                                  1134* 1138 1142 1150 1154 1204 1204 1206 1207 1219
                                                                                  1276 1276 1278 1279 1291 1306 1306 1308 1309 1321
                                                                                  1339 1339 1339 1343 1344 1344 1345 1345 1369 1369
                                                                                  1371 1372 1380 1391 1578 1579 1579 1604 1604 1606
                                                                                  1607 1614 1728* 1729* 1733 1739 1759 1772 2296*
                                                                                  2297* 2300 2300 2302 2322 2326 2341 2343 2396*
                                                                                  2414* 2430*
cs                                     parameter       pointer                  dcl 2473 in procedure "create_rel_constant" ref 2468
                                                                                  2487 2489 2489 2491 2492
cs                              000642 automatic       pointer                  dcl 2513 in procedure "interpreter" set ref 3073*
                                                                                  3073* 3435 3581 3592 4020 4204 4206 4889 4904 4909
                                                                                  5075 5395 7518 7520 7560 7562 11942 11970* 12993*
                                                                                  12994* 12996 12997 12998 12999 13006 13021 13023
                                                                                  13026 13030
cs                                     parameter       pointer                  dcl 2450 in procedure "create_automatic_integer" ref
                                                                                  2443 2459 2460
csize                           007060 automatic       fixed bin(18,0)          dcl 13596 in procedure "initialize_symbol" set ref
                                                                                  13638* 13642* 13688 13688 13688 13692 13692 13692
csize                           004051 automatic       fixed bin(18,0)          dcl 6505 in procedure "get_eis_length" set ref 6514*
                                                                                  6515 6515 6518 6518 6518 6520 6520
csize                           005604 automatic       fixed bin(18,0)          dcl 11365 in procedure "get_cat_alloc_length" set
                                                                                  ref 11369* 11370 11376 11385* 11386 11389
csize                           005415 automatic       fixed bin(18,0)          dcl 10538 in procedure "optimized_subscript" set ref
                                                                                  10586* 10587 10593 10603* 10604 10604 10608
csize                           005657 automatic       fixed bin(18,0)          dcl 11543 in procedure "make_descriptor" set ref
                                                                                  11577* 11578 11578
csize                           006752 automatic       fixed bin(18,0)          dcl 13319 in procedure "make_entry_descriptor" set
                                                                                  ref 13369* 13370 13370
csize                           000115 automatic       fixed bin(18,0)          dcl 13170 in procedure "make_symbol_descriptor" set
                                                                                  ref 13211* 13212 13212
csize                                  parameter       fixed bin(18,0)          dcl 8192 in procedure "xr_man_add_const" ref 8186
                                                                                  8200
csize                           000125 automatic       fixed bin(18,0)          dcl 13717 in procedure "list_initialize_symbol" set
                                                                                  ref 13760* 13764* 13811 13816 13843 13843 13843
                                                                                  13848 13848 13848
csize                                  parameter       fixed bin(18,0)          dcl 8099 in procedure "xr_man_load_const" ref 8094
                                                                                  8104
csize                           005562 automatic       fixed bin(18,0)          dcl 11263 in procedure "continue_cat" set ref 11270*
                                                                                  11271 11277 11286* 11286 11303* 11304* 11315*
                                                                                  11316*
csp                             007014 automatic       pointer                  dcl 13456 set ref 13464* 13468 13476 13487 13495
                                                                                  13500* 13502 13520* 13522 13524 13540
cur_frame                       000636 automatic       pointer                  dcl 2510 set ref 2979* 2981* 2984* 3144 3154 3163
                                                                                  3263 3287 3350 3353 3353 3355 3355 3355 3357 3357
                                                                                  3361 3365 3365 3366 3366 3972 3973* 3973 3981 3983
                                                                                  5175* 5175 5176 5236 5237 5264 5264* 5264 5266*
                                                                                  5270 5272 5275 5276 5277 5278 5297 5306 5306 5310
cur_lp                          006202 automatic       pointer                  dcl 12304 in procedure
                                                                                  "check_comparisons_and_increments" set ref 12313*
                                                                                  12317 12317 12352
cur_lp                          000650 automatic       pointer                  dcl 2517 in procedure "interpreter" set ref 3554*
                                                                                  4061* 4067 4072* 4074* 4796 5848 6633 6730 7304
                                                                                  7356 8326 8334 8410 8410 8421* 8529 8529 8548 8548
                                                                                  9583* 10126 10418 10418 12018 12020 12025 12027*
                                                                                  12029* 12030 12030 12036 12038* 12040* 12041 12041
                                                                                  12046 12991*
cur_lp                                 parameter       pointer                  dcl 11871 in procedure "reset_scan" set ref 11866
                                                                                  11890 11930 11930 11930 11932 11932 11932 11946*
                                                                                  11947
cur_pos                         000100 automatic       fixed bin(18,0)          unsigned dcl 1921 set ref 1948* 1952 2160* 2161
cur_statement                          parameter       fixed bin(18,0)          dcl 11871 in procedure "reset_scan" set ref 11866
                                                                                  11951* 11952
cur_statement            67            based           fixed bin(18,0)          level 2 in structure "shared_globals" dcl 47
                                                                                  in procedure "fort_optimizing_cg" set ref 660*
                                                                                  2868* 4049* 4061* 13072* 13072* 13075*
cur_subprogram           71            based           fixed bin(18,0)          level 2 dcl 47 set ref 1033* 1033* 1034* 1132* 1132*
                                                                                  1133* 1727* 1727* 1728* 2295* 2295* 2296* 2866*
                                                                                  4020* 4021 12993 13297
cur_subr                        007012 automatic       fixed bin(18,0)          dcl 13455 set ref 13463* 13463* 13464* 13499* 13499*
                                                                                  13500* 13519* 13519* 13520*
current_def_offset        7     000130 automatic       fixed bin(18,0)          level 2 dcl 58 set ref 796*
current_link_offset      10     000130 automatic       fixed bin(18,0)          level 2 dcl 58 set ref 797*
current_ms                      001511 automatic       structure                level 1 dcl 2714 set ref 2963* 9503* 9697* 9788*
                                                                                  10429* 13108*
current_offset                  000123 automatic       fixed bin(35,0)          dcl 2094 set ref 2135* 2137* 2141 2150 2152*
current_text_offset       6     000130 automatic       fixed bin(18,0)          level 2 dcl 58 set ref 795*
currentsize                                            builtin function         dcl 645 in procedure "code_generator" ref 13853
currentsize                                            builtin function         dcl 1926 in procedure "create_storage_entry" ref
                                                                                  1959 2166
d                               005426 automatic       pointer                  dcl 10681 in procedure "get_param_array_size" set
                                                                                  ref 10706* 10708 10712 10727 10729 10729 10730
                                                                                  10731 10736 10738 10778 10780 10781 10785 10790
                                                                                  10790 10792 10793 10857 10857 10864 10864 10866
                                                                                  10866 10883 10891 10891 10893 10899 10899 10899
                                                                                  10901 10912 10919 10958 10960 10962 10970 10972
                                                                                  10983 10991 10994 10995 10999 11003 11006 11006
                                                                                  11007 11008 11011 11015 11018 11021 11023
d                               006742 automatic       pointer                  dcl 13318 in procedure "make_entry_descriptor" set
                                                                                  ref 13347* 13350 13350* 13350 13354 13355 13385*
                                                                                  13386 13401 13403 13404 13405 13415 13415 13420
                                                                                  13420 13422
d                               000102 automatic       pointer                  dcl 13169 in procedure "make_symbol_descriptor" set
                                                                                  ref 13228* 13229 13244 13246 13247 13248 13258
                                                                                  13258 13263 13263 13265 13285* 13286 13287 13288
                                                                                  13289 13290 13291 13292 13293
d                               000214 automatic       pointer                  dcl 2357 in procedure "get_array_size" set ref 2364*
                                                                                  2368 2368 2369 2370 2376 2377 2378 2381 2382 2394
                                                                                  2396 2397 2398 2401 2405 2407 2409 2414 2415 2416
                                                                                  2422 2424 2425 2425 2425 2425 2428 2428 2428 2428
                                                                                  2430 2432
d                               006055 automatic       fixed bin(17,0)          dcl 12060 in procedure "sort_globals" set ref 12065*
                                                                                  12067 12068* 12068 12070 12071 12073 12083
d                               005514 automatic       pointer                  dcl 11100 in procedure "get_virtual_origin" set ref
                                                                                  11104* 11109 11113 11116 11124 11127
data                      2            based           structure                level 2 dcl 2-234
data_size                       000104 automatic       fixed bin(17,0)          dcl 12-22 set ref 12-47* 12-49 12-87 12-87 12-89
                                                                                  12-89 12-91 12-93
data_type                              parameter       fixed bin(4,0)           dcl 12-15 in procedure "create_constant" ref 12-13
                                                                                  12-40
data_type                              parameter       fixed bin(4,0)           dcl 5349 in procedure "assign_temp" ref 5344 5353
data_type                 1            based           fixed bin(4,0)           array level 3 in structure "arg_desc" packed packed
                                                                                  unsigned unaligned dcl 1-130 in procedure
                                                                                  "fort_optimizing_cg" set ref 11700* 11737 11809
                                                                                  11812* 11834*
data_type                 0(05)        based           fixed bin(4,0)           level 2 in structure "node" packed packed unsigned
                                                                                  unaligned dcl 1-63 in procedure
                                                                                  "fort_optimizing_cg" ref 12-65 4037 4037 4037 4040
                                                                                  4822 6593 8721 9274 9274 9277 11571 11700 11737
                                                                                  12701 12701 12701 12703 12738 12744 12848 12854
                                                                                  13128
data_type                 0(05)        based           fixed bin(4,0)           level 2 in structure "char_constant" packed packed
                                                                                  unsigned unaligned dcl 1-316 in procedure
                                                                                  "fort_optimizing_cg" set ref 2910*
data_type                 0(05)        based           fixed bin(4,0)           level 2 in structure "temporary" packed packed
                                                                                  unsigned unaligned dcl 1-1005 in procedure
                                                                                  "fort_optimizing_cg" set ref 5384* 5570 5572 5591
                                                                                  5808* 12603*
data_type                 0(18)        based           fixed bin(9,0)           array level 2 in structure "macro_dt_inst" packed
                                                                                  packed unaligned dcl 2774 in procedure
                                                                                  "interpreter" ref 3037 3078 3101 3316 5327 10488
                                                                                  10508
data_type                 0(05)        based           fixed bin(4,0)           level 2 in structure "constant" packed packed
                                                                                  unsigned unaligned dcl 1-256 in procedure
                                                                                  "fort_optimizing_cg" set ref 12-81* 3100 4576 4576
                                                                                  4630 9252
data_type                 0(05)        based           fixed bin(4,0)           level 2 in structure "array_ref" packed packed
                                                                                  unsigned unaligned dcl 1-155 in procedure
                                                                                  "fort_optimizing_cg" set ref 2926* 10601
data_type                 0(05)        based           fixed bin(4,0)           level 2 in structure "symbol" packed packed unsigned
                                                                                  unaligned dcl 1-844 in procedure
                                                                                  "fort_optimizing_cg" set ref 1492 1494 1568 2454*
                                                                                  2952* 3378 3471 3473 3498 11812 13205 13286* 13363
                                                                                  13645 13767
data_type_size                  000635 constant        fixed bin(17,0)          initial array dcl 4-115 ref 12-43 12-47 1568 3084
                                                                                  5354 13645 13767
datum                     2            based           bit                      level 2 packed packed unaligned dcl 21-61 set ref
                                                                                  13835 13839 13843 13848
debugging               113(16)        based           structure                level 4 in structure "shared_globals" packed packed
                                                                                  unaligned dcl 47 in procedure "fort_optimizing_cg"
debugging                11(16)        based           structure                level 3 in structure "subprogram" packed packed
                                                                                  unaligned dcl 1-753 in procedure
                                                                                  "fort_optimizing_cg"
decimal                                                builtin function         dcl 12-23 ref 12-45 12-45
decl_vers                              based           fixed bin(17,0)          level 2 dcl 16-10 set ref 811*
decrement_address               004000 automatic       bit(1)                   packed unaligned dcl 6083 set ref 6130* 6135* 6144
                                                                                  6161
def_base                        000220 automatic       pointer                  dcl 498 set ref 769* 13891 13905 14019 14090 14132
                                                                                  14144 14208 14215 14269
def_header                             based           structure                level 1 dcl 13871
def_offset                1            based           bit(18)                  level 2 packed packed unaligned dcl 15-52 set ref
                                                                                  13880*
def_pool                        000273 automatic       fixed bin(18,0)          array dcl 532 set ref 662* 14166 14167 14167 14174*
def_pos                         000173 automatic       fixed bin(18,0)          dcl 488 set ref 667* 790 796 815 13895* 14019 14020
                                                                                  14035 14042 14045* 14045 14090 14101 14102* 14102
                                                                                  14132 14132 14140* 14140 14140 14143 14174 14177*
                                                                                  14177 14178* 14178 14180* 14180 14207 14237* 14237
def_ptr                         007232 automatic       pointer                  dcl 14195 in procedure "generate_definition" set ref
                                                                                  14208* 14211 14213 14217 14219 14220 14221 14223
                                                                                  14228 14229
def_ptr                         007252 automatic       pointer                  dcl 14247 in procedure "gen_entry_defs" set ref
                                                                                  14269* 14274
def_ptr                         007130 automatic       pointer                  dcl 13960 in procedure "compile_link" set ref 14019*
                                                                                  14024 14025 14029 14030 14035
def_reloc_base                  000232 automatic       pointer                  dcl 499 set ref 770* 794 13892 14020 14209
def_reloc_base_ptr        4     000130 automatic       pointer                  level 2 dcl 58 set ref 794*
def_reloc_ptr                   007134 automatic       pointer                  dcl 13960 in procedure "compile_link" set ref 14020*
                                                                                  14026 14031 14033 14036
def_reloc_ptr                   007234 automatic       pointer                  dcl 14195 in procedure "generate_definition" set ref
                                                                                  14209* 14232 14233 14234
defblock                  2(18)        based           bit(18)                  level 2 packed packed unaligned dcl 9-3 set ref
                                                                                  13905*
definition                             based           structure                level 1 dcl 8-12
definition_length         4(18)        based           bit(18)                  level 2 packed packed unaligned dcl 16-10 set ref
                                                                                  815*
definition_offset         4            based           bit(18)                  level 2 packed packed unaligned dcl 16-10 set ref
                                                                                  814*
defrel                          000177 automatic       fixed bin(18,0)          dcl 488 set ref 768* 769 770 790 814 13880 14082
depth                     1            based           fixed bin(18,0)          level 2 dcl 2-100 ref 11890 11890
desc                            007246 automatic       fixed bin(18,0)          dcl 14246 in procedure "gen_entry_defs" set ref
                                                                                  14280* 14281
desc                            005654 automatic       fixed bin(18,0)          dcl 11543 in procedure "make_descriptor" set ref
                                                                                  11593* 11594 11596 11600* 11606 11607 11609* 11611
desc                            000710 automatic       fixed bin(18,0)          dcl 2540 in procedure "interpreter" set ref 4349*
                                                                                  4358*
desc                            005443 automatic       fixed bin(18,0)          dcl 10687 in procedure "get_param_array_size" set
                                                                                  ref 10696* 10702 10702 10702* 10717 10727 10761
                                                                                  10845 10845* 10848* 10925 10931* 10933* 10935*
                                                                                  10960 10963* 10981 10984* 10992 10992* 11001
                                                                                  11004* 11013 11016* 11019 11019*
desc                            005642 automatic       fixed bin(18,0)          dcl 11518 in procedure "copy_array_desc_template"
                                                                                  set ref 11521* 11523 11524*
desc                            000110 automatic       fixed bin(18,0)          dcl 13170 in procedure "make_symbol_descriptor" set
                                                                                  ref 13284* 13285 13298 13299 13301* 13305 13309
desc                            005630 automatic       fixed bin(18,0)          dcl 11460 in procedure "get_param_char_size" set ref
                                                                                  11464* 11470 11470 11470* 11476 11488 11494*
                                                                                  11495* 11502 11503*
desc_image                             based           char                     packed unaligned dcl 13335 in procedure
                                                                                  "make_entry_descriptor" set ref 13434*
desc_image                             based           char                     packed unaligned dcl 13186 in procedure
                                                                                  "make_symbol_descriptor" set ref 13277* 13291
desc_no                                parameter       fixed bin(18,0)          dcl 6227 ref 6219 6264 6276 6279 6279
desc_temp_chain                 000672 automatic       fixed bin(18,0)          unsigned dcl 2536 set ref 2961* 4370 4372 4373*
                                                                                  11606 11607*
descriptor                      000117 automatic       structure                level 1 dcl 13173 in procedure
                                                                                  "make_symbol_descriptor" set ref 13191* 13277
                                                                                  13291
descriptor               11(10)        based           bit(1)                   level 3 in structure "symbol" packed packed
                                                                                  unaligned dcl 1-844 in procedure
                                                                                  "fort_optimizing_cg" set ref 2955* 6674
descriptor                             based           structure                array level 1 dcl 6380 in procedure "emit_eis" set
                                                                                  ref 6451
descriptor                      005661 automatic       structure                level 1 dcl 11546 in procedure "make_descriptor" set
                                                                                  ref 11556*
descriptor                      006754 automatic       structure                level 1 dcl 13322 in procedure
                                                                                  "make_entry_descriptor" set ref 13339* 13434
descriptor_mask_addr            000347 constant        bit(36)                  initial dcl 2678 set ref 11483* 11598*
descriptor_ptr                         constant        fixed bin(18,0)          initial dcl 2599 ref 7560
descriptor_relp           0(18)        based           fixed bin(18,0)          array level 2 packed packed unsigned unaligned
                                                                                  dcl 586 set ref 4113* 4115 14280 14281*
descriptor_type_word            000345 automatic       structure                array level 1 dcl 628 set ref 11568 11572 13202
                                                                                  13206 13360 13364
dest                            004302 automatic       fixed bin(18,0)          dcl 8382 set ref 8390* 8391 8395* 8403* 8405* 8410*
                                                                                  8423* 8428* 8429* 8440*
dest_p                          004310 automatic       pointer                  dcl 8387 set ref 8391* 8395 8398 8410 8421*
dfstr                                  constant        fixed bin(17,0)          initial dcl 6182 ref 6212
diff                            000112 automatic       fixed bin(18,0)          dcl 6947 set ref 6951* 6977* 7052 7052* 7052*
dim                                                    builtin function         dcl 7833 in procedure "find_ptr" ref 7842
dim                       5            based           structure                array level 2 in structure "dimension" dcl 1-383
                                                                                  in procedure "fort_optimizing_cg"
dim_no                                 parameter       fixed bin(18,0)          dcl 10949 ref 10942 10952
dimension                12(25)        based           fixed bin(18,0)          level 2 in structure "symbol" packed packed unsigned
                                                                                  unaligned dcl 1-844 in procedure
                                                                                  "fort_optimizing_cg" set ref 1442 2364 3951 4138
                                                                                  10706 11104 11678 13228 13385
dimension                              based           structure                level 1 dcl 1-383 in procedure "fort_optimizing_cg"
dimensioned              10(35)        based           bit(1)                   level 4 packed packed unaligned dcl 1-844 set ref
                                                                                  1487 1562 1905 3416 4191 7112 7128 11476 11491
                                                                                  11678 11701 11745 11813 13226 13383 13647 13769
directable                0(18) 000024 external static bit(1)                   array level 2 packed packed unaligned dcl 2578 ref
                                                                                  6105 6256 6347
discard                         000674 automatic       fixed bin(18,0)          dcl 2539 set ref 4466* 4468* 4519
divide                                                 builtin function         dcl 645 ref 760 790 808 900 989 1421 1650 1681 1697
                                                                                  1898 3119 5056 5367 10642 10644 11281 11283 12068
                                                                                  13803 13808 13811 13813 14102 14129 14252
do_rounding                     000252 automatic       bit(1)                   dcl 505 in procedure "code_generator" set ref 844*
                                                                                  4413 4494 4652 8974 9068 9115 9346
do_rounding              11(28)        based           bit(1)                   level 3 in structure "subprogram" packed packed
                                                                                  unaligned dcl 1-753 in procedure
                                                                                  "fort_optimizing_cg" ref 844
dollar_name                     007141 automatic       char(32)                 dcl 13965 set ref 13992* 13993* 14004* 14005*
dominator                 4            based           pointer                  level 2 packed packed unaligned dcl 2-46 ref 10179
dont_update               0(22)        based           bit(1)                   level 3 in structure "temporary" packed packed
                                                                                  unaligned dcl 1-1005 in procedure
                                                                                  "fort_optimizing_cg" set ref 5388* 5586* 5679*
dont_update               0(22)        based           bit(1)                   level 3 in structure "array_ref" packed packed
                                                                                  unaligned dcl 1-155 in procedure
                                                                                  "fort_optimizing_cg" set ref 10555* 11179*
dont_update               0(22)        based           bit(1)                   level 3 in structure "node" packed packed unaligned
                                                                                  dcl 1-63 in procedure "fort_optimizing_cg" ref
                                                                                  8145 8854
double_target                          based           bit(72)                  array dcl 13610 in procedure "initialize_symbol" set
                                                                                  ref 13684*
double_target                          based           bit(72)                  array dcl 13732 in procedure
                                                                                  "list_initialize_symbol" set ref 13839*
dp_image                               based           float bin(63)            dcl 2708 set ref 2885*
dp_mode                         000753 constant        fixed bin(4,0)           initial dcl 4-106 set ref 2874* 2886* 4576
dt                              000715 automatic       fixed bin(4,0)           dcl 2542 in procedure "interpreter" set ref 3037*
                                                                                  3040 3040* 3040* 3078* 3081 3083* 3083* 3084 3101*
                                                                                  3102 3103* 3261* 3271* 3498* 3501 3501 3507
dt                              000101 automatic       fixed bin(18,0)          dcl 5351 in procedure "assign_temp" set ref 5353*
                                                                                  5354 5365* 5380* 5384 5392
dt                              005656 automatic       fixed bin(18,0)          dcl 11543 in procedure "make_descriptor" set ref
                                                                                  11571* 11572 11573
dt                              000111 automatic       fixed bin(18,0)          dcl 13170 in procedure "make_symbol_descriptor" set
                                                                                  ref 13205* 13206 13207
dt                              006746 automatic       fixed bin(18,0)          dcl 13319 in procedure "make_entry_descriptor" set
                                                                                  ref 13363* 13364 13365
dt1                             000716 automatic       fixed bin(4,0)           dcl 2542 set ref 3471* 3475 3478 3481 3493
dt2                             000717 automatic       fixed bin(4,0)           dcl 2542 set ref 3473* 3484 3487 3490 3493
dt_from_reg                     000400 constant        fixed bin(4,0)           initial array dcl 2614 ref 3261 3881 9430
dummy                                  constant        fixed bin(4,0)           initial dcl 4-120 ref 1625 1644 1675 2941
e                               005732 automatic       fixed bin(17,0)          dcl 11781 set ref 11785* 11786 11786 11787* 11787
                                                                                  11789
eaq                       0(15)        based           bit(1)                   level 4 in structure "symbol" packed packed
                                                                                  unaligned dcl 1-844 in procedure
                                                                                  "fort_optimizing_cg" set ref 8636
eaq                       2     001511 automatic       structure                array level 3 in structure "current_ms" dcl 2714
                                                                                  in procedure "interpreter" set ref 3197 8658 8824
                                                                                  9176 9533 9590 10262 10305
eaq                       2     004574 automatic       structure                array level 3 in structure "new_state" dcl 9514
                                                                                  in procedure "merge_state"
eaq                       0(15)        based           bit(1)                   level 4 in structure "temporary" packed packed
                                                                                  unaligned dcl 1-1005 in procedure
                                                                                  "fort_optimizing_cg" set ref 3195 3205* 3206* 4481
eaq                       2            parameter       structure                array level 3 in structure "existing_state" dcl 9514
                                                                                  in procedure "merge_state"
eaq                       0(15)        based           bit(1)                   level 4 in structure "node" packed packed unaligned
                                                                                  dcl 1-63 in procedure "fort_optimizing_cg" set ref
                                                                                  3453 3829 3829 3839 3839 3848 3848 6518 6576 8034
                                                                                  8656 8771 8821 8870* 8883* 8966 9040* 9128* 9170
                                                                                  9322* 9535* 9610* 9717*
eaq                       2            parameter       structure                array level 3 in structure "affected_ms" dcl 10301
                                                                                  in procedure "drop_all_ms_ref_counts"
eaq                             000462 constant        fixed bin(18,0)          initial dcl 25-16 in procedure "interpreter" set ref
                                                                                  8435*
eaq_name                  0(22)        based           fixed bin(5,0)           array level 2 in structure "macro_instruction"
                                                                                  packed packed unaligned dcl 2758 in procedure
                                                                                  "interpreter" set ref 3157 3456 3458 3528 3817
                                                                                  3820 3872 3888 3893 3913 4401 4585 4655
eaq_name                        000711 automatic       fixed bin(18,0)          dcl 2540 in procedure "interpreter" set ref 3455*
                                                                                  3456 3458 3528* 3529 3820* 3829 3839 3839 3866*
                                                                                  3913* 3915 4401* 4402 4413 4413 4413 4413 4420
                                                                                  4425 4486* 4488 4491* 4494 4496 4655* 4656 4658
eaq_name                        004507 automatic       fixed bin(18,0)          dcl 9149 in procedure "load" set ref 9151* 9153 9153
                                                                                  9167 9183 9183 9183 9187 9193 9215 9231 9233 9233*
                                                                                  9236*
eaq_name                        004541 automatic       fixed bin(18,0)          dcl 9339 in procedure "store" set ref 9342* 9346
                                                                                  9348 9355 9362*
eaq_name_to_reg                 000354 constant        fixed bin(17,0)          initial array dcl 2617 ref 3281 3529 3873 3915 4402
                                                                                  4658 8801 8857 9167 9431
eax0                                   constant        fixed bin(18,0)          initial dcl 25-16 ref 8034 8118 8210 8281
edge                                   based           structure                level 1 dcl 2-33
element_count             2            based           fixed bin(24,0)          level 2 dcl 1-383 ref 2368
element_size             15(07)        based           fixed bin(17,0)          level 2 packed packed unaligned dcl 1-844 set ref
                                                                                  1196 1564 1747 2311 2318 2368 2375 2456* 10659
                                                                                  10729 10739 10753 13235 13237 13292* 13392 13394
eligible_ind_var_op_var
                         37            based           pointer                  level 2 packed packed unaligned dcl 2-100 ref 12317
empty_reg                              parameter       fixed bin(3,0)           dcl 7882 ref 7877 7892 7892 7892 7892
end_external_list               000206 automatic       fixed bin(18,0)          dcl 491 set ref 694* 13920
end_input_to             10(18)        based           fixed bin(18,0)          level 2 packed packed unsigned unaligned dcl 1-1005
                                                                                  set ref 27-79 27-82 27-85* 27-269* 27-273*
end_offset                      000106 automatic       fixed bin(35,0)          dcl 13567 in procedure "list_initialize" set ref
                                                                                  13572* 13578*
end_offset                             parameter       fixed bin(35,0)          dcl 13708 in procedure "list_initialize_symbol" set
                                                                                  ref 13700 13824 13828 13855*
ent_name                        007125 automatic       bit(18)                  dcl 13958 set ref 13976* 14000* 14005* 14011* 14013
                                                                                  14030
ent_pos                         007256 automatic       fixed bin(18,0)          dcl 14249 set ref 14256* 14260 14264 14264 14266
                                                                                  14268 14271 14278
entry                                  based           structure                level 1 unaligned dcl 1982 in procedure
                                                                                  "create_storage_entry" set ref 2211 2222
entry                           000022 external static fixed bin(17,0)          array level 2 in structure
                                                                                  "fort_opt_macros_$operator_table" packed packed
                                                                                  unaligned dcl 2574 in procedure "interpreter" ref
                                                                                  3311
entry                     1(20)        based           bit(1)                   level 3 in structure "definition" packed packed
                                                                                  unaligned dcl 8-12 in procedure
                                                                                  "fort_optimizing_cg" set ref 14229*
entry                           000020 external static fixed bin(17,0)          array level 2 in structure
                                                                                  "fort_opt_macros_$interpreter_macros" packed
                                                                                  packed unaligned dcl 2570 in procedure
                                                                                  "interpreter" ref 5232
entry_info                7            based           fixed bin(18,0)          level 2 packed packed unsigned unaligned dcl 1-753
                                                                                  set ref 7520 7562 13026*
entry_info_size                 000750 constant        fixed bin(18,0)          initial dcl 2676 set ref 13027* 13028
entry_type                             constant        fixed bin(4,0)           initial dcl 4-120 ref 1119
entry_unit                7            based           pointer                  level 2 packed packed unaligned dcl 2-100 ref 10418
                                                                                  12397
ep                              005740 automatic       pointer                  dcl 11782 set ref 11789* 11791 11793 11796 11803
epaq                                   constant        fixed bin(18,0)          initial dcl 25-16 ref 4148
equiv_chain               2(18)        based           fixed bin(18,0)          level 2 packed packed unsigned unaligned dcl 1-753
                                                                                  ref 1321
era                             000432 constant        fixed bin(18,0)          initial dcl 25-16 set ref 12935* 12954* 12973*
erases                   25(01)        based           structure                level 3 packed packed unaligned dcl 2-100 set ref
                                                                                  8548* 8548 11930* 11930 11930
erq                             000431 constant        fixed bin(18,0)          initial dcl 25-16 set ref 12918*
err_flag                        000734 automatic       bit(1)                   dcl 2547 set ref 3313* 3321* 3328
error_exit                             parameter       fixed bin(18,0)          dcl 5249 ref 5244 5276
error_label               5            based           fixed bin(18,0)          level 2 dcl 2718 set ref 3972 3989 5276*
error_level               3            based           fixed bin(17,0)          level 2 dcl 52 ref 705
ersq                            000430 constant        fixed bin(18,0)          initial dcl 25-16 set ref 12920* 12940* 12958*
                                                                                  12977*
escape_address                  000337 constant        bit(36)                  initial dcl 9398 set ref 9412* 9440*
escape_index                           constant        fixed bin(18,0)          initial dcl 2599 ref 8586
even                      0(30)        based           bit(1)                   level 4 packed packed unaligned dcl 1-436 ref 1329
existing_state                         parameter       structure                level 1 dcl 9514 set ref 9509
exp_ptr                   1            based           bit(18)                  level 2 packed packed unaligned dcl 15-11 set ref
                                                                                  14042*
exp_word                               based           structure                level 1 dcl 15-21
exponent                        003542 automatic       fixed bin(7,0)           level 2 packed packed unaligned dcl 2842 set ref
                                                                                  4581 4584* 4584 4585* 4585
expression                2            based           pointer                  level 3 packed packed unaligned dcl 2-234 set ref
                                                                                  4480 12408*
ext_attributes            4            based           structure                level 2 packed packed unaligned dcl 1-844
ext_base                  1(29)        based           bit(1)                   level 3 in structure "array_ref" packed packed
                                                                                  unaligned dcl 1-155 in procedure
                                                                                  "fort_optimizing_cg" set ref 2927* 10575*
ext_base                  1(29)        based           bit(1)                   level 3 in structure "temporary" packed packed
                                                                                  unaligned dcl 1-1005 in procedure
                                                                                  "fort_optimizing_cg" set ref 5713*
ext_base                  0(29)        based           bit(1)                   array level 3 in structure "instruction" packed
                                                                                  packed unaligned dcl 2808 in procedure
                                                                                  "interpreter" ref 5967 6161
ext_base                  0(29) 001472 automatic       bit(1)                   level 2 in structure "inst_address" packed packed
                                                                                  unaligned dcl 2685 in procedure "interpreter" set
                                                                                  ref 4147*
ext_base                  1(29)        based           bit(1)                   level 3 in structure "symbol" packed packed
                                                                                  unaligned dcl 1-844 in procedure
                                                                                  "fort_optimizing_cg" set ref 1485* 1538* 1590*
                                                                                  1627* 1646* 1677* 2943* 2956*
ext_base                  1(29)        based           bit(1)                   level 3 in structure "node" packed packed unaligned
                                                                                  dcl 1-63 in procedure "fort_optimizing_cg" ref
                                                                                  4307 6127 6467 6890 6902 7226 11629
ext_base                  0(29) 000101 automatic       bit(1)                   level 2 in structure "inst_address" packed packed
                                                                                  unaligned dcl 6778 in procedure "c_a" set ref
                                                                                  6807*
ext_base                  0(29) 000123 automatic       bit(1)                   level 2 in structure "inst_address" packed packed
                                                                                  unaligned dcl 7586 in procedure
                                                                                  "base_man_store_temp" set ref 7594*
ext_base_and_tag          0(29)        based           structure                array level 2 in structure "instruction" packed
                                                                                  packed unaligned dcl 2808 in procedure
                                                                                  "interpreter"
ext_base_and_tag          0(29)        based           structure                array level 2 in structure "machine_instruction"
                                                                                  packed packed unaligned dcl 2765 in procedure
                                                                                  "interpreter" set ref 5868
ext_base_on                            constant        bit(36)                  initial dcl 639 ref 1160 1226 1297 1349 1446 5508
                                                                                  5816 6060 7243 7444 7475
ext_ptr                   1(18)        based           bit(18)                  level 2 packed packed unaligned dcl 15-25 set ref
                                                                                  14030*
ext_ref                                based           pointer                  array level 2 packed packed unaligned dcl 546 set
                                                                                  ref 1805 1805 1805 1811 1811 1814 1851 1854* 1865*
                                                                                  13921
external                               constant        fixed bin(4,0)           initial dcl 4-120 in procedure "fort_optimizing_cg"
                                                                                  ref 1434 1523 6332
external                 10(31)        based           bit(1)                   level 4 in structure "symbol" packed packed
                                                                                  unaligned dcl 1-844 in procedure
                                                                                  "fort_optimizing_cg" set ref 1434 1518 1627* 3576
                                                                                  4317 6688 6734 11737
external_list                          based           structure                level 1 dcl 546
factor                          000576 constant        fixed bin(18,0)          initial array dcl 1001 in procedure
                                                                                  "get_size_in_bits" ref 1004
factor                          000602 constant        fixed bin(18,0)          initial array dcl 982 in procedure
                                                                                  "get_size_in_words" ref 989 989
falls_through            15(02)        based           bit(1)                   level 3 packed packed unaligned dcl 2-46 ref 11886
                                                                                  11916 12387
father                    2            based           pointer                  level 2 packed packed unaligned dcl 2-100 ref 10053
                                                                                  11930 11930 11932 11932 12144 12258 12352 12352
                                                                                  12355
fb17                      2            based           bit(1)                   level 4 packed packed unaligned dcl 2-243 ref 3555
fb18_uns                  2(01)        based           bit(1)                   level 4 packed packed unaligned dcl 2-243 ref 8426
final_text_offset        11     000130 automatic       fixed bin(18,0)          level 2 dcl 58 set ref 798*
first                                  parameter       fixed bin(18,0)          dcl 7882 in procedure "get_free_reg" ref 7877 7899
first                    13            based           fixed bin(18,0)          array level 3 in structure "subprogram" packed
                                                                                  packed unsigned unaligned dcl 1-753 in procedure
                                                                                  "fort_optimizing_cg" set ref 1204* 1276* 1306*
                                                                                  1369* 1604* 1733 1739 2302 13468 13476 13487 13540
first_auto_loc                  000646 constant        fixed bin(9,0)           initial dcl 4-68 ref 1095
first_auto_var_loc              000326 automatic       fixed bin(18,0)          dcl 552 set ref 1698* 2913 2929 2932 13521 13521
                                                                                  13524
first_base                      000755 constant        fixed bin(18,0)          initial dcl 2599 set ref 2860 3223 4265* 4353* 6959
                                                                                  6981* 6999* 7026* 7039* 7297 7389 7409 7418 7424
                                                                                  7430 7440* 7505 7515* 7547 7557* 7608 7637* 7679
                                                                                  7700 7761 7776 8595 8713 9556 9692 9773 9814 9849
                                                                                  9881 9903 9982 10274 10334
first_block_constant                   defined         fixed bin(18,0)          dcl 5-153 set ref 720* 888
first_char_constant                    defined         fixed bin(18,0)          dcl 5-149 set ref 684* 723*
first_constant          100            based           fixed bin(18,0)          array level 3 dcl 47 set ref 12-89 12-89* 682 682
                                                                                  683 683 684 684 720 720 721 721 722 722 723 723
                                                                                  888 888
first_dw_constant                      defined         fixed bin(18,0)          dcl 5-145 set ref 682* 721*
first_element             3(18)        based           fixed bin(18,0)          level 2 packed packed unsigned unaligned dcl 1-436
                                                                                  ref 1194 1745 1891 1930 2051 2308 8634 13542 13575
                                                                                  14159
first_entry_name         75            based           fixed bin(18,0)          level 2 dcl 47 ref 1026 1116 1528 11785 14254
first_frame                     000154 automatic       pointer                  dcl 479 set ref 663* 2977 2981* 2984
first_header                    000212 automatic       pointer                  initial dcl 496 set ref 496* 1989 1994 2006 2006*
                                                                                  2099 2202 2205* 2205 2205* 2206 2207* 2207* 2213
first_index                     000755 constant        fixed bin(18,0)          initial dcl 2599 set ref 2861 3211 4504 4704* 8016
                                                                                  8028* 8106* 8112* 8206* 8242 8682 9539 9687 9781
                                                                                  9818 9853 9885 9908 9966 10268 10323
first_label               4            based           fixed bin(18,0)          level 2 packed packed unsigned unaligned dcl 1-753
                                                                                  set ref 1035 1142 2489*
first_lib_name            1            based           fixed bin(18,0)          level 2 unsigned dcl 52 ref 738 748
first_namelist                  000210 automatic       fixed bin(18,0)          dcl 495 set ref 668* 801 1424*
first_namelist_symbol
                         14     000130 automatic       fixed bin(18,0)          level 2 dcl 58 set ref 801*
first_operator            1            based           fixed bin(18,0)          level 2 packed packed unsigned unaligned dcl 2-176
                                                                                  ref 11953 27-139 13081
first_quad               10            based           fixed bin(18,0)          level 2 packed packed unsigned unaligned dcl 1-753
                                                                                  ref 13021
first_statement          13            based           fixed bin(18,0)          level 2 packed packed unsigned unaligned dcl 2-46
                                                                                  ref 11893 11951 12397 12480 13010 13068 13072
                                                                                  13072
first_stm                       006263 automatic       fixed bin(18,0)          dcl 12460 set ref 12480* 12482
first_subprogram         72            based           fixed bin(18,0)          level 2 dcl 47 ref 1033 1132 1727 2295 2866 13463
                                                                                  13499 13519
first_symbol              3            based           fixed bin(18,0)          level 2 packed packed unsigned unaligned dcl 1-753
                                                                                  ref 1380 4206
first_word_constant                    defined         fixed bin(18,0)          dcl 5-141 set ref 683* 722*
first_xr                               parameter       fixed bin(18,0)          dcl 8164 ref 8158 8171
fixed                                                  builtin function         dcl 645 ref 818 819 1497 1497 1841 1841 1844 1844
                                                                                  1847 1847 1851 1851 1948 1952 2022 2022 2025 2025
                                                                                  2160 2161 2272 2272 2389 2389 2973 3014 3334 3609
                                                                                  3618 3637 3689 3689 4029 4049 4115 4140 4143 4156
                                                                                  4158 4168 4443 4682 4737 4748 4948 4958 5272 5656
                                                                                  5870 5870 6021 6021 6085 6123 6123 6337 6455 6465
                                                                                  6465 6525 6557 6557 6568 6568 6600 6600 6624 6624
                                                                                  6643 6657 6657 6677 6677 6887 6887 6904 8005 8203
                                                                                  8227 8269 8279 8419 8478 8517 8746 8767 9475 10590
                                                                                  11141 11333 11633 11634 11971 12018 12020 12202
                                                                                  12436 12436 12657 27-78 27-143 27-148 27-193
                                                                                  27-269 27-275 12686 13076 13128 13128 13155 13155
                                                                                  13355 13573 13586 13883 14042 14078 14082 14132
                                                                                  14154 14154
flag                            000345 automatic       bit(1)                   initial array level 2 packed packed unaligned
                                                                                  dcl 628 set ref 628*
flags                     1(18)        based           structure                level 2 in structure "definition" packed packed
                                                                                  unaligned dcl 8-12 in procedure
                                                                                  "fort_optimizing_cg"
flags                     1(18)        based           bit(18)                  level 2 in structure "def_header" packed packed
                                                                                  unaligned dcl 13871 in procedure "init_linkage"
                                                                                  set ref 13891*
flags                     0(05)        based           structure                level 2 in structure "proc_frame" packed packed
                                                                                  unaligned dcl 2718 in procedure "interpreter" set
                                                                                  ref 5270*
flags                     0(18)        based           structure                level 2 in structure "create_entry" packed packed
                                                                                  unaligned dcl 21-23 in procedure "code_generator"
floating_value                  003542 automatic       structure                level 1 dcl 2842 set ref 4579* 4587 4587
flow_unit                 6            based           pointer                  level 2 in structure "opt_statement" packed packed
                                                                                  unaligned dcl 2-176 in procedure
                                                                                  "fort_optimizing_cg" ref 4053 4065
flow_unit                 3            based           pointer                  level 3 in structure "primary" packed packed
                                                                                  unaligned dcl 2-234 in procedure
                                                                                  "fort_optimizing_cg" set ref 12409*
flow_unit                              based           structure                level 1 dcl 2-46 in procedure "fort_optimizing_cg"
format                   12            based           structure                level 2 dcl 16-10
fort_instruction_info_$fort_instruction_info_
                                000024 external static structure                array level 1 dcl 2578
fort_make_symbol_section        000010 constant        entry                    external dcl 62 ref 803
fort_opt_macros_$abort_list     000014 external static bit(36)                  dcl 2564 set ref 12686
fort_opt_macros_$error_macro    000016 external static bit(36)                  dcl 2564 set ref 10590
fort_opt_macros_$first_scan     000012 external static bit(36)                  dcl 2564 set ref 2972 2973
fort_opt_macros_$interpreter_macros
                                000020 external static structure                array level 1 dcl 2570
fort_opt_macros_$operator_table 000022 external static structure                array level 1 dcl 2574
fort_opt_macros_$single_inst    000026 external static structure                array level 1 dcl 2610 ref 5899 5915 5932 5949 5965
                                                                                  6014
fortran_declared                       based           structure                level 1 dcl 6-91
fortran_options                        based           structure                level 1 dcl 6-40
forward                                based           bit(18)                  level 2 packed packed unaligned dcl 8-12 set ref
                                                                                  14215* 14217*
forward_refs                           based           structure                array level 1 dcl 568 set ref 727
found                                  parameter       bit(1)                   dcl 11098 in procedure "get_virtual_origin" set ref
                                                                                  11089 11108* 11115* 11120*
found                           006126 automatic       bit(1)                   dcl 12163 in procedure "ok" set ref 12167* 12168
                                                                                  12169* 12173
found                           006554 automatic       bit(1)                   dcl 27-242 in procedure "disconnect_temporary" set
                                                                                  ref 27-248* 27-251 27-252* 27-260
found                           006236 automatic       bit(1)                   dcl 12310 in procedure
                                                                                  "check_comparisons_and_increments" set ref 12323*
                                                                                  12328* 12339* 12344 12362* 12364 12365* 12370
found_error                     006632 automatic       bit(1)                   initial packed unaligned dcl 12735 in procedure
                                                                                  "rhs_fld" set ref 12735* 12741* 12747* 12753*
                                                                                  12755
found_error                     006654 automatic       bit(1)                   initial packed unaligned dcl 12844 in procedure
                                                                                  "lhs_fld" set ref 12844* 12851* 12857* 12863*
                                                                                  12869* 12871
fptype                          000363 automatic       fixed bin(1,0)           initial dcl 637 set ref 637* 11568 11572 13202 13206
                                                                                  13360 13364
free                            000236 automatic       pointer                  array dcl 502 in procedure "code_generator" set ref
                                                                                  672* 12669 12670* 27-34 27-37 27-38* 27-38
free                     24            based           pointer                  array level 2 in structure "shared_globals" dcl 47
                                                                                  in procedure "fort_optimizing_cg" ref 672
free_reg                        000126 automatic       fixed bin(3,0)           dcl 7587 set ref 7607* 7609* 7637*
free_temps                      000327 automatic       fixed bin(18,0)          array dcl 553 set ref 669* 669* 669* 5413 5417* 5425
                                                                                  5431* 5449 5450* 5730 5763 5764* 13037 13039 13044
                                                                                  13045*
freed                     0(10)        based           bit(1)                   level 2 packed packed unaligned dcl 2-144 set ref
                                                                                  12576*
freei                    32            based           pointer                  level 2 in structure "shared_globals" dcl 47
                                                                                  in procedure "fort_optimizing_cg" ref 673
freei                           000244 automatic       pointer                  dcl 503 in procedure "code_generator" set ref 673*
                                                                                  27-94 27-97 27-98* 27-98
from_base_man                   000740 automatic       bit(1)                   dcl 2551 set ref 2964* 6595 7190* 7308*
fstr                                   constant        fixed bin(17,0)          initial dcl 6182 ref 6212
ft2                       0(30)        based           bit(6)                   level 2 packed packed unaligned dcl 15-11 set ref
                                                                                  14039*
ft_char_dtype                          constant        fixed bin(17,0)          initial dcl 22-96 ref 628 628
ft_complex_dtype                       constant        fixed bin(17,0)          initial dcl 22-96 ref 628
ft_double_dtype                        constant        fixed bin(17,0)          initial dcl 22-96 ref 628
ft_external_dtype                      constant        fixed bin(17,0)          initial dcl 22-96 ref 628 628
ft_hex_complex_dtype                   constant        fixed bin(17,0)          initial dcl 22-96 ref 628
ft_hex_double_dtype                    constant        fixed bin(17,0)          initial dcl 22-96 ref 628
ft_hex_real_dtype                      constant        fixed bin(17,0)          initial dcl 22-96 ref 628
ft_integer_dtype                       constant        fixed bin(17,0)          initial dcl 22-96 ref 628 628
ft_logical_dtype                       constant        fixed bin(17,0)          initial dcl 22-96 ref 628 628
ft_real_dtype                          constant        fixed bin(17,0)          initial dcl 22-96 ref 628
fu                              005234 automatic       pointer                  dcl 10165 in procedure "definitely_initialized" set
                                                                                  ref 10176* 10176* 10177* 10179
fu                              000652 automatic       pointer                  dcl 2518 in procedure "interpreter" set ref 4053
                                                                                  4058 4061 4061* 4065* 4067 4072 4663 4691* 4696
                                                                                  4722 9959 10001 10418 12991*
fu                              006364 automatic       pointer                  dcl 12651 in procedure "process_loop_end_lists" set
                                                                                  ref 12654* 12655 12657 12659 12663 12670 12671
                                                                                  12672
fu                                     parameter       pointer                  dcl 11871 in procedure "reset_scan" set ref 11866
                                                                                  11880 11880 11886 11888 11893 11902 11908 11909*
                                                                                  11909 11911 11916 11918 11947* 11951
fu                              006704 automatic       pointer                  dcl 13057 in procedure "reset_subprogram" set ref
                                                                                  13067* 13067* 13068 13068 13072 13072* 13096
fu_to_put                       006516 automatic       pointer                  dcl 27-182 set ref 27-187* 27-192 27-194 27-195
                                                                                  27-195 27-205
full_pointer                           based           pointer                  dcl 13459 set ref 13471*
func                      0(05)        based           bit(1)                   level 3 packed packed unaligned dcl 2718 set ref
                                                                                  3144 3154 5272*
func_ref_op                            constant        fixed bin(18,0)          initial dcl 4-197 ref 12491
function                               constant        fixed bin(18,0)          initial dcl 2667 ref 3334 5272
gap_value                              constant        fixed bin(17,0)          initial dcl 4-57 ref 13650 13668 13796
general                   6(18)        based           fixed bin(18,0)          level 2 packed packed unsigned unaligned dcl 1-844
                                                                                  set ref 11502 11523 11686 11688 11694* 11718 11793
                                                                                  11796* 11796 11803 13293* 13350
generate_long_profile           000246 automatic       bit(1)                   dcl 505 set ref 847* 1043 1710 4973 10449 10455
                                                                                  13506
generate_profile                000247 automatic       bit(1)                   dcl 505 set ref 846* 1707 4086 4973 13506
generate_symtab                 000250 automatic       bit(1)                   dcl 505 set ref 848* 1618 1767
get_next_temp_segment
                       1534            based           entry variable           level 2 dcl 47 ref 27-22
getlp                           000456 constant        fixed bin(18,0)          initial dcl 25-16 set ref 7657* 8609* 10439*
global                   41            based           bit(1)                   array level 5 in structure "loop_state" packed
                                                                                  packed unaligned dcl 9839 in procedure
                                                                                  "enter_loop" ref 9854
global                  112            parameter       bit(1)                   array level 5 in structure "existing_state" packed
                                                                                  packed unaligned dcl 9514 in procedure
                                                                                  "merge_state" set ref 9558*
global                   41            based           bit(1)                   array level 5 in structure "machine_state" packed
                                                                                  packed unaligned dcl 1-620 in procedure
                                                                                  "fort_optimizing_cg" set ref 10078*
global                  112            based           bit(1)                   array level 5 in structure "machine_state" packed
                                                                                  packed unaligned dcl 1-620 in procedure
                                                                                  "fort_optimizing_cg" set ref 10085*
global                   41            parameter       bit(1)                   array level 5 in structure "existing_state" packed
                                                                                  packed unaligned dcl 9514 in procedure
                                                                                  "merge_state" set ref 9541*
global                   41     001511 automatic       bit(1)                   array level 5 in structure "current_ms" packed
                                                                                  packed unaligned dcl 2714 in procedure
                                                                                  "interpreter" set ref 4674 9819* 9854* 9886* 9967
global                                 parameter       bit(1)                   array level 3 in structure "regs" packed packed
                                                                                  unaligned dcl 7882 in procedure "get_free_reg" ref
                                                                                  7892 7900
global                  112     001511 automatic       bit(1)                   array level 5 in structure "current_ms" packed
                                                                                  packed unaligned dcl 2714 in procedure
                                                                                  "interpreter" set ref 7450* 9815* 9850* 9882* 9983
global                  112            based           bit(1)                   array level 5 in structure "loop_state" packed
                                                                                  packed unaligned dcl 9839 in procedure
                                                                                  "enter_loop" ref 9850
global_pr_items          34            based           pointer                  level 2 packed packed unaligned dcl 2-100 set ref
                                                                                  12136 12221 12222* 12248 12250*
global_reg                             parameter       fixed bin(3,0)           dcl 7882 ref 7877 7889 7889
global_xr_items          33            based           pointer                  level 2 packed packed unaligned dcl 2-100 set ref
                                                                                  12132 12212 12213* 12241 12243*
globally_assigned         0(24)        based           bit(1)                   level 3 in structure "node" packed packed unaligned
                                                                                  dcl 1-63 in procedure "fort_optimizing_cg" set ref
                                                                                  3542 3568 8242 9821* 9856*
globally_assigned         0(24)        based           bit(1)                   level 3 in structure "temporary" packed packed
                                                                                  unaligned dcl 1-1005 in procedure
                                                                                  "fort_optimizing_cg" set ref 5680*
globally_assigned         0(24)        based           bit(1)                   level 3 in structure "symbol" packed packed
                                                                                  unaligned dcl 1-844 in procedure
                                                                                  "fort_optimizing_cg" set ref 8398
grow                                   parameter       bit(18)                  dcl 13953 ref 13950 13983 14025 14026
grow_info                       007222 automatic       bit(18)                  dcl 14117 set ref 14143* 14144 14182
grow_pt                         007212 automatic       pointer                  dcl 14111 set ref 14144* 14145 14155 14171 14172
h                               000100 automatic       pointer                  dcl 13564 in procedure "list_initialize" set ref
                                                                                  13569* 13570 13575
h                                      parameter       pointer                  dcl 2232 in procedure "make_create_entry" ref 2229
                                                                                  2240 2241 2241 2243 2246 2247 2248 2249 2250 2252
                                                                                  2253 2255 2256 2261
h                               007206 automatic       pointer                  dcl 14111 in procedure "initialize_common" set ref
                                                                                  14126* 14129 14132 14135 14136 14140 14149 14154
                                                                                  14154 14159
h                               007034 automatic       pointer                  dcl 13534 in procedure "initialize" set ref 13541*
                                                                                  13542 13542 13548* 13549
h                                      parameter       pointer                  dcl 1919 in procedure "create_storage_entry" set ref
                                                                                  1911 1928* 1930 1930 1933 1937 1941 1962 1995 2017
                                                                                  2022 2022 2022 2022 2022 2022 2025 2025 2027 2027
                                                                                  2051 2223
h                               007016 automatic       pointer                  dcl 13456 in procedure "initialize_static" set ref
                                                                                  13469* 13470 13472 13477* 13478 13483 13488* 13489
                                                                                  13494
h                               000110 automatic       pointer                  dcl 1078 in procedure "assign_storage" set ref 1156*
                                                                                  1157 1159 1160 1161 1165 1169 1174 1175 1184 1185
                                                                                  1190* 1194 1199 1213 1214 1221* 1222 1224 1225
                                                                                  1226 1227 1227 1230 1231 1238 1241 1242 1244 1247*
                                                                                  1253 1256 1256 1264 1264 1268 1269* 1270 1285 1286
                                                                                  1293* 1294 1296 1297 1298 1302 1302* 1315 1316
                                                                                  1323* 1324 1329 1332 1334 1339 1344 1345 1349 1350
                                                                                  1351 1353 1354 1356 1357 1358 1374 1375 1734* 1735
                                                                                  1735 1736 1740* 1742 1744 1744 1745 1752 1752*
                                                                                  1754 1756 1891 1893 1894 1895 1898 1901 1903 2303*
                                                                                  2305 2307* 2308 2317* 2318* 2318 2318 2320
h_bound                   2     000117 automatic       fixed bin(18,0)          array level 3 in structure "descriptor" dcl 13173
                                                                                  in procedure "make_symbol_descriptor" set ref
                                                                                  13247* 13263* 13265* 13267*
h_bound                   2     006754 automatic       fixed bin(18,0)          array level 3 in structure "descriptor" dcl 13322
                                                                                  in procedure "make_entry_descriptor" set ref
                                                                                  13404* 13420* 13422* 13424*
half                                   based           structure                level 1 dcl 2825
half_array                1            based           fixed bin(17,0)          array level 2 packed packed unaligned dcl 2754 ref
                                                                                  3117 3495 3507 3513 3678
has_address               0(35)        based           bit(1)                   level 3 packed packed unaligned dcl 1-155 set ref
                                                                                  6118 6564 6882 10557 10664*
has_array_size            0(24)        based           bit(1)                   level 2 packed packed unaligned dcl 1-383 set ref
                                                                                  2369* 2394 2397*
has_dim_sizes             0(25)        based           bit(1)                   level 2 packed packed unaligned dcl 1-383 set ref
                                                                                  2422 2432*
has_operator_list         4(05)        based           bit(1)                   level 3 packed packed unaligned dcl 2-176 set ref
                                                                                  12406*
has_virtual_origin        0(23)        based           bit(1)                   level 2 packed packed unaligned dcl 1-383 set ref
                                                                                  2382* 2405 2415* 10730* 10792*
hash_chain                3(18)        based           fixed bin(18,0)          level 2 in structure "node" packed packed unsigned
                                                                                  unaligned dcl 1-63 in procedure
                                                                                  "fort_optimizing_cg" set ref 12-69 12-78*
hash_chain                2            based           fixed bin(18,0)          level 2 in structure "pointer" dcl 1-672
                                                                                  in procedure "fort_optimizing_cg" set ref 7854
                                                                                  7868*
hash_chain                3(18)        based           fixed bin(18,0)          level 2 in structure "symbol" packed packed unsigned
                                                                                  unaligned dcl 1-844 in procedure
                                                                                  "fort_optimizing_cg" set ref 1120* 1385* 1401*
                                                                                  1904* 4219 4219 4221 4222 4379* 10696 11464 11521
                                                                                  11561 11561 13197 13197 13305* 13345 13347 13438*
hash_index                      000117 automatic       fixed bin(17,0)          dcl 7831 in procedure "find_ptr" set ref 7842* 7846
                                                                                  7868 7869
hash_index                      000105 automatic       fixed bin(17,0)          dcl 12-24 in procedure "create_constant" set ref
                                                                                  12-57* 12-61 12-76 12-76
hash_table                             based           fixed bin(35,0)          array dcl 12-25 set ref 12-61 12-76 12-76*
hash_table_size                 074411 constant        fixed bin(17,0)          initial dcl 12-26 ref 12-57
hast                                   based           structure                level 1 unaligned dcl 2754
have_eligible                   000104 automatic       bit(1)                   dcl 8002 set ref 8009* 8010 8054
have_zero                       004330 automatic       bit(1)                   dcl 8457 set ref 8469* 8470* 8480 8484
hbound                                                 builtin function         dcl 12-27 in procedure "create_constant" ref 12-43
hbound                                                 builtin function         dcl 645 in procedure "code_generator" ref 727 3197
                                                                                  3355 3355 4284 5136 5138 7805 8351 8658 8824 8872
                                                                                  8879 9176 9533 9590 9646 9660 10262 10305 11121
                                                                                  14076 14166
hdr                                    parameter       fixed bin(18,0)          dcl 13559 in procedure "list_initialize" ref 13556
                                                                                  13569
hdr                             000126 automatic       fixed bin(18,0)          dcl 1079 in procedure "assign_storage" set ref 1154*
                                                                                  1155 1156 1199* 1204 1206 1207 1213* 1219* 1220
                                                                                  1221 1270* 1276 1278 1279 1285* 1291* 1292 1293
                                                                                  1306 1308 1309 1315* 1321* 1322 1323 1369 1371
                                                                                  1372 1374* 1733* 1733* 1734* 1739* 1739* 1740*
                                                                                  2302* 2302* 2303*
hdr                             000110 automatic       pointer                  dcl 1973 in procedure "create_storage_entry" set ref
                                                                                  1994* 1994* 1995* 1997 2001 2006 2008 2009 2015
                                                                                  2017 2022 2027 2027 2034* 2034* 2035 2039 2041
                                                                                  2042 2049 2072 2073 2074 2075 2076 2128* 2128*
                                                                                  2129 2130 2130 2131 2131* 2133 2139* 2139 2139*
                                                                                  2140* 2164 2209* 2210 2211 2222* 2223 2224 2224
                                                                                  2225 2226
hdr                             007041 automatic       fixed bin(18,0)          dcl 13535 in procedure "initialize" set ref 13540*
                                                                                  13540* 13541*
hdr                             007013 automatic       fixed bin(18,0)          dcl 13455 in procedure "initialize_static" set ref
                                                                                  13468* 13468* 13469* 13476* 13476* 13477* 13487*
                                                                                  13487* 13488*
head_address                           based           fixed bin(35,0)          dcl 13961 set ref 14038*
header                    6            based           bit(1)                   level 2 in structure "entry" packed packed unaligned
                                                                                  dcl 1982 in procedure "create_storage_entry" set
                                                                                  ref 2034 2075* 2128 2226*
header                          002543 automatic       structure                level 2 in structure "arg_list" dcl 2829
                                                                                  in procedure "interpreter" set ref 4322*
header                                 based           structure                level 1 dcl 1-436 in procedure "fort_optimizing_cg"
header_length                   000104 automatic       fixed bin(24,0)          dcl 1799 set ref 1818* 1820* 1822* 1824 1824 1830*
                                                                                  1832* 1834* 1836 1839 1841 1841 1844 1844 1847
header_node                            constant        fixed bin(4,0)           initial dcl 4-87 ref 1742 1811 1867 2305 13542
hfp                      12(04)        based           bit(1)                   level 3 in structure "subprogram" packed packed
                                                                                  unaligned dcl 1-753 in procedure
                                                                                  "fort_optimizing_cg" ref 5075
hfp                     114(04)        based           bit(1)                   level 4 in structure "shared_globals" packed packed
                                                                                  unaligned dcl 47 in procedure "fort_optimizing_cg"
                                                                                  ref 637 2966
highest_ind_state                      constant        fixed bin(17,0)          initial dcl 2663 ref 6208 8050 8120 8218 8282 8480
                                                                                  8484 9401 9404 9428 9435
hold_last_auto_loc              000334 automatic       fixed bin(18,0)          dcl 556 set ref 1013* 1047
hold_pr_locks                   001503 automatic       bit(1)                   array dcl 2697 set ref 7762* 7777
hold_text_pos                   000333 automatic       fixed bin(18,0)          dcl 556 set ref 1014* 1046
i                               005672 automatic       fixed bin(18,0)          dcl 11622 in procedure "set_itp_addr" set ref 11625*
                                                                                  11627 11631 11632 11633 11634 11638 11641
i                               005456 automatic       fixed bin(3,0)           dcl 10950 in procedure "compute_dimension_size" set
                                                                                  ref 10952* 10958 10960 10962 10963 10970 10972
                                                                                  10983 10984 10991 10992 10994 10995 10999 11003
                                                                                  11004 11006 11006 11007 11008 11011 11015 11016
                                                                                  11018 11019 11021 11023
i                               005136 automatic       fixed bin(17,0)          dcl 9955 in procedure "refresh_regs" set ref 9966*
                                                                                  9967 9967 9971 9971* 9982* 9983 9983 9983 9983
                                                                                  9983 9983 9983 9983*
i                               005366 automatic       fixed bin(18,0)          dcl 10485 in procedure "setup_message_structure" set
                                                                                  ref 10490* 10499 10500 10507 10508 10509*
i                                      parameter       fixed bin(18,0)          dcl 5132 in procedure "push" ref 5127 5142
i                               000103 automatic       fixed bin(3,0)           dcl 8001 in procedure "xr_man_load_any_xr" set ref
                                                                                  8016* 8017 8017 8020 8021* 8028* 8030* 8034 8047
                                                                                  8050 8052* 8058
i                               004037 automatic       fixed bin(18,0)          dcl 6395 in procedure "emit_eis" set ref 6403* 6404
                                                                                  6404 6405 6405 6406 6406 6407* 6440* 6444 6444
                                                                                  6446 6446 6451 6453 6453 6455 6457 6460 6460 6463
                                                                                  6465 6465 6465 6465* 6467 6467 6467 6467 6467 6471
                                                                                  6472 6479 6479 6479*
i                               006354 automatic       fixed bin(17,0)          dcl 12649 in procedure "process_loop_end_lists" set
                                                                                  ref 12653* 12654*
i                               000142 automatic       fixed bin(18,0)          dcl 2233 in procedure "make_create_entry" set ref
                                                                                  2272* 2273
i                               000101 automatic       fixed bin(3,0)           dcl 7374 in procedure "base_man_load_large_base" set
                                                                                  ref 7387* 7390* 7407 7409* 7414 7414 7414* 7418*
                                                                                  7420 7420 7420* 7424* 7426 7426 7426* 7430* 7432
                                                                                  7432 7432* 7437 7440* 7442* 7447 7448 7450 7450
                                                                                  7453 7454 7455 7456 7458
i                                      parameter       fixed bin(3,0)           dcl 7139 in procedure "flush_base" ref 7134 7142
                                                                                  7144 7154 7166
i                               000321 automatic       fixed bin(18,0)          dcl 534 in procedure "code_generator" set ref 727*
                                                                                  728 729* 747* 751 752 753 754* 754 14279* 14280
                                                                                  14281*
i                               005266 automatic       fixed bin(18,0)          dcl 10260 in procedure "bump_all_ms_ref_counts" set
                                                                                  ref 10263* 10264 10264* 10268* 10270 10270 10270*
                                                                                  10274* 10276 10276 10276*
i                               000101 automatic       fixed bin(17,0)          dcl 8238 in procedure "find_global_index" set ref
                                                                                  8242* 8244 8244 8244 8244*
i                               007042 automatic       fixed bin(18,0)          dcl 13535 in procedure "initialize" set ref 13539*
                                                                                  13540*
i                               000116 automatic       fixed bin(18,0)          dcl 8650 in procedure "flush_simple_ref" set ref
                                                                                  8659* 8659* 8660 8662* 8662 8662* 8663 8663* 8682*
                                                                                  8682* 8684 8684 8687* 8692
i                               004212 automatic       fixed bin(3,0)           dcl 7774 in procedure "restore_pr_locks" set ref
                                                                                  7776* 7777 7777*
i                               005703 automatic       fixed bin(18,0)          dcl 11665 in procedure "check_arg_list" set ref
                                                                                  11676* 11677 11678* 11698* 11699 11700 11704 11705
                                                                                  11708 11709* 11727* 11728 11737 11737 11747 11749
                                                                                  11753 11756* 11768
i                               006056 automatic       fixed bin(17,0)          dcl 12060 in procedure "sort_globals" set ref 12070*
                                                                                  12071*
i                               006666 automatic       fixed bin(17,0)          dcl 12988 in procedure "start_subprogram" set ref
                                                                                  13014* 13015 13015* 13036* 13037 13039 13044
                                                                                  13045*
i                               006042 automatic       fixed bin(17,0)          dcl 12009 in procedure "allocate_registers" set ref
                                                                                  12025* 12026* 12036* 12037*
i                               004473 automatic       fixed bin(18,0)          dcl 9103 in procedure "flush_eaq" set ref 9119* 9121
                                                                                  9123*
i                               000100 automatic       fixed bin(18,0)          dcl 7887 in procedure "get_free_reg" set ref 7899*
                                                                                  7900 7900 7902 7902 7905 7905 7905 7912 7913 7916
                                                                                  7919 7920*
i                               000106 automatic       fixed bin(18,0)          dcl 13170 in procedure "make_symbol_descriptor" set
                                                                                  ref 13239* 13241 13244 13246 13246 13247 13247
                                                                                  13248 13258 13258 13258 13260 13263 13263 13263
                                                                                  13265 13265 13267*
i                               004234 automatic       fixed bin(18,0)          dcl 8166 in procedure "const_in_xr" set ref 8171*
                                                                                  8172 8172 8174 8174 8177*
i                               000125 automatic       fixed bin(3,0)           dcl 7587 in procedure "base_man_store_temp" set ref
                                                                                  7608* 7609 7609 7611 7611 7611* 7637* 7640 7640
                                                                                  7642* 7649* 7651 7654*
i                               005232 automatic       fixed bin(17,0)          dcl 10164 in procedure "definitely_initialized" set
                                                                                  ref 10174* 10177
i                               006235 automatic       fixed bin(17,0)          dcl 12309 in procedure
                                                                                  "check_comparisons_and_increments" set ref 12334*
                                                                                  12334* 12337 12340
i                               005026 automatic       fixed bin(3,0)           dcl 9768 in procedure "discard_state" set ref 9773*
                                                                                  9775* 9781* 9783 9783 9783*
i                               000112 automatic       fixed bin(18,0)          dcl 9054 in procedure "save_logical_temps" set ref
                                                                                  9060* 9060* 9061 9061* 9072* 9073 9083*
i                               000675 automatic       fixed bin(18,0)          dcl 2540 in procedure "interpreter" set ref 3112*
                                                                                  3114 3114 3117 3157* 3158 3199* 3200 3200* 3211*
                                                                                  3212 3212 3212* 3223* 3224 3224 3224* 3261 3280*
                                                                                  3281 3281 3320* 3320* 3321 3323* 3337* 3338 3341*
                                                                                  3342 3378* 3381 3381 3383 3397* 3400 3400 3407*
                                                                                  3409 3478* 3481* 3487* 3490* 3493* 3495 3674* 3676
                                                                                  3676 3678 3729* 3730 3730 3940* 3941* 4112* 4113
                                                                                  4113 4115 4116* 4124* 4125 4127 4137 4165 4166*
                                                                                  4175* 4176 4181 4183* 4189* 4190 4196* 4262* 4266
                                                                                  4270 4270 4273* 4298* 4299 4301* 4328* 4329 4330*
                                                                                  4331* 4348* 4349 4355 4355 4361* 4418* 4420* 4421*
                                                                                  4451* 4453* 4494* 4496* 4498* 4504* 4504 4504*
                                                                                  4508 4551* 4553* 4560* 4562* 4636* 4638 4638 4641
                                                                                  4690* 4691 4691 4691* 4696 4796* 4796* 4803 4805*
i                               004116 automatic       fixed bin(3,0)           dcl 6870 in procedure "make_both_addressable" set
                                                                                  ref 6873* 6875 6880 6890*
i                               004130 automatic       fixed bin(3,0)           dcl 7182 in procedure "base_man_load_pr" set ref
                                                                                  7192* 7220* 7226 7230 7233* 7235 7244 7289 7290
                                                                                  7291 7295 7296* 7297 7297 7297 7300 7304
i                               004050 automatic       fixed bin(17,0)          dcl 6504 in procedure "get_eis_length" set ref 6507*
                                                                                  6509 6514 6515 6518 6520 6521 6525 6525 6529 6529
                                                                                  6529 6534
i                               004246 automatic       fixed bin(18,0)          dcl 8194 in procedure "xr_man_add_const" set ref
                                                                                  8199* 8203
i                               004201 automatic       fixed bin(3,0)           dcl 7757 in procedure "avoid_prs" set ref 7761* 7762
                                                                                  7762 7763 7763*
i                               004366 automatic       fixed bin(18,0)          dcl 8577 in procedure "free_regs" set ref 8586* 8587
                                                                                  8589 8590 8590* 8595* 8596 8598 8599 8599* 8606*
                                                                                  8607 8607 8610 8613
i                               000113 automatic       fixed bin(18,0)          dcl 5406 in procedure "get_temp" set ref 5412* 5413
                                                                                  5417 5423* 5442
i                               007172 automatic       fixed bin(18,0)          dcl 14062 in procedure "name_assign" set ref 14076*
                                                                                  14077*
i                               003644 automatic       fixed bin(18,0)          dcl 5188 in procedure "get_operand" set ref 5198*
                                                                                  5200
i                               000104 automatic       fixed bin(18,0)          dcl 6616 in procedure "m_a_except_xreg" set ref
                                                                                  6640* 6648* 6662* 6664* 6669* 6672* 6674* 6681*
                                                                                  6683*
i                               000104 automatic       fixed bin(18,0)          dcl 8706 in procedure "flush_addr" set ref 8713*
                                                                                  8713* 8714 8714 8717* 8731
i                               005516 automatic       fixed bin(17,0)          dcl 11101 in procedure "get_virtual_origin" set ref
                                                                                  11112* 11112* 11113*
i                               000121 automatic       fixed bin(18,0)          dcl 6720 in procedure "m_a_check_large_address" set
                                                                                  ref 6738* 6740 6740*
i                               000100 automatic       fixed bin(3,0)           dcl 7539 in procedure "base_man_load_desc_ptr" set
                                                                                  ref 7547* 7548 7548 7550 7552 7553* 7557* 7558*
                                                                                  7564 7566 7567 7568 7569 7571
i                               000106 automatic       fixed bin(18,0)          dcl 9317 in procedure "reset" set ref 9321* 9321*
                                                                                  9322*
i                               000164 automatic       fixed bin(18,0)          dcl 2290 in procedure "relocate" set ref 2299* 2300
                                                                                  2300 2302 2322* 2341
i                               000104 automatic       fixed bin(17,0)          dcl 1923 in procedure "create_storage_entry" set ref
                                                                                  2138* 2141* 2141 2143 2153 2154 2160
i                               000130 automatic       fixed bin(18,0)          dcl 1079 in procedure "assign_storage" set ref 1171*
                                                                                  1179* 1204 1204 1206 1207 1246* 1255* 1262* 1276
                                                                                  1276 1278 1279 1329* 1331* 1332* 1332 1334* 1334
                                                                                  1339 1339 1339 1343 1344 1344 1345 1345 1345 1365*
                                                                                  1369 1369 1371 1372 1406* 1411* 1413* 1429* 1433*
                                                                                  1554* 1568* 1570* 1571* 1571 1573* 1573 1578 1579
                                                                                  1579 1600* 1604 1604 1606 1607
i                               005042 automatic       fixed bin(17,0)          dcl 9808 in procedure "leave_loop" set ref 9814*
                                                                                  9815* 9818* 9819 9821 9821*
i                               000100 automatic       fixed bin(18,0)          dcl 8624 in procedure "flush_ref" set ref 8634*
                                                                                  8634* 8635 8636*
i                               006717 automatic       fixed bin(17,0)          dcl 13059 in procedure "reset_subprogram" set ref
                                                                                  13064* 13065*
i                               007110 automatic       fixed bin(18,0)          dcl 13916 in procedure "gen_linkage" set ref 13920*
                                                                                  13921 13937 13937*
i                               000100 automatic       fixed bin(3,0)           dcl 8139 in procedure "xr_man_update_xr" set ref
                                                                                  8143* 8148 8149 8152 8154
i                               006744 automatic       fixed bin(18,0)          dcl 13319 in procedure "make_entry_descriptor" set
                                                                                  ref 13396* 13398 13401 13403 13403 13404 13404
                                                                                  13405 13415 13415 13415 13417 13420 13420 13420
                                                                                  13422 13422 13424*
i                               004264 automatic       fixed bin(3,0)           dcl 8265 in procedure "xr_man_load_xr" set ref 8279*
                                                                                  8281* 8281*
i                               005106 automatic       fixed bin(17,0)          dcl 9899 in procedure "adjust_state_for_globals" set
                                                                                  ref 9903* 9904 9904 9904* 9908* 9909 9914 9914
                                                                                  9915*
i                               005433 automatic       fixed bin(18,0)          dcl 10682 in procedure "get_param_array_size" set
                                                                                  ref 10765* 10778 10778 10780 10781 10785 10785
                                                                                  10790 10845 10848 10857 10857 10864 10864 10866
                                                                                  10866 10875* 10883 10891 10891 10893 10899 10899
                                                                                  10899 10901 10912* 10927* 10929* 10930* 10930*
                                                                                  10931 10933 10935*
i                               004355 automatic       fixed bin(18,0)          dcl 8542 in procedure "reserve_regs" set ref 8551*
                                                                                  8552 8552 8555 8562*
i                               005120 automatic       fixed bin(17,0)          dcl 9928 in procedure "cleanup_loop_state_nodes" set
                                                                                  ref 9931* 9932*
i                               005546 automatic       fixed bin(17,0)          dcl 11208 in procedure "start_cat" set ref 11214*
                                                                                  11215*
i                               005733 automatic       fixed bin(17,0)          dcl 11781 in procedure "find_arg_desc" set ref
                                                                                  11805* 11806 11808* 11827
i                               005311 automatic       fixed bin(18,0)          dcl 10303 in procedure "drop_all_ms_ref_counts" set
                                                                                  ref 10306* 10307 10307 10312* 10323* 10325 10327
                                                                                  10327 10329 10329* 10334* 10336 10338 10338 10340
                                                                                  10340*
i                               000217 automatic       fixed bin(18,0)          dcl 2358 in procedure "get_array_size" set ref 2376*
                                                                                  2377 2378* 2389* 2408* 2409* 2424* 2425 2425 2425
                                                                                  2425 2428 2428 2428 2428 2430*
i                               000100 automatic       fixed bin(3,0)           dcl 7497 in procedure "base_man_load_arg_ptr" set
                                                                                  ref 7505* 7506 7506 7508 7510 7511* 7515* 7516*
                                                                                  7522 7524 7525 7526 7527 7529
i                               000106 automatic       fixed bin(3,0)           dcl 6945 in procedure "base_man_load_any_pr" set ref
                                                                                  6959* 6960 6960 6962 6962 6962 6966 6967 6969*
                                                                                  6981* 6983* 6985 6999* 7001* 7011* 7013 7026*
                                                                                  7028* 7030 7039* 7041* 7049 7052 7055 7056 7057
                                                                                  7058 7059
i                               005414 automatic       fixed bin(18,0)          dcl 10538 in procedure "optimized_subscript" set ref
                                                                                  10618* 10623* 10631* 10631 10634* 10634 10637*
                                                                                  10637 10641 10642 10642* 10642 10644* 10644 10649
                                                                                  10659*
i                               004423 automatic       fixed bin(18,0)          dcl 8848 in procedure "in_reg" set ref 8879* 8881
                                                                                  8883 8884*
i                               004761 automatic       fixed bin(18,0)          dcl 9516 in procedure "merge_state" set ref 9534*
                                                                                  9535* 9539* 9541 9543 9543 9546 9547 9547 9552*
                                                                                  9556* 9558 9560 9560 9563 9567 9575* 9600* 9601
                                                                                  9603 9610 9612 9612 9616 9624* 9624
i                               005072 automatic       fixed bin(17,0)          dcl 9872 in procedure "refresh_global_bits" set ref
                                                                                  9881* 9882* 9885* 9886*
i                               000103 automatic       fixed bin(17,0)          dcl 7671 in procedure "find_global_base" set ref
                                                                                  7679* 7680 7680 7680 7680 7680*
i                               005056 automatic       fixed bin(17,0)          dcl 9841 in procedure "enter_loop" set ref 9849*
                                                                                  9850 9850* 9853* 9854 9854 9856 9856*
i                               004222 automatic       fixed bin(3,0)           dcl 8101 in procedure "xr_man_load_const" set ref
                                                                                  8112* 8114* 8118 8120 8122 8123 8124 8129
i                               004454 automatic       fixed bin(18,0)          dcl 8948 in procedure "save" set ref 8978* 8978*
                                                                                  8980 8993*
i                               006565 automatic       fixed bin(18,0)          dcl 27-287 in procedure "in_namelist" set ref
                                                                                  27-292* 27-293*
i                               005771 automatic       fixed bin(18,0)          dcl 11846 in procedure "replace_inputs" set ref
                                                                                  11851* 11852 11855
i                               004146 automatic       fixed bin(3,0)           dcl 7320 in procedure "base_man_load_pr_value" set
                                                                                  ref 7326* 7330 7330 7330 7339* 7346 7350 7351 7352
                                                                                  7356 7361
i                               004511 automatic       fixed bin(18,0)          dcl 9149 in procedure "load" set ref 9178* 9178*
                                                                                  9180*
i                               000103 automatic       fixed bin(18,0)          dcl 1797 in procedure "alloc_external" set ref 1803*
                                                                                  1805 1805 1805* 1810* 1811 1811 1814 1818 1820
                                                                                  1824 1824 1830 1832 1836 1839 1841 1847 1851 1854*
i                               006264 automatic       fixed bin(18,0)          dcl 12460 in procedure
                                                                                  "propagate_and_eliminate_assignment" set ref
                                                                                  12497* 12498*
i                                      parameter       fixed bin(18,0)          dcl 27-66 in procedure "chain_input" ref 27-62 27-77
i                               000100 automatic       fixed bin(18,0)          dcl 8068 in procedure "flush_xr" set ref 8078* 8080
                                                                                  8085 8085
i_loop                          001447 automatic       fixed bin(17,0)          dcl 2558 set ref 11937* 11937 11937* 11940 11946
                                                                                  13003* 13003* 13006 13010
i_non_const                     006232 automatic       fixed bin(18,0)          dcl 12308 set ref 12329* 12340* 12350 12436*
identifier                1            based           char(8)                  level 2 dcl 16-10 set ref 812*
if_test                   0(27)        based           bit(1)                   array level 2 packed packed unaligned dcl 2800 ref
                                                                                  3413 3421 3533 3539 3545 3551 3558 3564 3573 3579
                                                                                  3584 3590 3595 4034 4280 4887 4896 4902 4907 4913
                                                                                  4920 4931 5073
ii                              005734 automatic       fixed bin(17,0)          dcl 11781 set ref 11804* 11808 11809 11811 11812
                                                                                  11816 11817 11820 11821 11824* 11824 11827 11832
                                                                                  11833 11834
imac                            000660 automatic       fixed bin(18,0)          dcl 2523 set ref 2973* 2996* 2996 3000 3012 3013
                                                                                  3014 3037 3078 3083 3083 3084* 3084 3101 3117
                                                                                  3119* 3119 3126* 3131* 3131 3132* 3132 3135* 3157
                                                                                  3293* 3302* 3341 3342* 3346 3347* 3357 3358* 3365*
                                                                                  3381 3383 3400 3409 3413 3421 3456 3458 3495* 3495
                                                                                  3507* 3507 3513* 3513 3528 3533 3539 3545 3551
                                                                                  3558 3564 3573 3579 3584 3590 3595 3633 3637 3666*
                                                                                  3678* 3678 3682* 3682 3682* 3685* 3688* 3688 3688*
                                                                                  3689 3689 3690* 3746 3793 3817 3820 3862* 3872
                                                                                  3888 3893 3913 3989* 3994* 4029 4034 4280 4388*
                                                                                  4401 4585 4588* 4643* 4655 4851* 4887 4896 4902
                                                                                  4907 4913 4920 4931 5073 5234* 5234* 5239* 5868
                                                                                  5870 5870 5871 5878 5879 5881 6399* 6399 6404 6406
                                                                                  6418 6435 6436 6441* 6441 6509 6525 10488 10491*
                                                                                  10491 10493 10500 10508 10509 10590* 12686*
image                                  based           fixed bin(18,0)          array dcl 529 set ref 872* 872
in_a                                   constant        fixed bin(18,0)          initial dcl 2627 ref 3829 4491 9038 9201 9215 10962
                                                                                  10963 10983 10984 11003 11004 11015 11016
in_common                       006266 automatic       bit(1)                   dcl 12461 in procedure
                                                                                  "propagate_and_eliminate_assignment" set ref
                                                                                  12476* 12491
in_common                11(02)        based           bit(1)                   level 4 in structure "symbol" packed packed
                                                                                  unaligned dcl 1-844 in procedure
                                                                                  "fort_optimizing_cg" set ref 6667 7117 12476
in_common                 0(35)        based           bit(1)                   level 4 in structure "header" packed packed
                                                                                  unaligned dcl 1-436 in procedure
                                                                                  "fort_optimizing_cg" ref 1244 2241 2248
in_deaq                                constant        fixed bin(18,0)          initial dcl 2627 ref 4413 4413 6212
in_eaq                                 constant        fixed bin(18,0)          initial dcl 2627 ref 4413 6212
in_equiv_stmnt           11(08)        based           bit(1)                   level 3 packed packed unaligned dcl 1-844 set ref
                                                                                  8630
in_ia                                  constant        fixed bin(18,0)          initial dcl 2627 set ref 8776 8788 8790 12816*
                                                                                  12821* 12933 12952 12970
in_ind                                 constant        fixed bin(18,0)          initial dcl 2627 ref 3281 3456 3456 3524 4488 8864
                                                                                  9024 9031 9153 9193 9233 9407 9410 9410 9443
in_iq                                  constant        fixed bin(18,0)          initial dcl 2627 ref 12936 12955 12974
in_q                                   constant        fixed bin(18,0)          initial dcl 2627 set ref 4210 4221 4222 5838* 7084
                                                                                  8440* 8774 8786 8792 8805 9183 9183 9355 10738*
                                                                                  10740* 10808* 10811* 10812* 10821* 10824* 10828*
                                                                                  10845 10848 10857* 10885 10890* 10899* 10901*
                                                                                  10907* 10919* 10931 10933 10935 10991* 10992
                                                                                  10995* 11006* 11008* 11018* 11019 11023* 11033*
                                                                                  11304* 11306* 11313* 11317* 11482 11484 11503
                                                                                  11597* 11600
in_tq                                  constant        fixed bin(18,0)          initial dcl 2627 set ref 9183 9183 12766* 12784*
                                                                                  12804* 12898* 12899* 12907* 12910*
inc                                    parameter       fixed bin(18,0)          dcl 6225 in procedure "text_ref" ref 6219 6256 6325
                                                                                  6342 6342
inc                                    parameter       fixed bin(18,0)          dcl 940 in procedure "assign_address_offset" ref 933
                                                                                  944
inc                             003746 automatic       fixed bin(18,0)          dcl 5895 in procedure "emit_single" set ref 5897*
                                                                                  5899* 5912* 5915*
inc                                    parameter       fixed bin(18,0)          dcl 6075 in procedure "put_word" ref 6069 6108 6116
                                                                                  6129 6144 6159 6161 6161 6165 6166
inc                                    parameter       fixed bin(18,0)          dcl 6754 in procedure "increment_address" ref 6749
                                                                                  6759 6763
inc                                    parameter       fixed bin(18,0)          array dcl 6869 in procedure "make_both_addressable"
                                                                                  ref 6862 6880 6890
inc                             003736 automatic       fixed bin(18,0)          dcl 5866 in procedure "emit_inst" set ref 5878*
                                                                                  5881*
inc                             004034 automatic       fixed bin(18,0)          array dcl 6377 in procedure "emit_eis" set ref 6406*
                                                                                  6412* 6465* 6467 6467 6471 6472
incr                                   parameter       fixed bin(18,0)          dcl 5910 ref 5905 5912
incre                                  parameter       fixed bin(18,0)          dcl 10207 in procedure "bump_count" ref 10201 10213
                                                                                  10216
incre                                  parameter       fixed bin(18,0)          dcl 10226 in procedure "drop_count" ref 10220 10236
                                                                                  10238 10245 10247
increment                 0(04)        based           fixed bin(13,0)          array level 2 in structure "machine_instruction"
                                                                                  packed packed unaligned dcl 2765 in procedure
                                                                                  "interpreter" set ref 5878 6406
increment                 0(04) 000110 automatic       fixed bin(13,0)          level 2 in structure "inst" packed packed unaligned
                                                                                  dcl 6009 in procedure "emit_c_a_const" set ref
                                                                                  6021
increment                 0(04) 000026 external static fixed bin(13,0)          array level 2 in structure
                                                                                  "fort_opt_macros_$single_inst" packed packed
                                                                                  unaligned dcl 2610 in procedure "interpreter" ref
                                                                                  5897 5967 5967 5971
ind_to_a                        000531 constant        fixed bin(18,0)          initial array dcl 25-16 ref 9031
ind_word                               based           bit(36)                  dcl 2712 set ref 11641*
index                           000122 automatic       fixed bin(18,0)          dcl 13717 in procedure "list_initialize_symbol" set
                                                                                  ref 13740* 13786* 13786 13803 13808 13813 13818
index                                                  builtin function         dcl 645 in procedure "code_generator" ref 4636 6208
                                                                                  13937 13987
index                                  parameter       fixed bin(18,0)          dcl 8624 in procedure "flush_ref" set ref 8617 8628*
                                                                                  8629
index                           007056 automatic       fixed bin(18,0)          dcl 13596 in procedure "initialize_symbol" set ref
                                                                                  13620* 13667 13670* 13670 13680 13684 13688 13692
index_data                      002047 automatic       structure                level 1 unaligned dcl 2748 set ref 2858*
index_regs               41            based           structure                array level 3 in structure "loop_state" dcl 9806
                                                                                  in procedure "leave_loop"
index_regs               41            based           structure                array level 3 in structure "loop_state" dcl 2716
                                                                                  in procedure "interpreter" ref 9914
index_regs               41     004574 automatic       structure                array level 3 in structure "new_state" dcl 9514
                                                                                  in procedure "merge_state"
index_regs               41            based           structure                array level 3 in structure "loop_state" dcl 9839
                                                                                  in procedure "enter_loop"
index_regs               41     001511 automatic       structure                array level 3 in structure "current_ms" dcl 2714
                                                                                  in procedure "interpreter" set ref 4704* 8028*
                                                                                  8112* 8206* 9646 9646 9914*
index_regs               41            parameter       structure                array level 3 in structure "existing_state" dcl 9514
                                                                                  in procedure "merge_state"
index_regs               41            parameter       structure                array level 3 in structure "affected_ms" dcl 10301
                                                                                  in procedure "drop_all_ms_ref_counts"
index_regs               41            based           structure                array level 3 in structure "machine_state" dcl 1-620
                                                                                  in procedure "fort_optimizing_cg"
indicators                0(02) 000024 external static bit(1)                   array level 3 packed packed unaligned dcl 2578 ref
                                                                                  6091 6137 6204
indicators_valid         37            parameter       fixed bin(18,0)          level 3 in structure "existing_state" dcl 9514
                                                                                  in procedure "merge_state" set ref 9641 9641*
indicators_valid         37     001511 automatic       fixed bin(18,0)          level 3 in structure "current_ms" dcl 2714
                                                                                  in procedure "interpreter" set ref 3281* 3530 3879
                                                                                  3882* 3915* 4410 4427* 4429* 4658* 6204* 6208*
                                                                                  6212* 8050* 8120* 8218* 8282* 8438* 8480 8484*
                                                                                  8486* 8801* 9012* 9041* 9201 9401 9401 9401 9404
                                                                                  9404 9431*
indicators_valid         37     004574 automatic       fixed bin(18,0)          level 3 in structure "new_state" dcl 9514
                                                                                  in procedure "merge_state" set ref 9641
indp                            004324 automatic       pointer                  dcl 8455 in procedure "compare_index" set ref 8461*
                                                                                  8478*
indp                            004344 automatic       pointer                  dcl 8504 in procedure "increment_index" set ref
                                                                                  8509* 8517* 8529
induction_var                   004322 automatic       fixed bin(18,0)          dcl 8452 in procedure "compare_index" set ref 8460*
                                                                                  8461
induction_var            26            based           pointer                  level 2 in structure "loop" packed packed unaligned
                                                                                  dcl 2-100 in procedure "fort_optimizing_cg" ref
                                                                                  4691 10126 12317 12473
induction_var                   004340 automatic       fixed bin(18,0)          dcl 8496 in procedure "increment_index" set ref
                                                                                  8508* 8509 8529*
info                     15            based           structure                level 2 packed packed unaligned dcl 2-46
inhibit                   0(28)        based           bit(1)                   array level 2 packed packed unaligned dcl 2758 set
                                                                                  ref 3000
init                      0(24)        based           bit(1)                   level 3 packed packed unaligned dcl 21-23 set ref
                                                                                  2252*
init_auto_to_zero               000253 automatic       bit(1)                   dcl 505 set ref 845* 2932
init_info                              based           structure                level 1 dcl 28-30
init_pt                         007214 automatic       pointer                  dcl 14111 in procedure "initialize_common" set ref
                                                                                  14145* 14154 14154 14161*
init_pt                                parameter       pointer                  dcl 13703 in procedure "list_initialize_symbol" set
                                                                                  ref 13700 13827 13828 13829* 13829 13831 13832
                                                                                  13835 13839 13843 13848 13853* 13853 13853
init_pt                                parameter       pointer                  dcl 13593 in procedure "initialize_symbol" ref 13590
                                                                                  13619
init_val                        007216 automatic       fixed bin(18,0)          dcl 14112 set ref 14147* 14153* 14158* 14166 14172
                                                                                  14178 14180
initial                         000127 automatic       structure                level 1 dcl 13720 in procedure
                                                                                  "list_initialize_symbol"
initial                         007063 automatic       structure                level 1 dcl 13598 in procedure "initialize_symbol"
initial                  13(07)        based           fixed bin(18,0)          level 2 in structure "symbol" packed packed unsigned
                                                                                  unaligned dcl 1-844 in procedure
                                                                                  "fort_optimizing_cg" set ref 1029 1029 1126* 1394
                                                                                  1421 1550* 1752 3576 4317 4319 6332 6688 6694
                                                                                  10618 27-290 13649 13655 13771 13776 13922 14161
initial_in_polish                      based           structure                level 1 dcl 13725 in procedure
                                                                                  "list_initialize_symbol"
initial_in_polish                      based           structure                level 1 dcl 13603 in procedure "initialize_symbol"
initialed                 0(29)        based           bit(1)                   level 4 in structure "header" packed packed
                                                                                  unaligned dcl 1-436 in procedure
                                                                                  "fort_optimizing_cg" set ref 1199 1270 1332 1851
                                                                                  1851 2252 13570 13940 14132 14136* 14140 14149
initialed                 0(29)        based           bit(1)                   level 4 in structure "symbol" packed packed
                                                                                  unaligned dcl 1-844 in procedure
                                                                                  "fort_optimizing_cg" set ref 1571 13545 13578
inp                             006254 automatic       pointer                  dcl 12459 in procedure
                                                                                  "propagate_and_eliminate_assignment" set ref
                                                                                  12508* 12509 12511 12519 12522
inp                             000116 automatic       pointer                  dcl 7943 in procedure "get_usage_count" set ref
                                                                                  7960* 7960* 7961 7963* 7970
inp                             006550 automatic       pointer                  dcl 27-241 in procedure "disconnect_temporary" set
                                                                                  ref 27-249* 27-251 27-252 27-255 27-256* 27-256
                                                                                  27-268 27-269 27-273 27-275
input                           005772 automatic       pointer                  dcl 11847 set ref 11855* 11855* 11856 11856 11856
                                                                                  11858 11858* 11860
input_to                               based           structure                level 1 dcl 2-87 set ref 27-94 27-94
insert_operator          14(18)        based           fixed bin(18,0)          level 2 packed packed unsigned unaligned dcl 2-46
                                                                                  set ref 12226 12226* 12375 12375* 12482 12540
                                                                                  12540* 27-144* 27-149*
insert_statement         14            based           fixed bin(18,0)          level 2 packed packed unsigned unaligned dcl 2-46
                                                                                  set ref 27-143* 27-147*
inst                            000110 automatic       structure                level 1 dcl 6009 in procedure "emit_c_a_const" set
                                                                                  ref 6014* 6017
inst                            003764 automatic       structure                level 1 dcl 6055 in procedure "emit_operator_call"
                                                                                  set ref 6060* 6064
inst                                   parameter       structure                level 1 dcl 6075 in procedure "put_word" ref 6069
                                                                                  6101 6150
inst_address                    001472 automatic       structure                level 1 dcl 2685 in procedure "interpreter" set ref
                                                                                  4145* 4148 4148 4154 4154
inst_address                    000104 automatic       structure                level 1 dcl 7376 in procedure
                                                                                  "base_man_load_large_base" set ref 7444* 7447 7447
inst_address                    004106 automatic       structure                level 1 dcl 6854 in procedure "c_a_tag" set ref
                                                                                  6856* 6858
inst_address                    000100 automatic       structure                level 1 dcl 6830 in procedure "c_a_18" set ref 6837*
                                                                                  6844
inst_address                    004134 automatic       structure                level 1 dcl 7185 in procedure "base_man_load_pr" set
                                                                                  ref 7243* 7253 7253 7262 7262 7264 7264 7272 7272
                                                                                  7281 7281
inst_address                    000110 automatic       structure                level 1 packed packed unaligned dcl 7473
                                                                                  in procedure "base_man_load_large_base_no_flush"
                                                                                  set ref 7475* 7478 7478
inst_address                    000123 automatic       structure                level 1 packed packed unaligned dcl 7586
                                                                                  in procedure "base_man_store_temp" set ref 7593*
                                                                                  7600 7600 7627 7627 7643 7643 7655 7655
inst_address                    000101 automatic       structure                level 1 dcl 6778 in procedure "c_a" set ref 6781*
                                                                                  6818
inst_number                     004542 automatic       fixed bin(18,0)          dcl 9339 set ref 9346* 9348* 9353*
inst_op_code                           parameter       fixed bin(18,0)          dcl 6177 ref 6172 6187
inst_pos                        004040 automatic       fixed bin(18,0)          dcl 6395 set ref 6434* 6444 6446
instruction                            based           fixed bin(17,0)          array level 2 in structure "forward_refs" packed
                                                                                  packed unaligned dcl 568 in procedure
                                                                                  "code_generator" set ref 728 6338*
instruction                            based           structure                array level 1 dcl 2808 in procedure "interpreter"
int_image                              based           fixed bin(35,0)          dcl 2706 ref 4633 4824 6284 6289 8470 10586 10637
                                                                                  11429
int_mode                        000756 constant        fixed bin(4,0)           initial dcl 4-106 set ref 2454 2952 4031* 4037 4630
                                                                                  4822 8473* 8511* 9435 10522* 11299* 11490* 11586*
                                                                                  11593* 12603 12701 12738 12744 12848 12854 13275*
                                                                                  13432*
integer                  10(20)        based           bit(1)                   level 5 packed packed unaligned dcl 1-844 set ref
                                                                                  2455*
interpreter_called        0(06)        based           bit(1)                   level 4 packed packed unaligned dcl 2718 set ref
                                                                                  3295 3987 5236*
interpreter_return        6            based           label variable           local level 2 dcl 2718 set ref 3297 3995 5237*
invariant                       004323 automatic       fixed bin(18,0)          dcl 8452 set ref 8462* 8463 8473* 8482*
invp                            004326 automatic       pointer                  dcl 8455 set ref 8463* 8470 8470 8473 8473
ip                                     parameter       fixed bin(3,0)           dcl 8139 ref 8133 8143
ipol                            006566 automatic       fixed bin(18,0)          dcl 27-287 set ref 27-290* 27-292 27-293
iquad                                  parameter       fixed bin(18,0)          dcl 11871 in procedure "reset_scan" set ref 11866
                                                                                  11942* 11953*
iquad                           000661 automatic       fixed bin(18,0)          dcl 2524 in procedure "interpreter" set ref 3306
                                                                                  3309* 4061* 4785 4785 4785 13006* 13010* 13021*
is_addressable            0(14)        based           bit(1)                   level 3 in structure "symbol" packed packed
                                                                                  unaligned dcl 1-844 in procedure
                                                                                  "fort_optimizing_cg" set ref 1121* 1239* 1418*
                                                                                  1444* 1514* 1544* 1548* 1592* 1627* 1646* 1677*
                                                                                  2943* 6699*
is_addressable            0(14)        based           bit(1)                   level 3 in structure "temporary" packed packed
                                                                                  unaligned dcl 1-1005 in procedure
                                                                                  "fort_optimizing_cg" set ref 5506* 5715* 5811*
is_addressable            0(14)        based           bit(1)                   level 3 in structure "node" packed packed unaligned
                                                                                  dcl 1-63 in procedure "fort_optimizing_cg" set ref
                                                                                  965* 4307 4440 6041 6114 6467 6552 6877 7204 7336
                                                                                  8044 8796
is_addressable            0(14)        based           bit(1)                   level 3 in structure "label" packed packed unaligned
                                                                                  dcl 1-530 in procedure "fort_optimizing_cg" set
                                                                                  ref 1144* 2485*
is_addressable            0(14)        based           bit(1)                   level 3 in structure "constant" packed packed
                                                                                  unaligned dcl 1-256 in procedure
                                                                                  "fort_optimizing_cg" set ref 12-83*
is_addressable            0(14)        based           bit(1)                   level 3 in structure "header" packed packed
                                                                                  unaligned dcl 1-436 in procedure
                                                                                  "fort_optimizing_cg" set ref 1357*
is_addressable            0(14)        based           bit(1)                   level 3 in structure "array_ref" packed packed
                                                                                  unaligned dcl 1-155 in procedure
                                                                                  "fort_optimizing_cg" set ref 2927* 10626*
is_addressable            0(14)        based           bit(1)                   level 3 in structure "char_constant" packed packed
                                                                                  unaligned dcl 1-316 in procedure
                                                                                  "fort_optimizing_cg" set ref 2911*
is_string                 6            based           bit(1)                   array level 4 dcl 52 set ref 10499* 10507*
item                      5     002047 automatic       pointer                  array level 3 in structure "index_data" packed
                                                                                  packed unaligned dcl 2748 in procedure
                                                                                  "interpreter" set ref 8351 8358* 11996 12037
item                                   parameter       pointer                  array level 2 in structure "item_st" packed packed
                                                                                  unaligned dcl 12056 in procedure "sort_globals"
                                                                                  set ref 12072 12075 12079 12080* 12080 12081*
item                      5     001675 automatic       pointer                  array level 3 in structure "ptr_data" packed packed
                                                                                  unaligned dcl 2737 in procedure "interpreter" set
                                                                                  ref 7805 7812* 11988 12026
item_chain                             parameter       pointer                  dcl 12158 ref 12155 12168
item_st                   5     001675 automatic       structure                level 2 in structure "ptr_data" dcl 2737
                                                                                  in procedure "interpreter" set ref 12013*
item_st                   5     002047 automatic       structure                level 2 in structure "index_data" dcl 2748
                                                                                  in procedure "interpreter" set ref 12014*
item_st                                parameter       structure                level 1 dcl 12056 in procedure "sort_globals" set
                                                                                  ref 12051
itp                                    based           structure                level 1 dcl 19-18
itp_list                  2     002543 automatic       structure                array level 2 dcl 2829 set ref 4284 11627* 11641
itp_mod                   0(30)        based           bit(6)                   level 2 in structure "itp" packed packed unaligned
                                                                                  dcl 19-18 in procedure "code_generator" ref 923
                                                                                  927
itp_mod                   2(30) 002543 automatic       bit(6)                   array level 3 in structure "arg_list" packed packed
                                                                                  unaligned dcl 2829 in procedure "interpreter" set
                                                                                  ref 11632*
j                               000322 automatic       fixed bin(18,0)          dcl 534 in procedure "code_generator" set ref 728*
                                                                                  729 729
j                               005312 automatic       fixed bin(18,0)          dcl 10303 in procedure "drop_all_ms_ref_counts" set
                                                                                  ref 10312* 10313 10313*
j                               004356 automatic       fixed bin(3,0)           dcl 8543 in procedure "reserve_regs" set ref 8555*
                                                                                  8556* 8557 8558 8562* 8563* 8564 8565 8566 8568
j                               004762 automatic       fixed bin(18,0)          dcl 9516 in procedure "merge_state" set ref 9563*
                                                                                  9564 9564 9566 9566 9567 9568 9569 9570 9571 9603*
                                                                                  9603* 9607 9616* 9617 9617*
j                               006355 automatic       fixed bin(17,0)          dcl 12649 in procedure "process_loop_end_lists" set
                                                                                  ref 12662* 12664* 12664 12666
j                               004250 automatic       fixed bin(3,0)           dcl 8195 in procedure "xr_man_add_const" set ref
                                                                                  8206* 8208* 8210 8218 8220 8221 8222 8227
j                               006057 automatic       fixed bin(17,0)          dcl 12060 in procedure "sort_globals" set ref 12073*
                                                                                  12075 12079 12080 12083 12085
j                               000101 automatic       fixed bin(18,0)          dcl 7887 in procedure "get_free_reg" set ref 7896*
                                                                                  7913* 7920* 7927 7929
j                               000107 automatic       fixed bin(3,0)           dcl 6945 in procedure "base_man_load_any_pr" set ref
                                                                                  6957* 6969* 6972 6977 6979
jump_false_op                          constant        fixed bin(18,0)          initial dcl 4-197 ref 4785
jump_op                                constant        fixed bin(18,0)          initial dcl 4-197 ref 27-141
jump_true_op                           constant        fixed bin(18,0)          initial dcl 4-197 ref 4785
k                               000101 automatic       fixed bin(3,0)           dcl 7497 in procedure "base_man_load_arg_ptr" set
                                                                                  ref 7503* 7506* 7515*
k                               006060 automatic       fixed bin(17,0)          dcl 12060 in procedure "sort_globals" set ref 12071*
                                                                                  12072 12073 12080 12081 12085*
k                               007140 automatic       fixed bin(18,0)          dcl 13963 in procedure "compile_link" set ref 13987*
                                                                                  13989 13992 13998 14004
k                               000110 automatic       fixed bin(3,0)           dcl 6945 in procedure "base_man_load_any_pr" set ref
                                                                                  6957* 6960* 6981* 6999* 7036* 7039*
k                               000102 automatic       fixed bin(3,0)           dcl 7374 in procedure "base_man_load_large_base" set
                                                                                  ref 7389* 7390 7390 7390 7392 7392 7394 7395*
                                                                                  7406* 7407 7409 7414* 7418 7420* 7424 7426* 7430
                                                                                  7432* 7437 7437* 7440* 7440*
k                               004223 automatic       fixed bin(3,0)           dcl 8101 in procedure "xr_man_load_const" set ref
                                                                                  8106* 8108 8109 8112*
k                               000676 automatic       fixed bin(18,0)          dcl 2540 in procedure "interpreter" set ref 3026*
                                                                                  3028 3186* 3191* 3200 3206 3212 3218 3224 3230
                                                                                  3233 3245* 3247 3247 3249 3856* 3858 3931* 3932
                                                                                  3935 4115* 4116 4118 4265* 4266* 4267 4273 4274
                                                                                  4316* 4317 4317* 4317 4319 4353* 4358* 4359 4361
                                                                                  4362 4480* 4481 4481 4481 4486* 4498* 4502 4504
                                                                                  4508* 5052* 5057
k                               000101 automatic       fixed bin(3,0)           dcl 7539 in procedure "base_man_load_desc_ptr" set
                                                                                  ref 7545* 7548* 7557*
l_bound                   1     006754 automatic       fixed bin(18,0)          array level 3 in structure "descriptor" dcl 13322
                                                                                  in procedure "make_entry_descriptor" set ref
                                                                                  13403* 13415* 13417*
l_bound                   1     000117 automatic       fixed bin(18,0)          array level 3 in structure "descriptor" dcl 13173
                                                                                  in procedure "make_symbol_descriptor" set ref
                                                                                  13246* 13258* 13260*
label                     0(18)        based           fixed bin(18,0)          level 2 in structure "opt_statement" packed packed
                                                                                  unsigned unaligned dcl 2-176 in procedure
                                                                                  "fort_optimizing_cg" set ref 4079 4081 11966
                                                                                  11970*
label                                  based           structure                level 1 dcl 1-530 in procedure "fort_optimizing_cg"
                                                                                  set ref 2480 2480
label_node                      000744 constant        fixed bin(4,0)           initial dcl 4-87 set ref 2480*
large_address             0(20)        based           bit(1)                   level 3 in structure "array_ref" packed packed
                                                                                  unaligned dcl 1-155 in procedure
                                                                                  "fort_optimizing_cg" set ref 10660* 10660
large_address             0(20)        based           bit(1)                   level 3 in structure "temporary" packed packed
                                                                                  unaligned dcl 1-1005 in procedure
                                                                                  "fort_optimizing_cg" set ref 5715 6646 7598
large_address             0(20)        based           bit(1)                   level 3 in structure "node" packed packed unaligned
                                                                                  dcl 1-63 in procedure "fort_optimizing_cg" set ref
                                                                                  964* 6725 6759
large_address             0(20)        based           bit(1)                   level 3 in structure "symbol" packed packed
                                                                                  unaligned dcl 1-844 in procedure
                                                                                  "fort_optimizing_cg" set ref 6681 7115 10631 10660
                                                                                  13479 13490 13625 13748 13927
large_base_reg                  000124 automatic       fixed bin(3,0)           dcl 7587 set ref 7607* 7608 7611* 7618 7618* 7623
                                                                                  7625 7626
large_offset              0(34)        based           bit(1)                   level 3 packed packed unaligned dcl 1-155 ref 6576
last                                   parameter       fixed bin(18,0)          dcl 7882 in procedure "get_free_reg" ref 7877 7899
last                            006436 automatic       pointer                  dcl 27-71 in procedure "chain_input" set ref 27-82*
                                                                                  27-83
last                      1            based           pointer                  level 2 in structure "primary" packed packed
                                                                                  unaligned dcl 2-234 in procedure
                                                                                  "fort_optimizing_cg" set ref 12400* 12404*
last                            006552 automatic       pointer                  dcl 27-241 in procedure "disconnect_temporary" set
                                                                                  ref 27-247* 27-255* 27-266 27-268 27-269
last                            006667 automatic       fixed bin(18,0)          dcl 12989 in procedure "start_subprogram" set ref
                                                                                  13040* 13043
last                     13(18)        based           fixed bin(18,0)          array level 3 in structure "subprogram" packed
                                                                                  packed unsigned unaligned dcl 1-753 in procedure
                                                                                  "fort_optimizing_cg" set ref 1204 1206 1207* 1276
                                                                                  1278 1279* 1306 1308 1309* 1369 1371 1372* 1604
                                                                                  1606 1607*
last_assigned_mode                     constant        fixed bin(4,0)           initial dcl 4-106 ref 3501
last_auto_loc                   000324 automatic       fixed bin(18,0)          dcl 549 set ref 1013 1047* 1095* 1180 1180* 1180
                                                                                  1184 1186* 1186 1264 1265* 1265 1448 1449* 1449
                                                                                  1453 1458 1459* 1459 1469 1469* 1469 1472 1473*
                                                                                  1473 1474 1650* 1650 1652* 1653* 1653 1654 1681*
                                                                                  1681 1683* 1684 1685* 1685 1686 1698 1702* 1943*
                                                                                  1943 2932 5442 5495 5499* 13025* 13025 13025 13026
                                                                                  13027* 13028* 13028 13030 14252
last_base                       000744 constant        fixed bin(18,0)          initial dcl 2599 set ref 2860 3223 4265* 4353* 6959
                                                                                  6981* 6999* 7026* 7039* 7297 7389 7409 7418 7424
                                                                                  7430 7440* 7505 7515* 7547 7557* 7608 7637* 7679
                                                                                  7700 7761 7776 8595 8713 9556 9692 9773 9814 9849
                                                                                  9881 9903 9982 10274 10334
last_c                          006366 automatic       pointer                  dcl 12651 set ref 12665* 12669
last_constant           101            based           fixed bin(18,0)          array level 3 dcl 47 set ref 12-91 12-93*
last_def                        000271 automatic       bit(18)                  dcl 531 set ref 13894* 13905 14211 14211 14215
                                                                                  14236* 14268 14269
last_dynamic_temp       163     004574 automatic       fixed bin(18,0)          level 3 in structure "new_state" dcl 9514
                                                                                  in procedure "merge_state" set ref 9677
last_dynamic_temp       163     001511 automatic       fixed bin(18,0)          level 3 in structure "current_ms" dcl 2714
                                                                                  in procedure "interpreter" set ref 3233 3233*
                                                                                  4876* 5850* 11224
last_dynamic_temp       163            parameter       fixed bin(18,0)          level 3 in structure "existing_state" dcl 9514
                                                                                  in procedure "merge_state" set ref 9677 9677*
last_entry_name          76            based           fixed bin(18,0)          level 2 dcl 47 ref 11786
last_fu                         006004 automatic       pointer                  dcl 11877 set ref 11908* 11911
last_header                     000214 automatic       pointer                  initial dcl 496 set ref 496* 2008 2009*
last_index                      000750 constant        fixed bin(18,0)          initial dcl 2599 set ref 2861 3211 4504 4704* 8016
                                                                                  8028* 8112* 8171 8206* 8242 8586 8682 9539 9687
                                                                                  9781 9818 9853 9885 9908 9966 10268 10323
last_label                4(18)        based           fixed bin(18,0)          level 2 packed packed unsigned unaligned dcl 1-753
                                                                                  set ref 2489 2491 2492*
last_listp                      000144 automatic       pointer                  dcl 2234 set ref 2270* 2271 2272
last_namelist                   000211 automatic       fixed bin(18,0)          dcl 495 set ref 668* 1424 1426 1427*
last_o                          006316 automatic       pointer                  dcl 12563 set ref 12581* 12582 12583 12585
last_operator                   006357 automatic       fixed bin(18,0)          dcl 12650 in procedure "process_loop_end_lists" set
                                                                                  ref 12658* 12659*
last_operator                          parameter       fixed bin(18,0)          dcl 12559 in procedure "insert_operator_after" ref
                                                                                  12556 12581 12584
last_pos                        000202 automatic       fixed bin(18,0)          dcl 488 set ref 714* 798
last_pr_locked_for_pl1_ops_arg  002046 automatic       fixed bin(3,0)           dcl 2746 set ref 2859* 6633 6633 6730 6730 7297*
                                                                                  8582*
last_quad                10(18)        based           fixed bin(18,0)          level 2 packed packed unsigned unaligned dcl 1-753
                                                                                  ref 11942 13006
last_statement           13(18)        based           fixed bin(18,0)          level 2 packed packed unsigned unaligned dcl 2-46
                                                                                  ref 12657 27-137
last_subprogram          73            based           fixed bin(18,0)          level 2 dcl 47 ref 2913
last_symbol               3(18)        based           fixed bin(18,0)          level 2 packed packed unsigned unaligned dcl 1-753
                                                                                  set ref 2459 2460* 13298 13299*
last_unit                14            based           pointer                  level 2 packed packed unaligned dcl 2-100 ref 12654
                                                                                  27-187
lbl                             005346 automatic       pointer                  dcl 10398 in procedure "alloc_label" set ref 10401*
                                                                                  10403 10403 10406 10439
lbl                             006020 automatic       fixed bin(18,0)          dcl 11964 in procedure "get_label" set ref 11966*
                                                                                  11968 11970* 11971 11974
lbl                                    parameter       fixed bin(18,0)          dcl 9455 in procedure "save_state" ref 9450 9458
lbl                             000726 automatic       pointer                  dcl 2546 in procedure "interpreter" set ref 4464*
                                                                                  4470 4470 4473
lbound                                                 builtin function         dcl 645 ref 9646 9660
lca                             000424 constant        fixed bin(18,0)          initial dcl 25-16 set ref 12810* 12823*
lchain                                 based           structure                level 1 dcl 2-94 set ref 12669 12670
lcq                                    constant        bit(10)                  initial dcl 6234 ref 6296 6305
ldq                                    constant        bit(10)                  initial dcl 6234 ref 6296 6305
left                                   based           bit(18)                  array level 2 in structure "reloc_halfs" packed
                                                                                  packed unaligned dcl 562 in procedure
                                                                                  "code_generator" set ref 923* 927* 2124* 2241*
                                                                                  2243* 2273* 14266*
left                            000663 automatic       fixed bin(18,0)          dcl 2527 in procedure "interpreter" set ref 3013*
                                                                                  3047 3053* 3058* 3058* 3070 3088 3090* 3106 3114
                                                                                  3119 3122 3126* 3132* 3135 3138 3302 3341* 3346*
                                                                                  3358 3666 3676 3682 3688 3711 3756* 3765* 3799*
                                                                                  3803* 3807* 3862 3862 3888* 3896* 3920 3925 3931
                                                                                  3932 3965 4229 4235* 4239* 4239* 4388 4466 4466
                                                                                  4532* 4536* 4588 4643 4842 4851 4868 5081 6418
                                                                                  10487 10493* 10494
left                                   based           fixed bin(17,0)          level 2 in structure "half" packed packed unaligned
                                                                                  dcl 2825 in procedure "interpreter" ref 6264 6278
                                                                                  6292
left                                   based           fixed bin(17,0)          array level 2 in structure "macro_instruction"
                                                                                  packed packed unaligned dcl 2758 in procedure
                                                                                  "interpreter" set ref 3013 3132 3337 10493 10509
left                                   based           fixed bin(17,0)          array level 2 in structure "text_halfs" packed
                                                                                  packed unaligned dcl 558 in procedure
                                                                                  "code_generator" set ref 729* 729 4937* 4948*
                                                                                  4952* 4994* 5012* 5057* 5934* 5971* 5971 6108*
                                                                                  6166* 6166 6266* 6278* 6312* 6325* 6342* 6342
                                                                                  6472* 6472 10461* 14260* 14268* 14278
left_rel                  0(12)        based           bit(6)                   array level 2 packed packed unaligned dcl 2819 set
                                                                                  ref 4116* 4949* 4953* 4995* 5013* 5060* 5990*
                                                                                  6019* 6152* 6269* 6280* 6314* 6457* 7043* 7046*
                                                                                  7122* 10462* 10473*
left_shift_chain         40            based           pointer                  level 2 packed packed unaligned dcl 2-100 set ref
                                                                                  12363 12416 12417*
len                                    parameter       fixed bin(18,0)          dcl 14112 in procedure "initialize_common" ref 14108
                                                                                  14127
len                             006653 automatic       fixed bin(18,0)          dcl 12843 in procedure "lhs_fld" set ref 12877*
                                                                                  12878 12878 12880 12894* 12894 12896 12905 12905
                                                                                  12911 12919* 12919* 12953* 12956
len                             006631 automatic       fixed bin(18,0)          dcl 12734 in procedure "rhs_fld" set ref 12761*
                                                                                  12762 12762 12764 12781* 12781 12782 12788 12793*
                                                                                  12793* 12798 12818
len                                    parameter       fixed bin(18,0)          dcl 12717 in procedure "generate_mask" ref 12712
                                                                                  12721
len                             004030 automatic       fixed bin(18,0)          array dcl 6375 in procedure "emit_eis" set ref 6424*
                                                                                  6424 6455 6515* 6521* 6525* 6529 6529*
len                             005412 automatic       pointer                  dcl 10537 in procedure "optimized_subscript" set ref
                                                                                  10583* 10584 10586
length                    7            based           fixed bin(24,0)          level 2 in structure "array_ref" dcl 1-155
                                                                                  in procedure "fort_optimizing_cg" set ref 2932*
                                                                                  2934* 10593* 10597* 10604* 10608* 11164 13143
                                                                                  13145
length                    0(24)        based           bit(12)                  array level 2 in structure "descriptor" packed
                                                                                  packed unaligned dcl 6380 in procedure "emit_eis"
                                                                                  set ref 6418 6453* 6455* 6509 6525
length                                                 builtin function         dcl 13967 in procedure "compile_link" ref 13969
                                                                                  13998
length                    1            based           fixed bin(24,0)          level 2 in structure "create_entry" dcl 21-23
                                                                                  in procedure "code_generator" set ref 2253*
length                                 based           fixed bin(35,0)          level 2 in structure "create_init_entry" dcl 21-61
                                                                                  in procedure "code_generator" set ref 13581*
                                                                                  13828* 13831* 13835 13839 13843 13848 13853
length                   12            based           fixed bin(24,0)          level 2 in structure "temporary" dcl 1-1005
                                                                                  in procedure "fort_optimizing_cg" set ref 5394*
                                                                                  5570 5594* 5594 5596* 5626 5634* 5837 5838 11429*
                                                                                  11437* 13150 13152
length                          005614 automatic       pointer                  dcl 11419 in procedure "assign_length_to_cat_result"
                                                                                  set ref 11422* 11424 11429
length                                                 builtin function         dcl 1926 in procedure "create_storage_entry" ref
                                                                                  2124 2241 2243 2273
length                                                 builtin function         dcl 2848 in procedure "interpreter" ref 3381 3400
length                    6            based           fixed bin(24,0)          level 2 in structure "header" dcl 1-436 in procedure
                                                                                  "fort_optimizing_cg" set ref 1344 1345 1818 1820
                                                                                  1822 1830 1832 1834 1869 2017 2017 2022 2022 2022
                                                                                  2022 2027 2027 2027* 2027 2103 2129* 2253
length                                 parameter       fixed bin(17,0)          dcl 13-12 in procedure "create_node" ref 13-10 13-20
                                                                                  13-23 13-24
length                                                 builtin function         dcl 13188 in procedure "make_symbol_descriptor" ref
                                                                                  13291
length                                                 builtin function         dcl 8544 in procedure "reserve_regs" ref 8551
length                                                 builtin function         dcl 14068 in procedure "name_assign" ref 14072 14079
                                                                                  14089
length                    4            based           fixed bin(18,0)          level 2 in structure "char_constant" packed packed
                                                                                  unsigned unaligned dcl 1-316 in procedure
                                                                                  "fort_optimizing_cg" set ref 752 895 900 902 2913*
                                                                                  2934 4043 4598 4601 4604 4611 4614 4617 4835 6252
                                                                                  12706 13131 13688 13692 13843 13848
lib                             000323 automatic       fixed bin(18,0)          dcl 534 set ref 748* 748* 749*
lib_list_ptr                    000222 automatic       pointer                  dcl 498 set ref 741* 744 745 751 752
lib_pos                         000201 automatic       fixed bin(18,0)          dcl 488 set ref 667* 740* 741 742 781 781 781
lib_pt                          000164 automatic       pointer                  dcl 486 set ref 749* 750 755
lib_reloc_ptr                   000234 automatic       pointer                  dcl 499 set ref 742* 753
library                                based           structure                level 1 dcl 1-605
limit                     1     000127 automatic       fixed bin(35,0)          level 2 in structure "initial" dcl 13720
                                                                                  in procedure "list_initialize_symbol" set ref
                                                                                  13783* 13785* 13786
limit                     1     007063 automatic       fixed bin(18,0)          level 2 in structure "initial" dcl 13598
                                                                                  in procedure "initialize_symbol" set ref 13663*
                                                                                  13665
limit                                  parameter       fixed bin(18,0)          dcl 2285 in procedure "relocate" ref 2280 2343 2343
                                                                                  2343
limit                     1            based           fixed bin(35,0)          level 2 in structure "initial_in_polish" dcl 13725
                                                                                  in procedure "list_initialize_symbol" ref 13783
limit                     1            based           fixed bin(18,0)          level 2 in structure "initial_in_polish" dcl 13603
                                                                                  in procedure "initialize_symbol" ref 13663
limit                           007061 automatic       fixed bin(18,0)          dcl 13596 in procedure "initialize_symbol" set ref
                                                                                  13656* 13665* 13665 13667
link                                   based           structure                level 1 dcl 15-11
link_base                       000216 automatic       pointer                  dcl 498 set ref 761* 792 13470 13479 13481 13490
                                                                                  13492 13501* 13508 13880 13881 13882 13883 14021
link_base_ptr                   000130 automatic       pointer                  level 2 dcl 58 set ref 792*
link_begin                6            based           bit(18)                  level 2 packed packed unaligned dcl 15-52 set ref
                                                                                  13881*
link_pos                        000172 automatic       fixed bin(18,0)          dcl 488 in procedure "code_generator" set ref 667*
                                                                                  768 797 817 1697* 1703* 1709 1713* 1713 1715* 1715
                                                                                  1717* 1717 1717 1718 1725 1735 1744 1752* 1767*
                                                                                  1770* 1770 1772 1874 1875* 1875 1876 2187 13882
link_pos                               parameter       fixed bin(15,0)          dcl 13953 in procedure "compile_link" ref 13950
                                                                                  14021 14022 14038
link_ptr                        007132 automatic       pointer                  dcl 13960 set ref 14021* 14038 14039 14042
link_reloc_base                 000230 automatic       pointer                  dcl 499 set ref 762* 793 13886 14022
link_reloc_base_ptr       2     000130 automatic       pointer                  level 2 dcl 58 set ref 793*
link_reloc_ptr                  007136 automatic       pointer                  dcl 13960 set ref 14022* 14040 14043
linkage_length            5(18)        based           bit(18)                  level 2 packed packed unaligned dcl 16-10 set ref
                                                                                  817*
linkage_offset            5            based           bit(18)                  level 2 packed packed unaligned dcl 16-10 set ref
                                                                                  816*
linkage_pad                     000325 automatic       fixed bin(18,0)          dcl 551 set ref 1104* 1172 1172* 1172 1174 1176*
                                                                                  1176 1256 1258* 1258 1697 1941* 1941 2119 2120*
                                                                                  2120 2155* 2155
linkage_section_lng       6(18)        based           bit(18)                  level 2 packed packed unaligned dcl 15-52 set ref
                                                                                  13882*
linkrel                         000176 automatic       fixed bin(18,0)          dcl 488 set ref 760* 761 762 768 816 818
list                    113(10)        based           bit(1)                   level 5 packed packed unaligned dcl 47 ref 675
list_head                              parameter       pointer                  dcl 12273 in procedure "alloc_inner" set ref 12270
                                                                                  12281 12290 12291*
list_head                       006152 automatic       pointer                  dcl 12194 in procedure "allocate" set ref 12241*
                                                                                  12242* 12243 12248* 12249* 12250
list_init_info                         based           structure                level 1 dcl 28-41
list_size                 2(18)        based           fixed bin(18,0)          level 2 packed packed unsigned unaligned dcl 28-41
                                                                                  set ref 14155*
listing                 113(07)        based           structure                level 4 packed packed unaligned dcl 47
listp                           000102 automatic       pointer                  dcl 1922 set ref 1936 1936 1937 1939 1939 1948 1948
                                                                                  1959 2122 2153 2154 2160 2166 2186* 2187 2187 2187
                                                                                  2189 2236* 2240 2246 2247 2248 2249 2250 2251 2252
                                                                                  2253 2254 2255 2256 2256 2259
llr_18_instruction              000340 constant        bit(36)                  initial dcl 7069 ref 7087
lng                       1(18)        based           fixed bin(17,0)          array level 3 packed packed unaligned dcl 574 set
                                                                                  ref 752*
load_base                       000570 constant        fixed bin(18,0)          initial array dcl 25-16 set ref 6985 7013 7030 7049
                                                                                  7090* 7103* 7230 7235 7346 7447 7478 7522 7564
load_ind                        000676 constant        fixed bin(18,0)          initial dcl 25-16 set ref 9440*
load_inst                       000556 constant        fixed bin(18,0)          initial array dcl 25-16 set ref 4210 4221 8799* 9231
                                                                                  10931* 10933* 10962* 10983* 11003* 11015* 11482
                                                                                  12933* 12936* 12952* 12955* 12970* 12974*
load_opnd                       004265 automatic       fixed bin(18,0)          dcl 8266 set ref 8269* 8288* 8292*
load_p                          004260 automatic       pointer                  dcl 8261 set ref 8268* 8269 8277 8279* 8286
load_packed_base                000441 constant        fixed bin(18,0)          initial array dcl 25-16 set ref 7082* 7100* 7123*
load_preg_op                           constant        fixed bin(18,0)          initial dcl 4-197 ref 12223
load_segment_num                000433 constant        fixed bin(18,0)          initial array dcl 25-16 set ref 7091* 7104*
load_xreg_op                           constant        fixed bin(18,0)          initial dcl 4-197 ref 12214
loc                             000165 automatic       fixed bin(18,0)          dcl 2290 in procedure "relocate" set ref 2292* 2300
                                                                                  2307* 2311* 2318* 2322* 2325* 2325 2325 2329 2341
                                                                                  2343
loc                             004076 automatic       fixed bin(18,0)          dcl 6757 in procedure "increment_address" set ref
                                                                                  6763* 6765
loc                             000127 automatic       fixed bin(18,0)          dcl 5489 in procedure "create_temp" set ref 5495*
                                                                                  5497 5499 5521*
loc                             000133 automatic       fixed bin(18,0)          dcl 1080 in procedure "assign_storage" set ref 1343*
                                                                                  1350 1578* 1589
loc                             000102 automatic       fixed bin(18,0)          dcl 1796 in procedure "alloc_external" set ref 1814*
                                                                                  1857 1874* 1879
loc                             000100 automatic       fixed bin(18,0)          dcl 955 in procedure "set_address_offset" set ref
                                                                                  963* 967
local                           001675 automatic       fixed bin(17,0)          level 2 in structure "ptr_data" dcl 2737
                                                                                  in procedure "interpreter" set ref 7155* 7155
                                                                                  7163* 7163 7166* 7166 7305 7787* 7787 7788 8720*
                                                                                  8720 9572* 9572 9575* 9575 9701* 9790* 11985*
local                           002047 automatic       fixed bin(17,0)          level 2 in structure "index_data" dcl 2748
                                                                                  in procedure "interpreter" set ref 8073* 8073
                                                                                  8088* 8088 8224 8370* 8370 8371 8688* 8688 9547*
                                                                                  9547 9552* 9552 9701* 9790* 11993*
location                  1            based           fixed bin(18,0)          level 3 in structure "constant" packed packed
                                                                                  unsigned unaligned dcl 1-256 in procedure
                                                                                  "fort_optimizing_cg" set ref 871*
location                        005416 automatic       fixed bin(17,0)          level 2 in structure "constant_address" packed
                                                                                  packed unaligned dcl 10540 in procedure
                                                                                  "optimized_subscript" set ref 10649* 10650
location                        000124 automatic       fixed bin(18,0)          dcl 2095 in procedure "create_storage_entry" set ref
                                                                                  2119* 2125 2131 2143 2183* 2186 2189* 2190
location                  1            based           fixed bin(18,0)          level 3 in structure "label" packed packed unsigned
                                                                                  unaligned dcl 1-530 in procedure
                                                                                  "fort_optimizing_cg" set ref 729 1417* 3729 10385*
                                                                                  14256 14281
location                  5            based           fixed bin(24,0)          level 2 in structure "symbol" dcl 1-844 in procedure
                                                                                  "fort_optimizing_cg" set ref 1460* 1460 1472*
                                                                                  1480* 1480 1505 1540* 1589* 1632* 1805 1898* 1901*
                                                                                  4168 4168 4215 4215 6683 7115 10631 11481* 13481
                                                                                  13492 13625 13744 13748 13927
location                               based           fixed bin(18,0)          level 2 in structure "create_entry" packed packed
                                                                                  unsigned unaligned dcl 21-23 in procedure
                                                                                  "code_generator" set ref 2240*
location                  5            based           bit(18)                  level 2 in structure "opt_statement" packed packed
                                                                                  unaligned dcl 2-176 in procedure
                                                                                  "fort_optimizing_cg" set ref 4084*
location                  5            based           fixed bin(24,0)          level 2 in structure "temporary" dcl 1-1005
                                                                                  in procedure "fort_optimizing_cg" set ref 5585*
                                                                                  5585 6646 7611 7618 7642 7654
location                  1            based           fixed bin(18,0)          level 3 in structure "char_constant" packed packed
                                                                                  unsigned unaligned dcl 1-316 in procedure
                                                                                  "fort_optimizing_cg" set ref 751 901* 2919* 10618
location                  5            based           fixed bin(24,0)          level 2 in structure "header" dcl 1-436 in procedure
                                                                                  "fort_optimizing_cg" set ref 1174* 1184* 1256*
                                                                                  1264* 1268 1302* 1350* 1814 1898 1901 1933 1937
                                                                                  2119* 2122* 2130* 2240 13470 13937 13940
location                  5            based           fixed bin(24,0)          level 2 in structure "node" dcl 1-63 in procedure
                                                                                  "fort_optimizing_cg" set ref 944 967* 1735* 1735
                                                                                  1744* 1744 2339 6681 6683 6738 6763 6765*
lock_it                                parameter       bit(1)                   dcl 7178 ref 7171 7293
locked                    1     001675 automatic       fixed bin(17,0)          level 2 in structure "ptr_data" dcl 2737
                                                                                  in procedure "interpreter" set ref 7702* 7702 7703
                                                                                  8582* 11985*
locked                    1     002047 automatic       fixed bin(17,0)          level 2 in structure "index_data" dcl 2748
                                                                                  in procedure "interpreter" set ref 8308* 8308 8309
                                                                                  8582* 11993*
locn                                   parameter       fixed bin(18,0)          dcl 2285 set ref 2280 2292 2329*
logical_mode                    000752 constant        fixed bin(4,0)           initial dcl 4-106 set ref 2892*
long_profile                    000352 constant        fixed bin(14,0)          initial dcl 2650 in procedure "interpreter" set ref
                                                                                  4993* 5011* 10457*
long_profile             12(02)        based           bit(1)                   level 3 in structure "subprogram" packed packed
                                                                                  unaligned dcl 1-753 in procedure
                                                                                  "fort_optimizing_cg" ref 847
long_profile_entry                     based           structure                level 1 dcl 11-12 ref 1713 10469
long_profile_header                    based           structure                level 1 dcl 11-4 set ref 1043 1712 1713 13509*
loop                      5            based           pointer                  level 2 in structure "flow_unit" packed packed
                                                                                  unaligned dcl 2-46 in procedure
                                                                                  "fort_optimizing_cg" ref 4067 4072 4663 4722 11888
                                                                                  11918
loop                                   based           structure                level 1 dcl 2-100 in procedure "fort_optimizing_cg"
loop_end_chain            7            based           pointer                  level 2 packed packed unaligned dcl 2-46 set ref
                                                                                  12663 12670 12671* 27-192 27-194*
loop_end_fu_pos           3(18)        based           fixed bin(17,0)          level 2 packed packed unaligned dcl 1-1005 set ref
                                                                                  27-205*
loop_end_op                     000634 constant        fixed bin(18,0)          initial dcl 4-197 set ref 12659*
loop_ref_count            4(18)        based           fixed bin(17,0)          level 2 packed packed unaligned dcl 1-63 set ref
                                                                                  8349 8361* 8361 11997* 12100 12100
loop_state                             based           structure                level 1 dcl 9839 in procedure "enter_loop"
loop_state                             based           structure                level 1 dcl 9806 in procedure "leave_loop"
loop_state                             based           structure                level 1 dcl 2716 in procedure "interpreter"
loop_vector                            based           pointer                  array level 2 packed packed unaligned dcl 2699 ref
                                                                                  9932 11937 11946 12654 13003 13010 13015 13015
                                                                                  13065
loop_vector_p            55            based           pointer                  level 2 in structure "subprogram" packed packed
                                                                                  unaligned dcl 1-753 in procedure
                                                                                  "fort_optimizing_cg" ref 12996
loop_vector_p                   001450 automatic       pointer                  dcl 2559 in procedure "interpreter" set ref 9932
                                                                                  11937 11946 12654 12996* 13003 13010 13015 13015
                                                                                  13065
loop_vector_st                         based           structure                level 1 dcl 2699
looping                         000112 automatic       bit(1)                   packed unaligned dcl 1974 set ref 2059* 2060 2062*
                                                                                  2064* 2181* 2184 2190*
lower                     0(09)        based           bit(1)                   array level 3 packed packed unaligned dcl 1-383 ref
                                                                                  2407 2428 10727 10785 10857 10864 10960 13258
                                                                                  13415
lower_bound               5            based           fixed bin(24,0)          array level 3 dcl 1-383 ref 2377 2425 2428 10729
                                                                                  10780 10790 10857 10864 10866 10866 10962 10972
                                                                                  10994 11003 11007 11015 11021 13246 13258 13403
                                                                                  13415
lowest_count                    000104 automatic       fixed bin(18,0)          dcl 7887 set ref 7897* 7909 7911* 7916
lp                                     parameter       pointer                  dcl 9835 in procedure "enter_loop" ref 9828 9843
                                                                                  9845
lp                              006250 automatic       pointer                  dcl 12455 in procedure
                                                                                  "propagate_and_eliminate_assignment" set ref
                                                                                  12463* 12464 12473 12473
lp                              006212 automatic       pointer                  dcl 12307 in procedure
                                                                                  "check_comparisons_and_increments" set ref 12352*
                                                                                  12352 12352* 12355 12357 12363 12385* 12397 12416
                                                                                  12417
lp                                     defined         bit(3)                   dcl 596 in procedure "code_generator" ref 923 1175
                                                                                  1230 1353 1539 1585 1629 4307 6734 6788 6796 7380
                                                                                  7732
lp                                     parameter       pointer                  dcl 10139 in procedure "find_range" ref 10134 10149
lp                              005122 automatic       pointer                  dcl 9929 in procedure "cleanup_loop_state_nodes" set
                                                                                  ref 9932* 9933 9935 9936 9937
lp                              006702 automatic       pointer                  dcl 13057 in procedure "reset_subprogram" set ref
                                                                                  13065* 13067
lp                                     parameter       pointer                  dcl 27-179 in procedure "put_in_loop_end" ref 27-177
                                                                                  27-187
lp                                     parameter       pointer                  dcl 12616 in procedure "is_invariant_in" ref 12613
                                                                                  12623 12628 12632
lp                                     parameter       pointer                  dcl 10068 in procedure "assign" ref 10065 10072
                                                                                  10072 10074
lp                              005070 automatic       pointer                  dcl 9870 in procedure "refresh_global_bits" set ref
                                                                                  9875* 9877 9877 9877*
lp                              006114 automatic       pointer                  dcl 12117 in procedure "ok_to_allocate" set ref
                                                                                  12129* 12132 12132 12136 12136 12139 12139* 12139
                                                                                  12143 12144* 12144 12145 12149* 12149
lp                              006154 automatic       pointer                  dcl 12194 in procedure "allocate" set ref 12236*
                                                                                  12241 12242 12243 12244 12248 12249 12250 12253
                                                                                  12253* 12253 12257 12258* 12258 12259 12263* 12263
lp_msp                                 parameter       pointer                  dcl 9835 in procedure "enter_loop" set ref 9828
                                                                                  9845*
lp_msp                                 parameter       pointer                  dcl 9804 in procedure "leave_loop" ref 9798 9810
lp_msp                          000654 automatic       pointer                  dcl 2519 in procedure "interpreter" set ref 4012*
                                                                                  4073* 4074* 4785 7673 7680 7680 7680 8244 8244
                                                                                  9901 9904 9904 9909 9914 9919 9920 9959 9971 9971
                                                                                  9983 9983 9983 9983 9983 12991*
lreg                            004032 automatic       bit(6)                   array dcl 6376 set ref 6407* 6425* 6425 6446 6453
                                                                                  6453 6518* 6520* 6529* 6534
lrl                                    constant        fixed bin(18,0)          initial dcl 25-16 ref 4151
lrs                             000426 constant        fixed bin(18,0)          initial dcl 25-16 set ref 12937* 12956* 12975*
ls_op                           006234 automatic       fixed bin(18,0)          dcl 12308 set ref 12375* 12377 12379* 12381*
lsc                             006222 automatic       pointer                  dcl 12307 set ref 12363* 12364 12365 12367* 12367
                                                                                  12414* 12415 12416 12417 12420
lsp                             006224 automatic       pointer                  dcl 12307 set ref 12377* 12380 12381 12385 12385
                                                                                  12408 12415 12420* 12436 12441
ltp                             000102 automatic       pointer                  dcl 5616 set ref 5626* 5627 5629 5629 5631 5631
                                                                                  5632*
ltrim                                                  builtin function         dcl 13-17 in procedure "create_node" ref 13-29 13-29
ltrim                                                  builtin function         dcl 12-28 in procedure "create_constant" ref 12-45
                                                                                  12-45
ltrim                                                  builtin function         dcl 645 in procedure "code_generator" ref 1841 1841
                                                                                  1844 1844 2022 2022 2343 2343 27-54 27-54 27-122
                                                                                  27-122
lused                           000103 automatic       fixed bin(18,0)          dcl 7887 set ref 7912* 7916 7919*
lxl0                                   constant        fixed bin(18,0)          initial dcl 25-16 set ref 8047 8292 12929* 12948*
                                                                                  12965*
lxl1                                   constant        fixed bin(18,0)          initial dcl 25-16 set ref 12966*
m                               007220 automatic       fixed bin(18,0)          dcl 14113 set ref 14152* 14154* 14155 14180
mac                             004343 automatic       fixed bin(18,0)          dcl 8502 in procedure "increment_index" set ref
                                                                                  8521* 8523* 8525*
mac                             005502 automatic       fixed bin(18,0)          dcl 11062 in procedure "add" set ref 11064* 11073*
                                                                                  11079* 11081*
mac_base                        000640 automatic       pointer                  dcl 2511 set ref 2972* 3000 3012 3013 3014 3037 3078
                                                                                  3083 3083 3101 3117 3132 3157 3316 3334 3337 3381
                                                                                  3383 3400 3409 3413 3421 3456 3458 3495 3507 3513
                                                                                  3528 3533 3539 3545 3551 3558 3564 3573 3579 3584
                                                                                  3590 3595 3633 3637 3678 3685 3689 3689 3690 3746
                                                                                  3793 3817 3820 3872 3888 3893 3913 4029 4034 4280
                                                                                  4401 4585 4655 4887 4896 4902 4907 4913 4920 4931
                                                                                  5073 5272 5327 5868 5870 5870 5871 5878 5879 5881
                                                                                  6404 6406 6418 6435 6436 6509 6525 10488 10493
                                                                                  10500 10508 10509 10509
mac_no                                 parameter       fixed bin(18,0)          dcl 6032 ref 6027 6038
mac_num                                parameter       fixed bin(18,0)          dcl 6006 in procedure "emit_c_a_const" ref 6001 6014
mac_num                         000100 automatic       fixed bin(18,0)          dcl 6035 in procedure "emit_temp_store" set ref
                                                                                  6038* 6044*
mac_num                                parameter       fixed bin(18,0)          dcl 5984 in procedure "emit_c_a_var" ref 5978 5997
mac_num                                parameter       fixed bin(18,0)          dcl 5893 in procedure "emit_single" ref 5888 5897
                                                                                  5899 5905 5915
mac_num                                parameter       fixed bin(18,0)          dcl 5944 in procedure "emit_zero" ref 5939 5949
mac_num                                parameter       fixed bin(18,0)          dcl 5959 in procedure "emit_c_a" ref 5954 5965 5967
                                                                                  5967 5971
mac_num                                parameter       fixed bin(18,0)          dcl 5926 in procedure "emit_with_tag" ref 5921 5932
mac_num                                parameter       fixed bin(18,0)          dcl 5227 in procedure "interpreter_proc" ref 5205
                                                                                  5232
mac_proc                        003664 automatic       fixed bin(18,0)          dcl 5254 set ref 5256* 5258* 5272
machine_instruction                    based           structure                array level 1 dcl 2765 set ref 3083 3083 3685 3690
                                                                                  5871 5881 6435
machine_state                          based           structure                level 1 dcl 1-620 in procedure "fort_optimizing_cg"
                                                                                  set ref 9469 9469 9477* 9498* 9503* 10104 10104
                                                                                  10109* 10429* 13108*
machine_state             5(18)        based           fixed bin(18,0)          level 2 in structure "opt_statement" packed packed
                                                                                  unsigned unaligned dcl 2-176 in procedure
                                                                                  "fort_optimizing_cg" set ref 9461 9482* 10410
                                                                                  10427 10429 10431* 13078 13108 13109*
machine_state_node              000730 constant        fixed bin(4,0)           initial dcl 4-87 set ref 9469* 9478 10112
macro_bits_inst                        based           structure                array level 1 dcl 2780
macro_cond_inst                        based           structure                array level 1 dcl 2800
macro_dt_inst                          based           structure                array level 1 dcl 2774
macro_if_inst                          based           structure                array level 1 dcl 2786
macro_instruction                      based           structure                array level 1 dcl 2758 set ref 3117 3495 3507 3513
                                                                                  3678
macro_proc                             parameter       fixed bin(18,0)          dcl 5321 in procedure "get_nextbase" ref 5316 5327
macro_proc                             parameter       fixed bin(18,0)          dcl 5249 in procedure "setup_call" ref 5244 5256
macro_proc                      003654 automatic       fixed bin(18,0)          dcl 5230 in procedure "interpreter_proc" set ref
                                                                                  5232* 5234* 5239
macro_regs_inst                        based           structure                array level 1 dcl 2794
main_entry_point_name
                         56            based           varying char(32)         level 2 dcl 47 ref 1126
main_program                           constant        fixed bin(9,0)           initial dcl 4-68 ref 3581 7518 7560 13023
mantissa                  0(08) 003542 automatic       bit(64)                  level 2 packed packed unaligned dcl 2842 set ref
                                                                                  4581 4583*
mantissa_of_power_of_fpbase     003544 automatic       bit(64)                  packed unaligned dcl 2846 set ref 2966* 2968* 4581
map_ptr                                based           bit(18)                  dcl 16-38 set ref 829*
mask                            006614 automatic       fixed bin(35,0)          dcl 12718 in procedure "generate_mask" set ref
                                                                                  12720* 12721 12723*
mask                            005631 automatic       fixed bin(18,0)          dcl 11461 in procedure "get_param_char_size" set ref
                                                                                  11490* 11493* 11501*
mask_left                              constant        bit(36)                  initial dcl 2597 ref 5932 5965 6017 6101 6150
max                                                    builtin function         dcl 645 ref 7087 7305 7703 7788 8224 8309 8371 12018
                                                                                  12020 12780 12781 12893 12894
max_address_offset                     constant        fixed bin(14,0)          initial dcl 641 ref 1453 1453
max_fixed_bin_18                       constant        fixed bin(18,0)          initial dcl 4-58 ref 7897
max_linkage_size                000610 constant        fixed bin(18,0)          initial dcl 642 set ref 1703* 1718 1718 1718 1772
                                                                                  1772 1772 1876 1876 1876 14132 14135
max_local                 2     002047 automatic       fixed bin(17,0)          level 2 in structure "index_data" dcl 2748
                                                                                  in procedure "interpreter" set ref 8224* 8224
                                                                                  8371* 8371 11993* 12018
max_local                 2     001675 automatic       fixed bin(17,0)          level 2 in structure "ptr_data" dcl 2737
                                                                                  in procedure "interpreter" set ref 7305* 7305
                                                                                  7788* 7788 11985* 12020
max_locked                3     001675 automatic       fixed bin(17,0)          level 2 in structure "ptr_data" dcl 2737
                                                                                  in procedure "interpreter" set ref 7703* 7703
                                                                                  11985* 12020
max_locked                3     002047 automatic       fixed bin(17,0)          level 2 in structure "index_data" dcl 2748
                                                                                  in procedure "interpreter" set ref 8309* 8309
                                                                                  11993* 12018
max_operators                   001453 automatic       fixed bin(18,0)          dcl 2561 in procedure "interpreter" set ref 8334
                                                                                  12632 12999*
max_operators            56(18)        based           fixed bin(18,0)          level 2 in structure "subprogram" packed packed
