	NAMES DECLARED IN THIS COMPILATION.

IDENTIFIER	     OFFSET    LOC STORAGE CLASS   DATA TYPE		ATTRIBUTES AND REFERENCES
								(* indicates a set context)

NAMES DECLARED BY DECLARE STATEMENT.
A                               000374 constant        fixed bin(18,0)          initial dcl 2405 set ref 7049* 7087 7090 7094 7304
                                                                                  7305 7306 7323 7325 7325 7356* 7412 7425 7495*
                                                                                  9656* 9669*
AL_mod                          000604 constant        bit(6)                   initial dcl 538 set ref 6169 7049 7080 7111 9655*
                                                                                  9661* 9666* 9668*
AU_mod                                 constant        bit(6)                   initial dcl 538 ref 6171
Area_create_first      3144            based           fixed bin(18,0)          level 2 dcl 53 set ref 967* 2047 2048 2128 2128*
                                                                                  4134 4163 4170
Area_create_last       3145            based           fixed bin(18,0)          level 2 dcl 53 set ref 2134 2139*
Area_init_first        3146            based           fixed bin(18,0)          level 2 dcl 53 set ref 967* 4174 4180
DL_mod                          000605 constant        bit(6)                   initial dcl 538 set ref 5235 5319 5365 5398 9774*
                                                                                  9790* 9806*
DU_mod                          056071 constant        bit(6)                   initial dcl 538 ref 5331 5871
EAQ                             000734 constant        fixed bin(18,0)          initial dcl 2405 set ref 3507* 6927* 7331 7332 7343
                                                                                  7345 7346 7490* 7493
ERROR                           000721 constant        fixed bin(18,0)          initial dcl 2380 set ref 2635 2649 2952 2959* 3649*
FT2_mod                                constant        bit(6)                   initial dcl 538 ref 10782
IND                             000730 constant        fixed bin(18,0)          initial dcl 2405 set ref 3140 3143 3154 3154 3406
                                                                                  3509* 6926* 7094 7175 7242 7294 7294 7298 7302
                                                                                  7303* 7384 7409 7421 7490
ITP_mod                                constant        bit(6)                   initial dcl 538 ref 827 9324
K256                      0(23)        based           bit(1)                   level 3 packed packed unaligned dcl 18-23 set ref
                                                                                  2115*
LA                        2(04)        based           bit(1)                   level 2 in structure "header" packed packed
                                                                                  unaligned dcl 1-436 in procedure
                                                                                  "ext_code_generator" ref 2113
LA                        4(01)        based           bit(1)                   level 3 in structure "symbol" packed packed
                                                                                  unaligned dcl 1-844 in procedure
                                                                                  "ext_code_generator" set ref 5693
LA                        0(21)        based           bit(1)                   level 3 in structure "create_entry" packed packed
                                                                                  unaligned dcl 18-23 in procedure "code_generator"
                                                                                  set ref 2113*
LA_chain                 57(18)        based           fixed bin(18,0)          level 2 packed packed unsigned unaligned dcl 1-753
                                                                                  ref 1015
LIST_TEMPLATE_INIT                     constant        fixed bin(17,0)          initial dcl 25-98 ref 10896 10923
NO_INIT                                constant        fixed bin(17,0)          initial dcl 25-95 ref 10890 10909
Q                               000352 constant        fixed bin(18,0)          initial dcl 2405 set ref 3846* 7047* 7087 7092 7094
                                                                                  7252 7496* 8006* 8554* 8739* 8778* 9200* 9293*
                                                                                  9644* 9671* 9762*
QL_mod                                 constant        bit(6)                   initial dcl 538 ref 5813 6163 7047 7070 7078 7109
                                                                                  8684
QU_mod                                 constant        bit(6)                   initial dcl 538 ref 6165
RHS                             004305 automatic       fixed bin(35,0)          dcl 9686 set ref 9749* 9751* 9751*
RI_mod                                 constant        bit(6)                   initial dcl 538 ref 1026 1370 1405 1494 9331
TEMPLATE_INIT                          constant        fixed bin(17,0)          initial dcl 25-96 ref 10901 10921
VLA                       0(22)        based           bit(1)                   level 3 in structure "create_entry" packed packed
                                                                                  unaligned dcl 18-23 in procedure "code_generator"
                                                                                  set ref 2114*
VLA                       1(06)        based           bit(1)                   array level 4 in structure "arg_desc" packed packed
                                                                                  unaligned dcl 1-130 in procedure
                                                                                  "ext_code_generator" set ref 9398* 9442 9510*
VLA                       4            based           bit(1)                   level 3 in structure "symbol" packed packed
                                                                                  unaligned dcl 1-844 in procedure
                                                                                  "ext_code_generator" set ref 1302 1367 3753 3919
                                                                                  4145 5619 5671 5688 6031 6033 6244 6246 7881 7903
                                                                                  9331 9398 9442 9510 10484
VLA                             003175 automatic       bit(1)                   packed unaligned dcl 6234 in procedure
                                                                                  "base_man_load_pr" set ref 6244* 6246* 6248* 6250
                                                                                  6283
VLA                       2(03)        based           bit(1)                   level 2 in structure "header" packed packed
                                                                                  unaligned dcl 1-436 in procedure
                                                                                  "ext_code_generator" ref 1794 2114
VLA                             000103 automatic       bit(1)                   packed unaligned dcl 5989 in procedure
                                                                                  "base_man_load_any_pr" set ref 6031* 6033* 6035*
                                                                                  6049
VLA_base_addressor        7            based           fixed bin(18,0)          level 2 in structure "header" dcl 1-436 in procedure
                                                                                  "ext_code_generator" ref 1102 1989 1989 1995 1995
                                                                                  10216 10227
VLA_base_addressor        4            based           fixed bin(18,0)          level 2 in structure "dimension" dcl 1-383
                                                                                  in procedure "ext_code_generator" ref 1306 3761
                                                                                  8004
VLA_chain                57            based           fixed bin(18,0)          level 2 packed packed unsigned unaligned dcl 1-753
                                                                                  ref 1083
VLA_is_256K             115(03)        based           bit(1)                   level 4 packed packed unaligned dcl 53 ref 1313 1797
                                                                                  1999 2115 3763 7937
VLA_words_per_seg                      constant        fixed bin(14,0)          initial dcl 2433 ref 3776 7940
X0_mod                                 constant        bit(6)                   initial dcl 538 set ref 9772* 9775* 9788* 9792*
                                                                                  9803* 9808*
X1_mod                          000603 constant        bit(6)                   initial dcl 538 set ref 9804* 9807*
a                               004160 automatic       pointer                  dcl 9359 in procedure "check_arg_list" set ref 9388*
                                                                                  9389 9393 9397 9398 9401 9402 9411* 9413 9416 9416
                                                                                  9430 9430 9440 9442 9446 9449
a                               003764 automatic       pointer                  dcl 8821 in procedure "create_array_ref" set ref
                                                                                  8826* 8830* 8831 8832 8833 8837 8839 8840 8841
                                                                                  8847 8848 8850 8852 8853 8854 8855
a                               003566 automatic       pointer                  dcl 7756 in procedure "finish_subscript" set ref
                                                                                  7889* 7890 7896 7897 7898 7909 7950 7954 7954
                                                                                  7956* 7962 7962 7964 8236* 8238 8239 8240 8244
                                                                                  8245 8251 8251 8260* 8261 8261 8264 8265 8269 8668
                                                                                  8669 8683 8684 8688 8696 8697 8699
a9bd                            000512 constant        fixed bin(18,0)          initial dcl 22-16 set ref 6302* 6311* 6313* 6321*
                                                                                  6330*
a_base                          000212 automatic       pointer                  dcl 438 set ref 593* 595* 1816 2025 3333 3342 3750
                                                                                  3766 3779 3789 3803 3818 3887 3916 3965 4157 4184
                                                                                  5148 5151 5255 5258 5502 5505 6130 11016
a_data_type                     000100 automatic       fixed bin(4,0)           dcl 9-15 set ref 9-40* 9-43 9-43 9-43 9-45 9-45 9-47
                                                                                  9-65 9-81
a_name                                 based           fixed bin(18,0)          array dcl 476 set ref 1816* 2025* 3333* 3342* 3750*
                                                                                  3766* 3779* 3789* 3803* 3818* 3887* 3916* 3965*
                                                                                  4157* 4184* 5148* 5151* 5255* 5258* 5502* 5505*
                                                                                  6130* 11016*
a_ref                           003762 automatic       fixed bin(18,0)          dcl 8820 in procedure "create_array_ref" set ref
                                                                                  8825* 8826 8829* 8830 8857
a_ref                           004002 automatic       fixed bin(18,0)          dcl 8868 in procedure "free_array_ref" set ref 8871*
                                                                                  8875* 8901* 8902* 8905
a_ref                           003601 automatic       fixed bin(18,0)          dcl 7758 in procedure "finish_subscript" set ref
                                                                                  7888* 7889 7969* 8235* 8236 8271*
a_value                         000102 automatic       bit(72)                  dcl 9-16 set ref 9-41* 9-51 9-52 9-54 9-54 9-65 9-85
abs                                                    builtin function         dcl 569 ref 865
acc                                    based           structure                level 1 dcl 10800
acc_ptrs                               based           pointer                  array level 2 packed packed unaligned dcl 10808 set
                                                                                  ref 10819 10820 10838*
actual_length                          parameter       fixed bin(18,0)          dcl 9039 set ref 9029 9054* 9068* 9081* 9088*
add_base                        000457 constant        fixed bin(18,0)          initial array dcl 22-16 ref 6085 6435 6463
addr                                                   builtin function         dcl 9-18 in procedure "create_constant" ref 9-51
                                                                                  9-52 9-54 9-54 9-63 9-80 9-91
addr                                                   builtin function         dcl 10-17 in procedure "create_node" ref 10-24 10-25
addr                                                   builtin function         dcl 569 in procedure "code_generator" ref 593 632
                                                                                  652 653 706 706 771 776 795 978 994 1004 1017 1056
                                                                                  1067 1085 1102 1142 1157 1172 1187 1235 1246 1258
                                                                                  1290 1306 1307 1394 1470 1488 1507 1525 1538 1592
                                                                                  1598 1604 1610 1636 1756 1796 1812 1916 1989 1989
                                                                                  1995 1995 2024 2136 2160 2167 2173 2203 2207 2226
                                                                                  2287 2293 2313 2622 2637 2640 2643 2660 2666 2671
                                                                                  2679 2683 2690 2707 2708 2807 2807 2822 2824 2842
                                                                                  3016 3035 3053 3061 3070 3091 3101 3103 3125 3128
                                                                                  3137 3143 3166 3178 3178 3189 3253 3272 3283 3309
                                                                                  3333 3342 3373 3373 3378 3378 3406 3406 3416 3416
                                                                                  3425 3425 3425 3425 3478 3548 3582 3587 3594 3610
                                                                                  3611 3665 3665 3669 3705 3708 3738 3748 3761 3762
                                                                                  3799 3812 3828 3841 3843 3887 3910 3914 3932 3932
                                                                                  3934 3944 3948 3948 3951 3959 3965 3978 3985 4016
                                                                                  4022 4025 4028 4035 4038 4041 4045 4049 4056 4112
                                                                                  4119 4145 4145 4278 4399 4420 4566 4644 4645 4646
                                                                                  4650 4651 4673 4685 4687 4689 4689 4694 4705 4727
                                                                                  4728 4729 4776 4822 4891 4898 4921 4926 4926 4927
                                                                                  4950 4950 4955 4975 5004 5158 5183 5242 5300 5305
                                                                                  5342 5384 5449 5513 5556 5556 5556 5558 5558 5600
                                                                                  5609 5662 5698 5703 5727 6030 6033 6051 6051 6118
                                                                                  6121 6122 6163 6165 6169 6171 6196 6240 6246 6361
                                                                                  6719 6953 6957 6959 6978 7021 7125 7173 7194 7204
                                                                                  7234 7234 7234 7234 7234 7234 7234 7234 7249 7294
                                                                                  7307 7325 7332 7387 7421 7465 7468 7517 7539 7582
                                                                                  7690 7691 7692 7762 7763 7806 7889 8002 8003 8004
                                                                                  8031 8032 8033 8038 8045 8056 8057 8137 8141 8141
                                                                                  8141 8228 8236 8276 8303 8307 8316 8411 8659 8663
                                                                                  8700 8792 8793 8808 8826 8830 8838 8881 8892 8977
                                                                                  8978 9007 9007 9009 9009 9023 9046 9065 9065 9106
                                                                                  9163 9174 9195 9218 9250 9298 9334 9362 9370 9371
                                                                                  9388 9392 9411 9421 9430 9479 9480 9482 9496 9504
                                                                                  9543 9582 9588 9602 9605 9605 9614 9617 9617 9692
                                                                                  9698 9718 9721 9721 9727 9730 9730 9747 9749 9822
                                                                                  9829 9829 9831 9844 9845 9929 9966 10015 10023
                                                                                  10029 10035 10036 10077 10085 10088 10123 10172
                                                                                  10180 10202 10207 10215 10216 10226 10227 10239
                                                                                  10259 10280 10283 10308 10315 10372 10389 10402
                                                                                  10403 10404 10420 10424 10428 10432 10511 10522
                                                                                  10523 10524 10575 10575 10579 10579 10583 10583
                                                                                  10588 10588 10903 11000 11023 11026 11044 11049
addr_hold                 2(18)        based           bit(18)                  level 2 in structure "node" packed packed unaligned
                                                                                  dcl 1-63 in procedure "ext_code_generator" set ref
                                                                                  5638* 6212
addr_hold                 2(18)        based           bit(18)                  level 2 in structure "symbol" packed packed
                                                                                  unaligned dcl 1-844 in procedure
                                                                                  "ext_code_generator" set ref 2010* 6142
addr_hold                 2(18)        based           bit(18)                  level 2 in structure "temporary" packed packed
                                                                                  unaligned dcl 1-1005 in procedure
                                                                                  "ext_code_generator" set ref 4870 4982* 5676 6571
addrel                                                 builtin function         dcl 569 ref 644 645 664 665 672 673 713 733 776 806
                                                                                  825 1060 1060 1134 1134 2050 2100 2134 7651 10208
                                                                                  10217 10219 10228 10230 10247 10260 10260 10321
                                                                                  10367 10569 10593 10646 10760 10761 10763 10764
                                                                                  10778 10833 10875 10887 10888 10897 10897 10952
                                                                                  10953 10959 11014
address                   1            based           structure                level 2 in structure "temporary" dcl 1-1005
                                                                                  in procedure "ext_code_generator" set ref 4783*
                                                                                  4870* 4982 4985* 5188 5188 8984 9023*
address                         000111 automatic       bit(36)                  dcl 5993 in procedure "base_man_load_any_pr" set ref
                                                                                  6021* 6022* 6025* 6056* 6057* 6059* 6063* 6068*
                                                                                  6081*
address                         000110 automatic       bit(36)                  dcl 6103 in procedure "base_man_load_VLA" set ref
                                                                                  6149* 6151* 6153* 6160* 6163 6164* 6165 6166* 6169
                                                                                  6170* 6171 6172* 6176*
address                   1            based           structure                level 2 in structure "symbol" dcl 1-844 in procedure
                                                                                  "ext_code_generator" set ref 1105* 1263* 1310*
                                                                                  1758* 2010 5731* 5731 6142 8853
address                   1            based           structure                level 2 in structure "char_constant" dcl 1-316
                                                                                  in procedure "ext_code_generator"
address                   1            based           structure                level 2 in structure "label" dcl 1-530 in procedure
                                                                                  "ext_code_generator"
address                                parameter       bit(36)                  dcl 5120 in procedure "emit_c_a" ref 5114 5122
address                                parameter       fixed bin(18,0)          dcl 5089 in procedure "emit_with_tag" ref 5084 5097
address                   1            based           structure                level 2 in structure "node" dcl 1-63 in procedure
                                                                                  "ext_code_generator" set ref 5153 5153 5161 5251
                                                                                  5260 5487 5494 5516 5638 6212 9334
address                   1            based           structure                level 2 in structure "header" dcl 1-436 in procedure
                                                                                  "ext_code_generator" set ref 1021* 1090* 1105
                                                                                  1161* 1213* 1758
address                         004454 automatic       pointer                  dcl 10334 in procedure "initialize_symbol" set ref
                                                                                  10358* 10367* 10367 10372* 10372 10420 10424 10428
                                                                                  10432
address                         003245 automatic       bit(36)                  dcl 6805 in procedure "xr_man_add_const" set ref
                                                                                  6810* 6811* 6812* 6819*
address                   1            based           structure                level 2 in structure "constant" dcl 1-256
                                                                                  in procedure "ext_code_generator"
address                   1            based           structure                level 2 in structure "array_ref" dcl 1-155
                                                                                  in procedure "ext_code_generator" set ref 8853*
address_in_base         107     001334 automatic       bit(1)                   level 2 in structure "machine_state" dcl 2479
                                                                                  in procedure "interpreter" set ref 5012* 6037*
                                                                                  6921
address_in_base           0(21)        based           bit(1)                   level 3 in structure "temporary" packed packed
                                                                                  unaligned dcl 1-1005 in procedure
                                                                                  "ext_code_generator" set ref 5013*
address_in_base           0(21)        based           bit(1)                   level 3 in structure "node" packed packed unaligned
                                                                                  dcl 1-63 in procedure "ext_code_generator" set ref
                                                                                  5592 6036* 6197* 7023 7030*
addressing_bits           0(14)        based           structure                level 2 in structure "symbol" packed packed
                                                                                  unaligned dcl 1-844 in procedure
                                                                                  "ext_code_generator" set ref 1767*
addressing_bits           0(14)        based           structure                level 2 in structure "node" packed packed unaligned
                                                                                  dcl 1-63 in procedure "ext_code_generator"
addressing_bits           0(14)        based           structure                level 2 in structure "label" packed packed unaligned
                                                                                  dcl 1-530 in procedure "ext_code_generator"
addressing_bits           0(14)        based           structure                level 2 in structure "char_constant" packed packed
                                                                                  unaligned dcl 1-316 in procedure
                                                                                  "ext_code_generator"
addressing_bits           0(14)        based           structure                level 2 in structure "array_ref" packed packed
                                                                                  unaligned dcl 1-155 in procedure
                                                                                  "ext_code_generator"
addressing_bits           0(14)        based           structure                level 2 in structure "header" packed packed
                                                                                  unaligned dcl 1-436 in procedure
                                                                                  "ext_code_generator" set ref 1767
addressing_bits           0(14)        based           structure                level 2 in structure "constant" packed packed
                                                                                  unaligned dcl 1-256 in procedure
                                                                                  "ext_code_generator"
addressing_bits           0(14)        based           structure                level 2 in structure "temporary" packed packed
                                                                                  unaligned dcl 1-1005 in procedure
                                                                                  "ext_code_generator" set ref 4779*
adesc                           004156 automatic       fixed bin(18,0)          dcl 9358 set ref 9387* 9388
adfx1                           000523 constant        fixed bin(18,0)          initial dcl 22-16 set ref 3833 8005* 8720 9127*
adq                                    constant        bit(10)                  initial dcl 5286 ref 5351 5354
aliasable                 2(03)        based           bit(1)                   level 2 packed packed unaligned dcl 1-844 set ref
                                                                                  9546
alignment                 0(30)        based           structure                level 3 packed packed unaligned dcl 1-436
alloc_auto_adj                         constant        fixed bin(14,0)          initial dcl 2433 ref 3836
alloc_auto_cleanup              000147 automatic       bit(1)                   dcl 424 set ref 969* 1535 2125* 4152
alloc_length                           parameter       fixed bin(18,0)          dcl 9040 set ref 9029 9055* 9069* 9082* 9089*
alloc_ps                        000135 automatic       bit(1)                   dcl 943 set ref 969* 999* 999 1504
allocate                  0(25)        based           bit(1)                   level 4 in structure "temporary" packed packed
                                                                                  unaligned dcl 1-1005 in procedure
                                                                                  "ext_code_generator" set ref 4781*
allocate                  0(25)        based           bit(1)                   level 5 in structure "header" packed packed
                                                                                  unaligned dcl 1-436 in procedure
                                                                                  "ext_code_generator" ref 1018 1086 1158 1188
allocate                  0(25)        based           bit(1)                   level 4 in structure "constant" packed packed
                                                                                  unaligned dcl 1-256 in procedure
                                                                                  "ext_code_generator" ref 772
allocate                  0(25)        based           bit(1)                   level 4 in structure "node" packed packed unaligned
                                                                                  dcl 1-63 in procedure "ext_code_generator" set ref
                                                                                  1258* 5373* 10092* 10180*
allocate                  0(25)        based           bit(1)                   level 4 in structure "char_constant" packed packed
                                                                                  unaligned dcl 1-316 in procedure
                                                                                  "ext_code_generator" ref 796
allocate                  0(25)        based           bit(1)                   level 5 in structure "symbol" packed packed
                                                                                  unaligned dcl 1-844 in procedure
                                                                                  "ext_code_generator" set ref 1257* 1261 1491*
                                                                                  1510* 1541* 2289* 3813 10027*
allocate_char_string                   constant        fixed bin(14,0)          initial dcl 2433 ref 8956
allocate_symbol_name            000121 automatic       fixed bin(17,0)          dcl 1-525 set ref 585* 1487 1487 1506 1506 1524 1524
                                                                                  1537 1537 2286 2286 2682 2682 2689 2689 4761 10022
                                                                                  10022
allocated                 0(17)        based           bit(1)                   level 3 in structure "char_constant" packed packed
                                                                                  unaligned dcl 1-316 in procedure
                                                                                  "ext_code_generator" set ref 796 810* 2663*
allocated                 0(17)        based           bit(1)                   level 3 in structure "constant" packed packed
                                                                                  unaligned dcl 1-256 in procedure
                                                                                  "ext_code_generator" set ref 772 778*
allocated                 0(17)        based           bit(1)                   level 3 in structure "node" packed packed unaligned
                                                                                  dcl 1-63 in procedure "ext_code_generator" ref
                                                                                  3922 5375 10663
allocated                 0(17)        based           bit(1)                   level 3 in structure "label" packed packed unaligned
                                                                                  dcl 1-530 in procedure "ext_code_generator" set
                                                                                  ref 7585*
allocated                 0(17)        based           bit(1)                   level 3 in structure "array_ref" packed packed
                                                                                  unaligned dcl 1-155 in procedure
                                                                                  "ext_code_generator" set ref 2674*
allocated                 0(17)        based           bit(1)                   level 3 in structure "temporary" packed packed
                                                                                  unaligned dcl 1-1005 in procedure
                                                                                  "ext_code_generator" set ref 4781*
allocated                 0(17)        based           bit(1)                   level 3 in structure "symbol" packed packed
                                                                                  unaligned dcl 1-844 in procedure
                                                                                  "ext_code_generator" set ref 1104* 1247 1309*
                                                                                  1461* 1491* 1510* 1541* 1618* 2686* 5729 5732*
                                                                                  8303 9163
allocated                 0(17)        based           bit(1)                   level 3 in structure "header" packed packed
                                                                                  unaligned dcl 1-436 in procedure
                                                                                  "ext_code_generator" set ref 1022* 1088* 1162*
                                                                                  1222*
alr                             000421 constant        fixed bin(18,0)          initial dcl 22-16 set ref 9772* 9788* 9803* 9804*
als                             000425 constant        fixed bin(18,0)          initial dcl 22-16 set ref 7944*
amount                                 parameter       fixed bin(18,0)          dcl 4743 in procedure "create_temp" ref 4736 4755
                                                                                  4764
amount                                 parameter       fixed bin(18,0)          dcl 4662 in procedure "get_temp" ref 4657 4664
amt                             002765 automatic       fixed bin(18,0)          dcl 4939 in procedure "push_variable" set ref 4941*
                                                                                  4943 4953*
amt                             000275 automatic       fixed bin(18,0)          dcl 470 in procedure "code_generator" set ref 804*
                                                                                  806 809 824
amt                             002713 automatic       fixed bin(18,0)          dcl 4744 in procedure "create_temp" set ref 4764*
                                                                                  4768 4770 4788 4796*
amt                             002666 automatic       fixed bin(18,0)          dcl 4662 in procedure "get_temp" set ref 4664* 4666
                                                                                  4668 4685 4709*
amt                                    parameter       fixed bin(17,0)          dcl 766 in procedure "alloc_constants" ref 760 768
                                                                                  776
anq                             000455 constant        fixed bin(18,0)          initial dcl 22-16 set ref 9176* 9187* 9195* 9290*
                                                                                  9637* 9760*
ansi_77                  11(30)        based           bit(1)                   level 3 packed packed unaligned dcl 1-753 ref 3073
                                                                                  4109 4651
aos                             000640 constant        fixed bin(18,0)          initial dcl 22-16 set ref 7614*
ap                              004212 automatic       pointer                  dcl 9475 set ref 9496* 9498 9499 9501 9501 9502 9504
                                                                                  9505 9509 9510 9513 9514 9525 9526 9527
arg                                    parameter       pointer                  array dcl 5884 in procedure "make_both_addressable"
                                                                                  ref 5878 5891
arg                       1            based           structure                array level 2 in structure "arg_desc" dcl 1-130
                                                                                  in procedure "ext_code_generator" set ref 9501*
                                                                                  9501 9526*
arg                             003070 automatic       pointer                  array dcl 5423 in procedure "emit_eis" set ref 5449*
                                                                                  5456* 5487 5494 5500 5502 5502 5510 5514 5519 5519
                                                                                  5519* 5552
arg1                            004265 automatic       fixed bin(18,0)          dcl 9578 in procedure "rhs_fld" set ref 9581* 9582
                                                                                  9584* 9614 9617 9660* 9665*
arg1                            004306 automatic       fixed bin(18,0)          dcl 9687 in procedure "lhs_fld" set ref 9691* 9692
                                                                                  9694* 9727 9730 9786* 9800*
arg1_is_const                   004273 automatic       bit(1)                   initial packed unaligned dcl 9579 in procedure
                                                                                  "rhs_fld" set ref 9579* 9616* 9622 9650
arg1_is_const                   004315 automatic       bit(1)                   initial packed unaligned dcl 9688 in procedure
                                                                                  "lhs_fld" set ref 9688* 9729* 9735 9765
arg2                            004307 automatic       fixed bin(18,0)          dcl 9687 in procedure "lhs_fld" set ref 9697* 9698
                                                                                  9700* 9718 9721 9770* 9801*
arg2                            004266 automatic       fixed bin(18,0)          dcl 9578 in procedure "rhs_fld" set ref 9587* 9588
                                                                                  9590* 9602 9605 9654* 9667*
arg2_is_const                   004274 automatic       bit(1)                   initial packed unaligned dcl 9579 in procedure
                                                                                  "rhs_fld" set ref 9579* 9604* 9622 9658
arg2_is_const                   004316 automatic       bit(1)                   initial packed unaligned dcl 9688 in procedure
                                                                                  "lhs_fld" set ref 9688* 9720* 9735 9781
arg3                            004310 automatic       fixed bin(18,0)          dcl 9687 in procedure "lhs_fld" set ref 9703* 9704*
                                                                                  9706* 9743* 9759* 9761* 9771* 9778* 9787* 9793*
                                                                                  9802* 9809*
arg3                            004267 automatic       fixed bin(18,0)          dcl 9578 in procedure "rhs_fld" set ref 9593* 9594*
                                                                                  9596* 9628* 9648*
arg4                            004311 automatic       fixed bin(18,0)          dcl 9687 set ref 9709* 9710* 9742* 9747 9749 9754*
                                                                                  9773* 9789* 9805*
arg_count                       001516 automatic       fixed bin(17,0)          level 3 packed packed unaligned dcl 2602 set ref
                                                                                  3941*
arg_desc                               based           structure                level 1 dcl 1-130 set ref 9387 9387
arg_desc_node                   000706 constant        fixed bin(4,0)           initial dcl 3-87 set ref 9387*
arg_list                        001516 automatic       structure                level 1 dcl 2602 set ref 3948 3948
arg_no                                 parameter       fixed bin(18,0)          dcl 9151 ref 9138 9174
arg_ptr                                constant        fixed bin(18,0)          initial dcl 2385 ref 6499
array                     1(04)        based           bit(1)                   array level 4 packed packed unaligned dcl 1-130 set
                                                                                  ref 9397* 9446 9449 9509*
array_info                1     000117 automatic       structure                array level 2 in structure "descriptor" dcl 9912
                                                                                  in procedure "make_symbol_descriptor"
array_info                1     004354 automatic       structure                array level 2 in structure "descriptor" dcl 10060
                                                                                  in procedure "make_entry_descriptor"
array_name                             parameter       fixed bin(18,0)          dcl 7225 ref 7219 7234 7234 7234 7234 7234 7234 7234
array_ref                              based           structure                level 1 dcl 1-155 set ref 2670 2670 8825 8825 8832*
array_ref_node                  000735 constant        fixed bin(4,0)           initial dcl 3-87 set ref 2670* 3070 4400 4427 5148
                                                                                  5158 5255 5502 5511 5598 5662 6033 6119 6246 7234
                                                                                  8051 8137 8213 8676 8825* 8833 9063 9402 9449 9514
                                                                                  9880
array_ref_type                         constant        fixed bin(4,0)           initial dcl 3-120 ref 2672 8839
array_size                      003631 automatic       fixed bin(18,0)          dcl 8289 in procedure "finish_subscript" set ref
                                                                                  8315* 8316 8320* 8348* 8443* 8472* 8500* 8505*
                                                                                  8517* 8522* 8534*
array_size                3            based           fixed bin(24,0)          level 2 in structure "dimension" dcl 1-383
                                                                                  in procedure "ext_code_generator" set ref 2230*
                                                                                  2232 3613 3615 7873 8228 8315* 8320
asize                           004020 automatic       fixed bin(18,0)          array dcl 8927 set ref 8935* 8941 8941 8943 8943
asq                             000521 constant        fixed bin(18,0)          initial dcl 22-16 set ref 3778 8484*
assembly_list                   000227 automatic       bit(1)                   dcl 441 set ref 592* 593 1810 2022 3333 3342 3750
                                                                                  3766 3779 3789 3803 3818 3887 3916 3965 4157 4184
                                                                                  5148 5255 5502 6130 11016
assumed_size              0(28)        based           bit(1)                   level 2 packed packed unaligned dcl 1-383 ref 2258
                                                                                  7728 8344 8498 8534 8575 9371 10003 10160
attributes               10            based           structure                level 2 dcl 1-844
auto                      0(18)        based           bit(1)                   level 3 packed packed unaligned dcl 18-23 set ref
                                                                                  2110*
auto_template                   000310 automatic       fixed bin(18,0)          dcl 485 set ref 2664 10256*
auto_zero                11(29)        based           bit(1)                   level 3 packed packed unaligned dcl 1-753 ref 752
automatic                 0(33)        based           bit(1)                   level 4 in structure "header" packed packed
                                                                                  unaligned dcl 1-436 in procedure
                                                                                  "ext_code_generator" ref 1093 1101 2107 2110 2125
automatic                11            based           bit(1)                   level 4 in structure "symbol" packed packed
                                                                                  unaligned dcl 1-844 in procedure
                                                                                  "ext_code_generator" set ref 1510* 1541* 2289*
                                                                                  10028*
b1                              000632 automatic       bit(1)                   dcl 2353 set ref 3021* 3047* 3054* 3056* 3065* 3068*
                                                                                  3070* 3073* 3075* 3077* 3094* 3096* 3098* 3160*
                                                                                  3166* 3172* 3178* 3183* 3189* 3194* 3215* 3219*
                                                                                  3223* 3227* 3231* 3235* 3238 3478* 3482 3499 3700*
                                                                                  3899* 3910* 3913 3919* 3922* 4067* 4069 4109*
                                                                                  4119* 4124* 4129* 4134* 4136* 4145* 4147* 4152*
                                                                                  4295*
b18                             004636 automatic       bit(18)                  dcl 10939 set ref 10949* 10964
b2                              000633 automatic       bit(1)                   dcl 2353 set ref 3009* 3013* 3025* 3029* 3051* 3059*
                                                                                  3081* 3085* 3147* 3151* 3163* 3169* 3175* 3181*
                                                                                  3186* 3192* 3197* 3201* 3238 3698* 3895* 4107*
                                                                                  4116* 4122* 4127* 4132* 4139* 4150* 4293*
backward                  0(18)        based           bit(18)                  level 2 packed packed unaligned dcl 26-12 set ref
                                                                                  10955* 10957*
base                      1            based           bit(3)                   level 3 in structure "header" packed packed
                                                                                  unaligned dcl 1-436 in procedure
                                                                                  "ext_code_generator" set ref 1036* 1046* 1093*
                                                                                  1095* 1217* 1220*
base                            000123 automatic       bit(3)                   level 2 in structure "inst_address" packed packed
                                                                                  unaligned dcl 6564 in procedure
                                                                                  "base_man_store_temp" set ref 6600* 6616* 6628*
base                            001330 automatic       bit(3)                   level 2 in structure "inst_address" packed packed
                                                                                  unaligned dcl 2465 in procedure "interpreter" set
                                                                                  ref 3769* 3775*
base                            003172 automatic       bit(3)                   level 2 in structure "inst_address" packed packed
                                                                                  unaligned dcl 6231 in procedure "base_man_load_pr"
                                                                                  set ref 6293*
base                            004432 automatic       pointer                  dcl 10273 in procedure "initialize" set ref 10276*
                                                                                  10284* 10287*
base                            000101 automatic       bit(3)                   level 2 in structure "inst_address" packed packed
                                                                                  unaligned dcl 5807 in procedure "c_a" set ref
                                                                                  5817* 5821* 5825* 5830* 5842* 5842
base                            000110 automatic       bit(3)                   level 2 in structure "inst_address" packed packed
                                                                                  unaligned dcl 6457 in procedure
                                                                                  "base_man_load_large_base_no_flush" set ref 6460*
base                            000104 automatic       bit(3)                   level 2 in structure "inst_address" packed packed
                                                                                  unaligned dcl 6406 in procedure
                                                                                  "base_man_load_large_base" set ref 6432*
base                                   parameter       bit(3)                   dcl 6402 in procedure "base_man_load_large_base" ref
                                                                                  6395 6410 6432
base                      1            based           bit(3)                   level 3 in structure "array_ref" packed packed
                                                                                  unaligned dcl 1-155 in procedure
                                                                                  "ext_code_generator" set ref 2675*
base                      1            based           bit(3)                   level 3 in structure "symbol" packed packed
                                                                                  unaligned dcl 1-844 in procedure
                                                                                  "ext_code_generator" set ref 1311* 1321* 1377*
                                                                                  1403* 1449* 1452* 1493* 1512* 1543* 2687* 5714*
                                                                                  5716*
base                            000562 automatic       fixed bin(18,0)          dcl 2328 in procedure "interpreter" set ref 2716*
                                                                                  2872* 2891 2892 2894 2896 2903* 2984* 3681 3715
                                                                                  3868 3897 3910 3939 3951 3954 3959 3985 4112 4253
                                                                                  4276 4446* 4462 4547* 7690 7693 7701 7713 7719
                                                                                  7762 7769 7888 7918 7926 7933 8031 8032 8033 8093
                                                                                  8094 8104 8104 8111 8111 8127 8137 8140 8148 8161
                                                                                  8169 8170 8193 8197 8792 8795 8797 8934 8978 9361
                                                                                  9362 9370 9371 9371 9392 9415 9421 9461 9461
base                      4            based           fixed bin(18,0)          level 2 in structure "proc_frame" dcl 2510
                                                                                  in procedure "interpreter" set ref 3643* 4446
                                                                                  4547*
base                            004422 automatic       pointer                  dcl 10196 in procedure "initialize_static" set ref
                                                                                  10208* 10209 10217* 10219* 10220 10228* 10230*
                                                                                  10231 10247* 10248
base                      1            based           bit(3)                   level 3 in structure "node" packed packed unaligned
                                                                                  dcl 1-63 in procedure "ext_code_generator" set ref
                                                                                  3922 3922 5594* 5640* 5690* 5736* 5770* 5772* 5909
                                                                                  6279 9323
base                      1            based           bit(3)                   level 3 in structure "temporary" packed packed
                                                                                  unaligned dcl 1-1005 in procedure
                                                                                  "ext_code_generator" set ref 4784* 5014* 5681*
base                                   parameter       bit(3)                   dcl 6454 in procedure
                                                                                  "base_man_load_large_base_no_flush" ref 6446 6460
                                                                                  6465
base_regs               110     001334 automatic       structure                array level 2 dcl 2479 set ref 6023* 6038* 6061*
                                                                                  6073* 6427* 6496* 6535* 6611*
based_double                           based           structure                level 1 dcl 7459
based_dp                               based           float bin(63)            level 2 packed packed unaligned dcl 7459 ref 7478
based_integer                          based           fixed bin(35,0)          dcl 7457 in procedure "check_negative" ref 7471
based_integer                          based           fixed bin(35,0)          dcl 2463 in procedure "interpreter" ref 9605 9617
                                                                                  9721 9730
based_real                             based           float bin(27)            dcl 7458 ref 7474
bases                           000616 constant        bit(3)                   initial array dcl 522 ref 827 827 1036 1036 1046
                                                                                  1046 1093 1093 1095 1095 1217 1217 1220 1220 1311
                                                                                  1311 1321 1321 1377 1377 1403 1403 1449 1449 1452
                                                                                  1452 1493 1493 1512 1512 1543 1543 2675 2675 2687
                                                                                  2687 3922 3922 3922 3922 4784 4784 5014 5763 5763
                                                                                  5764 5764 5817 5817 5821 5821 5825 5825 5830 5830
                                                                                  6010 6022 6093 6279 6293 6410 6410 6422 6442 6465
                                                                                  6465 6472 6492 6510 6531 6549 6600 6616 6616 6628
                                                                                  6628
begin_external_list             000173 automatic       fixed bin(18,0)          dcl 431 set ref 605* 1634 1634 1667 1674 10661
begin_forward_refs              000175 automatic       fixed bin(18,0)          dcl 433 set ref 611* 630 637 689 10819
begin_links                     000163 automatic       fixed bin(18,0)          dcl 428 set ref 723 1589* 10622 10624
bias                                   constant        fixed bin(19,0)          initial dcl 3-56 ref 1317 1338 1518 1550 2782 2814
                                                                                  2831 2837 2842 2892 2993 3206 3209 3249 3296 3303
                                                                                  3314 3315 3390 3476 3534 3535 3535 3538 3548 3593
                                                                                  3693 3726 3772 3774 3833 3834 3857 3881 3898 3940
                                                                                  3955 4025 4038 4276 4301 4323 4378 4468 4596 4768
                                                                                  5238 5553 7462 7780 7847 7944 7945 7985 8101 8108
                                                                                  8149 8160 8171 8347 8425 8437 8481 8506 8550 8611
                                                                                  8639 8735 8735 8735 8774 8774 8774 8774 8795 8850
                                                                                  8994 9004 9055 9069 9113 9113 9121 9273 9361 9634
                                                                                  9641 9642 9652 9662 9756 9776 9791 9831 9870 9877
                                                                                  9884 9891 9951 10108 10878
bif                                    constant        fixed bin(4,0)           initial dcl 3-120 ref 1274 9263 9941 10098
big_offset                      003610 automatic       bit(1)                   dcl 7759 set ref 7766* 7873* 7890 7909* 8055* 8081*
                                                                                  8228* 8240 8678 8705
bin                                                    builtin function         dcl 569 ref 561
binary                                                 builtin function         dcl 9-19 in procedure "create_constant" ref 9-57
binary                                                 builtin function         dcl 569 in procedure "code_generator" ref 2258 5151
                                                                                  6130 6301 6301 6746 10781
bit                                                    builtin function         dcl 569 in procedure "code_generator" ref 684 684
                                                                                  717 718 719 720 721 722 723 724 725 733 3693 3705
                                                                                  6668 6700 6746 6761 6811 6812 6831 9325 9326 10621
                                                                                  10622 10623 10624 10778 10785 10826 10841 10847
                                                                                  10886 10910 10951 10967 11009 11009
bit                                                    builtin function         dcl 5441 in procedure "emit_eis" ref 5498
bit3                            000636 automatic       bit(3)                   dcl 2354 set ref 3760* 3763 3769 3781 3788* 3791
bit6                            003426 automatic       bit(6)                   dcl 7228 in procedure "use_eaq" set ref 7256*
bit6                            000112 automatic       bit(6)                   dcl 7320 in procedure "save_logical_temps" set ref
                                                                                  7337*
bit_image                              based           bit(72)                  dcl 2475 set ref 2807* 2807*
bit_offset                3(21) 001516 automatic       bit(6)                   array level 3 packed packed unaligned dcl 2602 set
                                                                                  ref 9326*
bit_type                        004135 automatic       structure                level 3 in structure "descriptor" packed packed
                                                                                  unaligned dcl 9241 in procedure "make_descriptor"
bit_type                        000117 automatic       structure                level 3 in structure "descriptor" packed packed
                                                                                  unaligned dcl 9912 in procedure
                                                                                  "make_symbol_descriptor"
bit_type                        004354 automatic       structure                level 3 in structure "descriptor" packed packed
                                                                                  unaligned dcl 10060 in procedure
                                                                                  "make_entry_descriptor"
bits                      0(25)        based           structure                level 2 in structure "constant" packed packed
                                                                                  unaligned dcl 1-256 in procedure
                                                                                  "ext_code_generator"
bits                      3            based           structure                level 2 in structure "statement" packed packed
                                                                                  unaligned dcl 1-721 in procedure
                                                                                  "ext_code_generator"
bits                                   parameter       structure                array level 2 in structure "regs" packed packed
                                                                                  unaligned dcl 5926 in procedure "get_free_reg"
bits                      0(25)        based           structure                level 2 in structure "header" packed packed
                                                                                  unaligned dcl 1-436 in procedure
                                                                                  "ext_code_generator"
bits                      0(18)        based           bit(10)                  array level 2 in structure "macro_bits_inst" packed
                                                                                  packed unaligned dcl 2553 in procedure
                                                                                  "interpreter" ref 3019 3021 3038 3047
bits                      0(25)        based           structure                level 2 in structure "symbol" packed packed
                                                                                  unaligned dcl 1-844 in procedure
                                                                                  "ext_code_generator"
bits                      0(25)        based           structure                level 2 in structure "label" packed packed unaligned
                                                                                  dcl 1-530 in procedure "ext_code_generator"
bits                     37     001334 automatic       structure                array level 3 in structure "machine_state" packed
                                                                                  packed unaligned dcl 2479 in procedure
                                                                                  "interpreter"
bits                      0(25)        based           structure                level 2 in structure "array_ref" packed packed
                                                                                  unaligned dcl 1-155 in procedure
                                                                                  "ext_code_generator"
bits                    110     001334 automatic       structure                array level 3 in structure "machine_state" packed
                                                                                  packed unaligned dcl 2479 in procedure
                                                                                  "interpreter"
bits                      0(25)        based           structure                level 2 in structure "temporary" packed packed
                                                                                  unaligned dcl 1-1005 in procedure
                                                                                  "ext_code_generator" set ref 4779*
bits                      0(25)        based           structure                level 2 in structure "node" packed packed unaligned
                                                                                  dcl 1-63 in procedure "ext_code_generator"
bits                      0(25)        based           structure                level 2 in structure "char_constant" packed packed
                                                                                  unaligned dcl 1-316 in procedure
                                                                                  "ext_code_generator"
bits_per_char                          constant        fixed bin(9,0)           initial dcl 3-68 ref 8550 9326
blank_common_name               000636 constant        char(8)                  initial dcl 3-79 ref 1680 1886
block_name               10            based           char                     level 2 in structure "header" dcl 1-436 in procedure
                                                                                  "ext_code_generator" set ref 1675 1675 1680 1859
                                                                                  1859 1886 2120 10678 10678* 10681* 10683* 10878*
block_name                3(18)        based           char                     level 2 in structure "create_entry" packed packed
                                                                                  unaligned dcl 18-23 in procedure "code_generator"
                                                                                  set ref 2120*
block_size                             parameter       fixed bin(18,0)          dcl 4636 ref 4631 4638
block_type                      004526 automatic       bit(18)                  dcl 10699 set ref 10715* 10724* 10726* 10742* 10766
boffset                         000116 automatic       fixed bin(35,0)          dcl 10455 set ref 10492* 10494* 10494 10543 10548
                                                                                  10553 10558
bool                                                   builtin function         dcl 9-20 ref 9-54
bound                           003556 automatic       fixed bin(18,0)          dcl 7688 set ref 7733* 7735* 7736* 7738* 7740* 7741*
bsize                           000124 automatic       fixed bin(18,0)          dcl 10457 set ref 10541* 10543 10543 10543 10546*
                                                                                  10548 10548 10548 10551* 10553 10556* 10558 10571
                                                                                  10595
build_profile_after_label       000635 automatic       bit(1)                   dcl 2353 set ref 2702* 3287 3290* 3708*
builtin                  10(32)        based           bit(1)                   level 4 packed packed unaligned dcl 1-844 set ref
                                                                                  1272
builtins                        000232 automatic       fixed bin(18,0)          array dcl 444 set ref 703 1487* 1488 1498* 1506*
                                                                                  1507 1524* 1525 1531* 1531* 2627* 2628* 2629*
                                                                                  2630* 2631* 2636 2650 2659* 2660 2670* 2671 2679
                                                                                  2682* 2683 2689* 2690 2847 9174 9175 9829 9829
bvalue                          003536 automatic       bit(72)                  dcl 7661 set ref 7663* 7664*
by_compiler               0(35)        based           bit(1)                   level 3 packed packed unaligned dcl 1-844 set ref
                                                                                  1490* 1509* 1540* 2289* 2685* 2693* 10025*
byte                                                   builtin function         dcl 569 ref 4049
c                               003242 automatic       fixed bin(18,0)          dcl 6803 in procedure "xr_man_add_const" set ref
                                                                                  6809* 6811
c                               003220 automatic       fixed bin(18,0)          dcl 6739 in procedure "xr_man_load_const" set ref
                                                                                  6741* 6743* 6755* 6755* 6758
c                               003230 automatic       fixed bin(18,0)          dcl 6774 in procedure "const_in_xr" set ref 6778*
                                                                                  6783
c                               000150 automatic       pointer                  dcl 426 in procedure "code_generator" set ref 653*
                                                                                  654 655 771* 772 772 772 775 776 778 780 795* 796
                                                                                  796 796 799 804 805 806 810 812
c                                      parameter       fixed bin(18,0)          dcl 5805 in procedure "c_a" ref 5800 5809 5842
c_mult_offset                   003635 automatic       fixed bin(18,0)          dcl 8289 set ref 8369* 8371* 8460 8460 8547 8547
c_multiplier                    003633 automatic       fixed bin(18,0)          dcl 8289 set ref 8361* 8365* 8389 8390* 8390 8399
                                                                                  8437 8439 8439
c_virtual_origin                003632 automatic       fixed bin(18,0)          dcl 8289 set ref 8357* 8389* 8389 8399 8419 8425
                                                                                  8427 8427
case                            000123 automatic       fixed bin(18,0)          dcl 10457 in procedure "list_initialize_symbol" set
                                                                                  ref 10501* 10505* 10507* 10539 10573
case                            004457 automatic       fixed bin(18,0)          dcl 10335 in procedure "initialize_symbol" set ref
                                                                                  10379* 10383* 10385* 10418
cdt                             000621 automatic       fixed bin(4,0)           dcl 2349 set ref 2824* 2826
ceil                                                   builtin function         dcl 1662 ref 1684 1696
cg_globals                             based           structure                level 1 dcl 58
cg_struc_ptr                    000102 automatic       pointer                  dcl 43 set ref 69* 590 641 646 651 706* 3622 3636
                                                                                  3948 7629 7630 7632 7641 7642 7649 7650 7651
chain                     2            based           pointer                  level 2 in structure "entry" dcl 1846 in procedure
                                                                                  "create_storage_entry" set ref 1898 1899 1905*
                                                                                  1905 1906* 1921 1925 1926 1928 1937* 1937 1940*
                                                                                  1992 1997 2028 2074 2088*
chain                                  parameter       fixed bin(18,0)          dcl 4914 in procedure "thread_temp" ref 4908 4921
                                                                                  4922
chain_head                      000106 automatic       pointer                  dcl 1836 set ref 1879* 1898 1913* 1920 1963* 1963*
                                                                                  1967 1983 1985 1986 1986 1989 1989 1992 2032*
                                                                                  2032* 2033 2070* 2072
char                                                   builtin function         dcl 9-21 in procedure "create_constant" ref 9-45
                                                                                  9-45
char                                                   builtin function         dcl 569 in procedure "code_generator" ref 1582 1582
                                                                                  1636 1636 1705 1705 1708 1708 1740 1740 1746 1746
                                                                                  1886 1886 2207 2207 4571 4571 5381 5381
char                                                   builtin function         dcl 10-17 in procedure "create_node" ref 10-29 10-29
char1                           000625 automatic       char(1)                  packed unaligned dcl 2350 set ref 4049* 4050* 4050*
char77_target                          based           char                     array packed unaligned dcl 10476 in procedure
                                                                                  "list_initialize_symbol" set ref 10588*
char77_target                          based           char                     array packed unaligned dcl 10353 in procedure
                                                                                  "initialize_symbol" set ref 10432*
char_77_mode                    003607 automatic       bit(1)                   dcl 7759 set ref 7767* 7873 7881 7894
char_constant                          based           structure                level 1 dcl 1-316 set ref 2659 2659
char_constant_length            000120 automatic       fixed bin(18,0)          unsigned dcl 1-378 set ref 2658* 2659 2659
char_constant_node              000732 constant        fixed bin(4,0)           initial dcl 3-87 set ref 2659* 3425 4058 5302 8265
                                                                                  9428 9549 9870
char_image                             based           char                     dcl 466 set ref 806*
char_length                            parameter       fixed bin(18,0)          dcl 4623 ref 4618 4626
char_mode                              constant        fixed bin(4,0)           initial dcl 3-106 ref 9-43 1358 2662 2673 4625 4648
                                                                                  4977 5633 8842 9268 9546 9867 9946 10024 10103
char_num                  1(18)        based           fixed bin(2,0)           level 3 in structure "temporary" packed packed
                                                                                  unsigned unaligned dcl 1-1005 in procedure
                                                                                  "ext_code_generator" set ref 8997* 8998
char_num                  1(18)        based           fixed bin(2,0)           level 3 in structure "node" packed packed unsigned
                                                                                  unaligned dcl 1-63 in procedure
                                                                                  "ext_code_generator" set ref 3075 6262 6263* 6334*
                                                                                  8186 9326
char_num                  1(18)        based           fixed bin(2,0)           level 3 in structure "symbol" packed packed unsigned
                                                                                  unaligned dcl 1-844 in procedure
                                                                                  "ext_code_generator" set ref 1763* 3068 8225 10371
                                                                                  10494
char_num                  1(18)        based           fixed bin(2,0)           level 3 in structure "array_ref" packed packed
                                                                                  unsigned unaligned dcl 1-155 in procedure
                                                                                  "ext_code_generator" set ref 3073 7896 7897* 7898
                                                                                  8244* 8245
char_num_hold                   003174 automatic       fixed bin(2,0)           dcl 6233 set ref 6262* 6295 6301 6310 6320 6334
char_overlay                           based           char(1)                  array packed unaligned dcl 10355 set ref 10372
char_size                10            based           fixed bin(20,0)          level 4 packed packed unsigned unaligned dcl 1-844
                                                                                  set ref 3548 9546 9877 10029* 10378 10382 10500
                                                                                  10504
char_star_ndims                 000114 automatic       fixed bin(18,0)          dcl 9909 in procedure "make_symbol_descriptor" set
                                                                                  ref 9932* 9970* 10015 10015 10029 10030
char_star_ndims                 004351 automatic       fixed bin(18,0)          dcl 10057 in procedure "make_entry_descriptor" set
                                                                                  ref 10080* 10127* 10172 10172
char_target                            based           char                     array dcl 10351 in procedure "initialize_symbol" set
                                                                                  ref 10428*
char_target                            based           char                     array dcl 10474 in procedure
                                                                                  "list_initialize_symbol" set ref 10583*
char_temp                       001332 automatic       char(8)                  packed unaligned dcl 2469 set ref 4028* 4029 4029
                                                                                  4041* 4042 4042
char_units                             constant        fixed bin(3,0)           initial dcl 3-136 ref 1760 3063 4651 5633 6253 6279
                                                                                  6287 7767 8265 8369 8540 9270 9948 10105 10369
                                                                                  10375 10494 10497
character                10(25)        based           bit(1)                   level 5 in structure "symbol" packed packed
                                                                                  unaligned dcl 1-844 in procedure
                                                                                  "ext_code_generator" set ref 10026* 10375 10497
character                 0(32)        based           bit(1)                   level 4 in structure "header" packed packed
                                                                                  unaligned dcl 1-436 in procedure
                                                                                  "ext_code_generator" ref 10872
character_operand         1            based           fixed bin(18,0)          level 2 unsigned dcl 1-605 ref 653
chars_per_dw                           constant        fixed bin(9,0)           initial dcl 3-68 ref 799 4035 4038 4038 4041 4042
                                                                                  4042
chars_per_word                  000730 constant        fixed bin(9,0)           initial dcl 3-68 ref 804 804 1762 1763 2666 2677
                                                                                  4022 4025 4025 4028 4029 4029 4627 4627 7881 7897
                                                                                  7898 7900 8186 8204 8225 8244 8245 8247 8994 8995
                                                                                  8997 8998 9000 9082 9925 10073 10845 10845 10872
                                                                                  10872
check_multiply           11(31)        based           bit(1)                   level 3 packed packed unaligned dcl 1-753 ref 4129
check_stringrange                      constant        fixed bin(18,0)          initial dcl 2449 set ref 8095*
check_subscript                        constant        fixed bin(18,0)          initial dcl 2449 set ref 7743*
class                     1(33)        based           bit(3)                   level 2 in structure "definition" packed packed
                                                                                  unaligned dcl 26-12 in procedure
                                                                                  "generate_definition" set ref 10967*
class                                  parameter       fixed bin(3,0)           dcl 10934 in procedure "generate_definition" ref
                                                                                  10931 10967 10969 10973 10978
cleanup                                                builtin function         dcl 569 ref 973
cleanup_body_address            000146 automatic       fixed bin(18,0)          unsigned dcl 423 set ref 1537* 1538 1548* 1553* 4155
clength                         002654 automatic       fixed bin(18,0)          dcl 4611 set ref 4626* 4627 4650
clp                             000114 automatic       pointer                  dcl 939 set ref 1538* 1539 1540 1541 1541 1541 1541
                                                                                  1541 1543 1544 1547*
cm                              000107 automatic       fixed bin(18,0)          dcl 9909 in procedure "make_symbol_descriptor" set
                                                                                  ref 9973* 9975* 9979 9986* 9986
cm                              000216 automatic       fixed bin(18,0)          dcl 2222 in procedure "get_array_size" set ref 2237*
                                                                                  2239 2240* 2240
cm                              004345 automatic       fixed bin(18,0)          dcl 10057 in procedure "make_entry_descriptor" set
                                                                                  ref 10130* 10132* 10136 10143* 10143
cmpx_image                             based           complex float bin(27)    dcl 2474 set ref 2643*
cmpx_mode                       000730 constant        fixed bin(4,0)           initial dcl 3-106 set ref 1356 2644* 3114 3120 7234
code                                   parameter       fixed bin(18,0)          dcl 5858 in procedure "c_a_18" ref 5851 5871
code                            000103 automatic       fixed bin(18,0)          dcl 6405 in procedure "base_man_load_large_base" set
                                                                                  ref 6410* 6412* 6419 6437
code                                   parameter       fixed bin(18,0)          dcl 5985 in procedure "base_man_load_any_pr" ref
                                                                                  5982 5996
code                                   parameter       fixed bin(18,0)          dcl 5805 in procedure "c_a" ref 5800 5811
code_emitted                    003606 automatic       bit(1)                   dcl 7759 set ref 7766* 7915 7977 7999 8139* 8147*
                                                                                  8159* 8168* 8176 8184* 8341* 8355* 8385 8393* 8450
                                                                                  8656 8731 8757* 8768
common                    0(20)        based           bit(1)                   level 3 packed packed unaligned dcl 18-23 set ref
                                                                                  2051 2112*
common_chain              2            based           fixed bin(18,0)          level 2 packed packed unsigned unaligned dcl 1-753
                                                                                  ref 1155
common_length                   000122 automatic       fixed bin(35,0)          dcl 1957 set ref 1967* 1993
common_link               3            based           fixed bin(18,0)          level 2 packed packed unsigned unaligned dcl 18-23
                                                                                  set ref 1986* 2051* 2051
compare_inst                    000501 constant        fixed bin(18,0)          initial array dcl 22-16 ref 3458 3497
con                             000276 automatic       fixed bin(18,0)          dcl 470 set ref 770* 770* 771* 794* 794* 795*
const                           000112 automatic       fixed bin(18,0)          dcl 9909 in procedure "make_symbol_descriptor" set
                                                                                  ref 10013* 10015* 10031 10039
const                           004131 automatic       fixed bin(18,0)          dcl 9238 in procedure "make_descriptor" set ref
                                                                                  9281* 9291* 9301
const                           004347 automatic       fixed bin(18,0)          dcl 10057 in procedure "make_entry_descriptor" set
                                                                                  ref 10170* 10172* 10176 10180 10184
constant                               based           structure                level 1 dcl 1-256 set ref 9-74 9-74
constant_count           77            based           fixed bin(17,0)          array level 3 dcl 53 set ref 9-87* 9-87
constant_info            77            based           structure                array level 2 dcl 53
constant_node                   000733 constant        fixed bin(4,0)           initial dcl 3-87 set ref 9-74* 3425 4047 5300 9602
                                                                                  9614 9718 9727 9747
constant_type                          constant        fixed bin(4,0)           initial dcl 3-120 ref 9-82 2661 7697 7728 7808 8035
                                                                                  8042
conv_round             2500            based           entry variable           array level 2 dcl 53 ref 2826
copy                                                   builtin function         dcl 569 in procedure "code_generator" ref 1988 2105
                                                                                  2107 2137
copy                                                   builtin function         dcl 9689 in procedure "lhs_fld" ref 9749
count                           002732 automatic       fixed bin(18,0)          dcl 4813 in procedure "free_temp" set ref 4825* 4826
count                                  based           bit(9)                   level 2 in structure "acc" packed packed unaligned
                                                                                  dcl 10800 in procedure "name_assign" set ref 10821
                                                                                  10841*
count_type                             constant        fixed bin(4,0)           initial dcl 3-120 ref 3045
create_char_constant   1524            based           entry variable           level 2 dcl 53 ref 4029 4042 4050 4050 10015 10172
create_constant_block
                         34            based           entry variable           level 2 dcl 58 ref 3948
create_entry                           based           structure                level 1 unaligned dcl 18-23 set ref 1823 2030
create_init_entry                      based           structure                level 1 unaligned dcl 18-61 set ref 10593
cs                              000570 automatic       pointer                  dcl 2334 in procedure "interpreter" set ref 2622*
                                                                                  2623* 3073 3183 3194 3685 3826 3828 4109 4124 4129
                                                                                  4295 4651 6499 6501 6538 6540 7728 8089 9822*
                                                                                  9823* 9825 9828 9831 9837
cs                                     parameter       pointer                  dcl 2281 in procedure "create_automatic_integer" ref
                                                                                  2276 2293 2294
cs                                     parameter       pointer                  dcl 746 in procedure "get_subr_options" ref 740 748
                                                                                  749 750 751 752
cs                              000106 automatic       pointer                  dcl 939 in procedure "assign_storage" set ref 994*
                                                                                  995* 999 1003 1011 1015 1065 1065 1067 1068 1083
                                                                                  1140 1140 1142 1143 1155 1170 1170 1172 1173 1185
                                                                                  1203 1203 1203 1207 1208 1208 1209 1209 1233 1233
                                                                                  1235 1236 1244 1255 1442 1443 1443 1468 1468 1470
                                                                                  1471 1478 1592* 1593* 1597 1603 1623 1636 2160*
                                                                                  2161* 2164 2164 2166 2186 2190 2205 2207 2264*
cs                              000104 automatic       pointer                  dcl 9908 in procedure "make_symbol_descriptor" set
                                                                                  ref 10035* 10036 10037
csize                           004460 automatic       fixed bin(18,0)          dcl 10335 in procedure "initialize_symbol" set ref
                                                                                  10378* 10382* 10428 10428 10428 10432 10432 10432
csize                           003763 automatic       fixed bin(18,0)          dcl 8820 in procedure "create_array_ref" set ref
                                                                                  8844* 8845 8848 8850
csize                           004014 automatic       fixed bin(18,0)          array dcl 8925 in procedure "start_cat" set ref
                                                                                  8935* 8944* 8959*
csize                           000115 automatic       fixed bin(18,0)          dcl 9909 in procedure "make_symbol_descriptor" set
                                                                                  ref 9950* 9951 9951
csize                                  parameter       fixed bin(18,0)          dcl 6736 in procedure "xr_man_load_const" ref 6731
                                                                                  6741
csize                           004352 automatic       fixed bin(18,0)          dcl 10057 in procedure "make_entry_descriptor" set
                                                                                  ref 10107* 10108 10108
csize                           004060 automatic       fixed bin(18,0)          dcl 9043 in procedure "get_cat_lengths" set ref
                                                                                  9048* 9049 9054 9055 9068 9081 9088
csize                           004036 automatic       fixed bin(18,0)          dcl 8973 in procedure "continue_cat" set ref 8986*
                                                                                  8987 8994 9004 9007* 9007 9007 9009 9009
csize                           003624 automatic       fixed bin(18,0)          dcl 8025 in procedure "finish_subscript" set ref
                                                                                  8087* 8092* 8101 8101 8108 8108
csize                           000125 automatic       fixed bin(18,0)          dcl 10457 in procedure "list_initialize_symbol" set
                                                                                  ref 10500* 10504* 10551 10556 10583 10583 10583
                                                                                  10588 10588 10588
csize                           004133 automatic       fixed bin(18,0)          dcl 9238 in procedure "make_descriptor" set ref
                                                                                  9272* 9273 9273
csize                           003121 automatic       fixed bin(18,0)          dcl 5543 in procedure "get_eis_length" set ref 5552*
                                                                                  5553 5553 5556 5556 5556 5558 5558
csize                                  parameter       fixed bin(18,0)          dcl 6801 in procedure "xr_man_add_const" ref 6795
                                                                                  6809
csp                             004414 automatic       pointer                  dcl 10194 set ref 10202* 10206 10214 10225 10233
                                                                                  10239* 10241 10259* 10261 10263 10279
csub                            003555 automatic       fixed bin(18,0)          dcl 7688 set ref 7699* 7701 7706
csum                            003576 automatic       fixed bin(24,0)          dcl 7757 set ref 7768* 7779* 7779 7785 7791 7794*
                                                                                  7811* 7811 7827 7833 7835* 7846* 7846 7853* 7853
                                                                                  7873 7873 7881* 7881 7884* 7884 7896* 7896 7897
                                                                                  7898 7898* 7898 7900* 7900 7910* 7910 7935* 7950*
                                                                                  7950 7956 7980 7983 7983 7983 7983 7985 8186*
                                                                                  8190* 8190 8199* 8199 8204* 8204 8226 8244 8245
                                                                                  8245* 8245 8247* 8247 8260 8264 8751 8752*
cur_frame                       000564 automatic       pointer                  dcl 2331 set ref 2712* 2714* 2869 2879 2913 2975
                                                                                  2978 2981 2986 2991 2991 2993 2993 2993 2995 2995
                                                                                  2999 3003 3003 3004 3004 3639 3640* 3640 3643 3645
                                                                                  4445* 4445 4446 4506 4507 4534 4534* 4534 4536*
                                                                                  4540 4542 4545 4546 4547 4548 4567 4576 4576 4580
cur_pos                         000100 automatic       fixed bin(18,0)          unsigned dcl 1785 set ref 1812* 1816 2024* 2025
cur_statement            67            based           fixed bin(18,0)          level 2 dcl 53 set ref 584* 3703* 3705 3708
cur_subprogram           71            based           fixed bin(18,0)          level 2 dcl 53 set ref 993* 993* 994* 1591* 1591*
                                                                                  1592* 2159* 2159* 2160* 2621* 2622 3685* 3686 9822
                                                                                  10035
cur_subr                        004412 automatic       fixed bin(18,0)          dcl 10193 set ref 10201* 10201* 10202* 10238* 10238*
                                                                                  10239* 10258* 10258* 10259*
current_def_offset        7     000122 automatic       fixed bin(18,0)          level 2 dcl 61 set ref 699*
current_link_offset      10     000122 automatic       fixed bin(18,0)          level 2 dcl 61 set ref 700*
current_offset                  000123 automatic       fixed bin(35,0)          dcl 1958 set ref 1999* 2001* 2005 2014 2016*
current_text_offset       6     000122 automatic       fixed bin(18,0)          level 2 dcl 61 set ref 698*
currentsize                                            builtin function         dcl 569 in procedure "code_generator" ref 10593
currentsize                                            builtin function         dcl 1790 in procedure "create_storage_entry" ref
                                                                                  1823 2030
cvalue                          003603 automatic       fixed bin(18,0)          dcl 7758 set ref 7810* 7811 8222* 8223* 8223 8225*
                                                                                  8225 8226* 8226 8228 8228
d                               000102 automatic       pointer                  dcl 9908 in procedure "make_symbol_descriptor" set
                                                                                  ref 9966* 9967 9982 9984 9985 9986 9996 9996 10001
                                                                                  10001 10003 10023* 10024 10025 10026 10027 10028
                                                                                  10029 10030 10031
d                               003660 automatic       pointer                  dcl 7995 in procedure "add_pointer" set ref 8003*
                                                                                  8004
d                               004342 automatic       pointer                  dcl 10056 in procedure "make_entry_descriptor" set
                                                                                  ref 10085* 10088 10088* 10088 10092 10093 10123*
                                                                                  10124 10139 10141 10142 10143 10153 10153 10158
                                                                                  10158 10160
d                               000214 automatic       pointer                  dcl 2221 in procedure "get_array_size" set ref 2226*
                                                                                  2230 2230 2231 2232 2238 2239 2240 2243 2244 2256
                                                                                  2258 2258 2259 2259 2259 2259 2262 2262 2262 2262
                                                                                  2264 2266
d                               003570 automatic       pointer                  dcl 7756 in procedure "finish_subscript" set ref
                                                                                  7763* 7771 7777 7779 7780 7797 7853 7853 7860 7873
                                                                                  8307* 8309 8313 8315 8317 8318 8320 8335 8337 8337
                                                                                  8338 8339 8344 8346 8387 8389 8390 8394 8399 8399
                                                                                  8401 8402 8408 8410 8412 8413 8415 8472 8472 8479
                                                                                  8479 8481 8481 8498 8506 8506 8508 8514 8514 8514
                                                                                  8516 8527 8534 8575 8577 8579 8587 8589 8600 8608
                                                                                  8611 8612 8616 8620 8623 8623 8624 8625 8628 8632
                                                                                  8635 8638 8640
d                               003546 automatic       pointer                  dcl 7687 in procedure "next_subscript" set ref 7691*
                                                                                  7701 7701 7706 7706 7728 7728 7728 7733 7733 7735
                                                                                  7738 7738 7740
d                               003744 automatic       pointer                  dcl 8790 in procedure "start_subscript" set ref
                                                                                  8793* 8795
data_size                       000104 automatic       fixed bin(17,0)          dcl 9-22 set ref 9-47* 9-49 9-87 9-87 9-89 9-89 9-91
                                                                                  9-93
data_type                 0(05)        based           fixed bin(4,0)           level 2 in structure "char_constant" packed packed
                                                                                  unsigned unaligned dcl 1-316 in procedure
                                                                                  "ext_code_generator" set ref 2662*
data_type                 0(05)        based           fixed bin(4,0)           level 2 in structure "temporary" packed packed
                                                                                  unsigned unaligned dcl 1-1005 in procedure
                                                                                  "ext_code_generator" set ref 4644* 4977*
data_type                              parameter       fixed bin(4,0)           dcl 9-15 in procedure "create_constant" ref 9-13
                                                                                  9-40
data_type                 0(05)        based           fixed bin(4,0)           level 2 in structure "node" packed packed unsigned
                                                                                  unaligned dcl 1-63 in procedure
                                                                                  "ext_code_generator" ref 9-65 3478 4047 5633 7466
                                                                                  7466 7469 9266 9393 9430 9544 9544 9544 9546 9582
                                                                                  9588 9692 9698 9867
data_type                 0(05)        based           fixed bin(4,0)           level 2 in structure "constant" packed packed
                                                                                  unsigned unaligned dcl 1-256 in procedure
                                                                                  "ext_code_generator" set ref 9-81* 2824
data_type                 0(05)        based           fixed bin(4,0)           level 2 in structure "symbol" packed packed unsigned
                                                                                  unaligned dcl 1-844 in procedure
                                                                                  "ext_code_generator" set ref 1356 1358 1432 2288*
                                                                                  2692* 3016 3101 3103 3128 4955* 8316* 8411* 8840
                                                                                  8842 9505 9944 10024* 10101 10385 10507
data_type                 0(05)        based           fixed bin(4,0)           level 2 in structure "array_ref" packed packed
                                                                                  unsigned unaligned dcl 1-155 in procedure
                                                                                  "ext_code_generator" set ref 2673* 7234 8840*
data_type                 1            based           fixed bin(4,0)           array level 3 in structure "arg_desc" packed packed
                                                                                  unsigned unaligned dcl 1-130 in procedure
                                                                                  "ext_code_generator" set ref 9393* 9430 9502 9505*
                                                                                  9527*
data_type                 0(18)        based           fixed bin(9,0)           array level 2 in structure "macro_dt_inst" packed
                                                                                  packed unaligned dcl 2547 in procedure
                                                                                  "interpreter" ref 2767 2790 2802 2825 4595 7630
                                                                                  7650
data_type                              parameter       fixed bin(4,0)           dcl 4609 in procedure "assign_temp" ref 4604 4613
data_type_size                  000626 constant        fixed bin(17,0)          initial array dcl 3-115 ref 9-43 9-47 1432 2808 4614
                                                                                  4941 10385 10507
datum                     2            based           bit                      level 2 packed packed unaligned dcl 18-61 set ref
                                                                                  10575 10579 10583 10588
debugging               113(16)        based           structure                level 4 in structure "shared_globals" packed packed
                                                                                  unaligned dcl 53 in procedure "ext_code_generator"
debugging                11(16)        based           structure                level 3 in structure "subprogram" packed packed
                                                                                  unaligned dcl 1-753 in procedure
                                                                                  "ext_code_generator"
decimal                                                builtin function         dcl 9-23 ref 9-45 9-45
decl_vers                              based           fixed bin(17,0)          level 2 dcl 13-10 set ref 715*
def_base                        000206 automatic       pointer                  dcl 438 set ref 672* 10632 10646 10760 10833 10875
                                                                                  10887 10952 10959 11014
def_header                             based           structure                level 1 dcl 10611
def_offset                1            based           bit(18)                  level 2 packed packed unaligned dcl 12-52 set ref
                                                                                  10621*
def_pool                        000251 automatic       fixed bin(18,0)          array dcl 468 set ref 586* 10909 10910 10910 10917*
def_pos                         000161 automatic       fixed bin(18,0)          dcl 428 set ref 587* 693 699 719 10636* 10760 10761
                                                                                  10778 10785 10788* 10788 10833 10844 10845* 10845
                                                                                  10875 10875 10883* 10883 10883 10886 10917 10920*
                                                                                  10920 10921* 10921 10923* 10923 10951 10981* 10981
def_ptr                         004632 automatic       pointer                  dcl 10938 in procedure "generate_definition" set ref
                                                                                  10952* 10955 10957 10961 10963 10964 10965 10967
                                                                                  10972 10973
def_ptr                         004530 automatic       pointer                  dcl 10701 in procedure "compile_link" set ref 10760*
                                                                                  10766 10768 10772 10773 10778
def_ptr                         004652 automatic       pointer                  dcl 10991 in procedure "gen_entry_defs" set ref
                                                                                  11014* 11019
def_reloc_base                  000220 automatic       pointer                  dcl 439 set ref 673* 697 10633 10761 10953
def_reloc_base_ptr        4     000122 automatic       pointer                  level 2 dcl 61 set ref 697*
def_reloc_ptr                   004634 automatic       pointer                  dcl 10938 in procedure "generate_definition" set ref
                                                                                  10953* 10976 10977 10978
def_reloc_ptr                   004534 automatic       pointer                  dcl 10701 in procedure "compile_link" set ref 10761*
                                                                                  10769 10774 10776 10779
defblock                  2(18)        based           bit(18)                  level 2 packed packed unaligned dcl 24-3 set ref
                                                                                  10646*
definition                             based           structure                level 1 dcl 27-12 in procedure "gen_entry_defs"
definition                             based           structure                level 1 dcl 26-12 in procedure "generate_definition"
definition_length         4(18)        based           bit(18)                  level 2 packed packed unaligned dcl 13-10 set ref
                                                                                  719*
definition_offset         4            based           bit(18)                  level 2 packed packed unaligned dcl 13-10 set ref
                                                                                  718*
defrel                          000165 automatic       fixed bin(18,0)          dcl 428 set ref 671* 672 673 693 718 10621 10825
desc                            000615 automatic       fixed bin(18,0)          dcl 2348 in procedure "interpreter" set ref 3963*
                                                                                  3968*
desc                            000110 automatic       fixed bin(18,0)          dcl 9909 in procedure "make_symbol_descriptor" set
                                                                                  ref 10022* 10023 10036 10037 10039* 10043 10047
desc                            004104 automatic       fixed bin(18,0)          dcl 9153 in procedure "get_param_char_size" set ref
                                                                                  9157* 9163 9163 9163* 9169 9181 9187* 9188* 9195
                                                                                  9196*
desc                            004130 automatic       fixed bin(18,0)          dcl 9238 in procedure "make_descriptor" set ref
                                                                                  9288* 9292* 9298 9299 9301* 9303
desc                            003636 automatic       fixed bin(18,0)          dcl 8289 in procedure "finish_subscript" set ref
                                                                                  8297* 8303 8303 8303* 8325 8335 8369 8460 8460*
                                                                                  8463* 8540 8547* 8549* 8551* 8577 8580* 8598 8601*
                                                                                  8609 8609* 8618 8621* 8630 8633* 8636 8636*
desc                            004116 automatic       fixed bin(18,0)          dcl 9213 in procedure "copy_array_desc_template" set
                                                                                  ref 9216* 9218 9219*
desc                            004646 automatic       fixed bin(18,0)          dcl 10990 in procedure "gen_entry_defs" set ref
                                                                                  11025* 11026
desc_image                             based           char                     packed unaligned dcl 9925 in procedure
                                                                                  "make_symbol_descriptor" set ref 10015* 10029
desc_image                             based           char                     packed unaligned dcl 10073 in procedure
                                                                                  "make_entry_descriptor" set ref 10172*
desc_no                                parameter       fixed bin(18,0)          dcl 5279 ref 5271 5316 5328 5331 5331
desc_temp_chain                 000600 automatic       fixed bin(18,0)          unsigned dcl 2344 set ref 2701* 3976 3978 3979* 9298
                                                                                  9299*
descriptor                      004354 automatic       structure                level 1 dcl 10060 in procedure
                                                                                  "make_entry_descriptor" set ref 10078* 10172
descriptor                             based           structure                array level 1 dcl 5431 in procedure "emit_eis" set
                                                                                  ref 5494
descriptor               11(10)        based           bit(1)                   level 3 in structure "symbol" packed packed
                                                                                  unaligned dcl 1-844 in procedure
                                                                                  "ext_code_generator" set ref 2695* 5707
descriptor                      004135 automatic       structure                level 1 dcl 9241 in procedure "make_descriptor" set
                                                                                  ref 9251*
descriptor                      000117 automatic       structure                level 1 dcl 9912 in procedure
                                                                                  "make_symbol_descriptor" set ref 9930* 10015 10029
descriptor_mask_addr            000345 constant        bit(36)                  initial dcl 2458 set ref 9176* 9290*
descriptor_ptr                         constant        fixed bin(18,0)          initial dcl 2385 ref 6538
descriptor_relp           0(18)        based           fixed bin(18,0)          array level 2 packed packed unsigned unaligned
                                                                                  dcl 515 set ref 3736* 3738 11025 11026*
descriptor_type_word            000321 automatic       structure                array level 1 dcl 552 set ref 9263 9267 9941 9945
                                                                                  10098 10102
diff                            000112 automatic       fixed bin(18,0)          dcl 5994 set ref 5998* 6020* 6085 6085* 6085*
dim                       5            based           structure                array level 2 dcl 1-383
dim_no                                 parameter       fixed bin(18,0)          dcl 8566 ref 8559 8569
dimension                12(25)        based           fixed bin(18,0)          level 2 in structure "symbol" packed packed unsigned
                                                                                  unaligned dcl 1-844 in procedure
                                                                                  "ext_code_generator" set ref 1306 2226 3611 3761
                                                                                  7691 7763 8003 8228 8307 8793 9371 9966 10123
dimension                              based           structure                level 1 dcl 1-383 in procedure "ext_code_generator"
dimensioned              10(35)        based           bit(1)                   level 4 packed packed unaligned dcl 1-844 set ref
                                                                                  1351 1426 1769 3054 3813 6142 6181 9169 9184 9371
                                                                                  9394 9438 9506 9964 10121 10387 10509
directable                0(18) 000024 external static bit(1)                   array level 2 packed packed unaligned dcl 2375 ref
                                                                                  5235 5308 5398
div                                    constant        fixed bin(18,0)          initial dcl 22-16 ref 7942
divide                                                 builtin function         dcl 569 ref 663 693 712 804 893 1285 1514 1545 1561
                                                                                  1762 2844 4284 4627 7898 7900 8245 8247 8998 9000
                                                                                  10543 10548 10551 10553 10845 10872 10997
do_rounding                     000230 automatic       bit(1)                   dcl 441 in procedure "code_generator" set ref 748*
                                                                                  3485 3997 7263 7343 7541
do_rounding              11(28)        based           bit(1)                   level 3 in structure "subprogram" packed packed
                                                                                  unaligned dcl 1-753 in procedure
                                                                                  "ext_code_generator" ref 748
dollar_name                     004541 automatic       char(32)                 dcl 10706 set ref 10733* 10734* 10745* 10746*
dont_update               0(22)        based           bit(1)                   level 3 in structure "node" packed packed unaligned
                                                                                  dcl 1-63 in procedure "ext_code_generator" set ref
                                                                                  5610 5622* 7070 7209* 7518* 8705*
dont_update               0(22)        based           bit(1)                   level 3 in structure "temporary" packed packed
                                                                                  unaligned dcl 1-1005 in procedure
                                                                                  "ext_code_generator" set ref 7252 7257* 7335 7338*
                                                                                  8076*
dont_update               0(22)        based           bit(1)                   level 3 in structure "symbol" packed packed
                                                                                  unaligned dcl 1-844 in procedure
                                                                                  "ext_code_generator" set ref 7270* 7350*
double_target                          based           bit(72)                  array dcl 10349 in procedure "initialize_symbol" set
                                                                                  ref 10424*
double_target                          based           bit(72)                  array dcl 10472 in procedure
                                                                                  "list_initialize_symbol" set ref 10579*
dp_image                               based           float bin(63)            dcl 2473 set ref 2640*
dp_mode                         000734 constant        fixed bin(4,0)           initial dcl 3-106 set ref 2629* 2641*
dt                              000111 automatic       fixed bin(18,0)          dcl 9909 in procedure "make_symbol_descriptor" set
                                                                                  ref 9944* 9945 9946
dt                                     parameter       fixed bin(18,0)          dcl 4937 in procedure "push_variable" ref 4932 4941
                                                                                  4955
dt                              004346 automatic       fixed bin(18,0)          dcl 10057 in procedure "make_entry_descriptor" set
                                                                                  ref 10101* 10102 10103
dt                              004132 automatic       fixed bin(18,0)          dcl 9238 in procedure "make_descriptor" set ref
                                                                                  9266* 9267 9268
dt                              002655 automatic       fixed bin(18,0)          dcl 4611 in procedure "assign_temp" set ref 4613*
                                                                                  4614 4625* 4640* 4644 4648
dt                              000622 automatic       fixed bin(4,0)           dcl 2349 in procedure "interpreter" set ref 2767*
                                                                                  2770 2770* 2770* 2802* 2805 2807* 2807* 2808 2825*
                                                                                  2826 2828* 2905* 2906* 3128* 3131 3131 3137
dt1                             000623 automatic       fixed bin(4,0)           dcl 2349 set ref 3101* 3105 3111 3114 3123
dt2                             000624 automatic       fixed bin(4,0)           dcl 2349 set ref 3103* 3108 3117 3120 3123
dt_from_reg                     000374 constant        fixed bin(4,0)           initial array dcl 2399 ref 2905 3458
dummy                                  constant        fixed bin(4,0)           initial dcl 3-120 ref 1489 1508 1539 2684
e                               004206 automatic       fixed bin(17,0)          dcl 9474 set ref 9478* 9479 9479 9480* 9480 9482
eaq                             001334 automatic       structure                array level 2 in structure "machine_state" dcl 2479
                                                                                  in procedure "interpreter" set ref 6982 7128 7245
                                                                                  7393
eaq                       0(15)        based           bit(1)                   level 4 in structure "node" packed packed unaligned
                                                                                  dcl 1-63 in procedure "ext_code_generator" set ref
                                                                                  3091 3406 3406 3416 3416 3425 3425 5556 5610 6158
                                                                                  6681 6980 7075 7125 7173* 7194* 7209* 7234 7273*
                                                                                  7307* 7353* 7387 7518*
eaq                       0(15)        based           bit(1)                   level 4 in structure "symbol" packed packed
                                                                                  unaligned dcl 1-844 in procedure
                                                                                  "ext_code_generator" set ref 6960
eaq_name                        003467 automatic       fixed bin(18,0)          dcl 7534 in procedure "store" set ref 7537* 7541
                                                                                  7543 7547 7554 7555 7555* 7557*
eaq_name                  0(22)        based           fixed bin(5,0)           array level 2 in structure "macro_instruction"
                                                                                  packed packed unaligned dcl 2531 in procedure
                                                                                  "interpreter" set ref 2882 3094 3096 3158 3393
                                                                                  3400 3449 3466 3471 3479 3516 4000
eaq_name                        003443 automatic       fixed bin(18,0)          dcl 7366 in procedure "load" set ref 7368* 7370 7370
                                                                                  7384 7400 7400 7400 7404 7407 7421 7439 7441 7441*
                                                                                  7444*
eaq_name                        000616 automatic       fixed bin(18,0)          dcl 2348 in procedure "interpreter" set ref 3093*
                                                                                  3094 3096 3158* 3159 3400* 3406 3416 3416 3443*
                                                                                  3479* 3480 3485 3485 3485 3485 3492 3497 3516*
                                                                                  3518 4000* 4001 4003
eaq_name_to_reg                 000352 constant        fixed bin(17,0)          initial array dcl 2402 ref 3159 3450 3480 3518 4003
                                                                                  7105 7157 7191 7554
eax0                                   constant        fixed bin(18,0)          initial dcl 22-16 ref 6681 6755 6819
element_count             2            based           fixed bin(24,0)          level 2 dcl 1-383 ref 2230
element_size             15(07)        based           fixed bin(17,0)          level 2 packed packed unaligned dcl 1-844 set ref
                                                                                  1057 1428 1611 2175 2182 2230 2237 2290* 7844 7846
                                                                                  7847 7956 8260 8337 8347 8361 9973 9975 10030*
                                                                                  10130 10132
end_external_list               000174 automatic       fixed bin(18,0)          dcl 431 set ref 611* 10661
end_offset                             parameter       fixed bin(35,0)          dcl 10448 in procedure "list_initialize_symbol" set
                                                                                  ref 10440 10564 10568 10595*
end_offset                      000106 automatic       fixed bin(35,0)          dcl 10306 in procedure "list_initialize" set ref
                                                                                  10311* 10317*
ent_name                        004525 automatic       bit(18)                  dcl 10699 set ref 10717* 10741* 10746* 10752* 10754
                                                                                  10773
entry                     1(20)        based           bit(1)                   level 3 in structure "definition" packed packed
                                                                                  unaligned dcl 26-12 in procedure
                                                                                  "generate_definition" set ref 10973*
entry                           000020 external static fixed bin(17,0)          array level 2 in structure
                                                                                  "fort_cg_macros_$interpreter_macros" packed packed
                                                                                  unaligned dcl 2367 in procedure "interpreter" ref
                                                                                  4502
entry                           000022 external static fixed bin(17,0)          array level 2 in structure
                                                                                  "fort_cg_macros_$operator_table" packed packed
                                                                                  unaligned dcl 2371 in procedure "interpreter" ref
                                                                                  2948
entry                                  based           structure                level 1 unaligned dcl 1846 in procedure
                                                                                  "create_storage_entry" set ref 2075 2086
entry_info                7            based           fixed bin(18,0)          level 2 packed packed unsigned unaligned dcl 1-753
                                                                                  set ref 6501 6540 9828*
entry_info_size                 000731 constant        fixed bin(18,0)          initial dcl 2456 set ref 9829* 9830
entry_type                             constant        fixed bin(4,0)           initial dcl 3-120 ref 980
ep                              004214 automatic       pointer                  dcl 9475 set ref 9482* 9484 9486 9489 9496
epaq                                   constant        fixed bin(18,0)          initial dcl 22-16 ref 3771
equiv_chain               2(18)        based           fixed bin(18,0)          level 2 packed packed unsigned unaligned dcl 1-753
                                                                                  ref 1185
era                             000424 constant        fixed bin(18,0)          initial dcl 22-16 set ref 9773* 9789* 9805*
erq                             000423 constant        fixed bin(18,0)          initial dcl 22-16 set ref 9759*
err_flag                        000634 automatic       bit(1)                   dcl 2353 set ref 2923* 3660*
error_exit                             parameter       fixed bin(18,0)          dcl 4519 ref 4514 4546
error_label               5            based           fixed bin(18,0)          level 2 dcl 2510 set ref 3639 3655 4546*
ersq                            000422 constant        fixed bin(18,0)          initial dcl 22-16 set ref 9761* 9778* 9793* 9809*
escape_index                           constant        fixed bin(18,0)          initial dcl 2385 ref 6883
even                      0(30)        based           bit(1)                   level 4 packed packed unaligned dcl 1-436 ref 1193
exp_ptr                   1            based           bit(18)                  level 2 packed packed unaligned dcl 12-11 set ref
                                                                                  10785*
exp_word                               based           structure                level 1 dcl 12-21
ext_attributes            4            based           structure                level 2 packed packed unaligned dcl 1-844
ext_base                  1(29)        based           bit(1)                   level 3 in structure "temporary" packed packed
                                                                                  unaligned dcl 1-1005 in procedure
                                                                                  "ext_code_generator" set ref 4871*
ext_base                  1(29)        based           bit(1)                   level 3 in structure "node" packed packed unaligned
                                                                                  dcl 1-63 in procedure "ext_code_generator" ref
                                                                                  3922 5246 5519 5896 5907 6279 9321
ext_base                  0(29) 000101 automatic       bit(1)                   level 2 in structure "inst_address" packed packed
                                                                                  unaligned dcl 5807 in procedure "c_a" set ref
                                                                                  5836*
ext_base                  1(29)        based           bit(1)                   level 3 in structure "array_ref" packed packed
                                                                                  unaligned dcl 1-155 in procedure
                                                                                  "ext_code_generator" set ref 2674*
ext_base                  0(29) 001330 automatic       bit(1)                   level 2 in structure "inst_address" packed packed
                                                                                  unaligned dcl 2465 in procedure "interpreter" set
                                                                                  ref 3770* 7941*
ext_base                  0(29) 000123 automatic       bit(1)                   level 2 in structure "inst_address" packed packed
                                                                                  unaligned dcl 6564 in procedure
                                                                                  "base_man_store_temp" set ref 6572*
ext_base                  0(29)        based           bit(1)                   array level 3 in structure "instruction" packed
                                                                                  packed unaligned dcl 2581 in procedure
                                                                                  "interpreter" ref 5124 5262
ext_base                  1(29)        based           bit(1)                   level 3 in structure "symbol" packed packed
                                                                                  unaligned dcl 1-844 in procedure
                                                                                  "ext_code_generator" set ref 1349* 1402* 1454*
                                                                                  1491* 1510* 1541* 2686* 2696*
ext_base_and_tag          0(29)        based           structure                array level 2 in structure "machine_instruction"
                                                                                  packed packed unaligned dcl 2538 in procedure
                                                                                  "interpreter" set ref 5034
ext_base_and_tag          0(29)        based           structure                array level 2 in structure "instruction" packed
                                                                                  packed unaligned dcl 2581 in procedure
                                                                                  "interpreter"
ext_base_on                            constant        bit(36)                  initial dcl 563 ref 1021 1090 1161 1213 1310 4783
                                                                                  4985 5202 6292 6431 6459
ext_ptr                   1(18)        based           bit(18)                  level 2 packed packed unaligned dcl 12-25 set ref
                                                                                  10773*
ext_ref                                based           pointer                  array level 2 packed packed unaligned dcl 478 set
                                                                                  ref 1669 1669 1669 1675 1675 1678 1715 1718* 1729*
                                                                                  10662
external                 10(31)        based           bit(1)                   level 4 in structure "symbol" packed packed
                                                                                  unaligned dcl 1-844 in procedure
                                                                                  "ext_code_generator" set ref 1298 1382 1491* 3178
                                                                                  3932 5721 5764 9430
external                               constant        fixed bin(4,0)           initial dcl 3-120 in procedure "ext_code_generator"
                                                                                  ref 1298 1387 5384
external_list                          based           structure                level 1 dcl 478
factor                          000575 constant        fixed bin(18,0)          initial array dcl 886 in procedure
                                                                                  "get_size_in_words" ref 893 893
factor                          000571 constant        fixed bin(18,0)          initial array dcl 905 in procedure
                                                                                  "get_size_in_bits" ref 908
final_text_offset        11     000122 automatic       fixed bin(18,0)          level 2 dcl 61 set ref 701*
first                    13            based           fixed bin(18,0)          array level 3 in structure "subprogram" packed
                                                                                  packed unsigned unaligned dcl 1-753 in procedure
                                                                                  "ext_code_generator" set ref 1065* 1140* 1170*
                                                                                  1233* 1468* 1597 1603 2166 10206 10214 10225 10279
first                                  parameter       fixed bin(18,0)          dcl 5926 in procedure "get_free_reg" ref 5921 5940
first_auto_loc                  000640 constant        fixed bin(9,0)           initial dcl 3-68 ref 956
first_auto_var_loc              000304 automatic       fixed bin(18,0)          dcl 483 set ref 1562* 2666 2676 2677 10260 10260
                                                                                  10263
first_base                      000736 constant        fixed bin(18,0)          initial dcl 2385 set ref 6002 6023* 6038* 6061*
                                                                                  6073* 6416 6427* 6486 6496* 6525 6535* 6588 6611*
                                                                                  6892 6921 7025
first_block_constant                   defined         fixed bin(18,0)          dcl 4-153 set ref 623* 792
first_char_constant                    defined         fixed bin(18,0)          dcl 4-149 set ref 601* 626*
first_constant          100            based           fixed bin(18,0)          array level 3 dcl 53 set ref 9-89 9-89* 599 599 600
                                                                                  600 601 601 623 623 624 624 625 625 626 626 792
                                                                                  792
first_dw_constant                      defined         fixed bin(18,0)          dcl 4-145 set ref 599* 624*
first_element             3(18)        based           fixed bin(18,0)          level 2 packed packed unsigned unaligned dcl 1-436
                                                                                  ref 1055 1609 1755 1794 1915 2172 6958 10281 10314
                                                                                  10902
first_entry_name         75            based           fixed bin(18,0)          level 2 dcl 53 ref 977 1392 9478 10999
first_header                    000200 automatic       pointer                  initial dcl 436 set ref 436* 1853 1858 1870 1870*
                                                                                  1963 2066 2069* 2069 2069* 2070 2071* 2071* 2077
first_index                     000736 constant        fixed bin(18,0)          initial dcl 2385 set ref 6663 6675* 6743* 6749*
                                                                                  6815* 6929 6999 8071
first_label               4            based           fixed bin(18,0)          level 2 packed packed unsigned unaligned dcl 1-753
                                                                                  ref 1003
first_lib_name            1            based           fixed bin(18,0)          level 2 unsigned dcl 58 ref 641 651
first_namelist                  000176 automatic       fixed bin(18,0)          dcl 435 set ref 588* 704 1288*
first_namelist_symbol
                         14     000122 automatic       fixed bin(18,0)          level 2 dcl 61 set ref 704*
first_polish              5            based           fixed bin(18,0)          level 2 packed packed unsigned unaligned dcl 1-753
                                                                                  ref 9837
first_subprogram         72            based           fixed bin(18,0)          level 2 dcl 53 ref 993 1591 2159 2621 10201 10238
                                                                                  10258
first_symbol              3            based           fixed bin(18,0)          level 2 packed packed unsigned unaligned dcl 1-753
                                                                                  ref 1244 3828
first_time                      003604 automatic       bit(1)                   dcl 7759 set ref 7765* 7772 7802*
first_word_constant                    defined         fixed bin(18,0)          dcl 4-141 set ref 600* 625*
first_xr                               parameter       fixed bin(18,0)          dcl 6772 ref 6765 6780
fixed                                                  builtin function         dcl 569 ref 722 723 1361 1361 1705 1705 1708 1708
                                                                                  1711 1711 1715 1715 1812 1816 1886 1886 1889 1889
                                                                                  2024 2025 2136 2136 2251 2251 2708 2744 2959 3212
                                                                                  3693 3738 3763 3766 3779 3781 3791 4166 4176 4542
                                                                                  4850 5166 5166 5234 5260 5260 5389 5498 5516 5516
                                                                                  5563 5594 5594 5603 5603 5640 5640 5676 5690 5690
                                                                                  5710 5710 5909 6659 6812 6831 7045 7066 8235 8235
                                                                                  8276 8689 8689 8697 8808 8871 9325 9326 9867 9867
                                                                                  9894 9894 10093 10312 10325 10624 10785 10821
                                                                                  10825 10875 10897 10897
flag                            000321 automatic       bit(1)                   initial array level 2 packed packed unaligned
                                                                                  dcl 552 set ref 552*
flags                     1(18)        based           structure                level 2 in structure "definition" packed packed
                                                                                  unaligned dcl 26-12 in procedure
                                                                                  "generate_definition"
flags                     1(18)        based           bit(18)                  level 2 in structure "def_header" packed packed
                                                                                  unaligned dcl 10611 in procedure "init_linkage"
                                                                                  set ref 10632*
flags                     0(18)        based           structure                level 2 in structure "create_entry" packed packed
                                                                                  unaligned dcl 18-23 in procedure "code_generator"
flags                     0(05)        based           structure                level 2 in structure "proc_frame" packed packed
                                                                                  unaligned dcl 2510 in procedure "interpreter" set
                                                                                  ref 4540*
flags                     1(18)        based           structure                level 2 in structure "definition" packed packed
                                                                                  unaligned dcl 27-12 in procedure "gen_entry_defs"
format                    0(30)        based           bit(1)                   level 4 in structure "label" packed packed unaligned
                                                                                  dcl 1-530 in procedure "ext_code_generator" ref
                                                                                  11045
format                   12            based           structure                level 2 in structure "object_map" dcl 13-10
                                                                                  in procedure "code_generator"
format_var                4            based           fixed bin(18,0)          level 2 packed packed unsigned unaligned dcl 1-530
                                                                                  ref 11048
fort_cg_macros_$abort_list      000014 external static bit(36)                  dcl 2361 set ref 8808
fort_cg_macros_$error_macro     000016 external static bit(36)                  dcl 2361 set ref 8276
fort_cg_macros_$first_scan      000012 external static bit(36)                  dcl 2361 set ref 2707 2708
fort_cg_macros_$interpreter_macros
                                000020 external static structure                array level 1 dcl 2367
fort_cg_macros_$operator_table  000022 external static structure                array level 1 dcl 2371
fort_cg_macros_$single_inst     000026 external static structure                array level 1 dcl 2395 ref 5062 5078 5095 5109 5122
fort_instruction_info_$fort_instruction_info_
                                000024 external static structure                array level 1 dcl 2375
fort_make_symbol_section        000010 constant        entry                    external dcl 65 ref 706
fortran_declared                       based           structure                level 1 dcl 5-91
fortran_options                        based           structure                level 1 dcl 5-40
forward                                based           bit(18)                  level 2 packed packed unaligned dcl 26-12 set ref
                                                                                  10959* 10961*
forward_refs                           based           structure                array level 1 dcl 497 set ref 630
found_error                     004272 automatic       bit(1)                   initial packed unaligned dcl 9579 in procedure
                                                                                  "rhs_fld" set ref 9579* 9585* 9591* 9597* 9599
found_error                     004314 automatic       bit(1)                   initial packed unaligned dcl 9688 in procedure
                                                                                  "lhs_fld" set ref 9688* 9695* 9701* 9707* 9713*
                                                                                  9715
fptype                          000337 automatic       fixed bin(1,0)           initial dcl 561 set ref 561* 9263 9267 9941 9945
                                                                                  10098 10102
free_reg                        000124 automatic       fixed bin(3,0)           dcl 6565 set ref 6587* 6589* 6611*
free_temps                      000305 automatic       fixed bin(18,0)          array dcl 484 set ref 589* 589* 589* 3576* 3576*
                                                                                  3576* 4669 4673* 4681 4687* 4705 4706* 4888 4921
                                                                                  4922* 9839 9840 9842 9846 9847*
from_base_man                   000637 automatic       bit(1)                   dcl 2356 set ref 2703* 5635 6236* 6344*
ft2                       0(30)        based           bit(6)                   level 2 packed packed unaligned dcl 12-11 set ref
                                                                                  10782*
ft_char_dtype                          constant        fixed bin(17,0)          initial dcl 19-96 ref 552 552
ft_complex_dtype                       constant        fixed bin(17,0)          initial dcl 19-96 ref 552
ft_double_dtype                        constant        fixed bin(17,0)          initial dcl 19-96 ref 552
ft_external_dtype                      constant        fixed bin(17,0)          initial dcl 19-96 ref 552 552
ft_hex_complex_dtype                   constant        fixed bin(17,0)          initial dcl 19-96 ref 552
ft_hex_double_dtype                    constant        fixed bin(17,0)          initial dcl 19-96 ref 552
ft_hex_real_dtype                      constant        fixed bin(17,0)          initial dcl 19-96 ref 552
ft_integer_dtype                       constant        fixed bin(17,0)          initial dcl 19-96 ref 552 552
ft_logical_dtype                       constant        fixed bin(17,0)          initial dcl 19-96 ref 552 552
ft_real_dtype                          constant        fixed bin(17,0)          initial dcl 19-96 ref 552
full_pointer                           based           pointer                  dcl 10197 set ref 10209*
func                      0(05)        based           bit(1)                   level 3 packed packed unaligned dcl 2510 set ref
                                                                                  2869 2879 2978 3649 4542*
function                               constant        fixed bin(18,0)          initial dcl 2447 ref 2959 4542
gap_value                              constant        fixed bin(17,0)          initial dcl 3-57 ref 10390 10408 10536
general                   6(18)        based           fixed bin(18,0)          level 2 packed packed unsigned unaligned dcl 1-844
                                                                                  set ref 9195 9218 9379 9381 9387* 9411 9486 9489*
                                                                                  9489 9496 10031* 10088
generate_long_profile           000224 automatic       bit(1)                   dcl 441 set ref 750* 1574 4191 7596 10245
generate_profile                000225 automatic       bit(1)                   dcl 441 set ref 749* 1571 3708 4191 10245
generate_symtab                 000226 automatic       bit(1)                   dcl 441 set ref 751* 1482 1631
getlp                           000452 constant        fixed bin(18,0)          initial dcl 22-16 set ref 3283* 6631* 6906*
grow                                   parameter       bit(18)                  dcl 10694 ref 10691 10724 10768 10769
grow_info                       004622 automatic       bit(18)                  dcl 10860 set ref 10886* 10887 10925
grow_pt                         004612 automatic       pointer                  dcl 10854 set ref 10887* 10888 10898 10914 10915
h                               000100 automatic       pointer                  dcl 10303 in procedure "list_initialize" set ref
                                                                                  10308* 10309 10314
h                               004416 automatic       pointer                  dcl 10194 in procedure "initialize_static" set ref
                                                                                  10207* 10208 10210 10215* 10216 10221 10226* 10227
                                                                                  10232
h                               004434 automatic       pointer                  dcl 10273 in procedure "initialize" set ref 10280*
                                                                                  10281 10281 10287* 10288
h                                      parameter       pointer                  dcl 1783 in procedure "create_storage_entry" set ref
                                                                                  1775 1792* 1794 1794 1797 1801 1805 1826 1859 1881
                                                                                  1886 1886 1886 1886 1886 1886 1889 1889 1891 1891
                                                                                  1915 2087
h                               000110 automatic       pointer                  dcl 939 in procedure "assign_storage" set ref 1017*
                                                                                  1018 1020 1021 1022 1026 1030 1035 1036 1045 1046
                                                                                  1051* 1055 1060 1074 1075 1085* 1086 1088 1089
                                                                                  1090 1091 1093 1093 1095 1101 1101 1102 1105 1106
                                                                                  1108 1111* 1117 1120 1120 1128 1128 1132 1133*
                                                                                  1134 1149 1150 1157* 1158 1160 1161 1162 1166
                                                                                  1166* 1179 1180 1187* 1188 1193 1196 1198 1203
                                                                                  1208 1209 1213 1214 1215 1217 1218 1220 1221 1222
                                                                                  1238 1239 1598* 1599 1599 1600 1604* 1606 1608
                                                                                  1608 1609 1616 1616* 1618 1620 1755 1757 1758 1759
                                                                                  1762 1765 1767 2167* 2169 2171* 2172 2181* 2182*
                                                                                  2182 2182 2184
h                                      parameter       pointer                  dcl 2096 in procedure "make_create_entry" ref 2093
                                                                                  2104 2105 2105 2107 2110 2111 2112 2113 2114 2116
                                                                                  2117 2119 2120 2125
h                               004606 automatic       pointer                  dcl 10854 in procedure "initialize_common" set ref
                                                                                  10869* 10872 10875 10878 10879 10883 10892 10897
                                                                                  10897 10902
h_bound                   2     000117 automatic       fixed bin(18,0)          array level 3 in structure "descriptor" dcl 9912
                                                                                  in procedure "make_symbol_descriptor" set ref
                                                                                  9985* 10001* 10003* 10005*
h_bound                   2     004354 automatic       fixed bin(18,0)          array level 3 in structure "descriptor" dcl 10060
                                                                                  in procedure "make_entry_descriptor" set ref
                                                                                  10142* 10158* 10160* 10162*
half                                   based           structure                level 1 dcl 2598
half_array                1            based           fixed bin(17,0)          array level 2 packed packed unaligned dcl 2527 ref
                                                                                  2842 3125 3137 3143 3253
has_address               0(35)        based           bit(1)                   level 3 packed packed unaligned dcl 1-155 set ref
                                                                                  5601 7964* 8269*
has_array_size            0(24)        based           bit(1)                   level 2 packed packed unaligned dcl 1-383 set ref
                                                                                  2231* 8313 8317*
has_dim_sizes             0(25)        based           bit(1)                   level 2 packed packed unaligned dcl 1-383 set ref
                                                                                  2256 2266*
has_virtual_origin        0(23)        based           bit(1)                   level 2 packed packed unaligned dcl 1-383 set ref
                                                                                  2244* 8338* 8401* 8408 8412*
hash_chain                3(18)        based           fixed bin(18,0)          level 2 in structure "symbol" packed packed unsigned
                                                                                  unaligned dcl 1-844 in procedure
                                                                                  "ext_code_generator" set ref 981* 1249* 1265*
                                                                                  1768* 3841 3841 3843 3844 3985* 8297 9157 9216
                                                                                  9256 9256 9936 9936 10043* 10083 10085 10176*
hash_chain                3(18)        based           fixed bin(18,0)          level 2 in structure "node" packed packed unsigned
                                                                                  unaligned dcl 1-63 in procedure
                                                                                  "ext_code_generator" set ref 9-69 9-78*
hash_index                      000105 automatic       fixed bin(17,0)          dcl 9-24 set ref 9-57* 9-61 9-76 9-76
hash_table                             based           fixed bin(35,0)          array dcl 9-25 set ref 9-61 9-76 9-76*
hash_table_size                 056072 constant        fixed bin(17,0)          initial dcl 9-26 ref 9-57
hast                                   based           structure                level 1 unaligned dcl 2527
have_vsum                       003605 automatic       bit(1)                   dcl 7759 set ref 7766* 7780 7787 7790* 7797 7814
                                                                                  7817* 7829 7832* 7837 7841* 7847 7873 7923 7948*
                                                                                  7952 8053* 8079* 8193 8196* 8213 8249 8748 8750*
hbound                                                 builtin function         dcl 9-27 in procedure "create_constant" ref 9-43
hbound                                                 builtin function         dcl 569 in procedure "code_generator" ref 630 2993
                                                                                  2993 3899 4376 4378 6982 7128 7196 7202 7245 7393
                                                                                  9839 10819 10909
hdr                                    parameter       fixed bin(18,0)          dcl 10298 in procedure "list_initialize" ref 10295
                                                                                  10308
hdr                             000126 automatic       fixed bin(18,0)          dcl 940 in procedure "assign_storage" set ref 1015*
                                                                                  1016 1017 1060* 1065 1067 1068 1074* 1083* 1084
                                                                                  1085 1134* 1140 1142 1143 1149* 1155* 1156 1157
                                                                                  1170 1172 1173 1179* 1185* 1186 1187 1233 1235
                                                                                  1236 1238* 1597* 1597* 1598* 1603* 1603* 1604*
                                                                                  2166* 2166* 2167*
hdr                             004441 automatic       fixed bin(18,0)          dcl 10274 in procedure "initialize" set ref 10279*
                                                                                  10279* 10280*
hdr                             004413 automatic       fixed bin(18,0)          dcl 10193 in procedure "initialize_static" set ref
                                                                                  10206* 10206* 10207* 10214* 10214* 10215* 10225*
                                                                                  10225* 10226*
hdr                             000110 automatic       pointer                  dcl 1837 in procedure "create_storage_entry" set ref
                                                                                  1858* 1858* 1859* 1861 1865 1870 1872 1873 1879
                                                                                  1881 1886 1891 1891 1898* 1898* 1899 1903 1905
                                                                                  1906 1913 1936 1937 1938 1939 1940 1992* 1992*
                                                                                  1993 1994 1994 1995 1995* 1997 2003* 2003 2003*
                                                                                  2004* 2028 2073* 2074 2075 2086* 2087 2088 2088
                                                                                  2089 2090
head_address                           based           fixed bin(35,0)          dcl 10702 set ref 10781*
header                          001516 automatic       structure                level 2 in structure "arg_list" dcl 2602
                                                                                  in procedure "interpreter" set ref 3937*
header                                 based           structure                level 1 dcl 1-436 in procedure "ext_code_generator"
header                    6            based           bit(1)                   level 2 in structure "entry" packed packed unaligned
                                                                                  dcl 1846 in procedure "create_storage_entry" set
                                                                                  ref 1898 1939* 1992 2090*
header_length                   000104 automatic       fixed bin(24,0)          dcl 1663 set ref 1682* 1684* 1686* 1688 1688 1694*
                                                                                  1696* 1698* 1700 1703 1705 1705 1708 1708 1711
header_node                            constant        fixed bin(4,0)           initial dcl 3-87 ref 1606 1675 1731 2169 10281
hfp                      12(04)        based           bit(1)                   level 3 in structure "subprogram" packed packed
                                                                                  unaligned dcl 1-753 in procedure
                                                                                  "ext_code_generator" ref 4295
hfp                     114(04)        based           bit(1)                   level 4 in structure "shared_globals" packed packed
                                                                                  unaligned dcl 53 in procedure "ext_code_generator"
                                                                                  ref 561
i                               004510 automatic       fixed bin(18,0)          dcl 10657 in procedure "gen_linkage" set ref 10661*
                                                                                  10662 10678 10678*
i                               000217 automatic       fixed bin(18,0)          dcl 2222 in procedure "get_array_size" set ref 2238*
                                                                                  2239 2240* 2251* 2258* 2259 2259 2259 2259 2262
                                                                                  2262 2262 2262 2264*
i                               000100 automatic       fixed bin(3,0)           dcl 6481 in procedure "base_man_load_arg_ptr" set
                                                                                  ref 6486* 6487 6487 6489 6491 6492* 6496* 6497*
                                                                                  6503 6505 6506 6507 6508 6510
i                               003204 automatic       fixed bin(3,0)           dcl 6356 in procedure "base_man_load_pr_value" set
                                                                                  ref 6362* 6366 6366 6366 6375* 6382 6386 6387 6388
                                                                                  6391
i                               000106 automatic       fixed bin(3,0)           dcl 5992 in procedure "base_man_load_any_pr" set ref
                                                                                  6002* 6003 6003 6005 6005 6005 6009 6010 6012*
                                                                                  6023* 6024* 6025 6038* 6039* 6049* 6051 6061*
                                                                                  6062* 6063 6073* 6074* 6081 6085 6088 6089 6090
                                                                                  6091 6093
i                               003231 automatic       fixed bin(3,0)           dcl 6775 in procedure "const_in_xr" set ref 6780*
                                                                                  6781 6781 6783 6783 6786*
i                               003344 automatic       fixed bin(18,0)          dcl 7018 in procedure "flush_addr" set ref 7025*
                                                                                  7025* 7026 7026 7026* 7029
i                                      parameter       fixed bin(3,0)           dcl 6191 in procedure "flush_base" ref 6186 6194
                                                                                  6196 6206
i                               000122 automatic       fixed bin(3,0)           dcl 6520 in procedure "base_man_load_desc_ptr" set
                                                                                  ref 6525* 6526 6526 6528 6530 6531* 6535* 6536*
                                                                                  6542 6544 6545 6546 6547 6549
i                               004572 automatic       fixed bin(18,0)          dcl 10805 in procedure "name_assign" set ref 10819*
                                                                                  10820*
i                               003107 automatic       fixed bin(18,0)          dcl 5439 in procedure "emit_eis" set ref 5447* 5448
                                                                                  5448 5449 5449 5450 5450 5451* 5483* 5487 5487
                                                                                  5489 5489 5494 5496 5496 5498 5500 5502 5502 5505
                                                                                  5509 5510 5514 5516 5516 5516* 5519 5519 5519 5519
                                                                                  5519 5523 5524*
i                               000104 automatic       fixed bin(17,0)          dcl 1787 in procedure "create_storage_entry" set ref
                                                                                  2002* 2005* 2005 2007 2017 2018 2024
i                               000121 automatic       fixed bin(18,0)          dcl 5753 in procedure "m_a_check_large_address" set
                                                                                  ref 5768* 5770 5770*
i                               000100 automatic       fixed bin(3,0)           dcl 5930 in procedure "get_free_reg" set ref 5940*
                                                                                  5942 5944 5944 5946 5948 5949*
i                               003445 automatic       fixed bin(18,0)          dcl 7366 in procedure "load" set ref 7396* 7396*
                                                                                  7397*
i                               004146 automatic       fixed bin(18,0)          dcl 9314 in procedure "set_itp_addr" set ref 9317*
                                                                                  9319 9323 9324 9325 9326 9331 9334
i                                      parameter       fixed bin(3,0)           dcl 6102 in procedure "base_man_load_VLA" ref 6097
                                                                                  6164 6166 6170 6172 6176
i                               000130 automatic       fixed bin(18,0)          dcl 940 in procedure "assign_storage" set ref 1032*
                                                                                  1040* 1065 1065 1067 1068 1110* 1119* 1126* 1140
                                                                                  1140 1142 1143 1193* 1195* 1196* 1196 1198* 1198
                                                                                  1203 1203 1203 1207 1208 1208 1209 1209 1209 1229*
                                                                                  1233 1233 1235 1236 1270* 1275* 1277* 1293* 1297*
                                                                                  1418* 1432* 1434* 1435* 1435 1437* 1437 1442 1443
                                                                                  1443 1464* 1468 1468 1470 1471
i                               003166 automatic       fixed bin(3,0)           dcl 6228 in procedure "base_man_load_pr" set ref
                                                                                  6238* 6266* 6279 6279 6283* 6285 6293 6338 6339
                                                                                  6340 6341 6342
i                               003300 automatic       fixed bin(3,0)           dcl 6919 in procedure "reset_regs" set ref 6921*
                                                                                  6923* 6929* 6931 6931 6931*
i                               004442 automatic       fixed bin(18,0)          dcl 10274 in procedure "initialize" set ref 10278*
                                                                                  10279*
i                               000104 automatic       fixed bin(18,0)          dcl 5658 in procedure "m_a_except_xreg" set ref
                                                                                  5673* 5681* 5695* 5697* 5702* 5705* 5707* 5714*
                                                                                  5716*
i                               004157 automatic       fixed bin(18,0)          dcl 9358 in procedure "check_arg_list" set ref 9369*
                                                                                  9370 9371* 9391* 9392 9393 9397 9398 9401 9402*
                                                                                  9420* 9421 9430 9430 9440 9442 9446 9449* 9461
i                               003674 automatic       fixed bin(3,0)           dcl 8567 in procedure "compute_dimension_size" set
                                                                                  ref 8569* 8575 8577 8579 8580 8587 8589 8600 8601
                                                                                  8608 8609 8611 8612 8616 8620 8621 8623 8623 8624
                                                                                  8625 8628 8632 8633 8635 8636 8638 8640
i                               003120 automatic       fixed bin(17,0)          dcl 5542 in procedure "get_eis_length" set ref 5545*
                                                                                  5547 5552 5553 5556 5558 5559 5563 5563 5567 5567
                                                                                  5567 5572
i                               000277 automatic       fixed bin(18,0)          dcl 470 in procedure "code_generator" set ref 630*
                                                                                  631 632* 650* 654 655 656 657* 657 11024* 11025
                                                                                  11026*
i                               003243 automatic       fixed bin(3,0)           dcl 6804 in procedure "xr_man_add_const" set ref
                                                                                  6808* 6812
i                               003266 automatic       fixed bin(18,0)          dcl 6879 in procedure "free_regs" set ref 6883* 6884
                                                                                  6886 6887 6887* 6892* 6893 6895 6896 6896* 6903*
                                                                                  6904 6904 6907 6910
i                               004207 automatic       fixed bin(17,0)          dcl 9474 in procedure "find_arg_desc" set ref 9498*
                                                                                  9499 9501* 9520
i                               000103 automatic       fixed bin(3,0)           dcl 6656 in procedure "xr_man_load_any_xr" set ref
                                                                                  6663* 6664 6664 6667 6668* 6675* 6677* 6681 6691
                                                                                  6694 6695 6697 6700
i                               000101 automatic       fixed bin(3,0)           dcl 6404 in procedure "base_man_load_large_base" set
                                                                                  ref 6416* 6417 6417 6419 6419 6421 6422* 6427*
                                                                                  6429* 6434 6435 6437 6438 6439 6440 6442
i                               000100 automatic       fixed bin(18,0)          dcl 7511 in procedure "reset" set ref 7516* 7516*
                                                                                  7517*
i                               000142 automatic       fixed bin(18,0)          dcl 2097 in procedure "make_create_entry" set ref
                                                                                  2136* 2137
i                               004326 automatic       fixed bin(17,0)          dcl 9819 in procedure "start_subprogram" set ref
                                                                                  9839* 9840 9842 9846 9847*
i                               002604 automatic       fixed bin(18,0)          dcl 4458 in procedure "get_operand" set ref 4468*
                                                                                  4470
i                               004344 automatic       fixed bin(18,0)          dcl 10057 in procedure "make_entry_descriptor" set
                                                                                  ref 10134* 10136 10139 10141 10141 10142 10142
                                                                                  10143 10153 10153 10153 10155 10158 10158 10158
                                                                                  10160 10160 10162*
i                               003154 automatic       fixed bin(3,0)           dcl 5886 in procedure "make_both_addressable" set
                                                                                  ref 5889* 5891 5896 5896*
i                               003312 automatic       fixed bin(18,0)          dcl 6949 in procedure "flush_ref" set ref 6958*
                                                                                  6958* 6959 6960*
i                               000164 automatic       fixed bin(18,0)          dcl 2154 in procedure "relocate" set ref 2163* 2164
                                                                                  2164 2166 2186* 2205
i                               003526 automatic       fixed bin(18,0)          dcl 7627 in procedure "setup_message_structure" set
                                                                                  ref 7632* 7641 7642 7649 7650 7651*
i                                      parameter       fixed bin(18,0)          dcl 4372 in procedure "push" ref 4367 4382
i                               002667 automatic       fixed bin(18,0)          dcl 4662 in procedure "get_temp" set ref 4668* 4669
                                                                                  4673 4679* 4698
i                               003255 automatic       fixed bin(18,0)          dcl 6843 in procedure "reserve_regs" set ref 6849*
                                                                                  6850 6850 6853 6860*
i                               000106 automatic       fixed bin(18,0)          dcl 9909 in procedure "make_symbol_descriptor" set
                                                                                  ref 9977* 9979 9982 9984 9984 9985 9985 9986 9996
                                                                                  9996 9996 9998 10001 10001 10001 10003 10003
                                                                                  10005*
i                               004023 automatic       fixed bin(17,0)          dcl 8929 in procedure "start_cat" set ref 8933* 8934
                                                                                  8934 8935 8935 8935*
i                               003431 automatic       fixed bin(18,0)          dcl 7230 in procedure "use_eaq" set ref 7247* 7249
                                                                                  7266*
i                               000100 automatic       fixed bin(18,0)          dcl 6711 in procedure "flush_xr" set ref 6717* 6719
                                                                                  6726 6726
i                               003216 automatic       fixed bin(3,0)           dcl 6738 in procedure "xr_man_load_const" set ref
                                                                                  6749* 6751* 6755 6757 6758 6759 6761
i                               000111 automatic       fixed bin(18,0)          dcl 7319 in procedure "save_logical_temps" set ref
                                                                                  7323* 7323* 7325 7325* 7331* 7332 7346*
i                               000126 automatic       fixed bin(3,0)           dcl 6565 in procedure "base_man_store_temp" set ref
                                                                                  6588* 6589 6589 6591 6591 6591* 6611* 6614 6616*
                                                                                  6623* 6625 6628*
i                               003407 automatic       fixed bin(18,0)          dcl 7186 in procedure "also_in_reg" set ref 7202*
                                                                                  7204 7208*
i                               003600 automatic       fixed bin(18,0)          dcl 7758 in procedure "finish_subscript" set ref
                                                                                  7771* 7777 7779 7780 7797 7806 7814 7818* 8373*
                                                                                  8387 8387 8389 8390 8394 8394 8399 8460 8463 8472
                                                                                  8472 8479 8479 8481 8481 8490* 8498 8506 8506 8508
                                                                                  8514 8514 8514 8516 8527* 8542* 8544* 8546* 8546*
                                                                                  8547 8549 8551*
i                               003706 automatic       fixed bin(18,0)          dcl 8654 in procedure "finalize_vsum" set ref 8680*
                                                                                  8681 8681 8684* 8686* 8690* 8697* 8699
i                               000103 automatic       fixed bin(18,0)          dcl 1661 in procedure "alloc_external" set ref 1667*
                                                                                  1669 1669 1669* 1674* 1675 1675 1678 1682 1684
                                                                                  1688 1688 1694 1696 1700 1703 1705 1711 1715 1718*
i                               003330 automatic       fixed bin(18,0)          dcl 6974 in procedure "flush_simple_ref" set ref
                                                                                  6983* 6983* 6984 6986* 6986 6986* 6987 6987* 6999*
                                                                                  6999* 7001 7001 7001* 7004
i                               000602 automatic       fixed bin(18,0)          dcl 2348 in procedure "interpreter" set ref 2837*
                                                                                  2839 2839 2842 2882* 2883 2905 2909* 2952* 2952
                                                                                  2952* 2953 2955 2962* 2963 2966* 2967 3016* 3019
                                                                                  3019 3021 3035* 3038 3038 3045* 3047 3111* 3114*
                                                                                  3117* 3120* 3123* 3125 3249* 3251 3251 3253 3314*
                                                                                  3315 3315 3490* 3492* 3493* 3548* 3549* 3593*
                                                                                  3735* 3736 3736 3738 3739* 3747* 3748 3750 3760
                                                                                  3788 3789* 3798* 3799 3803 3805* 3811* 3812 3818*
                                                                                  3884* 3885 3887 3887 3890* 3913* 3914 3916* 3943*
                                                                                  3944 3945* 3962* 3963 3965 3965 3969*
identifier                1            based           char(8)                  level 2 dcl 13-10 set ref 716*
if_test                   0(27)        based           bit(1)                   array level 2 packed packed unaligned dcl 2573 ref
                                                                                  3051 3059 3163 3169 3175 3181 3186 3192 3698 3895
                                                                                  4107 4116 4122 4127 4132 4139 4150 4293
ii                              004210 automatic       fixed bin(17,0)          dcl 9474 set ref 9497* 9501 9502 9504 9505 9509 9510
                                                                                  9513 9514 9517* 9517 9520 9525 9526 9527
imac                            000572 automatic       fixed bin(18,0)          dcl 2336 set ref 2708* 2726* 2726 2730 2742 2743
                                                                                  2744 2767 2790 2802 2807 2807 2808* 2808 2825 2842
                                                                                  2844* 2844 2851* 2856* 2856 2857* 2857 2860* 2882
                                                                                  2919* 2929* 2966 2967* 2971 2972* 2986* 2995 2996*
                                                                                  3003* 3019 3021 3038 3047 3051 3059 3094 3096
                                                                                  3125* 3125 3137* 3137 3143* 3143 3158 3163 3169
                                                                                  3175 3181 3186 3192 3208 3212 3241* 3253* 3253
                                                                                  3257* 3257 3257* 3259* 3326 3377 3393 3400 3439*
                                                                                  3449 3466 3471 3479 3516 3597* 3655* 3661* 3693
                                                                                  3698 3895 4000 4071* 4107 4116 4122 4127 4132 4139
                                                                                  4150 4293 4504* 4504* 4509* 5034 5034 5041 5042
                                                                                  5044 5443* 5443 5448 5450 5462 5479 5484* 5484
                                                                                  5516 5516 5547 5563 7630 7633* 7633 7635 7642 7650
                                                                                  7651 8276* 8808*
image                                  based           fixed bin(18,0)          array dcl 465 set ref 776* 776
in_a                                   constant        fixed bin(18,0)          initial dcl 2412 ref 3406 7305 7412 7421 8579 8580
                                                                                  8600 8601 8620 8621 8632 8633
in_common                 0(35)        based           bit(1)                   level 4 in structure "header" packed packed
                                                                                  unaligned dcl 1-436 in procedure
                                                                                  "ext_code_generator" ref 1108 2105 2112
in_common                11(02)        based           bit(1)                   level 4 in structure "symbol" packed packed
                                                                                  unaligned dcl 1-844 in procedure
                                                                                  "ext_code_generator" set ref 5700 6151
in_deaq                                constant        fixed bin(18,0)          initial dcl 2412 ref 3485 3485
in_eaq                                 constant        fixed bin(18,0)          initial dcl 2412 ref 3485
in_equiv_stmnt           11(08)        based           bit(1)                   level 3 packed packed unaligned dcl 1-844 set ref
                                                                                  6954
in_ia                                  constant        fixed bin(18,0)          initial dcl 2412 set ref 7080 7092 7094 8681 8686
                                                                                  9660* 9665* 9771 9787 9802
in_ind                                 constant        fixed bin(18,0)          initial dcl 2412 ref 3094 3094 3154 7167 7298 7370
                                                                                  7384 7407 7441
in_iq                                  constant        fixed bin(18,0)          initial dcl 2412 ref 9774 9790 9806
in_q                                   constant        fixed bin(18,0)          initial dcl 2412 set ref 3832 3843 3844 5006* 6161
                                                                                  7078 7090 7096 7109 7400 7400 7547 8148* 8160*
                                                                                  8169* 8179* 8346* 8348* 8424* 8427* 8428* 8436*
                                                                                  8439* 8443* 8460 8463 8472* 8500 8505* 8514* 8516*
                                                                                  8522* 8534* 8547 8549 8551 8608* 8609 8612* 8623*
                                                                                  8625* 8635* 8636 8640* 8660* 8681 8684 8705 8755*
                                                                                  9125* 9130* 9175 9177 9196 9289* 9292
in_tq                                  constant        fixed bin(18,0)          initial dcl 2412 set ref 7400 7400 9610* 9628* 9648*
                                                                                  9742* 9743* 9751* 9754*
inc                                    parameter       fixed bin(18,0)          dcl 5217 in procedure "put_word" ref 5211 5238 5246
                                                                                  5246 5260 5262 5262 5266 5267
inc                                    parameter       fixed bin(18,0)          dcl 5277 in procedure "text_ref" ref 5271 5308 5377
                                                                                  5393 5393
inc                             003102 automatic       fixed bin(18,0)          array dcl 5427 in procedure "emit_eis" set ref 5450*
                                                                                  5456* 5509 5519 5519 5523 5524
inc                                    parameter       fixed bin(18,0)          array dcl 5885 in procedure "make_both_addressable"
                                                                                  set ref 5878 5896 5896*
inc                             003020 automatic       fixed bin(18,0)          dcl 5032 in procedure "emit_inst" set ref 5041*
                                                                                  5044*
inc                                    parameter       fixed bin(18,0)          dcl 5783 in procedure "increment_address" ref 5778
                                                                                  5788 5792
inc                                    parameter       fixed bin(18,0)          dcl 844 in procedure "assign_address_offset" ref 837
                                                                                  848
inc                             003030 automatic       fixed bin(18,0)          dcl 5058 in procedure "emit_single" set ref 5060*
                                                                                  5062* 5075* 5078*
incr                                   parameter       fixed bin(18,0)          dcl 5073 ref 5068 5075
increment                 0(04) 000026 external static fixed bin(13,0)          array level 2 in structure
                                                                                  "fort_cg_macros_$single_inst" packed packed
                                                                                  unaligned dcl 2395 in procedure "interpreter" ref
                                                                                  5060 5124 5124 5128 5166
increment                 0(04)        based           fixed bin(13,0)          array level 2 in structure "machine_instruction"
                                                                                  packed packed unaligned dcl 2538 in procedure
                                                                                  "interpreter" set ref 5041 5450
ind_to_a                        000524 constant        fixed bin(18,0)          initial array dcl 22-16 ref 7298
ind_word                               based           bit(36)                  dcl 2477 set ref 9334*
index                           000122 automatic       fixed bin(18,0)          dcl 10457 in procedure "list_initialize_symbol" set
                                                                                  ref 10480* 10526* 10526 10543 10548 10553 10558
index                                  parameter       fixed bin(18,0)          dcl 6949 in procedure "flush_ref" set ref 6942 6952*
                                                                                  6953
index                                                  builtin function         dcl 569 in procedure "code_generator" ref 10678
                                                                                  10728
index                           004456 automatic       fixed bin(18,0)          dcl 10335 in procedure "initialize_symbol" set ref
                                                                                  10359* 10407 10410* 10410 10420 10424 10428 10432
index_regs               37     001334 automatic       structure                array level 2 dcl 2479 set ref 6675* 6749* 6815*
indicators_valid         35     001334 automatic       fixed bin(18,0)          level 2 dcl 2479 set ref 3160 3456 3459* 3482 3499*
                                                                                  3501* 3518* 4003* 7105* 7175* 7177* 7310* 7412
                                                                                  7425*
indx1_constant                  003621 automatic       bit(1)                   dcl 8024 set ref 8037* 8040* 8089 8101 8117 8190
                                                                                  8213
indx1_value                     003626 automatic       fixed bin(35,0)          dcl 8027 set ref 8038* 8101 8101 8124 8137 8149 8149
                                                                                  8190
indx2_constant                  003622 automatic       bit(1)                   dcl 8024 set ref 8044* 8047* 8089 8108 8117 8154
indx2_value                     003627 automatic       fixed bin(35,0)          dcl 8027 set ref 8045* 8108 8108 8124 8160
inhibit                   0(28)        based           bit(1)                   array level 2 packed packed unaligned dcl 2531 set
                                                                                  ref 2730
init                      0(24)        based           bit(1)                   level 3 packed packed unaligned dcl 18-23 set ref
                                                                                  2116*
init_auto_to_zero               000231 automatic       bit(1)                   dcl 441 set ref 752* 2677
init_info                              based           structure                level 1 dcl 25-30
init_pt                         004614 automatic       pointer                  dcl 10854 in procedure "initialize_common" set ref
                                                                                  10888* 10897 10897 10904*
init_pt                                parameter       pointer                  dcl 10332 in procedure "initialize_symbol" ref 10329
                                                                                  10358
init_pt                                parameter       pointer                  dcl 10443 in procedure "list_initialize_symbol" set
                                                                                  ref 10440 10567 10568 10569* 10569 10571 10572
                                                                                  10575 10579 10583 10588 10593* 10593 10593
init_val                        004616 automatic       fixed bin(18,0)          dcl 10855 set ref 10890* 10896* 10901* 10909 10915
                                                                                  10921 10923
initial                  13(07)        based           fixed bin(18,0)          level 2 in structure "symbol" packed packed unsigned
                                                                                  unaligned dcl 1-844 in procedure
                                                                                  "ext_code_generator" set ref 987* 1258 1285 1414*
                                                                                  1616 3178 3582* 3587 3932 3934 5384 5721 5727
                                                                                  10389 10395 10511 10516 10663 10904 11051
initial                         004463 automatic       structure                level 1 dcl 10337 in procedure "initialize_symbol"
initial                         000127 automatic       structure                level 1 dcl 10460 in procedure
                                                                                  "list_initialize_symbol"
initial_in_polish                      based           structure                level 1 dcl 10342 in procedure "initialize_symbol"
initial_in_polish                      based           structure                level 1 dcl 10465 in procedure
                                                                                  "list_initialize_symbol"
initialed                 0(29)        based           bit(1)                   level 4 in structure "header" packed packed
                                                                                  unaligned dcl 1-436 in procedure
                                                                                  "ext_code_generator" set ref 1060 1134 1196 1715
                                                                                  1715 2116 10309 10681 10875 10879* 10883 10892
initialed                 0(29)        based           bit(1)                   level 4 in structure "symbol" packed packed
                                                                                  unaligned dcl 1-844 in procedure
                                                                                  "ext_code_generator" set ref 1435 10284 10317
inst                            003046 automatic       structure                level 1 dcl 5200 in procedure "emit_operator_call"
                                                                                  set ref 5202* 5206
inst                                   parameter       structure                level 1 dcl 5217 in procedure "put_word" ref 5211
                                                                                  5230 5251
inst_address                    000123 automatic       structure                level 1 packed packed unaligned dcl 6564
                                                                                  in procedure "base_man_store_temp" set ref 6571*
                                                                                  6580 6580 6601 6601 6617 6617 6629 6629
inst_address                    000100 automatic       structure                level 1 dcl 5860 in procedure "c_a_18" set ref 5867*
                                                                                  5874
inst_address                    000104 automatic       structure                level 1 dcl 6406 in procedure
                                                                                  "base_man_load_large_base" set ref 6431* 6434 6434
inst_address                    003172 automatic       structure                level 1 dcl 6231 in procedure "base_man_load_pr" set
                                                                                  ref 6292* 6302 6302 6311 6311 6313 6313 6321 6321
                                                                                  6330 6330
inst_address                    001330 automatic       structure                level 1 dcl 2465 in procedure "interpreter" set ref
                                                                                  3768* 3771 3771 3777 3777 7939* 7942 7942
inst_address                    000101 automatic       structure                level 1 dcl 5807 in procedure "c_a" set ref 5810*
                                                                                  5847
inst_address                    000110 automatic       structure                level 1 packed packed unaligned dcl 6457
                                                                                  in procedure "base_man_load_large_base_no_flush"
                                                                                  set ref 6459* 6462 6462
inst_address                           based           structure                level 1 packed packed unaligned dcl 6104
                                                                                  in procedure "base_man_load_VLA"
inst_number                     003470 automatic       fixed bin(18,0)          dcl 7534 set ref 7541* 7543* 7545*
inst_pos                        003110 automatic       fixed bin(18,0)          dcl 5439 set ref 5478* 5487 5489
instruction                            based           fixed bin(17,0)          array level 2 in structure "forward_refs" packed
                                                                                  packed unaligned dcl 497 in procedure
                                                                                  "code_generator" set ref 631 5390*
instruction                            based           structure                array level 1 dcl 2581 in procedure "interpreter"
int_image                              based           fixed bin(35,0)          dcl 2471 ref 4049 5336 5341 8038 8045
int_mode                        000737 constant        fixed bin(4,0)           initial dcl 3-106 set ref 2288 2692 3695* 4047 7664*
                                                                                  8178* 8316 8411 8658* 8687* 8698* 9129* 9183*
                                                                                  9281* 9288* 9544 9582 9588 9692 9698 10013* 10170*
integer                  10(20)        based           bit(1)                   level 5 packed packed unaligned dcl 1-844 set ref
                                                                                  2289*
interpreter_called        0(06)        based           bit(1)                   level 4 packed packed unaligned dcl 2510 set ref
                                                                                  2921 3653 4506*
interpreter_return        6            based           label variable           local level 2 dcl 2510 set ref 2924 3662 4507*
ipol                            000573 automatic       fixed bin(18,0)          dcl 2337 set ref 2933 2933 2939 2939 2940* 2940 2945
                                                                                  2946* 2946 3541* 3541 3541 3703 3706* 3706 3708
                                                                                  9837*
is_addressable            0(14)        based           bit(1)                   level 3 in structure "header" packed packed
                                                                                  unaligned dcl 1-436 in procedure
                                                                                  "ext_code_generator" set ref 1221*
is_addressable            0(14)        based           bit(1)                   level 3 in structure "symbol" packed packed
                                                                                  unaligned dcl 1-844 in procedure
                                                                                  "ext_code_generator" set ref 982* 1103* 1282*
                                                                                  1308* 1378* 1408* 1412* 1456* 1491* 1510* 1541*
                                                                                  2686* 5732*
is_addressable            0(14)        based           bit(1)                   level 3 in structure "char_constant" packed packed
                                                                                  unaligned dcl 1-316 in procedure
                                                                                  "ext_code_generator" set ref 2663*
is_addressable            0(14)        based           bit(1)                   level 3 in structure "label" packed packed unaligned
                                                                                  dcl 1-530 in procedure "ext_code_generator" set
                                                                                  ref 1005* 2317*
is_addressable            0(14)        based           bit(1)                   level 3 in structure "array_ref" packed packed
                                                                                  unaligned dcl 1-155 in procedure
                                                                                  "ext_code_generator" set ref 2674* 7954* 8251*
is_addressable            0(14)        based           bit(1)                   level 3 in structure "constant" packed packed
                                                                                  unaligned dcl 1-256 in procedure
                                                                                  "ext_code_generator" set ref 9-83*
is_addressable            0(14)        based           bit(1)                   level 3 in structure "temporary" packed packed
                                                                                  unaligned dcl 1-1005 in procedure
                                                                                  "ext_code_generator" set ref 4781* 4873* 4980*
                                                                                  5185
is_addressable            0(14)        based           bit(1)                   level 3 in structure "node" packed packed unaligned
                                                                                  dcl 1-63 in procedure "ext_code_generator" set ref
                                                                                  869* 3922 5244 5262 5519 5589 5893 6250 6372 6688
                                                                                  7100
is_string                 6            based           bit(1)                   array level 4 dcl 58 set ref 7641* 7649*
isub                            003554 automatic       fixed bin(18,0)          dcl 7688 set ref 7693* 7701 7701 7706 7706 7728 7728
                                                                                  7733 7733 7735 7738 7738 7740
itp                                    based           structure                level 1 dcl 16-18
itp_list                  2     001516 automatic       structure                array level 2 dcl 2602 set ref 3899 9319* 9334
itp_mod                   2(30) 001516 automatic       bit(6)                   array level 3 in structure "arg_list" packed packed
                                                                                  unaligned dcl 2602 in procedure "interpreter" set
                                                                                  ref 9324*
itp_mod                   0(30)        based           bit(6)                   level 2 in structure "itp" packed packed unaligned
                                                                                  dcl 16-18 in procedure "code_generator" ref 827
                                                                                  831
j                               000101 automatic       fixed bin(3,0)           dcl 5930 in procedure "get_free_reg" set ref 5937*
                                                                                  5949* 5955 5957
j                               000300 automatic       fixed bin(18,0)          dcl 470 in procedure "code_generator" set ref 631*
                                                                                  632 632
j                               003256 automatic       fixed bin(3,0)           dcl 6844 in procedure "reserve_regs" set ref 6853*
                                                                                  6854* 6855 6856 6860* 6861* 6862 6863 6865 6867
j                               000107 automatic       fixed bin(3,0)           dcl 5992 in procedure "base_man_load_any_pr" set ref
                                                                                  6000* 6012* 6015 6020 6022
j                               003244 automatic       fixed bin(3,0)           dcl 6804 in procedure "xr_man_add_const" set ref
                                                                                  6815* 6817* 6819 6827 6828 6829 6831
k                                      parameter       fixed bin(3,0)           dcl 5926 in procedure "get_free_reg" ref 5921 5933
                                                                                  5933 5933
k                               000102 automatic       fixed bin(3,0)           dcl 6404 in procedure "base_man_load_large_base" set
                                                                                  ref 6414* 6417* 6427*
k                               000110 automatic       fixed bin(3,0)           dcl 5992 in procedure "base_man_load_any_pr" set ref
                                                                                  6000* 6003* 6023* 6038* 6070* 6073*
k                               004540 automatic       fixed bin(18,0)          dcl 10704 in procedure "compile_link" set ref 10728*
                                                                                  10730 10733 10739 10745
k                               003217 automatic       fixed bin(3,0)           dcl 6738 in procedure "xr_man_load_const" set ref
                                                                                  6743* 6745 6746 6749*
k                               000101 automatic       fixed bin(3,0)           dcl 6481 in procedure "base_man_load_arg_ptr" set
                                                                                  ref 6484* 6487* 6496*
k                               000603 automatic       fixed bin(18,0)          dcl 2348 in procedure "interpreter" set ref 2756*
                                                                                  2758 2890* 2892 2892 2894 3433* 3435 3534* 3535
                                                                                  3538 3738* 3739 3741 3931* 3932 3932* 3932 3934
                                                                                  4280* 4285
k                               000123 automatic       fixed bin(3,0)           dcl 6520 in procedure "base_man_load_desc_ptr" set
                                                                                  ref 6523* 6526* 6535*
l_bound                   1     004354 automatic       fixed bin(18,0)          array level 3 in structure "descriptor" dcl 10060
                                                                                  in procedure "make_entry_descriptor" set ref
                                                                                  10141* 10153* 10155*
l_bound                   1     000117 automatic       fixed bin(18,0)          array level 3 in structure "descriptor" dcl 9912
                                                                                  in procedure "make_symbol_descriptor" set ref
                                                                                  9984* 9996* 9998*
label                                  based           structure                level 1 dcl 1-530 set ref 2312 2312
label_node                      000725 constant        fixed bin(4,0)           initial dcl 3-87 set ref 2312* 11045
label_op                               constant        fixed bin(18,0)          initial dcl 3-197 ref 3708
large_address             0(20)        based           bit(1)                   level 3 in structure "array_ref" packed packed
                                                                                  unaligned dcl 1-155 in procedure
                                                                                  "ext_code_generator" set ref 7962* 7962 8261* 8261
large_address             0(20)        based           bit(1)                   level 3 in structure "temporary" packed packed
                                                                                  unaligned dcl 1-1005 in procedure
                                                                                  "ext_code_generator" set ref 4873 5679 6578
large_address             0(20)        based           bit(1)                   level 3 in structure "symbol" packed packed
                                                                                  unaligned dcl 1-844 in procedure
                                                                                  "ext_code_generator" set ref 5714 6145 7881 7962
                                                                                  8223 8261 10217 10228 10364 10488 10668
large_address             0(20)        based           bit(1)                   level 3 in structure "node" packed packed unaligned
                                                                                  dcl 1-63 in procedure "ext_code_generator" set ref
                                                                                  868* 5758 5788 8204
large_base_reg                  000125 automatic       fixed bin(3,0)           dcl 6565 set ref 6587* 6588 6591* 6597 6599 6600
large_offset              0(34)        based           bit(1)                   level 3 packed packed unaligned dcl 1-155 set ref
                                                                                  5610 7890* 7909* 8055 8240*
last                                   parameter       fixed bin(18,0)          dcl 5926 in procedure "get_free_reg" ref 5921 5940
last                     13(18)        based           fixed bin(18,0)          array level 3 in structure "subprogram" packed
                                                                                  packed unsigned unaligned dcl 1-753 in procedure
                                                                                  "ext_code_generator" set ref 1065 1067 1068* 1140
                                                                                  1142 1143* 1170 1172 1173* 1233 1235 1236* 1468
                                                                                  1470 1471*
last                            004327 automatic       fixed bin(18,0)          dcl 9820 in procedure "start_subprogram" set ref
                                                                                  9843* 9845
last_assigned_mode                     constant        fixed bin(4,0)           initial dcl 3-106 ref 3131
last_assigned_op                       constant        fixed bin(18,0)          initial dcl 3-197 ref 2933
last_auto_loc                   000302 automatic       fixed bin(18,0)          dcl 481 set ref 956* 1041 1041* 1041 1045 1047* 1047
                                                                                  1128 1129* 1129 1312 1313* 1313 1317 1322 1323*
                                                                                  1323 1333 1333* 1333 1336 1337* 1337 1338 1514*
                                                                                  1514 1516* 1517* 1517 1518 1545* 1545 1547* 1548
                                                                                  1549* 1549 1550 1562 1566* 1807* 1807 2677 4698
                                                                                  4766 4770* 4943 9827* 9827 9827 9828 9829* 9830*
                                                                                  9830 9831 10997
last_base                       000725 constant        fixed bin(18,0)          initial dcl 2385 set ref 6002 6023* 6038* 6061*
                                                                                  6073* 6416 6427* 6486 6496* 6525 6535* 6588 6611*
                                                                                  6892 6921 7025
last_constant           101            based           fixed bin(18,0)          array level 3 dcl 53 set ref 9-91 9-93*
last_def                        000247 automatic       bit(18)                  dcl 467 set ref 10635* 10646 10955 10955 10959
                                                                                  10980* 11013 11014
last_dynamic_temp       161     001334 automatic       fixed bin(18,0)          level 2 dcl 2479 set ref 4100* 5016* 8952
last_entry_name          76            based           fixed bin(18,0)          level 2 dcl 53 ref 9479
last_header                     000202 automatic       pointer                  initial dcl 436 set ref 436* 1872 1873*
last_index                      000731 constant        fixed bin(18,0)          initial dcl 2385 set ref 6663 6675* 6749* 6780 6815*
                                                                                  6883 6929 6999 8071
last_listp                      000144 automatic       pointer                  dcl 2098 set ref 2134* 2135 2136
last_namelist                   000177 automatic       fixed bin(18,0)          dcl 435 set ref 588* 1288 1290 1291*
last_pos                        000170 automatic       fixed bin(18,0)          dcl 428 set ref 617* 701
last_subprogram          73            based           fixed bin(18,0)          level 2 dcl 53 ref 2666
last_symbol               3(18)        based           fixed bin(18,0)          level 2 packed packed unsigned unaligned dcl 1-753
                                                                                  set ref 2293 2294* 10036 10037*
lca                             000416 constant        fixed bin(18,0)          initial dcl 22-16 set ref 9654* 9667*
lcq                                    constant        bit(10)                  initial dcl 5286 ref 5348 5357
ldq                                    constant        bit(10)                  initial dcl 5286 ref 5348 5357
left                                   based           bit(18)                  array level 2 in structure "reloc_halfs" packed
                                                                                  packed unaligned dcl 491 in procedure
                                                                                  "code_generator" set ref 827* 831* 1988* 2105*
                                                                                  2107* 2137* 11011*
left                                   based           fixed bin(17,0)          level 2 in structure "half" packed packed unaligned
                                                                                  dcl 2598 in procedure "interpreter" ref 5316 5330
                                                                                  5344
left                                   based           fixed bin(17,0)          array level 2 in structure "text_halfs" packed
                                                                                  packed unaligned dcl 487 in procedure
                                                                                  "code_generator" set ref 632* 632 4155* 4166*
                                                                                  4170* 4219* 4237* 4285* 5097* 5128* 5128 5238*
                                                                                  5267* 5267 5318* 5330* 5364* 5377* 5393* 5393
                                                                                  5524* 5524 7602* 11005* 11013* 11023
left                            000574 automatic       fixed bin(18,0)          dcl 2339 in procedure "interpreter" set ref 2743*
                                                                                  2777 2782* 2785* 2785* 2794 2812 2814* 2831 2839
                                                                                  2844 2847 2851* 2857* 2860 2863 2929 2966* 2971*
                                                                                  2986 2996 3241 3251 3257 3300 3336* 3345* 3439
                                                                                  3439 3466* 3523 3528 3534 3535 3597 3632 3851
                                                                                  3857* 3861* 3861* 4071 4092 4301 5462 7629 7635*
                                                                                  7636
left                                   based           fixed bin(17,0)          array level 2 in structure "macro_instruction"
                                                                                  packed packed unaligned dcl 2531 in procedure
                                                                                  "interpreter" set ref 2743 2857 2962 7635 7651
left_rel                  0(12)        based           bit(6)                   array level 2 packed packed unaligned dcl 2592 set
                                                                                  ref 3739* 4167* 4171* 4220* 4238* 4288* 5146*
                                                                                  5253* 5321* 5332* 5366* 5500* 6076* 6078* 6126*
                                                                                  7603* 7615*
len                             003076 automatic       fixed bin(18,0)          array dcl 5425 in procedure "emit_eis" set ref 5468*
                                                                                  5468 5498 5553* 5559* 5563* 5567 5567*
len                                    parameter       fixed bin(18,0)          dcl 10855 in procedure "initialize_common" ref 10851
                                                                                  10870
len                             004271 automatic       fixed bin(18,0)          dcl 9578 in procedure "rhs_fld" set ref 9605* 9606
                                                                                  9606 9608 9625* 9625 9626 9632 9637* 9637* 9642
                                                                                  9662
len                                    parameter       fixed bin(18,0)          dcl 9560 in procedure "generate_mask" ref 9555 9565
len                             004313 automatic       fixed bin(18,0)          dcl 9687 in procedure "lhs_fld" set ref 9721* 9722
                                                                                  9722 9724 9738* 9738 9740 9749 9749 9755 9760*
                                                                                  9760* 9788* 9791
length                                                 builtin function         dcl 1790 in procedure "create_storage_entry" ref
                                                                                  1988 2105 2107 2137
length                   12            based           fixed bin(24,0)          level 2 in structure "temporary" dcl 1-1005
                                                                                  in procedure "ext_code_generator" set ref 4650*
                                                                                  4822 4828* 5006 9113* 9129* 9889 9891
length                    0(24)        based           bit(12)                  array level 2 in structure "descriptor" packed
                                                                                  packed unaligned dcl 5431 in procedure "emit_eis"
                                                                                  set ref 5462 5496* 5498* 5547 5563
length                                 based           fixed bin(35,0)          level 2 in structure "create_init_entry" dcl 18-61
                                                                                  in procedure "code_generator" set ref 10320*
                                                                                  10568* 10571* 10575 10579 10583 10588 10593
length                                                 builtin function         dcl 2615 in procedure "interpreter" ref 3019 3038
length                    4            based           fixed bin(18,0)          level 2 in structure "char_constant" packed packed
                                                                                  unsigned unaligned dcl 1-316 in procedure
                                                                                  "ext_code_generator" set ref 655 799 804 806 2666*
                                                                                  2679 4022 4025 4028 4035 4038 4041 4060 5304 9549
                                                                                  9870 10428 10432 10583 10588
length                                                 builtin function         dcl 6845 in procedure "reserve_regs" ref 6849
length                                                 builtin function         dcl 10811 in procedure "name_assign" ref 10815 10822
                                                                                  10832
length                    7            based           fixed bin(24,0)          level 2 in structure "array_ref" dcl 1-155
                                                                                  in procedure "ext_code_generator" set ref 2677*
                                                                                  2679* 8239* 8848* 8850* 8892 9882 9884
length                    6            based           fixed bin(24,0)          level 2 in structure "header" dcl 1-436 in procedure
                                                                                  "ext_code_generator" set ref 1208 1209 1682 1684
                                                                                  1686 1694 1696 1698 1733 1881 1881 1886 1886 1886
                                                                                  1886 1891 1891 1891* 1891 1967 1993* 2117
length                                 parameter       fixed bin(17,0)          dcl 10-12 in procedure "create_node" ref 10-10 10-20
                                                                                  10-23 10-24
length                    1            based           fixed bin(24,0)          level 2 in structure "create_entry" dcl 18-23
                                                                                  in procedure "code_generator" set ref 2117*
length                                                 builtin function         dcl 10708 in procedure "compile_link" ref 10710
                                                                                  10739
length                                                 builtin function         dcl 9927 in procedure "make_symbol_descriptor" ref
                                                                                  10029
lib                             000301 automatic       fixed bin(18,0)          dcl 470 set ref 651* 651* 652*
lib_list_ptr                    000210 automatic       pointer                  dcl 438 set ref 644* 647 648 654 655
lib_pos                         000167 automatic       fixed bin(18,0)          dcl 428 set ref 587* 643* 644 645 684 684 684
lib_pt                          000152 automatic       pointer                  dcl 426 set ref 652* 653 658
lib_reloc_ptr                   000222 automatic       pointer                  dcl 439 set ref 645* 656
library                                based           structure                level 1 dcl 1-605
limit                           004461 automatic       fixed bin(18,0)          dcl 10335 in procedure "initialize_symbol" set ref
                                                                                  10396* 10405* 10405 10407
limit                     1            based           fixed bin(17,0)          level 2 in structure "initial_in_polish" dcl 10342
                                                                                  in procedure "initialize_symbol" ref 10403
limit                     1     004463 automatic       fixed bin(18,0)          level 2 in structure "initial" dcl 10337
                                                                                  in procedure "initialize_symbol" set ref 10403*
                                                                                  10405
limit                     1     000127 automatic       fixed bin(35,0)          level 2 in structure "initial" dcl 10460
                                                                                  in procedure "list_initialize_symbol" set ref
                                                                                  10523* 10525* 10526
limit                                  parameter       fixed bin(18,0)          dcl 2149 in procedure "relocate" ref 2144 2207 2207
                                                                                  2207
limit                     1            based           fixed bin(35,0)          level 2 in structure "initial_in_polish" dcl 10465
                                                                                  in procedure "list_initialize_symbol" ref 10523
link                                   based           structure                level 1 dcl 12-11
link_base                       000204 automatic       pointer                  dcl 438 set ref 664* 695 10208 10217 10219 10228
                                                                                  10230 10240* 10247 10621 10622 10623 10624 10763
link_base_ptr                   000122 automatic       pointer                  level 2 dcl 61 set ref 695*
link_begin                6            based           bit(18)                  level 2 packed packed unaligned dcl 12-52 set ref
                                                                                  10622*
link_pos                        000160 automatic       fixed bin(18,0)          dcl 428 in procedure "code_generator" set ref 587*
                                                                                  671 700 721 1561* 1567* 1573 1577* 1577 1579* 1579
                                                                                  1581* 1581 1581 1582 1589 1599 1608 1616* 1631*
                                                                                  1634* 1634 1636 1738 1739* 1739 1740 2051 10623
link_pos                               parameter       fixed bin(15,0)          dcl 10694 in procedure "compile_link" ref 10691
                                                                                  10763 10764 10781
link_ptr                        004532 automatic       pointer                  dcl 10701 set ref 10763* 10781 10782 10785
link_reloc_base                 000216 automatic       pointer                  dcl 439 set ref 665* 696 10627 10764
link_reloc_base_ptr       2     000122 automatic       pointer                  level 2 dcl 61 set ref 696*
link_reloc_ptr                  004536 automatic       pointer                  dcl 10701 set ref 10764* 10783 10786
linkage_length            5(18)        based           bit(18)                  level 2 packed packed unaligned dcl 13-10 set ref
                                                                                  721*
linkage_offset            5            based           bit(18)                  level 2 packed packed unaligned dcl 13-10 set ref
                                                                                  720*
linkage_pad                     000303 automatic       fixed bin(18,0)          dcl 482 set ref 965* 1033 1033* 1033 1035 1037* 1037
                                                                                  1120 1122* 1122 1561 1805* 1805 1983 1984* 1984
                                                                                  2019* 2019
linkage_section_lng       6(18)        based           bit(18)                  level 2 packed packed unaligned dcl 12-52 set ref
                                                                                  10623*
linkrel                         000164 automatic       fixed bin(18,0)          dcl 428 set ref 663* 664 665 671 720 722
list                    113(10)        based           bit(1)                   level 5 packed packed unaligned dcl 53 ref 592
list_init_info                         based           structure                level 1 dcl 25-41
list_size                 2(18)        based           fixed bin(18,0)          level 2 packed packed unsigned unaligned dcl 25-41
                                                                                  set ref 10898*
listing                 113(07)        based           structure                level 4 packed packed unaligned dcl 53
listp                           000102 automatic       pointer                  dcl 1786 set ref 1800 1800 1801 1803 1803 1812 1812
                                                                                  1823 1986 2017 2018 2024 2030 2050* 2051 2051 2051
                                                                                  2053 2100* 2104 2110 2111 2112 2113 2114 2115 2116
                                                                                  2117 2118 2119 2120 2120 2123
llr                             000426 constant        fixed bin(18,0)          initial dcl 22-16 set ref 7945*
lng                       1(18)        based           fixed bin(17,0)          array level 3 packed packed unaligned dcl 503 set
                                                                                  ref 655*
load_base                       000563 constant        fixed bin(18,0)          initial array dcl 22-16 ref 6025 6051 6063 6081 6164
                                                                                  6170 6279 6285 6382 6434 6462 6503 6542
load_inst                       000551 constant        fixed bin(18,0)          initial array dcl 22-16 set ref 3832 3843 7103* 7439
                                                                                  8547* 8549* 8579* 8600* 8620* 8632* 9175 9771*
                                                                                  9774* 9787* 9790* 9802* 9806*
load_packed_base                000435 constant        fixed bin(18,0)          initial array dcl 22-16 ref 6176
load_segment_num                000427 constant        fixed bin(18,0)          initial array dcl 22-16 ref 6166 6172
loc                             000102 automatic       fixed bin(18,0)          dcl 1660 in procedure "alloc_external" set ref 1678*
                                                                                  1721 1738* 1743
loc                             000133 automatic       fixed bin(18,0)          dcl 941 in procedure "assign_storage" set ref 1207*
                                                                                  1214 1442* 1453
loc                             000100 automatic       fixed bin(18,0)          dcl 859 in procedure "set_address_offset" set ref
                                                                                  867* 871
loc                             000165 automatic       fixed bin(18,0)          dcl 2154 in procedure "relocate" set ref 2156* 2164
                                                                                  2171* 2175* 2182* 2186* 2189* 2189 2189 2193 2205
                                                                                  2207
loc                             002714 automatic       fixed bin(18,0)          dcl 4745 in procedure "create_temp" set ref 4766*
                                                                                  4768 4770 4796*
loc                             003144 automatic       fixed bin(18,0)          dcl 5786 in procedure "increment_address" set ref
                                                                                  5792* 5794
loc_p                           000100 automatic       pointer                  dcl 6101 set ref 6136* 6138* 6145 6145 6145 6147
                                                                                  6151 6151
location                               based           fixed bin(18,0)          level 2 in structure "create_entry" packed packed
                                                                                  unsigned unaligned dcl 18-23 in procedure
                                                                                  "code_generator" set ref 2104*
location                  5            based           fixed bin(24,0)          level 2 in structure "temporary" dcl 1-1005
                                                                                  in procedure "ext_code_generator" set ref 5679
                                                                                  6591 6616 6628
location                  5            based           fixed bin(24,0)          level 2 in structure "header" dcl 1-436 in procedure
                                                                                  "ext_code_generator" set ref 1035* 1045* 1120*
                                                                                  1128* 1132 1166* 1214* 1678 1762 1765 1797 1801
                                                                                  1983* 1986* 1994* 2104 10208 10678 10681
location                  1            based           fixed bin(18,0)          level 3 in structure "label" packed packed unsigned
                                                                                  unaligned dcl 1-530 in procedure
                                                                                  "ext_code_generator" set ref 632 1281* 3314 7584*
                                                                                  11001 11026
location                  5            based           fixed bin(24,0)          level 2 in structure "node" dcl 1-63 in procedure
                                                                                  "ext_code_generator" set ref 848 871* 1599* 1599
                                                                                  1608* 1608 2203 5714 5716 5768 5792 5794* 6145
                                                                                  8204
location                  5            based           fixed bin(24,0)          level 2 in structure "symbol" dcl 1-844 in procedure
                                                                                  "ext_code_generator" set ref 1324* 1324 1336*
                                                                                  1344* 1344 1369 1404* 1453* 1496* 1669 1762* 1765*
                                                                                  3791 3791 3837 3837 5716 7881 7884 8223 9174*
                                                                                  10219 10230 10364 10484 10488 10668
location                  1(18)        based           bit(18)                  level 2 in structure "statement" packed packed
                                                                                  unaligned dcl 1-721 in procedure
                                                                                  "ext_code_generator" set ref 3705*
location                        000124 automatic       fixed bin(18,0)          dcl 1959 in procedure "create_storage_entry" set ref
                                                                                  1983* 1989 1995 2007 2047* 2050 2053* 2054
location                  1            based           fixed bin(18,0)          level 3 in structure "constant" packed packed
                                                                                  unsigned unaligned dcl 1-256 in procedure
                                                                                  "ext_code_generator" set ref 775*
location                  1            based           fixed bin(18,0)          level 3 in structure "char_constant" packed packed
                                                                                  unsigned unaligned dcl 1-316 in procedure
                                                                                  "ext_code_generator" set ref 654 805* 2664*
location                        000111 automatic       fixed bin(18,0)          dcl 6105 in procedure "base_man_load_VLA" set ref
                                                                                  6145* 6147* 6149* 6151* 6153*
locn                                   parameter       fixed bin(18,0)          dcl 2149 set ref 2144 2156 2193*
logical_mode                    000733 constant        fixed bin(4,0)           initial dcl 3-106 set ref 2647*
long_profile             12(02)        based           bit(1)                   level 3 in structure "subprogram" packed packed
                                                                                  unaligned dcl 1-753 in procedure
                                                                                  "ext_code_generator" ref 750
long_profile                    000350 constant        fixed bin(14,0)          initial dcl 2433 in procedure "interpreter" set ref
                                                                                  4218* 4236* 7598*
long_profile_entry                     based           structure                level 1 dcl 8-12 ref 1577 7610
long_profile_header                    based           structure                level 1 dcl 8-4 set ref 1576 1577 10248*
looping                         000112 automatic       bit(1)                   packed unaligned dcl 1838 set ref 1923* 1924 1926*
                                                                                  1928* 2045* 2048 2054*
lower                     0(09)        based           bit(1)                   array level 3 packed packed unaligned dcl 1-383 ref
                                                                                  2262 7701 7733 8335 8394 8472 8479 8577 9996 10153
lower_bound               5            based           fixed bin(24,0)          array level 3 dcl 1-383 ref 2239 2259 2262 7701 7733
                                                                                  7735 8337 8389 8399 8472 8479 8481 8481 8579 8589
                                                                                  8611 8620 8624 8632 8638 9984 9996 10141 10153
lp                                     defined         bit(3)                   dcl 525 ref 827 1036 1095 1217 1403 1449 1493 3922
                                                                                  5764 5817 5825 6410
lreg                            004040 automatic       bit(6)                   dcl 8975 in procedure "continue_cat" set ref 9004*
                                                                                  9007* 9009* 9011* 9013
lreg                            003100 automatic       bit(6)                   array dcl 5426 in procedure "emit_eis" set ref 5451*
                                                                                  5469* 5469 5489 5496 5496 5556* 5558* 5567* 5572
lrl                                    constant        fixed bin(18,0)          initial dcl 22-16 ref 3774
lrs                             000420 constant        fixed bin(18,0)          initial dcl 22-16 set ref 9775* 9791* 9807*
ltp                             002730 automatic       pointer                  dcl 4812 set ref 4822* 4823 4825 4825 4826*
ltrim                                                  builtin function         dcl 10-17 in procedure "create_node" ref 10-29 10-29
ltrim                                                  builtin function         dcl 569 in procedure "code_generator" ref 1705 1705
                                                                                  1708 1708 1886 1886 2207 2207
ltrim                                                  builtin function         dcl 9-28 in procedure "create_constant" ref 9-45
                                                                                  9-45
lused                           000102 automatic       fixed bin(18,0)          dcl 5931 set ref 5938* 5946 5948*
lxl0                                   constant        fixed bin(18,0)          initial dcl 22-16 set ref 6691 9770* 9786* 9800*
lxl1                                   constant        fixed bin(18,0)          initial dcl 22-16 set ref 9801*
m                               004620 automatic       fixed bin(18,0)          dcl 10856 set ref 10895* 10897* 10898 10923
mac                             003716 automatic       fixed bin(18,0)          dcl 8718 in procedure "add" set ref 8720* 8729*
                                                                                  8735* 8737*
mac                             003427 automatic       fixed bin(18,0)          dcl 7229 in procedure "use_eaq" set ref 7263* 7265*
                                                                                  7266*
mac                             000110 automatic       fixed bin(18,0)          dcl 7319 in procedure "save_logical_temps" set ref
                                                                                  7343* 7345* 7346*
mac                             000100 automatic       fixed bin(18,0)          dcl 5178 in procedure "emit_temp_store" set ref
                                                                                  5182* 5188*
mac_base                        000566 automatic       pointer                  dcl 2332 set ref 2707* 2730 2742 2743 2744 2767 2790
                                                                                  2802 2807 2807 2825 2842 2857 2882 2959 2962 3019
                                                                                  3021 3038 3047 3051 3059 3094 3096 3125 3137 3143
                                                                                  3158 3163 3169 3175 3181 3186 3192 3208 3212 3253
                                                                                  3259 3326 3377 3393 3400 3449 3466 3471 3479 3516
                                                                                  3693 3698 3895 4000 4107 4116 4122 4127 4132 4139
                                                                                  4150 4293 4542 4595 5034 5034 5041 5042 5044 5448
                                                                                  5450 5462 5479 5516 5516 5547 5563 7630 7635 7642
                                                                                  7650 7651 7651
mac_no                                 parameter       fixed bin(18,0)          dcl 5178 ref 5172 5182
mac_num                                parameter       fixed bin(18,0)          dcl 5141 in procedure "emit_c_a_var" ref 5135 5153
                                                                                  5166 5166 5166
mac_num                                parameter       fixed bin(18,0)          dcl 5056 in procedure "emit_single" ref 5051 5060
                                                                                  5062 5068 5078
mac_num                                parameter       fixed bin(18,0)          dcl 4497 in procedure "interpreter_proc" ref 4475
                                                                                  4502
mac_num                                parameter       fixed bin(18,0)          dcl 5089 in procedure "emit_with_tag" ref 5084 5095
mac_num                                parameter       fixed bin(18,0)          dcl 5119 in procedure "emit_c_a" ref 5114 5122 5124
                                                                                  5124 5128
mac_num                                parameter       fixed bin(18,0)          dcl 5107 in procedure "emit_zero" ref 5102 5109
mac_proc                        002624 automatic       fixed bin(18,0)          dcl 4524 set ref 4526* 4528* 4542
machine_instruction                    based           structure                array level 1 dcl 2538 set ref 2807 2807 3259 5034
                                                                                  5044 5479
machine_state                   001334 automatic       structure                level 1 dcl 2479 set ref 2702* 6936*
macro_bits_inst                        based           structure                array level 1 dcl 2553
macro_cond_inst                        based           structure                array level 1 dcl 2573
macro_dt_inst                          based           structure                array level 1 dcl 2547
macro_if_inst                          based           structure                array level 1 dcl 2559
macro_instruction                      based           structure                array level 1 dcl 2531 set ref 2842 3125 3137 3143
                                                                                  3253
macro_proc                             parameter       fixed bin(18,0)          dcl 4591 in procedure "get_nextbase" ref 4586 4595
macro_proc                             parameter       fixed bin(18,0)          dcl 4519 in procedure "setup_call" ref 4514 4526
macro_proc                      002614 automatic       fixed bin(18,0)          dcl 4500 in procedure "interpreter_proc" set ref
                                                                                  4502* 4504* 4509
macro_regs_inst                        based           structure                array level 1 dcl 2567
main_entry_point_name
                         56            based           varying char(32)         level 2 dcl 53 ref 987
main_program                           constant        fixed bin(9,0)           initial dcl 3-68 ref 3183 6499 6538 9825
map_ptr                                based           bit(18)                  dcl 13-38 set ref 733*
mask                            004105 automatic       fixed bin(18,0)          dcl 9154 in procedure "get_param_char_size" set ref
                                                                                  9183* 9186* 9194*
mask                            004254 automatic       fixed bin(35,0)          dcl 9561 in procedure "generate_mask" set ref 9564*
                                                                                  9565 9567*
mask_left                              constant        bit(36)                  initial dcl 2383 ref 5095 5122 5230 5251
max                                                    builtin function         dcl 569 ref 9624 9625 9737 9738
max_address_offset                     constant        fixed bin(14,0)          initial dcl 565 ref 1317 1317
max_fixed_bin_18                       constant        fixed bin(18,0)          initial dcl 3-58 ref 7983
max_linkage_size                000651 constant        fixed bin(18,0)          initial dcl 567 set ref 1567* 1582 1582 1582 1636
                                                                                  1636 1636 1740 1740 1740 10875 10878
max_stack_size                  000602 constant        fixed bin(18,0)          initial dcl 566 set ref 1338 1338 1518 1518 1550
                                                                                  1550 1566* 4768 4768 9831 9831
max_template_init_size                 constant        fixed bin(18,0)          initial dcl 10863 ref 10875 10892
message_number            4            based           fixed bin(18,0)          level 3 dcl 58 set ref 7629*
message_structure         4            based           structure                level 2 dcl 58
mf                              000342 constant        fixed bin(6,0)           initial array dcl 5293 in procedure "text_ref" ref
                                                                                  5331
mf                              000337 constant        fixed bin(6,0)           initial array dcl 5437 in procedure "emit_eis" ref
                                                                                  5487 5489
min                                                    builtin function         dcl 569 ref 9624 9625 9737 9738
misc_attributes          10(28)        based           structure                level 3 packed packed unaligned dcl 1-844
mod                                                    builtin function         dcl 569 in procedure "code_generator" ref 621 799
                                                                                  870 888 907 1033 1041 1203 1209 1209 1333 1581
                                                                                  1763 2189 10875 10883
mod                                                    builtin function         dcl 2615 in procedure "interpreter" ref 3739 4248
                                                                                  4559 4639 4698 4943 5793 5841 7897 8244 8997 9827
mod                                                    builtin function         dcl 9-29 in procedure "create_constant" ref 9-57
mod                       3(30) 001516 automatic       bit(6)                   array level 3 in structure "arg_list" packed packed
                                                                                  unaligned dcl 2602 in procedure "interpreter" set
                                                                                  ref 9331*
mod_2_sum                       000106 automatic       bit(36)                  dcl 9-30 set ref 9-51* 9-54* 9-57
mode                     10(20)        based           structure                level 4 packed packed unaligned dcl 1-844
mode_bits                10            based           structure                level 3 packed packed unaligned dcl 1-844
mop                             000576 automatic       fixed bin(18,0)          dcl 2341 in procedure "interpreter" set ref 2744*
                                                                                  2746 2851 3375 4323
mop                             003060 automatic       fixed bin(18,0)          dcl 5223 in procedure "put_word" set ref 5234* 5235
mop                                    parameter       fixed bin(18,0)          dcl 5278 in procedure "text_ref" ref 5271 5308 5398
mopnd                           000575 automatic       fixed bin(18,0)          dcl 2340 set ref 2742* 2748* 2753* 2762* 2835* 2888*
                                                                                  3061* 3088* 3128* 3133* 3165* 3171* 3177* 3188*
                                                                                  3204* 3247* 3264* 3269* 3277* 3294* 3308* 3330*
                                                                                  3339* 3370* 3387* 3447* 3464* 3469* 3474* 3521*
                                                                                  3526* 3531* 3545* 3580* 3585* 3590* 3608* 3665*
                                                                                  3665* 3700* 3929* 4008* 4014* 4019* 4032* 4118*
                                                                                  4141*
move_eis                               constant        fixed bin(18,0)          initial dcl 2449 set ref 9220*
mpy                             000456 constant        fixed bin(18,0)          initial dcl 22-16 set ref 3777 8550*
multiplier                3     004354 automatic       fixed bin(18,0)          array level 3 in structure "descriptor" dcl 10060
                                                                                  in procedure "make_entry_descriptor" set ref
                                                                                  10136*
multiplier                3     000117 automatic       fixed bin(18,0)          array level 3 in structure "descriptor" dcl 9912
                                                                                  in procedure "make_symbol_descriptor" set ref
                                                                                  9979*
must_be                   1(04)        based           structure                array level 3 packed packed unaligned dcl 1-130
n                               000100 automatic       fixed bin(18,0)          dcl 5805 in procedure "c_a" set ref 5809* 5839 5841*
                                                                                  5841 5842 5845
n                               000102 automatic       fixed bin(18,0)          dcl 6482 in procedure "base_man_load_arg_ptr" set
                                                                                  ref 6499* 6501* 6503* 6503*
n                               000220 automatic       fixed bin(18,0)          dcl 2222 in procedure "get_array_size" set ref 2224*
                                                                                  2232* 2270
n                               000156 automatic       fixed bin(18,0)          dcl 428 in procedure "code_generator" set ref 646*
                                                                                  647 648 712* 713 733 737
n                               000530 automatic       fixed bin(17,0)          dcl 766 in procedure "alloc_constants" set ref 768*
                                                                                  777
n                                      parameter       fixed bin(18,0)          dcl 5857 in procedure "c_a_18" ref 5851 5869
n                               000124 automatic       fixed bin(18,0)          dcl 6521 in procedure "base_man_load_desc_ptr" set
                                                                                  ref 6538* 6540* 6542* 6542*
n                               004003 automatic       fixed bin(18,0)          dcl 8868 in procedure "free_array_ref" set ref 8884*
                                                                                  8885 8895* 8896
n                               004571 automatic       fixed bin(9,0)           dcl 10804 in procedure "name_assign" set ref 10821*
                                                                                  10822 10822 10832* 10841 10842 10845
n                               004621 automatic       fixed bin(18,0)          dcl 10856 in procedure "initialize_common" set ref
                                                                                  10870* 10872* 10872 10875 10875 10892 10909 10910
                                                                                  10910 10914 10917 10921
n                               000604 automatic       fixed bin(18,0)          dcl 2348 in procedure "interpreter" set ref 3726*
                                                                                  3735 3747 3798 3811 3841 3843 3881* 3882 3884
                                                                                  3898* 3899 3913 3940* 3941 3943 3948 3955* 3956
                                                                                  3958 3962 4276* 4279 4284
n                               002567 automatic       fixed bin(18,0)          dcl 4413 in procedure "pop" set ref 4423* 4424 4429*
                                                                                  4430
n                               000100 automatic       fixed bin(18,0)          dcl 5985 in procedure "base_man_load_any_pr" set ref
                                                                                  5996* 6005 6028 6054 6054 6057 6068* 6076 6078
                                                                                  6088
n_args                    0(05)        based           fixed bin(12,0)          level 2 in structure "arg_desc" packed packed
                                                                                  unaligned dcl 1-130 in procedure
                                                                                  "ext_code_generator" set ref 9389* 9413 9416 9416
                                                                                  9498 9525*
n_args                                 based           fixed bin(18,0)          level 2 in structure "parm_desc_ptrs" packed packed
                                                                                  unsigned unaligned dcl 515 in procedure
                                                                                  "code_generator" set ref 4279* 11024
name                                   parameter       fixed bin(18,0)          dcl 7186 in procedure "also_in_reg" ref 7181 7191
name                                   parameter       fixed bin(18,0)          dcl 7364 in procedure "load" ref 7361 7368
name                                   parameter       char                     dcl 10797 in procedure "name_assign" ref 10794 10815
                                                                                  10815 10815
name                                   parameter       char                     dcl 10934 in procedure "generate_definition" set ref
                                                                                  10931 10949*
name                                   parameter       fixed bin(18,0)          dcl 7152 in procedure "in_reg" ref 7147 7157 7165
name                     20            based           char                     level 2 in structure "symbol" dcl 1-844 in procedure
                                                                                  "ext_code_generator" set ref 987 1395 1395 1636
                                                                                  1669 1669 2207 2207 9479 9479 9484 9484 9831
                                                                                  10670* 11009*
name                            003367 automatic       fixed bin(18,0)          dcl 7063 in procedure "eaq_man_load_a_or_q" set ref
                                                                                  7077* 7078 7080 7090* 7092* 7094* 7096* 7103 7105
                                                                                  7107* 7109
name                            001334 automatic       fixed bin(18,0)          array level 3 in structure "machine_state" dcl 2479
                                                                                  in procedure "interpreter" set ref 3140 3143 3154
                                                                                  3485 3485 3490 3490 6991* 7132 7165* 7167 7263
                                                                                  7265 7276* 7298 7305* 7343 7345 7400 7400 7400*
                                                                                  7404 7412 7522* 7555
name                                   parameter       fixed bin(18,0)          dcl 7531 in procedure "store" ref 7527 7537
name_length              14(07)        based           fixed bin(17,0)          level 2 in structure "symbol" packed packed
                                                                                  unaligned dcl 1-844 in procedure
                                                                                  "ext_code_generator" set ref 987 1395 1395 1526
                                                                                  1636 1669 1669 2207 2207 9479 9479 9484 9484 9831
                                                                                  10670 10670 11009 11009
name_length               4(18)        based           fixed bin(17,0)          level 2 in structure "header" packed packed
                                                                                  unaligned dcl 1-436 in procedure
                                                                                  "ext_code_generator" ref 1675 1675 1680 1859 1859
                                                                                  1886 2119 2120 10678 10678 10678 10681 10681 10683
                                                                                  10683 10878 10878
name_length               2(18)        based           fixed bin(17,0)          level 2 in structure "create_entry" packed packed
                                                                                  unaligned dcl 18-23 in procedure "code_generator"
                                                                                  set ref 1803 1812 1823 2018 2024 2030 2119* 2120
                                                                                  2120
named_constant           11(06)        based           bit(1)                   level 4 packed packed unaligned dcl 1-844 set ref
                                                                                  1255 1277 11051
namelist                 10(34)        based           bit(1)                   level 4 packed packed unaligned dcl 1-844 set ref
                                                                                  1279
namelist_used           115(01)        based           bit(1)                   level 4 in structure "shared_globals" packed packed
                                                                                  unaligned dcl 53 in procedure "ext_code_generator"
                                                                                  ref 751
namelist_used             0(14)        based           bit(1)                   level 2 in structure "subprogram" packed packed
                                                                                  unaligned dcl 1-753 in procedure
                                                                                  "ext_code_generator" ref 3194
names                     1            based           structure                array level 2 in structure "saved_lib_list" dcl 503
                                                                                  in procedure "code_generator"
names                     1            based           structure                array level 2 in structure "saved_lib_reloc_list"
                                                                                  dcl 509 in procedure "code_generator"
nargs                           002644 automatic       fixed bin(18,0)          dcl 4593 set ref 4595* 4596 4596* 4598
nb                                     parameter       fixed bin(18,0)          dcl 4519 ref 4514 4528 4530
ndims                           000113 automatic       fixed bin(18,0)          dcl 9909 in procedure "make_symbol_descriptor" set
                                                                                  ref 9932* 9967* 9968 9970 9977 10003 10013 10015
                                                                                  10015 10029 10030
ndims                           004350 automatic       fixed bin(18,0)          dcl 10057 in procedure "make_entry_descriptor" set
                                                                                  ref 10080* 10124* 10125 10127 10134 10160 10170
                                                                                  10172 10172
ndims                           003634 automatic       fixed bin(18,0)          dcl 8289 in procedure "finish_subscript" set ref
                                                                                  8309* 8335 8369 8373 8387 8394 8498 8546 8575
need_PS                   0(11)        based           bit(1)                   level 2 packed packed unaligned dcl 1-753 ref 999
needs_descriptors         0(33)        based           bit(1)                   level 3 packed packed unaligned dcl 1-844 set ref
                                                                                  1361 1415* 1415 2251 3189 3910 3951 4112*
needs_pointer             0(18)        based           bit(1)                   level 3 in structure "array_ref" packed packed
                                                                                  unaligned dcl 1-155 in procedure
                                                                                  "ext_code_generator" set ref 7954 8251 8852*
needs_pointer             0(18)        based           bit(1)                   level 3 in structure "node" packed packed unaligned
                                                                                  dcl 1-63 in procedure "ext_code_generator" ref
                                                                                  5666
needs_pointer             0(18)        based           bit(1)                   level 3 in structure "header" packed packed
                                                                                  unaligned dcl 1-436 in procedure
                                                                                  "ext_code_generator" set ref 1020* 1089* 1160*
needs_pointer             0(18)        based           bit(1)                   level 3 in structure "temporary" packed packed
                                                                                  unaligned dcl 1-1005 in procedure
                                                                                  "ext_code_generator" set ref 4872* 4979*
needs_pointer             0(18)        based           bit(1)                   level 3 in structure "symbol" packed packed
                                                                                  unaligned dcl 1-844 in procedure
                                                                                  "ext_code_generator" set ref 1320* 1353* 1356*
                                                                                  1360* 2694* 8852
new                       1(18)        based           bit(1)                   level 3 packed packed unaligned dcl 26-12 set ref
                                                                                  10963*
next                      3            based           fixed bin(18,0)          level 2 in structure "node" packed packed unsigned
                                                                                  unaligned dcl 1-63 in procedure
                                                                                  "ext_code_generator" set ref 1600 1620 2184 2203
                                                                                  2203 2293* 10036* 10210 10221 10232 10288
next                      2            based           pointer                  level 2 in structure "proc_frame" packed packed
                                                                                  unaligned dcl 2510 in procedure "interpreter" set
                                                                                  ref 4534 4534 4576* 4581*
next                            000127 automatic       fixed bin(35,0)          level 2 in structure "initial" dcl 10460
                                                                                  in procedure "list_initialize_symbol" set ref
                                                                                  10516* 10518 10522 10523 10524* 10524
next                                   based           pointer                  level 2 in structure "entry" dcl 1846 in procedure
                                                                                  "create_storage_entry" set ref 1861 1872* 2032
                                                                                  2071 2088*
next                      3            based           fixed bin(18,0)          level 2 in structure "temporary" packed packed
                                                                                  unsigned unaligned dcl 1-1005 in procedure
                                                                                  "ext_code_generator" set ref 3979 4673 4687 4689*
                                                                                  4689 4694 4705* 4727 4792* 4898 4921* 4926* 4926
                                                                                  4927* 9298* 9844 9845*
next                                   based           fixed bin(17,0)          level 2 in structure "initial_in_polish" dcl 10342
                                                                                  in procedure "initialize_symbol" ref 10404
next                            004463 automatic       fixed bin(18,0)          level 2 in structure "initial" dcl 10337
                                                                                  in procedure "initialize_symbol" set ref 10395*
                                                                                  10398 10402 10403 10404* 10404
next                      2            based           fixed bin(18,0)          level 2 in structure "create_entry" packed packed
                                                                                  unsigned unaligned dcl 18-23 in procedure
                                                                                  "code_generator" set ref 2053 2118* 2135* 2136
next                                   based           fixed bin(35,0)          level 2 in structure "initial_in_polish" dcl 10465
                                                                                  in procedure "list_initialize_symbol" ref 10524
next                      3            based           fixed bin(18,0)          level 2 in structure "array_ref" packed packed
                                                                                  unsigned unaligned dcl 1-155 in procedure
                                                                                  "ext_code_generator" set ref 8831 8904*
next_base                       000607 automatic       fixed bin(18,0)          dcl 2348 in procedure "interpreter" set ref 2950*
                                                                                  2952 2957* 2971*
next_base                       002625 automatic       fixed bin(18,0)          dcl 4524 in procedure "setup_call" set ref 4528*
                                                                                  4530* 4547
next_constant             3            based           fixed bin(18,0)          level 2 in structure "char_constant" packed packed
                                                                                  unsigned unaligned dcl 1-316 in procedure
                                                                                  "ext_code_generator" ref 812
next_constant             3            based           fixed bin(18,0)          level 2 in structure "constant" packed packed
                                                                                  unsigned unaligned dcl 1-256 in procedure
                                                                                  "ext_code_generator" set ref 9-91* 780
next_free_array_ref             000577 automatic       fixed bin(18,0)          dcl 2343 set ref 2700* 8823 8829 8831* 8904 8905*
next_free_object         43            based           fixed bin(18,0)          level 2 dcl 53 set ref 737*
next_free_operand        42            based           fixed bin(18,0)          level 2 dcl 53 set ref 10-20 10-22 10-23* 10-23 4559
                                                                                  4561 4562* 4562 4566 4567* 4567 4569
next_free_polish         41            based           fixed bin(18,0)          level 2 dcl 53 set ref 605 611 630 637* 689* 1634
                                                                                  1634 1667 1674 1727 1729 1733 1734 1736* 1736 5381
                                                                                  5387* 5387 5389 5390 10819 10835 10837* 10837
                                                                                  10838
next_free_temp           47            based           fixed bin(18,0)          level 2 dcl 53 set ref 4723 4726 4727* 9845 9846*
next_header               3            based           fixed bin(18,0)          level 2 packed packed unsigned unaligned dcl 1-436
                                                                                  set ref 1067* 1074 1075* 1142* 1149 1150* 1172*
                                                                                  1179 1180* 1235* 1238 1239*
next_label                3            based           fixed bin(18,0)          level 2 packed packed unsigned unaligned dcl 1-530
                                                                                  ref 1007
next_library_node         0(18)        based           fixed bin(18,0)          level 2 packed packed unsigned unaligned dcl 1-605
                                                                                  ref 658
next_loc                        000202 automatic       fixed bin(18,0)          dcl 2201 in procedure "relocate_error" set ref 2203*
                                                                                  2205* 2207
next_loc                 14            based           fixed bin(18,0)          array level 3 in structure "subprogram" dcl 1-753
                                                                                  in procedure "ext_code_generator" set ref 1203
                                                                                  1203* 1203 1207 1208* 1208 1209* 1209 1442 1443*
                                                                                  1443 2164* 2164 2186 2205 2666 10263
next_member               7(18)        based           fixed bin(18,0)          level 2 packed packed unsigned unaligned dcl 1-844
                                                                                  set ref 1058 1290* 1612 1771 1819 1941 2177 3595
                                                                                  3601 6962 10286 10319 10906
next_subprogram           1(18)        based           fixed bin(18,0)          level 2 packed packed unsigned unaligned dcl 1-753
                                                                                  ref 1478 1623 2190 3685 10233 10241 10261
next_symbol               3            based           fixed bin(18,0)          level 2 packed packed unsigned unaligned dcl 1-844
                                                                                  set ref 989 1397 1470* 1474 1475* 9480 11028
nlibs                                  based           fixed bin(18,0)          level 2 dcl 503 set ref 647*
no_value_stored           0(29)        based           bit(1)                   level 3 packed packed unaligned dcl 1-316 set ref
                                                                                  2668*
node                                   based           structure                level 1 dcl 1-63 in procedure "ext_code_generator"
node                      4            based           pointer                  level 2 in structure "entry" dcl 1846 in procedure
                                                                                  "create_storage_entry" set ref 1859 1881 1886 1891
                                                                                  1891 1938* 1967 1983 1985* 1986* 1986 1989 1989
                                                                                  1993 1994 1994* 1995 1995 2004 2087*
node_offset                     000107 automatic       fixed bin(17,0)          dcl 9-31 set ref 9-61* 9-62 9-63 9-65 9-69* 9-74*
                                                                                  9-76 9-78 9-80 9-89 9-91 9-93 9-95
node_ptr                        000110 automatic       pointer                  dcl 9-32 set ref 9-63* 9-65 9-65 9-69 9-78 9-80*
                                                                                  9-81 9-82 9-83 9-84 9-85
node_size                       002710 automatic       fixed bin(17,0)          dcl 4742 set ref 4751* 4761* 4772*
node_type                       002715 automatic       fixed bin(4,0)           dcl 4746 in procedure "create_temp" set ref 4750*
                                                                                  4760* 4772 4772* 4786
node_type                              based           fixed bin(4,0)           level 2 in structure "node" packed packed unaligned
                                                                                  dcl 1-63 in procedure "ext_code_generator" set ref
                                                                                  10-25* 1606 1667 1669 1675 1731 2169 3054 3065
                                                                                  3070 3333 3342 3425 3425 3670 3750 3753 3789 3800
                                                                                  3803 3813 3818 3887 3916 3919 3965 4047 4058 4145
                                                                                  4400 4400 4421 4427 4823 5148 5158 5255 5300 5302
                                                                                  5502 5511 5598 5662 5671 5674 5719 5764 6031 6033
                                                                                  6119 6199 6244 6246 6954 7206 7234 7250 7270 7333
                                                                                  7350 7421 8051 8067 8137 8141 8213 8253 8265 8664
                                                                                  8676 8882 8893 9063 9078 9256 9331 9371 9394 9402
                                                                                  9428 9430 9436 9449 9506 9514 9546 9549 9602 9614
                                                                                  9718 9727 9747 9870 9873 9880 9887 10088 10281
                                                                                  10663 11045 11051
node_type                              based           fixed bin(4,0)           level 2 in structure "array_ref" packed packed
                                                                                  unaligned dcl 1-155 in procedure
                                                                                  "ext_code_generator" set ref 8833*
node_type                              based           fixed bin(4,0)           level 2 in structure "temporary" packed packed
                                                                                  unaligned dcl 1-1005 in procedure
                                                                                  "ext_code_generator" set ref 4729*
nop                             000453 constant        fixed bin(18,0)          initial dcl 22-16 set ref 4248*
not_found                       000134 automatic       bit(1)                   dcl 942 set ref 1391* 1393 1395* 1400
not_in_storage            0(23)        based           bit(1)                   level 3 in structure "node" packed packed unaligned
                                                                                  dcl 1-63 in procedure "ext_code_generator" set ref
                                                                                  4016* 6685 6724 7294 7325 7553*
not_in_storage            0(23)        based           bit(1)                   level 3 in structure "temporary" packed packed
                                                                                  unaligned dcl 1-1005 in procedure
                                                                                  "ext_code_generator" set ref 4789* 4860* 5190*
                                                                                  6199 6574* 7261 7341 8067
nshort                   12            based           fixed bin(18,0)          level 2 dcl 2510 set ref 2991* 2991 2993 2995 2999
                                                                                  3003 3004* 3004 4548*
null                                                   builtin function         dcl 569 ref 436 436 595 1853 1858 1865 1870 1921
                                                                                  1926 1963 2003 2066 2069 2072 2088 2629 2629 2712
                                                                                  4534 4573 4576 4581 5299 5308 7232 10209 10220
                                                                                  10231
num                                    parameter       fixed bin(18,0)          dcl 5985 ref 5982 5997
num_args                        000117 automatic       fixed bin(17,0)          dcl 1-150 set ref 9361* 9369 9387 9387 9389 9391
                                                                                  9413 9416 9416* 9420
num_of_lib_names                       based           fixed bin(17,0)          level 2 dcl 58 ref 646
number                    1     001334 automatic       fixed bin(18,0)          array level 3 dcl 2479 set ref 3154 3406 6983 6986
                                                                                  6990* 6990 6991 7094 7094 7094 7130 7163* 7196
                                                                                  7198* 7198 7199 7242 7247 7277* 7294 7304* 7323
                                                                                  7331 7384 7396 7516 7523*
number_dims               0(08) 000321 automatic       fixed bin(3,0)           initial array level 2 in structure
                                                                                  "descriptor_type_word" packed packed unaligned
                                                                                  dcl 552 in procedure "code_generator" set ref 552*
number_dims               0(08) 000117 automatic       fixed bin(3,0)           level 3 in structure "descriptor" packed packed
                                                                                  unaligned dcl 9912 in procedure
                                                                                  "make_symbol_descriptor" set ref 9968*
number_dims               0(08) 004354 automatic       fixed bin(3,0)           level 3 in structure "descriptor" packed packed
                                                                                  unaligned dcl 10060 in procedure
                                                                                  "make_entry_descriptor" set ref 10125*
number_of_dims            0(05)        based           fixed bin(3,0)           level 2 packed packed unaligned dcl 1-383 ref 2238
                                                                                  2258 7728 7771 8309 8795 9967 10124
number_of_lines          53            based           fixed bin(17,0)          level 2 dcl 53 ref 593
number_of_operands        5            based           fixed bin(17,0)          level 3 dcl 58 set ref 7630* 7632
object_base               4            based           pointer                  level 2 in structure "shared_globals" dcl 53
                                                                                  in procedure "ext_code_generator" ref 75
object_base                     000104 automatic       pointer                  dcl 44 in procedure "ext_code_generator" set ref 75*
                                                                                  632 632 644 664 672 713 776 806 825 1060 1060 1134
                                                                                  1134 2050 2100 2134 2136 3259 3303 3303 3315 3315
                                                                                  4155 4166 4170 4176 4180 4219 4224 4237 4242 4278
                                                                                  4285 4286 5034 5095 5096 5097 5109 5122 5124 5124
                                                                                  5124 5128 5128 5164 5165 5206 5230 5235 5238 5251
                                                                                  5262 5266 5266 5267 5267 5318 5319 5330 5331 5348
                                                                                  5348 5351 5351 5354 5354 5357 5357 5364 5365 5377
                                                                                  5393 5393 5398 5479 5487 5489 5494 5496 5498 5523
                                                                                  5523 5524 5524 7602 7607 10260 10260 11005 11013
                                                                                  11023 11023
object_map                             based           structure                level 1 dcl 13-10 set ref 733 737
object_map_version_2                   constant        fixed bin(17,0)          initial dcl 13-40 ref 715
object_max_len                  000114 automatic       fixed bin(19,0)          dcl 45 in procedure "ext_code_generator" set ref 70*
object_max_len           36            based           fixed bin(19,0)          level 2 in structure "shared_globals" dcl 53
                                                                                  in procedure "ext_code_generator" ref 70
objectname               42            based           varying char(32)         level 2 dcl 58 ref 590 590
odd                       0(31)        based           bit(1)                   level 4 packed packed unaligned dcl 1-436 ref 1203
off                             000126 automatic       fixed bin(35,0)          dcl 10458 in procedure "list_initialize_symbol" set
                                                                                  ref 10484* 10487* 10488* 10488 10492 10543* 10548*
                                                                                  10553* 10558* 10564 10568 10595
off                             000100 automatic       fixed bin(18,0)          dcl 6401 in procedure "base_man_load_large_base" set
                                                                                  ref 6408* 6419 6435* 6435* 6439
off                                    parameter       fixed bin(18,0)          dcl 859 in procedure "set_address_offset" ref 852
                                                                                  863
off                             000102 automatic       fixed bin(18,0)          dcl 5985 in procedure "base_man_load_any_pr" set ref
                                                                                  5998* 6005 6020 6090
off                             004037 automatic       fixed bin(18,0)          dcl 8974 in procedure "continue_cat" set ref 8994*
                                                                                  8995 8997 8998 8998 9000
off                             004462 automatic       fixed bin(18,0)          dcl 10335 in procedure "initialize_symbol" set ref
                                                                                  10363* 10364* 10364 10367 10371* 10372
offset                    6(01)        based           fixed bin(35,0)          level 2 in structure "entry" packed packed unsigned
                                                                                  unaligned dcl 1846 in procedure
                                                                                  "create_storage_entry" set ref 1928 1936* 2089*
offset                    0(03) 001330 automatic       fixed bin(14,0)          level 2 in structure "inst_address" packed packed
                                                                                  unaligned dcl 2465 in procedure "interpreter" set
                                                                                  ref 3776* 7940*
offset                    3     001516 automatic       bit(18)                  array level 3 in structure "arg_list" packed packed
                                                                                  unaligned dcl 2602 in procedure "interpreter" set
                                                                                  ref 9325*
offset                                 parameter       fixed bin(18,0)          dcl 6401 in procedure "base_man_load_large_base" ref
                                                                                  6395 6408
offset                          000101 automatic       fixed bin(18,0)          dcl 859 in procedure "set_address_offset" set ref
                                                                                  863* 865 867 870* 870 871 874
offset                    1(03)        based           fixed bin(14,0)          level 3 in structure "temporary" packed packed
                                                                                  unaligned dcl 1-1005 in procedure
                                                                                  "ext_code_generator" set ref 8994 8998* 9000*
offset                    1(03)        based           fixed bin(14,0)          level 3 in structure "node" packed packed unaligned
                                                                                  dcl 1-63 in procedure "ext_code_generator" set ref
                                                                                  874* 5514 5641* 5788* 5788 5792 5795* 6145 6147
                                                                                  6279 8186 8264* 9325
offset                   17            based           fixed bin(24,0)          level 2 in structure "symbol" dcl 1-844 in procedure
                                                                                  "ext_code_generator" set ref 1762 1763 1765 1797
                                                                                  1803 1928 1936 2005 2014 2016 2018 7910
offset                                 parameter       fixed bin(18,0)          dcl 5985 in procedure "base_man_load_any_pr" ref
                                                                                  5982 5998
offset                          003145 automatic       fixed bin(18,0)          dcl 5786 in procedure "increment_address" set ref
                                                                                  5792* 5793* 5793 5794 5795
offset                                 parameter       fixed bin(18,0)          dcl 6453 in procedure
                                                                                  "base_man_load_large_base_no_flush" ref 6446 6463
                                                                                  6463 6469
offset                    0(03) 003046 automatic       fixed bin(14,0)          level 2 in structure "inst" packed packed unaligned
                                                                                  dcl 5200 in procedure "emit_operator_call" set ref
                                                                                  5203*
offset                                 based           fixed bin(24,0)          array level 3 in structure "create_entry" packed
                                                                                  packed unsigned unaligned dcl 18-23 in procedure
                                                                                  "code_generator" set ref 1803* 2018*
offset                    1            based           bit(18)                  array level 3 in structure "saved_lib_list" packed
                                                                                  packed unaligned dcl 503 in procedure
                                                                                  "code_generator" set ref 654*
offset                    1(03)        based           fixed bin(14,0)          level 3 in structure "symbol" packed packed
                                                                                  unaligned dcl 1-844 in procedure
                                                                                  "ext_code_generator" set ref 1312* 1322* 1369*
                                                                                  1527* 1527 3781 3781 6181* 8222 10217 10219 10228
                                                                                  10230 10363 10487 10667
offset                          000100 automatic       fixed bin(18,0)          dcl 10-13 in procedure "create_node" set ref 10-22*
                                                                                  10-24 10-25 10-26
offset                    0(03)        based           fixed bin(14,0)          array level 2 in structure "instruction" packed
                                                                                  packed unaligned dcl 2581 in procedure
                                                                                  "interpreter" set ref 3303* 3303 3315* 3315 5124*
                                                                                  5124 5164 5165* 5266* 5266 5523* 5523
offset                    0(03) 000101 automatic       fixed bin(14,0)          level 2 in structure "inst_address" packed packed
                                                                                  unaligned dcl 5807 in procedure "c_a" set ref
                                                                                  5845*
offset                          000100 automatic       fixed bin(17,0)          level 2 in structure "inst_address" packed packed
                                                                                  unaligned dcl 5860 in procedure "c_a_18" set ref
                                                                                  5869*
offset                    1(03)        based           fixed bin(14,0)          level 3 in structure "header" packed packed
                                                                                  unaligned dcl 1-436 in procedure
                                                                                  "ext_code_generator" set ref 1120* 1128*
offset                  114     001334 automatic       fixed bin(18,0)          array level 3 in structure "machine_state" dcl 2479
                                                                                  in procedure "interpreter" set ref 3352* 3359*
                                                                                  5021* 6005 6020 6090* 6341* 6366 6388* 6419 6439*
                                                                                  6469* 6508* 6547* 6591 6867*
offset                    1(03)        based           fixed bin(14,0)          level 3 in structure "array_ref" packed packed
                                                                                  unaligned dcl 1-155 in procedure
                                                                                  "ext_code_generator" set ref 2676* 7950
offset                          000105 automatic       fixed bin(18,0)          dcl 5658 in procedure "m_a_except_xreg" set ref
                                                                                  5676* 5677 5677* 5677 5679* 5679 5681*
old_pos                         004573 automatic       fixed bin(18,0)          dcl 10805 set ref 10825* 10826 10844* 10847
op                        0(18)        based           bit(10)                  array level 2 in structure "instruction" packed
                                                                                  packed unaligned dcl 2581 in procedure
                                                                                  "interpreter" set ref 5348 5348* 5351 5351* 5354
                                                                                  5354* 5357 5357*
op                              004710 automatic       fixed bin(18,0)          dcl 11038 in procedure "effective_operand" set ref
                                                                                  11041* 11042 11044 11048* 11049 11051* 11055
op                                     parameter       fixed bin(18,0)          dcl 6100 in procedure "base_man_load_VLA" ref 6097
                                                                                  6118
op                                     parameter       fixed bin(18,0)          dcl 7993 in procedure "add_pointer" ref 7990 8002
op                              002556 automatic       fixed bin(18,0)          dcl 4391 in procedure "copy" set ref 4393* 4395*
                                                                                  4397 4399
op                              003167 automatic       fixed bin(18,0)          dcl 6229 in procedure "base_man_load_pr" set ref
                                                                                  6239* 6240 6283* 6285* 6340
op                                     parameter       fixed bin(18,0)          dcl 8766 in procedure "mult" set ref 8761 8774 8774
                                                                                  8774 8774 8776*
op                              003074 automatic       fixed bin(18,0)          array dcl 5424 in procedure "emit_eis" set ref 5448*
                                                                                  5449 5505
op                              004012 automatic       fixed bin(18,0)          array dcl 8924 in procedure "start_cat" set ref
                                                                                  8934* 8935* 8952
op                        0(18) 003046 automatic       bit(10)                  level 2 in structure "inst" packed packed unaligned
                                                                                  dcl 5200 in procedure "emit_operator_call" set ref
                                                                                  5204*
op                                     parameter       fixed bin(18,0)          dcl 8718 in procedure "add" set ref 8713 8724 8735
                                                                                  8735 8735 8737*
op                              000100 automatic       fixed bin(18,0)          dcl 7120 in procedure "get_eaq_name" set ref 7123*
                                                                                  7125 7132
op                              003205 automatic       fixed bin(18,0)          dcl 6357 in procedure "base_man_load_pr_value" set
                                                                                  ref 6360* 6361 6366 6377* 6387
op1                             004073 automatic       fixed bin(18,0)          dcl 9104 in procedure "compute_cat_result_length"
                                                                                  set ref 9121* 9123* 9125*
op1                             000605 automatic       fixed bin(18,0)          dcl 2348 in procedure "interpreter" set ref 2748*
                                                                                  2750* 2753* 2757 2758 2762* 2764* 2835* 2837 2888*
                                                                                  2890 2891 3088* 3091 3093* 3165* 3166 3171* 3172
                                                                                  3177* 3178 3178 3188* 3189 3204* 3206* 3206 3215
                                                                                  3219 3223 3227 3231 3235 3247* 3249 3264* 3269*
                                                                                  3272 3277* 3280* 3283 3294* 3296* 3308* 3309 3311
                                                                                  3330* 3333 3333 3336* 3339* 3342 3342 3345* 3370*
                                                                                  3373 3373 3387* 3390 3390* 3390 3393* 3447* 3452*
                                                                                  3464* 3466* 3469* 3471* 3474* 3476 3476* 3476 3478
                                                                                  3478 3497* 3521* 3523 3523 3526* 3528 3528 3531*
                                                                                  3534 3535 3538 3545* 3548 3580* 3582 3585* 3587
                                                                                  3590* 3594 3601* 3604* 3608* 3610 3613* 3615*
                                                                                  3617* 3665* 3667 3669 3674* 3929* 3931 3934 4008*
                                                                                  4010* 4014* 4016 4019* 4022 4025 4025 4028 4029
                                                                                  4032* 4035 4038 4038 4041 4042 4118* 4119 4141*
                                                                                  4145 4145
op2                             000606 automatic       fixed bin(18,0)          dcl 2348 set ref 3208* 3209 3209* 3215 3219 3223
                                                                                  3227 3231 3235 3377* 3378 3378 3449* 3450 3452*
                                                                                  3458 3458
op_code                   0(18)        based           bit(10)                  array level 2 in structure "machine_instruction"
                                                                                  packed packed unaligned dcl 2538 in procedure
                                                                                  "interpreter" set ref 5516 5516
op_code                   0(29)        based           bit(7)                   array level 2 in structure "macro_instruction"
                                                                                  packed packed unaligned dcl 2531 in procedure
                                                                                  "interpreter" set ref 2744 2959 4542
op_code                   0(18)        parameter       bit(10)                  level 2 in structure "inst" packed packed unaligned
                                                                                  dcl 5217 in procedure "put_word" ref 5234 5260
                                                                                  5260
op_code                   0(18) 000026 external static bit(10)                  array level 2 in structure
                                                                                  "fort_cg_macros_$single_inst" packed packed
                                                                                  unaligned dcl 2395 in procedure "interpreter" ref
                                                                                  5166 5166
op_code                         000601 automatic       fixed bin(18,0)          dcl 2346 in procedure "interpreter" set ref 2945*
                                                                                  2948
op_length                              parameter       fixed bin(18,0)          array dcl 9100 ref 9093 9108 9108 9113 9113 9121
                                                                                  9121 9123 9127
op_type                         002711 automatic       fixed bin(18,0)          dcl 4743 set ref 4752* 4762* 4778
operand                   0(18)        based           fixed bin(18,0)          array level 2 in structure "forward_refs" packed
                                                                                  packed unsigned unaligned dcl 497 in procedure
                                                                                  "code_generator" set ref 632 5389*
operand                                based           fixed bin(3,0)           array level 2 in structure "machine_instruction"
                                                                                  packed packed unaligned dcl 2538 in procedure
                                                                                  "interpreter" set ref 3377 5042 5448
operand                   0(18)        based           fixed bin(3,0)           array level 2 in structure "macro_instruction"
                                                                                  packed packed unaligned dcl 2531 in procedure
                                                                                  "interpreter" set ref 2742 7642
operand_base                    000106 automatic       pointer                  dcl 44 in procedure "ext_code_generator" set ref 76*
                                                                                  10-24 10-25 9-61 9-63 9-76 9-76 9-80 9-91 632 652
                                                                                  653 771 795 978 994 1004 1017 1056 1067 1085 1102
                                                                                  1142 1157 1172 1187 1235 1246 1258 1290 1306 1307
                                                                                  1394 1470 1488 1507 1525 1538 1592 1598 1604 1610
                                                                                  1636 1756 1796 1916 1989 1989 1995 1995 2160 2167
                                                                                  2173 2203 2207 2226 2287 2293 2313 2622 2660 2666
                                                                                  2671 2679 2683 2690 2822 2824 3016 3035 3053 3061
                                                                                  3070 3091 3101 3103 3128 3166 3178 3178 3189 3272
                                                                                  3283 3309 3333 3342 3373 3373 3378 3378 3406 3406
                                                                                  3416 3416 3425 3425 3425 3425 3478 3548 3582 3587
                                                                                  3594 3610 3611 3665 3665 3669 3748 3761 3762 3799
                                                                                  3812 3828 3841 3843 3887 3910 3914 3932 3932 3934
                                                                                  3944 3951 3959 3965 3978 3985 4016 4022 4025 4028
                                                                                  4035 4038 4041 4045 4056 4112 4119 4145 4145 4399
                                                                                  4420 4561 4566 4644 4645 4646 4650 4651 4673 4685
                                                                                  4687 4689 4689 4694 4705 4727 4728 4729 4776 4822
                                                                                  4891 4898 4921 4926 4926 4927 4950 4950 4955 4975
                                                                                  5004 5158 5183 5242 5384 5449 5513 5556 5556 5556
                                                                                  5558 5558 5600 5609 5662 5698 5703 5727 6030 6033
                                                                                  6051 6051 6118 6121 6122 6196 6240 6246 6361 6719
                                                                                  6953 6957 6959 6978 7021 7125 7173 7194 7204 7234
                                                                                  7234 7234 7234 7234 7234 7234 7234 7249 7294 7307
                                                                                  7325 7332 7387 7421 7465 7517 7539 7582 7690 7691
                                                                                  7692 7762 7763 7806 7889 8002 8003 8004 8031 8032
                                                                                  8033 8056 8057 8137 8141 8141 8141 8228 8236 8303
                                                                                  8307 8316 8411 8659 8663 8700 8792 8793 8826 8830
                                                                                  8838 8881 8892 8977 8978 9007 9007 9009 9009 9023
                                                                                  9046 9065 9065 9106 9163 9174 9195 9218 9250 9298
                                                                                  9362 9370 9371 9388 9392 9411 9421 9430 9479 9480
                                                                                  9482 9496 9504 9543 9582 9588 9602 9605 9614 9617
                                                                                  9692 9698 9718 9721 9727 9730 9747 9749 9822 9829
                                                                                  9829 9831 9844 9845 9929 9966 10023 10035 10036
                                                                                  10077 10085 10088 10123 10180 10202 10207 10215
                                                                                  10216 10226 10227 10239 10259 10280 10283 10308
                                                                                  10315 10420 10424 10428 10432 10575 10579 10583
                                                                                  10588 10903 11000 11026 11044 11049
operand_base              2            based           pointer                  level 2 in structure "shared_globals" dcl 53
                                                                                  in procedure "ext_code_generator" ref 76
operand_index             7            based           fixed bin(18,0)          array level 4 dcl 58 set ref 7642*
operand_max_len          35            based           fixed bin(19,0)          level 2 in structure "shared_globals" dcl 53
                                                                                  in procedure "ext_code_generator" ref 71
operand_max_len                 000115 automatic       fixed bin(19,0)          dcl 45 in procedure "ext_code_generator" set ref 71*
                                                                                  10-20 10-29 10-29 4569 4571 4571
operand_type              0(09)        based           fixed bin(4,0)           level 2 in structure "array_ref" packed packed
                                                                                  unaligned dcl 1-155 in procedure
                                                                                  "ext_code_generator" set ref 2672* 8839*
operand_type              0(09)        based           fixed bin(4,0)           level 2 in structure "label" packed packed unaligned
                                                                                  dcl 1-530 in procedure "ext_code_generator" set
                                                                                  ref 2315* 3311
operand_type              0(09)        based           fixed bin(4,0)           level 2 in structure "symbol" packed packed
                                                                                  unaligned dcl 1-844 in procedure
                                                                                  "ext_code_generator" set ref 980* 1269* 1274*
                                                                                  1298* 1300* 1387* 1424* 1489* 1508* 1539* 1766*
                                                                                  2684* 2691* 3035 9941 10098
operand_type              0(09)        based           fixed bin(4,0)           level 2 in structure "temporary" packed packed
                                                                                  unaligned dcl 1-1005 in procedure
                                                                                  "ext_code_generator" set ref 4778*
operand_type              0(09)        based           fixed bin(4,0)           level 2 in structure "constant" packed packed
                                                                                  unaligned dcl 1-256 in procedure
                                                                                  "ext_code_generator" set ref 9-82*
operand_type              0(09)        based           fixed bin(4,0)           level 2 in structure "node" packed packed unaligned
                                                                                  dcl 1-63 in procedure "ext_code_generator" ref
                                                                                  5384 5398 7697 7728 7808 8035 8042 9263
operand_type              0(09)        based           fixed bin(4,0)           level 2 in structure "char_constant" packed packed
                                                                                  unaligned dcl 1-316 in procedure
                                                                                  "ext_code_generator" set ref 2661*
operands                  6            based           structure                array level 3 dcl 58
opnd                                   parameter       fixed bin(18,0)          dcl 6225 in procedure "base_man_load_pr" ref 6219
                                                                                  6239
opnd                                   parameter       fixed bin(18,0)          dcl 4391 in procedure "copy" set ref 4386 4393*
opnd                                   parameter       fixed bin(18,0)          dcl 11036 in procedure "effective_operand" ref 11031
                                                                                  11041
opnd                                   parameter       fixed bin(18,0)          dcl 7120 in procedure "get_eaq_name" ref 7115 7123
opnd                                   parameter       fixed bin(18,0)          dcl 7455 in procedure "check_negative" ref 7450 7462
                                                                                  7462 7465
opnd                                   parameter       fixed bin(18,0)          dcl 9540 in procedure "one_word_dt" ref 9534 9543
opnd                                   parameter       fixed bin(18,0)          dcl 6353 in procedure "base_man_load_pr_value" ref
                                                                                  6348 6360
opnd                                   parameter       fixed bin(18,0)          dcl 9038 in procedure "get_cat_lengths" ref 9029
                                                                                  9046
opnd                                   parameter       fixed bin(18,0)          dcl 4456 in procedure "get_operand" ref 4450 4460
                                                                                  4460 4462 4462
opno                                   parameter       fixed bin(17,0)          dcl 5542 ref 5535 5545
options                  11            based           structure                level 2 in structure "subprogram" dcl 1-753
                                                                                  in procedure "ext_code_generator"
options                 113            based           structure                level 2 in structure "shared_globals" dcl 53
                                                                                  in procedure "ext_code_generator"
orq                             000454 constant        fixed bin(18,0)          initial dcl 22-16 set ref 9186* 9194* 9291*
os                              000112 automatic       pointer                  dcl 939 set ref 1307* 1308 1309 1310 1311 1312 1394*
                                                                                  1395 1397 1415
other_sym                       000132 automatic       fixed bin(18,0)          dcl 940 set ref 1306* 1307 1392* 1393 1394 1397*
                                                                                  1414
own_sub                         003424 automatic       pointer                  dcl 7227 set ref 7232* 7234* 7252 7270
p                               004162 automatic       pointer                  dcl 9359 in procedure "check_arg_list" set ref 9370*
                                                                                  9371 9371 9371 9392* 9393 9394 9394 9398 9402
                                                                                  9421* 9428 9430 9430 9436 9438 9442 9449
p                               004032 automatic       pointer                  dcl 8972 in procedure "continue_cat" set ref 8977*
                                                                                  8984 8994 8997 8998 8998 9000 9013 9013
p                               000100 automatic       pointer                  dcl 6192 in procedure "flush_base" set ref 6196*
                                                                                  6197 6199 6199 6199 6206* 6212 6212 6213 6213
p                               000114 automatic       pointer                  dcl 7321 in procedure "save_logical_temps" set ref
                                                                                  7332* 7333 7335 7337* 7338 7341 7341 7350 7350
                                                                                  7353
p                               003130 automatic       pointer                  dcl 5585 in procedure "m_a" set ref 5587* 5589 5592
                                                                                  5594 5594 5594 5598 5600 5601 5603 5603 5607 5609
                                                                                  5610 5621 5626 5631* 5633 5633 5635 5638 5638 5639
                                                                                  5639 5640 5640 5640 5641 5642 5643
p                               000102 automatic       pointer                  dcl 6712 in procedure "flush_xr" set ref 6719* 6720
                                                                                  6724
p                               000102 automatic       pointer                  dcl 2308 in procedure "create_rel_constant" set ref
                                                                                  2313* 2315 2316 2317 2317 2317
p                               003510 automatic       pointer                  dcl 7580 in procedure "alloc_label" set ref 7582*
                                                                                  7584 7585
p                               003550 automatic       pointer                  dcl 7687 in procedure "next_subscript" set ref 7692*
                                                                                  7697 7699 7728
p                               004244 automatic       pointer                  dcl 9541 in procedure "one_word_dt" set ref 9543*
                                                                                  9544 9544 9544 9546 9546 9546 9546 9549 9549
p                               003412 automatic       pointer                  dcl 7186 in procedure "also_in_reg" set ref 7204*
                                                                                  7206 7209 7209
p                               004712 automatic       pointer                  dcl 11039 in procedure "effective_operand" set ref
                                                                                  11044* 11045 11045 11048 11049* 11051 11051 11051
p                               003422 automatic       pointer                  dcl 7226 in procedure "use_eaq" set ref 7249* 7250
                                                                                  7252 7252 7252 7256* 7257 7261 7261 7270 7270 7270
                                                                                  7273
p                               000100 automatic       pointer                  dcl 6654 in procedure "xr_man_load_any_xr" set ref
                                                                                  6658* 6659 6661 6681 6685 6688 6688* 6691* 6696
p                               003010 automatic       pointer                  dcl 5002 in procedure "allocate_dynamic_temp" set
                                                                                  ref 5004* 5006 5013 5014
p                               000102 automatic       pointer                  dcl 5180 in procedure "emit_temp_store" set ref
                                                                                  5183* 5185 5185* 5188 5188 5190
p                               004056 automatic       pointer                  dcl 9042 in procedure "get_cat_lengths" set ref
                                                                                  9046* 9048* 9063 9065 9065 9078 9078 9082
p                               003314 automatic       pointer                  dcl 6950 in procedure "flush_ref" set ref 6953* 6954
                                                                                  6954 6954 6957* 6957 6958 6959* 6960 6962
p                               003170 automatic       pointer                  dcl 6230 in procedure "base_man_load_pr" set ref
                                                                                  6240* 6244 6244 6246 6246 6250 6250* 6253 6260
                                                                                  6261 6262 6263 6279 6279 6279 6279 6279 6279* 6287
                                                                                  6333 6334
p                               004144 automatic       pointer                  dcl 9313 in procedure "set_itp_addr" set ref 9316*
                                                                                  9321 9323 9325 9326 9331 9331 9331 9334
p                               003326 automatic       pointer                  dcl 6973 in procedure "flush_simple_ref" set ref
                                                                                  6978* 6980 6999 7006
p                               003206 automatic       pointer                  dcl 6358 in procedure "base_man_load_pr_value" set
                                                                                  ref 6361* 6372 6372* 6377 6380 6382* 6384
p                               003454 automatic       pointer                  dcl 7456 in procedure "check_negative" set ref 7465*
                                                                                  7466 7466 7468 7469
p                               000100 automatic       pointer                  dcl 9908 in procedure "make_symbol_descriptor" set
                                                                                  ref 9929* 9936 9936 9941 9944 9948 9950* 9964 9966
                                                                                  9973 9973 9975 9975 10043
p                                      parameter       pointer                  dcl 858 in procedure "set_address_offset" ref 852
                                                                                  868 869 871 874
p                               003364 automatic       pointer                  dcl 7061 in procedure "eaq_man_load_a_or_q" set ref
                                                                                  7065* 7066 7070 7075 7100 7100* 7103*
p                               000104 automatic       pointer                  dcl 6101 in procedure "base_man_load_VLA" set ref
                                                                                  6118* 6119 6121 6122 6124 6161
p                               002716 automatic       pointer                  dcl 4747 in procedure "create_temp" set ref 4776*
                                                                                  4778 4779 4779 4781 4781 4781 4783 4784 4788 4789
                                                                                  4792 4794 4796*
p                               003056 automatic       pointer                  dcl 5221 in procedure "put_word" set ref 5242* 5244
                                                                                  5246 5246* 5248* 5251 5253 5255 5255 5260 5260*
                                                                                  5262 5262*
p                               003572 automatic       pointer                  dcl 7756 in procedure "finish_subscript" set ref
                                                                                  7806* 7808 7810 8031* 8051 8053 8054 8055 8056
                                                                                  8082 8087* 8186 8186 8204 8204 8213
p                               003104 automatic       pointer                  dcl 5428 in procedure "emit_eis" set ref 5510* 5511
                                                                                  5513* 5513 5516 5516*
p                               000100 automatic       pointer                  dcl 1659 in procedure "alloc_external" set ref 1665*
                                                                                  1667 1669 1675 1680 1682 1682 1684 1686 1694 1694
                                                                                  1696 1698 1705 1705 1708 1708 1711 1711 1715 1715
                                                                                  1715 1718 1729 1731 1733 1734
p                               000626 automatic       pointer                  dcl 2352 in procedure "interpreter" set ref 2660*
                                                                                  2661 2662 2663 2663 2664 2665 2666 2668 2671* 2672
                                                                                  2673 2674 2674 2674 2675 2676 2677 2679 2680 2683*
                                                                                  2684 2685 2686 2686 2686 2687 2690* 2691 2692 2693
                                                                                  2694 2695 2696 2913* 2919 2921 2924 3053* 3054
                                                                                  3054 3061* 3063 3065 3065 3068 3070 3070 3073 3075
                                                                                  3309* 3311 3314 3594* 3595 3601 3610* 3611* 3611
                                                                                  3613 3613 3615 3645* 3649 3649 3653 3655 3661 3662
                                                                                  3669* 3670 3670 3670 3748* 3750 3753 3753 3761
                                                                                  3766 3779 3781 3781 3786 3789 3791 3791 3799* 3800
                                                                                  3800 3803 3805* 3812* 3813 3813 3813 3813 3813
                                                                                  3818 3820* 3828* 3832 3837 3837 3841 3844 3914*
                                                                                  3916 3919 3919 3922 3922 3922 3922 3922 3944*
                                                                                  3945* 3978* 3979 3980* 4045* 4047 4047 4049 4056*
                                                                                  4058 4060 4399* 4400 4400 4400 4400 4420* 4421
                                                                                  4423 4423 4424* 4427 4429 4429 4430*
p                               000100 automatic       pointer                  dcl 5143 in procedure "emit_c_a_var" set ref 5157*
                                                                                  5158* 5161 5166*
p                               000100 automatic       pointer                  dcl 9863 in procedure "get_char_size" set ref 9865*
                                                                                  9867 9867 9867 9870 9870 9873 9875 9875 9877 9880
                                                                                  9882 9882 9884 9887 9889 9889 9891 9894 9894
p                               004126 automatic       pointer                  dcl 9237 in procedure "make_descriptor" set ref
                                                                                  9250* 9256 9256 9256 9263 9266 9270 9272* 9289*
                                                                                  9289*
p                               004340 automatic       pointer                  dcl 10056 in procedure "make_entry_descriptor" set
                                                                                  ref 10077* 10083 10085 10098 10101 10105 10107*
                                                                                  10121 10123 10130 10130 10132 10132 10176
p                               000100 automatic       pointer                  dcl 5656 in procedure "m_a_except_xreg" set ref
                                                                                  5660* 5662 5662 5664 5681 5690 5690 5690 5710 5710
                                                                                  5714 5714 5716 5716 5731 5732 5732 5736 5739*
                                                                                  5742*
p                                      parameter       pointer                  dcl 5783 in procedure "increment_address" ref 5778
                                                                                  5788 5788 5788 5792 5792 5794 5795
p                               003776 automatic       pointer                  dcl 8867 in procedure "free_array_ref" set ref 8870*
                                                                                  8871 8873 8879 8881 8890 8892 8904
p                               003156 automatic       pointer                  dcl 5887 in procedure "make_both_addressable" set
                                                                                  ref 5891* 5893 5896 5896* 5899* 5903 5907 5909
p                               000154 automatic       pointer                  dcl 426 in procedure "code_generator" set ref 713*
                                                                                  715 716 717 718 719 720 721 722 723 724 725 727
                                                                                  729 731 731 733 733 737
p                               000102 automatic       pointer                  dcl 5282 in procedure "text_ref" set ref 5297* 5300
                                                                                  5300 5302 5304 5373 5375 5384 5384* 5384 5389 5398
p                               004070 automatic       pointer                  dcl 9102 in procedure "compute_cat_result_length"
                                                                                  set ref 9106* 9113 9114 9129 9132
p                                      parameter       pointer                  dcl 843 in procedure "assign_address_offset" ref 837
                                                                                  848 848
p                               002634 automatic       pointer                  dcl 4557 in procedure "create_proc_frame" set ref
                                                                                  4566* 4576 4579 4580 4581 4582
p                               000114 automatic       pointer                  dcl 5751 in procedure "m_a_check_large_address" set
                                                                                  ref 5755* 5758 5768 5770 5772
p                               003342 automatic       pointer                  dcl 7017 in procedure "flush_addr" set ref 7021*
                                                                                  7023 7030
p                               000102 automatic       pointer                  dcl 7512 in procedure "reset" set ref 7517* 7518
                                                                                  7518
p                               003000 automatic       pointer                  dcl 4972 in procedure "assign_dynamic_temp" set ref
                                                                                  4975* 4977 4978 4979 4980 4982 4982 4983 4983 4985
                                                                                  4986
p                               004574 automatic       pointer                  dcl 10806 in procedure "name_assign" set ref 10820*
                                                                                  10821 10822 10825 10833* 10838 10841 10842
p1                              004034 automatic       pointer                  dcl 8972 in procedure "continue_cat" set ref 8978*
                                                                                  8986*
p1                              000102 automatic       pointer                  dcl 5657 in procedure "m_a_except_xreg" set ref
                                                                                  5662* 5664* 5666 5671 5671 5671 5674 5676 5679
                                                                                  5679 5688 5693 5695 5698* 5698 5700 5703* 5703
                                                                                  5705 5707 5714 5716 5719 5721 5721 5727* 5727 5729
                                                                                  5731 5736 5739* 5742*
p1                                     parameter       pointer                  dcl 43 in procedure "ext_code_generator" ref 40 68
p1                              003612 automatic       pointer                  dcl 8023 in procedure "finish_subscript" set ref
                                                                                  8032* 8035 8038
p1                              000116 automatic       pointer                  dcl 5751 in procedure "m_a_check_large_address" set
                                                                                  ref 5756* 5764 5764 5764
p2                                     parameter       pointer                  dcl 43 in procedure "ext_code_generator" ref 40 69
p2                              003614 automatic       pointer                  dcl 8023 in procedure "finish_subscript" set ref
                                                                                  8033* 8042 8045
packed                    0(07) 000117 automatic       bit(1)                   level 4 in structure "descriptor" packed packed
                                                                                  unaligned dcl 9912 in procedure
                                                                                  "make_symbol_descriptor" set ref 9948* 9973
packed                    0(07) 000321 automatic       bit(1)                   initial array level 2 in structure
                                                                                  "descriptor_type_word" packed packed unaligned
                                                                                  dcl 552 in procedure "code_generator" set ref 552*
packed                    0(07) 004354 automatic       bit(1)                   level 4 in structure "descriptor" packed packed
                                                                                  unaligned dcl 10060 in procedure
                                                                                  "make_entry_descriptor" set ref 10105* 10130
packed                    0(07) 004135 automatic       bit(1)                   level 4 in structure "descriptor" packed packed
                                                                                  unaligned dcl 9241 in procedure "make_descriptor"
                                                                                  set ref 9270*
packed_pointer                         based           pointer                  packed unaligned dcl 10198 set ref 10220* 10231*
parameter                11(04)        based           bit(1)                   level 4 packed packed unaligned dcl 1-844 set ref
                                                                                  1249 1295 3065 3070 3166 3959 5705 5736 7706
parent                    7            based           fixed bin(18,0)          level 2 in structure "symbol" packed packed unsigned
                                                                                  unaligned dcl 1-844 in procedure
                                                                                  "ext_code_generator" set ref 5698 5703 6954 6957
parent                   11(18)        based           fixed bin(18,0)          level 2 in structure "array_ref" packed packed
                                                                                  unsigned unaligned dcl 1-155 in procedure
                                                                                  "ext_code_generator" set ref 3070 5148 5158 5255
                                                                                  5502 5513 5600 5662 6033 6121 6246 8056 8837* 9065
                                                                                  9065
parm_desc_ptrs                         based           structure                level 1 dcl 515
parm_desc_ptrsp                 000214 automatic       pointer                  dcl 438 set ref 3736 3738 4278* 4279 11023* 11024
                                                                                  11025 11026
passed_as_arg             0(28)        based           bit(1)                   level 4 in structure "char_constant" packed packed
                                                                                  unaligned dcl 1-316 in procedure
                                                                                  "ext_code_generator" ref 796
passed_as_arg             0(28)        based           bit(1)                   level 5 in structure "symbol" packed packed
                                                                                  unaligned dcl 1-844 in procedure
                                                                                  "ext_code_generator" set ref 1361
passed_as_arg             0(28)        based           bit(1)                   level 4 in structure "constant" packed packed
                                                                                  unaligned dcl 1-256 in procedure
                                                                                  "ext_code_generator" ref 772
pointer_count             0(27)        based           fixed bin(9,0)           level 3 packed packed unsigned unaligned dcl 18-23
                                                                                  set ref 1800* 1800 1801 1803 1812 1823 2017* 2030
                                                                                  2123*
pointer_offsets                        based           structure                array level 2 dcl 18-23 set ref 1812 2024
polish                                 based           fixed bin(18,0)          array dcl 474 set ref 1285 1682 1684 1688 1688* 1694
                                                                                  1696 1700 1703* 1705 1711 1733* 1734* 2933 2933
                                                                                  2939* 2939* 2945 3541 3705 3708 3708 10389 10402
                                                                                  10403 10404 10511 10522 10523 10524 10678 10678
polish_base                            based           pointer                  level 2 in structure "shared_globals" dcl 53
                                                                                  in procedure "ext_code_generator" ref 77
polish_base                     000110 automatic       pointer                  dcl 44 in procedure "ext_code_generator" set ref 77*
                                                                                  630 631 632 1285 1669 1669 1669 1675 1675 1678
                                                                                  1682 1684 1688 1688 1694 1696 1700 1703 1705 1711
                                                                                  1715 1718 1729 1733 1734 2933 2933 2939 2939 2945
                                                                                  3541 3705 3708 3708 5389 5390 10389 10402 10403
                                                                                  10404 10511 10522 10523 10524 10662 10678 10678
                                                                                  10819 10820 10838
polish_max_len           34            based           fixed bin(19,0)          level 2 in structure "shared_globals" dcl 53
                                                                                  in procedure "ext_code_generator" ref 72
polish_max_len                  000116 automatic       fixed bin(19,0)          dcl 45 in procedure "ext_code_generator" set ref 72*
                                                                                  1727 1746 1746 5381 5381 5381 10835
pos                             004637 automatic       bit(18)                  dcl 10939 in procedure "generate_definition" set ref
                                                                                  10951* 10952 10953 10959 10969 10980
pos                                    parameter       fixed bin(18,0)          dcl 9314 in procedure "set_itp_addr" ref 9307 9317
position                        004511 automatic       fixed bin(15,0)          dcl 10658 set ref 10667* 10668* 10668 10670*
pr_no                                  based           bit(3)                   level 2 in structure "itp" packed packed unaligned
                                                                                  dcl 16-18 in procedure "code_generator" ref 827
pr_no                     2     001516 automatic       bit(3)                   array level 3 in structure "arg_list" packed packed
                                                                                  unaligned dcl 2602 in procedure "interpreter" set
                                                                                  ref 9323*
prev                      1            based           pointer                  level 2 in structure "proc_frame" packed packed
                                                                                  unaligned dcl 2510 in procedure "interpreter" set
                                                                                  ref 3640 4445 4580*
prev                                   parameter       fixed bin(18,0)          dcl 4914 in procedure "thread_temp" ref 4908 4916
                                                                                  4926 4927
prev                            002670 automatic       fixed bin(18,0)          dcl 4662 in procedure "get_temp" set ref 4680* 4687
                                                                                  4689 4693*
prev_temp                       002745 automatic       fixed bin(18,0)          dcl 4846 set ref 4887* 4893* 4897* 4904*
print_message          1530            based           entry variable           level 2 dcl 53 ref 10-29 9-45 1317 1338 1518 1550
                                                                                  1582 1636 1705 1708 1711 1715 1740 1746 1886 1889
                                                                                  2207 2817 2839 2869 2879 2978 2981 2993 2999 3019
                                                                                  3040 3105 3108 3133 3140 3154 3251 3311 3322 3396
                                                                                  3535 3568 3681 3989 3993 4025 4038 4052 4063 4301
                                                                                  4323 4355 4378 4571 4768 4856 5381 5472 5603 5710
                                                                                  5955 6377 6625 6671 6685 7087 7142 7169 7215 7372
                                                                                  7701 7713 7719 8104 8111 8127 8797 8875 9371 9415
                                                                                  9461 9584 9590 9596 9606 9618 9694 9700 9706 9712
                                                                                  9722 9731 9831 9867 9894 10683 10878
print_message_op         30            based           entry variable           level 2 dcl 58 ref 3622 3636
proc_frame                             based           structure                level 1 dcl 2510 set ref 4567 4579*
procedure                12(02)        based           bit(1)                   level 3 packed packed unaligned dcl 13-10 set ref
                                                                                  731*
profile                  11(20)        based           bit(1)                   level 4 packed packed unaligned dcl 1-753 ref 749
profile_entry                          based           structure                level 1 dcl 17-3 ref 1579 7617
profile_offset           12     000122 automatic       fixed bin(18,0)          level 2 dcl 61 set ref 702*
profile_pos                     000172 automatic       fixed bin(18,0)          dcl 428 set ref 1573* 1576* 7607 7610* 7610 7614
                                                                                  7614 7617* 7617
profile_size             55            based           fixed bin(17,0)          level 2 dcl 53 ref 1577 1579
profile_start                   000171 automatic       fixed bin(18,0)          dcl 428 set ref 587* 702 1573* 4219 4237 7602 10247
psap                            000120 automatic       pointer                  dcl 939 set ref 1525* 1526 1527 1527
psize                           004061 automatic       fixed bin(18,0)          dcl 9044 set ref 9065* 9066 9069
psp                             000116 automatic       pointer                  dcl 939 set ref 1507* 1508 1509 1510 1510 1510 1510
                                                                                  1510 1512 1513 1516* 1526
pt                                     parameter       pointer                  dcl 7061 in procedure "eaq_man_load_a_or_q" ref 7056
                                                                                  7065
pt                                     parameter       pointer                  dcl 9313 in procedure "set_itp_addr" ref 9307 9316
pt                                     parameter       pointer                  dcl 5585 in procedure "m_a" ref 5580 5587
pt                                     parameter       pointer                  dcl 9863 in procedure "get_char_size" ref 9856 9865
pt                                     parameter       pointer                  dcl 10298 in procedure "list_initialize" set ref
                                                                                  10295 10312 10317* 10320 10321* 10321 10325
pt                                     parameter       pointer                  dcl 5656 in procedure "m_a_except_xreg" ref 5650
                                                                                  5660
pt                                     parameter       pointer                  dcl 8867 in procedure "free_array_ref" ref 8861 8870
pt                                     parameter       pointer                  dcl 5751 in procedure "m_a_check_large_address" ref
                                                                                  5746 5755
pt                                     parameter       pointer                  dcl 10854 in procedure "initialize_common" ref 10851
                                                                                  10869
pt                                     parameter       pointer                  dcl 1659 in procedure "alloc_external" ref 1643 1665
pt                                     parameter       pointer                  dcl 10270 in procedure "initialize" ref 10267 10276
pt                                     parameter       pointer                  dcl 2221 in procedure "get_array_size" ref 2215 2225
pt                                     parameter       pointer                  dcl 6652 in procedure "xr_man_load_any_xr" ref 6647
                                                                                  6658
pt                                     parameter       pointer                  dcl 5276 in procedure "text_ref" ref 5271 5297
pt1                                    parameter       pointer                  dcl 5751 ref 5746 5756
pthru                                  parameter       fixed bin(18,0)          dcl 4411 ref 4406 4415
ptr                                                    builtin function         dcl 569 ref 2707
put_in_profile            3(01)        based           bit(1)                   level 3 packed packed unaligned dcl 1-721 ref 3708
put_in_symtab             0(34)        based           bit(1)                   level 3 packed packed unaligned dcl 1-844 set ref
                                                                                  1361 2251
q                               000550 automatic       pointer                  dcl 821 in procedure "relocate_itp_list" set ref
                                                                                  825* 827 827 831
q                               000104 automatic       pointer                  dcl 5282 in procedure "text_ref" set ref 5299* 5300*
                                                                                  5305* 5308 5316 5318 5328 5330 5336 5341 5342*
                                                                                  5344 5364
qls                             000417 constant        fixed bin(18,0)          initial dcl 22-16 set ref 9641* 9652* 9661* 9666*
                                                                                  9756*
qrl                             000443 constant        fixed bin(18,0)          initial dcl 22-16 set ref 3772 9634* 9642* 9655*
                                                                                  9662* 9668* 9776* 9792* 9808*
qrs                                    constant        fixed bin(18,0)          initial dcl 22-16 ref 3834
r                               003331 automatic       fixed bin(18,0)          dcl 6974 in procedure "flush_simple_ref" set ref
                                                                                  6982* 6983 6984 6986 6987 6987 6990 6990 6991
                                                                                  6991*
r                               003430 automatic       fixed bin(18,0)          dcl 7230 in procedure "use_eaq" set ref 7245* 7247
                                                                                  7249 7252 7263 7265 7266 7276 7277*
r                               000101 automatic       fixed bin(18,0)          dcl 7121 in procedure "get_eaq_name" set ref 7128*
                                                                                  7130 7132 7132*
r                                      parameter       fixed bin(18,0)          dcl 7511 in procedure "reset" ref 7506 7514
rand                                   parameter       fixed bin(18,0)          dcl 5056 in procedure "emit_single" ref 5051 5062
                                                                                  5068 5078
rand                            003021 automatic       fixed bin(18,0)          dcl 5032 in procedure "emit_inst" set ref 5042* 5044
rand                                   parameter       fixed bin(18,0)          dcl 5217 in procedure "put_word" set ref 5211 5225
                                                                                  5238 5242* 5258
rands                                  based           fixed bin(18,0)          array dcl 472 set ref 632 652 653 771 795 978 994
                                                                                  1004 1017 1056 1067 1085 1102 1142 1157 1172 1187
                                                                                  1235 1246 1258 1290 1306 1307 1394 1470 1488 1507
                                                                                  1525 1538 1592 1598 1604 1610 1636 1756 1796 1916
                                                                                  1989 1989 1995 1995 2160 2167 2173 2203 2207 2226
                                                                                  2287 2293 2313 2622 2660 2666 2671 2679 2683 2690
                                                                                  2822 2824 3016 3035 3053 3061 3070 3091 3101 3103
                                                                                  3128 3166 3178 3178 3189 3272 3283 3309 3333 3342
                                                                                  3373 3373 3378 3378 3406 3406 3416 3416 3425 3425
                                                                                  3425 3425 3478 3548 3582 3587 3594 3610 3611 3665
                                                                                  3665 3669 3748 3761 3762 3799 3812 3828 3841 3843
                                                                                  3887 3910 3914 3932 3932 3934 3944 3951 3959 3965
                                                                                  3978 3985 4016 4022 4025 4028 4035 4038 4041 4045
                                                                                  4056 4112 4119 4145 4145 4399 4420 4561* 4566 4644
                                                                                  4645 4646 4650 4651 4673 4685 4687 4689 4689 4694
                                                                                  4705 4727 4728 4729 4776 4822 4891 4898 4921 4926
                                                                                  4926 4927 4950 4950 4955 4975 5004 5158 5183 5242
                                                                                  5384 5449 5513 5556 5556 5556 5558 5558 5600 5609
                                                                                  5662 5698 5703 5727 6030 6033 6051 6051 6118 6121
                                                                                  6122 6196 6240 6246 6361 6719 6953 6957 6959 6978
                                                                                  7021 7125 7173 7194 7204 7234 7234 7234 7234 7234
                                                                                  7234 7234 7234 7249 7294 7307 7325 7332 7387 7421
                                                                                  7465 7517 7539 7582 7690 7691 7692 7762 7763 7806
                                                                                  7889 8002 8003 8004 8031 8032 8033 8056 8057 8137
                                                                                  8141 8141 8141 8228 8236 8303 8307 8316 8411 8659
                                                                                  8663 8700 8792 8793 8826 8830 8838 8881 8892 8977
                                                                                  8978 9007 9007 9009 9009 9023 9046 9065 9065 9106
                                                                                  9163 9174 9195 9218 9250 9298 9362 9370 9371 9388
                                                                                  9392 9411 9421 9430 9479 9480 9482 9496 9504 9543
                                                                                  9582 9588 9602 9605 9614 9617 9692 9698 9718 9721
                                                                                  9727 9730 9747 9749 9822 9829 9829 9831 9844 9845
                                                                                  9929 9966 10023 10035 10036 10077 10085 10088
                                                                                  10123 10180 10202 10207 10215 10216 10226 10227
                                                                                  10239 10259 10280 10283 10308 10315 10420 10424
                                                                                  10428 10432 10575 10579 10583 10588 10903 11000
                                                                                  11026 11044 11049
rank                                                   builtin function         dcl 569 ref 4060
rc_a                            000606 constant        bit(6)                   initial packed unaligned dcl 20-6 in procedure
                                                                                  "assign_storage" ref 1091 1373 1513 1544 2107 2107
rc_a                                   constant        bit(6)                   initial packed unaligned dcl 23-6 in procedure
                                                                                  "interpreter" ref 4167 4177 4225 4243 4289 4986
                                                                                  5321 5332 5366 5643 7608
rc_a_dp                                constant        bit(36)                  initial packed unaligned dcl 14-23 ref 10769 10774
rc_dp                                  constant        bit(18)                  initial packed unaligned dcl 14-6 ref 10633 10779
                                                                                  10786 11011
rc_dp_dp                        000601 constant        bit(36)                  initial packed unaligned dcl 14-23 ref 10776 10976
                                                                                  10977
rc_is15                         056066 constant        bit(6)                   initial packed unaligned dcl 20-6 in procedure
                                                                                  "assign_storage" ref 1101 1218 1450 2105 2105
rc_is15                                constant        bit(6)                   initial packed unaligned dcl 23-6 in procedure
                                                                                  "interpreter" ref 6078 7615
rc_is18                                constant        bit(6)                   initial packed unaligned dcl 23-6 in procedure
                                                                                  "interpreter" ref 4220 4238 7603
rc_is18                                constant        bit(18)                  initial packed unaligned dcl 14-6 in procedure
                                                                                  "code_generator" ref 827
rc_lp15                                constant        bit(6)                   initial packed unaligned dcl 23-6 in procedure
                                                                                  "interpreter" ref 6076
rc_lp15                                constant        bit(6)                   initial packed unaligned dcl 20-6 in procedure
                                                                                  "assign_storage" ref 1407 1495
rc_lp18                         056067 constant        bit(6)                   initial packed unaligned dcl 20-6 ref 1988 1988
rc_nlb                                 constant        bit(18)                  initial packed unaligned dcl 14-6 ref 10783
rc_t                                   constant        bit(6)                   initial packed unaligned dcl 11-6 in procedure
                                                                                  "create_constant" ref 9-84
rc_t                                   constant        bit(18)                  initial packed unaligned dcl 14-6 in procedure
                                                                                  "code_generator" ref 656 831 10627
rc_t                                   constant        bit(6)                   initial packed unaligned dcl 23-6 in procedure
                                                                                  "interpreter" ref 2665 3739 3741 4171 4181 4288
rc_t                                   constant        bit(6)                   initial packed unaligned dcl 21-6 in procedure
                                                                                  "create_rel_constant" ref 2316
rc_t                            056070 constant        bit(6)                   initial packed unaligned dcl 20-6 in procedure
                                                                                  "assign_storage" ref 983 1006 1283 1413 2137 2137
real_image                             based           float bin(27)            dcl 2472 set ref 2637*
real_mode                       000736 constant        fixed bin(4,0)           initial dcl 3-106 set ref 2638* 9544
reallocate_char_string                 constant        fixed bin(14,0)          initial dcl 2433 ref 8954
reallocated                            parameter       bit(1)                   dcl 8922 set ref 8911 8946* 8952* 8954
ref_count                 6            based           fixed bin(17,0)          level 2 in structure "temporary" packed packed
                                                                                  unaligned dcl 1-1005 in procedure
                                                                                  "ext_code_generator" set ref 3670* 3670 4400* 4400
                                                                                  4423 4423* 4645* 4825 4825* 4854 7252 8141* 8141
                                                                                  8664* 8664 8884 8884* 8895 8895*
ref_count                 6            based           fixed bin(17,0)          level 2 in structure "array_ref" packed packed
                                                                                  unaligned dcl 1-155 in procedure
                                                                                  "ext_code_generator" set ref 2680* 4429 4429* 7234
                                                                                  8855* 8873
referenced                0(27)        based           bit(1)                   level 5 packed packed unaligned dcl 1-530 set ref
                                                                                  2317*
referenced_executable
                          0(29)        based           bit(1)                   level 4 packed packed unaligned dcl 1-530 set ref
                                                                                  2317* 3272
reg                             003155 automatic       fixed bin(3,0)           dcl 5886 in procedure "make_both_addressable" set
                                                                                  ref 5909* 5910
reg                                    parameter       fixed bin(18,0)          dcl 7567 in procedure "lock_eaq" ref 7562 7569
reg                             003471 automatic       fixed bin(18,0)          dcl 7534 in procedure "store" set ref 7554* 7555
reg_number                             parameter       fixed bin(18,0)          dcl 7488 set ref 7483 7490 7493 7498*
regno                           003444 automatic       fixed bin(18,0)          dcl 7366 in procedure "load" set ref 7393* 7396 7397
                                                                                  7400 7400 7400 7404 7409 7412 7421*
regno                           000101 automatic       fixed bin(18,0)          dcl 7511 in procedure "reset" set ref 7514* 7516
                                                                                  7517 7522 7523
regno                           003410 automatic       fixed bin(18,0)          dcl 7186 in procedure "also_in_reg" set ref 7191*
                                                                                  7196 7198 7198 7199 7199 7204 7208
regno                           003377 automatic       fixed bin(18,0)          dcl 7152 in procedure "in_reg" set ref 7157* 7159*
                                                                                  7163 7164 7165 7167 7175 7177
regno                           000617 automatic       fixed bin(18,0)          dcl 2348 in procedure "interpreter" set ref 3159*
                                                                                  3160 3450* 3456 3459 3480* 3482 3485 3485 3490
                                                                                  3490 3499
regs                                   based           bit(18)                  array level 2 in structure "macro_regs_inst" packed
                                                                                  packed unaligned dcl 2567 in procedure
                                                                                  "interpreter" ref 3326 3693
regs                                   parameter       structure                array level 1 dcl 5926 in procedure "get_free_reg"
                                                                                  ref 5921
rel                                                    builtin function         dcl 569 ref 1361 1361 1705 1705 1708 1708 1711 1711
                                                                                  1715 1715 1812 1816 1886 1886 1889 1889 2024 2025
                                                                                  2136 2136 2251 2251 2708 3738 3766 3779 4850 5151
                                                                                  5389 5594 5594 5603 5603 5640 5640 5690 5690 5710
                                                                                  5710 6130 6659 7066 8235 8235 8276 8689 8689 8808
                                                                                  8871 9867 9867 9894 9894 10093 10312 10325 10825
                                                                                  10875 10897 10897
rel_code                        000333 constant        bit(18)                  initial array dcl 10941 ref 10978
rel_constant                           constant        fixed bin(4,0)           initial dcl 3-120 ref 2315 3311 5398
relation                  0(22)        based           bit(3)                   array level 2 in structure "macro_if_inst" packed
                                                                                  packed unaligned dcl 2559 in procedure
                                                                                  "interpreter" ref 3212
relation                        000610 automatic       fixed bin(18,0)          dcl 2348 in procedure "interpreter" set ref 3212*
                                                                                  3213
reloc                                  based           structure                array level 1 dcl 2592 in procedure "interpreter"
reloc                     2(12)        based           bit(6)                   level 2 in structure "char_constant" packed packed
                                                                                  unaligned dcl 1-316 in procedure
                                                                                  "ext_code_generator" set ref 2665*
reloc                     2(12)        based           bit(6)                   level 2 in structure "array_ref" packed packed
                                                                                  unaligned dcl 1-155 in procedure
                                                                                  "ext_code_generator" set ref 8854*
reloc                     2(12)        based           bit(6)                   level 2 in structure "temporary" packed packed
                                                                                  unaligned dcl 1-1005 in procedure
                                                                                  "ext_code_generator" set ref 4983 4986*
reloc                     2(12)        based           bit(6)                   level 2 in structure "symbol" packed packed
                                                                                  unaligned dcl 1-844 in procedure
                                                                                  "ext_code_generator" set ref 983* 1106* 1283*
                                                                                  1407* 1413* 1450* 1495* 1513* 1544* 1759* 8854
reloc                     2(12)        based           bit(6)                   level 2 in structure "header" packed packed
                                                                                  unaligned dcl 1-436 in procedure
                                                                                  "ext_code_generator" set ref 1026* 1091* 1101*
                                                                                  1106 1218* 1759
reloc                     2(12)        based           bit(6)                   level 2 in structure "constant" packed packed
                                                                                  unaligned dcl 1-256 in procedure
                                                                                  "ext_code_generator" set ref 9-84*
reloc                     2(12)        based           bit(6)                   level 2 in structure "node" packed packed unaligned
                                                                                  dcl 1-63 in procedure "ext_code_generator" set ref
                                                                                  5146 5253 5500 5639 5643* 6126 6213*
reloc                                  based           bit(36)                  array dcl 495 in procedure "code_generator" set ref
                                                                                  10627* 10633* 10769* 10774* 10776* 10779* 10783*
                                                                                  10786* 10976* 10977* 10978*
reloc                     2(12)        based           bit(6)                   level 2 in structure "label" packed packed unaligned
                                                                                  dcl 1-530 in procedure "ext_code_generator" set
                                                                                  ref 1006* 2316*
reloc                     1            based           bit(18)                  array level 3 in structure "saved_lib_reloc_list"
                                                                                  packed packed unaligned dcl 509 in procedure
                                                                                  "code_generator" set ref 656*
reloc_halfs                            based           structure                array level 1 dcl 491
reloc_hold                2(06)        based           bit(6)                   level 2 in structure "temporary" packed packed
                                                                                  unaligned dcl 1-1005 in procedure
                                                                                  "ext_code_generator" set ref 4983*
reloc_hold                2(06)        based           bit(6)                   level 2 in structure "node" packed packed unaligned
                                                                                  dcl 1-63 in procedure "ext_code_generator" set ref
                                                                                  5639* 6213
relocatable             113(24)        based           bit(1)                   level 4 in structure "shared_globals" packed packed
                                                                                  unaligned dcl 53 in procedure "ext_code_generator"
                                                                                  ref 729
relocatable              12(01)        based           bit(1)                   level 3 in structure "object_map" packed packed
                                                                                  unaligned dcl 13-10 in procedure "code_generator"
                                                                                  set ref 729*
relocate_itp                    000540 automatic       bit(1)                   dcl 790 set ref 792* 807
relocation_base                 000112 automatic       pointer                  dcl 44 in procedure "ext_code_generator" set ref 78*
                                                                                  645 665 673 827 831 1988 2105 2107 2137 3739 3741
                                                                                  4167 4171 4177 4181 4220 4225 4238 4243 4288 4289
                                                                                  5146 5253 5321 5332 5366 5500 6076 6078 6126 7603
                                                                                  7608 7615 11011
relocation_base          12            based           pointer                  level 2 in structure "shared_globals" dcl 53
                                                                                  in procedure "ext_code_generator" ref 78
repeat                    1(06)        based           fixed bin(30,0)          level 2 in structure "create_init_entry" packed
                                                                                  packed unsigned unaligned dcl 18-61 in procedure
                                                                                  "code_generator" set ref 10567* 10572*
repeat                                 parameter       fixed bin(35,0)          dcl 10534 in procedure "list_assign_value" ref 10531
                                                                                  10572 10595
reserve                         003254 automatic       bit(14)                  dcl 6842 set ref 6847* 6849 6850
reserved                110(01) 001334 automatic       bit(1)                   array level 4 in structure "machine_state" packed
                                                                                  packed unaligned dcl 2479 in procedure
                                                                                  "interpreter" set ref 5910* 6338* 6609 6610* 6612*
                                                                                  6625 6862* 6893 6895* 6904 6910*
reserved                 37(01) 001334 automatic       bit(1)                   array level 4 in structure "machine_state" packed
                                                                                  packed unaligned dcl 2479 in procedure
                                                                                  "interpreter" set ref 6855* 6884 6886* 7045*
reserved                  0(01)        parameter       bit(1)                   array level 3 in structure "regs" packed packed
                                                                                  unaligned dcl 5926 in procedure "get_free_reg" ref
                                                                                  5933 5942
reserved                  6     001334 automatic       bit(1)                   array level 3 in structure "machine_state" dcl 2479
                                                                                  in procedure "interpreter" set ref 6881* 7087 7087
                                                                                  7090 7092 7569*
restore_prs               0(32)        based           bit(1)                   level 3 packed packed unaligned dcl 1-530 ref 3283
result                          001324 automatic       bit(72)                  dcl 2461 in procedure "interpreter" set ref 2637
                                                                                  2638* 2640 2641* 2643 2644* 2646* 2647* 2826*
                                                                                  2828* 3693* 3695*
result                                 parameter       fixed bin(18,0)          dcl 9099 in procedure "compute_cat_result_length"
                                                                                  ref 9093 9106
result                          004016 automatic       fixed bin(18,0)          dcl 8926 in procedure "start_cat" set ref 8943*
                                                                                  8944* 8945* 8958* 8959* 8960* 8961*
ret_lab                                parameter       label variable           local dcl 4497 ref 4475 4507
retain                    1(21)        based           bit(1)                   level 3 packed packed unaligned dcl 27-12 set ref
                                                                                  11019*
return                    3            based           fixed bin(18,0)          level 2 in structure "proc_frame" dcl 2510
                                                                                  in procedure "interpreter" set ref 2919 2986 3661
                                                                                  4545*
return                                 parameter       fixed bin(18,0)          dcl 4519 in procedure "setup_call" ref 4514 4545
reverse                                                builtin function         dcl 569 ref 10815
right                     0(18)        based           fixed bin(17,0)          level 2 in structure "half" packed packed unaligned
                                                                                  dcl 2598 in procedure "interpreter" ref 5318 5328
                                                                                  5364
right                     0(18)        based           fixed bin(17,0)          array level 2 in structure "text_halfs" packed
                                                                                  packed unaligned dcl 487 in procedure
                                                                                  "code_generator" set ref 4176* 4180* 4224* 4242*
                                                                                  4286* 7607*
right_rel                 0(30)        based           bit(6)                   array level 2 packed packed unaligned dcl 2592 set
                                                                                  ref 3741* 4177* 4181* 4225* 4243* 4289* 7608*
round_inst                      000465 constant        fixed bin(18,0)          initial array dcl 22-16 ref 3490 3492 4001
rounded                  34     001334 automatic       bit(1)                   level 2 dcl 2479 set ref 3485 3494* 3997 4002* 7161*
                                                                                  7263 7281* 7343 7446* 7500* 7541
rscan                           000552 automatic       fixed bin(18,0)          dcl 822 set ref 824* 825 827 831*
s                               004650 automatic       pointer                  dcl 10991 in procedure "gen_entry_defs" set ref
                                                                                  11000* 11001 11009 11028
s                               000102 automatic       pointer                  dcl 10303 in procedure "list_initialize" set ref
                                                                                  10315* 10317 10317* 10319
s                               003662 automatic       pointer                  dcl 7996 in procedure "add_pointer" set ref 8002*
                                                                                  8003
s                               000102 automatic       pointer                  dcl 6101 in procedure "base_man_load_VLA" set ref
                                                                                  6121* 6124* 6130 6136 6138 6142 6142 6142 6142
                                                                                  6149 6158 6181 6181 6181
s                               000236 automatic       pointer                  dcl 2283 in procedure "create_automatic_integer" set
                                                                                  ref 2287* 2288 2289 2289 2289 2289 2290 2291
s                               004164 automatic       pointer                  dcl 9359 in procedure "check_arg_list" set ref 9362*
                                                                                  9364 9379 9379* 9381 9387 9411
s                               004512 automatic       pointer                  dcl 10659 in procedure "gen_linkage" set ref 10662*
                                                                                  10663 10663 10663 10667 10668 10668 10670 10678
                                                                                  10678 10678* 10678* 10678 10681 10681 10681 10683
s                               003766 automatic       pointer                  dcl 8821 in procedure "create_array_ref" set ref
                                                                                  8838* 8840 8841 8842 8844* 8852 8853 8854
s                               003132 automatic       pointer                  dcl 5585 in procedure "m_a" set ref 5600* 5619
s                               000114 automatic       pointer                  dcl 1839 in procedure "create_storage_entry" set ref
                                                                                  1796* 1797 1797* 1801* 1803 1816 1819 1916* 1928
                                                                                  1936 1938 1941 2004* 2005 2007* 2010 2010 2014
                                                                                  2016 2018 2025
s                               004114 automatic       pointer                  dcl 9212 in procedure "copy_array_desc_template" set
                                                                                  ref 9215* 9216
s                               000104 automatic       pointer                  dcl 5990 in procedure "base_man_load_any_pr" set ref
                                                                                  6030* 6031 6031 6033 6033 6036
s                               004102 automatic       pointer                  dcl 9150 in procedure "get_param_char_size" set ref
                                                                                  9156* 9157 9169 9169* 9177 9184
s                               000212 automatic       pointer                  dcl 2221 in procedure "get_array_size" set ref 2225*
                                                                                  2226 2228 2228 2230 2232 2237 2251 2251 2251 2251
s                               000630 automatic       pointer                  dcl 2352 in procedure "interpreter" set ref 3762*
                                                                                  3763* 3773* 3778*
s                               004610 automatic       pointer                  dcl 10854 in procedure "initialize_common" set ref
                                                                                  10903* 10904 10904* 10906
s                               000122 automatic       pointer                  dcl 939 in procedure "assign_storage" set ref 978*
                                                                                  980 981 982 983 987 987 989 1004* 1005 1006 1007
                                                                                  1056* 1057* 1057 1057 1058 1102* 1103 1104 1105
                                                                                  1106 1132* 1246* 1247 1249 1249 1255 1257 1258
                                                                                  1261 1263 1265 1267 1269 1272 1274 1277 1279 1281
                                                                                  1282 1283 1285 1295 1295 1298 1298 1300 1302 1306
                                                                                  1320 1321 1322 1324 1324 1327 1336 1344 1344 1349
                                                                                  1351 1353 1354* 1356 1356 1358 1360 1361 1361 1361
                                                                                  1361 1361 1361 1361 1367 1369 1369 1370 1373 1375
                                                                                  1377 1378 1382 1387 1395 1402 1403 1404 1404* 1405
                                                                                  1407 1408 1412 1413 1414 1415 1424 1426 1426* 1428
                                                                                  1428 1432 1435 1437 1447 1449 1450 1452 1453 1454
                                                                                  1456 1461 1474 1475 1610* 1611* 1611 1611 1612
                                                                                  1756* 1757 1758 1759 1760 1762 1762 1763 1763 1765
                                                                                  1765 1766 1767 1768 1769 1769* 1771 2173* 2174*
                                                                                  2175* 2175 2175 2177
s                               003742 automatic       pointer                  dcl 8790 in procedure "start_subscript" set ref
                                                                                  8792* 8793
s                               000120 automatic       pointer                  dcl 10456 in procedure "list_initialize_symbol" set
                                                                                  ref 10479* 10484 10484 10487 10488 10488 10494
                                                                                  10494 10497 10497 10500 10504 10507 10509 10511
                                                                                  10516
s                               003574 automatic       pointer                  dcl 7756 in procedure "finish_subscript" set ref
                                                                                  7762* 7763 7767 7825 7837 7840 7844 7846 7847 7873
                                                                                  7873 7881 7881 7881 7884 7903 7910 7956 7956 7962
                                                                                  8056* 8082* 8213 8213 8222 8223 8223 8225 8228
                                                                                  8235 8235 8253 8260 8260 8261 8265 8292* 8294 8294
                                                                                  8297 8307 8325 8325* 8335 8337 8347 8359 8361 8369
                                                                                  8424 8436 8540 8542
s                               004420 automatic       pointer                  dcl 10194 in procedure "initialize_static" set ref
                                                                                  10216* 10217 10217 10219 10219 10227* 10228 10228
                                                                                  10230 10230
s                               003552 automatic       pointer                  dcl 7687 in procedure "next_subscript" set ref 7690*
                                                                                  7691 7706
s                               004452 automatic       pointer                  dcl 10334 in procedure "initialize_symbol" set ref
                                                                                  10357* 10363 10364 10364 10369 10371 10375 10375
                                                                                  10378 10382 10385 10387 10389 10395
s                                      parameter       pointer                  dcl 2200 in procedure "relocate_error" ref 2197 2203
                                                                                  2203 2207
s                               004436 automatic       pointer                  dcl 10273 in procedure "initialize" set ref 10283*
                                                                                  10284 10284* 10286
saved_cat_address               001331 automatic       structure                level 1 dcl 2467 set ref 8984* 9023
saved_lib_list                         based           structure                level 1 dcl 503 set ref 648
saved_lib_reloc_list                   based           structure                level 1 dcl 509
sbfx1                                  constant        fixed bin(18,0)          initial dcl 22-16 ref 8729
sbq                                    constant        bit(10)                  initial dcl 5286 ref 5351 5354
scalar                    1(05)        based           bit(1)                   array level 4 packed packed unaligned dcl 1-130 set
                                                                                  ref 9401* 9402* 9440 9513* 9514*
scan_called               0(07)        based           bit(1)                   level 4 packed packed unaligned dcl 2510 set ref
                                                                                  2975* 2981 3649
scan_interpreter_frame
                          0(06)        based           structure                level 3 packed packed unaligned dcl 2510
scan_proc                       000611 automatic       fixed bin(18,0)          dcl 2348 set ref 2948* 2950* 2959 2962 2971* 2972
section_name                           parameter       char                     packed unaligned dcl 2149 ref 2144 2207
seg_def                         000250 automatic       bit(18)                  dcl 467 set ref 10646 10969* 10972
seg_name                        004524 automatic       bit(18)                  dcl 10699 set ref 10716* 10734* 10754* 10756* 10772
seg_ptr                   1            based           bit(18)                  level 2 packed packed unaligned dcl 12-25 set ref
                                                                                  10772*
segname                         000311 automatic       char(32)                 dcl 520 in procedure "code_generator" set ref 590*
                                                                                  10640*
segname                   2(18)        based           bit(18)                  level 2 in structure "definition" packed packed
                                                                                  unaligned dcl 26-12 in procedure
                                                                                  "generate_definition" set ref 10972*
segname_def                            based           structure                level 1 dcl 24-3
separate_static          12(04)        based           bit(1)                   level 3 packed packed unaligned dcl 13-10 set ref
                                                                                  727*
shared_globals                         based           structure                level 1 dcl 53
shared_struc_ptr                000100 automatic       pointer                  dcl 43 set ref 68* 70 71 72 75 76 77 78 10-20 10-22
                                                                                  10-23 10-23 10-29 9-45 9-87 9-87 9-89 9-89 9-91
                                                                                  9-93 561 584 592 593 593 599 600 601 605 611 623
                                                                                  624 625 626 630 637 689 706* 729 737 751 792 967
                                                                                  967 977 987 993 993 993 994 1313 1317 1338 1361
                                                                                  1392 1518 1550 1577 1579 1582 1591 1591 1591 1592
                                                                                  1634 1634 1636 1667 1674 1705 1708 1711 1715 1727
                                                                                  1729 1733 1734 1736 1736 1740 1746 1797 1886 1889
                                                                                  1999 2047 2048 2115 2128 2128 2134 2139 2159 2159
                                                                                  2159 2160 2207 2251 2621 2621 2622 2666 2817 2826
                                                                                  2839 2869 2879 2978 2981 2993 2999 3019 3040 3105
                                                                                  3108 3133 3140 3154 3251 3311 3322 3396 3535 3568
                                                                                  3681 3685 3686 3703 3705 3708 3763 3989 3993 4025
                                                                                  4029 4038 4042 4050 4050 4052 4063 4134 4163 4170
                                                                                  4174 4180 4301 4323 4355 4378 4559 4561 4562 4562
                                                                                  4566 4567 4567 4569 4571 4723 4726 4727 4768 4856
                                                                                  5381 5381 5387 5387 5389 5390 5472 5603 5710 5955
                                                                                  6377 6625 6671 6685 7087 7142 7169 7215 7372 7701
                                                                                  7713 7719 7937 8104 8111 8127 8369 8797 8875 9371
                                                                                  9415 9461 9478 9479 9584 9590 9596 9606 9618 9694
                                                                                  9700 9706 9712 9722 9731 9822 9831 9845 9846 9867
                                                                                  9894 9970 10015 10035 10127 10172 10201 10238
                                                                                  10258 10683 10819 10835 10837 10837 10838 10878
                                                                                  10999
shift                           004264 automatic       fixed bin(17,0)          dcl 9577 in procedure "rhs_fld" set ref 9626* 9634
                                                                                  9637
shift                           004304 automatic       fixed bin(17,0)          dcl 9685 in procedure "lhs_fld" set ref 9755* 9756
                                                                                  9756
short                    13            based           fixed bin(18,0)          array level 2 dcl 2510 set ref 2993 2993 2995* 3003
shorten_stack                   000351 constant        fixed bin(14,0)          initial dcl 2433 set ref 4096*
shorten_stack_mask              000346 constant        bit(14)                  initial dcl 2443 set ref 4090*
shorten_stack_protect_ind       000347 constant        fixed bin(14,0)          initial dcl 2433 set ref 4092*
single_target                          based           bit(36)                  array dcl 10470 in procedure
                                                                                  "list_initialize_symbol" set ref 10575*
single_target                          based           bit(36)                  array dcl 10347 in procedure "initialize_symbol" set
                                                                                  ref 10420*
size                      0(12) 000321 automatic       fixed bin(23,0)          initial array level 2 in structure
                                                                                  "descriptor_type_word" packed packed unaligned
                                                                                  dcl 552 in procedure "code_generator" set ref 552*
size                                                   builtin function         dcl 4748 in procedure "create_temp" ref 4751 4761
size                      0(12) 004354 automatic       fixed bin(23,0)          level 3 in structure "descriptor" packed packed
                                                                                  unaligned dcl 10060 in procedure
                                                                                  "make_entry_descriptor" set ref 10108* 10112*
size                            002656 automatic       fixed bin(18,0)          dcl 4611 in procedure "assign_temp" set ref 4614*
                                                                                  4627* 4638* 4639* 4639 4639 4642*
size                      7            based           fixed bin(24,0)          array level 3 in structure "dimension" dcl 1-383
                                                                                  in procedure "ext_code_generator" set ref 2240
                                                                                  2259* 2262* 2264* 7779 7780 7797 8346 8390 8506
                                                                                  8508 8514 8514 8516 8612 8625 8640 9986 10143
size                                                   builtin function         dcl 9927 in procedure "make_symbol_descriptor" ref
                                                                                  10022 10022
size                                                   builtin function         dcl 9-33 in procedure "create_constant" ref 9-74
                                                                                  9-74
size                                   parameter       fixed bin(18,0)          dcl 845 in procedure "assign_address_offset" ref 837
                                                                                  848
size                      0(12) 000117 automatic       fixed bin(23,0)          level 3 in structure "descriptor" packed packed
                                                                                  unaligned dcl 9912 in procedure
                                                                                  "make_symbol_descriptor" set ref 9951* 9955*
size                                                   builtin function         dcl 4720 in procedure "get_temp_node" ref 4723 4723
size                                                   builtin function         dcl 569 in procedure "code_generator" ref 648 722
                                                                                  723 733 737 1033 1035 1120 1487 1487 1506 1506
                                                                                  1524 1524 1537 1537 1561 1576 1577 1577 1579 1983
                                                                                  2286 2286 2312 2312 2659 2659 2670 2670 2682 2682
                                                                                  2689 2689 3706 4567 7610 7617 8825 8825 9387 9387
                                                                                  10624
size                                   based           fixed bin(35,0)          level 2 in structure "init_info" dcl 25-30
                                                                                  in procedure "initialize_common" set ref 10914*
size                                   parameter       fixed bin(18,0)          dcl 902 in procedure "get_size_in_bits" ref 897 908
size                      7            based           fixed bin(24,0)          level 2 in structure "temporary" dcl 1-1005
                                                                                  in procedure "ext_code_generator" set ref 4685
                                                                                  4788* 4861 4891 9082
size                                   parameter       fixed bin(18,0)          dcl 860 in procedure "set_address_offset" ref 852
                                                                                  865
size                      0(12) 004135 automatic       fixed bin(23,0)          level 3 in structure "descriptor" packed packed
                                                                                  unaligned dcl 9241 in procedure "make_descriptor"
                                                                                  set ref 9273*
size                                   parameter       fixed bin(18,0)          dcl 883 in procedure "get_size_in_words" ref 878 890
                                                                                  893
skip                            000612 automatic       fixed bin(18,0)          dcl 2348 set ref 3958* 3959* 3959 3969
source                          001326 automatic       bit(72)                  dcl 2461 set ref 2822* 2826
source_line_base         16            based           pointer                  level 2 dcl 53 ref 593
source_list                            based           structure                array level 1 dcl 2-31 set ref 593
sp                                     defined         bit(3)                   dcl 525 in procedure "code_generator" set ref 1046
                                                                                  1093 1220 1311 1321 1377 1452 1512 1543 2675 2687
                                                                                  3922 4784 5763 5821 5830 6465 6616* 6628*
sp                                     parameter       pointer                  dcl 9475 in procedure "find_arg_desc" ref 9472 9479
                                                                                  9484 9489
ssp                             000124 automatic       pointer                  dcl 939 set ref 1488* 1489 1490 1491 1491 1491 1491
                                                                                  1491 1493 1494 1495 1496 1496* 1631*
st                                     based           structure                level 1 dcl 10808
sta                             000536 constant        fixed bin(18,0)          initial dcl 22-16 set ref 7325*
stack                           000640 automatic       fixed bin(18,0)          array dcl 2359 set ref 2748 2756 2757* 2757 2758*
                                                                                  2782 2814 2822 2824 2828* 2837 2890 2891* 2891
                                                                                  2892* 2894* 2952 3016 3019* 3032 3035 3040* 3053
                                                                                  3061 3088 3101 3103 3105* 3108* 3128 3133* 3166
                                                                                  3172* 3177 3188 3206 3209 3249 3272 3283 3296 3303
                                                                                  3309 3311* 3314 3315 3330 3339 3373 3373 3378 3378
                                                                                  3387 3406 3406 3416 3416 3416* 3416* 3425 3425
                                                                                  3425 3425 3433 3434* 3434 3435* 3443 3447 3464
                                                                                  3469 3474 3523* 3523 3528* 3528 3534 3535* 3538*
                                                                                  3548 3582 3582 3587 3590 3593 3610 3665 3665 3693
                                                                                  3695* 3700* 3726 3736 3748 3750 3789 3799 3803
                                                                                  3812 3818 3841 3843 3857 3881 3882 3885 3887 3887
                                                                                  3898 3910 3914 3916 3931 3934* 3940 3944 3948*
                                                                                  3951 3955 3956 3959 3963 3965 3965 3985 4008 4014
                                                                                  4022 4025 4025 4028 4029* 4035 4038 4038 4041
                                                                                  4042* 4045 4056 4112 4118 4141 4276 4376 4378
                                                                                  4382* 4418 4420 4468 4596 5044 5448 7582 7642 7690
                                                                                  7692 7701* 7701* 7713* 7713* 7719* 7719* 7762 7806
                                                                                  7814 7818 7888 7918* 7926* 7933* 8031 8032 8033
                                                                                  8093 8094 8104* 8104* 8111* 8111* 8127* 8137 8140
                                                                                  8148 8161 8169 8170 8193 8197 8792 8795 8797* 8934
                                                                                  8977 8978 9023 9361 9362 9370 9371* 9371* 9392
                                                                                  9415* 9421 9461* 9461* 9581 9587 9593 9691 9697
                                                                                  9703 9709
stack_extended          160     001334 automatic       bit(1)                   level 2 dcl 2479 set ref 4084 4099* 5011*
stack_indirect            0(19)        based           bit(1)                   level 3 in structure "temporary" packed packed
                                                                                  unaligned dcl 1-1005 in procedure
                                                                                  "ext_code_generator" set ref 4868 4874* 4978* 9078
stack_indirect            0(19)        based           bit(1)                   level 3 in structure "symbol" packed packed
                                                                                  unaligned dcl 1-844 in procedure
                                                                                  "ext_code_generator" set ref 1295 1327 1375 3786
stack_indirect            0(19)        based           bit(1)                   level 3 in structure "node" packed packed unaligned
                                                                                  dcl 1-63 in procedure "ext_code_generator" ref
                                                                                  5671 6199 9331
stack_size                      004655 automatic       fixed bin(18,0)          dcl 10992 set ref 10997* 11005
stack_sub                              parameter       fixed bin(18,0)          dcl 7577 ref 7574 7582
standard                 12(03)        based           bit(1)                   level 3 packed packed unaligned dcl 13-10 set ref
                                                                                  731*
standard_bits             0(25)        based           structure                level 3 in structure "temporary" packed packed
                                                                                  unaligned dcl 1-1005 in procedure
                                                                                  "ext_code_generator"
standard_bits             0(25)        based           structure                level 4 in structure "symbol" packed packed
                                                                                  unaligned dcl 1-844 in procedure
                                                                                  "ext_code_generator"
standard_bits             0(25)        based           structure                level 4 in structure "header" packed packed
                                                                                  unaligned dcl 1-436 in procedure
                                                                                  "ext_code_generator"
standard_bits             0(25)        based           structure                level 3 in structure "char_constant" packed packed
                                                                                  unaligned dcl 1-316 in procedure
                                                                                  "ext_code_generator"
standard_bits             0(25)        based           structure                level 4 in structure "label" packed packed unaligned
                                                                                  dcl 1-530 in procedure "ext_code_generator"
standard_bits             0(25)        based           structure                level 3 in structure "constant" packed packed
                                                                                  unaligned dcl 1-256 in procedure
                                                                                  "ext_code_generator"
standard_bits             0(25)        based           structure                level 3 in structure "node" packed packed unaligned
                                                                                  dcl 1-63 in procedure "ext_code_generator"
star_extent_function      0(16)        based           bit(1)                   level 2 packed packed unaligned dcl 1-753 ref 3826
                                                                                  4124
star_extents             11(09)        based           bit(1)                   level 3 packed packed unaligned dcl 1-844 set ref
                                                                                  1361 2228 3813 7873 8213 8294
star_symbol_link         13     000122 automatic       fixed bin(18,0)          level 2 dcl 61 set ref 703*
start                                  parameter       fixed bin(18,0)          dcl 9560 in procedure "generate_mask" ref 9555 9565
start                           004270 automatic       fixed bin(18,0)          dcl 9578 in procedure "rhs_fld" set ref 9617* 9618
                                                                                  9618 9624* 9624 9625 9626 9630 9637* 9637* 9641
                                                                                  9652 9652
start                           000166 automatic       fixed bin(18,0)          dcl 2154 in procedure "relocate" set ref 2158* 2163
                                                                                  2163*
start                                  parameter       fixed bin(18,0)          dcl 765 in procedure "alloc_constants" ref 760 770
start                                  parameter       fixed bin(18,0)          dcl 10270 in procedure "initialize" ref 10267 10278
                                                                                  10278
start                           004312 automatic       fixed bin(18,0)          dcl 9687 in procedure "lhs_fld" set ref 9730* 9731
                                                                                  9731 9737* 9737 9738 9740 9749 9755 9760* 9760*
                                                                                  9772* 9776 9776
start                                  parameter       fixed bin(18,0)          dcl 789 in procedure "alloc_char_constants" ref 784
                                                                                  792 794
start_offset                    000105 automatic       fixed bin(18,0)          dcl 10305 set ref 10312* 10325
statement                              based           structure                level 1 dcl 1-721 set ref 3706
statement_function                     constant        fixed bin(4,0)           initial dcl 3-120 ref 1269
static                    0(34)        based           bit(1)                   level 4 in structure "header" packed packed
                                                                                  unaligned dcl 1-436 in procedure
                                                                                  "ext_code_generator" ref 1030 1117 1198 1215 1805
                                                                                  2105 2111
static                   11(01)        based           bit(1)                   level 4 in structure "symbol" packed packed
                                                                                  unaligned dcl 1-844 in procedure
                                                                                  "ext_code_generator" set ref 1437 1447 5695 5764
                                                                                  6151
static                    0(19)        based           bit(1)                   level 3 in structure "create_entry" packed packed
                                                                                  unaligned dcl 18-23 in procedure "code_generator"
                                                                                  set ref 2111*
static_length             7(18)        based           bit(18)                  level 2 in structure "virgin_linkage_header" packed
                                                                                  packed unaligned dcl 12-52 in procedure
                                                                                  "code_generator" set ref 10624*
static_length             6(18)        based           bit(18)                  level 2 in structure "object_map" packed packed
                                                                                  unaligned dcl 13-10 in procedure "code_generator"
                                                                                  set ref 723*
static_offset             6            based           bit(18)                  level 2 packed packed unaligned dcl 13-10 set ref
                                                                                  722*
stmnt_func               10(33)        based           bit(1)                   level 4 packed packed unaligned dcl 1-844 set ref
                                                                                  1267
storage                                based           fixed bin(17,0)          array dcl 10-15 set ref 10-24*
storage_class             0(33)        based           structure                level 3 in structure "header" packed packed
                                                                                  unaligned dcl 1-436 in procedure
                                                                                  "ext_code_generator" ref 1757
storage_class            11            based           structure                level 3 in structure "symbol" packed packed
                                                                                  unaligned dcl 1-844 in procedure
                                                                                  "ext_code_generator" set ref 1757
storage_info              0(25)        based           structure                level 3 in structure "label" packed packed unaligned
                                                                                  dcl 1-530 in procedure "ext_code_generator"
storage_info             13            based           structure                array level 2 in structure "subprogram" dcl 1-753
                                                                                  in procedure "ext_code_generator" set ref 1011*
storage_info              0(25)        based           structure                level 3 in structure "symbol" packed packed
                                                                                  unaligned dcl 1-844 in procedure
                                                                                  "ext_code_generator"
storage_info              0(25)        based           structure                level 3 in structure "header" packed packed
                                                                                  unaligned dcl 1-436 in procedure
                                                                                  "ext_code_generator"
store_base                      000513 constant        fixed bin(18,0)          initial array dcl 22-16 set ref 3791 3837 3890*
                                                                                  3969* 6580 6601 6617 6629
store_inst                      000537 constant        fixed bin(18,0)          initial array dcl 22-16 set ref 3844 7265 7345 7541
                                                                                  8460* 8463* 8551* 8580* 8601* 8609* 8621* 8633*
                                                                                  8636* 9177 9196 9292*
store_no_round_inst             000470 constant        fixed bin(18,0)          initial array dcl 22-16 ref 7263 7343 7543
store_packed_base               000444 constant        fixed bin(18,0)          initial array dcl 22-16 ref 3763 3781
stq                             000550 constant        fixed bin(18,0)          initial dcl 22-16 set ref 3773 9188*
string                                                 builtin function         dcl 569 in procedure "code_generator" set ref 1757
                                                                                  1757 1767* 1767 2259 4540* 4779* 4779* 5034 7006*
                                                                                  7547 7728 7777 8387 8506 8514 8527 8587 8616 8628
                                                                                  9319* 9982 10139
string                    0(09)        based           char                     level 2 in structure "acc" packed packed unaligned
                                                                                  dcl 10800 in procedure "name_assign" set ref 10822
                                                                                  10842*
string                                 parameter       char                     dcl 10694 in procedure "compile_link" set ref 10691
                                                                                  10710 10728 10733 10739 10745 10752*
string_length            10            based           fixed bin(17,0)          array level 4 dcl 58 set ref 7650*
string_ptr               12            based           pointer                  array level 4 dcl 58 set ref 7651*
stringrange              11(17)        based           bit(1)                   level 4 packed packed unaligned dcl 1-753 ref 8089
stz                             000522 constant        fixed bin(18,0)          initial dcl 22-16 set ref 8073* 8419*
subprogram                             based           structure                level 1 dcl 1-753
subprogram_type           0(05)        based           fixed bin(3,0)           level 2 packed packed unaligned dcl 1-753 ref 3183
                                                                                  6499 6538 9825
subscript_mpy                          constant        fixed bin(18,0)          initial dcl 2449 set ref 8777*
subscriptrange           11(16)        based           bit(1)                   level 4 packed packed unaligned dcl 1-753 ref 7728
substr                                                 builtin function         dcl 569 set ref 1757* 2010 3021 3047 4028* 4029 4029
                                                                                  4041* 4042 4042 4060 4982 5161 5260 5331* 5487*
                                                                                  5487 5489* 5494* 5494 5516 5638 5676 6022* 6057*
                                                                                  6059* 6142* 6212* 6301 6301 6377 6380* 6384* 6811*
                                                                                  6812* 6850 7045 9565* 9749 10733 10745 10815
substr_size                     003623 automatic       fixed bin(18,0)          dcl 8025 set ref 8124* 8125 8140* 8141 8141 8141
                                                                                  8178* 8179* 8239
sxl0                                   constant        fixed bin(18,0)          initial dcl 22-16 ref 6726 8074
sym                             000127 automatic       fixed bin(18,0)          dcl 940 in procedure "assign_storage" set ref 977*
                                                                                  977* 978* 1003* 1003* 1004* 1055* 1055* 1056*
                                                                                  1244* 1245 1246 1288 1290 1291 1468 1470 1471
                                                                                  1474* 1609* 1609* 1610* 1755* 1755* 1756* 2172*
                                                                                  2172* 2173*
sym                             000240 automatic       fixed bin(18,0)          dcl 2284 in procedure "create_automatic_integer" set
                                                                                  ref 2286* 2287 2293 2294 2296
sym                                    parameter       pointer                  dcl 8287 in procedure "finish_subscript" ref 8280
                                                                                  8292
sym                                    parameter       fixed bin(18,0)          dcl 8820 in procedure "create_array_ref" ref 8815
                                                                                  8837 8838
sym                                    parameter       pointer                  dcl 9150 in procedure "get_param_char_size" ref 9138
                                                                                  9156
sym                             004617 automatic       fixed bin(18,0)          dcl 10855 in procedure "initialize_common" set ref
                                                                                  10902* 10902* 10903*
sym                             000620 automatic       fixed bin(18,0)          dcl 2348 in procedure "interpreter" set ref 3761*
                                                                                  3762
sym                             004440 automatic       fixed bin(18,0)          dcl 10274 in procedure "initialize" set ref 10281*
                                                                                  10281* 10283*
sym                                    parameter       pointer                  dcl 9212 in procedure "copy_array_desc_template" ref
                                                                                  9206 9215
sym                             004654 automatic       fixed bin(18,0)          dcl 10992 in procedure "gen_entry_defs" set ref
                                                                                  10999* 10999* 11000*
sym                             000116 automatic       fixed bin(18,0)          dcl 1840 in procedure "create_storage_entry" set ref
                                                                                  1794* 1794* 1796* 1915* 1915* 1916*
sym                             000104 automatic       fixed bin(18,0)          dcl 10304 in procedure "list_initialize" set ref
                                                                                  10314* 10314* 10315*
sym_pos                         000162 automatic       fixed bin(18,0)          dcl 428 set ref 587* 706* 712 725
sym_pt                                 parameter       pointer                  dcl 10443 in procedure "list_initialize_symbol" ref
                                                                                  10440 10479
sym_pt                                 parameter       pointer                  dcl 10332 in procedure "initialize_symbol" ref 10329
                                                                                  10357
symbol                                 based           structure                level 1 dcl 1-844 in procedure "ext_code_generator"
                                                                                  set ref 1487 1487 1506 1506 1524 1524 1526* 1526
                                                                                  1537 1537 2286 2286 2682 2682 2689 2689 4761 10022
                                                                                  10022
symbol                    2            based           bit(18)                  level 2 in structure "definition" packed packed
                                                                                  unaligned dcl 26-12 in procedure
                                                                                  "generate_definition" set ref 10964*
symbol                    1(17)        based           fixed bin(18,0)          array level 3 in structure "arg_desc" packed packed
                                                                                  unaligned dcl 1-130 in procedure
                                                                                  "ext_code_generator" set ref 9430 9499 9504
symbol                    0(18)        based           fixed bin(18,0)          level 2 in structure "subprogram" packed packed
                                                                                  unsigned unaligned dcl 1-753 in procedure
                                                                                  "ext_code_generator" ref 1636 2207 9831
symbol_length             7(18)        based           bit(18)                  level 2 packed packed unaligned dcl 13-10 set ref
                                                                                  725*
symbol_node                     000736 constant        fixed bin(4,0)           initial dcl 3-87 set ref 1487* 1506* 1524* 1537*
                                                                                  1667 1669 2286* 2682* 2689* 3054 3065 3333 3342
                                                                                  3750 3753 3789 3800 3803 3813 3818 3887 3916 3919
                                                                                  3965 4145 4760 4772 5671 5719 5764 6031 6244 6954
                                                                                  7270 7350 8253 9256 9331 9371 9394 9436 9506 9546
                                                                                  9873 10022* 10088 10663 11051
symbol_offset             7            based           bit(18)                  level 2 packed packed unaligned dcl 13-10 set ref
                                                                                  724*
symp                            004216 automatic       pointer                  dcl 9475 set ref 9504* 9505 9506 9506 9510 9514
symrel                          000166 automatic       fixed bin(18,0)          dcl 428 set ref 693* 706* 712 724
symtab_parameters               000122 automatic       structure                level 1 dcl 61 set ref 706 706
system_options          115            based           structure                level 3 dcl 53
t                               003354 automatic       bit(6)                   dcl 7040 in procedure "lock_tag_register" set ref
                                                                                  7042* 7045 7045 7047 7049
t                               004000 automatic       pointer                  dcl 8867 in procedure "free_array_ref" set ref 8881*
                                                                                  8882 8884 8884 8885* 8892* 8893 8895 8895 8896*
t                               002776 automatic       fixed bin(18,0)          dcl 4971 in procedure "assign_dynamic_temp" set ref
                                                                                  4974* 4975 4988
table                    11(19)        based           bit(1)                   level 4 in structure "subprogram" packed packed
                                                                                  unaligned dcl 1-753 in procedure
                                                                                  "ext_code_generator" ref 751 1255
table                   113(19)        based           bit(1)                   level 5 in structure "shared_globals" packed packed
                                                                                  unaligned dcl 53 in procedure "ext_code_generator"
                                                                                  ref 1361 2251 8369 9970 10127
tag                       0(30) 000100 automatic       bit(6)                   level 2 in structure "inst_address" packed packed
                                                                                  unaligned dcl 5860 in procedure "c_a_18" set ref
                                                                                  5871*
tag                       0(30) 000101 automatic       bit(6)                   level 2 in structure "inst_address" packed packed
                                                                                  unaligned dcl 5807 in procedure "c_a" set ref
                                                                                  5813* 5833* 5833
tag                       0(30)        based           bit(6)                   level 2 in structure "inst_address" packed packed
                                                                                  unaligned dcl 6104 in procedure
                                                                                  "base_man_load_VLA" set ref 6163* 6165* 6169*
                                                                                  6171*
tag                       1(30)        based           bit(6)                   level 3 in structure "array_ref" packed packed
                                                                                  unaligned dcl 1-155 in procedure
                                                                                  "ext_code_generator" set ref 5621* 5626* 8683*
                                                                                  8684 8696* 8697
tag                       1(30)        based           bit(6)                   level 3 in structure "node" packed packed unaligned
                                                                                  dcl 1-63 in procedure "ext_code_generator" set ref
                                                                                  5635 5642* 5903 6260 6261* 6279 6333* 6377 6380*
                                                                                  6384*
tag                       0(30)        based           bit(6)                   array level 3 in structure "instruction" packed
                                                                                  packed unaligned dcl 2581 in procedure
                                                                                  "interpreter" set ref 5096* 5235* 5319* 5365*
                                                                                  5398*
tag                       1(30)        based           bit(6)                   level 3 in structure "symbol" packed packed
                                                                                  unaligned dcl 1-844 in procedure
                                                                                  "ext_code_generator" set ref 1370* 1373* 1405*
                                                                                  1494*
tag                                    parameter       bit(6)                   dcl 7040 in procedure "lock_tag_register" ref 7035
                                                                                  7042
tag                       1(30)        based           bit(6)                   level 3 in structure "temporary" packed packed
                                                                                  unaligned dcl 1-1005 in procedure
                                                                                  "ext_code_generator" set ref 9013* 9013
tag                                    parameter       bit(6)                   dcl 5089 in procedure "emit_with_tag" ref 5084 5096
tag                       0(30) 003172 automatic       bit(6)                   level 2 in structure "inst_address" packed packed
                                                                                  unaligned dcl 6231 in procedure "base_man_load_pr"
                                                                                  set ref 6301* 6310* 6312* 6320* 6329*
tag_hold                        003173 automatic       bit(6)                   dcl 6232 set ref 6260* 6295 6301 6301 6305 6312 6324
                                                                                  6329 6333
temp                                   parameter       fixed bin(18,0)          dcl 5179 in procedure "emit_temp_store" ref 5172
                                                                                  5183
temp                            000613 automatic       fixed bin(18,0)          dcl 2348 in procedure "interpreter" set ref 2906*
                                                                                  2907* 2909* 3402* 3416* 3425* 3431 3882* 3890*
                                                                                  3956* 3969* 4060* 4061 4061
temp                            003324 automatic       fixed bin(18,0)          dcl 6972 in procedure "flush_simple_ref" set ref
                                                                                  6976* 6978 6984 7001
temp                            002671 automatic       fixed bin(18,0)          dcl 4662 in procedure "get_temp" set ref 4669* 4671
                                                                                  4673 4674 4681* 4683 4685 4687 4689 4690 4693
                                                                                  4694* 4694 4704* 4705 4706
temp                            002712 automatic       fixed bin(18,0)          dcl 4743 in procedure "create_temp" set ref 4772*
                                                                                  4774* 4776 4798
temp                            002766 automatic       fixed bin(18,0)          dcl 4939 in procedure "push_variable" set ref 4949*
                                                                                  4950 4950
temp                                   parameter       fixed bin(18,0)          dcl 4914 in procedure "thread_temp" ref 4908 4921
                                                                                  4922 4926 4927
temp                            002744 automatic       fixed bin(18,0)          dcl 4846 in procedure "free_one_temp" set ref 4850*
                                                                                  4856* 4863* 4864* 4881* 4893* 4904*
temp                            004072 automatic       fixed bin(18,0)          dcl 9103 in procedure "compute_cat_result_length"
                                                                                  set ref 9129* 9130*
temp                            004330 automatic       fixed bin(18,0)          dcl 9820 in procedure "start_subprogram" set ref
                                                                                  9842* 9842* 9843* 9844
temp                                   parameter       fixed bin(18,0)          dcl 4999 in procedure "allocate_dynamic_temp" ref
                                                                                  4992 5004 5016 5018
temp                            002700 automatic       fixed bin(18,0)          dcl 4721 in procedure "get_temp_node" set ref 4723*
                                                                                  4726* 4727 4728 4729 4732
temp                            003340 automatic       fixed bin(18,0)          dcl 7016 in procedure "flush_addr" set ref 7020*
                                                                                  7021 7026
temp                            002657 automatic       fixed bin(18,0)          dcl 4611 in procedure "assign_temp" set ref 4642*
                                                                                  4644 4645 4646 4650 4651 4655
temp                            000100 automatic       fixed bin(18,0)          dcl 5281 in procedure "text_ref" set ref 5341* 5342
temp_index                             parameter       fixed bin(18,0)          dcl 6972 in procedure "flush_simple_ref" ref 6967
                                                                                  6976
temp_index                             parameter       fixed bin(18,0)          dcl 7016 in procedure "flush_addr" ref 7011 7020
temp_ptr                               parameter       pointer                  dcl 4810 in procedure "free_temp" ref 4802 4815
temp_ptr                               parameter       pointer                  dcl 4843 in procedure "free_one_temp" ref 4837 4849
temp_ptr                               parameter       pointer                  dcl 6561 in procedure "base_man_store_temp" ref 6553
                                                                                  6568
temp_reg                        000122 automatic       fixed bin(3,0)           dcl 6562 set ref 6569* 6580 6601 6609 6610 6612 6617
                                                                                  6629
temp_size                       002747 automatic       fixed bin(18,0)          dcl 4847 set ref 4861* 4879 4881* 4891
temp_type                              constant        fixed bin(4,0)           initial dcl 3-120 ref 4752
temporary                              based           structure                level 1 dcl 1-1005 set ref 4723 4723 4728* 4751
temporary_node                  000730 constant        fixed bin(4,0)           initial dcl 3-87 set ref 3670 4400 4421 4723* 4729
                                                                                  4750 4786 4823 5674 6199 7206 7250 7333 7421 8067
                                                                                  8141 8664 8882 8893 9078 9430 9887
text_halfs                             based           structure                array level 1 dcl 487 set ref 11023
text_length               3(18)        based           bit(18)                  level 2 packed packed unaligned dcl 13-10 set ref
                                                                                  717*
text_offset                     000102 automatic       fixed bin(17,0)          dcl 5144 in procedure "emit_c_a_var" set ref 5164*
                                                                                  5166
text_offset                     003106 automatic       fixed bin(18,0)          dcl 5429 in procedure "emit_eis" set ref 5509* 5514*
                                                                                  5514 5516*
text_pos                        000157 automatic       fixed bin(18,0)          dcl 428 in procedure "code_generator" set ref 587*
                                                                                  617 621* 621 621 643 648* 648 663 698 717 775 776
                                                                                  777* 777 799* 799 799 805 806 809* 809 824 824
                                                                                  1060 1060 1060* 1134 1134 1134* 1281 1286* 1286
                                                                                  1823* 1823 1988 2030* 2030 2100 2105 2107 2128
                                                                                  2135 2139 3259 3260* 3260 3280* 3303 3303 3333
                                                                                  3342 3350 3357 3705 3750 3766 3779 3789 3803 3818
                                                                                  3887 3916 3965 3985 4155 4157 4159* 4159 4166 4167
                                                                                  4170 4171 4176 4177 4180 4181 4184 4187* 4187 4219
                                                                                  4220 4224 4225 4226* 4226 4237 4238 4242 4243
                                                                                  4244* 4244 4248 4278 4280 4284* 4284 4285 4286
                                                                                  4288 4289 4290* 4290 5020 5034 5047* 5047 5064*
                                                                                  5064 5080* 5080 5095 5096 5097 5098* 5098 5109
                                                                                  5110* 5110 5122 5124 5124 5124 5128 5128 5131*
                                                                                  5131 5146 5148 5151 5163* 5163 5164 5165 5168*
                                                                                  5168 5206 5207* 5207 5230 5235 5238 5251 5253 5255
                                                                                  5258 5262 5266 5266 5267 5267 5318 5319 5321 5330
                                                                                  5331 5332 5348 5348 5351 5351 5354 5354 5357 5357
                                                                                  5364 5365 5366 5377 5390 5393 5393 5398 5478 5479
                                                                                  5485* 5485 5494 5496 5498 5500 5502 5505 5523 5523
                                                                                  5524 5524 5527* 5527 6009 6076 6078 6091 6126 6130
                                                                                  6342 6391 6421 6440 6470 6491 6507 6530 6546 6599
                                                                                  6667 6697 6745 6759 6829 7602 7603 7607 7608 7609*
                                                                                  7609 7615 10256 10260 10260 10263* 10263
text_pos                        004656 automatic       fixed bin(18,0)          dcl 10993 in procedure "gen_entry_defs" set ref
                                                                                  11001* 11005 11009 11009 11011 11013 11016 11023
text_word                              based           bit(36)                  array dcl 2590 set ref 3259* 4278 5034* 5095* 5109*
                                                                                  5122* 5206* 5230* 5251* 5331* 5479* 5487* 5489*
this_chain                      000120 automatic       pointer                  dcl 1841 set ref 1903* 1905 1906 1920* 1921 1925*
                                                                                  1925 1926 1928 1937 1940 2072* 2072* 2073 2074*
                                                                                  2076
this_temp                       002746 automatic       fixed bin(18,0)          dcl 4846 set ref 4888* 4889 4891 4897 4898* 4898
thru                            002566 automatic       fixed bin(18,0)          dcl 4411 set ref 4415* 4417
tnz                                    constant        fixed bin(18,0)          initial dcl 2412 set ref 7416* 7441
top                             000563 automatic       fixed bin(18,0)          dcl 2329 set ref 2716* 2756 2757 2782 2783* 2783
                                                                                  2814 2815* 2815 2822 2824 2828 2952 2955 3016 3019
                                                                                  3032 3035 3040 3053 3101 3103 3105 3108 3209 3296
                                                                                  3297* 3297 3303 3304* 3304 3314 3315 3317* 3317
                                                                                  3406 3406 3416 3416 3416 3416 3425 3425 3425 3425
                                                                                  3433 3434 3434 3435 3443 3582 3593 3681 3693 3695
                                                                                  3857 3858* 3858 3948 4045 4056 4374* 4374 4376
                                                                                  4382 4417 4418 4420 4435* 4435 4460 4468 4469*
                                                                                  4469 4470 4596 4598 7692 7693 7701 7713 7719 8977
                                                                                  9023
tp                              002742 automatic       pointer                  dcl 4845 in procedure "free_one_temp" set ref 4849*
                                                                                  4850 4854 4860 4861 4868 4870 4870 4871 4872 4873
                                                                                  4873 4874
tp                              002726 automatic       pointer                  dcl 4812 in procedure "free_temp" set ref 4815* 4817
                                                                                  4822 4828 4829 4833*
tp                              000120 automatic       pointer                  dcl 6561 in procedure "base_man_store_temp" set ref
                                                                                  6568* 6571 6574 6578 6591 6616 6628
trap_ptr                  0(18)        based           bit(18)                  level 2 packed packed unaligned dcl 12-25 set ref
                                                                                  10768*
tv_offset                              parameter       fixed bin(14,0)          dcl 5000 in procedure "allocate_dynamic_temp" ref
                                                                                  4992 5009
tv_offset                              parameter       fixed bin(14,0)          dcl 5199 in procedure "emit_operator_call" ref 5194
                                                                                  5203
tv_offset                       004022 automatic       fixed bin(14,0)          dcl 8928 in procedure "start_cat" set ref 8954*
                                                                                  8956* 8960*
type                                   parameter       fixed bin(18,0)          dcl 10694 in procedure "compile_link" ref 10691
                                                                                  10754 10774
type                      1            parameter       fixed bin(18,0)          array level 2 in structure "regs" dcl 5926
                                                                                  in procedure "get_free_reg" ref 5944
type                                   parameter       fixed bin(4,0)           dcl 10-14 in procedure "create_node" ref 10-10 10-25
type                      1            based           fixed bin(17,0)          level 2 in structure "init_info" dcl 25-30
                                                                                  in procedure "initialize_common" set ref 10915*
type                                   based           bit(18)                  level 2 in structure "type_pair" packed packed
                                                                                  unaligned dcl 12-25 in procedure "code_generator"
                                                                                  set ref 10766*
type                    111     001334 automatic       fixed bin(18,0)          array level 3 in structure "machine_state" dcl 2479
                                                                                  in procedure "interpreter" set ref 3348* 3355*
                                                                                  5019* 6003 6005 6088* 6194 6339* 6366 6386* 6417
                                                                                  6419 6437* 6465* 6467* 6487 6489 6505* 6526 6528
                                                                                  6544* 6589 6591 6614 6863* 6896 6896* 6904 6907*
                                                                                  6938* 7026 7026*
type                      0(01) 000321 automatic       fixed bin(6,0)           initial array level 2 in structure
                                                                                  "descriptor_type_word" packed packed unsigned
                                                                                  unaligned dcl 552 in procedure "code_generator"
                                                                                  set ref 552*
type                     40     001334 automatic       fixed bin(18,0)          array level 3 in structure "machine_state" dcl 2479
                                                                                  in procedure "interpreter" set ref 6664 6694* 6714
                                                                                  6757* 6781 6783 6827* 6856* 6887 6887* 6931 7001
                                                                                  7001*
type_pair                              based           structure                level 1 dcl 12-25
type_ptr                               based           bit(18)                  level 2 packed packed unaligned dcl 12-21 set ref
                                                                                  10778*
type_word                       000117 automatic       structure                level 2 in structure "descriptor" dcl 9912
                                                                                  in procedure "make_symbol_descriptor" set ref
                                                                                  9941* 9945* 10013 10013
type_word                       004354 automatic       structure                level 2 in structure "descriptor" dcl 10060
                                                                                  in procedure "make_entry_descriptor" set ref
                                                                                  10098* 10102* 10170 10170
type_word                       004135 automatic       structure                level 2 in structure "descriptor" dcl 9241
                                                                                  in procedure "make_descriptor" set ref 9263* 9267*
                                                                                  9281 9281
typeless_mode                          constant        fixed bin(4,0)           initial dcl 3-106 ref 3111 3117 9544
tze                                    constant        fixed bin(18,0)          initial dcl 2412 ref 3140 3143
u                               000100 automatic       fixed bin(3,0)           dcl 884 in procedure "get_size_in_words" set ref
                                                                                  888* 890 893 893
u                               000100 automatic       fixed bin(3,0)           dcl 903 in procedure "get_size_in_bits" set ref 907*
                                                                                  908
units                                  parameter       fixed bin(3,0)           dcl 861 in procedure "set_address_offset" ref 852
                                                                                  865
units                                  parameter       fixed bin(3,0)           dcl 846 in procedure "assign_address_offset" ref 837
                                                                                  848
units                     2            based           fixed bin(3,0)           level 2 in structure "array_ref" packed packed
                                                                                  unsigned unaligned dcl 1-155 in procedure
                                                                                  "ext_code_generator" set ref 8841*
units                                  parameter       fixed bin(3,0)           dcl 884 in procedure "get_size_in_words" ref 878 888
units                     2            based           fixed bin(3,0)           level 2 in structure "symbol" packed packed unsigned
                                                                                  unaligned dcl 1-844 in procedure
                                                                                  "ext_code_generator" set ref 1057 1428 1611 1760
                                                                                  2175 2182 2232 2291* 7767 7956 8260 8369 8540 8841
                                                                                  9948 9973 9975 10105 10130 10132 10369 10375 10494
                                                                                  10497
units                     2            based           fixed bin(3,0)           level 2 in structure "header" packed packed unsigned
                                                                                  unaligned dcl 1-436 in procedure
                                                                                  "ext_code_generator" ref 1682 1694 1734
units                     2            based           fixed bin(3,0)           level 2 in structure "temporary" packed packed
                                                                                  unsigned unaligned dcl 1-1005 in procedure
                                                                                  "ext_code_generator" set ref 4646* 4651* 4794*
units                                  parameter       fixed bin(3,0)           dcl 903 in procedure "get_size_in_bits" ref 897 907
units                     2            based           fixed bin(3,0)           level 2 in structure "node" packed packed unsigned
                                                                                  unaligned dcl 1-63 in procedure
                                                                                  "ext_code_generator" set ref 3063 5633 6253 6279
                                                                                  6287 8265* 9270
unspec                                                 builtin function         dcl 10-17 in procedure "create_node" set ref 10-24*
unspec                                                 builtin function         dcl 569 in procedure "code_generator" set ref 586*
                                                                                  654 1011* 1021* 1090* 1161* 1213* 1263* 1310*
                                                                                  1758* 1758 2010 2629 2629 2702* 3259 3768* 3771
                                                                                  3771 3777 3777 3937* 4579* 4728* 4783* 4870* 4982
                                                                                  4985* 5034 5095 5109 5122 5153 5153 5161 5188 5188
                                                                                  5202* 5206 5230 5251 5251 5260 5304 5479 5487 5494
                                                                                  5494 5516 5638 5731* 5731 5810* 5847 5867* 5874
                                                                                  6142 6212 6292* 6302 6302 6311 6311 6313 6313 6321
                                                                                  6321 6330 6330 6431* 6434 6434 6459* 6462 6462
                                                                                  6571* 6580 6580 6601 6601 6617 6617 6629 6629
                                                                                  6936* 7663 7699* 7810* 7939* 7942 7942 8832* 8853*
                                                                                  8853 9251* 9263* 9263 9267* 9267 9281 9281 9334
                                                                                  9526* 9565 9749* 9930* 9941* 9941 9945* 9945 9955*
                                                                                  9998* 10003* 10005* 10013 10013 10078* 10098*
                                                                                  10098 10102* 10102 10112* 10155* 10160* 10162*
                                                                                  10170 10170 10248* 11013*
update_flag                            parameter       fixed bin(18,0)          dcl 7532 ref 7527 7551
upper                     0(10)        based           bit(1)                   array level 3 packed packed unaligned dcl 1-383 ref
                                                                                  7706 7738 10001 10158
upper_bound               6            based           fixed bin(24,0)          array level 3 dcl 1-383 ref 2259 2262 7706 7738 7740
                                                                                  8600 8608 8623 8623 8635 9985 10001 10142 10158
usage                     0(30)        based           structure                level 3 packed packed unaligned dcl 1-530
use_dl                          000106 automatic       bit(1)                   dcl 5283 set ref 5346* 5360* 5362
use_pool                        004623 automatic       bit(1)                   dcl 10861 set ref 10909* 10910 10917
used                    113     001334 automatic       fixed bin(18,0)          array level 3 in structure "machine_state" dcl 2479
                                                                                  in procedure "interpreter" set ref 3350* 3357*
                                                                                  5020* 6009* 6091* 6342* 6391* 6421* 6440* 6470*
                                                                                  6491* 6507* 6530* 6546* 6599*
used                      3            parameter       fixed bin(18,0)          array level 2 in structure "regs" dcl 5926
                                                                                  in procedure "get_free_reg" ref 5946 5948
used                     42     001334 automatic       fixed bin(18,0)          array level 3 in structure "machine_state" dcl 2479
                                                                                  in procedure "interpreter" set ref 6667* 6697*
                                                                                  6745* 6759* 6829*
user_options            113            based           structure                level 3 dcl 53
usual_base                      000120 automatic       bit(3)                   dcl 5752 set ref 5763* 5764* 5770* 5772
v                                      parameter       fixed bin(18,0)          dcl 7152 in procedure "in_reg" ref 7147 7156
v                               003616 automatic       pointer                  dcl 8023 in procedure "finish_subscript" set ref
                                                                                  8057* 8067 8067 8067 8076
v                               000101 automatic       fixed bin(18,0)          dcl 5985 in procedure "base_man_load_any_pr" set ref
                                                                                  5997* 6005 6030 6049* 6051 6051 6056* 6068* 6070
                                                                                  6089
v                               000221 automatic       fixed bin(18,0)          dcl 2222 in procedure "get_array_size" set ref 2236*
                                                                                  2239* 2239 2243
v                               003664 automatic       pointer                  dcl 7997 in procedure "add_pointer" set ref 8004*
                                                                                  8005*
v                                      parameter       fixed bin(18,0)          dcl 7186 in procedure "also_in_reg" ref 7181 7192
v                               003134 automatic       pointer                  dcl 5585 in procedure "m_a" set ref 5609* 5610 5610
                                                                                  5621* 5622 5626*
v                               000106 automatic       pointer                  dcl 6101 in procedure "base_man_load_VLA" set ref
                                                                                  6122* 6124* 6126 6136 6136 6142 6149 6158 6158
                                                                                  6181
v                               003366 automatic       fixed bin(18,0)          dcl 7062 in procedure "eaq_man_load_a_or_q" set ref
                                                                                  7066* 7077* 7098* 7107*
v                               003472 automatic       pointer                  dcl 7535 in procedure "store" set ref 7539* 7547
                                                                                  7553
v                               000102 automatic       fixed bin(18,0)          dcl 7121 in procedure "get_eaq_name" set ref 7130*
                                                                                  7132*
v                               003704 automatic       pointer                  dcl 8653 in procedure "finalize_vsum" set ref 8659*
                                                                                  8663* 8664 8664 8664 8676 8681* 8683* 8689 8689
                                                                                  8694 8694* 8696* 8701 8705
v                               000102 automatic       fixed bin(18,0)          dcl 6655 in procedure "xr_man_load_any_xr" set ref
                                                                                  6659* 6664 6671* 6685* 6695
v_array                                based           bit(36)                  array dcl 9-34 set ref 9-51 9-52* 9-54 9-54
v_bound                   0(09)        based           structure                array level 2 packed packed unaligned dcl 1-383 ref
                                                                                  2259 7728 7777 8387 8506 8514 8527 8587 8616 8628
                                                                                  9982 10139
v_length                        004134 automatic       bit(1)                   dcl 9239 in procedure "make_descriptor" set ref
                                                                                  9252* 9275* 9286
v_length                        000116 automatic       bit(1)                   dcl 9910 in procedure "make_symbol_descriptor" set
                                                                                  ref 9931* 9954* 9970 9979 9986 9990* 10020
v_length                        003620 automatic       bit(1)                   dcl 8024 in procedure "finish_subscript" set ref
                                                                                  8123* 8136* 8159* 8168* 8176 8238
v_length                        004353 automatic       bit(1)                   dcl 10058 in procedure "make_entry_descriptor" set
                                                                                  ref 10079* 10111* 10127 10136 10143 10147*
v_length                  6            based           fixed bin(18,0)          level 2 in structure "symbol" packed packed unsigned
                                                                                  unaligned dcl 1-844 in procedure
                                                                                  "ext_code_generator" set ref 3800 3832 7825 7837
                                                                                  7840 8325 8335 8359 8424 8436 8542 9177 9875 9875
v_multiplier                    003637 automatic       bit(1)                   dcl 8290 set ref 8362* 8366* 8369 8387 8394 8422
                                                                                  8434 8460 8527* 8527
v_offset                  4(18)        based           fixed bin(18,0)          level 2 packed packed unsigned unaligned dcl 1-155
                                                                                  set ref 5609 6122 6161 7234 7234 8054 8669* 8688*
                                                                                  8699* 8879 8881
val_ptr                         003456 automatic       pointer                  dcl 7456 set ref 7468* 7471 7474 7478
value                     4            based           bit(72)                  level 2 in structure "constant" dcl 1-256
                                                                                  in procedure "ext_code_generator" set ref 9-65
                                                                                  9-85* 776 2822 4049 5300 7468 7699 7810 8038 8045
                                                                                  9605 9617 9721 9730 9749 10420 10424 10575 10579
value                     4(18)        based           char                     level 2 in structure "char_constant" packed packed
                                                                                  unaligned dcl 1-316 in procedure
                                                                                  "ext_code_generator" ref 806 4028 4041 4060 5304
                                                                                  10428 10432 10583 10588
value                     2            based           fixed bin(35,0)          level 2 in structure "initial_in_polish" dcl 10465
                                                                                  in procedure "list_initialize_symbol" ref 10511
                                                                                  10522
value                                  parameter       fixed bin(18,0)          dcl 7577 in procedure "alloc_label" ref 7574 7584
value                                  parameter       fixed bin(35,0)          dcl 7660 in procedure "create_integer_constant" ref
                                                                                  7657 7663
value                                  parameter       bit(72)                  dcl 9-16 in procedure "create_constant" ref 9-13
                                                                                  9-41
value                     2            based           fixed bin(17,0)          level 2 in structure "initial_in_polish" dcl 10342
                                                                                  in procedure "initialize_symbol" ref 10389 10402
value                     2     004463 automatic       fixed bin(18,0)          level 2 in structure "initial" dcl 10337
                                                                                  in procedure "initialize_symbol" set ref 10389*
                                                                                  10390 10402* 10408 10420 10424 10428 10432
value                                  parameter       fixed bin(18,0)          dcl 6771 in procedure "const_in_xr" ref 6765 6778
value                           000107 automatic       bit(36)                  dcl 5284 in procedure "text_ref" set ref 5304* 5305
value                                  parameter       bit(18)                  dcl 10934 in procedure "generate_definition" ref
                                                                                  10931 10965
value                     2     000127 automatic       fixed bin(35,0)          level 2 in structure "initial" dcl 10460
                                                                                  in procedure "list_initialize_symbol" set ref
                                                                                  10511* 10522* 10536 10575 10579 10583 10588
value                     1            based           bit(18)                  level 2 in structure "definition" packed packed
                                                                                  unaligned dcl 26-12 in procedure
                                                                                  "generate_definition" set ref 10965*
value_in                  0(15)        based           structure                level 3 in structure "symbol" packed packed
                                                                                  unaligned dcl 1-844 in procedure
                                                                                  "ext_code_generator"
value_in                  0(15)        based           structure                level 3 in structure "node" packed packed unaligned
                                                                                  dcl 1-63 in procedure "ext_code_generator" set ref
                                                                                  7006* 7547
value_in                  0(15)        based           structure                level 3 in structure "temporary" packed packed
                                                                                  unaligned dcl 1-1005 in procedure
                                                                                  "ext_code_generator"
value_in_xr              36     001334 automatic       bit(1)                   level 2 dcl 2479 set ref 6698* 6929
var                             003406 automatic       fixed bin(18,0)          dcl 7186 in procedure "also_in_reg" set ref 7192*
                                                                                  7194 7199 7208
var                             003376 automatic       fixed bin(18,0)          dcl 7152 in procedure "in_reg" set ref 7156* 7164
                                                                                  7169* 7173
var                             003442 automatic       fixed bin(18,0)          dcl 7366 in procedure "load" set ref 7376* 7387 7397
                                                                                  7415* 7416* 7421 7437* 7439* 7444*
var                                    parameter       fixed bin(18,0)          dcl 10054 in procedure "make_entry_descriptor" ref
                                                                                  10051 10077
var                                    parameter       fixed bin(18,0)          dcl 9906 in procedure "make_symbol_descriptor" ref
                                                                                  9898 9929
var                             003466 automatic       fixed bin(18,0)          dcl 7534 in procedure "store" set ref 7538* 7539
                                                                                  7545* 7547* 7555* 7557*
var                                    parameter       fixed bin(18,0)          dcl 9236 in procedure "make_descriptor" ref 9226
                                                                                  9250 9259
var                             002764 automatic       fixed bin(18,0)          dcl 4939 in procedure "push_variable" set ref 4953*
                                                                                  4955 4957*
var                             000100 automatic       fixed bin(18,0)          dcl 7292 in procedure "use_ind" set ref 7302* 7306
                                                                                  7307
var                             000100 automatic       fixed bin(18,0)          dcl 2307 in procedure "create_rel_constant" set ref
                                                                                  2312* 2313 2319
var_ptr                                parameter       pointer                  dcl 5142 ref 5135 5146 5148 5148 5151 5153 5153 5157
                                                                                  5158 5158
variable                  2     001334 automatic       fixed bin(18,0)          array level 3 in structure "machine_state" dcl 2479
                                                                                  in procedure "interpreter" set ref 6984 6987* 6987
                                                                                  7132 7164* 7196 7199* 7202 7204 7208* 7249 7266
                                                                                  7294 7302 7306* 7325 7325 7332 7346 7397 7517
variable                 41     001334 automatic       fixed bin(18,0)          array level 3 in structure "machine_state" dcl 2479
                                                                                  in procedure "interpreter" set ref 6664 6695* 6719
                                                                                  6726* 6758* 6783 6828* 6931 7001 8071 8699*
variable                112     001334 automatic       fixed bin(18,0)          array level 3 in structure "machine_state" dcl 2479
                                                                                  in procedure "interpreter" set ref 3351* 3358*
                                                                                  5018* 6005 6089* 6196 6340* 6366 6387* 6438* 6468*
                                                                                  6506* 6545* 6865* 7026
variable_arglist          0(30)        based           bit(1)                   level 3 packed packed unaligned dcl 1-844 set ref
                                                                                  4119 9364
variable_array_size       0(27)        based           bit(1)                   level 2 packed packed unaligned dcl 1-383 set ref
                                                                                  3613 8318*
variable_extents          0(32)        based           bit(1)                   level 3 packed packed unaligned dcl 1-844 set ref
                                                                                  1361 2228 3813 7873 8213 8294
variable_length           0(29)        based           bit(1)                   level 3 in structure "temporary" packed packed
                                                                                  unaligned dcl 1-1005 in procedure
                                                                                  "ext_code_generator" set ref 4817 4829* 9114*
                                                                                  9132* 9889
variable_length           0(29)        based           bit(1)                   level 3 in structure "array_ref" packed packed
                                                                                  unaligned dcl 1-155 in procedure
                                                                                  "ext_code_generator" set ref 8238* 8847* 8890 9882
variable_offset           0(30)        based           bit(1)                   level 3 packed packed unaligned dcl 1-155 set ref
                                                                                  5607 7234 8053 8668*
variable_type                          constant        fixed bin(4,0)           initial dcl 3-120 ref 1300 1424 1766 2691 4762
variable_virtual_origin
                          0(26)        based           bit(1)                   level 2 packed packed unaligned dcl 1-383 set ref
                                                                                  7853 8339* 8402* 8413*
verify                                                 builtin function         dcl 569 ref 10815
virgin_linkage_header                  based           structure                level 1 dcl 12-52 set ref 722 723 1033 1035 1120
                                                                                  1561 1983 10624
virtual_origin            1            based           fixed bin(24,0)          level 2 in structure "dimension" dcl 1-383
                                                                                  in procedure "ext_code_generator" set ref 2243*
                                                                                  7853 7860 8337* 8399* 8410* 8415
virtual_origin                  003630 automatic       fixed bin(18,0)          dcl 8289 in procedure "finish_subscript" set ref
                                                                                  8356* 8410* 8411 8415* 8419* 8428* 8477 8484*
vname                           004560 automatic       varying char(32)         dcl 10798 set ref 10815* 10822 10822 10832 10842
vp                                     parameter       fixed bin(18,0)          dcl 7364 in procedure "load" set ref 7361 7372* 7376
vp                                     parameter       fixed bin(18,0)          dcl 7530 in procedure "store" ref 7527 7538
vsegname                               defined         varying char(32)         dcl 501 ref 590
vsize                           000131 automatic       fixed bin(18,0)          dcl 940 set ref 1285* 1286 1354* 1361* 1426* 1428*
                                                                                  1443 1769*
vsum                            003577 automatic       fixed bin(18,0)          dcl 7758 set ref 7791* 7818* 7833* 7840* 8054* 8057
                                                                                  8071 8073* 8074* 8080* 8197* 8658* 8659 8660* 8663
                                                                                  8669 8680* 8687* 8688 8690* 8698* 8699 8700 8705*
                                                                                  8751* 8755*
was_reserved                    000127 automatic       bit(1)                   dcl 6566 set ref 6609* 6612
what                                   parameter       bit(14)                  dcl 6842 ref 6837 6847
