ASSEMBLY LISTING OF SEGMENT >dumps>old>recomp>archive_key_.alm
ASSEMBLED ON:	11/04/82  1849.0 mst Thu
OPTIONS USED:	list
ASSEMBLED BY:	ALM Version  6.4  April 1981
ASSEMBLER CREATED:	11/03/82  1423.6 mst Wed

                                     1  " ***********************************************************
                                     2  " *                                                         *
                                     3  " * Copyright, (C) Honeywell Information Systems Inc., 1982 *
                                     4  " *                                                         *
                                     5  " * Copyright (c) 1972 by Massachusetts Institute of        *
                                     6  " * Technology and Honeywell Information Systems, Inc.      *
                                     7  " *                                                         *
                                     8  " ***********************************************************
                                     9
                                    10
                                    11
    000000                          12  	name	archive_key_
                                    13
                        000000      14  	segdef	begin_table
                        000070      15  	segdef	last_index
                                    16
                                    17
                                    18
                                    19  "	array of archive keys and resulting codes
                                    20  "	used to determine actions to be taken by the archive command
                                    21  "
                                    22  "  New keys 'xd' (extract-delete component) and 'xdf' added 07/14/82 S. Herbst
                                    23  "
                                    24  "declare	1  archive_key_$begin_table(archive_key_$last_index),
                                    25  "	  2 key char(4),		/* key acceptable to archive command */
                                    26  "	  2 type bit(2),		/* = 0 for table
                                    27  "				   = 1 for replace
                                    28  "				   = 2 for extract
                                    29  "				   = 3 for delete  */
                                    30  "	  2 update bit(1),
                                    31  "	  2 append bit(1),
                                    32  "	  2 copy bit(1),
                                    33  "	  2 delete bit(1),
                                    34  "	  2 force bit(1),
                                    35  "	  2 long bit(1),
                                    36  "	  2 zero_arg_ok bit(1),
                                    37  "	  2 star_ok bit(1),
                                    38  "	  2 empty_ok bit(1),
                                    39  "	  2 no_orig_ok bit(1);
                                    40
                                    41
                                    42
                        000000      43  	equ	table,0
                        000001      44  	equ	replace,1
                        000002      45  	equ	extract,2
                        000003      46  	equ	delete,3
                                    47
                        100000      48  	bool	update,100000	bit 2 of second word
                        040000      49  	bool	append,40000
                        020000      50  	bool	copy,20000
                        010000      51  	bool	del,10000
                        004000      52  	bool	force,4000
                        002000      53  	bool	long,2000
                        001000      54  	bool	zarg,1000
                        000400      55  	bool	star,400
                        000200      56  	bool	empty,200
                        000100      57  	bool	norig,100
                        000040      58  	bool	brief,40
                                    59
                                    60  "
                                    61
    000000                          62  begin_table:
    000000  aa  162 040 040 040     63  	aci	"r   "
    000001  aa   201300 000000      64  	vfd	2/replace,16/empty+norig+zarg
                                    65
    000002  aa  162 144 040 040     66  	aci	"rd  "
    000003  aa   211300 000000      67  	vfd	2/replace,16/del+empty+norig+zarg
                                    68
    000004  aa  162 144 146 040     69  	aci	"rdf "
    000005  aa   215300 000000      70  	vfd	2/replace,16/del+force+empty+norig+zarg
                                    71
    000006  aa  143 162 040 040     72  	aci	"cr  "
    000007  aa   221300 000000      73  	vfd	2/replace,16/copy+empty+norig+zarg
                                    74
    000010  aa  143 162 144 040     75  	aci	"crd "
    000011  aa   231300 000000      76  	vfd	2/replace,16/copy+del+empty+norig+zarg
                                    77
    000012  aa  143 162 144 146     78  	aci	"crdf"
    000013  aa   235300 000000      79  	vfd	2/replace,16/copy+del+force+empty+norig+zarg
                                    80
    000014  aa  165 040 040 040     81  	aci	"u   "
    000015  aa   301000 000000      82  	vfd	2/replace,16/update+zarg
                                    83
    000016  aa  165 144 040 040     84  	aci	"ud  "
    000017  aa   311000 000000      85  	vfd	2/replace,16/update+zarg+del
                                    86
    000020  aa  165 144 146 040     87  	aci	"udf "
    000021  aa   315000 000000      88  	vfd	2/replace,16/update+zarg+del+force
                                    89
    000022  aa  143 165 040 040     90  	aci	"cu  "
    000023  aa   321000 000000      91  	vfd	2/replace,16/copy+update+zarg
                                    92
    000024  aa  143 165 144 040     93  	aci	"cud "
    000025  aa   331000 000000      94  	vfd	2/replace,16/copy+update+zarg+del
                                    95
    000026  aa  143 165 144 146     96  	aci	"cudf"
    000027  aa   335000 000000      97  	vfd	2/replace,16/copy+update+zarg+del+force
                                    98
    000030  aa  141 040 040 040     99  	aci	"a   "
    000031  aa   240300 000000     100  	vfd	2/replace,16/append+empty+norig
                                   101
    000032  aa  141 144 040 040    102  	aci	"ad  "
    000033  aa   250300 000000     103  	vfd	2/replace,16/append+empty+norig+del
                                   104
    000034  aa  141 144 146 040    105  	aci	"adf "
    000035  aa   254300 000000     106  	vfd	2/replace,16/append+empty+norig+del+force
                                   107
    000036  aa  143 141 040 040    108  	aci	"ca  "
    000037  aa   260300 000000     109  	vfd	2/replace,16/copy+append+empty+norig
                                   110
    000040  aa  143 141 144 040    111  	aci	"cad "
    000041  aa   270300 000000     112  	vfd	2/replace,16/copy+append+empty+norig+del
                                   113
    000042  aa  143 141 144 146    114  	aci	"cadf"
    000043  aa   274300 000000     115  	vfd	2/replace,16/copy+append+empty+norig+del+force
                                   116
    000044  aa  144 040 040 040    117  	aci	"d   "
    000045  aa   600000 000000     118  	vfd	2/delete,16/0
                                   119
    000046  aa  143 144 040 040    120  	aci	"cd  "
    000047  aa   620000 000000     121  	vfd	2/delete,16/copy
                                   122
    000050  aa  170 040 040 040    123  	aci	"x   "
    000051  aa   401400 000000     124  	vfd	2/extract,16/zarg+star
                                   125
    000052  aa  170 144 040 040    126  	aci	"xd  "
    000053  aa   411400 000000     127  	vfd	2/extract,16/zarg+star+del
                                   128
    000054  aa  170 144 146 040    129  	aci	"xdf "
    000055  aa   415400 000000     130  	vfd	2/extract,16/zarg+star+del+force
                                   131
    000056  aa  170 146 040 040    132  	aci	"xf  "
    000057  aa   405400 000000     133  	vfd	2/extract,16/zarg+star+force
                                   134
    000060  aa  164 040 040 040    135  	aci	"t   "
    000061  aa   001400 000000     136  	vfd	2/table,16/star+zarg
                                   137
    000062  aa  164 154 040 040    138  	aci	"tl  "
    000063  aa   003400 000000     139  	vfd	2/table,16/long+star+zarg
                                   140
    000064  aa  164 142 040 040    141  	aci	"tb  "
    000065  aa   001440 000000     142  	vfd	2/table,16/star+zarg+brief
                                   143
    000066  aa  164 154 142 040    144  	aci	"tlb "
    000067  aa   003440 000000     145  	vfd	2/table,16/long+star+zarg+brief
                                   146
    000070                         147  end_table:
                                   148
    000070                         149  last_index:
    000070  aa   000000 000034     150  	vfd	36/(end_table-begin_table)/2
                                   151
                                   152  	end	archive_key_

NO LITERALS

NAME DEFINITIONS FOR ENTRY POINTS AND SEGDEFS

    000072  5a   000003 000000
    000073  5a   000035 600000
    000074  aa   000000 000000
    000075  55   000012 000002
    000076  5a   000002 400003
    000077  55   000006 000012
    000100  aa  014 141 162 143
    000101  aa  150 151 166 145
    000102  aa  137 153 145 171
    000103  aa  137 000 000 000
    000104  55   000020 000003
    000105  0a   000070 400000
    000106  55   000015 000003
    000107  aa  012 154 141 163         last_index
    000110  aa  164 137 151 156
    000111  aa  144 145 170 000
    000112  55   000026 000012
    000113  0a   000000 400000
    000114  55   000023 000003
    000115  aa  013 142 145 147         begin_table
    000116  aa  151 156 137 164
    000117  aa  141 142 154 145
    000120  55   000002 000020
    000121  6a   000000 400002
    000122  55   000031 000003
    000123  aa  014 163 171 155         symbol_table
    000124  aa  142 157 154 137
    000125  aa  164 141 142 154
    000126  aa  145 000 000 000

DEFINITIONS HASH TABLE

    000127  aa   000000 000015
    000130  5a   000012 000000
    000131  5a   000020 000000
    000132  aa   000000 000000
    000133  aa   000000 000000
    000134  aa   000000 000000
    000135  aa   000000 000000
    000136  5a   000026 000000
    000137  aa   000000 000000
    000140  aa   000000 000000
    000141  aa   000000 000000
    000142  aa   000000 000000
    000143  aa   000000 000000
    000144  aa   000000 000000

NO EXTERNAL NAMES

NO TRAP POINTER WORDS

TYPE PAIR BLOCKS

    000145  aa   000001 000000
    000146  aa   000000 000000

INTERNAL EXPRESSION WORDS

    000147  aa   000000 000000
LINKAGE INFORMATION

    000000  aa   000000 000000
    000001  0a   000072 000000
    000002  aa   000000 000000
    000003  aa   000000 000000
    000004  aa   000000 000000
    000005  aa   000000 000000
    000006  22   000010 000010
    000007  a2   000000 000000
SYMBOL INFORMATION

SYMBOL TABLE HEADER

    000000  aa   000000 000001
    000001  aa   163171 155142
    000002  aa   164162 145145
    000003  aa   000000 000004
    000004  aa   000000 111316
    000005  aa   510113 575622
    000006  aa   000000 111320
    000007  aa   102431 711324
    000010  aa   141154 155040
    000011  aa   040040 040040
    000012  aa   000024 000040
    000013  aa   000034 000040
    000014  aa   000044 000100
    000015  aa   000002 000002
    000016  aa   000064 000000
    000017  aa   000000 000122
    000020  aa   000000 000103
    000021  aa   000000 000111
    000022  aa   000114 000103
    000023  aa   000064 000000
    000024  aa   101114 115040
    000025  aa   126145 162163
    000026  aa   151157 156040
    000027  aa   040066 056064
    000030  aa   040040 101160
    000031  aa   162151 154040
    000032  aa   061071 070061
    000033  aa   040040 040040
    000034  aa   110157 154155
    000035  aa   163164 145144
    000036  aa   164056 123171
    000037  aa   163115 141151
    000040  aa   156164 056155
    000041  aa   040040 040040
    000042  aa   040040 040040
    000043  aa   040040 040040
    000044  aa   154151 163164
    000045  aa   040040 040040
    000046  aa   040040 040040
    000047  aa   040040 040040
    000050  aa   040040 040040
    000051  aa   040040 040040
    000052  aa   040040 040040
    000053  aa   040040 040040
    000054  aa   040040 040040
    000055  aa   040040 040040
    000056  aa   040040 040040
    000057  aa   040040 040040
    000060  aa   040040 040040
    000061  aa   040040 040040
    000062  aa   040040 040040
    000063  aa   040040 040040
    000064  aa   000000 000001
    000065  aa   000000 000001
    000066  aa   000072 000042
    000067  aa   113171 051577
    000070  aa   000000 111317
    000071  aa   771764 200000
    000072  aa   076144 165155          >dumps>old>recomp>archive_key_.alm
    000073  aa   160163 076157
    000074  aa   154144 076162
    000075  aa   145143 157155
    000076  aa   160076 141162
    000077  aa   143150 151166
    000100  aa   145137 153145
    000101  aa   171137 056141
    000102  aa   154155 040040
               MULTICS ASSEMBLY CROSS REFERENCE LISTING

   Value        Symbol                   Source file   Line number

       40000    append                   archive_key_:        49,  100,  103,  106,  109,  112,  115.
           0    begin_table              archive_key_:        14,   62,  150.
          40    brief                    archive_key_:        58,  142,  145.
       20000    copy                     archive_key_:        50,   73,   76,   79,   91,   94,   97,  109,  112,  115,  121.
       10000    del                      archive_key_:        51,   67,   70,   76,   79,   85,   88,   94,   97,  103,  106,
                                                             112,  115,  127,  130.
           3    delete                   archive_key_:        46,  118,  121.
         200    empty                    archive_key_:        56,   64,   67,   70,   73,   76,   79,  100,  103,  106,  109,
                                                             112,  115.
          70    end_table                archive_key_:       147,  150.
           2    extract                  archive_key_:        45,  124,  127,  130,  133.
        4000    force                    archive_key_:        52,   70,   79,   88,   97,  106,  115,  130,  133.
          70    last_index               archive_key_:        15,  149.
        2000    long                     archive_key_:        53,  139,  145.
         100    norig                    archive_key_:        57,   64,   67,   70,   73,   76,   79,  100,  103,  106,  109,
                                                             112,  115.
           1    replace                  archive_key_:        44,   64,   67,   70,   73,   76,   79,   82,   85,   88,   91,
                                                              94,   97,  100,  103,  106,  109,  112,  115.
         400    star                     archive_key_:        55,  124,  127,  130,  133,  136,  139,  142,  145.
           0    table                    archive_key_:        43,  136,  139,  142,  145.
      100000    update                   archive_key_:        48,   82,   85,   88,   91,   94,   97.
        1000    zarg                     archive_key_:        54,   64,   67,   70,   73,   76,   79,   82,   85,   88,   91,
                                                              94,   97,  124,  127,  130,  133,  136,  139,  142,  145.


NO FATAL ERRORS


                                          -----------------------------------------------------------


Historical Background

This edition of the Multics software materials and documentation is provided and donated
to Massachusetts Institute of Technology by Group BULL including BULL HN Information Systems Inc.
as a contribution to computer science knowledge.
This donation is made also to give evidence of the common contributions of Massachusetts Institute of Technology,
Bell Laboratories, General Electric, Honeywell Information Systems Inc., Honeywell BULL Inc., Groupe BULL
and BULL HN Information Systems Inc. to the development of this operating system.
Multics development was initiated by Massachusetts Institute of Technology Project MAC (1963-1970),
renamed the MIT Laboratory for Computer Science and Artificial Intelligence in the mid 1970s, under the leadership
of Professor Fernando Jose Corbato. Users consider that Multics provided the best software architecture
for managing computer hardware properly and for executing programs. Many subsequent operating systems
incorporated Multics principles.
Multics was distributed in 1975 to 2000 by Group Bull in Europe , and in the U.S. by Bull HN Information Systems Inc.,
as successor in interest by change in name only to Honeywell Bull Inc. and Honeywell Information Systems Inc. .

                                          -----------------------------------------------------------

Permission to use, copy, modify, and distribute these programs and their documentation for any purpose and without
fee is hereby granted,provided that the below copyright notice and historical background appear in all copies
and that both the copyright notice and historical background and this permission notice appear in supporting
documentation, and that the names of MIT, HIS, BULL or BULL HN not be used in advertising or publicity pertaining
to distribution of the programs without specific prior written permission.
    Copyright 1972 by Massachusetts Institute of Technology and Honeywell Information Systems Inc.
    Copyright 2006 by BULL HN Information Systems Inc.
    Copyright 2006 by Bull SAS
    All Rights Reserved
