ASSEMBLY LISTING OF SEGMENT >dumps>old>recomp>archive_data_.alm
ASSEMBLED ON:	11/04/82  1849.0 mst Thu
OPTIONS USED:	list
ASSEMBLED BY:	ALM Version  6.4  April 1981
ASSEMBLER CREATED:	11/03/82  1423.6 mst Wed

                                     1  " ***********************************************************
                                     2  " *                                                         *
                                     3  " * Copyright, (C) Honeywell Information Systems Inc., 1982 *
                                     4  " *                                                         *
                                     5  " * Copyright (c) 1972 by Massachusetts Institute of        *
                                     6  " * Technology and Honeywell Information Systems, Inc.      *
                                     7  " *                                                         *
                                     8  " ***********************************************************
                                     9
                                    10  " ARCHIVE_DATA_ -- Constants used in archive manipulation
                                    11  "
                                    12  " Modified 2/22/81, W. Olin Sibert, to add comments about obsolescence.
                                    13
    000000                          14  	name	archive_data_
                                    15  "
                                    16  "	segment containing active flag and constants used in archive segments
                                    17  "
                        000000      18  	segdef	active
                        000004      19  	segdef	header_begin
                        000002      20  	segdef	header_end
                        000000      21  	segdef	ident
                        000002      22  	segdef	fence
                                    23  "
                                    24  	use var
                                    25  "
                                    26  "	flag preventing recursive use of archive command/act active function
                                    27  "
    000000                          28  active:
                                    29  "
    000000  aa   000000 000000      30  	oct	000000000000
                                    31  "
                                    32  "	Note: the appropriate constants to use when manipulating archives
                                    33  "	are archive_data_$fence and archive_data_$ident. The header_begin
                                    34  "	and header_end versions are relics of an obsolete "improved archive
                                    35  "	format" which was never actually implemented. No existing code
                                    36  "	creates archives containing them, and the archive command cannot
                                    37  "	deal with them, either.
                                    38  "
                                    39
                                    40  	use	const
                                    41  "
                                    42  "	constant used to mark beginning of archive header
                                    43  "
    000000                          44  ident:
                                    45  "
    000000  aa   014012 012012      46  	oct	014012012012
    000001  aa   017012 011011      47  	oct	017012011011
                                    48
                                    49  "	constant used to mark end of archive header
                                    50  "
    000002                          51  header_end:
    000002                          52  fence:
                                    53  "
    000002  aa   017017 017017      54  	oct	017017017017
    000003  aa   012012 012012      55  	oct	012012012012
                                    56
                                    57  "	contant used to mark beginning of archive header	(OBSOLETE)
                                    58  "
    000004                          59  header_begin:
                                    60  "
    000004  aa   013012 012012      61  	oct	013012012012
    000005  aa   017012 011011      62  	oct	017012011011
                                    63
                                    64  "
                                    65  	join	/text/const
                                    66  	join	/static/var
                                    67  "
                                    68  	end

NO LITERALS

NAME DEFINITIONS FOR ENTRY POINTS AND SEGDEFS

    000006  5a   000003 000000
    000007  5a   000055 600000
    000010  aa   000000 000000
    000011  55   000012 000002
    000012  5a   000002 400003
    000013  55   000006 000012
    000014  aa  015 141 162 143
    000015  aa  150 151 166 145
    000016  aa  137 144 141 164
    000017  aa  141 137 000 000
    000020  55   000017 000003
    000021  0a   000002 400000
    000022  55   000015 000003
    000023  aa  005 146 145 156         fence
    000024  aa  143 145 000 000
    000025  55   000024 000012
    000026  0a   000000 400000
    000027  55   000022 000003
    000030  aa  005 151 144 145         ident
    000031  aa  156 164 000 000
    000032  55   000032 000017
    000033  0a   000002 400000
    000034  55   000027 000003
    000035  aa  012 150 145 141         header_end
    000036  aa  144 145 162 137
    000037  aa  145 156 144 000
    000040  55   000041 000024
    000041  0a   000004 400000
    000042  55   000035 000003
    000043  aa  014 150 145 141         header_begin
    000044  aa  144 145 162 137
    000045  aa  142 145 147 151
    000046  aa  156 000 000 000
    000047  55   000046 000032
    000050  4a   000000 400004
    000051  55   000044 000003
    000052  aa  006 141 143 164         active
    000053  aa  151 166 145 000
    000054  55   000002 000041
    000055  6a   000000 400002
    000056  55   000051 000003
    000057  aa  014 163 171 155         symbol_table
    000060  aa  142 157 154 137
    000061  aa  164 141 142 154
    000062  aa  145 000 000 000

DEFINITIONS HASH TABLE

    000063  aa   000000 000015
    000064  aa   000000 000000
    000065  aa   000000 000000
    000066  aa   000000 000000
    000067  5a   000017 000000
    000070  5a   000041 000000
    000071  aa   000000 000000
    000072  5a   000024 000000
    000073  5a   000012 000000
    000074  5a   000046 000000
    000075  5a   000032 000000
    000076  aa   000000 000000
    000077  aa   000000 000000
    000100  aa   000000 000000

NO EXTERNAL NAMES

NO TRAP POINTER WORDS

TYPE PAIR BLOCKS

    000101  aa   000001 000000
    000102  aa   000000 000000

INTERNAL EXPRESSION WORDS

    000103  aa   000000 000000
LINKAGE INFORMATION

    000002  aa   000000 000000
    000003  0a   000006 000000
    000004  aa   000000 000000
    000005  aa   000000 000000
    000006  aa   000000 000000
    000007  aa   000000 000000
    000010  22   000010 000010
    000011  a2   000000 000002
SYMBOL INFORMATION

SYMBOL TABLE HEADER

    000000  aa   000000 000001
    000001  aa   163171 155142
    000002  aa   164162 145145
    000003  aa   000000 000004
    000004  aa   000000 111316
    000005  aa   510113 575622
    000006  aa   000000 111320
    000007  aa   102422 173072
    000010  aa   141154 155040
    000011  aa   040040 040040
    000012  aa   000024 000040
    000013  aa   000034 000040
    000014  aa   000044 000100
    000015  aa   000002 000002
    000016  aa   000064 000000
    000017  aa   000000 000117
    000020  aa   000000 000103
    000021  aa   000000 000106
    000022  aa   000111 000103
    000023  aa   000064 000000
    000024  aa   101114 115040
    000025  aa   126145 162163
    000026  aa   151157 156040
    000027  aa   040066 056064
    000030  aa   040040 101160
    000031  aa   162151 154040
    000032  aa   061071 070061
    000033  aa   040040 040040
    000034  aa   110157 154155
    000035  aa   163164 145144
    000036  aa   164056 123171
    000037  aa   163115 141151
    000040  aa   156164 056155
    000041  aa   040040 040040
    000042  aa   040040 040040
    000043  aa   040040 040040
    000044  aa   154151 163164
    000045  aa   040040 040040
    000046  aa   040040 040040
    000047  aa   040040 040040
    000050  aa   040040 040040
    000051  aa   040040 040040
    000052  aa   040040 040040
    000053  aa   040040 040040
    000054  aa   040040 040040
    000055  aa   040040 040040
    000056  aa   040040 040040
    000057  aa   040040 040040
    000060  aa   040040 040040
    000061  aa   040040 040040
    000062  aa   040040 040040
    000063  aa   040040 040040
    000064  aa   000000 000001
    000065  aa   000000 000001
    000066  aa   000072 000043
    000067  aa   113171 051576
    000070  aa   000000 111320
    000071  aa   005513 600000
    000072  aa   076144 165155          >dumps>old>recomp>archive_data_.alm
    000073  aa   160163 076157
    000074  aa   154144 076162
    000075  aa   145143 157155
    000076  aa   160076 141162
    000077  aa   143150 151166
    000100  aa   145137 144141
    000101  aa   164141 137056
    000102  aa   141154 155040
               MULTICS ASSEMBLY CROSS REFERENCE LISTING

   Value        Symbol                   Source file   Line number

           0    active                   archive_data_:       18,   28.
           0    const                    archive_data_:       40,   65.
           2    fence                    archive_data_:       22,   52.
           4    header_begin             archive_data_:       19,   59.
           2    header_end               archive_data_:       20,   51.
           0    ident                    archive_data_:       21,   44.
           0    var                      archive_data_:       24,   66.


NO FATAL ERRORS


                                          -----------------------------------------------------------


Historical Background

This edition of the Multics software materials and documentation is provided and donated
to Massachusetts Institute of Technology by Group BULL including BULL HN Information Systems Inc.
as a contribution to computer science knowledge.
This donation is made also to give evidence of the common contributions of Massachusetts Institute of Technology,
Bell Laboratories, General Electric, Honeywell Information Systems Inc., Honeywell BULL Inc., Groupe BULL
and BULL HN Information Systems Inc. to the development of this operating system.
Multics development was initiated by Massachusetts Institute of Technology Project MAC (1963-1970),
renamed the MIT Laboratory for Computer Science and Artificial Intelligence in the mid 1970s, under the leadership
of Professor Fernando Jose Corbato. Users consider that Multics provided the best software architecture
for managing computer hardware properly and for executing programs. Many subsequent operating systems
incorporated Multics principles.
Multics was distributed in 1975 to 2000 by Group Bull in Europe , and in the U.S. by Bull HN Information Systems Inc.,
as successor in interest by change in name only to Honeywell Bull Inc. and Honeywell Information Systems Inc. .

                                          -----------------------------------------------------------

Permission to use, copy, modify, and distribute these programs and their documentation for any purpose and without
fee is hereby granted,provided that the below copyright notice and historical background appear in all copies
and that both the copyright notice and historical background and this permission notice appear in supporting
documentation, and that the names of MIT, HIS, BULL or BULL HN not be used in advertising or publicity pertaining
to distribution of the programs without specific prior written permission.
    Copyright 1972 by Massachusetts Institute of Technology and Honeywell Information Systems Inc.
    Copyright 2006 by BULL HN Information Systems Inc.
    Copyright 2006 by Bull SAS
    All Rights Reserved
