ASSEMBLY LISTING OF SEGMENT >spec>on>pl128d>arith_data.alm
ASSEMBLED ON:	10/03/83  1349.5 mst Mon
OPTIONS USED:	list
ASSEMBLED BY:	ALM Version  6.6  November 1982
ASSEMBLER CREATED:	09/21/83  1227.3 mst Wed

                                     1  " ***********************************************************
                                     2  " *                                                         *
                                     3  " * Copyright, (C) Honeywell Information Systems Inc., 1982 *
                                     4  " *                                                         *
                                     5  " * Copyright (c) 1972 by Massachusetts Institute of        *
                                     6  " * Technology and Honeywell Information Systems, Inc.      *
                                     7  " *                                                         *
                                     8  " ***********************************************************
                                     9
                                    10  " data segment for arithmetic code generator, BLW, 18 November 1968
                                    11  " Modified: 1 July 1971 by BLW for Version II
                                    12  "
    000000                          13  	name	arith_data
                        000000      14  	segdef	fixed
                                    15  "
    000000  aa   000000 000023      16  fixed:	dec	19,0,0	add  s s	adfx1
    000001  aa   000000 000000
    000002  aa   000000 000000
    000003  aa   000000 000025      17  	dec	21,1,0	add  s d	adfx3
    000004  aa   000000 000001
    000005  aa   000000 000000
    000006  aa   000000 000025      18  	dec	21,0,0	add  d s	adfx3
    000007  aa   000000 000000
    000010  aa   000000 000000
    000011  aa   000000 000024      19  	dec	20,0,0	add  d d	adfx2
    000012  aa   000000 000000
    000013  aa   000000 000000
                                    20  "
    000014  aa   000000 000026      21  	dec	22,0,0	sub  s s	sbfx1
    000015  aa   000000 000000
    000016  aa   000000 000000
    000017  aa   000000 000025      22  	dec	21,1,1	sub  s d	adfx3
    000020  aa   000000 000001
    000021  aa   000000 000001
    000022  aa   000000 000030      23  	dec	24,0,1	sub  d s	sbfx3
    000023  aa   000000 000000
    000024  aa   000000 000001
    000025  aa   000000 000027      24  	dec	23,0,0	sub  d d	sbfx2
    000026  aa   000000 000000
    000027  aa   000000 000000
                                    25  "
    000030  aa   000000 000031      26  	dec	25,0,0	mult s s 	mpfx1
    000031  aa   000000 000000
    000032  aa   000000 000000
    000033  aa   000000 000402      27  	dec	258,0,0	mult s d	mpfx2
    000034  aa   000000 000000
    000035  aa   000000 000000
    000036  aa   000000 000402      28  	dec	258,1,0	mult d s	mpfx2
    000037  aa   000000 000001
    000040  aa   000000 000000
    000041  aa   000000 000403      29  	dec	259,0,0	mult d d	mpfx3
    000042  aa   000000 000000
    000043  aa   000000 000000
                                    30  "
    000044  aa   000000 000404      31  	dec	260,0,0	div  s s	dvfx1
    000045  aa   000000 000000
    000046  aa   000000 000000
    000047  aa   000000 000406      32  	dec	262,0,0	div  s d	dvfx3
    000050  aa   000000 000000
    000051  aa   000000 000000
    000052  aa   000000 000405      33  	dec	261,0,0	div  d s	dvfx2
    000053  aa   000000 000000
    000054  aa   000000 000000
    000055  aa   000000 000406      34  	dec	262,0,0	div  d d	dvfx3
    000056  aa   000000 000000
    000057  aa   000000 000000
                                    35  "
                                    36  	end

NO LITERALS

NAME DEFINITIONS FOR ENTRY POINTS AND SEGDEFS

    000060  5a   000003 000000
    000061  5a   000025 600000
    000062  aa   000000 000000
    000063  55   000011 000002
    000064  5a   000002 400003
    000065  55   000006 000011
    000066  aa  012 141 162 151
    000067  aa  164 150 137 144
    000070  aa  141 164 141 000
    000071  55   000016 000003
    000072  0a   000000 400000
    000073  55   000014 000003
    000074  aa  005 146 151 170         fixed
    000075  aa  145 144 000 000
    000076  55   000002 000011
    000077  6a   000000 400002
    000100  55   000021 000003
    000101  aa  014 163 171 155         symbol_table
    000102  aa  142 157 154 137
    000103  aa  164 141 142 154
    000104  aa  145 000 000 000

DEFINITIONS HASH TABLE

    000105  aa   000000 000015
    000106  aa   000000 000000
    000107  aa   000000 000000
    000110  aa   000000 000000
    000111  aa   000000 000000
    000112  aa   000000 000000
    000113  aa   000000 000000
    000114  5a   000016 000000
    000115  aa   000000 000000
    000116  aa   000000 000000
    000117  aa   000000 000000
    000120  aa   000000 000000
    000121  5a   000011 000000
    000122  aa   000000 000000

NO EXTERNAL NAMES

NO TRAP POINTER WORDS

TYPE PAIR BLOCKS

    000123  aa   000001 000000
    000124  aa   000000 000000

INTERNAL EXPRESSION WORDS

    000125  aa   000000 000000
LINKAGE INFORMATION

    000000  aa   000000 000000
    000001  0a   000060 000000
    000002  aa   000000 000000
    000003  aa   000000 000000
    000004  aa   000000 000000
    000005  aa   000000 000000
    000006  22   000010 000010
    000007  a2   000000 000000
SYMBOL INFORMATION

SYMBOL TABLE HEADER

    000000  aa   000000 000001
    000001  aa   163171 155142
    000002  aa   164162 145145
    000003  aa   000000 000004
    000004  aa   000000 112143
    000005  aa   305203 523135
    000006  aa   000000 112162
    000007  aa   426631 672165
    000010  aa   141154 155040
    000011  aa   040040 040040
    000012  aa   000024 000040
    000013  aa   000034 000040
    000014  aa   000044 000100
    000015  aa   000002 000002
    000016  aa   000064 000000
    000017  aa   000000 000120
    000020  aa   000000 000102
    000021  aa   000000 000107
    000022  aa   000112 000102
    000023  aa   000064 000000
    000024  aa   101114 115040
    000025  aa   126145 162163
    000026  aa   151157 156040
    000027  aa   040066 056066
    000030  aa   040040 116157
    000031  aa   166145 155142
    000032  aa   145162 040061
    000033  aa   071070 062040
    000034  aa   107112 157150
    000035  aa   156163 157156
    000036  aa   056123 171163
    000037  aa   115141 151156
    000040  aa   164056 155040
    000041  aa   040040 040040
    000042  aa   040040 040040
    000043  aa   040040 040040
    000044  aa   154151 163164
    000045  aa   040040 040040
    000046  aa   040040 040040
    000047  aa   040040 040040
    000050  aa   040040 040040
    000051  aa   040040 040040
    000052  aa   040040 040040
    000053  aa   040040 040040
    000054  aa   040040 040040
    000055  aa   040040 040040
    000056  aa   040040 040040
    000057  aa   040040 040040
    000060  aa   040040 040040
    000061  aa   040040 040040
    000062  aa   040040 040040
    000063  aa   040040 040040
    000064  aa   000000 000001
    000065  aa   000000 000001
    000066  aa   000072 000036
    000067  aa   121622 265240
    000070  aa   000000 112162
    000071  aa   263527 200000
    000072  aa   076163 160145          >spec>on>pl128d>arith_data.alm
    000073  aa   143076 157156
    000074  aa   076160 154061
    000075  aa   062070 144076
    000076  aa   141162 151164
    000077  aa   150137 144141
    000100  aa   164141 056141
    000101  aa   154155 040040
               MULTICS ASSEMBLY CROSS REFERENCE LISTING

   Value        Symbol                   Source file   Line number

           0    fixed                    arith_data:    14,   16.


NO FATAL ERRORS


                                          -----------------------------------------------------------


Historical Background

This edition of the Multics software materials and documentation is provided and donated
to Massachusetts Institute of Technology by Group BULL including BULL HN Information Systems Inc.
as a contribution to computer science knowledge.
This donation is made also to give evidence of the common contributions of Massachusetts Institute of Technology,
Bell Laboratories, General Electric, Honeywell Information Systems Inc., Honeywell BULL Inc., Groupe BULL
and BULL HN Information Systems Inc. to the development of this operating system.
Multics development was initiated by Massachusetts Institute of Technology Project MAC (1963-1970),
renamed the MIT Laboratory for Computer Science and Artificial Intelligence in the mid 1970s, under the leadership
of Professor Fernando Jose Corbato. Users consider that Multics provided the best software architecture
for managing computer hardware properly and for executing programs. Many subsequent operating systems
incorporated Multics principles.
Multics was distributed in 1975 to 2000 by Group Bull in Europe , and in the U.S. by Bull HN Information Systems Inc.,
as successor in interest by change in name only to Honeywell Bull Inc. and Honeywell Information Systems Inc. .

                                          -----------------------------------------------------------

Permission to use, copy, modify, and distribute these programs and their documentation for any purpose and without
fee is hereby granted,provided that the below copyright notice and historical background appear in all copies
and that both the copyright notice and historical background and this permission notice appear in supporting
documentation, and that the names of MIT, HIS, BULL or BULL HN not be used in advertising or publicity pertaining
to distribution of the programs without specific prior written permission.
    Copyright 1972 by Massachusetts Institute of Technology and Honeywell Information Systems Inc.
    Copyright 2006 by BULL HN Information Systems Inc.
    Copyright 2006 by Bull SAS
    All Rights Reserved
