ASSEMBLY LISTING OF SEGMENT >spec>on>online.pbf>as_user_message_.alm
ASSEMBLED ON:	03/19/85  1043.7 mst Tue
OPTIONS USED:	list
ASSEMBLED BY:	ALM Version  6.6  November 1982
ASSEMBLER CREATED:	09/21/83  1227.3 mst Wed

                                     1  " ***********************************************************
                                     2  " *                                                         *
                                     3  " * Copyright, (C) Honeywell Information Systems Inc., 1985 *
                                     4  " *                                                         *
                                     5  " ***********************************************************
                                     6  " Transfer vector for as user message entrypoints
                                     7  "
                                     8  " Written 1985-02-16 by BIM
                                     9
    000000                          10  	name	as_user_message_
                                    11
                                    12  	macro	tv
                              1     13  	entry	&1
                              2     14  &1:	call6	&2
                              3     15  &end
                                    16
                                    17  	tv	priv_system_init,(user_message_priv_$system_init)
                        000000          	entry	priv_system_init
    000000  4a  4 00010 7131 20         priv_system_init:	call6	user_message_priv_$system_init
                                    18  	tv	priv_add_message,(user_message_priv_$add_message)
                        000001          	entry	priv_add_message
    000001  4a  4 00012 7131 20         priv_add_message:	call6	user_message_priv_$add_message
                                    19  	tv	priv_delete_message_id,(user_message_priv_$delete_message_id)
                        000002          	entry	priv_delete_message_id
    000002  4a  4 00014 7131 20         priv_delete_message_id:	call6	user_message_priv_$delete_message_id
                                    20  	tv	priv_delete_process_messages,(user_message_priv_$delete_process_messages)
                        000003          	entry	priv_delete_process_messages
    000003  4a  4 00016 7131 20         priv_delete_process_messages:	call6	user_message_priv_$delete_process_messages
                                    21  	tv	user_read_message,(user_message_$read_message)
                        000004          	entry	user_read_message
    000004  4a  4 00020 7131 20         user_read_message:	call6	user_message_$read_message
                                    22  	tv	admin_read_message,(user_message_admin_$read_message)
                        000005          	entry	admin_read_message
    000005  4a  4 00022 7131 20         admin_read_message:	call6	user_message_admin_$read_message
                                    23  	end
ENTRY SEQUENCES

    000006  5a   000067 0000 00
    000007  aa  7 00046 2721 20
    000010  0a   000000 7100 00
    000011  5a   000057 0000 00
    000012  aa  7 00046 2721 20
    000013  0a   000001 7100 00
    000014  5a   000046 0000 00
    000015  aa  7 00046 2721 20
    000016  0a   000002 7100 00
    000017  5a   000033 0000 00
    000020  aa  7 00046 2721 20
    000021  0a   000003 7100 00
    000022  5a   000023 0000 00
    000023  aa  7 00046 2721 20
    000024  0a   000004 7100 00
    000025  5a   000013 0000 00
    000026  aa  7 00046 2721 20
    000027  0a   000005 7100 00

NO LITERALS

NAME DEFINITIONS FOR ENTRY POINTS AND SEGDEFS

    000030  5a   000003 000000
    000031  5a   000106 600000
    000032  aa   000000 000000
    000033  55   000013 000002
    000034  5a   000002 400003
    000035  55   000006 000013
    000036  aa  020 141 163 137
    000037  aa  165 163 145 162
    000040  aa  137 155 145 163
    000041  aa  163 141 147 145
    000042  aa  137 000 000 000
    000043  55   000023 000003
    000044  0a   000026 500000
    000045  55   000016 000003
    000046  aa  022 141 144 155         admin_read_message
    000047  aa  151 156 137 162
    000050  aa  145 141 144 137
    000051  aa  155 145 163 163
    000052  aa  141 147 145 000
    000053  55   000033 000013
    000054  0a   000023 500000
    000055  55   000026 000003
    000056  aa  021 165 163 145         user_read_message
    000057  aa  162 137 162 145
    000060  aa  141 144 137 155
    000061  aa  145 163 163 141
    000062  aa  147 145 000 000
    000063  55   000046 000023
    000064  0a   000020 500000
    000065  55   000036 000003
    000066  aa  034 160 162 151         priv_delete_process_messages
    000067  aa  166 137 144 145
    000070  aa  154 145 164 145
    000071  aa  137 160 162 157
    000072  aa  143 145 163 163
    000073  aa  137 155 145 163
    000074  aa  163 141 147 145
    000075  aa  163 000 000 000
    000076  55   000057 000033
    000077  0a   000015 500000
    000100  55   000051 000003
    000101  aa  026 160 162 151         priv_delete_message_id
    000102  aa  166 137 144 145
    000103  aa  154 145 164 145
    000104  aa  137 155 145 163
    000105  aa  163 141 147 145
    000106  aa  137 151 144 000
    000107  55   000067 000046
    000110  0a   000012 500000
    000111  55   000062 000003
    000112  aa  020 160 162 151         priv_add_message
    000113  aa  166 137 141 144
    000114  aa  144 137 155 145
    000115  aa  163 163 141 147
    000116  aa  145 000 000 000
    000117  55   000077 000057
    000120  0a   000007 500000
    000121  55   000072 000003
    000122  aa  020 160 162 151         priv_system_init
    000123  aa  166 137 163 171
    000124  aa  163 164 145 155
    000125  aa  137 151 156 151
    000126  aa  164 000 000 000
    000127  55   000002 000067
    000130  6a   000000 400002
    000131  55   000102 000003
    000132  aa  014 163 171 155         symbol_table
    000133  aa  142 157 154 137
    000134  aa  164 141 142 154
    000135  aa  145 000 000 000

DEFINITIONS HASH TABLE

    000136  aa   000000 000015
    000137  aa   000000 000000
    000140  aa   000000 000000
    000141  5a   000057 000000
    000142  5a   000067 000000
    000143  aa   000000 000000
    000144  aa   000000 000000
    000145  5a   000013 000000
    000146  5a   000023 000000
    000147  5a   000033 000000
    000150  5a   000077 000000
    000151  aa   000000 000000
    000152  5a   000046 000000
    000153  aa   000000 000000

EXTERNAL NAMES

    000154  aa  023 165 163 145         user_message_admin_
    000155  aa  162 137 155 145
    000156  aa  163 163 141 147
    000157  aa  145 137 141 144
    000160  aa  155 151 156 137
    000161  aa  014 162 145 141         read_message
    000162  aa  144 137 155 145
    000163  aa  163 163 141 147
    000164  aa  145 000 000 000
    000165  aa  015 165 163 145         user_message_
    000166  aa  162 137 155 145
    000167  aa  163 163 141 147
    000170  aa  145 137 000 000
    000171  aa  027 144 145 154         delete_process_messages
    000172  aa  145 164 145 137
    000173  aa  160 162 157 143
    000174  aa  145 163 163 137
    000175  aa  155 145 163 163
    000176  aa  141 147 145 163
    000177  aa  021 144 145 154         delete_message_id
    000200  aa  145 164 145 137
    000201  aa  155 145 163 163
    000202  aa  141 147 145 137
    000203  aa  151 144 000 000
    000204  aa  013 141 144 144         add_message
    000205  aa  137 155 145 163
    000206  aa  163 141 147 145
    000207  aa  013 163 171 163         system_init
    000210  aa  164 145 155 137
    000211  aa  151 156 151 164
    000212  aa  022 165 163 145         user_message_priv_
    000213  aa  162 137 155 145
    000214  aa  163 163 141 147
    000215  aa  145 137 160 162
    000216  aa  151 166 137 000

NO TRAP POINTER WORDS

TYPE PAIR BLOCKS

    000217  aa   000004 000000
    000220  55   000124 000131
    000221  aa   000004 000000
    000222  55   000135 000131
    000223  aa   000004 000000
    000224  55   000162 000141
    000225  aa   000004 000000
    000226  55   000162 000147
    000227  aa   000004 000000
    000230  55   000162 000154
    000231  aa   000004 000000
    000232  55   000162 000157
    000233  aa   000001 000000
    000234  aa   000000 000000

INTERNAL EXPRESSION WORDS

    000235  5a   000167 000000
    000236  5a   000171 000000
    000237  5a   000173 000000
    000240  5a   000175 000000
    000241  5a   000177 000000
    000242  5a   000201 000000
    000243  aa   000000 000000
LINKAGE INFORMATION

    000000  aa   000000 000000
    000001  0a   000030 000000
    000002  aa   000000 000000
    000003  aa   000000 000000
    000004  aa   000000 000000
    000005  aa   000000 000000
    000006  22   000010 000024
    000007  a2   000000 000000
    000010  9a   777770 0000 46         user_message_priv_|system_init
    000011  5a   000212 0000 00
    000012  9a   777766 0000 46         user_message_priv_|add_message
    000013  5a   000211 0000 00
    000014  9a   777764 0000 46         user_message_priv_|delete_message_id
    000015  5a   000210 0000 00
    000016  9a   777762 0000 46         user_message_priv_|delete_process_messages
    000017  5a   000207 0000 00
    000020  9a   777760 0000 46         user_message_|read_message
    000021  5a   000206 0000 00
    000022  9a   777756 0000 46         user_message_admin_|read_message
    000023  5a   000205 0000 00
SYMBOL INFORMATION

SYMBOL TABLE HEADER

    000000  aa   000000 000001
    000001  aa   163171 155142
    000002  aa   164162 145145
    000003  aa   000000 000004
    000004  aa   000000 112143
    000005  aa   305203 523135
    000006  aa   000000 113420
    000007  aa   407720 745077
    000010  aa   141154 155040
    000011  aa   040040 040040
    000012  aa   000024 000040
    000013  aa   000034 000040
    000014  aa   000044 000100
    000015  aa   000002 000002
    000016  aa   000064 000000
    000017  aa   000000 000125
    000020  aa   000000 000104
    000021  aa   000000 000112
    000022  aa   000117 000104
    000023  aa   000064 000000
    000024  aa   101114 115040
    000025  aa   126145 162163
    000026  aa   151157 156040
    000027  aa   040066 056066
    000030  aa   040040 116157
    000031  aa   166145 155142
    000032  aa   145162 040061
    000033  aa   071070 062040
    000034  aa   107112 157150
    000035  aa   156163 157156
    000036  aa   056123 171163
    000037  aa   115141 151156
    000040  aa   164056 141040
    000041  aa   040040 040040
    000042  aa   040040 040040
    000043  aa   040040 040040
    000044  aa   154151 163164
    000045  aa   040040 040040
    000046  aa   040040 040040
    000047  aa   040040 040040
    000050  aa   040040 040040
    000051  aa   040040 040040
    000052  aa   040040 040040
    000053  aa   040040 040040
    000054  aa   040040 040040
    000055  aa   040040 040040
    000056  aa   040040 040040
    000057  aa   040040 040040
    000060  aa   040040 040040
    000061  aa   040040 040040
    000062  aa   040040 040040
    000063  aa   040040 040040
    000064  aa   000000 000001
    000065  aa   000000 000001
    000066  aa   000072 000050
    000067  aa   134174 165214
    000070  aa   000000 113420
    000071  aa   346732 000000
    000072  aa   076163 160145          >spec>on>online.pbf>as_user_message_.alm
    000073  aa   143076 157156
    000074  aa   076157 156154
    000075  aa   151156 145056
    000076  aa   160142 146076
    000077  aa   141163 137165
    000100  aa   163145 162137
    000101  aa   155145 163163
    000102  aa   141147 145137
    000103  aa   056141 154155
               MULTICS ASSEMBLY CROSS REFERENCE LISTING

   Value        Symbol                   Source file   Line number

                add_message              as_user_message_:    18.
           5    admin_read_message       as_user_message_:    22.
                delete_message_id        as_user_message_:    19.
                delete_process_messages  as_user_message_:    20.
           1    priv_add_message         as_user_message_:    18.
           2    priv_delete_message_id   as_user_message_:    19.
           3    priv_delete_process_messages   as_user_message_:    20.
           0    priv_system_init         as_user_message_:    17.
                read_message             as_user_message_:    21,   22.
                system_init              as_user_message_:    17.
                user_message_            as_user_message_:    21.
                user_message_admin_      as_user_message_:    22.
                user_message_priv_       as_user_message_:    17,   18,   19,   20.
           4    user_read_message        as_user_message_:    21.


NO FATAL ERRORS


                                          -----------------------------------------------------------


Historical Background

This edition of the Multics software materials and documentation is provided and donated
to Massachusetts Institute of Technology by Group BULL including BULL HN Information Systems Inc.
as a contribution to computer science knowledge.
This donation is made also to give evidence of the common contributions of Massachusetts Institute of Technology,
Bell Laboratories, General Electric, Honeywell Information Systems Inc., Honeywell BULL Inc., Groupe BULL
and BULL HN Information Systems Inc. to the development of this operating system.
Multics development was initiated by Massachusetts Institute of Technology Project MAC (1963-1970),
renamed the MIT Laboratory for Computer Science and Artificial Intelligence in the mid 1970s, under the leadership
of Professor Fernando Jose Corbato. Users consider that Multics provided the best software architecture
for managing computer hardware properly and for executing programs. Many subsequent operating systems
incorporated Multics principles.
Multics was distributed in 1975 to 2000 by Group Bull in Europe , and in the U.S. by Bull HN Information Systems Inc.,
as successor in interest by change in name only to Honeywell Bull Inc. and Honeywell Information Systems Inc. .

                                          -----------------------------------------------------------

Permission to use, copy, modify, and distribute these programs and their documentation for any purpose and without
fee is hereby granted,provided that the below copyright notice and historical background appear in all copies
and that both the copyright notice and historical background and this permission notice appear in supporting
documentation, and that the names of MIT, HIS, BULL or BULL HN not be used in advertising or publicity pertaining
to distribution of the programs without specific prior written permission.
    Copyright 1972 by Massachusetts Institute of Technology and Honeywell Information Systems Inc.
    Copyright 2006 by BULL HN Information Systems Inc.
    Copyright 2006 by Bull SAS
    All Rights Reserved
