	COMPILATION LISTING OF SEGMENT asin_
	Compiled by: Multics PL/I Compiler, Release 33e, of October 6, 1992
	Compiled at: CGI
	Compiled on: 2000-04-18_1152.54_Tue_mdt
	    Options: optimize map

        1 /* ******************************************************
        2*   *                                                    *
        3*   *                                                    *
        4*   * Copyright (c) 1974 by Massachusetts Institute of   *
        5*   * Technology and Honeywell Information Systems, Inc. *
        6*   *                                                    *
        7*   *                                                    *
        8*   ****************************************************** */
        9
       10 asin_: procedure (value) returns (float binary (27));
       11
       12 /*     compute the arcsine, arccosine, or arctangent of a single-precision floating-point number     */
       13
       14 declare	value float binary (27),
       15 	code_ entry(fixed bin),
       16 	(abs, atan, atand, sqrt) builtin;
       17
       18 	if abs(value) > 1.e0 then go to out_of_range;
       19 	return(atan(value, sqrt(-value*value+1.e0)));
       20
       21 acos_:	entry(value) returns(float bin(27));
       22 	if abs(value) > 1.e0
       23 	then do;
       24
       25 out_of_range:
       26 	     call code_(58);
       27 	     return (0e0);
       28 	     end;
       29 	return(atan(sqrt(-value*value+1.e0), value));
       30
       31 asind_:	entry(value) returns(float bin(27));
       32 	if abs(value) > 1.e0 then go to out_of_range;
       33 	return(atand(value, sqrt(-value*value+1.e0)));
       34
       35 acosd_:	entry(value) returns(float bin(27));
       36 	if abs(value) > 1.e0 then go to out_of_range;
       37 	return(atand(sqrt(-value*value+1.e0), value));
       38
       39 atan_:	entry(value) returns(float bin(27));
       40 	return(atan(value));
       41
       42 atand_:	entry(value) returns(float bin(27));
       43 	return(atand(value));
       44 	end;
	SOURCE FILES USED IN THIS COMPILATION.

LINE      NUMBER  DATE MODIFIED     NAME			PATHNAME
             0    04/18/00  1152.5  asin_.pl1                         >udd>sm>ds>w>ml>asin_.pl1
	NAMES DECLARED IN THIS COMPILATION.

IDENTIFIER	     OFFSET    LOC STORAGE CLASS   DATA TYPE		ATTRIBUTES AND REFERENCES
								(* indicates a set context)

NAMES DECLARED BY DECLARE STATEMENT.
abs                                                    builtin function         dcl 14 ref 18 22 32 36
atan                                                   builtin function         dcl 14 ref 19 29 40
atand                                                  builtin function         dcl 14 ref 33 37 43
code_                           000010 constant        entry                    external dcl 14 ref 25
sqrt                                                   builtin function         dcl 14 ref 19 29 33 37
value                                  parameter       float bin(27)            dcl 14 ref 10 18 19 19 19 21 22 29 29 29 31 32 33 33
                                                                                  33 35 36 37 37 37 39 40 42 43

NAMES DECLARED BY EXPLICIT CONTEXT.
acos_                           000041 constant        entry                    external dcl 21
acosd_                          000144 constant        entry                    external dcl 35
asin_                           000005 constant        entry                    external dcl 10
asind_                          000110 constant        entry                    external dcl 31
atan_                           000176 constant        entry                    external dcl 39
atand_                          000214 constant        entry                    external dcl 42
out_of_range                    000054 constant        label                    dcl 25 ref 18 32 36

THERE WERE NO NAMES DECLARED BY CONTEXT OR IMPLICATION.

STORAGE REQUIREMENTS FOR THIS PROGRAM.

	Object	Text	Link	Symbol	Defs	Static
Start          0       0       312         324     230         322
Length       472     230        12         131      61           0

BLOCK NAME	         STACK SIZE     TYPE		WHY NONQUICK/WHO SHARES STACK FRAME
asin_                                97 external procedure  is an external procedure.

THE FOLLOWING EXTERNAL OPERATORS ARE USED BY THIS PROGRAM.
call_ext_out        return_mac          ext_entry           square_root_        arc_tangent_radians_arc_tangent_degrees_
arc_tangent_radians_arc_tangent_degrees_2_

THE FOLLOWING EXTERNAL ENTRIES ARE CALLED BY THIS PROGRAM.
code_

NO EXTERNAL VARIABLES ARE USED BY THIS PROGRAM.


   LINE    LOC      LINE    LOC      LINE    LOC      LINE    LOC      LINE    LOC      LINE    LOC      LINE    LOC
     10 000001        18 000012        19 000020        21 000037        22 000046        25 000054        27 000065
     29 000071        31 000106        32 000115        33 000123        35 000142        36 000151        37 000157
     39 000174        40 000203        42 000212        43 000221


                                          -----------------------------------------------------------


Historical Background

This edition of the Multics software materials and documentation is provided and donated
to Massachusetts Institute of Technology by Group BULL including BULL HN Information Systems Inc.
as a contribution to computer science knowledge.
This donation is made also to give evidence of the common contributions of Massachusetts Institute of Technology,
Bell Laboratories, General Electric, Honeywell Information Systems Inc., Honeywell BULL Inc., Groupe BULL
and BULL HN Information Systems Inc. to the development of this operating system.
Multics development was initiated by Massachusetts Institute of Technology Project MAC (1963-1970),
renamed the MIT Laboratory for Computer Science and Artificial Intelligence in the mid 1970s, under the leadership
of Professor Fernando Jose Corbato. Users consider that Multics provided the best software architecture
for managing computer hardware properly and for executing programs. Many subsequent operating systems
incorporated Multics principles.
Multics was distributed in 1975 to 2000 by Group Bull in Europe , and in the U.S. by Bull HN Information Systems Inc.,
as successor in interest by change in name only to Honeywell Bull Inc. and Honeywell Information Systems Inc. .

                                          -----------------------------------------------------------

Permission to use, copy, modify, and distribute these programs and their documentation for any purpose and without
fee is hereby granted,provided that the below copyright notice and historical background appear in all copies
and that both the copyright notice and historical background and this permission notice appear in supporting
documentation, and that the names of MIT, HIS, BULL or BULL HN not be used in advertising or publicity pertaining
to distribution of the programs without specific prior written permission.
    Copyright 1972 by Massachusetts Institute of Technology and Honeywell Information Systems Inc.
    Copyright 2006 by BULL HN Information Systems Inc.
    Copyright 2006 by Bull SAS
    All Rights Reserved
