ASSEMBLY LISTING OF SEGMENT >spec>on>pl128d>binoct.alm
ASSEMBLED ON:	10/03/83  1348.7 mst Mon
OPTIONS USED:	list
ASSEMBLED BY:	ALM Version  6.6  November 1982
ASSEMBLER CREATED:	09/21/83  1227.3 mst Wed

                                     1  " ***********************************************************
                                     2  " *                                                         *
                                     3  " * Copyright, (C) Honeywell Information Systems Inc., 1982 *
                                     4  " *                                                         *
                                     5  " * Copyright (c) 1972 by Massachusetts Institute of        *
                                     6  " * Technology and Honeywell Information Systems, Inc.      *
                                     7  " *                                                         *
                                     8  " ***********************************************************
                                     9
                                    10  " BINOCT - BINARY TO OCTAL ASCII CONVERSION FOR PL/1 PROGRAMS
                                    11  "	4/2/74 - Richard A. Barnes
                                    12  "	Improved 9/3/76 by Noel I. Morris
                                    13  "
                                    14  " This version based on bin_to_oct by Gordon Benedict
                                    15  "
                                    16  " Calling sequence:
                                    17  "
                                    18  " dcl	b36 aligned bit(36), s12 aligned char(12),
                                    19  "	binoct entry(aligned bit(36)) returns(aligned char(12));
                                    20  "
                                    21  "	s12 = binoct(b36);
                                    22  "
                        000000      23  	segdef	binoct
                                    24  "
                        000000      25  	equ	pr0,0
                        000001      26  	equ	pr1,1
                        000002      27  	equ	pr2,2
                                    28  "
    000000                          29  binoct:
    000000  aa  0 00002 3515 20     30  	epp1	pr0|2,*		get ptr to number to be converted
    000001  aa  0 00004 3521 20     31  	epp2	pr0|4,*		get ptr to result
                                    32  "
                                    33  "	we will use last few bytes of the result string
                                    34  "	as a temporary location for the translation
                                    35  "
    000002  aa  0 00100 1605 00     36  	mvt	(pr),(pr)		unpack and translate
    000003  aa   100000 020006      37  	desc6a	pr1|0,6		6-bit bytes...
    000004  aa   200001 400006      38  	desc9a	pr2|1(2),6	-> 9-bit bytes...
    000005  0a   000012 0000 00     39  	arg	table		under translation
                                    40  "
    000006  aa  0 00100 3005 00     41  	mvn	(pr),(pr)		make into ASCII
    000007  aa   200001 470014      42  	desc4ns	pr2|1(4),12	4-bit bytes...
    000010  aa   200000 030014      43  	desc9ns	pr2|0,12		-> 9-bit bytes
                                    44  "
    000011  aa  7 00044 7101 20     45  	short_return
                                    46  "
    000012                          47  table:
    000012  aa   000001 002003      48  	vfd	5/0,4/0,5/0,4/1,5/0,4/2,5/0,4/3,5/0,4/4,5/0,4/5,5/0,4/6,5/0,4/7
    000013  aa   004005 006007
    000014  aa   020021 022023      49  	vfd	5/1,4/0,5/1,4/1,5/1,4/2,5/1,4/3,5/1,4/4,5/1,4/5,5/1,4/6,5/1,4/7
    000015  aa   024025 026027
    000016  aa   040041 042043      50  	vfd	5/2,4/0,5/2,4/1,5/2,4/2,5/2,4/3,5/2,4/4,5/2,4/5,5/2,4/6,5/2,4/7
    000017  aa   044045 046047
    000020  aa   060061 062063      51  	vfd	5/3,4/0,5/3,4/1,5/3,4/2,5/3,4/3,5/3,4/4,5/3,4/5,5/3,4/6,5/3,4/7
    000021  aa   064065 066067
    000022  aa   100101 102103      52  	vfd	5/4,4/0,5/4,4/1,5/4,4/2,5/4,4/3,5/4,4/4,5/4,4/5,5/4,4/6,5/4,4/7
    000023  aa   104105 106107
    000024  aa   120121 122123      53  	vfd	5/5,4/0,5/5,4/1,5/5,4/2,5/5,4/3,5/5,4/4,5/5,4/5,5/5,4/6,5/5,4/7
    000025  aa   124125 126127
    000026  aa   140141 142143      54  	vfd	5/6,4/0,5/6,4/1,5/6,4/2,5/6,4/3,5/6,4/4,5/6,4/5,5/6,4/6,5/6,4/7
    000027  aa   144145 146147
    000030  aa   160161 162163      55  	vfd	5/7,4/0,5/7,4/1,5/7,4/2,5/7,4/3,5/7,4/4,5/7,4/5,5/7,4/6,5/7,4/7
    000031  aa   164165 166167
                                    56  "
                                    57  	end

NO LITERALS

NAME DEFINITIONS FOR ENTRY POINTS AND SEGDEFS

    000032  5a   000003 000000
    000033  5a   000024 600000
    000034  aa   000000 000000
    000035  55   000010 000002
    000036  5a   000002 400003
    000037  55   000006 000010
    000040  aa  006 142 151 156
    000041  aa  157 143 164 000
    000042  55   000015 000003
    000043  0a   000000 400000
    000044  55   000013 000003
    000045  aa  006 142 151 156         binoct
    000046  aa  157 143 164 000
    000047  55   000002 000010
    000050  6a   000000 400002
    000051  55   000020 000003
    000052  aa  014 163 171 155         symbol_table
    000053  aa  142 157 154 137
    000054  aa  164 141 142 154
    000055  aa  145 000 000 000

DEFINITIONS HASH TABLE

    000056  aa   000000 000015
    000057  5a   000010 000000
    000060  aa   000000 000000
    000061  aa   000000 000000
    000062  aa   000000 000000
    000063  aa   000000 000000
    000064  aa   000000 000000
    000065  5a   000015 000000
    000066  aa   000000 000000
    000067  aa   000000 000000
    000070  aa   000000 000000
    000071  aa   000000 000000
    000072  aa   000000 000000
    000073  aa   000000 000000

NO EXTERNAL NAMES

NO TRAP POINTER WORDS

TYPE PAIR BLOCKS

    000074  aa   000001 000000
    000075  aa   000000 000000

INTERNAL EXPRESSION WORDS

LINKAGE INFORMATION

    000000  aa   000000 000000
    000001  0a   000032 000000
    000002  aa   000000 000000
    000003  aa   000000 000000
    000004  aa   000000 000000
    000005  aa   000000 000000
    000006  22   000010 000010
    000007  a2   000000 000000
SYMBOL INFORMATION

SYMBOL TABLE HEADER

    000000  aa   000000 000001
    000001  aa   163171 155142
    000002  aa   164162 145145
    000003  aa   000000 000004
    000004  aa   000000 112143
    000005  aa   305203 523135
    000006  aa   000000 112162
    000007  aa   426336 657363
    000010  aa   141154 155040
    000011  aa   040040 040040
    000012  aa   000024 000040
    000013  aa   000034 000040
    000014  aa   000044 000100
    000015  aa   000002 000002
    000016  aa   000064 000000
    000017  aa   000000 000116
    000020  aa   000000 000101
    000021  aa   000000 000105
    000022  aa   000110 000101
    000023  aa   000064 000000
    000024  aa   101114 115040
    000025  aa   126145 162163
    000026  aa   151157 156040
    000027  aa   040066 056066
    000030  aa   040040 116157
    000031  aa   166145 155142
    000032  aa   145162 040061
    000033  aa   071070 062040
    000034  aa   107112 157150
    000035  aa   156163 157156
    000036  aa   056123 171163
    000037  aa   115141 151156
    000040  aa   164056 155040
    000041  aa   040040 040040
    000042  aa   040040 040040
    000043  aa   040040 040040
    000044  aa   154151 163164
    000045  aa   040040 040040
    000046  aa   040040 040040
    000047  aa   040040 040040
    000050  aa   040040 040040
    000051  aa   040040 040040
    000052  aa   040040 040040
    000053  aa   040040 040040
    000054  aa   040040 040040
    000055  aa   040040 040040
    000056  aa   040040 040040
    000057  aa   040040 040040
    000060  aa   040040 040040
    000061  aa   040040 040040
    000062  aa   040040 040040
    000063  aa   040040 040040
    000064  aa   000000 000001
    000065  aa   000000 000001
    000066  aa   000072 000032
    000067  aa   121622 265041
    000070  aa   000000 112162
    000071  aa   263263 200000
    000072  aa   076163 160145          >spec>on>pl128d>binoct.alm
    000073  aa   143076 157156
    000074  aa   076160 154061
    000075  aa   062070 144076
    000076  aa   142151 156157
    000077  aa   143164 056141
    000100  aa   154155 040040
               MULTICS ASSEMBLY CROSS REFERENCE LISTING

   Value        Symbol                   Source file   Line number

           0    binoct                   binoct:        23,   29.
           0    pr0                      binoct:        25.
           1    pr1                      binoct:        26.
           2    pr2                      binoct:        27.
          12    table                    binoct:        39,   47.


NO FATAL ERRORS


                                          -----------------------------------------------------------


Historical Background

This edition of the Multics software materials and documentation is provided and donated
to Massachusetts Institute of Technology by Group BULL including BULL HN Information Systems Inc.
as a contribution to computer science knowledge.
This donation is made also to give evidence of the common contributions of Massachusetts Institute of Technology,
Bell Laboratories, General Electric, Honeywell Information Systems Inc., Honeywell BULL Inc., Groupe BULL
and BULL HN Information Systems Inc. to the development of this operating system.
Multics development was initiated by Massachusetts Institute of Technology Project MAC (1963-1970),
renamed the MIT Laboratory for Computer Science and Artificial Intelligence in the mid 1970s, under the leadership
of Professor Fernando Jose Corbato. Users consider that Multics provided the best software architecture
for managing computer hardware properly and for executing programs. Many subsequent operating systems
incorporated Multics principles.
Multics was distributed in 1975 to 2000 by Group Bull in Europe , and in the U.S. by Bull HN Information Systems Inc.,
as successor in interest by change in name only to Honeywell Bull Inc. and Honeywell Information Systems Inc. .

                                          -----------------------------------------------------------

Permission to use, copy, modify, and distribute these programs and their documentation for any purpose and without
fee is hereby granted,provided that the below copyright notice and historical background appear in all copies
and that both the copyright notice and historical background and this permission notice appear in supporting
documentation, and that the names of MIT, HIS, BULL or BULL HN not be used in advertising or publicity pertaining
to distribution of the programs without specific prior written permission.
    Copyright 1972 by Massachusetts Institute of Technology and Honeywell Information Systems Inc.
    Copyright 2006 by BULL HN Information Systems Inc.
    Copyright 2006 by Bull SAS
    All Rights Reserved
