ASSEMBLY LISTING OF SEGMENT >spec>on>7138.pbf>bjm_no_firstref_tv_.alm
ASSEMBLED ON:	03/05/85  0838.7 mst Tue
OPTIONS USED:	list
ASSEMBLED BY:	ALM Version  6.6  November 1982
ASSEMBLER CREATED:	09/21/83  1227.3 mst Wed

                                     1  " ***********************************************************
                                     2  " *                                                         *
                                     3  " * Copyright, (C) Honeywell Information Systems Inc., 1983 *
                                     4  " *                                                         *
                                     5  " ***********************************************************
                                     6  "
                                     7  "  DESCRIPTION:
                                     8  "
                                     9  "	  This is one of the two Data Management before journal manager
                                    10  "     DM ring transfer vectors.  This one, bjm_no_firstref_tv_, is for each
                                    11  "     before journal manager entry which does not require Data Management
                                    12  "     per-process initialization to have been executed at some time before
                                    13  "     the before journal manager entry itself is executed.  Entries which
                                    14  "     require Data Management per-process initialization go through
                                    15  "     bjm_firstref_tv_, which has a first reference trap which runs
                                    16  "     per-process initialization the first time bjm_firstref_tv_ is
                                    17  "     invoked.
                                    18  "
                                    19  " HISTORY:
                                    20  "
                                    21  " Written by Lee A. Newcomb, 12/14/84.
                                    22  " Modified:
                                    23  "
                                    24  " " " " " " " " " " " " " " " " " " " " " " " " " " " " " " " " " " " "
                                    25
                                    26
    000000                          27  	name	bjm_no_firstref_tv_
                                    28
                                    29  	macro	transfer
                              1     30  	entry	&1
                              2     31  &1:
                              3     32  	tra	&2
                              4     33
                              5     34  	&end
                                    35
                                    36
                                    37  	transfer	add_acl_entries,bjm_attribute_$add_acl_entries
                        000000          	entry	add_acl_entries
    000000                              add_acl_entries:
    000000  4a  4 00010 7101 20         	tra	bjm_attribute_$add_acl_entries

                                    38  	transfer	chname_file,bjm_attribute_$chname_file
                        000001          	entry	chname_file
    000001                              chname_file:
    000001  4a  4 00012 7101 20         	tra	bjm_attribute_$chname_file

                                    39  	transfer	delete_acl_entries,bjm_attribute_$delete_acl_entries
                        000002          	entry	delete_acl_entries
    000002                              delete_acl_entries:
    000002  4a  4 00014 7101 20         	tra	bjm_attribute_$delete_acl_entries

                                    40  	transfer	get_user_access_modes,bjm_attribute_$get_user_access_modes
                        000003          	entry	get_user_access_modes
    000003                              get_user_access_modes:
    000003  4a  4 00016 7101 20         	tra	bjm_attribute_$get_user_access_modes

                                    41  	transfer	list_acl,bjm_attribute_$list_acl
                        000004          	entry	list_acl
    000004                              list_acl:
    000004  4a  4 00020 7101 20         	tra	bjm_attribute_$list_acl

                                    42  	transfer	replace_acl,bjm_attribute_$replace_acl
                        000005          	entry	replace_acl
    000005                              replace_acl:
    000005  4a  4 00022 7101 20         	tra	bjm_attribute_$replace_acl

                                    43            transfer	validate,bjm_attribute_$validate
                        000006          	entry	validate
    000006                              validate:
    000006  4a  4 00024 7101 20         	tra	bjm_attribute_$validate

                                    44
                                    45  	end
ENTRY SEQUENCES

    000007  5a   000064 0000 00
    000010  aa  7 00046 2721 20
    000011  0a   000000 7100 00
    000012  5a   000056 0000 00
    000013  aa  7 00046 2721 20
    000014  0a   000001 7100 00
    000015  5a   000046 0000 00
    000016  aa  7 00046 2721 20
    000017  0a   000002 7100 00
    000020  5a   000035 0000 00
    000021  aa  7 00046 2721 20
    000022  0a   000003 7100 00
    000023  5a   000027 0000 00
    000024  aa  7 00046 2721 20
    000025  0a   000004 7100 00
    000026  5a   000021 0000 00
    000027  aa  7 00046 2721 20
    000030  0a   000005 7100 00
    000031  5a   000013 0000 00
    000032  aa  7 00046 2721 20
    000033  0a   000006 7100 00

NO LITERALS

NAME DEFINITIONS FOR ENTRY POINTS AND SEGDEFS

    000034  5a   000003 000000
    000035  5a   000102 600000
    000036  aa   000000 000000
    000037  55   000013 000002
    000040  5a   000002 400003
    000041  55   000006 000013
    000042  aa  023 142 152 155
    000043  aa  137 156 157 137
    000044  aa  146 151 162 163
    000045  aa  164 162 145 146
    000046  aa  137 164 166 137
    000047  55   000021 000003
    000050  0a   000032 500000
    000051  55   000016 000003
    000052  aa  010 166 141 154         validate
    000053  aa  151 144 141 164
    000054  aa  145 000 000 000
    000055  55   000027 000013
    000056  0a   000027 500000
    000057  55   000024 000003
    000060  aa  013 162 145 160         replace_acl
    000061  aa  154 141 143 145
    000062  aa  137 141 143 154
    000063  55   000035 000021
    000064  0a   000024 500000
    000065  55   000032 000003
    000066  aa  010 154 151 163         list_acl
    000067  aa  164 137 141 143
    000070  aa  154 000 000 000
    000071  55   000046 000027
    000072  0a   000021 500000
    000073  55   000040 000003
    000074  aa  025 147 145 164         get_user_access_modes
    000075  aa  137 165 163 145
    000076  aa  162 137 141 143
    000077  aa  143 145 163 163
    000100  aa  137 155 157 144
    000101  aa  145 163 000 000
    000102  55   000056 000035
    000103  0a   000016 500000
    000104  55   000051 000003
    000105  aa  022 144 145 154         delete_acl_entries
    000106  aa  145 164 145 137
    000107  aa  141 143 154 137
    000110  aa  145 156 164 162
    000111  aa  151 145 163 000
    000112  55   000064 000046
    000113  0a   000013 500000
    000114  55   000061 000003
    000115  aa  013 143 150 156         chname_file
    000116  aa  141 155 145 137
    000117  aa  146 151 154 145
    000120  55   000073 000056
    000121  0a   000010 500000
    000122  55   000067 000003
    000123  aa  017 141 144 144         add_acl_entries
    000124  aa  137 141 143 154
    000125  aa  137 145 156 164
    000126  aa  162 151 145 163
    000127  55   000002 000064
    000130  6a   000000 400002
    000131  55   000076 000003
    000132  aa  014 163 171 155         symbol_table
    000133  aa  142 157 154 137
    000134  aa  164 141 142 154
    000135  aa  145 000 000 000

DEFINITIONS HASH TABLE

    000136  aa   000000 000015
    000137  5a   000073 000000
    000140  aa   000000 000000
    000141  aa   000000 000000
    000142  aa   000000 000000
    000143  aa   000000 000000
    000144  aa   000000 000000
    000145  5a   000013 000000
    000146  5a   000021 000000
    000147  5a   000046 000000
    000150  5a   000056 000000
    000151  5a   000035 000000
    000152  5a   000027 000000
    000153  5a   000064 000000

EXTERNAL NAMES

    000154  aa  016 142 152 155         bjm_attribute_
    000155  aa  137 141 164 164
    000156  aa  162 151 142 165
    000157  aa  164 145 137 000

NO TRAP POINTER WORDS

TYPE PAIR BLOCKS

    000160  aa   000004 000000
    000161  55   000120 000016
    000162  aa   000004 000000
    000163  55   000120 000024
    000164  aa   000004 000000
    000165  55   000120 000032
    000166  aa   000004 000000
    000167  55   000120 000040
    000170  aa   000004 000000
    000171  55   000120 000051
    000172  aa   000004 000000
    000173  55   000120 000061
    000174  aa   000004 000000
    000175  55   000120 000067
    000176  aa   000001 000000
    000177  aa   000000 000000

INTERNAL EXPRESSION WORDS

    000200  5a   000124 000000
    000201  5a   000126 000000
    000202  5a   000130 000000
    000203  5a   000132 000000
    000204  5a   000134 000000
    000205  5a   000136 000000
    000206  5a   000140 000000
    000207  aa   000000 000000
LINKAGE INFORMATION

    000000  aa   000000 000000
    000001  0a   000034 000000
    000002  aa   000000 000000
    000003  aa   000000 000000
    000004  aa   000000 000000
    000005  aa   000000 000000
    000006  22   000010 000026
    000007  a2   000000 000000
    000010  9a   777770 0000 46         bjm_attribute_|add_acl_entries
    000011  5a   000152 0000 00
    000012  9a   777766 0000 46         bjm_attribute_|chname_file
    000013  5a   000151 0000 00
    000014  9a   777764 0000 46         bjm_attribute_|delete_acl_entries
    000015  5a   000150 0000 00
    000016  9a   777762 0000 46         bjm_attribute_|get_user_access_modes
    000017  5a   000147 0000 00
    000020  9a   777760 0000 46         bjm_attribute_|list_acl
    000021  5a   000146 0000 00
    000022  9a   777756 0000 46         bjm_attribute_|replace_acl
    000023  5a   000145 0000 00
    000024  9a   777754 0000 46         bjm_attribute_|validate
    000025  5a   000144 0000 00
SYMBOL INFORMATION

SYMBOL TABLE HEADER

    000000  aa   000000 000001
    000001  aa   163171 155142
    000002  aa   164162 145145
    000003  aa   000000 000004
    000004  aa   000000 112143
    000005  aa   305203 523135
    000006  aa   000000 113376
    000007  aa   633642 410412
    000010  aa   141154 155040
    000011  aa   040040 040040
    000012  aa   000024 000040
    000013  aa   000034 000040
    000014  aa   000044 000100
    000015  aa   000002 000002
    000016  aa   000064 000000
    000017  aa   000000 000127
    000020  aa   000000 000105
    000021  aa   000000 000113
    000022  aa   000121 000105
    000023  aa   000064 000000
    000024  aa   101114 115040
    000025  aa   126145 162163
    000026  aa   151157 156040
    000027  aa   040066 056066
    000030  aa   040040 116157
    000031  aa   166145 155142
    000032  aa   145162 040061
    000033  aa   071070 062040
    000034  aa   107112 157150
    000035  aa   156163 157156
    000036  aa   056123 171163
    000037  aa   115141 151156
    000040  aa   164056 155040
    000041  aa   040040 040040
    000042  aa   040040 040040
    000043  aa   040040 040040
    000044  aa   154151 163164
    000045  aa   040040 040040
    000046  aa   040040 040040
    000047  aa   040040 040040
    000050  aa   040040 040040
    000051  aa   040040 040040
    000052  aa   040040 040040
    000053  aa   040040 040040
    000054  aa   040040 040040
    000055  aa   040040 040040
    000056  aa   040040 040040
    000057  aa   040040 040040
    000060  aa   040040 040040
    000061  aa   040040 040040
    000062  aa   040040 040040
    000063  aa   040040 040040
    000064  aa   000000 000001
    000065  aa   000000 000001
    000066  aa   000072 000051
    000067  aa   133727 541715
    000070  aa   000000 113376
    000071  aa   610512 400000
    000072  aa   076163 160145          >spec>on>7138.pbf>bjm_no_firstref_tv_.alm
    000073  aa   143076 157156
    000074  aa   076067 061063
    000075  aa   070056 160142
    000076  aa   146076 142152
    000077  aa   155137 156157
    000100  aa   137146 151162
    000101  aa   163164 162145
    000102  aa   146137 164166
    000103  aa   137056 141154
    000104  aa   155040 040040
               MULTICS ASSEMBLY CROSS REFERENCE LISTING

   Value        Symbol                   Source file   Line number

           0    add_acl_entries          bjm_no_firstref_tv_:       37.
                bjm_attribute_           bjm_no_firstref_tv_:       37,   38,   39,   40,   41,   42,   43.
           1    chname_file              bjm_no_firstref_tv_:       38.
           2    delete_acl_entries       bjm_no_firstref_tv_:       39.
           3    get_user_access_modes    bjm_no_firstref_tv_:       40.
           4    list_acl                 bjm_no_firstref_tv_:       41.
           5    replace_acl              bjm_no_firstref_tv_:       42.
           6    validate                 bjm_no_firstref_tv_:       43.


NO FATAL ERRORS


                                          -----------------------------------------------------------


Historical Background

This edition of the Multics software materials and documentation is provided and donated
to Massachusetts Institute of Technology by Group BULL including BULL HN Information Systems Inc.
as a contribution to computer science knowledge.
This donation is made also to give evidence of the common contributions of Massachusetts Institute of Technology,
Bell Laboratories, General Electric, Honeywell Information Systems Inc., Honeywell BULL Inc., Groupe BULL
and BULL HN Information Systems Inc. to the development of this operating system.
Multics development was initiated by Massachusetts Institute of Technology Project MAC (1963-1970),
renamed the MIT Laboratory for Computer Science and Artificial Intelligence in the mid 1970s, under the leadership
of Professor Fernando Jose Corbato. Users consider that Multics provided the best software architecture
for managing computer hardware properly and for executing programs. Many subsequent operating systems
incorporated Multics principles.
Multics was distributed in 1975 to 2000 by Group Bull in Europe , and in the U.S. by Bull HN Information Systems Inc.,
as successor in interest by change in name only to Honeywell Bull Inc. and Honeywell Information Systems Inc. .

                                          -----------------------------------------------------------

Permission to use, copy, modify, and distribute these programs and their documentation for any purpose and without
fee is hereby granted,provided that the below copyright notice and historical background appear in all copies
and that both the copyright notice and historical background and this permission notice appear in supporting
documentation, and that the names of MIT, HIS, BULL or BULL HN not be used in advertising or publicity pertaining
to distribution of the programs without specific prior written permission.
    Copyright 1972 by Massachusetts Institute of Technology and Honeywell Information Systems Inc.
    Copyright 2006 by BULL HN Information Systems Inc.
    Copyright 2006 by Bull SAS
    All Rights Reserved
