ASSEMBLY LISTING OF SEGMENT >spec>on>7138.pbf>bjm_data_.alm
ASSEMBLED ON:	03/05/85  0839.8 mst Tue
OPTIONS USED:	list
ASSEMBLED BY:	ALM Version  6.6  November 1982
ASSEMBLER CREATED:	09/21/83  1227.3 mst Wed

                                     1  " ***********************************************************
                                     2  " *                                                         *
                                     3  " * Copyright, (C) Honeywell Information Systems Inc., 1983 *
                                     4  " *                                                         *
                                     5  " ***********************************************************
                                     6
                                     7  " DESCRIPTION:
                                     8  "	bjm_data_'s static section is used to keep track of
                                     9  "     per-process values specific to the before journal manager.  This
                                    10  "     includes invocation error info for the BJM primitives.  Currently,
                                    11  "     all per-process values except bj_txt_ptr are kept here, the txt ptr
                                    12  "     is referenced directly by transaction_manager_ as it really
                                    13  "     corresponds to the TDT, even though TM may only read it.
                                    14  "
                                    15  "     bj_code:  contains the value of a code which explains why a
                                    16  "	before journal manager support routine called
                                    17  "	bj_report_err.  It is available to the BJM primitive so
                                    18  "	that it may be passed back to the caller of BJM services.
                                    19  "	bj_default_error_label:  the address to where a before journal
                                    20  "	manager support routine can transfer upon encountering an
                                    21  "	error.
                                    22  "     bj_exit_err:  contains the address of the location to which
                                    23  "	a before journal manager support routine should return
                                    24  "	if an unexpected error is encountered.  The transfer,
                                    25  "	implemented by a non-local goto, is not performed by the
                                    26  "	support routine:  the support routine calls bj_report_err
                                    27  "	which complains and performs the goto.
                                    28  "     bj_operation:  identifies the current BJ primitive invoked.
                                    29  "	Its values is the name of the primitive.  It is set to
                                    30  "	null if there is no current primitive invoked.
                                    31  "     bj_ppt_ptr:  the location of the per-process bjm table.
                                    32  "     bj_pst_ptr:  the location of the per-system bjm table.
                                    33  "     bj_rollback_buffer_ptr:  the location of the bjm per-process
                                    34  "	rollback buffer.
                                    35  "     initialized:  a cell that indicates whether or not BJM
                                    36  "	has been invoked in this process (0 => not yet).
                                    37  "     lock_manager_timeout:  the amount of time we wait for a lock to be
                                    38  "	locked via lock manager.
                                    39  "
                                    40  " HISTORY:
                                    41  " Written by Mike Pandolf, 08/18/82.
                                    42  "
                                    43  " Modified:
                                    44  " 08/20/82 by M. Pandolf:  added initialized.
                                    45  " 10/22/82 by M. Pandolf:  added lock_manager_timeout.
                                    46  " 11/22/83 by Lee A. Newcomb:  renamed to bjm_data_ to be consistent with
                                    47  "	    the other per-process data segments.  Added bj_ppt_ptr,
                                    48  "	    bj_pst_ptr, and bj_rollback_buffer_ptr from dm_data_.
                                    49  "
                                    50  " " " " " " " " " " " " " " " " " " " " " " " " " " " " " " " " " " " " " "
                                    51
    000000                          52  	name	bjm_data_
                                    53
                        000002      54  	segdef	bj_default_error_label
                        000012      55  	segdef	bj_operation
                        000006      56  	segdef	bj_exit_err
                        000000      57  	segdef	bj_code
                        000022      58  	segdef	bj_ppt_ptr
                        000024      59  	segdef	bj_pst_ptr
                        000026      60  	segdef	bj_rollback_buffer_ptr
                        000032      61  	segdef	lock_manager_timeout
                        000030      62  	segdef	initialized
                                    63
                                    64  	use rw_data
                                    65
    000000  aa   000000 000000      66  bj_code:	oct	0		"system status code, not dbl-word aligned
                                    67
    000001  aa   000000 0110 03     68  	even
    000002                          69  bj_default_error_label:
    000002  aa   077777 000043      70  	its	-1,1		"label variable
    000003  aa   000001 000000
    000004  aa   077777 000043      71  	its	-1,1
    000005  aa   000001 000000
                                    72
    000006                          73  bj_exit_err:
    000006  aa   077777 000043      74  	its	-1,1		"label variable
    000007  aa   000001 000000
    000010  aa   077777 000043      75  	its	-1,1
    000011  aa   000001 000000
                                    76
    000012                          77  bj_operation:
    000012  aa  040 040 040 040     78  	aci	/                              /,32
    000013  aa  040 040 040 040
    000014  aa  040 040 040 040
    000015  aa  040 040 040 040
    000016  aa  040 040 040 040
    000017  aa  040 040 040 040
    000020  aa  040 040 040 040
    000021  aa  040 040 040 040
                                    79
    000022                          80  bj_ppt_ptr:				" dcl $bj_ppt_ptr ptr ext;
    000022  aa   077777 000043      81  	its	-1,1
    000023  aa   000001 000000
                                    82
    000024                          83  bj_pst_ptr:				" dcl $bj_pst_ptr ptr ext;
    000024  aa   077777 000043      84  	its	-1,1
    000025  aa   000001 000000
                                    85
    000026                          86  bj_rollback_buffer_ptr:			" dcl $bj_rollback_buffer_ptr ptr ext;
    000026  aa   077777 000043      87  	its	-1,1
    000027  aa   000001 000000
                                    88
    000030                          89  initialized:				"not dbl-word aligned
    000030  aa   000000 000000      90  	oct	0
                                    91
    000031  aa   000000 0110 03     92  	even
    000032                          93  lock_manager_timeout:
    000032  aa   000000 000000      94  	vfd	72/120000000	"120 seconds
    000033  aa   000711 607000
                                    95
                                    96  	join	/static/rw_data
                                    97
                                    98  	end

NO LITERALS

NAME DEFINITIONS FOR ENTRY POINTS AND SEGDEFS

    000000  5a   000003 000000
    000001  5a   000117 600000
    000002  aa   000000 000000
    000003  55   000011 000002
    000004  5a   000002 400003
    000005  55   000006 000011
    000006  aa  011 142 152 155
    000007  aa  137 144 141 164
    000010  aa  141 137 000 000
    000011  55   000017 000003
    000012  4a   000030 400004
    000013  55   000014 000003
    000014  aa  013 151 156 151         initialized
    000015  aa  164 151 141 154
    000016  aa  151 172 145 144
    000017  55   000030 000011
    000020  4a   000032 400004
    000021  55   000022 000003
    000022  aa  024 154 157 143         lock_manager_timeout
    000023  aa  153 137 155 141
    000024  aa  156 141 147 145
    000025  aa  162 137 164 151
    000026  aa  155 145 157 165
    000027  aa  164 000 000 000
    000030  55   000041 000017
    000031  4a   000026 400004
    000032  55   000033 000003
    000033  aa  026 142 152 137         bj_rollback_buffer_ptr
    000034  aa  162 157 154 154
    000035  aa  142 141 143 153
    000036  aa  137 142 165 146
    000037  aa  146 145 162 137
    000040  aa  160 164 162 000
    000041  55   000047 000030
    000042  4a   000024 400004
    000043  55   000044 000003
    000044  aa  012 142 152 137         bj_pst_ptr
    000045  aa  160 163 164 137
    000046  aa  160 164 162 000
    000047  55   000055 000041
    000050  4a   000022 400004
    000051  55   000052 000003
    000052  aa  012 142 152 137         bj_ppt_ptr
    000053  aa  160 160 164 137
    000054  aa  160 164 162 000
    000055  55   000062 000047
    000056  4a   000000 400004
    000057  55   000060 000003
    000060  aa  007 142 152 137         bj_code
    000061  aa  143 157 144 145
    000062  55   000070 000055
    000063  4a   000006 400004
    000064  55   000065 000003
    000065  aa  013 142 152 137         bj_exit_err
    000066  aa  145 170 151 164
    000067  aa  137 145 162 162
    000070  55   000077 000062
    000071  4a   000012 400004
    000072  55   000073 000003
    000073  aa  014 142 152 137         bj_operation
    000074  aa  157 160 145 162
    000075  aa  141 164 151 157
    000076  aa  156 000 000 000
    000077  55   000110 000070
    000100  4a   000002 400004
    000101  55   000102 000003
    000102  aa  026 142 152 137         bj_default_error_label
    000103  aa  144 145 146 141
    000104  aa  165 154 164 137
    000105  aa  145 162 162 157
    000106  aa  162 137 154 141
    000107  aa  142 145 154 000
    000110  55   000002 000077
    000111  6a   000000 400002
    000112  55   000113 000003
    000113  aa  014 163 171 155         symbol_table
    000114  aa  142 157 154 137
    000115  aa  164 141 142 154
    000116  aa  145 000 000 000

DEFINITIONS HASH TABLE

    000117  aa   000000 000015
    000120  aa   000000 000000
    000121  5a   000011 000000
    000122  5a   000030 000000
    000123  5a   000077 000000
    000124  5a   000017 000000
    000125  5a   000062 000000
    000126  5a   000110 000000
    000127  aa   000000 000000
    000130  aa   000000 000000
    000131  5a   000041 000000
    000132  5a   000047 000000
    000133  5a   000055 000000
    000134  5a   000070 000000

NO EXTERNAL NAMES

NO TRAP POINTER WORDS

TYPE PAIR BLOCKS

    000135  aa   000001 000000
    000136  aa   000000 000000

INTERNAL EXPRESSION WORDS

    000137  aa   000000 000000
LINKAGE INFORMATION

    000034  aa   000000 000000
    000035  0a   000000 000000
    000036  aa   000000 000000
    000037  aa   000000 000000
    000040  aa   000000 000000
    000041  aa   000000 000000
    000042  22   000010 000010
    000043  a2   000000 000034
SYMBOL INFORMATION

SYMBOL TABLE HEADER

    000000  aa   000000 000001
    000001  aa   163171 155142
    000002  aa   164162 145145
    000003  aa   000000 000004
    000004  aa   000000 112143
    000005  aa   305203 523135
    000006  aa   000000 113376
    000007  aa   634242 043042
    000010  aa   141154 155040
    000011  aa   040040 040040
    000012  aa   000024 000040
    000013  aa   000034 000040
    000014  aa   000044 000100
    000015  aa   000002 000002
    000016  aa   000064 000000
    000017  aa   000000 000115
    000020  aa   000000 000102
    000021  aa   000000 000104
    000022  aa   000107 000102
    000023  aa   000064 000000
    000024  aa   101114 115040
    000025  aa   126145 162163
    000026  aa   151157 156040
    000027  aa   040066 056066
    000030  aa   040040 116157
    000031  aa   166145 155142
    000032  aa   145162 040061
    000033  aa   071070 062040
    000034  aa   107112 157150
    000035  aa   156163 157156
    000036  aa   056123 171163
    000037  aa   115141 151156
    000040  aa   164056 155040
    000041  aa   040040 040040
    000042  aa   040040 040040
    000043  aa   040040 040040
    000044  aa   154151 163164
    000045  aa   040040 040040
    000046  aa   040040 040040
    000047  aa   040040 040040
    000050  aa   040040 040040
    000051  aa   040040 040040
    000052  aa   040040 040040
    000053  aa   040040 040040
    000054  aa   040040 040040
    000055  aa   040040 040040
    000056  aa   040040 040040
    000057  aa   040040 040040
    000060  aa   040040 040040
    000061  aa   040040 040040
    000062  aa   040040 040040
    000063  aa   040040 040040
    000064  aa   000000 000001
    000065  aa   000000 000001
    000066  aa   000072 000037
    000067  aa   133727 542315
    000070  aa   000000 113376
    000071  aa   611506 200000
    000072  aa   076163 160145          >spec>on>7138.pbf>bjm_data_.alm
    000073  aa   143076 157156
    000074  aa   076067 061063
    000075  aa   070056 160142
    000076  aa   146076 142152
    000077  aa   155137 144141
    000100  aa   164141 137056
    000101  aa   141154 155040
               MULTICS ASSEMBLY CROSS REFERENCE LISTING

   Value        Symbol                   Source file   Line number

           0    bj_code                  bjm_data_:     57,   66.
           2    bj_default_error_label   bjm_data_:     54,   69.
           6    bj_exit_err              bjm_data_:     56,   73.
          12    bj_operation             bjm_data_:     55,   77.
          22    bj_ppt_ptr               bjm_data_:     58,   80.
          24    bj_pst_ptr               bjm_data_:     59,   83.
          26    bj_rollback_buffer_ptr   bjm_data_:     60,   86.
          30    initialized              bjm_data_:     62,   89.
          32    lock_manager_timeout     bjm_data_:     61,   93.
           0    rw_data                  bjm_data_:     64,   96.


NO FATAL ERRORS


                                          -----------------------------------------------------------


Historical Background

This edition of the Multics software materials and documentation is provided and donated
to Massachusetts Institute of Technology by Group BULL including BULL HN Information Systems Inc.
as a contribution to computer science knowledge.
This donation is made also to give evidence of the common contributions of Massachusetts Institute of Technology,
Bell Laboratories, General Electric, Honeywell Information Systems Inc., Honeywell BULL Inc., Groupe BULL
and BULL HN Information Systems Inc. to the development of this operating system.
Multics development was initiated by Massachusetts Institute of Technology Project MAC (1963-1970),
renamed the MIT Laboratory for Computer Science and Artificial Intelligence in the mid 1970s, under the leadership
of Professor Fernando Jose Corbato. Users consider that Multics provided the best software architecture
for managing computer hardware properly and for executing programs. Many subsequent operating systems
incorporated Multics principles.
Multics was distributed in 1975 to 2000 by Group Bull in Europe , and in the U.S. by Bull HN Information Systems Inc.,
as successor in interest by change in name only to Honeywell Bull Inc. and Honeywell Information Systems Inc. .

                                          -----------------------------------------------------------

Permission to use, copy, modify, and distribute these programs and their documentation for any purpose and without
fee is hereby granted,provided that the below copyright notice and historical background appear in all copies
and that both the copyright notice and historical background and this permission notice appear in supporting
documentation, and that the names of MIT, HIS, BULL or BULL HN not be used in advertising or publicity pertaining
to distribution of the programs without specific prior written permission.
    Copyright 1972 by Massachusetts Institute of Technology and Honeywell Information Systems Inc.
    Copyright 2006 by BULL HN Information Systems Inc.
    Copyright 2006 by Bull SAS
    All Rights Reserved
