ASSEMBLY LISTING OF SEGMENT >spec>on>06/04/82>cb_window_.alm
ASSEMBLED ON:	06/04/82  1502.0 mst Fri
OPTIONS USED:	list
ASSEMBLED BY:	ALM Version  6.4  April 1981
ASSEMBLER CREATED:	07/17/81  1819.2 mst Fri

                                     1  " ***********************************************************
                                     2  " *                                                         *
                                     3  " * Copyright, (C) Honeywell Information Systems Inc., 1982 *
                                     4  " *                                                         *
                                     5  " ***********************************************************
                                     6  " Transfer vector for the COBOL window interfaces (which are themselves little
                                     7  " more than transfers).
                                     8  "
                                     9  " Written April 1982 by Chris Jones
                                    10
    000000                          11  	name	cb_window_
                                    12
                                    13  	macro	transfer
                              1     14  	segdef	&1
                              2     15  &1:	getlp
                              3     16  	tra	&2
                              4     17  	&end
                                    18
                                    19  	transfer	change,fc_menu_window$change
                        000000          	segdef	change
    000000  aa  7 00046 2721 20         change:	getlp
    000001  4a  4 00010 7101 20         	tra	fc_menu_window$change
                                    20  	transfer	clear_window,fc_menu_window$clear_window
                        000002          	segdef	clear_window
    000002  aa  7 00046 2721 20         clear_window:	getlp
    000003  4a  4 00012 7101 20         	tra	fc_menu_window$clear_window
                                    21  	transfer	create,fc_menu_window$create
                        000004          	segdef	create
    000004  aa  7 00046 2721 20         create:	getlp
    000005  4a  4 00014 7101 20         	tra	fc_menu_window$create
                                    22  	transfer	destroy,fc_menu_window$destroy
                        000006          	segdef	destroy
    000006  aa  7 00046 2721 20         destroy:	getlp
    000007  4a  4 00016 7101 20         	tra	fc_menu_window$destroy
                                    23
                                    24  	end

NO LITERALS

NAME DEFINITIONS FOR ENTRY POINTS AND SEGDEFS

    000010  5a   000003 000000
    000011  5a   000046 600000
    000012  aa   000000 000000
    000013  55   000011 000002
    000014  5a   000002 400003
    000015  55   000006 000011
    000016  aa  012 143 142 137
    000017  aa  167 151 156 144
    000020  aa  157 167 137 000
    000021  55   000016 000003
    000022  0a   000006 400000
    000023  55   000014 000003
    000024  aa  007 144 145 163         destroy
    000025  aa  164 162 157 171
    000026  55   000023 000011
    000027  0a   000004 400000
    000030  55   000021 000003
    000031  aa  006 143 162 145         create
    000032  aa  141 164 145 000
    000033  55   000032 000016
    000034  0a   000002 400000
    000035  55   000026 000003
    000036  aa  014 143 154 145         clear_window
    000037  aa  141 162 137 167
    000040  aa  151 156 144 157
    000041  aa  167 000 000 000
    000042  55   000037 000023
    000043  0a   000000 400000
    000044  55   000035 000003
    000045  aa  006 143 150 141         change
    000046  aa  156 147 145 000
    000047  55   000002 000032
    000050  6a   000000 400002
    000051  55   000042 000003
    000052  aa  014 163 171 155         symbol_table
    000053  aa  142 157 154 137
    000054  aa  164 141 142 154
    000055  aa  145 000 000 000

DEFINITIONS HASH TABLE

    000056  aa   000000 000015
    000057  aa   000000 000000
    000060  5a   000023 000000
    000061  aa   000000 000000
    000062  aa   000000 000000
    000063  5a   000011 000000
    000064  aa   000000 000000
    000065  5a   000037 000000
    000066  5a   000032 000000
    000067  aa   000000 000000
    000070  5a   000016 000000
    000071  aa   000000 000000
    000072  aa   000000 000000
    000073  aa   000000 000000

EXTERNAL NAMES

    000074  aa  016 146 143 137         fc_menu_window
    000075  aa  155 145 156 165
    000076  aa  137 167 151 156
    000077  aa  144 157 167 000

NO TRAP POINTER WORDS

TYPE PAIR BLOCKS

    000100  aa   000004 000000
    000101  55   000064 000014
    000102  aa   000004 000000
    000103  55   000064 000021
    000104  aa   000004 000000
    000105  55   000064 000026
    000106  aa   000004 000000
    000107  55   000064 000035
    000110  aa   000001 000000
    000111  aa   000000 000000

INTERNAL EXPRESSION WORDS

    000112  5a   000070 000000
    000113  5a   000072 000000
    000114  5a   000074 000000
    000115  5a   000076 000000
LINKAGE INFORMATION

    000000  aa   000000 000000
    000001  0a   000010 000000
    000002  aa   000000 000000
    000003  aa   000000 000000
    000004  aa   000000 000000
    000005  aa   000000 000000
    000006  22   000010 000020
    000007  a2   000000 000000
    000010  9a   777770 0000 46         fc_menu_window|change
    000011  5a   000105 0000 00
    000012  9a   777766 0000 46         fc_menu_window|clear_window
    000013  5a   000104 0000 00
    000014  9a   777764 0000 46         fc_menu_window|create
    000015  5a   000103 0000 00
    000016  9a   777762 0000 46         fc_menu_window|destroy
    000017  5a   000102 0000 00
SYMBOL INFORMATION

SYMBOL TABLE HEADER

    000000  aa   000000 000001
    000001  aa   163171 155142
    000002  aa   164162 145145
    000003  aa   000000 000004
    000004  aa   000000 110172
    000005  aa   711315 365225
    000006  aa   000000 111017
    000007  aa   442264 330245
    000010  aa   141154 155040
    000011  aa   040040 040040
    000012  aa   000024 000040
    000013  aa   000034 000040
    000014  aa   000044 000100
    000015  aa   000002 000002
    000016  aa   000064 000000
    000017  aa   000000 000120
    000020  aa   000000 000102
    000021  aa   000000 000105
    000022  aa   000112 000102
    000023  aa   000064 000000
    000024  aa   101114 115040
    000025  aa   126145 162163
    000026  aa   151157 156040
    000027  aa   040066 056064
    000030  aa   040040 101160
    000031  aa   162151 154040
    000032  aa   061071 070061
    000033  aa   040040 040040
    000034  aa   110157 154155
    000035  aa   163164 145144
    000036  aa   164056 123171
    000037  aa   163115 141151
    000040  aa   156164 056155
    000041  aa   040040 040040
    000042  aa   040040 040040
    000043  aa   040040 040040
    000044  aa   154151 163164
    000045  aa   040040 040040
    000046  aa   040040 040040
    000047  aa   040040 040040
    000050  aa   040040 040040
    000051  aa   040040 040040
    000052  aa   040040 040040
    000053  aa   040040 040040
    000054  aa   040040 040040
    000055  aa   040040 040040
    000056  aa   040040 040040
    000057  aa   040040 040040
    000060  aa   040040 040040
    000061  aa   040040 040040
    000062  aa   040040 040040
    000063  aa   040040 040040
    000064  aa   000000 000001
    000065  aa   000000 000001
    000066  aa   000072 000040
    000067  aa   110174 125244
    000070  aa   000000 111017
    000071  aa   430542 400000
    000072  aa   076163 160145          >spec>on>06/04/82>cb_window_.alm
    000073  aa   143076 157156
    000074  aa   076060 066057
    000075  aa   060064 057070
    000076  aa   062076 143142
    000077  aa   137167 151156
    000100  aa   144157 167137
    000101  aa   056141 154155
               MULTICS ASSEMBLY CROSS REFERENCE LISTING

   Value        Symbol                   Source file   Line number

           0    change                   cb_window_:    19.
           2    clear_window             cb_window_:    20.
           4    create                   cb_window_:    21.
           6    destroy                  cb_window_:    22.
                fc_menu_window           cb_window_:    19,   20,   21,   22.


NO FATAL ERRORS


                                          -----------------------------------------------------------


Historical Background

This edition of the Multics software materials and documentation is provided and donated
to Massachusetts Institute of Technology by Group BULL including BULL HN Information Systems Inc.
as a contribution to computer science knowledge.
This donation is made also to give evidence of the common contributions of Massachusetts Institute of Technology,
Bell Laboratories, General Electric, Honeywell Information Systems Inc., Honeywell BULL Inc., Groupe BULL
and BULL HN Information Systems Inc. to the development of this operating system.
Multics development was initiated by Massachusetts Institute of Technology Project MAC (1963-1970),
renamed the MIT Laboratory for Computer Science and Artificial Intelligence in the mid 1970s, under the leadership
of Professor Fernando Jose Corbato. Users consider that Multics provided the best software architecture
for managing computer hardware properly and for executing programs. Many subsequent operating systems
incorporated Multics principles.
Multics was distributed in 1975 to 2000 by Group Bull in Europe , and in the U.S. by Bull HN Information Systems Inc.,
as successor in interest by change in name only to Honeywell Bull Inc. and Honeywell Information Systems Inc. .

                                          -----------------------------------------------------------

Permission to use, copy, modify, and distribute these programs and their documentation for any purpose and without
fee is hereby granted,provided that the below copyright notice and historical background appear in all copies
and that both the copyright notice and historical background and this permission notice appear in supporting
documentation, and that the names of MIT, HIS, BULL or BULL HN not be used in advertising or publicity pertaining
to distribution of the programs without specific prior written permission.
    Copyright 1972 by Massachusetts Institute of Technology and Honeywell Information Systems Inc.
    Copyright 2006 by BULL HN Information Systems Inc.
    Copyright 2006 by Bull SAS
    All Rights Reserved
