	COMPILATION LISTING OF SEGMENT cexp_
	Compiled by: Multics PL/I Compiler, Release 28d, of September 14, 1983
	Compiled at: Honeywell LCPD Phoenix, System M
	Compiled on: 10/03/83  1355.3 mst Mon
	    Options: optimize map

        1 /* ******************************************************
        2*   *                                                    *
        3*   *                                                    *
        4*   * Copyright (c) 1972 by Massachusetts Institute of   *
        5*   * Technology and Honeywell Information Systems, Inc. *
        6*   *                                                    *
        7*   *                                                    *
        8*   ****************************************************** */
        9
       10 cexp_: proc (number) returns (complex float bin (27));
       11
       12 dcl (number, a, r) complex float bin (27);
       13 dcl	(abs, cos, exp, imag, real, sin) builtin;
       14 dcl  code_ ext entry (fixed bin (17));
       15
       16 	a = number + 0.0e0;
       17
       18 	if real (a)>88.028e0
       19 	     then do;
       20 	     call code_ (26);
       21
       22 	     real (a) = 170141182.0e30;
       23 	end;
       24 	else real (a) = exp (real (a));
       25
       26 	if abs (imag (a)) >= 134217728.0e0
       27 	     then do;
       28 	     call code_ (27);
       29
       30 	     return (0.0e0);
       31 	end;
       32
       33 	imag (r) = sin (imag (a))*real (a);
       34 	real (r) = cos (imag (a))*real (a);
       35
       36 	return (r);
       37
       38      end cexp_;
	SOURCE FILES USED IN THIS COMPILATION.

LINE      NUMBER  DATE MODIFIED     NAME			PATHNAME
             0    10/03/83  1004.8  cexp_.pl1                         >spec>on>pl128d>cexp_.pl1
	NAMES DECLARED IN THIS COMPILATION.

IDENTIFIER	     OFFSET    LOC STORAGE CLASS   DATA TYPE		ATTRIBUTES AND REFERENCES
								(* indicates a set context)

NAMES DECLARED BY DECLARE STATEMENT.
a                               000100 automatic       complex float bin(27)    dcl 12 set ref 16* 18 22* 24* 24 26 33 33 34 34
abs                                                    builtin function         dcl 13 ref 26
code_                           000010 constant        entry                    external dcl 14 ref 20 28
cos                                                    builtin function         dcl 13 ref 34
exp                                                    builtin function         dcl 13 ref 24
imag                                                   builtin function         dcl 13 set ref 26 33* 33 34
number                                 parameter       complex float bin(27)    dcl 12 ref 10 16
r                               000102 automatic       complex float bin(27)    dcl 12 set ref 33* 34* 36
real                                                   builtin function         dcl 13 set ref 18 22* 24* 24 33 34* 34
sin                                                    builtin function         dcl 13 ref 33

NAME DECLARED BY EXPLICIT CONTEXT.
cexp_                           000014 constant        entry                    external dcl 10

THERE WERE NO NAMES DECLARED BY CONTEXT OR IMPLICATION.

STORAGE REQUIREMENTS FOR THIS PROGRAM.

	Object	Text	Link	Symbol	Defs	Static
Start          0       0       142         154     111         152
Length       314     111        12         124      30           0

BLOCK NAME	         STACK SIZE     TYPE		WHY NONQUICK/WHO SHARES STACK FRAME
cexp_                               106 external procedure  is an external procedure.

STORAGE FOR AUTOMATIC VARIABLES.

STACK FRAME                 LOC IDENTIFIER                  BLOCK NAME
cexp_                    000100 a                           cexp_
                         000102 r                           cexp_

THE FOLLOWING EXTERNAL OPERATORS ARE USED BY THIS PROGRAM.
call_ext_out        return              ext_entry           sin                 cos                 exp

THE FOLLOWING EXTERNAL ENTRIES ARE CALLED BY THIS PROGRAM.
code_

NO EXTERNAL VARIABLES ARE USED BY THIS PROGRAM.


   LINE    LOC      LINE    LOC      LINE    LOC      LINE    LOC      LINE    LOC      LINE    LOC      LINE    LOC
     10 000010        16 000021        18 000030        20 000033        22 000043        23 000045        24 000046
     26 000051        28 000056        30 000067        33 000073        34 000100        36 000105


                                          -----------------------------------------------------------


Historical Background

This edition of the Multics software materials and documentation is provided and donated
to Massachusetts Institute of Technology by Group BULL including BULL HN Information Systems Inc.
as a contribution to computer science knowledge.
This donation is made also to give evidence of the common contributions of Massachusetts Institute of Technology,
Bell Laboratories, General Electric, Honeywell Information Systems Inc., Honeywell BULL Inc., Groupe BULL
and BULL HN Information Systems Inc. to the development of this operating system.
Multics development was initiated by Massachusetts Institute of Technology Project MAC (1963-1970),
renamed the MIT Laboratory for Computer Science and Artificial Intelligence in the mid 1970s, under the leadership
of Professor Fernando Jose Corbato. Users consider that Multics provided the best software architecture
for managing computer hardware properly and for executing programs. Many subsequent operating systems
incorporated Multics principles.
Multics was distributed in 1975 to 2000 by Group Bull in Europe , and in the U.S. by Bull HN Information Systems Inc.,
as successor in interest by change in name only to Honeywell Bull Inc. and Honeywell Information Systems Inc. .

                                          -----------------------------------------------------------

Permission to use, copy, modify, and distribute these programs and their documentation for any purpose and without
fee is hereby granted,provided that the below copyright notice and historical background appear in all copies
and that both the copyright notice and historical background and this permission notice appear in supporting
documentation, and that the names of MIT, HIS, BULL or BULL HN not be used in advertising or publicity pertaining
to distribution of the programs without specific prior written permission.
    Copyright 1972 by Massachusetts Institute of Technology and Honeywell Information Systems Inc.
    Copyright 2006 by BULL HN Information Systems Inc.
    Copyright 2006 by Bull SAS
    All Rights Reserved
