	COMPILATION LISTING OF SEGMENT check_password_
	Compiled by: Multics PL/I Compiler, Release 29, of July 28, 1986
	Compiled at: Honeywell Bull, Phx. Az., Sys-M
	Compiled on: 08/04/87  1647.0 mst Tue
	    Options: optimize map

        1 /* ***********************************************************
        2*   *                                                         *
        3*   * Copyright, (C) Honeywell Information Systems Inc., 1985 *
        4*   *                                                         *
        5*   *********************************************************** */
        6 /* format: style5,ind5 */
        7
        8 check_password_:
        9      procedure (Password, ErrorMessage, Code);
       10
       11 /* Parameters */
       12
       13      dcl	   Password	       char (*) parameter;
       14      dcl	   ErrorMessage	       char (*) parameter;
       15      dcl	   Code		       fixed bin (35) parameter;
       16
       17 /* Automatic */
       18
       19      dcl	   code		       fixed bin (35);
       20      dcl	   ip		       ptr;	      /* pointer to >sc1>installation_parms */
       21
       22 /* Entries */
       23
       24      dcl	   initiate_file_	       entry (char (*), char (*), bit (*), ptr,
       25 			       fixed bin (24), fixed bin (35));
       26      dcl	   ioa_$rsnnl	       entry () options (variable);
       27      dcl	   pathname_	       entry (char (*), char (*))
       28 			       returns (char (168));
       29      dcl	   terminate_file_	       entry (ptr, fixed bin (24), bit (*),
       30 			       fixed bin (35));
       31
       32 /* External */
       33
       34      dcl	   error_table_$bad_arg    fixed bin (35) external;
       35
       36 /* Constant */
       37
       38      dcl	   SC1		       char (168)
       39 			       initial (">system_control_1")
       40 			       internal static options (constant);
       41      dcl	   INSTALLATION_PARMS      char (32)
       42 			       initial ("installation_parms")
       43 			       internal static options (constant);
       44
       45 /* Builtins */
       46
       47      dcl	   length		       builtin;
       48      dcl	   null		       builtin;
       49      dcl	   rtrim		       builtin;
       50
       51 /* Conditions */
       52
       53      dcl	   cleanup	       condition;
       54
       55 /* Program */
       56
       57      ip = null ();				      /* setup for cleanup handler */
       58      on condition (cleanup) call CLEAN_UP ();
       59
       60      call initiate_file_ (SC1, INSTALLATION_PARMS, R_ACCESS, ip, (0), code);
       61      if code ^= 0 then
       62 	call ioa_$rsnnl (
       63 	    "Unable to check password_min_length parameter in ^a.",
       64 	    ErrorMessage, (0), pathname_ (SC1, INSTALLATION_PARMS));
       65      else if length (rtrim (Password)) < installation_parms.password_min_length
       66          then
       67 	do;
       68 	call ioa_$rsnnl ("Password must be at least ^d characters long",
       69 	    ErrorMessage, (0), installation_parms.password_min_length);
       70 	code = error_table_$bad_arg;
       71 	end;
       72      else if Password = "help" | Password = "HELP" | Password = "?"
       73          | Password = "quit" | Password = "QUIT" then
       74 	do;
       75 	call ioa_$rsnnl ("""^a"" is reserved for special use during login",
       76 	    ErrorMessage, (0), Password);
       77 	code = error_table_$bad_arg;
       78 	end;
       79      else
       80 	ErrorMessage = "";
       81
       82      call CLEAN_UP ();
       83      Code = code;
       84      return;
       85
       86 CLEAN_UP:
       87      procedure ();
       88
       89      dcl	   temp_ptr	       ptr automatic;     /* temporary so we don't have windows */
       90
       91      if ip ^= null () then
       92 	do;
       93 	temp_ptr = ip;
       94 	ip = null ();
       95 	call terminate_file_ (temp_ptr, 0, TERM_FILE_TERM, (0));
       96 	end;
       97      return;
       98      end CLEAN_UP;
       99
      100 /* format: off */
      101  /* BEGIN INCLUDE FILE ... access_mode_values.incl.pl1
  1     2*
  1     3*   Values for the "access mode" argument so often used in hardcore
  1     4*   James R. Davis 26 Jan 81  MCR 4844
  1     5*   Added constants for SM access 4/28/82 Jay Pattin
  1     6*   Added text strings 03/19/85 Chris Jones
  1     7**/
  1     8
  1     9
  1    10 /* format: style4,delnl,insnl,indattr,ifthen,dclind10 */
  1    11 dcl	(
  1    12 	N_ACCESS		   init ("000"b),
  1    13 	R_ACCESS		   init ("100"b),
  1    14 	E_ACCESS		   init ("010"b),
  1    15 	W_ACCESS		   init ("001"b),
  1    16 	RE_ACCESS		   init ("110"b),
  1    17 	REW_ACCESS	   init ("111"b),
  1    18 	RW_ACCESS		   init ("101"b),
  1    19 	S_ACCESS		   init ("100"b),
  1    20 	M_ACCESS		   init ("010"b),
  1    21 	A_ACCESS		   init ("001"b),
  1    22 	SA_ACCESS		   init ("101"b),
  1    23 	SM_ACCESS		   init ("110"b),
  1    24 	SMA_ACCESS	   init ("111"b)
  1    25 	)		   bit (3) internal static options (constant);
  1    26
  1    27 /* The following arrays are meant to be accessed by doing either 1) bin (bit_value) or
  1    28*   2) divide (bin_value, 2) to come up with an index into the array. */
  1    29
  1    30 dcl	SEG_ACCESS_MODE_NAMES  (0:7) init ("null", "W", "E", "EW", "R", "RW", "RE", "REW") char (4) internal
  1    31 			   static options (constant);
  1    32
  1    33 dcl	DIR_ACCESS_MODE_NAMES  (0:7) init ("null", "A", "M", "MA", "S", "SA", "SM", "SMA") char (4) internal
  1    34 			   static options (constant);
  1    35
  1    36 dcl	(
  1    37 	N_ACCESS_BIN	   init (00000b),
  1    38 	R_ACCESS_BIN	   init (01000b),
  1    39 	E_ACCESS_BIN	   init (00100b),
  1    40 	W_ACCESS_BIN	   init (00010b),
  1    41 	RW_ACCESS_BIN	   init (01010b),
  1    42 	RE_ACCESS_BIN	   init (01100b),
  1    43 	REW_ACCESS_BIN	   init (01110b),
  1    44 	S_ACCESS_BIN	   init (01000b),
  1    45 	M_ACCESS_BIN	   init (00010b),
  1    46 	A_ACCESS_BIN	   init (00001b),
  1    47 	SA_ACCESS_BIN	   init (01001b),
  1    48 	SM_ACCESS_BIN	   init (01010b),
  1    49 	SMA_ACCESS_BIN	   init (01011b)
  1    50 	)		   fixed bin (5) internal static options (constant);
  1    51
  1    52 /* END INCLUDE FILE ... access_mode_values.incl.pl1 */
      101
      102  /* BEGIN INCLUDE FILE ... installation_parms.incl.pl1 */
  2     2
  2     3 /* Modified 740723 by PG to add short AIM access names */
  2     4 /* Modified Fall 1977 by T. Casey to add fatal loop and trm_ signal parameters */
  2     5 /* Modified 04/03/78 by CDT to add rcp_init_flags structure */
  2     6 /* Modified May 1978 by T. Casey to add resource timer and resource price list parameters */
  2     7 /* Modified November 1978 by T. Casey for MR7.0, to add absentee control parameters */
  2     8 /* Modified 17 September 1980 by G. Palter to add default absentee queue */
  2     9 /* Modified April 1981 by E. N. Kittlitz for chn_wakeup_error_loop, chn_wakeup_error_count */
  2    10 /* Modified June 1981 by E. N. Kittlitz for nrates/rate_structures UNCA rate_structure support.
  2    11*     Version, expand foregound_cpu_default_limit and abs_cpu_max_limit to fixed bin (35) fields.
  2    12*     nrscp & resource array moved from offset 2064 (octal) to 2400 (octal). */
  2    13 /* Modified 1984-06-19 BIM to remove obsolete fields, and add
  2    14*		       strict_trusted_path. */
  2    15 /* Modified 1984-10-24 BIM for default_pdir_quota. */
  2    16 /* Modified 1984-12-05 BIM for require_operator_login. */
  2    17 /* Modified 1985-03-01 by E. Swenson for password flags. */
  2    18
  2    19
  2    20 /****^  HISTORY COMMENTS:
  2    21*  1) change(86-01-27,MSharpe), approve(87-05-25,MCR7690),
  2    22*     audit(87-03-29,GDixon), install(87-08-04,MR12.1-1056):
  2    23*     added vchn_requires_accept parameter.
  2    24*  2) change(87-02-17,GDixon), approve(87-05-25,MCR7680),
  2    25*     audit(87-06-02,Parisek), install(87-08-04,MR12.1-1056):
  2    26*     Correct formatting problems.
  2    27*                                                   END HISTORY COMMENTS */
  2    28
  2    29
  2    30 /* NOTE: rate_structure.incl.pl1 uses these declarations */
  2    31
  2    32
  2    33 dcl 1 installation_parms based (ip) aligned,		/* describes installation parameters */
  2    34     2 part_1 like installation_parms_part_1 aligned,
  2    35     2 resource (0 refer (installation_parms.nrscp)) like installation_parms_resource_array_part aligned;
  2    36
  2    37 dcl  installation_parms_version_1 fixed bin init (1) static internal options (constant);
  2    38 dcl  installation_parms_version_2 fixed bin init (2) static internal options (constant);
  2    39
  2    40 dcl 1 installation_parms_part_1 based aligned,		/* Used only by installation_parms and rate_structure */
  2    41     2 installation_id char (32),			/* Name printed at dialup and in who */
  2    42     2 company char (64),				/* company name */
  2    43     2 department char (64),				/* department */
  2    44     2 companyds char (120),				/* company, double spaced */
  2    45     2 departmentds char (120),			/* dpeartment double spaced */
  2    46     2 shifttab (336) bit (3) unal,			/* half-hrs from 0000 Mon, value is shift no */
  2    47     2 cpu_price (0: 7) float bin,			/* price for cpu hour, by shift */
  2    48     2 log_base_price (0: 7) float bin,			/* price for log hour, by shift */
  2    49     2 io_ops_price (0: 7) float bin,			/* price per 1000 terminal io ops */
  2    50     2 core_price (0: 7) float bin,			/* price for core page-hour, by shift */
  2    51     2 ndevices fixed bin,				/* number of devices to charge */
  2    52     2 devtab (16),					/* Maximum 16 */
  2    53       3 device_id char (8),				/* Name of device */
  2    54       3 device_price (0: 7) float bin,			/* Price by shift */
  2    55     2 inactive_time fixed bin,			/* seconds of inactivity permitted */
  2    56     2 warning_time fixed bin,				/* seconds from warning to logout */
  2    57     2 login_time fixed bin,				/* seconds in which to complete login */
  2    58     2 acct_update fixed bin,				/* seconds between acct update */
  2    59     2 login_tries fixed bin,				/* number of login tries allowed */
  2    60     2 disk_price float bin,				/* disk rate, in $/page-sec */
  2    61     2 registration_price float bin,			/* fee per month per user */
  2    62     2 dolsign char (1),				/* "dollar sign" */
  2    63     2 abs_cpu_price (4) float bin,			/* price for absentee cpu by queue */
  2    64     2 abs_mem_price (4) float bin,			/* Absentee memory charge */
  2    65     2 iod_rec_price (4) float bin,			/* price for io daemon lines, per K, by queue */
  2    66     2 abs_timax (4) fixed bin (35),			/* Absentee TIMAX parameter */
  2    67     2 abs_cpu_default_limit (4) fixed bin (35),		/* default absentee cpu limit in seconds (changed from usec.) */
  2    68     2 syserr_log_copy_threshold fixed bin (9),		/* Threshold (in PAGES) at which the
  2    69*						   Initializer will copy the syserr_log */
  2    70     2 default_pdir_seg_quota fixed bin (17) unaligned,	/* if system and project say 0 */
  2    71     2 default_pdir_dir_quota fixed bin (17) unaligned,       /* Always used */
  2    72     2 fatal_error_loop_count fixed bin (17) unaligned,
  2    73     2 fatal_error_loop_seconds fixed bin (17) unaligned,
  2    74     2 term_real_time_seconds fixed bin (17) unaligned,
  2    75     2 term_cpu_time_seconds fixed bin (17) unaligned,
  2    76     2 rcp_init_flags like rcp_init_flags aligned,		/* one word long */
  2    77     2 rsc_timer_seconds fixed bin (17) unaligned,		/* time interval at which to check for resource availability */
  2    78     2 pad_old_fg_cpu_default_limit bit (18) unaligned,
  2    79     2 foreground_queue_position fixed bin (17) unal,	/* queue that foreground queue comes after */
  2    80     2 idle_time_constant_seconds fixed bin (17) unal,	/* how far back to maintain moving average of load */
  2    81     2 sus_cpu_time_seconds fixed bin (17) unal,		/* allow suspended process this much cpu time */
  2    82     2 sus_real_time_seconds fixed bin (17) unal,		/* and this much real time, before bumping it */
  2    83     2 foreground_cpu_default_limit fixed bin (35),	/* default cpu time limit (sec) for foreground absentee jobs */
  2    84     2 access_authorization_ceiling bit (72),		/* "System high" access authorization. */
  2    85     2 level_names (0:7) char (32),			/* Names for security levels. */
  2    86     2 category_names (18) char (32),			/* Names for security categories. */
  2    87     2 short_level_names (0:7) char (8),			/* Abbreviated level names. */
  2    88     2 short_category_names (18) char (8),		/* Abbreviated category names. */
  2    89     2 ncon fixed bin,				/* Number of config elements. */
  2    90     2 cona (51),					/* each entry is 5 words long */
  2    91       3 cpu fixed bin (5) unal,			/* Number of CPU's */
  2    92       3 shift fixed bin (5) unal,			/* Shift number */
  2    93       3 x1 fixed bin (23) unal,
  2    94       3 kmem fixed bin (17) unal,			/* Memory size */
  2    95       3 kbulk fixed bin (17) unal,			/* Bulk store size */
  2    96       3 x2 fixed bin (17) unal,
  2    97       3 maxa fixed bin (11) unal,			/* Max abs users */
  2    98       3 maxq fixed bin (5) unal,			/* Max abs q */
  2    99       3 maxu_base fixed bin (17) unal,
  2   100       3 response_high fixed bin (17) unal,
  2   101       3 response_low fixed bin (17) unal,
  2   102       3 x3 fixed bin (17) unal,
  2   103
  2   104 /* Absentee control parameters. New for MR7.0 */
  2   105
  2   106     2 max_abs (0:7) fixed bin (17) unal,		/* per-shift upper limit on abs_maxu */
  2   107     2 min_abs (0:7) fixed bin (17) unal,		/* per-shift lower limit on abs_maxu */
  2   108     2 pct_abs (0:7) fixed bin (17) unal,		/* abs_maxu is this pct (per-shift) of idle units */
  2   109
  2   110     2 max_qres (0:7, 4) fixed bin (17) unal,		/* per-shift-and-queue upper limit on reserved slots */
  2   111     2 min_qres (0:7, 4) fixed bin (17) unal,		/* per-shift-and-queue lower limit on reserved slots */
  2   112     2 pct_qres (0:7, 4) fixed bin (17) unal,		/* reserved slots are these pcts of abs_maxu */
  2   113
  2   114     2 abs_cpu_max_limit (0:7, 4) fixed bin (35),		/* per-shift-and-queue upper limit (sec) on jobs' cpu times */
  2   115
  2   116     2 default_absentee_queue fixed binary (17) unaligned,	/* default absentee queue for ear, etc. */
  2   117
  2   118     2 chn_wakeup_error_loop_count fixed bin (17) unaligned, /* maximum number of channel wakeups in following interval */
  2   119     2 chn_wakeup_error_loop_seconds fixed bin (17) unaligned, /* works like fatal_error_loop_count/seconds */
  2   120     2 rate_structure_number fixed bin (17) unaligned,	/* rate_structure number of this RS */
  2   121     2 version fixed bin (35),				/* must be 2 */
  2   122     2 nrates fixed bin,				/* number of rate structures */
  2   123     2 rate_structures (0:9) char (32),			/* names of rate_structures */
  2   124     2 trusted_path_login bit (1) aligned,		/* forbid logout -hold and new_proc -auth */
  2   125     2 require_operator_login bit (1) aligned,		/* just what it says */
  2   126     2 operator_inactive_time fixed bin,			/* seconds between commands --> not logged in. */
  2   127     2 validate_daemon_commands bit (1) aligned,		/* force existence and adequate access to
  2   128*						   mcacs segments for operators */
  2   129     2 password_min_length fixed bin,			/* minimum length of passwords */
  2   130     2 password_gpw_length fixed bin,			/* length of generated passwords */
  2   131     2 password_change_interval fixed bin,		/* number of days until must change */
  2   132     2 password_expiration_interval fixed bin,		/* number of days that a password may remain unused */
  2   133     2 vchn_requires_accept bit (1) aligned,		/* "login personid -op -vchn foo" must be
  2   134*						   "accepted" by operator if personid is not
  2   135*						   signed on system console */
  2   136     2 end_pad (219) bit (36) aligned,			/* leave plenty of pad before the variable length price list */
  2   137     2 nrscp fixed bin;				/* length of resource price array; must have offset 2400 (octal),
  2   138*						   or someone miscounted when using part of pad2 */
  2   139
  2   140
  2   141 /* Entries in the following array may be accessed via system_info_$resource_price.
  2   142*   This array should not be accessed directly, since its format will change in subsequent releases of Multics. */
  2   143
  2   144 dcl 1 installation_parms_resource_array_part (0 refer (installation_parms.nrscp)) based,
  2   145       2 name char (32),
  2   146       2 price float bin;
  2   147
  3     1 /* BEGIN INCLUDE FILE ... rcp_init_flags.incl.pl1 */
  3     2
  3     3 /* Created on 04/24/78 by Michael R. Jordan */
  3     4 /* Modified 04/10/79 by C. D. Tavares */
  3     5
  3     6 dcl  rifp ptr;
  3     7
  3     8 dcl 1 rcp_init_flags based (rifp),
  3     9     2 unload_on_detach bit (1) unaligned,		/* ON => tape volumes are unloaded after detaching */
  3    10     2 pad1 bit (2) unaligned,				/* obsolete */
  3    11     2 resource_mgmt_enabled bit (1) unaligned,		/* ON => resource management has been enabled */
  3    12     2 auto_registration bit (1) unaligned,		/* ON => auto registration allowed */
  3    13     2 pad2 bit (2) unaligned,				/* future expansion, possibly of authentication_level */
  3    14     2 authentication_level fixed bin (2) unaligned unsigned; /* see below for values */
  3    15
  3    16 dcl (No_authentication initial (0),
  3    17      Nominal_authentication initial (1),
  3    18      Automatic_authentication initial (2),
  3    19      Manual_authentication initial (3)) fixed bin internal static options (constant);
  3    20
  3    21 dcl  authentication_level_names (0:3) char (12) internal static options (constant) initial
  3    22     ("none", "nominal", "automatic", "manual");
  3    23
  3    24 /* END INCLUDE FILE ... rcp_init_flags.incl.pl1 */
  2   148
  2   149
  2   150 /* END INCLUDE FILE ... installation_parms.incl.pl1 */
      102
      103  /* BEGIN INCLUDE FILE ... terminate_file.incl.pl1 */
  4     2 /* format: style2,^inddcls,idind32 */
  4     3
  4     4 declare 1 terminate_file_switches	based,
  4     5 	2 truncate		bit (1) unaligned,
  4     6 	2 set_bc			bit (1) unaligned,
  4     7 	2 terminate		bit (1) unaligned,
  4     8 	2 force_write		bit (1) unaligned,
  4     9 	2 delete			bit (1) unaligned;
  4    10
  4    11 declare TERM_FILE_TRUNC		bit (1) internal static options (constant) initial ("1"b);
  4    12 declare TERM_FILE_BC		bit (2) internal static options (constant) initial ("01"b);
  4    13 declare TERM_FILE_TRUNC_BC		bit (2) internal static options (constant) initial ("11"b);
  4    14 declare TERM_FILE_TERM		bit (3) internal static options (constant) initial ("001"b);
  4    15 declare TERM_FILE_TRUNC_BC_TERM	bit (3) internal static options (constant) initial ("111"b);
  4    16 declare TERM_FILE_FORCE_WRITE		bit (4) internal static options (constant) initial ("0001"b);
  4    17 declare TERM_FILE_DELETE		bit (5) internal static options (constant) initial ("00001"b);
  4    18
  4    19 /* END INCLUDE FILE ... terminate_file.incl.pl1 */
      103
      104 /* format: on */
      105      end check_password_;
	SOURCE FILES USED IN THIS COMPILATION.

LINE      NUMBER  DATE MODIFIED     NAME			PATHNAME
             0    08/04/87  1538.8  check_password_.pl1               >special_ldd>install>MR12.1-1054>check_password_.pl1
101          1    04/11/85  1452.6  access_mode_values.incl.pl1       >ldd>include>access_mode_values.incl.pl1
102          2    08/04/87  1140.0  installation_parms.incl.pl1       >spec>install>1056>installation_parms.incl.pl1
2-148        3    11/21/79  1458.3  rcp_init_flags.incl.pl1           >ldd>include>rcp_init_flags.incl.pl1
103          4    04/06/83  1239.4  terminate_file.incl.pl1           >ldd>include>terminate_file.incl.pl1
	NAMES DECLARED IN THIS COMPILATION.

IDENTIFIER	     OFFSET    LOC STORAGE CLASS   DATA TYPE		ATTRIBUTES AND REFERENCES
								(* indicates a set context)

NAMES DECLARED BY DECLARE STATEMENT.
Code                                   parameter       fixed bin(35,0)          dcl 15 set ref 8 83*
ErrorMessage                           parameter       char                     unaligned dcl 14 set ref 8 61* 68* 75* 79*
INSTALLATION_PARMS              000002 constant        char(32)                 initial unaligned dcl 41 set ref 60* 61* 61*
Password                               parameter       char                     unaligned dcl 13 set ref 8 65 72 72 72 72 72 75*
R_ACCESS                        000001 constant        bit(3)                   initial unaligned dcl 1-11 set ref 60*
SC1                             000012 constant        char(168)                initial unaligned dcl 38 set ref 60* 61* 61*
TERM_FILE_TERM                  000000 constant        bit(3)                   initial unaligned dcl 4-14 set ref 95*
cleanup                         000104 stack reference condition                dcl 53 ref 58
code                            000100 automatic       fixed bin(35,0)          dcl 19 set ref 60* 61 70* 77* 83
error_table_$bad_arg            000020 external static fixed bin(35,0)          dcl 34 ref 70 77
initiate_file_                  000010 constant        entry                    external dcl 24 ref 60
installation_parms                     based           structure                level 1 dcl 2-33
installation_parms_part_1              based           structure                level 1 dcl 2-40
installation_parms_resource_array_part based           structure                array level 1 unaligned dcl 2-144
ioa_$rsnnl                      000012 constant        entry                    external dcl 26 ref 61 68 75
ip                              000102 automatic       pointer                  dcl 20 set ref 57* 60* 65 68 91 93 94*
length                                                 builtin function         dcl 47 ref 65
null                                                   builtin function         dcl 48 ref 57 91 94
part_1                                 based           structure                level 2 dcl 2-33
password_min_length    2040            based           fixed bin(17,0)          level 3 dcl 2-33 set ref 65 68*
pathname_                       000014 constant        entry                    external dcl 27 ref 61 61
rcp_init_flags                         based           structure                level 1 packed unaligned dcl 3-8
rtrim                                                  builtin function         dcl 49 ref 65
temp_ptr                        000100 automatic       pointer                  dcl 89 set ref 93* 95*
terminate_file_                 000016 constant        entry                    external dcl 29 ref 95

NAMES DECLARED BY DECLARE STATEMENT AND NEVER REFERENCED.
A_ACCESS                               internal static bit(3)                   initial unaligned dcl 1-11
A_ACCESS_BIN                           internal static fixed bin(5,0)           initial dcl 1-36
Automatic_authentication               internal static fixed bin(17,0)          initial dcl 3-16
DIR_ACCESS_MODE_NAMES                  internal static char(4)                  initial array unaligned dcl 1-33
E_ACCESS                               internal static bit(3)                   initial unaligned dcl 1-11
E_ACCESS_BIN                           internal static fixed bin(5,0)           initial dcl 1-36
M_ACCESS                               internal static bit(3)                   initial unaligned dcl 1-11
M_ACCESS_BIN                           internal static fixed bin(5,0)           initial dcl 1-36
Manual_authentication                  internal static fixed bin(17,0)          initial dcl 3-16
N_ACCESS                               internal static bit(3)                   initial unaligned dcl 1-11
N_ACCESS_BIN                           internal static fixed bin(5,0)           initial dcl 1-36
No_authentication                      internal static fixed bin(17,0)          initial dcl 3-16
Nominal_authentication                 internal static fixed bin(17,0)          initial dcl 3-16
REW_ACCESS                             internal static bit(3)                   initial unaligned dcl 1-11
REW_ACCESS_BIN                         internal static fixed bin(5,0)           initial dcl 1-36
RE_ACCESS                              internal static bit(3)                   initial unaligned dcl 1-11
RE_ACCESS_BIN                          internal static fixed bin(5,0)           initial dcl 1-36
RW_ACCESS                              internal static bit(3)                   initial unaligned dcl 1-11
RW_ACCESS_BIN                          internal static fixed bin(5,0)           initial dcl 1-36
R_ACCESS_BIN                           internal static fixed bin(5,0)           initial dcl 1-36
SA_ACCESS                              internal static bit(3)                   initial unaligned dcl 1-11
SA_ACCESS_BIN                          internal static fixed bin(5,0)           initial dcl 1-36
SEG_ACCESS_MODE_NAMES                  internal static char(4)                  initial array unaligned dcl 1-30
SMA_ACCESS                             internal static bit(3)                   initial unaligned dcl 1-11
SMA_ACCESS_BIN                         internal static fixed bin(5,0)           initial dcl 1-36
SM_ACCESS                              internal static bit(3)                   initial unaligned dcl 1-11
SM_ACCESS_BIN                          internal static fixed bin(5,0)           initial dcl 1-36
S_ACCESS                               internal static bit(3)                   initial unaligned dcl 1-11
S_ACCESS_BIN                           internal static fixed bin(5,0)           initial dcl 1-36
TERM_FILE_BC                           internal static bit(2)                   initial unaligned dcl 4-12
TERM_FILE_DELETE                       internal static bit(5)                   initial unaligned dcl 4-17
TERM_FILE_FORCE_WRITE                  internal static bit(4)                   initial unaligned dcl 4-16
TERM_FILE_TRUNC                        internal static bit(1)                   initial unaligned dcl 4-11
TERM_FILE_TRUNC_BC                     internal static bit(2)                   initial unaligned dcl 4-13
TERM_FILE_TRUNC_BC_TERM                internal static bit(3)                   initial unaligned dcl 4-15
W_ACCESS                               internal static bit(3)                   initial unaligned dcl 1-11
W_ACCESS_BIN                           internal static fixed bin(5,0)           initial dcl 1-36
authentication_level_names             internal static char(12)                 initial array unaligned dcl 3-21
installation_parms_version_1           internal static fixed bin(17,0)          initial dcl 2-37
installation_parms_version_2           internal static fixed bin(17,0)          initial dcl 2-38
rifp                                   automatic       pointer                  dcl 3-6
terminate_file_switches                based           structure                level 1 packed unaligned dcl 4-4

NAMES DECLARED BY EXPLICIT CONTEXT.
CLEAN_UP                        000517 constant        entry                    internal dcl 86 ref 58 82
check_password_                 000162 constant        entry                    external dcl 8

THERE WERE NO NAMES DECLARED BY CONTEXT OR IMPLICATION.

STORAGE REQUIREMENTS FOR THIS PROGRAM.

	Object	Text	Link	Symbol	Defs	Static
Start          0       0       672         714     565         702
Length      1166     565        22         235     105           0

BLOCK NAME	         STACK SIZE     TYPE		WHY NONQUICK/WHO SHARES STACK FRAME
check_password_                     178 external procedure  is an external procedure.
on unit on line 58                   64 on unit
CLEAN_UP                             86 internal procedure  is called by several nonquick procedures.

STORAGE FOR AUTOMATIC VARIABLES.

STACK FRAME                 LOC IDENTIFIER                  BLOCK NAME
CLEAN_UP                 000100 temp_ptr                    CLEAN_UP
check_password_          000100 code                        check_password_
                         000102 ip                          check_password_

THE FOLLOWING EXTERNAL OPERATORS ARE USED BY THIS PROGRAM.
call_ext_out_desc   call_int_this       call_int_other      return_mac          enable_op           ext_entry_desc
int_entry

THE FOLLOWING EXTERNAL ENTRIES ARE CALLED BY THIS PROGRAM.
initiate_file_                ioa_$rsnnl                    pathname_                     terminate_file_

THE FOLLOWING EXTERNAL VARIABLES ARE USED BY THIS PROGRAM.
error_table_$bad_arg


   LINE    LOC      LINE    LOC      LINE    LOC      LINE    LOC      LINE    LOC      LINE    LOC      LINE    LOC
      8 000156        57 000202        58 000204        60 000226        61 000264        65 000342        68 000361
     70 000413        71 000416        72 000417        75 000443        77 000475        78 000500        79 000501
     82 000506        83 000512        84 000515        86 000516        91 000524        93 000531        94 000533
     95 000535        97 000563


                                          -----------------------------------------------------------


Historical Background

This edition of the Multics software materials and documentation is provided and donated
to Massachusetts Institute of Technology by Group BULL including BULL HN Information Systems Inc.
as a contribution to computer science knowledge.
This donation is made also to give evidence of the common contributions of Massachusetts Institute of Technology,
Bell Laboratories, General Electric, Honeywell Information Systems Inc., Honeywell BULL Inc., Groupe BULL
and BULL HN Information Systems Inc. to the development of this operating system.
Multics development was initiated by Massachusetts Institute of Technology Project MAC (1963-1970),
renamed the MIT Laboratory for Computer Science and Artificial Intelligence in the mid 1970s, under the leadership
of Professor Fernando Jose Corbato. Users consider that Multics provided the best software architecture
for managing computer hardware properly and for executing programs. Many subsequent operating systems
incorporated Multics principles.
Multics was distributed in 1975 to 2000 by Group Bull in Europe , and in the U.S. by Bull HN Information Systems Inc.,
as successor in interest by change in name only to Honeywell Bull Inc. and Honeywell Information Systems Inc. .

                                          -----------------------------------------------------------

Permission to use, copy, modify, and distribute these programs and their documentation for any purpose and without
fee is hereby granted,provided that the below copyright notice and historical background appear in all copies
and that both the copyright notice and historical background and this permission notice appear in supporting
documentation, and that the names of MIT, HIS, BULL or BULL HN not be used in advertising or publicity pertaining
to distribution of the programs without specific prior written permission.
    Copyright 1972 by Massachusetts Institute of Technology and Honeywell Information Systems Inc.
    Copyright 2006 by BULL HN Information Systems Inc.
    Copyright 2006 by Bull SAS
    All Rights Reserved
