	COMPILATION LISTING OF SEGMENT check_o_and_s
	Compiled by: Multics PL/I Compiler, Release 28d, of September 14, 1983
	Compiled at: Honeywell LCPD Phoenix, System M
	Compiled on: 10/03/83  1624.3 mst Mon
	    Options: optimize map

        1 /* ***********************************************************
        2*   *                                                         *
        3*   * Copyright, (C) Honeywell Information Systems Inc., 1982 *
        4*   *                                                         *
        5*   *********************************************************** */
        6
        7 /* ******************************************************
        8*   *                                                    *
        9*   *                                                    *
       10*   * Copyright (c) 1972 by Massachusetts Institute of   *
       11*   * Technology and Honeywell Information Systems, Inc. *
       12*   *                                                    *
       13*   *                                                    *
       14*   ****************************************************** */
       15
       16 check_o_and_s: proc(pt) returns(ptr);
       17
       18 dcl	pt ptr;		/* points at operator node */
       19
       20 dcl	(d,p,q,p1) ptr,
       21 	(i,m,n) fixed bin,
       22 	(mod,null) builtin;
       23
       24 dcl	get_variable entry(ptr) returns(ptr),
       25 	create_list entry(fixed bin) returns(ptr);
       26
       27 dcl	fix_bin	fixed bin based;
       28
       29 dcl	1 descriptor based aligned like desc_;
       30
  1     1 /* BEGIN INCLUDE FILE ... operator.incl.pl1 */
  1     2
  1     3 /*	Modified: 2 Apr 1980 by PCK to add max_number_of_operands */
  1     4
  1     5 /* format: style3 */
  1     6 dcl	1 operator	based aligned,
  1     7 	  2 node_type	bit (9) unaligned,
  1     8 	  2 op_code	bit (9) unaligned,
  1     9 	  2 shared	bit (1) unaligned,
  1    10 	  2 processed	bit (1) unaligned,
  1    11 	  2 optimized	bit (1) unaligned,
  1    12 	  2 number	fixed (14) unaligned,
  1    13 	  2 operand	dimension (n refer (operator.number)) ptr unaligned;
  1    14
  1    15 dcl	max_number_of_operands
  1    16 			fixed bin (15) int static options (constant) initial (32767);
  1    17
  1    18 /* END INCLUDE FILE ... operator.incl.pl1 */
       31
  2     1 /* BEGIN INCLUDE FILE ... list.incl.pl1 */
  2     2
  2     3 /* Modified 26 June 81 by EBush to add max_list_elements */
  2     4
  2     5
  2     6 dcl	1 list		based aligned,
  2     7 	2 node_type	bit(9) unaligned,
  2     8 	2 reserved	bit(12) unaligned,
  2     9 	2 number		fixed(14) unaligned,
  2    10 	2 element		dimension(n refer(list.number)) ptr unaligned;
  2    11
  2    12 dcl       max_list_elements   fixed bin(17) internal static options (constant)
  2    13 	                    init(16383);
  2    14
  2    15 /* END INCLUDE FILE ... list.incl.pl1 */
       32
  3     1 /* BEGIN INCLUDE FILE ... block.incl.pl1 */
  3     2 /* Modified 22 Ocober 1980 by M. N. Davidoff to increase max block.number to 511 */
  3     3 /* format: style3,idind30 */
  3     4
  3     5 declare	1 block			aligned based,
  3     6 	  2 node_type		bit (9) unaligned,
  3     7 	  2 source_id		structure unaligned,
  3     8 	    3 file_number		bit (8),
  3     9 	    3 line_number		bit (14),
  3    10 	    3 statement_number	bit (5),
  3    11 	  2 father		ptr unaligned,
  3    12 	  2 brother		ptr unaligned,
  3    13 	  2 son			ptr unaligned,
  3    14 	  2 declaration		ptr unaligned,
  3    15 	  2 end_declaration		ptr unaligned,
  3    16 	  2 default		ptr unaligned,
  3    17 	  2 end_default		ptr unaligned,
  3    18 	  2 context		ptr unaligned,
  3    19 	  2 prologue		ptr unaligned,
  3    20 	  2 end_prologue		ptr unaligned,
  3    21 	  2 main			ptr unaligned,
  3    22 	  2 end_main		ptr unaligned,
  3    23 	  2 return_values		ptr unaligned,
  3    24 	  2 return_count		ptr unaligned,
  3    25 	  2 plio_ps		ptr unaligned,
  3    26 	  2 plio_fa		ptr unaligned,
  3    27 	  2 plio_ffsb		ptr unaligned,
  3    28 	  2 plio_ssl		ptr unaligned,
  3    29 	  2 plio_fab2		ptr unaligned,
  3    30 	  2 block_type		bit (9) unaligned,
  3    31 	  2 prefix		bit (12) unaligned,
  3    32 	  2 like_attribute		bit (1) unaligned,
  3    33 	  2 no_stack		bit (1) unaligned,
  3    34 	  2 get_data		bit (1) unaligned,
  3    35 	  2 flush_at_call		bit (1) unaligned,
  3    36 	  2 processed		bit (1) unaligned,
  3    37 	  2 text_displayed		bit (1) unaligned,
  3    38 	  2 number		fixed bin (9) unsigned unaligned,
  3    39 	  2 free_temps		dimension (3) ptr,	/* these fields are used by the code generator */
  3    40 	  2 temp_list		ptr,
  3    41 	  2 entry_list		ptr,
  3    42 	  2 o_and_s		ptr,
  3    43 	  2 why_nonquick		aligned,
  3    44 	    3 auto_adjustable_storage bit (1) unaligned,
  3    45 	    3 returns_star_extents	bit (1) unaligned,
  3    46 	    3 stack_extended_by_args	bit (1) unaligned,
  3    47 	    3 invoked_by_format	bit (1) unaligned,
  3    48 	    3 format_statement	bit (1) unaligned,
  3    49 	    3 io_statements		bit (1) unaligned,
  3    50 	    3 assigned_to_entry_var	bit (1) unaligned,
  3    51 	    3 condition_statements	bit (1) unaligned,
  3    52 	    3 no_owner		bit (1) unaligned,
  3    53 	    3 recursive_call	bit (1) unaligned,
  3    54 	    3 options_non_quick	bit (1) unaligned,
  3    55 	    3 options_variable	bit (1) unaligned,
  3    56 	    3 never_referenced	bit (1) unaligned,
  3    57 	    3 pad_nonquick		bit (5) unaligned,
  3    58 	  2 prologue_flag		bit (1) unaligned,
  3    59 	  2 options_main		bit (1) unaligned,
  3    60 	  2 pad			bit (16) unaligned,
  3    61 	  2 number_of_entries	fixed bin (17),
  3    62 	  2 level			fixed bin (17),
  3    63 	  2 last_auto_loc		fixed bin (17),
  3    64 	  2 symbol_block		fixed bin (17),
  3    65 	  2 entry_info		fixed bin (18),
  3    66 	  2 enter			structure unaligned,
  3    67 	    3 start		fixed bin (17),
  3    68 	    3 end			fixed bin (17),
  3    69 	  2 leave			structure unaligned,
  3    70 	    3 start		fixed bin (17),
  3    71 	    3 end			fixed bin (17),
  3    72 	  2 owner			ptr;
  3    73
  3    74 declare	max_block_number		fixed bin internal static options (constant) initial (511);
  3    75
  3    76 /* END INCLUDE FILE ... block.incl.pl1 */
       33
  4     1 /* BEGIN INCLUDE FILE ... reference.incl.pl1 */
  4     2
  4     3 dcl	1 reference		based aligned,
  4     4 	2 node_type		bit(9) unaligned,
  4     5 	2 array_ref		bit(1) unaligned,
  4     6 	2 varying_ref		bit(1) unaligned,
  4     7 	2 shared			bit(1) unaligned,
  4     8 	2 put_data_sw		bit(1) unaligned,
  4     9 	2 processed		bit(1) unaligned,
  4    10 	2 units			fixed(3) unaligned,
  4    11 	2 ref_count		fixed(17) unaligned,
  4    12 	2 c_offset		fixed(24),
  4    13 	2 c_length		fixed(24),
  4    14 	2 symbol			ptr unaligned,
  4    15 	2 qualifier		ptr unaligned,
  4    16 	2 offset			ptr unaligned,
  4    17 	2 length			ptr unaligned,
  4    18 	2 subscript_list		ptr unaligned,
  4    19 						/* these fields are used by the 645 code generator */
  4    20 	2 address			structure unaligned,
  4    21 	  3 base			bit(3),
  4    22 	  3 offset		bit(15),
  4    23 	  3 op			bit(9),
  4    24 	  3 no_address		bit(1),
  4    25 	  3 inhibit		bit(1),
  4    26 	  3 ext_base		bit(1),
  4    27 	  3 tag			bit(6),
  4    28 	2 info			structure unaligned,
  4    29 	  3 address_in		structure,
  4    30 	    4 b			dimension(0:7) bit(1),
  4    31 	    4 storage		bit(1),
  4    32 	  3 value_in		structure,
  4    33 	    4 a			bit(1),
  4    34 	    4 q			bit(1),
  4    35 	    4 aq			bit(1),
  4    36 	    4 string_aq		bit(1),
  4    37 	    4 complex_aq		bit(1),
  4    38 	    4 decimal_aq		bit(1),
  4    39 	    4 b			dimension(0:7) bit(1),
  4    40 	    4 storage		bit(1),
  4    41 	    4 indicators		bit(1),
  4    42 	    4 x			dimension(0:7) bit(1),
  4    43 	  3 other			structure,
  4    44 	    4 big_offset		bit(1),
  4    45 	    4 big_length		bit(1),
  4    46 	    4 modword_in_offset	bit(1),
  4    47 	2 data_type		fixed(5) unaligned,
  4    48 	2 bits			structure unaligned,
  4    49 	  3 padded_ref		bit(1),
  4    50 	  3 aligned_ref		bit(1),
  4    51 	  3 long_ref		bit(1),
  4    52 	  3 forward_ref		bit(1),
  4    53 	  3 ic_ref		bit(1),
  4    54 	  3 temp_ref		bit(1),
  4    55 	  3 defined_ref		bit(1),
  4    56 	  3 evaluated		bit(1),
  4    57 	  3 allocate		bit(1),
  4    58 	  3 allocated		bit(1),
  4    59 	  3 aliasable		bit(1),
  4    60 	  3 even			bit(1),
  4    61 	  3 perm_address		bit(1),
  4    62 	  3 aggregate		bit(1),
  4    63 	  3 hit_zero		bit(1),
  4    64 	  3 dont_save		bit(1),
  4    65 	  3 fo_in_qual		bit(1),
  4    66 	  3 hard_to_load		bit(1),
  4    67 	2 relocation		bit(12) unaligned,
  4    68 	2 more_bits		structure unaligned,
  4    69 	  3 substr		bit(1),
  4    70 	  3 padded_for_store_ref	bit(1),
  4    71 	  3 aligned_for_store_ref	bit(1),
  4    72 	  3 mbz			bit(15),
  4    73 	2 store_ins		bit(18) unaligned;
  4    74
  4    75 /* END INCLUDE FILE ... reference.incl.pl1 */
       34
  5     1 /* BEGIN INCLUDE FILE ... symbol.incl.pl1 */
  5     2
  5     3 dcl	1 symbol			based aligned,
  5     4 	2 node_type		bit(9) unal,
  5     5 	2 source_id		structure unal,
  5     6 	  3 file_number		bit(8),
  5     7 	  3 line_number		bit(14),
  5     8 	  3 statement_number	bit(5),
  5     9 	2 location		fixed(18) unal unsigned,
  5    10 	2 allocated		bit(1) unal,
  5    11 	2 dcl_type		bit(3) unal,
  5    12 	2 reserved		bit(6) unal,
  5    13 	2 pix			unal,
  5    14 	  3 pic_fixed		bit(1) unal,
  5    15 	  3 pic_float		bit(1) unal,
  5    16 	  3 pic_char		bit(1) unal,
  5    17 	  3 pic_scale		fixed(7) unal,
  5    18 	  3 pic_size		fixed(7) unal,
  5    19 	2 level			fixed(8) unal,
  5    20 	2 boundary		fixed(3) unal,
  5    21 	2 size_units		fixed(3) unal,
  5    22 	2 scale			fixed(7) unal,
  5    23 	2 runtime			bit(18) unal,
  5    24 	2 runtime_offset		bit(18) unal,
  5    25 	2 block_node		ptr unal,
  5    26 	2 token			ptr unal,
  5    27 	2 next			ptr unal,
  5    28 	2 multi_use		ptr unal,
  5    29 	2 cross_references		ptr unal,
  5    30 	2 initial			ptr unal,
  5    31 	2 array			ptr unal,
  5    32 	2 descriptor		ptr unal,
  5    33 	2 equivalence		ptr unal,
  5    34 	2 reference		ptr unal,
  5    35 	2 general			ptr unal,
  5    36 	2 father			ptr unal,
  5    37 	2 brother			ptr unal,
  5    38 	2 son			ptr unal,
  5    39 	2 word_size		ptr unal,
  5    40 	2 bit_size		ptr unal,
  5    41 	2 dcl_size		ptr unal,
  5    42 	2 symtab_size		ptr unal,
  5    43 	2 c_word_size		fixed(24),
  5    44 	2 c_bit_size		fixed(24),
  5    45 	2 c_dcl_size		fixed(24),
  5    46
  5    47 	2 attributes		structure aligned,
  5    48 	  3 data_type		structure unal,
  5    49 	    4 structure		bit(1) ,
  5    50 	    4 fixed		bit(1),
  5    51 	    4 float		bit(1),
  5    52 	    4 bit			bit(1),
  5    53 	    4 char		bit(1),
  5    54 	    4 ptr			bit(1),
  5    55 	    4 offset		bit(1),
  5    56 	    4 area		bit(1),
  5    57 	    4 label		bit(1),
  5    58 	    4 entry		bit(1),
  5    59 	    4 file		bit(1),
  5    60 	    4 arg_descriptor	bit(1),
  5    61 	    4 storage_block		bit(1),
  5    62 	    4 explicit_packed	bit(1), /* options(packed) */
  5    63 	    4 condition		bit(1),
  5    64 	    4 format		bit(1),
  5    65 	    4 builtin		bit(1),
  5    66 	    4 generic		bit(1),
  5    67 	    4 picture		bit(1),
  5    68
  5    69 	  3 misc_attributes		structure unal,
  5    70 	    4 dimensioned		bit(1),
  5    71 	    4 initialed		bit(1),
  5    72 	    4 aligned		bit(1),
  5    73 	    4 unaligned		bit(1),
  5    74 	    4 signed		bit(1),
  5    75 	    4 unsigned		bit(1),
  5    76 	    4 precision		bit(1),
  5    77 	    4 varying		bit(1),
  5    78 	    4 local		bit(1),
  5    79 	    4 decimal		bit(1),
  5    80 	    4 binary		bit(1),
  5    81 	    4 real		bit(1),
  5    82 	    4 complex		bit(1),
  5    83 	    4 variable		bit(1),
  5    84 	    4 reducible		bit(1),
  5    85 	    4 irreducible		bit(1),
  5    86 	    4 returns		bit(1),
  5    87 	    4 position		bit(1),
  5    88 	    4 internal		bit(1),
  5    89 	    4 external		bit(1),
  5    90 	    4 like		bit(1),
  5    91 	    4 member		bit(1),
  5    92 	    4 non_varying		bit(1),
  5    93 	    4 options		bit(1),
  5    94 	    4 variable_arg_list 	bit(1),		/* options(variable) */
  5    95 	    4 alloc_in_text		bit(1),		/* options(constant) */
  5    96
  5    97 	  3 storage_class		structure unal,
  5    98 	    4 auto		bit(1),
  5    99 	    4 based		bit(1),
  5   100 	    4 static		bit(1),
  5   101 	    4 controlled		bit(1),
  5   102 	    4 defined		bit(1),
  5   103 	    4 parameter		bit(1),
  5   104 	    4 param_desc		bit(1),
  5   105 	    4 constant		bit(1),
  5   106 	    4 temporary		bit(1),
  5   107 	    4 return_value		bit(1),
  5   108
  5   109 	  3 file_attributes		structure unal,
  5   110 	    4 print		bit(1),
  5   111 	    4 input		bit(1),
  5   112 	    4 output		bit(1),
  5   113 	    4 update		bit(1),
  5   114 	    4 stream		bit(1),
  5   115 	    4 reserved_1		bit(1),
  5   116 	    4 record		bit(1),
  5   117 	    4 sequential		bit(1),
  5   118 	    4 direct		bit(1),
  5   119 	    4 interactive		bit(1),		/* env(interactive) */
  5   120 	    4 reserved_2		bit(1),
  5   121 	    4 reserved_3		bit(1),
  5   122 	    4 stringvalue		bit(1),		/* env(stringvalue) */
  5   123 	    4 keyed		bit(1),
  5   124 	    4 reserved_4		bit(1),
  5   125 	    4 environment		bit(1),
  5   126
  5   127 	  3 compiler_developed	structure unal,
  5   128 	    4 aliasable		bit(1),
  5   129 	    4 packed		bit(1),
  5   130 	    4 passed_as_arg		bit(1),
  5   131 	    4 allocate		bit(1),
  5   132 	    4 set			bit(1),
  5   133 	    4 exp_extents		bit(1),
  5   134 	    4 refer_extents		bit(1),
  5   135 	    4 star_extents		bit(1),
  5   136 	    4 isub		bit(1),
  5   137 	    4 put_in_symtab		bit(1),
  5   138 	    4 contiguous		bit(1),
  5   139 	    4 put_data		bit(1),
  5   140 	    4 overlayed		bit(1),
  5   141 	    4 error		bit(1),
  5   142 	    4 symtab_processed	bit(1),
  5   143 	    4 overlayed_by_builtin	bit(1),
  5   144 	    4 defaulted		bit(1),
  5   145 	    4 connected		bit(1);
  5   146
  5   147 /* END INCLUDE FILE ... symbol.incl.pl1 */
       35
  6     1 /* BEGIN INCLUDE FILE ... nodes.incl.pl1 */
  6     2
  6     3 /* Modified: 26 Dec 1979 by PCK to implement by name assignment */
  6     4
  6     5 dcl (	block_node		initial("000000001"b),
  6     6 	statement_node		initial("000000010"b),
  6     7 	operator_node		initial("000000011"b),
  6     8 	reference_node		initial("000000100"b),
  6     9 	token_node		initial("000000101"b),
  6    10 	symbol_node		initial("000000110"b),
  6    11 	context_node		initial("000000111"b),
  6    12 	array_node		initial("000001000"b),
  6    13 	bound_node		initial("000001001"b),
  6    14 	format_value_node		initial("000001010"b),
  6    15 	list_node			initial("000001011"b),
  6    16 	default_node		initial("000001100"b),
  6    17 	machine_state_node		initial("000001101"b),
  6    18 	source_node		initial("000001110"b),
  6    19 	label_node		initial("000001111"b),
  6    20 	cross_reference_node	initial("000010000"b),
  6    21 	sf_par_node		initial("000010001"b),
  6    22 	temporary_node		initial("000010010"b),
  6    23 	label_array_element_node	initial("000010011"b),
  6    24 	by_name_agg_node		initial("000010100"b))
  6    25 				bit(9) internal static aligned options(constant);
  6    26
  6    27 dcl	1 node			based aligned,
  6    28 	2 type			unal bit(9),
  6    29 	2 source_id		unal structure,
  6    30 	  3 file_number		bit(8),
  6    31 	  3 line_number		bit(14),
  6    32 	  3 statement_number	bit(5);
  6    33
  6    34 /* END INCLUDE FILE ... nodes.incl.pl1 */
       36
  7     1 /* BEGIN INCLUDE FILE ... op_codes.incl.pl1 */
  7     2
  7     3 /* Modified: 25 Apr 1979 by PCK 4-bit decimal */
  7     4 /* Modified: 6 Jun 1979 by PG to add rank and byte */
  7     5 /* Modified: 26 Dec 1979 by PCK to add assign_by_name */
  7     6 /* Modified: 26 July 82 BIM wordno, segno */
  7     7
  7     8 dcl (	add		initial("000010001"b),	/* opnd(1) <- opnd(2)+opnd(3)		*/
  7     9 	sub		initial("000010010"b),	/* opnd(1) <- opnd(2)-opnd(3)		*/
  7    10 	mult		initial("000010011"b),	/* opnd(1) <- opnd(2)*opnd(3)		*/
  7    11 	div		initial("000010100"b),	/* opnd(1) <- opnd(2)/opnd(3)		*/
  7    12 	negate		initial("000010101"b),	/* opnd(1) <- -opnd(2)  		*/
  7    13 	exp		initial("000010110"b),	/* opnd(1) <- opnd(2) ** opnd(3)	*/
  7    14
  7    15 	and_bits		initial("000100001"b),	/* opnd(1) <- opnd(2) & opnd(3)	*/
  7    16 	or_bits		initial("000100010"b),	/* opnd(1) <- opnd(2)|opnd(3)		*/
  7    17 	xor_bits		initial("000100011"b),	/* opnd(1) <- opnd(2) xor opnd(3)	*/
  7    18 	not_bits		initial("000100100"b),	/* opnd(1) <- ^opnd(2)		*/
  7    19 	cat_string	initial("000100101"b),	/* opnd(1) <- opnd(2)||opnd(3)	*/
  7    20 	bool_fun		initial("000100110"b),	/* opnd(1) <- bool(opnd(2),opnd(3),opnd(4)) */
  7    21
  7    22 	assign		initial("000110001"b),	/* opnd(1) <- opnd(2)		*/
  7    23 	assign_size_ck	initial("000110010"b),	/* opnd(1) <- opnd(2)		*/
  7    24 	assign_zero	initial("000110011"b),	/* opnd(1) <- 0			*/
  7    25 	copy_words	initial("000110100"b),	/* move opnd(2) to opnd(1) by opnd(3) words */
  7    26 	copy_string	initial("000110101"b),	/* move opnd(2) to opnd(1) by opnd(3) units */
  7    27 	make_desc		initial("000110110"b),	/* opnd(1) <- descriptor(opnd(2),opnd(3)) */
  7    28 	assign_round	initial("000110111"b),	/* opnd(1) <- opnd(2) rounded		*/
  7    29 	pack		initial("000111000"b),	/* opnd(1) <- encode to picture opnd(2) */
  7    30 	unpack		initial("000111001"b),	/* opnd(1) <- decode from picture opnd(2) */
  7    31
  7    32 	less_than		initial("001000100"b),	/* opnd(1) <- opnd(2) < opnd(3)	*/
  7    33 	greater_than	initial("001000101"b),	/* opnd(1) <- opnd(2) > opnd(3)	*/
  7    34 	equal		initial("001000110"b),	/* opnd(1) <- opnd(2) = opnd(3)	*/
  7    35 	not_equal		initial("001000111"b),	/* opnd(1) <- opnd(2) ^= opnd(3)	*/
  7    36 	less_or_equal	initial("001001000"b),	/* opnd(1) <- opnd(2) <= opnd(3)	*/
  7    37 	greater_or_equal	initial("001001001"b),	/* opnd(1) <- opnd(2) >= opnd(3)	*/
  7    38
  7    39 	jump		initial("001010001"b),	/* go to opnd(1) unconditionally	*/
  7    40 	jump_true		initial("001010010"b),	/* go to opnd(1) if opnd(2) is not 0	*/
  7    41 	jump_false	initial("001010011"b),	/* go to opnd(1) if opnd(2) is all 0	*/
  7    42 	jump_if_lt	initial("001010100"b),	/* go to opnd(1) if opnd(2) < opnd(3)	*/
  7    43 	jump_if_gt	initial("001010101"b),	/* go to opnd(1) if opnd(2) > opnd(3)	*/
  7    44 	jump_if_eq	initial("001010110"b),	/* go to opnd(1) if opnd(2) = opnd(3)	*/
  7    45 	jump_if_ne	initial("001010111"b),	/* go to opnd(1) if opnd(2) ^= opnd(3)	*/
  7    46 	jump_if_le	initial("001011000"b),	/* go to opnd(1) if opnd(2) <= opnd(3)	*/
  7    47 	jump_if_ge	initial("001011001"b),	/* go to opnd(1) if opnd(2) >= opnd(3)	*/
  7    48
  7    49 	std_arg_list	initial("001100001"b),	/* opnd(1) <- arglist(opnd(2) desclist(opnd(3)))	*/
  7    50 	return_words	initial("001100010"b),	/* return aggregate opnd(1), opnd(2) is length in words */
  7    51 	std_call		initial("001100011"b),	/* opnd(1) <- call opnd(2) with opnd(3)		*/
  7    52 	return_bits	initial("001100100"b),	/* return aggregate opnd(1), opnd(2) is length in bits */
  7    53 	std_entry		initial("001100101"b),	/* entry(opnd(1)... opnd(n))			*/
  7    54 	return_string	initial("001100110"b),	/* return string opnd(1) */
  7    55 	ex_prologue	initial("001100111"b),	/* execute the prologue -no operands-		*/
  7    56 	allot_auto	initial("001101000"b),	/* opnd(1) <- addrel(stack,opnd(2))		*/
  7    57 	param_ptr		initial("001101001"b),	/* opnd(1) <- ptr to opnd(2) in  block opnd(3)	*/
  7    58 	param_desc_ptr	initial("001101010"b),	/* opnd(1) <- ptr to opnd(2) in block opnd(3)	*/
  7    59 	std_return	initial("001101011"b),	/* return -no arguments-			*/
  7    60 	allot_ctl		initial("001101100"b),	/* allocate opnd(1) , length in words is opnd(2) 	*/
  7    61 	free_ctl		initial("001101101"b),	/* free opnd(1)				*/
  7    62 	stop		initial("001101110"b),	/* stop - terminate run unit			*/
  7    63
  7    64 	mod_bit		initial("001110000"b),	/* opnd(1) <- mod(opnd(3),36),
  7    65*						   opnd(2) <- opnd(3) / 36		*/
  7    66 	mod_byte		initial("001110001"b),	/* opnd(1) <- mod(opnd(3),4),
  7    67*						   opnd(2) <- opnd(3) / 4		*/
  7    68 	mod_half		initial("001110010"b),	/* opnd(1) <- mod(opnd(3),2),
  7    69*						   opnd(2) <- opnd(3) / 2		*/
  7    70 	mod_word		initial("001110011"b),	/* TO BE DEFINED BY BLW			*/
  7    71
  7    72 	bit_to_char	initial("010000000"b),	/* opnd(1) <- (opnd(2)+8)/9		*/
  7    73 	bit_to_word	initial("010000001"b),	/* opnd(1) <- (opnd(2)+35)/36		*/
  7    74 	char_to_word	initial("010000010"b),	/* opnd(1) <- (opnd(2)+3)/4		*/
  7    75 	half_to_word	initial("010000011"b),	/* opnd(1) <- (opnd(2)+1)/2		*/
  7    76 	word_to_mod2	initial("010000100"b),	/* opnd(1) <- (opnd(2)+1)/2*2		*/
  7    77 	word_to_mod4	initial("010000101"b),	/* opnd(1) <- (opnd(2)+3)/4*4		*/
  7    78 	word_to_mod8	initial("010000110"b),	/* opnd(1) <- (opnd(2)+7)/8*8		*/
  7    79 	rel_fun		initial("010000111"b),	/* opnd(1) <- rel(opnd(2))		*/
  7    80 	baseno_fun	initial("010001000"b),	/* opnd(1) <- baseno(opnd(2))		*/
  7    81 	desc_size		initial("010001001"b),	/* opnd(1) <- substr(opnd(2),13,24)	*/
  7    82 	bit_pointer	initial("010001010"b),	/* opnd(1) <- bit offset of opnd(2)	*/
  7    83 	index_before_fun	initial("010001011"b),	/* opnd(1) <- length of before(opnd(2),opnd(3)) */
  7    84 	index_after_fun	initial("010001100"b),	/* opnd(1) <- offset of after(opnd(2),opnd(3)) in opnd(2) */
  7    85 	verify_ltrim_fun	initial("010001101"b),	/* opnd(1) <- offset of ltrim(opnd(2),opnd(3)) in opnd(2) */
  7    86 	verify_rtrim_fun	initial("010001110"b),	/* opnd(1) <- length(opnd(2))-length(rtrim(opnd(2),opnd(3))) */
  7    87 	digit_to_bit	initial("010001111"b),	/* opnd(1) <- 9*opnd(2)/2		*/
  7    88
  7    89 	ceil_fun		initial("010010000"b),	/* opnd(1) <- ceil(opnd(2))		*/
  7    90 	floor_fun		initial("010010001"b),	/* opnd(1) <- floor(opnd(2))		*/
  7    91 	round_fun		initial("010010010"b),	/* opnd(1) <- round(opnd(2))		*/
  7    92 	sign_fun		initial("010010011"b),	/* opnd(1) <- sign(opnd(2))		*/
  7    93 	abs_fun		initial("010010100"b),	/* opnd(1) <- abs(opnd(2))		*/
  7    94 	trunc_fun		initial("010010101"b),	/* opnd(1) <- trunc(opnd(2))		*/
  7    95 	byte_fun		initial("010010110"b),	/* opnd(1) <- byte(opnd(2))		*/
  7    96 	rank_fun		initial("010010111"b),	/* opnd(1) <- rank(opnd(2))		*/
  7    97 	index_rev_fun	initial("010011000"b),	/* opnd(1) <- index(reverse(opnd(2)),reverse(opnd(3))) */
  7    98 	search_rev_fun	initial("010011001"b),	/* opnd(1) <- search(reverse(opnd(2)),opnd(3)) */
  7    99 	verify_rev_fun	initial("010011010"b),	/* opnd(1) <- verify(reverse(opnd(2)),opnd(3)) */
  7   100 	wordno_fun	initial("010011011"b),        /* opnd(1) <- wordno (opnd(2)) */
  7   101 	segno_fun		initial("010011100"b),        /* opnd(1) <- segno (opnd(2)) */
  7   102 	bitno_fun           initial("010011101"b),        /* opnd(1) <- bitno (opnd(2)) */
  7   103 	charno_fun	initial("010011110"b),        /* opnd(1) <- charno (opnd(2)) */
  7   104
  7   105 	index_fun		initial("010100000"b),	/* opnd(1) <- index(opnd(2),opnd(3))	*/
  7   106 	off_fun		initial("010100001"b),	/* opnd(1) <- offset(opnd(2),opnd(3))	*/
  7   107 	complex_fun	initial("010100010"b),	/* opnd(1) <- complex(opnd(2),opnd(3))	*/
  7   108 	conjg_fun		initial("010100011"b),	/* opnd(1) <- conjg(opnd(2),opnd(3))	*/
  7   109 	mod_fun		initial("010100100"b),	/* opnd(1) <- mod(opnd(2),opnd(3))	*/
  7   110 	repeat_fun	initial("010100101"b),	/* opnd(1) <- repeat(opnd(2),opnd(3))	*/
  7   111 	verify_fun	initial("010100110"b),	/* opnd(1) <- verify(opnd(2),opnd(3))	*/
  7   112 	translate_fun	initial("010100111"b),	/* opnd(1) <- translate(opnd(2),opnd(3))*/
  7   113 	real_fun   	initial("010101001"b),	/* opnd(1) <- real(opnd(2))		*/
  7   114 	imag_fun   	initial("010101010"b),	/* opnd(1) <- imag(opnd(2))		*/
  7   115 	length_fun	initial("010101011"b),	/* opnd(1) <- length(opnd(2))	*/
  7   116 	pl1_mod_fun	initial("010101100"b),	/* opnd(1) <- mod(opnd(2)) */
  7   117 	search_fun	initial("010101101"b),	/* opnd(1) <- search(opnd(2),opnd(3)) */
  7   118 	allocation_fun	initial("010101110"b),	/* opnd(1) <- allocation(opnd(2)) */
  7   119 	reverse_fun	initial("010101111"b),	/* opnd(1) <- reverse(opnd(2)) */
  7   120
  7   121 	addr_fun		initial("010110000"b),	/* opnd(1) <- addr(opnd(2))		*/
  7   122 	addr_fun_bits	initial("010110001"b),	/* opnd(1) <- addr(opnd(2))		*/
  7   123 	ptr_fun		initial("010110010"b),	/* opnd(1) <- ptr(opnd(2),opnd(3))	*/
  7   124 	baseptr_fun	initial("010110011"b),	/* opnd(1) <- baseptr(opnd(2))	*/
  7   125 	addrel_fun	initial("010110100"b),	/* opnd(1) <- addrel(opnd(2),opnd(3))	*/
  7   126 	codeptr_fun	initial("010110101"b),	/* opnd(1) <- codeptr(opnd(2))	*/
  7   127 	environmentptr_fun	initial("010110110"b),	/* opnd(1) <- environmentptr(opnd(2))	*/
  7   128 	stackbaseptr_fun	initial("010110111"b),	/* opnd(1) is ptr to base of current stack	*/
  7   129 	stackframeptr_fun	initial("010111000"b),	/* opnd(1) is ptr to current block's stack frame	*/
  7   130 	setcharno_fun	initial("010111001"b),	/* opnd(1) <- opnd(2) with charno opnd(3) */
  7   131 	addcharno_fun	initial("010111010"b),	/* opnd(1) <- opnd(2) with charno = charno + opnd(3) */
  7   132 	setbitno_fun	initial("010111011"b),	/* setcharno for bitsno */
  7   133 	addbitno_fun	initial("010111100"b),	/* addcharno for bitno */
  7   134
  7   135 	min_fun		initial("011000000"b),	/* opnd(1) <- min(opnd(1),opnd(2),...)	*/
  7   136 	max_fun		initial("011000001"b),	/* opnd(1) <- max(opnd(1),opnd(2),...)	*/
  7   137
  7   138 	stack_ptr		initial("011010001"b),	/* opnd(1) <- stack frame ptr		*/
  7   139 	empty_area	initial("011010010"b),	/* empty opnd(1), length in words is opnd(2) */
  7   140 	enable_on		initial("011010100"b),	/* opnd(1) is the cond name
  7   141*						   opnd(2) is the file name
  7   142*						   opnd(3) is the block	*/
  7   143 	revert_on		initial("011010101"b),	/* opnd(1) is the cond name,
  7   144*						   opnd(2) is the file name	*/
  7   145 	signal_on		initial("011010110"b),	/* opnd(1) is the cond name
  7   146*						   opnd(2) is the file name */
  7   147
  7   148 	lock_fun		initial("011010111"b),	/* opnd(1) <- stac(opnd(2),opnd(3))	*/
  7   149 	stacq_fun		initial("011011000"b),	/* opnd(1) is result, opnd(2) is ptr to lock word,
  7   150*						   opnd(3) is old value, (4) is new value. */
  7   151 	clock_fun		initial("011011001"b),	/* opnd(1) is the clock time		*/
  7   152 	vclock_fun	initial("011011010"b),	/* opnd(1) is the virtual clock time	*/
  7   153
  7   154 	bound_ck		initial("011100000"b),	/* opnd(1) <- opnd(2) if opnd(3) <= opnd(2) <= opnd(4) */
  7   155 	range_ck		initial("011100001"b),	/* opnd(1) <- opnd(2) if opnd(3) <= opnd(2) <= opnd(4) */
  7   156 	loop		initial("011100010"b),	/* do opnd(1) for opnd(2) from opnd(3) to opnd(4) by 1,
  7   157*						   opnd(5) is the list */
  7   158 	join		initial("011100011"b),	/* do opnd(1), opnd(2) ... opnd(n)	*/
  7   159 	allot_based	initial("011100100"b),	/* allocate opnd(2) words in opnd(3), set opnd(1) */
  7   160 	free_based	initial("011100101"b),	/* free opnd(1) in opnd(3), length is opnd(2) words */
  7   161
  7   162 	r_parn		initial("011110001"b),	/* format op code			*/
  7   163 	l_parn		initial("011110010"b),
  7   164 	r_format		initial("011110011"b),
  7   165 	c_format		initial("011110100"b),
  7   166 	f_format		initial("011110101"b),
  7   167 	e_format		initial("011110110"b),
  7   168 	b_format		initial("011110111"b),
  7   169 	a_format		initial("011111000"b),
  7   170 	x_format		initial("011111001"b),
  7   171 	skip_format	initial("011111010"b),
  7   172 	column_format	initial("011111011"b),
  7   173 	page_format	initial("011111100"b),
  7   174 	line_format	initial("011111101"b),
  7   175 	picture_format	initial("011111110"b),
  7   176 	bn_format		initial("011111111"b),	/* bit format, length(opnd(2)), radix factor(opnd(3)) */
  7   177
  7   178 	get_list_trans	initial("100000000"b),	/* getlist(opnd(2) with desc(opnd(1)))	*/
  7   179 	get_edit_trans	initial("100000001"b),	/* getedit(opnd(2) with desc(opnd(1)))	*/
  7   180 	get_data_trans	initial("100000010"b),	/* getdata(opnd(1) to opnd(n))	*/
  7   181 	put_list_trans	initial("100000011"b),	/* putlist(opnd(2) with desc(opnd(1)))	*/
  7   182 	put_edit_trans	initial("100000100"b),	/* putedit(opnd(2) with desc(opnd(1)))	*/
  7   183 	put_data_trans	initial("100000101"b),	/* putdata(opnd(2)) with subscript-list opnd(1) */
  7   184 	terminate_trans	initial("100000110"b),	/* terminate stream transmission	*/
  7   185 	stream_prep	initial("100000111"b),	/* initiate stream transmission	*/
  7   186 	record_io		initial("100001000"b),	/* perform record io operation	*/
  7   187 	fortran_read	initial("100001001"b),	/* A complete read statement		*/
  7   188 	fortran_write	initial("100001010"b),	/* A complete write statement		*/
  7   189 	ftn_file_manip	initial("100001011"b),	/* endfile,backspace,rewind,etc.	*/
  7   190 	ftn_trans_loop	initial("100001100"b),	/* An implied do in i/o list		*/
  7   191 	put_control	initial("100001101"b),	/* put control opnd(1) opnd(2) times	*/
  7   192 	put_field		initial("100001110"b),	/* putlist(opnd(2)) of length(opnd(1))	*/
  7   193 	put_field_chk	initial("100001111"b),	/* putlist(op(2)) of len(op(1)) check char index(op(3)) */
  7   194
  7   195 /* These operators are produced by the parse but are not used as input to the code generator.	*/
  7   196 /* They are processed by the semantic translator.						*/
  7   197
  7   198 	return_value	initial("100010010"b),	/* return(opnd(1))			*/
  7   199 	allot_var		initial("100010011"b),	/* allot opnd(1) in opnd(2)		*/
  7   200 	free_var		initial("100010100"b),	/* free opnd(1) out of opnd(2)	*/
  7   201 	get_file		initial("100010101"b),	/* opnd(1) is filename,opnd(2) is copy	*/
  7   202 						/* opnd(3) is skip, opnd(4) is list	*/
  7   203 	get_string	initial("100010110"b),	/* opnd(1) is string,opnd(2) is list	*/
  7   204 	put_file		initial("100010111"b),	/* opnd(1) is filename,opnd(2) is page	*/
  7   205 						/* opnd(3) is skip,opnd(4) is line	*/
  7   206 	put_string	initial("100011000"b),	/* opnd(1) is string,opnd(2) is list	*/
  7   207 	open_file		initial("100011001"b),
  7   208 	close_file	initial("100011010"b),
  7   209 	read_file		initial("100011011"b),
  7   210 	write_file	initial("100011100"b),
  7   211 	locate_file	initial("100011101"b),
  7   212 	do_fun		initial("100011110"b),	/* opnd(1) is join of a list		*/
  7   213 						/* opnd(2) is control variable ref	*/
  7   214 						/* opnd(3) is specification operator	*/
  7   215 	do_spec		initial("100011111"b),	/* opnd(1) to opnd(2) by opnd(3) 	*/
  7   216 						/* repeat opnd(4) while opnd(5)	*/
  7   217 						/* opnd(6) is next specification	*/
  7   218
  7   219 	rewrite_file	initial("100100000"b),
  7   220 	delete_file	initial("100100001"b),
  7   221 	unlock_file	initial("100100010"b),
  7   222 	lock_file		initial("100100011"b),
  7   223 	refer		initial("100100101"b),	/* opnd(1) refer(opnd(2))		*/
  7   224 	prefix_plus	initial("100100110"b),	/* opnd(1) <- +opnd(2)		*/
  7   225 	nop		initial("100100111"b),	/* no-op */
  7   226 	assign_by_name	initial("100101000"b),	/* opnd(1) <- opnd(2),by name		*/
  7   227
  7   228 /* These operators are produced by the semantic translator in processing the math
  7   229*   builtin functions and are used as input to the code generator			*/
  7   230
  7   231 	sqrt_fun		initial("100110000"b),	/* opnd(1) <- sqrt(opnd(2))	*/
  7   232 	sin_fun		initial("100110001"b),	/* opnd(1) <- sin(opnd(2))	*/
  7   233 	sind_fun		initial("100110010"b),	/* opnd(1) <- sind(opnd(2))	*/
  7   234 	cos_fun		initial("100110011"b),	/* opnd(1) <- cos(opnd(2))	*/
  7   235 	cosd_fun		initial("100110100"b),	/* opnd(1) <- cosd(opnd(2))	*/
  7   236 	tan_fun		initial("100110101"b),	/* opnd(1) <- tan(opnd(2))	*/
  7   237 	tand_fun		initial("100110110"b),	/* opnd(1) <- tand(opnd(2))	*/
  7   238 	asin_fun		initial("100110111"b),	/* opnd(1) <- asin(opnd(2))	*/
  7   239 	asind_fun		initial("100111000"b),	/* opnd(1) <- asind(opnd(2))	*/
  7   240 	acos_fun		initial("100111001"b),	/* opnd(1) <- acos(opnd(2))	*/
  7   241 	acosd_fun		initial("100111010"b),	/* opnd(1) <- acosd(opnd(2))	*/
  7   242 	atan_fun		initial("100111011"b),	/* opnd(1) <- atan(opnd(2)[,opnd(3)])	*/
  7   243 	atand_fun		initial("100111100"b),	/* opnd(1) <- atand(opnd(2)[,opnd(3)])	*/
  7   244 	log2_fun		initial("100111101"b),	/* opnd(1) <- log2(opnd(2))	*/
  7   245 	log_fun		initial("100111110"b),	/* opnd(1) <- log(opnd(2))	*/
  7   246 	log10_fun		initial("100111111"b),	/* opnd(1) <- log10(opnd(2))	*/
  7   247
  7   248 	exp_fun		initial("101000000"b))	/* opnd(1) <- exp(opnd(2))	*/
  7   249
  7   250 			bit(9) aligned internal static options(constant);
  7   251
  7   252 /* END INCLUDE FILE ... op_codes.incl.pl1 */
       37
  8     1 /*	BEGIN INCLUDE FILE ... descriptor.incl.pl1	*/
  8     2
  8     3 dcl	1 desc_		aligned,
  8     4 	2 version2_	bit(1) unal,
  8     5 	2 type_		fixed bin(6) unsigned unal,
  8     6 	2 pack_		bit(1) unal,
  8     7 	2 dimension_	bit(4) unal,
  8     8 	2 scale_		fixed bin(11) unal,
  8     9 	2 precision_	fixed bin(11) unal;
  8    10
  8    11 /*	END INCLUDE FILE ... descriptor.incl.pl1	*/
       38
  9     1 dcl (	s_fixed_real_desc		init( 1),
  9     2 	d_fixed_real_desc		init( 2),
  9     3 	s_float_real_desc		init( 3),
  9     4 	d_float_real_desc		init( 4),
  9     5 	s_fixed_cplx_desc		init( 5),
  9     6 	d_fixed_cplx_desc		init( 6),
  9     7 	s_float_cplx_desc		init( 7),
  9     8 	d_float_cplx_desc		init( 8),
  9     9
  9    10 	D_fixed_real_desc		init( 9),
  9    11 	D_float_real_desc		init(10),
  9    12 	D_fixed_cplx_desc		init(11),
  9    13 	D_float_cplx_desc		init(12),
  9    14
  9    15 	pointer_desc		init(13),
  9    16 	offset_desc		init(14),
  9    17 	label_desc		init(15),
  9    18 	entry_desc		init(16),
  9    19 	structure_desc		init(17),
  9    20 	area_desc			init(18),
  9    21
  9    22 	bit_desc			init(19),
  9    23 	v_bit_desc		init(20),
  9    24
  9    25 	char_desc			init(21),
  9    26 	v_char_desc		init(22),
  9    27
  9    28 	file_desc			init(23)
  9    29 					) fixed bin int static options(constant);
       39
       40
       41 	p = pt;
       42 	if p -> node.type ^= operator_node
       43 	then do;
       44 no:	     return(null);
       45 	     end;
       46
       47 	if p -> op_code ^= desc_size then goto no;
       48
       49 	q = p -> operand(2);
       50 	if q -> node.type ^= reference_node then goto no;
       51
       52 	d = q;
       53
       54 	q = q -> reference.qualifier;
       55 	if q = null then goto no;
       56
       57 	if q -> node.type ^= operator_node then goto no;
       58 	if q -> op_code ^= param_desc_ptr then goto no;
       59
       60 	if d -> reference.symbol -> symbol.descriptor -> symbol.initial -> descriptor.type_ = structure_desc
       61 	     then go to no;
       62
       63 	n = 2 * q -> operand(2) -> reference.symbol -> symbol.initial -> fix_bin;
       64
       65 	p = q -> operand(3);
       66 	p1 = p -> block.o_and_s;
       67 	if p1 = null then goto no;
       68
       69 	if p1 -> list.number < n
       70 	then do;
       71 	     m = n + mod(n,2);
       72 	     q = create_list(m);
       73
       74 	     do i = 1 to p1 -> list.number;
       75 		q -> element(i) = p1 -> element(i);
       76 		end;
       77
       78 	     p -> block.o_and_s, p1 = q;
       79 	     end;
       80
       81 	q = p1 -> element(n);
       82 	if q = null then p1 -> element(n), q = get_variable(p);
       83 	return(q);
       84
       85
       86 	end;
	SOURCE FILES USED IN THIS COMPILATION.

LINE      NUMBER  DATE MODIFIED     NAME			PATHNAME
             0    10/03/83  1007.9  check_o_and_s.pl1                 >spec>on>pl128d>check_o_and_s.pl1
31           1    07/21/80  1546.3  operator.incl.pl1                 >ldd>include>operator.incl.pl1
32           2    08/13/81  2211.5  list.incl.pl1                     >ldd>include>list.incl.pl1
33           3    08/13/81  2043.5  block.incl.pl1                    >ldd>include>block.incl.pl1
34           4    07/21/80  1546.3  reference.incl.pl1                >ldd>include>reference.incl.pl1
35           5    10/02/83  0828.4  symbol.incl.pl1                   >spec>on>pl128d>symbol.incl.pl1
36           6    07/21/80  1546.3  nodes.incl.pl1                    >ldd>include>nodes.incl.pl1
37           7    04/07/83  1635.0  op_codes.incl.pl1                 >ldd>include>op_codes.incl.pl1
38           8    11/30/78  1227.5  descriptor.incl.pl1               >ldd>include>descriptor.incl.pl1
39           9    01/12/79  1059.7  desc_types.incl.pl1               >ldd>include>desc_types.incl.pl1
	NAMES DECLARED IN THIS COMPILATION.

IDENTIFIER	     OFFSET    LOC STORAGE CLASS   DATA TYPE		ATTRIBUTES AND REFERENCES
								(* indicates a set context)

NAMES DECLARED BY DECLARE STATEMENT.
block                                  based           structure                level 1 dcl 3-5
create_list                     000012 constant        entry                    external dcl 24 ref 72
d                               000100 automatic       pointer                  dcl 20 set ref 52* 60
desc_                           000113 automatic       structure                level 1 dcl 8-3
desc_size                              constant        bit(9)                   initial dcl 7-8 ref 47
descriptor                             based           structure                level 1 dcl 29 in procedure "check_o_and_s"
descriptor               13            based           pointer                  level 2 in structure "symbol" packed unaligned
                                                                                  dcl 5-3 in procedure "check_o_and_s" ref 60
element                   1            based           pointer                  array level 2 packed unaligned dcl 2-6 set ref 75*
                                                                                  75 81 82*
fix_bin                                based           fixed bin(17,0)          dcl 27 ref 63
get_variable                    000010 constant        entry                    external dcl 24 ref 82
i                               000110 automatic       fixed bin(17,0)          dcl 20 set ref 74* 75 75*
initial                  11            based           pointer                  level 2 packed unaligned dcl 5-3 ref 60 63
list                                   based           structure                level 1 dcl 2-6
m                               000111 automatic       fixed bin(17,0)          dcl 20 set ref 71* 72*
mod                                                    builtin function         dcl 20 ref 71
n                               000112 automatic       fixed bin(17,0)          dcl 20 set ref 63* 69 71 71 81 82
node                                   based           structure                level 1 dcl 6-27
null                                                   builtin function         dcl 20 ref 44 55 67 82
number                    0(21)        based           fixed bin(14,0)          level 2 packed unaligned dcl 2-6 ref 69 74
o_and_s                  40            based           pointer                  level 2 dcl 3-5 set ref 66 78*
op_code                   0(09)        based           bit(9)                   level 2 packed unaligned dcl 1-6 ref 47 58
operand                   1            based           pointer                  array level 2 packed unaligned dcl 1-6 ref 49 63 65
operator                               based           structure                level 1 dcl 1-6
operator_node                          constant        bit(9)                   initial dcl 6-5 ref 42 57
p                               000102 automatic       pointer                  dcl 20 set ref 41* 42 47 49 65* 66 78 82*
p1                              000106 automatic       pointer                  dcl 20 set ref 66* 67 69 74 75 78* 81 82
param_desc_ptr                         constant        bit(9)                   initial dcl 7-8 ref 58
pt                                     parameter       pointer                  dcl 18 ref 16 41
q                               000104 automatic       pointer                  dcl 20 set ref 49* 50 52 54* 54 55 57 58 63 65 72*
                                                                                  75 78 81* 82 82* 83
qualifier                 4            based           pointer                  level 2 packed unaligned dcl 4-3 ref 54
reference                              based           structure                level 1 dcl 4-3
reference_node                         constant        bit(9)                   initial dcl 6-5 ref 50
structure_desc                         constant        fixed bin(17,0)          initial dcl 9-1 ref 60
symbol                                 based           structure                level 1 dcl 5-3 in procedure "check_o_and_s"
symbol                    3            based           pointer                  level 2 in structure "reference" packed unaligned
                                                                                  dcl 4-3 in procedure "check_o_and_s" ref 60 63
type                                   based           bit(9)                   level 2 packed unaligned dcl 6-27 ref 42 50 57
type_                     0(01)        based           fixed bin(6,0)           level 2 packed unsigned unaligned dcl 29 ref 60

NAMES DECLARED BY DECLARE STATEMENT AND NEVER REFERENCED.
D_fixed_cplx_desc                      internal static fixed bin(17,0)          initial dcl 9-1
D_fixed_real_desc                      internal static fixed bin(17,0)          initial dcl 9-1
D_float_cplx_desc                      internal static fixed bin(17,0)          initial dcl 9-1
D_float_real_desc                      internal static fixed bin(17,0)          initial dcl 9-1
a_format                               internal static bit(9)                   initial dcl 7-8
abs_fun                                internal static bit(9)                   initial dcl 7-8
acos_fun                               internal static bit(9)                   initial dcl 7-8
acosd_fun                              internal static bit(9)                   initial dcl 7-8
add                                    internal static bit(9)                   initial dcl 7-8
addbitno_fun                           internal static bit(9)                   initial dcl 7-8
addcharno_fun                          internal static bit(9)                   initial dcl 7-8
addr_fun                               internal static bit(9)                   initial dcl 7-8
addr_fun_bits                          internal static bit(9)                   initial dcl 7-8
addrel_fun                             internal static bit(9)                   initial dcl 7-8
allocation_fun                         internal static bit(9)                   initial dcl 7-8
allot_auto                             internal static bit(9)                   initial dcl 7-8
allot_based                            internal static bit(9)                   initial dcl 7-8
allot_ctl                              internal static bit(9)                   initial dcl 7-8
allot_var                              internal static bit(9)                   initial dcl 7-8
and_bits                               internal static bit(9)                   initial dcl 7-8
area_desc                              internal static fixed bin(17,0)          initial dcl 9-1
array_node                             internal static bit(9)                   initial dcl 6-5
asin_fun                               internal static bit(9)                   initial dcl 7-8
asind_fun                              internal static bit(9)                   initial dcl 7-8
assign                                 internal static bit(9)                   initial dcl 7-8
assign_by_name                         internal static bit(9)                   initial dcl 7-8
assign_round                           internal static bit(9)                   initial dcl 7-8
assign_size_ck                         internal static bit(9)                   initial dcl 7-8
assign_zero                            internal static bit(9)                   initial dcl 7-8
atan_fun                               internal static bit(9)                   initial dcl 7-8
atand_fun                              internal static bit(9)                   initial dcl 7-8
b_format                               internal static bit(9)                   initial dcl 7-8
baseno_fun                             internal static bit(9)                   initial dcl 7-8
baseptr_fun                            internal static bit(9)                   initial dcl 7-8
bit_desc                               internal static fixed bin(17,0)          initial dcl 9-1
bit_pointer                            internal static bit(9)                   initial dcl 7-8
bit_to_char                            internal static bit(9)                   initial dcl 7-8
bit_to_word                            internal static bit(9)                   initial dcl 7-8
bitno_fun                              internal static bit(9)                   initial dcl 7-8
block_node                             internal static bit(9)                   initial dcl 6-5
bn_format                              internal static bit(9)                   initial dcl 7-8
bool_fun                               internal static bit(9)                   initial dcl 7-8
bound_ck                               internal static bit(9)                   initial dcl 7-8
bound_node                             internal static bit(9)                   initial dcl 6-5
by_name_agg_node                       internal static bit(9)                   initial dcl 6-5
byte_fun                               internal static bit(9)                   initial dcl 7-8
c_format                               internal static bit(9)                   initial dcl 7-8
cat_string                             internal static bit(9)                   initial dcl 7-8
ceil_fun                               internal static bit(9)                   initial dcl 7-8
char_desc                              internal static fixed bin(17,0)          initial dcl 9-1
char_to_word                           internal static bit(9)                   initial dcl 7-8
charno_fun                             internal static bit(9)                   initial dcl 7-8
clock_fun                              internal static bit(9)                   initial dcl 7-8
close_file                             internal static bit(9)                   initial dcl 7-8
codeptr_fun                            internal static bit(9)                   initial dcl 7-8
column_format                          internal static bit(9)                   initial dcl 7-8
complex_fun                            internal static bit(9)                   initial dcl 7-8
conjg_fun                              internal static bit(9)                   initial dcl 7-8
context_node                           internal static bit(9)                   initial dcl 6-5
copy_string                            internal static bit(9)                   initial dcl 7-8
copy_words                             internal static bit(9)                   initial dcl 7-8
cos_fun                                internal static bit(9)                   initial dcl 7-8
cosd_fun                               internal static bit(9)                   initial dcl 7-8
cross_reference_node                   internal static bit(9)                   initial dcl 6-5
d_fixed_cplx_desc                      internal static fixed bin(17,0)          initial dcl 9-1
d_fixed_real_desc                      internal static fixed bin(17,0)          initial dcl 9-1
d_float_cplx_desc                      internal static fixed bin(17,0)          initial dcl 9-1
d_float_real_desc                      internal static fixed bin(17,0)          initial dcl 9-1
default_node                           internal static bit(9)                   initial dcl 6-5
delete_file                            internal static bit(9)                   initial dcl 7-8
digit_to_bit                           internal static bit(9)                   initial dcl 7-8
div                                    internal static bit(9)                   initial dcl 7-8
do_fun                                 internal static bit(9)                   initial dcl 7-8
do_spec                                internal static bit(9)                   initial dcl 7-8
e_format                               internal static bit(9)                   initial dcl 7-8
empty_area                             internal static bit(9)                   initial dcl 7-8
enable_on                              internal static bit(9)                   initial dcl 7-8
entry_desc                             internal static fixed bin(17,0)          initial dcl 9-1
environmentptr_fun                     internal static bit(9)                   initial dcl 7-8
equal                                  internal static bit(9)                   initial dcl 7-8
ex_prologue                            internal static bit(9)                   initial dcl 7-8
exp                                    internal static bit(9)                   initial dcl 7-8
exp_fun                                internal static bit(9)                   initial dcl 7-8
f_format                               internal static bit(9)                   initial dcl 7-8
file_desc                              internal static fixed bin(17,0)          initial dcl 9-1
floor_fun                              internal static bit(9)                   initial dcl 7-8
format_value_node                      internal static bit(9)                   initial dcl 6-5
fortran_read                           internal static bit(9)                   initial dcl 7-8
fortran_write                          internal static bit(9)                   initial dcl 7-8
free_based                             internal static bit(9)                   initial dcl 7-8
free_ctl                               internal static bit(9)                   initial dcl 7-8
free_var                               internal static bit(9)                   initial dcl 7-8
ftn_file_manip                         internal static bit(9)                   initial dcl 7-8
ftn_trans_loop                         internal static bit(9)                   initial dcl 7-8
get_data_trans                         internal static bit(9)                   initial dcl 7-8
get_edit_trans                         internal static bit(9)                   initial dcl 7-8
get_file                               internal static bit(9)                   initial dcl 7-8
get_list_trans                         internal static bit(9)                   initial dcl 7-8
get_string                             internal static bit(9)                   initial dcl 7-8
greater_or_equal                       internal static bit(9)                   initial dcl 7-8
greater_than                           internal static bit(9)                   initial dcl 7-8
half_to_word                           internal static bit(9)                   initial dcl 7-8
imag_fun                               internal static bit(9)                   initial dcl 7-8
index_after_fun                        internal static bit(9)                   initial dcl 7-8
index_before_fun                       internal static bit(9)                   initial dcl 7-8
index_fun                              internal static bit(9)                   initial dcl 7-8
index_rev_fun                          internal static bit(9)                   initial dcl 7-8
join                                   internal static bit(9)                   initial dcl 7-8
jump                                   internal static bit(9)                   initial dcl 7-8
jump_false                             internal static bit(9)                   initial dcl 7-8
jump_if_eq                             internal static bit(9)                   initial dcl 7-8
jump_if_ge                             internal static bit(9)                   initial dcl 7-8
jump_if_gt                             internal static bit(9)                   initial dcl 7-8
jump_if_le                             internal static bit(9)                   initial dcl 7-8
jump_if_lt                             internal static bit(9)                   initial dcl 7-8
jump_if_ne                             internal static bit(9)                   initial dcl 7-8
jump_true                              internal static bit(9)                   initial dcl 7-8
l_parn                                 internal static bit(9)                   initial dcl 7-8
label_array_element_node               internal static bit(9)                   initial dcl 6-5
label_desc                             internal static fixed bin(17,0)          initial dcl 9-1
label_node                             internal static bit(9)                   initial dcl 6-5
length_fun                             internal static bit(9)                   initial dcl 7-8
less_or_equal                          internal static bit(9)                   initial dcl 7-8
less_than                              internal static bit(9)                   initial dcl 7-8
line_format                            internal static bit(9)                   initial dcl 7-8
list_node                              internal static bit(9)                   initial dcl 6-5
locate_file                            internal static bit(9)                   initial dcl 7-8
lock_file                              internal static bit(9)                   initial dcl 7-8
lock_fun                               internal static bit(9)                   initial dcl 7-8
log10_fun                              internal static bit(9)                   initial dcl 7-8
log2_fun                               internal static bit(9)                   initial dcl 7-8
log_fun                                internal static bit(9)                   initial dcl 7-8
loop                                   internal static bit(9)                   initial dcl 7-8
machine_state_node                     internal static bit(9)                   initial dcl 6-5
make_desc                              internal static bit(9)                   initial dcl 7-8
max_block_number                       internal static fixed bin(17,0)          initial dcl 3-74
max_fun                                internal static bit(9)                   initial dcl 7-8
max_list_elements                      internal static fixed bin(17,0)          initial dcl 2-12
max_number_of_operands                 internal static fixed bin(15,0)          initial dcl 1-15
min_fun                                internal static bit(9)                   initial dcl 7-8
mod_bit                                internal static bit(9)                   initial dcl 7-8
mod_byte                               internal static bit(9)                   initial dcl 7-8
mod_fun                                internal static bit(9)                   initial dcl 7-8
mod_half                               internal static bit(9)                   initial dcl 7-8
mod_word                               internal static bit(9)                   initial dcl 7-8
mult                                   internal static bit(9)                   initial dcl 7-8
negate                                 internal static bit(9)                   initial dcl 7-8
nop                                    internal static bit(9)                   initial dcl 7-8
not_bits                               internal static bit(9)                   initial dcl 7-8
not_equal                              internal static bit(9)                   initial dcl 7-8
off_fun                                internal static bit(9)                   initial dcl 7-8
offset_desc                            internal static fixed bin(17,0)          initial dcl 9-1
open_file                              internal static bit(9)                   initial dcl 7-8
or_bits                                internal static bit(9)                   initial dcl 7-8
pack                                   internal static bit(9)                   initial dcl 7-8
page_format                            internal static bit(9)                   initial dcl 7-8
param_ptr                              internal static bit(9)                   initial dcl 7-8
picture_format                         internal static bit(9)                   initial dcl 7-8
pl1_mod_fun                            internal static bit(9)                   initial dcl 7-8
pointer_desc                           internal static fixed bin(17,0)          initial dcl 9-1
prefix_plus                            internal static bit(9)                   initial dcl 7-8
ptr_fun                                internal static bit(9)                   initial dcl 7-8
put_control                            internal static bit(9)                   initial dcl 7-8
put_data_trans                         internal static bit(9)                   initial dcl 7-8
put_edit_trans                         internal static bit(9)                   initial dcl 7-8
put_field                              internal static bit(9)                   initial dcl 7-8
put_field_chk                          internal static bit(9)                   initial dcl 7-8
put_file                               internal static bit(9)                   initial dcl 7-8
put_list_trans                         internal static bit(9)                   initial dcl 7-8
put_string                             internal static bit(9)                   initial dcl 7-8
r_format                               internal static bit(9)                   initial dcl 7-8
r_parn                                 internal static bit(9)                   initial dcl 7-8
range_ck                               internal static bit(9)                   initial dcl 7-8
rank_fun                               internal static bit(9)                   initial dcl 7-8
read_file                              internal static bit(9)                   initial dcl 7-8
real_fun                               internal static bit(9)                   initial dcl 7-8
record_io                              internal static bit(9)                   initial dcl 7-8
refer                                  internal static bit(9)                   initial dcl 7-8
rel_fun                                internal static bit(9)                   initial dcl 7-8
repeat_fun                             internal static bit(9)                   initial dcl 7-8
return_bits                            internal static bit(9)                   initial dcl 7-8
return_string                          internal static bit(9)                   initial dcl 7-8
return_value                           internal static bit(9)                   initial dcl 7-8
return_words                           internal static bit(9)                   initial dcl 7-8
reverse_fun                            internal static bit(9)                   initial dcl 7-8
revert_on                              internal static bit(9)                   initial dcl 7-8
rewrite_file                           internal static bit(9)                   initial dcl 7-8
round_fun                              internal static bit(9)                   initial dcl 7-8
s_fixed_cplx_desc                      internal static fixed bin(17,0)          initial dcl 9-1
s_fixed_real_desc                      internal static fixed bin(17,0)          initial dcl 9-1
s_float_cplx_desc                      internal static fixed bin(17,0)          initial dcl 9-1
s_float_real_desc                      internal static fixed bin(17,0)          initial dcl 9-1
search_fun                             internal static bit(9)                   initial dcl 7-8
search_rev_fun                         internal static bit(9)                   initial dcl 7-8
segno_fun                              internal static bit(9)                   initial dcl 7-8
setbitno_fun                           internal static bit(9)                   initial dcl 7-8
setcharno_fun                          internal static bit(9)                   initial dcl 7-8
sf_par_node                            internal static bit(9)                   initial dcl 6-5
sign_fun                               internal static bit(9)                   initial dcl 7-8
signal_on                              internal static bit(9)                   initial dcl 7-8
sin_fun                                internal static bit(9)                   initial dcl 7-8
sind_fun                               internal static bit(9)                   initial dcl 7-8
skip_format                            internal static bit(9)                   initial dcl 7-8
source_node                            internal static bit(9)                   initial dcl 6-5
sqrt_fun                               internal static bit(9)                   initial dcl 7-8
stack_ptr                              internal static bit(9)                   initial dcl 7-8
stackbaseptr_fun                       internal static bit(9)                   initial dcl 7-8
stackframeptr_fun                      internal static bit(9)                   initial dcl 7-8
stacq_fun                              internal static bit(9)                   initial dcl 7-8
statement_node                         internal static bit(9)                   initial dcl 6-5
std_arg_list                           internal static bit(9)                   initial dcl 7-8
std_call                               internal static bit(9)                   initial dcl 7-8
std_entry                              internal static bit(9)                   initial dcl 7-8
std_return                             internal static bit(9)                   initial dcl 7-8
stop                                   internal static bit(9)                   initial dcl 7-8
stream_prep                            internal static bit(9)                   initial dcl 7-8
sub                                    internal static bit(9)                   initial dcl 7-8
symbol_node                            internal static bit(9)                   initial dcl 6-5
tan_fun                                internal static bit(9)                   initial dcl 7-8
tand_fun                               internal static bit(9)                   initial dcl 7-8
temporary_node                         internal static bit(9)                   initial dcl 6-5
terminate_trans                        internal static bit(9)                   initial dcl 7-8
token_node                             internal static bit(9)                   initial dcl 6-5
translate_fun                          internal static bit(9)                   initial dcl 7-8
trunc_fun                              internal static bit(9)                   initial dcl 7-8
unlock_file                            internal static bit(9)                   initial dcl 7-8
unpack                                 internal static bit(9)                   initial dcl 7-8
v_bit_desc                             internal static fixed bin(17,0)          initial dcl 9-1
v_char_desc                            internal static fixed bin(17,0)          initial dcl 9-1
vclock_fun                             internal static bit(9)                   initial dcl 7-8
verify_fun                             internal static bit(9)                   initial dcl 7-8
verify_ltrim_fun                       internal static bit(9)                   initial dcl 7-8
verify_rev_fun                         internal static bit(9)                   initial dcl 7-8
verify_rtrim_fun                       internal static bit(9)                   initial dcl 7-8
word_to_mod2                           internal static bit(9)                   initial dcl 7-8
word_to_mod4                           internal static bit(9)                   initial dcl 7-8
word_to_mod8                           internal static bit(9)                   initial dcl 7-8
wordno_fun                             internal static bit(9)                   initial dcl 7-8
write_file                             internal static bit(9)                   initial dcl 7-8
x_format                               internal static bit(9)                   initial dcl 7-8
xor_bits                               internal static bit(9)                   initial dcl 7-8

NAMES DECLARED BY EXPLICIT CONTEXT.
check_o_and_s                   000010 constant        entry                    external dcl 16
no                              000025 constant        label                    dcl 44 ref 47 50 55 57 58 60 67

THERE WERE NO NAMES DECLARED BY CONTEXT OR IMPLICATION.

STORAGE REQUIREMENTS FOR THIS PROGRAM.

	Object	Text	Link	Symbol	Defs	Static
Start          0       0       254         270     211         264
Length       610     211        14         303      42           0

BLOCK NAME	         STACK SIZE     TYPE		WHY NONQUICK/WHO SHARES STACK FRAME
check_o_and_s                       100 external procedure  is an external procedure.

STORAGE FOR AUTOMATIC VARIABLES.

STACK FRAME                 LOC IDENTIFIER                  BLOCK NAME
check_o_and_s            000100 d                           check_o_and_s
                         000102 p                           check_o_and_s
                         000104 q                           check_o_and_s
                         000106 p1                          check_o_and_s
                         000110 i                           check_o_and_s
                         000111 m                           check_o_and_s
                         000112 n                           check_o_and_s
                         000113 desc_                       check_o_and_s

THE FOLLOWING EXTERNAL OPERATORS ARE USED BY THIS PROGRAM.
call_ext_out        return              mod_fx1             ext_entry

THE FOLLOWING EXTERNAL ENTRIES ARE CALLED BY THIS PROGRAM.
create_list                   get_variable

NO EXTERNAL VARIABLES ARE USED BY THIS PROGRAM.


   LINE    LOC      LINE    LOC      LINE    LOC      LINE    LOC      LINE    LOC      LINE    LOC      LINE    LOC
     16 000004        41 000015        42 000021        44 000025        47 000031        49 000036        50 000040
     52 000044        54 000045        55 000047        57 000053        58 000057        60 000064        63 000075
     65 000103        66 000105        67 000107        69 000113        71 000120        72 000125        74 000135
     75 000147        76 000152        78 000154        81 000160        82 000163        83 000204


                                          -----------------------------------------------------------


Historical Background

This edition of the Multics software materials and documentation is provided and donated
to Massachusetts Institute of Technology by Group BULL including BULL HN Information Systems Inc.
as a contribution to computer science knowledge.
This donation is made also to give evidence of the common contributions of Massachusetts Institute of Technology,
Bell Laboratories, General Electric, Honeywell Information Systems Inc., Honeywell BULL Inc., Groupe BULL
and BULL HN Information Systems Inc. to the development of this operating system.
Multics development was initiated by Massachusetts Institute of Technology Project MAC (1963-1970),
renamed the MIT Laboratory for Computer Science and Artificial Intelligence in the mid 1970s, under the leadership
of Professor Fernando Jose Corbato. Users consider that Multics provided the best software architecture
for managing computer hardware properly and for executing programs. Many subsequent operating systems
incorporated Multics principles.
Multics was distributed in 1975 to 2000 by Group Bull in Europe , and in the U.S. by Bull HN Information Systems Inc.,
as successor in interest by change in name only to Honeywell Bull Inc. and Honeywell Information Systems Inc. .

                                          -----------------------------------------------------------

Permission to use, copy, modify, and distribute these programs and their documentation for any purpose and without
fee is hereby granted,provided that the below copyright notice and historical background appear in all copies
and that both the copyright notice and historical background and this permission notice appear in supporting
documentation, and that the names of MIT, HIS, BULL or BULL HN not be used in advertising or publicity pertaining
to distribution of the programs without specific prior written permission.
    Copyright 1972 by Massachusetts Institute of Technology and Honeywell Information Systems Inc.
    Copyright 2006 by BULL HN Information Systems Inc.
    Copyright 2006 by Bull SAS
    All Rights Reserved
