ASSEMBLY LISTING OF SEGMENT >special_ldd>on>pl128d>compare_ptrs.alm
ASSEMBLED ON:	10/04/83  1041.4 mst Tue
OPTIONS USED:	list
ASSEMBLED BY:	ALM Version  6.6  November 1982
ASSEMBLER CREATED:	09/21/83  1227.3 mst Wed

                                     1  " definition of pointer comparisons
                                     2  "
    000000                           3  	name	compare_ptrs
                        000000       4  	segdef	compare_ptrs
                                     5  "
                        000460       6  	bool	ptr_mask_,460
                        000560       7  	bool	unpk_to_pk_,560
                        600000       8  	bool	aq,600000
                        010000       9  	equ	arg1,1*4096
                        020000      10  	equ	arg2,2*4096
                        030000      11  	equ	arg3,3*4096
                                    12  "
    000000                          13  compare_ptrs:
    000000  aa   000000 015201      14  	vfd	18/0,9/13,9/128+1	switch	0,code
    000001  0a   000055 004200      15  	vfd	18/HH,9/4,9/128	jump	HH
    000002  0a   000036 004200      16  	vfd	18/HE,9/4,9/128	jump	HE
    000003  0a   000036 003200      17  	vfd	18/HE,9/3,9/128	flipto	HE	really EH
    000004                          18  EE:
    000004  aa   000027 015204      19  	vfd	18/23,9/13,9/128+4	switch	23,type2
    000005  0a   000023 004200      20  	vfd	18/EE_unpk,9/4,9/128	jump	EE_unpk
    000006                          21  EE_pk:
    000006  aa   000027 015205      22  	vfd	18/23,9/13,9/128+5	switch	23,type3
    000007  0a   000016 004200      23  	vfd	18/EE_pk_unpk,9/4,9/128	jump	EE_pk_unpk
    000010                          24  EE_pk_pk:
    000010  0a   000013 001202      25  	vfd	18/L1,9/1,9/128+2	if	q3
    000011  aa   020000 1160 00     26  	cmpq	arg2
    000012  aa   000000 000200      27  	zero	0,128
    000013  aa   020000 013200      28  L1:	vfd	18/arg2,9/11,9/128	load	arg2
    000014  aa   030000 1160 00     29  	cmpq	arg3
    000015  aa   000000 000200      30  	zero	0,128
    000016                          31  EE_pk_unpk:
    000016  aa   030000 013200      32  	vfd	18/arg3,9/11,9/128	load	arg3
    000017  aa   600000 016200      33  	vfd	18/aq,9/14,9/128	erase	aq
    000020  aa  0 00560 7001 00     34  	tsx0	ap|unpk_to_pk_
    000021  aa   020000 1160 00     35  	cmpq	arg2
    000022  aa   000000 000200      36  	zero	0,128
    000023                          37  EE_unpk:
    000023  aa   000027 015205      38  	vfd	18/23,9/13,9/128+5	switch	23,type3
    000024  0a   000026 004200      39  	vfd	18/EE_unpk_unpk,9/4,9/128	jump	EE_unpk_unpk
    000025  0a   000016 003200      40  	vfd	18/EE_pk_unpk,9/3,9/128	flipto	EE_pk_unpk
    000026                          41  EE_unpk_unpk:
    000026  0a   000031 001202      42  	vfd	18/L2,9/1,9/128+2	if	q3
    000027  0a   000032 003200      43  	vfd	18/cp_ptr,9/3,9/128	flipto	cp_ptr
    000030  aa   000000 000200      44  	zero	0,128
    000031  aa   020000 013200      45  L2:l1:	vfd	18/arg2,9/11,9/128	load	arg2
    000032                          46  cp_ptr:
    000032  aa   600000 016200      47  	vfd	18/aq,9/14,9/128	erase	aq
    000033  aa   030000 6770 00     48  	eraq	arg3
    000034  aa  0 00460 3771 00     49  	anaq	ap|ptr_mask_
    000035  aa   000000 000200      50  	zero	0,128
    000036                          51  HE:
    000036  aa   000027 015204      52  	vfd	18/23,9/13,9/128+4	switch	23,type2
    000037  0a   000047 004200      53  	vfd	18/HE_unpk,9/4,9/128	jump	HE_unpk
    000040                          54  HE_pk:
    000040  aa   000027 015205      55  	vfd	18/23,9/13,9/128+5	switch	23,type3
    000041  0a   000045 004200      56  	vfd	18/HE_pk_unpk,9/4,9/128	jump	HE_pk_unpk
    000042                          57  HE_pk_pk:
    000042  aa   020000 010200      58  	vfd	18/arg2,9/8,9/128	compile	arg2
    000043  aa   030000 1160 00     59  	cmpq	arg3
    000044  aa   000000 000200      60  	zero	0,128
    000045                          61  HE_pk_unpk:
    000045  aa   020000 012200      62  	vfd	18/arg2,9/10,9/128	cplsave	arg2
    000046  0a   000016 004200      63  	vfd	18/EE_pk_unpk,9/4,9/128	jump	EE_pk_unpk
    000047                          64  HE_unpk:
    000047  aa   000027 015205      65  	vfd	18/23,9/13,9/128+5	switch	23,type3
    000050  0a   000053 004200      66  	vfd	18/HE_unpk_unpk,9/4,9/128	jump	HE_unpk_unpk
    000051                          67  HE_unpk_pk:
    000051  aa   020000 012200      68  	vfd	18/arg2,9/10,9/128	cplsave	arg2
    000052  0a   000016 003200      69  	vfd	18/EE_pk_unpk,9/3,9/128	flipto	EE_pk_unpk
    000053                          70  HE_unpk_unpk:
    000053  aa   020000 012200      71  	vfd	18/arg2,9/10,9/128	cplsave	arg2
    000054  0a   000031 004200      72  	vfd	18/l1,9/4,9/128	jump	l1
    000055                          73  HH:
    000055  aa   000027 015204      74  	vfd	18/23,9/13,9/128+4	switch	23,type2
    000056  0a   000065 004200      75  	vfd	18/HH_unpk,9/4,9/128	jump	HH_unpk
    000057                          76  HH_pk:
    000057  aa   000027 015205      77  	vfd	18/23,9/13,9/128+5	switch	23,type3
    000060  0a   000063 004200      78  	vfd	18/HH_pk_unpk,9/4,9/128	jump	HH_pk_unpk
    000061                          79  HH_pk_pk:
    000061  aa   030000 012200      80  	vfd	18/arg3,9/10,9/128	cplsave	arg3
    000062  0a   000042 004200      81  	vfd	18/HE_pk_pk,9/4,9/128	jump	HE_pk_pk
    000063                          82  HH_pk_unpk:
    000063  aa   030000 012200      83  	vfd	18/arg3,9/10,9/128	cplsave	arg3
    000064  0a   000045 004200      84  	vfd	18/HE_pk_unpk,9/4,9/128	jump	HE_pk_unpk
    000065                          85  HH_unpk:
    000065  aa   000027 015205      86  	vfd	18/23,9/13,9/128+5	switch	23,type3
    000066  0a   000071 004200      87  	vfd	18/HH_unpk_unpk,9/4,9/128	jump	HH_unpk_unpk
    000067                          88  HH_unpk_pk:
    000067  aa   020000 012200      89  	vfd	18/arg2,9/10,9/128	cplsave	arg2
    000070  0a   000045 003200      90  	vfd	18/HE_pk_unpk,9/3,9/128	flipto	HE_pk_unpk
    000071                          91  HH_unpk_unpk:
    000071  aa   030000 012200      92  	vfd	18/arg3,9/10,9/128	cplsave	arg3
    000072  0a   000053 004200      93  	vfd	18/HE_unpk_unpk,9/4,9/128	jump	HE_unpk_unpk
                                    94  "
                                    95  	end

NO LITERALS

NAME DEFINITIONS FOR ENTRY POINTS AND SEGDEFS

    000074  5a   000003 000000
    000075  5a   000030 600000
    000076  aa   000000 000000
    000077  55   000012 000002
    000100  5a   000002 400003
    000101  55   000006 000012
    000102  aa  014 143 157 155
    000103  aa  160 141 162 145
    000104  aa  137 160 164 162
    000105  aa  163 000 000 000
    000106  55   000021 000003
    000107  0a   000000 400000
    000110  55   000015 000003
    000111  aa  014 143 157 155         compare_ptrs
    000112  aa  160 141 162 145
    000113  aa  137 160 164 162
    000114  aa  163 000 000 000
    000115  55   000002 000012
    000116  6a   000000 400002
    000117  55   000024 000003
    000120  aa  014 163 171 155         symbol_table
    000121  aa  142 157 154 137
    000122  aa  164 141 142 154
    000123  aa  145 000 000 000

DEFINITIONS HASH TABLE

    000124  aa   000000 000015
    000125  aa   000000 000000
    000126  aa   000000 000000
    000127  aa   000000 000000
    000130  aa   000000 000000
    000131  aa   000000 000000
    000132  aa   000000 000000
    000133  5a   000021 000000
    000134  aa   000000 000000
    000135  aa   000000 000000
    000136  aa   000000 000000
    000137  aa   000000 000000
    000140  5a   000012 000000
    000141  aa   000000 000000

NO EXTERNAL NAMES

NO TRAP POINTER WORDS

TYPE PAIR BLOCKS

    000142  aa   000001 000000
    000143  aa   000000 000000

INTERNAL EXPRESSION WORDS

LINKAGE INFORMATION

    000000  aa   000000 000000
    000001  0a   000074 000000
    000002  aa   000000 000000
    000003  aa   000000 000000
    000004  aa   000000 000000
    000005  aa   000000 000000
    000006  22   000010 000010
    000007  a2   000000 000000
SYMBOL INFORMATION

SYMBOL TABLE HEADER

    000000  aa   000000 000001
    000001  aa   163171 155142
    000002  aa   164162 145145
    000003  aa   000000 000004
    000004  aa   000000 112143
    000005  aa   305203 523135
    000006  aa   000000 112163
    000007  aa   506322 114524
    000010  aa   141154 155040
    000011  aa   040040 040040
    000012  aa   000024 000040
    000013  aa   000034 000040
    000014  aa   000044 000100
    000015  aa   000002 000002
    000016  aa   000064 000000
    000017  aa   000000 000125
    000020  aa   000000 000104
    000021  aa   000000 000114
    000022  aa   000117 000104
    000023  aa   000064 000000
    000024  aa   101114 115040
    000025  aa   126145 162163
    000026  aa   151157 156040
    000027  aa   040066 056066
    000030  aa   040040 116157
    000031  aa   166145 155142
    000032  aa   145162 040061
    000033  aa   071070 062040
    000034  aa   107112 157150
    000035  aa   156163 157156
    000036  aa   056123 171163
    000037  aa   115141 151156
    000040  aa   164056 141040
    000041  aa   040040 040040
    000042  aa   040040 040040
    000043  aa   040040 040040
    000044  aa   154151 163164
    000045  aa   040040 040040
    000046  aa   040040 040040
    000047  aa   040040 040040
    000050  aa   040040 040040
    000051  aa   040040 040040
    000052  aa   040040 040040
    000053  aa   040040 040040
    000054  aa   040040 040040
    000055  aa   040040 040040
    000056  aa   040040 040040
    000057  aa   040040 040040
    000060  aa   040040 040040
    000061  aa   040040 040040
    000062  aa   040040 040040
    000063  aa   040040 040040
    000064  aa   000000 000001
    000065  aa   000000 000001
    000066  aa   000072 000047
    000067  aa   121630 007473
    000070  aa   000000 112163
    000071  aa   506303 200000
    000072  aa   076163 160145          >special_ldd>on>pl128d>compare_ptrs.alm
    000073  aa   143151 141154
    000074  aa   137154 144144
    000075  aa   076157 156076
    000076  aa   160154 061062
    000077  aa   070144 076143
    000100  aa   157155 160141
    000101  aa   162145 137160
    000102  aa   164162 163056
    000103  aa   141154 155040
               MULTICS ASSEMBLY CROSS REFERENCE LISTING

   Value        Symbol                   Source file   Line number

      600000    aq                       compare_ptrs:         8,   33,   47.
       10000    arg1                     compare_ptrs:         9.
       20000    arg2                     compare_ptrs:        10,   26,   28,   35,   45,   58,   62,   68,   71,   89.
       30000    arg3                     compare_ptrs:        11,   29,   32,   48,   59,   80,   83,   92.
           0    compare_ptrs             compare_ptrs:         4,   13.
          32    cp_ptr                   compare_ptrs:        43,   46.
           4    EE                       compare_ptrs:        18.
           6    EE_pk                    compare_ptrs:        21.
          10    EE_pk_pk                 compare_ptrs:        24.
          16    EE_pk_unpk               compare_ptrs:        23,   31,   40,   63,   69.
          23    EE_unpk                  compare_ptrs:        20,   37.
          26    EE_unpk_unpk             compare_ptrs:        39,   41.
          36    HE                       compare_ptrs:        16,   17,   51.
          40    HE_pk                    compare_ptrs:        54.
          42    HE_pk_pk                 compare_ptrs:        57,   81.
          45    HE_pk_unpk               compare_ptrs:        56,   61,   84,   90.
          47    HE_unpk                  compare_ptrs:        53,   64.
          51    HE_unpk_pk               compare_ptrs:        67.
          53    HE_unpk_unpk             compare_ptrs:        66,   70,   93.
          55    HH                       compare_ptrs:        15,   73.
          57    HH_pk                    compare_ptrs:        76.
          61    HH_pk_pk                 compare_ptrs:        79.
          63    HH_pk_unpk               compare_ptrs:        78,   82.
          65    HH_unpk                  compare_ptrs:        75,   85.
          67    HH_unpk_pk               compare_ptrs:        88.
          71    HH_unpk_unpk             compare_ptrs:        87,   91.
          13    L1                       compare_ptrs:        25,   28.
          31    l1                       compare_ptrs:        45,   72.
          31    L2                       compare_ptrs:        42,   45.
         460    ptr_mask_                compare_ptrs:         6,   49.
         560    unpk_to_pk_              compare_ptrs:         7,   34.


NO FATAL ERRORS


                                          -----------------------------------------------------------


Historical Background

This edition of the Multics software materials and documentation is provided and donated
to Massachusetts Institute of Technology by Group BULL including BULL HN Information Systems Inc.
as a contribution to computer science knowledge.
This donation is made also to give evidence of the common contributions of Massachusetts Institute of Technology,
Bell Laboratories, General Electric, Honeywell Information Systems Inc., Honeywell BULL Inc., Groupe BULL
and BULL HN Information Systems Inc. to the development of this operating system.
Multics development was initiated by Massachusetts Institute of Technology Project MAC (1963-1970),
renamed the MIT Laboratory for Computer Science and Artificial Intelligence in the mid 1970s, under the leadership
of Professor Fernando Jose Corbato. Users consider that Multics provided the best software architecture
for managing computer hardware properly and for executing programs. Many subsequent operating systems
incorporated Multics principles.
Multics was distributed in 1975 to 2000 by Group Bull in Europe , and in the U.S. by Bull HN Information Systems Inc.,
as successor in interest by change in name only to Honeywell Bull Inc. and Honeywell Information Systems Inc. .

                                          -----------------------------------------------------------

Permission to use, copy, modify, and distribute these programs and their documentation for any purpose and without
fee is hereby granted,provided that the below copyright notice and historical background appear in all copies
and that both the copyright notice and historical background and this permission notice appear in supporting
documentation, and that the names of MIT, HIS, BULL or BULL HN not be used in advertising or publicity pertaining
to distribution of the programs without specific prior written permission.
    Copyright 1972 by Massachusetts Institute of Technology and Honeywell Information Systems Inc.
    Copyright 2006 by BULL HN Information Systems Inc.
    Copyright 2006 by Bull SAS
    All Rights Reserved
