ASSEMBLY LISTING OF SEGMENT >dumps>old>recomp>comp_8_to_ascii_.alm
ASSEMBLED ON:	11/04/82  1850.3 mst Thu
OPTIONS USED:	list
ASSEMBLED BY:	ALM Version  6.4  April 1981
ASSEMBLER CREATED:	11/03/82  1423.6 mst Wed

                                     1  " ***********************************************************
                                     2  " *                                                         *
                                     3  " * Copyright, (C) Honeywell Information Systems Inc., 1982 *
                                     4  " *                                                         *
                                     5  " * Copyright (c) 1972 by Massachusetts Institute of        *
                                     6  " * Technology and Honeywell Information Systems, Inc.      *
                                     7  " *                                                         *
                                     8  " ***********************************************************
                                     9
                                    10  "  This procedure returns a character string representing the input
                                    11  "  bit string as comp-8 format.
                                    12  "
                                    13  "	dcl comp_8_to_ascii_ entry (bit (*), char (*));
                                    14  "	call comp_8_to_ascii_ (bit_string, char_string);
                                    15  "
                                    16  "	     bit_string	bit string of comp-8 (INPUT)
                                    17  "	     char_string	ASCII representation of comp-8 (OUTPUT)
                                    18  "
    000000                          19  	name	comp_8_to_ascii_
                        000000      20  	segdef	comp_8_to_ascii_
                                    21
                                    22
    000000                          23  comp_8_to_ascii_:
    000000  aa  0 00002 3521 20     24  	epp2	ap|2,*		pr2 = address of bit string
    000001  aa  0 00004 3535 20     25  	epp3	ap|4,*		pr3 = address of character string
    000002  aa   000000 2230 03     26  	ldx3	0,du		compute address of descriptors
    000003  aa  0 00000 7221 00     27  	lxl2	ap|0		  get arg list header word
    000004  aa   000004 3020 03     28  	canx2	=o4,du
    000005  0a   000007 6010 00     29  	tnz	*+2		  no display ptr
    000006  aa   000002 2230 03     30  	ldx3	2,du		  add 2 word offset if display ptr
    000007  aa  0 00006 2361 33     31  	ldq	ap|6,x3*		q = length of bit string
    000010  0a   000026 3760 00     32  	anq	=o000077777777	  get size portion
    000011  aa   000001 7360 00     33  	qls	1		  convert bits to digits
    000012  aa   000011 5060 07     34  	div	9,dl		  length*2/9
    000013  aa  0 00010 2351 33     35  	lda	ap|8,x3*		a = length of character string
    000014  0a   000026 3750 00     36  	ana	=o000077777777	  get size portion of descriptor
                                    37
    000015  aa  0 17140 1605 40     38  	mvt	(pr,rl),(pr,rl),fill(17)
    000016  aa   200000 040006      39  	desc4a	pr2|0,ql
    000017  aa   300000 000005      40  	desc9a	pr3|0,al
    000020  0a   000022 0000 00     41  	arg	table
                                    42
    000021  aa  7 00044 7101 20     43  	short_return
                                    44
    000022  aa  060 061 062 063     45  table:	aci	"0123456789x+x-xx"
    000023  aa  064 065 066 067
    000024  aa  070 071 170 053
    000025  aa  170 055 170 170
                                    46
                                    47  	end
LITERALS

    000026  aa   000077 777777
NAME DEFINITIONS FOR ENTRY POINTS AND SEGDEFS

    000027  5a   000003 000000
    000030  5a   000032 600000
    000031  aa   000000 000000
    000032  55   000013 000002
    000033  5a   000002 400003
    000034  55   000006 000013
    000035  aa  020 143 157 155
    000036  aa  160 137 070 137
    000037  aa  164 157 137 141
    000040  aa  163 143 151 151
    000041  aa  137 000 000 000
    000042  55   000023 000003
    000043  0a   000000 400000
    000044  55   000016 000003
    000045  aa  020 143 157 155         comp_8_to_ascii_
    000046  aa  160 137 070 137
    000047  aa  164 157 137 141
    000050  aa  163 143 151 151
    000051  aa  137 000 000 000
    000052  55   000002 000013
    000053  6a   000000 400002
    000054  55   000026 000003
    000055  aa  014 163 171 155         symbol_table
    000056  aa  142 157 154 137
    000057  aa  164 141 142 154
    000060  aa  145 000 000 000

DEFINITIONS HASH TABLE

    000061  aa   000000 000015
    000062  aa   000000 000000
    000063  aa   000000 000000
    000064  aa   000000 000000
    000065  aa   000000 000000
    000066  5a   000013 000000
    000067  aa   000000 000000
    000070  5a   000023 000000
    000071  aa   000000 000000
    000072  aa   000000 000000
    000073  aa   000000 000000
    000074  aa   000000 000000
    000075  aa   000000 000000
    000076  aa   000000 000000

NO EXTERNAL NAMES

NO TRAP POINTER WORDS

TYPE PAIR BLOCKS

    000077  aa   000001 000000
    000100  aa   000000 000000

INTERNAL EXPRESSION WORDS

    000101  aa   000000 000000
LINKAGE INFORMATION

    000000  aa   000000 000000
    000001  0a   000027 000000
    000002  aa   000000 000000
    000003  aa   000000 000000
    000004  aa   000000 000000
    000005  aa   000000 000000
    000006  22   000010 000010
    000007  a2   000000 000000
SYMBOL INFORMATION

SYMBOL TABLE HEADER

    000000  aa   000000 000001
    000001  aa   163171 155142
    000002  aa   164162 145145
    000003  aa   000000 000004
    000004  aa   000000 111316
    000005  aa   510113 575622
    000006  aa   000000 111320
    000007  aa   103057 412545
    000010  aa   141154 155040
    000011  aa   040040 040040
    000012  aa   000024 000040
    000013  aa   000034 000040
    000014  aa   000044 000100
    000015  aa   000002 000002
    000016  aa   000064 000000
    000017  aa   000000 000121
    000020  aa   000000 000104
    000021  aa   000000 000110
    000022  aa   000113 000104
    000023  aa   000064 000000
    000024  aa   101114 115040
    000025  aa   126145 162163
    000026  aa   151157 156040
    000027  aa   040066 056064
    000030  aa   040040 101160
    000031  aa   162151 154040
    000032  aa   061071 070061
    000033  aa   040040 040040
    000034  aa   110157 154155
    000035  aa   163164 145144
    000036  aa   164056 123171
    000037  aa   163115 141151
    000040  aa   156164 056155
    000041  aa   040040 040040
    000042  aa   040040 040040
    000043  aa   040040 040040
    000044  aa   154151 163164
    000045  aa   040040 040040
    000046  aa   040040 040040
    000047  aa   040040 040040
    000050  aa   040040 040040
    000051  aa   040040 040040
    000052  aa   040040 040040
    000053  aa   040040 040040
    000054  aa   040040 040040
    000055  aa   040040 040040
    000056  aa   040040 040040
    000057  aa   040040 040040
    000060  aa   040040 040040
    000061  aa   040040 040040
    000062  aa   040040 040040
    000063  aa   040040 040040
    000064  aa   000000 000001
    000065  aa   000000 000001
    000066  aa   000072 000046
    000067  aa   113171 052602
    000070  aa   000000 111320
    000071  aa   006025 200000
    000072  aa   076144 165155          >dumps>old>recomp>comp_8_to_ascii_.alm
    000073  aa   160163 076157
    000074  aa   154144 076162
    000075  aa   145143 157155
    000076  aa   160076 143157
    000077  aa   155160 137070
    000100  aa   137164 157137
    000101  aa   141163 143151
    000102  aa   151137 056141
    000103  aa   154155 040040
               MULTICS ASSEMBLY CROSS REFERENCE LISTING

   Value        Symbol                   Source file   Line number

           0    comp_8_to_ascii_         comp_8_to_ascii_:    20,   23.
          22    table                    comp_8_to_ascii_:    41,   45.


NO FATAL ERRORS


                                          -----------------------------------------------------------


Historical Background

This edition of the Multics software materials and documentation is provided and donated
to Massachusetts Institute of Technology by Group BULL including BULL HN Information Systems Inc.
as a contribution to computer science knowledge.
This donation is made also to give evidence of the common contributions of Massachusetts Institute of Technology,
Bell Laboratories, General Electric, Honeywell Information Systems Inc., Honeywell BULL Inc., Groupe BULL
and BULL HN Information Systems Inc. to the development of this operating system.
Multics development was initiated by Massachusetts Institute of Technology Project MAC (1963-1970),
renamed the MIT Laboratory for Computer Science and Artificial Intelligence in the mid 1970s, under the leadership
of Professor Fernando Jose Corbato. Users consider that Multics provided the best software architecture
for managing computer hardware properly and for executing programs. Many subsequent operating systems
incorporated Multics principles.
Multics was distributed in 1975 to 2000 by Group Bull in Europe , and in the U.S. by Bull HN Information Systems Inc.,
as successor in interest by change in name only to Honeywell Bull Inc. and Honeywell Information Systems Inc. .

                                          -----------------------------------------------------------

Permission to use, copy, modify, and distribute these programs and their documentation for any purpose and without
fee is hereby granted,provided that the below copyright notice and historical background appear in all copies
and that both the copyright notice and historical background and this permission notice appear in supporting
documentation, and that the names of MIT, HIS, BULL or BULL HN not be used in advertising or publicity pertaining
to distribution of the programs without specific prior written permission.
    Copyright 1972 by Massachusetts Institute of Technology and Honeywell Information Systems Inc.
    Copyright 2006 by BULL HN Information Systems Inc.
    Copyright 2006 by Bull SAS
    All Rights Reserved
