	COMPILATION LISTING OF SEGMENT constant_length
	Compiled by: Multics PL/I Compiler, Release 28d, of September 14, 1983
	Compiled at: Honeywell LCPD Phoenix, System M
	Compiled on: 10/03/83  1556.8 mst Mon
	    Options: optimize map

        1 /* ***********************************************************
        2*   *                                                         *
        3*   * Copyright, (C) Honeywell Information Systems Inc., 1982 *
        4*   *                                                         *
        5*   * Copyright (c) 1972 by Massachusetts Institute of        *
        6*   * Technology and Honeywell Information Systems, Inc.      *
        7*   *                                                         *
        8*   *********************************************************** */
        9
       10
       11 /* Check to see if the length argument is equal to a constant	*/
       12
       13 constant_length:
       14      procedure (P_tree, P_constant_value) returns (bit (1) aligned);
       15
       16 /* parameter */
       17
       18 dcl	(
       19 	P_tree		ptr,
       20 	P_constant_value	fixed bin (71)
       21 	)		parameter;
       22
       23 /* automatic */
       24
       25 dcl	tree		ptr;
       26
       27 /* builtins */
       28
       29 dcl	null		builtin;
       30
       31 /* program */
       32
       33 	tree = P_tree;
       34
       35 	if tree -> reference.length = null
       36 	then do;
       37 		if tree -> reference.c_length ^= P_constant_value
       38 		then return ("0"b);
       39
       40 		return ("1"b);
       41 	     end;
       42
       43 	if tree -> reference.length -> node.type = operator_node
       44 	then if tree -> reference.length -> operator.op_code = range_ck
       45 	     then if tree -> reference.length -> operand (2) -> node.type = reference_node
       46 		then if tree -> reference.length -> operand (2) -> reference.symbol -> symbol.constant
       47 		     then if constant_value ((tree -> reference.length -> operand (2) -> reference.symbol))
       48 			     ^= P_constant_value
       49 			then return ("0"b);
       50 			else return ("1"b);
       51
       52 	return ("0"b);
       53
       54 /* get the initial value of a fixed binary variable with a scale factor of zero */
       55
       56 constant_value:
       57      procedure (sym_ptr) returns (fixed bin (71));
       58
       59 /* parameter */
       60
       61 dcl	sym_ptr		ptr;
       62
       63 /* based */
       64
       65 dcl	integer_1		based fixed bin (35);
       66 dcl	integer_2		based fixed bin (71);
       67
       68 /* automatic */
       69
       70 dcl	initial_value	fixed bin (71);
       71
       72 	if sym_ptr -> symbol.c_dcl_size > max_p_fix_bin_1
       73 	then initial_value = sym_ptr -> symbol.initial -> integer_2;
       74 	else initial_value = sym_ptr -> symbol.initial -> integer_1;
       75
       76 	return (initial_value);
       77
       78      end /* constant_value */;
       79 
       80 /* include files */
       81
  1     1 /* BEGIN INCLUDE FILE ... nodes.incl.pl1 */
  1     2
  1     3 /* Modified: 26 Dec 1979 by PCK to implement by name assignment */
  1     4
  1     5 dcl (	block_node		initial("000000001"b),
  1     6 	statement_node		initial("000000010"b),
  1     7 	operator_node		initial("000000011"b),
  1     8 	reference_node		initial("000000100"b),
  1     9 	token_node		initial("000000101"b),
  1    10 	symbol_node		initial("000000110"b),
  1    11 	context_node		initial("000000111"b),
  1    12 	array_node		initial("000001000"b),
  1    13 	bound_node		initial("000001001"b),
  1    14 	format_value_node		initial("000001010"b),
  1    15 	list_node			initial("000001011"b),
  1    16 	default_node		initial("000001100"b),
  1    17 	machine_state_node		initial("000001101"b),
  1    18 	source_node		initial("000001110"b),
  1    19 	label_node		initial("000001111"b),
  1    20 	cross_reference_node	initial("000010000"b),
  1    21 	sf_par_node		initial("000010001"b),
  1    22 	temporary_node		initial("000010010"b),
  1    23 	label_array_element_node	initial("000010011"b),
  1    24 	by_name_agg_node		initial("000010100"b))
  1    25 				bit(9) internal static aligned options(constant);
  1    26
  1    27 dcl	1 node			based aligned,
  1    28 	2 type			unal bit(9),
  1    29 	2 source_id		unal structure,
  1    30 	  3 file_number		bit(8),
  1    31 	  3 line_number		bit(14),
  1    32 	  3 statement_number	bit(5);
  1    33
  1    34 /* END INCLUDE FILE ... nodes.incl.pl1 */
       82
  2     1 /* BEGIN INCLUDE FILE ... op_codes.incl.pl1 */
  2     2
  2     3 /* Modified: 25 Apr 1979 by PCK 4-bit decimal */
  2     4 /* Modified: 6 Jun 1979 by PG to add rank and byte */
  2     5 /* Modified: 26 Dec 1979 by PCK to add assign_by_name */
  2     6 /* Modified: 26 July 82 BIM wordno, segno */
  2     7
  2     8 dcl (	add		initial("000010001"b),	/* opnd(1) <- opnd(2)+opnd(3)		*/
  2     9 	sub		initial("000010010"b),	/* opnd(1) <- opnd(2)-opnd(3)		*/
  2    10 	mult		initial("000010011"b),	/* opnd(1) <- opnd(2)*opnd(3)		*/
  2    11 	div		initial("000010100"b),	/* opnd(1) <- opnd(2)/opnd(3)		*/
  2    12 	negate		initial("000010101"b),	/* opnd(1) <- -opnd(2)  		*/
  2    13 	exp		initial("000010110"b),	/* opnd(1) <- opnd(2) ** opnd(3)	*/
  2    14
  2    15 	and_bits		initial("000100001"b),	/* opnd(1) <- opnd(2) & opnd(3)	*/
  2    16 	or_bits		initial("000100010"b),	/* opnd(1) <- opnd(2)|opnd(3)		*/
  2    17 	xor_bits		initial("000100011"b),	/* opnd(1) <- opnd(2) xor opnd(3)	*/
  2    18 	not_bits		initial("000100100"b),	/* opnd(1) <- ^opnd(2)		*/
  2    19 	cat_string	initial("000100101"b),	/* opnd(1) <- opnd(2)||opnd(3)	*/
  2    20 	bool_fun		initial("000100110"b),	/* opnd(1) <- bool(opnd(2),opnd(3),opnd(4)) */
  2    21
  2    22 	assign		initial("000110001"b),	/* opnd(1) <- opnd(2)		*/
  2    23 	assign_size_ck	initial("000110010"b),	/* opnd(1) <- opnd(2)		*/
  2    24 	assign_zero	initial("000110011"b),	/* opnd(1) <- 0			*/
  2    25 	copy_words	initial("000110100"b),	/* move opnd(2) to opnd(1) by opnd(3) words */
  2    26 	copy_string	initial("000110101"b),	/* move opnd(2) to opnd(1) by opnd(3) units */
  2    27 	make_desc		initial("000110110"b),	/* opnd(1) <- descriptor(opnd(2),opnd(3)) */
  2    28 	assign_round	initial("000110111"b),	/* opnd(1) <- opnd(2) rounded		*/
  2    29 	pack		initial("000111000"b),	/* opnd(1) <- encode to picture opnd(2) */
  2    30 	unpack		initial("000111001"b),	/* opnd(1) <- decode from picture opnd(2) */
  2    31
  2    32 	less_than		initial("001000100"b),	/* opnd(1) <- opnd(2) < opnd(3)	*/
  2    33 	greater_than	initial("001000101"b),	/* opnd(1) <- opnd(2) > opnd(3)	*/
  2    34 	equal		initial("001000110"b),	/* opnd(1) <- opnd(2) = opnd(3)	*/
  2    35 	not_equal		initial("001000111"b),	/* opnd(1) <- opnd(2) ^= opnd(3)	*/
  2    36 	less_or_equal	initial("001001000"b),	/* opnd(1) <- opnd(2) <= opnd(3)	*/
  2    37 	greater_or_equal	initial("001001001"b),	/* opnd(1) <- opnd(2) >= opnd(3)	*/
  2    38
  2    39 	jump		initial("001010001"b),	/* go to opnd(1) unconditionally	*/
  2    40 	jump_true		initial("001010010"b),	/* go to opnd(1) if opnd(2) is not 0	*/
  2    41 	jump_false	initial("001010011"b),	/* go to opnd(1) if opnd(2) is all 0	*/
  2    42 	jump_if_lt	initial("001010100"b),	/* go to opnd(1) if opnd(2) < opnd(3)	*/
  2    43 	jump_if_gt	initial("001010101"b),	/* go to opnd(1) if opnd(2) > opnd(3)	*/
  2    44 	jump_if_eq	initial("001010110"b),	/* go to opnd(1) if opnd(2) = opnd(3)	*/
  2    45 	jump_if_ne	initial("001010111"b),	/* go to opnd(1) if opnd(2) ^= opnd(3)	*/
  2    46 	jump_if_le	initial("001011000"b),	/* go to opnd(1) if opnd(2) <= opnd(3)	*/
  2    47 	jump_if_ge	initial("001011001"b),	/* go to opnd(1) if opnd(2) >= opnd(3)	*/
  2    48
  2    49 	std_arg_list	initial("001100001"b),	/* opnd(1) <- arglist(opnd(2) desclist(opnd(3)))	*/
  2    50 	return_words	initial("001100010"b),	/* return aggregate opnd(1), opnd(2) is length in words */
  2    51 	std_call		initial("001100011"b),	/* opnd(1) <- call opnd(2) with opnd(3)		*/
  2    52 	return_bits	initial("001100100"b),	/* return aggregate opnd(1), opnd(2) is length in bits */
  2    53 	std_entry		initial("001100101"b),	/* entry(opnd(1)... opnd(n))			*/
  2    54 	return_string	initial("001100110"b),	/* return string opnd(1) */
  2    55 	ex_prologue	initial("001100111"b),	/* execute the prologue -no operands-		*/
  2    56 	allot_auto	initial("001101000"b),	/* opnd(1) <- addrel(stack,opnd(2))		*/
  2    57 	param_ptr		initial("001101001"b),	/* opnd(1) <- ptr to opnd(2) in  block opnd(3)	*/
  2    58 	param_desc_ptr	initial("001101010"b),	/* opnd(1) <- ptr to opnd(2) in block opnd(3)	*/
  2    59 	std_return	initial("001101011"b),	/* return -no arguments-			*/
  2    60 	allot_ctl		initial("001101100"b),	/* allocate opnd(1) , length in words is opnd(2) 	*/
  2    61 	free_ctl		initial("001101101"b),	/* free opnd(1)				*/
  2    62 	stop		initial("001101110"b),	/* stop - terminate run unit			*/
  2    63
  2    64 	mod_bit		initial("001110000"b),	/* opnd(1) <- mod(opnd(3),36),
  2    65*						   opnd(2) <- opnd(3) / 36		*/
  2    66 	mod_byte		initial("001110001"b),	/* opnd(1) <- mod(opnd(3),4),
  2    67*						   opnd(2) <- opnd(3) / 4		*/
  2    68 	mod_half		initial("001110010"b),	/* opnd(1) <- mod(opnd(3),2),
  2    69*						   opnd(2) <- opnd(3) / 2		*/
  2    70 	mod_word		initial("001110011"b),	/* TO BE DEFINED BY BLW			*/
  2    71
  2    72 	bit_to_char	initial("010000000"b),	/* opnd(1) <- (opnd(2)+8)/9		*/
  2    73 	bit_to_word	initial("010000001"b),	/* opnd(1) <- (opnd(2)+35)/36		*/
  2    74 	char_to_word	initial("010000010"b),	/* opnd(1) <- (opnd(2)+3)/4		*/
  2    75 	half_to_word	initial("010000011"b),	/* opnd(1) <- (opnd(2)+1)/2		*/
  2    76 	word_to_mod2	initial("010000100"b),	/* opnd(1) <- (opnd(2)+1)/2*2		*/
  2    77 	word_to_mod4	initial("010000101"b),	/* opnd(1) <- (opnd(2)+3)/4*4		*/
  2    78 	word_to_mod8	initial("010000110"b),	/* opnd(1) <- (opnd(2)+7)/8*8		*/
  2    79 	rel_fun		initial("010000111"b),	/* opnd(1) <- rel(opnd(2))		*/
  2    80 	baseno_fun	initial("010001000"b),	/* opnd(1) <- baseno(opnd(2))		*/
  2    81 	desc_size		initial("010001001"b),	/* opnd(1) <- substr(opnd(2),13,24)	*/
  2    82 	bit_pointer	initial("010001010"b),	/* opnd(1) <- bit offset of opnd(2)	*/
  2    83 	index_before_fun	initial("010001011"b),	/* opnd(1) <- length of before(opnd(2),opnd(3)) */
  2    84 	index_after_fun	initial("010001100"b),	/* opnd(1) <- offset of after(opnd(2),opnd(3)) in opnd(2) */
  2    85 	verify_ltrim_fun	initial("010001101"b),	/* opnd(1) <- offset of ltrim(opnd(2),opnd(3)) in opnd(2) */
  2    86 	verify_rtrim_fun	initial("010001110"b),	/* opnd(1) <- length(opnd(2))-length(rtrim(opnd(2),opnd(3))) */
  2    87 	digit_to_bit	initial("010001111"b),	/* opnd(1) <- 9*opnd(2)/2		*/
  2    88
  2    89 	ceil_fun		initial("010010000"b),	/* opnd(1) <- ceil(opnd(2))		*/
  2    90 	floor_fun		initial("010010001"b),	/* opnd(1) <- floor(opnd(2))		*/
  2    91 	round_fun		initial("010010010"b),	/* opnd(1) <- round(opnd(2))		*/
  2    92 	sign_fun		initial("010010011"b),	/* opnd(1) <- sign(opnd(2))		*/
  2    93 	abs_fun		initial("010010100"b),	/* opnd(1) <- abs(opnd(2))		*/
  2    94 	trunc_fun		initial("010010101"b),	/* opnd(1) <- trunc(opnd(2))		*/
  2    95 	byte_fun		initial("010010110"b),	/* opnd(1) <- byte(opnd(2))		*/
  2    96 	rank_fun		initial("010010111"b),	/* opnd(1) <- rank(opnd(2))		*/
  2    97 	index_rev_fun	initial("010011000"b),	/* opnd(1) <- index(reverse(opnd(2)),reverse(opnd(3))) */
  2    98 	search_rev_fun	initial("010011001"b),	/* opnd(1) <- search(reverse(opnd(2)),opnd(3)) */
  2    99 	verify_rev_fun	initial("010011010"b),	/* opnd(1) <- verify(reverse(opnd(2)),opnd(3)) */
  2   100 	wordno_fun	initial("010011011"b),        /* opnd(1) <- wordno (opnd(2)) */
  2   101 	segno_fun		initial("010011100"b),        /* opnd(1) <- segno (opnd(2)) */
  2   102 	bitno_fun           initial("010011101"b),        /* opnd(1) <- bitno (opnd(2)) */
  2   103 	charno_fun	initial("010011110"b),        /* opnd(1) <- charno (opnd(2)) */
  2   104
  2   105 	index_fun		initial("010100000"b),	/* opnd(1) <- index(opnd(2),opnd(3))	*/
  2   106 	off_fun		initial("010100001"b),	/* opnd(1) <- offset(opnd(2),opnd(3))	*/
  2   107 	complex_fun	initial("010100010"b),	/* opnd(1) <- complex(opnd(2),opnd(3))	*/
  2   108 	conjg_fun		initial("010100011"b),	/* opnd(1) <- conjg(opnd(2),opnd(3))	*/
  2   109 	mod_fun		initial("010100100"b),	/* opnd(1) <- mod(opnd(2),opnd(3))	*/
  2   110 	repeat_fun	initial("010100101"b),	/* opnd(1) <- repeat(opnd(2),opnd(3))	*/
  2   111 	verify_fun	initial("010100110"b),	/* opnd(1) <- verify(opnd(2),opnd(3))	*/
  2   112 	translate_fun	initial("010100111"b),	/* opnd(1) <- translate(opnd(2),opnd(3))*/
  2   113 	real_fun   	initial("010101001"b),	/* opnd(1) <- real(opnd(2))		*/
  2   114 	imag_fun   	initial("010101010"b),	/* opnd(1) <- imag(opnd(2))		*/
  2   115 	length_fun	initial("010101011"b),	/* opnd(1) <- length(opnd(2))	*/
  2   116 	pl1_mod_fun	initial("010101100"b),	/* opnd(1) <- mod(opnd(2)) */
  2   117 	search_fun	initial("010101101"b),	/* opnd(1) <- search(opnd(2),opnd(3)) */
  2   118 	allocation_fun	initial("010101110"b),	/* opnd(1) <- allocation(opnd(2)) */
  2   119 	reverse_fun	initial("010101111"b),	/* opnd(1) <- reverse(opnd(2)) */
  2   120
  2   121 	addr_fun		initial("010110000"b),	/* opnd(1) <- addr(opnd(2))		*/
  2   122 	addr_fun_bits	initial("010110001"b),	/* opnd(1) <- addr(opnd(2))		*/
  2   123 	ptr_fun		initial("010110010"b),	/* opnd(1) <- ptr(opnd(2),opnd(3))	*/
  2   124 	baseptr_fun	initial("010110011"b),	/* opnd(1) <- baseptr(opnd(2))	*/
  2   125 	addrel_fun	initial("010110100"b),	/* opnd(1) <- addrel(opnd(2),opnd(3))	*/
  2   126 	codeptr_fun	initial("010110101"b),	/* opnd(1) <- codeptr(opnd(2))	*/
  2   127 	environmentptr_fun	initial("010110110"b),	/* opnd(1) <- environmentptr(opnd(2))	*/
  2   128 	stackbaseptr_fun	initial("010110111"b),	/* opnd(1) is ptr to base of current stack	*/
  2   129 	stackframeptr_fun	initial("010111000"b),	/* opnd(1) is ptr to current block's stack frame	*/
  2   130 	setcharno_fun	initial("010111001"b),	/* opnd(1) <- opnd(2) with charno opnd(3) */
  2   131 	addcharno_fun	initial("010111010"b),	/* opnd(1) <- opnd(2) with charno = charno + opnd(3) */
  2   132 	setbitno_fun	initial("010111011"b),	/* setcharno for bitsno */
  2   133 	addbitno_fun	initial("010111100"b),	/* addcharno for bitno */
  2   134
  2   135 	min_fun		initial("011000000"b),	/* opnd(1) <- min(opnd(1),opnd(2),...)	*/
  2   136 	max_fun		initial("011000001"b),	/* opnd(1) <- max(opnd(1),opnd(2),...)	*/
  2   137
  2   138 	stack_ptr		initial("011010001"b),	/* opnd(1) <- stack frame ptr		*/
  2   139 	empty_area	initial("011010010"b),	/* empty opnd(1), length in words is opnd(2) */
  2   140 	enable_on		initial("011010100"b),	/* opnd(1) is the cond name
  2   141*						   opnd(2) is the file name
  2   142*						   opnd(3) is the block	*/
  2   143 	revert_on		initial("011010101"b),	/* opnd(1) is the cond name,
  2   144*						   opnd(2) is the file name	*/
  2   145 	signal_on		initial("011010110"b),	/* opnd(1) is the cond name
  2   146*						   opnd(2) is the file name */
  2   147
  2   148 	lock_fun		initial("011010111"b),	/* opnd(1) <- stac(opnd(2),opnd(3))	*/
  2   149 	stacq_fun		initial("011011000"b),	/* opnd(1) is result, opnd(2) is ptr to lock word,
  2   150*						   opnd(3) is old value, (4) is new value. */
  2   151 	clock_fun		initial("011011001"b),	/* opnd(1) is the clock time		*/
  2   152 	vclock_fun	initial("011011010"b),	/* opnd(1) is the virtual clock time	*/
  2   153
  2   154 	bound_ck		initial("011100000"b),	/* opnd(1) <- opnd(2) if opnd(3) <= opnd(2) <= opnd(4) */
  2   155 	range_ck		initial("011100001"b),	/* opnd(1) <- opnd(2) if opnd(3) <= opnd(2) <= opnd(4) */
  2   156 	loop		initial("011100010"b),	/* do opnd(1) for opnd(2) from opnd(3) to opnd(4) by 1,
  2   157*						   opnd(5) is the list */
  2   158 	join		initial("011100011"b),	/* do opnd(1), opnd(2) ... opnd(n)	*/
  2   159 	allot_based	initial("011100100"b),	/* allocate opnd(2) words in opnd(3), set opnd(1) */
  2   160 	free_based	initial("011100101"b),	/* free opnd(1) in opnd(3), length is opnd(2) words */
  2   161
  2   162 	r_parn		initial("011110001"b),	/* format op code			*/
  2   163 	l_parn		initial("011110010"b),
  2   164 	r_format		initial("011110011"b),
  2   165 	c_format		initial("011110100"b),
  2   166 	f_format		initial("011110101"b),
  2   167 	e_format		initial("011110110"b),
  2   168 	b_format		initial("011110111"b),
  2   169 	a_format		initial("011111000"b),
  2   170 	x_format		initial("011111001"b),
  2   171 	skip_format	initial("011111010"b),
  2   172 	column_format	initial("011111011"b),
  2   173 	page_format	initial("011111100"b),
  2   174 	line_format	initial("011111101"b),
  2   175 	picture_format	initial("011111110"b),
  2   176 	bn_format		initial("011111111"b),	/* bit format, length(opnd(2)), radix factor(opnd(3)) */
  2   177
  2   178 	get_list_trans	initial("100000000"b),	/* getlist(opnd(2) with desc(opnd(1)))	*/
  2   179 	get_edit_trans	initial("100000001"b),	/* getedit(opnd(2) with desc(opnd(1)))	*/
  2   180 	get_data_trans	initial("100000010"b),	/* getdata(opnd(1) to opnd(n))	*/
  2   181 	put_list_trans	initial("100000011"b),	/* putlist(opnd(2) with desc(opnd(1)))	*/
  2   182 	put_edit_trans	initial("100000100"b),	/* putedit(opnd(2) with desc(opnd(1)))	*/
  2   183 	put_data_trans	initial("100000101"b),	/* putdata(opnd(2)) with subscript-list opnd(1) */
  2   184 	terminate_trans	initial("100000110"b),	/* terminate stream transmission	*/
  2   185 	stream_prep	initial("100000111"b),	/* initiate stream transmission	*/
  2   186 	record_io		initial("100001000"b),	/* perform record io operation	*/
  2   187 	fortran_read	initial("100001001"b),	/* A complete read statement		*/
  2   188 	fortran_write	initial("100001010"b),	/* A complete write statement		*/
  2   189 	ftn_file_manip	initial("100001011"b),	/* endfile,backspace,rewind,etc.	*/
  2   190 	ftn_trans_loop	initial("100001100"b),	/* An implied do in i/o list		*/
  2   191 	put_control	initial("100001101"b),	/* put control opnd(1) opnd(2) times	*/
  2   192 	put_field		initial("100001110"b),	/* putlist(opnd(2)) of length(opnd(1))	*/
  2   193 	put_field_chk	initial("100001111"b),	/* putlist(op(2)) of len(op(1)) check char index(op(3)) */
  2   194
  2   195 /* These operators are produced by the parse but are not used as input to the code generator.	*/
  2   196 /* They are processed by the semantic translator.						*/
  2   197
  2   198 	return_value	initial("100010010"b),	/* return(opnd(1))			*/
  2   199 	allot_var		initial("100010011"b),	/* allot opnd(1) in opnd(2)		*/
  2   200 	free_var		initial("100010100"b),	/* free opnd(1) out of opnd(2)	*/
  2   201 	get_file		initial("100010101"b),	/* opnd(1) is filename,opnd(2) is copy	*/
  2   202 						/* opnd(3) is skip, opnd(4) is list	*/
  2   203 	get_string	initial("100010110"b),	/* opnd(1) is string,opnd(2) is list	*/
  2   204 	put_file		initial("100010111"b),	/* opnd(1) is filename,opnd(2) is page	*/
  2   205 						/* opnd(3) is skip,opnd(4) is line	*/
  2   206 	put_string	initial("100011000"b),	/* opnd(1) is string,opnd(2) is list	*/
  2   207 	open_file		initial("100011001"b),
  2   208 	close_file	initial("100011010"b),
  2   209 	read_file		initial("100011011"b),
  2   210 	write_file	initial("100011100"b),
  2   211 	locate_file	initial("100011101"b),
  2   212 	do_fun		initial("100011110"b),	/* opnd(1) is join of a list		*/
  2   213 						/* opnd(2) is control variable ref	*/
  2   214 						/* opnd(3) is specification operator	*/
  2   215 	do_spec		initial("100011111"b),	/* opnd(1) to opnd(2) by opnd(3) 	*/
  2   216 						/* repeat opnd(4) while opnd(5)	*/
  2   217 						/* opnd(6) is next specification	*/
  2   218
  2   219 	rewrite_file	initial("100100000"b),
  2   220 	delete_file	initial("100100001"b),
  2   221 	unlock_file	initial("100100010"b),
  2   222 	lock_file		initial("100100011"b),
  2   223 	refer		initial("100100101"b),	/* opnd(1) refer(opnd(2))		*/
  2   224 	prefix_plus	initial("100100110"b),	/* opnd(1) <- +opnd(2)		*/
  2   225 	nop		initial("100100111"b),	/* no-op */
  2   226 	assign_by_name	initial("100101000"b),	/* opnd(1) <- opnd(2),by name		*/
  2   227
  2   228 /* These operators are produced by the semantic translator in processing the math
  2   229*   builtin functions and are used as input to the code generator			*/
  2   230
  2   231 	sqrt_fun		initial("100110000"b),	/* opnd(1) <- sqrt(opnd(2))	*/
  2   232 	sin_fun		initial("100110001"b),	/* opnd(1) <- sin(opnd(2))	*/
  2   233 	sind_fun		initial("100110010"b),	/* opnd(1) <- sind(opnd(2))	*/
  2   234 	cos_fun		initial("100110011"b),	/* opnd(1) <- cos(opnd(2))	*/
  2   235 	cosd_fun		initial("100110100"b),	/* opnd(1) <- cosd(opnd(2))	*/
  2   236 	tan_fun		initial("100110101"b),	/* opnd(1) <- tan(opnd(2))	*/
  2   237 	tand_fun		initial("100110110"b),	/* opnd(1) <- tand(opnd(2))	*/
  2   238 	asin_fun		initial("100110111"b),	/* opnd(1) <- asin(opnd(2))	*/
  2   239 	asind_fun		initial("100111000"b),	/* opnd(1) <- asind(opnd(2))	*/
  2   240 	acos_fun		initial("100111001"b),	/* opnd(1) <- acos(opnd(2))	*/
  2   241 	acosd_fun		initial("100111010"b),	/* opnd(1) <- acosd(opnd(2))	*/
  2   242 	atan_fun		initial("100111011"b),	/* opnd(1) <- atan(opnd(2)[,opnd(3)])	*/
  2   243 	atand_fun		initial("100111100"b),	/* opnd(1) <- atand(opnd(2)[,opnd(3)])	*/
  2   244 	log2_fun		initial("100111101"b),	/* opnd(1) <- log2(opnd(2))	*/
  2   245 	log_fun		initial("100111110"b),	/* opnd(1) <- log(opnd(2))	*/
  2   246 	log10_fun		initial("100111111"b),	/* opnd(1) <- log10(opnd(2))	*/
  2   247
  2   248 	exp_fun		initial("101000000"b))	/* opnd(1) <- exp(opnd(2))	*/
  2   249
  2   250 			bit(9) aligned internal static options(constant);
  2   251
  2   252 /* END INCLUDE FILE ... op_codes.incl.pl1 */
       83
  3     1 /* BEGIN INCLUDE FILE ... operator.incl.pl1 */
  3     2
  3     3 /*	Modified: 2 Apr 1980 by PCK to add max_number_of_operands */
  3     4
  3     5 /* format: style3 */
  3     6 dcl	1 operator	based aligned,
  3     7 	  2 node_type	bit (9) unaligned,
  3     8 	  2 op_code	bit (9) unaligned,
  3     9 	  2 shared	bit (1) unaligned,
  3    10 	  2 processed	bit (1) unaligned,
  3    11 	  2 optimized	bit (1) unaligned,
  3    12 	  2 number	fixed (14) unaligned,
  3    13 	  2 operand	dimension (n refer (operator.number)) ptr unaligned;
  3    14
  3    15 dcl	max_number_of_operands
  3    16 			fixed bin (15) int static options (constant) initial (32767);
  3    17
  3    18 /* END INCLUDE FILE ... operator.incl.pl1 */
       84
  4     1 /* BEGIN INCLUDE FILE ... reference.incl.pl1 */
  4     2
  4     3 dcl	1 reference		based aligned,
  4     4 	2 node_type		bit(9) unaligned,
  4     5 	2 array_ref		bit(1) unaligned,
  4     6 	2 varying_ref		bit(1) unaligned,
  4     7 	2 shared			bit(1) unaligned,
  4     8 	2 put_data_sw		bit(1) unaligned,
  4     9 	2 processed		bit(1) unaligned,
  4    10 	2 units			fixed(3) unaligned,
  4    11 	2 ref_count		fixed(17) unaligned,
  4    12 	2 c_offset		fixed(24),
  4    13 	2 c_length		fixed(24),
  4    14 	2 symbol			ptr unaligned,
  4    15 	2 qualifier		ptr unaligned,
  4    16 	2 offset			ptr unaligned,
  4    17 	2 length			ptr unaligned,
  4    18 	2 subscript_list		ptr unaligned,
  4    19 						/* these fields are used by the 645 code generator */
  4    20 	2 address			structure unaligned,
  4    21 	  3 base			bit(3),
  4    22 	  3 offset		bit(15),
  4    23 	  3 op			bit(9),
  4    24 	  3 no_address		bit(1),
  4    25 	  3 inhibit		bit(1),
  4    26 	  3 ext_base		bit(1),
  4    27 	  3 tag			bit(6),
  4    28 	2 info			structure unaligned,
  4    29 	  3 address_in		structure,
  4    30 	    4 b			dimension(0:7) bit(1),
  4    31 	    4 storage		bit(1),
  4    32 	  3 value_in		structure,
  4    33 	    4 a			bit(1),
  4    34 	    4 q			bit(1),
  4    35 	    4 aq			bit(1),
  4    36 	    4 string_aq		bit(1),
  4    37 	    4 complex_aq		bit(1),
  4    38 	    4 decimal_aq		bit(1),
  4    39 	    4 b			dimension(0:7) bit(1),
  4    40 	    4 storage		bit(1),
  4    41 	    4 indicators		bit(1),
  4    42 	    4 x			dimension(0:7) bit(1),
  4    43 	  3 other			structure,
  4    44 	    4 big_offset		bit(1),
  4    45 	    4 big_length		bit(1),
  4    46 	    4 modword_in_offset	bit(1),
  4    47 	2 data_type		fixed(5) unaligned,
  4    48 	2 bits			structure unaligned,
  4    49 	  3 padded_ref		bit(1),
  4    50 	  3 aligned_ref		bit(1),
  4    51 	  3 long_ref		bit(1),
  4    52 	  3 forward_ref		bit(1),
  4    53 	  3 ic_ref		bit(1),
  4    54 	  3 temp_ref		bit(1),
  4    55 	  3 defined_ref		bit(1),
  4    56 	  3 evaluated		bit(1),
  4    57 	  3 allocate		bit(1),
  4    58 	  3 allocated		bit(1),
  4    59 	  3 aliasable		bit(1),
  4    60 	  3 even			bit(1),
  4    61 	  3 perm_address		bit(1),
  4    62 	  3 aggregate		bit(1),
  4    63 	  3 hit_zero		bit(1),
  4    64 	  3 dont_save		bit(1),
  4    65 	  3 fo_in_qual		bit(1),
  4    66 	  3 hard_to_load		bit(1),
  4    67 	2 relocation		bit(12) unaligned,
  4    68 	2 more_bits		structure unaligned,
  4    69 	  3 substr		bit(1),
  4    70 	  3 padded_for_store_ref	bit(1),
  4    71 	  3 aligned_for_store_ref	bit(1),
  4    72 	  3 mbz			bit(15),
  4    73 	2 store_ins		bit(18) unaligned;
  4    74
  4    75 /* END INCLUDE FILE ... reference.incl.pl1 */
       85
  5     1 /* BEGIN INCLUDE FILE ... symbol.incl.pl1 */
  5     2
  5     3 dcl	1 symbol			based aligned,
  5     4 	2 node_type		bit(9) unal,
  5     5 	2 source_id		structure unal,
  5     6 	  3 file_number		bit(8),
  5     7 	  3 line_number		bit(14),
  5     8 	  3 statement_number	bit(5),
  5     9 	2 location		fixed(18) unal unsigned,
  5    10 	2 allocated		bit(1) unal,
  5    11 	2 dcl_type		bit(3) unal,
  5    12 	2 reserved		bit(6) unal,
  5    13 	2 pix			unal,
  5    14 	  3 pic_fixed		bit(1) unal,
  5    15 	  3 pic_float		bit(1) unal,
  5    16 	  3 pic_char		bit(1) unal,
  5    17 	  3 pic_scale		fixed(7) unal,
  5    18 	  3 pic_size		fixed(7) unal,
  5    19 	2 level			fixed(8) unal,
  5    20 	2 boundary		fixed(3) unal,
  5    21 	2 size_units		fixed(3) unal,
  5    22 	2 scale			fixed(7) unal,
  5    23 	2 runtime			bit(18) unal,
  5    24 	2 runtime_offset		bit(18) unal,
  5    25 	2 block_node		ptr unal,
  5    26 	2 token			ptr unal,
  5    27 	2 next			ptr unal,
  5    28 	2 multi_use		ptr unal,
  5    29 	2 cross_references		ptr unal,
  5    30 	2 initial			ptr unal,
  5    31 	2 array			ptr unal,
  5    32 	2 descriptor		ptr unal,
  5    33 	2 equivalence		ptr unal,
  5    34 	2 reference		ptr unal,
  5    35 	2 general			ptr unal,
  5    36 	2 father			ptr unal,
  5    37 	2 brother			ptr unal,
  5    38 	2 son			ptr unal,
  5    39 	2 word_size		ptr unal,
  5    40 	2 bit_size		ptr unal,
  5    41 	2 dcl_size		ptr unal,
  5    42 	2 symtab_size		ptr unal,
  5    43 	2 c_word_size		fixed(24),
  5    44 	2 c_bit_size		fixed(24),
  5    45 	2 c_dcl_size		fixed(24),
  5    46
  5    47 	2 attributes		structure aligned,
  5    48 	  3 data_type		structure unal,
  5    49 	    4 structure		bit(1) ,
  5    50 	    4 fixed		bit(1),
  5    51 	    4 float		bit(1),
  5    52 	    4 bit			bit(1),
  5    53 	    4 char		bit(1),
  5    54 	    4 ptr			bit(1),
  5    55 	    4 offset		bit(1),
  5    56 	    4 area		bit(1),
  5    57 	    4 label		bit(1),
  5    58 	    4 entry		bit(1),
  5    59 	    4 file		bit(1),
  5    60 	    4 arg_descriptor	bit(1),
  5    61 	    4 storage_block		bit(1),
  5    62 	    4 explicit_packed	bit(1), /* options(packed) */
  5    63 	    4 condition		bit(1),
  5    64 	    4 format		bit(1),
  5    65 	    4 builtin		bit(1),
  5    66 	    4 generic		bit(1),
  5    67 	    4 picture		bit(1),
  5    68
  5    69 	  3 misc_attributes		structure unal,
  5    70 	    4 dimensioned		bit(1),
  5    71 	    4 initialed		bit(1),
  5    72 	    4 aligned		bit(1),
  5    73 	    4 unaligned		bit(1),
  5    74 	    4 signed		bit(1),
  5    75 	    4 unsigned		bit(1),
  5    76 	    4 precision		bit(1),
  5    77 	    4 varying		bit(1),
  5    78 	    4 local		bit(1),
  5    79 	    4 decimal		bit(1),
  5    80 	    4 binary		bit(1),
  5    81 	    4 real		bit(1),
  5    82 	    4 complex		bit(1),
  5    83 	    4 variable		bit(1),
  5    84 	    4 reducible		bit(1),
  5    85 	    4 irreducible		bit(1),
  5    86 	    4 returns		bit(1),
  5    87 	    4 position		bit(1),
  5    88 	    4 internal		bit(1),
  5    89 	    4 external		bit(1),
  5    90 	    4 like		bit(1),
  5    91 	    4 member		bit(1),
  5    92 	    4 non_varying		bit(1),
  5    93 	    4 options		bit(1),
  5    94 	    4 variable_arg_list 	bit(1),		/* options(variable) */
  5    95 	    4 alloc_in_text		bit(1),		/* options(constant) */
  5    96
  5    97 	  3 storage_class		structure unal,
  5    98 	    4 auto		bit(1),
  5    99 	    4 based		bit(1),
  5   100 	    4 static		bit(1),
  5   101 	    4 controlled		bit(1),
  5   102 	    4 defined		bit(1),
  5   103 	    4 parameter		bit(1),
  5   104 	    4 param_desc		bit(1),
  5   105 	    4 constant		bit(1),
  5   106 	    4 temporary		bit(1),
  5   107 	    4 return_value		bit(1),
  5   108
  5   109 	  3 file_attributes		structure unal,
  5   110 	    4 print		bit(1),
  5   111 	    4 input		bit(1),
  5   112 	    4 output		bit(1),
  5   113 	    4 update		bit(1),
  5   114 	    4 stream		bit(1),
  5   115 	    4 reserved_1		bit(1),
  5   116 	    4 record		bit(1),
  5   117 	    4 sequential		bit(1),
  5   118 	    4 direct		bit(1),
  5   119 	    4 interactive		bit(1),		/* env(interactive) */
  5   120 	    4 reserved_2		bit(1),
  5   121 	    4 reserved_3		bit(1),
  5   122 	    4 stringvalue		bit(1),		/* env(stringvalue) */
  5   123 	    4 keyed		bit(1),
  5   124 	    4 reserved_4		bit(1),
  5   125 	    4 environment		bit(1),
  5   126
  5   127 	  3 compiler_developed	structure unal,
  5   128 	    4 aliasable		bit(1),
  5   129 	    4 packed		bit(1),
  5   130 	    4 passed_as_arg		bit(1),
  5   131 	    4 allocate		bit(1),
  5   132 	    4 set			bit(1),
  5   133 	    4 exp_extents		bit(1),
  5   134 	    4 refer_extents		bit(1),
  5   135 	    4 star_extents		bit(1),
  5   136 	    4 isub		bit(1),
  5   137 	    4 put_in_symtab		bit(1),
  5   138 	    4 contiguous		bit(1),
  5   139 	    4 put_data		bit(1),
  5   140 	    4 overlayed		bit(1),
  5   141 	    4 error		bit(1),
  5   142 	    4 symtab_processed	bit(1),
  5   143 	    4 overlayed_by_builtin	bit(1),
  5   144 	    4 defaulted		bit(1),
  5   145 	    4 connected		bit(1);
  5   146
  5   147 /* END INCLUDE FILE ... symbol.incl.pl1 */
       86
  6     1 /* BEGIN INCLUDE FILE ... system.incl.pl1 */
  6     2
  6     3 /* Modified: 25 Apr 1979 by PCK to implemnt 4-bit decimal */
  6     4
  6     5 dcl (	max_p_flt_bin_1			initial(27),
  6     6 	max_p_flt_bin_2			initial(63),
  6     7 	max_p_fix_bin_1			initial(35),
  6     8 	max_p_fix_bin_2			initial(71),
  6     9
  6    10 	max_p_dec				initial(59),
  6    11 	max_p_bin_or_dec			initial (71),	/* max (max_p_fix_bin_2, max_p_dec) */
  6    12
  6    13 	min_scale				initial(-128),
  6    14 	max_scale				initial(+127),
  6    15 	max_bit_string			initial(9437184),
  6    16 	max_char_string			initial(1048576),
  6    17 	max_area_size			initial(262144),
  6    18 	min_area_size			initial(28),
  6    19
  6    20 	max_bit_string_constant		initial (253),	/* max length of bit literals */
  6    21 	max_char_string_constant		initial (254),	/* max length of character literals */
  6    22 	max_identifier_length		initial (256),
  6    23 	max_number_of_dimensions		initial (127),
  6    24
  6    25 	max_length_precision		initial(24),
  6    26 	max_offset_precision		initial(24),	/* 18 bits for word offset + 6 bits for bit offset */
  6    27
  6    28 	max_words_per_variable		initial (262144),
  6    29
  6    30 	bits_per_word			initial(36),
  6    31 	bits_per_double			initial(72),
  6    32 	packed_digits_per_character		initial(2),
  6    33 	characters_per_half			initial(2),
  6    34 	characters_per_word			initial(4),
  6    35 	characters_per_double		initial(8),
  6    36
  6    37 	bits_per_character			initial(9),
  6    38 	bits_per_half			initial(18),
  6    39 	bits_per_decimal_digit		initial(9),
  6    40 	bits_per_binary_exponent		initial(8),
  6    41 	bits_per_packed_ptr			initial(36),
  6    42 	words_per_packed_pointer		initial(1),
  6    43
  6    44 	words_per_fix_bin_1			initial(1),
  6    45 	words_per_fix_bin_2			initial(2),
  6    46 	words_per_flt_bin_1			initial(1),
  6    47 	words_per_flt_bin_2			initial(2),
  6    48 	words_per_varying_string_header	initial(1),
  6    49 	words_per_offset			initial(1),
  6    50 	words_per_pointer			initial(2),
  6    51 	words_per_label_var			initial(4),
  6    52 	words_per_entry_var			initial(4),
  6    53 	words_per_file_var			initial(4),
  6    54 	words_per_format			initial(4),
  6    55 	words_per_condition_var		initial(6),
  6    56
  6    57 	max_index_register_value		initial(262143),
  6    58 	max_signed_index_register_value	initial(131071),
  6    59
  6    60 	max_signed_xreg_precision		initial(17),
  6    61 	max_uns_xreg_precision		initial(18),
  6    62
  6    63 	default_area_size			initial(1024),
  6    64 	default_flt_bin_p			initial(27),
  6    65 	default_fix_bin_p			initial(17),
  6    66 	default_flt_dec_p			initial(10),
  6    67           default_fix_dec_p   		initial(7)) fixed bin(31) internal static options(constant);
  6    68
  6    69 dcl	bits_per_digit			initial(4.5)  fixed bin(31,1) internal static options(constant);
  6    70
  6    71 dcl (	integer_type		initial("010000000000000000000100000001100000"b),
  6    72 	dec_integer_type		initial("010000000000000000000100000010100000"b),
  6    73 	pointer_type		initial("000001000000000000000100000000000000"b),
  6    74 	real_type			initial("001000000000000000000100000001100000"b),
  6    75 	complex_type		initial("001000000000000000000100000001010000"b),
  6    76 	builtin_type		initial("000000000000000010000000000000000000"b),
  6    77 	storage_block_type		initial("000000000000100000000000000000000000"b),
  6    78 	arg_desc_type		initial("000000000001000000000000000000000000"b),
  6    79 	local_label_var_type	initial("000000001000000000000100000100001000"b),
  6    80 	entry_var_type		initial("000000000100000000000000000000001000"b),
  6    81 	bit_type			initial("000100000000000000000000000000000000"b),
  6    82 	char_type			initial("000010000000000000000000000000000000"b)) bit(36) aligned int static
  6    83 									options(constant);
  6    84
  6    85 /* END INCLUDE FILE ... system.incl.pl1 */
       87
       88      end /* constant_length */;
	SOURCE FILES USED IN THIS COMPILATION.

LINE      NUMBER  DATE MODIFIED     NAME			PATHNAME
             0    10/03/83  1007.1  constant_length.pl1               >spec>on>pl128d>constant_length.pl1
82           1    07/21/80  1546.3  nodes.incl.pl1                    >ldd>include>nodes.incl.pl1
83           2    04/07/83  1635.0  op_codes.incl.pl1                 >ldd>include>op_codes.incl.pl1
84           3    07/21/80  1546.3  operator.incl.pl1                 >ldd>include>operator.incl.pl1
85           4    07/21/80  1546.3  reference.incl.pl1                >ldd>include>reference.incl.pl1
86           5    10/02/83  0828.4  symbol.incl.pl1                   >spec>on>pl128d>symbol.incl.pl1
87           6    10/03/83  1004.4  system.incl.pl1                   >spec>on>pl128d>system.incl.pl1
	NAMES DECLARED IN THIS COMPILATION.

IDENTIFIER	     OFFSET    LOC STORAGE CLASS   DATA TYPE		ATTRIBUTES AND REFERENCES
								(* indicates a set context)

NAMES DECLARED BY DECLARE STATEMENT.
P_constant_value                       parameter       fixed bin(71,0)          dcl 18 ref 13 37 43
P_tree                                 parameter       pointer                  dcl 18 ref 13 33
attributes               31            based           structure                level 2 dcl 5-3
c_dcl_size               30            based           fixed bin(24,0)          level 2 dcl 5-3 ref 72
c_length                  2            based           fixed bin(24,0)          level 2 dcl 4-3 ref 37
constant                 32(16)        based           bit(1)                   level 4 packed unaligned dcl 5-3 ref 43
initial                  11            based           pointer                  level 2 packed unaligned dcl 5-3 ref 72 74
initial_value                   000110 automatic       fixed bin(71,0)          dcl 70 set ref 72* 74* 76
integer_1                              based           fixed bin(35,0)          dcl 65 ref 74
integer_2                              based           fixed bin(71,0)          dcl 66 ref 72
length                    6            based           pointer                  level 2 packed unaligned dcl 4-3 ref 35 43 43 43 43
                                                                                  43
max_p_fix_bin_1                        constant        fixed bin(31,0)          initial dcl 6-5 ref 72
node                                   based           structure                level 1 dcl 1-27
null                                                   builtin function         dcl 29 ref 35
op_code                   0(09)        based           bit(9)                   level 2 packed unaligned dcl 3-6 ref 43
operand                   1            based           pointer                  array level 2 packed unaligned dcl 3-6 ref 43 43 43
operator                               based           structure                level 1 dcl 3-6
operator_node                          constant        bit(9)                   initial dcl 1-5 ref 43
range_ck                               constant        bit(9)                   initial dcl 2-8 ref 43
reference                              based           structure                level 1 dcl 4-3
reference_node                         constant        bit(9)                   initial dcl 1-5 ref 43
storage_class            32(09)        based           structure                level 3 packed unaligned dcl 5-3
sym_ptr                                parameter       pointer                  dcl 61 ref 56 72 72 74
symbol                    3            based           pointer                  level 2 in structure "reference" packed unaligned
                                                                                  dcl 4-3 in procedure "constant_length" ref 43 43
symbol                                 based           structure                level 1 dcl 5-3 in procedure "constant_length"
tree                            000100 automatic       pointer                  dcl 25 set ref 33* 35 37 43 43 43 43 43
type                                   based           bit(9)                   level 2 packed unaligned dcl 1-27 ref 43 43

NAMES DECLARED BY DECLARE STATEMENT AND NEVER REFERENCED.
a_format                               internal static bit(9)                   initial dcl 2-8
abs_fun                                internal static bit(9)                   initial dcl 2-8
acos_fun                               internal static bit(9)                   initial dcl 2-8
acosd_fun                              internal static bit(9)                   initial dcl 2-8
add                                    internal static bit(9)                   initial dcl 2-8
addbitno_fun                           internal static bit(9)                   initial dcl 2-8
addcharno_fun                          internal static bit(9)                   initial dcl 2-8
addr_fun                               internal static bit(9)                   initial dcl 2-8
addr_fun_bits                          internal static bit(9)                   initial dcl 2-8
addrel_fun                             internal static bit(9)                   initial dcl 2-8
allocation_fun                         internal static bit(9)                   initial dcl 2-8
allot_auto                             internal static bit(9)                   initial dcl 2-8
allot_based                            internal static bit(9)                   initial dcl 2-8
allot_ctl                              internal static bit(9)                   initial dcl 2-8
allot_var                              internal static bit(9)                   initial dcl 2-8
and_bits                               internal static bit(9)                   initial dcl 2-8
arg_desc_type                          internal static bit(36)                  initial dcl 6-71
array_node                             internal static bit(9)                   initial dcl 1-5
asin_fun                               internal static bit(9)                   initial dcl 2-8
asind_fun                              internal static bit(9)                   initial dcl 2-8
assign                                 internal static bit(9)                   initial dcl 2-8
assign_by_name                         internal static bit(9)                   initial dcl 2-8
assign_round                           internal static bit(9)                   initial dcl 2-8
assign_size_ck                         internal static bit(9)                   initial dcl 2-8
assign_zero                            internal static bit(9)                   initial dcl 2-8
atan_fun                               internal static bit(9)                   initial dcl 2-8
atand_fun                              internal static bit(9)                   initial dcl 2-8
b_format                               internal static bit(9)                   initial dcl 2-8
baseno_fun                             internal static bit(9)                   initial dcl 2-8
baseptr_fun                            internal static bit(9)                   initial dcl 2-8
bit_pointer                            internal static bit(9)                   initial dcl 2-8
bit_to_char                            internal static bit(9)                   initial dcl 2-8
bit_to_word                            internal static bit(9)                   initial dcl 2-8
bit_type                               internal static bit(36)                  initial dcl 6-71
bitno_fun                              internal static bit(9)                   initial dcl 2-8
bits_per_binary_exponent               internal static fixed bin(31,0)          initial dcl 6-5
bits_per_character                     internal static fixed bin(31,0)          initial dcl 6-5
bits_per_decimal_digit                 internal static fixed bin(31,0)          initial dcl 6-5
bits_per_digit                         internal static fixed bin(31,1)          initial dcl 6-69
bits_per_double                        internal static fixed bin(31,0)          initial dcl 6-5
bits_per_half                          internal static fixed bin(31,0)          initial dcl 6-5
bits_per_packed_ptr                    internal static fixed bin(31,0)          initial dcl 6-5
bits_per_word                          internal static fixed bin(31,0)          initial dcl 6-5
block_node                             internal static bit(9)                   initial dcl 1-5
bn_format                              internal static bit(9)                   initial dcl 2-8
bool_fun                               internal static bit(9)                   initial dcl 2-8
bound_ck                               internal static bit(9)                   initial dcl 2-8
bound_node                             internal static bit(9)                   initial dcl 1-5
builtin_type                           internal static bit(36)                  initial dcl 6-71
by_name_agg_node                       internal static bit(9)                   initial dcl 1-5
byte_fun                               internal static bit(9)                   initial dcl 2-8
c_format                               internal static bit(9)                   initial dcl 2-8
cat_string                             internal static bit(9)                   initial dcl 2-8
ceil_fun                               internal static bit(9)                   initial dcl 2-8
char_to_word                           internal static bit(9)                   initial dcl 2-8
char_type                              internal static bit(36)                  initial dcl 6-71
characters_per_double                  internal static fixed bin(31,0)          initial dcl 6-5
characters_per_half                    internal static fixed bin(31,0)          initial dcl 6-5
characters_per_word                    internal static fixed bin(31,0)          initial dcl 6-5
charno_fun                             internal static bit(9)                   initial dcl 2-8
clock_fun                              internal static bit(9)                   initial dcl 2-8
close_file                             internal static bit(9)                   initial dcl 2-8
codeptr_fun                            internal static bit(9)                   initial dcl 2-8
column_format                          internal static bit(9)                   initial dcl 2-8
complex_fun                            internal static bit(9)                   initial dcl 2-8
complex_type                           internal static bit(36)                  initial dcl 6-71
conjg_fun                              internal static bit(9)                   initial dcl 2-8
context_node                           internal static bit(9)                   initial dcl 1-5
copy_string                            internal static bit(9)                   initial dcl 2-8
copy_words                             internal static bit(9)                   initial dcl 2-8
cos_fun                                internal static bit(9)                   initial dcl 2-8
cosd_fun                               internal static bit(9)                   initial dcl 2-8
cross_reference_node                   internal static bit(9)                   initial dcl 1-5
dec_integer_type                       internal static bit(36)                  initial dcl 6-71
default_area_size                      internal static fixed bin(31,0)          initial dcl 6-5
default_fix_bin_p                      internal static fixed bin(31,0)          initial dcl 6-5
default_fix_dec_p                      internal static fixed bin(31,0)          initial dcl 6-5
default_flt_bin_p                      internal static fixed bin(31,0)          initial dcl 6-5
default_flt_dec_p                      internal static fixed bin(31,0)          initial dcl 6-5
default_node                           internal static bit(9)                   initial dcl 1-5
delete_file                            internal static bit(9)                   initial dcl 2-8
desc_size                              internal static bit(9)                   initial dcl 2-8
digit_to_bit                           internal static bit(9)                   initial dcl 2-8
div                                    internal static bit(9)                   initial dcl 2-8
do_fun                                 internal static bit(9)                   initial dcl 2-8
do_spec                                internal static bit(9)                   initial dcl 2-8
e_format                               internal static bit(9)                   initial dcl 2-8
empty_area                             internal static bit(9)                   initial dcl 2-8
enable_on                              internal static bit(9)                   initial dcl 2-8
entry_var_type                         internal static bit(36)                  initial dcl 6-71
environmentptr_fun                     internal static bit(9)                   initial dcl 2-8
equal                                  internal static bit(9)                   initial dcl 2-8
ex_prologue                            internal static bit(9)                   initial dcl 2-8
exp                                    internal static bit(9)                   initial dcl 2-8
exp_fun                                internal static bit(9)                   initial dcl 2-8
f_format                               internal static bit(9)                   initial dcl 2-8
floor_fun                              internal static bit(9)                   initial dcl 2-8
format_value_node                      internal static bit(9)                   initial dcl 1-5
fortran_read                           internal static bit(9)                   initial dcl 2-8
fortran_write                          internal static bit(9)                   initial dcl 2-8
free_based                             internal static bit(9)                   initial dcl 2-8
free_ctl                               internal static bit(9)                   initial dcl 2-8
free_var                               internal static bit(9)                   initial dcl 2-8
ftn_file_manip                         internal static bit(9)                   initial dcl 2-8
ftn_trans_loop                         internal static bit(9)                   initial dcl 2-8
get_data_trans                         internal static bit(9)                   initial dcl 2-8
get_edit_trans                         internal static bit(9)                   initial dcl 2-8
get_file                               internal static bit(9)                   initial dcl 2-8
get_list_trans                         internal static bit(9)                   initial dcl 2-8
get_string                             internal static bit(9)                   initial dcl 2-8
greater_or_equal                       internal static bit(9)                   initial dcl 2-8
greater_than                           internal static bit(9)                   initial dcl 2-8
half_to_word                           internal static bit(9)                   initial dcl 2-8
imag_fun                               internal static bit(9)                   initial dcl 2-8
index_after_fun                        internal static bit(9)                   initial dcl 2-8
index_before_fun                       internal static bit(9)                   initial dcl 2-8
index_fun                              internal static bit(9)                   initial dcl 2-8
index_rev_fun                          internal static bit(9)                   initial dcl 2-8
integer_type                           internal static bit(36)                  initial dcl 6-71
join                                   internal static bit(9)                   initial dcl 2-8
jump                                   internal static bit(9)                   initial dcl 2-8
jump_false                             internal static bit(9)                   initial dcl 2-8
jump_if_eq                             internal static bit(9)                   initial dcl 2-8
jump_if_ge                             internal static bit(9)                   initial dcl 2-8
jump_if_gt                             internal static bit(9)                   initial dcl 2-8
jump_if_le                             internal static bit(9)                   initial dcl 2-8
jump_if_lt                             internal static bit(9)                   initial dcl 2-8
jump_if_ne                             internal static bit(9)                   initial dcl 2-8
jump_true                              internal static bit(9)                   initial dcl 2-8
l_parn                                 internal static bit(9)                   initial dcl 2-8
label_array_element_node               internal static bit(9)                   initial dcl 1-5
label_node                             internal static bit(9)                   initial dcl 1-5
length_fun                             internal static bit(9)                   initial dcl 2-8
less_or_equal                          internal static bit(9)                   initial dcl 2-8
less_than                              internal static bit(9)                   initial dcl 2-8
line_format                            internal static bit(9)                   initial dcl 2-8
list_node                              internal static bit(9)                   initial dcl 1-5
local_label_var_type                   internal static bit(36)                  initial dcl 6-71
locate_file                            internal static bit(9)                   initial dcl 2-8
lock_file                              internal static bit(9)                   initial dcl 2-8
lock_fun                               internal static bit(9)                   initial dcl 2-8
log10_fun                              internal static bit(9)                   initial dcl 2-8
log2_fun                               internal static bit(9)                   initial dcl 2-8
log_fun                                internal static bit(9)                   initial dcl 2-8
loop                                   internal static bit(9)                   initial dcl 2-8
machine_state_node                     internal static bit(9)                   initial dcl 1-5
make_desc                              internal static bit(9)                   initial dcl 2-8
max_area_size                          internal static fixed bin(31,0)          initial dcl 6-5
max_bit_string                         internal static fixed bin(31,0)          initial dcl 6-5
max_bit_string_constant                internal static fixed bin(31,0)          initial dcl 6-5
max_char_string                        internal static fixed bin(31,0)          initial dcl 6-5
max_char_string_constant               internal static fixed bin(31,0)          initial dcl 6-5
max_fun                                internal static bit(9)                   initial dcl 2-8
max_identifier_length                  internal static fixed bin(31,0)          initial dcl 6-5
max_index_register_value               internal static fixed bin(31,0)          initial dcl 6-5
max_length_precision                   internal static fixed bin(31,0)          initial dcl 6-5
max_number_of_dimensions               internal static fixed bin(31,0)          initial dcl 6-5
max_number_of_operands                 internal static fixed bin(15,0)          initial dcl 3-15
max_offset_precision                   internal static fixed bin(31,0)          initial dcl 6-5
max_p_bin_or_dec                       internal static fixed bin(31,0)          initial dcl 6-5
max_p_dec                              internal static fixed bin(31,0)          initial dcl 6-5
max_p_fix_bin_2                        internal static fixed bin(31,0)          initial dcl 6-5
max_p_flt_bin_1                        internal static fixed bin(31,0)          initial dcl 6-5
max_p_flt_bin_2                        internal static fixed bin(31,0)          initial dcl 6-5
max_scale                              internal static fixed bin(31,0)          initial dcl 6-5
max_signed_index_register_value        internal static fixed bin(31,0)          initial dcl 6-5
max_signed_xreg_precision              internal static fixed bin(31,0)          initial dcl 6-5
max_uns_xreg_precision                 internal static fixed bin(31,0)          initial dcl 6-5
max_words_per_variable                 internal static fixed bin(31,0)          initial dcl 6-5
min_area_size                          internal static fixed bin(31,0)          initial dcl 6-5
min_fun                                internal static bit(9)                   initial dcl 2-8
min_scale                              internal static fixed bin(31,0)          initial dcl 6-5
mod_bit                                internal static bit(9)                   initial dcl 2-8
mod_byte                               internal static bit(9)                   initial dcl 2-8
mod_fun                                internal static bit(9)                   initial dcl 2-8
mod_half                               internal static bit(9)                   initial dcl 2-8
mod_word                               internal static bit(9)                   initial dcl 2-8
mult                                   internal static bit(9)                   initial dcl 2-8
negate                                 internal static bit(9)                   initial dcl 2-8
nop                                    internal static bit(9)                   initial dcl 2-8
not_bits                               internal static bit(9)                   initial dcl 2-8
not_equal                              internal static bit(9)                   initial dcl 2-8
off_fun                                internal static bit(9)                   initial dcl 2-8
open_file                              internal static bit(9)                   initial dcl 2-8
or_bits                                internal static bit(9)                   initial dcl 2-8
pack                                   internal static bit(9)                   initial dcl 2-8
packed_digits_per_character            internal static fixed bin(31,0)          initial dcl 6-5
page_format                            internal static bit(9)                   initial dcl 2-8
param_desc_ptr                         internal static bit(9)                   initial dcl 2-8
param_ptr                              internal static bit(9)                   initial dcl 2-8
picture_format                         internal static bit(9)                   initial dcl 2-8
pl1_mod_fun                            internal static bit(9)                   initial dcl 2-8
pointer_type                           internal static bit(36)                  initial dcl 6-71
prefix_plus                            internal static bit(9)                   initial dcl 2-8
ptr_fun                                internal static bit(9)                   initial dcl 2-8
put_control                            internal static bit(9)                   initial dcl 2-8
put_data_trans                         internal static bit(9)                   initial dcl 2-8
put_edit_trans                         internal static bit(9)                   initial dcl 2-8
put_field                              internal static bit(9)                   initial dcl 2-8
put_field_chk                          internal static bit(9)                   initial dcl 2-8
put_file                               internal static bit(9)                   initial dcl 2-8
put_list_trans                         internal static bit(9)                   initial dcl 2-8
put_string                             internal static bit(9)                   initial dcl 2-8
r_format                               internal static bit(9)                   initial dcl 2-8
r_parn                                 internal static bit(9)                   initial dcl 2-8
rank_fun                               internal static bit(9)                   initial dcl 2-8
read_file                              internal static bit(9)                   initial dcl 2-8
real_fun                               internal static bit(9)                   initial dcl 2-8
real_type                              internal static bit(36)                  initial dcl 6-71
record_io                              internal static bit(9)                   initial dcl 2-8
refer                                  internal static bit(9)                   initial dcl 2-8
rel_fun                                internal static bit(9)                   initial dcl 2-8
repeat_fun                             internal static bit(9)                   initial dcl 2-8
return_bits                            internal static bit(9)                   initial dcl 2-8
return_string                          internal static bit(9)                   initial dcl 2-8
return_value                           internal static bit(9)                   initial dcl 2-8
return_words                           internal static bit(9)                   initial dcl 2-8
reverse_fun                            internal static bit(9)                   initial dcl 2-8
revert_on                              internal static bit(9)                   initial dcl 2-8
rewrite_file                           internal static bit(9)                   initial dcl 2-8
round_fun                              internal static bit(9)                   initial dcl 2-8
search_fun                             internal static bit(9)                   initial dcl 2-8
search_rev_fun                         internal static bit(9)                   initial dcl 2-8
segno_fun                              internal static bit(9)                   initial dcl 2-8
setbitno_fun                           internal static bit(9)                   initial dcl 2-8
setcharno_fun                          internal static bit(9)                   initial dcl 2-8
sf_par_node                            internal static bit(9)                   initial dcl 1-5
sign_fun                               internal static bit(9)                   initial dcl 2-8
signal_on                              internal static bit(9)                   initial dcl 2-8
sin_fun                                internal static bit(9)                   initial dcl 2-8
sind_fun                               internal static bit(9)                   initial dcl 2-8
skip_format                            internal static bit(9)                   initial dcl 2-8
source_node                            internal static bit(9)                   initial dcl 1-5
sqrt_fun                               internal static bit(9)                   initial dcl 2-8
stack_ptr                              internal static bit(9)                   initial dcl 2-8
stackbaseptr_fun                       internal static bit(9)                   initial dcl 2-8
stackframeptr_fun                      internal static bit(9)                   initial dcl 2-8
stacq_fun                              internal static bit(9)                   initial dcl 2-8
statement_node                         internal static bit(9)                   initial dcl 1-5
std_arg_list                           internal static bit(9)                   initial dcl 2-8
std_call                               internal static bit(9)                   initial dcl 2-8
std_entry                              internal static bit(9)                   initial dcl 2-8
std_return                             internal static bit(9)                   initial dcl 2-8
stop                                   internal static bit(9)                   initial dcl 2-8
storage_block_type                     internal static bit(36)                  initial dcl 6-71
stream_prep                            internal static bit(9)                   initial dcl 2-8
sub                                    internal static bit(9)                   initial dcl 2-8
symbol_node                            internal static bit(9)                   initial dcl 1-5
tan_fun                                internal static bit(9)                   initial dcl 2-8
tand_fun                               internal static bit(9)                   initial dcl 2-8
temporary_node                         internal static bit(9)                   initial dcl 1-5
terminate_trans                        internal static bit(9)                   initial dcl 2-8
token_node                             internal static bit(9)                   initial dcl 1-5
translate_fun                          internal static bit(9)                   initial dcl 2-8
trunc_fun                              internal static bit(9)                   initial dcl 2-8
unlock_file                            internal static bit(9)                   initial dcl 2-8
unpack                                 internal static bit(9)                   initial dcl 2-8
vclock_fun                             internal static bit(9)                   initial dcl 2-8
verify_fun                             internal static bit(9)                   initial dcl 2-8
verify_ltrim_fun                       internal static bit(9)                   initial dcl 2-8
verify_rev_fun                         internal static bit(9)                   initial dcl 2-8
verify_rtrim_fun                       internal static bit(9)                   initial dcl 2-8
word_to_mod2                           internal static bit(9)                   initial dcl 2-8
word_to_mod4                           internal static bit(9)                   initial dcl 2-8
word_to_mod8                           internal static bit(9)                   initial dcl 2-8
wordno_fun                             internal static bit(9)                   initial dcl 2-8
words_per_condition_var                internal static fixed bin(31,0)          initial dcl 6-5
words_per_entry_var                    internal static fixed bin(31,0)          initial dcl 6-5
words_per_file_var                     internal static fixed bin(31,0)          initial dcl 6-5
words_per_fix_bin_1                    internal static fixed bin(31,0)          initial dcl 6-5
words_per_fix_bin_2                    internal static fixed bin(31,0)          initial dcl 6-5
words_per_flt_bin_1                    internal static fixed bin(31,0)          initial dcl 6-5
words_per_flt_bin_2                    internal static fixed bin(31,0)          initial dcl 6-5
words_per_format                       internal static fixed bin(31,0)          initial dcl 6-5
words_per_label_var                    internal static fixed bin(31,0)          initial dcl 6-5
words_per_offset                       internal static fixed bin(31,0)          initial dcl 6-5
words_per_packed_pointer               internal static fixed bin(31,0)          initial dcl 6-5
words_per_pointer                      internal static fixed bin(31,0)          initial dcl 6-5
words_per_varying_string_header        internal static fixed bin(31,0)          initial dcl 6-5
write_file                             internal static bit(9)                   initial dcl 2-8
x_format                               internal static bit(9)                   initial dcl 2-8
xor_bits                               internal static bit(9)                   initial dcl 2-8

NAMES DECLARED BY EXPLICIT CONTEXT.
constant_length                 000012 constant        entry                    external dcl 13
constant_value                  000103 constant        entry                    internal dcl 56 ref 43

THERE WERE NO NAMES DECLARED BY CONTEXT OR IMPLICATION.

STORAGE REQUIREMENTS FOR THIS PROGRAM.

	Object	Text	Link	Symbol	Defs	Static
Start          0       0       160         170     133         170
Length       442     133        10         235      25           0

BLOCK NAME	         STACK SIZE     TYPE		WHY NONQUICK/WHO SHARES STACK FRAME
constant_length                      78 external procedure  is an external procedure.
constant_value                          internal procedure  shares stack frame of external procedure constant_length.

STORAGE FOR AUTOMATIC VARIABLES.

STACK FRAME                 LOC IDENTIFIER                  BLOCK NAME
constant_length          000100 tree                        constant_length
                         000110 initial_value               constant_value

THE FOLLOWING EXTERNAL OPERATORS ARE USED BY THIS PROGRAM.
return              ext_entry

NO EXTERNAL ENTRIES ARE CALLED BY THIS PROGRAM.

NO EXTERNAL VARIABLES ARE USED BY THIS PROGRAM.


   LINE    LOC      LINE    LOC      LINE    LOC      LINE    LOC      LINE    LOC      LINE    LOC      LINE    LOC
     13 000006        33 000017        35 000023        37 000026        40 000034        43 000037        50 000076
     52 000101        56 000103        72 000105        74 000116        76 000122


                                          -----------------------------------------------------------


Historical Background

This edition of the Multics software materials and documentation is provided and donated
to Massachusetts Institute of Technology by Group BULL including BULL HN Information Systems Inc.
as a contribution to computer science knowledge.
This donation is made also to give evidence of the common contributions of Massachusetts Institute of Technology,
Bell Laboratories, General Electric, Honeywell Information Systems Inc., Honeywell BULL Inc., Groupe BULL
and BULL HN Information Systems Inc. to the development of this operating system.
Multics development was initiated by Massachusetts Institute of Technology Project MAC (1963-1970),
renamed the MIT Laboratory for Computer Science and Artificial Intelligence in the mid 1970s, under the leadership
of Professor Fernando Jose Corbato. Users consider that Multics provided the best software architecture
for managing computer hardware properly and for executing programs. Many subsequent operating systems
incorporated Multics principles.
Multics was distributed in 1975 to 2000 by Group Bull in Europe , and in the U.S. by Bull HN Information Systems Inc.,
as successor in interest by change in name only to Honeywell Bull Inc. and Honeywell Information Systems Inc. .

                                          -----------------------------------------------------------

Permission to use, copy, modify, and distribute these programs and their documentation for any purpose and without
fee is hereby granted,provided that the below copyright notice and historical background appear in all copies
and that both the copyright notice and historical background and this permission notice appear in supporting
documentation, and that the names of MIT, HIS, BULL or BULL HN not be used in advertising or publicity pertaining
to distribution of the programs without specific prior written permission.
    Copyright 1972 by Massachusetts Institute of Technology and Honeywell Information Systems Inc.
    Copyright 2006 by BULL HN Information Systems Inc.
    Copyright 2006 by Bull SAS
    All Rights Reserved
