	COMPILATION LISTING OF SEGMENT copy_unique_expression
	Compiled by: Multics PL/I Compiler, Release 32c, of June 16, 1989
	Compiled at: Bull HN, Phoenix AZ, System-M
	Compiled on: 07/31/89  1405.5 mst Mon
	    Options: optimize map

        1 /* ***********************************************************
        2*   *                                                         *
        3*   * Copyright, (C) Honeywell Information Systems Inc., 1982 *
        4*   *                                                         *
        5*   * Copyright (c) 1972 by Massachusetts Institute of        *
        6*   * Technology and Honeywell Information Systems, Inc.      *
        7*   *                                                         *
        8*   *********************************************************** */
        9
       10
       11 copy_unique_expression:   proc(qp) returns(ptr);
       12
       13 dcl	(arg,p,q,qp)	ptr;
       14 dcl	(i,n)		fixed bin(15);
       15 dcl	null		builtin;
       16
  1     1 /* BEGIN INCLUDE FILE ... nodes.incl.pl1 */
  1     2
  1     3 /* Modified: 26 Dec 1979 by PCK to implement by name assignment */
  1     4
  1     5 dcl (	block_node		initial("000000001"b),
  1     6 	statement_node		initial("000000010"b),
  1     7 	operator_node		initial("000000011"b),
  1     8 	reference_node		initial("000000100"b),
  1     9 	token_node		initial("000000101"b),
  1    10 	symbol_node		initial("000000110"b),
  1    11 	context_node		initial("000000111"b),
  1    12 	array_node		initial("000001000"b),
  1    13 	bound_node		initial("000001001"b),
  1    14 	format_value_node		initial("000001010"b),
  1    15 	list_node			initial("000001011"b),
  1    16 	default_node		initial("000001100"b),
  1    17 	machine_state_node		initial("000001101"b),
  1    18 	source_node		initial("000001110"b),
  1    19 	label_node		initial("000001111"b),
  1    20 	cross_reference_node	initial("000010000"b),
  1    21 	sf_par_node		initial("000010001"b),
  1    22 	temporary_node		initial("000010010"b),
  1    23 	label_array_element_node	initial("000010011"b),
  1    24 	by_name_agg_node		initial("000010100"b))
  1    25 				bit(9) internal static aligned options(constant);
  1    26
  1    27 dcl	1 node			based aligned,
  1    28 	2 type			unal bit(9),
  1    29 	2 source_id		unal structure,
  1    30 	  3 file_number		bit(8),
  1    31 	  3 line_number		bit(14),
  1    32 	  3 statement_number	bit(5);
  1    33
  1    34 /* END INCLUDE FILE ... nodes.incl.pl1 */
       17
  2     1 /* BEGIN INCLUDE FILE ... reference.incl.pl1 */
  2     2
  2     3 dcl	1 reference		based aligned,
  2     4 	2 node_type		bit(9) unaligned,
  2     5 	2 array_ref		bit(1) unaligned,
  2     6 	2 varying_ref		bit(1) unaligned,
  2     7 	2 shared			bit(1) unaligned,
  2     8 	2 put_data_sw		bit(1) unaligned,
  2     9 	2 processed		bit(1) unaligned,
  2    10 	2 units			fixed(3) unaligned,
  2    11 	2 ref_count		fixed(17) unaligned,
  2    12 	2 c_offset		fixed(24),
  2    13 	2 c_length		fixed(24),
  2    14 	2 symbol			ptr unaligned,
  2    15 	2 qualifier		ptr unaligned,
  2    16 	2 offset			ptr unaligned,
  2    17 	2 length			ptr unaligned,
  2    18 	2 subscript_list		ptr unaligned,
  2    19 						/* these fields are used by the 645 code generator */
  2    20 	2 address			structure unaligned,
  2    21 	  3 base			bit(3),
  2    22 	  3 offset		bit(15),
  2    23 	  3 op			bit(9),
  2    24 	  3 no_address		bit(1),
  2    25 	  3 inhibit		bit(1),
  2    26 	  3 ext_base		bit(1),
  2    27 	  3 tag			bit(6),
  2    28 	2 info			structure unaligned,
  2    29 	  3 address_in		structure,
  2    30 	    4 b			dimension(0:7) bit(1),
  2    31 	    4 storage		bit(1),
  2    32 	  3 value_in		structure,
  2    33 	    4 a			bit(1),
  2    34 	    4 q			bit(1),
  2    35 	    4 aq			bit(1),
  2    36 	    4 string_aq		bit(1),
  2    37 	    4 complex_aq		bit(1),
  2    38 	    4 decimal_aq		bit(1),
  2    39 	    4 b			dimension(0:7) bit(1),
  2    40 	    4 storage		bit(1),
  2    41 	    4 indicators		bit(1),
  2    42 	    4 x			dimension(0:7) bit(1),
  2    43 	  3 other			structure,
  2    44 	    4 big_offset		bit(1),
  2    45 	    4 big_length		bit(1),
  2    46 	    4 modword_in_offset	bit(1),
  2    47 	2 data_type		fixed(5) unaligned,
  2    48 	2 bits			structure unaligned,
  2    49 	  3 padded_ref		bit(1),
  2    50 	  3 aligned_ref		bit(1),
  2    51 	  3 long_ref		bit(1),
  2    52 	  3 forward_ref		bit(1),
  2    53 	  3 ic_ref		bit(1),
  2    54 	  3 temp_ref		bit(1),
  2    55 	  3 defined_ref		bit(1),
  2    56 	  3 evaluated		bit(1),
  2    57 	  3 allocate		bit(1),
  2    58 	  3 allocated		bit(1),
  2    59 	  3 aliasable		bit(1),
  2    60 	  3 even			bit(1),
  2    61 	  3 perm_address		bit(1),
  2    62 	  3 aggregate		bit(1),
  2    63 	  3 hit_zero		bit(1),
  2    64 	  3 dont_save		bit(1),
  2    65 	  3 fo_in_qual		bit(1),
  2    66 	  3 hard_to_load		bit(1),
  2    67 	2 relocation		bit(12) unaligned,
  2    68 	2 more_bits		structure unaligned,
  2    69 	  3 substr		bit(1),
  2    70 	  3 padded_for_store_ref	bit(1),
  2    71 	  3 aligned_for_store_ref	bit(1),
  2    72 	  3 mbz			bit(15),
  2    73 	2 store_ins		bit(18) unaligned;
  2    74
  2    75 /* END INCLUDE FILE ... reference.incl.pl1 */
       18
  3     1 /* BEGIN INCLUDE FILE ... operator.incl.pl1 */
  3     2
  3     3 /*	Modified: 2 Apr 1980 by PCK to add max_number_of_operands */
  3     4
  3     5 /* format: style3 */
  3     6 dcl	1 operator	based aligned,
  3     7 	  2 node_type	bit (9) unaligned,
  3     8 	  2 op_code	bit (9) unaligned,
  3     9 	  2 shared	bit (1) unaligned,
  3    10 	  2 processed	bit (1) unaligned,
  3    11 	  2 optimized	bit (1) unaligned,
  3    12 	  2 number	fixed (14) unaligned,
  3    13 	  2 operand	dimension (n refer (operator.number)) ptr unaligned;
  3    14
  3    15 dcl	max_number_of_operands
  3    16 			fixed bin (15) int static options (constant) initial (32767);
  3    17
  3    18 /* END INCLUDE FILE ... operator.incl.pl1 */
       19
  4     1 /* BEGIN INCLUDE FILE ... list.incl.pl1 */
  4     2
  4     3 /* Modified 26 June 81 by EBush to add max_list_elements */
  4     4
  4     5
  4     6 dcl	1 list		based aligned,
  4     7 	2 node_type	bit(9) unaligned,
  4     8 	2 reserved	bit(12) unaligned,
  4     9 	2 number		fixed(14) unaligned,
  4    10 	2 element		dimension(n refer(list.number)) ptr unaligned;
  4    11
  4    12 dcl       max_list_elements   fixed bin(17) internal static options (constant)
  4    13 	                    init(16383);
  4    14
  4    15 /* END INCLUDE FILE ... list.incl.pl1 */
       20
  5     1 /****^  *********************************************************
  5     2*        *                                                       *
  5     3*        * Copyright, (C) BULL HN Information Systems Inc., 1989 *
  5     4*        *                                                       *
  5     5*        ********************************************************* */
  5     6
  5     7 /* BEGIN INCLUDE FILE ... language_utility.incl.pl1 */
  5     8
  5     9
  5    10 /****^  HISTORY COMMENTS:
  5    11*  1) change(89-07-10,RWaters), approve(89-07-10,MCR8118), audit(89-07-19,Vu),
  5    12*     install(89-07-31,MR12.3-1066):
  5    13*     Removed the obsolete parameter source_line from the dcl of error_().
  5    14*                                                   END HISTORY COMMENTS */
  5    15
  5    16 /* Modified: 6 Jun 1979 by PG to add rank and byte
  5    17* * Modified: 9 Jul 1989 by RW updated the declaration of error_
  5    18* */
  5    19
  5    20 declare	adjust_count	entry(pointer);
  5    21 			/* parameter 1:	(input)	any node pointer		*/
  5    22
  5    23 declare	bindec		entry(fixed bin(31)) reducible
  5    24 			returns(character(12) aligned);
  5    25 			/* parameter 1:	(input)	bin value			*/
  5    26 			/* return:	(output)	character value with blanks	*/
  5    27
  5    28 declare	bindec$vs		entry(fixed bin(31)) reducible
  5    29 			returns(character(12) aligned varying);
  5    30 			/* parameter 1:	(input)	binary value		*/
  5    31 			/* return:	(output)	char value without blanks	*/
  5    32
  5    33 declare	binoct		entry(fixed bin(31)) reducible
  5    34 			returns(char(12) aligned);
  5    35 			/* parameter 1:	(input)	binary value		*/
  5    36 			/* return:	(output)	char value with blanks	*/
  5    37
  5    38 declare	binary_to_octal_string	entry(fixed bin(31)) reducible
  5    39 			returns(char(12) aligned);
  5    40 			/* parameter 1:	(input)	binary value		*/
  5    41 			/* return:	(output)	right-aligned char value	*/
  5    42
  5    43 declare	binary_to_octal_var_string	entry(fixed bin(31)) reducible
  5    44 			returns(char(12) varying aligned);
  5    45 			/* parameter 1:	(input)	binary value		*/
  5    46 			/* returns:	(output)	char value without blanks	*/
  5    47
  5    48 declare	compare_expression	entry(pointer,pointer) reducible
  5    49 			returns(bit(1) aligned);
  5    50 			/* parameter 1:	(input)	any node pointer		*/
  5    51 			/* parameter 2:	(input)	any node pointer		*/
  5    52 			/* return:	(output)	compare bit		*/
  5    53
  5    54 declare	constant_length	entry (pointer, fixed bin (71))
  5    55 			returns (bit (1) aligned);
  5    56 			/* parameter 1:	(input)	reference node pointer	*/
  5    57 			/* parameter 2:	(input)	value of constant length	*/
  5    58 			/* return:	(output)	"1"b if constant length	*/
  5    59
  5    60 declare	convert		entry(pointer,bit(36) aligned)
  5    61 			returns(pointer);
  5    62 			/* parameter 1:	(input)	any node pointer		*/
  5    63 			/* parameter 2:	(input)	target type		*/
  5    64 			/* return:	(output)	target value tree pointer	*/
  5    65
  5    66 declare	convert$to_integer	entry(pointer,bit(36)aligned)
  5    67 			returns(pointer);
  5    68 			/* parameter 1:	(input)	any node pointer		*/
  5    69 			/* parameter 2:	(input)	target type		*/
  5    70 			/* return:	(output)	target value tree pointer	*/
  5    71
  5    72 declare	convert$from_builtin entry(pointer,bit(36) aligned)
  5    73 			returns(pointer);
  5    74 			/* parameter 1:	(input)	any node pointer		*/
  5    75 			/* parameter 2:	(input)	target type		*/
  5    76 			/* return:	(output)	target value tree pointer	*/
  5    77
  5    78 declare	convert$validate	entry(pointer,pointer);
  5    79 			/* parameter 1:	(input)	source value tree pointer	*/
  5    80 			/* parameter 2:	(input)	target reference node pointer	*/
  5    81
  5    82 declare	convert$to_target_fb entry(pointer,pointer)
  5    83 			returns(pointer);
  5    84 			/* parameter 1:	(input)	source value tree pointer	*/
  5    85 			/* parameter 2:	(input)	target reference node pointer	*/
  5    86 			/* return:	(output)	target value tree pointer	*/
  5    87
  5    88 declare	convert$to_target	entry(pointer,pointer)
  5    89 			returns(pointer);
  5    90 			/* parameter 1:	(input)	source value tree pointer	*/
  5    91 			/* parameter 2:	(input)	target reference node pointer	*/
  5    92 			/* return:	(output)	target value tree pointer	*/
  5    93
  5    94 declare	copy_expression	entry(pointer unaligned)
  5    95 			returns(pointer);
  5    96 			/* parameter 1:	(input)	any node pointer		*/
  5    97 			/* return:	(output)	any node pointer		*/
  5    98
  5    99 declare	copy_expression$copy_sons entry(pointer,pointer);
  5   100 			/* parameter 1:	(input)	father symbol node pointer	*/
  5   101 			/* parameter 2:	(input)	stepfather symbol node ptr	*/
  5   102
  5   103 declare	copy_unique_expression entry(pointer)
  5   104 			returns(pointer);
  5   105 			/* parameter 1:	(input)	any node pointer		*/
  5   106 			/* return:	(output)	any node pointer		*/
  5   107
  5   108 declare	create_array	entry()
  5   109 			returns(pointer);
  5   110 			/* return:	(output)	array node pointer		*/
  5   111
  5   112 declare	create_block	entry(bit(9) aligned,pointer)
  5   113 			returns(pointer);
  5   114 			/* parameter 1:	(input)	block type		*/
  5   115 			/* parameter 2:	(input)	father block node pointer	*/
  5   116 			/* return:	(output)	block node pointer		*/
  5   117
  5   118 declare	create_bound	entry()
  5   119 			returns(pointer);
  5   120 			/* return:	(output)	bound node pointer		*/
  5   121
  5   122 declare	create_context	entry(pointer,pointer)
  5   123 			returns(pointer);
  5   124 			/* parameter 1:	(input)	block node pointer		*/
  5   125 			/* parameter 2:	(input)	token pointer		*/
  5   126 			/* return:	(output)	context node pointer	*/
  5   127
  5   128 declare	create_cross_reference entry()
  5   129 			returns(pointer);
  5   130 			/* return:	(output)	cross reference node pointer	*/
  5   131
  5   132 declare	create_default	entry
  5   133 			returns(pointer);
  5   134 			/* return:	(output)	default node pointer	*/
  5   135
  5   136 declare	create_identifier	entry()
  5   137 			returns(pointer);
  5   138 			/* return:	(output)	token node pointer		*/
  5   139
  5   140 declare	create_label	entry(pointer,pointer,bit(3) aligned)
  5   141 			returns(pointer);
  5   142 			/* parameter 1:	(input)	block node pointer		*/
  5   143 			/* parameter 2:	(input)	token node pointer		*/
  5   144 			/* parameter 3:	(input)	declare type		*/
  5   145 			/* return:	(output)	label node pointer		*/
  5   146
  5   147 declare	create_list	entry(fixed bin(15))
  5   148 			returns(pointer);
  5   149 			/* parameter 1:	(input)	number of list elements	*/
  5   150 			/* return:	(output)	list node pointer		*/
  5   151
  5   152 declare	create_operator	entry(bit(9) aligned,fixed bin(15))
  5   153 			returns(pointer);
  5   154 			/* parameter 1:	(input)	operator type		*/
  5   155 			/* parameter 2:	(input)	number of operands		*/
  5   156 			/* return:	(output)	operator node pointer	*/
  5   157
  5   158 declare	create_reference	entry(pointer)
  5   159 			returns(pointer);
  5   160 			/* parameter 1:	(input)	symbol node pointer		*/
  5   161 			/* return:	(output)	reference node pointer	*/
  5   162
  5   163 declare	create_statement	entry(bit(9) aligned,pointer,pointer,bit(12) aligned)
  5   164 			returns(pointer);
  5   165 			/* parameter 1:	(input)	statement type		*/
  5   166 			/* parameter 2:	(input)	block node pointer		*/
  5   167 			/* parameter 3:	(input)	label node pointer		*/
  5   168 			/* parameter 4:	(input)	conditions		*/
  5   169 			/* return:	(output)	statement node pointer	*/
  5   170
  5   171 declare	create_statement$prologue entry(bit(9) aligned,pointer,pointer,bit(12) aligned)
  5   172 			returns(pointer);
  5   173 			/* parameter 1:	(input)	statement type		*/
  5   174 			/* parameter 2:	(input)	block node pointer		*/
  5   175 			/* parameter 3:	(input)	label node pointer		*/
  5   176 			/* parameter 4:	(input)	conditions		*/
  5   177 			/* return:	(output)	statement node pointer	*/
  5   178
  5   179 declare	create_storage	entry(fixed bin(15))
  5   180 			returns(pointer);
  5   181 			/* parameter 1:	(input)	number of words		*/
  5   182 			/* return:	(output)	storage block pointer	*/
  5   183
  5   184 declare	create_symbol	entry(pointer,pointer,bit(3) aligned)
  5   185 			returns(pointer);
  5   186 			/* parameter 1:	(input)	block node pointer		*/
  5   187 			/* parameter 2:	(input)	token node pointer		*/
  5   188 			/* parameter 3:	(input)	declare type		*/
  5   189 			/* return:	(output)	symbol node pointer		*/
  5   190
  5   191 declare	create_token	entry (character (*), bit (9) aligned)
  5   192 			returns (ptr);
  5   193 			/* parameter 1:	(input)	token string		*/
  5   194 			/* parameter 2:	(input)	token type		*/
  5   195 			/* return:	(output)	token node ptr		*/
  5   196
  5   197 declare	create_token$init_hash_table entry ();
  5   198
  5   199 declare	create_token$protected entry (char (*), bit (9) aligned, bit (18) aligned)
  5   200 			returns (ptr);
  5   201 			/* parameter 1:	(input)	token string		*/
  5   202 			/* parameter 2:	(input)	token type		*/
  5   203 			/* parameter 3:	(input)	protected flag		*/
  5   204 			/* return:	(output)	token node ptr		*/
  5   205
  5   206 declare	decbin		entry(character(*) aligned) reducible
  5   207 			returns(fixed bin(31));
  5   208 			/* parameter 1:	(input)	decimal character string	*/
  5   209 			/* return:	(output)	binary value		*/
  5   210
  5   211 declare	declare_constant	entry(bit(*) aligned,bit(36) aligned,fixed bin(31),fixed bin(15))
  5   212 			returns(pointer);
  5   213 			/* parameter 1:	(input)	value			*/
  5   214 			/* parameter 2:	(input)	type			*/
  5   215 			/* parameter 3:	(input)	size			*/
  5   216 			/* parameter 4:	(input)	scale			*/
  5   217 			/* return:	(output)	reference node pointer	*/
  5   218
  5   219 declare	declare_constant$bit entry(bit(*) aligned)
  5   220 			returns(pointer);
  5   221 			/* parameter 1:	(input)	bit			*/
  5   222 			/* return:	(output)	reference node pointer	*/
  5   223
  5   224 declare	declare_constant$char entry(character(*) aligned)
  5   225 			returns(pointer);
  5   226 			/* parameter 1:	(input)	character			*/
  5   227 			/* return:	(output)	reference node pointer	*/
  5   228
  5   229 declare	declare_constant$desc entry(bit(*) aligned)
  5   230 			returns(pointer);
  5   231 			/* parameter 1:	(input)	descriptor bit value	*/
  5   232 			/* return:	(output)	reference node pointer	*/
  5   233
  5   234 declare	declare_constant$integer entry(fixed bin(31))	/* note...should really be fixed bin(24) */
  5   235 			returns(pointer);
  5   236 			/* parameter 1:	(input)	integer			*/
  5   237 			/* return:	(output)	reference node pointer	*/
  5   238
  5   239 declare	declare_descriptor	entry(pointer,pointer,pointer,pointer,bit(2) aligned)
  5   240 			returns(pointer);
  5   241 			/* parameter 1:	(input)	block node pointer		*/
  5   242 			/* parameter 2:	(input)	statement node pointer	*/
  5   243 			/* parameter 3:	(input)	symbol node pointer		*/
  5   244 			/* parameter 4:	(input)	loc pointer		*/
  5   245 			/* parameter 5:	(input)	array descriptor bit
  5   246*						cross_section bit	*/
  5   247 			/* return:	(output)	reference node pointer	*/
  5   248
  5   249 declare	declare_descriptor$ctl entry(pointer,pointer,pointer,pointer,bit(2) aligned)
  5   250 			returns(pointer);
  5   251 			/* parameter 1:	(input)	block node pointer	*/
  5   252 			/* parameter 2:	(input)	statement node pointer 	*/
  5   253 			/* parameter 3:	(input)	symbol node pointer	*/
  5   254 			/* parameter 4:	(input)	loc pointer	*/
  5   255 			/* parameter 5:	(input)	array descriptor bit
  5   256*						cross_section bit	*/
  5   257 			/* return:	(output)	reference node pointer	*/
  5   258
  5   259 declare	declare_descriptor$param entry(pointer,pointer,pointer,pointer,bit(2) aligned)
  5   260 			returns(pointer);
  5   261 			/* parameter 1:	(input)	block node pointer		*/
  5   262 			/* parameter 2:	(input)	statement node pointer	*/
  5   263 			/* parameter 3:	(input)	symbol node pointer		*/
  5   264 			/* parameter 4:	(input)	loc pointer		*/
  5   265 			/* parameter 5:	(input)	array descriptor bit
  5   266*						cross_section bit	*/
  5   267 			/* return:	(output)	reference node pointer	*/
  5   268
  5   269 declare	declare_integer	entry(pointer)
  5   270 			returns(pointer);
  5   271 			/* parameter 1:	(input)	block node pointer		*/
  5   272 			/* return:	(output)	reference node pointer 	*/
  5   273
  5   274 declare	declare_picture	entry(char(*)aligned,pointer,fixed bin(15));
  5   275 			/* parameter 1:	(input)	picture string		*/
  5   276 			/* parameter 2:	(input)	symbol node pointer		*/
  5   277 			/* parameter 3:	(output)	error code, if any		*/
  5   278
  5   279 declare	declare_picture_temp entry(char(*) aligned,fixed bin(31),bit(1) aligned,bit(1) aligned)
  5   280 			returns(pointer);
  5   281 			/* parameter 1:	(input)	picture string		*/
  5   282 			/* parameter 2:	(input)	scalefactor of picture	*/
  5   283 			/* parameter 3:	(input)	="1"b => complex picture	*/
  5   284 			/* parameter 4:	(input)	="1"b => unaligned temp	*/
  5   285 			/* return:	(output)	reference node pointer	*/
  5   286
  5   287 declare	declare_pointer	entry(pointer)
  5   288 			returns(pointer);
  5   289 			/* parameter 1:	(input)	block node pointer		*/
  5   290 			/* return:	(output)	reference node pointer	*/
  5   291
  5   292 declare	declare_temporary	entry(bit(36) aligned,fixed bin(31),fixed bin(15),pointer)
  5   293 			returns(pointer);
  5   294 			/* parameter 1:	(input)	type			*/
  5   295 			/* parameter 2:	(input)	precision			*/
  5   296 			/* parameter 3:	(input)	scale			*/
  5   297 			/* parameter 4:	(input)	length			*/
  5   298 			/* return:	(output)	reference node pointer	*/
  5   299
  5   300 declare	decode_node_id	entry(pointer,bit(1) aligned)
  5   301 			returns(char(120) varying);
  5   302 			/* parameter 1:	(input)	node pointer		*/
  5   303 			/* parameter 2:	(input)	="1"b => capitals		*/
  5   304 			/* return:	(output)	source line id		*/
  5   305
  5   306 declare	decode_source_id	entry(
  6     1 			1 structure unaligned,
  6     2 			  2 /* file_number */	bit(8),
  6     3 			  2 /* line_number */	bit(14),
  6     4 			  2 /* stmt_number */	bit(5),
  5   307
  5   308 			bit(1) aligned)
  5   309 			returns(char(120) varying);
  5   310 			/* parameter 1:	(input)	source id			*/
  5   311 			/* parameter 2:	(input)	="1"b => capitals		*/
  5   312 			/* return:	(output)	source line id		*/
  5   313
  5   314 declare	error		entry(fixed bin(15),pointer,pointer);
  5   315 			/* parameter 1:	(input)	error number		*/
  5   316 			/* parameter 2:	(input)	statement node pointer or null*/
  5   317 			/* parameter 3:	(input)	token node pointer 		*/
  5   318
  5   319 declare	error$omit_text	entry(fixed bin(15),pointer,pointer);
  5   320 			/* parameter 1:	(input)	error number		*/
  5   321 			/* parameter 2:	(input)	statement node pointer or null*/
  5   322 			/* parameter 3:	(input)	token node pointer 		*/
  5   323
  5   324 declare	error_		entry(fixed bin(15),
  7     1 			1 structure unaligned,
  7     2 			  2 /* file_number */	bit(8),
  7     3 			  2 /* line_number */	bit(14),
  7     4 			  2 /* stmt_number */	bit(5),
  5   325
  5   326 			pointer,fixed bin(8),fixed bin(23),fixed bin(11));
  5   327 			/* parameter 1:	(input)	error number		*/
  5   328 			/* parameter 2:	(input)	statement id		*/
  5   329 			/* parameter 3:	(input)	any node pointer		*/
  5   330 			/* parameter 4:	(input)	source segment		*/
  5   331 			/* parameter 5:	(input)	source starting character	*/
  5   332 			/* parameter 6:	(input)	source length		*/
  5   333
  5   334 declare	error_$no_text	entry(fixed bin(15),
  8     1 			1 structure unaligned,
  8     2 			  2 /* file_number */	bit(8),
  8     3 			  2 /* line_number */	bit(14),
  8     4 			  2 /* stmt_number */	bit(5),
  5   335
  5   336 			pointer);
  5   337 			/* parameter 1:	(input)	error number		*/
  5   338 			/* parameter 2:	(input)	statement id		*/
  5   339 			/* parameter 3:	(input)	any node pointer		*/
  5   340
  5   341 declare	error_$initialize_error entry();
  5   342
  5   343 declare	error_$finish	entry();
  5   344
  5   345 declare	free_node		entry(pointer);
  5   346 			/* parameter 1:	any node pointer			*/
  5   347
  5   348 declare	get_array_size	entry(pointer,fixed bin(3));
  5   349 			/* parameter 1:	(input)	symbol node pointer		*/
  5   350 			/* parameter 2:	(input)	units			*/
  5   351
  5   352 declare	get_size		entry(pointer);
  5   353 			/* parameter 1:	(input)	symbol node pointer		*/
  5   354
  5   355 declare	merge_attributes	external entry(pointer,pointer)
  5   356 			returns(bit(1) aligned);
  5   357 			/* parameter 1:	(input)	target symbol node pointer */
  5   358 			/* parameter 2:	(input)	source symbol node pointer */
  5   359 			/* return:	(output)	"1"b if merge was unsuccessful */
  5   360
  5   361 declare	optimizer		entry(pointer);
  5   362 			/* parameter 1:	(input)	root pointer		*/
  5   363
  5   364 declare	parse_error	entry(fixed bin(15),pointer);
  5   365 			/* parameter 1:	(input)	error number		*/
  5   366 			/* parameter 2:	(input)	any node pointer		*/
  5   367
  5   368 declare	parse_error$no_text	entry(fixed bin(15),pointer);
  5   369 			/* parameter 1:	(input)	error number		*/
  5   370 			/* parameter 2:	(input)	any node pointer		*/
  5   371
  5   372 declare	pl1_error_print$write_out
  5   373 			entry(fixed bin(15),
  9     1 			1 structure unaligned,
  9     2 			  2 /* file_number */	bit(8),
  9     3 			  2 /* line_number */	bit(14),
  9     4 			  2 /* stmt_number */	bit(5),
  5   374
  5   375 			pointer,fixed bin(11),fixed bin(31),fixed bin(31),fixed bin(15));
  5   376 			/* parameter 1:	(input)	error number		*/
  5   377 			/* parameter 2:	(input)	statement identification	*/
  5   378 			/* parameter 3:	(input)	any node pointer		*/
  5   379 			/* parameter 4:	(input)	source segment		*/
  5   380 			/* parameter 5:	(input)	source character index	*/
  5   381 			/* parameter 6:	(input)	source length		*/
  5   382 			/* parameter 7:	(input)	source line		*/
  5   383
  5   384 declare	pl1_error_print$listing_segment
  5   385 			entry(fixed bin(15),
 10     1 			1 structure unaligned,
 10     2 			  2 /* file_number */	bit(8),
 10     3 			  2 /* line_number */	bit(14),
 10     4 			  2 /* stmt_number */	bit(5),
  5   386
  5   387 			pointer);
  5   388 			/* parameter 1:	(input)	error number		*/
  5   389 			/* parameter 2:	(input)	statement identification	*/
  5   390 			/* parameter 3:	(input)	token node pointer		*/
  5   391
  5   392 declare	pl1_print$varying		entry(character(*) aligned varying);
  5   393 			/* parameter 1:	(input)	string			*/
  5   394
  5   395 declare	pl1_print$varying_nl	entry(character(*) aligned varying);
  5   396 			/* parameter 1:	(input)	string			*/
  5   397
  5   398 declare	pl1_print$non_varying	entry(character(*) aligned,fixed bin(31));
  5   399 			/* parameter 1:	(input)	string			*/
  5   400 			/* parameter 2:	(input)	string length or 0		*/
  5   401
  5   402 declare	pl1_print$non_varying_nl	entry(character(*) aligned,fixed bin(31));
  5   403 			/* parameter 1:	(input)	string			*/
  5   404 			/* parameter 2:	(input)	string length or 0		*/
  5   405
  5   406 declare	pl1_print$string_pointer	entry(pointer,fixed bin(31));
  5   407 			/* parameter 1:	(input)	string pointer		*/
  5   408 			/* parameter 2:	(input)	string size		*/
  5   409
  5   410 declare	pl1_print$string_pointer_nl	entry(pointer,fixed bin(31));
  5   411 			/* parameter 1:	(input)	string pointer		*/
  5   412 			/* parameter 2:	(input)	string length or 0		*/
  5   413
  5   414 declare	pl1_print$unaligned_nl	entry(character(*) unaligned,fixed bin(31));
  5   415 			/* parameter 1:	(input)	string			*/
  5   416 			/* parameter 2:	(input)	length			*/
  5   417
  5   418 declare	pl1_print$for_lex	entry (ptr, fixed bin (14), fixed bin (21), fixed bin (21), bit (1) aligned, bit (1) aligned);
  5   419 			/* parameter 1:	(input)	ptr to base of source segment	*/
  5   420 			/* parameter 2:	(input)	line number		*/
  5   421 			/* parameter 3:	(input)	starting offset in source seg	*/
  5   422 			/* parameter 4:	(input)	number of chars to copy	*/
  5   423 			/* parameter 5:	(input)	ON iff shd print line number	*/
  5   424 			/* parameter 6:	(input)	ON iff line begins in comment	*/
  5   425
  5   426 declare	refer_extent	entry(pointer,pointer);
  5   427 			/* parameter 1:	(input/output)	null,ref node,op node pointer	*/
  5   428 			/* parameter 2:	(input)	null,ref node,op node pointer	*/
  5   429
  5   430 declare	reserve$clear	entry()
  5   431 			returns(pointer);
  5   432 			/* return:	(output)	pointer			*/
  5   433
  5   434 declare	reserve$declare_lib	entry(fixed bin(15))
  5   435 			returns(pointer);
  5   436 			/* parameter 1:	(input)	builtin function number	*/
  5   437 			/* return:	(output)	pointer			*/
  5   438
  5   439 declare	reserve$read_lib	entry(fixed bin(15))
  5   440 			returns(pointer);
  5   441 			/* parameter 1:	(input)	builtin function number	*/
  5   442 			/* return:	(output)	pointer			*/
  5   443
  5   444 declare	semantic_translator	entry();
  5   445
  5   446 declare	semantic_translator$abort entry(fixed bin(15),pointer);
  5   447 			/* parameter 1:	(input)	error number		*/
  5   448 			/* parameter 2:	(input)	any node pointer		*/
  5   449
  5   450 declare	semantic_translator$error entry(fixed bin(15),pointer);
  5   451 			/* parameter 1:	(input)	error number		*/
  5   452 			/* parameter 2:	(input)	any node pointer		*/
  5   453
  5   454 declare	share_expression	entry(ptr)
  5   455 			returns(ptr);
  5   456 			/* parameter 1:	(input)	usually operator node pointer	*/
  5   457 			/* return:	(output)	tree pointer or null	*/
  5   458
  5   459 declare	token_to_binary	entry(ptr) reducible
  5   460 			returns(fixed bin(31));
  5   461 			/* parameter 1:	(input)	token node pointer		*/
  5   462 			/* return:	(output)	converted binary value	*/
  5   463
  5   464 /* END INCLUDE FILE ... language_utility.incl.pl1 */
       21
 11     1 /* BEGIN INCLUDE FILE ... op_codes.incl.pl1 */
 11     2
 11     3 /* Modified: 25 Apr 1979 by PCK 4-bit decimal */
 11     4 /* Modified: 6 Jun 1979 by PG to add rank and byte */
 11     5 /* Modified: 26 Dec 1979 by PCK to add assign_by_name */
 11     6 /* Modified: 26 July 82 BIM wordno, segno */
 11     7
 11     8 dcl (	add		initial("000010001"b),	/* opnd(1) <- opnd(2)+opnd(3)		*/
 11     9 	sub		initial("000010010"b),	/* opnd(1) <- opnd(2)-opnd(3)		*/
 11    10 	mult		initial("000010011"b),	/* opnd(1) <- opnd(2)*opnd(3)		*/
 11    11 	div		initial("000010100"b),	/* opnd(1) <- opnd(2)/opnd(3)		*/
 11    12 	negate		initial("000010101"b),	/* opnd(1) <- -opnd(2)  		*/
 11    13 	exp		initial("000010110"b),	/* opnd(1) <- opnd(2) ** opnd(3)	*/
 11    14
 11    15 	and_bits		initial("000100001"b),	/* opnd(1) <- opnd(2) & opnd(3)	*/
 11    16 	or_bits		initial("000100010"b),	/* opnd(1) <- opnd(2)|opnd(3)		*/
 11    17 	xor_bits		initial("000100011"b),	/* opnd(1) <- opnd(2) xor opnd(3)	*/
 11    18 	not_bits		initial("000100100"b),	/* opnd(1) <- ^opnd(2)		*/
 11    19 	cat_string	initial("000100101"b),	/* opnd(1) <- opnd(2)||opnd(3)	*/
 11    20 	bool_fun		initial("000100110"b),	/* opnd(1) <- bool(opnd(2),opnd(3),opnd(4)) */
 11    21
 11    22 	assign		initial("000110001"b),	/* opnd(1) <- opnd(2)		*/
 11    23 	assign_size_ck	initial("000110010"b),	/* opnd(1) <- opnd(2)		*/
 11    24 	assign_zero	initial("000110011"b),	/* opnd(1) <- 0			*/
 11    25 	copy_words	initial("000110100"b),	/* move opnd(2) to opnd(1) by opnd(3) words */
 11    26 	copy_string	initial("000110101"b),	/* move opnd(2) to opnd(1) by opnd(3) units */
 11    27 	make_desc		initial("000110110"b),	/* opnd(1) <- descriptor(opnd(2),opnd(3)) */
 11    28 	assign_round	initial("000110111"b),	/* opnd(1) <- opnd(2) rounded		*/
 11    29 	pack		initial("000111000"b),	/* opnd(1) <- encode to picture opnd(2) */
 11    30 	unpack		initial("000111001"b),	/* opnd(1) <- decode from picture opnd(2) */
 11    31
 11    32 	less_than		initial("001000100"b),	/* opnd(1) <- opnd(2) < opnd(3)	*/
 11    33 	greater_than	initial("001000101"b),	/* opnd(1) <- opnd(2) > opnd(3)	*/
 11    34 	equal		initial("001000110"b),	/* opnd(1) <- opnd(2) = opnd(3)	*/
 11    35 	not_equal		initial("001000111"b),	/* opnd(1) <- opnd(2) ^= opnd(3)	*/
 11    36 	less_or_equal	initial("001001000"b),	/* opnd(1) <- opnd(2) <= opnd(3)	*/
 11    37 	greater_or_equal	initial("001001001"b),	/* opnd(1) <- opnd(2) >= opnd(3)	*/
 11    38
 11    39 	jump		initial("001010001"b),	/* go to opnd(1) unconditionally	*/
 11    40 	jump_true		initial("001010010"b),	/* go to opnd(1) if opnd(2) is not 0	*/
 11    41 	jump_false	initial("001010011"b),	/* go to opnd(1) if opnd(2) is all 0	*/
 11    42 	jump_if_lt	initial("001010100"b),	/* go to opnd(1) if opnd(2) < opnd(3)	*/
 11    43 	jump_if_gt	initial("001010101"b),	/* go to opnd(1) if opnd(2) > opnd(3)	*/
 11    44 	jump_if_eq	initial("001010110"b),	/* go to opnd(1) if opnd(2) = opnd(3)	*/
 11    45 	jump_if_ne	initial("001010111"b),	/* go to opnd(1) if opnd(2) ^= opnd(3)	*/
 11    46 	jump_if_le	initial("001011000"b),	/* go to opnd(1) if opnd(2) <= opnd(3)	*/
 11    47 	jump_if_ge	initial("001011001"b),	/* go to opnd(1) if opnd(2) >= opnd(3)	*/
 11    48
 11    49 	std_arg_list	initial("001100001"b),	/* opnd(1) <- arglist(opnd(2) desclist(opnd(3)))	*/
 11    50 	return_words	initial("001100010"b),	/* return aggregate opnd(1), opnd(2) is length in words */
 11    51 	std_call		initial("001100011"b),	/* opnd(1) <- call opnd(2) with opnd(3)		*/
 11    52 	return_bits	initial("001100100"b),	/* return aggregate opnd(1), opnd(2) is length in bits */
 11    53 	std_entry		initial("001100101"b),	/* entry(opnd(1)... opnd(n))			*/
 11    54 	return_string	initial("001100110"b),	/* return string opnd(1) */
 11    55 	ex_prologue	initial("001100111"b),	/* execute the prologue -no operands-		*/
 11    56 	allot_auto	initial("001101000"b),	/* opnd(1) <- addrel(stack,opnd(2))		*/
 11    57 	param_ptr		initial("001101001"b),	/* opnd(1) <- ptr to opnd(2) in  block opnd(3)	*/
 11    58 	param_desc_ptr	initial("001101010"b),	/* opnd(1) <- ptr to opnd(2) in block opnd(3)	*/
 11    59 	std_return	initial("001101011"b),	/* return -no arguments-			*/
 11    60 	allot_ctl		initial("001101100"b),	/* allocate opnd(1) , length in words is opnd(2) 	*/
 11    61 	free_ctl		initial("001101101"b),	/* free opnd(1)				*/
 11    62 	stop		initial("001101110"b),	/* stop - terminate run unit			*/
 11    63
 11    64 	mod_bit		initial("001110000"b),	/* opnd(1) <- mod(opnd(3),36),
 11    65*						   opnd(2) <- opnd(3) / 36		*/
 11    66 	mod_byte		initial("001110001"b),	/* opnd(1) <- mod(opnd(3),4),
 11    67*						   opnd(2) <- opnd(3) / 4		*/
 11    68 	mod_half		initial("001110010"b),	/* opnd(1) <- mod(opnd(3),2),
 11    69*						   opnd(2) <- opnd(3) / 2		*/
 11    70 	mod_word		initial("001110011"b),	/* TO BE DEFINED BY BLW			*/
 11    71
 11    72 	bit_to_char	initial("010000000"b),	/* opnd(1) <- (opnd(2)+8)/9		*/
 11    73 	bit_to_word	initial("010000001"b),	/* opnd(1) <- (opnd(2)+35)/36		*/
 11    74 	char_to_word	initial("010000010"b),	/* opnd(1) <- (opnd(2)+3)/4		*/
 11    75 	half_to_word	initial("010000011"b),	/* opnd(1) <- (opnd(2)+1)/2		*/
 11    76 	word_to_mod2	initial("010000100"b),	/* opnd(1) <- (opnd(2)+1)/2*2		*/
 11    77 	word_to_mod4	initial("010000101"b),	/* opnd(1) <- (opnd(2)+3)/4*4		*/
 11    78 	word_to_mod8	initial("010000110"b),	/* opnd(1) <- (opnd(2)+7)/8*8		*/
 11    79 	rel_fun		initial("010000111"b),	/* opnd(1) <- rel(opnd(2))		*/
 11    80 	baseno_fun	initial("010001000"b),	/* opnd(1) <- baseno(opnd(2))		*/
 11    81 	desc_size		initial("010001001"b),	/* opnd(1) <- substr(opnd(2),13,24)	*/
 11    82 	bit_pointer	initial("010001010"b),	/* opnd(1) <- bit offset of opnd(2)	*/
 11    83 	index_before_fun	initial("010001011"b),	/* opnd(1) <- length of before(opnd(2),opnd(3)) */
 11    84 	index_after_fun	initial("010001100"b),	/* opnd(1) <- offset of after(opnd(2),opnd(3)) in opnd(2) */
 11    85 	verify_ltrim_fun	initial("010001101"b),	/* opnd(1) <- offset of ltrim(opnd(2),opnd(3)) in opnd(2) */
 11    86 	verify_rtrim_fun	initial("010001110"b),	/* opnd(1) <- length(opnd(2))-length(rtrim(opnd(2),opnd(3))) */
 11    87 	digit_to_bit	initial("010001111"b),	/* opnd(1) <- 9*opnd(2)/2		*/
 11    88
 11    89 	ceil_fun		initial("010010000"b),	/* opnd(1) <- ceil(opnd(2))		*/
 11    90 	floor_fun		initial("010010001"b),	/* opnd(1) <- floor(opnd(2))		*/
 11    91 	round_fun		initial("010010010"b),	/* opnd(1) <- round(opnd(2))		*/
 11    92 	sign_fun		initial("010010011"b),	/* opnd(1) <- sign(opnd(2))		*/
 11    93 	abs_fun		initial("010010100"b),	/* opnd(1) <- abs(opnd(2))		*/
 11    94 	trunc_fun		initial("010010101"b),	/* opnd(1) <- trunc(opnd(2))		*/
 11    95 	byte_fun		initial("010010110"b),	/* opnd(1) <- byte(opnd(2))		*/
 11    96 	rank_fun		initial("010010111"b),	/* opnd(1) <- rank(opnd(2))		*/
 11    97 	index_rev_fun	initial("010011000"b),	/* opnd(1) <- index(reverse(opnd(2)),reverse(opnd(3))) */
 11    98 	search_rev_fun	initial("010011001"b),	/* opnd(1) <- search(reverse(opnd(2)),opnd(3)) */
 11    99 	verify_rev_fun	initial("010011010"b),	/* opnd(1) <- verify(reverse(opnd(2)),opnd(3)) */
 11   100 	wordno_fun	initial("010011011"b),        /* opnd(1) <- wordno (opnd(2)) */
 11   101 	segno_fun		initial("010011100"b),        /* opnd(1) <- segno (opnd(2)) */
 11   102 	bitno_fun           initial("010011101"b),        /* opnd(1) <- bitno (opnd(2)) */
 11   103 	charno_fun	initial("010011110"b),        /* opnd(1) <- charno (opnd(2)) */
 11   104
 11   105 	index_fun		initial("010100000"b),	/* opnd(1) <- index(opnd(2),opnd(3))	*/
 11   106 	off_fun		initial("010100001"b),	/* opnd(1) <- offset(opnd(2),opnd(3))	*/
 11   107 	complex_fun	initial("010100010"b),	/* opnd(1) <- complex(opnd(2),opnd(3))	*/
 11   108 	conjg_fun		initial("010100011"b),	/* opnd(1) <- conjg(opnd(2),opnd(3))	*/
 11   109 	mod_fun		initial("010100100"b),	/* opnd(1) <- mod(opnd(2),opnd(3))	*/
 11   110 	repeat_fun	initial("010100101"b),	/* opnd(1) <- repeat(opnd(2),opnd(3))	*/
 11   111 	verify_fun	initial("010100110"b),	/* opnd(1) <- verify(opnd(2),opnd(3))	*/
 11   112 	translate_fun	initial("010100111"b),	/* opnd(1) <- translate(opnd(2),opnd(3))*/
 11   113 	real_fun   	initial("010101001"b),	/* opnd(1) <- real(opnd(2))		*/
 11   114 	imag_fun   	initial("010101010"b),	/* opnd(1) <- imag(opnd(2))		*/
 11   115 	length_fun	initial("010101011"b),	/* opnd(1) <- length(opnd(2))	*/
 11   116 	pl1_mod_fun	initial("010101100"b),	/* opnd(1) <- mod(opnd(2)) */
 11   117 	search_fun	initial("010101101"b),	/* opnd(1) <- search(opnd(2),opnd(3)) */
 11   118 	allocation_fun	initial("010101110"b),	/* opnd(1) <- allocation(opnd(2)) */
 11   119 	reverse_fun	initial("010101111"b),	/* opnd(1) <- reverse(opnd(2)) */
 11   120
 11   121 	addr_fun		initial("010110000"b),	/* opnd(1) <- addr(opnd(2))		*/
 11   122 	addr_fun_bits	initial("010110001"b),	/* opnd(1) <- addr(opnd(2))		*/
 11   123 	ptr_fun		initial("010110010"b),	/* opnd(1) <- ptr(opnd(2),opnd(3))	*/
 11   124 	baseptr_fun	initial("010110011"b),	/* opnd(1) <- baseptr(opnd(2))	*/
 11   125 	addrel_fun	initial("010110100"b),	/* opnd(1) <- addrel(opnd(2),opnd(3))	*/
 11   126 	codeptr_fun	initial("010110101"b),	/* opnd(1) <- codeptr(opnd(2))	*/
 11   127 	environmentptr_fun	initial("010110110"b),	/* opnd(1) <- environmentptr(opnd(2))	*/
 11   128 	stackbaseptr_fun	initial("010110111"b),	/* opnd(1) is ptr to base of current stack	*/
 11   129 	stackframeptr_fun	initial("010111000"b),	/* opnd(1) is ptr to current block's stack frame	*/
 11   130 	setcharno_fun	initial("010111001"b),	/* opnd(1) <- opnd(2) with charno opnd(3) */
 11   131 	addcharno_fun	initial("010111010"b),	/* opnd(1) <- opnd(2) with charno = charno + opnd(3) */
 11   132 	setbitno_fun	initial("010111011"b),	/* setcharno for bitsno */
 11   133 	addbitno_fun	initial("010111100"b),	/* addcharno for bitno */
 11   134
 11   135 	min_fun		initial("011000000"b),	/* opnd(1) <- min(opnd(1),opnd(2),...)	*/
 11   136 	max_fun		initial("011000001"b),	/* opnd(1) <- max(opnd(1),opnd(2),...)	*/
 11   137
 11   138 	stack_ptr		initial("011010001"b),	/* opnd(1) <- stack frame ptr		*/
 11   139 	empty_area	initial("011010010"b),	/* empty opnd(1), length in words is opnd(2) */
 11   140 	enable_on		initial("011010100"b),	/* opnd(1) is the cond name
 11   141*						   opnd(2) is the file name
 11   142*						   opnd(3) is the block	*/
 11   143 	revert_on		initial("011010101"b),	/* opnd(1) is the cond name,
 11   144*						   opnd(2) is the file name	*/
 11   145 	signal_on		initial("011010110"b),	/* opnd(1) is the cond name
 11   146*						   opnd(2) is the file name */
 11   147
 11   148 	lock_fun		initial("011010111"b),	/* opnd(1) <- stac(opnd(2),opnd(3))	*/
 11   149 	stacq_fun		initial("011011000"b),	/* opnd(1) is result, opnd(2) is ptr to lock word,
 11   150*						   opnd(3) is old value, (4) is new value. */
 11   151 	clock_fun		initial("011011001"b),	/* opnd(1) is the clock time		*/
 11   152 	vclock_fun	initial("011011010"b),	/* opnd(1) is the virtual clock time	*/
 11   153
 11   154 	bound_ck		initial("011100000"b),	/* opnd(1) <- opnd(2) if opnd(3) <= opnd(2) <= opnd(4) */
 11   155 	range_ck		initial("011100001"b),	/* opnd(1) <- opnd(2) if opnd(3) <= opnd(2) <= opnd(4) */
 11   156 	loop		initial("011100010"b),	/* do opnd(1) for opnd(2) from opnd(3) to opnd(4) by 1,
 11   157*						   opnd(5) is the list */
 11   158 	join		initial("011100011"b),	/* do opnd(1), opnd(2) ... opnd(n)	*/
 11   159 	allot_based	initial("011100100"b),	/* allocate opnd(2) words in opnd(3), set opnd(1) */
 11   160 	free_based	initial("011100101"b),	/* free opnd(1) in opnd(3), length is opnd(2) words */
 11   161
 11   162 	r_parn		initial("011110001"b),	/* format op code			*/
 11   163 	l_parn		initial("011110010"b),
 11   164 	r_format		initial("011110011"b),
 11   165 	c_format		initial("011110100"b),
 11   166 	f_format		initial("011110101"b),
 11   167 	e_format		initial("011110110"b),
 11   168 	b_format		initial("011110111"b),
 11   169 	a_format		initial("011111000"b),
 11   170 	x_format		initial("011111001"b),
 11   171 	skip_format	initial("011111010"b),
 11   172 	column_format	initial("011111011"b),
 11   173 	page_format	initial("011111100"b),
 11   174 	line_format	initial("011111101"b),
 11   175 	picture_format	initial("011111110"b),
 11   176 	bn_format		initial("011111111"b),	/* bit format, length(opnd(2)), radix factor(opnd(3)) */
 11   177
 11   178 	get_list_trans	initial("100000000"b),	/* getlist(opnd(2) with desc(opnd(1)))	*/
 11   179 	get_edit_trans	initial("100000001"b),	/* getedit(opnd(2) with desc(opnd(1)))	*/
 11   180 	get_data_trans	initial("100000010"b),	/* getdata(opnd(1) to opnd(n))	*/
 11   181 	put_list_trans	initial("100000011"b),	/* putlist(opnd(2) with desc(opnd(1)))	*/
 11   182 	put_edit_trans	initial("100000100"b),	/* putedit(opnd(2) with desc(opnd(1)))	*/
 11   183 	put_data_trans	initial("100000101"b),	/* putdata(opnd(2)) with subscript-list opnd(1) */
 11   184 	terminate_trans	initial("100000110"b),	/* terminate stream transmission	*/
 11   185 	stream_prep	initial("100000111"b),	/* initiate stream transmission	*/
 11   186 	record_io		initial("100001000"b),	/* perform record io operation	*/
 11   187 	fortran_read	initial("100001001"b),	/* A complete read statement		*/
 11   188 	fortran_write	initial("100001010"b),	/* A complete write statement		*/
 11   189 	ftn_file_manip	initial("100001011"b),	/* endfile,backspace,rewind,etc.	*/
 11   190 	ftn_trans_loop	initial("100001100"b),	/* An implied do in i/o list		*/
 11   191 	put_control	initial("100001101"b),	/* put control opnd(1) opnd(2) times	*/
 11   192 	put_field		initial("100001110"b),	/* putlist(opnd(2)) of length(opnd(1))	*/
 11   193 	put_field_chk	initial("100001111"b),	/* putlist(op(2)) of len(op(1)) check char index(op(3)) */
 11   194
 11   195 /* These operators are produced by the parse but are not used as input to the code generator.	*/
 11   196 /* They are processed by the semantic translator.						*/
 11   197
 11   198 	return_value	initial("100010010"b),	/* return(opnd(1))			*/
 11   199 	allot_var		initial("100010011"b),	/* allot opnd(1) in opnd(2)		*/
 11   200 	free_var		initial("100010100"b),	/* free opnd(1) out of opnd(2)	*/
 11   201 	get_file		initial("100010101"b),	/* opnd(1) is filename,opnd(2) is copy	*/
 11   202 						/* opnd(3) is skip, opnd(4) is list	*/
 11   203 	get_string	initial("100010110"b),	/* opnd(1) is string,opnd(2) is list	*/
 11   204 	put_file		initial("100010111"b),	/* opnd(1) is filename,opnd(2) is page	*/
 11   205 						/* opnd(3) is skip,opnd(4) is line	*/
 11   206 	put_string	initial("100011000"b),	/* opnd(1) is string,opnd(2) is list	*/
 11   207 	open_file		initial("100011001"b),
 11   208 	close_file	initial("100011010"b),
 11   209 	read_file		initial("100011011"b),
 11   210 	write_file	initial("100011100"b),
 11   211 	locate_file	initial("100011101"b),
 11   212 	do_fun		initial("100011110"b),	/* opnd(1) is join of a list		*/
 11   213 						/* opnd(2) is control variable ref	*/
 11   214 						/* opnd(3) is specification operator	*/
 11   215 	do_spec		initial("100011111"b),	/* opnd(1) to opnd(2) by opnd(3) 	*/
 11   216 						/* repeat opnd(4) while opnd(5)	*/
 11   217 						/* opnd(6) is next specification	*/
 11   218
 11   219 	rewrite_file	initial("100100000"b),
 11   220 	delete_file	initial("100100001"b),
 11   221 	unlock_file	initial("100100010"b),
 11   222 	lock_file		initial("100100011"b),
 11   223 	refer		initial("100100101"b),	/* opnd(1) refer(opnd(2))		*/
 11   224 	prefix_plus	initial("100100110"b),	/* opnd(1) <- +opnd(2)		*/
 11   225 	nop		initial("100100111"b),	/* no-op */
 11   226 	assign_by_name	initial("100101000"b),	/* opnd(1) <- opnd(2),by name		*/
 11   227
 11   228 /* These operators are produced by the semantic translator in processing the math
 11   229*   builtin functions and are used as input to the code generator			*/
 11   230
 11   231 	sqrt_fun		initial("100110000"b),	/* opnd(1) <- sqrt(opnd(2))	*/
 11   232 	sin_fun		initial("100110001"b),	/* opnd(1) <- sin(opnd(2))	*/
 11   233 	sind_fun		initial("100110010"b),	/* opnd(1) <- sind(opnd(2))	*/
 11   234 	cos_fun		initial("100110011"b),	/* opnd(1) <- cos(opnd(2))	*/
 11   235 	cosd_fun		initial("100110100"b),	/* opnd(1) <- cosd(opnd(2))	*/
 11   236 	tan_fun		initial("100110101"b),	/* opnd(1) <- tan(opnd(2))	*/
 11   237 	tand_fun		initial("100110110"b),	/* opnd(1) <- tand(opnd(2))	*/
 11   238 	asin_fun		initial("100110111"b),	/* opnd(1) <- asin(opnd(2))	*/
 11   239 	asind_fun		initial("100111000"b),	/* opnd(1) <- asind(opnd(2))	*/
 11   240 	acos_fun		initial("100111001"b),	/* opnd(1) <- acos(opnd(2))	*/
 11   241 	acosd_fun		initial("100111010"b),	/* opnd(1) <- acosd(opnd(2))	*/
 11   242 	atan_fun		initial("100111011"b),	/* opnd(1) <- atan(opnd(2)[,opnd(3)])	*/
 11   243 	atand_fun		initial("100111100"b),	/* opnd(1) <- atand(opnd(2)[,opnd(3)])	*/
 11   244 	log2_fun		initial("100111101"b),	/* opnd(1) <- log2(opnd(2))	*/
 11   245 	log_fun		initial("100111110"b),	/* opnd(1) <- log(opnd(2))	*/
 11   246 	log10_fun		initial("100111111"b),	/* opnd(1) <- log10(opnd(2))	*/
 11   247
 11   248 	exp_fun		initial("101000000"b))	/* opnd(1) <- exp(opnd(2))	*/
 11   249
 11   250 			bit(9) aligned internal static options(constant);
 11   251
 11   252 /* END INCLUDE FILE ... op_codes.incl.pl1 */
       22
       23
       24 	/* gets unique copy of processed tree (thus a unique value) */
       25
       26 	/* this program fails if subnodes of the tree (other than the
       27*	   result of std_call and last element of a list) have reference
       28*	   counts greater than 1 */
       29
       30 	q = qp;
       31
       32 	if q = null then return(q);
       33
       34 	if q -> node.type = reference_node
       35 	   then do;
       36 	        if q -> reference.shared & q -> reference.processed
       37 		 then p = q;
       38 		 else do;
       39 		      p = create_reference(null);
       40 		      p -> reference = q -> reference;
       41 		      if ^ p -> reference.shared
       42 			then p -> reference.ref_count = 1;
       43 		      if p -> reference.qualifier ^= null
       44 		         then p -> reference.qualifier = copy_unique_expression((p -> reference.qualifier));
       45 		      if p -> reference.length ^= null
       46 		         then p -> reference.length = copy_unique_expression((p -> reference.length));
       47 		      if p -> reference.offset ^= null
       48 		         then p-> reference.offset = copy_unique_expression((p -> reference.offset));
       49 		      end;
       50 	        return(p);
       51 	        end;
       52
       53 	if q -> node.type = operator_node
       54 	   then do;
       55 	        n = q -> operator.number;
       56 	        p = create_operator((q -> operator.op_code),n);
       57 	        p -> operator = q -> operator;
       58
       59 	        do i = 1 to n;
       60 		 p -> operand(i) = copy_unique_expression((p -> operand(i)));
       61 	        end;
       62
       63 	        if p -> operator.op_code = std_call
       64 		 then if p -> operand(3)^= null
       65 		      then do;
       66 			 arg = p -> operand(3) -> operand(2);
       67 			 arg -> element(arg -> list.number) = p -> operand(1);
       68 			 if p -> operand(1) ^= null
       69 			    then p -> operand(1) -> reference.ref_count = 2;
       70 			 end;
       71
       72 	        return(p);
       73 	        end;
       74
       75 	if q -> node.type = list_node
       76 	   then do;
       77 	        p = create_list((q -> list.number));
       78 	        p -> list = q -> list;
       79
       80 	        do i = 1 to p -> list.number - 1;
       81 		 p -> element(i) = copy_unique_expression((p -> element(i)));
       82 	        end;
       83
       84 	        return(p);
       85 	        end;
       86
       87 	return(q);
       88
       89 	end;
	SOURCE FILES USED IN THIS COMPILATION.

LINE      NUMBER  DATE MODIFIED     NAME			PATHNAME
             0    07/31/89  1338.3  copy_unique_expression.pl1        >spec>install>MR12.3-1066>copy_unique_expression.pl1
17           1    07/21/80  1546.3  nodes.incl.pl1                    >ldd>include>nodes.incl.pl1
18           2    07/21/80  1546.3  reference.incl.pl1                >ldd>include>reference.incl.pl1
19           3    07/21/80  1546.3  operator.incl.pl1                 >ldd>include>operator.incl.pl1
20           4    08/13/81  2211.5  list.incl.pl1                     >ldd>include>list.incl.pl1
21           5    07/31/89  1332.6  language_utility.incl.pl1         >spec>install>MR12.3-1066>language_utility.incl.pl1
5-307        6    05/06/74  1746.9  source_id_descriptor.incl.pl1     >ldd>include>source_id_descriptor.incl.pl1
5-325        7    05/06/74  1746.9  source_id_descriptor.incl.pl1     >ldd>include>source_id_descriptor.incl.pl1
5-335        8    05/06/74  1746.9  source_id_descriptor.incl.pl1     >ldd>include>source_id_descriptor.incl.pl1
5-374        9    05/06/74  1746.9  source_id_descriptor.incl.pl1     >ldd>include>source_id_descriptor.incl.pl1
5-386       10    05/06/74  1746.9  source_id_descriptor.incl.pl1     >ldd>include>source_id_descriptor.incl.pl1
22          11    04/07/83  1635.0  op_codes.incl.pl1                 >ldd>include>op_codes.incl.pl1
	NAMES DECLARED IN THIS COMPILATION.

IDENTIFIER	     OFFSET    LOC STORAGE CLASS   DATA TYPE		ATTRIBUTES AND REFERENCES
								(* indicates a set context)

NAMES DECLARED BY DECLARE STATEMENT.
arg                             000100 automatic       pointer                  dcl 13 set ref 66* 67 67
copy_unique_expression          000010 constant        entry                    external dcl 5-103 ref 43 45 47 60 81
create_list                     000012 constant        entry                    external dcl 5-147 ref 77
create_operator                 000014 constant        entry                    external dcl 5-152 ref 56
create_reference                000016 constant        entry                    external dcl 5-158 ref 39
element                   1            based           pointer                  array level 2 packed packed unaligned dcl 4-6 set
                                                                                  ref 67* 81* 81
i                               000106 automatic       fixed bin(15,0)          dcl 14 set ref 59* 60 60* 80* 81 81*
length                    6            based           pointer                  level 2 packed packed unaligned dcl 2-3 set ref 45
                                                                                  45* 45
list                                   based           structure                level 1 dcl 4-6 set ref 78* 78
list_node                              constant        bit(9)                   initial dcl 1-5 ref 75
n                               000107 automatic       fixed bin(15,0)          dcl 14 set ref 55* 56* 59
node                                   based           structure                level 1 dcl 1-27
null                                                   builtin function         dcl 15 ref 32 39 39 43 45 47 63 68
number                    0(21)        based           fixed bin(14,0)          level 2 in structure "list" packed packed unaligned
                                                                                  dcl 4-6 in procedure "copy_unique_expression" set
                                                                                  ref 67 77 78 80
number                    0(21)        based           fixed bin(14,0)          level 2 in structure "operator" packed packed
                                                                                  unaligned dcl 3-6 in procedure
                                                                                  "copy_unique_expression" set ref 55 57
offset                    5            based           pointer                  level 2 packed packed unaligned dcl 2-3 set ref 47
                                                                                  47* 47
op_code                   0(09)        based           bit(9)                   level 2 packed packed unaligned dcl 3-6 set ref 56
                                                                                  63
operand                   1            based           pointer                  array level 2 packed packed unaligned dcl 3-6 set
                                                                                  ref 60* 60 63 66 66 67 68 68
operator                               based           structure                level 1 dcl 3-6 set ref 57* 57
operator_node                          constant        bit(9)                   initial dcl 1-5 ref 53
p                               000102 automatic       pointer                  dcl 13 set ref 36* 39* 40 41 41 43 43 43 45 45 45 47
                                                                                  47 47 50 56* 57 60 60 63 63 66 67 68 68 72 77* 78
                                                                                  80 81 81 84
processed                 0(13)        based           bit(1)                   level 2 packed packed unaligned dcl 2-3 set ref 36
q                               000104 automatic       pointer                  dcl 13 set ref 30* 32 32 34 36 36 36 40 53 55 56 57
                                                                                  75 77 78 87
qp                                     parameter       pointer                  dcl 13 ref 11 30
qualifier                 4            based           pointer                  level 2 packed packed unaligned dcl 2-3 set ref 43
                                                                                  43* 43
ref_count                 0(18)        based           fixed bin(17,0)          level 2 packed packed unaligned dcl 2-3 set ref 41*
                                                                                  68*
reference                              based           structure                level 1 dcl 2-3 set ref 40* 40
reference_node                         constant        bit(9)                   initial dcl 1-5 ref 34
shared                    0(11)        based           bit(1)                   level 2 packed packed unaligned dcl 2-3 set ref 36
                                                                                  41
std_call                               constant        bit(9)                   initial dcl 11-8 ref 63
type                                   based           bit(9)                   level 2 packed packed unaligned dcl 1-27 ref 34 53
                                                                                  75

NAMES DECLARED BY DECLARE STATEMENT AND NEVER REFERENCED.
a_format                               internal static bit(9)                   initial dcl 11-8
abs_fun                                internal static bit(9)                   initial dcl 11-8
acos_fun                               internal static bit(9)                   initial dcl 11-8
acosd_fun                              internal static bit(9)                   initial dcl 11-8
add                                    internal static bit(9)                   initial dcl 11-8
addbitno_fun                           internal static bit(9)                   initial dcl 11-8
addcharno_fun                          internal static bit(9)                   initial dcl 11-8
addr_fun                               internal static bit(9)                   initial dcl 11-8
addr_fun_bits                          internal static bit(9)                   initial dcl 11-8
addrel_fun                             internal static bit(9)                   initial dcl 11-8
adjust_count                    000000 constant        entry                    external dcl 5-20
allocation_fun                         internal static bit(9)                   initial dcl 11-8
allot_auto                             internal static bit(9)                   initial dcl 11-8
allot_based                            internal static bit(9)                   initial dcl 11-8
allot_ctl                              internal static bit(9)                   initial dcl 11-8
allot_var                              internal static bit(9)                   initial dcl 11-8
and_bits                               internal static bit(9)                   initial dcl 11-8
array_node                             internal static bit(9)                   initial dcl 1-5
asin_fun                               internal static bit(9)                   initial dcl 11-8
asind_fun                              internal static bit(9)                   initial dcl 11-8
assign                                 internal static bit(9)                   initial dcl 11-8
assign_by_name                         internal static bit(9)                   initial dcl 11-8
assign_round                           internal static bit(9)                   initial dcl 11-8
assign_size_ck                         internal static bit(9)                   initial dcl 11-8
assign_zero                            internal static bit(9)                   initial dcl 11-8
atan_fun                               internal static bit(9)                   initial dcl 11-8
atand_fun                              internal static bit(9)                   initial dcl 11-8
b_format                               internal static bit(9)                   initial dcl 11-8
baseno_fun                             internal static bit(9)                   initial dcl 11-8
baseptr_fun                            internal static bit(9)                   initial dcl 11-8
binary_to_octal_string          000000 constant        entry                    external dcl 5-38
binary_to_octal_var_string      000000 constant        entry                    external dcl 5-43
bindec                          000000 constant        entry                    external dcl 5-23
bindec$vs                       000000 constant        entry                    external dcl 5-28
binoct                          000000 constant        entry                    external dcl 5-33
bit_pointer                            internal static bit(9)                   initial dcl 11-8
bit_to_char                            internal static bit(9)                   initial dcl 11-8
bit_to_word                            internal static bit(9)                   initial dcl 11-8
bitno_fun                              internal static bit(9)                   initial dcl 11-8
block_node                             internal static bit(9)                   initial dcl 1-5
bn_format                              internal static bit(9)                   initial dcl 11-8
bool_fun                               internal static bit(9)                   initial dcl 11-8
bound_ck                               internal static bit(9)                   initial dcl 11-8
bound_node                             internal static bit(9)                   initial dcl 1-5
by_name_agg_node                       internal static bit(9)                   initial dcl 1-5
byte_fun                               internal static bit(9)                   initial dcl 11-8
c_format                               internal static bit(9)                   initial dcl 11-8
cat_string                             internal static bit(9)                   initial dcl 11-8
ceil_fun                               internal static bit(9)                   initial dcl 11-8
char_to_word                           internal static bit(9)                   initial dcl 11-8
charno_fun                             internal static bit(9)                   initial dcl 11-8
clock_fun                              internal static bit(9)                   initial dcl 11-8
close_file                             internal static bit(9)                   initial dcl 11-8
codeptr_fun                            internal static bit(9)                   initial dcl 11-8
column_format                          internal static bit(9)                   initial dcl 11-8
compare_expression              000000 constant        entry                    external dcl 5-48
complex_fun                            internal static bit(9)                   initial dcl 11-8
conjg_fun                              internal static bit(9)                   initial dcl 11-8
constant_length                 000000 constant        entry                    external dcl 5-54
context_node                           internal static bit(9)                   initial dcl 1-5
convert                         000000 constant        entry                    external dcl 5-60
convert$from_builtin            000000 constant        entry                    external dcl 5-72
convert$to_integer              000000 constant        entry                    external dcl 5-66
convert$to_target               000000 constant        entry                    external dcl 5-88
convert$to_target_fb            000000 constant        entry                    external dcl 5-82
convert$validate                000000 constant        entry                    external dcl 5-78
copy_expression                 000000 constant        entry                    external dcl 5-94
copy_expression$copy_sons       000000 constant        entry                    external dcl 5-99
copy_string                            internal static bit(9)                   initial dcl 11-8
copy_words                             internal static bit(9)                   initial dcl 11-8
cos_fun                                internal static bit(9)                   initial dcl 11-8
cosd_fun                               internal static bit(9)                   initial dcl 11-8
create_array                    000000 constant        entry                    external dcl 5-108
create_block                    000000 constant        entry                    external dcl 5-112
create_bound                    000000 constant        entry                    external dcl 5-118
create_context                  000000 constant        entry                    external dcl 5-122
create_cross_reference          000000 constant        entry                    external dcl 5-128
create_default                  000000 constant        entry                    external dcl 5-132
create_identifier               000000 constant        entry                    external dcl 5-136
create_label                    000000 constant        entry                    external dcl 5-140
create_statement                000000 constant        entry                    external dcl 5-163
create_statement$prologue       000000 constant        entry                    external dcl 5-171
create_storage                  000000 constant        entry                    external dcl 5-179
create_symbol                   000000 constant        entry                    external dcl 5-184
create_token                    000000 constant        entry                    external dcl 5-191
create_token$init_hash_table    000000 constant        entry                    external dcl 5-197
create_token$protected          000000 constant        entry                    external dcl 5-199
cross_reference_node                   internal static bit(9)                   initial dcl 1-5
decbin                          000000 constant        entry                    external dcl 5-206
declare_constant                000000 constant        entry                    external dcl 5-211
declare_constant$bit            000000 constant        entry                    external dcl 5-219
declare_constant$char           000000 constant        entry                    external dcl 5-224
declare_constant$desc           000000 constant        entry                    external dcl 5-229
declare_constant$integer        000000 constant        entry                    external dcl 5-234
declare_descriptor              000000 constant        entry                    external dcl 5-239
declare_descriptor$ctl          000000 constant        entry                    external dcl 5-249
declare_descriptor$param        000000 constant        entry                    external dcl 5-259
declare_integer                 000000 constant        entry                    external dcl 5-269
declare_picture                 000000 constant        entry                    external dcl 5-274
declare_picture_temp            000000 constant        entry                    external dcl 5-279
declare_pointer                 000000 constant        entry                    external dcl 5-287
declare_temporary               000000 constant        entry                    external dcl 5-292
decode_node_id                  000000 constant        entry                    external dcl 5-300
decode_source_id                000000 constant        entry                    external dcl 5-306
default_node                           internal static bit(9)                   initial dcl 1-5
delete_file                            internal static bit(9)                   initial dcl 11-8
desc_size                              internal static bit(9)                   initial dcl 11-8
digit_to_bit                           internal static bit(9)                   initial dcl 11-8
div                                    internal static bit(9)                   initial dcl 11-8
do_fun                                 internal static bit(9)                   initial dcl 11-8
do_spec                                internal static bit(9)                   initial dcl 11-8
e_format                               internal static bit(9)                   initial dcl 11-8
empty_area                             internal static bit(9)                   initial dcl 11-8
enable_on                              internal static bit(9)                   initial dcl 11-8
environmentptr_fun                     internal static bit(9)                   initial dcl 11-8
equal                                  internal static bit(9)                   initial dcl 11-8
error                           000000 constant        entry                    external dcl 5-314
error$omit_text                 000000 constant        entry                    external dcl 5-319
error_                          000000 constant        entry                    external dcl 5-324
error_$finish                   000000 constant        entry                    external dcl 5-343
error_$initialize_error         000000 constant        entry                    external dcl 5-341
error_$no_text                  000000 constant        entry                    external dcl 5-334
ex_prologue                            internal static bit(9)                   initial dcl 11-8
exp                                    internal static bit(9)                   initial dcl 11-8
exp_fun                                internal static bit(9)                   initial dcl 11-8
f_format                               internal static bit(9)                   initial dcl 11-8
floor_fun                              internal static bit(9)                   initial dcl 11-8
format_value_node                      internal static bit(9)                   initial dcl 1-5
fortran_read                           internal static bit(9)                   initial dcl 11-8
fortran_write                          internal static bit(9)                   initial dcl 11-8
free_based                             internal static bit(9)                   initial dcl 11-8
free_ctl                               internal static bit(9)                   initial dcl 11-8
free_node                       000000 constant        entry                    external dcl 5-345
free_var                               internal static bit(9)                   initial dcl 11-8
ftn_file_manip                         internal static bit(9)                   initial dcl 11-8
ftn_trans_loop                         internal static bit(9)                   initial dcl 11-8
get_array_size                  000000 constant        entry                    external dcl 5-348
get_data_trans                         internal static bit(9)                   initial dcl 11-8
get_edit_trans                         internal static bit(9)                   initial dcl 11-8
get_file                               internal static bit(9)                   initial dcl 11-8
get_list_trans                         internal static bit(9)                   initial dcl 11-8
get_size                        000000 constant        entry                    external dcl 5-352
get_string                             internal static bit(9)                   initial dcl 11-8
greater_or_equal                       internal static bit(9)                   initial dcl 11-8
greater_than                           internal static bit(9)                   initial dcl 11-8
half_to_word                           internal static bit(9)                   initial dcl 11-8
imag_fun                               internal static bit(9)                   initial dcl 11-8
index_after_fun                        internal static bit(9)                   initial dcl 11-8
index_before_fun                       internal static bit(9)                   initial dcl 11-8
index_fun                              internal static bit(9)                   initial dcl 11-8
index_rev_fun                          internal static bit(9)                   initial dcl 11-8
join                                   internal static bit(9)                   initial dcl 11-8
jump                                   internal static bit(9)                   initial dcl 11-8
jump_false                             internal static bit(9)                   initial dcl 11-8
jump_if_eq                             internal static bit(9)                   initial dcl 11-8
jump_if_ge                             internal static bit(9)                   initial dcl 11-8
jump_if_gt                             internal static bit(9)                   initial dcl 11-8
jump_if_le                             internal static bit(9)                   initial dcl 11-8
jump_if_lt                             internal static bit(9)                   initial dcl 11-8
jump_if_ne                             internal static bit(9)                   initial dcl 11-8
jump_true                              internal static bit(9)                   initial dcl 11-8
l_parn                                 internal static bit(9)                   initial dcl 11-8
label_array_element_node               internal static bit(9)                   initial dcl 1-5
label_node                             internal static bit(9)                   initial dcl 1-5
length_fun                             internal static bit(9)                   initial dcl 11-8
less_or_equal                          internal static bit(9)                   initial dcl 11-8
less_than                              internal static bit(9)                   initial dcl 11-8
line_format                            internal static bit(9)                   initial dcl 11-8
locate_file                            internal static bit(9)                   initial dcl 11-8
lock_file                              internal static bit(9)                   initial dcl 11-8
lock_fun                               internal static bit(9)                   initial dcl 11-8
log10_fun                              internal static bit(9)                   initial dcl 11-8
log2_fun                               internal static bit(9)                   initial dcl 11-8
log_fun                                internal static bit(9)                   initial dcl 11-8
loop                                   internal static bit(9)                   initial dcl 11-8
machine_state_node                     internal static bit(9)                   initial dcl 1-5
make_desc                              internal static bit(9)                   initial dcl 11-8
max_fun                                internal static bit(9)                   initial dcl 11-8
max_list_elements                      internal static fixed bin(17,0)          initial dcl 4-12
max_number_of_operands                 internal static fixed bin(15,0)          initial dcl 3-15
merge_attributes                000000 constant        entry                    external dcl 5-355
min_fun                                internal static bit(9)                   initial dcl 11-8
mod_bit                                internal static bit(9)                   initial dcl 11-8
mod_byte                               internal static bit(9)                   initial dcl 11-8
mod_fun                                internal static bit(9)                   initial dcl 11-8
mod_half                               internal static bit(9)                   initial dcl 11-8
mod_word                               internal static bit(9)                   initial dcl 11-8
mult                                   internal static bit(9)                   initial dcl 11-8
negate                                 internal static bit(9)                   initial dcl 11-8
nop                                    internal static bit(9)                   initial dcl 11-8
not_bits                               internal static bit(9)                   initial dcl 11-8
not_equal                              internal static bit(9)                   initial dcl 11-8
off_fun                                internal static bit(9)                   initial dcl 11-8
open_file                              internal static bit(9)                   initial dcl 11-8
optimizer                       000000 constant        entry                    external dcl 5-361
or_bits                                internal static bit(9)                   initial dcl 11-8
pack                                   internal static bit(9)                   initial dcl 11-8
page_format                            internal static bit(9)                   initial dcl 11-8
param_desc_ptr                         internal static bit(9)                   initial dcl 11-8
param_ptr                              internal static bit(9)                   initial dcl 11-8
parse_error                     000000 constant        entry                    external dcl 5-364
parse_error$no_text             000000 constant        entry                    external dcl 5-368
picture_format                         internal static bit(9)                   initial dcl 11-8
pl1_error_print$listing_segment 000000 constant        entry                    external dcl 5-384
pl1_error_print$write_out       000000 constant        entry                    external dcl 5-372
pl1_mod_fun                            internal static bit(9)                   initial dcl 11-8
pl1_print$for_lex               000000 constant        entry                    external dcl 5-418
pl1_print$non_varying           000000 constant        entry                    external dcl 5-398
pl1_print$non_varying_nl        000000 constant        entry                    external dcl 5-402
pl1_print$string_pointer        000000 constant        entry                    external dcl 5-406
pl1_print$string_pointer_nl     000000 constant        entry                    external dcl 5-410
pl1_print$unaligned_nl          000000 constant        entry                    external dcl 5-414
pl1_print$varying               000000 constant        entry                    external dcl 5-392
pl1_print$varying_nl            000000 constant        entry                    external dcl 5-395
prefix_plus                            internal static bit(9)                   initial dcl 11-8
ptr_fun                                internal static bit(9)                   initial dcl 11-8
put_control                            internal static bit(9)                   initial dcl 11-8
put_data_trans                         internal static bit(9)                   initial dcl 11-8
put_edit_trans                         internal static bit(9)                   initial dcl 11-8
put_field                              internal static bit(9)                   initial dcl 11-8
put_field_chk                          internal static bit(9)                   initial dcl 11-8
put_file                               internal static bit(9)                   initial dcl 11-8
put_list_trans                         internal static bit(9)                   initial dcl 11-8
put_string                             internal static bit(9)                   initial dcl 11-8
r_format                               internal static bit(9)                   initial dcl 11-8
r_parn                                 internal static bit(9)                   initial dcl 11-8
range_ck                               internal static bit(9)                   initial dcl 11-8
rank_fun                               internal static bit(9)                   initial dcl 11-8
read_file                              internal static bit(9)                   initial dcl 11-8
real_fun                               internal static bit(9)                   initial dcl 11-8
record_io                              internal static bit(9)                   initial dcl 11-8
refer                                  internal static bit(9)                   initial dcl 11-8
refer_extent                    000000 constant        entry                    external dcl 5-426
rel_fun                                internal static bit(9)                   initial dcl 11-8
repeat_fun                             internal static bit(9)                   initial dcl 11-8
reserve$clear                   000000 constant        entry                    external dcl 5-430
reserve$declare_lib             000000 constant        entry                    external dcl 5-434
reserve$read_lib                000000 constant        entry                    external dcl 5-439
return_bits                            internal static bit(9)                   initial dcl 11-8
return_string                          internal static bit(9)                   initial dcl 11-8
return_value                           internal static bit(9)                   initial dcl 11-8
return_words                           internal static bit(9)                   initial dcl 11-8
reverse_fun                            internal static bit(9)                   initial dcl 11-8
revert_on                              internal static bit(9)                   initial dcl 11-8
rewrite_file                           internal static bit(9)                   initial dcl 11-8
round_fun                              internal static bit(9)                   initial dcl 11-8
search_fun                             internal static bit(9)                   initial dcl 11-8
search_rev_fun                         internal static bit(9)                   initial dcl 11-8
segno_fun                              internal static bit(9)                   initial dcl 11-8
semantic_translator             000000 constant        entry                    external dcl 5-444
semantic_translator$abort       000000 constant        entry                    external dcl 5-446
semantic_translator$error       000000 constant        entry                    external dcl 5-450
setbitno_fun                           internal static bit(9)                   initial dcl 11-8
setcharno_fun                          internal static bit(9)                   initial dcl 11-8
sf_par_node                            internal static bit(9)                   initial dcl 1-5
share_expression                000000 constant        entry                    external dcl 5-454
sign_fun                               internal static bit(9)                   initial dcl 11-8
signal_on                              internal static bit(9)                   initial dcl 11-8
sin_fun                                internal static bit(9)                   initial dcl 11-8
sind_fun                               internal static bit(9)                   initial dcl 11-8
skip_format                            internal static bit(9)                   initial dcl 11-8
source_node                            internal static bit(9)                   initial dcl 1-5
sqrt_fun                               internal static bit(9)                   initial dcl 11-8
stack_ptr                              internal static bit(9)                   initial dcl 11-8
stackbaseptr_fun                       internal static bit(9)                   initial dcl 11-8
stackframeptr_fun                      internal static bit(9)                   initial dcl 11-8
stacq_fun                              internal static bit(9)                   initial dcl 11-8
statement_node                         internal static bit(9)                   initial dcl 1-5
std_arg_list                           internal static bit(9)                   initial dcl 11-8
std_entry                              internal static bit(9)                   initial dcl 11-8
std_return                             internal static bit(9)                   initial dcl 11-8
stop                                   internal static bit(9)                   initial dcl 11-8
stream_prep                            internal static bit(9)                   initial dcl 11-8
sub                                    internal static bit(9)                   initial dcl 11-8
symbol_node                            internal static bit(9)                   initial dcl 1-5
tan_fun                                internal static bit(9)                   initial dcl 11-8
tand_fun                               internal static bit(9)                   initial dcl 11-8
temporary_node                         internal static bit(9)                   initial dcl 1-5
terminate_trans                        internal static bit(9)                   initial dcl 11-8
token_node                             internal static bit(9)                   initial dcl 1-5
token_to_binary                 000000 constant        entry                    external dcl 5-459
translate_fun                          internal static bit(9)                   initial dcl 11-8
trunc_fun                              internal static bit(9)                   initial dcl 11-8
unlock_file                            internal static bit(9)                   initial dcl 11-8
unpack                                 internal static bit(9)                   initial dcl 11-8
vclock_fun                             internal static bit(9)                   initial dcl 11-8
verify_fun                             internal static bit(9)                   initial dcl 11-8
verify_ltrim_fun                       internal static bit(9)                   initial dcl 11-8
verify_rev_fun                         internal static bit(9)                   initial dcl 11-8
verify_rtrim_fun                       internal static bit(9)                   initial dcl 11-8
word_to_mod2                           internal static bit(9)                   initial dcl 11-8
word_to_mod4                           internal static bit(9)                   initial dcl 11-8
word_to_mod8                           internal static bit(9)                   initial dcl 11-8
wordno_fun                             internal static bit(9)                   initial dcl 11-8
write_file                             internal static bit(9)                   initial dcl 11-8
x_format                               internal static bit(9)                   initial dcl 11-8
xor_bits                               internal static bit(9)                   initial dcl 11-8

NAME DECLARED BY EXPLICIT CONTEXT.
copy_unique_expression          000014 constant        entry                    external dcl 11

THERE WERE NO NAMES DECLARED BY CONTEXT OR IMPLICATION.

STORAGE REQUIREMENTS FOR THIS PROGRAM.

	Object	Text	Link	Symbol	Defs	Static
Start          0       0       456         476     376         466
Length      1102     376        20         370      57           0

BLOCK NAME	         STACK SIZE     TYPE		WHY NONQUICK/WHO SHARES STACK FRAME
copy_unique_expression              102 external procedure  is an external procedure.

STORAGE FOR AUTOMATIC VARIABLES.

STACK FRAME                 LOC IDENTIFIER                  BLOCK NAME
copy_unique_expression   000100 arg                         copy_unique_expression
                         000102 p                           copy_unique_expression
                         000104 q                           copy_unique_expression
                         000106 i                           copy_unique_expression
                         000107 n                           copy_unique_expression

THE FOLLOWING EXTERNAL OPERATORS ARE USED BY THIS PROGRAM.
call_ext_out        return_mac          ext_entry

THE FOLLOWING EXTERNAL ENTRIES ARE CALLED BY THIS PROGRAM.
copy_unique_expression        create_list                   create_operator               create_reference

NO EXTERNAL VARIABLES ARE USED BY THIS PROGRAM.


   LINE    LOC      LINE    LOC      LINE    LOC      LINE    LOC      LINE    LOC      LINE    LOC      LINE    LOC
     11 000010        30 000021        32 000025        34 000033        36 000040        39 000046        40 000060
     41 000065        43 000072        45 000113        47 000135        50 000157        53 000163        55 000165
     56 000171        57 000207        59 000221        60 000231        61 000247        63 000251        66 000262
     67 000265        68 000273        72 000301        75 000305        77 000307        78 000323        80 000335
     81 000347        82 000365        84 000367        87 000373


                                          -----------------------------------------------------------


Historical Background

This edition of the Multics software materials and documentation is provided and donated
to Massachusetts Institute of Technology by Group BULL including BULL HN Information Systems Inc.
as a contribution to computer science knowledge.
This donation is made also to give evidence of the common contributions of Massachusetts Institute of Technology,
Bell Laboratories, General Electric, Honeywell Information Systems Inc., Honeywell BULL Inc., Groupe BULL
and BULL HN Information Systems Inc. to the development of this operating system.
Multics development was initiated by Massachusetts Institute of Technology Project MAC (1963-1970),
renamed the MIT Laboratory for Computer Science and Artificial Intelligence in the mid 1970s, under the leadership
of Professor Fernando Jose Corbato. Users consider that Multics provided the best software architecture
for managing computer hardware properly and for executing programs. Many subsequent operating systems
incorporated Multics principles.
Multics was distributed in 1975 to 2000 by Group Bull in Europe , and in the U.S. by Bull HN Information Systems Inc.,
as successor in interest by change in name only to Honeywell Bull Inc. and Honeywell Information Systems Inc. .

                                          -----------------------------------------------------------

Permission to use, copy, modify, and distribute these programs and their documentation for any purpose and without
fee is hereby granted,provided that the below copyright notice and historical background appear in all copies
and that both the copyright notice and historical background and this permission notice appear in supporting
documentation, and that the names of MIT, HIS, BULL or BULL HN not be used in advertising or publicity pertaining
to distribution of the programs without specific prior written permission.
    Copyright 1972 by Massachusetts Institute of Technology and Honeywell Information Systems Inc.
    Copyright 2006 by BULL HN Information Systems Inc.
    Copyright 2006 by Bull SAS
    All Rights Reserved
