	COMPILATION LISTING OF SEGMENT create_default
	Compiled by: Multics PL/I Compiler, Release 28d, of September 14, 1983
	Compiled at: Honeywell LCPD Phoenix, System M
	Compiled on: 10/03/83  1603.7 mst Mon
	    Options: optimize map

        1 /* ***********************************************************
        2*   *                                                         *
        3*   * Copyright, (C) Honeywell Information Systems Inc., 1982 *
        4*   *                                                         *
        5*   * Copyright (c) 1972 by Massachusetts Institute of        *
        6*   * Technology and Honeywell Information Systems, Inc.      *
        7*   *                                                         *
        8*   *********************************************************** */
        9
       10
       11 create_default: proc returns(ptr);
       12
       13 /*	Modified on:	April 1977 by RHS for new allocation methods */
       14
       15 dcl	1 pl1_nodes_template_$default_template external like default aligned;
       16
       17 dcl	d ptr;
       18 dcl	null builtin;
       19 dcl	pl1_stat_$node_uses(32) fixed bin ext;
       20
  1     1 /* BEGIN INCLUDE FILE ... pl1_tree_areas.incl.pl1 */
  1     2
  1     3 /* format: style3 */
  1     4 dcl	tree_area		area based (pl1_stat_$tree_area_ptr);
  1     5 dcl	xeq_tree_area	area based (pl1_stat_$xeq_tree_area_ptr);
  1     6
  1     7 dcl	pl1_stat_$tree_area_ptr
  1     8 			ptr ext static,
  1     9 	pl1_stat_$xeq_tree_area_ptr
  1    10 			ptr ext static;
  1    11
  1    12 /* END INCLUDE FILE ... op_codes.incl.pl1 */
       21
  2     1
  2     2 dcl	1 default			based aligned,
  2     3 	2 node_type		bit(9) unaligned,
  2     4 	2 source_id		structure unaligned,
  2     5 	  3 file_number		bit(8),
  2     6 	  3 line_number		bit(14),
  2     7 	  3 statement_number	bit(5),
  2     8 	2 next			ptr unaligned,
  2     9 	2 predicate		ptr unaligned,
  2    10 	2 symbol			ptr unaligned,
  2    11 	2 system			bit(1) unaligned,
  2    12 	2 error			bit(1) unaligned,
  2    13 	2 no_defaults		bit(1) unaligned,
  2    14 	2 reserved		bit(29) unaligned;
       22
  3     1 /* BEGIN INCLUDE FILE ... nodes.incl.pl1 */
  3     2
  3     3 /* Modified: 26 Dec 1979 by PCK to implement by name assignment */
  3     4
  3     5 dcl (	block_node		initial("000000001"b),
  3     6 	statement_node		initial("000000010"b),
  3     7 	operator_node		initial("000000011"b),
  3     8 	reference_node		initial("000000100"b),
  3     9 	token_node		initial("000000101"b),
  3    10 	symbol_node		initial("000000110"b),
  3    11 	context_node		initial("000000111"b),
  3    12 	array_node		initial("000001000"b),
  3    13 	bound_node		initial("000001001"b),
  3    14 	format_value_node		initial("000001010"b),
  3    15 	list_node			initial("000001011"b),
  3    16 	default_node		initial("000001100"b),
  3    17 	machine_state_node		initial("000001101"b),
  3    18 	source_node		initial("000001110"b),
  3    19 	label_node		initial("000001111"b),
  3    20 	cross_reference_node	initial("000010000"b),
  3    21 	sf_par_node		initial("000010001"b),
  3    22 	temporary_node		initial("000010010"b),
  3    23 	label_array_element_node	initial("000010011"b),
  3    24 	by_name_agg_node		initial("000010100"b))
  3    25 				bit(9) internal static aligned options(constant);
  3    26
  3    27 dcl	1 node			based aligned,
  3    28 	2 type			unal bit(9),
  3    29 	2 source_id		unal structure,
  3    30 	  3 file_number		bit(8),
  3    31 	  3 line_number		bit(14),
  3    32 	  3 statement_number	bit(5);
  3    33
  3    34 /* END INCLUDE FILE ... nodes.incl.pl1 */
       23
       24
       25 	pl1_stat_$node_uses(12) = pl1_stat_$node_uses(12) + 1;
       26 	allocate default in(tree_area) set(d);
       27
       28 	d->default = pl1_nodes_template_$default_template;
       29
       30 	return(d);
       31 end create_default;
	SOURCE FILES USED IN THIS COMPILATION.

LINE      NUMBER  DATE MODIFIED     NAME			PATHNAME
             0    10/03/83  1007.2  create_default.pl1                >spec>on>pl128d>create_default.pl1
21           1    07/21/80  1546.3  pl1_tree_areas.incl.pl1           >ldd>include>pl1_tree_areas.incl.pl1
22           2    05/06/74  1742.2  default.incl.pl1                  >ldd>include>default.incl.pl1
23           3    07/21/80  1546.3  nodes.incl.pl1                    >ldd>include>nodes.incl.pl1
	NAMES DECLARED IN THIS COMPILATION.

IDENTIFIER	     OFFSET    LOC STORAGE CLASS   DATA TYPE		ATTRIBUTES AND REFERENCES
								(* indicates a set context)

NAMES DECLARED BY DECLARE STATEMENT.
d                               000100 automatic       pointer                  dcl 17 set ref 26* 28 30
default                                based           structure                level 1 dcl 2-2 set ref 26 28*
pl1_nodes_template_$default_template
                                000010 external static structure                level 1 dcl 15 ref 28
pl1_stat_$node_uses             000012 external static fixed bin(17,0)          array dcl 19 set ref 25* 25
pl1_stat_$tree_area_ptr         000014 external static pointer                  dcl 1-7 ref 26
tree_area                              based           area(1024)               dcl 1-4 ref 26

NAMES DECLARED BY DECLARE STATEMENT AND NEVER REFERENCED.
array_node                             internal static bit(9)                   initial dcl 3-5
block_node                             internal static bit(9)                   initial dcl 3-5
bound_node                             internal static bit(9)                   initial dcl 3-5
by_name_agg_node                       internal static bit(9)                   initial dcl 3-5
context_node                           internal static bit(9)                   initial dcl 3-5
cross_reference_node                   internal static bit(9)                   initial dcl 3-5
default_node                           internal static bit(9)                   initial dcl 3-5
format_value_node                      internal static bit(9)                   initial dcl 3-5
label_array_element_node               internal static bit(9)                   initial dcl 3-5
label_node                             internal static bit(9)                   initial dcl 3-5
list_node                              internal static bit(9)                   initial dcl 3-5
machine_state_node                     internal static bit(9)                   initial dcl 3-5
node                                   based           structure                level 1 dcl 3-27
null                                                   builtin function         dcl 18
operator_node                          internal static bit(9)                   initial dcl 3-5
pl1_stat_$xeq_tree_area_ptr            external static pointer                  dcl 1-7
reference_node                         internal static bit(9)                   initial dcl 3-5
sf_par_node                            internal static bit(9)                   initial dcl 3-5
source_node                            internal static bit(9)                   initial dcl 3-5
statement_node                         internal static bit(9)                   initial dcl 3-5
symbol_node                            internal static bit(9)                   initial dcl 3-5
temporary_node                         internal static bit(9)                   initial dcl 3-5
token_node                             internal static bit(9)                   initial dcl 3-5
xeq_tree_area                          based           area(1024)               dcl 1-5

NAME DECLARED BY EXPLICIT CONTEXT.
create_default                  000004 constant        entry                    external dcl 11

THERE WERE NO NAMES DECLARED BY CONTEXT OR IMPLICATION.

STORAGE REQUIREMENTS FOR THIS PROGRAM.

	Object	Text	Link	Symbol	Defs	Static
Start          0       0       114         132      32         124
Length       346      32        16         177      62           0

BLOCK NAME	         STACK SIZE     TYPE		WHY NONQUICK/WHO SHARES STACK FRAME
create_default                       66 external procedure  is an external procedure.

STORAGE FOR AUTOMATIC VARIABLES.

STACK FRAME                 LOC IDENTIFIER                  BLOCK NAME
create_default           000100 d                           create_default

THE FOLLOWING EXTERNAL OPERATORS ARE USED BY THIS PROGRAM.
return              ext_entry           alloc_based

NO EXTERNAL ENTRIES ARE CALLED BY THIS PROGRAM.

THE FOLLOWING EXTERNAL VARIABLES ARE USED BY THIS PROGRAM.
pl1_nodes_template_$default_template                        pl1_stat_$node_uses           pl1_stat_$tree_area_ptr


   LINE    LOC      LINE    LOC      LINE    LOC      LINE    LOC      LINE    LOC      LINE    LOC      LINE    LOC
     11 000001        25 000011        26 000013        28 000022        30 000027


                                          -----------------------------------------------------------


Historical Background

This edition of the Multics software materials and documentation is provided and donated
to Massachusetts Institute of Technology by Group BULL including BULL HN Information Systems Inc.
as a contribution to computer science knowledge.
This donation is made also to give evidence of the common contributions of Massachusetts Institute of Technology,
Bell Laboratories, General Electric, Honeywell Information Systems Inc., Honeywell BULL Inc., Groupe BULL
and BULL HN Information Systems Inc. to the development of this operating system.
Multics development was initiated by Massachusetts Institute of Technology Project MAC (1963-1970),
renamed the MIT Laboratory for Computer Science and Artificial Intelligence in the mid 1970s, under the leadership
of Professor Fernando Jose Corbato. Users consider that Multics provided the best software architecture
for managing computer hardware properly and for executing programs. Many subsequent operating systems
incorporated Multics principles.
Multics was distributed in 1975 to 2000 by Group Bull in Europe , and in the U.S. by Bull HN Information Systems Inc.,
as successor in interest by change in name only to Honeywell Bull Inc. and Honeywell Information Systems Inc. .

                                          -----------------------------------------------------------

Permission to use, copy, modify, and distribute these programs and their documentation for any purpose and without
fee is hereby granted,provided that the below copyright notice and historical background appear in all copies
and that both the copyright notice and historical background and this permission notice appear in supporting
documentation, and that the names of MIT, HIS, BULL or BULL HN not be used in advertising or publicity pertaining
to distribution of the programs without specific prior written permission.
    Copyright 1972 by Massachusetts Institute of Technology and Honeywell Information Systems Inc.
    Copyright 2006 by BULL HN Information Systems Inc.
    Copyright 2006 by Bull SAS
    All Rights Reserved
