ASSEMBLY LISTING OF SEGMENT >spec>on>pl128d>ctl_char.alm
ASSEMBLED ON:	10/03/83  1350.2 mst Mon
OPTIONS USED:	list
ASSEMBLED BY:	ALM Version  6.6  November 1982
ASSEMBLER CREATED:	09/21/83  1227.3 mst Wed

                                     1  " ***********************************************************
                                     2  " *                                                         *
                                     3  " * Copyright, (C) Honeywell Information Systems Inc., 1982 *
                                     4  " *                                                         *
                                     5  " * Copyright (c) 1972 by Massachusetts Institute of        *
                                     6  " * Technology and Honeywell Information Systems, Inc.      *
                                     7  " *                                                         *
                                     8  " ***********************************************************
                                     9
                                    10  " segment to define special characters for pl1
                                    11  "
    000000                          12  	name	ctl_char
                        000000      13  	segdef	ht
                        000001      14  	segdef	nl
                        000002      15  	segdef	ff
                                    16  "
    000000  aa   011000 000000      17  ht:	vfd	o9/11,27/0
    000001  aa   012000 000000      18  nl:	vfd	o9/12,27/0
    000002  aa   014000 000000      19  ff:	vfd	o9/14,27/0
                                    20  "
                                    21  	end

NO LITERALS

NAME DEFINITIONS FOR ENTRY POINTS AND SEGDEFS

    000004  5a   000003 000000
    000005  5a   000034 600000
    000006  aa   000000 000000
    000007  55   000011 000002
    000010  5a   000002 400003
    000011  55   000006 000011
    000012  aa  010 143 164 154
    000013  aa  137 143 150 141
    000014  aa  162 000 000 000
    000015  55   000015 000003
    000016  0a   000002 400000
    000017  55   000014 000003
    000020  aa  002 146 146 000         ff
    000021  55   000021 000011
    000022  0a   000001 400000
    000023  55   000020 000003
    000024  aa  002 156 154 000         nl
    000025  55   000025 000015
    000026  0a   000000 400000
    000027  55   000024 000003
    000030  aa  002 150 164 000         ht
    000031  55   000002 000021
    000032  6a   000000 400002
    000033  55   000030 000003
    000034  aa  014 163 171 155         symbol_table
    000035  aa  142 157 154 137
    000036  aa  164 141 142 154
    000037  aa  145 000 000 000

DEFINITIONS HASH TABLE

    000040  aa   000000 000015
    000041  aa   000000 000000
    000042  aa   000000 000000
    000043  aa   000000 000000
    000044  aa   000000 000000
    000045  5a   000015 000000
    000046  aa   000000 000000
    000047  5a   000025 000000
    000050  aa   000000 000000
    000051  5a   000011 000000
    000052  aa   000000 000000
    000053  aa   000000 000000
    000054  5a   000021 000000
    000055  aa   000000 000000

NO EXTERNAL NAMES

NO TRAP POINTER WORDS

TYPE PAIR BLOCKS

    000056  aa   000001 000000
    000057  aa   000000 000000

INTERNAL EXPRESSION WORDS

LINKAGE INFORMATION

    000000  aa   000000 000000
    000001  0a   000004 000000
    000002  aa   000000 000000
    000003  aa   000000 000000
    000004  aa   000000 000000
    000005  aa   000000 000000
    000006  22   000010 000010
    000007  a2   000000 000000
SYMBOL INFORMATION

SYMBOL TABLE HEADER

    000000  aa   000000 000001
    000001  aa   163171 155142
    000002  aa   164162 145145
    000003  aa   000000 000004
    000004  aa   000000 112143
    000005  aa   305203 523135
    000006  aa   000000 112162
    000007  aa   427074 601076
    000010  aa   141154 155040
    000011  aa   040040 040040
    000012  aa   000024 000040
    000013  aa   000034 000040
    000014  aa   000044 000100
    000015  aa   000002 000002
    000016  aa   000064 000000
    000017  aa   000000 000115
    000020  aa   000000 000101
    000021  aa   000000 000104
    000022  aa   000107 000101
    000023  aa   000064 000000
    000024  aa   101114 115040
    000025  aa   126145 162163
    000026  aa   151157 156040
    000027  aa   040066 056066
    000030  aa   040040 116157
    000031  aa   166145 155142
    000032  aa   145162 040061
    000033  aa   071070 062040
    000034  aa   107112 157150
    000035  aa   156163 157156
    000036  aa   056123 171163
    000037  aa   115141 151156
    000040  aa   164056 155040
    000041  aa   040040 040040
    000042  aa   040040 040040
    000043  aa   040040 040040
    000044  aa   154151 163164
    000045  aa   040040 040040
    000046  aa   040040 040040
    000047  aa   040040 040040
    000050  aa   040040 040040
    000051  aa   040040 040040
    000052  aa   040040 040040
    000053  aa   040040 040040
    000054  aa   040040 040040
    000055  aa   040040 040040
    000056  aa   040040 040040
    000057  aa   040040 040040
    000060  aa   040040 040040
    000061  aa   040040 040040
    000062  aa   040040 040040
    000063  aa   040040 040040
    000064  aa   000000 000001
    000065  aa   000000 000001
    000066  aa   000072 000034
    000067  aa   121622 265350
    000070  aa   000000 112162
    000071  aa   263642 000000
    000072  aa   076163 160145          >spec>on>pl128d>ctl_char.alm
    000073  aa   143076 157156
    000074  aa   076160 154061
    000075  aa   062070 144076
    000076  aa   143164 154137
    000077  aa   143150 141162
    000100  aa   056141 154155
               MULTICS ASSEMBLY CROSS REFERENCE LISTING

   Value        Symbol                   Source file   Line number

           2    ff                       ctl_char:      15,   19.
           0    ht                       ctl_char:      13,   17.
           1    nl                       ctl_char:      14,   18.


NO FATAL ERRORS


                                          -----------------------------------------------------------


Historical Background

This edition of the Multics software materials and documentation is provided and donated
to Massachusetts Institute of Technology by Group BULL including BULL HN Information Systems Inc.
as a contribution to computer science knowledge.
This donation is made also to give evidence of the common contributions of Massachusetts Institute of Technology,
Bell Laboratories, General Electric, Honeywell Information Systems Inc., Honeywell BULL Inc., Groupe BULL
and BULL HN Information Systems Inc. to the development of this operating system.
Multics development was initiated by Massachusetts Institute of Technology Project MAC (1963-1970),
renamed the MIT Laboratory for Computer Science and Artificial Intelligence in the mid 1970s, under the leadership
of Professor Fernando Jose Corbato. Users consider that Multics provided the best software architecture
for managing computer hardware properly and for executing programs. Many subsequent operating systems
incorporated Multics principles.
Multics was distributed in 1975 to 2000 by Group Bull in Europe , and in the U.S. by Bull HN Information Systems Inc.,
as successor in interest by change in name only to Honeywell Bull Inc. and Honeywell Information Systems Inc. .

                                          -----------------------------------------------------------

Permission to use, copy, modify, and distribute these programs and their documentation for any purpose and without
fee is hereby granted,provided that the below copyright notice and historical background appear in all copies
and that both the copyright notice and historical background and this permission notice appear in supporting
documentation, and that the names of MIT, HIS, BULL or BULL HN not be used in advertising or publicity pertaining
to distribution of the programs without specific prior written permission.
    Copyright 1972 by Massachusetts Institute of Technology and Honeywell Information Systems Inc.
    Copyright 2006 by BULL HN Information Systems Inc.
    Copyright 2006 by Bull SAS
    All Rights Reserved
