ASSEMBLY LISTING OF SEGMENT >spec>temp>famis1>data_format_util_.alm
ASSEMBLED ON:	01/03/85  1426.9 mst Thu
OPTIONS USED:	list
ASSEMBLED BY:	ALM Version  6.6  November 1982
ASSEMBLER CREATED:	09/21/83  1227.3 mst Wed

                                     1  " ***********************************************************
                                     2  " *                                                         *
                                     3  " * Copyright, (C) Honeywell Information Systems Inc., 1983 *
                                     4  " *                                                         *
                                     5  " ***********************************************************
    000000                           6  	name	data_format_util_
                                     7  "
                                     8  " Written by Matthew Pierret, 04/12/83.
                                     9  "
                                    10  " Modified:
                                    11  " 12/13/82 by Lindsey Spratt: Changed to reference
                                    12  "	    dmu_get_data_bit_length$dmu_get_data_bit_length.
                                    13  " 02/09/83 by Lindsey Spratt: Changed cv_string_to_vector to reference
                                    14  "	    dmu_cv_string_to_vector$old, add a (temporary) new entry named
                                    15  "	    new_cv_string_to_vector which references
                                    16  "	    dmu_cv_string_to_vector$new.
                                    17  " 03/23/83 by Lindsey Spratt: Set up the compare_(vector_to_string
                                    18  "	    string_to_string dim_to_field field_to_field) entries.
                                    19  " 05/06/83 by Lindsey Spratt: Added the display_string entry.
                                    20  " 10/14/83 by Matthew Pierret: Changed from data_mgmt_util_ to
                                    21  "             data_format_util_.  Added dim_table entries.
                                    22  " 09/19/84 by Matthew Pierret: Changed targets to be module_name$module_name
                                    23  "             instead of module_name$module_name_minus_prefix.
                                    24  "
                                    25  "
                                    26  " Macro to generate a call to an external entrypoint in the manager
                                    27
                                    28  	macro	ext_transfer
                              1     29  	segdef	&1
                              2     30  &1:	getlp
                              3     31  	tra	&2
                              4     32
                              5     33  	&end
                                    34
                                    35            ext_transfer build_sequential_spec,dmu_build_sequential_spec$dmu_build_sequential_spec
                        000000          	segdef	build_sequential_spec
    000000  aa  7 00046 2721 20         build_sequential_spec:	getlp
    000001  4a  4 00010 7101 20         	tra	dmu_build_sequential_spec$dmu_build_sequential_spec

                                    36            ext_transfer cv_dim_to_dim_table,dfu_cv_dim_to_dim_table$dfu_cv_dim_to_dim_table
                        000002          	segdef	cv_dim_to_dim_table
    000002  aa  7 00046 2721 20         cv_dim_to_dim_table:	getlp
    000003  4a  4 00012 7101 20         	tra	dfu_cv_dim_to_dim_table$dfu_cv_dim_to_dim_table

                                    37            ext_transfer cv_dim_to_field_table,dfu_cv_dim_to_field_table$dfu_cv_dim_to_field_table
                        000004          	segdef	cv_dim_to_field_table
    000004  aa  7 00046 2721 20         cv_dim_to_field_table:	getlp
    000005  4a  4 00014 7101 20         	tra	dfu_cv_dim_to_field_table$dfu_cv_dim_to_field_table

                                    38            ext_transfer cv_field_to_dim_table,dfu_cv_field_to_dim_table$dfu_cv_field_to_dim_table
                        000006          	segdef	cv_field_to_dim_table
    000006  aa  7 00046 2721 20         cv_field_to_dim_table:	getlp
    000007  4a  4 00016 7101 20         	tra	dfu_cv_field_to_dim_table$dfu_cv_field_to_dim_table

                                    39            ext_transfer cv_attr_to_dim_table,dfu_cv_attr_to_dim_table$dfu_cv_attr_to_dim_table
                        000010          	segdef	cv_attr_to_dim_table
    000010  aa  7 00046 2721 20         cv_attr_to_dim_table:	getlp
    000011  4a  4 00020 7101 20         	tra	dfu_cv_attr_to_dim_table$dfu_cv_attr_to_dim_table

                                    40            ext_transfer cv_tva_to_dim_table,dfu_cv_tva_to_dim_table$dfu_cv_tva_to_dim_table
                        000012          	segdef	cv_tva_to_dim_table
    000012  aa  7 00046 2721 20         cv_tva_to_dim_table:	getlp
    000013  4a  4 00022 7101 20         	tra	dfu_cv_tva_to_dim_table$dfu_cv_tva_to_dim_table

                                    41  	ext_transfer cv_typed_array_to_table,dmu_cv_typed_array_to_table$dmu_cv_typed_array_to_table
                        000014          	segdef	cv_typed_array_to_table
    000014  aa  7 00046 2721 20         cv_typed_array_to_table:	getlp
    000015  4a  4 00024 7101 20         	tra	dmu_cv_typed_array_to_table$dmu_cv_typed_array_to_table

                                    42  	ext_transfer cv_table_to_typed_array,dmu_cv_table_to_typed_array$dmu_cv_table_to_typed_array
                        000016          	segdef	cv_table_to_typed_array
    000016  aa  7 00046 2721 20         cv_table_to_typed_array:	getlp
    000017  4a  4 00026 7101 20         	tra	dmu_cv_table_to_typed_array$dmu_cv_table_to_typed_array

                                    43  	ext_transfer cv_string_to_vector,dmu_cv_string_to_vector$old
                        000020          	segdef	cv_string_to_vector
    000020  aa  7 00046 2721 20         cv_string_to_vector:	getlp
    000021  4a  4 00030 7101 20         	tra	dmu_cv_string_to_vector$old

                                    44  	ext_transfer new_cv_string_to_vector,dmu_cv_string_to_vector$new
                        000022          	segdef	new_cv_string_to_vector
    000022  aa  7 00046 2721 20         new_cv_string_to_vector:	getlp
    000023  4a  4 00032 7101 20         	tra	dmu_cv_string_to_vector$new

                                    45  	ext_transfer cv_vector_to_string,dmu_cv_vector_to_string$dmu_cv_vector_to_string
                        000024          	segdef	cv_vector_to_string
    000024  aa  7 00046 2721 20         cv_vector_to_string:	getlp
    000025  4a  4 00034 7101 20         	tra	dmu_cv_vector_to_string$dmu_cv_vector_to_string

                                    46  	ext_transfer compare_string_to_string,dmu_compare_strings$dmu_compare_strings
                        000026          	segdef	compare_string_to_string
    000026  aa  7 00046 2721 20         compare_string_to_string:	getlp
    000027  4a  4 00036 7101 20         	tra	dmu_compare_strings$dmu_compare_strings

                                    47  	ext_transfer compare_vector_to_string,dmu_compare_vector_to_str$dmu_compare_vector_to_str
                        000030          	segdef	compare_vector_to_string
    000030  aa  7 00046 2721 20         compare_vector_to_string:	getlp
    000031  4a  4 00040 7101 20         	tra	dmu_compare_vector_to_str$dmu_compare_vector_to_str

                                    48  	ext_transfer compare_dim_to_field,dmu_compare_values$dmu_compare_values
                        000032          	segdef	compare_dim_to_field
    000032  aa  7 00046 2721 20         compare_dim_to_field:	getlp
    000033  4a  4 00042 7101 20         	tra	dmu_compare_values$dmu_compare_values

                                    49  	ext_transfer compare_field_to_field,dmu_compare_values$field_to_field
                        000034          	segdef	compare_field_to_field
    000034  aa  7 00046 2721 20         compare_field_to_field:	getlp
    000035  4a  4 00044 7101 20         	tra	dmu_compare_values$field_to_field

                                    50            ext_transfer compare_sequential,dmu_compare_sequential$dmu_compare_sequential
                        000036          	segdef	compare_sequential
    000036  aa  7 00046 2721 20         compare_sequential:	getlp
    000037  4a  4 00046 7101 20         	tra	dmu_compare_sequential$dmu_compare_sequential

                                    51            ext_transfer general_modify_string,dmu_general_modify_string$dmu_general_modify_string
                        000040          	segdef	general_modify_string
    000040  aa  7 00046 2721 20         general_modify_string:	getlp
    000041  4a  4 00050 7101 20         	tra	dmu_general_modify_string$dmu_general_modify_string

                                    52  	ext_transfer get_data_bit_length,dmu_get_data_bit_length$dmu_get_data_bit_length
                        000042          	segdef	get_data_bit_length
    000042  aa  7 00046 2721 20         get_data_bit_length:	getlp
    000043  4a  4 00052 7101 20         	tra	dmu_get_data_bit_length$dmu_get_data_bit_length

                                    53  	ext_transfer display_string,dmu_display_string$dmu_display_string
                        000044          	segdef	display_string
    000044  aa  7 00046 2721 20         display_string:	getlp
    000045  4a  4 00054 7101 20         	tra	dmu_display_string$dmu_display_string

                                    54
                                    55  	end

NO LITERALS

NAME DEFINITIONS FOR ENTRY POINTS AND SEGDEFS

    000046  5a   000003 000000
    000047  5a   000267 600000
    000050  aa   000000 000000
    000051  55   000013 000002
    000052  5a   000002 400003
    000053  55   000006 000013
    000054  aa  021 144 141 164
    000055  aa  141 137 146 157
    000056  aa  162 155 141 164
    000057  aa  137 165 164 151
    000060  aa  154 137 000 000
    000061  55   000022 000003
    000062  0a   000044 400000
    000063  55   000016 000003
    000064  aa  016 144 151 163         display_string
    000065  aa  160 154 141 171
    000066  aa  137 163 164 162
    000067  aa  151 156 147 000
    000070  55   000032 000013
    000071  0a   000042 400000
    000072  55   000025 000003
    000073  aa  023 147 145 164         get_data_bit_length
    000074  aa  137 144 141 164
    000075  aa  141 137 142 151
    000076  aa  164 137 154 145
    000077  aa  156 147 164 150
    000100  55   000043 000022
    000101  0a   000040 400000
    000102  55   000035 000003
    000103  aa  025 147 145 156         general_modify_string
    000104  aa  145 162 141 154
    000105  aa  137 155 157 144
    000106  aa  151 146 171 137
    000107  aa  163 164 162 151
    000110  aa  156 147 000 000
    000111  55   000053 000032
    000112  0a   000036 400000
    000113  55   000046 000003
    000114  aa  022 143 157 155         compare_sequential
    000115  aa  160 141 162 145
    000116  aa  137 163 145 161
    000117  aa  165 145 156 164
    000120  aa  151 141 154 000
    000121  55   000064 000043
    000122  0a   000034 400000
    000123  55   000056 000003
    000124  aa  026 143 157 155         compare_field_to_field
    000125  aa  160 141 162 145
    000126  aa  137 146 151 145
    000127  aa  154 144 137 164
    000130  aa  157 137 146 151
    000131  aa  145 154 144 000
    000132  55   000075 000053
    000133  0a   000032 400000
    000134  55   000067 000003
    000135  aa  024 143 157 155         compare_dim_to_field
    000136  aa  160 141 162 145
    000137  aa  137 144 151 155
    000140  aa  137 164 157 137
    000141  aa  146 151 145 154
    000142  aa  144 000 000 000
    000143  55   000107 000064
    000144  0a   000030 400000
    000145  55   000100 000003
    000146  aa  030 143 157 155         compare_vector_to_string
    000147  aa  160 141 162 145
    000150  aa  137 166 145 143
    000151  aa  164 157 162 137
    000152  aa  164 157 137 163
    000153  aa  164 162 151 156
    000154  aa  147 000 000 000
    000155  55   000121 000075
    000156  0a   000026 400000
    000157  55   000112 000003
    000160  aa  030 143 157 155         compare_string_to_string
    000161  aa  160 141 162 145
    000162  aa  137 163 164 162
    000163  aa  151 156 147 137
    000164  aa  164 157 137 163
    000165  aa  164 162 151 156
    000166  aa  147 000 000 000
    000167  55   000131 000107
    000170  0a   000024 400000
    000171  55   000124 000003
    000172  aa  023 143 166 137         cv_vector_to_string
    000173  aa  166 145 143 164
    000174  aa  157 162 137 164
    000175  aa  157 137 163 164
    000176  aa  162 151 156 147
    000177  55   000142 000121
    000200  0a   000022 400000
    000201  55   000134 000003
    000202  aa  027 156 145 167         new_cv_string_to_vector
    000203  aa  137 143 166 137
    000204  aa  163 164 162 151
    000205  aa  156 147 137 164
    000206  aa  157 137 166 145
    000207  aa  143 164 157 162
    000210  55   000152 000131
    000211  0a   000020 400000
    000212  55   000145 000003
    000213  aa  023 143 166 137         cv_string_to_vector
    000214  aa  163 164 162 151
    000215  aa  156 147 137 164
    000216  aa  157 137 166 145
    000217  aa  143 164 157 162
    000220  55   000163 000142
    000221  0a   000016 400000
    000222  55   000155 000003
    000223  aa  027 143 166 137         cv_table_to_typed_array
    000224  aa  164 141 142 154
    000225  aa  145 137 164 157
    000226  aa  137 164 171 160
    000227  aa  145 144 137 141
    000230  aa  162 162 141 171
    000231  55   000174 000152
    000232  0a   000014 400000
    000233  55   000166 000003
    000234  aa  027 143 166 137         cv_typed_array_to_table
    000235  aa  164 171 160 145
    000236  aa  144 137 141 162
    000237  aa  162 141 171 137
    000240  aa  164 157 137 164
    000241  aa  141 142 154 145
    000242  55   000204 000163
    000243  0a   000012 400000
    000244  55   000177 000003
    000245  aa  023 143 166 137         cv_tva_to_dim_table
    000246  aa  164 166 141 137
    000247  aa  164 157 137 144
    000250  aa  151 155 137 164
    000251  aa  141 142 154 145
    000252  55   000215 000174
    000253  0a   000010 400000
    000254  55   000207 000003
    000255  aa  024 143 166 137         cv_attr_to_dim_table
    000256  aa  141 164 164 162
    000257  aa  137 164 157 137
    000260  aa  144 151 155 137
    000261  aa  164 141 142 154
    000262  aa  145 000 000 000
    000263  55   000226 000204
    000264  0a   000006 400000
    000265  55   000220 000003
    000266  aa  025 143 166 137         cv_field_to_dim_table
    000267  aa  146 151 145 154
    000270  aa  144 137 164 157
    000271  aa  137 144 151 155
    000272  aa  137 164 141 142
    000273  aa  154 145 000 000
    000274  55   000237 000215
    000275  0a   000004 400000
    000276  55   000231 000003
    000277  aa  025 143 166 137         cv_dim_to_field_table
    000300  aa  144 151 155 137
    000301  aa  164 157 137 146
    000302  aa  151 145 154 144
    000303  aa  137 164 141 142
    000304  aa  154 145 000 000
    000305  55   000247 000226
    000306  0a   000002 400000
    000307  55   000242 000003
    000310  aa  023 143 166 137         cv_dim_to_dim_table
    000311  aa  144 151 155 137
    000312  aa  164 157 137 144
    000313  aa  151 155 137 164
    000314  aa  141 142 154 145
    000315  55   000260 000237
    000316  0a   000000 400000
    000317  55   000252 000003
    000320  aa  025 142 165 151         build_sequential_spec
    000321  aa  154 144 137 163
    000322  aa  145 161 165 145
    000323  aa  156 164 151 141
    000324  aa  154 137 163 160
    000325  aa  145 143 000 000
    000326  55   000002 000247
    000327  6a   000000 400002
    000330  55   000263 000003
    000331  aa  014 163 171 155         symbol_table
    000332  aa  142 157 154 137
    000333  aa  164 141 142 154
    000334  aa  145 000 000 000

DEFINITIONS HASH TABLE

    000335  aa   000000 000033
    000336  5a   000163 000000
    000337  5a   000215 000000
    000340  5a   000204 000000
    000341  5a   000121 000000
    000342  5a   000142 000000
    000343  5a   000174 000000
    000344  5a   000226 000000
    000345  5a   000237 000000
    000346  aa   000000 000000
    000347  aa   000000 000000
    000350  5a   000032 000000
    000351  5a   000247 000000
    000352  5a   000260 000000
    000353  aa   000000 000000
    000354  aa   000000 000000
    000355  5a   000013 000000
    000356  aa   000000 000000
    000357  aa   000000 000000
    000360  5a   000022 000000
    000361  5a   000075 000000
    000362  5a   000107 000000
    000363  5a   000053 000000
    000364  aa   000000 000000
    000365  5a   000064 000000
    000366  5a   000131 000000
    000367  5a   000043 000000
    000370  5a   000152 000000

EXTERNAL NAMES

    000371  aa  022 144 155 165         dmu_display_string
    000372  aa  137 144 151 163
    000373  aa  160 154 141 171
    000374  aa  137 163 164 162
    000375  aa  151 156 147 000
    000376  aa  027 144 155 165         dmu_get_data_bit_length
    000377  aa  137 147 145 164
    000400  aa  137 144 141 164
    000401  aa  141 137 142 151
    000402  aa  164 137 154 145
    000403  aa  156 147 164 150
    000404  aa  031 144 155 165         dmu_general_modify_string
    000405  aa  137 147 145 156
    000406  aa  145 162 141 154
    000407  aa  137 155 157 144
    000410  aa  151 146 171 137
    000411  aa  163 164 162 151
    000412  aa  156 147 000 000
    000413  aa  026 144 155 165         dmu_compare_sequential
    000414  aa  137 143 157 155
    000415  aa  160 141 162 145
    000416  aa  137 163 145 161
    000417  aa  165 145 156 164
    000420  aa  151 141 154 000
    000421  aa  016 146 151 145         field_to_field
    000422  aa  154 144 137 164
    000423  aa  157 137 146 151
    000424  aa  145 154 144 000
    000425  aa  022 144 155 165         dmu_compare_values
    000426  aa  137 143 157 155
    000427  aa  160 141 162 145
    000430  aa  137 166 141 154
    000431  aa  165 145 163 000
    000432  aa  031 144 155 165         dmu_compare_vector_to_str
    000433  aa  137 143 157 155
    000434  aa  160 141 162 145
    000435  aa  137 166 145 143
    000436  aa  164 157 162 137
    000437  aa  164 157 137 163
    000440  aa  164 162 000 000
    000441  aa  023 144 155 165         dmu_compare_strings
    000442  aa  137 143 157 155
    000443  aa  160 141 162 145
    000444  aa  137 163 164 162
    000445  aa  151 156 147 163
    000446  aa  027 144 155 165         dmu_cv_vector_to_string
    000447  aa  137 143 166 137
    000450  aa  166 145 143 164
    000451  aa  157 162 137 164
    000452  aa  157 137 163 164
    000453  aa  162 151 156 147
    000454  aa  003 156 145 167         new
    000455  aa  003 157 154 144         old
    000456  aa  027 144 155 165         dmu_cv_string_to_vector
    000457  aa  137 143 166 137
    000460  aa  163 164 162 151
    000461  aa  156 147 137 164
    000462  aa  157 137 166 145
    000463  aa  143 164 157 162
    000464  aa  033 144 155 165         dmu_cv_table_to_typed_array
    000465  aa  137 143 166 137
    000466  aa  164 141 142 154
    000467  aa  145 137 164 157
    000470  aa  137 164 171 160
    000471  aa  145 144 137 141
    000472  aa  162 162 141 171
    000473  aa  033 144 155 165         dmu_cv_typed_array_to_table
    000474  aa  137 143 166 137
    000475  aa  164 171 160 145
    000476  aa  144 137 141 162
    000477  aa  162 141 171 137
    000500  aa  164 157 137 164
    000501  aa  141 142 154 145
    000502  aa  027 144 146 165         dfu_cv_tva_to_dim_table
    000503  aa  137 143 166 137
    000504  aa  164 166 141 137
    000505  aa  164 157 137 144
    000506  aa  151 155 137 164
    000507  aa  141 142 154 145
    000510  aa  030 144 146 165         dfu_cv_attr_to_dim_table
    000511  aa  137 143 166 137
    000512  aa  141 164 164 162
    000513  aa  137 164 157 137
    000514  aa  144 151 155 137
    000515  aa  164 141 142 154
    000516  aa  145 000 000 000
    000517  aa  031 144 146 165         dfu_cv_field_to_dim_table
    000520  aa  137 143 166 137
    000521  aa  146 151 145 154
    000522  aa  144 137 164 157
    000523  aa  137 144 151 155
    000524  aa  137 164 141 142
    000525  aa  154 145 000 000
    000526  aa  031 144 146 165         dfu_cv_dim_to_field_table
    000527  aa  137 143 166 137
    000530  aa  144 151 155 137
    000531  aa  164 157 137 146
    000532  aa  151 145 154 144
    000533  aa  137 164 141 142
    000534  aa  154 145 000 000
    000535  aa  027 144 146 165         dfu_cv_dim_to_dim_table
    000536  aa  137 143 166 137
    000537  aa  144 151 155 137
    000540  aa  164 157 137 144
    000541  aa  151 155 137 164
    000542  aa  141 142 154 145
    000543  aa  031 144 155 165         dmu_build_sequential_spec
    000544  aa  137 142 165 151
    000545  aa  154 144 137 163
    000546  aa  145 161 165 145
    000547  aa  156 164 151 141
    000550  aa  154 137 163 160
    000551  aa  145 143 000 000

NO TRAP POINTER WORDS

TYPE PAIR BLOCKS

    000552  aa   000004 000000
    000553  55   000323 000323
    000554  aa   000004 000000
    000555  55   000330 000330
    000556  aa   000004 000000
    000557  55   000336 000336
    000560  aa   000004 000000
    000561  55   000345 000345
    000562  aa   000004 000000
    000563  55   000357 000353
    000564  aa   000004 000000
    000565  55   000357 000357
    000566  aa   000004 000000
    000567  55   000364 000364
    000570  aa   000004 000000
    000571  55   000373 000373
    000572  aa   000004 000000
    000573  55   000400 000400
    000574  aa   000004 000000
    000575  55   000410 000406
    000576  aa   000004 000000
    000577  55   000410 000407
    000600  aa   000004 000000
    000601  55   000416 000416
    000602  aa   000004 000000
    000603  55   000425 000425
    000604  aa   000004 000000
    000605  55   000434 000434
    000606  aa   000004 000000
    000607  55   000442 000442
    000610  aa   000004 000000
    000611  55   000451 000451
    000612  aa   000004 000000
    000613  55   000460 000460
    000614  aa   000004 000000
    000615  55   000467 000467
    000616  aa   000004 000000
    000617  55   000475 000475
    000620  aa   000001 000000
    000621  aa   000000 000000

INTERNAL EXPRESSION WORDS

    000622  5a   000504 000000
    000623  5a   000506 000000
    000624  5a   000510 000000
    000625  5a   000512 000000
    000626  5a   000514 000000
    000627  5a   000516 000000
    000630  5a   000520 000000
    000631  5a   000522 000000
    000632  5a   000524 000000
    000633  5a   000526 000000
    000634  5a   000530 000000
    000635  5a   000532 000000
    000636  5a   000534 000000
    000637  5a   000536 000000
    000640  5a   000540 000000
    000641  5a   000542 000000
    000642  5a   000544 000000
    000643  5a   000546 000000
    000644  5a   000550 000000
    000645  aa   000000 000000
LINKAGE INFORMATION

    000000  aa   000000 000000
    000001  0a   000046 000000
    000002  aa   000000 000000
    000003  aa   000000 000000
    000004  aa   000000 000000
    000005  aa   000000 000000
    000006  22   000010 000056
    000007  a2   000000 000000
    000010  9a   777770 0000 46         dmu_build_sequential_spec|dmu_build_sequential_spec
    000011  5a   000576 0000 00
    000012  9a   777766 0000 46         dfu_cv_dim_to_dim_table|dfu_cv_dim_to_dim_table
    000013  5a   000575 0000 00
    000014  9a   777764 0000 46         dfu_cv_dim_to_field_table|dfu_cv_dim_to_field_table
    000015  5a   000574 0000 00
    000016  9a   777762 0000 46         dfu_cv_field_to_dim_table|dfu_cv_field_to_dim_table
    000017  5a   000573 0000 00
    000020  9a   777760 0000 46         dfu_cv_attr_to_dim_table|dfu_cv_attr_to_dim_table
    000021  5a   000572 0000 00
    000022  9a   777756 0000 46         dfu_cv_tva_to_dim_table|dfu_cv_tva_to_dim_table
    000023  5a   000571 0000 00
    000024  9a   777754 0000 46         dmu_cv_typed_array_to_table|dmu_cv_typed_array_to_table
    000025  5a   000570 0000 00
    000026  9a   777752 0000 46         dmu_cv_table_to_typed_array|dmu_cv_table_to_typed_array
    000027  5a   000567 0000 00
    000030  9a   777750 0000 46         dmu_cv_string_to_vector|old
    000031  5a   000566 0000 00
    000032  9a   777746 0000 46         dmu_cv_string_to_vector|new
    000033  5a   000565 0000 00
    000034  9a   777744 0000 46         dmu_cv_vector_to_string|dmu_cv_vector_to_string
    000035  5a   000564 0000 00
    000036  9a   777742 0000 46         dmu_compare_strings|dmu_compare_strings
    000037  5a   000563 0000 00
    000040  9a   777740 0000 46         dmu_compare_vector_to_str|dmu_compare_vector_to_str
    000041  5a   000562 0000 00
    000042  9a   777736 0000 46         dmu_compare_values|dmu_compare_values
    000043  5a   000561 0000 00
    000044  9a   777734 0000 46         dmu_compare_values|field_to_field
    000045  5a   000560 0000 00
    000046  9a   777732 0000 46         dmu_compare_sequential|dmu_compare_sequential
    000047  5a   000557 0000 00
    000050  9a   777730 0000 46         dmu_general_modify_string|dmu_general_modify_string
    000051  5a   000556 0000 00
    000052  9a   777726 0000 46         dmu_get_data_bit_length|dmu_get_data_bit_length
    000053  5a   000555 0000 00
    000054  9a   777724 0000 46         dmu_display_string|dmu_display_string
    000055  5a   000554 0000 00
SYMBOL INFORMATION

SYMBOL TABLE HEADER

    000000  aa   000000 000001
    000001  aa   163171 155142
    000002  aa   164162 145145
    000003  aa   000000 000004
    000004  aa   000000 112143
    000005  aa   305203 523135
    000006  aa   000000 113262
    000007  aa   323732 411201
    000010  aa   141154 155040
    000011  aa   040040 040040
    000012  aa   000024 000040
    000013  aa   000034 000040
    000014  aa   000044 000100
    000015  aa   000002 000002
    000016  aa   000064 000000
    000017  aa   000000 000133
    000020  aa   000000 000104
    000021  aa   000000 000113
    000022  aa   000125 000104
    000023  aa   000064 000000
    000024  aa   101114 115040
    000025  aa   126145 162163
    000026  aa   151157 156040
    000027  aa   040066 056066
    000030  aa   040040 116157
    000031  aa   166145 155142
    000032  aa   145162 040061
    000033  aa   071070 062040
    000034  aa   107112 157150
    000035  aa   156163 157156
    000036  aa   056123 171163
    000037  aa   115141 151156
    000040  aa   164056 155040
    000041  aa   040040 040040
    000042  aa   040040 040040
    000043  aa   040040 040040
    000044  aa   154151 163164
    000045  aa   040040 040040
    000046  aa   040040 040040
    000047  aa   040040 040040
    000050  aa   040040 040040
    000051  aa   040040 040040
    000052  aa   040040 040040
    000053  aa   040040 040040
    000054  aa   040040 040040
    000055  aa   040040 040040
    000056  aa   040040 040040
    000057  aa   040040 040040
    000060  aa   040040 040040
    000061  aa   040040 040040
    000062  aa   040040 040040
    000063  aa   040040 040040
    000064  aa   000000 000001
    000065  aa   000000 000001
    000066  aa   000072 000047
    000067  aa   132620 757036
    000070  aa   000000 113262
    000071  aa   215446 000000
    000072  aa   076163 160145          >spec>temp>famis1>data_format_util_.alm
    000073  aa   143076 164145
    000074  aa   155160 076146
    000075  aa   141155 151163
    000076  aa   061076 144141
    000077  aa   164141 137146
    000100  aa   157162 155141
    000101  aa   164137 165164
    000102  aa   151154 137056
    000103  aa   141154 155040
               MULTICS ASSEMBLY CROSS REFERENCE LISTING

   Value        Symbol                   Source file   Line number

           0    build_sequential_spec    data_format_util_:   35.
          32    compare_dim_to_field     data_format_util_:   48.
          34    compare_field_to_field   data_format_util_:   49.
          36    compare_sequential       data_format_util_:   50.
          26    compare_string_to_string       data_format_util_:   46.
          30    compare_vector_to_string       data_format_util_:   47.
          10    cv_attr_to_dim_table     data_format_util_:   39.
           2    cv_dim_to_dim_table      data_format_util_:   36.
           4    cv_dim_to_field_table    data_format_util_:   37.
           6    cv_field_to_dim_table    data_format_util_:   38.
          20    cv_string_to_vector      data_format_util_:   43.
          16    cv_table_to_typed_array  data_format_util_:   42.
          12    cv_tva_to_dim_table      data_format_util_:   40.
          14    cv_typed_array_to_table  data_format_util_:   41.
          24    cv_vector_to_string      data_format_util_:   45.
                dfu_cv_attr_to_dim_table       data_format_util_:   39.
                dfu_cv_dim_to_dim_table  data_format_util_:   36.
                dfu_cv_dim_to_field_table      data_format_util_:   37.
                dfu_cv_field_to_dim_table      data_format_util_:   38.
                dfu_cv_tva_to_dim_table  data_format_util_:   40.
          44    display_string           data_format_util_:   53.
                dmu_build_sequential_spec      data_format_util_:   35.
                dmu_compare_sequential   data_format_util_:   50.
                dmu_compare_strings      data_format_util_:   46.
                dmu_compare_values       data_format_util_:   48,   49.
                dmu_compare_vector_to_str      data_format_util_:   47.
                dmu_cv_string_to_vector  data_format_util_:   43,   44.
                dmu_cv_table_to_typed_array    data_format_util_:   42.
                dmu_cv_typed_array_to_table    data_format_util_:   41.
                dmu_cv_vector_to_string  data_format_util_:   45.
                dmu_display_string       data_format_util_:   53.
                dmu_general_modify_string      data_format_util_:   51.
                dmu_get_data_bit_length  data_format_util_:   52.
                field_to_field           data_format_util_:   49.
          40    general_modify_string    data_format_util_:   51.
          42    get_data_bit_length      data_format_util_:   52.
                new                      data_format_util_:   44.
          22    new_cv_string_to_vector  data_format_util_:   44.
                old                      data_format_util_:   43.


NO FATAL ERRORS


                                          -----------------------------------------------------------


Historical Background

This edition of the Multics software materials and documentation is provided and donated
to Massachusetts Institute of Technology by Group BULL including BULL HN Information Systems Inc.
as a contribution to computer science knowledge.
This donation is made also to give evidence of the common contributions of Massachusetts Institute of Technology,
Bell Laboratories, General Electric, Honeywell Information Systems Inc., Honeywell BULL Inc., Groupe BULL
and BULL HN Information Systems Inc. to the development of this operating system.
Multics development was initiated by Massachusetts Institute of Technology Project MAC (1963-1970),
renamed the MIT Laboratory for Computer Science and Artificial Intelligence in the mid 1970s, under the leadership
of Professor Fernando Jose Corbato. Users consider that Multics provided the best software architecture
for managing computer hardware properly and for executing programs. Many subsequent operating systems
incorporated Multics principles.
Multics was distributed in 1975 to 2000 by Group Bull in Europe , and in the U.S. by Bull HN Information Systems Inc.,
as successor in interest by change in name only to Honeywell Bull Inc. and Honeywell Information Systems Inc. .

                                          -----------------------------------------------------------

Permission to use, copy, modify, and distribute these programs and their documentation for any purpose and without
fee is hereby granted,provided that the below copyright notice and historical background appear in all copies
and that both the copyright notice and historical background and this permission notice appear in supporting
documentation, and that the names of MIT, HIS, BULL or BULL HN not be used in advertising or publicity pertaining
to distribution of the programs without specific prior written permission.
    Copyright 1972 by Massachusetts Institute of Technology and Honeywell Information Systems Inc.
    Copyright 2006 by BULL HN Information Systems Inc.
    Copyright 2006 by Bull SAS
    All Rights Reserved
