	COMPILATION LISTING OF SEGMENT dcabs_
	Compiled by: Multics PL/I Compiler, Release 28d, of September 14, 1983
	Compiled at: Honeywell LCPD Phoenix, System M
	Compiled on: 10/03/83  1358.5 mst Mon
	    Options: optimize map

        1 /* ******************************************************
        2*   *                                                    *
        3*   *                                                    *
        4*   * Copyright (c) 1972 by Massachusetts Institute of   *
        5*   * Technology and Honeywell Information Systems, Inc. *
        6*   *                                                    *
        7*   *                                                    *
        8*   ****************************************************** */
        9
       10 dcabs_: proc (number) returns (float bin (63));
       11
       12 dcl  number complex float bin (63),
       13 	(abs, imag, real, sqrt) builtin,
       14     (r, x, y) float bin (63);
       15
       16 	r,
       17 	x = abs (real (number));
       18 	y = abs (imag (number));
       19
       20 	if y<x
       21 	     then do;
       22 	     x = y;
       23 	     y = r;
       24 	end;
       25
       26 	if y ^= 0.0e0
       27 	     then do;
       28 	     r = x/y;
       29 	     y = sqrt (r*r+1.0e0)*y;
       30 	end;
       31
       32 	return (y);
       33
       34      end dcabs_;
	SOURCE FILES USED IN THIS COMPILATION.

LINE      NUMBER  DATE MODIFIED     NAME			PATHNAME
             0    10/03/83  1004.5  dcabs_.pl1                        >spec>on>pl128d>dcabs_.pl1
	NAMES DECLARED IN THIS COMPILATION.

IDENTIFIER	     OFFSET    LOC STORAGE CLASS   DATA TYPE		ATTRIBUTES AND REFERENCES
								(* indicates a set context)

NAMES DECLARED BY DECLARE STATEMENT.
abs                                                    builtin function         dcl 12 ref 16 18
imag                                                   builtin function         dcl 12 ref 18
number                                 parameter       complex float bin(63)    dcl 12 ref 10 16 18
r                               000100 automatic       float bin(63)            dcl 12 set ref 16* 23 28* 29 29
real                                                   builtin function         dcl 12 ref 16
sqrt                                                   builtin function         dcl 12 ref 29
x                               000102 automatic       float bin(63)            dcl 12 set ref 16* 20 22* 28
y                               000104 automatic       float bin(63)            dcl 12 set ref 18* 20 22 23* 26 28 29* 29 32

NAME DECLARED BY EXPLICIT CONTEXT.
dcabs_                          000006 constant        entry                    external dcl 10

THERE WERE NO NAMES DECLARED BY CONTEXT OR IMPLICATION.

STORAGE REQUIREMENTS FOR THIS PROGRAM.

	Object	Text	Link	Symbol	Defs	Static
Start          0       0        74         104      50         104
Length       242      50        10         122      23           0

BLOCK NAME	         STACK SIZE     TYPE		WHY NONQUICK/WHO SHARES STACK FRAME
dcabs_                              102 external procedure  is an external procedure.

STORAGE FOR AUTOMATIC VARIABLES.

STACK FRAME                 LOC IDENTIFIER                  BLOCK NAME
dcabs_                   000100 r                           dcabs_
                         000102 x                           dcabs_
                         000104 y                           dcabs_

THE FOLLOWING EXTERNAL OPERATORS ARE USED BY THIS PROGRAM.
return              ext_entry           dsqrt

NO EXTERNAL ENTRIES ARE CALLED BY THIS PROGRAM.

NO EXTERNAL VARIABLES ARE USED BY THIS PROGRAM.


   LINE    LOC      LINE    LOC      LINE    LOC      LINE    LOC      LINE    LOC      LINE    LOC      LINE    LOC
     10 000002        16 000013        18 000021        20 000026        22 000030        23 000031        26 000033
     28 000035        29 000037        32 000045


                                          -----------------------------------------------------------


Historical Background

This edition of the Multics software materials and documentation is provided and donated
to Massachusetts Institute of Technology by Group BULL including BULL HN Information Systems Inc.
as a contribution to computer science knowledge.
This donation is made also to give evidence of the common contributions of Massachusetts Institute of Technology,
Bell Laboratories, General Electric, Honeywell Information Systems Inc., Honeywell BULL Inc., Groupe BULL
and BULL HN Information Systems Inc. to the development of this operating system.
Multics development was initiated by Massachusetts Institute of Technology Project MAC (1963-1970),
renamed the MIT Laboratory for Computer Science and Artificial Intelligence in the mid 1970s, under the leadership
of Professor Fernando Jose Corbato. Users consider that Multics provided the best software architecture
for managing computer hardware properly and for executing programs. Many subsequent operating systems
incorporated Multics principles.
Multics was distributed in 1975 to 2000 by Group Bull in Europe , and in the U.S. by Bull HN Information Systems Inc.,
as successor in interest by change in name only to Honeywell Bull Inc. and Honeywell Information Systems Inc. .

                                          -----------------------------------------------------------

Permission to use, copy, modify, and distribute these programs and their documentation for any purpose and without
fee is hereby granted,provided that the below copyright notice and historical background appear in all copies
and that both the copyright notice and historical background and this permission notice appear in supporting
documentation, and that the names of MIT, HIS, BULL or BULL HN not be used in advertising or publicity pertaining
to distribution of the programs without specific prior written permission.
    Copyright 1972 by Massachusetts Institute of Technology and Honeywell Information Systems Inc.
    Copyright 2006 by BULL HN Information Systems Inc.
    Copyright 2006 by Bull SAS
    All Rights Reserved
