	COMPILATION LISTING OF SEGMENT dcexp_
	Compiled by: Multics PL/I Compiler, Release 28d, of September 14, 1983
	Compiled at: Honeywell LCPD Phoenix, System M
	Compiled on: 10/03/83  1359.0 mst Mon
	    Options: optimize map

        1 /* ******************************************************
        2*   *                                                    *
        3*   *                                                    *
        4*   * Copyright (c) 1972 by Massachusetts Institute of   *
        5*   * Technology and Honeywell Information Systems, Inc. *
        6*   *                                                    *
        7*   *                                                    *
        8*   ****************************************************** */
        9
       10 dcexp_: proc (number) returns (complex float bin (63));
       11
       12 dcl (number, a, r) complex float bin (63);
       13
       14 dcl	(abs, cos, exp, imag, real, sin) builtin;
       15
       16 dcl  code_ ext entry (fixed bin (17));
       17
       18 	a = number;
       19
       20 	if real (a)>88.028e0
       21 	     then do;
       22 	     call code_ (68);
       23
       24 	     real (a) = 170141182.0e30;
       25 	end;
       26 	else real (a) = exp (real (a));
       27
       28 	if abs (imag (a)) >= 18104398509481984.0e0
       29 	     then do;
       30 	     call code_ (69);
       31
       32 	     return (0.0e0);
       33 	end;
       34
       35 	imag (r) = sin (imag (a))*real (a);
       36 	real (r) = cos (imag (a))*real (a);
       37
       38 	return (r);
       39
       40      end dcexp_;
	SOURCE FILES USED IN THIS COMPILATION.

LINE      NUMBER  DATE MODIFIED     NAME			PATHNAME
             0    10/03/83  1004.9  dcexp_.pl1                        >spec>on>pl128d>dcexp_.pl1
	NAMES DECLARED IN THIS COMPILATION.

IDENTIFIER	     OFFSET    LOC STORAGE CLASS   DATA TYPE		ATTRIBUTES AND REFERENCES
								(* indicates a set context)

NAMES DECLARED BY DECLARE STATEMENT.
a                               000100 automatic       complex float bin(63)    dcl 12 set ref 18* 20 24* 26* 26 28 35 35 36 36
abs                                                    builtin function         dcl 14 ref 28
code_                           000010 constant        entry                    external dcl 16 ref 22 30
cos                                                    builtin function         dcl 14 ref 36
exp                                                    builtin function         dcl 14 ref 26
imag                                                   builtin function         dcl 14 set ref 28 35* 35 36
number                                 parameter       complex float bin(63)    dcl 12 ref 10 18
r                               000104 automatic       complex float bin(63)    dcl 12 set ref 35* 36* 38
real                                                   builtin function         dcl 14 set ref 20 24* 26* 26 35 36* 36
sin                                                    builtin function         dcl 14 ref 35

NAME DECLARED BY EXPLICIT CONTEXT.
dcexp_                          000016 constant        entry                    external dcl 10

THERE WERE NO NAMES DECLARED BY CONTEXT OR IMPLICATION.

STORAGE REQUIREMENTS FOR THIS PROGRAM.

	Object	Text	Link	Symbol	Defs	Static
Start          0       0       152         164     121         162
Length       324     121        12         124      30           0

BLOCK NAME	         STACK SIZE     TYPE		WHY NONQUICK/WHO SHARES STACK FRAME
dcexp_                              110 external procedure  is an external procedure.

STORAGE FOR AUTOMATIC VARIABLES.

STACK FRAME                 LOC IDENTIFIER                  BLOCK NAME
dcexp_                   000100 a                           dcexp_
                         000104 r                           dcexp_

THE FOLLOWING EXTERNAL OPERATORS ARE USED BY THIS PROGRAM.
call_ext_out        return              ext_entry           dsin                dcos                dexp

THE FOLLOWING EXTERNAL ENTRIES ARE CALLED BY THIS PROGRAM.
code_

NO EXTERNAL VARIABLES ARE USED BY THIS PROGRAM.


   LINE    LOC      LINE    LOC      LINE    LOC      LINE    LOC      LINE    LOC      LINE    LOC      LINE    LOC
     10 000012        18 000023        20 000031        22 000034        24 000044        25 000046        26 000047
     28 000053        30 000060        32 000071        35 000100        36 000105        38 000112


                                          -----------------------------------------------------------


Historical Background

This edition of the Multics software materials and documentation is provided and donated
to Massachusetts Institute of Technology by Group BULL including BULL HN Information Systems Inc.
as a contribution to computer science knowledge.
This donation is made also to give evidence of the common contributions of Massachusetts Institute of Technology,
Bell Laboratories, General Electric, Honeywell Information Systems Inc., Honeywell BULL Inc., Groupe BULL
and BULL HN Information Systems Inc. to the development of this operating system.
Multics development was initiated by Massachusetts Institute of Technology Project MAC (1963-1970),
renamed the MIT Laboratory for Computer Science and Artificial Intelligence in the mid 1970s, under the leadership
of Professor Fernando Jose Corbato. Users consider that Multics provided the best software architecture
for managing computer hardware properly and for executing programs. Many subsequent operating systems
incorporated Multics principles.
Multics was distributed in 1975 to 2000 by Group Bull in Europe , and in the U.S. by Bull HN Information Systems Inc.,
as successor in interest by change in name only to Honeywell Bull Inc. and Honeywell Information Systems Inc. .

                                          -----------------------------------------------------------

Permission to use, copy, modify, and distribute these programs and their documentation for any purpose and without
fee is hereby granted,provided that the below copyright notice and historical background appear in all copies
and that both the copyright notice and historical background and this permission notice appear in supporting
documentation, and that the names of MIT, HIS, BULL or BULL HN not be used in advertising or publicity pertaining
to distribution of the programs without specific prior written permission.
    Copyright 1972 by Massachusetts Institute of Technology and Honeywell Information Systems Inc.
    Copyright 2006 by BULL HN Information Systems Inc.
    Copyright 2006 by Bull SAS
    All Rights Reserved
