	COMPILATION LISTING OF SEGMENT decbin
	Compiled by: Multics PL/I Compiler, Release 28d, of September 14, 1983
	Compiled at: Honeywell LCPD Phoenix, System M
	Compiled on: 10/03/83  1606.3 mst Mon
	    Options: optimize map

        1 /* ***********************************************************
        2*   *                                                         *
        3*   * Copyright, (C) Honeywell Information Systems Inc., 1982 *
        4*   *                                                         *
        5*   * Copyright (c) 1972 by Massachusetts Institute of        *
        6*   * Technology and Honeywell Information Systems, Inc.      *
        7*   *                                                         *
        8*   *********************************************************** */
        9
       10
       11 /* Procedure to convert string to binary.  String assumed to conform
       12*   to the syntax [+|-]digit*	*/
       13
       14 decbin:	proc(string) returns(fixed bin);
       15
       16 dcl	string char(*) aligned;
       17
       18 dcl	(i,number,sign) fixed bin,
       19 	c char(1),
       20 	(binary,length,substr,unspec) builtin;
       21
       22 	i,sign = 1;
       23 	c = substr(string,1,1);
       24 	if c = "+" then i = 2;
       25      else if c = "-" then do; i = 2; sign = -1; end;
       26
       27 	number = 0;
       28 	do i = i to length(string);
       29 	     c = substr(string,i,1);
       30 	     number = number * 10 + binary(unspec(c),9) - 48;
       31 	     end;
       32
       33 	return(sign * number);
       34 	end;
	SOURCE FILES USED IN THIS COMPILATION.

LINE      NUMBER  DATE MODIFIED     NAME			PATHNAME
             0    10/03/83  1007.3  decbin.pl1                        >spec>on>pl128d>decbin.pl1
	NAMES DECLARED IN THIS COMPILATION.

IDENTIFIER	     OFFSET    LOC STORAGE CLASS   DATA TYPE		ATTRIBUTES AND REFERENCES
								(* indicates a set context)

NAMES DECLARED BY DECLARE STATEMENT.
binary                                                 builtin function         dcl 18 ref 30
c                               000103 automatic       char(1)                  unaligned dcl 18 set ref 23* 24 25 29* 30
i                               000100 automatic       fixed bin(17,0)          dcl 18 set ref 22* 24* 25* 28* 28* 29*
length                                                 builtin function         dcl 18 ref 28
number                          000101 automatic       fixed bin(17,0)          dcl 18 set ref 27* 30* 30 33
sign                            000102 automatic       fixed bin(17,0)          dcl 18 set ref 22* 25* 33
string                                 parameter       char                     dcl 16 ref 14 23 28 29
substr                                                 builtin function         dcl 18 ref 23 29
unspec                                                 builtin function         dcl 18 ref 30

NAME DECLARED BY EXPLICIT CONTEXT.
decbin                          000006 constant        entry                    external dcl 14

THERE WERE NO NAMES DECLARED BY CONTEXT OR IMPLICATION.

STORAGE REQUIREMENTS FOR THIS PROGRAM.

	Object	Text	Link	Symbol	Defs	Static
Start          0       0       130         140     104         140
Length       276     104        10         122      23           0

BLOCK NAME	         STACK SIZE     TYPE		WHY NONQUICK/WHO SHARES STACK FRAME
decbin                               71 external procedure  is an external procedure.

STORAGE FOR AUTOMATIC VARIABLES.

STACK FRAME                 LOC IDENTIFIER                  BLOCK NAME
decbin                   000100 i                           decbin
                         000101 number                      decbin
                         000102 sign                        decbin
                         000103 c                           decbin

THE FOLLOWING EXTERNAL OPERATORS ARE USED BY THIS PROGRAM.
return              ext_entry_desc

NO EXTERNAL ENTRIES ARE CALLED BY THIS PROGRAM.

NO EXTERNAL VARIABLES ARE USED BY THIS PROGRAM.


   LINE    LOC      LINE    LOC      LINE    LOC      LINE    LOC      LINE    LOC      LINE    LOC      LINE    LOC
     14 000002        22 000021        23 000024        24 000030        25 000035        25 000037        25 000041
     27 000043        28 000044        29 000057        30 000065        31 000075        33 000077


                                          -----------------------------------------------------------


Historical Background

This edition of the Multics software materials and documentation is provided and donated
to Massachusetts Institute of Technology by Group BULL including BULL HN Information Systems Inc.
as a contribution to computer science knowledge.
This donation is made also to give evidence of the common contributions of Massachusetts Institute of Technology,
Bell Laboratories, General Electric, Honeywell Information Systems Inc., Honeywell BULL Inc., Groupe BULL
and BULL HN Information Systems Inc. to the development of this operating system.
Multics development was initiated by Massachusetts Institute of Technology Project MAC (1963-1970),
renamed the MIT Laboratory for Computer Science and Artificial Intelligence in the mid 1970s, under the leadership
of Professor Fernando Jose Corbato. Users consider that Multics provided the best software architecture
for managing computer hardware properly and for executing programs. Many subsequent operating systems
incorporated Multics principles.
Multics was distributed in 1975 to 2000 by Group Bull in Europe , and in the U.S. by Bull HN Information Systems Inc.,
as successor in interest by change in name only to Honeywell Bull Inc. and Honeywell Information Systems Inc. .

                                          -----------------------------------------------------------

Permission to use, copy, modify, and distribute these programs and their documentation for any purpose and without
fee is hereby granted,provided that the below copyright notice and historical background appear in all copies
and that both the copyright notice and historical background and this permission notice appear in supporting
documentation, and that the names of MIT, HIS, BULL or BULL HN not be used in advertising or publicity pertaining
to distribution of the programs without specific prior written permission.
    Copyright 1972 by Massachusetts Institute of Technology and Honeywell Information Systems Inc.
    Copyright 2006 by BULL HN Information Systems Inc.
    Copyright 2006 by Bull SAS
    All Rights Reserved
