	COMPILATION LISTING OF SEGMENT decimal_exp2_
	Compiled by: Multics PL/I Compiler, Release 28d, of September 14, 1983
	Compiled at: Honeywell LCPD Phoenix, System M
	Compiled on: 10/03/83  1434.9 mst Mon
	    Options: optimize map

        1 /* ******************************************************
        2*   *                                                    *
        3*   *                                                    *
        4*   * Copyright (c) 1972 by Massachusetts Institute of   *
        5*   * Technology and Honeywell Information Systems, Inc. *
        6*   *                                                    *
        7*   *                                                    *
        8*   ****************************************************** */
        9
       10 decimal_exp2_:	proc(number,exponent) returns(float dec(59));
       11
       12 dcl	(number,result) float dec(59),
       13
       14 	i fixed bin(35),
       15 	(exp,exponent) fixed bin(71),
       16
       17 	negative bit(1) aligned;
       18
       19 dcl	(abs,index,sign,substr,unspec) builtin;
       20
       21 dcl	code_ entry(fixed bin(15));
       22
       23 	if number=0.0e0
       24 	then	if exponent>0
       25 		then	return(number);
       26 		else do;
       27 			call  code_(17-sign(exponent));
       28
       29 			return(number);
       30 		end;
       31
       32 	if exponent=0
       33 	then	return(1.0e0);
       34
       35 	negative = exponent<0;
       36 	exp = abs(exponent);
       37
       38 	result = number;
       39
       40 	do i = index(unspec(exp),"1"b)+1 to 72;
       41 		result = result * result;
       42
       43 		if substr(unspec(exp),i,1)
       44 		then	result = result * number;
       45 	end;
       46
       47 	if ^negative
       48 	then	return(result);
       49 	else	return(1.0e0/result);
       50
       51 	end decimal_exp2_;
	SOURCE FILES USED IN THIS COMPILATION.

LINE      NUMBER  DATE MODIFIED     NAME			PATHNAME
             0    10/03/83  1005.7  decimal_exp2_.pl1                 >spec>on>pl128d>decimal_exp2_.pl1
	NAMES DECLARED IN THIS COMPILATION.

IDENTIFIER	     OFFSET    LOC STORAGE CLASS   DATA TYPE		ATTRIBUTES AND REFERENCES
								(* indicates a set context)

NAMES DECLARED BY DECLARE STATEMENT.
abs                                                    builtin function         dcl 19 ref 36
code_                           000010 constant        entry                    external dcl 21 ref 27
exp                             000122 automatic       fixed bin(71,0)          dcl 12 set ref 36* 40 43
exponent                               parameter       fixed bin(71,0)          dcl 12 ref 10 23 27 32 35 36
i                               000120 automatic       fixed bin(35,0)          dcl 12 set ref 40* 43*
index                                                  builtin function         dcl 19 ref 40
negative                        000124 automatic       bit(1)                   dcl 12 set ref 35* 47
number                                 parameter       float dec(59)            dcl 12 ref 10 23 23 29 38 43
result                          000100 automatic       float dec(59)            dcl 12 set ref 38* 41* 41 41 43* 43 47 49
sign                                                   builtin function         dcl 19 ref 27
substr                                                 builtin function         dcl 19 ref 43
unspec                                                 builtin function         dcl 19 ref 40 43

NAME DECLARED BY EXPLICIT CONTEXT.
decimal_exp2_                   000010 constant        entry                    external dcl 10

THERE WERE NO NAMES DECLARED BY CONTEXT OR IMPLICATION.

STORAGE REQUIREMENTS FOR THIS PROGRAM.

	Object	Text	Link	Symbol	Defs	Static
Start          0       0       202         214     150         212
Length       360     150        12         127      32           0

BLOCK NAME	         STACK SIZE     TYPE		WHY NONQUICK/WHO SHARES STACK FRAME
decimal_exp2_                       106 external procedure  is an external procedure.

STORAGE FOR AUTOMATIC VARIABLES.

STACK FRAME                 LOC IDENTIFIER                  BLOCK NAME
decimal_exp2_            000100 result                      decimal_exp2_
                         000120 i                           decimal_exp2_
                         000122 exp                         decimal_exp2_
                         000124 negative                    decimal_exp2_

THE FOLLOWING EXTERNAL OPERATORS ARE USED BY THIS PROGRAM.
r_l_a               call_ext_out        return              sign                ext_entry           index_bs_1_eis

THE FOLLOWING EXTERNAL ENTRIES ARE CALLED BY THIS PROGRAM.
code_

NO EXTERNAL VARIABLES ARE USED BY THIS PROGRAM.


   LINE    LOC      LINE    LOC      LINE    LOC      LINE    LOC      LINE    LOC      LINE    LOC      LINE    LOC
     10 000004        23 000015        27 000032        29 000045        32 000054        35 000063        36 000065
     38 000071        40 000074        41 000105        43 000110        45 000121        47 000126        49 000136


                                          -----------------------------------------------------------


Historical Background

This edition of the Multics software materials and documentation is provided and donated
to Massachusetts Institute of Technology by Group BULL including BULL HN Information Systems Inc.
as a contribution to computer science knowledge.
This donation is made also to give evidence of the common contributions of Massachusetts Institute of Technology,
Bell Laboratories, General Electric, Honeywell Information Systems Inc., Honeywell BULL Inc., Groupe BULL
and BULL HN Information Systems Inc. to the development of this operating system.
Multics development was initiated by Massachusetts Institute of Technology Project MAC (1963-1970),
renamed the MIT Laboratory for Computer Science and Artificial Intelligence in the mid 1970s, under the leadership
of Professor Fernando Jose Corbato. Users consider that Multics provided the best software architecture
for managing computer hardware properly and for executing programs. Many subsequent operating systems
incorporated Multics principles.
Multics was distributed in 1975 to 2000 by Group Bull in Europe , and in the U.S. by Bull HN Information Systems Inc.,
as successor in interest by change in name only to Honeywell Bull Inc. and Honeywell Information Systems Inc. .

                                          -----------------------------------------------------------

Permission to use, copy, modify, and distribute these programs and their documentation for any purpose and without
fee is hereby granted,provided that the below copyright notice and historical background appear in all copies
and that both the copyright notice and historical background and this permission notice appear in supporting
documentation, and that the names of MIT, HIS, BULL or BULL HN not be used in advertising or publicity pertaining
to distribution of the programs without specific prior written permission.
    Copyright 1972 by Massachusetts Institute of Technology and Honeywell Information Systems Inc.
    Copyright 2006 by BULL HN Information Systems Inc.
    Copyright 2006 by Bull SAS
    All Rights Reserved
