	COMPILATION LISTING OF SEGMENT decode_oldesc_
	Compiled by: Multics PL/I Compiler, Release 28d, of September 14, 1983
	Compiled at: Honeywell LCPD Phoenix, System M
	Compiled on: 10/03/83  1408.1 mst Mon
	    Options: optimize map

        1 /* ******************************************************
        2*   *                                                    *
        3*   *                                                    *
        4*   * Copyright (c) 1972 by Massachusetts Institute of   *
        5*   * Technology and Honeywell Information Systems, Inc. *
        6*   *                                                    *
        7*   *                                                    *
        8*   ****************************************************** */
        9
       10 decode_oldesc_:	proc(old) returns(bit(36)aligned) options(support);
       11
       12 dcl	old bit(36) aligned;
       13
       14 dcl	1 old_descriptor	aligned,
       15 	2 old_type	fixed bin(14) unal,
       16 	2 old_junk	bit(3) unal,
       17 	2 old_decimal	bit(1) unal,
       18 	2 old_scale	fixed bin(7) unal,
       19 	2 old_precision	fixed bin(8) unal;
       20
       21 dcl	(divide,unspec) builtin;
       22
  1     1 dcl (	s_fixed_real_desc		init( 1),
  1     2 	d_fixed_real_desc		init( 2),
  1     3 	s_float_real_desc		init( 3),
  1     4 	d_float_real_desc		init( 4),
  1     5 	s_fixed_cplx_desc		init( 5),
  1     6 	d_fixed_cplx_desc		init( 6),
  1     7 	s_float_cplx_desc		init( 7),
  1     8 	d_float_cplx_desc		init( 8),
  1     9
  1    10 	D_fixed_real_desc		init( 9),
  1    11 	D_float_real_desc		init(10),
  1    12 	D_fixed_cplx_desc		init(11),
  1    13 	D_float_cplx_desc		init(12),
  1    14
  1    15 	pointer_desc		init(13),
  1    16 	offset_desc		init(14),
  1    17 	label_desc		init(15),
  1    18 	entry_desc		init(16),
  1    19 	structure_desc		init(17),
  1    20 	area_desc			init(18),
  1    21
  1    22 	bit_desc			init(19),
  1    23 	v_bit_desc		init(20),
  1    24
  1    25 	char_desc			init(21),
  1    26 	v_char_desc		init(22),
  1    27
  1    28 	file_desc			init(23)
  1    29 					) fixed bin int static options(constant);
       23
  2     1 /*	BEGIN INCLUDE FILE ... descriptor.incl.pl1	*/
  2     2
  2     3 dcl	1 desc_		aligned,
  2     4 	2 version2_	bit(1) unal,
  2     5 	2 type_		fixed bin(6) unsigned unal,
  2     6 	2 pack_		bit(1) unal,
  2     7 	2 dimension_	bit(4) unal,
  2     8 	2 scale_		fixed bin(11) unal,
  2     9 	2 precision_	fixed bin(11) unal;
  2    10
  2    11 /*	END INCLUDE FILE ... descriptor.incl.pl1	*/
       24
       25
       26 	unspec(old_descriptor) = old;
       27
       28 	unspec(desc_) = (36) "0"b;
       29
       30 	scale_ = old_scale;
       31 	precision_ = old_precision;
       32
       33 	if old_decimal
       34 	then do;
       35 		type_ = D_fixed_real_desc + divide(old_type-1,2,17,0);
       36 		goto ret;
       37 	end;
       38
       39 	if old_type<=entry_desc
       40 	then do;
       41 		type_ = old_type;
       42 		goto ret;
       43 	end;
       44
       45 	if old_type>=518 & old_type<=522
       46 	then do;
       47 		type_ = old_type-500;
       48
       49 		if type_=v_bit_desc | type_=char_desc
       50 		then	type_ = 41-type_;
       51
       52 		goto ret;
       53 	end;
       54
       55 ret:
       56 	return(unspec(desc_));
       57
       58 	end decode_oldesc_;
	SOURCE FILES USED IN THIS COMPILATION.

LINE      NUMBER  DATE MODIFIED     NAME			PATHNAME
             0    10/03/83  1005.3  decode_oldesc_.pl1                >spec>on>pl128d>decode_oldesc_.pl1
23           1    01/12/79  1059.7  desc_types.incl.pl1               >ldd>include>desc_types.incl.pl1
24           2    11/30/78  1227.5  descriptor.incl.pl1               >ldd>include>descriptor.incl.pl1
	NAMES DECLARED IN THIS COMPILATION.

IDENTIFIER	     OFFSET    LOC STORAGE CLASS   DATA TYPE		ATTRIBUTES AND REFERENCES
								(* indicates a set context)

NAMES DECLARED BY DECLARE STATEMENT.
D_fixed_real_desc                      constant        fixed bin(17,0)          initial dcl 1-1 ref 35
char_desc                              constant        fixed bin(17,0)          initial dcl 1-1 ref 49
desc_                           000101 automatic       structure                level 1 dcl 2-3 set ref 28* 55
divide                                                 builtin function         dcl 21 ref 35
entry_desc                             constant        fixed bin(17,0)          initial dcl 1-1 ref 39
old                                    parameter       bit(36)                  dcl 12 ref 10 26
old_decimal               0(18) 000100 automatic       bit(1)                   level 2 packed unaligned dcl 14 set ref 33
old_descriptor                  000100 automatic       structure                level 1 dcl 14 set ref 26*
old_precision             0(27) 000100 automatic       fixed bin(8,0)           level 2 packed unaligned dcl 14 set ref 31
old_scale                 0(19) 000100 automatic       fixed bin(7,0)           level 2 packed unaligned dcl 14 set ref 30
old_type                        000100 automatic       fixed bin(14,0)          level 2 packed unaligned dcl 14 set ref 35 39 41 45
                                                                                  45 47
precision_                0(24) 000101 automatic       fixed bin(11,0)          level 2 packed unaligned dcl 2-3 set ref 31*
scale_                    0(12) 000101 automatic       fixed bin(11,0)          level 2 packed unaligned dcl 2-3 set ref 30*
type_                     0(01) 000101 automatic       fixed bin(6,0)           level 2 packed unsigned unaligned dcl 2-3 set ref
                                                                                  35* 41* 47* 49 49 49* 49
unspec                                                 builtin function         dcl 21 set ref 26* 28* 55
v_bit_desc                             constant        fixed bin(17,0)          initial dcl 1-1 ref 49

NAMES DECLARED BY DECLARE STATEMENT AND NEVER REFERENCED.
D_fixed_cplx_desc                      internal static fixed bin(17,0)          initial dcl 1-1
D_float_cplx_desc                      internal static fixed bin(17,0)          initial dcl 1-1
D_float_real_desc                      internal static fixed bin(17,0)          initial dcl 1-1
area_desc                              internal static fixed bin(17,0)          initial dcl 1-1
bit_desc                               internal static fixed bin(17,0)          initial dcl 1-1
d_fixed_cplx_desc                      internal static fixed bin(17,0)          initial dcl 1-1
d_fixed_real_desc                      internal static fixed bin(17,0)          initial dcl 1-1
d_float_cplx_desc                      internal static fixed bin(17,0)          initial dcl 1-1
d_float_real_desc                      internal static fixed bin(17,0)          initial dcl 1-1
file_desc                              internal static fixed bin(17,0)          initial dcl 1-1
label_desc                             internal static fixed bin(17,0)          initial dcl 1-1
offset_desc                            internal static fixed bin(17,0)          initial dcl 1-1
pointer_desc                           internal static fixed bin(17,0)          initial dcl 1-1
s_fixed_cplx_desc                      internal static fixed bin(17,0)          initial dcl 1-1
s_fixed_real_desc                      internal static fixed bin(17,0)          initial dcl 1-1
s_float_cplx_desc                      internal static fixed bin(17,0)          initial dcl 1-1
s_float_real_desc                      internal static fixed bin(17,0)          initial dcl 1-1
structure_desc                         internal static fixed bin(17,0)          initial dcl 1-1
v_char_desc                            internal static fixed bin(17,0)          initial dcl 1-1

NAMES DECLARED BY EXPLICIT CONTEXT.
decode_oldesc_                  000005 constant        entry                    external dcl 10
ret                             000110 constant        label                    dcl 55 ref 36 42 52

THERE WERE NO NAMES DECLARED BY CONTEXT OR IMPLICATION.

STORAGE REQUIREMENTS FOR THIS PROGRAM.

	Object	Text	Link	Symbol	Defs	Static
Start          0       0       140         150     113         150
Length       342     113        10         156      25           0

BLOCK NAME	         STACK SIZE     TYPE		WHY NONQUICK/WHO SHARES STACK FRAME
decode_oldesc_                       67 external procedure  is an external procedure.

STORAGE FOR AUTOMATIC VARIABLES.

STACK FRAME                 LOC IDENTIFIER                  BLOCK NAME
decode_oldesc_           000100 old_descriptor              decode_oldesc_
                         000101 desc_                       decode_oldesc_

THE FOLLOWING EXTERNAL OPERATORS ARE USED BY THIS PROGRAM.
return              ext_entry           set_support

NO EXTERNAL ENTRIES ARE CALLED BY THIS PROGRAM.

NO EXTERNAL VARIABLES ARE USED BY THIS PROGRAM.


   LINE    LOC      LINE    LOC      LINE    LOC      LINE    LOC      LINE    LOC      LINE    LOC      LINE    LOC
     10 000001        26 000013        28 000016        30 000017        31 000024        33 000031        35 000034
     36 000045        39 000046        41 000053        42 000057        45 000060        47 000064        49 000071
     52 000107        55 000110


                                          -----------------------------------------------------------


Historical Background

This edition of the Multics software materials and documentation is provided and donated
to Massachusetts Institute of Technology by Group BULL including BULL HN Information Systems Inc.
as a contribution to computer science knowledge.
This donation is made also to give evidence of the common contributions of Massachusetts Institute of Technology,
Bell Laboratories, General Electric, Honeywell Information Systems Inc., Honeywell BULL Inc., Groupe BULL
and BULL HN Information Systems Inc. to the development of this operating system.
Multics development was initiated by Massachusetts Institute of Technology Project MAC (1963-1970),
renamed the MIT Laboratory for Computer Science and Artificial Intelligence in the mid 1970s, under the leadership
of Professor Fernando Jose Corbato. Users consider that Multics provided the best software architecture
for managing computer hardware properly and for executing programs. Many subsequent operating systems
incorporated Multics principles.
Multics was distributed in 1975 to 2000 by Group Bull in Europe , and in the U.S. by Bull HN Information Systems Inc.,
as successor in interest by change in name only to Honeywell Bull Inc. and Honeywell Information Systems Inc. .

                                          -----------------------------------------------------------

Permission to use, copy, modify, and distribute these programs and their documentation for any purpose and without
fee is hereby granted,provided that the below copyright notice and historical background appear in all copies
and that both the copyright notice and historical background and this permission notice appear in supporting
documentation, and that the names of MIT, HIS, BULL or BULL HN not be used in advertising or publicity pertaining
to distribution of the programs without specific prior written permission.
    Copyright 1972 by Massachusetts Institute of Technology and Honeywell Information Systems Inc.
    Copyright 2006 by BULL HN Information Systems Inc.
    Copyright 2006 by Bull SAS
    All Rights Reserved
