ASSEMBLY LISTING OF SEGMENT >dumps>old>recomp>discard_output_.alm
ASSEMBLED ON:	11/04/82  1848.1 mst Thu
OPTIONS USED:	list
ASSEMBLED BY:	ALM Version  6.4  April 1981
ASSEMBLER CREATED:	11/03/82  1423.6 mst Wed

                                     1  " ***********************************************************
                                     2  " *                                                         *
                                     3  " * Copyright, (C) Honeywell Information Systems Inc., 1982 *
                                     4  " *                                                         *
                                     5  " * Copyright (c) 1972 by Massachusetts Institute of        *
                                     6  " * Technology and Honeywell Information Systems, Inc.      *
                                     7  " *                                                         *
                                     8  " ***********************************************************
                                     9
                                    10  "	Interface Module Transfer Vector for the discard_output_ interface module.
                                    11
                        000000      12  	entry	discard_output_module
    000000                          13  discard_output_module:
    000000  0a   000001 7100 16     14  	tra	*+1,6		go to proper transfer instruction
                                    15
    000001  4a  4 00010 7101 20     16  	tra	<discard_output_util_>|[discard_output_attach]
    000002  4a  4 00012 7101 20     17  	tra	<discard_output_util_>|[discard_output_detach]
    000003  4a  4 00014 7101 20     18  	tra	<ios_>|[no_entry] this entry not implemented
    000004  4a  4 00016 7101 20     19  	tra	<discard_output_util_>|[discard_output_write]
    000005  4a  4 00020 7101 20     20  	tra	<discard_output_util_>|[discard_output_abort]
    000006  4a  4 00014 7101 20     21  	tra	<ios_>|[no_entry] this entry not implemented
    000007  4a  4 00014 7101 20     22  	tra	<ios_>|[no_entry] this entry not implemented
    000010  4a  4 00022 7101 20     23  	tra	<discard_output_util_>|[discard_output_resetwrite]
    000011  4a  4 00014 7101 20     24  	tra	<ios_>|[no_entry] this entry not implemented
    000012  4a  4 00014 7101 20     25  	tra	<ios_>|[no_entry] this entry not implemented
    000013  4a  4 00014 7101 20     26  	tra	<ios_>|[no_entry] this entry not implemented
    000014  4a  4 00014 7101 20     27  	tra	<ios_>|[no_entry] this entry not implemented
    000015  4a  4 00014 7101 20     28  	tra	<ios_>|[no_entry] this entry not implemented
    000016  4a  4 00014 7101 20     29  	tra	<ios_>|[no_entry] this entry not implemented
    000017  4a  4 00014 7101 20     30  	tra	<ios_>|[no_entry] this entry not implemented
    000020  4a  4 00014 7101 20     31  	tra	<ios_>|[no_entry] this entry not implemented
    000021  4a  4 00014 7101 20     32  	tra	<ios_>|[no_entry] this entry not implemented
    000022  4a  4 00014 7101 20     33  	tra	<ios_>|[no_entry] this entry not implemented
    000023  4a  4 00014 7101 20     34  	tra	<ios_>|[no_entry] this entry not implemented
    000024  4a  4 00014 7101 20     35  	tra	<ios_>|[no_entry] this entry not implemented
    000025  4a  4 00014 7101 20     36  	tra	<ios_>|[no_entry] this entry not implemented
    000026  4a  4 00014 7101 20     37  	tra	<ios_>|[no_entry]	this slot currently unused
    000027  4a  4 00014 7101 20     38  	tra	<ios_>|[no_entry]	this slot currently unused
    000030  4a  4 00014 7101 20     39  	tra	<ios_>|[no_entry]	this slot currently unused
    000031  4a  4 00014 7101 20     40  	tra	<ios_>|[no_entry]	this slot currently unused
    000032  4a  4 00014 7101 20     41  	tra	<ios_>|[no_entry]	this slot currently unused
    000033  4a  4 00014 7101 20     42  	tra	<ios_>|[no_entry]	this slot currently unused
    000034  4a  4 00014 7101 20     43  	tra	<ios_>|[no_entry]	this slot currently unused
    000035  4a  4 00014 7101 20     44  	tra	<ios_>|[no_entry]	this slot currently unused
    000036  4a  4 00014 7101 20     45  	tra	<ios_>|[no_entry]	this slot currently unused
                                    46
                                    47  	end
ENTRY SEQUENCES

    000037  5a   000012 0000 00
    000040  aa  7 00046 2721 20
    000041  0a   000000 7100 00

NO LITERALS

NAME DEFINITIONS FOR ENTRY POINTS AND SEGDEFS

    000042  5a   000003 000000
    000043  5a   000032 600000
    000044  aa   000000 000000
    000045  55   000012 000002
    000046  5a   000002 400003
    000047  55   000006 000012
    000050  aa  017 144 151 163
    000051  aa  143 141 162 144
    000052  aa  137 157 165 164
    000053  aa  160 165 164 137
    000054  55   000023 000003
    000055  0a   000040 500000
    000056  55   000015 000003
    000057  aa  025 144 151 163         discard_output_module
    000060  aa  143 141 162 144
    000061  aa  137 157 165 164
    000062  aa  160 165 164 137
    000063  aa  155 157 144 165
    000064  aa  154 145 000 000
    000065  55   000002 000012
    000066  6a   000000 400002
    000067  55   000026 000003
    000070  aa  014 163 171 155         symbol_table
    000071  aa  142 157 154 137
    000072  aa  164 141 142 154
    000073  aa  145 000 000 000

DEFINITIONS HASH TABLE

    000074  aa   000000 000015
    000075  aa   000000 000000
    000076  aa   000000 000000
    000077  aa   000000 000000
    000100  aa   000000 000000
    000101  aa   000000 000000
    000102  aa   000000 000000
    000103  5a   000012 000000
    000104  5a   000023 000000
    000105  aa   000000 000000
    000106  aa   000000 000000
    000107  aa   000000 000000
    000110  aa   000000 000000
    000111  aa   000000 000000

EXTERNAL NAMES

    000112  aa  031 144 151 163         discard_output_resetwrite
    000113  aa  143 141 162 144
    000114  aa  137 157 165 164
    000115  aa  160 165 164 137
    000116  aa  162 145 163 145
    000117  aa  164 167 162 151
    000120  aa  164 145 000 000
    000121  aa  024 144 151 163         discard_output_abort
    000122  aa  143 141 162 144
    000123  aa  137 157 165 164
    000124  aa  160 165 164 137
    000125  aa  141 142 157 162
    000126  aa  164 000 000 000
    000127  aa  024 144 151 163         discard_output_write
    000130  aa  143 141 162 144
    000131  aa  137 157 165 164
    000132  aa  160 165 164 137
    000133  aa  167 162 151 164
    000134  aa  145 000 000 000
    000135  aa  010 156 157 137         no_entry
    000136  aa  145 156 164 162
    000137  aa  171 000 000 000
    000140  aa  004 151 157 163         ios_
    000141  aa  137 000 000 000
    000142  aa  025 144 151 163         discard_output_detach
    000143  aa  143 141 162 144
    000144  aa  137 157 165 164
    000145  aa  160 165 164 137
    000146  aa  144 145 164 141
    000147  aa  143 150 000 000
    000150  aa  025 144 151 163         discard_output_attach
    000151  aa  143 141 162 144
    000152  aa  137 157 165 164
    000153  aa  160 165 164 137
    000154  aa  141 164 164 141
    000155  aa  143 150 000 000
    000156  aa  024 144 151 163         discard_output_util_
    000157  aa  143 141 162 144
    000160  aa  137 157 165 164
    000161  aa  160 165 164 137
    000162  aa  165 164 151 154
    000163  aa  137 000 000 000

NO TRAP POINTER WORDS

TYPE PAIR BLOCKS

    000164  aa   000004 000000
    000165  55   000114 000050
    000166  aa   000004 000000
    000167  55   000114 000057
    000170  aa   000004 000000
    000171  55   000114 000065
    000172  aa   000004 000000
    000173  55   000076 000073
    000174  aa   000004 000000
    000175  55   000114 000100
    000176  aa   000004 000000
    000177  55   000114 000106
    000200  aa   000001 000000
    000201  aa   000000 000000

INTERNAL EXPRESSION WORDS

    000202  5a   000122 000000
    000203  5a   000124 000000
    000204  5a   000126 000000
    000205  5a   000130 000000
    000206  5a   000132 000000
    000207  5a   000134 000000
LINKAGE INFORMATION

    000000  aa   000000 000000
    000001  0a   000042 000000
    000002  aa   000000 000000
    000003  aa   000000 000000
    000004  aa   000000 000000
    000005  aa   000000 000000
    000006  22   000010 000024
    000007  a2   000000 000000
    000010  9a   777770 0000 46         discard_output_util_|discard_output_attach
    000011  5a   000145 0000 00
    000012  9a   777766 0000 46         discard_output_util_|discard_output_detach
    000013  5a   000144 0000 00
    000014  9a   777764 0000 46         ios_|no_entry
    000015  5a   000143 0000 00
    000016  9a   777762 0000 46         discard_output_util_|discard_output_write
    000017  5a   000142 0000 00
    000020  9a   777760 0000 46         discard_output_util_|discard_output_abort
    000021  5a   000141 0000 00
    000022  9a   777756 0000 46         discard_output_util_|discard_output_resetwrite
    000023  5a   000140 0000 00
SYMBOL INFORMATION

SYMBOL TABLE HEADER

    000000  aa   000000 000001
    000001  aa   163171 155142
    000002  aa   164162 145145
    000003  aa   000000 000004
    000004  aa   000000 111316
    000005  aa   510113 575622
    000006  aa   000000 111320
    000007  aa   102102 472725
    000010  aa   141154 155040
    000011  aa   040040 040040
    000012  aa   000024 000040
    000013  aa   000034 000040
    000014  aa   000044 000100
    000015  aa   000002 000002
    000016  aa   000064 000000
    000017  aa   000000 000127
    000020  aa   000000 000104
    000021  aa   000000 000114
    000022  aa   000121 000104
    000023  aa   000064 000000
    000024  aa   101114 115040
    000025  aa   126145 162163
    000026  aa   151157 156040
    000027  aa   040066 056064
    000030  aa   040040 101160
    000031  aa   162151 154040
    000032  aa   061071 070061
    000033  aa   040040 040040
    000034  aa   110157 154155
    000035  aa   163164 145144
    000036  aa   164056 123171
    000037  aa   163115 141151
    000040  aa   156164 056155
    000041  aa   040040 040040
    000042  aa   040040 040040
    000043  aa   040040 040040
    000044  aa   154151 163164
    000045  aa   040040 040040
    000046  aa   040040 040040
    000047  aa   040040 040040
    000050  aa   040040 040040
    000051  aa   040040 040040
    000052  aa   040040 040040
    000053  aa   040040 040040
    000054  aa   040040 040040
    000055  aa   040040 040040
    000056  aa   040040 040040
    000057  aa   040040 040040
    000060  aa   040040 040040
    000061  aa   040040 040040
    000062  aa   040040 040040
    000063  aa   040040 040040
    000064  aa   000000 000001
    000065  aa   000000 000001
    000066  aa   000072 000045
    000067  aa   113171 050677
    000070  aa   000000 111320
    000071  aa   005257 000000
    000072  aa   076144 165155          >dumps>old>recomp>discard_output_.alm
    000073  aa   160163 076157
    000074  aa   154144 076162
    000075  aa   145143 157155
    000076  aa   160076 144151
    000077  aa   163143 141162
    000100  aa   144137 157165
    000101  aa   164160 165164
    000102  aa   137056 141154
    000103  aa   155040 040040
               MULTICS ASSEMBLY CROSS REFERENCE LISTING

   Value        Symbol                   Source file   Line number

                discard_output_abort     discard_output_:     20.
                discard_output_attach    discard_output_:     16.
                discard_output_detach    discard_output_:     17.
           0    discard_output_module    discard_output_:     12,   13.
                discard_output_resetwrite      discard_output_:     23.
                discard_output_util_     discard_output_:     16,   17,   19,   20,   23.
                discard_output_write     discard_output_:     19.
                ios_                     discard_output_:     18,   21,   22,   24,   25,   26,   27,   28,   29,   30,   31,
                                                              32,   33,   34,   35,   36,   37,   38,   39,   40,   41,   42,
                                                              43,   44,   45.
                no_entry                 discard_output_:     18,   21,   22,   24,   25,   26,   27,   28,   29,   30,   31,
                                                              32,   33,   34,   35,   36,   37,   38,   39,   40,   41,   42,
                                                              43,   44,   45.


NO FATAL ERRORS


                                          -----------------------------------------------------------


Historical Background

This edition of the Multics software materials and documentation is provided and donated
to Massachusetts Institute of Technology by Group BULL including BULL HN Information Systems Inc.
as a contribution to computer science knowledge.
This donation is made also to give evidence of the common contributions of Massachusetts Institute of Technology,
Bell Laboratories, General Electric, Honeywell Information Systems Inc., Honeywell BULL Inc., Groupe BULL
and BULL HN Information Systems Inc. to the development of this operating system.
Multics development was initiated by Massachusetts Institute of Technology Project MAC (1963-1970),
renamed the MIT Laboratory for Computer Science and Artificial Intelligence in the mid 1970s, under the leadership
of Professor Fernando Jose Corbato. Users consider that Multics provided the best software architecture
for managing computer hardware properly and for executing programs. Many subsequent operating systems
incorporated Multics principles.
Multics was distributed in 1975 to 2000 by Group Bull in Europe , and in the U.S. by Bull HN Information Systems Inc.,
as successor in interest by change in name only to Honeywell Bull Inc. and Honeywell Information Systems Inc. .

                                          -----------------------------------------------------------

Permission to use, copy, modify, and distribute these programs and their documentation for any purpose and without
fee is hereby granted,provided that the below copyright notice and historical background appear in all copies
and that both the copyright notice and historical background and this permission notice appear in supporting
documentation, and that the names of MIT, HIS, BULL or BULL HN not be used in advertising or publicity pertaining
to distribution of the programs without specific prior written permission.
    Copyright 1972 by Massachusetts Institute of Technology and Honeywell Information Systems Inc.
    Copyright 2006 by BULL HN Information Systems Inc.
    Copyright 2006 by Bull SAS
    All Rights Reserved
