ASSEMBLY LISTING OF SEGMENT >spec>on>7138.pbf>dm_admin_util_.alm
ASSEMBLED ON:	03/05/85  0838.8 mst Tue
OPTIONS USED:	list
ASSEMBLED BY:	ALM Version  6.6  November 1982
ASSEMBLER CREATED:	09/21/83  1227.3 mst Wed

                                     1  " ***********************************************************
                                     2  " *                                                         *
                                     3  " * Copyright, (C) Honeywell Information Systems Inc., 1984 *
                                     4  " *                                                         *
                                     5  " ***********************************************************
                                     6  "
                                     7  "
                                     8  " DESCRIPTION:
                                     9  " 	This is the main transfer vector for the administrative Data
                                    10  "    Management primitives.
                                    11  "
                                    12  " HISTORY:
                                    13  " Written by Matthew Pierret, 09/17/84.
                                    14  " Modified:
                                    15  " 11/22/84 by Lee A. Newcomb:  Removed the obsolete set_aim_dir,
                                    16  "	    create_aim_control_seg, and set_bootload_dir entries.
                                    17  " 11/27/84 by Stanford S. Cox: Added copy_log, set_journal_stamps,
                                    18  "	    and send*, chg transfer macro to always use dm_ prefix.
                                    19  " 01/16/84 by R. Michael Tague: Removed send_(noop flush_journals
                                    20  "             leist_ref_names process_command terminate_segno) and
                                    21  "	    added send_new_process_notifies and kill_txn.  Alphabetized
                                    22  "	    entries.
                                    23  "
                                    24  """"""""""""""""""""""""""""""""""""""""""""""""""""""""""""""""""""""""
                                    25
    000000                          26  	name	dm_admin_util_
                                    27
                                    28  	macro	transfer
                              1     29  	entry	&1
                              2     30  &1:
                              3     31  	call6	dm_admin_gate_$dm_&1
                              4     32
                              5     33  	&end
                                    34
                                    35  	transfer 	copy_log
                        000000          	entry	copy_log
    000000                              copy_log:
    000000  4a  4 00010 7131 20         	call6	dm_admin_gate_$dm_copy_log

                                    36
                                    37  	transfer	schedule_shutdown
                        000001          	entry	schedule_shutdown
    000001                              schedule_shutdown:
    000001  4a  4 00012 7131 20         	call6	dm_admin_gate_$dm_schedule_shutdown

                                    38
                                    39            transfer  send_adjust_process_id
                        000002          	entry	send_adjust_process_id
    000002                              send_adjust_process_id:
    000002  4a  4 00014 7131 20         	call6	dm_admin_gate_$dm_send_adjust_process_id

                                    40
                                    41            transfer  send_adjust_tdt
                        000003          	entry	send_adjust_tdt
    000003                              send_adjust_tdt:
    000003  4a  4 00016 7131 20         	call6	dm_admin_gate_$dm_send_adjust_tdt

                                    42
                                    43            transfer  send_adjust_tdt_entry
                        000004          	entry	send_adjust_tdt_entry
    000004                              send_adjust_tdt_entry:
    000004  4a  4 00020 7131 20         	call6	dm_admin_gate_$dm_send_adjust_tdt_entry

                                    44
                                    45            transfer  send_adjust_txn
                        000005          	entry	send_adjust_txn
    000005                              send_adjust_txn:
    000005  4a  4 00022 7131 20         	call6	dm_admin_gate_$dm_send_adjust_txn

                                    46
                                    47  	transfer  send_kill_txn
                        000006          	entry	send_kill_txn
    000006                              send_kill_txn:
    000006  4a  4 00024 7131 20         	call6	dm_admin_gate_$dm_send_kill_txn

                                    48
                                    49            transfer  send_new_proc
                        000007          	entry	send_new_proc
    000007                              send_new_proc:
    000007  4a  4 00026 7131 20         	call6	dm_admin_gate_$dm_send_new_proc

                                    50
                                    51  	transfer	send_new_process_notifies
                        000010          	entry	send_new_process_notifies
    000010                              send_new_process_notifies:
    000010  4a  4 00030 7131 20         	call6	dm_admin_gate_$dm_send_new_process_notifies

                                    52
                                    53            transfer  send_shutdown
                        000011          	entry	send_shutdown
    000011                              send_shutdown:
    000011  4a  4 00032 7131 20         	call6	dm_admin_gate_$dm_send_shutdown

                                    54
                                    55  	transfer	set_journal_stamps
                        000012          	entry	set_journal_stamps
    000012                              set_journal_stamps:
    000012  4a  4 00034 7131 20         	call6	dm_admin_gate_$dm_set_journal_stamps

                                    56
                                    57  	end
ENTRY SEQUENCES

    000013  5a   000131 0000 00
    000014  aa  7 00046 2721 20
    000015  0a   000000 7100 00
    000016  5a   000121 0000 00
    000017  aa  7 00046 2721 20
    000020  0a   000001 7100 00
    000021  5a   000110 0000 00
    000022  aa  7 00046 2721 20
    000023  0a   000002 7100 00
    000024  5a   000101 0000 00
    000025  aa  7 00046 2721 20
    000026  0a   000003 7100 00
    000027  5a   000070 0000 00
    000030  aa  7 00046 2721 20
    000031  0a   000004 7100 00
    000032  5a   000061 0000 00
    000033  aa  7 00046 2721 20
    000034  0a   000005 7100 00
    000035  5a   000052 0000 00
    000036  aa  7 00046 2721 20
    000037  0a   000006 7100 00
    000040  5a   000043 0000 00
    000041  aa  7 00046 2721 20
    000042  0a   000007 7100 00
    000043  5a   000031 0000 00
    000044  aa  7 00046 2721 20
    000045  0a   000010 7100 00
    000046  5a   000022 0000 00
    000047  aa  7 00046 2721 20
    000050  0a   000011 7100 00
    000051  5a   000012 0000 00
    000052  aa  7 00046 2721 20
    000053  0a   000012 7100 00

NO LITERALS

NAME DEFINITIONS FOR ENTRY POINTS AND SEGDEFS

    000054  5a   000003 000000
    000055  5a   000146 600000
    000056  aa   000000 000000
    000057  55   000012 000002
    000060  5a   000002 400003
    000061  55   000006 000012
    000062  aa  016 144 155 137
    000063  aa  141 144 155 151
    000064  aa  156 137 165 164
    000065  aa  151 154 137 000
    000066  55   000022 000003
    000067  0a   000052 500000
    000070  55   000015 000003
    000071  aa  022 163 145 164         set_journal_stamps
    000072  aa  137 152 157 165
    000073  aa  162 156 141 154
    000074  aa  137 163 164 141
    000075  aa  155 160 163 000
    000076  55   000031 000012
    000077  0a   000047 500000
    000100  55   000025 000003
    000101  aa  015 163 145 156         send_shutdown
    000102  aa  144 137 163 150
    000103  aa  165 164 144 157
    000104  aa  167 156 000 000
    000105  55   000043 000022
    000106  0a   000044 500000
    000107  55   000034 000003
    000110  aa  031 163 145 156         send_new_process_notifies
    000111  aa  144 137 156 145
    000112  aa  167 137 160 162
    000113  aa  157 143 145 163
    000114  aa  163 137 156 157
    000115  aa  164 151 146 151
    000116  aa  145 163 000 000
    000117  55   000052 000031
    000120  0a   000041 500000
    000121  55   000046 000003
    000122  aa  015 163 145 156         send_new_proc
    000123  aa  144 137 156 145
    000124  aa  167 137 160 162
    000125  aa  157 143 000 000
    000126  55   000061 000043
    000127  0a   000036 500000
    000130  55   000055 000003
    000131  aa  015 163 145 156         send_kill_txn
    000132  aa  144 137 153 151
    000133  aa  154 154 137 164
    000134  aa  170 156 000 000
    000135  55   000070 000052
    000136  0a   000033 500000
    000137  55   000064 000003
    000140  aa  017 163 145 156         send_adjust_txn
    000141  aa  144 137 141 144
    000142  aa  152 165 163 164
    000143  aa  137 164 170 156
    000144  55   000101 000061
    000145  0a   000030 500000
    000146  55   000073 000003
    000147  aa  025 163 145 156         send_adjust_tdt_entry
    000150  aa  144 137 141 144
    000151  aa  152 165 163 164
    000152  aa  137 164 144 164
    000153  aa  137 145 156 164
    000154  aa  162 171 000 000
    000155  55   000110 000070
    000156  0a   000025 500000
    000157  55   000104 000003
    000160  aa  017 163 145 156         send_adjust_tdt
    000161  aa  144 137 141 144
    000162  aa  152 165 163 164
    000163  aa  137 164 144 164
    000164  55   000121 000101
    000165  0a   000022 500000
    000166  55   000113 000003
    000167  aa  026 163 145 156         send_adjust_process_id
    000170  aa  144 137 141 144
    000171  aa  152 165 163 164
    000172  aa  137 160 162 157
    000173  aa  143 145 163 163
    000174  aa  137 151 144 000
    000175  55   000131 000110
    000176  0a   000017 500000
    000177  55   000124 000003
    000200  aa  021 163 143 150         schedule_shutdown
    000201  aa  145 144 165 154
    000202  aa  145 137 163 150
    000203  aa  165 164 144 157
    000204  aa  167 156 000 000
    000205  55   000137 000121
    000206  0a   000014 500000
    000207  55   000134 000003
    000210  aa  010 143 157 160         copy_log
    000211  aa  171 137 154 157
    000212  aa  147 000 000 000
    000213  55   000002 000131
    000214  6a   000000 400002
    000215  55   000142 000003
    000216  aa  014 163 171 155         symbol_table
    000217  aa  142 157 154 137
    000220  aa  164 141 142 154
    000221  aa  145 000 000 000

DEFINITIONS HASH TABLE

    000222  aa   000000 000015
    000223  5a   000012 000000
    000224  5a   000110 000000
    000225  5a   000131 000000
    000226  5a   000137 000000
    000227  aa   000000 000000
    000230  5a   000070 000000
    000231  5a   000022 000000
    000232  5a   000043 000000
    000233  5a   000052 000000
    000234  5a   000061 000000
    000235  5a   000101 000000
    000236  5a   000031 000000
    000237  5a   000121 000000

EXTERNAL NAMES

    000240  aa  025 144 155 137         dm_set_journal_stamps
    000241  aa  163 145 164 137
    000242  aa  152 157 165 162
    000243  aa  156 141 154 137
    000244  aa  163 164 141 155
    000245  aa  160 163 000 000
    000246  aa  020 144 155 137         dm_send_shutdown
    000247  aa  163 145 156 144
    000250  aa  137 163 150 165
    000251  aa  164 144 157 167
    000252  aa  156 000 000 000
    000253  aa  034 144 155 137         dm_send_new_process_notifies
    000254  aa  163 145 156 144
    000255  aa  137 156 145 167
    000256  aa  137 160 162 157
    000257  aa  143 145 163 163
    000260  aa  137 156 157 164
    000261  aa  151 146 151 145
    000262  aa  163 000 000 000
    000263  aa  020 144 155 137         dm_send_new_proc
    000264  aa  163 145 156 144
    000265  aa  137 156 145 167
    000266  aa  137 160 162 157
    000267  aa  143 000 000 000
    000270  aa  020 144 155 137         dm_send_kill_txn
    000271  aa  163 145 156 144
    000272  aa  137 153 151 154
    000273  aa  154 137 164 170
    000274  aa  156 000 000 000
    000275  aa  022 144 155 137         dm_send_adjust_txn
    000276  aa  163 145 156 144
    000277  aa  137 141 144 152
    000300  aa  165 163 164 137
    000301  aa  164 170 156 000
    000302  aa  030 144 155 137         dm_send_adjust_tdt_entry
    000303  aa  163 145 156 144
    000304  aa  137 141 144 152
    000305  aa  165 163 164 137
    000306  aa  164 144 164 137
    000307  aa  145 156 164 162
    000310  aa  171 000 000 000
    000311  aa  022 144 155 137         dm_send_adjust_tdt
    000312  aa  163 145 156 144
    000313  aa  137 141 144 152
    000314  aa  165 163 164 137
    000315  aa  164 144 164 000
    000316  aa  031 144 155 137         dm_send_adjust_process_id
    000317  aa  163 145 156 144
    000320  aa  137 141 144 152
    000321  aa  165 163 164 137
    000322  aa  160 162 157 143
    000323  aa  145 163 163 137
    000324  aa  151 144 000 000
    000325  aa  024 144 155 137         dm_schedule_shutdown
    000326  aa  163 143 150 145
    000327  aa  144 165 154 145
    000330  aa  137 163 150 165
    000331  aa  164 144 157 167
    000332  aa  156 000 000 000
    000333  aa  013 144 155 137         dm_copy_log
    000334  aa  143 157 160 171
    000335  aa  137 154 157 147
    000336  aa  016 144 155 137         dm_admin_gate_
    000337  aa  141 144 155 151
    000340  aa  156 137 147 141
    000341  aa  164 145 137 000

NO TRAP POINTER WORDS

TYPE PAIR BLOCKS

    000342  aa   000004 000000
    000343  55   000262 000164
    000344  aa   000004 000000
    000345  55   000262 000172
    000346  aa   000004 000000
    000347  55   000262 000177
    000350  aa   000004 000000
    000351  55   000262 000207
    000352  aa   000004 000000
    000353  55   000262 000214
    000354  aa   000004 000000
    000355  55   000262 000221
    000356  aa   000004 000000
    000357  55   000262 000226
    000360  aa   000004 000000
    000361  55   000262 000235
    000362  aa   000004 000000
    000363  55   000262 000242
    000364  aa   000004 000000
    000365  55   000262 000251
    000366  aa   000004 000000
    000367  55   000262 000257
    000370  aa   000001 000000
    000371  aa   000000 000000

INTERNAL EXPRESSION WORDS

    000372  5a   000266 000000
    000373  5a   000270 000000
    000374  5a   000272 000000
    000375  5a   000274 000000
    000376  5a   000276 000000
    000377  5a   000300 000000
    000400  5a   000302 000000
    000401  5a   000304 000000
    000402  5a   000306 000000
    000403  5a   000310 000000
    000404  5a   000312 000000
    000405  aa   000000 000000
LINKAGE INFORMATION

    000000  aa   000000 000000
    000001  0a   000054 000000
    000002  aa   000000 000000
    000003  aa   000000 000000
    000004  aa   000000 000000
    000005  aa   000000 000000
    000006  22   000010 000036
    000007  a2   000000 000000
    000010  9a   777770 0000 46         dm_admin_gate_|dm_copy_log
    000011  5a   000330 0000 00
    000012  9a   777766 0000 46         dm_admin_gate_|dm_schedule_shutdown
    000013  5a   000327 0000 00
    000014  9a   777764 0000 46         dm_admin_gate_|dm_send_adjust_process_id
    000015  5a   000326 0000 00
    000016  9a   777762 0000 46         dm_admin_gate_|dm_send_adjust_tdt
    000017  5a   000325 0000 00
    000020  9a   777760 0000 46         dm_admin_gate_|dm_send_adjust_tdt_entry
    000021  5a   000324 0000 00
    000022  9a   777756 0000 46         dm_admin_gate_|dm_send_adjust_txn
    000023  5a   000323 0000 00
    000024  9a   777754 0000 46         dm_admin_gate_|dm_send_kill_txn
    000025  5a   000322 0000 00
    000026  9a   777752 0000 46         dm_admin_gate_|dm_send_new_proc
    000027  5a   000321 0000 00
    000030  9a   777750 0000 46         dm_admin_gate_|dm_send_new_process_notifies
    000031  5a   000320 0000 00
    000032  9a   777746 0000 46         dm_admin_gate_|dm_send_shutdown
    000033  5a   000317 0000 00
    000034  9a   777744 0000 46         dm_admin_gate_|dm_set_journal_stamps
    000035  5a   000316 0000 00
SYMBOL INFORMATION

SYMBOL TABLE HEADER

    000000  aa   000000 000001
    000001  aa   163171 155142
    000002  aa   164162 145145
    000003  aa   000000 000004
    000004  aa   000000 112143
    000005  aa   305203 523135
    000006  aa   000000 113376
    000007  aa   633657 025521
    000010  aa   141154 155040
    000011  aa   040040 040040
    000012  aa   000024 000040
    000013  aa   000034 000040
    000014  aa   000044 000100
    000015  aa   000002 000002
    000016  aa   000064 000000
    000017  aa   000000 000131
    000020  aa   000000 000103
    000021  aa   000000 000114
    000022  aa   000123 000103
    000023  aa   000064 000000
    000024  aa   101114 115040
    000025  aa   126145 162163
    000026  aa   151157 156040
    000027  aa   040066 056066
    000030  aa   040040 116157
    000031  aa   166145 155142
    000032  aa   145162 040061
    000033  aa   071070 062040
    000034  aa   107112 157150
    000035  aa   156163 157156
    000036  aa   056123 171163
    000037  aa   115141 151156
    000040  aa   164056 155040
    000041  aa   040040 040040
    000042  aa   040040 040040
    000043  aa   040040 040040
    000044  aa   154151 163164
    000045  aa   040040 040040
    000046  aa   040040 040040
    000047  aa   040040 040040
    000050  aa   040040 040040
    000051  aa   040040 040040
    000052  aa   040040 040040
    000053  aa   040040 040040
    000054  aa   040040 040040
    000055  aa   040040 040040
    000056  aa   040040 040040
    000057  aa   040040 040040
    000060  aa   040040 040040
    000061  aa   040040 040040
    000062  aa   040040 040040
    000063  aa   040040 040040
    000064  aa   000000 000001
    000065  aa   000000 000001
    000066  aa   000072 000044
    000067  aa   133727 541704
    000070  aa   000000 113376
    000071  aa   610520 400000
    000072  aa   076163 160145          >spec>on>7138.pbf>dm_admin_util_.alm
    000073  aa   143076 157156
    000074  aa   076067 061063
    000075  aa   070056 160142
    000076  aa   146076 144155
    000077  aa   137141 144155
    000100  aa   151156 137165
    000101  aa   164151 154137
    000102  aa   056141 154155
               MULTICS ASSEMBLY CROSS REFERENCE LISTING

   Value        Symbol                   Source file   Line number

           0    copy_log                 dm_admin_util_:      35.
                dm_admin_gate_           dm_admin_util_:      35,   37,   39,   41,   43,   45,   47,   49,   51,   53,   55.
                dm_copy_log              dm_admin_util_:      35.
                dm_schedule_shutdown     dm_admin_util_:      37.
                dm_send_adjust_process_id      dm_admin_util_:      39.
                dm_send_adjust_tdt       dm_admin_util_:      41.
                dm_send_adjust_tdt_entry       dm_admin_util_:      43.
                dm_send_adjust_txn       dm_admin_util_:      45.
                dm_send_kill_txn         dm_admin_util_:      47.
                dm_send_new_proc         dm_admin_util_:      49.
                dm_send_new_process_notifies   dm_admin_util_:      51.
                dm_send_shutdown         dm_admin_util_:      53.
                dm_set_journal_stamps    dm_admin_util_:      55.
           1    schedule_shutdown        dm_admin_util_:      37.
           2    send_adjust_process_id   dm_admin_util_:      39.
           3    send_adjust_tdt          dm_admin_util_:      41.
           4    send_adjust_tdt_entry    dm_admin_util_:      43.
           5    send_adjust_txn          dm_admin_util_:      45.
           6    send_kill_txn            dm_admin_util_:      47.
           7    send_new_proc            dm_admin_util_:      49.
          10    send_new_process_notifies      dm_admin_util_:      51.
          11    send_shutdown            dm_admin_util_:      53.
          12    set_journal_stamps       dm_admin_util_:      55.


NO FATAL ERRORS


                                          -----------------------------------------------------------


Historical Background

This edition of the Multics software materials and documentation is provided and donated
to Massachusetts Institute of Technology by Group BULL including BULL HN Information Systems Inc.
as a contribution to computer science knowledge.
This donation is made also to give evidence of the common contributions of Massachusetts Institute of Technology,
Bell Laboratories, General Electric, Honeywell Information Systems Inc., Honeywell BULL Inc., Groupe BULL
and BULL HN Information Systems Inc. to the development of this operating system.
Multics development was initiated by Massachusetts Institute of Technology Project MAC (1963-1970),
renamed the MIT Laboratory for Computer Science and Artificial Intelligence in the mid 1970s, under the leadership
of Professor Fernando Jose Corbato. Users consider that Multics provided the best software architecture
for managing computer hardware properly and for executing programs. Many subsequent operating systems
incorporated Multics principles.
Multics was distributed in 1975 to 2000 by Group Bull in Europe , and in the U.S. by Bull HN Information Systems Inc.,
as successor in interest by change in name only to Honeywell Bull Inc. and Honeywell Information Systems Inc. .

                                          -----------------------------------------------------------

Permission to use, copy, modify, and distribute these programs and their documentation for any purpose and without
fee is hereby granted,provided that the below copyright notice and historical background appear in all copies
and that both the copyright notice and historical background and this permission notice appear in supporting
documentation, and that the names of MIT, HIS, BULL or BULL HN not be used in advertising or publicity pertaining
to distribution of the programs without specific prior written permission.
    Copyright 1972 by Massachusetts Institute of Technology and Honeywell Information Systems Inc.
    Copyright 2006 by BULL HN Information Systems Inc.
    Copyright 2006 by Bull SAS
    All Rights Reserved
