ASSEMBLY LISTING OF SEGMENT >spec>on>7138.pbf>dm_data_.alm
ASSEMBLED ON:	03/05/85  0840.0 mst Tue
OPTIONS USED:	list
ASSEMBLED BY:	ALM Version  6.6  November 1982
ASSEMBLER CREATED:	09/21/83  1227.3 mst Wed

                                     1  " ***********************************************************
                                     2  " *                                                         *
                                     3  " * Copyright, (C) Honeywell Information Systems Inc., 1983 *
                                     4  " *                                                         *
                                     5  " ***********************************************************
                                     6  "
                                     7  "    This is the external static data used by the data management system.
                                     8  "
                                     9  " HISTORY:
                                    10  "	Written by Jeffrey D. Ives, in March 1983, converted from
                                    11  "		  John Bongiovanni's original cds.
                                    12  "	Modified:
                                    13  "	03/24/83 by Jeffrey D. Ives:  removed fields used exclusively
                                    14  "		  by file manager to fm_data_.
                                    15  "	09/20/83 by Lee A. Newcomb:  removed useless firstref trap. and
                                    16  "		  unreferenced variables.
                                    17  "	12/05/83 by L. A. Newcomb:  removed before journal manager
                                    18  "		  specific entries to bjm_data_.  bj_txt_ptr is still
                                    19  "		  here as transaction_manager_ may read it, and the
                                    20  "		  TXT directly corresponds to the TDT.
                                    21  "
                                    22  " " " " " " " " " " " " " " " " " " " " " " " " " " " " " " "
                                    23
    000000                          24  	name	dm_data_
                                    25
                                    26  " LINKAGE  LINKAGE  LINKAGE  LINKAGE  LINKAGE  LINKAGE  LINKAGE  LINKAGE
                                    27
                                    28  	use	linkage_data
                                    29
                                    30  	even
                                    31
                        000010      32  	segdef	area_ptr			" Points to area for table allocation
                        000010      33  	segdef	inner_ring_areap		" Inner ring extendable area
    000010                          34  area_ptr:					" dcl $area_ptr ptr ext;
    000010                          35  inner_ring_areap:				" dcl $inner_ring_areap ptr ext;
    000010  aa   077777 000043      36  	its	-1,1
    000011  aa   000001 000000
                                    37
                        000012      38  	segdef	dm_journal_segp		" -> hardcore dm_journal_seg_
    000012                          39  dm_journal_segp:				" dcl $dm_journal_segp ptr ext;
    000012  aa   077777 000043      40  	its	-1,1
    000013  aa   000001 000000
                                    41
                        000014      42  	segdef	tm_tdt_ptr
    000014                          43  tm_tdt_ptr:				" dcl $tm_tdt_ptr ptr ext;
    000014  aa   077777 000043      44  	its	-1,1
    000015  aa   000001 000000
                                    45
                        000016      46  	segdef	bj_txt_ptr
    000016                          47  bj_txt_ptr:				" dcl $bj_txt_ptr ptr ext;
    000016  aa   077777 000043      48  	its	-1,1
    000017  aa   000001 000000
                                    49
                        000020      50  	segdef	default_error_label
    000020                          51  default_error_label:			" dcl $default_error_label label var ext;
    000020  aa   077777 000043      52  	its	-1,1
    000021  aa   000001 000000
    000022  aa   077777 000043      53  	its	-1,1
    000023  aa   000001 000000
                                    54
                                    55
                                    56  " !!!!!!!!!!!!!!!!!! END OF DOUBLE WORD ALIGNMENT REGION !!!!!!!!!!!!!!!!!!!!!!
                                    57
                        000024      58  	segdef	initialization_state	" Initialization state
    000024                          59  initialization_state:			" dcl $initialization_state char (8) ext;
    000024  aa  040 040 040 040     60  	aci	//,8
    000025  aa  040 040 040 040
                                    61
                        000026      62  	segdef	system_id			" System identifier
    000026                          63  system_id:				" dcl $system_id fixed bin (35) ext;
    000026  aa   000000 000000      64  	dec	0
                                    65
                        000027      66  	segdef	my_tdt_index		" Txn table position for this process
    000027                          67  my_tdt_index:				" dcl $my_tdt_index fixed bin ext;
    000027  aa   000000 000000      68  	dec	0
                                    69
                        000030      70  	segdef	my_process_id		" Unique ID for this process
    000030                          71  my_process_id:				" dcl $my_process_id bit (36) aligned ext;
    000030  aa   000000 000000      72  	oct	0
                                    73
                        000031      74  	segdef	current_txn_id		" Current Transaction Identifier
    000031                          75  current_txn_id:				" dcl $current_txn_id bit (36) aligned ext
    000031  aa   000000 000000      76  	oct	0
                                    77
                        000032      78  	segdef	current_txn_index		" Transaction Table Index of Current Txn
    000032                          79  current_txn_index:				" dcl $current_txn_index fixed bin (35)
    000032  aa   000000 000000      80  	dec	0
                                    81
                        000033      82  	segdef	suspended_txn_id		" Transaction Identifier of suspended txn
    000033                          83  suspended_txn_id:				" dcl $suspended_txn_id bit (36) aligned
    000033  aa   000000 000000      84  	oct	0
                                    85
                        000034      86  	segdef	suspended_txn_index		" Transaction Table index of suspended txn
    000034                          87  suspended_txn_index:			" dcl $suspended_txn_index fixed bin (35)
    000034  aa   000000 000000      88  	dec	0
                                    89
                                    90
                                    91  	join	/link/linkage_data
                                    92
                                    93  	end

NO LITERALS

NAME DEFINITIONS FOR ENTRY POINTS AND SEGDEFS

    000000  5a   000003 000000
    000001  5a   000165 600000
    000002  aa   000000 000000
    000003  55   000011 000002
    000004  5a   000002 400003
    000005  55   000006 000011
    000006  aa  010 144 155 137
    000007  aa  144 141 164 141
    000010  aa  137 000 000 000
    000011  55   000021 000003
    000012  2a   000034 400001
    000013  55   000014 000003
    000014  aa  023 163 165 163         suspended_txn_index
    000015  aa  160 145 156 144
    000016  aa  145 144 137 164
    000017  aa  170 156 137 151
    000020  aa  156 144 145 170
    000021  55   000031 000011
    000022  2a   000033 400001
    000023  55   000024 000003
    000024  aa  020 163 165 163         suspended_txn_id
    000025  aa  160 145 156 144
    000026  aa  145 144 137 164
    000027  aa  170 156 137 151
    000030  aa  144 000 000 000
    000031  55   000041 000021
    000032  2a   000032 400001
    000033  55   000034 000003
    000034  aa  021 143 165 162         current_txn_index
    000035  aa  162 145 156 164
    000036  aa  137 164 170 156
    000037  aa  137 151 156 144
    000040  aa  145 170 000 000
    000041  55   000050 000031
    000042  2a   000031 400001
    000043  55   000044 000003
    000044  aa  016 143 165 162         current_txn_id
    000045  aa  162 145 156 164
    000046  aa  137 164 170 156
    000047  aa  137 151 144 000
    000050  55   000057 000041
    000051  2a   000030 400001
    000052  55   000053 000003
    000053  aa  015 155 171 137         my_process_id
    000054  aa  160 162 157 143
    000055  aa  145 163 163 137
    000056  aa  151 144 000 000
    000057  55   000066 000050
    000060  2a   000027 400001
    000061  55   000062 000003
    000062  aa  014 155 171 137         my_tdt_index
    000063  aa  164 144 164 137
    000064  aa  151 156 144 145
    000065  aa  170 000 000 000
    000066  55   000074 000057
    000067  2a   000026 400001
    000070  55   000071 000003
    000071  aa  011 163 171 163         system_id
    000072  aa  164 145 155 137
    000073  aa  151 144 000 000
    000074  55   000105 000066
    000075  2a   000024 400001
    000076  55   000077 000003
    000077  aa  024 151 156 151         initialization_state
    000100  aa  164 151 141 154
    000101  aa  151 172 141 164
    000102  aa  151 157 156 137
    000103  aa  163 164 141 164
    000104  aa  145 000 000 000
    000105  55   000115 000074
    000106  2a   000020 400001
    000107  55   000110 000003
    000110  aa  023 144 145 146         default_error_label
    000111  aa  141 165 154 164
    000112  aa  137 145 162 162
    000113  aa  157 162 137 154
    000114  aa  141 142 145 154
    000115  55   000123 000105
    000116  2a   000016 400001
    000117  55   000120 000003
    000120  aa  012 142 152 137         bj_txt_ptr
    000121  aa  164 170 164 137
    000122  aa  160 164 162 000
    000123  55   000131 000115
    000124  2a   000014 400001
    000125  55   000126 000003
    000126  aa  012 164 155 137         tm_tdt_ptr
    000127  aa  164 144 164 137
    000130  aa  160 164 162 000
    000131  55   000140 000123
    000132  2a   000012 400001
    000133  55   000134 000003
    000134  aa  017 144 155 137         dm_journal_segp
    000135  aa  152 157 165 162
    000136  aa  156 141 154 137
    000137  aa  163 145 147 160
    000140  55   000150 000131
    000141  2a   000010 400001
    000142  55   000143 000003
    000143  aa  020 151 156 156         inner_ring_areap
    000144  aa  145 162 137 162
    000145  aa  151 156 147 137
    000146  aa  141 162 145 141
    000147  aa  160 000 000 000
    000150  55   000156 000140
    000151  2a   000010 400001
    000152  55   000153 000003
    000153  aa  010 141 162 145         area_ptr
    000154  aa  141 137 160 164
    000155  aa  162 000 000 000
    000156  55   000002 000150
    000157  6a   000000 400002
    000160  55   000161 000003
    000161  aa  014 163 171 155         symbol_table
    000162  aa  142 157 154 137
    000163  aa  164 141 142 154
    000164  aa  145 000 000 000

DEFINITIONS HASH TABLE

    000165  aa   000000 000033
    000166  aa   000000 000000
    000167  5a   000041 000000
    000170  5a   000105 000000
    000171  aa   000000 000000
    000172  aa   000000 000000
    000173  aa   000000 000000
    000174  aa   000000 000000
    000175  aa   000000 000000
    000176  5a   000140 000000
    000177  aa   000000 000000
    000200  5a   000156 000000
    000201  5a   000123 000000
    000202  aa   000000 000000
    000203  5a   000011 000000
    000204  aa   000000 000000
    000205  aa   000000 000000
    000206  5a   000021 000000
    000207  5a   000050 000000
    000210  5a   000057 000000
    000211  5a   000066 000000
    000212  5a   000131 000000
    000213  aa   000000 000000
    000214  5a   000150 000000
    000215  5a   000115 000000
    000216  aa   000000 000000
    000217  5a   000031 000000
    000220  5a   000074 000000

NO EXTERNAL NAMES

NO TRAP POINTER WORDS

TYPE PAIR BLOCKS

    000221  aa   000001 000000
    000222  aa   000000 000000

INTERNAL EXPRESSION WORDS

    000223  aa   000000 000000
LINKAGE INFORMATION

    000000  aa   000000 000000
    000001  0a   000000 000000
    000002  aa   000000 000000
    000003  aa   000000 000000
    000004  aa   000000 000000
    000005  aa   000000 000000
    000006  22   000036 000036
    000007  a2   000000 000026
SYMBOL INFORMATION

SYMBOL TABLE HEADER

    000000  aa   000000 000001
    000001  aa   163171 155142
    000002  aa   164162 145145
    000003  aa   000000 000004
    000004  aa   000000 112143
    000005  aa   305203 523135
    000006  aa   000000 113376
    000007  aa   634302 717021
    000010  aa   141154 155040
    000011  aa   040040 040040
    000012  aa   000024 000040
    000013  aa   000034 000040
    000014  aa   000044 000100
    000015  aa   000002 000002
    000016  aa   000064 000000
    000017  aa   000000 000117
    000020  aa   000000 000102
    000021  aa   000000 000104
    000022  aa   000111 000102
    000023  aa   000064 000000
    000024  aa   101114 115040
    000025  aa   126145 162163
    000026  aa   151157 156040
    000027  aa   040066 056066
    000030  aa   040040 116157
    000031  aa   166145 155142
    000032  aa   145162 040061
    000033  aa   071070 062040
    000034  aa   107112 157150
    000035  aa   156163 157156
    000036  aa   056123 171163
    000037  aa   115141 151156
    000040  aa   164056 155040
    000041  aa   040040 040040
    000042  aa   040040 040040
    000043  aa   040040 040040
    000044  aa   154151 163164
    000045  aa   040040 040040
    000046  aa   040040 040040
    000047  aa   040040 040040
    000050  aa   040040 040040
    000051  aa   040040 040040
    000052  aa   040040 040040
    000053  aa   040040 040040
    000054  aa   040040 040040
    000055  aa   040040 040040
    000056  aa   040040 040040
    000057  aa   040040 040040
    000060  aa   040040 040040
    000061  aa   040040 040040
    000062  aa   040040 040040
    000063  aa   040040 040040
    000064  aa   000000 000001
    000065  aa   000000 000001
    000066  aa   000072 000036
    000067  aa   133727 542421
    000070  aa   000000 113376
    000071  aa   611636 400000
    000072  aa   076163 160145          >spec>on>7138.pbf>dm_data_.alm
    000073  aa   143076 157156
    000074  aa   076067 061063
    000075  aa   070056 160142
    000076  aa   146076 144155
    000077  aa   137144 141164
    000100  aa   141137 056141
    000101  aa   154155 040040
               MULTICS ASSEMBLY CROSS REFERENCE LISTING

   Value        Symbol                   Source file   Line number

          10    area_ptr                 dm_data_:      32,   34.
          16    bj_txt_ptr               dm_data_:      46,   47.
          31    current_txn_id           dm_data_:      74,   75.
          32    current_txn_index        dm_data_:      78,   79.
          20    default_error_label      dm_data_:      50,   51.
          12    dm_journal_segp          dm_data_:      38,   39.
          24    initialization_state     dm_data_:      58,   59.
          10    inner_ring_areap         dm_data_:      33,   35.
          10    linkage_data             dm_data_:      28,   91.
          30    my_process_id            dm_data_:      70,   71.
          27    my_tdt_index             dm_data_:      66,   67.
          33    suspended_txn_id         dm_data_:      82,   83.
          34    suspended_txn_index      dm_data_:      86,   87.
          26    system_id                dm_data_:      62,   63.
          14    tm_tdt_ptr               dm_data_:      42,   43.


NO FATAL ERRORS


                                          -----------------------------------------------------------


Historical Background

This edition of the Multics software materials and documentation is provided and donated
to Massachusetts Institute of Technology by Group BULL including BULL HN Information Systems Inc.
as a contribution to computer science knowledge.
This donation is made also to give evidence of the common contributions of Massachusetts Institute of Technology,
Bell Laboratories, General Electric, Honeywell Information Systems Inc., Honeywell BULL Inc., Groupe BULL
and BULL HN Information Systems Inc. to the development of this operating system.
Multics development was initiated by Massachusetts Institute of Technology Project MAC (1963-1970),
renamed the MIT Laboratory for Computer Science and Artificial Intelligence in the mid 1970s, under the leadership
of Professor Fernando Jose Corbato. Users consider that Multics provided the best software architecture
for managing computer hardware properly and for executing programs. Many subsequent operating systems
incorporated Multics principles.
Multics was distributed in 1975 to 2000 by Group Bull in Europe , and in the U.S. by Bull HN Information Systems Inc.,
as successor in interest by change in name only to Honeywell Bull Inc. and Honeywell Information Systems Inc. .

                                          -----------------------------------------------------------

Permission to use, copy, modify, and distribute these programs and their documentation for any purpose and without
fee is hereby granted,provided that the below copyright notice and historical background appear in all copies
and that both the copyright notice and historical background and this permission notice appear in supporting
documentation, and that the names of MIT, HIS, BULL or BULL HN not be used in advertising or publicity pertaining
to distribution of the programs without specific prior written permission.
    Copyright 1972 by Massachusetts Institute of Technology and Honeywell Information Systems Inc.
    Copyright 2006 by BULL HN Information Systems Inc.
    Copyright 2006 by Bull SAS
    All Rights Reserved
