ASSEMBLY LISTING OF SEGMENT >spec>install>MR12.1-1020>dm_error_.alm
ASSEMBLED ON:	04/02/87  1307.9 mst Thu
OPTIONS USED:	-target l68                              list symbols
ASSEMBLED BY:	ALM Version 7.3 November 1986
ASSEMBLER CREATED:	11/26/86  1244.2 mst Wed

                                     1  " ***********************************************************
                                     2  " *                                                         *
                                     3  " * Copyright, (C) Honeywell Information Systems Inc., 1982 *
                                     4  " *                                                         *
                                     5  " ***********************************************************
                                     6
                                     7  "
                                     8  "	THIS IS NOW IN ALPHABETICAL ORDER - PLEASE KEEP IT SO
                                     9  "
                                    10  " Written by Someone, ??/??/82.
                                    11  " Modified:
                                    12  " 09/16/82 by M. Pandolf: to add before journal codes.
                                    13  " 10/07/82 by Roger Lackey: added no_tuple,notup  and
                                    14  "	    unsupported_spec_operator,unsspo
                                    15  " 10/23/82 by Roger Lackey: added invalid_search_spec_type,invspt,
                                    16  " 10/08/82 by Roger Lackey: added unsup_search_spec_head_type and
                                    17  "	    unsup_search_spec_range_type and record_col_cursor_only.
                                    18  " 10/18/82 by Roger Lackey: added  no_tuple_id.
                                    19  " 10/19/82 by Matthew Pierret: Added relation_not_open, bad_last_key_idx,
                                    20  "	    collection_not_in_relation, no_element.
                                    21  " 10/21/82 by Jeffrey D. Ives: Added error codes for file_manager_.
                                    22  " 11/03/82 by M. Pandolf:  Added bj_journal_in_use.
                                    23  " 11/05/82 by Roger Lackey:  Added invalid_scope,invscope, and
                                    24  "	    changed name from vd_error_ to dm_error_
                                    25  " 11/17/82 by Matthew Pierret:  Added $no_datum.
                                    26  " 11/19/82 by Lee A. Newcomb:   Added $not_all_bj_opened_after_crash and
                                    27  "	    $partial_recovery.
                                    28  " 11/19/82 by M. Pandolf:  Added bj_incomplete_rollback.
                                    29  " 11/22/82 by M. Pandolf:  Added bj_no_txn.
                                    30  " 12/03/82 by M. Pandolf:  Added bj_already_adopting.
                                    31  " 12/08/82 by Lee A. Newcomb:  add code needed by bjm_find_txns_after_crash
                                    32  "	    and $boot_dir_missing
                                    33  " 12/09/82 by Lee A. Newcomb:  add bj_first_txn_rec_not_found.
                                    34  " 12/21/82 by Matthew Pierret:  Added $record_not_found ($norec).
                                    35  " 01/03/83 by J. Bongiovanni:  Merged in dm_error_table_ and ordered
                                    36  "	    alphabetically.
                                    37  " 01/07/83 by Matthew Pierret:  Added $ci_buffer_not_ci ($cibnotci)
                                    38  "	    This code is returned by one the collection_manager_'s
                                    39  "	    buffered entries to indicate that the buffer does not
                                    40  "	    actually contain a control interval, also added
                                    41  "	    $programming_error ($progerr).
                                    42  " 01/19/82 by M. Pandolf:  Added bj_bad_rec_count.
                                    43  " 01/24/83 by Lindsey Spratt:  Added $bad_parent_thread.
                                    44  " 01/25/83 by Lindsey Spratt:  Added $tdt_entry_in_use, $keys_out_of_order.
                                    45  " 02/10/83 by Matthew Pierret: Added $cant_buffer_ci_continuations,
                                    46  "	    $ci_0_invalid_free, $ci_buffer_too_small, $ci_not_allocated,
                                    47  "	    $col_is_inconsistent, $no_header_record,
                                    48  "	    $unimplemented_ci_version.  Removed $ci_buffer_not_ci.
                                    49  " 03/14/83 by L. A. Newcomb: Defined many codes used by before
                                    50  "	    journal manager that just haven't been.
                                    51  " 04/07/83 by M. Pandolf:  Added bj_cant_abort and bj_cant_commit.
                                    52  " 04/26/83 by Matthew Pierret: Added $tuple_not_found (with synonym
                                    53  "	    $no_tuple) and added $tuple_not_found_id to $no_tuple_id.
                                    54  "	    Changed the wording of both messages slightly.
                                    55  " 04/29/83 by Matthew Pierret: Added $long_return_element.
                                    56  " 05/03/83 by L. A. Newcomb: added codes needed by bj_pste_(create lock).pl1
                                    57  "	    and fixed a spelling error.
                                    58  " 05/04/83 by Jeffrey D. Ives: Added file_path_too_long.
                                    59  " 05/09/83 by L. A. Newcomb: added system_config_file_checksum_err.
                                    60  " 06/08/83 by L. A. Newcomb: added bj_illegal_size for bjm_create.pl1.
                                    61  " 06/08/83 by Matthew Pierret: Added rel_cursor_pos_bad and
                                    62  "	    rel_cursor_spec_mismatch.
                                    63  " 10/06/83 by Lindsey Spratt: Added $bad_vector_type, and a short
                                    64  "	    message for $bad_parent_thread.
                                    65  " 10/31/83 by M. Pandolf: added bj_invalid_name.
                                    66  " 11/29/83 by Steve Herbst: added $no_user_dm.
                                    67  " 03/21/84 by Matthew Pierret: Changed $ci_not_allocated to not
                                    68  "	    mention collections, as it is now used by file_manager_.
                                    69  " 04/19/84 by Lindsey Spratt: Added $short_buffer.
                                    70  " 05/04/84 by Matthew Pierret: Added: $bad_specification_type,
                                    71  "	    $invalid_cursor_position, $bad_first_key_index,
                                    72  "	    $bad_leaf_node, $wrong_cursor_type
                                    73  "	    Removed the un-used codes: $insufficient_room_in_ci,
                                    74  "	    $invalid_cursor.
                                    75  " 06/06/84 by Lee Baldwin: Reworded many of the codes' descriptions.
                                    76  "	    Removed the unused codes. Added the codes:
                                    77  "	    index_not_in_relation, invalid_alignment,
                                    78  "	    nonempty_relation, tdt_entry_not_freed,
                                    79  "	    unexpected_search_case, unimplemented_data_type.
                                    80  "	    Renamed the codes named **_bad or *_bad_* to bad_**.
                                    81  " 06/11/84 by Lee Baldwin: Renamed bad_file_cr_blkg_fctr to
                                    82  "	    bad_file_cr_blocking_factor.
                                    83  " 08/27/84 by Matthew Pierret: Added fm_xring_brackets_mismatch.
                                    84  " 10/24/84 by Lee A. Newcomb:  Added $dm_shutdown_not_sched.
                                    85  " 11/27/84 by Matthew Pierret:  Added fm_bad_postcommit_operation,
                                    86  "	    fm_bad_undo_operation, fm_too_many_openings.
                                    87  " 12/04/84 by Stanford S. Cox: Added open_table_damaged.
                                    88  " 12/05/84 by Lee A. Newcomb:  Removed obs. bj_bad_undo_info.
                                    89  " 12/07/84 by Lindsey Spratt: Added $delete_pending_transaction, and
                                    90  "	    no_delete_dir_transaction.
                                    91  " 01/29/85 by Steve Herbst: Added file_was_deleted.
                                    92  " 02/26/85 by Lee A. Newcomb:  Added $too_many_bootload_dirs.  Removed the
                                    93  "	    obsolete:  aim_auth_not_found, aim_invalid_control_seg,
                                    94  "	    bj_already_adopting, bj_bad_buffer_address,
                                    95  "	    bj_no_more_previous_ci, bj_no_previous_ci, bj_no_pst,
                                    96  "	    bj_no_txn, bj_pst_full, bj_pst_mod_list_full,
                                    97  "	    dms_already_in_operation, dms_unknown_action,
                                    98  "	    file_path_too_long, fm_no_current_txn, invalid_dms_call, and
                                    99  "	    no_journal_seg.
                                   100  " 02/28/85 by Steve Herbst:  Added $fm_cant_remove_name, returned by
                                   101  "	    fm_attribute_fref_$chname_file when a user tries to remove
                                   102  "	    a name from a DM file.
                                   103  " 03/13/85 by R. Michael Tague:  Added $fm_word_increment_error,
                                   104  "	    $invalid_increment_offset, $invalid_increment_words,
                                   105  "	    $long_increment_length, and $fm_bad_inc_info_ver.
                                   106  " 03/21/85 by R. Michael Tague:  Added $file_must_be_protected.
                                   107  "
                                   108  "
                                   109  """"""""""""""""""""""""""""""""""""""""""""""""""""""""""""""""""""""""""""
                                   110
                                   111  " HISTORY COMMENTS:
                                   112  "  1) change(86-12-21,Hergert), approve(87-04-01,MCR7632),
                                   113  "     audit(87-01-30,Dupuis), install(87-04-02,MR12.1-1020):
                                   114  "     Added $incr_array_not_found.
                                   115  "                                                      END HISTORY COMMENTS
                                   116
                                   117
                                   118  	include 	et_macros
                                   1-1  " Begin include file ...... et_macros.incl.alm
                                   1-2  "	Written 6/15/77 by Noel I. Morris
                                   1-3  "	Modified '82 so error code entries are in first page of segment.
                                   1-4
                                   1-5  " This include file contains macros for generating error tables
                                   1-6  " for both system and non-system use.
                                   1-7
                                   1-8  " ET MACRO
                                   1-9  "
                                  1-10  " This macro is used to initialize the error table for either
                                  1-11  " system or non-system use.  It is invoked at the beginning of
                                  1-12  " the error table as follows:
                                  1-13  "
                                  1-14  "	et	table_name{,system}
                                  1-15  "
                                  1-16
                                  1-17  macro	et
                              1   1-18  	maclist	on
                              2   1-19
                              3   1-20  	name	&1
                              4   1-21
                              5   1-22  &^=&2,system&[
                              6   1-23
                              7   1-24  	include	stack_header
                              8   1-25
                              9   1-26  
                             10   1-27
                             11   1-28  	use	codes
                             12   1-29  .code_start:
                             13   1-30
                             14   1-31  	use	past_codes
                             15   1-32  .code_end:
                             16   1-33
                             17   1-34  	join	/link/codes,past_codes
                             18   1-35
                             19   1-36  	use	messages
                             20   1-37
                             21   1-38  .trapproc:
                             22   1-39  	epaq	0,ic
                             23   1-40  	eax0	0,au
                             24   1-41  	epbpsb	sp|0
                             25   1-42  	lprplp	sb|stack_header.lot_ptr,*au
                             26   1-43  	eax1	.code_start
                             27   1-44  .loop:	stx0	lp|0,x1
                             28   1-45  	eax1	1,x1
                             29   1-46  	cmpx1	.code_end,du
                             30   1-47  	tmi	.loop-*,ic
                             31   1-48  	short_return
                             32   1-49
                             33   1-50  	firstref	<*text>|.trapproc
                             34   1-51
                             35   1-52  &;	use	codes
                             36   1-53  	use	messages
                             37   1-54
                             38   1-55  	join	/text/codes,messages
                             39   1-56
                             40   1-57  &]
                             41   1-58
                             42   1-59  	bool	.segno,77777
                             43   1-60
                             44   1-61  	maclist	off
                             45   1-62
                             46   1-63  	&end
                                  1-64
                                  1-65  
                                  1-66
                                  1-67  " EC MACRO
                                  1-68  "
                                  1-69  " This macro is used to define an error code as shown:
                                  1-70  "
                                  1-71  "	ec	name,{short_mess},(long_mess)
                                  1-72  "
                                  1-73  " If more than a single name is to be defined for a given message,
                                  1-74  " a list of names separated by commas and enclosed in parentheses
                                  1-75  " must be given.   short_mess must be 8 or less characters.  If omitted,
                                  1-76  " the short_mess will be set to the name.  long_mess is enclosed
                                  1-77  " in parentheses in order to cause ALM to ignore embedded blanks.  Please
                                  1-78  " note that double quote characters in either short_mess or long_mess
                                  1-79  " must be doubled in order to make the ALM assembly work properly.
                                  1-80  " Note that a macro invocation line terminated by a comma will cause that
                                  1-81  " statement to be continued on the next line.
                                  1-82
                                  1-83  macro	ec
                              1   1-84  	use	codes
                              2   1-85
                              3   1-86  	maclist	on,save
                              4   1-87  &(1	segdef  &i
                              5   1-88  &)	maclist	restore
                              6   1-89  &(1&i:
                              7   1-90  &)	maclist	object,save
                              8   1-91  	zero	.segno,&U
                              9   1-92  	maclist	restore
                             10   1-93  	use	messages
                             11   1-94  &^=&l2,0&[	shortname    &2
                             12   1-95  &;	shortname    &1
                             13   1-96  &]
                             14   1-97  &U:
                             15   1-98  	maclist	on,save
                             16   1-99  	acc  "&3"
                             17  1-100
                             18  1-101  	maclist	restore
                             19  1-102  	&end
                                 1-103
                                 1-104  macro	shortname
                              1  1-105  	maclist	on,save
                              2  1-106  	aci  "&1",8
                              3  1-107  	maclist	restore
                              4  1-108  	&end
                                 1-109
                                 1-110  
                                 1-111
                                 1-112  " A typical error table source program might have the following format:
                                 1-113  "
                                 1-114  "	include	et_macros
                                 1-115  "
                                 1-116  "	et	name_of_error_table
                                 1-117  "
                                 1-118  "	ec	error_code_1,ecode1,(This is error code 1.)
                                 1-119  "
                                 1-120  "	ec	error_code_2,ecode2,(This is error code 2.)
                                 1-121  "
                                 1-122  "	:	     :	      :		:
                                 1-123  "
                                 1-124  "	ec	error_code_n,ecoden,(This is the nth error code.)
                                 1-125  "
                                 1-126  "	end
                                 1-127  "
                                 1-128
                                 1-129  " End of include file ...... et_macros.incl.alm
                                 1-130
                                   119  	et 	dm_error_

    000000                              	name	dm_error_


                                        	include	stack_header
                                   2-1  "	BEGIN INCLUDE FILE ... stack_header.incl.alm  3/72  Bill Silver
                                   2-2  "
                                   2-3  "	modified 7/76 by M. Weaver for *system links and more system use of areas
                                   2-4  "	modified 3/77 by M. Weaver  to add rnt_ptr
                                   2-5  "	modified 7/77 by S. Webber to add run_unit_depth and assign_linkage_ptr
                                   2-6  "	modified 6/83 by J. Ives to add trace_frames and in_trace.
                                   2-7
                                   2-8  " HISTORY COMMENTS:
                                   2-9  "  1) change(86-06-24,DGHowe), approve(86-06-24,MCR7396),
                                  2-10  "     audit(86-08-05,Schroth), install(86-11-03,MR12.0-1206):
                                  2-11  "     added the heap_header_ptr definition
                                  2-12  "  2) change(86-08-12,Kissel), approve(86-08-12,MCR7473),
                                  2-13  "     audit(86-10-10,Fawcett), install(86-11-03,MR12.0-1206):
                                  2-14  "     Modified to support control point management.  These changes were
                                  2-15  "     actually made in February 1985 by G. Palter.
                                  2-16  "  3) change(86-10-22,Fawcett), approve(86-10-22,MCR7473),
                                  2-17  "     audit(86-10-22,Farley), install(86-11-03,MR12.0-1206):
                                  2-18  "     Remove the old_lot pointer and replace it with cpm_data_ptr. Use the 18
                                  2-19  "     bit pad after cur_lot_size for the cpm_enabled. This was done to save
                                  2-20  "     some space int the stack header and change the cpd_ptr unal to
                                  2-21  "     cpm_data_ptr (ITS pair).
                                  2-22  "                                                      END HISTORY COMMENTS
                                  2-23
                        000004    2-24  	equ	stack_header.cpm_data_ptr,4		ptr to control point for this stack
                        000006    2-25  	equ	stack_header.combined_stat_ptr,6	ptr to separate static area
                                  2-26
                        000010    2-27  	equ	stack_header.clr_ptr,8		ptr to area containing linkage sections
                        000012    2-28  	equ	stack_header.max_lot_size,10		number of words allowed in lot (DU)
                        000012    2-29  	equ	stack_header.main_proc_invoked,10	nonzero if main proc was invoked in run unit (DL)
                        000012    2-30  	equ	stack_header.run_unit_depth,10	number of active run units stacked (DL)
                        000013    2-31  	equ	stack_header.cur_lot_size,11		DU number of words (entries) in lot
                        000013    2-32            equ	stack_header.cpm_enabled,11		DL  non-zero if control point management is enabled
                        000014    2-33  	equ	stack_header.system_free_ptr,12	ptr to system storage area
                        000016    2-34  	equ	stack_header.user_free_ptr,14		ptr to user storage area
                                  2-35
                        000020    2-36  	equ	stack_header.parent_ptr,16		ptr to parent stack or null
                        000022    2-37  	equ	stack_header.stack_begin_ptr,18	ptr to first stack frame
                        000024    2-38  	equ	stack_header.stack_end_ptr,20		ptr to next useable stack frame
                        000026    2-39  	equ	stack_header.lot_ptr,22		ptr to the lot for the current ring
                                  2-40
                        000030    2-41  	equ	stack_header.signal_ptr,24		ptr to signal proc for current ring
                        000032    2-42  	equ	stack_header.bar_mode_sp,26		value of sp before entering bar mode
                        000034    2-43  	equ	stack_header.pl1_operators_ptr,28	ptr: pl1_operators_$operator_table
                        000036    2-44  	equ	stack_header.call_op_ptr,30		ptr to standard call operator
                                  2-45
                        000040    2-46  	equ	stack_header.push_op_ptr,32		ptr to standard push operator
                        000042    2-47  	equ	stack_header.return_op_ptr,34		ptr to standard return operator
                        000044    2-48  	equ	stack_header.ret_no_pop_op_ptr,36	ptr: stand. return/ no pop operator
                        000046    2-49  	equ	stack_header.entry_op_ptr,38		ptr to standard entry operator
                                  2-50
                        000050    2-51  	equ	stack_header.trans_op_tv_ptr,40	ptr to table of translator operator ptrs
                        000052    2-52  	equ	stack_header.isot_ptr,42		pointer to ISOT
                        000054    2-53  	equ	stack_header.sct_ptr,44		pointer to System Condition Table
                        000056    2-54  	equ	stack_header.unwinder_ptr,46		pointer to unwinder for current ring
                                  2-55
                        000060    2-56  	equ	stack_header.sys_link_info_ptr,48	ptr to *system link name table
                        000062    2-57  	equ	stack_header.rnt_ptr,50		ptr to reference name table
                        000064    2-58  	equ	stack_header.ect_ptr,52		ptr to event channel table
                        000066    2-59  	equ	stack_header.assign_linkage_ptr,54	ptr to area for hcs_$assign_linkage calls
                        000070    2-60  	equ	stack_header.heap_header_ptr,56	ptr to heap header.
                        000072    2-61  	equ	stack_header.trace_frames,58		stack of trace_catch_ frames
                        000073    2-62  	equ	stach_header.trace_top_ptr,59		trace pointer
                        000074    2-63  	equ	stack_header.in_trace,60		trace antirecurse bit
                        000100    2-64  	equ	stack_header_end,64			length of stack header
                                  2-65
                                  2-66
                                  2-67
                                  2-68
                        000000    2-69  	equ	trace_frames.count,0		number of trace frames on stack
                        000001    2-70  	equ	trace_frames.top_ptr,1		packed pointer to top one
                                  2-71
                                  2-72  "	The  following constant is an offset within the  pl1  operators table.
                                  2-73  "	It  references a  transfer vector table.
                                  2-74
                        000551    2-75  	bool	tv_offset,551
                                  2-76
                                  2-77
                                  2-78  "	The  following constants are offsets within this transfer vector table.
                                  2-79
                        001170    2-80  	equ	call_offset,tv_offset+271
                        001171    2-81  	equ	push_offset,tv_offset+272
                        001172    2-82  	equ	return_offset,tv_offset+273
                        001173    2-83  	equ	return_no_pop_offset,tv_offset+274
                        001174    2-84  	equ	entry_offset,tv_offset+275
                                  2-85
                                  2-86
                                  2-87  " 	END INCLUDE FILE stack_header.incl.alm

                                        

                                        	use	codes
    000010                              .code_start:

                                        	use	past_codes
    000331                              .code_end:

                                        	join	/link/codes,past_codes

                                        	use	messages

    000000                              .trapproc:
    000000  aa   000000 2130 04         	epaq	0,ic
    000001  aa   000000 6200 01         	eax0	0,au
    000002  aa  6 00000 3731 00         	epbpsb	sp|0
    000003  aa  7 00026 7641 61         	lprplp	sb|stack_header.lot_ptr,*au
    000004  8a   000010 6210 00         	eax1	.code_start
    000005  aa  4 00000 7401 11         .loop:	stx0	lp|0,x1
    000006  aa   000001 6210 11         	eax1	1,x1
    000007  8a   000331 1010 03         	cmpx1	.code_end,du
    000010  aa   777775 6040 04         	tmi	.loop-*,ic
    000011  aa  7 00044 7101 20         	short_return

    000012                              	firstref	<*text>|.trapproc


                        077777          	bool	.segno,77777

                                   120
                                   121
                                   122  ec area_overflow,areaovfl,
                                   123            (The requested allocation caused the area to overflow.)
                        000010          	segdef  area_overflow
    000010  a0   077777 000014
    000012  aa  141 162 145 141         	aci  "areaovfl",8
    000013  aa  157 166 146 154
    000014  aa  065 124 150 145         	acc  "The requested allocation caused the area to overflow."
    000015  aa  040 162 145 161
    000016  aa  165 145 163 164
    000017  aa  145 144 040 141
    000020  aa  154 154 157 143
    000021  aa  141 164 151 157
    000022  aa  156 040 143 141
    000023  aa  165 163 145 144
    000024  aa  040 164 150 145
    000025  aa  040 141 162 145
    000026  aa  141 040 164 157
    000027  aa  040 157 166 145
    000030  aa  162 146 154 157
    000031  aa  167 056 000 000

                                   124
                                   125  ec bad_element_length,badelen,
                                   126            (The specified element length is negative.)
                        000011          	segdef  bad_element_length
    000011  a0   077777 000034
    000032  aa  142 141 144 145         	aci  "badelen",8
    000033  aa  154 145 156 040
    000034  aa  051 124 150 145         	acc  "The specified element length is negative."
    000035  aa  040 163 160 145
    000036  aa  143 151 146 151
    000037  aa  145 144 040 145
    000040  aa  154 145 155 145
    000041  aa  156 164 040 154
    000042  aa  145 156 147 164
    000043  aa  150 040 151 163
    000044  aa  040 156 145 147
    000045  aa  141 164 151 166
    000046  aa  145 056 000 000

                                   127
                                   128  ec bad_file_atrs_length,bdfiatlg,
                                   129  	(The value of the file attributes length field differs from the actual length of the file attributes.)
                        000012          	segdef  bad_file_atrs_length
    000012  a0   077777 000051
    000047  aa  142 144 146 151         	aci  "bdfiatlg",8
    000050  aa  141 164 154 147
    000051  aa  144 124 150 145         	acc  "The value of the file attributes length field differs from the actual length of the file attributes."
    000052  aa  040 166 141 154
    000053  aa  165 145 040 157
    000054  aa  146 040 164 150
    000055  aa  145 040 146 151
    000056  aa  154 145 040 141
    000057  aa  164 164 162 151
    000060  aa  142 165 164 145
    000061  aa  163 040 154 145
    000062  aa  156 147 164 150
    000063  aa  040 146 151 145
    000064  aa  154 144 040 144
    000065  aa  151 146 146 145
    000066  aa  162 163 040 146
    000067  aa  162 157 155 040
    000070  aa  164 150 145 040
    000071  aa  141 143 164 165
    000072  aa  141 154 040 154
    000073  aa  145 156 147 164
    000074  aa  150 040 157 146
    000075  aa  040 164 150 145
    000076  aa  040 146 151 154
    000077  aa  145 040 141 164
    000100  aa  164 162 151 142
    000101  aa  165 164 145 163
    000102  aa  056 000 000 000

                                   130
                                   131  ec bad_file_atrs_uid,bdfiatud,
                                   132  	(The unique identifier in the file attributes is incorrect.)
                        000013          	segdef  bad_file_atrs_uid
    000013  a0   077777 000105
    000103  aa  142 144 146 151         	aci  "bdfiatud",8
    000104  aa  141 164 165 144
    000105  aa  072 124 150 145         	acc  "The unique identifier in the file attributes is incorrect."
    000106  aa  040 165 156 151
    000107  aa  161 165 145 040
    000110  aa  151 144 145 156
    000111  aa  164 151 146 151
    000112  aa  145 162 040 151
    000113  aa  156 040 164 150
    000114  aa  145 040 146 151
    000115  aa  154 145 040 141
    000116  aa  164 164 162 151
    000117  aa  142 165 164 145
    000120  aa  163 040 151 163
    000121  aa  040 151 156 143
    000122  aa  157 162 162 145
    000123  aa  143 164 056 000

                                   133
                                   134  ec bad_file_atrs_ver,bdfiatvr,
                                   135  	(The version of the file attributes is incorrect.)
                        000014          	segdef  bad_file_atrs_ver
    000014  a0   077777 000126
    000124  aa  142 144 146 151         	aci  "bdfiatvr",8
    000125  aa  141 164 166 162
    000126  aa  060 124 150 145         	acc  "The version of the file attributes is incorrect."
    000127  aa  040 166 145 162
    000130  aa  163 151 157 156
    000131  aa  040 157 146 040
    000132  aa  164 150 145 040
    000133  aa  146 151 154 145
    000134  aa  040 141 164 164
    000135  aa  162 151 142 165
    000136  aa  164 145 163 040
    000137  aa  151 163 040 151
    000140  aa  156 143 157 162
    000141  aa  162 145 143 164
    000142  aa  056 000 000 000

                                   136
                                   137  ec bad_file_cr_blocking_factor,bdficrbf,
                                   138  	(The file creation information blocking factor is invalid.)
                        000015          	segdef  bad_file_cr_blocking_factor
    000015  a0   077777 000145
    000143  aa  142 144 146 151         	aci  "bdficrbf",8
    000144  aa  143 162 142 146
    000145  aa  071 124 150 145         	acc  "The file creation information blocking factor is invalid."
    000146  aa  040 146 151 154
    000147  aa  145 040 143 162
    000150  aa  145 141 164 151
    000151  aa  157 156 040 151
    000152  aa  156 146 157 162
    000153  aa  155 141 164 151
    000154  aa  157 156 040 142
    000155  aa  154 157 143 153
    000156  aa  151 156 147 040
    000157  aa  146 141 143 164
    000160  aa  157 162 040 151
    000161  aa  163 040 151 156
    000162  aa  166 141 154 151
    000163  aa  144 056 000 000

                                   139
                                   140  ec bad_file_cr_ci_size,bdficrcz,
                                   141  	(The file creation information control interval size is not supported.)
                        000016          	segdef  bad_file_cr_ci_size
    000016  a0   077777 000166
    000164  aa  142 144 146 151         	aci  "bdficrcz",8
    000165  aa  143 162 143 172
    000166  aa  105 124 150 145         	acc  "The file creation information control interval size is not supported."
    000167  aa  040 146 151 154
    000170  aa  145 040 143 162
    000171  aa  145 141 164 151
    000172  aa  157 156 040 151
    000173  aa  156 146 157 162
    000174  aa  155 141 164 151
    000175  aa  157 156 040 143
    000176  aa  157 156 164 162
    000177  aa  157 154 040 151
    000200  aa  156 164 145 162
    000201  aa  166 141 154 040
    000202  aa  163 151 172 145
    000203  aa  040 151 163 040
    000204  aa  156 157 164 040
    000205  aa  163 165 160 160
    000206  aa  157 162 164 145
    000207  aa  144 056 000 000

                                   142
                                   143  ec bad_file_cr_info_ver,bdficriv,
                                   144  	(The file creation information version is incorrect.)
                        000017          	segdef  bad_file_cr_info_ver
    000017  a0   077777 000212
    000210  aa  142 144 146 151         	aci  "bdficriv",8
    000211  aa  143 162 151 166
    000212  aa  063 124 150 145         	acc  "The file creation information version is incorrect."
    000213  aa  040 146 151 154
    000214  aa  145 040 143 162
    000215  aa  145 141 164 151
    000216  aa  157 156 040 151
    000217  aa  156 146 157 162
    000220  aa  155 141 164 151
    000221  aa  157 156 040 166
    000222  aa  145 162 163 151
    000223  aa  157 156 040 151
    000224  aa  163 040 151 156
    000225  aa  143 157 162 162
    000226  aa  145 143 164 056

                                   145
                                   146  ec bad_file_oid,badfioid,
                                   147  	(The specified file opening identifier is invalid.)
                        000020          	segdef  bad_file_oid
    000020  a0   077777 000231
    000227  aa  142 141 144 146         	aci  "badfioid",8
    000230  aa  151 157 151 144
    000231  aa  061 124 150 145         	acc  "The specified file opening identifier is invalid."
    000232  aa  040 163 160 145
    000233  aa  143 151 146 151
    000234  aa  145 144 040 146
    000235  aa  151 154 145 040
    000236  aa  157 160 145 156
    000237  aa  151 156 147 040
    000240  aa  151 144 145 156
    000241  aa  164 151 146 151
    000242  aa  145 162 040 151
    000243  aa  163 040 151 156
    000244  aa  166 141 154 151
    000245  aa  144 056 000 000

                                   148
                                   149  ec bad_first_key_idx,badfkeyx,
                                   150            (The first key index is invalid.)
                        000021          	segdef  bad_first_key_idx
    000021  a0   077777 000250
    000246  aa  142 141 144 146         	aci  "badfkeyx",8
    000247  aa  153 145 171 170
    000250  aa  037 124 150 145         	acc  "The first key index is invalid."
    000251  aa  040 146 151 162
    000252  aa  163 164 040 153
    000253  aa  145 171 040 151
    000254  aa  156 144 145 170
    000255  aa  040 151 163 040
    000256  aa  151 156 166 141
    000257  aa  154 151 144 056

                                   151
                                   152  ec bad_last_key_idx,badlkeyx,
                                   153            (The last key index is invalid.)
                        000022          	segdef  bad_last_key_idx
    000022  a0   077777 000262
    000260  aa  142 141 144 154         	aci  "badlkeyx",8
    000261  aa  153 145 171 170
    000262  aa  036 124 150 145         	acc  "The last key index is invalid."
    000263  aa  040 154 141 163
    000264  aa  164 040 153 145
    000265  aa  171 040 151 156
    000266  aa  144 145 170 040
    000267  aa  151 163 040 151
    000270  aa  156 166 141 154
    000271  aa  151 144 056 000

                                   154
                                   155  ec bad_leaf_node,badlnode,
                                   156            (The node is not a leaf node as expected.)
                        000023          	segdef  bad_leaf_node
    000023  a0   077777 000274
    000272  aa  142 141 144 154         	aci  "badlnode",8
    000273  aa  156 157 144 145
    000274  aa  050 124 150 145         	acc  "The node is not a leaf node as expected."
    000275  aa  040 156 157 144
    000276  aa  145 040 151 163
    000277  aa  040 156 157 164
    000300  aa  040 141 040 154
    000301  aa  145 141 146 040
    000302  aa  156 157 144 145
    000303  aa  040 141 163 040
    000304  aa  145 170 160 145
    000305  aa  143 164 145 144
    000306  aa  056 000 000 000

                                   157
                                   158  ec bad_parent_thread,badpar,
                                   159  	(The parent-child pointers between two nodes do not agree.)
                        000024          	segdef  bad_parent_thread
    000024  a0   077777 000311
    000307  aa  142 141 144 160         	aci  "badpar",8
    000310  aa  141 162 040 040
    000311  aa  071 124 150 145         	acc  "The parent-child pointers between two nodes do not agree."
    000312  aa  040 160 141 162
    000313  aa  145 156 164 055
    000314  aa  143 150 151 154
    000315  aa  144 040 160 157
    000316  aa  151 156 164 145
    000317  aa  162 163 040 142
    000320  aa  145 164 167 145
    000321  aa  145 156 040 164
    000322  aa  167 157 040 156
    000323  aa  157 144 145 163
    000324  aa  040 144 157 040
    000325  aa  156 157 164 040
    000326  aa  141 147 162 145
    000327  aa  145 056 000 000

                                   160
                                   161  ec bad_rel_cursor_pos,badrcpos,
                                   162            (The relation cursor does not have a defined current position.)
                        000025          	segdef  bad_rel_cursor_pos
    000025  a0   077777 000332
    000330  aa  142 141 144 162         	aci  "badrcpos",8
    000331  aa  143 160 157 163
    000332  aa  075 124 150 145         	acc  "The relation cursor does not have a defined current position."
    000333  aa  040 162 145 154
    000334  aa  141 164 151 157
    000335  aa  156 040 143 165
    000336  aa  162 163 157 162
    000337  aa  040 144 157 145
    000340  aa  163 040 156 157
    000341  aa  164 040 150 141
    000342  aa  166 145 040 141
    000343  aa  040 144 145 146
    000344  aa  151 156 145 144
    000345  aa  040 143 165 162
    000346  aa  162 145 156 164
    000347  aa  040 160 157 163
    000350  aa  151 164 151 157
    000351  aa  156 056 000 000

                                   163
                                   164  ec bad_specification_type,badspect,
                                   165            (The supplied specification type is not supported by this operation.)
                        000026          	segdef  bad_specification_type
    000026  a0   077777 000354
    000352  aa  142 141 144 163         	aci  "badspect",8
    000353  aa  160 145 143 164
    000354  aa  103 124 150 145         	acc  "The supplied specification type is not supported by this operation."
    000355  aa  040 163 165 160
    000356  aa  160 154 151 145
    000357  aa  144 040 163 160
    000360  aa  145 143 151 146
    000361  aa  151 143 141 164
    000362  aa  151 157 156 040
    000363  aa  164 171 160 145
    000364  aa  040 151 163 040
    000365  aa  156 157 164 040
    000366  aa  163 165 160 160
    000367  aa  157 162 164 145
    000370  aa  144 040 142 171
    000371  aa  040 164 150 151
    000372  aa  163 040 157 160
    000373  aa  145 162 141 164
    000374  aa  151 157 156 056

                                   166
                                   167  ec bad_vector_type,badvect,
                                   168  	(The supplied vector type is not supported by this operation.)
                        000027          	segdef  bad_vector_type
    000027  a0   077777 000377
    000375  aa  142 141 144 166         	aci  "badvect",8
    000376  aa  145 143 164 040
    000377  aa  074 124 150 145         	acc  "The supplied vector type is not supported by this operation."
    000400  aa  040 163 165 160
    000401  aa  160 154 151 145
    000402  aa  144 040 166 145
    000403  aa  143 164 157 162
    000404  aa  040 164 171 160
    000405  aa  145 040 151 163
    000406  aa  040 156 157 164
    000407  aa  040 163 165 160
    000410  aa  160 157 162 164
    000411  aa  145 144 040 142
    000412  aa  171 040 164 150
    000413  aa  151 163 040 157
    000414  aa  160 145 162 141
    000415  aa  164 151 157 156
    000416  aa  056 000 000 000

                                   169
                                   170  ec beginning_of_collection,begcoll,
                                   171            (An attempt was made to access before the beginning of the collection.)
                        000030          	segdef  beginning_of_collection
    000030  a0   077777 000421
    000417  aa  142 145 147 143         	aci  "begcoll",8
    000420  aa  157 154 154 040
    000421  aa  105 101 156 040         	acc  "An attempt was made to access before the beginning of the collection."
    000422  aa  141 164 164 145
    000423  aa  155 160 164 040
    000424  aa  167 141 163 040
    000425  aa  155 141 144 145
    000426  aa  040 164 157 040
    000427  aa  141 143 143 145
    000430  aa  163 163 040 142
    000431  aa  145 146 157 162
    000432  aa  145 040 164 150
    000433  aa  145 040 142 145
    000434  aa  147 151 156 156
    000435  aa  151 156 147 040
    000436  aa  157 146 040 164
    000437  aa  150 145 040 143
    000440  aa  157 154 154 145
    000441  aa  143 164 151 157
    000442  aa  156 056 000 000

                                   172
                                   173  ec bj_bad_ci_no,bjbadci,
                                   174  	(An incorrect control interval number has been encountered.)
                        000031          	segdef  bj_bad_ci_no
    000031  a0   077777 000445
    000443  aa  142 152 142 141         	aci  "bjbadci",8
    000444  aa  144 143 151 040
    000445  aa  072 101 156 040         	acc  "An incorrect control interval number has been encountered."
    000446  aa  151 156 143 157
    000447  aa  162 162 145 143
    000450  aa  164 040 143 157
    000451  aa  156 164 162 157
    000452  aa  154 040 151 156
    000453  aa  164 145 162 166
    000454  aa  141 154 040 156
    000455  aa  165 155 142 145
    000456  aa  162 040 150 141
    000457  aa  163 040 142 145
    000460  aa  145 156 040 145
    000461  aa  156 143 157 165
    000462  aa  156 164 145 162
    000463  aa  145 144 056 000

                                   175
                                   176  ec bj_bad_buffer_uid,bjbdbfud,
                                   177  	(The UIDs of a before journal buffer and the corresponding before journal differ.)
                        000032          	segdef  bj_bad_buffer_uid
    000032  a0   077777 000466
    000464  aa  142 152 142 144         	aci  "bjbdbfud",8
    000465  aa  142 146 165 144
    000466  aa  120 124 150 145         	acc  "The UIDs of a before journal buffer and the corresponding before journal differ."
    000467  aa  040 125 111 104
    000470  aa  163 040 157 146
    000471  aa  040 141 040 142
    000472  aa  145 146 157 162
    000473  aa  145 040 152 157
    000474  aa  165 162 156 141
    000475  aa  154 040 142 165
    000476  aa  146 146 145 162
    000477  aa  040 141 156 144
    000500  aa  040 164 150 145
    000501  aa  040 143 157 162
    000502  aa  162 145 163 160
    000503  aa  157 156 144 151
    000504  aa  156 147 040 142
    000505  aa  145 146 157 162
    000506  aa  145 040 152 157
    000507  aa  165 162 156 141
    000510  aa  154 040 144 151
    000511  aa  146 146 145 162
    000512  aa  056 000 000 000

                                   178
                                   179  ec bj_bad_continuation_flag,bjbdcnf,
                                   180  	(Bad continuation flag.)
                        000033          	segdef  bj_bad_continuation_flag
    000033  a0   077777 000515
    000513  aa  142 152 142 144         	aci  "bjbdcnf",8
    000514  aa  143 156 146 040
    000515  aa  026 102 141 144         	acc  "Bad continuation flag."
    000516  aa  040 143 157 156
    000517  aa  164 151 156 165
    000520  aa  141 164 151 157
    000521  aa  156 040 146 154
    000522  aa  141 147 056 000

                                   181
                                   182  ec bj_bad_first_txn_record_type,bjbd1rct,
                                   183  	(The specified record is invalid as the first record in a before journal transaction chain.)
                        000034          	segdef  bj_bad_first_txn_record_type
    000034  a0   077777 000525
    000523  aa  142 152 142 144         	aci  "bjbd1rct",8
    000524  aa  061 162 143 164
    000525  aa  132 124 150 145         	acc  "The specified record is invalid as the first record in a before journal transaction chain."
    000526  aa  040 163 160 145
    000527  aa  143 151 146 151
    000530  aa  145 144 040 162
    000531  aa  145 143 157 162
    000532  aa  144 040 151 163
    000533  aa  040 151 156 166
    000534  aa  141 154 151 144
    000535  aa  040 141 163 040
    000536  aa  164 150 145 040
    000537  aa  146 151 162 163
    000540  aa  164 040 162 145
    000541  aa  143 157 162 144
    000542  aa  040 151 156 040
    000543  aa  141 040 142 145
    000544  aa  146 157 162 145
    000545  aa  040 152 157 165
    000546  aa  162 156 141 154
    000547  aa  040 164 162 141
    000550  aa  156 163 141 143
    000551  aa  164 151 157 156
    000552  aa  040 143 150 141
    000553  aa  151 156 056 000

                                   184
                                   185  ec bj_bad_header,bjbdhdr,
                                   186  	(The format of the before journal header is invalid.)
                        000035          	segdef  bj_bad_header
    000035  a0   077777 000556
    000554  aa  142 152 142 144         	aci  "bjbdhdr",8
    000555  aa  150 144 162 040
    000556  aa  063 124 150 145         	acc  "The format of the before journal header is invalid."
    000557  aa  040 146 157 162
    000560  aa  155 141 164 040
    000561  aa  157 146 040 164
    000562  aa  150 145 040 142
    000563  aa  145 146 157 162
    000564  aa  145 040 152 157
    000565  aa  165 162 156 141
    000566  aa  154 040 150 145
    000567  aa  141 144 145 162
    000570  aa  040 151 163 040
    000571  aa  151 156 166 141
    000572  aa  154 151 144 056

                                   187
                                   188  ec bj_bad_ppt_version,pptvbad,
                                   189  	(The format of the before journal PPT is invalid.)
                        000036          	segdef  bj_bad_ppt_version
    000036  a0   077777 000575
    000573  aa  160 160 164 166         	aci  "pptvbad",8
    000574  aa  142 141 144 040
    000575  aa  060 124 150 145         	acc  "The format of the before journal PPT is invalid."
    000576  aa  040 146 157 162
    000577  aa  155 141 164 040
    000600  aa  157 146 040 164
    000601  aa  150 145 040 142
    000602  aa  145 146 157 162
    000603  aa  145 040 152 157
    000604  aa  165 162 156 141
    000605  aa  154 040 120 120
    000606  aa  124 040 151 163
    000607  aa  040 151 156 166
    000610  aa  141 154 151 144
    000611  aa  056 000 000 000

                                   190
                                   191  ec bj_bad_ppte_version,pptevbad,
                                   192  	(The format of the before journal PPT entry is invalid.)
                        000037          	segdef  bj_bad_ppte_version
    000037  a0   077777 000614
    000612  aa  160 160 164 145         	aci  "pptevbad",8
    000613  aa  166 142 141 144
    000614  aa  066 124 150 145         	acc  "The format of the before journal PPT entry is invalid."
    000615  aa  040 146 157 162
    000616  aa  155 141 164 040
    000617  aa  157 146 040 164
    000620  aa  150 145 040 142
    000621  aa  145 146 157 162
    000622  aa  145 040 152 157
    000623  aa  165 162 156 141
    000624  aa  154 040 120 120
    000625  aa  124 040 145 156
    000626  aa  164 162 171 040
    000627  aa  151 163 040 151
    000630  aa  156 166 141 154
    000631  aa  151 144 056 000

                                   193
                                   194  ec bj_bad_pst_version,pstvbad,
                                   195  	(Unrecognized before journal PST format encountered.)
                        000040          	segdef  bj_bad_pst_version
    000040  a0   077777 000634
    000632  aa  160 163 164 166         	aci  "pstvbad",8
    000633  aa  142 141 144 040
    000634  aa  063 125 156 162         	acc  "Unrecognized before journal PST format encountered."
    000635  aa  145 143 157 147
    000636  aa  156 151 172 145
    000637  aa  144 040 142 145
    000640  aa  146 157 162 145
    000641  aa  040 152 157 165
    000642  aa  162 156 141 154
    000643  aa  040 120 123 124
    000644  aa  040 146 157 162
    000645  aa  155 141 164 040
    000646  aa  145 156 143 157
    000647  aa  165 156 164 145
    000650  aa  162 145 144 056

                                   196
                                   197  ec bj_bad_pste_idx,bjbdptix,
                                   198  	(A before journal PST entry index is invalid.)
                        000041          	segdef  bj_bad_pste_idx
    000041  a0   077777 000653
    000651  aa  142 152 142 144         	aci  "bjbdptix",8
    000652  aa  160 164 151 170
    000653  aa  054 101 040 142         	acc  "A before journal PST entry index is invalid."
    000654  aa  145 146 157 162
    000655  aa  145 040 152 157
    000656  aa  165 162 156 141
    000657  aa  154 040 120 123
    000660  aa  124 040 145 156
    000661  aa  164 162 171 040
    000662  aa  151 156 144 145
    000663  aa  170 040 151 163
    000664  aa  040 151 156 166
    000665  aa  141 154 151 144
    000666  aa  056 000 000 000

                                   199
                                   200  ec bj_bad_pste_ptr,bjbdptpt,
                                   201  	(A before journal PST entry pointer is invalid.)
                        000042          	segdef  bj_bad_pste_ptr
    000042  a0   077777 000671
    000667  aa  142 152 142 144         	aci  "bjbdptpt",8
    000670  aa  160 164 160 164
    000671  aa  056 101 040 142         	acc  "A before journal PST entry pointer is invalid."
    000672  aa  145 146 157 162
    000673  aa  145 040 152 157
    000674  aa  165 162 156 141
    000675  aa  154 040 120 123
    000676  aa  124 040 145 156
    000677  aa  164 162 171 040
    000700  aa  160 157 151 156
    000701  aa  164 145 162 040
    000702  aa  151 163 040 151
    000703  aa  156 166 141 154
    000704  aa  151 144 056 000

                                   202
                                   203  ec bj_bad_pste_version,pstevbad,
                                   204  	(Unrecognized before journal PST entry format encountered.)
                        000043          	segdef  bj_bad_pste_version
    000043  a0   077777 000707
    000705  aa  160 163 164 145         	aci  "pstevbad",8
    000706  aa  166 142 141 144
    000707  aa  071 125 156 162         	acc  "Unrecognized before journal PST entry format encountered."
    000710  aa  145 143 157 147
    000711  aa  156 151 172 145
    000712  aa  144 040 142 145
    000713  aa  146 157 162 145
    000714  aa  040 152 157 165
    000715  aa  162 156 141 154
    000716  aa  040 120 123 124
    000717  aa  040 145 156 164
    000720  aa  162 171 040 146
    000721  aa  157 162 155 141
    000722  aa  164 040 145 156
    000723  aa  143 157 165 156
    000724  aa  164 145 162 145
    000725  aa  144 056 000 000

                                   205
                                   206  ec bj_bad_rec_count,bjbdrcc,
                                   207  	(The number of records written does not agree with number of records read.)
                        000044          	segdef  bj_bad_rec_count
    000044  a0   077777 000730
    000726  aa  142 152 142 144         	aci  "bjbdrcc",8
    000727  aa  162 143 143 040
    000730  aa  111 124 150 145         	acc  "The number of records written does not agree with number of records read."
    000731  aa  040 156 165 155
    000732  aa  142 145 162 040
    000733  aa  157 146 040 162
    000734  aa  145 143 157 162
    000735  aa  144 163 040 167
    000736  aa  162 151 164 164
    000737  aa  145 156 040 144
    000740  aa  157 145 163 040
    000741  aa  156 157 164 040
    000742  aa  141 147 162 145
    000743  aa  145 040 167 151
    000744  aa  164 150 040 156
    000745  aa  165 155 142 145
    000746  aa  162 040 157 146
    000747  aa  040 162 145 143
    000750  aa  157 162 144 163
    000751  aa  040 162 145 141
    000752  aa  144 056 000 000

                                   208
                                   209  ec bj_bad_rec_id,bjbdrid,
                                   210  	(Bad record ID.)
                        000045          	segdef  bj_bad_rec_id
    000045  a0   077777 000755
    000753  aa  142 152 142 144         	aci  "bjbdrid",8
    000754  aa  162 151 144 040
    000755  aa  016 102 141 144         	acc  "Bad record ID."
    000756  aa  040 162 145 143
    000757  aa  157 162 144 040
    000760  aa  111 104 056 000

                                   211
                                   212  ec bj_bad_slot_no,bjbdstno,
                                   213  	(The slot number requested is greater than the number of slots in the control interval.)
                        000046          	segdef  bj_bad_slot_no
    000046  a0   077777 000763
    000761  aa  142 152 142 144         	aci  "bjbdstno",8
    000762  aa  163 164 156 157
    000763  aa  126 124 150 145         	acc  "The slot number requested is greater than the number of slots in the control interval."
    000764  aa  040 163 154 157
    000765  aa  164 040 156 165
    000766  aa  155 142 145 162
    000767  aa  040 162 145 161
    000770  aa  165 145 163 164
    000771  aa  145 144 040 151
    000772  aa  163 040 147 162
    000773  aa  145 141 164 145
    000774  aa  162 040 164 150
    000775  aa  141 156 040 164
    000776  aa  150 145 040 156
    000777  aa  165 155 142 145
    001000  aa  162 040 157 146
    001001  aa  040 163 154 157
    001002  aa  164 163 040 151
    001003  aa  156 040 164 150
    001004  aa  145 040 143 157
    001005  aa  156 164 162 157
    001006  aa  154 040 151 156
    001007  aa  164 145 162 166
    001010  aa  141 154 056 000

                                   214
                                   215  ec bj_bad_tid,bjbdtid,
                                   216  	(The before journal transaction table entry does not correspond to the referenced transaction.)
                        000047          	segdef  bj_bad_tid
    000047  a0   077777 001013
    001011  aa  142 152 142 144         	aci  "bjbdtid",8
    001012  aa  164 151 144 040
    001013  aa  135 124 150 145         	acc  "The before journal transaction table entry does not correspond to the referenced transaction."
    001014  aa  040 142 145 146
    001015  aa  157 162 145 040
    001016  aa  152 157 165 162
    001017  aa  156 141 154 040
    001020  aa  164 162 141 156
    001021  aa  163 141 143 164
    001022  aa  151 157 156 040
    001023  aa  164 141 142 154
    001024  aa  145 040 145 156
    001025  aa  164 162 171 040
    001026  aa  144 157 145 163
    001027  aa  040 156 157 164
    001030  aa  040 143 157 162
    001031  aa  162 145 163 160
    001032  aa  157 156 144 040
    001033  aa  164 157 040 164
    001034  aa  150 145 040 162
    001035  aa  145 146 145 162
    001036  aa  145 156 143 145
    001037  aa  144 040 164 162
    001040  aa  141 156 163 141
    001041  aa  143 164 151 157
    001042  aa  156 056 000 000

                                   217
                                   218  ec bj_bad_txt_version,bjbdtxtv,
                                   219  	(The before journal TXT version is not implemented.)
                        000050          	segdef  bj_bad_txt_version
    000050  a0   077777 001045
    001043  aa  142 152 142 144         	aci  "bjbdtxtv",8
    001044  aa  164 170 164 166
    001045  aa  062 124 150 145         	acc  "The before journal TXT version is not implemented."
    001046  aa  040 142 145 146
    001047  aa  157 162 145 040
    001050  aa  152 157 165 162
    001051  aa  156 141 154 040
    001052  aa  124 130 124 040
    001053  aa  166 145 162 163
    001054  aa  151 157 156 040
    001055  aa  151 163 040 156
    001056  aa  157 164 040 151
    001057  aa  155 160 154 145
    001060  aa  155 145 156 164
    001061  aa  145 144 056 000

                                   220
                                   221  ec bj_cant_abort,bjcantab,
                                   222  	(Writing an abort mark for this transaction is not allowed.)
                        000051          	segdef  bj_cant_abort
    000051  a0   077777 001064
    001062  aa  142 152 143 141         	aci  "bjcantab",8
    001063  aa  156 164 141 142
    001064  aa  072 127 162 151         	acc  "Writing an abort mark for this transaction is not allowed."
    001065  aa  164 151 156 147
    001066  aa  040 141 156 040
    001067  aa  141 142 157 162
    001070  aa  164 040 155 141
    001071  aa  162 153 040 146
    001072  aa  157 162 040 164
    001073  aa  150 151 163 040
    001074  aa  164 162 141 156
    001075  aa  163 141 143 164
    001076  aa  151 157 156 040
    001077  aa  151 163 040 156
    001100  aa  157 164 040 141
    001101  aa  154 154 157 167
    001102  aa  145 144 056 000

                                   223
                                   224  ec bj_cant_commit,bjcantcm,
                                   225  	(Writing a commit mark for this transaction is not allowed.)
                        000052          	segdef  bj_cant_commit
    000052  a0   077777 001105
    001103  aa  142 152 143 141         	aci  "bjcantcm",8
    001104  aa  156 164 143 155
    001105  aa  072 127 162 151         	acc  "Writing a commit mark for this transaction is not allowed."
    001106  aa  164 151 156 147
    001107  aa  040 141 040 143
    001110  aa  157 155 155 151
    001111  aa  164 040 155 141
    001112  aa  162 153 040 146
    001113  aa  157 162 040 164
    001114  aa  150 151 163 040
    001115  aa  164 162 141 156
    001116  aa  163 141 143 164
    001117  aa  151 157 156 040
    001120  aa  151 163 040 156
    001121  aa  157 164 040 141
    001122  aa  154 154 157 167
    001123  aa  145 144 056 000

                                   226
                                   227  ec bj_first_txn_rec_not_found,bfno1trc,
                                   228  	(A before journal transaction chain appears before the beginning of the chain.)
                        000053          	segdef  bj_first_txn_rec_not_found
    000053  a0   077777 001126
    001124  aa  142 146 156 157         	aci  "bfno1trc",8
    001125  aa  061 164 162 143
    001126  aa  115 101 040 142         	acc  "A before journal transaction chain appears before the beginning of the chain."
    001127  aa  145 146 157 162
    001130  aa  145 040 152 157
    001131  aa  165 162 156 141
    001132  aa  154 040 164 162
    001133  aa  141 156 163 141
    001134  aa  143 164 151 157
    001135  aa  156 040 143 150
    001136  aa  141 151 156 040
    001137  aa  141 160 160 145
    001140  aa  141 162 163 040
    001141  aa  142 145 146 157
    001142  aa  162 145 040 164
    001143  aa  150 145 040 142
    001144  aa  145 147 151 156
    001145  aa  156 151 156 147
    001146  aa  040 157 146 040
    001147  aa  164 150 145 040
    001150  aa  143 150 141 151
    001151  aa  156 056 000 000

                                   229
                                   230  ec bj_illegal_size,bjilglsz,
                                   231  	(A before journal must have at least three control intervals.)
                        000054          	segdef  bj_illegal_size
    000054  a0   077777 001154
    001152  aa  142 152 151 154         	aci  "bjilglsz",8
    001153  aa  147 154 163 172
    001154  aa  074 101 040 142         	acc  "A before journal must have at least three control intervals."
    001155  aa  145 146 157 162
    001156  aa  145 040 152 157
    001157  aa  165 162 156 141
    001160  aa  154 040 155 165
    001161  aa  163 164 040 150
    001162  aa  141 166 145 040
    001163  aa  141 164 040 154
    001164  aa  145 141 163 164
    001165  aa  040 164 150 162
    001166  aa  145 145 040 143
    001167  aa  157 156 164 162
    001170  aa  157 154 040 151
    001171  aa  156 164 145 162
    001172  aa  166 141 154 163
    001173  aa  056 000 000 000

                                   232
                                   233  ec bj_incomplete_rollback,bjincrb,
                                   234  	(Not all of the before images could be rolled back.)
                        000055          	segdef  bj_incomplete_rollback
    000055  a0   077777 001176
    001174  aa  142 152 151 156         	aci  "bjincrb",8
    001175  aa  143 162 142 040
    001176  aa  062 116 157 164         	acc  "Not all of the before images could be rolled back."
    001177  aa  040 141 154 154
    001200  aa  040 157 146 040
    001201  aa  164 150 145 040
    001202  aa  142 145 146 157
    001203  aa  162 145 040 151
    001204  aa  155 141 147 145
    001205  aa  163 040 143 157
    001206  aa  165 154 144 040
    001207  aa  142 145 040 162
    001210  aa  157 154 154 145
    001211  aa  144 040 142 141
    001212  aa  143 153 056 000

                                   235
                                   236  ec bj_inconsistent_ci,bjincsci,
                                   237  	(A before journal control interval has an internal inconsistency.)
                        000056          	segdef  bj_inconsistent_ci
    000056  a0   077777 001215
    001213  aa  142 152 151 156         	aci  "bjincsci",8
    001214  aa  143 163 143 151
    001215  aa  100 101 040 142         	acc  "A before journal control interval has an internal inconsistency."
    001216  aa  145 146 157 162
    001217  aa  145 040 152 157
    001220  aa  165 162 156 141
    001221  aa  154 040 143 157
    001222  aa  156 164 162 157
    001223  aa  154 040 151 156
    001224  aa  164 145 162 166
    001225  aa  141 154 040 150
    001226  aa  141 163 040 141
    001227  aa  156 040 151 156
    001230  aa  164 145 162 156
    001231  aa  141 154 040 151
    001232  aa  156 143 157 156
    001233  aa  163 151 163 164
    001234  aa  145 156 143 171
    001235  aa  056 000 000 000

                                   238
                                   239  ec bj_invalid_name,bjinvnm,
                                   240  	(The supplied name is not acceptable for a before journal.)
                        000057          	segdef  bj_invalid_name
    000057  a0   077777 001240
    001236  aa  142 152 151 156         	aci  "bjinvnm",8
    001237  aa  166 156 155 040
    001240  aa  071 124 150 145         	acc  "The supplied name is not acceptable for a before journal."
    001241  aa  040 163 165 160
    001242  aa  160 154 151 145
    001243  aa  144 040 156 141
    001244  aa  155 145 040 151
    001245  aa  163 040 156 157
    001246  aa  164 040 141 143
    001247  aa  143 145 160 164
    001250  aa  141 142 154 145
    001251  aa  040 146 157 162
    001252  aa  040 141 040 142
    001253  aa  145 146 157 162
    001254  aa  145 040 152 157
    001255  aa  165 162 156 141
    001256  aa  154 056 000 000

                                   241
                                   242  ec bj_journal_full,bjfull,
                                   243  	(The before journal is full.)
                        000060          	segdef  bj_journal_full
    000060  a0   077777 001261
    001257  aa  142 152 146 165         	aci  "bjfull",8
    001260  aa  154 154 040 040
    001261  aa  033 124 150 145         	acc  "The before journal is full."
    001262  aa  040 142 145 146
    001263  aa  157 162 145 040
    001264  aa  152 157 165 162
    001265  aa  156 141 154 040
    001266  aa  151 163 040 146
    001267  aa  165 154 154 056

                                   244
                                   245  ec bj_journal_in_use,bjinuse,
                                   246  	(The requested operation could not be completed because the journal is being used.)
                        000061          	segdef  bj_journal_in_use
    000061  a0   077777 001272
    001270  aa  142 152 151 156         	aci  "bjinuse",8
    001271  aa  165 163 145 040
    001272  aa  121 124 150 145         	acc  "The requested operation could not be completed because the journal is being used."
    001273  aa  040 162 145 161
    001274  aa  165 145 163 164
    001275  aa  145 144 040 157
    001276  aa  160 145 162 141
    001277  aa  164 151 157 156
    001300  aa  040 143 157 165
    001301  aa  154 144 040 156
    001302  aa  157 164 040 142
    001303  aa  145 040 143 157
    001304  aa  155 160 154 145
    001305  aa  164 145 144 040
    001306  aa  142 145 143 141
    001307  aa  165 163 145 040
    001310  aa  164 150 145 040
    001311  aa  152 157 165 162
    001312  aa  156 141 154 040
    001313  aa  151 163 040 142
    001314  aa  145 151 156 147
    001315  aa  040 165 163 145
    001316  aa  144 056 000 000

                                   247
                                   248  ec bj_journal_not_opened,bjntopen,
                                   249  	(The referenced before journal is not opened.)
                        000062          	segdef  bj_journal_not_opened
    000062  a0   077777 001321
    001317  aa  142 152 156 164         	aci  "bjntopen",8
    001320  aa  157 160 145 156
    001321  aa  054 124 150 145         	acc  "The referenced before journal is not opened."
    001322  aa  040 162 145 146
    001323  aa  145 162 145 156
    001324  aa  143 145 144 040
    001325  aa  142 145 146 157
    001326  aa  162 145 040 152
    001327  aa  157 165 162 156
    001330  aa  141 154 040 151
    001331  aa  163 040 156 157
    001332  aa  164 040 157 160
    001333  aa  145 156 145 144
    001334  aa  056 000 000 000

                                   250
                                   251  ec bj_journal_not_registered,bjntregs,
                                   252  	(The before journal is not in the before journal check-in table.)
                        000063          	segdef  bj_journal_not_registered
    000063  a0   077777 001337
    001335  aa  142 152 156 164         	aci  "bjntregs",8
    001336  aa  162 145 147 163
    001337  aa  077 124 150 145         	acc  "The before journal is not in the before journal check-in table."
    001340  aa  040 142 145 146
    001341  aa  157 162 145 040
    001342  aa  152 157 165 162
    001343  aa  156 141 154 040
    001344  aa  151 163 040 156
    001345  aa  157 164 040 151
    001346  aa  156 040 164 150
    001347  aa  145 040 142 145
    001350  aa  146 157 162 145
    001351  aa  040 152 157 165
    001352  aa  162 156 141 154
    001353  aa  040 143 150 145
    001354  aa  143 153 055 151
    001355  aa  156 040 164 141
    001356  aa  142 154 145 056

                                   253
                                   254  ec bj_logic_err,bjlogerr,
                                   255  	(A logical inconsistency has been detected in the before journal manager.)
                        000064          	segdef  bj_logic_err
    000064  a0   077777 001361
    001357  aa  142 152 154 157         	aci  "bjlogerr",8
    001360  aa  147 145 162 162
    001361  aa  110 101 040 154         	acc  "A logical inconsistency has been detected in the before journal manager."
    001362  aa  157 147 151 143
    001363  aa  141 154 040 151
    001364  aa  156 143 157 156
    001365  aa  163 151 163 164
    001366  aa  145 156 143 171
    001367  aa  040 150 141 163
    001370  aa  040 142 145 145
    001371  aa  156 040 144 145
    001372  aa  164 145 143 164
    001373  aa  145 144 040 151
    001374  aa  156 040 164 150
    001375  aa  145 040 142 145
    001376  aa  146 157 162 145
    001377  aa  040 152 157 165
    001400  aa  162 156 141 154
    001401  aa  040 155 141 156
    001402  aa  141 147 145 162
    001403  aa  056 000 000 000

                                   256
                                   257  ec bj_needed_for_recovery,bjndrcr,
                                   258  	(A before journal contains transactions from a previous bootload.)
                        000065          	segdef  bj_needed_for_recovery
    000065  a0   077777 001406
    001404  aa  142 152 156 144         	aci  "bjndrcr",8
    001405  aa  162 143 162 040
    001406  aa  100 101 040 142         	acc  "A before journal contains transactions from a previous bootload."
    001407  aa  145 146 157 162
    001410  aa  145 040 152 157
    001411  aa  165 162 156 141
    001412  aa  154 040 143 157
    001413  aa  156 164 141 151
    001414  aa  156 163 040 164
    001415  aa  162 141 156 163
    001416  aa  141 143 164 151
    001417  aa  157 156 163 040
    001420  aa  146 162 157 155
    001421  aa  040 141 040 160
    001422  aa  162 145 166 151
    001423  aa  157 165 163 040
    001424  aa  142 157 157 164
    001425  aa  154 157 141 144
    001426  aa  056 000 000 000

                                   259
                                   260  ec bj_neg_txns_in_unfinished_rec,bjnegtxn,
                                   261  	(A before journal record indicates a negative number of transactions are active in the journal.)
                        000066          	segdef  bj_neg_txns_in_unfinished_rec
    000066  a0   077777 001431
    001427  aa  142 152 156 145         	aci  "bjnegtxn",8
    001430  aa  147 164 170 156
    001431  aa  136 101 040 142         	acc  "A before journal record indicates a negative number of transactions are active in the journal."
    001432  aa  145 146 157 162
    001433  aa  145 040 152 157
    001434  aa  165 162 156 141
    001435  aa  154 040 162 145
    001436  aa  143 157 162 144
    001437  aa  040 151 156 144
    001440  aa  151 143 141 164
    001441  aa  145 163 040 141
    001442  aa  040 156 145 147
    001443  aa  141 164 151 166
    001444  aa  145 040 156 165
    001445  aa  155 142 145 162
    001446  aa  040 157 146 040
    001447  aa  164 162 141 156
    001450  aa  163 141 143 164
    001451  aa  151 157 156 163
    001452  aa  040 141 162 145
    001453  aa  040 141 143 164
    001454  aa  151 166 145 040
    001455  aa  151 156 040 164
    001456  aa  150 145 040 152
    001457  aa  157 165 162 156
    001460  aa  141 154 056 000

                                   262
                                   263  ec bj_no_next_used_ci,bjnonuci,
                                   264  	(A before journal has no used control intervals after the current one.)
                        000067          	segdef  bj_no_next_used_ci
    000067  a0   077777 001463
    001461  aa  142 152 156 157         	aci  "bjnonuci",8
    001462  aa  156 165 143 151
    001463  aa  105 101 040 142         	acc  "A before journal has no used control intervals after the current one."
    001464  aa  145 146 157 162
    001465  aa  145 040 152 157
    001466  aa  165 162 156 141
    001467  aa  154 040 150 141
    001470  aa  163 040 156 157
    001471  aa  040 165 163 145
    001472  aa  144 040 143 157
    001473  aa  156 164 162 157
    001474  aa  154 040 151 156
    001475  aa  164 145 162 166
    001476  aa  141 154 163 040
    001477  aa  141 146 164 145
    001500  aa  162 040 164 150
    001501  aa  145 040 143 165
    001502  aa  162 162 145 156
    001503  aa  164 040 157 156
    001504  aa  145 056 000 000

                                   265
                                   266  ec bj_no_previous_used_ci,bjnopuci,
                                   267  	(A before journal has no used control interval previous to the current one.)
                        000070          	segdef  bj_no_previous_used_ci
    000070  a0   077777 001507
    001505  aa  142 152 156 157         	aci  "bjnopuci",8
    001506  aa  160 165 143 151
    001507  aa  112 101 040 142         	acc  "A before journal has no used control interval previous to the current one."
    001510  aa  145 146 157 162
    001511  aa  145 040 152 157
    001512  aa  165 162 156 141
    001513  aa  154 040 150 141
    001514  aa  163 040 156 157
    001515  aa  040 165 163 145
    001516  aa  144 040 143 157
    001517  aa  156 164 162 157
    001520  aa  154 040 151 156
    001521  aa  164 145 162 166
    001522  aa  141 154 040 160
    001523  aa  162 145 166 151
    001524  aa  157 165 163 040
    001525  aa  164 157 040 164
    001526  aa  150 145 040 143
    001527  aa  165 162 162 145
    001530  aa  156 164 040 157
    001531  aa  156 145 056 000

                                   268
                                   269  ec bj_not_adopting,bjnoadpt,
                                   270  	(The before journal manager has not adopted a transaction to be abandoned.)
                        000071          	segdef  bj_not_adopting
    000071  a0   077777 001534
    001532  aa  142 152 156 157         	aci  "bjnoadpt",8
    001533  aa  141 144 160 164
    001534  aa  111 124 150 145         	acc  "The before journal manager has not adopted a transaction to be abandoned."
    001535  aa  040 142 145 146
    001536  aa  157 162 145 040
    001537  aa  152 157 165 162
    001540  aa  156 141 154 040
    001541  aa  155 141 156 141
    001542  aa  147 145 162 040
    001543  aa  150 141 163 040
    001544  aa  156 157 164 040
    001545  aa  141 144 157 160
    001546  aa  164 145 144 040
    001547  aa  141 040 164 162
    001550  aa  141 156 163 141
    001551  aa  143 164 151 157
    001552  aa  156 040 164 157
    001553  aa  040 142 145 040
    001554  aa  141 142 141 156
    001555  aa  144 157 156 145
    001556  aa  144 056 000 000

                                   271
                                   272  ec bj_not_all_opened_after_crash,bjntaopn,
                                   273  	(Some before journals could not be opened for crash recovery.)
                        000072          	segdef  bj_not_all_opened_after_crash
    000072  a0   077777 001561
    001557  aa  142 152 156 164         	aci  "bjntaopn",8
    001560  aa  141 157 160 156
    001561  aa  074 123 157 155         	acc  "Some before journals could not be opened for crash recovery."
    001562  aa  145 040 142 145
    001563  aa  146 157 162 145
    001564  aa  040 152 157 165
    001565  aa  162 156 141 154
    001566  aa  163 040 143 157
    001567  aa  165 154 144 040
    001570  aa  156 157 164 040
    001571  aa  142 145 040 157
    001572  aa  160 145 156 145
    001573  aa  144 040 146 157
    001574  aa  162 040 143 162
    001575  aa  141 163 150 040
    001576  aa  162 145 143 157
    001577  aa  166 145 162 171
    001600  aa  056 000 000 000

                                   274
                                   275  ec bj_not_my_txn,bjntmtxn,
                                   276  	(This process is not set up to work with the transaction.)
                        000073          	segdef  bj_not_my_txn
    000073  a0   077777 001603
    001601  aa  142 152 156 164         	aci  "bjntmtxn",8
    001602  aa  155 164 170 156
    001603  aa  070 124 150 151         	acc  "This process is not set up to work with the transaction."
    001604  aa  163 040 160 162
    001605  aa  157 143 145 163
    001606  aa  163 040 151 163
    001607  aa  040 156 157 164
    001610  aa  040 163 145 164
    001611  aa  040 165 160 040
    001612  aa  164 157 040 167
    001613  aa  157 162 153 040
    001614  aa  167 151 164 150
    001615  aa  040 164 150 145
    001616  aa  040 164 162 141
    001617  aa  156 163 141 143
    001620  aa  164 151 157 156
    001621  aa  056 000 000 000

                                   277
                                   278  ec bj_ppt_full,bjpptful,
                                   279  	(The before journal PPT is full.)
                        000074          	segdef  bj_ppt_full
    000074  a0   077777 001624
    001622  aa  142 152 160 160         	aci  "bjpptful",8
    001623  aa  164 146 165 154
    001624  aa  037 124 150 145         	acc  "The before journal PPT is full."
    001625  aa  040 142 145 146
    001626  aa  157 162 145 040
    001627  aa  152 157 165 162
    001630  aa  156 141 154 040
    001631  aa  120 120 124 040
    001632  aa  151 163 040 146
    001633  aa  165 154 154 056

                                   280
                                   281  ec bj_pst_cit_full,bjctful,
                                   282  	(The before journal check-in table is full.)
                        000075          	segdef  bj_pst_cit_full
    000075  a0   077777 001636
    001634  aa  142 152 143 164         	aci  "bjctful",8
    001635  aa  146 165 154 040
    001636  aa  052 124 150 145         	acc  "The before journal check-in table is full."
    001637  aa  040 142 145 146
    001640  aa  157 162 145 040
    001641  aa  152 157 165 162
    001642  aa  156 141 154 040
    001643  aa  143 150 145 143
    001644  aa  153 055 151 156
    001645  aa  040 164 141 142
    001646  aa  154 145 040 151
    001647  aa  163 040 146 165
    001650  aa  154 154 056 000

                                   283
                                   284  ec bj_pst_not_enough_buffers,pstnobuf,
                                   285  	(There are not enough before journal PST buffers.)
                        000076          	segdef  bj_pst_not_enough_buffers
    000076  a0   077777 001653
    001651  aa  160 163 164 156         	aci  "pstnobuf",8
    001652  aa  157 142 165 146
    001653  aa  060 124 150 145         	acc  "There are not enough before journal PST buffers."
    001654  aa  162 145 040 141
    001655  aa  162 145 040 156
    001656  aa  157 164 040 145
    001657  aa  156 157 165 147
    001660  aa  150 040 142 145
    001661  aa  146 157 162 145
    001662  aa  040 152 157 165
    001663  aa  162 156 141 154
    001664  aa  040 120 123 124
    001665  aa  040 142 165 146
    001666  aa  146 145 162 163
    001667  aa  056 000 000 000

                                   286
                                   287  ec bj_rec_process_id_mismatch,bjbdrpid,
                                   288  	(Two before journal records in a transaction chain contain different process IDs.)
                        000077          	segdef  bj_rec_process_id_mismatch
    000077  a0   077777 001672
    001670  aa  142 152 142 144         	aci  "bjbdrpid",8
    001671  aa  162 160 151 144
    001672  aa  120 124 167 157         	acc  "Two before journal records in a transaction chain contain different process IDs."
    001673  aa  040 142 145 146
    001674  aa  157 162 145 040
    001675  aa  152 157 165 162
    001676  aa  156 141 154 040
    001677  aa  162 145 143 157
    001700  aa  162 144 163 040
    001701  aa  151 156 040 141
    001702  aa  040 164 162 141
    001703  aa  156 163 141 143
    001704  aa  164 151 157 156
    001705  aa  040 143 150 141
    001706  aa  151 156 040 143
    001707  aa  157 156 164 141
    001710  aa  151 156 040 144
    001711  aa  151 146 146 145
    001712  aa  162 145 156 164
    001713  aa  040 160 162 157
    001714  aa  143 145 163 163
    001715  aa  040 111 104 163
    001716  aa  056 000 000 000

                                   289
                                   290  ec bj_rec_txn_id_mismatch,bjbdrtid,
                                   291  	(Two records in a before journal transaction chain contain different transaction identifiers.)
                        000100          	segdef  bj_rec_txn_id_mismatch
    000100  a0   077777 001721
    001717  aa  142 152 142 144         	aci  "bjbdrtid",8
    001720  aa  162 164 151 144
    001721  aa  134 124 167 157         	acc  "Two records in a before journal transaction chain contain different transaction identifiers."
    001722  aa  040 162 145 143
    001723  aa  157 162 144 163
    001724  aa  040 151 156 040
    001725  aa  141 040 142 145
    001726  aa  146 157 162 145
    001727  aa  040 152 157 165
    001730  aa  162 156 141 154
    001731  aa  040 164 162 141
    001732  aa  156 163 141 143
    001733  aa  164 151 157 156
    001734  aa  040 143 150 141
    001735  aa  151 156 040 143
    001736  aa  157 156 164 141
    001737  aa  151 156 040 144
    001740  aa  151 146 146 145
    001741  aa  162 145 156 164
    001742  aa  040 164 162 141
    001743  aa  156 163 141 143
    001744  aa  164 151 157 156
    001745  aa  040 151 144 145
    001746  aa  156 164 151 146
    001747  aa  151 145 162 163
    001750  aa  056 000 000 000

                                   292
                                   293  ec bj_recursive_invoc,bjrecurs,
                                   294  	(There has been a recursive invocation of the before journal manager.)
                        000101          	segdef  bj_recursive_invoc
    000101  a0   077777 001753
    001751  aa  142 152 162 145         	aci  "bjrecurs",8
    001752  aa  143 165 162 163
    001753  aa  104 124 150 145         	acc  "There has been a recursive invocation of the before journal manager."
    001754  aa  162 145 040 150
    001755  aa  141 163 040 142
    001756  aa  145 145 156 040
    001757  aa  141 040 162 145
    001760  aa  143 165 162 163
    001761  aa  151 166 145 040
    001762  aa  151 156 166 157
    001763  aa  143 141 164 151
    001764  aa  157 156 040 157
    001765  aa  146 040 164 150
    001766  aa  145 040 142 145
    001767  aa  146 157 162 145
    001770  aa  040 152 157 165
    001771  aa  162 156 141 154
    001772  aa  040 155 141 156
    001773  aa  141 147 145 162
    001774  aa  056 000 000 000

                                   295
                                   296  ec bj_rollback_bad_cp_no,bjrbbdcp,
                                   297  	(An invalid checkpoint number has been found.)
                        000102          	segdef  bj_rollback_bad_cp_no
    000102  a0   077777 001777
    001775  aa  142 152 162 142         	aci  "bjrbbdcp",8
    001776  aa  142 144 143 160
    001777  aa  054 101 156 040         	acc  "An invalid checkpoint number has been found."
    002000  aa  151 156 166 141
    002001  aa  154 151 144 040
    002002  aa  143 150 145 143
    002003  aa  153 160 157 151
    002004  aa  156 164 040 156
    002005  aa  165 155 142 145
    002006  aa  162 040 150 141
    002007  aa  163 040 142 145
    002010  aa  145 156 040 146
    002011  aa  157 165 156 144
    002012  aa  056 000 000 000

                                   298
                                   299  ec bj_this_not_adopted,bjntadpt,
                                   300  	(The before journal manager did not adopt the specified transaction.)
                        000103          	segdef  bj_this_not_adopted
    000103  a0   077777 002015
    002013  aa  142 152 156 164         	aci  "bjntadpt",8
    002014  aa  141 144 160 164
    002015  aa  103 124 150 145         	acc  "The before journal manager did not adopt the specified transaction."
    002016  aa  040 142 145 146
    002017  aa  157 162 145 040
    002020  aa  152 157 165 162
    002021  aa  156 141 154 040
    002022  aa  155 141 156 141
    002023  aa  147 145 162 040
    002024  aa  144 151 144 040
    002025  aa  156 157 164 040
    002026  aa  141 144 157 160
    002027  aa  164 040 164 150
    002030  aa  145 040 163 160
    002031  aa  145 143 151 146
    002032  aa  151 145 144 040
    002033  aa  164 162 141 156
    002034  aa  163 141 143 164
    002035  aa  151 157 156 056

                                   301
                                   302  ec bj_too_few_records,bjfewrec,
                                   303  	(Fewer records were found than expected in a backwards walk of a before journal.)
                        000104          	segdef  bj_too_few_records
    000104  a0   077777 002040
    002036  aa  142 152 146 145         	aci  "bjfewrec",8
    002037  aa  167 162 145 143
    002040  aa  117 106 145 167         	acc  "Fewer records were found than expected in a backwards walk of a before journal."
    002041  aa  145 162 040 162
    002042  aa  145 143 157 162
    002043  aa  144 163 040 167
    002044  aa  145 162 145 040
    002045  aa  146 157 165 156
    002046  aa  144 040 164 150
    002047  aa  141 156 040 145
    002050  aa  170 160 145 143
    002051  aa  164 145 144 040
    002052  aa  151 156 040 141
    002053  aa  040 142 141 143
    002054  aa  153 167 141 162
    002055  aa  144 163 040 167
    002056  aa  141 154 153 040
    002057  aa  157 146 040 141
    002060  aa  040 142 145 146
    002061  aa  157 162 145 040
    002062  aa  152 157 165 162
    002063  aa  156 141 154 056

                                   304
                                   305  ec bj_too_few_unfinished_txns,bjfewtxn,
                                   306  	(Fewer active transactions were found in a before journal than expected from the last record written.)
                        000105          	segdef  bj_too_few_unfinished_txns
    000105  a0   077777 002066
    002064  aa  142 152 146 145         	aci  "bjfewtxn",8
    002065  aa  167 164 170 156
    002066  aa  144 106 145 167         	acc  "Fewer active transactions were found in a before journal than expected from the last record written."
    002067  aa  145 162 040 141
    002070  aa  143 164 151 166
    002071  aa  145 040 164 162
    002072  aa  141 156 163 141
    002073  aa  143 164 151 157
    002074  aa  156 163 040 167
    002075  aa  145 162 145 040
    002076  aa  146 157 165 156
    002077  aa  144 040 151 156
    002100  aa  040 141 040 142
    002101  aa  145 146 157 162
    002102  aa  145 040 152 157
    002103  aa  165 162 156 141
    002104  aa  154 040 164 150
    002105  aa  141 156 040 145
    002106  aa  170 160 145 143
    002107  aa  164 145 144 040
    002110  aa  146 162 157 155
    002111  aa  040 164 150 145
    002112  aa  040 154 141 163
    002113  aa  164 040 162 145
    002114  aa  143 157 162 144
    002115  aa  040 167 162 151
    002116  aa  164 164 145 156
    002117  aa  056 000 000 000

                                   307
                                   308  ec bj_too_many_unfinished_txns,bjmantxn,
                                   309  	(More active transactions were found in a before journal than expected from the last record written.)
                        000106          	segdef  bj_too_many_unfinished_txns
    000106  a0   077777 002122
    002120  aa  142 152 155 141         	aci  "bjmantxn",8
    002121  aa  156 164 170 156
    002122  aa  143 115 157 162         	acc  "More active transactions were found in a before journal than expected from the last record written."
    002123  aa  145 040 141 143
    002124  aa  164 151 166 145
    002125  aa  040 164 162 141
    002126  aa  156 163 141 143
    002127  aa  164 151 157 156
    002130  aa  163 040 167 145
    002131  aa  162 145 040 146
    002132  aa  157 165 156 144
    002133  aa  040 151 156 040
    002134  aa  141 040 142 145
    002135  aa  146 157 162 145
    002136  aa  040 152 157 165
    002137  aa  162 156 141 154
    002140  aa  040 164 150 141
    002141  aa  156 040 145 170
    002142  aa  160 145 143 164
    002143  aa  145 144 040 146
    002144  aa  162 157 155 040
    002145  aa  164 150 145 040
    002146  aa  154 141 163 164
    002147  aa  040 162 145 143
    002150  aa  157 162 144 040
    002151  aa  167 162 151 164
    002152  aa  164 145 156 056

                                   310
                                   311  ec bj_txn_aborted,bjtxnab,
                                   312  	(The transaction has been aborted.)
                        000107          	segdef  bj_txn_aborted
    000107  a0   077777 002155
    002153  aa  142 152 164 170         	aci  "bjtxnab",8
    002154  aa  156 141 142 040
    002155  aa  041 124 150 145         	acc  "The transaction has been aborted."
    002156  aa  040 164 162 141
    002157  aa  156 163 141 143
    002160  aa  164 151 157 156
    002161  aa  040 150 141 163
    002162  aa  040 142 145 145
    002163  aa  156 040 141 142
    002164  aa  157 162 164 145
    002165  aa  144 056 000 000

                                   313
                                   314  ec bj_txn_committed,bjtxncom,
                                   315  	(The transaction has been committed.)
                        000110          	segdef  bj_txn_committed
    000110  a0   077777 002170
    002166  aa  142 152 164 170         	aci  "bjtxncom",8
    002167  aa  156 143 157 155
    002170  aa  043 124 150 145         	acc  "The transaction has been committed."
    002171  aa  040 164 162 141
    002172  aa  156 163 141 143
    002173  aa  164 151 157 156
    002174  aa  040 150 141 163
    002175  aa  040 142 145 145
    002176  aa  156 040 143 157
    002177  aa  155 155 151 164
    002200  aa  164 145 144 056

                                   316
                                   317  ec bj_uids_dont_agree,bjudnagr,
                                   318  	(The before journal UID in the hardcore journal entry differs from the UID in the before journal PST entry.)
                        000111          	segdef  bj_uids_dont_agree
    000111  a0   077777 002203
    002201  aa  142 152 165 144         	aci  "bjudnagr",8
    002202  aa  156 141 147 162
    002203  aa  152 124 150 145         	acc  "The before journal UID in the hardcore journal entry differs from the UID in the before journal PST entry."
    002204  aa  040 142 145 146
    002205  aa  157 162 145 040
    002206  aa  152 157 165 162
    002207  aa  156 141 154 040
    002210  aa  125 111 104 040
    002211  aa  151 156 040 164
    002212  aa  150 145 040 150
    002213  aa  141 162 144 143
    002214  aa  157 162 145 040
    002215  aa  152 157 165 162
    002216  aa  156 141 154 040
    002217  aa  145 156 164 162
    002220  aa  171 040 144 151
    002221  aa  146 146 145 162
    002222  aa  163 040 146 162
    002223  aa  157 155 040 164
    002224  aa  150 145 040 125
    002225  aa  111 104 040 151
    002226  aa  156 040 164 150
    002227  aa  145 040 142 145
    002230  aa  146 157 162 145
    002231  aa  040 152 157 165
    002232  aa  162 156 141 154
    002233  aa  040 120 123 124
    002234  aa  040 145 156 164
    002235  aa  162 171 056 000

                                   319
                                   320  ec bj_uids_dont_match,bjudnmtc,
                                   321  	(The specified before journal UID differs from the UID in the before journal PST entry.)
                        000112          	segdef  bj_uids_dont_match
    000112  a0   077777 002240
    002236  aa  142 152 165 144         	aci  "bjudnmtc",8
    002237  aa  156 155 164 143
    002240  aa  126 124 150 145         	acc  "The specified before journal UID differs from the UID in the before journal PST entry."
    002241  aa  040 163 160 145
    002242  aa  143 151 146 151
    002243  aa  145 144 040 142
    002244  aa  145 146 157 162
    002245  aa  145 040 152 157
    002246  aa  165 162 156 141
    002247  aa  154 040 125 111
    002250  aa  104 040 144 151
    002251  aa  146 146 145 162
    002252  aa  163 040 146 162
    002253  aa  157 155 040 164
    002254  aa  150 145 040 125
    002255  aa  111 104 040 151
    002256  aa  156 040 164 150
    002257  aa  145 040 142 145
    002260  aa  146 157 162 145
    002261  aa  040 152 157 165
    002262  aa  162 156 141 154
    002263  aa  040 120 123 124
    002264  aa  040 145 156 164
    002265  aa  162 171 056 000

                                   322
                                   323  ec bj_unexpected_aborted_mark,bjunexab,
                                   324  	(A before journal transaction chain has an abort mark before the last record.)
                        000113          	segdef  bj_unexpected_aborted_mark
    000113  a0   077777 002270
    002266  aa  142 152 165 156         	aci  "bjunexab",8
    002267  aa  145 170 141 142
    002270  aa  114 101 040 142         	acc  "A before journal transaction chain has an abort mark before the last record."
    002271  aa  145 146 157 162
    002272  aa  145 040 152 157
    002273  aa  165 162 156 141
    002274  aa  154 040 164 162
    002275  aa  141 156 163 141
    002276  aa  143 164 151 157
    002277  aa  156 040 143 150
    002300  aa  141 151 156 040
    002301  aa  150 141 163 040
    002302  aa  141 156 040 141
    002303  aa  142 157 162 164
    002304  aa  040 155 141 162
    002305  aa  153 040 142 145
    002306  aa  146 157 162 145
    002307  aa  040 164 150 145
    002310  aa  040 154 141 163
    002311  aa  164 040 162 145
    002312  aa  143 157 162 144
    002313  aa  056 000 000 000

                                   325
                                   326  ec bj_unexpected_committed_mark,bjunxcom,
                                   327  	(A before journal transaction chain has a commit mark before the last record.)
                        000114          	segdef  bj_unexpected_committed_mark
    000114  a0   077777 002316
    002314  aa  142 152 165 156         	aci  "bjunxcom",8
    002315  aa  170 143 157 155
    002316  aa  114 101 040 142         	acc  "A before journal transaction chain has a commit mark before the last record."
    002317  aa  145 146 157 162
    002320  aa  145 040 152 157
    002321  aa  165 162 156 141
    002322  aa  154 040 164 162
    002323  aa  141 156 163 141
    002324  aa  143 164 151 157
    002325  aa  156 040 143 150
    002326  aa  141 151 156 040
    002327  aa  150 141 163 040
    002330  aa  141 040 143 157
    002331  aa  155 155 151 164
    002332  aa  040 155 141 162
    002333  aa  153 040 142 145
    002334  aa  146 157 162 145
    002335  aa  040 164 150 145
    002336  aa  040 154 141 163
    002337  aa  164 040 162 145
    002340  aa  143 157 162 144
    002341  aa  056 000 000 000

                                   328
                                   329  ec bj_unexpected_eot_mark,bjunxeot,
                                   330  	(A before journal transaction chain has an end-of-transaction mark before the last record in the transaction chain.)
                        000115          	segdef  bj_unexpected_eot_mark
    000115  a0   077777 002344
    002342  aa  142 152 165 156         	aci  "bjunxeot",8
    002343  aa  170 145 157 164
    002344  aa  162 101 040 142         	acc  "A before journal transaction chain has an end-of-transaction mark before the last record in the transaction chain."
    002345  aa  145 146 157 162
    002346  aa  145 040 152 157
    002347  aa  165 162 156 141
    002350  aa  154 040 164 162
    002351  aa  141 156 163 141
    002352  aa  143 164 151 157
    002353  aa  156 040 143 150
    002354  aa  141 151 156 040
    002355  aa  150 141 163 040
    002356  aa  141 156 040 145
    002357  aa  156 144 055 157
    002360  aa  146 055 164 162
    002361  aa  141 156 163 141
    002362  aa  143 164 151 157
    002363  aa  156 040 155 141
    002364  aa  162 153 040 142
    002365  aa  145 146 157 162
    002366  aa  145 040 164 150
    002367  aa  145 040 154 141
    002370  aa  163 164 040 162
    002371  aa  145 143 157 162
    002372  aa  144 040 151 156
    002373  aa  040 164 150 145
    002374  aa  040 164 162 141
    002375  aa  156 163 141 143
    002376  aa  164 151 157 156
    002377  aa  040 143 150 141
    002400  aa  151 156 056 000

                                   331
                                   332  ec bj_unknown_record_type,bjbdrect,
                                   333  	(The type of the before journal record is not valid.)
                        000116          	segdef  bj_unknown_record_type
    000116  a0   077777 002403
    002401  aa  142 152 142 144         	aci  "bjbdrect",8
    002402  aa  162 145 143 164
    002403  aa  063 124 150 145         	acc  "The type of the before journal record is not valid."
    002404  aa  040 164 171 160
    002405  aa  145 040 157 146
    002406  aa  040 164 150 145
    002407  aa  040 142 145 146
    002410  aa  157 162 145 040
    002411  aa  152 157 165 162
    002412  aa  156 141 154 040
    002413  aa  162 145 143 157
    002414  aa  162 144 040 151
    002415  aa  163 040 156 157
    002416  aa  164 040 166 141
    002417  aa  154 151 144 056

                                   334
                                   335  ec bj_wrong_numb_txn_records,bjwnotxn,
                                   336  	(The number of records for a transaction in a before journal is stored incorrectly in a record.)
                        000117          	segdef  bj_wrong_numb_txn_records
    000117  a0   077777 002422
    002420  aa  142 152 167 156         	aci  "bjwnotxn",8
    002421  aa  157 164 170 156
    002422  aa  136 124 150 145         	acc  "The number of records for a transaction in a before journal is stored incorrectly in a record."
    002423  aa  040 156 165 155
    002424  aa  142 145 162 040
    002425  aa  157 146 040 162
    002426  aa  145 143 157 162
    002427  aa  144 163 040 146
    002430  aa  157 162 040 141
    002431  aa  040 164 162 141
    002432  aa  156 163 141 143
    002433  aa  164 151 157 156
    002434  aa  040 151 156 040
    002435  aa  141 040 142 145
    002436  aa  146 157 162 145
    002437  aa  040 152 157 165
    002440  aa  162 156 141 154
    002441  aa  040 151 163 040
    002442  aa  163 164 157 162
    002443  aa  145 144 040 151
    002444  aa  156 143 157 162
    002445  aa  162 145 143 164
    002446  aa  154 171 040 151
    002447  aa  156 040 141 040
    002450  aa  162 145 143 157
    002451  aa  162 144 056 000

                                   337
                                   338  ec bj_wrong_prev_rec_id,bjbdprid,
                                   339  	(The before journal transaction record has a stored previous record ID which differs from the actual previous record.)
                        000120          	segdef  bj_wrong_prev_rec_id
    000120  a0   077777 002454
    002452  aa  142 152 142 144         	aci  "bjbdprid",8
    002453  aa  160 162 151 144
    002454  aa  164 124 150 145         	acc  "The before journal transaction record has a stored previous record ID which differs from the actual previous record."
    002455  aa  040 142 145 146
    002456  aa  157 162 145 040
    002457  aa  152 157 165 162
    002460  aa  156 141 154 040
    002461  aa  164 162 141 156
    002462  aa  163 141 143 164
    002463  aa  151 157 156 040
    002464  aa  162 145 143 157
    002465  aa  162 144 040 150
    002466  aa  141 163 040 141
    002467  aa  040 163 164 157
    002470  aa  162 145 144 040
    002471  aa  160 162 145 166
    002472  aa  151 157 165 163
    002473  aa  040 162 145 143
    002474  aa  157 162 144 040
    002475  aa  111 104 040 167
    002476  aa  150 151 143 150
    002477  aa  040 144 151 146
    002500  aa  146 145 162 163
    002501  aa  040 146 162 157
    002502  aa  155 040 164 150
    002503  aa  145 040 141 143
    002504  aa  164 165 141 154
    002505  aa  040 160 162 145
    002506  aa  166 151 157 165
    002507  aa  163 040 162 145
    002510  aa  143 157 162 144
    002511  aa  056 000 000 000

                                   340
                                   341  ec bj_zero_txns_in_unfinished_rec,bj0txnrc,
                                   342  	(A non-end-of-transaction before journal record indicates no active transactions.)
                        000121          	segdef  bj_zero_txns_in_unfinished_rec
    000121  a0   077777 002514
    002512  aa  142 152 060 164         	aci  "bj0txnrc",8
    002513  aa  170 156 162 143
    002514  aa  120 101 040 156         	acc  "A non-end-of-transaction before journal record indicates no active transactions."
    002515  aa  157 156 055 145
    002516  aa  156 144 055 157
    002517  aa  146 055 164 162
    002520  aa  141 156 163 141
    002521  aa  143 164 151 157
    002522  aa  156 040 142 145
    002523  aa  146 157 162 145
    002524  aa  040 152 157 165
    002525  aa  162 156 141 154
    002526  aa  040 162 145 143
    002527  aa  157 162 144 040
    002530  aa  151 156 144 151
    002531  aa  143 141 164 145
    002532  aa  163 040 156 157
    002533  aa  040 141 143 164
    002534  aa  151 166 145 040
    002535  aa  164 162 141 156
    002536  aa  163 141 143 164
    002537  aa  151 157 156 163
    002540  aa  056 000 000 000

                                   343
                                   344  ec cant_buffer_ci_continuations,nobufcn,
                                   345            (The control interval is not eligible for buffered access.)
                        000122          	segdef  cant_buffer_ci_continuations
    000122  a0   077777 002543
    002541  aa  156 157 142 165         	aci  "nobufcn",8
    002542  aa  146 143 156 040
    002543  aa  071 124 150 145         	acc  "The control interval is not eligible for buffered access."
    002544  aa  040 143 157 156
    002545  aa  164 162 157 154
    002546  aa  040 151 156 164
    002547  aa  145 162 166 141
    002550  aa  154 040 151 163
    002551  aa  040 156 157 164
    002552  aa  040 145 154 151
    002553  aa  147 151 142 154
    002554  aa  145 040 146 157
    002555  aa  162 040 142 165
    002556  aa  146 146 145 162
    002557  aa  145 144 040 141
    002560  aa  143 143 145 163
    002561  aa  163 056 000 000

                                   346
                                   347  ec ci_0_invalid_free,ci0free,
                                   348            (Control interval zero cannot be freed.)
                        000123          	segdef  ci_0_invalid_free
    000123  a0   077777 002564
    002562  aa  143 151 060 146         	aci  "ci0free",8
    002563  aa  162 145 145 040
    002564  aa  046 103 157 156         	acc  "Control interval zero cannot be freed."
    002565  aa  164 162 157 154
    002566  aa  040 151 156 164
    002567  aa  145 162 166 141
    002570  aa  154 040 172 145
    002571  aa  162 157 040 143
    002572  aa  141 156 156 157
    002573  aa  164 040 142 145
    002574  aa  040 146 162 145
    002575  aa  145 144 056 000

                                   349
                                   350  ec ci_already_allocated,cialloc,
                                   351  	(The control interval is already allocated.)
                        000124          	segdef  ci_already_allocated
    000124  a0   077777 002600
    002576  aa  143 151 141 154         	aci  "cialloc",8
    002577  aa  154 157 143 040
    002600  aa  052 124 150 145         	acc  "The control interval is already allocated."
    002601  aa  040 143 157 156
    002602  aa  164 162 157 154
    002603  aa  040 151 156 164
    002604  aa  145 162 166 141
    002605  aa  154 040 151 163
    002606  aa  040 141 154 162
    002607  aa  145 141 144 171
    002610  aa  040 141 154 154
    002611  aa  157 143 141 164
    002612  aa  145 144 056 000

                                   352
                                   353  ec ci_already_free,cifree,
                                   354  	(The control interval is already free.)
                        000125          	segdef  ci_already_free
    000125  a0   077777 002615
    002613  aa  143 151 146 162         	aci  "cifree",8
    002614  aa  145 145 040 040
    002615  aa  045 124 150 145         	acc  "The control interval is already free."
    002616  aa  040 143 157 156
    002617  aa  164 162 157 154
    002620  aa  040 151 156 164
    002621  aa  145 162 166 141
    002622  aa  154 040 151 163
    002623  aa  040 141 154 162
    002624  aa  145 141 144 171
    002625  aa  040 146 162 145
    002626  aa  145 056 000 000

                                   355
                                   356  ec ci_bad_hdr_arg_ver,cibdhav,
                                   357  	(The version of the control interval header is wrong.)
                        000126          	segdef  ci_bad_hdr_arg_ver
    000126  a0   077777 002631
    002627  aa  143 151 142 144         	aci  "cibdhav",8
    002630  aa  150 141 166 040
    002631  aa  064 124 150 145         	acc  "The version of the control interval header is wrong."
    002632  aa  040 166 145 162
    002633  aa  163 151 157 156
    002634  aa  040 157 146 040
    002635  aa  164 150 145 040
    002636  aa  143 157 156 164
    002637  aa  162 157 154 040
    002640  aa  151 156 164 145
    002641  aa  162 166 141 154
    002642  aa  040 150 145 141
    002643  aa  144 145 162 040
    002644  aa  151 163 040 167
    002645  aa  162 157 156 147
    002646  aa  056 000 000 000

                                   358
                                   359  ec ci_bad_hdr_id_num,cibdhin,
                                   360  	(The specified control interval has the wrong sequence number.)
                        000127          	segdef  ci_bad_hdr_id_num
    000127  a0   077777 002651
    002647  aa  143 151 142 144         	aci  "cibdhin",8
    002650  aa  150 151 156 040
    002651  aa  075 124 150 145         	acc  "The specified control interval has the wrong sequence number."
    002652  aa  040 163 160 145
    002653  aa  143 151 146 151
    002654  aa  145 144 040 143
    002655  aa  157 156 164 162
    002656  aa  157 154 040 151
    002657  aa  156 164 145 162
    002660  aa  166 141 154 040
    002661  aa  150 141 163 040
    002662  aa  164 150 145 040
    002663  aa  167 162 157 156
    002664  aa  147 040 163 145
    002665  aa  161 165 145 156
    002666  aa  143 145 040 156
    002667  aa  165 155 142 145
    002670  aa  162 056 000 000

                                   361
                                   362  ec ci_bad_hdr_size_code,cibdhsz,
                                   363  	(The specified control interval has an invalid size code.)
                        000130          	segdef  ci_bad_hdr_size_code
    000130  a0   077777 002673
    002671  aa  143 151 142 144         	aci  "cibdhsz",8
    002672  aa  150 163 172 040
    002673  aa  070 124 150 145         	acc  "The specified control interval has an invalid size code."
    002674  aa  040 163 160 145
    002675  aa  143 151 146 151
    002676  aa  145 144 040 143
    002677  aa  157 156 164 162
    002700  aa  157 154 040 151
    002701  aa  156 164 145 162
    002702  aa  166 141 154 040
    002703  aa  150 141 163 040
    002704  aa  141 156 040 151
    002705  aa  156 166 141 154
    002706  aa  151 144 040 163
    002707  aa  151 172 145 040
    002710  aa  143 157 144 145
    002711  aa  056 000 000 000

                                   364
                                   365  ec ci_bad_hdr_uid,cibdhuid,
                                   366  	(The specified control interval has an incorrect unique identifier.)
                        000131          	segdef  ci_bad_hdr_uid
    000131  a0   077777 002714
    002712  aa  143 151 142 144         	aci  "cibdhuid",8
    002713  aa  150 165 151 144
    002714  aa  102 124 150 145         	acc  "The specified control interval has an incorrect unique identifier."
    002715  aa  040 163 160 145
    002716  aa  143 151 146 151
    002717  aa  145 144 040 143
    002720  aa  157 156 164 162
    002721  aa  157 154 040 151
    002722  aa  156 164 145 162
    002723  aa  166 141 154 040
    002724  aa  150 141 163 040
    002725  aa  141 156 040 151
    002726  aa  156 143 157 162
    002727  aa  162 145 143 164
    002730  aa  040 165 156 151
    002731  aa  161 165 145 040
    002732  aa  151 144 145 156
    002733  aa  164 151 146 151
    002734  aa  145 162 056 000

                                   367
                                   368  ec ci_bad_stamp_ver,cibdsv,
                                   369  	(The specified control interval is the wrong version or is damaged.)
                        000132          	segdef  ci_bad_stamp_ver
    000132  a0   077777 002737
    002735  aa  143 151 142 144         	aci  "cibdsv",8
    002736  aa  163 166 040 040
    002737  aa  102 124 150 145         	acc  "The specified control interval is the wrong version or is damaged."
    002740  aa  040 163 160 145
    002741  aa  143 151 146 151
    002742  aa  145 144 040 143
    002743  aa  157 156 164 162
    002744  aa  157 154 040 151
    002745  aa  156 164 145 162
    002746  aa  166 141 154 040
    002747  aa  151 163 040 164
    002750  aa  150 145 040 167
    002751  aa  162 157 156 147
    002752  aa  040 166 145 162
    002753  aa  163 151 157 156
    002754  aa  040 157 162 040
    002755  aa  151 163 040 144
    002756  aa  141 155 141 147
    002757  aa  145 144 056 000

                                   370
                                   371  ec ci_buffer_too_small,shortbuf,
                                   372            (The supplied buffer is not large enough to hold a control interval.)
                        000133          	segdef  ci_buffer_too_small
    000133  a0   077777 002762
    002760  aa  163 150 157 162         	aci  "shortbuf",8
    002761  aa  164 142 165 146
    002762  aa  103 124 150 145         	acc  "The supplied buffer is not large enough to hold a control interval."
    002763  aa  040 163 165 160
    002764  aa  160 154 151 145
    002765  aa  144 040 142 165
    002766  aa  146 146 145 162
    002767  aa  040 151 163 040
    002770  aa  156 157 164 040
    002771  aa  154 141 162 147
    002772  aa  145 040 145 156
    002773  aa  157 165 147 150
    002774  aa  040 164 157 040
    002775  aa  150 157 154 144
    002776  aa  040 141 040 143
    002777  aa  157 156 164 162
    003000  aa  157 154 040 151
    003001  aa  156 164 145 162
    003002  aa  166 141 154 056

                                   373
                                   374  ec ci_not_allocated,cinalloc,
                                   375            (The control interval has not been allocated.)
                        000134          	segdef  ci_not_allocated
    000134  a0   077777 003005
    003003  aa  143 151 156 141         	aci  "cinalloc",8
    003004  aa  154 154 157 143
    003005  aa  054 124 150 145         	acc  "The control interval has not been allocated."
    003006  aa  040 143 157 156
    003007  aa  164 162 157 154
    003010  aa  040 151 156 164
    003011  aa  145 162 166 141
    003012  aa  154 040 150 141
    003013  aa  163 040 156 157
    003014  aa  164 040 142 145
    003015  aa  145 156 040 141
    003016  aa  154 154 157 143
    003017  aa  141 164 145 144
    003020  aa  056 000 000 000

                                   376
                                   377  ec ci_not_in_collection,outofcol,
                                   378            (The requested control interval is not contained in the given collection.)
                        000135          	segdef  ci_not_in_collection
    000135  a0   077777 003023
    003021  aa  157 165 164 157         	aci  "outofcol",8
    003022  aa  146 143 157 154
    003023  aa  110 124 150 145         	acc  "The requested control interval is not contained in the given collection."
    003024  aa  040 162 145 161
    003025  aa  165 145 163 164
    003026  aa  145 144 040 143
    003027  aa  157 156 164 162
    003030  aa  157 154 040 151
    003031  aa  156 164 145 162
    003032  aa  166 141 154 040
    003033  aa  151 163 040 156
    003034  aa  157 164 040 143
    003035  aa  157 156 164 141
    003036  aa  151 156 145 144
    003037  aa  040 151 156 040
    003040  aa  164 150 145 040
    003041  aa  147 151 166 145
    003042  aa  156 040 143 157
    003043  aa  154 154 145 143
    003044  aa  164 151 157 156
    003045  aa  056 000 000 000

                                   379
                                   380  ec ci_num_oob,cinoob,
                                   381  	(The specified control interval number is out of bounds.)
                        000136          	segdef  ci_num_oob
    000136  a0   077777 003050
    003046  aa  143 151 156 157         	aci  "cinoob",8
    003047  aa  157 142 040 040
    003050  aa  067 124 150 145         	acc  "The specified control interval number is out of bounds."
    003051  aa  040 163 160 145
    003052  aa  143 151 146 151
    003053  aa  145 144 040 143
    003054  aa  157 156 164 162
    003055  aa  157 154 040 151
    003056  aa  156 164 145 162
    003057  aa  166 141 154 040
    003060  aa  156 165 155 142
    003061  aa  145 162 040 151
    003062  aa  163 040 157 165
    003063  aa  164 040 157 146
    003064  aa  040 142 157 165
    003065  aa  156 144 163 056

                                   382
                                   383  ec ci_num_parts_neg,cinpneg,
                                   384  	(A negative number of control interval parts was specified.)
                        000137          	segdef  ci_num_parts_neg
    000137  a0   077777 003070
    003066  aa  143 151 156 160         	aci  "cinpneg",8
    003067  aa  156 145 147 040
    003070  aa  072 101 040 156         	acc  "A negative number of control interval parts was specified."
    003071  aa  145 147 141 164
    003072  aa  151 166 145 040
    003073  aa  156 165 155 142
    003074  aa  145 162 040 157
    003075  aa  146 040 143 157
    003076  aa  156 164 162 157
    003077  aa  154 040 151 156
    003100  aa  164 145 162 166
    003101  aa  141 154 040 160
    003102  aa  141 162 164 163
    003103  aa  040 167 141 163
    003104  aa  040 163 160 145
    003105  aa  143 151 146 151
    003106  aa  145 144 056 000

                                   385
                                   386  ec ci_parts_oob,cipoob,
                                   387  	(The specified control interval part goes beyond the addressable range.)
                        000140          	segdef  ci_parts_oob
    000140  a0   077777 003111
    003107  aa  143 151 160 157         	aci  "cipoob",8
    003110  aa  157 142 040 040
    003111  aa  106 124 150 145         	acc  "The specified control interval part goes beyond the addressable range."
    003112  aa  040 163 160 145
    003113  aa  143 151 146 151
    003114  aa  145 144 040 143
    003115  aa  157 156 164 162
    003116  aa  157 154 040 151
    003117  aa  156 164 145 162
    003120  aa  166 141 154 040
    003121  aa  160 141 162 164
    003122  aa  040 147 157 145
    003123  aa  163 040 142 145
    003124  aa  171 157 156 144
    003125  aa  040 164 150 145
    003126  aa  040 141 144 144
    003127  aa  162 145 163 163
    003130  aa  141 142 154 145
    003131  aa  040 162 141 156
    003132  aa  147 145 056 000

                                   388
                                   389  ec col_is_inconsistent,colisinc,
                                   390            (The collection is internally inconsistent.)
                        000141          	segdef  col_is_inconsistent
    000141  a0   077777 003135
    003133  aa  143 157 154 151         	aci  "colisinc",8
    003134  aa  163 151 156 143
    003135  aa  052 124 150 145         	acc  "The collection is internally inconsistent."
    003136  aa  040 143 157 154
    003137  aa  154 145 143 164
    003140  aa  151 157 156 040
    003141  aa  151 163 040 151
    003142  aa  156 164 145 162
    003143  aa  156 141 154 154
    003144  aa  171 040 151 156
    003145  aa  143 157 156 163
    003146  aa  151 163 164 145
    003147  aa  156 164 056 000

                                   391
                                   392  ec collection_not_found,nocol,
                                   393            (The specified collection was not found.)
                        000142          	segdef  collection_not_found
    000142  a0   077777 003152
    003150  aa  156 157 143 157         	aci  "nocol",8
    003151  aa  154 040 040 040
    003152  aa  047 124 150 145         	acc  "The specified collection was not found."
    003153  aa  040 163 160 145
    003154  aa  143 151 146 151
    003155  aa  145 144 040 143
    003156  aa  157 154 154 145
    003157  aa  143 164 151 157
    003160  aa  156 040 167 141
    003161  aa  163 040 156 157
    003162  aa  164 040 146 157
    003163  aa  165 156 144 056

                                   394
                                   395  ec collection_not_in_relation,nocolrel,
                                   396            (The specified index or record collection does not exist in the relation.)
                        000143          	segdef  collection_not_in_relation
    000143  a0   077777 003166
    003164  aa  156 157 143 157         	aci  "nocolrel",8
    003165  aa  154 162 145 154
    003166  aa  110 124 150 145         	acc  "The specified index or record collection does not exist in the relation."
    003167  aa  040 163 160 145
    003170  aa  143 151 146 151
    003171  aa  145 144 040 151
    003172  aa  156 144 145 170
    003173  aa  040 157 162 040
    003174  aa  162 145 143 157
    003175  aa  162 144 040 143
    003176  aa  157 154 154 145
    003177  aa  143 164 151 157
    003200  aa  156 040 144 157
    003201  aa  145 163 040 156
    003202  aa  157 164 040 145
    003203  aa  170 151 163 164
    003204  aa  040 151 156 040
    003205  aa  164 150 145 040
    003206  aa  162 145 154 141
    003207  aa  164 151 157 156
    003210  aa  056 000 000 000

                                   397
                                   398  ec delete_pending_transaction,delptxn,
                                   399            (The object will be deleted when the current transaction commits.)
                        000144          	segdef  delete_pending_transaction
    000144  a0   077777 003213
    003211  aa  144 145 154 160         	aci  "delptxn",8
    003212  aa  164 170 156 040
    003213  aa  100 124 150 145         	acc  "The object will be deleted when the current transaction commits."
    003214  aa  040 157 142 152
    003215  aa  145 143 164 040
    003216  aa  167 151 154 154
    003217  aa  040 142 145 040
    003220  aa  144 145 154 145
    003221  aa  164 145 144 040
    003222  aa  167 150 145 156
    003223  aa  040 164 150 145
    003224  aa  040 143 165 162
    003225  aa  162 145 156 164
    003226  aa  040 164 162 141
    003227  aa  156 163 141 143
    003230  aa  164 151 157 156
    003231  aa  040 143 157 155
    003232  aa  155 151 164 163
    003233  aa  056 000 000 000

                                   400
                                   401  ec dm_shutdown_not_sched,dmshdnns,
                                   402  	(Unable to schedule requested DM shutdown.)
                        000145          	segdef  dm_shutdown_not_sched
    000145  a0   077777 003236
    003234  aa  144 155 163 150         	aci  "dmshdnns",8
    003235  aa  144 156 156 163
    003236  aa  051 125 156 141         	acc  "Unable to schedule requested DM shutdown."
    003237  aa  142 154 145 040
    003240  aa  164 157 040 163
    003241  aa  143 150 145 144
    003242  aa  165 154 145 040
    003243  aa  162 145 161 165
    003244  aa  145 163 164 145
    003245  aa  144 040 104 115
    003246  aa  040 163 150 165
    003247  aa  164 144 157 167
    003250  aa  156 056 000 000

                                   403
                                   404  ec (element_not_found,no_element),noelem,
                                   405            (No element was found.)
                        000146          	segdef  element_not_found
                        000146          	segdef  no_element
    000146  a0   077777 003253
    003251  aa  156 157 145 154         	aci  "noelem",8
    003252  aa  145 155 040 040
    003253  aa  025 116 157 040         	acc  "No element was found."
    003254  aa  145 154 145 155
    003255  aa  145 156 164 040
    003256  aa  167 141 163 040
    003257  aa  146 157 165 156
    003260  aa  144 056 000 000

                                   406
                                   407  ec end_of_collection,endcoll,
                                   408  	(An attempt was made to access beyond the end of the collection.)
                        000147          	segdef  end_of_collection
    000147  a0   077777 003263
    003261  aa  145 156 144 143         	aci  "endcoll",8
    003262  aa  157 154 154 040
    003263  aa  077 101 156 040         	acc  "An attempt was made to access beyond the end of the collection."
    003264  aa  141 164 164 145
    003265  aa  155 160 164 040
    003266  aa  167 141 163 040
    003267  aa  155 141 144 145
    003270  aa  040 164 157 040
    003271  aa  141 143 143 145
    003272  aa  163 163 040 142
    003273  aa  145 171 157 156
    003274  aa  144 040 164 150
    003275  aa  145 040 145 156
    003276  aa  144 040 157 146
    003277  aa  040 164 150 145
    003300  aa  040 143 157 154
    003301  aa  154 145 143 164
    003302  aa  151 157 156 056

                                   409
                                   410  ec fast_lock_invalid_lock,flinvlk,
                                   411  	(The fast lock double-word contains invalid data.)
                        000150          	segdef  fast_lock_invalid_lock
    000150  a0   077777 003305
    003303  aa  146 154 151 156         	aci  "flinvlk",8
    003304  aa  166 154 153 040
    003305  aa  060 124 150 145         	acc  "The fast lock double-word contains invalid data."
    003306  aa  040 146 141 163
    003307  aa  164 040 154 157
    003310  aa  143 153 040 144
    003311  aa  157 165 142 154
    003312  aa  145 055 167 157
    003313  aa  162 144 040 143
    003314  aa  157 156 164 141
    003315  aa  151 156 163 040
    003316  aa  151 156 166 141
    003317  aa  154 151 144 040
    003320  aa  144 141 164 141
    003321  aa  056 000 000 000

                                   412
                                   413  ec fast_lock_invalid_reset,flinvrs,
                                   414  	(The fast lock was locked to a dead or invalid process. It is now locked to this process.)
                        000151          	segdef  fast_lock_invalid_reset
    000151  a0   077777 003324
    003322  aa  146 154 151 156         	aci  "flinvrs",8
    003323  aa  166 162 163 040
    003324  aa  130 124 150 145         	acc  "The fast lock was locked to a dead or invalid process. It is now locked to this process."
    003325  aa  040 146 141 163
    003326  aa  164 040 154 157
    003327  aa  143 153 040 167
    003330  aa  141 163 040 154
    003331  aa  157 143 153 145
    003332  aa  144 040 164 157
    003333  aa  040 141 040 144
    003334  aa  145 141 144 040
    003335  aa  157 162 040 151
    003336  aa  156 166 141 154
    003337  aa  151 144 040 160
    003340  aa  162 157 143 145
    003341  aa  163 163 056 040
    003342  aa  111 164 040 151
    003343  aa  163 040 156 157
    003344  aa  167 040 154 157
    003345  aa  143 153 145 144
    003346  aa  040 164 157 040
    003347  aa  164 150 151 163
    003350  aa  040 160 162 157
    003351  aa  143 145 163 163
    003352  aa  056 000 000 000

                                   415
                                   416  ec fast_lock_mylock,flmylock,
                                   417  	(The fast lock is already locked to this process.)
                        000152          	segdef  fast_lock_mylock
    000152  a0   077777 003355
    003353  aa  146 154 155 171         	aci  "flmylock",8
    003354  aa  154 157 143 153
    003355  aa  060 124 150 145         	acc  "The fast lock is already locked to this process."
    003356  aa  040 146 141 163
    003357  aa  164 040 154 157
    003360  aa  143 153 040 151
    003361  aa  163 040 141 154
    003362  aa  162 145 141 144
    003363  aa  171 040 154 157
    003364  aa  143 153 145 144
    003365  aa  040 164 157 040
    003366  aa  164 150 151 163
    003367  aa  040 160 162 157
    003370  aa  143 145 163 163
    003371  aa  056 000 000 000

                                   418
                                   419  ec fast_lock_no_free,flnofree,
                                   420  	(There are no free blocks available for this fast lock operation.)
                        000153          	segdef  fast_lock_no_free
    000153  a0   077777 003374
    003372  aa  146 154 156 157         	aci  "flnofree",8
    003373  aa  146 162 145 145
    003374  aa  100 124 150 145         	acc  "There are no free blocks available for this fast lock operation."
    003375  aa  162 145 040 141
    003376  aa  162 145 040 156
    003377  aa  157 040 146 162
    003400  aa  145 145 040 142
    003401  aa  154 157 143 153
    003402  aa  163 040 141 166
    003403  aa  141 151 154 141
    003404  aa  142 154 145 040
    003405  aa  146 157 162 040
    003406  aa  164 150 151 163
    003407  aa  040 146 141 163
    003410  aa  164 040 154 157
    003411  aa  143 153 040 157
    003412  aa  160 145 162 141
    003413  aa  164 151 157 156
    003414  aa  056 000 000 000

                                   421
                                   422  ec fast_lock_not_cleared,flnoclr,
                                   423  	(The fast lock has not been initialized or has been modified.)
                        000154          	segdef  fast_lock_not_cleared
    000154  a0   077777 003417
    003415  aa  146 154 156 157         	aci  "flnoclr",8
    003416  aa  143 154 162 040
    003417  aa  074 124 150 145         	acc  "The fast lock has not been initialized or has been modified."
    003420  aa  040 146 141 163
    003421  aa  164 040 154 157
    003422  aa  143 153 040 150
    003423  aa  141 163 040 156
    003424  aa  157 164 040 142
    003425  aa  145 145 156 040
    003426  aa  151 156 151 164
    003427  aa  151 141 154 151
    003430  aa  172 145 144 040
    003431  aa  157 162 040 150
    003432  aa  141 163 040 142
    003433  aa  145 145 156 040
    003434  aa  155 157 144 151
    003435  aa  146 151 145 144
    003436  aa  056 000 000 000

                                   424
                                   425  ec fast_lock_not_locked,flnolock,
                                   426  	(The fast lock is not locked to this process.)
                        000155          	segdef  fast_lock_not_locked
    000155  a0   077777 003441
    003437  aa  146 154 156 157         	aci  "flnolock",8
    003440  aa  154 157 143 153
    003441  aa  054 124 150 145         	acc  "The fast lock is not locked to this process."
    003442  aa  040 146 141 163
    003443  aa  164 040 154 157
    003444  aa  143 153 040 151
    003445  aa  163 040 156 157
    003446  aa  164 040 154 157
    003447  aa  143 153 145 144
    003450  aa  040 164 157 040
    003451  aa  164 150 151 163
    003452  aa  040 160 162 157
    003453  aa  143 145 163 163
    003454  aa  056 000 000 000

                                   427
                                   428  ec fast_lock_timeout,fltmot,
                                   429  	(The fast lock could not be obtained in the time specified.)
                        000156          	segdef  fast_lock_timeout
    000156  a0   077777 003457
    003455  aa  146 154 164 155         	aci  "fltmot",8
    003456  aa  157 164 040 040
    003457  aa  072 124 150 145         	acc  "The fast lock could not be obtained in the time specified."
    003460  aa  040 146 141 163
    003461  aa  164 040 154 157
    003462  aa  143 153 040 143
    003463  aa  157 165 154 144
    003464  aa  040 156 157 164
    003465  aa  040 142 145 040
    003466  aa  157 142 164 141
    003467  aa  151 156 145 144
    003470  aa  040 151 156 040
    003471  aa  164 150 145 040
    003472  aa  164 151 155 145
    003473  aa  040 163 160 145
    003474  aa  143 151 146 151
    003475  aa  145 144 056 000

                                   430
                                   431  ec file_already_exists,fileis,
                                   432  	(The data management file already exists.)
                        000157          	segdef  file_already_exists
    000157  a0   077777 003500
    003476  aa  146 151 154 145         	aci  "fileis",8
    003477  aa  151 163 040 040
    003500  aa  050 124 150 145         	acc  "The data management file already exists."
    003501  aa  040 144 141 164
    003502  aa  141 040 155 141
    003503  aa  156 141 147 145
    003504  aa  155 145 156 164
    003505  aa  040 146 151 154
    003506  aa  145 040 141 154
    003507  aa  162 145 141 144
    003510  aa  171 040 145 170
    003511  aa  151 163 164 163
    003512  aa  056 000 000 000

                                   433
                                   434  ec file_already_open,fileopen,
                                   435  	(The data management file is already open.)
                        000160          	segdef  file_already_open
    000160  a0   077777 003515
    003513  aa  146 151 154 145         	aci  "fileopen",8
    003514  aa  157 160 145 156
    003515  aa  051 124 150 145         	acc  "The data management file is already open."
    003516  aa  040 144 141 164
    003517  aa  141 040 155 141
    003520  aa  156 141 147 145
    003521  aa  155 145 156 164
    003522  aa  040 146 151 154
    003523  aa  145 040 151 163
    003524  aa  040 141 154 162
    003525  aa  145 141 144 171
    003526  aa  040 157 160 145
    003527  aa  156 056 000 000

                                   436
                                   437  ec file_cr_info_mbz_nz,ficrimbz,
                                   438  	(A file creation information item that must be zero is not.)
                        000161          	segdef  file_cr_info_mbz_nz
    000161  a0   077777 003532
    003530  aa  146 151 143 162         	aci  "ficrimbz",8
    003531  aa  151 155 142 172
    003532  aa  072 101 040 146         	acc  "A file creation information item that must be zero is not."
    003533  aa  151 154 145 040
    003534  aa  143 162 145 141
    003535  aa  164 151 157 156
    003536  aa  040 151 156 146
    003537  aa  157 162 155 141
    003540  aa  164 151 157 156
    003541  aa  040 151 164 145
    003542  aa  155 040 164 150
    003543  aa  141 164 040 155
    003544  aa  165 163 164 040
    003545  aa  142 145 040 172
    003546  aa  145 162 157 040
    003547  aa  151 163 040 156
    003550  aa  157 164 056 000

                                   439
                                   440  ec file_doesnt_exist,fileisnt,
                                   441  	(The data management file does not exist.)
                        000162          	segdef  file_doesnt_exist
    000162  a0   077777 003553
    003551  aa  146 151 154 145         	aci  "fileisnt",8
    003552  aa  151 163 156 164
    003553  aa  050 124 150 145         	acc  "The data management file does not exist."
    003554  aa  040 144 141 164
    003555  aa  141 040 155 141
    003556  aa  156 141 147 145
    003557  aa  155 145 156 164
    003560  aa  040 146 151 154
    003561  aa  145 040 144 157
    003562  aa  145 163 040 156
    003563  aa  157 164 040 145
    003564  aa  170 151 163 164
    003565  aa  056 000 000 000

                                   442
                                   443  ec file_duplication,filedup,
                                   444  	(There is more than one data management file with the same unique identifier.)
                        000163          	segdef  file_duplication
    000163  a0   077777 003570
    003566  aa  146 151 154 145         	aci  "filedup",8
    003567  aa  144 165 160 040
    003570  aa  114 124 150 145         	acc  "There is more than one data management file with the same unique identifier."
    003571  aa  162 145 040 151
    003572  aa  163 040 155 157
    003573  aa  162 145 040 164
    003574  aa  150 141 156 040
    003575  aa  157 156 145 040
    003576  aa  144 141 164 141
    003577  aa  040 155 141 156
    003600  aa  141 147 145 155
    003601  aa  145 156 164 040
    003602  aa  146 151 154 145
    003603  aa  040 167 151 164
    003604  aa  150 040 164 150
    003605  aa  145 040 163 141
    003606  aa  155 145 040 165
    003607  aa  156 151 161 165
    003610  aa  145 040 151 144
    003611  aa  145 156 164 151
    003612  aa  146 151 145 162
    003613  aa  056 000 000 000

                                   445
                                   446  ec file_in_use,filinuse,
                                   447            (The operation can't be done because the data management file is in use.)
                        000164          	segdef  file_in_use
    000164  a0   077777 003616
    003614  aa  146 151 154 151         	aci  "filinuse",8
    003615  aa  156 165 163 145
    003616  aa  107 124 150 145         	acc  "The operation can't be done because the data management file is in use."
    003617  aa  040 157 160 145
    003620  aa  162 141 164 151
    003621  aa  157 156 040 143
    003622  aa  141 156 047 164
    003623  aa  040 142 145 040
    003624  aa  144 157 156 145
    003625  aa  040 142 145 143
    003626  aa  141 165 163 145
    003627  aa  040 164 150 145
    003630  aa  040 144 141 164
    003631  aa  141 040 155 141
    003632  aa  156 141 147 145
    003633  aa  155 145 156 164
    003634  aa  040 146 151 154
    003635  aa  145 040 151 163
    003636  aa  040 151 156 040
    003637  aa  165 163 145 056

                                   448
                                   449  ec file_must_be_protected,flprot,
                                   450  	(The operation can't be done because the data management file is not a protected file.)
                        000165          	segdef  file_must_be_protected
    000165  a0   077777 003642
    003640  aa  146 154 160 162         	aci  "flprot",8
    003641  aa  157 164 040 040
    003642  aa  125 124 150 145         	acc  "The operation can't be done because the data management file is not a protected file."
    003643  aa  040 157 160 145
    003644  aa  162 141 164 151
    003645  aa  157 156 040 143
    003646  aa  141 156 047 164
    003647  aa  040 142 145 040
    003650  aa  144 157 156 145
    003651  aa  040 142 145 143
    003652  aa  141 165 163 145
    003653  aa  040 164 150 145
    003654  aa  040 144 141 164
    003655  aa  141 040 155 141
    003656  aa  156 141 147 145
    003657  aa  155 145 156 164
    003660  aa  040 146 151 154
    003661  aa  145 040 151 163
    003662  aa  040 156 157 164
    003663  aa  040 141 040 160
    003664  aa  162 157 164 145
    003665  aa  143 164 145 144
    003666  aa  040 146 151 154
    003667  aa  145 056 000 000

                                   451
                                   452  ec file_not_dm_type,flnotdm,
                                   453  	(The file does not look like a data management file.)
                        000166          	segdef  file_not_dm_type
    000166  a0   077777 003672
    003670  aa  146 154 156 157         	aci  "flnotdm",8
    003671  aa  164 144 155 040
    003672  aa  063 124 150 145         	acc  "The file does not look like a data management file."
    003673  aa  040 146 151 154
    003674  aa  145 040 144 157
    003675  aa  145 163 040 156
    003676  aa  157 164 040 154
    003677  aa  157 157 153 040
    003700  aa  154 151 153 145
    003701  aa  040 141 040 144
    003702  aa  141 164 141 040
    003703  aa  155 141 156 141
    003704  aa  147 145 155 145
    003705  aa  156 164 040 146
    003706  aa  151 154 145 056

                                   454
                                   455  ec file_uid_arg_null,fiudnull,
                                   456  	(The specified data management file unique identifier argument is null.)
                        000167          	segdef  file_uid_arg_null
    000167  a0   077777 003711
    003707  aa  146 151 165 144         	aci  "fiudnull",8
    003710  aa  156 165 154 154
    003711  aa  106 124 150 145         	acc  "The specified data management file unique identifier argument is null."
    003712  aa  040 163 160 145
    003713  aa  143 151 146 151
    003714  aa  145 144 040 144
    003715  aa  141 164 141 040
    003716  aa  155 141 156 141
    003717  aa  147 145 155 145
    003720  aa  156 164 040 146
    003721  aa  151 154 145 040
    003722  aa  165 156 151 161
    003723  aa  165 145 040 151
    003724  aa  144 145 156 164
    003725  aa  151 146 151 145
    003726  aa  162 040 141 162
    003727  aa  147 165 155 145
    003730  aa  156 164 040 151
    003731  aa  163 040 156 165
    003732  aa  154 154 056 000

                                   457
                                   458  ec file_uid_not_found,fiudnofd,
                                   459  	(The specified data management file unique identifier is not in the uid-pathname table.)
                        000170          	segdef  file_uid_not_found
    000170  a0   077777 003735
    003733  aa  146 151 165 144         	aci  "fiudnofd",8
    003734  aa  156 157 146 144
    003735  aa  126 124 150 145         	acc  "The specified data management file unique identifier is not in the uid-pathname table."
    003736  aa  040 163 160 145
    003737  aa  143 151 146 151
    003740  aa  145 144 040 144
    003741  aa  141 164 141 040
    003742  aa  155 141 156 141
    003743  aa  147 145 155 145
    003744  aa  156 164 040 146
    003745  aa  151 154 145 040
    003746  aa  165 156 151 161
    003747  aa  165 145 040 151
    003750  aa  144 145 156 164
    003751  aa  151 146 151 145
    003752  aa  162 040 151 163
    003753  aa  040 156 157 164
    003754  aa  040 151 156 040
    003755  aa  164 150 145 040
    003756  aa  165 151 144 055
    003757  aa  160 141 164 150
    003760  aa  156 141 155 145
    003761  aa  040 164 141 142
    003762  aa  154 145 056 000

                                   460
                                   461  ec file_was_deleted,fiwsdltd,
                                   462  	(The file has been deleted.)
                        000171          	segdef  file_was_deleted
    000171  a0   077777 003765
    003763  aa  146 151 167 163         	aci  "fiwsdltd",8
    003764  aa  144 154 164 144
    003765  aa  032 124 150 145         	acc  "The file has been deleted."
    003766  aa  040 146 151 154
    003767  aa  145 040 150 141
    003770  aa  163 040 142 145
    003771  aa  145 156 040 144
    003772  aa  145 154 145 164
    003773  aa  145 144 056 000

                                   463
                                   464  ec fm_bad_inc_info_ver,badiiv,
                                   465  	(The data management fm_increment_info structure version is bad.)
                        000172          	segdef  fm_bad_inc_info_ver
    000172  a0   077777 003776
    003774  aa  142 141 144 151         	aci  "badiiv",8
    003775  aa  151 166 040 040
    003776  aa  077 124 150 145         	acc  "The data management fm_increment_info structure version is bad."
    003777  aa  040 144 141 164
    004000  aa  141 040 155 141
    004001  aa  156 141 147 145
    004002  aa  155 145 156 164
    004003  aa  040 146 155 137
    004004  aa  151 156 143 162
    004005  aa  145 155 145 156
    004006  aa  164 137 151 156
    004007  aa  146 157 040 163
    004010  aa  164 162 165 143
    004011  aa  164 165 162 145
    004012  aa  040 166 145 162
    004013  aa  163 151 157 156
    004014  aa  040 151 163 040
    004015  aa  142 141 144 056

                                   466
                                   467  ec fm_bad_postcommit_operation,badpcop,
                                   468            (A data management file postcommit handler contains an unsupported operation.)
                        000173          	segdef  fm_bad_postcommit_operation
    000173  a0   077777 004020
    004016  aa  142 141 144 160         	aci  "badpcop",8
    004017  aa  143 157 160 040
    004020  aa  114 101 040 144         	acc  "A data management file postcommit handler contains an unsupported operation."
    004021  aa  141 164 141 040
    004022  aa  155 141 156 141
    004023  aa  147 145 155 145
    004024  aa  156 164 040 146
    004025  aa  151 154 145 040
    004026  aa  160 157 163 164
    004027  aa  143 157 155 155
    004030  aa  151 164 040 150
    004031  aa  141 156 144 154
    004032  aa  145 162 040 143
    004033  aa  157 156 164 141
    004034  aa  151 156 163 040
    004035  aa  141 156 040 165
    004036  aa  156 163 165 160
    004037  aa  160 157 162 164
    004040  aa  145 144 040 157
    004041  aa  160 145 162 141
    004042  aa  164 151 157 156
    004043  aa  056 000 000 000

                                   469
                                   470  ec fm_bad_proc_txn_tbl_ver,fmbdpttv,
                                   471  	(The data management file perprocess transaction table version is incorrect.)
                        000174          	segdef  fm_bad_proc_txn_tbl_ver
    000174  a0   077777 004046
    004044  aa  146 155 142 144         	aci  "fmbdpttv",8
    004045  aa  160 164 164 166
    004046  aa  113 124 150 145         	acc  "The data management file perprocess transaction table version is incorrect."
    004047  aa  040 144 141 164
    004050  aa  141 040 155 141
    004051  aa  156 141 147 145
    004052  aa  155 145 156 164
    004053  aa  040 146 151 154
    004054  aa  145 040 160 145
    004055  aa  162 160 162 157
    004056  aa  143 145 163 163
    004057  aa  040 164 162 141
    004060  aa  156 163 141 143
    004061  aa  164 151 157 156
    004062  aa  040 164 141 142
    004063  aa  154 145 040 166
    004064  aa  145 162 163 151
    004065  aa  157 156 040 151
    004066  aa  163 040 151 156
    004067  aa  143 157 162 162
    004070  aa  145 143 164 056

                                   472
                                   473  ec fm_bad_sys_pn_tbl_ver,fmbdsptv,
                                   474  	(The version of the data management file system uid-pathname table is incorrect.)
                        000175          	segdef  fm_bad_sys_pn_tbl_ver
    000175  a0   077777 004073
    004071  aa  146 155 142 144         	aci  "fmbdsptv",8
    004072  aa  163 160 164 166
    004073  aa  117 124 150 145         	acc  "The version of the data management file system uid-pathname table is incorrect."
    004074  aa  040 166 145 162
    004075  aa  163 151 157 156
    004076  aa  040 157 146 040
    004077  aa  164 150 145 040
    004100  aa  144 141 164 141
    004101  aa  040 155 141 156
    004102  aa  141 147 145 155
    004103  aa  145 156 164 040
    004104  aa  146 151 154 145
    004105  aa  040 163 171 163
    004106  aa  164 145 155 040
    004107  aa  165 151 144 055
    004110  aa  160 141 164 150
    004111  aa  156 141 155 145
    004112  aa  040 164 141 142
    004113  aa  154 145 040 151
    004114  aa  163 040 151 156
    004115  aa  143 157 162 162
    004116  aa  145 143 164 056

                                   475
                                   476  ec fm_bad_undo_op,badrbop,
                                   477            (A data management file rollback handler contains an unsupported operation.)
                        000176          	segdef  fm_bad_undo_op
    000176  a0   077777 004121
    004117  aa  142 141 144 162         	aci  "badrbop",8
    004120  aa  142 157 160 040
    004121  aa  112 101 040 144         	acc  "A data management file rollback handler contains an unsupported operation."
    004122  aa  141 164 141 040
    004123  aa  155 141 156 141
    004124  aa  147 145 155 145
    004125  aa  156 164 040 146
    004126  aa  151 154 145 040
    004127  aa  162 157 154 154
    004130  aa  142 141 143 153
    004131  aa  040 150 141 156
    004132  aa  144 154 145 162
    004133  aa  040 143 157 156
    004134  aa  164 141 151 156
    004135  aa  163 040 141 156
    004136  aa  040 165 156 163
    004137  aa  165 160 160 157
    004140  aa  162 164 145 144
    004141  aa  040 157 160 145
    004142  aa  162 141 164 151
    004143  aa  157 156 056 000

                                   478
                                   479  ec fm_cant_free_ci_0,fmctfrc0,
                                   480  	(Control interval zero of a data management file can not be freed.)
                        000177          	segdef  fm_cant_free_ci_0
    000177  a0   077777 004146
    004144  aa  146 155 143 164         	aci  "fmctfrc0",8
    004145  aa  146 162 143 060
    004146  aa  101 103 157 156         	acc  "Control interval zero of a data management file can not be freed."
    004147  aa  164 162 157 154
    004150  aa  040 151 156 164
    004151  aa  145 162 166 141
    004152  aa  154 040 172 145
    004153  aa  162 157 040 157
    004154  aa  146 040 141 040
    004155  aa  144 141 164 141
    004156  aa  040 155 141 156
    004157  aa  141 147 145 155
    004160  aa  145 156 164 040
    004161  aa  146 151 154 145
    004162  aa  040 143 141 156
    004163  aa  040 156 157 164
    004164  aa  040 142 145 040
    004165  aa  146 162 145 145
    004166  aa  144 056 000 000

                                   481
                                   482  ec fm_cant_remove_name,fmctrmnm,
                                   483  	(Names cannot be removed from DM files.)
                        000200          	segdef  fm_cant_remove_name
    000200  a0   077777 004171
    004167  aa  146 155 143 164         	aci  "fmctrmnm",8
    004170  aa  162 155 156 155
    004171  aa  046 116 141 155         	acc  "Names cannot be removed from DM files."
    004172  aa  145 163 040 143
    004173  aa  141 156 156 157
    004174  aa  164 040 142 145
    004175  aa  040 162 145 155
    004176  aa  157 166 145 144
    004177  aa  040 146 162 157
    004200  aa  155 040 104 115
    004201  aa  040 146 151 154
    004202  aa  145 163 056 000

                                   484
                                   485  ec fm_first_ci_neg,fmfrcing,
                                   486  	(The argument specifying the first in a range of control intervals was negative.)
                        000201          	segdef  fm_first_ci_neg
    000201  a0   077777 004205
    004203  aa  146 155 146 162         	aci  "fmfrcing",8
    004204  aa  143 151 156 147
    004205  aa  117 124 150 145         	acc  "The argument specifying the first in a range of control intervals was negative."
    004206  aa  040 141 162 147
    004207  aa  165 155 145 156
    004210  aa  164 040 163 160
    004211  aa  145 143 151 146
    004212  aa  171 151 156 147
    004213  aa  040 164 150 145
    004214  aa  040 146 151 162
    004215  aa  163 164 040 151
    004216  aa  156 040 141 040
    004217  aa  162 141 156 147
    004220  aa  145 040 157 146
    004221  aa  040 143 157 156
    004222  aa  164 162 157 154
    004223  aa  040 151 156 164
    004224  aa  145 162 166 141
    004225  aa  154 163 040 167
    004226  aa  141 163 040 156
    004227  aa  145 147 141 164
    004230  aa  151 166 145 056

                                   487
                                   488  ec fm_num_ci_neg,fmncineg,
                                   489  	(The specified the number of control intervals in a range was negative.)
                        000202          	segdef  fm_num_ci_neg
    000202  a0   077777 004233
    004231  aa  146 155 156 143         	aci  "fmncineg",8
    004232  aa  151 156 145 147
    004233  aa  106 124 150 145         	acc  "The specified the number of control intervals in a range was negative."
    004234  aa  040 163 160 145
    004235  aa  143 151 146 151
    004236  aa  145 144 040 164
    004237  aa  150 145 040 156
    004240  aa  165 155 142 145
    004241  aa  162 040 157 146
    004242  aa  040 143 157 156
    004243  aa  164 162 157 154
    004244  aa  040 151 156 164
    004245  aa  145 162 166 141
    004246  aa  154 163 040 151
    004247  aa  156 040 141 040
    004250  aa  162 141 156 147
    004251  aa  145 040 167 141
    004252  aa  163 040 156 145
    004253  aa  147 141 164 151
    004254  aa  166 145 056 000

                                   490
                                   491  ec fm_old_txn_not_flushed,fmotxnfl,
                                   492  	(The modified control intervals from the last transaction were not flushed.)
                        000203          	segdef  fm_old_txn_not_flushed
    000203  a0   077777 004257
    004255  aa  146 155 157 164         	aci  "fmotxnfl",8
    004256  aa  170 156 146 154
    004257  aa  112 124 150 145         	acc  "The modified control intervals from the last transaction were not flushed."
    004260  aa  040 155 157 144
    004261  aa  151 146 151 145
    004262  aa  144 040 143 157
    004263  aa  156 164 162 157
    004264  aa  154 040 151 156
    004265  aa  164 145 162 166
    004266  aa  141 154 163 040
    004267  aa  146 162 157 155
    004270  aa  040 164 150 145
    004271  aa  040 154 141 163
    004272  aa  164 040 164 162
    004273  aa  141 156 163 141
    004274  aa  143 164 151 157
    004275  aa  156 040 167 145
    004276  aa  162 145 040 156
    004277  aa  157 164 040 146
    004300  aa  154 165 163 150
    004301  aa  145 144 056 000

                                   493
                                   494  ec fm_old_uidpn_ptr_null,fmoupnpn,
                                   495  	(The pointer to the old uid-pathname table is not set.)
                        000204          	segdef  fm_old_uidpn_ptr_null
    000204  a0   077777 004304
    004302  aa  146 155 157 165         	aci  "fmoupnpn",8
    004303  aa  160 156 160 156
    004304  aa  065 124 150 145         	acc  "The pointer to the old uid-pathname table is not set."
    004305  aa  040 160 157 151
    004306  aa  156 164 145 162
    004307  aa  040 164 157 040
    004310  aa  164 150 145 040
    004311  aa  157 154 144 040
    004312  aa  165 151 144 055
    004313  aa  160 141 164 150
    004314  aa  156 141 155 145
    004315  aa  040 164 141 142
    004316  aa  154 145 040 151
    004317  aa  163 040 156 157
    004320  aa  164 040 163 145
    004321  aa  164 056 000 000

                                   496
                                   497  ec fm_proc_tbl_full,fmptfull,
                                   498  	(This process can not open another data management file because its table is full.)
                        000205          	segdef  fm_proc_tbl_full
    000205  a0   077777 004324
    004322  aa  146 155 160 164         	aci  "fmptfull",8
    004323  aa  146 165 154 154
    004324  aa  121 124 150 151         	acc  "This process can not open another data management file because its table is full."
    004325  aa  163 040 160 162
    004326  aa  157 143 145 163
    004327  aa  163 040 143 141
    004330  aa  156 040 156 157
    004331  aa  164 040 157 160
    004332  aa  145 156 040 141
    004333  aa  156 157 164 150
    004334  aa  145 162 040 144
    004335  aa  141 164 141 040
    004336  aa  155 141 156 141
    004337  aa  147 145 155 145
    004340  aa  156 164 040 146
    004341  aa  151 154 145 040
    004342  aa  142 145 143 141
    004343  aa  165 163 145 040
    004344  aa  151 164 163 040
    004345  aa  164 141 142 154
    004346  aa  145 040 151 163
    004347  aa  040 146 165 154
    004350  aa  154 056 000 000

                                   499
                                   500  ec fm_sys_pn_tbl_full,fmsptful,
                                   501  	(The data management-file system uid-pathname table is full.)
                        000206          	segdef  fm_sys_pn_tbl_full
    000206  a0   077777 004353
    004351  aa  146 155 163 160         	aci  "fmsptful",8
    004352  aa  164 146 165 154
    004353  aa  073 124 150 145         	acc  "The data management-file system uid-pathname table is full."
    004354  aa  040 144 141 164
    004355  aa  141 040 155 141
    004356  aa  156 141 147 145
    004357  aa  155 145 156 164
    004360  aa  055 146 151 154
    004361  aa  145 040 163 171
    004362  aa  163 164 145 155
    004363  aa  040 165 151 144
    004364  aa  055 160 141 164
    004365  aa  150 156 141 155
    004366  aa  145 040 164 141
    004367  aa  142 154 145 040
    004370  aa  151 163 040 146
    004371  aa  165 154 154 056

                                   502
                                   503  ec fm_sys_pne_clobbered,fmspnecb,
                                   504  	(An entry in the data management file system uid-pathname table looks damaged.)
                        000207          	segdef  fm_sys_pne_clobbered
    000207  a0   077777 004374
    004372  aa  146 155 163 160         	aci  "fmspnecb",8
    004373  aa  156 145 143 142
    004374  aa  115 101 156 040         	acc  "An entry in the data management file system uid-pathname table looks damaged."
    004375  aa  145 156 164 162
    004376  aa  171 040 151 156
    004377  aa  040 164 150 145
    004400  aa  040 144 141 164
    004401  aa  141 040 155 141
    004402  aa  156 141 147 145
    004403  aa  155 145 156 164
    004404  aa  040 146 151 154
    004405  aa  145 040 163 171
    004406  aa  163 164 145 155
    004407  aa  040 165 151 144
    004410  aa  055 160 141 164
    004411  aa  150 156 141 155
    004412  aa  145 040 164 141
    004413  aa  142 154 145 040
    004414  aa  154 157 157 153
    004415  aa  163 040 144 141
    004416  aa  155 141 147 145
    004417  aa  144 056 000 000

                                   505
                                   506  ec fm_too_many_openings,fmopnoob,
                                   507            (A data management file has been opened the maximum number of times for this process.)
                        000210          	segdef  fm_too_many_openings
    000210  a0   077777 004422
    004420  aa  146 155 157 160         	aci  "fmopnoob",8
    004421  aa  156 157 157 142
    004422  aa  124 101 040 144         	acc  "A data management file has been opened the maximum number of times for this process."
    004423  aa  141 164 141 040
    004424  aa  155 141 156 141
    004425  aa  147 145 155 145
    004426  aa  156 164 040 146
    004427  aa  151 154 145 040
    004430  aa  150 141 163 040
    004431  aa  142 145 145 156
    004432  aa  040 157 160 145
    004433  aa  156 145 144 040
    004434  aa  164 150 145 040
    004435  aa  155 141 170 151
    004436  aa  155 165 155 040
    004437  aa  156 165 155 142
    004440  aa  145 162 040 157
    004441  aa  146 040 164 151
    004442  aa  155 145 163 040
    004443  aa  146 157 162 040
    004444  aa  164 150 151 163
    004445  aa  040 160 162 157
    004446  aa  143 145 163 163
    004447  aa  056 000 000 000

                                   508
                                   509  ec fm_uid_fnd_wrong_file,fmuidfwf,
                                   510  	(An attempt to open a data management file by its UID opened the wrong file.)
                        000211          	segdef  fm_uid_fnd_wrong_file
    000211  a0   077777 004452
    004450  aa  146 155 165 151         	aci  "fmuidfwf",8
    004451  aa  144 146 167 146
    004452  aa  113 101 156 040         	acc  "An attempt to open a data management file by its UID opened the wrong file."
    004453  aa  141 164 164 145
    004454  aa  155 160 164 040
    004455  aa  164 157 040 157
    004456  aa  160 145 156 040
    004457  aa  141 040 144 141
    004460  aa  164 141 040 155
    004461  aa  141 156 141 147
    004462  aa  145 155 145 156
    004463  aa  164 040 146 151
    004464  aa  154 145 040 142
    004465  aa  171 040 151 164
    004466  aa  163 040 125 111
    004467  aa  104 040 157 160
    004470  aa  145 156 145 144
    004471  aa  040 164 150 145
    004472  aa  040 167 162 157
    004473  aa  156 147 040 146
    004474  aa  151 154 145 056

                                   511
                                   512  ec fm_word_increment_error,fmwrdinc,
                                   513  	(Unable to increment a data management file word value after several attempts.)
                        000212          	segdef  fm_word_increment_error
    000212  a0   077777 004477
    004475  aa  146 155 167 162         	aci  "fmwrdinc",8
    004476  aa  144 151 156 143
    004477  aa  115 125 156 141         	acc  "Unable to increment a data management file word value after several attempts."
    004500  aa  142 154 145 040
    004501  aa  164 157 040 151
    004502  aa  156 143 162 145
    004503  aa  155 145 156 164
    004504  aa  040 141 040 144
    004505  aa  141 164 141 040
    004506  aa  155 141 156 141
    004507  aa  147 145 155 145
    004510  aa  156 164 040 146
    004511  aa  151 154 145 040
    004512  aa  167 157 162 144
    004513  aa  040 166 141 154
    004514  aa  165 145 040 141
    004515  aa  146 164 145 162
    004516  aa  040 163 145 166
    004517  aa  145 162 141 154
    004520  aa  040 141 164 164
    004521  aa  145 155 160 164
    004522  aa  163 056 000 000

                                   514
                                   515  ec fm_xring_brackets_mismatch,fmbadxrb,
                                   516            (The data management file's ring brackets do not match their encoded form.)
                        000213          	segdef  fm_xring_brackets_mismatch
    000213  a0   077777 004525
    004523  aa  146 155 142 141         	aci  "fmbadxrb",8
    004524  aa  144 170 162 142
    004525  aa  111 124 150 145         	acc  "The data management file's ring brackets do not match their encoded form."
    004526  aa  040 144 141 164
    004527  aa  141 040 155 141
    004530  aa  156 141 147 145
    004531  aa  155 145 156 164
    004532  aa  040 146 151 154
    004533  aa  145 047 163 040
    004534  aa  162 151 156 147
    004535  aa  040 142 162 141
    004536  aa  143 153 145 164
    004537  aa  163 040 144 157
    004540  aa  040 156 157 164
    004541  aa  040 155 141 164
    004542  aa  143 150 040 164
    004543  aa  150 145 151 162
    004544  aa  040 145 156 143
    004545  aa  157 144 145 144
    004546  aa  040 146 157 162
    004547  aa  155 056 000 000

                                   517
                                   518  ec incr_array_not_found,incanfnd,
                                   519            (The key count array containing the increments array could not be found at postcommit time.)
                        000214          	segdef  incr_array_not_found
    000214  a0   077777 004552
    004550  aa  151 156 143 141         	aci  "incanfnd",8
    004551  aa  156 146 156 144
    004552  aa  132 124 150 145         	acc  "The key count array containing the increments array could not be found at postcommit time."
    004553  aa  040 153 145 171
    004554  aa  040 143 157 165
    004555  aa  156 164 040 141
    004556  aa  162 162 141 171
    004557  aa  040 143 157 156
    004560  aa  164 141 151 156
    004561  aa  151 156 147 040
    004562  aa  164 150 145 040
    004563  aa  151 156 143 162
    004564  aa  145 155 145 156
    004565  aa  164 163 040 141
    004566  aa  162 162 141 171
    004567  aa  040 143 157 165
    004570  aa  154 144 040 156
    004571  aa  157 164 040 142
    004572  aa  145 040 146 157
    004573  aa  165 156 144 040
    004574  aa  141 164 040 160
    004575  aa  157 163 164 143
    004576  aa  157 155 155 151
    004577  aa  164 040 164 151
    004600  aa  155 145 056 000

                                   520
                                   521  ec index_not_in_relation,idxnirel,
                                   522  	(The specified index is not in the relation.)
                        000215          	segdef  index_not_in_relation
    000215  a0   077777 004603
    004601  aa  151 144 170 156         	aci  "idxnirel",8
    004602  aa  151 162 145 154
    004603  aa  053 124 150 145         	acc  "The specified index is not in the relation."
    004604  aa  040 163 160 145
    004605  aa  143 151 146 151
    004606  aa  145 144 040 151
    004607  aa  156 144 145 170
    004610  aa  040 151 163 040
    004611  aa  156 157 164 040
    004612  aa  151 156 040 164
    004613  aa  150 145 040 162
    004614  aa  145 154 141 164
    004615  aa  151 157 156 056

                                   523
                                   524  ec invalid_alignment,invalign,
                                   525  	(The specified alignment is inconsistent with the specified data type.)
                        000216          	segdef  invalid_alignment
    000216  a0   077777 004620
    004616  aa  151 156 166 141         	aci  "invalign",8
    004617  aa  154 151 147 156
    004620  aa  105 124 150 145         	acc  "The specified alignment is inconsistent with the specified data type."
    004621  aa  040 163 160 145
    004622  aa  143 151 146 151
    004623  aa  145 144 040 141
    004624  aa  154 151 147 156
    004625  aa  155 145 156 164
    004626  aa  040 151 163 040
    004627  aa  151 156 143 157
    004630  aa  156 163 151 163
    004631  aa  164 145 156 164
    004632  aa  040 167 151 164
    004633  aa  150 040 164 150
    004634  aa  145 040 163 160
    004635  aa  145 143 151 146
    004636  aa  151 145 144 040
    004637  aa  144 141 164 141
    004640  aa  040 164 171 160
    004641  aa  145 056 000 000

                                   526
                                   527  ec invalid_current_txn,invctxn,
                                   528  	(The information about the current transaction for this process is invalid.)
                        000217          	segdef  invalid_current_txn
    000217  a0   077777 004644
    004642  aa  151 156 166 143         	aci  "invctxn",8
    004643  aa  164 170 156 040
    004644  aa  112 124 150 145         	acc  "The information about the current transaction for this process is invalid."
    004645  aa  040 151 156 146
    004646  aa  157 162 155 141
    004647  aa  164 151 157 156
    004650  aa  040 141 142 157
    004651  aa  165 164 040 164
    004652  aa  150 145 040 143
    004653  aa  165 162 162 145
    004654  aa  156 164 040 164
    004655  aa  162 141 156 163
    004656  aa  141 143 164 151
    004657  aa  157 156 040 146
    004660  aa  157 162 040 164
    004661  aa  150 151 163 040
    004662  aa  160 162 157 143
    004663  aa  145 163 163 040
    004664  aa  151 163 040 151
    004665  aa  156 166 141 154
    004666  aa  151 144 056 000

                                   529
                                   530  ec invalid_cursor_position,invcpos,
                                   531  	(The cursor does not have a valid current position.)
                        000220          	segdef  invalid_cursor_position
    000220  a0   077777 004671
    004667  aa  151 156 166 143         	aci  "invcpos",8
    004670  aa  160 157 163 040
    004671  aa  062 124 150 145         	acc  "The cursor does not have a valid current position."
    004672  aa  040 143 165 162
    004673  aa  163 157 162 040
    004674  aa  144 157 145 163
    004675  aa  040 156 157 164
    004676  aa  040 150 141 166
    004677  aa  145 040 141 040
    004700  aa  166 141 154 151
    004701  aa  144 040 143 165
    004702  aa  162 162 145 156
    004703  aa  164 040 160 157
    004704  aa  163 151 164 151
    004705  aa  157 156 056 000

                                   532
                                   533  ec invalid_element_id,inveid,
                                   534  	(The requested element ID does not correspond to an existing element.)
                        000221          	segdef  invalid_element_id
    000221  a0   077777 004710
    004706  aa  151 156 166 145         	aci  "inveid",8
    004707  aa  151 144 040 040
    004710  aa  104 124 150 145         	acc  "The requested element ID does not correspond to an existing element."
    004711  aa  040 162 145 161
    004712  aa  165 145 163 164
    004713  aa  145 144 040 145
    004714  aa  154 145 155 145
    004715  aa  156 164 040 111
    004716  aa  104 040 144 157
    004717  aa  145 163 040 156
    004720  aa  157 164 040 143
    004721  aa  157 162 162 145
    004722  aa  163 160 157 156
    004723  aa  144 040 164 157
    004724  aa  040 141 156 040
    004725  aa  145 170 151 163
    004726  aa  164 151 156 147
    004727  aa  040 145 154 145
    004730  aa  155 145 156 164
    004731  aa  056 000 000 000

                                   535
                                   536  ec invalid_increment_offset,invioff,
                                   537  	(The offset to the first word to be incremented cannot be less than 0.)
                        000222          	segdef  invalid_increment_offset
    000222  a0   077777 004734
    004732  aa  151 156 166 151         	aci  "invioff",8
    004733  aa  157 146 146 040
    004734  aa  105 124 150 145         	acc  "The offset to the first word to be incremented cannot be less than 0."
    004735  aa  040 157 146 146
    004736  aa  163 145 164 040
    004737  aa  164 157 040 164
    004740  aa  150 145 040 146
    004741  aa  151 162 163 164
    004742  aa  040 167 157 162
    004743  aa  144 040 164 157
    004744  aa  040 142 145 040
    004745  aa  151 156 143 162
    004746  aa  145 155 145 156
    004747  aa  164 145 144 040
    004750  aa  143 141 156 156
    004751  aa  157 164 040 142
    004752  aa  145 040 154 145
    004753  aa  163 163 040 164
    004754  aa  150 141 156 040
    004755  aa  060 056 000 000

                                   538
                                   539  ec invalid_increment_words,inviwrds,
                                   540  	(There number of words to be incremented must be at least one.)
                        000223          	segdef  invalid_increment_words
    000223  a0   077777 004760
    004756  aa  151 156 166 151         	aci  "inviwrds",8
    004757  aa  167 162 144 163
    004760  aa  075 124 150 145         	acc  "There number of words to be incremented must be at least one."
    004761  aa  162 145 040 156
    004762  aa  165 155 142 145
    004763  aa  162 040 157 146
    004764  aa  040 167 157 162
    004765  aa  144 163 040 164
    004766  aa  157 040 142 145
    004767  aa  040 151 156 143
    004770  aa  162 145 155 145
    004771  aa  156 164 145 144
    004772  aa  040 155 165 163
    004773  aa  164 040 142 145
    004774  aa  040 141 164 040
    004775  aa  154 145 141 163
    004776  aa  164 040 157 156
    004777  aa  145 056 000 000

                                   541
                                   542  ec invalid_mode,invmode,
                                   543  	(The specified mode is invalid.)
                        000224          	segdef  invalid_mode
    000224  a0   077777 005002
    005000  aa  151 156 166 155         	aci  "invmode",8
    005001  aa  157 144 145 040
    005002  aa  036 124 150 145         	acc  "The specified mode is invalid."
    005003  aa  040 163 160 145
    005004  aa  143 151 146 151
    005005  aa  145 144 040 155
    005006  aa  157 144 145 040
    005007  aa  151 163 040 151
    005010  aa  156 166 141 154
    005011  aa  151 144 056 000

                                   544
                                   545  ec invalid_scope,invscope,
                                   546  	(The specified scope setting is invalid.)
                        000225          	segdef  invalid_scope
    000225  a0   077777 005014
    005012  aa  151 156 166 163         	aci  "invscope",8
    005013  aa  143 157 160 145
    005014  aa  047 124 150 145         	acc  "The specified scope setting is invalid."
    005015  aa  040 163 160 145
    005016  aa  143 151 146 151
    005017  aa  145 144 040 163
    005020  aa  143 157 160 145
    005021  aa  040 163 145 164
    005022  aa  164 151 156 147
    005023  aa  040 151 163 040
    005024  aa  151 156 166 141
    005025  aa  154 151 144 056

                                   547
                                   548  ec invalid_specification_field,invspfd,
                                   549  	(A field specified in the search specification does not exist in the relation.)
                        000226          	segdef  invalid_specification_field
    000226  a0   077777 005030
    005026  aa  151 156 166 163         	aci  "invspfd",8
    005027  aa  160 146 144 040
    005030  aa  115 101 040 146         	acc  "A field specified in the search specification does not exist in the relation."
    005031  aa  151 145 154 144
    005032  aa  040 163 160 145
    005033  aa  143 151 146 151
    005034  aa  145 144 040 151
    005035  aa  156 040 164 150
    005036  aa  145 040 163 145
    005037  aa  141 162 143 150
    005040  aa  040 163 160 145
    005041  aa  143 151 146 151
    005042  aa  143 141 164 151
    005043  aa  157 156 040 144
    005044  aa  157 145 163 040
    005045  aa  156 157 164 040
    005046  aa  145 170 151 163
    005047  aa  164 040 151 156
    005050  aa  040 164 150 145
    005051  aa  040 162 145 154
    005052  aa  141 164 151 157
    005053  aa  156 056 000 000

                                   550
                                   551  ec key_duplication,keydup,
                                   552  	(A key was duplicated.)
                        000227          	segdef  key_duplication
    000227  a0   077777 005056
    005054  aa  153 145 171 144         	aci  "keydup",8
    005055  aa  165 160 040 040
    005056  aa  025 101 040 153         	acc  "A key was duplicated."
    005057  aa  145 171 040 167
    005060  aa  141 163 040 144
    005061  aa  165 160 154 151
    005062  aa  143 141 164 145
    005063  aa  144 056 000 000

                                   553
                                   554  ec key_not_found,nokey,
                                   555  	(No key was found.)
                        000230          	segdef  key_not_found
    000230  a0   077777 005066
    005064  aa  156 157 153 145         	aci  "nokey",8
    005065  aa  171 040 040 040
    005066  aa  021 116 157 040         	acc  "No key was found."
    005067  aa  153 145 171 040
    005070  aa  167 141 163 040
    005071  aa  146 157 165 156
    005072  aa  144 056 000 000

                                   556
                                   557  ec keys_out_of_order,keyooo,
                                   558  	(Keys in the index are not in the correct order.)
                        000231          	segdef  keys_out_of_order
    000231  a0   077777 005075
    005073  aa  153 145 171 157         	aci  "keyooo",8
    005074  aa  157 157 040 040
    005075  aa  057 113 145 171         	acc  "Keys in the index are not in the correct order."
    005076  aa  163 040 151 156
    005077  aa  040 164 150 145
    005100  aa  040 151 156 144
    005101  aa  145 170 040 141
    005102  aa  162 145 040 156
    005103  aa  157 164 040 151
    005104  aa  156 040 164 150
    005105  aa  145 040 143 157
    005106  aa  162 162 145 143
    005107  aa  164 040 157 162
    005110  aa  144 145 162 056

                                   559
                                   560  ec lock_deadlock,lkdead,
                                   561  	(Waiting for the lock would cause a deadlock.)
                        000232          	segdef  lock_deadlock
    000232  a0   077777 005113
    005111  aa  154 153 144 145         	aci  "lkdead",8
    005112  aa  141 144 040 040
    005113  aa  054 127 141 151         	acc  "Waiting for the lock would cause a deadlock."
    005114  aa  164 151 156 147
    005115  aa  040 146 157 162
    005116  aa  040 164 150 145
    005117  aa  040 154 157 143
    005120  aa  153 040 167 157
    005121  aa  165 154 144 040
    005122  aa  143 141 165 163
    005123  aa  145 040 141 040
    005124  aa  144 145 141 144
    005125  aa  154 157 143 153
    005126  aa  056 000 000 000

                                   562
                                   563  ec lock_invalid_mode,lkinvmd,
                                   564  	(The lock mode requested is not valid.)
                        000233          	segdef  lock_invalid_mode
    000233  a0   077777 005131
    005127  aa  154 153 151 156         	aci  "lkinvmd",8
    005130  aa  166 155 144 040
    005131  aa  045 124 150 145         	acc  "The lock mode requested is not valid."
    005132  aa  040 154 157 143
    005133  aa  153 040 155 157
    005134  aa  144 145 040 162
    005135  aa  145 161 165 145
    005136  aa  163 164 145 144
    005137  aa  040 151 163 040
    005140  aa  156 157 164 040
    005141  aa  166 141 154 151
    005142  aa  144 056 000 000

                                   565
                                   566  ec lock_invalid_uid,lkinvuid,
                                   567  	(The unique identifier supplied is not valid.)
                        000234          	segdef  lock_invalid_uid
    000234  a0   077777 005145
    005143  aa  154 153 151 156         	aci  "lkinvuid",8
    005144  aa  166 165 151 144
    005145  aa  054 124 150 145         	acc  "The unique identifier supplied is not valid."
    005146  aa  040 165 156 151
    005147  aa  161 165 145 040
    005150  aa  151 144 145 156
    005151  aa  164 151 146 151
    005152  aa  145 162 040 163
    005153  aa  165 160 160 154
    005154  aa  151 145 144 040
    005155  aa  151 163 040 156
    005156  aa  157 164 040 166
    005157  aa  141 154 151 144
    005160  aa  056 000 000 000

                                   568
                                   569  ec lock_not_found,lkntfnd,
                                   570  	(The lock is not locked.)
                        000235          	segdef  lock_not_found
    000235  a0   077777 005163
    005161  aa  154 153 156 164         	aci  "lkntfnd",8
    005162  aa  146 156 144 040
    005163  aa  027 124 150 145         	acc  "The lock is not locked."
    005164  aa  040 154 157 143
    005165  aa  153 040 151 163
    005166  aa  040 156 157 164
    005167  aa  040 154 157 143
    005170  aa  153 145 144 056

                                   571
                                   572  ec lock_process_active,lkpract,
                                   573  	(The specified process is an active process.)
                        000236          	segdef  lock_process_active
    000236  a0   077777 005173
    005171  aa  154 153 160 162         	aci  "lkpract",8
    005172  aa  141 143 164 040
    005173  aa  053 124 150 145         	acc  "The specified process is an active process."
    005174  aa  040 163 160 145
    005175  aa  143 151 146 151
    005176  aa  145 144 040 160
    005177  aa  162 157 143 145
    005200  aa  163 163 040 151
    005201  aa  163 040 141 156
    005202  aa  040 141 143 164
    005203  aa  151 166 145 040
    005204  aa  160 162 157 143
    005205  aa  145 163 163 056

                                   574
                                   575  ec lock_table_overflow,lktbov,
                                   576  	(A lock table overflowed.)
                        000237          	segdef  lock_table_overflow
    000237  a0   077777 005210
    005206  aa  154 153 164 142         	aci  "lktbov",8
    005207  aa  157 166 040 040
    005210  aa  030 101 040 154         	acc  "A lock table overflowed."
    005211  aa  157 143 153 040
    005212  aa  164 141 142 154
    005213  aa  145 040 157 166
    005214  aa  145 162 146 154
    005215  aa  157 167 145 144
    005216  aa  056 000 000 000

                                   577
                                   578  ec lock_timeout,lktmot,
                                   579  	(The lock could not be obtained in the time specified.)
                        000240          	segdef  lock_timeout
    000240  a0   077777 005221
    005217  aa  154 153 164 155         	aci  "lktmot",8
    005220  aa  157 164 040 040
    005221  aa  065 124 150 145         	acc  "The lock could not be obtained in the time specified."
    005222  aa  040 154 157 143
    005223  aa  153 040 143 157
    005224  aa  165 154 144 040
    005225  aa  156 157 164 040
    005226  aa  142 145 040 157
    005227  aa  142 164 141 151
    005230  aa  156 145 144 040
    005231  aa  151 156 040 164
    005232  aa  150 145 040 164
    005233  aa  151 155 145 040
    005234  aa  163 160 145 143
    005235  aa  151 146 151 145
    005236  aa  144 056 000 000

                                   580
                                   581  ec long_element,lgelem,
                                   582  	(More space is needed in the specified control interval to store the element.)
                        000241          	segdef  long_element
    000241  a0   077777 005241
    005237  aa  154 147 145 154         	aci  "lgelem",8
    005240  aa  145 155 040 040
    005241  aa  114 115 157 162         	acc  "More space is needed in the specified control interval to store the element."
    005242  aa  145 040 163 160
    005243  aa  141 143 145 040
    005244  aa  151 163 040 156
    005245  aa  145 145 144 145
    005246  aa  144 040 151 156
    005247  aa  040 164 150 145
    005250  aa  040 163 160 145
    005251  aa  143 151 146 151
    005252  aa  145 144 040 143
    005253  aa  157 156 164 162
    005254  aa  157 154 040 151
    005255  aa  156 164 145 162
    005256  aa  166 141 154 040
    005257  aa  164 157 040 163
    005260  aa  164 157 162 145
    005261  aa  040 164 150 145
    005262  aa  040 145 154 145
    005263  aa  155 145 156 164
    005264  aa  056 000 000 000

                                   583
                                   584  ec long_increment_length,lginclen,
                                   585  	(More words being incremented than exist in file element.)
                        000242          	segdef  long_increment_length
    000242  a0   077777 005267
    005265  aa  154 147 151 156         	aci  "lginclen",8
    005266  aa  143 154 145 156
    005267  aa  070 115 157 162         	acc  "More words being incremented than exist in file element."
    005270  aa  145 040 167 157
    005271  aa  162 144 163 040
    005272  aa  142 145 151 156
    005273  aa  147 040 151 156
    005274  aa  143 162 145 155
    005275  aa  145 156 164 145
    005276  aa  144 040 164 150
    005277  aa  141 156 040 145
    005300  aa  170 151 163 164
    005301  aa  040 151 156 040
    005302  aa  146 151 154 145
    005303  aa  040 145 154 145
    005304  aa  155 145 156 164
    005305  aa  056 000 000 000

                                   586
                                   587  ec long_return_element,lgrelem,
                                   588            (The element is too long to fit in the supplied output buffer.)
                        000243          	segdef  long_return_element
    000243  a0   077777 005310
    005306  aa  154 147 162 145         	aci  "lgrelem",8
    005307  aa  154 145 155 040
    005310  aa  075 124 150 145         	acc  "The element is too long to fit in the supplied output buffer."
    005311  aa  040 145 154 145
    005312  aa  155 145 156 164
    005313  aa  040 151 163 040
    005314  aa  164 157 157 040
    005315  aa  154 157 156 147
    005316  aa  040 164 157 040
    005317  aa  146 151 164 040
    005320  aa  151 156 040 164
    005321  aa  150 145 040 163
    005322  aa  165 160 160 154
    005323  aa  151 145 144 040
    005324  aa  157 165 164 160
    005325  aa  165 164 040 142
    005326  aa  165 146 146 145
    005327  aa  162 056 000 000

                                   589
                                   590  ec misformatted_ci,badci,
                                   591  	(The requested control interval is not formatted correctly.)
                        000244          	segdef  misformatted_ci
    000244  a0   077777 005332
    005330  aa  142 141 144 143         	aci  "badci",8
    005331  aa  151 040 040 040
    005332  aa  072 124 150 145         	acc  "The requested control interval is not formatted correctly."
    005333  aa  040 162 145 161
    005334  aa  165 145 163 164
    005335  aa  145 144 040 143
    005336  aa  157 156 164 162
    005337  aa  157 154 040 151
    005340  aa  156 164 145 162
    005341  aa  166 141 154 040
    005342  aa  151 163 040 156
    005343  aa  157 164 040 146
    005344  aa  157 162 155 141
    005345  aa  164 164 145 144
    005346  aa  040 143 157 162
    005347  aa  162 145 143 164
    005350  aa  154 171 056 000

                                   592
                                   593  ec no_begins,nobegins,
                                   594  	(No transactions can be begun.)
                        000245          	segdef  no_begins
    000245  a0   077777 005353
    005351  aa  156 157 142 145         	aci  "nobegins",8
    005352  aa  147 151 156 163
    005353  aa  035 116 157 040         	acc  "No transactions can be begun."
    005354  aa  164 162 141 156
    005355  aa  163 141 143 164
    005356  aa  151 157 156 163
    005357  aa  040 143 141 156
    005360  aa  040 142 145 040
    005361  aa  142 145 147 165
    005362  aa  156 056 000 000

                                   595
                                   596  ec no_current_transaction,nocurtxn,
                                   597  	(There is no current transaction.)
                        000246          	segdef  no_current_transaction
    000246  a0   077777 005365
    005363  aa  156 157 143 165         	aci  "nocurtxn",8
    005364  aa  162 164 170 156
    005365  aa  040 124 150 145         	acc  "There is no current transaction."
    005366  aa  162 145 040 151
    005367  aa  163 040 156 157
    005370  aa  040 143 165 162
    005371  aa  162 145 156 164
    005372  aa  040 164 162 141
    005373  aa  156 163 141 143
    005374  aa  164 151 157 156
    005375  aa  056 000 000 000

                                   598
                                   599  ec no_datum,nodatum,
                                   600            (No datum was found.)
                        000247          	segdef  no_datum
    000247  a0   077777 005400
    005376  aa  156 157 144 141         	aci  "nodatum",8
    005377  aa  164 165 155 040
    005400  aa  023 116 157 040         	acc  "No datum was found."
    005401  aa  144 141 164 165
    005402  aa  155 040 167 141
    005403  aa  163 040 146 157
    005404  aa  165 156 144 056

                                   601
                                   602  ec no_delete_dir_transaction,noddtxn,
                                   603            (The directory contains objects which cannot be deleted until the current transaction commits.)
                        000250          	segdef  no_delete_dir_transaction
    000250  a0   077777 005407
    005405  aa  156 157 144 144         	aci  "noddtxn",8
    005406  aa  164 170 156 040
    005407  aa  135 124 150 145         	acc  "The directory contains objects which cannot be deleted until the current transaction commits."
    005410  aa  040 144 151 162
    005411  aa  145 143 164 157
    005412  aa  162 171 040 143
    005413  aa  157 156 164 141
    005414  aa  151 156 163 040
    005415  aa  157 142 152 145
    005416  aa  143 164 163 040
    005417  aa  167 150 151 143
    005420  aa  150 040 143 141
    005421  aa  156 156 157 164
    005422  aa  040 142 145 040
    005423  aa  144 145 154 145
    005424  aa  164 145 144 040
    005425  aa  165 156 164 151
    005426  aa  154 040 164 150
    005427  aa  145 040 143 165
    005430  aa  162 162 145 156
    005431  aa  164 040 164 162
    005432  aa  141 156 163 141
    005433  aa  143 164 151 157
    005434  aa  156 040 143 157
    005435  aa  155 155 151 164
    005436  aa  163 056 000 000

                                   604
                                   605  ec no_header_record,nohdrrec,
                                   606            (The collection does not have a caller-defined header record.)
                        000251          	segdef  no_header_record
    000251  a0   077777 005441
    005437  aa  156 157 150 144         	aci  "nohdrrec",8
    005440  aa  162 162 145 143
    005441  aa  074 124 150 145         	acc  "The collection does not have a caller-defined header record."
    005442  aa  040 143 157 154
    005443  aa  154 145 143 164
    005444  aa  151 157 156 040
    005445  aa  144 157 145 163
    005446  aa  040 156 157 164
    005447  aa  040 150 141 166
    005450  aa  145 040 141 040
    005451  aa  143 141 154 154
    005452  aa  145 162 055 144
    005453  aa  145 146 151 156
    005454  aa  145 144 040 150
    005455  aa  145 141 144 145
    005456  aa  162 040 162 145
    005457  aa  143 157 162 144
    005460  aa  056 000 000 000

                                   607
                                   608  ec no_opening,noopen,
                                   609  	(The specified opening does not exist.)
                        000252          	segdef  no_opening
    000252  a0   077777 005463
    005461  aa  156 157 157 160         	aci  "noopen",8
    005462  aa  145 156 040 040
    005463  aa  045 124 150 145         	acc  "The specified opening does not exist."
    005464  aa  040 163 160 145
    005465  aa  143 151 146 151
    005466  aa  145 144 040 157
    005467  aa  160 145 156 151
    005470  aa  156 147 040 144
    005471  aa  157 145 163 040
    005472  aa  156 157 164 040
    005473  aa  145 170 151 163
    005474  aa  164 056 000 000

                                   610
                                   611  ec no_output_buffer,nobuff,
                                   612  	(No output buffer was supplied to return the requested data.)
                        000253          	segdef  no_output_buffer
    000253  a0   077777 005477
    005475  aa  156 157 142 165         	aci  "nobuff",8
    005476  aa  146 146 040 040
    005477  aa  073 116 157 040         	acc  "No output buffer was supplied to return the requested data."
    005500  aa  157 165 164 160
    005501  aa  165 164 040 142
    005502  aa  165 146 146 145
    005503  aa  162 040 167 141
    005504  aa  163 040 163 165
    005505  aa  160 160 154 151
    005506  aa  145 144 040 164
    005507  aa  157 040 162 145
    005510  aa  164 165 162 156
    005511  aa  040 164 150 145
    005512  aa  040 162 145 161
    005513  aa  165 145 163 164
    005514  aa  145 144 040 144
    005515  aa  141 164 141 056

                                   613
                                   614  ec no_suspended_transaction,nosustxn,
                                   615  	(There is no suspended transaction.)
                        000254          	segdef  no_suspended_transaction
    000254  a0   077777 005520
    005516  aa  156 157 163 165         	aci  "nosustxn",8
    005517  aa  163 164 170 156
    005520  aa  042 124 150 145         	acc  "There is no suspended transaction."
    005521  aa  162 145 040 151
    005522  aa  163 040 156 157
    005523  aa  040 163 165 163
    005524  aa  160 145 156 144
    005525  aa  145 144 040 164
    005526  aa  162 141 156 163
    005527  aa  141 143 164 151
    005530  aa  157 156 056 000

                                   616
                                   617  ec no_user_dm,nouserdm,
                                   618  	(Data Management is not initialized in this process.)
                        000255          	segdef  no_user_dm
    000255  a0   077777 005533
    005531  aa  156 157 165 163         	aci  "nouserdm",8
    005532  aa  145 162 144 155
    005533  aa  063 104 141 164         	acc  "Data Management is not initialized in this process."
    005534  aa  141 040 115 141
    005535  aa  156 141 147 145
    005536  aa  155 145 156 164
    005537  aa  040 151 163 040
    005540  aa  156 157 164 040
    005541  aa  151 156 151 164
    005542  aa  151 141 154 151
    005543  aa  172 145 144 040
    005544  aa  151 156 040 164
    005545  aa  150 151 163 040
    005546  aa  160 162 157 143
    005547  aa  145 163 163 056

                                   619
                                   620  ec non_empty_relation,nemtrel,
                                   621  	(The index can not be created in a nonempty relation.)
                        000256          	segdef  non_empty_relation
    000256  a0   077777 005552
    005550  aa  156 145 155 164         	aci  "nemtrel",8
    005551  aa  162 145 154 040
    005552  aa  064 124 150 145         	acc  "The index can not be created in a nonempty relation."
    005553  aa  040 151 156 144
    005554  aa  145 170 040 143
    005555  aa  141 156 040 156
    005556  aa  157 164 040 142
    005557  aa  145 040 143 162
    005560  aa  145 141 164 145
    005561  aa  144 040 151 156
    005562  aa  040 141 040 156
    005563  aa  157 156 145 155
    005564  aa  160 164 171 040
    005565  aa  162 145 154 141
    005566  aa  164 151 157 156
    005567  aa  056 000 000 000

                                   622
                                   623  ec not_daemon,ntdmn,
                                   624  	(This procedure can only be called by Data_Management.Daemon.)
                        000257          	segdef  not_daemon
    000257  a0   077777 005572
    005570  aa  156 164 144 155         	aci  "ntdmn",8
    005571  aa  156 040 040 040
    005572  aa  074 124 150 151         	acc  "This procedure can only be called by Data_Management.Daemon."
    005573  aa  163 040 160 162
    005574  aa  157 143 145 144
    005575  aa  165 162 145 040
    005576  aa  143 141 156 040
    005577  aa  157 156 154 171
    005600  aa  040 142 145 040
    005601  aa  143 141 154 154
    005602  aa  145 144 040 142
    005603  aa  171 040 104 141
    005604  aa  164 141 137 115
    005605  aa  141 156 141 147
    005606  aa  145 155 145 156
    005607  aa  164 056 104 141
    005610  aa  145 155 157 156
    005611  aa  056 000 000 000

                                   625
                                   626  ec not_own_transaction,ntowntxn,
                                   627  	(The transaction does not belong to this process.)
                        000260          	segdef  not_own_transaction
    000260  a0   077777 005614
    005612  aa  156 164 157 167         	aci  "ntowntxn",8
    005613  aa  156 164 170 156
    005614  aa  060 124 150 145         	acc  "The transaction does not belong to this process."
    005615  aa  040 164 162 141
    005616  aa  156 163 141 143
    005617  aa  164 151 157 156
    005620  aa  040 144 157 145
    005621  aa  163 040 156 157
    005622  aa  164 040 142 145
    005623  aa  154 157 156 147
    005624  aa  040 164 157 040
    005625  aa  164 150 151 163
    005626  aa  040 160 162 157
    005627  aa  143 145 163 163
    005630  aa  056 000 000 000

                                   628
                                   629  ec open_table_damaged,optbdmgd,
                                   630  	(The data management open table appears damaged.)
                        000261          	segdef  open_table_damaged
    000261  a0   077777 005633
    005631  aa  157 160 164 142         	aci  "optbdmgd",8
    005632  aa  144 155 147 144
    005633  aa  057 124 150 145         	acc  "The data management open table appears damaged."
    005634  aa  040 144 141 164
    005635  aa  141 040 155 141
    005636  aa  156 141 147 145
    005637  aa  155 145 156 164
    005640  aa  040 157 160 145
    005641  aa  156 040 164 141
    005642  aa  142 154 145 040
    005643  aa  141 160 160 145
    005644  aa  141 162 163 040
    005645  aa  144 141 155 141
    005646  aa  147 145 144 056

                                   631
                                   632  ec partial_recovery,partrcvr,
                                   633  	(One or more transactions could not be recovered after a crash.)
                        000262          	segdef  partial_recovery
    000262  a0   077777 005651
    005647  aa  160 141 162 164         	aci  "partrcvr",8
    005650  aa  162 143 166 162
    005651  aa  076 117 156 145         	acc  "One or more transactions could not be recovered after a crash."
    005652  aa  040 157 162 040
    005653  aa  155 157 162 145
    005654  aa  040 164 162 141
    005655  aa  156 163 141 143
    005656  aa  164 151 157 156
    005657  aa  163 040 143 157
    005660  aa  165 154 144 040
    005661  aa  156 157 164 040
    005662  aa  142 145 040 162
    005663  aa  145 143 157 166
    005664  aa  145 162 145 144
    005665  aa  040 141 146 164
    005666  aa  145 162 040 141
    005667  aa  040 143 162 141
    005670  aa  163 150 056 000

                                   634
                                   635  ec per_process_area_overflow,pparov,
                                   636  	(The per-process area has overflowed.)
                        000263          	segdef  per_process_area_overflow
    000263  a0   077777 005673
    005671  aa  160 160 141 162         	aci  "pparov",8
    005672  aa  157 166 040 040
    005673  aa  044 124 150 145         	acc  "The per-process area has overflowed."
    005674  aa  040 160 145 162
    005675  aa  055 160 162 157
    005676  aa  143 145 163 163
    005677  aa  040 141 162 145
    005700  aa  141 040 150 141
    005701  aa  163 040 157 166
    005702  aa  145 162 146 154
    005703  aa  157 167 145 144
    005704  aa  056 000 000 000

                                   637
                                   638  ec per_system_not_init,psysnoti,
                                   639  	(An error was encountered during per-system initialization.)
                        000264          	segdef  per_system_not_init
    000264  a0   077777 005707
    005705  aa  160 163 171 163         	aci  "psysnoti",8
    005706  aa  156 157 164 151
    005707  aa  072 101 156 040         	acc  "An error was encountered during per-system initialization."
    005710  aa  145 162 162 157
    005711  aa  162 040 167 141
    005712  aa  163 040 145 156
    005713  aa  143 157 165 156
    005714  aa  164 145 162 145
    005715  aa  144 040 144 165
    005716  aa  162 151 156 147
    005717  aa  040 160 145 162
    005720  aa  055 163 171 163
    005721  aa  164 145 155 040
    005722  aa  151 156 151 164
    005723  aa  151 141 154 151
    005724  aa  172 141 164 151
    005725  aa  157 156 056 000

                                   640
                                   641  ec process_not_found,prcntfnd,
                                   642  	(The specified process is not in the TDT.)
                        000265          	segdef  process_not_found
    000265  a0   077777 005730
    005726  aa  160 162 143 156         	aci  "prcntfnd",8
    005727  aa  164 146 156 144
    005730  aa  050 124 150 145         	acc  "The specified process is not in the TDT."
    005731  aa  040 163 160 145
    005732  aa  143 151 146 151
    005733  aa  145 144 040 160
    005734  aa  162 157 143 145
    005735  aa  163 163 040 151
    005736  aa  163 040 156 157
    005737  aa  164 040 151 156
    005740  aa  040 164 150 145
    005741  aa  040 124 104 124
    005742  aa  056 000 000 000

                                   643
                                   644  ec programming_error,progerr,
                                   645            (An inconsistency has occurred due to an internal programming error.)
                        000266          	segdef  programming_error
    000266  a0   077777 005745
    005743  aa  160 162 157 147         	aci  "progerr",8
    005744  aa  145 162 162 040
    005745  aa  103 101 156 040         	acc  "An inconsistency has occurred due to an internal programming error."
    005746  aa  151 156 143 157
    005747  aa  156 163 151 163
    005750  aa  164 145 156 143
    005751  aa  171 040 150 141
    005752  aa  163 040 157 143
    005753  aa  143 165 162 162
    005754  aa  145 144 040 144
    005755  aa  165 145 040 164
    005756  aa  157 040 141 156
    005757  aa  040 151 156 164
    005760  aa  145 162 156 141
    005761  aa  154 040 160 162
    005762  aa  157 147 162 141
    005763  aa  155 155 151 156
    005764  aa  147 040 145 162
    005765  aa  162 157 162 056

                                   646
                                   647  ec record_not_found,norec,
                                   648            (The record was not found.)
                        000267          	segdef  record_not_found
    000267  a0   077777 005770
    005766  aa  156 157 162 145         	aci  "norec",8
    005767  aa  143 040 040 040
    005770  aa  031 124 150 145         	acc  "The record was not found."
    005771  aa  040 162 145 143
    005772  aa  157 162 144 040
    005773  aa  167 141 163 040
    005774  aa  156 157 164 040
    005775  aa  146 157 165 156
    005776  aa  144 056 000 000

                                   649
                                   650  ec rel_cursor_spec_mismatch,badrlscp,
                                   651            (The current and supplied specifications do not agree.)
                        000270          	segdef  rel_cursor_spec_mismatch
    000270  a0   077777 006001
    005777  aa  142 141 144 162         	aci  "badrlscp",8
    006000  aa  154 163 143 160
    006001  aa  065 124 150 145         	acc  "The current and supplied specifications do not agree."
    006002  aa  040 143 165 162
    006003  aa  162 145 156 164
    006004  aa  040 141 156 144
    006005  aa  040 163 165 160
    006006  aa  160 154 151 145
    006007  aa  144 040 163 160
    006010  aa  145 143 151 146
    006011  aa  151 143 141 164
    006012  aa  151 157 156 163
    006013  aa  040 144 157 040
    006014  aa  156 157 164 040
    006015  aa  141 147 162 145
    006016  aa  145 056 000 000

                                   652
                                   653  ec relation_not_open,relnopen,
                                   654            (The specified relation is not open.)
                        000271          	segdef  relation_not_open
    000271  a0   077777 006021
    006017  aa  162 145 154 156         	aci  "relnopen",8
    006020  aa  157 160 145 156
    006021  aa  043 124 150 145         	acc  "The specified relation is not open."
    006022  aa  040 163 160 145
    006023  aa  143 151 146 151
    006024  aa  145 144 040 162
    006025  aa  145 154 141 164
    006026  aa  151 157 156 040
    006027  aa  151 163 040 156
    006030  aa  157 164 040 157
    006031  aa  160 145 156 056

                                   655
                                   656  ec record_quota_overflow,rqover,
                                   657  	(A record quota overflow occurred while expanding a lock segment.)
                        000272          	segdef  record_quota_overflow
    000272  a0   077777 006034
    006032  aa  162 161 157 166         	aci  "rqover",8
    006033  aa  145 162 040 040
    006034  aa  100 101 040 162         	acc  "A record quota overflow occurred while expanding a lock segment."
    006035  aa  145 143 157 162
    006036  aa  144 040 161 165
    006037  aa  157 164 141 040
    006040  aa  157 166 145 162
    006041  aa  146 154 157 167
    006042  aa  040 157 143 143
    006043  aa  165 162 162 145
    006044  aa  144 040 167 150
    006045  aa  151 154 145 040
    006046  aa  145 170 160 141
    006047  aa  156 144 151 156
    006050  aa  147 040 141 040
    006051  aa  154 157 143 153
    006052  aa  040 163 145 147
    006053  aa  155 145 156 164
    006054  aa  056 000 000 000

                                   658
                                   659  ec short_buffer,shrtbuff,
                                   660  	(The buffer is too small too hold the requested data.)
                        000273          	segdef  short_buffer
    000273  a0   077777 006057
    006055  aa  163 150 162 164         	aci  "shrtbuff",8
    006056  aa  142 165 146 146
    006057  aa  064 124 150 145         	acc  "The buffer is too small too hold the requested data."
    006060  aa  040 142 165 146
    006061  aa  146 145 162 040
    006062  aa  151 163 040 164
    006063  aa  157 157 040 163
    006064  aa  155 141 154 154
    006065  aa  040 164 157 157
    006066  aa  040 150 157 154
    006067  aa  144 040 164 150
    006070  aa  145 040 162 145
    006071  aa  161 165 145 163
    006072  aa  164 145 144 040
    006073  aa  144 141 164 141
    006074  aa  056 000 000 000

                                   661
                                   662  ec system_config_file_checksum_err,scfcksum,
                                   663  	(The checksum recorded in the DM configuration file does not agree with the generated checksum.)
                        000274          	segdef  system_config_file_checksum_err
    000274  a0   077777 006077
    006075  aa  163 143 146 143         	aci  "scfcksum",8
    006076  aa  153 163 165 155
    006077  aa  136 124 150 145         	acc  "The checksum recorded in the DM configuration file does not agree with the generated checksum."
    006100  aa  040 143 150 145
    006101  aa  143 153 163 165
    006102  aa  155 040 162 145
    006103  aa  143 157 162 144
    006104  aa  145 144 040 151
    006105  aa  156 040 164 150
    006106  aa  145 040 104 115
    006107  aa  040 143 157 156
    006110  aa  146 151 147 165
    006111  aa  162 141 164 151
    006112  aa  157 156 040 146
    006113  aa  151 154 145 040
    006114  aa  144 157 145 163
    006115  aa  040 156 157 164
    006116  aa  040 141 147 162
    006117  aa  145 145 040 167
    006120  aa  151 164 150 040
    006121  aa  164 150 145 040
    006122  aa  147 145 156 145
    006123  aa  162 141 164 145
    006124  aa  144 040 143 150
    006125  aa  145 143 153 163
    006126  aa  165 155 056 000

                                   664
                                   665  ec system_not_initialized,sysninit,
                                   666  	(The Data Management System is not available.)
                        000275          	segdef  system_not_initialized
    000275  a0   077777 006131
    006127  aa  163 171 163 156         	aci  "sysninit",8
    006130  aa  151 156 151 164
    006131  aa  054 124 150 145         	acc  "The Data Management System is not available."
    006132  aa  040 104 141 164
    006133  aa  141 040 115 141
    006134  aa  156 141 147 145
    006135  aa  155 145 156 164
    006136  aa  040 123 171 163
    006137  aa  164 145 155 040
    006140  aa  151 163 040 156
    006141  aa  157 164 040 141
    006142  aa  166 141 151 154
    006143  aa  141 142 154 145
    006144  aa  056 000 000 000

                                   667
                                   668  ec tdt_entry_in_use,tdtinuse,
                                   669  	(The TDT entry is already in use.)
                        000276          	segdef  tdt_entry_in_use
    000276  a0   077777 006147
    006145  aa  164 144 164 151         	aci  "tdtinuse",8
    006146  aa  156 165 163 145
    006147  aa  040 124 150 145         	acc  "The TDT entry is already in use."
    006150  aa  040 124 104 124
    006151  aa  040 145 156 164
    006152  aa  162 171 040 151
    006153  aa  163 040 141 154
    006154  aa  162 145 141 144
    006155  aa  171 040 151 156
    006156  aa  040 165 163 145
    006157  aa  056 000 000 000

                                   670
                                   671  ec tdt_entry_not_freed,tdtnfree,
                                   672  	(The TDT entry could not be freed.)
                        000277          	segdef  tdt_entry_not_freed
    000277  a0   077777 006162
    006160  aa  164 144 164 156         	aci  "tdtnfree",8
    006161  aa  146 162 145 145
    006162  aa  041 124 150 145         	acc  "The TDT entry could not be freed."
    006163  aa  040 124 104 124
    006164  aa  040 145 156 164
    006165  aa  162 171 040 143
    006166  aa  157 165 154 144
    006167  aa  040 156 157 164
    006170  aa  040 142 145 040
    006171  aa  146 162 145 145
    006172  aa  144 056 000 000

                                   673
                                   674  ec tdt_full,tdtfull,
                                   675  	(The TDT is full.)
                        000300          	segdef  tdt_full
    000300  a0   077777 006175
    006173  aa  164 144 164 146         	aci  "tdtfull",8
    006174  aa  165 154 154 040
    006175  aa  020 124 150 145         	acc  "The TDT is full."
    006176  aa  040 124 104 124
    006177  aa  040 151 163 040
    006200  aa  146 165 154 154
    006201  aa  056 000 000 000

                                   676
                                   677  ec too_many_bootload_dirs,tmbootdr,
                                   678  	(More than one file system object matches the DM bootload dir starname.)
                        000301          	segdef  too_many_bootload_dirs
    000301  a0   077777 006204
    006202  aa  164 155 142 157         	aci  "tmbootdr",8
    006203  aa  157 164 144 162
    006204  aa  106 115 157 162         	acc  "More than one file system object matches the DM bootload dir starname."
    006205  aa  145 040 164 150
    006206  aa  141 156 040 157
    006207  aa  156 145 040 146
    006210  aa  151 154 145 040
    006211  aa  163 171 163 164
    006212  aa  145 155 040 157
    006213  aa  142 152 145 143
    006214  aa  164 040 155 141
    006215  aa  164 143 150 145
    006216  aa  163 040 164 150
    006217  aa  145 040 104 115
    006220  aa  040 142 157 157
    006221  aa  164 154 157 141
    006222  aa  144 040 144 151
    006223  aa  162 040 163 164
    006224  aa  141 162 156 141
    006225  aa  155 145 056 000

                                   679
                                   680  ec transaction_in_progress,txninprg,
                                   681  	(A transaction is currently in progress.)
                        000302          	segdef  transaction_in_progress
    000302  a0   077777 006230
    006226  aa  164 170 156 151         	aci  "txninprg",8
    006227  aa  156 160 162 147
    006230  aa  047 101 040 164         	acc  "A transaction is currently in progress."
    006231  aa  162 141 156 163
    006232  aa  141 143 164 151
    006233  aa  157 156 040 151
    006234  aa  163 040 143 165
    006235  aa  162 162 145 156
    006236  aa  164 154 171 040
    006237  aa  151 156 040 160
    006240  aa  162 157 147 162
    006241  aa  145 163 163 056

                                   682
                                   683  ec transaction_not_abandoned,txnnabnd,
                                   684  	(The transaction has not been abandoned.)
                        000303          	segdef  transaction_not_abandoned
    000303  a0   077777 006244
    006242  aa  164 170 156 156         	aci  "txnnabnd",8
    006243  aa  141 142 156 144
    006244  aa  047 124 150 145         	acc  "The transaction has not been abandoned."
    006245  aa  040 164 162 141
    006246  aa  156 163 141 143
    006247  aa  164 151 157 156
    006250  aa  040 150 141 163
    006251  aa  040 156 157 164
    006252  aa  040 142 145 145
    006253  aa  156 040 141 142
    006254  aa  141 156 144 157
    006255  aa  156 145 144 056

                                   685
                                   686  ec transaction_not_current,txnncur,
                                   687  	(The specified transaction is not the current transaction.)
                        000304          	segdef  transaction_not_current
    000304  a0   077777 006260
    006256  aa  164 170 156 156         	aci  "txnncur",8
    006257  aa  143 165 162 040
    006260  aa  071 124 150 145         	acc  "The specified transaction is not the current transaction."
    006261  aa  040 163 160 145
    006262  aa  143 151 146 151
    006263  aa  145 144 040 164
    006264  aa  162 141 156 163
    006265  aa  141 143 164 151
    006266  aa  157 156 040 151
    006267  aa  163 040 156 157
    006270  aa  164 040 164 150
    006271  aa  145 040 143 165
    006272  aa  162 162 145 156
    006273  aa  164 040 164 162
    006274  aa  141 156 163 141
    006275  aa  143 164 151 157
    006276  aa  156 056 000 000

                                   688
                                   689  ec transaction_not_found,notxn,
                                   690  	(The specified transaction is not defined.)
                        000305          	segdef  transaction_not_found
    000305  a0   077777 006301
    006277  aa  156 157 164 170         	aci  "notxn",8
    006300  aa  156 040 040 040
    006301  aa  051 124 150 145         	acc  "The specified transaction is not defined."
    006302  aa  040 163 160 145
    006303  aa  143 151 146 151
    006304  aa  145 144 040 164
    006305  aa  162 141 156 163
    006306  aa  141 143 164 151
    006307  aa  157 156 040 151
    006310  aa  163 040 156 157
    006311  aa  164 040 144 145
    006312  aa  146 151 156 145
    006313  aa  144 056 000 000

                                   691
                                   692  ec transaction_suspended,txnsuspd,
                                   693  	(The specified transaction is currently suspended.)
                        000306          	segdef  transaction_suspended
    000306  a0   077777 006316
    006314  aa  164 170 156 163         	aci  "txnsuspd",8
    006315  aa  165 163 160 144
    006316  aa  061 124 150 145         	acc  "The specified transaction is currently suspended."
    006317  aa  040 163 160 145
    006320  aa  143 151 146 151
    006321  aa  145 144 040 164
    006322  aa  162 141 156 163
    006323  aa  141 143 164 151
    006324  aa  157 156 040 151
    006325  aa  163 040 143 165
    006326  aa  162 162 145 156
    006327  aa  164 154 171 040
    006330  aa  163 165 163 160
    006331  aa  145 156 144 145
    006332  aa  144 056 000 000

                                   694
                                   695  ec transactions_out_of_sequence,txnoosq,
                                   696  	(Transactions are out of sequence.)
                        000307          	segdef  transactions_out_of_sequence
    000307  a0   077777 006335
    006333  aa  164 170 156 157         	aci  "txnoosq",8
    006334  aa  157 163 161 040
    006335  aa  041 124 162 141         	acc  "Transactions are out of sequence."
    006336  aa  156 163 141 143
    006337  aa  164 151 157 156
    006340  aa  163 040 141 162
    006341  aa  145 040 157 165
    006342  aa  164 040 157 146
    006343  aa  040 163 145 161
    006344  aa  165 145 156 143
    006345  aa  145 056 000 000

                                   697
                                   698  ec (tuple_not_found,no_tuple),notup,
                                   699  	(No tuples were found.)
                        000310          	segdef  tuple_not_found
                        000310          	segdef  no_tuple
    000310  a0   077777 006350
    006346  aa  156 157 164 165         	aci  "notup",8
    006347  aa  160 040 040 040
    006350  aa  025 116 157 040         	acc  "No tuples were found."
    006351  aa  164 165 160 154
    006352  aa  145 163 040 167
    006353  aa  145 162 145 040
    006354  aa  146 157 165 156
    006355  aa  144 056 000 000

                                   700
                                   701  ec (tuple_not_found_id,no_tuple_id),notupid,
                                   702  	(No tuple was found with the given tuple identifier.)
                        000311          	segdef  tuple_not_found_id
                        000311          	segdef  no_tuple_id
    000311  a0   077777 006360
    006356  aa  156 157 164 165         	aci  "notupid",8
    006357  aa  160 151 144 040
    006360  aa  063 116 157 040         	acc  "No tuple was found with the given tuple identifier."
    006361  aa  164 165 160 154
    006362  aa  145 040 167 141
    006363  aa  163 040 146 157
    006364  aa  165 156 144 040
    006365  aa  167 151 164 150
    006366  aa  040 164 150 145
    006367  aa  040 147 151 166
    006370  aa  145 156 040 164
    006371  aa  165 160 154 145
    006372  aa  040 151 144 145
    006373  aa  156 164 151 146
    006374  aa  151 145 162 056

                                   703
                                   704  ec unexpected_search_case,unxsrhcs,
                                   705  	(An unexpected case has occurred as the result of searching an index.)
                        000312          	segdef  unexpected_search_case
    000312  a0   077777 006377
    006375  aa  165 156 170 163         	aci  "unxsrhcs",8
    006376  aa  162 150 143 163
    006377  aa  104 101 156 040         	acc  "An unexpected case has occurred as the result of searching an index."
    006400  aa  165 156 145 170
    006401  aa  160 145 143 164
    006402  aa  145 144 040 143
    006403  aa  141 163 145 040
    006404  aa  150 141 163 040
    006405  aa  157 143 143 165
    006406  aa  162 162 145 144
    006407  aa  040 141 163 040
    006410  aa  164 150 145 040
    006411  aa  162 145 163 165
    006412  aa  154 164 040 157
    006413  aa  146 040 163 145
    006414  aa  141 162 143 150
    006415  aa  151 156 147 040
    006416  aa  141 156 040 151
    006417  aa  156 144 145 170
    006420  aa  056 000 000 000

                                   706
                                   707  ec unfinished_abort,unfinab,
                                   708  	(A transaction abort attempt has been interrupted.)
                        000313          	segdef  unfinished_abort
    000313  a0   077777 006423
    006421  aa  165 156 146 151         	aci  "unfinab",8
    006422  aa  156 141 142 040
    006423  aa  061 101 040 164         	acc  "A transaction abort attempt has been interrupted."
    006424  aa  162 141 156 163
    006425  aa  141 143 164 151
    006426  aa  157 156 040 141
    006427  aa  142 157 162 164
    006430  aa  040 141 164 164
    006431  aa  145 155 160 164
    006432  aa  040 150 141 163
    006433  aa  040 142 145 145
    006434  aa  156 040 151 156
    006435  aa  164 145 162 162
    006436  aa  165 160 164 145
    006437  aa  144 056 000 000

                                   709
                                   710  ec unfinished_commit,unfincom,
                                   711  	(A transaction commit attempt has been interrupted.)
                        000314          	segdef  unfinished_commit
    000314  a0   077777 006442
    006440  aa  165 156 146 151         	aci  "unfincom",8
    006441  aa  156 143 157 155
    006442  aa  062 101 040 164         	acc  "A transaction commit attempt has been interrupted."
    006443  aa  162 141 156 163
    006444  aa  141 143 164 151
    006445  aa  157 156 040 143
    006446  aa  157 155 155 151
    006447  aa  164 040 141 164
    006450  aa  164 145 155 160
    006451  aa  164 040 150 141
    006452  aa  163 040 142 145
    006453  aa  145 156 040 151
    006454  aa  156 164 145 162
    006455  aa  162 165 160 164
    006456  aa  145 144 056 000

                                   712
                                   713  ec unfinished_rollback,unfrolbk,
                                   714  	(A transaction rollback attempt has been interrupted.)
                        000315          	segdef  unfinished_rollback
    000315  a0   077777 006461
    006457  aa  165 156 146 162         	aci  "unfrolbk",8
    006460  aa  157 154 142 153
    006461  aa  064 101 040 164         	acc  "A transaction rollback attempt has been interrupted."
    006462  aa  162 141 156 163
    006463  aa  141 143 164 151
    006464  aa  157 156 040 162
    006465  aa  157 154 154 142
    006466  aa  141 143 153 040
    006467  aa  141 164 164 145
    006470  aa  155 160 164 040
    006471  aa  150 141 163 040
    006472  aa  142 145 145 156
    006473  aa  040 151 156 164
    006474  aa  145 162 162 165
    006475  aa  160 164 145 144
    006476  aa  056 000 000 000

                                   715
                                   716  ec unimplemented_ci_version,invciv,
                                   717            (The supplied control interval version is not implemented.)
                        000316          	segdef  unimplemented_ci_version
    000316  a0   077777 006501
    006477  aa  151 156 166 143         	aci  "invciv",8
    006500  aa  151 166 040 040
    006501  aa  071 124 150 145         	acc  "The supplied control interval version is not implemented."
    006502  aa  040 163 165 160
    006503  aa  160 154 151 145
    006504  aa  144 040 143 157
    006505  aa  156 164 162 157
    006506  aa  154 040 151 156
    006507  aa  164 145 162 166
    006510  aa  141 154 040 166
    006511  aa  145 162 163 151
    006512  aa  157 156 040 151
    006513  aa  163 040 156 157
    006514  aa  164 040 151 155
    006515  aa  160 154 145 155
    006516  aa  145 156 164 145
    006517  aa  144 056 000 000

                                   718
                                   719  ec unimplemented_cism,invcism,
                                   720  	(The collection does not support the requested control interval storage method.)
                        000317          	segdef  unimplemented_cism
    000317  a0   077777 006522
    006520  aa  151 156 166 143         	aci  "invcism",8
    006521  aa  151 163 155 040
    006522  aa  116 124 150 145         	acc  "The collection does not support the requested control interval storage method."
    006523  aa  040 143 157 154
    006524  aa  154 145 143 164
    006525  aa  151 157 156 040
    006526  aa  144 157 145 163
    006527  aa  040 156 157 164
    006530  aa  040 163 165 160
    006531  aa  160 157 162 164
    006532  aa  040 164 150 145
    006533  aa  040 162 145 161
    006534  aa  165 145 163 164
    006535  aa  145 144 040 143
    006536  aa  157 156 164 162
    006537  aa  157 154 040 151
    006540  aa  156 164 145 162
    006541  aa  166 141 154 040
    006542  aa  163 164 157 162
    006543  aa  141 147 145 040
    006544  aa  155 145 164 150
    006545  aa  157 144 056 000

                                   721
                                   722  ec unimplemented_data_type,invdt,
                                   723  	(The supplied data type is not supported for the requested operation.)
                        000320          	segdef  unimplemented_data_type
    000320  a0   077777 006550
    006546  aa  151 156 166 144         	aci  "invdt",8
    006547  aa  164 040 040 040
    006550  aa  104 124 150 145         	acc  "The supplied data type is not supported for the requested operation."
    006551  aa  040 163 165 160
    006552  aa  160 154 151 145
    006553  aa  144 040 144 141
    006554  aa  164 141 040 164
    006555  aa  171 160 145 040
    006556  aa  151 163 040 156
    006557  aa  157 164 040 163
    006560  aa  165 160 160 157
    006561  aa  162 164 145 144
    006562  aa  040 146 157 162
    006563  aa  040 164 150 145
    006564  aa  040 162 145 161
    006565  aa  165 145 163 164
    006566  aa  145 144 040 157
    006567  aa  160 145 162 141
    006570  aa  164 151 157 156
    006571  aa  056 000 000 000

                                   724
                                   725  ec unimplemented_entry,invet,
                                   726  	(This entry is not yet implemented.)
                        000321          	segdef  unimplemented_entry
    000321  a0   077777 006574
    006572  aa  151 156 166 145         	aci  "invet",8
    006573  aa  164 040 040 040
    006574  aa  042 124 150 151         	acc  "This entry is not yet implemented."
    006575  aa  163 040 145 156
    006576  aa  164 162 171 040
    006577  aa  151 163 040 156
    006600  aa  157 164 040 171
    006601  aa  145 164 040 151
    006602  aa  155 160 154 145
    006603  aa  155 145 156 164
    006604  aa  145 144 056 000

                                   727
                                   728  ec unimplemented_esm,invesm,
                                   729            (The collection does not support the requested element storage method.)
                        000322          	segdef  unimplemented_esm
    000322  a0   077777 006607
    006605  aa  151 156 166 145         	aci  "invesm",8
    006606  aa  163 155 040 040
    006607  aa  105 124 150 145         	acc  "The collection does not support the requested element storage method."
    006610  aa  040 143 157 154
    006611  aa  154 145 143 164
    006612  aa  151 157 156 040
    006613  aa  144 157 145 163
    006614  aa  040 156 157 164
    006615  aa  040 163 165 160
    006616  aa  160 157 162 164
    006617  aa  040 164 150 145
    006620  aa  040 162 145 161
    006621  aa  165 145 163 164
    006622  aa  145 144 040 145
    006623  aa  154 145 155 145
    006624  aa  156 164 040 163
    006625  aa  164 157 162 141
    006626  aa  147 145 040 155
    006627  aa  145 164 150 157
    006630  aa  144 056 000 000

                                   730
                                   731  ec unimplemented_spec_version,invspecv,
                                   732  	(The supplied specification version is not implemented.)
                        000323          	segdef  unimplemented_spec_version
    000323  a0   077777 006633
    006631  aa  151 156 166 163         	aci  "invspecv",8
    006632  aa  160 145 143 166
    006633  aa  066 124 150 145         	acc  "The supplied specification version is not implemented."
    006634  aa  040 163 165 160
    006635  aa  160 154 151 145
    006636  aa  144 040 163 160
    006637  aa  145 143 151 146
    006640  aa  151 143 141 164
    006641  aa  151 157 156 040
    006642  aa  166 145 162 163
    006643  aa  151 157 156 040
    006644  aa  151 163 040 156
    006645  aa  157 164 040 151
    006646  aa  155 160 154 145
    006647  aa  155 145 156 164
    006650  aa  145 144 056 000

                                   733
                                   734  ec unsup_search_spec_head_type,invsphd,
                                   735  	(The supplied specification type is not implemented.)
                        000324          	segdef  unsup_search_spec_head_type
    000324  a0   077777 006653
    006651  aa  151 156 166 163         	aci  "invsphd",8
    006652  aa  160 150 144 040
    006653  aa  063 124 150 145         	acc  "The supplied specification type is not implemented."
    006654  aa  040 163 165 160
    006655  aa  160 154 151 145
    006656  aa  144 040 163 160
    006657  aa  145 143 151 146
    006660  aa  151 143 141 164
    006661  aa  151 157 156 040
    006662  aa  164 171 160 145
    006663  aa  040 151 163 040
    006664  aa  156 157 164 040
    006665  aa  151 155 160 154
    006666  aa  145 155 145 156
    006667  aa  164 145 144 056

                                   736
                                   737  ec unsup_search_spec_range_type,invsprg,
                                   738  	(The supplied specification range type is not implemented.)
                        000325          	segdef  unsup_search_spec_range_type
    000325  a0   077777 006672
    006670  aa  151 156 166 163         	aci  "invsprg",8
    006671  aa  160 162 147 040
    006672  aa  071 124 150 145         	acc  "The supplied specification range type is not implemented."
    006673  aa  040 163 165 160
    006674  aa  160 154 151 145
    006675  aa  144 040 163 160
    006676  aa  145 143 151 146
    006677  aa  151 143 141 164
    006700  aa  151 157 156 040
    006701  aa  162 141 156 147
    006702  aa  145 040 164 171
    006703  aa  160 145 040 151
    006704  aa  163 040 156 157
    006705  aa  164 040 151 155
    006706  aa  160 154 145 155
    006707  aa  145 156 164 145
    006710  aa  144 056 000 000

                                   739
                                   740  ec unsupported_spec_operator,invspop,
                                   741  	(The supplied specification operator is not implemented.)
                        000326          	segdef  unsupported_spec_operator
    000326  a0   077777 006713
    006711  aa  151 156 166 163         	aci  "invspop",8
    006712  aa  160 157 160 040
    006713  aa  067 124 150 145         	acc  "The supplied specification operator is not implemented."
    006714  aa  040 163 165 160
    006715  aa  160 154 151 145
    006716  aa  144 040 163 160
    006717  aa  145 143 151 146
    006720  aa  151 143 141 164
    006721  aa  151 157 156 040
    006722  aa  157 160 145 162
    006723  aa  141 164 157 162
    006724  aa  040 151 163 040
    006725  aa  156 157 164 040
    006726  aa  151 155 160 154
    006727  aa  145 155 145 156
    006730  aa  164 145 144 056

                                   742
                                   743  ec valid_process,validprc,
                                   744  	(The process is currently in operation.)
                        000327          	segdef  valid_process
    000327  a0   077777 006733
    006731  aa  166 141 154 151         	aci  "validprc",8
    006732  aa  144 160 162 143
    006733  aa  046 124 150 145         	acc  "The process is currently in operation."
    006734  aa  040 160 162 157
    006735  aa  143 145 163 163
    006736  aa  040 151 163 040
    006737  aa  143 165 162 162
    006740  aa  145 156 164 154
    006741  aa  171 040 151 156
    006742  aa  040 157 160 145
    006743  aa  162 141 164 151
    006744  aa  157 156 056 000

                                   745
                                   746  ec wrong_cursor_type,invcurst,
                                   747            (The supplied cursor type is not supported by this operation.)
                        000330          	segdef  wrong_cursor_type
    000330  a0   077777 006747
    006745  aa  151 156 166 143         	aci  "invcurst",8
    006746  aa  165 162 163 164
    006747  aa  074 124 150 145         	acc  "The supplied cursor type is not supported by this operation."
    006750  aa  040 163 165 160
    006751  aa  160 154 151 145
    006752  aa  144 040 143 165
    006753  aa  162 163 157 162
    006754  aa  040 164 171 160
    006755  aa  145 040 151 163
    006756  aa  040 156 157 164
    006757  aa  040 163 165 160
    006760  aa  160 157 162 164
    006761  aa  145 144 040 142
    006762  aa  171 040 164 150
    006763  aa  151 163 040 157
    006764  aa  160 145 162 141
    006765  aa  164 151 157 156
    006766  aa  056 000 000 000

                                   748
                                   749
                                   750  	end

NO LITERALS

NAME DEFINITIONS FOR ENTRY POINTS AND SEGDEFS

    006770  5a   000003 000000
    006771  5a   003353 600000
    006772  aa   000000 000000
    006773  55   000011 000002
    006774  5a   000002 400003
    006775  55   000006 000011
    006776  aa  011 144 155 137
    006777  aa  145 162 162 157
    007000  aa  162 137 000 000
    007001  55   000021 000003
    007002  2a   000330 400001
    007003  55   000014 000003
    007004  aa  021 167 162 157         wrong_cursor_type
    007005  aa  156 147 137 143
    007006  aa  165 162 163 157
    007007  aa  162 137 164 171
    007010  aa  160 145 000 000
    007011  55   000030 000011
    007012  2a   000327 400001
    007013  55   000024 000003
    007014  aa  015 166 141 154         valid_process
    007015  aa  151 144 137 160
    007016  aa  162 157 143 145
    007017  aa  163 163 000 000
    007020  55   000042 000021
    007021  2a   000326 400001
    007022  55   000033 000003
    007023  aa  031 165 156 163         unsupported_spec_operator
    007024  aa  165 160 160 157
    007025  aa  162 164 145 144
    007026  aa  137 163 160 145
    007027  aa  143 137 157 160
    007030  aa  145 162 141 164
    007031  aa  157 162 000 000
    007032  55   000055 000030
    007033  2a   000325 400001
    007034  55   000045 000003
    007035  aa  034 165 156 163         unsup_search_spec_range_type
    007036  aa  165 160 137 163
    007037  aa  145 141 162 143
    007040  aa  150 137 163 160
    007041  aa  145 143 137 162
    007042  aa  141 156 147 145
    007043  aa  137 164 171 160
    007044  aa  145 000 000 000
    007045  55   000067 000042
    007046  2a   000324 400001
    007047  55   000060 000003
    007050  aa  033 165 156 163         unsup_search_spec_head_type
    007051  aa  165 160 137 163
    007052  aa  145 141 162 143
    007053  aa  150 137 163 160
    007054  aa  145 143 137 150
    007055  aa  145 141 144 137
    007056  aa  164 171 160 145
    007057  55   000101 000055
    007060  2a   000323 400001
    007061  55   000072 000003
    007062  aa  032 165 156 151         unimplemented_spec_version
    007063  aa  155 160 154 145
    007064  aa  155 145 156 164
    007065  aa  145 144 137 163
    007066  aa  160 145 143 137
    007067  aa  166 145 162 163
    007070  aa  151 157 156 000
    007071  55   000111 000067
    007072  2a   000322 400001
    007073  55   000104 000003
    007074  aa  021 165 156 151         unimplemented_esm
    007075  aa  155 160 154 145
    007076  aa  155 145 156 164
    007077  aa  145 144 137 145
    007100  aa  163 155 000 000
    007101  55   000121 000101
    007102  2a   000321 400001
    007103  55   000114 000003
    007104  aa  023 165 156 151         unimplemented_entry
    007105  aa  155 160 154 145
    007106  aa  155 145 156 164
    007107  aa  145 144 137 145
    007110  aa  156 164 162 171
    007111  55   000132 000111
    007112  2a   000320 400001
    007113  55   000124 000003
    007114  aa  027 165 156 151         unimplemented_data_type
    007115  aa  155 160 154 145
    007116  aa  155 145 156 164
    007117  aa  145 144 137 144
    007120  aa  141 164 141 137
    007121  aa  164 171 160 145
    007122  55   000142 000121
    007123  2a   000317 400001
    007124  55   000135 000003
    007125  aa  022 165 156 151         unimplemented_cism
    007126  aa  155 160 154 145
    007127  aa  155 145 156 164
    007130  aa  145 144 137 143
    007131  aa  151 163 155 000
    007132  55   000154 000132
    007133  2a   000316 400001
    007134  55   000145 000003
    007135  aa  030 165 156 151         unimplemented_ci_version
    007136  aa  155 160 154 145
    007137  aa  155 145 156 164
    007140  aa  145 144 137 143
    007141  aa  151 137 166 145
    007142  aa  162 163 151 157
    007143  aa  156 000 000 000
    007144  55   000164 000142
    007145  2a   000315 400001
    007146  55   000157 000003
    007147  aa  023 165 156 146         unfinished_rollback
    007150  aa  151 156 151 163
    007151  aa  150 145 144 137
    007152  aa  162 157 154 154
    007153  aa  142 141 143 153
    007154  55   000174 000154
    007155  2a   000314 400001
    007156  55   000167 000003
    007157  aa  021 165 156 146         unfinished_commit
    007160  aa  151 156 151 163
    007161  aa  150 145 144 137
    007162  aa  143 157 155 155
    007163  aa  151 164 000 000
    007164  55   000204 000164
    007165  2a   000313 400001
    007166  55   000177 000003
    007167  aa  020 165 156 146         unfinished_abort
    007170  aa  151 156 151 163
    007171  aa  150 145 144 137
    007172  aa  141 142 157 162
    007173  aa  164 000 000 000
    007174  55   000215 000174
    007175  2a   000312 400001
    007176  55   000207 000003
    007177  aa  026 165 156 145         unexpected_search_case
    007200  aa  170 160 145 143
    007201  aa  164 145 144 137
    007202  aa  163 145 141 162
    007203  aa  143 150 137 143
    007204  aa  141 163 145 000
    007205  55   000223 000204
    007206  2a   000311 400001
    007207  55   000220 000003
    007210  aa  013 156 157 137         no_tuple_id
    007211  aa  164 165 160 154
    007212  aa  145 137 151 144
    007213  55   000233 000215
    007214  2a   000311 400001
    007215  55   000226 000003
    007216  aa  022 164 165 160         tuple_not_found_id
    007217  aa  154 145 137 156
    007220  aa  157 164 137 146
    007221  aa  157 165 156 144
    007222  aa  137 151 144 000
    007223  55   000241 000223
    007224  2a   000310 400001
    007225  55   000236 000003
    007226  aa  010 156 157 137         no_tuple
    007227  aa  164 165 160 154
    007230  aa  145 000 000 000
    007231  55   000250 000233
    007232  2a   000310 400001
    007233  55   000244 000003
    007234  aa  017 164 165 160         tuple_not_found
    007235  aa  154 145 137 156
    007236  aa  157 164 137 146
    007237  aa  157 165 156 144
    007240  55   000263 000241
    007241  2a   000307 400001
    007242  55   000253 000003
    007243  aa  034 164 162 141         transactions_out_of_sequence
    007244  aa  156 163 141 143
    007245  aa  164 151 157 156
    007246  aa  163 137 157 165
    007247  aa  164 137 157 146
    007250  aa  137 163 145 161
    007251  aa  165 145 156 143
    007252  aa  145 000 000 000
    007253  55   000274 000250
    007254  2a   000306 400001
    007255  55   000266 000003
    007256  aa  025 164 162 141         transaction_suspended
    007257  aa  156 163 141 143
    007260  aa  164 151 157 156
    007261  aa  137 163 165 163
    007262  aa  160 145 156 144
    007263  aa  145 144 000 000
    007264  55   000305 000263
    007265  2a   000305 400001
    007266  55   000277 000003
    007267  aa  025 164 162 141         transaction_not_found
    007270  aa  156 163 141 143
    007271  aa  164 151 157 156
    007272  aa  137 156 157 164
    007273  aa  137 146 157 165
    007274  aa  156 144 000 000
    007275  55   000316 000274
    007276  2a   000304 400001
    007277  55   000310 000003
    007300  aa  027 164 162 141         transaction_not_current
    007301  aa  156 163 141 143
    007302  aa  164 151 157 156
    007303  aa  137 156 157 164
    007304  aa  137 143 165 162
    007305  aa  162 145 156 164
    007306  55   000330 000305
    007307  2a   000303 400001
    007310  55   000321 000003
    007311  aa  031 164 162 141         transaction_not_abandoned
    007312  aa  156 163 141 143
    007313  aa  164 151 157 156
    007314  aa  137 156 157 164
    007315  aa  137 141 142 141
    007316  aa  156 144 157 156
    007317  aa  145 144 000 000
    007320  55   000341 000316
    007321  2a   000302 400001
    007322  55   000333 000003
    007323  aa  027 164 162 141         transaction_in_progress
    007324  aa  156 163 141 143
    007325  aa  164 151 157 156
    007326  aa  137 151 156 137
    007327  aa  160 162 157 147
    007330  aa  162 145 163 163
    007331  55   000352 000330
    007332  2a   000301 400001
    007333  55   000344 000003
    007334  aa  026 164 157 157         too_many_bootload_dirs
    007335  aa  137 155 141 156
    007336  aa  171 137 142 157
    007337  aa  157 164 154 157
    007340  aa  141 144 137 144
    007341  aa  151 162 163 000
    007342  55   000360 000341
    007343  2a   000300 400001
    007344  55   000355 000003
    007345  aa  010 164 144 164         tdt_full
    007346  aa  137 146 165 154
    007347  aa  154 000 000 000
    007350  55   000370 000352
    007351  2a   000277 400001
    007352  55   000363 000003
    007353  aa  023 164 144 164         tdt_entry_not_freed
    007354  aa  137 145 156 164
    007355  aa  162 171 137 156
    007356  aa  157 164 137 146
    007357  aa  162 145 145 144
    007360  55   000400 000360
    007361  2a   000276 400001
    007362  55   000373 000003
    007363  aa  020 164 144 164         tdt_entry_in_use
    007364  aa  137 145 156 164
    007365  aa  162 171 137 151
    007366  aa  156 137 165 163
    007367  aa  145 000 000 000
    007370  55   000411 000370
    007371  2a   000275 400001
    007372  55   000403 000003
    007373  aa  026 163 171 163         system_not_initialized
    007374  aa  164 145 155 137
    007375  aa  156 157 164 137
    007376  aa  151 156 151 164
    007377  aa  151 141 154 151
    007400  aa  172 145 144 000
    007401  55   000424 000400
    007402  2a   000274 400001
    007403  55   000414 000003
    007404  aa  037 163 171 163         system_config_file_checksum_err
    007405  aa  164 145 155 137
    007406  aa  143 157 156 146
    007407  aa  151 147 137 146
    007410  aa  151 154 145 137
    007411  aa  143 150 145 143
    007412  aa  153 163 165 155
    007413  aa  137 145 162 162
    007414  55   000433 000411
    007415  2a   000273 400001
    007416  55   000427 000003
    007417  aa  014 163 150 157         short_buffer
    007420  aa  162 164 137 142
    007421  aa  165 146 146 145
    007422  aa  162 000 000 000
    007423  55   000444 000424
    007424  2a   000272 400001
    007425  55   000436 000003
    007426  aa  025 162 145 143         record_quota_overflow
    007427  aa  157 162 144 137
    007430  aa  161 165 157 164
    007431  aa  141 137 157 166
    007432  aa  145 162 146 154
    007433  aa  157 167 000 000
    007434  55   000454 000433
    007435  2a   000271 400001
    007436  55   000447 000003
    007437  aa  021 162 145 154         relation_not_open
    007440  aa  141 164 151 157
    007441  aa  156 137 156 157
    007442  aa  164 137 157 160
    007443  aa  145 156 000 000
    007444  55   000466 000444
    007445  2a   000270 400001
    007446  55   000457 000003
    007447  aa  030 162 145 154         rel_cursor_spec_mismatch
    007450  aa  137 143 165 162
    007451  aa  163 157 162 137
    007452  aa  163 160 145 143
    007453  aa  137 155 151 163
    007454  aa  155 141 164 143
    007455  aa  150 000 000 000
    007456  55   000476 000454
    007457  2a   000267 400001
    007460  55   000471 000003
    007461  aa  020 162 145 143         record_not_found
    007462  aa  157 162 144 137
    007463  aa  156 157 164 137
    007464  aa  146 157 165 156
    007465  aa  144 000 000 000
    007466  55   000506 000466
    007467  2a   000266 400001
    007470  55   000501 000003
    007471  aa  021 160 162 157         programming_error
    007472  aa  147 162 141 155
    007473  aa  155 151 156 147
    007474  aa  137 145 162 162
    007475  aa  157 162 000 000
    007476  55   000516 000476
    007477  2a   000265 400001
    007500  55   000511 000003
    007501  aa  021 160 162 157         process_not_found
    007502  aa  143 145 163 163
    007503  aa  137 156 157 164
    007504  aa  137 146 157 165
    007505  aa  156 144 000 000
    007506  55   000526 000506
    007507  2a   000264 400001
    007510  55   000521 000003
    007511  aa  023 160 145 162         per_system_not_init
    007512  aa  137 163 171 163
    007513  aa  164 145 155 137
    007514  aa  156 157 164 137
    007515  aa  151 156 151 164
    007516  55   000540 000516
    007517  2a   000263 400001
    007520  55   000531 000003
    007521  aa  031 160 145 162         per_process_area_overflow
    007522  aa  137 160 162 157
    007523  aa  143 145 163 163
    007524  aa  137 141 162 145
    007525  aa  141 137 157 166
    007526  aa  145 162 146 154
    007527  aa  157 167 000 000
    007530  55   000550 000526
    007531  2a   000262 400001
    007532  55   000543 000003
    007533  aa  020 160 141 162         partial_recovery
    007534  aa  164 151 141 154
    007535  aa  137 162 145 143
    007536  aa  157 166 145 162
    007537  aa  171 000 000 000
    007540  55   000560 000540
    007541  2a   000261 400001
    007542  55   000553 000003
    007543  aa  022 157 160 145         open_table_damaged
    007544  aa  156 137 164 141
    007545  aa  142 154 145 137
    007546  aa  144 141 155 141
    007547  aa  147 145 144 000
    007550  55   000570 000550
    007551  2a   000260 400001
    007552  55   000563 000003
    007553  aa  023 156 157 164         not_own_transaction
    007554  aa  137 157 167 156
    007555  aa  137 164 162 141
    007556  aa  156 163 141 143
    007557  aa  164 151 157 156
    007560  55   000576 000560
    007561  2a   000257 400001
    007562  55   000573 000003
    007563  aa  012 156 157 164         not_daemon
    007564  aa  137 144 141 145
    007565  aa  155 157 156 000
    007566  55   000606 000570
    007567  2a   000256 400001
    007570  55   000601 000003
    007571  aa  022 156 157 156         non_empty_relation
    007572  aa  137 145 155 160
    007573  aa  164 171 137 162
    007574  aa  145 154 141 164
    007575  aa  151 157 156 000
    007576  55   000614 000576
    007577  2a   000255 400001
    007600  55   000611 000003
    007601  aa  012 156 157 137         no_user_dm
    007602  aa  165 163 145 162
    007603  aa  137 144 155 000
    007604  55   000626 000606
    007605  2a   000254 400001
    007606  55   000617 000003
    007607  aa  030 156 157 137         no_suspended_transaction
    007610  aa  163 165 163 160
    007611  aa  145 156 144 145
    007612  aa  144 137 164 162
    007613  aa  141 156 163 141
    007614  aa  143 164 151 157
    007615  aa  156 000 000 000
    007616  55   000636 000614
    007617  2a   000253 400001
    007620  55   000631 000003
    007621  aa  020 156 157 137         no_output_buffer
    007622  aa  157 165 164 160
    007623  aa  165 164 137 142
    007624  aa  165 146 146 145
    007625  aa  162 000 000 000
    007626  55   000644 000626
    007627  2a   000252 400001
    007630  55   000641 000003
    007631  aa  012 156 157 137         no_opening
    007632  aa  157 160 145 156
    007633  aa  151 156 147 000
    007634  55   000654 000636
    007635  2a   000251 400001
    007636  55   000647 000003
    007637  aa  020 156 157 137         no_header_record
    007640  aa  150 145 141 144
    007641  aa  145 162 137 162
    007642  aa  145 143 157 162
    007643  aa  144 000 000 000
    007644  55   000666 000644
    007645  2a   000250 400001
    007646  55   000657 000003
    007647  aa  031 156 157 137         no_delete_dir_transaction
    007650  aa  144 145 154 145
    007651  aa  164 145 137 144
    007652  aa  151 162 137 164
    007653  aa  162 141 156 163
    007654  aa  141 143 164 151
    007655  aa  157 156 000 000
    007656  55   000674 000654
    007657  2a   000247 400001
    007660  55   000671 000003
    007661  aa  010 156 157 137         no_datum
    007662  aa  144 141 164 165
    007663  aa  155 000 000 000
    007664  55   000705 000666
    007665  2a   000246 400001
    007666  55   000677 000003
    007667  aa  026 156 157 137         no_current_transaction
    007670  aa  143 165 162 162
    007671  aa  145 156 164 137
    007672  aa  164 162 141 156
    007673  aa  163 141 143 164
    007674  aa  151 157 156 000
    007675  55   000713 000674
    007676  2a   000245 400001
    007677  55   000710 000003
    007700  aa  011 156 157 137         no_begins
    007701  aa  142 145 147 151
    007702  aa  156 163 000 000
    007703  55   000722 000705
    007704  2a   000244 400001
    007705  55   000716 000003
    007706  aa  017 155 151 163         misformatted_ci
    007707  aa  146 157 162 155
    007710  aa  141 164 164 145
    007711  aa  144 137 143 151
    007712  55   000732 000713
    007713  2a   000243 400001
    007714  55   000725 000003
    007715  aa  023 154 157 156         long_return_element
    007716  aa  147 137 162 145
    007717  aa  164 165 162 156
    007720  aa  137 145 154 145
    007721  aa  155 145 156 164
    007722  55   000743 000722
    007723  2a   000242 400001
    007724  55   000735 000003
    007725  aa  025 154 157 156         long_increment_length
    007726  aa  147 137 151 156
    007727  aa  143 162 145 155
    007730  aa  145 156 164 137
    007731  aa  154 145 156 147
    007732  aa  164 150 000 000
    007733  55   000752 000732
    007734  2a   000241 400001
    007735  55   000746 000003
    007736  aa  014 154 157 156         long_element
    007737  aa  147 137 145 154
    007740  aa  145 155 145 156
    007741  aa  164 000 000 000
    007742  55   000761 000743
    007743  2a   000240 400001
    007744  55   000755 000003
    007745  aa  014 154 157 143         lock_timeout
    007746  aa  153 137 164 151
    007747  aa  155 145 157 165
    007750  aa  164 000 000 000
    007751  55   000771 000752
    007752  2a   000237 400001
    007753  55   000764 000003
    007754  aa  023 154 157 143         lock_table_overflow
    007755  aa  153 137 164 141
    007756  aa  142 154 145 137
    007757  aa  157 166 145 162
    007760  aa  146 154 157 167
    007761  55   001001 000761
    007762  2a   000236 400001
    007763  55   000774 000003
    007764  aa  023 154 157 143         lock_process_active
    007765  aa  153 137 160 162
    007766  aa  157 143 145 163
    007767  aa  163 137 141 143
    007770  aa  164 151 166 145
    007771  55   001010 000771
    007772  2a   000235 400001
    007773  55   001004 000003
    007774  aa  016 154 157 143         lock_not_found
    007775  aa  153 137 156 157
    007776  aa  164 137 146 157
    007777  aa  165 156 144 000
    010000  55   001020 001001
    010001  2a   000234 400001
    010002  55   001013 000003
    010003  aa  020 154 157 143         lock_invalid_uid
    010004  aa  153 137 151 156
    010005  aa  166 141 154 151
    010006  aa  144 137 165 151
    010007  aa  144 000 000 000
    010010  55   001030 001010
    010011  2a   000233 400001
    010012  55   001023 000003
    010013  aa  021 154 157 143         lock_invalid_mode
    010014  aa  153 137 151 156
    010015  aa  166 141 154 151
    010016  aa  144 137 155 157
    010017  aa  144 145 000 000
    010020  55   001037 001020
    010021  2a   000232 400001
    010022  55   001033 000003
    010023  aa  015 154 157 143         lock_deadlock
    010024  aa  153 137 144 145
    010025  aa  141 144 154 157
    010026  aa  143 153 000 000
    010027  55   001047 001030
    010030  2a   000231 400001
    010031  55   001042 000003
    010032  aa  021 153 145 171         keys_out_of_order
    010033  aa  163 137 157 165
    010034  aa  164 137 157 146
    010035  aa  137 157 162 144
    010036  aa  145 162 000 000
    010037  55   001056 001037
    010040  2a   000230 400001
    010041  55   001052 000003
    010042  aa  015 153 145 171         key_not_found
    010043  aa  137 156 157 164
    010044  aa  137 146 157 165
    010045  aa  156 144 000 000
    010046  55   001065 001047
    010047  2a   000227 400001
    010050  55   001061 000003
    010051  aa  017 153 145 171         key_duplication
    010052  aa  137 144 165 160
    010053  aa  154 151 143 141
    010054  aa  164 151 157 156
    010055  55   001077 001056
    010056  2a   000226 400001
    010057  55   001070 000003
    010060  aa  033 151 156 166         invalid_specification_field
    010061  aa  141 154 151 144
    010062  aa  137 163 160 145
    010063  aa  143 151 146 151
    010064  aa  143 141 164 151
    010065  aa  157 156 137 146
    010066  aa  151 145 154 144
    010067  55   001106 001065
    010070  2a   000225 400001
    010071  55   001102 000003
    010072  aa  015 151 156 166         invalid_scope
    010073  aa  141 154 151 144
    010074  aa  137 163 143 157
    010075  aa  160 145 000 000
    010076  55   001115 001077
    010077  2a   000224 400001
    010100  55   001111 000003
    010101  aa  014 151 156 166         invalid_mode
    010102  aa  141 154 151 144
    010103  aa  137 155 157 144
    010104  aa  145 000 000 000
    010105  55   001126 001106
    010106  2a   000223 400001
    010107  55   001120 000003
    010110  aa  027 151 156 166         invalid_increment_words
    010111  aa  141 154 151 144
    010112  aa  137 151 156 143
    010113  aa  162 145 155 145
    010114  aa  156 164 137 167
    010115  aa  157 162 144 163
    010116  55   001140 001115
    010117  2a   000222 400001
    010120  55   001131 000003
    010121  aa  030 151 156 166         invalid_increment_offset
    010122  aa  141 154 151 144
    010123  aa  137 151 156 143
    010124  aa  162 145 155 145
    010125  aa  156 164 137 157
    010126  aa  146 146 163 145
    010127  aa  164 000 000 000
    010130  55   001150 001126
    010131  2a   000221 400001
    010132  55   001143 000003
    010133  aa  022 151 156 166         invalid_element_id
    010134  aa  141 154 151 144
    010135  aa  137 145 154 145
    010136  aa  155 145 156 164
    010137  aa  137 151 144 000
    010140  55   001161 001140
    010141  2a   000220 400001
    010142  55   001153 000003
    010143  aa  027 151 156 166         invalid_cursor_position
    010144  aa  141 154 151 144
    010145  aa  137 143 165 162
    010146  aa  163 157 162 137
    010147  aa  160 157 163 151
    010150  aa  164 151 157 156
    010151  55   001171 001150
    010152  2a   000217 400001
    010153  55   001164 000003
    010154  aa  023 151 156 166         invalid_current_txn
    010155  aa  141 154 151 144
    010156  aa  137 143 165 162
    010157  aa  162 145 156 164
    010160  aa  137 164 170 156
    010161  55   001201 001161
    010162  2a   000216 400001
    010163  55   001174 000003
    010164  aa  021 151 156 166         invalid_alignment
    010165  aa  141 154 151 144
    010166  aa  137 141 154 151
    010167  aa  147 156 155 145
    010170  aa  156 164 000 000
    010171  55   001212 001171
    010172  2a   000215 400001
    010173  55   001204 000003
    010174  aa  025 151 156 144         index_not_in_relation
    010175  aa  145 170 137 156
    010176  aa  157 164 137 151
    010177  aa  156 137 162 145
    010200  aa  154 141 164 151
    010201  aa  157 156 000 000
    010202  55   001223 001201
    010203  2a   000214 400001
    010204  55   001215 000003
    010205  aa  024 151 156 143         incr_array_not_found
    010206  aa  162 137 141 162
    010207  aa  162 141 171 137
    010210  aa  156 157 164 137
    010211  aa  146 157 165 156
    010212  aa  144 000 000 000
    010213  55   001235 001212
    010214  2a   000213 400001
    010215  55   001226 000003
    010216  aa  032 146 155 137         fm_xring_brackets_mismatch
    010217  aa  170 162 151 156
    010220  aa  147 137 142 162
    010221  aa  141 143 153 145
    010222  aa  164 163 137 155
    010223  aa  151 163 155 141
    010224  aa  164 143 150 000
    010225  55   001246 001223
    010226  2a   000212 400001
    010227  55   001240 000003
    010230  aa  027 146 155 137         fm_word_increment_error
    010231  aa  167 157 162 144
    010232  aa  137 151 156 143
    010233  aa  162 145 155 145
    010234  aa  156 164 137 145
    010235  aa  162 162 157 162
    010236  55   001257 001235
    010237  2a   000211 400001
    010240  55   001251 000003
    010241  aa  025 146 155 137         fm_uid_fnd_wrong_file
    010242  aa  165 151 144 137
    010243  aa  146 156 144 137
    010244  aa  167 162 157 156
    010245  aa  147 137 146 151
    010246  aa  154 145 000 000
    010247  55   001270 001246
    010250  2a   000210 400001
    010251  55   001262 000003
    010252  aa  024 146 155 137         fm_too_many_openings
    010253  aa  164 157 157 137
    010254  aa  155 141 156 171
    010255  aa  137 157 160 145
    010256  aa  156 151 156 147
    010257  aa  163 000 000 000
    010260  55   001301 001257
    010261  2a   000207 400001
    010262  55   001273 000003
    010263  aa  024 146 155 137         fm_sys_pne_clobbered
    010264  aa  163 171 163 137
    010265  aa  160 156 145 137
    010266  aa  143 154 157 142
    010267  aa  142 145 162 145
    010270  aa  144 000 000 000
    010271  55   001311 001270
    010272  2a   000206 400001
    010273  55   001304 000003
    010274  aa  022 146 155 137         fm_sys_pn_tbl_full
    010275  aa  163 171 163 137
    010276  aa  160 156 137 164
    010277  aa  142 154 137 146
    010300  aa  165 154 154 000
    010301  55   001321 001301
    010302  2a   000205 400001
    010303  55   001314 000003
    010304  aa  020 146 155 137         fm_proc_tbl_full
    010305  aa  160 162 157 143
    010306  aa  137 164 142 154
    010307  aa  137 146 165 154
    010310  aa  154 000 000 000
    010311  55   001332 001311
    010312  2a   000204 400001
    010313  55   001324 000003
    010314  aa  025 146 155 137         fm_old_uidpn_ptr_null
    010315  aa  157 154 144 137
    010316  aa  165 151 144 160
    010317  aa  156 137 160 164
    010320  aa  162 137 156 165
    010321  aa  154 154 000 000
    010322  55   001343 001321
    010323  2a   000203 400001
    010324  55   001335 000003
    010325  aa  026 146 155 137         fm_old_txn_not_flushed
    010326  aa  157 154 144 137
    010327  aa  164 170 156 137
    010330  aa  156 157 164 137
    010331  aa  146 154 165 163
    010332  aa  150 145 144 000
    010333  55   001352 001332
    010334  2a   000202 400001
    010335  55   001346 000003
    010336  aa  015 146 155 137         fm_num_ci_neg
    010337  aa  156 165 155 137
    010340  aa  143 151 137 156
    010341  aa  145 147 000 000
    010342  55   001361 001343
    010343  2a   000201 400001
    010344  55   001355 000003
    010345  aa  017 146 155 137         fm_first_ci_neg
    010346  aa  146 151 162 163
    010347  aa  164 137 143 151
    010350  aa  137 156 145 147
    010351  55   001371 001352
    010352  2a   000200 400001
    010353  55   001364 000003
    010354  aa  023 146 155 137         fm_cant_remove_name
    010355  aa  143 141 156 164
    010356  aa  137 162 145 155
    010357  aa  157 166 145 137
    010360  aa  156 141 155 145
    010361  55   001401 001361
    010362  2a   000177 400001
    010363  55   001374 000003
    010364  aa  021 146 155 137         fm_cant_free_ci_0
    010365  aa  143 141 156 164
    010366  aa  137 146 162 145
    010367  aa  145 137 143 151
    010370  aa  137 060 000 000
    010371  55   001410 001371
    010372  2a   000176 400001
    010373  55   001404 000003
    010374  aa  016 146 155 137         fm_bad_undo_op
    010375  aa  142 141 144 137
    010376  aa  165 156 144 157
    010377  aa  137 157 160 000
    010400  55   001421 001401
    010401  2a   000175 400001
    010402  55   001413 000003
    010403  aa  025 146 155 137         fm_bad_sys_pn_tbl_ver
    010404  aa  142 141 144 137
    010405  aa  163 171 163 137
    010406  aa  160 156 137 164
    010407  aa  142 154 137 166
    010410  aa  145 162 000 000
    010411  55   001432 001410
    010412  2a   000174 400001
    010413  55   001424 000003
    010414  aa  027 146 155 137         fm_bad_proc_txn_tbl_ver
    010415  aa  142 141 144 137
    010416  aa  160 162 157 143
    010417  aa  137 164 170 156
    010420  aa  137 164 142 154
    010421  aa  137 166 145 162
    010422  55   001444 001421
    010423  2a   000173 400001
    010424  55   001435 000003
    010425  aa  033 146 155 137         fm_bad_postcommit_operation
    010426  aa  142 141 144 137
    010427  aa  160 157 163 164
    010430  aa  143 157 155 155
    010431  aa  151 164 137 157
    010432  aa  160 145 162 141
    010433  aa  164 151 157 156
    010434  55   001454 001432
    010435  2a   000172 400001
    010436  55   001447 000003
    010437  aa  023 146 155 137         fm_bad_inc_info_ver
    010440  aa  142 141 144 137
    010441  aa  151 156 143 137
    010442  aa  151 156 146 157
    010443  aa  137 166 145 162
    010444  55   001464 001444
    010445  2a   000171 400001
    010446  55   001457 000003
    010447  aa  020 146 151 154         file_was_deleted
    010450  aa  145 137 167 141
    010451  aa  163 137 144 145
    010452  aa  154 145 164 145
    010453  aa  144 000 000 000
    010454  55   001474 001454
    010455  2a   000170 400001
    010456  55   001467 000003
    010457  aa  022 146 151 154         file_uid_not_found
    010460  aa  145 137 165 151
    010461  aa  144 137 156 157
    010462  aa  164 137 146 157
    010463  aa  165 156 144 000
    010464  55   001504 001464
    010465  2a   000167 400001
    010466  55   001477 000003
    010467  aa  021 146 151 154         file_uid_arg_null
    010470  aa  145 137 165 151
    010471  aa  144 137 141 162
    010472  aa  147 137 156 165
    010473  aa  154 154 000 000
    010474  55   001514 001474
    010475  2a   000166 400001
    010476  55   001507 000003
    010477  aa  020 146 151 154         file_not_dm_type
    010500  aa  145 137 156 157
    010501  aa  164 137 144 155
    010502  aa  137 164 171 160
    010503  aa  145 000 000 000
    010504  55   001525 001504
    010505  2a   000165 400001
    010506  55   001517 000003
    010507  aa  026 146 151 154         file_must_be_protected
    010510  aa  145 137 155 165
    010511  aa  163 164 137 142
    010512  aa  145 137 160 162
    010513  aa  157 164 145 143
    010514  aa  164 145 144 000
    010515  55   001533 001514
    010516  2a   000164 400001
    010517  55   001530 000003
    010520  aa  013 146 151 154         file_in_use
    010521  aa  145 137 151 156
    010522  aa  137 165 163 145
    010523  55   001543 001525
    010524  2a   000163 400001
    010525  55   001536 000003
    010526  aa  020 146 151 154         file_duplication
    010527  aa  145 137 144 165
    010530  aa  160 154 151 143
    010531  aa  141 164 151 157
    010532  aa  156 000 000 000
    010533  55   001553 001533
    010534  2a   000162 400001
    010535  55   001546 000003
    010536  aa  021 146 151 154         file_doesnt_exist
    010537  aa  145 137 144 157
    010540  aa  145 163 156 164
    010541  aa  137 145 170 151
    010542  aa  163 164 000 000
    010543  55   001563 001543
    010544  2a   000161 400001
    010545  55   001556 000003
    010546  aa  023 146 151 154         file_cr_info_mbz_nz
    010547  aa  145 137 143 162
    010550  aa  137 151 156 146
    010551  aa  157 137 155 142
    010552  aa  172 137 156 172
    010553  55   001573 001553
    010554  2a   000160 400001
    010555  55   001566 000003
    010556  aa  021 146 151 154         file_already_open
    010557  aa  145 137 141 154
    010560  aa  162 145 141 144
    010561  aa  171 137 157 160
    010562  aa  145 156 000 000
    010563  55   001603 001563
    010564  2a   000157 400001
    010565  55   001576 000003
    010566  aa  023 146 151 154         file_already_exists
    010567  aa  145 137 141 154
    010570  aa  162 145 141 144
    010571  aa  171 137 145 170
    010572  aa  151 163 164 163
    010573  55   001613 001573
    010574  2a   000156 400001
    010575  55   001606 000003
    010576  aa  021 146 141 163         fast_lock_timeout
    010577  aa  164 137 154 157
    010600  aa  143 153 137 164
    010601  aa  151 155 145 157
    010602  aa  165 164 000 000
    010603  55   001624 001603
    010604  2a   000155 400001
    010605  55   001616 000003
    010606  aa  024 146 141 163         fast_lock_not_locked
    010607  aa  164 137 154 157
    010610  aa  143 153 137 156
    010611  aa  157 164 137 154
    010612  aa  157 143 153 145
    010613  aa  144 000 000 000
    010614  55   001635 001613
    010615  2a   000154 400001
    010616  55   001627 000003
    010617  aa  025 146 141 163         fast_lock_not_cleared
    010620  aa  164 137 154 157
    010621  aa  143 153 137 156
    010622  aa  157 164 137 143
    010623  aa  154 145 141 162
    010624  aa  145 144 000 000
    010625  55   001645 001624
    010626  2a   000153 400001
    010627  55   001640 000003
    010630  aa  021 146 141 163         fast_lock_no_free
    010631  aa  164 137 154 157
    010632  aa  143 153 137 156
    010633  aa  157 137 146 162
    010634  aa  145 145 000 000
    010635  55   001655 001635
    010636  2a   000152 400001
    010637  55   001650 000003
    010640  aa  020 146 141 163         fast_lock_mylock
    010641  aa  164 137 154 157
    010642  aa  143 153 137 155
    010643  aa  171 154 157 143
    010644  aa  153 000 000 000
    010645  55   001666 001645
    010646  2a   000151 400001
    010647  55   001660 000003
    010650  aa  027 146 141 163         fast_lock_invalid_reset
    010651  aa  164 137 154 157
    010652  aa  143 153 137 151
    010653  aa  156 166 141 154
    010654  aa  151 144 137 162
    010655  aa  145 163 145 164
    010656  55   001677 001655
    010657  2a   000150 400001
    010660  55   001671 000003
    010661  aa  026 146 141 163         fast_lock_invalid_lock
    010662  aa  164 137 154 157
    010663  aa  143 153 137 151
    010664  aa  156 166 141 154
    010665  aa  151 144 137 154
    010666  aa  157 143 153 000
    010667  55   001707 001666
    010670  2a   000147 400001
    010671  55   001702 000003
    010672  aa  021 145 156 144         end_of_collection
    010673  aa  137 157 146 137
    010674  aa  143 157 154 154
    010675  aa  145 143 164 151
    010676  aa  157 156 000 000
    010677  55   001715 001677
    010700  2a   000146 400001
    010701  55   001712 000003
    010702  aa  012 156 157 137         no_element
    010703  aa  145 154 145 155
    010704  aa  145 156 164 000
    010705  55   001725 001707
    010706  2a   000146 400001
    010707  55   001720 000003
    010710  aa  021 145 154 145         element_not_found
    010711  aa  155 145 156 164
    010712  aa  137 156 157 164
    010713  aa  137 146 157 165
    010714  aa  156 144 000 000
    010715  55   001736 001715
    010716  2a   000145 400001
    010717  55   001730 000003
    010720  aa  025 144 155 137         dm_shutdown_not_sched
    010721  aa  163 150 165 164
    010722  aa  144 157 167 156
    010723  aa  137 156 157 164
    010724  aa  137 163 143 150
    010725  aa  145 144 000 000
    010726  55   001750 001725
    010727  2a   000144 400001
    010730  55   001741 000003
    010731  aa  032 144 145 154         delete_pending_transaction
    010732  aa  145 164 145 137
    010733  aa  160 145 156 144
    010734  aa  151 156 147 137
    010735  aa  164 162 141 156
    010736  aa  163 141 143 164
    010737  aa  151 157 156 000
    010740  55   001762 001736
    010741  2a   000143 400001
    010742  55   001753 000003
    010743  aa  032 143 157 154         collection_not_in_relation
    010744  aa  154 145 143 164
    010745  aa  151 157 156 137
    010746  aa  156 157 164 137
    010747  aa  151 156 137 162
    010750  aa  145 154 141 164
    010751  aa  151 157 156 000
    010752  55   001773 001750
    010753  2a   000142 400001
    010754  55   001765 000003
    010755  aa  024 143 157 154         collection_not_found
    010756  aa  154 145 143 164
    010757  aa  151 157 156 137
    010760  aa  156 157 164 137
    010761  aa  146 157 165 156
    010762  aa  144 000 000 000
    010763  55   002003 001762
    010764  2a   000141 400001
    010765  55   001776 000003
    010766  aa  023 143 157 154         col_is_inconsistent
    010767  aa  137 151 163 137
    010770  aa  151 156 143 157
    010771  aa  156 163 151 163
    010772  aa  164 145 156 164
    010773  55   002012 001773
    010774  2a   000140 400001
    010775  55   002006 000003
    010776  aa  014 143 151 137         ci_parts_oob
    010777  aa  160 141 162 164
    011000  aa  163 137 157 157
    011001  aa  142 000 000 000
    011002  55   002022 002003
    011003  2a   000137 400001
    011004  55   002015 000003
    011005  aa  020 143 151 137         ci_num_parts_neg
    011006  aa  156 165 155 137
    011007  aa  160 141 162 164
    011010  aa  163 137 156 145
    011011  aa  147 000 000 000
    011012  55   002030 002012
    011013  2a   000136 400001
    011014  55   002025 000003
    011015  aa  012 143 151 137         ci_num_oob
    011016  aa  156 165 155 137
    011017  aa  157 157 142 000
    011020  55   002041 002022
    011021  2a   000135 400001
    011022  55   002033 000003
    011023  aa  024 143 151 137         ci_not_in_collection
    011024  aa  156 157 164 137
    011025  aa  151 156 137 143
    011026  aa  157 154 154 145
    011027  aa  143 164 151 157
    011030  aa  156 000 000 000
    011031  55   002051 002030
    011032  2a   000134 400001
    011033  55   002044 000003
    011034  aa  020 143 151 137         ci_not_allocated
    011035  aa  156 157 164 137
    011036  aa  141 154 154 157
    011037  aa  143 141 164 145
    011040  aa  144 000 000 000
    011041  55   002061 002041
    011042  2a   000133 400001
    011043  55   002054 000003
    011044  aa  023 143 151 137         ci_buffer_too_small
    011045  aa  142 165 146 146
    011046  aa  145 162 137 164
    011047  aa  157 157 137 163
    011050  aa  155 141 154 154
    011051  55   002071 002051
    011052  2a   000132 400001
    011053  55   002064 000003
    011054  aa  020 143 151 137         ci_bad_stamp_ver
    011055  aa  142 141 144 137
    011056  aa  163 164 141 155
    011057  aa  160 137 166 145
    011060  aa  162 000 000 000
    011061  55   002100 002061
    011062  2a   000131 400001
    011063  55   002074 000003
    011064  aa  016 143 151 137         ci_bad_hdr_uid
    011065  aa  142 141 144 137
    011066  aa  150 144 162 137
    011067  aa  165 151 144 000
    011070  55   002111 002071
    011071  2a   000130 400001
    011072  55   002103 000003
    011073  aa  024 143 151 137         ci_bad_hdr_size_code
    011074  aa  142 141 144 137
    011075  aa  150 144 162 137
    011076  aa  163 151 172 145
    011077  aa  137 143 157 144
    011100  aa  145 000 000 000
    011101  55   002121 002100
    011102  2a   000127 400001
    011103  55   002114 000003
    011104  aa  021 143 151 137         ci_bad_hdr_id_num
    011105  aa  142 141 144 137
    011106  aa  150 144 162 137
    011107  aa  151 144 137 156
    011110  aa  165 155 000 000
    011111  55   002131 002111
    011112  2a   000126 400001
    011113  55   002124 000003
    011114  aa  022 143 151 137         ci_bad_hdr_arg_ver
    011115  aa  142 141 144 137
    011116  aa  150 144 162 137
    011117  aa  141 162 147 137
    011120  aa  166 145 162 000
    011121  55   002140 002121
    011122  2a   000125 400001
    011123  55   002134 000003
    011124  aa  017 143 151 137         ci_already_free
    011125  aa  141 154 162 145
    011126  aa  141 144 171 137
    011127  aa  146 162 145 145
    011130  55   002151 002131
    011131  2a   000124 400001
    011132  55   002143 000003
    011133  aa  024 143 151 137         ci_already_allocated
    011134  aa  141 154 162 145
    011135  aa  141 144 171 137
    011136  aa  141 154 154 157
    011137  aa  143 141 164 145
    011140  aa  144 000 000 000
    011141  55   002161 002140
    011142  2a   000123 400001
    011143  55   002154 000003
    011144  aa  021 143 151 137         ci_0_invalid_free
    011145  aa  060 137 151 156
    011146  aa  166 141 154 151
    011147  aa  144 137 146 162
    011150  aa  145 145 000 000
    011151  55   002174 002151
    011152  2a   000122 400001
    011153  55   002164 000003
    011154  aa  034 143 141 156         cant_buffer_ci_continuations
    011155  aa  164 137 142 165
    011156  aa  146 146 145 162
    011157  aa  137 143 151 137
    011160  aa  143 157 156 164
    011161  aa  151 156 165 141
    011162  aa  164 151 157 156
    011163  aa  163 000 000 000
    011164  55   002207 002161
    011165  2a   000121 400001
    011166  55   002177 000003
    011167  aa  036 142 152 137         bj_zero_txns_in_unfinished_rec
    011170  aa  172 145 162 157
    011171  aa  137 164 170 156
    011172  aa  163 137 151 156
    011173  aa  137 165 156 146
    011174  aa  151 156 151 163
    011175  aa  150 145 144 137
    011176  aa  162 145 143 000
    011177  55   002220 002174
    011200  2a   000120 400001
    011201  55   002212 000003
    011202  aa  024 142 152 137         bj_wrong_prev_rec_id
    011203  aa  167 162 157 156
    011204  aa  147 137 160 162
    011205  aa  145 166 137 162
    011206  aa  145 143 137 151
    011207  aa  144 000 000 000
    011210  55   002232 002207
    011211  2a   000117 400001
    011212  55   002223 000003
    011213  aa  031 142 152 137         bj_wrong_numb_txn_records
    011214  aa  167 162 157 156
    011215  aa  147 137 156 165
    011216  aa  155 142 137 164
    011217  aa  170 156 137 162
    011220  aa  145 143 157 162
    011221  aa  144 163 000 000
    011222  55   002243 002220
    011223  2a   000116 400001
    011224  55   002235 000003
    011225  aa  026 142 152 137         bj_unknown_record_type
    011226  aa  165 156 153 156
    011227  aa  157 167 156 137
    011230  aa  162 145 143 157
    011231  aa  162 144 137 164
    011232  aa  171 160 145 000
    011233  55   002254 002232
    011234  2a   000115 400001
    011235  55   002246 000003
    011236  aa  026 142 152 137         bj_unexpected_eot_mark
    011237  aa  165 156 145 170
    011240  aa  160 145 143 164
    011241  aa  145 144 137 145
    011242  aa  157 164 137 155
    011243  aa  141 162 153 000
    011244  55   002267 002243
    011245  2a   000114 400001
    011246  55   002257 000003
    011247  aa  034 142 152 137         bj_unexpected_committed_mark
    011250  aa  165 156 145 170
    011251  aa  160 145 143 164
    011252  aa  145 144 137 143
    011253  aa  157 155 155 151
    011254  aa  164 164 145 144
    011255  aa  137 155 141 162
    011256  aa  153 000 000 000
    011257  55   002301 002254
    011260  2a   000113 400001
    011261  55   002272 000003
    011262  aa  032 142 152 137         bj_unexpected_aborted_mark
    011263  aa  165 156 145 170
    011264  aa  160 145 143 164
    011265  aa  145 144 137 141
    011266  aa  142 157 162 164
    011267  aa  145 144 137 155
    011270  aa  141 162 153 000
    011271  55   002311 002267
    011272  2a   000112 400001
    011273  55   002304 000003
    011274  aa  022 142 152 137         bj_uids_dont_match
    011275  aa  165 151 144 163
    011276  aa  137 144 157 156
    011277  aa  164 137 155 141
    011300  aa  164 143 150 000
    011301  55   002321 002301
    011302  2a   000111 400001
    011303  55   002314 000003
    011304  aa  022 142 152 137         bj_uids_dont_agree
    011305  aa  165 151 144 163
    011306  aa  137 144 157 156
    011307  aa  164 137 141 147
    011310  aa  162 145 145 000
    011311  55   002331 002311
    011312  2a   000110 400001
    011313  55   002324 000003
    011314  aa  020 142 152 137         bj_txn_committed
    011315  aa  164 170 156 137
    011316  aa  143 157 155 155
    011317  aa  151 164 164 145
    011320  aa  144 000 000 000
    011321  55   002340 002321
    011322  2a   000107 400001
    011323  55   002334 000003
    011324  aa  016 142 152 137         bj_txn_aborted
    011325  aa  164 170 156 137
    011326  aa  141 142 157 162
    011327  aa  164 145 144 000
    011330  55   002352 002331
    011331  2a   000106 400001
    011332  55   002343 000003
    011333  aa  033 142 152 137         bj_too_many_unfinished_txns
    011334  aa  164 157 157 137
    011335  aa  155 141 156 171
    011336  aa  137 165 156 146
    011337  aa  151 156 151 163
    011340  aa  150 145 144 137
    011341  aa  164 170 156 163
    011342  55   002364 002340
    011343  2a   000105 400001
    011344  55   002355 000003
    011345  aa  032 142 152 137         bj_too_few_unfinished_txns
    011346  aa  164 157 157 137
    011347  aa  146 145 167 137
    011350  aa  165 156 146 151
    011351  aa  156 151 163 150
    011352  aa  145 144 137 164
    011353  aa  170 156 163 000
    011354  55   002374 002352
    011355  2a   000104 400001
    011356  55   002367 000003
    011357  aa  022 142 152 137         bj_too_few_records
    011360  aa  164 157 157 137
    011361  aa  146 145 167 137
    011362  aa  162 145 143 157
    011363  aa  162 144 163 000
    011364  55   002404 002364
    011365  2a   000103 400001
    011366  55   002377 000003
    011367  aa  023 142 152 137         bj_this_not_adopted
    011370  aa  164 150 151 163
    011371  aa  137 156 157 164
    011372  aa  137 141 144 157
    011373  aa  160 164 145 144
    011374  55   002415 002374
    011375  2a   000102 400001
    011376  55   002407 000003
    011377  aa  025 142 152 137         bj_rollback_bad_cp_no
    011400  aa  162 157 154 154
    011401  aa  142 141 143 153
    011402  aa  137 142 141 144
    011403  aa  137 143 160 137
    011404  aa  156 157 000 000
    011405  55   002425 002404
    011406  2a   000101 400001
    011407  55   002420 000003
    011410  aa  022 142 152 137         bj_recursive_invoc
    011411  aa  162 145 143 165
    011412  aa  162 163 151 166
    011413  aa  145 137 151 156
    011414  aa  166 157 143 000
    011415  55   002436 002415
    011416  2a   000100 400001
    011417  55   002430 000003
    011420  aa  026 142 152 137         bj_rec_txn_id_mismatch
    011421  aa  162 145 143 137
    011422  aa  164 170 156 137
    011423  aa  151 144 137 155
    011424  aa  151 163 155 141
    011425  aa  164 143 150 000
    011426  55   002450 002425
    011427  2a   000077 400001
    011430  55   002441 000003
    011431  aa  032 142 152 137         bj_rec_process_id_mismatch
    011432  aa  162 145 143 137
    011433  aa  160 162 157 143
    011434  aa  145 163 163 137
    011435  aa  151 144 137 155
    011436  aa  151 163 155 141
    011437  aa  164 143 150 000
    011440  55   002462 002436
    011441  2a   000076 400001
    011442  55   002453 000003
    011443  aa  031 142 152 137         bj_pst_not_enough_buffers
    011444  aa  160 163 164 137
    011445  aa  156 157 164 137
    011446  aa  145 156 157 165
    011447  aa  147 150 137 142
    011450  aa  165 146 146 145
    011451  aa  162 163 000 000
    011452  55   002471 002450
    011453  2a   000075 400001
    011454  55   002465 000003
    011455  aa  017 142 152 137         bj_pst_cit_full
    011456  aa  160 163 164 137
    011457  aa  143 151 164 137
    011460  aa  146 165 154 154
    011461  55   002477 002462
    011462  2a   000074 400001
    011463  55   002474 000003
    011464  aa  013 142 152 137         bj_ppt_full
    011465  aa  160 160 164 137
    011466  aa  146 165 154 154
    011467  55   002506 002471
    011470  2a   000073 400001
    011471  55   002502 000003
    011472  aa  015 142 152 137         bj_not_my_txn
    011473  aa  156 157 164 137
    011474  aa  155 171 137 164
    011475  aa  170 156 000 000
    011476  55   002521 002477
    011477  2a   000072 400001
    011500  55   002511 000003
    011501  aa  035 142 152 137         bj_not_all_opened_after_crash
    011502  aa  156 157 164 137
    011503  aa  141 154 154 137
    011504  aa  157 160 145 156
    011505  aa  145 144 137 141
    011506  aa  146 164 145 162
    011507  aa  137 143 162 141
    011510  aa  163 150 000 000
    011511  55   002530 002506
    011512  2a   000071 400001
    011513  55   002524 000003
    011514  aa  017 142 152 137         bj_not_adopting
    011515  aa  156 157 164 137
    011516  aa  141 144 157 160
    011517  aa  164 151 156 147
    011520  55   002541 002521
    011521  2a   000070 400001
    011522  55   002533 000003
    011523  aa  026 142 152 137         bj_no_previous_used_ci
    011524  aa  156 157 137 160
    011525  aa  162 145 166 151
    011526  aa  157 165 163 137
    011527  aa  165 163 145 144
    011530  aa  137 143 151 000
    011531  55   002551 002530
    011532  2a   000067 400001
    011533  55   002544 000003
    011534  aa  022 142 152 137         bj_no_next_used_ci
    011535  aa  156 157 137 156
    011536  aa  145 170 164 137
    011537  aa  165 163 145 144
    011540  aa  137 143 151 000
    011541  55   002564 002541
    011542  2a   000066 400001
    011543  55   002554 000003
    011544  aa  035 142 152 137         bj_neg_txns_in_unfinished_rec
    011545  aa  156 145 147 137
    011546  aa  164 170 156 163
    011547  aa  137 151 156 137
    011550  aa  165 156 146 151
    011551  aa  156 151 163 150
    011552  aa  145 144 137 162
    011553  aa  145 143 000 000
    011554  55   002575 002551
    011555  2a   000065 400001
    011556  55   002567 000003
    011557  aa  026 142 152 137         bj_needed_for_recovery
    011560  aa  156 145 145 144
    011561  aa  145 144 137 146
    011562  aa  157 162 137 162
    011563  aa  145 143 157 166
    011564  aa  145 162 171 000
    011565  55   002604 002564
    011566  2a   000064 400001
    011567  55   002600 000003
    011570  aa  014 142 152 137         bj_logic_err
    011571  aa  154 157 147 151
    011572  aa  143 137 145 162
    011573  aa  162 000 000 000
    011574  55   002616 002575
    011575  2a   000063 400001
    011576  55   002607 000003
    011577  aa  031 142 152 137         bj_journal_not_registered
    011600  aa  152 157 165 162
    011601  aa  156 141 154 137
    011602  aa  156 157 164 137
    011603  aa  162 145 147 151
    011604  aa  163 164 145 162
    011605  aa  145 144 000 000
    011606  55   002627 002604
    011607  2a   000062 400001
    011610  55   002621 000003
    011611  aa  025 142 152 137         bj_journal_not_opened
    011612  aa  152 157 165 162
    011613  aa  156 141 154 137
    011614  aa  156 157 164 137
    011615  aa  157 160 145 156
    011616  aa  145 144 000 000
    011617  55   002637 002616
    011620  2a   000061 400001
    011621  55   002632 000003
    011622  aa  021 142 152 137         bj_journal_in_use
    011623  aa  152 157 165 162
    011624  aa  156 141 154 137
    011625  aa  151 156 137 165
    011626  aa  163 145 000 000
    011627  55   002646 002627
    011630  2a   000060 400001
    011631  55   002642 000003
    011632  aa  017 142 152 137         bj_journal_full
    011633  aa  152 157 165 162
    011634  aa  156 141 154 137
    011635  aa  146 165 154 154
    011636  55   002655 002637
    011637  2a   000057 400001
    011640  55   002651 000003
    011641  aa  017 142 152 137         bj_invalid_name
    011642  aa  151 156 166 141
    011643  aa  154 151 144 137
    011644  aa  156 141 155 145
    011645  55   002665 002646
    011646  2a   000056 400001
    011647  55   002660 000003
    011650  aa  022 142 152 137         bj_inconsistent_ci
    011651  aa  151 156 143 157
    011652  aa  156 163 151 163
    011653  aa  164 145 156 164
    011654  aa  137 143 151 000
    011655  55   002676 002655
    011656  2a   000055 400001
    011657  55   002670 000003
    011660  aa  026 142 152 137         bj_incomplete_rollback
    011661  aa  151 156 143 157
    011662  aa  155 160 154 145
    011663  aa  164 145 137 162
    011664  aa  157 154 154 142
    011665  aa  141 143 153 000
    011666  55   002705 002665
    011667  2a   000054 400001
    011670  55   002701 000003
    011671  aa  017 142 152 137         bj_illegal_size
    011672  aa  151 154 154 145
    011673  aa  147 141 154 137
    011674  aa  163 151 172 145
    011675  55   002717 002676
    011676  2a   000053 400001
    011677  55   002710 000003
    011700  aa  032 142 152 137         bj_first_txn_rec_not_found
    011701  aa  146 151 162 163
    011702  aa  164 137 164 170
    011703  aa  156 137 162 145
    011704  aa  143 137 156 157
    011705  aa  164 137 146 157
    011706  aa  165 156 144 000
    011707  55   002726 002705
    011710  2a   000052 400001
    011711  55   002722 000003
    011712  aa  016 142 152 137         bj_cant_commit
    011713  aa  143 141 156 164
    011714  aa  137 143 157 155
    011715  aa  155 151 164 000
    011716  55   002735 002717
    011717  2a   000051 400001
    011720  55   002731 000003
    011721  aa  015 142 152 137         bj_cant_abort
    011722  aa  143 141 156 164
    011723  aa  137 141 142 157
    011724  aa  162 164 000 000
    011725  55   002745 002726
    011726  2a   000050 400001
    011727  55   002740 000003
    011730  aa  022 142 152 137         bj_bad_txt_version
    011731  aa  142 141 144 137
    011732  aa  164 170 164 137
    011733  aa  166 145 162 163
    011734  aa  151 157 156 000
    011735  55   002753 002735
    011736  2a   000047 400001
    011737  55   002750 000003
    011740  aa  012 142 152 137         bj_bad_tid
    011741  aa  142 141 144 137
    011742  aa  164 151 144 000
    011743  55   002762 002745
    011744  2a   000046 400001
    011745  55   002756 000003
    011746  aa  016 142 152 137         bj_bad_slot_no
    011747  aa  142 141 144 137
    011750  aa  163 154 157 164
    011751  aa  137 156 157 000
    011752  55   002771 002753
    011753  2a   000045 400001
    011754  55   002765 000003
    011755  aa  015 142 152 137         bj_bad_rec_id
    011756  aa  142 141 144 137
    011757  aa  162 145 143 137
    011760  aa  151 144 000 000
    011761  55   003001 002762
    011762  2a   000044 400001
    011763  55   002774 000003
    011764  aa  020 142 152 137         bj_bad_rec_count
    011765  aa  142 141 144 137
    011766  aa  162 145 143 137
    011767  aa  143 157 165 156
    011770  aa  164 000 000 000
    011771  55   003011 002771
    011772  2a   000043 400001
    011773  55   003004 000003
    011774  aa  023 142 152 137         bj_bad_pste_version
    011775  aa  142 141 144 137
    011776  aa  160 163 164 145
    011777  aa  137 166 145 162
    012000  aa  163 151 157 156
    012001  55   003020 003001
    012002  2a   000042 400001
    012003  55   003014 000003
    012004  aa  017 142 152 137         bj_bad_pste_ptr
    012005  aa  142 141 144 137
    012006  aa  160 163 164 145
    012007  aa  137 160 164 162
    012010  55   003027 003011
    012011  2a   000041 400001
    012012  55   003023 000003
    012013  aa  017 142 152 137         bj_bad_pste_idx
    012014  aa  142 141 144 137
    012015  aa  160 163 164 145
    012016  aa  137 151 144 170
    012017  55   003037 003020
    012020  2a   000040 400001
    012021  55   003032 000003
    012022  aa  022 142 152 137         bj_bad_pst_version
    012023  aa  142 141 144 137
    012024  aa  160 163 164 137
    012025  aa  166 145 162 163
    012026  aa  151 157 156 000
    012027  55   003047 003027
    012030  2a   000037 400001
    012031  55   003042 000003
    012032  aa  023 142 152 137         bj_bad_ppte_version
    012033  aa  142 141 144 137
    012034  aa  160 160 164 145
    012035  aa  137 166 145 162
    012036  aa  163 151 157 156
    012037  55   003057 003037
    012040  2a   000036 400001
    012041  55   003052 000003
    012042  aa  022 142 152 137         bj_bad_ppt_version
    012043  aa  142 141 144 137
    012044  aa  160 160 164 137
    012045  aa  166 145 162 163
    012046  aa  151 157 156 000
    012047  55   003066 003047
    012050  2a   000035 400001
    012051  55   003062 000003
    012052  aa  015 142 152 137         bj_bad_header
    012053  aa  142 141 144 137
    012054  aa  150 145 141 144
    012055  aa  145 162 000 000
    012056  55   003101 003057
    012057  2a   000034 400001
    012060  55   003071 000003
    012061  aa  034 142 152 137         bj_bad_first_txn_record_type
    012062  aa  142 141 144 137
    012063  aa  146 151 162 163
    012064  aa  164 137 164 170
    012065  aa  156 137 162 145
    012066  aa  143 157 162 144
    012067  aa  137 164 171 160
    012070  aa  145 000 000 000
    012071  55   003113 003066
    012072  2a   000033 400001
    012073  55   003104 000003
    012074  aa  030 142 152 137         bj_bad_continuation_flag
    012075  aa  142 141 144 137
    012076  aa  143 157 156 164
    012077  aa  151 156 165 141
    012100  aa  164 151 157 156
    012101  aa  137 146 154 141
    012102  aa  147 000 000 000
    012103  55   003123 003101
    012104  2a   000032 400001
    012105  55   003116 000003
    012106  aa  021 142 152 137         bj_bad_buffer_uid
    012107  aa  142 141 144 137
    012110  aa  142 165 146 146
    012111  aa  145 162 137 165
    012112  aa  151 144 000 000
    012113  55   003132 003113
    012114  2a   000031 400001
    012115  55   003126 000003
    012116  aa  014 142 152 137         bj_bad_ci_no
    012117  aa  142 141 144 137
    012120  aa  143 151 137 156
    012121  aa  157 000 000 000
    012122  55   003143 003123
    012123  2a   000030 400001
    012124  55   003135 000003
    012125  aa  027 142 145 147         beginning_of_collection
    012126  aa  151 156 156 151
    012127  aa  156 147 137 157
    012130  aa  146 137 143 157
    012131  aa  154 154 145 143
    012132  aa  164 151 157 156
    012133  55   003152 003132
    012134  2a   000027 400001
    012135  55   003146 000003
    012136  aa  017 142 141 144         bad_vector_type
    012137  aa  137 166 145 143
    012140  aa  164 157 162 137
    012141  aa  164 171 160 145
    012142  55   003163 003143
    012143  2a   000026 400001
    012144  55   003155 000003
    012145  aa  026 142 141 144         bad_specification_type
    012146  aa  137 163 160 145
    012147  aa  143 151 146 151
    012150  aa  143 141 164 151
    012151  aa  157 156 137 164
    012152  aa  171 160 145 000
    012153  55   003173 003152
    012154  2a   000025 400001
    012155  55   003166 000003
    012156  aa  022 142 141 144         bad_rel_cursor_pos
    012157  aa  137 162 145 154
    012160  aa  137 143 165 162
    012161  aa  163 157 162 137
    012162  aa  160 157 163 000
    012163  55   003203 003163
    012164  2a   000024 400001
    012165  55   003176 000003
    012166  aa  021 142 141 144         bad_parent_thread
    012167  aa  137 160 141 162
    012170  aa  145 156 164 137
    012171  aa  164 150 162 145
    012172  aa  141 144 000 000
    012173  55   003212 003173
    012174  2a   000023 400001
    012175  55   003206 000003
    012176  aa  015 142 141 144         bad_leaf_node
    012177  aa  137 154 145 141
    012200  aa  146 137 156 157
    012201  aa  144 145 000 000
    012202  55   003222 003203
    012203  2a   000022 400001
    012204  55   003215 000003
    012205  aa  020 142 141 144         bad_last_key_idx
    012206  aa  137 154 141 163
    012207  aa  164 137 153 145
    012210  aa  171 137 151 144
    012211  aa  170 000 000 000
    012212  55   003232 003212
    012213  2a   000021 400001
    012214  55   003225 000003
    012215  aa  021 142 141 144         bad_first_key_idx
    012216  aa  137 146 151 162
    012217  aa  163 164 137 153
    012220  aa  145 171 137 151
    012221  aa  144 170 000 000
    012222  55   003241 003222
    012223  2a   000020 400001
    012224  55   003235 000003
    012225  aa  014 142 141 144         bad_file_oid
    012226  aa  137 146 151 154
    012227  aa  145 137 157 151
    012230  aa  144 000 000 000
    012231  55   003252 003232
    012232  2a   000017 400001
    012233  55   003244 000003
    012234  aa  024 142 141 144         bad_file_cr_info_ver
    012235  aa  137 146 151 154
    012236  aa  145 137 143 162
    012237  aa  137 151 156 146
    012240  aa  157 137 166 145
    012241  aa  162 000 000 000
    012242  55   003262 003241
    012243  2a   000016 400001
    012244  55   003255 000003
    012245  aa  023 142 141 144         bad_file_cr_ci_size
    012246  aa  137 146 151 154
    012247  aa  145 137 143 162
    012250  aa  137 143 151 137
    012251  aa  163 151 172 145
    012252  55   003274 003252
    012253  2a   000015 400001
    012254  55   003265 000003
    012255  aa  033 142 141 144         bad_file_cr_blocking_factor
    012256  aa  137 146 151 154
    012257  aa  145 137 143 162
    012260  aa  137 142 154 157
    012261  aa  143 153 151 156
    012262  aa  147 137 146 141
    012263  aa  143 164 157 162
    012264  55   003304 003262
    012265  2a   000014 400001
    012266  55   003277 000003
    012267  aa  021 142 141 144         bad_file_atrs_ver
    012270  aa  137 146 151 154
    012271  aa  145 137 141 164
    012272  aa  162 163 137 166
    012273  aa  145 162 000 000
    012274  55   003314 003274
    012275  2a   000013 400001
    012276  55   003307 000003
    012277  aa  021 142 141 144         bad_file_atrs_uid
    012300  aa  137 146 151 154
    012301  aa  145 137 141 164
    012302  aa  162 163 137 165
    012303  aa  151 144 000 000
    012304  55   003325 003304
    012305  2a   000012 400001
    012306  55   003317 000003
    012307  aa  024 142 141 144         bad_file_atrs_length
    012310  aa  137 146 151 154
    012311  aa  145 137 141 164
    012312  aa  162 163 137 154
    012313  aa  145 156 147 164
    012314  aa  150 000 000 000
    012315  55   003335 003314
    012316  2a   000011 400001
    012317  55   003330 000003
    012320  aa  022 142 141 144         bad_element_length
    012321  aa  137 145 154 145
    012322  aa  155 145 156 164
    012323  aa  137 154 145 156
    012324  aa  147 164 150 000
    012325  55   003344 003325
    012326  2a   000010 400001
    012327  55   003340 000003
    012330  aa  015 141 162 145         area_overflow
    012331  aa  141 137 157 166
    012332  aa  145 162 146 154
    012333  aa  157 167 000 000
    012334  55   000002 003335
    012335  6a   000000 400002
    012336  55   003347 000003
    012337  aa  014 163 171 155         symbol_table
    012340  aa  142 157 154 137
    012341  aa  164 141 142 154
    012342  aa  145 000 000 000

DEFINITIONS HASH TABLE

    012343  aa   000000 000463
    012344  aa   000000 000000
    012345  5a   000316 000000
    012346  aa   000000 000000
    012347  aa   000000 000000
    012350  aa   000000 000000
    012351  5a   002003 000000
    012352  aa   000000 000000
    012353  5a   001246 000000
    012354  5a   001037 000000
    012355  5a   001115 000000
    012356  5a   001150 000000
    012357  5a   001321 000000
    012360  5a   000752 000000
    012361  5a   000516 000000
    012362  5a   001410 000000
    012363  5a   000370 000000
    012364  aa   000000 000000
    012365  aa   000000 000000
    012366  aa   000000 000000
    012367  5a   001077 000000
    012370  aa   000000 000000
    012371  aa   000000 000000
    012372  aa   000000 000000
    012373  5a   000743 000000
    012374  5a   001212 000000
    012375  5a   001624 000000
    012376  aa   000000 000000
    012377  aa   000000 000000
    012400  5a   000241 000000
    012401  5a   002051 000000
    012402  5a   002477 000000
    012403  5a   002726 000000
    012404  5a   002762 000000
    012405  5a   003057 000000
    012406  5a   003203 000000
    012407  5a   000761 000000
    012410  5a   000771 000000
    012411  5a   000476 000000
    012412  5a   000506 000000
    012413  aa   000000 000000
    012414  5a   002174 000000
    012415  5a   001301 000000
    012416  aa   000000 000000
    012417  5a   001773 000000
    012420  aa   000000 000000
    012421  aa   000000 000000
    012422  5a   000722 000000
    012423  aa   000000 000000
    012424  5a   000341 000000
    012425  5a   000550 000000
    012426  aa   000000 000000
    012427  5a   002207 000000
    012430  5a   000042 000000
    012431  5a   000132 000000
    012432  5a   003241 000000
    012433  5a   003314 000000
    012434  aa   000000 000000
    012435  aa   000000 000000
    012436  aa   000000 000000
    012437  aa   000000 000000
    012440  aa   000000 000000
    012441  aa   000000 000000
    012442  5a   002012 000000
    012443  5a   002041 000000
    012444  5a   000444 000000
    012445  5a   000606 000000
    012446  5a   000636 000000
    012447  5a   001065 000000
    012450  5a   001474 000000
    012451  5a   001010 000000
    012452  5a   001543 000000
    012453  5a   001563 000000
    012454  5a   001707 000000
    012455  5a   001750 000000
    012456  5a   002061 000000
    012457  5a   001352 000000
    012460  5a   001171 000000
    012461  5a   001725 000000
    012462  5a   002340 000000
    012463  5a   002745 000000
    012464  5a   003262 000000
    012465  aa   000000 000000
    012466  aa   000000 000000
    012467  aa   000000 000000
    012470  aa   000000 000000
    012471  5a   002627 000000
    012472  5a   000030 000000
    012473  5a   000454 000000
    012474  5a   000570 000000
    012475  5a   003113 000000
    012476  5a   003173 000000
    012477  5a   003222 000000
    012500  5a   001715 000000
    012501  5a   003274 000000
    012502  5a   003304 000000
    012503  aa   000000 000000
    012504  aa   000000 000000
    012505  aa   000000 000000
    012506  5a   001332 000000
    012507  5a   001126 000000
    012510  aa   000000 000000
    012511  aa   000000 000000
    012512  aa   000000 000000
    012513  5a   001030 000000
    012514  aa   000000 000000
    012515  aa   000000 000000
    012516  5a   000011 000000
    012517  5a   000204 000000
    012520  5a   003101 000000
    012521  aa   000000 000000
    012522  aa   000000 000000
    012523  5a   000614 000000
    012524  5a   000433 000000
    012525  aa   000000 000000
    012526  5a   001666 000000
    012527  5a   001201 000000
    012530  aa   000000 000000
    012531  aa   000000 000000
    012532  aa   000000 000000
    012533  5a   002030 000000
    012534  5a   002100 000000
    012535  5a   002140 000000
    012536  5a   002331 000000
    012537  5a   002717 000000
    012540  5a   002753 000000
    012541  aa   000000 000000
    012542  5a   000305 000000
    012543  5a   000330 000000
    012544  aa   000000 000000
    012545  aa   000000 000000
    012546  5a   002022 000000
    012547  5a   001736 000000
    012550  5a   001361 000000
    012551  5a   001056 000000
    012552  5a   001444 000000
    012553  5a   001525 000000
    012554  5a   001762 000000
    012555  aa   000000 000000
    012556  aa   000000 000000
    012557  aa   000000 000000
    012560  aa   000000 000000
    012561  5a   000154 000000
    012562  5a   002404 000000
    012563  5a   002161 000000
    012564  5a   000111 000000
    012565  5a   002616 000000
    012566  aa   000000 000000
    012567  aa   000000 000000
    012570  5a   000540 000000
    012571  aa   000000 000000
    012572  aa   000000 000000
    012573  aa   000000 000000
    012574  aa   000000 000000
    012575  5a   002111 000000
    012576  5a   002151 000000
    012577  5a   001223 000000
    012600  5a   000215 000000
    012601  5a   001464 000000
    012602  5a   002471 000000
    012603  aa   000000 000000
    012604  5a   001020 000000
    012605  aa   000000 000000
    012606  aa   000000 000000
    012607  aa   000000 000000
    012610  aa   000000 000000
    012611  5a   002254 000000
    012612  5a   001311 000000
    012613  5a   000067 000000
    012614  5a   001140 000000
    012615  5a   003066 000000
    012616  aa   000000 000000
    012617  aa   000000 000000
    012620  aa   000000 000000
    012621  5a   003335 000000
    012622  aa   000000 000000
    012623  5a   000174 000000
    012624  5a   002301 000000
    012625  5a   002311 000000
    012626  5a   002364 000000
    012627  5a   002415 000000
    012630  5a   002541 000000
    012631  5a   002655 000000
    012632  5a   001645 000000
    012633  5a   002735 000000
    012634  5a   003027 000000
    012635  5a   003047 000000
    012636  5a   003163 000000
    012637  5a   002071 000000
    012640  5a   003325 000000
    012641  5a   001235 000000
    012642  5a   000233 000000
    012643  5a   000666 000000
    012644  5a   000411 000000
    012645  5a   000424 000000
    012646  5a   000576 000000
    012647  5a   001001 000000
    012650  5a   001421 000000
    012651  5a   001677 000000
    012652  aa   000000 000000
    012653  5a   002220 000000
    012654  5a   001343 000000
    012655  5a   000121 000000
    012656  5a   000654 000000
    012657  5a   002450 000000
    012660  5a   002604 000000
    012661  5a   001655 000000
    012662  aa   000000 000000
    012663  aa   000000 000000
    012664  5a   000352 000000
    012665  aa   000000 000000
    012666  5a   002462 000000
    012667  5a   002521 000000
    012670  5a   001514 000000
    012671  5a   002637 000000
    012672  5a   002646 000000
    012673  5a   002676 000000
    012674  5a   003011 000000
    012675  5a   003020 000000
    012676  5a   003143 000000
    012677  aa   000000 000000
    012700  aa   000000 000000
    012701  aa   000000 000000
    012702  aa   000000 000000
    012703  5a   001257 000000
    012704  5a   001270 000000
    012705  aa   000000 000000
    012706  aa   000000 000000
    012707  aa   000000 000000
    012710  5a   000732 000000
    012711  5a   003132 000000
    012712  aa   000000 000000
    012713  aa   000000 000000
    012714  aa   000000 000000
    012715  5a   002232 000000
    012716  5a   002243 000000
    012717  5a   001106 000000
    012720  5a   000674 000000
    012721  5a   002425 000000
    012722  5a   002530 000000
    012723  5a   001613 000000
    012724  5a   002564 000000
    012725  5a   002665 000000
    012726  5a   003152 000000
    012727  aa   000000 000000
    012730  5a   002121 000000
    012731  5a   002575 000000
    012732  5a   001432 000000
    012733  5a   001553 000000
    012734  5a   001573 000000
    012735  5a   003123 000000
    012736  5a   003232 000000
    012737  5a   000263 000000
    012740  5a   000274 000000
    012741  5a   000526 000000
    012742  aa   000000 000000
    012743  aa   000000 000000
    012744  5a   002506 000000
    012745  5a   001371 000000
    012746  5a   001047 000000
    012747  5a   001161 000000
    012750  5a   002551 000000
    012751  aa   000000 000000
    012752  aa   000000 000000
    012753  aa   000000 000000
    012754  aa   000000 000000
    012755  5a   000713 000000
    012756  5a   000164 000000
    012757  5a   002374 000000
    012760  5a   000055 000000
    012761  5a   000101 000000
    012762  5a   003001 000000
    012763  5a   000466 000000
    012764  5a   003037 000000
    012765  5a   001603 000000
    012766  5a   000250 000000
    012767  5a   001635 000000
    012770  5a   003252 000000
    012771  aa   000000 000000
    012772  5a   002131 000000
    012773  5a   000021 000000
    012774  5a   001454 000000
    012775  5a   000705 000000
    012776  5a   001504 000000
    012777  5a   001533 000000
    013000  aa   000000 000000
    013001  aa   000000 000000
    013002  aa   000000 000000
    013003  aa   000000 000000
    013004  5a   000360 000000
    013005  aa   000000 000000
    013006  5a   002267 000000
    013007  5a   000560 000000
    013010  5a   000142 000000
    013011  5a   001401 000000
    013012  5a   000400 000000
    013013  5a   002352 000000
    013014  5a   002436 000000
    013015  5a   002705 000000
    013016  aa   000000 000000
    013017  5a   003344 000000
    013020  aa   000000 000000
    013021  5a   000223 000000
    013022  5a   002321 000000
    013023  5a   002771 000000
    013024  5a   000626 000000
    013025  5a   000644 000000
    013026  5a   003212 000000

NO EXTERNAL NAMES

NO TRAP POINTER WORDS

TYPE PAIR BLOCKS

    013027  aa   000001 000000
    013030  aa   000000 000000

INTERNAL EXPRESSION WORDS

    013031  50   004037 000000
LINKAGE INFORMATION

    000000  aa   000000 000000
    000001  02   006770 000334
    000002  aa   000000 000000
    000003  aa   000000 000000
    000004  aa   000000 000000
    000005  aa   000000 000000
    000006  22   000332 000337
    000007  a2   000000 000322
    000332  9a   777446 0000 46         *text|
    000333  5a   004041 0000 00

FIRST REFERENCE TRAP LIST

    000334  aa   000000 000001
    000335  aa   000000 000001
    000336  2a   000332 000000
    000337  aa   000000 000000
SYMBOL INFORMATION

SYMBOL TABLE HEADER

    000000  aa   000000 000001
    000001  aa   163171 155142
    000002  aa   164162 145145
    000003  aa   000000 000007
    000004  aa   000000 115030
    000005  aa   273207 326355
    000006  aa   000000 115270
    000007  aa   037460 116651
    000010  aa   141154 155040
    000011  aa   040040 040040
    000012  aa   000024 000040
    000013  aa   000034 000040
    000014  aa   000044 000100
    000015  aa   000002 000002
    000016  aa   000064 000000
    000017  aa   000000 001132
    000020  aa   000000 000135
    000021  aa   000515 000446
    000022  aa   001122 000135
    000023  aa   000064 000000
    000024  aa   101114 115040
    000025  aa   126145 162163
    000026  aa   151157 156040
    000027  aa   067056 063040
    000030  aa   116157 166145
    000031  aa   155142 145162
    000032  aa   040061 071070
    000033  aa   066040 040040
    000034  aa   107112 157150
    000035  aa   156163 157156
    000036  aa   056123 171163
    000037  aa   115141 151156
    000040  aa   164056 141040
    000041  aa   040040 040040
    000042  aa   040040 040040
    000043  aa   040040 040040
    000044  aa   055164 141162
    000045  aa   147145 164040
    000046  aa   154066 070040
    000047  aa   040040 040040
    000050  aa   040040 040040
    000051  aa   040040 040040
    000052  aa   040040 040040
    000053  aa   040040 040040
    000054  aa   040040 040040
    000055  aa   040040 040040
    000056  aa   040154 151163
    000057  aa   164040 163171
    000060  aa   155142 157154
    000061  aa   163040 040040
    000062  aa   040040 040040
    000063  aa   040040 040040
    000064  aa   000000 000001
    000065  aa   000000 000003
    000066  aa   000102 000047
    000067  aa   152616 033012
    000070  aa   000000 115270
    000071  aa   034050 600000
    000072  aa   000114 000037
    000073  aa   120665 316464
    000074  aa   000000 112067
    000075  aa   253504 600000
    000076  aa   000124 000042
    000077  aa   147777 464111
    000100  aa   000000 115000
    000101  aa   507463 000000
    000102  aa   076163 160145          >spec>install>MR12.1-1020>dm_error_.alm
    000103  aa   143076 151156
    000104  aa   163164 141154
    000105  aa   154076 115122
    000106  aa   061062 056061
    000107  aa   055061 060062
    000110  aa   060076 144155
    000111  aa   137145 162162
    000112  aa   157162 137056
    000113  aa   141154 155040
    000114  aa   076154 144144          >ldd>include>et_macros.incl.alm
    000115  aa   076151 156143
    000116  aa   154165 144145
    000117  aa   076145 164137
    000120  aa   155141 143162
    000121  aa   157163 056151
    000122  aa   156143 154056
    000123  aa   141154 155040
    000124  aa   076154 144144          >ldd>include>stack_header.incl.alm
    000125  aa   076151 156143
    000126  aa   154165 144145
    000127  aa   076163 164141
    000130  aa   143153 137150
    000131  aa   145141 144145
    000132  aa   162056 151156
    000133  aa   143154 056141
    000134  aa   154155 040040
               MULTICS ASSEMBLY CROSS REFERENCE LISTING

   Value        Symbol                   Source file   Line number

                *text                    dm_error_:    119.
          14    .._00000                 dm_error_:    123.
          34    .._00001                 dm_error_:    126.
          51    .._00002                 dm_error_:    129.
         105    .._00003                 dm_error_:    132.
         126    .._00004                 dm_error_:    135.
         145    .._00005                 dm_error_:    138.
         166    .._00006                 dm_error_:    141.
         212    .._00007                 dm_error_:    144.
         231    .._00010                 dm_error_:    147.
         250    .._00011                 dm_error_:    150.
         262    .._00012                 dm_error_:    153.
         274    .._00013                 dm_error_:    156.
         311    .._00014                 dm_error_:    159.
         332    .._00015                 dm_error_:    162.
         354    .._00016                 dm_error_:    165.
         377    .._00017                 dm_error_:    168.
         421    .._00020                 dm_error_:    171.
         445    .._00021                 dm_error_:    174.
         466    .._00022                 dm_error_:    177.
         515    .._00023                 dm_error_:    180.
         525    .._00024                 dm_error_:    183.
         556    .._00025                 dm_error_:    186.
         575    .._00026                 dm_error_:    189.
         614    .._00027                 dm_error_:    192.
         634    .._00030                 dm_error_:    195.
         653    .._00031                 dm_error_:    198.
         671    .._00032                 dm_error_:    201.
         707    .._00033                 dm_error_:    204.
         730    .._00034                 dm_error_:    207.
         755    .._00035                 dm_error_:    210.
         763    .._00036                 dm_error_:    213.
        1013    .._00037                 dm_error_:    216.
        1045    .._00040                 dm_error_:    219.
        1064    .._00041                 dm_error_:    222.
        1105    .._00042                 dm_error_:    225.
        1126    .._00043                 dm_error_:    228.
        1154    .._00044                 dm_error_:    231.
        1176    .._00045                 dm_error_:    234.
        1215    .._00046                 dm_error_:    237.
        1240    .._00047                 dm_error_:    240.
        1261    .._00050                 dm_error_:    243.
        1272    .._00051                 dm_error_:    246.
        1321    .._00052                 dm_error_:    249.
        1337    .._00053                 dm_error_:    252.
        1361    .._00054                 dm_error_:    255.
        1406    .._00055                 dm_error_:    258.
        1431    .._00056                 dm_error_:    261.
        1463    .._00057                 dm_error_:    264.
        1507    .._00060                 dm_error_:    267.
        1534    .._00061                 dm_error_:    270.
        1561    .._00062                 dm_error_:    273.
        1603    .._00063                 dm_error_:    276.
        1624    .._00064                 dm_error_:    279.
        1636    .._00065                 dm_error_:    282.
        1653    .._00066                 dm_error_:    285.
        1672    .._00067                 dm_error_:    288.
        1721    .._00070                 dm_error_:    291.
        1753    .._00071                 dm_error_:    294.
        1777    .._00072                 dm_error_:    297.
        2015    .._00073                 dm_error_:    300.
        2040    .._00074                 dm_error_:    303.
        2066    .._00075                 dm_error_:    306.
        2122    .._00076                 dm_error_:    309.
        2155    .._00077                 dm_error_:    312.
        2170    .._00100                 dm_error_:    315.
        2203    .._00101                 dm_error_:    318.
        2240    .._00102                 dm_error_:    321.
        2270    .._00103                 dm_error_:    324.
        2316    .._00104                 dm_error_:    327.
        2344    .._00105                 dm_error_:    330.
        2403    .._00106                 dm_error_:    333.
        2422    .._00107                 dm_error_:    336.
        2454    .._00110                 dm_error_:    339.
        2514    .._00111                 dm_error_:    342.
        2543    .._00112                 dm_error_:    345.
        2564    .._00113                 dm_error_:    348.
        2600    .._00114                 dm_error_:    351.
        2615    .._00115                 dm_error_:    354.
        2631    .._00116                 dm_error_:    357.
        2651    .._00117                 dm_error_:    360.
        2673    .._00120                 dm_error_:    363.
        2714    .._00121                 dm_error_:    366.
        2737    .._00122                 dm_error_:    369.
        2762    .._00123                 dm_error_:    372.
        3005    .._00124                 dm_error_:    375.
        3023    .._00125                 dm_error_:    378.
        3050    .._00126                 dm_error_:    381.
        3070    .._00127                 dm_error_:    384.
        3111    .._00130                 dm_error_:    387.
        3135    .._00131                 dm_error_:    390.
        3152    .._00132                 dm_error_:    393.
        3166    .._00133                 dm_error_:    396.
        3213    .._00134                 dm_error_:    399.
        3236    .._00135                 dm_error_:    402.
        3253    .._00136                 dm_error_:    405.
        3263    .._00137                 dm_error_:    408.
        3305    .._00140                 dm_error_:    411.
        3324    .._00141                 dm_error_:    414.
        3355    .._00142                 dm_error_:    417.
        3374    .._00143                 dm_error_:    420.
        3417    .._00144                 dm_error_:    423.
        3441    .._00145                 dm_error_:    426.
        3457    .._00146                 dm_error_:    429.
        3500    .._00147                 dm_error_:    432.
        3515    .._00150                 dm_error_:    435.
        3532    .._00151                 dm_error_:    438.
        3553    .._00152                 dm_error_:    441.
        3570    .._00153                 dm_error_:    444.
        3616    .._00154                 dm_error_:    447.
        3642    .._00155                 dm_error_:    450.
        3672    .._00156                 dm_error_:    453.
        3711    .._00157                 dm_error_:    456.
        3735    .._00160                 dm_error_:    459.
        3765    .._00161                 dm_error_:    462.
        3776    .._00162                 dm_error_:    465.
        4020    .._00163                 dm_error_:    468.
        4046    .._00164                 dm_error_:    471.
        4073    .._00165                 dm_error_:    474.
        4121    .._00166                 dm_error_:    477.
        4146    .._00167                 dm_error_:    480.
        4171    .._00170                 dm_error_:    483.
        4205    .._00171                 dm_error_:    486.
        4233    .._00172                 dm_error_:    489.
        4257    .._00173                 dm_error_:    492.
        4304    .._00174                 dm_error_:    495.
        4324    .._00175                 dm_error_:    498.
        4353    .._00176                 dm_error_:    501.
        4374    .._00177                 dm_error_:    504.
        4422    .._00200                 dm_error_:    507.
        4452    .._00201                 dm_error_:    510.
        4477    .._00202                 dm_error_:    513.
        4525    .._00203                 dm_error_:    516.
        4552    .._00204                 dm_error_:    519.
        4603    .._00205                 dm_error_:    522.
        4620    .._00206                 dm_error_:    525.
        4644    .._00207                 dm_error_:    528.
        4671    .._00210                 dm_error_:    531.
        4710    .._00211                 dm_error_:    534.
        4734    .._00212                 dm_error_:    537.
        4760    .._00213                 dm_error_:    540.
        5002    .._00214                 dm_error_:    543.
        5014    .._00215                 dm_error_:    546.
        5030    .._00216                 dm_error_:    549.
        5056    .._00217                 dm_error_:    552.
        5066    .._00220                 dm_error_:    555.
        5075    .._00221                 dm_error_:    558.
        5113    .._00222                 dm_error_:    561.
        5131    .._00223                 dm_error_:    564.
        5145    .._00224                 dm_error_:    567.
        5163    .._00225                 dm_error_:    570.
        5173    .._00226                 dm_error_:    573.
        5210    .._00227                 dm_error_:    576.
        5221    .._00230                 dm_error_:    579.
        5241    .._00231                 dm_error_:    582.
        5267    .._00232                 dm_error_:    585.
        5310    .._00233                 dm_error_:    588.
        5332    .._00234                 dm_error_:    591.
        5353    .._00235                 dm_error_:    594.
        5365    .._00236                 dm_error_:    597.
        5400    .._00237                 dm_error_:    600.
        5407    .._00240                 dm_error_:    603.
        5441    .._00241                 dm_error_:    606.
        5463    .._00242                 dm_error_:    609.
        5477    .._00243                 dm_error_:    612.
        5520    .._00244                 dm_error_:    615.
        5533    .._00245                 dm_error_:    618.
        5552    .._00246                 dm_error_:    621.
        5572    .._00247                 dm_error_:    624.
        5614    .._00250                 dm_error_:    627.
        5633    .._00251                 dm_error_:    630.
        5651    .._00252                 dm_error_:    633.
        5673    .._00253                 dm_error_:    636.
        5707    .._00254                 dm_error_:    639.
        5730    .._00255                 dm_error_:    642.
        5745    .._00256                 dm_error_:    645.
        5770    .._00257                 dm_error_:    648.
        6001    .._00260                 dm_error_:    651.
        6021    .._00261                 dm_error_:    654.
        6034    .._00262                 dm_error_:    657.
        6057    .._00263                 dm_error_:    660.
        6077    .._00264                 dm_error_:    663.
        6131    .._00265                 dm_error_:    666.
        6147    .._00266                 dm_error_:    669.
        6162    .._00267                 dm_error_:    672.
        6175    .._00270                 dm_error_:    675.
        6204    .._00271                 dm_error_:    678.
        6230    .._00272                 dm_error_:    681.
        6244    .._00273                 dm_error_:    684.
        6260    .._00274                 dm_error_:    687.
        6301    .._00275                 dm_error_:    690.
        6316    .._00276                 dm_error_:    693.
        6335    .._00277                 dm_error_:    696.
        6350    .._00300                 dm_error_:    699.
        6360    .._00301                 dm_error_:    702.
        6377    .._00302                 dm_error_:    705.
        6423    .._00303                 dm_error_:    708.
        6442    .._00304                 dm_error_:    711.
        6461    .._00305                 dm_error_:    714.
        6501    .._00306                 dm_error_:    717.
        6522    .._00307                 dm_error_:    720.
        6550    .._00310                 dm_error_:    723.
        6574    .._00311                 dm_error_:    726.
        6607    .._00312                 dm_error_:    729.
        6633    .._00313                 dm_error_:    732.
        6653    .._00314                 dm_error_:    735.
        6672    .._00315                 dm_error_:    738.
        6713    .._00316                 dm_error_:    741.
        6733    .._00317                 dm_error_:    744.
        6747    .._00320                 dm_error_:    747.
         331    .code_end                dm_error_:    119.
          10    .code_start              dm_error_:    119.
           5    .loop                    dm_error_:    119.
       77777    .segno                   dm_error_:    119,  123,  126,  129,  132,  135,  138,  141,  144,  147,  150,  153,
                                                       156,  159,  162,  165,  168,  171,  174,  177,  180,  183,  186,  189,
                                                       192,  195,  198,  201,  204,  207,  210,  213,  216,  219,  222,  225,
                                                       228,  231,  234,  237,  240,  243,  246,  249,  252,  255,  258,  261,
                                                       264,  267,  270,  273,  276,  279,  282,  285,  288,  291,  294,  297,
                                                       300,  303,  306,  309,  312,  315,  318,  321,  324,  327,  330,  333,
                                                       336,  339,  342,  345,  348,  351,  354,  357,  360,  363,  366,  369,
                                                       372,  375,  378,  381,  384,  387,  390,  393,  396,  399,  402,  405,
                                                       408,  411,  414,  417,  420,  423,  426,  429,  432,  435,  438,  441,
                                                       444,  447,  450,  453,  456,  459,  462,  465,  468,  471,  474,  477,
                                                       480,  483,  486,  489,  492,  495,  498,  501,  504,  507,  510,  513,
                                                       516,  519,  522,  525,  528,  531,  534,  537,  540,  543,  546,  549,
                                                       552,  555,  558,  561,  564,  567,  570,  573,  576,  579,  582,  585,
                                                       588,  591,  594,  597,  600,  603,  606,  609,  612,  615,  618,  621,
                                                       624,  627,  630,  633,  636,  639,  642,  645,  648,  651,  654,  657,
                                                       660,  663,  666,  669,  672,  675,  678,  681,  684,  687,  690,  693,
                                                       696,  699,  702,  705,  708,  711,  714,  717,  720,  723,  726,  729,
                                                       732,  735,  738,  741,  744,  747.
           0    .trapproc                dm_error_:    119.
          10    area_overflow            dm_error_:    123.
          11    bad_element_length       dm_error_:    126.
          12    bad_file_atrs_length     dm_error_:    129.
          13    bad_file_atrs_uid        dm_error_:    132.
          14    bad_file_atrs_ver        dm_error_:    135.
          15    bad_file_cr_blocking_factor    dm_error_:    138.
          16    bad_file_cr_ci_size      dm_error_:    141.
          17    bad_file_cr_info_ver     dm_error_:    144.
          20    bad_file_oid             dm_error_:    147.
          21    bad_first_key_idx        dm_error_:    150.
          22    bad_last_key_idx         dm_error_:    153.
          23    bad_leaf_node            dm_error_:    156.
          24    bad_parent_thread        dm_error_:    159.
          25    bad_rel_cursor_pos       dm_error_:    162.
          26    bad_specification_type   dm_error_:    165.
          27    bad_vector_type          dm_error_:    168.
          30    beginning_of_collection  dm_error_:    171.
          32    bj_bad_buffer_uid        dm_error_:    177.
          31    bj_bad_ci_no             dm_error_:    174.
          33    bj_bad_continuation_flag       dm_error_:    180.
          34    bj_bad_first_txn_record_type   dm_error_:    183.
          35    bj_bad_header            dm_error_:    186.
          37    bj_bad_ppte_version      dm_error_:    192.
          36    bj_bad_ppt_version       dm_error_:    189.
          41    bj_bad_pste_idx          dm_error_:    198.
          42    bj_bad_pste_ptr          dm_error_:    201.
          43    bj_bad_pste_version      dm_error_:    204.
          40    bj_bad_pst_version       dm_error_:    195.
          44    bj_bad_rec_count         dm_error_:    207.
          45    bj_bad_rec_id            dm_error_:    210.
          46    bj_bad_slot_no           dm_error_:    213.
          47    bj_bad_tid               dm_error_:    216.
          50    bj_bad_txt_version       dm_error_:    219.
          51    bj_cant_abort            dm_error_:    222.
          52    bj_cant_commit           dm_error_:    225.
          53    bj_first_txn_rec_not_found     dm_error_:    228.
          54    bj_illegal_size          dm_error_:    231.
          55    bj_incomplete_rollback   dm_error_:    234.
          56    bj_inconsistent_ci       dm_error_:    237.
          57    bj_invalid_name          dm_error_:    240.
          60    bj_journal_full          dm_error_:    243.
          61    bj_journal_in_use        dm_error_:    246.
          62    bj_journal_not_opened    dm_error_:    249.
          63    bj_journal_not_registered      dm_error_:    252.
          64    bj_logic_err             dm_error_:    255.
          65    bj_needed_for_recovery   dm_error_:    258.
          66    bj_neg_txns_in_unfinished_rec  dm_error_:    261.
          71    bj_not_adopting          dm_error_:    270.
          72    bj_not_all_opened_after_crash  dm_error_:    273.
          73    bj_not_my_txn            dm_error_:    276.
          67    bj_no_next_used_ci       dm_error_:    264.
          70    bj_no_previous_used_ci   dm_error_:    267.
          74    bj_ppt_full              dm_error_:    279.
          75    bj_pst_cit_full          dm_error_:    282.
          76    bj_pst_not_enough_buffers      dm_error_:    285.
         101    bj_recursive_invoc       dm_error_:    294.
          77    bj_rec_process_id_mismatch     dm_error_:    288.
         100    bj_rec_txn_id_mismatch   dm_error_:    291.
         102    bj_rollback_bad_cp_no    dm_error_:    297.
         103    bj_this_not_adopted      dm_error_:    300.
         104    bj_too_few_records       dm_error_:    303.
         105    bj_too_few_unfinished_txns     dm_error_:    306.
         106    bj_too_many_unfinished_txns    dm_error_:    309.
         107    bj_txn_aborted           dm_error_:    312.
         110    bj_txn_committed         dm_error_:    315.
         111    bj_uids_dont_agree       dm_error_:    318.
         112    bj_uids_dont_match       dm_error_:    321.
         113    bj_unexpected_aborted_mark     dm_error_:    324.
         114    bj_unexpected_committed_mark   dm_error_:    327.
         115    bj_unexpected_eot_mark   dm_error_:    330.
         116    bj_unknown_record_type   dm_error_:    333.
         117    bj_wrong_numb_txn_records      dm_error_:    336.
         120    bj_wrong_prev_rec_id     dm_error_:    339.
         121    bj_zero_txns_in_unfinished_rec       dm_error_:    342.
        1170    call_offset              stack_header:        80.
         122    cant_buffer_ci_continuations   dm_error_:    345.
         123    ci_0_invalid_free        dm_error_:    348.
         124    ci_already_allocated     dm_error_:    351.
         125    ci_already_free          dm_error_:    354.
         126    ci_bad_hdr_arg_ver       dm_error_:    357.
         127    ci_bad_hdr_id_num        dm_error_:    360.
         130    ci_bad_hdr_size_code     dm_error_:    363.
         131    ci_bad_hdr_uid           dm_error_:    366.
         132    ci_bad_stamp_ver         dm_error_:    369.
         133    ci_buffer_too_small      dm_error_:    372.
         134    ci_not_allocated         dm_error_:    375.
         135    ci_not_in_collection     dm_error_:    378.
         136    ci_num_oob               dm_error_:    381.
         137    ci_num_parts_neg         dm_error_:    384.
         140    ci_parts_oob             dm_error_:    387.
          10    codes                    dm_error_:    119,  123,  126,  129,  132,  135,  138,  141,  144,  147,  150,  153,
                                                       156,  159,  162,  165,  168,  171,  174,  177,  180,  183,  186,  189,
                                                       192,  195,  198,  201,  204,  207,  210,  213,  216,  219,  222,  225,
                                                       228,  231,  234,  237,  240,  243,  246,  249,  252,  255,  258,  261,
                                                       264,  267,  270,  273,  276,  279,  282,  285,  288,  291,  294,  297,
                                                       300,  303,  306,  309,  312,  315,  318,  321,  324,  327,  330,  333,
                                                       336,  339,  342,  345,  348,  351,  354,  357,  360,  363,  366,  369,
                                                       372,  375,  378,  381,  384,  387,  390,  393,  396,  399,  402,  405,
                                                       408,  411,  414,  417,  420,  423,  426,  429,  432,  435,  438,  441,
                                                       444,  447,  450,  453,  456,  459,  462,  465,  468,  471,  474,  477,
                                                       480,  483,  486,  489,  492,  495,  498,  501,  504,  507,  510,  513,
                                                       516,  519,  522,  525,  528,  531,  534,  537,  540,  543,  546,  549,
                                                       552,  555,  558,  561,  564,  567,  570,  573,  576,  579,  582,  585,
                                                       588,  591,  594,  597,  600,  603,  606,  609,  612,  615,  618,  621,
                                                       624,  627,  630,  633,  636,  639,  642,  645,  648,  651,  654,  657,
                                                       660,  663,  666,  669,  672,  675,  678,  681,  684,  687,  690,  693,
                                                       696,  699,  702,  705,  708,  711,  714,  717,  720,  723,  726,  729,
                                                       732,  735,  738,  741,  744,  747.
         142    collection_not_found     dm_error_:    393.
         143    collection_not_in_relation     dm_error_:    396.
         141    col_is_inconsistent      dm_error_:    390.
         144    delete_pending_transaction     dm_error_:    399.
         145    dm_shutdown_not_sched    dm_error_:    402.
         146    element_not_found        dm_error_:    405.
         147    end_of_collection        dm_error_:    408.
        1174    entry_offset             stack_header:        84.
         150    fast_lock_invalid_lock   dm_error_:    411.
         151    fast_lock_invalid_reset  dm_error_:    414.
         152    fast_lock_mylock         dm_error_:    417.
         154    fast_lock_not_cleared    dm_error_:    423.
         155    fast_lock_not_locked     dm_error_:    426.
         153    fast_lock_no_free        dm_error_:    420.
         156    fast_lock_timeout        dm_error_:    429.
         157    file_already_exists      dm_error_:    432.
         160    file_already_open        dm_error_:    435.
         161    file_cr_info_mbz_nz      dm_error_:    438.
         162    file_doesnt_exist        dm_error_:    441.
         163    file_duplication         dm_error_:    444.
         164    file_in_use              dm_error_:    447.
         165    file_must_be_protected   dm_error_:    450.
         166    file_not_dm_type         dm_error_:    453.
         167    file_uid_arg_null        dm_error_:    456.
         170    file_uid_not_found       dm_error_:    459.
         171    file_was_deleted         dm_error_:    462.
         172    fm_bad_inc_info_ver      dm_error_:    465.
         173    fm_bad_postcommit_operation    dm_error_:    468.
         174    fm_bad_proc_txn_tbl_ver  dm_error_:    471.
         175    fm_bad_sys_pn_tbl_ver    dm_error_:    474.
         176    fm_bad_undo_op           dm_error_:    477.
         177    fm_cant_free_ci_0        dm_error_:    480.
         200    fm_cant_remove_name      dm_error_:    483.
         201    fm_first_ci_neg          dm_error_:    486.
         202    fm_num_ci_neg            dm_error_:    489.
         203    fm_old_txn_not_flushed   dm_error_:    492.
         204    fm_old_uidpn_ptr_null    dm_error_:    495.
         205    fm_proc_tbl_full         dm_error_:    498.
         207    fm_sys_pne_clobbered     dm_error_:    504.
         206    fm_sys_pn_tbl_full       dm_error_:    501.
         210    fm_too_many_openings     dm_error_:    507.
         211    fm_uid_fnd_wrong_file    dm_error_:    510.
         212    fm_word_increment_error  dm_error_:    513.
         213    fm_xring_brackets_mismatch     dm_error_:    516.
         214    incr_array_not_found     dm_error_:    519.
         215    index_not_in_relation    dm_error_:    522.
         216    invalid_alignment        dm_error_:    525.
         217    invalid_current_txn      dm_error_:    528.
         220    invalid_cursor_position  dm_error_:    531.
         221    invalid_element_id       dm_error_:    534.
         222    invalid_increment_offset       dm_error_:    537.
         223    invalid_increment_words  dm_error_:    540.
         224    invalid_mode             dm_error_:    543.
         225    invalid_scope            dm_error_:    546.
         226    invalid_specification_field    dm_error_:    549.
         231    keys_out_of_order        dm_error_:    558.
         227    key_duplication          dm_error_:    552.
         230    key_not_found            dm_error_:    555.
         232    lock_deadlock            dm_error_:    561.
         233    lock_invalid_mode        dm_error_:    564.
         234    lock_invalid_uid         dm_error_:    567.
         235    lock_not_found           dm_error_:    570.
         236    lock_process_active      dm_error_:    573.
         237    lock_table_overflow      dm_error_:    576.
         240    lock_timeout             dm_error_:    579.
         241    long_element             dm_error_:    582.
         242    long_increment_length    dm_error_:    585.
         243    long_return_element      dm_error_:    588.
           0    messages                 dm_error_:    119,  123,  126,  129,  132,  135,  138,  141,  144,  147,  150,  153,
                                                       156,  159,  162,  165,  168,  171,  174,  177,  180,  183,  186,  189,
                                                       192,  195,  198,  201,  204,  207,  210,  213,  216,  219,  222,  225,
                                                       228,  231,  234,  237,  240,  243,  246,  249,  252,  255,  258,  261,
                                                       264,  267,  270,  273,  276,  279,  282,  285,  288,  291,  294,  297,
                                                       300,  303,  306,  309,  312,  315,  318,  321,  324,  327,  330,  333,
                                                       336,  339,  342,  345,  348,  351,  354,  357,  360,  363,  366,  369,
                                                       372,  375,  378,  381,  384,  387,  390,  393,  396,  399,  402,  405,
                                                       408,  411,  414,  417,  420,  423,  426,  429,  432,  435,  438,  441,
                                                       444,  447,  450,  453,  456,  459,  462,  465,  468,  471,  474,  477,
                                                       480,  483,  486,  489,  492,  495,  498,  501,  504,  507,  510,  513,
                                                       516,  519,  522,  525,  528,  531,  534,  537,  540,  543,  546,  549,
                                                       552,  555,  558,  561,  564,  567,  570,  573,  576,  579,  582,  585,
                                                       588,  591,  594,  597,  600,  603,  606,  609,  612,  615,  618,  621,
                                                       624,  627,  630,  633,  636,  639,  642,  645,  648,  651,  654,  657,
                                                       660,  663,  666,  669,  672,  675,  678,  681,  684,  687,  690,  693,
                                                       696,  699,  702,  705,  708,  711,  714,  717,  720,  723,  726,  729,
                                                       732,  735,  738,  741,  744,  747.
         244    misformatted_ci          dm_error_:    591.
         256    non_empty_relation       dm_error_:    621.
         257    not_daemon               dm_error_:    624.
         260    not_own_transaction      dm_error_:    627.
         245    no_begins                dm_error_:    594.
         246    no_current_transaction   dm_error_:    597.
         247    no_datum                 dm_error_:    600.
         250    no_delete_dir_transaction      dm_error_:    603.
         146    no_element               dm_error_:    405.
         251    no_header_record         dm_error_:    606.
         252    no_opening               dm_error_:    609.
         253    no_output_buffer         dm_error_:    612.
         254    no_suspended_transaction       dm_error_:    615.
         310    no_tuple                 dm_error_:    699.
         311    no_tuple_id              dm_error_:    702.
         255    no_user_dm               dm_error_:    618.
         261    open_table_damaged       dm_error_:    630.
         262    partial_recovery         dm_error_:    633.
         331    past_codes               dm_error_:    119.
         263    per_process_area_overflow      dm_error_:    636.
         264    per_system_not_init      dm_error_:    639.
         265    process_not_found        dm_error_:    642.
         266    programming_error        dm_error_:    645.
        1171    push_offset              stack_header:        81.
         267    record_not_found         dm_error_:    648.
         272    record_quota_overflow    dm_error_:    657.
         271    relation_not_open        dm_error_:    654.
         270    rel_cursor_spec_mismatch       dm_error_:    651.
        1173    return_no_pop_offset     stack_header:        83.
        1172    return_offset            stack_header:        82.
         273    short_buffer             dm_error_:    660.
          73    stach_header.trace_top_ptr     stack_header:        62.
          66    stack_header.assign_linkage_ptr      stack_header:        59.
          32    stack_header.bar_mode_sp       stack_header:        42.
          36    stack_header.call_op_ptr       stack_header:        44.
          10    stack_header.clr_ptr     stack_header:        27.
           6    stack_header.combined_stat_ptr       stack_header:        25.
           4    stack_header.cpm_data_ptr      stack_header:        24.
          13    stack_header.cpm_enabled       stack_header:        32.
          13    stack_header.cur_lot_size      stack_header:        31.
          64    stack_header.ect_ptr     stack_header:        58.
          46    stack_header.entry_op_ptr      stack_header:        49.
          70    stack_header.heap_header_ptr   stack_header:        60.
          74    stack_header.in_trace    stack_header:        63.
          52    stack_header.isot_ptr    stack_header:        52.
          26    stack_header.lot_ptr     dm_error_:    119,
                                         stack_header:        39.
          12    stack_header.main_proc_invoked       stack_header:        29.
          12    stack_header.max_lot_size      stack_header:        28.
          20    stack_header.parent_ptr  stack_header:        36.
          34    stack_header.pl1_operators_ptr       stack_header:        43.
          40    stack_header.push_op_ptr       stack_header:        46.
          42    stack_header.return_op_ptr     stack_header:        47.
          44    stack_header.ret_no_pop_op_ptr       stack_header:        48.
          62    stack_header.rnt_ptr     stack_header:        57.
          12    stack_header.run_unit_depth    stack_header:        30.
          54    stack_header.sct_ptr     stack_header:        53.
          30    stack_header.signal_ptr  stack_header:        41.
          22    stack_header.stack_begin_ptr   stack_header:        37.
          24    stack_header.stack_end_ptr     stack_header:        38.
          14    stack_header.system_free_ptr   stack_header:        33.
          60    stack_header.sys_link_info_ptr       stack_header:        56.
          72    stack_header.trace_frames      stack_header:        61.
          50    stack_header.trans_op_tv_ptr   stack_header:        51.
          56    stack_header.unwinder_ptr      stack_header:        54.
          16    stack_header.user_free_ptr     stack_header:        34.
         100    stack_header_end         stack_header:        64.
         274    system_config_file_checksum_err      dm_error_:    663.
         275    system_not_initialized   dm_error_:    666.
         276    tdt_entry_in_use         dm_error_:    669.
         277    tdt_entry_not_freed      dm_error_:    672.
         300    tdt_full                 dm_error_:    675.
         301    too_many_bootload_dirs   dm_error_:    678.
           0    trace_frames.count       stack_header:        69.
           1    trace_frames.top_ptr     stack_header:        70.
         307    transactions_out_of_sequence   dm_error_:    696.
         302    transaction_in_progress  dm_error_:    681.
         303    transaction_not_abandoned      dm_error_:    684.
         304    transaction_not_current  dm_error_:    687.
         305    transaction_not_found    dm_error_:    690.
         306    transaction_suspended    dm_error_:    693.
         310    tuple_not_found          dm_error_:    699.
         311    tuple_not_found_id       dm_error_:    702.
         551    tv_offset                stack_header:        75,   80,   81,   82,   83,   84.
         312    unexpected_search_case   dm_error_:    705.
         313    unfinished_abort         dm_error_:    708.
         314    unfinished_commit        dm_error_:    711.
         315    unfinished_rollback      dm_error_:    714.
         317    unimplemented_cism       dm_error_:    720.
         316    unimplemented_ci_version       dm_error_:    717.
         320    unimplemented_data_type  dm_error_:    723.
         321    unimplemented_entry      dm_error_:    726.
         322    unimplemented_esm        dm_error_:    729.
         323    unimplemented_spec_version     dm_error_:    732.
         326    unsupported_spec_operator      dm_error_:    741.
         324    unsup_search_spec_head_type    dm_error_:    735.
         325    unsup_search_spec_range_type   dm_error_:    738.
         327    valid_process            dm_error_:    744.
         330    wrong_cursor_type        dm_error_:    747.


NO FATAL ERRORS


                                          -----------------------------------------------------------


Historical Background

This edition of the Multics software materials and documentation is provided and donated
to Massachusetts Institute of Technology by Group BULL including BULL HN Information Systems Inc.
as a contribution to computer science knowledge.
This donation is made also to give evidence of the common contributions of Massachusetts Institute of Technology,
Bell Laboratories, General Electric, Honeywell Information Systems Inc., Honeywell BULL Inc., Groupe BULL
and BULL HN Information Systems Inc. to the development of this operating system.
Multics development was initiated by Massachusetts Institute of Technology Project MAC (1963-1970),
renamed the MIT Laboratory for Computer Science and Artificial Intelligence in the mid 1970s, under the leadership
of Professor Fernando Jose Corbato. Users consider that Multics provided the best software architecture
for managing computer hardware properly and for executing programs. Many subsequent operating systems
incorporated Multics principles.
Multics was distributed in 1975 to 2000 by Group Bull in Europe , and in the U.S. by Bull HN Information Systems Inc.,
as successor in interest by change in name only to Honeywell Bull Inc. and Honeywell Information Systems Inc. .

                                          -----------------------------------------------------------

Permission to use, copy, modify, and distribute these programs and their documentation for any purpose and without
fee is hereby granted,provided that the below copyright notice and historical background appear in all copies
and that both the copyright notice and historical background and this permission notice appear in supporting
documentation, and that the names of MIT, HIS, BULL or BULL HN not be used in advertising or publicity pertaining
to distribution of the programs without specific prior written permission.
    Copyright 1972 by Massachusetts Institute of Technology and Honeywell Information Systems Inc.
    Copyright 2006 by BULL HN Information Systems Inc.
    Copyright 2006 by Bull SAS
    All Rights Reserved
