ASSEMBLY LISTING OF SEGMENT >spec>temp>famis1>dm_gen_checksum_.alm
ASSEMBLED ON:	01/03/85  1430.7 mst Thu
OPTIONS USED:	list
ASSEMBLED BY:	ALM Version  6.6  November 1982
ASSEMBLER CREATED:	09/21/83  1227.3 mst Wed

                                     1  " ***********************************************************
                                     2  " *                                                         *
                                     3  " * Copyright, (C) Honeywell Information Systems Inc., 1983 *
                                     4  " *                                                         *
                                     5  " ***********************************************************
                                     6  " " " " " " " " " " " " " " " " " " " " " " " " " " " " " " " " " " " " " " " "
                                     7  "
                                     8  "	dm_gen_checksum_ - subroutine to calculate checksums for data
                                     9  "	management tables using technique described in MPM Reference
                                    10  "	Guide.
                                    11  "
                                    12  "
                                    13  "	Usage:
                                    14  "	     dcl  dm_gen_checksum_ entry (ptr, fixed bin (18), fixed bin (35));
                                    15  "	     call dm_gen_checksum_ (table_ptr, n_words, checksum);
                                    16  "
                                    17  "	written March 1983 by M. Pandolf
                                    18  "
                                    19  " " " " " " " " " " " " " " " " " " " " " " " " " " " " " " " " " " " " " " " "
                                    20
    000000                          21  	name	dm_gen_checksum_
                        000000      22  	entry	dm_gen_checksum_
                                    23
                        000001      24  	equ	offset,1		"x1 is an offset into the table
                        000002      25  	equ	words_left,2	"x2 counts number of words still to
                                    26  				"be summed
                        000002      27  	equ	table_ptr,2	"parm_no of table_ptr
                        000004      28  	equ	table_size,4	"parm_no of n_words
                        000006      29  	equ	checksum,6	"parm_no of checksum
                        000006      30  	equ	indics,6		"use last parm as storage for
                                    31  				"indicators during calculations
                        004000      32  	bool	ovfl_mask,004000	"mask for inhibiting overflow
                                    33
    000000                          34  dm_gen_checksum_:
                                    35
    000000  aa  0 00002 3521 20     36  	eppbp	ap|table_ptr,*	"get pointer to pointer to table
    000001  aa  2 00000 3521 20     37  	eppbp	bp|0,*		"get pointer to table
                                    38
    000002  aa   004000 6340 07     39  	ldi	ovfl_mask,dl	"inhibit overflow fault
    000003  aa  0 00006 7541 20     40  	sti	ap|indics,*	"save indicators
    000004  aa   000000 2350 07     41  	lda	0,dl		"initialize A-reg to zero
    000005  aa   000000 6210 00     42  	eax	offset 0		"offset into table initialized
                                    43
    000006  aa  0 00004 7221 20     44  	lxl	words_left ap|table_size,*
                                    45  				"load x2 with word count
    000007  0a   000017 6000 00     46  loop:	tze	done		"if x2 zero, then finish
                                    47
    000010  aa  0 00006 6341 20     48  	ldi	ap|indics,*	"restore indicators
    000011  aa  2 00000 0711 11     49  	awca	bp|0,offset	"add with carry to checksum
    000012  aa  0 00006 7541 20     50  	sti	ap|indics,*	"save indicators because they become
                                    51  				"modified by eax
    000013  aa   000001 7750 00     52  	alr	1		"rotate A-reg left
    000014  aa   000001 6210 11     53  	eax	offset 1,offset	"and bump offset counter
    000015  aa   777777 6220 12     54  	eax	words_left -1,words_left
                                    55  				"decrement amount still to go
    000016  0a   000007 7100 00     56  	tra	loop		"see if any more to do
                                    57
    000017  aa  0 00006 6341 20     58  done:	ldi	ap|indics,*	"restore indicators
    000020  aa   000000 0710 07     59  	awca	0,dl		"add in carry, if any
    000021  aa   000000 0710 07     60  	awca	0,dl		"pick up carry generated by
                                    61  				"prev instruction
    000022  aa  0 00006 7551 20     62  	sta	ap|checksum,*	"return arg
                                    63
    000023  aa  7 00044 7101 20     64  	short_return
                                    65
                                    66  	end
ENTRY SEQUENCES

    000024  5a   000013 0000 00
    000025  aa  7 00046 2721 20
    000026  0a   000000 7100 00

NO LITERALS

NAME DEFINITIONS FOR ENTRY POINTS AND SEGDEFS

    000030  5a   000003 000000
    000031  5a   000032 600000
    000032  aa   000000 000000
    000033  55   000013 000002
    000034  5a   000002 400003
    000035  55   000006 000013
    000036  aa  020 144 155 137
    000037  aa  147 145 156 137
    000040  aa  143 150 145 143
    000041  aa  153 163 165 155
    000042  aa  137 000 000 000
    000043  55   000023 000003
    000044  0a   000025 500000
    000045  55   000016 000003
    000046  aa  020 144 155 137         dm_gen_checksum_
    000047  aa  147 145 156 137
    000050  aa  143 150 145 143
    000051  aa  153 163 165 155
    000052  aa  137 000 000 000
    000053  55   000002 000013
    000054  6a   000000 400002
    000055  55   000026 000003
    000056  aa  014 163 171 155         symbol_table
    000057  aa  142 157 154 137
    000060  aa  164 141 142 154
    000061  aa  145 000 000 000

DEFINITIONS HASH TABLE

    000062  aa   000000 000015
    000063  aa   000000 000000
    000064  aa   000000 000000
    000065  aa   000000 000000
    000066  aa   000000 000000
    000067  aa   000000 000000
    000070  5a   000013 000000
    000071  5a   000023 000000
    000072  aa   000000 000000
    000073  aa   000000 000000
    000074  aa   000000 000000
    000075  aa   000000 000000
    000076  aa   000000 000000
    000077  aa   000000 000000

NO EXTERNAL NAMES

NO TRAP POINTER WORDS

TYPE PAIR BLOCKS

    000100  aa   000001 000000
    000101  aa   000000 000000

INTERNAL EXPRESSION WORDS

LINKAGE INFORMATION

    000000  aa   000000 000000
    000001  0a   000030 000000
    000002  aa   000000 000000
    000003  aa   000000 000000
    000004  aa   000000 000000
    000005  aa   000000 000000
    000006  22   000010 000010
    000007  a2   000000 000000
SYMBOL INFORMATION

SYMBOL TABLE HEADER

    000000  aa   000000 000001
    000001  aa   163171 155142
    000002  aa   164162 145145
    000003  aa   000000 000004
    000004  aa   000000 112143
    000005  aa   305203 523135
    000006  aa   000000 113262
    000007  aa   325471 552377
    000010  aa   141154 155040
    000011  aa   040040 040040
    000012  aa   000024 000040
    000013  aa   000034 000040
    000014  aa   000044 000100
    000015  aa   000002 000002
    000016  aa   000064 000000
    000017  aa   000000 000121
    000020  aa   000000 000104
    000021  aa   000000 000110
    000022  aa   000113 000104
    000023  aa   000064 000000
    000024  aa   101114 115040
    000025  aa   126145 162163
    000026  aa   151157 156040
    000027  aa   040066 056066
    000030  aa   040040 116157
    000031  aa   166145 155142
    000032  aa   145162 040061
    000033  aa   071070 062040
    000034  aa   107112 157150
    000035  aa   156163 157156
    000036  aa   056123 171163
    000037  aa   115141 151156
    000040  aa   164056 155040
    000041  aa   040040 040040
    000042  aa   040040 040040
    000043  aa   040040 040040
    000044  aa   154151 163164
    000045  aa   040040 040040
    000046  aa   040040 040040
    000047  aa   040040 040040
    000050  aa   040040 040040
    000051  aa   040040 040040
    000052  aa   040040 040040
    000053  aa   040040 040040
    000054  aa   040040 040040
    000055  aa   040040 040040
    000056  aa   040040 040040
    000057  aa   040040 040040
    000060  aa   040040 040040
    000061  aa   040040 040040
    000062  aa   040040 040040
    000063  aa   040040 040040
    000064  aa   000000 000001
    000065  aa   000000 000001
    000066  aa   000072 000046
    000067  aa   132620 757124
    000070  aa   000000 113262
    000071  aa   215730 000000
    000072  aa   076163 160145          >spec>temp>famis1>dm_gen_checksum_.alm
    000073  aa   143076 164145
    000074  aa   155160 076146
    000075  aa   141155 151163
    000076  aa   061076 144155
    000077  aa   137147 145156
    000100  aa   137143 150145
    000101  aa   143153 163165
    000102  aa   155137 056141
    000103  aa   154155 040040
               MULTICS ASSEMBLY CROSS REFERENCE LISTING

   Value        Symbol                   Source file   Line number

           6    checksum                 dm_gen_checksum_:    29,   62.
           0    dm_gen_checksum_         dm_gen_checksum_:    22,   34.
          17    done                     dm_gen_checksum_:    46,   58.
           6    indics                   dm_gen_checksum_:    30,   40,   48,   50,   58.
           7    loop                     dm_gen_checksum_:    46,   56.
           1    offset                   dm_gen_checksum_:    24,   42,   49,   53.
        4000    ovfl_mask                dm_gen_checksum_:    32,   39.
           2    table_ptr                dm_gen_checksum_:    27,   36.
           4    table_size               dm_gen_checksum_:    28,   44.
           2    words_left               dm_gen_checksum_:    25,   44,   54.


NO FATAL ERRORS


                                          -----------------------------------------------------------


Historical Background

This edition of the Multics software materials and documentation is provided and donated
to Massachusetts Institute of Technology by Group BULL including BULL HN Information Systems Inc.
as a contribution to computer science knowledge.
This donation is made also to give evidence of the common contributions of Massachusetts Institute of Technology,
Bell Laboratories, General Electric, Honeywell Information Systems Inc., Honeywell BULL Inc., Groupe BULL
and BULL HN Information Systems Inc. to the development of this operating system.
Multics development was initiated by Massachusetts Institute of Technology Project MAC (1963-1970),
renamed the MIT Laboratory for Computer Science and Artificial Intelligence in the mid 1970s, under the leadership
of Professor Fernando Jose Corbato. Users consider that Multics provided the best software architecture
for managing computer hardware properly and for executing programs. Many subsequent operating systems
incorporated Multics principles.
Multics was distributed in 1975 to 2000 by Group Bull in Europe , and in the U.S. by Bull HN Information Systems Inc.,
as successor in interest by change in name only to Honeywell Bull Inc. and Honeywell Information Systems Inc. .

                                          -----------------------------------------------------------

Permission to use, copy, modify, and distribute these programs and their documentation for any purpose and without
fee is hereby granted,provided that the below copyright notice and historical background appear in all copies
and that both the copyright notice and historical background and this permission notice appear in supporting
documentation, and that the names of MIT, HIS, BULL or BULL HN not be used in advertising or publicity pertaining
to distribution of the programs without specific prior written permission.
    Copyright 1972 by Massachusetts Institute of Technology and Honeywell Information Systems Inc.
    Copyright 2006 by BULL HN Information Systems Inc.
    Copyright 2006 by Bull SAS
    All Rights Reserved
