ASSEMBLY LISTING OF SEGMENT >udd>sm>ds>w>ml>dm_log_read_.alm
ASSEMBLED ON:	04/17/00  1931.9 mdt Mon
OPTIONS USED:	list symbols
ASSEMBLED BY:	ALM Version 8.14 March 1989
ASSEMBLER CREATED:	06/09/89  1102.3 mdt Fri

                                     1  " ***********************************************************
                                     2  " *                                                         *
                                     3  " * Copyright, (C) Honeywell Information Systems Inc., 1985 *
                                     4  " *                                                         *
                                     5  " ***********************************************************
                                     6  	" dm_log_read_.alm -- transfer vector to the log reading gates
                                     7  	" Modification history:
                                     8  	" Created 1984-12-12, BIM.
                                     9
                                    10  	macro	tv
                              1     11  	segdef	&1
                              2     12  &1:	getlp
                              3     13  	call6	dm_admin_gate_$dlr_&1
                              4     14  &end
                                    15
                                    16  	tv	open
                        000000          	segdef	open
    000000  aa  7 00046 2721 20         open:	getlp
    000001  4a  4 00010 7131 20         	call6	dm_admin_gate_$dlr_open
                                    17  	tv	close
                        000002          	segdef	close
    000002  aa  7 00046 2721 20         close:	getlp
    000003  4a  4 00012 7131 20         	call6	dm_admin_gate_$dlr_close
                                    18  	tv	get_log_uid
                        000004          	segdef	get_log_uid
    000004  aa  7 00046 2721 20         get_log_uid:	getlp
    000005  4a  4 00014 7131 20         	call6	dm_admin_gate_$dlr_get_log_uid
                                    19  	tv	hold_message
                        000006          	segdef	hold_message
    000006  aa  7 00046 2721 20         hold_message:	getlp
    000007  4a  4 00016 7131 20         	call6	dm_admin_gate_$dlr_hold_message
                                    20  	tv	free_message
                        000010          	segdef	free_message
    000010  aa  7 00046 2721 20         free_message:	getlp
    000011  4a  4 00020 7131 20         	call6	dm_admin_gate_$dlr_free_message
                                    21  	tv	next_message
                        000012          	segdef	next_message
    000012  aa  7 00046 2721 20         next_message:	getlp
    000013  4a  4 00022 7131 20         	call6	dm_admin_gate_$dlr_next_message
                                    22  	tv	prev_message
                        000014          	segdef	prev_message
    000014  aa  7 00046 2721 20         prev_message:	getlp
    000015  4a  4 00024 7131 20         	call6	dm_admin_gate_$dlr_prev_message
                                    23  	tv	position_sequence
                        000016          	segdef	position_sequence
    000016  aa  7 00046 2721 20         position_sequence:	getlp
    000017  4a  4 00026 7131 20         	call6	dm_admin_gate_$dlr_position_sequence
                                    24  	tv	position_time
                        000020          	segdef	position_time
    000020  aa  7 00046 2721 20         position_time:	getlp
    000021  4a  4 00030 7131 20         	call6	dm_admin_gate_$dlr_position_time
                                    25  	tv	register
                        000022          	segdef	register
    000022  aa  7 00046 2721 20         register:	getlp
    000023  4a  4 00032 7131 20         	call6	dm_admin_gate_$dlr_register
                                    26  	tv	deregister
                        000024          	segdef	deregister
    000024  aa  7 00046 2721 20         deregister:	getlp
    000025  4a  4 00034 7131 20         	call6	dm_admin_gate_$dlr_deregister
                                    27  	tv	update
                        000026          	segdef	update
    000026  aa  7 00046 2721 20         update:	getlp
    000027  4a  4 00036 7131 20         	call6	dm_admin_gate_$dlr_update
                                    28  	end

NO LITERALS

NAME DEFINITIONS FOR ENTRY POINTS AND SEGDEFS

    000030  5a   000003 000000
    000031  5a   000135 600000
    000032  aa   000000 000000
    000033  55   000012 000002
    000034  5a   000002 400003
    000035  55   000006 000012
    000036  aa  014 144 155 137
    000037  aa  154 157 147 137
    000040  aa  162 145 141 144
    000041  aa  137 000 000 000
    000042  55   000017 000003
    000043  0a   000026 400000
    000044  55   000015 000003
    000045  aa  006 165 160 144         update
    000046  aa  141 164 145 000
    000047  55   000025 000012
    000050  0a   000024 400000
    000051  55   000022 000003
    000052  aa  012 144 145 162         deregister
    000053  aa  145 147 151 163
    000054  aa  164 145 162 000
    000055  55   000033 000017
    000056  0a   000022 400000
    000057  55   000030 000003
    000060  aa  010 162 145 147         register
    000061  aa  151 163 164 145
    000062  aa  162 000 000 000
    000063  55   000042 000025
    000064  0a   000020 400000
    000065  55   000036 000003
    000066  aa  015 160 157 163         position_time
    000067  aa  151 164 151 157
    000070  aa  156 137 164 151
    000071  aa  155 145 000 000
    000072  55   000052 000033
    000073  0a   000016 400000
    000074  55   000045 000003
    000075  aa  021 160 157 163         position_sequence
    000076  aa  151 164 151 157
    000077  aa  156 137 163 145
    000100  aa  161 165 145 156
    000101  aa  143 145 000 000
    000102  55   000061 000042
    000103  0a   000014 400000
    000104  55   000055 000003
    000105  aa  014 160 162 145         prev_message
    000106  aa  166 137 155 145
    000107  aa  163 163 141 147
    000110  aa  145 000 000 000
    000111  55   000070 000052
    000112  0a   000012 400000
    000113  55   000064 000003
    000114  aa  014 156 145 170         next_message
    000115  aa  164 137 155 145
    000116  aa  163 163 141 147
    000117  aa  145 000 000 000
    000120  55   000077 000061
    000121  0a   000010 400000
    000122  55   000073 000003
    000123  aa  014 146 162 145         free_message
    000124  aa  145 137 155 145
    000125  aa  163 163 141 147
    000126  aa  145 000 000 000
    000127  55   000106 000070
    000130  0a   000006 400000
    000131  55   000102 000003
    000132  aa  014 150 157 154         hold_message
    000133  aa  144 137 155 145
    000134  aa  163 163 141 147
    000135  aa  145 000 000 000
    000136  55   000114 000077
    000137  0a   000004 400000
    000140  55   000111 000003
    000141  aa  013 147 145 164         get_log_uid
    000142  aa  137 154 157 147
    000143  aa  137 165 151 144
    000144  55   000121 000106
    000145  0a   000002 400000
    000146  55   000117 000003
    000147  aa  005 143 154 157         close
    000150  aa  163 145 000 000
    000151  55   000126 000114
    000152  0a   000000 400000
    000153  55   000124 000003
    000154  aa  004 157 160 145         open
    000155  aa  156 000 000 000
    000156  55   000002 000121
    000157  6a   000000 400002
    000160  55   000131 000003
    000161  aa  014 163 171 155         symbol_table
    000162  aa  142 157 154 137
    000163  aa  164 141 142 154
    000164  aa  145 000 000 000

DEFINITIONS HASH TABLE

    000165  aa   000000 000033
    000166  5a   000025 000000
    000167  aa   000000 000000
    000170  aa   000000 000000
    000171  aa   000000 000000
    000172  aa   000000 000000
    000173  aa   000000 000000
    000174  5a   000052 000000
    000175  aa   000000 000000
    000176  5a   000077 000000
    000177  5a   000061 000000
    000200  5a   000126 000000
    000201  aa   000000 000000
    000202  aa   000000 000000
    000203  aa   000000 000000
    000204  aa   000000 000000
    000205  5a   000121 000000
    000206  5a   000114 000000
    000207  aa   000000 000000
    000210  5a   000012 000000
    000211  5a   000042 000000
    000212  aa   000000 000000
    000213  aa   000000 000000
    000214  5a   000017 000000
    000215  5a   000033 000000
    000216  5a   000070 000000
    000217  aa   000000 000000
    000220  5a   000106 000000

EXTERNAL NAMES

    000221  aa  012 144 154 162         dlr_update
    000222  aa  137 165 160 144
    000223  aa  141 164 145 000
    000224  aa  016 144 154 162         dlr_deregister
    000225  aa  137 144 145 162
    000226  aa  145 147 151 163
    000227  aa  164 145 162 000
    000230  aa  014 144 154 162         dlr_register
    000231  aa  137 162 145 147
    000232  aa  151 163 164 145
    000233  aa  162 000 000 000
    000234  aa  021 144 154 162         dlr_position_time
    000235  aa  137 160 157 163
    000236  aa  151 164 151 157
    000237  aa  156 137 164 151
    000240  aa  155 145 000 000
    000241  aa  025 144 154 162         dlr_position_sequence
    000242  aa  137 160 157 163
    000243  aa  151 164 151 157
    000244  aa  156 137 163 145
    000245  aa  161 165 145 156
    000246  aa  143 145 000 000
    000247  aa  020 144 154 162         dlr_prev_message
    000250  aa  137 160 162 145
    000251  aa  166 137 155 145
    000252  aa  163 163 141 147
    000253  aa  145 000 000 000
    000254  aa  020 144 154 162         dlr_next_message
    000255  aa  137 156 145 170
    000256  aa  164 137 155 145
    000257  aa  163 163 141 147
    000260  aa  145 000 000 000
    000261  aa  020 144 154 162         dlr_free_message
    000262  aa  137 146 162 145
    000263  aa  145 137 155 145
    000264  aa  163 163 141 147
    000265  aa  145 000 000 000
    000266  aa  020 144 154 162         dlr_hold_message
    000267  aa  137 150 157 154
    000270  aa  144 137 155 145
    000271  aa  163 163 141 147
    000272  aa  145 000 000 000
    000273  aa  017 144 154 162         dlr_get_log_uid
    000274  aa  137 147 145 164
    000275  aa  137 154 157 147
    000276  aa  137 165 151 144
    000277  aa  011 144 154 162         dlr_close
    000300  aa  137 143 154 157
    000301  aa  163 145 000 000
    000302  aa  010 144 154 162         dlr_open
    000303  aa  137 157 160 145
    000304  aa  156 000 000 000
    000305  aa  016 144 155 137         dm_admin_gate_
    000306  aa  141 144 155 151
    000307  aa  156 137 147 141
    000310  aa  164 145 137 000

NO TRAP POINTER WORDS

TYPE PAIR BLOCKS

    000311  aa   000004 000000
    000312  55   000255 000171
    000313  aa   000004 000000
    000314  55   000255 000174
    000315  aa   000004 000000
    000316  55   000255 000200
    000317  aa   000004 000000
    000320  55   000255 000204
    000321  aa   000004 000000
    000322  55   000255 000211
    000323  aa   000004 000000
    000324  55   000255 000217
    000325  aa   000004 000000
    000326  55   000255 000224
    000327  aa   000004 000000
    000330  55   000255 000231
    000331  aa   000004 000000
    000332  55   000255 000236
    000333  aa   000004 000000
    000334  55   000255 000243
    000335  aa   000004 000000
    000336  55   000255 000247
    000337  aa   000004 000000
    000340  55   000255 000252
    000341  aa   000001 000000
    000342  aa   000000 000000

INTERNAL EXPRESSION WORDS

    000343  5a   000261 000000
    000344  5a   000263 000000
    000345  5a   000265 000000
    000346  5a   000267 000000
    000347  5a   000271 000000
    000350  5a   000273 000000
    000351  5a   000275 000000
    000352  5a   000277 000000
    000353  5a   000301 000000
    000354  5a   000303 000000
    000355  5a   000305 000000
    000356  5a   000307 000000
    000357  aa   000000 000000
LINKAGE INFORMATION

    000000  aa   000000 000000
    000001  0a   000030 000000
    000002  aa   000000 000000
    000003  aa   000000 000000
    000004  aa   000000 000000
    000005  aa   000000 000000
    000006  22   000010 000040
    000007  a2   000000 000000
    000010  9a   777770 0000 46         dm_admin_gate_|dlr_open
    000011  5a   000326 0000 00
    000012  9a   777766 0000 46         dm_admin_gate_|dlr_close
    000013  5a   000325 0000 00
    000014  9a   777764 0000 46         dm_admin_gate_|dlr_get_log_uid
    000015  5a   000324 0000 00
    000016  9a   777762 0000 46         dm_admin_gate_|dlr_hold_message
    000017  5a   000323 0000 00
    000020  9a   777760 0000 46         dm_admin_gate_|dlr_free_message
    000021  5a   000322 0000 00
    000022  9a   777756 0000 46         dm_admin_gate_|dlr_next_message
    000023  5a   000321 0000 00
    000024  9a   777754 0000 46         dm_admin_gate_|dlr_prev_message
    000025  5a   000320 0000 00
    000026  9a   777752 0000 46         dm_admin_gate_|dlr_position_sequence
    000027  5a   000317 0000 00
    000030  9a   777750 0000 46         dm_admin_gate_|dlr_position_time
    000031  5a   000316 0000 00
    000032  9a   777746 0000 46         dm_admin_gate_|dlr_register
    000033  5a   000315 0000 00
    000034  9a   777744 0000 46         dm_admin_gate_|dlr_deregister
    000035  5a   000314 0000 00
    000036  9a   777742 0000 46         dm_admin_gate_|dlr_update
    000037  5a   000313 0000 00
SYMBOL INFORMATION

SYMBOL TABLE HEADER

    000000  aa   000000 000001
    000001  aa   163171 155142
    000002  aa   164162 145145
    000003  aa   000000 000010
    000004  aa   000000 117244
    000005  aa   361023 525721
    000006  aa   000000 131036
    000007  aa   032736 202435
    000010  aa   141154 155040
    000011  aa   040040 040040
    000012  aa   000024 000040
    000013  aa   000034 000040
    000014  aa   000044 000100
    000015  aa   000002 000002
    000016  aa   000064 000000
    000017  aa   000000 000160
    000020  aa   000000 000102
    000021  aa   000116 000107
    000022  aa   000152 000102
    000023  aa   000064 000000
    000024  aa   101114 115040
    000025  aa   126145 162163
    000026  aa   151157 156040
    000027  aa   070056 061064
    000030  aa   040115 141162
    000031  aa   143150 040061
    000032  aa   071070 071040
    000033  aa   040040 040040
    000034  aa   123143 150162
    000035  aa   157164 150056
    000036  aa   123171 163115
    000037  aa   141151 156164
    000040  aa   056155 040040
    000041  aa   040040 040040
    000042  aa   040040 040040
    000043  aa   040040 040040
    000044  aa   154151 163164
    000045  aa   040163 171155
    000046  aa   142157 154163
    000047  aa   040040 040040
    000050  aa   040040 040040
    000051  aa   040040 040040
    000052  aa   040040 040040
    000053  aa   040040 040040
    000054  aa   040040 040040
    000055  aa   040040 040040
    000056  aa   040040 040040
    000057  aa   040040 040040
    000060  aa   040040 040040
    000061  aa   040040 040040
    000062  aa   040040 040040
    000063  aa   040040 040040
    000064  aa   000000 000001
    000065  aa   000000 000001
    000066  aa   000072 000040
    000067  aa   310157 122743
    000070  aa   000000 131036
    000071  aa   032736 400000
    000072  aa   076165 144144          >udd>sm>ds>w>ml>dm_log_read_.alm
    000073  aa   076163 155076
    000074  aa   144163 076167
    000075  aa   076155 154076
    000076  aa   144155 137154
    000077  aa   157147 137162
    000100  aa   145141 144137
    000101  aa   056141 154155
               MULTICS ASSEMBLY CROSS REFERENCE LISTING

   Value        Symbol                   Source file   Line number

           2    close                    dm_log_read_:        17.
          24    deregister               dm_log_read_:        26.
                dlr_close                dm_log_read_:        17.
                dlr_deregister           dm_log_read_:        26.
                dlr_free_message         dm_log_read_:        20.
                dlr_get_log_uid          dm_log_read_:        18.
                dlr_hold_message         dm_log_read_:        19.
                dlr_next_message         dm_log_read_:        21.
                dlr_open                 dm_log_read_:        16.
                dlr_position_sequence    dm_log_read_:        23.
                dlr_position_time        dm_log_read_:        24.
                dlr_prev_message         dm_log_read_:        22.
                dlr_register             dm_log_read_:        25.
                dlr_update               dm_log_read_:        27.
                dm_admin_gate_           dm_log_read_:        16,   17,   18,   19,   20,   21,   22,   23,   24,   25,   26,   27.
          10    free_message             dm_log_read_:        20.
           4    get_log_uid              dm_log_read_:        18.
           6    hold_message             dm_log_read_:        19.
          12    next_message             dm_log_read_:        21.
           0    open                     dm_log_read_:        16.
          16    position_sequence        dm_log_read_:        23.
          20    position_time            dm_log_read_:        24.
          14    prev_message             dm_log_read_:        22.
          22    register                 dm_log_read_:        25.
          26    update                   dm_log_read_:        27.


NO FATAL ERRORS


                                          -----------------------------------------------------------


Historical Background

This edition of the Multics software materials and documentation is provided and donated
to Massachusetts Institute of Technology by Group BULL including BULL HN Information Systems Inc.
as a contribution to computer science knowledge.
This donation is made also to give evidence of the common contributions of Massachusetts Institute of Technology,
Bell Laboratories, General Electric, Honeywell Information Systems Inc., Honeywell BULL Inc., Groupe BULL
and BULL HN Information Systems Inc. to the development of this operating system.
Multics development was initiated by Massachusetts Institute of Technology Project MAC (1963-1970),
renamed the MIT Laboratory for Computer Science and Artificial Intelligence in the mid 1970s, under the leadership
of Professor Fernando Jose Corbato. Users consider that Multics provided the best software architecture
for managing computer hardware properly and for executing programs. Many subsequent operating systems
incorporated Multics principles.
Multics was distributed in 1975 to 2000 by Group Bull in Europe , and in the U.S. by Bull HN Information Systems Inc.,
as successor in interest by change in name only to Honeywell Bull Inc. and Honeywell Information Systems Inc. .

                                          -----------------------------------------------------------

Permission to use, copy, modify, and distribute these programs and their documentation for any purpose and without
fee is hereby granted,provided that the below copyright notice and historical background appear in all copies
and that both the copyright notice and historical background and this permission notice appear in supporting
documentation, and that the names of MIT, HIS, BULL or BULL HN not be used in advertising or publicity pertaining
to distribution of the programs without specific prior written permission.
    Copyright 1972 by Massachusetts Institute of Technology and Honeywell Information Systems Inc.
    Copyright 2006 by BULL HN Information Systems Inc.
    Copyright 2006 by Bull SAS
    All Rights Reserved
