ASSEMBLY LISTING OF SEGMENT >spec>on>41-21>dm_misc_util_.alm
ASSEMBLED ON:	04/24/85  0823.2 mst Wed
OPTIONS USED:	list
ASSEMBLED BY:	ALM Version  6.6  November 1982
ASSEMBLER CREATED:	09/21/83  1227.3 mst Wed

                                     1  " ***********************************************************
                                     2  " *                                                         *
                                     3  " * Copyright, (C) Honeywell Information Systems Inc., 1984 *
                                     4  " *                                                         *
                                     5  " ***********************************************************
                                     6  "
                                     7  "
                                     8  " DESCRIPTION:
                                     9  " 	This is the main transfer vector for the miscellaneous Data
                                    10  "    Management primitives.
                                    11  "
                                    12  " HISTORY:
                                    13  " Written by R. Michael Tague, 07/17/84.
                                    14  " Modified:
                                    15  " 07/22/84 by R.Michael Tague:  Added dm_user_shut_handler_,
                                    16  "	    dm_shut_warn_handler_
                                    17  " 08/02/84 by Lee A. Newcomb:  added entries $get_system_state,
                                    18  "	    $get_user_shutdown_time, and $get_shutdown_reason.
                                    19  " 09/26/84 by Lindsey Spratt: Added the copy_dm_log entry. Alphabetized the
                                    20  "	    entries. Added dm_real_copy_log.  Fixed all entries to be fully
                                    21  "	    specified: foo$foo instead of just foo.  Changed from having
                                    22  "	    just a transfer macro to using either simple_transfer or
                                    23  "	    gate_transfer.  Now, call6, which was used by the transfer
                                    24  "	    macro, is only done for gate transfers.  A simple tra is used
                                    25  "	    for non-gate transfers.
                                    26  " 10/01/84 by Lee A. Newcomb: changed dm_(user_shut shut_warn)_handler_'s to
                                    27  "	    signal_(user_shutdown shutdown_warning), added shutdown_handler,
                                    28  "	    get_(begin_shutdown shutdown_warning)_time, and
                                    29  "	    set_system_dir (so users can use a test DMS).
                                    30  " 10/29/84 by Lee A. Newcomb:  Fixed to remove any dm_ prefixes from entries.
                                    31  " 11/12/84 by Lindsey Spratt:  Added the $set_journal_stamps entry.
                                    32  " 11/19/84 by Lee A. Newcomb:  Changed $get_*_dir to go through dm_gate_.
                                    33  " 11/28/84 by Stanford S. Cox: Added get_(aim_dir, initialization_time),
                                    34  "	    removed get_system_data.
                                    35  " 12/07/84 by Lindsey Spratt:  Changed get_initialization_time to go to
                                    36  "	    dm_gate_$dm_get_init=, $is_process_using_dm to go to
                                    37  "	    dm_gate_$dm_using_dm.
                                    38  " 12/07/84 by R. Michael Tague:  Added $dm_status, $find_old_boot_dir, and
                                    39  "	    $terminate_dm.
                                    40  " 12/08/84 by Lindsey Spratt:  Fixed $dm_status and $find_old_boot_dir to tra
                                    41  "	    to dm_firstref_tv_$= instead of dm_firstref_util_$=, which is
                                    42  "	    not externally retained.
                                    43  " 12/10/84 by Lindsey Spratt:  Added the $open_log entry.  Fixed
                                    44  "	    $get_initialization_time and $is_process_using_dm to use
                                    45  "	    gate_transfer instead of simple_transfer.
                                    46  " 01/25/84 by Lindsey Spratt:  Added $get_system_version.
                                    47  " 02/07/85 by Steve Herbst: Added $get_log_path.
                                    48  " 03/05/85 by Steve Herbst: Added $log, ultimate target dm_log_.
                                    49  " 03/11/85 by Lindsey Spratt:  Removed $open_log (dm_log_util_ is obsolete).
                                    50  " 04/10/85 by Lee A. Newcomb:  Removed the obsolete entries $copy_dm_log
                                    51  "             and $real_copy_dm_log. Removed $set_journal_stamps as it is
                                    52  "             in dm_admin_util_.
                                    53  "
                                    54  """"""""""""""""""""""""""""""""""""""""""""""""""""""""""""""""""""""""
                                    55
    000000                          56  	name	dm_misc_util_
                                    57
                                    58  	macro	gate_transfer
                              1     59  	entry	&1
                              2     60  &1:
                              3     61  	call6	&2
                              4     62
                              5     63  	&end
                                    64  	macro	simple_transfer
                              1     65  	entry	&1
                              2     66  &1:
                              3     67  	tra	&2
                              4     68  	&end
                                    69
                                    70  	simple_transfer     dm_status,dm_firstref_tv_$dm_status
                        000000          	entry	dm_status
    000000                              dm_status:
    000000  4a  4 00010 7101 20         	tra	dm_firstref_tv_$dm_status
                                    71  	simple_transfer     find_old_boot_dir,dm_firstref_tv_$find_old_boot_dir
                        000001          	entry	find_old_boot_dir
    000001                              find_old_boot_dir:
    000001  4a  4 00012 7101 20         	tra	dm_firstref_tv_$find_old_boot_dir
                                    72  	simple_transfer	get_log_path,dm_no_firstref_util_$get_log_path
                        000002          	entry	get_log_path
    000002                              get_log_path:
    000002  4a  4 00014 7101 20         	tra	dm_no_firstref_util_$get_log_path
                                    73  	simple_transfer	log,dm_no_firstref_tv_$log
                        000003          	entry	log
    000003                              log:
    000003  4a  4 00016 7101 20         	tra	dm_no_firstref_tv_$log
                                    74  	gate_transfer	get_aim_dir,dm_gate_$dm_get_aim_dir
                        000004          	entry	get_aim_dir
    000004                              get_aim_dir:
    000004  4a  4 00020 7131 20         	call6	dm_gate_$dm_get_aim_dir

                                    75  	gate_transfer	get_begin_shutdown_time,dm_gate_$dm_get_begin_shutdown_time
                        000005          	entry	get_begin_shutdown_time
    000005                              get_begin_shutdown_time:
    000005  4a  4 00022 7131 20         	call6	dm_gate_$dm_get_begin_shutdown_time

                                    76  	gate_transfer	get_bootload_dir,dm_gate_$dm_get_bootload_dir
                        000006          	entry	get_bootload_dir
    000006                              get_bootload_dir:
    000006  4a  4 00024 7131 20         	call6	dm_gate_$dm_get_bootload_dir

                                    77  	gate_transfer	get_enabled_bootload_dirname,dm_gate_$dm_get_enabled_boot_dirname
                        000007          	entry	get_enabled_bootload_dirname
    000007                              get_enabled_bootload_dirname:
    000007  4a  4 00026 7131 20         	call6	dm_gate_$dm_get_enabled_boot_dirname

                                    78  	gate_transfer	get_initialization_time,dm_gate_$dm_get_initialization_time
                        000010          	entry	get_initialization_time
    000010                              get_initialization_time:
    000010  4a  4 00030 7131 20         	call6	dm_gate_$dm_get_initialization_time

                                    79  	gate_transfer	get_shutdown_reason,dm_gate_$dm_get_shutdown_reason
                        000011          	entry	get_shutdown_reason
    000011                              get_shutdown_reason:
    000011  4a  4 00032 7131 20         	call6	dm_gate_$dm_get_shutdown_reason

                                    80  	gate_transfer	get_shutdown_warning_time,dm_gate_$dm_get_shutdown_warning_time
                        000012          	entry	get_shutdown_warning_time
    000012                              get_shutdown_warning_time:
    000012  4a  4 00034 7131 20         	call6	dm_gate_$dm_get_shutdown_warning_time

                                    81  	gate_transfer	get_system_dir,dm_gate_$dm_get_system_dir
                        000013          	entry	get_system_dir
    000013                              get_system_dir:
    000013  4a  4 00036 7131 20         	call6	dm_gate_$dm_get_system_dir

                                    82  	gate_transfer	get_system_state,dm_gate_$dm_get_system_state
                        000014          	entry	get_system_state
    000014                              get_system_state:
    000014  4a  4 00040 7131 20         	call6	dm_gate_$dm_get_system_state

                                    83  	gate_transfer	get_system_version,dm_gate_$dm_get_system_version
                        000015          	entry	get_system_version
    000015                              get_system_version:
    000015  4a  4 00042 7131 20         	call6	dm_gate_$dm_get_system_version

                                    84  	gate_transfer	get_user_shutdown_time,dm_gate_$dm_get_user_shutdown_time
                        000016          	entry	get_user_shutdown_time
    000016                              get_user_shutdown_time:
    000016  4a  4 00044 7131 20         	call6	dm_gate_$dm_get_user_shutdown_time

                                    85  	gate_transfer	is_process_using_dm,dm_gate_$dm_is_process_using_dm
                        000017          	entry	is_process_using_dm
    000017                              is_process_using_dm:
    000017  4a  4 00046 7131 20         	call6	dm_gate_$dm_is_process_using_dm

                                    86  	gate_transfer	set_system_dir,dm_gate_$dm_set_system_dir
                        000020          	entry	set_system_dir
    000020                              set_system_dir:
    000020  4a  4 00050 7131 20         	call6	dm_gate_$dm_set_system_dir

                                    87  	simple_transfer	shutdown_handler,dm_shutdown_handler$dm_shutdown_handler
                        000021          	entry	shutdown_handler
    000021                              shutdown_handler:
    000021  4a  4 00052 7101 20         	tra	dm_shutdown_handler$dm_shutdown_handler
                                    88  	simple_transfer	signal_shutdown_warning,dm_signal_shutdown_warning$dm_signal_shutdown_warning
                        000022          	entry	signal_shutdown_warning
    000022                              signal_shutdown_warning:
    000022  4a  4 00054 7101 20         	tra	dm_signal_shutdown_warning$dm_signal_shutdown_warning
                                    89  	simple_transfer	signal_user_shutdown,dm_signal_user_shutdown$dm_signal_user_shutdown
                        000023          	entry	signal_user_shutdown
    000023                              signal_user_shutdown:
    000023  4a  4 00056 7101 20         	tra	dm_signal_user_shutdown$dm_signal_user_shutdown
                                    90  	simple_transfer     terminate_dm,dm_no_firstref_util_$terminate_dm
                        000024          	entry	terminate_dm
    000024                              terminate_dm:
    000024  4a  4 00060 7101 20         	tra	dm_no_firstref_util_$terminate_dm
                                    91
                                    92
                                    93  	end
ENTRY SEQUENCES

    000025  5a   000252 0000 00
    000026  aa  7 00046 2721 20
    000027  0a   000000 7100 00
    000030  5a   000242 0000 00
    000031  aa  7 00046 2721 20
    000032  0a   000001 7100 00
    000033  5a   000233 0000 00
    000034  aa  7 00046 2721 20
    000035  0a   000002 7100 00
    000036  5a   000227 0000 00
    000037  aa  7 00046 2721 20
    000040  0a   000003 7100 00
    000041  5a   000221 0000 00
    000042  aa  7 00046 2721 20
    000043  0a   000004 7100 00
    000044  5a   000210 0000 00
    000045  aa  7 00046 2721 20
    000046  0a   000005 7100 00
    000047  5a   000200 0000 00
    000050  aa  7 00046 2721 20
    000051  0a   000006 7100 00
    000052  5a   000165 0000 00
    000053  aa  7 00046 2721 20
    000054  0a   000007 7100 00
    000055  5a   000154 0000 00
    000056  aa  7 00046 2721 20
    000057  0a   000010 7100 00
    000060  5a   000144 0000 00
    000061  aa  7 00046 2721 20
    000062  0a   000011 7100 00
    000063  5a   000132 0000 00
    000064  aa  7 00046 2721 20
    000065  0a   000012 7100 00
    000066  5a   000123 0000 00
    000067  aa  7 00046 2721 20
    000070  0a   000013 7100 00
    000071  5a   000113 0000 00
    000072  aa  7 00046 2721 20
    000073  0a   000014 7100 00
    000074  5a   000103 0000 00
    000075  aa  7 00046 2721 20
    000076  0a   000015 7100 00
    000077  5a   000072 0000 00
    000100  aa  7 00046 2721 20
    000101  0a   000016 7100 00
    000102  5a   000062 0000 00
    000103  aa  7 00046 2721 20
    000104  0a   000017 7100 00
    000105  5a   000053 0000 00
    000106  aa  7 00046 2721 20
    000107  0a   000020 7100 00
    000110  5a   000043 0000 00
    000111  aa  7 00046 2721 20
    000112  0a   000021 7100 00
    000113  5a   000032 0000 00
    000114  aa  7 00046 2721 20
    000115  0a   000022 7100 00
    000116  5a   000021 0000 00
    000117  aa  7 00046 2721 20
    000120  0a   000023 7100 00
    000121  5a   000012 0000 00
    000122  aa  7 00046 2721 20
    000123  0a   000024 7100 00

NO LITERALS

NAME DEFINITIONS FOR ENTRY POINTS AND SEGDEFS

    000124  5a   000003 000000
    000125  5a   000267 600000
    000126  aa   000000 000000
    000127  55   000012 000002
    000130  5a   000002 400003
    000131  55   000006 000012
    000132  aa  015 144 155 137
    000133  aa  155 151 163 143
    000134  aa  137 165 164 151
    000135  aa  154 137 000 000
    000136  55   000021 000003
    000137  0a   000122 500000
    000140  55   000015 000003
    000141  aa  014 164 145 162         terminate_dm
    000142  aa  155 151 156 141
    000143  aa  164 145 137 144
    000144  aa  155 000 000 000
    000145  55   000032 000012
    000146  0a   000117 500000
    000147  55   000024 000003
    000150  aa  024 163 151 147         signal_user_shutdown
    000151  aa  156 141 154 137
    000152  aa  165 163 145 162
    000153  aa  137 163 150 165
    000154  aa  164 144 157 167
    000155  aa  156 000 000 000
    000156  55   000043 000021
    000157  0a   000114 500000
    000160  55   000035 000003
    000161  aa  027 163 151 147         signal_shutdown_warning
    000162  aa  156 141 154 137
    000163  aa  163 150 165 164
    000164  aa  144 157 167 156
    000165  aa  137 167 141 162
    000166  aa  156 151 156 147
    000167  55   000053 000032
    000170  0a   000111 500000
    000171  55   000046 000003
    000172  aa  020 163 150 165         shutdown_handler
    000173  aa  164 144 157 167
    000174  aa  156 137 150 141
    000175  aa  156 144 154 145
    000176  aa  162 000 000 000
    000177  55   000062 000043
    000200  0a   000106 500000
    000201  55   000056 000003
    000202  aa  016 163 145 164         set_system_dir
    000203  aa  137 163 171 163
    000204  aa  164 145 155 137
    000205  aa  144 151 162 000
    000206  55   000072 000053
    000207  0a   000103 500000
    000210  55   000065 000003
    000211  aa  023 151 163 137         is_process_using_dm
    000212  aa  160 162 157 143
    000213  aa  145 163 163 137
    000214  aa  165 163 151 156
    000215  aa  147 137 144 155
    000216  55   000103 000062
    000217  0a   000100 500000
    000220  55   000075 000003
    000221  aa  026 147 145 164         get_user_shutdown_time
    000222  aa  137 165 163 145
    000223  aa  162 137 163 150
    000224  aa  165 164 144 157
    000225  aa  167 156 137 164
    000226  aa  151 155 145 000
    000227  55   000113 000072
    000230  0a   000075 500000
    000231  55   000106 000003
    000232  aa  022 147 145 164         get_system_version
    000233  aa  137 163 171 163
    000234  aa  164 145 155 137
    000235  aa  166 145 162 163
    000236  aa  151 157 156 000
    000237  55   000123 000103
    000240  0a   000072 500000
    000241  55   000116 000003
    000242  aa  020 147 145 164         get_system_state
    000243  aa  137 163 171 163
    000244  aa  164 145 155 137
    000245  aa  163 164 141 164
    000246  aa  145 000 000 000
    000247  55   000132 000113
    000250  0a   000067 500000
    000251  55   000126 000003
    000252  aa  016 147 145 164         get_system_dir
    000253  aa  137 163 171 163
    000254  aa  164 145 155 137
    000255  aa  144 151 162 000
    000256  55   000144 000123
    000257  0a   000064 500000
    000260  55   000135 000003
    000261  aa  031 147 145 164         get_shutdown_warning_time
    000262  aa  137 163 150 165
    000263  aa  164 144 157 167
    000264  aa  156 137 167 141
    000265  aa  162 156 151 156
    000266  aa  147 137 164 151
    000267  aa  155 145 000 000
    000270  55   000154 000132
    000271  0a   000061 500000
    000272  55   000147 000003
    000273  aa  023 147 145 164         get_shutdown_reason
    000274  aa  137 163 150 165
    000275  aa  164 144 157 167
    000276  aa  156 137 162 145
    000277  aa  141 163 157 156
    000300  55   000165 000144
    000301  0a   000056 500000
    000302  55   000157 000003
    000303  aa  027 147 145 164         get_initialization_time
    000304  aa  137 151 156 151
    000305  aa  164 151 141 154
    000306  aa  151 172 141 164
    000307  aa  151 157 156 137
    000310  aa  164 151 155 145
    000311  55   000200 000154
    000312  0a   000053 500000
    000313  55   000170 000003
    000314  aa  034 147 145 164         get_enabled_bootload_dirname
    000315  aa  137 145 156 141
    000316  aa  142 154 145 144
    000317  aa  137 142 157 157
    000320  aa  164 154 157 141
    000321  aa  144 137 144 151
    000322  aa  162 156 141 155
    000323  aa  145 000 000 000
    000324  55   000210 000165
    000325  0a   000050 500000
    000326  55   000203 000003
    000327  aa  020 147 145 164         get_bootload_dir
    000330  aa  137 142 157 157
    000331  aa  164 154 157 141
    000332  aa  144 137 144 151
    000333  aa  162 000 000 000
    000334  55   000221 000200
    000335  0a   000045 500000
    000336  55   000213 000003
    000337  aa  027 147 145 164         get_begin_shutdown_time
    000340  aa  137 142 145 147
    000341  aa  151 156 137 163
    000342  aa  150 165 164 144
    000343  aa  157 167 156 137
    000344  aa  164 151 155 145
    000345  55   000227 000210
    000346  0a   000042 500000
    000347  55   000224 000003
    000350  aa  013 147 145 164         get_aim_dir
    000351  aa  137 141 151 155
    000352  aa  137 144 151 162
    000353  55   000233 000221
    000354  0a   000037 500000
    000355  55   000232 000003
    000356  aa  003 154 157 147         log
    000357  55   000242 000227
    000360  0a   000034 500000
    000361  55   000236 000003
    000362  aa  014 147 145 164         get_log_path
    000363  aa  137 154 157 147
    000364  aa  137 160 141 164
    000365  aa  150 000 000 000
    000366  55   000252 000233
    000367  0a   000031 500000
    000370  55   000245 000003
    000371  aa  021 146 151 156         find_old_boot_dir
    000372  aa  144 137 157 154
    000373  aa  144 137 142 157
    000374  aa  157 164 137 144
    000375  aa  151 162 000 000
    000376  55   000260 000242
    000377  0a   000026 500000
    000400  55   000255 000003
    000401  aa  011 144 155 137         dm_status
    000402  aa  163 164 141 164
    000403  aa  165 163 000 000
    000404  55   000002 000252
    000405  6a   000000 400002
    000406  55   000263 000003
    000407  aa  014 163 171 155         symbol_table
    000410  aa  142 157 154 137
    000411  aa  164 141 142 154
    000412  aa  145 000 000 000

DEFINITIONS HASH TABLE

    000413  aa   000000 000033
    000414  5a   000252 000000
    000415  5a   000260 000000
    000416  aa   000000 000000
    000417  aa   000000 000000
    000420  5a   000043 000000
    000421  aa   000000 000000
    000422  aa   000000 000000
    000423  aa   000000 000000
    000424  5a   000053 000000
    000425  5a   000012 000000
    000426  5a   000032 000000
    000427  5a   000165 000000
    000430  5a   000021 000000
    000431  5a   000062 000000
    000432  5a   000132 000000
    000433  5a   000072 000000
    000434  5a   000154 000000
    000435  5a   000210 000000
    000436  5a   000144 000000
    000437  5a   000103 000000
    000440  5a   000227 000000
    000441  5a   000113 000000
    000442  5a   000200 000000
    000443  5a   000123 000000
    000444  5a   000242 000000
    000445  5a   000233 000000
    000446  5a   000221 000000

EXTERNAL NAMES

    000447  aa  027 144 155 137         dm_signal_user_shutdown
    000450  aa  163 151 147 156
    000451  aa  141 154 137 165
    000452  aa  163 145 162 137
    000453  aa  163 150 165 164
    000454  aa  144 157 167 156
    000455  aa  032 144 155 137         dm_signal_shutdown_warning
    000456  aa  163 151 147 156
    000457  aa  141 154 137 163
    000460  aa  150 165 164 144
    000461  aa  157 167 156 137
    000462  aa  167 141 162 156
    000463  aa  151 156 147 000
    000464  aa  023 144 155 137         dm_shutdown_handler
    000465  aa  163 150 165 164
    000466  aa  144 157 167 156
    000467  aa  137 150 141 156
    000470  aa  144 154 145 162
    000471  aa  021 144 155 137         dm_set_system_dir
    000472  aa  163 145 164 137
    000473  aa  163 171 163 164
    000474  aa  145 155 137 144
    000475  aa  151 162 000 000
    000476  aa  026 144 155 137         dm_is_process_using_dm
    000477  aa  151 163 137 160
    000500  aa  162 157 143 145
    000501  aa  163 163 137 165
    000502  aa  163 151 156 147
    000503  aa  137 144 155 000
    000504  aa  031 144 155 137         dm_get_user_shutdown_time
    000505  aa  147 145 164 137
    000506  aa  165 163 145 162
    000507  aa  137 163 150 165
    000510  aa  164 144 157 167
    000511  aa  156 137 164 151
    000512  aa  155 145 000 000
    000513  aa  025 144 155 137         dm_get_system_version
    000514  aa  147 145 164 137
    000515  aa  163 171 163 164
    000516  aa  145 155 137 166
    000517  aa  145 162 163 151
    000520  aa  157 156 000 000
    000521  aa  023 144 155 137         dm_get_system_state
    000522  aa  147 145 164 137
    000523  aa  163 171 163 164
    000524  aa  145 155 137 163
    000525  aa  164 141 164 145
    000526  aa  021 144 155 137         dm_get_system_dir
    000527  aa  147 145 164 137
    000530  aa  163 171 163 164
    000531  aa  145 155 137 144
    000532  aa  151 162 000 000
    000533  aa  034 144 155 137         dm_get_shutdown_warning_time
    000534  aa  147 145 164 137
    000535  aa  163 150 165 164
    000536  aa  144 157 167 156
    000537  aa  137 167 141 162
    000540  aa  156 151 156 147
    000541  aa  137 164 151 155
    000542  aa  145 000 000 000
    000543  aa  026 144 155 137         dm_get_shutdown_reason
    000544  aa  147 145 164 137
    000545  aa  163 150 165 164
    000546  aa  144 157 167 156
    000547  aa  137 162 145 141
    000550  aa  163 157 156 000
    000551  aa  032 144 155 137         dm_get_initialization_time
    000552  aa  147 145 164 137
    000553  aa  151 156 151 164
    000554  aa  151 141 154 151
    000555  aa  172 141 164 151
    000556  aa  157 156 137 164
    000557  aa  151 155 145 000
    000560  aa  033 144 155 137         dm_get_enabled_boot_dirname
    000561  aa  147 145 164 137
    000562  aa  145 156 141 142
    000563  aa  154 145 144 137
    000564  aa  142 157 157 164
    000565  aa  137 144 151 162
    000566  aa  156 141 155 145
    000567  aa  023 144 155 137         dm_get_bootload_dir
    000570  aa  147 145 164 137
    000571  aa  142 157 157 164
    000572  aa  154 157 141 144
    000573  aa  137 144 151 162
    000574  aa  032 144 155 137         dm_get_begin_shutdown_time
    000575  aa  147 145 164 137
    000576  aa  142 145 147 151
    000577  aa  156 137 163 150
    000600  aa  165 164 144 157
    000601  aa  167 156 137 164
    000602  aa  151 155 145 000
    000603  aa  016 144 155 137         dm_get_aim_dir
    000604  aa  147 145 164 137
    000605  aa  141 151 155 137
    000606  aa  144 151 162 000
    000607  aa  010 144 155 137         dm_gate_
    000610  aa  147 141 164 145
    000611  aa  137 000 000 000
    000612  aa  022 144 155 137         dm_no_firstref_tv_
    000613  aa  156 157 137 146
    000614  aa  151 162 163 164
    000615  aa  162 145 146 137
    000616  aa  164 166 137 000
    000617  aa  024 144 155 137         dm_no_firstref_util_
    000620  aa  156 157 137 146
    000621  aa  151 162 163 164
    000622  aa  162 145 146 137
    000623  aa  165 164 151 154
    000624  aa  137 000 000 000
    000625  aa  017 144 155 137         dm_firstref_tv_
    000626  aa  146 151 162 163
    000627  aa  164 162 145 146
    000630  aa  137 164 166 137

NO TRAP POINTER WORDS

TYPE PAIR BLOCKS

    000631  aa   000004 000000
    000632  55   000473 000015
    000633  aa   000004 000000
    000634  55   000323 000323
    000635  aa   000004 000000
    000636  55   000331 000331
    000637  aa   000004 000000
    000640  55   000340 000340
    000641  aa   000004 000000
    000642  55   000463 000345
    000643  aa   000004 000000
    000644  55   000463 000352
    000645  aa   000004 000000
    000646  55   000463 000360
    000647  aa   000004 000000
    000650  55   000463 000367
    000651  aa   000004 000000
    000652  55   000463 000375
    000653  aa   000004 000000
    000654  55   000463 000402
    000655  aa   000004 000000
    000656  55   000463 000407
    000657  aa   000004 000000
    000660  55   000463 000417
    000661  aa   000004 000000
    000662  55   000463 000425
    000663  aa   000004 000000
    000664  55   000463 000434
    000665  aa   000004 000000
    000666  55   000463 000443
    000667  aa   000004 000000
    000670  55   000463 000450
    000671  aa   000004 000000
    000672  55   000463 000457
    000673  aa   000004 000000
    000674  55   000466 000232
    000675  aa   000004 000000
    000676  55   000473 000236
    000677  aa   000004 000000
    000700  55   000501 000245
    000701  aa   000004 000000
    000702  55   000501 000255
    000703  aa   000001 000000
    000704  aa   000000 000000

INTERNAL EXPRESSION WORDS

    000705  5a   000505 000000
    000706  5a   000507 000000
    000707  5a   000511 000000
    000710  5a   000513 000000
    000711  5a   000515 000000
    000712  5a   000517 000000
    000713  5a   000521 000000
    000714  5a   000523 000000
    000715  5a   000525 000000
    000716  5a   000527 000000
    000717  5a   000531 000000
    000720  5a   000533 000000
    000721  5a   000535 000000
    000722  5a   000537 000000
    000723  5a   000541 000000
    000724  5a   000543 000000
    000725  5a   000545 000000
    000726  5a   000547 000000
    000727  5a   000551 000000
    000730  5a   000553 000000
    000731  5a   000555 000000
LINKAGE INFORMATION

    000000  aa   000000 000000
    000001  0a   000124 000000
    000002  aa   000000 000000
    000003  aa   000000 000000
    000004  aa   000000 000000
    000005  aa   000000 000000
    000006  22   000010 000062
    000007  a2   000000 000000
    000010  9a   777770 0000 46         dm_firstref_tv_|dm_status
    000011  5a   000605 0000 00
    000012  9a   777766 0000 46         dm_firstref_tv_|find_old_boot_dir
    000013  5a   000604 0000 00
    000014  9a   777764 0000 46         dm_no_firstref_util_|get_log_path
    000015  5a   000603 0000 00
    000016  9a   777762 0000 46         dm_no_firstref_tv_|log
    000017  5a   000602 0000 00
    000020  9a   777760 0000 46         dm_gate_|dm_get_aim_dir
    000021  5a   000601 0000 00
    000022  9a   777756 0000 46         dm_gate_|dm_get_begin_shutdown_time
    000023  5a   000600 0000 00
    000024  9a   777754 0000 46         dm_gate_|dm_get_bootload_dir
    000025  5a   000577 0000 00
    000026  9a   777752 0000 46         dm_gate_|dm_get_enabled_boot_dirname
    000027  5a   000576 0000 00
    000030  9a   777750 0000 46         dm_gate_|dm_get_initialization_time
    000031  5a   000575 0000 00
    000032  9a   777746 0000 46         dm_gate_|dm_get_shutdown_reason
    000033  5a   000574 0000 00
    000034  9a   777744 0000 46         dm_gate_|dm_get_shutdown_warning_time
    000035  5a   000573 0000 00
    000036  9a   777742 0000 46         dm_gate_|dm_get_system_dir
    000037  5a   000572 0000 00
    000040  9a   777740 0000 46         dm_gate_|dm_get_system_state
    000041  5a   000571 0000 00
    000042  9a   777736 0000 46         dm_gate_|dm_get_system_version
    000043  5a   000570 0000 00
    000044  9a   777734 0000 46         dm_gate_|dm_get_user_shutdown_time
    000045  5a   000567 0000 00
    000046  9a   777732 0000 46         dm_gate_|dm_is_process_using_dm
    000047  5a   000566 0000 00
    000050  9a   777730 0000 46         dm_gate_|dm_set_system_dir
    000051  5a   000565 0000 00
    000052  9a   777726 0000 46         dm_shutdown_handler|dm_shutdown_handler
    000053  5a   000564 0000 00
    000054  9a   777724 0000 46         dm_signal_shutdown_warning|dm_signal_shutdown_warning
    000055  5a   000563 0000 00
    000056  9a   777722 0000 46         dm_signal_user_shutdown|dm_signal_user_shutdown
    000057  5a   000562 0000 00
    000060  9a   777720 0000 46         dm_no_firstref_util_|terminate_dm
    000061  5a   000561 0000 00
SYMBOL INFORMATION

SYMBOL TABLE HEADER

    000000  aa   000000 000001
    000001  aa   163171 155142
    000002  aa   164162 145145
    000003  aa   000000 000004
    000004  aa   000000 112143
    000005  aa   305203 523135
    000006  aa   000000 113475
    000007  aa   517271 721270
    000010  aa   141154 155040
    000011  aa   040040 040040
    000012  aa   000024 000040
    000013  aa   000034 000040
    000014  aa   000044 000100
    000015  aa   000002 000002
    000016  aa   000064 000000
    000017  aa   000000 000140
    000020  aa   000000 000102
    000021  aa   000000 000120
    000022  aa   000132 000102
    000023  aa   000064 000000
    000024  aa   101114 115040
    000025  aa   126145 162163
    000026  aa   151157 156040
    000027  aa   040066 056066
    000030  aa   040040 116157
    000031  aa   166145 155142
    000032  aa   145162 040061
    000033  aa   071070 062040
    000034  aa   107112 157150
    000035  aa   156163 157156
    000036  aa   056123 171163
    000037  aa   115141 151156
    000040  aa   164056 155040
    000041  aa   040040 040040
    000042  aa   040040 040040
    000043  aa   040040 040040
    000044  aa   154151 163164
    000045  aa   040040 040040
    000046  aa   040040 040040
    000047  aa   040040 040040
    000050  aa   040040 040040
    000051  aa   040040 040040
    000052  aa   040040 040040
    000053  aa   040040 040040
    000054  aa   040040 040040
    000055  aa   040040 040040
    000056  aa   040040 040040
    000057  aa   040040 040040
    000060  aa   040040 040040
    000061  aa   040040 040040
    000062  aa   040040 040040
    000063  aa   040040 040040
    000064  aa   000000 000001
    000065  aa   000000 000001
    000066  aa   000072 000040
    000067  aa   134750 166470
    000070  aa   000000 113475
    000071  aa   506255 000000
    000072  aa   076163 160145          >spec>on>41-21>dm_misc_util_.alm
    000073  aa   143076 157156
    000074  aa   076064 061055
    000075  aa   062061 076144
    000076  aa   155137 155151
    000077  aa   163143 137165
    000100  aa   164151 154137
    000101  aa   056141 154155
               MULTICS ASSEMBLY CROSS REFERENCE LISTING

   Value        Symbol                   Source file   Line number

                dm_firstref_tv_          dm_misc_util_:       70,   71.
                dm_gate_                 dm_misc_util_:       74,   75,   76,   77,   78,   79,   80,   81,   82,   83,   84,
                                                              85,   86.
                dm_get_aim_dir           dm_misc_util_:       74.
                dm_get_begin_shutdown_time     dm_misc_util_:       75.
                dm_get_bootload_dir      dm_misc_util_:       76.
                dm_get_enabled_boot_dirname    dm_misc_util_:       77.
                dm_get_initialization_time     dm_misc_util_:       78.
                dm_get_shutdown_reason   dm_misc_util_:       79.
                dm_get_shutdown_warning_time   dm_misc_util_:       80.
                dm_get_system_dir        dm_misc_util_:       81.
                dm_get_system_state      dm_misc_util_:       82.
                dm_get_system_version    dm_misc_util_:       83.
                dm_get_user_shutdown_time      dm_misc_util_:       84.
                dm_is_process_using_dm   dm_misc_util_:       85.
                dm_no_firstref_tv_       dm_misc_util_:       73.
                dm_no_firstref_util_     dm_misc_util_:       72,   90.
                dm_set_system_dir        dm_misc_util_:       86.
                dm_shutdown_handler      dm_misc_util_:       87.
                dm_signal_shutdown_warning     dm_misc_util_:       88.
                dm_signal_user_shutdown  dm_misc_util_:       89.
           0    dm_status                dm_misc_util_:       70.
           1    find_old_boot_dir        dm_misc_util_:       71.
           4    get_aim_dir              dm_misc_util_:       74.
           5    get_begin_shutdown_time  dm_misc_util_:       75.
           6    get_bootload_dir         dm_misc_util_:       76.
           7    get_enabled_bootload_dirname   dm_misc_util_:       77.
          10    get_initialization_time  dm_misc_util_:       78.
           2    get_log_path             dm_misc_util_:       72.
          11    get_shutdown_reason      dm_misc_util_:       79.
          12    get_shutdown_warning_time      dm_misc_util_:       80.
          13    get_system_dir           dm_misc_util_:       81.
          14    get_system_state         dm_misc_util_:       82.
          15    get_system_version       dm_misc_util_:       83.
          16    get_user_shutdown_time   dm_misc_util_:       84.
          17    is_process_using_dm      dm_misc_util_:       85.
           3    log                      dm_misc_util_:       73.
          20    set_system_dir           dm_misc_util_:       86.
          21    shutdown_handler         dm_misc_util_:       87.
          22    signal_shutdown_warning  dm_misc_util_:       88.
          23    signal_user_shutdown     dm_misc_util_:       89.
          24    terminate_dm             dm_misc_util_:       90.


NO FATAL ERRORS


                                          -----------------------------------------------------------


Historical Background

This edition of the Multics software materials and documentation is provided and donated
to Massachusetts Institute of Technology by Group BULL including BULL HN Information Systems Inc.
as a contribution to computer science knowledge.
This donation is made also to give evidence of the common contributions of Massachusetts Institute of Technology,
Bell Laboratories, General Electric, Honeywell Information Systems Inc., Honeywell BULL Inc., Groupe BULL
and BULL HN Information Systems Inc. to the development of this operating system.
Multics development was initiated by Massachusetts Institute of Technology Project MAC (1963-1970),
renamed the MIT Laboratory for Computer Science and Artificial Intelligence in the mid 1970s, under the leadership
of Professor Fernando Jose Corbato. Users consider that Multics provided the best software architecture
for managing computer hardware properly and for executing programs. Many subsequent operating systems
incorporated Multics principles.
Multics was distributed in 1975 to 2000 by Group Bull in Europe , and in the U.S. by Bull HN Information Systems Inc.,
as successor in interest by change in name only to Honeywell Bull Inc. and Honeywell Information Systems Inc. .

                                          -----------------------------------------------------------

Permission to use, copy, modify, and distribute these programs and their documentation for any purpose and without
fee is hereby granted,provided that the below copyright notice and historical background appear in all copies
and that both the copyright notice and historical background and this permission notice appear in supporting
documentation, and that the names of MIT, HIS, BULL or BULL HN not be used in advertising or publicity pertaining
to distribution of the programs without specific prior written permission.
    Copyright 1972 by Massachusetts Institute of Technology and Honeywell Information Systems Inc.
    Copyright 2006 by BULL HN Information Systems Inc.
    Copyright 2006 by Bull SAS
    All Rights Reserved
