ASSEMBLY LISTING OF SEGMENT >spec>on>7138.pbf>dm_vector_util_.alm
ASSEMBLED ON:	03/05/85  0839.6 mst Tue
OPTIONS USED:	list
ASSEMBLED BY:	ALM Version  6.6  November 1982
ASSEMBLER CREATED:	09/21/83  1227.3 mst Wed

                                     1  " ***********************************************************
                                     2  " *                                                         *
                                     3  " * Copyright, (C) Honeywell Information Systems Inc., 1983 *
                                     4  " *                                                         *
                                     5  " ***********************************************************
    000000                           6  	name	dm_vector_util_
                                     7
                                     8  " Modified:
                                     9  " 11/10/83 by Matthew Pierret: Added $copy_vector and $copy_vector_list.
                                    10  "             Added $free_vector and $free_vector_list.
                                    11  " 11/20/84 by Lindsey Spratt: Taken from vector_util_.
                                    12  " 12/05/84 by Lindsey Spratt: Fixed to reference dm_vu_* instead of vu_*.
                                    13  " 12/20/84 by Lindsey Spratt: Removed the unreferenced
                                    14  "	    $copy_typed_vector_array.
                                    15  "
                                    16  " Macro to generate a call to an external entrypoint in the utilities
                                    17
                                    18  	macro	ext_transfer
                              1     19  	segdef	&1
                              2     20  &1:	getlp
                              3     21  	tra	&2
                              4     22
                              5     23  	&end
                                    24
                                    25  	ext_transfer append_simple_typed_vector,dm_vu_append_simple_typed$dm_vu_append_simple_typed
                        000000          	segdef	append_simple_typed_vector
    000000  aa  7 00046 2721 20         append_simple_typed_vector:	getlp
    000001  4a  4 00010 7101 20         	tra	dm_vu_append_simple_typed$dm_vu_append_simple_typed

                                    26  	ext_transfer copy_typed_vector,dm_vu_copy_typed_vector$dm_vu_copy_typed_vector
                        000002          	segdef	copy_typed_vector
    000002  aa  7 00046 2721 20         copy_typed_vector:	getlp
    000003  4a  4 00012 7101 20         	tra	dm_vu_copy_typed_vector$dm_vu_copy_typed_vector

                                    27  	ext_transfer err_no_operation,dm_vu_err_no_operation$dm_vu_err_no_operation
                        000004          	segdef	err_no_operation
    000004  aa  7 00046 2721 20         err_no_operation:	getlp
    000005  4a  4 00014 7101 20         	tra	dm_vu_err_no_operation$dm_vu_err_no_operation

                                    28  	ext_transfer free_typed_vector,dm_vu_free_typed_vector$dm_vu_free_typed_vector
                        000006          	segdef	free_typed_vector
    000006  aa  7 00046 2721 20         free_typed_vector:	getlp
    000007  4a  4 00016 7101 20         	tra	dm_vu_free_typed_vector$dm_vu_free_typed_vector

                                    29  	ext_transfer free_typed_vector_array,dm_vu_free_tva$dm_vu_free_tva
                        000010          	segdef	free_typed_vector_array
    000010  aa  7 00046 2721 20         free_typed_vector_array:	getlp
    000011  4a  4 00020 7101 20         	tra	dm_vu_free_tva$dm_vu_free_tva

                                    30  	ext_transfer init_typed_vector_array,dm_vu_init_tva$dm_vu_init_tva
                        000012          	segdef	init_typed_vector_array
    000012  aa  7 00046 2721 20         init_typed_vector_array:	getlp
    000013  4a  4 00022 7101 20         	tra	dm_vu_init_tva$dm_vu_init_tva

                                    31            ext_transfer merge_typed_vector_array,dm_vu_merge_tva$dm_vu_merge_tva
                        000014          	segdef	merge_typed_vector_array
    000014  aa  7 00046 2721 20         merge_typed_vector_array:	getlp
    000015  4a  4 00024 7101 20         	tra	dm_vu_merge_tva$dm_vu_merge_tva

                                    32  	end

NO LITERALS

NAME DEFINITIONS FOR ENTRY POINTS AND SEGDEFS

    000016  5a   000003 000000
    000017  5a   000117 600000
    000020  aa   000000 000000
    000021  55   000012 000002
    000022  5a   000002 400003
    000023  55   000006 000012
    000024  aa  017 144 155 137
    000025  aa  166 145 143 164
    000026  aa  157 162 137 165
    000027  aa  164 151 154 137
    000030  55   000024 000003
    000031  0a   000014 400000
    000032  55   000015 000003
    000033  aa  030 155 145 162         merge_typed_vector_array
    000034  aa  147 145 137 164
    000035  aa  171 160 145 144
    000036  aa  137 166 145 143
    000037  aa  164 157 162 137
    000040  aa  141 162 162 141
    000041  aa  171 000 000 000
    000042  55   000035 000012
    000043  0a   000012 400000
    000044  55   000027 000003
    000045  aa  027 151 156 151         init_typed_vector_array
    000046  aa  164 137 164 171
    000047  aa  160 145 144 137
    000050  aa  166 145 143 164
    000051  aa  157 162 137 141
    000052  aa  162 162 141 171
    000053  55   000046 000024
    000054  0a   000010 400000
    000055  55   000040 000003
    000056  aa  027 146 162 145         free_typed_vector_array
    000057  aa  145 137 164 171
    000060  aa  160 145 144 137
    000061  aa  166 145 143 164
    000062  aa  157 162 137 141
    000063  aa  162 162 141 171
    000064  55   000056 000035
    000065  0a   000006 400000
    000066  55   000051 000003
    000067  aa  021 146 162 145         free_typed_vector
    000070  aa  145 137 164 171
    000071  aa  160 145 144 137
    000072  aa  166 145 143 164
    000073  aa  157 162 000 000
    000074  55   000066 000046
    000075  0a   000004 400000
    000076  55   000061 000003
    000077  aa  020 145 162 162         err_no_operation
    000100  aa  137 156 157 137
    000101  aa  157 160 145 162
    000102  aa  141 164 151 157
    000103  aa  156 000 000 000
    000104  55   000076 000056
    000105  0a   000002 400000
    000106  55   000071 000003
    000107  aa  021 143 157 160         copy_typed_vector
    000110  aa  171 137 164 171
    000111  aa  160 145 144 137
    000112  aa  166 145 143 164
    000113  aa  157 162 000 000
    000114  55   000110 000066
    000115  0a   000000 400000
    000116  55   000101 000003
    000117  aa  032 141 160 160         append_simple_typed_vector
    000120  aa  145 156 144 137
    000121  aa  163 151 155 160
    000122  aa  154 145 137 164
    000123  aa  171 160 145 144
    000124  aa  137 166 145 143
    000125  aa  164 157 162 000
    000126  55   000002 000076
    000127  6a   000000 400002
    000130  55   000113 000003
    000131  aa  014 163 171 155         symbol_table
    000132  aa  142 157 154 137
    000133  aa  164 141 142 154
    000134  aa  145 000 000 000

DEFINITIONS HASH TABLE

    000135  aa   000000 000015
    000136  5a   000012 000000
    000137  aa   000000 000000
    000140  5a   000066 000000
    000141  5a   000046 000000
    000142  5a   000076 000000
    000143  aa   000000 000000
    000144  5a   000024 000000
    000145  5a   000110 000000
    000146  aa   000000 000000
    000147  5a   000056 000000
    000150  aa   000000 000000
    000151  aa   000000 000000
    000152  5a   000035 000000

EXTERNAL NAMES

    000153  aa  017 144 155 137         dm_vu_merge_tva
    000154  aa  166 165 137 155
    000155  aa  145 162 147 145
    000156  aa  137 164 166 141
    000157  aa  016 144 155 137         dm_vu_init_tva
    000160  aa  166 165 137 151
    000161  aa  156 151 164 137
    000162  aa  164 166 141 000
    000163  aa  016 144 155 137         dm_vu_free_tva
    000164  aa  166 165 137 146
    000165  aa  162 145 145 137
    000166  aa  164 166 141 000
    000167  aa  027 144 155 137         dm_vu_free_typed_vector
    000170  aa  166 165 137 146
    000171  aa  162 145 145 137
    000172  aa  164 171 160 145
    000173  aa  144 137 166 145
    000174  aa  143 164 157 162
    000175  aa  026 144 155 137         dm_vu_err_no_operation
    000176  aa  166 165 137 145
    000177  aa  162 162 137 156
    000200  aa  157 137 157 160
    000201  aa  145 162 141 164
    000202  aa  151 157 156 000
    000203  aa  027 144 155 137         dm_vu_copy_typed_vector
    000204  aa  166 165 137 143
    000205  aa  157 160 171 137
    000206  aa  164 171 160 145
    000207  aa  144 137 166 145
    000210  aa  143 164 157 162
    000211  aa  031 144 155 137         dm_vu_append_simple_typed
    000212  aa  166 165 137 141
    000213  aa  160 160 145 156
    000214  aa  144 137 163 151
    000215  aa  155 160 154 145
    000216  aa  137 164 171 160
    000217  aa  145 144 000 000

NO TRAP POINTER WORDS

TYPE PAIR BLOCKS

    000220  aa   000004 000000
    000221  55   000135 000135
    000222  aa   000004 000000
    000223  55   000141 000141
    000224  aa   000004 000000
    000225  55   000145 000145
    000226  aa   000004 000000
    000227  55   000151 000151
    000230  aa   000004 000000
    000231  55   000157 000157
    000232  aa   000004 000000
    000233  55   000165 000165
    000234  aa   000004 000000
    000235  55   000173 000173
    000236  aa   000001 000000
    000237  aa   000000 000000

INTERNAL EXPRESSION WORDS

    000240  5a   000202 000000
    000241  5a   000204 000000
    000242  5a   000206 000000
    000243  5a   000210 000000
    000244  5a   000212 000000
    000245  5a   000214 000000
    000246  5a   000216 000000
    000247  aa   000000 000000
LINKAGE INFORMATION

    000000  aa   000000 000000
    000001  0a   000016 000000
    000002  aa   000000 000000
    000003  aa   000000 000000
    000004  aa   000000 000000
    000005  aa   000000 000000
    000006  22   000010 000026
    000007  a2   000000 000000
    000010  9a   777770 0000 46         dm_vu_append_simple_typed|dm_vu_append_simple_typed
    000011  5a   000230 0000 00
    000012  9a   777766 0000 46         dm_vu_copy_typed_vector|dm_vu_copy_typed_vector
    000013  5a   000227 0000 00
    000014  9a   777764 0000 46         dm_vu_err_no_operation|dm_vu_err_no_operation
    000015  5a   000226 0000 00
    000016  9a   777762 0000 46         dm_vu_free_typed_vector|dm_vu_free_typed_vector
    000017  5a   000225 0000 00
    000020  9a   777760 0000 46         dm_vu_free_tva|dm_vu_free_tva
    000021  5a   000224 0000 00
    000022  9a   777756 0000 46         dm_vu_init_tva|dm_vu_init_tva
    000023  5a   000223 0000 00
    000024  9a   777754 0000 46         dm_vu_merge_tva|dm_vu_merge_tva
    000025  5a   000222 0000 00
SYMBOL INFORMATION

SYMBOL TABLE HEADER

    000000  aa   000000 000001
    000001  aa   163171 155142
    000002  aa   164162 145145
    000003  aa   000000 000004
    000004  aa   000000 112143
    000005  aa   305203 523135
    000006  aa   000000 113376
    000007  aa   634153 220545
    000010  aa   141154 155040
    000011  aa   040040 040040
    000012  aa   000024 000040
    000013  aa   000034 000040
    000014  aa   000044 000100
    000015  aa   000002 000002
    000016  aa   000064 000000
    000017  aa   000000 000124
    000020  aa   000000 000104
    000021  aa   000000 000110
    000022  aa   000116 000104
    000023  aa   000064 000000
    000024  aa   101114 115040
    000025  aa   126145 162163
    000026  aa   151157 156040
    000027  aa   040066 056066
    000030  aa   040040 116157
    000031  aa   166145 155142
    000032  aa   145162 040061
    000033  aa   071070 062040
    000034  aa   107112 157150
    000035  aa   156163 157156
    000036  aa   056123 171163
    000037  aa   115141 151156
    000040  aa   164056 155040
    000041  aa   040040 040040
    000042  aa   040040 040040
    000043  aa   040040 040040
    000044  aa   154151 163164
    000045  aa   040040 040040
    000046  aa   040040 040040
    000047  aa   040040 040040
    000050  aa   040040 040040
    000051  aa   040040 040040
    000052  aa   040040 040040
    000053  aa   040040 040040
    000054  aa   040040 040040
    000055  aa   040040 040040
    000056  aa   040040 040040
    000057  aa   040040 040040
    000060  aa   040040 040040
    000061  aa   040040 040040
    000062  aa   040040 040040
    000063  aa   040040 040040
    000064  aa   000000 000001
    000065  aa   000000 000001
    000066  aa   000072 000045
    000067  aa   133727 541740
    000070  aa   000000 113376
    000071  aa   610540 400000
    000072  aa   076163 160145          >spec>on>7138.pbf>dm_vector_util_.alm
    000073  aa   143076 157156
    000074  aa   076067 061063
    000075  aa   070056 160142
    000076  aa   146076 144155
    000077  aa   137166 145143
    000100  aa   164157 162137
    000101  aa   165164 151154
    000102  aa   137056 141154
    000103  aa   155040 040040
               MULTICS ASSEMBLY CROSS REFERENCE LISTING

   Value        Symbol                   Source file   Line number

           0    append_simple_typed_vector     dm_vector_util_:     25.
           2    copy_typed_vector        dm_vector_util_:     26.
                dm_vu_append_simple_typed      dm_vector_util_:     25.
                dm_vu_copy_typed_vector  dm_vector_util_:     26.
                dm_vu_err_no_operation   dm_vector_util_:     27.
                dm_vu_free_tva           dm_vector_util_:     29.
                dm_vu_free_typed_vector  dm_vector_util_:     28.
                dm_vu_init_tva           dm_vector_util_:     30.
                dm_vu_merge_tva          dm_vector_util_:     31.
           4    err_no_operation         dm_vector_util_:     27.
           6    free_typed_vector        dm_vector_util_:     28.
          10    free_typed_vector_array  dm_vector_util_:     29.
          12    init_typed_vector_array  dm_vector_util_:     30.
          14    merge_typed_vector_array       dm_vector_util_:     31.


NO FATAL ERRORS


                                          -----------------------------------------------------------


Historical Background

This edition of the Multics software materials and documentation is provided and donated
to Massachusetts Institute of Technology by Group BULL including BULL HN Information Systems Inc.
as a contribution to computer science knowledge.
This donation is made also to give evidence of the common contributions of Massachusetts Institute of Technology,
Bell Laboratories, General Electric, Honeywell Information Systems Inc., Honeywell BULL Inc., Groupe BULL
and BULL HN Information Systems Inc. to the development of this operating system.
Multics development was initiated by Massachusetts Institute of Technology Project MAC (1963-1970),
renamed the MIT Laboratory for Computer Science and Artificial Intelligence in the mid 1970s, under the leadership
of Professor Fernando Jose Corbato. Users consider that Multics provided the best software architecture
for managing computer hardware properly and for executing programs. Many subsequent operating systems
incorporated Multics principles.
Multics was distributed in 1975 to 2000 by Group Bull in Europe , and in the U.S. by Bull HN Information Systems Inc.,
as successor in interest by change in name only to Honeywell Bull Inc. and Honeywell Information Systems Inc. .

                                          -----------------------------------------------------------

Permission to use, copy, modify, and distribute these programs and their documentation for any purpose and without
fee is hereby granted,provided that the below copyright notice and historical background appear in all copies
and that both the copyright notice and historical background and this permission notice appear in supporting
documentation, and that the names of MIT, HIS, BULL or BULL HN not be used in advertising or publicity pertaining
to distribution of the programs without specific prior written permission.
    Copyright 1972 by Massachusetts Institute of Technology and Honeywell Information Systems Inc.
    Copyright 2006 by BULL HN Information Systems Inc.
    Copyright 2006 by Bull SAS
    All Rights Reserved
