ASSEMBLY LISTING OF SEGMENT >spec>temp>famis1>dmu_compare_decimal_values.alm
ASSEMBLED ON:	01/03/85  1427.5 mst Thu
OPTIONS USED:	list
ASSEMBLED BY:	ALM Version  6.6  November 1982
ASSEMBLER CREATED:	09/21/83  1227.3 mst Wed

                                     1  " ***********************************************************
                                     2  " *                                                         *
                                     3  " * Copyright, (C) Honeywell Information Systems Inc., 1983 *
                                     4  " *                                                         *
                                     5  " ***********************************************************
                                     6  "
                                     7  " Written by Lindsey Spratt, 04/10/82.
                                     8  " Modified:
                                     9  " 01/14/83 by Lindsey Spratt:  Added dec4(ls fl) entries.
                                    10  " 03/28/83 by Lindsey Spratt:  Changed from im_* to dmu_*.
                                    11  "
                                    12  "
    000000                          13  	name	dmu_compare_decimal_values
                        000000      14  	entry	dmu_compare_dec9ls
                                    15
    000000                          16  dmu_compare_dec9ls:
    000000  aa  0 00002 7211 20     17  	lxl1	ap|2,*
    000001  aa  0 00004 3521 20     18  	eppbp	ap|4,*		" bp -> ptr -> value1
    000002  aa  2 00000 3521 20     19  	eppbp	bp|0,*		" bp -> value1
    000003  aa  0 00006 3535 20     20  	eppbb	ap|6,*		" bb -> ptr -> value2
    000004  aa  3 00000 3535 20     21  	eppbb	bb|0,*		" bb -> value2
    000005  aa  0 00140 3035 40     22  	cmpn	(pr,rl),(pr,rl)
    000006  aa   200000 010011      23  	desc9ls	bp|0,x1,0
    000007  aa   300000 010011      24  	desc9ls	bb|0,x1,0
    000010  0a   000054 6000 00     25  	tze	return_equal
    000011  0a   000060 6040 00     26  	tmi	return_greater
    000012  0a   000063 7100 00     27  	tra	return_less
                                    28
                        000013      29  	entry	dmu_compare_dec9fl
                                    30
    000013                          31  dmu_compare_dec9fl:
    000013  aa  0 00002 7211 20     32  	lxl1	ap|2,*
    000014  aa  0 00004 3521 20     33  	eppbp	ap|4,*		" bp -> ptr -> value1
    000015  aa  2 00000 3521 20     34  	eppbp	bp|0,*		" bp -> value1
    000016  aa  0 00006 3535 20     35  	eppbb	ap|6,*		" bb -> ptr -> value2
    000017  aa  3 00000 3535 20     36  	eppbb	bb|0,*		" bb -> value2
    000020  aa  0 00140 3035 40     37  	cmpn	(pr,rl),(pr,rl)
    000021  aa   200000 000011      38  	desc9fl	bp|0,x1,0
    000022  aa   300000 000011      39  	desc9fl	bb|0,x1,0
    000023  0a   000054 6000 00     40  	tze	return_equal
    000024  0a   000060 6040 00     41  	tmi	return_greater
    000025  0a   000063 7100 00     42  	tra	return_less
                                    43
                        000026      44  	entry	dmu_compare_dec4ls
                                    45
    000026                          46  dmu_compare_dec4ls:
    000026  aa  0 00002 7211 20     47  	lxl1	ap|2,*
    000027  aa  0 00004 3521 20     48  	eppbp	ap|4,*		" bp -> ptr -> value1
    000030  aa  2 00000 3521 20     49  	eppbp	bp|0,*		" bp -> value1
    000031  aa  0 00006 3535 20     50  	eppbb	ap|6,*		" bb -> ptr -> value2
    000032  aa  3 00000 3535 20     51  	eppbb	bb|0,*		" bb -> value2
    000033  aa  0 00140 3035 40     52  	cmpn	(pr,rl),(pr,rl)
    000034  aa   200000 050011      53  	desc4ls	bp|0,x1,0
    000035  aa   300000 050011      54  	desc4ls	bb|0,x1,0
    000036  0a   000054 6000 00     55  	tze	return_equal
    000037  0a   000060 6040 00     56  	tmi	return_greater
    000040  0a   000063 7100 00     57  	tra	return_less
                                    58
                        000041      59  	entry	dmu_compare_dec4fl
                                    60
    000041                          61  dmu_compare_dec4fl:
    000041  aa  0 00002 7211 20     62  	lxl1	ap|2,*
    000042  aa  0 00004 3521 20     63  	eppbp	ap|4,*		" bp -> ptr -> value1
    000043  aa  2 00000 3521 20     64  	eppbp	bp|0,*		" bp -> value1
    000044  aa  0 00006 3535 20     65  	eppbb	ap|6,*		" bb -> ptr -> value2
    000045  aa  3 00000 3535 20     66  	eppbb	bb|0,*		" bb -> value2
    000046  aa  0 00140 3035 40     67  	cmpn	(pr,rl),(pr,rl)
    000047  aa   200000 040011      68  	desc4fl	bp|0,x1,0
    000050  aa   300000 040011      69  	desc4fl	bb|0,x1,0
    000051  0a   000054 6000 00     70  	tze	return_equal
    000052  0a   000060 6040 00     71  	tmi	return_greater
    000053  0a   000063 7100 00     72  	tra	return_less
                                    73
    000054                          74  return_equal:
    000054  aa   400000 2350 03     75  	lda	=o400000,du
    000055  aa  0 00010 7551 20     76  	sta	ap|8,*
    000056  aa  0 00012 4501 20     77  	stz	ap|10,*
    000057  aa  7 00044 7101 20     78  	short_return
                                    79
    000060                          80  return_greater:
    000060  aa  0 00010 4501 20     81  	stz	ap|8,*
    000061  aa  0 00012 4501 20     82  	stz	ap|10,*
    000062  aa  7 00044 7101 20     83  	short_return
                                    84
    000063                          85  return_less:
    000063  aa   400000 2350 03     86  	lda	=o400000,du
    000064  aa  0 00012 7551 20     87  	sta	ap|10,*
    000065  aa  0 00010 4501 20     88  	stz	ap|8,*
    000066  aa  7 00044 7101 20     89  	short_return
                                    90
                                    91  	end
ENTRY SEQUENCES

    000067  5a   000045 0000 00
    000070  aa  7 00046 2721 20
    000071  0a   000000 7100 00
    000072  5a   000035 0000 00
    000073  aa  7 00046 2721 20
    000074  0a   000013 7100 00
    000075  5a   000025 0000 00
    000076  aa  7 00046 2721 20
    000077  0a   000026 7100 00
    000100  5a   000015 0000 00
    000101  aa  7 00046 2721 20
    000102  0a   000041 7100 00

NO LITERALS

NAME DEFINITIONS FOR ENTRY POINTS AND SEGDEFS

    000104  5a   000003 000000
    000105  5a   000064 600000
    000106  aa   000000 000000
    000107  55   000015 000002
    000110  5a   000002 400003
    000111  55   000006 000015
    000112  aa  032 144 155 165
    000113  aa  137 143 157 155
    000114  aa  160 141 162 145
    000115  aa  137 144 145 143
    000116  aa  151 155 141 154
    000117  aa  137 166 141 154
    000120  aa  165 145 163 000
    000121  55   000025 000003
    000122  0a   000101 500000
    000123  55   000020 000003
    000124  aa  022 144 155 165         dmu_compare_dec4fl
    000125  aa  137 143 157 155
    000126  aa  160 141 162 145
    000127  aa  137 144 145 143
    000130  aa  064 146 154 000
    000131  55   000035 000015
    000132  0a   000076 500000
    000133  55   000030 000003
    000134  aa  022 144 155 165         dmu_compare_dec4ls
    000135  aa  137 143 157 155
    000136  aa  160 141 162 145
    000137  aa  137 144 145 143
    000140  aa  064 154 163 000
    000141  55   000045 000025
    000142  0a   000073 500000
    000143  55   000040 000003
    000144  aa  022 144 155 165         dmu_compare_dec9fl
    000145  aa  137 143 157 155
    000146  aa  160 141 162 145
    000147  aa  137 144 145 143
    000150  aa  071 146 154 000
    000151  55   000055 000035
    000152  0a   000070 500000
    000153  55   000050 000003
    000154  aa  022 144 155 165         dmu_compare_dec9ls
    000155  aa  137 143 157 155
    000156  aa  160 141 162 145
    000157  aa  137 144 145 143
    000160  aa  071 154 163 000
    000161  55   000002 000045
    000162  6a   000000 400002
    000163  55   000060 000003
    000164  aa  014 163 171 155         symbol_table
    000165  aa  142 157 154 137
    000166  aa  164 141 142 154
    000167  aa  145 000 000 000

DEFINITIONS HASH TABLE

    000170  aa   000000 000015
    000171  aa   000000 000000
    000172  aa   000000 000000
    000173  aa   000000 000000
    000174  aa   000000 000000
    000175  5a   000015 000000
    000176  5a   000025 000000
    000177  5a   000035 000000
    000200  5a   000045 000000
    000201  5a   000055 000000
    000202  aa   000000 000000
    000203  aa   000000 000000
    000204  aa   000000 000000
    000205  aa   000000 000000

NO EXTERNAL NAMES

NO TRAP POINTER WORDS

TYPE PAIR BLOCKS

    000206  aa   000001 000000
    000207  aa   000000 000000

INTERNAL EXPRESSION WORDS

LINKAGE INFORMATION

    000000  aa   000000 000000
    000001  0a   000104 000000
    000002  aa   000000 000000
    000003  aa   000000 000000
    000004  aa   000000 000000
    000005  aa   000000 000000
    000006  22   000010 000010
    000007  a2   000000 000000
SYMBOL INFORMATION

SYMBOL TABLE HEADER

    000000  aa   000000 000001
    000001  aa   163171 155142
    000002  aa   164162 145145
    000003  aa   000000 000004
    000004  aa   000000 112143
    000005  aa   305203 523135
    000006  aa   000000 113262
    000007  aa   324136 411612
    000010  aa   141154 155040
    000011  aa   040040 040040
    000012  aa   000024 000040
    000013  aa   000034 000040
    000014  aa   000044 000100
    000015  aa   000002 000002
    000016  aa   000064 000000
    000017  aa   000000 000127
    000020  aa   000000 000106
    000021  aa   000000 000116
    000022  aa   000121 000106
    000023  aa   000064 000000
    000024  aa   101114 115040
    000025  aa   126145 162163
    000026  aa   151157 156040
    000027  aa   040066 056066
    000030  aa   040040 116157
    000031  aa   166145 155142
    000032  aa   145162 040061
    000033  aa   071070 062040
    000034  aa   107112 157150
    000035  aa   156163 157156
    000036  aa   056123 171163
    000037  aa   115141 151156
    000040  aa   164056 155040
    000041  aa   040040 040040
    000042  aa   040040 040040
    000043  aa   040040 040040
    000044  aa   154151 163164
    000045  aa   040040 040040
    000046  aa   040040 040040
    000047  aa   040040 040040
    000050  aa   040040 040040
    000051  aa   040040 040040
    000052  aa   040040 040040
    000053  aa   040040 040040
    000054  aa   040040 040040
    000055  aa   040040 040040
    000056  aa   040040 040040
    000057  aa   040040 040040
    000060  aa   040040 040040
    000061  aa   040040 040040
    000062  aa   040040 040040
    000063  aa   040040 040040
    000064  aa   000000 000001
    000065  aa   000000 000001
    000066  aa   000072 000060
    000067  aa   132620 757054
    000070  aa   000000 113262
    000071  aa   215522 600000
    000072  aa   076163 160145          >spec>temp>famis1>dmu_compare_decimal_values.alm
    000073  aa   143076 164145
    000074  aa   155160 076146
    000075  aa   141155 151163
    000076  aa   061076 144155
    000077  aa   165137 143157
    000100  aa   155160 141162
    000101  aa   145137 144145
    000102  aa   143151 155141
    000103  aa   154137 166141
    000104  aa   154165 145163
    000105  aa   056141 154155
               MULTICS ASSEMBLY CROSS REFERENCE LISTING

   Value        Symbol                   Source file   Line number

          41    dmu_compare_dec4fl       dmu_compare_decimal_values:      59,   61.
          26    dmu_compare_dec4ls       dmu_compare_decimal_values:      44,   46.
          13    dmu_compare_dec9fl       dmu_compare_decimal_values:      29,   31.
           0    dmu_compare_dec9ls       dmu_compare_decimal_values:      14,   16.
          54    return_equal             dmu_compare_decimal_values:      25,   40,   55,   70,   74.
          60    return_greater           dmu_compare_decimal_values:      26,   41,   56,   71,   80.
          63    return_less              dmu_compare_decimal_values:      27,   42,   57,   72,   85.


NO FATAL ERRORS


                                          -----------------------------------------------------------


Historical Background

This edition of the Multics software materials and documentation is provided and donated
to Massachusetts Institute of Technology by Group BULL including BULL HN Information Systems Inc.
as a contribution to computer science knowledge.
This donation is made also to give evidence of the common contributions of Massachusetts Institute of Technology,
Bell Laboratories, General Electric, Honeywell Information Systems Inc., Honeywell BULL Inc., Groupe BULL
and BULL HN Information Systems Inc. to the development of this operating system.
Multics development was initiated by Massachusetts Institute of Technology Project MAC (1963-1970),
renamed the MIT Laboratory for Computer Science and Artificial Intelligence in the mid 1970s, under the leadership
of Professor Fernando Jose Corbato. Users consider that Multics provided the best software architecture
for managing computer hardware properly and for executing programs. Many subsequent operating systems
incorporated Multics principles.
Multics was distributed in 1975 to 2000 by Group Bull in Europe , and in the U.S. by Bull HN Information Systems Inc.,
as successor in interest by change in name only to Honeywell Bull Inc. and Honeywell Information Systems Inc. .

                                          -----------------------------------------------------------

Permission to use, copy, modify, and distribute these programs and their documentation for any purpose and without
fee is hereby granted,provided that the below copyright notice and historical background appear in all copies
and that both the copyright notice and historical background and this permission notice appear in supporting
documentation, and that the names of MIT, HIS, BULL or BULL HN not be used in advertising or publicity pertaining
to distribution of the programs without specific prior written permission.
    Copyright 1972 by Massachusetts Institute of Technology and Honeywell Information Systems Inc.
    Copyright 2006 by BULL HN Information Systems Inc.
    Copyright 2006 by Bull SAS
    All Rights Reserved
