ASSEMBLY LISTING OF SEGMENT >special_ldd>install>MR12.0-1127>dsl_.alm
ASSEMBLED ON:	08/15/86  1447.8 mst Fri
OPTIONS USED:	-target Level68 list
ASSEMBLED BY:	ALM Version  6.6  November 1982
ASSEMBLER CREATED:	09/21/83  1227.3 mst Wed

                                     1  " ***********************************************************
                                     2  " *                                                         *
                                     3  " * Copyright, (C) Honeywell Information Systems Inc., 1981 *
                                     4  " *                                                         *
                                     5  " * Copyright (c) 1972 by Massachusetts Institute of        *
                                     6  " * Technology and Honeywell Information Systems, Inc.      *
                                     7  " *                                                         *
                                     8  " ***********************************************************
                                     9
                                    10  " HISTORY COMMENTS:
                                    11  "  1) change(86-06-13,Dupuis), approve(86-08-05,MCR7491),
                                    12  "     audit(86-08-08,Blair), install(86-08-15,MR12.0-1127):
                                    13  "     Made available so that an unbound version of mrds could be created
                                    14  "     easily. (phx20405, mrds #157)
                                    15  "                                                      END HISTORY COMMENTS
                                    16  "
                                    17  " NOTES:
                                    18  "
                                    19  " This is the transfer vector for the unbound version of dsl_
                                    20  "
                                    21  "
                                    22  " HISTORY:
                                    23  "
                                    24  "80-04-01  Jim Gray : Modified to remove dsl_$define_area, and to canonize and
                                    25  "sort the source
                                    26  "
                                    27  "80-09-24  Jim  Gray : Modified to add $get_opening_temp_dir entry so that the
                                    28  "temp dir for a particular opening can be obtained.
                                    29  "
                                    30  "81-01-11  Jim Gray : added get_scope entry for new routine mrds_dsl_get_scope
                                    31  "as part of implementing scope_vs_access proposal.
                                    32  "
                                    33  "81-01-13   Jim   Gray   :   added   get_access_info  entry  for  new  routine
                                    34  "mrds_dsl_get_access_info as part of implementing scope_vs_access proposal
                                    35  "
                                    36  "81-01-14 Jim Gray : added get_attribute_list and get_relation_list entries as
                                    37  "part of implementing the scope_vs_access proposal, and answering TR 7780
                                    38  "
                                    39  "81-01-23  Jim  Gray : deleted get_access_info, since this information will be
                                    40  "part   of   the   get_relation/attribute_list   interface.   Also  added  the
                                    41  "get_version extension get_path_info interface entry.
                                    42  "
                                    43  "81-01-30 Jim Gray : deleted list_db_with_modes, replacing it by list_openings
                                    44  "and module mrds_dsl_list_dbs is now named mrds_dsl_db_openings
                                    45  "
                                    46  "81-03-26 Jim Gray : added entry for dsl_$get_population
                                    47  "
                                    48  "81-05-14 Rickie E.  Brinegar: added entry for dsl_$get_security_info.
                                    49  "
                                    50  "81-05-27   Jim   Gray   :   removed  unused  entries  eval_expr,  finish_all,
                                    51  "finish_file, get_ready_files, get_scope_info, ready_all, ready_file
                                    52  "
                                    53  "81-06-16  Rickie  E.  Brinegar: renames get_file_names to get_rslt_rels while
                                    54  "removing the file interfaces from LINUS.
                                    55  "
                                    56  "81-06-17 Rickie E.  Brinegar: added back get_scope_info entry in an effort to
                                    57  "remove the internal static scope_data structure in LINUS.
                                    58  "
                                    59  "81-06-19   Rickie   E.   Brinegar:  removed  the  unused  entries  dl_fscope,
                                    60  "dl_fscope_all,  get_file_relations,  get_rels,  get_rslt_desc, get_temp_desc,
                                    61  "and set_fscope.
                                    62
                                    63  "83-05-19 Davids: Added the create_res_copy entry
                                    64
                                    65  "84-10-29 Benjamin: Added the compile entry
                                    66
    000000                          67    	name 	dsl_
                                    68
                        000000      69  	entry	compile
    000000                          70  compile:
    000000  4a  4 00010 7101 20     71  	tra	<mrds_dsl_compile>|[compile]
                                    72
                        000001      73  	entry	close
    000001                          74  close:
    000001  4a  4 00012 7101 20     75  	tra	<mrds_dsl_close>|[close]
                                    76
                        000002      77  	entry	close_all
    000002                          78  close_all:
    000002  4a  4 00014 7101 20     79  	tra	<mrds_dsl_close_all>|[close_all]
                                    80
                        000003      81  	entry	create_res_copy
    000003                          82  create_res_copy:
    000003  4a  4 00016 7101 20     83  	tra	<mrds_dsl_create_res_copy>|[mrds_dsl_create_res_copy]
                                    84
                        000004      85  	entry	declare
    000004                          86  declare:
    000004  4a  4 00020 7101 20     87  	tra	<mrds_dsl_declare>|[declare]
                                    88
                        000005      89  	entry	define_temp_rel
    000005                          90  define_temp_rel:
    000005  4a  4 00022 7101 20     91  	tra	<mrds_dsl_define_temp_rel>|[define_temp_rel]
                                    92
                        000006      93  	entry	delete
    000006                          94  delete:
    000006  4a  4 00024 7101 20     95  	tra	<mrds_dsl_delete>|[delete]
                                    96
                        000007      97  	entry	dl_scope_all
    000007                          98  dl_scope_all:
    000007  4a  4 00026 7101 20     99  	tra	<mrds_dsl_set_scope>|[dl_scope_all]
                                   100
                        000010     101    	entry	dl_scope
    000010                         102  dl_scope:
    000010  4a  4 00030 7101 20    103  	tra	<mrds_dsl_set_scope>|[dl_scope]
                                   104
                        000011     105  	entry	get_attribute_list
    000011                         106  get_attribute_list:
    000011  4a  4 00032 7101 20    107  	tra	<mrds_dsl_get_attribute_list>|[get_attribute_list]
                                   108
                        000012     109  	entry	get_db_version
    000012                         110  get_db_version:
    000012  4a  4 00034 7101 20    111  	tra	<mrds_dsl_get_version>|[get_db_version]
                                   112
                        000013     113  	entry	get_fn_info
    000013                         114  get_fn_info:
    000013  4a  4 00036 7101 20    115  	tra	<mrds_dsl_get_fn_info>|[get_fn_info]
                                   116
                        000014     117  	entry	get_opening_temp_dir
    000014                         118  get_opening_temp_dir:
    000014  4a  4 00040 7101 20    119  	tra	<mrds_dsl_resultant_storage>|[get_opening_temp_dir]
                                   120
                        000015     121  	entry	get_path_info
    000015                         122  get_path_info:
    000015  4a  4 00042 7101 20    123  	tra	<mrds_dsl_get_version>|[get_path_info]
                                   124
                        000016     125  	entry	get_population
    000016                         126  get_population:
    000016  4a  4 00044 7101 20    127  	tra	<mrds_dsl_get_population>|[get_population]
                                   128
                        000017     129  	entry	get_pn
    000017                         130  get_pn:
    000017  4a  4 00046 7101 20    131  	tra	<mrds_dsl_get_rslt_info>|[get_pn]
                                   132
                        000020     133  	entry	get_relation_list
    000020                         134  get_relation_list:
    000020  4a  4 00050 7101 20    135  	tra	<mrds_dsl_get_relation_list>|[get_relation_list]
                                   136
                        000021     137  	entry	get_rslt_info
    000021                         138  get_rslt_info:
    000021  4a  4 00052 7101 20    139  	tra	<mrds_dsl_get_rslt_info>|[get_rslt_info]
                                   140
                        000022     141  	entry	get_rslt_rels
    000022                         142  get_rslt_rels:
    000022  4a  4 00054 7101 20    143  	tra	<mrds_dsl_get_rslt_info>|[get_rslt_rels]
                                   144
                        000023     145  	entry	get_scope
    000023                         146  get_scope:
    000023  4a  4 00056 7101 20    147  	tra	<mrds_dsl_get_scope>|[get_scope]
                                   148
                        000024     149  	entry	get_scope_info
    000024                         150  get_scope_info:
    000024  4a  4 00060 7101 20    151  	tra	<mrds_dsl_get_rslt_info>|[get_scope_info]
                                   152
                        000025     153  	entry     get_security_info
    000025                         154  get_security_info:
    000025  4a  4 00062 7101 20    155  	tra	<mrds_dsl_get_rslt_info>|[get_security_info]
                                   156
                        000026     157  	entry	get_temp_dir
    000026                         158  get_temp_dir:
    000026  4a  4 00064 7101 20    159  	tra	<mrds_dsl_resultant_storage>|[get_temp_dir]
                                   160
                        000027     161  	entry	get_temp_info
    000027                         162  get_temp_info:
    000027  4a  4 00066 7101 20    163  	tra	<mrds_dsl_get_rslt_info>|[get_temp_info]
                                   164
                        000030     165  	entry	list_dbs
    000030                         166  list_dbs:
    000030  4a  4 00070 7101 20    167  	tra	<mrds_dsl_db_openings>|[list_dbs]
                                   168
                        000031     169  	entry	list_openings
    000031                         170  list_openings:
    000031  4a  4 00072 7101 20    171  	tra	<mrds_dsl_db_openings>|[list_openings]
                                   172
                        000032     173  	entry	modify
    000032                         174  modify:
    000032  4a  4 00074 7101 20    175  	tra	<mrds_dsl_modify>|[modify]
                                   176
                        000033     177  	entry	open
    000033                         178  open:
    000033  4a  4 00076 7101 20    179  	tra	<mrds_dsl_open>|[open]
                                   180
                        000034     181  	entry	retrieve
    000034                         182  retrieve:
    000034  4a  4 00100 7101 20    183  	tra	<mrds_dsl_retrieve>|[retrieve]
                                   184
                        000035     185  	entry	set_scope_all
    000035                         186  set_scope_all:
    000035  4a  4 00102 7101 20    187  	tra	<mrds_dsl_set_scope>|[set_scope_all]
                                   188
                        000036     189    	entry	set_scope
    000036                         190  set_scope:
    000036  4a  4 00104 7101 20    191  	tra	<mrds_dsl_set_scope>|[set_scope]
                                   192
                        000037     193  	entry	set_temp_dir
    000037                         194  set_temp_dir:
    000037  4a  4 00106 7101 20    195  	tra	<mrds_dsl_resultant_storage>|[set_temp_dir]
                                   196
                        000040     197  	entry	store
    000040                         198  store:
    000040  4a  4 00110 7101 20    199  	tra	<mrds_dsl_store>|[store]
                                   200
                                   201
                                   202    	end
ENTRY SEQUENCES

    000041  5a   000330 0000 00
    000042  aa  7 00046 2721 20
    000043  0a   000000 7100 00
    000044  5a   000323 0000 00
    000045  aa  7 00046 2721 20
    000046  0a   000001 7100 00
    000047  5a   000315 0000 00
    000050  aa  7 00046 2721 20
    000051  0a   000002 7100 00
    000052  5a   000306 0000 00
    000053  aa  7 00046 2721 20
    000054  0a   000003 7100 00
    000055  5a   000301 0000 00
    000056  aa  7 00046 2721 20
    000057  0a   000004 7100 00
    000060  5a   000272 0000 00
    000061  aa  7 00046 2721 20
    000062  0a   000005 7100 00
    000063  5a   000265 0000 00
    000064  aa  7 00046 2721 20
    000065  0a   000006 7100 00
    000066  5a   000256 0000 00
    000067  aa  7 00046 2721 20
    000070  0a   000007 7100 00
    000071  5a   000250 0000 00
    000072  aa  7 00046 2721 20
    000073  0a   000010 7100 00
    000074  5a   000240 0000 00
    000075  aa  7 00046 2721 20
    000076  0a   000011 7100 00
    000077  5a   000231 0000 00
    000100  aa  7 00046 2721 20
    000101  0a   000012 7100 00
    000102  5a   000223 0000 00
    000103  aa  7 00046 2721 20
    000104  0a   000013 7100 00
    000105  5a   000212 0000 00
    000106  aa  7 00046 2721 20
    000107  0a   000014 7100 00
    000110  5a   000203 0000 00
    000111  aa  7 00046 2721 20
    000112  0a   000015 7100 00
    000113  5a   000174 0000 00
    000114  aa  7 00046 2721 20
    000115  0a   000016 7100 00
    000116  5a   000167 0000 00
    000117  aa  7 00046 2721 20
    000120  0a   000017 7100 00
    000121  5a   000157 0000 00
    000122  aa  7 00046 2721 20
    000123  0a   000020 7100 00
    000124  5a   000150 0000 00
    000125  aa  7 00046 2721 20
    000126  0a   000021 7100 00
    000127  5a   000141 0000 00
    000130  aa  7 00046 2721 20
    000131  0a   000022 7100 00
    000132  5a   000133 0000 00
    000133  aa  7 00046 2721 20
    000134  0a   000023 7100 00
    000135  5a   000124 0000 00
    000136  aa  7 00046 2721 20
    000137  0a   000024 7100 00
    000140  5a   000114 0000 00
    000141  aa  7 00046 2721 20
    000142  0a   000025 7100 00
    000143  5a   000105 0000 00
    000144  aa  7 00046 2721 20
    000145  0a   000026 7100 00
    000146  5a   000076 0000 00
    000147  aa  7 00046 2721 20
    000150  0a   000027 7100 00
    000151  5a   000070 0000 00
    000152  aa  7 00046 2721 20
    000153  0a   000030 7100 00
    000154  5a   000061 0000 00
    000155  aa  7 00046 2721 20
    000156  0a   000031 7100 00
    000157  5a   000054 0000 00
    000160  aa  7 00046 2721 20
    000161  0a   000032 7100 00
    000162  5a   000047 0000 00
    000163  aa  7 00046 2721 20
    000164  0a   000033 7100 00
    000165  5a   000041 0000 00
    000166  aa  7 00046 2721 20
    000167  0a   000034 7100 00
    000170  5a   000032 0000 00
    000171  aa  7 00046 2721 20
    000172  0a   000035 7100 00
    000173  5a   000024 0000 00
    000174  aa  7 00046 2721 20
    000175  0a   000036 7100 00
    000176  5a   000015 0000 00
    000177  aa  7 00046 2721 20
    000200  0a   000037 7100 00
    000201  5a   000010 0000 00
    000202  aa  7 00046 2721 20
    000203  0a   000040 7100 00

NO LITERALS

NAME DEFINITIONS FOR ENTRY POINTS AND SEGDEFS

    000204  5a   000003 000000
    000205  5a   000344 600000
    000206  aa   000000 000000
    000207  55   000010 000002
    000210  5a   000002 400003
    000211  55   000006 000010
    000212  aa  004 144 163 154
    000213  aa  137 000 000 000
    000214  55   000015 000003
    000215  0a   000202 500000
    000216  55   000013 000003
    000217  aa  005 163 164 157         store
    000220  aa  162 145 000 000
    000221  55   000024 000010
    000222  0a   000177 500000
    000223  55   000020 000003
    000224  aa  014 163 145 164         set_temp_dir
    000225  aa  137 164 145 155
    000226  aa  160 137 144 151
    000227  aa  162 000 000 000
    000230  55   000032 000015
    000231  0a   000174 500000
    000232  55   000027 000003
    000233  aa  011 163 145 164         set_scope
    000234  aa  137 163 143 157
    000235  aa  160 145 000 000
    000236  55   000041 000024
    000237  0a   000171 500000
    000240  55   000035 000003
    000241  aa  015 163 145 164         set_scope_all
    000242  aa  137 163 143 157
    000243  aa  160 145 137 141
    000244  aa  154 154 000 000
    000245  55   000047 000032
    000246  0a   000166 500000
    000247  55   000044 000003
    000250  aa  010 162 145 164         retrieve
    000251  aa  162 151 145 166
    000252  aa  145 000 000 000
    000253  55   000054 000041
    000254  0a   000163 500000
    000255  55   000052 000003
    000256  aa  004 157 160 145         open
    000257  aa  156 000 000 000
    000260  55   000061 000047
    000261  0a   000160 500000
    000262  55   000057 000003
    000263  aa  006 155 157 144         modify
    000264  aa  151 146 171 000
    000265  55   000070 000054
    000266  0a   000155 500000
    000267  55   000064 000003
    000270  aa  015 154 151 163         list_openings
    000271  aa  164 137 157 160
    000272  aa  145 156 151 156
    000273  aa  147 163 000 000
    000274  55   000076 000061
    000275  0a   000152 500000
    000276  55   000073 000003
    000277  aa  010 154 151 163         list_dbs
    000300  aa  164 137 144 142
    000301  aa  163 000 000 000
    000302  55   000105 000070
    000303  0a   000147 500000
    000304  55   000101 000003
    000305  aa  015 147 145 164         get_temp_info
    000306  aa  137 164 145 155
    000307  aa  160 137 151 156
    000310  aa  146 157 000 000
    000311  55   000114 000076
    000312  0a   000144 500000
    000313  55   000110 000003
    000314  aa  014 147 145 164         get_temp_dir
    000315  aa  137 164 145 155
    000316  aa  160 137 144 151
    000317  aa  162 000 000 000
    000320  55   000124 000105
    000321  0a   000141 500000
    000322  55   000117 000003
    000323  aa  021 147 145 164         get_security_info
    000324  aa  137 163 145 143
    000325  aa  165 162 151 164
    000326  aa  171 137 151 156
    000327  aa  146 157 000 000
    000330  55   000133 000114
    000331  0a   000136 500000
    000332  55   000127 000003
    000333  aa  016 147 145 164         get_scope_info
    000334  aa  137 163 143 157
    000335  aa  160 145 137 151
    000336  aa  156 146 157 000
    000337  55   000141 000124
    000340  0a   000133 500000
    000341  55   000136 000003
    000342  aa  011 147 145 164         get_scope
    000343  aa  137 163 143 157
    000344  aa  160 145 000 000
    000345  55   000150 000133
    000346  0a   000130 500000
    000347  55   000144 000003
    000350  aa  015 147 145 164         get_rslt_rels
    000351  aa  137 162 163 154
    000352  aa  164 137 162 145
    000353  aa  154 163 000 000
    000354  55   000157 000141
    000355  0a   000125 500000
    000356  55   000153 000003
    000357  aa  015 147 145 164         get_rslt_info
    000360  aa  137 162 163 154
    000361  aa  164 137 151 156
    000362  aa  146 157 000 000
    000363  55   000167 000150
    000364  0a   000122 500000
    000365  55   000162 000003
    000366  aa  021 147 145 164         get_relation_list
    000367  aa  137 162 145 154
    000370  aa  141 164 151 157
    000371  aa  156 137 154 151
    000372  aa  163 164 000 000
    000373  55   000174 000157
    000374  0a   000117 500000
    000375  55   000172 000003
    000376  aa  006 147 145 164         get_pn
    000377  aa  137 160 156 000
    000400  55   000203 000167
    000401  0a   000114 500000
    000402  55   000177 000003
    000403  aa  016 147 145 164         get_population
    000404  aa  137 160 157 160
    000405  aa  165 154 141 164
    000406  aa  151 157 156 000
    000407  55   000212 000174
    000410  0a   000111 500000
    000411  55   000206 000003
    000412  aa  015 147 145 164         get_path_info
    000413  aa  137 160 141 164
    000414  aa  150 137 151 156
    000415  aa  146 157 000 000
    000416  55   000223 000203
    000417  0a   000106 500000
    000420  55   000215 000003
    000421  aa  024 147 145 164         get_opening_temp_dir
    000422  aa  137 157 160 145
    000423  aa  156 151 156 147
    000424  aa  137 164 145 155
    000425  aa  160 137 144 151
    000426  aa  162 000 000 000
    000427  55   000231 000212
    000430  0a   000103 500000
    000431  55   000226 000003
    000432  aa  013 147 145 164         get_fn_info
    000433  aa  137 146 156 137
    000434  aa  151 156 146 157
    000435  55   000240 000223
    000436  0a   000100 500000
    000437  55   000234 000003
    000440  aa  016 147 145 164         get_db_version
    000441  aa  137 144 142 137
    000442  aa  166 145 162 163
    000443  aa  151 157 156 000
    000444  55   000250 000231
    000445  0a   000075 500000
    000446  55   000243 000003
    000447  aa  022 147 145 164         get_attribute_list
    000450  aa  137 141 164 164
    000451  aa  162 151 142 165
    000452  aa  164 145 137 154
    000453  aa  151 163 164 000
    000454  55   000256 000240
    000455  0a   000072 500000
    000456  55   000253 000003
    000457  aa  010 144 154 137         dl_scope
    000460  aa  163 143 157 160
    000461  aa  145 000 000 000
    000462  55   000265 000250
    000463  0a   000067 500000
    000464  55   000261 000003
    000465  aa  014 144 154 137         dl_scope_all
    000466  aa  163 143 157 160
    000467  aa  145 137 141 154
    000470  aa  154 000 000 000
    000471  55   000272 000256
    000472  0a   000064 500000
    000473  55   000270 000003
    000474  aa  006 144 145 154         delete
    000475  aa  145 164 145 000
    000476  55   000301 000265
    000477  0a   000061 500000
    000500  55   000275 000003
    000501  aa  017 144 145 146         define_temp_rel
    000502  aa  151 156 145 137
    000503  aa  164 145 155 160
    000504  aa  137 162 145 154
    000505  55   000306 000272
    000506  0a   000056 500000
    000507  55   000304 000003
    000510  aa  007 144 145 143         declare
    000511  aa  154 141 162 145
    000512  55   000315 000301
    000513  0a   000053 500000
    000514  55   000311 000003
    000515  aa  017 143 162 145         create_res_copy
    000516  aa  141 164 145 137
    000517  aa  162 145 163 137
    000520  aa  143 157 160 171
    000521  55   000323 000306
    000522  0a   000050 500000
    000523  55   000320 000003
    000524  aa  011 143 154 157         close_all
    000525  aa  163 145 137 141
    000526  aa  154 154 000 000
    000527  55   000330 000315
    000530  0a   000045 500000
    000531  55   000326 000003
    000532  aa  005 143 154 157         close
    000533  aa  163 145 000 000
    000534  55   000335 000323
    000535  0a   000042 500000
    000536  55   000333 000003
    000537  aa  007 143 157 155         compile
    000540  aa  160 151 154 145
    000541  55   000002 000330
    000542  6a   000000 400002
    000543  55   000340 000003
    000544  aa  014 163 171 155         symbol_table
    000545  aa  142 157 154 137
    000546  aa  164 141 142 154
    000547  aa  145 000 000 000

DEFINITIONS HASH TABLE

    000550  aa   000000 000065
    000551  aa   000000 000000
    000552  5a   000124 000000
    000553  5a   000174 000000
    000554  5a   000076 000000
    000555  5a   000141 000000
    000556  5a   000105 000000
    000557  5a   000150 000000
    000560  5a   000203 000000
    000561  5a   000223 000000
    000562  5a   000231 000000
    000563  5a   000250 000000
    000564  5a   000133 000000
    000565  aa   000000 000000
    000566  5a   000061 000000
    000567  aa   000000 000000
    000570  5a   000047 000000
    000571  5a   000054 000000
    000572  5a   000167 000000
    000573  5a   000315 000000
    000574  5a   000330 000000
    000575  5a   000272 000000
    000576  aa   000000 000000
    000577  5a   000032 000000
    000600  5a   000070 000000
    000601  5a   000015 000000
    000602  5a   000323 000000
    000603  5a   000041 000000
    000604  aa   000000 000000
    000605  5a   000010 000000
    000606  5a   000335 000000
    000607  5a   000024 000000
    000610  aa   000000 000000
    000611  aa   000000 000000
    000612  5a   000301 000000
    000613  aa   000000 000000
    000614  aa   000000 000000
    000615  aa   000000 000000
    000616  aa   000000 000000
    000617  aa   000000 000000
    000620  aa   000000 000000
    000621  aa   000000 000000
    000622  aa   000000 000000
    000623  5a   000212 000000
    000624  aa   000000 000000
    000625  5a   000265 000000
    000626  5a   000306 000000
    000627  5a   000240 000000
    000630  aa   000000 000000
    000631  5a   000114 000000
    000632  5a   000157 000000
    000633  aa   000000 000000
    000634  aa   000000 000000
    000635  5a   000256 000000

EXTERNAL NAMES

    000636  aa  016 155 162 144         mrds_dsl_store
    000637  aa  163 137 144 163
    000640  aa  154 137 163 164
    000641  aa  157 162 145 000
    000642  aa  021 155 162 144         mrds_dsl_retrieve
    000643  aa  163 137 144 163
    000644  aa  154 137 162 145
    000645  aa  164 162 151 145
    000646  aa  166 145 000 000
    000647  aa  015 155 162 144         mrds_dsl_open
    000650  aa  163 137 144 163
    000651  aa  154 137 157 160
    000652  aa  145 156 000 000
    000653  aa  017 155 162 144         mrds_dsl_modify
    000654  aa  163 137 144 163
    000655  aa  154 137 155 157
    000656  aa  144 151 146 171
    000657  aa  024 155 162 144         mrds_dsl_db_openings
    000660  aa  163 137 144 163
    000661  aa  154 137 144 142
    000662  aa  137 157 160 145
    000663  aa  156 151 156 147
    000664  aa  163 000 000 000
    000665  aa  022 155 162 144         mrds_dsl_get_scope
    000666  aa  163 137 144 163
    000667  aa  154 137 147 145
    000670  aa  164 137 163 143
    000671  aa  157 160 145 000
    000672  aa  032 155 162 144         mrds_dsl_get_relation_list
    000673  aa  163 137 144 163
    000674  aa  154 137 147 145
    000675  aa  164 137 162 145
    000676  aa  154 141 164 151
    000677  aa  157 156 137 154
    000700  aa  151 163 164 000
    000701  aa  026 155 162 144         mrds_dsl_get_rslt_info
    000702  aa  163 137 144 163
    000703  aa  154 137 147 145
    000704  aa  164 137 162 163
    000705  aa  154 164 137 151
    000706  aa  156 146 157 000
    000707  aa  027 155 162 144         mrds_dsl_get_population
    000710  aa  163 137 144 163
    000711  aa  154 137 147 145
    000712  aa  164 137 160 157
    000713  aa  160 165 154 141
    000714  aa  164 151 157 156
    000715  aa  032 155 162 144         mrds_dsl_resultant_storage
    000716  aa  163 137 144 163
    000717  aa  154 137 162 145
    000720  aa  163 165 154 164
    000721  aa  141 156 164 137
    000722  aa  163 164 157 162
    000723  aa  141 147 145 000
    000724  aa  024 155 162 144         mrds_dsl_get_fn_info
    000725  aa  163 137 144 163
    000726  aa  154 137 147 145
    000727  aa  164 137 146 156
    000730  aa  137 151 156 146
    000731  aa  157 000 000 000
    000732  aa  024 155 162 144         mrds_dsl_get_version
    000733  aa  163 137 144 163
    000734  aa  154 137 147 145
    000735  aa  164 137 166 145
    000736  aa  162 163 151 157
    000737  aa  156 000 000 000
    000740  aa  033 155 162 144         mrds_dsl_get_attribute_list
    000741  aa  163 137 144 163
    000742  aa  154 137 147 145
    000743  aa  164 137 141 164
    000744  aa  164 162 151 142
    000745  aa  165 164 145 137
    000746  aa  154 151 163 164
    000747  aa  022 155 162 144         mrds_dsl_set_scope
    000750  aa  163 137 144 163
    000751  aa  154 137 163 145
    000752  aa  164 137 163 143
    000753  aa  157 160 145 000
    000754  aa  017 155 162 144         mrds_dsl_delete
    000755  aa  163 137 144 163
    000756  aa  154 137 144 145
    000757  aa  154 145 164 145
    000760  aa  030 155 162 144         mrds_dsl_define_temp_rel
    000761  aa  163 137 144 163
    000762  aa  154 137 144 145
    000763  aa  146 151 156 145
    000764  aa  137 164 145 155
    000765  aa  160 137 162 145
    000766  aa  154 000 000 000
    000767  aa  020 155 162 144         mrds_dsl_declare
    000770  aa  163 137 144 163
    000771  aa  154 137 144 145
    000772  aa  143 154 141 162
    000773  aa  145 000 000 000
    000774  aa  030 155 162 144         mrds_dsl_create_res_copy
    000775  aa  163 137 144 163
    000776  aa  154 137 143 162
    000777  aa  145 141 164 145
    001000  aa  137 162 145 163
    001001  aa  137 143 157 160
    001002  aa  171 000 000 000
    001003  aa  022 155 162 144         mrds_dsl_close_all
    001004  aa  163 137 144 163
    001005  aa  154 137 143 154
    001006  aa  157 163 145 137
    001007  aa  141 154 154 000
    001010  aa  016 155 162 144         mrds_dsl_close
    001011  aa  163 137 144 163
    001012  aa  154 137 143 154
    001013  aa  157 163 145 000
    001014  aa  020 155 162 144         mrds_dsl_compile
    001015  aa  163 137 144 163
    001016  aa  154 137 143 157
    001017  aa  155 160 151 154
    001020  aa  145 000 000 000

NO TRAP POINTER WORDS

TYPE PAIR BLOCKS

    001021  aa   000004 000000
    001022  55   000432 000013
    001023  aa   000004 000000
    001024  55   000511 000020
    001025  aa   000004 000000
    001026  55   000543 000027
    001027  aa   000004 000000
    001030  55   000543 000035
    001031  aa   000004 000000
    001032  55   000436 000044
    001033  aa   000004 000000
    001034  55   000443 000052
    001035  aa   000004 000000
    001036  55   000447 000057
    001037  aa   000004 000000
    001040  55   000453 000064
    001041  aa   000004 000000
    001042  55   000453 000073
    001043  aa   000004 000000
    001044  55   000475 000101
    001045  aa   000004 000000
    001046  55   000511 000110
    001047  aa   000004 000000
    001050  55   000475 000117
    001051  aa   000004 000000
    001052  55   000475 000127
    001053  aa   000004 000000
    001054  55   000461 000136
    001055  aa   000004 000000
    001056  55   000475 000144
    001057  aa   000004 000000
    001060  55   000475 000153
    001061  aa   000004 000000
    001062  55   000466 000162
    001063  aa   000004 000000
    001064  55   000475 000172
    001065  aa   000004 000000
    001066  55   000503 000177
    001067  aa   000004 000000
    001070  55   000526 000206
    001071  aa   000004 000000
    001072  55   000511 000215
    001073  aa   000004 000000
    001074  55   000520 000226
    001075  aa   000004 000000
    001076  55   000526 000234
    001077  aa   000004 000000
    001100  55   000534 000243
    001101  aa   000004 000000
    001102  55   000543 000253
    001103  aa   000004 000000
    001104  55   000543 000261
    001105  aa   000004 000000
    001106  55   000550 000270
    001107  aa   000004 000000
    001110  55   000554 000275
    001111  aa   000004 000000
    001112  55   000563 000304
    001113  aa   000004 000000
    001114  55   000570 000570
    001115  aa   000004 000000
    001116  55   000577 000320
    001117  aa   000004 000000
    001120  55   000604 000326
    001121  aa   000004 000000
    001122  55   000610 000333
    001123  aa   000001 000000
    001124  aa   000000 000000

INTERNAL EXPRESSION WORDS

    001125  5a   000615 000000
    001126  5a   000617 000000
    001127  5a   000621 000000
    001130  5a   000623 000000
    001131  5a   000625 000000
    001132  5a   000627 000000
    001133  5a   000631 000000
    001134  5a   000633 000000
    001135  5a   000635 000000
    001136  5a   000637 000000
    001137  5a   000641 000000
    001140  5a   000643 000000
    001141  5a   000645 000000
    001142  5a   000647 000000
    001143  5a   000651 000000
    001144  5a   000653 000000
    001145  5a   000655 000000
    001146  5a   000657 000000
    001147  5a   000661 000000
    001150  5a   000663 000000
    001151  5a   000665 000000
    001152  5a   000667 000000
    001153  5a   000671 000000
    001154  5a   000673 000000
    001155  5a   000675 000000
    001156  5a   000677 000000
    001157  5a   000701 000000
    001160  5a   000703 000000
    001161  5a   000705 000000
    001162  5a   000707 000000
    001163  5a   000711 000000
    001164  5a   000713 000000
    001165  5a   000715 000000
LINKAGE INFORMATION

    000000  aa   000000 000000
    000001  0a   000204 000000
    000002  aa   000000 000000
    000003  aa   000000 000000
    000004  aa   000000 000000
    000005  aa   000000 000000
    000006  22   000010 000112
    000007  a2   000000 000000
    000010  9a   777770 0000 46         mrds_dsl_compile|compile
    000011  5a   000761 0000 00
    000012  9a   777766 0000 46         mrds_dsl_close|close
    000013  5a   000760 0000 00
    000014  9a   777764 0000 46         mrds_dsl_close_all|close_all
    000015  5a   000757 0000 00
    000016  9a   777762 0000 46         mrds_dsl_create_res_copy|mrds_dsl_create_res_copy
    000017  5a   000756 0000 00
    000020  9a   777760 0000 46         mrds_dsl_declare|declare
    000021  5a   000755 0000 00
    000022  9a   777756 0000 46         mrds_dsl_define_temp_rel|define_temp_rel
    000023  5a   000754 0000 00
    000024  9a   777754 0000 46         mrds_dsl_delete|delete
    000025  5a   000753 0000 00
    000026  9a   777752 0000 46         mrds_dsl_set_scope|dl_scope_all
    000027  5a   000752 0000 00
    000030  9a   777750 0000 46         mrds_dsl_set_scope|dl_scope
    000031  5a   000751 0000 00
    000032  9a   777746 0000 46         mrds_dsl_get_attribute_list|get_attribute_list
    000033  5a   000750 0000 00
    000034  9a   777744 0000 46         mrds_dsl_get_version|get_db_version
    000035  5a   000747 0000 00
    000036  9a   777742 0000 46         mrds_dsl_get_fn_info|get_fn_info
    000037  5a   000746 0000 00
    000040  9a   777740 0000 46         mrds_dsl_resultant_storage|get_opening_temp_dir
    000041  5a   000745 0000 00
    000042  9a   777736 0000 46         mrds_dsl_get_version|get_path_info
    000043  5a   000744 0000 00
    000044  9a   777734 0000 46         mrds_dsl_get_population|get_population
    000045  5a   000743 0000 00
    000046  9a   777732 0000 46         mrds_dsl_get_rslt_info|get_pn
    000047  5a   000742 0000 00
    000050  9a   777730 0000 46         mrds_dsl_get_relation_list|get_relation_list
    000051  5a   000741 0000 00
    000052  9a   777726 0000 46         mrds_dsl_get_rslt_info|get_rslt_info
    000053  5a   000740 0000 00
    000054  9a   777724 0000 46         mrds_dsl_get_rslt_info|get_rslt_rels
    000055  5a   000737 0000 00
    000056  9a   777722 0000 46         mrds_dsl_get_scope|get_scope
    000057  5a   000736 0000 00
    000060  9a   777720 0000 46         mrds_dsl_get_rslt_info|get_scope_info
    000061  5a   000735 0000 00
    000062  9a   777716 0000 46         mrds_dsl_get_rslt_info|get_security_info
    000063  5a   000734 0000 00
    000064  9a   777714 0000 46         mrds_dsl_resultant_storage|get_temp_dir
    000065  5a   000733 0000 00
    000066  9a   777712 0000 46         mrds_dsl_get_rslt_info|get_temp_info
    000067  5a   000732 0000 00
    000070  9a   777710 0000 46         mrds_dsl_db_openings|list_dbs
    000071  5a   000731 0000 00
    000072  9a   777706 0000 46         mrds_dsl_db_openings|list_openings
    000073  5a   000730 0000 00
    000074  9a   777704 0000 46         mrds_dsl_modify|modify
    000075  5a   000727 0000 00
    000076  9a   777702 0000 46         mrds_dsl_open|open
    000077  5a   000726 0000 00
    000100  9a   777700 0000 46         mrds_dsl_retrieve|retrieve
    000101  5a   000725 0000 00
    000102  9a   777676 0000 46         mrds_dsl_set_scope|set_scope_all
    000103  5a   000724 0000 00
    000104  9a   777674 0000 46         mrds_dsl_set_scope|set_scope
    000105  5a   000723 0000 00
    000106  9a   777672 0000 46         mrds_dsl_resultant_storage|set_temp_dir
    000107  5a   000722 0000 00
    000110  9a   777670 0000 46         mrds_dsl_store|store
    000111  5a   000721 0000 00
SYMBOL INFORMATION

SYMBOL TABLE HEADER

    000000  aa   000000 000001
    000001  aa   163171 155142
    000002  aa   164162 145145
    000003  aa   000000 000004
    000004  aa   000000 112143
    000005  aa   305203 523135
    000006  aa   000000 114626
    000007  aa   762246 167774
    000010  aa   141154 155040
    000011  aa   040040 040040
    000012  aa   000024 000040
    000013  aa   000034 000040
    000014  aa   000044 000100
    000015  aa   000002 000002
    000016  aa   000064 000000
    000017  aa   000000 000156
    000020  aa   000000 000105
    000021  aa   000000 000132
    000022  aa   000150 000105
    000023  aa   000064 000000
    000024  aa   101114 115040
    000025  aa   126145 162163
    000026  aa   151157 156040
    000027  aa   040066 056066
    000030  aa   040040 116157
    000031  aa   166145 155142
    000032  aa   145162 040061
    000033  aa   071070 062040
    000034  aa   120145 162145
    000035  aa   172056 123171
    000036  aa   163115 141151
    000037  aa   156164 056141
    000040  aa   040040 040040
    000041  aa   040040 040040
    000042  aa   040040 040040
    000043  aa   040040 040040
    000044  aa   055164 141162
    000045  aa   147145 164040
    000046  aa   114145 166145
    000047  aa   154066 070040
    000050  aa   154151 163164
    000051  aa   040040 040040
    000052  aa   040040 040040
    000053  aa   040040 040040
    000054  aa   040040 040040
    000055  aa   040040 040040
    000056  aa   040040 040040
    000057  aa   040040 040040
    000060  aa   040040 040040
    000061  aa   040040 040040
    000062  aa   040040 040040
    000063  aa   040040 040040
    000064  aa   000000 000001
    000065  aa   000000 000001
    000066  aa   000072 000051
    000067  aa   146264 061651
    000070  aa   000000 114626
    000071  aa   755271 600000
    000072  aa   076163 160145          >special_ldd>install>MR12.0-1127>dsl_.alm
    000073  aa   143151 141154
    000074  aa   137154 144144
    000075  aa   076151 156163
    000076  aa   164141 154154
    000077  aa   076115 122061
    000100  aa   062056 060055
    000101  aa   061061 062067
    000102  aa   076144 163154
    000103  aa   137056 141154
    000104  aa   155040 040040
               MULTICS ASSEMBLY CROSS REFERENCE LISTING

   Value        Symbol                   Source file   Line number

           1    close                    dsl_:          73,   74,   75.
           2    close_all                dsl_:          77,   78,   79.
           0    compile                  dsl_:          69,   70,   71.
           3    create_res_copy          dsl_:          81,   82.
           4    declare                  dsl_:          85,   86,   87.
           5    define_temp_rel          dsl_:          89,   90,   91.
           6    delete                   dsl_:          93,   94,   95.
          10    dl_scope                 dsl_:         101,  102,  103.
           7    dl_scope_all             dsl_:          97,   98,   99.
          11    get_attribute_list       dsl_:         105,  106,  107.
          12    get_db_version           dsl_:         109,  110,  111.
          13    get_fn_info              dsl_:         113,  114,  115.
          14    get_opening_temp_dir     dsl_:         117,  118,  119.
          15    get_path_info            dsl_:         121,  122,  123.
          17    get_pn                   dsl_:         129,  130,  131.
          16    get_population           dsl_:         125,  126,  127.
          20    get_relation_list        dsl_:         133,  134,  135.
          21    get_rslt_info            dsl_:         137,  138,  139.
          22    get_rslt_rels            dsl_:         141,  142,  143.
          23    get_scope                dsl_:         145,  146,  147.
          24    get_scope_info           dsl_:         149,  150,  151.
          25    get_security_info        dsl_:         153,  154,  155.
          26    get_temp_dir             dsl_:         157,  158,  159.
          27    get_temp_info            dsl_:         161,  162,  163.
          30    list_dbs                 dsl_:         165,  166,  167.
          31    list_openings            dsl_:         169,  170,  171.
          32    modify                   dsl_:         173,  174,  175.
                mrds_dsl_close           dsl_:          75.
                mrds_dsl_close_all       dsl_:          79.
                mrds_dsl_compile         dsl_:          71.
                mrds_dsl_create_res_copy       dsl_:          83.
                mrds_dsl_db_openings     dsl_:         167,  171.
                mrds_dsl_declare         dsl_:          87.
                mrds_dsl_define_temp_rel       dsl_:          91.
                mrds_dsl_delete          dsl_:          95.
                mrds_dsl_get_attribute_list    dsl_:         107.
                mrds_dsl_get_fn_info     dsl_:         115.
                mrds_dsl_get_population  dsl_:         127.
                mrds_dsl_get_relation_list     dsl_:         135.
                mrds_dsl_get_rslt_info   dsl_:         131,  139,  143,  151,  155,  163.
                mrds_dsl_get_scope       dsl_:         147.
                mrds_dsl_get_version     dsl_:         111,  123.
                mrds_dsl_modify          dsl_:         175.
                mrds_dsl_open            dsl_:         179.
                mrds_dsl_resultant_storage     dsl_:         119,  159,  195.
                mrds_dsl_retrieve        dsl_:         183.
                mrds_dsl_set_scope       dsl_:          99,  103,  187,  191.
                mrds_dsl_store           dsl_:         199.
          33    open                     dsl_:         177,  178,  179.
          34    retrieve                 dsl_:         181,  182,  183.
          36    set_scope                dsl_:         189,  190,  191.
          35    set_scope_all            dsl_:         185,  186,  187.
          37    set_temp_dir             dsl_:         193,  194,  195.
          40    store                    dsl_:         197,  198,  199.


NO FATAL ERRORS


                                          -----------------------------------------------------------


Historical Background

This edition of the Multics software materials and documentation is provided and donated
to Massachusetts Institute of Technology by Group BULL including BULL HN Information Systems Inc.
as a contribution to computer science knowledge.
This donation is made also to give evidence of the common contributions of Massachusetts Institute of Technology,
Bell Laboratories, General Electric, Honeywell Information Systems Inc., Honeywell BULL Inc., Groupe BULL
and BULL HN Information Systems Inc. to the development of this operating system.
Multics development was initiated by Massachusetts Institute of Technology Project MAC (1963-1970),
renamed the MIT Laboratory for Computer Science and Artificial Intelligence in the mid 1970s, under the leadership
of Professor Fernando Jose Corbato. Users consider that Multics provided the best software architecture
for managing computer hardware properly and for executing programs. Many subsequent operating systems
incorporated Multics principles.
Multics was distributed in 1975 to 2000 by Group Bull in Europe , and in the U.S. by Bull HN Information Systems Inc.,
as successor in interest by change in name only to Honeywell Bull Inc. and Honeywell Information Systems Inc. .

                                          -----------------------------------------------------------

Permission to use, copy, modify, and distribute these programs and their documentation for any purpose and without
fee is hereby granted,provided that the below copyright notice and historical background appear in all copies
and that both the copyright notice and historical background and this permission notice appear in supporting
documentation, and that the names of MIT, HIS, BULL or BULL HN not be used in advertising or publicity pertaining
to distribution of the programs without specific prior written permission.
    Copyright 1972 by Massachusetts Institute of Technology and Honeywell Information Systems Inc.
    Copyright 2006 by BULL HN Information Systems Inc.
    Copyright 2006 by Bull SAS
    All Rights Reserved
