ASSEMBLY LISTING OF SEGMENT >special_ldd>install>MR12.0-1127>dsmd_.alm
ASSEMBLED ON:	08/15/86  1447.9 mst Fri
OPTIONS USED:	-target Level68 list
ASSEMBLED BY:	ALM Version  6.6  November 1982
ASSEMBLER CREATED:	09/21/83  1227.3 mst Wed

                                     1  " ***********************************************************
                                     2  " *                                                         *
                                     3  " * Copyright, (C) Honeywell Information Systems Inc., 1981 *
                                     4  " *                                                         *
                                     5  " * Copyright (c) 1972 by Massachusetts Institute of        *
                                     6  " * Technology and Honeywell Information Systems, Inc.      *
                                     7  " *                                                         *
                                     8  " ***********************************************************
                                     9
                                    10  " HISTORY COMMENTS:
                                    11  "  1) change(86-06-13,Dupuis), approve(86-08-05,MCR7491),
                                    12  "     audit(86-08-08,Blair), install(86-08-15,MR12.0-1127):
                                    13  "     Made available so that an unbound version of mrds could be created
                                    14  "     easily. (phx20405, mrds #157)
                                    15  "                                                      END HISTORY COMMENTS
                                    16
                                    17  "
                                    18  " NOTES:
                                    19  "
                                    20  " This is the transfer vector for the unbound version of dsmd_
                                    21  "
                                    22  "
                                    23  " History:
                                    24  "
                                    25  " 81-01-05 Davids written.
                                    26  "
                                    27  " 81-02-06 Davids:  removed the entries force_close_dsm
                                    28  "				get_mode
                                    29  "				get_submodel_pn
                                    30  "				validate_rel
                                    31  "				validate_rel_close
                                    32  "	changed mrds_dsm_dsmd_ to mrds_dsm_dsmd
                                    33
                                    34
    000000                          35    	name 	dsmd_
                                    36
                        000000      37  	entry 	close_dsm
    000000                          38  close_dsm:
    000000  4a  4 00010 7101 20     39  	tra	<mrds_dsm_dsmd>|[close_dsm]
                                    40
                                    41
                        000001      42  	entry	get_dsm_header
    000001                          43  get_dsm_header:
    000001  4a  4 00012 7101 20     44  	tra	<mrds_dsm_dsmd>|[get_dsm_header]
                                    45
                                    46
                                    47
                                    48
                        000002      49  	entry 	get_dsm_relations
    000002                          50  get_dsm_relations:
    000002  4a  4 00014 7101 20     51  	tra	<mrds_dsm_dsmd>|[get_dsm_relations]
                                    52
                                    53
                        000003      54  	entry	get_relation
    000003                          55  get_relation:
    000003  4a  4 00016 7101 20     56  	tra	<mrds_dsm_dsmd>|[get_relation]
                                    57
                                    58
                        000004      59  	entry	open_dsm_read
    000004                          60  open_dsm_read:
    000004  4a  4 00020 7101 20     61  	tra	<mrds_dsm_dsmd>|[open_dsm_read]
                                    62
                                    63
                                    64  	end
ENTRY SEQUENCES

    000005  5a   000045 0000 00
    000006  aa  7 00046 2721 20
    000007  0a   000000 7100 00
    000010  5a   000036 0000 00
    000011  aa  7 00046 2721 20
    000012  0a   000001 7100 00
    000013  5a   000026 0000 00
    000014  aa  7 00046 2721 20
    000015  0a   000002 7100 00
    000016  5a   000017 0000 00
    000017  aa  7 00046 2721 20
    000020  0a   000003 7100 00
    000021  5a   000010 0000 00
    000022  aa  7 00046 2721 20
    000023  0a   000004 7100 00

NO LITERALS

NAME DEFINITIONS FOR ENTRY POINTS AND SEGDEFS

    000024  5a   000003 000000
    000025  5a   000062 600000
    000026  aa   000000 000000
    000027  55   000010 000002
    000030  5a   000002 400003
    000031  55   000006 000010
    000032  aa  005 144 163 155
    000033  aa  144 137 000 000
    000034  55   000017 000003
    000035  0a   000022 500000
    000036  55   000013 000003
    000037  aa  015 157 160 145         open_dsm_read
    000040  aa  156 137 144 163
    000041  aa  155 137 162 145
    000042  aa  141 144 000 000
    000043  55   000026 000010
    000044  0a   000017 500000
    000045  55   000022 000003
    000046  aa  014 147 145 164         get_relation
    000047  aa  137 162 145 154
    000050  aa  141 164 151 157
    000051  aa  156 000 000 000
    000052  55   000036 000017
    000053  0a   000014 500000
    000054  55   000031 000003
    000055  aa  021 147 145 164         get_dsm_relations
    000056  aa  137 144 163 155
    000057  aa  137 162 145 154
    000060  aa  141 164 151 157
    000061  aa  156 163 000 000
    000062  55   000045 000026
    000063  0a   000011 500000
    000064  55   000041 000003
    000065  aa  016 147 145 164         get_dsm_header
    000066  aa  137 144 163 155
    000067  aa  137 150 145 141
    000070  aa  144 145 162 000
    000071  55   000053 000036
    000072  0a   000006 500000
    000073  55   000050 000003
    000074  aa  011 143 154 157         close_dsm
    000075  aa  163 145 137 144
    000076  aa  163 155 000 000
    000077  55   000002 000045
    000100  6a   000000 400002
    000101  55   000056 000003
    000102  aa  014 163 171 155         symbol_table
    000103  aa  142 157 154 137
    000104  aa  164 141 142 154
    000105  aa  145 000 000 000

DEFINITIONS HASH TABLE

    000106  aa   000000 000015
    000107  5a   000045 000000
    000110  aa   000000 000000
    000111  aa   000000 000000
    000112  5a   000017 000000
    000113  5a   000010 000000
    000114  5a   000026 000000
    000115  5a   000036 000000
    000116  5a   000053 000000
    000117  aa   000000 000000
    000120  aa   000000 000000
    000121  aa   000000 000000
    000122  aa   000000 000000
    000123  aa   000000 000000

EXTERNAL NAMES

    000124  aa  015 155 162 144         mrds_dsm_dsmd
    000125  aa  163 137 144 163
    000126  aa  155 137 144 163
    000127  aa  155 144 000 000

NO TRAP POINTER WORDS

TYPE PAIR BLOCKS

    000130  aa   000004 000000
    000131  55   000100 000013
    000132  aa   000004 000000
    000133  55   000100 000022
    000134  aa   000004 000000
    000135  55   000100 000031
    000136  aa   000004 000000
    000137  55   000100 000041
    000140  aa   000004 000000
    000141  55   000100 000050
    000142  aa   000001 000000
    000143  aa   000000 000000

INTERNAL EXPRESSION WORDS

    000144  5a   000104 000000
    000145  5a   000106 000000
    000146  5a   000110 000000
    000147  5a   000112 000000
    000150  5a   000114 000000
    000151  aa   000000 000000
LINKAGE INFORMATION

    000000  aa   000000 000000
    000001  0a   000024 000000
    000002  aa   000000 000000
    000003  aa   000000 000000
    000004  aa   000000 000000
    000005  aa   000000 000000
    000006  22   000010 000022
    000007  a2   000000 000000
    000010  9a   777770 0000 46         mrds_dsm_dsmd|close_dsm
    000011  5a   000124 0000 00
    000012  9a   777766 0000 46         mrds_dsm_dsmd|get_dsm_header
    000013  5a   000123 0000 00
    000014  9a   777764 0000 46         mrds_dsm_dsmd|get_dsm_relations
    000015  5a   000122 0000 00
    000016  9a   777762 0000 46         mrds_dsm_dsmd|get_relation
    000017  5a   000121 0000 00
    000020  9a   777760 0000 46         mrds_dsm_dsmd|open_dsm_read
    000021  5a   000120 0000 00
SYMBOL INFORMATION

SYMBOL TABLE HEADER

    000000  aa   000000 000001
    000001  aa   163171 155142
    000002  aa   164162 145145
    000003  aa   000000 000004
    000004  aa   000000 112143
    000005  aa   305203 523135
    000006  aa   000000 114626
    000007  aa   762301 155661
    000010  aa   141154 155040
    000011  aa   040040 040040
    000012  aa   000024 000040
    000013  aa   000034 000040
    000014  aa   000044 000100
    000015  aa   000002 000002
    000016  aa   000064 000000
    000017  aa   000000 000125
    000020  aa   000000 000105
    000021  aa   000000 000112
    000022  aa   000117 000105
    000023  aa   000064 000000
    000024  aa   101114 115040
    000025  aa   126145 162163
    000026  aa   151157 156040
    000027  aa   040066 056066
    000030  aa   040040 116157
    000031  aa   166145 155142
    000032  aa   145162 040061
    000033  aa   071070 062040
    000034  aa   120145 162145
    000035  aa   172056 123171
    000036  aa   163115 141151
    000037  aa   156164 056141
    000040  aa   040040 040040
    000041  aa   040040 040040
    000042  aa   040040 040040
    000043  aa   040040 040040
    000044  aa   055164 141162
    000045  aa   147145 164040
    000046  aa   114145 166145
    000047  aa   154066 070040
    000050  aa   154151 163164
    000051  aa   040040 040040
    000052  aa   040040 040040
    000053  aa   040040 040040
    000054  aa   040040 040040
    000055  aa   040040 040040
    000056  aa   040040 040040
    000057  aa   040040 040040
    000060  aa   040040 040040
    000061  aa   040040 040040
    000062  aa   040040 040040
    000063  aa   040040 040040
    000064  aa   000000 000001
    000065  aa   000000 000001
    000066  aa   000072 000052
    000067  aa   146264 061627
    000070  aa   000000 114626
    000071  aa   755300 000000
    000072  aa   076163 160145          >special_ldd>install>MR12.0-1127>dsmd_.alm
    000073  aa   143151 141154
    000074  aa   137154 144144
    000075  aa   076151 156163
    000076  aa   164141 154154
    000077  aa   076115 122061
    000100  aa   062056 060055
    000101  aa   061061 062067
    000102  aa   076144 163155
    000103  aa   144137 056141
    000104  aa   154155 040040
               MULTICS ASSEMBLY CROSS REFERENCE LISTING

   Value        Symbol                   Source file   Line number

           0    close_dsm                dsmd_:         37,   38,   39.
           1    get_dsm_header           dsmd_:         42,   43,   44.
           2    get_dsm_relations        dsmd_:         49,   50,   51.
           3    get_relation             dsmd_:         54,   55,   56.
                mrds_dsm_dsmd            dsmd_:         39,   44,   51,   56,   61.
           4    open_dsm_read            dsmd_:         59,   60,   61.


NO FATAL ERRORS


                                          -----------------------------------------------------------


Historical Background

This edition of the Multics software materials and documentation is provided and donated
to Massachusetts Institute of Technology by Group BULL including BULL HN Information Systems Inc.
as a contribution to computer science knowledge.
This donation is made also to give evidence of the common contributions of Massachusetts Institute of Technology,
Bell Laboratories, General Electric, Honeywell Information Systems Inc., Honeywell BULL Inc., Groupe BULL
and BULL HN Information Systems Inc. to the development of this operating system.
Multics development was initiated by Massachusetts Institute of Technology Project MAC (1963-1970),
renamed the MIT Laboratory for Computer Science and Artificial Intelligence in the mid 1970s, under the leadership
of Professor Fernando Jose Corbato. Users consider that Multics provided the best software architecture
for managing computer hardware properly and for executing programs. Many subsequent operating systems
incorporated Multics principles.
Multics was distributed in 1975 to 2000 by Group Bull in Europe , and in the U.S. by Bull HN Information Systems Inc.,
as successor in interest by change in name only to Honeywell Bull Inc. and Honeywell Information Systems Inc. .

                                          -----------------------------------------------------------

Permission to use, copy, modify, and distribute these programs and their documentation for any purpose and without
fee is hereby granted,provided that the below copyright notice and historical background appear in all copies
and that both the copyright notice and historical background and this permission notice appear in supporting
documentation, and that the names of MIT, HIS, BULL or BULL HN not be used in advertising or publicity pertaining
to distribution of the programs without specific prior written permission.
    Copyright 1972 by Massachusetts Institute of Technology and Honeywell Information Systems Inc.
    Copyright 2006 by BULL HN Information Systems Inc.
    Copyright 2006 by Bull SAS
    All Rights Reserved
