ASSEMBLY LISTING OF SEGMENT >spec>install>1170>eb_data_.alm
ASSEMBLED ON:	10/17/88  0942.5 mst Mon
OPTIONS USED:	-target l68                              list symbols
ASSEMBLED BY:	ALM Version 7.4 April 1987
ASSEMBLER CREATED:	11/02/87  1303.7 mst Mon

                                     1  " ***********************************************************
                                     2  " *                                                         *
                                     3  " * Copyright, (C) Honeywell Bull Inc., 1988                *
                                     4  " *                                                         *
                                     5  " * Copyright, (C) Honeywell Information Systems Inc., 1982 *
                                     6  " *                                                         *
                                     7  " * Copyright (c) 1972 by Massachusetts Institute of        *
                                     8  " * Technology and Honeywell Information Systems, Inc.      *
                                     9  " *                                                         *
                                    10  " ***********************************************************
                                    11
                                    12  " HISTORY COMMENTS:
                                    13  "  1) change(86-10-01,JRGray), approve(86-10-01,MCR7507),
                                    14  "     audit(86-10-27,RWaters), install(86-11-12,MR12.0-1202):
                                    15  "     Modified to allow for *heap links, joining to definition section,
                                    16  "     and to store the list_component number.
                                    17  "                                                      END HISTORY COMMENTS
                                    18
                                    19
    000000                          20  name	eb_data_
                                    21
                                    22  "		data segment for
                                    23  "		the Multics GE-645 Assembler
                                    24
                                    25  "		originally coded by N. Adleman
                                    26  "		on December 2, 1969
                                    27
                                    28  "		Modified 14 July 1980 by M. N. Davidoff to remove ia, ib, id and ie
                                    29  "			which were only used by decevl_.
                                    30  "		modified for macro processing 3/23/77 by Noel I. Morris
                                    31  "                   modified for prelinking on 06/15/75 by Eugene E Wiatrowski
                                    32  "	          modified 01/74 by E Stone to add listing_max_length
                                    33  "		modified on 09/13/73 at 15:42:36 by R F Mabee.
                                    34  "		modified on 09/13/73 at 15:41:46 by R F Mabee. Fixed bug in rpt_terminators.
                                    35  "		modified on 07/28/73 at 23:36:27 by R F Mabee. Added constant tables for EIS, etc.
                                    36  "		modified on 07/06/72 at 21:59:07 by R F Mabee. Reformatted itlist for modevl_, to add itp modifier.
                                    37  "		modified on 04/30/72 at 23:59:31 by R F Mabee. Changed new call, stretched objnfo.
                                    38  "		modified on 04/16/72 at 14:00:28 by R F Mabee. Added new call/save/return to use operators.
                                    39  "		by RHG on 17 Sept 1970 to allow "f1","f2","f3" as modifiers rather than "f","fi","fj"
                                    40  "		by RHG on 9 September for new listing package and
                                    41  "			additional varcom required by cleavage of pass1
                                    42  "		by RHG on 11 August 1970 at 0523 to fix CODTAB to get rid of prec_$prec_
                                    43  "		by RHG on 8 August 1970 at 0035 to remove symbol table header
                                    44  "		by NA on August 4, 1970 at 1011 to remove the ribbon shift characters from who_am_I
                                    45
                                    46  "		This data segment retains pure
                                    47  "		data in the text portion and impure
                                    48  "		data in the linkage portion
                                    49
                                    50
                                    51  	use	pure	in the text
                                    52  	use	impure	in the linkage
                                    53
                        000000      54  	org	0
                                    55
                                    56
                                    57  %	include	stack_header
                                   1-1  "	BEGIN INCLUDE FILE ... stack_header.incl.alm  3/72  Bill Silver
                                   1-2  "
                                   1-3  "	modified 7/76 by M. Weaver for *system links and more system use of areas
                                   1-4  "	modified 3/77 by M. Weaver  to add rnt_ptr
                                   1-5  "	modified 7/77 by S. Webber to add run_unit_depth and assign_linkage_ptr
                                   1-6  "	modified 6/83 by J. Ives to add trace_frames and in_trace.
                                   1-7
                                   1-8  " HISTORY COMMENTS:
                                   1-9  "  1) change(86-06-24,DGHowe), approve(86-06-24,MCR7396),
                                  1-10  "     audit(86-08-05,Schroth), install(86-11-03,MR12.0-1206):
                                  1-11  "     added the heap_header_ptr definition
                                  1-12  "  2) change(86-08-12,Kissel), approve(86-08-12,MCR7473),
                                  1-13  "     audit(86-10-10,Fawcett), install(86-11-03,MR12.0-1206):
                                  1-14  "     Modified to support control point management.  These changes were
                                  1-15  "     actually made in February 1985 by G. Palter.
                                  1-16  "  3) change(86-10-22,Fawcett), approve(86-10-22,MCR7473),
                                  1-17  "     audit(86-10-22,Farley), install(86-11-03,MR12.0-1206):
                                  1-18  "     Remove the old_lot pointer and replace it with cpm_data_ptr. Use the 18
                                  1-19  "     bit pad after cur_lot_size for the cpm_enabled. This was done to save
                                  1-20  "     some space int the stack header and change the cpd_ptr unal to
                                  1-21  "     cpm_data_ptr (ITS pair).
                                  1-22  "                                                      END HISTORY COMMENTS
                                  1-23
                        000004    1-24  	equ	stack_header.cpm_data_ptr,4		ptr to control point for this stack
                        000006    1-25  	equ	stack_header.combined_stat_ptr,6	ptr to separate static area
                                  1-26
                        000010    1-27  	equ	stack_header.clr_ptr,8		ptr to area containing linkage sections
                        000012    1-28  	equ	stack_header.max_lot_size,10		number of words allowed in lot (DU)
                        000012    1-29  	equ	stack_header.main_proc_invoked,10	nonzero if main proc was invoked in run unit (DL)
                        000012    1-30  	equ	stack_header.run_unit_depth,10	number of active run units stacked (DL)
                        000013    1-31  	equ	stack_header.cur_lot_size,11		DU number of words (entries) in lot
                        000013    1-32            equ	stack_header.cpm_enabled,11		DL  non-zero if control point management is enabled
                        000014    1-33  	equ	stack_header.system_free_ptr,12	ptr to system storage area
                        000016    1-34  	equ	stack_header.user_free_ptr,14		ptr to user storage area
                                  1-35
                        000020    1-36  	equ	stack_header.parent_ptr,16		ptr to parent stack or null
                        000022    1-37  	equ	stack_header.stack_begin_ptr,18	ptr to first stack frame
                        000024    1-38  	equ	stack_header.stack_end_ptr,20		ptr to next useable stack frame
                        000026    1-39  	equ	stack_header.lot_ptr,22		ptr to the lot for the current ring
                                  1-40
                        000030    1-41  	equ	stack_header.signal_ptr,24		ptr to signal proc for current ring
                        000032    1-42  	equ	stack_header.bar_mode_sp,26		value of sp before entering bar mode
                        000034    1-43  	equ	stack_header.pl1_operators_ptr,28	ptr: pl1_operators_$operator_table
                        000036    1-44  	equ	stack_header.call_op_ptr,30		ptr to standard call operator
                                  1-45
                        000040    1-46  	equ	stack_header.push_op_ptr,32		ptr to standard push operator
                        000042    1-47  	equ	stack_header.return_op_ptr,34		ptr to standard return operator
                        000044    1-48  	equ	stack_header.ret_no_pop_op_ptr,36	ptr: stand. return/ no pop operator
                        000046    1-49  	equ	stack_header.entry_op_ptr,38		ptr to standard entry operator
                                  1-50
                        000050    1-51  	equ	stack_header.trans_op_tv_ptr,40	ptr to table of translator operator ptrs
                        000052    1-52  	equ	stack_header.isot_ptr,42		pointer to ISOT
                        000054    1-53  	equ	stack_header.sct_ptr,44		pointer to System Condition Table
                        000056    1-54  	equ	stack_header.unwinder_ptr,46		pointer to unwinder for current ring
                                  1-55
                        000060    1-56  	equ	stack_header.sys_link_info_ptr,48	ptr to *system link name table
                        000062    1-57  	equ	stack_header.rnt_ptr,50		ptr to reference name table
                        000064    1-58  	equ	stack_header.ect_ptr,52		ptr to event channel table
                        000066    1-59  	equ	stack_header.assign_linkage_ptr,54	ptr to area for hcs_$assign_linkage calls
                        000070    1-60  	equ	stack_header.heap_header_ptr,56	ptr to heap header.
                        000072    1-61  	equ	stack_header.trace_frames,58		stack of trace_catch_ frames
                        000073    1-62  	equ	stach_header.trace_top_ptr,59		trace pointer
                        000074    1-63  	equ	stack_header.in_trace,60		trace antirecurse bit
                        000100    1-64  	equ	stack_header_end,64			length of stack header
                                  1-65
                                  1-66
                                  1-67
                                  1-68
                        000000    1-69  	equ	trace_frames.count,0		number of trace frames on stack
                        000001    1-70  	equ	trace_frames.top_ptr,1		packed pointer to top one
                                  1-71
                                  1-72  "	The  following constant is an offset within the  pl1  operators table.
                                  1-73  "	It  references a  transfer vector table.
                                  1-74
                        000551    1-75  	bool	tv_offset,551
                                  1-76
                                  1-77
                                  1-78  "	The  following constants are offsets within this transfer vector table.
                                  1-79
                        001170    1-80  	equ	call_offset,tv_offset+271
                        001171    1-81  	equ	push_offset,tv_offset+272
                        001172    1-82  	equ	return_offset,tv_offset+273
                        001173    1-83  	equ	return_no_pop_offset,tv_offset+274
                        001174    1-84  	equ	entry_offset,tv_offset+275
                                  1-85
                                  1-86
                                  1-87  " 	END INCLUDE FILE stack_header.incl.alm
                                    58
                                    59
                                    60  	use	pure
                        000000      61  	segdef	varcom_size
    000000  aa   000000 000542      62  varcom_size:	zero	0,end_varcom-varcom
                                    63  	use	pure
                        000001      64  	segdef	concom	pure from fortran-coded eplbsa
    000001                          65  concom:	null
    000001  aa   000000 000000      66  basnos:	oct	0,1,2,3,4,5,6,7
    000002  aa   000000 000001
    000003  aa   000000 000002
    000004  aa   000000 000003
    000005  aa   000000 000004
    000006  aa   000000 000005
    000007  aa   000000 000006
    000010  aa   000000 000007
    000011  aa   000000 000000      67  clunk:	oct	0
    000012  aa   000000 100000      68  clint:	oct	100000
    000013  aa   000000 200000      69  clext:	oct	200000
    000014  aa   000000 300000      70  clbas:	oct	300000
    000015  aa   000000 400000      71  clstk:	oct	400000
    000016  aa   000000 500000      72  clndx:	oct	500000
    000017  aa   000000 600000      73  clmlc:	oct	600000
    000020  aa   000000 000001      74  fdef:	oct	1
    000021  aa   000000 000002      75  fnul:	oct	2
    000022  aa   000000 000004      76  fphs:	oct	4
    000023  aa   000000 000010      77  fset:	oct	10
    000024  aa   000000 000020      78  frel:	oct	020
    000025  aa   000000 000040      79  fabs:	oct	040
    000026  aa   000000 000100      80  fbol:	oct	100
    000027  aa   000000 000200      81  fcom:	oct	200
    000030  aa   000000 000400      82  find:	oct	400
    000031  aa   000000 100021      83  flocrf:	oct	100021
    000032  aa   000000 100041      84  fequrf:	oct	100041
    000033  aa   000000 100101      85  fbolrf:	oct	100101
    000034  aa   000000 100051      86  fsetrf:	oct	100051
    000035  aa   000000 200041      87  fbasrf:	oct	200041
    000036  aa   000000 200041      88  fsegrf:	oct	200041
    000037  aa   000000 400041      89  fsthof:	oct	400041
    000040  aa   000000 500041      90  fndxrf:	oct	500041
    000041  aa   000000 600041      91  fmlcrf:	oct	600041
    000042  aa   000000 000007      92  onesev:	oct	7
    000043  aa   000000 000077      93  twosev:	oct	77
    000044  aa   000000 000777      94  thrsev:	oct	777
    000045  aa   000000 007777      95  forsev:	oct	7777
    000046  aa   000000 077777      96  fivsev:	oct	77777
    000047  aa   000000 777777      97  sixsev:	oct	777777
    000050  aa   777777 777777      98  allsev:	oct	777777777777
                        000051      99  	segdef	bases
    000051                         100  bases:	null		POSTP2
    000051  aa  002 141 160 000    101  symbas:	acc	"ap"
    000052  aa  002 141 142 000    102  	acc	"ab"
    000053  aa  002 142 160 000    103  	acc	"bp"
    000054  aa  002 142 142 000    104  	acc	"bb"
    000055  aa  002 154 160 000    105  	acc	"lp"
    000056  aa  002 154 142 000    106  	acc	"lb"
    000057  aa  002 163 160 000    107  	acc	"sp"
    000060  aa  002 163 142 000    108  	acc	"sb"
    000061  aa   000000 0000 60    109  mir:	arg	0,*n
    000062  aa   000000 0000 20    110  mri:	arg	0,n*
    000063  aa   000000 0000 03    111  mdu:	arg	0,du
    000064  aa   000000 0000 07    112  mdl:	arg	0,dl
    000065  aa   000000 0000 10    113  mxo:	arg	0,0
    000066  aa   000000 0000 11    114  mx1:	arg	0,1
    000067  aa   000000 0000 04    115  mpc:	arg	0,ic
    000070  aa   000000 0000 24    116  mpci:	arg	0,ic*
    000071  aa   000000 000046     117  mfi:	oct	46
    000072  aa   000000 000043     118  mits:	oct	43
    000073  aa   000000 000041     119  mitb:	oct	41
    000074  aa  130 124 122 116    120  ixtern:	aci	"XTRN"
    000075  aa  116 124 122 116    121  intern:	aci	"NTRN"
    000076  aa  101 123 107 116    122  iassgn:	aci	"ASGN"
    000077  aa  123 122 103 110    123  iserch:	aci	"SRCH"
    000100  aa  130 126 122 114    124  ixvrvl:	aci	"XVRL"
    000101  aa  130 126 122 120    125  ixvrvp:	aci	"XVRP"
    000102  aa  116 126 122 114    126  invrvl:	aci	"NVRL"
    000103  aa  116 126 122 120    127  invrvp:	aci	"NVRP"
    000104  aa  102 126 122 114    128  ibvrvl:	aci	"BVRL"
    000105  aa  102 126 122 120    129  ibvrvp:	aci	"BVRP"
    000106  aa  101 103 103 126    130  iaccvl:	aci	"ACCV"
    000107  aa  101 103 111 126    131  iacivl:	aci	"ACIV"
    000110  aa   000000 1160 00    132  mcmpq:	cmpq	0
    000111  aa   000000 1000 00    133  mcmpx0:	cmpx0	0
    000112  aa   000000 2370 00    134  mldaq:	ldaq	0
    000113  aa   000000 2360 00    135  mldq:	ldq	0
    000114  aa   000000 2200 00    136  mldx0:	ldx0	0
    000115  aa   000000 0110 03    137  mnopdu:	nop	0,du
    000116  aa   000000 3570 00    138  mstcd:	stcd	0
    000117  aa   000000 7100 00    139  mtra:	tra	0
    000120  aa   000000 6020 00    140  mtnc:	tnc	0
    000121  aa   000000 6010 00    141  mtnz:	tnz	0
    000122  aa   000000 3330 00    142  meabsp:	easpsp	0
    000123  aa   000000 3500 00    143  meapap:	eppap	0
    000124  aa   000000 3520 00    144  meapbp:	eppbp	0
    000125  aa   000000 3700 00    145  meaplp:	epplp	0
    000126  aa   000000 3720 00    146  meapsp:	eppsp	0
    000127  aa   000000 2500 00    147  mstpap:	spriap	0
    000130  aa   000000 2520 00    148  mstpbp:	spribp	0
    000131  aa   000000 6500 00    149  mstplp:	sprilp	0
    000132  aa   000000 6520 00    150  mstpsp:	sprisp	0
    000133  aa  061 065 064 062    151  i1542:	aci	"1542"
    000134  aa  066 064 062 040    152  i642:	aci	"642 "
    000135  aa  063 063 063 063    153  i3333:	aci	"3333"
    000136  aa  066 066 040 040    154  i66:	aci	"66  "
                                   155
                                   156
                                   157
    000137  aa  040 040 040 040    158  ibb:	aci	"    "
    000140  aa  040 040 040 040    159  ibsp:	aci	"    "
    000141  aa   000000 000000     160  null:	oct	0
    000142  aa  007 155 170 145    161  smxer:	acc	"mxerror"
    000143  aa  162 162 157 162
    000144  aa  005 145 156 164    162  sentry:	acc	"entry"
    000145  aa  162 171 000 000
    000146  aa  006 162 145 164    163  sretrn:	acc	"return"
    000147  aa  165 162 156 000
    000150  aa   000000 000000     164  dzero:	oct	0,0
    000151  aa   000000 000000
    000152  aa  130 124 101 107    165  ixvrvl_notag:	aci	"XTAG"
                                   166
                                   167  	use	pure
                        000153     168  	segdef	ib6
    000153  aa  040 066 040 040    169  ib6:	aci	" 6  "
                                   170  	use	pure
                                   171  	use	pure
                        000154     172  	segdef	codtab	pure data
    000154                         173  codtab:	null
                                   174  "NOTE: the last character of the codtab entries are for use as the precedence by expevl_
    000154  aa  116 125 114 062    175  	aci	"NUL2"	000,null
    000155  aa  123 117 110 062    176  	aci	"SOH2"	001, start of header
    000156  aa  123 124 130 062    177  	aci	"STX2"	002, start of text
    000157  aa  105 124 130 062    178  	aci	"ETX2"	003,end of text
    000160  aa  105 117 124 062    179  	aci	"EOT2"	004,end of transmission
    000161  aa  105 116 121 062    180  	aci	"ENQ2"	005,inquiry: who are you
    000162  aa  101 103 113 062    181  	aci	"ACK2"	006, acknowledge
    000163  aa  102 105 114 062    182  	aci	"BEL2"	007, bell
    000164  aa  102 123 040 062    183  	aci	"BS 2"	010, backspace
    000165  aa  123 120 040 062    184  	aci	"SP 2"	011, horizontal tab same as space (040)
    000166  aa  116 114 040 062    185  	aci	"NL 2"	012, new line
    000167  aa  126 124 040 062    186  	aci	"VT 2"	013, vertical tab
    000170  aa  123 120 040 062    187  	aci	"SP 2"	014, form feed same as space (040)
    000171  aa  116 114 040 062    188  	aci	"NL 2"	015, carrier return same as new-line (012)
    000172  aa  123 117 040 062    189  	aci	"SO 2"	016, shift out
    000173  aa  123 111 040 062    190  	aci	"SI 2"	017, shift in
    000174  aa  104 114 105 062    191  	aci	"DLE2"	020, data link escape
    000175  aa  104 103 061 062    192  	aci	"DC12"	021, device control 1
    000176  aa  104 103 062 062    193  	aci	"DC22"	022, device control 2
    000177  aa  104 103 063 062    194  	aci	"DC32"	023, device control 3
    000200  aa  104 103 064 062    195  	aci	"DC42"	024, device control 4
    000201  aa  116 101 113 062    196  	aci	"NAK2"	025, negative acknowledge
    000202  aa  123 131 116 062    197  	aci	"SYN2"	026, synchronous idle
    000203  aa  105 124 102 062    198  	aci	"ETB2"	027, end of transmission block
    000204  aa  103 101 116 062    199  	aci	"CAN2"	030, cancel
    000205  aa  105 117 115 062    200  	aci	"EOM2"	031, end of medium
    000206  aa  123 125 102 062    201  	aci	"SUB2"	032, start of special sequence
    000207  aa  105 123 103 062    202  	aci	"ESC2"	033, escape
    000210  aa  106 123 040 062    203  	aci	"FS 2"	034, file separator
    000211  aa  107 123 040 062    204  	aci	"GS 2"	035, group separator
    000212  aa  122 123 040 062    205  	aci	"RS 2"	036, record separator
    000213  aa  125 123 040 062    206  	aci	"US 2"	037, unit separator
    000214  aa  123 120 040 062    207  	aci	"SP 2"	040, space
    000215  aa  041 040 040 062    208  	aci	"!  2"	041, exclamation point
    000216  aa  121 125 117 062    209  	aci	"QUO2"	042, quotation mark
    000217  aa  043 040 040 062    210  	aci	"#  2"	043, number sign
    000220  aa  044 040 040 062    211  	aci	"$  2"	044, dollar sign
    000221  aa  123 120 040 062    212  	aci	"SP 2"	045, per cent sign, treated like space.
    000222  aa  046 040 040 062    213  	aci	"&  2"	046, ampersand
    000223  aa  047 040 040 062    214  	aci	"'  2"	047, apostrophe
    000224  aa  050 040 040 063    215  	aci	"(  3"	050, left parenrhesis
    000225  aa  051 040 040 064    216  	aci	")  4"	051, right parenthesis
    000226  aa  052 040 040 066    217  	aci	"*  6"	052, star
    000227  aa  053 040 040 065    218  	aci	"+  5"	053, plus
    000230  aa  054 040 040 062    219  	aci	",  2"	054, comma
    000231  aa  055 040 040 065    220  	aci	"-  5"	055, minus
    000232  aa  056 040 040 062    221  	aci	".  2"	056, point
    000233  aa  057 040 040 066    222  	aci	"/  6"	057, slash
    000234  aa  144 151 147 062    223  	aci	"dig2"	060-071, ten digits	0
    000235  aa  144 151 147 062    224  	aci	"dig2"	1
    000236  aa  144 151 147 062    225  	aci	"dig2"	2
    000237  aa  144 151 147 062    226  	aci	"dig2"	3
    000240  aa  144 151 147 062    227  	aci	"dig2"	4
    000241  aa  144 151 147 062    228  	aci	"dig2"	5
    000242  aa  144 151 147 062    229  	aci	"dig2"	6
    000243  aa  144 151 147 062    230  	aci	"dig2"	7
    000244  aa  144 151 147 062    231  	aci	"dig2"	8
    000245  aa  144 151 147 062    232  	aci	"dig2"	9
    000246  aa  072 040 040 062    233  	aci	":  2"	072, colon
    000247  aa  116 114 040 062    234  	aci	"NL 2"	073, semi-colon same as new-line (012)
    000250  aa  074 040 040 062    235  	aci	"<  2"	074, left pointed bracket
    000251  aa  075 040 040 062    236  	aci	"=  2"	075, equal sign
    000252  aa  076 040 040 062    237  	aci	">  2"	076, right pointed bracket
    000253  aa  077 040 040 062    238  	aci	"?  2"	077, question mark
    000254  aa  100 040 040 062    239  	aci	"@  2"	100, at sign
    000255  aa  154 164 162 062    240  	aci	"ltr2"	101-132	26 Upper case Letters	A
    000256  aa  154 164 162 062    241  	aci	"ltr2"	B     WHICH ARE TREATED THE SAME AS LOWER CASE LETTERS
    000257  aa  154 164 162 062    242  	aci	"ltr2"	C
    000260  aa  154 164 162 062    243  	aci	"ltr2"	D
    000261  aa  154 164 162 062    244  	aci	"ltr2"	E
    000262  aa  154 164 162 062    245  	aci	"ltr2"	F
    000263  aa  154 164 162 062    246  	aci	"ltr2"	G
    000264  aa  154 164 162 062    247  	aci	"ltr2"	H
    000265  aa  154 164 162 062    248  	aci	"ltr2"	I
    000266  aa  154 164 162 062    249  	aci	"ltr2"	J
    000267  aa  154 164 162 062    250  	aci	"ltr2"	K
    000270  aa  154 164 162 062    251  	aci	"ltr2"	L
    000271  aa  154 164 162 062    252  	aci	"ltr2"	M
    000272  aa  154 164 162 062    253  	aci	"ltr2"	N
    000273  aa  154 164 162 062    254  	aci	"ltr2"	O
    000274  aa  154 164 162 062    255  	aci	"ltr2"	P
    000275  aa  154 164 162 062    256  	aci	"ltr2"	Q
    000276  aa  154 164 162 062    257  	aci	"ltr2"	R
    000277  aa  154 164 162 062    258  	aci	"ltr2"	S
    000300  aa  154 164 162 062    259  	aci	"ltr2"	T
    000301  aa  154 164 162 062    260  	aci	"ltr2"	U
    000302  aa  154 164 162 062    261  	aci	"ltr2"	V
    000303  aa  154 164 162 062    262  	aci	"ltr2"	W
    000304  aa  154 164 162 062    263  	aci	"ltr2"	X
    000305  aa  154 164 162 062    264  	aci	"ltr2"	Y
    000306  aa  154 164 162 062    265  	aci	"ltr2"	Z
    000307  aa  133 040 040 062    266  	aci	"[  2"	133, left square bracket
    000310  aa  134 040 040 062    267  	aci	"\  2"	134, reverse slash
    000311  aa  135 040 040 062    268  	aci	"]  2"	135, right square bracket
    000312  aa  136 040 040 066    269  	aci	"^  6"	136, circumflex
    000313  aa  154 164 162 062    270  	aci	"ltr2"	137, underline same as letters (uppers and lowers)
    000314  aa  140 040 040 062    271  	aci	"`  2"	140, grave accent
    000315  aa  154 164 162 062    272  	aci	"ltr2"	141-172 Lower case Letters	a
    000316  aa  154 164 162 062    273  	aci	"ltr2"	b
    000317  aa  154 164 162 062    274  	aci	"ltr2"	c
    000320  aa  154 164 162 062    275  	aci	"ltr2"	d
    000321  aa  154 164 162 062    276  	aci	"ltr2"	e
    000322  aa  154 164 162 062    277  	aci	"ltr2"	f
    000323  aa  154 164 162 062    278  	aci	"ltr2"	g
    000324  aa  154 164 162 062    279  	aci	"ltr2"	h
    000325  aa  154 164 162 062    280  	aci	"ltr2"	i
    000326  aa  154 164 162 062    281  	aci	"ltr2"	j
    000327  aa  154 164 162 062    282  	aci	"ltr2"	k
    000330  aa  154 164 162 062    283  	aci	"ltr2"	l
    000331  aa  154 164 162 062    284  	aci	"ltr2"	m
    000332  aa  154 164 162 062    285  	aci	"ltr2"	n
    000333  aa  154 164 162 062    286  	aci	"ltr2"	o
    000334  aa  154 164 162 062    287  	aci	"ltr2"	p
    000335  aa  154 164 162 062    288  	aci	"ltr2"	q
    000336  aa  154 164 162 062    289  	aci	"ltr2"	r
    000337  aa  154 164 162 062    290  	aci	"ltr2"	s
    000340  aa  154 164 162 062    291  	aci	"ltr2"	t
    000341  aa  154 164 162 062    292  	aci	"ltr2"	u
    000342  aa  154 164 162 062    293  	aci	"ltr2"	v
    000343  aa  154 164 162 062    294  	aci	"ltr2"	w
    000344  aa  154 164 162 062    295  	aci	"ltr2"	x
    000345  aa  154 164 162 062    296  	aci	"ltr2"	y
    000346  aa  154 164 162 062    297  	aci	"ltr2"	z
    000347  aa  173 040 040 062    298  	aci	"{  2"	173, left brace
    000350  aa  174 040 040 062    299  	aci	"|  2"	174, vertical line
    000351  aa  175 040 040 062    300  	aci	"}  2"	175, right brace
    000352  aa  176 040 040 062    301  	aci	"~  2"	176, tilde
    000353  aa  120 101 104 062    302  	aci	"PAD2"	177, pad character
                                   303
                                   304  	use	pure
                        000354     305  	segdef	relbit	pure data
    000354                         306  relbit:	null
    000354  aa   000000 000000     307  iabsol:	dec	0	absolute
    000355  aa   000000 000020     308  	dec	16	text
    000356  aa   000000 000021     309  imtext:	dec	17	negative text
    000357  aa   000000 000022     310  	dec	18	link segment
    000360  aa   000000 000023     311  imlink:	dec	19	negative link segment
    000361  aa   000000 000024     312  ilkptr:	dec	20	linkage pointer...lp
    000362  aa   000000 000025     313  idefpt:	dec	21	definition pointer
    000363  aa   000000 000026     314  isymbl:	dec	22	symbol
    000364  aa   000000 000027     315  imsymb:	dec	23	negative symbol
    000365  aa   000000 000030     316  ilblok:	dec	24	linkage block
    000366  aa   000000 000031     317  imblok:	dec	25	negative linkage block
    000367  aa   000000 000032     318  iselfr:	dec	26	self relative
    000370  aa   000000 000033     319  iresv1:	dec	27	unused
    000371  aa   000000 000034     320  iresv2:	dec	28	unused
    000372  aa   000000 000035     321  iresv3:	dec	29	unused
    000373  aa   000000 000036     322  iresv4:	dec	30	unused
    000374  aa   000000 000037     323  iescap:	dec	31	escape
    000375  aa   000020 000000     324  iltext:	zero	16,0	glwrd(itext,0)
    000376  aa   000022 000000     325  illink:	zero	18,0	glwrd(ilink,0)
    000377  aa   000026 000000     326  ilsymb:	zero	22,0	glwrd(isymbl,0)
    000400  aa   000025 000000     327  ildefs:	zero	21,0	glwrd(idefpt,0)
    000401  aa   000000 000020     328  ibits:	oct	20	itext
    000402  aa   000000 000022     329  	oct	22	ilink
    000403  aa   000000 000026     330  	oct	26	isymbl
                                   331
                                   332  	use	pure
                        000404     333  	segdef	mxsave,nmxsav	pure data
    000404                         334  mxsave:	null
    000404  aa   000000 000002     335  nmxsav:	dec	2		"mastermode save
    000405  aa  6 00010 2201 00    336  	ldx0	sp|8
    000406  aa  6 00025 6341 00    337  	ldi	sp|21
                                   338
                                   339  	use	pure
                        000407     340  	segdef	retlst,nretls	normal return
    000407                         341  retlst:	null
    000407  aa   000000 000003     342  nretls:	dec	3		"pure data
    000410  aa  6 00020 1731 20    343  	lpri	sp|16,*
    000411  aa  6 00010 0731 00    344  	lreg	sp|8
    000412  aa  6 00024 6101 00    345  	rtcd	sp|20
                                   346
                        000413     347  	segdef	new_retlst,new_nretls	" normal return, new version February 1972.
    000413                         348  new_retlst:	null
    000413  aa   000000 000001     349  new_nretls:	dec	1
    000414  aa  7 00042 7101 20    350  	tra	sb|stack_header.return_op_ptr,*		" go to system return operator.
                                   351
                        000415     352  	segdef	short_retlst,short_nretls	" short return (no save done).
    000415                         353  short_retlst:	null
    000415  aa   000000 000001     354  short_nretls:	dec	1
    000416  aa  7 00044 7101 20    355  	tra	sb|stack_header.ret_no_pop_op_ptr,*		" go to system short return operator.
                                   356
                        000417     357  	segdef	new_getlp,new_ngetlp		" sequence to load linkage pointer while in text.
    000417                         358  new_ngetlp:	null
    000417  aa   000000 000001     359  new_getlp:	dec	1
    000420  aa  7 00046 2721 20    360  	tspbp	sb|stack_header.entry_op_ptr,*
                                   361
                                   362  	use	pure
                        000435     363  	segdef	anames,atext,alink,asym,astat,asys,aheap
    000421                         364  anames:	null
    000421  aa  005 052 164 145    365  atext:	acc	"*text"		pass1, pass2
    000422  aa  170 164 000 000
    000423  aa  005 052 154 151    366  alink:	acc	"*link"		"
    000424  aa  156 153 000 000
    000425  aa  007 052 163 171    367  asym:	acc	"*symbol"		"
    000426  aa  155 142 157 154
    000427                         368  	bss	,2
    000431  aa  007 052 163 164    369  astat:	acc	"*static"		"
    000432  aa  141 164 151 143
    000433  aa  007 052 163 171    370  asys:	acc	"*system"		"
    000434  aa  163 164 145 155
    000435  aa  005 052 150 145    371  aheap:	acc	"*heap"		"
    000436  aa  141 160 000 000
                        000451     372  	segdef	atext2,alink2,asym2,astatic2,asystem2,adef2
    000437  aa  004 164 145 170    373  atext2:	acc	"text"		pass1
    000440  aa  164 000 000 000
    000441  aa  004 154 151 156    374  alink2:	acc	"link"		"
    000442  aa  153 000 000 000
    000443  aa  006 163 171 155    375  asym2:	acc	"symbol"		"
    000444  aa  142 157 154 000
    000445  aa  006 163 164 141    376  astatic2: acc       "static"            "
    000446  aa  164 151 143 000
    000447  aa  006 163 171 163    377  asystem2:	acc	"system"		"
    000450  aa  164 145 155 000
    000451  aa  012 144 145 146    378  adef2:	acc	"definition"	"
    000452  aa  151 156 151 164
    000453  aa  151 157 156 000
                                   379
                                   380
                                   381
                                   382  	use	pure
                        000460     383  	segdef	itext,ilink,isym,istatic,idefs
    000454  aa   000000 000000     384  itext:	oct	0
    000455  aa   000000 000001     385  ilink:	oct	1
    000456  aa   000000 000002     386  isym:	oct	2
    000457  aa   000000 000004     387  istatic:  oct       4
    000460  aa   000000 000010     388  idefs:	oct	10
                                   389
                                   390  	use       impure
                        000010     391  	segdef    stat_len
    000010  aa   000000 000000     392  stat_len: oct       0
                        000011     393  	segdef    separate_static
    000011                         394  separate_static:
    000011  aa   000000 000000     395  	oct       0
                        000012     396  	segdef	entry_bound
    000012                         397  entry_bound:
    000012  aa   000000 000000     398  	oct	0
                        000013     399  	segdef	entrybound_bit
    000013                         400  entrybound_bit:
    000013  aa   000000 000000     401  	oct	0
                                   402
                                   403
                                   404
                                   405  	use       pure
                        000471     406  	segdef	ion,ioff,iobject,isave,irestore,unwind
    000461  aa  002 157 156 000    407  ion:	acc	"on"		PASS1,PASS2
    000462  aa  003 157 146 146    408  ioff:	acc	"off"		"
    000463  aa  006 157 142 152    409  iobject:	acc	"object"
    000464  aa  145 143 164 000
    000465  aa  004 163 141 166    410  isave:	acc	"save"
    000466  aa  145 000 000 000
    000467  aa  007 162 145 163    411  irestore:	acc	"restore"
    000470  aa  164 157 162 145
    000471  aa  011 165 156 167    412  unwind:	acc	"unwinder_"	pass2
    000472  aa  151 156 144 145
    000473  aa  162 137 000 000
                                   413
                        000501     414  	segdef	mstaq,mx7,maos,meax0,meax7,stnam
    000474  aa   000000 7570 00    415  mstaq:	staq	0		pass2
    000475  aa   000000 000017     416  mx7:	oct	000000000017	pass2
    000476  aa   000000 0540 00    417  maos:	aos	0		postp2
    000477  aa   000000 6200 00    418  meax0:	eax0	0
    000500  aa   000000 6270 00    419  meax7:	eax7	0
    000501  aa  014 163 171 155    420  stnam:	acc	"symbol_table"
    000502  aa  142 157 154 137
    000503  aa  164 141 142 154
    000504  aa  145 000 000 000
                                   421
                        000505     422  	segdef	calseq
    000505  aa  017 050 143 141    423  calseq:	acc	"(call_sequence)"
    000506  aa  154 154 137 163
    000507  aa  145 161 165 145
    000510  aa  156 143 145 051
                                   424
                        000511     425  	segdef	entseq
    000511  aa  020 050 145 156    426  entseq:	acc	"(entry_sequence)"
    000512  aa  164 162 171 137
    000513  aa  163 145 161 165
    000514  aa  145 156 143 145
    000515  aa  051 000 000 000
                                   427
                        000524     428  	segdef	itxnam,ilknam,isynam
    000516  aa  010 162 145 154    429  itxnam:	acc	"rel_text"
    000517  aa  137 164 145 170
    000520  aa  164 000 000 000
    000521  aa  010 162 145 154    430  ilknam:	acc	"rel_link"
    000522  aa  137 154 151 156
    000523  aa  153 000 000 000
    000524  aa  012 162 145 154    431  isynam:	acc	"rel_symbol"
    000525  aa  137 163 171 155
    000526  aa  142 157 154 000
                                   432
                                   433
                        000527     434  	segdef	blanks
    000527  aa  007 040 040 040    435  blanks:	acc	"       "	7 ascii blanks	postp2
    000530  aa  040 040 040 040
                                   436
                        000531     437  	segdef	typr2
    000531  aa   000000 000000     438  typr2:	oct	000000000000
    000532  aa   000000 000025     439  	oct	000000000025
    000533  aa   000025 000000     440  	oct	000025000000
    000534  aa   000025 000025     441  	oct	000025000025
    000535  aa   000000 000025     442  	oct	000000000025
                                   443
                        000537     444  	segdef	rho,twop18
    000536  aa   314151 126535     445  rho:	oct	314151126535		table
    000537  aa   000001 000000     446  twop18:	oct	000001000000
                                   447
                        000540     448  	segdef	ilend
    000540  aa  154 156 144 061    449  ilend:	aci	"lnd1"		expevl_
                        000542     450  	segdef	ineg,inot
    000541  aa  156 145 147 067    451  ineg:	aci	"neg7"		expevl_
    000542  aa  156 157 164 067    452  inot:	aci	"not7"		expevl, procedure table
                                   453
                        000546     454  	segdef	l0r0,l1r0,l2r0,l3r0
    000543  aa   000000 000000     455  l0r0:	oct	0		LSTMAN
    000544  aa   000001 000000     456  l1r0:	oct	000001000000
    000545  aa   000002 000000     457  l2r0:	oct	000002000000
    000546  aa   000003 000000     458  l3r0:	oct	000003000000
                                   459
                        000547     460  	segdef	rlist
    000547  aa  001 156 000 000    461  rlist:	acc	"n"		MODEVL
    000550  aa  002 141 165 000    462  	acc	"au"
    000551  aa  002 161 165 000    463  	acc	"qu"
    000552  aa  002 144 165 000    464  	acc	"du"
    000553  aa  002 151 143 000    465  	acc	"ic"
    000554  aa  002 141 154 000    466  	acc	"al"
    000555  aa  002 161 154 000    467  	acc	"ql"
    000556  aa  002 144 154 000    468  	acc	"dl"
    000557  aa  002 170 060 000    469  	acc	"x0"
    000560  aa  002 170 061 000    470  	acc	"x1"
    000561  aa  002 170 062 000    471  	acc	"x2"
    000562  aa  002 170 063 000    472  	acc	"x3"
    000563  aa  002 170 064 000    473  	acc	"x4"
    000564  aa  002 170 065 000    474  	acc	"x5"
    000565  aa  002 170 066 000    475  	acc	"x6"
    000566  aa  002 170 067 000    476  	acc	"x7"
                                   477
                        000567     478  	segdef	itlist_
    000567  aa   000000 000037     479  itlist_:	zero	0,end_itlist-*
    000570  aa  002 146 061 000    480  	acc	"f1";	oct	40
    000571  aa   000000 000040
    000572  aa  003 151 164 142    481  	acc	"itb";	oct	41
    000573  aa   000000 000041
    000574  aa  003 151 164 160    482  	acc	"itp";	oct	41
    000575  aa   000000 000041
    000576  aa  003 151 164 163    483  	acc	"its";	oct	43
    000577  aa   000000 000043
    000600  aa  002 163 144 000    484  	acc	"sd";	oct	44
    000601  aa   000000 000044
    000602  aa  003 163 143 162    485  	acc	"scr";	oct	45
    000603  aa   000000 000045
    000604  aa  002 146 062 000    486  	acc	"f2";	oct	46
    000605  aa   000000 000046
    000606  aa  002 146 063 000    487  	acc	"f3";	oct	47
    000607  aa   000000 000047
    000610  aa  002 143 151 000    488  	acc	"ci";	oct	50
    000611  aa   000000 000050
    000612  aa  001 151 000 000    489  	acc	"i";	oct	51
    000613  aa   000000 000051
    000614  aa  002 163 143 000    490  	acc	"sc";	oct	52
    000615  aa   000000 000052
    000616  aa  002 141 144 000    491  	acc	"ad";	oct	53
    000617  aa   000000 000053
    000620  aa  002 144 151 000    492  	acc	"di";	oct	54
    000621  aa   000000 000054
    000622  aa  003 144 151 143    493  	acc	"dic";	oct	55
    000623  aa   000000 000055
    000624  aa  002 151 144 000    494  	acc	"id";	oct	56
    000625  aa   000000 000056
    000626  aa  003 151 144 143    495  end_itlist:	acc	"idc";	oct	57
    000627  aa   000000 000057
                                   496
                        000635     497  	segdef	jba,jbi,jbm,jbo,jbv,ibtb,ibts,ibtp,jbh
                        000646     498  	segdef	iasc,ifxd,iint,ioct,ivfd,imach
                        000652     499  	segdef	iitb,iits,ierr,iflt
    000630  aa   000000 000141     500  jba:	oct	141	a	LITEVL
    000631  aa   000000 000151     501  jbi:	oct	151	i
    000632  aa   000000 000155     502  jbm:	oct	155	m
    000633  aa   000000 000157     503  jbo:	oct	157	o
    000634  aa   000000 000166     504  jbv:	oct	166	v
    000635  aa   000000 000150     505  jbh:	oct	150	h
    000636  aa  002 164 142 000    506  ibtb:	acc	"tb"	LITEVL
    000637  aa  002 164 163 000    507  ibts:	acc	"ts"	LITEVL
    000640  aa  002 164 160 000    508  ibtp:	acc	"tp"	LITEVL
    000641  aa  056 141 163 143    509  iasc:	aci	".asc"
    000642  aa  056 146 170 144    510  ifxd:	aci	".fxd"
    000643  aa  056 151 156 164    511  iint:	aci	".int"
    000644  aa  056 157 143 164    512  ioct:	aci	".oct"
    000645  aa  056 166 146 144    513  ivfd:	aci	".vfd"
    000646  aa  056 155 143 150    514  imach:	aci	".mch"
    000647  aa  056 151 164 142    515  iitb:	aci	".itb"
    000650  aa  056 151 164 163    516  iits:	aci	".its"
    000651  aa  056 145 162 162    517  ierr:	aci	".err"
    000652  aa  056 146 154 164    518  iflt:	aci	".flt"	DECEVL
                                   519
                        000653     520  	segdef	nlpads,ipads
    000653  aa   177177 177177     521  ipads:	oct	177177177177
    000654  aa   012177 177177     522  nlpads:	oct	012177177177
                                   523
                        000657     524  	segdef	mb28,mb29,zerbuf
                                   525
    000655  aa   000000 000200     526  mb28:	oct	200
    000656  aa   000000 000100     527  mb29:	oct	100
    000657  aa   000000 000000     528  zerbuf:	oct	0,0,0,0,0,0,0,0,0,0
    000660  aa   000000 000000
    000661  aa   000000 000000
    000662  aa   000000 000000
    000663  aa   000000 000000
    000664  aa   000000 000000
    000665  aa   000000 000000
    000666  aa   000000 000000
    000667  aa   000000 000000
    000670  aa   000000 000000
    000671  aa   000000 000000     529  	oct	0,0,0,0,0,0,0,0,0,0
    000672  aa   000000 000000
    000673  aa   000000 000000
    000674  aa   000000 000000
    000675  aa   000000 000000
    000676  aa   000000 000000
    000677  aa   000000 000000
    000700  aa   000000 000000
    000701  aa   000000 000000
    000702  aa   000000 000000
    000703  aa   000000 000000     530  	oct	0,0,0,0,0,0,0,0,0,0
    000704  aa   000000 000000
    000705  aa   000000 000000
    000706  aa   000000 000000
    000707  aa   000000 000000
    000710  aa   000000 000000
    000711  aa   000000 000000
    000712  aa   000000 000000
    000713  aa   000000 000000
    000714  aa   000000 000000
                                   531
                        000734     532  	segdef	eis_flag_keys,eis_value_keys,eis_mf
    000715                         533  eis_flag_keys:
    000715  aa  005 141 163 143    534  	acc	"ascii";	oct	0
    000716  aa  151 151 000 000
    000717  aa   000000 000000
    000720  aa  013 145 156 141    535  	acc	"enablefault"
    000721  aa  142 154 145 146
    000722  aa  141 165 154 164
    000723  aa  005 162 157 165    536  	acc	"round";	oct	0
    000724  aa  156 144 000 000
    000725  aa   000000 000000
    000726                         537  eis_value_keys:
    000726  aa  004 155 141 163    538  	acc	"mask"
    000727  aa  153 000 000 000
    000730  aa  004 142 157 157    539  	acc	"bool"
    000731  aa  154 000 000 000
    000732  aa  004 146 151 154    540  	acc	"fill"
    000733  aa  154 000 000 000
    000734                         541  eis_mf:
    000734  aa  002 160 162 000    542  	acc	"pr";	oct	100
    000735  aa   000000 000100
    000736  aa  002 162 154 000    543  	acc	"rl";	oct	40
    000737  aa   000000 000040
    000740  aa  002 151 144 000    544  	acc	"id";	oct	20
    000741  aa   000000 000020
                                   545
                        000742     546  	segdef	rpt_terminators
    000742                         547  rpt_terminators:
    000742  aa  003 164 172 145    548  	acc	"tze"
    000743  aa  003 164 156 172    549  	acc	"tnz"
    000744  aa  003 164 155 151    550  	acc	"tmi"
    000745  aa  003 164 160 154    551  	acc	"tpl"
    000746  aa  003 164 162 143    552  	acc	"trc"
    000747  aa  003 164 156 143    553  	acc	"tnc"
    000750  aa  003 164 157 166    554  	acc	"tov"
                                   555
                        000751     556  	segdef	bcd_table
    000751                         557  bcd_table:
    000751  aa   777777 777777     558  	oct	777777777777,777777777777,777777777777,777777777777	" NUL to ETB.
    000752  aa   777777 777777
    000753  aa   777777 777777
    000754  aa   777777 777777
    000755  aa   777777 777777     559  	oct	777777777777,777720777613,537432573555,546073523361	" CAN to /.
    000756  aa   777720 777613
    000757  aa   537432 573555
    000760  aa   546073 523361
    000761  aa   000102 030405     560  	oct	000102030405,060710111556,367516171421,222324252627	" 0 to G.
    000762  aa   060710 111556
    000763  aa   367516 171421
    000764  aa   222324 252627
    000765  aa   303141 424344     561  	oct	303141424344,454647505162,636465666770,711237344072	" H to _.
    000766  aa   454647 505162
    000767  aa   636465 666770
    000770  aa   711237 344072
    000771  aa   572122 232425     562  	oct	572122232425,262730314142,434445464750,516263646566	" ` to w.
    000772  aa   262730 314142
    000773  aa   434445 464750
    000774  aa   516263 646566
    000775  aa   677071 774077     563  	oct	677071774077,777777777777				" x to PAD.
    000776  aa   777777 777777
                                   564
                                   565  "
                                   566  	use	impure	in the linkage
                                   567
                                   568  	use	impure
                                   569
                                   570  	even	"for use of sym in LDAQ instructions
                                   571
                        000020     572  	segdef	varcom,tsym	impure from fortran coded eplbsa
    000014                         573  varcom:	null
    000014                         574  	bss	var_pad,4
    000020                         575  tsym:	null	overlayed with SYM
    000020                         576  	bss	var_pad2,350
    000556                         577  end_varcom:
                                   578
                                   579  	even		"ITS pointers follow
                                   580  	use	impure
                        000556     581  	segdef	objnfo
    000556                         582  objnfo:	bss	objnfo,24	impure from fortran called eplbsa
                                   583  	use	impure
                        000606     584  	segdef	segnfo
                                   585  	even		ITS pointers follow
    000606                         586  segnfo:	bss	segnfo,13	impure from fortran coded eplbsa
                                   587  	use	impure
                        000623     588  	segdef	erflgs,erflgs_overlay,flgvec	impure data
    000623                         589  erflgs:	null
    000623                         590  erflgs_overlay:	null	18prntX words and 18 TSTSW words overlayed with FLGVEC
    000623                         591  flgvec:	bss	flgvec,36
                                   592
                                   593  	use	impure
                        000667     594  	segdef	lstcom
    000667                         595  lstcom:	null
    000667                         596  	bss	tnolst,1
                                   597
                                   598  	use	impure
                        000670     599  	segdef	mxpro	impure data
    000670  aa   000000 000002     600  mxpro:	dec	2
    000671  aa   000000 1000 10    601  	cmpx0	0,0
    000672  aa   000000 6020 10    602  	tnc	0,0
                                   603
                                   604  	use	impure
                        000673     605  	segdef	slcall,nslcal	impure data
    000673                         606  slcall:	null
    000673  aa   000000 000005     607  nslcal:	dec	5
    000674  aa  6 00000 2541 00    608  	spri	sp|0
    000675  aa  6 00010 7531 00    609  	sreg	sp|8
    000676  aa   000000 3500 00    610  	eppap	0
    000677  aa  6 00024 3571 00    611  	stcd	sp|20
    000700  aa   000000 7100 00    612  	tra	0
                                   613
                        000701     614  	segdef	new_slcall,new_nslcal	" New call, same as old as of February 1972.
    000701                         615  new_slcall:	null
    000701  aa   000000 000007     616  new_nslcal:	dec	7
    000702  aa  6 00000 2541 00    617  	spri	sp|0
    000703  aa   000000 3500 00    618  	eppap	0		" load arg list.
    000704  aa   000000 3520 00    619  	eppbp	0		" load thing to call.
    000705  aa  6 00040 7531 00    620  	sreg	sp|32
    000706  aa  7 00036 6701 20    621  	tsplp	sb|stack_header.call_op_ptr,*		" go to system call operator.
    000707  aa  6 00000 1731 00    622  	lpri	sp|0
    000710  aa  6 00040 0731 00    623  	lreg	sp|32
                                   624
                        000711     625  	segdef	short_slcall,short_nslcal
    000711                         626  short_slcall:	null		" Short (no bases/regs saved or restored) slave call macro.
    000711  aa   000000 000003     627  short_nslcal:	dec	3
    000712  aa   000000 3520 00    628  	eppbp	0
    000713  aa  7 00036 6701 20    629  	tsplp	sb|stack_header.call_op_ptr,*
    000714  aa  6 00030 3701 20    630  	epplp	sp|24,*		" Restore linkage pointer.
                                   631
                                   632  	use	impure
                        000715     633  	segdef	mxcall,nmxcal	impure data
    000715                         634  mxcall:	null
    000715  aa   000000 000013     635  nmxcal:	dec	11
    000716  aa  6 00000 2541 00    636  	spri	sp|0
    000717  aa  6 00010 7531 00    637  	sreg	sp|8
    000720  aa  4 00000 3501 00    638  	eppap	lp|0
    000721  aa  6 00024 2501 00    639  	spriap	sp|20
    000722  aa   000000 3500 00    640  	eppap	0
    000723  aa  6 00025 7541 00    641  	sti	sp|21
    000724  aa   000000 2360 00    642  	ldq	0
    000725  aa  6 00026 7561 00    643  	stq	sp|22
    000726  aa  6 00015 2361 00    644  	ldq	sp|13
    000727  aa  6 00025 6341 00    645  	ldi	sp|21
    000730  aa   000000 7100 00    646  	tra	0
                                   647
                                   648  	use	impure
                        000731     649  	segdef	mxclbk,nmxclb	impure data
    000731                         650  mxclbk:	null
    000731  aa   000000 000007     651  nmxclb:	dec	7
    000732  aa  6 00026 2361 00    652  	ldq	sp|22
    000733  aa   000000 1160 00    653  	cmpq	0
    000734  aa   000000 6010 00    654  	tnz	0
    000735  aa  6 00026 4501 00    655  	stz	sp|22
    000736  aa  6 00015 2361 00    656  	ldq	sp|13
    000737  aa  6 00010 2201 00    657  	ldx0	sp|8
    000740  aa  6 00025 6341 00    658  	ldi	sp|21
                                   659
                                   660  	use	impure
                        000741     661  	segdef	relocn	impure data
    000741                         662  relocn:	null
    000741  aa   000000 000000     663  mxpbit:	oct	0	2 words
    000742  aa   000020 000000     664  	oct	000020000000
    000743  aa   000000 000000     665  nslbit:	oct	0	5 words
    000744  aa   000000 000000     666  	oct	0
    000745  aa   777777 000000     667  	oct	777777000000
    000746  aa   000000 000000     668  	oct	0
    000747  aa   777777 000000     669  	oct	777777000000
    000750  aa   000000 000000     670  mxcbit:	oct	0	11 words
    000751  aa   000000 000000     671  	oct	0
    000752  aa   000024 000000     672  	oct	000024000000
    000753  aa   000000 000000     673  	oct	0
    000754  aa   777777 000000     674  	oct	777777000000
    000755  aa   000000 000000     675  	oct	0
    000756  aa   000020 000000     676  	oct	000020000000
    000757  aa   000000 000000     677  	oct	0
    000760  aa   000000 000000     678  	oct	0
    000761  aa   000000 000000     679  	oct	0
    000762  aa   777777 000000     680  	oct	777777000000
    000763  aa   000000 000000     681  mxlbit:	oct	0	7 words
    000764  aa   777777 000000     682  	oct	777777000000
    000765  aa   777777 000000     683  	oct	777777000000
    000766  aa   000000 000000     684  	oct	0
    000767  aa   000000 000000     685  	oct	0
    000770  aa   000000 000000     686  	oct	0
    000771  aa   000000 000000     687  	oct	0
    000772  aa   000000 000000     688  mxsbit:	oct	0	2 words
    000773  aa   000000 000000     689  	oct	0
    000774  aa   000000 000000     690  mslbit:	oct	0	6 words
    000775  aa   000000 000000     691  	oct	0
    000776  aa   000000 000000     692  	oct	0
    000777  aa   000000 000000     693  	oct	0
    001000  aa   000000 000000     694  	oct	0
    001001  aa   000000 000000     695  	oct	0
    001002  aa   000000 000000     696  mrtbit:	oct	0	3 words
    001003  aa   000000 000000     697  	oct	0
    001004  aa   000000 000000     698  	oct	0
    001005  aa   000000 000000     699  merbit:	oct	0	11 words
    001006  aa   000000 000000     700  	oct	0
    001007  aa   000000 000000     701  	oct	0
    001010  aa   000000 000000     702  	oct	0
    001011  aa   000000 000000     703  	oct	0
    001012  aa   000000 000000     704  	oct	0
    001013  aa   000000 000000     705  	oct	0
    001014  aa   000000 000000     706  	oct	0
    001015  aa   000000 000000     707  	oct	0
    001016  aa   000000 000000     708  	oct	0
    001017  aa   000024 000000     709  	oct	000024000000
                                   710
    001020  aa   000000 000000     711  new_mrtbit:	oct	0	" Relocation bits for new return operator.
    001021                         712  	bss	,2		" Padding in case it grows.
    001023  aa   000000 000000     713  new_mslbit:	oct	0	" New slave save.
    001024  aa   000000 000000     714  	oct	0
    001025                         715  	bss	,4		" More padding.
    001031  aa   000000 000000     716  new_nslbit:	oct	0	" New slave call.
    001032  aa   777777 000000     717  	oct	777777000000
    001033  aa   777777 000000     718  	oct	777777000000
    001034  aa   000000 000000     719  	oct	0
    001035  aa   000000 000000     720  	oct	0
    001036  aa   000000 000000     721  	oct	0
    001037  aa   000000 000000     722  	oct	0
    001040                         723  	bss	,3		" Call particularly likely to grow.
    001043  aa   000000 000000     724  short_mrtbit:	oct	0	" New short return.
    001044                         725  	bss	,2		" Padding.
    001046  aa   000025 000000     726  new_entbit:	oct	000025000000	" New entry sequence.
    001047  aa   000000 000000     727  	oct	0
    001050  aa   000020 000000     728  	oct	000020000000
    001051                         729  	bss	,2		" Padding.
    001053  aa   777777 000000     730  short_nslbit:	oct	777777000000		" New short slave call.
    001054  aa   000000 000000     731  		oct	0
    001055  aa   000000 000000     732  		oct	0
    001056                         733  		bss	,3		" Padding.
    001061  aa   000000 000000     734  new_getbit:	oct	0		" New in-text find linkage pointer.
    001062                         735  	bss	,4		" Padding.
                                   736
                                   737
                                   738  	use	impure
                        001066     739  	segdef	slsave,nslsav	impure data
    001066                         740  slsave:	null
    001066  aa   000000 000006     741  nslsav:	dec	6		"slave mode save
    001067  aa  6 00022 3521 20    742  	eppbp	sp|18,*
    001070  aa  2 00020 6521 00    743  	sprisp	bp|16
    001071  aa  2 00000 3521 00    744  	eppbp	bp|-
    001072  aa  2 00022 2521 00    745  	spribp	bp|18
    001073  aa  2 00000 3721 00    746  	eppsp	bp|0
    001074  aa  6 00032 2501 00    747  	spriap	sp|26
                                   748
                        001075     749  	segdef	new_slsave,new_nslsav	" New save operator, February 1972.
    001075                         750  new_nslsav:	null
    001075  aa   000000 000002     751  new_slsave:	dec	2
    001076  aa   000000 6270 00    752  	eax7	0
    001077  aa  7 00040 2721 20    753  	tspbp	sb|stack_header.push_op_ptr,*		" go to system save operator.
                                   754
                        001100     755  	segdef	new_entlst,new_nentls
    001100                         756  new_entlst:	null
    001100  aa   000000 000003     757  new_nentls:	dec	3
    001101  aa   000000 000000     758  	oct	0
    001102  aa  7 00046 2721 20    759  	tspbp	sb|stack_header.entry_op_ptr,*
    001103  aa   000000 7100 00    760  	tra	-
                                   761
                                   762  	use	impure
                        001104     763  	segdef	ertlst,nertls	alternate return  impure data
    001104                         764  ertlst:	null
    001104  aa   000000 000013     765  nertls:	dec	11
    001105  aa  6 00000 2541 00    766  	spri	sp|0
    001106  aa  6 00010 7531 00    767  	sreg	sp|8
    001107  aa   004000 4310 07    768  	fld	=2b25,dl
    001110  aa  6 00000 7571 00    769  	staq	sp|0
    001111  aa  6 00000 2371 00    770  	ldaq	sp|0
    001112  aa  6 00000 7571 00    771  	staq	sp|0
    001113  aa  6 00000 3501 00    772  	eppap	sp|0
    001114  aa  6 00014 2371 00    773  	ldaq	sp|12
    001115  aa  6 00025 6341 00    774  	ldi	sp|21
    001116  aa  6 00024 3571 00    775  	stcd	sp|20
    001117  aa   000000 7100 00    776  	tra	0
                                   777
                                   778  	use	impure
                        001120     779  	segdef	lctext	impure data
    001120                         780  lctext:	null
    001120                         781  	bss	lptext,1
    001121  aa  006 056 164 145    782  	acc	".text."
    001122  aa  170 164 056 000
                                   783  	use	impure
                        001123     784  	segdef	lchead	impure data
    001123                         785  lchead:	null
    001123                         786  	bss	lphead,1
    001124  aa  010 056 154 153    787  	acc	".lkhead."
    001125  aa  150 145 141 144
    001126  aa  056 000 000 000
                                   788
                                   789  	use	impure
                        001127     790  	segdef	lcsect	impure data
    001127                         791  lcsect:	null
    001127                         792  	bss	lpsect,1
    001130  aa  010 056 154 153    793  	acc	".lksect."
    001131  aa  163 145 143 164
    001132  aa  056 000 000 000
                                   794
                                   795  	use	impure
                        001133     796  	segdef	lclit	impure data
    001133                         797  lclit:	null
    001133                         798  	bss	lplit,1
    001134  aa  005 056 154 151    799  	acc	".lit."
    001135  aa  164 056 000 000
                                   800
                                   801  	use	impure
                        001136     802  	segdef	lcdefs	impure data
    001136                         803  lcdefs:	null
    001136                         804  	bss	lpdefs,1
    001137  aa  006 056 144 145    805  	acc	".defs."
    001140  aa  146 163 056 000
                                   806
                                   807  	use	impure
                        001141     808  	segdef	lctv	impure data
    001141                         809  lctv:	null
    001141                         810  	bss	lptv,1
    001142  aa  004 056 124 126    811  	acc	".TV."
    001143  aa  056 000 000 000
                                   812
                                   813  	use	impure
                        001144     814  	segdef	lccall	impure data
    001144                         815  lccall:	null
    001144                         816  	bss	lpcall,1
    001145  aa  004 056 145 143    817  	acc	".ec."
    001146  aa  056 000 000 000
                                   818
                                   819  	use	impure
                        001147     820  	segdef	lcst	impure data
    001147                         821  lcst:	null
    001147                         822  	bss	lpst,1
    001150  aa  004 056 163 164    823  	acc	".st."
    001151  aa  056 000 000 000
                                   824
                                   825  	use	impure
                        001152     826  	segdef	lcrtx	impure data
    001152                         827  lcrtx:	null
    001152                         828  	bss	lprtx,1
    001153  aa  007 056 162 145    829  	acc	".reltx."
    001154  aa  154 164 170 056
                                   830
                                   831  	use	impure
                        001155     832  	segdef	lcrlk	impure data
    001155                         833  lcrlk:	null
    001155                         834  	bss	lprlk,1
    001156  aa  007 056 162 145    835  	acc	".rellk."
    001157  aa  154 154 153 056
                                   836
                                   837  	use	impure
                        001160     838  	segdef lcrst	impure data
    001160                         839  lcrst:	null
    001160                         840  	bss	lprst,1
    001161  aa  007 056 162 145    841  	acc	".relst."
    001162  aa  154 163 164 056
                                   842
                        001163     843  	segdef	lcentries
    001163                         844  lcentries:	null
    001163                         845  	bss	lpentries,1
    001164  aa  011 056 145 156    846  	acc	".entries."
    001165  aa  164 162 151 145
    001166  aa  163 056 000 000
                                   847
                                   848  	use	impure
                        001167     849  	segdef	labarg	impure data
    001167                         850  labarg:	null
    001167                         851  	bss	gralal,1
                                   852
                                   853  	use	impure
                        001170     854  	segdef	lccom	impure data
    001170                         855  lccom:	null
    001170                         856  	bss	moccl,6
                                   857
                                   858  	use	impure
                        001176     859  	segdef	curlc	impure data
    001176                         860  curlc:	null
    001176                         861  	bss	clruc,1
                                   862
                        001177     863  	segdef	oulst
    001177                         864  oulst:	bss	oulst,17
                                   865
                                   866  	use	impure
                                   867  	use	impure
                        001220     868  	segdef	lavptr
                                   869  	even
    001220                         870  lavptr:	null
    001220  aa   077777 000043     871  	its	-1,1	holds pointer to the segment for the list management routines
    001221  aa   000001 000000
                                   872
                                   873  	even
                        001222     874  	segdef	who_am_I,abort_assembly
    001222                         875  abort_assembly:
    001222  aa   077777 000043     876  	its -1,1
    001223  aa   000001 000000
    001224  aa   077777 000043     877  	its -1,1
    001225  aa   000001 000000
    001226                         878  	bss	label_unused,2
    001230  aa  141 154 155 040    879  who_am_I:	aci	"alm         "	(must be 12 characters)
    001231  aa  040 040 040 040
    001232  aa  040 040 040 040
                        001233     880  	segdef	curr_char_no	for INPUTS
    001233  aa   777777 777777     881  curr_char_no:	dec	-1	the current character in the source segment
                                   882
                                   883  	even
                        001234     884  	segdef	mexp_env_ptr	for macro expander
    001234                         885  mexp_env_ptr:
    001234  aa   077777 000043     886  	its	-1,1
    001235  aa   000001 000000
                                   887
                        001236     888  	segdef	alm_arg_ptr
    001236                         889  alm_arg_ptr:
    001236  aa   077777 000043     890  	its	-1,1
    001237  aa   000001 000000
                                   891
                        001240     892  	segdef	macro_depth
    001240                         893  macro_depth:
    001240  aa   000000 000000     894  	dec	0
                                   895
                        001241     896  	segdef	include_number
    001241                         897  include_number:
    001241                         898  	bss	,1
                                   899
                        001242     900  	segdef	include_control
    001242                         901  include_control:
    001242                         902  	bss	,(110+35)/36
                                   903
                        001246     904  	segdef	mexp_argno
    001246                         905  mexp_argno:
    001246                         906  	bss	,1
                                   907
                        001247     908  	segdef	alm_arg_count
    001247                         909  alm_arg_count:
    001247                         910  	bss	,1
                                   911
                        001250     912  	segdef	macro_listing_control
    001250                         913  macro_listing_control:
    001250                         914  	bss	,1
                                   915
                        001251     916  	segdef	macro_stack
    001251                         917  macro_stack:
    001251                         918  	bss	,4*100
                                   919
                        002071     920  	segdef	macro_linect
    002071                         921  macro_linect:
    002071  aa   000000 000000     922  	dec	0
                                   923
                                   924
                                   925
                        002072     926  	segdef	dig
    002072  aa   066000 000000     927  dig:	vfd	8/27,28/0		for DECSUB
                                   928
                                   929
                        002073     930  	segdef	alm_options	" Options passed from command to others.
    002073                         931  alm_options:	bss	,3	" tnewcall, tnewmachine, tnewobject.
    002076                         932  		bss	,3	" tcheckcompatibility, tquietsw, tfirstreftrap.
    002101                         933  		bss	,3	" tnoxref, two spare cells.
                                   934
                        002104     935  	segdef	listing_max_length	" Maximum length of listing component
    002104                         936  listing_max_length:
    002104                         937  	bss	,1
                                   938
                        002105     939  	segdef	list_component	" Component number of listing
    002105                         940  list_component:
    002105                         941  	bss	,1
                                   942
                        002106     943  	segdef	per_process_static_sw
    002106                         944  per_process_static_sw:
    002106                         945  	bss	,1
                                   946
                                   947  	join	/text/pure
                                   948  	join	/link/impure
                                   949  	end

NO LITERALS

NAME DEFINITIONS FOR ENTRY POINTS AND SEGDEFS

    001000  5a   000003 000000
    001001  5a   001554 600000
    001002  aa   000000 000000
    001003  55   000011 000002
    001004  5a   000002 400003
    001005  55   000006 000011
    001006  aa  010 145 142 137
    001007  aa  144 141 164 141
    001010  aa  137 000 000 000
    001011  55   000022 000003
    001012  2a   002106 400001
    001013  55   000014 000003
    001014  aa  025 160 145 162         per_process_static_sw
    001015  aa  137 160 162 157
    001016  aa  143 145 163 163
    001017  aa  137 163 164 141
    001020  aa  164 151 143 137
    001021  aa  163 167 000 000
    001022  55   000031 000011
    001023  2a   002105 400001
    001024  55   000025 000003
    001025  aa  016 154 151 163         list_component
    001026  aa  164 137 143 157
    001027  aa  155 160 157 156
    001030  aa  145 156 164 000
    001031  55   000041 000022
    001032  2a   002104 400001
    001033  55   000034 000003
    001034  aa  022 154 151 163         listing_max_length
    001035  aa  164 151 156 147
    001036  aa  137 155 141 170
    001037  aa  137 154 145 156
    001040  aa  147 164 150 000
    001041  55   000047 000031
    001042  2a   002073 400001
    001043  55   000044 000003
    001044  aa  013 141 154 155         alm_options
    001045  aa  137 157 160 164
    001046  aa  151 157 156 163
    001047  55   000053 000041
    001050  2a   002072 400001
    001051  55   000052 000003
    001052  aa  003 144 151 147         dig
    001053  55   000062 000047
    001054  2a   002071 400001
    001055  55   000056 000003
    001056  aa  014 155 141 143         macro_linect
    001057  aa  162 157 137 154
    001060  aa  151 156 145 143
    001061  aa  164 000 000 000
    001062  55   000070 000053
    001063  2a   001251 400001
    001064  55   000065 000003
    001065  aa  013 155 141 143         macro_stack
    001066  aa  162 157 137 163
    001067  aa  164 141 143 153
    001070  55   000101 000062
    001071  2a   001250 400001
    001072  55   000073 000003
    001073  aa  025 155 141 143         macro_listing_control
    001074  aa  162 157 137 154
    001075  aa  151 163 164 151
    001076  aa  156 147 137 143
    001077  aa  157 156 164 162
    001100  aa  157 154 000 000
    001101  55   000110 000070
    001102  2a   001247 400001
    001103  55   000104 000003
    001104  aa  015 141 154 155         alm_arg_count
    001105  aa  137 141 162 147
    001106  aa  137 143 157 165
    001107  aa  156 164 000 000
    001110  55   000116 000101
    001111  2a   001246 400001
    001112  55   000113 000003
    001113  aa  012 155 145 170         mexp_argno
    001114  aa  160 137 141 162
    001115  aa  147 156 157 000
    001116  55   000125 000110
    001117  2a   001242 400001
    001120  55   000121 000003
    001121  aa  017 151 156 143         include_control
    001122  aa  154 165 144 145
    001123  aa  137 143 157 156
    001124  aa  164 162 157 154
    001125  55   000134 000116
    001126  2a   001241 400001
    001127  55   000130 000003
    001130  aa  016 151 156 143         include_number
    001131  aa  154 165 144 145
    001132  aa  137 156 165 155
    001133  aa  142 145 162 000
    001134  55   000142 000125
    001135  2a   001240 400001
    001136  55   000137 000003
    001137  aa  013 155 141 143         macro_depth
    001140  aa  162 157 137 144
    001141  aa  145 160 164 150
    001142  55   000150 000134
    001143  2a   001236 400001
    001144  55   000145 000003
    001145  aa  013 141 154 155         alm_arg_ptr
    001146  aa  137 141 162 147
    001147  aa  137 160 164 162
    001150  55   000157 000142
    001151  2a   001234 400001
    001152  55   000153 000003
    001153  aa  014 155 145 170         mexp_env_ptr
    001154  aa  160 137 145 156
    001155  aa  166 137 160 164
    001156  aa  162 000 000 000
    001157  55   000166 000150
    001160  2a   001233 400001
    001161  55   000162 000003
    001162  aa  014 143 165 162         curr_char_no
    001163  aa  162 137 143 150
    001164  aa  141 162 137 156
    001165  aa  157 000 000 000
    001166  55   000175 000157
    001167  2a   001222 400001
    001170  55   000171 000003
    001171  aa  016 141 142 157         abort_assembly
    001172  aa  162 164 137 141
    001173  aa  163 163 145 155
    001174  aa  142 154 171 000
    001175  55   000203 000166
    001176  2a   001230 400001
    001177  55   000200 000003
    001200  aa  010 167 150 157         who_am_I
    001201  aa  137 141 155 137
    001202  aa  111 000 000 000
    001203  55   000210 000175
    001204  2a   001220 400001
    001205  55   000206 000003
    001206  aa  006 154 141 166         lavptr
    001207  aa  160 164 162 000
    001210  55   000215 000203
    001211  2a   001177 400001
    001212  55   000213 000003
    001213  aa  005 157 165 154         oulst
    001214  aa  163 164 000 000
    001215  55   000222 000210
    001216  2a   001176 400001
    001217  55   000220 000003
    001220  aa  005 143 165 162         curlc
    001221  aa  154 143 000 000
    001222  55   000227 000215
    001223  2a   001170 400001
    001224  55   000225 000003
    001225  aa  005 154 143 143         lccom
    001226  aa  157 155 000 000
    001227  55   000234 000222
    001230  2a   001167 400001
    001231  55   000232 000003
    001232  aa  006 154 141 142         labarg
    001233  aa  141 162 147 000
    001234  55   000242 000227
    001235  2a   001163 400001
    001236  55   000237 000003
    001237  aa  011 154 143 145         lcentries
    001240  aa  156 164 162 151
    001241  aa  145 163 000 000
    001242  55   000247 000234
    001243  2a   001160 400001
    001244  55   000245 000003
    001245  aa  005 154 143 162         lcrst
    001246  aa  163 164 000 000
    001247  55   000254 000242
    001250  2a   001155 400001
    001251  55   000252 000003
    001252  aa  005 154 143 162         lcrlk
    001253  aa  154 153 000 000
    001254  55   000261 000247
    001255  2a   001152 400001
    001256  55   000257 000003
    001257  aa  005 154 143 162         lcrtx
    001260  aa  164 170 000 000
    001261  55   000266 000254
    001262  2a   001147 400001
    001263  55   000264 000003
    001264  aa  004 154 143 163         lcst
    001265  aa  164 000 000 000
    001266  55   000273 000261
    001267  2a   001144 400001
    001270  55   000271 000003
    001271  aa  006 154 143 143         lccall
    001272  aa  141 154 154 000
    001273  55   000300 000266
    001274  2a   001141 400001
    001275  55   000276 000003
    001276  aa  004 154 143 164         lctv
    001277  aa  166 000 000 000
    001300  55   000305 000273
    001301  2a   001136 400001
    001302  55   000303 000003
    001303  aa  006 154 143 144         lcdefs
    001304  aa  145 146 163 000
    001305  55   000312 000300
    001306  2a   001133 400001
    001307  55   000310 000003
    001310  aa  005 154 143 154         lclit
    001311  aa  151 164 000 000
    001312  55   000317 000305
    001313  2a   001127 400001
    001314  55   000315 000003
    001315  aa  006 154 143 163         lcsect
    001316  aa  145 143 164 000
    001317  55   000324 000312
    001320  2a   001123 400001
    001321  55   000322 000003
    001322  aa  006 154 143 150         lchead
    001323  aa  145 141 144 000
    001324  55   000331 000317
    001325  2a   001120 400001
    001326  55   000327 000003
    001327  aa  006 154 143 164         lctext
    001330  aa  145 170 164 000
    001331  55   000336 000324
    001332  2a   001104 400001
    001333  55   000334 000003
    001334  aa  006 156 145 162         nertls
    001335  aa  164 154 163 000
    001336  55   000343 000331
    001337  2a   001104 400001
    001340  55   000341 000003
    001341  aa  006 145 162 164         ertlst
    001342  aa  154 163 164 000
    001343  55   000351 000336
    001344  2a   001100 400001
    001345  55   000346 000003
    001346  aa  012 156 145 167         new_nentls
    001347  aa  137 156 145 156
    001350  aa  164 154 163 000
    001351  55   000357 000343
    001352  2a   001100 400001
    001353  55   000354 000003
    001354  aa  012 156 145 167         new_entlst
    001355  aa  137 145 156 164
    001356  aa  154 163 164 000
    001357  55   000365 000351
    001360  2a   001075 400001
    001361  55   000362 000003
    001362  aa  012 156 145 167         new_nslsav
    001363  aa  137 156 163 154
    001364  aa  163 141 166 000
    001365  55   000373 000357
    001366  2a   001075 400001
    001367  55   000370 000003
    001370  aa  012 156 145 167         new_slsave
    001371  aa  137 163 154 163
    001372  aa  141 166 145 000
    001373  55   000400 000365
    001374  2a   001066 400001
    001375  55   000376 000003
    001376  aa  006 156 163 154         nslsav
    001377  aa  163 141 166 000
    001400  55   000405 000373
    001401  2a   001066 400001
    001402  55   000403 000003
    001403  aa  006 163 154 163         slsave
    001404  aa  141 166 145 000
    001405  55   000412 000400
    001406  2a   000741 400001
    001407  55   000410 000003
    001410  aa  006 162 145 154         relocn
    001411  aa  157 143 156 000
    001412  55   000417 000405
    001413  2a   000731 400001
    001414  55   000415 000003
    001415  aa  006 156 155 170         nmxclb
    001416  aa  143 154 142 000
    001417  55   000424 000412
    001420  2a   000731 400001
    001421  55   000422 000003
    001422  aa  006 155 170 143         mxclbk
    001423  aa  154 142 153 000
    001424  55   000431 000417
    001425  2a   000715 400001
    001426  55   000427 000003
    001427  aa  006 156 155 170         nmxcal
    001430  aa  143 141 154 000
    001431  55   000436 000424
    001432  2a   000715 400001
    001433  55   000434 000003
    001434  aa  006 155 170 143         mxcall
    001435  aa  141 154 154 000
    001436  55   000445 000431
    001437  2a   000711 400001
    001440  55   000441 000003
    001441  aa  014 163 150 157         short_nslcal
    001442  aa  162 164 137 156
    001443  aa  163 154 143 141
    001444  aa  154 000 000 000
    001445  55   000454 000436
    001446  2a   000711 400001
    001447  55   000450 000003
    001450  aa  014 163 150 157         short_slcall
    001451  aa  162 164 137 163
    001452  aa  154 143 141 154
    001453  aa  154 000 000 000
    001454  55   000462 000445
    001455  2a   000701 400001
    001456  55   000457 000003
    001457  aa  012 156 145 167         new_nslcal
    001460  aa  137 156 163 154
    001461  aa  143 141 154 000
    001462  55   000470 000454
    001463  2a   000701 400001
    001464  55   000465 000003
    001465  aa  012 156 145 167         new_slcall
    001466  aa  137 163 154 143
    001467  aa  141 154 154 000
    001470  55   000475 000462
    001471  2a   000673 400001
    001472  55   000473 000003
    001473  aa  006 156 163 154         nslcal
    001474  aa  143 141 154 000
    001475  55   000502 000470
    001476  2a   000673 400001
    001477  55   000500 000003
    001500  aa  006 163 154 143         slcall
    001501  aa  141 154 154 000
    001502  55   000507 000475
    001503  2a   000670 400001
    001504  55   000505 000003
    001505  aa  005 155 170 160         mxpro
    001506  aa  162 157 000 000
    001507  55   000514 000502
    001510  2a   000667 400001
    001511  55   000512 000003
    001512  aa  006 154 163 164         lstcom
    001513  aa  143 157 155 000
    001514  55   000521 000507
    001515  2a   000623 400001
    001516  55   000517 000003
    001517  aa  006 146 154 147         flgvec
    001520  aa  166 145 143 000
    001521  55   000530 000514
    001522  2a   000623 400001
    001523  55   000524 000003
    001524  aa  016 145 162 146         erflgs_overlay
    001525  aa  154 147 163 137
    001526  aa  157 166 145 162
    001527  aa  154 141 171 000
    001530  55   000535 000521
    001531  2a   000623 400001
    001532  55   000533 000003
    001533  aa  006 145 162 146         erflgs
    001534  aa  154 147 163 000
    001535  55   000542 000530
    001536  2a   000606 400001
    001537  55   000540 000003
    001540  aa  006 163 145 147         segnfo
    001541  aa  156 146 157 000
    001542  55   000547 000535
    001543  2a   000556 400001
    001544  55   000545 000003
    001545  aa  006 157 142 152         objnfo
    001546  aa  156 146 157 000
    001547  55   000554 000542
    001550  2a   000020 400001
    001551  55   000552 000003
    001552  aa  004 164 163 171         tsym
    001553  aa  155 000 000 000
    001554  55   000561 000547
    001555  2a   000014 400001
    001556  55   000557 000003
    001557  aa  006 166 141 162         varcom
    001560  aa  143 157 155 000
    001561  55   000567 000554
    001562  0a   000751 400000
    001563  55   000564 000003
    001564  aa  011 142 143 144         bcd_table
    001565  aa  137 164 141 142
    001566  aa  154 145 000 000
    001567  55   000576 000561
    001570  0a   000742 400000
    001571  55   000572 000003
    001572  aa  017 162 160 164         rpt_terminators
    001573  aa  137 164 145 162
    001574  aa  155 151 156 141
    001575  aa  164 157 162 163
    001576  55   000603 000567
    001577  0a   000734 400000
    001600  55   000601 000003
    001601  aa  006 145 151 163         eis_mf
    001602  aa  137 155 146 000
    001603  55   000612 000576
    001604  0a   000726 400000
    001605  55   000606 000003
    001606  aa  016 145 151 163         eis_value_keys
    001607  aa  137 166 141 154
    001610  aa  165 145 137 153
    001611  aa  145 171 163 000
    001612  55   000621 000603
    001613  0a   000715 400000
    001614  55   000615 000003
    001615  aa  015 145 151 163         eis_flag_keys
    001616  aa  137 146 154 141
    001617  aa  147 137 153 145
    001620  aa  171 163 000 000
    001621  55   000626 000612
    001622  0a   000657 400000
    001623  55   000624 000003
    001624  aa  006 172 145 162         zerbuf
    001625  aa  142 165 146 000
    001626  55   000633 000621
    001627  0a   000656 400000
    001630  55   000631 000003
    001631  aa  004 155 142 062         mb29
    001632  aa  071 000 000 000
    001633  55   000640 000626
    001634  0a   000655 400000
    001635  55   000636 000003
    001636  aa  004 155 142 062         mb28
    001637  aa  070 000 000 000
    001640  55   000645 000633
    001641  0a   000653 400000
    001642  55   000643 000003
    001643  aa  005 151 160 141         ipads
    001644  aa  144 163 000 000
    001645  55   000652 000640
    001646  0a   000654 400000
    001647  55   000650 000003
    001650  aa  006 156 154 160         nlpads
    001651  aa  141 144 163 000
    001652  55   000657 000645
    001653  0a   000652 400000
    001654  55   000655 000003
    001655  aa  004 151 146 154         iflt
    001656  aa  164 000 000 000
    001657  55   000664 000652
    001660  0a   000651 400000
    001661  55   000662 000003
    001662  aa  004 151 145 162         ierr
    001663  aa  162 000 000 000
    001664  55   000671 000657
    001665  0a   000650 400000
    001666  55   000667 000003
    001667  aa  004 151 151 164         iits
    001670  aa  163 000 000 000
    001671  55   000676 000664
    001672  0a   000647 400000
    001673  55   000674 000003
    001674  aa  004 151 151 164         iitb
    001675  aa  142 000 000 000
    001676  55   000703 000671
    001677  0a   000646 400000
    001700  55   000701 000003
    001701  aa  005 151 155 141         imach
    001702  aa  143 150 000 000
    001703  55   000710 000676
    001704  0a   000645 400000
    001705  55   000706 000003
    001706  aa  004 151 166 146         ivfd
    001707  aa  144 000 000 000
    001710  55   000715 000703
    001711  0a   000644 400000
    001712  55   000713 000003
    001713  aa  004 151 157 143         ioct
    001714  aa  164 000 000 000
    001715  55   000722 000710
    001716  0a   000643 400000
    001717  55   000720 000003
    001720  aa  004 151 151 156         iint
    001721  aa  164 000 000 000
    001722  55   000727 000715
    001723  0a   000642 400000
    001724  55   000725 000003
    001725  aa  004 151 146 170         ifxd
    001726  aa  144 000 000 000
    001727  55   000734 000722
    001730  0a   000641 400000
    001731  55   000732 000003
    001732  aa  004 151 141 163         iasc
    001733  aa  143 000 000 000
    001734  55   000740 000727
    001735  0a   000635 400000
    001736  55   000737 000003
    001737  aa  003 152 142 150         jbh
    001740  55   000745 000734
    001741  0a   000640 400000
    001742  55   000743 000003
    001743  aa  004 151 142 164         ibtp
    001744  aa  160 000 000 000
    001745  55   000752 000740
    001746  0a   000637 400000
    001747  55   000750 000003
    001750  aa  004 151 142 164         ibts
    001751  aa  163 000 000 000
    001752  55   000757 000745
    001753  0a   000636 400000
    001754  55   000755 000003
    001755  aa  004 151 142 164         ibtb
    001756  aa  142 000 000 000
    001757  55   000763 000752
    001760  0a   000634 400000
    001761  55   000762 000003
    001762  aa  003 152 142 166         jbv
    001763  55   000767 000757
    001764  0a   000633 400000
    001765  55   000766 000003
    001766  aa  003 152 142 157         jbo
    001767  55   000773 000763
    001770  0a   000632 400000
    001771  55   000772 000003
    001772  aa  003 152 142 155         jbm
    001773  55   000777 000767
    001774  0a   000631 400000
    001775  55   000776 000003
    001776  aa  003 152 142 151         jbi
    001777  55   001003 000773
    002000  0a   000630 400000
    002001  55   001002 000003
    002002  aa  003 152 142 141         jba
    002003  55   001010 000777
    002004  0a   000567 400000
    002005  55   001006 000003
    002006  aa  007 151 164 154         itlist_
    002007  aa  151 163 164 137
    002010  55   001015 001003
    002011  0a   000547 400000
    002012  55   001013 000003
    002013  aa  005 162 154 151         rlist
    002014  aa  163 164 000 000
    002015  55   001022 001010
    002016  0a   000546 400000
    002017  55   001020 000003
    002020  aa  004 154 063 162         l3r0
    002021  aa  060 000 000 000
    002022  55   001027 001015
    002023  0a   000545 400000
    002024  55   001025 000003
    002025  aa  004 154 062 162         l2r0
    002026  aa  060 000 000 000
    002027  55   001034 001022
    002030  0a   000544 400000
    002031  55   001032 000003
    002032  aa  004 154 061 162         l1r0
    002033  aa  060 000 000 000
    002034  55   001041 001027
    002035  0a   000543 400000
    002036  55   001037 000003
    002037  aa  004 154 060 162         l0r0
    002040  aa  060 000 000 000
    002041  55   001046 001034
    002042  0a   000542 400000
    002043  55   001044 000003
    002044  aa  004 151 156 157         inot
    002045  aa  164 000 000 000
    002046  55   001053 001041
    002047  0a   000541 400000
    002050  55   001051 000003
    002051  aa  004 151 156 145         ineg
    002052  aa  147 000 000 000
    002053  55   001060 001046
    002054  0a   000540 400000
    002055  55   001056 000003
    002056  aa  005 151 154 145         ilend
    002057  aa  156 144 000 000
    002060  55   001065 001053
    002061  0a   000537 400000
    002062  55   001063 000003
    002063  aa  006 164 167 157         twop18
    002064  aa  160 061 070 000
    002065  55   001071 001060
    002066  0a   000536 400000
    002067  55   001070 000003
    002070  aa  003 162 150 157         rho
    002071  55   001076 001065
    002072  0a   000531 400000
    002073  55   001074 000003
    002074  aa  005 164 171 160         typr2
    002075  aa  162 062 000 000
    002076  55   001103 001071
    002077  0a   000527 400000
    002100  55   001101 000003
    002101  aa  006 142 154 141         blanks
    002102  aa  156 153 163 000
    002103  55   001110 001076
    002104  0a   000524 400000
    002105  55   001106 000003
    002106  aa  006 151 163 171         isynam
    002107  aa  156 141 155 000
    002110  55   001115 001103
    002111  0a   000521 400000
    002112  55   001113 000003
    002113  aa  006 151 154 153         ilknam
    002114  aa  156 141 155 000
    002115  55   001122 001110
    002116  0a   000516 400000
    002117  55   001120 000003
    002120  aa  006 151 164 170         itxnam
    002121  aa  156 141 155 000
    002122  55   001127 001115
    002123  0a   000511 400000
    002124  55   001125 000003
    002125  aa  006 145 156 164         entseq
    002126  aa  163 145 161 000
    002127  55   001134 001122
    002130  0a   000505 400000
    002131  55   001132 000003
    002132  aa  006 143 141 154         calseq
    002133  aa  163 145 161 000
    002134  55   001141 001127
    002135  0a   000501 400000
    002136  55   001137 000003
    002137  aa  005 163 164 156         stnam
    002140  aa  141 155 000 000
    002141  55   001146 001134
    002142  0a   000500 400000
    002143  55   001144 000003
    002144  aa  005 155 145 141         meax7
    002145  aa  170 067 000 000
    002146  55   001153 001141
    002147  0a   000477 400000
    002150  55   001151 000003
    002151  aa  005 155 145 141         meax0
    002152  aa  170 060 000 000
    002153  55   001160 001146
    002154  0a   000476 400000
    002155  55   001156 000003
    002156  aa  004 155 141 157         maos
    002157  aa  163 000 000 000
    002160  55   001164 001153
    002161  0a   000475 400000
    002162  55   001163 000003
    002163  aa  003 155 170 067         mx7
    002164  55   001171 001160
    002165  0a   000474 400000
    002166  55   001167 000003
    002167  aa  005 155 163 164         mstaq
    002170  aa  141 161 000 000
    002171  55   001176 001164
    002172  0a   000471 400000
    002173  55   001174 000003
    002174  aa  006 165 156 167         unwind
    002175  aa  151 156 144 000
    002176  55   001204 001171
    002177  0a   000467 400000
    002200  55   001201 000003
    002201  aa  010 151 162 145         irestore
    002202  aa  163 164 157 162
    002203  aa  145 000 000 000
    002204  55   001211 001176
    002205  0a   000465 400000
    002206  55   001207 000003
    002207  aa  005 151 163 141         isave
    002210  aa  166 145 000 000
    002211  55   001216 001204
    002212  0a   000463 400000
    002213  55   001214 000003
    002214  aa  007 151 157 142         iobject
    002215  aa  152 145 143 164
    002216  55   001223 001211
    002217  0a   000462 400000
    002220  55   001221 000003
    002221  aa  004 151 157 146         ioff
    002222  aa  146 000 000 000
    002223  55   001227 001216
    002224  0a   000461 400000
    002225  55   001226 000003
    002226  aa  003 151 157 156         ion
    002227  55   001236 001223
    002230  2a   000013 400001
    002231  55   001232 000003
    002232  aa  016 145 156 164         entrybound_bit
    002233  aa  162 171 142 157
    002234  aa  165 156 144 137
    002235  aa  142 151 164 000
    002236  55   001244 001227
    002237  2a   000012 400001
    002240  55   001241 000003
    002241  aa  013 145 156 164         entry_bound
    002242  aa  162 171 137 142
    002243  aa  157 165 156 144
    002244  55   001253 001236
    002245  2a   000011 400001
    002246  55   001247 000003
    002247  aa  017 163 145 160         separate_static
    002250  aa  141 162 141 164
    002251  aa  145 137 163 164
    002252  aa  141 164 151 143
    002253  55   001261 001244
    002254  2a   000010 400001
    002255  55   001256 000003
    002256  aa  010 163 164 141         stat_len
    002257  aa  164 137 154 145
    002260  aa  156 000 000 000
    002261  55   001266 001253
    002262  0a   000460 400000
    002263  55   001264 000003
    002264  aa  005 151 144 145         idefs
    002265  aa  146 163 000 000
    002266  55   001273 001261
    002267  0a   000457 400000
    002270  55   001271 000003
    002271  aa  007 151 163 164         istatic
    002272  aa  141 164 151 143
    002273  55   001300 001266
    002274  0a   000456 400000
    002275  55   001276 000003
    002276  aa  004 151 163 171         isym
    002277  aa  155 000 000 000
    002300  55   001305 001273
    002301  0a   000455 400000
    002302  55   001303 000003
    002303  aa  005 151 154 151         ilink
    002304  aa  156 153 000 000
    002305  55   001312 001300
    002306  0a   000454 400000
    002307  55   001310 000003
    002310  aa  005 151 164 145         itext
    002311  aa  170 164 000 000
    002312  55   001317 001305
    002313  0a   000451 400000
    002314  55   001315 000003
    002315  aa  005 141 144 145         adef2
    002316  aa  146 062 000 000
    002317  55   001325 001312
    002320  0a   000447 400000
    002321  55   001322 000003
    002322  aa  010 141 163 171         asystem2
    002323  aa  163 164 145 155
    002324  aa  062 000 000 000
    002325  55   001333 001317
    002326  0a   000445 400000
    002327  55   001330 000003
    002330  aa  010 141 163 164         astatic2
    002331  aa  141 164 151 143
    002332  aa  062 000 000 000
    002333  55   001340 001325
    002334  0a   000443 400000
    002335  55   001336 000003
    002336  aa  005 141 163 171         asym2
    002337  aa  155 062 000 000
    002340  55   001345 001333
    002341  0a   000441 400000
    002342  55   001343 000003
    002343  aa  006 141 154 151         alink2
    002344  aa  156 153 062 000
    002345  55   001352 001340
    002346  0a   000437 400000
    002347  55   001350 000003
    002350  aa  006 141 164 145         atext2
    002351  aa  170 164 062 000
    002352  55   001357 001345
    002353  0a   000435 400000
    002354  55   001355 000003
    002355  aa  005 141 150 145         aheap
    002356  aa  141 160 000 000
    002357  55   001364 001352
    002360  0a   000433 400000
    002361  55   001362 000003
    002362  aa  004 141 163 171         asys
    002363  aa  163 000 000 000
    002364  55   001371 001357
    002365  0a   000431 400000
    002366  55   001367 000003
    002367  aa  005 141 163 164         astat
    002370  aa  141 164 000 000
    002371  55   001376 001364
    002372  0a   000425 400000
    002373  55   001374 000003
    002374  aa  004 141 163 171         asym
    002375  aa  155 000 000 000
    002376  55   001403 001371
    002377  0a   000423 400000
    002400  55   001401 000003
    002401  aa  005 141 154 151         alink
    002402  aa  156 153 000 000
    002403  55   001410 001376
    002404  0a   000421 400000
    002405  55   001406 000003
    002406  aa  005 141 164 145         atext
    002407  aa  170 164 000 000
    002410  55   001415 001403
    002411  0a   000421 400000
    002412  55   001413 000003
    002413  aa  006 141 156 141         anames
    002414  aa  155 145 163 000
    002415  55   001423 001410
    002416  0a   000417 400000
    002417  55   001420 000003
    002420  aa  012 156 145 167         new_ngetlp
    002421  aa  137 156 147 145
    002422  aa  164 154 160 000
    002423  55   001431 001415
    002424  0a   000417 400000
    002425  55   001426 000003
    002426  aa  011 156 145 167         new_getlp
    002427  aa  137 147 145 164
    002430  aa  154 160 000 000
    002431  55   001440 001423
    002432  0a   000415 400000
    002433  55   001434 000003
    002434  aa  014 163 150 157         short_nretls
    002435  aa  162 164 137 156
    002436  aa  162 145 164 154
    002437  aa  163 000 000 000
    002440  55   001447 001431
    002441  0a   000415 400000
    002442  55   001443 000003
    002443  aa  014 163 150 157         short_retlst
    002444  aa  162 164 137 162
    002445  aa  145 164 154 163
    002446  aa  164 000 000 000
    002447  55   001455 001440
    002450  0a   000413 400000
    002451  55   001452 000003
    002452  aa  012 156 145 167         new_nretls
    002453  aa  137 156 162 145
    002454  aa  164 154 163 000
    002455  55   001463 001447
    002456  0a   000413 400000
    002457  55   001460 000003
    002460  aa  012 156 145 167         new_retlst
    002461  aa  137 162 145 164
    002462  aa  154 163 164 000
    002463  55   001470 001455
    002464  0a   000407 400000
    002465  55   001466 000003
    002466  aa  006 156 162 145         nretls
    002467  aa  164 154 163 000
    002470  55   001475 001463
    002471  0a   000407 400000
    002472  55   001473 000003
    002473  aa  006 162 145 164         retlst
    002474  aa  154 163 164 000
    002475  55   001502 001470
    002476  0a   000404 400000
    002477  55   001500 000003
    002500  aa  006 156 155 170         nmxsav
    002501  aa  163 141 166 000
    002502  55   001507 001475
    002503  0a   000404 400000
    002504  55   001505 000003
    002505  aa  006 155 170 163         mxsave
    002506  aa  141 166 145 000
    002507  55   001514 001502
    002510  0a   000354 400000
    002511  55   001512 000003
    002512  aa  006 162 145 154         relbit
    002513  aa  142 151 164 000
    002514  55   001521 001507
    002515  0a   000154 400000
    002516  55   001517 000003
    002517  aa  006 143 157 144         codtab
    002520  aa  164 141 142 000
    002521  55   001525 001514
    002522  0a   000153 400000
    002523  55   001524 000003
    002524  aa  003 151 142 066         ib6
    002525  55   001532 001521
    002526  0a   000051 400000
    002527  55   001530 000003
    002530  aa  005 142 141 163         bases
    002531  aa  145 163 000 000
    002532  55   001537 001525
    002533  0a   000001 400000
    002534  55   001535 000003
    002535  aa  006 143 157 156         concom
    002536  aa  143 157 155 000
    002537  55   001545 001532
    002540  0a   000000 400000
    002541  55   001542 000003
    002542  aa  013 166 141 162         varcom_size
    002543  aa  143 157 155 137
    002544  aa  163 151 172 145
    002545  55   000002 001537
    002546  6a   000000 400002
    002547  55   001550 000003
    002550  aa  014 163 171 155         symbol_table
    002551  aa  142 157 154 137
    002552  aa  164 141 142 154
    002553  aa  145 000 000 000

DEFINITIONS HASH TABLE

    002554  aa   000000 000463
    002555  5a   000175 000000
    002556  5a   000242 000000
    002557  5a   000247 000000
    002560  5a   000254 000000
    002561  5a   000710 000000
    002562  5a   000215 000000
    002563  5a   000652 000000
    002564  5a   001115 000000
    002565  5a   001216 000000
    002566  5a   000715 000000
    002567  5a   001470 000000
    002570  5a   001545 000000
    002571  aa   000000 000000
    002572  aa   000000 000000
    002573  aa   000000 000000
    002574  5a   000530 000000
    002575  5a   000664 000000
    002576  5a   000671 000000
    002577  5a   000722 000000
    002600  5a   001463 000000
    002601  aa   000000 000000
    002602  aa   000000 000000
    002603  5a   001065 000000
    002604  aa   000000 000000
    002605  5a   000645 000000
    002606  5a   000576 000000
    002607  5a   000621 000000
    002610  aa   000000 000000
    002611  5a   000157 000000
    002612  5a   000336 000000
    002613  aa   000000 000000
    002614  aa   000000 000000
    002615  aa   000000 000000
    002616  aa   000000 000000
    002617  aa   000000 000000
    002620  aa   000000 000000
    002621  aa   000000 000000
    002622  aa   000000 000000
    002623  aa   000000 000000
    002624  5a   001160 000000
    002625  aa   000000 000000
    002626  aa   000000 000000
    002627  aa   000000 000000
    002630  aa   000000 000000
    002631  5a   000234 000000
    002632  aa   000000 000000
    002633  aa   000000 000000
    002634  aa   000000 000000
    002635  5a   000612 000000
    002636  5a   000417 000000
    002637  5a   000431 000000
    002640  aa   000000 000000
    002641  5a   001141 000000
    002642  5a   001146 000000
    002643  aa   000000 000000
    002644  aa   000000 000000
    002645  aa   000000 000000
    002646  aa   000000 000000
    002647  aa   000000 000000
    002650  aa   000000 000000
    002651  5a   001176 000000
    002652  5a   001376 000000
    002653  aa   000000 000000
    002654  aa   000000 000000
    002655  5a   000166 000000
    002656  5a   001502 000000
    002657  aa   000000 000000
    002660  aa   000000 000000
    002661  aa   000000 000000
    002662  aa   000000 000000
    002663  aa   000000 000000
    002664  aa   000000 000000
    002665  aa   000000 000000
    002666  aa   000000 000000
    002667  aa   000000 000000
    002670  aa   000000 000000
    002671  5a   000070 000000
    002672  5a   000266 000000
    002673  5a   000300 000000
    002674  5a   000561 000000
    002675  5a   001003 000000
    002676  5a   000047 000000
    002677  5a   000317 000000
    002700  5a   000542 000000
    002701  5a   001153 000000
    002702  5a   001514 000000
    002703  aa   000000 000000
    002704  5a   000062 000000
    002705  5a   000134 000000
    002706  aa   000000 000000
    002707  5a   001532 000000
    002710  5a   000125 000000
    002711  5a   000312 000000
    002712  5a   000324 000000
    002713  5a   001053 000000
    002714  aa   000000 000000
    002715  5a   001300 000000
    002716  5a   001010 000000
    002717  5a   000150 000000
    002720  5a   001027 000000
    002721  5a   001423 000000
    002722  aa   000000 000000
    002723  aa   000000 000000
    002724  5a   001103 000000
    002725  5a   001046 000000
    002726  5a   001537 000000
    002727  aa   000000 000000
    002730  aa   000000 000000
    002731  aa   000000 000000
    002732  aa   000000 000000
    002733  5a   001076 000000
    002734  aa   000000 000000
    002735  aa   000000 000000
    002736  aa   000000 000000
    002737  5a   000657 000000
    002740  5a   000740 000000
    002741  5a   000745 000000
    002742  5a   000752 000000
    002743  5a   001041 000000
    002744  aa   000000 000000
    002745  aa   000000 000000
    002746  aa   000000 000000
    002747  aa   000000 000000
    002750  aa   000000 000000
    002751  aa   000000 000000
    002752  aa   000000 000000
    002753  5a   000331 000000
    002754  5a   001253 000000
    002755  aa   000000 000000
    002756  5a   000521 000000
    002757  5a   001122 000000
    002760  aa   000000 000000
    002761  aa   000000 000000
    002762  aa   000000 000000
    002763  aa   000000 000000
    002764  aa   000000 000000
    002765  aa   000000 000000
    002766  aa   000000 000000
    002767  aa   000000 000000
    002770  5a   000603 000000
    002771  aa   000000 000000
    002772  aa   000000 000000
    002773  aa   000000 000000
    002774  aa   000000 000000
    002775  aa   000000 000000
    002776  aa   000000 000000
    002777  aa   000000 000000
    003000  aa   000000 000000
    003001  5a   000475 000000
    003002  aa   000000 000000
    003003  aa   000000 000000
    003004  aa   000000 000000
    003005  5a   001340 000000
    003006  aa   000000 000000
    003007  aa   000000 000000
    003010  aa   000000 000000
    003011  aa   000000 000000
    003012  aa   000000 000000
    003013  5a   001352 000000
    003014  5a   001244 000000
    003015  aa   000000 000000
    003016  5a   000547 000000
    003017  5a   001403 000000
    003020  aa   000000 000000
    003021  5a   000400 000000
    003022  aa   000000 000000
    003023  aa   000000 000000
    003024  aa   000000 000000
    003025  aa   000000 000000
    003026  aa   000000 000000
    003027  aa   000000 000000
    003030  aa   000000 000000
    003031  aa   000000 000000
    003032  5a   001134 000000
    003033  aa   000000 000000
    003034  aa   000000 000000
    003035  aa   000000 000000
    003036  aa   000000 000000
    003037  5a   000053 000000
    003040  5a   000101 000000
    003041  5a   001164 000000
    003042  aa   000000 000000
    003043  5a   000116 000000
    003044  aa   000000 000000
    003045  aa   000000 000000
    003046  aa   000000 000000
    003047  aa   000000 000000
    003050  aa   000000 000000
    003051  5a   000343 000000
    003052  5a   000351 000000
    003053  5a   000357 000000
    003054  5a   000365 000000
    003055  5a   000454 000000
    003056  5a   000436 000000
    003057  5a   000445 000000
    003060  5a   000011 000000
    003061  5a   000462 000000
    003062  5a   001110 000000
    003063  5a   001266 000000
    003064  5a   001034 000000
    003065  5a   001015 000000
    003066  5a   001305 000000
    003067  5a   001357 000000
    003070  5a   001171 000000
    003071  5a   001371 000000
    003072  5a   000210 000000
    003073  5a   001415 000000
    003074  5a   001431 000000
    003075  5a   000022 000000
    003076  5a   001440 000000
    003077  5a   000703 000000
    003100  5a   001447 000000
    003101  5a   001455 000000
    003102  aa   000000 000000
    003103  aa   000000 000000
    003104  aa   000000 000000
    003105  5a   000727 000000
    003106  5a   000261 000000
    003107  5a   000273 000000
    003110  aa   000000 000000
    003111  5a   000626 000000
    003112  5a   000633 000000
    003113  aa   000000 000000
    003114  5a   000110 000000
    003115  aa   000000 000000
    003116  aa   000000 000000
    003117  aa   000000 000000
    003120  5a   000373 000000
    003121  5a   000470 000000
    003122  5a   001223 000000
    003123  5a   001273 000000
    003124  aa   000000 000000
    003125  5a   001060 000000
    003126  aa   000000 000000
    003127  aa   000000 000000
    003130  aa   000000 000000
    003131  aa   000000 000000
    003132  5a   000412 000000
    003133  5a   000424 000000
    003134  5a   001475 000000
    003135  5a   001525 000000
    003136  aa   000000 000000
    003137  aa   000000 000000
    003140  aa   000000 000000
    003141  5a   001227 000000
    003142  5a   001071 000000
    003143  5a   001325 000000
    003144  5a   001410 000000
    003145  aa   000000 000000
    003146  aa   000000 000000
    003147  5a   001317 000000
    003150  aa   000000 000000
    003151  5a   000535 000000
    003152  5a   001345 000000
    003153  aa   000000 000000
    003154  aa   000000 000000
    003155  aa   000000 000000
    003156  aa   000000 000000
    003157  aa   000000 000000
    003160  5a   001312 000000
    003161  aa   000000 000000
    003162  aa   000000 000000
    003163  5a   000554 000000
    003164  aa   000000 000000
    003165  aa   000000 000000
    003166  5a   000031 000000
    003167  aa   000000 000000
    003170  aa   000000 000000
    003171  aa   000000 000000
    003172  5a   001521 000000
    003173  aa   000000 000000
    003174  aa   000000 000000
    003175  5a   001211 000000
    003176  aa   000000 000000
    003177  aa   000000 000000
    003200  aa   000000 000000
    003201  aa   000000 000000
    003202  aa   000000 000000
    003203  5a   000502 000000
    003204  5a   000227 000000
    003205  5a   000777 000000
    003206  5a   001236 000000
    003207  5a   001364 000000
    003210  aa   000000 000000
    003211  5a   001333 000000
    003212  5a   000734 000000
    003213  5a   000773 000000
    003214  5a   000514 000000
    003215  5a   001127 000000
    003216  aa   000000 000000
    003217  5a   000767 000000
    003220  5a   000405 000000
    003221  5a   000222 000000
    003222  5a   000676 000000
    003223  5a   000640 000000
    003224  5a   000763 000000
    003225  5a   001204 000000
    003226  5a   001261 000000
    003227  5a   001507 000000
    003230  5a   000203 000000
    003231  5a   000757 000000
    003232  5a   000305 000000
    003233  5a   001022 000000
    003234  5a   000507 000000
    003235  5a   000041 000000
    003236  5a   000142 000000
    003237  5a   000567 000000

NO EXTERNAL NAMES

NO TRAP POINTER WORDS

TYPE PAIR BLOCKS

    003240  aa   000001 000000
    003241  aa   000000 000000

INTERNAL EXPRESSION WORDS

LINKAGE INFORMATION

    000000  aa   000000 000000
    000001  0a   001000 000000
    000002  aa   000000 000000
    000003  aa   000000 000000
    000004  aa   000000 000000
    000005  aa   000000 000000
    000006  22   002110 002110
    000007  a2   000000 002100
SYMBOL INFORMATION

SYMBOL TABLE HEADER

    000000  aa   000000 000001
    000001  aa   163171 155142
    000002  aa   164162 145145
    000003  aa   000000 000007
    000004  aa   000000 115705
    000005  aa   073761 335527
    000006  aa   000000 116574
    000007  aa   773450 111241
    000010  aa   141154 155040
    000011  aa   040040 040040
    000012  aa   000024 000040
    000013  aa   000034 000040
    000014  aa   000044 000100
    000015  aa   000002 000002
    000016  aa   000064 000000
    000017  aa   000000 000545
    000020  aa   000000 000117
    000021  aa   000256 000156
    000022  aa   000536 000117
    000023  aa   000064 000000
    000024  aa   101114 115040
    000025  aa   126145 162163
    000026  aa   151157 156040
    000027  aa   067056 064040
    000030  aa   101160 162151
    000031  aa   154040 061071
    000032  aa   070067 040040
    000033  aa   040040 040040
    000034  aa   110151 162156
    000035  aa   145151 163145
    000036  aa   156056 123171
    000037  aa   163115 141151
    000040  aa   156164 056141
    000041  aa   040040 040040
    000042  aa   040040 040040
    000043  aa   040040 040040
    000044  aa   055164 141162
    000045  aa   147145 164040
    000046  aa   154066 070040
    000047  aa   040040 040040
    000050  aa   040040 040040
    000051  aa   040040 040040
    000052  aa   040040 040040
    000053  aa   040040 040040
    000054  aa   040040 040040
    000055  aa   040040 040040
    000056  aa   040154 151163
    000057  aa   164040 163171
    000060  aa   155142 157154
    000061  aa   163040 040040
    000062  aa   040040 040040
    000063  aa   040040 040040
    000064  aa   000000 000001
    000065  aa   000000 000002
    000066  aa   000076 000037
    000067  aa   165715 122705
    000070  aa   000000 116574
    000071  aa   771551 600000
    000072  aa   000106 000042
    000073  aa   147777 464111
    000074  aa   000000 115000
    000075  aa   507463 000000
    000076  aa   076163 160145          >spec>install>1170>eb_data_.alm
    000077  aa   143076 151156
    000100  aa   163164 141154
    000101  aa   154076 061061
    000102  aa   067060 076145
    000103  aa   142137 144141
    000104  aa   164141 137056
    000105  aa   141154 155040
    000106  aa   076154 144144          >ldd>include>stack_header.incl.alm
    000107  aa   076151 156143
    000110  aa   154165 144145
    000111  aa   076163 164141
    000112  aa   143153 137150
    000113  aa   145141 144145
    000114  aa   162056 151156
    000115  aa   143154 056141
    000116  aa   154155 040040
               MULTICS ASSEMBLY CROSS REFERENCE LISTING

   Value        Symbol                   Source file   Line number

        1222    abort_assembly           eb_data_:     874,  875.
         451    adef2                    eb_data_:     372,  378.
         435    aheap                    eb_data_:     363,  371.
         423    alink                    eb_data_:     363,  366.
         441    alink2                   eb_data_:     372,  374.
          50    allsev                   eb_data_:      98.
        1247    alm_arg_count            eb_data_:     908,  909.
        1236    alm_arg_ptr              eb_data_:     888,  889.
        2073    alm_options              eb_data_:     930,  931.
         421    anames                   eb_data_:     363,  364.
         431    astat                    eb_data_:     363,  369.
         445    astatic2                 eb_data_:     372,  376.
         425    asym                     eb_data_:     363,  367.
         443    asym2                    eb_data_:     372,  375.
         433    asys                     eb_data_:     363,  370.
         447    asystem2                 eb_data_:     372,  377.
         421    atext                    eb_data_:     363,  365.
         437    atext2                   eb_data_:     372,  373.
          51    bases                    eb_data_:      99,  100.
           1    basnos                   eb_data_:      66.
         751    bcd_table                eb_data_:     556,  557.
         527    blanks                   eb_data_:     434,  435.
        1170    call_offset              stack_header:        80.
         505    calseq                   eb_data_:     422,  423.
          14    clbas                    eb_data_:      70.
          13    clext                    eb_data_:      69.
          12    clint                    eb_data_:      68.
          17    clmlc                    eb_data_:      73.
          16    clndx                    eb_data_:      72.
        1176    clruc                    eb_data_:     861.
          15    clstk                    eb_data_:      71.
          11    clunk                    eb_data_:      67.
         154    codtab                   eb_data_:     172,  173.
           1    concom                   eb_data_:      64,   65.
        1176    curlc                    eb_data_:     859,  860.
        1233    curr_char_no             eb_data_:     880,  881.
        2072    dig                      eb_data_:     926,  927.
         150    dzero                    eb_data_:     164.
         715    eis_flag_keys            eb_data_:     532,  533.
         734    eis_mf                   eb_data_:     532,  541.
         726    eis_value_keys           eb_data_:     532,  537.
         626    end_itlist               eb_data_:     479,  495.
         556    end_varcom               eb_data_:      62,  577.
          13    entrybound_bit           eb_data_:     399,  400.
          12    entry_bound              eb_data_:     396,  397.
        1174    entry_offset             stack_header:        84.
         511    entseq                   eb_data_:     425,  426.
         623    erflgs                   eb_data_:     588,  589.
         623    erflgs_overlay           eb_data_:     588,  590.
        1104    ertlst                   eb_data_:     763,  764.
          25    fabs                     eb_data_:      79.
          35    fbasrf                   eb_data_:      87.
          26    fbol                     eb_data_:      80.
          33    fbolrf                   eb_data_:      85.
          27    fcom                     eb_data_:      81.
          20    fdef                     eb_data_:      74.
          32    fequrf                   eb_data_:      84.
          30    find                     eb_data_:      82.
          46    fivsev                   eb_data_:      96.
         623    flgvec                   eb_data_:     588,  591.
          31    flocrf                   eb_data_:      83.
          41    fmlcrf                   eb_data_:      91.
          40    fndxrf                   eb_data_:      90.
          21    fnul                     eb_data_:      75.
          45    forsev                   eb_data_:      95.
          22    fphs                     eb_data_:      76.
          24    frel                     eb_data_:      78.
          36    fsegrf                   eb_data_:      88.
          23    fset                     eb_data_:      77.
          34    fsetrf                   eb_data_:      86.
          37    fsthof                   eb_data_:      89.
        1167    gralal                   eb_data_:     851.
         133    i1542                    eb_data_:     151.
         135    i3333                    eb_data_:     153.
         134    i642                     eb_data_:     152.
         136    i66                      eb_data_:     154.
         354    iabsol                   eb_data_:     307.
         106    iaccvl                   eb_data_:     130.
         107    iacivl                   eb_data_:     131.
         641    iasc                     eb_data_:     498,  509.
          76    iassgn                   eb_data_:     122.
         153    ib6                      eb_data_:     168,  169.
         137    ibb                      eb_data_:     158.
         401    ibits                    eb_data_:     328.
         140    ibsp                     eb_data_:     159.
         636    ibtb                     eb_data_:     497,  506.
         640    ibtp                     eb_data_:     497,  508.
         637    ibts                     eb_data_:     497,  507.
         104    ibvrvl                   eb_data_:     128.
         105    ibvrvp                   eb_data_:     129.
         362    idefpt                   eb_data_:     313.
         460    idefs                    eb_data_:     383,  388.
         651    ierr                     eb_data_:     499,  517.
         374    iescap                   eb_data_:     323.
         652    iflt                     eb_data_:     499,  518.
         642    ifxd                     eb_data_:     498,  510.
         643    iint                     eb_data_:     498,  511.
         647    iitb                     eb_data_:     499,  515.
         650    iits                     eb_data_:     499,  516.
         365    ilblok                   eb_data_:     316.
         400    ildefs                   eb_data_:     327.
         540    ilend                    eb_data_:     448,  449.
         455    ilink                    eb_data_:     383,  385.
         521    ilknam                   eb_data_:     428,  430.
         361    ilkptr                   eb_data_:     312.
         376    illink                   eb_data_:     325.
         377    ilsymb                   eb_data_:     326.
         375    iltext                   eb_data_:     324.
         646    imach                    eb_data_:     498,  514.
         366    imblok                   eb_data_:     317.
         360    imlink                   eb_data_:     311.
          10    impure                   eb_data_:      52,  390,  566,  568,  580,  583,  587,  593,  598,  604,  632,  648,
                                                       660,  738,  762,  778,  783,  789,  795,  801,  807,  813,  819,  825,
                                                       831,  837,  848,  853,  858,  866,  867,  948.
         364    imsymb                   eb_data_:     315.
         356    imtext                   eb_data_:     309.
        1242    include_control          eb_data_:     900,  901.
        1241    include_number           eb_data_:     896,  897.
         541    ineg                     eb_data_:     450,  451.
         542    inot                     eb_data_:     450,  452.
          75    intern                   eb_data_:     121.
         102    invrvl                   eb_data_:     126.
         103    invrvp                   eb_data_:     127.
         463    iobject                  eb_data_:     406,  409.
         644    ioct                     eb_data_:     498,  512.
         462    ioff                     eb_data_:     406,  408.
         461    ion                      eb_data_:     406,  407.
         653    ipads                    eb_data_:     520,  521.
         467    irestore                 eb_data_:     406,  411.
         370    iresv1                   eb_data_:     319.
         371    iresv2                   eb_data_:     320.
         372    iresv3                   eb_data_:     321.
         373    iresv4                   eb_data_:     322.
         465    isave                    eb_data_:     406,  410.
         367    iselfr                   eb_data_:     318.
          77    iserch                   eb_data_:     123.
         457    istatic                  eb_data_:     383,  387.
         456    isym                     eb_data_:     383,  386.
         363    isymbl                   eb_data_:     314.
         524    isynam                   eb_data_:     428,  431.
         454    itext                    eb_data_:     383,  384.
         567    itlist_                  eb_data_:     478,  479.
         516    itxnam                   eb_data_:     428,  429.
         645    ivfd                     eb_data_:     498,  513.
          74    ixtern                   eb_data_:     120.
         100    ixvrvl                   eb_data_:     124.
         152    ixvrvl_notag             eb_data_:     165.
         101    ixvrvp                   eb_data_:     125.
         630    jba                      eb_data_:     497,  500.
         635    jbh                      eb_data_:     497,  505.
         631    jbi                      eb_data_:     497,  501.
         632    jbm                      eb_data_:     497,  502.
         633    jbo                      eb_data_:     497,  503.
         634    jbv                      eb_data_:     497,  504.
         543    l0r0                     eb_data_:     454,  455.
         544    l1r0                     eb_data_:     454,  456.
         545    l2r0                     eb_data_:     454,  457.
         546    l3r0                     eb_data_:     454,  458.
        1167    labarg                   eb_data_:     849,  850.
        1226    label_unused             eb_data_:     878.
        1220    lavptr                   eb_data_:     868,  870.
        1144    lccall                   eb_data_:     814,  815.
        1170    lccom                    eb_data_:     854,  855.
        1136    lcdefs                   eb_data_:     802,  803.
        1163    lcentries                eb_data_:     843,  844.
        1123    lchead                   eb_data_:     784,  785.
        1133    lclit                    eb_data_:     796,  797.
        1155    lcrlk                    eb_data_:     832,  833.
        1160    lcrst                    eb_data_:     838,  839.
        1152    lcrtx                    eb_data_:     826,  827.
        1127    lcsect                   eb_data_:     790,  791.
        1147    lcst                     eb_data_:     820,  821.
        1120    lctext                   eb_data_:     779,  780.
        1141    lctv                     eb_data_:     808,  809.
        2104    listing_max_length       eb_data_:     935,  936.
        2105    list_component           eb_data_:     939,  940.
        1144    lpcall                   eb_data_:     816.
        1136    lpdefs                   eb_data_:     804.
        1163    lpentries                eb_data_:     845.
        1123    lphead                   eb_data_:     786.
        1133    lplit                    eb_data_:     798.
        1155    lprlk                    eb_data_:     834.
        1160    lprst                    eb_data_:     840.
        1152    lprtx                    eb_data_:     828.
        1127    lpsect                   eb_data_:     792.
        1147    lpst                     eb_data_:     822.
        1120    lptext                   eb_data_:     781.
        1141    lptv                     eb_data_:     810.
         667    lstcom                   eb_data_:     594,  595.
        1240    macro_depth              eb_data_:     892,  893.
        2071    macro_linect             eb_data_:     920,  921.
        1250    macro_listing_control    eb_data_:     912,  913.
        1251    macro_stack              eb_data_:     916,  917.
         476    maos                     eb_data_:     414,  417.
         655    mb28                     eb_data_:     524,  526.
         656    mb29                     eb_data_:     524,  527.
         110    mcmpq                    eb_data_:     132.
         111    mcmpx0                   eb_data_:     133.
          64    mdl                      eb_data_:     112.
          63    mdu                      eb_data_:     111.
         122    meabsp                   eb_data_:     142.
         123    meapap                   eb_data_:     143.
         124    meapbp                   eb_data_:     144.
         125    meaplp                   eb_data_:     145.
         126    meapsp                   eb_data_:     146.
         477    meax0                    eb_data_:     414,  418.
         500    meax7                    eb_data_:     414,  419.
        1005    merbit                   eb_data_:     699.
        1246    mexp_argno               eb_data_:     904,  905.
        1234    mexp_env_ptr             eb_data_:     884,  885.
          71    mfi                      eb_data_:     117.
          61    mir                      eb_data_:     109.
          73    mitb                     eb_data_:     119.
          72    mits                     eb_data_:     118.
         112    mldaq                    eb_data_:     134.
         113    mldq                     eb_data_:     135.
         114    mldx0                    eb_data_:     136.
         115    mnopdu                   eb_data_:     137.
        1170    moccl                    eb_data_:     856.
          67    mpc                      eb_data_:     115.
          70    mpci                     eb_data_:     116.
          62    mri                      eb_data_:     110.
        1002    mrtbit                   eb_data_:     696.
         774    mslbit                   eb_data_:     690.
         474    mstaq                    eb_data_:     414,  415.
         116    mstcd                    eb_data_:     138.
         127    mstpap                   eb_data_:     147.
         130    mstpbp                   eb_data_:     148.
         131    mstplp                   eb_data_:     149.
         132    mstpsp                   eb_data_:     150.
         120    mtnc                     eb_data_:     140.
         121    mtnz                     eb_data_:     141.
         117    mtra                     eb_data_:     139.
          66    mx1                      eb_data_:     114.
         475    mx7                      eb_data_:     414,  416.
         715    mxcall                   eb_data_:     633,  634.
         750    mxcbit                   eb_data_:     670.
         731    mxclbk                   eb_data_:     649,  650.
         763    mxlbit                   eb_data_:     681.
          65    mxo                      eb_data_:     113.
         741    mxpbit                   eb_data_:     663.
         670    mxpro                    eb_data_:     599,  600.
         404    mxsave                   eb_data_:     333,  334.
         772    mxsbit                   eb_data_:     688.
        1104    nertls                   eb_data_:     763,  765.
        1046    new_entbit               eb_data_:     726.
        1100    new_entlst               eb_data_:     755,  756.
        1061    new_getbit               eb_data_:     734.
         417    new_getlp                eb_data_:     357,  359.
        1020    new_mrtbit               eb_data_:     711.
        1023    new_mslbit               eb_data_:     713.
        1100    new_nentls               eb_data_:     755,  757.
         417    new_ngetlp               eb_data_:     357,  358.
         413    new_nretls               eb_data_:     347,  349.
        1031    new_nslbit               eb_data_:     716.
         701    new_nslcal               eb_data_:     614,  616.
        1075    new_nslsav               eb_data_:     749,  750.
         413    new_retlst               eb_data_:     347,  348.
         701    new_slcall               eb_data_:     614,  615.
        1075    new_slsave               eb_data_:     749,  751.
         654    nlpads                   eb_data_:     520,  522.
         715    nmxcal                   eb_data_:     633,  635.
         731    nmxclb                   eb_data_:     649,  651.
         404    nmxsav                   eb_data_:     333,  335.
         407    nretls                   eb_data_:     340,  342.
         743    nslbit                   eb_data_:     665.
         673    nslcal                   eb_data_:     605,  607.
        1066    nslsav                   eb_data_:     739,  741.
         141    null                     eb_data_:     160.
         556    objnfo                   eb_data_:     581,  582.
          42    onesev                   eb_data_:      92.
        1177    oulst                    eb_data_:     863,  864.
        2106    per_process_static_sw    eb_data_:     943,  944.
           0    pure                     eb_data_:      51,   60,   63,  167,  170,  171,  304,  332,  339,  362,  382,  405,  947.
        1171    push_offset              stack_header:        81.
         354    relbit                   eb_data_:     305,  306.
         741    relocn                   eb_data_:     661,  662.
         407    retlst                   eb_data_:     340,  341.
        1173    return_no_pop_offset     stack_header:        83.
        1172    return_offset            stack_header:        82.
         536    rho                      eb_data_:     444,  445.
         547    rlist                    eb_data_:     460,  461.
         742    rpt_terminators          eb_data_:     546,  547.
         606    segnfo                   eb_data_:     584,  586.
         144    sentry                   eb_data_:     162.
          11    separate_static          eb_data_:     393,  394.
        1043    short_mrtbit             eb_data_:     724.
         415    short_nretls             eb_data_:     352,  354.
        1053    short_nslbit             eb_data_:     730.
         711    short_nslcal             eb_data_:     625,  627.
         415    short_retlst             eb_data_:     352,  353.
         711    short_slcall             eb_data_:     625,  626.
          47    sixsev                   eb_data_:      97.
         673    slcall                   eb_data_:     605,  606.
        1066    slsave                   eb_data_:     739,  740.
         142    smxer                    eb_data_:     161.
         146    sretrn                   eb_data_:     163.
          73    stach_header.trace_top_ptr     stack_header:        62.
          66    stack_header.assign_linkage_ptr      stack_header:        59.
          32    stack_header.bar_mode_sp       stack_header:        42.
          36    stack_header.call_op_ptr       eb_data_:     621,  629,
                                               stack_header:        44.
          10    stack_header.clr_ptr     stack_header:        27.
           6    stack_header.combined_stat_ptr       stack_header:        25.
           4    stack_header.cpm_data_ptr      stack_header:        24.
          13    stack_header.cpm_enabled       stack_header:        32.
          13    stack_header.cur_lot_size      stack_header:        31.
          64    stack_header.ect_ptr     stack_header:        58.
          46    stack_header.entry_op_ptr      eb_data_:     360,  759,
                                               stack_header:        49.
          70    stack_header.heap_header_ptr   stack_header:        60.
          74    stack_header.in_trace    stack_header:        63.
          52    stack_header.isot_ptr    stack_header:        52.
          26    stack_header.lot_ptr     stack_header:        39.
          12    stack_header.main_proc_invoked       stack_header:        29.
          12    stack_header.max_lot_size      stack_header:        28.
          20    stack_header.parent_ptr  stack_header:        36.
          34    stack_header.pl1_operators_ptr       stack_header:        43.
          40    stack_header.push_op_ptr       eb_data_:     753,
                                               stack_header:        46.
          42    stack_header.return_op_ptr     eb_data_:     350,
                                               stack_header:        47.
          44    stack_header.ret_no_pop_op_ptr       eb_data_:     355,
                                                     stack_header:        48.
          62    stack_header.rnt_ptr     stack_header:        57.
          12    stack_header.run_unit_depth    stack_header:        30.
          54    stack_header.sct_ptr     stack_header:        53.
          30    stack_header.signal_ptr  stack_header:        41.
          22    stack_header.stack_begin_ptr   stack_header:        37.
          24    stack_header.stack_end_ptr     stack_header:        38.
          14    stack_header.system_free_ptr   stack_header:        33.
          60    stack_header.sys_link_info_ptr       stack_header:        56.
          72    stack_header.trace_frames      stack_header:        61.
          50    stack_header.trans_op_tv_ptr   stack_header:        51.
          56    stack_header.unwinder_ptr      stack_header:        54.
          16    stack_header.user_free_ptr     stack_header:        34.
         100    stack_header_end         stack_header:        64.
          10    stat_len                 eb_data_:     391,  392.
         501    stnam                    eb_data_:     414,  420.
          51    symbas                   eb_data_:     101.
          44    thrsev                   eb_data_:      94.
         667    tnolst                   eb_data_:     596.
           0    trace_frames.count       stack_header:        69.
           1    trace_frames.top_ptr     stack_header:        70.
          20    tsym                     eb_data_:     572,  575.
         551    tv_offset                stack_header:        75,   80,   81,   82,   83,   84.
         537    twop18                   eb_data_:     444,  446.
          43    twosev                   eb_data_:      93.
         531    typr2                    eb_data_:     437,  438.
         471    unwind                   eb_data_:     406,  412.
          14    varcom                   eb_data_:      62,  572,  573.
           0    varcom_size              eb_data_:      61,   62.
          14    var_pad                  eb_data_:     574.
          20    var_pad2                 eb_data_:     576.
        1230    who_am_I                 eb_data_:     874,  879.
         657    zerbuf                   eb_data_:     524,  528.


NO FATAL ERRORS


                                          -----------------------------------------------------------


Historical Background

This edition of the Multics software materials and documentation is provided and donated
to Massachusetts Institute of Technology by Group BULL including BULL HN Information Systems Inc.
as a contribution to computer science knowledge.
This donation is made also to give evidence of the common contributions of Massachusetts Institute of Technology,
Bell Laboratories, General Electric, Honeywell Information Systems Inc., Honeywell BULL Inc., Groupe BULL
and BULL HN Information Systems Inc. to the development of this operating system.
Multics development was initiated by Massachusetts Institute of Technology Project MAC (1963-1970),
renamed the MIT Laboratory for Computer Science and Artificial Intelligence in the mid 1970s, under the leadership
of Professor Fernando Jose Corbato. Users consider that Multics provided the best software architecture
for managing computer hardware properly and for executing programs. Many subsequent operating systems
incorporated Multics principles.
Multics was distributed in 1975 to 2000 by Group Bull in Europe , and in the U.S. by Bull HN Information Systems Inc.,
as successor in interest by change in name only to Honeywell Bull Inc. and Honeywell Information Systems Inc. .

                                          -----------------------------------------------------------

Permission to use, copy, modify, and distribute these programs and their documentation for any purpose and without
fee is hereby granted,provided that the below copyright notice and historical background appear in all copies
and that both the copyright notice and historical background and this permission notice appear in supporting
documentation, and that the names of MIT, HIS, BULL or BULL HN not be used in advertising or publicity pertaining
to distribution of the programs without specific prior written permission.
    Copyright 1972 by Massachusetts Institute of Technology and Honeywell Information Systems Inc.
    Copyright 2006 by BULL HN Information Systems Inc.
    Copyright 2006 by Bull SAS
    All Rights Reserved
