	COMPILATION LISTING OF SEGMENT eval_exp
	Compiled by: Multics PL/I Compiler, Release 28d, of September 14, 1983
	Compiled at: Honeywell LCPD Phoenix, System M
	Compiled on: 10/03/83  1635.6 mst Mon
	    Options: optimize map

        1 /* ***********************************************************
        2*   *                                                         *
        3*   * Copyright, (C) Honeywell Information Systems Inc., 1982 *
        4*   *                                                         *
        5*   * Copyright (c) 1972 by Massachusetts Institute of        *
        6*   * Technology and Honeywell Information Systems, Inc.      *
        7*   *                                                         *
        8*   *********************************************************** */
        9
       10
       11 /* This procedure evaluates an expression used as a size or offset.
       12*   If the operator node does not have a reference count on its temporary,
       13*  a copy is made of the temporary with a reference count of 2 to
       14*  replace the original temporary.
       15*
       16*   Initial Version:  5 September 1971 by BLW
       17*	Modified: 15 July 1972 by BLW
       18*	Modified:	2 August 1973 by RAB to eliminate operator copying
       19*	Modified:	15 October 1975 by RAB to use xrs for some assignments
       20*	Modified:	26 July 1976 by RAB to fix 1505
       21*	Modified:	9 March 1977 by RAB to eliminate mod_bit, etc. dead code
       22*	Modified:	9 April 1977 by RAB to eliminate mod_word
       23*	Modified:	14 February 1978 by RAB to extend power of use_xr
       24*	Modified:	4 August 1978 by RAB to account for unsigned binary in use_xr	*/
       25
       26 eval_exp: proc(pt,no_xr) returns(ptr) ;
       27
       28 dcl	pt ptr,			/* points at the expression */
       29 	no_xr bit(1) aligned;	/* "1"b  - don't use xrs for assignments */
       30
       31 dcl	(cg_stat$first_op,cg_stat$next_op,cg_stat$cur_block,cg_stat$cur_statement) ptr ext;
       32
       33 dcl	cg_stat$optimize bit(1) aligned ext static;
       34
       35 dcl	(sp,tp,xp) ptr,
       36 	(atomic,copy) bit(1) aligned,
       37 	op_code bit(9) aligned,
       38 	xr fixed bin;
       39
       40 dcl	(copy_temp,check_o_and_s) entry(ptr) returns(ptr),
       41 	create_list entry(fixed bin) returns(ptr),
       42 	error entry(fixed bin,ptr,ptr),
       43 	compile_exp entry(ptr),
       44 	call_op entry(ptr) returns(ptr),
       45 	length_op entry(ptr) returns(ptr),
       46 	assign_desc_op entry(ptr) returns(ptr),
       47 	prepare_operand entry(ptr,fixed bin,bit(1) aligned) returns(ptr),
       48 	xr_man$load_any_var entry(ptr,fixed bin,fixed bin),
       49 	xr_man$update_xr entry(ptr,fixed bin);
       50
       51 dcl	(fixed,mod,null,substr) builtin;
       52
  1     1 /* BEGIN INCLUDE FILE ... reference.incl.pl1 */
  1     2
  1     3 dcl	1 reference		based aligned,
  1     4 	2 node_type		bit(9) unaligned,
  1     5 	2 array_ref		bit(1) unaligned,
  1     6 	2 varying_ref		bit(1) unaligned,
  1     7 	2 shared			bit(1) unaligned,
  1     8 	2 put_data_sw		bit(1) unaligned,
  1     9 	2 processed		bit(1) unaligned,
  1    10 	2 units			fixed(3) unaligned,
  1    11 	2 ref_count		fixed(17) unaligned,
  1    12 	2 c_offset		fixed(24),
  1    13 	2 c_length		fixed(24),
  1    14 	2 symbol			ptr unaligned,
  1    15 	2 qualifier		ptr unaligned,
  1    16 	2 offset			ptr unaligned,
  1    17 	2 length			ptr unaligned,
  1    18 	2 subscript_list		ptr unaligned,
  1    19 						/* these fields are used by the 645 code generator */
  1    20 	2 address			structure unaligned,
  1    21 	  3 base			bit(3),
  1    22 	  3 offset		bit(15),
  1    23 	  3 op			bit(9),
  1    24 	  3 no_address		bit(1),
  1    25 	  3 inhibit		bit(1),
  1    26 	  3 ext_base		bit(1),
  1    27 	  3 tag			bit(6),
  1    28 	2 info			structure unaligned,
  1    29 	  3 address_in		structure,
  1    30 	    4 b			dimension(0:7) bit(1),
  1    31 	    4 storage		bit(1),
  1    32 	  3 value_in		structure,
  1    33 	    4 a			bit(1),
  1    34 	    4 q			bit(1),
  1    35 	    4 aq			bit(1),
  1    36 	    4 string_aq		bit(1),
  1    37 	    4 complex_aq		bit(1),
  1    38 	    4 decimal_aq		bit(1),
  1    39 	    4 b			dimension(0:7) bit(1),
  1    40 	    4 storage		bit(1),
  1    41 	    4 indicators		bit(1),
  1    42 	    4 x			dimension(0:7) bit(1),
  1    43 	  3 other			structure,
  1    44 	    4 big_offset		bit(1),
  1    45 	    4 big_length		bit(1),
  1    46 	    4 modword_in_offset	bit(1),
  1    47 	2 data_type		fixed(5) unaligned,
  1    48 	2 bits			structure unaligned,
  1    49 	  3 padded_ref		bit(1),
  1    50 	  3 aligned_ref		bit(1),
  1    51 	  3 long_ref		bit(1),
  1    52 	  3 forward_ref		bit(1),
  1    53 	  3 ic_ref		bit(1),
  1    54 	  3 temp_ref		bit(1),
  1    55 	  3 defined_ref		bit(1),
  1    56 	  3 evaluated		bit(1),
  1    57 	  3 allocate		bit(1),
  1    58 	  3 allocated		bit(1),
  1    59 	  3 aliasable		bit(1),
  1    60 	  3 even			bit(1),
  1    61 	  3 perm_address		bit(1),
  1    62 	  3 aggregate		bit(1),
  1    63 	  3 hit_zero		bit(1),
  1    64 	  3 dont_save		bit(1),
  1    65 	  3 fo_in_qual		bit(1),
  1    66 	  3 hard_to_load		bit(1),
  1    67 	2 relocation		bit(12) unaligned,
  1    68 	2 more_bits		structure unaligned,
  1    69 	  3 substr		bit(1),
  1    70 	  3 padded_for_store_ref	bit(1),
  1    71 	  3 aligned_for_store_ref	bit(1),
  1    72 	  3 mbz			bit(15),
  1    73 	2 store_ins		bit(18) unaligned;
  1    74
  1    75 /* END INCLUDE FILE ... reference.incl.pl1 */
       53
  2     1 /* BEGIN INCLUDE FILE ... symbol.incl.pl1 */
  2     2
  2     3 dcl	1 symbol			based aligned,
  2     4 	2 node_type		bit(9) unal,
  2     5 	2 source_id		structure unal,
  2     6 	  3 file_number		bit(8),
  2     7 	  3 line_number		bit(14),
  2     8 	  3 statement_number	bit(5),
  2     9 	2 location		fixed(18) unal unsigned,
  2    10 	2 allocated		bit(1) unal,
  2    11 	2 dcl_type		bit(3) unal,
  2    12 	2 reserved		bit(6) unal,
  2    13 	2 pix			unal,
  2    14 	  3 pic_fixed		bit(1) unal,
  2    15 	  3 pic_float		bit(1) unal,
  2    16 	  3 pic_char		bit(1) unal,
  2    17 	  3 pic_scale		fixed(7) unal,
  2    18 	  3 pic_size		fixed(7) unal,
  2    19 	2 level			fixed(8) unal,
  2    20 	2 boundary		fixed(3) unal,
  2    21 	2 size_units		fixed(3) unal,
  2    22 	2 scale			fixed(7) unal,
  2    23 	2 runtime			bit(18) unal,
  2    24 	2 runtime_offset		bit(18) unal,
  2    25 	2 block_node		ptr unal,
  2    26 	2 token			ptr unal,
  2    27 	2 next			ptr unal,
  2    28 	2 multi_use		ptr unal,
  2    29 	2 cross_references		ptr unal,
  2    30 	2 initial			ptr unal,
  2    31 	2 array			ptr unal,
  2    32 	2 descriptor		ptr unal,
  2    33 	2 equivalence		ptr unal,
  2    34 	2 reference		ptr unal,
  2    35 	2 general			ptr unal,
  2    36 	2 father			ptr unal,
  2    37 	2 brother			ptr unal,
  2    38 	2 son			ptr unal,
  2    39 	2 word_size		ptr unal,
  2    40 	2 bit_size		ptr unal,
  2    41 	2 dcl_size		ptr unal,
  2    42 	2 symtab_size		ptr unal,
  2    43 	2 c_word_size		fixed(24),
  2    44 	2 c_bit_size		fixed(24),
  2    45 	2 c_dcl_size		fixed(24),
  2    46
  2    47 	2 attributes		structure aligned,
  2    48 	  3 data_type		structure unal,
  2    49 	    4 structure		bit(1) ,
  2    50 	    4 fixed		bit(1),
  2    51 	    4 float		bit(1),
  2    52 	    4 bit			bit(1),
  2    53 	    4 char		bit(1),
  2    54 	    4 ptr			bit(1),
  2    55 	    4 offset		bit(1),
  2    56 	    4 area		bit(1),
  2    57 	    4 label		bit(1),
  2    58 	    4 entry		bit(1),
  2    59 	    4 file		bit(1),
  2    60 	    4 arg_descriptor	bit(1),
  2    61 	    4 storage_block		bit(1),
  2    62 	    4 explicit_packed	bit(1), /* options(packed) */
  2    63 	    4 condition		bit(1),
  2    64 	    4 format		bit(1),
  2    65 	    4 builtin		bit(1),
  2    66 	    4 generic		bit(1),
  2    67 	    4 picture		bit(1),
  2    68
  2    69 	  3 misc_attributes		structure unal,
  2    70 	    4 dimensioned		bit(1),
  2    71 	    4 initialed		bit(1),
  2    72 	    4 aligned		bit(1),
  2    73 	    4 unaligned		bit(1),
  2    74 	    4 signed		bit(1),
  2    75 	    4 unsigned		bit(1),
  2    76 	    4 precision		bit(1),
  2    77 	    4 varying		bit(1),
  2    78 	    4 local		bit(1),
  2    79 	    4 decimal		bit(1),
  2    80 	    4 binary		bit(1),
  2    81 	    4 real		bit(1),
  2    82 	    4 complex		bit(1),
  2    83 	    4 variable		bit(1),
  2    84 	    4 reducible		bit(1),
  2    85 	    4 irreducible		bit(1),
  2    86 	    4 returns		bit(1),
  2    87 	    4 position		bit(1),
  2    88 	    4 internal		bit(1),
  2    89 	    4 external		bit(1),
  2    90 	    4 like		bit(1),
  2    91 	    4 member		bit(1),
  2    92 	    4 non_varying		bit(1),
  2    93 	    4 options		bit(1),
  2    94 	    4 variable_arg_list 	bit(1),		/* options(variable) */
  2    95 	    4 alloc_in_text		bit(1),		/* options(constant) */
  2    96
  2    97 	  3 storage_class		structure unal,
  2    98 	    4 auto		bit(1),
  2    99 	    4 based		bit(1),
  2   100 	    4 static		bit(1),
  2   101 	    4 controlled		bit(1),
  2   102 	    4 defined		bit(1),
  2   103 	    4 parameter		bit(1),
  2   104 	    4 param_desc		bit(1),
  2   105 	    4 constant		bit(1),
  2   106 	    4 temporary		bit(1),
  2   107 	    4 return_value		bit(1),
  2   108
  2   109 	  3 file_attributes		structure unal,
  2   110 	    4 print		bit(1),
  2   111 	    4 input		bit(1),
  2   112 	    4 output		bit(1),
  2   113 	    4 update		bit(1),
  2   114 	    4 stream		bit(1),
  2   115 	    4 reserved_1		bit(1),
  2   116 	    4 record		bit(1),
  2   117 	    4 sequential		bit(1),
  2   118 	    4 direct		bit(1),
  2   119 	    4 interactive		bit(1),		/* env(interactive) */
  2   120 	    4 reserved_2		bit(1),
  2   121 	    4 reserved_3		bit(1),
  2   122 	    4 stringvalue		bit(1),		/* env(stringvalue) */
  2   123 	    4 keyed		bit(1),
  2   124 	    4 reserved_4		bit(1),
  2   125 	    4 environment		bit(1),
  2   126
  2   127 	  3 compiler_developed	structure unal,
  2   128 	    4 aliasable		bit(1),
  2   129 	    4 packed		bit(1),
  2   130 	    4 passed_as_arg		bit(1),
  2   131 	    4 allocate		bit(1),
  2   132 	    4 set			bit(1),
  2   133 	    4 exp_extents		bit(1),
  2   134 	    4 refer_extents		bit(1),
  2   135 	    4 star_extents		bit(1),
  2   136 	    4 isub		bit(1),
  2   137 	    4 put_in_symtab		bit(1),
  2   138 	    4 contiguous		bit(1),
  2   139 	    4 put_data		bit(1),
  2   140 	    4 overlayed		bit(1),
  2   141 	    4 error		bit(1),
  2   142 	    4 symtab_processed	bit(1),
  2   143 	    4 overlayed_by_builtin	bit(1),
  2   144 	    4 defaulted		bit(1),
  2   145 	    4 connected		bit(1);
  2   146
  2   147 /* END INCLUDE FILE ... symbol.incl.pl1 */
       54
  3     1 /* BEGIN INCLUDE FILE ... operator.incl.pl1 */
  3     2
  3     3 /*	Modified: 2 Apr 1980 by PCK to add max_number_of_operands */
  3     4
  3     5 /* format: style3 */
  3     6 dcl	1 operator	based aligned,
  3     7 	  2 node_type	bit (9) unaligned,
  3     8 	  2 op_code	bit (9) unaligned,
  3     9 	  2 shared	bit (1) unaligned,
  3    10 	  2 processed	bit (1) unaligned,
  3    11 	  2 optimized	bit (1) unaligned,
  3    12 	  2 number	fixed (14) unaligned,
  3    13 	  2 operand	dimension (n refer (operator.number)) ptr unaligned;
  3    14
  3    15 dcl	max_number_of_operands
  3    16 			fixed bin (15) int static options (constant) initial (32767);
  3    17
  3    18 /* END INCLUDE FILE ... operator.incl.pl1 */
       55
  4     1 /* BEGIN INCLUDE FILE ... nodes.incl.pl1 */
  4     2
  4     3 /* Modified: 26 Dec 1979 by PCK to implement by name assignment */
  4     4
  4     5 dcl (	block_node		initial("000000001"b),
  4     6 	statement_node		initial("000000010"b),
  4     7 	operator_node		initial("000000011"b),
  4     8 	reference_node		initial("000000100"b),
  4     9 	token_node		initial("000000101"b),
  4    10 	symbol_node		initial("000000110"b),
  4    11 	context_node		initial("000000111"b),
  4    12 	array_node		initial("000001000"b),
  4    13 	bound_node		initial("000001001"b),
  4    14 	format_value_node		initial("000001010"b),
  4    15 	list_node			initial("000001011"b),
  4    16 	default_node		initial("000001100"b),
  4    17 	machine_state_node		initial("000001101"b),
  4    18 	source_node		initial("000001110"b),
  4    19 	label_node		initial("000001111"b),
  4    20 	cross_reference_node	initial("000010000"b),
  4    21 	sf_par_node		initial("000010001"b),
  4    22 	temporary_node		initial("000010010"b),
  4    23 	label_array_element_node	initial("000010011"b),
  4    24 	by_name_agg_node		initial("000010100"b))
  4    25 				bit(9) internal static aligned options(constant);
  4    26
  4    27 dcl	1 node			based aligned,
  4    28 	2 type			unal bit(9),
  4    29 	2 source_id		unal structure,
  4    30 	  3 file_number		bit(8),
  4    31 	  3 line_number		bit(14),
  4    32 	  3 statement_number	bit(5);
  4    33
  4    34 /* END INCLUDE FILE ... nodes.incl.pl1 */
       56
  5     1 /* BEGIN INCLUDE FILE ... op_codes.incl.pl1 */
  5     2
  5     3 /* Modified: 25 Apr 1979 by PCK 4-bit decimal */
  5     4 /* Modified: 6 Jun 1979 by PG to add rank and byte */
  5     5 /* Modified: 26 Dec 1979 by PCK to add assign_by_name */
  5     6 /* Modified: 26 July 82 BIM wordno, segno */
  5     7
  5     8 dcl (	add		initial("000010001"b),	/* opnd(1) <- opnd(2)+opnd(3)		*/
  5     9 	sub		initial("000010010"b),	/* opnd(1) <- opnd(2)-opnd(3)		*/
  5    10 	mult		initial("000010011"b),	/* opnd(1) <- opnd(2)*opnd(3)		*/
  5    11 	div		initial("000010100"b),	/* opnd(1) <- opnd(2)/opnd(3)		*/
  5    12 	negate		initial("000010101"b),	/* opnd(1) <- -opnd(2)  		*/
  5    13 	exp		initial("000010110"b),	/* opnd(1) <- opnd(2) ** opnd(3)	*/
  5    14
  5    15 	and_bits		initial("000100001"b),	/* opnd(1) <- opnd(2) & opnd(3)	*/
  5    16 	or_bits		initial("000100010"b),	/* opnd(1) <- opnd(2)|opnd(3)		*/
  5    17 	xor_bits		initial("000100011"b),	/* opnd(1) <- opnd(2) xor opnd(3)	*/
  5    18 	not_bits		initial("000100100"b),	/* opnd(1) <- ^opnd(2)		*/
  5    19 	cat_string	initial("000100101"b),	/* opnd(1) <- opnd(2)||opnd(3)	*/
  5    20 	bool_fun		initial("000100110"b),	/* opnd(1) <- bool(opnd(2),opnd(3),opnd(4)) */
  5    21
  5    22 	assign		initial("000110001"b),	/* opnd(1) <- opnd(2)		*/
  5    23 	assign_size_ck	initial("000110010"b),	/* opnd(1) <- opnd(2)		*/
  5    24 	assign_zero	initial("000110011"b),	/* opnd(1) <- 0			*/
  5    25 	copy_words	initial("000110100"b),	/* move opnd(2) to opnd(1) by opnd(3) words */
  5    26 	copy_string	initial("000110101"b),	/* move opnd(2) to opnd(1) by opnd(3) units */
  5    27 	make_desc		initial("000110110"b),	/* opnd(1) <- descriptor(opnd(2),opnd(3)) */
  5    28 	assign_round	initial("000110111"b),	/* opnd(1) <- opnd(2) rounded		*/
  5    29 	pack		initial("000111000"b),	/* opnd(1) <- encode to picture opnd(2) */
  5    30 	unpack		initial("000111001"b),	/* opnd(1) <- decode from picture opnd(2) */
  5    31
  5    32 	less_than		initial("001000100"b),	/* opnd(1) <- opnd(2) < opnd(3)	*/
  5    33 	greater_than	initial("001000101"b),	/* opnd(1) <- opnd(2) > opnd(3)	*/
  5    34 	equal		initial("001000110"b),	/* opnd(1) <- opnd(2) = opnd(3)	*/
  5    35 	not_equal		initial("001000111"b),	/* opnd(1) <- opnd(2) ^= opnd(3)	*/
  5    36 	less_or_equal	initial("001001000"b),	/* opnd(1) <- opnd(2) <= opnd(3)	*/
  5    37 	greater_or_equal	initial("001001001"b),	/* opnd(1) <- opnd(2) >= opnd(3)	*/
  5    38
  5    39 	jump		initial("001010001"b),	/* go to opnd(1) unconditionally	*/
  5    40 	jump_true		initial("001010010"b),	/* go to opnd(1) if opnd(2) is not 0	*/
  5    41 	jump_false	initial("001010011"b),	/* go to opnd(1) if opnd(2) is all 0	*/
  5    42 	jump_if_lt	initial("001010100"b),	/* go to opnd(1) if opnd(2) < opnd(3)	*/
  5    43 	jump_if_gt	initial("001010101"b),	/* go to opnd(1) if opnd(2) > opnd(3)	*/
  5    44 	jump_if_eq	initial("001010110"b),	/* go to opnd(1) if opnd(2) = opnd(3)	*/
  5    45 	jump_if_ne	initial("001010111"b),	/* go to opnd(1) if opnd(2) ^= opnd(3)	*/
  5    46 	jump_if_le	initial("001011000"b),	/* go to opnd(1) if opnd(2) <= opnd(3)	*/
  5    47 	jump_if_ge	initial("001011001"b),	/* go to opnd(1) if opnd(2) >= opnd(3)	*/
  5    48
  5    49 	std_arg_list	initial("001100001"b),	/* opnd(1) <- arglist(opnd(2) desclist(opnd(3)))	*/
  5    50 	return_words	initial("001100010"b),	/* return aggregate opnd(1), opnd(2) is length in words */
  5    51 	std_call		initial("001100011"b),	/* opnd(1) <- call opnd(2) with opnd(3)		*/
  5    52 	return_bits	initial("001100100"b),	/* return aggregate opnd(1), opnd(2) is length in bits */
  5    53 	std_entry		initial("001100101"b),	/* entry(opnd(1)... opnd(n))			*/
  5    54 	return_string	initial("001100110"b),	/* return string opnd(1) */
  5    55 	ex_prologue	initial("001100111"b),	/* execute the prologue -no operands-		*/
  5    56 	allot_auto	initial("001101000"b),	/* opnd(1) <- addrel(stack,opnd(2))		*/
  5    57 	param_ptr		initial("001101001"b),	/* opnd(1) <- ptr to opnd(2) in  block opnd(3)	*/
  5    58 	param_desc_ptr	initial("001101010"b),	/* opnd(1) <- ptr to opnd(2) in block opnd(3)	*/
  5    59 	std_return	initial("001101011"b),	/* return -no arguments-			*/
  5    60 	allot_ctl		initial("001101100"b),	/* allocate opnd(1) , length in words is opnd(2) 	*/
  5    61 	free_ctl		initial("001101101"b),	/* free opnd(1)				*/
  5    62 	stop		initial("001101110"b),	/* stop - terminate run unit			*/
  5    63
  5    64 	mod_bit		initial("001110000"b),	/* opnd(1) <- mod(opnd(3),36),
  5    65*						   opnd(2) <- opnd(3) / 36		*/
  5    66 	mod_byte		initial("001110001"b),	/* opnd(1) <- mod(opnd(3),4),
  5    67*						   opnd(2) <- opnd(3) / 4		*/
  5    68 	mod_half		initial("001110010"b),	/* opnd(1) <- mod(opnd(3),2),
  5    69*						   opnd(2) <- opnd(3) / 2		*/
  5    70 	mod_word		initial("001110011"b),	/* TO BE DEFINED BY BLW			*/
  5    71
  5    72 	bit_to_char	initial("010000000"b),	/* opnd(1) <- (opnd(2)+8)/9		*/
  5    73 	bit_to_word	initial("010000001"b),	/* opnd(1) <- (opnd(2)+35)/36		*/
  5    74 	char_to_word	initial("010000010"b),	/* opnd(1) <- (opnd(2)+3)/4		*/
  5    75 	half_to_word	initial("010000011"b),	/* opnd(1) <- (opnd(2)+1)/2		*/
  5    76 	word_to_mod2	initial("010000100"b),	/* opnd(1) <- (opnd(2)+1)/2*2		*/
  5    77 	word_to_mod4	initial("010000101"b),	/* opnd(1) <- (opnd(2)+3)/4*4		*/
  5    78 	word_to_mod8	initial("010000110"b),	/* opnd(1) <- (opnd(2)+7)/8*8		*/
  5    79 	rel_fun		initial("010000111"b),	/* opnd(1) <- rel(opnd(2))		*/
  5    80 	baseno_fun	initial("010001000"b),	/* opnd(1) <- baseno(opnd(2))		*/
  5    81 	desc_size		initial("010001001"b),	/* opnd(1) <- substr(opnd(2),13,24)	*/
  5    82 	bit_pointer	initial("010001010"b),	/* opnd(1) <- bit offset of opnd(2)	*/
  5    83 	index_before_fun	initial("010001011"b),	/* opnd(1) <- length of before(opnd(2),opnd(3)) */
  5    84 	index_after_fun	initial("010001100"b),	/* opnd(1) <- offset of after(opnd(2),opnd(3)) in opnd(2) */
  5    85 	verify_ltrim_fun	initial("010001101"b),	/* opnd(1) <- offset of ltrim(opnd(2),opnd(3)) in opnd(2) */
  5    86 	verify_rtrim_fun	initial("010001110"b),	/* opnd(1) <- length(opnd(2))-length(rtrim(opnd(2),opnd(3))) */
  5    87 	digit_to_bit	initial("010001111"b),	/* opnd(1) <- 9*opnd(2)/2		*/
  5    88
  5    89 	ceil_fun		initial("010010000"b),	/* opnd(1) <- ceil(opnd(2))		*/
  5    90 	floor_fun		initial("010010001"b),	/* opnd(1) <- floor(opnd(2))		*/
  5    91 	round_fun		initial("010010010"b),	/* opnd(1) <- round(opnd(2))		*/
  5    92 	sign_fun		initial("010010011"b),	/* opnd(1) <- sign(opnd(2))		*/
  5    93 	abs_fun		initial("010010100"b),	/* opnd(1) <- abs(opnd(2))		*/
  5    94 	trunc_fun		initial("010010101"b),	/* opnd(1) <- trunc(opnd(2))		*/
  5    95 	byte_fun		initial("010010110"b),	/* opnd(1) <- byte(opnd(2))		*/
  5    96 	rank_fun		initial("010010111"b),	/* opnd(1) <- rank(opnd(2))		*/
  5    97 	index_rev_fun	initial("010011000"b),	/* opnd(1) <- index(reverse(opnd(2)),reverse(opnd(3))) */
  5    98 	search_rev_fun	initial("010011001"b),	/* opnd(1) <- search(reverse(opnd(2)),opnd(3)) */
  5    99 	verify_rev_fun	initial("010011010"b),	/* opnd(1) <- verify(reverse(opnd(2)),opnd(3)) */
  5   100 	wordno_fun	initial("010011011"b),        /* opnd(1) <- wordno (opnd(2)) */
  5   101 	segno_fun		initial("010011100"b),        /* opnd(1) <- segno (opnd(2)) */
  5   102 	bitno_fun           initial("010011101"b),        /* opnd(1) <- bitno (opnd(2)) */
  5   103 	charno_fun	initial("010011110"b),        /* opnd(1) <- charno (opnd(2)) */
  5   104
  5   105 	index_fun		initial("010100000"b),	/* opnd(1) <- index(opnd(2),opnd(3))	*/
  5   106 	off_fun		initial("010100001"b),	/* opnd(1) <- offset(opnd(2),opnd(3))	*/
  5   107 	complex_fun	initial("010100010"b),	/* opnd(1) <- complex(opnd(2),opnd(3))	*/
  5   108 	conjg_fun		initial("010100011"b),	/* opnd(1) <- conjg(opnd(2),opnd(3))	*/
  5   109 	mod_fun		initial("010100100"b),	/* opnd(1) <- mod(opnd(2),opnd(3))	*/
  5   110 	repeat_fun	initial("010100101"b),	/* opnd(1) <- repeat(opnd(2),opnd(3))	*/
  5   111 	verify_fun	initial("010100110"b),	/* opnd(1) <- verify(opnd(2),opnd(3))	*/
  5   112 	translate_fun	initial("010100111"b),	/* opnd(1) <- translate(opnd(2),opnd(3))*/
  5   113 	real_fun   	initial("010101001"b),	/* opnd(1) <- real(opnd(2))		*/
  5   114 	imag_fun   	initial("010101010"b),	/* opnd(1) <- imag(opnd(2))		*/
  5   115 	length_fun	initial("010101011"b),	/* opnd(1) <- length(opnd(2))	*/
  5   116 	pl1_mod_fun	initial("010101100"b),	/* opnd(1) <- mod(opnd(2)) */
  5   117 	search_fun	initial("010101101"b),	/* opnd(1) <- search(opnd(2),opnd(3)) */
  5   118 	allocation_fun	initial("010101110"b),	/* opnd(1) <- allocation(opnd(2)) */
  5   119 	reverse_fun	initial("010101111"b),	/* opnd(1) <- reverse(opnd(2)) */
  5   120
  5   121 	addr_fun		initial("010110000"b),	/* opnd(1) <- addr(opnd(2))		*/
  5   122 	addr_fun_bits	initial("010110001"b),	/* opnd(1) <- addr(opnd(2))		*/
  5   123 	ptr_fun		initial("010110010"b),	/* opnd(1) <- ptr(opnd(2),opnd(3))	*/
  5   124 	baseptr_fun	initial("010110011"b),	/* opnd(1) <- baseptr(opnd(2))	*/
  5   125 	addrel_fun	initial("010110100"b),	/* opnd(1) <- addrel(opnd(2),opnd(3))	*/
  5   126 	codeptr_fun	initial("010110101"b),	/* opnd(1) <- codeptr(opnd(2))	*/
  5   127 	environmentptr_fun	initial("010110110"b),	/* opnd(1) <- environmentptr(opnd(2))	*/
  5   128 	stackbaseptr_fun	initial("010110111"b),	/* opnd(1) is ptr to base of current stack	*/
  5   129 	stackframeptr_fun	initial("010111000"b),	/* opnd(1) is ptr to current block's stack frame	*/
  5   130 	setcharno_fun	initial("010111001"b),	/* opnd(1) <- opnd(2) with charno opnd(3) */
  5   131 	addcharno_fun	initial("010111010"b),	/* opnd(1) <- opnd(2) with charno = charno + opnd(3) */
  5   132 	setbitno_fun	initial("010111011"b),	/* setcharno for bitsno */
  5   133 	addbitno_fun	initial("010111100"b),	/* addcharno for bitno */
  5   134
  5   135 	min_fun		initial("011000000"b),	/* opnd(1) <- min(opnd(1),opnd(2),...)	*/
  5   136 	max_fun		initial("011000001"b),	/* opnd(1) <- max(opnd(1),opnd(2),...)	*/
  5   137
  5   138 	stack_ptr		initial("011010001"b),	/* opnd(1) <- stack frame ptr		*/
  5   139 	empty_area	initial("011010010"b),	/* empty opnd(1), length in words is opnd(2) */
  5   140 	enable_on		initial("011010100"b),	/* opnd(1) is the cond name
  5   141*						   opnd(2) is the file name
  5   142*						   opnd(3) is the block	*/
  5   143 	revert_on		initial("011010101"b),	/* opnd(1) is the cond name,
  5   144*						   opnd(2) is the file name	*/
  5   145 	signal_on		initial("011010110"b),	/* opnd(1) is the cond name
  5   146*						   opnd(2) is the file name */
  5   147
  5   148 	lock_fun		initial("011010111"b),	/* opnd(1) <- stac(opnd(2),opnd(3))	*/
  5   149 	stacq_fun		initial("011011000"b),	/* opnd(1) is result, opnd(2) is ptr to lock word,
  5   150*						   opnd(3) is old value, (4) is new value. */
  5   151 	clock_fun		initial("011011001"b),	/* opnd(1) is the clock time		*/
  5   152 	vclock_fun	initial("011011010"b),	/* opnd(1) is the virtual clock time	*/
  5   153
  5   154 	bound_ck		initial("011100000"b),	/* opnd(1) <- opnd(2) if opnd(3) <= opnd(2) <= opnd(4) */
  5   155 	range_ck		initial("011100001"b),	/* opnd(1) <- opnd(2) if opnd(3) <= opnd(2) <= opnd(4) */
  5   156 	loop		initial("011100010"b),	/* do opnd(1) for opnd(2) from opnd(3) to opnd(4) by 1,
  5   157*						   opnd(5) is the list */
  5   158 	join		initial("011100011"b),	/* do opnd(1), opnd(2) ... opnd(n)	*/
  5   159 	allot_based	initial("011100100"b),	/* allocate opnd(2) words in opnd(3), set opnd(1) */
  5   160 	free_based	initial("011100101"b),	/* free opnd(1) in opnd(3), length is opnd(2) words */
  5   161
  5   162 	r_parn		initial("011110001"b),	/* format op code			*/
  5   163 	l_parn		initial("011110010"b),
  5   164 	r_format		initial("011110011"b),
  5   165 	c_format		initial("011110100"b),
  5   166 	f_format		initial("011110101"b),
  5   167 	e_format		initial("011110110"b),
  5   168 	b_format		initial("011110111"b),
  5   169 	a_format		initial("011111000"b),
  5   170 	x_format		initial("011111001"b),
  5   171 	skip_format	initial("011111010"b),
  5   172 	column_format	initial("011111011"b),
  5   173 	page_format	initial("011111100"b),
  5   174 	line_format	initial("011111101"b),
  5   175 	picture_format	initial("011111110"b),
  5   176 	bn_format		initial("011111111"b),	/* bit format, length(opnd(2)), radix factor(opnd(3)) */
  5   177
  5   178 	get_list_trans	initial("100000000"b),	/* getlist(opnd(2) with desc(opnd(1)))	*/
  5   179 	get_edit_trans	initial("100000001"b),	/* getedit(opnd(2) with desc(opnd(1)))	*/
  5   180 	get_data_trans	initial("100000010"b),	/* getdata(opnd(1) to opnd(n))	*/
  5   181 	put_list_trans	initial("100000011"b),	/* putlist(opnd(2) with desc(opnd(1)))	*/
  5   182 	put_edit_trans	initial("100000100"b),	/* putedit(opnd(2) with desc(opnd(1)))	*/
  5   183 	put_data_trans	initial("100000101"b),	/* putdata(opnd(2)) with subscript-list opnd(1) */
  5   184 	terminate_trans	initial("100000110"b),	/* terminate stream transmission	*/
  5   185 	stream_prep	initial("100000111"b),	/* initiate stream transmission	*/
  5   186 	record_io		initial("100001000"b),	/* perform record io operation	*/
  5   187 	fortran_read	initial("100001001"b),	/* A complete read statement		*/
  5   188 	fortran_write	initial("100001010"b),	/* A complete write statement		*/
  5   189 	ftn_file_manip	initial("100001011"b),	/* endfile,backspace,rewind,etc.	*/
  5   190 	ftn_trans_loop	initial("100001100"b),	/* An implied do in i/o list		*/
  5   191 	put_control	initial("100001101"b),	/* put control opnd(1) opnd(2) times	*/
  5   192 	put_field		initial("100001110"b),	/* putlist(opnd(2)) of length(opnd(1))	*/
  5   193 	put_field_chk	initial("100001111"b),	/* putlist(op(2)) of len(op(1)) check char index(op(3)) */
  5   194
  5   195 /* These operators are produced by the parse but are not used as input to the code generator.	*/
  5   196 /* They are processed by the semantic translator.						*/
  5   197
  5   198 	return_value	initial("100010010"b),	/* return(opnd(1))			*/
  5   199 	allot_var		initial("100010011"b),	/* allot opnd(1) in opnd(2)		*/
  5   200 	free_var		initial("100010100"b),	/* free opnd(1) out of opnd(2)	*/
  5   201 	get_file		initial("100010101"b),	/* opnd(1) is filename,opnd(2) is copy	*/
  5   202 						/* opnd(3) is skip, opnd(4) is list	*/
  5   203 	get_string	initial("100010110"b),	/* opnd(1) is string,opnd(2) is list	*/
  5   204 	put_file		initial("100010111"b),	/* opnd(1) is filename,opnd(2) is page	*/
  5   205 						/* opnd(3) is skip,opnd(4) is line	*/
  5   206 	put_string	initial("100011000"b),	/* opnd(1) is string,opnd(2) is list	*/
  5   207 	open_file		initial("100011001"b),
  5   208 	close_file	initial("100011010"b),
  5   209 	read_file		initial("100011011"b),
  5   210 	write_file	initial("100011100"b),
  5   211 	locate_file	initial("100011101"b),
  5   212 	do_fun		initial("100011110"b),	/* opnd(1) is join of a list		*/
  5   213 						/* opnd(2) is control variable ref	*/
  5   214 						/* opnd(3) is specification operator	*/
  5   215 	do_spec		initial("100011111"b),	/* opnd(1) to opnd(2) by opnd(3) 	*/
  5   216 						/* repeat opnd(4) while opnd(5)	*/
  5   217 						/* opnd(6) is next specification	*/
  5   218
  5   219 	rewrite_file	initial("100100000"b),
  5   220 	delete_file	initial("100100001"b),
  5   221 	unlock_file	initial("100100010"b),
  5   222 	lock_file		initial("100100011"b),
  5   223 	refer		initial("100100101"b),	/* opnd(1) refer(opnd(2))		*/
  5   224 	prefix_plus	initial("100100110"b),	/* opnd(1) <- +opnd(2)		*/
  5   225 	nop		initial("100100111"b),	/* no-op */
  5   226 	assign_by_name	initial("100101000"b),	/* opnd(1) <- opnd(2),by name		*/
  5   227
  5   228 /* These operators are produced by the semantic translator in processing the math
  5   229*   builtin functions and are used as input to the code generator			*/
  5   230
  5   231 	sqrt_fun		initial("100110000"b),	/* opnd(1) <- sqrt(opnd(2))	*/
  5   232 	sin_fun		initial("100110001"b),	/* opnd(1) <- sin(opnd(2))	*/
  5   233 	sind_fun		initial("100110010"b),	/* opnd(1) <- sind(opnd(2))	*/
  5   234 	cos_fun		initial("100110011"b),	/* opnd(1) <- cos(opnd(2))	*/
  5   235 	cosd_fun		initial("100110100"b),	/* opnd(1) <- cosd(opnd(2))	*/
  5   236 	tan_fun		initial("100110101"b),	/* opnd(1) <- tan(opnd(2))	*/
  5   237 	tand_fun		initial("100110110"b),	/* opnd(1) <- tand(opnd(2))	*/
  5   238 	asin_fun		initial("100110111"b),	/* opnd(1) <- asin(opnd(2))	*/
  5   239 	asind_fun		initial("100111000"b),	/* opnd(1) <- asind(opnd(2))	*/
  5   240 	acos_fun		initial("100111001"b),	/* opnd(1) <- acos(opnd(2))	*/
  5   241 	acosd_fun		initial("100111010"b),	/* opnd(1) <- acosd(opnd(2))	*/
  5   242 	atan_fun		initial("100111011"b),	/* opnd(1) <- atan(opnd(2)[,opnd(3)])	*/
  5   243 	atand_fun		initial("100111100"b),	/* opnd(1) <- atand(opnd(2)[,opnd(3)])	*/
  5   244 	log2_fun		initial("100111101"b),	/* opnd(1) <- log2(opnd(2))	*/
  5   245 	log_fun		initial("100111110"b),	/* opnd(1) <- log(opnd(2))	*/
  5   246 	log10_fun		initial("100111111"b),	/* opnd(1) <- log10(opnd(2))	*/
  5   247
  5   248 	exp_fun		initial("101000000"b))	/* opnd(1) <- exp(opnd(2))	*/
  5   249
  5   250 			bit(9) aligned internal static options(constant);
  5   251
  5   252 /* END INCLUDE FILE ... op_codes.incl.pl1 */
       57
  6     1 /* BEGIN INCLUDE FILE ... cgsystem.incl.pl1 */
  6     2
  6     3 /* Modified: 25 Apr 1979 by PCK to implement 4-bit decimal */
  6     4
  6     5 dcl (	bits_per_char		init(9),
  6     6 	bits_per_half		init(18),
  6     7 	bits_per_word		init(36),
  6     8 	bits_per_two_words		init(72),
  6     9 	bits_per_four_words		init(144),
  6    10 	bits_per_words(2)		init(36,72),
  6    11 	packed_digits_per_char	init(2),
  6    12 	chars_per_word		init(4),
  6    13 	packed_digits_per_word	init(8),
  6    14
  6    15 	break_even_bits		init(216),
  6    16 	break_even_words		init(6),
  6    17
  6    18 	label_size		init(4),
  6    19
  6    20 	convert_size(13:14)		init(9,1),
  6    21 	max_offset(13:14)		init(27,35),
  6    22 	max_short_size(13:14)	init(8,72),
  6    23
  6    24 	units_per_word(0:5)		init(1,36,8,4,2,1),
  6    25
  6    26 	max_dec_scale		init(32),
  6    27 	min_dec_scale		init(-31),
  6    28 	max_p_xreg		init(18),
  6    29 	max_p_fix_bin_1		init(35),
  6    30 	max_p_flt_bin_1		init(27),
  6    31 	max_p_fix_dec		init(59),
  6    32 	max_length_p		init(24),
  6    33 	default_fix_bin_p		init(17)) fixed bin(8) int static options(constant);
  6    34
  6    35 dcl      (convert_offset(0:5)		init(36,1,4.5,9,18,36),
  6    36 	bits_per_packed_digit	init(4.5)) fixed bin(8,1) int static options(constant);
  6    37
  6    38 dcl	max_index_register_value	init(262143) fixed bin(31) int static options(constant);
  6    39
  6    40 /* END INCLUDE FILE ... cgsystem.incl.pl1 */
  6    41
       58
  7     1 /* BEGIN INCLUDE FILE ... boundary.incl.pl1 */
  7     2
  7     3 /* Modified: 26 Apr 1979 by PCK to implement 4-bit decimal */
  7     4
  7     5 dcl (	bit_		init(1),
  7     6 	digit_		init(2),
  7     7 	character_	init(3),
  7     8 	half_		init(4),
  7     9 	word_		init(5),
  7    10 	mod2_		init(6),
  7    11 	mod4_		init(7)) fixed bin(3) int static options(constant);
  7    12
  7    13 /* END INCLUDE FILE ... boundary.incl.pl1 */
       59
  8     1 dcl (	real_fix_bin_1		init(1),
  8     2 	real_fix_bin_2		init(2),
  8     3 	real_flt_bin_1		init(3),
  8     4 	real_flt_bin_2		init(4),
  8     5 	complex_fix_bin_1		init(5),
  8     6 	complex_fix_bin_2		init(6),
  8     7 	complex_flt_bin_1		init(7),
  8     8 	complex_flt_bin_2		init(8),
  8     9 	real_fix_dec		init(9),
  8    10 	real_flt_dec		init(10),
  8    11 	complex_fix_dec		init(11),
  8    12 	complex_flt_dec		init(12),
  8    13 	char_string		init(13),
  8    14 	bit_string		init(14),
  8    15 	label_constant		init(15),
  8    16 	local_label_variable	init(16),
  8    17 	label_variable		init(17),
  8    18 	entry_variable		init(18),
  8    19 	ext_entry_in		init(19),
  8    20 	ext_entry_out		init(20),
  8    21 	int_entry			init(21),
  8    22 	int_entry_other		init(22),
  8    23 	unpacked_ptr		init(23),
  8    24 	packed_ptr		init(24)) fixed bin(15) int static options(constant);
       60
       61
       62 	xp = pt;
       63
       64 	if xp = null then goto done;
       65
       66 	if xp -> node.type = operator_node
       67 	then do;
       68 	     op_code = xp -> operator.op_code;
       69
       70 	     if op_code = std_call
       71 	     then do;
       72 		if ^ xp -> operand(1) -> reference.evaluated
       73 		then do;
       74 		     tp = call_op(xp);
       75 		     tp -> reference.value_in.storage = "1"b;
       76 		     end;
       77 done:		return(xp);
       78 		end;
       79
       80 	     if op_code = desc_size
       81 	     then do;
       82 		tp = check_o_and_s(xp);
       83 		if tp ^= null
       84 		then do;
       85 		     return(tp);
       86 		     end;
       87 		end;
       88
       89 	     tp = xp -> operand(1);
       90 	     if tp = null
       91 	     then do;
       92 		call error(317,cg_stat$cur_statement,null);
       93 		goto done;
       94 		end;
       95
       96 	     if tp -> reference.evaluated
       97 		then go to done;
       98
       99 	     if op_code = assign
      100 	     then do;
      101 		sp = xp -> operand(2);
      102 		if sp -> node.type = reference_node
      103 		then if sp -> reference.symbol -> symbol.arg_descriptor
      104 		     then if tp -> reference.symbol -> symbol.temporary
      105 			then do;
      106
      107 			     /* eliminate assignment of descriptor to temporary */
      108
      109 			     xp = assign_desc_op(xp);
      110 			     go to done;
      111 			     end;
      112 			else;
      113 		     else if cg_stat$optimize
      114 			then if sp -> reference.symbol -> symbol.packed
      115 			then if ^ no_xr
      116 			then if sp -> reference.ref_count <= 1 | sp -> reference.aligned_ref
      117 			then if use_xr()
      118 			     then go to done;
      119 		end;
      120
      121 	     if op_code = length_fun
      122 	     then do;
      123 		xp = length_op(xp);
      124 		go to done;
      125 		end;
      126
      127 	     if tp -> reference.shared
      128 	     then do;
      129 		xp -> operand(1), tp = copy_temp(tp);
      130 		tp -> reference.ref_count = 2;
      131 		end;
      132 	     else if tp -> reference.temp_ref
      133 		then tp -> reference.ref_count = tp -> reference.ref_count + 1;
      134
      135 	     call compile_exp(xp);
      136
      137 	     end;
      138
      139 	else xp = prepare_operand(xp,1,atomic);
      140
      141
      142 	goto done;
      143
      144
      145 use_xr:	     proc returns(bit(1) aligned);
      146
      147 	     sp = prepare_operand(sp,1,atomic);
      148
      149 	     if sp -> reference.c_length = bits_per_half | sp -> reference.aligned_ref
      150 	     then if ^ sp -> reference.hard_to_load
      151 	     then if sp -> reference.data_type = real_fix_bin_1
      152 		   & (tp->reference.symbol->symbol.c_dcl_size = default_fix_bin_p + fixed(sp->reference.symbol->symbol.unsigned,1)
      153 		     | sp -> reference.aligned_ref)
      154 		 | sp -> reference.data_type = bit_string
      155 		   & ^ sp -> reference.aligned_ref
      156 		   & tp -> reference.symbol -> symbol.c_dcl_size = bits_per_half
      157 	     then if sp -> reference.units = word_ | mod(sp -> reference.c_offset,bits_per_half) = 0
      158 	     then do;
      159 		tp = prepare_operand(tp,1,atomic);
      160 		if tp -> reference.shared
      161 		     then xp -> operand(1), tp = copy_temp(tp);
      162 		call xr_man$load_any_var(sp,xr,0);
      163 		call xr_man$update_xr(tp,xr);
      164 		tp -> reference.evaluated = "1"b;
      165 		return("1"b);
      166 		end;
      167
      168 	     return("0"b);
      169 	     end;
      170
      171
      172 	end;
	SOURCE FILES USED IN THIS COMPILATION.

LINE      NUMBER  DATE MODIFIED     NAME			PATHNAME
             0    10/03/83  1008.2  eval_exp.pl1                      >spec>on>pl128d>eval_exp.pl1
53           1    07/21/80  1546.3  reference.incl.pl1                >ldd>include>reference.incl.pl1
54           2    10/02/83  0828.4  symbol.incl.pl1                   >spec>on>pl128d>symbol.incl.pl1
55           3    07/21/80  1546.3  operator.incl.pl1                 >ldd>include>operator.incl.pl1
56           4    07/21/80  1546.3  nodes.incl.pl1                    >ldd>include>nodes.incl.pl1
57           5    04/07/83  1635.0  op_codes.incl.pl1                 >ldd>include>op_codes.incl.pl1
58           6    10/25/79  1645.8  cgsystem.incl.pl1                 >ldd>include>cgsystem.incl.pl1
59           7    10/25/79  1645.8  boundary.incl.pl1                 >ldd>include>boundary.incl.pl1
60           8    05/03/76  1320.4  data_types.incl.pl1               >ldd>include>data_types.incl.pl1
	NAMES DECLARED IN THIS COMPILATION.

IDENTIFIER	     OFFSET    LOC STORAGE CLASS   DATA TYPE		ATTRIBUTES AND REFERENCES
								(* indicates a set context)

NAMES DECLARED BY DECLARE STATEMENT.
aligned_ref              12(07)        based           bit(1)                   level 3 packed unaligned dcl 1-3 ref 113 149 149 149
arg_descriptor           31(11)        based           bit(1)                   level 4 packed unaligned dcl 2-3 ref 102
assign                                 constant        bit(9)                   initial dcl 5-8 ref 99
assign_desc_op                  000030 constant        entry                    external dcl 40 ref 109
atomic                          000106 automatic       bit(1)                   dcl 35 set ref 139* 147* 159*
attributes               31            based           structure                level 2 dcl 2-3
bit_string                             constant        fixed bin(15,0)          initial dcl 8-1 ref 149
bits                     12(06)        based           structure                level 2 packed unaligned dcl 1-3
bits_per_half                   000524 constant        fixed bin(8,0)           initial dcl 6-5 ref 149 149 149
c_dcl_size               30            based           fixed bin(24,0)          level 2 dcl 2-3 ref 149 149
c_length                  2            based           fixed bin(24,0)          level 2 dcl 1-3 ref 149
c_offset                  1            based           fixed bin(24,0)          level 2 dcl 1-3 ref 149
call_op                         000024 constant        entry                    external dcl 40 ref 74
cg_stat$cur_statement           000010 external static pointer                  dcl 31 set ref 92*
cg_stat$optimize                000012 external static bit(1)                   dcl 33 ref 113
check_o_and_s                   000016 constant        entry                    external dcl 40 ref 82
compile_exp                     000022 constant        entry                    external dcl 40 ref 135
compiler_developed       32(35)        based           structure                level 3 packed unaligned dcl 2-3
copy_temp                       000014 constant        entry                    external dcl 40 ref 129 160
data_type                12            based           fixed bin(5,0)           level 2 in structure "reference" packed unaligned
                                                                                  dcl 1-3 in procedure "eval_exp" ref 149 149
data_type                31            based           structure                level 3 in structure "symbol" packed unaligned
                                                                                  dcl 2-3 in procedure "eval_exp"
default_fix_bin_p                      constant        fixed bin(8,0)           initial dcl 6-5 ref 149
desc_size                              constant        bit(9)                   initial dcl 5-8 ref 80
error                           000020 constant        entry                    external dcl 40 ref 92
evaluated                12(13)        based           bit(1)                   level 3 packed unaligned dcl 1-3 set ref 72 96 164*
fixed                                                  builtin function         dcl 51 ref 149
hard_to_load             12(23)        based           bit(1)                   level 3 packed unaligned dcl 1-3 ref 149
info                     11            based           structure                level 2 packed unaligned dcl 1-3
length_fun                             constant        bit(9)                   initial dcl 5-8 ref 121
length_op                       000026 constant        entry                    external dcl 40 ref 123
misc_attributes          31(19)        based           structure                level 3 packed unaligned dcl 2-3
mod                                                    builtin function         dcl 51 ref 149
no_xr                                  parameter       bit(1)                   dcl 28 ref 26 113
node                                   based           structure                level 1 dcl 4-27
null                                                   builtin function         dcl 51 ref 64 83 90 92 92
op_code                   0(09)        based           bit(9)                   level 2 in structure "operator" packed unaligned
                                                                                  dcl 3-6 in procedure "eval_exp" ref 68
op_code                         000107 automatic       bit(9)                   dcl 35 in procedure "eval_exp" set ref 68* 70 80 99
                                                                                  121
operand                   1            based           pointer                  array level 2 packed unaligned dcl 3-6 set ref 72 89
                                                                                  101 129* 160*
operator                               based           structure                level 1 dcl 3-6
operator_node                          constant        bit(9)                   initial dcl 4-5 ref 66
packed                   33            based           bit(1)                   level 4 packed unaligned dcl 2-3 ref 113
prepare_operand                 000032 constant        entry                    external dcl 40 ref 139 147 159
pt                                     parameter       pointer                  dcl 28 ref 26 62
real_fix_bin_1                         constant        fixed bin(15,0)          initial dcl 8-1 ref 149
ref_count                 0(18)        based           fixed bin(17,0)          level 2 packed unaligned dcl 1-3 set ref 113 130*
                                                                                  132* 132
reference                              based           structure                level 1 dcl 1-3
reference_node                         constant        bit(9)                   initial dcl 4-5 ref 102
shared                    0(11)        based           bit(1)                   level 2 packed unaligned dcl 1-3 ref 127 160
sp                              000100 automatic       pointer                  dcl 35 set ref 101* 102 102 113 113 113 147* 147*
                                                                                  149 149 149 149 149 149 149 149 149 149 162*
std_call                               constant        bit(9)                   initial dcl 5-8 ref 70
storage                  11(23)        based           bit(1)                   level 4 packed unaligned dcl 1-3 set ref 75*
storage_class            32(09)        based           structure                level 3 packed unaligned dcl 2-3
symbol                                 based           structure                level 1 dcl 2-3 in procedure "eval_exp"
symbol                    3            based           pointer                  level 2 in structure "reference" packed unaligned
                                                                                  dcl 1-3 in procedure "eval_exp" ref 102 102 113
                                                                                  149 149 149
temp_ref                 12(11)        based           bit(1)                   level 3 packed unaligned dcl 1-3 ref 132
temporary                32(17)        based           bit(1)                   level 4 packed unaligned dcl 2-3 ref 102
tp                              000102 automatic       pointer                  dcl 35 set ref 74* 75 82* 83 85 89* 90 96 102 127
                                                                                  129* 129* 130 132 132 132 149 149 159* 159* 160
                                                                                  160* 160* 163* 164
type                                   based           bit(9)                   level 2 packed unaligned dcl 4-27 ref 66 102
units                     0(14)        based           fixed bin(3,0)           level 2 packed unaligned dcl 1-3 ref 149
unsigned                 31(24)        based           bit(1)                   level 4 packed unaligned dcl 2-3 ref 149
value_in                 11(09)        based           structure                level 3 packed unaligned dcl 1-3
word_                                  constant        fixed bin(3,0)           initial dcl 7-5 ref 149
xp                              000104 automatic       pointer                  dcl 35 set ref 62* 64 66 68 72 74* 77 82* 89 101
                                                                                  109* 109* 123* 123* 129 135* 139* 139* 160
xr                              000110 automatic       fixed bin(17,0)          dcl 35 set ref 162* 163*
xr_man$load_any_var             000034 constant        entry                    external dcl 40 ref 162
xr_man$update_xr                000036 constant        entry                    external dcl 40 ref 163

NAMES DECLARED BY DECLARE STATEMENT AND NEVER REFERENCED.
a_format                               internal static bit(9)                   initial dcl 5-8
abs_fun                                internal static bit(9)                   initial dcl 5-8
acos_fun                               internal static bit(9)                   initial dcl 5-8
acosd_fun                              internal static bit(9)                   initial dcl 5-8
add                                    internal static bit(9)                   initial dcl 5-8
addbitno_fun                           internal static bit(9)                   initial dcl 5-8
addcharno_fun                          internal static bit(9)                   initial dcl 5-8
addr_fun                               internal static bit(9)                   initial dcl 5-8
addr_fun_bits                          internal static bit(9)                   initial dcl 5-8
addrel_fun                             internal static bit(9)                   initial dcl 5-8
allocation_fun                         internal static bit(9)                   initial dcl 5-8
allot_auto                             internal static bit(9)                   initial dcl 5-8
allot_based                            internal static bit(9)                   initial dcl 5-8
allot_ctl                              internal static bit(9)                   initial dcl 5-8
allot_var                              internal static bit(9)                   initial dcl 5-8
and_bits                               internal static bit(9)                   initial dcl 5-8
array_node                             internal static bit(9)                   initial dcl 4-5
asin_fun                               internal static bit(9)                   initial dcl 5-8
asind_fun                              internal static bit(9)                   initial dcl 5-8
assign_by_name                         internal static bit(9)                   initial dcl 5-8
assign_round                           internal static bit(9)                   initial dcl 5-8
assign_size_ck                         internal static bit(9)                   initial dcl 5-8
assign_zero                            internal static bit(9)                   initial dcl 5-8
atan_fun                               internal static bit(9)                   initial dcl 5-8
atand_fun                              internal static bit(9)                   initial dcl 5-8
b_format                               internal static bit(9)                   initial dcl 5-8
baseno_fun                             internal static bit(9)                   initial dcl 5-8
baseptr_fun                            internal static bit(9)                   initial dcl 5-8
bit_                                   internal static fixed bin(3,0)           initial dcl 7-5
bit_pointer                            internal static bit(9)                   initial dcl 5-8
bit_to_char                            internal static bit(9)                   initial dcl 5-8
bit_to_word                            internal static bit(9)                   initial dcl 5-8
bitno_fun                              internal static bit(9)                   initial dcl 5-8
bits_per_char                          internal static fixed bin(8,0)           initial dcl 6-5
bits_per_four_words                    internal static fixed bin(8,0)           initial dcl 6-5
bits_per_packed_digit                  internal static fixed bin(8,1)           initial dcl 6-35
bits_per_two_words                     internal static fixed bin(8,0)           initial dcl 6-5
bits_per_word                          internal static fixed bin(8,0)           initial dcl 6-5
bits_per_words                         internal static fixed bin(8,0)           initial array dcl 6-5
block_node                             internal static bit(9)                   initial dcl 4-5
bn_format                              internal static bit(9)                   initial dcl 5-8
bool_fun                               internal static bit(9)                   initial dcl 5-8
bound_ck                               internal static bit(9)                   initial dcl 5-8
bound_node                             internal static bit(9)                   initial dcl 4-5
break_even_bits                        internal static fixed bin(8,0)           initial dcl 6-5
break_even_words                       internal static fixed bin(8,0)           initial dcl 6-5
by_name_agg_node                       internal static bit(9)                   initial dcl 4-5
byte_fun                               internal static bit(9)                   initial dcl 5-8
c_format                               internal static bit(9)                   initial dcl 5-8
cat_string                             internal static bit(9)                   initial dcl 5-8
ceil_fun                               internal static bit(9)                   initial dcl 5-8
cg_stat$cur_block                      external static pointer                  dcl 31
cg_stat$first_op                       external static pointer                  dcl 31
cg_stat$next_op                        external static pointer                  dcl 31
char_string                            internal static fixed bin(15,0)          initial dcl 8-1
char_to_word                           internal static bit(9)                   initial dcl 5-8
character_                             internal static fixed bin(3,0)           initial dcl 7-5
charno_fun                             internal static bit(9)                   initial dcl 5-8
chars_per_word                         internal static fixed bin(8,0)           initial dcl 6-5
clock_fun                              internal static bit(9)                   initial dcl 5-8
close_file                             internal static bit(9)                   initial dcl 5-8
codeptr_fun                            internal static bit(9)                   initial dcl 5-8
column_format                          internal static bit(9)                   initial dcl 5-8
complex_fix_bin_1                      internal static fixed bin(15,0)          initial dcl 8-1
complex_fix_bin_2                      internal static fixed bin(15,0)          initial dcl 8-1
complex_fix_dec                        internal static fixed bin(15,0)          initial dcl 8-1
complex_flt_bin_1                      internal static fixed bin(15,0)          initial dcl 8-1
complex_flt_bin_2                      internal static fixed bin(15,0)          initial dcl 8-1
complex_flt_dec                        internal static fixed bin(15,0)          initial dcl 8-1
complex_fun                            internal static bit(9)                   initial dcl 5-8
conjg_fun                              internal static bit(9)                   initial dcl 5-8
context_node                           internal static bit(9)                   initial dcl 4-5
convert_offset                         internal static fixed bin(8,1)           initial array dcl 6-35
convert_size                           internal static fixed bin(8,0)           initial array dcl 6-5
copy                                   automatic       bit(1)                   dcl 35
copy_string                            internal static bit(9)                   initial dcl 5-8
copy_words                             internal static bit(9)                   initial dcl 5-8
cos_fun                                internal static bit(9)                   initial dcl 5-8
cosd_fun                               internal static bit(9)                   initial dcl 5-8
create_list                     000000 constant        entry                    external dcl 40
cross_reference_node                   internal static bit(9)                   initial dcl 4-5
default_node                           internal static bit(9)                   initial dcl 4-5
delete_file                            internal static bit(9)                   initial dcl 5-8
digit_                                 internal static fixed bin(3,0)           initial dcl 7-5
digit_to_bit                           internal static bit(9)                   initial dcl 5-8
div                                    internal static bit(9)                   initial dcl 5-8
do_fun                                 internal static bit(9)                   initial dcl 5-8
do_spec                                internal static bit(9)                   initial dcl 5-8
e_format                               internal static bit(9)                   initial dcl 5-8
empty_area                             internal static bit(9)                   initial dcl 5-8
enable_on                              internal static bit(9)                   initial dcl 5-8
entry_variable                         internal static fixed bin(15,0)          initial dcl 8-1
environmentptr_fun                     internal static bit(9)                   initial dcl 5-8
equal                                  internal static bit(9)                   initial dcl 5-8
ex_prologue                            internal static bit(9)                   initial dcl 5-8
exp                                    internal static bit(9)                   initial dcl 5-8
exp_fun                                internal static bit(9)                   initial dcl 5-8
ext_entry_in                           internal static fixed bin(15,0)          initial dcl 8-1
ext_entry_out                          internal static fixed bin(15,0)          initial dcl 8-1
f_format                               internal static bit(9)                   initial dcl 5-8
floor_fun                              internal static bit(9)                   initial dcl 5-8
format_value_node                      internal static bit(9)                   initial dcl 4-5
fortran_read                           internal static bit(9)                   initial dcl 5-8
fortran_write                          internal static bit(9)                   initial dcl 5-8
free_based                             internal static bit(9)                   initial dcl 5-8
free_ctl                               internal static bit(9)                   initial dcl 5-8
free_var                               internal static bit(9)                   initial dcl 5-8
ftn_file_manip                         internal static bit(9)                   initial dcl 5-8
ftn_trans_loop                         internal static bit(9)                   initial dcl 5-8
get_data_trans                         internal static bit(9)                   initial dcl 5-8
get_edit_trans                         internal static bit(9)                   initial dcl 5-8
get_file                               internal static bit(9)                   initial dcl 5-8
get_list_trans                         internal static bit(9)                   initial dcl 5-8
get_string                             internal static bit(9)                   initial dcl 5-8
greater_or_equal                       internal static bit(9)                   initial dcl 5-8
greater_than                           internal static bit(9)                   initial dcl 5-8
half_                                  internal static fixed bin(3,0)           initial dcl 7-5
half_to_word                           internal static bit(9)                   initial dcl 5-8
imag_fun                               internal static bit(9)                   initial dcl 5-8
index_after_fun                        internal static bit(9)                   initial dcl 5-8
index_before_fun                       internal static bit(9)                   initial dcl 5-8
index_fun                              internal static bit(9)                   initial dcl 5-8
index_rev_fun                          internal static bit(9)                   initial dcl 5-8
int_entry                              internal static fixed bin(15,0)          initial dcl 8-1
int_entry_other                        internal static fixed bin(15,0)          initial dcl 8-1
join                                   internal static bit(9)                   initial dcl 5-8
jump                                   internal static bit(9)                   initial dcl 5-8
jump_false                             internal static bit(9)                   initial dcl 5-8
jump_if_eq                             internal static bit(9)                   initial dcl 5-8
jump_if_ge                             internal static bit(9)                   initial dcl 5-8
jump_if_gt                             internal static bit(9)                   initial dcl 5-8
jump_if_le                             internal static bit(9)                   initial dcl 5-8
jump_if_lt                             internal static bit(9)                   initial dcl 5-8
jump_if_ne                             internal static bit(9)                   initial dcl 5-8
jump_true                              internal static bit(9)                   initial dcl 5-8
l_parn                                 internal static bit(9)                   initial dcl 5-8
label_array_element_node               internal static bit(9)                   initial dcl 4-5
label_constant                         internal static fixed bin(15,0)          initial dcl 8-1
label_node                             internal static bit(9)                   initial dcl 4-5
label_size                             internal static fixed bin(8,0)           initial dcl 6-5
label_variable                         internal static fixed bin(15,0)          initial dcl 8-1
less_or_equal                          internal static bit(9)                   initial dcl 5-8
less_than                              internal static bit(9)                   initial dcl 5-8
line_format                            internal static bit(9)                   initial dcl 5-8
list_node                              internal static bit(9)                   initial dcl 4-5
local_label_variable                   internal static fixed bin(15,0)          initial dcl 8-1
locate_file                            internal static bit(9)                   initial dcl 5-8
lock_file                              internal static bit(9)                   initial dcl 5-8
lock_fun                               internal static bit(9)                   initial dcl 5-8
log10_fun                              internal static bit(9)                   initial dcl 5-8
log2_fun                               internal static bit(9)                   initial dcl 5-8
log_fun                                internal static bit(9)                   initial dcl 5-8
loop                                   internal static bit(9)                   initial dcl 5-8
machine_state_node                     internal static bit(9)                   initial dcl 4-5
make_desc                              internal static bit(9)                   initial dcl 5-8
max_dec_scale                          internal static fixed bin(8,0)           initial dcl 6-5
max_fun                                internal static bit(9)                   initial dcl 5-8
max_index_register_value               internal static fixed bin(31,0)          initial dcl 6-38
max_length_p                           internal static fixed bin(8,0)           initial dcl 6-5
max_number_of_operands                 internal static fixed bin(15,0)          initial dcl 3-15
max_offset                             internal static fixed bin(8,0)           initial array dcl 6-5
max_p_fix_bin_1                        internal static fixed bin(8,0)           initial dcl 6-5
max_p_fix_dec                          internal static fixed bin(8,0)           initial dcl 6-5
max_p_flt_bin_1                        internal static fixed bin(8,0)           initial dcl 6-5
max_p_xreg                             internal static fixed bin(8,0)           initial dcl 6-5
max_short_size                         internal static fixed bin(8,0)           initial array dcl 6-5
min_dec_scale                          internal static fixed bin(8,0)           initial dcl 6-5
min_fun                                internal static bit(9)                   initial dcl 5-8
mod2_                                  internal static fixed bin(3,0)           initial dcl 7-5
mod4_                                  internal static fixed bin(3,0)           initial dcl 7-5
mod_bit                                internal static bit(9)                   initial dcl 5-8
mod_byte                               internal static bit(9)                   initial dcl 5-8
mod_fun                                internal static bit(9)                   initial dcl 5-8
mod_half                               internal static bit(9)                   initial dcl 5-8
mod_word                               internal static bit(9)                   initial dcl 5-8
mult                                   internal static bit(9)                   initial dcl 5-8
negate                                 internal static bit(9)                   initial dcl 5-8
nop                                    internal static bit(9)                   initial dcl 5-8
not_bits                               internal static bit(9)                   initial dcl 5-8
not_equal                              internal static bit(9)                   initial dcl 5-8
off_fun                                internal static bit(9)                   initial dcl 5-8
open_file                              internal static bit(9)                   initial dcl 5-8
or_bits                                internal static bit(9)                   initial dcl 5-8
pack                                   internal static bit(9)                   initial dcl 5-8
packed_digits_per_char                 internal static fixed bin(8,0)           initial dcl 6-5
packed_digits_per_word                 internal static fixed bin(8,0)           initial dcl 6-5
packed_ptr                             internal static fixed bin(15,0)          initial dcl 8-1
page_format                            internal static bit(9)                   initial dcl 5-8
param_desc_ptr                         internal static bit(9)                   initial dcl 5-8
param_ptr                              internal static bit(9)                   initial dcl 5-8
picture_format                         internal static bit(9)                   initial dcl 5-8
pl1_mod_fun                            internal static bit(9)                   initial dcl 5-8
prefix_plus                            internal static bit(9)                   initial dcl 5-8
ptr_fun                                internal static bit(9)                   initial dcl 5-8
put_control                            internal static bit(9)                   initial dcl 5-8
put_data_trans                         internal static bit(9)                   initial dcl 5-8
put_edit_trans                         internal static bit(9)                   initial dcl 5-8
put_field                              internal static bit(9)                   initial dcl 5-8
put_field_chk                          internal static bit(9)                   initial dcl 5-8
put_file                               internal static bit(9)                   initial dcl 5-8
put_list_trans                         internal static bit(9)                   initial dcl 5-8
put_string                             internal static bit(9)                   initial dcl 5-8
r_format                               internal static bit(9)                   initial dcl 5-8
r_parn                                 internal static bit(9)                   initial dcl 5-8
range_ck                               internal static bit(9)                   initial dcl 5-8
rank_fun                               internal static bit(9)                   initial dcl 5-8
read_file                              internal static bit(9)                   initial dcl 5-8
real_fix_bin_2                         internal static fixed bin(15,0)          initial dcl 8-1
real_fix_dec                           internal static fixed bin(15,0)          initial dcl 8-1
real_flt_bin_1                         internal static fixed bin(15,0)          initial dcl 8-1
real_flt_bin_2                         internal static fixed bin(15,0)          initial dcl 8-1
real_flt_dec                           internal static fixed bin(15,0)          initial dcl 8-1
real_fun                               internal static bit(9)                   initial dcl 5-8
record_io                              internal static bit(9)                   initial dcl 5-8
refer                                  internal static bit(9)                   initial dcl 5-8
rel_fun                                internal static bit(9)                   initial dcl 5-8
repeat_fun                             internal static bit(9)                   initial dcl 5-8
return_bits                            internal static bit(9)                   initial dcl 5-8
return_string                          internal static bit(9)                   initial dcl 5-8
return_value                           internal static bit(9)                   initial dcl 5-8
return_words                           internal static bit(9)                   initial dcl 5-8
reverse_fun                            internal static bit(9)                   initial dcl 5-8
revert_on                              internal static bit(9)                   initial dcl 5-8
rewrite_file                           internal static bit(9)                   initial dcl 5-8
round_fun                              internal static bit(9)                   initial dcl 5-8
search_fun                             internal static bit(9)                   initial dcl 5-8
search_rev_fun                         internal static bit(9)                   initial dcl 5-8
segno_fun                              internal static bit(9)                   initial dcl 5-8
setbitno_fun                           internal static bit(9)                   initial dcl 5-8
setcharno_fun                          internal static bit(9)                   initial dcl 5-8
sf_par_node                            internal static bit(9)                   initial dcl 4-5
sign_fun                               internal static bit(9)                   initial dcl 5-8
signal_on                              internal static bit(9)                   initial dcl 5-8
sin_fun                                internal static bit(9)                   initial dcl 5-8
sind_fun                               internal static bit(9)                   initial dcl 5-8
skip_format                            internal static bit(9)                   initial dcl 5-8
source_node                            internal static bit(9)                   initial dcl 4-5
sqrt_fun                               internal static bit(9)                   initial dcl 5-8
stack_ptr                              internal static bit(9)                   initial dcl 5-8
stackbaseptr_fun                       internal static bit(9)                   initial dcl 5-8
stackframeptr_fun                      internal static bit(9)                   initial dcl 5-8
stacq_fun                              internal static bit(9)                   initial dcl 5-8
statement_node                         internal static bit(9)                   initial dcl 4-5
std_arg_list                           internal static bit(9)                   initial dcl 5-8
std_entry                              internal static bit(9)                   initial dcl 5-8
std_return                             internal static bit(9)                   initial dcl 5-8
stop                                   internal static bit(9)                   initial dcl 5-8
stream_prep                            internal static bit(9)                   initial dcl 5-8
sub                                    internal static bit(9)                   initial dcl 5-8
substr                                                 builtin function         dcl 51
symbol_node                            internal static bit(9)                   initial dcl 4-5
tan_fun                                internal static bit(9)                   initial dcl 5-8
tand_fun                               internal static bit(9)                   initial dcl 5-8
temporary_node                         internal static bit(9)                   initial dcl 4-5
terminate_trans                        internal static bit(9)                   initial dcl 5-8
token_node                             internal static bit(9)                   initial dcl 4-5
translate_fun                          internal static bit(9)                   initial dcl 5-8
trunc_fun                              internal static bit(9)                   initial dcl 5-8
units_per_word                         internal static fixed bin(8,0)           initial array dcl 6-5
unlock_file                            internal static bit(9)                   initial dcl 5-8
unpack                                 internal static bit(9)                   initial dcl 5-8
unpacked_ptr                           internal static fixed bin(15,0)          initial dcl 8-1
vclock_fun                             internal static bit(9)                   initial dcl 5-8
verify_fun                             internal static bit(9)                   initial dcl 5-8
verify_ltrim_fun                       internal static bit(9)                   initial dcl 5-8
verify_rev_fun                         internal static bit(9)                   initial dcl 5-8
verify_rtrim_fun                       internal static bit(9)                   initial dcl 5-8
word_to_mod2                           internal static bit(9)                   initial dcl 5-8
word_to_mod4                           internal static bit(9)                   initial dcl 5-8
word_to_mod8                           internal static bit(9)                   initial dcl 5-8
wordno_fun                             internal static bit(9)                   initial dcl 5-8
write_file                             internal static bit(9)                   initial dcl 5-8
x_format                               internal static bit(9)                   initial dcl 5-8
xor_bits                               internal static bit(9)                   initial dcl 5-8

NAMES DECLARED BY EXPLICIT CONTEXT.
done                            000056 constant        label                    dcl 77 ref 64 93 96 110 113 124 142
eval_exp                        000010 constant        entry                    external dcl 26
use_xr                          000322 constant        entry                    internal dcl 145 ref 113

THERE WERE NO NAMES DECLARED BY CONTEXT OR IMPLICATION.

STORAGE REQUIREMENTS FOR THIS PROGRAM.

	Object	Text	Link	Symbol	Defs	Static
Start          0       0       670         730     525         700
Length      1252     525        40         306     143           0

BLOCK NAME	         STACK SIZE     TYPE		WHY NONQUICK/WHO SHARES STACK FRAME
eval_exp                            122 external procedure  is an external procedure.
use_xr                                  internal procedure  shares stack frame of external procedure eval_exp.

STORAGE FOR AUTOMATIC VARIABLES.

STACK FRAME                 LOC IDENTIFIER                  BLOCK NAME
eval_exp                 000100 sp                          eval_exp
                         000102 tp                          eval_exp
                         000104 xp                          eval_exp
                         000106 atomic                      eval_exp
                         000107 op_code                     eval_exp
                         000110 xr                          eval_exp

THE FOLLOWING EXTERNAL OPERATORS ARE USED BY THIS PROGRAM.
call_ext_out        return              mod_fx1             ext_entry

THE FOLLOWING EXTERNAL ENTRIES ARE CALLED BY THIS PROGRAM.
assign_desc_op                call_op                       check_o_and_s                 compile_exp
copy_temp                     error                         length_op                     prepare_operand
xr_man$load_any_var           xr_man$update_xr

THE FOLLOWING EXTERNAL VARIABLES ARE USED BY THIS PROGRAM.
cg_stat$cur_statement         cg_stat$optimize


   LINE    LOC      LINE    LOC      LINE    LOC      LINE    LOC      LINE    LOC      LINE    LOC      LINE    LOC
     26 000004        62 000015        64 000021        66 000025        68 000031        70 000035        72 000037
     74 000043        75 000053        77 000056        80 000062        82 000064        83 000074        85 000100
     89 000104        90 000107        92 000113        93 000132        96 000133        99 000136       101 000141
    102 000144       109 000161       110 000171       112 000172       113 000173       121 000222       123 000225
    124 000235       127 000236       129 000241       130 000256       131 000261       132 000262       135 000273
    137 000302       139 000303       142 000321       145 000322       147 000324       149 000343       159 000421
    160 000440       162 000460       163 000474       164 000505       165 000510       168 000514


                                          -----------------------------------------------------------


Historical Background

This edition of the Multics software materials and documentation is provided and donated
to Massachusetts Institute of Technology by Group BULL including BULL HN Information Systems Inc.
as a contribution to computer science knowledge.
This donation is made also to give evidence of the common contributions of Massachusetts Institute of Technology,
Bell Laboratories, General Electric, Honeywell Information Systems Inc., Honeywell BULL Inc., Groupe BULL
and BULL HN Information Systems Inc. to the development of this operating system.
Multics development was initiated by Massachusetts Institute of Technology Project MAC (1963-1970),
renamed the MIT Laboratory for Computer Science and Artificial Intelligence in the mid 1970s, under the leadership
of Professor Fernando Jose Corbato. Users consider that Multics provided the best software architecture
for managing computer hardware properly and for executing programs. Many subsequent operating systems
incorporated Multics principles.
Multics was distributed in 1975 to 2000 by Group Bull in Europe , and in the U.S. by Bull HN Information Systems Inc.,
as successor in interest by change in name only to Honeywell Bull Inc. and Honeywell Information Systems Inc. .

                                          -----------------------------------------------------------

Permission to use, copy, modify, and distribute these programs and their documentation for any purpose and without
fee is hereby granted,provided that the below copyright notice and historical background appear in all copies
and that both the copyright notice and historical background and this permission notice appear in supporting
documentation, and that the names of MIT, HIS, BULL or BULL HN not be used in advertising or publicity pertaining
to distribution of the programs without specific prior written permission.
    Copyright 1972 by Massachusetts Institute of Technology and Honeywell Information Systems Inc.
    Copyright 2006 by BULL HN Information Systems Inc.
    Copyright 2006 by Bull SAS
    All Rights Reserved
