ASSEMBLY LISTING OF SEGMENT >dumps>old>recomp>fast_related_data_.alm
ASSEMBLED ON:	11/04/82  1846.7 mst Thu
OPTIONS USED:	list
ASSEMBLED BY:	ALM Version  6.4  April 1981
ASSEMBLER CREATED:	11/03/82  1423.6 mst Wed

                                     1  " ***********************************************************
                                     2  " *                                                         *
                                     3  " * Copyright, (C) Honeywell Information Systems Inc., 1982 *
                                     4  " *                                                         *
                                     5  " * Copyright (c) 1972 by Massachusetts Institute of        *
                                     6  " * Technology and Honeywell Information Systems, Inc.      *
                                     7  " *                                                         *
                                     8  " ***********************************************************
                                     9
                        000010      10  	segdef	in_dfast
                        000011      11  	segdef	in_fast_or_dfast
                        000012      12  	segdef	fortran_io_initiated
                        000013      13  	segdef	chaining
                        000016      14  	segdef	chain_entry
                        000014      15  	segdef	fortran_buffer_p
                        000026      16  	segdef	basic_area_p
                        000022      17  	segdef	terminate_run
                                    18
                                    19
                                    20  	use	internal_static
    000010                          21  in_dfast:
    000010  aa   000000 000000      22  	dec	0
                                    23
    000011                          24  in_fast_or_dfast:
    000011  aa   000000 000000      25  	dec	0
                                    26
    000012                          27  fortran_io_initiated:
    000012  aa   000000 000000      28  	dec	0
                                    29
    000013                          30  chaining:
    000013  aa   000000 000000      31  	dec	0
                                    32
                                    33  	even
    000014                          34  fortran_buffer_p:
    000014  aa   077777 000043      35  	its	-1,1
    000015  aa   000001 000000
                                    36
    000016                          37  chain_entry:
    000016  aa   077777 000043      38  	its	-1,1
    000017  aa   000001 000000
    000020  aa   077777 000043      39  	its	-1,1
    000021  aa   000001 000000
                                    40
    000022                          41  terminate_run:
    000022  aa   077777 000043      42  	its	-1,1
    000023  aa   000001 000000
    000024  aa   077777 000043      43  	its	-1,1
    000025  aa   000001 000000
                                    44
    000026                          45  basic_area_p:
    000026  aa   077777 000043      46  	its	-1,1
    000027  aa   000001 000000
                                    47
                                    48  	join	/link/internal_static
                                    49  	end

NO LITERALS

NAME DEFINITIONS FOR ENTRY POINTS AND SEGDEFS

    000000  5a   000003 000000
    000001  5a   000113 600000
    000002  aa   000000 000000
    000003  55   000013 000002
    000004  5a   000002 400003
    000005  55   000006 000013
    000006  aa  022 146 141 163
    000007  aa  164 137 162 145
    000010  aa  154 141 164 145
    000011  aa  144 137 144 141
    000012  aa  164 141 137 000
    000013  55   000022 000003
    000014  2a   000022 400001
    000015  55   000016 000003
    000016  aa  015 164 145 162         terminate_run
    000017  aa  155 151 156 141
    000020  aa  164 145 137 162
    000021  aa  165 156 000 000
    000022  55   000031 000013
    000023  2a   000026 400001
    000024  55   000025 000003
    000025  aa  014 142 141 163         basic_area_p
    000026  aa  151 143 137 141
    000027  aa  162 145 141 137
    000030  aa  160 000 000 000
    000031  55   000041 000022
    000032  2a   000014 400001
    000033  55   000034 000003
    000034  aa  020 146 157 162         fortran_buffer_p
    000035  aa  164 162 141 156
    000036  aa  137 142 165 146
    000037  aa  146 145 162 137
    000040  aa  160 000 000 000
    000041  55   000047 000031
    000042  2a   000016 400001
    000043  55   000044 000003
    000044  aa  013 143 150 141         chain_entry
    000045  aa  151 156 137 145
    000046  aa  156 164 162 171
    000047  55   000055 000041
    000050  2a   000013 400001
    000051  55   000052 000003
    000052  aa  010 143 150 141         chaining
    000053  aa  151 156 151 156
    000054  aa  147 000 000 000
    000055  55   000066 000047
    000056  2a   000012 400001
    000057  55   000060 000003
    000060  aa  024 146 157 162         fortran_io_initiated
    000061  aa  164 162 141 156
    000062  aa  137 151 157 137
    000063  aa  151 156 151 164
    000064  aa  151 141 164 145
    000065  aa  144 000 000 000
    000066  55   000076 000055
    000067  2a   000011 400001
    000070  55   000071 000003
    000071  aa  020 151 156 137         in_fast_or_dfast
    000072  aa  146 141 163 164
    000073  aa  137 157 162 137
    000074  aa  144 146 141 163
    000075  aa  164 000 000 000
    000076  55   000104 000066
    000077  2a   000010 400001
    000100  55   000101 000003
    000101  aa  010 151 156 137         in_dfast
    000102  aa  144 146 141 163
    000103  aa  164 000 000 000
    000104  55   000002 000076
    000105  6a   000000 400002
    000106  55   000107 000003
    000107  aa  014 163 171 155         symbol_table
    000110  aa  142 157 154 137
    000111  aa  164 141 142 154
    000112  aa  145 000 000 000

DEFINITIONS HASH TABLE

    000113  aa   000000 000015
    000114  5a   000022 000000
    000115  aa   000000 000000
    000116  aa   000000 000000
    000117  aa   000000 000000
    000120  aa   000000 000000
    000121  5a   000066 000000
    000122  5a   000031 000000
    000123  5a   000076 000000
    000124  5a   000041 000000
    000125  5a   000013 000000
    000126  5a   000047 000000
    000127  5a   000104 000000
    000130  5a   000055 000000

NO EXTERNAL NAMES

NO TRAP POINTER WORDS

TYPE PAIR BLOCKS

    000131  aa   000001 000000
    000132  aa   000000 000000

INTERNAL EXPRESSION WORDS

    000133  aa   000000 000000
LINKAGE INFORMATION

    000000  aa   000000 000000
    000001  0a   000000 000000
    000002  aa   000000 000000
    000003  aa   000000 000000
    000004  aa   000000 000000
    000005  aa   000000 000000
    000006  22   000030 000030
    000007  a2   000000 000020
SYMBOL INFORMATION

SYMBOL TABLE HEADER

    000000  aa   000000 000001
    000001  aa   163171 155142
    000002  aa   164162 145145
    000003  aa   000000 000004
    000004  aa   000000 111316
    000005  aa   510113 575622
    000006  aa   000000 111320
    000007  aa   101405 537435
    000010  aa   141154 155040
    000011  aa   040040 040040
    000012  aa   000024 000040
    000013  aa   000034 000040
    000014  aa   000044 000100
    000015  aa   000002 000002
    000016  aa   000064 000000
    000017  aa   000000 000120
    000020  aa   000000 000104
    000021  aa   000000 000106
    000022  aa   000112 000104
    000023  aa   000064 000000
    000024  aa   101114 115040
    000025  aa   126145 162163
    000026  aa   151157 156040
    000027  aa   040066 056064
    000030  aa   040040 101160
    000031  aa   162151 154040
    000032  aa   061071 070061
    000033  aa   040040 040040
    000034  aa   110157 154155
    000035  aa   163164 145144
    000036  aa   164056 123171
    000037  aa   163115 141151
    000040  aa   156164 056155
    000041  aa   040040 040040
    000042  aa   040040 040040
    000043  aa   040040 040040
    000044  aa   154151 163164
    000045  aa   040040 040040
    000046  aa   040040 040040
    000047  aa   040040 040040
    000050  aa   040040 040040
    000051  aa   040040 040040
    000052  aa   040040 040040
    000053  aa   040040 040040
    000054  aa   040040 040040
    000055  aa   040040 040040
    000056  aa   040040 040040
    000057  aa   040040 040040
    000060  aa   040040 040040
    000061  aa   040040 040040
    000062  aa   040040 040040
    000063  aa   040040 040040
    000064  aa   000000 000001
    000065  aa   000000 000001
    000066  aa   000072 000050
    000067  aa   113171 047154
    000070  aa   000000 111320
    000071  aa   005153 000000
    000072  aa   076144 165155          >dumps>old>recomp>fast_related_data_.alm
    000073  aa   160163 076157
    000074  aa   154144 076162
    000075  aa   145143 157155
    000076  aa   160076 146141
    000077  aa   163164 137162
    000100  aa   145154 141164
    000101  aa   145144 137144
    000102  aa   141164 141137
    000103  aa   056141 154155
               MULTICS ASSEMBLY CROSS REFERENCE LISTING

   Value        Symbol                   Source file   Line number

          26    basic_area_p             fast_related_data_:        16,   45.
          13    chaining                 fast_related_data_:        13,   30.
          16    chain_entry              fast_related_data_:        14,   37.
          14    fortran_buffer_p         fast_related_data_:        15,   34.
          12    fortran_io_initiated     fast_related_data_:        12,   27.
          10    internal_static          fast_related_data_:        20,   48.
          10    in_dfast                 fast_related_data_:        10,   21.
          11    in_fast_or_dfast         fast_related_data_:        11,   24.
          22    terminate_run            fast_related_data_:        17,   41.


NO FATAL ERRORS


                                          -----------------------------------------------------------


Historical Background

This edition of the Multics software materials and documentation is provided and donated
to Massachusetts Institute of Technology by Group BULL including BULL HN Information Systems Inc.
as a contribution to computer science knowledge.
This donation is made also to give evidence of the common contributions of Massachusetts Institute of Technology,
Bell Laboratories, General Electric, Honeywell Information Systems Inc., Honeywell BULL Inc., Groupe BULL
and BULL HN Information Systems Inc. to the development of this operating system.
Multics development was initiated by Massachusetts Institute of Technology Project MAC (1963-1970),
renamed the MIT Laboratory for Computer Science and Artificial Intelligence in the mid 1970s, under the leadership
of Professor Fernando Jose Corbato. Users consider that Multics provided the best software architecture
for managing computer hardware properly and for executing programs. Many subsequent operating systems
incorporated Multics principles.
Multics was distributed in 1975 to 2000 by Group Bull in Europe , and in the U.S. by Bull HN Information Systems Inc.,
as successor in interest by change in name only to Honeywell Bull Inc. and Honeywell Information Systems Inc. .

                                          -----------------------------------------------------------

Permission to use, copy, modify, and distribute these programs and their documentation for any purpose and without
fee is hereby granted,provided that the below copyright notice and historical background appear in all copies
and that both the copyright notice and historical background and this permission notice appear in supporting
documentation, and that the names of MIT, HIS, BULL or BULL HN not be used in advertising or publicity pertaining
to distribution of the programs without specific prior written permission.
    Copyright 1972 by Massachusetts Institute of Technology and Honeywell Information Systems Inc.
    Copyright 2006 by BULL HN Information Systems Inc.
    Copyright 2006 by Bull SAS
    All Rights Reserved
