ASSEMBLY LISTING OF SEGMENT >spec>on>7138.pbf>fm_sys_pn_tbl_util_.alm
ASSEMBLED ON:	03/05/85  0840.2 mst Tue
OPTIONS USED:	list
ASSEMBLED BY:	ALM Version  6.6  November 1982
ASSEMBLER CREATED:	09/21/83  1227.3 mst Wed

                                     1  " ***********************************************************
                                     2  " *                                                         *
                                     3  " * Copyright, (C) Honeywell Information Systems Inc., 1984 *
                                     4  " *                                                         *
                                     5  " ***********************************************************
                                     6  "
                                     7  "  DESCRIPTION:
                                     8  "
                                     9  "       This is the fm_sys_pn_tbl_util_ transfer vector, which transfers
                                    10  "  to entries which manipulate the Data Management file manager's
                                    11  "  sys_pn_tbl.  The sys_pn_tbl is a registry of files which potentially
                                    12  "  have outstanding before images to be processed.
                                    13
                                    14  " HISTORY:
                                    15  " Written by Matthew Pierret, 10/29/84.
                                    16  " Modified:
                                    17  " 12/20/84 by Matthew Pierret:  Added the entry opens.
                                    18  "
                                    19  " " " " " " " " " " " " " " " " " " " " " " " " " " " " " " " " " " " "
                                    20
    000000                          21            name     fm_sys_pn_tbl_util_
                                    22
                                    23            macro    transfer
                              1     24            entry    &1
                              2     25  &1:
                              3     26            tra      &2
                              4     27
                              5     28            &end
                                    29
                                    30  	transfer  get_path,fm_sys_pn_tbl_get_path$fm_sys_pn_tbl_get_path
                        000000                    entry    get_path
    000000                              get_path:
    000000  4a  4 00010 7101 20                   tra      fm_sys_pn_tbl_get_path$fm_sys_pn_tbl_get_path

                                    31            transfer  delete,fm_sys_pn_tbl_delete$fm_sys_pn_tbl_delete
                        000001                    entry    delete
    000001                              delete:
    000001  4a  4 00012 7101 20                   tra      fm_sys_pn_tbl_delete$fm_sys_pn_tbl_delete

                                    32            transfer  insert,fm_sys_pn_tbl_insert$fm_sys_pn_tbl_insert
                        000002                    entry    insert
    000002                              insert:
    000002  4a  4 00014 7101 20                   tra      fm_sys_pn_tbl_insert$fm_sys_pn_tbl_insert

                                    33            transfer  opens,fm_sys_pn_tbl_opens$fm_sys_pn_tbl_opens
                        000003                    entry    opens
    000003                              opens:
    000003  4a  4 00016 7101 20                   tra      fm_sys_pn_tbl_opens$fm_sys_pn_tbl_opens

                                    34            transfer  redelete_force,fm_sys_pn_tbl_delete$redelete_force
                        000004                    entry    redelete_force
    000004                              redelete_force:
    000004  4a  4 00020 7101 20                   tra      fm_sys_pn_tbl_delete$redelete_force

                                    35            transfer  rename,fm_sys_pn_tbl_rename$fm_sys_pn_tbl_rename
                        000005                    entry    rename
    000005                              rename:
    000005  4a  4 00022 7101 20                   tra      fm_sys_pn_tbl_rename$fm_sys_pn_tbl_rename

                                    36
                                    37            end
ENTRY SEQUENCES

    000006  5a   000046 0000 00
    000007  aa  7 00046 2721 20
    000010  0a   000000 7100 00
    000011  5a   000041 0000 00
    000012  aa  7 00046 2721 20
    000013  0a   000001 7100 00
    000014  5a   000034 0000 00
    000015  aa  7 00046 2721 20
    000016  0a   000002 7100 00
    000017  5a   000027 0000 00
    000020  aa  7 00046 2721 20
    000021  0a   000003 7100 00
    000022  5a   000020 0000 00
    000023  aa  7 00046 2721 20
    000024  0a   000004 7100 00
    000025  5a   000013 0000 00
    000026  aa  7 00046 2721 20
    000027  0a   000005 7100 00

NO LITERALS

NAME DEFINITIONS FOR ENTRY POINTS AND SEGDEFS

    000030  5a   000003 000000
    000031  5a   000063 600000
    000032  aa   000000 000000
    000033  55   000013 000002
    000034  5a   000002 400003
    000035  55   000006 000013
    000036  aa  023 146 155 137
    000037  aa  163 171 163 137
    000040  aa  160 156 137 164
    000041  aa  142 154 137 165
    000042  aa  164 151 154 137
    000043  55   000020 000003
    000044  0a   000026 500000
    000045  55   000016 000003
    000046  aa  006 162 145 156         rename
    000047  aa  141 155 145 000
    000050  55   000027 000013
    000051  0a   000023 500000
    000052  55   000023 000003
    000053  aa  016 162 145 144         redelete_force
    000054  aa  145 154 145 164
    000055  aa  145 137 146 157
    000056  aa  162 143 145 000
    000057  55   000034 000020
    000060  0a   000020 500000
    000061  55   000032 000003
    000062  aa  005 157 160 145         opens
    000063  aa  156 163 000 000
    000064  55   000041 000027
    000065  0a   000015 500000
    000066  55   000037 000003
    000067  aa  006 151 156 163         insert
    000070  aa  145 162 164 000
    000071  55   000046 000034
    000072  0a   000012 500000
    000073  55   000044 000003
    000074  aa  006 144 145 154         delete
    000075  aa  145 164 145 000
    000076  55   000054 000041
    000077  0a   000007 500000
    000100  55   000051 000003
    000101  aa  010 147 145 164         get_path
    000102  aa  137 160 141 164
    000103  aa  150 000 000 000
    000104  55   000002 000046
    000105  6a   000000 400002
    000106  55   000057 000003
    000107  aa  014 163 171 155         symbol_table
    000110  aa  142 157 154 137
    000111  aa  164 141 142 154
    000112  aa  145 000 000 000

DEFINITIONS HASH TABLE

    000113  aa   000000 000015
    000114  aa   000000 000000
    000115  aa   000000 000000
    000116  5a   000041 000000
    000117  5a   000013 000000
    000120  aa   000000 000000
    000121  5a   000020 000000
    000122  5a   000027 000000
    000123  5a   000054 000000
    000124  aa   000000 000000
    000125  aa   000000 000000
    000126  5a   000034 000000
    000127  5a   000046 000000
    000130  aa   000000 000000

EXTERNAL NAMES

    000131  aa  024 146 155 137         fm_sys_pn_tbl_rename
    000132  aa  163 171 163 137
    000133  aa  160 156 137 164
    000134  aa  142 154 137 162
    000135  aa  145 156 141 155
    000136  aa  145 000 000 000
    000137  aa  023 146 155 137         fm_sys_pn_tbl_opens
    000140  aa  163 171 163 137
    000141  aa  160 156 137 164
    000142  aa  142 154 137 157
    000143  aa  160 145 156 163
    000144  aa  024 146 155 137         fm_sys_pn_tbl_insert
    000145  aa  163 171 163 137
    000146  aa  160 156 137 164
    000147  aa  142 154 137 151
    000150  aa  156 163 145 162
    000151  aa  164 000 000 000
    000152  aa  024 146 155 137         fm_sys_pn_tbl_delete
    000153  aa  163 171 163 137
    000154  aa  160 156 137 164
    000155  aa  142 154 137 144
    000156  aa  145 154 145 164
    000157  aa  145 000 000 000
    000160  aa  026 146 155 137         fm_sys_pn_tbl_get_path
    000161  aa  163 171 163 137
    000162  aa  160 156 137 164
    000163  aa  142 154 137 147
    000164  aa  145 164 137 160
    000165  aa  141 164 150 000

NO TRAP POINTER WORDS

TYPE PAIR BLOCKS

    000166  aa   000004 000000
    000167  55   000101 000101
    000170  aa   000004 000000
    000171  55   000122 000023
    000172  aa   000004 000000
    000173  55   000107 000107
    000174  aa   000004 000000
    000175  55   000114 000114
    000176  aa   000004 000000
    000177  55   000122 000122
    000200  aa   000004 000000
    000201  55   000130 000130
    000202  aa   000001 000000
    000203  aa   000000 000000

INTERNAL EXPRESSION WORDS

    000204  5a   000136 000000
    000205  5a   000140 000000
    000206  5a   000142 000000
    000207  5a   000144 000000
    000210  5a   000146 000000
    000211  5a   000150 000000
LINKAGE INFORMATION

    000000  aa   000000 000000
    000001  0a   000030 000000
    000002  aa   000000 000000
    000003  aa   000000 000000
    000004  aa   000000 000000
    000005  aa   000000 000000
    000006  22   000010 000024
    000007  a2   000000 000000
    000010  9a   777770 0000 46         fm_sys_pn_tbl_get_path|fm_sys_pn_tbl_get_path
    000011  5a   000161 0000 00
    000012  9a   777766 0000 46         fm_sys_pn_tbl_delete|fm_sys_pn_tbl_delete
    000013  5a   000160 0000 00
    000014  9a   777764 0000 46         fm_sys_pn_tbl_insert|fm_sys_pn_tbl_insert
    000015  5a   000157 0000 00
    000016  9a   777762 0000 46         fm_sys_pn_tbl_opens|fm_sys_pn_tbl_opens
    000017  5a   000156 0000 00
    000020  9a   777760 0000 46         fm_sys_pn_tbl_delete|redelete_force
    000021  5a   000155 0000 00
    000022  9a   777756 0000 46         fm_sys_pn_tbl_rename|fm_sys_pn_tbl_rename
    000023  5a   000154 0000 00
SYMBOL INFORMATION

SYMBOL TABLE HEADER

    000000  aa   000000 000001
    000001  aa   163171 155142
    000002  aa   164162 145145
    000003  aa   000000 000004
    000004  aa   000000 112143
    000005  aa   305203 523135
    000006  aa   000000 113376
    000007  aa   634356 571403
    000010  aa   141154 155040
    000011  aa   040040 040040
    000012  aa   000024 000040
    000013  aa   000034 000040
    000014  aa   000044 000100
    000015  aa   000002 000002
    000016  aa   000064 000000
    000017  aa   000000 000126
    000020  aa   000000 000105
    000021  aa   000000 000113
    000022  aa   000120 000105
    000023  aa   000064 000000
    000024  aa   101114 115040
    000025  aa   126145 162163
    000026  aa   151157 156040
    000027  aa   040066 056066
    000030  aa   040040 116157
    000031  aa   166145 155142
    000032  aa   145162 040061
    000033  aa   071070 062040
    000034  aa   107112 157150
    000035  aa   156163 157156
    000036  aa   056123 171163
    000037  aa   115141 151156
    000040  aa   164056 155040
    000041  aa   040040 040040
    000042  aa   040040 040040
    000043  aa   040040 040040
    000044  aa   154151 163164
    000045  aa   040040 040040
    000046  aa   040040 040040
    000047  aa   040040 040040
    000050  aa   040040 040040
    000051  aa   040040 040040
    000052  aa   040040 040040
    000053  aa   040040 040040
    000054  aa   040040 040040
    000055  aa   040040 040040
    000056  aa   040040 040040
    000057  aa   040040 040040
    000060  aa   040040 040040
    000061  aa   040040 040040
    000062  aa   040040 040040
    000063  aa   040040 040040
    000064  aa   000000 000001
    000065  aa   000000 000001
    000066  aa   000072 000051
    000067  aa   133727 542567
    000070  aa   000000 113376
    000071  aa   612216 600000
    000072  aa   076163 160145          >spec>on>7138.pbf>fm_sys_pn_tbl_util_.alm
    000073  aa   143076 157156
    000074  aa   076067 061063
    000075  aa   070056 160142
    000076  aa   146076 146155
    000077  aa   137163 171163
    000100  aa   137160 156137
    000101  aa   164142 154137
    000102  aa   165164 151154
    000103  aa   137056 141154
    000104  aa   155040 040040
               MULTICS ASSEMBLY CROSS REFERENCE LISTING

   Value        Symbol                   Source file   Line number

           1    delete                   fm_sys_pn_tbl_util_:       31.
                fm_sys_pn_tbl_delete     fm_sys_pn_tbl_util_:       31,   34.
                fm_sys_pn_tbl_get_path   fm_sys_pn_tbl_util_:       30.
                fm_sys_pn_tbl_insert     fm_sys_pn_tbl_util_:       32.
                fm_sys_pn_tbl_opens      fm_sys_pn_tbl_util_:       33.
                fm_sys_pn_tbl_rename     fm_sys_pn_tbl_util_:       35.
           0    get_path                 fm_sys_pn_tbl_util_:       30.
           2    insert                   fm_sys_pn_tbl_util_:       32.
           3    opens                    fm_sys_pn_tbl_util_:       33.
           4    redelete_force           fm_sys_pn_tbl_util_:       34.
           5    rename                   fm_sys_pn_tbl_util_:       35.


NO FATAL ERRORS


                                          -----------------------------------------------------------


Historical Background

This edition of the Multics software materials and documentation is provided and donated
to Massachusetts Institute of Technology by Group BULL including BULL HN Information Systems Inc.
as a contribution to computer science knowledge.
This donation is made also to give evidence of the common contributions of Massachusetts Institute of Technology,
Bell Laboratories, General Electric, Honeywell Information Systems Inc., Honeywell BULL Inc., Groupe BULL
and BULL HN Information Systems Inc. to the development of this operating system.
Multics development was initiated by Massachusetts Institute of Technology Project MAC (1963-1970),
renamed the MIT Laboratory for Computer Science and Artificial Intelligence in the mid 1970s, under the leadership
of Professor Fernando Jose Corbato. Users consider that Multics provided the best software architecture
for managing computer hardware properly and for executing programs. Many subsequent operating systems
incorporated Multics principles.
Multics was distributed in 1975 to 2000 by Group Bull in Europe , and in the U.S. by Bull HN Information Systems Inc.,
as successor in interest by change in name only to Honeywell Bull Inc. and Honeywell Information Systems Inc. .

                                          -----------------------------------------------------------

Permission to use, copy, modify, and distribute these programs and their documentation for any purpose and without
fee is hereby granted,provided that the below copyright notice and historical background appear in all copies
and that both the copyright notice and historical background and this permission notice appear in supporting
documentation, and that the names of MIT, HIS, BULL or BULL HN not be used in advertising or publicity pertaining
to distribution of the programs without specific prior written permission.
    Copyright 1972 by Massachusetts Institute of Technology and Honeywell Information Systems Inc.
    Copyright 2006 by BULL HN Information Systems Inc.
    Copyright 2006 by Bull SAS
    All Rights Reserved
