ASSEMBLY LISTING OF SEGMENT >spec>on>06/04/82>ft_menu_.alm
ASSEMBLED ON:	06/04/82  1502.2 mst Fri
OPTIONS USED:	list
ASSEMBLED BY:	ALM Version  6.4  April 1981
ASSEMBLER CREATED:	07/17/81  1819.2 mst Fri

                                     1  " ***********************************************************
                                     2  " *                                                         *
                                     3  " * Copyright, (C) Honeywell Information Systems Inc., 1982 *
                                     4  " *                                                         *
                                     5  " ***********************************************************
                                     6  " Transfer vector for the FORTRAN menu interfaces (which are themselves little
                                     7  " more than transfers).
                                     8  "
                                     9  " Written April 1982 by Chris Jones
                                    10
    000000                          11  	name	ft_menu_
                                    12
                                    13  	macro	transfer
                              1     14  	segdef	&1
                              2     15  &1:	getlp
                              3     16  	tra	&2
                              4     17  	&end
                                    18
                                    19  	transfer	create,fc_menu_create$fortran_create
                        000000          	segdef	create
    000000  aa  7 00046 2721 20         create:	getlp
    000001  4a  4 00010 7101 20         	tra	fc_menu_create$fortran_create
                                    20  	transfer	delete,fc_menu_value_seg_man$delete
                        000002          	segdef	delete
    000002  aa  7 00046 2721 20         delete:	getlp
    000003  4a  4 00012 7101 20         	tra	fc_menu_value_seg_man$delete
                                    21  	transfer	describe,fc_menu_video$fortran_describe
                        000004          	segdef	describe
    000004  aa  7 00046 2721 20         describe:	getlp
    000005  4a  4 00014 7101 20         	tra	fc_menu_video$fortran_describe
                                    22  	transfer	destroy,fc_menu_create$destroy
                        000006          	segdef	destroy
    000006  aa  7 00046 2721 20         destroy:	getlp
    000007  4a  4 00016 7101 20         	tra	fc_menu_create$destroy
                                    23  	transfer	display,fc_menu_video$display
                        000010          	segdef	display
    000010  aa  7 00046 2721 20         display:	getlp
    000011  4a  4 00020 7101 20         	tra	fc_menu_video$display
                                    24  	transfer	get_choice,fc_menu_video$get_choice
                        000012          	segdef	get_choice
    000012  aa  7 00046 2721 20         get_choice:	getlp
    000013  4a  4 00022 7101 20         	tra	fc_menu_video$get_choice
                                    25  	transfer	init2,fc_menu_utils$init2		" init1 is an alm program in another module
                        000014          	segdef	init2
    000014  aa  7 00046 2721 20         init2:	getlp
    000015  4a  4 00024 7101 20         	tra	fc_menu_utils$init2
                                    26  	transfer	list,fc_menu_value_seg_man$list
                        000016          	segdef	list
    000016  aa  7 00046 2721 20         list:	getlp
    000017  4a  4 00026 7101 20         	tra	fc_menu_value_seg_man$list
                                    27  	transfer	retrieve,fc_menu_value_seg_man$retrieve
                        000020          	segdef	retrieve
    000020  aa  7 00046 2721 20         retrieve:	getlp
    000021  4a  4 00030 7101 20         	tra	fc_menu_value_seg_man$retrieve
                                    28  	transfer	store,fc_menu_value_seg_man$store
                        000022          	segdef	store
    000022  aa  7 00046 2721 20         store:	getlp
    000023  4a  4 00032 7101 20         	tra	fc_menu_value_seg_man$store
                                    29  	transfer	terminate,fc_menu_utils$terminate
                        000024          	segdef	terminate
    000024  aa  7 00046 2721 20         terminate:	getlp
    000025  4a  4 00034 7101 20         	tra	fc_menu_utils$terminate
                                    30
                                    31  " init1 is handled specially
                                    32
                        000026      33  	segdef	init1
    000026  aa  7 00046 2721 20     34  init1:	getlp
    000027  4a  4 00036 7101 20     35  	tra	fc_menu_init1$fc_menu_init1
                                    36
                                    37  	end

NO LITERALS

NAME DEFINITIONS FOR ENTRY POINTS AND SEGDEFS

    000030  5a   000003 000000
    000031  5a   000120 600000
    000032  aa   000000 000000
    000033  55   000011 000002
    000034  5a   000002 400003
    000035  55   000006 000011
    000036  aa  010 146 164 137
    000037  aa  155 145 156 165
    000040  aa  137 000 000 000
    000041  55   000016 000003
    000042  0a   000026 400000
    000043  55   000014 000003
    000044  aa  005 151 156 151         init1
    000045  aa  164 061 000 000
    000046  55   000024 000011
    000047  0a   000024 400000
    000050  55   000021 000003
    000051  aa  011 164 145 162         terminate
    000052  aa  155 151 156 141
    000053  aa  164 145 000 000
    000054  55   000031 000016
    000055  0a   000022 400000
    000056  55   000027 000003
    000057  aa  005 163 164 157         store
    000060  aa  162 145 000 000
    000061  55   000037 000024
    000062  0a   000020 400000
    000063  55   000034 000003
    000064  aa  010 162 145 164         retrieve
    000065  aa  162 151 145 166
    000066  aa  145 000 000 000
    000067  55   000044 000031
    000070  0a   000016 400000
    000071  55   000042 000003
    000072  aa  004 154 151 163         list
    000073  aa  164 000 000 000
    000074  55   000051 000037
    000075  0a   000014 400000
    000076  55   000047 000003
    000077  aa  005 151 156 151         init2
    000100  aa  164 062 000 000
    000101  55   000057 000044
    000102  0a   000012 400000
    000103  55   000054 000003
    000104  aa  012 147 145 164         get_choice
    000105  aa  137 143 150 157
    000106  aa  151 143 145 000
    000107  55   000064 000051
    000110  0a   000010 400000
    000111  55   000062 000003
    000112  aa  007 144 151 163         display
    000113  aa  160 154 141 171
    000114  55   000071 000057
    000115  0a   000006 400000
    000116  55   000067 000003
    000117  aa  007 144 145 163         destroy
    000120  aa  164 162 157 171
    000121  55   000077 000064
    000122  0a   000004 400000
    000123  55   000074 000003
    000124  aa  010 144 145 163         describe
    000125  aa  143 162 151 142
    000126  aa  145 000 000 000
    000127  55   000104 000071
    000130  0a   000002 400000
    000131  55   000102 000003
    000132  aa  006 144 145 154         delete
    000133  aa  145 164 145 000
    000134  55   000111 000077
    000135  0a   000000 400000
    000136  55   000107 000003
    000137  aa  006 143 162 145         create
    000140  aa  141 164 145 000
    000141  55   000002 000104
    000142  6a   000000 400002
    000143  55   000114 000003
    000144  aa  014 163 171 155         symbol_table
    000145  aa  142 157 154 137
    000146  aa  164 141 142 154
    000147  aa  145 000 000 000

DEFINITIONS HASH TABLE

    000150  aa   000000 000033
    000151  5a   000051 000000
    000152  5a   000104 000000
    000153  aa   000000 000000
    000154  aa   000000 000000
    000155  aa   000000 000000
    000156  aa   000000 000000
    000157  5a   000037 000000
    000160  aa   000000 000000
    000161  aa   000000 000000
    000162  aa   000000 000000
    000163  5a   000111 000000
    000164  aa   000000 000000
    000165  5a   000016 000000
    000166  5a   000031 000000
    000167  5a   000011 000000
    000170  5a   000044 000000
    000171  aa   000000 000000
    000172  aa   000000 000000
    000173  aa   000000 000000
    000174  aa   000000 000000
    000175  5a   000077 000000
    000176  aa   000000 000000
    000177  5a   000057 000000
    000200  aa   000000 000000
    000201  5a   000024 000000
    000202  5a   000071 000000
    000203  5a   000064 000000

EXTERNAL NAMES

    000204  aa  015 146 143 137         fc_menu_init1
    000205  aa  155 145 156 165
    000206  aa  137 151 156 151
    000207  aa  164 061 000 000
    000210  aa  015 146 143 137         fc_menu_utils
    000211  aa  155 145 156 165
    000212  aa  137 165 164 151
    000213  aa  154 163 000 000
    000214  aa  020 146 157 162         fortran_describe
    000215  aa  164 162 141 156
    000216  aa  137 144 145 163
    000217  aa  143 162 151 142
    000220  aa  145 000 000 000
    000221  aa  015 146 143 137         fc_menu_video
    000222  aa  155 145 156 165
    000223  aa  137 166 151 144
    000224  aa  145 157 000 000
    000225  aa  025 146 143 137         fc_menu_value_seg_man
    000226  aa  155 145 156 165
    000227  aa  137 166 141 154
    000230  aa  165 145 137 163
    000231  aa  145 147 137 155
    000232  aa  141 156 000 000
    000233  aa  016 146 157 162         fortran_create
    000234  aa  164 162 141 156
    000235  aa  137 143 162 145
    000236  aa  141 164 145 000
    000237  aa  016 146 143 137         fc_menu_create
    000240  aa  155 145 156 165
    000241  aa  137 143 162 145
    000242  aa  141 164 145 000

NO TRAP POINTER WORDS

TYPE PAIR BLOCKS

    000243  aa   000004 000000
    000244  55   000154 000154
    000245  aa   000004 000000
    000246  55   000160 000021
    000247  aa   000004 000000
    000250  55   000175 000027
    000251  aa   000004 000000
    000252  55   000175 000034
    000253  aa   000004 000000
    000254  55   000175 000042
    000255  aa   000004 000000
    000256  55   000160 000047
    000257  aa   000004 000000
    000260  55   000171 000054
    000261  aa   000004 000000
    000262  55   000171 000062
    000263  aa   000004 000000
    000264  55   000207 000067
    000265  aa   000004 000000
    000266  55   000171 000164
    000267  aa   000004 000000
    000270  55   000175 000102
    000271  aa   000004 000000
    000272  55   000207 000203
    000273  aa   000001 000000
    000274  aa   000000 000000

INTERNAL EXPRESSION WORDS

    000275  5a   000213 000000
    000276  5a   000215 000000
    000277  5a   000217 000000
    000300  5a   000221 000000
    000301  5a   000223 000000
    000302  5a   000225 000000
    000303  5a   000227 000000
    000304  5a   000231 000000
    000305  5a   000233 000000
    000306  5a   000235 000000
    000307  5a   000237 000000
    000310  5a   000241 000000
    000311  aa   000000 000000
LINKAGE INFORMATION

    000000  aa   000000 000000
    000001  0a   000030 000000
    000002  aa   000000 000000
    000003  aa   000000 000000
    000004  aa   000000 000000
    000005  aa   000000 000000
    000006  22   000010 000040
    000007  a2   000000 000000
    000010  9a   777770 0000 46         fc_menu_create|fortran_create
    000011  5a   000260 0000 00
    000012  9a   777766 0000 46         fc_menu_value_seg_man|delete
    000013  5a   000257 0000 00
    000014  9a   777764 0000 46         fc_menu_video|fortran_describe
    000015  5a   000256 0000 00
    000016  9a   777762 0000 46         fc_menu_create|destroy
    000017  5a   000255 0000 00
    000020  9a   777760 0000 46         fc_menu_video|display
    000021  5a   000254 0000 00
    000022  9a   777756 0000 46         fc_menu_video|get_choice
    000023  5a   000253 0000 00
    000024  9a   777754 0000 46         fc_menu_utils|init2
    000025  5a   000252 0000 00
    000026  9a   777752 0000 46         fc_menu_value_seg_man|list
    000027  5a   000251 0000 00
    000030  9a   777750 0000 46         fc_menu_value_seg_man|retrieve
    000031  5a   000250 0000 00
    000032  9a   777746 0000 46         fc_menu_value_seg_man|store
    000033  5a   000247 0000 00
    000034  9a   777744 0000 46         fc_menu_utils|terminate
    000035  5a   000246 0000 00
    000036  9a   777742 0000 46         fc_menu_init1|fc_menu_init1
    000037  5a   000245 0000 00
SYMBOL INFORMATION

SYMBOL TABLE HEADER

    000000  aa   000000 000001
    000001  aa   163171 155142
    000002  aa   164162 145145
    000003  aa   000000 000004
    000004  aa   000000 110172
    000005  aa   711315 365225
    000006  aa   000000 111017
    000007  aa   442326 515106
    000010  aa   141154 155040
    000011  aa   040040 040040
    000012  aa   000024 000040
    000013  aa   000034 000040
    000014  aa   000044 000100
    000015  aa   000002 000002
    000016  aa   000064 000000
    000017  aa   000000 000124
    000020  aa   000000 000102
    000021  aa   000000 000107
    000022  aa   000116 000102
    000023  aa   000064 000000
    000024  aa   101114 115040
    000025  aa   126145 162163
    000026  aa   151157 156040
    000027  aa   040066 056064
    000030  aa   040040 101160
    000031  aa   162151 154040
    000032  aa   061071 070061
    000033  aa   040040 040040
    000034  aa   110157 154155
    000035  aa   163164 145144
    000036  aa   164056 123171
    000037  aa   163115 141151
    000040  aa   156164 056155
    000041  aa   040040 040040
    000042  aa   040040 040040
    000043  aa   040040 040040
    000044  aa   154151 163164
    000045  aa   040040 040040
    000046  aa   040040 040040
    000047  aa   040040 040040
    000050  aa   040040 040040
    000051  aa   040040 040040
    000052  aa   040040 040040
    000053  aa   040040 040040
    000054  aa   040040 040040
    000055  aa   040040 040040
    000056  aa   040040 040040
    000057  aa   040040 040040
    000060  aa   040040 040040
    000061  aa   040040 040040
    000062  aa   040040 040040
    000063  aa   040040 040040
    000064  aa   000000 000001
    000065  aa   000000 000001
    000066  aa   000072 000036
    000067  aa   110174 125312
    000070  aa   000000 111017
    000071  aa   430706 000000
    000072  aa   076163 160145          >spec>on>06/04/82>ft_menu_.alm
    000073  aa   143076 157156
    000074  aa   076060 066057
    000075  aa   060064 057070
    000076  aa   062076 146164
    000077  aa   137155 145156
    000100  aa   165137 056141
    000101  aa   154155 040040
               MULTICS ASSEMBLY CROSS REFERENCE LISTING

   Value        Symbol                   Source file   Line number

           0    create                   ft_menu_:      19.
           2    delete                   ft_menu_:      20.
           4    describe                 ft_menu_:      21.
           6    destroy                  ft_menu_:      22.
          10    display                  ft_menu_:      23.
                fc_menu_create           ft_menu_:      19,   22.
                fc_menu_init1            ft_menu_:      35.
                fc_menu_utils            ft_menu_:      25,   29.
                fc_menu_value_seg_man    ft_menu_:      20,   26,   27,   28.
                fc_menu_video            ft_menu_:      21,   23,   24.
                fortran_create           ft_menu_:      19.
                fortran_describe         ft_menu_:      21.
          12    get_choice               ft_menu_:      24.
          26    init1                    ft_menu_:      33,   34.
          14    init2                    ft_menu_:      25.
          16    list                     ft_menu_:      26.
          20    retrieve                 ft_menu_:      27.
          22    store                    ft_menu_:      28.
          24    terminate                ft_menu_:      29.


NO FATAL ERRORS


                                          -----------------------------------------------------------


Historical Background

This edition of the Multics software materials and documentation is provided and donated
to Massachusetts Institute of Technology by Group BULL including BULL HN Information Systems Inc.
as a contribution to computer science knowledge.
This donation is made also to give evidence of the common contributions of Massachusetts Institute of Technology,
Bell Laboratories, General Electric, Honeywell Information Systems Inc., Honeywell BULL Inc., Groupe BULL
and BULL HN Information Systems Inc. to the development of this operating system.
Multics development was initiated by Massachusetts Institute of Technology Project MAC (1963-1970),
renamed the MIT Laboratory for Computer Science and Artificial Intelligence in the mid 1970s, under the leadership
of Professor Fernando Jose Corbato. Users consider that Multics provided the best software architecture
for managing computer hardware properly and for executing programs. Many subsequent operating systems
incorporated Multics principles.
Multics was distributed in 1975 to 2000 by Group Bull in Europe , and in the U.S. by Bull HN Information Systems Inc.,
as successor in interest by change in name only to Honeywell Bull Inc. and Honeywell Information Systems Inc. .

                                          -----------------------------------------------------------

Permission to use, copy, modify, and distribute these programs and their documentation for any purpose and without
fee is hereby granted,provided that the below copyright notice and historical background appear in all copies
and that both the copyright notice and historical background and this permission notice appear in supporting
documentation, and that the names of MIT, HIS, BULL or BULL HN not be used in advertising or publicity pertaining
to distribution of the programs without specific prior written permission.
    Copyright 1972 by Massachusetts Institute of Technology and Honeywell Information Systems Inc.
    Copyright 2006 by BULL HN Information Systems Inc.
    Copyright 2006 by Bull SAS
    All Rights Reserved
