	COMPILATION LISTING OF SEGMENT get_imaginary
	Compiled by: Multics PL/I Compiler, Release 28d, of September 14, 1983
	Compiled at: Honeywell LCPD Phoenix, System M
	Compiled on: 10/03/83  1642.1 mst Mon
	    Options: optimize map

        1 /* ***********************************************************
        2*   *                                                         *
        3*   * Copyright, (C) Honeywell Information Systems Inc., 1982 *
        4*   *                                                         *
        5*   * Copyright (c) 1972 by Massachusetts Institute of        *
        6*   * Technology and Honeywell Information Systems, Inc.      *
        7*   *                                                         *
        8*   *********************************************************** */
        9
       10
       11 get_imaginary:	proc(pt) returns(ptr);
       12
       13 /* Modified: 25 Apr 1979 by PCK to implement 4-bit decimal */
       14
       15 /* Produces a reference to the imaginary part of a complex variable.
       16*   Note that c_length refers to the length of the real and imaginary parts
       17*   combined.  */
       18
       19 dcl	(p,pt,q,s) ptr;
       20
       21 dcl	get_reference entry() returns(ptr);
       22
       23 dcl	(divide,mod) builtin;
       24
  1     1 /* BEGIN INCLUDE FILE ... reference.incl.pl1 */
  1     2
  1     3 dcl	1 reference		based aligned,
  1     4 	2 node_type		bit(9) unaligned,
  1     5 	2 array_ref		bit(1) unaligned,
  1     6 	2 varying_ref		bit(1) unaligned,
  1     7 	2 shared			bit(1) unaligned,
  1     8 	2 put_data_sw		bit(1) unaligned,
  1     9 	2 processed		bit(1) unaligned,
  1    10 	2 units			fixed(3) unaligned,
  1    11 	2 ref_count		fixed(17) unaligned,
  1    12 	2 c_offset		fixed(24),
  1    13 	2 c_length		fixed(24),
  1    14 	2 symbol			ptr unaligned,
  1    15 	2 qualifier		ptr unaligned,
  1    16 	2 offset			ptr unaligned,
  1    17 	2 length			ptr unaligned,
  1    18 	2 subscript_list		ptr unaligned,
  1    19 						/* these fields are used by the 645 code generator */
  1    20 	2 address			structure unaligned,
  1    21 	  3 base			bit(3),
  1    22 	  3 offset		bit(15),
  1    23 	  3 op			bit(9),
  1    24 	  3 no_address		bit(1),
  1    25 	  3 inhibit		bit(1),
  1    26 	  3 ext_base		bit(1),
  1    27 	  3 tag			bit(6),
  1    28 	2 info			structure unaligned,
  1    29 	  3 address_in		structure,
  1    30 	    4 b			dimension(0:7) bit(1),
  1    31 	    4 storage		bit(1),
  1    32 	  3 value_in		structure,
  1    33 	    4 a			bit(1),
  1    34 	    4 q			bit(1),
  1    35 	    4 aq			bit(1),
  1    36 	    4 string_aq		bit(1),
  1    37 	    4 complex_aq		bit(1),
  1    38 	    4 decimal_aq		bit(1),
  1    39 	    4 b			dimension(0:7) bit(1),
  1    40 	    4 storage		bit(1),
  1    41 	    4 indicators		bit(1),
  1    42 	    4 x			dimension(0:7) bit(1),
  1    43 	  3 other			structure,
  1    44 	    4 big_offset		bit(1),
  1    45 	    4 big_length		bit(1),
  1    46 	    4 modword_in_offset	bit(1),
  1    47 	2 data_type		fixed(5) unaligned,
  1    48 	2 bits			structure unaligned,
  1    49 	  3 padded_ref		bit(1),
  1    50 	  3 aligned_ref		bit(1),
  1    51 	  3 long_ref		bit(1),
  1    52 	  3 forward_ref		bit(1),
  1    53 	  3 ic_ref		bit(1),
  1    54 	  3 temp_ref		bit(1),
  1    55 	  3 defined_ref		bit(1),
  1    56 	  3 evaluated		bit(1),
  1    57 	  3 allocate		bit(1),
  1    58 	  3 allocated		bit(1),
  1    59 	  3 aliasable		bit(1),
  1    60 	  3 even			bit(1),
  1    61 	  3 perm_address		bit(1),
  1    62 	  3 aggregate		bit(1),
  1    63 	  3 hit_zero		bit(1),
  1    64 	  3 dont_save		bit(1),
  1    65 	  3 fo_in_qual		bit(1),
  1    66 	  3 hard_to_load		bit(1),
  1    67 	2 relocation		bit(12) unaligned,
  1    68 	2 more_bits		structure unaligned,
  1    69 	  3 substr		bit(1),
  1    70 	  3 padded_for_store_ref	bit(1),
  1    71 	  3 aligned_for_store_ref	bit(1),
  1    72 	  3 mbz			bit(15),
  1    73 	2 store_ins		bit(18) unaligned;
  1    74
  1    75 /* END INCLUDE FILE ... reference.incl.pl1 */
       25
  2     1 /* BEGIN INCLUDE FILE ... boundary.incl.pl1 */
  2     2
  2     3 /* Modified: 26 Apr 1979 by PCK to implement 4-bit decimal */
  2     4
  2     5 dcl (	bit_		init(1),
  2     6 	digit_		init(2),
  2     7 	character_	init(3),
  2     8 	half_		init(4),
  2     9 	word_		init(5),
  2    10 	mod2_		init(6),
  2    11 	mod4_		init(7)) fixed bin(3) int static options(constant);
  2    12
  2    13 /* END INCLUDE FILE ... boundary.incl.pl1 */
       26
  3     1 /* BEGIN INCLUDE FILE ... symbol.incl.pl1 */
  3     2
  3     3 dcl	1 symbol			based aligned,
  3     4 	2 node_type		bit(9) unal,
  3     5 	2 source_id		structure unal,
  3     6 	  3 file_number		bit(8),
  3     7 	  3 line_number		bit(14),
  3     8 	  3 statement_number	bit(5),
  3     9 	2 location		fixed(18) unal unsigned,
  3    10 	2 allocated		bit(1) unal,
  3    11 	2 dcl_type		bit(3) unal,
  3    12 	2 reserved		bit(6) unal,
  3    13 	2 pix			unal,
  3    14 	  3 pic_fixed		bit(1) unal,
  3    15 	  3 pic_float		bit(1) unal,
  3    16 	  3 pic_char		bit(1) unal,
  3    17 	  3 pic_scale		fixed(7) unal,
  3    18 	  3 pic_size		fixed(7) unal,
  3    19 	2 level			fixed(8) unal,
  3    20 	2 boundary		fixed(3) unal,
  3    21 	2 size_units		fixed(3) unal,
  3    22 	2 scale			fixed(7) unal,
  3    23 	2 runtime			bit(18) unal,
  3    24 	2 runtime_offset		bit(18) unal,
  3    25 	2 block_node		ptr unal,
  3    26 	2 token			ptr unal,
  3    27 	2 next			ptr unal,
  3    28 	2 multi_use		ptr unal,
  3    29 	2 cross_references		ptr unal,
  3    30 	2 initial			ptr unal,
  3    31 	2 array			ptr unal,
  3    32 	2 descriptor		ptr unal,
  3    33 	2 equivalence		ptr unal,
  3    34 	2 reference		ptr unal,
  3    35 	2 general			ptr unal,
  3    36 	2 father			ptr unal,
  3    37 	2 brother			ptr unal,
  3    38 	2 son			ptr unal,
  3    39 	2 word_size		ptr unal,
  3    40 	2 bit_size		ptr unal,
  3    41 	2 dcl_size		ptr unal,
  3    42 	2 symtab_size		ptr unal,
  3    43 	2 c_word_size		fixed(24),
  3    44 	2 c_bit_size		fixed(24),
  3    45 	2 c_dcl_size		fixed(24),
  3    46
  3    47 	2 attributes		structure aligned,
  3    48 	  3 data_type		structure unal,
  3    49 	    4 structure		bit(1) ,
  3    50 	    4 fixed		bit(1),
  3    51 	    4 float		bit(1),
  3    52 	    4 bit			bit(1),
  3    53 	    4 char		bit(1),
  3    54 	    4 ptr			bit(1),
  3    55 	    4 offset		bit(1),
  3    56 	    4 area		bit(1),
  3    57 	    4 label		bit(1),
  3    58 	    4 entry		bit(1),
  3    59 	    4 file		bit(1),
  3    60 	    4 arg_descriptor	bit(1),
  3    61 	    4 storage_block		bit(1),
  3    62 	    4 explicit_packed	bit(1), /* options(packed) */
  3    63 	    4 condition		bit(1),
  3    64 	    4 format		bit(1),
  3    65 	    4 builtin		bit(1),
  3    66 	    4 generic		bit(1),
  3    67 	    4 picture		bit(1),
  3    68
  3    69 	  3 misc_attributes		structure unal,
  3    70 	    4 dimensioned		bit(1),
  3    71 	    4 initialed		bit(1),
  3    72 	    4 aligned		bit(1),
  3    73 	    4 unaligned		bit(1),
  3    74 	    4 signed		bit(1),
  3    75 	    4 unsigned		bit(1),
  3    76 	    4 precision		bit(1),
  3    77 	    4 varying		bit(1),
  3    78 	    4 local		bit(1),
  3    79 	    4 decimal		bit(1),
  3    80 	    4 binary		bit(1),
  3    81 	    4 real		bit(1),
  3    82 	    4 complex		bit(1),
  3    83 	    4 variable		bit(1),
  3    84 	    4 reducible		bit(1),
  3    85 	    4 irreducible		bit(1),
  3    86 	    4 returns		bit(1),
  3    87 	    4 position		bit(1),
  3    88 	    4 internal		bit(1),
  3    89 	    4 external		bit(1),
  3    90 	    4 like		bit(1),
  3    91 	    4 member		bit(1),
  3    92 	    4 non_varying		bit(1),
  3    93 	    4 options		bit(1),
  3    94 	    4 variable_arg_list 	bit(1),		/* options(variable) */
  3    95 	    4 alloc_in_text		bit(1),		/* options(constant) */
  3    96
  3    97 	  3 storage_class		structure unal,
  3    98 	    4 auto		bit(1),
  3    99 	    4 based		bit(1),
  3   100 	    4 static		bit(1),
  3   101 	    4 controlled		bit(1),
  3   102 	    4 defined		bit(1),
  3   103 	    4 parameter		bit(1),
  3   104 	    4 param_desc		bit(1),
  3   105 	    4 constant		bit(1),
  3   106 	    4 temporary		bit(1),
  3   107 	    4 return_value		bit(1),
  3   108
  3   109 	  3 file_attributes		structure unal,
  3   110 	    4 print		bit(1),
  3   111 	    4 input		bit(1),
  3   112 	    4 output		bit(1),
  3   113 	    4 update		bit(1),
  3   114 	    4 stream		bit(1),
  3   115 	    4 reserved_1		bit(1),
  3   116 	    4 record		bit(1),
  3   117 	    4 sequential		bit(1),
  3   118 	    4 direct		bit(1),
  3   119 	    4 interactive		bit(1),		/* env(interactive) */
  3   120 	    4 reserved_2		bit(1),
  3   121 	    4 reserved_3		bit(1),
  3   122 	    4 stringvalue		bit(1),		/* env(stringvalue) */
  3   123 	    4 keyed		bit(1),
  3   124 	    4 reserved_4		bit(1),
  3   125 	    4 environment		bit(1),
  3   126
  3   127 	  3 compiler_developed	structure unal,
  3   128 	    4 aliasable		bit(1),
  3   129 	    4 packed		bit(1),
  3   130 	    4 passed_as_arg		bit(1),
  3   131 	    4 allocate		bit(1),
  3   132 	    4 set			bit(1),
  3   133 	    4 exp_extents		bit(1),
  3   134 	    4 refer_extents		bit(1),
  3   135 	    4 star_extents		bit(1),
  3   136 	    4 isub		bit(1),
  3   137 	    4 put_in_symtab		bit(1),
  3   138 	    4 contiguous		bit(1),
  3   139 	    4 put_data		bit(1),
  3   140 	    4 overlayed		bit(1),
  3   141 	    4 error		bit(1),
  3   142 	    4 symtab_processed	bit(1),
  3   143 	    4 overlayed_by_builtin	bit(1),
  3   144 	    4 defaulted		bit(1),
  3   145 	    4 connected		bit(1);
  3   146
  3   147 /* END INCLUDE FILE ... symbol.incl.pl1 */
       27
       28
       29 	q = get_reference();
       30 	p = pt;
       31 	if ^ p -> reference.shared
       32 	     then p -> reference.ref_count = p -> reference.ref_count + 1;
       33 	q -> reference.qualifier = p;
       34 	q -> reference.symbol = p -> reference.symbol;
       35 	q -> reference.c_length = p -> reference.c_length;
       36
       37 	s = p -> reference.symbol;
       38 	q -> reference.c_offset = divide(q -> reference.c_length,2,24,0);
       39
       40 	if s -> symbol.unaligned
       41 	then do;
       42 		q -> reference.units = digit_;
       43 		q -> reference.c_offset = q -> reference.c_offset + mod(q -> reference.c_offset,2);
       44 	     end;
       45 	else q -> reference.units = character_;
       46
       47 	q -> reference.data_type = p -> reference.data_type;
       48 	q -> reference.defined_ref = "1"b;
       49
       50 	return(q);
       51
       52 end;
	SOURCE FILES USED IN THIS COMPILATION.

LINE      NUMBER  DATE MODIFIED     NAME			PATHNAME
             0    10/03/83  1008.4  get_imaginary.pl1                 >spec>on>pl128d>get_imaginary.pl1
25           1    07/21/80  1546.3  reference.incl.pl1                >ldd>include>reference.incl.pl1
26           2    10/25/79  1645.8  boundary.incl.pl1                 >ldd>include>boundary.incl.pl1
27           3    10/02/83  0828.4  symbol.incl.pl1                   >spec>on>pl128d>symbol.incl.pl1
	NAMES DECLARED IN THIS COMPILATION.

IDENTIFIER	     OFFSET    LOC STORAGE CLASS   DATA TYPE		ATTRIBUTES AND REFERENCES
								(* indicates a set context)

NAMES DECLARED BY DECLARE STATEMENT.
attributes               31            based           structure                level 2 dcl 3-3
bits                     12(06)        based           structure                level 2 packed unaligned dcl 1-3
c_length                  2            based           fixed bin(24,0)          level 2 dcl 1-3 set ref 35* 35 38
c_offset                  1            based           fixed bin(24,0)          level 2 dcl 1-3 set ref 38* 43* 43 43
character_                             constant        fixed bin(3,0)           initial dcl 2-5 ref 45
data_type                12            based           fixed bin(5,0)           level 2 packed unaligned dcl 1-3 set ref 47* 47
defined_ref              12(12)        based           bit(1)                   level 3 packed unaligned dcl 1-3 set ref 48*
digit_                                 constant        fixed bin(3,0)           initial dcl 2-5 ref 42
divide                                                 builtin function         dcl 23 ref 38
get_reference                   000010 constant        entry                    external dcl 21 ref 29
misc_attributes          31(19)        based           structure                level 3 packed unaligned dcl 3-3
mod                                                    builtin function         dcl 23 ref 43
p                               000100 automatic       pointer                  dcl 19 set ref 30* 31 31 31 33 34 35 37 47
pt                                     parameter       pointer                  dcl 19 ref 11 30
q                               000102 automatic       pointer                  dcl 19 set ref 29* 33 34 35 38 38 42 43 43 43 45 47
                                                                                  48 50
qualifier                 4            based           pointer                  level 2 packed unaligned dcl 1-3 set ref 33*
ref_count                 0(18)        based           fixed bin(17,0)          level 2 packed unaligned dcl 1-3 set ref 31* 31
reference                              based           structure                level 1 dcl 1-3
s                               000104 automatic       pointer                  dcl 19 set ref 37* 40
shared                    0(11)        based           bit(1)                   level 2 packed unaligned dcl 1-3 ref 31
symbol                                 based           structure                level 1 dcl 3-3 in procedure "get_imaginary"
symbol                    3            based           pointer                  level 2 in structure "reference" packed unaligned
                                                                                  dcl 1-3 in procedure "get_imaginary" set ref 34*
                                                                                  34 37
unaligned                31(22)        based           bit(1)                   level 4 packed unaligned dcl 3-3 ref 40
units                     0(14)        based           fixed bin(3,0)           level 2 packed unaligned dcl 1-3 set ref 42* 45*

NAMES DECLARED BY DECLARE STATEMENT AND NEVER REFERENCED.
bit_                                   internal static fixed bin(3,0)           initial dcl 2-5
half_                                  internal static fixed bin(3,0)           initial dcl 2-5
mod2_                                  internal static fixed bin(3,0)           initial dcl 2-5
mod4_                                  internal static fixed bin(3,0)           initial dcl 2-5
word_                                  internal static fixed bin(3,0)           initial dcl 2-5

NAME DECLARED BY EXPLICIT CONTEXT.
get_imaginary                   000005 constant        entry                    external dcl 11

THERE WERE NO NAMES DECLARED BY CONTEXT OR IMPLICATION.

STORAGE REQUIREMENTS FOR THIS PROGRAM.

	Object	Text	Link	Symbol	Defs	Static
Start          0       0       130         142      74         140
Length       352      74        12         173      34           0

BLOCK NAME	         STACK SIZE     TYPE		WHY NONQUICK/WHO SHARES STACK FRAME
get_imaginary                        74 external procedure  is an external procedure.

STORAGE FOR AUTOMATIC VARIABLES.

STACK FRAME                 LOC IDENTIFIER                  BLOCK NAME
get_imaginary            000100 p                           get_imaginary
                         000102 q                           get_imaginary
                         000104 s                           get_imaginary

THE FOLLOWING EXTERNAL OPERATORS ARE USED BY THIS PROGRAM.
call_ext_out        return              mod_fx1             ext_entry

THE FOLLOWING EXTERNAL ENTRIES ARE CALLED BY THIS PROGRAM.
get_reference

NO EXTERNAL VARIABLES ARE USED BY THIS PROGRAM.


   LINE    LOC      LINE    LOC      LINE    LOC      LINE    LOC      LINE    LOC      LINE    LOC      LINE    LOC
     11 000001        29 000012        30 000020        31 000024        33 000034        34 000036        35 000040
     37 000042        38 000044        40 000046        42 000051        43 000055        44 000060        45 000061
     47 000065        48 000067        50 000071


                                          -----------------------------------------------------------


Historical Background

This edition of the Multics software materials and documentation is provided and donated
to Massachusetts Institute of Technology by Group BULL including BULL HN Information Systems Inc.
as a contribution to computer science knowledge.
This donation is made also to give evidence of the common contributions of Massachusetts Institute of Technology,
Bell Laboratories, General Electric, Honeywell Information Systems Inc., Honeywell BULL Inc., Groupe BULL
and BULL HN Information Systems Inc. to the development of this operating system.
Multics development was initiated by Massachusetts Institute of Technology Project MAC (1963-1970),
renamed the MIT Laboratory for Computer Science and Artificial Intelligence in the mid 1970s, under the leadership
of Professor Fernando Jose Corbato. Users consider that Multics provided the best software architecture
for managing computer hardware properly and for executing programs. Many subsequent operating systems
incorporated Multics principles.
Multics was distributed in 1975 to 2000 by Group Bull in Europe , and in the U.S. by Bull HN Information Systems Inc.,
as successor in interest by change in name only to Honeywell Bull Inc. and Honeywell Information Systems Inc. .

                                          -----------------------------------------------------------

Permission to use, copy, modify, and distribute these programs and their documentation for any purpose and without
fee is hereby granted,provided that the below copyright notice and historical background appear in all copies
and that both the copyright notice and historical background and this permission notice appear in supporting
documentation, and that the names of MIT, HIS, BULL or BULL HN not be used in advertising or publicity pertaining
to distribution of the programs without specific prior written permission.
    Copyright 1972 by Massachusetts Institute of Technology and Honeywell Information Systems Inc.
    Copyright 2006 by BULL HN Information Systems Inc.
    Copyright 2006 by Bull SAS
    All Rights Reserved
