ASSEMBLY LISTING OF SEGMENT >spec>install>1170>inputs_.alm
ASSEMBLED ON:	10/17/88  0942.2 mst Mon
OPTIONS USED:	-target l68                              list symbols
ASSEMBLED BY:	ALM Version 7.4 April 1987
ASSEMBLER CREATED:	11/02/87  1303.7 mst Mon

                                     1  " ***********************************************************
                                     2  " *                                                         *
                                     3  " * Copyright, (C) Honeywell Bull Inc., 1988                *
                                     4  " *                                                         *
                                     5  " * Copyright, (C) Honeywell Information Systems Inc., 1982 *
                                     6  " *                                                         *
                                     7  " * Copyright (c) 1972 by Massachusetts Institute of        *
                                     8  " * Technology and Honeywell Information Systems, Inc.      *
                                     9  " *                                                         *
                                    10  " ***********************************************************
    000000                          11  	name	inputs_
                        000015      12  	entry	next
                        000020      13  	entry	nxtnb
                        000045      14  	entry	next_statement
                        000043      15  	entry	next_statement_nolist
                        000050      16  	entry	run_statement
                        000040      17  	entry	run_statement_nolist
                        000117      18  	entry	ascii_literal
                        000166      19  	entry	getid
                        000170      20  	entry	getname
                        000000      21  	entry	get_ptr
                                    22
                                    23  " Input routines for ALM.
                                    24  " Modified 3/23/77 by Noel I. Morris for macro processing.
                                    25  " Modified 7/16/76 by N. I. Morris to use EIS.
                                    26  " Modified 740821 by PG to treat input chars as bit (9) instead of bit (7).
                                    27  " Modified on 07/29/73 at 02:57:04 by R F Mabee.
                                    28  " Fixed code sequence that pops stack without returning, March 1973, R F Mabee.
                                    29  " Changed short return sequence to use macro, 11 November 1972, R F Mabee.
                                    30  " 23 July 1972 - made inputs_$next_statement count lines for xref. R F Mabee.
                                    31  " Changed to call alm_include_file_ at end of file instead of prnter_$no_end_card.
                                    32  " This is for include file processing. 19 May 1972, R F Mabee.
                                    33  "
                        000000      34  	equ	brk,0
                        000004      35  	equ	sym,4
                        000060      36  	equ	begin_line,48
                        000062      37  	equ	tpass2,50
                        000101      38  	equ	binlin,65
                        000433      39  	equ	source_printed,283
                                    40
                        000012      41  	bool	inl,012
                        000040      42  	bool	isp,040
                        000054      43  	bool	icomma,54
                        000056      44  	bool	ipoint,56
                        000060      45  	bool	inum,60
                        000076      46  	bool	irpb,76
                        000101      47  	bool	ilet,101
                                    48
                                    49  	include	segnfo
                                   1-1  "	BEGIN INCLUDE FILE ... segnfo.incl.pl1
                                   1-2
                                   1-3  " HISTORY COMMENTS:
                                   1-4  "  1) change(86-10-01,JRGray), approve(86-10-01,MCR7507),
                                   1-5  "     audit(86-10-27,RWaters), install(86-11-12,MR12.0-1202):
                                   1-6  "     Modified to keep a ptr to the list_fcb. This is part of the fix that
                                   1-7  "     removes pad characters from the listing.
                                   1-8  "                                                      END HISTORY COMMENTS
                                   1-9
    000000                        1-10  	segref	eb_data_,segnfo
                        000000    1-11  	equ	text,0
                        000002    1-12  	equ	source,2
                        000004    1-13  	equ	list,4
                        000006    1-14  	equ	list_fcb,6
                        000010    1-15  	equ	scrtch,8
                        000012    1-16  	equ	txtlen,10
                        000013    1-17  	equ	srclen,11
                        000014    1-18  	equ	lstlen,12
                                  1-19  "END OF segnfo.incl.alm
                                    50
                                    51  	include	stack_header
                                   2-1  "	BEGIN INCLUDE FILE ... stack_header.incl.alm  3/72  Bill Silver
                                   2-2  "
                                   2-3  "	modified 7/76 by M. Weaver for *system links and more system use of areas
                                   2-4  "	modified 3/77 by M. Weaver  to add rnt_ptr
                                   2-5  "	modified 7/77 by S. Webber to add run_unit_depth and assign_linkage_ptr
                                   2-6  "	modified 6/83 by J. Ives to add trace_frames and in_trace.
                                   2-7
                                   2-8  " HISTORY COMMENTS:
                                   2-9  "  1) change(86-06-24,DGHowe), approve(86-06-24,MCR7396),
                                  2-10  "     audit(86-08-05,Schroth), install(86-11-03,MR12.0-1206):
                                  2-11  "     added the heap_header_ptr definition
                                  2-12  "  2) change(86-08-12,Kissel), approve(86-08-12,MCR7473),
                                  2-13  "     audit(86-10-10,Fawcett), install(86-11-03,MR12.0-1206):
                                  2-14  "     Modified to support control point management.  These changes were
                                  2-15  "     actually made in February 1985 by G. Palter.
                                  2-16  "  3) change(86-10-22,Fawcett), approve(86-10-22,MCR7473),
                                  2-17  "     audit(86-10-22,Farley), install(86-11-03,MR12.0-1206):
                                  2-18  "     Remove the old_lot pointer and replace it with cpm_data_ptr. Use the 18
                                  2-19  "     bit pad after cur_lot_size for the cpm_enabled. This was done to save
                                  2-20  "     some space int the stack header and change the cpd_ptr unal to
                                  2-21  "     cpm_data_ptr (ITS pair).
                                  2-22  "                                                      END HISTORY COMMENTS
                                  2-23
                        000004    2-24  	equ	stack_header.cpm_data_ptr,4		ptr to control point for this stack
                        000006    2-25  	equ	stack_header.combined_stat_ptr,6	ptr to separate static area
                                  2-26
                        000010    2-27  	equ	stack_header.clr_ptr,8		ptr to area containing linkage sections
                        000012    2-28  	equ	stack_header.max_lot_size,10		number of words allowed in lot (DU)
                        000012    2-29  	equ	stack_header.main_proc_invoked,10	nonzero if main proc was invoked in run unit (DL)
                        000012    2-30  	equ	stack_header.run_unit_depth,10	number of active run units stacked (DL)
                        000013    2-31  	equ	stack_header.cur_lot_size,11		DU number of words (entries) in lot
                        000013    2-32            equ	stack_header.cpm_enabled,11		DL  non-zero if control point management is enabled
                        000014    2-33  	equ	stack_header.system_free_ptr,12	ptr to system storage area
                        000016    2-34  	equ	stack_header.user_free_ptr,14		ptr to user storage area
                                  2-35
                        000020    2-36  	equ	stack_header.parent_ptr,16		ptr to parent stack or null
                        000022    2-37  	equ	stack_header.stack_begin_ptr,18	ptr to first stack frame
                        000024    2-38  	equ	stack_header.stack_end_ptr,20		ptr to next useable stack frame
                        000026    2-39  	equ	stack_header.lot_ptr,22		ptr to the lot for the current ring
                                  2-40
                        000030    2-41  	equ	stack_header.signal_ptr,24		ptr to signal proc for current ring
                        000032    2-42  	equ	stack_header.bar_mode_sp,26		value of sp before entering bar mode
                        000034    2-43  	equ	stack_header.pl1_operators_ptr,28	ptr: pl1_operators_$operator_table
                        000036    2-44  	equ	stack_header.call_op_ptr,30		ptr to standard call operator
                                  2-45
                        000040    2-46  	equ	stack_header.push_op_ptr,32		ptr to standard push operator
                        000042    2-47  	equ	stack_header.return_op_ptr,34		ptr to standard return operator
                        000044    2-48  	equ	stack_header.ret_no_pop_op_ptr,36	ptr: stand. return/ no pop operator
                        000046    2-49  	equ	stack_header.entry_op_ptr,38		ptr to standard entry operator
                                  2-50
                        000050    2-51  	equ	stack_header.trans_op_tv_ptr,40	ptr to table of translator operator ptrs
                        000052    2-52  	equ	stack_header.isot_ptr,42		pointer to ISOT
                        000054    2-53  	equ	stack_header.sct_ptr,44		pointer to System Condition Table
                        000056    2-54  	equ	stack_header.unwinder_ptr,46		pointer to unwinder for current ring
                                  2-55
                        000060    2-56  	equ	stack_header.sys_link_info_ptr,48	ptr to *system link name table
                        000062    2-57  	equ	stack_header.rnt_ptr,50		ptr to reference name table
                        000064    2-58  	equ	stack_header.ect_ptr,52		ptr to event channel table
                        000066    2-59  	equ	stack_header.assign_linkage_ptr,54	ptr to area for hcs_$assign_linkage calls
                        000070    2-60  	equ	stack_header.heap_header_ptr,56	ptr to heap header.
                        000072    2-61  	equ	stack_header.trace_frames,58		stack of trace_catch_ frames
                        000073    2-62  	equ	stach_header.trace_top_ptr,59		trace pointer
                        000074    2-63  	equ	stack_header.in_trace,60		trace antirecurse bit
                        000100    2-64  	equ	stack_header_end,64			length of stack header
                                  2-65
                                  2-66
                                  2-67
                                  2-68
                        000000    2-69  	equ	trace_frames.count,0		number of trace frames on stack
                        000001    2-70  	equ	trace_frames.top_ptr,1		packed pointer to top one
                                  2-71
                                  2-72  "	The  following constant is an offset within the  pl1  operators table.
                                  2-73  "	It  references a  transfer vector table.
                                  2-74
                        000551    2-75  	bool	tv_offset,551
                                  2-76
                                  2-77
                                  2-78  "	The  following constants are offsets within this transfer vector table.
                                  2-79
                        001170    2-80  	equ	call_offset,tv_offset+271
                        001171    2-81  	equ	push_offset,tv_offset+272
                        001172    2-82  	equ	return_offset,tv_offset+273
                        001173    2-83  	equ	return_no_pop_offset,tv_offset+274
                        001174    2-84  	equ	entry_offset,tv_offset+275
                                  2-85
                                  2-86
                                  2-87  " 	END INCLUDE FILE stack_header.incl.alm
                                    52  "
                                    53  	use	static_data
                                    54  	even
    000010  aa   077777 000043      55  bpsave:	its	-1,1
    000011  aa   000001 000000
    000012  aa   000000 000000      56  x7save:	dec	0
    000013                          57  char:	bss	,1
    000014                          58  tctally:	bss	,1
                                    59
                                    60  	use	text_section
                                    61
                                    62  	join	/text/text_section/link/static_data
                                    63
                                    64  " 
                                    65
    000000  4a  4 00022 3535 20     66  get_ptr:	eppbb	eb_data_$segnfo+source,*
    000001  aa  0 00002 2535 20     67  	spribb	ap|2,*		return source pointer
    000002  4a  4 00024 2351 20     68  	lda	eb_data_$curr_char_no
    000003  4a  4 00026 2361 20     69  	ldq	eb_data_$segnfo+srclen
    000004  aa  0 00004 7551 20     70  	sta	ap|4,*		return curr_char_no
    000005  aa  0 00006 7561 20     71  	stq	ap|6,*		return source length
    000006  aa  0 00010 4501 20     72  	stz	ap|8,*		set sw for at nl
    000007  4a  4 00030 2351 20     73  	lda	eb_data_$varcom+brk
    000010  4a  4 00032 1151 20     74  	cmpa	eb_data_$codtab+inl	if this is so, mexp must
    000011  0a   000017 6010 00     75  	tnz	return		be told that there are
    000012  aa   400000 2350 03     76  	lda	=o400000,du	no args on line.
    000013  aa  0 00010 7551 20     77  	sta	ap|8,*
                                    78
    000014  aa  7 00044 7101 20     79  	short_return
                                    80
                                    81  " 
                                    82
    000015  0a   000137 7070 00     83  next:	tsx7	set_char
    000016  0a   000122 7070 00     84  	tsx7	get_char
    000017  aa  7 00044 7101 20     85  return:	short_return
                                    86
                                    87
                                    88
    000020  4a  4 00030 2351 20     89  nxtnb:	lda	eb_data_$varcom+brk
    000021  4a  4 00032 1151 20     90  	cmpa	eb_data_$codtab+inl
    000022  0a   000017 6000 00     91  	tze	return
                                    92
    000023  0a   000137 7070 00     93  mornb:	tsx7	set_char
    000024  aa  0 00000 1645 45     94  	tct	(pr,al,rl)
    000025  aa   300000 000006      95  	desc9a	bb|0,ql
    000026  0a   000252 0000 00     96  	arg	nxtnbtab
    000027  9a  4 00014 0001 00     97  	arg	lp|tctally
                                    98
    000030  9a  4 00014 0751 00     99  	ada	lp|tctally
    000031  0a   001310 3750 00    100  	ana	=o77777777
    000032  4a  4 00024 7551 20    101  	sta	eb_data_$curr_char_no
                                   102
    000033  0a   000137 7070 00    103  	tsx7	set_char		get one more
    000034  0a   000122 7070 00    104  	tsx7	get_char
    000035  4a  4 00034 1151 20    105  	cmpa	eb_data_$codtab+isp
    000036  0a   000023 6000 00    106  	tze	mornb
    000037  0a   000017 7100 00    107  	tra	return
                                   108
                                   109  " 
                                   110
    000040                         111  run_statement_nolist:
    000040  aa   400000 2350 03    112  	lda	=o400000,du	get "1"b
    000041  4a  4 00036 7551 20    113  	sta	eb_data_$varcom+source_printed  suppress printing of source
    000042  0a   000050 7100 00    114  	tra	run_statement
                                   115
    000043                         116  next_statement_nolist:
    000043  aa   400000 2350 03    117  	lda	=o400000,du
    000044  4a  4 00036 7551 20    118  	sta	eb_data_$varcom+source_printed
    000045                         119  next_statement:
    000045  4a  4 00030 2371 20    120  	ldaq	eb_data_$varcom+brk
    000046                         121  next_statement_loop:
    000046  4a  4 00032 1151 20    122  	cmpa	eb_data_$codtab+inl
    000047  0a   000063 6000 00    123  	tze	check_nl
                                   124
    000050                         125  run_statement:
    000050  0a   000137 7070 00    126  	tsx7	set_char
    000051  aa  0 00000 1645 45    127  	tct	(pr,al,rl)
    000052  aa   300000 000006     128  	desc9a	bb|0,ql
    000053  0a   000452 0000 00    129  	arg	nxtsttab
    000054  9a  4 00014 0001 00    130  	arg	lp|tctally
                                   131
    000055  9a  4 00014 0751 00    132  	ada	lp|tctally
    000056  0a   001310 3750 00    133  	ana	=o77777777
    000057  4a  4 00024 7551 20    134  	sta	eb_data_$curr_char_no
                                   135
    000060  0a   000137 7070 00    136  	tsx7	set_char
    000061  0a   000122 7070 00    137  	tsx7	get_char
    000062  0a   000046 7100 00    138  	tra	next_statement_loop
                                   139
    000063  aa   000012 1160 07    140  check_nl:	cmpq	=o12,dl
    000064  0a   000017 6010 00    141  	tnz	return
    000065  4a  4 00036 2341 20    142  	szn	eb_data_$varcom+source_printed
    000066  0a   000110 6010 00    143  	tnz	printed
    000067  4a  4 00040 2341 20    144  	szn	eb_data_$varcom+tpass2
    000070  0a   000105 6000 00    145  	tze	printed1		" Don't try to print listing during pass1.
    000071  aa   000060 6270 00    146  	save			"save because we are going to call out
    000072  aa  7 00040 2721 20
    000073  aa  6 00000 2541 00    147  	call	prwrd_$source_only
    000074  0a   001312 3500 00
    000075  4a  4 00016 3521 20
    000076  aa  6 00040 7531 00
    000077  aa  7 00036 6701 20
    000100  aa  6 00000 1731 00
    000101  aa  6 00040 0731 00
    000102  aa  6 00000 3521 00    148  	eppbp	sp|0
    000103  aa  6 00020 3721 20    149  	eppsp	sp|16,*		undo the save
    000104  aa  7 00024 2521 00    150  	spribp	sb|stack_header.stack_end_ptr
    000105  4a  4 00042 2341 20    151  printed1:	szn	eb_data_$macro_linect
    000106  0a   000110 6000 00    152  	tze	printed
    000107  4a  4 00042 0541 20    153  	aos	eb_data_$macro_linect
    000110  4a  4 00024 2361 20    154  printed:	ldq	eb_data_$curr_char_no
    000111  4a  4 00044 7561 20    155  	stq	eb_data_$varcom+begin_line
    000112  4a  4 00036 4501 20    156  	stz	eb_data_$varcom+source_printed
    000113  4a  4 00046 2341 20    157  	szn	eb_data_$include_control  " if not in macro expansion
    000114  0a   000116 6040 00    158  	tmi	*+2
    000115  4a  4 00050 0541 20    159  	aos	eb_data_$varcom+binlin  " inputs_ always counts lines.
    000116  0a   000017 7100 00    160  	tra	return
                                   161
                                   162
                                   163
    000117                         164  ascii_literal:
    000117  0a   000137 7070 00    165  	tsx7	set_char
    000120  0a   000122 7070 00    166  	tsx7	get_char
    000121  0a   000063 7100 00    167  	tra	check_nl
                                   168
                                   169  " 
                                   170
    000122  aa  0 00100 1015 05    171  get_char:	mrl	(pr,al),(pr),fill(0)
    000123  aa   300000 000001     172  	desc9a	bb|0,1
    000124  9a   400013 000004     173  	desc9a	lp|char,4
                                   174
    000125  9a  4 00013 2361 00    175  	ldq	lp|char
    000126  4a  4 00024 0541 20    176  	aos	eb_data_$curr_char_no
    000127  aa   000777 3760 07    177  	anq	=o777,dl			just one char, please
    000130  aa   000600 3160 07    178  	canq	=o600,dl			if ascii
    000131  aa   000003 6000 04    179  	tze	3,ic			then top bits are off
    000132  4a  4 00052 2351 20    180  	lda	eb_data_$codtab	else pretend it's ascii NUL char
    000133  aa   000002 7100 04    181  	tra	2,ic
    000134  4a  4 00054 2351 20    182  	lda	eb_data_$codtab,ql
    000135  4a  4 00030 7571 20    183  	staq	eb_data_$varcom+brk
    000136  aa   000000 7100 17    184  	tra	0,7
                                   185
                                   186
                                   187
    000137  4a  4 00024 2351 20    188  set_char:	lda	eb_data_$curr_char_no
    000140  4a  4 00026 2361 20    189  	ldq	eb_data_$segnfo+srclen
    000141  4a  4 00024 1761 20    190  	sbq	eb_data_$curr_char_no
    000142  0a   000145 6044 00    191  	tmoz	source_eof
                                   192
    000143  4a  4 00022 3535 20    193  	eppbb	eb_data_$segnfo+source,*
    000144  aa   000000 7100 17    194  	tra	0,7
                                   195
                                   196
                                   197
    000145                         198  source_eof:
                                   199  				" We have run out of this segment
                                   200  " Try to revert from include file.
                                   201  " alm_include_file_$pop will not return
                                   202  " if there is nothing more to read.
    000145  9a  4 00012 7471 00    203  	stx7	lp|x7save		" This is necessary because save uses index 7 and bp.
    000146  9a  4 00010 2521 00    204  	spribp	lp|bpsave
    000147  aa   000060 6270 00    205  	save			" Save because we are going to make a call
    000150  aa  7 00040 2721 20
    000151  aa  6 00000 2541 00    206  	call	alm_include_file_$pop
    000152  0a   001312 3500 00
    000153  4a  4 00020 3521 20
    000154  aa  6 00040 7531 00
    000155  aa  7 00036 6701 20
    000156  aa  6 00000 1731 00
    000157  aa  6 00040 0731 00
    000160  aa  6 00000 3521 00    207  	eppbp	sp|0
    000161  aa  6 00020 3721 20    208  	eppsp	sp|16,*		" Undo the save
    000162  aa  7 00024 2521 00    209  	spribp	sb|stack_header.stack_end_ptr
    000163  9a  4 00012 2271 00    210  	ldx7	lp|x7save
    000164  9a  4 00010 3521 20    211  	eppbp	lp|bpsave,*
    000165  0a   000137 7100 00    212  	tra	set_char		" Try whole read again.
                                   213
                                   214  " 
                                   215
    000166  0a   000652 6260 00    216  getid:	eax6	getidtab
    000167  0a   000172 7100 00    217  	tra	getid_work
                                   218
    000170  0a   001052 6260 00    219  getname:	eax6	getnametab
    000171  0a   000172 7100 00    220  	tra	getid_work
                                   221
                                   222
                                   223
    000172                         224  getid_work:
    000172  4a  4 00056 3521 20    225  	eppbp	eb_data_$varcom+sym	get address of sym where we will return results
                                   226
    000173  4a  4 00030 2371 20    227  	ldaq	eb_data_$varcom+brk	get the current character
    000174  4a  4 00032 1151 20    228  	cmpa	eb_data_$codtab+inl	check for end of statement
    000175  0a   000246 6000 00    229  	tze	clear		return if so
    000176  4a  4 00034 1151 20    230  	cmpa	eb_data_$codtab+isp	check for space as last break
    000177  0a   000210 6010 00    231  	tnz	chk_sym		if not, get next char and continue
                                   232
    000200  0a   000137 7070 00    233  	tsx7	set_char
    000201  aa  0 00000 1645 45    234  	tct	(pr,al,rl)
    000202  aa   300000 000006     235  	desc9a	bb|0,ql
    000203  0a   000252 0000 00    236  	arg	nxtnbtab
    000204  9a  4 00014 0001 00    237  	arg	lp|tctally
                                   238
    000205  9a  4 00014 0751 00    239  	ada	lp|tctally
    000206  0a   001310 3750 00    240  	ana	=o77777777
    000207  4a  4 00024 7551 20    241  	sta	eb_data_$curr_char_no
                                   242
    000210  0a   000137 7070 00    243  chk_sym:	tsx7	set_char
    000211  0a   000122 7070 00    244  	tsx7	get_char
    000212  4a  4 00060 1151 20    245  	cmpa	eb_data_$codtab+ilet  check for legal first char (letter or . or _)
    000213  0a   000222 6000 00    246  	tze	putin	"
    000214  4a  4 00062 1151 20    247  	cmpa	eb_data_$codtab+ipoint  "
    000215  0a   000222 6000 00    248  	tze	putin	"
    000216  0a   001052 1060 03    249  	cmpx6	getnametab,du	check if we came in through getname
    000217  0a   000246 6010 00    250  	tnz	clear		if not we have the terminator already
    000220  4a  4 00032 1151 20    251  	cmpa	eb_data_$codtab+inl	make sure we are not at end of statement
    000221  0a   000017 6000 00    252  	tze	return
                                   253
    000222  0a   000137 7070 00    254  putin:	tsx7	set_char
    000223  aa   000001 1750 07    255  	sba	1,dl		back up 1 char
    000224  aa   000001 0760 07    256  	adq	1,dl
    000225  aa   000037 1160 07    257  	cmpq	31,dl		scan only 31 chars
    000226  0a   000230 6044 00    258  	tmoz	*+2
    000227  aa   000037 2360 07    259  	ldq	31,dl
                                   260
    000230  aa  0 00000 1645 45    261  	tct	(pr,al,rl)
    000231  aa   300000 000006     262  	desc9a	bb|0,ql
    000232  aa   000000 0000 16    263  	arg	0,6
    000233  9a  4 00014 0001 00    264  	arg	lp|tctally
                                   265
    000234  9a  4 00014 2361 00    266  	ldq	lp|tctally
    000235  aa  0 00100 1005 45    267  	mlr	(pr,al,rl),(pr),fill(0)
    000236  aa   300000 000006     268  	desc9a	bb|0,ql
    000237  aa   200000 200037     269  	desc9a	bp|0(1),31
    000240  aa   000033 7360 00    270  	qls	27
    000241  aa  2 00000 5521 40    271  	stbq	bp|0,40		insert count
                                   272
    000242  9a  4 00014 0751 00    273  	ada	lp|tctally
    000243  0a   001310 3750 00    274  	ana	=o77777777
    000244  4a  4 00024 7551 20    275  	sta	eb_data_$curr_char_no
                                   276
    000245  0a   000015 7100 00    277  	tra	next
                                   278
                                   279
    000246  aa   000100 1004 00    280  clear:	mlr	(),(pr),fill(0)	clear sym
    000247  0a   000247 000000     281  	desc9a	*,0
    000250  aa   200000 000040     282  	desc9a	bp|0,32
                                   283
    000251  0a   000017 7100 00    284  	tra	return
                                   285
                                   286  " 
                                   287
    000252                         288  nxtnbtab:
    000252  aa   001001 001001     289  	vfd	9/1,9/1,9/1,9/1,9/1,9/1,9/1,9/1
    000253  aa   001001 001001
    000254  aa   001000 001001     290  	vfd	9/1,9/0,9/1,9/1,9/0,9/1,9/1,9/1
    000255  aa   000001 001001
    000256  aa   001001 001001     291  	vfd	9/1,9/1,9/1,9/1,9/1,9/1,9/1,9/1
    000257  aa   001001 001001
    000260  aa   001001 001001     292  	vfd	9/1,9/1,9/1,9/1,9/1,9/1,9/1,9/1
    000261  aa   001001 001001
                                   293
    000262  aa   000001 001001     294  	vfd	9/0,9/1,9/1,9/1,9/1,9/0,9/1,9/1
    000263  aa   001000 001001
    000264  aa   001001 001001     295  	vfd	9/1,9/1,9/1,9/1,9/1,9/1,9/1,9/1
    000265  aa   001001 001001
    000266  aa   001001 001001     296  	vfd	9/1,9/1,9/1,9/1,9/1,9/1,9/1,9/1
    000267  aa   001001 001001
    000270  aa   001001 001001     297  	vfd	9/1,9/1,9/1,9/1,9/1,9/1,9/1,9/1
    000271  aa   001001 001001
                                   298
    000272  aa   001001 001001     299  	vfd	9/1,9/1,9/1,9/1,9/1,9/1,9/1,9/1
    000273  aa   001001 001001
    000274  aa   001001 001001     300  	vfd	9/1,9/1,9/1,9/1,9/1,9/1,9/1,9/1
    000275  aa   001001 001001
    000276  aa   001001 001001     301  	vfd	9/1,9/1,9/1,9/1,9/1,9/1,9/1,9/1
    000277  aa   001001 001001
    000300  aa   001001 001001     302  	vfd	9/1,9/1,9/1,9/1,9/1,9/1,9/1,9/1
    000301  aa   001001 001001
                                   303
    000302  aa   001001 001001     304  	vfd	9/1,9/1,9/1,9/1,9/1,9/1,9/1,9/1
    000303  aa   001001 001001
    000304  aa   001001 001001     305  	vfd	9/1,9/1,9/1,9/1,9/1,9/1,9/1,9/1
    000305  aa   001001 001001
    000306  aa   001001 001001     306  	vfd	9/1,9/1,9/1,9/1,9/1,9/1,9/1,9/1
    000307  aa   001001 001001
    000310  aa   001001 001001     307  	vfd	9/1,9/1,9/1,9/1,9/1,9/1,9/1,9/1
    000311  aa   001001 001001
                                   308
    000312  aa   001001 001001     309  	vfd	9/1,9/1,9/1,9/1,9/1,9/1,9/1,9/1
    000313  aa   001001 001001
    000314  aa   001001 001001     310  	vfd	9/1,9/1,9/1,9/1,9/1,9/1,9/1,9/1
    000315  aa   001001 001001
    000316  aa   001001 001001     311  	vfd	9/1,9/1,9/1,9/1,9/1,9/1,9/1,9/1
    000317  aa   001001 001001
    000320  aa   001001 001001     312  	vfd	9/1,9/1,9/1,9/1,9/1,9/1,9/1,9/1
    000321  aa   001001 001001
                                   313
    000322  aa   001001 001001     314  	vfd	9/1,9/1,9/1,9/1,9/1,9/1,9/1,9/1
    000323  aa   001001 001001
    000324  aa   001001 001001     315  	vfd	9/1,9/1,9/1,9/1,9/1,9/1,9/1,9/1
    000325  aa   001001 001001
    000326  aa   001001 001001     316  	vfd	9/1,9/1,9/1,9/1,9/1,9/1,9/1,9/1
    000327  aa   001001 001001
    000330  aa   001001 001001     317  	vfd	9/1,9/1,9/1,9/1,9/1,9/1,9/1,9/1
    000331  aa   001001 001001
                                   318
    000332  aa   001001 001001     319  	vfd	9/1,9/1,9/1,9/1,9/1,9/1,9/1,9/1
    000333  aa   001001 001001
    000334  aa   001001 001001     320  	vfd	9/1,9/1,9/1,9/1,9/1,9/1,9/1,9/1
    000335  aa   001001 001001
    000336  aa   001001 001001     321  	vfd	9/1,9/1,9/1,9/1,9/1,9/1,9/1,9/1
    000337  aa   001001 001001
    000340  aa   001001 001001     322  	vfd	9/1,9/1,9/1,9/1,9/1,9/1,9/1,9/1
    000341  aa   001001 001001
                                   323
    000342  aa   001001 001001     324  	vfd	9/1,9/1,9/1,9/1,9/1,9/1,9/1,9/1
    000343  aa   001001 001001
    000344  aa   001001 001001     325  	vfd	9/1,9/1,9/1,9/1,9/1,9/1,9/1,9/1
    000345  aa   001001 001001
    000346  aa   001001 001001     326  	vfd	9/1,9/1,9/1,9/1,9/1,9/1,9/1,9/1
    000347  aa   001001 001001
    000350  aa   001001 001001     327  	vfd	9/1,9/1,9/1,9/1,9/1,9/1,9/1,9/1
    000351  aa   001001 001001
                                   328
    000352  aa   001001 001001     329  	vfd	9/1,9/1,9/1,9/1,9/1,9/1,9/1,9/1
    000353  aa   001001 001001
    000354  aa   001001 001001     330  	vfd	9/1,9/1,9/1,9/1,9/1,9/1,9/1,9/1
    000355  aa   001001 001001
    000356  aa   001001 001001     331  	vfd	9/1,9/1,9/1,9/1,9/1,9/1,9/1,9/1
    000357  aa   001001 001001
    000360  aa   001001 001001     332  	vfd	9/1,9/1,9/1,9/1,9/1,9/1,9/1,9/1
    000361  aa   001001 001001
                                   333
    000362  aa   001001 001001     334  	vfd	9/1,9/1,9/1,9/1,9/1,9/1,9/1,9/1
    000363  aa   001001 001001
    000364  aa   001001 001001     335  	vfd	9/1,9/1,9/1,9/1,9/1,9/1,9/1,9/1
    000365  aa   001001 001001
    000366  aa   001001 001001     336  	vfd	9/1,9/1,9/1,9/1,9/1,9/1,9/1,9/1
    000367  aa   001001 001001
    000370  aa   001001 001001     337  	vfd	9/1,9/1,9/1,9/1,9/1,9/1,9/1,9/1
    000371  aa   001001 001001
                                   338
    000372  aa   001001 001001     339  	vfd	9/1,9/1,9/1,9/1,9/1,9/1,9/1,9/1
    000373  aa   001001 001001
    000374  aa   001001 001001     340  	vfd	9/1,9/1,9/1,9/1,9/1,9/1,9/1,9/1
    000375  aa   001001 001001
    000376  aa   001001 001001     341  	vfd	9/1,9/1,9/1,9/1,9/1,9/1,9/1,9/1
    000377  aa   001001 001001
    000400  aa   001001 001001     342  	vfd	9/1,9/1,9/1,9/1,9/1,9/1,9/1,9/1
    000401  aa   001001 001001
                                   343
    000402  aa   001001 001001     344  	vfd	9/1,9/1,9/1,9/1,9/1,9/1,9/1,9/1
    000403  aa   001001 001001
    000404  aa   001001 001001     345  	vfd	9/1,9/1,9/1,9/1,9/1,9/1,9/1,9/1
    000405  aa   001001 001001
    000406  aa   001001 001001     346  	vfd	9/1,9/1,9/1,9/1,9/1,9/1,9/1,9/1
    000407  aa   001001 001001
    000410  aa   001001 001001     347  	vfd	9/1,9/1,9/1,9/1,9/1,9/1,9/1,9/1
    000411  aa   001001 001001
                                   348
    000412  aa   001001 001001     349  	vfd	9/1,9/1,9/1,9/1,9/1,9/1,9/1,9/1
    000413  aa   001001 001001
    000414  aa   001001 001001     350  	vfd	9/1,9/1,9/1,9/1,9/1,9/1,9/1,9/1
    000415  aa   001001 001001
    000416  aa   001001 001001     351  	vfd	9/1,9/1,9/1,9/1,9/1,9/1,9/1,9/1
    000417  aa   001001 001001
    000420  aa   001001 001001     352  	vfd	9/1,9/1,9/1,9/1,9/1,9/1,9/1,9/1
    000421  aa   001001 001001
                                   353
    000422  aa   001001 001001     354  	vfd	9/1,9/1,9/1,9/1,9/1,9/1,9/1,9/1
    000423  aa   001001 001001
    000424  aa   001001 001001     355  	vfd	9/1,9/1,9/1,9/1,9/1,9/1,9/1,9/1
    000425  aa   001001 001001
    000426  aa   001001 001001     356  	vfd	9/1,9/1,9/1,9/1,9/1,9/1,9/1,9/1
    000427  aa   001001 001001
    000430  aa   001001 001001     357  	vfd	9/1,9/1,9/1,9/1,9/1,9/1,9/1,9/1
    000431  aa   001001 001001
                                   358
    000432  aa   001001 001001     359  	vfd	9/1,9/1,9/1,9/1,9/1,9/1,9/1,9/1
    000433  aa   001001 001001
    000434  aa   001001 001001     360  	vfd	9/1,9/1,9/1,9/1,9/1,9/1,9/1,9/1
    000435  aa   001001 001001
    000436  aa   001001 001001     361  	vfd	9/1,9/1,9/1,9/1,9/1,9/1,9/1,9/1
    000437  aa   001001 001001
    000440  aa   001001 001001     362  	vfd	9/1,9/1,9/1,9/1,9/1,9/1,9/1,9/1
    000441  aa   001001 001001
                                   363
    000442  aa   001001 001001     364  	vfd	9/1,9/1,9/1,9/1,9/1,9/1,9/1,9/1
    000443  aa   001001 001001
    000444  aa   001001 001001     365  	vfd	9/1,9/1,9/1,9/1,9/1,9/1,9/1,9/1
    000445  aa   001001 001001
    000446  aa   001001 001001     366  	vfd	9/1,9/1,9/1,9/1,9/1,9/1,9/1,9/1
    000447  aa   001001 001001
    000450  aa   001001 001001     367  	vfd	9/1,9/1,9/1,9/1,9/1,9/1,9/1,9/1
    000451  aa   001001 001001
                                   368
                                   369
                                   370  " 
                                   371
    000452                         372  nxtsttab:
    000452  aa   000000 000000     373  	vfd	9/0,9/0,9/0,9/0,9/0,9/0,9/0,9/0
    000453  aa   000000 000000
    000454  aa   000000 001000     374  	vfd	9/0,9/0,9/1,9/0,9/0,9/1,9/0,9/0
    000455  aa   000001 000000
    000456  aa   000000 000000     375  	vfd	9/0,9/0,9/0,9/0,9/0,9/0,9/0,9/0
    000457  aa   000000 000000
    000460  aa   000000 000000     376  	vfd	9/0,9/0,9/0,9/0,9/0,9/0,9/0,9/0
    000461  aa   000000 000000
                                   377
    000462  aa   000000 000000     378  	vfd	9/0,9/0,9/0,9/0,9/0,9/0,9/0,9/0
    000463  aa   000000 000000
    000464  aa   000000 000000     379  	vfd	9/0,9/0,9/0,9/0,9/0,9/0,9/0,9/0
    000465  aa   000000 000000
    000466  aa   000000 000000     380  	vfd	9/0,9/0,9/0,9/0,9/0,9/0,9/0,9/0
    000467  aa   000000 000000
    000470  aa   000000 000001     381  	vfd	9/0,9/0,9/0,9/1,9/0,9/0,9/0,9/0
    000471  aa   000000 000000
                                   382
    000472  aa   000000 000000     383  	vfd	9/0,9/0,9/0,9/0,9/0,9/0,9/0,9/0
    000473  aa   000000 000000
    000474  aa   000000 000000     384  	vfd	9/0,9/0,9/0,9/0,9/0,9/0,9/0,9/0
    000475  aa   000000 000000
    000476  aa   000000 000000     385  	vfd	9/0,9/0,9/0,9/0,9/0,9/0,9/0,9/0
    000477  aa   000000 000000
    000500  aa   000000 000000     386  	vfd	9/0,9/0,9/0,9/0,9/0,9/0,9/0,9/0
    000501  aa   000000 000000
                                   387
    000502  aa   000000 000000     388  	vfd	9/0,9/0,9/0,9/0,9/0,9/0,9/0,9/0
    000503  aa   000000 000000
    000504  aa   000000 000000     389  	vfd	9/0,9/0,9/0,9/0,9/0,9/0,9/0,9/0
    000505  aa   000000 000000
    000506  aa   000000 000000     390  	vfd	9/0,9/0,9/0,9/0,9/0,9/0,9/0,9/0
    000507  aa   000000 000000
    000510  aa   000000 000000     391  	vfd	9/0,9/0,9/0,9/0,9/0,9/0,9/0,9/0
    000511  aa   000000 000000
                                   392
    000512  aa   000000 000000     393  	vfd	9/0,9/0,9/0,9/0,9/0,9/0,9/0,9/0
    000513  aa   000000 000000
    000514  aa   000000 000000     394  	vfd	9/0,9/0,9/0,9/0,9/0,9/0,9/0,9/0
    000515  aa   000000 000000
    000516  aa   000000 000000     395  	vfd	9/0,9/0,9/0,9/0,9/0,9/0,9/0,9/0
    000517  aa   000000 000000
    000520  aa   000000 000000     396  	vfd	9/0,9/0,9/0,9/0,9/0,9/0,9/0,9/0
    000521  aa   000000 000000
                                   397
    000522  aa   000000 000000     398  	vfd	9/0,9/0,9/0,9/0,9/0,9/0,9/0,9/0
    000523  aa   000000 000000
    000524  aa   000000 000000     399  	vfd	9/0,9/0,9/0,9/0,9/0,9/0,9/0,9/0
    000525  aa   000000 000000
    000526  aa   000000 000000     400  	vfd	9/0,9/0,9/0,9/0,9/0,9/0,9/0,9/0
    000527  aa   000000 000000
    000530  aa   000000 000000     401  	vfd	9/0,9/0,9/0,9/0,9/0,9/0,9/0,9/0
    000531  aa   000000 000000
                                   402
    000532  aa   000000 000000     403  	vfd	9/0,9/0,9/0,9/0,9/0,9/0,9/0,9/0
    000533  aa   000000 000000
    000534  aa   000000 000000     404  	vfd	9/0,9/0,9/0,9/0,9/0,9/0,9/0,9/0
    000535  aa   000000 000000
    000536  aa   000000 000000     405  	vfd	9/0,9/0,9/0,9/0,9/0,9/0,9/0,9/0
    000537  aa   000000 000000
    000540  aa   000000 000000     406  	vfd	9/0,9/0,9/0,9/0,9/0,9/0,9/0,9/0
    000541  aa   000000 000000
                                   407
    000542  aa   000000 000000     408  	vfd	9/0,9/0,9/0,9/0,9/0,9/0,9/0,9/0
    000543  aa   000000 000000
    000544  aa   000000 000000     409  	vfd	9/0,9/0,9/0,9/0,9/0,9/0,9/0,9/0
    000545  aa   000000 000000
    000546  aa   000000 000000     410  	vfd	9/0,9/0,9/0,9/0,9/0,9/0,9/0,9/0
    000547  aa   000000 000000
    000550  aa   000000 000000     411  	vfd	9/0,9/0,9/0,9/0,9/0,9/0,9/0,9/0
    000551  aa   000000 000000
                                   412
    000552  aa   000000 000000     413  	vfd	9/0,9/0,9/0,9/0,9/0,9/0,9/0,9/0
    000553  aa   000000 000000
    000554  aa   000000 000000     414  	vfd	9/0,9/0,9/0,9/0,9/0,9/0,9/0,9/0
    000555  aa   000000 000000
    000556  aa   000000 000000     415  	vfd	9/0,9/0,9/0,9/0,9/0,9/0,9/0,9/0
    000557  aa   000000 000000
    000560  aa   000000 000000     416  	vfd	9/0,9/0,9/0,9/0,9/0,9/0,9/0,9/0
    000561  aa   000000 000000
                                   417
    000562  aa   000000 000000     418  	vfd	9/0,9/0,9/0,9/0,9/0,9/0,9/0,9/0
    000563  aa   000000 000000
    000564  aa   000000 000000     419  	vfd	9/0,9/0,9/0,9/0,9/0,9/0,9/0,9/0
    000565  aa   000000 000000
    000566  aa   000000 000000     420  	vfd	9/0,9/0,9/0,9/0,9/0,9/0,9/0,9/0
    000567  aa   000000 000000
    000570  aa   000000 000000     421  	vfd	9/0,9/0,9/0,9/0,9/0,9/0,9/0,9/0
    000571  aa   000000 000000
                                   422
    000572  aa   000000 000000     423  	vfd	9/0,9/0,9/0,9/0,9/0,9/0,9/0,9/0
    000573  aa   000000 000000
    000574  aa   000000 000000     424  	vfd	9/0,9/0,9/0,9/0,9/0,9/0,9/0,9/0
    000575  aa   000000 000000
    000576  aa   000000 000000     425  	vfd	9/0,9/0,9/0,9/0,9/0,9/0,9/0,9/0
    000577  aa   000000 000000
    000600  aa   000000 000000     426  	vfd	9/0,9/0,9/0,9/0,9/0,9/0,9/0,9/0
    000601  aa   000000 000000
                                   427
    000602  aa   000000 000000     428  	vfd	9/0,9/0,9/0,9/0,9/0,9/0,9/0,9/0
    000603  aa   000000 000000
    000604  aa   000000 000000     429  	vfd	9/0,9/0,9/0,9/0,9/0,9/0,9/0,9/0
    000605  aa   000000 000000
    000606  aa   000000 000000     430  	vfd	9/0,9/0,9/0,9/0,9/0,9/0,9/0,9/0
    000607  aa   000000 000000
    000610  aa   000000 000000     431  	vfd	9/0,9/0,9/0,9/0,9/0,9/0,9/0,9/0
    000611  aa   000000 000000
                                   432
    000612  aa   000000 000000     433  	vfd	9/0,9/0,9/0,9/0,9/0,9/0,9/0,9/0
    000613  aa   000000 000000
    000614  aa   000000 000000     434  	vfd	9/0,9/0,9/0,9/0,9/0,9/0,9/0,9/0
    000615  aa   000000 000000
    000616  aa   000000 000000     435  	vfd	9/0,9/0,9/0,9/0,9/0,9/0,9/0,9/0
    000617  aa   000000 000000
    000620  aa   000000 000000     436  	vfd	9/0,9/0,9/0,9/0,9/0,9/0,9/0,9/0
    000621  aa   000000 000000
                                   437
    000622  aa   000000 000000     438  	vfd	9/0,9/0,9/0,9/0,9/0,9/0,9/0,9/0
    000623  aa   000000 000000
    000624  aa   000000 000000     439  	vfd	9/0,9/0,9/0,9/0,9/0,9/0,9/0,9/0
    000625  aa   000000 000000
    000626  aa   000000 000000     440  	vfd	9/0,9/0,9/0,9/0,9/0,9/0,9/0,9/0
    000627  aa   000000 000000
    000630  aa   000000 000000     441  	vfd	9/0,9/0,9/0,9/0,9/0,9/0,9/0,9/0
    000631  aa   000000 000000
                                   442
    000632  aa   000000 000000     443  	vfd	9/0,9/0,9/0,9/0,9/0,9/0,9/0,9/0
    000633  aa   000000 000000
    000634  aa   000000 000000     444  	vfd	9/0,9/0,9/0,9/0,9/0,9/0,9/0,9/0
    000635  aa   000000 000000
    000636  aa   000000 000000     445  	vfd	9/0,9/0,9/0,9/0,9/0,9/0,9/0,9/0
    000637  aa   000000 000000
    000640  aa   000000 000000     446  	vfd	9/0,9/0,9/0,9/0,9/0,9/0,9/0,9/0
    000641  aa   000000 000000
                                   447
    000642  aa   000000 000000     448  	vfd	9/0,9/0,9/0,9/0,9/0,9/0,9/0,9/0
    000643  aa   000000 000000
    000644  aa   000000 000000     449  	vfd	9/0,9/0,9/0,9/0,9/0,9/0,9/0,9/0
    000645  aa   000000 000000
    000646  aa   000000 000000     450  	vfd	9/0,9/0,9/0,9/0,9/0,9/0,9/0,9/0
    000647  aa   000000 000000
    000650  aa   000000 000000     451  	vfd	9/0,9/0,9/0,9/0,9/0,9/0,9/0,9/0
    000651  aa   000000 000000
                                   452
                                   453
                                   454  " 
                                   455
    000652                         456  getidtab:
    000652  aa   001001 001001     457  	vfd	9/1,9/1,9/1,9/1,9/1,9/1,9/1,9/1
    000653  aa   001001 001001
    000654  aa   001001 001001     458  	vfd	9/1,9/1,9/1,9/1,9/1,9/1,9/1,9/1
    000655  aa   001001 001001
    000656  aa   001001 001001     459  	vfd	9/1,9/1,9/1,9/1,9/1,9/1,9/1,9/1
    000657  aa   001001 001001
    000660  aa   001001 001001     460  	vfd	9/1,9/1,9/1,9/1,9/1,9/1,9/1,9/1
    000661  aa   001001 001001
                                   461
    000662  aa   001001 001001     462  	vfd	9/1,9/1,9/1,9/1,9/1,9/1,9/1,9/1
    000663  aa   001001 001001
    000664  aa   001001 001001     463  	vfd	9/1,9/1,9/1,9/1,9/1,9/1,9/0,9/1
    000665  aa   001001 000001
    000666  aa   000000 000000     464  	vfd	9/0,9/0,9/0,9/0,9/0,9/0,9/0,9/0
    000667  aa   000000 000000
    000670  aa   000000 001001     465  	vfd	9/0,9/0,9/1,9/1,9/1,9/1,9/1,9/1
    000671  aa   001001 001001
                                   466
    000672  aa   001000 000000     467  	vfd	9/1,9/0,9/0,9/0,9/0,9/0,9/0,9/0
    000673  aa   000000 000000
    000674  aa   000000 000000     468  	vfd	9/0,9/0,9/0,9/0,9/0,9/0,9/0,9/0
    000675  aa   000000 000000
    000676  aa   000000 000000     469  	vfd	9/0,9/0,9/0,9/0,9/0,9/0,9/0,9/0
    000677  aa   000000 000000
    000700  aa   000000 000001     470  	vfd	9/0,9/0,9/0,9/1,9/1,9/1,9/1,9/0
    000701  aa   001001 001000
                                   471
    000702  aa   001000 000000     472  	vfd	9/1,9/0,9/0,9/0,9/0,9/0,9/0,9/0
    000703  aa   000000 000000
    000704  aa   000000 000000     473  	vfd	9/0,9/0,9/0,9/0,9/0,9/0,9/0,9/0
    000705  aa   000000 000000
    000706  aa   000000 000000     474  	vfd	9/0,9/0,9/0,9/0,9/0,9/0,9/0,9/0
    000707  aa   000000 000000
    000710  aa   000000 000001     475  	vfd	9/0,9/0,9/0,9/1,9/1,9/1,9/1,9/1
    000711  aa   001001 001001
                                   476
    000712  aa   001001 001001     477  	vfd	9/1,9/1,9/1,9/1,9/1,9/1,9/1,9/1
    000713  aa   001001 001001
    000714  aa   001001 001001     478  	vfd	9/1,9/1,9/1,9/1,9/1,9/1,9/1,9/1
    000715  aa   001001 001001
    000716  aa   001001 001001     479  	vfd	9/1,9/1,9/1,9/1,9/1,9/1,9/1,9/1
    000717  aa   001001 001001
    000720  aa   001001 001001     480  	vfd	9/1,9/1,9/1,9/1,9/1,9/1,9/1,9/1
    000721  aa   001001 001001
                                   481
    000722  aa   001001 001001     482  	vfd	9/1,9/1,9/1,9/1,9/1,9/1,9/1,9/1
    000723  aa   001001 001001
    000724  aa   001001 001001     483  	vfd	9/1,9/1,9/1,9/1,9/1,9/1,9/1,9/1
    000725  aa   001001 001001
    000726  aa   001001 001001     484  	vfd	9/1,9/1,9/1,9/1,9/1,9/1,9/1,9/1
    000727  aa   001001 001001
    000730  aa   001001 001001     485  	vfd	9/1,9/1,9/1,9/1,9/1,9/1,9/1,9/1
    000731  aa   001001 001001
                                   486
    000732  aa   001001 001001     487  	vfd	9/1,9/1,9/1,9/1,9/1,9/1,9/1,9/1
    000733  aa   001001 001001
    000734  aa   001001 001001     488  	vfd	9/1,9/1,9/1,9/1,9/1,9/1,9/1,9/1
    000735  aa   001001 001001
    000736  aa   001001 001001     489  	vfd	9/1,9/1,9/1,9/1,9/1,9/1,9/1,9/1
    000737  aa   001001 001001
    000740  aa   001001 001001     490  	vfd	9/1,9/1,9/1,9/1,9/1,9/1,9/1,9/1
    000741  aa   001001 001001
                                   491
    000742  aa   001001 001001     492  	vfd	9/1,9/1,9/1,9/1,9/1,9/1,9/1,9/1
    000743  aa   001001 001001
    000744  aa   001001 001001     493  	vfd	9/1,9/1,9/1,9/1,9/1,9/1,9/1,9/1
    000745  aa   001001 001001
    000746  aa   001001 001001     494  	vfd	9/1,9/1,9/1,9/1,9/1,9/1,9/1,9/1
    000747  aa   001001 001001
    000750  aa   001001 001001     495  	vfd	9/1,9/1,9/1,9/1,9/1,9/1,9/1,9/1
    000751  aa   001001 001001
                                   496
    000752  aa   001001 001001     497  	vfd	9/1,9/1,9/1,9/1,9/1,9/1,9/1,9/1
    000753  aa   001001 001001
    000754  aa   001001 001001     498  	vfd	9/1,9/1,9/1,9/1,9/1,9/1,9/1,9/1
    000755  aa   001001 001001
    000756  aa   001001 001001     499  	vfd	9/1,9/1,9/1,9/1,9/1,9/1,9/1,9/1
    000757  aa   001001 001001
    000760  aa   001001 001001     500  	vfd	9/1,9/1,9/1,9/1,9/1,9/1,9/1,9/1
    000761  aa   001001 001001
                                   501
    000762  aa   001001 001001     502  	vfd	9/1,9/1,9/1,9/1,9/1,9/1,9/1,9/1
    000763  aa   001001 001001
    000764  aa   001001 001001     503  	vfd	9/1,9/1,9/1,9/1,9/1,9/1,9/1,9/1
    000765  aa   001001 001001
    000766  aa   001001 001001     504  	vfd	9/1,9/1,9/1,9/1,9/1,9/1,9/1,9/1
    000767  aa   001001 001001
    000770  aa   001001 001001     505  	vfd	9/1,9/1,9/1,9/1,9/1,9/1,9/1,9/1
    000771  aa   001001 001001
                                   506
    000772  aa   001001 001001     507  	vfd	9/1,9/1,9/1,9/1,9/1,9/1,9/1,9/1
    000773  aa   001001 001001
    000774  aa   001001 001001     508  	vfd	9/1,9/1,9/1,9/1,9/1,9/1,9/1,9/1
    000775  aa   001001 001001
    000776  aa   001001 001001     509  	vfd	9/1,9/1,9/1,9/1,9/1,9/1,9/1,9/1
    000777  aa   001001 001001
    001000  aa   001001 001001     510  	vfd	9/1,9/1,9/1,9/1,9/1,9/1,9/1,9/1
    001001  aa   001001 001001
                                   511
    001002  aa   001001 001001     512  	vfd	9/1,9/1,9/1,9/1,9/1,9/1,9/1,9/1
    001003  aa   001001 001001
    001004  aa   001001 001001     513  	vfd	9/1,9/1,9/1,9/1,9/1,9/1,9/1,9/1
    001005  aa   001001 001001
    001006  aa   001001 001001     514  	vfd	9/1,9/1,9/1,9/1,9/1,9/1,9/1,9/1
    001007  aa   001001 001001
    001010  aa   001001 001001     515  	vfd	9/1,9/1,9/1,9/1,9/1,9/1,9/1,9/1
    001011  aa   001001 001001
                                   516
    001012  aa   001001 001001     517  	vfd	9/1,9/1,9/1,9/1,9/1,9/1,9/1,9/1
    001013  aa   001001 001001
    001014  aa   001001 001001     518  	vfd	9/1,9/1,9/1,9/1,9/1,9/1,9/1,9/1
    001015  aa   001001 001001
    001016  aa   001001 001001     519  	vfd	9/1,9/1,9/1,9/1,9/1,9/1,9/1,9/1
    001017  aa   001001 001001
    001020  aa   001001 001001     520  	vfd	9/1,9/1,9/1,9/1,9/1,9/1,9/1,9/1
    001021  aa   001001 001001
                                   521
    001022  aa   001001 001001     522  	vfd	9/1,9/1,9/1,9/1,9/1,9/1,9/1,9/1
    001023  aa   001001 001001
    001024  aa   001001 001001     523  	vfd	9/1,9/1,9/1,9/1,9/1,9/1,9/1,9/1
    001025  aa   001001 001001
    001026  aa   001001 001001     524  	vfd	9/1,9/1,9/1,9/1,9/1,9/1,9/1,9/1
    001027  aa   001001 001001
    001030  aa   001001 001001     525  	vfd	9/1,9/1,9/1,9/1,9/1,9/1,9/1,9/1
    001031  aa   001001 001001
                                   526
    001032  aa   001001 001001     527  	vfd	9/1,9/1,9/1,9/1,9/1,9/1,9/1,9/1
    001033  aa   001001 001001
    001034  aa   001001 001001     528  	vfd	9/1,9/1,9/1,9/1,9/1,9/1,9/1,9/1
    001035  aa   001001 001001
    001036  aa   001001 001001     529  	vfd	9/1,9/1,9/1,9/1,9/1,9/1,9/1,9/1
    001037  aa   001001 001001
    001040  aa   001001 001001     530  	vfd	9/1,9/1,9/1,9/1,9/1,9/1,9/1,9/1
    001041  aa   001001 001001
                                   531
    001042  aa   001001 001001     532  	vfd	9/1,9/1,9/1,9/1,9/1,9/1,9/1,9/1
    001043  aa   001001 001001
    001044  aa   001001 001001     533  	vfd	9/1,9/1,9/1,9/1,9/1,9/1,9/1,9/1
    001045  aa   001001 001001
    001046  aa   001001 001001     534  	vfd	9/1,9/1,9/1,9/1,9/1,9/1,9/1,9/1
    001047  aa   001001 001001
    001050  aa   001001 001001     535  	vfd	9/1,9/1,9/1,9/1,9/1,9/1,9/1,9/1
    001051  aa   001001 001001
                                   536
                                   537
                                   538  " 
                                   539
    001052                         540  getnametab:
    001052  aa   000000 000000     541  	vfd	9/0,9/0,9/0,9/0,9/0,9/0,9/0,9/0
    001053  aa   000000 000000
    001054  aa   000001 001000     542  	vfd	9/0,9/1,9/1,9/0,9/1,9/1,9/0,9/0
    001055  aa   001001 000000
    001056  aa   000000 000000     543  	vfd	9/0,9/0,9/0,9/0,9/0,9/0,9/0,9/0
    001057  aa   000000 000000
    001060  aa   000000 000000     544  	vfd	9/0,9/0,9/0,9/0,9/0,9/0,9/0,9/0
    001061  aa   000000 000000
                                   545
    001062  aa   001000 000000     546  	vfd	9/1,9/0,9/0,9/0,9/0,9/1,9/0,9/0
    001063  aa   000001 000000
    001064  aa   000000 000000     547  	vfd	9/0,9/0,9/0,9/0,9/1,9/0,9/0,9/0
    001065  aa   001000 000000
    001066  aa   000000 000000     548  	vfd	9/0,9/0,9/0,9/0,9/0,9/0,9/0,9/0
    001067  aa   000000 000000
    001070  aa   000000 000001     549  	vfd	9/0,9/0,9/0,9/1,9/0,9/0,9/1,9/0
    001071  aa   000000 001000
                                   550
    001072  aa   000000 000000     551  	vfd	9/0,9/0,9/0,9/0,9/0,9/0,9/0,9/0
    001073  aa   000000 000000
    001074  aa   000000 000000     552  	vfd	9/0,9/0,9/0,9/0,9/0,9/0,9/0,9/0
    001075  aa   000000 000000
    001076  aa   000000 000000     553  	vfd	9/0,9/0,9/0,9/0,9/0,9/0,9/0,9/0
    001077  aa   000000 000000
    001100  aa   000000 000000     554  	vfd	9/0,9/0,9/0,9/0,9/0,9/0,9/0,9/0
    001101  aa   000000 000000
                                   555
    001102  aa   000000 000000     556  	vfd	9/0,9/0,9/0,9/0,9/0,9/0,9/0,9/0
    001103  aa   000000 000000
    001104  aa   000000 000000     557  	vfd	9/0,9/0,9/0,9/0,9/0,9/0,9/0,9/0
    001105  aa   000000 000000
    001106  aa   000000 000000     558  	vfd	9/0,9/0,9/0,9/0,9/0,9/0,9/0,9/0
    001107  aa   000000 000000
    001110  aa   000000 000000     559  	vfd	9/0,9/0,9/0,9/0,9/0,9/0,9/0,9/0
    001111  aa   000000 000000
                                   560
    001112  aa   000000 000000     561  	vfd	9/0,9/0,9/0,9/0,9/0,9/0,9/0,9/0
    001113  aa   000000 000000
    001114  aa   000000 000000     562  	vfd	9/0,9/0,9/0,9/0,9/0,9/0,9/0,9/0
    001115  aa   000000 000000
    001116  aa   000000 000000     563  	vfd	9/0,9/0,9/0,9/0,9/0,9/0,9/0,9/0
    001117  aa   000000 000000
    001120  aa   000000 000000     564  	vfd	9/0,9/0,9/0,9/0,9/0,9/0,9/0,9/0
    001121  aa   000000 000000
                                   565
    001122  aa   000000 000000     566  	vfd	9/0,9/0,9/0,9/0,9/0,9/0,9/0,9/0
    001123  aa   000000 000000
    001124  aa   000000 000000     567  	vfd	9/0,9/0,9/0,9/0,9/0,9/0,9/0,9/0
    001125  aa   000000 000000
    001126  aa   000000 000000     568  	vfd	9/0,9/0,9/0,9/0,9/0,9/0,9/0,9/0
    001127  aa   000000 000000
    001130  aa   000000 000000     569  	vfd	9/0,9/0,9/0,9/0,9/0,9/0,9/0,9/0
    001131  aa   000000 000000
                                   570
    001132  aa   000000 000000     571  	vfd	9/0,9/0,9/0,9/0,9/0,9/0,9/0,9/0
    001133  aa   000000 000000
    001134  aa   000000 000000     572  	vfd	9/0,9/0,9/0,9/0,9/0,9/0,9/0,9/0
    001135  aa   000000 000000
    001136  aa   000000 000000     573  	vfd	9/0,9/0,9/0,9/0,9/0,9/0,9/0,9/0
    001137  aa   000000 000000
    001140  aa   000000 000000     574  	vfd	9/0,9/0,9/0,9/0,9/0,9/0,9/0,9/0
    001141  aa   000000 000000
                                   575
    001142  aa   000000 000000     576  	vfd	9/0,9/0,9/0,9/0,9/0,9/0,9/0,9/0
    001143  aa   000000 000000
    001144  aa   000000 000000     577  	vfd	9/0,9/0,9/0,9/0,9/0,9/0,9/0,9/0
    001145  aa   000000 000000
    001146  aa   000000 000000     578  	vfd	9/0,9/0,9/0,9/0,9/0,9/0,9/0,9/0
    001147  aa   000000 000000
    001150  aa   000000 000000     579  	vfd	9/0,9/0,9/0,9/0,9/0,9/0,9/0,9/0
    001151  aa   000000 000000
                                   580
    001152  aa   000000 000000     581  	vfd	9/0,9/0,9/0,9/0,9/0,9/0,9/0,9/0
    001153  aa   000000 000000
    001154  aa   000000 000000     582  	vfd	9/0,9/0,9/0,9/0,9/0,9/0,9/0,9/0
    001155  aa   000000 000000
    001156  aa   000000 000000     583  	vfd	9/0,9/0,9/0,9/0,9/0,9/0,9/0,9/0
    001157  aa   000000 000000
    001160  aa   000000 000000     584  	vfd	9/0,9/0,9/0,9/0,9/0,9/0,9/0,9/0
    001161  aa   000000 000000
                                   585
    001162  aa   000000 000000     586  	vfd	9/0,9/0,9/0,9/0,9/0,9/0,9/0,9/0
    001163  aa   000000 000000
    001164  aa   000000 000000     587  	vfd	9/0,9/0,9/0,9/0,9/0,9/0,9/0,9/0
    001165  aa   000000 000000
    001166  aa   000000 000000     588  	vfd	9/0,9/0,9/0,9/0,9/0,9/0,9/0,9/0
    001167  aa   000000 000000
    001170  aa   000000 000000     589  	vfd	9/0,9/0,9/0,9/0,9/0,9/0,9/0,9/0
    001171  aa   000000 000000
                                   590
    001172  aa   000000 000000     591  	vfd	9/0,9/0,9/0,9/0,9/0,9/0,9/0,9/0
    001173  aa   000000 000000
    001174  aa   000000 000000     592  	vfd	9/0,9/0,9/0,9/0,9/0,9/0,9/0,9/0
    001175  aa   000000 000000
    001176  aa   000000 000000     593  	vfd	9/0,9/0,9/0,9/0,9/0,9/0,9/0,9/0
    001177  aa   000000 000000
    001200  aa   000000 000000     594  	vfd	9/0,9/0,9/0,9/0,9/0,9/0,9/0,9/0
    001201  aa   000000 000000
                                   595
    001202  aa   000000 000000     596  	vfd	9/0,9/0,9/0,9/0,9/0,9/0,9/0,9/0
    001203  aa   000000 000000
    001204  aa   000000 000000     597  	vfd	9/0,9/0,9/0,9/0,9/0,9/0,9/0,9/0
    001205  aa   000000 000000
    001206  aa   000000 000000     598  	vfd	9/0,9/0,9/0,9/0,9/0,9/0,9/0,9/0
    001207  aa   000000 000000
    001210  aa   000000 000000     599  	vfd	9/0,9/0,9/0,9/0,9/0,9/0,9/0,9/0
    001211  aa   000000 000000
                                   600
    001212  aa   000000 000000     601  	vfd	9/0,9/0,9/0,9/0,9/0,9/0,9/0,9/0
    001213  aa   000000 000000
    001214  aa   000000 000000     602  	vfd	9/0,9/0,9/0,9/0,9/0,9/0,9/0,9/0
    001215  aa   000000 000000
    001216  aa   000000 000000     603  	vfd	9/0,9/0,9/0,9/0,9/0,9/0,9/0,9/0
    001217  aa   000000 000000
    001220  aa   000000 000000     604  	vfd	9/0,9/0,9/0,9/0,9/0,9/0,9/0,9/0
    001221  aa   000000 000000
                                   605
    001222  aa   000000 000000     606  	vfd	9/0,9/0,9/0,9/0,9/0,9/0,9/0,9/0
    001223  aa   000000 000000
    001224  aa   000000 000000     607  	vfd	9/0,9/0,9/0,9/0,9/0,9/0,9/0,9/0
    001225  aa   000000 000000
    001226  aa   000000 000000     608  	vfd	9/0,9/0,9/0,9/0,9/0,9/0,9/0,9/0
    001227  aa   000000 000000
    001230  aa   000000 000000     609  	vfd	9/0,9/0,9/0,9/0,9/0,9/0,9/0,9/0
    001231  aa   000000 000000
                                   610
    001232  aa   000000 000000     611  	vfd	9/0,9/0,9/0,9/0,9/0,9/0,9/0,9/0
    001233  aa   000000 000000
    001234  aa   000000 000000     612  	vfd	9/0,9/0,9/0,9/0,9/0,9/0,9/0,9/0
    001235  aa   000000 000000
    001236  aa   000000 000000     613  	vfd	9/0,9/0,9/0,9/0,9/0,9/0,9/0,9/0
    001237  aa   000000 000000
    001240  aa   000000 000000     614  	vfd	9/0,9/0,9/0,9/0,9/0,9/0,9/0,9/0
    001241  aa   000000 000000
                                   615
    001242  aa   000000 000000     616  	vfd	9/0,9/0,9/0,9/0,9/0,9/0,9/0,9/0
    001243  aa   000000 000000
    001244  aa   000000 000000     617  	vfd	9/0,9/0,9/0,9/0,9/0,9/0,9/0,9/0
    001245  aa   000000 000000
    001246  aa   000000 000000     618  	vfd	9/0,9/0,9/0,9/0,9/0,9/0,9/0,9/0
    001247  aa   000000 000000
    001250  aa   000000 000000     619  	vfd	9/0,9/0,9/0,9/0,9/0,9/0,9/0,9/0
    001251  aa   000000 000000
                                   620
                                   621
                                   622  	end
ENTRY SEQUENCES

    001252  5a   000103 0000 00
    001253  aa  7 00046 2721 20
    001254  0a   000015 7100 00
    001255  5a   000076 0000 00
    001256  aa  7 00046 2721 20
    001257  0a   000020 7100 00
    001260  5a   000067 0000 00
    001261  aa  7 00046 2721 20
    001262  0a   000045 7100 00
    001263  5a   000056 0000 00
    001264  aa  7 00046 2721 20
    001265  0a   000043 7100 00
    001266  5a   000047 0000 00
    001267  aa  7 00046 2721 20
    001270  0a   000050 7100 00
    001271  5a   000036 0000 00
    001272  aa  7 00046 2721 20
    001273  0a   000040 7100 00
    001274  5a   000027 0000 00
    001275  aa  7 00046 2721 20
    001276  0a   000117 7100 00
    001277  5a   000022 0000 00
    001300  aa  7 00046 2721 20
    001301  0a   000166 7100 00
    001302  5a   000015 0000 00
    001303  aa  7 00046 2721 20
    001304  0a   000170 7100 00
    001305  5a   000010 0000 00
    001306  aa  7 00046 2721 20
    001307  0a   000000 7100 00
LITERALS

    001310  aa   000077 777777
    001312  aa   000000 000000
    001313  aa   000000 000000
NAME DEFINITIONS FOR ENTRY POINTS AND SEGDEFS

    001314  5a   000003 000000
    001315  5a   000117 600000
    001316  aa   000000 000000
    001317  55   000010 000002
    001320  5a   000002 400003
    001321  55   000006 000010
    001322  aa  007 151 156 160
    001323  aa  165 164 163 137
    001324  55   000015 000003
    001325  0a   001306 500000
    001326  55   000013 000003
    001327  aa  007 147 145 164         get_ptr
    001330  aa  137 160 164 162
    001331  55   000022 000010
    001332  0a   001303 500000
    001333  55   000020 000003
    001334  aa  007 147 145 164         getname
    001335  aa  156 141 155 145
    001336  55   000027 000015
    001337  0a   001300 500000
    001340  55   000025 000003
    001341  aa  005 147 145 164         getid
    001342  aa  151 144 000 000
    001343  55   000036 000022
    001344  0a   001275 500000
    001345  55   000032 000003
    001346  aa  015 141 163 143         ascii_literal
    001347  aa  151 151 137 154
    001350  aa  151 164 145 162
    001351  aa  141 154 000 000
    001352  55   000047 000027
    001353  0a   001272 500000
    001354  55   000041 000003
    001355  aa  024 162 165 156         run_statement_nolist
    001356  aa  137 163 164 141
    001357  aa  164 145 155 145
    001360  aa  156 164 137 156
    001361  aa  157 154 151 163
    001362  aa  164 000 000 000
    001363  55   000056 000036
    001364  0a   001267 500000
    001365  55   000052 000003
    001366  aa  015 162 165 156         run_statement
    001367  aa  137 163 164 141
    001370  aa  164 145 155 145
    001371  aa  156 164 000 000
    001372  55   000067 000047
    001373  0a   001264 500000
    001374  55   000061 000003
    001375  aa  025 156 145 170         next_statement_nolist
    001376  aa  164 137 163 164
    001377  aa  141 164 145 155
    001400  aa  145 156 164 137
    001401  aa  156 157 154 151
    001402  aa  163 164 000 000
    001403  55   000076 000056
    001404  0a   001261 500000
    001405  55   000072 000003
    001406  aa  016 156 145 170         next_statement
    001407  aa  164 137 163 164
    001410  aa  141 164 145 155
    001411  aa  145 156 164 000
    001412  55   000103 000067
    001413  0a   001256 500000
    001414  55   000101 000003
    001415  aa  005 156 170 164         nxtnb
    001416  aa  156 142 000 000
    001417  55   000110 000076
    001420  0a   001253 500000
    001421  55   000106 000003
    001422  aa  004 156 145 170         next
    001423  aa  164 000 000 000
    001424  55   000002 000103
    001425  6a   000000 400002
    001426  55   000113 000003
    001427  aa  014 163 171 155         symbol_table
    001430  aa  142 157 154 137
    001431  aa  164 141 142 154
    001432  aa  145 000 000 000

DEFINITIONS HASH TABLE

    001433  aa   000000 000015
    001434  5a   000036 000000
    001435  5a   000103 000000
    001436  5a   000010 000000
    001437  5a   000015 000000
    001440  5a   000067 000000
    001441  5a   000027 000000
    001442  5a   000110 000000
    001443  5a   000056 000000
    001444  aa   000000 000000
    001445  5a   000047 000000
    001446  5a   000076 000000
    001447  aa   000000 000000
    001450  5a   000022 000000

EXTERNAL NAMES

    001451  aa  017 151 156 143         include_control
    001452  aa  154 165 144 145
    001453  aa  137 143 157 156
    001454  aa  164 162 157 154
    001455  aa  014 155 141 143         macro_linect
    001456  aa  162 157 137 154
    001457  aa  151 156 145 143
    001460  aa  164 000 000 000
    001461  aa  006 143 157 144         codtab
    001462  aa  164 141 142 000
    001463  aa  006 166 141 162         varcom
    001464  aa  143 157 155 000
    001465  aa  014 143 165 162         curr_char_no
    001466  aa  162 137 143 150
    001467  aa  141 162 137 156
    001470  aa  157 000 000 000
    001471  aa  003 160 157 160         pop
    001472  aa  021 141 154 155         alm_include_file_
    001473  aa  137 151 156 143
    001474  aa  154 165 144 145
    001475  aa  137 146 151 154
    001476  aa  145 137 000 000
    001477  aa  013 163 157 165         source_only
    001500  aa  162 143 145 137
    001501  aa  157 156 154 171
    001502  aa  006 160 162 167         prwrd_
    001503  aa  162 144 137 000
    001504  aa  006 163 145 147         segnfo
    001505  aa  156 146 157 000
    001506  aa  010 145 142 137         eb_data_
    001507  aa  144 141 164 141
    001510  aa  137 000 000 000

NO TRAP POINTER WORDS

TYPE PAIR BLOCKS

    001511  aa   000004 000000
    001512  55   000172 000135
    001513  aa   000004 000000
    001514  55   000172 000141
    001515  aa   000004 000000
    001516  55   000172 000145
    001517  aa   000004 000000
    001520  55   000172 000147
    001521  aa   000004 000000
    001522  55   000172 000151
    001523  aa   000004 000000
    001524  55   000156 000155
    001525  aa   000004 000000
    001526  55   000166 000163
    001527  aa   000004 000000
    001530  55   000172 000170
    001531  aa   000001 000000
    001532  aa   000000 000000

INTERNAL EXPRESSION WORDS

    001533  5a   000201 000056
    001534  5a   000201 000101
    001535  5a   000203 000004
    001536  5a   000201 000000
    001537  5a   000203 000101
    001540  5a   000175 000000
    001541  5a   000203 000060
    001542  5a   000177 000000
    001543  5a   000203 000062
    001544  5a   000203 000433
    001545  5a   000201 000040
    001546  5a   000201 000012
    001547  5a   000203 000000
    001550  5a   000213 000013
    001551  5a   000205 000000
    001552  5a   000213 000002
    001553  5a   000207 000000
    001554  5a   000211 000000
    001555  aa   000000 000000
LINKAGE INFORMATION

    000000  aa   000000 000000
    000001  0a   001314 000000
    000002  aa   000000 000000
    000003  aa   000000 000000
    000004  aa   000000 000000
    000005  aa   000000 000000
    000006  22   000016 000064
    000007  a2   000000 000006
    000016  9a   777762 0000 46         prwrd_|source_only
    000017  5a   000240 0000 00
    000020  9a   777760 0000 46         alm_include_file_|pop
    000021  5a   000237 0000 00
    000022  9a   777756 0000 46         eb_data_|segnfo
    000023  5a   000236 0000 20
    000024  9a   777754 0000 46         eb_data_|curr_char_no
    000025  5a   000235 0000 00
    000026  9a   777752 0000 46         eb_data_|segnfo
    000027  5a   000234 0000 00
    000030  9a   777750 0000 46         eb_data_|varcom
    000031  5a   000233 0000 00
    000032  9a   777746 0000 46         eb_data_|codtab
    000033  5a   000232 0000 00
    000034  9a   777744 0000 46         eb_data_|codtab
    000035  5a   000231 0000 00
    000036  9a   777742 0000 46         eb_data_|varcom
    000037  5a   000230 0000 00
    000040  9a   777740 0000 46         eb_data_|varcom
    000041  5a   000227 0000 00
    000042  9a   777736 0000 46         eb_data_|macro_linect
    000043  5a   000226 0000 00
    000044  9a   777734 0000 46         eb_data_|varcom
    000045  5a   000225 0000 00
    000046  9a   777732 0000 46         eb_data_|include_control
    000047  5a   000224 0000 00
    000050  9a   777730 0000 46         eb_data_|varcom
    000051  5a   000223 0000 00
    000052  9a   777726 0000 46         eb_data_|codtab
    000053  5a   000222 0000 00
    000054  9a   777724 0000 46         eb_data_|codtab
    000055  5a   000222 0000 06
    000056  9a   777722 0000 46         eb_data_|varcom
    000057  5a   000221 0000 00
    000060  9a   777720 0000 46         eb_data_|codtab
    000061  5a   000220 0000 00
    000062  9a   777716 0000 46         eb_data_|codtab
    000063  5a   000217 0000 00
SYMBOL INFORMATION

SYMBOL TABLE HEADER

    000000  aa   000000 000001
    000001  aa   163171 155142
    000002  aa   164162 145145
    000003  aa   000000 000007
    000004  aa   000000 115705
    000005  aa   073761 335527
    000006  aa   000000 116574
    000007  aa   773344 072125
    000010  aa   141154 155040
    000011  aa   040040 040040
    000012  aa   000024 000040
    000013  aa   000034 000040
    000014  aa   000044 000100
    000015  aa   000002 000002
    000016  aa   000064 000000
    000017  aa   000000 000273
    000020  aa   000000 000132
    000021  aa   000235 000223
    000022  aa   000264 000132
    000023  aa   000064 000000
    000024  aa   101114 115040
    000025  aa   126145 162163
    000026  aa   151157 156040
    000027  aa   067056 064040
    000030  aa   101160 162151
    000031  aa   154040 061071
    000032  aa   070067 040040
    000033  aa   040040 040040
    000034  aa   110151 162156
    000035  aa   145151 163145
    000036  aa   156056 123171
    000037  aa   163115 141151
    000040  aa   156164 056141
    000041  aa   040040 040040
    000042  aa   040040 040040
    000043  aa   040040 040040
    000044  aa   055164 141162
    000045  aa   147145 164040
    000046  aa   154066 070040
    000047  aa   040040 040040
    000050  aa   040040 040040
    000051  aa   040040 040040
    000052  aa   040040 040040
    000053  aa   040040 040040
    000054  aa   040040 040040
    000055  aa   040040 040040
    000056  aa   040154 151163
    000057  aa   164040 163171
    000060  aa   155142 157154
    000061  aa   163040 040040
    000062  aa   040040 040040
    000063  aa   040040 040040
    000064  aa   000000 000001
    000065  aa   000000 000003
    000066  aa   000102 000036
    000067  aa   165715 122716
    000070  aa   000000 116574
    000071  aa   771521 600000
    000072  aa   000112 000034
    000073  aa   150057 017346
    000074  aa   000000 115006
    000075  aa   531647 200000
    000076  aa   000121 000042
    000077  aa   147777 464111
    000100  aa   000000 115000
    000101  aa   507463 000000
    000102  aa   076163 160145          >spec>install>1170>inputs_.alm
    000103  aa   143076 151156
    000104  aa   163164 141154
    000105  aa   154076 061061
    000106  aa   067060 076151
    000107  aa   156160 165164
    000110  aa   163137 056141
    000111  aa   154155 040040
    000112  aa   076154 144144          >ldd>include>segnfo.incl.alm
    000113  aa   076151 156143
    000114  aa   154165 144145
    000115  aa   076163 145147
    000116  aa   156146 157056
    000117  aa   151156 143154
    000120  aa   056141 154155
    000121  aa   076154 144144          >ldd>include>stack_header.incl.alm
    000122  aa   076151 156143
    000123  aa   154165 144145
    000124  aa   076163 164141
    000125  aa   143153 137150
    000126  aa   145141 144145
    000127  aa   162056 151156
    000130  aa   143154 056141
    000131  aa   154155 040040
               MULTICS ASSEMBLY CROSS REFERENCE LISTING

   Value        Symbol                   Source file   Line number

                alm_include_file_        inputs_:      206.
         117    ascii_literal            inputs_:       18,  164.
          60    begin_line               inputs_:       36,  155.
         101    binlin                   inputs_:       38,  159.
          10    bpsave                   inputs_:       55,  204,  211.
           0    brk                      inputs_:       34,   73,   89,  120,  183,  227.
        1170    call_offset              stack_header:        80.
          13    char                     inputs_:       57,  173,  175.
          63    check_nl                 inputs_:      123,  140,  167.
         210    chk_sym                  inputs_:      231,  243.
         246    clear                    inputs_:      229,  250,  280.
                codtab                   inputs_:       74,   90,  105,  122,  180,  182,  228,  230,  245,  247,  251.
                curr_char_no             inputs_:       68,  101,  134,  154,  176,  188,  190,  241,  275.
                eb_data_                 inputs_:       66,   68,   69,   73,   74,   89,   90,  101,  105,  113,  118,  120,
                                                       122,  134,  142,  144,  151,  153,  154,  155,  156,  157,  159,  176,
                                                       180,  182,  183,  188,  189,  190,  193,  225,  227,  228,  230,  241,
                                                       245,  247,  251,  275,
                                         segnfo:        10.
        1174    entry_offset             stack_header:        84.
         166    getid                    inputs_:       19,  216.
         652    getidtab                 inputs_:      216,  456.
         172    getid_work               inputs_:      217,  220,  224.
         170    getname                  inputs_:       20,  219.
        1052    getnametab               inputs_:      219,  249,  540.
         122    get_char                 inputs_:       84,  104,  137,  166,  171,  244.
           0    get_ptr                  inputs_:       21,   66.
          54    icomma                   inputs_:       43.
         101    ilet                     inputs_:       47,  245.
                include_control          inputs_:      157.
          12    inl                      inputs_:       41,   74,   90,  122,  228,  251.
          60    inum                     inputs_:       45.
          56    ipoint                   inputs_:       44,  247.
          76    irpb                     inputs_:       46.
          40    isp                      inputs_:       42,  105,  230.
           4    list                     segnfo:        13.
           6    list_fcb                 segnfo:        14.
          14    lstlen                   segnfo:        18.
                macro_linect             inputs_:      151,  153.
          23    mornb                    inputs_:       93,  106.
          15    next                     inputs_:       12,   83,  277.
          45    next_statement           inputs_:       14,  119.
          46    next_statement_loop      inputs_:      121,  138.
          43    next_statement_nolist    inputs_:       15,  116.
          20    nxtnb                    inputs_:       13,   89.
         252    nxtnbtab                 inputs_:       96,  236,  288.
         452    nxtsttab                 inputs_:      129,  372.
                pop                      inputs_:      206.
         110    printed                  inputs_:      143,  152,  154.
         105    printed1                 inputs_:      145,  151.
                prwrd_                   inputs_:      147.
        1171    push_offset              stack_header:        81.
         222    putin                    inputs_:      246,  248,  254.
          17    return                   inputs_:       75,   85,   91,  107,  141,  160,  252,  284.
        1173    return_no_pop_offset     stack_header:        83.
        1172    return_offset            stack_header:        82.
          50    run_statement            inputs_:       16,  114,  125.
          40    run_statement_nolist     inputs_:       17,  111.
          10    scrtch                   segnfo:        15.
                segnfo                   inputs_:       66,   69,  189,  193,
                                         segnfo:        10.
         137    set_char                 inputs_:       83,   93,  103,  126,  136,  165,  188,  212,  233,  243,  254.
           2    source                   inputs_:       66,  193,
                                         segnfo:        12.
         145    source_eof               inputs_:      191,  198.
                source_only              inputs_:      147.
         433    source_printed           inputs_:       39,  113,  118,  142,  156.
          13    srclen                   inputs_:       69,  189,
                                         segnfo:        17.
          73    stach_header.trace_top_ptr     stack_header:        62.
          66    stack_header.assign_linkage_ptr      stack_header:        59.
          32    stack_header.bar_mode_sp       stack_header:        42.
          36    stack_header.call_op_ptr       stack_header:        44.
          10    stack_header.clr_ptr     stack_header:        27.
           6    stack_header.combined_stat_ptr       stack_header:        25.
           4    stack_header.cpm_data_ptr      stack_header:        24.
          13    stack_header.cpm_enabled       stack_header:        32.
          13    stack_header.cur_lot_size      stack_header:        31.
          64    stack_header.ect_ptr     stack_header:        58.
          46    stack_header.entry_op_ptr      stack_header:        49.
          70    stack_header.heap_header_ptr   stack_header:        60.
          74    stack_header.in_trace    stack_header:        63.
          52    stack_header.isot_ptr    stack_header:        52.
          26    stack_header.lot_ptr     stack_header:        39.
          12    stack_header.main_proc_invoked       stack_header:        29.
          12    stack_header.max_lot_size      stack_header:        28.
          20    stack_header.parent_ptr  stack_header:        36.
          34    stack_header.pl1_operators_ptr       stack_header:        43.
          40    stack_header.push_op_ptr       stack_header:        46.
          42    stack_header.return_op_ptr     stack_header:        47.
          44    stack_header.ret_no_pop_op_ptr       stack_header:        48.
          62    stack_header.rnt_ptr     stack_header:        57.
          12    stack_header.run_unit_depth    stack_header:        30.
          54    stack_header.sct_ptr     stack_header:        53.
          30    stack_header.signal_ptr  stack_header:        41.
          22    stack_header.stack_begin_ptr   stack_header:        37.
          24    stack_header.stack_end_ptr     inputs_:      150,  209,
                                               stack_header:        38.
          14    stack_header.system_free_ptr   stack_header:        33.
          60    stack_header.sys_link_info_ptr       stack_header:        56.
          72    stack_header.trace_frames      stack_header:        61.
          50    stack_header.trans_op_tv_ptr   stack_header:        51.
          56    stack_header.unwinder_ptr      stack_header:        54.
          16    stack_header.user_free_ptr     stack_header:        34.
         100    stack_header_end         stack_header:        64.
          10    static_data              inputs_:       53,   62.
           4    sym                      inputs_:       35,  225.
          14    tctally                  inputs_:       58,   97,   99,  130,  132,  237,  239,  264,  266,  273.
           0    text                     segnfo:        11.
           0    text_section             inputs_:       60,   62.
          62    tpass2                   inputs_:       37,  144.
           0    trace_frames.count       stack_header:        69.
           1    trace_frames.top_ptr     stack_header:        70.
         551    tv_offset                stack_header:        75,   80,   81,   82,   83,   84.
          12    txtlen                   segnfo:        16.
                varcom                   inputs_:       73,   89,  113,  118,  120,  142,  144,  155,  156,  159,  183,  225,  227.
          12    x7save                   inputs_:       56,  203,  210.


NO FATAL ERRORS


                                          -----------------------------------------------------------


Historical Background

This edition of the Multics software materials and documentation is provided and donated
to Massachusetts Institute of Technology by Group BULL including BULL HN Information Systems Inc.
as a contribution to computer science knowledge.
This donation is made also to give evidence of the common contributions of Massachusetts Institute of Technology,
Bell Laboratories, General Electric, Honeywell Information Systems Inc., Honeywell BULL Inc., Groupe BULL
and BULL HN Information Systems Inc. to the development of this operating system.
Multics development was initiated by Massachusetts Institute of Technology Project MAC (1963-1970),
renamed the MIT Laboratory for Computer Science and Artificial Intelligence in the mid 1970s, under the leadership
of Professor Fernando Jose Corbato. Users consider that Multics provided the best software architecture
for managing computer hardware properly and for executing programs. Many subsequent operating systems
incorporated Multics principles.
Multics was distributed in 1975 to 2000 by Group Bull in Europe , and in the U.S. by Bull HN Information Systems Inc.,
as successor in interest by change in name only to Honeywell Bull Inc. and Honeywell Information Systems Inc. .

                                          -----------------------------------------------------------

Permission to use, copy, modify, and distribute these programs and their documentation for any purpose and without
fee is hereby granted,provided that the below copyright notice and historical background appear in all copies
and that both the copyright notice and historical background and this permission notice appear in supporting
documentation, and that the names of MIT, HIS, BULL or BULL HN not be used in advertising or publicity pertaining
to distribution of the programs without specific prior written permission.
    Copyright 1972 by Massachusetts Institute of Technology and Honeywell Information Systems Inc.
    Copyright 2006 by BULL HN Information Systems Inc.
    Copyright 2006 by Bull SAS
    All Rights Reserved
