ASSEMBLY LISTING OF SEGMENT >spec>on>pl128d>instruction_info.alm
ASSEMBLED ON:	10/03/83  1350.5 mst Mon
OPTIONS USED:	list
ASSEMBLED BY:	ALM Version  6.6  November 1982
ASSEMBLER CREATED:	09/21/83  1227.3 mst Wed

                                     1  " ***********************************************************
                                     2  " *                                                         *
                                     3  " * Copyright, (C) Honeywell Information Systems Inc., 1982 *
                                     4  " *                                                         *
                                     5  " * Copyright (c) 1972 by Massachusetts Institute of        *
                                     6  " * Technology and Honeywell Information Systems, Inc.      *
                                     7  " *                                                         *
                                     8  " ***********************************************************
                                     9
                                    10  " instruction information segment - BLW - August, 1970
                                    11  " Modified 791029 by PG to introduce fl and fx bits.
                                    12  " Modified 791220 by RAB to allow du modification for index register instructions.
                                    13  " Modified 800109 by PG to add operator info.
                                    14  " Modified 800225 by PG to add w flag.
                                    15  " Modified 800908 by MND to indicate tsp5 modifies pr5 not pr4, tsp7 modifies pr7 not pr6,
                                    16  "	and spl doesn't change indicators (i bit was on).
                                    17  "
    000000                          18  	name	instruction_info
                        000000      19  	segdef	instruction_info
                                    20  "
                                    21  " Following bits encode which parts of machine state are altered by an instruction
                                    22  "
                        400000      23  	bool	a,400000
                        200000      24  	bool	q,200000
                                    25
                                    26  " The indicator (i) bit is used as follows:
                                    27  "	If a register & the indicators are modified, then the instruction
                                    28  "	is assumed to set the indicators for that register.
                                    29  "	Else if no registers are modified, then the instruction invalidates
                                    30  "	the indicators.
                                    31  "
                                    32  "	If fx, then the indicators are for fixed-point.
                                    33  "	Else if fl, then the indicators are for floating-point.
                                    34  "	Else if i then the indicators are for logical data.
                                    35  "
                                    36  "	Arithmetic data (fx | fl) requires the Zero and Negative indicators.
                                    37  "	Logical data requires the Zero, Negative, and Carry indicators.
                                    38  "	The behavior of the other indicators does not matter.
                                    39  "
                        100000      40  	bool	i,100000
                        600000      41  	bool	aq,a+q
                                    42  "
                        040000      43  	bool	bp,40000
                        020000      44  	bool	lp,20000
                        010000      45  	bool	ab,10000
                        004000      46  	bool	bb,4000
                        002000      47  	bool	lb,2000
                        001000      48  	bool	sb,1000
                        000000      49  	bool	ap,0
                        000000      50  	bool	sp,0
                        077000      51  	bool	bases,ap+bp+lp+sp+ab+bb+lb+sb
                                    52  "
                        000400      53  	bool	x0,400
                        000200      54  	bool	x1,200
                        000100      55  	bool	x2,100
                        000040      56  	bool	x3,40
                        000020      57  	bool	x4,20
                        000010      58  	bool	x5,10
                        000004      59  	bool	x6,4
                        000002      60  	bool	x7,2
                        000776      61  	bool	indices,x0+x1+x2+x3+x4+x5+x6+x7
                                    62  "
                        000001      63  	bool	dr,1
                                    64  "
                        777777      65  	bool	all,aq+i+bases+indices+dr
                                    66
                                    67  "
                                    68  " Following bit indicates if an instruction can use a du|dl modifier
                                    69  "
                        400000      70  	bool	d,400000
                                    71  "
                                    72  " Following bit indicates that an instruction performs a fixed-point
                                    73  " modification of the Q or AQ register, and sets the Zero and Negative
                                    74  " indicators valid for the Q or AQ.
                                    75  "
                        200000      76  	bool	fx,200000		DL
                                    77  "
                                    78  " Following bit indicates that an instruction performs a floating-point
                                    79  " modification of the EAQ register, and sets the Zero and Negative
                                    80  " indicators valid for the EAQ.
                                    81  "
                        100000      82  	bool	fl,100000		DL
                                    83  "
                                    84  " Following bit indicates that an instruction invalidates either
                                    85  " the Zero, Negative, or Carry indicator (or any combination),
                                    86  " and does not update them upon completion. The implementation
                                    87  " of this flag is incomplete...it is used only by the ADE and LDE
                                    88  " instructions in this version of the tables.
                                    89  "
                        040000      90  	bool	w,40000		DL
                                    91  "
                                    92  " The following bit indicates that the instruction
                                    93  " modifies whatever base register is specified
                                    94  " in the top three bits, regardless of the state of
                                    95  " bit 29. This is used for the aXbd, sXbd class of things
                                    96
                        040000      97  	bool	some_base,40000	DL
                                    98  "
    000000                          99  instruction_info:
    000000  aa   777777 000000     100  	zero	all
    000001  aa   777777 000000     101  	zero	all	mme
    000002  aa   777777 000000     102  	zero	all	drl
    000003  aa   777777 000000     103  	zero	all
    000004  aa   777777 000000     104  	zero	all	mme2
    000005  aa   777777 000000     105  	zero	all	mme3
    000006  aa   777777 000000     106  	zero	all
    000007  aa   777777 000000     107  	zero	all	mme4
    000010  aa   777777 000000     108  	zero	all
    000011  aa   000000 000000     109  	zero	0	nop
    000012  aa   777777 000000     110  	zero	all
    000013  aa   000000 400000     111  	zero	0,d	puls1
    000014  aa   000000 400000     112  	zero	0,d	puls2
    000015  aa   777777 000000     113  	zero	all	cioc
    000016  aa   777777 000000     114  	zero	all
    000017  aa   777777 000000     115  	zero	all
    000020  aa   100400 400000     116  	zero	i+x0,d	adlx0
    000021  aa   100200 400000     117  	zero	i+x1,d	adlx1
    000022  aa   100100 400000     118  	zero	i+x2,d	adlx2
    000023  aa   100040 400000     119  	zero	i+x3,d	adlx3
    000024  aa   100020 400000     120  	zero	i+x4,d	adlx4
    000025  aa   100010 400000     121  	zero	i+x5,d	adlx5
    000026  aa   100004 400000     122  	zero	i+x6,d	adlx6
    000027  aa   100002 400000     123  	zero	i+x7,d	adlx7
    000030  aa   777777 000000     124  	zero	all
    000031  aa   777777 000000     125  	zero	all
    000032  aa   300000 000000     126  	zero	i+q	ldqc
    000033  aa   700000 600000     127  	zero	aq+i,d+fx	adl
    000034  aa   500000 000000     128  	zero	i+a	ldac
    000035  aa   500000 400000     129  	zero	a+i,d	adla
    000036  aa   300000 600000     130  	zero	q+i,d+fx	adlq
    000037  aa   700000 200000     131  	zero	aq+i,fx	adlaq
    000040  aa   100000 000000     132  	zero	i	asx0
    000041  aa   100000 000000     133  	zero	i	asx1
    000042  aa   100000 000000     134  	zero	i	asx2
    000043  aa   100000 000000     135  	zero	i	asx3
    000044  aa   100000 000000     136  	zero	i	asx4
    000045  aa   100000 000000     137  	zero	i	asx5
    000046  aa   100000 000000     138  	zero	i	asx6
    000047  aa   100000 000000     139  	zero	i	asx7
    000050  aa   000000 400000     140  	zero	ap,d	adwpap
    000051  aa   010000 400000     141  	zero	ab,d	adwpab
    000052  aa   040000 400000     142  	zero	bp,d	adwpbp
    000053  aa   004000 400000     143  	zero	bb,d	adwpbb
    000054  aa   100000 000000     144  	zero	i	aos
    000055  aa   100000 000000     145  	zero	i	asa
    000056  aa   100000 000000     146  	zero	i	asq
    000057  aa   777777 000000     147  	zero	all	sscr
    000060  aa   100400 400000     148  	zero	i+x0,d	adx0
    000061  aa   100200 400000     149  	zero	i+x1,d	adx1
    000062  aa   100100 400000     150  	zero	i+x2,d	adx2
    000063  aa   100040 400000     151  	zero	i+x3,d	adx3
    000064  aa   100020 400000     152  	zero	i+x4,d	adx4
    000065  aa   100010 400000     153  	zero	i+x5,d	adx5
    000066  aa   100004 400000     154  	zero	i+x6,d	adx6
    000067  aa   100002 400000     155  	zero	i+x7,d	adx7
    000070  aa   777777 000000     156  	zero	all
    000071  aa   500000 400000     157  	zero	a+i,d	awca
    000072  aa   300000 400000     158  	zero	q+i,d	awcq
    000073  aa   777777 000000     159  	zero	all	lreg
    000074  aa   777777 000000     160  	zero	all
    000075  aa   500000 400000     161  	zero	a+i,d	ada
    000076  aa   300000 600000     162  	zero	q+i,d+fx	adq
    000077  aa   700000 200000     163  	zero	aq+i,fx	adaq
    000100  aa   100000 400000     164  	zero	i,d	cmpx0
    000101  aa   100000 400000     165  	zero	i,d	cmpx1
    000102  aa   100000 400000     166  	zero	i,d	cmpx2
    000103  aa   100000 400000     167  	zero	i,d	cmpx3
    000104  aa   100000 400000     168  	zero	i,d	cmpx4
    000105  aa   100000 400000     169  	zero	i,d	cmpx5
    000106  aa   100000 400000     170  	zero	i,d	cmpx6
    000107  aa   100000 400000     171  	zero	i,d	cmpx7
    000110  aa   777777 000000     172  	zero	all
    000111  aa   100000 400000     173  	zero	i,d	cwl
    000112  aa   777777 000000     174  	zero	all
    000113  aa   777777 000000     175  	zero	all
    000114  aa   777777 000000     176  	zero	all
    000115  aa   100000 400000     177  	zero	i,d	cmpa
    000116  aa   100000 400000     178  	zero	i,d	cmpq
    000117  aa   100000 000000     179  	zero	i	cmpaq
    000120  aa   100400 400000     180  	zero	i+x0,d	sblx0
    000121  aa   100200 400000     181  	zero	i+x1,d	sblx1
    000122  aa   100100 400000     182  	zero	i+x2,d	sblx2
    000123  aa   100040 400000     183  	zero	i+x3,d	sblx3
    000124  aa   100020 400000     184  	zero	i+x4,d	sblx4
    000125  aa   100010 400000     185  	zero	i+x5,d	sblx5
    000126  aa   100004 400000     186  	zero	i+x6,d	sblx6
    000127  aa   100002 400000     187  	zero	i+x7,d	sblx7
    000130  aa   777777 000000     188  	zero 	all
    000131  aa   777777 000000     189  	zero	all
    000132  aa   777777 000000     190  	zero	all
    000133  aa   777777 000000     191  	zero	all
    000134  aa   777777 000000     192  	zero	all
    000135  aa   500000 400000     193  	zero	a+i,d	sbla
    000136  aa   300000 600000     194  	zero	q+i,d+fx	sblq
    000137  aa   700000 200000     195  	zero	aq+i,fx	sblaq
    000140  aa   100000 000000     196  	zero	i	ssx0
    000141  aa   100000 000000     197  	zero	i	ssx1
    000142  aa   100000 000000     198  	zero	i	ssx2
    000143  aa   100000 000000     199  	zero	i	ssx3
    000144  aa   100000 000000     200  	zero	i	ssx4
    000145  aa   100000 000000     201  	zero	i	ssx5
    000146  aa   100000 000000     202  	zero	i	ssx6
    000147  aa   100000 000000     203  	zero	i	ssx7
    000150  aa   020000 400000     204  	zero	lp,d	adwplp
    000151  aa   002000 400000     205  	zero	lb,d	adwplb
    000152  aa   000000 400000     206  	zero	sp,d	adwpsp
    000153  aa   001000 400000     207  	zero	sb,d	adwpsb
    000154  aa   777777 000000     208  	zero	all	sdbr
    000155  aa   100000 000000     209  	zero	i	ssa
    000156  aa   100000 000000     210  	zero	i	ssq
    000157  aa   777777 000000     211  	zero	all
    000160  aa   100400 400000     212  	zero	i+x0,d	sbx0
    000161  aa   100200 400000     213  	zero	i+x1,d	sbx1
    000162  aa   100100 400000     214  	zero	i+x2,d	sbx2
    000163  aa   100040 400000     215  	zero	i+x3,d	sbx3
    000164  aa   100020 400000     216  	zero	i+x4,d	sbx4
    000165  aa   100010 400000     217  	zero	i+x5,d	sbx5
    000166  aa   100004 400000     218  	zero	i+x6,d	sbx6
    000167  aa   100002 400000     219  	zero	i+x7,d	sbx7
    000170  aa   777777 000000     220  	zero	all
    000171  aa   500000 400000     221  	zero	a+i,d	swca
    000172  aa   300000 400000     222  	zero	q+i,d	swcq
    000173  aa   077000 000000     223  	zero	bases	lpri
    000174  aa   777777 000000     224  	zero	all
    000175  aa   500000 400000     225  	zero	a+i,d	sba
    000176  aa   300000 600000     226  	zero	q+i,d+fx	sbq
    000177  aa   700000 200000     227  	zero	aq+i,fx	sbaq
    000200  aa   100000 400000     228  	zero	i,d	cnax0
    000201  aa   100000 400000     229  	zero	i,d	cnax1
    000202  aa   100000 400000     230  	zero	i,d	cnax2
    000203  aa   100000 400000     231  	zero	i,d	cnax3
    000204  aa   100000 400000     232  	zero	i,d	cnax4
    000205  aa   100000 400000     233  	zero	i,d	cnax5
    000206  aa   100000 400000     234  	zero	i,d	cnax6
    000207  aa   100000 400000     235  	zero	i,d	cnax7
    000210  aa   777777 000000     236  	zero	all
    000211  aa   100000 000000     237  	zero	i	cmk
    000212  aa   500000 000000     238  	zero	i+a	absa
    000213  aa   700000 000000     239  	zero	i+aq	epaq
    000214  aa   100000 400000     240  	zero	i,d	sznc
    000215  aa   100000 400000     241  	zero	i,d	cnaa
    000216  aa   100000 400000     242  	zero	i,d	cnaq
    000217  aa   100000 000000     243  	zero	i	cnaaq
    000220  aa   100400 400000     244  	zero	i+x0,d	ldx0
    000221  aa   100200 400000     245  	zero	i+x1,d	ldx1
    000222  aa   100100 400000     246  	zero	i+x2,d	ldx2
    000223  aa   100040 400000     247  	zero	i+x3,d	ldx3
    000224  aa   100020 400000     248  	zero	i+x4,d	ldx4
    000225  aa   100010 400000     249  	zero	i+x5,d	ldx5
    000226  aa   100004 400000     250  	zero	i+x6,d	ldx6
    000227  aa   100002 400000     251  	zero	i+x7,d	ldx7
    000230  aa   777777 000000     252  	zero	all	lbar
    000231  aa   777777 000000     253  	zero	all	rsw
    000232  aa   777777 000000     254  	zero	all	ldbr
    000233  aa   777777 000000     255  	zero	all	rmcm
    000234  aa   100000 400000     256  	zero	i,d	szn
    000235  aa   500000 400000     257  	zero	a+i,d	lda
    000236  aa   300000 600000     258  	zero	q+i,d+fx	ldq
    000237  aa   700000 200000     259  	zero	aq+i,fx	ldaq
    000240  aa   100000 000000     260  	zero	i	orsx0
    000241  aa   100000 000000     261  	zero	i	orsx1
    000242  aa   100000 000000     262  	zero	i	orsx2
    000243  aa   100000 000000     263  	zero	i	orsx3
    000244  aa   100000 000000     264  	zero	i	orsx4
    000245  aa   100000 000000     265  	zero	i	orsx5
    000246  aa   100000 000000     266  	zero	i	orsx6
    000247  aa   100000 000000     267  	zero	i	orsx7
    000250  aa   000000 000000     268  	zero	0	spriap
    000251  aa   000000 000000     269  	zero	0	spbpap
    000252  aa   000000 000000     270  	zero	0	spribp
    000253  aa   000000 000000     271  	zero	0	spbpbp
    000254  aa   000000 000000     272  	zero	0	spri
    000255  aa   100000 000000     273  	zero	i	orsa
    000256  aa   100000 000000     274  	zero	i	orsq
    000257  aa   777777 000000     275  	zero	all	lsdp
    000260  aa   100400 400000     276  	zero	i+x0,d	orx0
    000261  aa   100200 400000     277  	zero	i+x1,d	orx1
    000262  aa   100100 400000     278  	zero	i+x2,d	orx2
    000263  aa   100040 400000     279  	zero	i+x3,d	orx3
    000264  aa   100020 400000     280  	zero	i+x4,d	orx4
    000265  aa   100010 400000     281  	zero	i+x5,d	orx5
    000266  aa   100004 400000     282  	zero	i+x6,d	orx6
    000267  aa   100002 400000     283  	zero	i+x7,d	orx7
    000270  aa   000000 000000     284  	zero	ap	tspap
    000271  aa   010000 000000     285  	zero	ab	tspab
    000272  aa   040000 000000     286  	zero	bp	tspbp
    000273  aa   004000 000000     287  	zero	bb	tspbb
    000274  aa   777777 000000     288  	zero	all
    000275  aa   500000 400000     289  	zero	a+i,d	ora
    000276  aa   300000 400000     290  	zero	q+i,d	orq
    000277  aa   700000 000000     291  	zero	aq+i	oraq
    000300  aa   100000 400000     292  	zero	i,d	canx0
    000301  aa   100000 400000     293  	zero	i,d	canx1
    000302  aa   100000 400000     294  	zero	i,d	canx2
    000303  aa   100000 400000     295  	zero	i,d	canx3
    000304  aa   100000 400000     296  	zero	i,d	canx4
    000305  aa   100000 400000     297  	zero	i,d	canx5
    000306  aa   100000 400000     298  	zero	i,d	canx6
    000307  aa   100000 400000     299  	zero	i,d	canx7
    000310  aa   000000 000000     300  	zero	ap	eawpap
    000311  aa   000000 000000     301  	zero	ap	easpap
    000312  aa   040000 000000     302  	zero	bp	eawpbp
    000313  aa   040000 000000     303  	zero	bp	easpbp
    000314  aa   777777 000000     304  	zero	all
    000315  aa   100000 400000     305  	zero	i,d	cana
    000316  aa   100000 400000     306  	zero	i,d	canq
    000317  aa   100000 000000     307  	zero	i	canaq
    000320  aa   100400 400000     308  	zero	i+x0,d	lcx0
    000321  aa   100200 400000     309  	zero	i+x1,d	lcx1
    000322  aa   100100 400000     310  	zero	i+x2,d	lcx2
    000323  aa   100040 400000     311  	zero	i+x3,d	lcx3
    000324  aa   100020 400000     312  	zero	i+x4,d	lcx4
    000325  aa   100010 400000     313  	zero	i+x5,d	lcx5
    000326  aa   100004 400000     314  	zero	i+x6,d	lcx6
    000327  aa   100002 400000     315  	zero	i+x7,d	lcx7
    000330  aa   020000 000000     316  	zero	lp	eawplp
    000331  aa   020000 000000     317  	zero	lp	easplp
    000332  aa   000000 000000     318  	zero	sp	eawpsp
    000333  aa   000000 000000     319  	zero	sp	easpsp
    000334  aa   777777 000000     320  	zero	all
    000335  aa   500000 400000     321  	zero	a+i,d	lca
    000336  aa   300000 600000     322  	zero	q+i,d+fx	lcq
    000337  aa   700000 200000     323  	zero	aq+i,fx	lcaq
    000340  aa   100000 000000     324  	zero	i	ansx0
    000341  aa   100000 000000     325  	zero	i	ansx1
    000342  aa   100000 000000     326  	zero	i	ansx2
    000343  aa   100000 000000     327  	zero	i	ansx3
    000344  aa   100000 000000     328  	zero	i	ansx4
    000345  aa   100000 000000     329  	zero	i	ansx5
    000346  aa   100000 000000     330  	zero	i	ansx6
    000347  aa   100000 000000     331  	zero	i	ansx7
    000350  aa   000000 000000     332  	zero	ap	eppap
    000351  aa   010000 000000     333  	zero	ab	epbpab
    000352  aa   040000 000000     334  	zero	bp	eppbp
    000353  aa   004000 000000     335  	zero	bb	epbpbb
    000354  aa   100000 000000     336  	zero	i	stac
    000355  aa   100000 000000     337  	zero	i	ansa
    000356  aa   100000 000000     338  	zero	i	ansq
    000357  aa   000000 000000     339  	zero	0	stcd
    000360  aa   100400 400000     340  	zero	i+x0,d	anx0
    000361  aa   100200 400000     341  	zero	i+x1,d	anx1
    000362  aa   100100 400000     342  	zero	i+x2,d	anx2
    000363  aa   100040 400000     343  	zero	i+x3,d	anx3
    000364  aa   100020 400000     344  	zero	i+x4,d	anx4
    000365  aa   100010 400000     345  	zero	i+x5,d	anx5
    000366  aa   100004 400000     346  	zero	i+x6,d	anx6
    000367  aa   100002 400000     347  	zero	i+x7,d	anx7
    000370  aa   020000 000000     348  	zero	lp	epplp
    000371  aa   002000 000000     349  	zero	lb	epbplb
    000372  aa   000000 000000     350  	zero	sp	eppsp
    000373  aa   001000 000000     351  	zero	sb	epbpsb
    000374  aa   777777 000000     352  	zero	all
    000375  aa   500000 400000     353  	zero	a+i,d	ana
    000376  aa   300000 400000     354  	zero	q+i,d	anq
    000377  aa   700000 000000     355  	zero	aq+i	anaq
    000400  aa   777777 000000     356  	zero	all
    000401  aa   700000 600000     357  	zero	aq+i,d+fx	mpf
    000402  aa   700000 600000     358  	zero	aq+i,d+fx	mpy
    000403  aa   777777 000000     359  	zero	all
    000404  aa   777777 000000     360  	zero	all
    000405  aa   100000 400000     361  	zero	i,d	cmg
    000406  aa   777777 000000     362  	zero	all
    000407  aa   777777 000000     363  	zero	all
    000410  aa   777777 000000     364  	zero	all
    000411  aa   600000 440000     365  	zero	aq,d+w	lde
    000412  aa   777777 000000     366  	zero	all
    000413  aa   777777 000000     367  	zero	all	rscr
    000414  aa   777777 000000     368  	zero	all
    000415  aa   600000 440000     369  	zero	aq,d+w	ade
    000416  aa   777777 000000     370  	zero	all
    000417  aa   777777 000000     371  	zero	all
    000420  aa   777777 000000     372  	zero	all
    000421  aa   700000 500000     373  	zero	aq+i,d+fl	ufm
    000422  aa   777777 000000     374  	zero	all
    000423  aa   700000 100000     375  	zero	aq+i,fl	dufm
    000424  aa   777777 000000     376  	zero	all
    000425  aa   100000 400000     377  	zero	i,d	fcmg
    000426  aa   777777 000000     378  	zero	all
    000427  aa   100000 000000     379  	zero	i	dfcmg
    000430  aa   100000 400000     380  	zero	i,d	fszn
    000431  aa   700000 500000     381  	zero	aq+i,d+fl	fld
    000432  aa   777777 000000     382  	zero	all
    000433  aa   700000 100000     383  	zero	aq+i,fl	dfld
    000434  aa   777777 000000     384  	zero	all
    000435  aa   700000 500000     385  	zero	aq+i,d+fl	ufa
    000436  aa   777777 000000     386  	zero	all
    000437  aa   700000 100000     387  	zero	aq+i,fl	dufa
    000440  aa   000000 000000     388  	zero	0	sxl0
    000441  aa   000000 000000     389  	zero	0	sxl1
    000442  aa   000000 000000     390  	zero	0	sxl2
    000443  aa   000000 000000     391  	zero	0	sxl3
    000444  aa   000000 000000     392  	zero	0	sxl4
    000445  aa   000000 000000     393  	zero	0	sxl5
    000446  aa   000000 000000     394  	zero	0	sxl6
    000447  aa   000000 000000     395  	zero	0	sxl7
    000450  aa   000000 000000     396  	zero	0	stz
    000451  aa   777777 000000     397  	zero	all	smic
    000452  aa   777777 000000     398  	zero	all	scpr
    000453  aa   777777 000000     399  	zero	all
    000454  aa   777777 000000     400  	zero	all	stt
    000455  aa   000000 000000     401  	zero	0	fst
    000456  aa   000000 000000     402  	zero	0	ste
    000457  aa   000000 000000     403  	zero	0	dfst
    000460  aa   777777 000000     404  	zero	all
    000461  aa   700000 500000     405  	zero	aq+i,d+fl	fmp
    000462  aa   777777 000000     406  	zero	all
    000463  aa   700000 100000     407  	zero	aq+i,fl	dfmp
    000464  aa   777777 000000     408  	zero	all
    000465  aa   777777 000000     409  	zero	all
    000466  aa   777777 000000     410  	zero	all
    000467  aa   777777 000000     411  	zero	all
    000470  aa   100000 000000     412  	zero	i	fstr
    000471  aa   700000 100000     413  	zero	aq+i,fl	frd
    000472  aa   100000 000000     414  	zero	i	dfstr
    000473  aa   700000 100000     415  	zero	aq+i,fl	dfrd
    000474  aa   777777 000000     416  	zero	all
    000475  aa   700000 500000     417  	zero	aq+i,d+fl	fad
    000476  aa   777777 000000     418  	zero	all
    000477  aa   700000 100000     419  	zero	aq+i,fl	dfad
    000500  aa   777777 000000     420  	zero	all	rpl
    000501  aa   777777 000000     421  	zero	all
    000502  aa   777777 000000     422  	zero	all
    000503  aa   777777 000000     423  	zero	all
    000504  aa   777777 000000     424  	zero	all
    000505  aa   777777 000000     425  	zero	all	bcd
    000506  aa   700000 600000     426  	zero	aq+i,d+fx	div
    000507  aa   700000 400000     427  	zero	aq+i,d	dvf
    000510  aa   777777 000000     428  	zero	all
    000511  aa   777777 000000     429  	zero	all
    000512  aa   777777 000000     430  	zero	all
    000513  aa   700000 100000     431  	zero	aq+i,fl	fneg
    000514  aa   777777 000000     432  	zero	all
    000515  aa   100000 400000     433  	zero	i,d	fcmp
    000516  aa   777777 000000     434  	zero	all
    000517  aa   100000 000000     435  	zero	i	dfcmp
    000520  aa   777777 000000     436  	zero	all	rpt
    000521  aa   777777 000000     437  	zero	all
    000522  aa   777777 000000     438  	zero	all
    000523  aa   777777 000000     439  	zero	all
    000524  aa   777777 000000     440  	zero	all
    000525  aa   700000 500000     441  	zero	aq+i,d+fl	fdi
    000526  aa   777777 000000     442  	zero	all
    000527  aa   700000 100000     443  	zero	aq+i,fl	dfdi
    000530  aa   777777 000000     444  	zero	all
    000531  aa   500000 000000     445  	zero	a+i	neg
    000532  aa   777777 000000     446  	zero	all	cams
    000533  aa   700000 200000     447  	zero	aq+i,fx	negl
    000534  aa   777777 000000     448  	zero	all
    000535  aa   700000 500000     449  	zero	aq+i,d+fl	ufs
    000536  aa   777777 000000     450  	zero	all
    000537  aa   700000 100000     451  	zero	aq+i,fl	dufs
    000540  aa   000000 000000     452  	zero	0	sprpap
    000541  aa   000000 000000     453  	zero	0	sprpab
    000542  aa   000000 000000     454  	zero	0	sprpbp
    000543  aa   000000 000000     455  	zero	0	sprpbb
    000544  aa   000000 000000     456  	zero	0	sprplp
    000545  aa   000000 000000     457  	zero	0	sprplb
    000546  aa   000000 000000     458  	zero	0	sprpsp
    000547  aa   000000 000000     459  	zero	0	sprpsb
    000550  aa   777777 000000     460  	zero	all	sbar
    000551  aa   000000 000000     461  	zero	0	stba
    000552  aa   000000 000000     462  	zero	0	stbq
    000553  aa   777777 000000     463  	zero	all	smcm
    000554  aa   000000 000000     464  	zero	0	stc1
    000555  aa   777777 000000     465  	zero	all
    000556  aa   777777 000000     466  	zero	all
    000557  aa   777777 000000     467  	zero	all	ssdp
    000560  aa   777777 000000     468  	zero	all	rpd
    000561  aa   777777 000000     469  	zero	all
    000562  aa   777777 000000     470  	zero	all
    000563  aa   777777 000000     471  	zero	all
    000564  aa   777777 000000     472  	zero	all
    000565  aa   700000 500000     473  	zero	aq+i,d+fl	fdv
    000566  aa   777777 000000     474  	zero	all
    000567  aa   700000 100000     475  	zero	aq+i,fl	dfdv
    000570  aa   777777 000000     476  	zero	all
    000571  aa   777777 000000     477  	zero	all
    000572  aa   777777 000000     478  	zero	all
    000573  aa   700000 100000     479  	zero	aq+i,fl	fno
    000574  aa   777777 000000     480  	zero	all
    000575  aa   700000 500000     481  	zero	aq+i,d+fl	fsb
    000576  aa   777777 000000     482  	zero	all
    000577  aa   700000 100000     483  	zero	aq+i,fl	dfsb
    000600  aa   000000 000000     484  	zero	0	tze
    000601  aa   000000 000000     485  	zero	0	tnz
    000602  aa   000000 000000     486  	zero	0	tnc
    000603  aa   000000 000000     487  	zero	0	trc
    000604  aa   000000 000000     488  	zero	0	tmi
    000605  aa   000000 000000     489  	zero	0	tpl
    000606  aa   777777 000000     490  	zero	all
    000607  aa   000000 000000     491  	zero	0	ttf
    000610  aa   777777 000000     492  	zero	all	rtcd
    000611  aa   777777 000000     493  	zero	all
    000612  aa   777777 000000     494  	zero	all
    000613  aa   777777 000000     495  	zero	all	rcu
    000614  aa   000000 000000     496  	zero	0	teo
    000615  aa   000000 000000     497  	zero	0	teu
    000616  aa   777777 000000     498  	zero	all	dis
    000617  aa   000000 000000     499  	zero	0	tov
    000620  aa   100400 000000     500  	zero	i+x0	eax0
    000621  aa   100200 000000     501  	zero	i+x1	eax1
    000622  aa   100100 000000     502  	zero	i+x2	eax2
    000623  aa   100040 000000     503  	zero	i+x3	eax3
    000624  aa   100020 000000     504  	zero	i+x4	eax4
    000625  aa   100010 000000     505  	zero	i+x5	eax5
    000626  aa   100004 000000     506  	zero	i+x6	eax6
    000627  aa   100002 000000     507  	zero	i+x7	eax7
    000630  aa   777777 000000     508  	zero	all	ret
    000631  aa   777777 000000     509  	zero	all
    000632  aa   777777 000000     510  	zero	all
    000633  aa   777777 000000     511  	zero	all	rccl
    000634  aa   100000 000000     512  	zero	i	ldi
    000635  aa   500000 000000     513  	zero	a+i	eaa
    000636  aa   300000 000000     514  	zero	q+i	eaq
    000637  aa   100000 000000     515  	zero	i	ldt
    000640  aa   100000 000000     516  	zero	i	ersx0
    000641  aa   100000 000000     517  	zero	i	ersx1
    000642  aa   100000 000000     518  	zero	i	ersx2
    000643  aa   100000 000000     519  	zero	i	ersx3
    000644  aa   100000 000000     520  	zero	i	ersx4
    000645  aa   100000 000000     521  	zero	i	ersx5
    000646  aa   100000 000000     522  	zero	i	ersx6
    000647  aa   100000 000000     523  	zero	i	ersx7
    000650  aa   000000 000000     524  	zero	0	sprilp
    000651  aa   000000 000000     525  	zero	0	spbplb
    000652  aa   000000 000000     526  	zero	0	sprisp
    000653  aa   000000 000000     527  	zero	0	spbpsb
    000654  aa   100000 000000     528  	zero	i	stacq
    000655  aa   100000 000000     529  	zero	i	ersa
    000656  aa   100000 000000     530  	zero	i	ersq
    000657  aa   777777 000000     531  	zero	all	scu
    000660  aa   100400 400000     532  	zero	i+x0,d	erx0
    000661  aa   100200 400000     533  	zero	i+x1,d	erx1
    000662  aa   100100 400000     534  	zero	i+x2,d	erx2
    000663  aa   100040 400000     535  	zero	i+x3,d	erx3
    000664  aa   100020 400000     536  	zero	i+x4,d	erx4
    000665  aa   100010 400000     537  	zero	i+x5,d	erx5
    000666  aa   100004 400000     538  	zero	i+x6,d	erx6
    000667  aa   100002 400000     539  	zero	i+x7,d	erx7
    000670  aa   777000 000000     540  	zero	aq+i+bases	tsplp
    000671  aa   002000 000000     541  	zero	lb	tsplb
    000672  aa   000000 000000     542  	zero	sp	tspsp
    000673  aa   001000 000000     543  	zero	sb	tspsb
    000674  aa   777777 000000     544  	zero	all	lcpr
    000675  aa   500000 400000     545  	zero	a+i,d	era
    000676  aa   300000 400000     546  	zero	q+i,d	erq
    000677  aa   700000 000000     547  	zero	aq+i	eraq
    000700  aa   000400 000000     548  	zero	x0	tsx0
    000701  aa   000200 000000     549  	zero	x1	tsx1
    000702  aa   000100 000000     550  	zero	x2	tsx2
    000703  aa   000040 000000     551  	zero	x3	tsx3
    000704  aa   000020 000000     552  	zero	x4	tsx4
    000705  aa   000010 000000     553  	zero	x5	tsx5
    000706  aa   000004 000000     554  	zero	x6	tsx6
    000707  aa   000002 000000     555  	zero	x7	tsx7
    000710  aa   000000 000000     556  	zero	0	tra
    000711  aa   777777 000000     557  	zero	all
    000712  aa   777777 000000     558  	zero	all
    000713  aa   777777 000000     559  	zero	all	callsp
    000714  aa   777777 000000     560  	zero	all
    000715  aa   777777 000000     561  	zero	all	tss
    000716  aa   777777 000000     562  	zero	all	xec
    000717  aa   777777 000000     563  	zero	all	xed
    000720  aa   100400 400000     564  	zero	i+x0,d	lxl0
    000721  aa   100200 400000     565  	zero	i+x1,d	lxl1
    000722  aa   100100 400000     566  	zero	i+x2,d	lxl2
    000723  aa   100040 400000     567  	zero	i+x3,d	lxl3
    000724  aa   100020 400000     568  	zero	i+x4,d	lxl4
    000725  aa   100010 400000     569  	zero	i+x5,d	lxl5
    000726  aa   100004 400000     570  	zero	i+x6,d	lxl6
    000727  aa   100002 400000     571  	zero	i+x7,d	lxl7
    000730  aa   777777 000000     572  	zero	all
    000731  aa   500000 000000     573  	zero	a+i	ars
    000732  aa   300000 200000     574  	zero	q+i,fx	qrs
    000733  aa   700000 200000     575  	zero	aq+i,fx	lrs
    000734  aa   777777 000000     576  	zero	all
    000735  aa   500000 000000     577  	zero	a+i	als
    000736  aa   300000 000000     578  	zero	q+i	qls
    000737  aa   700000 000000     579  	zero	aq+i	lls
    000740  aa   000000 000000     580  	zero	0	stx0
    000741  aa   000000 000000     581  	zero	0	stx1
    000742  aa   000000 000000     582  	zero	0	stx2
    000743  aa   000000 000000     583  	zero	0	stx3
    000744  aa   000000 000000     584  	zero	0	stx4
    000745  aa   000000 000000     585  	zero	0	stx5
    000746  aa   000000 000000     586  	zero	0	stx6
    000747  aa   000000 000000     587  	zero	0	stx7
    000750  aa   000000 000000     588  	zero	0	stc2
    000751  aa   000000 000000     589  	zero	0	stca
    000752  aa   000000 000000     590  	zero	0	stcq
    000753  aa   000000 000000     591  	zero	0	sreg
    000754  aa   000000 000000     592  	zero	0	sti
    000755  aa   000000 000000     593  	zero	0	sta
    000756  aa   000000 000000     594  	zero	0	stq
    000757  aa   000000 000000     595  	zero	0	staq
    000760  aa   000000 000000     596  	zero	ap	lprpap
    000761  aa   010000 000000     597  	zero	ab	lprpab
    000762  aa   040000 000000     598  	zero	bp	lprpbp
    000763  aa   004000 000000     599  	zero	bb	lprpbb
    000764  aa   020000 000000     600  	zero	lp	lprplp
    000765  aa   002000 000000     601  	zero	lb	lprplb
    000766  aa   000000 000000     602  	zero	sp	lprpsp
    000767  aa   001000 000000     603  	zero	sb	lprpsb
    000770  aa   777777 000000     604  	zero	all
    000771  aa   500000 000000     605  	zero	a+i	arl
    000772  aa   300000 000000     606  	zero	q+i	qrl
    000773  aa   700000 000000     607  	zero	aq+i	lrl
    000774  aa   777777 000000     608  	zero	all	gtb
    000775  aa   500000 000000     609  	zero	a+i	alr
    000776  aa   300000 000000     610  	zero	q+i	qlr
    000777  aa   700000 000000     611  	zero	aq+i	llr
                                   612  "
    001000  aa   777777 000000     613  	zero	all
    001001  aa   777777 000000     614  	zero	all
    001002  aa   777777 000000     615  	zero	all
    001003  aa   777777 000000     616  	zero	all
    001004  aa   777777 000000     617  	zero	all
    001005  aa   777777 000000     618  	zero	all
    001006  aa   777777 000000     619  	zero	all
    001007  aa   777777 000000     620  	zero	all
    001010  aa   777777 000000     621  	zero	all
    001011  aa   777777 000000     622  	zero	all
    001012  aa   777777 000000     623  	zero	all
    001013  aa   777777 000000     624  	zero	all
    001014  aa   777777 000000     625  	zero	all
    001015  aa   777777 000000     626  	zero	all
    001016  aa   777777 000000     627  	zero	all
    001017  aa   777777 000000     628  	zero	all
    001020  aa   000000 000010     629  	zero	0,4*2	mve
    001021  aa   777777 000000     630  	zero	all
    001022  aa   777777 000000     631  	zero	all
    001023  aa   777777 000000     632  	zero	all
    001024  aa   000000 000010     633  	zero	0,4*2	mvne
    001025  aa   777777 000000     634  	zero	all
    001026  aa   777777 000000     635  	zero	all
    001027  aa   777777 000000     636  	zero	all
    001030  aa   777777 000000     637  	zero	all
    001031  aa   777777 000000     638  	zero	all
    001032  aa   777777 000000     639  	zero	all
    001033  aa   777777 000000     640  	zero	all
    001034  aa   777777 000000     641  	zero	all
    001035  aa   777777 000000     642  	zero	all
    001036  aa   777777 000000     643  	zero	all
    001037  aa   777777 000000     644  	zero	all
    001040  aa   777777 000000     645  	zero	all
    001041  aa   777777 000000     646  	zero	all
    001042  aa   777777 000000     647  	zero	all
    001043  aa   777777 000000     648  	zero	all
    001044  aa   777777 000000     649  	zero	all
    001045  aa   777777 000000     650  	zero	all
    001046  aa   777777 000000     651  	zero	all
    001047  aa   777777 000000     652  	zero	all
    001050  aa   777777 000000     653  	zero	all
    001051  aa   777777 000000     654  	zero	all
    001052  aa   777777 000000     655  	zero	all
    001053  aa   777777 000000     656  	zero	all
    001054  aa   777777 000000     657  	zero	all
    001055  aa   777777 000000     658  	zero	all
    001056  aa   777777 000000     659  	zero	all
    001057  aa   777777 000000     660  	zero	all
    001060  aa   100000 000006     661  	zero	i,3*2	csl
    001061  aa   100000 000006     662  	zero	i,3*2	csr
    001062  aa   777777 000000     663  	zero	all
    001063  aa   777777 000000     664  	zero	all
    001064  aa   100000 000006     665  	zero	i,3*2	sztl
    001065  aa   100000 000006     666  	zero	i,3*2	sztr
    001066  aa   100000 000006     667  	zero	i,3*2	cmpb
    001067  aa   777777 000000     668  	zero	all
    001070  aa   777777 000000     669  	zero	all
    001071  aa   777777 000000     670  	zero	all
    001072  aa   777777 000000     671  	zero	all
    001073  aa   777777 000000     672  	zero	all
    001074  aa   777777 000000     673  	zero	all
    001075  aa   777777 000000     674  	zero	all
    001076  aa   777777 000000     675  	zero	all
    001077  aa   777777 000000     676  	zero	all
    001100  aa   000000 000006     677  	zero	0,3*2	mlr
    001101  aa   000000 000006     678  	zero	0,3*2	mrl
    001102  aa   777777 000000     679  	zero	all
    001103  aa   777777 000000     680  	zero	all
    001104  aa   777777 000000     681  	zero	all
    001105  aa   777777 000000     682  	zero	all
    001106  aa   100000 000006     683  	zero	i,3*2	cmpc
    001107  aa   777777 000000     684  	zero	all
    001110  aa   777777 000000     685  	zero	all
    001111  aa   777777 000000     686  	zero	all
    001112  aa   777777 000000     687  	zero	all
    001113  aa   777777 000000     688  	zero	all
    001114  aa   777777 000000     689  	zero	all
    001115  aa   777777 000000     690  	zero	all
    001116  aa   777777 000000     691  	zero	all
    001117  aa   777777 000000     692  	zero	all
    001120  aa   000000 400010     693  	zero	0,d+4*2	scd
    001121  aa   000000 400010     694  	zero	0,d+4*2	scdr
    001122  aa   777777 000000     695  	zero	all
    001123  aa   777777 000000     696  	zero	all
    001124  aa   000000 400010     697  	zero	0,d+4*2	scm
    001125  aa   000000 400010     698  	zero	0,d+4*2	scmr
    001126  aa   777777 000000     699  	zero	all
    001127  aa   777777 000000     700  	zero	all
    001130  aa   777777 000000     701  	zero	all
    001131  aa   777777 000000     702  	zero	all
    001132  aa   777777 000000     703  	zero	all
    001133  aa   777777 000000     704  	zero	all
    001134  aa   777777 000000     705  	zero	all
    001135  aa   777777 000000     706  	zero	all
    001136  aa   777777 000000     707  	zero	all
    001137  aa   777777 000000     708  	zero	all
    001140  aa   777777 000000     709  	zero	all
    001141  aa   777777 000000     710  	zero	all
    001142  aa   777777 000000     711  	zero	all
    001143  aa   777777 000000     712  	zero	all
    001144  aa   777777 000000     713  	zero	all
    001145  aa   777777 000000     714  	zero	all
    001146  aa   777777 000000     715  	zero	all
    001147  aa   777777 000000     716  	zero	all
    001150  aa   777777 000000     717  	zero	all
    001151  aa   777777 000000     718  	zero	all
    001152  aa   777777 000000     719  	zero	all
    001153  aa   777777 000000     720  	zero	all
    001154  aa   777777 000000     721  	zero	all	sptr
    001155  aa   777777 000000     722  	zero	all
    001156  aa   777777 000000     723  	zero	all
    001157  aa   777777 000000     724  	zero	all
    001160  aa   000000 000010     725  	zero	0,4*2	mvt
    001161  aa   777777 000000     726  	zero	all
    001162  aa   777777 000000     727  	zero	all
    001163  aa   777777 000000     728  	zero	all
    001164  aa   000000 000010     729  	zero	0,4*2	tct
    001165  aa   000000 000010     730  	zero	0,4*2	tctr
    001166  aa   777777 000000     731  	zero	all
    001167  aa   777777 000000     732  	zero	all
    001170  aa   777777 000000     733  	zero	all
    001171  aa   777777 000000     734  	zero	all
    001172  aa   777777 000000     735  	zero	all
    001173  aa   777777 000000     736  	zero	all	lptr
    001174  aa   777777 000000     737  	zero	all
    001175  aa   777777 000000     738  	zero	all
    001176  aa   777777 000000     739  	zero	all
    001177  aa   777777 000000     740  	zero	all
    001200  aa   777777 000000     741  	zero	all
    001201  aa   777777 000000     742  	zero	all
    001202  aa   100001 000006     743  	zero	i+dr,3*2	ad2d
    001203  aa   100001 000006     744  	zero	i+dr,3*2	sb2d
    001204  aa   777777 000000     745  	zero	all
    001205  aa   777777 000000     746  	zero	all
    001206  aa   100001 000006     747  	zero	i+dr,3*2	mp2d
    001207  aa   100001 000006     748  	zero	i+dr,3*2	dv2d
    001210  aa   777777 000000     749  	zero	all
    001211  aa   777777 000000     750  	zero	all
    001212  aa   777777 000000     751  	zero	all
    001213  aa   777777 000000     752  	zero	all
    001214  aa   777777 000000     753  	zero	all
    001215  aa   777777 000000     754  	zero	all
    001216  aa   777777 000000     755  	zero	all
    001217  aa   777777 000000     756  	zero	all
    001220  aa   777777 000000     757  	zero	all
    001221  aa   777777 000000     758  	zero	all
    001222  aa   100001 000010     759  	zero	i+dr,4*2	ad3d
    001223  aa   100001 000010     760  	zero	i+dr,4*2	sb3d
    001224  aa   777777 000000     761  	zero	all
    001225  aa   777777 000000     762  	zero	all
    001226  aa   100001 000010     763  	zero	i+dr,4*2	mp3d
    001227  aa   100001 000010     764  	zero	i+dr,4*2	dv3d
    001230  aa   777777 000000     765  	zero	all
    001231  aa   777777 000000     766  	zero	all
    001232  aa   777777 000000     767  	zero	all	lsdr
    001233  aa   777777 000000     768  	zero	all
    001234  aa   777777 000000     769  	zero	all
    001235  aa   777777 000000     770  	zero	all
    001236  aa   777777 000000     771  	zero	all
    001237  aa   777777 000000     772  	zero	all
    001240  aa   777777 000000     773  	zero	all
    001241  aa   777777 000000     774  	zero	all
    001242  aa   777777 000000     775  	zero	all
    001243  aa   777777 000000     776  	zero	all
    001244  aa   777777 000000     777  	zero	all
    001245  aa   777777 000000     778  	zero	all
    001246  aa   777777 000000     779  	zero	all
    001247  aa   777777 000000     780  	zero	all
    001250  aa   000000 000000     781  	zero	0	spbpap
    001251  aa   000000 000000     782  	zero	0	spriab
    001252  aa   000000 000000     783  	zero	0	spbpbp
    001253  aa   000000 000000     784  	zero	0	spribb
    001254  aa   777777 000000     785  	zero	all	ssdr
    001255  aa   777777 000000     786  	zero	all
    001256  aa   777777 000000     787  	zero	all
    001257  aa   777777 000000     788  	zero	all	lptp
    001260  aa   777777 000000     789  	zero	all
    001261  aa   777777 000000     790  	zero	all
    001262  aa   777777 000000     791  	zero	all
    001263  aa   777777 000000     792  	zero	all
    001264  aa   777777 000000     793  	zero	all
    001265  aa   777777 000000     794  	zero	all
    001266  aa   777777 000000     795  	zero	all
    001267  aa   777777 000000     796  	zero	all
    001270  aa   777777 000000     797  	zero	all
    001271  aa   777777 000000     798  	zero	all
    001272  aa   777777 000000     799  	zero	all
    001273  aa   777777 000000     800  	zero	all
    001274  aa   777777 000000     801  	zero	all
    001275  aa   777777 000000     802  	zero	all
    001276  aa   777777 000000     803  	zero	all
    001277  aa   777777 000000     804  	zero	all
    001300  aa   100001 000006     805  	zero	i+dr,3*2	mvn
    001301  aa   100001 000006     806  	zero	i+dr,3*2	btd
    001302  aa   777777 000000     807  	zero	all
    001303  aa   100000 000006     808  	zero	i,3*2	cmpn
    001304  aa   777777 000000     809  	zero	all
    001305  aa   100000 000006     810  	zero	i,3*2	dtb
    001306  aa   777777 000000     811  	zero	all
    001307  aa   777777 000000     812  	zero	all
    001310  aa   010000 000000     813  	zero	ab	easpab
    001311  aa   010000 000000     814  	zero	ab	eawpab
    001312  aa   004000 000000     815  	zero	bb	easpbb
    001313  aa   004000 000000     816  	zero	bb	eawpbb
    001314  aa   777777 000000     817  	zero	all
    001315  aa   777777 000000     818  	zero	all
    001316  aa   777777 000000     819  	zero	all
    001317  aa   777777 000000     820  	zero	all
    001320  aa   777777 000000     821  	zero	all
    001321  aa   777777 000000     822  	zero	all
    001322  aa   777777 000000     823  	zero	all
    001323  aa   777777 000000     824  	zero	all
    001324  aa   777777 000000     825  	zero	all
    001325  aa   777777 000000     826  	zero	all
    001326  aa   777777 000000     827  	zero	all
    001327  aa   777777 000000     828  	zero	all
    001330  aa   002000 000000     829  	zero	lb	easplb
    001331  aa   002000 000000     830  	zero	lb	eawplb
    001332  aa   001000 000000     831  	zero	sb	easpsb
    001333  aa   001000 000000     832  	zero	sb	eawpsb
    001334  aa   777777 000000     833  	zero	all
    001335  aa   777777 000000     834  	zero	all
    001336  aa   777777 000000     835  	zero	all
    001337  aa   777777 000000     836  	zero	all
    001340  aa   777777 000000     837  	zero	all
    001341  aa   777777 000000     838  	zero	all
    001342  aa   777777 000000     839  	zero	all
    001343  aa   777777 000000     840  	zero	all
    001344  aa   777777 000000     841  	zero	all
    001345  aa   777777 000000     842  	zero	all
    001346  aa   777777 000000     843  	zero	all
    001347  aa   777777 000000     844  	zero	all
    001350  aa   000000 000000     845  	zero	ap	epbpap
    001351  aa   010000 000000     846  	zero	ab	eppab
    001352  aa   040000 000000     847  	zero	bp	epbpbp
    001353  aa   004000 000000     848  	zero	bb	eppbb
    001354  aa   777777 000000     849  	zero	all
    001355  aa   777777 000000     850  	zero	all
    001356  aa   777777 000000     851  	zero	all
    001357  aa   777777 000000     852  	zero	all
    001360  aa   777777 000000     853  	zero	all
    001361  aa   777777 000000     854  	zero	all
    001362  aa   777777 000000     855  	zero	all
    001363  aa   777777 000000     856  	zero	all
    001364  aa   777777 000000     857  	zero	all
    001365  aa   777777 000000     858  	zero	all
    001366  aa   777777 000000     859  	zero	all
    001367  aa   777777 000000     860  	zero	all
    001370  aa   020000 000000     861  	zero	lp	epbplp
    001371  aa   002000 000000     862  	zero	lb	epplb
    001372  aa   000000 000000     863  	zero	sp	epbpsp
    001373  aa   001000 000000     864  	zero	sb	eppsb
    001374  aa   777777 000000     865  	zero	all
    001375  aa   777777 000000     866  	zero	all
    001376  aa   777777 000000     867  	zero	all
    001377  aa   777777 000000     868  	zero	all
    001400  aa   777777 000000     869  	zero	all
    001401  aa   777777 000000     870  	zero	all
    001402  aa   777777 000000     871  	zero	all
    001403  aa   777777 000000     872  	zero	all
    001404  aa   777777 000000     873  	zero	all
    001405  aa   777777 000000     874  	zero	all
    001406  aa   777777 000000     875  	zero	all
    001407  aa   777777 000000     876  	zero	all
    001410  aa   777777 000000     877  	zero	all
    001411  aa   777777 000000     878  	zero	all
    001412  aa   777777 000000     879  	zero	all
    001413  aa   777777 000000     880  	zero	all
    001414  aa   777777 000000     881  	zero	all
    001415  aa   777777 000000     882  	zero	all
    001416  aa   777777 000000     883  	zero	all
    001417  aa   777777 000000     884  	zero	all
    001420  aa   777777 000000     885  	zero	all
    001421  aa   777777 000000     886  	zero	all
    001422  aa   777777 000000     887  	zero	all
    001423  aa   777777 000000     888  	zero	all
    001424  aa   777777 000000     889  	zero	all
    001425  aa   777777 000000     890  	zero	all
    001426  aa   777777 000000     891  	zero	all
    001427  aa   777777 000000     892  	zero	all
    001430  aa   777777 000000     893  	zero	all
    001431  aa   777777 000000     894  	zero	all
    001432  aa   777777 000000     895  	zero	all
    001433  aa   777777 000000     896  	zero	all
    001434  aa   777777 000000     897  	zero	all
    001435  aa   777777 000000     898  	zero	all
    001436  aa   777777 000000     899  	zero	all
    001437  aa   777777 000000     900  	zero	all
    001440  aa   777777 000000     901  	zero	all
    001441  aa   777777 000000     902  	zero	all
    001442  aa   777777 000000     903  	zero	all
    001443  aa   000000 000000     904  	zero	0	sareg
    001444  aa   777777 000000     905  	zero	all
    001445  aa   777777 000000     906  	zero	all
    001446  aa   777777 000000     907  	zero	all
    001447  aa   000000 000000     908  	zero	0	spl
    001450  aa   777777 000000     909  	zero	all
    001451  aa   777777 000000     910  	zero	all
    001452  aa   777777 000000     911  	zero	all
    001453  aa   777777 000000     912  	zero	all
    001454  aa   777777 000000     913  	zero	all
    001455  aa   777777 000000     914  	zero	all
    001456  aa   777777 000000     915  	zero	all
    001457  aa   777777 000000     916  	zero	all
    001460  aa   777777 000000     917  	zero	all
    001461  aa   777777 000000     918  	zero	all
    001462  aa   777777 000000     919  	zero	all
    001463  aa   077000 000000     920  	zero	bases	lareg
    001464  aa   777777 000000     921  	zero	all
    001465  aa   777777 000000     922  	zero	all
    001466  aa   777777 000000     923  	zero	all
    001467  aa   000000 000000     924  	zero	0	lpl
    001470  aa   777777 000000     925  	zero	all
    001471  aa   777777 000000     926  	zero	all
    001472  aa   777777 000000     927  	zero	all
    001473  aa   777777 000000     928  	zero	all
    001474  aa   777777 000000     929  	zero	all
    001475  aa   777777 000000     930  	zero	all
    001476  aa   777777 000000     931  	zero	all
    001477  aa   777777 000000     932  	zero	all
    001500  aa   000000 040000     933  	zero	0,some_base	a9bd
    001501  aa   000000 040000     934  	zero	0,some_base	a6bd
    001502  aa   000000 040000     935  	zero      0,some_base	a4bd
    001503  aa   000000 040000     936  	zero	0,some_base	abd
    001504  aa   777777 000000     937  	zero	all
    001505  aa   777777 000000     938  	zero	all
    001506  aa   777777 000000     939  	zero	all
    001507  aa   000000 040000     940  	zero	0,some_base	awd
    001510  aa   777777 000000     941  	zero	all
    001511  aa   777777 000000     942  	zero	all
    001512  aa   777777 000000     943  	zero	all
    001513  aa   777777 000000     944  	zero	all
    001514  aa   777777 000000     945  	zero	all
    001515  aa   777777 000000     946  	zero	all
    001516  aa   777777 000000     947  	zero	all
    001517  aa   777777 000000     948  	zero	all
    001520  aa   000000 040000     949  	zero	0,some_base	s9bd
    001521  aa   000000 040000     950  	zero	0,some_base	s6bd
    001522  aa   000000 040000     951  	zero	0,some_base	s4bd
    001523  aa   000000 040000     952  	zero	0,some_base	sbd
    001524  aa   777777 000000     953  	zero	all
    001525  aa   777777 000000     954  	zero	all
    001526  aa   777777 000000     955  	zero	all
    001527  aa   000000 040000     956  	zero	0,some_base	swd
    001530  aa   777777 000000     957  	zero	all
    001531  aa   777777 000000     958  	zero	all
    001532  aa   777777 000000     959  	zero	all	camp
    001533  aa   777777 000000     960  	zero	all
    001534  aa   777777 000000     961  	zero	all
    001535  aa   777777 000000     962  	zero	all
    001536  aa   777777 000000     963  	zero	all
    001537  aa   777777 000000     964  	zero	all
    001540  aa   000000 000000     965  	zero	0	araap
    001541  aa   000000 000000     966  	zero	0	araab
    001542  aa   000000 000000     967  	zero	0	arabp
    001543  aa   000000 000000     968  	zero	0	arabb
    001544  aa   000000 000000     969  	zero	0	aralp
    001545  aa   000000 000000     970  	zero	0	aralb
    001546  aa   000000 000000     971  	zero	0	arasp
    001547  aa   000000 000000     972  	zero	0	arasb
    001550  aa   777777 000000     973  	zero	all
    001551  aa   777777 000000     974  	zero	all
    001552  aa   777777 000000     975  	zero	all
    001553  aa   777777 000000     976  	zero	all
    001554  aa   777777 000000     977  	zero	all
    001555  aa   777777 000000     978  	zero	all
    001556  aa   777777 000000     979  	zero	all
    001557  aa   777777 000000     980  	zero	all	sptp
    001560  aa   000000 000000     981  	zero	ap	aarap
    001561  aa   010000 000000     982  	zero	ab	aarab
    001562  aa   040000 000000     983  	zero	bp	aarbp
    001563  aa   004000 000000     984  	zero	bb	aarbb
    001564  aa   020000 000000     985  	zero	lp	aarlp
    001565  aa   002000 000000     986  	zero	lb	aarlb
    001566  aa   000000 000000     987  	zero	sp	aarsp
    001567  aa   001000 000000     988  	zero	sb	aarsb
    001570  aa   777777 000000     989  	zero	all
    001571  aa   777777 000000     990  	zero	all
    001572  aa   777777 000000     991  	zero	all
    001573  aa   777777 000000     992  	zero	all
    001574  aa   777777 000000     993  	zero	all
    001575  aa   777777 000000     994  	zero	all
    001576  aa   777777 000000     995  	zero	all
    001577  aa   777777 000000     996  	zero	all
    001600  aa   100000 000000     997  	zero	i	trtn
    001601  aa   000000 000000     998  	zero	0	trtf
    001602  aa   777777 000000     999  	zero	all
    001603  aa   777777 000000    1000  	zero	all
    001604  aa   000000 000000    1001  	zero	0	tmoz
    001605  aa   000000 000000    1002  	zero	0	tpnz
    001606  aa   000000 000000    1003  	zero	0	ttn
    001607  aa   777777 000000    1004  	zero	all
    001610  aa   777777 000000    1005  	zero	all
    001611  aa   777777 000000    1006  	zero	all
    001612  aa   777777 000000    1007  	zero	all
    001613  aa   777777 000000    1008  	zero	all
    001614  aa   777777 000000    1009  	zero	all
    001615  aa   777777 000000    1010  	zero	all
    001616  aa   777777 000000    1011  	zero	all
    001617  aa   777777 000000    1012  	zero	all
    001620  aa   777777 000000    1013  	zero	all
    001621  aa   777777 000000    1014  	zero	all
    001622  aa   777777 000000    1015  	zero	all
    001623  aa   777777 000000    1016  	zero	all
    001624  aa   777777 000000    1017  	zero	all
    001625  aa   777777 000000    1018  	zero	all
    001626  aa   777777 000000    1019  	zero	all
    001627  aa   777777 000000    1020  	zero	all
    001630  aa   777777 000000    1021  	zero	all
    001631  aa   777777 000000    1022  	zero	all
    001632  aa   777777 000000    1023  	zero	all
    001633  aa   777777 000000    1024  	zero	all
    001634  aa   777777 000000    1025  	zero	all
    001635  aa   777777 000000    1026  	zero	all
    001636  aa   777777 000000    1027  	zero	all
    001637  aa   777777 000000    1028  	zero	all
    001640  aa   000000 000000    1029  	zero	0	arnap
    001641  aa   000000 000000    1030  	zero	0	arnab
    001642  aa   000000 000000    1031  	zero	0	arnbp
    001643  aa   000000 000000    1032  	zero	0	arnbb
    001644  aa   000000 000000    1033  	zero	0	arnlp
    001645  aa   000000 000000    1034  	zero	0	arnlb
    001646  aa   000000 000000    1035  	zero	0	arnsp
    001647  aa   000000 000000    1036  	zero	0	arnsb
    001650  aa   000000 000000    1037  	zero	0	spbplp
    001651  aa   000000 000000    1038  	zero	0	sprilb
    001652  aa   000000 000000    1039  	zero	0	spbpsp
    001653  aa   000000 000000    1040  	zero	0	sprisb
    001654  aa   777777 000000    1041  	zero	all
    001655  aa   777777 000000    1042  	zero	all
    001656  aa   777777 000000    1043  	zero	all
    001657  aa   777777 000000    1044  	zero	all
    001660  aa   000000 000000    1045  	zero	ap	narap
    001661  aa   010000 000000    1046  	zero	ab	narab
    001662  aa   040000 000000    1047  	zero	bp	narbp
    001663  aa   004000 000000    1048  	zero	bb	narbb
    001664  aa   020000 000000    1049  	zero	lp	narlp
    001665  aa   002000 000000    1050  	zero	lb	narlb
    001666  aa   000000 000000    1051  	zero	sp	narsp
    001667  aa   001000 000000    1052  	zero	sb	narsb
    001670  aa   777777 000000    1053  	zero	all
    001671  aa   777777 000000    1054  	zero	all
    001672  aa   777777 000000    1055  	zero	all
    001673  aa   777777 000000    1056  	zero	all
    001674  aa   777777 000000    1057  	zero	all
    001675  aa   777777 000000    1058  	zero	all
    001676  aa   777777 000000    1059  	zero	all
    001677  aa   777777 000000    1060  	zero	all
    001700  aa   777777 000000    1061  	zero	all
    001701  aa   777777 000000    1062  	zero	all
    001702  aa   777777 000000    1063  	zero	all
    001703  aa   777777 000000    1064  	zero	all
    001704  aa   777777 000000    1065  	zero	all
    001705  aa   777777 000000    1066  	zero	all
    001706  aa   777777 000000    1067  	zero	all
    001707  aa   777777 000000    1068  	zero	all
    001710  aa   777777 000000    1069  	zero	all
    001711  aa   777777 000000    1070  	zero	all
    001712  aa   777777 000000    1071  	zero	all
    001713  aa   777777 000000    1072  	zero	all
    001714  aa   777777 000000    1073  	zero	all
    001715  aa   777777 000000    1074  	zero	all
    001716  aa   777777 000000    1075  	zero	all
    001717  aa   777777 000000    1076  	zero	all
    001720  aa   777777 000000    1077  	zero	all
    001721  aa   777777 000000    1078  	zero	all
    001722  aa   777777 000000    1079  	zero	all
    001723  aa   777777 000000    1080  	zero	all
    001724  aa   777777 000000    1081  	zero	all
    001725  aa   777777 000000    1082  	zero	all
    001726  aa   777777 000000    1083  	zero	all
    001727  aa   777777 000000    1084  	zero	all
    001730  aa   777777 000000    1085  	zero	all
    001731  aa   777777 000000    1086  	zero	all
    001732  aa   777777 000000    1087  	zero	all
    001733  aa   777777 000000    1088  	zero	all
    001734  aa   777777 000000    1089  	zero	all
    001735  aa   777777 000000    1090  	zero	all
    001736  aa   777777 000000    1091  	zero	all
    001737  aa   777777 000000    1092  	zero	all
    001740  aa   000000 000000    1093  	zero	0	sarap
    001741  aa   000000 000000    1094  	zero	0	sarab
    001742  aa   000000 000000    1095  	zero	0	sarbp
    001743  aa   000000 000000    1096  	zero	0	sarbb
    001744  aa   000000 000000    1097  	zero	0	sarlp
    001745  aa   000000 000000    1098  	zero	0	sarlb
    001746  aa   000000 000000    1099  	zero	0	sarsp
    001747  aa   000000 000000    1100  	zero	0	sarsb
    001750  aa   777777 000000    1101  	zero	all
    001751  aa   777777 000000    1102  	zero	all
    001752  aa   777777 000000    1103  	zero	all
    001753  aa   777777 000000    1104  	zero	all
    001754  aa   000000 000000    1105  	zero	0	sra
    001755  aa   777777 000000    1106  	zero	all
    001756  aa   777777 000000    1107  	zero	all
    001757  aa   777777 000000    1108  	zero	all
    001760  aa   000000 000000    1109  	zero	ap	larap
    001761  aa   010000 000000    1110  	zero	ab	larab
    001762  aa   040000 000000    1111  	zero	bp	larbp
    001763  aa   004000 000000    1112  	zero	bb	larbb
    001764  aa   020000 000000    1113  	zero	lp	larlp
    001765  aa   002000 000000    1114  	zero	lb	larlb
    001766  aa   000000 000000    1115  	zero	sp	larsp
    001767  aa   001000 000000    1116  	zero	sb	larsb
    001770  aa   777777 000000    1117  	zero	all
    001771  aa   777777 000000    1118  	zero	all
    001772  aa   777777 000000    1119  	zero	all
    001773  aa   777777 000000    1120  	zero	all
    001774  aa   777777 000000    1121  	zero	all	lra
    001775  aa   777777 000000    1122  	zero	all
    001776  aa   777777 000000    1123  	zero	all
    001777  aa   777777 000000    1124  	zero	all
                                  1125  " 
                                  1126  " Register information for nonstandard pl1_operators_.
                                  1127  "
                                  1128  " The entries must be in ascending order and the intervals must be nonoverlapping.
                                  1129  "
                        002000    1130  	segdef	operators
    002000                        1131  operators:
    002000  aa   000000 000011    1132  	vfd	36/((end_operators-start_operators)/2)	number of entries
                        002001    1133  	equ	start_operators,*
    002001  aa   000465 000466    1134  	zero	309,310		fx1_to_fl2, fx2_to_fl2
    002002  aa   700000 100000    1135  	zero	aq+i,fl
    002003  aa   000474 000532    1136  	zero	316,346		r_l_a to r_le_s
    002004  aa   500000 000000    1137  	zero	a+i
    002005  aa   000540 000540    1138  	zero	352,352		set_stack
    002006  aa   740000 000000    1139  	zero	a+q+i+bp+sp
    002007  aa   000626 000630    1140  	zero	406,408		put_field, put_field_chk, put_control
    002010  aa   740004 000000    1141  	zero	a+q+i+ap+x6+bp
    002011  aa   000662 000662    1142  	zero	434,434		longbs_to_bs18
    002012  aa   740000 000000    1143  	zero	aq+i+bp
    002013  aa   000663 000663    1144  	zero	435,435		stac_mac
    002014  aa   500000 000000    1145  	zero	a+i
    002015  aa   001056 001056    1146  	zero	558,558		fetch_bits
    002016  aa   700000 000000    1147  	zero	aq+i
    002017  aa   001423 001423    1148  	zero	787,787		long_profile
    002020  aa   000000 000000    1149  	zero	0
    002021  aa   001434 001434    1150  	zero	796,796		stacq_mac
    002022  aa   500000 000000    1151  	zero	a+i
                        002023    1152  	equ	end_operators,*
                                  1153  "
                                  1154  	end

NO LITERALS

NAME DEFINITIONS FOR ENTRY POINTS AND SEGDEFS

    002024  5a   000003 000000
    002025  5a   000040 600000
    002026  aa   000000 000000
    002027  55   000013 000002
    002030  5a   000002 400003
    002031  55   000006 000013
    002032  aa  020 151 156 163
    002033  aa  164 162 165 143
    002034  aa  164 151 157 156
    002035  aa  137 151 156 146
    002036  aa  157 000 000 000
    002037  55   000021 000003
    002040  0a   002000 400000
    002041  55   000016 000003
    002042  aa  011 157 160 145         operators
    002043  aa  162 141 164 157
    002044  aa  162 163 000 000
    002045  55   000031 000013
    002046  0a   000000 400000
    002047  55   000024 000003
    002050  aa  020 151 156 163         instruction_info
    002051  aa  164 162 165 143
    002052  aa  164 151 157 156
    002053  aa  137 151 156 146
    002054  aa  157 000 000 000
    002055  55   000002 000021
    002056  6a   000000 400002
    002057  55   000034 000003
    002060  aa  014 163 171 155         symbol_table
    002061  aa  142 157 154 137
    002062  aa  164 141 142 154
    002063  aa  145 000 000 000

DEFINITIONS HASH TABLE

    002064  aa   000000 000015
    002065  aa   000000 000000
    002066  aa   000000 000000
    002067  aa   000000 000000
    002070  aa   000000 000000
    002071  aa   000000 000000
    002072  aa   000000 000000
    002073  5a   000031 000000
    002074  aa   000000 000000
    002075  aa   000000 000000
    002076  aa   000000 000000
    002077  aa   000000 000000
    002100  5a   000013 000000
    002101  5a   000021 000000

NO EXTERNAL NAMES

NO TRAP POINTER WORDS

TYPE PAIR BLOCKS

    002102  aa   000001 000000
    002103  aa   000000 000000

INTERNAL EXPRESSION WORDS

LINKAGE INFORMATION

    000000  aa   000000 000000
    000001  0a   002024 000000
    000002  aa   000000 000000
    000003  aa   000000 000000
    000004  aa   000000 000000
    000005  aa   000000 000000
    000006  22   000010 000010
    000007  a2   000000 000000
SYMBOL INFORMATION

SYMBOL TABLE HEADER

    000000  aa   000000 000001
    000001  aa   163171 155142
    000002  aa   164162 145145
    000003  aa   000000 000004
    000004  aa   000000 112143
    000005  aa   305203 523135
    000006  aa   000000 112162
    000007  aa   427174 467725
    000010  aa   141154 155040
    000011  aa   040040 040040
    000012  aa   000024 000040
    000013  aa   000034 000040
    000014  aa   000044 000100
    000015  aa   000002 000002
    000016  aa   000064 000000
    000017  aa   000000 000210
    000020  aa   000000 000103
    000021  aa   000000 000177
    000022  aa   000202 000103
    000023  aa   000064 000000
    000024  aa   101114 115040
    000025  aa   126145 162163
    000026  aa   151157 156040
    000027  aa   040066 056066
    000030  aa   040040 116157
    000031  aa   166145 155142
    000032  aa   145162 040061
    000033  aa   071070 062040
    000034  aa   107112 157150
    000035  aa   156163 157156
    000036  aa   056123 171163
    000037  aa   115141 151156
    000040  aa   164056 155040
    000041  aa   040040 040040
    000042  aa   040040 040040
    000043  aa   040040 040040
    000044  aa   154151 163164
    000045  aa   040040 040040
    000046  aa   040040 040040
    000047  aa   040040 040040
    000050  aa   040040 040040
    000051  aa   040040 040040
    000052  aa   040040 040040
    000053  aa   040040 040040
    000054  aa   040040 040040
    000055  aa   040040 040040
    000056  aa   040040 040040
    000057  aa   040040 040040
    000060  aa   040040 040040
    000061  aa   040040 040040
    000062  aa   040040 040040
    000063  aa   040040 040040
    000064  aa   000000 000001
    000065  aa   000000 000001
    000066  aa   000072 000044
    000067  aa   121622 265443
    000070  aa   000000 112162
    000071  aa   263722 200000
    000072  aa   076163 160145          >spec>on>pl128d>instruction_info.alm
    000073  aa   143076 157156
    000074  aa   076160 154061
    000075  aa   062070 144076
    000076  aa   151156 163164
    000077  aa   162165 143164
    000100  aa   151157 156137
    000101  aa   151156 146157
    000102  aa   056141 154155
               MULTICS ASSEMBLY CROSS REFERENCE LISTING

   Value        Symbol                   Source file   Line number

      400000    a                        instruction_info:    23,   41,  128,  129,  157,  161,  193,  221,  225,  238,  257,
                                                             289,  321,  353,  445,  513,  545,  573,  577,  605,  609, 1137,
                                                            1139, 1141, 1145, 1151.
       10000    ab                       instruction_info:    45,   51,  141,  285,  333,  597,  813,  814,  846,  982, 1046, 1110.
      777777    all                      instruction_info:    65,  100,  101,  102,  103,  104,  105,  106,  107,  108,  110,
                                                             113,  114,  115,  124,  125,  147,  156,  159,  160,  172,  174,
                                                             175,  176,  188,  189,  190,  191,  192,  208,  211,  220,  224,
                                                             236,  252,  253,  254,  255,  275,  288,  304,  320,  352,  356,
                                                             359,  360,  362,  363,  364,  366,  367,  368,  370,  371,  372,
                                                             374,  376,  378,  382,  384,  386,  397,  398,  399,  400,  404,
                                                             406,  408,  409,  410,  411,  416,  418,  420,  421,  422,  423,
                                                             424,  425,  428,  429,  430,  432,  434,  436,  437,  438,  439,
                                                             440,  442,  444,  446,  448,  450,  460,  463,  465,  466,  467,
                                                             468,  469,  470,  471,  472,  474,  476,  477,  478,  480,  482,
                                                             490,  492,  493,  494,  495,  498,  508,  509,  510,  511,  531,
                                                             544,  557,  558,  559,  560,  561,  562,  563,  572,  576,  604,
                                                             608,  613,  614,  615,  616,  617,  618,  619,  620,  621,  622,
                                                             623,  624,  625,  626,  627,  628,  630,  631,  632,  634,  635,
                                                             636,  637,  638,  639,  640,  641,  642,  643,  644,  645,  646,
                                                             647,  648,  649,  650,  651,  652,  653,  654,  655,  656,  657,
                                                             658,  659,  660,  663,  664,  668,  669,  670,  671,  672,  673,
                                                             674,  675,  676,  679,  680,  681,  682,  684,  685,  686,  687,
                                                             688,  689,  690,  691,  692,  695,  696,  699,  700,  701,  702,
                                                             703,  704,  705,  706,  707,  708,  709,  710,  711,  712,  713,
                                                             714,  715,  716,  717,  718,  719,  720,  721,  722,  723,  724,
                                                             726,  727,  728,  731,  732,  733,  734,  735,  736,  737,  738,
                                                             739,  740,  741,  742,  745,  746,  749,  750,  751,  752,  753,
                                                             754,  755,  756,  757,  758,  761,  762,  765,  766,  767,  768,
                                                             769,  770,  771,  772,  773,  774,  775,  776,  777,  778,  779,
                                                             780,  785,  786,  787,  788,  789,  790,  791,  792,  793,  794,
                                                             795,  796,  797,  798,  799,  800,  801,  802,  803,  804,  807,
                                                             809,  811,  812,  817,  818,  819,  820,  821,  822,  823,  824,
                                                             825,  826,  827,  828,  833,  834,  835,  836,  837,  838,  839,
                                                             840,  841,  842,  843,  844,  849,  850,  851,  852,  853,  854,
                                                             855,  856,  857,  858,  859,  860,  865,  866,  867,  868,  869,
                                                             870,  871,  872,  873,  874,  875,  876,  877,  878,  879,  880,
                                                             881,  882,  883,  884,  885,  886,  887,  888,  889,  890,  891,
                                                             892,  893,  894,  895,  896,  897,  898,  899,  900,  901,  902,
                                                             903,  905,  906,  907,  909,  910,  911,  912,  913,  914,  915,
                                                             916,  917,  918,  919,  921,  922,  923,  925,  926,  927,  928,
                                                             929,  930,  931,  932,  937,  938,  939,  941,  942,  943,  944,
                                                             945,  946,  947,  948,  953,  954,  955,  957,  958,  959,  960,
                                                             961,  962,  963,  964,  973,  974,  975,  976,  977,  978,  979,
                                                             980,  989,  990,  991,  992,  993,  994,  995,  996,  999, 1000,
                                                            1004, 1005, 1006, 1007, 1008, 1009, 1010, 1011, 1012, 1013, 1014,
                                                            1015, 1016, 1017, 1018, 1019, 1020, 1021, 1022, 1023, 1024, 1025,
                                                            1026, 1027, 1028, 1041, 1042, 1043, 1044, 1053, 1054, 1055, 1056,
                                                            1057, 1058, 1059, 1060, 1061, 1062, 1063, 1064, 1065, 1066, 1067,
                                                            1068, 1069, 1070, 1071, 1072, 1073, 1074, 1075, 1076, 1077, 1078,
                                                            1079, 1080, 1081, 1082, 1083, 1084, 1085, 1086, 1087, 1088, 1089,
                                                            1090, 1091, 1092, 1101, 1102, 1103, 1104, 1106, 1107, 1108, 1117,
                                                            1118, 1119, 1120, 1121, 1122, 1123, 1124.
           0    ap                       instruction_info:    49,   51,  140,  284,  300,  301,  332,  596,  845,  981, 1045,
                                                            1109, 1141.
      600000    aq                       instruction_info:    41,   65,  127,  131,  163,  195,  227,  239,  259,  291,  323,
                                                             355,  357,  358,  365,  369,  373,  375,  381,  383,  385,  387,
                                                             405,  407,  413,  415,  417,  419,  426,  427,  431,  441,  443,
                                                             447,  449,  451,  473,  475,  479,  481,  483,  540,  547,  575,
                                                             579,  607,  611, 1135, 1143, 1147.
       77000    bases                    instruction_info:    51,   65,  223,  540,  920.
        4000    bb                       instruction_info:    46,   51,  143,  287,  335,  599,  815,  816,  848,  984, 1048, 1112.
       40000    bp                       instruction_info:    43,   51,  142,  286,  302,  303,  334,  598,  847,  983, 1047,
                                                            1111, 1139, 1141, 1143.
      400000    d                        instruction_info:    70,  111,  112,  116,  117,  118,  119,  120,  121,  122,  123,
                                                             127,  129,  130,  140,  141,  142,  143,  148,  149,  150,  151,
                                                             152,  153,  154,  155,  157,  158,  161,  162,  164,  165,  166,
                                                             167,  168,  169,  170,  171,  173,  177,  178,  180,  181,  182,
                                                             183,  184,  185,  186,  187,  193,  194,  204,  205,  206,  207,
                                                             212,  213,  214,  215,  216,  217,  218,  219,  221,  222,  225,
                                                             226,  228,  229,  230,  231,  232,  233,  234,  235,  240,  241,
                                                             242,  244,  245,  246,  247,  248,  249,  250,  251,  256,  257,
                                                             258,  276,  277,  278,  279,  280,  281,  282,  283,  289,  290,
                                                             292,  293,  294,  295,  296,  297,  298,  299,  305,  306,  308,
                                                             309,  310,  311,  312,  313,  314,  315,  321,  322,  340,  341,
                                                             342,  343,  344,  345,  346,  347,  353,  354,  357,  358,  361,
                                                             365,  369,  373,  377,  380,  381,  385,  405,  417,  426,  427,
                                                             433,  441,  449,  473,  481,  532,  533,  534,  535,  536,  537,
                                                             538,  539,  545,  546,  564,  565,  566,  567,  568,  569,  570,
                                                             571,  693,  694,  697,  698.
           1    dr                       instruction_info:    63,   65,  743,  744,  747,  748,  759,  760,  763,  764,  805,  806.
        2023    end_operators            instruction_info:  1132, 1152.
      100000    fl                       instruction_info:    82,  373,  375,  381,  383,  385,  387,  405,  407,  413,  415,
                                                             417,  419,  431,  441,  443,  449,  451,  473,  475,  479,  481,
                                                             483, 1135.
      200000    fx                       instruction_info:    76,  127,  130,  131,  162,  163,  194,  195,  226,  227,  258,
                                                             259,  322,  323,  357,  358,  426,  447,  574,  575.
      100000    i                        instruction_info:    40,   65,  116,  117,  118,  119,  120,  121,  122,  123,  126,
                                                             127,  128,  129,  130,  131,  132,  133,  134,  135,  136,  137,
                                                             138,  139,  144,  145,  146,  148,  149,  150,  151,  152,  153,
                                                             154,  155,  157,  158,  161,  162,  163,  164,  165,  166,  167,
                                                             168,  169,  170,  171,  173,  177,  178,  179,  180,  181,  182,
                                                             183,  184,  185,  186,  187,  193,  194,  195,  196,  197,  198,
                                                             199,  200,  201,  202,  203,  209,  210,  212,  213,  214,  215,
                                                             216,  217,  218,  219,  221,  222,  225,  226,  227,  228,  229,
                                                             230,  231,  232,  233,  234,  235,  237,  238,  239,  240,  241,
                                                             242,  243,  244,  245,  246,  247,  248,  249,  250,  251,  256,
                                                             257,  258,  259,  260,  261,  262,  263,  264,  265,  266,  267,
                                                             273,  274,  276,  277,  278,  279,  280,  281,  282,  283,  289,
                                                             290,  291,  292,  293,  294,  295,  296,  297,  298,  299,  305,
                                                             306,  307,  308,  309,  310,  311,  312,  313,  314,  315,  321,
                                                             322,  323,  324,  325,  326,  327,  328,  329,  330,  331,  336,
                                                             337,  338,  340,  341,  342,  343,  344,  345,  346,  347,  353,
                                                             354,  355,  357,  358,  361,  373,  375,  377,  379,  380,  381,
                                                             383,  385,  387,  405,  407,  412,  413,  414,  415,  417,  419,
                                                             426,  427,  431,  433,  435,  441,  443,  445,  447,  449,  451,
                                                             473,  475,  479,  481,  483,  500,  501,  502,  503,  504,  505,
                                                             506,  507,  512,  513,  514,  515,  516,  517,  518,  519,  520,
                                                             521,  522,  523,  528,  529,  530,  532,  533,  534,  535,  536,
                                                             537,  538,  539,  540,  545,  546,  547,  564,  565,  566,  567,
                                                             568,  569,  570,  571,  573,  574,  575,  577,  578,  579,  605,
                                                             606,  607,  609,  610,  611,  661,  662,  665,  666,  667,  683,
                                                             743,  744,  747,  748,  759,  760,  763,  764,  805,  806,  808,
                                                             810,  997, 1135, 1137, 1139, 1141, 1143, 1145, 1147, 1151.
         776    indices                  instruction_info:    61,   65.
           0    instruction_info         instruction_info:    19,   99.
        2000    lb                       instruction_info:    47,   51,  205,  349,  541,  601,  829,  830,  862,  986, 1050, 1114.
       20000    lp                       instruction_info:    44,   51,  204,  316,  317,  348,  600,  861,  985, 1049, 1113.
        2000    operators                instruction_info:  1130, 1131.
      200000    q                        instruction_info:    24,   41,  126,  130,  158,  162,  194,  222,  226,  258,  290,
                                                             322,  354,  514,  546,  574,  578,  606,  610, 1139, 1141.
        1000    sb                       instruction_info:    48,   51,  207,  351,  543,  603,  831,  832,  864,  988, 1052, 1116.
       40000    some_base                instruction_info:    97,  933,  934,  935,  936,  940,  949,  950,  951,  952,  956.
           0    sp                       instruction_info:    50,   51,  206,  318,  319,  350,  542,  602,  863,  987, 1051,
                                                            1115, 1139.
        2001    start_operators          instruction_info:  1132, 1133.
       40000    w                        instruction_info:    90,  365,  369.
         400    x0                       instruction_info:    53,   61,  116,  148,  180,  212,  244,  276,  308,  340,  500,
                                                             532,  548,  564.
         200    x1                       instruction_info:    54,   61,  117,  149,  181,  213,  245,  277,  309,  341,  501,
                                                             533,  549,  565.
         100    x2                       instruction_info:    55,   61,  118,  150,  182,  214,  246,  278,  310,  342,  502,
                                                             534,  550,  566.
          40    x3                       instruction_info:    56,   61,  119,  151,  183,  215,  247,  279,  311,  343,  503,
                                                             535,  551,  567.
          20    x4                       instruction_info:    57,   61,  120,  152,  184,  216,  248,  280,  312,  344,  504,
                                                             536,  552,  568.
          10    x5                       instruction_info:    58,   61,  121,  153,  185,  217,  249,  281,  313,  345,  505,
                                                             537,  553,  569.
           4    x6                       instruction_info:    59,   61,  122,  154,  186,  218,  250,  282,  314,  346,  506,
                                                             538,  554,  570, 1141.
           2    x7                       instruction_info:    60,   61,  123,  155,  187,  219,  251,  283,  315,  347,  507,
                                                             539,  555,  571.


NO FATAL ERRORS


                                          -----------------------------------------------------------


Historical Background

This edition of the Multics software materials and documentation is provided and donated
to Massachusetts Institute of Technology by Group BULL including BULL HN Information Systems Inc.
as a contribution to computer science knowledge.
This donation is made also to give evidence of the common contributions of Massachusetts Institute of Technology,
Bell Laboratories, General Electric, Honeywell Information Systems Inc., Honeywell BULL Inc., Groupe BULL
and BULL HN Information Systems Inc. to the development of this operating system.
Multics development was initiated by Massachusetts Institute of Technology Project MAC (1963-1970),
renamed the MIT Laboratory for Computer Science and Artificial Intelligence in the mid 1970s, under the leadership
of Professor Fernando Jose Corbato. Users consider that Multics provided the best software architecture
for managing computer hardware properly and for executing programs. Many subsequent operating systems
incorporated Multics principles.
Multics was distributed in 1975 to 2000 by Group Bull in Europe , and in the U.S. by Bull HN Information Systems Inc.,
as successor in interest by change in name only to Honeywell Bull Inc. and Honeywell Information Systems Inc. .

                                          -----------------------------------------------------------

Permission to use, copy, modify, and distribute these programs and their documentation for any purpose and without
fee is hereby granted,provided that the below copyright notice and historical background appear in all copies
and that both the copyright notice and historical background and this permission notice appear in supporting
documentation, and that the names of MIT, HIS, BULL or BULL HN not be used in advertising or publicity pertaining
to distribution of the programs without specific prior written permission.
    Copyright 1972 by Massachusetts Institute of Technology and Honeywell Information Systems Inc.
    Copyright 2006 by BULL HN Information Systems Inc.
    Copyright 2006 by Bull SAS
    All Rights Reserved
