ASSEMBLY LISTING OF SEGMENT >special_ldd>install>MR12.0-1206>kermit_et_.alm
ASSEMBLED ON:	11/05/86  1033.1 mst Wed
OPTIONS USED:	list
ASSEMBLED BY:	ALM Version  6.7  October 1986
ASSEMBLER CREATED:	10/08/86  1557.5 mst Wed

                                     1  """""""""""""""""""""""""""""""""""""""""""""""""""""""""""""""""""""""
                                     2  "							"
                                     3  "	kermit_et_					"
                                     4  "							"
                                     5  "	This is the error table defining the error codes and	"
                                     6  "	messages for the kermit subsystem.			"
                                     7  "							"
                                     8  "	Written: 	84-10-15	by Dean Elhard, Maureen Mallmes	"
                                     9  "							"
                                    10  """""""""""""""""""""""""""""""""""""""""""""""""""""""""""""""""""""""
                                    11
                                    12  	include	et_macros
                                   1-1  " Begin include file ...... et_macros.incl.alm
                                   1-2  "	Written 6/15/77 by Noel I. Morris
                                   1-3  "	Modified '82 so error code entries are in first page of segment.
                                   1-4
                                   1-5  " This include file contains macros for generating error tables
                                   1-6  " for both system and non-system use.
                                   1-7
                                   1-8  " ET MACRO
                                   1-9  "
                                  1-10  " This macro is used to initialize the error table for either
                                  1-11  " system or non-system use.  It is invoked at the beginning of
                                  1-12  " the error table as follows:
                                  1-13  "
                                  1-14  "	et	table_name{,system}
                                  1-15  "
                                  1-16
                                  1-17  macro	et
                              1   1-18  	maclist	on
                              2   1-19
                              3   1-20  	name	&1
                              4   1-21
                              5   1-22  &^=&2,system&[
                              6   1-23
                              7   1-24  	include	stack_header
                              8   1-25
                              9   1-26  
                             10   1-27
                             11   1-28  	use	codes
                             12   1-29  .code_start:
                             13   1-30
                             14   1-31  	use	past_codes
                             15   1-32  .code_end:
                             16   1-33
                             17   1-34  	join	/link/codes,past_codes
                             18   1-35
                             19   1-36  	use	messages
                             20   1-37
                             21   1-38  .trapproc:
                             22   1-39  	epaq	0,ic
                             23   1-40  	eax0	0,au
                             24   1-41  	epbpsb	sp|0
                             25   1-42  	lprplp	sb|stack_header.lot_ptr,*au
                             26   1-43  	eax1	.code_start
                             27   1-44  .loop:	stx0	lp|0,x1
                             28   1-45  	eax1	1,x1
                             29   1-46  	cmpx1	.code_end,du
                             30   1-47  	tmi	.loop-*,ic
                             31   1-48  	short_return
                             32   1-49
                             33   1-50  	firstref	<*text>|.trapproc
                             34   1-51
                             35   1-52  &;	use	codes
                             36   1-53  	use	messages
                             37   1-54
                             38   1-55  	join	/text/codes,messages
                             39   1-56
                             40   1-57  &]
                             41   1-58
                             42   1-59  	bool	.segno,77777
                             43   1-60
                             44   1-61  	maclist	off
                             45   1-62
                             46   1-63  	&end
                                  1-64
                                  1-65  
                                  1-66
                                  1-67  " EC MACRO
                                  1-68  "
                                  1-69  " This macro is used to define an error code as shown:
                                  1-70  "
                                  1-71  "	ec	name,{short_mess},(long_mess)
                                  1-72  "
                                  1-73  " If more than a single name is to be defined for a given message,
                                  1-74  " a list of names separated by commas and enclosed in parentheses
                                  1-75  " must be given.   short_mess must be 8 or less characters.  If omitted,
                                  1-76  " the short_mess will be set to the name.  long_mess is enclosed
                                  1-77  " in parentheses in order to cause ALM to ignore embedded blanks.  Please
                                  1-78  " note that double quote characters in either short_mess or long_mess
                                  1-79  " must be doubled in order to make the ALM assembly work properly.
                                  1-80  " Note that a macro invocation line terminated by a comma will cause that
                                  1-81  " statement to be continued on the next line.
                                  1-82
                                  1-83  macro	ec
                              1   1-84  	use	codes
                              2   1-85
                              3   1-86  	maclist	on,save
                              4   1-87  &(1	segdef  &i
                              5   1-88  &)	maclist	restore
                              6   1-89  &(1&i:
                              7   1-90  &)	maclist	object,save
                              8   1-91  	zero	.segno,&U
                              9   1-92  	maclist	restore
                             10   1-93  	use	messages
                             11   1-94  &^=&l2,0&[	shortname    &2
                             12   1-95  &;	shortname    &1
                             13   1-96  &]
                             14   1-97  &U:
                             15   1-98  	maclist	on,save
                             16   1-99  	acc  "&3"
                             17  1-100
                             18  1-101  	maclist	restore
                             19  1-102  	&end
                                 1-103
                                 1-104  macro	shortname
                              1  1-105  	maclist	on,save
                              2  1-106  	aci  "&1",8
                              3  1-107  	maclist	restore
                              4  1-108  	&end
                                 1-109
                                 1-110  
                                 1-111
                                 1-112  " A typical error table source program might have the following format:
                                 1-113  "
                                 1-114  "	include	et_macros
                                 1-115  "
                                 1-116  "	et	name_of_error_table
                                 1-117  "
                                 1-118  "	ec	error_code_1,ecode1,(This is error code 1.)
                                 1-119  "
                                 1-120  "	ec	error_code_2,ecode2,(This is error code 2.)
                                 1-121  "
                                 1-122  "	:	     :	      :		:
                                 1-123  "
                                 1-124  "	ec	error_code_n,ecoden,(This is the nth error code.)
                                 1-125  "
                                 1-126  "	end
                                 1-127  "
                                 1-128
                                 1-129  " End of include file ...... et_macros.incl.alm
                                 1-130
                                    13
                                    14  	et	kermit_et_

    000000                              	name	kermit_et_


                                        	include	stack_header
                                   2-1  "	BEGIN INCLUDE FILE ... stack_header.incl.alm  3/72  Bill Silver
                                   2-2  "
                                   2-3  "	modified 7/76 by M. Weaver for *system links and more system use of areas
                                   2-4  "	modified 3/77 by M. Weaver  to add rnt_ptr
                                   2-5  "	modified 7/77 by S. Webber to add run_unit_depth and assign_linkage_ptr
                                   2-6  "	modified 6/83 by J. Ives to add trace_frames and in_trace.
                                   2-7
                                   2-8  " HISTORY COMMENTS:
                                   2-9  "  1) change(86-06-24,DGHowe), approve(86-06-24,MCR7396),
                                  2-10  "     audit(86-08-05,Schroth), install(86-11-03,MR12.0-1206):
                                  2-11  "     added the heap_header_ptr definition
                                  2-12  "  2) change(86-08-12,Kissel), approve(86-08-12,MCR7473),
                                  2-13  "     audit(86-10-10,Fawcett), install(86-11-03,MR12.0-1206):
                                  2-14  "     Modified to support control point management.  These changes were
                                  2-15  "     actually made in February 1985 by G. Palter.
                                  2-16  "  3) change(86-10-22,Fawcett), approve(86-10-22,MCR7473),
                                  2-17  "     audit(86-10-22,Farley), install(86-11-03,MR12.0-1206):
                                  2-18  "     Remove the old_lot pointer and replace it with cpm_data_ptr. Use the 18
                                  2-19  "     bit pad after cur_lot_size for the cpm_enabled. This was done to save
                                  2-20  "     some space int the stack header and change the cpd_ptr unal to
                                  2-21  "     cpm_data_ptr (ITS pair).
                                  2-22  "                                                      END HISTORY COMMENTS
                                  2-23
                        000004    2-24  	equ	stack_header.cpm_data_ptr,4		ptr to control point for this stack
                        000006    2-25  	equ	stack_header.combined_stat_ptr,6	ptr to separate static area
                                  2-26
                        000010    2-27  	equ	stack_header.clr_ptr,8		ptr to area containing linkage sections
                        000012    2-28  	equ	stack_header.max_lot_size,10		number of words allowed in lot (DU)
                        000012    2-29  	equ	stack_header.main_proc_invoked,10	nonzero if main proc was invoked in run unit (DL)
                        000012    2-30  	equ	stack_header.run_unit_depth,10	number of active run units stacked (DL)
                        000013    2-31  	equ	stack_header.cur_lot_size,11		DU number of words (entries) in lot
                        000013    2-32            equ	stack_header.cpm_enabled,11		DL  non-zero if control point management is enabled
                        000014    2-33  	equ	stack_header.system_free_ptr,12	ptr to system storage area
                        000016    2-34  	equ	stack_header.user_free_ptr,14		ptr to user storage area
                                  2-35
                        000020    2-36  	equ	stack_header.parent_ptr,16		ptr to parent stack or null
                        000022    2-37  	equ	stack_header.stack_begin_ptr,18	ptr to first stack frame
                        000024    2-38  	equ	stack_header.stack_end_ptr,20		ptr to next useable stack frame
                        000026    2-39  	equ	stack_header.lot_ptr,22		ptr to the lot for the current ring
                                  2-40
                        000030    2-41  	equ	stack_header.signal_ptr,24		ptr to signal proc for current ring
                        000032    2-42  	equ	stack_header.bar_mode_sp,26		value of sp before entering bar mode
                        000034    2-43  	equ	stack_header.pl1_operators_ptr,28	ptr: pl1_operators_$operator_table
                        000036    2-44  	equ	stack_header.call_op_ptr,30		ptr to standard call operator
                                  2-45
                        000040    2-46  	equ	stack_header.push_op_ptr,32		ptr to standard push operator
                        000042    2-47  	equ	stack_header.return_op_ptr,34		ptr to standard return operator
                        000044    2-48  	equ	stack_header.ret_no_pop_op_ptr,36	ptr: stand. return/ no pop operator
                        000046    2-49  	equ	stack_header.entry_op_ptr,38		ptr to standard entry operator
                                  2-50
                        000050    2-51  	equ	stack_header.trans_op_tv_ptr,40	ptr to table of translator operator ptrs
                        000052    2-52  	equ	stack_header.isot_ptr,42		pointer to ISOT
                        000054    2-53  	equ	stack_header.sct_ptr,44		pointer to System Condition Table
                        000056    2-54  	equ	stack_header.unwinder_ptr,46		pointer to unwinder for current ring
                                  2-55
                        000060    2-56  	equ	stack_header.sys_link_info_ptr,48	ptr to *system link name table
                        000062    2-57  	equ	stack_header.rnt_ptr,50		ptr to reference name table
                        000064    2-58  	equ	stack_header.ect_ptr,52		ptr to event channel table
                        000066    2-59  	equ	stack_header.assign_linkage_ptr,54	ptr to area for hcs_$assign_linkage calls
                        000070    2-60  	equ	stack_header.heap_header_ptr,56	ptr to heap header.
                        000072    2-61  	equ	stack_header.trace_frames,58		stack of trace_catch_ frames
                        000073    2-62  	equ	stach_header.trace_top_ptr,59		trace pointer
                        000074    2-63  	equ	stack_header.in_trace,60		trace antirecurse bit
                        000100    2-64  	equ	stack_header_end,64			length of stack header
                                  2-65
                                  2-66
                                  2-67
                                  2-68
                        000000    2-69  	equ	trace_frames.count,0		number of trace frames on stack
                        000001    2-70  	equ	trace_frames.top_ptr,1		packed pointer to top one
                                  2-71
                                  2-72  "	The  following constant is an offset within the  pl1  operators table.
                                  2-73  "	It  references a  transfer vector table.
                                  2-74
                        000551    2-75  	bool	tv_offset,551
                                  2-76
                                  2-77
                                  2-78  "	The  following constants are offsets within this transfer vector table.
                                  2-79
                        001170    2-80  	equ	call_offset,tv_offset+271
                        001171    2-81  	equ	push_offset,tv_offset+272
                        001172    2-82  	equ	return_offset,tv_offset+273
                        001173    2-83  	equ	return_no_pop_offset,tv_offset+274
                        001174    2-84  	equ	entry_offset,tv_offset+275
                                  2-85
                                  2-86
                                  2-87  " 	END INCLUDE FILE stack_header.incl.alm

                                        

                                        	use	codes
    000010                              .code_start:

                                        	use	past_codes
    000035                              .code_end:

                                        	join	/link/codes,past_codes

                                        	use	messages

    000000                              .trapproc:
    000000  aa   000000 2130 04         	epaq	0,ic
    000001  aa   000000 6200 01         	eax0	0,au
    000002  aa  6 00000 3731 00         	epbpsb	sp|0
    000003  aa  7 00026 7641 61         	lprplp	sb|stack_header.lot_ptr,*au
    000004  8a   000010 6210 00         	eax1	.code_start
    000005  aa  4 00000 7401 11         .loop:	stx0	lp|0,x1
    000006  aa   000001 6210 11         	eax1	1,x1
    000007  8a   000035 1010 03         	cmpx1	.code_end,du
    000010  aa   777775 6040 04         	tmi	.loop-*,ic
    000011  aa  7 00044 7101 20         	short_return

    000012                              	firstref	<*text>|.trapproc


                        077777          	bool	.segno,77777

                                    15
                                    16  	ec	archive_star,acstarnm,
                                    17  		(Starnames may not be used in a component specification.)
                        000010          	segdef  archive_star
    000010  a0   077777 000014
    000012  aa  141 143 163 164         	aci  "acstarnm",8
    000013  aa  141 162 156 155
    000014  aa  067 123 164 141         	acc  "Starnames may not be used in a component specification."
    000015  aa  162 156 141 155
    000016  aa  145 163 040 155
    000017  aa  141 171 040 156
    000020  aa  157 164 040 142
    000021  aa  145 040 165 163
    000022  aa  145 144 040 151
    000023  aa  156 040 141 040
    000024  aa  143 157 155 160
    000025  aa  157 156 145 156
    000026  aa  164 040 163 160
    000027  aa  145 143 151 146
    000030  aa  151 143 141 164
    000031  aa  151 157 156 056

                                    18  	ec	bad_mode_value,badvalue,
                                    19  		(Illegal mode value supplied.)
                        000011          	segdef  bad_mode_value
    000011  a0   077777 000034
    000032  aa  142 141 144 166         	aci  "badvalue",8
    000033  aa  141 154 165 145
    000034  aa  034 111 154 154         	acc  "Illegal mode value supplied."
    000035  aa  145 147 141 154
    000036  aa  040 155 157 144
    000037  aa  145 040 166 141
    000040  aa  154 165 145 040
    000041  aa  163 165 160 160
    000042  aa  154 151 145 144
    000043  aa  056 000 000 000

                                    20  	ec	big_seg,bigseg,
                                    21  		(Unable to completely receive file.  Segment is too large.)
                        000012          	segdef  big_seg
    000012  a0   077777 000046
    000044  aa  142 151 147 163         	aci  "bigseg",8
    000045  aa  145 147 040 040
    000046  aa  071 125 156 141         	acc  "Unable to completely receive file.  Segment is too large."
    000047  aa  142 154 145 040
    000050  aa  164 157 040 143
    000051  aa  157 155 160 154
    000052  aa  145 164 145 154
    000053  aa  171 040 162 145
    000054  aa  143 145 151 166
    000055  aa  145 040 146 151
    000056  aa  154 145 056 040
    000057  aa  040 123 145 147
    000060  aa  155 145 156 164
    000061  aa  040 151 163 040
    000062  aa  164 157 157 040
    000063  aa  154 141 162 147
    000064  aa  145 056 000 000

                                    22  	ec	cannot_decode,nodecode,
                                    23  		(The data cannot be decoded.)
                        000013          	segdef  cannot_decode
    000013  a0   077777 000067
    000065  aa  156 157 144 145         	aci  "nodecode",8
    000066  aa  143 157 144 145
    000067  aa  033 124 150 145         	acc  "The data cannot be decoded."
    000070  aa  040 144 141 164
    000071  aa  141 040 143 141
    000072  aa  156 156 157 164
    000073  aa  040 142 145 040
    000074  aa  144 145 143 157
    000075  aa  144 145 144 056

                                    24  	ec	cannot_initialize_line,cantinit,
                                    25  		(The communication line cannot be initialized for file transfer.)
                        000014          	segdef  cannot_initialize_line
    000014  a0   077777 000100
    000076  aa  143 141 156 164         	aci  "cantinit",8
    000077  aa  151 156 151 164
    000100  aa  077 124 150 145         	acc  "The communication line cannot be initialized for file transfer."
    000101  aa  040 143 157 155
    000102  aa  155 165 156 151
    000103  aa  143 141 164 151
    000104  aa  157 156 040 154
    000105  aa  151 156 145 040
    000106  aa  143 141 156 156
    000107  aa  157 164 040 142
    000110  aa  145 040 151 156
    000111  aa  151 164 151 141
    000112  aa  154 151 172 145
    000113  aa  144 040 146 157
    000114  aa  162 040 146 151
    000115  aa  154 145 040 164
    000116  aa  162 141 156 163
    000117  aa  146 145 162 056

                                    26  	ec	crc_error,bad_crc,
                                    27  		(Calculated and received checksums do not match.)
                        000015          	segdef  crc_error
    000015  a0   077777 000122
    000120  aa  142 141 144 137         	aci  "bad_crc",8
    000121  aa  143 162 143 040
    000122  aa  057 103 141 154         	acc  "Calculated and received checksums do not match."
    000123  aa  143 165 154 141
    000124  aa  164 145 144 040
    000125  aa  141 156 144 040
    000126  aa  162 145 143 145
    000127  aa  151 166 145 144
    000130  aa  040 143 150 145
    000131  aa  143 153 163 165
    000132  aa  155 163 040 144
    000133  aa  157 040 156 157
    000134  aa  164 040 155 141
    000135  aa  164 143 150 056

                                    28  	ec	fatal_error,fatalerr,
                                    29  		(Fatal error encountered by remote.  Transaction terminated.)
                        000016          	segdef  fatal_error
    000016  a0   077777 000140
    000136  aa  146 141 164 141         	aci  "fatalerr",8
    000137  aa  154 145 162 162
    000140  aa  073 106 141 164         	acc  "Fatal error encountered by remote.  Transaction terminated."
    000141  aa  141 154 040 145
    000142  aa  162 162 157 162
    000143  aa  040 145 156 143
    000144  aa  157 165 156 164
    000145  aa  145 162 145 144
    000146  aa  040 142 171 040
    000147  aa  162 145 155 157
    000150  aa  164 145 056 040
    000151  aa  040 124 162 141
    000152  aa  156 163 141 143
    000153  aa  164 151 157 156
    000154  aa  040 164 145 162
    000155  aa  155 151 156 141
    000156  aa  164 145 144 056

                                    30  	ec	length_mismatch,badlen,
                                    31  		(The actual and received length do not match.)
                        000017          	segdef  length_mismatch
    000017  a0   077777 000161
    000157  aa  142 141 144 154         	aci  "badlen",8
    000160  aa  145 156 040 040
    000161  aa  054 124 150 145         	acc  "The actual and received length do not match."
    000162  aa  040 141 143 164
    000163  aa  165 141 154 040
    000164  aa  141 156 144 040
    000165  aa  162 145 143 145
    000166  aa  151 166 145 144
    000167  aa  040 154 145 156
    000170  aa  147 164 150 040
    000171  aa  144 157 040 156
    000172  aa  157 164 040 155
    000173  aa  141 164 143 150
    000174  aa  056 000 000 000

                                    32  	ec	log_not_disabled,logntoff,
                                    33  		(Logging of file transfers is enabled on this log file.)
                        000020          	segdef  log_not_disabled
    000020  a0   077777 000177
    000175  aa  154 157 147 156         	aci  "logntoff",8
    000176  aa  164 157 146 146
    000177  aa  066 114 157 147         	acc  "Logging of file transfers is enabled on this log file."
    000200  aa  147 151 156 147
    000201  aa  040 157 146 040
    000202  aa  146 151 154 145
    000203  aa  040 164 162 141
    000204  aa  156 163 146 145
    000205  aa  162 163 040 151
    000206  aa  163 040 145 156
    000207  aa  141 142 154 145
    000210  aa  144 040 157 156
    000211  aa  040 164 150 151
    000212  aa  163 040 154 157
    000213  aa  147 040 146 151
    000214  aa  154 145 056 000

                                    34  	ec	log_open,log_open,
                                    35  		(There is already a log file open.  Use quit_log first.)
                        000021          	segdef  log_open
    000021  a0   077777 000217
    000215  aa  154 157 147 137         	aci  "log_open",8
    000216  aa  157 160 145 156
    000217  aa  066 124 150 145         	acc  "There is already a log file open.  Use quit_log first."
    000220  aa  162 145 040 151
    000221  aa  163 040 141 154
    000222  aa  162 145 141 144
    000223  aa  171 040 141 040
    000224  aa  154 157 147 040
    000225  aa  146 151 154 145
    000226  aa  040 157 160 145
    000227  aa  156 056 040 040
    000230  aa  125 163 145 040
    000231  aa  161 165 151 164
    000232  aa  137 154 157 147
    000233  aa  040 146 151 162
    000234  aa  163 164 056 000

                                    36  	ec	mangled_packet,mangled,
                                    37  		(The packet is unrecognizable.  Required fields missing.)
                        000022          	segdef  mangled_packet
    000022  a0   077777 000237
    000235  aa  155 141 156 147         	aci  "mangled",8
    000236  aa  154 145 144 040
    000237  aa  067 124 150 145         	acc  "The packet is unrecognizable.  Required fields missing."
    000240  aa  040 160 141 143
    000241  aa  153 145 164 040
    000242  aa  151 163 040 165
    000243  aa  156 162 145 143
    000244  aa  157 147 156 151
    000245  aa  172 141 142 154
    000246  aa  145 056 040 040
    000247  aa  122 145 161 165
    000250  aa  151 162 145 144
    000251  aa  040 146 151 145
    000252  aa  154 144 163 040
    000253  aa  155 151 163 163
    000254  aa  151 156 147 056

                                    38  	ec	no_file_abort,noabort,
                                    39  		(Unable to abort receipt of a single file.  Transaction terminated.)
                        000023          	segdef  no_file_abort
    000023  a0   077777 000257
    000255  aa  156 157 141 142         	aci  "noabort",8
    000256  aa  157 162 164 040
    000257  aa  102 125 156 141         	acc  "Unable to abort receipt of a single file.  Transaction terminated."
    000260  aa  142 154 145 040
    000261  aa  164 157 040 141
    000262  aa  142 157 162 164
    000263  aa  040 162 145 143
    000264  aa  145 151 160 164
    000265  aa  040 157 146 040
    000266  aa  141 040 163 151
    000267  aa  156 147 154 145
    000270  aa  040 146 151 154
    000271  aa  145 056 040 040
    000272  aa  124 162 141 156
    000273  aa  163 141 143 164
    000274  aa  151 157 156 040
    000275  aa  164 145 162 155
    000276  aa  151 156 141 164
    000277  aa  145 144 056 000

                                    40  	ec	no_initialization,bad_init,
                                    41  		(Unable to initialize with remote.  Transaction terminated.)
                        000024          	segdef  no_initialization
    000024  a0   077777 000302
    000300  aa  142 141 144 137         	aci  "bad_init",8
    000301  aa  151 156 151 164
    000302  aa  072 125 156 141         	acc  "Unable to initialize with remote.  Transaction terminated."
    000303  aa  142 154 145 040
    000304  aa  164 157 040 151
    000305  aa  156 151 164 151
    000306  aa  141 154 151 172
    000307  aa  145 040 167 151
    000310  aa  164 150 040 162
    000311  aa  145 155 157 164
    000312  aa  145 056 040 040
    000313  aa  124 162 141 156
    000314  aa  163 141 143 164
    000315  aa  151 157 156 040
    000316  aa  164 145 162 155
    000317  aa  151 156 141 164
    000320  aa  145 144 056 000

                                    42  	ec	no_log,no_log,(There is no log file open.)
                        000025          	segdef  no_log
    000025  a0   077777 000323
    000321  aa  156 157 137 154         	aci  "no_log",8
    000322  aa  157 147 040 040
    000323  aa  032 124 150 145         	acc  "There is no log file open."
    000324  aa  162 145 040 151
    000325  aa  163 040 156 157
    000326  aa  040 154 157 147
    000327  aa  040 146 151 154
    000330  aa  145 040 157 160
    000331  aa  145 156 056 000

                                    43  	ec	no_rename,badname,
                                    44  		(Unable to rename file.  File not received.)
                        000026          	segdef  no_rename
    000026  a0   077777 000334
    000332  aa  142 141 144 156         	aci  "badname",8
    000333  aa  141 155 145 040
    000334  aa  052 125 156 141         	acc  "Unable to rename file.  File not received."
    000335  aa  142 154 145 040
    000336  aa  164 157 040 162
    000337  aa  145 156 141 155
    000340  aa  145 040 146 151
    000341  aa  154 145 056 040
    000342  aa  040 106 151 154
    000343  aa  145 040 156 157
    000344  aa  164 040 162 145
    000345  aa  143 145 151 166
    000346  aa  145 144 056 000

                                    45  	ec	no_valid_stats,no_stats,
                                    46  		(There has been no file transfer in this session.)
                        000027          	segdef  no_valid_stats
    000027  a0   077777 000351
    000347  aa  156 157 137 163         	aci  "no_stats",8
    000350  aa  164 141 164 163
    000351  aa  060 124 150 145         	acc  "There has been no file transfer in this session."
    000352  aa  162 145 040 150
    000353  aa  141 163 040 142
    000354  aa  145 145 156 040
    000355  aa  156 157 040 146
    000356  aa  151 154 145 040
    000357  aa  164 162 141 156
    000360  aa  163 146 145 162
    000361  aa  040 151 156 040
    000362  aa  164 150 151 163
    000363  aa  040 163 145 163
    000364  aa  163 151 157 156
    000365  aa  056 000 000 000

                                    47  	ec	remote_file_abort,segabort,
                                    48  		(File terminated by remote system.)
                        000030          	segdef  remote_file_abort
    000030  a0   077777 000370
    000366  aa  163 145 147 141         	aci  "segabort",8
    000367  aa  142 157 162 164
    000370  aa  041 106 151 154         	acc  "File terminated by remote system."
    000371  aa  145 040 164 145
    000372  aa  162 155 151 156
    000373  aa  141 164 145 144
    000374  aa  040 142 171 040
    000375  aa  162 145 155 157
    000376  aa  164 145 040 163
    000377  aa  171 163 164 145
    000400  aa  155 056 000 000

                                    49  	ec	remote_group_abort,grpabort,
                                    50  		(Transaction terminated by remote system.)
                        000031          	segdef  remote_group_abort
    000031  a0   077777 000403
    000401  aa  147 162 160 141         	aci  "grpabort",8
    000402  aa  142 157 162 164
    000403  aa  050 124 162 141         	acc  "Transaction terminated by remote system."
    000404  aa  156 163 141 143
    000405  aa  164 151 157 156
    000406  aa  040 164 145 162
    000407  aa  155 151 156 141
    000410  aa  164 145 144 040
    000411  aa  142 171 040 162
    000412  aa  145 155 157 164
    000413  aa  145 040 163 171
    000414  aa  163 164 145 155
    000415  aa  056 000 000 000

                                    51  	ec	too_many_retries,bad_rtry,
                                    52  		(Packet retry count exceeded.  Transaction terminated.)
                        000032          	segdef  too_many_retries
    000032  a0   077777 000420
    000416  aa  142 141 144 137         	aci  "bad_rtry",8
    000417  aa  162 164 162 171
    000420  aa  065 120 141 143         	acc  "Packet retry count exceeded.  Transaction terminated."
    000421  aa  153 145 164 040
    000422  aa  162 145 164 162
    000423  aa  171 040 143 157
    000424  aa  165 156 164 040
    000425  aa  145 170 143 145
    000426  aa  145 144 145 144
    000427  aa  056 040 040 124
    000430  aa  162 141 156 163
    000431  aa  141 143 164 151
    000432  aa  157 156 040 164
    000433  aa  145 162 155 151
    000434  aa  156 141 164 145
    000435  aa  144 056 000 000

                                    53  	ec	unimplemented_check_type,bdcktype,
                                    54  		(The specified check type is not implemented.)
                        000033          	segdef  unimplemented_check_type
    000033  a0   077777 000440
    000436  aa  142 144 143 153         	aci  "bdcktype",8
    000437  aa  164 171 160 145
    000440  aa  054 124 150 145         	acc  "The specified check type is not implemented."
    000441  aa  040 163 160 145
    000442  aa  143 151 146 151
    000443  aa  145 144 040 143
    000444  aa  150 145 143 153
    000445  aa  040 164 171 160
    000446  aa  145 040 151 163
    000447  aa  040 156 157 164
    000450  aa  040 151 155 160
    000451  aa  154 145 155 145
    000452  aa  156 164 145 144
    000453  aa  056 000 000 000

                                    55  	ec	unknown_mode,bad_mode,
                                    56  		(The specified mode does not exist.)
                        000034          	segdef  unknown_mode
    000034  a0   077777 000456
    000454  aa  142 141 144 137         	aci  "bad_mode",8
    000455  aa  155 157 144 145
    000456  aa  042 124 150 145         	acc  "The specified mode does not exist."
    000457  aa  040 163 160 145
    000460  aa  143 151 146 151
    000461  aa  145 144 040 155
    000462  aa  157 144 145 040
    000463  aa  144 157 145 163
    000464  aa  040 156 157 164
    000465  aa  040 145 170 151
    000466  aa  163 164 056 000

                                    57
                                    58  	end

NO LITERALS

NAME DEFINITIONS FOR ENTRY POINTS AND SEGDEFS

    000470  5a   000003 000000
    000471  5a   000245 600000
    000472  aa   000000 000000
    000473  55   000011 000002
    000474  5a   000002 400003
    000475  55   000006 000011
    000476  aa  012 153 145 162
    000477  aa  155 151 164 137
    000500  aa  145 164 137 000
    000501  55   000020 000003
    000502  2a   000034 400001
    000503  55   000014 000003
    000504  aa  014 165 156 153         unknown_mode
    000505  aa  156 157 167 156
    000506  aa  137 155 157 144
    000507  aa  145 000 000 000
    000510  55   000032 000011
    000511  2a   000033 400001
    000512  55   000023 000003
    000513  aa  030 165 156 151         unimplemented_check_type
    000514  aa  155 160 154 145
    000515  aa  155 145 156 164
    000516  aa  145 144 137 143
    000517  aa  150 145 143 153
    000520  aa  137 164 171 160
    000521  aa  145 000 000 000
    000522  55   000042 000020
    000523  2a   000032 400001
    000524  55   000035 000003
    000525  aa  020 164 157 157         too_many_retries
    000526  aa  137 155 141 156
    000527  aa  171 137 162 145
    000530  aa  164 162 151 145
    000531  aa  163 000 000 000
    000532  55   000052 000032
    000533  2a   000031 400001
    000534  55   000045 000003
    000535  aa  022 162 145 155         remote_group_abort
    000536  aa  157 164 145 137
    000537  aa  147 162 157 165
    000540  aa  160 137 141 142
    000541  aa  157 162 164 000
    000542  55   000062 000042
    000543  2a   000030 400001
    000544  55   000055 000003
    000545  aa  021 162 145 155         remote_file_abort
    000546  aa  157 164 145 137
    000547  aa  146 151 154 145
    000550  aa  137 141 142 157
    000551  aa  162 164 000 000
    000552  55   000071 000052
    000553  2a   000027 400001
    000554  55   000065 000003
    000555  aa  016 156 157 137         no_valid_stats
    000556  aa  166 141 154 151
    000557  aa  144 137 163 164
    000560  aa  141 164 163 000
    000561  55   000077 000062
    000562  2a   000026 400001
    000563  55   000074 000003
    000564  aa  011 156 157 137         no_rename
    000565  aa  162 145 156 141
    000566  aa  155 145 000 000
    000567  55   000104 000071
    000570  2a   000025 400001
    000571  55   000102 000003
    000572  aa  006 156 157 137         no_log
    000573  aa  154 157 147 000
    000574  55   000114 000077
    000575  2a   000024 400001
    000576  55   000107 000003
    000577  aa  021 156 157 137         no_initialization
    000600  aa  151 156 151 164
    000601  aa  151 141 154 151
    000602  aa  172 141 164 151
    000603  aa  157 156 000 000
    000604  55   000123 000104
    000605  2a   000023 400001
    000606  55   000117 000003
    000607  aa  015 156 157 137         no_file_abort
    000610  aa  146 151 154 145
    000611  aa  137 141 142 157
    000612  aa  162 164 000 000
    000613  55   000132 000114
    000614  2a   000022 400001
    000615  55   000126 000003
    000616  aa  016 155 141 156         mangled_packet
    000617  aa  147 154 145 144
    000620  aa  137 160 141 143
    000621  aa  153 145 164 000
    000622  55   000140 000123
    000623  2a   000021 400001
    000624  55   000135 000003
    000625  aa  010 154 157 147         log_open
    000626  aa  137 157 160 145
    000627  aa  156 000 000 000
    000630  55   000150 000132
    000631  2a   000020 400001
    000632  55   000143 000003
    000633  aa  020 154 157 147         log_not_disabled
    000634  aa  137 156 157 164
    000635  aa  137 144 151 163
    000636  aa  141 142 154 145
    000637  aa  144 000 000 000
    000640  55   000157 000140
    000641  2a   000017 400001
    000642  55   000153 000003
    000643  aa  017 154 145 156         length_mismatch
    000644  aa  147 164 150 137
    000645  aa  155 151 163 155
    000646  aa  141 164 143 150
    000647  55   000165 000150
    000650  2a   000016 400001
    000651  55   000162 000003
    000652  aa  013 146 141 164         fatal_error
    000653  aa  141 154 137 145
    000654  aa  162 162 157 162
    000655  55   000173 000157
    000656  2a   000015 400001
    000657  55   000170 000003
    000660  aa  011 143 162 143         crc_error
    000661  aa  137 145 162 162
    000662  aa  157 162 000 000
    000663  55   000204 000165
    000664  2a   000014 400001
    000665  55   000176 000003
    000666  aa  026 143 141 156         cannot_initialize_line
    000667  aa  156 157 164 137
    000670  aa  151 156 151 164
    000671  aa  151 141 154 151
    000672  aa  172 145 137 154
    000673  aa  151 156 145 000
    000674  55   000213 000173
    000675  2a   000013 400001
    000676  55   000207 000003
    000677  aa  015 143 141 156         cannot_decode
    000700  aa  156 157 164 137
    000701  aa  144 145 143 157
    000702  aa  144 145 000 000
    000703  55   000220 000204
    000704  2a   000012 400001
    000705  55   000216 000003
    000706  aa  007 142 151 147         big_seg
    000707  aa  137 163 145 147
    000710  55   000227 000213
    000711  2a   000011 400001
    000712  55   000223 000003
    000713  aa  016 142 141 144         bad_mode_value
    000714  aa  137 155 157 144
    000715  aa  145 137 166 141
    000716  aa  154 165 145 000
    000717  55   000236 000220
    000720  2a   000010 400001
    000721  55   000232 000003
    000722  aa  014 141 162 143         archive_star
    000723  aa  150 151 166 145
    000724  aa  137 163 164 141
    000725  aa  162 000 000 000
    000726  55   000002 000227
    000727  6a   000000 400002
    000730  55   000241 000003
    000731  aa  014 163 171 155         symbol_table
    000732  aa  142 157 154 137
    000733  aa  164 141 142 154
    000734  aa  145 000 000 000

DEFINITIONS HASH TABLE

    000735  aa   000000 000033
    000736  5a   000114 000000
    000737  5a   000123 000000
    000740  5a   000157 000000
    000741  5a   000140 000000
    000742  5a   000071 000000
    000743  5a   000165 000000
    000744  5a   000220 000000
    000745  5a   000020 000000
    000746  5a   000077 000000
    000747  5a   000173 000000
    000750  5a   000213 000000
    000751  5a   000132 000000
    000752  5a   000236 000000
    000753  aa   000000 000000
    000754  aa   000000 000000
    000755  aa   000000 000000
    000756  5a   000227 000000
    000757  aa   000000 000000
    000760  5a   000204 000000
    000761  5a   000032 000000
    000762  aa   000000 000000
    000763  5a   000011 000000
    000764  5a   000150 000000
    000765  5a   000042 000000
    000766  5a   000052 000000
    000767  5a   000104 000000
    000770  5a   000062 000000

NO EXTERNAL NAMES

NO TRAP POINTER WORDS

TYPE PAIR BLOCKS

    000771  aa   000001 000000
    000772  aa   000000 000000

INTERNAL EXPRESSION WORDS

    000773  50   000301 000000
LINKAGE INFORMATION

    000000  aa   000000 000000
    000001  02   000470 000040
    000002  aa   000000 000000
    000003  aa   000000 000000
    000004  aa   000000 000000
    000005  aa   000000 000000
    000006  22   000036 000043
    000007  a2   000000 000026
    000036  9a   777742 0000 46         *text|
    000037  5a   000303 0000 00

FIRST REFERENCE TRAP LIST

    000040  aa   000000 000001
    000041  aa   000000 000001
    000042  2a   000036 000000
    000043  aa   000000 000000
SYMBOL INFORMATION

SYMBOL TABLE HEADER

    000000  aa   000000 000001
    000001  aa   163171 155142
    000002  aa   164162 145145
    000003  aa   000000 000004
    000004  aa   000000 114732
    000005  aa   732732 062314
    000006  aa   000000 114775
    000007  aa   662256 621023
    000010  aa   141154 155040
    000011  aa   040040 040040
    000012  aa   000024 000040
    000013  aa   000034 000040
    000014  aa   000044 000100
    000015  aa   000002 000002
    000016  aa   000064 000000
    000017  aa   000000 000210
    000020  aa   000000 000144
    000021  aa   000000 000170
    000022  aa   000200 000144
    000023  aa   000064 000000
    000024  aa   101114 115040
    000025  aa   126145 162163
    000026  aa   151157 156040
    000027  aa   040066 056067
    000030  aa   040040 117143
    000031  aa   164157 142145
    000032  aa   162040 061071
    000033  aa   070066 040040
    000034  aa   107112 157150
    000035  aa   156163 157156
    000036  aa   056123 171163
    000037  aa   115141 151156
    000040  aa   164056 141040
    000041  aa   040040 040040
    000042  aa   040040 040040
    000043  aa   040040 040040
    000044  aa   154151 163164
    000045  aa   040040 040040
    000046  aa   040040 040040
    000047  aa   040040 040040
    000050  aa   040040 040040
    000051  aa   040040 040040
    000052  aa   040040 040040
    000053  aa   040040 040040
    000054  aa   040040 040040
    000055  aa   040040 040040
    000056  aa   040040 040040
    000057  aa   040040 040040
    000060  aa   040040 040040
    000061  aa   040040 040040
    000062  aa   040040 040040
    000063  aa   040040 040040
    000064  aa   000000 000001
    000065  aa   000000 000003
    000066  aa   000102 000057
    000067  aa   147740 446177
    000070  aa   000000 114774
    000071  aa   460761 600000
    000072  aa   000116 000037
    000073  aa   120665 316464
    000074  aa   000000 112067
    000075  aa   253504 600000
    000076  aa   000126 000066
    000077  aa   147714 750316
    000100  aa   000000 114774
    000101  aa   453561 000000
    000102  aa   076163 160145          >special_ldd>install>MR12.0-1206>kermit_et_.alm
    000103  aa   143151 141154
    000104  aa   137154 144144
    000105  aa   076151 156163
    000106  aa   164141 154154
    000107  aa   076115 122061
    000110  aa   062056 060055
    000111  aa   061062 060066
    000112  aa   076153 145162
    000113  aa   155151 164137
    000114  aa   145164 137056
    000115  aa   141154 155040
    000116  aa   076154 144144          >ldd>include>et_macros.incl.alm
    000117  aa   076151 156143
    000120  aa   154165 144145
    000121  aa   076145 164137
    000122  aa   155141 143162
    000123  aa   157163 056151
    000124  aa   156143 154056
    000125  aa   141154 155040
    000126  aa   076163 160145          >special_ldd>install>MR12.0-1206>stack_header.incl.alm
    000127  aa   143151 141154
    000130  aa   137154 144144
    000131  aa   076151 156163
    000132  aa   164141 154154
    000133  aa   076115 122061
    000134  aa   062056 060055
    000135  aa   061062 060066
    000136  aa   076163 164141
    000137  aa   143153 137150
    000140  aa   145141 144145
    000141  aa   162056 151156
    000142  aa   143154 056141
    000143  aa   154155 040040
               MULTICS ASSEMBLY CROSS REFERENCE LISTING

   Value        Symbol                   Source file   Line number

                *text                    kermit_et_:    14.
          14    .._00000                 kermit_et_:    17.
          34    .._00001                 kermit_et_:    19.
          46    .._00002                 kermit_et_:    21.
          67    .._00003                 kermit_et_:    23.
         100    .._00004                 kermit_et_:    25.
         122    .._00005                 kermit_et_:    27.
         140    .._00006                 kermit_et_:    29.
         161    .._00007                 kermit_et_:    31.
         177    .._00010                 kermit_et_:    33.
         217    .._00011                 kermit_et_:    35.
         237    .._00012                 kermit_et_:    37.
         257    .._00013                 kermit_et_:    39.
         302    .._00014                 kermit_et_:    41.
         323    .._00015                 kermit_et_:    42.
         334    .._00016                 kermit_et_:    44.
         351    .._00017                 kermit_et_:    46.
         370    .._00020                 kermit_et_:    48.
         403    .._00021                 kermit_et_:    50.
         420    .._00022                 kermit_et_:    52.
         440    .._00023                 kermit_et_:    54.
         456    .._00024                 kermit_et_:    56.
          35    .code_end                kermit_et_:    14.
          10    .code_start              kermit_et_:    14.
           5    .loop                    kermit_et_:    14.
       77777    .segno                   kermit_et_:    14,   17,   19,   21,   23,   25,   27,   29,   31,   33,   35,   37,
                                                        39,   41,   42,   44,   46,   48,   50,   52,   54,   56.
           0    .trapproc                kermit_et_:    14.
          10    archive_star             kermit_et_:    17.
          11    bad_mode_value           kermit_et_:    19.
          12    big_seg                  kermit_et_:    21.
        1170    call_offset              stack_header:        80.
          13    cannot_decode            kermit_et_:    23.
          14    cannot_initialize_line   kermit_et_:    25.
          10    codes                    kermit_et_:    14,   17,   19,   21,   23,   25,   27,   29,   31,   33,   35,   37,
                                                        39,   41,   42,   44,   46,   48,   50,   52,   54,   56.
          15    crc_error                kermit_et_:    27.
        1174    entry_offset             stack_header:        84.
          16    fatal_error              kermit_et_:    29.
          17    length_mismatch          kermit_et_:    31.
          20    log_not_disabled         kermit_et_:    33.
          21    log_open                 kermit_et_:    35.
          22    mangled_packet           kermit_et_:    37.
           0    messages                 kermit_et_:    14,   17,   19,   21,   23,   25,   27,   29,   31,   33,   35,   37,
                                                        39,   41,   42,   44,   46,   48,   50,   52,   54,   56.
          23    no_file_abort            kermit_et_:    39.
          24    no_initialization        kermit_et_:    41.
          25    no_log                   kermit_et_:    42.
          26    no_rename                kermit_et_:    44.
          27    no_valid_stats           kermit_et_:    46.
          35    past_codes               kermit_et_:    14.
        1171    push_offset              stack_header:        81.
          30    remote_file_abort        kermit_et_:    48.
          31    remote_group_abort       kermit_et_:    50.
        1173    return_no_pop_offset     stack_header:        83.
        1172    return_offset            stack_header:        82.
          73    stach_header.trace_top_ptr     stack_header:        62.
          66    stack_header.assign_linkage_ptr      stack_header:        59.
          32    stack_header.bar_mode_sp       stack_header:        42.
          36    stack_header.call_op_ptr       stack_header:        44.
          10    stack_header.clr_ptr     stack_header:        27.
           6    stack_header.combined_stat_ptr       stack_header:        25.
           4    stack_header.cpm_data_ptr      stack_header:        24.
          13    stack_header.cpm_enabled       stack_header:        32.
          13    stack_header.cur_lot_size      stack_header:        31.
          64    stack_header.ect_ptr     stack_header:        58.
          46    stack_header.entry_op_ptr      stack_header:        49.
          70    stack_header.heap_header_ptr   stack_header:        60.
          74    stack_header.in_trace    stack_header:        63.
          52    stack_header.isot_ptr    stack_header:        52.
          26    stack_header.lot_ptr     kermit_et_:    14,
                                         stack_header:        39.
          12    stack_header.main_proc_invoked       stack_header:        29.
          12    stack_header.max_lot_size      stack_header:        28.
          20    stack_header.parent_ptr  stack_header:        36.
          34    stack_header.pl1_operators_ptr       stack_header:        43.
          40    stack_header.push_op_ptr       stack_header:        46.
          42    stack_header.return_op_ptr     stack_header:        47.
          44    stack_header.ret_no_pop_op_ptr       stack_header:        48.
          62    stack_header.rnt_ptr     stack_header:        57.
          12    stack_header.run_unit_depth    stack_header:        30.
          54    stack_header.sct_ptr     stack_header:        53.
          30    stack_header.signal_ptr  stack_header:        41.
          22    stack_header.stack_begin_ptr   stack_header:        37.
          24    stack_header.stack_end_ptr     stack_header:        38.
          14    stack_header.system_free_ptr   stack_header:        33.
          60    stack_header.sys_link_info_ptr       stack_header:        56.
          72    stack_header.trace_frames      stack_header:        61.
          50    stack_header.trans_op_tv_ptr   stack_header:        51.
          56    stack_header.unwinder_ptr      stack_header:        54.
          16    stack_header.user_free_ptr     stack_header:        34.
         100    stack_header_end         stack_header:        64.
          32    too_many_retries         kermit_et_:    52.
           0    trace_frames.count       stack_header:        69.
           1    trace_frames.top_ptr     stack_header:        70.
         551    tv_offset                stack_header:        75,   80,   81,   82,   83,   84.
          33    unimplemented_check_type       kermit_et_:    54.
          34    unknown_mode             kermit_et_:    56.


NO FATAL ERRORS


                                          -----------------------------------------------------------


Historical Background

This edition of the Multics software materials and documentation is provided and donated
to Massachusetts Institute of Technology by Group BULL including BULL HN Information Systems Inc.
as a contribution to computer science knowledge.
This donation is made also to give evidence of the common contributions of Massachusetts Institute of Technology,
Bell Laboratories, General Electric, Honeywell Information Systems Inc., Honeywell BULL Inc., Groupe BULL
and BULL HN Information Systems Inc. to the development of this operating system.
Multics development was initiated by Massachusetts Institute of Technology Project MAC (1963-1970),
renamed the MIT Laboratory for Computer Science and Artificial Intelligence in the mid 1970s, under the leadership
of Professor Fernando Jose Corbato. Users consider that Multics provided the best software architecture
for managing computer hardware properly and for executing programs. Many subsequent operating systems
incorporated Multics principles.
Multics was distributed in 1975 to 2000 by Group Bull in Europe , and in the U.S. by Bull HN Information Systems Inc.,
as successor in interest by change in name only to Honeywell Bull Inc. and Honeywell Information Systems Inc. .

                                          -----------------------------------------------------------

Permission to use, copy, modify, and distribute these programs and their documentation for any purpose and without
fee is hereby granted,provided that the below copyright notice and historical background appear in all copies
and that both the copyright notice and historical background and this permission notice appear in supporting
documentation, and that the names of MIT, HIS, BULL or BULL HN not be used in advertising or publicity pertaining
to distribution of the programs without specific prior written permission.
    Copyright 1972 by Massachusetts Institute of Technology and Honeywell Information Systems Inc.
    Copyright 2006 by BULL HN Information Systems Inc.
    Copyright 2006 by Bull SAS
    All Rights Reserved
