ASSEMBLY LISTING OF SEGMENT >dumps>old>recomp>letseg_.alm
ASSEMBLED ON:	11/04/82  1848.1 mst Thu
OPTIONS USED:	list
ASSEMBLED BY:	ALM Version  6.4  April 1981
ASSEMBLER CREATED:	11/03/82  1423.6 mst Wed

                                     1  " ***********************************************************
                                     2  " *                                                         *
                                     3  " * Copyright, (C) Honeywell Information Systems Inc., 1982 *
                                     4  " *                                                         *
                                     5  " * Copyright (c) 1972 by Massachusetts Institute of        *
                                     6  " * Technology and Honeywell Information Systems, Inc.      *
                                     7  " *                                                         *
                                     8  " ***********************************************************
                                     9
    000000                          10  	name	letseg_
                                    11
                        000000      12  	segdef	letseg
                        000302      13  	segdef	littles
                                    14
    000000  aa   000000 000000      15  letseg:	oct	000000000000,000000000000
    000001  aa   000000 000000
    000002  aa   000000 000000      16  	oct	000000000000,000000000000
    000003  aa   000000 000000
    000004  aa   060140 300601      17  	oct	060140300601,403000014030
    000005  aa   403000 014030
    000006  aa   314630 000000      18  	oct	314630000000,000000000000
    000007  aa   000000 000000
    000010  aa   000220 447762      19  	oct	000220447762,237711022000
    000011  aa   237711 022000
    000012  aa   000041 766207      20  	oct	000041766207,701337404000
    000013  aa   701337 404000
    000014  aa   001617 460301      21  	oct	001617460301,406031743400
    000015  aa   406031 743400
    000016  aa   060220 440604      22  	oct	060220440604,460641474000
    000017  aa   460641 474000
    000020  aa   030140 000000      23  	oct	030140000000,000000000000
    000021  aa   000000 000000
    000022  aa   006030 140300      24  	oct	006030140300,601403003003
    000023  aa   601403 003003
    000024  aa   600600 601403      25  	oct	600600601403,006014060300
    000025  aa   006014 060300
    000026  aa   000142 312657      26  	oct	000142312657,753246214000
    000027  aa   753246 214000
    000030  aa   000000 300617      27  	oct	000000300617,743006000000
    000031  aa   743006 000000
    000032  aa   000000 000000      28  	oct	000000000000,000030060200
    000033  aa   000030 060200
    000034  aa   000000 000007      29  	oct	000000000007,700000000000
    000035  aa   700000 000000
    000036  aa   000000 000000      30  	oct	000000000000,000030060000
    000037  aa   000030 060000
    000040  aa   006014 060301      31  	oct	006014060301,406030140300
    000041  aa   406030 140300
    000042  aa   060631 463146      32  	oct	060631463146,314631414000
    000043  aa   314631 414000
    000044  aa   030160 140300      33  	oct	030160140300,601403037400
    000045  aa   601403 037400
    000046  aa   170430 030140      34  	oct	170430030140,603014077400
    000047  aa   603014 077400
    000050  aa   376030 140700      35  	oct	376030140700,300301476000
    000051  aa   300301 476000
    000052  aa   006034 170663      36  	oct	006034170663,157700601400
    000053  aa   157700 601400
    000054  aa   771403 007600      37  	oct	771403007600,600643074000
    000055  aa   600643 074000
    000056  aa   160621 403706      38  	oct	160621403706,314631436000
    000057  aa   314631 436000
    000060  aa   776030 140603      39  	oct	776030140603,014030060000
    000061  aa   014030 060000
    000062  aa   060631 460606      40  	oct	060631460606,314631414000
    000063  aa   314631 414000
    000064  aa   060631 461740      41  	oct	060631461740,300611416000
    000065  aa   300611 416000
    000066  aa   000000 003006      42  	oct	000000003006,000030060000
    000067  aa   000030 060000
    000070  aa   000000 003006      43  	oct	000000003006,000030060200
    000071  aa   000030 060200
    000072  aa   006030 140603      44  	oct	006030140603,003003003003
    000073  aa   003003 003003
    000074  aa   000000 003740      45  	oct	000000003740,017600000000
    000075  aa   017600 000000
    000076  aa   600600 600600      46  	oct	600600600600,603014060300
    000077  aa   603014 060300
    000100  aa   170410 020103      47  	oct	170410020103,406014000060
    000101  aa   406014 000060
    000102  aa   375006 355132      48  	oct	375006355132,264547677000
    000103  aa   264547 677000
    000104  aa   170773 036077      49  	oct	170773036077,770360741400
    000105  aa   770360 741400
    000106  aa   771413 027714      50  	oct	771413027714,130360777000
    000107  aa   130360 777000
    000110  aa   375407 006014      51  	oct	375407006014,030060277000
    000111  aa   030060 277000
    000112  aa   771413 036074      52  	oct	771413036074,170360576000
    000113  aa   170360 576000
    000114  aa   777403 007754      53  	oct	777403007754,030060177400
    000115  aa   030060 177400
    000116  aa   777403 007754      54  	oct	777403007754,030060140000
    000117  aa   030060 140000
    000120  aa   375407 006014      55  	oct	375407006014,770360677000
    000121  aa   770360 677000
    000122  aa   607417 037774      56  	oct	607417037774,170360741400
    000123  aa   170360 741400
    000124  aa   170140 300601      57  	oct	170140300601,403006036000
    000125  aa   403006 036000
    000126  aa   006014 030060      58  	oct	006014030060,170360677000
    000127  aa   170360 677000
    000130  aa   615463 307015      59  	oct	615463307015,431461541400
    000131  aa   431461 541400
    000132  aa   601403 006014      60  	oct	601403006014,030060177400
    000133  aa   030060 177400
    000134  aa   607637 336674      61  	oct	607637336674,170360741400
    000135  aa   170360 741400
    000136  aa   607617 236674      62  	oct	607617236674,571761741400
    000137  aa   571761 741400
    000140  aa   375417 036074      63  	oct	375417036074,170360677000
    000141  aa   170360 677000
    000142  aa   771413 027714      64  	oct	771413027714,030060140000
    000143  aa   030060 140000
    000144  aa   375417 036074      65  	oct	375417036074,170362677002
    000145  aa   170362 677002
    000146  aa   771413 027714      66  	oct	771413027714,130360741400
    000147  aa   130360 741400
    000150  aa   375407 003740      67  	oct	375407003740,140340677000
    000151  aa   140340 677000
    000152  aa   776140 300601      68  	oct	776140300601,403006014000
    000153  aa   403006 014000
    000154  aa   607417 036074      69  	oct	607417036074,170360677000
    000155  aa   170360 677000
    000156  aa   607417 036074      70  	oct	607417036074,154617014000
    000157  aa   154617 014000
    000160  aa   607417 036675      71  	oct	607417036675,574760700400
    000161  aa   574760 700400
    000162  aa   606630 740603      72  	oct	606630740603,614660741400
    000163  aa   614660 741400
    000164  aa   403415 461701      73  	oct	403415461701,403006014000
    000165  aa   403006 014000
    000166  aa   776014 060301      74  	oct	776014060301,406030177400
    000167  aa   406030 177400
    000170  aa   036060 140300      75  	oct	036060140300,601403006017
    000171  aa   601403 006017
    000172  aa   601401 401401      76  	oct	601401401401,401401401403
    000173  aa   401401 401403
    000174  aa   740300 601403      77  	oct	740300601403,006014030360
    000175  aa   006014 030360
    000176  aa   020120 000000      78  	oct	020120000000,000000000000
    000177  aa   000000 000000
    000200  aa   000000 000000      79  	oct	000000000000,000000000377
    000201  aa   000000 000377
    000202  aa   060060 000000      80  	oct	060060000000,000000000000
    000203  aa   000000 000000
    000204  aa   000000 003740      81  	oct	000000003740,157760677400
    000205  aa   157760 677400
    000206  aa   601403 007754      82  	oct	601403007754,170360777000
    000207  aa   170360 777000
    000210  aa   000000 003774      83  	oct	000000003774,030060077400
    000211  aa   030060 077400
    000212  aa   006014 033774      84  	oct	006014033774,170360677400
    000213  aa   170360 677400
    000214  aa   000000 003754      85  	oct	000000003754,177660077000
    000215  aa   177660 077000
    000216  aa   000160 607703      86  	oct	000160607703,006014030000
    000217  aa   006014 030000
    000220  aa   000000 003754      87  	oct	000000003754,031760677000
    000221  aa   031760 677000
    000222  aa   601403 007754      88  	oct	601403007754,170360741400
    000223  aa   170360 741400
    000224  aa   000000 300003      89  	oct	000000300003,403006036000
    000225  aa   403006 036000
    000226  aa   000000 300001      90  	oct	000000300001,403006154370
    000227  aa   403006 154370
    000230  aa   001403 146617      91  	oct	001403146617,033063143000
    000231  aa   033063 143000
    000232  aa   000001 700601      92  	oct	000001700601,403006017000
    000233  aa   403006 017000
    000234  aa   000000 005555      93  	oct	000000005555,573366755400
    000235  aa   573366 755400
    000236  aa   000000 005754      94  	oct	000000005754,170360741400
    000237  aa   170360 741400
    000240  aa   000000 003754      95  	oct	000000003754,170360677000
    000241  aa   170360 677000
    000242  aa   000000 007754      96  	oct	000000007754,170377540300
    000243  aa   170377 540300
    000244  aa   000000 003754      97  	oct	000000003754,170337601407
    000245  aa   170337 601407
    000246  aa   000000 005616      98  	oct	000000005616,630060140000
    000247  aa   630060 140000
    000250  aa   000000 003754      99  	oct	000000003754,017600677000
    000251  aa   017600 677000
    000252  aa   000000 303741     100  	oct	000000303741,403006014000
    000253  aa   403006 014000
    000254  aa   000000 006074     101  	oct	000000006074,170360677400
    000255  aa   170360 677400
    000256  aa   000000 006074     102  	oct	000000006074,154617014000
    000257  aa   154617 014000
    000260  aa   000000 006075     103  	oct	000000006075,573371641000
    000261  aa   573371 641000
    000262  aa   000000 006063     104  	oct	000000006063,603017141400
    000263  aa   603017 141400
    000264  aa   000000 006066     105  	oct	000000006066,146607014170
    000265  aa   146607 014170
    000266  aa   000000 003740     106  	oct	000000003740,603014077000
    000267  aa   603014 077000
    000270  aa   006030 140141     107  	oct	006030140141,600603003003
    000271  aa   600603 003003
    000272  aa   040100 200400     108  	oct	040100200400,002004010020
    000273  aa   002004 010020
    000274  aa   600600 603003     109  	oct	600600603003,414014060300
    000275  aa   414014 060300
    000276  aa   170020 000000     110  	oct	170020000000,000000000000
    000277  aa   000000 000000
    000300  aa   000000 000000     111  	oct	000000000000,000000000000
    000301  aa   000000 000000
                                   112
    000302  aa   000000 000000     113  littles:	oct	000000000000
    000303  aa   000000 000000     114  	oct	000000000000
    000304  aa   102040 020000     115  	oct	102040020000
    000305  aa   240000 000000     116  	oct	240000000000
    000306  aa   257527 650000     117  	oct	257527650000
    000307  aa   372161 370000     118  	oct	372161370000
    000310  aa   635042 714000     119  	oct	635042714000
    000311  aa   212145 370000     120  	oct	212145370000
    000312  aa   021000 000000     121  	oct	021000000000
    000313  aa   144102 030000     122  	oct	144102030000
    000314  aa   301020 460000     123  	oct	301020460000
    000315  aa   112775 220000     124  	oct	112775220000
    000316  aa   002371 000000     125  	oct	002371000000
    000317  aa   000001 440000     126  	oct	000001440000
    000320  aa   000160 000000     127  	oct	000160000000
    000321  aa   000000 010000     128  	oct	000000010000
    000322  aa   021042 100000     129  	oct	021042100000
    000323  aa   105212 420000     130  	oct	105212420000
    000324  aa   106041 070000     131  	oct	106041070000
    000325  aa   311042 174000     132  	oct	311042174000
    000326  aa   740560 370000     133  	oct	740560370000
    000327  aa   430770 204000     134  	oct	430770204000
    000330  aa   770360 370000     135  	oct	770360370000
    000331  aa   164364 270000     136  	oct	164364270000
    000332  aa   761042 100000     137  	oct	761042100000
    000333  aa   311144 460000     138  	oct	311144460000
    000334  aa   311360 460000     139  	oct	311360460000
    000335  aa   000040 020000     140  	oct	000040020000
    000336  aa   003001 440000     141  	oct	003001440000
    000337  aa   104202 020000     142  	oct	104202020000
    000340  aa   017407 600000     143  	oct	017407600000
    000341  aa   101010 420000     144  	oct	101010420000
    000342  aa   350421 020000     145  	oct	350421020000
    000343  aa   772674 174000     146  	oct	772674174000
    000344  aa   105374 304000     147  	oct	105374304000
    000345  aa   750764 370000     148  	oct	750764370000
    000346  aa   370204 074000     149  	oct	370204074000
    000347  aa   750614 370000     150  	oct	750614370000
    000350  aa   770364 174000     151  	oct	770364174000
    000351  aa   770364 100000     152  	oct	770364100000
    000352  aa   370274 274000     153  	oct	370274274000
    000353  aa   430774 304000     154  	oct	430774304000
    000354  aa   342041 070000     155  	oct	342041070000
    000355  aa   020414 270000     156  	oct	020414270000
    000356  aa   431304 504000     157  	oct	431304504000
    000357  aa   410204 174000     158  	oct	410204174000
    000360  aa   435654 304000     159  	oct	435654304000
    000361  aa   434654 704000     160  	oct	434654704000
    000362  aa   350614 270000     161  	oct	350614270000
    000363  aa   750764 100000     162  	oct	750764100000
    000364  aa   350614 674000     163  	oct	350614674000
    000365  aa   750764 304000     164  	oct	750764304000
    000366  aa   370160 370000     165  	oct	370160370000
    000367  aa   762041 020000     166  	oct	762041020000
    000370  aa   430614 270000     167  	oct	430614270000
    000371  aa   430612 420000     168  	oct	430612420000
    000372  aa   430656 704000     169  	oct	430656704000
    000373  aa   425042 504000     170  	oct	425042504000
    000374  aa   425041 020000     171  	oct	425041020000
    000375  aa   761042 174000     172  	oct	761042174000
    000376  aa   344102 070000     173  	oct	344102070000
    000377  aa   404040 404000     174  	oct	404040404000
    000400  aa   341020 470000     175  	oct	341020470000
    000401  aa   042400 000000     176  	oct	042400000000
    000402  aa   000000 174000     177  	oct	000000174000
    000403  aa   040400 000000     178  	oct	040400000000
    000404  aa   105374 304000     179  	oct	105374304000
    000405  aa   750764 370000     180  	oct	750764370000
    000406  aa   370204 074000     181  	oct	370204074000
    000407  aa   750614 370000     182  	oct	750614370000
    000410  aa   770364 174000     183  	oct	770364174000
    000411  aa   770364 100000     184  	oct	770364100000
    000412  aa   370274 274000     185  	oct	370274274000
    000413  aa   430774 304000     186  	oct	430774304000
    000414  aa   342041 070000     187  	oct	342041070000
    000415  aa   020414 270000     188  	oct	020414270000
    000416  aa   431304 504000     189  	oct	431304504000
    000417  aa   410204 174000     190  	oct	410204174000
    000420  aa   435654 304000     191  	oct	435654304000
    000421  aa   434654 704000     192  	oct	434654704000
    000422  aa   350614 270000     193  	oct	350614270000
    000423  aa   750764 100000     194  	oct	750764100000
    000424  aa   350614 674000     195  	oct	350614674000
    000425  aa   750764 304000     196  	oct	750764304000
    000426  aa   370160 370000     197  	oct	370160370000
    000427  aa   762041 020000     198  	oct	762041020000
    000430  aa   430614 270000     199  	oct	430614270000
    000431  aa   430612 420000     200  	oct	430612420000
    000432  aa   430656 704000     201  	oct	430656704000
    000433  aa   425042 504000     202  	oct	425042504000
    000434  aa   425041 020000     203  	oct	425041020000
    000435  aa   761042 174000     204  	oct	761042174000
    000436  aa   144302 030000     205  	oct	144302030000
    000437  aa   102001 020000     206  	oct	102001020000
    000440  aa   301030 460000     207  	oct	301030460000
    000441  aa   341000 000000     208  	oct	341000000000
    000442  aa   000000 000000     209  	oct	000000000000
                                   210
                                   211  	end

NO LITERALS

NAME DEFINITIONS FOR ENTRY POINTS AND SEGDEFS

    000444  5a   000003 000000
    000445  5a   000031 600000
    000446  aa   000000 000000
    000447  55   000010 000002
    000450  5a   000002 400003
    000451  55   000006 000010
    000452  aa  007 154 145 164
    000453  aa  163 145 147 137
    000454  55   000015 000003
    000455  0a   000302 400000
    000456  55   000013 000003
    000457  aa  007 154 151 164         littles
    000460  aa  164 154 145 163
    000461  55   000022 000010
    000462  0a   000000 400000
    000463  55   000020 000003
    000464  aa  006 154 145 164         letseg
    000465  aa  163 145 147 000
    000466  55   000002 000015
    000467  6a   000000 400002
    000470  55   000025 000003
    000471  aa  014 163 171 155         symbol_table
    000472  aa  142 157 154 137
    000473  aa  164 141 142 154
    000474  aa  145 000 000 000

DEFINITIONS HASH TABLE

    000475  aa   000000 000015
    000476  aa   000000 000000
    000477  aa   000000 000000
    000500  5a   000015 000000
    000501  aa   000000 000000
    000502  5a   000010 000000
    000503  aa   000000 000000
    000504  5a   000022 000000
    000505  aa   000000 000000
    000506  aa   000000 000000
    000507  aa   000000 000000
    000510  aa   000000 000000
    000511  aa   000000 000000
    000512  aa   000000 000000

NO EXTERNAL NAMES

NO TRAP POINTER WORDS

TYPE PAIR BLOCKS

    000513  aa   000001 000000
    000514  aa   000000 000000

INTERNAL EXPRESSION WORDS

    000515  aa   000000 000000
LINKAGE INFORMATION

    000000  aa   000000 000000
    000001  0a   000444 000000
    000002  aa   000000 000000
    000003  aa   000000 000000
    000004  aa   000000 000000
    000005  aa   000000 000000
    000006  22   000010 000010
    000007  a2   000000 000000
SYMBOL INFORMATION

SYMBOL TABLE HEADER

    000000  aa   000000 000001
    000001  aa   163171 155142
    000002  aa   164162 145145
    000003  aa   000000 000004
    000004  aa   000000 111316
    000005  aa   510113 575622
    000006  aa   000000 111320
    000007  aa   102112 522010
    000010  aa   141154 155040
    000011  aa   040040 040040
    000012  aa   000024 000040
    000013  aa   000034 000040
    000014  aa   000044 000100
    000015  aa   000002 000002
    000016  aa   000064 000000
    000017  aa   000000 000136
    000020  aa   000000 000102
    000021  aa   000000 000125
    000022  aa   000130 000102
    000023  aa   000064 000000
    000024  aa   101114 115040
    000025  aa   126145 162163
    000026  aa   151157 156040
    000027  aa   040066 056064
    000030  aa   040040 101160
    000031  aa   162151 154040
    000032  aa   061071 070061
    000033  aa   040040 040040
    000034  aa   110157 154155
    000035  aa   163164 145144
    000036  aa   164056 123171
    000037  aa   163115 141151
    000040  aa   156164 056155
    000041  aa   040040 040040
    000042  aa   040040 040040
    000043  aa   040040 040040
    000044  aa   154151 163164
    000045  aa   040040 040040
    000046  aa   040040 040040
    000047  aa   040040 040040
    000050  aa   040040 040040
    000051  aa   040040 040040
    000052  aa   040040 040040
    000053  aa   040040 040040
    000054  aa   040040 040040
    000055  aa   040040 040040
    000056  aa   040040 040040
    000057  aa   040040 040040
    000060  aa   040040 040040
    000061  aa   040040 040040
    000062  aa   040040 040040
    000063  aa   040040 040040
    000064  aa   000000 000001
    000065  aa   000000 000001
    000066  aa   000072 000035
    000067  aa   113171 050743
    000070  aa   000000 111320
    000071  aa   005260 600000
    000072  aa   076144 165155          >dumps>old>recomp>letseg_.alm
    000073  aa   160163 076157
    000074  aa   154144 076162
    000075  aa   145143 157155
    000076  aa   160076 154145
    000077  aa   164163 145147
    000100  aa   137056 141154
    000101  aa   155040 040040
               MULTICS ASSEMBLY CROSS REFERENCE LISTING

   Value        Symbol                   Source file   Line number

           0    letseg                   letseg_:       12,   15.
         302    littles                  letseg_:       13,  113.


NO FATAL ERRORS


                                          -----------------------------------------------------------


Historical Background

This edition of the Multics software materials and documentation is provided and donated
to Massachusetts Institute of Technology by Group BULL including BULL HN Information Systems Inc.
as a contribution to computer science knowledge.
This donation is made also to give evidence of the common contributions of Massachusetts Institute of Technology,
Bell Laboratories, General Electric, Honeywell Information Systems Inc., Honeywell BULL Inc., Groupe BULL
and BULL HN Information Systems Inc. to the development of this operating system.
Multics development was initiated by Massachusetts Institute of Technology Project MAC (1963-1970),
renamed the MIT Laboratory for Computer Science and Artificial Intelligence in the mid 1970s, under the leadership
of Professor Fernando Jose Corbato. Users consider that Multics provided the best software architecture
for managing computer hardware properly and for executing programs. Many subsequent operating systems
incorporated Multics principles.
Multics was distributed in 1975 to 2000 by Group Bull in Europe , and in the U.S. by Bull HN Information Systems Inc.,
as successor in interest by change in name only to Honeywell Bull Inc. and Honeywell Information Systems Inc. .

                                          -----------------------------------------------------------

Permission to use, copy, modify, and distribute these programs and their documentation for any purpose and without
fee is hereby granted,provided that the below copyright notice and historical background appear in all copies
and that both the copyright notice and historical background and this permission notice appear in supporting
documentation, and that the names of MIT, HIS, BULL or BULL HN not be used in advertising or publicity pertaining
to distribution of the programs without specific prior written permission.
    Copyright 1972 by Massachusetts Institute of Technology and Honeywell Information Systems Inc.
    Copyright 2006 by BULL HN Information Systems Inc.
    Copyright 2006 by Bull SAS
    All Rights Reserved
