ASSEMBLY LISTING OF SEGMENT >special_ldd>install>MR12.0-1105>macro_table.alm
ASSEMBLED ON:	07/30/86  0926.0 mst Wed
OPTIONS USED:	list
ASSEMBLED BY:	ALM Version  6.6  November 1982
ASSEMBLER CREATED:	09/21/83  1227.3 mst Wed

                                     1  " ***********************************************************
                                     2  " *                                                         *
                                     3  " * Copyright, (C) Honeywell Information Systems Inc., 1986 *
                                     4  " *                                                         *
                                     5  " ***********************************************************
                                     6
                                     7  " HISTORY COMMENTS:
                                     8  "  1) change(86-07-15,Ginter), approve(86-07-15,MCR7287),
                                     9  "     audit(86-07-16,Mabey):
                                    10  "     Bug fixes for the MR12.0 release of the compiler
                                    11  "                                                      END HISTORY COMMENTS
                                    12
                                    13  " pl/1 macro definition segment
                                    14  "
                                    15  "	Modified: 15 Feb 1978 by PCK to implement options(main) and the stop statement
                                    16  "	Modified: 29 Mar 1978 by PCK to implement macro for storing sp
                                    17  "	Modified: 16 June 1978 by PCK to implement size checking for unsigned binary
                                    18  "	Modified: 25 Aug 1978 by RAB to help fix 1780
                                    19  "	Modified: 19 Dec 1978 by RAB to improve ref cnt in bound_ck op
                                    20  "	Modified: 24 Apr 1979 by PCK to implement 4-bit decimal
                                    21  "	Modified: 16 Jul 1979 by RAB to remove absfx1_atm
                                    22  "	Modified: 26 Jul 1979 by PCK to implement rank and byte builtins
                                    23  "	Modified 790801 by PG to remove dvfx2, dvfx3, j_3_way*, and validate_pic.
                                    24  "	Modified 790817 by RAB to improve code for a & ^ b where a and b are long strings.
                                    25  "	Modified 790821 by RAB so that (move test)_andnot_1 use a fill of 1 to take care of source
                                    26  "		being shorter than the target.
                                    27  "	Modified December '79 by BSG for index_rev_* ops, and removing some superfluous
                                    28  "		indications of sr erasing.
                                    29  "	Modified 18 June 1980 by M. N. Davidoff to indicate that ix_chars and ix_rev_chars erase sr.
                                    30  "		This turns out not to be superfluous.  (bug 1970)
                                    31  "	Modified 11 September 81 by EBush to add prepare_call_long and
                                    32  "		prepare_quick_call_long.
                                    33  "	Modified 26 July 82 BIM wordno and segno
                                    34  "	Modified 04 January 85 Keith Loepere to get ringno in baseptr right
                                    35  "	Modified 20 June 86 MM unpack_fl1 modifies A and Q regs
                                    36  "
    000000                          37  	name	macro_table
                        000030      38  	segdef	macro_table
                        002744      39  	segdef	macro_count
                        000000      40  	segdef	eax_array
                                    41  "
                        000551      42  	bool	op_vec,551	from assembly of pl1_operators
                        000543      43  	bool	mod2_tab,543
                        000545      44  	bool	mod4_tab,545
                        000242      45  	bool	tct_mask_,242
                        000460      46  	bool	ptr_mask_,460
                        000465      47  	bool	fx1_to_fl2_,465	..
                        000466      48  	bool	fx2_to_fl2_,466	..
                        000440      49  	bool	blanks_,440	..
                        000474      50  	bool	r_l_a_,474	..
                        000477      51  	bool	r_g_s_,477	..
                        000503      52  	bool	r_g_a_,503	..
                        000507      53  	bool	r_l_s_,507	..
                        000512      54  	bool	r_e_as_,512	..
                        000515      55  	bool	r_ne_as_,515	..
                        000520      56  	bool	r_le_a_,520	..
                        000524      57  	bool	r_ge_s_,524	..
                        000527      58  	bool	r_ge_a_,527	..
                        000532      59  	bool	r_le_s_,532	..
                        000540      60  	bool	set_stack_,540	..
                        000110      61  	bool	ones,110		..
                        000062      62  	equ	lg1,50
                                    63  "
                        000034      64  	equ	ops_ptr,28
                 777777 777616      65  	equ	csl_vector,-114
                 777777 776352      66  	equ	bitno_to_charno_,-790
                                    67  "
                        000052      68  	equ	ps_ptr,42
                                    69  "
                                    70  " The following bits are used to indicate which register are changed by a macro
                                    71  "
                        400000      72  	bool	a,400000
                        200000      73  	bool	q,200000
                        600000      74  	bool	aq,a+q
                        100000      75  	bool	sr,100000
                        040000      76  	bool	cr,040000
                        020000      77  	bool	dr,020000
                        010000      78  	bool	x0,010000
                        004000      79  	bool	x1,004000
                        002000      80  	bool	x2,002000
                        001000      81  	bool	x3,001000
                        000400      82  	bool	x4,000400
                        000200      83  	bool	x5,000200
                        000100      84  	bool	x6,000100
                        000040      85  	bool	x7,000040
                        000020      86  	bool	bp,000020
                        000010      87  	bool	lp,000010
                        017740      88  	bool	indices,x0+x1+x2+x3+x4+x5+x6+x7
                        000030      89  	bool	bases,bp+lp
                        777770      90  	bool	all,aq+indices+bases+cr+dr+sr
                                    91  "
                                    92  " The following bits indicate if a particular type of address modification
                                    93  " is not allowed on arg1 of a macro
                                    94  "
                        000004      95  	bool	no_al,000004
                        000002      96  	bool	no_ql,000002
                        000001      97  	bool	perm,000001
                                    98  "
                                    99  " The following bits are used for expanding EIS macros
                                   100  "
                        400000     101  	bool	cat,400000
                        200000     102  	bool	l_in_q,200000
                        100000     103  	bool	compare,100000
                        040000     104  	bool	xec_eis,40000
                                   105  "
    000000                         106  eax_array:
    000000  aa   000000 6200 06    107  	eax0	0,ql
    000001  aa   000000 6210 06    108  	eax1	0,ql
    000002  aa   000000 6220 06    109  	eax2	0,ql
    000003  aa   000000 6230 06    110  	eax3	0,ql
    000004  aa   000000 6240 06    111  	eax4	0,ql
    000005  aa   000000 6250 06    112  	eax5	0,ql
    000006  aa   000000 6260 06    113  	eax6	0,ql
    000007  aa   000000 6270 06    114  	eax7	0,ql
    000010  aa   000000 6200 05    115  	eax0	0,al
    000011  aa   000000 6210 05    116  	eax1	0,al
    000012  aa   000000 6220 05    117  	eax2	0,al
    000013  aa   000000 6230 05    118  	eax3	0,al
    000014  aa   000000 6240 05    119  	eax4	0,al
    000015  aa   000000 6250 05    120  	eax5	0,al
    000016  aa   000000 6260 05    121  	eax6	0,al
    000017  aa   000000 6270 05    122  	eax7	0,al
    000020  aa   000000 6200 01    123  	eax0	0,au
    000021  aa   000000 6210 01    124  	eax1	0,au
    000022  aa   000000 6220 01    125  	eax2	0,au
    000023  aa   000000 6230 01    126  	eax3	0,au
    000024  aa   000000 6240 01    127  	eax4	0,au
    000025  aa   000000 6250 01    128  	eax5	0,au
    000026  aa   000000 6260 01    129  	eax6	0,au
    000027  aa   000000 6270 01    130  	eax7	0,au
                                   131  "
                        010000     132  	equ	arg1,1*4096
                        020000     133  	equ	arg2,2*4096
                        030000     134  	equ	arg3,3*4096
                        040000     135  	equ	arg4,4*4096
                                   136  "
                                   137  " The following symbols are used to define the types of operands for EIS instructions
                                   138  "
                        000000     139  	bool	addr,000000
                        010000     140  	bool	dec,010000
                        020000     141  	bool	char,020000
                        030000     142  	bool	bit,030000
                        040000     143  	bool	char4,040000
                                   144  "
                                   145  " The following bits are used to define the bool values for csl and csr instructions
                                   146  "
                        000003     147  	bool	move,03
                        000001     148  	bool	and,01
                        000007     149  	bool	or,07
                        000006     150  	bool	xor,06
                        000014     151  	bool	not,14
                                   152  "
                        000040     153  	bool	blank,040
                        000053     154  	bool	plus,053
                                   155  "
    000030                         156  macro_table:
    000030  aa   000000 2350 00    157  	lda	0		lda		1
    000031  aa   400000 000000     158  	zero	a
    000032  0a   002745 000002     159  	zero	lda_ldq,2		lda_ldq		2
    000033  aa   600004 000000     160  	zero	aq+no_al
    000034  aa   000000 2370 00    161  	ldaq	0		ldaq		3
    000035  aa   600000 000000     162  	zero	aq
    000036  aa   000000 7550 00    163  	sta	0		sta		4
    000037  aa   000000 000000     164  	zero	0
    000040  0a   002747 000002     165  	zero	sta_stq,2		sta_stq		5
    000041  aa   000000 000000     166  	zero	0
    000042  aa   000000 7570 00    167  	staq	0		staq		6
    000043  aa   000000 000000     168  	zero	0
    000044  aa   000000 2360 00    169  	ldq	0		ldfx1		7
    000045  aa   200000 000000     170  	zero	q
    000046  aa   000000 2370 00    171  	ldaq	0		ldfx2		8
    000047  aa   600000 000000     172  	zero	aq
    000050  aa   000000 4310 00    173  	fld	0		ldfl1		9
    000051  aa   600000 000000     174  	zero	aq
    000052  aa   000000 4330 00    175  	dfld	0		ldfl2		10
    000053  aa   600000 000000     176  	zero	aq
    000054  aa   000000 3360 00    177  	lcq	0		lcfx1		11
    000055  aa   200000 000000     178  	zero	q
    000056  aa   000000 3370 00    179  	lcaq	0		lcfx2		12
    000057  aa   600000 000000     180  	zero	aq
    000060  0a   002751 000002     181  	zero	lcfl1,2		lcfl1		13
    000061  aa   600000 000000     182  	zero	aq
    000062  0a   002753 000002     183  	zero	lcfl2,2		lcfl2		14
    000063  aa   600000 000000     184  	zero	aq
    000064  aa   000000 7560 00    185  	stq	0		stfx1		15
    000065  aa   000000 000000     186  	zero	0
    000066  aa   000000 7570 00    187  	staq	0		stfx2		16
    000067  aa   000000 000000     188  	zero	0
    000070  aa   000000 4550 00    189  	fst	0		stfl1		17
    000071  aa   000000 000000     190  	zero	0
    000072  aa   000000 4570 00    191  	dfst	0		stfl2		18
    000073  aa   000000 000000     192  	zero	0
    000074  aa   000000 0760 00    193  	adq	0		adfx1		19
    000075  aa   200000 000000     194  	zero	q
    000076  aa   000000 0770 00    195  	adaq	0		adfx2		20
    000077  aa   600000 000000     196  	zero	aq
    000100  aa   000000 0330 00    197  	adl	0		adfx3		21
    000101  aa   600000 000000     198  	zero	aq
    000102  aa   000000 1760 00    199  	sbq	0		sbfx1		22
    000103  aa   200000 000000     200  	zero	q
    000104  aa   000000 1770 00    201  	sbaq	0		sbfx2		23
    000105  aa   600000 000000     202  	zero	aq
    000106  0a   002755 000002     203  	zero	sbfx3,2		sbfx3		24
    000107  aa   600000 000000     204  	zero	aq
    000110  aa   000000 4020 00    205  	mpy	0		mpfx1		25
    000111  aa   600000 000000     206  	zero	aq
    000112  aa   000000 5060 00    207  	div	0		dvfx1		26
    000113  aa   600000 000000     208  	zero	aq
    000114  aa   000000 4750 00    209  	fad	0		adfl1		27
    000115  aa   600000 000000     210  	zero	aq
    000116  aa   000000 4770 00    211  	dfad	0		adfl2		28
    000117  aa   600000 000000     212  	zero	aq
    000120  aa   000000 5750 00    213  	fsb	0		sbfl1		29
    000121  aa   600000 000000     214  	zero	aq
    000122  aa   000000 5770 00    215  	dfsb	0		sbfl2		30
    000123  aa   600000 000000     216  	zero	aq
    000124  aa   000000 4610 00    217  	fmp	0		mpfl1		31
    000125  aa   600000 000000     218  	zero	aq
    000126  aa   000000 4630 00    219  	dfmp	0		mpfl2		32
    000127  aa   600000 000000     220  	zero	aq
    000130  aa   000000 5650 00    221  	fdv	0		dvfl1		33
    000131  aa   600000 000000     222  	zero	aq
    000132  aa   000000 5670 00    223  	dfdv	0		dvfl2		34
    000133  aa   600000 000000     224  	zero	aq
    000134  aa   000000 5250 00    225  	fdi	0		difl1		35
    000135  aa   600000 000000     226  	zero	aq
    000136  aa   000000 5270 00    227  	dfdi	0		difl2		36
    000137  aa   600000 000000     228  	zero	aq
    000140  0a   002757 000001     229  	zero	neg,1		neg		37
    000141  aa   400000 000000     230  	zero	a
    000142  0a   002756 000001     231  	zero	negl,1		negl		38
    000143  aa   600000 000000     232  	zero	aq
    000144  0a   002752 000001     233  	zero	fneg,1		fneg		39
    000145  aa   600000 000000     234  	zero	aq
    000146  aa   000000 3750 00    235  	ana	0		ana		40
    000147  aa   400000 000000     236  	zero	a
    000150  0a   002760 000002     237  	zero	ana_anq,2		ana_anq		41
    000151  aa   600000 000000     238  	zero	aq
    000152  aa   000000 3770 00    239  	anaq	0		anaq		42
    000153  aa   600000 000000     240  	zero	aq
    000154  aa   000000 3550 00    241  	ansa	0		ansa		43
    000155  aa   000000 000000     242  	zero	0
    000156  0a   002762 000002     243  	zero	ansa_ansq,2	ansa_ansq		44
    000157  aa   000000 000000     244  	zero	0
    000160  0a   002762 000002     245  	zero	ansa_ansq,2	ansaq		45
    000161  aa   000000 000000     246  	zero	0
    000162  aa   000000 2750 00    247  	ora	0		ora		46
    000163  aa   400000 000000     248  	zero	a
    000164  0a   002764 000002     249  	zero	ora_orq,2		ora_orq		47
    000165  aa   600000 000000     250  	zero	aq
    000166  aa   000000 2770 00    251  	oraq	0		oraq		48
    000167  aa   600000 000000     252  	zero	aq
    000170  aa   000000 2550 00    253  	orsa	0		orsa		49
    000171  aa   000000 000000     254  	zero	0
    000172  0a   002766 000002     255  	zero	orsa_orsq,2	orsa_orsq		50
    000173  aa   000000 000000     256  	zero	0
    000174  0a   002766 000002     257  	zero	orsa_orsq,2	orsaq		51
    000175  aa   000000 000000     258  	zero	0
    000176  aa   000000 6750 00    259  	era	0		era		52
    000177  aa   400000 000000     260  	zero	a
    000200  0a   002770 000002     261  	zero	era_erq,2		era_erq		53
    000201  aa   600000 000000     262  	zero	aq
    000202  aa   000000 6770 00    263  	eraq	0		eraq		54
    000203  aa   600000 000000     264  	zero	aq
    000204  aa   000000 6550 00    265  	ersa	0		ersa		55
    000205  aa   000000 000000     266  	zero	0
    000206  0a   002772 000002     267  	zero	ersa_ersq,2	ersa_ersq		56
    000207  aa   000000 000000     268  	zero	0
    000210  0a   002772 000002     269  	zero	ersa_ersq,2	ersaq		57
    000211  aa   000000 000000     270  	zero	0
    000212  0a   002774 000001     271  	zero	clear_aq,1	clear_aq		58
    000213  aa   600000 000000     272  	zero	aq
    000214  0a   002775 000001     273  	zero	clear_q,1		clear_q		59
    000215  aa   200000 000000     274  	zero	q
    000216  aa   000000 3520 00    275  	eppbp	0		load_pt		60
    000217  aa   000000 000000     276  	zero	0
    000220  aa   000000 2520 00    277  	spribp	0		store_pt		61
    000221  aa   000000 000000     278  	zero	0
    000222  aa   000000 7730 00    279  	lrl	0		lrl		62
    000223  aa   200000 000000     280  	zero	q
    000224  aa   000000 7370 00    281  	lls	0		lls		63
    000225  aa   200000 000000     282  	zero	q
    000226  aa   000000 7200 00    283  	lxl0	0		lxl0		64
    000227  aa   000000 000000     284  	zero	0
    000230  aa   000000 7210 00    285  	lxl1	0		lxl1		65
    000231  aa   000000 000000     286  	zero	0
    000232  aa   000000 7220 00    287  	lxl2	0		lxl2		66
    000233  aa   000000 000000     288  	zero	0
    000234  aa   000000 7230 00    289  	lxl3	0		lxl3		67
    000235  aa   000000 000000     290  	zero	0
    000236  aa   000000 7240 00    291  	lxl4	0		lxl4		68
    000237  aa   000000 000000     292  	zero	0
    000240  aa   000000 7250 00    293  	lxl5	0		lxl5		69
    000241  aa   000000 000000     294  	zero	0
    000242  aa   000000 7260 00    295  	lxl6	0		lxl6		70
    000243  aa   000000 000000     296  	zero	0
    000244  aa   000000 7270 00    297  	lxl7	0		lxl7		71
    000245  aa   000000 000000     298  	zero	0
    000246  aa   000000 2200 00    299  	ldx0	0		ldx0		72
    000247  aa   000000 000000     300  	zero	0
    000250  aa   000000 2210 00    301  	ldx1	0		ldx1		73
    000251  aa   000000 000000     302  	zero	0
    000252  aa   000000 2220 00    303  	ldx2	0		ldx2		74
    000253  aa   000000 000000     304  	zero	0
    000254  aa   000000 2230 00    305  	ldx3	0		ldx3		75
    000255  aa   000000 000000     306  	zero	0
    000256  aa   000000 2240 00    307  	ldx4	0		ldx4		76
    000257  aa   000000 000000     308  	zero	0
    000260  aa   000000 2250 00    309  	ldx5	0		ldx5		77
    000261  aa   000000 000000     310  	zero	0
    000262  aa   000000 2260 00    311  	ldx6	0		ldx6		78
    000263  aa   000000 000000     312  	zero	0
    000264  aa   000000 2270 00    313  	ldx7	0		ldx7		79
    000265  aa   000000 000000     314  	zero	0
    000266  aa   000000 0600 00    315  	adx0	0		adx0		80
    000267  aa   000000 000000     316  	zero	0
    000270  aa   000000 0610 00    317  	adx1	0		adx1		81
    000271  aa   000000 000000     318  	zero	0
    000272  aa   000000 0620 00    319  	adx2	0		adx2		82
    000273  aa   000000 000000     320  	zero	0
    000274  aa   000000 0630 00    321  	adx3	0		adx3		83
    000275  aa   000000 000000     322  	zero	0
    000276  aa   000000 0640 00    323  	adx4	0		adx4		84
    000277  aa   000000 000000     324  	zero	0
    000300  aa   000000 0650 00    325  	adx5	0		adx5		85
    000301  aa   000000 000000     326  	zero	0
    000302  aa   000000 0660 00    327  	adx6	0		adx6		86
    000303  aa   000000 000000     328  	zero	0
    000304  aa   000000 0670 00    329  	adx7	0		adx7		87
    000305  aa   000000 000000     330  	zero	0
    000306  0a   002776 000002     331  	zero	fx1_to_fx2,2	fx1_to_fx2	88
    000307  aa   600000 000000     332  	zero	aq
    000310  0a   003000 000001     333  	zero	alloc_char_temp,1	alloc_char_temp	89
    000311  aa   500020 000000     334  	zero	a+bp+sr
    000312  0a   003001 000001     335  	zero	alloc_bit_temp,1	alloc_bit_temp	90
    000313  aa   500020 000000     336  	zero	a+bp+sr
    000314  0a   003002 000001     337  	zero	alloc_temp,1	alloc_temp	91
    000315  aa   600020 000000     338  	zero	aq+bp
    000316  0a   003003 000001     339  	zero	realloc_char_temp,1 realloc_char_temp	92
    000317  aa   700020 000000     340  	zero	aq+bp+sr
    000320  0a   003004 000001     341  	zero	realloc_bit_temp,1	realloc_bit_temp	93
    000321  aa   700020 000000     342  	zero	aq+bp+sr
    000322  0a   004711 000001     343  	zero	sqrt_mac,1	sqrt_mac		94
    000323  aa   000000 000000     344  	zero	0
    000324  0a   004732 000001     345  	zero	dsqrt_mac,1	dsqrt_mac		95
    000325  aa   000000 000000     346  	zero	0
    000326  0a   003054 000003     347  	zero	test_bits,3	test_bits		96
    000327  aa   000000 100000     348  	zero	0,compare
    000330  0a   003426 000001     349  	zero	leave_begin_block,1 leave_begin_block	97
    000331  aa   777770 000000     350  	zero	all
    000332  0a   003010 000003     351  	zero	move_chars,3	move_chars	98
    000333  aa   000000 000000     352  	zero	0
    000334  0a   003013 000003     353  	zero	move_bits,3	move_bits		99
    000335  aa   000000 000000     354  	zero	0
    000336  0a   003016 000003     355  	zero	move_cs_load_1,3	move_cs_load_1	100
    000337  aa   000000 000000     356  	zero	0
    000340  0a   003021 000003     357  	zero	move_bs_load_1,3	move_bs_load_1	101
    000341  aa   000000 000000     358  	zero	0
    000342  0a   003024 000003     359  	zero	move_cs_load_2,3	move_cs_load_2	102
    000343  aa   000000 000000     360  	zero	0
    000344  0a   003027 000003     361  	zero	move_bs_load_2,3	move_bs_load_2	103
    000345  aa   000000 000000     362  	zero	0
    000346  0a   003311 000001     363  	zero	translate_2,1	translate_2	104
    000347  aa   740020 000000     364  	zero	sr+cr+bp+aq
    000350  0a   003312 000001     365  	zero	translate_3,1	translate_3	105
    000351  aa   740020 000000     366  	zero	sr+cr+bp+aq
    000352  0a   004321 000003     367  	zero	shift_and_mask_1,3	shift_and_mask_1	106
    000353  aa   400000 000000     368  	zero	a
    000354  0a   004324 000003     369  	zero	shift_and_mask_2,3	shift_and_mask_2	107
    000355  aa   600000 000000     370  	zero	aq
    000356  0a   003262 000002     371  	zero	b2c_mac,2		b2c_mac		108
    000357  aa   600000 000000     372  	zero	aq
    000360  0a   003264 000002     373  	zero	b2w_mac,2		b2w_mac		109
    000361  aa   600000 000000     374  	zero	aq
    000362  0a   003266 000001     375  	zero	c2b_mac,1		c2b_mac		110
    000363  aa   600000 000000     376  	zero	aq
    000364  0a   003313 000000     377  	zero	inline_translate	inline_translate	111
    000365  aa   000000 000000     378  	zero	0
    000366  0a   003267 000002     379  	zero	c2w_mac,2		c2w_mac		112
    000367  aa   600000 000000     380  	zero	aq
    000370  0a   003273 000002     381  	zero	pf_mac,2		pf_mac		113
    000371  aa   600000 000000     382  	zero	aq
    000372  0a   003275 000002     383  	zero	so_mac,2		so_mac		114
    000373  aa   600020 000000     384  	zero	aq+bp
    000374  0a   003300 000001     385  	zero	mod_bit_mac,1	mod_bit_mac	115
    000375  aa   600000 000000     386  	zero	aq
    000376  0a   003301 000002     387  	zero	mod2_mac,2	mod2_mac		116
    000377  aa   200000 000000     388  	zero	q
    000400  0a   003303 000002     389  	zero	mod4_mac,2	mod4_mac		117
    000401  aa   200000 000000     390  	zero	q
    000402  0a   003305 000002     391  	zero	mod8_mac,2	mod8_mac		118
    000403  aa   200000 000000     392  	zero	q
    000404  0a   003307 000002     393  	zero	mod16_mac,2	mod16_mac		119
    000405  aa   200000 000000     394  	zero	q
    000406  0a   003317 000001     395  	zero	ext_and_1,1	ext_and_1		120
    000407  aa   600020 000000     396  	zero	aq+bp
    000410  0a   003320 000001     397  	zero	ext_and_2,1	ext_and_2		121
    000411  aa   600020 000000     398  	zero	aq+bp
    000412  0a   003321 000001     399  	zero	fx1_to_fl2,1	fx1_to_fl2	122
    000413  aa   600000 000000     400  	zero	aq
    000414  0a   003324 000002     401  	zero	fx2_to_fl2,2	fx2_to_fl2	123
    000415  aa   600000 000000     402  	zero	aq
    000416  0a   003323 000001     403  	zero	fl2_to_fx1,1	fl2_to_fx1	124
    000417  aa   600000 000000     404  	zero	aq
    000420  0a   003326 000001     405  	zero	fl2_to_fx2,1	fl2_to_fx2	125
    000421  aa   600000 000000     406  	zero	aq
    000422  0a   003527 000003     407  	zero	absfx1,3		absfx1		126
    000423  aa   200000 000000     408  	zero	q
    000424  0a   003532 000002     409  	zero	absfx2,2		absfx2		127
    000425  aa   600000 000000     410  	zero	aq
    000426  0a   003534 000002     411  	zero	absfl1,2		absfl1		128
    000427  aa   600000 000000     412  	zero	aq
    000430  0a   003534 000002     413  	zero	absfl2,2		absfl2		129
    000431  aa   600000 000000     414  	zero	aq
    000432  aa   000000 000000     415  	zero	0		fx2_to_fx1	130
    000433  aa   000000 000000     416  	zero	0
    000434  0a   003277 000001     417  	zero	longbs_to_bs18,1	longbs_to_bs18	131
    000435  aa   600020 000000     418  	zero	aq+bp
    000436  0a   003327 000001     419  	zero	longbs_to_fx2,1	longbs_to_fx2	132
    000437  aa   600020 000000     420  	zero	aq+bp
    000440  0a   003330 000003     421  	zero	longbs_to_fl2,3	longbs_to_fl2	133
    000441  aa   600020 000000     422  	zero	aq+bp
    000442  aa   000000 7350 00    423  	als	0		als		134
    000443  aa   000000 000000     424  	zero	0
    000444  0a   003333 000001     425  	zero	blank_q,1		blank_q		135
    000445  aa   600000 000000     426  	zero	aq
    000446  aa   000000 1160 00    427  	cmpq	0		cpfx1		136
    000447  aa   000000 000000     428  	zero	0
    000450  aa   000000 1170 00    429  	cmpaq	0		cpfx2		137
    000451  aa   000000 000000     430  	zero	0
    000452  aa   000000 5150 00    431  	fcmp	0		cpfl1		138
    000453  aa   000000 000000     432  	zero	0
    000454  aa   000000 5170 00    433  	dfcmp	0		cpfl2		139
    000455  aa   000000 000000     434  	zero	0
    000456  aa   000000 1150 00    435  	cmpa	0		cpcs1		140
    000457  aa   000000 000000     436  	zero	0
    000460  0a   003334 000003     437  	zero	cpcs1_odd,3	cpcs1+1		141
    000461  aa   000000 000000     438  	zero	0
    000462  aa   000000 1170 00    439  	cmpaq	0		cpcs1+2		142
    000463  aa   000000 000000     440  	zero	0
    000464  aa   000000 1150 00    441  	cmpa	0		cpcs1+3		143
    000465  aa   000000 000000     442  	zero	0
    000466  0a   003334 000003     443  	zero	cpcs1_odd,3	cpcs1+4		144
    000467  aa   000000 000000     444  	zero	0
    000470  aa   000000 1170 00    445  	cmpaq	0		cpcs1+5		145
    000471  aa   000000 000000     446  	zero	0
    000472  0a   003337 000001     447  	zero	cpcs_ext1,1	cpcs1+6		146
    000473  aa   600020 000000     448  	zero	aq+bp
    000474  0a   003340 000001     449  	zero	cpcs_ext2,1	cpcs1+7		147
    000475  aa   600020 000000     450  	zero	aq+bp
    000476  0a   003257 000001     451  	zero	comp_bits,1	comp_bits		148
    000477  aa   600020 000000     452  	zero	aq+bp
    000500  aa   000000 1150 00    453  	cmpa	0		cpbs1		149
    000501  aa   000000 000000     454  	zero	0
    000502  0a   003341 000003     455  	zero	cpbs1_odd,3	cpbs1+1		150
    000503  aa   000000 000000     456  	zero	0
    000504  0a   003344 000002     457  	zero	cpbs1_even,2	cpbs1+2		151
    000505  aa   000000 000000     458  	zero	0
    000506  0a   003346 000003     459  	zero	cpbs2,3		cpbs1+3		152
    000507  aa   000000 000000     460  	zero	0
    000510  0a   003334 000003     461  	zero	cpbs2_odd,3	cpbs1+4		153
    000511  aa   000000 000000     462  	zero	0
    000512  aa   000000 1170 00    463  	cmpaq	0		cpbs1+5		154
    000513  aa   000000 000000     464  	zero	0
    000514  0a   003351 000001     465  	zero	cpbs_ext1,1	cpbs1+6		155
    000515  aa   600020 000000     466  	zero	aq+bp
    000516  0a   003352 000001     467  	zero	cpbs_ext2,1	cpbs1+7		156
    000517  aa   600020 000000     468  	zero	aq+bp
    000520  0a   004667 000011     469  	zero	test_translate,9	test_translate	157
    000521  aa   200000 100000     470  	zero	q,compare
    000522  0a   004700 000011     471  	zero	test_trans_rev,9	test_trans_rev	158
    000523  aa   200000 100000     472  	zero	q,compare
    000524  0a   003364 000001     473  	zero	r_l_a,1		r_l_a		159
    000525  aa   400000 000000     474  	zero	a
    000526  0a   003365 000001     475  	zero	r_l_s,1		r_l_s		160
    000527  aa   400000 000000     476  	zero	a
    000530  0a   003366 000001     477  	zero	r_g_a,1		r_g_a		161
    000531  aa   400000 000000     478  	zero	a
    000532  0a   003367 000001     479  	zero	r_g_s,1		r_g_s		162
    000533  aa   400000 000000     480  	zero	a
    000534  0a   003370 000001     481  	zero	r_e_as,1		r_e_as		163
    000535  aa   400000 000000     482  	zero	a
    000536  0a   003371 000001     483  	zero	r_ne_as,1		r_ne_as		164
    000537  aa   400000 000000     484  	zero	a
    000540  0a   003372 000001     485  	zero	r_le_a,1		r_le_a		165
    000541  aa   400000 000000     486  	zero	a
    000542  0a   003373 000001     487  	zero	r_le_s,1		r_le_s		166
    000543  aa   400000 000000     488  	zero	a
    000544  0a   003374 000001     489  	zero	r_ge_a,1		r_ge_a		167
    000545  aa   400000 000000     490  	zero	a
    000546  0a   003375 000001     491  	zero	r_ge_s,1		r_ge_s		168
    000547  aa   400000 000000     492  	zero	a
    000550  aa   000000 7100 00    493  	tra	0		tra		169
    000551  aa   000000 000000     494  	zero	0
    000552  0a   003376 000001     495  	zero	tra_ext_1,1	tra_ext_1		170
    000553  aa   000000 000000     496  	zero	0
    000554  0a   003377 000001     497  	zero	tra_ext_2,1	tra_ext_2		171
    000555  aa   000000 000000     498  	zero	0
    000556  0a   003400 000002     499  	zero	load_pt_reg,2	load_pt_reg	172
    000557  aa   000000 000000     500  	zero	0
    000560  0a   003402 000003     501  	zero	make_lv,3		make_lv		173
    000561  aa   640020 000000     502  	zero	bp+cr+aq
    000562  0a   003405 000002     503  	zero	store_lv,2	store_lv		174
    000563  aa   600020 000000     504  	zero	aq+bp
    000564  0a   003407 000002     505  	zero	set_stack,2	set_stack		175
    000565  aa   600020 000000     506  	zero	aq+bp
    000566  aa   000000 6040 00    507  	tmi	0		j_l_a		176
    000567  aa   000000 000000     508  	zero	0
    000570  aa   000000 6020 00    509  	tnc	0		j_l_s		177
    000571  aa   000000 000000     510  	zero	0
    000572  aa   000000 6054 00    511  	tpnz	0		j_g_a		178
    000573  aa   000000 000000     512  	zero	0
    000574  0a   003411 000002     513  	zero	j_g_s,2		j_g_s		179
    000575  aa   000000 000000     514  	zero	0
    000576  aa   000000 6000 00    515  	tze	0		j_e_as		180
    000577  aa   000000 000000     516  	zero	0
    000600  aa   000000 6010 00    517  	tnz	0		j_ne_as		181
    000601  aa   000000 000000     518  	zero	0
    000602  aa   000000 6044 00    519  	tmoz	0		j_le_a		182
    000603  aa   000000 000000     520  	zero	0
    000604  0a   003413 000002     521  	zero	j_le_s,2		j_le_s		183
    000605  aa   000000 000000     522  	zero	0
    000606  aa   000000 6050 00    523  	tpl	0		j_ge_a		184
    000607  aa   000000 000000     524  	zero	0
    000610  aa   000000 6030 00    525  	trc	0		j_ge_s		185
    000611  aa   000000 000000     526  	zero	0
    000612  0a   003356 000003     527  	zero	cp_chars,3	cp_chars		186
    000613  aa   000000 100000     528  	zero	0,compare
    000614  0a   003361 000003     529  	zero	cp_bits,3		cp_bits		187
    000615  aa   000000 100000     530  	zero	0,compare
    000616  0a   004350 000001     531  	zero	ftn_read,1	ftn_read		188
    000617  aa   777770 000000     532  	zero	all
    000620  0a   004351 000001     533  	zero	ftn_write,1	ftn_write		189
    000621  aa   777770 000000     534  	zero	all
    000622  0a   004352 000001     535  	zero	ftn_manip,1	ftn_manip		190
    000623  aa   777770 000000     536  	zero	all
    000624  0a   004353 000002     537  	zero	ftn_scalar_xmit,2	ftn_scalar_xmit	191
    000625  aa   000130 000000     538  	zero	x6+bases
    000626  0a   004355 000002     539  	zero	ftn_array_xmit,2	ftn_array_xmit	192
    000627  aa   000130 000000     540  	zero	x6+bases
    000630  0a   004357 000001     541  	zero	ftn_term,1	ftn_term		193
    000631  aa   777770 000000     542  	zero	all
    000632  0a   003415 000001     543  	zero	reset_stack,1	reset_stack	194
    000633  aa   010000 000000     544  	zero	x0
    000634  0a   003416 000004     545  	zero	get_ops_mac,4	get_ops_mac	195
    000635  aa   000000 000000     546  	zero	0
    000636  0a   003430 000003     547  	zero	entry_macro,3	entry_macro	196
    000637  aa   777770 000000     548  	zero	all
    000640  0a   003424 000002     549  	zero	enter_begin_block,2 enter_begin_block	197
    000641  aa   000000 000000     550  	zero	0
    000642  0a   003427 000001     551  	zero	return_mac,1	return_mac	198
    000643  aa   000000 000000     552  	zero	0
    000644  0a   004660 000007     553  	zero	inline_search,7	inline_search	199
    000645  aa   200000 100000     554  	zero	q,compare
    000646  0a   003006 000001     555  	zero	cat_realloc_char,1	cat_realloc_char	200
    000647  aa   600020 000000     556  	zero	aq+bp
    000650  0a   003007 000001     557  	zero	cat_realloc_bit,1	cat_realloc_bit	201
    000651  aa   600020 000000     558  	zero	aq+bp
    000652  0a   003433 000001     559  	zero	enter_prologue,1	enter_prologue	202
    000653  aa   000000 000000     560  	zero	0
    000654  0a   003434 000002     561  	zero	leave_prologue,2	leave_prologue	203
    000655  aa   010000 000000     562  	zero	x0
    000656  0a   003436 000001     563  	zero	call_prologue,1	call_prologue	204
    000657  aa   777770 000000     564  	zero	all
    000660  0a   003536 000002     565  	zero	load_offsets,2	load_offsets	205
    000661  aa   200000 000000     566  	zero	q
    000662  0a   003540 000002     567  	zero	store_offsets,2	store_offsets	206
    000663  aa   200000 000000     568  	zero	q
    000664  0a   004651 000007     569  	zero	inline_verify,7	inline_verify	207
    000665  aa   200000 100000     570  	zero	q,compare
    000666  0a   003542 000001     571  	zero	stac_mac,1	stac_mac		208
    000667  aa   600020 000000     572  	zero	aq+bp
    000670  0a   003543 000001     573  	zero	sign_mac,1	sign_mac		209
    000671  aa   600000 000000     574  	zero	aq
    000672  0a   003453 000001     575  	zero	qls_9,1		qls_9		210
    000673  aa   000000 000000     576  	zero	0
    000674  0a   003454 000001     577  	zero	set_bit_addr,1	set_bit_addr	211
    000675  aa   000000 000000     578  	zero	0
    000676  0a   003455 000001     579  	zero	pointer_mac_bs,1	pointer_mac_bs	212
    000677  aa   000020 000000     580  	zero	bp
    000700  0a   003456 000001     581  	zero	pointer_mac_fx,1	pointer_mac_fx	213
    000701  aa   000020 000000     582  	zero	bp
    000702  0a   003457 000001     583  	zero	addrel_mac_bs,1	addrel_mac_bs	214
    000703  aa   000020 000000     584  	zero	bp
    000704  0a   003460 000001     585  	zero	addrel_mac_fx,1	addrel_mac_fx	215
    000705  aa   000020 000000     586  	zero	bp
    000706  0a   003461 000002     587  	zero	baseptr_mac_bs,2	baseptr_mac_bs	216
    000707  aa   000020 000000     588  	zero	bp
    000710  0a   003463 000002     589  	zero	baseptr_mac_fx,2	baseptr_mac_fx	217
    000711  aa   000020 000000     590  	zero	bp
    000712  0a   003010 000003     591  	zero	cat_move_chars,3	cat_move_chars	218
    000713  aa   000000 400000     592  	zero	0,cat
    000714  0a   003013 000003     593  	zero	cat_move_bits,3	cat_move_bits	219
    000715  aa   000000 400000     594  	zero	0,cat
    000716  0a   004467 000002     595  	zero	cmp_suffix_1,2	cmp_suffix_1	220
    000717  aa   000000 000000     596  	zero	0
    000720  0a   003173 000004     597  	zero	move_numeric_edit,4 move_numeric_edit	221
    000721  aa   000000 000000     598  	zero	0
    000722  0a   003203 000003     599  	zero	dtb_1,3		dtb_1		222
    000723  aa   000000 000000     600  	zero	0
    000724  0a   003206 000003     601  	zero	dtb_2,3		dtb_2		223
    000725  aa   000000 000000     602  	zero	0
    000726  0a   003211 000003     603  	zero	btd_1,3		btd_1		224
    000727  aa   000000 000000     604  	zero	0
    000730  0a   003214 000003     605  	zero	btd_2,3		btd_2		225
    000731  aa   000000 000000     606  	zero	0
    000732  0a   003353 000003     607  	zero	cpbs3,3		cpbs3		226
    000733  aa   000000 100000     608  	zero	0,compare
    000734  0a   004712 000001     609  	zero	sin_mac,1		sin_mac		227
    000735  aa   000000 000000     610  	zero	0
    000736  0a   004733 000001     611  	zero	dsin_mac,1	dsin_mac		228
    000737  aa   000000 000000     612  	zero	0
    000740  0a   003032 000003     613  	zero	save_string_aq,3	save_string_aq	229
    000741  aa   000000 000000     614  	zero	0
    000742  0a   003440 000001     615  	zero	call_ent_var,1	call_ent_var	230
    000743  aa   000000 000000     616  	zero	0
    000744  0a   003437 000001     617  	zero	call_ent_var_d,1	call_ent_var_desc	231
    000745  aa   000000 000000     618  	zero	0
    000746  0a   003442 000001     619  	zero	call_ext_in,1	call_ext_in	232
    000747  aa   000000 000000     620  	zero	0
    000750  0a   003441 000001     621  	zero	call_ext_in_d,1	call_ext_in_desc	233
    000751  aa   000000 000000     622  	zero	0
    000752  0a   003444 000001     623  	zero	call_ext_out,1	call_ext_out	234
    000753  aa   000000 000000     624  	zero	0
    000754  0a   003443 000001     625  	zero	call_ext_out_d,1	call_ext_out_desc	235
    000755  aa   000000 000000     626  	zero	0
    000756  0a   003446 000001     627  	zero	call_int_this,1	call_int_this	236
    000757  aa   000000 000000     628  	zero	0
    000760  0a   003445 000001     629  	zero	call_int_this_d,1	call_int_this_desc	237
    000761  aa   000000 000000     630  	zero	0
    000762  0a   003450 000001     631  	zero	call_int_other,1	call_int_other	238
    000763  aa   000000 000000     632  	zero	0
    000764  0a   003447 000001     633  	zero	call_int_other_d,1	call_int_other_desc 239
    000765  aa   000000 000000     634  	zero	0
    000766  0a   003545 000002     635  	zero	segno_mac,2	segno_mac		240
    000767  aa   200000 000000     636  	zero	q
    000770  0a   003544 000001     637  	zero	baseno_mac,1	baseno_mac	241
    000771  aa   400000 000000     638  	zero	a
    000772  0a   004162 000002     639  	zero	off_mac_easy,2	off_mac_easy	242
    000773  aa   600000 000000     640  	zero	aq
    000774  0a   004164 000002     641  	zero	off_mac_easy_pk,2	off_mac_easy_pk	243
    000775  aa   600000 000000     642  	zero	aq
    000776  0a   003613 000002     643  	zero	args_by_2_mac,2	args_by_2_mac	244
    000777  aa   200000 000000     644  	zero	q
    001000  aa   000000 7710 00    645  	arl	0		arl		245
    001001  aa   000000 000000     646  	zero	0
    001002  0a   003563 000000     647  	zero	bound_ck_mac	bound_ck_mac	246
    001003  aa   600000 000000     648  	zero	aq
    001004  0a   003615 000003     649  	zero	min_fx1,3		min_fx1		247
    001005  aa   200000 000000     650  	zero	q
    001006  0a   003620 000003     651  	zero	min_fx2,3		min_fx2		248
    001007  aa   600000 000000     652  	zero	aq
    001010  0a   003623 000003     653  	zero	min_fl1,3		min_fl1		249
    001011  aa   600000 000000     654  	zero	aq
    001012  0a   003626 000003     655  	zero	min_fl2,3		min_fl2		250
    001013  aa   600000 000000     656  	zero	aq
    001014  0a   003631 000003     657  	zero	max_fx1,3		max_fx1		251
    001015  aa   200000 000000     658  	zero	q
    001016  0a   003634 000003     659  	zero	max_fx2,3		max_fx2		252
    001017  aa   600000 000000     660  	zero	aq
    001020  0a   003637 000003     661  	zero	max_fl1,3		max_fl1		253
    001021  aa   600000 000000     662  	zero	aq
    001022  0a   003642 000003     663  	zero	max_fl2,3		max_fl2		254
    001023  aa   600000 000000     664  	zero	aq
    001024  0a   003645 000002     665  	zero	neg_q,2		neg_q		255
    001025  aa   200000 000000     666  	zero	q
    001026  0a   004017 000001     667  	zero	ix_rev_chars,1	ix_rev_chars	256
    001027  aa   700000 000000     668  	zero	aq+sr
    001030  0a   004602 000003     669  	zero	copy_mac,3	copy_mac		257
    001031  aa   000000 200000     670  	zero	0,l_in_q
    001032  0a   003647 000002     671  	zero	mpfx2,2		mpfx2		258
    001033  aa   600001 000000     672  	zero	aq+perm
    001034  0a   003651 000002     673  	zero	mpfx3,2		mpfx3		259
    001035  aa   600001 000000     674  	zero	aq+perm
    001036  aa   000000 5060 00    675  	div	0		dvfx1		260
    001037  aa   600000 000000     676  	zero	aq
    001040  0a   003073 000003     677  	zero	test_andnot_0,3	test_andnot_0	261
    001041  aa   000000 100000     678  	zero	0,compare
    001042  0a   003076 000003     679  	zero	test_andnot_1,3	test_andnot_1	262
    001043  aa   000000 100000     680  	zero	0,compare
    001044  0a   003653 000000     681  	zero	substr_ck_mac	substr_ck_mac	263
    001045  aa   600000 000000     682  	zero	aq
    001046  0a   003040 000003     683  	zero	move_and,3	move_and		264
    001047  aa   000000 000000     684  	zero	0
    001050  0a   004713 000001     685  	zero	sind_mac,1	sind_mac		265
    001051  aa   000000 000000     686  	zero	0
    001052  0a   004734 000001     687  	zero	dsind_mac,1	dsind_mac		266
    001053  aa   000000 000000     688  	zero	0
    001054  0a   003062 000003     689  	zero	test_and,3	test_and		267
    001055  aa   000000 100000     690  	zero	0,compare
    001056  0a   003703 000002     691  	zero	set_ptr_to,2	set_ptr_to	268
    001057  aa   000000 000000     692  	zero	0
    001060  0a   003705 000002     693  	zero	mdfl1,2		mdfl1		269
    001061  aa   700001 000000     694  	zero	aq+sr+perm
    001062  0a   003707 000002     695  	zero	mdfl2,2		mdfl2		270
    001063  aa   700001 000000     696  	zero	aq+sr+perm
    001064  0a   003711 000002     697  	zero	mdfx1,2		mdfx1		271
    001065  aa   700001 000000     698  	zero	aq+sr+perm
    001066  0a   003713 000002     699  	zero	mdfx2,2		mdfx2		272
    001067  aa   700001 000000     700  	zero	aq+sr+perm
    001070  0a   003715 000002     701  	zero	mdfx3,2		mdfx3		273
    001071  aa   700001 000000     702  	zero	aq+sr+perm
    001072  0a   003717 000002     703  	zero	mdfx4,2		mdfx4		274
    001073  aa   700001 000000     704  	zero	aq+sr+perm
    001074  0a   003741 000002     705  	zero	make_desc_mac,2	make_desc_mac	275
    001075  aa   200000 000000     706  	zero	q
    001076  aa   000000 7520 00    707  	stcq	0		set_desc_size	276
    001077  aa   000000 000000     708  	zero	0
    001100  aa   000000 2560 00    709  	orsq	0		insert_adj	277
    001101  aa   200000 000000     710  	zero	q
    001102  0a   003177 000004     711  	zero	pic_test,4	pic_test		278
    001103  aa   020000 100000     712  	zero	dr,compare
    001104  0a   003743 000002     713  	zero	quick_desc_size,2	quick_desc_size	279
    001105  aa   200000 000000     714  	zero	q
    001106  0a   004407 000003     715  	zero	compare_files,3	compare_files	280
    001107  aa   600000 000000     716  	zero	aq
    001110  0a   003751 000001     717  	zero	pad_chars,1	pad_chars		281
    001111  aa   600000 000000     718  	zero	aq
    001112  0a   003752 000001     719  	zero	pad_bits,1	pad_bits		282
    001113  aa   600000 000000     720  	zero	aq
    001114  0a   003753 000001     721  	zero	load_link_pt,1	load_link_pt	283
    001115  aa   000000 000000     722  	zero	0
    001116  0a   003745 000004     723  	zero	get_desc_size,4	get_desc_size	284
    001117  aa   200000 000000     724  	zero	q
    001120  0a   003754 000002     725  	zero	assign_label_const,2 assign_label_const 285
    001121  aa   000000 000000     726  	zero	0
    001122  0a   003760 000001     727  	zero	load_display_ptr,1	load_display_ptr	286
    001123  aa   000000 000000     728  	zero	0
    001124  0a   003761 000001     729  	zero	walk_display_ptr,1	walk_display_ptr	287
    001125  aa   000000 000000     730  	zero	0
    001126  0a   003762 000002     731  	zero	begin_return,2	begin_return_mac	288
    001127  aa   777770 000000     732  	zero	all
    001130  0a   003767 000002     733  	zero	signal_mac,2	signal_mac	289
    001131  aa   600000 000000     734  	zero	aq
    001132  0a   003766 000001     735  	zero	revert_mac,1	revert_mac	290
    001133  aa   000000 000000     736  	zero	0
    001134  0a   003771 000004     737  	zero	enable_mac,4	enable_mac	291
    001135  aa   777770 000000     738  	zero	all
    001136  0a   003775 000005     739  	zero	get_area_mod_8,5	get_area_mod_8	292
    001137  aa   200000 000000     740  	zero	q
    001140  0a   004002 000004     741  	zero	fx1_to_bs,4	fx1_to_bs		293
    001141  aa   400000 000000     742  	zero	a
    001142  0a   004006 000004     743  	zero	fx2_to_bs,4	fx2_to_bs		294
    001143  aa   600000 000000     744  	zero	aq
    001144  aa   000000 5510 00    745  	stba	0		stba		295
    001145  aa   000000 000000     746  	zero	0
    001146  aa   000000 5520 00    747  	stbq	0		stbq		296
    001147  aa   000000 000000     748  	zero	0
    001150  aa   000000 7510 00    749  	stca	0		stca		297
    001151  aa   000000 000000     750  	zero	0
    001152  aa   000000 7520 00    751  	stcq	0		stcq		298
    001153  aa   000000 000000     752  	zero	0
    001154  0a   004172 000001     753  	zero	quick_return,1	quick_return	299
    001155  aa   000000 000000     754  	zero	0
    001156  0a   004333 000001     755  	zero	fetch_chars,1	fetch_chars	300
    001157  aa   600000 000000     756  	zero	aq
    001160  0a   004334 000001     757  	zero	fetch_bits,1	fetch_bits	301
    001161  aa   600000 000000     758  	zero	aq
    001162  0a   003547 000003     759  	zero	mod_byte_mac,3	mod_byte_mac	302
    001163  aa   600000 000000     760  	zero	aq
    001164  0a   003552 000003     761  	zero	mod_byte_mac_exp,3	mod_byte_mac_exp	303
    001165  aa   600000 000000     762  	zero	aq
    001166  0a   003043 000003     763  	zero	move_or,3		move_or		304
    001167  aa   000000 000000     764  	zero	0
    001170  0a   003260 000001     765  	zero	support_mac,1	support_mac	305
    001171  aa   400000 000000     766  	zero	a
    001172  0a   003261 000001     767  	zero	a_to_x0,1		a_to_x0		306
    001173  aa   010000 000000     768  	zero	x0
    001174  0a   005041 000001     769  	zero	zero_mac_p_1,1	zero_mac_p_1	307
    001175  aa   000000 000000     770  	zero	0
    001176  aa   000000 4500 00    771  	stz	0		zero_mac		308
    001177  aa   000000 000000     772  	zero	0
    001200  aa   000000 0540 00    773  	aos	0		aos_mac		309
    001201  aa   000000 000000     774  	zero	0
    001202  aa   000000 0560 00    775  	asq	0		incr_mac		310
    001203  aa   000000 000000     776  	zero	0
    001204  aa   000000 1560 00    777  	ssq	0		diff_mac		311
    001205  aa   000000 000000     778  	zero	0
    001206  aa   000000 0110 00    779  	nop	0		nop_mac		312
    001207  aa   000000 000000     780  	zero	0
    001210  0a   004336 000001     781  	zero	get_term_mac,1	get_term_mac	313
    001211  aa   000130 000000     782  	zero	bases+x6
    001212  0a   004337 000001     783  	zero	put_term_mac,1	put_term_mac	314
    001213  aa   000130 000000     784  	zero	bases+x6
    001214  0a   003756 000002     785  	zero	is_label_const,2	is_label_const	315
    001215  aa   000000 000000     786  	zero	0
    001216  0a   003555 000003     787  	zero	mod_half_mac,3	mod_half_mac	316
    001217  aa   600000 000000     788  	zero	aq
    001220  0a   003560 000003     789  	zero	mod_half_mac_exp,3	mod_half_mac_exp	317
    001221  aa   600000 000000     790  	zero	aq
    001222  0a   004026 000005     791  	zero	beg_ev_proc,5	beg_ev_proc	318
    001223  aa   000000 000000     792  	zero	0
    001224  0a   004033 000002     793  	zero	end_ev_proc,2	end_ev_proc	319
    001225  aa   000000 000000     794  	zero	0
    001226  0a   004035 000004     795  	zero	symtab_mac,4	symtab_mac	320
    001227  aa   000000 000000     796  	zero	0
    001230  0a   004046 000002     797  	zero	io_signal_mac,2	io_signal_mac	321
    001231  aa   600000 000000     798  	zero	aq
    001232  0a   004050 000003     799  	zero	end_ev_label,3	end_ev_label	322
    001233  aa   000000 000000     800  	zero	0
    001234  aa   000000 3150 00    801  	cana	0		cana		323
    001235  aa   000000 000000     802  	zero	0
    001236  aa   000000 3170 00    803  	canaq	0		canaq		324
    001237  aa   000000 000000     804  	zero	0
    001240  0a   004403 000007     805  	zero	compare_labels,7	compare_labels	325
    001241  aa   600000 000000     806  	zero	aq
    001242  0a   004053 000001     807  	zero	pointer_mac_const,1 point_mac_const	326
    001243  aa   000020 000000     808  	zero	bp
    001244  0a   004054 000001     809  	zero	addrel_mac_const,1	addrel_mac_const	327
    001245  aa   000020 000000     810  	zero	bp
    001246  0a   004340 000001     811  	zero	put_data,1	put_data		328
    001247  aa   000130 000000     812  	zero	x6+bases
    001250  0a   004714 000001     813  	zero	cos_mac,1		cos_mac,1		329
    001251  aa   000000 000000     814  	zero	0
    001252  0a   004735 000001     815  	zero	dcos_mac,1	dcos_mac		330
    001253  aa   000000 000000     816  	zero	0
    001254  0a   003065 000003     817  	zero	test_or,3		test_or		331
    001255  aa   000000 100000     818  	zero	0,compare
    001256  aa   000000 2350 00    819  	lda	0		test_lda		332
    001257  aa   400000 000000     820  	zero	a
    001260  0a   004065 000003     821  	zero	test_lda_ldq,3	test_lda_ldq	333
    001261  aa   600004 000000     822  	zero	aq+no_al
    001262  aa   000000 2370 00    823  	ldaq	0		test_ldaq		334
    001263  aa   600000 000000     824  	zero	aq
    001264  0a   003035 000003     825  	zero	move_not,3	move_not		335
    001265  aa   000000 000000     826  	zero	0
    001266  0a   004715 000001     827  	zero	cosd_mac,1	cosd_mac		336
    001267  aa   000000 000000     828  	zero	0
    001270  0a   004736 000001     829  	zero	dcosd_mac,1	dcosd_mac		337
    001271  aa   000000 000000     830  	zero	0
    001272  0a   003057 000003     831  	zero	test_not,3	test_not		338
    001273  aa   000000 100000     832  	zero	0,compare
    001274  0a   004041 000003     833  	zero	init_ps_mac,3	init_ps_mac	339
    001275  aa   000000 000000     834  	zero	0
    001276  0a   004044 000002     835  	zero	init_sslp,2	init_sslp		340
    001277  aa   000000 000000     836  	zero	0
    001300  0a   004023 000003     837  	zero	move_xor,3	move_xor		341
    001301  aa   000000 000000     838  	zero	0
    001302  0a   004716 000001     839  	zero	tan_mac,1		tan_mac		342
    001303  aa   000000 000000     840  	zero	0
    001304  0a   004737 000001     841  	zero	dtan_mac,1	dtan_mac		343
    001305  aa   000000 000000     842  	zero	0
    001306  0a   003070 000003     843  	zero	test_xor,3	test_xor		344
    001307  aa   000000 100000     844  	zero	0,compare
    001310  aa   000000 4400 00    845  	sxl0	0		sxl0		345
    001311  aa   000000 000000     846  	zero	0
    001312  aa   000000 4410 00    847  	sxl1	0		sxl1		346
    001313  aa   000000 000000     848  	zero	0
    001314  aa   000000 4420 00    849  	sxl2	0		sxl2		347
    001315  aa   000000 000000     850  	zero	0
    001316  aa   000000 4430 00    851  	sxl3	0		sxl3		348
    001317  aa   000000 000000     852  	zero	0
    001320  aa   000000 4440 00    853  	sxl4	0		sxl4		349
    001321  aa   000000 000000     854  	zero	0
    001322  aa   000000 4450 00    855  	sxl5	0		sxl5		350
    001323  aa   000000 000000     856  	zero	0
    001324  aa   000000 4460 00    857  	sxl6	0		sxl6		351
    001325  aa   000000 000000     858  	zero	0
    001326  aa   000000 4470 00    859  	sxl7	0		sxl7		352
    001327  aa   000007 000000     860  	zero	7
    001330  aa   000000 6200 00    861  	eax0	0		eax0		353
    001331  aa   000000 000000     862  	zero	0
    001332  aa   000000 6210 00    863  	eax1	0		eax1		354
    001333  aa   000000 000000     864  	zero	0
    001334  aa   000000 6220 00    865  	eax2	0		eax2		355
    001335  aa   000000 000000     866  	zero	0
    001336  aa   000000 6230 00    867  	eax3	0		eax3		356
    001337  aa   000000 000000     868  	zero	0
    001340  aa   000000 6240 00    869  	eax4	0		eax4		357
    001341  aa   000000 000000     870  	zero	0
    001342  aa   000000 6250 00    871  	eax5	0		eax5		358
    001343  aa   000000 000000     872  	zero	0
    001344  aa   000000 6260 00    873  	eax6	0		eax6		359
    001345  aa   000000 000000     874  	zero	0
    001346  aa   000000 6270 00    875  	eax7	0		eax7		360
    001347  aa   000000 000000     876  	zero	0
    001350  aa   000000 3700 00    877  	epplp	0		load_lp		361
    001351  aa   000000 000000     878  	zero	0
    001352  0a   003451 000002     879  	zero	prepare_call,2	prepare_call	362
    001353  aa   600000 000000     880  	zero	aq
    001354  0a   004200 000003     881  	zero	prepare_quick_call,3	prepare_quick_call	363
    001355  aa   600020 000000     882  	zero	bp+aq
    001356  0a   004173 000001     883  	zero	quick_entry,1	quick_entry	364
    001357  aa   000000 000000     884  	zero	0
    001360  0a   004173 000002     885  	zero	quick_entry_args,2	quick_entry_args	365
    001361  aa   000000 000000     886  	zero	0
    001362  0a   004173 000004     887  	zero	quick_entry_desc,4	quick_entry_desc	366
    001363  aa   000000 000000     888  	zero	0
    001364  0a   004177 000001     889  	zero	quick_call,1	quick_call	367
    001365  aa   000000 000000     890  	zero	0
    001366  0a   004020 000001     891  	zero	verify_rev_chars,1	verify_rev_chars	368
    001367  aa   700000 000000     892  	zero	aq+sr
    001370  0a   004021 000001     893  	zero	search_rev_chars,1	search_rev_chars	369
    001371  aa   700000 000000     894  	zero	aq+sr
    001372  aa   000000 6350 00    895  	eaa	0		eaa		371
    001373  aa   400000 000000     896  	zero	a
    001374  aa   000000 6360 00    897  	eaq	0		eaq		371
    001375  aa   200000 000000     898  	zero	q
    001376  aa   000000 7770 00    899  	llr	0		llr		372
    001377  aa   600000 000000     900  	zero	aq
    001400  aa   000000 5004 00    901  	a9bdx	0|0		setcharno_mac	373
    001401  aa   000000 000000     902  	zero	0
    001402  aa   000000 5034 00    903  	abdx	0|0		setbitno_mac	374
    001403  aa   000000 000000     904  	zero	0
    001404  aa   000000 000000     905  	zero	0		UNUSED		375
    001405  aa   000000 000000     906  	zero	0
    001406  aa   000000 2130 00    907  	epaq	0		epaq		376
    001407  aa   600000 000000     908  	zero	aq
    001410  aa   000000 000000     909  	zero	0		UNUSED		377
    001411  aa   000000 000000     910  	zero	0
    001412  aa   000000 000000     911  	zero	0		UNUSED		378
    001413  aa   000000 000000     912  	zero	0
    001414  0a   004203 000002     913  	zero	assign_lab_to_int,2 assign_lab_to_int	379
    001415  aa   200000 000000     914  	zero	q
    001416  0a   004205 000002     915  	zero	load_logical,2	load_logical	380
    001417  aa   400000 000000     916  	zero	a
    001420  0a   004207 000003     917  	zero	store_logical,3	store_logical	381
    001421  aa   000000 000000     918  	zero	0
    001422  0a   004212 000001     919  	zero	not_logical,1	not_logical	382
    001423  aa   400000 000000     920  	zero	a
    001424  0a   004206 000001     921  	zero	mask_logical,1	mask_logical	383
    001425  aa   400000 000000     922  	zero	a
    001426  0a   003322 000001     923  	zero	trunc_fl,1	trunc_fl		384
    001427  aa   600000 000000     924  	zero	aq
    001430  0a   004213 000002     925  	zero	tran_sign_fx1,2	tran_sign_fx1	385
    001431  aa   600001 000000     926  	zero	aq+perm
    001432  0a   004215 000002     927  	zero	tran_sign_fl,2	tran_sign_fl	386
    001433  aa   600001 000000     928  	zero	aq+perm
    001434  0a   004217 000002     929  	zero	fort_mod_fx1,2	fort_mod_fx1	387
    001435  aa   600000 000000     930  	zero	aq
    001436  0a   004221 000002     931  	zero	fort_mod_fl1,2	fort_mod_fl1	388
    001437  aa   600001 000000     932  	zero	aq+perm
    001440  aa   000000 000000     933  	zero	0		UNUSED		389
    001441  aa   000000 000000     934  	zero	0
    001442  0a   004223 000003     935  	zero	rflb1_to_cflb1,3	rflb1_to_cflb1	390
    001443  aa   600000 000000     936  	zero	aq
    001444  0a   003046 000003     937  	zero	move_andnot_0,3	move_andnot_0	391
    001445  aa   000000 000000     938  	zero	0,0
    001446  0a   003051 000003     939  	zero	move_andnot_1,3	move_andnot_1	392
    001447  aa   000000 000000     940  	zero	0,0
    001450  0a   004236 000003     941  	zero	store_bp_hard,3	store_bp_hard	393
    001451  aa   600000 000000     942  	zero	aq
    001452  0a   004226 000002     943  	zero	atm_rflb1_to_cflb1,2 atm_rflb1_to_cflb1 394
    001453  aa   600000 000000     944  	zero	aq
    001454  0a   004230 000001     945  	zero	rfb1_to_cflb1,1	rfb1_to_cflb1	395
    001455  aa   600000 000000     946  	zero	aq
    001456  0a   004360 000003     947  	zero	stream_prep_mac,3	stream_prep_mac	396
    001457  aa   400130 000000     948  	zero	a+bases+x6
    001460  0a   004232 000004     949  	zero	loop_end_var,4	loop_end_var	397
    001461  aa   600000 000000     950  	zero	aq
    001462  0a   004231 000001     951  	zero	rfb2_to_cflb1,1	rfb2_to_cflb1	398
    001463  aa   600000 000000     952  	zero	aq
    001464  0a   004241 000000     953  	zero	complex_mac	complex_mac	399
    001465  aa   600000 000000     954  	zero	aq
    001466  0a   004250 000000     955  	zero	conjg_mac		conjg_mac		400
    001467  aa   600000 000000     956  	zero	aq
    001470  0a   004264 000000     957  	zero	real_mac		real_mac		401
    001471  aa   600000 000000     958  	zero	aq
    001472  0a   004270 000000     959  	zero	imag_mac		imag_mac		402
    001473  aa   600000 000000     960  	zero	aq
    001474  0a   004275 000002     961  	zero	square_fx1,2	square_fx1	403
    001475  aa   600000 000000     962  	zero	aq
    001476  0a   004303 000002     963  	zero	h2w_mac,2		h2w_mac		404
    001477  aa   600000 000000     964  	zero	aq
    001500  0a   004277 000002     965  	zero	square_fl1,2	square_fl1	405
    001501  aa   600000 000000     966  	zero	aq
    001502  0a   004301 000002     967  	zero	square_fl2,2	square_fl2	406
    001503  aa   600000 000000     968  	zero	aq
    001504  0a   004305 000001     969  	zero	unpk_to_pk,1	unpk_to_pk	407
    001505  aa   600000 000000     970  	zero	aq
    001506  0a   004306 000001     971  	zero	pk_to_unpk,1	pk_to_unpk	408
    001507  aa   600000 000000     972  	zero	aq
    001510  aa   000000 6500 00    973  	sprilp	0		store_lp		409
    001511  aa   000000 000000     974  	zero	0
    001512  0a   004307 000002     975  	zero	bp_to_aq,2	bp_to_aq		410
    001513  aa   600000 000000     976  	zero	aq
    001514  0a   004311 000002     977  	zero	lp_to_aq,2	lp_to_aq		411
    001515  aa   600000 000000     978  	zero	aq
    001516  0a   004314 000001     979  	zero	real_to_real_tr,1	real_to_real_tr	412
    001517  aa   677770 000000     980  	zero	all-sr
    001520  0a   004313 000001     981  	zero	real_to_real_rd,1	real_to_real_rd	413
    001521  aa   677770 000000     982  	zero	all-sr
    001522  0a   004316 000001     983  	zero	any_to_any_tr,1	any_to_any_tr	414
    001523  aa   677770 000000     984  	zero	all-sr
    001524  0a   004315 000001     985  	zero	any_to_any_rd,1	any_to_any_rd	415
    001525  aa   677770 000000     986  	zero	all-sr
    001526  0a   004317 000001     987  	zero	unpack_pic,1	unpack_pic	416
    001527  aa   777770 000000     988  	zero	all
    001530  0a   004320 000001     989  	zero	edit_pic,1	edit_pic		417
    001531  aa   777770 000000     990  	zero	all
    001532  aa   000000 7720 00    991  	qrl	0		qrl		418
    001533  aa   200000 000000     992  	zero	q
    001534  0a   004154 000003     993  	zero	zero_chars,3	zero_chars	419
    001535  aa   000000 000000     994  	zero	0
    001536  0a   003010 000003     995  	zero	chars_move,3	chars_move	420
    001537  aa   000000 000000     996  	zero	0
    001540  0a   003013 000003     997  	zero	bits_move,3	bits_move		421
    001541  aa   000000 000000     998  	zero	0
    001542  0a   004717 000001     999  	zero	tand_mac,1	tand_mac		422
    001543  aa   000000 000000    1000  	zero	0
    001544  0a   004740 000001    1001  	zero	dtand_mac,1	dtand_mac		423
    001545  aa   000000 000000    1002  	zero	0
    001546  0a   004720 000001    1003  	zero	asin_mac,1	asin_mac		424
    001547  aa   000000 000000    1004  	zero	0
    001550  0a   004741 000001    1005  	zero	dasin_mac,1	dasin_mac		425
    001551  aa   000000 000000    1006  	zero	0
    001552  0a   004721 000001    1007  	zero	asind_mac,1	asind_mac		426
    001553  aa   000000 000000    1008  	zero	0
    001554  0a   004742 000001    1009  	zero	dasind_mac,1	dasind_mac	427
    001555  aa   000000 000000    1010  	zero	0
    001556  0a   004722 000001    1011  	zero	acos_mac,1	acos_mac		428
    001557  aa   000000 000000    1012  	zero	0
    001560  0a   004743 000001    1013  	zero	dacos_mac,1	dacos_mac		429
    001561  aa   000000 000000    1014  	zero	0
    001562  0a   004723 000001    1015  	zero	acosd_mac,1	acosd_mac		430
    001563  aa   000000 000000    1016  	zero	0
    001564  0a   004744 000001    1017  	zero	dacosd_mac,1	dacosd_mac	431
    001565  aa   000000 000000    1018  	zero	0
    001566  0a   004724 000001    1019  	zero	atan_mac,1	atan_mac		432
    001567  aa   000000 000000    1020  	zero	0
    001570  0a   004745 000001    1021  	zero	datan_mac,1	datan_mac		433
    001571  aa   000000 000000    1022  	zero	0
    001572  0a   004725 000001    1023  	zero	atand_mac,1	atand_mac		434
    001573  aa   000000 000000    1024  	zero	0
    001574  0a   004746 000001    1025  	zero	datand_mac,1	datand_mac	435
    001575  aa   000000 000000    1026  	zero	0
    001576  0a   003525 000001    1027  	zero	set_chars,1	set_chars		436
    001577  aa   500000 000000    1028  	zero	a+sr
    001600  0a   003526 000001    1029  	zero	set_bits,1	set_bits		437
    001601  aa   500000 000000    1030  	zero	a+sr
    001602  0a   003101 000003    1031  	zero	move_decimal,3	move_decimal	438
    001603  aa   020000 000000    1032  	zero	dr
    001604  0a   003104 000003    1033  	zero	move_decimal_rd,3	move_decimal_rd	439
    001605  aa   020000 000000    1034  	zero	dr
    001606  0a   003107 000004    1035  	zero	add_decimal,4	add_decimal	440
    001607  aa   020000 000000    1036  	zero	dr
    001610  0a   003113 000004    1037  	zero	add_decimal_rd,4	add_decimal_rd	441
    001611  aa   020000 000000    1038  	zero	dr
    001612  0a   003117 000003    1039  	zero	add_decimal_2,3	add_decimal_2	442
    001613  aa   020000 000000    1040  	zero	dr
    001614  0a   003122 000003    1041  	zero	add_decimal_2_rd,3	add_decimal_2_rd	443
    001615  aa   020000 000000    1042  	zero	dr
    001616  0a   003010 000003    1043  	zero	chars_move_vt,3	chars_move_vt	444
    001617  aa   000000 200000    1044  	zero	0,l_in_q
    001620  0a   003013 000003    1045  	zero	bits_move_vt,3	bits_move_vt	445
    001621  aa   000000 200000    1046  	zero	0,l_in_q
    001622  0a   003125 000004    1047  	zero	sub_decimal,4	sub_decimal	446
    001623  aa   020000 000000    1048  	zero	dr
    001624  0a   003131 000004    1049  	zero	sub_decimal_rd,4	sub_decimal_rd	447
    001625  aa   020000 000000    1050  	zero	dr
    001626  0a   003135 000003    1051  	zero	sub_decimal_2,3	sub_decimal_2	448
    001627  aa   020000 000000    1052  	zero	dr
    001630  0a   003140 000003    1053  	zero	sub_decimal_2_rd,3	sub_decimal_2_rd	449
    001631  aa   020000 000000    1054  	zero	dr
    001632  0a   003143 000004    1055  	zero	mult_decimal,4	mult_decimal	450
    001633  aa   020000 000000    1056  	zero	dr
    001634  0a   003147 000004    1057  	zero	mult_decimal_rd,4	mult_decimal_rd	451
    001635  aa   020000 000000    1058  	zero	dr
    001636  0a   004016 000001    1059  	zero	ix_chars,1	ix_chars		452
    001637  aa   700000 000000    1060  	zero	aq+sr
    001640  0a   004022 000001    1061  	zero	ix_bits,1		ix_bits		453
    001641  aa   700020 000000    1062  	zero	aq+bp+sr
    001642  0a   003153 000003    1063  	zero	mult_decimal_2,3	mult_decimal_2	454
    001643  aa   020000 000000    1064  	zero	dr
    001644  0a   003156 000003    1065  	zero	mult_decimal_2_rd,3 mult_decimal_2_rd	455
    001645  aa   020000 000000    1066  	zero	dr
    001646  0a   003161 000004    1067  	zero	div_decimal,4	div_decimal	456
    001647  aa   020000 000000    1068  	zero	dr
    001650  0a   003161 000004    1069  	zero	div_decimal_rd,4	div_decimal_rd	457
    001651  aa   020000 000000    1070  	zero	dr
    001652  0a   003165 000003    1071  	zero	div_decimal_2,3	div_decimal_2	458
    001653  aa   020000 000000    1072  	zero	dr
    001654  0a   003165 000003    1073  	zero	div_decimal_2_rd,3	div_decimal_2_rd	459
    001655  aa   020000 000000    1074  	zero	dr
    001656  0a   004074 000010    1075  	zero	ix_chars_1,8	ix_chars_1	460
    001657  aa   200000 100000    1076  	zero	q,compare
    001660  0a   004134 000001    1077  	zero	ix_bits_1,1	ix_bits_1		461
    001661  aa   700020 000000    1078  	zero	aq+bp+sr
    001662  0a   004104 000010    1079  	zero	ix_chars_2,8	ix_chars_2	462
    001663  aa   200000 100000    1080  	zero	q,compare
    001664  0a   004114 000010    1081  	zero	ix_rev_chars_1,8	ix_rev_chars_1	463
    001665  aa   200000 100000    1082  	zero	q,compare
    001666  0a   004124 000010    1083  	zero	ix_rev_chars_2,8	ix_rev_chars_2	464
    001667  aa   200000 100000    1084  	zero	q,compare
    001670  0a   003217 000002    1085  	zero	mpcdec,2		mpcdec		465
    001671  aa   407400 000000    1086  	zero	a+x1+x2+x3+x4
    001672  0a   003221 000002    1087  	zero	dvcdec,2		dvcdec		466
    001673  aa   407400 000000    1088  	zero	a+x1+x2+x3+x4
    001674  0a   003223 000002    1089  	zero	dvrcdec,2		dvrcdec		467
    001675  aa   407400 000000    1090  	zero	a+x1+x2+x3+x4
    001676  0a   004135 000003    1091  	zero	zero_bits,3	zero_bits		468
    001677  aa   000000 000000    1092  	zero	0
    001700  0a   004140 000003    1093  	zero	one_bits,3	one_bits		469
    001701  aa   000000 000000    1094  	zero	0
    001702  0a   004143 000003    1095  	zero	bool_mac_1,3	bool_mac_1	470
    001703  aa   000000 040000    1096  	zero	0,xec_eis
    001704  0a   004146 000003    1097  	zero	bool_mac_2,3	bool_mac_2	471
    001705  aa   000000 040000    1098  	zero	0,xec_eis
    001706  0a   004151 000003    1099  	zero	blank_chars,3	blank_chars	472
    001707  aa   000000 000000    1100  	zero	0
    001710  0a   003225 000003    1101  	zero	abs_decimal,3	abs_decimal	473
    001711  aa   020000 000000    1102  	zero	dr
    001712  0a   003233 000004    1103  	zero	min_dec,4		min_dec		474
    001713  aa   020000 000000    1104  	zero	dr
    001714  0a   003237 000004    1105  	zero	max_dec,4		max_dec		475
    001715  aa   020000 000000    1106  	zero	dr
    001716  0a   003013 000003    1107  	zero	copy_bits,3	copy_bits		476
    001717  aa   000000 400000    1108  	zero	0,cat
    001720  0a   004726 000001    1109  	zero	log2_mac,1	log2_mac		477
    001721  aa   000000 000000    1110  	zero	0
    001722  0a   004747 000001    1111  	zero	dlog2_mac,1	dlog2_mac		478
    001723  aa   000000 000000    1112  	zero	0
    001724  0a   004154 000003    1113  	zero	zero_chars_q,3	zero_chars_q	479
    001725  aa   000000 200000    1114  	zero	0,l_in_q
    001726  0a   004327 000002    1115  	zero	return_words,2	return_words	480
    001727  aa   000000 000000    1116  	zero	0
    001730  0a   004602 000003    1117  	zero	move_words,3	move_words	481
    001731  aa   000000 400000    1118  	zero	0,cat
    001732  0a   004727 000001    1119  	zero	log_mac,1		log_mac		482
    001733  aa   000000 000000    1120  	zero	0
    001734  0a   004750 000001    1121  	zero	dlog_mac,1	dlog_mac		483
    001735  aa   000000 000000    1122  	zero	0
    001736  0a   004157 000003    1123  	zero	one_chars,3	one_chars		484
    001737  aa   000000 000000    1124  	zero	0
    001740  0a   004363 000002    1125  	zero	recio_mac,2	recio_mac		485
    001741  aa   600130 000000    1126  	zero	aq+x6+bases
    001742  0a   004365 000002    1127  	zero	unpack_fl1,2	unpack_fl1	486
    001743  aa   600000 000000    1128  	zero	aq
    001744  0a   004367 000002    1129  	zero	unpack_fl2,2	unpack_fl2	487
    001745  aa   000000 000000    1130  	zero	0
    001746  0a   004371 000002    1131  	zero	unpack_cfl1,2	unpack_cfl1	488
    001747  aa   000000 000000    1132  	zero	0
    001750  0a   004373 000002    1133  	zero	pack_fl1,2	pack_fl1		489
    001751  aa   000000 000000    1134  	zero	0
    001752  0a   004375 000002    1135  	zero	pack_fl2,2	pack_fl2		490
    001753  aa   000000 000000    1136  	zero	0
    001754  0a   004377 000002    1137  	zero	pack_cfl1,2	pack_cfl1		491
    001755  aa   000000 000000    1138  	zero	0
    001756  aa   000000 7330 00   1139  	lrs	0		lrs		492
    001757  aa   600000 000000    1140  	zero	aq
    001760  0a   004401 000001    1141  	zero	open_mac,1	open_mac		493
    001761  aa   000130 000000    1142  	zero	x6+bases
    001762  0a   004402 000001    1143  	zero	close_mac,1	close_mac		494
    001763  aa   000130 000000    1144  	zero	x6+bases
    001764  0a   004341 000001    1145  	zero	get_list,1	get_list		495
    001765  aa   000130 000000    1146  	zero	x6+bases
    001766  0a   004730 000001    1147  	zero	log10_mac,1	log10_mac		496
    001767  aa   000000 000000    1148  	zero	0
    001770  0a   004751 000001    1149  	zero	dlog10_mac,1	dlog10_mac	497
    001771  aa   000000 000000    1150  	zero	0
    001772  0a   004345 000001    1151  	zero	put_field,1	put_field		498
    001773  aa   000130 000000    1152  	zero	bases+x6
    001774  0a   004342 000001    1153  	zero	get_edit,1	get_edit		499
    001775  aa   000130 000000    1154  	zero	x6+bases
    001776  0a   004731 000001    1155  	zero	exp_mac,1		exp_mac		500
    001777  aa   000000 000000    1156  	zero	0
    002000  0a   004752 000001    1157  	zero	dexp_mac,1	dexp_mac		501
    002001  aa   000000 000000    1158  	zero	0
    002002  0a   005042 000002    1159  	zero	alloc_based_area,2	alloc_based_area	502
    002003  aa   000000 000000    1160  	zero	0
    002004  0a   004343 000001    1161  	zero	put_list,1	put_list		503
    002005  aa   000130 000000    1162  	zero	x6+bases
    002006  0a   004753 000001    1163  	zero	atan2_mac,1	atan2_mac		504
    002007  aa   000000 000000    1164  	zero	0
    002010  0a   004755 000001    1165  	zero	datan2_mac,1	datan2_mac	505
    002011  aa   000000 000000    1166  	zero	0
    002012  0a   004346 000001    1167  	zero	put_field_chk,1	put_field_chk	506
    002013  aa   000130 000000    1168  	zero	bases+x6
    002014  0a   004344 000001    1169  	zero	put_edit,1	put_edit		507
    002015  aa   000130 000000    1170  	zero	x6+bases
    002016  0a   004070 000001    1171  	zero	testfx1,1		testfx1		508
    002017  aa   000000 000000    1172  	zero	0
    002020  0a   004071 000001    1173  	zero	testfx2,1		testfx2		509
    002021  aa   000000 000000    1174  	zero	0
    002022  0a   004072 000001    1175  	zero	testfl1,1		testfl1		510
    002023  aa   000000 000000    1176  	zero	0
    002024  0a   004073 000001    1177  	zero	testfl2,1		testfl2		511
    002025  aa   000000 000000    1178  	zero	0
    002026  0a   003422 000002    1179  	zero	ss_enter_begin_block,2  ss_enter_begin_block  512
    002027  aa   000000 000000    1180  	zero	0
    002030  aa   000000 2760 00   1181  	orq	0		form_desc		513
    002031  aa   200000 000000    1182  	zero	q
    002032  aa   000000 7320 00   1183  	qrs	0		qrs		514
    002033  aa   200000 000000    1184  	zero	q
    002034  aa   000000 7360 00   1185  	qls	0		qls		515
    002035  aa   200000 000000    1186  	zero	q
    002036  0a   004412 000002    1187  	zero	fetch_pp,2	fetch_pp		516
    002037  aa   600000 000000    1188  	zero	aq
    002040  0a   004414 000002    1189  	zero	store_pp,2	store_pp		517
    002041  aa   000000 000000    1190  	zero	0
    002042  0a   004416 000002    1191  	zero	fxscaled_to_fl2,2	fxscaled_to_fl2	518
    002043  aa   600000 000000    1192  	zero	aq
    002044  0a   004420 000001    1193  	zero	fl2_to_fxscaled,1	fl2_to_fxscaled	519
    002045  aa   600000 000000    1194  	zero	aq
    002046  0a   004421 000001    1195  	zero	trunc_fx1,1	trunc_fx1		520
    002047  aa   200000 000000    1196  	zero	q
    002050  0a   004422 000001    1197  	zero	trunc_fx2,1	trunc_fx2		521
    002051  aa   600000 000000    1198  	zero	aq
    002052  0a   004423 000001    1199  	zero	ceil_fx1,1	ceil_fx1		522
    002053  aa   200000 000000    1200  	zero	q
    002054  0a   004424 000001    1201  	zero	ceil_fx2,1	ceil_fx2		523
    002055  aa   600000 000000    1202  	zero	aq
    002056  0a   004425 000001    1203  	zero	ceil_fl,1		ceil_fl		524
    002057  aa   600000 000000    1204  	zero	aq
    002060  0a   004426 000001    1205  	zero	floor_fx1,1	floor_fx1		525
    002061  aa   200000 000000    1206  	zero	q
    002062  0a   004427 000001    1207  	zero	floor_fx2,1	floor_fx2		526
    002063  aa   600000 000000    1208  	zero	aq
    002064  0a   004430 000001    1209  	zero	floor_fl,1	floor_fl		527
    002065  aa   600000 000000    1210  	zero	aq
    002066  0a   004431 000001    1211  	zero	nop_mac,1		nop_mac		528
    002067  aa   000000 000000    1212  	zero	0
    002070  0a   004432 000001    1213  	zero	round_fx1,1	round_fx1		529
    002071  aa   200000 000000    1214  	zero	q
    002072  0a   004433 000001    1215  	zero	round_fx2,1	round_fx2		530
    002073  aa   600000 000000    1216  	zero	aq
    002074  0a   004434 000002    1217  	zero	round_fl,2	round_fl		531
    002075  aa   700020 000000    1218  	zero	aq+bp+sr
    002076  0a   003170 000003    1219  	zero	compare_decimal,3	compare_decimal	532
    002077  aa   020000 100000    1220  	zero	dr,compare
    002100  aa   000000 6520 00   1221  	sprisp	0		stack_ptr		533
    002101  aa   000000 000000    1222  	zero	0
    002102  0a   004436 000001    1223  	zero	repeat,1		repeat		534
    002103  aa   700020 000000    1224  	zero	aq+bp+sr
    002104  0a   003721 000002    1225  	zero	divide_fx1,2	divide_fx1	535
    002105  aa   700001 000000    1226  	zero	aq+sr+perm
    002106  0a   003723 000002    1227  	zero	divide_fx2,2	divide_fx2	536
    002107  aa   700001 000000    1228  	zero	aq+sr+perm
    002110  0a   003725 000002    1229  	zero	divide_fx3,2	divide_fx3	537
    002111  aa   700001 000000    1230  	zero	aq+sr+perm
    002112  0a   003727 000002    1231  	zero	divide_fx4,2	divide_fx4	538
    002113  aa   700001 000000    1232  	zero	aq+sr+perm
    002114  0a   004437 000001    1233  	zero	verify,1		verify		539
    002115  aa   300000 000000    1234  	zero	q+sr
    002116  0a   004440 000001    1235  	zero	search,1		search		540
    002117  aa   300000 000000    1236  	zero	q+sr
    002120  0a   003243 000002    1237  	zero	ceil_dec,2	ceil_dec		541
    002121  aa   606000 000000    1238  	zero	aq+x1+x2
    002122  0a   003245 000002    1239  	zero	floor_dec,2	floor_dec		542
    002123  aa   606000 000000    1240  	zero	aq+x1+x2
    002124  0a   003247 000002    1241  	zero	sign_dec,2	sign_dec		543
    002125  aa   200000 000000    1242  	zero	q
    002126  0a   003251 000002    1243  	zero	abs_cdec,2	abs_cdec		544
    002127  aa   607400 000000    1244  	zero	aq+x1+x2+x3+x4
    002130  0a   003253 000002    1245  	zero	trunc_dec,2	trunc_dec		545
    002131  aa   606000 000000    1246  	zero	aq+x1+x2
    002132  0a   003255 000002    1247  	zero	mod_dec,2		mod_dec		546
    002133  aa   606000 000000    1248  	zero	aq+x1+x2
    002134  0a   004441 000001    1249  	zero	reverse_cs,1	reverse_cs	547
    002135  aa   700020 000000    1250  	zero	aq+bp+sr
    002136  0a   004442 000001    1251  	zero	reverse_bs,1	reverse_bs	548
    002137  aa   700020 000000    1252  	zero	aq+bp+sr
    002140  0a   003731 000002    1253  	zero	scaled_mdfx1,2	scaled_mdfx1	549
    002141  aa   700001 000000    1254  	zero	aq+sr+perm
    002142  0a   003733 000002    1255  	zero	scaled_mdfx2,2	scaled_mdfx2	550
    002143  aa   700001 000000    1256  	zero	aq+sr+perm
    002144  0a   003735 000002    1257  	zero	scaled_mdfx3,2	scaled_mdfx3	551
    002145  aa   700001 000000    1258  	zero	aq+sr+perm
    002146  0a   003737 000002    1259  	zero	scaled_mdfx4,2	scaled_mdfx4	552
    002147  aa   700001 000000    1260  	zero	aq+sr+perm
    002150  0a   004452 000001    1261  	zero	size_check_fx1,1	size_check_fx1	553
    002151  aa   000000 000000    1262  	zero	0
    002152  0a   004453 000001    1263  	zero	size_check_fx2,1	size_check_fx2	554
    002153  aa   000000 000000    1264  	zero	0
    002154  0a   004443 000003    1265  	zero	chars_move_ck,3	chars_move_ck	555
    002155  aa   000000 000000    1266  	zero	0
    002156  0a   004446 000003    1267  	zero	bits_move_ck,3	bits_move_ck	556
    002157  aa   000000 000000    1268  	zero	0
    002160  0a   004754 000001    1269  	zero	atan2d_mac,1	atan2d_mac	557
    002161  aa   000000 000000    1270  	zero	0
    002162  0a   004756 000001    1271  	zero	datan2d_mac,1	datan2d_mac	558
    002163  aa   000000 000000    1272  	zero	0
    002164  0a   004757 000001    1273  	zero	int_p_real,1	int_p_real	559
    002165  aa   000000 000000    1274  	zero	0
    002166  0a   004760 000001    1275  	zero	int_p_dbl,1	int_p_dbl		560
    002167  aa   000000 000000    1276  	zero	0
    002170  0a   004761 000001    1277  	zero	dbl_p_real,1	dbl_p_real	561
    002171  aa   000000 000000    1278  	zero	0
    002172  0a   004762 000001    1279  	zero	dbl_p_dbl,1	dbl_p_dbl		562
    002173  aa   000000 000000    1280  	zero	0
    002174  0a   004451 000001    1281  	zero	signal_stringsize,1 signal_stringsize	563
    002175  aa   000000 000000    1282  	zero	0
    002176  0a   004763 000001    1283  	zero	dbl_p_int,1	dbl_p_int		564
    002177  aa   000000 000000    1284  	zero	0
    002200  0a   004764 000001    1285  	zero	real_p_real,1	real_p_real	565
    002201  aa   000000 000000    1286  	zero	0
    002202  0a   004456 000004    1287  	zero	size_ck_varying,4	size_ck_varying	566
    002203  aa   200000 000000    1288  	zero	q
    002204  0a   004462 000005    1289  	zero	size_ck_suffix,5	size_ck_suffix	567
    002205  aa   200000 000000    1290  	zero	q
    002206  0a   004477 000006    1291  	zero	move_3,6		move_3		568
    002207  aa   400000 000000    1292  	zero	a
    002210  0a   004505 000004    1293  	zero	move_odd_odd_3,4	move_odd_odd_3	569
    002211  aa   600000 000000    1294  	zero	aq
    002212  0a   004513 000006    1295  	zero	move_odd_odd_4,6	move_odd_odd_4	570
    002213  aa   600000 000000    1296  	zero	aq
    002214  0a   004505 000006    1297  	zero	move_odd_odd_5,6	move_odd_odd_5	571
    002215  aa   600000 000000    1298  	zero	aq
    002216  0a   004521 000005    1299  	zero	move_odd_even_3,5	move_odd_even_3	572
    002217  aa   600000 000000    1300  	zero	aq
    002220  0a   004526 000006    1301  	zero	move_odd_even_4,6	move_odd_even_4	573
    002221  aa   600000 000000    1302  	zero	aq
    002222  0a   004534 000005    1303  	zero	move_even_odd_3,5	move_even_odd_3	574
    002223  aa   600000 000000    1304  	zero	aq
    002224  0a   004541 000006    1305  	zero	move_even_odd_4,6	move_even_odd_4	575
    002225  aa   600000 000000    1306  	zero	aq
    002226  0a   004547 000004    1307  	zero	move_even_even_3,4	move_even_even_3	576
    002227  aa   600000 000000    1308  	zero	aq
    002230  0a   004553 000004    1309  	zero	move_even_even_4,4	move_even_even_4	577
    002231  aa   600000 000000    1310  	zero	aq
    002232  0a   004561 000006    1311  	zero	move_even_even_5,6	move_even_even_5	578
    002233  aa   600000 000000    1312  	zero	aq
    002234  0a   004553 000006    1313  	zero	move_even_even_6,6	move_even_even_6	579
    002235  aa   600000 000000    1314  	zero	aq
    002236  0a   004477 000002    1315  	zero	move_odd,2	move_odd		580
    002237  aa   400000 000000    1316  	zero	a
    002240  0a   004547 000002    1317  	zero	move_even,2	move_even		581
    002241  aa   600000 000000    1318  	zero	aq
    002242  0a   004475 000002    1319  	zero	size_ck_decimal,2	size_ck_decimal	582
    002243  aa   777770 000000    1320  	zero	all
    002244  0a   004573 000002    1321  	zero	xr_to_q,2		xr_to_q		583
    002245  aa   200000 000000    1322  	zero	q
    002246  0a   004577 000002    1323  	zero	packed_to_bp,2	packed_to_bp	584
    002247  aa   000020 000000    1324  	zero	bp
    002250  0a   004601 000001    1325  	zero	packed_bit_offset,1 packed_bit_offset	585
    002251  aa   200000 000000    1326  	zero	q
    002252  0a   004332 000001    1327  	zero	return_chars,1	return_chars	586
    002253  aa   000000 000000    1328  	zero	0
    002254  0a   004347 000001    1329  	zero	put_control,1	put_control	587
    002255  aa   000130 000000    1330  	zero	bases+x6
    002256  0a   004335 000001    1331  	zero	fetch_chars_eis,1	fetch_chars_eis	588
    002257  aa   600000 000000    1332  	zero	aq
    002260  0a   004334 000001    1333  	zero	fetch_bits_eis,1	fetch_bits_eis	589
    002261  aa   600000 000000    1334  	zero	aq
    002262  0a   004331 000001    1335  	zero	return_bits,1	return_bits	590
    002263  aa   000000 000000    1336  	zero	0
    002264  0a   004765 000001    1337  	zero	real_p_int,1	real_p_int	591
    002265  aa   000000 000000    1338  	zero	0
    002266  0a   004766 000001    1339  	zero	int_p_int,1	int_p_int		592
    002267  aa   000000 000000    1340  	zero	0
    002270  0a   004773 000005    1341  	zero	enable_file_2,5	enable_file_2	593
    002271  aa   600000 000000    1342  	zero	aq		(see macro)
    002272  0a   004605 000003    1343  	zero	ext_entry,3	ext_entry		594
    002273  aa   777770 000000    1344  	zero	all
    002274  0a   004610 000003    1345  	zero	ext_entry_desc,3	ext_entry_desc	595
    002275  aa   777770 000000    1346  	zero	all
    002276  0a   004613 000003    1347  	zero	int_entry,3	int_entry		596
    002277  aa   777770 000000    1348  	zero	all
    002300  0a   004616 000003    1349  	zero	int_entry_desc,3	int_entry_desc	597
    002301  aa   777770 000000    1350  	zero	all
    002302  0a   004621 000003    1351  	zero	val_entry,3	val_entry		598
    002303  aa   777770 000000    1352  	zero	all
    002304  0a   004624 000003    1353  	zero	val_entry_desc,3	val_entry_desc	599
    002305  aa   777770 000000    1354  	zero	all
    002306  0a   004166 000002    1355  	zero	off_mac_hard,2	off_mac_hard	600
    002307  aa   600000 000000    1356  	zero	aq
    002310  0a   004170 000002    1357  	zero	off_mac_hard_pk,2	off_mac_hard_pk	601
    002311  aa   600000 000000    1358  	zero	aq
    002312  0a   004571 000001    1359  	zero	pl1_ptr_easy,1	pl1_ptr_easy	602
    002313  aa   600020 000000    1360  	zero	aq+bp
    002314  0a   004572 000001    1361  	zero	pl1_ptr_easy_pk,1	pl1_ptr_easy_pk	603
    002315  aa   600020 000000    1362  	zero	aq+bp
    002316  0a   004567 000001    1363  	zero	pl1_ptr_hard,1	pl1_ptr_hard	604
    002317  aa   600020 000000    1364  	zero	aq+bp
    002320  0a   004570 000001    1365  	zero	pl1_ptr_hard_pk,1	pl1_ptr_hard_pk	605
    002321  aa   600020 000000    1366  	zero	aq+bp
    002322  0a   004767 000004    1367  	zero	enable_file,4	enable_file	606
    002323  aa   600000 000000    1368  	zero	aq		(see macro)
    002324  0a   005000 000003    1369  	zero	revert_file,3	revert_file	607
    002325  aa   600030 000000    1370  	zero	bp+lp+aq
    002326  0a   005003 000002    1371  	zero	alloc_block,2	alloc_block	608
    002327  aa   640030 000000    1372  	zero	bp+lp+aq+cr
    002330  0a   005005 000002    1373  	zero	free_block,2	free_block	609
    002331  aa   640030 000000    1374  	zero	bp+lp+aq+cr
    002332  0a   005007 000002    1375  	zero	push_ctl_data,2	push_ctl_data	610
    002333  aa   640030 000000    1376  	zero	bp+lp+aq+cr
    002334  0a   005011 000002    1377  	zero	push_ctl_desc,2	push_ctl_desc	611
    002335  aa   640030 000000    1378  	zero	bp+lp+aq+cr
    002336  0a   005013 000002    1379  	zero	pop_ctl_data,2	pop_ctl_data	612
    002337  aa   640030 000000    1380  	zero	bp+lp+aq+cr
    002340  0a   005015 000002    1381  	zero	pop_ctl_desc,2	pop_ctl_desc	613
    002341  aa   640030 000000    1382  	zero	bp+lp+aq+cr
    002342  0a   005017 000002    1383  	zero	allocation,2	allocation	614
    002343  aa   600020 000000    1384  	zero	bp+aq
    002344  aa   000000 3150 00   1385  	cana	0		and_for_test	615
    002345  aa   000000 000000    1386  	zero	0
    002346  0a   002760 000002    1387  	zero	ana_anq,2		and_for_test_odd	616
    002347  aa   600000 000000    1388  	zero	aq
    002350  aa   000000 3170 00   1389  	canaq	0		and_for_test_even	617
    002351  aa   000000 000000    1390  	zero	0
    002352  aa   000000 3514 00   1391  	epp1	0		load_ab		618
    002353  aa   000000 000000    1392  	zero	0
    002354  aa   000000 3534 00   1393  	epp3	0		load_bb		619
    002355  aa   000000 000000    1394  	zero	0
    002356  aa   000000 3714 00   1395  	epp5	0		load_lb		620
    002357  aa   000000 000000    1396  	zero	0
    002360  aa   000000 3734 00   1397  	epp7	0		load_sb		621
    002361  aa   000000 000000    1398  	zero	0
    002362  aa   000000 2514 00   1399  	spri1	0		store_ab		622
    002363  aa   000000 000000    1400  	zero	0
    002364  aa   000000 2534 00   1401  	spri3	0		store_bb		623
    002365  aa   000000 000000    1402  	zero	0
    002366  aa   000000 6514 00   1403  	spri5	0		store_lb		624
    002367  aa   000000 000000    1404  	zero	0
    002370  aa   000000 6534 00   1405  	spri7	0		store_sb		625
    002371  aa   000000 000000    1406  	zero	0
    002372  0a   005021 000002    1407  	zero	ab_to_aq,2	ab_to_aq		626
    002373  aa   600000 000000    1408  	zero	aq
    002374  0a   005023 000002    1409  	zero	bb_to_aq,2	bb_to_aq		627
    002375  aa   600000 000000    1410  	zero	aq
    002376  0a   005025 000002    1411  	zero	lb_to_aq,2	lb_to_aq		628
    002377  aa   600000 000000    1412  	zero	aq
    002400  0a   005027 000002    1413  	zero	sb_to_aq,2	sb_to_aq		629
    002401  aa   600000 000000    1414  	zero	aq
    002402  aa   000000 5420 00   1415  	sprpbp	0		store_packed_bp	630
    002403  aa   000000 000000    1416  	zero	0
    002404  aa   000000 5440 00   1417  	sprplp	0		store_packed_lp	631
    002405  aa   000000 000000    1418  	zero	0
    002406  aa   000000 5410 00   1419  	sprp1	0		store_packed_ab	632
    002407  aa   000000 000000    1420  	zero	0
    002410  aa   000000 5430 00   1421  	sprp3	0		store_packed_bb	633
    002411  aa   000000 000000    1422  	zero	0
    002412  aa   000000 5450 00   1423  	sprp5	0		store_packed_lb	634
    002413  aa   000000 000000    1424  	zero	0
    002414  aa   000000 5470 00   1425  	sprp7	0		store_packed_sb	635
    002415  aa   000000 000000    1426  	zero	0
    002416  aa   000000 7620 00   1427  	lprpbp	0		load_packed_bp	636
    002417  aa   000000 000000    1428  	zero	0
    002420  aa   000000 7640 00   1429  	lprplp	0		load_packed_lp	637
    002421  aa   000000 000000    1430  	zero	0
    002422  aa   000000 7610 00   1431  	lprp1	0		load_packed_ab	638
    002423  aa   000000 000000    1432  	zero	0
    002424  aa   000000 7630 00   1433  	lprp3	0		load_packed_bb	639
    002425  aa   000000 000000    1434  	zero	0
    002426  aa   000000 7650 00   1435  	lprp5	0		load_packed_lb	640
    002427  aa   000000 000000    1436  	zero	0
    002430  aa   000000 7670 00   1437  	lprp7	0		load_packed_sb	641
    002431  aa   000000 000000    1438  	zero	0
    002432  0a   005031 000001    1439  	zero	zero_bo_bp,1	zero_bo_bp	642
    002433  aa   000020 000000    1440  	zero	bp
    002434  0a   005036 000001    1441  	zero	abd,1		abd		643
    002435  aa   000000 000000    1442  	zero	0
    002436  0a   005037 000001    1443  	zero	a9bd,1		a9bd		644
    002437  aa   000000 000000    1444  	zero	0
    002440  aa   000000 0750 00   1445  	ada	0		ada		645
    002441  aa   400000 000000    1446  	zero	a
    002442  0a   004627 000003    1447  	zero	ss_ext_entry,3	ss_ext_entry	646
    002443  aa   777770 000000    1448  	zero	all
    002444  0a   004632 000003    1449  	zero	ss_ext_entry_desc,3 ss_ext_entry_desc	647
    002445  aa   777770 000000    1450  	zero	all
    002446  0a   004635 000003    1451  	zero	ss_int_entry,3	ss_int_entry	648
    002447  aa   777770 000000    1452  	zero	all
    002450  0a   004640 000003    1453  	zero	ss_int_entry_desc,3 ss_int_entry_desc	649
    002451  aa   777770 000000    1454  	zero	all
    002452  0a   004643 000003    1455  	zero	ss_val_entry,3	ss_val_entry	650
    002453  aa   777770 000000    1456  	zero	all
    002454  0a   004646 000003    1457  	zero	ss_val_entry_desc,3 ss_val_entry_desc	651
    002455  aa   777770 000000    1458  	zero	all
    002456  0a   004055 000001    1459  	zero	pointer_mac_c_ab,1	pointer_mac_c_ab	652
    002457  aa   000000 000000    1460  	zero	0
    002460  0a   004056 000001    1461  	zero	pointer_mac_c_bb,1	pointer_mac_c_bb	653
    002461  aa   000000 000000    1462  	zero	0
    002462  0a   004057 000001    1463  	zero	pointer_mac_c_lb,1	pointer_mac_c_lb	654
    002463  aa   000000 000000    1464  	zero	0
    002464  0a   004060 000001    1465  	zero	pointer_mac_c_sb,1	pointer_mac_c_sb	655
    002465  aa   000000 000000    1466  	zero	0
    002466  0a   004061 000001    1467  	zero	addrel_mac_c_ab,1	addrel_mac_c_ab	656
    002467  aa   000000 000000    1468  	zero	0
    002470  0a   004062 000001    1469  	zero	addrel_mac_c_bb,1	addrel_mac_c_bb	657
    002471  aa   000000 000000    1470  	zero	0
    002472  0a   004063 000001    1471  	zero	addrel_mac_c_lb,1	addrel_mac_c_lb	658
    002473  aa   000000 000000    1472  	zero	0
    002474  0a   004064 000001    1473  	zero	addrel_mac_c_sb,1	addrel_mac_c_sb	659
    002475  aa   000000 000000    1474  	zero	0
    002476  0a   003465 000001    1475  	zero	pointer_mac_bs_ab,1 pointer_mac_bs_ab	660
    002477  aa   000000 000000    1476  	zero	0
    002500  0a   003466 000001    1477  	zero	pointer_mac_fx_ab,1 pointer_mac_fx_ab	661
    002501  aa   000000 000000    1478  	zero	0
    002502  0a   003467 000001    1479  	zero	pointer_mac_bs_bb,1 pointer_mac_bs_bb	662
    002503  aa   000000 000000    1480  	zero	0
    002504  0a   003470 000001    1481  	zero	pointer_mac_fx_bb,1 pointer_mac_fx_bb	663
    002505  aa   000000 000000    1482  	zero	0
    002506  0a   003471 000001    1483  	zero	pointer_mac_bs_lb,1 pointer_mac_bs_lb	664
    002507  aa   000000 000000    1484  	zero	0
    002510  0a   003472 000001    1485  	zero	pointer_mac_fx_lb,1 pointer_mac_fx_lb	665
    002511  aa   000000 000000    1486  	zero	0
    002512  0a   003473 000001    1487  	zero	pointer_mac_bs_sb,1 pointer_mac_bs_sb	666
    002513  aa   000000 000000    1488  	zero	0
    002514  0a   003474 000001    1489  	zero	pointer_mac_fx_sb,1 pointer_mac_fx_sb	667
    002515  aa   000000 000000    1490  	zero	0
    002516  0a   003475 000001    1491  	zero	addrel_mac_bs_ab,1	addrel_mac_bs_ab	668
    002517  aa   000000 000000    1492  	zero	0
    002520  0a   003476 000001    1493  	zero	addrel_mac_fx_ab,1	addrel_mac_fx_ab	669
    002521  aa   000000 000000    1494  	zero	0
    002522  0a   003477 000001    1495  	zero	addrel_mac_bs_bb,1	addrel_mac_bs_bb	670
    002523  aa   000000 000000    1496  	zero	0
    002524  0a   003500 000001    1497  	zero	addrel_mac_fx_bb,1	addrel_mac_fx_bb	671
    002525  aa   000000 000000    1498  	zero	0
    002526  0a   003501 000001    1499  	zero	addrel_mac_bs_lb,1	addrel_mac_bs_lb	672
    002527  aa   000000 000000    1500  	zero	0
    002530  0a   003502 000001    1501  	zero	addrel_mac_fx_lb,1	addrel_mac_fx_lb	673
    002531  aa   000000 000000    1502  	zero	0
    002532  0a   003503 000001    1503  	zero	addrel_mac_bs_sb,1	addrel_mac_bs_sb	674
    002533  aa   000000 000000    1504  	zero	0
    002534  0a   003504 000001    1505  	zero	addrel_mac_fx_sb,1	addrel_mac_fx_sb	675
    002535  aa   000000 000000    1506  	zero	0
    002536  0a   003505 000002    1507  	zero	baseptr_mac_bs_ab,2 baseptr_mac_bs_ab	676
    002537  aa   000000 000000    1508  	zero	0
    002540  0a   003507 000002    1509  	zero	baseptr_mac_fx_ab,2 baseptr_mac_fx_ab	677
    002541  aa   000000 000000    1510  	zero	0
    002542  0a   003511 000002    1511  	zero	baseptr_mac_bs_bb,2 baseptr_mac_bs_bb	678
    002543  aa   000000 000000    1512  	zero	0
    002544  0a   003513 000002    1513  	zero	baseptr_mac_fx_bb,2 baseptr_mac_fx_bb	679
    002545  aa   000000 000000    1514  	zero	0
    002546  0a   003515 000002    1515  	zero	baseptr_mac_bs_lb,2 baseptr_mac_bs_lb	680
    002547  aa   000000 000000    1516  	zero	0
    002550  0a   003517 000002    1517  	zero	baseptr_mac_fx_lb,2 baseptr_mac_fx_lb	681
    002551  aa   000000 000000    1518  	zero	0
    002552  0a   003521 000002    1519  	zero	baseptr_mac_bs_sb,2 baseptr_mac_bs_sb	682
    002553  aa   000000 000000    1520  	zero	0
    002554  0a   003523 000002    1521  	zero	baseptr_mac_fx_sb,2 baseptr_mac_fx_sb	683
    002555  aa   000000 000000    1522  	zero	0
    002556  0a   005032 000001    1523  	zero	zero_bo_ab,1	zero_bo_ab	684
    002557  aa   000000 000000    1524  	zero	0
    002560  0a   005033 000001    1525  	zero	zero_bo_bb,1	zero_bo_bb	685
    002561  aa   000000 000000    1526  	zero	0
    002562  0a   005034 000001    1527  	zero	zero_bo_lb,1	zero_bo_lb	686
    002563  aa   000000 000000    1528  	zero	0
    002564  0a   005035 000001    1529  	zero	zero_bo_sb,1	zero_bo_sb	687
    002565  aa   000000 000000    1530  	zero	0
    002566  aa   000000 3760 00   1531  	anq	0		anq		688
    002567  aa   200000 000000    1532  	zero	q
    002570  aa   000000 6760 00   1533  	erq	0		erq		689
    002571  aa   200000 000000    1534  	zero	q
    002572  aa   000000 6560 00   1535  	ersq	0		ersq		690
    002573  aa   000000 000000    1536  	zero	0
    002574  0a   005133 000005    1537  	zero	charno_mac,5	charno_mac	691
    002575  aa   600000 000000    1538  	zero	aq
    002576  0a   005140 000006    1539  	zero	bitno_mac,6	bitno_mac		692
    002577  aa   600000 000000    1540  	zero      aq
    002600  aa   000000 000000    1541  	zero	0		UNUSED		693
    002601  aa   000000 000000    1542  	zero	0
    002602  aa   000000 000000    1543  	zero	0		UNUSED		694
    002603  aa   000000 000000    1544  	zero	0
    002604  0a   005044 000002    1545  	zero	alloc_based_mac,2	alloc_based_mac	695
    002605  aa   000000 000000    1546  	zero	0
    002606  0a   005046 000001    1547  	zero	free_based_mac,1	free_based_mac	696
    002607  aa   000000 000000    1548  	zero	0
    002610  0a   005047 000001    1549  	zero	empty_area_mac,1	empty_area_mac	697
    002611  aa   000000 000000    1550  	zero	0
    002612  0a   004471 000004    1551  	zero	size_ck_suffix_1,4	size_ck_suffix_1	698
    002613  aa   000000 000000    1552  	zero	0
    002614  0a   005050 000001    1553  	zero	long_profile_mac,1	long_profile_mac	699
    002615  aa   000000 000000    1554  	zero	0
    002616  0a   005051 000001    1555  	zero	ix_before_chars,1	ix_before_chars	700
    002617  aa   700020 000000    1556  	zero	aq+bp+sr
    002620  0a   005052 000001    1557  	zero	ix_before_bits,1	ix_before_bits	701
    002621  aa   700020 000000    1558  	zero	aq+bp+sr
    002622  0a   005053 000001    1559  	zero	ix_after_chars,1	ix_after_chars	702
    002623  aa   700020 000000    1560  	zero	aq+bp+sr
    002624  0a   005054 000001    1561  	zero	ix_after_bits,1	ix_after_bits	703
    002625  aa   700020 000000    1562  	zero	aq+bp+sr
    002626  0a   004074 000005    1563  	zero	ix_before_chars_1,5 ix_before_chars_1	704
    002627  aa   200000 100000    1564  	zero	q,compare
    002630  0a   005055 000001    1565  	zero	ix_before_bits_1,1	ix_before_bits_1	705
    002631  aa   700020 000000    1566  	zero	aq+bp+sr
    002632  0a   005056 000007    1567  	zero	ix_after_chars_1,7	ix_after_chars_1	706
    002633  aa   200000 100000    1568  	zero	q,compare
    002634  0a   005065 000001    1569  	zero	ix_after_bits_1,1	ix_after_bits_1	707
    002635  aa   700020 000000    1570  	zero	aq+bp+sr
    002636  0a   005066 000007    1571  	zero	ix_before_chars_2,7 ix_before_chars_2	708
    002637  aa   200000 100000    1572  	zero	q,compare
    002640  0a   005075 000010    1573  	zero	ix_after_chars_2,8	ix_after_chars_2	709
    002641  aa   200000 100000    1574  	zero	q,compare
    002642  0a   005105 000001    1575  	zero	verify_ltrim,1	verify_ltrim	710
    002643  aa   300000 000000    1576  	zero	q+sr
    002644  0a   005106 000001    1577  	zero	verify_rtrim,1	verify_rtrim	711
    002645  aa   300000 000000    1578  	zero	q+sr
    002646  0a   004667 000006    1579  	zero	verify_ltrim_inline,6 verify_ltrim_inline 712
    002647  aa   200000 100000    1580  	zero	q,compare
    002650  0a   004700 000006    1581  	zero	verify_rtrim_inline,6 verify_rtrim_inline 713
    002651  aa   200000 100000    1582  	zero	q,compare
    002652  aa   000000 7400 00   1583  	stx0	0		stx0		714
    002653  aa   000000 000000    1584  	zero	0
    002654  aa   000000 7410 00   1585  	stx1	0		stx1		715
    002655  aa   000000 000000    1586  	zero	0
    002656  aa   000000 7420 00   1587  	stx2	0		stx2		716
    002657  aa   000000 000000    1588  	zero	0
    002660  aa   000000 7430 00   1589  	stx3	0		stx3		717
    002661  aa   000000 000000    1590  	zero	0
    002662  aa   000000 7440 00   1591  	stx4	0		stx4		718
    002663  aa   000000 000000    1592  	zero	0
    002664  aa   000000 7450 00   1593  	stx5	0		stx5		719
    002665  aa   000000 000000    1594  	zero	0
    002666  aa   000000 7460 00   1595  	stx6	0		stx6		720
    002667  aa   000000 000000    1596  	zero	0
    002670  aa   000000 7470 00   1597  	stx7	0		stx7		721
    002671  aa   000000 000000    1598  	zero	0
    002672  0a   005107 000002    1599  	zero	stacq_mac,2	stacq_mac		722
    002673  aa   600000 000000    1600  	zero	aq
    002674  0a   005111 000001    1601  	zero	clock_mac,1	clock_mac		723
    002675  aa   600010 000000    1602  	zero	aq+lp		(also pr7)
    002676  0a   005112 000001    1603  	zero	vclock_mac,1	vclock_mac	724
    002677  aa   600030 000000    1604  	zero	aq+bp+lp		(also pr7)
    002700  aa   000000 7310 00   1605  	ars	0		ars		725
    002701  aa   400000 000000    1606  	zero	a
    002702  0a   005113 000001    1607  	zero	stop_mac,1	stop_mac		726
    002703  aa   000000 000000    1608  	zero	0
    002704  0a   005114 000001    1609  	zero	return_main_mac,1	return_main_mac	727
    002705  aa   000000 000000    1610  	zero	0
    002706  0a   005115 000001    1611  	zero	set_main_mac,1	set_main_mac	728
    002707  aa   000000 000000    1612  	zero	0
    002710  0a   003764 000002    1613  	zero	begin_return_main,2 begin_return_main	729
    002711  aa   777770 000000    1614  	zero	all
    002712  aa   000000 5460 00   1615  	sprp6	0		store_packed_sp	730
    002713  aa   000000 000000    1616  	zero	0
    002714  0a   004454 000001    1617  	zero	size_check_uns_fx1,1 size_check_uns_fx1 731
    002715  aa   000000 000000    1618  	zero	0
    002716  0a   004455 000001    1619  	zero	size_check_uns_fx2,1 size_check_uns_fx2 732
    002717  aa   000000 000000    1620  	zero	0
    002720  0a   004012 000002    1621  	zero	uns_fx1_to_bs,2	uns_fx1_to_bs	733
    002721  aa   400000 000000    1622  	zero	a
    002722  0a   004014 000002    1623  	zero	uns_fx2_to_bs,2	uns_fx2_to_bs	734
    002723  aa   600000 000000    1624  	zero	aq
    002724  0a   004575 000002    1625  	zero	xr18_to_q,2	xr18_to_q		735
    002725  aa   200000 000000    1626  	zero	q
    002726  0a   005040 000001    1627  	zero	a4bd,1		a4bd		736
    002727  aa   000000 000000    1628  	zero	0
    002730  0a   003230 000003    1629  	zero	abs_decimal_4bit,3	abs_decimal_4bit	737
    002731  aa   020000 000000    1630  	zero	dr
    002732  0a   003271 000002    1631  	zero	digit_to_bit,2	digit_to_bit	738
    002733  aa   600000 000000    1632  	zero	aq
    002734  0a   005116 000003    1633  	zero	zero_4bcs,3	zero_4bcs		739
    002735  aa   020000 000000    1634  	zero	dr
    002736  0a   005121 000003    1635  	zero	rank_eis_mac,3	rank_eis_mac	740
    002737  aa   000000 000000    1636  	zero	0
    002740  0a   005124 000003    1637  	zero	prepare_call_long,3 prepare_call_long	741
    002741  aa   600000 000000    1638  	zero	aq
    002742  0a   005127 000004    1639  	zero	prepare_quick_call_long,4	prepare_quick_call_long	742
    002743  aa   600020 000000    1640  	zero	bp+aq
                                  1641  	"
    002744                        1642  macro_count:
    002744  aa   000000 001346    1643  	vfd	36/(*-macro_table)/2 all macros must precede this line
                                  1644  "
                                  1645  " definitions of multi_word macros
                                  1646  "
    002745                        1647  lda_ldq:
    002745  aa   010000 2350 00   1648  	lda	arg1
    002746  aa   010001 2360 00   1649  	ldq	arg1+1
    002747                        1650  sta_stq:
    002747  aa   010000 7550 00   1651  	sta	arg1
    002750  aa   010001 7560 00   1652  	stq	arg1+1
    002751                        1653  lcfl1:
    002751  aa   010000 4310 00   1654  	fld	arg1
    002752                        1655  fneg:
    002752  aa   000000 5130 00   1656  	fneg
    002753                        1657  lcfl2:
    002753  aa   010000 4330 00   1658  	dfld	arg1
    002754  aa   000000 5130 00   1659  	fneg
    002755                        1660  sbfx3:
    002755  aa   010000 0330 00   1661  	adl	arg1
    002756                        1662  negl:
    002756  aa   000000 5330 00   1663  	negl
    002757                        1664  neg:
    002757  aa   000000 5310 00   1665  	neg
    002760                        1666  ana_anq:
    002760  aa   010000 3750 00   1667  	ana	arg1
    002761  aa   010001 3760 00   1668  	anq	arg1+1
    002762                        1669  ansa_ansq:
    002762  aa   010000 3550 00   1670  	ansa	arg1
    002763  aa   010001 3560 00   1671  	ansq	arg1+1
    002764                        1672  ora_orq:
    002764  aa   010000 2750 00   1673  	ora	arg1
    002765  aa   010001 2760 00   1674  	orq	arg1+1
    002766                        1675  orsa_orsq:
    002766  aa   010000 2550 00   1676  	orsa	arg1
    002767  aa   010001 2560 00   1677  	orsq	arg1+1
    002770                        1678  era_erq:
    002770  aa   010000 6750 00   1679  	era	arg1
    002771  aa   010001 6760 00   1680  	erq	arg1+1
    002772                        1681  ersa_ersq:
    002772  aa   010000 6550 00   1682  	ersa	arg1
    002773  aa   010001 6560 00   1683  	ersq	arg1+1
    002774                        1684  clear_aq:
    002774  aa   000000 4310 07   1685  	fld	0,dl
    002775                        1686  clear_q:
    002775  aa   000000 2360 07   1687  	ldq	0,dl
    002776                        1688  fx1_to_fx2:
    002776  aa   000044 7770 00   1689  	llr	36
    002777  aa   000044 7330 00   1690  	lrs	36
    003000                        1691  alloc_char_temp:
    003000  aa  0 00551 7001 00   1692  	tsx0	ap|op_vec+0
    003001                        1693  alloc_bit_temp:
    003001  aa  0 00552 7001 00   1694  	tsx0	ap|op_vec+1
    003002                        1695  alloc_temp:
    003002  aa  0 00553 7001 00   1696  	tsx0	ap|op_vec+2
    003003                        1697  realloc_char_temp:
    003003  aa  0 00554 7001 00   1698  	tsx0	ap|op_vec+3
    003004                        1699  realloc_bit_temp:
    003004  aa  0 00555 7001 00   1700  	tsx0	ap|op_vec+4
    003005                        1701  store_string:
    003005  aa  0 00605 7001 00   1702  	tsx0	ap|op_vec+28
    003006                        1703  cat_realloc_char:
    003006  aa  0 00606 7001 00   1704  	tsx0	ap|op_vec+29
    003007                        1705  cat_realloc_bit:
    003007  aa  0 00607 7001 00   1706  	tsx0	ap|op_vec+30
    003010                        1707  chars_move_vt:
    003010                        1708  chars_move:
    003010                        1709  move_chars:
    003010                        1710  cat_move_chars:
    003010  aa   040000 1004 00   1711  	mlr	(0),(0),fill(blank)
    003011  aa   020000 020000    1712  	zero	arg2,char
    003012  aa   010000 020000    1713  	zero	arg1,char
    003013                        1714  bits_move_vt:
    003013                        1715  bits_move:
    003013                        1716  copy_bits:
    003013                        1717  move_bits:
    003013                        1718  cat_move_bits:
    003013  aa   003000 0604 00   1719  	csl	(0),(0),bool(move)
    003014  aa   020000 030000    1720  	zero	arg2,bit
    003015  aa   010000 030000    1721  	zero	arg1,bit
    003016                        1722  move_cs_load_1:
    003016  aa   000000 1004 00   1723  	mlr	(0),(0),fill(0)
    003017  aa   020000 020000    1724  	zero	arg2,char
    003020  aa   010000 020004    1725  	zero	arg1,char+4
    003021                        1726  move_bs_load_1:
    003021  aa   003000 0604 00   1727  	csl	(0),(0),bool(move)
    003022  aa   020000 030000    1728  	zero	arg2,bit
    003023  aa   010000 030044    1729  	zero	arg1,bit+36
    003024                        1730  move_cs_load_2:
    003024  aa   000000 1004 00   1731  	mlr	(0),(0),fill(0)
    003025  aa   020000 020000    1732  	zero	arg2,char
    003026  aa   010000 020010    1733  	zero	arg1,char+8
    003027                        1734  move_bs_load_2:
    003027  aa   003000 0604 00   1735  	csl	(0),(0),bool(move)
    003030  aa   020000 030000    1736  	zero	arg2,bit
    003031  aa   010000 030110    1737  	zero	arg1,bit+72
    003032                        1738  save_string_aq:
    003032  aa  0 00000 1005 00   1739  	mlr	(pr),(0),fill(0)
    003033  aa   600050 000010    1740  	desc9a	sp|40,8
    003034  aa   010000 020010    1741  	zero	arg1,char+8
    003035                        1742  move_not:
    003035  aa   014000 0604 00   1743  	csl	(0),(0),bool(not)
    003036  aa   020000 030000    1744  	zero	arg2,bit
    003037  aa   010000 030000    1745  	zero	arg1,bit
    003040                        1746  move_and:
    003040  aa   001000 0604 00   1747  	csl	(0),(0),bool(and)
    003041  aa   020000 030000    1748  	zero	arg2,bit
    003042  aa   010000 030000    1749  	zero	arg1,bit
    003043                        1750  move_or:
    003043  aa   007000 0604 00   1751  	csl	(0),(0),bool(or)
    003044  aa   020000 030000    1752  	zero	arg2,bit
    003045  aa   010000 030000    1753  	zero	arg1,bit
    003046                        1754  move_andnot_0:
    003046  aa   002000 0604 00   1755  	csl	(0),(0),bool(02)
    003047  aa   020000 030000    1756  	zero	arg2,bit
    003050  aa   010000 030000    1757  	zero	arg1,bit
    003051                        1758  move_andnot_1:
    003051  aa   404000 0604 00   1759  	csl	(0),(0),bool(04),fill(1)	"forces zeroes in result if source shorter
    003052  aa   020000 030000    1760  	zero	arg2,bit
    003053  aa   010000 030000    1761  	zero	arg1,bit
    003054                        1762  test_bits:
    003054  aa   003000 0644 00   1763  	sztl	(0),(0),bool(move)
    003055  aa   020000 030000    1764  	zero	arg2,bit
    003056  aa   010000 030000    1765  	zero	arg1,bit
    003057                        1766  test_not:
    003057  aa   014000 0644 00   1767  	sztl	(0),(0),bool(not)
    003060  aa   020000 030000    1768  	zero	arg2,bit
    003061  aa   010000 030000    1769  	zero	arg1,bit
    003062                        1770  test_and:
    003062  aa   001000 0644 00   1771  	sztl	(0),(0),bool(and)
    003063  aa   020000 030000    1772  	zero	arg2,bit
    003064  aa   010000 030000    1773  	zero	arg1,bit
    003065                        1774  test_or:
    003065  aa   007000 0644 00   1775  	sztl	(0),(0),bool(or)
    003066  aa   020000 030000    1776  	zero	arg2,bit
    003067  aa   010000 030000    1777  	zero	arg1,bit
    003070                        1778  test_xor:
    003070  aa   006000 0644 00   1779  	sztl	(0),(0),bool(xor)
    003071  aa   020000 030000    1780  	zero	arg2,bit
    003072  aa   010000 030000    1781  	zero	arg1,bit
    003073                        1782  test_andnot_0:
    003073  aa   002000 0644 00   1783  	sztl	(0),(0),bool(02)
    003074  aa   020000 030000    1784  	zero	arg2,bit
    003075  aa   010000 030000    1785  	zero	arg1,bit
    003076                        1786  test_andnot_1:
    003076  aa   404000 0644 00   1787  	sztl	(0),(0),bool(04),fill(1)	"forces zeroes  in result if source shorter
    003077  aa   020000 030000    1788  	zero	arg2,bit
    003100  aa   010000 030000    1789  	zero	arg1,bit
    003101                        1790  move_decimal:
    003101                        1791  move_numeric:
    003101  aa   000000 3004 00   1792  	mvn	(0),(0)
    003102  aa   020000 010000    1793  	zero	arg2,dec
    003103  aa   010000 010000    1794  	zero	arg1,dec
    003104                        1795  move_decimal_rd:
    003104  aa   000200 3004 00   1796  	mvn	(0),(0),round
    003105  aa   020000 010000    1797  	zero	arg2,dec
    003106  aa   010000 010000    1798  	zero	arg1,dec
    003107                        1799  add_decimal:
    003107  aa   000000 2224 00   1800  	ad3d	(0),(0),(0)
    003110  aa   020000 010000    1801  	zero	arg2,dec
    003111  aa   030000 010000    1802  	zero	arg3,dec
    003112  aa   010000 010000    1803  	zero	arg1,dec
    003113                        1804  add_decimal_rd:
    003113  aa   000200 2224 00   1805  	ad3d	(0),(0),(0),round
    003114  aa   020000 010000    1806  	zero	arg2,dec
    003115  aa   030000 010000    1807  	zero	arg3,dec
    003116  aa   010000 010000    1808  	zero	arg1,dec
    003117                        1809  add_decimal_2:
    003117  aa   000000 2024 00   1810  	ad2d	(0),(0)
    003120  aa   020000 010000    1811  	zero	arg2,dec
    003121  aa   010000 010000    1812  	zero	arg1,dec
    003122                        1813  add_decimal_2_rd:
    003122  aa   000200 2024 00   1814  	ad2d	(0),(0),round
    003123  aa   020000 010000    1815  	zero	arg2,dec
    003124  aa   010000 010000    1816  	zero	arg1,dec
    003125                        1817  sub_decimal:
    003125  aa   000000 2234 00   1818  	sb3d	(0),(0),(0)
    003126  aa   030000 010000    1819  	zero	arg3,dec
    003127  aa   020000 010000    1820  	zero	arg2,dec
    003130  aa   010000 010000    1821  	zero	arg1,dec
    003131                        1822  sub_decimal_rd:
    003131  aa   000200 2234 00   1823  	sb3d	(0),(0),(0),round
    003132  aa   030000 010000    1824  	zero	arg3,dec
    003133  aa   020000 010000    1825  	zero	arg2,dec
    003134  aa   010000 010000    1826  	zero	arg1,dec
    003135                        1827  sub_decimal_2:
    003135  aa   000000 2034 00   1828  	sb2d	(0),(0)
    003136  aa   020000 010000    1829  	zero	arg2,dec
    003137  aa   010000 010000    1830  	zero	arg1,dec
    003140                        1831  sub_decimal_2_rd:
    003140  aa   000200 2034 00   1832  	sb2d	(0),(0),round
    003141  aa   020000 010000    1833  	zero	arg2,dec
    003142  aa   010000 010000    1834  	zero	arg1,dec
    003143                        1835  mult_decimal:
    003143  aa   000000 2264 00   1836  	mp3d	(0),(0),(0)
    003144  aa   020000 010000    1837  	zero	arg2,dec
    003145  aa   030000 010000    1838  	zero	arg3,dec
    003146  aa   010000 010000    1839  	zero	arg1,dec
    003147                        1840  mult_decimal_rd:
    003147  aa   000200 2264 00   1841  	mp3d	(0),(0),(0),round
    003150  aa   020000 010000    1842  	zero	arg2,dec
    003151  aa   030000 010000    1843  	zero	arg3,dec
    003152  aa   010000 010000    1844  	zero	arg1,dec
    003153                        1845  mult_decimal_2:
    003153  aa   000000 2064 00   1846  	mp2d	(0),(0)
    003154  aa   020000 010000    1847  	zero	arg2,dec
    003155  aa   010000 010000    1848  	zero	arg1,dec
    003156                        1849  mult_decimal_2_rd:
    003156  aa   000200 2064 00   1850  	mp2d	(0),(0),round
    003157  aa   020000 010000    1851  	zero	arg2,dec
    003160  aa   010000 010000    1852  	zero	arg1,dec
                                  1853  "
                                  1854  "	At present, the hardware does rounding on floating point decimal division incorrectly,
                                  1855  "	so we don't actually generate a divide with the round bit on.
                                  1856  "
    003161                        1857  div_decimal:
    003161                        1858  div_decimal_rd:
    003161  aa   000000 2274 00   1859  	dv3d	(0),(0),(0)
    003162  aa   030000 010000    1860  	zero	arg3,dec
    003163  aa   020000 010000    1861  	zero	arg2,dec
    003164  aa   010000 010000    1862  	zero	arg1,dec
    003165                        1863  div_decimal_2:
    003165                        1864  div_decimal_2_rd:
    003165  aa   000000 2074 00   1865  	dv2d	(0),(0)
    003166  aa   020000 010000    1866  	zero	arg2,dec
    003167  aa   010000 010000    1867  	zero	arg1,dec
    003170                        1868  compare_decimal:
    003170  aa   000000 3034 00   1869  	cmpn	(0),(0)
    003171  aa   020000 010000    1870  	zero	arg2,dec
    003172  aa   010000 010000    1871  	zero	arg1,dec
    003173                        1872  move_numeric_edit:
    003173  aa   000000 0244 00   1873  	mvne	(0),(0),(0)
    003174  aa   020000 010000    1874  	zero	arg2,dec
    003175  aa   030000 020000    1875  	zero	arg3,char
    003176  aa   010000 020000    1876  	zero	arg1,char
    003177                        1877  pic_test:
    003177  aa   000000 3034 00   1878  	cmpn	(0),(0)
    003200  aa   010000 010000    1879  	zero	arg1,dec
    003201  aa   020000 010000    1880  	zero	arg2,dec
    003202  aa   030000 6000 00   1881  	tze	arg3
    003203                        1882  dtb_1:
    003203  aa   000000 3054 00   1883  	dtb	(0),(0)
    003204  aa   020000 010000    1884  	zero	arg2,dec
    003205  aa   010000 020004    1885  	zero	arg1,char+4
    003206                        1886  dtb_2:
    003206  aa   000000 3054 00   1887  	dtb	(0),(0)
    003207  aa   020000 010000    1888  	zero	arg2,dec
    003210  aa   010000 020010    1889  	zero	arg1,char+8
    003211                        1890  btd_1:
    003211  aa   000000 3014 00   1891  	btd	(0),(0)
    003212  aa   020000 020004    1892  	zero	arg2,char+4
    003213  aa   010000 010000    1893  	zero	arg1,dec
    003214                        1894  btd_2:
    003214  aa   000000 3014 00   1895  	btd	(0),(0)
    003215  aa   020000 020010    1896  	zero	arg2,char+8
    003216  aa   010000 010000    1897  	zero	arg1,dec
    003217                        1898  mpcdec:
    003217  aa   010000 3520 00   1899  	epp2	arg1
    003220  aa  0 01361 7001 00   1900  	tsx0	ap|op_vec+392
    003221                        1901  dvcdec:
    003221  aa   010000 3520 00   1902  	epp2	arg1
    003222  aa  0 01362 7001 00   1903  	tsx0	ap|op_vec+393
    003223                        1904  dvrcdec:
    003223  aa   010000 3520 00   1905  	epp2	arg1
    003224  aa  0 01363 7001 00   1906  	tsx0	ap|op_vec+394
    003225                        1907  abs_decimal:
    003225  aa   053000 1004 00   1908  	mlr	(0),(0),fill(plus)
    003226  aa   000000 000000    1909  	zero	0
    003227  aa   010000 020001    1910  	zero	arg1,char+1
    003230                        1911  abs_decimal_4bit:
    003230  aa   053000 1004 00   1912  	mlr	(0),(0),fill(plus)
    003231  aa   000000 000000    1913  	zero	0
    003232  aa   010000 040001    1914  	zero	arg1,char4+1
    003233                        1915  min_dec:
    003233  aa   000000 3034 00   1916  	cmpn	(0),(0)
    003234  aa   020000 010000    1917  	zero	arg2,dec
    003235  aa   010000 010000    1918  	zero	arg1,dec
    003236  aa   000004 6044 04   1919  	tmoz	4,ic
    003237                        1920  max_dec:
    003237  aa   000000 3034 00   1921  	cmpn	(0),(0)
    003240  aa   020000 010000    1922  	zero	arg2,dec
    003241  aa   010000 010000    1923  	zero	arg1,dec
    003242  aa   000004 6050 04   1924  	tpl	4,ic
    003243                        1925  ceil_dec:
    003243  aa   010000 3520 00   1926  	epp2	arg1
    003244  aa  0 01364 7001 00   1927  	tsx0	ap|op_vec+395
    003245                        1928  floor_dec:
    003245  aa   010000 3520 00   1929  	epp2	arg1
    003246  aa  0 01365 7001 00   1930  	tsx0	ap|op_vec+396
    003247                        1931  sign_dec:
    003247  aa   010000 3520 00   1932  	epp2	arg1
    003250  aa  0 01366 7001 00   1933  	tsx0	ap|op_vec+397
    003251                        1934  abs_cdec:
    003251  aa   010000 3520 00   1935  	epp2	arg1
    003252  aa  0 01367 7001 00   1936  	tsx0	ap|op_vec+398
    003253                        1937  trunc_dec:
    003253  aa   010000 3520 00   1938  	epp2	arg1
    003254  aa  0 01370 7001 00   1939  	tsx0	ap|op_vec+399
    003255                        1940  mod_dec:
    003255  aa   010000 3520 00   1941  	epp2	arg1
    003256  aa  0 01371 7001 00   1942  	tsx0	ap|op_vec+400
    003257                        1943  comp_bits:
    003257  aa  0 00575 7001 00   1944  	tsx0	ap|op_vec+20
    003260                        1945  support_mac:
    003260  aa  0 01372 7001 00   1946  	tsx0	ap|op_vec+401
    003261                        1947  a_to_x0:
    003261  aa   000000 6200 05   1948  	eax0	0,al
    003262                        1949  b2c_mac:
    003262  aa   000010 0760 07   1950  	adq	8,dl
    003263  aa   000011 5060 07   1951  	div	9,dl
    003264                        1952  b2w_mac:
    003264  aa   000043 0760 07   1953  	adq	35,dl
    003265  aa   000044 5060 07   1954  	div	36,dl
    003266                        1955  c2b_mac:
    003266  aa   000011 4020 07   1956  	mpy	9,dl
    003267                        1957  c2w_mac:
    003267  aa   000003 0760 07   1958  	adq	3,dl
    003270  aa   000002 7320 00   1959  	qrs	2
    003271                        1960  digit_to_bit:
    003271  aa   000011 4020 07   1961  	mpy	9,dl
    003272  aa   000001 7320 00   1962  	qrs	1
    003273                        1963  pf_mac:
    003273  aa   000011 7320 00   1964  	qrs	9
    003274  aa   000777 3760 07   1965  	anq	=o777,dl
    003275                        1966  so_mac:
    003275  aa  0 00661 7001 00   1967  	tsx0	ap|op_vec+72
    003276  aa   010000 2520 00   1968  	spribp	arg1
    003277                        1969  longbs_to_bs18:
    003277  aa  0 00662 7001 00   1970  	tsx0	ap|op_vec+73
    003300                        1971  mod_bit_mac:
    003300  aa   000044 5060 07   1972  	div	36,dl
    003301                        1973  mod2_mac:
    003301  aa   000001 0760 07   1974  	adq	1,dl
    003302  aa   777776 3760 07   1975  	anq	=o777776,dl
    003303                        1976  mod4_mac:
    003303  aa   000003 0760 07   1977  	adq	3,dl
    003304  aa   777774 3760 07   1978  	anq	=o777774,dl
    003305                        1979  mod8_mac:
    003305  aa   000007 0760 07   1980  	adq	7,dl
    003306  aa   777770 3760 07   1981  	anq	=o777770,dl
    003307                        1982  mod16_mac:
    003307  aa   000017 0760 07   1983  	adq	15,dl
    003310  aa   777760 3760 07   1984  	anq	=o777760,dl
    003311                        1985  translate_2:
    003311  aa  0 01272 7001 00   1986  	tsx0	ap|op_vec+337
    003312                        1987  translate_3:
    003312  aa  0 01273 7001 00   1988  	tsx0	ap|op_vec+338
    003313                        1989  inline_translate:
    003313  aa   040000 1604 00   1990  	mvt	(0),(0),fill(blank)
    003314  aa   020000 020000    1991  	zero	arg2,char
    003315  aa   010000 020000    1992  	zero	arg1,char
    003316  aa   030000 000000    1993  	zero	arg3,addr
    003317                        1994  ext_and_1:
    003317  aa  0 00573 7001 00   1995  	tsx0	ap|op_vec+18
    003320                        1996  ext_and_2:
    003320  aa  0 00574 7001 00   1997  	tsx0	ap|op_vec+19
    003321                        1998  fx1_to_fl2:
    003321  aa  0 00465 7001 00   1999  	tsx0	ap|fx1_to_fl2_
    003322                        2000  trunc_fl:
    003322  aa  0 01124 7001 00   2001  	tsx0	ap|op_vec+235
    003323                        2002  fl2_to_fx1:
    003323  aa  0 00654 7001 00   2003  	tsx0	ap|op_vec+67
    003324                        2004  fx2_to_fl2:
    003324  aa   216000 4110 03   2005  	lde	=71b25,du
    003325  aa   400000 4750 03   2006  	fad	=0.,du
    003326                        2007  fl2_to_fx2:
    003326  aa  0 00655 7001 00   2008  	tsx0	ap|op_vec+68
    003327                        2009  longbs_to_fx2:
    003327  aa  0 00656 7001 00   2010  	tsx0	ap|op_vec+69
    003330                        2011  longbs_to_fl2:
    003330  aa  0 00656 7001 00   2012  	tsx0	ap|op_vec+69
    003331  aa   000044 7770 00   2013  	llr	36
    003332  aa   000044 7330 00   2014  	lrs	36
    003333                        2015  blank_q:
    003333  aa  0 00440 2361 00   2016  	ldq	ap|blanks_
    003334                        2017  cpcs1_odd:
    003334                        2018  cpbs2_odd:
    003334  aa   010000 1150 00   2019  	cmpa	arg1
    003335  aa   000002 6010 04   2020  	tnz	2,ic
    003336  aa   010001 1160 00   2021  	cmpq	arg1+1
    003337                        2022  cpcs_ext1:
    003337  aa  0 00601 7001 00   2023  	tsx0	ap|op_vec+24
    003340                        2024  cpcs_ext2:
    003340  aa  0 00602 7001 00   2025  	tsx0	ap|op_vec+25
    003341                        2026  cpbs1_odd:
    003341  aa   010000 1150 00   2027  	cmpa	arg1
    003342  aa   000002 6010 04   2028  	tnz	2,ic
    003343  aa   010001 2340 00   2029  	szn	arg1+1
    003344                        2030  cpbs1_even:
    003344  aa   000000 2360 03   2031  	ldq	0,du
    003345  aa   010000 1170 00   2032  	cmpaq	arg1
    003346                        2033  cpbs2:
    003346  aa   010000 1150 00   2034  	cmpa	arg1
    003347  aa   000002 6010 04   2035  	tnz	2,ic
    003350  aa   000000 1160 03   2036  	cmpq	0,du
    003351                        2037  cpbs_ext1:
    003351  aa  0 00603 7001 00   2038  	tsx0	ap|op_vec+26
    003352                        2039  cpbs_ext2:
    003352  aa  0 00604 7001 00   2040  	tsx0	ap|op_vec+27
    003353                        2041  cpbs3:
    003353  aa   000000 0664 00   2042  	cmpb	(0),(0)
    003354  aa   010000 030000    2043  	zero	arg1,bit
    003355  aa   000000 000000    2044  	zero	0
    003356                        2045  cp_chars:
    003356  aa   040000 1064 00   2046  	cmpc	(0),(0),fill(blank)
    003357  aa   010000 020000    2047  	zero	arg1,char
    003360  aa   020000 020000    2048  	zero	arg2,char
    003361                        2049  cp_bits:
    003361  aa   000000 0664 00   2050  	cmpb	(0),(0),fill(0)
    003362  aa   010000 030000    2051  	zero	arg1,bit
    003363  aa   020000 030000    2052  	zero	arg2,bit
    003364                        2053  r_l_a:
    003364  aa  0 00474 7001 00   2054  	tsx0	ap|r_l_a_
    003365                        2055  r_l_s:
    003365  aa  0 00507 7001 00   2056  	tsx0	ap|r_l_s_
    003366                        2057  r_g_a:
    003366  aa  0 00503 7001 00   2058  	tsx0	ap|r_g_a_
    003367                        2059  r_g_s:
    003367  aa  0 00477 7001 00   2060  	tsx0	ap|r_g_s_
    003370                        2061  r_e_as:
    003370  aa  0 00512 7001 00   2062  	tsx0	ap|r_e_as_
    003371                        2063  r_ne_as:
    003371  aa  0 00515 7001 00   2064  	tsx0	ap|r_ne_as_
    003372                        2065  r_le_a:
    003372  aa  0 00520 7001 00   2066  	tsx0	ap|r_le_a_
    003373                        2067  r_le_s:
    003373  aa  0 00532 7001 00   2068  	tsx0	ap|r_le_s_
    003374                        2069  r_ge_a:
    003374  aa  0 00527 7001 00   2070  	tsx0	ap|r_ge_a_
    003375                        2071  r_ge_s:
    003375  aa  0 00524 7001 00   2072  	tsx0	ap|r_ge_s_
    003376                        2073  tra_ext_1:
    003376  aa  0 00657 7101 00   2074  	tra	ap|op_vec+70
    003377                        2075  tra_ext_2:
    003377  aa  0 00660 7101 00   2076  	tra	ap|op_vec+71
    003400                        2077  load_pt_reg:
    003400  aa   010000 3520 00   2078  	eppbp	arg1
    003401  aa  6 00050 2521 00   2079  	spribp	sp|40
    003402                        2080  make_lv:
    003402  aa   010000 3520 00   2081  	eppbp	arg1
    003403  aa   020000 2360 00   2082  	ldq	arg2
    003404  aa  0 00653 7001 00   2083  	tsx0	ap|op_vec+66
    003405                        2084  store_lv:
    003405  aa   010000 3520 00   2085  	eppbp	arg1
    003406  aa  0 00652 7001 00   2086  	tsx0	ap|op_vec+65
    003407                        2087  set_stack:
    003407  aa   010000 2360 00   2088  	ldq	arg1
    003410  aa  0 00540 7001 00   2089  	tsx0	ap|set_stack_
    003411                        2090  j_g_s:
    003411  aa   000002 6000 04   2091  	tze	2,ic
    003412  aa   010000 6030 00   2092  	trc	arg1
    003413                        2093  j_le_s:
    003413  aa   010000 6020 00   2094  	tnc	arg1
    003414  aa   010000 6000 00   2095  	tze	arg1
    003415                        2096  reset_stack:
    003415  aa  0 01014 7001 00   2097  	tsx0	ap|op_vec+163
    003416                        2098  get_ops_mac:
    003416  aa   000000 2130 04   2099  	epaq	0,ic
    003417  aa  7 00026 7641 61   2100  	lprplp	sb|22,*au
    003420  aa   010000 3520 00   2101  	eppbp	arg1
    003421  aa   000000 7100 10   2102  	tra	0,0
    003422                        2103  ss_enter_begin_block:
    003422  aa   000000 6270 00   2104  	eax7	0
    003423  aa  0 01376 2721 00   2105  	tspbp	ap|op_vec+405
    003424                        2106  enter_begin_block:
    003424  aa   000000 6270 00   2107  	eax7	0
    003425  aa  0 00614 2721 00   2108  	tspbp	ap|op_vec+35
    003426                        2109  leave_begin_block:
    003426  aa  0 00615 7001 00   2110  	tsx0	ap|op_vec+36
    003427                        2111  return_mac:
    003427  aa  0 00631 7101 00   2112  	tra	ap|op_vec+48
    003430                        2113  entry_macro:
    003430  aa   000000 6270 00   2114  	eax7	0
    003431  aa   020000 7000 00   2115  	tsx0	arg2
    003432  aa   010000 2720 00   2116  	tspbp	arg1
    003433                        2117  enter_prologue:
    003433  aa   010000 4400 00   2118  	sxl0	arg1
    003434                        2119  leave_prologue:
    003434  aa   010000 7200 00   2120  	lxl0	arg1
    003435  aa   000000 7100 10   2121  	tra	0,0
    003436                        2122  call_prologue:
    003436  aa   010000 7000 00   2123  	tsx0	arg1
    003437                        2124  call_ent_var_d:
    003437  aa  0 00616 7001 00   2125  	tsx0	ap|op_vec+37
    003440                        2126  call_ent_var:
    003440  aa  0 00617 7001 00   2127  	tsx0	ap|op_vec+38
    003441                        2128  call_ext_in_d:
    003441  aa  0 00620 7001 00   2129  	tsx0	ap|op_vec+39
    003442                        2130  call_ext_in:
    003442  aa  0 00621 7001 00   2131  	tsx0	ap|op_vec+40
    003443                        2132  call_ext_out_d:
    003443  aa  0 00622 7001 00   2133  	tsx0	ap|op_vec+41
    003444                        2134  call_ext_out:
    003444  aa  0 00623 7001 00   2135  	tsx0	ap|op_vec+42
    003445                        2136  call_int_this_d:
    003445  aa  0 00624 7001 00   2137  	tsx0	ap|op_vec+43
    003446                        2138  call_int_this:
    003446  aa  0 00625 7001 00   2139  	tsx0	ap|op_vec+44
    003447                        2140  call_int_other_d:
    003447  aa  0 00626 7001 00   2141  	tsx0	ap|op_vec+45
    003450                        2142  call_int_other:
    003450  aa  0 00627 7001 00   2143  	tsx0	ap|op_vec+46
    003451                        2144  prepare_call:
    003451  aa   010000 6210 00   2145  	eax1	arg1
    003452  aa   020000 4310 00   2146  	fld	arg2
    003453                        2147  qls_9:
    003453  aa   000011 7360 00   2148  	qls	9
    003454                        2149  set_bit_addr:
    003454  aa   010001 4410 00   2150  	sxl1	arg1+1
    003455                        2151  pointer_mac_bs:
    003455  aa   000000 3120 01   2152  	eawpbp	0,au
    003456                        2153  pointer_mac_fx:
    003456  aa   000000 3120 06   2154  	eawpbp	0,ql
    003457                        2155  addrel_mac_bs:
    003457  aa  2 00000 5075 01   2156  	awd	bp|0,au
    003460                        2157  addrel_mac_fx:
    003460  aa  2 00000 5075 06   2158  	awd	bp|0,ql
    003461                        2159  baseptr_mac_bs:
    003461  aa  6 00000 3525 00   2160  	epbpbp	sp|0
    003462  aa   000000 3130 01   2161  	easpbp	0,au
    003463                        2162  baseptr_mac_fx:
    003463  aa  6 00000 3525 00   2163  	epbpbp	sp|0
    003464  aa   000000 3130 06   2164  	easpbp	0,ql
    003465                        2165  pointer_mac_bs_ab:
    003465  aa   000000 3114 01   2166  	eawpab	0,au
    003466                        2167  pointer_mac_fx_ab:
    003466  aa   000000 3114 06   2168  	eawpab	0,ql
    003467                        2169  pointer_mac_bs_bb:
    003467  aa   000000 3134 01   2170  	eawpbb	0,au
    003470                        2171  pointer_mac_fx_bb:
    003470  aa   000000 3134 06   2172  	eawpbb	0,ql
    003471                        2173  pointer_mac_bs_lb:
    003471  aa   000000 3314 01   2174  	eawplb	0,au
    003472                        2175  pointer_mac_fx_lb:
    003472  aa   000000 3314 06   2176  	eawplb	0,ql
    003473                        2177  pointer_mac_bs_sb:
    003473  aa   000000 3334 01   2178  	eawpsb	0,au
    003474                        2179  pointer_mac_fx_sb:
    003474  aa   000000 3334 06   2180  	eawpsb	0,ql
    003475                        2181  addrel_mac_bs_ab:
    003475  aa  1 00000 5075 01   2182  	awd	ab|0,au
    003476                        2183  addrel_mac_fx_ab:
    003476  aa  1 00000 5075 06   2184  	awd	ab|0,ql
    003477                        2185  addrel_mac_bs_bb:
    003477  aa  3 00000 5075 01   2186  	awd	bb|0,au
    003500                        2187  addrel_mac_fx_bb:
    003500  aa  3 00000 5075 06   2188  	awd	bb|0,ql
    003501                        2189  addrel_mac_bs_lb:
    003501  aa  5 00000 5075 01   2190  	awd	lb|0,au
    003502                        2191  addrel_mac_fx_lb:
    003502  aa  5 00000 5075 06   2192  	awd	lb|0,ql
    003503                        2193  addrel_mac_bs_sb:
    003503  aa  7 00000 5075 01   2194  	awd	sb|0,au
    003504                        2195  addrel_mac_fx_sb:
    003504  aa  7 00000 5075 06   2196  	awd	sb|0,ql
    003505                        2197  baseptr_mac_bs_ab:
    003505  aa  6 00000 3511 00   2198  	epbpab	sp|0
    003506  aa   000000 3104 01   2199  	easpab	0,au
    003507                        2200  baseptr_mac_fx_ab:
    003507  aa  6 00000 3511 00   2201  	epbpab	sp|0
    003510  aa   000000 3104 06   2202  	easpab	0,ql
    003511                        2203  baseptr_mac_bs_bb:
    003511  aa  6 00000 3531 00   2204  	epbpbb	sp|0
    003512  aa   000000 3124 01   2205  	easpbb	0,au
    003513                        2206  baseptr_mac_fx_bb:
    003513  aa  6 00000 3531 00   2207  	epbpbb	sp|0
    003514  aa   000000 3124 06   2208  	easpbb	0,ql
    003515                        2209  baseptr_mac_bs_lb:
    003515  aa  6 00000 3711 00   2210  	epbplb	sp|0
    003516  aa   000000 3304 01   2211  	easplb	0,au
    003517                        2212  baseptr_mac_fx_lb:
    003517  aa  6 00000 3711 00   2213  	epbplb	sp|0
    003520  aa   000000 3304 06   2214  	easplb	0,ql
    003521                        2215  baseptr_mac_bs_sb:
    003521  aa  6 00000 3731 00   2216  	epbpsb	sp|0
    003522  aa   000000 3324 01   2217  	easpsb	0,au
    003523                        2218  baseptr_mac_fx_sb:
    003523  aa  6 00000 3731 00   2219  	epbpsb	sp|0
    003524  aa   000000 3324 06   2220  	easpsb	0,ql
    003525                        2221  set_chars:
    003525  aa  0 01227 7001 00   2222  	tsx0	ap|op_vec+302
    003526                        2223  set_bits:
    003526  aa  0 01230 7001 00   2224  	tsx0	ap|op_vec+303
    003527                        2225  absfx1:
    003527  aa   000003 6050 04   2226  	tpl	3,ic
    003530  aa  0 00110 6761 00   2227  	erq	ap|ones
    003531  aa   000001 0760 07   2228  	adq	1,dl
    003532                        2229  absfx2:
    003532  aa   000002 6050 04   2230  	tpl	2,ic
    003533  aa   000000 5330 00   2231  	negl
    003534                        2232  absfl1:
    003534                        2233  absfl2:
    003534  aa   000002 6050 04   2234  	tpl	2,ic
    003535  aa   000000 5130 00   2235  	fneg
    003536                        2236  load_offsets:
    003536  aa   010001 2360 00   2237  	ldq	arg1+1
    003537  aa   020000 1760 00   2238  	sbq	arg2
    003540                        2239  store_offsets:
    003540  aa   010000 2360 00   2240  	ldq	arg1
    003541  aa   020001 0560 00   2241  	asq	arg2+1
    003542                        2242  stac_mac:
    003542  aa  0 00663 7001 00   2243  	tsx0	ap|op_vec+74
    003543                        2244  sign_mac:
    003543  aa  0 00664 7001 00   2245  	tsx0	ap|op_vec+75
    003544                        2246  baseno_mac:
    003544  aa   077777 3750 03   2247  	ana	=o077777,du
    003545                        2248  segno_mac:
    003545  aa   000022 7770 00   2249  	llr	18		" segno to QL
    003546  aa   077777 3760 07   2250  	anq	=o077777,dl	" by itself
    003547                        2251  mod_byte_mac:
    003547  aa   010000 2350 00   2252  	lda	arg1
    003550  aa   000002 7330 00   2253  	lrs	2
    003551  aa   000042 7720 00   2254  	qrl	34
    003552                        2255  mod_byte_mac_exp:
    003552  aa   000000 2350 07   2256  	lda	0,dl
    003553  aa   000042 7370 00   2257  	lls	34
    003554  aa   000042 7720 00   2258  	qrl	34
    003555                        2259  mod_half_mac:
    003555  aa   010000 2350 00   2260  	lda	arg1
    003556  aa   000001 7330 00   2261  	lrs	1
    003557  aa   000043 7720 00   2262  	qrl	35
    003560                        2263  mod_half_mac_exp:
    003560  aa   000000 2350 07   2264  	lda	0,dl
    003561  aa   000043 7370 00   2265  	lls	35
    003562  aa   000043 7720 00   2266  	qrl	35
                                  2267  "
    003563                        2268  bound_ck_mac:
    003563  0a   003565 002211    2269  	vfd	18/L1,9/2,9/128+9	ifnot	atm2
    003564  aa   020000 012200    2270  	vfd	18/arg2,9/10,9/128	cplsave	arg2
    003565  0a   003567 002212    2271  L1:	vfd	18/L2,9/2,9/128+10	ifnot	atm3
    003566  aa   030000 012200    2272  	vfd	18/arg3,9/10,9/128	cplsave	arg3
    003567  aa   040000 006200    2273  L2:	vfd	18/arg4,9/6,9/128	fetch	arg4
    003570  aa   030000 2350 00   2274  	lda	arg3
    003571  aa   000001 015204    2275  	vfd	18/1,9/13,9/128+4	switch	1,type2
    003572  0a   003574 004200    2276  	vfd	18/bnd_ck_fx1,9/4,9/128	jump	bnd_ck_fx1
    003573  0a   003604 004200    2277  	vfd	18/bnd_ck_fx2,9/4,9/128	jump	bnd_ck_fx2
    003574                        2278  bnd_ck_fx1:
    003574  aa   020000 017200    2279  	vfd	18/arg2,9/15,9/128	bump	arg2		"we don't want cwl to drop count to zero
    003575  aa   020000 1110 00   2280  	cwl	arg2
    003576  aa   000002 6000 04   2281  	tze	2,ic
    003577  aa  0 00665 7001 00   2282  	tsx0	ap|op_vec+76
    003600  aa   200010 016200    2283  	vfd	18/q+lp,9/14,9/128	erase	q+lp
    003601  aa   020000 2360 00   2284  	ldq	arg2
    003602  aa   020000 020200    2285  	vfd	18/arg2,9/16,9/128	drop	arg2		"only 1st use of arg2 dropped the count
    003603  aa   000000 000200    2286  	zero	0,128
    003604                        2287  bnd_ck_fx2:
    003604  aa   020001 1110 00   2288  	cwl	arg2+1
    003605  aa   000002 6000 04   2289  	tze	2,ic
    003606  aa  0 00665 7001 00   2290  	tsx0	ap|op_vec+76
    003607  aa   200010 016200    2291  	vfd	18/q+lp,9/14,9/128	erase	q+lp
    003610  aa   020001 2360 00   2292  	ldq	arg2+1
    003611  aa   020000 020200    2293  	vfd	18/arg2,9/16,9/128	drop	arg2
    003612  aa   000000 000200    2294  	zero	0,128
                                  2295  "
    003613                        2296  args_by_2_mac:
    003613  aa  6 00032 2361 20   2297  	ldq	sp|26,*
    003614  aa   000022 7320 00   2298  	qrs	18
    003615                        2299  min_fx1:
    003615  aa   010000 1160 00   2300  	cmpq	arg1
    003616  aa   000002 6040 04   2301  	tmi	2,ic
    003617  aa   010000 2360 00   2302  	ldq	arg1
    003620                        2303  min_fx2:
    003620  aa   010000 1170 00   2304  	cmpaq	arg1
    003621  aa   000002 6040 04   2305  	tmi	2,ic
    003622  aa   010000 2370 00   2306  	ldaq	arg1
    003623                        2307  min_fl1:
    003623  aa   010000 5150 00   2308  	fcmp	arg1
    003624  aa   000002 6040 04   2309  	tmi	2,ic
    003625  aa   010000 4310 00   2310  	fld	arg1
    003626                        2311  min_fl2:
    003626  aa   010000 5170 00   2312  	dfcmp	arg1
    003627  aa   000002 6040 04   2313  	tmi	2,ic
    003630  aa   010000 4330 00   2314  	dfld	arg1
    003631                        2315  max_fx1:
    003631  aa   010000 1160 00   2316  	cmpq	arg1
    003632  aa   000002 6050 04   2317  	tpl	2,ic
    003633  aa   010000 2360 00   2318  	ldq	arg1
    003634                        2319  max_fx2:
    003634  aa   010000 1170 00   2320  	cmpaq	arg1
    003635  aa   000002 6050 04   2321  	tpl	2,ic
    003636  aa   010000 2370 00   2322  	ldaq	arg1
    003637                        2323  max_fl1:
    003637  aa   010000 5150 00   2324  	fcmp	arg1
    003640  aa   000002 6050 04   2325  	tpl	2,ic
    003641  aa   010000 4310 00   2326  	fld	arg1
    003642                        2327  max_fl2:
    003642  aa   010000 5170 00   2328  	dfcmp	arg1
    003643  aa   000002 6050 04   2329  	tpl	2,ic
    003644  aa   010000 4330 00   2330  	dfld	arg1
    003645                        2331  neg_q:
    003645  aa  0 00110 6761 00   2332  	erq	ap|ones
    003646  aa   000001 0760 07   2333  	adq	1,dl
    003647                        2334  mpfx2:
    003647  aa   010000 3520 00   2335  	eppbp	arg1
    003650  aa  0 00671 7001 00   2336  	tsx0	ap|op_vec+80
    003651                        2337  mpfx3:
    003651  aa   010000 3520 00   2338  	eppbp	arg1
    003652  aa  0 00672 7001 00   2339  	tsx0	ap|op_vec+81
    003653                        2340  substr_ck_mac:
    003653  0a   003655 002211    2341  	vfd	18/L3,9/2,9/128+9	ifnot	atm2
    003654  aa   020000 012200    2342  	vfd	18/arg2,9/10,9/128	cplsave	arg2
    003655  0a   003657 002212    2343  L3:	vfd	18/L4,9/2,9/128+10	ifnot	atm3
    003656  aa   030000 012200    2344  	vfd	18/arg3,9/10,9/128	cplsave	arg3
    003657  aa   040000 006200    2345  L4:	vfd	18/arg4,9/6,9/128	fetch	arg4
    003660  aa   030000 2350 00   2346  	lda	arg3
    003661  aa   000001 015204    2347  	vfd	18/1,9/13,9/128+4	switch	1,type2
    003662  0a   003664 004200    2348  	vfd	18/range_ck_fx1,9/4,9/128	jump	range_ck_fx1
    003663  0a   003674 004200    2349  	vfd	18/range_ck_fx2,9/4,9/128	jump	range_ck_fx2
    003664                        2350  range_ck_fx1:
    003664  aa   020000 017200    2351  	vfd	18/arg2,9/15,9/128	bump	arg2
    003665  aa   020000 1110 00   2352  	cwl	arg2
    003666  aa   000002 6000 04   2353  	tze	2,ic
    003667  aa  0 01375 7001 00   2354  	tsx0	ap|op_vec+404
    003670  aa   200010 016200    2355  	vfd	18/q+lp,9/14,9/128	erase	q+lp
    003671  aa   020000 2360 00   2356  	ldq	arg2
    003672  aa   020000 020200    2357  	vfd	18/arg2,9/16,9/128	drop	arg2	second use of arg2 in non-macro.
    003673  aa   000000 000200    2358  	zero	0,128
    003674                        2359  range_ck_fx2:
    003674  aa   020001 1110 00   2360  	cwl	arg2+1
    003675  aa   000002 6000 04   2361  	tze	2,ic
    003676  aa  0 01375 7001 00   2362  	tsx0	ap|op_vec+404
    003677  aa   200010 016200    2363  	vfd	18/q+lp,9/14,9/128	erase	q+lp
    003700  aa   020001 2360 00   2364  	ldq	arg2+1
    003701  aa   020000 020200    2365  	vfd	18/arg2,9/16,9/128	drop	arg2
    003702  aa   000000 000200    2366  	zero	0,128
                                  2367  "
    003703                        2368  set_ptr_to:
    003703  aa   010000 3520 00   2369  	eppbp	arg1
    003704  aa   020000 2520 00   2370  	spribp	arg2
    003705                        2371  mdfl1:
    003705  aa   010000 3520 00   2372  	eppbp	arg1
    003706  aa  0 00702 7001 00   2373  	tsx0	ap|op_vec+89
    003707                        2374  mdfl2:
    003707  aa   010000 3520 00   2375  	eppbp	arg1
    003710  aa  0 00703 7001 00   2376  	tsx0	ap|op_vec+90
    003711                        2377  mdfx1:
    003711  aa   010000 3520 00   2378  	eppbp	arg1
    003712  aa  0 00704 7001 00   2379  	tsx0	ap|op_vec+91
    003713                        2380  mdfx2:
    003713  aa   010000 3520 00   2381  	eppbp	arg1
    003714  aa  0 00705 7001 00   2382  	tsx0	ap|op_vec+92
    003715                        2383  mdfx3:
    003715  aa   010000 3520 00   2384  	eppbp	arg1
    003716  aa  0 00706 7001 00   2385  	tsx0	ap|op_vec+93
    003717                        2386  mdfx4:
    003717  aa   010000 3520 00   2387  	eppbp	arg1
    003720  aa  0 00707 7001 00   2388  	tsx0	ap|op_vec+94
    003721                        2389  divide_fx1:
    003721  aa   010000 3520 00   2390  	epp2	arg1
    003722  aa  0 01262 7001 00   2391  	tsx0	ap|op_vec+329
    003723                        2392  divide_fx2:
    003723  aa   010000 3520 00   2393  	epp2	arg1
    003724  aa  0 01263 7001 00   2394  	tsx0	ap|op_vec+330
    003725                        2395  divide_fx3:
    003725  aa   010000 3520 00   2396  	epp2	arg1
    003726  aa  0 01264 7001 00   2397  	tsx0	ap|op_vec+331
    003727                        2398  divide_fx4:
    003727  aa   010000 3520 00   2399  	epp2	arg1
    003730  aa  0 01265 7001 00   2400  	tsx0	ap|op_vec+332
    003731                        2401  scaled_mdfx1:
    003731  aa   010000 3520 00   2402  	epp2	arg1
    003732  aa  0 01266 7001 00   2403  	tsx0	ap|op_vec+333
    003733                        2404  scaled_mdfx2:
    003733  aa   010000 3520 00   2405  	epp2	arg1
    003734  aa  0 01267 7001 00   2406  	tsx0	ap|op_vec+334
    003735                        2407  scaled_mdfx3:
    003735  aa   010000 3520 00   2408  	epp2	arg1
    003736  aa  0 01270 7001 00   2409  	tsx0	ap|op_vec+335
    003737                        2410  scaled_mdfx4:
    003737  aa   010000 3520 00   2411  	epp2	arg1
    003740  aa  0 01271 7001 00   2412  	tsx0	ap|op_vec+336
    003741                        2413  make_desc_mac:
    003741  aa   020000 2760 00   2414  	orq	arg2
    003742  aa   010000 7560 00   2415  	stq	arg1
    003743                        2416  quick_desc_size:
    003743  aa   010000 2360 00   2417  	ldq	arg1
    003744  aa  0 00250 3761 00   2418  	anq	ap|168		=o000077777777
    003745                        2419  get_desc_size:
    003745  aa   010000 2360 00   2420  	ldq	arg1
    003746  aa   000002 6040 04   2421  	tmi	2,ic
    003747  aa   777777 3760 07   2422  	anq	=o777777,dl
    003750  aa  0 00250 3761 00   2423  	anq	ap|168		=o000077777777
    003751                        2424  pad_chars:
    003751  aa  0 00714 7001 00   2425  	tsx0	ap|op_vec+99
    003752                        2426  pad_bits:
    003752  aa  0 00715 7001 00   2427  	tsx0	ap|op_vec+100
    003753                        2428  load_link_pt:
    003753  aa  6 00044 3701 20   2429  	epplp	sp|36,*
    003754                        2430  assign_label_const:
    003754  aa   010000 6500 00   2431  	sprilp	arg1
    003755  aa   010002 6520 00   2432  	sprisp	arg1+2
    003756                        2433  is_label_const:
    003756  aa   010000 2520 00   2434  	spribp	arg1
    003757  aa   010002 6520 00   2435  	sprisp	arg1+2
    003760                        2436  load_display_ptr:
    003760  aa  6 00040 3701 20   2437  	epplp	sp|32,*
    003761                        2438  walk_display_ptr:
    003761  aa  4 00040 3701 20   2439  	epplp	lp|32,*
    003762                        2440  begin_return:
    003762  aa   010000 2360 00   2441  	ldq	arg1
    003763  aa  0 00630 7101 00   2442  	tra	ap|op_vec+47
    003764                        2443  begin_return_main:
    003764  aa   010000 2360 00   2444  	ldq	arg1
    003765  aa  0 01444 7101 00   2445  	tra	ap|op_vec+443
    003766                        2446  revert_mac:
    003766  aa   010004 4500 00   2447  	stz	arg1+4
    003767                        2448  signal_mac:
    003767  aa   010000 3520 00   2449  	eppbp	arg1		string
    003770  aa  0 00716 7001 00   2450  	tsx0	ap|op_vec+101
    003771                        2451  enable_mac:
    003771  aa   010000 3520 00   2452  	eppbp	arg1		string
    003772  aa  0 00717 7001 00   2453  	tsx0	ap|op_vec+102
    003773  aa   030000 7100 00   2454  	tra	arg3		body of on_unit
    003774  aa   020000 0000 00   2455  	arg	arg2		stack loc of on_unit
    003775                        2456  get_area_mod_8:
    003775  aa   010000 3520 00   2457  	eppbp	arg1
    003776  aa  2 00007 6361 00   2458  	eaq	bp|7
    003777  aa   777770 3760 03   2459  	anq	=o777770,du
    004000  aa   000000 3120 02   2460  	eawpbp	0,qu
    004001  aa   020000 2520 00   2461  	spribp	arg2
    004002                        2462  fx1_to_bs:
    004002  aa   010000 2350 00   2463  	lda	arg1
    004003  aa   000002 6050 04   2464  	tpl	2,ic
    004004  aa   000000 5310 00   2465  	neg	0
    004005  aa   020000 7350 00   2466  	als	arg2
    004006                        2467  fx2_to_bs:
    004006  aa   010000 2370 00   2468  	ldaq	arg1
    004007  aa   000002 6050 04   2469  	tpl	2,ic
    004010  aa   000000 5330 00   2470  	negl	0
    004011  aa   020000 7370 00   2471  	lls	arg2
    004012                        2472  uns_fx1_to_bs:
    004012  aa   010000 2350 00   2473  	lda	arg1
    004013  aa   020000 7350 00   2474  	als	arg2
    004014                        2475  uns_fx2_to_bs:
    004014  aa   010000 2370 00   2476  	ldaq	arg1
    004015  aa   020000 7370 00   2477  	lls	arg2
    004016                        2478  ix_chars:
    004016  aa  0 01231 7001 00   2479  	tsx0	ap|op_vec+304
    004017                        2480  ix_rev_chars:
    004017  aa  0 01451 7001 00   2481  	tsx0	ap|op_vec+448
    004020                        2482  verify_rev_chars:
    004020  aa  0 01452 7001 00   2483  	tsx0	ap|op_vec+449
    004021                        2484  search_rev_chars:
    004021  aa  0 01453 7001 00   2485  	tsx0	ap|op_vec+450
    004022                        2486  ix_bits:
    004022  aa  0 01232 7001 00   2487  	tsx0	ap|op_vec+305
    004023                        2488  move_xor:
    004023  aa   006000 0604 00   2489  	csl	(0),(0),bool(xor)
    004024  aa   020000 030000    2490  	zero	arg2,bit
    004025  aa   010000 030000    2491  	zero	arg1,bit
    004026                        2492  beg_ev_proc:
    004026  aa   000000 7270 07   2493  	lxl7	0,dl
    004027  aa  7 00034 3521 20   2494  	eppbp	sb|ops_ptr,*
    004030  aa  2 01047 2721 00   2495  	tspbp	bp|op_vec+190
    004031  aa   000002 000000    2496  	vfd	18/2,18/0
    004032  aa   000000 000000    2497  	vfd	36/0
    004033                        2498  end_ev_proc:
    004033  aa   010000 7560 00   2499  	stq	arg1
    004034  aa  0 00631 7101 00   2500  	tra	ap|op_vec+48
    004035                        2501  symtab_mac:
    004035  aa   020000 3520 00   2502  	eppbp	arg2
    004036  aa   010002 2520 00   2503  	spribp	arg1+2
    004037  aa   030000 0520 00   2504  	adwpbp	arg3
    004040  aa   010004 2520 00   2505  	spribp	arg1+4
    004041                        2506  init_ps_mac:
    004041  aa   010000 6520 00   2507  	sprisp	arg1
    004042  aa   010000 3520 00   2508  	eppbp	arg1
    004043  aa  6 00052 2521 00   2509  	spribp	sp|ps_ptr
    004044                        2510  init_sslp:
    004044  aa   020000 3520 00   2511  	eppbp	arg2
    004045  aa   010010 2520 00   2512  	spribp	arg1+8
    004046                        2513  io_signal_mac:
    004046  aa   010000 3520 00   2514  	eppbp	arg1
    004047  aa  0 00764 7001 00   2515  	tsx0	ap|op_vec+139
    004050                        2516  end_ev_label:
    004050  aa   010000 3520 00   2517  	eppbp	arg1
    004051  aa  0 00652 7001 00   2518  	tsx0	ap|op_vec+65	move_label_variable
    004052  aa  0 00631 7101 00   2519  	tra	ap|op_vec+48	return
    004053                        2520  pointer_mac_const:
    004053  aa   000000 3120 00   2521  	eawpbp	0
    004054                        2522  addrel_mac_const:
    004054  aa   000000 0520 03   2523  	adwpbp	0,du
    004055                        2524  pointer_mac_c_ab:
    004055  aa   000000 3114 00   2525  	eawpab	0
    004056                        2526  pointer_mac_c_bb:
    004056  aa   000000 3134 00   2527  	eawpbb	0
    004057                        2528  pointer_mac_c_lb:
    004057  aa   000000 3314 00   2529  	eawplb	0
    004060                        2530  pointer_mac_c_sb:
    004060  aa   000000 3334 00   2531  	eawpsb	0
    004061                        2532  addrel_mac_c_ab:
    004061  aa   000000 0510 03   2533  	adwpab	0,du
    004062                        2534  addrel_mac_c_bb:
    004062  aa   000000 0530 03   2535  	adwpbb	0,du
    004063                        2536  addrel_mac_c_lb:
    004063  aa   000000 1510 03   2537  	adwplb	0,du
    004064                        2538  addrel_mac_c_sb:
    004064  aa   000000 1530 03   2539  	adwpsb	0,du
    004065                        2540  test_lda_ldq:
    004065  aa   010000 2350 00   2541  	lda	arg1
    004066  aa   010001 2360 00   2542  	ldq	arg1+1
    004067  aa  0 00000 1171 00   2543  	cmpaq	ap|0
    004070                        2544  testfx1:
    004070  aa   000000 1160 07   2545  	cmpq	0,dl
    004071                        2546  testfx2:
    004071  aa  0 00000 1171 00   2547  	cmpaq	ap|0
    004072                        2548  testfl1:
    004072  aa  0 00002 5151 00   2549  	fcmp	ap|2
    004073                        2550  testfl2:
    004073  aa  0 00002 5171 00   2551  	dfcmp	ap|2
    004074                        2552  ix_before_chars_1:
    004074                        2553  ix_chars_1:
    004074  aa   000000 1244 00   2554  	scm	(0),(0)
    004075  aa   010000 020000    2555  	zero	arg1,char
    004076  aa   020000 020000    2556  	zero	arg2,char
    004077  aa  6 00056 0001 00   2557  	arg	sp|46
    004100  aa  6 00056 2361 00   2558  	ldq	sp|46
    004101  aa   000002 6070 04   2559  	ttf	2,ic
    004102  aa   000001 3360 07   2560  	lcq	1,dl
    004103  aa   000001 0760 07   2561  	adq	1,dl
    004104                        2562  ix_chars_2:
    004104  aa   000000 1204 00   2563  	scd	(0),(0)
    004105  aa   010000 020000    2564  	zero	arg1,char
    004106  aa   020000 020000    2565  	zero	arg2,char
    004107  aa  6 00056 0001 00   2566  	arg	sp|46
    004110  aa  6 00056 2361 00   2567  	ldq	sp|46
    004111  aa   000002 6070 04   2568  	ttf	2,ic
    004112  aa   000001 3360 07   2569  	lcq	1,dl
    004113  aa   000001 0760 07   2570  	adq	1,dl
    004114                        2571  ix_rev_chars_1:
    004114  aa   000000 1254 00   2572  	scmr	(0),(0)
    004115  aa   010000 020000    2573  	zero	arg1,char
    004116  aa   020000 020000    2574  	zero	arg2,char
    004117  aa  6 00056 0001 00   2575  	arg	sp|46
    004120  aa  6 00056 2361 00   2576  	ldq	sp|46
    004121  aa   000002 6070 04   2577  	ttf	2,ic
    004122  aa   000001 3360 07   2578  	lcq	1,dl
    004123  aa   000001 0760 07   2579  	adq	1,dl
    004124                        2580  ix_rev_chars_2:
    004124  aa   000000 1214 00   2581  	scdr	(0),(0)
    004125  aa   010000 020000    2582  	zero	arg1,char
    004126  aa   020000 020000    2583  	zero	arg2,char
    004127  aa  6 00056 0001 00   2584  	arg	sp|46
    004130  aa  6 00056 2361 00   2585  	ldq	sp|46
    004131  aa   000002 6070 04   2586  	ttf	2,ic
    004132  aa   000001 3360 07   2587  	lcq	1,dl
    004133  aa   000001 0760 07   2588  	adq	1,dl
    004134                        2589  ix_bits_1:
    004134  aa  0 01234 7001 00   2590  	tsx0	ap|op_vec+307
    004135                        2591  zero_bits:
    004135  aa   003000 0604 00   2592  	csl	(0),(0),bool(move),fill(0)
    004136  aa   000000 000000    2593  	zero	0
    004137  aa   010000 030000    2594  	zero	arg1,bit
    004140                        2595  one_bits:
    004140  aa   403000 0604 00   2596  	csl	(0),(0),bool(move),fill(1)
    004141  aa   000000 000000    2597  	zero	0
    004142  aa   010000 030000    2598  	zero	arg1,bit
    004143                        2599  bool_mac_1:
    004143  aa  0 77616 7161 05   2600  	xec	ap|csl_vector,al
    004144  aa   020000 030000    2601  	zero	arg2,bit
    004145  aa   010000 030000    2602  	zero	arg1,bit
    004146                        2603  bool_mac_2:
    004146  aa  0 77616 7161 10   2604  	xec	ap|csl_vector,0
    004147  aa   020000 030000    2605  	zero	arg2,bit
    004150  aa   010000 030000    2606  	zero	arg1,bit
    004151                        2607  blank_chars:
    004151  aa   040000 1004 00   2608  	mlr	(0),(0),fill(blank)
    004152  aa   000000 000000    2609  	zero	0
    004153  aa   010000 020000    2610  	zero	arg1,char
    004154                        2611  zero_chars_q:
    004154                        2612  zero_chars:
    004154  aa   000000 1004 00   2613  	mlr	(0),(0)
    004155  aa   000000 000000    2614  	zero	0
    004156  aa   010000 020000    2615  	zero	arg1,char
    004157                        2616  one_chars:
    004157  aa   777000 1004 00   2617  	mlr	(0),(0),fill(777)
    004160  aa   000000 000000    2618  	zero	0
    004161  aa   010000 020000    2619  	zero	arg1,char
    004162                        2620  off_mac_easy:
    004162  aa   010000 3520 00   2621  	eppbp	arg1
    004163  aa  0 01206 7001 00   2622  	tsx0	ap|op_vec+285
    004164                        2623  off_mac_easy_pk:
    004164  aa   010000 3520 00   2624  	eppbp	arg1
    004165  aa  0 01207 7001 00   2625  	tsx0	ap|op_vec+286
    004166                        2626  off_mac_hard:
    004166  aa   010000 3520 00   2627  	eppbp	arg1
    004167  aa  0 01210 7001 00   2628  	tsx0	ap|op_vec+287
    004170                        2629  off_mac_hard_pk:
    004170  aa   010000 3520 00   2630  	eppbp	arg1
    004171  aa  0 01211 7001 00   2631  	tsx0	ap|op_vec+288
    004172                        2632  quick_return:
    004172  aa   010000 6100 00   2633  	rtcd	arg1
    004173                        2634  quick_entry:
    004173                        2635  quick_entry_args:
    004173                        2636  quick_entry_desc:
    004173  aa   010000 6500 00   2637  	sprilp	arg1
    004174  aa   010002 2520 00   2638  	spribp	arg1+2
    004175  aa  2 00002 3521 01   2639  	eppbp	bp|2,au
    004176  aa   010004 2520 00   2640  	spribp	arg1+4
    004177                        2641  quick_call:
    004177  aa   010000 6700 00   2642  	tsplp	arg1
    004200                        2643  prepare_quick_call:
    004200  aa   010000 3520 00   2644  	eppbp	arg1
    004201  aa   020000 4310 00   2645  	fld	arg2
    004202  aa  2 00000 7571 00   2646  	staq	bp|0
    004203                        2647  assign_lab_to_int:
    004203  aa   020000 6200 00   2648  	eax0	arg2
    004204  aa   010000 4400 00   2649  	sxl0	arg1
    004205                        2650  load_logical:
    004205  aa   010000 2350 00   2651  	lda	arg1
    004206                        2652  mask_logical:
    004206  aa   400000 3750 03   2653  	ana	=o400000,du
    004207                        2654  store_logical:
    004207  aa   010000 6750 00   2655  	era	arg1
    004210  aa   400000 3750 03   2656  	ana	=o400000,du
    004211  aa   010000 6550 00   2657  	ersa	arg1
    004212                        2658  not_logical:
    004212  aa   400000 6750 03   2659  	era	=o400000,du
    004213                        2660  tran_sign_fx1:
    004213  aa   010000 3520 00   2661  	eppbp	arg1
    004214  aa  0 00666 7001 00   2662  	tsx0	ap|op_vec+77
    004215                        2663  tran_sign_fl:
    004215  aa   010000 3520 00   2664  	eppbp	arg1
    004216  aa  0 00667 7001 00   2665  	tsx0	ap|op_vec+78
    004217                        2666  fort_mod_fx1:
    004217  aa   010000 5060 00   2667  	div	arg1
    004220  aa   000044 7330 00   2668  	lrs	36
    004221                        2669  fort_mod_fl1:
    004221  aa   010000 3520 00   2670  	eppbp	arg1
    004222  aa  0 00767 7001 00   2671  	tsx0	ap|op_vec+142
                                  2672  "unused_389:
                                  2673  "unused_391:
                                  2674  "unused_392:
    004223                        2675  rflb1_to_cflb1:
    004223  aa  6 00054 4551 00   2676  	fst	sp|44
    004224  aa  6 00054 2351 00   2677  	lda	sp|44
    004225  aa   400000 2360 03   2678  	ldq	=0.0,du
    004226                        2679  atm_rflb1_to_cflb1:
    004226  aa   010000 2350 00   2680  	lda	arg1
    004227  aa   400000 2360 03   2681  	ldq	=0.0,du
    004230                        2682  rfb1_to_cflb1:
    004230  aa  0 00770 7001 00   2683  	tsx0	ap|op_vec+143
    004231                        2684  rfb2_to_cflb1:
    004231  aa  0 00771 7001 00   2685  	tsx0	ap|op_vec+144
    004232                        2686  loop_end_var:
    004232  aa   020000 2360 00   2687  	ldq	arg2
    004233  aa   020000 0540 00   2688  	aos	arg2
    004234  aa   030000 1160 00   2689  	cmpq	arg3
    004235  aa   010000 6040 00   2690  	tmi	arg1
    004236                        2691  store_bp_hard:
    004236  aa  6 00056 2521 00   2692  	spribp	sp|46
    004237  aa  6 00056 2371 00   2693  	ldaq	sp|46
    004240  aa   010000 7570 00   2694  	staq	arg1
    004241                        2695  complex_mac:
    004241  aa   010000 017200    2696  	vfd	18/arg1,9/15,9/128	bump	arg1
    004242  aa   020000 006200    2697  	vfd	18/arg2,9/6,9/128	fetch	arg2
    004243  aa   010000 4550 00   2698  	fst	arg1
    004244  aa   010000 020200    2699  	vfd	18/arg1,9/16,9/128	drop	arg1
    004245  aa   030000 006200    2700  	vfd	18/arg3,9/6,9/128	fetch	arg3
    004246  aa   010001 4550 00   2701  	fst	arg1+1
    004247  aa   000000 000200    2702  	zero	0,128
    004250                        2703  conjg_mac:
    004250  aa   010000 017200    2704  	vfd	18/arg1,9/15,9/128	bump	arg1
    004251  aa   020000 017200    2705  	vfd	18/arg2,9/15,9/128	bump	arg2
    004252  0a   004254 002211    2706  	vfd	18/L5,9/2,9/128+9	ifnot	atm2
    004253  aa   020000 011200    2707  	vfd	18/arg2,9/9,9/128	cplalt	arg2
    004254  aa   020000 4310 00   2708  L5:	fld	arg2
    004255  aa   010000 4550 00   2709  	fst	arg1
    004256  aa   020001 4310 00   2710  	fld	arg2+1
    004257  aa   000000 5130 00   2711  	fneg	0
    004260  aa   010001 4550 00   2712  	fst	arg1+1
    004261  aa   010000 020200    2713  	vfd	18/arg1,9/16,9/128	drop	arg1
    004262  aa   020000 020200    2714  	vfd	18/arg2,9/16,9/128	drop	arg2
    004263  aa   000000 000200    2715  	zero	0,128
    004264                        2716  real_mac:
    004264  0a   004266 002211    2717  	vfd	18/L6,9/2,9/128+9	ifnot	atm2
    004265  aa   020000 011200    2718  	vfd	18/arg2,9/9,9/128	cplalt	arg2
    004266  aa   020000 4310 00   2719  L6:	fld	arg2
    004267  aa   000000 000200    2720  	zero	0,128
    004270                        2721  imag_mac:
    004270  0a   004272 002211    2722  	vfd	18/L7,9/2,9/128+9	ifnot	atm2
    004271  aa   020000 011200    2723  	vfd	18/arg2,9/9,9/128	cplalt	arg2
    004272  aa   020001 4310 00   2724  L7:	fld	arg2+1
    004273  aa   020000 020200    2725  	vfd	18/arg2,9/16,9/128	drop	arg2
    004274  aa   000000 000200    2726  	zero	0,128
    004275                        2727  square_fx1:
    004275  aa  6 00056 7561 00   2728  	stq	sp|46
    004276  aa  6 00056 4021 00   2729  	mpy	sp|46
    004277                        2730  square_fl1:
    004277  aa  6 00056 4551 00   2731  	fst	sp|46
    004300  aa  6 00056 4611 00   2732  	fmp	sp|46
    004301                        2733  square_fl2:
    004301  aa  6 00056 4571 00   2734  	dfst	sp|46
    004302  aa  6 00056 4631 00   2735  	dfmp	sp|46
    004303                        2736  h2w_mac:
    004303  aa   000001 0760 07   2737  	adq	1,dl
    004304  aa   000001 7320 00   2738  	qrs	1
    004305                        2739  unpk_to_pk:
    004305  aa  0 00560 7001 00   2740  	tsx0	ap|op_vec+7
    004306                        2741  pk_to_unpk:
    004306  aa  0 00557 7001 00   2742  	tsx0	ap|op_vec+6
    004307                        2743  bp_to_aq:
    004307  aa  6 00056 2521 00   2744  	spribp	sp|46
    004310  aa  6 00056 2371 00   2745  	ldaq	sp|46
    004311                        2746  lp_to_aq:
    004311  aa  6 00056 6501 00   2747  	sprilp	sp|46
    004312  aa  6 00056 2371 00   2748  	ldaq	sp|46
    004313                        2749  real_to_real_rd:
    004313  aa  0 01254 7001 00   2750  	tsx0	ap|op_vec+323
    004314                        2751  real_to_real_tr:
    004314  aa  0 01255 7001 00   2752  	tsx0	ap|op_vec+324
    004315                        2753  any_to_any_rd:
    004315  aa  0 01256 7001 00   2754  	tsx0	ap|op_vec+325
    004316                        2755  any_to_any_tr:
    004316  aa  0 01257 7001 00   2756  	tsx0	ap|op_vec+326
    004317                        2757  unpack_pic:
    004317  aa  0 01260 7001 00   2758  	tsx0	ap|op_vec+327
    004320                        2759  edit_pic:
    004320  aa  0 01261 7001 00   2760  	tsx0	ap|op_vec+328
    004321                        2761  shift_and_mask_1:
    004321  aa   010000 7350 00   2762  	als	arg1
    004322  aa   020000 3750 00   2763  	ana	arg2
    004323  aa   010000 7710 00   2764  	arl	arg1
    004324                        2765  shift_and_mask_2:
    004324  aa   010000 7370 00   2766  	lls	arg1
    004325  aa   020000 3770 00   2767  	anaq	arg2
    004326  aa   010000 7730 00   2768  	lrl	arg1
    004327                        2769  return_words:
    004327  aa   010000 7200 00   2770  	lxl0	arg1
    004330  aa  0 01040 7101 00   2771  	tra	ap|op_vec+183
    004331                        2772  return_bits:
    004331  aa  0 01236 7101 00   2773  	tra	ap|op_vec+309
    004332                        2774  return_chars:
    004332  aa  0 01235 7101 00   2775  	tra	ap|op_vec+308
    004333                        2776  fetch_chars:
    004333  aa  0 01055 7001 00   2777  	tsx0	ap|op_vec+196
    004334                        2778  fetch_bits:
    004334                        2779  fetch_bits_eis:
    004334  aa  0 01056 7001 00   2780  	tsx0	ap|op_vec+197
    004335                        2781  fetch_chars_eis:
    004335  aa  0 01374 7001 00   2782  	tsx0	ap|op_vec+403
    004336                        2783  get_term_mac:
    004336  aa  0 01057 7001 00   2784  	tsx0	ap|op_vec+198
    004337                        2785  put_term_mac:
    004337  aa  0 01060 7001 00   2786  	tsx0	ap|op_vec+199
    004340                        2787  put_data:
    004340  aa  0 01237 7001 00   2788  	tsx0	ap|op_vec+310
    004341                        2789  get_list:
    004341  aa  0 01243 7001 00   2790  	tsx0	ap|op_vec+314
    004342                        2791  get_edit:
    004342  aa  0 01242 7001 00   2792  	tsx0	ap|op_vec+313
    004343                        2793  put_list:
    004343  aa  0 01241 7001 00   2794  	tsx0	ap|op_vec+312
    004344                        2795  put_edit:
    004344  aa  0 01240 7001 00   2796  	tsx0	ap|op_vec+311
    004345                        2797  put_field:
    004345  aa  0 01377 7001 00   2798  	tsx0	ap|op_vec+406
    004346                        2799  put_field_chk:
    004346  aa  0 01400 7001 00   2800  	tsx0	ap|op_vec+407
    004347                        2801  put_control:
    004347  aa  0 01401 7001 00   2802  	tsx0	ap|op_vec+408
    004350                        2803  ftn_read:
    004350  aa  0 01246 7001 00   2804  	tsx0	ap|op_vec+317
    004351                        2805  ftn_write:
    004351  aa  0 01247 7001 00   2806  	tsx0	ap|op_vec+318
    004352                        2807  ftn_manip:
    004352  aa  0 01250 7001 00   2808  	tsx0	ap|op_vec+319
    004353                        2809  ftn_scalar_xmit:
    004353  aa   010000 3520 00   2810  	epp2	arg1
    004354  aa  0 01251 7001 00   2811  	tsx0	ap|op_vec+320
    004355                        2812  ftn_array_xmit:
    004355  aa   010000 3520 00   2813  	epp2	arg1
    004356  aa  0 01252 7001 00   2814  	tsx0	ap|op_vec+321
    004357                        2815  ftn_term:
    004357  aa  0 01253 7001 00   2816  	tsx0	ap|op_vec+322
    004360                        2817  stream_prep_mac:
    004360  aa   010000 2350 00   2818  	lda	arg1
    004361  aa   020000 3520 00   2819  	eppbp	arg2
    004362  aa  0 01066 7001 00   2820  	tsx0	ap|op_vec+205
    004363                        2821  recio_mac:
    004363  aa   010000 2350 00   2822  	lda	arg1
    004364  aa  0 01067 7001 00   2823  	tsx0	ap|op_vec+206
    004365                        2824  unpack_fl1:
    004365  aa  6 00054 7551 00   2825  	sta	sp|44
    004366  aa  6 00054 4311 00   2826  	fld	sp|44
    004367                        2827  unpack_fl2:
    004367  aa  6 00054 7571 00   2828  	staq	sp|44
    004370  aa  6 00054 4331 00   2829  	dfld	sp|44
    004371                        2830  unpack_cfl1:
    004371  aa   010000 7730 00   2831  	lrl	arg1
    004372  aa   010000 7350 00   2832  	als	arg1
    004373                        2833  pack_fl1:
    004373  aa  6 00054 4551 00   2834  	fst	sp|44
    004374  aa  6 00054 2351 00   2835  	lda	sp|44
    004375                        2836  pack_fl2:
    004375  aa  6 00054 4571 00   2837  	dfst	sp|44
    004376  aa  6 00054 2371 00   2838  	ldaq	sp|44
    004377                        2839  pack_cfl1:
    004377  aa   010000 7710 00   2840  	arl	arg1
    004400  aa   010000 7370 00   2841  	lls	arg1
    004401                        2842  open_mac:
    004401  aa  0 01070 7001 00   2843  	tsx0	ap|op_vec+207
    004402                        2844  close_mac:
    004402  aa  0 01071 7001 00   2845  	tsx0	ap|op_vec+208
    004403                        2846  compare_labels:
    004403  aa   010000 2370 00   2847  	ldaq	arg1
    004404  aa   020000 6770 00   2848  	eraq	arg2
    004405  aa  0 00460 3771 00   2849  	anaq	ap|ptr_mask_
    004406  aa   030000 6010 00   2850  	tnz	arg3
    004407                        2851  compare_files:
    004407  aa   010002 2370 00   2852  	ldaq	arg1+2
    004410  aa   020002 6770 00   2853  	eraq	arg2+2
    004411  aa  0 00460 3771 00   2854  	anaq	ap|ptr_mask_
    004412                        2855  fetch_pp:
    004412  aa   010000 2370 00   2856  	ldaq	arg1
    004413  aa  6 00056 2351 00   2857  	lda	sp|46
    004414                        2858  store_pp:
    004414  aa   010000 2520 00   2859  	spribp	arg1
    004415  aa   010001 7560 00   2860  	stq	arg1+1
    004416                        2861  fxscaled_to_fl2:
    004416  aa   010000 4110 00   2862  	lde	arg1
    004417  aa   400000 4750 03   2863  	fad	=0.,du
    004420                        2864  fl2_to_fxscaled:
    004420  aa  0 01113 7001 00   2865  	tsx0	ap|op_vec+226
                                  2866  "
    004421                        2867  trunc_fx1:
    004421  aa  0 01114 7001 00   2868  	tsx0	ap|op_vec+227
    004422                        2869  trunc_fx2:
    004422  aa  0 01115 7001 00   2870  	tsx0	ap|op_vec+228
    004423                        2871  ceil_fx1:
    004423  aa  0 01116 7001 00   2872  	tsx0	ap|op_vec+229
    004424                        2873  ceil_fx2:
    004424  aa  0 01117 7001 00   2874  	tsx0	ap|op_vec+230
    004425                        2875  ceil_fl:
    004425  aa  0 01120 7001 00   2876  	tsx0	ap|op_vec+231
    004426                        2877  floor_fx1:
    004426  aa  0 01121 7001 00   2878  	tsx0	ap|op_vec+232
    004427                        2879  floor_fx2:
    004427  aa  0 01122 7001 00   2880  	tsx0	ap|op_vec+233
    004430                        2881  floor_fl:
    004430  aa  0 01123 7001 00   2882  	tsx0	ap|op_vec+234
    004431                        2883  nop_mac:
    004431  aa   000000 0110 03   2884  	nop	0,du
    004432                        2885  round_fx1:
    004432  aa  0 01125 7001 00   2886  	tsx0	ap|op_vec+236
    004433                        2887  round_fx2:
    004433  aa  0 01126 7001 00   2888  	tsx0	ap|op_vec+237
    004434                        2889  round_fl:
    004434  aa  0 01215 7001 00   2890  	tsx0	ap|op_vec+292
    004435  aa   010000 0000 00   2891  	arg	arg1
    004436                        2892  repeat:
    004436  aa  0 01127 7001 00   2893  	tsx0	ap|op_vec+238
    004437                        2894  verify:
    004437  aa  0 01244 7001 00   2895  	tsx0	ap|op_vec+315
    004440                        2896  search:
    004440  aa  0 01245 7001 00   2897  	tsx0	ap|op_vec+316
    004441                        2898  reverse_cs:
    004441  aa  0 01144 7001 00   2899  	tsx0	ap|op_vec+251
    004442                        2900  reverse_bs:
    004442  aa  0 01145 7001 00   2901  	tsx0	ap|op_vec+252
    004443                        2902  chars_move_ck:
    004443  aa   040400 1004 00   2903  	mlr	(0),(0),fill(blank),enablefault
    004444  aa   020000 020000    2904  	zero	arg2,char
    004445  aa   010000 020000    2905  	zero	arg1,char
    004446                        2906  bits_move_ck:
    004446  aa   003400 0604 00   2907  	csl	(0),(0),bool(move),enablefault
    004447  aa   020000 030000    2908  	zero	arg2,bit
    004450  aa   010000 030000    2909  	zero	arg1,bit
    004451                        2910  signal_stringsize:
    004451  aa  0 01164 7001 00   2911  	tsx0	ap|op_vec+267
    004452                        2912  size_check_fx1:
    004452  aa  0 01162 7001 00   2913  	tsx0	ap|op_vec+265
    004453                        2914  size_check_fx2:
    004453  aa  0 01163 7001 00   2915  	tsx0	ap|op_vec+266
    004454                        2916  size_check_uns_fx1:
    004454  aa  0 01445 7001 00   2917  	tsx0	ap|op_vec+444
    004455                        2918  size_check_uns_fx2:
    004455  aa  0 01446 7001 00   2919  	tsx0	ap|op_vec+445
    004456                        2920  size_ck_varying:
    004456  aa   010000 1160 00   2921  	cmpq	arg1
    004457  aa   000003 6044 04   2922  	tmoz	3,ic
    004460  aa  0 01164 7001 00   2923  	tsx0	ap|op_vec+267
    004461  aa   010000 2360 00   2924  	ldq	arg1
    004462                        2925  size_ck_suffix:
    004462  aa   010000 1160 00   2926  	cmpq	arg1
    004463  aa   000003 6050 04   2927  	tpl	3,ic
    004464  aa  0 01164 7001 00   2928  	tsx0	ap|op_vec+267
    004465  aa   000002 7100 04   2929  	tra	2,ic
    004466  aa   010000 2360 00   2930  	ldq	arg1
    004467                        2931  cmp_suffix_1:
    004467  aa   010000 1160 00   2932  	cmpq	arg1
    004470  aa   000005 6050 04   2933  	tpl	5,ic
    004471                        2934  size_ck_suffix_1:
    004471  aa   010000 1160 00   2935  	cmpq	arg1
    004472  aa   000003 6040 04   2936  	tmi	3,ic
    004473  aa  0 01164 7001 00   2937  	tsx0	ap|op_vec+267
    004474  aa   000005 7100 04   2938  	tra	5,ic
    004475                        2939  size_ck_decimal:
    004475  aa   000002 6200 04   2940  	eax0	2,ic
    004476  aa  0 01352 6171 00   2941  	tov	ap|op_vec+385
    004477                        2942  move_3:
    004477                        2943  move_odd:
    004477  aa   020000 2350 00   2944  	lda	arg2
    004500  aa   010000 7550 00   2945  	sta	arg1
    004501  aa   020001 2350 00   2946  	lda	arg2+1
    004502  aa   010001 7550 00   2947  	sta	arg1+1
    004503  aa   020002 2350 00   2948  	lda	arg2+2
    004504  aa   010002 7550 00   2949  	sta	arg1+2
    004505                        2950  move_odd_odd_3:
    004505                        2951  move_odd_odd_5:
    004505  aa   020000 2350 00   2952  	lda	arg2
    004506  aa   010000 7550 00   2953  	sta	arg1
    004507  aa   020001 2370 00   2954  	ldaq	arg2+1
    004510  aa   010001 7570 00   2955  	staq	arg1+1
    004511  aa   020003 2370 00   2956  	ldaq	arg2+3
    004512  aa   010003 7570 00   2957  	staq	arg1+3
    004513                        2958  move_odd_odd_4:
    004513  aa   020000 2350 00   2959  	lda	arg2
    004514  aa   010000 7550 00   2960  	sta	arg1
    004515  aa   020001 2370 00   2961  	ldaq	arg2+1
    004516  aa   010001 7570 00   2962  	staq	arg1+1
    004517  aa   020003 2350 00   2963  	lda	arg2+3
    004520  aa   010003 7550 00   2964  	sta	arg1+3
    004521                        2965  move_odd_even_3:
    004521  aa   020000 2370 00   2966  	ldaq	arg2
    004522  aa   010000 7550 00   2967  	sta	arg1
    004523  aa   010001 7560 00   2968  	stq	arg1+1
    004524  aa   020002 2350 00   2969  	lda	arg2+2
    004525  aa   010002 7550 00   2970  	sta	arg1+2
    004526                        2971  move_odd_even_4:
    004526  aa   020000 2370 00   2972  	ldaq	arg2
    004527  aa   010000 7550 00   2973  	sta	arg1
    004530  aa   010001 7560 00   2974  	stq	arg1+1
    004531  aa   020002 2370 00   2975  	ldaq	arg2+2
    004532  aa   010002 7550 00   2976  	sta	arg1+2
    004533  aa   010003 7560 00   2977  	stq	arg1+3
    004534                        2978  move_even_odd_3:
    004534  aa   020000 2350 00   2979  	lda	arg2
    004535  aa   020001 2360 00   2980  	ldq	arg2+1
    004536  aa   010000 7570 00   2981  	staq	arg1
    004537  aa   020002 2350 00   2982  	lda	arg2+2
    004540  aa   010002 7550 00   2983  	sta	arg1+2
    004541                        2984  move_even_odd_4:
    004541  aa   020000 2350 00   2985  	lda	arg2
    004542  aa   020001 2360 00   2986  	ldq	arg2+1
    004543  aa   010000 7570 00   2987  	staq	arg1
    004544  aa   020002 2350 00   2988  	lda	arg2+2
    004545  aa   020003 2360 00   2989  	ldq	arg2+3
    004546  aa   010002 7570 00   2990  	staq	arg1+2
    004547                        2991  move_even:
    004547                        2992  move_even_even_3:
    004547  aa   020000 2370 00   2993  	ldaq	arg2
    004550  aa   010000 7570 00   2994  	staq	arg1
    004551  aa   020002 2350 00   2995  	lda	arg2+2
    004552  aa   010002 7550 00   2996  	sta	arg1+2
    004553                        2997  move_even_even_4:
    004553                        2998  move_even_even_6:
    004553  aa   020000 2370 00   2999  	ldaq	arg2
    004554  aa   010000 7570 00   3000  	staq	arg1
    004555  aa   020002 2370 00   3001  	ldaq	arg2+2
    004556  aa   010002 7570 00   3002  	staq	arg1+2
    004557  aa   020004 2370 00   3003  	ldaq	arg2+4
    004560  aa   010004 7570 00   3004  	staq	arg1+4
    004561                        3005  move_even_even_5:
    004561  aa   020000 2370 00   3006  	ldaq	arg2
    004562  aa   010000 7570 00   3007  	staq	arg1
    004563  aa   020002 2370 00   3008  	ldaq	arg2+2
    004564  aa   010002 7570 00   3009  	staq	arg1+2
    004565  aa   020004 2350 00   3010  	lda	arg2+4
    004566  aa   010004 7550 00   3011  	sta	arg1+4
    004567                        3012  pl1_ptr_hard:
    004567  aa  0 01167 7001 00   3013  	tsx0	ap|op_vec+270
    004570                        3014  pl1_ptr_hard_pk:
    004570  aa  0 01212 7001 00   3015  	tsx0	ap|op_vec+289
    004571                        3016  pl1_ptr_easy:
    004571  aa  0 01213 7001 00   3017  	tsx0	ap|op_vec+290
    004572                        3018  pl1_ptr_easy_pk:
    004572  aa  0 01214 7001 00   3019  	tsx0	ap|op_vec+291
    004573                        3020  xr_to_q:
    004573  aa   010000 6360 00   3021  	eaq	arg1
    004574  aa   000022 7320 00   3022  	qrs	18
    004575                        3023  xr18_to_q:
    004575  aa   010000 6360 00   3024  	eaq	arg1
    004576  aa   000022 7720 00   3025  	qrl	18
    004577                        3026  packed_to_bp:
    004577  aa  6 00056 7561 00   3027  	stq	sp|46
    004600  aa  6 00056 7621 00   3028  	lprpbp	sp|46
    004601                        3029  packed_bit_offset:
    004601  aa   000036 7720 00   3030  	qrl	30
    004602                        3031  move_words:
    004602                        3032  copy_mac:
    004602  aa   000000 1004 00   3033  	mlr	(0),(0)
    004603  aa   020000 020000    3034  	zero	arg2,char
    004604  aa   010000 020000    3035  	zero	arg1,char
    004605                        3036  ext_entry:
    004605  aa   000000 6270 00   3037  	eax7	0
    004606  aa  7 00034 3521 20   3038  	eppbp	sb|ops_ptr,*
    004607  aa  2 01045 2721 00   3039  	tspbp	bp|op_vec+188
    004610                        3040  ext_entry_desc:
    004610  aa   000000 6270 00   3041  	eax7	0
    004611  aa  7 00034 3521 20   3042  	eppbp	sb|ops_ptr,*
    004612  aa  2 01046 2721 00   3043  	tspbp	bp|op_vec+189
    004613                        3044  int_entry:
    004613  aa   000000 6270 00   3045  	eax7	0
    004614  aa  7 00034 3521 20   3046  	eppbp	sb|ops_ptr,*
    004615  aa  2 01047 2721 00   3047  	tspbp	bp|op_vec+190
    004616                        3048  int_entry_desc:
    004616  aa   000000 6270 00   3049  	eax7	0
    004617  aa  7 00034 3521 20   3050  	eppbp	sb|ops_ptr,*
    004620  aa  2 01050 2721 00   3051  	tspbp	bp|op_vec+191
    004621                        3052  val_entry:
    004621  aa   000000 6270 00   3053  	eax7	0
    004622  aa  7 00034 3521 20   3054  	eppbp	sb|ops_ptr,*
    004623  aa  2 01051 2721 00   3055  	tspbp	bp|op_vec+192
    004624                        3056  val_entry_desc:
    004624  aa   000000 6270 00   3057  	eax7	0
    004625  aa  7 00034 3521 20   3058  	eppbp	sb|ops_ptr,*
    004626  aa  2 01052 2721 00   3059  	tspbp	bp|op_vec+193
    004627                        3060  ss_ext_entry:
    004627  aa   000000 6270 00   3061  	eax7	0
    004630  aa  7 00034 3521 20   3062  	eppbp	sb|ops_ptr,*
    004631  aa  2 01353 2721 00   3063  	tspbp	bp|op_vec+386
    004632                        3064  ss_ext_entry_desc:
    004632  aa   000000 6270 00   3065  	eax7	0
    004633  aa  7 00034 3521 20   3066  	eppbp	sb|ops_ptr,*
    004634  aa  2 01354 2721 00   3067  	tspbp	bp|op_vec+387
    004635                        3068  ss_int_entry:
    004635  aa   000000 6270 00   3069  	eax7	0
    004636  aa  7 00034 3521 20   3070  	eppbp	sb|ops_ptr,*
    004637  aa  2 01355 2721 00   3071  	tspbp	bp|op_vec+388
    004640                        3072  ss_int_entry_desc:
    004640  aa   000000 6270 00   3073  	eax7	0
    004641  aa  7 00034 3521 20   3074  	eppbp	sb|ops_ptr,*
    004642  aa  2 01356 2721 00   3075  	tspbp	bp|op_vec+389
    004643                        3076  ss_val_entry:
    004643  aa   000000 6270 00   3077  	eax7	0
    004644  aa  7 00034 3521 20   3078  	eppbp	sb|ops_ptr,*
    004645  aa  2 01357 2721 00   3079  	tspbp	bp|op_vec+390
    004646                        3080  ss_val_entry_desc:
    004646  aa   000000 6270 00   3081  	eax7	0
    004647  aa  7 00034 3521 20   3082  	eppbp	sb|ops_ptr,*
    004650  aa  2 01360 2721 00   3083  	tspbp	bp|op_vec+391
    004651                        3084  inline_verify:
    004651  aa   000000 1244 00   3085  	scm	(0),(0)
    004652  aa   020000 020000    3086  	zero	arg2,char
    004653  aa   010000 020000    3087  	zero	arg1,char
    004654  aa  6 00056 0001 00   3088  	arg	sp|46
    004655  aa   000001 2360 07   3089  	ldq	1,dl
    004656  aa   000002 6064 04   3090  	ttn	2,ic
    004657  aa   000000 2360 07   3091  	ldq	0,dl
    004660                        3092  inline_search:
    004660  aa   000000 1244 00   3093  	scm	(0),(0)
    004661  aa   020000 020000    3094  	zero	arg2,char
    004662  aa   010000 020000    3095  	zero	arg1,char
    004663  aa  6 00056 0001 00   3096  	arg	sp|46
    004664  aa   000001 2360 07   3097  	ldq	1,dl
    004665  aa   000002 6070 04   3098  	ttf	2,ic
    004666  aa   000000 2360 07   3099  	ldq	0,dl
    004667                        3100  verify_ltrim_inline:
    004667                        3101  test_translate:
    004667  aa   000000 1644 00   3102  	tct	(0)
    004670  aa   010000 020000    3103  	zero	arg1,char
    004671  aa   020000 000000    3104  	zero	arg2,addr
    004672  aa  6 00056 0001 00   3105  	arg	sp|46
    004673  aa  6 00056 2361 00   3106  	ldq	sp|46
    004674  aa  0 00242 3761 00   3107  	anq	ap|tct_mask_
    004675  aa   000002 6070 04   3108  	ttf	2,ic
    004676  aa   000001 3360 07   3109  	lcq	1,dl
    004677  aa   000001 0760 07   3110  	adq	1,dl
    004700                        3111  verify_rtrim_inline:
    004700                        3112  test_trans_rev:
    004700  aa   000000 1654 00   3113  	tctr	(0)
    004701  aa   010000 020000    3114  	zero	arg1,char
    004702  aa   020000 000000    3115  	zero	arg2,addr
    004703  aa  6 00056 0001 00   3116  	arg	sp|46
    004704  aa  6 00056 2361 00   3117  	ldq	sp|46
    004705  aa  0 00242 3761 00   3118  	anq	ap|tct_mask_
    004706  aa   000002 6070 04   3119  	ttf	2,ic
    004707  aa   000001 3360 07   3120  	lcq	1,dl
    004710  aa   000001 0760 07   3121  	adq	1,dl
                                  3122  "
    004711                        3123  sqrt_mac:
    004711  aa  0 01274 2731 00   3124  	tsp3	ap|op_vec+339
    004712                        3125  sin_mac:
    004712  aa  0 01275 2731 00   3126  	tsp3	ap|op_vec+340
    004713                        3127  sind_mac:
    004713  aa  0 01276 2731 00   3128  	tsp3	ap|op_vec+341
    004714                        3129  cos_mac:
    004714  aa  0 01277 2731 00   3130  	tsp3	ap|op_vec+342
    004715                        3131  cosd_mac:
    004715  aa  0 01300 2731 00   3132  	tsp3	ap|op_vec+343
    004716                        3133  tan_mac:
    004716  aa  0 01301 2731 00   3134  	tsp3	ap|op_vec+344
    004717                        3135  tand_mac:
    004717  aa  0 01302 2731 00   3136  	tsp3	ap|op_vec+345
    004720                        3137  asin_mac:
    004720  aa  0 01303 2731 00   3138  	tsp3	ap|op_vec+346
    004721                        3139  asind_mac:
    004721  aa  0 01304 2731 00   3140  	tsp3	ap|op_vec+347
    004722                        3141  acos_mac:
    004722  aa  0 01305 2731 00   3142  	tsp3	ap|op_vec+348
    004723                        3143  acosd_mac:
    004723  aa  0 01306 2731 00   3144  	tsp3	ap|op_vec+349
    004724                        3145  atan_mac:
    004724  aa  0 01307 2731 00   3146  	tsp3	ap|op_vec+350
    004725                        3147  atand_mac:
    004725  aa  0 01310 2731 00   3148  	tsp3	ap|op_vec+351
    004726                        3149  log2_mac:
    004726  aa  0 01311 2731 00   3150  	tsp3	ap|op_vec+352
    004727                        3151  log_mac:
    004727  aa  0 01312 2731 00   3152  	tsp3	ap|op_vec+353
    004730                        3153  log10_mac:
    004730  aa  0 01313 2731 00   3154  	tsp3	ap|op_vec+354
    004731                        3155  exp_mac:
    004731  aa  0 01314 2731 00   3156  	tsp3	ap|op_vec+355
    004732                        3157  dsqrt_mac:
    004732  aa  0 01315 2731 00   3158  	tsp3	ap|op_vec+356
    004733                        3159  dsin_mac:
    004733  aa  0 01316 2731 00   3160  	tsp3	ap|op_vec+357
    004734                        3161  dsind_mac:
    004734  aa  0 01317 2731 00   3162  	tsp3	ap|op_vec+358
    004735                        3163  dcos_mac:
    004735  aa  0 01320 2731 00   3164  	tsp3	ap|op_vec+359
    004736                        3165  dcosd_mac:
    004736  aa  0 01321 2731 00   3166  	tsp3	ap|op_vec+360
    004737                        3167  dtan_mac:
    004737  aa  0 01322 2731 00   3168  	tsp3	ap|op_vec+361
    004740                        3169  dtand_mac:
    004740  aa  0 01323 2731 00   3170  	tsp3	ap|op_vec+362
    004741                        3171  dasin_mac:
    004741  aa  0 01324 2731 00   3172  	tsp3	ap|op_vec+363
    004742                        3173  dasind_mac:
    004742  aa  0 01325 2731 00   3174  	tsp3	ap|op_vec+364
    004743                        3175  dacos_mac:
    004743  aa  0 01326 2731 00   3176  	tsp3	ap|op_vec+365
    004744                        3177  dacosd_mac:
    004744  aa  0 01327 2731 00   3178  	tsp3	ap|op_vec+366
    004745                        3179  datan_mac:
    004745  aa  0 01330 2731 00   3180  	tsp3	ap|op_vec+367
    004746                        3181  datand_mac:
    004746  aa  0 01331 2731 00   3182  	tsp3	ap|op_vec+368
    004747                        3183  dlog2_mac:
    004747  aa  0 01332 2731 00   3184  	tsp3	ap|op_vec+369
    004750                        3185  dlog_mac:
    004750  aa  0 01333 2731 00   3186  	tsp3	ap|op_vec+370
    004751                        3187  dlog10_mac:
    004751  aa  0 01334 2731 00   3188  	tsp3	ap|op_vec+371
    004752                        3189  dexp_mac:
    004752  aa  0 01335 2731 00   3190  	tsp3	ap|op_vec+372
    004753                        3191  atan2_mac:
    004753  aa  0 01336 2731 00   3192  	tsp3	ap|op_vec+373
    004754                        3193  atan2d_mac:
    004754  aa  0 01337 2731 00   3194  	tsp3	ap|op_vec+374
    004755                        3195  datan2_mac:
    004755  aa  0 01340 2731 00   3196  	tsp3	ap|op_vec+375
    004756                        3197  datan2d_mac:
    004756  aa  0 01341 2731 00   3198  	tsp3	ap|op_vec+376
    004757                        3199  int_p_real:
    004757  aa  0 01342 2731 00   3200  	tsp3	ap|op_vec+377
    004760                        3201  int_p_dbl:
    004760  aa  0 01343 2731 00   3202  	tsp3	ap|op_vec+378
    004761                        3203  dbl_p_real:
    004761  aa  0 01344 2731 00   3204  	tsp3	ap|op_vec+379
    004762                        3205  dbl_p_dbl:
    004762  aa  0 01345 2731 00   3206  	tsp3	ap|op_vec+380
    004763                        3207  dbl_p_int:
    004763  aa  0 01346 2731 00   3208  	tsp3	ap|op_vec+381
    004764                        3209  real_p_real:
    004764  aa  0 01347 2731 00   3210  	tsp3	ap|op_vec+382
    004765                        3211  real_p_int:
    004765  aa  0 01350 2731 00   3212  	tsp3	ap|op_vec+383
    004766                        3213  int_p_int:
    004766  aa  0 01351 2731 00   3214  	tsp3	ap|op_vec+384
                                  3215  "				state_man$flush called after this macro
    004767                        3216  enable_file:
    004767  aa   020000 3520 00   3217  	eppbp	arg2
    004770  aa   010000 6350 00   3218  	eaa	arg1
    004771  aa  0 01216 7001 00   3219  	tsx0	ap|op_vec+293
    004772  aa   030000 7100 00   3220  	tra	arg3
                                  3221  "				state_man$flush called after this macro
    004773                        3222  enable_file_2:
    004773  aa   020000 3520 00   3223  	eppbp	arg2
    004774  aa   010000 6350 00   3224  	eaa	arg1
    004775  aa   040000 2750 00   3225  	ora	arg4
    004776  aa  0 01216 7001 00   3226  	tsx0	ap|op_vec+293
    004777  aa   030000 7100 00   3227  	tra	arg3
                                  3228  "
    005000                        3229  revert_file:
    005000  aa   020000 3520 00   3230  	eppbp	arg2
    005001  aa   010000 6350 00   3231  	eaa	arg1
    005002  aa  0 01217 7001 00   3232  	tsx0	ap|op_vec+294
                                  3233  "
    005003                        3234  alloc_block:
    005003  aa   010000 3520 00   3235  	eppbp	arg1
    005004  aa  0 01220 7001 00   3236  	tsx0	ap|op_vec+295
                                  3237  "
    005005                        3238  free_block:
    005005  aa   010000 3520 00   3239  	eppbp	arg1
    005006  aa  0 01221 7001 00   3240  	tsx0	ap|op_vec+296
                                  3241  "
    005007                        3242  push_ctl_data:
    005007  aa   010000 3520 00   3243  	eppbp	arg1
    005010  aa  0 01222 7001 00   3244  	tsx0	ap|op_vec+297
                                  3245  "
    005011                        3246  push_ctl_desc:
    005011  aa   010000 3520 00   3247  	eppbp	arg1
    005012  aa  0 01223 7001 00   3248  	tsx0	ap|op_vec+298
                                  3249  "
    005013                        3250  pop_ctl_data:
    005013  aa   010000 3520 00   3251  	eppbp	arg1
    005014  aa  0 01224 7001 00   3252  	tsx0	ap|op_vec+299
                                  3253  "
    005015                        3254  pop_ctl_desc:
    005015  aa   010000 3520 00   3255  	eppbp	arg1
    005016  aa  0 01225 7001 00   3256  	tsx0	ap|op_vec+300
                                  3257  "
    005017                        3258  allocation:
    005017  aa   010000 3520 00   3259  	eppbp	arg1
    005020  aa  0 01226 7001 00   3260  	tsx0	ap|op_vec+301
                                  3261  "
    005021                        3262  ab_to_aq:
    005021  aa  6 00056 2515 00   3263  	spri1	sp|46
    005022  aa  6 00056 2371 00   3264  	ldaq	sp|46
                                  3265  "
    005023                        3266  bb_to_aq:
    005023  aa  6 00056 2535 00   3267  	spri3	sp|46
    005024  aa  6 00056 2371 00   3268  	ldaq	sp|46
                                  3269  "
    005025                        3270  lb_to_aq:
    005025  aa  6 00056 6515 00   3271  	spri5	sp|46
    005026  aa  6 00056 2371 00   3272  	ldaq	sp|46
                                  3273  "
    005027                        3274  sb_to_aq:
    005027  aa  6 00056 6535 00   3275  	spri7	sp|46
    005030  aa  6 00056 2371 00   3276  	ldaq	sp|46
                                  3277  "
    005031                        3278  zero_bo_bp:
    005031  aa   000000 0520 03   3279  	adwpbp	0,du
    005032                        3280  zero_bo_ab:
    005032  aa   000000 0510 03   3281  	adwpab	0,du
    005033                        3282  zero_bo_bb:
    005033  aa   000000 0530 03   3283  	adwpbb	0,du
    005034                        3284  zero_bo_lb:
    005034  aa   000000 1510 03   3285  	adwplb	0,du
    005035                        3286  zero_bo_sb:
    005035  aa   000000 1530 03   3287  	adwpsb	0,du
                                  3288  "
    005036                        3289  abd:
    005036  aa  0 10000 5035 00   3290  	abd	ap|arg1
                                  3291  "
    005037                        3292  a9bd:
    005037  aa  0 10000 5005 00   3293  	a9bd	ap|arg1
                                  3294  "
    005040                        3295  a4bd:
    005040  aa  0 10000 5025 00   3296  	a4bd	ap|arg1
                                  3297  "
    005041                        3298  zero_mac_p_1:
    005041  aa   010001 4500 00   3299  	stz	arg1+1
                                  3300  "
    005042                        3301  alloc_based_area:
    005042  aa  0 01402 7001 00   3302  	tsx0	pr0|op_vec+409
    005043  aa   010000 7100 00   3303  	tra	arg1
    005044                        3304  alloc_based_mac:
    005044  aa  0 01403 7001 00   3305  	tsx0	pr0|op_vec+410
    005045  aa   010000 7100 00   3306  	tra	arg1
    005046                        3307  free_based_mac:
    005046  aa  0 01404 7001 00   3308  	tsx0	pr0|op_vec+411
    005047                        3309  empty_area_mac:
    005047  aa  0 01405 7001 00   3310  	tsx0	pr0|op_vec+412
                                  3311  "
    005050                        3312  long_profile_mac:
    005050  aa  0 01423 7001 00   3313  	tsx0	pr0|op_vec+426
                                  3314  "
    005051                        3315  ix_before_chars:
    005051  aa  0 01424 7001 00   3316  	tsx0	ap|op_vec+427
    005052                        3317  ix_before_bits:
    005052  aa  0 01425 7001 00   3318  	tsx0	ap|op_vec+428
    005053                        3319  ix_after_chars:
    005053  aa  0 01426 7001 00   3320  	tsx0	ap|op_vec+429
    005054                        3321  ix_after_bits:
    005054  aa  0 01427 7001 00   3322  	tsx0	ap|op_vec+430
    005055                        3323  ix_before_bits_1:
    005055  aa  0 01430 7001 00   3324  	tsx0	ap|op_vec+431
    005056                        3325  ix_after_chars_1:
    005056  aa   000000 1244 00   3326  	scm	(0),(0)
    005057  aa   010000 020000    3327  	zero	arg1,char
    005060  aa   020000 020000    3328  	zero	arg2,char
    005061  aa  6 00056 0001 00   3329  	arg	sp|46
    005062  aa  6 00056 2361 00   3330  	ldq	sp|46
    005063  aa   000002 6064 04   3331  	ttn	2,ic
    005064  aa   000001 0760 07   3332  	adq	1,dl
    005065                        3333  ix_after_bits_1:
    005065  aa  0 01431 7001 00   3334  	tsx0	ap|op_vec+432
    005066                        3335  ix_before_chars_2:
    005066  aa   000000 1204 00   3336  	scd	(0),(0)
    005067  aa   010000 020000    3337  	zero	arg1,char
    005070  aa   020000 020000    3338  	zero	arg2,char
    005071  aa  6 00056 0001 00   3339  	arg	sp|46
    005072  aa  6 00056 2361 00   3340  	ldq	sp|46
    005073  aa   000002 6070 04   3341  	ttf	2,ic
    005074  aa   000001 0760 07   3342  	adq	1,dl
    005075                        3343  ix_after_chars_2:
    005075  aa   000000 1204 00   3344  	scd	(0),(0)
    005076  aa   010000 020000    3345  	zero	arg1,char
    005077  aa   020000 020000    3346  	zero	arg2,char
    005100  aa  6 00056 0001 00   3347  	arg	sp|46
    005101  aa  6 00056 2361 00   3348  	ldq	sp|46
    005102  aa   000001 0760 07   3349  	adq	1,dl
    005103  aa   000002 6064 04   3350  	ttn	2,ic
    005104  aa   000001 0760 07   3351  	adq	1,dl
    005105                        3352  verify_ltrim:
    005105  aa  0 01432 7001 00   3353  	tsx0	ap|op_vec+433
    005106                        3354  verify_rtrim:
    005106  aa  0 01433 7001 00   3355  	tsx0	ap|op_vec+434
                                  3356  "
    005107                        3357  stacq_mac:
    005107  aa   010000 2360 00   3358  	ldq	arg1
    005110  aa  0 01434 7001 00   3359  	tsx0	ap|op_vec+435
                                  3360  "
    005111                        3361  clock_mac:
    005111  aa  0 01435 7001 00   3362  	tsx0	ap|op_vec+436
                                  3363  "
    005112                        3364  vclock_mac:
    005112  aa  0 01436 7001 00   3365  	tsx0	ap|op_vec+437
                                  3366  "
    005113                        3367  stop_mac:
    005113  aa  0 01441 7101 00   3368  	tra	ap|op_vec+440
                                  3369  "
    005114                        3370  return_main_mac:
    005114  aa  0 01442 7101 00   3371  	tra	ap|op_vec+441
                                  3372  "
    005115                        3373  set_main_mac:
    005115  aa  0 01443 7001 00   3374  	tsx0	ap|op_vec+442
                                  3375  "
    005116                        3376  zero_4bcs:
    005116  aa   000000 1004 00   3377  	mlr	(0),(0),fill(0)
    005117  aa   000000 000000    3378  	zero	0
    005120  aa   010000 040002    3379  	zero	arg1,char4+2
                                  3380  "
    005121                        3381  rank_eis_mac:
    005121  aa   000000 1014 00   3382  	mrl	(0),(0),fill(0)
    005122  aa   020000 020001    3383  	zero	arg2,char+1
    005123  aa   010000 020004    3384  	zero	arg1,char+4
                                  3385  "
    005124                        3386  prepare_call_long:
    005124  aa   010000 6210 00   3387  	eax1	arg1
    005125  aa   020000 2350 00   3388  	lda	arg2
    005126  aa   000000 2360 03   3389  	ldq	0,du
                                  3390  "
    005127                        3391  prepare_quick_call_long:
    005127  aa   010000 3520 00   3392  	eppbp	arg1
    005130  aa   020000 2350 00   3393  	lda	arg2
    005131  aa   000000 2360 03   3394  	ldq	0,du
    005132  aa  2 00000 7571 00   3395  	staq	bp|0
                                  3396
    005133                        3397  charno_mac:
    005133  aa   000022 7770 00   3398  	llr	18		" word count in AL, bit in QU
    005134  aa   777777 3750 07   3399  	ana	=o777777,dl	" flush ringno from AU
    005135  aa   000002 7350 00   3400  	als	2		" char count
    005136  aa  0 76352 0751 02   3401  	ada	ap|bitno_to_charno_,qu " bitno is in QU
    005137  aa   000044 7730 00   3402  	lrl	36		" back to the Q
    005140                        3403  bitno_mac:
                                  3404  				" S R
                                  3405  				" W B
    005140  aa   000066 7770 00   3406  	llr	54		" B S
                                  3407  				" R W
    005141  aa   000022 7310 00   3408  	ars	18		" 0 B
                                  3409  				" R W
    005142  aa  6 00056 7551 00   3410  	sta	sp|46		" stash
    005143  aa   777777 3760 07   3411  	anq	=o777777,dl	" 0 B
                                  3412  				" 0 W
    005144  aa   000044 4020 07   3413  	mpy	36,dl		" 0 0
                                  3414  				" W*36
    005145  aa  6 00056 0761 00   3415  	adq	sp|46		" 0 0
                                  3416  				" W*36+B
                                  3417
                                  3418  	end

NO LITERALS

NAME DEFINITIONS FOR ENTRY POINTS AND SEGDEFS

    005146  5a   000003 000000
    005147  5a   000042 600000
    005150  aa   000000 000000
    005151  55   000011 000002
    005152  5a   000002 400003
    005153  55   000006 000011
    005154  aa  013 155 141 143
    005155  aa  162 157 137 164
    005156  aa  141 142 154 145
    005157  55   000017 000003
    005160  0a   000000 400000
    005161  55   000014 000003
    005162  aa  011 145 141 170         eax_array
    005163  aa  137 141 162 162
    005164  aa  141 171 000 000
    005165  55   000025 000011
    005166  0a   002744 400000
    005167  55   000022 000003
    005170  aa  013 155 141 143         macro_count
    005171  aa  162 157 137 143
    005172  aa  157 165 156 164
    005173  55   000033 000017
    005174  0a   000030 400000
    005175  55   000030 000003
    005176  aa  013 155 141 143         macro_table
    005177  aa  162 157 137 164
    005200  aa  141 142 154 145
    005201  55   000002 000025
    005202  6a   000000 400002
    005203  55   000036 000003
    005204  aa  014 163 171 155         symbol_table
    005205  aa  142 157 154 137
    005206  aa  164 141 142 154
    005207  aa  145 000 000 000

DEFINITIONS HASH TABLE

    005210  aa   000000 000015
    005211  aa   000000 000000
    005212  aa   000000 000000
    005213  aa   000000 000000
    005214  aa   000000 000000
    005215  5a   000011 000000
    005216  5a   000017 000000
    005217  5a   000025 000000
    005220  5a   000033 000000
    005221  aa   000000 000000
    005222  aa   000000 000000
    005223  aa   000000 000000
    005224  aa   000000 000000
    005225  aa   000000 000000

NO EXTERNAL NAMES

NO TRAP POINTER WORDS

TYPE PAIR BLOCKS

    005226  aa   000001 000000
    005227  aa   000000 000000

INTERNAL EXPRESSION WORDS

LINKAGE INFORMATION

    000000  aa   000000 000000
    000001  0a   005146 000000
    000002  aa   000000 000000
    000003  aa   000000 000000
    000004  aa   000000 000000
    000005  aa   000000 000000
    000006  22   000010 000010
    000007  a2   000000 000000
SYMBOL INFORMATION

SYMBOL TABLE HEADER

    000000  aa   000000 000001
    000001  aa   163171 155142
    000002  aa   164162 145145
    000003  aa   000000 000004
    000004  aa   000000 112143
    000005  aa   305203 523135
    000006  aa   000000 114602
    000007  aa   446617 005202
    000010  aa   141154 155040
    000011  aa   040040 040040
    000012  aa   000024 000040
    000013  aa   000034 000040
    000014  aa   000044 000100
    000015  aa   000002 000002
    000016  aa   000064 000000
    000017  aa   000000 000445
    000020  aa   000000 000106
    000021  aa   000000 000434
    000022  aa   000437 000106
    000023  aa   000064 000000
    000024  aa   101114 115040
    000025  aa   126145 162163
    000026  aa   151157 156040
    000027  aa   040066 056066
    000030  aa   040040 116157
    000031  aa   166145 155142
    000032  aa   145162 040061
    000033  aa   071070 062040
    000034  aa   107112 157150
    000035  aa   156163 157156
    000036  aa   056123 171163
    000037  aa   115141 151156
    000040  aa   164056 141040
    000041  aa   040040 040040
    000042  aa   040040 040040
    000043  aa   040040 040040
    000044  aa   154151 163164
    000045  aa   040040 040040
    000046  aa   040040 040040
    000047  aa   040040 040040
    000050  aa   040040 040040
    000051  aa   040040 040040
    000052  aa   040040 040040
    000053  aa   040040 040040
    000054  aa   040040 040040
    000055  aa   040040 040040
    000056  aa   040040 040040
    000057  aa   040040 040040
    000060  aa   040040 040040
    000061  aa   040040 040040
    000062  aa   040040 040040
    000063  aa   040040 040040
    000064  aa   000000 000001
    000065  aa   000000 000001
    000066  aa   000072 000060
    000067  aa   146006 344510
    000070  aa   000000 114602
    000071  aa   446406 600000
    000072  aa   076163 160145          >special_ldd>install>MR12.0-1105>macro_table.alm
    000073  aa   143151 141154
    000074  aa   137154 144144
    000075  aa   076151 156163
    000076  aa   164141 154154
    000077  aa   076115 122061
    000100  aa   062056 060055
    000101  aa   061061 060065
    000102  aa   076155 141143
    000103  aa   162157 137164
    000104  aa   141142 154145
    000105  aa   056141 154155
               MULTICS ASSEMBLY CROSS REFERENCE LISTING

   Value        Symbol                   Source file   Line number

      400000    a                        macro_table:   72,   74,  158,  230,  236,  248,  260,  334,  336,  368,  474,  476,
                                                       478,  480,  482,  484,  486,  488,  490,  492,  638,  742,  766,  820,
                                                       896,  916,  920,  922,  948, 1028, 1030, 1086, 1088, 1090, 1292, 1316,
                                                      1446, 1606, 1622.
        5040    a4bd                     macro_table: 1627, 3295.
        5037    a9bd                     macro_table: 1443, 3292.
        5036    abd                      macro_table: 1441, 3289.
        3534    absfl1                   macro_table:  411, 2232.
        3534    absfl2                   macro_table:  413, 2233.
        3527    absfx1                   macro_table:  407, 2225.
        3532    absfx2                   macro_table:  409, 2229.
        3251    abs_cdec                 macro_table: 1243, 1934.
        3225    abs_decimal              macro_table: 1101, 1907.
        3230    abs_decimal_4bit         macro_table: 1629, 1911.
        5021    ab_to_aq                 macro_table: 1407, 3262.
        4723    acosd_mac                macro_table: 1015, 3143.
        4722    acos_mac                 macro_table: 1011, 3141.
           0    addr                     macro_table:  139, 1993, 3104, 3115.
        3457    addrel_mac_bs            macro_table:  583, 2155.
        3475    addrel_mac_bs_ab         macro_table: 1491, 2181.
        3477    addrel_mac_bs_bb         macro_table: 1495, 2185.
        3501    addrel_mac_bs_lb         macro_table: 1499, 2189.
        3503    addrel_mac_bs_sb         macro_table: 1503, 2193.
        4054    addrel_mac_const         macro_table:  809, 2522.
        4061    addrel_mac_c_ab          macro_table: 1467, 2532.
        4062    addrel_mac_c_bb          macro_table: 1469, 2534.
        4063    addrel_mac_c_lb          macro_table: 1471, 2536.
        4064    addrel_mac_c_sb          macro_table: 1473, 2538.
        3460    addrel_mac_fx            macro_table:  585, 2157.
        3476    addrel_mac_fx_ab         macro_table: 1493, 2183.
        3500    addrel_mac_fx_bb         macro_table: 1497, 2187.
        3502    addrel_mac_fx_lb         macro_table: 1501, 2191.
        3504    addrel_mac_fx_sb         macro_table: 1505, 2195.
        3107    add_decimal              macro_table: 1035, 1799.
        3117    add_decimal_2            macro_table: 1039, 1809.
        3122    add_decimal_2_rd         macro_table: 1041, 1813.
        3113    add_decimal_rd           macro_table: 1037, 1804.
      777770    all                      macro_table:   90,  350,  532,  534,  536,  542,  548,  564,  732,  738,  980,  982,
                                                       984,  986,  988,  990, 1320, 1344, 1346, 1348, 1350, 1352, 1354, 1448,
                                                      1450, 1452, 1454, 1456, 1458, 1614.
        5017    allocation               macro_table: 1383, 3258.
        5042    alloc_based_area         macro_table: 1159, 3301.
        5044    alloc_based_mac          macro_table: 1545, 3304.
        3001    alloc_bit_temp           macro_table:  335, 1693.
        5003    alloc_block              macro_table: 1371, 3234.
        3000    alloc_char_temp          macro_table:  333, 1691.
        3002    alloc_temp               macro_table:  337, 1695.
        2760    ana_anq                  macro_table:  237, 1387, 1666.
           1    and                      macro_table:  148, 1747, 1771.
        2762    ansa_ansq                macro_table:  243,  245, 1669.
        4315    any_to_any_rd            macro_table:  985, 2753.
        4316    any_to_any_tr            macro_table:  983, 2755.
      600000    aq                       macro_table:   74,   90,  160,  162,  172,  174,  176,  180,  182,  184,  196,  198,
                                                       202,  204,  206,  208,  210,  212,  214,  216,  218,  220,  222,  224,
                                                       226,  228,  232,  234,  238,  240,  250,  252,  262,  264,  272,  332,
                                                       338,  340,  342,  364,  366,  370,  372,  374,  376,  380,  382,  384,
                                                       386,  396,  398,  400,  402,  404,  406,  410,  412,  414,  418,  420,
                                                       422,  426,  448,  450,  452,  466,  468,  502,  504,  506,  556,  558,
                                                       572,  574,  640,  642,  648,  652,  654,  656,  660,  662,  664,  668,
                                                       672,  674,  676,  682,  694,  696,  698,  700,  702,  704,  716,  718,
                                                       720,  734,  744,  756,  758,  760,  762,  788,  790,  798,  806,  822,
                                                       824,  880,  882,  892,  894,  900,  908,  924,  926,  928,  930,  932,
                                                       936,  942,  944,  946,  950,  952,  954,  956,  958,  960,  962,  964,
                                                       966,  968,  970,  972,  976,  978, 1060, 1062, 1078, 1126, 1128, 1140,
                                                      1188, 1192, 1194, 1198, 1202, 1204, 1208, 1210, 1216, 1218, 1224, 1226,
                                                      1228, 1230, 1232, 1238, 1240, 1244, 1246, 1248, 1250, 1252, 1254, 1256,
                                                      1258, 1260, 1294, 1296, 1298, 1300, 1302, 1304, 1306, 1308, 1310, 1312,
                                                      1314, 1318, 1332, 1334, 1342, 1356, 1358, 1360, 1362, 1364, 1366, 1368,
                                                      1370, 1372, 1374, 1376, 1378, 1380, 1382, 1384, 1388, 1408, 1410, 1412,
                                                      1414, 1538, 1540, 1556, 1558, 1560, 1562, 1566, 1570, 1600, 1602, 1604,
                                                      1624, 1632, 1638, 1640.
       10000    arg1                     macro_table:  132, 1648, 1649, 1651, 1652, 1654, 1658, 1661, 1667, 1668, 1670, 1671,
                                                      1673, 1674, 1676, 1677, 1679, 1680, 1682, 1683, 1713, 1721, 1725, 1729,
                                                      1733, 1737, 1741, 1745, 1749, 1753, 1757, 1761, 1765, 1769, 1773, 1777,
                                                      1781, 1785, 1789, 1794, 1798, 1803, 1808, 1812, 1816, 1821, 1826, 1830,
                                                      1834, 1839, 1844, 1848, 1852, 1862, 1867, 1871, 1876, 1879, 1885, 1889,
                                                      1893, 1897, 1899, 1902, 1905, 1910, 1914, 1918, 1923, 1926, 1929, 1932,
                                                      1935, 1938, 1941, 1968, 1992, 2019, 2021, 2027, 2029, 2032, 2034, 2043,
                                                      2047, 2051, 2078, 2081, 2085, 2088, 2092, 2094, 2095, 2101, 2116, 2118,
                                                      2120, 2123, 2145, 2150, 2237, 2240, 2252, 2260, 2300, 2302, 2304, 2306,
                                                      2308, 2310, 2312, 2314, 2316, 2318, 2320, 2322, 2324, 2326, 2328, 2330,
                                                      2335, 2338, 2369, 2372, 2375, 2378, 2381, 2384, 2387, 2390, 2393, 2396,
                                                      2399, 2402, 2405, 2408, 2411, 2415, 2417, 2420, 2431, 2432, 2434, 2435,
                                                      2441, 2444, 2447, 2449, 2452, 2457, 2463, 2468, 2473, 2476, 2491, 2499,
                                                      2503, 2505, 2507, 2508, 2512, 2514, 2517, 2541, 2542, 2555, 2564, 2573,
                                                      2582, 2594, 2598, 2602, 2606, 2610, 2615, 2619, 2621, 2624, 2627, 2630,
                                                      2633, 2637, 2638, 2640, 2642, 2644, 2649, 2651, 2655, 2657, 2661, 2664,
                                                      2667, 2670, 2680, 2690, 2694, 2696, 2698, 2699, 2701, 2704, 2709, 2712,
                                                      2713, 2762, 2764, 2766, 2768, 2770, 2810, 2813, 2818, 2822, 2831, 2832,
                                                      2840, 2841, 2847, 2852, 2856, 2859, 2860, 2862, 2891, 2905, 2909, 2921,
                                                      2924, 2926, 2930, 2932, 2935, 2945, 2947, 2949, 2953, 2955, 2957, 2960,
                                                      2962, 2964, 2967, 2968, 2970, 2973, 2974, 2976, 2977, 2981, 2983, 2987,
                                                      2990, 2994, 2996, 3000, 3002, 3004, 3007, 3009, 3011, 3021, 3024, 3035,
                                                      3087, 3095, 3103, 3114, 3218, 3224, 3231, 3235, 3239, 3243, 3247, 3251,
                                                      3255, 3259, 3290, 3293, 3296, 3299, 3303, 3306, 3327, 3337, 3345, 3358,
                                                      3379, 3384, 3387, 3392.
       20000    arg2                     macro_table:  133, 1712, 1720, 1724, 1728, 1732, 1736, 1744, 1748, 1752, 1756, 1760,
                                                      1764, 1768, 1772, 1776, 1780, 1784, 1788, 1793, 1797, 1801, 1806, 1811,
                                                      1815, 1820, 1825, 1829, 1833, 1837, 1842, 1847, 1851, 1861, 1866, 1870,
                                                      1874, 1880, 1884, 1888, 1892, 1896, 1917, 1922, 1991, 2048, 2052, 2082,
                                                      2115, 2146, 2238, 2241, 2270, 2279, 2280, 2284, 2285, 2288, 2292, 2293,
                                                      2342, 2351, 2352, 2356, 2357, 2360, 2364, 2365, 2370, 2414, 2455, 2461,
                                                      2466, 2471, 2474, 2477, 2490, 2502, 2511, 2556, 2565, 2574, 2583, 2601,
                                                      2605, 2645, 2648, 2687, 2688, 2697, 2705, 2707, 2708, 2710, 2714, 2718,
                                                      2719, 2723, 2724, 2725, 2763, 2767, 2819, 2848, 2853, 2904, 2908, 2944,
                                                      2946, 2948, 2952, 2954, 2956, 2959, 2961, 2963, 2966, 2969, 2972, 2975,
                                                      2979, 2980, 2982, 2985, 2986, 2988, 2989, 2993, 2995, 2999, 3001, 3003,
                                                      3006, 3008, 3010, 3034, 3086, 3094, 3104, 3115, 3217, 3223, 3230, 3328,
                                                      3338, 3346, 3383, 3388, 3393.
       30000    arg3                     macro_table:  134, 1802, 1807, 1819, 1824, 1838, 1843, 1860, 1875, 1881, 1993, 2272,
                                                      2274, 2344, 2346, 2454, 2504, 2689, 2700, 2850, 3220, 3227.
       40000    arg4                     macro_table:  135, 2273, 2345, 3225.
        3613    args_by_2_mac            macro_table:  643, 2296.
        4721    asind_mac                macro_table: 1007, 3139.
        4720    asin_mac                 macro_table: 1003, 3137.
        3754    assign_label_const       macro_table:  725, 2430.
        4203    assign_lab_to_int        macro_table:  913, 2647.
        4754    atan2d_mac               macro_table: 1269, 3193.
        4753    atan2_mac                macro_table: 1163, 3191.
        4725    atand_mac                macro_table: 1023, 3147.
        4724    atan_mac                 macro_table: 1019, 3145.
        4226    atm_rflb1_to_cflb1       macro_table:  943, 2679.
        3261    a_to_x0                  macro_table:  767, 1947.
        3262    b2c_mac                  macro_table:  371, 1949.
        3264    b2w_mac                  macro_table:  373, 1952.
        3544    baseno_mac               macro_table:  637, 2246.
        3461    baseptr_mac_bs           macro_table:  587, 2159.
        3505    baseptr_mac_bs_ab        macro_table: 1507, 2197.
        3511    baseptr_mac_bs_bb        macro_table: 1511, 2203.
        3515    baseptr_mac_bs_lb        macro_table: 1515, 2209.
        3521    baseptr_mac_bs_sb        macro_table: 1519, 2215.
        3463    baseptr_mac_fx           macro_table:  589, 2162.
        3507    baseptr_mac_fx_ab        macro_table: 1509, 2200.
        3513    baseptr_mac_fx_bb        macro_table: 1513, 2206.
        3517    baseptr_mac_fx_lb        macro_table: 1517, 2212.
        3523    baseptr_mac_fx_sb        macro_table: 1521, 2218.
          30    bases                    macro_table:   89,   90,  538,  540,  782,  784,  812,  948, 1126, 1142, 1144, 1146,
                                                      1152, 1154, 1162, 1168, 1170, 1330.
        5023    bb_to_aq                 macro_table: 1409, 3266.
        3762    begin_return             macro_table:  731, 2440.
        3764    begin_return_main        macro_table: 1613, 2443.
        4026    beg_ev_proc              macro_table:  791, 2492.
       30000    bit                      macro_table:  142, 1720, 1721, 1728, 1729, 1736, 1737, 1744, 1745, 1748, 1749, 1752,
                                                      1753, 1756, 1757, 1760, 1761, 1764, 1765, 1768, 1769, 1772, 1773, 1776,
                                                      1777, 1780, 1781, 1784, 1785, 1788, 1789, 2043, 2051, 2052, 2490, 2491,
                                                      2594, 2598, 2601, 2602, 2605, 2606, 2908, 2909.
        5140    bitno_mac                macro_table: 1539, 3403.
      776352    bitno_to_charno_         macro_table:   66, 3401.
        3013    bits_move                macro_table:  997, 1715.
        4446    bits_move_ck             macro_table: 1267, 2906.
        3013    bits_move_vt             macro_table: 1045, 1714.
          40    blank                    macro_table:  153, 1711, 1990, 2046, 2608, 2903.
         440    blanks_                  macro_table:   49, 2016.
        4151    blank_chars              macro_table: 1099, 2607.
        3333    blank_q                  macro_table:  425, 2015.
        3574    bnd_ck_fx1               macro_table: 2276, 2278.
        3604    bnd_ck_fx2               macro_table: 2277, 2287.
        4143    bool_mac_1               macro_table: 1095, 2599.
        4146    bool_mac_2               macro_table: 1097, 2603.
        3563    bound_ck_mac             macro_table:  647, 2268.
          20    bp                       macro_table:   86,   89,  334,  336,  338,  340,  342,  364,  366,  384,  396,  398,
                                                       418,  420,  422,  448,  450,  452,  466,  468,  502,  504,  506,  556,
                                                       558,  572,  580,  582,  584,  586,  588,  590,  808,  810,  882, 1062,
                                                      1078, 1218, 1224, 1250, 1252, 1324, 1360, 1362, 1364, 1366, 1370, 1372,
                                                      1374, 1376, 1378, 1380, 1382, 1384, 1440, 1556, 1558, 1560, 1562, 1566,
                                                      1570, 1604, 1640.
        4307    bp_to_aq                 macro_table:  975, 2743.
        3211    btd_1                    macro_table:  603, 1890.
        3214    btd_2                    macro_table:  605, 1894.
        3266    c2b_mac                  macro_table:  375, 1955.
        3267    c2w_mac                  macro_table:  379, 1957.
        3440    call_ent_var             macro_table:  615, 2126.
        3437    call_ent_var_d           macro_table:  617, 2124.
        3442    call_ext_in              macro_table:  619, 2130.
        3441    call_ext_in_d            macro_table:  621, 2128.
        3444    call_ext_out             macro_table:  623, 2134.
        3443    call_ext_out_d           macro_table:  625, 2132.
        3450    call_int_other           macro_table:  631, 2142.
        3447    call_int_other_d         macro_table:  633, 2140.
        3446    call_int_this            macro_table:  627, 2138.
        3445    call_int_this_d          macro_table:  629, 2136.
        3436    call_prologue            macro_table:  563, 2122.
      400000    cat                      macro_table:  101,  592,  594, 1108, 1118.
        3013    cat_move_bits            macro_table:  593, 1718.
        3010    cat_move_chars           macro_table:  591, 1710.
        3007    cat_realloc_bit          macro_table:  557, 1705.
        3006    cat_realloc_char         macro_table:  555, 1703.
        3243    ceil_dec                 macro_table: 1237, 1925.
        4425    ceil_fl                  macro_table: 1203, 2875.
        4423    ceil_fx1                 macro_table: 1199, 2871.
        4424    ceil_fx2                 macro_table: 1201, 2873.
       20000    char                     macro_table:  141, 1712, 1713, 1724, 1725, 1732, 1733, 1741, 1875, 1876, 1885, 1889,
                                                      1892, 1896, 1910, 1991, 1992, 2047, 2048, 2555, 2556, 2564, 2565, 2573,
                                                      2574, 2582, 2583, 2610, 2615, 2619, 2904, 2905, 3034, 3035, 3086, 3087,
                                                      3094, 3095, 3103, 3114, 3327, 3328, 3337, 3338, 3345, 3346, 3383, 3384.
       40000    char4                    macro_table:  143, 1914, 3379.
        5133    charno_mac               macro_table: 1537, 3397.
        3010    chars_move               macro_table:  995, 1708.
        4443    chars_move_ck            macro_table: 1265, 2902.
        3010    chars_move_vt            macro_table: 1043, 1707.
        2774    clear_aq                 macro_table:  271, 1684.
        2775    clear_q                  macro_table:  273, 1686.
        5111    clock_mac                macro_table: 1601, 3361.
        4402    close_mac                macro_table: 1143, 2844.
        4467    cmp_suffix_1             macro_table:  595, 2931.
      100000    compare                  macro_table:  103,  348,  470,  472,  528,  530,  554,  570,  608,  678,  680,  690,
                                                       712,  818,  832,  844, 1076, 1080, 1082, 1084, 1220, 1564, 1568, 1572,
                                                      1574, 1580, 1582.
        3170    compare_decimal          macro_table: 1219, 1868.
        4407    compare_files            macro_table:  715, 2851.
        4403    compare_labels           macro_table:  805, 2846.
        4241    complex_mac              macro_table:  953, 2695.
        3257    comp_bits                macro_table:  451, 1943.
        4250    conjg_mac                macro_table:  955, 2703.
        3013    copy_bits                macro_table: 1107, 1716.
        4602    copy_mac                 macro_table:  669, 3032.
        4715    cosd_mac                 macro_table:  827, 3131.
        4714    cos_mac                  macro_table:  813, 3129.
        3344    cpbs1_even               macro_table:  457, 2030.
        3341    cpbs1_odd                macro_table:  455, 2026.
        3346    cpbs2                    macro_table:  459, 2033.
        3334    cpbs2_odd                macro_table:  461, 2018.
        3353    cpbs3                    macro_table:  607, 2041.
        3351    cpbs_ext1                macro_table:  465, 2037.
        3352    cpbs_ext2                macro_table:  467, 2039.
        3334    cpcs1_odd                macro_table:  437,  443, 2017.
        3337    cpcs_ext1                macro_table:  447, 2022.
        3340    cpcs_ext2                macro_table:  449, 2024.
        3361    cp_bits                  macro_table:  529, 2049.
        3356    cp_chars                 macro_table:  527, 2045.
       40000    cr                       macro_table:   76,   90,  364,  366,  502, 1372, 1374, 1376, 1378, 1380, 1382.
      777616    csl_vector               macro_table:   65, 2600, 2604.
        4744    dacosd_mac               macro_table: 1017, 3177.
        4743    dacos_mac                macro_table: 1013, 3175.
        4742    dasind_mac               macro_table: 1009, 3173.
        4741    dasin_mac                macro_table: 1005, 3171.
        4756    datan2d_mac              macro_table: 1271, 3197.
        4755    datan2_mac               macro_table: 1165, 3195.
        4746    datand_mac               macro_table: 1025, 3181.
        4745    datan_mac                macro_table: 1021, 3179.
        4762    dbl_p_dbl                macro_table: 1279, 3205.
        4763    dbl_p_int                macro_table: 1283, 3207.
        4761    dbl_p_real               macro_table: 1277, 3203.
        4736    dcosd_mac                macro_table:  829, 3165.
        4735    dcos_mac                 macro_table:  815, 3163.
       10000    dec                      macro_table:  140, 1793, 1794, 1797, 1798, 1801, 1802, 1803, 1806, 1807, 1808, 1811,
                                                      1812, 1815, 1816, 1819, 1820, 1821, 1824, 1825, 1826, 1829, 1830, 1833,
                                                      1834, 1837, 1838, 1839, 1842, 1843, 1844, 1847, 1848, 1851, 1852, 1860,
                                                      1861, 1862, 1866, 1867, 1870, 1871, 1874, 1879, 1880, 1884, 1888, 1893,
                                                      1897, 1917, 1918, 1922, 1923.
        4752    dexp_mac                 macro_table: 1157, 3189.
        3271    digit_to_bit             macro_table: 1631, 1960.
        3721    divide_fx1               macro_table: 1225, 2389.
        3723    divide_fx2               macro_table: 1227, 2392.
        3725    divide_fx3               macro_table: 1229, 2395.
        3727    divide_fx4               macro_table: 1231, 2398.
        3161    div_decimal              macro_table: 1067, 1857.
        3165    div_decimal_2            macro_table: 1071, 1863.
        3165    div_decimal_2_rd         macro_table: 1073, 1864.
        3161    div_decimal_rd           macro_table: 1069, 1858.
        4751    dlog10_mac               macro_table: 1149, 3187.
        4747    dlog2_mac                macro_table: 1111, 3183.
        4750    dlog_mac                 macro_table: 1121, 3185.
       20000    dr                       macro_table:   77,   90,  712, 1032, 1034, 1036, 1038, 1040, 1042, 1048, 1050, 1052,
                                                      1054, 1056, 1058, 1064, 1066, 1068, 1070, 1072, 1074, 1102, 1104, 1106,
                                                      1220, 1630, 1634.
        4734    dsind_mac                macro_table:  687, 3161.
        4733    dsin_mac                 macro_table:  611, 3159.
        4732    dsqrt_mac                macro_table:  345, 3157.
        4740    dtand_mac                macro_table: 1001, 3169.
        4737    dtan_mac                 macro_table:  841, 3167.
        3203    dtb_1                    macro_table:  599, 1882.
        3206    dtb_2                    macro_table:  601, 1886.
        3221    dvcdec                   macro_table: 1087, 1901.
        3223    dvrcdec                  macro_table: 1089, 1904.
           0    eax_array                macro_table:   40,  106.
        4320    edit_pic                 macro_table:  989, 2759.
        5047    empty_area_mac           macro_table: 1549, 3309.
        4767    enable_file              macro_table: 1367, 3216.
        4773    enable_file_2            macro_table: 1341, 3222.
        3771    enable_mac               macro_table:  737, 2451.
        4050    end_ev_label             macro_table:  799, 2516.
        4033    end_ev_proc              macro_table:  793, 2498.
        3424    enter_begin_block        macro_table:  549, 2106.
        3433    enter_prologue           macro_table:  559, 2117.
        3430    entry_macro              macro_table:  547, 2113.
        2770    era_erq                  macro_table:  261, 1678.
        2772    ersa_ersq                macro_table:  267,  269, 1681.
        4731    exp_mac                  macro_table: 1155, 3155.
        3317    ext_and_1                macro_table:  395, 1994.
        3320    ext_and_2                macro_table:  397, 1996.
        4605    ext_entry                macro_table: 1343, 3036.
        4610    ext_entry_desc           macro_table: 1345, 3040.
        4334    fetch_bits               macro_table:  757, 2778.
        4334    fetch_bits_eis           macro_table: 1333, 2779.
        4333    fetch_chars              macro_table:  755, 2776.
        4335    fetch_chars_eis          macro_table: 1331, 2781.
        4412    fetch_pp                 macro_table: 1187, 2855.
        3323    fl2_to_fx1               macro_table:  403, 2002.
        3326    fl2_to_fx2               macro_table:  405, 2007.
        4420    fl2_to_fxscaled          macro_table: 1193, 2864.
        3245    floor_dec                macro_table: 1239, 1928.
        4430    floor_fl                 macro_table: 1209, 2881.
        4426    floor_fx1                macro_table: 1205, 2877.
        4427    floor_fx2                macro_table: 1207, 2879.
        2752    fneg                     macro_table:  233, 1655.
        4221    fort_mod_fl1             macro_table:  931, 2669.
        4217    fort_mod_fx1             macro_table:  929, 2666.
        5046    free_based_mac           macro_table: 1547, 3307.
        5005    free_block               macro_table: 1373, 3238.
        4355    ftn_array_xmit           macro_table:  539, 2812.
        4352    ftn_manip                macro_table:  535, 2807.
        4350    ftn_read                 macro_table:  531, 2803.
        4353    ftn_scalar_xmit          macro_table:  537, 2809.
        4357    ftn_term                 macro_table:  541, 2815.
        4351    ftn_write                macro_table:  533, 2805.
        4002    fx1_to_bs                macro_table:  741, 2462.
        3321    fx1_to_fl2               macro_table:  399, 1998.
         465    fx1_to_fl2_              macro_table:   47, 1999.
        2776    fx1_to_fx2               macro_table:  331, 1688.
        4006    fx2_to_bs                macro_table:  743, 2467.
        3324    fx2_to_fl2               macro_table:  401, 2004.
         466    fx2_to_fl2_              macro_table:   48.
        4416    fxscaled_to_fl2          macro_table: 1191, 2861.
        3775    get_area_mod_8           macro_table:  739, 2456.
        3745    get_desc_size            macro_table:  723, 2419.
        4342    get_edit                 macro_table: 1153, 2791.
        4341    get_list                 macro_table: 1145, 2789.
        3416    get_ops_mac              macro_table:  545, 2098.
        4336    get_term_mac             macro_table:  781, 2783.
        4303    h2w_mac                  macro_table:  963, 2736.
        4270    imag_mac                 macro_table:  959, 2721.
       17740    indices                  macro_table:   88,   90.
        4041    init_ps_mac              macro_table:  833, 2506.
        4044    init_sslp                macro_table:  835, 2510.
        4660    inline_search            macro_table:  553, 3092.
        3313    inline_translate         macro_table:  377, 1989.
        4651    inline_verify            macro_table:  569, 3084.
        4613    int_entry                macro_table: 1347, 3044.
        4616    int_entry_desc           macro_table: 1349, 3048.
        4760    int_p_dbl                macro_table: 1275, 3201.
        4766    int_p_int                macro_table: 1339, 3213.
        4757    int_p_real               macro_table: 1273, 3199.
        4046    io_signal_mac            macro_table:  797, 2513.
        3756    is_label_const           macro_table:  785, 2433.
        5054    ix_after_bits            macro_table: 1561, 3321.
        5065    ix_after_bits_1          macro_table: 1569, 3333.
        5053    ix_after_chars           macro_table: 1559, 3319.
        5056    ix_after_chars_1         macro_table: 1567, 3325.
        5075    ix_after_chars_2         macro_table: 1573, 3343.
        5052    ix_before_bits           macro_table: 1557, 3317.
        5055    ix_before_bits_1         macro_table: 1565, 3323.
        5051    ix_before_chars          macro_table: 1555, 3315.
        4074    ix_before_chars_1        macro_table: 1563, 2552.
        5066    ix_before_chars_2        macro_table: 1571, 3335.
        4022    ix_bits                  macro_table: 1061, 2486.
        4134    ix_bits_1                macro_table: 1077, 2589.
        4016    ix_chars                 macro_table: 1059, 2478.
        4074    ix_chars_1               macro_table: 1075, 2553.
        4104    ix_chars_2               macro_table: 1079, 2562.
        4017    ix_rev_chars             macro_table:  667, 2480.
        4114    ix_rev_chars_1           macro_table: 1081, 2571.
        4124    ix_rev_chars_2           macro_table: 1083, 2580.
        3411    j_g_s                    macro_table:  513, 2090.
        3413    j_le_s                   macro_table:  521, 2093.
        3565    L1                       macro_table: 2269, 2271.
        3567    L2                       macro_table: 2271, 2273.
        3655    L3                       macro_table: 2341, 2343.
        3657    L4                       macro_table: 2343, 2345.
        4254    L5                       macro_table: 2706, 2708.
        4266    L6                       macro_table: 2717, 2719.
        4272    L7                       macro_table: 2722, 2724.
        5025    lb_to_aq                 macro_table: 1411, 3270.
        2751    lcfl1                    macro_table:  181, 1653.
        2753    lcfl2                    macro_table:  183, 1657.
        2745    lda_ldq                  macro_table:  159, 1647.
        3426    leave_begin_block        macro_table:  349, 2109.
        3434    leave_prologue           macro_table:  561, 2119.
          62    lg1                      macro_table:   62.
        3760    load_display_ptr         macro_table:  727, 2436.
        3753    load_link_pt             macro_table:  721, 2428.
        4205    load_logical             macro_table:  915, 2650.
        3536    load_offsets             macro_table:  565, 2236.
        3400    load_pt_reg              macro_table:  499, 2077.
        4730    log10_mac                macro_table: 1147, 3153.
        4726    log2_mac                 macro_table: 1109, 3149.
        4727    log_mac                  macro_table: 1119, 3151.
        3277    longbs_to_bs18           macro_table:  417, 1969.
        3330    longbs_to_fl2            macro_table:  421, 2011.
        3327    longbs_to_fx2            macro_table:  419, 2009.
        5050    long_profile_mac         macro_table: 1553, 3312.
        4232    loop_end_var             macro_table:  949, 2686.
          10    lp                       macro_table:   87,   89, 1370, 1372, 1374, 1376, 1378, 1380, 1382, 1602, 1604, 2283,
                                                      2291, 2355, 2363.
        4311    lp_to_aq                 macro_table:  977, 2746.
      200000    l_in_q                   macro_table:  102,  670, 1044, 1046, 1114.
        2744    macro_count              macro_table:   39, 1642.
          30    macro_table              macro_table:   38,  156, 1643.
        3741    make_desc_mac            macro_table:  705, 2413.
        3402    make_lv                  macro_table:  501, 2080.
        4206    mask_logical             macro_table:  921, 2652.
        3237    max_dec                  macro_table: 1105, 1920.
        3637    max_fl1                  macro_table:  661, 2323.
        3642    max_fl2                  macro_table:  663, 2327.
        3631    max_fx1                  macro_table:  657, 2315.
        3634    max_fx2                  macro_table:  659, 2319.
        3705    mdfl1                    macro_table:  693, 2371.
        3707    mdfl2                    macro_table:  695, 2374.
        3711    mdfx1                    macro_table:  697, 2377.
        3713    mdfx2                    macro_table:  699, 2380.
        3715    mdfx3                    macro_table:  701, 2383.
        3717    mdfx4                    macro_table:  703, 2386.
        3233    min_dec                  macro_table: 1103, 1915.
        3623    min_fl1                  macro_table:  653, 2307.
        3626    min_fl2                  macro_table:  655, 2311.
        3615    min_fx1                  macro_table:  649, 2299.
        3620    min_fx2                  macro_table:  651, 2303.
        3307    mod16_mac                macro_table:  393, 1982.
        3301    mod2_mac                 macro_table:  387, 1973.
         543    mod2_tab                 macro_table:   43.
        3303    mod4_mac                 macro_table:  389, 1976.
         545    mod4_tab                 macro_table:   44.
        3305    mod8_mac                 macro_table:  391, 1979.
        3300    mod_bit_mac              macro_table:  385, 1971.
        3547    mod_byte_mac             macro_table:  759, 2251.
        3552    mod_byte_mac_exp         macro_table:  761, 2255.
        3255    mod_dec                  macro_table: 1247, 1940.
        3555    mod_half_mac             macro_table:  787, 2259.
        3560    mod_half_mac_exp         macro_table:  789, 2263.
           3    move                     macro_table:  147, 1719, 1727, 1735, 1763, 2592, 2596, 2907.
        4477    move_3                   macro_table: 1291, 2942.
        3040    move_and                 macro_table:  683, 1746.
        3046    move_andnot_0            macro_table:  937, 1754.
        3051    move_andnot_1            macro_table:  939, 1758.
        3013    move_bits                macro_table:  353, 1717.
        3021    move_bs_load_1           macro_table:  357, 1726.
        3027    move_bs_load_2           macro_table:  361, 1734.
        3010    move_chars               macro_table:  351, 1709.
        3016    move_cs_load_1           macro_table:  355, 1722.
        3024    move_cs_load_2           macro_table:  359, 1730.
        3101    move_decimal             macro_table: 1031, 1790.
        3104    move_decimal_rd          macro_table: 1033, 1795.
        4547    move_even                macro_table: 1317, 2991.
        4547    move_even_even_3         macro_table: 1307, 2992.
        4553    move_even_even_4         macro_table: 1309, 2997.
        4561    move_even_even_5         macro_table: 1311, 3005.
        4553    move_even_even_6         macro_table: 1313, 2998.
        4534    move_even_odd_3          macro_table: 1303, 2978.
        4541    move_even_odd_4          macro_table: 1305, 2984.
        3035    move_not                 macro_table:  825, 1742.
        3101    move_numeric             macro_table: 1791.
        3173    move_numeric_edit        macro_table:  597, 1872.
        4477    move_odd                 macro_table: 1315, 2943.
        4521    move_odd_even_3          macro_table: 1299, 2965.
        4526    move_odd_even_4          macro_table: 1301, 2971.
        4505    move_odd_odd_3           macro_table: 1293, 2950.
        4513    move_odd_odd_4           macro_table: 1295, 2958.
        4505    move_odd_odd_5           macro_table: 1297, 2951.
        3043    move_or                  macro_table:  763, 1750.
        4602    move_words               macro_table: 1117, 3031.
        4023    move_xor                 macro_table:  837, 2488.
        3217    mpcdec                   macro_table: 1085, 1898.
        3647    mpfx2                    macro_table:  671, 2334.
        3651    mpfx3                    macro_table:  673, 2337.
        3143    mult_decimal             macro_table: 1055, 1835.
        3153    mult_decimal_2           macro_table: 1063, 1845.
        3156    mult_decimal_2_rd        macro_table: 1065, 1849.
        3147    mult_decimal_rd          macro_table: 1057, 1840.
        2757    neg                      macro_table:  229, 1664.
        2756    negl                     macro_table:  231, 1662.
        3645    neg_q                    macro_table:  665, 2331.
        4431    nop_mac                  macro_table: 1211, 2883.
          14    not                      macro_table:  151, 1743, 1767.
        4212    not_logical              macro_table:  919, 2658.
           4    no_al                    macro_table:   95,  160,  822.
           2    no_ql                    macro_table:   96.
        4162    off_mac_easy             macro_table:  639, 2620.
        4164    off_mac_easy_pk          macro_table:  641, 2623.
        4166    off_mac_hard             macro_table: 1355, 2626.
        4170    off_mac_hard_pk          macro_table: 1357, 2629.
         110    ones                     macro_table:   61, 2227, 2332.
        4140    one_bits                 macro_table: 1093, 2595.
        4157    one_chars                macro_table: 1123, 2616.
        4401    open_mac                 macro_table: 1141, 2842.
          34    ops_ptr                  macro_table:   64, 2494, 3038, 3042, 3046, 3050, 3054, 3058, 3062, 3066, 3070, 3074,
                                                      3078, 3082.
         551    op_vec                   macro_table:   42, 1692, 1694, 1696, 1698, 1700, 1702, 1704, 1706, 1900, 1903, 1906,
                                                      1927, 1930, 1933, 1936, 1939, 1942, 1944, 1946, 1967, 1970, 1986, 1988,
                                                      1995, 1997, 2001, 2003, 2008, 2010, 2012, 2023, 2025, 2038, 2040, 2074,
                                                      2076, 2083, 2086, 2097, 2105, 2108, 2110, 2112, 2125, 2127, 2129, 2131,
                                                      2133, 2135, 2137, 2139, 2141, 2143, 2222, 2224, 2243, 2245, 2282, 2290,
                                                      2336, 2339, 2354, 2362, 2373, 2376, 2379, 2382, 2385, 2388, 2391, 2394,
                                                      2397, 2400, 2403, 2406, 2409, 2412, 2425, 2427, 2442, 2445, 2450, 2453,
                                                      2479, 2481, 2483, 2485, 2487, 2495, 2500, 2515, 2518, 2519, 2590, 2622,
                                                      2625, 2628, 2631, 2662, 2665, 2671, 2683, 2685, 2740, 2742, 2750, 2752,
                                                      2754, 2756, 2758, 2760, 2771, 2773, 2775, 2777, 2780, 2782, 2784, 2786,
                                                      2788, 2790, 2792, 2794, 2796, 2798, 2800, 2802, 2804, 2806, 2808, 2811,
                                                      2814, 2816, 2820, 2823, 2843, 2845, 2865, 2868, 2870, 2872, 2874, 2876,
                                                      2878, 2880, 2882, 2886, 2888, 2890, 2893, 2895, 2897, 2899, 2901, 2911,
                                                      2913, 2915, 2917, 2919, 2923, 2928, 2937, 2941, 3013, 3015, 3017, 3019,
                                                      3039, 3043, 3047, 3051, 3055, 3059, 3063, 3067, 3071, 3075, 3079, 3083,
                                                      3124, 3126, 3128, 3130, 3132, 3134, 3136, 3138, 3140, 3142, 3144, 3146,
                                                      3148, 3150, 3152, 3154, 3156, 3158, 3160, 3162, 3164, 3166, 3168, 3170,
                                                      3172, 3174, 3176, 3178, 3180, 3182, 3184, 3186, 3188, 3190, 3192, 3194,
                                                      3196, 3198, 3200, 3202, 3204, 3206, 3208, 3210, 3212, 3214, 3219, 3226,
                                                      3232, 3236, 3240, 3244, 3248, 3252, 3256, 3260, 3302, 3305, 3308, 3310,
                                                      3313, 3316, 3318, 3320, 3322, 3324, 3334, 3353, 3355, 3359, 3362, 3365,
                                                      3368, 3371, 3374.
           7    or                       macro_table:  149, 1751, 1775.
        2764    ora_orq                  macro_table:  249, 1672.
        2766    orsa_orsq                macro_table:  255,  257, 1675.
        4601    packed_bit_offset        macro_table: 1325, 3029.
        4577    packed_to_bp             macro_table: 1323, 3026.
        4377    pack_cfl1                macro_table: 1137, 2839.
        4373    pack_fl1                 macro_table: 1133, 2833.
        4375    pack_fl2                 macro_table: 1135, 2836.
        3752    pad_bits                 macro_table:  719, 2426.
        3751    pad_chars                macro_table:  717, 2424.
           1    perm                     macro_table:   97,  672,  674,  694,  696,  698,  700,  702,  704,  926,  928,  932,
                                                      1226, 1228, 1230, 1232, 1254, 1256, 1258, 1260.
        3273    pf_mac                   macro_table:  381, 1963.
        3177    pic_test                 macro_table:  711, 1877.
        4306    pk_to_unpk               macro_table:  971, 2741.
        4571    pl1_ptr_easy             macro_table: 1359, 3016.
        4572    pl1_ptr_easy_pk          macro_table: 1361, 3018.
        4567    pl1_ptr_hard             macro_table: 1363, 3012.
        4570    pl1_ptr_hard_pk          macro_table: 1365, 3014.
          53    plus                     macro_table:  154, 1908, 1912.
        3455    pointer_mac_bs           macro_table:  579, 2151.
        3465    pointer_mac_bs_ab        macro_table: 1475, 2165.
        3467    pointer_mac_bs_bb        macro_table: 1479, 2169.
        3471    pointer_mac_bs_lb        macro_table: 1483, 2173.
        3473    pointer_mac_bs_sb        macro_table: 1487, 2177.
        4053    pointer_mac_const        macro_table:  807, 2520.
        4055    pointer_mac_c_ab         macro_table: 1459, 2524.
        4056    pointer_mac_c_bb         macro_table: 1461, 2526.
        4057    pointer_mac_c_lb         macro_table: 1463, 2528.
        4060    pointer_mac_c_sb         macro_table: 1465, 2530.
        3456    pointer_mac_fx           macro_table:  581, 2153.
        3466    pointer_mac_fx_ab        macro_table: 1477, 2167.
        3470    pointer_mac_fx_bb        macro_table: 1481, 2171.
        3472    pointer_mac_fx_lb        macro_table: 1485, 2175.
        3474    pointer_mac_fx_sb        macro_table: 1489, 2179.
        5013    pop_ctl_data             macro_table: 1379, 3250.
        5015    pop_ctl_desc             macro_table: 1381, 3254.
        3451    prepare_call             macro_table:  879, 2144.
        5124    prepare_call_long        macro_table: 1637, 3386.
        4200    prepare_quick_call       macro_table:  881, 2643.
        5127    prepare_quick_call_long  macro_table: 1639, 3391.
          52    ps_ptr                   macro_table:   68, 2509.
         460    ptr_mask_                macro_table:   46, 2849, 2854.
        5007    push_ctl_data            macro_table: 1375, 3242.
        5011    push_ctl_desc            macro_table: 1377, 3246.
        4347    put_control              macro_table: 1329, 2801.
        4340    put_data                 macro_table:  811, 2787.
        4344    put_edit                 macro_table: 1169, 2795.
        4345    put_field                macro_table: 1151, 2797.
        4346    put_field_chk            macro_table: 1167, 2799.
        4343    put_list                 macro_table: 1161, 2793.
        4337    put_term_mac             macro_table:  783, 2785.
      200000    q                        macro_table:   73,   74,  170,  178,  194,  200,  274,  280,  282,  388,  390,  392,
                                                       394,  408,  470,  472,  554,  566,  568,  570,  636,  644,  650,  658,
                                                       666,  706,  710,  714,  724,  740,  898,  914,  992, 1076, 1080, 1082,
                                                      1084, 1182, 1184, 1186, 1196, 1200, 1206, 1214, 1234, 1236, 1242, 1288,
                                                      1290, 1322, 1326, 1532, 1534, 1564, 1568, 1572, 1574, 1576, 1578, 1580,
                                                      1582, 1626, 2283, 2291, 2355, 2363.
        3453    qls_9                    macro_table:  575, 2147.
        4177    quick_call               macro_table:  889, 2641.
        3743    quick_desc_size          macro_table:  713, 2416.
        4173    quick_entry              macro_table:  883, 2634.
        4173    quick_entry_args         macro_table:  885, 2635.
        4173    quick_entry_desc         macro_table:  887, 2636.
        4172    quick_return             macro_table:  753, 2632.
        3664    range_ck_fx1             macro_table: 2348, 2350.
        3674    range_ck_fx2             macro_table: 2349, 2359.
        5121    rank_eis_mac             macro_table: 1635, 3381.
        3004    realloc_bit_temp         macro_table:  341, 1699.
        3003    realloc_char_temp        macro_table:  339, 1697.
        4264    real_mac                 macro_table:  957, 2716.
        4765    real_p_int               macro_table: 1337, 3211.
        4764    real_p_real              macro_table: 1285, 3209.
        4313    real_to_real_rd          macro_table:  981, 2749.
        4314    real_to_real_tr          macro_table:  979, 2751.
        4363    recio_mac                macro_table: 1125, 2821.
        4436    repeat                   macro_table: 1223, 2892.
        3415    reset_stack              macro_table:  543, 2096.
        4331    return_bits              macro_table: 1335, 2772.
        4332    return_chars             macro_table: 1327, 2774.
        3427    return_mac               macro_table:  551, 2111.
        5114    return_main_mac          macro_table: 1609, 3370.
        4327    return_words             macro_table: 1115, 2769.
        4442    reverse_bs               macro_table: 1251, 2900.
        4441    reverse_cs               macro_table: 1249, 2898.
        5000    revert_file              macro_table: 1369, 3229.
        3766    revert_mac               macro_table:  735, 2446.
        4230    rfb1_to_cflb1            macro_table:  945, 2682.
        4231    rfb2_to_cflb1            macro_table:  951, 2684.
        4223    rflb1_to_cflb1           macro_table:  935, 2675.
        4434    round_fl                 macro_table: 1217, 2889.
        4432    round_fx1                macro_table: 1213, 2885.
        4433    round_fx2                macro_table: 1215, 2887.
        3370    r_e_as                   macro_table:  481, 2061.
         512    r_e_as_                  macro_table:   54, 2062.
        3374    r_ge_a                   macro_table:  489, 2069.
         527    r_ge_a_                  macro_table:   58, 2070.
        3375    r_ge_s                   macro_table:  491, 2071.
         524    r_ge_s_                  macro_table:   57, 2072.
        3366    r_g_a                    macro_table:  477, 2057.
         503    r_g_a_                   macro_table:   52, 2058.
        3367    r_g_s                    macro_table:  479, 2059.
         477    r_g_s_                   macro_table:   51, 2060.
        3372    r_le_a                   macro_table:  485, 2065.
         520    r_le_a_                  macro_table:   56, 2066.
        3373    r_le_s                   macro_table:  487, 2067.
         532    r_le_s_                  macro_table:   59, 2068.
        3364    r_l_a                    macro_table:  473, 2053.
         474    r_l_a_                   macro_table:   50, 2054.
        3365    r_l_s                    macro_table:  475, 2055.
         507    r_l_s_                   macro_table:   53, 2056.
        3371    r_ne_as                  macro_table:  483, 2063.
         515    r_ne_as_                 macro_table:   55, 2064.
        3032    save_string_aq           macro_table:  613, 1738.
        2755    sbfx3                    macro_table:  203, 1660.
        5027    sb_to_aq                 macro_table: 1413, 3274.
        3731    scaled_mdfx1             macro_table: 1253, 2401.
        3733    scaled_mdfx2             macro_table: 1255, 2404.
        3735    scaled_mdfx3             macro_table: 1257, 2407.
        3737    scaled_mdfx4             macro_table: 1259, 2410.
        4440    search                   macro_table: 1235, 2896.
        4021    search_rev_chars         macro_table:  893, 2484.
        3545    segno_mac                macro_table:  635, 2248.
        3526    set_bits                 macro_table: 1029, 2223.
        3454    set_bit_addr             macro_table:  577, 2149.
        3525    set_chars                macro_table: 1027, 2221.
        5115    set_main_mac             macro_table: 1611, 3373.
        3703    set_ptr_to               macro_table:  691, 2368.
        3407    set_stack                macro_table:  505, 2087.
         540    set_stack_               macro_table:   60, 2089.
        4321    shift_and_mask_1         macro_table:  367, 2761.
        4324    shift_and_mask_2         macro_table:  369, 2765.
        3767    signal_mac               macro_table:  733, 2448.
        4451    signal_stringsize        macro_table: 1281, 2910.
        3247    sign_dec                 macro_table: 1241, 1931.
        3543    sign_mac                 macro_table:  573, 2244.
        4713    sind_mac                 macro_table:  685, 3127.
        4712    sin_mac                  macro_table:  609, 3125.
        4452    size_check_fx1           macro_table: 1261, 2912.
        4453    size_check_fx2           macro_table: 1263, 2914.
        4454    size_check_uns_fx1       macro_table: 1617, 2916.
        4455    size_check_uns_fx2       macro_table: 1619, 2918.
        4475    size_ck_decimal          macro_table: 1319, 2939.
        4462    size_ck_suffix           macro_table: 1289, 2925.
        4471    size_ck_suffix_1         macro_table: 1551, 2934.
        4456    size_ck_varying          macro_table: 1287, 2920.
        3275    so_mac                   macro_table:  383, 1966.
        4711    sqrt_mac                 macro_table:  343, 3123.
        4277    square_fl1               macro_table:  965, 2730.
        4301    square_fl2               macro_table:  967, 2733.
        4275    square_fx1               macro_table:  961, 2727.
      100000    sr                       macro_table:   75,   90,  334,  336,  340,  342,  364,  366,  668,  694,  696,  698,
                                                       700,  702,  704,  892,  894,  980,  982,  984,  986, 1028, 1030, 1060,
                                                      1062, 1078, 1218, 1224, 1226, 1228, 1230, 1232, 1234, 1236, 1250, 1252,
                                                      1254, 1256, 1258, 1260, 1556, 1558, 1560, 1562, 1566, 1570, 1576, 1578.
        3422    ss_enter_begin_block     macro_table: 1179, 2103.
        4627    ss_ext_entry             macro_table: 1447, 3060.
        4632    ss_ext_entry_desc        macro_table: 1449, 3064.
        4635    ss_int_entry             macro_table: 1451, 3068.
        4640    ss_int_entry_desc        macro_table: 1453, 3072.
        4643    ss_val_entry             macro_table: 1455, 3076.
        4646    ss_val_entry_desc        macro_table: 1457, 3080.
        5107    stacq_mac                macro_table: 1599, 3357.
        3542    stac_mac                 macro_table:  571, 2242.
        2747    sta_stq                  macro_table:  165, 1650.
        5113    stop_mac                 macro_table: 1607, 3367.
        4236    store_bp_hard            macro_table:  941, 2691.
        4207    store_logical            macro_table:  917, 2654.
        3405    store_lv                 macro_table:  503, 2084.
        3540    store_offsets            macro_table:  567, 2239.
        4414    store_pp                 macro_table: 1189, 2858.
        3005    store_string             macro_table: 1701.
        4360    stream_prep_mac          macro_table:  947, 2817.
        3653    substr_ck_mac            macro_table:  681, 2340.
        3125    sub_decimal              macro_table: 1047, 1817.
        3135    sub_decimal_2            macro_table: 1051, 1827.
        3140    sub_decimal_2_rd         macro_table: 1053, 1831.
        3131    sub_decimal_rd           macro_table: 1049, 1822.
        3260    support_mac              macro_table:  765, 1945.
        4035    symtab_mac               macro_table:  795, 2501.
        4717    tand_mac                 macro_table:  999, 3135.
        4716    tan_mac                  macro_table:  839, 3133.
         242    tct_mask_                macro_table:   45, 3107, 3118.
        4072    testfl1                  macro_table: 1175, 2548.
        4073    testfl2                  macro_table: 1177, 2550.
        4070    testfx1                  macro_table: 1171, 2544.
        4071    testfx2                  macro_table: 1173, 2546.
        3062    test_and                 macro_table:  689, 1770.
        3073    test_andnot_0            macro_table:  677, 1782.
        3076    test_andnot_1            macro_table:  679, 1786.
        3054    test_bits                macro_table:  347, 1762.
        4065    test_lda_ldq             macro_table:  821, 2540.
        3057    test_not                 macro_table:  831, 1766.
        3065    test_or                  macro_table:  817, 1774.
        4667    test_translate           macro_table:  469, 3101.
        4700    test_trans_rev           macro_table:  471, 3112.
        3070    test_xor                 macro_table:  843, 1778.
        3311    translate_2              macro_table:  363, 1985.
        3312    translate_3              macro_table:  365, 1987.
        4215    tran_sign_fl             macro_table:  927, 2663.
        4213    tran_sign_fx1            macro_table:  925, 2660.
        3376    tra_ext_1                macro_table:  495, 2073.
        3377    tra_ext_2                macro_table:  497, 2075.
        3253    trunc_dec                macro_table: 1245, 1937.
        3322    trunc_fl                 macro_table:  923, 2000.
        4421    trunc_fx1                macro_table: 1195, 2867.
        4422    trunc_fx2                macro_table: 1197, 2869.
        4371    unpack_cfl1              macro_table: 1131, 2830.
        4365    unpack_fl1               macro_table: 1127, 2824.
        4367    unpack_fl2               macro_table: 1129, 2827.
        4317    unpack_pic               macro_table:  987, 2757.
        4305    unpk_to_pk               macro_table:  969, 2739.
        4012    uns_fx1_to_bs            macro_table: 1621, 2472.
        4014    uns_fx2_to_bs            macro_table: 1623, 2475.
        4621    val_entry                macro_table: 1351, 3052.
        4624    val_entry_desc           macro_table: 1353, 3056.
        5112    vclock_mac               macro_table: 1603, 3364.
        4437    verify                   macro_table: 1233, 2894.
        5105    verify_ltrim             macro_table: 1575, 3352.
        4667    verify_ltrim_inline      macro_table: 1579, 3100.
        4020    verify_rev_chars         macro_table:  891, 2482.
        5106    verify_rtrim             macro_table: 1577, 3354.
        4700    verify_rtrim_inline      macro_table: 1581, 3111.
        3761    walk_display_ptr         macro_table:  729, 2438.
       10000    x0                       macro_table:   78,   88,  544,  562,  768.
        4000    x1                       macro_table:   79,   88, 1086, 1088, 1090, 1238, 1240, 1244, 1246, 1248.
        2000    x2                       macro_table:   80,   88, 1086, 1088, 1090, 1238, 1240, 1244, 1246, 1248.
        1000    x3                       macro_table:   81,   88, 1086, 1088, 1090, 1244.
         400    x4                       macro_table:   82,   88, 1086, 1088, 1090, 1244.
         200    x5                       macro_table:   83,   88.
         100    x6                       macro_table:   84,   88,  538,  540,  782,  784,  812,  948, 1126, 1142, 1144, 1146,
                                                      1152, 1154, 1162, 1168, 1170, 1330.
          40    x7                       macro_table:   85,   88.
       40000    xec_eis                  macro_table:  104, 1096, 1098.
           6    xor                      macro_table:  150, 1779, 2489.
        4575    xr18_to_q                macro_table: 1625, 3023.
        4573    xr_to_q                  macro_table: 1321, 3020.
        5116    zero_4bcs                macro_table: 1633, 3376.
        4135    zero_bits                macro_table: 1091, 2591.
        5032    zero_bo_ab               macro_table: 1523, 3280.
        5033    zero_bo_bb               macro_table: 1525, 3282.
        5031    zero_bo_bp               macro_table: 1439, 3278.
        5034    zero_bo_lb               macro_table: 1527, 3284.
        5035    zero_bo_sb               macro_table: 1529, 3286.
        4154    zero_chars               macro_table:  993, 2612.
        4154    zero_chars_q             macro_table: 1113, 2611.
        5041    zero_mac_p_1             macro_table:  769, 3298.


NO FATAL ERRORS


                                          -----------------------------------------------------------


Historical Background

This edition of the Multics software materials and documentation is provided and donated
to Massachusetts Institute of Technology by Group BULL including BULL HN Information Systems Inc.
as a contribution to computer science knowledge.
This donation is made also to give evidence of the common contributions of Massachusetts Institute of Technology,
Bell Laboratories, General Electric, Honeywell Information Systems Inc., Honeywell BULL Inc., Groupe BULL
and BULL HN Information Systems Inc. to the development of this operating system.
Multics development was initiated by Massachusetts Institute of Technology Project MAC (1963-1970),
renamed the MIT Laboratory for Computer Science and Artificial Intelligence in the mid 1970s, under the leadership
of Professor Fernando Jose Corbato. Users consider that Multics provided the best software architecture
for managing computer hardware properly and for executing programs. Many subsequent operating systems
incorporated Multics principles.
Multics was distributed in 1975 to 2000 by Group Bull in Europe , and in the U.S. by Bull HN Information Systems Inc.,
as successor in interest by change in name only to Honeywell Bull Inc. and Honeywell Information Systems Inc. .

                                          -----------------------------------------------------------

Permission to use, copy, modify, and distribute these programs and their documentation for any purpose and without
fee is hereby granted,provided that the below copyright notice and historical background appear in all copies
and that both the copyright notice and historical background and this permission notice appear in supporting
documentation, and that the names of MIT, HIS, BULL or BULL HN not be used in advertising or publicity pertaining
to distribution of the programs without specific prior written permission.
    Copyright 1972 by Massachusetts Institute of Technology and Honeywell Information Systems Inc.
    Copyright 2006 by BULL HN Information Systems Inc.
    Copyright 2006 by Bull SAS
    All Rights Reserved
