ASSEMBLY LISTING OF SEGMENT >spec>install>1059>mail_system_r2_tv_.alm
ASSEMBLED ON:	05/22/86  1017.1 mst Thu
OPTIONS USED:	-target Level68 list
ASSEMBLED BY:	ALM Version  6.6  November 1982
ASSEMBLER CREATED:	09/21/83  1227.3 mst Wed

                                     1  " ***********************************************************
                                     2  " *                                                         *
                                     3  " * Copyright, (C) Honeywell Information Systems Inc., 1983 *
                                     4  " *                                                         *
                                     5  " ***********************************************************
                                     6
                                     7  " HISTORY COMMENTS:
                                     8  "  1) change(86-01-09,Herbst), approve(86-03-25,MCR7367),
                                     9  "     audit(86-04-28,Margolin), install(86-05-22,MR12.0-1059):
                                    10  "     Added $set_message_switch.
                                    11  "                                                      END HISTORY COMMENTS
                                    12
                                    13
                                    14  " Primitive functions provided by the Multics Mail System
                                    15
                                    16  " Created:  June 1983 by G. Palter
                                    17  " Modified: March 1984 by G. Palter to rename initialize_static_data to get_users_addresses
                                    18  "    and to add set_users_full_name
                                    19
                                    20
    000000                          21  	name	mail_system_r2_tv_
                                    22
                                    23
                                    24  	macro	transfer
                              1     25  	segdef	&1
                              2     26  &1:	getlp
                              3     27  	tra	&2
                              4     28  	&end
                                    29
                                    30
                                    31  	transfer	abort_delete_operation,mlsys_mailbox_mgr_$abort_delete_operation
                        000000          	segdef	abort_delete_operation
    000000  aa  7 00046 2721 20         abort_delete_operation:	getlp
    000001  4a  4 00010 7101 20         	tra	mlsys_mailbox_mgr_$abort_delete_operation
                                    32  	transfer	acknowledge_message,mlsys_mailbox_mgr_$acknowledge_message
                        000002          	segdef	acknowledge_message
    000002  aa  7 00046 2721 20         acknowledge_message:	getlp
    000003  4a  4 00012 7101 20         	tra	mlsys_mailbox_mgr_$acknowledge_message
                                    33  	transfer	add_address,mlsys_address_list_mgr_$add_address_writeable
                        000004          	segdef	add_address
    000004  aa  7 00046 2721 20         add_address:	getlp
    000005  4a  4 00014 7101 20         	tra	mlsys_address_list_mgr_$add_address_writeable
                                    34  	transfer	add_body_section,mlsys_message_mgr_$add_body_section_new
                        000006          	segdef	add_body_section
    000006  aa  7 00046 2721 20         add_body_section:	getlp
    000007  4a  4 00016 7101 20         	tra	mlsys_message_mgr_$add_body_section_new
                                    35  	transfer	add_reply_reference,mlsys_message_mgr_$add_reply_reference_new
                        000010          	segdef	add_reply_reference
    000010  aa  7 00046 2721 20         add_reply_reference:	getlp
    000011  4a  4 00020 7101 20         	tra	mlsys_message_mgr_$add_reply_reference_new
                                    36
                                    37  	transfer	add_user_field,mlsys_message_mgr_$add_user_field_new
                        000012          	segdef	add_user_field
    000012  aa  7 00046 2721 20         add_user_field:	getlp
    000013  4a  4 00022 7101 20         	tra	mlsys_message_mgr_$add_user_field_new
                                    38  	transfer	close_mailbox,mlsys_mailbox_mgr_$close_mailbox
                        000014          	segdef	close_mailbox
    000014  aa  7 00046 2721 20         close_mailbox:	getlp
    000015  4a  4 00024 7101 20         	tra	mlsys_mailbox_mgr_$close_mailbox
                                    39  	transfer	compare_addresses,mlsys_address_mgr_$compare_addresses
                        000016          	segdef	compare_addresses
    000016  aa  7 00046 2721 20         compare_addresses:	getlp
    000017  4a  4 00026 7101 20         	tra	mlsys_address_mgr_$compare_addresses
                                    40  	transfer	copy_address_list,mlsys_address_list_mgr_$copy_address_list
                        000020          	segdef	copy_address_list
    000020  aa  7 00046 2721 20         copy_address_list:	getlp
    000021  4a  4 00030 7101 20         	tra	mlsys_address_list_mgr_$copy_address_list
                                    41  	transfer	copy_message,mlsys_transmit_$copy_message
                        000022          	segdef	copy_message
    000022  aa  7 00046 2721 20         copy_message:	getlp
    000023  4a  4 00032 7101 20         	tra	mlsys_transmit_$copy_message
                                    42
                                    43  	transfer	create_address_list,mlsys_address_list_mgr_$create_writeable_address_list
                        000024          	segdef	create_address_list
    000024  aa  7 00046 2721 20         create_address_list:	getlp
    000025  4a  4 00034 7101 20         	tra	mlsys_address_list_mgr_$create_writeable_address_list
                                    44  	transfer	create_foreign_address,mlsys_address_mgr_$create_foreign_address
                        000026          	segdef	create_foreign_address
    000026  aa  7 00046 2721 20         create_foreign_address:	getlp
    000027  4a  4 00036 7101 20         	tra	mlsys_address_mgr_$create_foreign_address
                                    45  	transfer	create_forum_address,mlsys_address_mgr_$create_forum_address
                        000030          	segdef	create_forum_address
    000030  aa  7 00046 2721 20         create_forum_address:	getlp
    000031  4a  4 00040 7101 20         	tra	mlsys_address_mgr_$create_forum_address
                                    46  	transfer	create_invalid_address,mlsys_address_mgr_$create_invalid_address
                        000032          	segdef	create_invalid_address
    000032  aa  7 00046 2721 20         create_invalid_address:	getlp
    000033  4a  4 00042 7101 20         	tra	mlsys_address_mgr_$create_invalid_address
                                    47  	transfer	create_logbox_address,mlsys_address_mgr_$create_logbox_address
                        000034          	segdef	create_logbox_address
    000034  aa  7 00046 2721 20         create_logbox_address:	getlp
    000035  4a  4 00044 7101 20         	tra	mlsys_address_mgr_$create_logbox_address
                                    48
                                    49  	transfer	create_mail_table_address,mlsys_address_mgr_$create_mail_table_address
                        000036          	segdef	create_mail_table_address
    000036  aa  7 00046 2721 20         create_mail_table_address:	getlp
    000037  4a  4 00046 7101 20         	tra	mlsys_address_mgr_$create_mail_table_address
                                    50  	transfer	create_mailbox_address,mlsys_address_mgr_$create_mailbox_address
                        000040          	segdef	create_mailbox_address
    000040  aa  7 00046 2721 20         create_mailbox_address:	getlp
    000041  4a  4 00050 7101 20         	tra	mlsys_address_mgr_$create_mailbox_address
                                    51  	transfer	create_mailing_list_address,mlsys_address_mgr_$create_mailing_list_address
                        000042          	segdef	create_mailing_list_address
    000042  aa  7 00046 2721 20         create_mailing_list_address:	getlp
    000043  4a  4 00052 7101 20         	tra	mlsys_address_mgr_$create_mailing_list_address
                                    52  	transfer	create_message,mlsys_message_mgr_$create_new_message
                        000044          	segdef	create_message
    000044  aa  7 00046 2721 20         create_message:	getlp
    000045  4a  4 00054 7101 20         	tra	mlsys_message_mgr_$create_new_message
                                    53  	transfer	create_named_group_address,mlsys_address_mgr_$create_named_group_address
                        000046          	segdef	create_named_group_address
    000046  aa  7 00046 2721 20         create_named_group_address:	getlp
    000047  4a  4 00056 7101 20         	tra	mlsys_address_mgr_$create_named_group_address
                                    54
                                    55  	transfer	create_savebox_address,mlsys_address_mgr_$create_savebox_address
                        000050          	segdef	create_savebox_address
    000050  aa  7 00046 2721 20         create_savebox_address:	getlp
    000051  4a  4 00060 7101 20         	tra	mlsys_address_mgr_$create_savebox_address
                                    56  	transfer	create_user_mailbox_address,mlsys_address_mgr_$create_user_mailbox_address
                        000052          	segdef	create_user_mailbox_address
    000052  aa  7 00046 2721 20         create_user_mailbox_address:	getlp
    000053  4a  4 00062 7101 20         	tra	mlsys_address_mgr_$create_user_mailbox_address
                                    57  	transfer	decode_message_id,mlsys_message_id_mgr_$decode_message_id
                        000054          	segdef	decode_message_id
    000054  aa  7 00046 2721 20         decode_message_id:	getlp
    000055  4a  4 00064 7101 20         	tra	mlsys_message_id_mgr_$decode_message_id
                                    58  	transfer	delete_address,mlsys_address_list_mgr_$delete_address_writeable
                        000056          	segdef	delete_address
    000056  aa  7 00046 2721 20         delete_address:	getlp
    000057  4a  4 00066 7101 20         	tra	mlsys_address_list_mgr_$delete_address_writeable
                                    59  	transfer	delete_body_section,mlsys_message_mgr_$delete_body_section_new
                        000060          	segdef	delete_body_section
    000060  aa  7 00046 2721 20         delete_body_section:	getlp
    000061  4a  4 00070 7101 20         	tra	mlsys_message_mgr_$delete_body_section_new
                                    60
                                    61  	transfer	delete_reply_reference,mlsys_message_mgr_$delete_reply_reference_new
                        000062          	segdef	delete_reply_reference
    000062  aa  7 00046 2721 20         delete_reply_reference:	getlp
    000063  4a  4 00072 7101 20         	tra	mlsys_message_mgr_$delete_reply_reference_new
                                    62  	transfer	delete_user_field,mlsys_message_mgr_$delete_user_field_new
                        000064          	segdef	delete_user_field
    000064  aa  7 00046 2721 20         delete_user_field:	getlp
    000065  4a  4 00074 7101 20         	tra	mlsys_message_mgr_$delete_user_field_new
                                    63  	transfer	deliver_message,mlsys_transmit_$deliver_message
                        000066          	segdef	deliver_message
    000066  aa  7 00046 2721 20         deliver_message:	getlp
    000067  4a  4 00076 7101 20         	tra	mlsys_transmit_$deliver_message
                                    64  	transfer	eliminate_duplicate_addresses,mlsys_transmit_$eliminate_duplicate_addrs_write
                        000070          	segdef	eliminate_duplicate_addresses
    000070  aa  7 00046 2721 20         eliminate_duplicate_addresses:	getlp
    000071  4a  4 00100 7101 20         	tra	mlsys_transmit_$eliminate_duplicate_addrs_write
                                    65  	transfer	expand_list_address,mlsys_address_mgr_$expand_list_address
                        000072          	segdef	expand_list_address
    000072  aa  7 00046 2721 20         expand_list_address:	getlp
    000073  4a  4 00102 7101 20         	tra	mlsys_address_mgr_$expand_list_address
                                    66
                                    67  	transfer	expunge_messages,mlsys_mailbox_mgr_$expunge_messages
                        000074          	segdef	expunge_messages
    000074  aa  7 00046 2721 20         expunge_messages:	getlp
    000075  4a  4 00104 7101 20         	tra	mlsys_mailbox_mgr_$expunge_messages
                                    68  	transfer	free_address,mlsys_address_mgr_$free_address
                        000076          	segdef	free_address
    000076  aa  7 00046 2721 20         free_address:	getlp
    000077  4a  4 00106 7101 20         	tra	mlsys_address_mgr_$free_address
                                    69  	transfer	free_address_list,mlsys_address_list_mgr_$free_address_list_writeable
                        000100          	segdef	free_address_list
    000100  aa  7 00046 2721 20         free_address_list:	getlp
    000101  4a  4 00110 7101 20         	tra	mlsys_address_list_mgr_$free_address_list_writeable
                                    70  	transfer	free_message,mlsys_message_mgr_$free_message_new
                        000102          	segdef	free_message
    000102  aa  7 00046 2721 20         free_message:	getlp
    000103  4a  4 00112 7101 20         	tra	mlsys_message_mgr_$free_message_new
                                    71  	transfer	get_address_comment,mlsys_address_mgr_$get_address_comment
                        000104          	segdef	get_address_comment
    000104  aa  7 00046 2721 20         get_address_comment:	getlp
    000105  4a  4 00114 7101 20         	tra	mlsys_address_mgr_$get_address_comment
                                    72
                                    73  	transfer	get_address_name,mlsys_address_mgr_$get_address_name
                        000106          	segdef	get_address_name
    000106  aa  7 00046 2721 20         get_address_name:	getlp
    000107  4a  4 00116 7101 20         	tra	mlsys_address_mgr_$get_address_name
                                    74  	transfer	get_address_pathname,mlsys_address_mgr_$get_address_pathname
                        000110          	segdef	get_address_pathname
    000110  aa  7 00046 2721 20         get_address_pathname:	getlp
    000111  4a  4 00120 7101 20         	tra	mlsys_address_mgr_$get_address_pathname
                                    75  	transfer	get_address_route,mlsys_address_mgr_$get_address_explicit_route
                        000112          	segdef	get_address_route
    000112  aa  7 00046 2721 20         get_address_route:	getlp
    000113  4a  4 00122 7101 20         	tra	mlsys_address_mgr_$get_address_explicit_route
                                    76  	transfer	get_address_string,mlsys_address_mgr_$get_address_string
                        000114          	segdef	get_address_string
    000114  aa  7 00046 2721 20         get_address_string:	getlp
    000115  4a  4 00124 7101 20         	tra	mlsys_address_mgr_$get_address_string
                                    77  	transfer	get_address_system,mlsys_address_mgr_$get_address_system
                        000116          	segdef	get_address_system
    000116  aa  7 00046 2721 20         get_address_system:	getlp
    000117  4a  4 00126 7101 20         	tra	mlsys_address_mgr_$get_address_system
                                    78
                                    79  	transfer	get_address_type,mlsys_address_mgr_$get_address_type
                        000120          	segdef	get_address_type
    000120  aa  7 00046 2721 20         get_address_type:	getlp
    000121  4a  4 00130 7101 20         	tra	mlsys_address_mgr_$get_address_type
                                    80  	transfer	get_mail_table_address,mlsys_address_mgr_$get_mail_table_address
                        000122          	segdef	get_mail_table_address
    000122  aa  7 00046 2721 20         get_mail_table_address:	getlp
    000123  4a  4 00132 7101 20         	tra	mlsys_address_mgr_$get_mail_table_address
                                    81  	transfer	get_named_group_display_flag,mlsys_address_mgr_$get_named_group_display_flag
                        000124          	segdef	get_named_group_display_flag
    000124  aa  7 00046 2721 20         get_named_group_display_flag:	getlp
    000125  4a  4 00134 7101 20         	tra	mlsys_address_mgr_$get_named_group_display_flag
                                    82  	transfer	get_message_counts,mlsys_mailbox_mgr_$get_message_counts
                        000126          	segdef	get_message_counts
    000126  aa  7 00046 2721 20         get_message_counts:	getlp
    000127  4a  4 00136 7101 20         	tra	mlsys_mailbox_mgr_$get_message_counts
                                    83  	transfer	get_users_addresses,mlsys_address_mgr_$get_users_addresses
                        000130          	segdef	get_users_addresses
    000130  aa  7 00046 2721 20         get_users_addresses:	getlp
    000131  4a  4 00140 7101 20         	tra	mlsys_address_mgr_$get_users_addresses
                                    84
                                    85  	transfer	get_user_field_id,mlsys_field_id_mgr_$get_user_field_id
                        000132          	segdef	get_user_field_id
    000132  aa  7 00046 2721 20         get_user_field_id:	getlp
    000133  4a  4 00142 7101 20         	tra	mlsys_field_id_mgr_$get_user_field_id
                                    86  	transfer	get_user_field_name,mlsys_field_id_mgr_$get_user_field_name
                        000134          	segdef	get_user_field_name
    000134  aa  7 00046 2721 20         get_user_field_name:	getlp
    000135  4a  4 00144 7101 20         	tra	mlsys_field_id_mgr_$get_user_field_name
                                    87  	transfer	log_message,mlsys_transmit_$log_message
                        000136          	segdef	log_message
    000136  aa  7 00046 2721 20         log_message:	getlp
    000137  4a  4 00146 7101 20         	tra	mlsys_transmit_$log_message
                                    88  	transfer	mark_message_for_deletion,mlsys_mailbox_mgr_$mark_message_for_deletion
                        000140          	segdef	mark_message_for_deletion
    000140  aa  7 00046 2721 20         mark_message_for_deletion:	getlp
    000141  4a  4 00150 7101 20         	tra	mlsys_mailbox_mgr_$mark_message_for_deletion
                                    89  	transfer	merge_address_lists,mlsys_address_list_mgr_$merge_address_lists_writeable
                        000142          	segdef	merge_address_lists
    000142  aa  7 00046 2721 20         merge_address_lists:	getlp
    000143  4a  4 00152 7101 20         	tra	mlsys_address_list_mgr_$merge_address_lists_writeable
                                    90
                                    91  	transfer	open_mailbox,mlsys_mailbox_mgr_$open_mailbox
                        000144          	segdef	open_mailbox
    000144  aa  7 00046 2721 20         open_mailbox:	getlp
    000145  4a  4 00154 7101 20         	tra	mlsys_mailbox_mgr_$open_mailbox
                                    92  	transfer	read_message,mlsys_mailbox_mgr_$read_message
                        000146          	segdef	read_message
    000146  aa  7 00046 2721 20         read_message:	getlp
    000147  4a  4 00156 7101 20         	tra	mlsys_mailbox_mgr_$read_message
                                    93  	transfer	read_message_canonical_form,mlsys_mailbox_mgr_$read_message_canonical_form
                        000150          	segdef	read_message_canonical_form
    000150  aa  7 00046 2721 20         read_message_canonical_form:	getlp
    000151  4a  4 00160 7101 20         	tra	mlsys_mailbox_mgr_$read_message_canonical_form
                                    94  	transfer	read_message_canonical_form_p,mlsys_mailbox_mgr_$read_message_canonical_form_p
                        000152          	segdef	read_message_canonical_form_p
    000152  aa  7 00046 2721 20         read_message_canonical_form_p:	getlp
    000153  4a  4 00162 7101 20         	tra	mlsys_mailbox_mgr_$read_message_canonical_form_p
                                    95  	transfer	read_new_messages,mlsys_mailbox_mgr_$read_new_messages
                        000154          	segdef	read_new_messages
    000154  aa  7 00046 2721 20         read_new_messages:	getlp
    000155  4a  4 00164 7101 20         	tra	mlsys_mailbox_mgr_$read_new_messages
                                    96
                                    97  	transfer	redistribute_message,mlsys_transmit_$redistribute_message
                        000156          	segdef	redistribute_message
    000156  aa  7 00046 2721 20         redistribute_message:	getlp
    000157  4a  4 00166 7101 20         	tra	mlsys_transmit_$redistribute_message
                                    98  	transfer	replace_address,mlsys_address_list_mgr_$replace_address_writeable
                        000160          	segdef	replace_address
    000160  aa  7 00046 2721 20         replace_address:	getlp
    000161  4a  4 00170 7101 20         	tra	mlsys_address_list_mgr_$replace_address_writeable
                                    99  	transfer	replace_bcc,mlsys_message_mgr_$replace_bcc_new
                        000162          	segdef	replace_bcc
    000162  aa  7 00046 2721 20         replace_bcc:	getlp
    000163  4a  4 00172 7101 20         	tra	mlsys_message_mgr_$replace_bcc_new
                                   100  	transfer	replace_body,mlsys_message_mgr_$replace_body_new
                        000164          	segdef	replace_body
    000164  aa  7 00046 2721 20         replace_body:	getlp
    000165  4a  4 00174 7101 20         	tra	mlsys_message_mgr_$replace_body_new
                                   101  	transfer	replace_body_section,mlsys_message_mgr_$replace_body_section_new
                        000166          	segdef	replace_body_section
    000166  aa  7 00046 2721 20         replace_body_section:	getlp
    000167  4a  4 00176 7101 20         	tra	mlsys_message_mgr_$replace_body_section_new
                                   102
                                   103  	transfer	replace_cc,mlsys_message_mgr_$replace_cc_new
                        000170          	segdef	replace_cc
    000170  aa  7 00046 2721 20         replace_cc:	getlp
    000171  4a  4 00200 7101 20         	tra	mlsys_message_mgr_$replace_cc_new
                                   104  	transfer	replace_from,mlsys_message_mgr_$replace_from_new
                        000172          	segdef	replace_from
    000172  aa  7 00046 2721 20         replace_from:	getlp
    000173  4a  4 00202 7101 20         	tra	mlsys_message_mgr_$replace_from_new
                                   105  	transfer	replace_reply_reference,mlsys_message_mgr_$replace_reply_reference_new
                        000174          	segdef	replace_reply_reference
    000174  aa  7 00046 2721 20         replace_reply_reference:	getlp
    000175  4a  4 00204 7101 20         	tra	mlsys_message_mgr_$replace_reply_reference_new
                                   106  	transfer	replace_reply_to,mlsys_message_mgr_$replace_reply_to_new
                        000176          	segdef	replace_reply_to
    000176  aa  7 00046 2721 20         replace_reply_to:	getlp
    000177  4a  4 00206 7101 20         	tra	mlsys_message_mgr_$replace_reply_to_new
                                   107  	transfer	replace_subject,mlsys_message_mgr_$replace_subject_new
                        000200          	segdef	replace_subject
    000200  aa  7 00046 2721 20         replace_subject:	getlp
    000201  4a  4 00210 7101 20         	tra	mlsys_message_mgr_$replace_subject_new
                                   108
                                   109  	transfer	replace_to,mlsys_message_mgr_$replace_to_new
                        000202          	segdef	replace_to
    000202  aa  7 00046 2721 20         replace_to:	getlp
    000203  4a  4 00212 7101 20         	tra	mlsys_message_mgr_$replace_to_new
                                   110  	transfer	replace_user_field,mlsys_message_mgr_$replace_user_field_new
                        000204          	segdef	replace_user_field
    000204  aa  7 00046 2721 20         replace_user_field:	getlp
    000205  4a  4 00214 7101 20         	tra	mlsys_message_mgr_$replace_user_field_new
                                   111  	transfer	save_message,mlsys_transmit_$save_message
                        000206          	segdef	save_message
    000206  aa  7 00046 2721 20         save_message:	getlp
    000207  4a  4 00216 7101 20         	tra	mlsys_transmit_$save_message
                                   112  	transfer	set_access_class,mlsys_message_mgr_$set_access_class_new
                        000210          	segdef	set_access_class
    000210  aa  7 00046 2721 20         set_access_class:	getlp
    000211  4a  4 00220 7101 20         	tra	mlsys_message_mgr_$set_access_class_new
                                   113  	transfer	set_message_switch,mlsys_mailbox_mgr_$set_message_switch
                        000212          	segdef	set_message_switch
    000212  aa  7 00046 2721 20         set_message_switch:	getlp
    000213  4a  4 00222 7101 20         	tra	mlsys_mailbox_mgr_$set_message_switch
                                   114  	transfer	set_users_full_name,mlsys_address_mgr_$set_users_full_name
                        000214          	segdef	set_users_full_name
    000214  aa  7 00046 2721 20         set_users_full_name:	getlp
    000215  4a  4 00224 7101 20         	tra	mlsys_address_mgr_$set_users_full_name
                                   115
                                   116  	transfer	unmark_message_for_deletion,mlsys_mailbox_mgr_$unmark_message_for_deletion
                        000216          	segdef	unmark_message_for_deletion
    000216  aa  7 00046 2721 20         unmark_message_for_deletion:	getlp
    000217  4a  4 00226 7101 20         	tra	mlsys_mailbox_mgr_$unmark_message_for_deletion
                                   117  	transfer	validate_address,mlsys_transmit_$validate_address
                        000220          	segdef	validate_address
    000220  aa  7 00046 2721 20         validate_address:	getlp
    000221  4a  4 00230 7101 20         	tra	mlsys_transmit_$validate_address
                                   118
                                   119  	end

NO LITERALS

NAME DEFINITIONS FOR ENTRY POINTS AND SEGDEFS

    000222  5a   000003 000000
    000223  5a   001145 600000
    000224  aa   000000 000000
    000225  55   000013 000002
    000226  5a   000002 400003
    000227  55   000006 000013
    000230  aa  022 155 141 151
    000231  aa  154 137 163 171
    000232  aa  163 164 145 155
    000233  aa  137 162 062 137
    000234  aa  164 166 137 000
    000235  55   000023 000003
    000236  0a   000220 400000
    000237  55   000016 000003
    000240  aa  020 166 141 154         validate_address
    000241  aa  151 144 141 164
    000242  aa  145 137 141 144
    000243  aa  144 162 145 163
    000244  aa  163 000 000 000
    000245  55   000035 000013
    000246  0a   000216 400000
    000247  55   000026 000003
    000250  aa  033 165 156 155         unmark_message_for_deletion
    000251  aa  141 162 153 137
    000252  aa  155 145 163 163
    000253  aa  141 147 145 137
    000254  aa  146 157 162 137
    000255  aa  144 145 154 145
    000256  aa  164 151 157 156
    000257  55   000045 000023
    000260  0a   000214 400000
    000261  55   000040 000003
    000262  aa  023 163 145 164         set_users_full_name
    000263  aa  137 165 163 145
    000264  aa  162 163 137 146
    000265  aa  165 154 154 137
    000266  aa  156 141 155 145
    000267  55   000055 000035
    000270  0a   000212 400000
    000271  55   000050 000003
    000272  aa  022 163 145 164         set_message_switch
    000273  aa  137 155 145 163
    000274  aa  163 141 147 145
    000275  aa  137 163 167 151
    000276  aa  164 143 150 000
    000277  55   000065 000045
    000300  0a   000210 400000
    000301  55   000060 000003
    000302  aa  020 163 145 164         set_access_class
    000303  aa  137 141 143 143
    000304  aa  145 163 163 137
    000305  aa  143 154 141 163
    000306  aa  163 000 000 000
    000307  55   000074 000055
    000310  0a   000206 400000
    000311  55   000070 000003
    000312  aa  014 163 141 166         save_message
    000313  aa  145 137 155 145
    000314  aa  163 163 141 147
    000315  aa  145 000 000 000
    000316  55   000104 000065
    000317  0a   000204 400000
    000320  55   000077 000003
    000321  aa  022 162 145 160         replace_user_field
    000322  aa  154 141 143 145
    000323  aa  137 165 163 145
    000324  aa  162 137 146 151
    000325  aa  145 154 144 000
    000326  55   000112 000074
    000327  0a   000202 400000
    000330  55   000107 000003
    000331  aa  012 162 145 160         replace_to
    000332  aa  154 141 143 145
    000333  aa  137 164 157 000
    000334  55   000121 000104
    000335  0a   000200 400000
    000336  55   000115 000003
    000337  aa  017 162 145 160         replace_subject
    000340  aa  154 141 143 145
    000341  aa  137 163 165 142
    000342  aa  152 145 143 164
    000343  55   000131 000112
    000344  0a   000176 400000
    000345  55   000124 000003
    000346  aa  020 162 145 160         replace_reply_to
    000347  aa  154 141 143 145
    000350  aa  137 162 145 160
    000351  aa  154 171 137 164
    000352  aa  157 000 000 000
    000353  55   000142 000121
    000354  0a   000174 400000
    000355  55   000134 000003
    000356  aa  027 162 145 160         replace_reply_reference
    000357  aa  154 141 143 145
    000360  aa  137 162 145 160
    000361  aa  154 171 137 162
    000362  aa  145 146 145 162
    000363  aa  145 156 143 145
    000364  55   000151 000131
    000365  0a   000172 400000
    000366  55   000145 000003
    000367  aa  014 162 145 160         replace_from
    000370  aa  154 141 143 145
    000371  aa  137 146 162 157
    000372  aa  155 000 000 000
    000373  55   000157 000142
    000374  0a   000170 400000
    000375  55   000154 000003
    000376  aa  012 162 145 160         replace_cc
    000377  aa  154 141 143 145
    000400  aa  137 143 143 000
    000401  55   000170 000151
    000402  0a   000166 400000
    000403  55   000162 000003
    000404  aa  024 162 145 160         replace_body_section
    000405  aa  154 141 143 145
    000406  aa  137 142 157 144
    000407  aa  171 137 163 145
    000410  aa  143 164 151 157
    000411  aa  156 000 000 000
    000412  55   000177 000157
    000413  0a   000164 400000
    000414  55   000173 000003
    000415  aa  014 162 145 160         replace_body
    000416  aa  154 141 143 145
    000417  aa  137 142 157 144
    000420  aa  171 000 000 000
    000421  55   000205 000170
    000422  0a   000162 400000
    000423  55   000202 000003
    000424  aa  013 162 145 160         replace_bcc
    000425  aa  154 141 143 145
    000426  aa  137 142 143 143
    000427  55   000214 000177
    000430  0a   000160 400000
    000431  55   000210 000003
    000432  aa  017 162 145 160         replace_address
    000433  aa  154 141 143 145
    000434  aa  137 141 144 144
    000435  aa  162 145 163 163
    000436  55   000225 000205
    000437  0a   000156 400000
    000440  55   000217 000003
    000441  aa  024 162 145 144         redistribute_message
    000442  aa  151 163 164 162
    000443  aa  151 142 165 164
    000444  aa  145 137 155 145
    000445  aa  163 163 141 147
    000446  aa  145 000 000 000
    000447  55   000235 000214
    000450  0a   000154 400000
    000451  55   000230 000003
    000452  aa  021 162 145 141         read_new_messages
    000453  aa  144 137 156 145
    000454  aa  167 137 155 145
    000455  aa  163 163 141 147
    000456  aa  145 163 000 000
    000457  55   000250 000225
    000460  0a   000152 400000
    000461  55   000240 000003
    000462  aa  035 162 145 141         read_message_canonical_form_p
    000463  aa  144 137 155 145
    000464  aa  163 163 141 147
    000465  aa  145 137 143 141
    000466  aa  156 157 156 151
    000467  aa  143 141 154 137
    000470  aa  146 157 162 155
    000471  aa  137 160 000 000
    000472  55   000262 000235
    000473  0a   000150 400000
    000474  55   000253 000003
    000475  aa  033 162 145 141         read_message_canonical_form
    000476  aa  144 137 155 145
    000477  aa  163 163 141 147
    000500  aa  145 137 143 141
    000501  aa  156 157 156 151
    000502  aa  143 141 154 137
    000503  aa  146 157 162 155
    000504  55   000271 000250
    000505  0a   000146 400000
    000506  55   000265 000003
    000507  aa  014 162 145 141         read_message
    000510  aa  144 137 155 145
    000511  aa  163 163 141 147
    000512  aa  145 000 000 000
    000513  55   000300 000262
    000514  0a   000144 400000
    000515  55   000274 000003
    000516  aa  014 157 160 145         open_mailbox
    000517  aa  156 137 155 141
    000520  aa  151 154 142 157
    000521  aa  170 000 000 000
    000522  55   000310 000271
    000523  0a   000142 400000
    000524  55   000303 000003
    000525  aa  023 155 145 162         merge_address_lists
    000526  aa  147 145 137 141
    000527  aa  144 144 162 145
    000530  aa  163 163 137 154
    000531  aa  151 163 164 163
    000532  55   000322 000300
    000533  0a   000140 400000
    000534  55   000313 000003
    000535  aa  031 155 141 162         mark_message_for_deletion
    000536  aa  153 137 155 145
    000537  aa  163 163 141 147
    000540  aa  145 137 146 157
    000541  aa  162 137 144 145
    000542  aa  154 145 164 151
    000543  aa  157 156 000 000
    000544  55   000330 000310
    000545  0a   000136 400000
    000546  55   000325 000003
    000547  aa  013 154 157 147         log_message
    000550  aa  137 155 145 163
    000551  aa  163 141 147 145
    000552  55   000340 000322
    000553  0a   000134 400000
    000554  55   000333 000003
    000555  aa  023 147 145 164         get_user_field_name
    000556  aa  137 165 163 145
    000557  aa  162 137 146 151
    000560  aa  145 154 144 137
    000561  aa  156 141 155 145
    000562  55   000350 000330
    000563  0a   000132 400000
    000564  55   000343 000003
    000565  aa  021 147 145 164         get_user_field_id
    000566  aa  137 165 163 145
    000567  aa  162 137 146 151
    000570  aa  145 154 144 137
    000571  aa  151 144 000 000
    000572  55   000360 000340
    000573  0a   000130 400000
    000574  55   000353 000003
    000575  aa  023 147 145 164         get_users_addresses
    000576  aa  137 165 163 145
    000577  aa  162 163 137 141
    000600  aa  144 144 162 145
    000601  aa  163 163 145 163
    000602  55   000370 000350
    000603  0a   000126 400000
    000604  55   000363 000003
    000605  aa  022 147 145 164         get_message_counts
    000606  aa  137 155 145 163
    000607  aa  163 141 147 145
    000610  aa  137 143 157 165
    000611  aa  156 164 163 000
    000612  55   000403 000360
    000613  0a   000124 400000
    000614  55   000373 000003
    000615  aa  034 147 145 164         get_named_group_display_flag
    000616  aa  137 156 141 155
    000617  aa  145 144 137 147
    000620  aa  162 157 165 160
    000621  aa  137 144 151 163
    000622  aa  160 154 141 171
    000623  aa  137 146 154 141
    000624  aa  147 000 000 000
    000625  55   000414 000370
    000626  0a   000122 400000
    000627  55   000406 000003
    000630  aa  026 147 145 164         get_mail_table_address
    000631  aa  137 155 141 151
    000632  aa  154 137 164 141
    000633  aa  142 154 145 137
    000634  aa  141 144 144 162
    000635  aa  145 163 163 000
    000636  55   000424 000403
    000637  0a   000120 400000
    000640  55   000417 000003
    000641  aa  020 147 145 164         get_address_type
    000642  aa  137 141 144 144
    000643  aa  162 145 163 163
    000644  aa  137 164 171 160
    000645  aa  145 000 000 000
    000646  55   000434 000414
    000647  0a   000116 400000
    000650  55   000427 000003
    000651  aa  022 147 145 164         get_address_system
    000652  aa  137 141 144 144
    000653  aa  162 145 163 163
    000654  aa  137 163 171 163
    000655  aa  164 145 155 000
    000656  55   000444 000424
    000657  0a   000114 400000
    000660  55   000437 000003
    000661  aa  022 147 145 164         get_address_string
    000662  aa  137 141 144 144
    000663  aa  162 145 163 163
    000664  aa  137 163 164 162
    000665  aa  151 156 147 000
    000666  55   000454 000434
    000667  0a   000112 400000
    000670  55   000447 000003
    000671  aa  021 147 145 164         get_address_route
    000672  aa  137 141 144 144
    000673  aa  162 145 163 163
    000674  aa  137 162 157 165
    000675  aa  164 145 000 000
    000676  55   000465 000444
    000677  0a   000110 400000
    000700  55   000457 000003
    000701  aa  024 147 145 164         get_address_pathname
    000702  aa  137 141 144 144
    000703  aa  162 145 163 163
    000704  aa  137 160 141 164
    000705  aa  150 156 141 155
    000706  aa  145 000 000 000
    000707  55   000475 000454
    000710  0a   000106 400000
    000711  55   000470 000003
    000712  aa  020 147 145 164         get_address_name
    000713  aa  137 141 144 144
    000714  aa  162 145 163 163
    000715  aa  137 156 141 155
    000716  aa  145 000 000 000
    000717  55   000505 000465
    000720  0a   000104 400000
    000721  55   000500 000003
    000722  aa  023 147 145 164         get_address_comment
    000723  aa  137 141 144 144
    000724  aa  162 145 163 163
    000725  aa  137 143 157 155
    000726  aa  155 145 156 164
    000727  55   000514 000475
    000730  0a   000102 400000
    000731  55   000510 000003
    000732  aa  014 146 162 145         free_message
    000733  aa  145 137 155 145
    000734  aa  163 163 141 147
    000735  aa  145 000 000 000
    000736  55   000524 000505
    000737  0a   000100 400000
    000740  55   000517 000003
    000741  aa  021 146 162 145         free_address_list
    000742  aa  145 137 141 144
    000743  aa  144 162 145 163
    000744  aa  163 137 154 151
    000745  aa  163 164 000 000
    000746  55   000533 000514
    000747  0a   000076 400000
    000750  55   000527 000003
    000751  aa  014 146 162 145         free_address
    000752  aa  145 137 141 144
    000753  aa  144 162 145 163
    000754  aa  163 000 000 000
    000755  55   000543 000524
    000756  0a   000074 400000
    000757  55   000536 000003
    000760  aa  020 145 170 160         expunge_messages
    000761  aa  165 156 147 145
    000762  aa  137 155 145 163
    000763  aa  163 141 147 145
    000764  aa  163 000 000 000
    000765  55   000553 000533
    000766  0a   000072 400000
    000767  55   000546 000003
    000770  aa  023 145 170 160         expand_list_address
    000771  aa  141 156 144 137
    000772  aa  154 151 163 164
    000773  aa  137 141 144 144
    000774  aa  162 145 163 163
    000775  55   000566 000543
    000776  0a   000070 400000
    000777  55   000556 000003
    001000  aa  035 145 154 151         eliminate_duplicate_addresses
    001001  aa  155 151 156 141
    001002  aa  164 145 137 144
    001003  aa  165 160 154 151
    001004  aa  143 141 164 145
    001005  aa  137 141 144 144
    001006  aa  162 145 163 163
    001007  aa  145 163 000 000
    001010  55   000575 000553
    001011  0a   000066 400000
    001012  55   000571 000003
    001013  aa  017 144 145 154         deliver_message
    001014  aa  151 166 145 162
    001015  aa  137 155 145 163
    001016  aa  163 141 147 145
    001017  55   000605 000566
    001020  0a   000064 400000
    001021  55   000600 000003
    001022  aa  021 144 145 154         delete_user_field
    001023  aa  145 164 145 137
    001024  aa  165 163 145 162
    001025  aa  137 146 151 145
    001026  aa  154 144 000 000
    001027  55   000616 000575
    001030  0a   000062 400000
    001031  55   000610 000003
    001032  aa  026 144 145 154         delete_reply_reference
    001033  aa  145 164 145 137
    001034  aa  162 145 160 154
    001035  aa  171 137 162 145
    001036  aa  146 145 162 145
    001037  aa  156 143 145 000
    001040  55   000626 000605
    001041  0a   000060 400000
    001042  55   000621 000003
    001043  aa  023 144 145 154         delete_body_section
    001044  aa  145 164 145 137
    001045  aa  142 157 144 171
    001046  aa  137 163 145 143
    001047  aa  164 151 157 156
    001050  55   000635 000616
    001051  0a   000056 400000
    001052  55   000631 000003
    001053  aa  016 144 145 154         delete_address
    001054  aa  145 164 145 137
    001055  aa  141 144 144 162
    001056  aa  145 163 163 000
    001057  55   000645 000626
    001060  0a   000054 400000
    001061  55   000640 000003
    001062  aa  021 144 145 143         decode_message_id
    001063  aa  157 144 145 137
    001064  aa  155 145 163 163
    001065  aa  141 147 145 137
    001066  aa  151 144 000 000
    001067  55   000657 000635
    001070  0a   000052 400000
    001071  55   000650 000003
    001072  aa  033 143 162 145         create_user_mailbox_address
    001073  aa  141 164 145 137
    001074  aa  165 163 145 162
    001075  aa  137 155 141 151
    001076  aa  154 142 157 170
    001077  aa  137 141 144 144
    001100  aa  162 145 163 163
    001101  55   000670 000645
    001102  0a   000050 400000
    001103  55   000662 000003
    001104  aa  026 143 162 145         create_savebox_address
    001105  aa  141 164 145 137
    001106  aa  163 141 166 145
    001107  aa  142 157 170 137
    001110  aa  141 144 144 162
    001111  aa  145 163 163 000
    001112  55   000702 000657
    001113  0a   000046 400000
    001114  55   000673 000003
    001115  aa  032 143 162 145         create_named_group_address
    001116  aa  141 164 145 137
    001117  aa  156 141 155 145
    001120  aa  144 137 147 162
    001121  aa  157 165 160 137
    001122  aa  141 144 144 162
    001123  aa  145 163 163 000
    001124  55   000711 000670
    001125  0a   000044 400000
    001126  55   000705 000003
    001127  aa  016 143 162 145         create_message
    001130  aa  141 164 145 137
    001131  aa  155 145 163 163
    001132  aa  141 147 145 000
    001133  55   000723 000702
    001134  0a   000042 400000
    001135  55   000714 000003
    001136  aa  033 143 162 145         create_mailing_list_address
    001137  aa  141 164 145 137
    001140  aa  155 141 151 154
    001141  aa  151 156 147 137
    001142  aa  154 151 163 164
    001143  aa  137 141 144 144
    001144  aa  162 145 163 163
    001145  55   000734 000711
    001146  0a   000040 400000
    001147  55   000726 000003
    001150  aa  026 143 162 145         create_mailbox_address
    001151  aa  141 164 145 137
    001152  aa  155 141 151 154
    001153  aa  142 157 170 137
    001154  aa  141 144 144 162
    001155  aa  145 163 163 000
    001156  55   000746 000723
    001157  0a   000036 400000
    001160  55   000737 000003
    001161  aa  031 143 162 145         create_mail_table_address
    001162  aa  141 164 145 137
    001163  aa  155 141 151 154
    001164  aa  137 164 141 142
    001165  aa  154 145 137 141
    001166  aa  144 144 162 145
    001167  aa  163 163 000 000
    001170  55   000757 000734
    001171  0a   000034 400000
    001172  55   000751 000003
    001173  aa  025 143 162 145         create_logbox_address
    001174  aa  141 164 145 137
    001175  aa  154 157 147 142
    001176  aa  157 170 137 141
    001177  aa  144 144 162 145
    001200  aa  163 163 000 000
    001201  55   000770 000746
    001202  0a   000032 400000
    001203  55   000762 000003
    001204  aa  026 143 162 145         create_invalid_address
    001205  aa  141 164 145 137
    001206  aa  151 156 166 141
    001207  aa  154 151 144 137
    001210  aa  141 144 144 162
    001211  aa  145 163 163 000
    001212  55   001001 000757
    001213  0a   000030 400000
    001214  55   000773 000003
    001215  aa  024 143 162 145         create_forum_address
    001216  aa  141 164 145 137
    001217  aa  146 157 162 165
    001220  aa  155 137 141 144
    001221  aa  144 162 145 163
    001222  aa  163 000 000 000
    001223  55   001012 000770
    001224  0a   000026 400000
    001225  55   001004 000003
    001226  aa  026 143 162 145         create_foreign_address
    001227  aa  141 164 145 137
    001230  aa  146 157 162 145
    001231  aa  151 147 156 137
    001232  aa  141 144 144 162
    001233  aa  145 163 163 000
    001234  55   001022 001001
    001235  0a   000024 400000
    001236  55   001015 000003
    001237  aa  023 143 162 145         create_address_list
    001240  aa  141 164 145 137
    001241  aa  141 144 144 162
    001242  aa  145 163 163 137
    001243  aa  154 151 163 164
    001244  55   001031 001012
    001245  0a   000022 400000
    001246  55   001025 000003
    001247  aa  014 143 157 160         copy_message
    001250  aa  171 137 155 145
    001251  aa  163 163 141 147
    001252  aa  145 000 000 000
    001253  55   001041 001022
    001254  0a   000020 400000
    001255  55   001034 000003
    001256  aa  021 143 157 160         copy_address_list
    001257  aa  171 137 141 144
    001260  aa  144 162 145 163
    001261  aa  163 137 154 151
    001262  aa  163 164 000 000
    001263  55   001051 001031
    001264  0a   000016 400000
    001265  55   001044 000003
    001266  aa  021 143 157 155         compare_addresses
    001267  aa  160 141 162 145
    001270  aa  137 141 144 144
    001271  aa  162 145 163 163
    001272  aa  145 163 000 000
    001273  55   001060 001041
    001274  0a   000014 400000
    001275  55   001054 000003
    001276  aa  015 143 154 157         close_mailbox
    001277  aa  163 145 137 155
    001300  aa  141 151 154 142
    001301  aa  157 170 000 000
    001302  55   001067 001051
    001303  0a   000012 400000
    001304  55   001063 000003
    001305  aa  016 141 144 144         add_user_field
    001306  aa  137 165 163 145
    001307  aa  162 137 146 151
    001310  aa  145 154 144 000
    001311  55   001077 001060
    001312  0a   000010 400000
    001313  55   001072 000003
    001314  aa  023 141 144 144         add_reply_reference
    001315  aa  137 162 145 160
    001316  aa  154 171 137 162
    001317  aa  145 146 145 162
    001320  aa  145 156 143 145
    001321  55   001107 001067
    001322  0a   000006 400000
    001323  55   001102 000003
    001324  aa  020 141 144 144         add_body_section
    001325  aa  137 142 157 144
    001326  aa  171 137 163 145
    001327  aa  143 164 151 157
    001330  aa  156 000 000 000
    001331  55   001115 001077
    001332  0a   000004 400000
    001333  55   001112 000003
    001334  aa  013 141 144 144         add_address
    001335  aa  137 141 144 144
    001336  aa  162 145 163 163
    001337  55   001125 001107
    001340  0a   000002 400000
    001341  55   001120 000003
    001342  aa  023 141 143 153         acknowledge_message
    001343  aa  156 157 167 154
    001344  aa  145 144 147 145
    001345  aa  137 155 145 163
    001346  aa  163 141 147 145
    001347  55   001136 001115
    001350  0a   000000 400000
    001351  55   001130 000003
    001352  aa  026 141 142 157         abort_delete_operation
    001353  aa  162 164 137 144
    001354  aa  145 154 145 164
    001355  aa  145 137 157 160
    001356  aa  145 162 141 164
    001357  aa  151 157 156 000
    001360  55   000002 001125
    001361  6a   000000 400002
    001362  55   001141 000003
    001363  aa  014 163 171 155         symbol_table
    001364  aa  142 157 154 137
    001365  aa  164 141 142 154
    001366  aa  145 000 000 000

DEFINITIONS HASH TABLE

    001367  aa   000000 000235
    001370  aa   000000 000000
    001371  aa   000000 000000
    001372  aa   000000 000000
    001373  aa   000000 000000
    001374  aa   000000 000000
    001375  aa   000000 000000
    001376  aa   000000 000000
    001377  aa   000000 000000
    001400  aa   000000 000000
    001401  aa   000000 000000
    001402  5a   000645 000000
    001403  5a   000711 000000
    001404  5a   000670 000000
    001405  aa   000000 000000
    001406  5a   000734 000000
    001407  5a   001067 000000
    001410  aa   000000 000000
    001411  aa   000000 000000
    001412  aa   000000 000000
    001413  aa   000000 000000
    001414  5a   000657 000000
    001415  5a   000723 000000
    001416  5a   000746 000000
    001417  5a   000757 000000
    001420  5a   000770 000000
    001421  5a   001001 000000
    001422  5a   001012 000000
    001423  5a   001060 000000
    001424  5a   000035 000000
    001425  5a   001077 000000
    001426  5a   000045 000000
    001427  5a   001107 000000
    001430  aa   000000 000000
    001431  aa   000000 000000
    001432  5a   000055 000000
    001433  5a   000235 000000
    001434  5a   000271 000000
    001435  5a   000065 000000
    001436  5a   000013 000000
    001437  5a   000250 000000
    001440  5a   000533 000000
    001441  5a   000543 000000
    001442  5a   000702 000000
    001443  aa   000000 000000
    001444  aa   000000 000000
    001445  aa   000000 000000
    001446  aa   000000 000000
    001447  aa   000000 000000
    001450  aa   000000 000000
    001451  5a   000514 000000
    001452  aa   000000 000000
    001453  aa   000000 000000
    001454  aa   000000 000000
    001455  aa   000000 000000
    001456  aa   000000 000000
    001457  aa   000000 000000
    001460  5a   000214 000000
    001461  aa   000000 000000
    001462  aa   000000 000000
    001463  5a   000225 000000
    001464  5a   000505 000000
    001465  5a   000524 000000
    001466  5a   000131 000000
    001467  aa   000000 000000
    001470  aa   000000 000000
    001471  aa   000000 000000
    001472  aa   000000 000000
    001473  aa   000000 000000
    001474  5a   000157 000000
    001475  5a   000262 000000
    001476  5a   001136 000000
    001477  aa   000000 000000
    001500  5a   000074 000000
    001501  5a   001041 000000
    001502  aa   000000 000000
    001503  5a   001031 000000
    001504  5a   000121 000000
    001505  5a   000605 000000
    001506  5a   000112 000000
    001507  5a   000205 000000
    001510  5a   000635 000000
    001511  aa   000000 000000
    001512  5a   000616 000000
    001513  aa   000000 000000
    001514  5a   000142 000000
    001515  5a   000170 000000
    001516  5a   000177 000000
    001517  5a   000575 000000
    001520  5a   000104 000000
    001521  5a   000151 000000
    001522  5a   000566 000000
    001523  5a   000370 000000
    001524  5a   000626 000000
    001525  5a   001022 000000
    001526  5a   001125 000000
    001527  aa   000000 000000
    001530  aa   000000 000000
    001531  aa   000000 000000
    001532  aa   000000 000000
    001533  aa   000000 000000
    001534  aa   000000 000000
    001535  aa   000000 000000
    001536  aa   000000 000000
    001537  5a   000403 000000
    001540  aa   000000 000000
    001541  aa   000000 000000
    001542  aa   000000 000000
    001543  5a   000454 000000
    001544  aa   000000 000000
    001545  5a   000330 000000
    001546  5a   000350 000000
    001547  5a   000360 000000
    001550  5a   000424 000000
    001551  5a   000340 000000
    001552  5a   000434 000000
    001553  5a   000414 000000
    001554  5a   000444 000000
    001555  5a   000465 000000
    001556  5a   000475 000000
    001557  5a   001051 000000
    001560  aa   000000 000000
    001561  aa   000000 000000
    001562  aa   000000 000000
    001563  aa   000000 000000
    001564  aa   000000 000000
    001565  5a   000023 000000
    001566  5a   000310 000000
    001567  aa   000000 000000
    001570  aa   000000 000000
    001571  aa   000000 000000
    001572  aa   000000 000000
    001573  aa   000000 000000
    001574  aa   000000 000000
    001575  aa   000000 000000
    001576  aa   000000 000000
    001577  5a   000322 000000
    001600  aa   000000 000000
    001601  5a   001115 000000
    001602  aa   000000 000000
    001603  aa   000000 000000
    001604  aa   000000 000000
    001605  aa   000000 000000
    001606  aa   000000 000000
    001607  5a   000553 000000
    001610  aa   000000 000000
    001611  5a   000300 000000
    001612  aa   000000 000000
    001613  aa   000000 000000
    001614  aa   000000 000000
    001615  aa   000000 000000
    001616  aa   000000 000000
    001617  aa   000000 000000
    001620  aa   000000 000000
    001621  aa   000000 000000
    001622  aa   000000 000000
    001623  aa   000000 000000
    001624  aa   000000 000000

EXTERNAL NAMES

    001625  aa  024 163 145 164         set_access_class_new
    001626  aa  137 141 143 143
    001627  aa  145 163 163 137
    001630  aa  143 154 141 163
    001631  aa  163 137 156 145
    001632  aa  167 000 000 000
    001633  aa  026 162 145 160         replace_user_field_new
    001634  aa  154 141 143 145
    001635  aa  137 165 163 145
    001636  aa  162 137 146 151
    001637  aa  145 154 144 137
    001640  aa  156 145 167 000
    001641  aa  016 162 145 160         replace_to_new
    001642  aa  154 141 143 145
    001643  aa  137 164 157 137
    001644  aa  156 145 167 000
    001645  aa  023 162 145 160         replace_subject_new
    001646  aa  154 141 143 145
    001647  aa  137 163 165 142
    001650  aa  152 145 143 164
    001651  aa  137 156 145 167
    001652  aa  024 162 145 160         replace_reply_to_new
    001653  aa  154 141 143 145
    001654  aa  137 162 145 160
    001655  aa  154 171 137 164
    001656  aa  157 137 156 145
    001657  aa  167 000 000 000
    001660  aa  033 162 145 160         replace_reply_reference_new
    001661  aa  154 141 143 145
    001662  aa  137 162 145 160
    001663  aa  154 171 137 162
    001664  aa  145 146 145 162
    001665  aa  145 156 143 145
    001666  aa  137 156 145 167
    001667  aa  020 162 145 160         replace_from_new
    001670  aa  154 141 143 145
    001671  aa  137 146 162 157
    001672  aa  155 137 156 145
    001673  aa  167 000 000 000
    001674  aa  016 162 145 160         replace_cc_new
    001675  aa  154 141 143 145
    001676  aa  137 143 143 137
    001677  aa  156 145 167 000
    001700  aa  030 162 145 160         replace_body_section_new
    001701  aa  154 141 143 145
    001702  aa  137 142 157 144
    001703  aa  171 137 163 145
    001704  aa  143 164 151 157
    001705  aa  156 137 156 145
    001706  aa  167 000 000 000
    001707  aa  020 162 145 160         replace_body_new
    001710  aa  154 141 143 145
    001711  aa  137 142 157 144
    001712  aa  171 137 156 145
    001713  aa  167 000 000 000
    001714  aa  017 162 145 160         replace_bcc_new
    001715  aa  154 141 143 145
    001716  aa  137 142 143 143
    001717  aa  137 156 145 167
    001720  aa  031 162 145 160         replace_address_writeable
    001721  aa  154 141 143 145
    001722  aa  137 141 144 144
    001723  aa  162 145 163 163
    001724  aa  137 167 162 151
    001725  aa  164 145 141 142
    001726  aa  154 145 000 000
    001727  aa  035 155 145 162         merge_address_lists_writeable
    001730  aa  147 145 137 141
    001731  aa  144 144 162 145
    001732  aa  163 163 137 154
    001733  aa  151 163 164 163
    001734  aa  137 167 162 151
    001735  aa  164 145 141 142
    001736  aa  154 145 000 000
    001737  aa  023 155 154 163         mlsys_field_id_mgr_
    001740  aa  171 163 137 146
    001741  aa  151 145 154 144
    001742  aa  137 151 144 137
    001743  aa  155 147 162 137
    001744  aa  032 147 145 164         get_address_explicit_route
    001745  aa  137 141 144 144
    001746  aa  162 145 163 163
    001747  aa  137 145 170 160
    001750  aa  154 151 143 151
    001751  aa  164 137 162 157
    001752  aa  165 164 145 000
    001753  aa  020 146 162 145         free_message_new
    001754  aa  145 137 155 145
    001755  aa  163 163 141 147
    001756  aa  145 137 156 145
    001757  aa  167 000 000 000
    001760  aa  033 146 162 145         free_address_list_writeable
    001761  aa  145 137 141 144
    001762  aa  144 162 145 163
    001763  aa  163 137 154 151
    001764  aa  163 164 137 167
    001765  aa  162 151 164 145
    001766  aa  141 142 154 145
    001767  aa  037 145 154 151         eliminate_duplicate_addrs_write
    001770  aa  155 151 156 141
    001771  aa  164 145 137 144
    001772  aa  165 160 154 151
    001773  aa  143 141 164 145
    001774  aa  137 141 144 144
    001775  aa  162 163 137 167
    001776  aa  162 151 164 145
    001777  aa  025 144 145 154         delete_user_field_new
    002000  aa  145 164 145 137
    002001  aa  165 163 145 162
    002002  aa  137 146 151 145
    002003  aa  154 144 137 156
    002004  aa  145 167 000 000
    002005  aa  032 144 145 154         delete_reply_reference_new
    002006  aa  145 164 145 137
    002007  aa  162 145 160 154
    002010  aa  171 137 162 145
    002011  aa  146 145 162 145
    002012  aa  156 143 145 137
    002013  aa  156 145 167 000
    002014  aa  027 144 145 154         delete_body_section_new
    002015  aa  145 164 145 137
    002016  aa  142 157 144 171
    002017  aa  137 163 145 143
    002020  aa  164 151 157 156
    002021  aa  137 156 145 167
    002022  aa  030 144 145 154         delete_address_writeable
    002023  aa  145 164 145 137
    002024  aa  141 144 144 162
    002025  aa  145 163 163 137
    002026  aa  167 162 151 164
    002027  aa  145 141 142 154
    002030  aa  145 000 000 000
    002031  aa  025 155 154 163         mlsys_message_id_mgr_
    002032  aa  171 163 137 155
    002033  aa  145 163 163 141
    002034  aa  147 145 137 151
    002035  aa  144 137 155 147
    002036  aa  162 137 000 000
    002037  aa  022 143 162 145         create_new_message
    002040  aa  141 164 145 137
    002041  aa  156 145 167 137
    002042  aa  155 145 163 163
    002043  aa  141 147 145 000
    002044  aa  035 143 162 145         create_writeable_address_list
    002045  aa  141 164 145 137
    002046  aa  167 162 151 164
    002047  aa  145 141 142 154
    002050  aa  145 137 141 144
    002051  aa  144 162 145 163
    002052  aa  163 137 154 151
    002053  aa  163 164 000 000
    002054  aa  017 155 154 163         mlsys_transmit_
    002055  aa  171 163 137 164
    002056  aa  162 141 156 163
    002057  aa  155 151 164 137
    002060  aa  022 155 154 163         mlsys_address_mgr_
    002061  aa  171 163 137 141
    002062  aa  144 144 162 145
    002063  aa  163 163 137 155
    002064  aa  147 162 137 000
    002065  aa  022 141 144 144         add_user_field_new
    002066  aa  137 165 163 145
    002067  aa  162 137 146 151
    002070  aa  145 154 144 137
    002071  aa  156 145 167 000
    002072  aa  027 141 144 144         add_reply_reference_new
    002073  aa  137 162 145 160
    002074  aa  154 171 137 162
    002075  aa  145 146 145 162
    002076  aa  145 156 143 145
    002077  aa  137 156 145 167
    002100  aa  024 141 144 144         add_body_section_new
    002101  aa  137 142 157 144
    002102  aa  171 137 163 145
    002103  aa  143 164 151 157
    002104  aa  156 137 156 145
    002105  aa  167 000 000 000
    002106  aa  022 155 154 163         mlsys_message_mgr_
    002107  aa  171 163 137 155
    002110  aa  145 163 163 141
    002111  aa  147 145 137 155
    002112  aa  147 162 137 000
    002113  aa  025 141 144 144         add_address_writeable
    002114  aa  137 141 144 144
    002115  aa  162 145 163 163
    002116  aa  137 167 162 151
    002117  aa  164 145 141 142
    002120  aa  154 145 000 000
    002121  aa  027 155 154 163         mlsys_address_list_mgr_
    002122  aa  171 163 137 141
    002123  aa  144 144 162 145
    002124  aa  163 163 137 154
    002125  aa  151 163 164 137
    002126  aa  155 147 162 137
    002127  aa  022 155 154 163         mlsys_mailbox_mgr_
    002130  aa  171 163 137 155
    002131  aa  141 151 154 142
    002132  aa  157 170 137 155
    002133  aa  147 162 137 000

NO TRAP POINTER WORDS

TYPE PAIR BLOCKS

    002134  aa   000004 000000
    002135  55   001632 000016
    002136  aa   000004 000000
    002137  55   001705 000026
    002140  aa   000004 000000
    002141  55   001636 000040
    002142  aa   000004 000000
    002143  55   001705 000050
    002144  aa   000004 000000
    002145  55   001664 001403
    002146  aa   000004 000000
    002147  55   001632 000070
    002150  aa   000004 000000
    002151  55   001664 001411
    002152  aa   000004 000000
    002153  55   001664 001417
    002154  aa   000004 000000
    002155  55   001664 001423
    002156  aa   000004 000000
    002157  55   001664 001430
    002160  aa   000004 000000
    002161  55   001664 001436
    002162  aa   000004 000000
    002163  55   001664 001445
    002164  aa   000004 000000
    002165  55   001664 001452
    002166  aa   000004 000000
    002167  55   001664 001456
    002170  aa   000004 000000
    002171  55   001664 001465
    002172  aa   000004 000000
    002173  55   001664 001472
    002174  aa   000004 000000
    002175  55   001677 001476
    002176  aa   000004 000000
    002177  55   001632 000217
    002200  aa   000004 000000
    002201  55   001705 000230
    002202  aa   000004 000000
    002203  55   001705 000240
    002204  aa   000004 000000
    002205  55   001705 000253
    002206  aa   000004 000000
    002207  55   001705 000265
    002210  aa   000004 000000
    002211  55   001705 000274
    002212  aa   000004 000000
    002213  55   001677 001505
    002214  aa   000004 000000
    002215  55   001705 000313
    002216  aa   000004 000000
    002217  55   001632 000325
    002220  aa   000004 000000
    002221  55   001515 000333
    002222  aa   000004 000000
    002223  55   001515 000343
    002224  aa   000004 000000
    002225  55   001636 000353
    002226  aa   000004 000000
    002227  55   001705 000363
    002230  aa   000004 000000
    002231  55   001636 000373
    002232  aa   000004 000000
    002233  55   001636 000406
    002234  aa   000004 000000
    002235  55   001636 000417
    002236  aa   000004 000000
    002237  55   001636 000427
    002240  aa   000004 000000
    002241  55   001636 000437
    002242  aa   000004 000000
    002243  55   001636 001522
    002244  aa   000004 000000
    002245  55   001636 000457
    002246  aa   000004 000000
    002247  55   001636 000470
    002250  aa   000004 000000
    002251  55   001636 000500
    002252  aa   000004 000000
    002253  55   001664 001531
    002254  aa   000004 000000
    002255  55   001677 001536
    002256  aa   000004 000000
    002257  55   001636 000527
    002260  aa   000004 000000
    002261  55   001705 000536
    002262  aa   000004 000000
    002263  55   001636 000546
    002264  aa   000004 000000
    002265  55   001632 001545
    002266  aa   000004 000000
    002267  55   001632 000571
    002270  aa   000004 000000
    002271  55   001664 001555
    002272  aa   000004 000000
    002273  55   001664 001563
    002274  aa   000004 000000
    002275  55   001664 001572
    002276  aa   000004 000000
    002277  55   001677 001600
    002300  aa   000004 000000
    002301  55   001607 000640
    002302  aa   000004 000000
    002303  55   001636 000650
    002304  aa   000004 000000
    002305  55   001636 000662
    002306  aa   000004 000000
    002307  55   001636 000673
    002310  aa   000004 000000
    002311  55   001664 001615
    002312  aa   000004 000000
    002313  55   001636 000714
    002314  aa   000004 000000
    002315  55   001636 000726
    002316  aa   000004 000000
    002317  55   001636 000737
    002320  aa   000004 000000
    002321  55   001636 000751
    002322  aa   000004 000000
    002323  55   001636 000762
    002324  aa   000004 000000
    002325  55   001636 000773
    002326  aa   000004 000000
    002327  55   001636 001004
    002330  aa   000004 000000
    002331  55   001677 001622
    002332  aa   000004 000000
    002333  55   001632 001025
    002334  aa   000004 000000
    002335  55   001677 001034
    002336  aa   000004 000000
    002337  55   001636 001044
    002340  aa   000004 000000
    002341  55   001705 001054
    002342  aa   000004 000000
    002343  55   001664 001643
    002344  aa   000004 000000
    002345  55   001664 001650
    002346  aa   000004 000000
    002347  55   001664 001656
    002350  aa   000004 000000
    002351  55   001677 001671
    002352  aa   000004 000000
    002353  55   001705 001120
    002354  aa   000004 000000
    002355  55   001705 001130
    002356  aa   000001 000000
    002357  aa   000000 000000

INTERNAL EXPRESSION WORDS

    002360  5a   001712 000000
    002361  5a   001714 000000
    002362  5a   001716 000000
    002363  5a   001720 000000
    002364  5a   001722 000000
    002365  5a   001724 000000
    002366  5a   001726 000000
    002367  5a   001730 000000
    002370  5a   001732 000000
    002371  5a   001734 000000
    002372  5a   001736 000000
    002373  5a   001740 000000
    002374  5a   001742 000000
    002375  5a   001744 000000
    002376  5a   001746 000000
    002377  5a   001750 000000
    002400  5a   001752 000000
    002401  5a   001754 000000
    002402  5a   001756 000000
    002403  5a   001760 000000
    002404  5a   001762 000000
    002405  5a   001764 000000
    002406  5a   001766 000000
    002407  5a   001770 000000
    002410  5a   001772 000000
    002411  5a   001774 000000
    002412  5a   001776 000000
    002413  5a   002000 000000
    002414  5a   002002 000000
    002415  5a   002004 000000
    002416  5a   002006 000000
    002417  5a   002010 000000
    002420  5a   002012 000000
    002421  5a   002014 000000
    002422  5a   002016 000000
    002423  5a   002020 000000
    002424  5a   002022 000000
    002425  5a   002024 000000
    002426  5a   002026 000000
    002427  5a   002030 000000
    002430  5a   002032 000000
    002431  5a   002034 000000
    002432  5a   002036 000000
    002433  5a   002040 000000
    002434  5a   002042 000000
    002435  5a   002044 000000
    002436  5a   002046 000000
    002437  5a   002050 000000
    002440  5a   002052 000000
    002441  5a   002054 000000
    002442  5a   002056 000000
    002443  5a   002060 000000
    002444  5a   002062 000000
    002445  5a   002064 000000
    002446  5a   002066 000000
    002447  5a   002070 000000
    002450  5a   002072 000000
    002451  5a   002074 000000
    002452  5a   002076 000000
    002453  5a   002100 000000
    002454  5a   002102 000000
    002455  5a   002104 000000
    002456  5a   002106 000000
    002457  5a   002110 000000
    002460  5a   002112 000000
    002461  5a   002114 000000
    002462  5a   002116 000000
    002463  5a   002120 000000
    002464  5a   002122 000000
    002465  5a   002124 000000
    002466  5a   002126 000000
    002467  5a   002130 000000
    002470  5a   002132 000000
    002471  aa   000000 000000
LINKAGE INFORMATION

    000000  aa   000000 000000
    000001  0a   000222 000000
    000002  aa   000000 000000
    000003  aa   000000 000000
    000004  aa   000000 000000
    000005  aa   000000 000000
    000006  22   000010 000232
    000007  a2   000000 000000
    000010  9a   777770 0000 46         mlsys_mailbox_mgr_|abort_delete_operation
    000011  5a   002246 0000 00
    000012  9a   777766 0000 46         mlsys_mailbox_mgr_|acknowledge_message
    000013  5a   002245 0000 00
    000014  9a   777764 0000 46         mlsys_address_list_mgr_|add_address_writeable
    000015  5a   002244 0000 00
    000016  9a   777762 0000 46         mlsys_message_mgr_|add_body_section_new
    000017  5a   002243 0000 00
    000020  9a   777760 0000 46         mlsys_message_mgr_|add_reply_reference_new
    000021  5a   002242 0000 00
    000022  9a   777756 0000 46         mlsys_message_mgr_|add_user_field_new
    000023  5a   002241 0000 00
    000024  9a   777754 0000 46         mlsys_mailbox_mgr_|close_mailbox
    000025  5a   002240 0000 00
    000026  9a   777752 0000 46         mlsys_address_mgr_|compare_addresses
    000027  5a   002237 0000 00
    000030  9a   777750 0000 46         mlsys_address_list_mgr_|copy_address_list
    000031  5a   002236 0000 00
    000032  9a   777746 0000 46         mlsys_transmit_|copy_message
    000033  5a   002235 0000 00
    000034  9a   777744 0000 46         mlsys_address_list_mgr_|create_writeable_address_list
    000035  5a   002234 0000 00
    000036  9a   777742 0000 46         mlsys_address_mgr_|create_foreign_address
    000037  5a   002233 0000 00
    000040  9a   777740 0000 46         mlsys_address_mgr_|create_forum_address
    000041  5a   002232 0000 00
    000042  9a   777736 0000 46         mlsys_address_mgr_|create_invalid_address
    000043  5a   002231 0000 00
    000044  9a   777734 0000 46         mlsys_address_mgr_|create_logbox_address
    000045  5a   002230 0000 00
    000046  9a   777732 0000 46         mlsys_address_mgr_|create_mail_table_address
    000047  5a   002227 0000 00
    000050  9a   777730 0000 46         mlsys_address_mgr_|create_mailbox_address
    000051  5a   002226 0000 00
    000052  9a   777726 0000 46         mlsys_address_mgr_|create_mailing_list_address
    000053  5a   002225 0000 00
    000054  9a   777724 0000 46         mlsys_message_mgr_|create_new_message
    000055  5a   002224 0000 00
    000056  9a   777722 0000 46         mlsys_address_mgr_|create_named_group_address
    000057  5a   002223 0000 00
    000060  9a   777720 0000 46         mlsys_address_mgr_|create_savebox_address
    000061  5a   002222 0000 00
    000062  9a   777716 0000 46         mlsys_address_mgr_|create_user_mailbox_address
    000063  5a   002221 0000 00
    000064  9a   777714 0000 46         mlsys_message_id_mgr_|decode_message_id
    000065  5a   002220 0000 00
    000066  9a   777712 0000 46         mlsys_address_list_mgr_|delete_address_writeable
    000067  5a   002217 0000 00
    000070  9a   777710 0000 46         mlsys_message_mgr_|delete_body_section_new
    000071  5a   002216 0000 00
    000072  9a   777706 0000 46         mlsys_message_mgr_|delete_reply_reference_new
    000073  5a   002215 0000 00
    000074  9a   777704 0000 46         mlsys_message_mgr_|delete_user_field_new
    000075  5a   002214 0000 00
    000076  9a   777702 0000 46         mlsys_transmit_|deliver_message
    000077  5a   002213 0000 00
    000100  9a   777700 0000 46         mlsys_transmit_|eliminate_duplicate_addrs_write
    000101  5a   002212 0000 00
    000102  9a   777676 0000 46         mlsys_address_mgr_|expand_list_address
    000103  5a   002211 0000 00
    000104  9a   777674 0000 46         mlsys_mailbox_mgr_|expunge_messages
    000105  5a   002210 0000 00
    000106  9a   777672 0000 46         mlsys_address_mgr_|free_address
    000107  5a   002207 0000 00
    000110  9a   777670 0000 46         mlsys_address_list_mgr_|free_address_list_writeable
    000111  5a   002206 0000 00
    000112  9a   777666 0000 46         mlsys_message_mgr_|free_message_new
    000113  5a   002205 0000 00
    000114  9a   777664 0000 46         mlsys_address_mgr_|get_address_comment
    000115  5a   002204 0000 00
    000116  9a   777662 0000 46         mlsys_address_mgr_|get_address_name
    000117  5a   002203 0000 00
    000120  9a   777660 0000 46         mlsys_address_mgr_|get_address_pathname
    000121  5a   002202 0000 00
    000122  9a   777656 0000 46         mlsys_address_mgr_|get_address_explicit_route
    000123  5a   002201 0000 00
    000124  9a   777654 0000 46         mlsys_address_mgr_|get_address_string
    000125  5a   002200 0000 00
    000126  9a   777652 0000 46         mlsys_address_mgr_|get_address_system
    000127  5a   002177 0000 00
    000130  9a   777650 0000 46         mlsys_address_mgr_|get_address_type
    000131  5a   002176 0000 00
    000132  9a   777646 0000 46         mlsys_address_mgr_|get_mail_table_address
    000133  5a   002175 0000 00
    000134  9a   777644 0000 46         mlsys_address_mgr_|get_named_group_display_flag
    000135  5a   002174 0000 00
    000136  9a   777642 0000 46         mlsys_mailbox_mgr_|get_message_counts
    000137  5a   002173 0000 00
    000140  9a   777640 0000 46         mlsys_address_mgr_|get_users_addresses
    000141  5a   002172 0000 00
    000142  9a   777636 0000 46         mlsys_field_id_mgr_|get_user_field_id
    000143  5a   002171 0000 00
    000144  9a   777634 0000 46         mlsys_field_id_mgr_|get_user_field_name
    000145  5a   002170 0000 00
    000146  9a   777632 0000 46         mlsys_transmit_|log_message
    000147  5a   002167 0000 00
    000150  9a   777630 0000 46         mlsys_mailbox_mgr_|mark_message_for_deletion
    000151  5a   002166 0000 00
    000152  9a   777626 0000 46         mlsys_address_list_mgr_|merge_address_lists_writeable
    000153  5a   002165 0000 00
    000154  9a   777624 0000 46         mlsys_mailbox_mgr_|open_mailbox
    000155  5a   002164 0000 00
    000156  9a   777622 0000 46         mlsys_mailbox_mgr_|read_message
    000157  5a   002163 0000 00
    000160  9a   777620 0000 46         mlsys_mailbox_mgr_|read_message_canonical_form
    000161  5a   002162 0000 00
    000162  9a   777616 0000 46         mlsys_mailbox_mgr_|read_message_canonical_form_p
    000163  5a   002161 0000 00
    000164  9a   777614 0000 46         mlsys_mailbox_mgr_|read_new_messages
    000165  5a   002160 0000 00
    000166  9a   777612 0000 46         mlsys_transmit_|redistribute_message
    000167  5a   002157 0000 00
    000170  9a   777610 0000 46         mlsys_address_list_mgr_|replace_address_writeable
    000171  5a   002156 0000 00
    000172  9a   777606 0000 46         mlsys_message_mgr_|replace_bcc_new
    000173  5a   002155 0000 00
    000174  9a   777604 0000 46         mlsys_message_mgr_|replace_body_new
    000175  5a   002154 0000 00
    000176  9a   777602 0000 46         mlsys_message_mgr_|replace_body_section_new
    000177  5a   002153 0000 00
    000200  9a   777600 0000 46         mlsys_message_mgr_|replace_cc_new
    000201  5a   002152 0000 00
    000202  9a   777576 0000 46         mlsys_message_mgr_|replace_from_new
    000203  5a   002151 0000 00
    000204  9a   777574 0000 46         mlsys_message_mgr_|replace_reply_reference_new
    000205  5a   002150 0000 00
    000206  9a   777572 0000 46         mlsys_message_mgr_|replace_reply_to_new
    000207  5a   002147 0000 00
    000210  9a   777570 0000 46         mlsys_message_mgr_|replace_subject_new
    000211  5a   002146 0000 00
    000212  9a   777566 0000 46         mlsys_message_mgr_|replace_to_new
    000213  5a   002145 0000 00
    000214  9a   777564 0000 46         mlsys_message_mgr_|replace_user_field_new
    000215  5a   002144 0000 00
    000216  9a   777562 0000 46         mlsys_transmit_|save_message
    000217  5a   002143 0000 00
    000220  9a   777560 0000 46         mlsys_message_mgr_|set_access_class_new
    000221  5a   002142 0000 00
    000222  9a   777556 0000 46         mlsys_mailbox_mgr_|set_message_switch
    000223  5a   002141 0000 00
    000224  9a   777554 0000 46         mlsys_address_mgr_|set_users_full_name
    000225  5a   002140 0000 00
    000226  9a   777552 0000 46         mlsys_mailbox_mgr_|unmark_message_for_deletion
    000227  5a   002137 0000 00
    000230  9a   777550 0000 46         mlsys_transmit_|validate_address
    000231  5a   002136 0000 00
SYMBOL INFORMATION

SYMBOL TABLE HEADER

    000000  aa   000000 000001
    000001  aa   163171 155142
    000002  aa   164162 145145
    000003  aa   000000 000004
    000004  aa   000000 112143
    000005  aa   305203 523135
    000006  aa   000000 114453
    000007  aa   674200 554174
    000010  aa   141154 155040
    000011  aa   040040 040040
    000012  aa   000024 000040
    000013  aa   000034 000040
    000014  aa   000044 000100
    000015  aa   000002 000002
    000016  aa   000064 000000
    000017  aa   000000 000172
    000020  aa   000000 000105
    000021  aa   000000 000130
    000022  aa   000164 000105
    000023  aa   000064 000000
    000024  aa   101114 115040
    000025  aa   126145 162163
    000026  aa   151157 156040
    000027  aa   040066 056066
    000030  aa   040040 116157
    000031  aa   166145 155142
    000032  aa   145162 040061
    000033  aa   071070 062040
    000034  aa   107112 157150
    000035  aa   156163 157156
    000036  aa   056123 171163
    000037  aa   115141 151156
    000040  aa   164056 141040
    000041  aa   040040 040040
    000042  aa   040040 040040
    000043  aa   040040 040040
    000044  aa   055164 141162
    000045  aa   147145 164040
    000046  aa   114145 166145
    000047  aa   154066 070040
    000050  aa   154151 163164
    000051  aa   040040 040040
    000052  aa   040040 040040
    000053  aa   040040 040040
    000054  aa   040040 040040
    000055  aa   040040 040040
    000056  aa   040040 040040
    000057  aa   040040 040040
    000060  aa   040040 040040
    000061  aa   040040 040040
    000062  aa   040040 040040
    000063  aa   040040 040040
    000064  aa   000000 000001
    000065  aa   000000 000001
    000066  aa   000072 000051
    000067  aa   144447 410120
    000070  aa   000000 114453
    000071  aa   670577 400000
    000072  aa   076163 160145          >spec>install>1059>mail_system_r2_tv_.alm
    000073  aa   143076 151156
    000074  aa   163164 141154
    000075  aa   154076 061060
    000076  aa   065071 076155
    000077  aa   141151 154137
    000100  aa   163171 163164
    000101  aa   145155 137162
    000102  aa   062137 164166
    000103  aa   137056 141154
    000104  aa   155040 040040
               MULTICS ASSEMBLY CROSS REFERENCE LISTING

   Value        Symbol                   Source file   Line number

           0    abort_delete_operation   mail_system_r2_tv_:        31.
           2    acknowledge_message      mail_system_r2_tv_:        32.
           4    add_address              mail_system_r2_tv_:        33.
                add_address_writeable    mail_system_r2_tv_:        33.
           6    add_body_section         mail_system_r2_tv_:        34.
                add_body_section_new     mail_system_r2_tv_:        34.
          10    add_reply_reference      mail_system_r2_tv_:        35.
                add_reply_reference_new  mail_system_r2_tv_:        35.
          12    add_user_field           mail_system_r2_tv_:        37.
                add_user_field_new       mail_system_r2_tv_:        37.
          14    close_mailbox            mail_system_r2_tv_:        38.
          16    compare_addresses        mail_system_r2_tv_:        39.
          20    copy_address_list        mail_system_r2_tv_:        40.
          22    copy_message             mail_system_r2_tv_:        41.
          24    create_address_list      mail_system_r2_tv_:        43.
          26    create_foreign_address   mail_system_r2_tv_:        44.
          30    create_forum_address     mail_system_r2_tv_:        45.
          32    create_invalid_address   mail_system_r2_tv_:        46.
          34    create_logbox_address    mail_system_r2_tv_:        47.
          40    create_mailbox_address   mail_system_r2_tv_:        50.
          42    create_mailing_list_address    mail_system_r2_tv_:        51.
          36    create_mail_table_address      mail_system_r2_tv_:        49.
          44    create_message           mail_system_r2_tv_:        52.
          46    create_named_group_address     mail_system_r2_tv_:        53.
                create_new_message       mail_system_r2_tv_:        52.
          50    create_savebox_address   mail_system_r2_tv_:        55.
          52    create_user_mailbox_address    mail_system_r2_tv_:        56.
                create_writeable_address_list  mail_system_r2_tv_:        43.
          54    decode_message_id        mail_system_r2_tv_:        57.
          56    delete_address           mail_system_r2_tv_:        58.
                delete_address_writeable       mail_system_r2_tv_:        58.
          60    delete_body_section      mail_system_r2_tv_:        59.
                delete_body_section_new  mail_system_r2_tv_:        59.
          62    delete_reply_reference   mail_system_r2_tv_:        61.
                delete_reply_reference_new     mail_system_r2_tv_:        61.
          64    delete_user_field        mail_system_r2_tv_:        62.
                delete_user_field_new    mail_system_r2_tv_:        62.
          66    deliver_message          mail_system_r2_tv_:        63.
          70    eliminate_duplicate_addresses  mail_system_r2_tv_:        64.
                eliminate_duplicate_addrs_write      mail_system_r2_tv_:        64.
          72    expand_list_address      mail_system_r2_tv_:        65.
          74    expunge_messages         mail_system_r2_tv_:        67.
          76    free_address             mail_system_r2_tv_:        68.
         100    free_address_list        mail_system_r2_tv_:        69.
                free_address_list_writeable    mail_system_r2_tv_:        69.
         102    free_message             mail_system_r2_tv_:        70.
                free_message_new         mail_system_r2_tv_:        70.
         104    get_address_comment      mail_system_r2_tv_:        71.
                get_address_explicit_route     mail_system_r2_tv_:        75.
         106    get_address_name         mail_system_r2_tv_:        73.
         110    get_address_pathname     mail_system_r2_tv_:        74.
         112    get_address_route        mail_system_r2_tv_:        75.
         114    get_address_string       mail_system_r2_tv_:        76.
         116    get_address_system       mail_system_r2_tv_:        77.
         120    get_address_type         mail_system_r2_tv_:        79.
         122    get_mail_table_address   mail_system_r2_tv_:        80.
         126    get_message_counts       mail_system_r2_tv_:        82.
         124    get_named_group_display_flag   mail_system_r2_tv_:        81.
         130    get_users_addresses      mail_system_r2_tv_:        83.
         132    get_user_field_id        mail_system_r2_tv_:        85.
         134    get_user_field_name      mail_system_r2_tv_:        86.
         136    log_message              mail_system_r2_tv_:        87.
         140    mark_message_for_deletion      mail_system_r2_tv_:        88.
         142    merge_address_lists      mail_system_r2_tv_:        89.
                merge_address_lists_writeable  mail_system_r2_tv_:        89.
                mlsys_address_list_mgr_  mail_system_r2_tv_:        33,   40,   43,   58,   69,   89,   98.
                mlsys_address_mgr_       mail_system_r2_tv_:        39,   44,   45,   46,   47,   49,   50,   51,   53,   55,
                                                                    56,   65,   68,   71,   73,   74,   75,   76,   77,   79,
                                                                    80,   81,   83,  114.
                mlsys_field_id_mgr_      mail_system_r2_tv_:        85,   86.
                mlsys_mailbox_mgr_       mail_system_r2_tv_:        31,   32,   38,   67,   82,   88,   91,   92,   93,   94,
                                                                    95,  113,  116.
                mlsys_message_id_mgr_    mail_system_r2_tv_:        57.
                mlsys_message_mgr_       mail_system_r2_tv_:        34,   35,   37,   52,   59,   61,   62,   70,   99,  100,
                                                                   101,  103,  104,  105,  106,  107,  109,  110,  112.
                mlsys_transmit_          mail_system_r2_tv_:        41,   63,   64,   87,   97,  111,  117.
         144    open_mailbox             mail_system_r2_tv_:        91.
         146    read_message             mail_system_r2_tv_:        92.
         150    read_message_canonical_form    mail_system_r2_tv_:        93.
         152    read_message_canonical_form_p  mail_system_r2_tv_:        94.
         154    read_new_messages        mail_system_r2_tv_:        95.
         156    redistribute_message     mail_system_r2_tv_:        97.
         160    replace_address          mail_system_r2_tv_:        98.
                replace_address_writeable      mail_system_r2_tv_:        98.
         162    replace_bcc              mail_system_r2_tv_:        99.
                replace_bcc_new          mail_system_r2_tv_:        99.
         164    replace_body             mail_system_r2_tv_:       100.
                replace_body_new         mail_system_r2_tv_:       100.
         166    replace_body_section     mail_system_r2_tv_:       101.
                replace_body_section_new       mail_system_r2_tv_:       101.
         170    replace_cc               mail_system_r2_tv_:       103.
                replace_cc_new           mail_system_r2_tv_:       103.
         172    replace_from             mail_system_r2_tv_:       104.
                replace_from_new         mail_system_r2_tv_:       104.
         174    replace_reply_reference  mail_system_r2_tv_:       105.
                replace_reply_reference_new    mail_system_r2_tv_:       105.
         176    replace_reply_to         mail_system_r2_tv_:       106.
                replace_reply_to_new     mail_system_r2_tv_:       106.
         200    replace_subject          mail_system_r2_tv_:       107.
                replace_subject_new      mail_system_r2_tv_:       107.
         202    replace_to               mail_system_r2_tv_:       109.
                replace_to_new           mail_system_r2_tv_:       109.
         204    replace_user_field       mail_system_r2_tv_:       110.
                replace_user_field_new   mail_system_r2_tv_:       110.
         206    save_message             mail_system_r2_tv_:       111.
         210    set_access_class         mail_system_r2_tv_:       112.
                set_access_class_new     mail_system_r2_tv_:       112.
         212    set_message_switch       mail_system_r2_tv_:       113.
         214    set_users_full_name      mail_system_r2_tv_:       114.
         216    unmark_message_for_deletion    mail_system_r2_tv_:       116.
         220    validate_address         mail_system_r2_tv_:       117.


NO FATAL ERRORS


                                          -----------------------------------------------------------


Historical Background

This edition of the Multics software materials and documentation is provided and donated
to Massachusetts Institute of Technology by Group BULL including BULL HN Information Systems Inc.
as a contribution to computer science knowledge.
This donation is made also to give evidence of the common contributions of Massachusetts Institute of Technology,
Bell Laboratories, General Electric, Honeywell Information Systems Inc., Honeywell BULL Inc., Groupe BULL
and BULL HN Information Systems Inc. to the development of this operating system.
Multics development was initiated by Massachusetts Institute of Technology Project MAC (1963-1970),
renamed the MIT Laboratory for Computer Science and Artificial Intelligence in the mid 1970s, under the leadership
of Professor Fernando Jose Corbato. Users consider that Multics provided the best software architecture
for managing computer hardware properly and for executing programs. Many subsequent operating systems
incorporated Multics principles.
Multics was distributed in 1975 to 2000 by Group Bull in Europe , and in the U.S. by Bull HN Information Systems Inc.,
as successor in interest by change in name only to Honeywell Bull Inc. and Honeywell Information Systems Inc. .

                                          -----------------------------------------------------------

Permission to use, copy, modify, and distribute these programs and their documentation for any purpose and without
fee is hereby granted,provided that the below copyright notice and historical background appear in all copies
and that both the copyright notice and historical background and this permission notice appear in supporting
documentation, and that the names of MIT, HIS, BULL or BULL HN not be used in advertising or publicity pertaining
to distribution of the programs without specific prior written permission.
    Copyright 1972 by Massachusetts Institute of Technology and Honeywell Information Systems Inc.
    Copyright 2006 by BULL HN Information Systems Inc.
    Copyright 2006 by Bull SAS
    All Rights Reserved
