ASSEMBLY LISTING OF SEGMENT >special_ldd>install>MR12.0-1187>mdbm_util_.alm
ASSEMBLED ON:	10/16/86  1333.8 mst Thu
OPTIONS USED:	-target Level68 list
ASSEMBLED BY:	ALM Version  6.7  October 1986
ASSEMBLER CREATED:	10/08/86  1557.5 mst Wed

                                     1  " ***********************************************************
                                     2  " *                                                         *
                                     3  " * Copyright, (C) Honeywell Information Systems Inc., 1981 *
                                     4  " *                                                         *
                                     5  " * Copyright (c) 1972 by Massachusetts Institute of        *
                                     6  " * Technology and Honeywell Information Systems, Inc.      *
                                     7  " *                                                         *
                                     8  " ***********************************************************
                                     9
                                    10  " HISTORY COMMENTS:
                                    11  "  1) change(86-06-13,Dupuis), approve(86-08-05,MCR7491),
                                    12  "     audit(86-08-08,Blair), install(86-08-15,MR12.0-1127):
                                    13  "     Made available so that an unbound version of mrds could be created
                                    14  "     easily. (phx20405, mrds #157)
                                    15  "  2) change(86-09-02,Spitzer), approve(86-09-02,MCR7311),
                                    16  "     audit(86-09-02,Blair), install(86-10-16,MR12.0-1187):
                                    17  "     add mu_db_xref, more mu_temp_segments entries.
                                    18  "                                                      END HISTORY COMMENTS
                                    19
                                    20  "
                                    21  "
                                    22  "NOTES:
                                    23  "
                                    24  "This is the transfer vector for the unbound version of
                                    25  "mdbm_util_.
                                    26  "
                                    27  "
                                    28  "HISTORY:
                                    29  "
                                    30  "Initially written by JA Weeldreyer -- September, 1978.
                                    31  "Modified by Jim Gray - - March 1980, to expand utility
                                    32  "level interface to include 14 more modules dealing
                                    33  "with primitives not specific to MRDS or MIDS.
                                    34  "Modified by Jim Gray - - 80-9-18, to add $get_data_pad_length entry to mu_data_length
                                    35  "to enable mu_build_tuple to throw out padding bits that main contain garbage in aligned data types
                                    36  "Modified by Jim Gray 80-10-20, to add all entries in mu_temp_segments as
                                    37  "part of fix for managing space for tid arrays in the searching process.
                                    38  "
                                    39  "80-12-09 Jim Gray : removed init_dbc entry, and replaced with 4 entries
                                    40  "in the new module mu_concurrency_control as part of r-u to r-s-m-d
                                    41  "scope mode change.
                                    42  "
                                    43  "81-02-06 Jim Gray : added entries for mu_open_name_manager of
                                    44  "define_open_name, delete_open_name, get_model_pointer, display_open_names
                                    45  "list_all_open_names, delete_all_open_names
                                    46  "
                                    47  "81-04-03 Jim Gray : added get_relation_acl entry
                                    48  "
                                    49  "
                                    50  "81-05-27 Jim Gray : removed all entries not used by LINUS,
                                    51  "or by any mrds_rst_.. module or CMDB, as part of putting mrds
                                    52  "in one bound segment, plus a bound segment for CMDB.
                                    53  "
                                    54  "82-07-01 Roger Lackey : added entry for mrds_dm_get_authorization
                                    55  "get_user_class
                                    56  "		     added mu_db_inconsistent entries
                                    57  "  get_info, set and reset
                                    58  "
                                    59  "82-07-02 Roger Lackey: added mrds_dm_display and rmdb_rq_dmdm
                                    60  "
                                    61  "82-07-06 Roger Lackey: added mu_data_length|mu_data_length for binding
                                    62  "
                                    63  "82-07-06 Roger Lackey: added mu_define_area and mrds_dsl_translate
                                    64  "        mu_store$store_direct for binding
                                    65  "
                                    66  "82-07-06 R. Harvey: added scan_records_init and scan_records_next
                                    67  "
                                    68  "82-07-06 R. Harvey: added encd_attr and
                                    69  "
                                    70  "83-01-30 R. Harvey: added define_temp_dir_area
                                    71  "
                                    72  "83-02-14 R. Harvey: deleted encd_attr, scan_records_init and scan_records_next
    000000                          73  	name	mdbm_util_
                                    74
                        000000      75  	entry	align_data_item
    000000                          76  align_data_item:
    000000  4a  4 00010 7101 20     77  	tra	<mu_data_align>|[align_data_item]
                                    78
                        000001      79  	entry	binary_data_class
    000001                          80  binary_data_class:
    000001  4a  4 00012 7101 20     81  	tra	<mu_data_class>|[binary_data_class]
                                    82
                        000002      83  	entry	bit_data_class
    000002                          84  bit_data_class:
    000002  4a  4 00014 7101 20     85  	tra	<mu_data_class>|[bit_data_class]
                                    86
                        000003      87  	entry	character_data_class
    000003                          88  character_data_class:
    000003  4a  4 00016 7101 20     89  	tra	<mu_data_class>|[character_data_class]
                                    90
                        000004      91  	entry     cleanup_temp_dir
    000004                          92  cleanup_temp_dir:
    000004  4a  4 00020 7101 20     93  	tra	<mu_temp_segments>|[cleanup_temp_dir]
                                    94
                        000005      95  	entry	complex_data_class
    000005                          96  complex_data_class:
    000005  4a  4 00022 7101 20     97  	tra	<mu_data_class>|[complex_data_class]
                                    98
                        000006      99  	entry	create_control_segment
    000006                         100  create_control_segment:
    000006  4a  4 00024 7101 20    101  	tra	<mu_concurrency_control>|[create_control_segment]
                                   102
                        000007     103  	entry	define_temp_dir_area
    000007                         104  define_temp_dir_area:
    000007  4a  4 00026 7101 20    105  	tra	<mu_define_area>|[define_temp_dir_area]
                                   106
                        000010     107  	entry	delete_all_open_names
    000010                         108  delete_all_open_names:
    000010  4a  4 00030 7101 20    109  	tra	<mu_open_name_manager>|[delete_all_open_names]
                                   110
                        000011     111  	entry     delete_all_temp_segments
    000011                         112  delete_all_temp_segments:
    000011  4a  4 00032 7101 20    113  	tra     	<mu_temp_segments>|[delete_all_temp_segments]
                                   114
                        000012     115  	entry     delete_temp_segment
    000012                         116  delete_temp_segment:
    000012  4a  4 00034 7101 20    117  	tra     	<mu_temp_segments>|[delete_temp_segment]
                                   118
                        000013     119  	entry	display_descriptor
    000013                         120  display_descriptor:
    000013  4a  4 00036 7101 20    121  	tra	<mu_display_descriptor>|[display_descriptor]
                                   122
                        000014     123  	entry	display_open_names
    000014                         124  display_open_names:
    000014  4a  4 00040 7101 20    125  	tra	<mu_open_name_manager>|[display_open_names]
                                   126
                        000015     127  	entry	fixed_data_class
    000015                         128  fixed_data_class:
    000015  4a  4 00042 7101 20    129  	tra	<mu_data_class>|[fixed_data_class]
                                   130
                        000016     131  	entry	free_all_temp_segments
    000016                         132  free_all_temp_segments:
    000016  4a  4 00044 7101 20    133  	tra	<mu_temp_segments>|[free_all_temp_segments]
                                   134
                                   135
                        000017     136  	entry	free_temp_segment
    000017                         137  free_temp_segment:
    000017  4a  4 00046 7101 20    138  	tra	<mu_temp_segments>|[free_temp_segment]
                                   139
                        000020     140  	entry	free_temp_segments
    000020                         141  free_temp_segments:
    000020  4a  4 00050 7101 20    142  	tra	<mu_temp_segments>|[free_temp_segments]
                                   143
                        000021     144  	entry	get_data_bit_length
    000021                         145  get_data_bit_length:
    000021  4a  4 00052 7101 20    146  	tra	<mu_data_length>|[get_data_bit_length]
                                   147
                        000022     148  	entry	inconsistent_get_info
    000022                         149  inconsistent_get_info:
    000022  4a  4 00054 7101 20    150  	tra	<mu_db_inconsistent>|[inconsistent_get_info]
                                   151
                        000023     152  	entry	get_resultant_model_pointer
    000023                         153  get_resultant_model_pointer:
    000023  4a  4 00056 7101 20    154  	tra	<mu_database_index>|[get_resultant_model_pointer]
                                   155
                        000024     156  	entry	get_temp_segment
    000024                         157  get_temp_segment:
    000024  4a  4 00060 7101 20    158  	tra	<mu_temp_segments>|[get_temp_segment]
                                   159
                        000025     160  	entry	get_temp_segment_path
    000025                         161  get_temp_segment_path:
    000025  4a  4 00062 7101 20    162  	tra	<mu_temp_segments>|[get_temp_segment_path]
                                   163
                        000026     164  		entry	get_temp_segments
    000026                         165  get_temp_segments:
    000026  4a  4 00064 7101 20    166  	tra	<mu_temp_segments>|[get_temp_segments]
                                   167
                                   168
                        000027     169  	entry	get_temp_segments_path
    000027                         170  get_temp_segments_path:
    000027  4a  4 00066 7101 20    171  	tra	<mu_temp_segments>|[get_temp_segments_path]
                                   172
                        000030     173  	entry 	get_user_class
    000030                         174  get_user_class:
    000030  4a  4 00070 7101 20    175  	tra	<mrds_dm_authorization>|[get_user_class]
                                   176
                        000031     177  	entry	inconsistent_reset
    000031                         178  inconsistent_reset:
    000031  4a  4 00072 7101 20    179  	tra	<mu_db_inconsistent>|[inconsistent_reset]
                                   180
                        000032     181  	entry	inconsistent_set
    000032                         182  inconsistent_set:
    000032  4a  4 00074 7101 20    183  	tra	<mu_db_inconsistent>|[inconsistent_set]
                                   184
                        000033     185  	entry	list_segnos
    000033                         186  list_segnos:
    000033  4a  4 00076 7101 20    187  	tra	<mu_temp_segments>|[list_segnos]
                                   188
                        000034     189  	entry	list_temp_segments
    000034                         190  list_temp_segments:
    000034  4a  4 00100 7101 20    191  	tra	<mu_temp_segments>|[list_temp_segments]
                                   192
                        000035     193  	entry	mrds_dm_display
    000035                         194  mrds_dm_display:
    000035  4a  4 00102 7101 20    195  	tra	<mrds_dm_display>|[mrds_dm_display]
                                   196
                        000036     197  	entry	mrds_dsl_translate
    000036                         198  mrds_dsl_translate:
    000036  4a  4 00104 7101 20    199  	tra	<mrds_dsl_translate>|[mrds_dsl_translate]
                                   200
                        000037     201  	entry	mu_data_length
    000037                         202  mu_data_length:
    000037  4a  4 00106 7101 20    203  	tra	<mu_data_length>|[mu_data_length]
                                   204
                        000040     205  	entry	mu_define_area
    000040                         206  mu_define_area:
    000040  4a  4 00110 7101 20    207  	tra	<mu_define_area>|[mu_define_area]
                                   208
                        000041     209  	entry	mu_get_tuple
    000041                         210  mu_get_tuple:
    000041  4a  4 00112 7101 20    211  	tra	<mu_get_tuple>|[mu_get_tuple]
                                   212
                        000042     213  	entry	number_data_class
    000042                         214  number_data_class:
    000042  4a  4 00114 7101 20    215  	tra	<mu_data_class>|[number_data_class]
                                   216
                        000043     217  	entry	quiesce_free
    000043                         218  quiesce_free:
    000043  4a  4 00116 7101 20    219  	tra	<mu_quiesce>|[quiesce_free]
                                   220
                        000044     221  	entry	quiesce_quiet
    000044                         222  quiesce_quiet:
    000044  4a  4 00120 7101 20    223  	tra	<mu_quiesce>|[quiesce_quiet]
                                   224
                        000045     225  	entry	release_all_temp_segments
    000045                         226  release_all_temp_segments:
    000045  4a  4 00122 7101 20    227  	tra	<mu_temp_segments>|[release_all_temp_segments]
                                   228
                        000046     229  	entry	release_temp_segment
    000046                         230  release_temp_segment:
    000046  4a  4 00124 7101 20    231  	tra	<mu_temp_segments>|[release_temp_segment]
                                   232
                        000047     233  	entry	release_temp_segments
    000047                         234  release_temp_segments:
    000047  4a  4 00126 7101 20    235  	tra	<mu_temp_segments>|[release_temp_segments]
                                   236
                        000050     237  	entry	rmdb_rq_dmdm
    000050                         238  rmdb_rq_dmdm:
    000050  4a  4 00130 7101 20    239  	tra	<display_mrds_dm>|[rmdb_rq_dmdm]
                                   240
                        000051     241  	entry	string_data_class
    000051                         242  string_data_class:
    000051  4a  4 00132 7101 20    243  	tra	<mu_data_class>|[string_data_class]
                                   244
                        000052     245  	entry	store_direct
    000052                         246  store_direct:
    000052  4a  4 00134 7101 20    247  	tra	<mu_store>|[store_direct]
                                   248
                        000053     249  	entry	trim_descriptor
    000053                         250  trim_descriptor:
    000053  4a  4 00136 7101 20    251  	tra	<mu_trim_descriptor>|[trim_descriptor]
                                   252
                        000054     253  	entry	varying_data_class
    000054                         254  varying_data_class:
    000054  4a  4 00140 7101 20    255  	tra	<mu_data_class>|[varying_data_class]
                                   256
                        000055     257  	entry	xref_build
    000055                         258  xref_build:
    000055  4a  4 00142 7101 20    259  	tra 	<mu_db_xref>|[xref_build]
                                   260
                        000056     261  	entry 	xref_destroy
    000056                         262  xref_destroy:
    000056  4a  4 00144 7101 20    263  	tra	<mu_db_xref>|[xref_destroy]
                                   264
                        000057     265  	entry	xref_reference
    000057                         266  xref_reference:
    000057  4a  4 00146 7101 20    267  	tra 	<mu_db_xref>|[xref_reference]
                                   268
                        000060     269  	entry 	xref_dereference
    000060                         270  xref_dereference:
    000060  4a  4 00150 7101 20    271  	tra	<mu_db_xref>|[xref_dereference]
                                   272
                        000061     273  	entry	xref_create_record
    000061                         274  xref_create_record:
    000061  4a  4 00152 7101 20    275  	tra	<mu_db_xref>|[xref_create_record]
                                   276
                        000062     277  	entry	xref_delete_record
    000062                         278  xref_delete_record:
    000062  4a  4 00154 7101 20    279  	tra	<mu_db_xref>|[xref_delete_record]
                                   280
                        000063     281  	entry	xref_modify_record_name
    000063                         282  xref_modify_record_name:
    000063  4a  4 00156 7101 20    283  	tra	<mu_db_xref>|[xref_modify_record_name]
                                   284
                        000064     285  	entry	xref_modify_reference_name
    000064                         286  xref_modify_reference_name:
    000064  4a  4 00160 7101 20    287  	tra 	<mu_db_xref>|[xref_modify_reference_name]
                                   288
                        000065     289  	entry	xref_find_record
    000065                         290  xref_find_record:
    000065  4a  4 00162 7101 20    291  	tra 	<mu_db_xref>|[xref_find_record]
                                   292
                        000066     293  	entry	xref_statistics
    000066                         294  xref_statistics:
    000066  4a  4 00164 7101 20    295  	tra	<mu_db_xref>|[xref_statistics]
                                   296
                                   297  	end
ENTRY SEQUENCES

    000067  5a   000672 0000 00
    000070  aa  7 00046 2721 20
    000071  0a   000000 7100 00
    000072  5a   000662 0000 00
    000073  aa  7 00046 2721 20
    000074  0a   000001 7100 00
    000075  5a   000653 0000 00
    000076  aa  7 00046 2721 20
    000077  0a   000002 7100 00
    000100  5a   000642 0000 00
    000101  aa  7 00046 2721 20
    000102  0a   000003 7100 00
    000103  5a   000632 0000 00
    000104  aa  7 00046 2721 20
    000105  0a   000004 7100 00
    000106  5a   000622 0000 00
    000107  aa  7 00046 2721 20
    000110  0a   000005 7100 00
    000111  5a   000611 0000 00
    000112  aa  7 00046 2721 20
    000113  0a   000006 7100 00
    000114  5a   000600 0000 00
    000115  aa  7 00046 2721 20
    000116  0a   000007 7100 00
    000117  5a   000567 0000 00
    000120  aa  7 00046 2721 20
    000121  0a   000010 7100 00
    000122  5a   000555 0000 00
    000123  aa  7 00046 2721 20
    000124  0a   000011 7100 00
    000125  5a   000545 0000 00
    000126  aa  7 00046 2721 20
    000127  0a   000012 7100 00
    000130  5a   000535 0000 00
    000131  aa  7 00046 2721 20
    000132  0a   000013 7100 00
    000133  5a   000525 0000 00
    000134  aa  7 00046 2721 20
    000135  0a   000014 7100 00
    000136  5a   000515 0000 00
    000137  aa  7 00046 2721 20
    000140  0a   000015 7100 00
    000141  5a   000504 0000 00
    000142  aa  7 00046 2721 20
    000143  0a   000016 7100 00
    000144  5a   000474 0000 00
    000145  aa  7 00046 2721 20
    000146  0a   000017 7100 00
    000147  5a   000464 0000 00
    000150  aa  7 00046 2721 20
    000151  0a   000020 7100 00
    000152  5a   000454 0000 00
    000153  aa  7 00046 2721 20
    000154  0a   000021 7100 00
    000155  5a   000443 0000 00
    000156  aa  7 00046 2721 20
    000157  0a   000022 7100 00
    000160  5a   000431 0000 00
    000161  aa  7 00046 2721 20
    000162  0a   000023 7100 00
    000163  5a   000421 0000 00
    000164  aa  7 00046 2721 20
    000165  0a   000024 7100 00
    000166  5a   000410 0000 00
    000167  aa  7 00046 2721 20
    000170  0a   000025 7100 00
    000171  5a   000400 0000 00
    000172  aa  7 00046 2721 20
    000173  0a   000026 7100 00
    000174  5a   000367 0000 00
    000175  aa  7 00046 2721 20
    000176  0a   000027 7100 00
    000177  5a   000360 0000 00
    000200  aa  7 00046 2721 20
    000201  0a   000030 7100 00
    000202  5a   000350 0000 00
    000203  aa  7 00046 2721 20
    000204  0a   000031 7100 00
    000205  5a   000340 0000 00
    000206  aa  7 00046 2721 20
    000207  0a   000032 7100 00
    000210  5a   000332 0000 00
    000211  aa  7 00046 2721 20
    000212  0a   000033 7100 00
    000213  5a   000322 0000 00
    000214  aa  7 00046 2721 20
    000215  0a   000034 7100 00
    000216  5a   000313 0000 00
    000217  aa  7 00046 2721 20
    000220  0a   000035 7100 00
    000221  5a   000303 0000 00
    000222  aa  7 00046 2721 20
    000223  0a   000036 7100 00
    000224  5a   000274 0000 00
    000225  aa  7 00046 2721 20
    000226  0a   000037 7100 00
    000227  5a   000265 0000 00
    000230  aa  7 00046 2721 20
    000231  0a   000040 7100 00
    000232  5a   000256 0000 00
    000233  aa  7 00046 2721 20
    000234  0a   000041 7100 00
    000235  5a   000246 0000 00
    000236  aa  7 00046 2721 20
    000237  0a   000042 7100 00
    000240  5a   000237 0000 00
    000241  aa  7 00046 2721 20
    000242  0a   000043 7100 00
    000243  5a   000230 0000 00
    000244  aa  7 00046 2721 20
    000245  0a   000044 7100 00
    000246  5a   000216 0000 00
    000247  aa  7 00046 2721 20
    000250  0a   000045 7100 00
    000251  5a   000205 0000 00
    000252  aa  7 00046 2721 20
    000253  0a   000046 7100 00
    000254  5a   000174 0000 00
    000255  aa  7 00046 2721 20
    000256  0a   000047 7100 00
    000257  5a   000165 0000 00
    000260  aa  7 00046 2721 20
    000261  0a   000050 7100 00
    000262  5a   000155 0000 00
    000263  aa  7 00046 2721 20
    000264  0a   000051 7100 00
    000265  5a   000146 0000 00
    000266  aa  7 00046 2721 20
    000267  0a   000052 7100 00
    000270  5a   000137 0000 00
    000271  aa  7 00046 2721 20
    000272  0a   000053 7100 00
    000273  5a   000127 0000 00
    000274  aa  7 00046 2721 20
    000275  0a   000054 7100 00
    000276  5a   000121 0000 00
    000277  aa  7 00046 2721 20
    000300  0a   000055 7100 00
    000301  5a   000112 0000 00
    000302  aa  7 00046 2721 20
    000303  0a   000056 7100 00
    000304  5a   000103 0000 00
    000305  aa  7 00046 2721 20
    000306  0a   000057 7100 00
    000307  5a   000073 0000 00
    000310  aa  7 00046 2721 20
    000311  0a   000060 7100 00
    000312  5a   000063 0000 00
    000313  aa  7 00046 2721 20
    000314  0a   000061 7100 00
    000315  5a   000053 0000 00
    000316  aa  7 00046 2721 20
    000317  0a   000062 7100 00
    000320  5a   000042 0000 00
    000321  aa  7 00046 2721 20
    000322  0a   000063 7100 00
    000323  5a   000030 0000 00
    000324  aa  7 00046 2721 20
    000325  0a   000064 7100 00
    000326  5a   000020 0000 00
    000327  aa  7 00046 2721 20
    000330  0a   000065 7100 00
    000331  5a   000011 0000 00
    000332  aa  7 00046 2721 20
    000333  0a   000066 7100 00

NO LITERALS

NAME DEFINITIONS FOR ENTRY POINTS AND SEGDEFS

    000334  5a   000003 000000
    000335  5a   000710 600000
    000336  aa   000000 000000
    000337  55   000011 000002
    000340  5a   000002 400003
    000341  55   000006 000011
    000342  aa  012 155 144 142
    000343  aa  155 137 165 164
    000344  aa  151 154 137 000
    000345  55   000020 000003
    000346  0a   000332 500000
    000347  55   000014 000003
    000350  aa  017 170 162 145         xref_statistics
    000351  aa  146 137 163 164
    000352  aa  141 164 151 163
    000353  aa  164 151 143 163
    000354  55   000030 000011
    000355  0a   000327 500000
    000356  55   000023 000003
    000357  aa  020 170 162 145         xref_find_record
    000360  aa  146 137 146 151
    000361  aa  156 144 137 162
    000362  aa  145 143 157 162
    000363  aa  144 000 000 000
    000364  55   000042 000020
    000365  0a   000324 500000
    000366  55   000033 000003
    000367  aa  032 170 162 145         xref_modify_reference_name
    000370  aa  146 137 155 157
    000371  aa  144 151 146 171
    000372  aa  137 162 145 146
    000373  aa  145 162 145 156
    000374  aa  143 145 137 156
    000375  aa  141 155 145 000
    000376  55   000053 000030
    000377  0a   000321 500000
    000400  55   000045 000003
    000401  aa  027 170 162 145         xref_modify_record_name
    000402  aa  146 137 155 157
    000403  aa  144 151 146 171
    000404  aa  137 162 145 143
    000405  aa  157 162 144 137
    000406  aa  156 141 155 145
    000407  55   000063 000042
    000410  0a   000316 500000
    000411  55   000056 000003
    000412  aa  022 170 162 145         xref_delete_record
    000413  aa  146 137 144 145
    000414  aa  154 145 164 145
    000415  aa  137 162 145 143
    000416  aa  157 162 144 000
    000417  55   000073 000053
    000420  0a   000313 500000
    000421  55   000066 000003
    000422  aa  022 170 162 145         xref_create_record
    000423  aa  146 137 143 162
    000424  aa  145 141 164 145
    000425  aa  137 162 145 143
    000426  aa  157 162 144 000
    000427  55   000103 000063
    000430  0a   000310 500000
    000431  55   000076 000003
    000432  aa  020 170 162 145         xref_dereference
    000433  aa  146 137 144 145
    000434  aa  162 145 146 145
    000435  aa  162 145 156 143
    000436  aa  145 000 000 000
    000437  55   000112 000073
    000440  0a   000305 500000
    000441  55   000106 000003
    000442  aa  016 170 162 145         xref_reference
    000443  aa  146 137 162 145
    000444  aa  146 145 162 145
    000445  aa  156 143 145 000
    000446  55   000121 000103
    000447  0a   000302 500000
    000450  55   000115 000003
    000451  aa  014 170 162 145         xref_destroy
    000452  aa  146 137 144 145
    000453  aa  163 164 162 157
    000454  aa  171 000 000 000
    000455  55   000127 000112
    000456  0a   000277 500000
    000457  55   000124 000003
    000460  aa  012 170 162 145         xref_build
    000461  aa  146 137 142 165
    000462  aa  151 154 144 000
    000463  55   000137 000121
    000464  0a   000274 500000
    000465  55   000132 000003
    000466  aa  022 166 141 162         varying_data_class
    000467  aa  171 151 156 147
    000470  aa  137 144 141 164
    000471  aa  141 137 143 154
    000472  aa  141 163 163 000
    000473  55   000146 000127
    000474  0a   000271 500000
    000475  55   000142 000003
    000476  aa  017 164 162 151         trim_descriptor
    000477  aa  155 137 144 145
    000500  aa  163 143 162 151
    000501  aa  160 164 157 162
    000502  55   000155 000137
    000503  0a   000266 500000
    000504  55   000151 000003
    000505  aa  014 163 164 157         store_direct
    000506  aa  162 145 137 144
    000507  aa  151 162 145 143
    000510  aa  164 000 000 000
    000511  55   000165 000146
    000512  0a   000263 500000
    000513  55   000160 000003
    000514  aa  021 163 164 162         string_data_class
    000515  aa  151 156 147 137
    000516  aa  144 141 164 141
    000517  aa  137 143 154 141
    000520  aa  163 163 000 000
    000521  55   000174 000155
    000522  0a   000260 500000
    000523  55   000170 000003
    000524  aa  014 162 155 144         rmdb_rq_dmdm
    000525  aa  142 137 162 161
    000526  aa  137 144 155 144
    000527  aa  155 000 000 000
    000530  55   000205 000165
    000531  0a   000255 500000
    000532  55   000177 000003
    000533  aa  025 162 145 154         release_temp_segments
    000534  aa  145 141 163 145
    000535  aa  137 164 145 155
    000536  aa  160 137 163 145
    000537  aa  147 155 145 156
    000540  aa  164 163 000 000
    000541  55   000216 000174
    000542  0a   000252 500000
    000543  55   000210 000003
    000544  aa  024 162 145 154         release_temp_segment
    000545  aa  145 141 163 145
    000546  aa  137 164 145 155
    000547  aa  160 137 163 145
    000550  aa  147 155 145 156
    000551  aa  164 000 000 000
    000552  55   000230 000205
    000553  0a   000247 500000
    000554  55   000221 000003
    000555  aa  031 162 145 154         release_all_temp_segments
    000556  aa  145 141 163 145
    000557  aa  137 141 154 154
    000560  aa  137 164 145 155
    000561  aa  160 137 163 145
    000562  aa  147 155 145 156
    000563  aa  164 163 000 000
    000564  55   000237 000216
    000565  0a   000244 500000
    000566  55   000233 000003
    000567  aa  015 161 165 151         quiesce_quiet
    000570  aa  145 163 143 145
    000571  aa  137 161 165 151
    000572  aa  145 164 000 000
    000573  55   000246 000230
    000574  0a   000241 500000
    000575  55   000242 000003
    000576  aa  014 161 165 151         quiesce_free
    000577  aa  145 163 143 145
    000600  aa  137 146 162 145
    000601  aa  145 000 000 000
    000602  55   000256 000237
    000603  0a   000236 500000
    000604  55   000251 000003
    000605  aa  021 156 165 155         number_data_class
    000606  aa  142 145 162 137
    000607  aa  144 141 164 141
    000610  aa  137 143 154 141
    000611  aa  163 163 000 000
    000612  55   000265 000246
    000613  0a   000233 500000
    000614  55   000261 000003
    000615  aa  014 155 165 137         mu_get_tuple
    000616  aa  147 145 164 137
    000617  aa  164 165 160 154
    000620  aa  145 000 000 000
    000621  55   000274 000256
    000622  0a   000230 500000
    000623  55   000270 000003
    000624  aa  016 155 165 137         mu_define_area
    000625  aa  144 145 146 151
    000626  aa  156 145 137 141
    000627  aa  162 145 141 000
    000630  55   000303 000265
    000631  0a   000225 500000
    000632  55   000277 000003
    000633  aa  016 155 165 137         mu_data_length
    000634  aa  144 141 164 141
    000635  aa  137 154 145 156
    000636  aa  147 164 150 000
    000637  55   000313 000274
    000640  0a   000222 500000
    000641  55   000306 000003
    000642  aa  022 155 162 144         mrds_dsl_translate
    000643  aa  163 137 144 163
    000644  aa  154 137 164 162
    000645  aa  141 156 163 154
    000646  aa  141 164 145 000
    000647  55   000322 000303
    000650  0a   000217 500000
    000651  55   000316 000003
    000652  aa  017 155 162 144         mrds_dm_display
    000653  aa  163 137 144 155
    000654  aa  137 144 151 163
    000655  aa  160 154 141 171
    000656  55   000332 000313
    000657  0a   000214 500000
    000660  55   000325 000003
    000661  aa  022 154 151 163         list_temp_segments
    000662  aa  164 137 164 145
    000663  aa  155 160 137 163
    000664  aa  145 147 155 145
    000665  aa  156 164 163 000
    000666  55   000340 000322
    000667  0a   000211 500000
    000670  55   000335 000003
    000671  aa  013 154 151 163         list_segnos
    000672  aa  164 137 163 145
    000673  aa  147 156 157 163
    000674  55   000350 000332
    000675  0a   000206 500000
    000676  55   000343 000003
    000677  aa  020 151 156 143         inconsistent_set
    000700  aa  157 156 163 151
    000701  aa  163 164 145 156
    000702  aa  164 137 163 145
    000703  aa  164 000 000 000
    000704  55   000360 000340
    000705  0a   000203 500000
    000706  55   000353 000003
    000707  aa  022 151 156 143         inconsistent_reset
    000710  aa  157 156 163 151
    000711  aa  163 164 145 156
    000712  aa  164 137 162 145
    000713  aa  163 145 164 000
    000714  55   000367 000350
    000715  0a   000200 500000
    000716  55   000363 000003
    000717  aa  016 147 145 164         get_user_class
    000720  aa  137 165 163 145
    000721  aa  162 137 143 154
    000722  aa  141 163 163 000
    000723  55   000400 000360
    000724  0a   000175 500000
    000725  55   000372 000003
    000726  aa  026 147 145 164         get_temp_segments_path
    000727  aa  137 164 145 155
    000730  aa  160 137 163 145
    000731  aa  147 155 145 156
    000732  aa  164 163 137 160
    000733  aa  141 164 150 000
    000734  55   000410 000367
    000735  0a   000172 500000
    000736  55   000403 000003
    000737  aa  021 147 145 164         get_temp_segments
    000740  aa  137 164 145 155
    000741  aa  160 137 163 145
    000742  aa  147 155 145 156
    000743  aa  164 163 000 000
    000744  55   000421 000400
    000745  0a   000167 500000
    000746  55   000413 000003
    000747  aa  025 147 145 164         get_temp_segment_path
    000750  aa  137 164 145 155
    000751  aa  160 137 163 145
    000752  aa  147 155 145 156
    000753  aa  164 137 160 141
    000754  aa  164 150 000 000
    000755  55   000431 000410
    000756  0a   000164 500000
    000757  55   000424 000003
    000760  aa  020 147 145 164         get_temp_segment
    000761  aa  137 164 145 155
    000762  aa  160 137 163 145
    000763  aa  147 155 145 156
    000764  aa  164 000 000 000
    000765  55   000443 000421
    000766  0a   000161 500000
    000767  55   000434 000003
    000770  aa  033 147 145 164         get_resultant_model_pointer
    000771  aa  137 162 145 163
    000772  aa  165 154 164 141
    000773  aa  156 164 137 155
    000774  aa  157 144 145 154
    000775  aa  137 160 157 151
    000776  aa  156 164 145 162
    000777  55   000454 000431
    001000  0a   000156 500000
    001001  55   000446 000003
    001002  aa  025 151 156 143         inconsistent_get_info
    001003  aa  157 156 163 151
    001004  aa  163 164 145 156
    001005  aa  164 137 147 145
    001006  aa  164 137 151 156
    001007  aa  146 157 000 000
    001010  55   000464 000443
    001011  0a   000153 500000
    001012  55   000457 000003
    001013  aa  023 147 145 164         get_data_bit_length
    001014  aa  137 144 141 164
    001015  aa  141 137 142 151
    001016  aa  164 137 154 145
    001017  aa  156 147 164 150
    001020  55   000474 000454
    001021  0a   000150 500000
    001022  55   000467 000003
    001023  aa  022 146 162 145         free_temp_segments
    001024  aa  145 137 164 145
    001025  aa  155 160 137 163
    001026  aa  145 147 155 145
    001027  aa  156 164 163 000
    001030  55   000504 000464
    001031  0a   000145 500000
    001032  55   000477 000003
    001033  aa  021 146 162 145         free_temp_segment
    001034  aa  145 137 164 145
    001035  aa  155 160 137 163
    001036  aa  145 147 155 145
    001037  aa  156 164 000 000
    001040  55   000515 000474
    001041  0a   000142 500000
    001042  55   000507 000003
    001043  aa  026 146 162 145         free_all_temp_segments
    001044  aa  145 137 141 154
    001045  aa  154 137 164 145
    001046  aa  155 160 137 163
    001047  aa  145 147 155 145
    001050  aa  156 164 163 000
    001051  55   000525 000504
    001052  0a   000137 500000
    001053  55   000520 000003
    001054  aa  020 146 151 170         fixed_data_class
    001055  aa  145 144 137 144
    001056  aa  141 164 141 137
    001057  aa  143 154 141 163
    001060  aa  163 000 000 000
    001061  55   000535 000515
    001062  0a   000134 500000
    001063  55   000530 000003
    001064  aa  022 144 151 163         display_open_names
    001065  aa  160 154 141 171
    001066  aa  137 157 160 145
    001067  aa  156 137 156 141
    001070  aa  155 145 163 000
    001071  55   000545 000525
    001072  0a   000131 500000
    001073  55   000540 000003
    001074  aa  022 144 151 163         display_descriptor
    001075  aa  160 154 141 171
    001076  aa  137 144 145 163
    001077  aa  143 162 151 160
    001100  aa  164 157 162 000
    001101  55   000555 000535
    001102  0a   000126 500000
    001103  55   000550 000003
    001104  aa  023 144 145 154         delete_temp_segment
    001105  aa  145 164 145 137
    001106  aa  164 145 155 160
    001107  aa  137 163 145 147
    001110  aa  155 145 156 164
    001111  55   000567 000545
    001112  0a   000123 500000
    001113  55   000560 000003
    001114  aa  030 144 145 154         delete_all_temp_segments
    001115  aa  145 164 145 137
    001116  aa  141 154 154 137
    001117  aa  164 145 155 160
    001120  aa  137 163 145 147
    001121  aa  155 145 156 164
    001122  aa  163 000 000 000
    001123  55   000600 000555
    001124  0a   000120 500000
    001125  55   000572 000003
    001126  aa  025 144 145 154         delete_all_open_names
    001127  aa  145 164 145 137
    001130  aa  141 154 154 137
    001131  aa  157 160 145 156
    001132  aa  137 156 141 155
    001133  aa  145 163 000 000
    001134  55   000611 000567
    001135  0a   000115 500000
    001136  55   000603 000003
    001137  aa  024 144 145 146         define_temp_dir_area
    001140  aa  151 156 145 137
    001141  aa  164 145 155 160
    001142  aa  137 144 151 162
    001143  aa  137 141 162 145
    001144  aa  141 000 000 000
    001145  55   000622 000600
    001146  0a   000112 500000
    001147  55   000614 000003
    001150  aa  026 143 162 145         create_control_segment
    001151  aa  141 164 145 137
    001152  aa  143 157 156 164
    001153  aa  162 157 154 137
    001154  aa  163 145 147 155
    001155  aa  145 156 164 000
    001156  55   000632 000611
    001157  0a   000107 500000
    001160  55   000625 000003
    001161  aa  022 143 157 155         complex_data_class
    001162  aa  160 154 145 170
    001163  aa  137 144 141 164
    001164  aa  141 137 143 154
    001165  aa  141 163 163 000
    001166  55   000642 000622
    001167  0a   000104 500000
    001170  55   000635 000003
    001171  aa  020 143 154 145         cleanup_temp_dir
    001172  aa  141 156 165 160
    001173  aa  137 164 145 155
    001174  aa  160 137 144 151
    001175  aa  162 000 000 000
    001176  55   000653 000632
    001177  0a   000101 500000
    001200  55   000645 000003
    001201  aa  024 143 150 141         character_data_class
    001202  aa  162 141 143 164
    001203  aa  145 162 137 144
    001204  aa  141 164 141 137
    001205  aa  143 154 141 163
    001206  aa  163 000 000 000
    001207  55   000662 000642
    001210  0a   000076 500000
    001211  55   000656 000003
    001212  aa  016 142 151 164         bit_data_class
    001213  aa  137 144 141 164
    001214  aa  141 137 143 154
    001215  aa  141 163 163 000
    001216  55   000672 000653
    001217  0a   000073 500000
    001220  55   000665 000003
    001221  aa  021 142 151 156         binary_data_class
    001222  aa  141 162 171 137
    001223  aa  144 141 164 141
    001224  aa  137 143 154 141
    001225  aa  163 163 000 000
    001226  55   000701 000662
    001227  0a   000070 500000
    001230  55   000675 000003
    001231  aa  017 141 154 151         align_data_item
    001232  aa  147 156 137 144
    001233  aa  141 164 141 137
    001234  aa  151 164 145 155
    001235  55   000002 000672
    001236  6a   000000 400002
    001237  55   000704 000003
    001240  aa  014 163 171 155         symbol_table
    001241  aa  142 157 154 137
    001242  aa  164 141 142 154
    001243  aa  145 000 000 000

DEFINITIONS HASH TABLE

    001244  aa   000000 000131
    001245  aa   000000 000000
    001246  5a   000053 000000
    001247  5a   000063 000000
    001250  5a   000410 000000
    001251  5a   000701 000000
    001252  aa   000000 000000
    001253  aa   000000 000000
    001254  aa   000000 000000
    001255  5a   000237 000000
    001256  5a   000313 000000
    001257  5a   000155 000000
    001260  5a   000464 000000
    001261  5a   000121 000000
    001262  5a   000322 000000
    001263  aa   000000 000000
    001264  aa   000000 000000
    001265  5a   000303 000000
    001266  5a   000216 000000
    001267  5a   000431 000000
    001270  5a   000600 000000
    001271  5a   000137 000000
    001272  5a   000256 000000
    001273  5a   000421 000000
    001274  5a   000611 000000
    001275  aa   000000 000000
    001276  5a   000146 000000
    001277  5a   000020 000000
    001300  5a   000073 000000
    001301  5a   000454 000000
    001302  5a   000653 000000
    001303  5a   000662 000000
    001304  aa   000000 000000
    001305  aa   000000 000000
    001306  aa   000000 000000
    001307  5a   000367 000000
    001310  5a   000205 000000
    001311  5a   000350 000000
    001312  5a   000672 000000
    001313  aa   000000 000000
    001314  aa   000000 000000
    001315  5a   000165 000000
    001316  5a   000230 000000
    001317  aa   000000 000000
    001320  5a   000127 000000
    001321  5a   000443 000000
    001322  5a   000360 000000
    001323  aa   000000 000000
    001324  aa   000000 000000
    001325  aa   000000 000000
    001326  aa   000000 000000
    001327  5a   000504 000000
    001330  5a   000103 000000
    001331  5a   000400 000000
    001332  5a   000632 000000
    001333  aa   000000 000000
    001334  5a   000246 000000
    001335  5a   000332 000000
    001336  5a   000525 000000
    001337  5a   000535 000000
    001340  5a   000567 000000
    001341  5a   000622 000000
    001342  5a   000340 000000
    001343  5a   000555 000000
    001344  aa   000000 000000
    001345  aa   000000 000000
    001346  aa   000000 000000
    001347  aa   000000 000000
    001350  5a   000174 000000
    001351  5a   000474 000000
    001352  aa   000000 000000
    001353  aa   000000 000000
    001354  aa   000000 000000
    001355  5a   000042 000000
    001356  aa   000000 000000
    001357  aa   000000 000000
    001360  5a   000515 000000
    001361  5a   000112 000000
    001362  aa   000000 000000
    001363  aa   000000 000000
    001364  5a   000030 000000
    001365  5a   000545 000000
    001366  aa   000000 000000
    001367  aa   000000 000000
    001370  5a   000011 000000
    001371  5a   000265 000000
    001372  5a   000274 000000
    001373  5a   000642 000000
    001374  aa   000000 000000
    001375  aa   000000 000000

EXTERNAL NAMES

    001376  aa  012 155 165 137         mu_db_xref
    001377  aa  144 142 137 170
    001400  aa  162 145 146 000
    001401  aa  022 155 165 137         mu_trim_descriptor
    001402  aa  164 162 151 155
    001403  aa  137 144 145 163
    001404  aa  143 162 151 160
    001405  aa  164 157 162 000
    001406  aa  010 155 165 137         mu_store
    001407  aa  163 164 157 162
    001410  aa  145 000 000 000
    001411  aa  017 144 151 163         display_mrds_dm
    001412  aa  160 154 141 171
    001413  aa  137 155 162 144
    001414  aa  163 137 144 155
    001415  aa  012 155 165 137         mu_quiesce
    001416  aa  161 165 151 145
    001417  aa  163 143 145 000
    001420  aa  025 155 162 144         mrds_dm_authorization
    001421  aa  163 137 144 155
    001422  aa  137 141 165 164
    001423  aa  150 157 162 151
    001424  aa  172 141 164 151
    001425  aa  157 156 000 000
    001426  aa  021 155 165 137         mu_database_index
    001427  aa  144 141 164 141
    001430  aa  142 141 163 145
    001431  aa  137 151 156 144
    001432  aa  145 170 000 000
    001433  aa  022 155 165 137         mu_db_inconsistent
    001434  aa  144 142 137 151
    001435  aa  156 143 157 156
    001436  aa  163 151 163 164
    001437  aa  145 156 164 000
    001440  aa  025 155 165 137         mu_display_descriptor
    001441  aa  144 151 163 160
    001442  aa  154 141 171 137
    001443  aa  144 145 163 143
    001444  aa  162 151 160 164
    001445  aa  157 162 000 000
    001446  aa  024 155 165 137         mu_open_name_manager
    001447  aa  157 160 145 156
    001450  aa  137 156 141 155
    001451  aa  145 137 155 141
    001452  aa  156 141 147 145
    001453  aa  162 000 000 000
    001454  aa  026 155 165 137         mu_concurrency_control
    001455  aa  143 157 156 143
    001456  aa  165 162 162 145
    001457  aa  156 143 171 137
    001460  aa  143 157 156 164
    001461  aa  162 157 154 000
    001462  aa  020 155 165 137         mu_temp_segments
    001463  aa  164 145 155 160
    001464  aa  137 163 145 147
    001465  aa  155 145 156 164
    001466  aa  163 000 000 000
    001467  aa  015 155 165 137         mu_data_class
    001470  aa  144 141 164 141
    001471  aa  137 143 154 141
    001472  aa  163 163 000 000
    001473  aa  015 155 165 137         mu_data_align
    001474  aa  144 141 164 141
    001475  aa  137 141 154 151
    001476  aa  147 156 000 000

NO TRAP POINTER WORDS

TYPE PAIR BLOCKS

    001477  aa   000004 000000
    001500  55   001042 000014
    001501  aa   000004 000000
    001502  55   001042 000023
    001503  aa   000004 000000
    001504  55   001042 000033
    001505  aa   000004 000000
    001506  55   001042 000045
    001507  aa   000004 000000
    001510  55   001042 000056
    001511  aa   000004 000000
    001512  55   001042 000066
    001513  aa   000004 000000
    001514  55   001042 000076
    001515  aa   000004 000000
    001516  55   001042 000106
    001517  aa   000004 000000
    001520  55   001042 000115
    001521  aa   000004 000000
    001522  55   001042 000124
    001523  aa   000004 000000
    001524  55   001133 000132
    001525  aa   000004 000000
    001526  55   001045 000142
    001527  aa   000004 000000
    001530  55   001052 000151
    001531  aa   000004 000000
    001532  55   001133 000160
    001533  aa   000004 000000
    001534  55   001055 000170
    001535  aa   000004 000000
    001536  55   001126 000177
    001537  aa   000004 000000
    001540  55   001126 000210
    001541  aa   000004 000000
    001542  55   001126 000221
    001543  aa   000004 000000
    001544  55   001061 000233
    001545  aa   000004 000000
    001546  55   001061 000242
    001547  aa   000004 000000
    001550  55   001133 000251
    001551  aa   000004 000000
    001552  55   000261 000261
    001553  aa   000004 000000
    001554  55   000270 000270
    001555  aa   000004 000000
    001556  55   000277 000277
    001557  aa   000004 000000
    001560  55   000306 000306
    001561  aa   000004 000000
    001562  55   000316 000316
    001563  aa   000004 000000
    001564  55   001126 000325
    001565  aa   000004 000000
    001566  55   001126 000335
    001567  aa   000004 000000
    001570  55   001077 000343
    001571  aa   000004 000000
    001572  55   001077 000353
    001573  aa   000004 000000
    001574  55   001064 000363
    001575  aa   000004 000000
    001576  55   001126 000372
    001577  aa   000004 000000
    001600  55   001126 000403
    001601  aa   000004 000000
    001602  55   001126 000413
    001603  aa   000004 000000
    001604  55   001126 000424
    001605  aa   000004 000000
    001606  55   001072 000434
    001607  aa   000004 000000
    001610  55   001077 000446
    001611  aa   000004 000000
    001612  55   000277 000457
    001613  aa   000004 000000
    001614  55   001126 000467
    001615  aa   000004 000000
    001616  55   001126 000477
    001617  aa   000004 000000
    001620  55   001126 000507
    001621  aa   000004 000000
    001622  55   001133 000520
    001623  aa   000004 000000
    001624  55   001112 000530
    001625  aa   000004 000000
    001626  55   001104 000540
    001627  aa   000004 000000
    001630  55   001126 000550
    001631  aa   000004 000000
    001632  55   001126 000560
    001633  aa   000004 000000
    001634  55   001112 000572
    001635  aa   000004 000000
    001636  55   000270 000603
    001637  aa   000004 000000
    001640  55   001120 000614
    001641  aa   000004 000000
    001642  55   001133 000625
    001643  aa   000004 000000
    001644  55   001126 000635
    001645  aa   000004 000000
    001646  55   001133 000645
    001647  aa   000004 000000
    001650  55   001133 000656
    001651  aa   000004 000000
    001652  55   001133 000665
    001653  aa   000004 000000
    001654  55   001137 000675
    001655  aa   000001 000000
    001656  aa   000000 000000

INTERNAL EXPRESSION WORDS

    001657  5a   001143 000000
    001660  5a   001145 000000
    001661  5a   001147 000000
    001662  5a   001151 000000
    001663  5a   001153 000000
    001664  5a   001155 000000
    001665  5a   001157 000000
    001666  5a   001161 000000
    001667  5a   001163 000000
    001670  5a   001165 000000
    001671  5a   001167 000000
    001672  5a   001171 000000
    001673  5a   001173 000000
    001674  5a   001175 000000
    001675  5a   001177 000000
    001676  5a   001201 000000
    001677  5a   001203 000000
    001700  5a   001205 000000
    001701  5a   001207 000000
    001702  5a   001211 000000
    001703  5a   001213 000000
    001704  5a   001215 000000
    001705  5a   001217 000000
    001706  5a   001221 000000
    001707  5a   001223 000000
    001710  5a   001225 000000
    001711  5a   001227 000000
    001712  5a   001231 000000
    001713  5a   001233 000000
    001714  5a   001235 000000
    001715  5a   001237 000000
    001716  5a   001241 000000
    001717  5a   001243 000000
    001720  5a   001245 000000
    001721  5a   001247 000000
    001722  5a   001251 000000
    001723  5a   001253 000000
    001724  5a   001255 000000
    001725  5a   001257 000000
    001726  5a   001261 000000
    001727  5a   001263 000000
    001730  5a   001265 000000
    001731  5a   001267 000000
    001732  5a   001271 000000
    001733  5a   001273 000000
    001734  5a   001275 000000
    001735  5a   001277 000000
    001736  5a   001301 000000
    001737  5a   001303 000000
    001740  5a   001305 000000
    001741  5a   001307 000000
    001742  5a   001311 000000
    001743  5a   001313 000000
    001744  5a   001315 000000
    001745  5a   001317 000000
LINKAGE INFORMATION

    000000  aa   000000 000000
    000001  0a   000334 000000
    000002  aa   000000 000000
    000003  aa   000000 000000
    000004  aa   000000 000000
    000005  aa   000000 000000
    000006  22   000010 000166
    000007  a2   000000 000000
    000010  9a   777770 0000 46         mu_data_align|align_data_item
    000011  5a   001411 0000 00
    000012  9a   777766 0000 46         mu_data_class|binary_data_class
    000013  5a   001410 0000 00
    000014  9a   777764 0000 46         mu_data_class|bit_data_class
    000015  5a   001407 0000 00
    000016  9a   777762 0000 46         mu_data_class|character_data_class
    000017  5a   001406 0000 00
    000020  9a   777760 0000 46         mu_temp_segments|cleanup_temp_dir
    000021  5a   001405 0000 00
    000022  9a   777756 0000 46         mu_data_class|complex_data_class
    000023  5a   001404 0000 00
    000024  9a   777754 0000 46         mu_concurrency_control|create_control_segment
    000025  5a   001403 0000 00
    000026  9a   777752 0000 46         mu_define_area|define_temp_dir_area
    000027  5a   001402 0000 00
    000030  9a   777750 0000 46         mu_open_name_manager|delete_all_open_names
    000031  5a   001401 0000 00
    000032  9a   777746 0000 46         mu_temp_segments|delete_all_temp_segments
    000033  5a   001400 0000 00
    000034  9a   777744 0000 46         mu_temp_segments|delete_temp_segment
    000035  5a   001377 0000 00
    000036  9a   777742 0000 46         mu_display_descriptor|display_descriptor
    000037  5a   001376 0000 00
    000040  9a   777740 0000 46         mu_open_name_manager|display_open_names
    000041  5a   001375 0000 00
    000042  9a   777736 0000 46         mu_data_class|fixed_data_class
    000043  5a   001374 0000 00
    000044  9a   777734 0000 46         mu_temp_segments|free_all_temp_segments
    000045  5a   001373 0000 00
    000046  9a   777732 0000 46         mu_temp_segments|free_temp_segment
    000047  5a   001372 0000 00
    000050  9a   777730 0000 46         mu_temp_segments|free_temp_segments
    000051  5a   001371 0000 00
    000052  9a   777726 0000 46         mu_data_length|get_data_bit_length
    000053  5a   001370 0000 00
    000054  9a   777724 0000 46         mu_db_inconsistent|inconsistent_get_info
    000055  5a   001367 0000 00
    000056  9a   777722 0000 46         mu_database_index|get_resultant_model_pointer
    000057  5a   001366 0000 00
    000060  9a   777720 0000 46         mu_temp_segments|get_temp_segment
    000061  5a   001365 0000 00
    000062  9a   777716 0000 46         mu_temp_segments|get_temp_segment_path
    000063  5a   001364 0000 00
    000064  9a   777714 0000 46         mu_temp_segments|get_temp_segments
    000065  5a   001363 0000 00
    000066  9a   777712 0000 46         mu_temp_segments|get_temp_segments_path
    000067  5a   001362 0000 00
    000070  9a   777710 0000 46         mrds_dm_authorization|get_user_class
    000071  5a   001361 0000 00
    000072  9a   777706 0000 46         mu_db_inconsistent|inconsistent_reset
    000073  5a   001360 0000 00
    000074  9a   777704 0000 46         mu_db_inconsistent|inconsistent_set
    000075  5a   001357 0000 00
    000076  9a   777702 0000 46         mu_temp_segments|list_segnos
    000077  5a   001356 0000 00
    000100  9a   777700 0000 46         mu_temp_segments|list_temp_segments
    000101  5a   001355 0000 00
    000102  9a   777676 0000 46         mrds_dm_display|mrds_dm_display
    000103  5a   001354 0000 00
    000104  9a   777674 0000 46         mrds_dsl_translate|mrds_dsl_translate
    000105  5a   001353 0000 00
    000106  9a   777672 0000 46         mu_data_length|mu_data_length
    000107  5a   001352 0000 00
    000110  9a   777670 0000 46         mu_define_area|mu_define_area
    000111  5a   001351 0000 00
    000112  9a   777666 0000 46         mu_get_tuple|mu_get_tuple
    000113  5a   001350 0000 00
    000114  9a   777664 0000 46         mu_data_class|number_data_class
    000115  5a   001347 0000 00
    000116  9a   777662 0000 46         mu_quiesce|quiesce_free
    000117  5a   001346 0000 00
    000120  9a   777660 0000 46         mu_quiesce|quiesce_quiet
    000121  5a   001345 0000 00
    000122  9a   777656 0000 46         mu_temp_segments|release_all_temp_segments
    000123  5a   001344 0000 00
    000124  9a   777654 0000 46         mu_temp_segments|release_temp_segment
    000125  5a   001343 0000 00
    000126  9a   777652 0000 46         mu_temp_segments|release_temp_segments
    000127  5a   001342 0000 00
    000130  9a   777650 0000 46         display_mrds_dm|rmdb_rq_dmdm
    000131  5a   001341 0000 00
    000132  9a   777646 0000 46         mu_data_class|string_data_class
    000133  5a   001340 0000 00
    000134  9a   777644 0000 46         mu_store|store_direct
    000135  5a   001337 0000 00
    000136  9a   777642 0000 46         mu_trim_descriptor|trim_descriptor
    000137  5a   001336 0000 00
    000140  9a   777640 0000 46         mu_data_class|varying_data_class
    000141  5a   001335 0000 00
    000142  9a   777636 0000 46         mu_db_xref|xref_build
    000143  5a   001334 0000 00
    000144  9a   777634 0000 46         mu_db_xref|xref_destroy
    000145  5a   001333 0000 00
    000146  9a   777632 0000 46         mu_db_xref|xref_reference
    000147  5a   001332 0000 00
    000150  9a   777630 0000 46         mu_db_xref|xref_dereference
    000151  5a   001331 0000 00
    000152  9a   777626 0000 46         mu_db_xref|xref_create_record
    000153  5a   001330 0000 00
    000154  9a   777624 0000 46         mu_db_xref|xref_delete_record
    000155  5a   001327 0000 00
    000156  9a   777622 0000 46         mu_db_xref|xref_modify_record_name
    000157  5a   001326 0000 00
    000160  9a   777620 0000 46         mu_db_xref|xref_modify_reference_name
    000161  5a   001325 0000 00
    000162  9a   777616 0000 46         mu_db_xref|xref_find_record
    000163  5a   001324 0000 00
    000164  9a   777614 0000 46         mu_db_xref|xref_statistics
    000165  5a   001323 0000 00
SYMBOL INFORMATION

SYMBOL TABLE HEADER

    000000  aa   000000 000001
    000001  aa   163171 155142
    000002  aa   164162 145145
    000003  aa   000000 000004
    000004  aa   000000 114732
    000005  aa   732732 062314
    000006  aa   000000 114744
    000007  aa   670407 773353
    000010  aa   141154 155040
    000011  aa   040040 040040
    000012  aa   000024 000040
    000013  aa   000034 000040
    000014  aa   000044 000100
    000015  aa   000002 000002
    000016  aa   000064 000000
    000017  aa   000000 000203
    000020  aa   000000 000106
    000021  aa   000000 000147
    000022  aa   000175 000106
    000023  aa   000064 000000
    000024  aa   101114 115040
    000025  aa   126145 162163
    000026  aa   151157 156040
    000027  aa   040066 056067
    000030  aa   040040 117143
    000031  aa   164157 142145
    000032  aa   162040 061071
    000033  aa   070066 040040
    000034  aa   120145 162145
    000035  aa   172056 123171
    000036  aa   163115 141151
    000037  aa   156164 056141
    000040  aa   040040 040040
    000041  aa   040040 040040
    000042  aa   040040 040040
    000043  aa   040040 040040
    000044  aa   055164 141162
    000045  aa   147145 164040
    000046  aa   114145 166145
    000047  aa   154066 070040
    000050  aa   154151 163164
    000051  aa   040040 040040
    000052  aa   040040 040040
    000053  aa   040040 040040
    000054  aa   040040 040040
    000055  aa   040040 040040
    000056  aa   040040 040040
    000057  aa   040040 040040
    000060  aa   040040 040040
    000061  aa   040040 040040
    000062  aa   040040 040040
    000063  aa   040040 040040
    000064  aa   000000 000001
    000065  aa   000000 000001
    000066  aa   000072 000057
    000067  aa   147425 765111
    000070  aa   000000 114744
    000071  aa   606634 200000
    000072  aa   076163 160145          >special_ldd>install>MR12.0-1187>mdbm_util_.alm
    000073  aa   143151 141154
    000074  aa   137154 144144
    000075  aa   076151 156163
    000076  aa   164141 154154
    000077  aa   076115 122061
    000100  aa   062056 060055
    000101  aa   061061 070067
    000102  aa   076155 144142
    000103  aa   155137 165164
    000104  aa   151154 137056
    000105  aa   141154 155040
               MULTICS ASSEMBLY CROSS REFERENCE LISTING

   Value        Symbol                   Source file   Line number

           0    align_data_item          mdbm_util_:    75,   76,   77.
           1    binary_data_class        mdbm_util_:    79,   80,   81.
           2    bit_data_class           mdbm_util_:    83,   84,   85.
           3    character_data_class     mdbm_util_:    87,   88,   89.
           4    cleanup_temp_dir         mdbm_util_:    91,   92,   93.
           5    complex_data_class       mdbm_util_:    95,   96,   97.
           6    create_control_segment   mdbm_util_:    99,  100,  101.
           7    define_temp_dir_area     mdbm_util_:   103,  104,  105.
          10    delete_all_open_names    mdbm_util_:   107,  108,  109.
          11    delete_all_temp_segments       mdbm_util_:   111,  112,  113.
          12    delete_temp_segment      mdbm_util_:   115,  116,  117.
          13    display_descriptor       mdbm_util_:   119,  120,  121.
                display_mrds_dm          mdbm_util_:   239.
          14    display_open_names       mdbm_util_:   123,  124,  125.
          15    fixed_data_class         mdbm_util_:   127,  128,  129.
          16    free_all_temp_segments   mdbm_util_:   131,  132,  133.
          17    free_temp_segment        mdbm_util_:   136,  137,  138.
          20    free_temp_segments       mdbm_util_:   140,  141,  142.
          21    get_data_bit_length      mdbm_util_:   144,  145,  146.
          23    get_resultant_model_pointer    mdbm_util_:   152,  153,  154.
          24    get_temp_segment         mdbm_util_:   156,  157,  158.
          26    get_temp_segments        mdbm_util_:   164,  165,  166.
          27    get_temp_segments_path   mdbm_util_:   169,  170,  171.
          25    get_temp_segment_path    mdbm_util_:   160,  161,  162.
          30    get_user_class           mdbm_util_:   173,  174,  175.
          22    inconsistent_get_info    mdbm_util_:   148,  149,  150.
          31    inconsistent_reset       mdbm_util_:   177,  178,  179.
          32    inconsistent_set         mdbm_util_:   181,  182,  183.
          33    list_segnos              mdbm_util_:   185,  186,  187.
          34    list_temp_segments       mdbm_util_:   189,  190,  191.
                mrds_dm_authorization    mdbm_util_:   175.
          35    mrds_dm_display          mdbm_util_:   193,  194,  195.
          36    mrds_dsl_translate       mdbm_util_:   197,  198,  199.
                mu_concurrency_control   mdbm_util_:   101.
                mu_database_index        mdbm_util_:   154.
                mu_data_align            mdbm_util_:    77.
                mu_data_class            mdbm_util_:    81,   85,   89,   97,  129,  215,  243,  255.
          37    mu_data_length           mdbm_util_:   146,  201,  202,  203.
                mu_db_inconsistent       mdbm_util_:   150,  179,  183.
                mu_db_xref               mdbm_util_:   259,  263,  267,  271,  275,  279,  283,  287,  291,  295.
          40    mu_define_area           mdbm_util_:   105,  205,  206,  207.
                mu_display_descriptor    mdbm_util_:   121.
          41    mu_get_tuple             mdbm_util_:   209,  210,  211.
                mu_open_name_manager     mdbm_util_:   109,  125.
                mu_quiesce               mdbm_util_:   219,  223.
                mu_store                 mdbm_util_:   247.
                mu_temp_segments         mdbm_util_:    93,  113,  117,  133,  138,  142,  158,  162,  166,  171,  187,  191,
                                                       227,  231,  235.
                mu_trim_descriptor       mdbm_util_:   251.
          42    number_data_class        mdbm_util_:   213,  214,  215.
          43    quiesce_free             mdbm_util_:   217,  218,  219.
          44    quiesce_quiet            mdbm_util_:   221,  222,  223.
          45    release_all_temp_segments      mdbm_util_:   225,  226,  227.
          46    release_temp_segment     mdbm_util_:   229,  230,  231.
          47    release_temp_segments    mdbm_util_:   233,  234,  235.
          50    rmdb_rq_dmdm             mdbm_util_:   237,  238,  239.
          52    store_direct             mdbm_util_:   245,  246,  247.
          51    string_data_class        mdbm_util_:   241,  242,  243.
          53    trim_descriptor          mdbm_util_:   249,  250,  251.
          54    varying_data_class       mdbm_util_:   253,  254,  255.
          55    xref_build               mdbm_util_:   257,  258,  259.
          61    xref_create_record       mdbm_util_:   273,  274,  275.
          62    xref_delete_record       mdbm_util_:   277,  278,  279.
          60    xref_dereference         mdbm_util_:   269,  270,  271.
          56    xref_destroy             mdbm_util_:   261,  262,  263.
          65    xref_find_record         mdbm_util_:   289,  290,  291.
          63    xref_modify_record_name  mdbm_util_:   281,  282,  283.
          64    xref_modify_reference_name     mdbm_util_:   285,  286,  287.
          57    xref_reference           mdbm_util_:   265,  266,  267.
          66    xref_statistics          mdbm_util_:   293,  294,  295.


NO FATAL ERRORS


                                          -----------------------------------------------------------


Historical Background

This edition of the Multics software materials and documentation is provided and donated
to Massachusetts Institute of Technology by Group BULL including BULL HN Information Systems Inc.
as a contribution to computer science knowledge.
This donation is made also to give evidence of the common contributions of Massachusetts Institute of Technology,
Bell Laboratories, General Electric, Honeywell Information Systems Inc., Honeywell BULL Inc., Groupe BULL
and BULL HN Information Systems Inc. to the development of this operating system.
Multics development was initiated by Massachusetts Institute of Technology Project MAC (1963-1970),
renamed the MIT Laboratory for Computer Science and Artificial Intelligence in the mid 1970s, under the leadership
of Professor Fernando Jose Corbato. Users consider that Multics provided the best software architecture
for managing computer hardware properly and for executing programs. Many subsequent operating systems
incorporated Multics principles.
Multics was distributed in 1975 to 2000 by Group Bull in Europe , and in the U.S. by Bull HN Information Systems Inc.,
as successor in interest by change in name only to Honeywell Bull Inc. and Honeywell Information Systems Inc. .

                                          -----------------------------------------------------------

Permission to use, copy, modify, and distribute these programs and their documentation for any purpose and without
fee is hereby granted,provided that the below copyright notice and historical background appear in all copies
and that both the copyright notice and historical background and this permission notice appear in supporting
documentation, and that the names of MIT, HIS, BULL or BULL HN not be used in advertising or publicity pertaining
to distribution of the programs without specific prior written permission.
    Copyright 1972 by Massachusetts Institute of Technology and Honeywell Information Systems Inc.
    Copyright 2006 by BULL HN Information Systems Inc.
    Copyright 2006 by Bull SAS
    All Rights Reserved
