ASSEMBLY LISTING OF SEGMENT >spec>on>10/27/83-mail>mlsys_trap_.alm
ASSEMBLED ON:	10/27/83  1130.5 mst Thu
OPTIONS USED:	list
ASSEMBLED BY:	ALM Version  6.6  November 1982
ASSEMBLER CREATED:	09/21/83  1227.3 mst Wed

                                     1  " ***********************************************************
                                     2  " *                                                         *
                                     3  " * Copyright, (C) Honeywell Information Systems Inc., 1983 *
                                     4  " *                                                         *
                                     5  " ***********************************************************
                                     6
                                     7  " Provides a first-reference trap procedure for bound_mail_system_
                                     8
                                     9  "  Created:  June 1983 by G. Palter
                                    10
                                    11
    000000                          12  	name	mlsys_trap_
                                    13
                        000000      14  	segdef	initialize_caller
                                    15
    000000                          16  initialize_caller:
    000000  aa  7 00046 2721 20     17  	getlp
    000001  4a  4 00012 7101 20     18  	tra	mlsys_initialize_$mlsys_initialize_
                                    19
    000002                          20  	firstref	<*text>|initialize_caller
                                    21
                                    22  	end

NO LITERALS

NAME DEFINITIONS FOR ENTRY POINTS AND SEGDEFS

    000002  5a   000003 000000
    000003  5a   000030 600000
    000004  aa   000000 000000
    000005  55   000011 000002
    000006  5a   000002 400003
    000007  55   000006 000011
    000010  aa  013 155 154 163
    000011  aa  171 163 137 164
    000012  aa  162 141 160 137
    000013  55   000021 000003
    000014  0a   000000 400000
    000015  55   000014 000003
    000016  aa  021 151 156 151         initialize_caller
    000017  aa  164 151 141 154
    000020  aa  151 172 145 137
    000021  aa  143 141 154 154
    000022  aa  145 162 000 000
    000023  55   000002 000011
    000024  6a   000000 400002
    000025  55   000024 000003
    000026  aa  014 163 171 155         symbol_table
    000027  aa  142 157 154 137
    000030  aa  164 141 142 154
    000031  aa  145 000 000 000

DEFINITIONS HASH TABLE

    000032  aa   000000 000015
    000033  aa   000000 000000
    000034  aa   000000 000000
    000035  aa   000000 000000
    000036  aa   000000 000000
    000037  aa   000000 000000
    000040  aa   000000 000000
    000041  5a   000021 000000
    000042  aa   000000 000000
    000043  aa   000000 000000
    000044  aa   000000 000000
    000045  5a   000011 000000
    000046  aa   000000 000000
    000047  aa   000000 000000

EXTERNAL NAMES

    000050  aa  021 155 154 163         mlsys_initialize_
    000051  aa  171 163 137 151
    000052  aa  156 151 164 151
    000053  aa  141 154 151 172
    000054  aa  145 137 000 000

NO TRAP POINTER WORDS

TYPE PAIR BLOCKS

    000055  aa   000004 000000
    000056  55   000046 000046
    000057  aa   000001 000000
    000060  aa   000000 000000

INTERNAL EXPRESSION WORDS

    000061  5a   000053 000000
    000062  50   000055 000000
    000063  aa   000000 000000
LINKAGE INFORMATION

    000000  aa   000000 000000
    000001  02   000002 000014
    000002  aa   000000 000000
    000003  aa   000000 000000
    000004  aa   000000 000000
    000005  aa   000000 000000
    000006  22   000010 000017
    000007  a2   000000 000000
    000010  9a   777770 0000 46         *text|
    000011  5a   000060 0000 00
    000012  9a   777766 0000 46         mlsys_initialize_|mlsys_initialize_
    000013  5a   000057 0000 00

FIRST REFERENCE TRAP LIST

    000014  aa   000000 000001
    000015  aa   000000 000001
    000016  2a   000010 000000
    000017  aa   000000 000000
SYMBOL INFORMATION

SYMBOL TABLE HEADER

    000000  aa   000000 000001
    000001  aa   163171 155142
    000002  aa   164162 145145
    000003  aa   000000 000004
    000004  aa   000000 112143
    000005  aa   305203 523135
    000006  aa   000000 112220
    000007  aa   462132 303750
    000010  aa   141154 155040
    000011  aa   040040 040040
    000012  aa   000024 000040
    000013  aa   000034 000040
    000014  aa   000044 000100
    000015  aa   000002 000002
    000016  aa   000064 000000
    000017  aa   000000 000121
    000020  aa   000000 000104
    000021  aa   000000 000107
    000022  aa   000113 000104
    000023  aa   000064 000000
    000024  aa   101114 115040
    000025  aa   126145 162163
    000026  aa   151157 156040
    000027  aa   040066 056066
    000030  aa   040040 116157
    000031  aa   166145 155142
    000032  aa   145162 040061
    000033  aa   071070 062040
    000034  aa   107112 157150
    000035  aa   156163 157156
    000036  aa   056123 171163
    000037  aa   115141 151156
    000040  aa   164056 155040
    000041  aa   040040 040040
    000042  aa   040040 040040
    000043  aa   040040 040040
    000044  aa   154151 163164
    000045  aa   040040 040040
    000046  aa   040040 040040
    000047  aa   040040 040040
    000050  aa   040040 040040
    000051  aa   040040 040040
    000052  aa   040040 040040
    000053  aa   040040 040040
    000054  aa   040040 040040
    000055  aa   040040 040040
    000056  aa   040040 040040
    000057  aa   040040 040040
    000060  aa   040040 040040
    000061  aa   040040 040040
    000062  aa   040040 040040
    000063  aa   040040 040040
    000064  aa   000000 000001
    000065  aa   000000 000001
    000066  aa   000072 000046
    000067  aa   122177 366677
    000070  aa   000000 112220
    000071  aa   445222 600000
    000072  aa   076163 160145          >spec>on>10/27/83-mail>mlsys_trap_.alm
    000073  aa   143076 157156
    000074  aa   076061 060057
    000075  aa   062067 057070
    000076  aa   063055 155141
    000077  aa   151154 076155
    000100  aa   154163 171163
    000101  aa   137164 162141
    000102  aa   160137 056141
    000103  aa   154155 040040
               MULTICS ASSEMBLY CROSS REFERENCE LISTING

   Value        Symbol                   Source file   Line number

                *text                    mlsys_trap_:   20.
           0    initialize_caller        mlsys_trap_:   14,   16,   20.
                mlsys_initialize_        mlsys_trap_:   18.


NO FATAL ERRORS


                                          -----------------------------------------------------------


Historical Background

This edition of the Multics software materials and documentation is provided and donated
to Massachusetts Institute of Technology by Group BULL including BULL HN Information Systems Inc.
as a contribution to computer science knowledge.
This donation is made also to give evidence of the common contributions of Massachusetts Institute of Technology,
Bell Laboratories, General Electric, Honeywell Information Systems Inc., Honeywell BULL Inc., Groupe BULL
and BULL HN Information Systems Inc. to the development of this operating system.
Multics development was initiated by Massachusetts Institute of Technology Project MAC (1963-1970),
renamed the MIT Laboratory for Computer Science and Artificial Intelligence in the mid 1970s, under the leadership
of Professor Fernando Jose Corbato. Users consider that Multics provided the best software architecture
for managing computer hardware properly and for executing programs. Many subsequent operating systems
incorporated Multics principles.
Multics was distributed in 1975 to 2000 by Group Bull in Europe , and in the U.S. by Bull HN Information Systems Inc.,
as successor in interest by change in name only to Honeywell Bull Inc. and Honeywell Information Systems Inc. .

                                          -----------------------------------------------------------

Permission to use, copy, modify, and distribute these programs and their documentation for any purpose and without
fee is hereby granted,provided that the below copyright notice and historical background appear in all copies
and that both the copyright notice and historical background and this permission notice appear in supporting
documentation, and that the names of MIT, HIS, BULL or BULL HN not be used in advertising or publicity pertaining
to distribution of the programs without specific prior written permission.
    Copyright 1972 by Massachusetts Institute of Technology and Honeywell Information Systems Inc.
    Copyright 2006 by BULL HN Information Systems Inc.
    Copyright 2006 by Bull SAS
    All Rights Reserved
