ASSEMBLY LISTING OF SEGMENT >special_ldd>on>06/15/84>mlsys_utils_.alm
ASSEMBLED ON:	06/18/84  1225.3 mst Mon
OPTIONS USED:	list
ASSEMBLED BY:	ALM Version  6.6  November 1982
ASSEMBLER CREATED:	09/21/83  1227.3 mst Wed

                                     1  " ***********************************************************
                                     2  " *                                                         *
                                     3  " * Copyright, (C) Honeywell Information Systems Inc., 1983 *
                                     4  " *                                                         *
                                     5  " ***********************************************************
                                     6
                                     7  " Utility functions provided by the Multics Mail System
                                     8
                                     9  " Created:  June 1983 by G. Palter
                                    10  " Modified: March 1984 by G. Palter to add print_validate_results
                                    11
                                    12
    000000                          13  	name	mlsys_utils_
                                    14
                                    15
                                    16  	macro	transfer
                              1     17  	segdef	&1
                              2     18  &1:	getlp
                              3     19  	tra	&2
                              4     20  	&end
                                    21
                                    22
                                    23  	transfer	add_mailbox_acl_entries,mlsys_mailbox_utils_$add_mailbox_acl_entries
                        000000          	segdef	add_mailbox_acl_entries
    000000  aa  7 00046 2721 20         add_mailbox_acl_entries:	getlp
    000001  4a  4 00010 7101 20         	tra	mlsys_mailbox_utils_$add_mailbox_acl_entries
                                    24  	transfer	classify_mailbox_address,mlsys_mailbox_utils_$classify_mailbox_address
                        000002          	segdef	classify_mailbox_address
    000002  aa  7 00046 2721 20         classify_mailbox_address:	getlp
    000003  4a  4 00012 7101 20         	tra	mlsys_mailbox_utils_$classify_mailbox_address
                                    25  	transfer	create_default_mailbox,mlsys_mailbox_utils_$create_default_mailbox
                        000004          	segdef	create_default_mailbox
    000004  aa  7 00046 2721 20         create_default_mailbox:	getlp
    000005  4a  4 00014 7101 20         	tra	mlsys_mailbox_utils_$create_default_mailbox
                                    26  	transfer	create_logbox,mlsys_mailbox_utils_$create_logbox
                        000006          	segdef	create_logbox
    000006  aa  7 00046 2721 20         create_logbox:	getlp
    000007  4a  4 00016 7101 20         	tra	mlsys_mailbox_utils_$create_logbox
                                    27  	transfer	create_mailbox,mlsys_mailbox_utils_$create_mailbox
                        000010          	segdef	create_mailbox
    000010  aa  7 00046 2721 20         create_mailbox:	getlp
    000011  4a  4 00020 7101 20         	tra	mlsys_mailbox_utils_$create_mailbox
                                    28
                                    29  	transfer	create_reply_message,mlsys_misc_utils_$create_reply_message
                        000012          	segdef	create_reply_message
    000012  aa  7 00046 2721 20         create_reply_message:	getlp
    000013  4a  4 00022 7101 20         	tra	mlsys_misc_utils_$create_reply_message
                                    30  	transfer	create_savebox,mlsys_mailbox_utils_$create_savebox
                        000014          	segdef	create_savebox
    000014  aa  7 00046 2721 20         create_savebox:	getlp
    000015  4a  4 00024 7101 20         	tra	mlsys_mailbox_utils_$create_savebox
                                    31  	transfer	delete_mailbox,mlsys_mailbox_utils_$delete_mailbox
                        000016          	segdef	delete_mailbox
    000016  aa  7 00046 2721 20         delete_mailbox:	getlp
    000017  4a  4 00026 7101 20         	tra	mlsys_mailbox_utils_$delete_mailbox
                                    32  	transfer	delete_mailbox_acl_entries,mlsys_mailbox_utils_$delete_mailbox_acl_entries
                        000020          	segdef	delete_mailbox_acl_entries
    000020  aa  7 00046 2721 20         delete_mailbox_acl_entries:	getlp
    000021  4a  4 00030 7101 20         	tra	mlsys_mailbox_utils_$delete_mailbox_acl_entries
                                    33  	transfer	format_access_class_field,mlsys_format_$format_access_class_field
                        000022          	segdef	format_access_class_field
    000022  aa  7 00046 2721 20         format_access_class_field:	getlp
    000023  4a  4 00032 7101 20         	tra	mlsys_format_$format_access_class_field
                                    34
                                    35  	transfer	format_address_field,mlsys_format_$format_address_field
                        000024          	segdef	format_address_field
    000024  aa  7 00046 2721 20         format_address_field:	getlp
    000025  4a  4 00034 7101 20         	tra	mlsys_format_$format_address_field
                                    36  	transfer	format_address_list_field,mlsys_format_$format_address_list_field
                        000026          	segdef	format_address_list_field
    000026  aa  7 00046 2721 20         format_address_list_field:	getlp
    000027  4a  4 00036 7101 20         	tra	mlsys_format_$format_address_list_field
                                    37  	transfer	format_body_section,mlsys_format_$format_body_section
                        000030          	segdef	format_body_section
    000030  aa  7 00046 2721 20         format_body_section:	getlp
    000031  4a  4 00040 7101 20         	tra	mlsys_format_$format_body_section
                                    38  	transfer	format_date_time_field,mlsys_format_$format_date_time_field
                        000032          	segdef	format_date_time_field
    000032  aa  7 00046 2721 20         format_date_time_field:	getlp
    000033  4a  4 00042 7101 20         	tra	mlsys_format_$format_date_time_field
                                    39  	transfer	format_message,mlsys_format_$format_message
                        000034          	segdef	format_message
    000034  aa  7 00046 2721 20         format_message:	getlp
    000035  4a  4 00044 7101 20         	tra	mlsys_format_$format_message
                                    40
                                    41  	transfer	format_message_body,mlsys_format_$format_message_body
                        000036          	segdef	format_message_body
    000036  aa  7 00046 2721 20         format_message_body:	getlp
    000037  4a  4 00046 7101 20         	tra	mlsys_format_$format_message_body
                                    42  	transfer	format_message_canonical_form,mlsys_format_$format_message_canonical_form
                        000040          	segdef	format_message_canonical_form
    000040  aa  7 00046 2721 20         format_message_canonical_form:	getlp
    000041  4a  4 00050 7101 20         	tra	mlsys_format_$format_message_canonical_form
                                    43  	transfer	format_message_envelope,mlsys_format_$format_message_envelope
                        000042          	segdef	format_message_envelope
    000042  aa  7 00046 2721 20         format_message_envelope:	getlp
    000043  4a  4 00052 7101 20         	tra	mlsys_format_$format_message_envelope
                                    44  	transfer	format_message_header,mlsys_format_$format_message_header
                        000044          	segdef	format_message_header
    000044  aa  7 00046 2721 20         format_message_header:	getlp
    000045  4a  4 00054 7101 20         	tra	mlsys_format_$format_message_header
                                    45  	transfer	format_message_id_field,mlsys_format_$format_message_id_field
                        000046          	segdef	format_message_id_field
    000046  aa  7 00046 2721 20         format_message_id_field:	getlp
    000047  4a  4 00056 7101 20         	tra	mlsys_format_$format_message_id_field
                                    46
                                    47  	transfer	format_redistributions_list,mlsys_format_$format_redistributions_list
                        000050          	segdef	format_redistributions_list
    000050  aa  7 00046 2721 20         format_redistributions_list:	getlp
    000051  4a  4 00060 7101 20         	tra	mlsys_format_$format_redistributions_list
                                    48  	transfer	format_references_list_field,mlsys_format_$format_references_list_field
                        000052          	segdef	format_references_list_field
    000052  aa  7 00046 2721 20         format_references_list_field:	getlp
    000053  4a  4 00062 7101 20         	tra	mlsys_format_$format_references_list_field
                                    49  	transfer	format_message_trace,mlsys_format_$format_message_trace
                        000054          	segdef	format_message_trace
    000054  aa  7 00046 2721 20         format_message_trace:	getlp
    000055  4a  4 00064 7101 20         	tra	mlsys_format_$format_message_trace
                                    50  	transfer	format_text_field,mlsys_format_$format_text_field
                        000056          	segdef	format_text_field
    000056  aa  7 00046 2721 20         format_text_field:	getlp
    000057  4a  4 00066 7101 20         	tra	mlsys_format_$format_text_field
                                    51  	transfer	free_delivery_results,mlsys_misc_utils_$free_delivery_results
                        000060          	segdef	free_delivery_results
    000060  aa  7 00046 2721 20         free_delivery_results:	getlp
    000061  4a  4 00070 7101 20         	tra	mlsys_misc_utils_$free_delivery_results
                                    52
                                    53  	transfer	list_mailbox_acl,mlsys_mailbox_utils_$list_mailbox_acl
                        000062          	segdef	list_mailbox_acl
    000062  aa  7 00046 2721 20         list_mailbox_acl:	getlp
    000063  4a  4 00072 7101 20         	tra	mlsys_mailbox_utils_$list_mailbox_acl
                                    54  	transfer	parse_address_control_args,mlsys_parse_control_args_$parse_address_control_args
                        000064          	segdef	parse_address_control_args
    000064  aa  7 00046 2721 20         parse_address_control_args:	getlp
    000065  4a  4 00074 7101 20         	tra	mlsys_parse_control_args_$parse_address_control_args
                                    55  	transfer	parse_address_list_control_args,mlsys_parse_control_args_$parse_address_list_control_args
                        000066          	segdef	parse_address_list_control_args
    000066  aa  7 00046 2721 20         parse_address_list_control_args:	getlp
    000067  4a  4 00076 7101 20         	tra	mlsys_parse_control_args_$parse_address_list_control_args
                                    56  	transfer	parse_address_list_text,mlsys_parse_text_$parse_address_list_text
                        000070          	segdef	parse_address_list_text
    000070  aa  7 00046 2721 20         parse_address_list_text:	getlp
    000071  4a  4 00100 7101 20         	tra	mlsys_parse_text_$parse_address_list_text
                                    57  	transfer	parse_address_text,mlsys_parse_text_$parse_address_text
                        000072          	segdef	parse_address_text
    000072  aa  7 00046 2721 20         parse_address_text:	getlp
    000073  4a  4 00102 7101 20         	tra	mlsys_parse_text_$parse_address_text
                                    58
                                    59  	transfer	parse_mailbox_control_args,mlsys_parse_control_args_$parse_mailbox_control_args
                        000074          	segdef	parse_mailbox_control_args
    000074  aa  7 00046 2721 20         parse_mailbox_control_args:	getlp
    000075  4a  4 00104 7101 20         	tra	mlsys_parse_control_args_$parse_mailbox_control_args
                                    60  	transfer	parse_mailbox_text,mlsys_parse_control_args_$parse_mailbox_text
                        000076          	segdef	parse_mailbox_text
    000076  aa  7 00046 2721 20         parse_mailbox_text:	getlp
    000077  4a  4 00106 7101 20         	tra	mlsys_parse_control_args_$parse_mailbox_text
                                    61  	transfer	parse_message_text,mlsys_parse_text_$parse_new_message_text
                        000100          	segdef	parse_message_text
    000100  aa  7 00046 2721 20         parse_message_text:	getlp
    000101  4a  4 00110 7101 20         	tra	mlsys_parse_text_$parse_new_message_text
                                    62  	transfer	print_access_class_field,mlsys_format_$print_access_class_field
                        000102          	segdef	print_access_class_field
    000102  aa  7 00046 2721 20         print_access_class_field:	getlp
    000103  4a  4 00112 7101 20         	tra	mlsys_format_$print_access_class_field
                                    63  	transfer	print_address_field,mlsys_format_$print_address_field
                        000104          	segdef	print_address_field
    000104  aa  7 00046 2721 20         print_address_field:	getlp
    000105  4a  4 00114 7101 20         	tra	mlsys_format_$print_address_field
                                    64
                                    65  	transfer	print_address_list_field,mlsys_format_$print_address_list_field
                        000106          	segdef	print_address_list_field
    000106  aa  7 00046 2721 20         print_address_list_field:	getlp
    000107  4a  4 00116 7101 20         	tra	mlsys_format_$print_address_list_field
                                    66  	transfer	print_body_section,mlsys_format_$print_body_section
                        000110          	segdef	print_body_section
    000110  aa  7 00046 2721 20         print_body_section:	getlp
    000111  4a  4 00120 7101 20         	tra	mlsys_format_$print_body_section
                                    67  	transfer	print_date_time_field,mlsys_format_$print_date_time_field
                        000112          	segdef	print_date_time_field
    000112  aa  7 00046 2721 20         print_date_time_field:	getlp
    000113  4a  4 00122 7101 20         	tra	mlsys_format_$print_date_time_field
                                    68  	transfer	print_delivery_results,mlsys_misc_utils_$print_delivery_results
                        000114          	segdef	print_delivery_results
    000114  aa  7 00046 2721 20         print_delivery_results:	getlp
    000115  4a  4 00124 7101 20         	tra	mlsys_misc_utils_$print_delivery_results
                                    69  	transfer	print_message,mlsys_format_$print_message
                        000116          	segdef	print_message
    000116  aa  7 00046 2721 20         print_message:	getlp
    000117  4a  4 00126 7101 20         	tra	mlsys_format_$print_message
                                    70
                                    71  	transfer	print_message_body,mlsys_format_$print_message_body
                        000120          	segdef	print_message_body
    000120  aa  7 00046 2721 20         print_message_body:	getlp
    000121  4a  4 00130 7101 20         	tra	mlsys_format_$print_message_body
                                    72  	transfer	print_message_envelope,mlsys_format_$print_message_envelope
                        000122          	segdef	print_message_envelope
    000122  aa  7 00046 2721 20         print_message_envelope:	getlp
    000123  4a  4 00132 7101 20         	tra	mlsys_format_$print_message_envelope
                                    73  	transfer	print_message_header,mlsys_format_$print_message_header
                        000124          	segdef	print_message_header
    000124  aa  7 00046 2721 20         print_message_header:	getlp
    000125  4a  4 00134 7101 20         	tra	mlsys_format_$print_message_header
                                    74  	transfer	print_message_id_field,mlsys_format_$print_message_id_field
                        000126          	segdef	print_message_id_field
    000126  aa  7 00046 2721 20         print_message_id_field:	getlp
    000127  4a  4 00136 7101 20         	tra	mlsys_format_$print_message_id_field
                                    75  	transfer	print_redistributions_list,mlsys_format_$print_redistributions_list
                        000130          	segdef	print_redistributions_list
    000130  aa  7 00046 2721 20         print_redistributions_list:	getlp
    000131  4a  4 00140 7101 20         	tra	mlsys_format_$print_redistributions_list
                                    76
                                    77  	transfer	print_message_summary,mlsys_misc_utils_$print_message_summary
                        000132          	segdef	print_message_summary
    000132  aa  7 00046 2721 20         print_message_summary:	getlp
    000133  4a  4 00142 7101 20         	tra	mlsys_misc_utils_$print_message_summary
                                    78  	transfer	print_message_summary_header,mlsys_misc_utils_$print_message_summary_header
                        000134          	segdef	print_message_summary_header
    000134  aa  7 00046 2721 20         print_message_summary_header:	getlp
    000135  4a  4 00144 7101 20         	tra	mlsys_misc_utils_$print_message_summary_header
                                    79  	transfer	print_references_list_field,mlsys_format_$print_references_list_field
                        000136          	segdef	print_references_list_field
    000136  aa  7 00046 2721 20         print_references_list_field:	getlp
    000137  4a  4 00146 7101 20         	tra	mlsys_format_$print_references_list_field
                                    80  	transfer	print_message_trace,mlsys_format_$print_message_trace
                        000140          	segdef	print_message_trace
    000140  aa  7 00046 2721 20         print_message_trace:	getlp
    000141  4a  4 00150 7101 20         	tra	mlsys_format_$print_message_trace
                                    81  	transfer	print_text_field,mlsys_format_$print_text_field
                        000142          	segdef	print_text_field
    000142  aa  7 00046 2721 20         print_text_field:	getlp
    000143  4a  4 00152 7101 20         	tra	mlsys_format_$print_text_field
                                    82
                                    83  	transfer	print_validate_results,mlsys_misc_utils_$print_validate_results
                        000144          	segdef	print_validate_results
    000144  aa  7 00046 2721 20         print_validate_results:	getlp
    000145  4a  4 00154 7101 20         	tra	mlsys_misc_utils_$print_validate_results
                                    84  	transfer	replace_mailbox_acl_entries,mlsys_mailbox_utils_$replace_mailbox_acl_entries
                        000146          	segdef	replace_mailbox_acl_entries
    000146  aa  7 00046 2721 20         replace_mailbox_acl_entries:	getlp
    000147  4a  4 00156 7101 20         	tra	mlsys_mailbox_utils_$replace_mailbox_acl_entries
                                    85  	transfer	search_message,mlsys_misc_utils_$search_message
                        000150          	segdef	search_message
    000150  aa  7 00046 2721 20         search_message:	getlp
    000151  4a  4 00160 7101 20         	tra	mlsys_misc_utils_$search_message
                                    86  	transfer	send_message_to_recipient,mlsys_misc_utils_$send_message_to_recipient
                        000152          	segdef	send_message_to_recipient
    000152  aa  7 00046 2721 20         send_message_to_recipient:	getlp
    000153  4a  4 00162 7101 20         	tra	mlsys_misc_utils_$send_message_to_recipient
                                    87  	transfer	summarize_address,mlsys_misc_utils_$summarize_address
                        000154          	segdef	summarize_address
    000154  aa  7 00046 2721 20         summarize_address:	getlp
    000155  4a  4 00164 7101 20         	tra	mlsys_misc_utils_$summarize_address
                                    88
                                    89  	end

NO LITERALS

NAME DEFINITIONS FOR ENTRY POINTS AND SEGDEFS

    000156  5a   000003 000000
    000157  5a   000772 600000
    000160  aa   000000 000000
    000161  55   000012 000002
    000162  5a   000002 400003
    000163  55   000006 000012
    000164  aa  014 155 154 163
    000165  aa  171 163 137 165
    000166  aa  164 151 154 163
    000167  aa  137 000 000 000
    000170  55   000022 000003
    000171  0a   000154 400000
    000172  55   000015 000003
    000173  aa  021 163 165 155         summarize_address
    000174  aa  155 141 162 151
    000175  aa  172 145 137 141
    000176  aa  144 144 162 145
    000177  aa  163 163 000 000
    000200  55   000034 000012
    000201  0a   000152 400000
    000202  55   000025 000003
    000203  aa  031 163 145 156         send_message_to_recipient
    000204  aa  144 137 155 145
    000205  aa  163 163 141 147
    000206  aa  145 137 164 157
    000207  aa  137 162 145 143
    000210  aa  151 160 151 145
    000211  aa  156 164 000 000
    000212  55   000043 000022
    000213  0a   000150 400000
    000214  55   000037 000003
    000215  aa  016 163 145 141         search_message
    000216  aa  162 143 150 137
    000217  aa  155 145 163 163
    000220  aa  141 147 145 000
    000221  55   000055 000034
    000222  0a   000146 400000
    000223  55   000046 000003
    000224  aa  033 162 145 160         replace_mailbox_acl_entries
    000225  aa  154 141 143 145
    000226  aa  137 155 141 151
    000227  aa  154 142 157 170
    000230  aa  137 141 143 154
    000231  aa  137 145 156 164
    000232  aa  162 151 145 163
    000233  55   000066 000043
    000234  0a   000144 400000
    000235  55   000060 000003
    000236  aa  026 160 162 151         print_validate_results
    000237  aa  156 164 137 166
    000240  aa  141 154 151 144
    000241  aa  141 164 145 137
    000242  aa  162 145 163 165
    000243  aa  154 164 163 000
    000244  55   000076 000055
    000245  0a   000142 400000
    000246  55   000071 000003
    000247  aa  020 160 162 151         print_text_field
    000250  aa  156 164 137 164
    000251  aa  145 170 164 137
    000252  aa  146 151 145 154
    000253  aa  144 000 000 000
    000254  55   000106 000066
    000255  0a   000140 400000
    000256  55   000101 000003
    000257  aa  023 160 162 151         print_message_trace
    000260  aa  156 164 137 155
    000261  aa  145 163 163 141
    000262  aa  147 145 137 164
    000263  aa  162 141 143 145
    000264  55   000120 000076
    000265  0a   000136 400000
    000266  55   000111 000003
    000267  aa  033 160 162 151         print_references_list_field
    000270  aa  156 164 137 162
    000271  aa  145 146 145 162
    000272  aa  145 156 143 145
    000273  aa  163 137 154 151
    000274  aa  163 164 137 146
    000275  aa  151 145 154 144
    000276  55   000133 000106
    000277  0a   000134 400000
    000300  55   000123 000003
    000301  aa  034 160 162 151         print_message_summary_header
    000302  aa  156 164 137 155
    000303  aa  145 163 163 141
    000304  aa  147 145 137 163
    000305  aa  165 155 155 141
    000306  aa  162 171 137 150
    000307  aa  145 141 144 145
    000310  aa  162 000 000 000
    000311  55   000144 000120
    000312  0a   000132 400000
    000313  55   000136 000003
    000314  aa  025 160 162 151         print_message_summary
    000315  aa  156 164 137 155
    000316  aa  145 163 163 141
    000317  aa  147 145 137 163
    000320  aa  165 155 155 141
    000321  aa  162 171 000 000
    000322  55   000156 000133
    000323  0a   000130 400000
    000324  55   000147 000003
    000325  aa  032 160 162 151         print_redistributions_list
    000326  aa  156 164 137 162
    000327  aa  145 144 151 163
    000330  aa  164 162 151 142
    000331  aa  165 164 151 157
    000332  aa  156 163 137 154
    000333  aa  151 163 164 000
    000334  55   000167 000144
    000335  0a   000126 400000
    000336  55   000161 000003
    000337  aa  026 160 162 151         print_message_id_field
    000340  aa  156 164 137 155
    000341  aa  145 163 163 141
    000342  aa  147 145 137 151
    000343  aa  144 137 146 151
    000344  aa  145 154 144 000
    000345  55   000200 000156
    000346  0a   000124 400000
    000347  55   000172 000003
    000350  aa  024 160 162 151         print_message_header
    000351  aa  156 164 137 155
    000352  aa  145 163 163 141
    000353  aa  147 145 137 150
    000354  aa  145 141 144 145
    000355  aa  162 000 000 000
    000356  55   000211 000167
    000357  0a   000122 400000
    000360  55   000203 000003
    000361  aa  026 160 162 151         print_message_envelope
    000362  aa  156 164 137 155
    000363  aa  145 163 163 141
    000364  aa  147 145 137 145
    000365  aa  156 166 145 154
    000366  aa  157 160 145 000
    000367  55   000221 000200
    000370  0a   000120 400000
    000371  55   000214 000003
    000372  aa  022 160 162 151         print_message_body
    000373  aa  156 164 137 155
    000374  aa  145 163 163 141
    000375  aa  147 145 137 142
    000376  aa  157 144 171 000
    000377  55   000230 000211
    000400  0a   000116 400000
    000401  55   000224 000003
    000402  aa  015 160 162 151         print_message
    000403  aa  156 164 137 155
    000404  aa  145 163 163 141
    000405  aa  147 145 000 000
    000406  55   000241 000221
    000407  0a   000114 400000
    000410  55   000233 000003
    000411  aa  026 160 162 151         print_delivery_results
    000412  aa  156 164 137 144
    000413  aa  145 154 151 166
    000414  aa  145 162 171 137
    000415  aa  162 145 163 165
    000416  aa  154 164 163 000
    000417  55   000252 000230
    000420  0a   000112 400000
    000421  55   000244 000003
    000422  aa  025 160 162 151         print_date_time_field
    000423  aa  156 164 137 144
    000424  aa  141 164 145 137
    000425  aa  164 151 155 145
    000426  aa  137 146 151 145
    000427  aa  154 144 000 000
    000430  55   000262 000241
    000431  0a   000110 400000
    000432  55   000255 000003
    000433  aa  022 160 162 151         print_body_section
    000434  aa  156 164 137 142
    000435  aa  157 144 171 137
    000436  aa  163 145 143 164
    000437  aa  151 157 156 000
    000440  55   000274 000252
    000441  0a   000106 400000
    000442  55   000265 000003
    000443  aa  030 160 162 151         print_address_list_field
    000444  aa  156 164 137 141
    000445  aa  144 144 162 145
    000446  aa  163 163 137 154
    000447  aa  151 163 164 137
    000450  aa  146 151 145 154
    000451  aa  144 000 000 000
    000452  55   000304 000262
    000453  0a   000104 400000
    000454  55   000277 000003
    000455  aa  023 160 162 151         print_address_field
    000456  aa  156 164 137 141
    000457  aa  144 144 162 145
    000460  aa  163 163 137 146
    000461  aa  151 145 154 144
    000462  55   000316 000274
    000463  0a   000102 400000
    000464  55   000307 000003
    000465  aa  030 160 162 151         print_access_class_field
    000466  aa  156 164 137 141
    000467  aa  143 143 145 163
    000470  aa  163 137 143 154
    000471  aa  141 163 163 137
    000472  aa  146 151 145 154
    000473  aa  144 000 000 000
    000474  55   000326 000304
    000475  0a   000100 400000
    000476  55   000321 000003
    000477  aa  022 160 141 162         parse_message_text
    000500  aa  163 145 137 155
    000501  aa  145 163 163 141
    000502  aa  147 145 137 164
    000503  aa  145 170 164 000
    000504  55   000336 000316
    000505  0a   000076 400000
    000506  55   000331 000003
    000507  aa  022 160 141 162         parse_mailbox_text
    000510  aa  163 145 137 155
    000511  aa  141 151 154 142
    000512  aa  157 170 137 164
    000513  aa  145 170 164 000
    000514  55   000350 000326
    000515  0a   000074 400000
    000516  55   000341 000003
    000517  aa  032 160 141 162         parse_mailbox_control_args
    000520  aa  163 145 137 155
    000521  aa  141 151 154 142
    000522  aa  157 170 137 143
    000523  aa  157 156 164 162
    000524  aa  157 154 137 141
    000525  aa  162 147 163 000
    000526  55   000360 000336
    000527  0a   000072 400000
    000530  55   000353 000003
    000531  aa  022 160 141 162         parse_address_text
    000532  aa  163 145 137 141
    000533  aa  144 144 162 145
    000534  aa  163 163 137 164
    000535  aa  145 170 164 000
    000536  55   000371 000350
    000537  0a   000070 400000
    000540  55   000363 000003
    000541  aa  027 160 141 162         parse_address_list_text
    000542  aa  163 145 137 141
    000543  aa  144 144 162 145
    000544  aa  163 163 137 154
    000545  aa  151 163 164 137
    000546  aa  164 145 170 164
    000547  55   000404 000360
    000550  0a   000066 400000
    000551  55   000374 000003
    000552  aa  037 160 141 162         parse_address_list_control_args
    000553  aa  163 145 137 141
    000554  aa  144 144 162 145
    000555  aa  163 163 137 154
    000556  aa  151 163 164 137
    000557  aa  143 157 156 164
    000560  aa  162 157 154 137
    000561  aa  141 162 147 163
    000562  55   000416 000371
    000563  0a   000064 400000
    000564  55   000407 000003
    000565  aa  032 160 141 162         parse_address_control_args
    000566  aa  163 145 137 141
    000567  aa  144 144 162 145
    000570  aa  163 163 137 143
    000571  aa  157 156 164 162
    000572  aa  157 154 137 141
    000573  aa  162 147 163 000
    000574  55   000426 000404
    000575  0a   000062 400000
    000576  55   000421 000003
    000577  aa  020 154 151 163         list_mailbox_acl
    000600  aa  164 137 155 141
    000601  aa  151 154 142 157
    000602  aa  170 137 141 143
    000603  aa  154 000 000 000
    000604  55   000437 000416
    000605  0a   000060 400000
    000606  55   000431 000003
    000607  aa  025 146 162 145         free_delivery_results
    000610  aa  145 137 144 145
    000611  aa  154 151 166 145
    000612  aa  162 171 137 162
    000613  aa  145 163 165 154
    000614  aa  164 163 000 000
    000615  55   000447 000426
    000616  0a   000056 400000
    000617  55   000442 000003
    000620  aa  021 146 157 162         format_text_field
    000621  aa  155 141 164 137
    000622  aa  164 145 170 164
    000623  aa  137 146 151 145
    000624  aa  154 144 000 000
    000625  55   000460 000437
    000626  0a   000054 400000
    000627  55   000452 000003
    000630  aa  024 146 157 162         format_message_trace
    000631  aa  155 141 164 137
    000632  aa  155 145 163 163
    000633  aa  141 147 145 137
    000634  aa  164 162 141 143
    000635  aa  145 000 000 000
    000636  55   000473 000447
    000637  0a   000052 400000
    000640  55   000463 000003
    000641  aa  034 146 157 162         format_references_list_field
    000642  aa  155 141 164 137
    000643  aa  162 145 146 145
    000644  aa  162 145 156 143
    000645  aa  145 163 137 154
    000646  aa  151 163 164 137
    000647  aa  146 151 145 154
    000650  aa  144 000 000 000
    000651  55   000505 000460
    000652  0a   000050 400000
    000653  55   000476 000003
    000654  aa  033 146 157 162         format_redistributions_list
    000655  aa  155 141 164 137
    000656  aa  162 145 144 151
    000657  aa  163 164 162 151
    000660  aa  142 165 164 151
    000661  aa  157 156 163 137
    000662  aa  154 151 163 164
    000663  55   000516 000473
    000664  0a   000046 400000
    000665  55   000510 000003
    000666  aa  027 146 157 162         format_message_id_field
    000667  aa  155 141 164 137
    000670  aa  155 145 163 163
    000671  aa  141 147 145 137
    000672  aa  151 144 137 146
    000673  aa  151 145 154 144
    000674  55   000527 000505
    000675  0a   000044 400000
    000676  55   000521 000003
    000677  aa  025 146 157 162         format_message_header
    000700  aa  155 141 164 137
    000701  aa  155 145 163 163
    000702  aa  141 147 145 137
    000703  aa  150 145 141 144
    000704  aa  145 162 000 000
    000705  55   000540 000516
    000706  0a   000042 400000
    000707  55   000532 000003
    000710  aa  027 146 157 162         format_message_envelope
    000711  aa  155 141 164 137
    000712  aa  155 145 163 163
    000713  aa  141 147 145 137
    000714  aa  145 156 166 145
    000715  aa  154 157 160 145
    000716  55   000553 000527
    000717  0a   000040 400000
    000720  55   000543 000003
    000721  aa  035 146 157 162         format_message_canonical_form
    000722  aa  155 141 164 137
    000723  aa  155 145 163 163
    000724  aa  141 147 145 137
    000725  aa  143 141 156 157
    000726  aa  156 151 143 141
    000727  aa  154 137 146 157
    000730  aa  162 155 000 000
    000731  55   000563 000540
    000732  0a   000036 400000
    000733  55   000556 000003
    000734  aa  023 146 157 162         format_message_body
    000735  aa  155 141 164 137
    000736  aa  155 145 163 163
    000737  aa  141 147 145 137
    000740  aa  142 157 144 171
    000741  55   000572 000553
    000742  0a   000034 400000
    000743  55   000566 000003
    000744  aa  016 146 157 162         format_message
    000745  aa  155 141 164 137
    000746  aa  155 145 163 163
    000747  aa  141 147 145 000
    000750  55   000603 000563
    000751  0a   000032 400000
    000752  55   000575 000003
    000753  aa  026 146 157 162         format_date_time_field
    000754  aa  155 141 164 137
    000755  aa  144 141 164 145
    000756  aa  137 164 151 155
    000757  aa  145 137 146 151
    000760  aa  145 154 144 000
    000761  55   000613 000572
    000762  0a   000030 400000
    000763  55   000606 000003
    000764  aa  023 146 157 162         format_body_section
    000765  aa  155 141 164 137
    000766  aa  142 157 144 171
    000767  aa  137 163 145 143
    000770  aa  164 151 157 156
    000771  55   000625 000603
    000772  0a   000026 400000
    000773  55   000616 000003
    000774  aa  031 146 157 162         format_address_list_field
    000775  aa  155 141 164 137
    000776  aa  141 144 144 162
    000777  aa  145 163 163 137
    001000  aa  154 151 163 164
    001001  aa  137 146 151 145
    001002  aa  154 144 000 000
    001003  55   000636 000613
    001004  0a   000024 400000
    001005  55   000630 000003
    001006  aa  024 146 157 162         format_address_field
    001007  aa  155 141 164 137
    001010  aa  141 144 144 162
    001011  aa  145 163 163 137
    001012  aa  146 151 145 154
    001013  aa  144 000 000 000
    001014  55   000650 000625
    001015  0a   000022 400000
    001016  55   000641 000003
    001017  aa  031 146 157 162         format_access_class_field
    001020  aa  155 141 164 137
    001021  aa  141 143 143 145
    001022  aa  163 163 137 143
    001023  aa  154 141 163 163
    001024  aa  137 146 151 145
    001025  aa  154 144 000 000
    001026  55   000662 000636
    001027  0a   000020 400000
    001030  55   000653 000003
    001031  aa  032 144 145 154         delete_mailbox_acl_entries
    001032  aa  145 164 145 137
    001033  aa  155 141 151 154
    001034  aa  142 157 170 137
    001035  aa  141 143 154 137
    001036  aa  145 156 164 162
    001037  aa  151 145 163 000
    001040  55   000671 000650
    001041  0a   000016 400000
    001042  55   000665 000003
    001043  aa  016 144 145 154         delete_mailbox
    001044  aa  145 164 145 137
    001045  aa  155 141 151 154
    001046  aa  142 157 170 000
    001047  55   000700 000662
    001050  0a   000014 400000
    001051  55   000674 000003
    001052  aa  016 143 162 145         create_savebox
    001053  aa  141 164 145 137
    001054  aa  163 141 166 145
    001055  aa  142 157 170 000
    001056  55   000711 000671
    001057  0a   000012 400000
    001060  55   000703 000003
    001061  aa  024 143 162 145         create_reply_message
    001062  aa  141 164 145 137
    001063  aa  162 145 160 154
    001064  aa  171 137 155 145
    001065  aa  163 163 141 147
    001066  aa  145 000 000 000
    001067  55   000720 000700
    001070  0a   000010 400000
    001071  55   000714 000003
    001072  aa  016 143 162 145         create_mailbox
    001073  aa  141 164 145 137
    001074  aa  155 141 151 154
    001075  aa  142 157 170 000
    001076  55   000727 000711
    001077  0a   000006 400000
    001100  55   000723 000003
    001101  aa  015 143 162 145         create_logbox
    001102  aa  141 164 145 137
    001103  aa  154 157 147 142
    001104  aa  157 170 000 000
    001105  55   000740 000720
    001106  0a   000004 400000
    001107  55   000732 000003
    001110  aa  026 143 162 145         create_default_mailbox
    001111  aa  141 164 145 137
    001112  aa  144 145 146 141
    001113  aa  165 154 164 137
    001114  aa  155 141 151 154
    001115  aa  142 157 170 000
    001116  55   000752 000727
    001117  0a   000002 400000
    001120  55   000743 000003
    001121  aa  030 143 154 141         classify_mailbox_address
    001122  aa  163 163 151 146
    001123  aa  171 137 155 141
    001124  aa  151 154 142 157
    001125  aa  170 137 141 144
    001126  aa  144 162 145 163
    001127  aa  163 000 000 000
    001130  55   000763 000740
    001131  0a   000000 400000
    001132  55   000755 000003
    001133  aa  027 141 144 144         add_mailbox_acl_entries
    001134  aa  137 155 141 151
    001135  aa  154 142 157 170
    001136  aa  137 141 143 154
    001137  aa  137 145 156 164
    001140  aa  162 151 145 163
    001141  55   000002 000752
    001142  6a   000000 400002
    001143  55   000766 000003
    001144  aa  014 163 171 155         symbol_table
    001145  aa  142 157 154 137
    001146  aa  164 141 142 154
    001147  aa  145 000 000 000

DEFINITIONS HASH TABLE

    001150  aa   000000 000131
    001151  5a   000156 000000
    001152  5a   000200 000000
    001153  5a   000230 000000
    001154  5a   000720 000000
    001155  5a   000763 000000
    001156  aa   000000 000000
    001157  aa   000000 000000
    001160  aa   000000 000000
    001161  5a   000516 000000
    001162  5a   000662 000000
    001163  aa   000000 000000
    001164  aa   000000 000000
    001165  aa   000000 000000
    001166  5a   000120 000000
    001167  aa   000000 000000
    001170  aa   000000 000000
    001171  5a   000752 000000
    001172  aa   000000 000000
    001173  5a   000426 000000
    001174  aa   000000 000000
    001175  aa   000000 000000
    001176  aa   000000 000000
    001177  5a   000473 000000
    001200  5a   000727 000000
    001201  5a   000167 000000
    001202  aa   000000 000000
    001203  aa   000000 000000
    001204  aa   000000 000000
    001205  aa   000000 000000
    001206  aa   000000 000000
    001207  aa   000000 000000
    001210  aa   000000 000000
    001211  aa   000000 000000
    001212  5a   000553 000000
    001213  5a   000603 000000
    001214  5a   000671 000000
    001215  5a   000711 000000
    001216  5a   000416 000000
    001217  5a   000144 000000
    001220  5a   000650 000000
    001221  5a   000572 000000
    001222  5a   000740 000000
    001223  aa   000000 000000
    001224  aa   000000 000000
    001225  aa   000000 000000
    001226  aa   000000 000000
    001227  aa   000000 000000
    001230  5a   000371 000000
    001231  5a   000613 000000
    001232  5a   000034 000000
    001233  5a   000211 000000
    001234  5a   000252 000000
    001235  5a   000563 000000
    001236  5a   000636 000000
    001237  5a   000460 000000
    001240  5a   000700 000000
    001241  5a   000133 000000
    001242  5a   000241 000000
    001243  5a   000022 000000
    001244  5a   000360 000000
    001245  5a   000437 000000
    001246  aa   000000 000000
    001247  aa   000000 000000
    001250  5a   000262 000000
    001251  5a   000304 000000
    001252  5a   000336 000000
    001253  5a   000404 000000
    001254  5a   000221 000000
    001255  5a   000447 000000
    001256  5a   000625 000000
    001257  5a   000106 000000
    001260  aa   000000 000000
    001261  5a   000012 000000
    001262  5a   000505 000000
    001263  5a   000066 000000
    001264  5a   000527 000000
    001265  5a   000316 000000
    001266  5a   000326 000000
    001267  5a   000350 000000
    001270  aa   000000 000000
    001271  aa   000000 000000
    001272  5a   000076 000000
    001273  5a   000274 000000
    001274  aa   000000 000000
    001275  aa   000000 000000
    001276  5a   000043 000000
    001277  5a   000540 000000
    001300  aa   000000 000000
    001301  5a   000055 000000

EXTERNAL NAMES

    001302  aa  026 160 141 162         parse_new_message_text
    001303  aa  163 145 137 156
    001304  aa  145 167 137 155
    001305  aa  145 163 163 141
    001306  aa  147 145 137 164
    001307  aa  145 170 164 000
    001310  aa  021 155 154 163         mlsys_parse_text_
    001311  aa  171 163 137 160
    001312  aa  141 162 163 145
    001313  aa  137 164 145 170
    001314  aa  164 137 000 000
    001315  aa  031 155 154 163         mlsys_parse_control_args_
    001316  aa  171 163 137 160
    001317  aa  141 162 163 145
    001320  aa  137 143 157 156
    001321  aa  164 162 157 154
    001322  aa  137 141 162 147
    001323  aa  163 137 000 000
    001324  aa  015 155 154 163         mlsys_format_
    001325  aa  171 163 137 146
    001326  aa  157 162 155 141
    001327  aa  164 137 000 000
    001330  aa  021 155 154 163         mlsys_misc_utils_
    001331  aa  171 163 137 155
    001332  aa  151 163 143 137
    001333  aa  165 164 151 154
    001334  aa  163 137 000 000
    001335  aa  024 155 154 163         mlsys_mailbox_utils_
    001336  aa  171 163 137 155
    001337  aa  141 151 154 142
    001340  aa  157 170 137 165
    001341  aa  164 151 154 163
    001342  aa  137 000 000 000

NO TRAP POINTER WORDS

TYPE PAIR BLOCKS

    001343  aa   000004 000000
    001344  55   001152 000015
    001345  aa   000004 000000
    001346  55   001152 000025
    001347  aa   000004 000000
    001350  55   001152 000037
    001351  aa   000004 000000
    001352  55   001157 000046
    001353  aa   000004 000000
    001354  55   001152 000060
    001355  aa   000004 000000
    001356  55   001146 000071
    001357  aa   000004 000000
    001360  55   001146 000101
    001361  aa   000004 000000
    001362  55   001146 000111
    001363  aa   000004 000000
    001364  55   001152 000123
    001365  aa   000004 000000
    001366  55   001152 000136
    001367  aa   000004 000000
    001370  55   001146 000147
    001371  aa   000004 000000
    001372  55   001146 000161
    001373  aa   000004 000000
    001374  55   001146 000172
    001375  aa   000004 000000
    001376  55   001146 000203
    001377  aa   000004 000000
    001400  55   001146 000214
    001401  aa   000004 000000
    001402  55   001146 000224
    001403  aa   000004 000000
    001404  55   001152 000233
    001405  aa   000004 000000
    001406  55   001146 000244
    001407  aa   000004 000000
    001410  55   001146 000255
    001411  aa   000004 000000
    001412  55   001146 000265
    001413  aa   000004 000000
    001414  55   001146 000277
    001415  aa   000004 000000
    001416  55   001146 000307
    001417  aa   000004 000000
    001420  55   001132 001124
    001421  aa   000004 000000
    001422  55   001137 000331
    001423  aa   000004 000000
    001424  55   001137 000341
    001425  aa   000004 000000
    001426  55   001132 000353
    001427  aa   000004 000000
    001430  55   001132 000363
    001431  aa   000004 000000
    001432  55   001137 000374
    001433  aa   000004 000000
    001434  55   001137 000407
    001435  aa   000004 000000
    001436  55   001157 000421
    001437  aa   000004 000000
    001440  55   001152 000431
    001441  aa   000004 000000
    001442  55   001146 000442
    001443  aa   000004 000000
    001444  55   001146 000452
    001445  aa   000004 000000
    001446  55   001146 000463
    001447  aa   000004 000000
    001450  55   001146 000476
    001451  aa   000004 000000
    001452  55   001146 000510
    001453  aa   000004 000000
    001454  55   001146 000521
    001455  aa   000004 000000
    001456  55   001146 000532
    001457  aa   000004 000000
    001460  55   001146 000543
    001461  aa   000004 000000
    001462  55   001146 000556
    001463  aa   000004 000000
    001464  55   001146 000566
    001465  aa   000004 000000
    001466  55   001146 000575
    001467  aa   000004 000000
    001470  55   001146 000606
    001471  aa   000004 000000
    001472  55   001146 000616
    001473  aa   000004 000000
    001474  55   001146 000630
    001475  aa   000004 000000
    001476  55   001146 000641
    001477  aa   000004 000000
    001500  55   001157 000653
    001501  aa   000004 000000
    001502  55   001157 000665
    001503  aa   000004 000000
    001504  55   001157 000674
    001505  aa   000004 000000
    001506  55   001152 000703
    001507  aa   000004 000000
    001510  55   001157 000714
    001511  aa   000004 000000
    001512  55   001157 000723
    001513  aa   000004 000000
    001514  55   001157 000732
    001515  aa   000004 000000
    001516  55   001157 000743
    001517  aa   000004 000000
    001520  55   001157 000755
    001521  aa   000001 000000
    001522  aa   000000 000000

INTERNAL EXPRESSION WORDS

    001523  5a   001165 000000
    001524  5a   001167 000000
    001525  5a   001171 000000
    001526  5a   001173 000000
    001527  5a   001175 000000
    001530  5a   001177 000000
    001531  5a   001201 000000
    001532  5a   001203 000000
    001533  5a   001205 000000
    001534  5a   001207 000000
    001535  5a   001211 000000
    001536  5a   001213 000000
    001537  5a   001215 000000
    001540  5a   001217 000000
    001541  5a   001221 000000
    001542  5a   001223 000000
    001543  5a   001225 000000
    001544  5a   001227 000000
    001545  5a   001231 000000
    001546  5a   001233 000000
    001547  5a   001235 000000
    001550  5a   001237 000000
    001551  5a   001241 000000
    001552  5a   001243 000000
    001553  5a   001245 000000
    001554  5a   001247 000000
    001555  5a   001251 000000
    001556  5a   001253 000000
    001557  5a   001255 000000
    001560  5a   001257 000000
    001561  5a   001261 000000
    001562  5a   001263 000000
    001563  5a   001265 000000
    001564  5a   001267 000000
    001565  5a   001271 000000
    001566  5a   001273 000000
    001567  5a   001275 000000
    001570  5a   001277 000000
    001571  5a   001301 000000
    001572  5a   001303 000000
    001573  5a   001305 000000
    001574  5a   001307 000000
    001575  5a   001311 000000
    001576  5a   001313 000000
    001577  5a   001315 000000
    001600  5a   001317 000000
    001601  5a   001321 000000
    001602  5a   001323 000000
    001603  5a   001325 000000
    001604  5a   001327 000000
    001605  5a   001331 000000
    001606  5a   001333 000000
    001607  5a   001335 000000
    001610  5a   001337 000000
    001611  5a   001341 000000
LINKAGE INFORMATION

    000000  aa   000000 000000
    000001  0a   000156 000000
    000002  aa   000000 000000
    000003  aa   000000 000000
    000004  aa   000000 000000
    000005  aa   000000 000000
    000006  22   000010 000166
    000007  a2   000000 000000
    000010  9a   777770 0000 46         mlsys_mailbox_utils_|add_mailbox_acl_entries
    000011  5a   001433 0000 00
    000012  9a   777766 0000 46         mlsys_mailbox_utils_|classify_mailbox_address
    000013  5a   001432 0000 00
    000014  9a   777764 0000 46         mlsys_mailbox_utils_|create_default_mailbox
    000015  5a   001431 0000 00
    000016  9a   777762 0000 46         mlsys_mailbox_utils_|create_logbox
    000017  5a   001430 0000 00
    000020  9a   777760 0000 46         mlsys_mailbox_utils_|create_mailbox
    000021  5a   001427 0000 00
    000022  9a   777756 0000 46         mlsys_misc_utils_|create_reply_message
    000023  5a   001426 0000 00
    000024  9a   777754 0000 46         mlsys_mailbox_utils_|create_savebox
    000025  5a   001425 0000 00
    000026  9a   777752 0000 46         mlsys_mailbox_utils_|delete_mailbox
    000027  5a   001424 0000 00
    000030  9a   777750 0000 46         mlsys_mailbox_utils_|delete_mailbox_acl_entries
    000031  5a   001423 0000 00
    000032  9a   777746 0000 46         mlsys_format_|format_access_class_field
    000033  5a   001422 0000 00
    000034  9a   777744 0000 46         mlsys_format_|format_address_field
    000035  5a   001421 0000 00
    000036  9a   777742 0000 46         mlsys_format_|format_address_list_field
    000037  5a   001420 0000 00
    000040  9a   777740 0000 46         mlsys_format_|format_body_section
    000041  5a   001417 0000 00
    000042  9a   777736 0000 46         mlsys_format_|format_date_time_field
    000043  5a   001416 0000 00
    000044  9a   777734 0000 46         mlsys_format_|format_message
    000045  5a   001415 0000 00
    000046  9a   777732 0000 46         mlsys_format_|format_message_body
    000047  5a   001414 0000 00
    000050  9a   777730 0000 46         mlsys_format_|format_message_canonical_form
    000051  5a   001413 0000 00
    000052  9a   777726 0000 46         mlsys_format_|format_message_envelope
    000053  5a   001412 0000 00
    000054  9a   777724 0000 46         mlsys_format_|format_message_header
    000055  5a   001411 0000 00
    000056  9a   777722 0000 46         mlsys_format_|format_message_id_field
    000057  5a   001410 0000 00
    000060  9a   777720 0000 46         mlsys_format_|format_redistributions_list
    000061  5a   001407 0000 00
    000062  9a   777716 0000 46         mlsys_format_|format_references_list_field
    000063  5a   001406 0000 00
    000064  9a   777714 0000 46         mlsys_format_|format_message_trace
    000065  5a   001405 0000 00
    000066  9a   777712 0000 46         mlsys_format_|format_text_field
    000067  5a   001404 0000 00
    000070  9a   777710 0000 46         mlsys_misc_utils_|free_delivery_results
    000071  5a   001403 0000 00
    000072  9a   777706 0000 46         mlsys_mailbox_utils_|list_mailbox_acl
    000073  5a   001402 0000 00
    000074  9a   777704 0000 46         mlsys_parse_control_args_|parse_address_control_args
    000075  5a   001401 0000 00
    000076  9a   777702 0000 46         mlsys_parse_control_args_|parse_address_list_control_args
    000077  5a   001400 0000 00
    000100  9a   777700 0000 46         mlsys_parse_text_|parse_address_list_text
    000101  5a   001377 0000 00
    000102  9a   777676 0000 46         mlsys_parse_text_|parse_address_text
    000103  5a   001376 0000 00
    000104  9a   777674 0000 46         mlsys_parse_control_args_|parse_mailbox_control_args
    000105  5a   001375 0000 00
    000106  9a   777672 0000 46         mlsys_parse_control_args_|parse_mailbox_text
    000107  5a   001374 0000 00
    000110  9a   777670 0000 46         mlsys_parse_text_|parse_new_message_text
    000111  5a   001373 0000 00
    000112  9a   777666 0000 46         mlsys_format_|print_access_class_field
    000113  5a   001372 0000 00
    000114  9a   777664 0000 46         mlsys_format_|print_address_field
    000115  5a   001371 0000 00
    000116  9a   777662 0000 46         mlsys_format_|print_address_list_field
    000117  5a   001370 0000 00
    000120  9a   777660 0000 46         mlsys_format_|print_body_section
    000121  5a   001367 0000 00
    000122  9a   777656 0000 46         mlsys_format_|print_date_time_field
    000123  5a   001366 0000 00
    000124  9a   777654 0000 46         mlsys_misc_utils_|print_delivery_results
    000125  5a   001365 0000 00
    000126  9a   777652 0000 46         mlsys_format_|print_message
    000127  5a   001364 0000 00
    000130  9a   777650 0000 46         mlsys_format_|print_message_body
    000131  5a   001363 0000 00
    000132  9a   777646 0000 46         mlsys_format_|print_message_envelope
    000133  5a   001362 0000 00
    000134  9a   777644 0000 46         mlsys_format_|print_message_header
    000135  5a   001361 0000 00
    000136  9a   777642 0000 46         mlsys_format_|print_message_id_field
    000137  5a   001360 0000 00
    000140  9a   777640 0000 46         mlsys_format_|print_redistributions_list
    000141  5a   001357 0000 00
    000142  9a   777636 0000 46         mlsys_misc_utils_|print_message_summary
    000143  5a   001356 0000 00
    000144  9a   777634 0000 46         mlsys_misc_utils_|print_message_summary_header
    000145  5a   001355 0000 00
    000146  9a   777632 0000 46         mlsys_format_|print_references_list_field
    000147  5a   001354 0000 00
    000150  9a   777630 0000 46         mlsys_format_|print_message_trace
    000151  5a   001353 0000 00
    000152  9a   777626 0000 46         mlsys_format_|print_text_field
    000153  5a   001352 0000 00
    000154  9a   777624 0000 46         mlsys_misc_utils_|print_validate_results
    000155  5a   001351 0000 00
    000156  9a   777622 0000 46         mlsys_mailbox_utils_|replace_mailbox_acl_entries
    000157  5a   001350 0000 00
    000160  9a   777620 0000 46         mlsys_misc_utils_|search_message
    000161  5a   001347 0000 00
    000162  9a   777616 0000 46         mlsys_misc_utils_|send_message_to_recipient
    000163  5a   001346 0000 00
    000164  9a   777614 0000 46         mlsys_misc_utils_|summarize_address
    000165  5a   001345 0000 00
SYMBOL INFORMATION

SYMBOL TABLE HEADER

    000000  aa   000000 000001
    000001  aa   163171 155142
    000002  aa   164162 145145
    000003  aa   000000 000004
    000004  aa   000000 112143
    000005  aa   305203 523135
    000006  aa   000000 112670
    000007  aa   067206 351755
    000010  aa   141154 155040
    000011  aa   040040 040040
    000012  aa   000024 000040
    000013  aa   000034 000040
    000014  aa   000044 000100
    000015  aa   000002 000002
    000016  aa   000064 000000
    000017  aa   000000 000160
    000020  aa   000000 000105
    000021  aa   000000 000124
    000022  aa   000152 000105
    000023  aa   000064 000000
    000024  aa   101114 115040
    000025  aa   126145 162163
    000026  aa   151157 156040
    000027  aa   040066 056066
    000030  aa   040040 116157
    000031  aa   166145 155142
    000032  aa   145162 040061
    000033  aa   071070 062040
    000034  aa   107112 157150
    000035  aa   156163 157156
    000036  aa   056123 171163
    000037  aa   115141 151156
    000040  aa   164056 141040
    000041  aa   040040 040040
    000042  aa   040040 040040
    000043  aa   040040 040040
    000044  aa   154151 163164
    000045  aa   040040 040040
    000046  aa   040040 040040
    000047  aa   040040 040040
    000050  aa   040040 040040
    000051  aa   040040 040040
    000052  aa   040040 040040
    000053  aa   040040 040040
    000054  aa   040040 040040
    000055  aa   040040 040040
    000056  aa   040040 040040
    000057  aa   040040 040040
    000060  aa   040040 040040
    000061  aa   040040 040040
    000062  aa   040040 040040
    000063  aa   040040 040040
    000064  aa   000000 000001
    000065  aa   000000 000001
    000066  aa   000072 000051
    000067  aa   126651 053724
    000070  aa   000000 112670
    000071  aa   066762 600000
    000072  aa   076163 160145          >special_ldd>on>06/15/84>mlsys_utils_.alm
    000073  aa   143151 141154
    000074  aa   137154 144144
    000075  aa   076157 156076
    000076  aa   060066 057061
    000077  aa   065057 070064
    000100  aa   076155 154163
    000101  aa   171163 137165
    000102  aa   164151 154163
    000103  aa   137056 141154
    000104  aa   155040 040040
               MULTICS ASSEMBLY CROSS REFERENCE LISTING

   Value        Symbol                   Source file   Line number

           0    add_mailbox_acl_entries  mlsys_utils_:        23.
           2    classify_mailbox_address       mlsys_utils_:        24.
           4    create_default_mailbox   mlsys_utils_:        25.
           6    create_logbox            mlsys_utils_:        26.
          10    create_mailbox           mlsys_utils_:        27.
          12    create_reply_message     mlsys_utils_:        29.
          14    create_savebox           mlsys_utils_:        30.
          16    delete_mailbox           mlsys_utils_:        31.
          20    delete_mailbox_acl_entries     mlsys_utils_:        32.
          22    format_access_class_field      mlsys_utils_:        33.
          24    format_address_field     mlsys_utils_:        35.
          26    format_address_list_field      mlsys_utils_:        36.
          30    format_body_section      mlsys_utils_:        37.
          32    format_date_time_field   mlsys_utils_:        38.
          34    format_message           mlsys_utils_:        39.
          36    format_message_body      mlsys_utils_:        41.
          40    format_message_canonical_form  mlsys_utils_:        42.
          42    format_message_envelope  mlsys_utils_:        43.
          44    format_message_header    mlsys_utils_:        44.
          46    format_message_id_field  mlsys_utils_:        45.
          54    format_message_trace     mlsys_utils_:        49.
          50    format_redistributions_list    mlsys_utils_:        47.
          52    format_references_list_field   mlsys_utils_:        48.
          56    format_text_field        mlsys_utils_:        50.
          60    free_delivery_results    mlsys_utils_:        51.
          62    list_mailbox_acl         mlsys_utils_:        53.
                mlsys_format_            mlsys_utils_:        33,   35,   36,   37,   38,   39,   41,   42,   43,   44,   45,
                                                              47,   48,   49,   50,   62,   63,   65,   66,   67,   69,   71,
                                                              72,   73,   74,   75,   79,   80,   81.
                mlsys_mailbox_utils_     mlsys_utils_:        23,   24,   25,   26,   27,   30,   31,   32,   53,   84.
                mlsys_misc_utils_        mlsys_utils_:        29,   51,   68,   77,   78,   83,   85,   86,   87.
                mlsys_parse_control_args_      mlsys_utils_:        54,   55,   59,   60.
                mlsys_parse_text_        mlsys_utils_:        56,   57,   61.
          64    parse_address_control_args     mlsys_utils_:        54.
          66    parse_address_list_control_args      mlsys_utils_:        55.
          70    parse_address_list_text  mlsys_utils_:        56.
          72    parse_address_text       mlsys_utils_:        57.
          74    parse_mailbox_control_args     mlsys_utils_:        59.
          76    parse_mailbox_text       mlsys_utils_:        60.
         100    parse_message_text       mlsys_utils_:        61.
                parse_new_message_text   mlsys_utils_:        61.
         102    print_access_class_field       mlsys_utils_:        62.
         104    print_address_field      mlsys_utils_:        63.
         106    print_address_list_field       mlsys_utils_:        65.
         110    print_body_section       mlsys_utils_:        66.
         112    print_date_time_field    mlsys_utils_:        67.
         114    print_delivery_results   mlsys_utils_:        68.
         116    print_message            mlsys_utils_:        69.
         120    print_message_body       mlsys_utils_:        71.
         122    print_message_envelope   mlsys_utils_:        72.
         124    print_message_header     mlsys_utils_:        73.
         126    print_message_id_field   mlsys_utils_:        74.
         132    print_message_summary    mlsys_utils_:        77.
         134    print_message_summary_header   mlsys_utils_:        78.
         140    print_message_trace      mlsys_utils_:        80.
         130    print_redistributions_list     mlsys_utils_:        75.
         136    print_references_list_field    mlsys_utils_:        79.
         142    print_text_field         mlsys_utils_:        81.
         144    print_validate_results   mlsys_utils_:        83.
         146    replace_mailbox_acl_entries    mlsys_utils_:        84.
         150    search_message           mlsys_utils_:        85.
         152    send_message_to_recipient      mlsys_utils_:        86.
         154    summarize_address        mlsys_utils_:        87.


NO FATAL ERRORS


                                          -----------------------------------------------------------


Historical Background

This edition of the Multics software materials and documentation is provided and donated
to Massachusetts Institute of Technology by Group BULL including BULL HN Information Systems Inc.
as a contribution to computer science knowledge.
This donation is made also to give evidence of the common contributions of Massachusetts Institute of Technology,
Bell Laboratories, General Electric, Honeywell Information Systems Inc., Honeywell BULL Inc., Groupe BULL
and BULL HN Information Systems Inc. to the development of this operating system.
Multics development was initiated by Massachusetts Institute of Technology Project MAC (1963-1970),
renamed the MIT Laboratory for Computer Science and Artificial Intelligence in the mid 1970s, under the leadership
of Professor Fernando Jose Corbato. Users consider that Multics provided the best software architecture
for managing computer hardware properly and for executing programs. Many subsequent operating systems
incorporated Multics principles.
Multics was distributed in 1975 to 2000 by Group Bull in Europe , and in the U.S. by Bull HN Information Systems Inc.,
as successor in interest by change in name only to Honeywell Bull Inc. and Honeywell Information Systems Inc. .

                                          -----------------------------------------------------------

Permission to use, copy, modify, and distribute these programs and their documentation for any purpose and without
fee is hereby granted,provided that the below copyright notice and historical background appear in all copies
and that both the copyright notice and historical background and this permission notice appear in supporting
documentation, and that the names of MIT, HIS, BULL or BULL HN not be used in advertising or publicity pertaining
to distribution of the programs without specific prior written permission.
    Copyright 1972 by Massachusetts Institute of Technology and Honeywell Information Systems Inc.
    Copyright 2006 by BULL HN Information Systems Inc.
    Copyright 2006 by Bull SAS
    All Rights Reserved
