ASSEMBLY LISTING OF SEGMENT >udd>sm>ds>w>ml>mlsys_et_.alm
ASSEMBLED ON:	04/17/00  1947.6 mdt Mon
OPTIONS USED:	list symbols
ASSEMBLED BY:	ALM Version 8.14 March 1989
ASSEMBLER CREATED:	06/09/89  1102.3 mdt Fri

                                     1  "  ***********************************************************
                                     2  "  *                                                         *
                                     3  "  * Copyright, (C) Honeywell Information Systems Inc., 1981 *
                                     4  "  *                                                         *
                                     5  "  ***********************************************************
                                     6
                                     7  " Error table for the Multics Mail System
                                     8
                                     9  " Created:  May 1981 by G. Palter
                                    10  " Modified: June 1983 by G. Palter for new interface specification
                                    11  " Modified: March 1984 by G. Palter to add incorrect_suffix
                                    12
                                    13
    000000                          14  	name	mlsys_et_
                                    15
                                    16  	include	et_macros
                                   1-1  " Begin include file ...... et_macros.incl.alm
                                   1-2  "	Written 6/15/77 by Noel I. Morris
                                   1-3  "	Modified '82 so error code entries are in first page of segment.
                                   1-4
                                   1-5  " This include file contains macros for generating error tables
                                   1-6  " for both system and non-system use.
                                   1-7
                                   1-8  " ET MACRO
                                   1-9  "
                                  1-10  " This macro is used to initialize the error table for either
                                  1-11  " system or non-system use.  It is invoked at the beginning of
                                  1-12  " the error table as follows:
                                  1-13  "
                                  1-14  "	et	table_name{,system}
                                  1-15  "
                                  1-16
                                  1-17  macro	et
                              1   1-18  	maclist	on
                              2   1-19
                              3   1-20  	name	&1
                              4   1-21
                              5   1-22  &^=&2,system&[
                              6   1-23
                              7   1-24  	include	stack_header
                              8   1-25
                              9   1-26  
                             10   1-27
                             11   1-28  	use	codes
                             12   1-29  .code_start:
                             13   1-30
                             14   1-31  	use	past_codes
                             15   1-32  .code_end:
                             16   1-33
                             17   1-34  	join	/link/codes,past_codes
                             18   1-35
                             19   1-36  	use	messages
                             20   1-37
                             21   1-38  .trapproc:
                             22   1-39  	epaq	0,ic
                             23   1-40  	eax0	0,au
                             24   1-41  	epbpsb	sp|0
                             25   1-42  	lprplp	sb|stack_header.lot_ptr,*au
                             26   1-43  	eax1	.code_start
                             27   1-44  .loop:	stx0	lp|0,x1
                             28   1-45  	eax1	1,x1
                             29   1-46  	cmpx1	.code_end,du
                             30   1-47  	tmi	.loop-*,ic
                             31   1-48  	short_return
                             32   1-49
                             33   1-50  	firstref	<*text>|.trapproc
                             34   1-51
                             35   1-52  &;	use	codes
                             36   1-53  	use	messages
                             37   1-54
                             38   1-55  	join	/text/codes,messages
                             39   1-56
                             40   1-57  &]
                             41   1-58
                             42   1-59  	bool	.segno,77777
                             43   1-60
                             44   1-61  	maclist	off
                             45   1-62
                             46   1-63  	&end
                                  1-64
                                  1-65  
                                  1-66
                                  1-67  " EC MACRO
                                  1-68  "
                                  1-69  " This macro is used to define an error code as shown:
                                  1-70  "
                                  1-71  "	ec	name,{short_mess},(long_mess)
                                  1-72  "
                                  1-73  " If more than a single name is to be defined for a given message,
                                  1-74  " a list of names separated by commas and enclosed in parentheses
                                  1-75  " must be given.   short_mess must be 8 or less characters.  If omitted,
                                  1-76  " the short_mess will be set to the name.  long_mess is enclosed
                                  1-77  " in parentheses in order to cause ALM to ignore embedded blanks.  Please
                                  1-78  " note that double quote characters in either short_mess or long_mess
                                  1-79  " must be doubled in order to make the ALM assembly work properly.
                                  1-80  " Note that a macro invocation line terminated by a comma will cause that
                                  1-81  " statement to be continued on the next line.
                                  1-82
                                  1-83  macro	ec
                              1   1-84  	use	codes
                              2   1-85
                              3   1-86  	maclist	on,save
                              4   1-87  &(1	segdef  &i
                              5   1-88  &)	maclist	restore
                              6   1-89  &(1&i:
                              7   1-90  &)	maclist	object,save
                              8   1-91  	zero	.segno,&U
                              9   1-92  	maclist	restore
                             10   1-93  	use	messages
                             11   1-94  &^=&l2,0&[	shortname    &2
                             12   1-95  &;	shortname    &1
                             13   1-96  &]
                             14   1-97  &U:
                             15   1-98  	maclist	on,save
                             16   1-99  	acc  "&3"
                             17  1-100
                             18  1-101  	maclist	restore
                             19  1-102  	&end
                                 1-103
                                 1-104  macro	shortname
                              1  1-105  	maclist	on,save
                              2  1-106  	aci  "&1",8
                              3  1-107  	maclist	restore
                              4  1-108  	&end
                                 1-109
                                 1-110  
                                 1-111
                                 1-112  " A typical error table source program might have the following format:
                                 1-113  "
                                 1-114  "	include	et_macros
                                 1-115  "
                                 1-116  "	et	name_of_error_table
                                 1-117  "
                                 1-118  "	ec	error_code_1,ecode1,(This is error code 1.)
                                 1-119  "
                                 1-120  "	ec	error_code_2,ecode2,(This is error code 2.)
                                 1-121  "
                                 1-122  "	:	     :	      :		:
                                 1-123  "
                                 1-124  "	ec	error_code_n,ecoden,(This is the nth error code.)
                                 1-125  "
                                 1-126  "	end
                                 1-127  "
                                 1-128
                                 1-129  " End of include file ...... et_macros.incl.alm
                                 1-130
                                    17
                                    18  	et	mlsys_et_

    000000                              	name	mlsys_et_


                                        	include	stack_header
                                   2-1  "	BEGIN INCLUDE FILE ... stack_header.incl.alm  3/72  Bill Silver
                                   2-2  "
                                   2-3  "	modified 7/76 by M. Weaver for *system links and more system use of areas
                                   2-4  "	modified 3/77 by M. Weaver  to add rnt_ptr
                                   2-5  "	modified 7/77 by S. Webber to add run_unit_depth and assign_linkage_ptr
                                   2-6  "	modified 6/83 by J. Ives to add trace_frames and in_trace.
                                   2-7
                                   2-8  " HISTORY COMMENTS:
                                   2-9  "  1) change(86-06-24,DGHowe), approve(86-06-24,MCR7396),
                                  2-10  "     audit(86-08-05,Schroth), install(86-11-03,MR12.0-1206):
                                  2-11  "     added the heap_header_ptr definition
                                  2-12  "  2) change(86-08-12,Kissel), approve(86-08-12,MCR7473),
                                  2-13  "     audit(86-10-10,Fawcett), install(86-11-03,MR12.0-1206):
                                  2-14  "     Modified to support control point management.  These changes were
                                  2-15  "     actually made in February 1985 by G. Palter.
                                  2-16  "  3) change(86-10-22,Fawcett), approve(86-10-22,MCR7473),
                                  2-17  "     audit(86-10-22,Farley), install(86-11-03,MR12.0-1206):
                                  2-18  "     Remove the old_lot pointer and replace it with cpm_data_ptr. Use the 18
                                  2-19  "     bit pad after cur_lot_size for the cpm_enabled. This was done to save
                                  2-20  "     some space int the stack header and change the cpd_ptr unal to
                                  2-21  "     cpm_data_ptr (ITS pair).
                                  2-22  "                                                      END HISTORY COMMENTS
                                  2-23
                        000004    2-24  	equ	stack_header.cpm_data_ptr,4		ptr to control point for this stack
                        000006    2-25  	equ	stack_header.combined_stat_ptr,6	ptr to separate static area
                                  2-26
                        000010    2-27  	equ	stack_header.clr_ptr,8		ptr to area containing linkage sections
                        000012    2-28  	equ	stack_header.max_lot_size,10		number of words allowed in lot (DU)
                        000012    2-29  	equ	stack_header.main_proc_invoked,10	nonzero if main proc was invoked in run unit (DL)
                        000012    2-30  	equ	stack_header.run_unit_depth,10	number of active run units stacked (DL)
                        000013    2-31  	equ	stack_header.cur_lot_size,11		DU number of words (entries) in lot
                        000013    2-32            equ	stack_header.cpm_enabled,11		DL  non-zero if control point management is enabled
                        000014    2-33  	equ	stack_header.system_free_ptr,12	ptr to system storage area
                        000016    2-34  	equ	stack_header.user_free_ptr,14		ptr to user storage area
                                  2-35
                        000020    2-36  	equ	stack_header.parent_ptr,16		ptr to parent stack or null
                        000022    2-37  	equ	stack_header.stack_begin_ptr,18	ptr to first stack frame
                        000024    2-38  	equ	stack_header.stack_end_ptr,20		ptr to next useable stack frame
                        000026    2-39  	equ	stack_header.lot_ptr,22		ptr to the lot for the current ring
                                  2-40
                        000030    2-41  	equ	stack_header.signal_ptr,24		ptr to signal proc for current ring
                        000032    2-42  	equ	stack_header.bar_mode_sp,26		value of sp before entering bar mode
                        000034    2-43  	equ	stack_header.pl1_operators_ptr,28	ptr: pl1_operators_$operator_table
                        000036    2-44  	equ	stack_header.call_op_ptr,30		ptr to standard call operator
                                  2-45
                        000040    2-46  	equ	stack_header.push_op_ptr,32		ptr to standard push operator
                        000042    2-47  	equ	stack_header.return_op_ptr,34		ptr to standard return operator
                        000044    2-48  	equ	stack_header.ret_no_pop_op_ptr,36	ptr: stand. return/ no pop operator
                        000046    2-49  	equ	stack_header.entry_op_ptr,38		ptr to standard entry operator
                                  2-50
                        000050    2-51  	equ	stack_header.trans_op_tv_ptr,40	ptr to table of translator operator ptrs
                        000052    2-52  	equ	stack_header.isot_ptr,42		pointer to ISOT
                        000054    2-53  	equ	stack_header.sct_ptr,44		pointer to System Condition Table
                        000056    2-54  	equ	stack_header.unwinder_ptr,46		pointer to unwinder for current ring
                                  2-55
                        000060    2-56  	equ	stack_header.sys_link_info_ptr,48	ptr to *system link name table
                        000062    2-57  	equ	stack_header.rnt_ptr,50		ptr to reference name table
                        000064    2-58  	equ	stack_header.ect_ptr,52		ptr to event channel table
                        000066    2-59  	equ	stack_header.assign_linkage_ptr,54	ptr to area for hcs_$assign_linkage calls
                        000070    2-60  	equ	stack_header.heap_header_ptr,56	ptr to heap header.
                        000072    2-61  	equ	stack_header.trace_frames,58		stack of trace_catch_ frames
                        000073    2-62  	equ	stach_header.trace_top_ptr,59		trace pointer
                        000074    2-63  	equ	stack_header.in_trace,60		trace antirecurse bit
                        000100    2-64  	equ	stack_header_end,64			length of stack header
                                  2-65
                                  2-66
                                  2-67
                                  2-68
                        000000    2-69  	equ	trace_frames.count,0		number of trace frames on stack
                        000001    2-70  	equ	trace_frames.top_ptr,1		packed pointer to top one
                                  2-71
                                  2-72  "	The  following constant is an offset within the  pl1  operators table.
                                  2-73  "	It  references a  transfer vector table.
                                  2-74
                        000551    2-75  	bool	tv_offset,551
                                  2-76
                                  2-77
                                  2-78  "	The  following constants are offsets within this transfer vector table.
                                  2-79
                        001170    2-80  	equ	call_offset,tv_offset+271
                        001171    2-81  	equ	push_offset,tv_offset+272
                        001172    2-82  	equ	return_offset,tv_offset+273
                        001173    2-83  	equ	return_no_pop_offset,tv_offset+274
                        001174    2-84  	equ	entry_offset,tv_offset+275
                                  2-85
                                  2-86
                                  2-87  " 	END INCLUDE FILE stack_header.incl.alm

                                        

                                        	use	codes
    000010                              .code_start:

                                        	use	past_codes
    000207                              .code_end:

                                        	join	/link/codes,past_codes

                                        	use	messages

    000000                              .trapproc:
    000000  aa   000000 2130 04         	epaq	0,ic
    000001  aa   000000 6200 01         	eax0	0,au
    000002  aa  6 00000 3731 00         	epbpsb	sp|0
    000003  aa  7 00026 7641 61         	lprplp	sb|stack_header.lot_ptr,*au
    000004  8a   000010 6210 00         	eax1	.code_start
    000005  aa  4 00000 7401 11         .loop:	stx0	lp|0,x1
    000006  aa   000001 6210 11         	eax1	1,x1
    000007  8a   000207 1010 03         	cmpx1	.code_end,du
    000010  aa   777775 6040 04         	tmi	.loop-*,ic
    000011  aa  7 00044 7101 20         	short_return

    000012                              	firstref	<*text>|.trapproc


                        077777          	bool	.segno,77777

                                    19
                                    20
                                    21  ec   address_pathname_expected,^path,
                                    22  	(The pathname for the address was not supplied in the text.)
                        000010          	segdef  address_pathname_expected
    000010  a0   077777 000014
    000012  aa  136 160 141 164         	aci  "^path",8
    000013  aa  150 040 040 040
    000014  aa  072 124 150 145         	acc  "The pathname for the address was not supplied in the text."
    000015  aa  040 160 141 164
    000016  aa  150 156 141 155
    000017  aa  145 040 146 157
    000020  aa  162 040 164 150
    000021  aa  145 040 141 144
    000022  aa  144 162 145 163
    000023  aa  163 040 167 141
    000024  aa  163 040 156 157
    000025  aa  164 040 163 165
    000026  aa  160 160 154 151
    000027  aa  145 144 040 151
    000030  aa  156 040 164 150
    000031  aa  145 040 164 145
    000032  aa  170 164 056 000

                                    23
                                    24  ec   address_pathname_too_long_to_q,pathlong,
                                    25  	(Implementation restriction.  The inter-system mailer can not accept pathnames longer than 128 characters.)
                        000011          	segdef  address_pathname_too_long_to_q
    000011  a0   077777 000035
    000033  aa  160 141 164 150         	aci  "pathlong",8
    000034  aa  154 157 156 147
    000035  aa  151 111 155 160         	acc  "Implementation restriction.  The inter-system mailer can not accept pathnames longer than 128 characters."
    000036  aa  154 145 155 145
    000037  aa  156 164 141 164
    000040  aa  151 157 156 040
    000041  aa  162 145 163 164
    000042  aa  162 151 143 164
    000043  aa  151 157 156 056
    000044  aa  040 040 124 150
    000045  aa  145 040 151 156
    000046  aa  164 145 162 055
    000047  aa  163 171 163 164
    000050  aa  145 155 040 155
    000051  aa  141 151 154 145
    000052  aa  162 040 143 141
    000053  aa  156 040 156 157
    000054  aa  164 040 141 143
    000055  aa  143 145 160 164
    000056  aa  040 160 141 164
    000057  aa  150 156 141 155
    000060  aa  145 163 040 154
    000061  aa  157 156 147 145
    000062  aa  162 040 164 150
    000063  aa  141 156 040 061
    000064  aa  062 070 040 143
    000065  aa  150 141 162 141
    000066  aa  143 164 145 162
    000067  aa  163 056 000 000

                                    26
                                    27  ec   all_messages_deleted,allmsgdl,
                                    28  	(All messages have been deleted.)
                        000012          	segdef  all_messages_deleted
    000012  a0   077777 000072
    000070  aa  141 154 154 155         	aci  "allmsgdl",8
    000071  aa  163 147 144 154
    000072  aa  037 101 154 154         	acc  "All messages have been deleted."
    000073  aa  040 155 145 163
    000074  aa  163 141 147 145
    000075  aa  163 040 150 141
    000076  aa  166 145 040 142
    000077  aa  145 145 156 040
    000100  aa  144 145 154 145
    000101  aa  164 145 144 056

                                    29
                                    30  ec   already_marked_for_deletion,deleted,
                                    31  	(Specified message has already been marked for subsequent deletion.)
                        000013          	segdef  already_marked_for_deletion
    000013  a0   077777 000104
    000102  aa  144 145 154 145         	aci  "deleted",8
    000103  aa  164 145 144 040
    000104  aa  102 123 160 145         	acc  "Specified message has already been marked for subsequent deletion."
    000105  aa  143 151 146 151
    000106  aa  145 144 040 155
    000107  aa  145 163 163 141
    000110  aa  147 145 040 150
    000111  aa  141 163 040 141
    000112  aa  154 162 145 141
    000113  aa  144 171 040 142
    000114  aa  145 145 156 040
    000115  aa  155 141 162 153
    000116  aa  145 144 040 146
    000117  aa  157 162 040 163
    000120  aa  165 142 163 145
    000121  aa  161 165 145 156
    000122  aa  164 040 144 145
    000123  aa  154 145 164 151
    000124  aa  157 156 056 000

                                    32
                                    33  ec   ambiguous_address,ambigadr,
                                    34  	(The supplied name matches more than one entry in the system mail table.)
                        000014          	segdef  ambiguous_address
    000014  a0   077777 000127
    000125  aa  141 155 142 151         	aci  "ambigadr",8
    000126  aa  147 141 144 162
    000127  aa  107 124 150 145         	acc  "The supplied name matches more than one entry in the system mail table."
    000130  aa  040 163 165 160
    000131  aa  160 154 151 145
    000132  aa  144 040 156 141
    000133  aa  155 145 040 155
    000134  aa  141 164 143 150
    000135  aa  145 163 040 155
    000136  aa  157 162 145 040
    000137  aa  164 150 141 156
    000140  aa  040 157 156 145
    000141  aa  040 145 156 164
    000142  aa  162 171 040 151
    000143  aa  156 040 164 150
    000144  aa  145 040 163 171
    000145  aa  163 164 145 155
    000146  aa  040 155 141 151
    000147  aa  154 040 164 141
    000150  aa  142 154 145 056

                                    35
                                    36  ec   bad_acknowledge_to,badackto,
                                    37  	(The mail system does not support acknowledgements to the type of address specified in the message.)
                        000015          	segdef  bad_acknowledge_to
    000015  a0   077777 000153
    000151  aa  142 141 144 141         	aci  "badackto",8
    000152  aa  143 153 164 157
    000153  aa  142 124 150 145         	acc  "The mail system does not support acknowledgements to the type of address specified in the message."
    000154  aa  040 155 141 151
    000155  aa  154 040 163 171
    000156  aa  163 164 145 155
    000157  aa  040 144 157 145
    000160  aa  163 040 156 157
    000161  aa  164 040 163 165
    000162  aa  160 160 157 162
    000163  aa  164 040 141 143
    000164  aa  153 156 157 167
    000165  aa  154 145 144 147
    000166  aa  145 155 145 156
    000167  aa  164 163 040 164
    000170  aa  157 040 164 150
    000171  aa  145 040 164 171
    000172  aa  160 145 040 157
    000173  aa  146 040 141 144
    000174  aa  144 162 145 163
    000175  aa  163 040 163 160
    000176  aa  145 143 151 146
    000177  aa  151 145 144 040
    000200  aa  151 156 040 164
    000201  aa  150 145 040 155
    000202  aa  145 163 163 141
    000203  aa  147 145 056 000

                                    38
                                    39  ec   bad_explicit_route,badroute,
                                    40  	(The explicit route supplied for this address does not allow for the delivery of mail to the address.)
                        000016          	segdef  bad_explicit_route
    000016  a0   077777 000206
    000204  aa  142 141 144 162         	aci  "badroute",8
    000205  aa  157 165 164 145
    000206  aa  144 124 150 145         	acc  "The explicit route supplied for this address does not allow for the delivery of mail to the address."
    000207  aa  040 145 170 160
    000210  aa  154 151 143 151
    000211  aa  164 040 162 157
    000212  aa  165 164 145 040
    000213  aa  163 165 160 160
    000214  aa  154 151 145 144
    000215  aa  040 146 157 162
    000216  aa  040 164 150 151
    000217  aa  163 040 141 144
    000220  aa  144 162 145 163
    000221  aa  163 040 144 157
    000222  aa  145 163 040 156
    000223  aa  157 164 040 141
    000224  aa  154 154 157 167
    000225  aa  040 146 157 162
    000226  aa  040 164 150 145
    000227  aa  040 144 145 154
    000230  aa  151 166 145 162
    000231  aa  171 040 157 146
    000232  aa  040 155 141 151
    000233  aa  154 040 164 157
    000234  aa  040 164 150 145
    000235  aa  040 141 144 144
    000236  aa  162 145 163 163
    000237  aa  056 000 000 000

                                    41
                                    42  ec   bad_mail_table,badmtabl,
                                    43  	(The system mail table has been damaged.)
                        000017          	segdef  bad_mail_table
    000017  a0   077777 000242
    000240  aa  142 141 144 155         	aci  "badmtabl",8
    000241  aa  164 141 142 154
    000242  aa  047 124 150 145         	acc  "The system mail table has been damaged."
    000243  aa  040 163 171 163
    000244  aa  164 145 155 040
    000245  aa  155 141 151 154
    000246  aa  040 164 141 142
    000247  aa  154 145 040 150
    000250  aa  141 163 040 142
    000251  aa  145 145 156 040
    000252  aa  144 141 155 141
    000253  aa  147 145 144 056

                                    44
                                    45  ec   ca_parse_failed,badca,
                                    46  	(Errors were detected while scanning the command/request control arguments.)
                        000020          	segdef  ca_parse_failed
    000020  a0   077777 000256
    000254  aa  142 141 144 143         	aci  "badca",8
    000255  aa  141 040 040 040
    000256  aa  112 105 162 162         	acc  "Errors were detected while scanning the command/request control arguments."
    000257  aa  157 162 163 040
    000260  aa  167 145 162 145
    000261  aa  040 144 145 164
    000262  aa  145 143 164 145
    000263  aa  144 040 167 150
    000264  aa  151 154 145 040
    000265  aa  163 143 141 156
    000266  aa  156 151 156 147
    000267  aa  040 164 150 145
    000270  aa  040 143 157 155
    000271  aa  155 141 156 144
    000272  aa  057 162 145 161
    000273  aa  165 145 163 164
    000274  aa  040 143 157 156
    000275  aa  164 162 157 154
    000276  aa  040 141 162 147
    000277  aa  165 155 145 156
    000300  aa  164 163 056 000

                                    47
                                    48  ec   cant_be_deleted,cantdel,
                                    49  	(Insufficient access to delete this message.)
                        000021          	segdef  cant_be_deleted
    000021  a0   077777 000303
    000301  aa  143 141 156 164         	aci  "cantdel",8
    000302  aa  144 145 154 040
    000303  aa  053 111 156 163         	acc  "Insufficient access to delete this message."
    000304  aa  165 146 146 151
    000305  aa  143 151 145 156
    000306  aa  164 040 141 143
    000307  aa  143 145 163 163
    000310  aa  040 164 157 040
    000311  aa  144 145 154 145
    000312  aa  164 145 040 164
    000313  aa  150 151 163 040
    000314  aa  155 145 163 163
    000315  aa  141 147 145 056

                                    50
                                    51  ec   cant_compute_route,noroute,
                                    52  	(Can not determine the route to be used to deliver mail to this address.)
                        000022          	segdef  cant_compute_route
    000022  a0   077777 000320
    000316  aa  156 157 162 157         	aci  "noroute",8
    000317  aa  165 164 145 040
    000320  aa  107 103 141 156         	acc  "Can not determine the route to be used to deliver mail to this address."
    000321  aa  040 156 157 164
    000322  aa  040 144 145 164
    000323  aa  145 162 155 151
    000324  aa  156 145 040 164
    000325  aa  150 145 040 162
    000326  aa  157 165 164 145
    000327  aa  040 164 157 040
    000330  aa  142 145 040 165
    000331  aa  163 145 144 040
    000332  aa  164 157 040 144
    000333  aa  145 154 151 166
    000334  aa  145 162 040 155
    000335  aa  141 151 154 040
    000336  aa  164 157 040 164
    000337  aa  150 151 163 040
    000340  aa  141 144 144 162
    000341  aa  145 163 163 056

                                    53
                                    54  ec   cant_determine_dtc,cntgtdt,
                                    55  	(Can not determine the date/time created.)
                        000023          	segdef  cant_determine_dtc
    000023  a0   077777 000344
    000342  aa  143 156 164 147         	aci  "cntgtdt",8
    000343  aa  164 144 164 040
    000344  aa  050 103 141 156         	acc  "Can not determine the date/time created."
    000345  aa  040 156 157 164
    000346  aa  040 144 145 164
    000347  aa  145 162 155 151
    000350  aa  156 145 040 164
    000351  aa  150 145 040 144
    000352  aa  141 164 145 057
    000353  aa  164 151 155 145
    000354  aa  040 143 162 145
    000355  aa  141 164 145 144
    000356  aa  056 000 000 000

                                    56
                                    57  ec   cant_determine_msgid,cntgtid,
                                    58  	(Can not determine the Message-ID.)
                        000024          	segdef  cant_determine_msgid
    000024  a0   077777 000361
    000357  aa  143 156 164 147         	aci  "cntgtid",8
    000360  aa  164 151 144 040
    000361  aa  041 103 141 156         	acc  "Can not determine the Message-ID."
    000362  aa  040 156 157 164
    000363  aa  040 144 145 164
    000364  aa  145 162 155 151
    000365  aa  156 145 040 164
    000366  aa  150 145 040 115
    000367  aa  145 163 163 141
    000370  aa  147 145 055 111
    000371  aa  104 056 000 000

                                    59
                                    60  ec   cant_determine_sender,cntgtsdr,
                                    61  	(Can not determine the sender.)
                        000025          	segdef  cant_determine_sender
    000025  a0   077777 000374
    000372  aa  143 156 164 147         	aci  "cntgtsdr",8
    000373  aa  164 163 144 162
    000374  aa  035 103 141 156         	acc  "Can not determine the sender."
    000375  aa  040 156 157 164
    000376  aa  040 144 145 164
    000377  aa  145 162 155 151
    000400  aa  156 145 040 164
    000401  aa  150 145 040 163
    000402  aa  145 156 144 145
    000403  aa  162 056 000 000

                                    62
                                    63  ec   cant_parse_irt_field,cntgtirt,
                                    64  	(Implementation restriction.  The printed representation of the In-Reply-To field can not be parsed.)
                        000026          	segdef  cant_parse_irt_field
    000026  a0   077777 000406
    000404  aa  143 156 164 147         	aci  "cntgtirt",8
    000405  aa  164 151 162 164
    000406  aa  143 111 155 160         	acc  "Implementation restriction.  The printed representation of the In-Reply-To field can not be parsed."
    000407  aa  154 145 155 145
    000410  aa  156 164 141 164
    000411  aa  151 157 156 040
    000412  aa  162 145 163 164
    000413  aa  162 151 143 164
    000414  aa  151 157 156 056
    000415  aa  040 040 124 150
    000416  aa  145 040 160 162
    000417  aa  151 156 164 145
    000420  aa  144 040 162 145
    000421  aa  160 162 145 163
    000422  aa  145 156 164 141
    000423  aa  164 151 157 156
    000424  aa  040 157 146 040
    000425  aa  164 150 145 040
    000426  aa  111 156 055 122
    000427  aa  145 160 154 171
    000430  aa  055 124 157 040
    000431  aa  146 151 145 154
    000432  aa  144 040 143 141
    000433  aa  156 040 156 157
    000434  aa  164 040 142 145
    000435  aa  040 160 141 162
    000436  aa  163 145 144 056

                                    65
                                    66  ec   cant_queue_mls_in_archive,cantqmls,
                                    67  	(Implementation restriction.  The inter-system mailer can not process mailing lists which are archive components.)
                        000027          	segdef  cant_queue_mls_in_archive
    000027  a0   077777 000441
    000437  aa  143 141 156 164         	aci  "cantqmls",8
    000440  aa  161 155 154 163
    000441  aa  160 111 155 160         	acc  "Implementation restriction.  The inter-system mailer can not process mailing lists which are archive components."
    000442  aa  154 145 155 145
    000443  aa  156 164 141 164
    000444  aa  151 157 156 040
    000445  aa  162 145 163 164
    000446  aa  162 151 143 164
    000447  aa  151 157 156 056
    000450  aa  040 040 124 150
    000451  aa  145 040 151 156
    000452  aa  164 145 162 055
    000453  aa  163 171 163 164
    000454  aa  145 155 040 155
    000455  aa  141 151 154 145
    000456  aa  162 040 143 141
    000457  aa  156 040 156 157
    000460  aa  164 040 160 162
    000461  aa  157 143 145 163
    000462  aa  163 040 155 141
    000463  aa  151 154 151 156
    000464  aa  147 040 154 151
    000465  aa  163 164 163 040
    000466  aa  167 150 151 143
    000467  aa  150 040 141 162
    000470  aa  145 040 141 162
    000471  aa  143 150 151 166
    000472  aa  145 040 143 157
    000473  aa  155 160 157 156
    000474  aa  145 156 164 163
    000475  aa  056 000 000 000

                                    68
                                    69  ec   cant_send_acknowledgement,cantack,
                                    70  	(An acknowledgement can not be delivered to the address specified in the message.)
                        000030          	segdef  cant_send_acknowledgement
    000030  a0   077777 000500
    000476  aa  143 141 156 164         	aci  "cantack",8
    000477  aa  141 143 153 040
    000500  aa  120 101 156 040         	acc  "An acknowledgement can not be delivered to the address specified in the message."
    000501  aa  141 143 153 156
    000502  aa  157 167 154 145
    000503  aa  144 147 145 155
    000504  aa  145 156 164 040
    000505  aa  143 141 156 040
    000506  aa  156 157 164 040
    000507  aa  142 145 040 144
    000510  aa  145 154 151 166
    000511  aa  145 162 145 144
    000512  aa  040 164 157 040
    000513  aa  164 150 145 040
    000514  aa  141 144 144 162
    000515  aa  145 163 163 040
    000516  aa  163 160 145 143
    000517  aa  151 146 151 145
    000520  aa  144 040 151 156
    000521  aa  040 164 150 145
    000522  aa  040 155 145 163
    000523  aa  163 141 147 145
    000524  aa  056 000 000 000

                                    71
                                    72  ec   cant_update_message,cantupd,
                                    73  	(Insufficient access to update the copy of this message in the mailbox.)
                        000031          	segdef  cant_update_message
    000031  a0   077777 000527
    000525  aa  143 141 156 164         	aci  "cantupd",8
    000526  aa  165 160 144 040
    000527  aa  106 111 156 163         	acc  "Insufficient access to update the copy of this message in the mailbox."
    000530  aa  165 146 146 151
    000531  aa  143 151 145 156
    000532  aa  164 040 141 143
    000533  aa  143 145 163 163
    000534  aa  040 164 157 040
    000535  aa  165 160 144 141
    000536  aa  164 145 040 164
    000537  aa  150 145 040 143
    000540  aa  157 160 171 040
    000541  aa  157 146 040 164
    000542  aa  150 151 163 040
    000543  aa  155 145 163 163
    000544  aa  141 147 145 040
    000545  aa  151 156 040 164
    000546  aa  150 145 040 155
    000547  aa  141 151 154 142
    000550  aa  157 170 056 000

                                    74
                                    75  ec   circular_mtes,circmtes,
                                    76  	(The supplied name in the system mail table expands directly or indirectly to itself.)
                        000032          	segdef  circular_mtes
    000032  a0   077777 000553
    000551  aa  143 151 162 143         	aci  "circmtes",8
    000552  aa  155 164 145 163
    000553  aa  124 124 150 145         	acc  "The supplied name in the system mail table expands directly or indirectly to itself."
    000554  aa  040 163 165 160
    000555  aa  160 154 151 145
    000556  aa  144 040 156 141
    000557  aa  155 145 040 151
    000560  aa  156 040 164 150
    000561  aa  145 040 163 171
    000562  aa  163 164 145 155
    000563  aa  040 155 141 151
    000564  aa  154 040 164 141
    000565  aa  142 154 145 040
    000566  aa  145 170 160 141
    000567  aa  156 144 163 040
    000570  aa  144 151 162 145
    000571  aa  143 164 154 171
    000572  aa  040 157 162 040
    000573  aa  151 156 144 151
    000574  aa  162 145 143 164
    000575  aa  154 171 040 164
    000576  aa  157 040 151 164
    000577  aa  163 145 154 146
    000600  aa  056 000 000 000

                                    77
                                    78  ec   comment_ignored,comignrd,
                                    79  	(The comment was ignored.)
                        000033          	segdef  comment_ignored
    000033  a0   077777 000603
    000601  aa  143 157 155 151         	aci  "comignrd",8
    000602  aa  147 156 162 144
    000603  aa  030 124 150 145         	acc  "The comment was ignored."
    000604  aa  040 143 157 155
    000605  aa  155 145 156 164
    000606  aa  040 167 141 163
    000607  aa  040 151 147 156
    000610  aa  157 162 145 144
    000611  aa  056 000 000 000

                                    80
                                    81  ec   deletion_pending,dlpend,
                                    82  	(Specified action not performed due to an interrupted expunge_messages operation.)
                        000034          	segdef  deletion_pending
    000034  a0   077777 000614
    000612  aa  144 154 160 145         	aci  "dlpend",8
    000613  aa  156 144 040 040
    000614  aa  120 123 160 145         	acc  "Specified action not performed due to an interrupted expunge_messages operation."
    000615  aa  143 151 146 151
    000616  aa  145 144 040 141
    000617  aa  143 164 151 157
    000620  aa  156 040 156 157
    000621  aa  164 040 160 145
    000622  aa  162 146 157 162
    000623  aa  155 145 144 040
    000624  aa  144 165 145 040
    000625  aa  164 157 040 141
    000626  aa  156 040 151 156
    000627  aa  164 145 162 162
    000630  aa  165 160 164 145
    000631  aa  144 040 145 170
    000632  aa  160 165 156 147
    000633  aa  145 137 155 145
    000634  aa  163 163 141 147
    000635  aa  145 163 040 157
    000636  aa  160 145 162 141
    000637  aa  164 151 157 156
    000640  aa  056 000 000 000

                                    83
                                    84  ec   duplicate_address,dupaddr,
                                    85  	(This recipient of the message was requested more than once.)
                        000035          	segdef  duplicate_address
    000035  a0   077777 000643
    000641  aa  144 165 160 141         	aci  "dupaddr",8
    000642  aa  144 144 162 040
    000643  aa  073 124 150 151         	acc  "This recipient of the message was requested more than once."
    000644  aa  163 040 162 145
    000645  aa  143 151 160 151
    000646  aa  145 156 164 040
    000647  aa  157 146 040 164
    000650  aa  150 145 040 155
    000651  aa  145 163 163 141
    000652  aa  147 145 040 167
    000653  aa  141 163 040 162
    000654  aa  145 161 165 145
    000655  aa  163 164 145 144
    000656  aa  040 155 157 162
    000657  aa  145 040 164 150
    000660  aa  141 156 040 157
    000661  aa  156 143 145 056

                                    86
                                    87  ec   duplicate_reply_reference,dupreply,
                                    88  	(A reference to the given message already appears in the In-Reply-To field of this message.)
                        000036          	segdef  duplicate_reply_reference
    000036  a0   077777 000664
    000662  aa  144 165 160 162         	aci  "dupreply",8
    000663  aa  145 160 154 171
    000664  aa  132 101 040 162         	acc  "A reference to the given message already appears in the In-Reply-To field of this message."
    000665  aa  145 146 145 162
    000666  aa  145 156 143 145
    000667  aa  040 164 157 040
    000670  aa  164 150 145 040
    000671  aa  147 151 166 145
    000672  aa  156 040 155 145
    000673  aa  163 163 141 147
    000674  aa  145 040 141 154
    000675  aa  162 145 141 144
    000676  aa  171 040 141 160
    000677  aa  160 145 141 162
    000700  aa  163 040 151 156
    000701  aa  040 164 150 145
    000702  aa  040 111 156 055
    000703  aa  122 145 160 154
    000704  aa  171 055 124 157
    000705  aa  040 146 151 145
    000706  aa  154 144 040 157
    000707  aa  146 040 164 150
    000710  aa  151 163 040 155
    000711  aa  145 163 163 141
    000712  aa  147 145 056 000

                                    89
                                    90  ec   duplicate_user_field,dupfield,
                                    91  	(A user-defined field with the same name already appears in the message.)
                        000037          	segdef  duplicate_user_field
    000037  a0   077777 000715
    000713  aa  144 165 160 146         	aci  "dupfield",8
    000714  aa  151 145 154 144
    000715  aa  107 101 040 165         	acc  "A user-defined field with the same name already appears in the message."
    000716  aa  163 145 162 055
    000717  aa  144 145 146 151
    000720  aa  156 145 144 040
    000721  aa  146 151 145 154
    000722  aa  144 040 167 151
    000723  aa  164 150 040 164
    000724  aa  150 145 040 163
    000725  aa  141 155 145 040
    000726  aa  156 141 155 145
    000727  aa  040 141 154 162
    000730  aa  145 141 144 171
    000731  aa  040 141 160 160
    000732  aa  145 141 162 163
    000733  aa  040 151 156 040
    000734  aa  164 150 145 040
    000735  aa  155 145 163 163
    000736  aa  141 147 145 056

                                    92
                                    93  ec   empty_address_list,emptylst,
                                    94  	(The supplied address list is empty.)
                        000040          	segdef  empty_address_list
    000040  a0   077777 000741
    000737  aa  145 155 160 164         	aci  "emptylst",8
    000740  aa  171 154 163 164
    000741  aa  043 124 150 145         	acc  "The supplied address list is empty."
    000742  aa  040 163 165 160
    000743  aa  160 154 151 145
    000744  aa  144 040 141 144
    000745  aa  144 162 145 163
    000746  aa  163 040 154 151
    000747  aa  163 164 040 151
    000750  aa  163 040 145 155
    000751  aa  160 164 171 056

                                    95
                                    96  ec   empty_address_text,noaddr,
                                    97  	(The supplied text contains only comments and whitespace.)
                        000041          	segdef  empty_address_text
    000041  a0   077777 000754
    000752  aa  156 157 141 144         	aci  "noaddr",8
    000753  aa  144 162 040 040
    000754  aa  070 124 150 145         	acc  "The supplied text contains only comments and whitespace."
    000755  aa  040 163 165 160
    000756  aa  160 154 151 145
    000757  aa  144 040 164 145
    000760  aa  170 164 040 143
    000761  aa  157 156 164 141
    000762  aa  151 156 163 040
    000763  aa  157 156 154 171
    000764  aa  040 143 157 155
    000765  aa  155 145 156 164
    000766  aa  163 040 141 156
    000767  aa  144 040 167 150
    000770  aa  151 164 145 163
    000771  aa  160 141 143 145
    000772  aa  056 000 000 000

                                    98
                                    99  ec   empty_mailing_list,emptymls,
                                   100  	(The specified mailing list does not contain any recipients.)
                        000042          	segdef  empty_mailing_list
    000042  a0   077777 000775
    000773  aa  145 155 160 164         	aci  "emptymls",8
    000774  aa  171 155 154 163
    000775  aa  073 124 150 145         	acc  "The specified mailing list does not contain any recipients."
    000776  aa  040 163 160 145
    000777  aa  143 151 146 151
    001000  aa  145 144 040 155
    001001  aa  141 151 154 151
    001002  aa  156 147 040 154
    001003  aa  151 163 164 040
    001004  aa  144 157 145 163
    001005  aa  040 156 157 164
    001006  aa  040 143 157 156
    001007  aa  164 141 151 156
    001010  aa  040 141 156 171
    001011  aa  040 162 145 143
    001012  aa  151 160 151 145
    001013  aa  156 164 163 056

                                   101
                                   102  ec   empty_message,emptymsg,
                                   103  	(The body of the supplied message does not contain any text.)
                        000043          	segdef  empty_message
    000043  a0   077777 001016
    001014  aa  145 155 160 164         	aci  "emptymsg",8
    001015  aa  171 155 163 147
    001016  aa  073 124 150 145         	acc  "The body of the supplied message does not contain any text."
    001017  aa  040 142 157 144
    001020  aa  171 040 157 146
    001021  aa  040 164 150 145
    001022  aa  040 163 165 160
    001023  aa  160 154 151 145
    001024  aa  144 040 155 145
    001025  aa  163 163 141 147
    001026  aa  145 040 144 157
    001027  aa  145 163 040 156
    001030  aa  157 164 040 143
    001031  aa  157 156 164 141
    001032  aa  151 156 040 141
    001033  aa  156 171 040 164
    001034  aa  145 170 164 056

                                   104
                                   105  ec   errors_in_list_address,badlist,
                                   106  	(The message can not be delivered to all the recipients specified by this mailing list or named group.)
                        000044          	segdef  errors_in_list_address
    000044  a0   077777 001037
    001035  aa  142 141 144 154         	aci  "badlist",8
    001036  aa  151 163 164 040
    001037  aa  145 124 150 145         	acc  "The message can not be delivered to all the recipients specified by this mailing list or named group."
    001040  aa  040 155 145 163
    001041  aa  163 141 147 145
    001042  aa  040 143 141 156
    001043  aa  040 156 157 164
    001044  aa  040 142 145 040
    001045  aa  144 145 154 151
    001046  aa  166 145 162 145
    001047  aa  144 040 164 157
    001050  aa  040 141 154 154
    001051  aa  040 164 150 145
    001052  aa  040 162 145 143
    001053  aa  151 160 151 145
    001054  aa  156 164 163 040
    001055  aa  163 160 145 143
    001056  aa  151 146 151 145
    001057  aa  144 040 142 171
    001060  aa  040 164 150 151
    001061  aa  163 040 155 141
    001062  aa  151 154 151 156
    001063  aa  147 040 154 151
    001064  aa  163 164 040 157
    001065  aa  162 040 156 141
    001066  aa  155 145 144 040
    001067  aa  147 162 157 165
    001070  aa  160 056 000 000

                                   107
                                   108  ec   extra_restricted_field,extrafld,
                                   109  	(This field may not be duplicated.)
                        000045          	segdef  extra_restricted_field
    000045  a0   077777 001073
    001071  aa  145 170 164 162         	aci  "extrafld",8
    001072  aa  141 146 154 144
    001073  aa  041 124 150 151         	acc  "This field may not be duplicated."
    001074  aa  163 040 146 151
    001075  aa  145 154 144 040
    001076  aa  155 141 171 040
    001077  aa  156 157 164 040
    001100  aa  142 145 040 144
    001101  aa  165 160 154 151
    001102  aa  143 141 164 145
    001103  aa  144 056 000 000

                                   110
                                   111  ec   foreign_address_too_long,fadrlong,
                                   112  	(Implementation restriction.  The inter-system mailer can not accept foreign addresses longer than 128 characters.)
                        000046          	segdef  foreign_address_too_long
    000046  a0   077777 001106
    001104  aa  146 141 144 162         	aci  "fadrlong",8
    001105  aa  154 157 156 147
    001106  aa  161 111 155 160         	acc  "Implementation restriction.  The inter-system mailer can not accept foreign addresses longer than 128 characters."
    001107  aa  154 145 155 145
    001110  aa  156 164 141 164
    001111  aa  151 157 156 040
    001112  aa  162 145 163 164
    001113  aa  162 151 143 164
    001114  aa  151 157 156 056
    001115  aa  040 040 124 150
    001116  aa  145 040 151 156
    001117  aa  164 145 162 055
    001120  aa  163 171 163 164
    001121  aa  145 155 040 155
    001122  aa  141 151 154 145
    001123  aa  162 040 143 141
    001124  aa  156 040 156 157
    001125  aa  164 040 141 143
    001126  aa  143 145 160 164
    001127  aa  040 146 157 162
    001130  aa  145 151 147 156
    001131  aa  040 141 144 144
    001132  aa  162 145 163 163
    001133  aa  145 163 040 154
    001134  aa  157 156 147 145
    001135  aa  162 040 164 150
    001136  aa  141 156 040 061
    001137  aa  062 070 040 143
    001140  aa  150 141 162 141
    001141  aa  143 164 145 162
    001142  aa  163 056 000 000

                                   113
                                   114  ec   forum_not_available,noforum,
                                   115  	(Forum is not available on this system.)
                        000047          	segdef  forum_not_available
    000047  a0   077777 001145
    001143  aa  156 157 146 157         	aci  "noforum",8
    001144  aa  162 165 155 040
    001145  aa  046 106 157 162         	acc  "Forum is not available on this system."
    001146  aa  165 155 040 151
    001147  aa  163 040 156 157
    001150  aa  164 040 141 166
    001151  aa  141 151 154 141
    001152  aa  142 154 145 040
    001153  aa  157 156 040 164
    001154  aa  150 151 163 040
    001155  aa  163 171 163 164
    001156  aa  145 155 056 000

                                   116
                                   117  ec   in_mailbox_only_field,inmbxfld,
                                   118  	(The specified field may only appear in messages which have already been transmitted.)
                        000050          	segdef  in_mailbox_only_field
    000050  a0   077777 001161
    001157  aa  151 156 155 142         	aci  "inmbxfld",8
    001160  aa  170 146 154 144
    001161  aa  124 124 150 145         	acc  "The specified field may only appear in messages which have already been transmitted."
    001162  aa  040 163 160 145
    001163  aa  143 151 146 151
    001164  aa  145 144 040 146
    001165  aa  151 145 154 144
    001166  aa  040 155 141 171
    001167  aa  040 157 156 154
    001170  aa  171 040 141 160
    001171  aa  160 145 141 162
    001172  aa  040 151 156 040
    001173  aa  155 145 163 163
    001174  aa  141 147 145 163
    001175  aa  040 167 150 151
    001176  aa  143 150 040 150
    001177  aa  141 166 145 040
    001200  aa  141 154 162 145
    001201  aa  141 144 171 040
    001202  aa  142 145 145 156
    001203  aa  040 164 162 141
    001204  aa  156 163 155 151
    001205  aa  164 164 145 144
    001206  aa  056 000 000 000

                                   119
                                   120  ec   incomplete_address_list_text,incals,
                                   121  	(The supplied text contains an incomplete address list specification.)
                        000051          	segdef  incomplete_address_list_text
    000051  a0   077777 001211
    001207  aa  151 156 143 141         	aci  "incals",8
    001210  aa  154 163 040 040
    001211  aa  104 124 150 145         	acc  "The supplied text contains an incomplete address list specification."
    001212  aa  040 163 165 160
    001213  aa  160 154 151 145
    001214  aa  144 040 164 145
    001215  aa  170 164 040 143
    001216  aa  157 156 164 141
    001217  aa  151 156 163 040
    001220  aa  141 156 040 151
    001221  aa  156 143 157 155
    001222  aa  160 154 145 164
    001223  aa  145 040 141 144
    001224  aa  144 162 145 163
    001225  aa  163 040 154 151
    001226  aa  163 164 040 163
    001227  aa  160 145 143 151
    001230  aa  146 151 143 141
    001231  aa  164 151 157 156
    001232  aa  056 000 000 000

                                   122
                                   123  ec   incomplete_address_text,incaddr,
                                   124  	(The supplied text contains an incomplete address specification.)
                        000052          	segdef  incomplete_address_text
    000052  a0   077777 001235
    001233  aa  151 156 143 141         	aci  "incaddr",8
    001234  aa  144 144 162 040
    001235  aa  077 124 150 145         	acc  "The supplied text contains an incomplete address specification."
    001236  aa  040 163 165 160
    001237  aa  160 154 151 145
    001240  aa  144 040 164 145
    001241  aa  170 164 040 143
    001242  aa  157 156 164 141
    001243  aa  151 156 163 040
    001244  aa  141 156 040 151
    001245  aa  156 143 157 155
    001246  aa  160 154 145 164
    001247  aa  145 040 141 144
    001250  aa  144 162 145 163
    001251  aa  163 040 163 160
    001252  aa  145 143 151 146
    001253  aa  151 143 141 164
    001254  aa  151 157 156 056

                                   125
                                   126  ec   incomplete_comment,incpcom,
                                   127  	(The supplied comment is missing a Comment-Date or Comment-By field.)
                        000053          	segdef  incomplete_comment
    000053  a0   077777 001257
    001255  aa  151 156 143 160         	aci  "incpcom",8
    001256  aa  143 157 155 040
    001257  aa  103 124 150 145         	acc  "The supplied comment is missing a Comment-Date or Comment-By field."
    001260  aa  040 163 165 160
    001261  aa  160 154 151 145
    001262  aa  144 040 143 157
    001263  aa  155 155 145 156
    001264  aa  164 040 151 163
    001265  aa  040 155 151 163
    001266  aa  163 151 156 147
    001267  aa  040 141 040 103
    001270  aa  157 155 155 145
    001271  aa  156 164 055 104
    001272  aa  141 164 145 040
    001273  aa  157 162 040 103
    001274  aa  157 155 155 145
    001275  aa  156 164 055 102
    001276  aa  171 040 146 151
    001277  aa  145 154 144 056

                                   128
                                   129  ec   incomplete_named_group_text,incnmdgp,
                                   130  	(The supplied text for a named group address does not end with a semi-colon.)
                        000054          	segdef  incomplete_named_group_text
    000054  a0   077777 001302
    001300  aa  151 156 143 156         	aci  "incnmdgp",8
    001301  aa  155 144 147 160
    001302  aa  113 124 150 145         	acc  "The supplied text for a named group address does not end with a semi-colon."
    001303  aa  040 163 165 160
    001304  aa  160 154 151 145
    001305  aa  144 040 164 145
    001306  aa  170 164 040 146
    001307  aa  157 162 040 141
    001310  aa  040 156 141 155
    001311  aa  145 144 040 147
    001312  aa  162 157 165 160
    001313  aa  040 141 144 144
    001314  aa  162 145 163 163
    001315  aa  040 144 157 145
    001316  aa  163 040 156 157
    001317  aa  164 040 145 156
    001320  aa  144 040 167 151
    001321  aa  164 150 040 141
    001322  aa  040 163 145 155
    001323  aa  151 055 143 157
    001324  aa  154 157 156 056

                                   131
                                   132  ec   incorrect_suffix,nosuffix,
                                   133  	(The required suffix does not appear on the entry name.)
                        000055          	segdef  incorrect_suffix
    000055  a0   077777 001327
    001325  aa  156 157 163 165         	aci  "nosuffix",8
    001326  aa  146 146 151 170
    001327  aa  066 124 150 145         	acc  "The required suffix does not appear on the entry name."
    001330  aa  040 162 145 161
    001331  aa  165 151 162 145
    001332  aa  144 040 163 165
    001333  aa  146 146 151 170
    001334  aa  040 144 157 145
    001335  aa  163 040 156 157
    001336  aa  164 040 141 160
    001337  aa  160 145 141 162
    001340  aa  040 157 156 040
    001341  aa  164 150 145 040
    001342  aa  145 156 164 162
    001343  aa  171 040 156 141
    001344  aa  155 145 056 000

                                   134
                                   135  ec   invalid_address,badaddr,
                                   136  	(The supplied address is invalid.)
                        000056          	segdef  invalid_address
    000056  a0   077777 001347
    001345  aa  142 141 144 141         	aci  "badaddr",8
    001346  aa  144 144 162 040
    001347  aa  040 124 150 145         	acc  "The supplied address is invalid."
    001350  aa  040 163 165 160
    001351  aa  160 154 151 145
    001352  aa  144 040 141 144
    001353  aa  144 162 145 163
    001354  aa  163 040 151 163
    001355  aa  040 151 156 166
    001356  aa  141 154 151 144
    001357  aa  056 000 000 000

                                   137
                                   138  ec   invalid_address_list_syntax,badals,
                                   139  	(A syntax error was detected in the supplied address list specification.)
                        000057          	segdef  invalid_address_list_syntax
    000057  a0   077777 001362
    001360  aa  142 141 144 141         	aci  "badals",8
    001361  aa  154 163 040 040
    001362  aa  107 101 040 163         	acc  "A syntax error was detected in the supplied address list specification."
    001363  aa  171 156 164 141
    001364  aa  170 040 145 162
    001365  aa  162 157 162 040
    001366  aa  167 141 163 040
    001367  aa  144 145 164 145
    001370  aa  143 164 145 144
    001371  aa  040 151 156 040
    001372  aa  164 150 145 040
    001373  aa  163 165 160 160
    001374  aa  154 151 145 144
    001375  aa  040 141 144 144
    001376  aa  162 145 163 163
    001377  aa  040 154 151 163
    001400  aa  164 040 163 160
    001401  aa  145 143 151 146
    001402  aa  151 143 141 164
    001403  aa  151 157 156 056

                                   140
                                   141  ec   invalid_address_syntax,badaddr,
                                   142  	(A syntax error was detected in the supplied address specification.)
                        000060          	segdef  invalid_address_syntax
    000060  a0   077777 001406
    001404  aa  142 141 144 141         	aci  "badaddr",8
    001405  aa  144 144 162 040
    001406  aa  102 101 040 163         	acc  "A syntax error was detected in the supplied address specification."
    001407  aa  171 156 164 141
    001410  aa  170 040 145 162
    001411  aa  162 157 162 040
    001412  aa  167 141 163 040
    001413  aa  144 145 164 145
    001414  aa  143 164 145 144
    001415  aa  040 151 156 040
    001416  aa  164 150 145 040
    001417  aa  163 165 160 160
    001420  aa  154 151 145 144
    001421  aa  040 141 144 144
    001422  aa  162 145 163 163
    001423  aa  040 163 160 145
    001424  aa  143 151 146 151
    001425  aa  143 141 164 151
    001426  aa  157 156 056 000

                                   143
                                   144  ec   invalid_mte_syntax,badmtenm,
                                   145  	(The supplied mail table name is incorrectly formatted.)
                        000061          	segdef  invalid_mte_syntax
    000061  a0   077777 001431
    001427  aa  142 141 144 155         	aci  "badmtenm",8
    001430  aa  164 145 156 155
    001431  aa  066 124 150 145         	acc  "The supplied mail table name is incorrectly formatted."
    001432  aa  040 163 165 160
    001433  aa  160 154 151 145
    001434  aa  144 040 155 141
    001435  aa  151 154 040 164
    001436  aa  141 142 154 145
    001437  aa  040 156 141 155
    001440  aa  145 040 151 163
    001441  aa  040 151 156 143
    001442  aa  157 162 162 145
    001443  aa  143 164 154 171
    001444  aa  040 146 157 162
    001445  aa  155 141 164 164
    001446  aa  145 144 056 000

                                   146
                                   147  ec   invalid_named_group_text,badnmdgp,
                                   148  	(The supplied text for a named group address does not represent a valid address list.)
                        000062          	segdef  invalid_named_group_text
    000062  a0   077777 001451
    001447  aa  142 141 144 156         	aci  "badnmdgp",8
    001450  aa  155 144 147 160
    001451  aa  124 124 150 145         	acc  "The supplied text for a named group address does not represent a valid address list."
    001452  aa  040 163 165 160
    001453  aa  160 154 151 145
    001454  aa  144 040 164 145
    001455  aa  170 164 040 146
    001456  aa  157 162 040 141
    001457  aa  040 156 141 155
    001460  aa  145 144 040 147
    001461  aa  162 157 165 160
    001462  aa  040 141 144 144
    001463  aa  162 145 163 163
    001464  aa  040 144 157 145
    001465  aa  163 040 156 157
    001466  aa  164 040 162 145
    001467  aa  160 162 145 163
    001470  aa  145 156 164 040
    001471  aa  141 040 166 141
    001472  aa  154 151 144 040
    001473  aa  141 144 144 162
    001474  aa  145 163 163 040
    001475  aa  154 151 163 164
    001476  aa  056 000 000 000

                                   149
                                   150  ec   invalid_person_id_syntax,badpers,
                                   151  	(The supplied Person_id is incorrectly formatted.)
                        000063          	segdef  invalid_person_id_syntax
    000063  a0   077777 001501
    001477  aa  142 141 144 160         	aci  "badpers",8
    001500  aa  145 162 163 040
    001501  aa  060 124 150 145         	acc  "The supplied Person_id is incorrectly formatted."
    001502  aa  040 163 165 160
    001503  aa  160 154 151 145
    001504  aa  144 040 120 145
    001505  aa  162 163 157 156
    001506  aa  137 151 144 040
    001507  aa  151 163 040 151
    001510  aa  156 143 157 162
    001511  aa  162 145 143 164
    001512  aa  154 171 040 146
    001513  aa  157 162 155 141
    001514  aa  164 164 145 144
    001515  aa  056 000 000 000

                                   152
                                   153  ec   invalid_relayed_field_syntax,badrelay,
                                   154  	(A syntax error was detected in the supplied Relayed field.)
                        000064          	segdef  invalid_relayed_field_syntax
    000064  a0   077777 001520
    001516  aa  142 141 144 162         	aci  "badrelay",8
    001517  aa  145 154 141 171
    001520  aa  072 101 040 163         	acc  "A syntax error was detected in the supplied Relayed field."
    001521  aa  171 156 164 141
    001522  aa  170 040 145 162
    001523  aa  162 157 162 040
    001524  aa  167 141 163 040
    001525  aa  144 145 164 145
    001526  aa  143 164 145 144
    001527  aa  040 151 156 040
    001530  aa  164 150 145 040
    001531  aa  163 165 160 160
    001532  aa  154 151 145 144
    001533  aa  040 122 145 154
    001534  aa  141 171 145 144
    001535  aa  040 146 151 145
    001536  aa  154 144 056 000

                                   155
                                   156  ec   invalid_route_field_syntax,badroute,
                                   157  	(A syntax error was detected in the supplied Route field.)
                        000065          	segdef  invalid_route_field_syntax
    000065  a0   077777 001541
    001537  aa  142 141 144 162         	aci  "badroute",8
    001540  aa  157 165 164 145
    001541  aa  070 101 040 163         	acc  "A syntax error was detected in the supplied Route field."
    001542  aa  171 156 164 141
    001543  aa  170 040 145 162
    001544  aa  162 157 162 040
    001545  aa  167 141 163 040
    001546  aa  144 145 164 145
    001547  aa  143 164 145 144
    001550  aa  040 151 156 040
    001551  aa  164 150 145 040
    001552  aa  163 165 160 160
    001553  aa  154 151 145 144
    001554  aa  040 122 157 165
    001555  aa  164 145 040 146
    001556  aa  151 145 154 144
    001557  aa  056 000 000 000

                                   158
                                   159  ec   invalid_user_id_syntax,badusrnm,
                                   160  	(The supplied Person_id.Project_id is incorrectly formatted.)
                        000066          	segdef  invalid_user_id_syntax
    000066  a0   077777 001562
    001560  aa  142 141 144 165         	aci  "badusrnm",8
    001561  aa  163 162 156 155
    001562  aa  073 124 150 145         	acc  "The supplied Person_id.Project_id is incorrectly formatted."
    001563  aa  040 163 165 160
    001564  aa  160 154 151 145
    001565  aa  144 040 120 145
    001566  aa  162 163 157 156
    001567  aa  137 151 144 056
    001570  aa  120 162 157 152
    001571  aa  145 143 164 137
    001572  aa  151 144 040 151
    001573  aa  163 040 151 156
    001574  aa  143 157 162 162
    001575  aa  145 143 164 154
    001576  aa  171 040 146 157
    001577  aa  162 155 141 164
    001600  aa  164 145 144 056

                                   161
                                   162  ec   ism_not_available,noism,
                                   163  	(Inter-system mail is not available on this system.)
                        000067          	segdef  ism_not_available
    000067  a0   077777 001603
    001601  aa  156 157 151 163         	aci  "noism",8
    001602  aa  155 040 040 040
    001603  aa  062 111 156 164         	acc  "Inter-system mail is not available on this system."
    001604  aa  145 162 055 163
    001605  aa  171 163 164 145
    001606  aa  155 040 155 141
    001607  aa  151 154 040 151
    001610  aa  163 040 156 157
    001611  aa  164 040 141 166
    001612  aa  141 151 154 141
    001613  aa  142 154 145 040
    001614  aa  157 156 040 164
    001615  aa  150 151 163 040
    001616  aa  163 171 163 164
    001617  aa  145 155 056 000

                                   164
                                   165  ec   list_address_is_all_duplicates,duplist,
                                   166  	(All recipients of the message specified by this mailing list or named group were requested more than once.)
                        000070          	segdef  list_address_is_all_duplicates
    000070  a0   077777 001622
    001620  aa  144 165 160 154         	aci  "duplist",8
    001621  aa  151 163 164 040
    001622  aa  152 101 154 154         	acc  "All recipients of the message specified by this mailing list or named group were requested more than once."
    001623  aa  040 162 145 143
    001624  aa  151 160 151 145
    001625  aa  156 164 163 040
    001626  aa  157 146 040 164
    001627  aa  150 145 040 155
    001630  aa  145 163 163 141
    001631  aa  147 145 040 163
    001632  aa  160 145 143 151
    001633  aa  146 151 145 144
    001634  aa  040 142 171 040
    001635  aa  164 150 151 163
    001636  aa  040 155 141 151
    001637  aa  154 151 156 147
    001640  aa  040 154 151 163
    001641  aa  164 040 157 162
    001642  aa  040 156 141 155
    001643  aa  145 144 040 147
    001644  aa  162 157 165 160
    001645  aa  040 167 145 162
    001646  aa  145 040 162 145
    001647  aa  161 165 145 163
    001650  aa  164 145 144 040
    001651  aa  155 157 162 145
    001652  aa  040 164 150 141
    001653  aa  156 040 157 156
    001654  aa  143 145 056 000

                                   167
                                   168  ec   logbox_created,madelog,
                                   169  	(Your logbox has been created.)
                        000071          	segdef  logbox_created
    000071  a0   077777 001657
    001655  aa  155 141 144 145         	aci  "madelog",8
    001656  aa  154 157 147 040
    001657  aa  035 131 157 165         	acc  "Your logbox has been created."
    001660  aa  162 040 154 157
    001661  aa  147 142 157 170
    001662  aa  040 150 141 163
    001663  aa  040 142 145 145
    001664  aa  156 040 143 162
    001665  aa  145 141 164 145
    001666  aa  144 056 000 000

                                   170
                                   171  ec   mailbox_exists,mbxexist,
                                   172  	(The specified mailbox already exists.)
                        000072          	segdef  mailbox_exists
    000072  a0   077777 001671
    001667  aa  155 142 170 145         	aci  "mbxexist",8
    001670  aa  170 151 163 164
    001671  aa  045 124 150 145         	acc  "The specified mailbox already exists."
    001672  aa  040 163 160 145
    001673  aa  143 151 146 151
    001674  aa  145 144 040 155
    001675  aa  141 151 154 142
    001676  aa  157 170 040 141
    001677  aa  154 162 145 141
    001700  aa  144 171 040 145
    001701  aa  170 151 163 164
    001702  aa  163 056 000 000

                                   173
                                   174  ec   mailbox_full,mbxfull,
                                   175  	(There is no room in the mailbox to add the given message.)
                        000073          	segdef  mailbox_full
    000073  a0   077777 001705
    001703  aa  155 142 170 146         	aci  "mbxfull",8
    001704  aa  165 154 154 040
    001705  aa  071 124 150 145         	acc  "There is no room in the mailbox to add the given message."
    001706  aa  162 145 040 151
    001707  aa  163 040 156 157
    001710  aa  040 162 157 157
    001711  aa  155 040 151 156
    001712  aa  040 164 150 145
    001713  aa  040 155 141 151
    001714  aa  154 142 157 170
    001715  aa  040 164 157 040
    001716  aa  141 144 144 040
    001717  aa  164 150 145 040
    001720  aa  147 151 166 145
    001721  aa  156 040 155 145
    001722  aa  163 163 141 147
    001723  aa  145 056 000 000

                                   176
                                   177  ec   message_already_read,msgread,
                                   178  	(The specified message has already been read from the mailbox.)
                        000074          	segdef  message_already_read
    000074  a0   077777 001726
    001724  aa  155 163 147 162         	aci  "msgread",8
    001725  aa  145 141 144 040
    001726  aa  075 124 150 145         	acc  "The specified message has already been read from the mailbox."
    001727  aa  040 163 160 145
    001730  aa  143 151 146 151
    001731  aa  145 144 040 155
    001732  aa  145 163 163 141
    001733  aa  147 145 040 150
    001734  aa  141 163 040 141
    001735  aa  154 162 145 141
    001736  aa  144 171 040 142
    001737  aa  145 145 156 040
    001740  aa  162 145 141 144
    001741  aa  040 146 162 157
    001742  aa  155 040 164 150
    001743  aa  145 040 155 141
    001744  aa  151 154 142 157
    001745  aa  170 056 000 000

                                   179
                                   180  ec   message_delivered,msgsent,
                                   181  	(The message was delivered to this recipient.)
                        000075          	segdef  message_delivered
    000075  a0   077777 001750
    001746  aa  155 163 147 163         	aci  "msgsent",8
    001747  aa  145 156 164 040
    001750  aa  054 124 150 145         	acc  "The message was delivered to this recipient."
    001751  aa  040 155 145 163
    001752  aa  163 141 147 145
    001753  aa  040 167 141 163
    001754  aa  040 144 145 154
    001755  aa  151 166 145 162
    001756  aa  145 144 040 164
    001757  aa  157 040 164 150
    001760  aa  151 163 040 162
    001761  aa  145 143 151 160
    001762  aa  151 145 156 164
    001763  aa  056 000 000 000

                                   182
                                   183  ec   message_not_sent,msg^snt,
                                   184  	(The message was not sent to any of the specified recipients.)
                        000076          	segdef  message_not_sent
    000076  a0   077777 001766
    001764  aa  155 163 147 136         	aci  "msg^snt",8
    001765  aa  163 156 164 040
    001766  aa  074 124 150 145         	acc  "The message was not sent to any of the specified recipients."
    001767  aa  040 155 145 163
    001770  aa  163 141 147 145
    001771  aa  040 167 141 163
    001772  aa  040 156 157 164
    001773  aa  040 163 145 156
    001774  aa  164 040 164 157
    001775  aa  040 141 156 171
    001776  aa  040 157 146 040
    001777  aa  164 150 145 040
    002000  aa  163 160 145 143
    002001  aa  151 146 151 145
    002002  aa  144 040 162 145
    002003  aa  143 151 160 151
    002004  aa  145 156 164 163
    002005  aa  056 000 000 000

                                   185
                                   186  ec   message_partially_sent,msgpsnt,
                                   187  	(The message was sent to some but not all of the specified recipients.)
                        000077          	segdef  message_partially_sent
    000077  a0   077777 002010
    002006  aa  155 163 147 160         	aci  "msgpsnt",8
    002007  aa  163 156 164 040
    002010  aa  105 124 150 145         	acc  "The message was sent to some but not all of the specified recipients."
    002011  aa  040 155 145 163
    002012  aa  163 141 147 145
    002013  aa  040 167 141 163
    002014  aa  040 163 145 156
    002015  aa  164 040 164 157
    002016  aa  040 163 157 155
    002017  aa  145 040 142 165
    002020  aa  164 040 156 157
    002021  aa  164 040 141 154
    002022  aa  154 040 157 146
    002023  aa  040 164 150 145
    002024  aa  040 163 160 145
    002025  aa  143 151 146 151
    002026  aa  145 144 040 162
    002027  aa  145 143 151 160
    002030  aa  151 145 156 164
    002031  aa  163 056 000 000

                                   188
                                   189  ec   message_queued,msgq,
                                   190  	(The message was queued for later delivery to this recipient.)
                        000100          	segdef  message_queued
    000100  a0   077777 002034
    002032  aa  155 163 147 161         	aci  "msgq",8
    002033  aa  040 040 040 040
    002034  aa  074 124 150 145         	acc  "The message was queued for later delivery to this recipient."
    002035  aa  040 155 145 163
    002036  aa  163 141 147 145
    002037  aa  040 167 141 163
    002040  aa  040 161 165 145
    002041  aa  165 145 144 040
    002042  aa  146 157 162 040
    002043  aa  154 141 164 145
    002044  aa  162 040 144 145
    002045  aa  154 151 166 145
    002046  aa  162 171 040 164
    002047  aa  157 040 164 150
    002050  aa  151 163 040 162
    002051  aa  145 143 151 160
    002052  aa  151 145 156 164
    002053  aa  056 000 000 000

                                   191
                                   192  ec   message_queued_and_delivered,msgq&d,
                                   193  	(The message was delivered to or queued for all the unique recipients in this mailing list or named group.)
                        000101          	segdef  message_queued_and_delivered
    000101  a0   077777 002056
    002054  aa  155 163 147 161         	aci  "msgq&d",8
    002055  aa  046 144 040 040
    002056  aa  151 124 150 145         	acc  "The message was delivered to or queued for all the unique recipients in this mailing list or named group."
    002057  aa  040 155 145 163
    002060  aa  163 141 147 145
    002061  aa  040 167 141 163
    002062  aa  040 144 145 154
    002063  aa  151 166 145 162
    002064  aa  145 144 040 164
    002065  aa  157 040 157 162
    002066  aa  040 161 165 145
    002067  aa  165 145 144 040
    002070  aa  146 157 162 040
    002071  aa  141 154 154 040
    002072  aa  164 150 145 040
    002073  aa  165 156 151 161
    002074  aa  165 145 040 162
    002075  aa  145 143 151 160
    002076  aa  151 145 156 164
    002077  aa  163 040 151 156
    002100  aa  040 164 150 151
    002101  aa  163 040 155 141
    002102  aa  151 154 151 156
    002103  aa  147 040 154 151
    002104  aa  163 164 040 157
    002105  aa  162 040 156 141
    002106  aa  155 145 144 040
    002107  aa  147 162 157 165
    002110  aa  160 056 000 000

                                   194
                                   195  ec   message_too_large,bigmsg,
                                   196  	(This message is too large to ever fit in a mailbox.)
                        000102          	segdef  message_too_large
    000102  a0   077777 002113
    002111  aa  142 151 147 155         	aci  "bigmsg",8
    002112  aa  163 147 040 040
    002113  aa  063 124 150 151         	acc  "This message is too large to ever fit in a mailbox."
    002114  aa  163 040 155 145
    002115  aa  163 163 141 147
    002116  aa  145 040 151 163
    002117  aa  040 164 157 157
    002120  aa  040 154 141 162
    002121  aa  147 145 040 164
    002122  aa  157 040 145 166
    002123  aa  145 162 040 146
    002124  aa  151 164 040 151
    002125  aa  156 040 141 040
    002126  aa  155 141 151 154
    002127  aa  142 157 170 056

                                   197
                                   198  ec   missing_acknowledge_to,noackto,
                                   199  	(The message does not specify a recipient for acknowledgements.)
                        000103          	segdef  missing_acknowledge_to
    000103  a0   077777 002132
    002130  aa  156 157 141 143         	aci  "noackto",8
    002131  aa  153 164 157 040
    002132  aa  076 124 150 145         	acc  "The message does not specify a recipient for acknowledgements."
    002133  aa  040 155 145 163
    002134  aa  163 141 147 145
    002135  aa  040 144 157 145
    002136  aa  163 040 156 157
    002137  aa  164 040 163 160
    002140  aa  145 143 151 146
    002141  aa  171 040 141 040
    002142  aa  162 145 143 151
    002143  aa  160 151 145 156
    002144  aa  164 040 146 157
    002145  aa  162 040 141 143
    002146  aa  153 156 157 167
    002147  aa  154 145 144 147
    002150  aa  145 155 145 156
    002151  aa  164 163 056 000

                                   200
                                   201  ec   missing_host_name,nohost,
                                   202  	(A host name must follow the symbol 'at', 'via', or '@'.)
                        000104          	segdef  missing_host_name
    000104  a0   077777 002154
    002152  aa  156 157 150 157         	aci  "nohost",8
    002153  aa  163 164 040 040
    002154  aa  067 101 040 150         	acc  "A host name must follow the symbol 'at', 'via', or '@'."
    002155  aa  157 163 164 040
    002156  aa  156 141 155 145
    002157  aa  040 155 165 163
    002160  aa  164 040 146 157
    002161  aa  154 154 157 167
    002162  aa  040 164 150 145
    002163  aa  040 163 171 155
    002164  aa  142 157 154 040
    002165  aa  047 141 164 047
    002166  aa  054 040 047 166
    002167  aa  151 141 047 054
    002170  aa  040 157 162 040
    002171  aa  047 100 047 056

                                   203
                                   204  ec   mte_not_found,nomte,
                                   205  	(The supplied name was not found in the system mail table.)
                        000105          	segdef  mte_not_found
    000105  a0   077777 002174
    002172  aa  156 157 155 164         	aci  "nomte",8
    002173  aa  145 040 040 040
    002174  aa  071 124 150 145         	acc  "The supplied name was not found in the system mail table."
    002175  aa  040 163 165 160
    002176  aa  160 154 151 145
    002177  aa  144 040 156 141
    002200  aa  155 145 040 167
    002201  aa  141 163 040 156
    002202  aa  157 164 040 146
    002203  aa  157 165 156 144
    002204  aa  040 151 156 040
    002205  aa  164 150 145 040
    002206  aa  163 171 163 164
    002207  aa  145 155 040 155
    002210  aa  141 151 154 040
    002211  aa  164 141 142 154
    002212  aa  145 056 000 000

                                   206
                                   207  ec   mte_not_mailbox,mte^mbx,
                                   208  	(The supplied name in the system mail table does not identify a mailbox.)
                        000106          	segdef  mte_not_mailbox
    000106  a0   077777 002215
    002213  aa  155 164 145 136         	aci  "mte^mbx",8
    002214  aa  155 142 170 040
    002215  aa  107 124 150 145         	acc  "The supplied name in the system mail table does not identify a mailbox."
    002216  aa  040 163 165 160
    002217  aa  160 154 151 145
    002220  aa  144 040 156 141
    002221  aa  155 145 040 151
    002222  aa  156 040 164 150
    002223  aa  145 040 163 171
    002224  aa  163 164 145 155
    002225  aa  040 155 141 151
    002226  aa  154 040 164 141
    002227  aa  142 154 145 040
    002230  aa  144 157 145 163
    002231  aa  040 156 157 164
    002232  aa  040 151 144 145
    002233  aa  156 164 151 146
    002234  aa  171 040 141 040
    002235  aa  155 141 151 154
    002236  aa  142 157 170 056

                                   209
                                   210  ec   multiple_address_routes,>1route,
                                   211  	(Only one set of address routing information may appear in an address.)
                        000107          	segdef  multiple_address_routes
    000107  a0   077777 002241
    002237  aa  076 061 162 157         	aci  ">1route",8
    002240  aa  165 164 145 040
    002241  aa  105 117 156 154         	acc  "Only one set of address routing information may appear in an address."
    002242  aa  171 040 157 156
    002243  aa  145 040 163 145
    002244  aa  164 040 157 146
    002245  aa  040 141 144 144
    002246  aa  162 145 163 163
    002247  aa  040 162 157 165
    002250  aa  164 151 156 147
    002251  aa  040 151 156 146
    002252  aa  157 162 155 141
    002253  aa  164 151 157 156
    002254  aa  040 155 141 171
    002255  aa  040 141 160 160
    002256  aa  145 141 162 040
    002257  aa  151 156 040 141
    002260  aa  156 040 141 144
    002261  aa  144 162 145 163
    002262  aa  163 056 000 000

                                   212
                                   213  ec   no_a_permission,^a,
                                   214  	(You do not have access to send messages to this mailbox.)
                        000110          	segdef  no_a_permission
    000110  a0   077777 002265
    002263  aa  136 141 040 040         	aci  "^a",8
    002264  aa  040 040 040 040
    002265  aa  070 131 157 165         	acc  "You do not have access to send messages to this mailbox."
    002266  aa  040 144 157 040
    002267  aa  156 157 164 040
    002270  aa  150 141 166 145
    002271  aa  040 141 143 143
    002272  aa  145 163 163 040
    002273  aa  164 157 040 163
    002274  aa  145 156 144 040
    002275  aa  155 145 163 163
    002276  aa  141 147 145 163
    002277  aa  040 164 157 040
    002300  aa  164 150 151 163
    002301  aa  040 155 141 151
    002302  aa  154 142 157 170
    002303  aa  056 000 000 000

                                   215
                                   216  ec   no_ack_needed,noack,
                                   217  	(The message does not request an acknowledgement.)
                        000111          	segdef  no_ack_needed
    000111  a0   077777 002306
    002304  aa  156 157 141 143         	aci  "noack",8
    002305  aa  153 040 040 040
    002306  aa  060 124 150 145         	acc  "The message does not request an acknowledgement."
    002307  aa  040 155 145 163
    002310  aa  163 141 147 145
    002311  aa  040 144 157 145
    002312  aa  163 040 156 157
    002313  aa  164 040 162 145
    002314  aa  161 165 145 163
    002315  aa  164 040 141 156
    002316  aa  040 141 143 153
    002317  aa  156 157 167 154
    002320  aa  145 144 147 145
    002321  aa  155 145 156 164
    002322  aa  056 000 000 000

                                   218
                                   219  ec   no_address_pathname,nopath,
                                   220  	(Specified address does not have an associated pathname.)
                        000112          	segdef  no_address_pathname
    000112  a0   077777 002325
    002323  aa  156 157 160 141         	aci  "nopath",8
    002324  aa  164 150 040 040
    002325  aa  067 123 160 145         	acc  "Specified address does not have an associated pathname."
    002326  aa  143 151 146 151
    002327  aa  145 144 040 141
    002330  aa  144 144 162 145
    002331  aa  163 163 040 144
    002332  aa  157 145 163 040
    002333  aa  156 157 164 040
    002334  aa  150 141 166 145
    002335  aa  040 141 156 040
    002336  aa  141 163 163 157
    002337  aa  143 151 141 164
    002340  aa  145 144 040 160
    002341  aa  141 164 150 156
    002342  aa  141 155 145 056

                                   221
                                   222  ec   no_address_route,noroute,
                                   223  	(Specified foreign address does include an explicit/implicit route specification.)
                        000113          	segdef  no_address_route
    000113  a0   077777 002345
    002343  aa  156 157 162 157         	aci  "noroute",8
    002344  aa  165 164 145 040
    002345  aa  120 123 160 145         	acc  "Specified foreign address does include an explicit/implicit route specification."
    002346  aa  143 151 146 151
    002347  aa  145 144 040 146
    002350  aa  157 162 145 151
    002351  aa  147 156 040 141
    002352  aa  144 144 162 145
    002353  aa  163 163 040 144
    002354  aa  157 145 163 040
    002355  aa  151 156 143 154
    002356  aa  165 144 145 040
    002357  aa  141 156 040 145
    002360  aa  170 160 154 151
    002361  aa  143 151 164 057
    002362  aa  151 155 160 154
    002363  aa  151 143 151 164
    002364  aa  040 162 157 165
    002365  aa  164 145 040 163
    002366  aa  160 145 143 151
    002367  aa  146 151 143 141
    002370  aa  164 151 157 156
    002371  aa  056 000 000 000

                                   224
                                   225  ec   no_address_string,nostring,
                                   226  	(Specified address does not have an associated text string.)
                        000114          	segdef  no_address_string
    000114  a0   077777 002374
    002372  aa  156 157 163 164         	aci  "nostring",8
    002373  aa  162 151 156 147
    002374  aa  072 123 160 145         	acc  "Specified address does not have an associated text string."
    002375  aa  143 151 146 151
    002376  aa  145 144 040 141
    002377  aa  144 144 162 145
    002400  aa  163 163 040 144
    002401  aa  157 145 163 040
    002402  aa  156 157 164 040
    002403  aa  150 141 166 145
    002404  aa  040 141 156 040
    002405  aa  141 163 163 157
    002406  aa  143 151 141 164
    002407  aa  145 144 040 164
    002410  aa  145 170 164 040
    002411  aa  163 164 162 151
    002412  aa  156 147 056 000

                                   227
                                   228  ec   no_comment_redistribution,nocomfwd,
                                   229  	(A comment field in the message is not part of one of the redistributions of the message.)
                        000115          	segdef  no_comment_redistribution
    000115  a0   077777 002415
    002413  aa  156 157 143 157         	aci  "nocomfwd",8
    002414  aa  155 146 167 144
    002415  aa  130 101 040 143         	acc  "A comment field in the message is not part of one of the redistributions of the message."
    002416  aa  157 155 155 145
    002417  aa  156 164 040 146
    002420  aa  151 145 154 144
    002421  aa  040 151 156 040
    002422  aa  164 150 145 040
    002423  aa  155 145 163 163
    002424  aa  141 147 145 040
    002425  aa  151 163 040 156
    002426  aa  157 164 040 160
    002427  aa  141 162 164 040
    002430  aa  157 146 040 157
    002431  aa  156 145 040 157
    002432  aa  146 040 164 150
    002433  aa  145 040 162 145
    002434  aa  144 151 163 164
    002435  aa  162 151 142 165
    002436  aa  164 151 157 156
    002437  aa  163 040 157 146
    002440  aa  040 164 150 145
    002441  aa  040 155 145 163
    002442  aa  163 141 147 145
    002443  aa  056 000 000 000

                                   230
                                   231  ec   no_forum_this_ring,noforum,
                                   232  	(Forum is not available in this ring.)
                        000116          	segdef  no_forum_this_ring
    000116  a0   077777 002446
    002444  aa  156 157 146 157         	aci  "noforum",8
    002445  aa  162 165 155 040
    002446  aa  044 106 157 162         	acc  "Forum is not available in this ring."
    002447  aa  165 155 040 151
    002450  aa  163 040 156 157
    002451  aa  164 040 141 166
    002452  aa  141 151 154 141
    002453  aa  142 154 145 040
    002454  aa  151 156 040 164
    002455  aa  150 151 163 040
    002456  aa  162 151 156 147
    002457  aa  056 000 000 000

                                   233
                                   234  ec   no_logbox,nologbx,
                                   235  	(Your logbox does not exist.)
                        000117          	segdef  no_logbox
    000117  a0   077777 002462
    002460  aa  156 157 154 157         	aci  "nologbx",8
    002461  aa  147 142 170 040
    002462  aa  033 131 157 165         	acc  "Your logbox does not exist."
    002463  aa  162 040 154 157
    002464  aa  147 142 157 170
    002465  aa  040 144 157 145
    002466  aa  163 040 156 157
    002467  aa  164 040 145 170
    002470  aa  151 163 164 056

                                   236
                                   237  ec   no_mailbox,nombx,
                                   238  	(The specified mailbox does not exist.)
                        000120          	segdef  no_mailbox
    000120  a0   077777 002473
    002471  aa  156 157 155 142         	aci  "nombx",8
    002472  aa  170 040 040 040
    002473  aa  045 124 150 145         	acc  "The specified mailbox does not exist."
    002474  aa  040 163 160 145
    002475  aa  143 151 146 151
    002476  aa  145 144 040 155
    002477  aa  141 151 154 142
    002500  aa  157 170 040 144
    002501  aa  157 145 163 040
    002502  aa  156 157 164 040
    002503  aa  145 170 151 163
    002504  aa  164 056 000 000

                                   239
                                   240  ec   no_mailing_list,nomls,
                                   241  	(The specified mailing list does not exist.)
                        000121          	segdef  no_mailing_list
    000121  a0   077777 002507
    002505  aa  156 157 155 154         	aci  "nomls",8
    002506  aa  163 040 040 040
    002507  aa  052 124 150 145         	acc  "The specified mailing list does not exist."
    002510  aa  040 163 160 145
    002511  aa  143 151 146 151
    002512  aa  145 144 040 155
    002513  aa  141 151 154 151
    002514  aa  156 147 040 154
    002515  aa  151 163 164 040
    002516  aa  144 157 145 163
    002517  aa  040 156 157 164
    002520  aa  040 145 170 151
    002521  aa  163 164 056 000

                                   242
                                   243  ec   no_mail_service,nomailer,
                                   244  	(The system on which this address resides does not support an incoming mail service.)
                        000122          	segdef  no_mail_service
    000122  a0   077777 002524
    002522  aa  156 157 155 141         	aci  "nomailer",8
    002523  aa  151 154 145 162
    002524  aa  123 124 150 145         	acc  "The system on which this address resides does not support an incoming mail service."
    002525  aa  040 163 171 163
    002526  aa  164 145 155 040
    002527  aa  157 156 040 167
    002530  aa  150 151 143 150
    002531  aa  040 164 150 151
    002532  aa  163 040 141 144
    002533  aa  144 162 145 163
    002534  aa  163 040 162 145
    002535  aa  163 151 144 145
    002536  aa  163 040 144 157
    002537  aa  145 163 040 156
    002540  aa  157 164 040 163
    002541  aa  165 160 160 157
    002542  aa  162 164 040 141
    002543  aa  156 040 151 156
    002544  aa  143 157 155 151
    002545  aa  156 147 040 155
    002546  aa  141 151 154 040
    002547  aa  163 145 162 166
    002550  aa  151 143 145 056

                                   245
                                   246  ec   no_message_header,nohead,
                                   247  	(There is no message header in the supplied text.)
                        000123          	segdef  no_message_header
    000123  a0   077777 002553
    002551  aa  156 157 150 145         	aci  "nohead",8
    002552  aa  141 144 040 040
    002553  aa  060 124 150 145         	acc  "There is no message header in the supplied text."
    002554  aa  162 145 040 151
    002555  aa  163 040 156 157
    002556  aa  040 155 145 163
    002557  aa  163 141 147 145
    002560  aa  040 150 145 141
    002561  aa  144 145 162 040
    002562  aa  151 156 040 164
    002563  aa  150 145 040 163
    002564  aa  165 160 160 154
    002565  aa  151 145 144 040
    002566  aa  164 145 170 164
    002567  aa  056 000 000 000

                                   248
                                   249  ec   no_message_canonical_form,notext,
                                   250  	(The canonical representation of this message is not available from the mailbox.)
                        000124          	segdef  no_message_canonical_form
    000124  a0   077777 002572
    002570  aa  156 157 164 145         	aci  "notext",8
    002571  aa  170 164 040 040
    002572  aa  117 124 150 145         	acc  "The canonical representation of this message is not available from the mailbox."
    002573  aa  040 143 141 156
    002574  aa  157 156 151 143
    002575  aa  141 154 040 162
    002576  aa  145 160 162 145
    002577  aa  163 145 156 164
    002600  aa  141 164 151 157
    002601  aa  156 040 157 146
    002602  aa  040 164 150 151
    002603  aa  163 040 155 145
    002604  aa  163 163 141 147
    002605  aa  145 040 151 163
    002606  aa  040 156 157 164
    002607  aa  040 141 166 141
    002610  aa  151 154 141 142
    002611  aa  154 145 040 146
    002612  aa  162 157 155 040
    002613  aa  164 150 145 040
    002614  aa  155 141 151 154
    002615  aa  142 157 170 056

                                   251
                                   252  ec   no_more_messages,nomore,
                                   253  	(There are no newly arrived messages in this mailbox.)
                        000125          	segdef  no_more_messages
    000125  a0   077777 002620
    002616  aa  156 157 155 157         	aci  "nomore",8
    002617  aa  162 145 040 040
    002620  aa  064 124 150 145         	acc  "There are no newly arrived messages in this mailbox."
    002621  aa  162 145 040 141
    002622  aa  162 145 040 156
    002623  aa  157 040 156 145
    002624  aa  167 154 171 040
    002625  aa  141 162 162 151
    002626  aa  166 145 144 040
    002627  aa  155 145 163 163
    002630  aa  141 147 145 163
    002631  aa  040 151 156 040
    002632  aa  164 150 151 163
    002633  aa  040 155 141 151
    002634  aa  154 142 157 170
    002635  aa  056 000 000 000

                                   254
                                   255  ec   no_o_permission,^o,
                                   256  	(You do not have access to read your messages in this mailbox.)
                        000126          	segdef  no_o_permission
    000126  a0   077777 002640
    002636  aa  136 157 040 040         	aci  "^o",8
    002637  aa  040 040 040 040
    002640  aa  075 131 157 165         	acc  "You do not have access to read your messages in this mailbox."
    002641  aa  040 144 157 040
    002642  aa  156 157 164 040
    002643  aa  150 141 166 145
    002644  aa  040 141 143 143
    002645  aa  145 163 163 040
    002646  aa  164 157 040 162
    002647  aa  145 141 144 040
    002650  aa  171 157 165 162
    002651  aa  040 155 145 163
    002652  aa  163 141 147 145
    002653  aa  163 040 151 156
    002654  aa  040 164 150 151
    002655  aa  163 040 155 141
    002656  aa  151 154 142 157
    002657  aa  170 056 000 000

                                   257
                                   258  ec   no_pending_deletion,^dlpend,
                                   259  	(There is no interrupted expunge_messages operation pending for this mailbox.)
                        000127          	segdef  no_pending_deletion
    000127  a0   077777 002662
    002660  aa  136 144 154 160         	aci  "^dlpend",8
    002661  aa  145 156 144 040
    002662  aa  114 124 150 145         	acc  "There is no interrupted expunge_messages operation pending for this mailbox."
    002663  aa  162 145 040 151
    002664  aa  163 040 156 157
    002665  aa  040 151 156 164
    002666  aa  145 162 162 165
    002667  aa  160 164 145 144
    002670  aa  040 145 170 160
    002671  aa  165 156 147 145
    002672  aa  137 155 145 163
    002673  aa  163 141 147 145
    002674  aa  163 040 157 160
    002675  aa  145 162 141 164
    002676  aa  151 157 156 040
    002677  aa  160 145 156 144
    002700  aa  151 156 147 040
    002701  aa  146 157 162 040
    002702  aa  164 150 151 163
    002703  aa  040 155 141 151
    002704  aa  154 142 157 170
    002705  aa  056 000 000 000

                                   260
                                   261  ec   no_r_permission,^r,
                                   262  	(You do not have access to read the messages in this mailbox.)
                        000130          	segdef  no_r_permission
    000130  a0   077777 002710
    002706  aa  136 162 040 040         	aci  "^r",8
    002707  aa  040 040 040 040
    002710  aa  074 131 157 165         	acc  "You do not have access to read the messages in this mailbox."
    002711  aa  040 144 157 040
    002712  aa  156 157 164 040
    002713  aa  150 141 166 145
    002714  aa  040 141 143 143
    002715  aa  145 163 163 040
    002716  aa  164 157 040 162
    002717  aa  145 141 144 040
    002720  aa  164 150 145 040
    002721  aa  155 145 163 163
    002722  aa  141 147 145 163
    002723  aa  040 151 156 040
    002724  aa  164 150 151 163
    002725  aa  040 155 141 151
    002726  aa  154 142 157 170
    002727  aa  056 000 000 000

                                   263
                                   264  ec   no_recipients,^rcpts,
                                   265  	(The message does not have any recipients.)
                        000131          	segdef  no_recipients
    000131  a0   077777 002732
    002730  aa  136 162 143 160         	aci  "^rcpts",8
    002731  aa  164 163 040 040
    002732  aa  051 124 150 145         	acc  "The message does not have any recipients."
    002733  aa  040 155 145 163
    002734  aa  163 141 147 145
    002735  aa  040 144 157 145
    002736  aa  163 040 156 157
    002737  aa  164 040 150 141
    002740  aa  166 145 040 141
    002741  aa  156 171 040 162
    002742  aa  145 143 151 160
    002743  aa  151 145 156 164
    002744  aa  163 056 000 000

                                   266
                                   267  ec   no_s_permission,^s,
                                   268  	(You do not have access to determine the number of messages in this mailbox.)
                        000132          	segdef  no_s_permission
    000132  a0   077777 002747
    002745  aa  136 163 040 040         	aci  "^s",8
    002746  aa  040 040 040 040
    002747  aa  113 131 157 165         	acc  "You do not have access to determine the number of messages in this mailbox."
    002750  aa  040 144 157 040
    002751  aa  156 157 164 040
    002752  aa  150 141 166 145
    002753  aa  040 141 143 143
    002754  aa  145 163 163 040
    002755  aa  164 157 040 144
    002756  aa  145 164 145 162
    002757  aa  155 151 156 145
    002760  aa  040 164 150 145
    002761  aa  040 156 165 155
    002762  aa  142 145 162 040
    002763  aa  157 146 040 155
    002764  aa  145 163 163 141
    002765  aa  147 145 163 040
    002766  aa  151 156 040 164
    002767  aa  150 151 163 040
    002770  aa  155 141 151 154
    002771  aa  142 157 170 056

                                   269
                                   270  ec   no_savebox,nosavebx,
                                   271  	(The specified savebox does not exist.)
                        000133          	segdef  no_savebox
    000133  a0   077777 002774
    002772  aa  156 157 163 141         	aci  "nosavebx",8
    002773  aa  166 145 142 170
    002774  aa  045 124 150 145         	acc  "The specified savebox does not exist."
    002775  aa  040 163 160 145
    002776  aa  143 151 146 151
    002777  aa  145 144 040 163
    003000  aa  141 166 145 142
    003001  aa  157 170 040 144
    003002  aa  157 145 163 040
    003003  aa  156 157 164 040
    003004  aa  145 170 151 163
    003005  aa  164 056 000 000

                                   272
                                   273  ec   not_address,^addr,
                                   274  	(Supplied data is not a mail system address.)
                        000134          	segdef  not_address
    000134  a0   077777 003010
    003006  aa  136 141 144 144         	aci  "^addr",8
    003007  aa  162 040 040 040
    003010  aa  053 123 165 160         	acc  "Supplied data is not a mail system address."
    003011  aa  160 154 151 145
    003012  aa  144 040 144 141
    003013  aa  164 141 040 151
    003014  aa  163 040 156 157
    003015  aa  164 040 141 040
    003016  aa  155 141 151 154
    003017  aa  040 163 171 163
    003020  aa  164 145 155 040
    003021  aa  141 144 144 162
    003022  aa  145 163 163 056

                                   275
                                   276  ec   not_address_list,^adrlist,
                                   277  	(Supplied data is not a mail system address list.)
                        000135          	segdef  not_address_list
    000135  a0   077777 003025
    003023  aa  136 141 144 162         	aci  "^adrlist",8
    003024  aa  154 151 163 164
    003025  aa  060 123 165 160         	acc  "Supplied data is not a mail system address list."
    003026  aa  160 154 151 145
    003027  aa  144 040 144 141
    003030  aa  164 141 040 151
    003031  aa  163 040 156 157
    003032  aa  164 040 141 040
    003033  aa  155 141 151 154
    003034  aa  040 163 171 163
    003035  aa  164 145 155 040
    003036  aa  141 144 144 162
    003037  aa  145 163 163 040
    003040  aa  154 151 163 164
    003041  aa  056 000 000 000

                                   278
                                   279  ec   not_foreign_address,^foreign,
                                   280  	(Specified address is local to this system.)
                        000136          	segdef  not_foreign_address
    000136  a0   077777 003044
    003042  aa  136 146 157 162         	aci  "^foreign",8
    003043  aa  145 151 147 156
    003044  aa  052 123 160 145         	acc  "Specified address is local to this system."
    003045  aa  143 151 146 151
    003046  aa  145 144 040 141
    003047  aa  144 144 162 145
    003050  aa  163 163 040 151
    003051  aa  163 040 154 157
    003052  aa  143 141 154 040
    003053  aa  164 157 040 164
    003054  aa  150 151 163 040
    003055  aa  163 171 163 164
    003056  aa  145 155 056 000

                                   281
                                   282  ec   not_in_mailbox_message,^immsg,
                                   283  	(Supplied message does not reside in a mailbox.)
                        000137          	segdef  not_in_mailbox_message
    000137  a0   077777 003061
    003057  aa  136 151 155 155         	aci  "^immsg",8
    003060  aa  163 147 040 040
    003061  aa  056 123 165 160         	acc  "Supplied message does not reside in a mailbox."
    003062  aa  160 154 151 145
    003063  aa  144 040 155 145
    003064  aa  163 163 141 147
    003065  aa  145 040 144 157
    003066  aa  145 163 040 156
    003067  aa  157 164 040 162
    003070  aa  145 163 151 144
    003071  aa  145 040 151 156
    003072  aa  040 141 040 155
    003073  aa  141 151 154 142
    003074  aa  157 170 056 000

                                   284
                                   285  ec   not_list_address,^listadr,
                                   286  	(Specified address is not a mailing list or named group.)
                        000140          	segdef  not_list_address
    000140  a0   077777 003077
    003075  aa  136 154 151 163         	aci  "^listadr",8
    003076  aa  164 141 144 162
    003077  aa  067 123 160 145         	acc  "Specified address is not a mailing list or named group."
    003100  aa  143 151 146 151
    003101  aa  145 144 040 141
    003102  aa  144 144 162 145
    003103  aa  163 163 040 151
    003104  aa  163 040 156 157
    003105  aa  164 040 141 040
    003106  aa  155 141 151 154
    003107  aa  151 156 147 040
    003110  aa  154 151 163 164
    003111  aa  040 157 162 040
    003112  aa  156 141 155 145
    003113  aa  144 040 147 162
    003114  aa  157 165 160 056

                                   287
                                   288  ec   not_mail_table_address,^mtaddr,
                                   289  	(Specified address does not identify an entry in the system mail-table.)
                        000141          	segdef  not_mail_table_address
    000141  a0   077777 003117
    003115  aa  136 155 164 141         	aci  "^mtaddr",8
    003116  aa  144 144 162 040
    003117  aa  106 123 160 145         	acc  "Specified address does not identify an entry in the system mail-table."
    003120  aa  143 151 146 151
    003121  aa  145 144 040 141
    003122  aa  144 144 162 145
    003123  aa  163 163 040 144
    003124  aa  157 145 163 040
    003125  aa  156 157 164 040
    003126  aa  151 144 145 156
    003127  aa  164 151 146 171
    003130  aa  040 141 156 040
    003131  aa  145 156 164 162
    003132  aa  171 040 151 156
    003133  aa  040 164 150 145
    003134  aa  040 163 171 163
    003135  aa  164 145 155 040
    003136  aa  155 141 151 154
    003137  aa  055 164 141 142
    003140  aa  154 145 056 000

                                   290
                                   291  ec   not_marked_for_deletion,^deleted,
                                   292  	(Specified message is not marked for subsequent deletion.)
                        000142          	segdef  not_marked_for_deletion
    000142  a0   077777 003143
    003141  aa  136 144 145 154         	aci  "^deleted",8
    003142  aa  145 164 145 144
    003143  aa  070 123 160 145         	acc  "Specified message is not marked for subsequent deletion."
    003144  aa  143 151 146 151
    003145  aa  145 144 040 155
    003146  aa  145 163 163 141
    003147  aa  147 145 040 151
    003150  aa  163 040 156 157
    003151  aa  164 040 155 141
    003152  aa  162 153 145 144
    003153  aa  040 146 157 162
    003154  aa  040 163 165 142
    003155  aa  163 145 161 165
    003156  aa  145 156 164 040
    003157  aa  144 145 154 145
    003160  aa  164 151 157 156
    003161  aa  056 000 000 000

                                   293
                                   294  ec   not_mailbox,^mbx,
                                   295  	(Supplied data is not a mail system mailbox structure.)
                        000143          	segdef  not_mailbox
    000143  a0   077777 003164
    003162  aa  136 155 142 170         	aci  "^mbx",8
    003163  aa  040 040 040 040
    003164  aa  065 123 165 160         	acc  "Supplied data is not a mail system mailbox structure."
    003165  aa  160 154 151 145
    003166  aa  144 040 144 141
    003167  aa  164 141 040 151
    003170  aa  163 040 156 157
    003171  aa  164 040 141 040
    003172  aa  155 141 151 154
    003173  aa  040 163 171 163
    003174  aa  164 145 155 040
    003175  aa  155 141 151 154
    003176  aa  142 157 170 040
    003177  aa  163 164 162 165
    003200  aa  143 164 165 162
    003201  aa  145 056 000 000

                                   296
                                   297  ec   not_message,^msg,
                                   298  	(Supplied data is not a mail system message structure.)
                        000144          	segdef  not_message
    000144  a0   077777 003204
    003202  aa  136 155 163 147         	aci  "^msg",8
    003203  aa  040 040 040 040
    003204  aa  065 123 165 160         	acc  "Supplied data is not a mail system message structure."
    003205  aa  160 154 151 145
    003206  aa  144 040 144 141
    003207  aa  164 141 040 151
    003210  aa  163 040 156 157
    003211  aa  164 040 141 040
    003212  aa  155 141 151 154
    003213  aa  040 163 171 163
    003214  aa  164 145 155 040
    003215  aa  155 145 163 163
    003216  aa  141 147 145 040
    003217  aa  163 164 162 165
    003220  aa  143 164 165 162
    003221  aa  145 056 000 000

                                   299
                                   300  ec   not_message_trace,^trace,
                                   301  	(Supplied data is not a mail system message_trace structure.)
                        000145          	segdef  not_message_trace
    000145  a0   077777 003224
    003222  aa  136 164 162 141         	aci  "^trace",8
    003223  aa  143 145 040 040
    003224  aa  073 123 165 160         	acc  "Supplied data is not a mail system message_trace structure."
    003225  aa  160 154 151 145
    003226  aa  144 040 144 141
    003227  aa  164 141 040 151
    003230  aa  163 040 156 157
    003231  aa  164 040 141 040
    003232  aa  155 141 151 154
    003233  aa  040 163 171 163
    003234  aa  164 145 155 040
    003235  aa  155 145 163 163
    003236  aa  141 147 145 137
    003237  aa  164 162 141 143
    003240  aa  145 040 163 164
    003241  aa  162 165 143 164
    003242  aa  165 162 145 056

                                   302
                                   303  ec   not_named_group_address,^namegrp,
                                   304  	(Specified address is not a named group.)
                        000146          	segdef  not_named_group_address
    000146  a0   077777 003245
    003243  aa  136 156 141 155         	aci  "^namegrp",8
    003244  aa  145 147 162 160
    003245  aa  047 123 160 145         	acc  "Specified address is not a named group."
    003246  aa  143 151 146 151
    003247  aa  145 144 040 141
    003250  aa  144 144 162 145
    003251  aa  163 163 040 151
    003252  aa  163 040 156 157
    003253  aa  164 040 141 040
    003254  aa  156 141 155 145
    003255  aa  144 040 147 162
    003256  aa  157 165 160 056

                                   305
                                   306  ec   not_new_message,^newmsg,
                                   307  	(Supplied message is not user-modifiable.)
                        000147          	segdef  not_new_message
    000147  a0   077777 003261
    003257  aa  136 156 145 167         	aci  "^newmsg",8
    003260  aa  155 163 147 040
    003261  aa  050 123 165 160         	acc  "Supplied message is not user-modifiable."
    003262  aa  160 154 151 145
    003263  aa  144 040 155 145
    003264  aa  163 163 141 147
    003265  aa  145 040 151 163
    003266  aa  040 156 157 164
    003267  aa  040 165 163 145
    003270  aa  162 055 155 157
    003271  aa  144 151 146 151
    003272  aa  141 142 154 145
    003273  aa  056 000 000 000

                                   308
                                   309  ec   not_temporary_segment,^temp,
                                   310  	(Specified segment is not a temporary segment created by the mail system.)
                        000150          	segdef  not_temporary_segment
    000150  a0   077777 003276
    003274  aa  136 164 145 155         	aci  "^temp",8
    003275  aa  160 040 040 040
    003276  aa  110 123 160 145         	acc  "Specified segment is not a temporary segment created by the mail system."
    003277  aa  143 151 146 151
    003300  aa  145 144 040 163
    003301  aa  145 147 155 145
    003302  aa  156 164 040 151
    003303  aa  163 040 156 157
    003304  aa  164 040 141 040
    003305  aa  164 145 155 160
    003306  aa  157 162 141 162
    003307  aa  171 040 163 145
    003310  aa  147 155 145 156
    003311  aa  164 040 143 162
    003312  aa  145 141 164 145
    003313  aa  144 040 142 171
    003314  aa  040 164 150 145
    003315  aa  040 155 141 151
    003316  aa  154 040 163 171
    003317  aa  163 164 145 155
    003320  aa  056 000 000 000

                                   311
                                   312  ec   obsolete_address_syntax,oldform,
                                   313  	(An obsolete form of address specification was supplied.)
                        000151          	segdef  obsolete_address_syntax
    000151  a0   077777 003323
    003321  aa  157 154 144 146         	aci  "oldform",8
    003322  aa  157 162 155 040
    003323  aa  067 101 156 040         	acc  "An obsolete form of address specification was supplied."
    003324  aa  157 142 163 157
    003325  aa  154 145 164 145
    003326  aa  040 146 157 162
    003327  aa  155 040 157 146
    003330  aa  040 141 144 144
    003331  aa  162 145 163 163
    003332  aa  040 163 160 145
    003333  aa  143 151 146 151
    003334  aa  143 141 164 151
    003335  aa  157 156 040 167
    003336  aa  141 163 040 163
    003337  aa  165 160 160 154
    003340  aa  151 145 144 056

                                   314
                                   315  ec   only_address_route_allowed,notroute,
                                   316  	(Only address routing information is allowed at this point in an address specification.)
                        000152          	segdef  only_address_route_allowed
    000152  a0   077777 003343
    003341  aa  156 157 164 162         	aci  "notroute",8
    003342  aa  157 165 164 145
    003343  aa  126 117 156 154         	acc  "Only address routing information is allowed at this point in an address specification."
    003344  aa  171 040 141 144
    003345  aa  144 162 145 163
    003346  aa  163 040 162 157
    003347  aa  165 164 151 156
    003350  aa  147 040 151 156
    003351  aa  146 157 162 155
    003352  aa  141 164 151 157
    003353  aa  156 040 151 163
    003354  aa  040 141 154 154
    003355  aa  157 167 145 144
    003356  aa  040 141 164 040
    003357  aa  164 150 151 163
    003360  aa  040 160 157 151
    003361  aa  156 164 040 151
    003362  aa  156 040 141 156
    003363  aa  040 141 144 144
    003364  aa  162 145 163 163
    003365  aa  040 163 160 145
    003366  aa  143 151 146 151
    003367  aa  143 141 164 151
    003370  aa  157 156 056 000

                                   317
                                   318  ec   null_foreign_address,nullfadr,
                                   319  	(Specified address does not include the actual address on the foreign system.)
                        000153          	segdef  null_foreign_address
    000153  a0   077777 003373
    003371  aa  156 165 154 154         	aci  "nullfadr",8
    003372  aa  146 141 144 162
    003373  aa  114 123 160 145         	acc  "Specified address does not include the actual address on the foreign system."
    003374  aa  143 151 146 151
    003375  aa  145 144 040 141
    003376  aa  144 144 162 145
    003377  aa  163 163 040 144
    003400  aa  157 145 163 040
    003401  aa  156 157 164 040
    003402  aa  151 156 143 154
    003403  aa  165 144 145 040
    003404  aa  164 150 145 040
    003405  aa  141 143 164 165
    003406  aa  141 154 040 141
    003407  aa  144 144 162 145
    003410  aa  163 163 040 157
    003411  aa  156 040 164 150
    003412  aa  145 040 146 157
    003413  aa  162 145 151 147
    003414  aa  156 040 163 171
    003415  aa  163 164 145 155
    003416  aa  056 000 000 000

                                   320
                                   321  ec   null_named_group_name,nullname,
                                   322  	(Specified named group does not have a name.)
                        000154          	segdef  null_named_group_name
    000154  a0   077777 003421
    003417  aa  156 165 154 154         	aci  "nullname",8
    003420  aa  156 141 155 145
    003421  aa  053 123 160 145         	acc  "Specified named group does not have a name."
    003422  aa  143 151 146 151
    003423  aa  145 144 040 156
    003424  aa  141 155 145 144
    003425  aa  040 147 162 157
    003426  aa  165 160 040 144
    003427  aa  157 145 163 040
    003430  aa  156 157 164 040
    003431  aa  150 141 166 145
    003432  aa  040 141 040 156
    003433  aa  141 155 145 056

                                   323
                                   324  ec   null_search_string,nullsstr,
                                   325  	(The supplied search string does not contain any non-whitespace characters.)
                        000155          	segdef  null_search_string
    000155  a0   077777 003436
    003434  aa  156 165 154 154         	aci  "nullsstr",8
    003435  aa  163 163 164 162
    003436  aa  112 124 150 145         	acc  "The supplied search string does not contain any non-whitespace characters."
    003437  aa  040 163 165 160
    003440  aa  160 154 151 145
    003441  aa  144 040 163 145
    003442  aa  141 162 143 150
    003443  aa  040 163 164 162
    003444  aa  151 156 147 040
    003445  aa  144 157 145 163
    003446  aa  040 156 157 164
    003447  aa  040 143 157 156
    003450  aa  164 141 151 156
    003451  aa  040 141 156 171
    003452  aa  040 156 157 156
    003453  aa  055 167 150 151
    003454  aa  164 145 163 160
    003455  aa  141 143 145 040
    003456  aa  143 150 141 162
    003457  aa  141 143 164 145
    003460  aa  162 163 056 000

                                   326
                                   327  ec   read_only_address_list,rolist,
                                   328  	(Supplied address list is not user-modifiable.)
                        000156          	segdef  read_only_address_list
    000156  a0   077777 003463
    003461  aa  162 157 154 151         	aci  "rolist",8
    003462  aa  163 164 040 040
    003463  aa  055 123 165 160         	acc  "Supplied address list is not user-modifiable."
    003464  aa  160 154 151 145
    003465  aa  144 040 141 144
    003466  aa  144 162 145 163
    003467  aa  163 040 154 151
    003470  aa  163 164 040 151
    003471  aa  163 040 156 157
    003472  aa  164 040 165 163
    003473  aa  145 162 055 155
    003474  aa  157 144 151 146
    003475  aa  151 141 142 154
    003476  aa  145 056 000 000

                                   329
                                   330  ec   recursive_named_addresses,badname,
                                   331  	(The content of a named address may not be another named address.)
                        000157          	segdef  recursive_named_addresses
    000157  a0   077777 003501
    003477  aa  142 141 144 156         	aci  "badname",8
    003500  aa  141 155 145 040
    003501  aa  100 124 150 145         	acc  "The content of a named address may not be another named address."
    003502  aa  040 143 157 156
    003503  aa  164 145 156 164
    003504  aa  040 157 146 040
    003505  aa  141 040 156 141
    003506  aa  155 145 144 040
    003507  aa  141 144 144 162
    003510  aa  145 163 163 040
    003511  aa  155 141 171 040
    003512  aa  156 157 164 040
    003513  aa  142 145 040 141
    003514  aa  156 157 164 150
    003515  aa  145 162 040 156
    003516  aa  141 155 145 144
    003517  aa  040 141 144 144
    003520  aa  162 145 163 163
    003521  aa  056 000 000 000

                                   332
                                   333  ec   rejected_by_foreign_system,badaddr,
                                   334  	(The foreign system rejected the mail destined for this recipient.)
                        000160          	segdef  rejected_by_foreign_system
    000160  a0   077777 003524
    003522  aa  142 141 144 141         	aci  "badaddr",8
    003523  aa  144 144 162 040
    003524  aa  101 124 150 145         	acc  "The foreign system rejected the mail destined for this recipient."
    003525  aa  040 146 157 162
    003526  aa  145 151 147 156
    003527  aa  040 163 171 163
    003530  aa  164 145 155 040
    003531  aa  162 145 152 145
    003532  aa  143 164 145 144
    003533  aa  040 164 150 145
    003534  aa  040 155 141 151
    003535  aa  154 040 144 145
    003536  aa  163 164 151 156
    003537  aa  145 144 040 146
    003540  aa  157 162 040 164
    003541  aa  150 151 163 040
    003542  aa  162 145 143 151
    003543  aa  160 151 145 156
    003544  aa  164 056 000 000

                                   335
                                   336  ec   reserved_field_name,rsvfield,
                                   337  	(Supplied field name is reserved for use by the mail system.)
                        000161          	segdef  reserved_field_name
    000161  a0   077777 003547
    003545  aa  162 163 166 146         	aci  "rsvfield",8
    003546  aa  151 145 154 144
    003547  aa  073 123 165 160         	acc  "Supplied field name is reserved for use by the mail system."
    003550  aa  160 154 151 145
    003551  aa  144 040 146 151
    003552  aa  145 154 144 040
    003553  aa  156 141 155 145
    003554  aa  040 151 163 040
    003555  aa  162 145 163 145
    003556  aa  162 166 145 144
    003557  aa  040 146 157 162
    003560  aa  040 165 163 145
    003561  aa  040 142 171 040
    003562  aa  164 150 145 040
    003563  aa  155 141 151 154
    003564  aa  040 163 171 163
    003565  aa  164 145 155 056

                                   338
                                   339  ec   route_out_of_service,deadrout,
                                   340  	(The route used to send mail to this address is temporarily out of service.)
                        000162          	segdef  route_out_of_service
    000162  a0   077777 003570
    003566  aa  144 145 141 144         	aci  "deadrout",8
    003567  aa  162 157 165 164
    003570  aa  112 124 150 145         	acc  "The route used to send mail to this address is temporarily out of service."
    003571  aa  040 162 157 165
    003572  aa  164 145 040 165
    003573  aa  163 145 144 040
    003574  aa  164 157 040 163
    003575  aa  145 156 144 040
    003576  aa  155 141 151 154
    003577  aa  040 164 157 040
    003600  aa  164 150 151 163
    003601  aa  040 141 144 144
    003602  aa  162 145 163 163
    003603  aa  040 151 163 040
    003604  aa  164 145 155 160
    003605  aa  157 162 141 162
    003606  aa  151 154 171 040
    003607  aa  157 165 164 040
    003610  aa  157 146 040 163
    003611  aa  145 162 166 151
    003612  aa  143 145 056 000

                                   341
                                   342  ec   savebox_created,madesave,
                                   343  	(The specified savebox has been created.)
                        000163          	segdef  savebox_created
    000163  a0   077777 003615
    003613  aa  155 141 144 145         	aci  "madesave",8
    003614  aa  163 141 166 145
    003615  aa  047 124 150 145         	acc  "The specified savebox has been created."
    003616  aa  040 163 160 145
    003617  aa  143 151 146 151
    003620  aa  145 144 040 163
    003621  aa  141 166 145 142
    003622  aa  157 170 040 150
    003623  aa  141 163 040 142
    003624  aa  145 145 156 040
    003625  aa  143 162 145 141
    003626  aa  164 145 144 056

                                   344
                                   345  ec   some_messages_not_deleted,^msgsdl,
                                   346  	(One or more messages could not be deleted.)
                        000164          	segdef  some_messages_not_deleted
    000164  a0   077777 003631
    003627  aa  136 155 163 147         	aci  "^msgsdl",8
    003630  aa  163 144 154 040
    003631  aa  052 117 156 145         	acc  "One or more messages could not be deleted."
    003632  aa  040 157 162 040
    003633  aa  155 157 162 145
    003634  aa  040 155 145 163
    003635  aa  163 141 147 145
    003636  aa  163 040 143 157
    003637  aa  165 154 144 040
    003640  aa  156 157 164 040
    003641  aa  142 145 040 144
    003642  aa  145 154 145 164
    003643  aa  145 144 056 000

                                   347
                                   348  ec   text_follows_address,extratxt,
                                   349  	(Text follows the logical end of an address specification.)
                        000165          	segdef  text_follows_address
    000165  a0   077777 003646
    003644  aa  145 170 164 162         	aci  "extratxt",8
    003645  aa  141 164 170 164
    003646  aa  071 124 145 170         	acc  "Text follows the logical end of an address specification."
    003647  aa  164 040 146 157
    003650  aa  154 154 157 167
    003651  aa  163 040 164 150
    003652  aa  145 040 154 157
    003653  aa  147 151 143 141
    003654  aa  154 040 145 156
    003655  aa  144 040 157 146
    003656  aa  040 141 156 040
    003657  aa  141 144 144 162
    003660  aa  145 163 163 040
    003661  aa  163 160 145 143
    003662  aa  151 146 151 143
    003663  aa  141 164 151 157
    003664  aa  156 056 000 000

                                   350
                                   351  ec   text_follows_route,extratxt,
                                   352  	(Text follows the logical end of an implicit route.)
                        000166          	segdef  text_follows_route
    000166  a0   077777 003667
    003665  aa  145 170 164 162         	aci  "extratxt",8
    003666  aa  141 164 170 164
    003667  aa  062 124 145 170         	acc  "Text follows the logical end of an implicit route."
    003670  aa  164 040 146 157
    003671  aa  154 154 157 167
    003672  aa  163 040 164 150
    003673  aa  145 040 154 157
    003674  aa  147 151 143 141
    003675  aa  154 040 145 156
    003676  aa  144 040 157 146
    003677  aa  040 141 156 040
    003700  aa  151 155 160 154
    003701  aa  151 143 151 164
    003702  aa  040 162 157 165
    003703  aa  164 145 056 000

                                   353
                                   354  ec   text_parse_failed,badtext,
                                   355  	(Errors were detected while parsing the supplied text.)
                        000167          	segdef  text_parse_failed
    000167  a0   077777 003706
    003704  aa  142 141 144 164         	aci  "badtext",8
    003705  aa  145 170 164 040
    003706  aa  065 105 162 162         	acc  "Errors were detected while parsing the supplied text."
    003707  aa  157 162 163 040
    003710  aa  167 145 162 145
    003711  aa  040 144 145 164
    003712  aa  145 143 164 145
    003713  aa  144 040 167 150
    003714  aa  151 154 145 040
    003715  aa  160 141 162 163
    003716  aa  151 156 147 040
    003717  aa  164 150 145 040
    003720  aa  163 165 160 160
    003721  aa  154 151 145 144
    003722  aa  040 164 145 170
    003723  aa  164 056 000 000

                                   356
                                   357  ec   too_many_recipients,tmrecipt,
                                   358  	(There are too many recipients specified for the message.)
                        000170          	segdef  too_many_recipients
    000170  a0   077777 003726
    003724  aa  164 155 162 145         	aci  "tmrecipt",8
    003725  aa  143 151 160 164
    003726  aa  070 124 150 145         	acc  "There are too many recipients specified for the message."
    003727  aa  162 145 040 141
    003730  aa  162 145 040 164
    003731  aa  157 157 040 155
    003732  aa  141 156 171 040
    003733  aa  162 145 143 151
    003734  aa  160 151 145 156
    003735  aa  164 163 040 163
    003736  aa  160 145 143 151
    003737  aa  146 151 145 144
    003740  aa  040 146 157 162
    003741  aa  040 164 150 145
    003742  aa  040 155 145 163
    003743  aa  163 141 147 145
    003744  aa  056 000 000 000

                                   359
                                   360  ec   unable_to_queue_mail,cantq,
                                   361  	(The message can not be queued for later delivery to this address.)
                        000171          	segdef  unable_to_queue_mail
    000171  a0   077777 003747
    003745  aa  143 141 156 164         	aci  "cantq",8
    003746  aa  161 040 040 040
    003747  aa  101 124 150 145         	acc  "The message can not be queued for later delivery to this address."
    003750  aa  040 155 145 163
    003751  aa  163 141 147 145
    003752  aa  040 143 141 156
    003753  aa  040 156 157 164
    003754  aa  040 142 145 040
    003755  aa  161 165 145 165
    003756  aa  145 144 040 146
    003757  aa  157 162 040 154
    003760  aa  141 164 145 162
    003761  aa  040 144 145 154
    003762  aa  151 166 145 162
    003763  aa  171 040 164 157
    003764  aa  040 164 150 151
    003765  aa  163 040 141 144
    003766  aa  144 162 145 163
    003767  aa  163 056 000 000

                                   362
                                   363  ec   unbalanced_braces,unbbrace,
                                   364  	(Braces do not balance.)
                        000172          	segdef  unbalanced_braces
    000172  a0   077777 003772
    003770  aa  165 156 142 142         	aci  "unbbrace",8
    003771  aa  162 141 143 145
    003772  aa  026 102 162 141         	acc  "Braces do not balance."
    003773  aa  143 145 163 040
    003774  aa  144 157 040 156
    003775  aa  157 164 040 142
    003776  aa  141 154 141 156
    003777  aa  143 145 056 000

                                   365
                                   366  ec   unbalanced_parentheses,unbparen,
                                   367  	(Parentheses do not balance.)
                        000173          	segdef  unbalanced_parentheses
    000173  a0   077777 004002
    004000  aa  165 156 142 160         	aci  "unbparen",8
    004001  aa  141 162 145 156
    004002  aa  033 120 141 162         	acc  "Parentheses do not balance."
    004003  aa  145 156 164 150
    004004  aa  145 163 145 163
    004005  aa  040 144 157 040
    004006  aa  156 157 164 040
    004007  aa  142 141 154 141
    004010  aa  156 143 145 056

                                   368
                                   369  ec   unbalanced_quotes,unbquote,
                                   370  	(Quotes do not balance.)
                        000174          	segdef  unbalanced_quotes
    000174  a0   077777 004013
    004011  aa  165 156 142 161         	aci  "unbquote",8
    004012  aa  165 157 164 145
    004013  aa  026 121 165 157         	acc  "Quotes do not balance."
    004014  aa  164 145 163 040
    004015  aa  144 157 040 156
    004016  aa  157 164 040 142
    004017  aa  141 154 141 156
    004020  aa  143 145 056 000

                                   371
                                   372  ec   unknown_body_section_type,unkbody,
                                   373  	(Supplied message body section is of a type not supported by the mail system.)
                        000175          	segdef  unknown_body_section_type
    000175  a0   077777 004023
    004021  aa  165 156 153 142         	aci  "unkbody",8
    004022  aa  157 144 171 040
    004023  aa  114 123 165 160         	acc  "Supplied message body section is of a type not supported by the mail system."
    004024  aa  160 154 151 145
    004025  aa  144 040 155 145
    004026  aa  163 163 141 147
    004027  aa  145 040 142 157
    004030  aa  144 171 040 163
    004031  aa  145 143 164 151
    004032  aa  157 156 040 151
    004033  aa  163 040 157 146
    004034  aa  040 141 040 164
    004035  aa  171 160 145 040
    004036  aa  156 157 164 040
    004037  aa  163 165 160 160
    004040  aa  157 162 164 145
    004041  aa  144 040 142 171
    004042  aa  040 164 150 145
    004043  aa  040 155 141 151
    004044  aa  154 040 163 171
    004045  aa  163 164 145 155
    004046  aa  056 000 000 000

                                   374
                                   375  ec   unknown_delivery_mode,unkdlvr,
                                   376  	(Supplied delivery mode is not supported by the mail system.)
                        000176          	segdef  unknown_delivery_mode
    000176  a0   077777 004051
    004047  aa  165 156 153 144         	aci  "unkdlvr",8
    004050  aa  154 166 162 040
    004051  aa  073 123 165 160         	acc  "Supplied delivery mode is not supported by the mail system."
    004052  aa  160 154 151 145
    004053  aa  144 040 144 145
    004054  aa  154 151 166 145
    004055  aa  162 171 040 155
    004056  aa  157 144 145 040
    004057  aa  151 163 040 156
    004060  aa  157 164 040 163
    004061  aa  165 160 160 157
    004062  aa  162 164 145 144
    004063  aa  040 142 171 040
    004064  aa  164 150 145 040
    004065  aa  155 141 151 154
    004066  aa  040 163 171 163
    004067  aa  164 145 155 056

                                   377
                                   378  ec   unknown_message_id,unkmsgid,
                                   379  	(Supplied Message-ID is not registered with the mail system.)
                        000177          	segdef  unknown_message_id
    000177  a0   077777 004072
    004070  aa  165 156 153 155         	aci  "unkmsgid",8
    004071  aa  163 147 151 144
    004072  aa  073 123 165 160         	acc  "Supplied Message-ID is not registered with the mail system."
    004073  aa  160 154 151 145
    004074  aa  144 040 115 145
    004075  aa  163 163 141 147
    004076  aa  145 055 111 104
    004077  aa  040 151 163 040
    004100  aa  156 157 164 040
    004101  aa  162 145 147 151
    004102  aa  163 164 145 162
    004103  aa  145 144 040 167
    004104  aa  151 164 150 040
    004105  aa  164 150 145 040
    004106  aa  155 141 151 154
    004107  aa  040 163 171 163
    004110  aa  164 145 155 056

                                   380
                                   381  ec   unknown_queued_notify_mode,unkqnmd,
                                   382  	(Supplied queued notification mode is not supported by the mail syste.)
                        000200          	segdef  unknown_queued_notify_mode
    000200  a0   077777 004113
    004111  aa  165 156 153 161         	aci  "unkqnmd",8
    004112  aa  156 155 144 040
    004113  aa  105 123 165 160         	acc  "Supplied queued notification mode is not supported by the mail syste."
    004114  aa  160 154 151 145
    004115  aa  144 040 161 165
    004116  aa  145 165 145 144
    004117  aa  040 156 157 164
    004120  aa  151 146 151 143
    004121  aa  141 164 151 157
    004122  aa  156 040 155 157
    004123  aa  144 145 040 151
    004124  aa  163 040 156 157
    004125  aa  164 040 163 165
    004126  aa  160 160 157 162
    004127  aa  164 145 144 040
    004130  aa  142 171 040 164
    004131  aa  150 145 040 155
    004132  aa  141 151 154 040
    004133  aa  163 171 163 164
    004134  aa  145 056 000 000

                                   383
                                   384  ec   unknown_queueing_mode,unkqmode,
                                   385  	(Supplied queueing mode is not supported by the mail system.)
                        000201          	segdef  unknown_queueing_mode
    000201  a0   077777 004137
    004135  aa  165 156 153 161         	aci  "unkqmode",8
    004136  aa  155 157 144 145
    004137  aa  073 123 165 160         	acc  "Supplied queueing mode is not supported by the mail system."
    004140  aa  160 154 151 145
    004141  aa  144 040 161 165
    004142  aa  145 165 145 151
    004143  aa  156 147 040 155
    004144  aa  157 144 145 040
    004145  aa  151 163 040 156
    004146  aa  157 164 040 163
    004147  aa  165 160 160 157
    004150  aa  162 164 145 144
    004151  aa  040 142 171 040
    004152  aa  164 150 145 040
    004153  aa  155 141 151 154
    004154  aa  040 163 171 163
    004155  aa  164 145 155 056

                                   386
                                   387  ec   unknown_structured_address_type,unksat,
                                   388  	(Specified type of local address is not supported by the mail system.)
                        000202          	segdef  unknown_structured_address_type
    000202  a0   077777 004160
    004156  aa  165 156 153 163         	aci  "unksat",8
    004157  aa  141 164 040 040
    004160  aa  104 123 160 145         	acc  "Specified type of local address is not supported by the mail system."
    004161  aa  143 151 146 151
    004162  aa  145 144 040 164
    004163  aa  171 160 145 040
    004164  aa  157 146 040 154
    004165  aa  157 143 141 154
    004166  aa  040 141 144 144
    004167  aa  162 145 163 163
    004170  aa  040 151 163 040
    004171  aa  156 157 164 040
    004172  aa  163 165 160 160
    004173  aa  157 162 164 145
    004174  aa  144 040 142 171
    004175  aa  040 164 150 145
    004176  aa  040 155 141 151
    004177  aa  154 040 163 171
    004200  aa  163 164 145 155
    004201  aa  056 000 000 000

                                   389
                                   390  ec   unknown_system,^host,
                                   391  	(Specified foreign system is not known to this system.)
                        000203          	segdef  unknown_system
    000203  a0   077777 004204
    004202  aa  136 150 157 163         	aci  "^host",8
    004203  aa  164 040 040 040
    004204  aa  065 123 160 145         	acc  "Specified foreign system is not known to this system."
    004205  aa  143 151 146 151
    004206  aa  145 144 040 146
    004207  aa  157 162 145 151
    004210  aa  147 156 040 163
    004211  aa  171 163 164 145
    004212  aa  155 040 151 163
    004213  aa  040 156 157 164
    004214  aa  040 153 156 157
    004215  aa  167 156 040 164
    004216  aa  157 040 164 150
    004217  aa  151 163 040 163
    004220  aa  171 163 164 145
    004221  aa  155 056 000 000

                                   392
                                   393  ec   unknown_user_field_id,ufieldid,
                                   394  	(Supplied user-defined field ID is not registered with the mail system.)
                        000204          	segdef  unknown_user_field_id
    000204  a0   077777 004224
    004222  aa  165 146 151 145         	aci  "ufieldid",8
    004223  aa  154 144 151 144
    004224  aa  106 123 165 160         	acc  "Supplied user-defined field ID is not registered with the mail system."
    004225  aa  160 154 151 145
    004226  aa  144 040 165 163
    004227  aa  145 162 055 144
    004230  aa  145 146 151 156
    004231  aa  145 144 040 146
    004232  aa  151 145 154 144
    004233  aa  040 111 104 040
    004234  aa  151 163 040 156
    004235  aa  157 164 040 162
    004236  aa  145 147 151 163
    004237  aa  164 145 162 145
    004240  aa  144 040 167 151
    004241  aa  164 150 040 164
    004242  aa  150 145 040 155
    004243  aa  141 151 154 040
    004244  aa  163 171 163 164
    004245  aa  145 155 056 000

                                   395
                                   396  ec   unknown_user_field_type,ufieldtp,
                                   397  	(Supplied user-defined field is of a type not supported by the mail system.)
                        000205          	segdef  unknown_user_field_type
    000205  a0   077777 004250
    004246  aa  165 146 151 145         	aci  "ufieldtp",8
    004247  aa  154 144 164 160
    004250  aa  112 123 165 160         	acc  "Supplied user-defined field is of a type not supported by the mail system."
    004251  aa  160 154 151 145
    004252  aa  144 040 165 163
    004253  aa  145 162 055 144
    004254  aa  145 146 151 156
    004255  aa  145 144 040 146
    004256  aa  151 145 154 144
    004257  aa  040 151 163 040
    004260  aa  157 146 040 141
    004261  aa  040 164 171 160
    004262  aa  145 040 156 157
    004263  aa  164 040 163 165
    004264  aa  160 160 157 162
    004265  aa  164 145 144 040
    004266  aa  142 171 040 164
    004267  aa  150 145 040 155
    004270  aa  141 151 154 040
    004271  aa  163 171 163 164
    004272  aa  145 155 056 000

                                   398
                                   399  ec   unsupported_reserved_field_name,unsfield,
                                   400  	(Supplied field name is reserved for future use by the mail system.)
                        000206          	segdef  unsupported_reserved_field_name
    000206  a0   077777 004275
    004273  aa  165 156 163 146         	aci  "unsfield",8
    004274  aa  151 145 154 144
    004275  aa  102 123 165 160         	acc  "Supplied field name is reserved for future use by the mail system."
    004276  aa  160 154 151 145
    004277  aa  144 040 146 151
    004300  aa  145 154 144 040
    004301  aa  156 141 155 145
    004302  aa  040 151 163 040
    004303  aa  162 145 163 145
    004304  aa  162 166 145 144
    004305  aa  040 146 157 162
    004306  aa  040 146 165 164
    004307  aa  165 162 145 040
    004310  aa  165 163 145 040
    004311  aa  142 171 040 164
    004312  aa  150 145 040 155
    004313  aa  141 151 154 040
    004314  aa  163 171 163 164
    004315  aa  145 155 056 000

                                   401
                                   402  	end

NO LITERALS

NAME DEFINITIONS FOR ENTRY POINTS AND SEGDEFS

    004316  5a   000003 000000
    004317  5a   002077 600000
    004320  aa   000000 000000
    004321  55   000011 000002
    004322  5a   000002 400003
    004323  55   000006 000011
    004324  aa  011 155 154 163
    004325  aa  171 163 137 145
    004326  aa  164 137 000 000
    004327  55   000024 000003
    004330  2a   000206 400001
    004331  55   000014 000003
    004332  aa  037 165 156 163         unsupported_reserved_field_name
    004333  aa  165 160 160 157
    004334  aa  162 164 145 144
    004335  aa  137 162 145 163
    004336  aa  145 162 166 145
    004337  aa  144 137 146 151
    004340  aa  145 154 144 137
    004341  aa  156 141 155 145
    004342  55   000035 000011
    004343  2a   000205 400001
    004344  55   000027 000003
    004345  aa  027 165 156 153         unknown_user_field_type
    004346  aa  156 157 167 156
    004347  aa  137 165 163 145
    004350  aa  162 137 146 151
    004351  aa  145 154 144 137
    004352  aa  164 171 160 145
    004353  55   000046 000024
    004354  2a   000204 400001
    004355  55   000040 000003
    004356  aa  025 165 156 153         unknown_user_field_id
    004357  aa  156 157 167 156
    004360  aa  137 165 163 145
    004361  aa  162 137 146 151
    004362  aa  145 154 144 137
    004363  aa  151 144 000 000
    004364  55   000055 000035
    004365  2a   000203 400001
    004366  55   000051 000003
    004367  aa  016 165 156 153         unknown_system
    004370  aa  156 157 167 156
    004371  aa  137 163 171 163
    004372  aa  164 145 155 000
    004373  55   000070 000046
    004374  2a   000202 400001
    004375  55   000060 000003
    004376  aa  037 165 156 153         unknown_structured_address_type
    004377  aa  156 157 167 156
    004400  aa  137 163 164 162
    004401  aa  165 143 164 165
    004402  aa  162 145 144 137
    004403  aa  141 144 144 162
    004404  aa  145 163 163 137
    004405  aa  164 171 160 145
    004406  55   000101 000055
    004407  2a   000201 400001
    004410  55   000073 000003
    004411  aa  025 165 156 153         unknown_queueing_mode
    004412  aa  156 157 167 156
    004413  aa  137 161 165 145
    004414  aa  165 145 151 156
    004415  aa  147 137 155 157
    004416  aa  144 145 000 000
    004417  55   000113 000070
    004420  2a   000200 400001
    004421  55   000104 000003
    004422  aa  032 165 156 153         unknown_queued_notify_mode
    004423  aa  156 157 167 156
    004424  aa  137 161 165 145
    004425  aa  165 145 144 137
    004426  aa  156 157 164 151
    004427  aa  146 171 137 155
    004430  aa  157 144 145 000
    004431  55   000123 000101
    004432  2a   000177 400001
    004433  55   000116 000003
    004434  aa  022 165 156 153         unknown_message_id
    004435  aa  156 157 167 156
    004436  aa  137 155 145 163
    004437  aa  163 141 147 145
    004440  aa  137 151 144 000
    004441  55   000134 000113
    004442  2a   000176 400001
    004443  55   000126 000003
    004444  aa  025 165 156 153         unknown_delivery_mode
    004445  aa  156 157 167 156
    004446  aa  137 144 145 154
    004447  aa  151 166 145 162
    004450  aa  171 137 155 157
    004451  aa  144 145 000 000
    004452  55   000146 000123
    004453  2a   000175 400001
    004454  55   000137 000003
    004455  aa  031 165 156 153         unknown_body_section_type
    004456  aa  156 157 167 156
    004457  aa  137 142 157 144
    004460  aa  171 137 163 145
    004461  aa  143 164 151 157
    004462  aa  156 137 164 171
    004463  aa  160 145 000 000
    004464  55   000156 000134
    004465  2a   000174 400001
    004466  55   000151 000003
    004467  aa  021 165 156 142         unbalanced_quotes
    004470  aa  141 154 141 156
    004471  aa  143 145 144 137
    004472  aa  161 165 157 164
    004473  aa  145 163 000 000
    004474  55   000167 000146
    004475  2a   000173 400001
    004476  55   000161 000003
    004477  aa  026 165 156 142         unbalanced_parentheses
    004500  aa  141 154 141 156
    004501  aa  143 145 144 137
    004502  aa  160 141 162 145
    004503  aa  156 164 150 145
    004504  aa  163 145 163 000
    004505  55   000177 000156
    004506  2a   000172 400001
    004507  55   000172 000003
    004510  aa  021 165 156 142         unbalanced_braces
    004511  aa  141 154 141 156
    004512  aa  143 145 144 137
    004513  aa  142 162 141 143
    004514  aa  145 163 000 000
    004515  55   000210 000167
    004516  2a   000171 400001
    004517  55   000202 000003
    004520  aa  024 165 156 141         unable_to_queue_mail
    004521  aa  142 154 145 137
    004522  aa  164 157 137 161
    004523  aa  165 145 165 145
    004524  aa  137 155 141 151
    004525  aa  154 000 000 000
    004526  55   000220 000177
    004527  2a   000170 400001
    004530  55   000213 000003
    004531  aa  023 164 157 157         too_many_recipients
    004532  aa  137 155 141 156
    004533  aa  171 137 162 145
    004534  aa  143 151 160 151
    004535  aa  145 156 164 163
    004536  55   000230 000210
    004537  2a   000167 400001
    004540  55   000223 000003
    004541  aa  021 164 145 170         text_parse_failed
    004542  aa  164 137 160 141
    004543  aa  162 163 145 137
    004544  aa  146 141 151 154
    004545  aa  145 144 000 000
    004546  55   000240 000220
    004547  2a   000166 400001
    004550  55   000233 000003
    004551  aa  022 164 145 170         text_follows_route
    004552  aa  164 137 146 157
    004553  aa  154 154 157 167
    004554  aa  163 137 162 157
    004555  aa  165 164 145 000
    004556  55   000251 000230
    004557  2a   000165 400001
    004560  55   000243 000003
    004561  aa  024 164 145 170         text_follows_address
    004562  aa  164 137 146 157
    004563  aa  154 154 157 167
    004564  aa  163 137 141 144
    004565  aa  144 162 145 163
    004566  aa  163 000 000 000
    004567  55   000263 000240
    004570  2a   000164 400001
    004571  55   000254 000003
    004572  aa  031 163 157 155         some_messages_not_deleted
    004573  aa  145 137 155 145
    004574  aa  163 163 141 147
    004575  aa  145 163 137 156
    004576  aa  157 164 137 144
    004577  aa  145 154 145 164
    004600  aa  145 144 000 000
    004601  55   000272 000251
    004602  2a   000163 400001
    004603  55   000266 000003
    004604  aa  017 163 141 166         savebox_created
    004605  aa  145 142 157 170
    004606  aa  137 143 162 145
    004607  aa  141 164 145 144
    004610  55   000303 000263
    004611  2a   000162 400001
    004612  55   000275 000003
    004613  aa  024 162 157 165         route_out_of_service
    004614  aa  164 145 137 157
    004615  aa  165 164 137 157
    004616  aa  146 137 163 145
    004617  aa  162 166 151 143
    004620  aa  145 000 000 000
    004621  55   000313 000272
    004622  2a   000161 400001
    004623  55   000306 000003
    004624  aa  023 162 145 163         reserved_field_name
    004625  aa  145 162 166 145
    004626  aa  144 137 146 151
    004627  aa  145 154 144 137
    004630  aa  156 141 155 145
    004631  55   000325 000303
    004632  2a   000160 400001
    004633  55   000316 000003
    004634  aa  032 162 145 152         rejected_by_foreign_system
    004635  aa  145 143 164 145
    004636  aa  144 137 142 171
    004637  aa  137 146 157 162
    004640  aa  145 151 147 156
    004641  aa  137 163 171 163
    004642  aa  164 145 155 000
    004643  55   000337 000313
    004644  2a   000157 400001
    004645  55   000330 000003
    004646  aa  031 162 145 143         recursive_named_addresses
    004647  aa  165 162 163 151
    004650  aa  166 145 137 156
    004651  aa  141 155 145 144
    004652  aa  137 141 144 144
    004653  aa  162 145 163 163
    004654  aa  145 163 000 000
    004655  55   000350 000325
    004656  2a   000156 400001
    004657  55   000342 000003
    004660  aa  026 162 145 141         read_only_address_list
    004661  aa  144 137 157 156
    004662  aa  154 171 137 141
    004663  aa  144 144 162 145
    004664  aa  163 163 137 154
    004665  aa  151 163 164 000
    004666  55   000360 000337
    004667  2a   000155 400001
    004670  55   000353 000003
    004671  aa  022 156 165 154         null_search_string
    004672  aa  154 137 163 145
    004673  aa  141 162 143 150
    004674  aa  137 163 164 162
    004675  aa  151 156 147 000
    004676  55   000371 000350
    004677  2a   000154 400001
    004700  55   000363 000003
    004701  aa  025 156 165 154         null_named_group_name
    004702  aa  154 137 156 141
    004703  aa  155 145 144 137
    004704  aa  147 162 157 165
    004705  aa  160 137 156 141
    004706  aa  155 145 000 000
    004707  55   000402 000360
    004710  2a   000153 400001
    004711  55   000374 000003
    004712  aa  024 156 165 154         null_foreign_address
    004713  aa  154 137 146 157
    004714  aa  162 145 151 147
    004715  aa  156 137 141 144
    004716  aa  144 162 145 163
    004717  aa  163 000 000 000
    004720  55   000414 000371
    004721  2a   000152 400001
    004722  55   000405 000003
    004723  aa  032 157 156 154         only_address_route_allowed
    004724  aa  171 137 141 144
    004725  aa  144 162 145 163
    004726  aa  163 137 162 157
    004727  aa  165 164 145 137
    004730  aa  141 154 154 157
    004731  aa  167 145 144 000
    004732  55   000425 000402
    004733  2a   000151 400001
    004734  55   000417 000003
    004735  aa  027 157 142 163         obsolete_address_syntax
    004736  aa  157 154 145 164
    004737  aa  145 137 141 144
    004740  aa  144 162 145 163
    004741  aa  163 137 163 171
    004742  aa  156 164 141 170
    004743  55   000436 000414
    004744  2a   000150 400001
    004745  55   000430 000003
    004746  aa  025 156 157 164         not_temporary_segment
    004747  aa  137 164 145 155
    004750  aa  160 157 162 141
    004751  aa  162 171 137 163
    004752  aa  145 147 155 145
    004753  aa  156 164 000 000
    004754  55   000445 000425
    004755  2a   000147 400001
    004756  55   000441 000003
    004757  aa  017 156 157 164         not_new_message
    004760  aa  137 156 145 167
    004761  aa  137 155 145 163
    004762  aa  163 141 147 145
    004763  55   000456 000436
    004764  2a   000146 400001
    004765  55   000450 000003
    004766  aa  027 156 157 164         not_named_group_address
    004767  aa  137 156 141 155
    004770  aa  145 144 137 147
    004771  aa  162 157 165 160
    004772  aa  137 141 144 144
    004773  aa  162 145 163 163
    004774  55   000466 000445
    004775  2a   000145 400001
    004776  55   000461 000003
    004777  aa  021 156 157 164         not_message_trace
    005000  aa  137 155 145 163
    005001  aa  163 141 147 145
    005002  aa  137 164 162 141
    005003  aa  143 145 000 000
    005004  55   000474 000456
    005005  2a   000144 400001
    005006  55   000471 000003
    005007  aa  013 156 157 164         not_message
    005010  aa  137 155 145 163
    005011  aa  163 141 147 145
    005012  55   000502 000466
    005013  2a   000143 400001
    005014  55   000477 000003
    005015  aa  013 156 157 164         not_mailbox
    005016  aa  137 155 141 151
    005017  aa  154 142 157 170
    005020  55   000513 000474
    005021  2a   000142 400001
    005022  55   000505 000003
    005023  aa  027 156 157 164         not_marked_for_deletion
    005024  aa  137 155 141 162
    005025  aa  153 145 144 137
    005026  aa  146 157 162 137
    005027  aa  144 145 154 145
    005030  aa  164 151 157 156
    005031  55   000524 000502
    005032  2a   000141 400001
    005033  55   000516 000003
    005034  aa  026 156 157 164         not_mail_table_address
    005035  aa  137 155 141 151
    005036  aa  154 137 164 141
    005037  aa  142 154 145 137
    005040  aa  141 144 144 162
    005041  aa  145 163 163 000
    005042  55   000534 000513
    005043  2a   000140 400001
    005044  55   000527 000003
    005045  aa  020 156 157 164         not_list_address
    005046  aa  137 154 151 163
    005047  aa  164 137 141 144
    005050  aa  144 162 145 163
    005051  aa  163 000 000 000
    005052  55   000545 000524
    005053  2a   000137 400001
    005054  55   000537 000003
    005055  aa  026 156 157 164         not_in_mailbox_message
    005056  aa  137 151 156 137
    005057  aa  155 141 151 154
    005060  aa  142 157 170 137
    005061  aa  155 145 163 163
    005062  aa  141 147 145 000
    005063  55   000555 000534
    005064  2a   000136 400001
    005065  55   000550 000003
    005066  aa  023 156 157 164         not_foreign_address
    005067  aa  137 146 157 162
    005070  aa  145 151 147 156
    005071  aa  137 141 144 144
    005072  aa  162 145 163 163
    005073  55   000565 000545
    005074  2a   000135 400001
    005075  55   000560 000003
    005076  aa  020 156 157 164         not_address_list
    005077  aa  137 141 144 144
    005100  aa  162 145 163 163
    005101  aa  137 154 151 163
    005102  aa  164 000 000 000
    005103  55   000573 000555
    005104  2a   000134 400001
    005105  55   000570 000003
    005106  aa  013 156 157 164         not_address
    005107  aa  137 141 144 144
    005110  aa  162 145 163 163
    005111  55   000601 000565
    005112  2a   000133 400001
    005113  55   000576 000003
    005114  aa  012 156 157 137         no_savebox
    005115  aa  163 141 166 145
    005116  aa  142 157 170 000
    005117  55   000610 000573
    005120  2a   000132 400001
    005121  55   000604 000003
    005122  aa  017 156 157 137         no_s_permission
    005123  aa  163 137 160 145
    005124  aa  162 155 151 163
    005125  aa  163 151 157 156
    005126  55   000617 000601
    005127  2a   000131 400001
    005130  55   000613 000003
    005131  aa  015 156 157 137         no_recipients
    005132  aa  162 145 143 151
    005133  aa  160 151 145 156
    005134  aa  164 163 000 000
    005135  55   000626 000610
    005136  2a   000130 400001
    005137  55   000622 000003
    005140  aa  017 156 157 137         no_r_permission
    005141  aa  162 137 160 145
    005142  aa  162 155 151 163
    005143  aa  163 151 157 156
    005144  55   000636 000617
    005145  2a   000127 400001
    005146  55   000631 000003
    005147  aa  023 156 157 137         no_pending_deletion
    005150  aa  160 145 156 144
    005151  aa  151 156 147 137
    005152  aa  144 145 154 145
    005153  aa  164 151 157 156
    005154  55   000645 000626
    005155  2a   000126 400001
    005156  55   000641 000003
    005157  aa  017 156 157 137         no_o_permission
    005160  aa  157 137 160 145
    005161  aa  162 155 151 163
    005162  aa  163 151 157 156
    005163  55   000655 000636
    005164  2a   000125 400001
    005165  55   000650 000003
    005166  aa  020 156 157 137         no_more_messages
    005167  aa  155 157 162 145
    005170  aa  137 155 145 163
    005171  aa  163 141 147 145
    005172  aa  163 000 000 000
    005173  55   000667 000645
    005174  2a   000124 400001
    005175  55   000660 000003
    005176  aa  031 156 157 137         no_message_canonical_form
    005177  aa  155 145 163 163
    005200  aa  141 147 145 137
    005201  aa  143 141 156 157
    005202  aa  156 151 143 141
    005203  aa  154 137 146 157
    005204  aa  162 155 000 000
    005205  55   000677 000655
    005206  2a   000123 400001
    005207  55   000672 000003
    005210  aa  021 156 157 137         no_message_header
    005211  aa  155 145 163 163
    005212  aa  141 147 145 137
    005213  aa  150 145 141 144
    005214  aa  145 162 000 000
    005215  55   000706 000667
    005216  2a   000122 400001
    005217  55   000702 000003
    005220  aa  017 156 157 137         no_mail_service
    005221  aa  155 141 151 154
    005222  aa  137 163 145 162
    005223  aa  166 151 143 145
    005224  55   000715 000677
    005225  2a   000121 400001
    005226  55   000711 000003
    005227  aa  017 156 157 137         no_mailing_list
    005230  aa  155 141 151 154
    005231  aa  151 156 147 137
    005232  aa  154 151 163 164
    005233  55   000723 000706
    005234  2a   000120 400001
    005235  55   000720 000003
    005236  aa  012 156 157 137         no_mailbox
    005237  aa  155 141 151 154
    005240  aa  142 157 170 000
    005241  55   000731 000715
    005242  2a   000117 400001
    005243  55   000726 000003
    005244  aa  011 156 157 137         no_logbox
    005245  aa  154 157 147 142
    005246  aa  157 170 000 000
    005247  55   000741 000723
    005250  2a   000116 400001
    005251  55   000734 000003
    005252  aa  022 156 157 137         no_forum_this_ring
    005253  aa  146 157 162 165
    005254  aa  155 137 164 150
    005255  aa  151 163 137 162
    005256  aa  151 156 147 000
    005257  55   000753 000731
    005260  2a   000115 400001
    005261  55   000744 000003
    005262  aa  031 156 157 137         no_comment_redistribution
    005263  aa  143 157 155 155
    005264  aa  145 156 164 137
    005265  aa  162 145 144 151
    005266  aa  163 164 162 151
    005267  aa  142 165 164 151
    005270  aa  157 156 000 000
    005271  55   000763 000741
    005272  2a   000114 400001
    005273  55   000756 000003
    005274  aa  021 156 157 137         no_address_string
    005275  aa  141 144 144 162
    005276  aa  145 163 163 137
    005277  aa  163 164 162 151
    005300  aa  156 147 000 000
    005301  55   000773 000753
    005302  2a   000113 400001
    005303  55   000766 000003
    005304  aa  020 156 157 137         no_address_route
    005305  aa  141 144 144 162
    005306  aa  145 163 163 137
    005307  aa  162 157 165 164
    005310  aa  145 000 000 000
    005311  55   001003 000763
    005312  2a   000112 400001
    005313  55   000776 000003
    005314  aa  023 156 157 137         no_address_pathname
    005315  aa  141 144 144 162
    005316  aa  145 163 163 137
    005317  aa  160 141 164 150
    005320  aa  156 141 155 145
    005321  55   001012 000773
    005322  2a   000111 400001
    005323  55   001006 000003
    005324  aa  015 156 157 137         no_ack_needed
    005325  aa  141 143 153 137
    005326  aa  156 145 145 144
    005327  aa  145 144 000 000
    005330  55   001021 001003
    005331  2a   000110 400001
    005332  55   001015 000003
    005333  aa  017 156 157 137         no_a_permission
    005334  aa  141 137 160 145
    005335  aa  162 155 151 163
    005336  aa  163 151 157 156
    005337  55   001032 001012
    005340  2a   000107 400001
    005341  55   001024 000003
    005342  aa  027 155 165 154         multiple_address_routes
    005343  aa  164 151 160 154
    005344  aa  145 137 141 144
    005345  aa  144 162 145 163
    005346  aa  163 137 162 157
    005347  aa  165 164 145 163
    005350  55   001041 001021
    005351  2a   000106 400001
    005352  55   001035 000003
    005353  aa  017 155 164 145         mte_not_mailbox
    005354  aa  137 156 157 164
    005355  aa  137 155 141 151
    005356  aa  154 142 157 170
    005357  55   001050 001032
    005360  2a   000105 400001
    005361  55   001044 000003
    005362  aa  015 155 164 145         mte_not_found
    005363  aa  137 156 157 164
    005364  aa  137 146 157 165
    005365  aa  156 144 000 000
    005366  55   001060 001041
    005367  2a   000104 400001
    005370  55   001053 000003
    005371  aa  021 155 151 163         missing_host_name
    005372  aa  163 151 156 147
    005373  aa  137 150 157 163
    005374  aa  164 137 156 141
    005375  aa  155 145 000 000
    005376  55   001071 001050
    005377  2a   000103 400001
    005400  55   001063 000003
    005401  aa  026 155 151 163         missing_acknowledge_to
    005402  aa  163 151 156 147
    005403  aa  137 141 143 153
    005404  aa  156 157 167 154
    005405  aa  145 144 147 145
    005406  aa  137 164 157 000
    005407  55   001101 001060
    005410  2a   000102 400001
    005411  55   001074 000003
    005412  aa  021 155 145 163         message_too_large
    005413  aa  163 141 147 145
    005414  aa  137 164 157 157
    005415  aa  137 154 141 162
    005416  aa  147 145 000 000
    005417  55   001114 001071
    005420  2a   000101 400001
    005421  55   001104 000003
    005422  aa  034 155 145 163         message_queued_and_delivered
    005423  aa  163 141 147 145
    005424  aa  137 161 165 145
    005425  aa  165 145 144 137
    005426  aa  141 156 144 137
    005427  aa  144 145 154 151
    005430  aa  166 145 162 145
    005431  aa  144 000 000 000
    005432  55   001123 001101
    005433  2a   000100 400001
    005434  55   001117 000003
    005435  aa  016 155 145 163         message_queued
    005436  aa  163 141 147 145
    005437  aa  137 161 165 145
    005440  aa  165 145 144 000
    005441  55   001134 001114
    005442  2a   000077 400001
    005443  55   001126 000003
    005444  aa  026 155 145 163         message_partially_sent
    005445  aa  163 141 147 145
    005446  aa  137 160 141 162
    005447  aa  164 151 141 154
    005450  aa  154 171 137 163
    005451  aa  145 156 164 000
    005452  55   001144 001123
    005453  2a   000076 400001
    005454  55   001137 000003
    005455  aa  020 155 145 163         message_not_sent
    005456  aa  163 141 147 145
    005457  aa  137 156 157 164
    005460  aa  137 163 145 156
    005461  aa  164 000 000 000
    005462  55   001154 001134
    005463  2a   000075 400001
    005464  55   001147 000003
    005465  aa  021 155 145 163         message_delivered
    005466  aa  163 141 147 145
    005467  aa  137 144 145 154
    005470  aa  151 166 145 162
    005471  aa  145 144 000 000
    005472  55   001165 001144
    005473  2a   000074 400001
    005474  55   001157 000003
    005475  aa  024 155 145 163         message_already_read
    005476  aa  163 141 147 145
    005477  aa  137 141 154 162
    005500  aa  145 141 144 171
    005501  aa  137 162 145 141
    005502  aa  144 000 000 000
    005503  55   001174 001154
    005504  2a   000073 400001
    005505  55   001170 000003
    005506  aa  014 155 141 151         mailbox_full
    005507  aa  154 142 157 170
    005510  aa  137 146 165 154
    005511  aa  154 000 000 000
    005512  55   001203 001165
    005513  2a   000072 400001
    005514  55   001177 000003
    005515  aa  016 155 141 151         mailbox_exists
    005516  aa  154 142 157 170
    005517  aa  137 145 170 151
    005520  aa  163 164 163 000
    005521  55   001212 001174
    005522  2a   000071 400001
    005523  55   001206 000003
    005524  aa  016 154 157 147         logbox_created
    005525  aa  142 157 170 137
    005526  aa  143 162 145 141
    005527  aa  164 145 144 000
    005530  55   001225 001203
    005531  2a   000070 400001
    005532  55   001215 000003
    005533  aa  036 154 151 163         list_address_is_all_duplicates
    005534  aa  164 137 141 144
    005535  aa  144 162 145 163
    005536  aa  163 137 151 163
    005537  aa  137 141 154 154
    005540  aa  137 144 165 160
    005541  aa  154 151 143 141
    005542  aa  164 145 163 000
    005543  55   001235 001212
    005544  2a   000067 400001
    005545  55   001230 000003
    005546  aa  021 151 163 155         ism_not_available
    005547  aa  137 156 157 164
    005550  aa  137 141 166 141
    005551  aa  151 154 141 142
    005552  aa  154 145 000 000
    005553  55   001246 001225
    005554  2a   000066 400001
    005555  55   001240 000003
    005556  aa  026 151 156 166         invalid_user_id_syntax
    005557  aa  141 154 151 144
    005560  aa  137 165 163 145
    005561  aa  162 137 151 144
    005562  aa  137 163 171 156
    005563  aa  164 141 170 000
    005564  55   001260 001235
    005565  2a   000065 400001
    005566  55   001251 000003
    005567  aa  032 151 156 166         invalid_route_field_syntax
    005570  aa  141 154 151 144
    005571  aa  137 162 157 165
    005572  aa  164 145 137 146
    005573  aa  151 145 154 144
    005574  aa  137 163 171 156
    005575  aa  164 141 170 000
    005576  55   001273 001246
    005577  2a   000064 400001
    005600  55   001263 000003
    005601  aa  034 151 156 166         invalid_relayed_field_syntax
    005602  aa  141 154 151 144
    005603  aa  137 162 145 154
    005604  aa  141 171 145 144
    005605  aa  137 146 151 145
    005606  aa  154 144 137 163
    005607  aa  171 156 164 141
    005610  aa  170 000 000 000
    005611  55   001305 001260
    005612  2a   000063 400001
    005613  55   001276 000003
    005614  aa  030 151 156 166         invalid_person_id_syntax
    005615  aa  141 154 151 144
    005616  aa  137 160 145 162
    005617  aa  163 157 156 137
    005620  aa  151 144 137 163
    005621  aa  171 156 164 141
    005622  aa  170 000 000 000
    005623  55   001317 001273
    005624  2a   000062 400001
    005625  55   001310 000003
    005626  aa  030 151 156 166         invalid_named_group_text
    005627  aa  141 154 151 144
    005630  aa  137 156 141 155
    005631  aa  145 144 137 147
    005632  aa  162 157 165 160
    005633  aa  137 164 145 170
    005634  aa  164 000 000 000
    005635  55   001327 001305
    005636  2a   000061 400001
    005637  55   001322 000003
    005640  aa  022 151 156 166         invalid_mte_syntax
    005641  aa  141 154 151 144
    005642  aa  137 155 164 145
    005643  aa  137 163 171 156
    005644  aa  164 141 170 000
    005645  55   001340 001317
    005646  2a   000060 400001
    005647  55   001332 000003
    005650  aa  026 151 156 166         invalid_address_syntax
    005651  aa  141 154 151 144
    005652  aa  137 141 144 144
    005653  aa  162 145 163 163
    005654  aa  137 163 171 156
    005655  aa  164 141 170 000
    005656  55   001352 001327
    005657  2a   000057 400001
    005660  55   001343 000003
    005661  aa  033 151 156 166         invalid_address_list_syntax
    005662  aa  141 154 151 144
    005663  aa  137 141 144 144
    005664  aa  162 145 163 163
    005665  aa  137 154 151 163
    005666  aa  164 137 163 171
    005667  aa  156 164 141 170
    005670  55   001361 001340
    005671  2a   000056 400001
    005672  55   001355 000003
    005673  aa  017 151 156 166         invalid_address
    005674  aa  141 154 151 144
    005675  aa  137 141 144 144
    005676  aa  162 145 163 163
    005677  55   001371 001352
    005700  2a   000055 400001
    005701  55   001364 000003
    005702  aa  020 151 156 143         incorrect_suffix
    005703  aa  157 162 162 145
    005704  aa  143 164 137 163
    005705  aa  165 146 146 151
    005706  aa  170 000 000 000
    005707  55   001403 001361
    005710  2a   000054 400001
    005711  55   001374 000003
    005712  aa  033 151 156 143         incomplete_named_group_text
    005713  aa  157 155 160 154
    005714  aa  145 164 145 137
    005715  aa  156 141 155 145
    005716  aa  144 137 147 162
    005717  aa  157 165 160 137
    005720  aa  164 145 170 164
    005721  55   001413 001371
    005722  2a   000053 400001
    005723  55   001406 000003
    005724  aa  022 151 156 143         incomplete_comment
    005725  aa  157 155 160 154
    005726  aa  145 164 145 137
    005727  aa  143 157 155 155
    005730  aa  145 156 164 000
    005731  55   001424 001403
    005732  2a   000052 400001
    005733  55   001416 000003
    005734  aa  027 151 156 143         incomplete_address_text
    005735  aa  157 155 160 154
    005736  aa  145 164 145 137
    005737  aa  141 144 144 162
    005740  aa  145 163 163 137
    005741  aa  164 145 170 164
    005742  55   001437 001413
    005743  2a   000051 400001
    005744  55   001427 000003
    005745  aa  034 151 156 143         incomplete_address_list_text
    005746  aa  157 155 160 154
    005747  aa  145 164 145 137
    005750  aa  141 144 144 162
    005751  aa  145 163 163 137
    005752  aa  154 151 163 164
    005753  aa  137 164 145 170
    005754  aa  164 000 000 000
    005755  55   001450 001424
    005756  2a   000050 400001
    005757  55   001442 000003
    005760  aa  025 151 156 137         in_mailbox_only_field
    005761  aa  155 141 151 154
    005762  aa  142 157 170 137
    005763  aa  157 156 154 171
    005764  aa  137 146 151 145
    005765  aa  154 144 000 000
    005766  55   001460 001437
    005767  2a   000047 400001
    005770  55   001453 000003
    005771  aa  023 146 157 162         forum_not_available
    005772  aa  165 155 137 156
    005773  aa  157 164 137 141
    005774  aa  166 141 151 154
    005775  aa  141 142 154 145
    005776  55   001472 001450
    005777  2a   000046 400001
    006000  55   001463 000003
    006001  aa  030 146 157 162         foreign_address_too_long
    006002  aa  145 151 147 156
    006003  aa  137 141 144 144
    006004  aa  162 145 163 163
    006005  aa  137 164 157 157
    006006  aa  137 154 157 156
    006007  aa  147 000 000 000
    006010  55   001503 001460
    006011  2a   000045 400001
    006012  55   001475 000003
    006013  aa  026 145 170 164         extra_restricted_field
    006014  aa  162 141 137 162
    006015  aa  145 163 164 162
    006016  aa  151 143 164 145
    006017  aa  144 137 146 151
    006020  aa  145 154 144 000
    006021  55   001514 001472
    006022  2a   000044 400001
    006023  55   001506 000003
    006024  aa  026 145 162 162         errors_in_list_address
    006025  aa  157 162 163 137
    006026  aa  151 156 137 154
    006027  aa  151 163 164 137
    006030  aa  141 144 144 162
    006031  aa  145 163 163 000
    006032  55   001523 001503
    006033  2a   000043 400001
    006034  55   001517 000003
    006035  aa  015 145 155 160         empty_message
    006036  aa  164 171 137 155
    006037  aa  145 163 163 141
    006040  aa  147 145 000 000
    006041  55   001533 001514
    006042  2a   000042 400001
    006043  55   001526 000003
    006044  aa  022 145 155 160         empty_mailing_list
    006045  aa  164 171 137 155
    006046  aa  141 151 154 151
    006047  aa  156 147 137 154
    006050  aa  151 163 164 000
    006051  55   001543 001523
    006052  2a   000041 400001
    006053  55   001536 000003
    006054  aa  022 145 155 160         empty_address_text
    006055  aa  164 171 137 141
    006056  aa  144 144 162 145
    006057  aa  163 163 137 164
    006060  aa  145 170 164 000
    006061  55   001553 001533
    006062  2a   000040 400001
    006063  55   001546 000003
    006064  aa  022 145 155 160         empty_address_list
    006065  aa  164 171 137 141
    006066  aa  144 144 162 145
    006067  aa  163 163 137 154
    006070  aa  151 163 164 000
    006071  55   001564 001543
    006072  2a   000037 400001
    006073  55   001556 000003
    006074  aa  024 144 165 160         duplicate_user_field
    006075  aa  154 151 143 141
    006076  aa  164 145 137 165
    006077  aa  163 145 162 137
    006100  aa  146 151 145 154
    006101  aa  144 000 000 000
    006102  55   001576 001553
    006103  2a   000036 400001
    006104  55   001567 000003
    006105  aa  031 144 165 160         duplicate_reply_reference
    006106  aa  154 151 143 141
    006107  aa  164 145 137 162
    006110  aa  145 160 154 171
    006111  aa  137 162 145 146
    006112  aa  145 162 145 156
    006113  aa  143 145 000 000
    006114  55   001606 001564
    006115  2a   000035 400001
    006116  55   001601 000003
    006117  aa  021 144 165 160         duplicate_address
    006120  aa  154 151 143 141
    006121  aa  164 145 137 141
    006122  aa  144 144 162 145
    006123  aa  163 163 000 000
    006124  55   001616 001576
    006125  2a   000034 400001
    006126  55   001611 000003
    006127  aa  020 144 145 154         deletion_pending
    006130  aa  145 164 151 157
    006131  aa  156 137 160 145
    006132  aa  156 144 151 156
    006133  aa  147 000 000 000
    006134  55   001625 001606
    006135  2a   000033 400001
    006136  55   001621 000003
    006137  aa  017 143 157 155         comment_ignored
    006140  aa  155 145 156 164
    006141  aa  137 151 147 156
    006142  aa  157 162 145 144
    006143  55   001634 001616
    006144  2a   000032 400001
    006145  55   001630 000003
    006146  aa  015 143 151 162         circular_mtes
    006147  aa  143 165 154 141
    006150  aa  162 137 155 164
    006151  aa  145 163 000 000
    006152  55   001644 001625
    006153  2a   000031 400001
    006154  55   001637 000003
    006155  aa  023 143 141 156         cant_update_message
    006156  aa  164 137 165 160
    006157  aa  144 141 164 145
    006160  aa  137 155 145 163
    006161  aa  163 141 147 145
    006162  55   001656 001634
    006163  2a   000030 400001
    006164  55   001647 000003
    006165  aa  031 143 141 156         cant_send_acknowledgement
    006166  aa  164 137 163 145
    006167  aa  156 144 137 141
    006170  aa  143 153 156 157
    006171  aa  167 154 145 144
    006172  aa  147 145 155 145
    006173  aa  156 164 000 000
    006174  55   001670 001644
    006175  2a   000027 400001
    006176  55   001661 000003
    006177  aa  031 143 141 156         cant_queue_mls_in_archive
    006200  aa  164 137 161 165
    006201  aa  145 165 145 137
    006202  aa  155 154 163 137
    006203  aa  151 156 137 141
    006204  aa  162 143 150 151
    006205  aa  166 145 000 000
    006206  55   001701 001656
    006207  2a   000026 400001
    006210  55   001673 000003
    006211  aa  024 143 141 156         cant_parse_irt_field
    006212  aa  164 137 160 141
    006213  aa  162 163 145 137
    006214  aa  151 162 164 137
    006215  aa  146 151 145 154
    006216  aa  144 000 000 000
    006217  55   001712 001670
    006220  2a   000025 400001
    006221  55   001704 000003
    006222  aa  025 143 141 156         cant_determine_sender
    006223  aa  164 137 144 145
    006224  aa  164 145 162 155
    006225  aa  151 156 145 137
    006226  aa  163 145 156 144
    006227  aa  145 162 000 000
    006230  55   001723 001701
    006231  2a   000024 400001
    006232  55   001715 000003
    006233  aa  024 143 141 156         cant_determine_msgid
    006234  aa  164 137 144 145
    006235  aa  164 145 162 155
    006236  aa  151 156 145 137
    006237  aa  155 163 147 151
    006240  aa  144 000 000 000
    006241  55   001733 001712
    006242  2a   000023 400001
    006243  55   001726 000003
    006244  aa  022 143 141 156         cant_determine_dtc
    006245  aa  164 137 144 145
    006246  aa  164 145 162 155
    006247  aa  151 156 145 137
    006250  aa  144 164 143 000
    006251  55   001743 001723
    006252  2a   000022 400001
    006253  55   001736 000003
    006254  aa  022 143 141 156         cant_compute_route
    006255  aa  164 137 143 157
    006256  aa  155 160 165 164
    006257  aa  145 137 162 157
    006260  aa  165 164 145 000
    006261  55   001752 001733
    006262  2a   000021 400001
    006263  55   001746 000003
    006264  aa  017 143 141 156         cant_be_deleted
    006265  aa  164 137 142 145
    006266  aa  137 144 145 154
    006267  aa  145 164 145 144
    006270  55   001761 001743
    006271  2a   000020 400001
    006272  55   001755 000003
    006273  aa  017 143 141 137         ca_parse_failed
    006274  aa  160 141 162 163
    006275  aa  145 137 146 141
    006276  aa  151 154 145 144
    006277  55   001770 001752
    006300  2a   000017 400001
    006301  55   001764 000003
    006302  aa  016 142 141 144         bad_mail_table
    006303  aa  137 155 141 151
    006304  aa  154 137 164 141
    006305  aa  142 154 145 000
    006306  55   002000 001761
    006307  2a   000016 400001
    006310  55   001773 000003
    006311  aa  022 142 141 144         bad_explicit_route
    006312  aa  137 145 170 160
    006313  aa  154 151 143 151
    006314  aa  164 137 162 157
    006315  aa  165 164 145 000
    006316  55   002010 001770
    006317  2a   000015 400001
    006320  55   002003 000003
    006321  aa  022 142 141 144         bad_acknowledge_to
    006322  aa  137 141 143 153
    006323  aa  156 157 167 154
    006324  aa  145 144 147 145
    006325  aa  137 164 157 000
    006326  55   002020 002000
    006327  2a   000014 400001
    006330  55   002013 000003
    006331  aa  021 141 155 142         ambiguous_address
    006332  aa  151 147 165 157
    006333  aa  165 163 137 141
    006334  aa  144 144 162 145
    006335  aa  163 163 000 000
    006336  55   002032 002010
    006337  2a   000013 400001
    006340  55   002023 000003
    006341  aa  033 141 154 162         already_marked_for_deletion
    006342  aa  145 141 144 171
    006343  aa  137 155 141 162
    006344  aa  153 145 144 137
    006345  aa  146 157 162 137
    006346  aa  144 145 154 145
    006347  aa  164 151 157 156
    006350  55   002043 002020
    006351  2a   000012 400001
    006352  55   002035 000003
    006353  aa  024 141 154 154         all_messages_deleted
    006354  aa  137 155 145 163
    006355  aa  163 141 147 145
    006356  aa  163 137 144 145
    006357  aa  154 145 164 145
    006360  aa  144 000 000 000
    006361  55   002056 002032
    006362  2a   000011 400001
    006363  55   002046 000003
    006364  aa  036 141 144 144         address_pathname_too_long_to_q
    006365  aa  162 145 163 163
    006366  aa  137 160 141 164
    006367  aa  150 156 141 155
    006370  aa  145 137 164 157
    006371  aa  157 137 154 157
    006372  aa  156 147 137 164
    006373  aa  157 137 161 000
    006374  55   002070 002043
    006375  2a   000010 400001
    006376  55   002061 000003
    006377  aa  031 141 144 144         address_pathname_expected
    006400  aa  162 145 163 163
    006401  aa  137 160 141 164
    006402  aa  150 156 141 155
    006403  aa  145 137 145 170
    006404  aa  160 145 143 164
    006405  aa  145 144 000 000
    006406  55   000002 002056
    006407  6a   000000 400002
    006410  55   002073 000003
    006411  aa  014 163 171 155         symbol_table
    006412  aa  142 157 154 137
    006413  aa  164 141 142 154
    006414  aa  145 000 000 000

DEFINITIONS HASH TABLE

    006415  aa   000000 000463
    006416  aa   000000 000000
    006417  aa   000000 000000
    006420  aa   000000 000000
    006421  aa   000000 000000
    006422  aa   000000 000000
    006423  aa   000000 000000
    006424  aa   000000 000000
    006425  aa   000000 000000
    006426  5a   000220 000000
    006427  aa   000000 000000
    006430  5a   000055 000000
    006431  aa   000000 000000
    006432  aa   000000 000000
    006433  aa   000000 000000
    006434  5a   001101 000000
    006435  aa   000000 000000
    006436  aa   000000 000000
    006437  aa   000000 000000
    006440  5a   000011 000000
    006441  5a   000524 000000
    006442  5a   000555 000000
    006443  5a   000035 000000
    006444  5a   000070 000000
    006445  5a   000123 000000
    006446  aa   000000 000000
    006447  aa   000000 000000
    006450  aa   000000 000000
    006451  aa   000000 000000
    006452  aa   000000 000000
    006453  5a   001670 000000
    006454  5a   001712 000000
    006455  5a   000610 000000
    006456  5a   001003 000000
    006457  aa   000000 000000
    006460  aa   000000 000000
    006461  aa   000000 000000
    006462  aa   000000 000000
    006463  aa   000000 000000
    006464  aa   000000 000000
    006465  aa   000000 000000
    006466  aa   000000 000000
    006467  5a   000445 000000
    006470  5a   000502 000000
    006471  aa   000000 000000
    006472  aa   000000 000000
    006473  aa   000000 000000
    006474  5a   000251 000000
    006475  5a   001371 000000
    006476  aa   000000 000000
    006477  aa   000000 000000
    006500  5a   001032 000000
    006501  aa   000000 000000
    006502  aa   000000 000000
    006503  aa   000000 000000
    006504  aa   000000 000000
    006505  5a   000113 000000
    006506  aa   000000 000000
    006507  aa   000000 000000
    006510  aa   000000 000000
    006511  5a   001174 000000
    006512  aa   000000 000000
    006513  aa   000000 000000
    006514  aa   000000 000000
    006515  aa   000000 000000
    006516  aa   000000 000000
    006517  5a   000573 000000
    006520  5a   000715 000000
    006521  5a   000402 000000
    006522  5a   001340 000000
    006523  5a   000371 000000
    006524  5a   001021 000000
    006525  aa   000000 000000
    006526  aa   000000 000000
    006527  aa   000000 000000
    006530  aa   000000 000000
    006531  aa   000000 000000
    006532  aa   000000 000000
    006533  5a   002043 000000
    006534  5a   000134 000000
    006535  aa   000000 000000
    006536  aa   000000 000000
    006537  aa   000000 000000
    006540  5a   000210 000000
    006541  5a   001123 000000
    006542  aa   000000 000000
    006543  aa   000000 000000
    006544  aa   000000 000000
    006545  aa   000000 000000
    006546  5a   000667 000000
    006547  5a   000753 000000
    006550  aa   000000 000000
    006551  aa   000000 000000
    006552  5a   001523 000000
    006553  5a   001533 000000
    006554  5a   001543 000000
    006555  5a   001460 000000
    006556  aa   000000 000000
    006557  aa   000000 000000
    006560  aa   000000 000000
    006561  5a   000230 000000
    006562  5a   001273 000000
    006563  5a   001305 000000
    006564  aa   000000 000000
    006565  5a   000156 000000
    006566  5a   000414 000000
    006567  aa   000000 000000
    006570  5a   001553 000000
    006571  aa   000000 000000
    006572  aa   000000 000000
    006573  5a   000456 000000
    006574  5a   001437 000000
    006575  aa   000000 000000
    006576  aa   000000 000000
    006577  aa   000000 000000
    006600  aa   000000 000000
    006601  5a   001625 000000
    006602  aa   000000 000000
    006603  aa   000000 000000
    006604  aa   000000 000000
    006605  aa   000000 000000
    006606  5a   001701 000000
    006607  5a   001761 000000
    006610  aa   000000 000000
    006611  5a   002010 000000
    006612  aa   000000 000000
    006613  aa   000000 000000
    006614  aa   000000 000000
    006615  aa   000000 000000
    006616  aa   000000 000000
    006617  5a   001212 000000
    006620  aa   000000 000000
    006621  aa   000000 000000
    006622  aa   000000 000000
    006623  aa   000000 000000
    006624  aa   000000 000000
    006625  aa   000000 000000
    006626  aa   000000 000000
    006627  5a   001424 000000
    006630  aa   000000 000000
    006631  aa   000000 000000
    006632  5a   001050 000000
    006633  5a   001576 000000
    006634  5a   001606 000000
    006635  aa   000000 000000
    006636  aa   000000 000000
    006637  aa   000000 000000
    006640  aa   000000 000000
    006641  aa   000000 000000
    006642  5a   001403 000000
    006643  aa   000000 000000
    006644  5a   001134 000000
    006645  aa   000000 000000
    006646  aa   000000 000000
    006647  aa   000000 000000
    006650  5a   001723 000000
    006651  5a   001733 000000
    006652  5a   001260 000000
    006653  aa   000000 000000
    006654  aa   000000 000000
    006655  aa   000000 000000
    006656  5a   000360 000000
    006657  aa   000000 000000
    006660  aa   000000 000000
    006661  aa   000000 000000
    006662  aa   000000 000000
    006663  aa   000000 000000
    006664  5a   000425 000000
    006665  5a   001317 000000
    006666  aa   000000 000000
    006667  5a   000101 000000
    006670  5a   000325 000000
    006671  5a   001225 000000
    006672  aa   000000 000000
    006673  5a   001752 000000
    006674  aa   000000 000000
    006675  5a   001041 000000
    006676  aa   000000 000000
    006677  5a   000466 000000
    006700  5a   000474 000000
    006701  5a   000565 000000
    006702  5a   000731 000000
    006703  5a   001644 000000
    006704  5a   001656 000000
    006705  5a   001770 000000
    006706  5a   001165 000000
    006707  5a   002000 000000
    006710  aa   000000 000000
    006711  aa   000000 000000
    006712  5a   001743 000000
    006713  aa   000000 000000
    006714  aa   000000 000000
    006715  aa   000000 000000
    006716  aa   000000 000000
    006717  aa   000000 000000
    006720  5a   000350 000000
    006721  aa   000000 000000
    006722  aa   000000 000000
    006723  aa   000000 000000
    006724  5a   001203 000000
    006725  aa   000000 000000
    006726  aa   000000 000000
    006727  5a   000337 000000
    006730  5a   000655 000000
    006731  5a   000024 000000
    006732  5a   000741 000000
    006733  5a   001352 000000
    006734  5a   002032 000000
    006735  5a   001154 000000
    006736  aa   000000 000000
    006737  aa   000000 000000
    006740  aa   000000 000000
    006741  aa   000000 000000
    006742  aa   000000 000000
    006743  5a   000601 000000
    006744  5a   000617 000000
    006745  5a   000636 000000
    006746  5a   000677 000000
    006747  5a   000706 000000
    006750  5a   001012 000000
    006751  aa   000000 000000
    006752  aa   000000 000000
    006753  aa   000000 000000
    006754  aa   000000 000000
    006755  aa   000000 000000
    006756  5a   001235 000000
    006757  5a   001327 000000
    006760  aa   000000 000000
    006761  5a   000177 000000
    006762  aa   000000 000000
    006763  aa   000000 000000
    006764  5a   002020 000000
    006765  aa   000000 000000
    006766  aa   000000 000000
    006767  aa   000000 000000
    006770  5a   000436 000000
    006771  aa   000000 000000
    006772  5a   002056 000000
    006773  aa   000000 000000
    006774  aa   000000 000000
    006775  aa   000000 000000
    006776  aa   000000 000000
    006777  5a   001071 000000
    007000  5a   001144 000000
    007001  aa   000000 000000
    007002  aa   000000 000000
    007003  5a   001634 000000
    007004  aa   000000 000000
    007005  5a   000272 000000
    007006  aa   000000 000000
    007007  aa   000000 000000
    007010  aa   000000 000000
    007011  5a   001514 000000
    007012  aa   000000 000000
    007013  5a   000303 000000
    007014  5a   001450 000000
    007015  5a   001503 000000
    007016  5a   001564 000000
    007017  5a   000513 000000
    007020  5a   000534 000000
    007021  5a   001472 000000
    007022  aa   000000 000000
    007023  aa   000000 000000
    007024  5a   000146 000000
    007025  5a   000167 000000
    007026  aa   000000 000000
    007027  aa   000000 000000
    007030  5a   000263 000000
    007031  5a   000313 000000
    007032  aa   000000 000000
    007033  aa   000000 000000
    007034  5a   000626 000000
    007035  5a   000773 000000
    007036  aa   000000 000000
    007037  5a   001361 000000
    007040  aa   000000 000000
    007041  5a   001114 000000
    007042  aa   000000 000000
    007043  aa   000000 000000
    007044  aa   000000 000000
    007045  aa   000000 000000
    007046  aa   000000 000000
    007047  5a   000240 000000
    007050  5a   000723 000000
    007051  5a   001246 000000
    007052  aa   000000 000000
    007053  aa   000000 000000
    007054  aa   000000 000000
    007055  aa   000000 000000
    007056  5a   001060 000000
    007057  aa   000000 000000
    007060  aa   000000 000000
    007061  5a   000545 000000
    007062  aa   000000 000000
    007063  aa   000000 000000
    007064  5a   001616 000000
    007065  aa   000000 000000
    007066  5a   001413 000000
    007067  aa   000000 000000
    007070  aa   000000 000000
    007071  5a   002070 000000
    007072  aa   000000 000000
    007073  aa   000000 000000
    007074  aa   000000 000000
    007075  aa   000000 000000
    007076  5a   000645 000000
    007077  5a   000046 000000
    007100  5a   000763 000000

NO EXTERNAL NAMES

NO TRAP POINTER WORDS

TYPE PAIR BLOCKS

    007101  aa   000001 000000
    007102  aa   000000 000000

INTERNAL EXPRESSION WORDS

    007103  50   002563 000000
LINKAGE INFORMATION

    000000  aa   000000 000000
    000001  02   004316 000212
    000002  aa   000000 000000
    000003  aa   000000 000000
    000004  aa   000000 000000
    000005  aa   000000 000000
    000006  22   000210 000215
    000007  a2   000000 000200
    000210  9a   777570 0000 46         *text|
    000211  5a   002565 0000 00

FIRST REFERENCE TRAP LIST

    000212  aa   000000 000001
    000213  aa   000000 000001
    000214  2a   000210 000000
    000215  aa   000000 000000
SYMBOL INFORMATION

SYMBOL TABLE HEADER

    000000  aa   000000 000001
    000001  aa   163171 155142
    000002  aa   164162 145145
    000003  aa   000000 000010
    000004  aa   000000 117244
    000005  aa   361023 525721
    000006  aa   000000 131036
    000007  aa   041761 603254
    000010  aa   141154 155040
    000011  aa   040040 040040
    000012  aa   000024 000040
    000013  aa   000034 000040
    000014  aa   000044 000100
    000015  aa   000002 000002
    000016  aa   000064 000000
    000017  aa   000000 000637
    000020  aa   000000 000131
    000021  aa   000362 000331
    000022  aa   000630 000131
    000023  aa   000064 000000
    000024  aa   101114 115040
    000025  aa   126145 162163
    000026  aa   151157 156040
    000027  aa   070056 061064
    000030  aa   040115 141162
    000031  aa   143150 040061
    000032  aa   071070 071040
    000033  aa   040040 040040
    000034  aa   123143 150162
    000035  aa   157164 150056
    000036  aa   123171 163115
    000037  aa   141151 156164
    000040  aa   056155 040040
    000041  aa   040040 040040
    000042  aa   040040 040040
    000043  aa   040040 040040
    000044  aa   154151 163164
    000045  aa   040163 171155
    000046  aa   142157 154163
    000047  aa   040040 040040
    000050  aa   040040 040040
    000051  aa   040040 040040
    000052  aa   040040 040040
    000053  aa   040040 040040
    000054  aa   040040 040040
    000055  aa   040040 040040
    000056  aa   040040 040040
    000057  aa   040040 040040
    000060  aa   040040 040040
    000061  aa   040040 040040
    000062  aa   040040 040040
    000063  aa   040040 040040
    000064  aa   000000 000001
    000065  aa   000000 000003
    000066  aa   000102 000035
    000067  aa   310157 123771
    000070  aa   000000 131036
    000071  aa   041761 600000
    000072  aa   000112 000034
    000073  aa   305736 047072
    000074  aa   000000 112067
    000075  aa   253504 600000
    000076  aa   000121 000037
    000077  aa   305736 051531
    000100  aa   000000 115000
    000101  aa   507463 000000
    000102  aa   076165 144144          >udd>sm>ds>w>ml>mlsys_et_.alm
    000103  aa   076163 155076
    000104  aa   144163 076167
    000105  aa   076155 154076
    000106  aa   155154 163171
    000107  aa   163137 145164
    000110  aa   137056 141154
    000111  aa   155040 040040
    000112  aa   076154 144144          >ldd>incl>et_macros.incl.alm
    000113  aa   076151 156143
    000114  aa   154076 145164
    000115  aa   137155 141143
    000116  aa   162157 163056
    000117  aa   151156 143154
    000120  aa   056141 154155
    000121  aa   076154 144144          >ldd>incl>stack_header.incl.alm
    000122  aa   076151 156143
    000123  aa   154076 163164
    000124  aa   141143 153137
    000125  aa   150145 141144
    000126  aa   145162 056151
    000127  aa   156143 154056
    000130  aa   141154 155040
               MULTICS ASSEMBLY CROSS REFERENCE LISTING

   Value        Symbol                   Source file   Line number

                *text                    mlsys_et_:     18.
          14    .._00000                 mlsys_et_:     22.
          35    .._00001                 mlsys_et_:     25.
          72    .._00002                 mlsys_et_:     28.
         104    .._00003                 mlsys_et_:     31.
         127    .._00004                 mlsys_et_:     34.
         153    .._00005                 mlsys_et_:     37.
         206    .._00006                 mlsys_et_:     40.
         242    .._00007                 mlsys_et_:     43.
         256    .._00010                 mlsys_et_:     46.
         303    .._00011                 mlsys_et_:     49.
         320    .._00012                 mlsys_et_:     52.
         344    .._00013                 mlsys_et_:     55.
         361    .._00014                 mlsys_et_:     58.
         374    .._00015                 mlsys_et_:     61.
         406    .._00016                 mlsys_et_:     64.
         441    .._00017                 mlsys_et_:     67.
         500    .._00020                 mlsys_et_:     70.
         527    .._00021                 mlsys_et_:     73.
         553    .._00022                 mlsys_et_:     76.
         603    .._00023                 mlsys_et_:     79.
         614    .._00024                 mlsys_et_:     82.
         643    .._00025                 mlsys_et_:     85.
         664    .._00026                 mlsys_et_:     88.
         715    .._00027                 mlsys_et_:     91.
         741    .._00030                 mlsys_et_:     94.
         754    .._00031                 mlsys_et_:     97.
         775    .._00032                 mlsys_et_:    100.
        1016    .._00033                 mlsys_et_:    103.
        1037    .._00034                 mlsys_et_:    106.
        1073    .._00035                 mlsys_et_:    109.
        1106    .._00036                 mlsys_et_:    112.
        1145    .._00037                 mlsys_et_:    115.
        1161    .._00040                 mlsys_et_:    118.
        1211    .._00041                 mlsys_et_:    121.
        1235    .._00042                 mlsys_et_:    124.
        1257    .._00043                 mlsys_et_:    127.
        1302    .._00044                 mlsys_et_:    130.
        1327    .._00045                 mlsys_et_:    133.
        1347    .._00046                 mlsys_et_:    136.
        1362    .._00047                 mlsys_et_:    139.
        1406    .._00050                 mlsys_et_:    142.
        1431    .._00051                 mlsys_et_:    145.
        1451    .._00052                 mlsys_et_:    148.
        1501    .._00053                 mlsys_et_:    151.
        1520    .._00054                 mlsys_et_:    154.
        1541    .._00055                 mlsys_et_:    157.
        1562    .._00056                 mlsys_et_:    160.
        1603    .._00057                 mlsys_et_:    163.
        1622    .._00060                 mlsys_et_:    166.
        1657    .._00061                 mlsys_et_:    169.
        1671    .._00062                 mlsys_et_:    172.
        1705    .._00063                 mlsys_et_:    175.
        1726    .._00064                 mlsys_et_:    178.
        1750    .._00065                 mlsys_et_:    181.
        1766    .._00066                 mlsys_et_:    184.
        2010    .._00067                 mlsys_et_:    187.
        2034    .._00070                 mlsys_et_:    190.
        2056    .._00071                 mlsys_et_:    193.
        2113    .._00072                 mlsys_et_:    196.
        2132    .._00073                 mlsys_et_:    199.
        2154    .._00074                 mlsys_et_:    202.
        2174    .._00075                 mlsys_et_:    205.
        2215    .._00076                 mlsys_et_:    208.
        2241    .._00077                 mlsys_et_:    211.
        2265    .._00100                 mlsys_et_:    214.
        2306    .._00101                 mlsys_et_:    217.
        2325    .._00102                 mlsys_et_:    220.
        2345    .._00103                 mlsys_et_:    223.
        2374    .._00104                 mlsys_et_:    226.
        2415    .._00105                 mlsys_et_:    229.
        2446    .._00106                 mlsys_et_:    232.
        2462    .._00107                 mlsys_et_:    235.
        2473    .._00110                 mlsys_et_:    238.
        2507    .._00111                 mlsys_et_:    241.
        2524    .._00112                 mlsys_et_:    244.
        2553    .._00113                 mlsys_et_:    247.
        2572    .._00114                 mlsys_et_:    250.
        2620    .._00115                 mlsys_et_:    253.
        2640    .._00116                 mlsys_et_:    256.
        2662    .._00117                 mlsys_et_:    259.
        2710    .._00120                 mlsys_et_:    262.
        2732    .._00121                 mlsys_et_:    265.
        2747    .._00122                 mlsys_et_:    268.
        2774    .._00123                 mlsys_et_:    271.
        3010    .._00124                 mlsys_et_:    274.
        3025    .._00125                 mlsys_et_:    277.
        3044    .._00126                 mlsys_et_:    280.
        3061    .._00127                 mlsys_et_:    283.
        3077    .._00130                 mlsys_et_:    286.
        3117    .._00131                 mlsys_et_:    289.
        3143    .._00132                 mlsys_et_:    292.
        3164    .._00133                 mlsys_et_:    295.
        3204    .._00134                 mlsys_et_:    298.
        3224    .._00135                 mlsys_et_:    301.
        3245    .._00136                 mlsys_et_:    304.
        3261    .._00137                 mlsys_et_:    307.
        3276    .._00140                 mlsys_et_:    310.
        3323    .._00141                 mlsys_et_:    313.
        3343    .._00142                 mlsys_et_:    316.
        3373    .._00143                 mlsys_et_:    319.
        3421    .._00144                 mlsys_et_:    322.
        3436    .._00145                 mlsys_et_:    325.
        3463    .._00146                 mlsys_et_:    328.
        3501    .._00147                 mlsys_et_:    331.
        3524    .._00150                 mlsys_et_:    334.
        3547    .._00151                 mlsys_et_:    337.
        3570    .._00152                 mlsys_et_:    340.
        3615    .._00153                 mlsys_et_:    343.
        3631    .._00154                 mlsys_et_:    346.
        3646    .._00155                 mlsys_et_:    349.
        3667    .._00156                 mlsys_et_:    352.
        3706    .._00157                 mlsys_et_:    355.
        3726    .._00160                 mlsys_et_:    358.
        3747    .._00161                 mlsys_et_:    361.
        3772    .._00162                 mlsys_et_:    364.
        4002    .._00163                 mlsys_et_:    367.
        4013    .._00164                 mlsys_et_:    370.
        4023    .._00165                 mlsys_et_:    373.
        4051    .._00166                 mlsys_et_:    376.
        4072    .._00167                 mlsys_et_:    379.
        4113    .._00170                 mlsys_et_:    382.
        4137    .._00171                 mlsys_et_:    385.
        4160    .._00172                 mlsys_et_:    388.
        4204    .._00173                 mlsys_et_:    391.
        4224    .._00174                 mlsys_et_:    394.
        4250    .._00175                 mlsys_et_:    397.
        4275    .._00176                 mlsys_et_:    400.
         207    .code_end                mlsys_et_:     18.
          10    .code_start              mlsys_et_:     18.
           5    .loop                    mlsys_et_:     18.
       77777    .segno                   mlsys_et_:     18,   22,   25,   28,   31,   34,   37,   40,   43,   46,   49,   52,
                                                        55,   58,   61,   64,   67,   70,   73,   76,   79,   82,   85,   88,
                                                        91,   94,   97,  100,  103,  106,  109,  112,  115,  118,  121,  124,
                                                       127,  130,  133,  136,  139,  142,  145,  148,  151,  154,  157,  160,
                                                       163,  166,  169,  172,  175,  178,  181,  184,  187,  190,  193,  196,
                                                       199,  202,  205,  208,  211,  214,  217,  220,  223,  226,  229,  232,
                                                       235,  238,  241,  244,  247,  250,  253,  256,  259,  262,  265,  268,
                                                       271,  274,  277,  280,  283,  286,  289,  292,  295,  298,  301,  304,
                                                       307,  310,  313,  316,  319,  322,  325,  328,  331,  334,  337,  340,
                                                       343,  346,  349,  352,  355,  358,  361,  364,  367,  370,  373,  376,
                                                       379,  382,  385,  388,  391,  394,  397,  400.
           0    .trapproc                mlsys_et_:     18.
          10    address_pathname_expected      mlsys_et_:     22.
          11    address_pathname_too_long_to_q       mlsys_et_:     25.
          12    all_messages_deleted     mlsys_et_:     28.
          13    already_marked_for_deletion    mlsys_et_:     31.
          14    ambiguous_address        mlsys_et_:     34.
          15    bad_acknowledge_to       mlsys_et_:     37.
          16    bad_explicit_route       mlsys_et_:     40.
          17    bad_mail_table           mlsys_et_:     43.
        1170    call_offset              stack_header:        80.
          21    cant_be_deleted          mlsys_et_:     49.
          22    cant_compute_route       mlsys_et_:     52.
          23    cant_determine_dtc       mlsys_et_:     55.
          24    cant_determine_msgid     mlsys_et_:     58.
          25    cant_determine_sender    mlsys_et_:     61.
          26    cant_parse_irt_field     mlsys_et_:     64.
          27    cant_queue_mls_in_archive      mlsys_et_:     67.
          30    cant_send_acknowledgement      mlsys_et_:     70.
          31    cant_update_message      mlsys_et_:     73.
          20    ca_parse_failed          mlsys_et_:     46.
          32    circular_mtes            mlsys_et_:     76.
          10    codes                    mlsys_et_:     18,   22,   25,   28,   31,   34,   37,   40,   43,   46,   49,   52,
                                                        55,   58,   61,   64,   67,   70,   73,   76,   79,   82,   85,   88,
                                                        91,   94,   97,  100,  103,  106,  109,  112,  115,  118,  121,  124,
                                                       127,  130,  133,  136,  139,  142,  145,  148,  151,  154,  157,  160,
                                                       163,  166,  169,  172,  175,  178,  181,  184,  187,  190,  193,  196,
                                                       199,  202,  205,  208,  211,  214,  217,  220,  223,  226,  229,  232,
                                                       235,  238,  241,  244,  247,  250,  253,  256,  259,  262,  265,  268,
                                                       271,  274,  277,  280,  283,  286,  289,  292,  295,  298,  301,  304,
                                                       307,  310,  313,  316,  319,  322,  325,  328,  331,  334,  337,  340,
                                                       343,  346,  349,  352,  355,  358,  361,  364,  367,  370,  373,  376,
                                                       379,  382,  385,  388,  391,  394,  397,  400.
          33    comment_ignored          mlsys_et_:     79.
          34    deletion_pending         mlsys_et_:     82.
          35    duplicate_address        mlsys_et_:     85.
          36    duplicate_reply_reference      mlsys_et_:     88.
          37    duplicate_user_field     mlsys_et_:     91.
          40    empty_address_list       mlsys_et_:     94.
          41    empty_address_text       mlsys_et_:     97.
          42    empty_mailing_list       mlsys_et_:    100.
          43    empty_message            mlsys_et_:    103.
        1174    entry_offset             stack_header:        84.
          44    errors_in_list_address   mlsys_et_:    106.
          45    extra_restricted_field   mlsys_et_:    109.
          46    foreign_address_too_long       mlsys_et_:    112.
          47    forum_not_available      mlsys_et_:    115.
          51    incomplete_address_list_text   mlsys_et_:    121.
          52    incomplete_address_text  mlsys_et_:    124.
          53    incomplete_comment       mlsys_et_:    127.
          54    incomplete_named_group_text    mlsys_et_:    130.
          55    incorrect_suffix         mlsys_et_:    133.
          56    invalid_address          mlsys_et_:    136.
          57    invalid_address_list_syntax    mlsys_et_:    139.
          60    invalid_address_syntax   mlsys_et_:    142.
          61    invalid_mte_syntax       mlsys_et_:    145.
          62    invalid_named_group_text       mlsys_et_:    148.
          63    invalid_person_id_syntax       mlsys_et_:    151.
          64    invalid_relayed_field_syntax   mlsys_et_:    154.
          65    invalid_route_field_syntax     mlsys_et_:    157.
          66    invalid_user_id_syntax   mlsys_et_:    160.
          50    in_mailbox_only_field    mlsys_et_:    118.
          67    ism_not_available        mlsys_et_:    163.
          70    list_address_is_all_duplicates       mlsys_et_:    166.
          71    logbox_created           mlsys_et_:    169.
          72    mailbox_exists           mlsys_et_:    172.
          73    mailbox_full             mlsys_et_:    175.
           0    messages                 mlsys_et_:     18,   22,   25,   28,   31,   34,   37,   40,   43,   46,   49,   52,
                                                        55,   58,   61,   64,   67,   70,   73,   76,   79,   82,   85,   88,
                                                        91,   94,   97,  100,  103,  106,  109,  112,  115,  118,  121,  124,
                                                       127,  130,  133,  136,  139,  142,  145,  148,  151,  154,  157,  160,
                                                       163,  166,  169,  172,  175,  178,  181,  184,  187,  190,  193,  196,
                                                       199,  202,  205,  208,  211,  214,  217,  220,  223,  226,  229,  232,
                                                       235,  238,  241,  244,  247,  250,  253,  256,  259,  262,  265,  268,
                                                       271,  274,  277,  280,  283,  286,  289,  292,  295,  298,  301,  304,
                                                       307,  310,  313,  316,  319,  322,  325,  328,  331,  334,  337,  340,
                                                       343,  346,  349,  352,  355,  358,  361,  364,  367,  370,  373,  376,
                                                       379,  382,  385,  388,  391,  394,  397,  400.
          74    message_already_read     mlsys_et_:    178.
          75    message_delivered        mlsys_et_:    181.
          76    message_not_sent         mlsys_et_:    184.
          77    message_partially_sent   mlsys_et_:    187.
         100    message_queued           mlsys_et_:    190.
         101    message_queued_and_delivered   mlsys_et_:    193.
         102    message_too_large        mlsys_et_:    196.
         103    missing_acknowledge_to   mlsys_et_:    199.
         104    missing_host_name        mlsys_et_:    202.
         105    mte_not_found            mlsys_et_:    205.
         106    mte_not_mailbox          mlsys_et_:    208.
         107    multiple_address_routes  mlsys_et_:    211.
         134    not_address              mlsys_et_:    274.
         135    not_address_list         mlsys_et_:    277.
         136    not_foreign_address      mlsys_et_:    280.
         137    not_in_mailbox_message   mlsys_et_:    283.
         140    not_list_address         mlsys_et_:    286.
         143    not_mailbox              mlsys_et_:    295.
         141    not_mail_table_address   mlsys_et_:    289.
         142    not_marked_for_deletion  mlsys_et_:    292.
         144    not_message              mlsys_et_:    298.
         145    not_message_trace        mlsys_et_:    301.
         146    not_named_group_address  mlsys_et_:    304.
         147    not_new_message          mlsys_et_:    307.
         150    not_temporary_segment    mlsys_et_:    310.
         111    no_ack_needed            mlsys_et_:    217.
         112    no_address_pathname      mlsys_et_:    220.
         113    no_address_route         mlsys_et_:    223.
         114    no_address_string        mlsys_et_:    226.
         110    no_a_permission          mlsys_et_:    214.
         115    no_comment_redistribution      mlsys_et_:    229.
         116    no_forum_this_ring       mlsys_et_:    232.
         117    no_logbox                mlsys_et_:    235.
         120    no_mailbox               mlsys_et_:    238.
         121    no_mailing_list          mlsys_et_:    241.
         122    no_mail_service          mlsys_et_:    244.
         124    no_message_canonical_form      mlsys_et_:    250.
         123    no_message_header        mlsys_et_:    247.
         125    no_more_messages         mlsys_et_:    253.
         126    no_o_permission          mlsys_et_:    256.
         127    no_pending_deletion      mlsys_et_:    259.
         131    no_recipients            mlsys_et_:    265.
         130    no_r_permission          mlsys_et_:    262.
         133    no_savebox               mlsys_et_:    271.
         132    no_s_permission          mlsys_et_:    268.
         153    null_foreign_address     mlsys_et_:    319.
         154    null_named_group_name    mlsys_et_:    322.
         155    null_search_string       mlsys_et_:    325.
         151    obsolete_address_syntax  mlsys_et_:    313.
         152    only_address_route_allowed     mlsys_et_:    316.
         207    past_codes               mlsys_et_:     18.
        1171    push_offset              stack_header:        81.
         156    read_only_address_list   mlsys_et_:    328.
         157    recursive_named_addresses      mlsys_et_:    331.
         160    rejected_by_foreign_system     mlsys_et_:    334.
         161    reserved_field_name      mlsys_et_:    337.
        1173    return_no_pop_offset     stack_header:        83.
        1172    return_offset            stack_header:        82.
         162    route_out_of_service     mlsys_et_:    340.
         163    savebox_created          mlsys_et_:    343.
         164    some_messages_not_deleted      mlsys_et_:    346.
          73    stach_header.trace_top_ptr     stack_header:        62.
          66    stack_header.assign_linkage_ptr      stack_header:        59.
          32    stack_header.bar_mode_sp       stack_header:        42.
          36    stack_header.call_op_ptr       stack_header:        44.
          10    stack_header.clr_ptr     stack_header:        27.
           6    stack_header.combined_stat_ptr       stack_header:        25.
           4    stack_header.cpm_data_ptr      stack_header:        24.
          13    stack_header.cpm_enabled       stack_header:        32.
          13    stack_header.cur_lot_size      stack_header:        31.
          64    stack_header.ect_ptr     stack_header:        58.
          46    stack_header.entry_op_ptr      stack_header:        49.
          70    stack_header.heap_header_ptr   stack_header:        60.
          74    stack_header.in_trace    stack_header:        63.
          52    stack_header.isot_ptr    stack_header:        52.
          26    stack_header.lot_ptr     mlsys_et_:     18,
                                         stack_header:        39.
          12    stack_header.main_proc_invoked       stack_header:        29.
          12    stack_header.max_lot_size      stack_header:        28.
          20    stack_header.parent_ptr  stack_header:        36.
          34    stack_header.pl1_operators_ptr       stack_header:        43.
          40    stack_header.push_op_ptr       stack_header:        46.
          42    stack_header.return_op_ptr     stack_header:        47.
          44    stack_header.ret_no_pop_op_ptr       stack_header:        48.
          62    stack_header.rnt_ptr     stack_header:        57.
          12    stack_header.run_unit_depth    stack_header:        30.
          54    stack_header.sct_ptr     stack_header:        53.
          30    stack_header.signal_ptr  stack_header:        41.
          22    stack_header.stack_begin_ptr   stack_header:        37.
          24    stack_header.stack_end_ptr     stack_header:        38.
          14    stack_header.system_free_ptr   stack_header:        33.
          60    stack_header.sys_link_info_ptr       stack_header:        56.
          72    stack_header.trace_frames      stack_header:        61.
          50    stack_header.trans_op_tv_ptr   stack_header:        51.
          56    stack_header.unwinder_ptr      stack_header:        54.
          16    stack_header.user_free_ptr     stack_header:        34.
         100    stack_header_end         stack_header:        64.
         165    text_follows_address     mlsys_et_:    349.
         166    text_follows_route       mlsys_et_:    352.
         167    text_parse_failed        mlsys_et_:    355.
         170    too_many_recipients      mlsys_et_:    358.
           0    trace_frames.count       stack_header:        69.
           1    trace_frames.top_ptr     stack_header:        70.
         551    tv_offset                stack_header:        75,   80,   81,   82,   83,   84.
         171    unable_to_queue_mail     mlsys_et_:    361.
         172    unbalanced_braces        mlsys_et_:    364.
         173    unbalanced_parentheses   mlsys_et_:    367.
         174    unbalanced_quotes        mlsys_et_:    370.
         175    unknown_body_section_type      mlsys_et_:    373.
         176    unknown_delivery_mode    mlsys_et_:    376.
         177    unknown_message_id       mlsys_et_:    379.
         200    unknown_queued_notify_mode     mlsys_et_:    382.
         201    unknown_queueing_mode    mlsys_et_:    385.
         202    unknown_structured_address_type      mlsys_et_:    388.
         203    unknown_system           mlsys_et_:    391.
         204    unknown_user_field_id    mlsys_et_:    394.
         205    unknown_user_field_type  mlsys_et_:    397.
         206    unsupported_reserved_field_name      mlsys_et_:    400.


NO FATAL ERRORS


                                          -----------------------------------------------------------


Historical Background

This edition of the Multics software materials and documentation is provided and donated
to Massachusetts Institute of Technology by Group BULL including BULL HN Information Systems Inc.
as a contribution to computer science knowledge.
This donation is made also to give evidence of the common contributions of Massachusetts Institute of Technology,
Bell Laboratories, General Electric, Honeywell Information Systems Inc., Honeywell BULL Inc., Groupe BULL
and BULL HN Information Systems Inc. to the development of this operating system.
Multics development was initiated by Massachusetts Institute of Technology Project MAC (1963-1970),
renamed the MIT Laboratory for Computer Science and Artificial Intelligence in the mid 1970s, under the leadership
of Professor Fernando Jose Corbato. Users consider that Multics provided the best software architecture
for managing computer hardware properly and for executing programs. Many subsequent operating systems
incorporated Multics principles.
Multics was distributed in 1975 to 2000 by Group Bull in Europe , and in the U.S. by Bull HN Information Systems Inc.,
as successor in interest by change in name only to Honeywell Bull Inc. and Honeywell Information Systems Inc. .

                                          -----------------------------------------------------------

Permission to use, copy, modify, and distribute these programs and their documentation for any purpose and without
fee is hereby granted,provided that the below copyright notice and historical background appear in all copies
and that both the copyright notice and historical background and this permission notice appear in supporting
documentation, and that the names of MIT, HIS, BULL or BULL HN not be used in advertising or publicity pertaining
to distribution of the programs without specific prior written permission.
    Copyright 1972 by Massachusetts Institute of Technology and Honeywell Information Systems Inc.
    Copyright 2006 by BULL HN Information Systems Inc.
    Copyright 2006 by Bull SAS
    All Rights Reserved
