ASSEMBLY LISTING OF SEGMENT >special_ldd>install>MR12.2-1073>mrds_dsl_tables.alm
ASSEMBLED ON:	08/01/88  1322.6 mst Mon
OPTIONS USED:	-target l68                              list symbols
ASSEMBLED BY:	ALM Version 7.4 April 1987
ASSEMBLER CREATED:	11/02/87  1303.7 mst Mon

                                     1  " ********************************************
                                     2  " *                                          *
                                     3  " * Copyright, (C) Honeywell Bull Inc., 1988 *
                                     4  " *                                          *
                                     5  " ********************************************
                                     6
                                     7  " HISTORY COMMENTS:
                                     8  "  1) change(87-01-22,Hergert), approve(88-07-11,MCR7903),
                                     9  "     audit(88-07-07,Dupuis), install(88-08-01,MR12.2-1073):
                                    10  "     Generated from mrds_dsl.lalr for new parser.
                                    11  "                                                      END HISTORY COMMENTS
                                    12
                                    13  "
                                    14  " SCANNER AND PARSER TABLES FROM SEGMENT
                                    15  "
                                    16  "	>udd>auto>Hergert>mrds_dsl.grammar
                                    17  "
                                    18  "   Generated by: Hergert.AUTO.a using LALR LALR 7.3f of Tuesday, January 19, 1988
                                    19  "   Generated at: Honeywell Bull, Phoenix AZ, SysM
                                    20  "   Generated on: 06/27/88  1513.8 edt Mon
                                    21  "   Generated from: >udd>auto>Hergert>mrds_dsl.lalr
                                    22  "
                        000000      23  	equ	strd,0
                        000001      24  	equ	look,1
                        000002      25  	equ	strds,2
                        000003      26  	equ	looks,3
                        000004      27  	equ	aply,4
                        000005      28  	equ	aply1,5
                        000006      29  	equ	aplys,6
                        000007      30  	equ	nulls,7
                        000010      31  	equ	final,8
                        000011      32  	equ	nsrd,9
                        000012      33  	equ	nsrds,10
                        000013      34  	equ	aplyp,11
                        000014      35  	equ	aplyp1,12
                        000015      36  	equ	aplyps,13
                        000016      37  	equ	lookd,14
                        000017      38  	equ	nsrdd,15
                        000020      39  	equ	lookc,16
                        000021      40  	equ	nsrdc,17
                        000022      41  	equ	aplyr,18
                        000023      42  	equ	aplyr1,19
                        000024      43  	equ	aplyrs,20
                        000000      44  	equ	t0,0
                        000000      45  	equ	st0,0
                                    46  "
                                    47  "
                                    48  "	Terminals Hash List
                                    49  "
                                    50  	use	uthl
    000000                          51  thl: terminals_hash_list:
    000000  aa   000000 001775      52  	zero	,1021
                        000000      53  	segdef	terminals_hash_list
    000001  aa   000000 000000      54  	vfd	12/0,12/0,12/0
    000002  aa   000000 000000      55  	vfd	12/0,12/0,12/0
    000003  aa   000000 000000      56  	vfd	12/0,12/0,12/0
    000004  aa   000000 000000      57  	vfd	12/0,12/0,12/0
    000005  aa   000000 000000      58  	vfd	12/0,12/0,12/0
    000006  aa   000000 000000      59  	vfd	12/0,12/0,12/0
    000007  aa   000000 000000      60  	vfd	12/0,12/0,12/0
    000010  aa   000000 000000      61  	vfd	12/0,12/0,12/0
    000011  aa   006600 010000      62  	vfd	12/54,12/1,12/0
    000012  aa   000000 000000      63  	vfd	12/0,12/0,12/0
    000013  aa   000000 000000      64  	vfd	12/0,12/0,12/0
    000014  aa   002400 000000      65  	vfd	12/20,12/0,12/0
    000015  aa   000000 000071      66  	vfd	12/0,12/0,12/57
    000016  aa   000000 000032      67  	vfd	12/0,12/0,12/26
    000017  aa   000000 000000      68  	vfd	12/0,12/0,12/0
    000020  aa   000000 000000      69  	vfd	12/0,12/0,12/0
    000021  aa   005400 000000      70  	vfd	12/44,12/0,12/0
    000022  aa   000000 450000      71  	vfd	12/0,12/37,12/0
    000023  aa   000000 000000      72  	vfd	12/0,12/0,12/0
    000024  aa   000000 000000      73  	vfd	12/0,12/0,12/0
    000025  aa   006700 000000      74  	vfd	12/55,12/0,12/0
    000026  aa   000000 000107      75  	vfd	12/0,12/0,12/71
    000027  aa   010000 000000      76  	vfd	12/64,12/0,12/0
    000030  aa   010400 030000      77  	vfd	12/68,12/3,12/0
    000031  aa   000000 000000      78  	vfd	12/0,12/0,12/0
    000032  aa   000000 000000      79  	vfd	12/0,12/0,12/0
    000033  aa   000000 000000      80  	vfd	12/0,12/0,12/0
    000034  aa   000000 000064      81  	vfd	12/0,12/0,12/52
    000035  aa   000000 000000      82  	vfd	12/0,12/0,12/0
    000036  aa   000000 000000      83  	vfd	12/0,12/0,12/0
    000037  aa   000000 000000      84  	vfd	12/0,12/0,12/0
    000040  aa   000000 000000      85  	vfd	12/0,12/0,12/0
    000041  aa   000000 000000      86  	vfd	12/0,12/0,12/0
    000042  aa   000000 000000      87  	vfd	12/0,12/0,12/0
    000043  aa   000000 000000      88  	vfd	12/0,12/0,12/0
    000044  aa   000000 610000      89  	vfd	12/0,12/49,12/0
    000045  aa   000000 000000      90  	vfd	12/0,12/0,12/0
    000046  aa   000000 000000      91  	vfd	12/0,12/0,12/0
    000047  aa   000000 000000      92  	vfd	12/0,12/0,12/0
    000050  aa   000000 000000      93  	vfd	12/0,12/0,12/0
    000051  aa   000000 000000      94  	vfd	12/0,12/0,12/0
    000052  aa   000000 000000      95  	vfd	12/0,12/0,12/0
    000053  aa   000000 000000      96  	vfd	12/0,12/0,12/0
    000054  aa   000000 000000      97  	vfd	12/0,12/0,12/0
    000055  aa   000000 000000      98  	vfd	12/0,12/0,12/0
    000056  aa   000000 000000      99  	vfd	12/0,12/0,12/0
    000057  aa   000000 000000     100  	vfd	12/0,12/0,12/0
    000060  aa   000000 000000     101  	vfd	12/0,12/0,12/0
    000061  aa   000000 000000     102  	vfd	12/0,12/0,12/0
    000062  aa   000000 000000     103  	vfd	12/0,12/0,12/0
    000063  aa   000000 510000     104  	vfd	12/0,12/41,12/0
    000064  aa   000000 000000     105  	vfd	12/0,12/0,12/0
    000065  aa   000000 000000     106  	vfd	12/0,12/0,12/0
    000066  aa   000000 000000     107  	vfd	12/0,12/0,12/0
    000067  aa   000000 000000     108  	vfd	12/0,12/0,12/0
    000070  aa   000000 000000     109  	vfd	12/0,12/0,12/0
    000071  aa   000000 760000     110  	vfd	12/0,12/62,12/0
    000072  aa   000000 210000     111  	vfd	12/0,12/17,12/0
    000073  aa   000000 000000     112  	vfd	12/0,12/0,12/0
    000074  aa   000000 000000     113  	vfd	12/0,12/0,12/0
    000075  aa   000000 000000     114  	vfd	12/0,12/0,12/0
    000076  aa   005000 000000     115  	vfd	12/40,12/0,12/0
    000077  aa   000000 000000     116  	vfd	12/0,12/0,12/0
    000100  aa   000000 000000     117  	vfd	12/0,12/0,12/0
    000101  aa   000000 000000     118  	vfd	12/0,12/0,12/0
    000102  aa   000000 000000     119  	vfd	12/0,12/0,12/0
    000103  aa   000000 470000     120  	vfd	12/0,12/39,12/0
    000104  aa   000000 000000     121  	vfd	12/0,12/0,12/0
    000105  aa   000000 000000     122  	vfd	12/0,12/0,12/0
    000106  aa   000000 000000     123  	vfd	12/0,12/0,12/0
    000107  aa   000000 300000     124  	vfd	12/0,12/24,12/0
    000110  aa   000000 650000     125  	vfd	12/0,12/53,12/0
    000111  aa   000000 000000     126  	vfd	12/0,12/0,12/0
    000112  aa   000000 000000     127  	vfd	12/0,12/0,12/0
    000113  aa   000000 000000     128  	vfd	12/0,12/0,12/0
    000114  aa   000000 000000     129  	vfd	12/0,12/0,12/0
    000115  aa   000000 000000     130  	vfd	12/0,12/0,12/0
    000116  aa   000000 170000     131  	vfd	12/0,12/15,12/0
    000117  aa   000000 000000     132  	vfd	12/0,12/0,12/0
    000120  aa   000000 000000     133  	vfd	12/0,12/0,12/0
    000121  aa   000000 000000     134  	vfd	12/0,12/0,12/0
    000122  aa   000000 000000     135  	vfd	12/0,12/0,12/0
    000123  aa   000000 000000     136  	vfd	12/0,12/0,12/0
    000124  aa   000000 000000     137  	vfd	12/0,12/0,12/0
    000125  aa   001100 140000     138  	vfd	12/9,12/12,12/0
    000126  aa   000000 000000     139  	vfd	12/0,12/0,12/0
    000127  aa   000000 330000     140  	vfd	12/0,12/27,12/0
    000130  aa   000000 120000     141  	vfd	12/0,12/10,12/0
    000131  aa   000000 000000     142  	vfd	12/0,12/0,12/0
    000132  aa   007000 000000     143  	vfd	12/56,12/0,12/0
    000133  aa   000001 060034     144  	vfd	12/0,12/70,12/28
    000134  aa   000000 000000     145  	vfd	12/0,12/0,12/0
    000135  aa   000001 020000     146  	vfd	12/0,12/66,12/0
    000136  aa   000000 000000     147  	vfd	12/0,12/0,12/0
    000137  aa   000000 000000     148  	vfd	12/0,12/0,12/0
    000140  aa   000000 000002     149  	vfd	12/0,12/0,12/2
    000141  aa   000000 000000     150  	vfd	12/0,12/0,12/0
    000142  aa   000000 000000     151  	vfd	12/0,12/0,12/0
    000143  aa   000000 000000     152  	vfd	12/0,12/0,12/0
    000144  aa   000000 000112     153  	vfd	12/0,12/0,12/74
    000145  aa   000000 000000     154  	vfd	12/0,12/0,12/0
    000146  aa   000000 000000     155  	vfd	12/0,12/0,12/0
    000147  aa   000000 000000     156  	vfd	12/0,12/0,12/0
    000150  aa   000000 000000     157  	vfd	12/0,12/0,12/0
    000151  aa   000000 000000     158  	vfd	12/0,12/0,12/0
    000152  aa   000000 000000     159  	vfd	12/0,12/0,12/0
    000153  aa   000000 000000     160  	vfd	12/0,12/0,12/0
    000154  aa   000000 730000     161  	vfd	12/0,12/59,12/0
    000155  aa   000001 030000     162  	vfd	12/0,12/67,12/0
    000156  aa   000000 000056     163  	vfd	12/0,12/0,12/46
    000157  aa   000000 000000     164  	vfd	12/0,12/0,12/0
    000160  aa   000000 000000     165  	vfd	12/0,12/0,12/0
    000161  aa   000000 000022     166  	vfd	12/0,12/0,12/18
    000162  aa   000000 000000     167  	vfd	12/0,12/0,12/0
    000163  aa   000000 000000     168  	vfd	12/0,12/0,12/0
    000164  aa   000000 000000     169  	vfd	12/0,12/0,12/0
    000165  aa   000000 000000     170  	vfd	12/0,12/0,12/0
    000166  aa   000000 000000     171  	vfd	12/0,12/0,12/0
    000167  aa   000000 000000     172  	vfd	12/0,12/0,12/0
    000170  aa   000000 000000     173  	vfd	12/0,12/0,12/0
    000171  aa   000000 000000     174  	vfd	12/0,12/0,12/0
    000172  aa   000000 000000     175  	vfd	12/0,12/0,12/0
    000173  aa   000000 000000     176  	vfd	12/0,12/0,12/0
    000174  aa   000000 000000     177  	vfd	12/0,12/0,12/0
    000175  aa   000000 000000     178  	vfd	12/0,12/0,12/0
    000176  aa   000000 000000     179  	vfd	12/0,12/0,12/0
    000177  aa   000000 000000     180  	vfd	12/0,12/0,12/0
    000200  aa   000000 000000     181  	vfd	12/0,12/0,12/0
    000201  aa   000000 000000     182  	vfd	12/0,12/0,12/0
    000202  aa   000000 000000     183  	vfd	12/0,12/0,12/0
    000203  aa   000000 000000     184  	vfd	12/0,12/0,12/0
    000204  aa   000000 000000     185  	vfd	12/0,12/0,12/0
    000205  aa   000000 000000     186  	vfd	12/0,12/0,12/0
    000206  aa   000000 000000     187  	vfd	12/0,12/0,12/0
    000207  aa   000000 000000     188  	vfd	12/0,12/0,12/0
    000210  aa   000000 000000     189  	vfd	12/0,12/0,12/0
    000211  aa   000000 000000     190  	vfd	12/0,12/0,12/0
    000212  aa   000000 000000     191  	vfd	12/0,12/0,12/0
    000213  aa   000000 000000     192  	vfd	12/0,12/0,12/0
    000214  aa   000000 040000     193  	vfd	12/0,12/4,12/0
    000215  aa   000000 000075     194  	vfd	12/0,12/0,12/61
    000216  aa   000000 000000     195  	vfd	12/0,12/0,12/0
    000217  aa   005500 000000     196  	vfd	12/45,12/0,12/0
    000220  aa   000000 000000     197  	vfd	12/0,12/0,12/0
    000221  aa   000000 000000     198  	vfd	12/0,12/0,12/0
    000222  aa   000000 000000     199  	vfd	12/0,12/0,12/0
    000223  aa   000000 000000     200  	vfd	12/0,12/0,12/0
    000224  aa   002600 000000     201  	vfd	12/22,12/0,12/0
    000225  aa   000000 000000     202  	vfd	12/0,12/0,12/0
    000226  aa   000000 000000     203  	vfd	12/0,12/0,12/0
    000227  aa   000000 000000     204  	vfd	12/0,12/0,12/0
    000230  aa   000000 000000     205  	vfd	12/0,12/0,12/0
    000231  aa   000000 000000     206  	vfd	12/0,12/0,12/0
    000232  aa   000000 000000     207  	vfd	12/0,12/0,12/0
    000233  aa   000000 000000     208  	vfd	12/0,12/0,12/0
    000234  aa   000000 000000     209  	vfd	12/0,12/0,12/0
    000235  aa   000000 000000     210  	vfd	12/0,12/0,12/0
    000236  aa   000000 000000     211  	vfd	12/0,12/0,12/0
    000237  aa   000000 000000     212  	vfd	12/0,12/0,12/0
    000240  aa   011100 000000     213  	vfd	12/73,12/0,12/0
    000241  aa   000000 000000     214  	vfd	12/0,12/0,12/0
    000242  aa   000000 000000     215  	vfd	12/0,12/0,12/0
    000243  aa   000000 000000     216  	vfd	12/0,12/0,12/0
    000244  aa   000000 000000     217  	vfd	12/0,12/0,12/0
    000245  aa   000000 000000     218  	vfd	12/0,12/0,12/0
    000246  aa   000000 000000     219  	vfd	12/0,12/0,12/0
    000247  aa   000000 000000     220  	vfd	12/0,12/0,12/0
    000250  aa   000000 000000     221  	vfd	12/0,12/0,12/0
    000251  aa   000000 000000     222  	vfd	12/0,12/0,12/0
    000252  aa   000000 000000     223  	vfd	12/0,12/0,12/0
    000253  aa   000000 000000     224  	vfd	12/0,12/0,12/0
    000254  aa   000000 000000     225  	vfd	12/0,12/0,12/0
    000255  aa   000000 000000     226  	vfd	12/0,12/0,12/0
    000256  aa   000000 000000     227  	vfd	12/0,12/0,12/0
    000257  aa   000000 000000     228  	vfd	12/0,12/0,12/0
    000260  aa   000000 000000     229  	vfd	12/0,12/0,12/0
    000261  aa   000000 000000     230  	vfd	12/0,12/0,12/0
    000262  aa   000000 000000     231  	vfd	12/0,12/0,12/0
    000263  aa   000000 000000     232  	vfd	12/0,12/0,12/0
    000264  aa   000000 000000     233  	vfd	12/0,12/0,12/0
    000265  aa   000000 000000     234  	vfd	12/0,12/0,12/0
    000266  aa   000000 000000     235  	vfd	12/0,12/0,12/0
    000267  aa   000000 000000     236  	vfd	12/0,12/0,12/0
    000270  aa   000500 000000     237  	vfd	12/5,12/0,12/0
    000271  aa   000001 010000     238  	vfd	12/0,12/65,12/0
    000272  aa   000000 000000     239  	vfd	12/0,12/0,12/0
    000273  aa   000000 000000     240  	vfd	12/0,12/0,12/0
    000274  aa   000000 000000     241  	vfd	12/0,12/0,12/0
    000275  aa   000000 000000     242  	vfd	12/0,12/0,12/0
    000276  aa   000000 000000     243  	vfd	12/0,12/0,12/0
    000277  aa   000000 000000     244  	vfd	12/0,12/0,12/0
    000300  aa   000000 000000     245  	vfd	12/0,12/0,12/0
    000301  aa   000000 000000     246  	vfd	12/0,12/0,12/0
    000302  aa   000000 000000     247  	vfd	12/0,12/0,12/0
    000303  aa   000000 000000     248  	vfd	12/0,12/0,12/0
    000304  aa   000000 000000     249  	vfd	12/0,12/0,12/0
    000305  aa   000000 000000     250  	vfd	12/0,12/0,12/0
    000306  aa   000000 000000     251  	vfd	12/0,12/0,12/0
    000307  aa   000000 000000     252  	vfd	12/0,12/0,12/0
    000310  aa   000000 000000     253  	vfd	12/0,12/0,12/0
    000311  aa   000000 000000     254  	vfd	12/0,12/0,12/0
    000312  aa   000000 000000     255  	vfd	12/0,12/0,12/0
    000313  aa   000000 000000     256  	vfd	12/0,12/0,12/0
    000314  aa   000000 000000     257  	vfd	12/0,12/0,12/0
    000315  aa   000000 000000     258  	vfd	12/0,12/0,12/0
    000316  aa   000000 000000     259  	vfd	12/0,12/0,12/0
    000317  aa   000000 000000     260  	vfd	12/0,12/0,12/0
    000320  aa   000000 000000     261  	vfd	12/0,12/0,12/0
    000321  aa   000000 000000     262  	vfd	12/0,12/0,12/0
    000322  aa   000000 000000     263  	vfd	12/0,12/0,12/0
    000323  aa   000000 000000     264  	vfd	12/0,12/0,12/0
    000324  aa   000000 000000     265  	vfd	12/0,12/0,12/0
    000325  aa   000000 000000     266  	vfd	12/0,12/0,12/0
    000326  aa   000000 000000     267  	vfd	12/0,12/0,12/0
    000327  aa   000000 000000     268  	vfd	12/0,12/0,12/0
    000330  aa   000000 000000     269  	vfd	12/0,12/0,12/0
    000331  aa   000000 000000     270  	vfd	12/0,12/0,12/0
    000332  aa   000000 000000     271  	vfd	12/0,12/0,12/0
    000333  aa   000000 000000     272  	vfd	12/0,12/0,12/0
    000334  aa   000000 000000     273  	vfd	12/0,12/0,12/0
    000335  aa   000000 000000     274  	vfd	12/0,12/0,12/0
    000336  aa   000000 000000     275  	vfd	12/0,12/0,12/0
    000337  aa   000000 000000     276  	vfd	12/0,12/0,12/0
    000340  aa   000000 000000     277  	vfd	12/0,12/0,12/0
    000341  aa   000000 000000     278  	vfd	12/0,12/0,12/0
    000342  aa   005300 000000     279  	vfd	12/43,12/0,12/0
    000343  aa   000000 000006     280  	vfd	12/0,12/0,12/6
    000344  aa   000000 000000     281  	vfd	12/0,12/0,12/0
    000345  aa   000000 000000     282  	vfd	12/0,12/0,12/0
    000346  aa   000000 000000     283  	vfd	12/0,12/0,12/0
    000347  aa   000000 000000     284  	vfd	12/0,12/0,12/0
    000350  aa   000000 000000     285  	vfd	12/0,12/0,12/0
    000351  aa   000000 000000     286  	vfd	12/0,12/0,12/0
    000352  aa   000000 000000     287  	vfd	12/0,12/0,12/0
    000353  aa   000000 000000     288  	vfd	12/0,12/0,12/0
    000354  aa   004600 000000     289  	vfd	12/38,12/0,12/0
    000355  aa   000000 000000     290  	vfd	12/0,12/0,12/0
    000356  aa   000000 000000     291  	vfd	12/0,12/0,12/0
    000357  aa   000000 000000     292  	vfd	12/0,12/0,12/0
    000360  aa   000000 000000     293  	vfd	12/0,12/0,12/0
    000361  aa   000000 000000     294  	vfd	12/0,12/0,12/0
    000362  aa   000000 000000     295  	vfd	12/0,12/0,12/0
    000363  aa   001500 000000     296  	vfd	12/13,12/0,12/0
    000364  aa   000000 000000     297  	vfd	12/0,12/0,12/0
    000365  aa   000000 000000     298  	vfd	12/0,12/0,12/0
    000366  aa   000000 000000     299  	vfd	12/0,12/0,12/0
    000367  aa   000000 000000     300  	vfd	12/0,12/0,12/0
    000370  aa   000000 130036     301  	vfd	12/0,12/11,12/30
    000371  aa   000000 000000     302  	vfd	12/0,12/0,12/0
    000372  aa   000000 000000     303  	vfd	12/0,12/0,12/0
    000373  aa   005700 000025     304  	vfd	12/47,12/0,12/21
    000374  aa   000000 000000     305  	vfd	12/0,12/0,12/0
    000375  aa   000000 000000     306  	vfd	12/0,12/0,12/0
    000376  aa   000000 230000     307  	vfd	12/0,12/19,12/0
    000377  aa   000000 000000     308  	vfd	12/0,12/0,12/0
    000400  aa   000000 000000     309  	vfd	12/0,12/0,12/0
    000401  aa   000000 000000     310  	vfd	12/0,12/0,12/0
    000402  aa   000000 000000     311  	vfd	12/0,12/0,12/0
    000403  aa   000000 000000     312  	vfd	12/0,12/0,12/0
    000404  aa   010500 000000     313  	vfd	12/69,12/0,12/0
    000405  aa   000000 000035     314  	vfd	12/0,12/0,12/29
    000406  aa   000000 000000     315  	vfd	12/0,12/0,12/0
    000407  aa   000000 000000     316  	vfd	12/0,12/0,12/0
    000410  aa   000000 000000     317  	vfd	12/0,12/0,12/0
    000411  aa   007200 000000     318  	vfd	12/58,12/0,12/0
    000412  aa   000000 000000     319  	vfd	12/0,12/0,12/0
    000413  aa   000000 310000     320  	vfd	12/0,12/25,12/0
    000414  aa   000000 000000     321  	vfd	12/0,12/0,12/0
    000415  aa   000000 000000     322  	vfd	12/0,12/0,12/0
    000416  aa   000000 000000     323  	vfd	12/0,12/0,12/0
    000417  aa   000000 070000     324  	vfd	12/0,12/7,12/0
    000420  aa   000000 000040     325  	vfd	12/0,12/0,12/32
    000421  aa   000000 000000     326  	vfd	12/0,12/0,12/0
    000422  aa   000000 000000     327  	vfd	12/0,12/0,12/0
    000423  aa   000000 000000     328  	vfd	12/0,12/0,12/0
    000424  aa   000000 000000     329  	vfd	12/0,12/0,12/0
    000425  aa   000000 000000     330  	vfd	12/0,12/0,12/0
    000426  aa   007700 000000     331  	vfd	12/63,12/0,12/0
    000427  aa   007400 000000     332  	vfd	12/60,12/0,12/0
    000430  aa   000000 000000     333  	vfd	12/0,12/0,12/0
    000431  aa   000000 000063     334  	vfd	12/0,12/0,12/51
    000432  aa   000000 000000     335  	vfd	12/0,12/0,12/0
    000433  aa   000000 000000     336  	vfd	12/0,12/0,12/0
    000434  aa   000000 000000     337  	vfd	12/0,12/0,12/0
    000435  aa   000000 000000     338  	vfd	12/0,12/0,12/0
    000436  aa   000000 000000     339  	vfd	12/0,12/0,12/0
    000437  aa   000000 000000     340  	vfd	12/0,12/0,12/0
    000440  aa   000000 000000     341  	vfd	12/0,12/0,12/0
    000441  aa   000000 520000     342  	vfd	12/0,12/42,12/0
    000442  aa   000000 000000     343  	vfd	12/0,12/0,12/0
    000443  aa   000000 000000     344  	vfd	12/0,12/0,12/0
    000444  aa   000000 000000     345  	vfd	12/0,12/0,12/0
    000445  aa   000000 000000     346  	vfd	12/0,12/0,12/0
    000446  aa   000000 000000     347  	vfd	12/0,12/0,12/0
    000447  aa   000000 000027     348  	vfd	12/0,12/0,12/23
    000450  aa   000000 000000     349  	vfd	12/0,12/0,12/0
    000451  aa   000000 000000     350  	vfd	12/0,12/0,12/0
    000452  aa   004200 000000     351  	vfd	12/34,12/0,12/0
    000453  aa   000000 000000     352  	vfd	12/0,12/0,12/0
    000454  aa   000000 000000     353  	vfd	12/0,12/0,12/0
    000455  aa   000000 000000     354  	vfd	12/0,12/0,12/0
    000456  aa   000000 000000     355  	vfd	12/0,12/0,12/0
    000457  aa   000000 000000     356  	vfd	12/0,12/0,12/0
    000460  aa   000000 000000     357  	vfd	12/0,12/0,12/0
    000461  aa   000000 000000     358  	vfd	12/0,12/0,12/0
    000462  aa   000000 000000     359  	vfd	12/0,12/0,12/0
    000463  aa   000000 000000     360  	vfd	12/0,12/0,12/0
    000464  aa   004400 000000     361  	vfd	12/36,12/0,12/0
    000465  aa   000000 000000     362  	vfd	12/0,12/0,12/0
    000466  aa   000000 000000     363  	vfd	12/0,12/0,12/0
    000467  aa   000000 000000     364  	vfd	12/0,12/0,12/0
    000470  aa   000000 000000     365  	vfd	12/0,12/0,12/0
    000471  aa   000000 620000     366  	vfd	12/0,12/50,12/0
    000472  aa   000000 000000     367  	vfd	12/0,12/0,12/0
    000473  aa   001000 000000     368  	vfd	12/8,12/0,12/0
    000474  aa   000000 000000     369  	vfd	12/0,12/0,12/0
    000475  aa   000000 000000     370  	vfd	12/0,12/0,12/0
    000476  aa   000000 000000     371  	vfd	12/0,12/0,12/0
    000477  aa   000000 000000     372  	vfd	12/0,12/0,12/0
    000500  aa   000000 000000     373  	vfd	12/0,12/0,12/0
    000501  aa   000000 000000     374  	vfd	12/0,12/0,12/0
    000502  aa   000000 000000     375  	vfd	12/0,12/0,12/0
    000503  aa   000000 000000     376  	vfd	12/0,12/0,12/0
    000504  aa   000000 000000     377  	vfd	12/0,12/0,12/0
    000505  aa   000000 000000     378  	vfd	12/0,12/0,12/0
    000506  aa   000000 000000     379  	vfd	12/0,12/0,12/0
    000507  aa   000000 000000     380  	vfd	12/0,12/0,12/0
    000510  aa   000000 000000     381  	vfd	12/0,12/0,12/0
    000511  aa   004300 000000     382  	vfd	12/35,12/0,12/0
    000512  aa   000000 000000     383  	vfd	12/0,12/0,12/0
    000513  aa   000000 000000     384  	vfd	12/0,12/0,12/0
    000514  aa   000000 000000     385  	vfd	12/0,12/0,12/0
    000515  aa   006000 000000     386  	vfd	12/48,12/0,12/0
    000516  aa   000000 000000     387  	vfd	12/0,12/0,12/0
    000517  aa   000000 000016     388  	vfd	12/0,12/0,12/14
    000520  aa   000000 000000     389  	vfd	12/0,12/0,12/0
    000521  aa   003700 000000     390  	vfd	12/31,12/0,12/0
    000522  aa   000000 000000     391  	vfd	12/0,12/0,12/0
    000523  aa   000000 000000     392  	vfd	12/0,12/0,12/0
    000524  aa   000001 100000     393  	vfd	12/0,12/72,12/0
    000525  aa   000000 000000     394  	vfd	12/0,12/0,12/0
                                   395  "
                                   396  "
                                   397  "	Terminals List
                                   398  "
                                   399  	use	utc
    000526                         400  tc: terminal_characters:
    000526  aa   000000 000750     401  	zero	0,4*terminal_characters_size
                        000526     402  	segdef	terminal_characters
                                   403  	use	utl
    000721                         404  tl: terminals_list:
    000721  aa   000000 000224     405  	zero	0,terminals_list_size
                        000721     406  	segdef	terminals_list
                                   407  "
                                   408  "	Terminal 1
                                   409  	use	utc
                        000000     410  	set	tsl,*-tc-1
    000527  aa  046 040 040 040    411  	aci	"&   "
                                   412  	use	utl
                        000001     413  	equ	t1,1
    000722  aa   000000 000001     414  	zero	0,4*tsl+1
    000723  aa   000001 000001     415  	zero	1,1
                                   416  "
                                   417  "	Terminal 2
                                   418  	use	utc
                        000001     419  	set	tsl,*-tc-1
    000530  aa  050 040 040 040    420  	aci	"(   "
                                   421  	use	utl
                        000002     422  	equ	t2,2
    000724  aa   000000 000005     423  	zero	0,4*tsl+1
    000725  aa   000001 000002     424  	zero	1,2
                                   425  "
                                   426  "	Terminal 3
                                   427  	use	utc
                        000002     428  	set	tsl,*-tc-1
    000531  aa  050 053 051 040    429  	aci	"(+) "
                                   430  	use	utl
                        000003     431  	equ	t3,3
    000726  aa   000000 000011     432  	zero	0,4*tsl+1
    000727  aa   000003 000003     433  	zero	3,3
                                   434  "
                                   435  "	Terminal 4
                                   436  	use	utc
                        000003     437  	set	tsl,*-tc-1
    000532  aa  051 040 040 040    438  	aci	")   "
                                   439  	use	utl
                        000004     440  	equ	t4,4
    000730  aa   000000 000015     441  	zero	0,4*tsl+1
    000731  aa   000001 000004     442  	zero	1,4
                                   443  "
                                   444  "	Terminal 5
                                   445  	use	utc
                        000004     446  	set	tsl,*-tc-1
    000533  aa  052 040 040 040    447  	aci	"*   "
                                   448  	use	utl
                        000005     449  	equ	t5,5
    000732  aa   000000 000021     450  	zero	0,4*tsl+1
    000733  aa   000001 000005     451  	zero	1,5
                                   452  "
                                   453  "	Terminal 6
                                   454  	use	utc
                        000005     455  	set	tsl,*-tc-1
    000534  aa  053 040 040 040    456  	aci	"+   "
                                   457  	use	utl
                        000006     458  	equ	t6,6
    000734  aa   000000 000025     459  	zero	0,4*tsl+1
    000735  aa   000001 000006     460  	zero	1,6
                                   461  "
                                   462  "	Terminal 7
                                   463  	use	utc
                        000006     464  	set	tsl,*-tc-1
    000535  aa  054 040 040 040    465  	aci	",   "
                                   466  	use	utl
                        000007     467  	equ	t7,7
    000736  aa   000000 000031     468  	zero	0,4*tsl+1
    000737  aa   000001 000007     469  	zero	1,7
                                   470  "
                                   471  "	Terminal 8
                                   472  	use	utc
                        000007     473  	set	tsl,*-tc-1
    000536  aa  055 040 040 040    474  	aci	"-   "
                                   475  	use	utl
                        000010     476  	equ	t8,8
    000740  aa   000000 000035     477  	zero	0,4*tsl+1
    000741  aa   000001 000010     478  	zero	1,8
                                   479  "
                                   480  "	Terminal 9
                                   481  	use	utc
                        000010     482  	set	tsl,*-tc-1
    000537  aa  055 141 154 154    483  	aci	"-all"
    000540  aa  137 157 146 040    484  	aci	"_of "
                                   485  	use	utl
                        000011     486  	equ	t9,9
    000742  aa   000000 000041     487  	zero	0,4*tsl+1
    000743  aa   000007 000011     488  	zero	7,9
                                   489  "
                                   490  "	Terminal 10
                                   491  	use	utc
                        000012     492  	set	tsl,*-tc-1
    000541  aa  055 141 156 171    493  	aci	"-any"
    000542  aa  137 157 146 040    494  	aci	"_of "
                                   495  	use	utl
                        000012     496  	equ	t10,10
    000744  aa   000000 000051     497  	zero	0,4*tsl+1
    000745  aa   000007 000012     498  	zero	7,10
                                   499  "
                                   500  "	Terminal 11
                                   501  	use	utc
                        000014     502  	set	tsl,*-tc-1
    000543  aa  055 141 163 143    503  	aci	"-asc"
    000544  aa  145 156 144 151    504  	aci	"endi"
    000545  aa  156 147 040 040    505  	aci	"ng  "
                                   506  	use	utl
                        000013     507  	equ	t11,11
    000746  aa   000000 000061     508  	zero	0,4*tsl+1
    000747  aa   000012 000013     509  	zero	10,11
                                   510  "
                                   511  "	Terminal 12
                                   512  	use	utc
                        000017     513  	set	tsl,*-tc-1
    000546  aa  055 143 165 162    514  	aci	"-cur"
    000547  aa  162 145 156 164    515  	aci	"rent"
                                   516  	use	utl
                        000014     517  	equ	t12,12
    000750  aa   000000 000075     518  	zero	0,4*tsl+1
    000751  aa   000010 000014     519  	zero	8,12
                                   520  "
                                   521  "	Terminal 13
                                   522  	use	utc
                        000021     523  	set	tsl,*-tc-1
    000550  aa  055 144 145 163    524  	aci	"-des"
    000551  aa  143 145 156 144    525  	aci	"cend"
    000552  aa  151 156 147 040    526  	aci	"ing "
                                   527  	use	utl
                        000015     528  	equ	t13,13
    000752  aa   000000 000105     529  	zero	0,4*tsl+1
    000753  aa   000013 000015     530  	zero	11,13
                                   531  "
                                   532  "	Terminal 14
                                   533  	use	utc
                        000024     534  	set	tsl,*-tc-1
    000553  aa  055 144 151 146    535  	aci	"-dif"
    000554  aa  146 145 162 040    536  	aci	"fer "
                                   537  	use	utl
                        000016     538  	equ	t14,14
    000754  aa   000000 000121     539  	zero	0,4*tsl+1
    000755  aa   000007 000016     540  	zero	7,14
                                   541  "
                                   542  "	Terminal 15
                                   543  	use	utc
                        000026     544  	set	tsl,*-tc-1
    000555  aa  055 144 151 163    545  	aci	"-dis"
    000556  aa  164 151 156 143    546  	aci	"tinc"
    000557  aa  164 040 040 040    547  	aci	"t   "
                                   548  	use	utl
                        000017     549  	equ	t15,15
    000756  aa   000000 000131     550  	zero	0,4*tsl+1
    000757  aa   000011 000017     551  	zero	9,15
                                   552  "
                                   553  "	Terminal 16
                                   554  	use	utc
                        000031     555  	set	tsl,*-tc-1
    000560  aa  055 144 165 160    556  	aci	"-dup"
                                   557  	use	utl
                        000020     558  	equ	t16,16
    000760  aa   000000 000145     559  	zero	0,4*tsl+1
    000761  aa   000004 000020     560  	zero	4,16
                                   561  "
                                   562  "	Terminal 17
                                   563  	use	utc
                        000032     564  	set	tsl,*-tc-1
    000561  aa  055 147 162 157    565  	aci	"-gro"
    000562  aa  165 160 137 142    566  	aci	"up_b"
    000563  aa  171 040 040 040    567  	aci	"y   "
                                   568  	use	utl
                        000021     569  	equ	t17,17
    000762  aa   000000 000151     570  	zero	0,4*tsl+1
    000763  aa   000011 000021     571  	zero	9,17
                                   572  "
                                   573  "	Terminal 18
                                   574  	use	utc
                        000035     575  	set	tsl,*-tc-1
    000564  aa  055 150 141 166    576  	aci	"-hav"
    000565  aa  151 156 147 040    577  	aci	"ing "
                                   578  	use	utl
                        000022     579  	equ	t18,18
    000764  aa   000000 000165     580  	zero	0,4*tsl+1
    000765  aa   000007 000022     581  	zero	7,18
                                   582  "
                                   583  "	Terminal 19
                                   584  	use	utc
                        000037     585  	set	tsl,*-tc-1
    000566  aa  055 151 156 164    586  	aci	"-int"
    000567  aa  145 162 040 040    587  	aci	"er  "
                                   588  	use	utl
                        000023     589  	equ	t19,19
    000766  aa   000000 000175     590  	zero	0,4*tsl+1
    000767  aa   000006 000023     591  	zero	6,19
                                   592  "
                                   593  "	Terminal 20
                                   594  	use	utc
                        000041     595  	set	tsl,*-tc-1
    000570  aa  055 151 163 137    596  	aci	"-is_"
    000571  aa  142 145 164 167    597  	aci	"betw"
    000572  aa  145 145 156 040    598  	aci	"een "
                                   599  	use	utl
                        000024     600  	equ	t20,20
    000770  aa   000000 000205     601  	zero	0,4*tsl+1
    000771  aa   000013 000024     602  	zero	11,20
                                   603  "
                                   604  "	Terminal 21
                                   605  	use	utc
                        000044     606  	set	tsl,*-tc-1
    000573  aa  055 151 163 137    607  	aci	"-is_"
    000574  aa  151 156 040 040    608  	aci	"in  "
                                   609  	use	utl
                        000025     610  	equ	t21,21
    000772  aa   000000 000221     611  	zero	0,4*tsl+1
    000773  aa   000006 000025     612  	zero	6,21
                                   613  "
                                   614  "	Terminal 22
                                   615  	use	utc
                        000046     616  	set	tsl,*-tc-1
    000575  aa  055 151 163 137    617  	aci	"-is_"
    000576  aa  154 151 153 145    618  	aci	"like"
                                   619  	use	utl
                        000026     620  	equ	t22,22
    000774  aa   000000 000231     621  	zero	0,4*tsl+1
    000775  aa   000010 000026     622  	zero	8,22
                                   623  "
                                   624  "	Terminal 23
                                   625  	use	utc
                        000050     626  	set	tsl,*-tc-1
    000577  aa  055 151 163 137    627  	aci	"-is_"
    000600  aa  156 157 164 137    628  	aci	"not_"
    000601  aa  142 145 164 167    629  	aci	"betw"
    000602  aa  145 145 156 040    630  	aci	"een "
                                   631  	use	utl
                        000027     632  	equ	t23,23
    000776  aa   000000 000241     633  	zero	0,4*tsl+1
    000777  aa   000017 000027     634  	zero	15,23
                                   635  "
                                   636  "	Terminal 24
                                   637  	use	utc
                        000054     638  	set	tsl,*-tc-1
    000603  aa  055 151 163 137    639  	aci	"-is_"
    000604  aa  156 157 164 137    640  	aci	"not_"
    000605  aa  151 156 040 040    641  	aci	"in  "
                                   642  	use	utl
                        000030     643  	equ	t24,24
    001000  aa   000000 000261     644  	zero	0,4*tsl+1
    001001  aa   000012 000030     645  	zero	10,24
                                   646  "
                                   647  "	Terminal 25
                                   648  	use	utc
                        000057     649  	set	tsl,*-tc-1
    000606  aa  055 151 163 137    650  	aci	"-is_"
    000607  aa  156 157 164 137    651  	aci	"not_"
    000610  aa  154 151 153 145    652  	aci	"like"
                                   653  	use	utl
                        000031     654  	equ	t25,25
    001002  aa   000000 000275     655  	zero	0,4*tsl+1
    001003  aa   000014 000031     656  	zero	12,25
                                   657  "
                                   658  "	Terminal 26
                                   659  	use	utc
                        000062     660  	set	tsl,*-tc-1
    000611  aa  055 151 163 137    661  	aci	"-is_"
    000612  aa  156 157 164 137    662  	aci	"not_"
    000613  aa  156 165 154 154    663  	aci	"null"
                                   664  	use	utl
                        000032     665  	equ	t26,26
    001004  aa   000000 000311     666  	zero	0,4*tsl+1
    001005  aa   000014 000032     667  	zero	12,26
                                   668  "
                                   669  "	Terminal 27
                                   670  	use	utc
                        000065     671  	set	tsl,*-tc-1
    000614  aa  055 151 163 137    672  	aci	"-is_"
    000615  aa  156 165 154 154    673  	aci	"null"
                                   674  	use	utl
                        000033     675  	equ	t27,27
    001006  aa   000000 000325     676  	zero	0,4*tsl+1
    001007  aa   000010 000033     677  	zero	8,27
                                   678  "
                                   679  "	Terminal 28
                                   680  	use	utc
                        000067     681  	set	tsl,*-tc-1
    000616  aa  055 156 157 137    682  	aci	"-no_"
    000617  aa  157 160 164 151    683  	aci	"opti"
    000620  aa  155 151 172 145    684  	aci	"mize"
                                   685  	use	utl
                        000034     686  	equ	t28,28
    001010  aa   000000 000335     687  	zero	0,4*tsl+1
    001011  aa   000014 000034     688  	zero	12,28
                                   689  "
                                   690  "	Terminal 29
                                   691  	use	utc
                        000072     692  	set	tsl,*-tc-1
    000621  aa  055 156 157 137    693  	aci	"-no_"
    000622  aa  157 164 040 040    694  	aci	"ot  "
                                   695  	use	utl
                        000035     696  	equ	t29,29
    001012  aa   000000 000351     697  	zero	0,4*tsl+1
    001013  aa   000006 000035     698  	zero	6,29
                                   699  "
                                   700  "	Terminal 30
                                   701  	use	utc
                        000074     702  	set	tsl,*-tc-1
    000623  aa  055 157 162 144    703  	aci	"-ord"
    000624  aa  145 162 137 142    704  	aci	"er_b"
    000625  aa  171 040 040 040    705  	aci	"y   "
                                   706  	use	utl
                        000036     707  	equ	t30,30
    001014  aa   000000 000361     708  	zero	0,4*tsl+1
    001015  aa   000011 000036     709  	zero	9,30
                                   710  "
                                   711  "	Terminal 31
                                   712  	use	utc
                        000077     713  	set	tsl,*-tc-1
    000626  aa  055 160 162 151    714  	aci	"-pri"
    000627  aa  156 164 137 163    715  	aci	"nt_s"
    000630  aa  145 141 162 143    716  	aci	"earc"
    000631  aa  150 137 157 162    717  	aci	"h_or"
    000632  aa  144 145 162 040    718  	aci	"der "
                                   719  	use	utl
                        000037     720  	equ	t31,31
    001016  aa   000000 000375     721  	zero	0,4*tsl+1
    001017  aa   000023 000037     722  	zero	19,31
                                   723  "
                                   724  "	Terminal 32
                                   725  	use	utc
                        000104     726  	set	tsl,*-tc-1
    000633  aa  055 160 163 157    727  	aci	"-pso"
                                   728  	use	utl
                        000040     729  	equ	t32,32
    001020  aa   000000 000421     730  	zero	0,4*tsl+1
    001021  aa   000004 000040     731  	zero	4,32
                                   732  "
                                   733  "	Terminal 33
                                   734  	use	utc
                        000105     735  	set	tsl,*-tc-1
    000634  aa  055 162 141 156    736  	aci	"-ran"
    000635  aa  147 145 040 040    737  	aci	"ge  "
                                   738  	use	utl
                        000041     739  	equ	t33,33
    001022  aa   000000 000425     740  	zero	0,4*tsl+1
    001023  aa   000006 000041     741  	zero	6,33
                                   742  "
                                   743  "	Terminal 34
                                   744  	use	utc
                        000107     745  	set	tsl,*-tc-1
    000636  aa  055 163 145 154    746  	aci	"-sel"
    000637  aa  145 143 164 040    747  	aci	"ect "
                                   748  	use	utl
                        000042     749  	equ	t34,34
    001024  aa   000000 000435     750  	zero	0,4*tsl+1
    001025  aa   000007 000042     751  	zero	7,34
                                   752  "
                                   753  "	Terminal 35
                                   754  	use	utc
                        000111     755  	set	tsl,*-tc-1
    000640  aa  055 165 156 151    756  	aci	"-uni"
    000641  aa  157 156 040 040    757  	aci	"on  "
                                   758  	use	utl
                        000043     759  	equ	t35,35
    001026  aa   000000 000445     760  	zero	0,4*tsl+1
    001027  aa   000006 000043     761  	zero	6,35
                                   762  "
                                   763  "	Terminal 36
                                   764  	use	utc
                        000113     765  	set	tsl,*-tc-1
    000642  aa  055 167 150 145    766  	aci	"-whe"
    000643  aa  162 145 040 040    767  	aci	"re  "
                                   768  	use	utl
                        000044     769  	equ	t36,36
    001030  aa   000000 000455     770  	zero	0,4*tsl+1
    001031  aa   000006 000044     771  	zero	6,36
                                   772  "
                                   773  "	Terminal 37
                                   774  	use	utc
                        000115     775  	set	tsl,*-tc-1
    000644  aa  056 040 040 040    776  	aci	".   "
                                   777  	use	utl
                        000045     778  	equ	t37,37
    001032  aa   000000 000465     779  	zero	0,4*tsl+1
    001033  aa   000001 000045     780  	zero	1,37
                                   781  "
                                   782  "	Terminal 38
                                   783  	use	utc
                        000116     784  	set	tsl,*-tc-1
    000645  aa  056 126 056 040    785  	aci	".V. "
                                   786  	use	utl
                        000046     787  	equ	t38,38
    001034  aa   000000 000471     788  	zero	0,4*tsl+1
    001035  aa   000003 000046     789  	zero	3,38
                                   790  "
                                   791  "	Terminal 39
                                   792  	use	utc
                        000117     793  	set	tsl,*-tc-1
    000646  aa  056 130 056 040    794  	aci	".X. "
                                   795  	use	utl
                        000047     796  	equ	t39,39
    001036  aa   000000 000475     797  	zero	0,4*tsl+1
    001037  aa   000003 000047     798  	zero	3,39
                                   799  "
                                   800  "	Terminal 40
                                   801  	use	utc
                        000120     802  	set	tsl,*-tc-1
    000647  aa  057 040 040 040    803  	aci	"/   "
                                   804  	use	utl
                        000050     805  	equ	t40,40
    001040  aa   000000 000501     806  	zero	0,4*tsl+1
    001041  aa   000001 000050     807  	zero	1,40
                                   808  "
                                   809  "	Terminal 41
                                   810  	use	utc
                        000121     811  	set	tsl,*-tc-1
    000650  aa  072 072 040 040    812  	aci	"::  "
                                   813  	use	utl
                        000051     814  	equ	t41,41
    001042  aa   000000 000505     815  	zero	0,4*tsl+1
    001043  aa   000002 000051     816  	zero	2,41
                                   817  "
                                   818  "	Terminal 42
                                   819  	use	utc
                        000122     820  	set	tsl,*-tc-1
    000651  aa  074 040 040 040    821  	aci	"<   "
                                   822  	use	utl
                        000052     823  	equ	t42,42
    001044  aa   000000 000511     824  	zero	0,4*tsl+1
    001045  aa   000001 000052     825  	zero	1,42
                                   826  "
                                   827  "	Terminal 43
                                   828  	use	utc
                        000123     829  	set	tsl,*-tc-1
    000652  aa  074 075 040 040    830  	aci	"<=  "
                                   831  	use	utl
                        000053     832  	equ	t43,43
    001046  aa   000000 000515     833  	zero	0,4*tsl+1
    001047  aa   000002 000053     834  	zero	2,43
                                   835  "
                                   836  "	Terminal 44
                                   837  	use	utc
                        000124     838  	set	tsl,*-tc-1
    000653  aa  074 142 151 164    839  	aci	"<bit"
    000654  aa  137 163 164 162    840  	aci	"_str"
    000655  aa  151 156 147 076    841  	aci	"ing>"
                                   842  	use	utl
                        000054     843  	equ	t44,44
    001050  aa   000000 000521     844  	zero	0,4*tsl+1
    001051  aa   000014 000054     845  	zero	12,44
                                   846  "
                                   847  "	Terminal 45
                                   848  	use	utc
                        000127     849  	set	tsl,*-tc-1
    000656  aa  074 151 156 164    850  	aci	"<int"
    000657  aa  145 147 145 162    851  	aci	"eger"
    000660  aa  076 040 040 040    852  	aci	">   "
                                   853  	use	utl
                        000055     854  	equ	t45,45
    001052  aa   000000 000535     855  	zero	0,4*tsl+1
    001053  aa   000011 000055     856  	zero	9,45
                                   857  "
                                   858  "	Terminal 46
                                   859  	use	utc
                        000132     860  	set	tsl,*-tc-1
    000661  aa  074 163 164 162    861  	aci	"<str"
    000662  aa  151 156 147 076    862  	aci	"ing>"
                                   863  	use	utl
                        000056     864  	equ	t46,46
    001054  aa   000000 000551     865  	zero	0,4*tsl+1
    001055  aa   000010 000056     866  	zero	8,46
                                   867  "
                                   868  "	Terminal 47
                                   869  	use	utc
                        000134     870  	set	tsl,*-tc-1
    000663  aa  074 163 171 155    871  	aci	"<sym"
    000664  aa  142 157 154 076    872  	aci	"bol>"
                                   873  	use	utl
                        000057     874  	equ	t47,47
    001056  aa   000000 000561     875  	zero	0,4*tsl+1
    001057  aa   000010 000057     876  	zero	8,47
                                   877  "
                                   878  "	Terminal 48
                                   879  	use	utc
                        000136     880  	set	tsl,*-tc-1
    000665  aa  075 040 040 040    881  	aci	"=   "
                                   882  	use	utl
                        000060     883  	equ	t48,48
    001060  aa   000000 000571     884  	zero	0,4*tsl+1
    001061  aa   000001 000060     885  	zero	1,48
                                   886  "
                                   887  "	Terminal 49
                                   888  	use	utc
                        000137     889  	set	tsl,*-tc-1
    000666  aa  076 040 040 040    890  	aci	">   "
                                   891  	use	utl
                        000061     892  	equ	t49,49
    001062  aa   000000 000575     893  	zero	0,4*tsl+1
    001063  aa   000001 000061     894  	zero	1,49
                                   895  "
                                   896  "	Terminal 50
                                   897  	use	utc
                        000140     898  	set	tsl,*-tc-1
    000667  aa  076 075 040 040    899  	aci	">=  "
                                   900  	use	utl
                        000062     901  	equ	t50,50
    001064  aa   000000 000601     902  	zero	0,4*tsl+1
    001065  aa   000002 000062     903  	zero	2,50
                                   904  "
                                   905  "	Terminal 51
                                   906  	use	utc
                        000141     907  	set	tsl,*-tc-1
    000670  aa  133 040 040 040    908  	aci	"[   "
                                   909  	use	utl
                        000063     910  	equ	t51,51
    001066  aa   000000 000605     911  	zero	0,4*tsl+1
    001067  aa   000001 000063     912  	zero	1,51
                                   913  "
                                   914  "	Terminal 52
                                   915  	use	utc
                        000142     916  	set	tsl,*-tc-1
    000671  aa  135 040 040 040    917  	aci	"]   "
                                   918  	use	utl
                        000064     919  	equ	t52,52
    001070  aa   000000 000611     920  	zero	0,4*tsl+1
    001071  aa   000001 000064     921  	zero	1,52
                                   922  "
                                   923  "	Terminal 53
                                   924  	use	utc
                        000143     925  	set	tsl,*-tc-1
    000672  aa  136 040 040 040    926  	aci	"^   "
                                   927  	use	utl
                        000065     928  	equ	t53,53
    001072  aa   000000 000615     929  	zero	0,4*tsl+1
    001073  aa   000001 000065     930  	zero	1,53
                                   931  "
                                   932  "	Terminal 54
                                   933  	use	utc
                        000144     934  	set	tsl,*-tc-1
    000673  aa  136 075 040 040    935  	aci	"^=  "
                                   936  	use	utl
                        000066     937  	equ	t54,54
    001074  aa   000000 000621     938  	zero	0,4*tsl+1
    001075  aa   000002 000066     939  	zero	2,54
                                   940  "
                                   941  "	Terminal 55
                                   942  	use	utc
                        000145     943  	set	tsl,*-tc-1
    000674  aa  174 040 040 040    944  	aci	"|   "
                                   945  	use	utl
                        000067     946  	equ	t55,55
    001076  aa   000000 000625     947  	zero	0,4*tsl+1
    001077  aa   000001 000067     948  	zero	1,55
                                   949  "
                                   950  "	Terminal 56
                                   951  	use	utc
                        000146     952  	set	tsl,*-tc-1
    000675  aa  174 174 040 040    953  	aci	"||  "
                                   954  	use	utl
                        000070     955  	equ	t56,56
    001100  aa   000000 000631     956  	zero	0,4*tsl+1
    001101  aa   000002 000070     957  	zero	2,56
                                   958  "
                                   959  "	Terminal 57
                                   960  	use	utc
                        000147     961  	set	tsl,*-tc-1
    000676  aa  075 074 040 040    962  	aci	"=<  "
                                   963  	use	utl
    001102  aa   000000 000635     964  	zero	0,4*tsl+1
    001103  aa   000002 000053     965  	zero	2,43
                                   966  "
                                   967  "	Terminal 58
                                   968  	use	utc
                        000150     969  	set	tsl,*-tc-1
    000677  aa  136 076 040 040    970  	aci	"^>  "
                                   971  	use	utl
    001104  aa   000020 000641     972  	zero	16,4*tsl+1
    001105  aa   000002 000053     973  	zero	2,43
                                   974  "
                                   975  "	Terminal 59
                                   976  	use	utc
                        000151     977  	set	tsl,*-tc-1
    000700  aa  136 074 076 040    978  	aci	"^<> "
                                   979  	use	utl
    001106  aa   000000 000645     980  	zero	0,4*tsl+1
    001107  aa   000003 000060     981  	zero	3,48
                                   982  "
                                   983  "	Terminal 60
                                   984  	use	utc
                        000152     985  	set	tsl,*-tc-1
    000701  aa  136 076 074 040    986  	aci	"^>< "
                                   987  	use	utl
    001110  aa   000000 000651     988  	zero	0,4*tsl+1
    001111  aa   000003 000060     989  	zero	3,48
                                   990  "
                                   991  "	Terminal 61
                                   992  	use	utc
                        000153     993  	set	tsl,*-tc-1
    000702  aa  074 076 040 040    994  	aci	"<>  "
                                   995  	use	utl
    001112  aa   000000 000655     996  	zero	0,4*tsl+1
    001113  aa   000002 000066     997  	zero	2,54
                                   998  "
                                   999  "	Terminal 62
                                  1000  	use	utc
                        000154    1001  	set	tsl,*-tc-1
    000703  aa  076 074 040 040   1002  	aci	"><  "
                                  1003  	use	utl
    001114  aa   000000 000661    1004  	zero	0,4*tsl+1
    001115  aa   000002 000066    1005  	zero	2,54
                                  1006  "
                                  1007  "	Terminal 63
                                  1008  	use	utc
                        000155    1009  	set	tsl,*-tc-1
    000704  aa  136 074 075 040   1010  	aci	"^<= "
                                  1011  	use	utl
    001116  aa   000000 000665    1012  	zero	0,4*tsl+1
    001117  aa   000003 000061    1013  	zero	3,49
                                  1014  "
                                  1015  "	Terminal 64
                                  1016  	use	utc
                        000156    1017  	set	tsl,*-tc-1
    000705  aa  136 075 074 040   1018  	aci	"^=< "
                                  1019  	use	utl
    001120  aa   000000 000671    1020  	zero	0,4*tsl+1
    001121  aa   000003 000061    1021  	zero	3,49
                                  1022  "
                                  1023  "	Terminal 65
                                  1024  	use	utc
                        000157    1025  	set	tsl,*-tc-1
    000706  aa  075 076 040 040   1026  	aci	"=>  "
                                  1027  	use	utl
    001122  aa   000000 000675    1028  	zero	0,4*tsl+1
    001123  aa   000002 000062    1029  	zero	2,50
                                  1030  "
                                  1031  "	Terminal 66
                                  1032  	use	utc
                        000160    1033  	set	tsl,*-tc-1
    000707  aa  136 074 040 040   1034  	aci	"^<  "
                                  1035  	use	utl
    001124  aa   000000 000701    1036  	zero	0,4*tsl+1
    001125  aa   000002 000062    1037  	zero	2,50
                                  1038  "
                                  1039  "	Terminal 67
                                  1040  	use	utc
                        000161    1041  	set	tsl,*-tc-1
    000710  aa  136 076 075 040   1042  	aci	"^>= "
                                  1043  	use	utl
    001126  aa   000000 000705    1044  	zero	0,4*tsl+1
    001127  aa   000003 000052    1045  	zero	3,42
                                  1046  "
                                  1047  "	Terminal 68
                                  1048  	use	utc
                        000162    1049  	set	tsl,*-tc-1
    000711  aa  136 075 076 040   1050  	aci	"^=> "
                                  1051  	use	utl
    001130  aa   000000 000711    1052  	zero	0,4*tsl+1
    001131  aa   000003 000052    1053  	zero	3,42
                                  1054  "
                                  1055  "	Terminal 69
                                  1056  	use	utc
                        000163    1057  	set	tsl,*-tc-1
    000712  aa  056 166 056 040   1058  	aci	".v. "
                                  1059  	use	utl
    001132  aa   000000 000715    1060  	zero	0,4*tsl+1
    001133  aa   000003 000046    1061  	zero	3,38
                                  1062  "
                                  1063  "	Terminal 70
                                  1064  	use	utc
                        000164    1065  	set	tsl,*-tc-1
    000713  aa  056 170 056 040   1066  	aci	".x. "
                                  1067  	use	utl
    001134  aa   000000 000721    1068  	zero	0,4*tsl+1
    001135  aa   000003 000047    1069  	zero	3,39
                                  1070  "
                                  1071  "	Terminal 71
                                  1072  	use	utc
                        000165    1073  	set	tsl,*-tc-1
    000714  aa  055 146 162 157   1074  	aci	"-fro"
    000715  aa  155 040 040 040   1075  	aci	"m   "
                                  1076  	use	utl
    001136  aa   000000 000725    1077  	zero	0,4*tsl+1
    001137  aa   000005 000041    1078  	zero	5,33
                                  1079  "
                                  1080  "	Terminal 72
                                  1081  	use	utc
                        000167    1082  	set	tsl,*-tc-1
    000716  aa  055 141 156 144   1083  	aci	"-and"
                                  1084  	use	utl
    001140  aa   000000 000735    1085  	zero	0,4*tsl+1
    001141  aa   000004 000001    1086  	zero	4,1
                                  1087  "
                                  1088  "	Terminal 73
                                  1089  	use	utc
                        000170    1090  	set	tsl,*-tc-1
    000717  aa  055 157 162 040   1091  	aci	"-or "
                                  1092  	use	utl
    001142  aa   000041 000741    1093  	zero	33,4*tsl+1
    001143  aa   000003 000067    1094  	zero	3,55
                                  1095  "
                                  1096  "	Terminal 74
                                  1097  	use	utc
                        000171    1098  	set	tsl,*-tc-1
    000720  aa  055 156 157 164   1099  	aci	"-not"
                                  1100  	use	utl
    001144  aa   000000 000745    1101  	zero	0,4*tsl+1
    001145  aa   000004 000065    1102  	zero	4,53
                                  1103  "
                                  1104  	use	utc
                        000172    1105  	equ	terminal_characters_size,*-tc-1
                                  1106  	use	utl
                        000224    1107  	equ	terminals_list_size,*-tl-1
                                  1108
                                  1109  	use	text
                                  1110  "
                                  1111  "
                                  1112  "	DPDA Table
    001146  aa   000000 003346    1113  dpda:	zero	0,dpda_size
                        001146    1114  	segdef	dpda
                                  1115  "
                                  1116  " State 1
                        000001    1117  	equ	st1,*-dpda
    001147  aa   000000 000004    1118  	zero	strd,ln1
    001150  aa   000002 000067    1119  	zero	t2,st55	"(
    001151  aa   000014 000074    1120  	zero	t12,st60	"-current
    001152  aa   000041 000077    1121  	zero	t33,st63	"-range
    001153  aa   000042 000103    1122  	zero	t34,st67	"-select
                        000004    1123  	equ	ln1,*-dpda-st1-1
                                  1124  "
                                  1125  " State 6
                        000006    1126  	equ	st6,*-dpda
    001154  aa   000000 000003    1127  	zero	strd,ln6
    001155  aa   000002 000156    1128  	zero	t2,st110	"(
    001156  aa   000005 000174    1129  	zero	t5,st124	"*
    001157  aa   000057 000203    1130  	zero	t47,st131	"<symbol>
                        000003    1131  	equ	ln6,*-dpda-st6-1
                                  1132  "
                                  1133  " State 10
                        000012    1134  	equ	st10,*-dpda
    001160  aa   000000 000001    1135  	zero	strd,ln10
    001161  aa   000041 000077    1136  	zero	t33,st63	"-range
                        000001    1137  	equ	ln10,*-dpda-st10-1
                                  1138  "
                                  1139  " State 12
                        000014    1140  	equ	st12,*-dpda
    001162  aa   000000 000001    1141  	zero	strd,ln12
    001163  aa   000042 000103    1142  	zero	t34,st67	"-select
                        000001    1143  	equ	ln12,*-dpda-st12-1
                                  1144  "
                                  1145  " State 14
                        000016    1146  	equ	st14,*-dpda
    001164  aa   000011 000010    1147  	zero	nsrd,ln14
    001165  aa   000000 775064    1148  	zero	t0,-st1484	"EOI
    001166  aa   000004 775064    1149  	zero	t4,-st1484	")
    001167  aa   000016 775064    1150  	zero	t14,-st1484	"-differ
    001170  aa   000021 775067    1151  	zero	t17,-st1481	"-group_by
    001171  aa   000023 775064    1152  	zero	t19,-st1484	"-inter
    001172  aa   000036 775064    1153  	zero	t30,-st1484	"-order_by
    001173  aa   000043 775064    1154  	zero	t35,-st1484	"-union
    001174  aa   000044 775067    1155  	zero	t36,-st1481	"-where
                        000010    1156  	equ	ln14,*-dpda-st14-1
                                  1157  "
                                  1158  " State 23
                        000027    1159  	equ	st23,*-dpda
    001175  aa   000013 000003    1160  	zero	aplyp,ln23
    001176  aa   000000 000000    1161  	zero	0,0   sd/RFU
    001177  aa   000014 000036    1162  	zero	12,st30	prod/val
    001200  aa   000073 000045    1163  	zero	st59,st37
                        000003    1164  	equ	ln23,*-dpda-st23-1
                                  1165  "
                                  1166  " State 27
                        000033    1167  	equ	st27,*-dpda
    001201  aa   000015 000002    1168  	zero	aplyps,ln27
    001202  aa   000002 000002    1169  	zero	2,2   sd/RFU
    001203  aa   000015 000027    1170  	zero	13,st23	prod/val
                        000002    1171  	equ	ln27,*-dpda-st27-1
                                  1172  "
                                  1173  " State 30
                        000036    1174  	equ	st30,*-dpda
    001204  aa   000013 000006    1175  	zero	aplyp,ln30
    001205  aa   000000 000000    1176  	zero	0,0   sd/RFU
    001206  aa   000007 002020    1177  	zero	7,st1040	prod/val
    001207  aa   000001 000050    1178  	zero	st1,st40
    001210  aa   000067 000301    1179  	zero	st55,st193
    001211  aa   001351 002450    1180  	zero	st745,st1320
    001212  aa   002551 000301    1181  	zero	st1385,st193
                        000006    1182  	equ	ln30,*-dpda-st30-1
                                  1183  "
                                  1184  " State 37
                        000045    1185  	equ	st37,*-dpda
    001213  aa   000015 000002    1186  	zero	aplyps,ln37
    001214  aa   000002 000002    1187  	zero	2,2   sd/RFU
    001215  aa   000010 000036    1188  	zero	8,st30	prod/val
                        000002    1189  	equ	ln37,*-dpda-st37-1
                                  1190  "
                                  1191  " State 40
                        000050    1192  	equ	st40,*-dpda
    001216  aa   000011 000005    1193  	zero	nsrd,ln40
    001217  aa   000000 775054    1194  	zero	t0,-st1492	"EOI
    001220  aa   000016 775061    1195  	zero	t14,-st1487	"-differ
    001221  aa   000023 775061    1196  	zero	t19,-st1487	"-inter
    001222  aa   000036 775061    1197  	zero	t30,-st1487	"-order_by
    001223  aa   000043 775061    1198  	zero	t35,-st1487	"-union
                        000005    1199  	equ	ln40,*-dpda-st40-1
                                  1200  "
                                  1201  " State 46
                        000056    1202  	equ	st46,*-dpda
    001224  aa   000011 000003    1203  	zero	nsrd,ln46
    001225  aa   000000 775044    1204  	zero	t0,-st1500	"EOI
    001226  aa   000002 775051    1205  	zero	t2,-st1495	"(
    001227  aa   000057 775051    1206  	zero	t47,-st1495	"<symbol>
                        000003    1207  	equ	ln46,*-dpda-st46-1
                                  1208  "
                                  1209  " State 50
                        000062    1210  	equ	st50,*-dpda
    001230  aa   000014 000002    1211  	zero	aplyp1,ln50
    001231  aa   000000 000000    1212  	zero	0,0   sd/RFU
    001232  aa   000001 000065    1213  	zero	1,st53	prod/val
                        000002    1214  	equ	ln50,*-dpda-st50-1
                                  1215  "
                                  1216  " State 53
                        000065    1217  	equ	st53,*-dpda
    001233  aa   000000 000001    1218  	zero	strd,ln53
    001234  aa   000000 000000    1219  	zero	t0,st0	"EOI
                        000001    1220  	equ	ln53,*-dpda-st53-1
                                  1221  "
                                  1222  " State 55
                        000067    1223  	equ	st55,*-dpda
    001235  aa   000000 000003    1224  	zero	strd,ln55
    001236  aa   000002 000067    1225  	zero	t2,st55	"(
    001237  aa   000041 000077    1226  	zero	t33,st63	"-range
    001240  aa   000042 000103    1227  	zero	t34,st67	"-select
                        000003    1228  	equ	ln55,*-dpda-st55-1
                                  1229  "
                                  1230  " State 59
                        000073    1231  	equ	st59,*-dpda
    001241  aa   000002 000067    1232  	zero	strds,st55
                                  1233
                                  1234  "
                                  1235  " State 60
                        000074    1236  	equ	st60,*-dpda
    001242  aa   000014 000002    1237  	zero	aplyp1,ln60
    001243  aa   000000 000000    1238  	zero	0,0   sd/RFU
    001244  aa   000006 000056    1239  	zero	6,st46	prod/val
                        000002    1240  	equ	ln60,*-dpda-st60-1
                                  1241  "
                                  1242  " State 63
                        000077    1243  	equ	st63,*-dpda
    001245  aa   000000 000003    1244  	zero	strd,ln63
    001246  aa   000002 000414    1245  	zero	t2,st268	"(
    001247  aa   000046 000417    1246  	zero	t38,st271	".V.
    001250  aa   000057 000442    1247  	zero	t47,st290	"<symbol>
                        000003    1248  	equ	ln63,*-dpda-st63-1
                                  1249  "
                                  1250  " State 67
                        000103    1251  	equ	st67,*-dpda
    001251  aa   000011 000005    1252  	zero	nsrd,ln67
    001252  aa   000002 775036    1253  	zero	t2,-st1506	"(
    001253  aa   000005 775036    1254  	zero	t5,-st1506	"*
    001254  aa   000017 775041    1255  	zero	t15,-st1503	"-distinct
    001255  aa   000020 775041    1256  	zero	t16,-st1503	"-dup
    001256  aa   000057 775036    1257  	zero	t47,-st1506	"<symbol>
                        000005    1258  	equ	ln67,*-dpda-st67-1
                                  1259  "
                                  1260  " State 73
                        000111    1261  	equ	st73,*-dpda
    001257  aa   000014 000002    1262  	zero	aplyp1,ln73
    001260  aa   000000 000000    1263  	zero	0,0   sd/RFU
    001261  aa   000065 000116    1264  	zero	53,st78	prod/val
                        000002    1265  	equ	ln73,*-dpda-st73-1
                                  1266  "
                                  1267  " State 76
                        000114    1268  	equ	st76,*-dpda
    001262  aa   000000 000001    1269  	zero	strd,ln76
    001263  aa   000045 000466    1270  	zero	t37,st310	".
                        000001    1271  	equ	ln76,*-dpda-st76-1
                                  1272  "
                                  1273  " State 78
                        000116    1274  	equ	st78,*-dpda
    001264  aa   000011 000014    1275  	zero	nsrd,ln78
    001265  aa   000000 776302    1276  	zero	t0,-st830	"EOI
    001266  aa   000002 776302    1277  	zero	t2,-st830	"(
    001267  aa   000004 776302    1278  	zero	t4,-st830	")
    001270  aa   000016 776302    1279  	zero	t14,-st830	"-differ
    001271  aa   000021 776302    1280  	zero	t17,-st830	"-group_by
    001272  aa   000023 776302    1281  	zero	t19,-st830	"-inter
    001273  aa   000036 776302    1282  	zero	t30,-st830	"-order_by
    001274  aa   000041 776302    1283  	zero	t33,-st830	"-range
    001275  aa   000043 776302    1284  	zero	t35,-st830	"-union
    001276  aa   000044 776302    1285  	zero	t36,-st830	"-where
    001277  aa   000051 775033    1286  	zero	t41,-st1509	"::
    001300  aa   000057 776302    1287  	zero	t47,-st830	"<symbol>
                        000014    1288  	equ	ln78,*-dpda-st78-1
                                  1289  "
                                  1290  " State 91
                        000133    1291  	equ	st91,*-dpda
    001301  aa   000013 000003    1292  	zero	aplyp,ln91
    001302  aa   000000 000000    1293  	zero	0,0   sd/RFU
    001303  aa   000061 000142    1294  	zero	49,st98	prod/val
    001304  aa   002727 000275    1295  	zero	st1495,st189
                        000003    1296  	equ	ln91,*-dpda-st91-1
                                  1297  "
                                  1298  " State 95
                        000137    1299  	equ	st95,*-dpda
    001305  aa   000015 000002    1300  	zero	aplyps,ln95
    001306  aa   000001 000001    1301  	zero	1,1   sd/RFU
    001307  aa   000062 000133    1302  	zero	50,st91	prod/val
                        000002    1303  	equ	ln95,*-dpda-st95-1
                                  1304  "
                                  1305  " State 98
                        000142    1306  	equ	st98,*-dpda
    001310  aa   000011 000013    1307  	zero	nsrd,ln98
    001311  aa   000000 777600    1308  	zero	t0,-st128	"EOI
    001312  aa   000002 775046    1309  	zero	t2,-st1498	"(
    001313  aa   000004 777600    1310  	zero	t4,-st128	")
    001314  aa   000016 777600    1311  	zero	t14,-st128	"-differ
    001315  aa   000021 777600    1312  	zero	t17,-st128	"-group_by
    001316  aa   000023 777600    1313  	zero	t19,-st128	"-inter
    001317  aa   000036 777600    1314  	zero	t30,-st128	"-order_by
    001320  aa   000041 777600    1315  	zero	t33,-st128	"-range
    001321  aa   000043 777600    1316  	zero	t35,-st128	"-union
    001322  aa   000044 777600    1317  	zero	t36,-st128	"-where
    001323  aa   000057 775046    1318  	zero	t47,-st1498	"<symbol>
                        000013    1319  	equ	ln98,*-dpda-st98-1
                                  1320  "
                                  1321  " State 110
                        000156    1322  	equ	st110,*-dpda
    001324  aa   000000 000007    1323  	zero	strd,ln110
    001325  aa   000002 000170    1324  	zero	t2,st120	"(
    001326  aa   000006 000631    1325  	zero	t6,st409	"+
    001327  aa   000010 000662    1326  	zero	t8,st434	"-
    001330  aa   000054 000665    1327  	zero	t44,st437	"<bit_string>
    001331  aa   000055 000716    1328  	zero	t45,st462	"<integer>
    001332  aa   000056 000721    1329  	zero	t46,st465	"<string>
    001333  aa   000057 000724    1330  	zero	t47,st468	"<symbol>
                        000007    1331  	equ	ln110,*-dpda-st110-1
                                  1332  "
                                  1333  " State 118
                        000166    1334  	equ	st118,*-dpda
    001334  aa   000002 000156    1335  	zero	strds,st110
                                  1336
                                  1337  "
                                  1338  " State 119
                        000167    1339  	equ	st119,*-dpda
    001335  aa   000002 000156    1340  	zero	strds,st110
                                  1341
                                  1342  "
                                  1343  " State 120
                        000170    1344  	equ	st120,*-dpda
    001336  aa   000002 000156    1345  	zero	strds,st110
                                  1346
                                  1347  "
                                  1348  " State 121
                        000171    1349  	equ	st121,*-dpda
    001337  aa   000002 000156    1350  	zero	strds,st110
                                  1351
                                  1352  "
                                  1353  " State 122
                        000172    1354  	equ	st122,*-dpda
    001340  aa   000002 000156    1355  	zero	strds,st110
                                  1356
                                  1357  "
                                  1358  " State 123
                        000173    1359  	equ	st123,*-dpda
    001341  aa   000002 000156    1360  	zero	strds,st110
                                  1361
                                  1362  "
                                  1363  " State 124
                        000174    1364  	equ	st124,*-dpda
    001342  aa   000013 000003    1365  	zero	aplyp,ln124
    001343  aa   000001 000001    1366  	zero	1,1   sd/RFU
    001344  aa   000054 000012    1367  	zero	44,st10	prod/val
    001345  aa   000014 000224    1368  	zero	st12,st148
                        000003    1369  	equ	ln124,*-dpda-st124-1
                                  1370  "
                                  1371  " State 128
                        000200    1372  	equ	st128,*-dpda
    001346  aa   000015 000002    1373  	zero	aplyps,ln128
    001347  aa   000001 000001    1374  	zero	1,1   sd/RFU
    001350  aa   000055 000174    1375  	zero	45,st124	prod/val
                        000002    1376  	equ	ln128,*-dpda-st128-1
                                  1377  "
                                  1378  " State 131
                        000203    1379  	equ	st131,*-dpda
    001351  aa   000011 000015    1380  	zero	nsrd,ln131
    001352  aa   000000 776322    1381  	zero	t0,-st814	"EOI
    001353  aa   000002 776322    1382  	zero	t2,-st814	"(
    001354  aa   000004 776322    1383  	zero	t4,-st814	")
    001355  aa   000016 776322    1384  	zero	t14,-st814	"-differ
    001356  aa   000021 776322    1385  	zero	t17,-st814	"-group_by
    001357  aa   000023 776322    1386  	zero	t19,-st814	"-inter
    001360  aa   000036 776322    1387  	zero	t30,-st814	"-order_by
    001361  aa   000041 776322    1388  	zero	t33,-st814	"-range
    001362  aa   000043 776322    1389  	zero	t35,-st814	"-union
    001363  aa   000044 776322    1390  	zero	t36,-st814	"-where
    001364  aa   000045 775652    1391  	zero	t37,-st1110	".
    001365  aa   000051 776322    1392  	zero	t41,-st814	"::
    001366  aa   000057 776322    1393  	zero	t47,-st814	"<symbol>
                        000015    1394  	equ	ln131,*-dpda-st131-1
                                  1395  "
                                  1396  " State 145
                        000221    1397  	equ	st145,*-dpda
    001367  aa   000014 000002    1398  	zero	aplyp1,ln145
    001370  aa   000001 000001    1399  	zero	1,1   sd/RFU
    001371  aa   000021 000016    1400  	zero	17,st14	prod/val
                        000002    1401  	equ	ln145,*-dpda-st145-1
                                  1402  "
                                  1403  " State 148
                        000224    1404  	equ	st148,*-dpda
    001372  aa   000014 000002    1405  	zero	aplyp1,ln148
    001373  aa   000001 000001    1406  	zero	1,1   sd/RFU
    001374  aa   000020 000016    1407  	zero	16,st14	prod/val
                        000002    1408  	equ	ln148,*-dpda-st148-1
                                  1409  "
                                  1410  " State 151
                        000227    1411  	equ	st151,*-dpda
    001375  aa   000011 000007    1412  	zero	nsrd,ln151
    001376  aa   000000 775027    1413  	zero	t0,-st1513	"EOI
    001377  aa   000004 775027    1414  	zero	t4,-st1513	")
    001400  aa   000016 775027    1415  	zero	t14,-st1513	"-differ
    001401  aa   000021 775031    1416  	zero	t17,-st1511	"-group_by
    001402  aa   000023 775027    1417  	zero	t19,-st1513	"-inter
    001403  aa   000036 775027    1418  	zero	t30,-st1513	"-order_by
    001404  aa   000043 775027    1419  	zero	t35,-st1513	"-union
                        000007    1420  	equ	ln151,*-dpda-st151-1
                                  1421  "
                                  1422  " State 159
                        000237    1423  	equ	st159,*-dpda
    001405  aa   000014 000002    1424  	zero	aplyp1,ln159
    001406  aa   000000 000000    1425  	zero	0,0   sd/RFU
    001407  aa   000023 000242    1426  	zero	19,st162	prod/val
                        000002    1427  	equ	ln159,*-dpda-st159-1
                                  1428  "
                                  1429  " State 162
                        000242    1430  	equ	st162,*-dpda
    001410  aa   000014 000002    1431  	zero	aplyp1,ln162
    001411  aa   000001 000001    1432  	zero	1,1   sd/RFU
    001412  aa   000017 000027    1433  	zero	15,st23	prod/val
                        000002    1434  	equ	ln162,*-dpda-st162-1
                                  1435  "
                                  1436  " State 165
                        000245    1437  	equ	st165,*-dpda
    001413  aa   000000 000013    1438  	zero	strd,ln165
    001414  aa   000002 001333    1439  	zero	t2,st731	"(
    001415  aa   000006 000631    1440  	zero	t6,st409	"+
    001416  aa   000010 000662    1441  	zero	t8,st434	"-
    001417  aa   000046 000417    1442  	zero	t38,st271	".V.
    001420  aa   000047 001352    1443  	zero	t39,st746	".X.
    001421  aa   000054 000665    1444  	zero	t44,st437	"<bit_string>
    001422  aa   000055 000716    1445  	zero	t45,st462	"<integer>
    001423  aa   000056 000721    1446  	zero	t46,st465	"<string>
    001424  aa   000057 000724    1447  	zero	t47,st468	"<symbol>
    001425  aa   000063 001364    1448  	zero	t51,st756	"[
    001426  aa   000065 001374    1449  	zero	t53,st764	"^
                        000013    1450  	equ	ln165,*-dpda-st165-1
                                  1451  "
                                  1452  " State 177
                        000261    1453  	equ	st177,*-dpda
    001427  aa   000002 000245    1454  	zero	strds,st165
                                  1455
                                  1456  "
                                  1457  " State 178
                        000262    1458  	equ	st178,*-dpda
    001430  aa   000002 000245    1459  	zero	strds,st165
                                  1460
                                  1461  "
                                  1462  " State 179
                        000263    1463  	equ	st179,*-dpda
    001431  aa   000002 000245    1464  	zero	strds,st165
                                  1465
                                  1466  "
                                  1467  " State 180
                        000264    1468  	equ	st180,*-dpda
    001432  aa   000014 000002    1469  	zero	aplyp1,ln180
    001433  aa   000000 000000    1470  	zero	0,0   sd/RFU
    001434  aa   000013 000073    1471  	zero	11,st59	prod/val
                        000002    1472  	equ	ln180,*-dpda-st180-1
                                  1473  "
                                  1474  " State 183
                        000267    1475  	equ	st183,*-dpda
    001435  aa   000014 000002    1476  	zero	aplyp1,ln183
    001436  aa   000000 000000    1477  	zero	0,0   sd/RFU
    001437  aa   000012 000073    1478  	zero	10,st59	prod/val
                        000002    1479  	equ	ln183,*-dpda-st183-1
                                  1480  "
                                  1481  " State 186
                        000272    1482  	equ	st186,*-dpda
    001440  aa   000014 000002    1483  	zero	aplyp1,ln186
    001441  aa   000000 000000    1484  	zero	0,0   sd/RFU
    001442  aa   000011 000073    1485  	zero	9,st59	prod/val
                        000002    1486  	equ	ln186,*-dpda-st186-1
                                  1487  "
                                  1488  " State 189
                        000275    1489  	equ	st189,*-dpda
    001443  aa   000011 000003    1490  	zero	nsrd,ln189
    001444  aa   000000 775024    1491  	zero	t0,-st1516	"EOI
    001445  aa   000002 775045    1492  	zero	t2,-st1499	"(
    001446  aa   000057 775045    1493  	zero	t47,-st1499	"<symbol>
                        000003    1494  	equ	ln189,*-dpda-st189-1
                                  1495  "
                                  1496  " State 193
                        000301    1497  	equ	st193,*-dpda
    001447  aa   000000 000004    1498  	zero	strd,ln193
    001450  aa   000004 000033    1499  	zero	t4,st27	")
    001451  aa   000016 000264    1500  	zero	t14,st180	"-differ
    001452  aa   000023 000267    1501  	zero	t19,st183	"-inter
    001453  aa   000043 000272    1502  	zero	t35,st186	"-union
                        000004    1503  	equ	ln193,*-dpda-st193-1
                                  1504  "
                                  1505  " State 198
                        000306    1506  	equ	st198,*-dpda
    001454  aa   000002 000301    1507  	zero	strds,st193
                                  1508
                                  1509  "
                                  1510  " State 199
                        000307    1511  	equ	st199,*-dpda
    001455  aa   000013 000003    1512  	zero	aplyp,ln199
    001456  aa   000000 000000    1513  	zero	0,0   sd/RFU
    001457  aa   000051 000323    1514  	zero	41,st211	prod/val
    001460  aa   001437 002147    1515  	zero	st799,st1127
                        000003    1516  	equ	ln199,*-dpda-st199-1
                                  1517  "
                                  1518  " State 203
                        000313    1519  	equ	st203,*-dpda
    001461  aa   000015 000002    1520  	zero	aplyps,ln203
    001462  aa   000000 000000    1521  	zero	0,0   sd/RFU
    001463  aa   000052 000307    1522  	zero	42,st199	prod/val
                        000002    1523  	equ	ln203,*-dpda-st203-1
                                  1524  "
                                  1525  " State 206
                        000316    1526  	equ	st206,*-dpda
    001464  aa   000015 000002    1527  	zero	aplyps,ln206
    001465  aa   000002 000002    1528  	zero	2,2   sd/RFU
    001466  aa   000053 000307    1529  	zero	43,st199	prod/val
                        000002    1530  	equ	ln206,*-dpda-st206-1
                                  1531  "
                                  1532  " State 209
                        000321    1533  	equ	st209,*-dpda
    001467  aa   000000 000001    1534  	zero	strd,ln209
    001470  aa   000045 001411    1535  	zero	t37,st777	".
                        000001    1536  	equ	ln209,*-dpda-st209-1
                                  1537  "
                                  1538  " State 211
                        000323    1539  	equ	st211,*-dpda
    001471  aa   000011 000014    1540  	zero	nsrd,ln211
    001472  aa   000000 775021    1541  	zero	t0,-st1519	"EOI
    001473  aa   000003 775021    1542  	zero	t3,-st1519	"(+)
    001474  aa   000004 775021    1543  	zero	t4,-st1519	")
    001475  aa   000007 775021    1544  	zero	t7,-st1519	",
    001476  aa   000016 775021    1545  	zero	t14,-st1519	"-differ
    001477  aa   000021 775021    1546  	zero	t17,-st1519	"-group_by
    001500  aa   000023 775021    1547  	zero	t19,-st1519	"-inter
    001501  aa   000036 775021    1548  	zero	t30,-st1519	"-order_by
    001502  aa   000042 775021    1549  	zero	t34,-st1519	"-select
    001503  aa   000043 775021    1550  	zero	t35,-st1519	"-union
    001504  aa   000044 775021    1551  	zero	t36,-st1519	"-where
    001505  aa   000057 777362    1552  	zero	t47,-st270	"<symbol>
                        000014    1553  	equ	ln211,*-dpda-st211-1
                                  1554  "
                                  1555  " State 224
                        000340    1556  	equ	st224,*-dpda
    001506  aa   000014 000002    1557  	zero	aplyp1,ln224
    001507  aa   000000 000000    1558  	zero	0,0   sd/RFU
    001510  aa   000046 000343    1559  	zero	38,st227	prod/val
                        000002    1560  	equ	ln224,*-dpda-st224-1
                                  1561  "
                                  1562  " State 227
                        000343    1563  	equ	st227,*-dpda
    001511  aa   000011 000012    1564  	zero	nsrd,ln227
    001512  aa   000000 775014    1565  	zero	t0,-st1524	"EOI
    001513  aa   000002 775016    1566  	zero	t2,-st1522	"(
    001514  aa   000004 775014    1567  	zero	t4,-st1524	")
    001515  aa   000016 775014    1568  	zero	t14,-st1524	"-differ
    001516  aa   000021 775014    1569  	zero	t17,-st1524	"-group_by
    001517  aa   000023 775014    1570  	zero	t19,-st1524	"-inter
    001520  aa   000036 775014    1571  	zero	t30,-st1524	"-order_by
    001521  aa   000042 775014    1572  	zero	t34,-st1524	"-select
    001522  aa   000043 775014    1573  	zero	t35,-st1524	"-union
    001523  aa   000044 775014    1574  	zero	t36,-st1524	"-where
                        000012    1575  	equ	ln227,*-dpda-st227-1
                                  1576  "
                                  1577  " State 238
                        000356    1578  	equ	st238,*-dpda
    001524  aa   000011 000013    1579  	zero	nsrd,ln238
    001525  aa   000000 776347    1580  	zero	t0,-st793	"EOI
    001526  aa   000003 775011    1581  	zero	t3,-st1527	"(+)
    001527  aa   000004 776347    1582  	zero	t4,-st793	")
    001530  aa   000007 776347    1583  	zero	t7,-st793	",
    001531  aa   000016 776347    1584  	zero	t14,-st793	"-differ
    001532  aa   000021 776347    1585  	zero	t17,-st793	"-group_by
    001533  aa   000023 776347    1586  	zero	t19,-st793	"-inter
    001534  aa   000036 776347    1587  	zero	t30,-st793	"-order_by
    001535  aa   000042 776347    1588  	zero	t34,-st793	"-select
    001536  aa   000043 776347    1589  	zero	t35,-st793	"-union
    001537  aa   000044 776347    1590  	zero	t36,-st793	"-where
                        000013    1591  	equ	ln238,*-dpda-st238-1
                                  1592  "
                                  1593  " State 250
                        000372    1594  	equ	st250,*-dpda
    001540  aa   000014 000002    1595  	zero	aplyp1,ln250
    001541  aa   000000 000000    1596  	zero	0,0   sd/RFU
    001542  aa   000040 000375    1597  	zero	32,st253	prod/val
                        000002    1598  	equ	ln250,*-dpda-st250-1
                                  1599  "
                                  1600  " State 253
                        000375    1601  	equ	st253,*-dpda
    001543  aa   000011 000012    1602  	zero	nsrd,ln253
    001544  aa   000000 775005    1603  	zero	t0,-st1531	"EOI
    001545  aa   000004 775005    1604  	zero	t4,-st1531	")
    001546  aa   000007 775007    1605  	zero	t7,-st1529	",
    001547  aa   000016 775005    1606  	zero	t14,-st1531	"-differ
    001550  aa   000021 775005    1607  	zero	t17,-st1531	"-group_by
    001551  aa   000023 775005    1608  	zero	t19,-st1531	"-inter
    001552  aa   000036 775005    1609  	zero	t30,-st1531	"-order_by
    001553  aa   000042 775005    1610  	zero	t34,-st1531	"-select
    001554  aa   000043 775005    1611  	zero	t35,-st1531	"-union
    001555  aa   000044 775005    1612  	zero	t36,-st1531	"-where
                        000012    1613  	equ	ln253,*-dpda-st253-1
                                  1614  "
                                  1615  " State 264
                        000410    1616  	equ	st264,*-dpda
    001556  aa   000013 000003    1617  	zero	aplyp,ln264
    001557  aa   000001 000001    1618  	zero	1,1   sd/RFU
    001560  aa   000035 000014    1619  	zero	29,st12	prod/val
    001561  aa   000012 000221    1620  	zero	st10,st145
                        000003    1621  	equ	ln264,*-dpda-st264-1
                                  1622  "
                                  1623  " State 268
                        000414    1624  	equ	st268,*-dpda
    001562  aa   000000 000001    1625  	zero	strd,ln268
    001563  aa   000057 001416    1626  	zero	t47,st782	"<symbol>
                        000001    1627  	equ	ln268,*-dpda-st268-1
                                  1628  "
                                  1629  " State 270
                        000416    1630  	equ	st270,*-dpda
    001564  aa   000002 000414    1631  	zero	strds,st268
                                  1632
                                  1633  "
                                  1634  " State 271
                        000417    1635  	equ	st271,*-dpda
    001565  aa   000013 000022    1636  	zero	aplyp,ln271
    001566  aa   000000 000000    1637  	zero	0,0   sd/RFU
    001567  aa   000242 001021    1638  	zero	162,st529	prod/val
    001570  aa   000077 000313    1639  	zero	st63,st203
    001571  aa   001333 001724    1640  	zero	st731,st980
    001572  aa   001351 001724    1641  	zero	st745,st980
    001573  aa   001364 002031    1642  	zero	st756,st1049
    001574  aa   001373 002031    1643  	zero	st763,st1049
    001575  aa   001434 000313    1644  	zero	st796,st203
    001576  aa   001437 000313    1645  	zero	st799,st203
    001577  aa   002100 002031    1646  	zero	st1088,st1049
    001600  aa   002107 002031    1647  	zero	st1095,st1049
    001601  aa   002110 002031    1648  	zero	st1096,st1049
    001602  aa   002402 001724    1649  	zero	st1282,st980
    001603  aa   002416 002543    1650  	zero	st1294,st1379
    001604  aa   002441 002543    1651  	zero	st1313,st1379
    001605  aa   002447 002543    1652  	zero	st1319,st1379
    001606  aa   002455 002576    1653  	zero	st1325,st1406
    001607  aa   002621 002576    1654  	zero	st1425,st1406
                        000022    1655  	equ	ln271,*-dpda-st271-1
                                  1656  "
                                  1657  " State 290
                        000442    1658  	equ	st290,*-dpda
    001610  aa   000011 000015    1659  	zero	nsrd,ln290
    001611  aa   000000 775652    1660  	zero	t0,-st1110	"EOI
    001612  aa   000003 775652    1661  	zero	t3,-st1110	"(+)
    001613  aa   000004 775652    1662  	zero	t4,-st1110	")
    001614  aa   000007 775652    1663  	zero	t7,-st1110	",
    001615  aa   000016 775652    1664  	zero	t14,-st1110	"-differ
    001616  aa   000021 775652    1665  	zero	t17,-st1110	"-group_by
    001617  aa   000023 775652    1666  	zero	t19,-st1110	"-inter
    001620  aa   000036 775652    1667  	zero	t30,-st1110	"-order_by
    001621  aa   000042 775652    1668  	zero	t34,-st1110	"-select
    001622  aa   000043 775652    1669  	zero	t35,-st1110	"-union
    001623  aa   000044 775652    1670  	zero	t36,-st1110	"-where
    001624  aa   000045 775002    1671  	zero	t37,-st1534	".
    001625  aa   000057 775652    1672  	zero	t47,-st1110	"<symbol>
                        000015    1673  	equ	ln290,*-dpda-st290-1
                                  1674  "
                                  1675  " State 304
                        000460    1676  	equ	st304,*-dpda
    001626  aa   000014 000002    1677  	zero	aplyp1,ln304
    001627  aa   000001 000001    1678  	zero	1,1   sd/RFU
    001630  aa   000057 000006    1679  	zero	47,st6	prod/val
                        000002    1680  	equ	ln304,*-dpda-st304-1
                                  1681  "
                                  1682  " State 307
                        000463    1683  	equ	st307,*-dpda
    001631  aa   000014 000002    1684  	zero	aplyp1,ln307
    001632  aa   000001 000001    1685  	zero	1,1   sd/RFU
    001633  aa   000060 000006    1686  	zero	48,st6	prod/val
                        000002    1687  	equ	ln307,*-dpda-st307-1
                                  1688  "
                                  1689  " State 310
                        000466    1690  	equ	st310,*-dpda
    001634  aa   000000 000001    1691  	zero	strd,ln310
    001635  aa   000057 001456    1692  	zero	t47,st814	"<symbol>
                        000001    1693  	equ	ln310,*-dpda-st310-1
                                  1694  "
                                  1695  " State 312
                        000470    1696  	equ	st312,*-dpda
    001636  aa   000000 000001    1697  	zero	strd,ln312
    001637  aa   000057 001501    1698  	zero	t47,st833	"<symbol>
                        000001    1699  	equ	ln312,*-dpda-st312-1
                                  1700  "
                                  1701  " State 314
                        000472    1702  	equ	st314,*-dpda
    001640  aa   000000 000001    1703  	zero	strd,ln314
    001641  aa   000002 001504    1704  	zero	t2,st836	"(
                        000001    1705  	equ	ln314,*-dpda-st314-1
                                  1706  "
                                  1707  " State 316
                        000474    1708  	equ	st316,*-dpda
    001642  aa   000013 000022    1709  	zero	aplyp,ln316
    001643  aa   000000 000000    1710  	zero	0,0   sd/RFU
    001644  aa   000216 001031    1711  	zero	142,st537	prod/val
    001645  aa   000156 000543    1712  	zero	st110,st355
    001646  aa   000166 000543    1713  	zero	st118,st355
    001647  aa   000167 000543    1714  	zero	st119,st355
    001650  aa   000170 000543    1715  	zero	st120,st355
    001651  aa   000171 000543    1716  	zero	st121,st355
    001652  aa   000172 000543    1717  	zero	st122,st355
    001653  aa   000173 000543    1718  	zero	st123,st355
    001654  aa   000245 001065    1719  	zero	st165,st565
    001655  aa   000261 001065    1720  	zero	st177,st565
    001656  aa   000262 001065    1721  	zero	st178,st565
    001657  aa   000263 001065    1722  	zero	st179,st565
    001660  aa   000527 000543    1723  	zero	st343,st355
    001661  aa   000535 000543    1724  	zero	st349,st355
    001662  aa   001042 001065    1725  	zero	st546,st565
    001663  aa   001333 001065    1726  	zero	st731,st565
    001664  aa   001351 001065    1727  	zero	st745,st565
                        000022    1728  	equ	ln316,*-dpda-st316-1
                                  1729  "
                                  1730  " State 335
                        000517    1731  	equ	st335,*-dpda
    001665  aa   000015 000002    1732  	zero	aplyps,ln335
    001666  aa   000002 000002    1733  	zero	2,2   sd/RFU
    001667  aa   000217 000474    1734  	zero	143,st316	prod/val
                        000002    1735  	equ	ln335,*-dpda-st335-1
                                  1736  "
                                  1737  " State 338
                        000522    1738  	equ	st338,*-dpda
    001670  aa   000015 000002    1739  	zero	aplyps,ln338
    001671  aa   000004 000004    1740  	zero	4,4   sd/RFU
    001672  aa   000220 000474    1741  	zero	144,st316	prod/val
                        000002    1742  	equ	ln338,*-dpda-st338-1
                                  1743  "
                                  1744  " State 341
                        000525    1745  	equ	st341,*-dpda
    001673  aa   000000 000001    1746  	zero	strd,ln341
    001674  aa   000045 001523    1747  	zero	t37,st851	".
                        000001    1748  	equ	ln341,*-dpda-st341-1
                                  1749  "
                                  1750  " State 343
                        000527    1751  	equ	st343,*-dpda
    001675  aa   000000 000005    1752  	zero	strd,ln343
    001676  aa   000002 000170    1753  	zero	t2,st120	"(
    001677  aa   000054 000665    1754  	zero	t44,st437	"<bit_string>
    001700  aa   000055 000716    1755  	zero	t45,st462	"<integer>
    001701  aa   000056 000721    1756  	zero	t46,st465	"<string>
    001702  aa   000057 000724    1757  	zero	t47,st468	"<symbol>
                        000005    1758  	equ	ln343,*-dpda-st343-1
                                  1759  "
                                  1760  " State 349
                        000535    1761  	equ	st349,*-dpda
    001703  aa   000002 000527    1762  	zero	strds,st343
                                  1763
                                  1764  "
                                  1765  " State 350
                        000536    1766  	equ	st350,*-dpda
    001704  aa   000013 000004    1767  	zero	aplyp,ln350
    001705  aa   000000 000000    1768  	zero	0,0   sd/RFU
    001706  aa   000160 000554    1769  	zero	112,st364	prod/val
    001707  aa   000527 000560    1770  	zero	st343,st368
    001710  aa   000535 000563    1771  	zero	st349,st371
                        000004    1772  	equ	ln350,*-dpda-st350-1
                                  1773  "
                                  1774  " State 355
                        000543    1775  	equ	st355,*-dpda
    001711  aa   000015 000002    1776  	zero	aplyps,ln355
    001712  aa   000000 000000    1777  	zero	0,0   sd/RFU
    001713  aa   000155 000536    1778  	zero	109,st350	prod/val
                        000002    1779  	equ	ln355,*-dpda-st355-1
                                  1780  "
                                  1781  " State 358
                        000546    1782  	equ	st358,*-dpda
    001714  aa   000015 000002    1783  	zero	aplyps,ln358
    001715  aa   000000 000000    1784  	zero	0,0   sd/RFU
    001716  aa   000156 000536    1785  	zero	110,st350	prod/val
                        000002    1786  	equ	ln358,*-dpda-st358-1
                                  1787  "
                                  1788  " State 361
                        000551    1789  	equ	st361,*-dpda
    001717  aa   000015 000002    1790  	zero	aplyps,ln361
    001720  aa   000002 000002    1791  	zero	2,2   sd/RFU
    001721  aa   000157 000536    1792  	zero	111,st350	prod/val
                        000002    1793  	equ	ln361,*-dpda-st361-1
                                  1794  "
                                  1795  " State 364
                        000554    1796  	equ	st364,*-dpda
    001722  aa   000013 000003    1797  	zero	aplyp,ln364
    001723  aa   000000 000000    1798  	zero	0,0   sd/RFU
    001724  aa   000152 000566    1799  	zero	106,st374	prod/val
    001725  aa   000171 002166    1800  	zero	st121,st1142
                        000003    1801  	equ	ln364,*-dpda-st364-1
                                  1802  "
                                  1803  " State 368
                        000560    1804  	equ	st368,*-dpda
    001726  aa   000015 000002    1805  	zero	aplyps,ln368
    001727  aa   000001 000001    1806  	zero	1,1   sd/RFU
    001730  aa   000154 000554    1807  	zero	108,st364	prod/val
                        000002    1808  	equ	ln368,*-dpda-st368-1
                                  1809  "
                                  1810  " State 371
                        000563    1811  	equ	st371,*-dpda
    001731  aa   000015 000002    1812  	zero	aplyps,ln371
    001732  aa   000002 000002    1813  	zero	2,2   sd/RFU
    001733  aa   000153 000554    1814  	zero	107,st364	prod/val
                        000002    1815  	equ	ln371,*-dpda-st371-1
                                  1816  "
                                  1817  " State 374
                        000566    1818  	equ	st374,*-dpda
    001734  aa   000011 000017    1819  	zero	nsrd,ln374
    001735  aa   000000 774771    1820  	zero	t0,-st1543	"EOI
    001736  aa   000004 774771    1821  	zero	t4,-st1543	")
    001737  aa   000005 774771    1822  	zero	t5,-st1543	"*
    001740  aa   000006 774771    1823  	zero	t6,-st1543	"+
    001741  aa   000007 774771    1824  	zero	t7,-st1543	",
    001742  aa   000010 774771    1825  	zero	t8,-st1543	"-
    001743  aa   000013 774771    1826  	zero	t11,-st1543	"-ascending
    001744  aa   000015 774771    1827  	zero	t13,-st1543	"-descending
    001745  aa   000016 774771    1828  	zero	t14,-st1543	"-differ
    001746  aa   000022 774771    1829  	zero	t18,-st1543	"-having
    001747  aa   000023 774771    1830  	zero	t19,-st1543	"-inter
    001750  aa   000036 774771    1831  	zero	t30,-st1543	"-order_by
    001751  aa   000043 774771    1832  	zero	t35,-st1543	"-union
    001752  aa   000050 774771    1833  	zero	t40,-st1543	"/
    001753  aa   000070 774774    1834  	zero	t56,-st1540	"||
                        000017    1835  	equ	ln374,*-dpda-st374-1
                                  1836  "
                                  1837  " State 390
                        000606    1838  	equ	st390,*-dpda
    001754  aa   000011 000016    1839  	zero	nsrd,ln390
    001755  aa   000000 774754    1840  	zero	t0,-st1556	"EOI
    001756  aa   000004 774754    1841  	zero	t4,-st1556	")
    001757  aa   000005 774762    1842  	zero	t5,-st1550	"*
    001760  aa   000006 774754    1843  	zero	t6,-st1556	"+
    001761  aa   000007 774754    1844  	zero	t7,-st1556	",
    001762  aa   000010 774754    1845  	zero	t8,-st1556	"-
    001763  aa   000013 774754    1846  	zero	t11,-st1556	"-ascending
    001764  aa   000015 774754    1847  	zero	t13,-st1556	"-descending
    001765  aa   000016 774754    1848  	zero	t14,-st1556	"-differ
    001766  aa   000022 774754    1849  	zero	t18,-st1556	"-having
    001767  aa   000023 774754    1850  	zero	t19,-st1556	"-inter
    001770  aa   000036 774754    1851  	zero	t30,-st1556	"-order_by
    001771  aa   000043 774754    1852  	zero	t35,-st1556	"-union
    001772  aa   000050 774762    1853  	zero	t40,-st1550	"/
                        000016    1854  	equ	ln390,*-dpda-st390-1
                                  1855  "
                                  1856  " State 405
                        000625    1857  	equ	st405,*-dpda
    001773  aa   000000 000003    1858  	zero	strd,ln405
    001774  aa   000004 001536    1859  	zero	t4,st862	")
    001775  aa   000006 000631    1860  	zero	t6,st409	"+
    001776  aa   000010 000662    1861  	zero	t8,st434	"-
                        000003    1862  	equ	ln405,*-dpda-st405-1
                                  1863  "
                                  1864  " State 409
                        000631    1865  	equ	st409,*-dpda
    001777  aa   000013 000030    1866  	zero	aplyp,ln409
    002000  aa   000000 000000    1867  	zero	0,0   sd/RFU
    002001  aa   000233 001055    1868  	zero	155,st557	prod/val
    002002  aa   000156 000527    1869  	zero	st110,st343
    002003  aa   000166 000527    1870  	zero	st118,st343
    002004  aa   000167 000527    1871  	zero	st119,st343
    002005  aa   000170 000527    1872  	zero	st120,st343
    002006  aa   000171 000527    1873  	zero	st121,st343
    002007  aa   000172 000527    1874  	zero	st122,st343
    002010  aa   000173 000527    1875  	zero	st123,st343
    002011  aa   000625 000172    1876  	zero	st405,st122
    002012  aa   001554 000172    1877  	zero	st876,st122
    002013  aa   002057 002473    1878  	zero	st1071,st1339
    002014  aa   002240 001517    1879  	zero	st1184,st847
    002015  aa   002327 001517    1880  	zero	st1239,st847
    002016  aa   003116 000172    1881  	zero	st1614,st122
    002017  aa   003175 001517    1882  	zero	st1661,st847
    002020  aa   003223 000172    1883  	zero	st1683,st122
    002021  aa   003230 000172    1884  	zero	st1688,st122
    002022  aa   003272 001517    1885  	zero	st1722,st847
    002023  aa   003304 001517    1886  	zero	st1732,st847
    002024  aa   003307 001517    1887  	zero	st1735,st847
    002025  aa   003310 001517    1888  	zero	st1736,st847
    002026  aa   003311 001517    1889  	zero	st1737,st847
    002027  aa   003312 001517    1890  	zero	st1738,st847
                        000030    1891  	equ	ln409,*-dpda-st409-1
                                  1892  "
                                  1893  " State 434
                        000662    1894  	equ	st434,*-dpda
    002030  aa   000015 000002    1895  	zero	aplyps,ln434
    002031  aa   000000 000000    1896  	zero	0,0   sd/RFU
    002032  aa   000234 000631    1897  	zero	156,st409	prod/val
                        000002    1898  	equ	ln434,*-dpda-st434-1
                                  1899  "
                                  1900  " State 437
                        000665    1901  	equ	st437,*-dpda
    002033  aa   000013 000030    1902  	zero	aplyp,ln437
    002034  aa   000000 000000    1903  	zero	0,0   sd/RFU
    002035  aa   000230 001026    1904  	zero	152,st534	prod/val
    002036  aa   000156 000536    1905  	zero	st110,st350
    002037  aa   000166 000536    1906  	zero	st118,st350
    002040  aa   000167 000536    1907  	zero	st119,st350
    002041  aa   000170 000536    1908  	zero	st120,st350
    002042  aa   000171 000536    1909  	zero	st121,st350
    002043  aa   000172 000536    1910  	zero	st122,st350
    002044  aa   000173 000536    1911  	zero	st123,st350
    002045  aa   000527 000536    1912  	zero	st343,st350
    002046  aa   000535 000536    1913  	zero	st349,st350
    002047  aa   001333 001746    1914  	zero	st731,st998
    002050  aa   001351 001746    1915  	zero	st745,st998
    002051  aa   001364 002035    1916  	zero	st756,st1053
    002052  aa   001373 002035    1917  	zero	st763,st1053
    002053  aa   002100 002035    1918  	zero	st1088,st1053
    002054  aa   002107 002035    1919  	zero	st1095,st1053
    002055  aa   002110 002035    1920  	zero	st1096,st1053
    002056  aa   002402 001746    1921  	zero	st1282,st998
    002057  aa   002416 002546    1922  	zero	st1294,st1382
    002060  aa   002441 002546    1923  	zero	st1313,st1382
    002061  aa   002447 002546    1924  	zero	st1319,st1382
    002062  aa   002455 002602    1925  	zero	st1325,st1410
    002063  aa   002621 002602    1926  	zero	st1425,st1410
                        000030    1927  	equ	ln437,*-dpda-st437-1
                                  1928  "
                                  1929  " State 462
                        000716    1930  	equ	st462,*-dpda
    002064  aa   000015 000002    1931  	zero	aplyps,ln462
    002065  aa   000000 000000    1932  	zero	0,0   sd/RFU
    002066  aa   000227 000665    1933  	zero	151,st437	prod/val
                        000002    1934  	equ	ln462,*-dpda-st462-1
                                  1935  "
                                  1936  " State 465
                        000721    1937  	equ	st465,*-dpda
    002067  aa   000015 000002    1938  	zero	aplyps,ln465
    002070  aa   000000 000000    1939  	zero	0,0   sd/RFU
    002071  aa   000226 000665    1940  	zero	150,st437	prod/val
                        000002    1941  	equ	ln465,*-dpda-st465-1
                                  1942  "
                                  1943  " State 468
                        000724    1944  	equ	st468,*-dpda
    002072  aa   000011 000042    1945  	zero	nsrd,ln468
    002073  aa   000000 776322    1946  	zero	t0,-st814	"EOI
    002074  aa   000001 776322    1947  	zero	t1,-st814	"&
    002075  aa   000002 774740    1948  	zero	t2,-st1568	"(
    002076  aa   000004 776322    1949  	zero	t4,-st814	")
    002077  aa   000005 776322    1950  	zero	t5,-st814	"*
    002100  aa   000006 776322    1951  	zero	t6,-st814	"+
    002101  aa   000007 776322    1952  	zero	t7,-st814	",
    002102  aa   000010 776322    1953  	zero	t8,-st814	"-
    002103  aa   000013 776322    1954  	zero	t11,-st814	"-ascending
    002104  aa   000015 776322    1955  	zero	t13,-st814	"-descending
    002105  aa   000016 776322    1956  	zero	t14,-st814	"-differ
    002106  aa   000021 776322    1957  	zero	t17,-st814	"-group_by
    002107  aa   000022 776322    1958  	zero	t18,-st814	"-having
    002110  aa   000023 776322    1959  	zero	t19,-st814	"-inter
    002111  aa   000024 776322    1960  	zero	t20,-st814	"-is_between
    002112  aa   000025 776322    1961  	zero	t21,-st814	"-is_in
    002113  aa   000026 776322    1962  	zero	t22,-st814	"-is_like
    002114  aa   000027 776322    1963  	zero	t23,-st814	"-is_not_between
    002115  aa   000030 776322    1964  	zero	t24,-st814	"-is_not_in
    002116  aa   000031 776322    1965  	zero	t25,-st814	"-is_not_like
    002117  aa   000032 776322    1966  	zero	t26,-st814	"-is_not_null
    002120  aa   000033 776322    1967  	zero	t27,-st814	"-is_null
    002121  aa   000036 776322    1968  	zero	t30,-st814	"-order_by
    002122  aa   000043 776322    1969  	zero	t35,-st814	"-union
    002123  aa   000045 774726    1970  	zero	t37,-st1578	".
    002124  aa   000050 776322    1971  	zero	t40,-st814	"/
    002125  aa   000052 776322    1972  	zero	t42,-st814	"<
    002126  aa   000053 776322    1973  	zero	t43,-st814	"<=
    002127  aa   000060 776322    1974  	zero	t48,-st814	"=
    002130  aa   000061 776322    1975  	zero	t49,-st814	">
    002131  aa   000062 776322    1976  	zero	t50,-st814	">=
    002132  aa   000066 776322    1977  	zero	t54,-st814	"^=
    002133  aa   000067 776322    1978  	zero	t55,-st814	"|
    002134  aa   000070 776322    1979  	zero	t56,-st814	"||
                        000042    1980  	equ	ln468,*-dpda-st468-1
                                  1981  "
                                  1982  " State 503
                        000767    1983  	equ	st503,*-dpda
    002135  aa   000014 000002    1984  	zero	aplyp1,ln503
    002136  aa   000001 000001    1985  	zero	1,1   sd/RFU
    002137  aa   000024 000242    1986  	zero	20,st162	prod/val
                        000002    1987  	equ	ln503,*-dpda-st503-1
                                  1988  "
                                  1989  " State 506
                        000772    1990  	equ	st506,*-dpda
    002140  aa   000011 000011    1991  	zero	nsrd,ln506
    002141  aa   000000 774656    1992  	zero	t0,-st1618	"EOI
    002142  aa   000004 774656    1993  	zero	t4,-st1618	")
    002143  aa   000006 774662    1994  	zero	t6,-st1614	"+
    002144  aa   000010 774662    1995  	zero	t8,-st1614	"-
    002145  aa   000016 774656    1996  	zero	t14,-st1618	"-differ
    002146  aa   000022 774662    1997  	zero	t18,-st1614	"-having
    002147  aa   000023 774656    1998  	zero	t19,-st1618	"-inter
    002150  aa   000036 774656    1999  	zero	t30,-st1618	"-order_by
    002151  aa   000043 774656    2000  	zero	t35,-st1618	"-union
                        000011    2001  	equ	ln506,*-dpda-st506-1
                                  2002  "
                                  2003  " State 516
                        001004    2004  	equ	st516,*-dpda
    002152  aa   000013 000003    2005  	zero	aplyp,ln516
    002153  aa   000000 000000    2006  	zero	0,0   sd/RFU
    002154  aa   000113 001252    2007  	zero	75,st682	prod/val
    002155  aa   001636 002377    2008  	zero	st926,st1279
                        000003    2009  	equ	ln516,*-dpda-st516-1
                                  2010  "
                                  2011  " State 520
                        001010    2012  	equ	st520,*-dpda
    002156  aa   000015 000002    2013  	zero	aplyps,ln520
    002157  aa   000002 000002    2014  	zero	2,2   sd/RFU
    002160  aa   000110 001004    2015  	zero	72,st516	prod/val
                        000002    2016  	equ	ln520,*-dpda-st520-1
                                  2017  "
                                  2018  " State 523
                        001013    2019  	equ	st523,*-dpda
    002161  aa   000015 000002    2020  	zero	aplyps,ln523
    002162  aa   000002 000002    2021  	zero	2,2   sd/RFU
    002163  aa   000111 001004    2022  	zero	73,st516	prod/val
                        000002    2023  	equ	ln523,*-dpda-st523-1
                                  2024  "
                                  2025  " State 526
                        001016    2026  	equ	st526,*-dpda
    002164  aa   000015 000002    2027  	zero	aplyps,ln526
    002165  aa   000000 000000    2028  	zero	0,0   sd/RFU
    002166  aa   000112 001004    2029  	zero	74,st516	prod/val
                        000002    2030  	equ	ln526,*-dpda-st526-1
                                  2031  "
                                  2032  " State 529
                        001021    2033  	equ	st529,*-dpda
    002167  aa   000013 000004    2034  	zero	aplyp,ln529
    002170  aa   000000 000000    2035  	zero	0,0   sd/RFU
    002171  aa   000174 001135    2036  	zero	124,st605	prod/val
    002172  aa   001055 001141    2037  	zero	st557,st609
    002173  aa   001064 001144    2038  	zero	st564,st612
                        000004    2039  	equ	ln529,*-dpda-st529-1
                                  2040  "
                                  2041  " State 534
                        001026    2042  	equ	st534,*-dpda
    002174  aa   000015 000002    2043  	zero	aplyps,ln534
    002175  aa   000000 000000    2044  	zero	0,0   sd/RFU
    002176  aa   000173 001021    2045  	zero	123,st529	prod/val
                        000002    2046  	equ	ln534,*-dpda-st534-1
                                  2047  "
                                  2048  " State 537
                        001031    2049  	equ	st537,*-dpda
    002177  aa   000015 000002    2050  	zero	aplyps,ln537
    002200  aa   000000 000000    2051  	zero	0,0   sd/RFU
    002201  aa   000170 001021    2052  	zero	120,st529	prod/val
                        000002    2053  	equ	ln537,*-dpda-st537-1
                                  2054  "
                                  2055  " State 540
                        001034    2056  	equ	st540,*-dpda
    002202  aa   000015 000002    2057  	zero	aplyps,ln540
    002203  aa   000000 000000    2058  	zero	0,0   sd/RFU
    002204  aa   000171 001021    2059  	zero	121,st529	prod/val
                        000002    2060  	equ	ln540,*-dpda-st540-1
                                  2061  "
                                  2062  " State 543
                        001037    2063  	equ	st543,*-dpda
    002205  aa   000015 000002    2064  	zero	aplyps,ln543
    002206  aa   000002 000002    2065  	zero	2,2   sd/RFU
    002207  aa   000172 001021    2066  	zero	122,st529	prod/val
                        000002    2067  	equ	ln543,*-dpda-st543-1
                                  2068  "
                                  2069  " State 546
                        001042    2070  	equ	st546,*-dpda
    002210  aa   000000 000012    2071  	zero	strd,ln546
    002211  aa   000002 001333    2072  	zero	t2,st731	"(
    002212  aa   000006 000631    2073  	zero	t6,st409	"+
    002213  aa   000010 000662    2074  	zero	t8,st434	"-
    002214  aa   000046 000417    2075  	zero	t38,st271	".V.
    002215  aa   000047 001352    2076  	zero	t39,st746	".X.
    002216  aa   000054 000665    2077  	zero	t44,st437	"<bit_string>
    002217  aa   000055 000716    2078  	zero	t45,st462	"<integer>
    002220  aa   000056 000721    2079  	zero	t46,st465	"<string>
    002221  aa   000057 000724    2080  	zero	t47,st468	"<symbol>
    002222  aa   000063 001364    2081  	zero	t51,st756	"[
                        000012    2082  	equ	ln546,*-dpda-st546-1
                                  2083  "
                                  2084  " State 557
                        001055    2085  	equ	st557,*-dpda
    002223  aa   000000 000006    2086  	zero	strd,ln557
    002224  aa   000002 001515    2087  	zero	t2,st845	"(
    002225  aa   000046 000417    2088  	zero	t38,st271	".V.
    002226  aa   000054 000665    2089  	zero	t44,st437	"<bit_string>
    002227  aa   000055 000716    2090  	zero	t45,st462	"<integer>
    002230  aa   000056 000721    2091  	zero	t46,st465	"<string>
    002231  aa   000057 000724    2092  	zero	t47,st468	"<symbol>
                        000006    2093  	equ	ln557,*-dpda-st557-1
                                  2094  "
                                  2095  " State 564
                        001064    2096  	equ	st564,*-dpda
    002232  aa   000002 001055    2097  	zero	strds,st557
                                  2098
                                  2099  "
                                  2100  " State 565
                        001065    2101  	equ	st565,*-dpda
    002233  aa   000011 000024    2102  	zero	nsrd,ln565
    002234  aa   000004 776747    2103  	zero	t4,-st537	")
    002235  aa   000005 776747    2104  	zero	t5,-st537	"*
    002236  aa   000006 776747    2105  	zero	t6,-st537	"+
    002237  aa   000010 776747    2106  	zero	t8,-st537	"-
    002240  aa   000024 776747    2107  	zero	t20,-st537	"-is_between
    002241  aa   000025 776747    2108  	zero	t21,-st537	"-is_in
    002242  aa   000026 774644    2109  	zero	t22,-st1628	"-is_like
    002243  aa   000027 776747    2110  	zero	t23,-st537	"-is_not_between
    002244  aa   000030 776747    2111  	zero	t24,-st537	"-is_not_in
    002245  aa   000031 774644    2112  	zero	t25,-st1628	"-is_not_like
    002246  aa   000032 774647    2113  	zero	t26,-st1625	"-is_not_null
    002247  aa   000033 774647    2114  	zero	t27,-st1625	"-is_null
    002250  aa   000050 776747    2115  	zero	t40,-st537	"/
    002251  aa   000052 776747    2116  	zero	t42,-st537	"<
    002252  aa   000053 776747    2117  	zero	t43,-st537	"<=
    002253  aa   000060 776747    2118  	zero	t48,-st537	"=
    002254  aa   000061 776747    2119  	zero	t49,-st537	">
    002255  aa   000062 776747    2120  	zero	t50,-st537	">=
    002256  aa   000066 776747    2121  	zero	t54,-st537	"^=
    002257  aa   000070 776747    2122  	zero	t56,-st537	"||
                        000024    2123  	equ	ln565,*-dpda-st565-1
                                  2124  "
                                  2125  " State 586
                        001112    2126  	equ	st586,*-dpda
    002260  aa   000011 000022    2127  	zero	nsrd,ln586
    002261  aa   000004 776744    2128  	zero	t4,-st540	")
    002262  aa   000005 776744    2129  	zero	t5,-st540	"*
    002263  aa   000006 776744    2130  	zero	t6,-st540	"+
    002264  aa   000010 776744    2131  	zero	t8,-st540	"-
    002265  aa   000024 776744    2132  	zero	t20,-st540	"-is_between
    002266  aa   000025 776744    2133  	zero	t21,-st540	"-is_in
    002267  aa   000026 774641    2134  	zero	t22,-st1631	"-is_like
    002270  aa   000027 776744    2135  	zero	t23,-st540	"-is_not_between
    002271  aa   000030 776744    2136  	zero	t24,-st540	"-is_not_in
    002272  aa   000031 774641    2137  	zero	t25,-st1631	"-is_not_like
    002273  aa   000050 776744    2138  	zero	t40,-st540	"/
    002274  aa   000052 776744    2139  	zero	t42,-st540	"<
    002275  aa   000053 776744    2140  	zero	t43,-st540	"<=
    002276  aa   000060 776744    2141  	zero	t48,-st540	"=
    002277  aa   000061 776744    2142  	zero	t49,-st540	">
    002300  aa   000062 776744    2143  	zero	t50,-st540	">=
    002301  aa   000066 776744    2144  	zero	t54,-st540	"^=
    002302  aa   000070 776744    2145  	zero	t56,-st540	"||
                        000022    2146  	equ	ln586,*-dpda-st586-1
                                  2147  "
                                  2148  " State 605
                        001135    2149  	equ	st605,*-dpda
    002303  aa   000013 000003    2150  	zero	aplyp,ln605
    002304  aa   000000 000000    2151  	zero	0,0   sd/RFU
    002305  aa   000165 001147    2152  	zero	117,st615	prod/val
    002306  aa   001516 002244    2153  	zero	st846,st1188
                        000003    2154  	equ	ln605,*-dpda-st605-1
                                  2155  "
                                  2156  " State 609
                        001141    2157  	equ	st609,*-dpda
    002307  aa   000015 000002    2158  	zero	aplyps,ln609
    002310  aa   000001 000001    2159  	zero	1,1   sd/RFU
    002311  aa   000167 001135    2160  	zero	119,st605	prod/val
                        000002    2161  	equ	ln609,*-dpda-st609-1
                                  2162  "
                                  2163  " State 612
                        001144    2164  	equ	st612,*-dpda
    002312  aa   000015 000002    2165  	zero	aplyps,ln612
    002313  aa   000002 000002    2166  	zero	2,2   sd/RFU
    002314  aa   000166 001135    2167  	zero	118,st605	prod/val
                        000002    2168  	equ	ln612,*-dpda-st612-1
                                  2169  "
                                  2170  " State 615
                        001147    2171  	equ	st615,*-dpda
    002315  aa   000011 000031    2172  	zero	nsrd,ln615
    002316  aa   000000 774633    2173  	zero	t0,-st1637	"EOI
    002317  aa   000001 774633    2174  	zero	t1,-st1637	"&
    002320  aa   000004 774633    2175  	zero	t4,-st1637	")
    002321  aa   000005 774633    2176  	zero	t5,-st1637	"*
    002322  aa   000006 774633    2177  	zero	t6,-st1637	"+
    002323  aa   000007 774633    2178  	zero	t7,-st1637	",
    002324  aa   000010 774633    2179  	zero	t8,-st1637	"-
    002325  aa   000016 774633    2180  	zero	t14,-st1637	"-differ
    002326  aa   000021 774633    2181  	zero	t17,-st1637	"-group_by
    002327  aa   000023 774633    2182  	zero	t19,-st1637	"-inter
    002330  aa   000024 774633    2183  	zero	t20,-st1637	"-is_between
    002331  aa   000025 774633    2184  	zero	t21,-st1637	"-is_in
    002332  aa   000027 774633    2185  	zero	t23,-st1637	"-is_not_between
    002333  aa   000030 774633    2186  	zero	t24,-st1637	"-is_not_in
    002334  aa   000036 774633    2187  	zero	t30,-st1637	"-order_by
    002335  aa   000043 774633    2188  	zero	t35,-st1637	"-union
    002336  aa   000050 774633    2189  	zero	t40,-st1637	"/
    002337  aa   000052 774633    2190  	zero	t42,-st1637	"<
    002340  aa   000053 774633    2191  	zero	t43,-st1637	"<=
    002341  aa   000060 774633    2192  	zero	t48,-st1637	"=
    002342  aa   000061 774633    2193  	zero	t49,-st1637	">
    002343  aa   000062 774633    2194  	zero	t50,-st1637	">=
    002344  aa   000066 774633    2195  	zero	t54,-st1637	"^=
    002345  aa   000067 774633    2196  	zero	t55,-st1637	"|
    002346  aa   000070 774636    2197  	zero	t56,-st1634	"||
                        000031    2198  	equ	ln615,*-dpda-st615-1
                                  2199  "
                                  2200  " State 641
                        001201    2201  	equ	st641,*-dpda
    002347  aa   000011 000030    2202  	zero	nsrd,ln641
    002350  aa   000000 774624    2203  	zero	t0,-st1644	"EOI
    002351  aa   000001 774624    2204  	zero	t1,-st1644	"&
    002352  aa   000004 774624    2205  	zero	t4,-st1644	")
    002353  aa   000005 774757    2206  	zero	t5,-st1553	"*
    002354  aa   000006 774624    2207  	zero	t6,-st1644	"+
    002355  aa   000007 774624    2208  	zero	t7,-st1644	",
    002356  aa   000010 774624    2209  	zero	t8,-st1644	"-
    002357  aa   000016 774624    2210  	zero	t14,-st1644	"-differ
    002360  aa   000021 774624    2211  	zero	t17,-st1644	"-group_by
    002361  aa   000023 774624    2212  	zero	t19,-st1644	"-inter
    002362  aa   000024 774624    2213  	zero	t20,-st1644	"-is_between
    002363  aa   000025 774624    2214  	zero	t21,-st1644	"-is_in
    002364  aa   000027 774624    2215  	zero	t23,-st1644	"-is_not_between
    002365  aa   000030 774624    2216  	zero	t24,-st1644	"-is_not_in
    002366  aa   000036 774624    2217  	zero	t30,-st1644	"-order_by
    002367  aa   000043 774624    2218  	zero	t35,-st1644	"-union
    002370  aa   000050 774757    2219  	zero	t40,-st1553	"/
    002371  aa   000052 774624    2220  	zero	t42,-st1644	"<
    002372  aa   000053 774624    2221  	zero	t43,-st1644	"<=
    002373  aa   000060 774624    2222  	zero	t48,-st1644	"=
    002374  aa   000061 774624    2223  	zero	t49,-st1644	">
    002375  aa   000062 774624    2224  	zero	t50,-st1644	">=
    002376  aa   000066 774624    2225  	zero	t54,-st1644	"^=
    002377  aa   000067 774624    2226  	zero	t55,-st1644	"|
                        000030    2227  	equ	ln641,*-dpda-st641-1
                                  2228  "
                                  2229  " State 666
                        001232    2230  	equ	st666,*-dpda
    002400  aa   000011 000014    2231  	zero	nsrd,ln666
    002401  aa   000006 774603    2232  	zero	t6,-st1661	"+
    002402  aa   000010 774603    2233  	zero	t8,-st1661	"-
    002403  aa   000024 774603    2234  	zero	t20,-st1661	"-is_between
    002404  aa   000025 776762    2235  	zero	t21,-st526	"-is_in
    002405  aa   000027 774603    2236  	zero	t23,-st1661	"-is_not_between
    002406  aa   000030 776762    2237  	zero	t24,-st526	"-is_not_in
    002407  aa   000052 776762    2238  	zero	t42,-st526	"<
    002410  aa   000053 776762    2239  	zero	t43,-st526	"<=
    002411  aa   000060 776762    2240  	zero	t48,-st526	"=
    002412  aa   000061 776762    2241  	zero	t49,-st526	">
    002413  aa   000062 776762    2242  	zero	t50,-st526	">=
    002414  aa   000066 776762    2243  	zero	t54,-st526	"^=
                        000014    2244  	equ	ln666,*-dpda-st666-1
                                  2245  "
                                  2246  " State 679
                        001247    2247  	equ	st679,*-dpda
    002415  aa   000000 000002    2248  	zero	strd,ln679
    002416  aa   000026 001613    2249  	zero	t22,st907	"-is_like
    002417  aa   000031 001616    2250  	zero	t25,st910	"-is_not_like
                        000002    2251  	equ	ln679,*-dpda-st679-1
                                  2252  "
                                  2253  " State 682
                        001252    2254  	equ	st682,*-dpda
    002420  aa   000000 000010    2255  	zero	strd,ln682
    002421  aa   000025 001653    2256  	zero	t21,st939	"-is_in
    002422  aa   000030 001656    2257  	zero	t24,st942	"-is_not_in
    002423  aa   000052 001661    2258  	zero	t42,st945	"<
    002424  aa   000053 001664    2259  	zero	t43,st948	"<=
    002425  aa   000060 001667    2260  	zero	t48,st951	"=
    002426  aa   000061 001672    2261  	zero	t49,st954	">
    002427  aa   000062 001675    2262  	zero	t50,st957	">=
    002430  aa   000066 001700    2263  	zero	t54,st960	"^=
                        000010    2264  	equ	ln682,*-dpda-st682-1
                                  2265  "
                                  2266  " State 691
                        001263    2267  	equ	st691,*-dpda
    002431  aa   000013 000003    2268  	zero	aplyp,ln691
    002432  aa   000000 000000    2269  	zero	0,0   sd/RFU
    002433  aa   000101 001272    2270  	zero	65,st698	prod/val
    002434  aa   001042 001276    2271  	zero	st546,st702
                        000003    2272  	equ	ln691,*-dpda-st691-1
                                  2273  "
                                  2274  " State 695
                        001267    2275  	equ	st695,*-dpda
    002435  aa   000015 000002    2276  	zero	aplyps,ln695
    002436  aa   000002 000002    2277  	zero	2,2   sd/RFU
    002437  aa   000102 001263    2278  	zero	66,st691	prod/val
                        000002    2279  	equ	ln695,*-dpda-st695-1
                                  2280  "
                                  2281  " State 698
                        001272    2282  	equ	st698,*-dpda
    002440  aa   000013 000003    2283  	zero	aplyp,ln698
    002441  aa   000000 000000    2284  	zero	0,0   sd/RFU
    002442  aa   000077 001301    2285  	zero	63,st705	prod/val
    002443  aa   000262 001305    2286  	zero	st178,st709
                        000003    2287  	equ	ln698,*-dpda-st698-1
                                  2288  "
                                  2289  " State 702
                        001276    2290  	equ	st702,*-dpda
    002444  aa   000015 000002    2291  	zero	aplyps,ln702
    002445  aa   000001 000001    2292  	zero	1,1   sd/RFU
    002446  aa   000100 001272    2293  	zero	64,st698	prod/val
                        000002    2294  	equ	ln702,*-dpda-st702-1
                                  2295  "
                                  2296  " State 705
                        001301    2297  	equ	st705,*-dpda
    002447  aa   000013 000003    2298  	zero	aplyp,ln705
    002450  aa   000000 000000    2299  	zero	0,0   sd/RFU
    002451  aa   000075 001310    2300  	zero	61,st712	prod/val
    002452  aa   000263 002427    2301  	zero	st179,st1303
                        000003    2302  	equ	ln705,*-dpda-st705-1
                                  2303  "
                                  2304  " State 709
                        001305    2305  	equ	st709,*-dpda
    002453  aa   000015 000002    2306  	zero	aplyps,ln709
    002454  aa   000002 000002    2307  	zero	2,2   sd/RFU
    002455  aa   000076 001301    2308  	zero	62,st705	prod/val
                        000002    2309  	equ	ln709,*-dpda-st709-1
                                  2310  "
                                  2311  " State 712
                        001310    2312  	equ	st712,*-dpda
    002456  aa   000011 000011    2313  	zero	nsrd,ln712
    002457  aa   000000 774573    2314  	zero	t0,-st1669	"EOI
    002460  aa   000001 774576    2315  	zero	t1,-st1666	"&
    002461  aa   000004 774573    2316  	zero	t4,-st1669	")
    002462  aa   000016 774573    2317  	zero	t14,-st1669	"-differ
    002463  aa   000021 774573    2318  	zero	t17,-st1669	"-group_by
    002464  aa   000023 774573    2319  	zero	t19,-st1669	"-inter
    002465  aa   000036 774573    2320  	zero	t30,-st1669	"-order_by
    002466  aa   000043 774573    2321  	zero	t35,-st1669	"-union
    002467  aa   000067 774573    2322  	zero	t55,-st1669	"|
                        000011    2323  	equ	ln712,*-dpda-st712-1
                                  2324  "
                                  2325  " State 722
                        001322    2326  	equ	st722,*-dpda
    002470  aa   000011 000010    2327  	zero	nsrd,ln722
    002471  aa   000000 774560    2328  	zero	t0,-st1680	"EOI
    002472  aa   000004 774560    2329  	zero	t4,-st1680	")
    002473  aa   000016 774560    2330  	zero	t14,-st1680	"-differ
    002474  aa   000021 774560    2331  	zero	t17,-st1680	"-group_by
    002475  aa   000023 774560    2332  	zero	t19,-st1680	"-inter
    002476  aa   000036 774560    2333  	zero	t30,-st1680	"-order_by
    002477  aa   000043 774560    2334  	zero	t35,-st1680	"-union
    002500  aa   000067 774563    2335  	zero	t55,-st1677	"|
                        000010    2336  	equ	ln722,*-dpda-st722-1
                                  2337  "
                                  2338  " State 731
                        001333    2339  	equ	st731,*-dpda
    002501  aa   000000 000015    2340  	zero	strd,ln731
    002502  aa   000002 001351    2341  	zero	t2,st745	"(
    002503  aa   000006 000631    2342  	zero	t6,st409	"+
    002504  aa   000010 000662    2343  	zero	t8,st434	"-
    002505  aa   000041 000077    2344  	zero	t33,st63	"-range
    002506  aa   000042 000103    2345  	zero	t34,st67	"-select
    002507  aa   000046 000417    2346  	zero	t38,st271	".V.
    002510  aa   000047 001352    2347  	zero	t39,st746	".X.
    002511  aa   000054 000665    2348  	zero	t44,st437	"<bit_string>
    002512  aa   000055 000716    2349  	zero	t45,st462	"<integer>
    002513  aa   000056 000721    2350  	zero	t46,st465	"<string>
    002514  aa   000057 000724    2351  	zero	t47,st468	"<symbol>
    002515  aa   000063 001364    2352  	zero	t51,st756	"[
    002516  aa   000065 001374    2353  	zero	t53,st764	"^
                        000015    2354  	equ	ln731,*-dpda-st731-1
                                  2355  "
                                  2356  " State 745
                        001351    2357  	equ	st745,*-dpda
    002517  aa   000002 001333    2358  	zero	strds,st731
                                  2359
                                  2360  "
                                  2361  " State 746
                        001352    2362  	equ	st746,*-dpda
    002520  aa   000013 000011    2363  	zero	aplyp,ln746
    002521  aa   000000 000000    2364  	zero	0,0   sd/RFU
    002522  aa   000243 001004    2365  	zero	163,st516	prod/val
    002523  aa   001333 001712    2366  	zero	st731,st970
    002524  aa   001351 001712    2367  	zero	st745,st970
    002525  aa   001601 002333    2368  	zero	st897,st1243
    002526  aa   002402 002536    2369  	zero	st1282,st1374
    002527  aa   002416 002536    2370  	zero	st1294,st1374
    002530  aa   002441 002536    2371  	zero	st1313,st1374
    002531  aa   002447 002536    2372  	zero	st1319,st1374
                        000011    2373  	equ	ln746,*-dpda-st746-1
                                  2374  "
                                  2375  " State 756
                        001364    2376  	equ	st756,*-dpda
    002532  aa   000000 000006    2377  	zero	strd,ln756
    002533  aa   000002 002100    2378  	zero	t2,st1088	"(
    002534  aa   000046 000417    2379  	zero	t38,st271	".V.
    002535  aa   000054 000665    2380  	zero	t44,st437	"<bit_string>
    002536  aa   000055 000716    2381  	zero	t45,st462	"<integer>
    002537  aa   000056 000721    2382  	zero	t46,st465	"<string>
    002540  aa   000057 002111    2383  	zero	t47,st1097	"<symbol>
                        000006    2384  	equ	ln756,*-dpda-st756-1
                                  2385  "
                                  2386  " State 763
                        001373    2387  	equ	st763,*-dpda
    002541  aa   000002 001364    2388  	zero	strds,st756
                                  2389
                                  2390  "
                                  2391  " State 764
                        001374    2392  	equ	st764,*-dpda
    002542  aa   000014 000002    2393  	zero	aplyp1,ln764
    002543  aa   000000 000000    2394  	zero	0,0   sd/RFU
    002544  aa   000241 001042    2395  	zero	161,st546	prod/val
                        000002    2396  	equ	ln764,*-dpda-st764-1
                                  2397  "
                                  2398  " State 767
                        001377    2399  	equ	st767,*-dpda
    002545  aa   000011 000006    2400  	zero	nsrd,ln767
    002546  aa   000000 774547    2401  	zero	t0,-st1689	"EOI
    002547  aa   000006 774555    2402  	zero	t6,-st1683	"+
    002550  aa   000007 774547    2403  	zero	t7,-st1689	",
    002551  aa   000010 774555    2404  	zero	t8,-st1683	"-
    002552  aa   000013 774555    2405  	zero	t11,-st1683	"-ascending
    002553  aa   000015 774555    2406  	zero	t13,-st1683	"-descending
                        000006    2407  	equ	ln767,*-dpda-st767-1
                                  2408  "
                                  2409  " State 774
                        001406    2410  	equ	st774,*-dpda
    002554  aa   000011 000002    2411  	zero	nsrd,ln774
    002555  aa   000000 774542    2412  	zero	t0,-st1694	"EOI
    002556  aa   000007 774544    2413  	zero	t7,-st1692	",
                        000002    2414  	equ	ln774,*-dpda-st774-1
                                  2415  "
                                  2416  " State 777
                        001411    2417  	equ	st777,*-dpda
    002557  aa   000000 000001    2418  	zero	strd,ln777
    002560  aa   000057 002126    2419  	zero	t47,st1110	"<symbol>
                        000001    2420  	equ	ln777,*-dpda-st777-1
                                  2421  "
                                  2422  " State 779
                        001413    2423  	equ	st779,*-dpda
    002561  aa   000014 000002    2424  	zero	aplyp1,ln779
    002562  aa   000001 000001    2425  	zero	1,1   sd/RFU
    002563  aa   000045 000356    2426  	zero	37,st238	prod/val
                        000002    2427  	equ	ln779,*-dpda-st779-1
                                  2428  "
                                  2429  " State 782
                        001416    2430  	equ	st782,*-dpda
    002564  aa   000013 000003    2431  	zero	aplyp,ln782
    002565  aa   000000 000000    2432  	zero	0,0   sd/RFU
    002566  aa   000246 001437    2433  	zero	166,st799	prod/val
    002567  aa   000416 001413    2434  	zero	st270,st779
                        000003    2435  	equ	ln782,*-dpda-st782-1
                                  2436  "
                                  2437  " State 786
                        001422    2438  	equ	st786,*-dpda
    002570  aa   000014 000002    2439  	zero	aplyp1,ln786
    002571  aa   000001 000001    2440  	zero	1,1   sd/RFU
    002572  aa   000047 000343    2441  	zero	39,st227	prod/val
                        000002    2442  	equ	ln786,*-dpda-st786-1
                                  2443  "
                                  2444  " State 789
                        001425    2445  	equ	st789,*-dpda
    002573  aa   000013 000003    2446  	zero	aplyp,ln789
    002574  aa   000001 000001    2447  	zero	1,1   sd/RFU
    002575  aa   000043 000372    2448  	zero	35,st250	prod/val
    002576  aa   001434 002144    2449  	zero	st796,st1124
                        000003    2450  	equ	ln789,*-dpda-st789-1
                                  2451  "
                                  2452  " State 793
                        001431    2453  	equ	st793,*-dpda
    002577  aa   000015 000002    2454  	zero	aplyps,ln793
    002600  aa   000000 000000    2455  	zero	0,0   sd/RFU
    002601  aa   000042 001425    2456  	zero	34,st789	prod/val
                        000002    2457  	equ	ln793,*-dpda-st793-1
                                  2458  "
                                  2459  " State 796
                        001434    2460  	equ	st796,*-dpda
    002602  aa   000000 000002    2461  	zero	strd,ln796
    002603  aa   000046 000417    2462  	zero	t38,st271	".V.
    002604  aa   000057 000442    2463  	zero	t47,st290	"<symbol>
                        000002    2464  	equ	ln796,*-dpda-st796-1
                                  2465  "
                                  2466  " State 799
                        001437    2467  	equ	st799,*-dpda
    002605  aa   000002 001434    2468  	zero	strds,st796
                                  2469
                                  2470  "
                                  2471  " State 800
                        001440    2472  	equ	st800,*-dpda
    002606  aa   000011 000015    2473  	zero	nsrd,ln800
    002607  aa   000000 774535    2474  	zero	t0,-st1699	"EOI
    002610  aa   000002 774535    2475  	zero	t2,-st1699	"(
    002611  aa   000004 774535    2476  	zero	t4,-st1699	")
    002612  aa   000005 774537    2477  	zero	t5,-st1697	"*
    002613  aa   000016 774535    2478  	zero	t14,-st1699	"-differ
    002614  aa   000021 774535    2479  	zero	t17,-st1699	"-group_by
    002615  aa   000023 774535    2480  	zero	t19,-st1699	"-inter
    002616  aa   000036 774535    2481  	zero	t30,-st1699	"-order_by
    002617  aa   000041 774535    2482  	zero	t33,-st1699	"-range
    002620  aa   000043 774535    2483  	zero	t35,-st1699	"-union
    002621  aa   000044 774535    2484  	zero	t36,-st1699	"-where
    002622  aa   000051 774535    2485  	zero	t41,-st1699	"::
    002623  aa   000057 774535    2486  	zero	t47,-st1699	"<symbol>
                        000015    2487  	equ	ln800,*-dpda-st800-1
                                  2488  "
                                  2489  " State 814
                        001456    2490  	equ	st814,*-dpda
    002624  aa   000013 000012    2491  	zero	aplyp,ln814
    002625  aa   000000 000000    2492  	zero	0,0   sd/RFU
    002626  aa   000247 000474    2493  	zero	167,st316	prod/val
    002627  aa   000006 000111    2494  	zero	st6,st73
    002630  aa   000466 001440    2495  	zero	st310,st800
    002631  aa   002464 002043    2496  	zero	st1332,st1059
    002632  aa   002466 000522    2497  	zero	st1334,st338
    002633  aa   002467 002610    2498  	zero	st1335,st1416
    002634  aa   002727 000111    2499  	zero	st1495,st73
    002635  aa   002732 000111    2500  	zero	st1498,st73
    002636  aa   002733 000111    2501  	zero	st1499,st73
                        000012    2502  	equ	ln814,*-dpda-st814-1
                                  2503  "
                                  2504  " State 825
                        001471    2505  	equ	st825,*-dpda
    002637  aa   000013 000004    2506  	zero	aplyp,ln825
    002640  aa   000002 000002    2507  	zero	2,2   sd/RFU
    002641  aa   000064 000133    2508  	zero	52,st91	prod/val
    002642  aa   002732 000137    2509  	zero	st1498,st95
    002643  aa   002733 000137    2510  	zero	st1499,st95
                        000004    2511  	equ	ln825,*-dpda-st825-1
                                  2512  "
                                  2513  " State 830
                        001476    2514  	equ	st830,*-dpda
    002644  aa   000015 000002    2515  	zero	aplyps,ln830
    002645  aa   000000 000000    2516  	zero	0,0   sd/RFU
    002646  aa   000063 001471    2517  	zero	51,st825	prod/val
                        000002    2518  	equ	ln830,*-dpda-st830-1
                                  2519  "
                                  2520  " State 833
                        001501    2521  	equ	st833,*-dpda
    002647  aa   000014 000002    2522  	zero	aplyp1,ln833
    002650  aa   000000 000000    2523  	zero	0,0   sd/RFU
    002651  aa   000251 001471    2524  	zero	169,st825	prod/val
                        000002    2525  	equ	ln833,*-dpda-st833-1
                                  2526  "
                                  2527  " State 836
                        001504    2528  	equ	st836,*-dpda
    002652  aa   000000 000010    2529  	zero	strd,ln836
    002653  aa   000002 001515    2530  	zero	t2,st845	"(
    002654  aa   000006 000631    2531  	zero	t6,st409	"+
    002655  aa   000010 000662    2532  	zero	t8,st434	"-
    002656  aa   000046 000417    2533  	zero	t38,st271	".V.
    002657  aa   000054 000665    2534  	zero	t44,st437	"<bit_string>
    002660  aa   000055 000716    2535  	zero	t45,st462	"<integer>
    002661  aa   000056 000721    2536  	zero	t46,st465	"<string>
    002662  aa   000057 000724    2537  	zero	t47,st468	"<symbol>
                        000010    2538  	equ	ln836,*-dpda-st836-1
                                  2539  "
                                  2540  " State 845
                        001515    2541  	equ	st845,*-dpda
    002663  aa   000002 001504    2542  	zero	strds,st836
                                  2543
                                  2544  "
                                  2545  " State 846
                        001516    2546  	equ	st846,*-dpda
    002664  aa   000002 001504    2547  	zero	strds,st836
                                  2548
                                  2549  "
                                  2550  " State 847
                        001517    2551  	equ	st847,*-dpda
    002665  aa   000002 001504    2552  	zero	strds,st836
                                  2553
                                  2554  "
                                  2555  " State 848
                        001520    2556  	equ	st848,*-dpda
    002666  aa   000002 001504    2557  	zero	strds,st836
                                  2558
                                  2559  "
                                  2560  " State 849
                        001521    2561  	equ	st849,*-dpda
    002667  aa   000002 001504    2562  	zero	strds,st836
                                  2563
                                  2564  "
                                  2565  " State 850
                        001522    2566  	equ	st850,*-dpda
    002670  aa   000002 001504    2567  	zero	strds,st836
                                  2568
                                  2569  "
                                  2570  " State 851
                        001523    2571  	equ	st851,*-dpda
    002671  aa   000000 000001    2572  	zero	strd,ln851
    002672  aa   000057 002126    2573  	zero	t47,st1110	"<symbol>
                        000001    2574  	equ	ln851,*-dpda-st851-1
                                  2575  "
                                  2576  " State 853
                        001525    2577  	equ	st853,*-dpda
    002673  aa   000013 000005    2578  	zero	aplyp,ln853
    002674  aa   000000 000000    2579  	zero	0,0   sd/RFU
    002675  aa   000235 000171    2580  	zero	157,st121	prod/val
    002676  aa   002057 002470    2581  	zero	st1071,st1336
    002677  aa   003021 001516    2582  	zero	st1553,st846
    002700  aa   003023 001516    2583  	zero	st1555,st846
                        000005    2584  	equ	ln853,*-dpda-st853-1
                                  2585  "
                                  2586  " State 859
                        001533    2587  	equ	st859,*-dpda
    002701  aa   000015 000002    2588  	zero	aplyps,ln859
    002702  aa   000000 000000    2589  	zero	0,0   sd/RFU
    002703  aa   000236 001525    2590  	zero	158,st853	prod/val
                        000002    2591  	equ	ln859,*-dpda-st859-1
                                  2592  "
                                  2593  " State 862
                        001536    2594  	equ	st862,*-dpda
    002704  aa   000011 000015    2595  	zero	nsrd,ln862
    002705  aa   000000 774530    2596  	zero	t0,-st1704	"EOI
    002706  aa   000002 774530    2597  	zero	t2,-st1704	"(
    002707  aa   000004 774530    2598  	zero	t4,-st1704	")
    002710  aa   000005 774532    2599  	zero	t5,-st1702	"*
    002711  aa   000016 774530    2600  	zero	t14,-st1704	"-differ
    002712  aa   000021 774530    2601  	zero	t17,-st1704	"-group_by
    002713  aa   000023 774530    2602  	zero	t19,-st1704	"-inter
    002714  aa   000036 774530    2603  	zero	t30,-st1704	"-order_by
    002715  aa   000041 774530    2604  	zero	t33,-st1704	"-range
    002716  aa   000043 774530    2605  	zero	t35,-st1704	"-union
    002717  aa   000044 774530    2606  	zero	t36,-st1704	"-where
    002720  aa   000051 774530    2607  	zero	t41,-st1704	"::
    002721  aa   000057 774530    2608  	zero	t47,-st1704	"<symbol>
                        000015    2609  	equ	ln862,*-dpda-st862-1
                                  2610  "
                                  2611  " State 876
                        001554    2612  	equ	st876,*-dpda
    002722  aa   000000 000003    2613  	zero	strd,ln876
    002723  aa   000004 000551    2614  	zero	t4,st361	")
    002724  aa   000006 000631    2615  	zero	t6,st409	"+
    002725  aa   000010 000662    2616  	zero	t8,st434	"-
                        000003    2617  	equ	ln876,*-dpda-st876-1
                                  2618  "
                                  2619  " State 880
                        001560    2620  	equ	st880,*-dpda
    002726  aa   000000 000001    2621  	zero	strd,ln880
    002727  aa   000057 000517    2622  	zero	t47,st335	"<symbol>
                        000001    2623  	equ	ln880,*-dpda-st880-1
                                  2624  "
                                  2625  " State 882
                        001562    2626  	equ	st882,*-dpda
    002730  aa   000014 000002    2627  	zero	aplyp1,ln882
    002731  aa   000001 000001    2628  	zero	1,1   sd/RFU
    002732  aa   000106 001263    2629  	zero	70,st691	prod/val
                        000002    2630  	equ	ln882,*-dpda-st882-1
                                  2631  "
                                  2632  " State 885
                        001565    2633  	equ	st885,*-dpda
    002733  aa   000014 000002    2634  	zero	aplyp1,ln885
    002734  aa   000000 000000    2635  	zero	0,0   sd/RFU
    002735  aa   000130 001562    2636  	zero	88,st882	prod/val
                        000002    2637  	equ	ln885,*-dpda-st885-1
                                  2638  "
                                  2639  " State 888
                        001570    2640  	equ	st888,*-dpda
    002736  aa   000014 000002    2641  	zero	aplyp1,ln888
    002737  aa   000000 000000    2642  	zero	0,0   sd/RFU
    002740  aa   000127 001562    2643  	zero	87,st882	prod/val
                        000002    2644  	equ	ln888,*-dpda-st888-1
                                  2645  "
                                  2646  " State 891
                        001573    2647  	equ	st891,*-dpda
    002741  aa   000014 000002    2648  	zero	aplyp1,ln891
    002742  aa   000000 000000    2649  	zero	0,0   sd/RFU
    002743  aa   000131 001520    2650  	zero	89,st848	prod/val
                        000002    2651  	equ	ln891,*-dpda-st891-1
                                  2652  "
                                  2653  " State 894
                        001576    2654  	equ	st894,*-dpda
    002744  aa   000014 000002    2655  	zero	aplyp1,ln894
    002745  aa   000000 000000    2656  	zero	0,0   sd/RFU
    002746  aa   000132 001520    2657  	zero	90,st848	prod/val
                        000002    2658  	equ	ln894,*-dpda-st894-1
                                  2659  "
                                  2660  " State 897
                        001601    2661  	equ	st897,*-dpda
    002747  aa   000000 000011    2662  	zero	strd,ln897
    002750  aa   000002 001515    2663  	zero	t2,st845	"(
    002751  aa   000006 000631    2664  	zero	t6,st409	"+
    002752  aa   000010 000662    2665  	zero	t8,st434	"-
    002753  aa   000046 000417    2666  	zero	t38,st271	".V.
    002754  aa   000047 001352    2667  	zero	t39,st746	".X.
    002755  aa   000054 000665    2668  	zero	t44,st437	"<bit_string>
    002756  aa   000055 000716    2669  	zero	t45,st462	"<integer>
    002757  aa   000056 000721    2670  	zero	t46,st465	"<string>
    002760  aa   000057 000724    2671  	zero	t47,st468	"<symbol>
                        000011    2672  	equ	ln897,*-dpda-st897-1
                                  2673  "
                                  2674  " State 907
                        001613    2675  	equ	st907,*-dpda
    002761  aa   000014 000002    2676  	zero	aplyp1,ln907
    002762  aa   000000 000000    2677  	zero	0,0   sd/RFU
    002763  aa   000125 001601    2678  	zero	85,st897	prod/val
                        000002    2679  	equ	ln907,*-dpda-st907-1
                                  2680  "
                                  2681  " State 910
                        001616    2682  	equ	st910,*-dpda
    002764  aa   000014 000002    2683  	zero	aplyp1,ln910
    002765  aa   000000 000000    2684  	zero	0,0   sd/RFU
    002766  aa   000126 001601    2685  	zero	86,st897	prod/val
                        000002    2686  	equ	ln910,*-dpda-st910-1
                                  2687  "
                                  2688  " State 913
                        001621    2689  	equ	st913,*-dpda
    002767  aa   000011 000014    2690  	zero	nsrd,ln913
    002770  aa   000002 774522    2691  	zero	t2,-st1710	"(
    002771  aa   000006 774522    2692  	zero	t6,-st1710	"+
    002772  aa   000010 774522    2693  	zero	t8,-st1710	"-
    002773  aa   000011 774525    2694  	zero	t9,-st1707	"-all_of
    002774  aa   000012 774525    2695  	zero	t10,-st1707	"-any_of
    002775  aa   000046 774522    2696  	zero	t38,-st1710	".V.
    002776  aa   000047 774522    2697  	zero	t39,-st1710	".X.
    002777  aa   000054 774522    2698  	zero	t44,-st1710	"<bit_string>
    003000  aa   000055 774522    2699  	zero	t45,-st1710	"<integer>
    003001  aa   000056 774522    2700  	zero	t46,-st1710	"<string>
    003002  aa   000057 774522    2701  	zero	t47,-st1710	"<symbol>
    003003  aa   000063 774522    2702  	zero	t51,-st1710	"[
                        000014    2703  	equ	ln913,*-dpda-st913-1
                                  2704  "
                                  2705  " State 926
                        001636    2706  	equ	st926,*-dpda
    003004  aa   000000 000012    2707  	zero	strd,ln926
    003005  aa   000002 002402    2708  	zero	t2,st1282	"(
    003006  aa   000006 000631    2709  	zero	t6,st409	"+
    003007  aa   000010 000662    2710  	zero	t8,st434	"-
    003010  aa   000046 000417    2711  	zero	t38,st271	".V.
    003011  aa   000047 001352    2712  	zero	t39,st746	".X.
    003012  aa   000054 000665    2713  	zero	t44,st437	"<bit_string>
    003013  aa   000055 000716    2714  	zero	t45,st462	"<integer>
    003014  aa   000056 000721    2715  	zero	t46,st465	"<string>
    003015  aa   000057 000724    2716  	zero	t47,st468	"<symbol>
    003016  aa   000063 001364    2717  	zero	t51,st756	"[
                        000012    2718  	equ	ln926,*-dpda-st926-1
                                  2719  "
                                  2720  " State 937
                        001651    2721  	equ	st937,*-dpda
    003017  aa   000000 000001    2722  	zero	strd,ln937
    003020  aa   000002 002416    2723  	zero	t2,st1294	"(
                        000001    2724  	equ	ln937,*-dpda-st937-1
                                  2725  "
                                  2726  " State 939
                        001653    2727  	equ	st939,*-dpda
    003021  aa   000014 000002    2728  	zero	aplyp1,ln939
    003022  aa   000000 000000    2729  	zero	0,0   sd/RFU
    003023  aa   000123 001651    2730  	zero	83,st937	prod/val
                        000002    2731  	equ	ln939,*-dpda-st939-1
                                  2732  "
                                  2733  " State 942
                        001656    2734  	equ	st942,*-dpda
    003024  aa   000014 000002    2735  	zero	aplyp1,ln942
    003025  aa   000000 000000    2736  	zero	0,0   sd/RFU
    003026  aa   000124 001651    2737  	zero	84,st937	prod/val
                        000002    2738  	equ	ln942,*-dpda-st942-1
                                  2739  "
                                  2740  " State 945
                        001661    2741  	equ	st945,*-dpda
    003027  aa   000014 000002    2742  	zero	aplyp1,ln945
    003030  aa   000000 000000    2743  	zero	0,0   sd/RFU
    003031  aa   000142 001621    2744  	zero	98,st913	prod/val
                        000002    2745  	equ	ln945,*-dpda-st945-1
                                  2746  "
                                  2747  " State 948
                        001664    2748  	equ	st948,*-dpda
    003032  aa   000014 000002    2749  	zero	aplyp1,ln948
    003033  aa   000000 000000    2750  	zero	0,0   sd/RFU
    003034  aa   000143 001621    2751  	zero	99,st913	prod/val
                        000002    2752  	equ	ln948,*-dpda-st948-1
                                  2753  "
                                  2754  " State 951
                        001667    2755  	equ	st951,*-dpda
    003035  aa   000014 000002    2756  	zero	aplyp1,ln951
    003036  aa   000000 000000    2757  	zero	0,0   sd/RFU
    003037  aa   000136 001621    2758  	zero	94,st913	prod/val
                        000002    2759  	equ	ln951,*-dpda-st951-1
                                  2760  "
                                  2761  " State 954
                        001672    2762  	equ	st954,*-dpda
    003040  aa   000014 000002    2763  	zero	aplyp1,ln954
    003041  aa   000000 000000    2764  	zero	0,0   sd/RFU
    003042  aa   000140 001621    2765  	zero	96,st913	prod/val
                        000002    2766  	equ	ln954,*-dpda-st954-1
                                  2767  "
                                  2768  " State 957
                        001675    2769  	equ	st957,*-dpda
    003043  aa   000014 000002    2770  	zero	aplyp1,ln957
    003044  aa   000000 000000    2771  	zero	0,0   sd/RFU
    003045  aa   000141 001621    2772  	zero	97,st913	prod/val
                        000002    2773  	equ	ln957,*-dpda-st957-1
                                  2774  "
                                  2775  " State 960
                        001700    2776  	equ	st960,*-dpda
    003046  aa   000014 000002    2777  	zero	aplyp1,ln960
    003047  aa   000000 000000    2778  	zero	0,0   sd/RFU
    003050  aa   000137 001621    2779  	zero	95,st913	prod/val
                        000002    2780  	equ	ln960,*-dpda-st960-1
                                  2781  "
                                  2782  " State 963
                        001703    2783  	equ	st963,*-dpda
    003051  aa   000013 000003    2784  	zero	aplyp,ln963
    003052  aa   000000 000000    2785  	zero	0,0   sd/RFU
    003053  aa   000237 000262    2786  	zero	159,st178	prod/val
    003054  aa   002327 001522    2787  	zero	st1239,st850
                        000003    2788  	equ	ln963,*-dpda-st963-1
                                  2789  "
                                  2790  " State 967
                        001707    2791  	equ	st967,*-dpda
    003055  aa   000014 000002    2792  	zero	aplyp1,ln967
    003056  aa   000000 000000    2793  	zero	0,0   sd/RFU
    003057  aa   000240 000263    2794  	zero	160,st179	prod/val
                        000002    2795  	equ	ln967,*-dpda-st967-1
                                  2796  "
                                  2797  " State 970
                        001712    2798  	equ	st970,*-dpda
    003060  aa   000011 000011    2799  	zero	nsrd,ln970
    003061  aa   000007 775242    2800  	zero	t7,-st1374	",
    003062  aa   000025 776774    2801  	zero	t21,-st516	"-is_in
    003063  aa   000030 776774    2802  	zero	t24,-st516	"-is_not_in
    003064  aa   000052 776774    2803  	zero	t42,-st516	"<
    003065  aa   000053 776774    2804  	zero	t43,-st516	"<=
    003066  aa   000060 776774    2805  	zero	t48,-st516	"=
    003067  aa   000061 776774    2806  	zero	t49,-st516	">
    003070  aa   000062 776774    2807  	zero	t50,-st516	">=
    003071  aa   000066 776774    2808  	zero	t54,-st516	"^=
                        000011    2809  	equ	ln970,*-dpda-st970-1
                                  2810  "
                                  2811  " State 980
                        001724    2812  	equ	st980,*-dpda
    003072  aa   000011 000021    2813  	zero	nsrd,ln980
    003073  aa   000004 776757    2814  	zero	t4,-st529	")
    003074  aa   000005 776757    2815  	zero	t5,-st529	"*
    003075  aa   000006 776757    2816  	zero	t6,-st529	"+
    003076  aa   000007 775235    2817  	zero	t7,-st1379	",
    003077  aa   000010 776757    2818  	zero	t8,-st529	"-
    003100  aa   000024 776757    2819  	zero	t20,-st529	"-is_between
    003101  aa   000025 776757    2820  	zero	t21,-st529	"-is_in
    003102  aa   000027 776757    2821  	zero	t23,-st529	"-is_not_between
    003103  aa   000030 776757    2822  	zero	t24,-st529	"-is_not_in
    003104  aa   000050 776757    2823  	zero	t40,-st529	"/
    003105  aa   000052 776757    2824  	zero	t42,-st529	"<
    003106  aa   000053 776757    2825  	zero	t43,-st529	"<=
    003107  aa   000060 776757    2826  	zero	t48,-st529	"=
    003110  aa   000061 776757    2827  	zero	t49,-st529	">
    003111  aa   000062 776757    2828  	zero	t50,-st529	">=
    003112  aa   000066 776757    2829  	zero	t54,-st529	"^=
    003113  aa   000070 776757    2830  	zero	t56,-st529	"||
                        000021    2831  	equ	ln980,*-dpda-st980-1
                                  2832  "
                                  2833  " State 998
                        001746    2834  	equ	st998,*-dpda
    003114  aa   000011 000021    2835  	zero	nsrd,ln998
    003115  aa   000004 776752    2836  	zero	t4,-st534	")
    003116  aa   000005 776752    2837  	zero	t5,-st534	"*
    003117  aa   000006 776752    2838  	zero	t6,-st534	"+
    003120  aa   000007 775232    2839  	zero	t7,-st1382	",
    003121  aa   000010 776752    2840  	zero	t8,-st534	"-
    003122  aa   000024 776752    2841  	zero	t20,-st534	"-is_between
    003123  aa   000025 776752    2842  	zero	t21,-st534	"-is_in
    003124  aa   000027 776752    2843  	zero	t23,-st534	"-is_not_between
    003125  aa   000030 776752    2844  	zero	t24,-st534	"-is_not_in
    003126  aa   000050 776752    2845  	zero	t40,-st534	"/
    003127  aa   000052 776752    2846  	zero	t42,-st534	"<
    003130  aa   000053 776752    2847  	zero	t43,-st534	"<=
    003131  aa   000060 776752    2848  	zero	t48,-st534	"=
    003132  aa   000061 776752    2849  	zero	t49,-st534	">
    003133  aa   000062 776752    2850  	zero	t50,-st534	">=
    003134  aa   000066 776752    2851  	zero	t54,-st534	"^=
    003135  aa   000070 776752    2852  	zero	t56,-st534	"||
                        000021    2853  	equ	ln998,*-dpda-st998-1
                                  2854  "
                                  2855  " State 1016
                        001770    2856  	equ	st1016,*-dpda
    003136  aa   000000 000001    2857  	zero	strd,ln1016
    003137  aa   000007 002441    2858  	zero	t7,st1313	",
                        000001    2859  	equ	ln1016,*-dpda-st1016-1
                                  2860  "
                                  2861  " State 1018
                        001772    2862  	equ	st1018,*-dpda
    003140  aa   000011 000002    2863  	zero	nsrd,ln1018
    003141  aa   000004 774515    2864  	zero	t4,-st1715	")
    003142  aa   000007 774517    2865  	zero	t7,-st1713	",
                        000002    2866  	equ	ln1018,*-dpda-st1018-1
                                  2867  "
                                  2868  " State 1021
                        001775    2869  	equ	st1021,*-dpda
    003143  aa   000011 000015    2870  	zero	nsrd,ln1021
    003144  aa   000004 774506    2871  	zero	t4,-st1722	")
    003145  aa   000006 774506    2872  	zero	t6,-st1722	"+
    003146  aa   000010 774506    2873  	zero	t8,-st1722	"-
    003147  aa   000024 774506    2874  	zero	t20,-st1722	"-is_between
    003150  aa   000025 776762    2875  	zero	t21,-st526	"-is_in
    003151  aa   000027 774506    2876  	zero	t23,-st1722	"-is_not_between
    003152  aa   000030 776762    2877  	zero	t24,-st526	"-is_not_in
    003153  aa   000052 776762    2878  	zero	t42,-st526	"<
    003154  aa   000053 776762    2879  	zero	t43,-st526	"<=
    003155  aa   000060 776762    2880  	zero	t48,-st526	"=
    003156  aa   000061 776762    2881  	zero	t49,-st526	">
    003157  aa   000062 776762    2882  	zero	t50,-st526	">=
    003160  aa   000066 776762    2883  	zero	t54,-st526	"^=
                        000015    2884  	equ	ln1021,*-dpda-st1021-1
                                  2885  "
                                  2886  " State 1035
                        002013    2887  	equ	st1035,*-dpda
    003161  aa   000000 000001    2888  	zero	strd,ln1035
    003162  aa   000004 001010    2889  	zero	t4,st520	")
                        000001    2890  	equ	ln1035,*-dpda-st1035-1
                                  2891  "
                                  2892  " State 1037
                        002015    2893  	equ	st1037,*-dpda
    003163  aa   000000 000002    2894  	zero	strd,ln1037
    003164  aa   000004 001267    2895  	zero	t4,st695	")
    003165  aa   000067 001707    2896  	zero	t55,st967	"|
                        000002    2897  	equ	ln1037,*-dpda-st1037-1
                                  2898  "
                                  2899  " State 1040
                        002020    2900  	equ	st1040,*-dpda
    003166  aa   000011 000004    2901  	zero	nsrd,ln1040
    003167  aa   000004 774511    2902  	zero	t4,-st1719	")
    003170  aa   000016 774500    2903  	zero	t14,-st1728	"-differ
    003171  aa   000023 774500    2904  	zero	t19,-st1728	"-inter
    003172  aa   000043 774500    2905  	zero	t35,-st1728	"-union
                        000004    2906  	equ	ln1040,*-dpda-st1040-1
                                  2907  "
                                  2908  " State 1045
                        002025    2909  	equ	st1045,*-dpda
    003173  aa   000000 000001    2910  	zero	strd,ln1045
    003174  aa   000002 002455    2911  	zero	t2,st1325	"(
                        000001    2912  	equ	ln1045,*-dpda-st1045-1
                                  2913  "
                                  2914  " State 1047
                        002027    2915  	equ	st1047,*-dpda
    003175  aa   000000 000001    2916  	zero	strd,ln1047
    003176  aa   000045 002464    2917  	zero	t37,st1332	".
                        000001    2918  	equ	ln1047,*-dpda-st1047-1
                                  2919  "
                                  2920  " State 1049
                        002031    2921  	equ	st1049,*-dpda
    003177  aa   000013 000003    2922  	zero	aplyp,ln1049
    003200  aa   000000 000000    2923  	zero	0,0   sd/RFU
    003201  aa   000202 002057    2924  	zero	130,st1071	prod/val
    003202  aa   002107 002631    2925  	zero	st1095,st1433
                        000003    2926  	equ	ln1049,*-dpda-st1049-1
                                  2927  "
                                  2928  " State 1053
                        002035    2929  	equ	st1053,*-dpda
    003203  aa   000015 000002    2930  	zero	aplyps,ln1053
    003204  aa   000000 000000    2931  	zero	0,0   sd/RFU
    003205  aa   000200 002031    2932  	zero	128,st1049	prod/val
                        000002    2933  	equ	ln1053,*-dpda-st1053-1
                                  2934  "
                                  2935  " State 1056
                        002040    2936  	equ	st1056,*-dpda
    003206  aa   000015 000002    2937  	zero	aplyps,ln1056
    003207  aa   000000 000000    2938  	zero	0,0   sd/RFU
    003210  aa   000177 002031    2939  	zero	127,st1049	prod/val
                        000002    2940  	equ	ln1056,*-dpda-st1056-1
                                  2941  "
                                  2942  " State 1059
                        002043    2943  	equ	st1059,*-dpda
    003211  aa   000015 000002    2944  	zero	aplyps,ln1059
    003212  aa   000002 000002    2945  	zero	2,2   sd/RFU
    003213  aa   000176 002031    2946  	zero	126,st1049	prod/val
                        000002    2947  	equ	ln1059,*-dpda-st1059-1
                                  2948  "
                                  2949  " State 1062
                        002046    2950  	equ	st1062,*-dpda
    003214  aa   000015 000002    2951  	zero	aplyps,ln1062
    003215  aa   000002 000002    2952  	zero	2,2   sd/RFU
    003216  aa   000201 002031    2953  	zero	129,st1049	prod/val
                        000002    2954  	equ	ln1062,*-dpda-st1062-1
                                  2955  "
                                  2956  " State 1065
                        002051    2957  	equ	st1065,*-dpda
    003217  aa   000011 000005    2958  	zero	nsrd,ln1065
    003220  aa   000005 775740    2959  	zero	t5,-st1056	"*
    003221  aa   000006 775740    2960  	zero	t6,-st1056	"+
    003222  aa   000010 775740    2961  	zero	t8,-st1056	"-
    003223  aa   000050 775740    2962  	zero	t40,-st1056	"/
    003224  aa   000064 775710    2963  	zero	t52,-st1080	"]
                        000005    2964  	equ	ln1065,*-dpda-st1065-1
                                  2965  "
                                  2966  " State 1071
                        002057    2967  	equ	st1071,*-dpda
    003225  aa   000000 000004    2968  	zero	strd,ln1071
    003226  aa   000005 001525    2969  	zero	t5,st853	"*
    003227  aa   000006 000631    2970  	zero	t6,st409	"+
    003230  aa   000010 000662    2971  	zero	t8,st434	"-
    003231  aa   000050 001533    2972  	zero	t40,st859	"/
                        000004    2973  	equ	ln1071,*-dpda-st1071-1
                                  2974  "
                                  2975  " State 1076
                        002064    2976  	equ	st1076,*-dpda
    003232  aa   000013 000003    2977  	zero	aplyp,ln1076
    003233  aa   000000 000000    2978  	zero	0,0   sd/RFU
    003234  aa   000117 002076    2979  	zero	79,st1086	prod/val
    003235  aa   001373 002707    2980  	zero	st763,st1479
                        000003    2981  	equ	ln1076,*-dpda-st1076-1
                                  2982  "
                                  2983  " State 1080
                        002070    2984  	equ	st1080,*-dpda
    003236  aa   000015 000002    2985  	zero	aplyps,ln1080
    003237  aa   000000 000000    2986  	zero	0,0   sd/RFU
    003240  aa   000116 002064    2987  	zero	78,st1076	prod/val
                        000002    2988  	equ	ln1080,*-dpda-st1080-1
                                  2989  "
                                  2990  " State 1083
                        002073    2991  	equ	st1083,*-dpda
    003241  aa   000015 000002    2992  	zero	aplyps,ln1083
    003242  aa   000002 000002    2993  	zero	2,2   sd/RFU
    003243  aa   000120 002064    2994  	zero	80,st1076	prod/val
                        000002    2995  	equ	ln1083,*-dpda-st1083-1
                                  2996  "
                                  2997  " State 1086
                        002076    2998  	equ	st1086,*-dpda
    003244  aa   000000 000001    2999  	zero	strd,ln1086
    003245  aa   000064 001013    3000  	zero	t52,st523	"]
                        000001    3001  	equ	ln1086,*-dpda-st1086-1
                                  3002  "
                                  3003  " State 1088
                        002100    3004  	equ	st1088,*-dpda
    003246  aa   000000 000006    3005  	zero	strd,ln1088
    003247  aa   000002 002110    3006  	zero	t2,st1096	"(
    003250  aa   000046 000417    3007  	zero	t38,st271	".V.
    003251  aa   000054 000665    3008  	zero	t44,st437	"<bit_string>
    003252  aa   000055 000716    3009  	zero	t45,st462	"<integer>
    003253  aa   000056 000721    3010  	zero	t46,st465	"<string>
    003254  aa   000057 002111    3011  	zero	t47,st1097	"<symbol>
                        000006    3012  	equ	ln1088,*-dpda-st1088-1
                                  3013  "
                                  3014  " State 1095
                        002107    3015  	equ	st1095,*-dpda
    003255  aa   000002 002100    3016  	zero	strds,st1088
                                  3017
                                  3018  "
                                  3019  " State 1096
                        002110    3020  	equ	st1096,*-dpda
    003256  aa   000002 002100    3021  	zero	strds,st1088
                                  3022
                                  3023  "
                                  3024  " State 1097
                        002111    3025  	equ	st1097,*-dpda
    003257  aa   000011 000002    3026  	zero	nsrd,ln1097
    003260  aa   000002 774740    3027  	zero	t2,-st1568	"(
    003261  aa   000045 775652    3028  	zero	t37,-st1110	".
                        000002    3029  	equ	ln1097,*-dpda-st1097-1
                                  3030  "
                                  3031  " State 1100
                        002114    3032  	equ	st1100,*-dpda
    003262  aa   000014 000002    3033  	zero	aplyp1,ln1100
    003263  aa   000001 000001    3034  	zero	1,1   sd/RFU
    003264  aa   000030 001406    3035  	zero	24,st774	prod/val
                        000002    3036  	equ	ln1100,*-dpda-st1100-1
                                  3037  "
                                  3038  " State 1103
                        002117    3039  	equ	st1103,*-dpda
    003265  aa   000013 000003    3040  	zero	aplyp,ln1103
    003266  aa   000000 000000    3041  	zero	0,0   sd/RFU
    003267  aa   000033 002114    3042  	zero	27,st1100	prod/val
    003270  aa   003230 002646    3043  	zero	st1688,st1446
                        000003    3044  	equ	ln1103,*-dpda-st1103-1
                                  3045  "
                                  3046  " State 1107
                        002123    3047  	equ	st1107,*-dpda
    003271  aa   000015 000002    3048  	zero	aplyps,ln1107
    003272  aa   000000 000000    3049  	zero	0,0   sd/RFU
    003273  aa   000034 002117    3050  	zero	28,st1103	prod/val
                        000002    3051  	equ	ln1107,*-dpda-st1107-1
                                  3052  "
                                  3053  " State 1110
                        002126    3054  	equ	st1110,*-dpda
    003274  aa   000013 000015    3055  	zero	aplyp,ln1110
    003275  aa   000000 000000    3056  	zero	0,0   sd/RFU
    003276  aa   000245 002027    3057  	zero	165,st1047	prod/val
    003277  aa   000006 000114    3058  	zero	st6,st76
    003300  aa   000077 000307    3059  	zero	st63,st199
    003301  aa   001411 000316    3060  	zero	st777,st206
    003302  aa   001434 000307    3061  	zero	st796,st199
    003303  aa   001437 000307    3062  	zero	st799,st199
    003304  aa   001523 002164    3063  	zero	st851,st1140
    003305  aa   002455 002574    3064  	zero	st1325,st1404
    003306  aa   002621 002574    3065  	zero	st1425,st1404
    003307  aa   002727 000114    3066  	zero	st1495,st76
    003310  aa   002732 000114    3067  	zero	st1498,st76
    003311  aa   002733 000114    3068  	zero	st1499,st76
                        000015    3069  	equ	ln1110,*-dpda-st1110-1
                                  3070  "
                                  3071  " State 1124
                        002144    3072  	equ	st1124,*-dpda
    003312  aa   000014 000002    3073  	zero	aplyp1,ln1124
    003313  aa   000002 000002    3074  	zero	2,2   sd/RFU
    003314  aa   000041 000375    3075  	zero	33,st253	prod/val
                        000002    3076  	equ	ln1124,*-dpda-st1124-1
                                  3077  "
                                  3078  " State 1127
                        002147    3079  	equ	st1127,*-dpda
    003315  aa   000000 000001    3080  	zero	strd,ln1127
    003316  aa   000004 002507    3081  	zero	t4,st1351	")
                        000001    3082  	equ	ln1127,*-dpda-st1127-1
                                  3083  "
                                  3084  " State 1129
                        002151    3085  	equ	st1129,*-dpda
    003317  aa   000014 000002    3086  	zero	aplyp1,ln1129
    003320  aa   000003 000003    3087  	zero	3,3   sd/RFU
    003321  aa   000071 000116    3088  	zero	57,st78	prod/val
                        000002    3089  	equ	ln1129,*-dpda-st1129-1
                                  3090  "
                                  3091  " State 1132
                        002154    3092  	equ	st1132,*-dpda
    003322  aa   000000 000002    3093  	zero	strd,ln1132
    003323  aa   000004 002513    3094  	zero	t4,st1355	")
    003324  aa   000007 001521    3095  	zero	t7,st849	",
                        000002    3096  	equ	ln1132,*-dpda-st1132-1
                                  3097  "
                                  3098  " State 1135
                        002157    3099  	equ	st1135,*-dpda
    003325  aa   000011 000004    3100  	zero	nsrd,ln1135
    003326  aa   000004 774465    3101  	zero	t4,-st1739	")
    003327  aa   000006 774474    3102  	zero	t6,-st1732	"+
    003330  aa   000007 774465    3103  	zero	t7,-st1739	",
    003331  aa   000010 774474    3104  	zero	t8,-st1732	"-
                        000004    3105  	equ	ln1135,*-dpda-st1135-1
                                  3106  "
                                  3107  " State 1140
                        002164    3108  	equ	st1140,*-dpda
    003332  aa   000000 000001    3109  	zero	strd,ln1140
    003333  aa   000045 002466    3110  	zero	t37,st1334	".
                        000001    3111  	equ	ln1140,*-dpda-st1140-1
                                  3112  "
                                  3113  " State 1142
                        002166    3114  	equ	st1142,*-dpda
    003334  aa   000011 000017    3115  	zero	nsrd,ln1142
    003335  aa   000000 774765    3116  	zero	t0,-st1547	"EOI
    003336  aa   000004 774765    3117  	zero	t4,-st1547	")
    003337  aa   000005 774765    3118  	zero	t5,-st1547	"*
    003340  aa   000006 774765    3119  	zero	t6,-st1547	"+
    003341  aa   000007 774765    3120  	zero	t7,-st1547	",
    003342  aa   000010 774765    3121  	zero	t8,-st1547	"-
    003343  aa   000013 774765    3122  	zero	t11,-st1547	"-ascending
    003344  aa   000015 774765    3123  	zero	t13,-st1547	"-descending
    003345  aa   000016 774765    3124  	zero	t14,-st1547	"-differ
    003346  aa   000022 774765    3125  	zero	t18,-st1547	"-having
    003347  aa   000023 774765    3126  	zero	t19,-st1547	"-inter
    003350  aa   000036 774765    3127  	zero	t30,-st1547	"-order_by
    003351  aa   000043 774765    3128  	zero	t35,-st1547	"-union
    003352  aa   000050 774765    3129  	zero	t40,-st1547	"/
    003353  aa   000070 774772    3130  	zero	t56,-st1542	"||
                        000017    3131  	equ	ln1142,*-dpda-st1142-1
                                  3132  "
                                  3133  " State 1158
                        002206    3134  	equ	st1158,*-dpda
    003354  aa   000011 000016    3135  	zero	nsrd,ln1158
    003355  aa   000000 774745    3136  	zero	t0,-st1563	"EOI
    003356  aa   000004 774745    3137  	zero	t4,-st1563	")
    003357  aa   000005 774756    3138  	zero	t5,-st1554	"*
    003360  aa   000006 774745    3139  	zero	t6,-st1563	"+
    003361  aa   000007 774745    3140  	zero	t7,-st1563	",
    003362  aa   000010 774745    3141  	zero	t8,-st1563	"-
    003363  aa   000013 774745    3142  	zero	t11,-st1563	"-ascending
    003364  aa   000015 774745    3143  	zero	t13,-st1563	"-descending
    003365  aa   000016 774745    3144  	zero	t14,-st1563	"-differ
    003366  aa   000022 774745    3145  	zero	t18,-st1563	"-having
    003367  aa   000023 774745    3146  	zero	t19,-st1563	"-inter
    003370  aa   000036 774745    3147  	zero	t30,-st1563	"-order_by
    003371  aa   000043 774745    3148  	zero	t35,-st1563	"-union
    003372  aa   000050 774756    3149  	zero	t40,-st1554	"/
                        000016    3150  	equ	ln1158,*-dpda-st1158-1
                                  3151  "
                                  3152  " State 1173
                        002225    3153  	equ	st1173,*-dpda
    003373  aa   000014 000002    3154  	zero	aplyp1,ln1173
    003374  aa   000003 000003    3155  	zero	3,3   sd/RFU
    003375  aa   000067 000116    3156  	zero	55,st78	prod/val
                        000002    3157  	equ	ln1173,*-dpda-st1173-1
                                  3158  "
                                  3159  " State 1176
                        002230    3160  	equ	st1176,*-dpda
    003376  aa   000011 000007    3161  	zero	nsrd,ln1176
    003377  aa   000000 774652    3162  	zero	t0,-st1622	"EOI
    003400  aa   000004 774652    3163  	zero	t4,-st1622	")
    003401  aa   000016 774652    3164  	zero	t14,-st1622	"-differ
    003402  aa   000023 774652    3165  	zero	t19,-st1622	"-inter
    003403  aa   000036 774652    3166  	zero	t30,-st1622	"-order_by
    003404  aa   000043 774652    3167  	zero	t35,-st1622	"-union
    003405  aa   000067 774561    3168  	zero	t55,-st1679	"|
                        000007    3169  	equ	ln1176,*-dpda-st1176-1
                                  3170  "
                                  3171  " State 1184
                        002240    3172  	equ	st1184,*-dpda
    003406  aa   000000 000003    3173  	zero	strd,ln1184
    003407  aa   000004 001037    3174  	zero	t4,st543	")
    003410  aa   000006 000631    3175  	zero	t6,st409	"+
    003411  aa   000010 000662    3176  	zero	t8,st434	"-
                        000003    3177  	equ	ln1184,*-dpda-st1184-1
                                  3178  "
                                  3179  " State 1188
                        002244    3180  	equ	st1188,*-dpda
    003412  aa   000011 000031    3181  	zero	nsrd,ln1188
    003413  aa   000000 774627    3182  	zero	t0,-st1641	"EOI
    003414  aa   000001 774627    3183  	zero	t1,-st1641	"&
    003415  aa   000004 774627    3184  	zero	t4,-st1641	")
    003416  aa   000005 774627    3185  	zero	t5,-st1641	"*
    003417  aa   000006 774627    3186  	zero	t6,-st1641	"+
    003420  aa   000007 774627    3187  	zero	t7,-st1641	",
    003421  aa   000010 774627    3188  	zero	t8,-st1641	"-
    003422  aa   000016 774627    3189  	zero	t14,-st1641	"-differ
    003423  aa   000021 774627    3190  	zero	t17,-st1641	"-group_by
    003424  aa   000023 774627    3191  	zero	t19,-st1641	"-inter
    003425  aa   000024 774627    3192  	zero	t20,-st1641	"-is_between
    003426  aa   000025 774627    3193  	zero	t21,-st1641	"-is_in
    003427  aa   000027 774627    3194  	zero	t23,-st1641	"-is_not_between
    003430  aa   000030 774627    3195  	zero	t24,-st1641	"-is_not_in
    003431  aa   000036 774627    3196  	zero	t30,-st1641	"-order_by
    003432  aa   000043 774627    3197  	zero	t35,-st1641	"-union
    003433  aa   000050 774627    3198  	zero	t40,-st1641	"/
    003434  aa   000052 774627    3199  	zero	t42,-st1641	"<
    003435  aa   000053 774627    3200  	zero	t43,-st1641	"<=
    003436  aa   000060 774627    3201  	zero	t48,-st1641	"=
    003437  aa   000061 774627    3202  	zero	t49,-st1641	">
    003440  aa   000062 774627    3203  	zero	t50,-st1641	">=
    003441  aa   000066 774627    3204  	zero	t54,-st1641	"^=
    003442  aa   000067 774627    3205  	zero	t55,-st1641	"|
    003443  aa   000070 774634    3206  	zero	t56,-st1636	"||
                        000031    3207  	equ	ln1188,*-dpda-st1188-1
                                  3208  "
                                  3209  " State 1214
                        002276    3210  	equ	st1214,*-dpda
    003444  aa   000011 000030    3211  	zero	nsrd,ln1214
    003445  aa   000000 774606    3212  	zero	t0,-st1658	"EOI
    003446  aa   000001 774606    3213  	zero	t1,-st1658	"&
    003447  aa   000004 774606    3214  	zero	t4,-st1658	")
    003450  aa   000005 774755    3215  	zero	t5,-st1555	"*
    003451  aa   000006 774606    3216  	zero	t6,-st1658	"+
    003452  aa   000007 774606    3217  	zero	t7,-st1658	",
    003453  aa   000010 774606    3218  	zero	t8,-st1658	"-
    003454  aa   000016 774606    3219  	zero	t14,-st1658	"-differ
    003455  aa   000021 774606    3220  	zero	t17,-st1658	"-group_by
    003456  aa   000023 774606    3221  	zero	t19,-st1658	"-inter
    003457  aa   000024 774606    3222  	zero	t20,-st1658	"-is_between
    003460  aa   000025 774606    3223  	zero	t21,-st1658	"-is_in
    003461  aa   000027 774606    3224  	zero	t23,-st1658	"-is_not_between
    003462  aa   000030 774606    3225  	zero	t24,-st1658	"-is_not_in
    003463  aa   000036 774606    3226  	zero	t30,-st1658	"-order_by
    003464  aa   000043 774606    3227  	zero	t35,-st1658	"-union
    003465  aa   000050 774755    3228  	zero	t40,-st1555	"/
    003466  aa   000052 774606    3229  	zero	t42,-st1658	"<
    003467  aa   000053 774606    3230  	zero	t43,-st1658	"<=
    003470  aa   000060 774606    3231  	zero	t48,-st1658	"=
    003471  aa   000061 774606    3232  	zero	t49,-st1658	">
    003472  aa   000062 774606    3233  	zero	t50,-st1658	">=
    003473  aa   000066 774606    3234  	zero	t54,-st1658	"^=
    003474  aa   000067 774606    3235  	zero	t55,-st1658	"|
                        000030    3236  	equ	ln1214,*-dpda-st1214-1
                                  3237  "
                                  3238  " State 1239
                        002327    3239  	equ	st1239,*-dpda
    003475  aa   000000 000003    3240  	zero	strd,ln1239
    003476  aa   000001 001703    3241  	zero	t1,st963	"&
    003477  aa   000006 000631    3242  	zero	t6,st409	"+
    003500  aa   000010 000662    3243  	zero	t8,st434	"-
                        000003    3244  	equ	ln1239,*-dpda-st1239-1
                                  3245  "
                                  3246  " State 1243
                        002333    3247  	equ	st1243,*-dpda
    003501  aa   000014 000002    3248  	zero	aplyp1,ln1243
    003502  aa   000000 000000    3249  	zero	0,0   sd/RFU
    003503  aa   000145 002352    3250  	zero	101,st1258	prod/val
                        000002    3251  	equ	ln1243,*-dpda-st1243-1
                                  3252  "
                                  3253  " State 1246
                        002336    3254  	equ	st1246,*-dpda
    003504  aa   000011 000013    3255  	zero	nsrd,ln1246
    003505  aa   000000 774462    3256  	zero	t0,-st1742	"EOI
    003506  aa   000001 774462    3257  	zero	t1,-st1742	"&
    003507  aa   000004 774462    3258  	zero	t4,-st1742	")
    003510  aa   000006 774471    3259  	zero	t6,-st1735	"+
    003511  aa   000010 774471    3260  	zero	t8,-st1735	"-
    003512  aa   000016 774462    3261  	zero	t14,-st1742	"-differ
    003513  aa   000021 774462    3262  	zero	t17,-st1742	"-group_by
    003514  aa   000023 774462    3263  	zero	t19,-st1742	"-inter
    003515  aa   000036 774462    3264  	zero	t30,-st1742	"-order_by
    003516  aa   000043 774462    3265  	zero	t35,-st1742	"-union
    003517  aa   000067 774462    3266  	zero	t55,-st1742	"|
                        000013    3267  	equ	ln1246,*-dpda-st1246-1
                                  3268  "
                                  3269  " State 1258
                        002352    3270  	equ	st1258,*-dpda
    003520  aa   000014 000002    3271  	zero	aplyp1,ln1258
    003521  aa   000002 000002    3272  	zero	2,2   sd/RFU
    003522  aa   000105 001263    3273  	zero	69,st691	prod/val
                        000002    3274  	equ	ln1258,*-dpda-st1258-1
                                  3275  "
                                  3276  " State 1261
                        002355    3277  	equ	st1261,*-dpda
    003523  aa   000014 000002    3278  	zero	aplyp1,ln1261
    003524  aa   000001 000001    3279  	zero	1,1   sd/RFU
    003525  aa   000135 001636    3280  	zero	93,st926	prod/val
                        000002    3281  	equ	ln1261,*-dpda-st1261-1
                                  3282  "
                                  3283  " State 1264
                        002360    3284  	equ	st1264,*-dpda
    003526  aa   000014 000002    3285  	zero	aplyp1,ln1264
    003527  aa   000001 000001    3286  	zero	1,1   sd/RFU
    003530  aa   000134 001636    3287  	zero	92,st926	prod/val
                        000002    3288  	equ	ln1264,*-dpda-st1264-1
                                  3289  "
                                  3290  " State 1267
                        002363    3291  	equ	st1267,*-dpda
    003531  aa   000011 000013    3292  	zero	nsrd,ln1267
    003532  aa   000000 776762    3293  	zero	t0,-st526	"EOI
    003533  aa   000001 776762    3294  	zero	t1,-st526	"&
    003534  aa   000004 776762    3295  	zero	t4,-st526	")
    003535  aa   000006 774470    3296  	zero	t6,-st1736	"+
    003536  aa   000010 774470    3297  	zero	t8,-st1736	"-
    003537  aa   000016 776762    3298  	zero	t14,-st526	"-differ
    003540  aa   000021 776762    3299  	zero	t17,-st526	"-group_by
    003541  aa   000023 776762    3300  	zero	t19,-st526	"-inter
    003542  aa   000036 776762    3301  	zero	t30,-st526	"-order_by
    003543  aa   000043 776762    3302  	zero	t35,-st526	"-union
    003544  aa   000067 776762    3303  	zero	t55,-st526	"|
                        000013    3304  	equ	ln1267,*-dpda-st1267-1
                                  3305  "
                                  3306  " State 1279
                        002377    3307  	equ	st1279,*-dpda
    003545  aa   000014 000002    3308  	zero	aplyp1,ln1279
    003546  aa   000002 000002    3309  	zero	2,2   sd/RFU
    003547  aa   000103 001263    3310  	zero	67,st691	prod/val
                        000002    3311  	equ	ln1279,*-dpda-st1279-1
                                  3312  "
                                  3313  " State 1282
                        002402    3314  	equ	st1282,*-dpda
    003550  aa   000000 000013    3315  	zero	strd,ln1282
    003551  aa   000002 002551    3316  	zero	t2,st1385	"(
    003552  aa   000006 000631    3317  	zero	t6,st409	"+
    003553  aa   000010 000662    3318  	zero	t8,st434	"-
    003554  aa   000041 000077    3319  	zero	t33,st63	"-range
    003555  aa   000042 000103    3320  	zero	t34,st67	"-select
    003556  aa   000046 000417    3321  	zero	t38,st271	".V.
    003557  aa   000047 001352    3322  	zero	t39,st746	".X.
    003560  aa   000054 000665    3323  	zero	t44,st437	"<bit_string>
    003561  aa   000055 000716    3324  	zero	t45,st462	"<integer>
    003562  aa   000056 000721    3325  	zero	t46,st465	"<string>
    003563  aa   000057 000724    3326  	zero	t47,st468	"<symbol>
                        000013    3327  	equ	ln1282,*-dpda-st1282-1
                                  3328  "
                                  3329  " State 1294
                        002416    3330  	equ	st1294,*-dpda
    003564  aa   000000 000010    3331  	zero	strd,ln1294
    003565  aa   000002 000067    3332  	zero	t2,st55	"(
    003566  aa   000041 000077    3333  	zero	t33,st63	"-range
    003567  aa   000042 000103    3334  	zero	t34,st67	"-select
    003570  aa   000046 000417    3335  	zero	t38,st271	".V.
    003571  aa   000047 001352    3336  	zero	t39,st746	".X.
    003572  aa   000054 000665    3337  	zero	t44,st437	"<bit_string>
    003573  aa   000055 000716    3338  	zero	t45,st462	"<integer>
    003574  aa   000056 000721    3339  	zero	t46,st465	"<string>
                        000010    3340  	equ	ln1294,*-dpda-st1294-1
                                  3341  "
                                  3342  " State 1303
                        002427    3343  	equ	st1303,*-dpda
    003575  aa   000011 000011    3344  	zero	nsrd,ln1303
    003576  aa   000000 774566    3345  	zero	t0,-st1674	"EOI
    003577  aa   000001 774574    3346  	zero	t1,-st1668	"&
    003600  aa   000004 774566    3347  	zero	t4,-st1674	")
    003601  aa   000016 774566    3348  	zero	t14,-st1674	"-differ
    003602  aa   000021 774566    3349  	zero	t17,-st1674	"-group_by
    003603  aa   000023 774566    3350  	zero	t19,-st1674	"-inter
    003604  aa   000036 774566    3351  	zero	t30,-st1674	"-order_by
    003605  aa   000043 774566    3352  	zero	t35,-st1674	"-union
    003606  aa   000067 774566    3353  	zero	t55,-st1674	"|
                        000011    3354  	equ	ln1303,*-dpda-st1303-1
                                  3355  "
                                  3356  " State 1313
                        002441    3357  	equ	st1313,*-dpda
    003607  aa   000000 000005    3358  	zero	strd,ln1313
    003610  aa   000046 000417    3359  	zero	t38,st271	".V.
    003611  aa   000047 001352    3360  	zero	t39,st746	".X.
    003612  aa   000054 000665    3361  	zero	t44,st437	"<bit_string>
    003613  aa   000055 000716    3362  	zero	t45,st462	"<integer>
    003614  aa   000056 000721    3363  	zero	t46,st465	"<string>
                        000005    3364  	equ	ln1313,*-dpda-st1313-1
                                  3365  "
                                  3366  " State 1319
                        002447    3367  	equ	st1319,*-dpda
    003615  aa   000002 002441    3368  	zero	strds,st1313
                                  3369
                                  3370  "
                                  3371  " State 1320
                        002450    3372  	equ	st1320,*-dpda
    003616  aa   000011 000004    3373  	zero	nsrd,ln1320
    003617  aa   000004 774457    3374  	zero	t4,-st1745	")
    003620  aa   000016 777472    3375  	zero	t14,-st198	"-differ
    003621  aa   000023 777472    3376  	zero	t19,-st198	"-inter
    003622  aa   000043 777472    3377  	zero	t35,-st198	"-union
                        000004    3378  	equ	ln1320,*-dpda-st1320-1
                                  3379  "
                                  3380  " State 1325
                        002455    3381  	equ	st1325,*-dpda
    003623  aa   000000 000006    3382  	zero	strd,ln1325
    003624  aa   000046 000417    3383  	zero	t38,st271	".V.
    003625  aa   000054 000665    3384  	zero	t44,st437	"<bit_string>
    003626  aa   000055 000716    3385  	zero	t45,st462	"<integer>
    003627  aa   000056 000721    3386  	zero	t46,st465	"<string>
    003630  aa   000057 002111    3387  	zero	t47,st1097	"<symbol>
    003631  aa   000063 001373    3388  	zero	t51,st763	"[
                        000006    3389  	equ	ln1325,*-dpda-st1325-1
                                  3390  "
                                  3391  " State 1332
                        002464    3392  	equ	st1332,*-dpda
    003632  aa   000000 000001    3393  	zero	strd,ln1332
    003633  aa   000057 001456    3394  	zero	t47,st814	"<symbol>
                        000001    3395  	equ	ln1332,*-dpda-st1332-1
                                  3396  "
                                  3397  " State 1334
                        002466    3398  	equ	st1334,*-dpda
    003634  aa   000002 002464    3399  	zero	strds,st1332
                                  3400
                                  3401  "
                                  3402  " State 1335
                        002467    3403  	equ	st1335,*-dpda
    003635  aa   000002 002464    3404  	zero	strds,st1332
                                  3405
                                  3406  "
                                  3407  " State 1336
                        002470    3408  	equ	st1336,*-dpda
    003636  aa   000014 000002    3409  	zero	aplyp1,ln1336
    003637  aa   000000 000000    3410  	zero	0,0   sd/RFU
    003640  aa   000231 002107    3411  	zero	153,st1095	prod/val
                        000002    3412  	equ	ln1336,*-dpda-st1336-1
                                  3413  "
                                  3414  " State 1339
                        002473    3415  	equ	st1339,*-dpda
    003641  aa   000014 000002    3416  	zero	aplyp1,ln1339
    003642  aa   000000 000000    3417  	zero	0,0   sd/RFU
    003643  aa   000232 002107    3418  	zero	154,st1095	prod/val
                        000002    3419  	equ	ln1339,*-dpda-st1339-1
                                  3420  "
                                  3421  " State 1342
                        002476    3422  	equ	st1342,*-dpda
    003644  aa   000000 000001    3423  	zero	strd,ln1342
    003645  aa   000004 002636    3424  	zero	t4,st1438	")
                        000001    3425  	equ	ln1342,*-dpda-st1342-1
                                  3426  "
                                  3427  " State 1344
                        002500    3428  	equ	st1344,*-dpda
    003646  aa   000011 000006    3429  	zero	nsrd,ln1344
    003647  aa   000000 774442    3430  	zero	t0,-st1758	"EOI
    003650  aa   000006 774550    3431  	zero	t6,-st1688	"+
    003651  aa   000007 774442    3432  	zero	t7,-st1758	",
    003652  aa   000010 774550    3433  	zero	t8,-st1688	"-
    003653  aa   000013 774550    3434  	zero	t11,-st1688	"-ascending
    003654  aa   000015 774550    3435  	zero	t13,-st1688	"-descending
                        000006    3436  	equ	ln1344,*-dpda-st1344-1
                                  3437  "
                                  3438  " State 1351
                        002507    3439  	equ	st1351,*-dpda
    003655  aa   000013 000003    3440  	zero	aplyp,ln1351
    003656  aa   000003 000003    3441  	zero	3,3   sd/RFU
    003657  aa   000050 000340    3442  	zero	40,st224	prod/val
    003660  aa   002762 001422    3443  	zero	st1522,st786
                        000003    3444  	equ	ln1351,*-dpda-st1351-1
                                  3445  "
                                  3446  " State 1355
                        002513    3447  	equ	st1355,*-dpda
    003661  aa   000013 000022    3448  	zero	aplyp,ln1355
    003662  aa   000003 000003    3449  	zero	3,3   sd/RFU
    003663  aa   000213 001034    3450  	zero	139,st540	prod/val
    003664  aa   000156 000546    3451  	zero	st110,st358
    003665  aa   000166 000546    3452  	zero	st118,st358
    003666  aa   000167 000546    3453  	zero	st119,st358
    003667  aa   000170 000546    3454  	zero	st120,st358
    003670  aa   000171 000546    3455  	zero	st121,st358
    003671  aa   000172 000546    3456  	zero	st122,st358
    003672  aa   000173 000546    3457  	zero	st123,st358
    003673  aa   000245 001112    3458  	zero	st165,st586
    003674  aa   000261 001112    3459  	zero	st177,st586
    003675  aa   000262 001112    3460  	zero	st178,st586
    003676  aa   000263 001112    3461  	zero	st179,st586
    003677  aa   000527 000546    3462  	zero	st343,st358
    003700  aa   000535 000546    3463  	zero	st349,st358
    003701  aa   001042 001112    3464  	zero	st546,st586
    003702  aa   001333 001112    3465  	zero	st731,st586
    003703  aa   001351 001112    3466  	zero	st745,st586
                        000022    3467  	equ	ln1355,*-dpda-st1355-1
                                  3468  "
                                  3469  " State 1374
                        002536    3470  	equ	st1374,*-dpda
    003704  aa   000013 000004    3471  	zero	aplyp,ln1374
    003705  aa   000000 000000    3472  	zero	0,0   sd/RFU
    003706  aa   000225 001770    3473  	zero	149,st1016	prod/val
    003707  aa   002441 002566    3474  	zero	st1313,st1398
    003710  aa   002447 002571    3475  	zero	st1319,st1401
                        000004    3476  	equ	ln1374,*-dpda-st1374-1
                                  3477  "
                                  3478  " State 1379
                        002543    3479  	equ	st1379,*-dpda
    003711  aa   000015 000002    3480  	zero	aplyps,ln1379
    003712  aa   000000 000000    3481  	zero	0,0   sd/RFU
    003713  aa   000224 002536    3482  	zero	148,st1374	prod/val
                        000002    3483  	equ	ln1379,*-dpda-st1379-1
                                  3484  "
                                  3485  " State 1382
                        002546    3486  	equ	st1382,*-dpda
    003714  aa   000015 000002    3487  	zero	aplyps,ln1382
    003715  aa   000000 000000    3488  	zero	0,0   sd/RFU
    003716  aa   000223 002536    3489  	zero	147,st1374	prod/val
                        000002    3490  	equ	ln1382,*-dpda-st1382-1
                                  3491  "
                                  3492  " State 1385
                        002551    3493  	equ	st1385,*-dpda
    003717  aa   000000 000012    3494  	zero	strd,ln1385
    003720  aa   000002 002551    3495  	zero	t2,st1385	"(
    003721  aa   000006 000631    3496  	zero	t6,st409	"+
    003722  aa   000010 000662    3497  	zero	t8,st434	"-
    003723  aa   000041 000077    3498  	zero	t33,st63	"-range
    003724  aa   000042 000103    3499  	zero	t34,st67	"-select
    003725  aa   000046 000417    3500  	zero	t38,st271	".V.
    003726  aa   000054 000665    3501  	zero	t44,st437	"<bit_string>
    003727  aa   000055 000716    3502  	zero	t45,st462	"<integer>
    003730  aa   000056 000721    3503  	zero	t46,st465	"<string>
    003731  aa   000057 000724    3504  	zero	t47,st468	"<symbol>
                        000012    3505  	equ	ln1385,*-dpda-st1385-1
                                  3506  "
                                  3507  " State 1396
                        002564    3508  	equ	st1396,*-dpda
    003732  aa   000000 000001    3509  	zero	strd,ln1396
    003733  aa   000004 002672    3510  	zero	t4,st1466	")
                        000001    3511  	equ	ln1396,*-dpda-st1396-1
                                  3512  "
                                  3513  " State 1398
                        002566    3514  	equ	st1398,*-dpda
    003734  aa   000014 000002    3515  	zero	aplyp1,ln1398
    003735  aa   000002 000002    3516  	zero	2,2   sd/RFU
    003736  aa   000221 001772    3517  	zero	145,st1018	prod/val
                        000002    3518  	equ	ln1398,*-dpda-st1398-1
                                  3519  "
                                  3520  " State 1401
                        002571    3521  	equ	st1401,*-dpda
    003737  aa   000014 000002    3522  	zero	aplyp1,ln1401
    003740  aa   000002 000002    3523  	zero	2,2   sd/RFU
    003741  aa   000222 001772    3524  	zero	146,st1018	prod/val
                        000002    3525  	equ	ln1401,*-dpda-st1401-1
                                  3526  "
                                  3527  " State 1404
                        002574    3528  	equ	st1404,*-dpda
    003742  aa   000000 000001    3529  	zero	strd,ln1404
    003743  aa   000045 002467    3530  	zero	t37,st1335	".
                        000001    3531  	equ	ln1404,*-dpda-st1404-1
                                  3532  "
                                  3533  " State 1406
                        002576    3534  	equ	st1406,*-dpda
    003744  aa   000013 000003    3535  	zero	aplyp,ln1406
    003745  aa   000000 000000    3536  	zero	0,0   sd/RFU
    003746  aa   000212 002616    3537  	zero	138,st1422	prod/val
    003747  aa   002621 002675    3538  	zero	st1425,st1469
                        000003    3539  	equ	ln1406,*-dpda-st1406-1
                                  3540  "
                                  3541  " State 1410
                        002602    3542  	equ	st1410,*-dpda
    003750  aa   000015 000002    3543  	zero	aplyps,ln1410
    003751  aa   000000 000000    3544  	zero	0,0   sd/RFU
    003752  aa   000211 002576    3545  	zero	137,st1406	prod/val
                        000002    3546  	equ	ln1410,*-dpda-st1410-1
                                  3547  "
                                  3548  " State 1413
                        002605    3549  	equ	st1413,*-dpda
    003753  aa   000015 000002    3550  	zero	aplyps,ln1413
    003754  aa   000000 000000    3551  	zero	0,0   sd/RFU
    003755  aa   000207 002576    3552  	zero	135,st1406	prod/val
                        000002    3553  	equ	ln1413,*-dpda-st1413-1
                                  3554  "
                                  3555  " State 1416
                        002610    3556  	equ	st1416,*-dpda
    003756  aa   000015 000002    3557  	zero	aplyps,ln1416
    003757  aa   000002 000002    3558  	zero	2,2   sd/RFU
    003760  aa   000210 002576    3559  	zero	136,st1406	prod/val
                        000002    3560  	equ	ln1416,*-dpda-st1416-1
                                  3561  "
                                  3562  " State 1419
                        002613    3563  	equ	st1419,*-dpda
    003761  aa   000015 000002    3564  	zero	aplyps,ln1419
    003762  aa   000002 000002    3565  	zero	2,2   sd/RFU
    003763  aa   000206 002576    3566  	zero	134,st1406	prod/val
                        000002    3567  	equ	ln1419,*-dpda-st1419-1
                                  3568  "
                                  3569  " State 1422
                        002616    3570  	equ	st1422,*-dpda
    003764  aa   000014 000002    3571  	zero	aplyp1,ln1422
    003765  aa   000000 000000    3572  	zero	0,0   sd/RFU
    003766  aa   000204 002621    3573  	zero	132,st1425	prod/val
                        000002    3574  	equ	ln1422,*-dpda-st1422-1
                                  3575  "
                                  3576  " State 1425
                        002621    3577  	equ	st1425,*-dpda
    003767  aa   000000 000007    3578  	zero	strd,ln1425
    003770  aa   000004 002700    3579  	zero	t4,st1472	")
    003771  aa   000046 000417    3580  	zero	t38,st271	".V.
    003772  aa   000054 000665    3581  	zero	t44,st437	"<bit_string>
    003773  aa   000055 000716    3582  	zero	t45,st462	"<integer>
    003774  aa   000056 000721    3583  	zero	t46,st465	"<string>
    003775  aa   000057 002111    3584  	zero	t47,st1097	"<symbol>
    003776  aa   000063 001373    3585  	zero	t51,st763	"[
                        000007    3586  	equ	ln1425,*-dpda-st1425-1
                                  3587  "
                                  3588  " State 1433
                        002631    3589  	equ	st1433,*-dpda
    003777  aa   000013 000004    3590  	zero	aplyp,ln1433
    004000  aa   000002 000002    3591  	zero	2,2   sd/RFU
    004001  aa   000175 002064    3592  	zero	125,st1076	prod/val
    004002  aa   002100 002476    3593  	zero	st1088,st1342
    004003  aa   002110 002644    3594  	zero	st1096,st1444
                        000004    3595  	equ	ln1433,*-dpda-st1433-1
                                  3596  "
                                  3597  " State 1438
                        002636    3598  	equ	st1438,*-dpda
    004004  aa   000011 000005    3599  	zero	nsrd,ln1438
    004005  aa   000005 775732    3600  	zero	t5,-st1062	"*
    004006  aa   000006 775732    3601  	zero	t6,-st1062	"+
    004007  aa   000010 775732    3602  	zero	t8,-st1062	"-
    004010  aa   000050 775732    3603  	zero	t40,-st1062	"/
    004011  aa   000064 775705    3604  	zero	t52,-st1083	"]
                        000005    3605  	equ	ln1438,*-dpda-st1438-1
                                  3606  "
                                  3607  " State 1444
                        002644    3608  	equ	st1444,*-dpda
    004012  aa   000000 000001    3609  	zero	strd,ln1444
    004013  aa   000004 002046    3610  	zero	t4,st1062	")
                        000001    3611  	equ	ln1444,*-dpda-st1444-1
                                  3612  "
                                  3613  " State 1446
                        002646    3614  	equ	st1446,*-dpda
    004014  aa   000014 000002    3615  	zero	aplyp1,ln1446
    004015  aa   000003 000003    3616  	zero	3,3   sd/RFU
    004016  aa   000032 001406    3617  	zero	26,st774	prod/val
                        000002    3618  	equ	ln1446,*-dpda-st1446-1
                                  3619  "
                                  3620  " State 1449
                        002651    3621  	equ	st1449,*-dpda
    004017  aa   000011 000004    3622  	zero	nsrd,ln1449
    004020  aa   000004 774437    3623  	zero	t4,-st1761	")
    004021  aa   000006 774467    3624  	zero	t6,-st1737	"+
    004022  aa   000007 774437    3625  	zero	t7,-st1761	",
    004023  aa   000010 774467    3626  	zero	t8,-st1737	"-
                        000004    3627  	equ	ln1449,*-dpda-st1449-1
                                  3628  "
                                  3629  " State 1454
                        002656    3630  	equ	st1454,*-dpda
    004024  aa   000011 000013    3631  	zero	nsrd,ln1454
    004025  aa   000000 774434    3632  	zero	t0,-st1764	"EOI
    004026  aa   000001 774434    3633  	zero	t1,-st1764	"&
    004027  aa   000004 774434    3634  	zero	t4,-st1764	")
    004030  aa   000006 774466    3635  	zero	t6,-st1738	"+
    004031  aa   000010 774466    3636  	zero	t8,-st1738	"-
    004032  aa   000016 774434    3637  	zero	t14,-st1764	"-differ
    004033  aa   000021 774434    3638  	zero	t17,-st1764	"-group_by
    004034  aa   000023 774434    3639  	zero	t19,-st1764	"-inter
    004035  aa   000036 774434    3640  	zero	t30,-st1764	"-order_by
    004036  aa   000043 774434    3641  	zero	t35,-st1764	"-union
    004037  aa   000067 774434    3642  	zero	t55,-st1764	"|
                        000013    3643  	equ	ln1454,*-dpda-st1454-1
                                  3644  "
                                  3645  " State 1466
                        002672    3646  	equ	st1466,*-dpda
    004040  aa   000014 000002    3647  	zero	aplyp1,ln1466
    004041  aa   000004 000004    3648  	zero	4,4   sd/RFU
    004042  aa   000104 001263    3649  	zero	68,st691	prod/val
                        000002    3650  	equ	ln1466,*-dpda-st1466-1
                                  3651  "
                                  3652  " State 1469
                        002675    3653  	equ	st1469,*-dpda
    004043  aa   000014 000002    3654  	zero	aplyp1,ln1469
    004044  aa   000001 000001    3655  	zero	1,1   sd/RFU
    004045  aa   000205 002621    3656  	zero	133,st1425	prod/val
                        000002    3657  	equ	ln1469,*-dpda-st1469-1
                                  3658  "
                                  3659  " State 1472
                        002700    3660  	equ	st1472,*-dpda
    004046  aa   000013 000006    3661  	zero	aplyp,ln1472
    004047  aa   000003 000003    3662  	zero	3,3   sd/RFU
    004050  aa   000203 002040    3663  	zero	131,st1056	prod/val
    004051  aa   001364 002051    3664  	zero	st756,st1065
    004052  aa   001373 002051    3665  	zero	st763,st1065
    004053  aa   002455 002605    3666  	zero	st1325,st1413
    004054  aa   002621 002605    3667  	zero	st1425,st1413
                        000006    3668  	equ	ln1472,*-dpda-st1472-1
                                  3669  "
                                  3670  " State 1479
                        002707    3671  	equ	st1479,*-dpda
    004055  aa   000000 000001    3672  	zero	strd,ln1479
    004056  aa   000064 002613    3673  	zero	t52,st1419	"]
                        000001    3674  	equ	ln1479,*-dpda-st1479-1
                                  3675  "
                                  3676  " State 1481
                        002711    3677  	equ	st1481,*-dpda
    004057  aa   000000 000002    3678  	zero	strd,ln1481
    004060  aa   000021 000166    3679  	zero	t17,st118	"-group_by
    004061  aa   000044 000245    3680  	zero	t36,st165	"-where
                        000002    3681  	equ	ln1481,*-dpda-st1481-1
                                  3682  "
                                  3683  " State 1484
                        002714    3684  	equ	st1484,*-dpda
    004062  aa   000014 000002    3685  	zero	aplyp1,ln1484
    004063  aa   000000 000000    3686  	zero	0,0   sd/RFU
    004064  aa   000016 000027    3687  	zero	14,st23	prod/val
                        000002    3688  	equ	ln1484,*-dpda-st1484-1
                                  3689  "
                                  3690  " State 1487
                        002717    3691  	equ	st1487,*-dpda
    004065  aa   000000 000004    3692  	zero	strd,ln1487
    004066  aa   000016 000264    3693  	zero	t14,st180	"-differ
    004067  aa   000023 000267    3694  	zero	t19,st183	"-inter
    004070  aa   000036 000167    3695  	zero	t30,st119	"-order_by
    004071  aa   000043 000272    3696  	zero	t35,st186	"-union
                        000004    3697  	equ	ln1487,*-dpda-st1487-1
                                  3698  "
                                  3699  " State 1492
                        002724    3700  	equ	st1492,*-dpda
    004072  aa   000014 000002    3701  	zero	aplyp1,ln1492
    004073  aa   000000 000000    3702  	zero	0,0   sd/RFU
    004074  aa   000003 000065    3703  	zero	3,st53	prod/val
                        000002    3704  	equ	ln1492,*-dpda-st1492-1
                                  3705  "
                                  3706  " State 1495
                        002727    3707  	equ	st1495,*-dpda
    004075  aa   000000 000002    3708  	zero	strd,ln1495
    004076  aa   000002 000156    3709  	zero	t2,st110	"(
    004077  aa   000057 000203    3710  	zero	t47,st131	"<symbol>
                        000002    3711  	equ	ln1495,*-dpda-st1495-1
                                  3712  "
                                  3713  " State 1498
                        002732    3714  	equ	st1498,*-dpda
    004100  aa   000002 002727    3715  	zero	strds,st1495
                                  3716
                                  3717  "
                                  3718  " State 1499
                        002733    3719  	equ	st1499,*-dpda
    004101  aa   000002 002727    3720  	zero	strds,st1495
                                  3721
                                  3722  "
                                  3723  " State 1500
                        002734    3724  	equ	st1500,*-dpda
    004102  aa   000014 000002    3725  	zero	aplyp1,ln1500
    004103  aa   000000 000000    3726  	zero	0,0   sd/RFU
    004104  aa   000004 000062    3727  	zero	4,st50	prod/val
                        000002    3728  	equ	ln1500,*-dpda-st1500-1
                                  3729  "
                                  3730  " State 1503
                        002737    3731  	equ	st1503,*-dpda
    004105  aa   000000 000002    3732  	zero	strd,ln1503
    004106  aa   000017 000460    3733  	zero	t15,st304	"-distinct
    004107  aa   000020 000463    3734  	zero	t16,st307	"-dup
                        000002    3735  	equ	ln1503,*-dpda-st1503-1
                                  3736  "
                                  3737  " State 1506
                        002742    3738  	equ	st1506,*-dpda
    004110  aa   000014 000002    3739  	zero	aplyp1,ln1506
    004111  aa   000000 000000    3740  	zero	0,0   sd/RFU
    004112  aa   000056 000006    3741  	zero	46,st6	prod/val
                        000002    3742  	equ	ln1506,*-dpda-st1506-1
                                  3743  "
                                  3744  " State 1509
                        002745    3745  	equ	st1509,*-dpda
    004113  aa   000000 000001    3746  	zero	strd,ln1509
    004114  aa   000051 000470    3747  	zero	t41,st312	"::
                        000001    3748  	equ	ln1509,*-dpda-st1509-1
                                  3749  "
                                  3750  " State 1511
                        002747    3751  	equ	st1511,*-dpda
    004115  aa   000000 000001    3752  	zero	strd,ln1511
    004116  aa   000021 000166    3753  	zero	t17,st118	"-group_by
                        000001    3754  	equ	ln1511,*-dpda-st1511-1
                                  3755  "
                                  3756  " State 1513
                        002751    3757  	equ	st1513,*-dpda
    004117  aa   000014 000002    3758  	zero	aplyp1,ln1513
    004120  aa   000000 000000    3759  	zero	0,0   sd/RFU
    004121  aa   000022 000242    3760  	zero	18,st162	prod/val
                        000002    3761  	equ	ln1513,*-dpda-st1513-1
                                  3762  "
                                  3763  " State 1516
                        002754    3764  	equ	st1516,*-dpda
    004122  aa   000014 000002    3765  	zero	aplyp1,ln1516
    004123  aa   000001 000001    3766  	zero	1,1   sd/RFU
    004124  aa   000005 000062    3767  	zero	5,st50	prod/val
                        000002    3768  	equ	ln1516,*-dpda-st1516-1
                                  3769  "
                                  3770  " State 1519
                        002757    3771  	equ	st1519,*-dpda
    004125  aa   000014 000002    3772  	zero	aplyp1,ln1519
    004126  aa   000000 000000    3773  	zero	0,0   sd/RFU
    004127  aa   000044 000356    3774  	zero	36,st238	prod/val
                        000002    3775  	equ	ln1519,*-dpda-st1519-1
                                  3776  "
                                  3777  " State 1522
                        002762    3778  	equ	st1522,*-dpda
    004130  aa   000000 000001    3779  	zero	strd,ln1522
    004131  aa   000002 000414    3780  	zero	t2,st268	"(
                        000001    3781  	equ	ln1522,*-dpda-st1522-1
                                  3782  "
                                  3783  " State 1524
                        002764    3784  	equ	st1524,*-dpda
    004132  aa   000014 000002    3785  	zero	aplyp1,ln1524
    004133  aa   000000 000000    3786  	zero	0,0   sd/RFU
    004134  aa   000037 000410    3787  	zero	31,st264	prod/val
                        000002    3788  	equ	ln1524,*-dpda-st1524-1
                                  3789  "
                                  3790  " State 1527
                        002767    3791  	equ	st1527,*-dpda
    004135  aa   000000 000001    3792  	zero	strd,ln1527
    004136  aa   000003 001425    3793  	zero	t3,st789	"(+)
                        000001    3794  	equ	ln1527,*-dpda-st1527-1
                                  3795  "
                                  3796  " State 1529
                        002771    3797  	equ	st1529,*-dpda
    004137  aa   000000 000001    3798  	zero	strd,ln1529
    004140  aa   000007 001434    3799  	zero	t7,st796	",
                        000001    3800  	equ	ln1529,*-dpda-st1529-1
                                  3801  "
                                  3802  " State 1531
                        002773    3803  	equ	st1531,*-dpda
    004141  aa   000014 000002    3804  	zero	aplyp1,ln1531
    004142  aa   000000 000000    3805  	zero	0,0   sd/RFU
    004143  aa   000036 000410    3806  	zero	30,st264	prod/val
                        000002    3807  	equ	ln1531,*-dpda-st1531-1
                                  3808  "
                                  3809  " State 1534
                        002776    3810  	equ	st1534,*-dpda
    004144  aa   000013 000005    3811  	zero	aplyp,ln1534
    004145  aa   000000 000000    3812  	zero	0,0   sd/RFU
    004146  aa   000244 000525    3813  	zero	164,st341	prod/val
    004147  aa   000077 000321    3814  	zero	st63,st209
    004150  aa   001434 000321    3815  	zero	st796,st209
    004151  aa   001437 000321    3816  	zero	st799,st209
                        000005    3817  	equ	ln1534,*-dpda-st1534-1
                                  3818  "
                                  3819  " State 1540
                        003004    3820  	equ	st1540,*-dpda
    004152  aa   000000 000001    3821  	zero	strd,ln1540
    004153  aa   000070 000535    3822  	zero	t56,st349	"||
                        000001    3823  	equ	ln1540,*-dpda-st1540-1
                                  3824  "
                                  3825  " State 1542
                        003006    3826  	equ	st1542,*-dpda
    004154  aa   000002 003004    3827  	zero	strds,st1540
                                  3828
                                  3829  "
                                  3830  " State 1543
                        003007    3831  	equ	st1543,*-dpda
    004155  aa   000013 000003    3832  	zero	aplyp,ln1543
    004156  aa   000000 000000    3833  	zero	0,0   sd/RFU
    004157  aa   000150 000606    3834  	zero	104,st390	prod/val
    004160  aa   000172 002206    3835  	zero	st122,st1158
                        000003    3836  	equ	ln1543,*-dpda-st1543-1
                                  3837  "
                                  3838  " State 1547
                        003013    3839  	equ	st1547,*-dpda
    004161  aa   000015 000002    3840  	zero	aplyps,ln1547
    004162  aa   000002 000002    3841  	zero	2,2   sd/RFU
    004163  aa   000151 003007    3842  	zero	105,st1543	prod/val
                        000002    3843  	equ	ln1547,*-dpda-st1547-1
                                  3844  "
                                  3845  " State 1550
                        003016    3846  	equ	st1550,*-dpda
    004164  aa   000000 000002    3847  	zero	strd,ln1550
    004165  aa   000005 001525    3848  	zero	t5,st853	"*
    004166  aa   000050 001533    3849  	zero	t40,st859	"/
                        000002    3850  	equ	ln1550,*-dpda-st1550-1
                                  3851  "
                                  3852  " State 1553
                        003021    3853  	equ	st1553,*-dpda
    004167  aa   000002 003016    3854  	zero	strds,st1550
                                  3855
                                  3856  "
                                  3857  " State 1554
                        003022    3858  	equ	st1554,*-dpda
    004170  aa   000002 003016    3859  	zero	strds,st1550
                                  3860
                                  3861  "
                                  3862  " State 1555
                        003023    3863  	equ	st1555,*-dpda
    004171  aa   000002 003016    3864  	zero	strds,st1550
                                  3865
                                  3866  "
                                  3867  " State 1556
                        003024    3868  	equ	st1556,*-dpda
    004172  aa   000013 000006    3869  	zero	aplyp,ln1556
    004173  aa   000000 000000    3870  	zero	0,0   sd/RFU
    004174  aa   000146 000625    3871  	zero	102,st405	prod/val
    004175  aa   000166 000772    3872  	zero	st118,st506
    004176  aa   000167 001377    3873  	zero	st119,st767
    004177  aa   000170 001554    3874  	zero	st120,st876
    004200  aa   000173 002500    3875  	zero	st123,st1344
                        000006    3876  	equ	ln1556,*-dpda-st1556-1
                                  3877  "
                                  3878  " State 1563
                        003033    3879  	equ	st1563,*-dpda
    004201  aa   000015 000002    3880  	zero	aplyps,ln1563
    004202  aa   000002 000002    3881  	zero	2,2   sd/RFU
    004203  aa   000147 003024    3882  	zero	103,st1556	prod/val
                        000002    3883  	equ	ln1563,*-dpda-st1563-1
                                  3884  "
                                  3885  " State 1566
                        003036    3886  	equ	st1566,*-dpda
    004204  aa   000000 000001    3887  	zero	strd,ln1566
    004205  aa   000045 001560    3888  	zero	t37,st880	".
                        000001    3889  	equ	ln1566,*-dpda-st1566-1
                                  3890  "
                                  3891  " State 1568
                        003040    3892  	equ	st1568,*-dpda
    004206  aa   000013 000011    3893  	zero	aplyp,ln1568
    004207  aa   000000 000000    3894  	zero	0,0   sd/RFU
    004210  aa   000250 000472    3895  	zero	168,st314	prod/val
    004211  aa   001364 002025    3896  	zero	st756,st1045
    004212  aa   001373 002025    3897  	zero	st763,st1045
    004213  aa   002100 002025    3898  	zero	st1088,st1045
    004214  aa   002107 002025    3899  	zero	st1095,st1045
    004215  aa   002110 002025    3900  	zero	st1096,st1045
    004216  aa   002455 002025    3901  	zero	st1325,st1045
    004217  aa   002621 002025    3902  	zero	st1425,st1045
                        000011    3903  	equ	ln1568,*-dpda-st1568-1
                                  3904  "
                                  3905  " State 1578
                        003052    3906  	equ	st1578,*-dpda
    004220  aa   000001 000001    3907  	zero	look,ln1578
    004221  aa   000057 774724    3908  	zero	t47,-st1580	"<symbol>
                        000001    3909  	equ	ln1578,*-dpda-st1578-1
                                  3910  "
                                  3911  " State 1580
                        003054    3912  	equ	st1580,*-dpda
    004222  aa   000001 000041    3913  	zero	look,ln1580
    004223  aa   000000 774742    3914  	zero	t0,-st1566	"EOI
    004224  aa   000001 774742    3915  	zero	t1,-st1566	"&
    004225  aa   000004 774742    3916  	zero	t4,-st1566	")
    004226  aa   000005 774742    3917  	zero	t5,-st1566	"*
    004227  aa   000006 774742    3918  	zero	t6,-st1566	"+
    004230  aa   000007 774742    3919  	zero	t7,-st1566	",
    004231  aa   000010 774742    3920  	zero	t8,-st1566	"-
    004232  aa   000013 774742    3921  	zero	t11,-st1566	"-ascending
    004233  aa   000015 774742    3922  	zero	t13,-st1566	"-descending
    004234  aa   000016 774742    3923  	zero	t14,-st1566	"-differ
    004235  aa   000021 774742    3924  	zero	t17,-st1566	"-group_by
    004236  aa   000022 774742    3925  	zero	t18,-st1566	"-having
    004237  aa   000023 774742    3926  	zero	t19,-st1566	"-inter
    004240  aa   000024 774742    3927  	zero	t20,-st1566	"-is_between
    004241  aa   000025 774742    3928  	zero	t21,-st1566	"-is_in
    004242  aa   000026 774742    3929  	zero	t22,-st1566	"-is_like
    004243  aa   000027 774742    3930  	zero	t23,-st1566	"-is_not_between
    004244  aa   000030 774742    3931  	zero	t24,-st1566	"-is_not_in
    004245  aa   000031 774742    3932  	zero	t25,-st1566	"-is_not_like
    004246  aa   000032 774742    3933  	zero	t26,-st1566	"-is_not_null
    004247  aa   000033 774742    3934  	zero	t27,-st1566	"-is_null
    004250  aa   000036 774742    3935  	zero	t30,-st1566	"-order_by
    004251  aa   000043 774742    3936  	zero	t35,-st1566	"-union
    004252  aa   000045 775002    3937  	zero	t37,-st1534	".
    004253  aa   000050 774742    3938  	zero	t40,-st1566	"/
    004254  aa   000052 774742    3939  	zero	t42,-st1566	"<
    004255  aa   000053 774742    3940  	zero	t43,-st1566	"<=
    004256  aa   000060 774742    3941  	zero	t48,-st1566	"=
    004257  aa   000061 774742    3942  	zero	t49,-st1566	">
    004260  aa   000062 774742    3943  	zero	t50,-st1566	">=
    004261  aa   000066 774742    3944  	zero	t54,-st1566	"^=
    004262  aa   000067 774742    3945  	zero	t55,-st1566	"|
    004263  aa   000070 774742    3946  	zero	t56,-st1566	"||
                        000041    3947  	equ	ln1580,*-dpda-st1580-1
                                  3948  "
                                  3949  " State 1614
                        003116    3950  	equ	st1614,*-dpda
    004264  aa   000000 000003    3951  	zero	strd,ln1614
    004265  aa   000006 000631    3952  	zero	t6,st409	"+
    004266  aa   000010 000662    3953  	zero	t8,st434	"-
    004267  aa   000022 000261    3954  	zero	t18,st177	"-having
                        000003    3955  	equ	ln1614,*-dpda-st1614-1
                                  3956  "
                                  3957  " State 1618
                        003122    3958  	equ	st1618,*-dpda
    004270  aa   000013 000003    3959  	zero	aplyp,ln1618
    004271  aa   000001 000001    3960  	zero	1,1   sd/RFU
    004272  aa   000025 000237    3961  	zero	21,st159	prod/val
    004273  aa   002747 000767    3962  	zero	st1511,st503
                        000003    3963  	equ	ln1618,*-dpda-st1618-1
                                  3964  "
                                  3965  " State 1622
                        003126    3966  	equ	st1622,*-dpda
    004274  aa   000015 000002    3967  	zero	aplyps,ln1622
    004275  aa   000003 000003    3968  	zero	3,3   sd/RFU
    004276  aa   000026 003122    3969  	zero	22,st1618	prod/val
                        000002    3970  	equ	ln1622,*-dpda-st1622-1
                                  3971  "
                                  3972  " State 1625
                        003131    3973  	equ	st1625,*-dpda
    004277  aa   000000 000002    3974  	zero	strd,ln1625
    004300  aa   000032 001565    3975  	zero	t26,st885	"-is_not_null
    004301  aa   000033 001570    3976  	zero	t27,st888	"-is_null
                        000002    3977  	equ	ln1625,*-dpda-st1625-1
                                  3978  "
                                  3979  " State 1628
                        003134    3980  	equ	st1628,*-dpda
    004302  aa   000014 000002    3981  	zero	aplyp1,ln1628
    004303  aa   000000 000000    3982  	zero	0,0   sd/RFU
    004304  aa   000121 001247    3983  	zero	81,st679	prod/val
                        000002    3984  	equ	ln1628,*-dpda-st1628-1
                                  3985  "
                                  3986  " State 1631
                        003137    3987  	equ	st1631,*-dpda
    004305  aa   000014 000002    3988  	zero	aplyp1,ln1631
    004306  aa   000000 000000    3989  	zero	0,0   sd/RFU
    004307  aa   000122 001247    3990  	zero	82,st679	prod/val
                        000002    3991  	equ	ln1631,*-dpda-st1631-1
                                  3992  "
                                  3993  " State 1634
                        003142    3994  	equ	st1634,*-dpda
    004310  aa   000000 000001    3995  	zero	strd,ln1634
    004311  aa   000070 001064    3996  	zero	t56,st564	"||
                        000001    3997  	equ	ln1634,*-dpda-st1634-1
                                  3998  "
                                  3999  " State 1636
                        003144    4000  	equ	st1636,*-dpda
    004312  aa   000002 003142    4001  	zero	strds,st1634
                                  4002
                                  4003  "
                                  4004  " State 1637
                        003145    4005  	equ	st1637,*-dpda
    004313  aa   000013 000003    4006  	zero	aplyp,ln1637
    004314  aa   000000 000000    4007  	zero	0,0   sd/RFU
    004315  aa   000163 001201    4008  	zero	115,st641	prod/val
    004316  aa   001517 002276    4009  	zero	st847,st1214
                        000003    4010  	equ	ln1637,*-dpda-st1637-1
                                  4011  "
                                  4012  " State 1641
                        003151    4013  	equ	st1641,*-dpda
    004317  aa   000015 000002    4014  	zero	aplyps,ln1641
    004320  aa   000002 000002    4015  	zero	2,2   sd/RFU
    004321  aa   000164 003145    4016  	zero	116,st1637	prod/val
                        000002    4017  	equ	ln1641,*-dpda-st1641-1
                                  4018  "
                                  4019  " State 1644
                        003154    4020  	equ	st1644,*-dpda
    004322  aa   000013 000015    4021  	zero	aplyp,ln1644
    004323  aa   000000 000000    4022  	zero	0,0   sd/RFU
    004324  aa   000161 001232    4023  	zero	113,st666	prod/val
    004325  aa   001333 001775    4024  	zero	st731,st1021
    004326  aa   001351 001775    4025  	zero	st745,st1021
    004327  aa   001504 002157    4026  	zero	st836,st1135
    004330  aa   001515 002240    4027  	zero	st845,st1184
    004331  aa   001520 002327    4028  	zero	st848,st1239
    004332  aa   001521 002651    4029  	zero	st849,st1449
    004333  aa   001522 002656    4030  	zero	st850,st1454
    004334  aa   001601 002336    4031  	zero	st897,st1246
    004335  aa   001636 002363    4032  	zero	st926,st1267
    004336  aa   002402 002240    4033  	zero	st1282,st1184
    004337  aa   002551 002240    4034  	zero	st1385,st1184
                        000015    4035  	equ	ln1644,*-dpda-st1644-1
                                  4036  "
                                  4037  " State 1658
                        003172    4038  	equ	st1658,*-dpda
    004340  aa   000015 000002    4039  	zero	aplyps,ln1658
    004341  aa   000002 000002    4040  	zero	2,2   sd/RFU
    004342  aa   000162 003154    4041  	zero	114,st1644	prod/val
                        000002    4042  	equ	ln1658,*-dpda-st1658-1
                                  4043  "
                                  4044  " State 1661
                        003175    4045  	equ	st1661,*-dpda
    004343  aa   000000 000004    4046  	zero	strd,ln1661
    004344  aa   000006 000631    4047  	zero	t6,st409	"+
    004345  aa   000010 000662    4048  	zero	t8,st434	"-
    004346  aa   000024 001573    4049  	zero	t20,st891	"-is_between
    004347  aa   000027 001576    4050  	zero	t23,st894	"-is_not_between
                        000004    4051  	equ	ln1661,*-dpda-st1661-1
                                  4052  "
                                  4053  " State 1666
                        003202    4054  	equ	st1666,*-dpda
    004350  aa   000000 000001    4055  	zero	strd,ln1666
    004351  aa   000001 001703    4056  	zero	t1,st963	"&
                        000001    4057  	equ	ln1666,*-dpda-st1666-1
                                  4058  "
                                  4059  " State 1668
                        003204    4060  	equ	st1668,*-dpda
    004352  aa   000002 003202    4061  	zero	strds,st1666
                                  4062
                                  4063  "
                                  4064  " State 1669
                        003205    4065  	equ	st1669,*-dpda
    004353  aa   000013 000004    4066  	zero	aplyp,ln1669
    004354  aa   000000 000000    4067  	zero	0,0   sd/RFU
    004355  aa   000073 002015    4068  	zero	59,st1037	prod/val
    004356  aa   000245 001322    4069  	zero	st165,st722
    004357  aa   000261 002230    4070  	zero	st177,st1176
                        000004    4071  	equ	ln1669,*-dpda-st1669-1
                                  4072  "
                                  4073  " State 1674
                        003212    4074  	equ	st1674,*-dpda
    004360  aa   000015 000002    4075  	zero	aplyps,ln1674
    004361  aa   000002 000002    4076  	zero	2,2   sd/RFU
    004362  aa   000074 003205    4077  	zero	60,st1669	prod/val
                        000002    4078  	equ	ln1674,*-dpda-st1674-1
                                  4079  "
                                  4080  " State 1677
                        003215    4081  	equ	st1677,*-dpda
    004363  aa   000000 000001    4082  	zero	strd,ln1677
    004364  aa   000067 001707    4083  	zero	t55,st967	"|
                        000001    4084  	equ	ln1677,*-dpda-st1677-1
                                  4085  "
                                  4086  " State 1679
                        003217    4087  	equ	st1679,*-dpda
    004365  aa   000002 003215    4088  	zero	strds,st1677
                                  4089
                                  4090  "
                                  4091  " State 1680
                        003220    4092  	equ	st1680,*-dpda
    004366  aa   000014 000002    4093  	zero	aplyp1,ln1680
    004367  aa   000001 000001    4094  	zero	1,1   sd/RFU
    004370  aa   000072 000227    4095  	zero	58,st151	prod/val
                        000002    4096  	equ	ln1680,*-dpda-st1680-1
                                  4097  "
                                  4098  " State 1683
                        003223    4099  	equ	st1683,*-dpda
    004371  aa   000000 000004    4100  	zero	strd,ln1683
    004372  aa   000006 000631    4101  	zero	t6,st409	"+
    004373  aa   000010 000662    4102  	zero	t8,st434	"-
    004374  aa   000013 002117    4103  	zero	t11,st1103	"-ascending
    004375  aa   000015 002123    4104  	zero	t13,st1107	"-descending
                        000004    4105  	equ	ln1683,*-dpda-st1683-1
                                  4106  "
                                  4107  " State 1688
                        003230    4108  	equ	st1688,*-dpda
    004376  aa   000002 003223    4109  	zero	strds,st1683
                                  4110
                                  4111  "
                                  4112  " State 1689
                        003231    4113  	equ	st1689,*-dpda
    004377  aa   000014 000002    4114  	zero	aplyp1,ln1689
    004400  aa   000000 000000    4115  	zero	0,0   sd/RFU
    004401  aa   000027 001406    4116  	zero	23,st774	prod/val
                        000002    4117  	equ	ln1689,*-dpda-st1689-1
                                  4118  "
                                  4119  " State 1692
                        003234    4120  	equ	st1692,*-dpda
    004402  aa   000000 000001    4121  	zero	strd,ln1692
    004403  aa   000007 000173    4122  	zero	t7,st123	",
                        000001    4123  	equ	ln1692,*-dpda-st1692-1
                                  4124  "
                                  4125  " State 1694
                        003236    4126  	equ	st1694,*-dpda
    004404  aa   000014 000002    4127  	zero	aplyp1,ln1694
    004405  aa   000002 000002    4128  	zero	2,2   sd/RFU
    004406  aa   000002 000065    4129  	zero	2,st53	prod/val
                        000002    4130  	equ	ln1694,*-dpda-st1694-1
                                  4131  "
                                  4132  " State 1697
                        003241    4133  	equ	st1697,*-dpda
    004407  aa   000000 000001    4134  	zero	strd,ln1697
    004410  aa   000005 002151    4135  	zero	t5,st1129	"*
                        000001    4136  	equ	ln1697,*-dpda-st1697-1
                                  4137  "
                                  4138  " State 1699
                        003243    4139  	equ	st1699,*-dpda
    004411  aa   000014 000002    4140  	zero	aplyp1,ln1699
    004412  aa   000002 000002    4141  	zero	2,2   sd/RFU
    004413  aa   000070 000116    4142  	zero	56,st78	prod/val
                        000002    4143  	equ	ln1699,*-dpda-st1699-1
                                  4144  "
                                  4145  " State 1702
                        003246    4146  	equ	st1702,*-dpda
    004414  aa   000000 000001    4147  	zero	strd,ln1702
    004415  aa   000005 002225    4148  	zero	t5,st1173	"*
                        000001    4149  	equ	ln1702,*-dpda-st1702-1
                                  4150  "
                                  4151  " State 1704
                        003250    4152  	equ	st1704,*-dpda
    004416  aa   000014 000002    4153  	zero	aplyp1,ln1704
    004417  aa   000002 000002    4154  	zero	2,2   sd/RFU
    004420  aa   000066 000116    4155  	zero	54,st78	prod/val
                        000002    4156  	equ	ln1704,*-dpda-st1704-1
                                  4157  "
                                  4158  " State 1707
                        003253    4159  	equ	st1707,*-dpda
    004421  aa   000000 000002    4160  	zero	strd,ln1707
    004422  aa   000011 002355    4161  	zero	t9,st1261	"-all_of
    004423  aa   000012 002360    4162  	zero	t10,st1264	"-any_of
                        000002    4163  	equ	ln1707,*-dpda-st1707-1
                                  4164  "
                                  4165  " State 1710
                        003256    4166  	equ	st1710,*-dpda
    004424  aa   000014 000002    4167  	zero	aplyp1,ln1710
    004425  aa   000000 000000    4168  	zero	0,0   sd/RFU
    004426  aa   000133 001636    4169  	zero	91,st926	prod/val
                        000002    4170  	equ	ln1710,*-dpda-st1710-1
                                  4171  "
                                  4172  " State 1713
                        003261    4173  	equ	st1713,*-dpda
    004427  aa   000000 000001    4174  	zero	strd,ln1713
    004430  aa   000007 002447    4175  	zero	t7,st1319	",
                        000001    4176  	equ	ln1713,*-dpda-st1713-1
                                  4177  "
                                  4178  " State 1715
                        003263    4179  	equ	st1715,*-dpda
    004431  aa   000013 000003    4180  	zero	aplyp,ln1715
    004432  aa   000000 000000    4181  	zero	0,0   sd/RFU
    004433  aa   000115 002013    4182  	zero	77,st1035	prod/val
    004434  aa   002416 002564    4183  	zero	st1294,st1396
                        000003    4184  	equ	ln1715,*-dpda-st1715-1
                                  4185  "
                                  4186  " State 1719
                        003267    4187  	equ	st1719,*-dpda
    004435  aa   000015 000002    4188  	zero	aplyps,ln1719
    004436  aa   000000 000000    4189  	zero	0,0   sd/RFU
    004437  aa   000114 003263    4190  	zero	76,st1715	prod/val
                        000002    4191  	equ	ln1719,*-dpda-st1719-1
                                  4192  "
                                  4193  " State 1722
                        003272    4194  	equ	st1722,*-dpda
    004440  aa   000000 000005    4195  	zero	strd,ln1722
    004441  aa   000004 001037    4196  	zero	t4,st543	")
    004442  aa   000006 000631    4197  	zero	t6,st409	"+
    004443  aa   000010 000662    4198  	zero	t8,st434	"-
    004444  aa   000024 001573    4199  	zero	t20,st891	"-is_between
    004445  aa   000027 001576    4200  	zero	t23,st894	"-is_not_between
                        000005    4201  	equ	ln1722,*-dpda-st1722-1
                                  4202  "
                                  4203  " State 1728
                        003300    4204  	equ	st1728,*-dpda
    004446  aa   000000 000003    4205  	zero	strd,ln1728
    004447  aa   000016 000264    4206  	zero	t14,st180	"-differ
    004450  aa   000023 000267    4207  	zero	t19,st183	"-inter
    004451  aa   000043 000272    4208  	zero	t35,st186	"-union
                        000003    4209  	equ	ln1728,*-dpda-st1728-1
                                  4210  "
                                  4211  " State 1732
                        003304    4212  	equ	st1732,*-dpda
    004452  aa   000000 000002    4213  	zero	strd,ln1732
    004453  aa   000006 000631    4214  	zero	t6,st409	"+
    004454  aa   000010 000662    4215  	zero	t8,st434	"-
                        000002    4216  	equ	ln1732,*-dpda-st1732-1
                                  4217  "
                                  4218  " State 1735
                        003307    4219  	equ	st1735,*-dpda
    004455  aa   000002 003304    4220  	zero	strds,st1732
                                  4221
                                  4222  "
                                  4223  " State 1736
                        003310    4224  	equ	st1736,*-dpda
    004456  aa   000002 003304    4225  	zero	strds,st1732
                                  4226
                                  4227  "
                                  4228  " State 1737
                        003311    4229  	equ	st1737,*-dpda
    004457  aa   000002 003304    4230  	zero	strds,st1732
                                  4231
                                  4232  "
                                  4233  " State 1738
                        003312    4234  	equ	st1738,*-dpda
    004460  aa   000002 003304    4235  	zero	strds,st1732
                                  4236
                                  4237  "
                                  4238  " State 1739
                        003313    4239  	equ	st1739,*-dpda
    004461  aa   000014 000002    4240  	zero	aplyp1,ln1739
    004462  aa   000000 000000    4241  	zero	0,0   sd/RFU
    004463  aa   000214 002154    4242  	zero	140,st1132	prod/val
                        000002    4243  	equ	ln1739,*-dpda-st1739-1
                                  4244  "
                                  4245  " State 1742
                        003316    4246  	equ	st1742,*-dpda
    004464  aa   000014 000002    4247  	zero	aplyp1,ln1742
    004465  aa   000000 000000    4248  	zero	0,0   sd/RFU
    004466  aa   000144 002352    4249  	zero	100,st1258	prod/val
                        000002    4250  	equ	ln1742,*-dpda-st1742-1
                                  4251  "
                                  4252  " State 1745
                        003321    4253  	equ	st1745,*-dpda
    004467  aa   000001 000014    4254  	zero	look,ln1745
    004470  aa   000004 777472    4255  	zero	t4,-st198	")
    004471  aa   000016 777472    4256  	zero	t14,-st198	"-differ
    004472  aa   000023 777472    4257  	zero	t19,-st198	"-inter
    004473  aa   000025 774511    4258  	zero	t21,-st1719	"-is_in
    004474  aa   000030 774511    4259  	zero	t24,-st1719	"-is_not_in
    004475  aa   000043 777472    4260  	zero	t35,-st198	"-union
    004476  aa   000052 774511    4261  	zero	t42,-st1719	"<
    004477  aa   000053 774511    4262  	zero	t43,-st1719	"<=
    004500  aa   000060 774511    4263  	zero	t48,-st1719	"=
    004501  aa   000061 774511    4264  	zero	t49,-st1719	">
    004502  aa   000062 774511    4265  	zero	t50,-st1719	">=
    004503  aa   000066 774511    4266  	zero	t54,-st1719	"^=
                        000014    4267  	equ	ln1745,*-dpda-st1745-1
                                  4268  "
                                  4269  " State 1758
                        003336    4270  	equ	st1758,*-dpda
    004504  aa   000014 000002    4271  	zero	aplyp1,ln1758
    004505  aa   000002 000002    4272  	zero	2,2   sd/RFU
    004506  aa   000031 001406    4273  	zero	25,st774	prod/val
                        000002    4274  	equ	ln1758,*-dpda-st1758-1
                                  4275  "
                                  4276  " State 1761
                        003341    4277  	equ	st1761,*-dpda
    004507  aa   000014 000002    4278  	zero	aplyp1,ln1761
    004510  aa   000002 000002    4279  	zero	2,2   sd/RFU
    004511  aa   000215 002154    4280  	zero	141,st1132	prod/val
                        000002    4281  	equ	ln1761,*-dpda-st1761-1
                                  4282  "
                                  4283  " State 1764
                        003344    4284  	equ	st1764,*-dpda
    004512  aa   000014 000002    4285  	zero	aplyp1,ln1764
    004513  aa   000004 000004    4286  	zero	4,4   sd/RFU
    004514  aa   000107 001263    4287  	zero	71,st691	prod/val
                        000002    4288  	equ	ln1764,*-dpda-st1764-1
                        003346    4289  	equ	dpda_size,*-dpda-1
                                  4290
                                  4291  "
                                  4292  "
                                  4293  "	Skip Table
    004515  aa   000000 000002    4294  skip:	zero	0,skip_size
                        004515    4295  	segdef	skip
                                  4296
    004516  aa   000000 000000    4297  	zero	0,0
    004517  aa   000000 000000    4298  	zero	0,0
                        000002    4299  	equ	skip_size,*-skip-1
                                  4300
                        004520    4301  	segdef	standard_prelude
    004520                        4302  standard_prelude:
    004520  aa   000000 000000    4303  	zero	0,0
                                  4304  "
                                  4305  "
                                  4306  "	Production Names Table
    004521                        4307  pn: production_names:
    004521  aa   000000 000251    4308  	zero	0,169
                        004521    4309  	segdef	production_names
    004522  aa   777777 777777    4310  	zero	-1,-1
    004523  aa   777777 777776    4311  	zero	-1,-2
    004524  aa   777776 777775    4312  	zero	-2,-3
    004525  aa   777774 777774    4313  	zero	-4,-4
    004526  aa   777773 777773    4314  	zero	-5,-5
    004527  aa   777773 777772    4315  	zero	-5,-6
    004530  aa   777772 777771    4316  	zero	-6,-7
    004531  aa   777771 777770    4317  	zero	-7,-8
    004532  aa   777770 777767    4318  	zero	-8,-9
    004533  aa   777767 777767    4319  	zero	-9,-9
    004534  aa   777766 777766    4320  	zero	-10,-10
    004535  aa   777765 777765    4321  	zero	-11,-11
    004536  aa   777765 777765    4322  	zero	-11,-11
    004537  aa   777764 777764    4323  	zero	-12,-12
    004540  aa   777763 777762    4324  	zero	-13,-14
    004541  aa   777762 777761    4325  	zero	-14,-15
    004542  aa   777761 777760    4326  	zero	-15,-16
    004543  aa   777760 777757    4327  	zero	-16,-17
    004544  aa   777757 777756    4328  	zero	-17,-18
    004545  aa   777756 777755    4329  	zero	-18,-19
    004546  aa   777754 777754    4330  	zero	-20,-20
    004547  aa   777754 777753    4331  	zero	-20,-21
    004550  aa   777753 777752    4332  	zero	-21,-22
    004551  aa   777752 777752    4333  	zero	-22,-22
    004552  aa   777751 777751    4334  	zero	-23,-23
    004553  aa   777750 777750    4335  	zero	-24,-24
    004554  aa   777747 777747    4336  	zero	-25,-25
    004555  aa   777747 777747    4337  	zero	-25,-25
    004556  aa   777747 777746    4338  	zero	-25,-26
    004557  aa   777745 777745    4339  	zero	-27,-27
    004560  aa   777744 777744    4340  	zero	-28,-28
    004561  aa   777743 777743    4341  	zero	-29,-29
    004562  aa   777742 777742    4342  	zero	-30,-30
    004563  aa   777741 777741    4343  	zero	-31,-31
    004564  aa   777741 777741    4344  	zero	-31,-31
    004565  aa   777741 777740    4345  	zero	-31,-32
    004566  aa   777740 777740    4346  	zero	-32,-32
    004567  aa   777740 777737    4347  	zero	-32,-33
    004570  aa   777737 777736    4348  	zero	-33,-34
    004571  aa   777736 777736    4349  	zero	-34,-34
    004572  aa   777735 777735    4350  	zero	-35,-35
    004573  aa   777734 777734    4351  	zero	-36,-36
    004574  aa   777733 777733    4352  	zero	-37,-37
    004575  aa   777732 777732    4353  	zero	-38,-38
    004576  aa   777731 777731    4354  	zero	-39,-39
    004577  aa   777730 777730    4355  	zero	-40,-40
    004600  aa   777730 777727    4356  	zero	-40,-41
    004601  aa   777727 777727    4357  	zero	-41,-41
    004602  aa   777727 777727    4358  	zero	-41,-41
    004603  aa   777727 777726    4359  	zero	-41,-42
    004604  aa   777726 777725    4360  	zero	-42,-43
    004605  aa   777725 777724    4361  	zero	-43,-44
    004606  aa   777724 777723    4362  	zero	-44,-45
    004607  aa   777723 777723    4363  	zero	-45,-45
    004610  aa   777722 777722    4364  	zero	-46,-46
    004611  aa   777722 777722    4365  	zero	-46,-46
    004612  aa   777721 777721    4366  	zero	-47,-47
    004613  aa   777720 777720    4367  	zero	-48,-48
    004614  aa   777717 777717    4368  	zero	-49,-49
    004615  aa   777717 777716    4369  	zero	-49,-50
    004616  aa   777716 777716    4370  	zero	-50,-50
    004617  aa   777716 777716    4371  	zero	-50,-50
    004620  aa   777715 777714    4372  	zero	-51,-52
    004621  aa   777714 777714    4373  	zero	-52,-52
    004622  aa   777714 777714    4374  	zero	-52,-52
    004623  aa   777713 777712    4375  	zero	-53,-54
    004624  aa   777712 777711    4376  	zero	-54,-55
    004625  aa   777711 777711    4377  	zero	-55,-55
    004626  aa   777711 777711    4378  	zero	-55,-55
    004627  aa   777710 777707    4379  	zero	-56,-57
    004630  aa   777707 777706    4380  	zero	-57,-58
    004631  aa   777706 777706    4381  	zero	-58,-58
    004632  aa   777705 777705    4382  	zero	-59,-59
    004633  aa   777704 777704    4383  	zero	-60,-60
    004634  aa   777704 777703    4384  	zero	-60,-61
    004635  aa   777703 777703    4385  	zero	-61,-61
    004636  aa   777702 777702    4386  	zero	-62,-62
    004637  aa   777701 777701    4387  	zero	-63,-63
    004640  aa   777700 777700    4388  	zero	-64,-64
    004641  aa   777677 777676    4389  	zero	-65,-66
    004642  aa   777675 777674    4390  	zero	-67,-68
    004643  aa   777673 777672    4391  	zero	-69,-70
    004644  aa   777671 777670    4392  	zero	-71,-72
    004645  aa   777667 777666    4393  	zero	-73,-74
    004646  aa   777665 000000    4394  	zero	-75,0
                                  4395  "
                                  4396  "
                                  4397  "	Variables Tables
                                  4398  "
                                  4399  	use	uvc
    004663                        4400  vc: variable_characters:
    004663  aa   000000 002064    4401  	zero	0,4*variable_characters_size
                        004663    4402  	segdef	variable_characters
                                  4403  "
                                  4404  	use	uvl
    005301                        4405  vl: variables_list:
    005301  aa   000000 000113    4406  	zero	0,variables_list_size
                        005301    4407  	segdef	variables_list
                                  4408  "
                                  4409  "	Variable 1
                                  4410  	use	uvc
                        000000    4411  	set	vsl,*-vc-1
    004664  aa  074 163 145 154   4412  	aci	"<sel"
    004665  aa  145 143 164 151   4413  	aci	"ecti"
    004666  aa  157 156 137 145   4414  	aci	"on_e"
    004667  aa  170 160 162 145   4415  	aci	"xpre"
    004670  aa  163 163 151 157   4416  	aci	"ssio"
    004671  aa  156 076 040 040   4417  	aci	"n>  "
                                  4418  	use	uvl
                        000001    4419  	equ	v1,*-vl
    005302  aa   000001 000026    4420  	zero	4*vsl+1,22
                                  4421  "
                                  4422  "	Variable 2
                                  4423  	use	uvc
                        000006    4424  	set	vsl,*-vc-1
    004672  aa  074 143 165 162   4425  	aci	"<cur"
    004673  aa  162 145 156 164   4426  	aci	"rent"
    004674  aa  137 143 154 141   4427  	aci	"_cla"
    004675  aa  165 163 145 076   4428  	aci	"use>"
                                  4429  	use	uvl
                        000002    4430  	equ	v2,*-vl
    005303  aa   000031 000020    4431  	zero	4*vsl+1,16
                                  4432  "
                                  4433  "	Variable 3
                                  4434  	use	uvc
                        000012    4435  	set	vsl,*-vc-1
    004676  aa  074 143 165 162   4436  	aci	"<cur"
    004677  aa  162 145 156 164   4437  	aci	"rent"
    004700  aa  137 150 145 141   4438  	aci	"_hea"
    004701  aa  144 145 162 076   4439  	aci	"der>"
                                  4440  	use	uvl
                        000003    4441  	equ	v3,*-vl
    005304  aa   000051 000020    4442  	zero	4*vsl+1,16
                                  4443  "
                                  4444  "	Variable 4
                                  4445  	use	uvc
                        000016    4446  	set	vsl,*-vc-1
    004702  aa  074 161 165 145   4447  	aci	"<que"
    004703  aa  162 171 076 040   4448  	aci	"ry> "
                                  4449  	use	uvl
                        000004    4450  	equ	v4,*-vl
    005305  aa   000071 000007    4451  	zero	4*vsl+1,7
                                  4452  "
                                  4453  "	Variable 5
                                  4454  	use	uvc
                        000020    4455  	set	vsl,*-vc-1
    004704  aa  074 163 145 164   4456  	aci	"<set"
    004705  aa  137 157 160 076   4457  	aci	"_op>"
                                  4458  	use	uvl
                        000005    4459  	equ	v5,*-vl
    005306  aa   000101 000010    4460  	zero	4*vsl+1,8
                                  4461  "
                                  4462  "	Variable 6
                                  4463  	use	uvc
                        000022    4464  	set	vsl,*-vc-1
    004706  aa  074 161 165 145   4465  	aci	"<que"
    004707  aa  162 171 137 145   4466  	aci	"ry_e"
    004710  aa  170 160 162 145   4467  	aci	"xpre"
    004711  aa  163 163 151 157   4468  	aci	"ssio"
    004712  aa  156 076 040 040   4469  	aci	"n>  "
                                  4470  	use	uvl
                        000006    4471  	equ	v6,*-vl
    005307  aa   000111 000022    4472  	zero	4*vsl+1,18
                                  4473  "
                                  4474  "	Variable 7
                                  4475  	use	uvc
                        000027    4476  	set	vsl,*-vc-1
    004713  aa  074 161 165 145   4477  	aci	"<que"
    004714  aa  162 171 137 143   4478  	aci	"ry_c"
    004715  aa  154 141 165 163   4479  	aci	"laus"
    004716  aa  145 076 040 040   4480  	aci	"e>  "
                                  4481  	use	uvl
                        000007    4482  	equ	v7,*-vl
    005310  aa   000135 000016    4483  	zero	4*vsl+1,14
                                  4484  "
                                  4485  "	Variable 8
                                  4486  	use	uvc
                        000033    4487  	set	vsl,*-vc-1
    004717  aa  074 162 145 161   4488  	aci	"<req"
    004720  aa  165 151 162 145   4489  	aci	"uire"
    004721  aa  144 137 143 154   4490  	aci	"d_cl"
    004722  aa  141 165 163 145   4491  	aci	"ause"
    004723  aa  076 040 040 040   4492  	aci	">   "
                                  4493  	use	uvl
                        000010    4494  	equ	v8,*-vl
    005311  aa   000155 000021    4495  	zero	4*vsl+1,17
                                  4496  "
                                  4497  "	Variable 9
                                  4498  	use	uvc
                        000040    4499  	set	vsl,*-vc-1
    004724  aa  074 157 160 164   4500  	aci	"<opt"
    004725  aa  151 157 156 141   4501  	aci	"iona"
    004726  aa  154 137 143 154   4502  	aci	"l_cl"
    004727  aa  141 165 163 145   4503  	aci	"ause"
    004730  aa  163 076 040 040   4504  	aci	"s>  "
                                  4505  	use	uvl
                        000011    4506  	equ	v9,*-vl
    005312  aa   000201 000022    4507  	zero	4*vsl+1,18
                                  4508  "
                                  4509  "	Variable 10
                                  4510  	use	uvc
                        000045    4511  	set	vsl,*-vc-1
    004731  aa  074 147 162 157   4512  	aci	"<gro"
    004732  aa  165 160 137 143   4513  	aci	"up_c"
    004733  aa  154 141 165 163   4514  	aci	"laus"
    004734  aa  145 076 040 040   4515  	aci	"e>  "
                                  4516  	use	uvl
                        000012    4517  	equ	v10,*-vl
    005313  aa   000225 000016    4518  	zero	4*vsl+1,14
                                  4519  "
                                  4520  "	Variable 11
                                  4521  	use	uvc
                        000051    4522  	set	vsl,*-vc-1
    004735  aa  074 157 162 144   4523  	aci	"<ord"
    004736  aa  145 162 137 163   4524  	aci	"er_s"
    004737  aa  160 145 143 137   4525  	aci	"pec_"
    004740  aa  154 151 163 164   4526  	aci	"list"
    004741  aa  076 040 040 040   4527  	aci	">   "
                                  4528  	use	uvl
                        000013    4529  	equ	v11,*-vl
    005314  aa   000245 000021    4530  	zero	4*vsl+1,17
                                  4531  "
                                  4532  "	Variable 12
                                  4533  	use	uvc
                        000056    4534  	set	vsl,*-vc-1
    004742  aa  074 144 151 162   4535  	aci	"<dir"
    004743  aa  145 143 164 151   4536  	aci	"ecti"
    004744  aa  157 156 076 040   4537  	aci	"on> "
                                  4538  	use	uvl
                        000014    4539  	equ	v12,*-vl
    005315  aa   000271 000013    4540  	zero	4*vsl+1,11
                                  4541  "
                                  4542  "	Variable 13
                                  4543  	use	uvc
                        000061    4544  	set	vsl,*-vc-1
    004745  aa  074 162 141 156   4545  	aci	"<ran"
    004746  aa  147 145 137 143   4546  	aci	"ge_c"
    004747  aa  154 141 165 163   4547  	aci	"laus"
    004750  aa  145 076 040 040   4548  	aci	"e>  "
                                  4549  	use	uvl
                        000015    4550  	equ	v13,*-vl
    005316  aa   000305 000016    4551  	zero	4*vsl+1,14
                                  4552  "
                                  4553  "	Variable 14
                                  4554  	use	uvc
                        000065    4555  	set	vsl,*-vc-1
    004751  aa  074 162 141 156   4556  	aci	"<ran"
    004752  aa  147 145 137 144   4557  	aci	"ge_d"
    004753  aa  145 146 137 154   4558  	aci	"ef_l"
    004754  aa  151 163 164 076   4559  	aci	"ist>"
                                  4560  	use	uvl
                        000016    4561  	equ	v14,*-vl
    005317  aa   000325 000020    4562  	zero	4*vsl+1,16
                                  4563  "
                                  4564  "	Variable 15
                                  4565  	use	uvc
                        000071    4566  	set	vsl,*-vc-1
    004755  aa  074 163 161 154   4567  	aci	"<sql"
    004756  aa  137 162 141 156   4568  	aci	"_ran"
    004757  aa  147 145 137 144   4569  	aci	"ge_d"
    004760  aa  145 146 137 154   4570  	aci	"ef_l"
    004761  aa  151 163 164 076   4571  	aci	"ist>"
                                  4572  	use	uvl
                        000017    4573  	equ	v15,*-vl
    005320  aa   000345 000024    4574  	zero	4*vsl+1,20
                                  4575  "
                                  4576  "	Variable 16
                                  4577  	use	uvc
                        000076    4578  	set	vsl,*-vc-1
    004762  aa  074 163 161 154   4579  	aci	"<sql"
    004763  aa  137 162 141 156   4580  	aci	"_ran"
    004764  aa  147 145 076 040   4581  	aci	"ge> "
                                  4582  	use	uvl
                        000020    4583  	equ	v16,*-vl
    005321  aa   000371 000013    4584  	zero	4*vsl+1,11
                                  4585  "
                                  4586  "	Variable 17
                                  4587  	use	uvc
                        000101    4588  	set	vsl,*-vc-1
    004765  aa  074 163 161 154   4589  	aci	"<sql"
    004766  aa  137 162 141 156   4590  	aci	"_ran"
    004767  aa  147 145 137 151   4591  	aci	"ge_i"
    004770  aa  164 145 155 076   4592  	aci	"tem>"
                                  4593  	use	uvl
                        000021    4594  	equ	v17,*-vl
    005322  aa   000405 000020    4595  	zero	4*vsl+1,16
                                  4596  "
                                  4597  "	Variable 18
                                  4598  	use	uvc
                        000105    4599  	set	vsl,*-vc-1
    004771  aa  074 144 163 154   4600  	aci	"<dsl"
    004772  aa  137 162 141 156   4601  	aci	"_ran"
    004773  aa  147 145 137 144   4602  	aci	"ge_d"
    004774  aa  145 146 137 154   4603  	aci	"ef_l"
    004775  aa  151 163 164 076   4604  	aci	"ist>"
                                  4605  	use	uvl
                        000022    4606  	equ	v18,*-vl
    005323  aa   000425 000024    4607  	zero	4*vsl+1,20
                                  4608  "
                                  4609  "	Variable 19
                                  4610  	use	uvc
                        000112    4611  	set	vsl,*-vc-1
    004776  aa  074 144 163 154   4612  	aci	"<dsl"
    004777  aa  137 162 141 156   4613  	aci	"_ran"
    005000  aa  147 145 137 151   4614  	aci	"ge_i"
    005001  aa  164 145 155 076   4615  	aci	"tem>"
                                  4616  	use	uvl
                        000023    4617  	equ	v19,*-vl
    005324  aa   000451 000020    4618  	zero	4*vsl+1,16
                                  4619  "
                                  4620  "	Variable 20
                                  4621  	use	uvc
                        000116    4622  	set	vsl,*-vc-1
    005002  aa  074 162 145 154   4623  	aci	"<rel"
    005003  aa  141 164 151 157   4624  	aci	"atio"
    005004  aa  156 137 151 144   4625  	aci	"n_id"
    005005  aa  076 040 040 040   4626  	aci	">   "
                                  4627  	use	uvl
                        000024    4628  	equ	v20,*-vl
    005325  aa   000471 000015    4629  	zero	4*vsl+1,13
                                  4630  "
                                  4631  "	Variable 21
                                  4632  	use	uvc
                        000122    4633  	set	vsl,*-vc-1
    005006  aa  074 163 145 154   4634  	aci	"<sel"
    005007  aa  145 143 164 137   4635  	aci	"ect_"
    005010  aa  143 154 141 165   4636  	aci	"clau"
    005011  aa  163 145 076 040   4637  	aci	"se> "
                                  4638  	use	uvl
                        000025    4639  	equ	v21,*-vl
    005326  aa   000511 000017    4640  	zero	4*vsl+1,15
                                  4641  "
                                  4642  "	Variable 22
                                  4643  	use	uvc
                        000126    4644  	set	vsl,*-vc-1
    005012  aa  074 163 145 154   4645  	aci	"<sel"
    005013  aa  145 143 164 137   4646  	aci	"ect_"
    005014  aa  150 145 141 144   4647  	aci	"head"
    005015  aa  145 162 076 040   4648  	aci	"er> "
                                  4649  	use	uvl
                        000026    4650  	equ	v22,*-vl
    005327  aa   000531 000017    4651  	zero	4*vsl+1,15
                                  4652  "
                                  4653  "	Variable 23
                                  4654  	use	uvc
                        000132    4655  	set	vsl,*-vc-1
    005016  aa  074 163 145 154   4656  	aci	"<sel"
    005017  aa  145 143 164 137   4657  	aci	"ect_"
    005020  aa  154 151 163 164   4658  	aci	"list"
    005021  aa  076 040 040 040   4659  	aci	">   "
                                  4660  	use	uvl
                        000027    4661  	equ	v23,*-vl
    005330  aa   000551 000015    4662  	zero	4*vsl+1,13
                                  4663  "
                                  4664  "	Variable 24
                                  4665  	use	uvc
                        000136    4666  	set	vsl,*-vc-1
    005022  aa  074 163 145 154   4667  	aci	"<sel"
    005023  aa  145 143 164 137   4668  	aci	"ect_"
    005024  aa  151 164 145 155   4669  	aci	"item"
    005025  aa  076 040 040 040   4670  	aci	">   "
                                  4671  	use	uvl
                        000030    4672  	equ	v24,*-vl
    005331  aa   000571 000015    4673  	zero	4*vsl+1,13
                                  4674  "
                                  4675  "	Variable 25
                                  4676  	use	uvc
                        000142    4677  	set	vsl,*-vc-1
    005026  aa  074 163 145 154   4678  	aci	"<sel"
    005027  aa  145 143 164 137   4679  	aci	"ect_"
    005030  aa  151 144 076 040   4680  	aci	"id> "
                                  4681  	use	uvl
                        000031    4682  	equ	v25,*-vl
    005332  aa   000611 000013    4683  	zero	4*vsl+1,11
                                  4684  "
                                  4685  "	Variable 26
                                  4686  	use	uvc
                        000145    4687  	set	vsl,*-vc-1
    005031  aa  074 167 150 145   4688  	aci	"<whe"
    005032  aa  162 145 137 143   4689  	aci	"re_c"
    005033  aa  154 141 165 163   4690  	aci	"laus"
    005034  aa  145 076 040 040   4691  	aci	"e>  "
                                  4692  	use	uvl
                        000032    4693  	equ	v26,*-vl
    005333  aa   000625 000016    4694  	zero	4*vsl+1,14
                                  4695  "
                                  4696  "	Variable 27
                                  4697  	use	uvc
                        000151    4698  	set	vsl,*-vc-1
    005035  aa  074 161 165 141   4699  	aci	"<qua"
    005036  aa  154 151 146 151   4700  	aci	"lifi"
    005037  aa  145 162 076 040   4701  	aci	"er> "
                                  4702  	use	uvl
                        000033    4703  	equ	v27,*-vl
    005334  aa   000645 000013    4704  	zero	4*vsl+1,11
                                  4705  "
                                  4706  "	Variable 28
                                  4707  	use	uvc
                        000154    4708  	set	vsl,*-vc-1
    005040  aa  074 161 165 141   4709  	aci	"<qua"
    005041  aa  154 151 146 151   4710  	aci	"lifi"
    005042  aa  145 162 137 164   4711  	aci	"er_t"
    005043  aa  145 162 155 076   4712  	aci	"erm>"
                                  4713  	use	uvl
                        000034    4714  	equ	v28,*-vl
    005335  aa   000661 000020    4715  	zero	4*vsl+1,16
                                  4716  "
                                  4717  "	Variable 29
                                  4718  	use	uvc
                        000160    4719  	set	vsl,*-vc-1
    005044  aa  074 161 165 141   4720  	aci	"<qua"
    005045  aa  154 151 146 151   4721  	aci	"lifi"
    005046  aa  145 162 137 146   4722  	aci	"er_f"
    005047  aa  141 143 164 157   4723  	aci	"acto"
    005050  aa  162 076 040 040   4724  	aci	"r>  "
                                  4725  	use	uvl
                        000035    4726  	equ	v29,*-vl
    005336  aa   000701 000022    4727  	zero	4*vsl+1,18
                                  4728  "
                                  4729  "	Variable 30
                                  4730  	use	uvc
                        000165    4731  	set	vsl,*-vc-1
    005051  aa  074 160 162 145   4732  	aci	"<pre"
    005052  aa  144 151 143 141   4733  	aci	"dica"
    005053  aa  164 145 076 040   4734  	aci	"te> "
                                  4735  	use	uvl
                        000036    4736  	equ	v30,*-vl
    005337  aa   000725 000013    4737  	zero	4*vsl+1,11
                                  4738  "
                                  4739  "	Variable 31
                                  4740  	use	uvc
                        000170    4741  	set	vsl,*-vc-1
    005054  aa  074 164 145 162   4742  	aci	"<ter"
    005055  aa  155 076 040 040   4743  	aci	"m>  "
                                  4744  	use	uvl
                        000037    4745  	equ	v31,*-vl
    005340  aa   000741 000006    4746  	zero	4*vsl+1,6
                                  4747  "
                                  4748  "	Variable 32
                                  4749  	use	uvc
                        000172    4750  	set	vsl,*-vc-1
    005056  aa  074 145 170 160   4751  	aci	"<exp"
    005057  aa  162 137 157 162   4752  	aci	"r_or"
    005060  aa  137 161 165 145   4753  	aci	"_que"
    005061  aa  162 171 076 040   4754  	aci	"ry> "
                                  4755  	use	uvl
                        000040    4756  	equ	v32,*-vl
    005341  aa   000751 000017    4757  	zero	4*vsl+1,15
                                  4758  "
                                  4759  "	Variable 33
                                  4760  	use	uvc
                        000176    4761  	set	vsl,*-vc-1
    005062  aa  074 161 165 145   4762  	aci	"<que"
    005063  aa  162 171 137 154   4763  	aci	"ry_l"
    005064  aa  151 164 145 162   4764  	aci	"iter"
    005065  aa  141 154 076 040   4765  	aci	"al> "
                                  4766  	use	uvl
                        000041    4767  	equ	v33,*-vl
    005342  aa   000771 000017    4768  	zero	4*vsl+1,15
                                  4769  "
                                  4770  "	Variable 34
                                  4771  	use	uvc
                        000202    4772  	set	vsl,*-vc-1
    005066  aa  074 157 154 144   4773  	aci	"<old"
    005067  aa  137 146 165 156   4774  	aci	"_fun"
    005070  aa  143 137 157 162   4775  	aci	"c_or"
    005071  aa  137 145 170 160   4776  	aci	"_exp"
    005072  aa  162 076 040 040   4777  	aci	"r>  "
                                  4778  	use	uvl
                        000042    4779  	equ	v34,*-vl
    005343  aa   001011 000022    4780  	zero	4*vsl+1,18
                                  4781  "
                                  4782  "	Variable 35
                                  4783  	use	uvc
                        000207    4784  	set	vsl,*-vc-1
    005073  aa  074 154 151 153   4785  	aci	"<lik"
    005074  aa  145 137 151 164   4786  	aci	"e_it"
    005075  aa  145 155 076 040   4787  	aci	"em> "
                                  4788  	use	uvl
                        000043    4789  	equ	v35,*-vl
    005344  aa   001035 000013    4790  	zero	4*vsl+1,11
                                  4791  "
                                  4792  "	Variable 36
                                  4793  	use	uvc
                        000212    4794  	set	vsl,*-vc-1
    005076  aa  074 151 163 137   4795  	aci	"<is_"
    005077  aa  151 156 076 040   4796  	aci	"in> "
                                  4797  	use	uvl
                        000044    4798  	equ	v36,*-vl
    005345  aa   001051 000007    4799  	zero	4*vsl+1,7
                                  4800  "
                                  4801  "	Variable 37
                                  4802  	use	uvc
                        000214    4803  	set	vsl,*-vc-1
    005100  aa  074 154 151 153   4804  	aci	"<lik"
    005101  aa  145 076 040 040   4805  	aci	"e>  "
                                  4806  	use	uvl
                        000045    4807  	equ	v37,*-vl
    005346  aa   001061 000006    4808  	zero	4*vsl+1,6
                                  4809  "
                                  4810  "	Variable 38
                                  4811  	use	uvc
                        000216    4812  	set	vsl,*-vc-1
    005102  aa  074 151 163 137   4813  	aci	"<is_"
    005103  aa  156 165 154 154   4814  	aci	"null"
    005104  aa  076 040 040 040   4815  	aci	">   "
                                  4816  	use	uvl
                        000046    4817  	equ	v38,*-vl
    005347  aa   001071 000011    4818  	zero	4*vsl+1,9
                                  4819  "
                                  4820  "	Variable 39
                                  4821  	use	uvc
                        000221    4822  	set	vsl,*-vc-1
    005105  aa  074 142 145 164   4823  	aci	"<bet"
    005106  aa  167 145 145 156   4824  	aci	"ween"
    005107  aa  076 040 040 040   4825  	aci	">   "
                                  4826  	use	uvl
                        000047    4827  	equ	v39,*-vl
    005350  aa   001105 000011    4828  	zero	4*vsl+1,9
                                  4829  "
                                  4830  "	Variable 40
                                  4831  	use	uvc
                        000224    4832  	set	vsl,*-vc-1
    005110  aa  074 143 157 155   4833  	aci	"<com"
    005111  aa  160 137 157 160   4834  	aci	"p_op"
    005112  aa  076 040 040 040   4835  	aci	">   "
                                  4836  	use	uvl
                        000050    4837  	equ	v40,*-vl
    005351  aa   001121 000011    4838  	zero	4*vsl+1,9
                                  4839  "
                                  4840  "	Variable 41
                                  4841  	use	uvc
                        000227    4842  	set	vsl,*-vc-1
    005113  aa  074 162 145 154   4843  	aci	"<rel"
    005114  aa  137 157 160 076   4844  	aci	"_op>"
                                  4845  	use	uvl
                        000051    4846  	equ	v41,*-vl
    005352  aa   001135 000010    4847  	zero	4*vsl+1,8
                                  4848  "
                                  4849  "	Variable 42
                                  4850  	use	uvc
                        000231    4851  	set	vsl,*-vc-1
    005115  aa  074 162 145 147   4852  	aci	"<reg"
    005116  aa  165 154 141 162   4853  	aci	"ular"
    005117  aa  137 145 170 160   4854  	aci	"_exp"
    005120  aa  162 076 040 040   4855  	aci	"r>  "
                                  4856  	use	uvl
                        000052    4857  	equ	v42,*-vl
    005353  aa   001145 000016    4858  	zero	4*vsl+1,14
                                  4859  "
                                  4860  "	Variable 43
                                  4861  	use	uvc
                        000235    4862  	set	vsl,*-vc-1
    005121  aa  074 163 151 155   4863  	aci	"<sim"
    005122  aa  160 154 145 137   4864  	aci	"ple_"
    005123  aa  145 170 160 162   4865  	aci	"expr"
    005124  aa  076 040 040 040   4866  	aci	">   "
                                  4867  	use	uvl
                        000053    4868  	equ	v43,*-vl
    005354  aa   001165 000015    4869  	zero	4*vsl+1,13
                                  4870  "
                                  4871  "	Variable 44
                                  4872  	use	uvc
                        000241    4873  	set	vsl,*-vc-1
    005125  aa  074 163 151 155   4874  	aci	"<sim"
    005126  aa  160 154 145 137   4875  	aci	"ple_"
    005127  aa  141 162 151 164   4876  	aci	"arit"
    005130  aa  150 137 164 145   4877  	aci	"h_te"
    005131  aa  162 155 076 040   4878  	aci	"rm> "
                                  4879  	use	uvl
                        000054    4880  	equ	v44,*-vl
    005355  aa   001205 000023    4881  	zero	4*vsl+1,19
                                  4882  "
                                  4883  "	Variable 45
                                  4884  	use	uvc
                        000246    4885  	set	vsl,*-vc-1
    005132  aa  074 163 151 155   4886  	aci	"<sim"
    005133  aa  160 154 145 137   4887  	aci	"ple_"
    005134  aa  141 162 151 164   4888  	aci	"arit"
    005135  aa  150 137 146 141   4889  	aci	"h_fa"
    005136  aa  143 164 157 162   4890  	aci	"ctor"
    005137  aa  076 040 040 040   4891  	aci	">   "
                                  4892  	use	uvl
                        000055    4893  	equ	v45,*-vl
    005356  aa   001231 000025    4894  	zero	4*vsl+1,21
                                  4895  "
                                  4896  "	Variable 46
                                  4897  	use	uvc
                        000254    4898  	set	vsl,*-vc-1
    005140  aa  074 163 151 155   4899  	aci	"<sim"
    005141  aa  160 154 145 137   4900  	aci	"ple_"
    005142  aa  160 162 151 155   4901  	aci	"prim"
    005143  aa  141 162 171 076   4902  	aci	"ary>"
                                  4903  	use	uvl
                        000056    4904  	equ	v46,*-vl
    005357  aa   001261 000020    4905  	zero	4*vsl+1,16
                                  4906  "
                                  4907  "	Variable 47
                                  4908  	use	uvc
                        000260    4909  	set	vsl,*-vc-1
    005144  aa  074 145 170 160   4910  	aci	"<exp"
    005145  aa  162 076 040 040   4911  	aci	"r>  "
                                  4912  	use	uvl
                        000057    4913  	equ	v47,*-vl
    005360  aa   001301 000006    4914  	zero	4*vsl+1,6
                                  4915  "
                                  4916  "	Variable 48
                                  4917  	use	uvc
                        000262    4918  	set	vsl,*-vc-1
    005146  aa  074 141 162 151   4919  	aci	"<ari"
    005147  aa  164 150 137 164   4920  	aci	"th_t"
    005150  aa  145 162 155 076   4921  	aci	"erm>"
                                  4922  	use	uvl
                        000060    4923  	equ	v48,*-vl
    005361  aa   001311 000014    4924  	zero	4*vsl+1,12
                                  4925  "
                                  4926  "	Variable 49
                                  4927  	use	uvc
                        000265    4928  	set	vsl,*-vc-1
    005151  aa  074 141 162 151   4929  	aci	"<ari"
    005152  aa  164 150 137 146   4930  	aci	"th_f"
    005153  aa  141 143 164 157   4931  	aci	"acto"
    005154  aa  162 076 040 040   4932  	aci	"r>  "
                                  4933  	use	uvl
                        000061    4934  	equ	v49,*-vl
    005362  aa   001325 000016    4935  	zero	4*vsl+1,14
                                  4936  "
                                  4937  "	Variable 50
                                  4938  	use	uvc
                        000271    4939  	set	vsl,*-vc-1
    005155  aa  074 160 162 151   4940  	aci	"<pri"
    005156  aa  155 141 162 171   4941  	aci	"mary"
    005157  aa  076 040 040 040   4942  	aci	">   "
                                  4943  	use	uvl
                        000062    4944  	equ	v50,*-vl
    005363  aa   001345 000011    4945  	zero	4*vsl+1,9
                                  4946  "
                                  4947  "	Variable 51
                                  4948  	use	uvc
                        000274    4949  	set	vsl,*-vc-1
    005160  aa  074 157 154 144   4950  	aci	"<old"
    005161  aa  137 145 170 160   4951  	aci	"_exp"
    005162  aa  162 076 040 040   4952  	aci	"r>  "
                                  4953  	use	uvl
                        000063    4954  	equ	v51,*-vl
    005364  aa   001361 000012    4955  	zero	4*vsl+1,10
                                  4956  "
                                  4957  "	Variable 52
                                  4958  	use	uvc
                        000277    4959  	set	vsl,*-vc-1
    005163  aa  074 157 154 144   4960  	aci	"<old"
    005164  aa  137 160 162 151   4961  	aci	"_pri"
    005165  aa  155 141 162 171   4962  	aci	"mary"
    005166  aa  076 040 040 040   4963  	aci	">   "
                                  4964  	use	uvl
                        000064    4965  	equ	v52,*-vl
    005365  aa   001375 000015    4966  	zero	4*vsl+1,13
                                  4967  "
                                  4968  "	Variable 53
                                  4969  	use	uvc
                        000303    4970  	set	vsl,*-vc-1
    005167  aa  074 157 154 144   4971  	aci	"<old"
    005170  aa  137 146 165 156   4972  	aci	"_fun"
    005171  aa  143 164 151 157   4973  	aci	"ctio"
    005172  aa  156 076 040 040   4974  	aci	"n>  "
                                  4975  	use	uvl
                        000065    4976  	equ	v53,*-vl
    005366  aa   001415 000016    4977  	zero	4*vsl+1,14
                                  4978  "
                                  4979  "	Variable 54
                                  4980  	use	uvc
                        000307    4981  	set	vsl,*-vc-1
    005173  aa  074 157 154 144   4982  	aci	"<old"
    005174  aa  137 141 162 147   4983  	aci	"_arg"
    005175  aa  137 154 151 163   4984  	aci	"_lis"
    005176  aa  164 076 040 040   4985  	aci	"t>  "
                                  4986  	use	uvl
                        000066    4987  	equ	v54,*-vl
    005367  aa   001435 000016    4988  	zero	4*vsl+1,14
                                  4989  "
                                  4990  "	Variable 55
                                  4991  	use	uvc
                        000313    4992  	set	vsl,*-vc-1
    005177  aa  074 157 154 144   4993  	aci	"<old"
    005200  aa  137 141 162 147   4994  	aci	"_arg"
    005201  aa  076 040 040 040   4995  	aci	">   "
                                  4996  	use	uvl
                        000067    4997  	equ	v55,*-vl
    005370  aa   001455 000011    4998  	zero	4*vsl+1,9
                                  4999  "
                                  5000  "	Variable 56
                                  5001  	use	uvc
                        000316    5002  	set	vsl,*-vc-1
    005202  aa  074 146 165 156   5003  	aci	"<fun"
    005203  aa  143 164 151 157   5004  	aci	"ctio"
    005204  aa  156 076 040 040   5005  	aci	"n>  "
                                  5006  	use	uvl
                        000070    5007  	equ	v56,*-vl
    005371  aa   001471 000012    5008  	zero	4*vsl+1,10
                                  5009  "
                                  5010  "	Variable 57
                                  5011  	use	uvc
                        000321    5012  	set	vsl,*-vc-1
    005205  aa  074 141 162 147   5013  	aci	"<arg"
    005206  aa  137 154 151 163   5014  	aci	"_lis"
    005207  aa  164 076 040 040   5015  	aci	"t>  "
                                  5016  	use	uvl
                        000071    5017  	equ	v57,*-vl
    005372  aa   001505 000012    5018  	zero	4*vsl+1,10
                                  5019  "
                                  5020  "	Variable 58
                                  5021  	use	uvc
                        000324    5022  	set	vsl,*-vc-1
    005210  aa  074 141 164 164   5023  	aci	"<att"
    005211  aa  162 151 142 165   5024  	aci	"ribu"
    005212  aa  164 145 137 163   5025  	aci	"te_s"
    005213  aa  160 145 143 076   5026  	aci	"pec>"
                                  5027  	use	uvl
                        000072    5028  	equ	v58,*-vl
    005373  aa   001521 000020    5029  	zero	4*vsl+1,16
                                  5030  "
                                  5031  "	Variable 59
                                  5032  	use	uvc
                        000330    5033  	set	vsl,*-vc-1
    005214  aa  074 143 157 156   5034  	aci	"<con"
    005215  aa  163 164 141 156   5035  	aci	"stan"
    005216  aa  164 137 154 151   5036  	aci	"t_li"
    005217  aa  163 164 076 040   5037  	aci	"st> "
                                  5038  	use	uvl
                        000073    5039  	equ	v59,*-vl
    005374  aa   001541 000017    5040  	zero	4*vsl+1,15
                                  5041  "
                                  5042  "	Variable 60
                                  5043  	use	uvc
                        000334    5044  	set	vsl,*-vc-1
    005220  aa  074 143 157 156   5045  	aci	"<con"
    005221  aa  163 164 141 156   5046  	aci	"stan"
    005222  aa  164 137 151 164   5047  	aci	"t_it"
    005223  aa  145 155 076 040   5048  	aci	"em> "
                                  5049  	use	uvl
                        000074    5050  	equ	v60,*-vl
    005375  aa   001561 000017    5051  	zero	4*vsl+1,15
                                  5052  "
                                  5053  "	Variable 61
                                  5054  	use	uvc
                        000340    5055  	set	vsl,*-vc-1
    005224  aa  074 143 157 156   5056  	aci	"<con"
    005225  aa  163 164 141 156   5057  	aci	"stan"
    005226  aa  164 076 040 040   5058  	aci	"t>  "
                                  5059  	use	uvl
                        000075    5060  	equ	v61,*-vl
    005376  aa   001601 000012    5061  	zero	4*vsl+1,10
                                  5062  "
                                  5063  "	Variable 62
                                  5064  	use	uvc
                        000343    5065  	set	vsl,*-vc-1
    005227  aa  074 141 162 151   5066  	aci	"<ari"
    005230  aa  164 150 137 157   5067  	aci	"th_o"
    005231  aa  160 076 040 040   5068  	aci	"p>  "
                                  5069  	use	uvl
                        000076    5070  	equ	v62,*-vl
    005377  aa   001615 000012    5071  	zero	4*vsl+1,10
                                  5072  "
                                  5073  "	Variable 63
                                  5074  	use	uvc
                        000346    5075  	set	vsl,*-vc-1
    005232  aa  074 141 144 144   5076  	aci	"<add"
    005233  aa  137 157 160 076   5077  	aci	"_op>"
                                  5078  	use	uvl
                        000077    5079  	equ	v63,*-vl
    005400  aa   001631 000010    5080  	zero	4*vsl+1,8
                                  5081  "
                                  5082  "	Variable 64
                                  5083  	use	uvc
                        000350    5084  	set	vsl,*-vc-1
    005234  aa  074 155 165 154   5085  	aci	"<mul"
    005235  aa  164 137 157 160   5086  	aci	"t_op"
    005236  aa  076 040 040 040   5087  	aci	">   "
                                  5088  	use	uvl
                        000100    5089  	equ	v64,*-vl
    005401  aa   001641 000011    5090  	zero	4*vsl+1,9
                                  5091  "
                                  5092  "	Variable 65
                                  5093  	use	uvc
                        000353    5094  	set	vsl,*-vc-1
    005237  aa  074 141 156 144   5095  	aci	"<and"
    005240  aa  137 157 160 076   5096  	aci	"_op>"
                                  5097  	use	uvl
                        000101    5098  	equ	v65,*-vl
    005402  aa   001655 000010    5099  	zero	4*vsl+1,8
                                  5100  "
                                  5101  "	Variable 66
                                  5102  	use	uvc
                        000355    5103  	set	vsl,*-vc-1
    005241  aa  074 157 162 137   5104  	aci	"<or_"
    005242  aa  157 160 076 040   5105  	aci	"op> "
                                  5106  	use	uvl
                        000102    5107  	equ	v66,*-vl
    005403  aa   001665 000007    5108  	zero	4*vsl+1,7
                                  5109  "
                                  5110  "	Variable 67
                                  5111  	use	uvc
                        000357    5112  	set	vsl,*-vc-1
    005243  aa  074 156 157 164   5113  	aci	"<not"
    005244  aa  137 157 160 076   5114  	aci	"_op>"
                                  5115  	use	uvl
                        000103    5116  	equ	v67,*-vl
    005404  aa   001675 000010    5117  	zero	4*vsl+1,8
                                  5118  "
                                  5119  "	Variable 68
                                  5120  	use	uvc
                        000361    5121  	set	vsl,*-vc-1
    005245  aa  074 166 137 141   5122  	aci	"<v_a"
    005246  aa  162 147 137 163   5123  	aci	"rg_s"
    005247  aa  165 142 163 164   5124  	aci	"ubst"
    005250  aa  151 164 165 164   5125  	aci	"itut"
    005251  aa  151 157 156 076   5126  	aci	"ion>"
                                  5127  	use	uvl
                        000104    5128  	equ	v68,*-vl
    005405  aa   001705 000024    5129  	zero	4*vsl+1,20
                                  5130  "
                                  5131  "	Variable 69
                                  5132  	use	uvc
                        000366    5133  	set	vsl,*-vc-1
    005252  aa  074 170 137 141   5134  	aci	"<x_a"
    005253  aa  162 147 137 163   5135  	aci	"rg_s"
    005254  aa  165 142 163 164   5136  	aci	"ubst"
    005255  aa  151 164 165 164   5137  	aci	"itut"
    005256  aa  151 157 156 076   5138  	aci	"ion>"
                                  5139  	use	uvl
                        000105    5140  	equ	v69,*-vl
    005406  aa   001731 000024    5141  	zero	4*vsl+1,20
                                  5142  "
                                  5143  "	Variable 70
                                  5144  	use	uvc
                        000373    5145  	set	vsl,*-vc-1
    005257  aa  074 144 142 137   5146  	aci	"<db_"
    005260  aa  154 141 142 145   5147  	aci	"labe"
    005261  aa  154 076 040 040   5148  	aci	"l>  "
                                  5149  	use	uvl
                        000106    5150  	equ	v70,*-vl
    005407  aa   001755 000012    5151  	zero	4*vsl+1,10
                                  5152  "
                                  5153  "	Variable 71
                                  5154  	use	uvc
                        000376    5155  	set	vsl,*-vc-1
    005262  aa  074 162 145 154   5156  	aci	"<rel"
    005263  aa  141 164 151 157   5157  	aci	"atio"
    005264  aa  156 076 040 040   5158  	aci	"n>  "
                                  5159  	use	uvl
                        000107    5160  	equ	v71,*-vl
    005410  aa   001771 000012    5161  	zero	4*vsl+1,10
                                  5162  "
                                  5163  "	Variable 72
                                  5164  	use	uvc
                        000401    5165  	set	vsl,*-vc-1
    005265  aa  074 162 145 154   5166  	aci	"<rel"
    005266  aa  141 164 151 157   5167  	aci	"atio"
    005267  aa  156 137 154 141   5168  	aci	"n_la"
    005270  aa  142 145 154 076   5169  	aci	"bel>"
                                  5170  	use	uvl
                        000110    5171  	equ	v72,*-vl
    005411  aa   002005 000020    5172  	zero	4*vsl+1,16
                                  5173  "
                                  5174  "	Variable 73
                                  5175  	use	uvc
                        000405    5176  	set	vsl,*-vc-1
    005271  aa  074 141 164 164   5177  	aci	"<att"
    005272  aa  162 151 142 165   5178  	aci	"ribu"
    005273  aa  164 145 076 040   5179  	aci	"te> "
                                  5180  	use	uvl
                        000111    5181  	equ	v73,*-vl
    005412  aa   002025 000013    5182  	zero	4*vsl+1,11
                                  5183  "
                                  5184  "	Variable 74
                                  5185  	use	uvc
                        000410    5186  	set	vsl,*-vc-1
    005274  aa  074 146 156 137   5187  	aci	"<fn_"
    005275  aa  156 141 155 145   5188  	aci	"name"
    005276  aa  076 040 040 040   5189  	aci	">   "
                                  5190  	use	uvl
                        000112    5191  	equ	v74,*-vl
    005413  aa   002041 000011    5192  	zero	4*vsl+1,9
                                  5193  "
                                  5194  "	Variable 75
                                  5195  	use	uvc
                        000413    5196  	set	vsl,*-vc-1
    005277  aa  074 141 154 151   5197  	aci	"<ali"
    005300  aa  141 163 076 040   5198  	aci	"as> "
                                  5199  	use	uvl
                        000113    5200  	equ	v75,*-vl
    005414  aa   002055 000007    5201  	zero	4*vsl+1,7
                                  5202  "
                                  5203  	use	uvc
                        000415    5204  	equ	variable_characters_size,*-vc-1
                                  5205  	use	uvl
                        000113    5206  	equ	variables_list_size,*-vl-1
                                  5207
                                  5208  	use	text
                        004647    5209  	segdef	object_def
    004647                        5210  object_def:
    004647  aa  154 160 151 157   5211  	aci	"lpio001",8
    004650  aa  060 060 061 040
    004651  aa   777777 773131    5212  	zero	-1,terminals_hash_list-object_def
    004652  aa   777777 774052    5213  	zero	-1,terminals_list-object_def
    004653  aa   777777 773657    5214  	zero	-1,terminal_characters-object_def
    004654  aa   777777 774277    5215  	zero	-1,dpda-object_def
    004655  aa   777777 777646    5216  	zero	-1,skip-object_def
    004656  aa   777777 777651    5217  	zero	-1,standard_prelude-object_def
    004657  aa   777777 777652    5218  	zero	-1,production_names-object_def
    004660  aa   777777 000432    5219  	zero	-1,variables_list-object_def
    004661  aa   777777 000014    5220  	zero	-1,variable_characters-object_def
    004662  aa   000000 000000    5221  	zero	0,0
                                  5222  	end

NO LITERALS

NAME DEFINITIONS FOR ENTRY POINTS AND SEGDEFS

    005416  5a   000003 000000
    005417  5a   000127 600000
    005420  aa   000000 000000
    005421  55   000012 000002
    005422  5a   000002 400003
    005423  55   000006 000012
    005424  aa  017 155 162 144
    005425  aa  163 137 144 163
    005426  aa  154 137 164 141
    005427  aa  142 154 145 163
    005430  55   000020 000003
    005431  0a   004647 400000
    005432  55   000015 000003
    005433  aa  012 157 142 152         object_def
    005434  aa  145 143 164 137
    005435  aa  144 145 146 000
    005436  55   000027 000012
    005437  0a   005301 400000
    005440  55   000023 000003
    005441  aa  016 166 141 162         variables_list
    005442  aa  151 141 142 154
    005443  aa  145 163 137 154
    005444  aa  151 163 164 000
    005445  55   000037 000020
    005446  0a   004663 400000
    005447  55   000032 000003
    005450  aa  023 166 141 162         variable_characters
    005451  aa  151 141 142 154
    005452  aa  145 137 143 150
    005453  aa  141 162 141 143
    005454  aa  164 145 162 163
    005455  55   000047 000027
    005456  0a   004521 400000
    005457  55   000042 000003
    005460  aa  020 160 162 157         production_names
    005461  aa  144 165 143 164
    005462  aa  151 157 156 137
    005463  aa  156 141 155 145
    005464  aa  163 000 000 000
    005465  55   000057 000037
    005466  0a   004520 400000
    005467  55   000052 000003
    005470  aa  020 163 164 141         standard_prelude
    005471  aa  156 144 141 162
    005472  aa  144 137 160 162
    005473  aa  145 154 165 144
    005474  aa  145 000 000 000
    005475  55   000064 000047
    005476  0a   004515 400000
    005477  55   000062 000003
    005500  aa  004 163 153 151         skip
    005501  aa  160 000 000 000
    005502  55   000071 000057
    005503  0a   001146 400000
    005504  55   000067 000003
    005505  aa  004 144 160 144         dpda
    005506  aa  141 000 000 000
    005507  55   000100 000064
    005510  0a   000721 400000
    005511  55   000074 000003
    005512  aa  016 164 145 162         terminals_list
    005513  aa  155 151 156 141
    005514  aa  154 163 137 154
    005515  aa  151 163 164 000
    005516  55   000110 000071
    005517  0a   000526 400000
    005520  55   000103 000003
    005521  aa  023 164 145 162         terminal_characters
    005522  aa  155 151 156 141
    005523  aa  154 137 143 150
    005524  aa  141 162 141 143
    005525  aa  164 145 162 163
    005526  55   000120 000100
    005527  0a   000000 400000
    005530  55   000113 000003
    005531  aa  023 164 145 162         terminals_hash_list
    005532  aa  155 151 156 141
    005533  aa  154 163 137 150
    005534  aa  141 163 150 137
    005535  aa  154 151 163 164
    005536  55   000002 000110
    005537  6a   000000 400002
    005540  55   000123 000003
    005541  aa  014 163 171 155         symbol_table
    005542  aa  142 157 154 137
    005543  aa  164 141 142 154
    005544  aa  145 000 000 000

DEFINITIONS HASH TABLE

    005545  aa   000000 000015
    005546  5a   000120 000000
    005547  5a   000047 000000
    005550  aa   000000 000000
    005551  aa   000000 000000
    005552  5a   000071 000000
    005553  5a   000100 000000
    005554  5a   000012 000000
    005555  5a   000064 000000
    005556  5a   000020 000000
    005557  5a   000027 000000
    005560  5a   000037 000000
    005561  5a   000057 000000
    005562  5a   000110 000000

NO EXTERNAL NAMES

NO TRAP POINTER WORDS

TYPE PAIR BLOCKS

    005563  aa   000001 000000
    005564  aa   000000 000000

INTERNAL EXPRESSION WORDS

    005565  aa   000000 000000
LINKAGE INFORMATION

    000000  aa   000000 000000
    000001  0a   005416 000000
    000002  aa   000000 000000
    000003  aa   000000 000000
    000004  aa   000000 000000
    000005  aa   000000 000000
    000006  22   000010 000010
    000007  a2   000000 000000
SYMBOL INFORMATION

SYMBOL TABLE HEADER

    000000  aa   000000 000001
    000001  aa   163171 155142
    000002  aa   164162 145145
    000003  aa   000000 000007
    000004  aa   000000 115705
    000005  aa   073761 335527
    000006  aa   000000 116434
    000007  aa   276617 113012
    000010  aa   141154 155040
    000011  aa   040040 040040
    000012  aa   000024 000040
    000013  aa   000034 000040
    000014  aa   000044 000100
    000015  aa   000002 000002
    000016  aa   000064 000000
    000017  aa   000000 000400
    000020  aa   000000 000107
    000021  aa   000352 000347
    000022  aa   000372 000107
    000023  aa   000064 000000
    000024  aa   101114 115040
    000025  aa   126145 162163
    000026  aa   151157 156040
    000027  aa   067056 064040
    000030  aa   101160 162151
    000031  aa   154040 061071
    000032  aa   070067 040040
    000033  aa   040040 040040
    000034  aa   110151 162156
    000035  aa   145151 163145
    000036  aa   156056 123171
    000037  aa   163115 141151
    000040  aa   156164 056141
    000041  aa   040040 040040
    000042  aa   040040 040040
    000043  aa   040040 040040
    000044  aa   055164 141162
    000045  aa   147145 164040
    000046  aa   154066 070040
    000047  aa   040040 040040
    000050  aa   040040 040040
    000051  aa   040040 040040
    000052  aa   040040 040040
    000053  aa   040040 040040
    000054  aa   040040 040040
    000055  aa   040040 040040
    000056  aa   040154 151163
    000057  aa   164040 163171
    000060  aa   155142 157154
    000061  aa   163040 040040
    000062  aa   040040 040040
    000063  aa   040040 040040
    000064  aa   000000 000001
    000065  aa   000000 000001
    000066  aa   000072 000064
    000067  aa   164337 335006
    000070  aa   000000 116434
    000071  aa   264530 400000
    000072  aa   076163 160145          >special_ldd>install>MR12.2-1073>mrds_dsl_tables.alm
    000073  aa   143151 141154
    000074  aa   137154 144144
    000075  aa   076151 156163
    000076  aa   164141 154154
    000077  aa   076115 122061
    000100  aa   062056 062055
    000101  aa   061060 067063
    000102  aa   076155 162144
    000103  aa   163137 144163
    000104  aa   154137 164141
    000105  aa   142154 145163
    000106  aa   056141 154155
               MULTICS ASSEMBLY CROSS REFERENCE LISTING

   Value        Symbol                   Source file   Line number

           4    aply                     mrds_dsl_tables:     27.
           5    aply1                    mrds_dsl_tables:     28.
          13    aplyp                    mrds_dsl_tables:     34, 1160, 1175, 1292, 1365, 1512, 1617, 1636, 1709, 1767, 1797,
                                                            1866, 1902, 2005, 2034, 2150, 2268, 2283, 2298, 2363, 2431, 2446,
                                                            2491, 2506, 2578, 2784, 2922, 2977, 3040, 3055, 3440, 3448, 3471,
                                                            3535, 3590, 3661, 3811, 3832, 3869, 3893, 3959, 4006, 4021, 4066, 4180.
          14    aplyp1                   mrds_dsl_tables:     35, 1211, 1237, 1262, 1398, 1405, 1424, 1431, 1469, 1476, 1483,
                                                            1557, 1595, 1677, 1684, 1984, 2393, 2424, 2439, 2522, 2627, 2634,
                                                            2641, 2648, 2655, 2676, 2683, 2728, 2735, 2742, 2749, 2756, 2763,
                                                            2770, 2777, 2792, 3033, 3073, 3086, 3154, 3248, 3271, 3278, 3285,
                                                            3308, 3409, 3416, 3515, 3522, 3571, 3615, 3647, 3654, 3685, 3701,
                                                            3725, 3739, 3758, 3765, 3772, 3785, 3804, 3981, 3988, 4093, 4114,
                                                            4127, 4140, 4153, 4167, 4240, 4247, 4271, 4278, 4285.
          15    aplyps                   mrds_dsl_tables:     36, 1168, 1186, 1300, 1373, 1520, 1527, 1732, 1739, 1776, 1783,
                                                            1790, 1805, 1812, 1895, 1931, 1938, 2013, 2020, 2027, 2043, 2050,
                                                            2057, 2064, 2158, 2165, 2276, 2291, 2306, 2454, 2515, 2588, 2930,
                                                            2937, 2944, 2951, 2985, 2992, 3048, 3480, 3487, 3543, 3550, 3557,
                                                            3564, 3840, 3880, 3967, 4014, 4039, 4075, 4188.
          22    aplyr                    mrds_dsl_tables:     41.
          23    aplyr1                   mrds_dsl_tables:     42.
          24    aplyrs                   mrds_dsl_tables:     43.
           6    aplys                    mrds_dsl_tables:     29.
        1146    dpda                     mrds_dsl_tables:   1113, 1114, 1117, 1123, 1126, 1131, 1134, 1137, 1140, 1143, 1146,
                                                            1156, 1159, 1164, 1167, 1171, 1174, 1182, 1185, 1189, 1192, 1199,
                                                            1202, 1207, 1210, 1214, 1217, 1220, 1223, 1228, 1231, 1236, 1240,
                                                            1243, 1248, 1251, 1258, 1261, 1265, 1268, 1271, 1274, 1288, 1291,
                                                            1296, 1299, 1303, 1306, 1319, 1322, 1331, 1334, 1339, 1344, 1349,
                                                            1354, 1359, 1364, 1369, 1372, 1376, 1379, 1394, 1397, 1401, 1404,
                                                            1408, 1411, 1420, 1423, 1427, 1430, 1434, 1437, 1450, 1453, 1458,
                                                            1463, 1468, 1472, 1475, 1479, 1482, 1486, 1489, 1494, 1497, 1503,
                                                            1506, 1511, 1516, 1519, 1523, 1526, 1530, 1533, 1536, 1539, 1553,
                                                            1556, 1560, 1563, 1575, 1578, 1591, 1594, 1598, 1601, 1613, 1616,
                                                            1621, 1624, 1627, 1630, 1635, 1655, 1658, 1673, 1676, 1680, 1683,
                                                            1687, 1690, 1693, 1696, 1699, 1702, 1705, 1708, 1728, 1731, 1735,
                                                            1738, 1742, 1745, 1748, 1751, 1758, 1761, 1766, 1772, 1775, 1779,
                                                            1782, 1786, 1789, 1793, 1796, 1801, 1804, 1808, 1811, 1815, 1818,
                                                            1835, 1838, 1854, 1857, 1862, 1865, 1891, 1894, 1898, 1901, 1927,
                                                            1930, 1934, 1937, 1941, 1944, 1980, 1983, 1987, 1990, 2001, 2004,
                                                            2009, 2012, 2016, 2019, 2023, 2026, 2030, 2033, 2039, 2042, 2046,
                                                            2049, 2053, 2056, 2060, 2063, 2067, 2070, 2082, 2085, 2093, 2096,
                                                            2101, 2123, 2126, 2146, 2149, 2154, 2157, 2161, 2164, 2168, 2171,
                                                            2198, 2201, 2227, 2230, 2244, 2247, 2251, 2254, 2264, 2267, 2272,
                                                            2275, 2279, 2282, 2287, 2290, 2294, 2297, 2302, 2305, 2309, 2312,
                                                            2323, 2326, 2336, 2339, 2354, 2357, 2362, 2373, 2376, 2384, 2387,
                                                            2392, 2396, 2399, 2407, 2410, 2414, 2417, 2420, 2423, 2427, 2430,
                                                            2435, 2438, 2442, 2445, 2450, 2453, 2457, 2460, 2464, 2467, 2472,
                                                            2487, 2490, 2502, 2505, 2511, 2514, 2518, 2521, 2525, 2528, 2538,
                                                            2541, 2546, 2551, 2556, 2561, 2566, 2571, 2574, 2577, 2584, 2587,
                                                            2591, 2594, 2609, 2612, 2617, 2620, 2623, 2626, 2630, 2633, 2637,
                                                            2640, 2644, 2647, 2651, 2654, 2658, 2661, 2672, 2675, 2679, 2682,
                                                            2686, 2689, 2703, 2706, 2718, 2721, 2724, 2727, 2731, 2734, 2738,
                                                            2741, 2745, 2748, 2752, 2755, 2759, 2762, 2766, 2769, 2773, 2776,
                                                            2780, 2783, 2788, 2791, 2795, 2798, 2809, 2812, 2831, 2834, 2853,
                                                            2856, 2859, 2862, 2866, 2869, 2884, 2887, 2890, 2893, 2897, 2900,
                                                            2906, 2909, 2912, 2915, 2918, 2921, 2926, 2929, 2933, 2936, 2940,
                                                            2943, 2947, 2950, 2954, 2957, 2964, 2967, 2973, 2976, 2981, 2984,
                                                            2988, 2991, 2995, 2998, 3001, 3004, 3012, 3015, 3020, 3025, 3029,
                                                            3032, 3036, 3039, 3044, 3047, 3051, 3054, 3069, 3072, 3076, 3079,
                                                            3082, 3085, 3089, 3092, 3096, 3099, 3105, 3108, 3111, 3114, 3131,
                                                            3134, 3150, 3153, 3157, 3160, 3169, 3172, 3177, 3180, 3207, 3210,
                                                            3236, 3239, 3244, 3247, 3251, 3254, 3267, 3270, 3274, 3277, 3281,
                                                            3284, 3288, 3291, 3304, 3307, 3311, 3314, 3327, 3330, 3340, 3343,
                                                            3354, 3357, 3364, 3367, 3372, 3378, 3381, 3389, 3392, 3395, 3398,
                                                            3403, 3408, 3412, 3415, 3419, 3422, 3425, 3428, 3436, 3439, 3444,
                                                            3447, 3467, 3470, 3476, 3479, 3483, 3486, 3490, 3493, 3505, 3508,
                                                            3511, 3514, 3518, 3521, 3525, 3528, 3531, 3534, 3539, 3542, 3546,
                                                            3549, 3553, 3556, 3560, 3563, 3567, 3570, 3574, 3577, 3586, 3589,
                                                            3595, 3598, 3605, 3608, 3611, 3614, 3618, 3621, 3627, 3630, 3643,
                                                            3646, 3650, 3653, 3657, 3660, 3668, 3671, 3674, 3677, 3681, 3684,
                                                            3688, 3691, 3697, 3700, 3704, 3707, 3711, 3714, 3719, 3724, 3728,
                                                            3731, 3735, 3738, 3742, 3745, 3748, 3751, 3754, 3757, 3761, 3764,
                                                            3768, 3771, 3775, 3778, 3781, 3784, 3788, 3791, 3794, 3797, 3800,
                                                            3803, 3807, 3810, 3817, 3820, 3823, 3826, 3831, 3836, 3839, 3843,
                                                            3846, 3850, 3853, 3858, 3863, 3868, 3876, 3879, 3883, 3886, 3889,
                                                            3892, 3903, 3906, 3909, 3912, 3947, 3950, 3955, 3958, 3963, 3966,
                                                            3970, 3973, 3977, 3980, 3984, 3987, 3991, 3994, 3997, 4000, 4005,
                                                            4010, 4013, 4017, 4020, 4035, 4038, 4042, 4045, 4051, 4054, 4057,
                                                            4060, 4065, 4071, 4074, 4078, 4081, 4084, 4087, 4092, 4096, 4099,
                                                            4105, 4108, 4113, 4117, 4120, 4123, 4126, 4130, 4133, 4136, 4139,
                                                            4143, 4146, 4149, 4152, 4156, 4159, 4163, 4166, 4170, 4173, 4176,
                                                            4179, 4184, 4187, 4191, 4194, 4201, 4204, 4209, 4212, 4216, 4219,
                                                            4224, 4229, 4234, 4239, 4243, 4246, 4250, 4253, 4267, 4270, 4274,
                                                            4277, 4281, 4284, 4288, 4289, 5215.
        3346    dpda_size                mrds_dsl_tables:   1113, 4289.
          10    final                    mrds_dsl_tables:     31.
           4    ln1                      mrds_dsl_tables:   1118, 1123.
           1    ln10                     mrds_dsl_tables:   1135, 1137.
           1    ln1016                   mrds_dsl_tables:   2857, 2859.
           2    ln1018                   mrds_dsl_tables:   2863, 2866.
          15    ln1021                   mrds_dsl_tables:   2870, 2884.
           1    ln1035                   mrds_dsl_tables:   2888, 2890.
           2    ln1037                   mrds_dsl_tables:   2894, 2897.
           4    ln1040                   mrds_dsl_tables:   2901, 2906.
           1    ln1045                   mrds_dsl_tables:   2910, 2912.
           1    ln1047                   mrds_dsl_tables:   2916, 2918.
           3    ln1049                   mrds_dsl_tables:   2922, 2926.
           2    ln1053                   mrds_dsl_tables:   2930, 2933.
           2    ln1056                   mrds_dsl_tables:   2937, 2940.
           2    ln1059                   mrds_dsl_tables:   2944, 2947.
           2    ln1062                   mrds_dsl_tables:   2951, 2954.
           5    ln1065                   mrds_dsl_tables:   2958, 2964.
           4    ln1071                   mrds_dsl_tables:   2968, 2973.
           3    ln1076                   mrds_dsl_tables:   2977, 2981.
           2    ln1080                   mrds_dsl_tables:   2985, 2988.
           2    ln1083                   mrds_dsl_tables:   2992, 2995.
           1    ln1086                   mrds_dsl_tables:   2999, 3001.
           6    ln1088                   mrds_dsl_tables:   3005, 3012.
           2    ln1097                   mrds_dsl_tables:   3026, 3029.
           7    ln110                    mrds_dsl_tables:   1323, 1331.
           2    ln1100                   mrds_dsl_tables:   3033, 3036.
           3    ln1103                   mrds_dsl_tables:   3040, 3044.
           2    ln1107                   mrds_dsl_tables:   3048, 3051.
          15    ln1110                   mrds_dsl_tables:   3055, 3069.
           2    ln1124                   mrds_dsl_tables:   3073, 3076.
           1    ln1127                   mrds_dsl_tables:   3080, 3082.
           2    ln1129                   mrds_dsl_tables:   3086, 3089.
           2    ln1132                   mrds_dsl_tables:   3093, 3096.
           4    ln1135                   mrds_dsl_tables:   3100, 3105.
           1    ln1140                   mrds_dsl_tables:   3109, 3111.
          17    ln1142                   mrds_dsl_tables:   3115, 3131.
          16    ln1158                   mrds_dsl_tables:   3135, 3150.
           2    ln1173                   mrds_dsl_tables:   3154, 3157.
           7    ln1176                   mrds_dsl_tables:   3161, 3169.
           3    ln1184                   mrds_dsl_tables:   3173, 3177.
          31    ln1188                   mrds_dsl_tables:   3181, 3207.
           1    ln12                     mrds_dsl_tables:   1141, 1143.
          30    ln1214                   mrds_dsl_tables:   3211, 3236.
           3    ln1239                   mrds_dsl_tables:   3240, 3244.
           3    ln124                    mrds_dsl_tables:   1365, 1369.
           2    ln1243                   mrds_dsl_tables:   3248, 3251.
          13    ln1246                   mrds_dsl_tables:   3255, 3267.
           2    ln1258                   mrds_dsl_tables:   3271, 3274.
           2    ln1261                   mrds_dsl_tables:   3278, 3281.
           2    ln1264                   mrds_dsl_tables:   3285, 3288.
          13    ln1267                   mrds_dsl_tables:   3292, 3304.
           2    ln1279                   mrds_dsl_tables:   3308, 3311.
           2    ln128                    mrds_dsl_tables:   1373, 1376.
          13    ln1282                   mrds_dsl_tables:   3315, 3327.
          10    ln1294                   mrds_dsl_tables:   3331, 3340.
          11    ln1303                   mrds_dsl_tables:   3344, 3354.
          15    ln131                    mrds_dsl_tables:   1380, 1394.
           5    ln1313                   mrds_dsl_tables:   3358, 3364.
           4    ln1320                   mrds_dsl_tables:   3373, 3378.
           6    ln1325                   mrds_dsl_tables:   3382, 3389.
           1    ln1332                   mrds_dsl_tables:   3393, 3395.
           2    ln1336                   mrds_dsl_tables:   3409, 3412.
           2    ln1339                   mrds_dsl_tables:   3416, 3419.
           1    ln1342                   mrds_dsl_tables:   3423, 3425.
           6    ln1344                   mrds_dsl_tables:   3429, 3436.
           3    ln1351                   mrds_dsl_tables:   3440, 3444.
          22    ln1355                   mrds_dsl_tables:   3448, 3467.
           4    ln1374                   mrds_dsl_tables:   3471, 3476.
           2    ln1379                   mrds_dsl_tables:   3480, 3483.
           2    ln1382                   mrds_dsl_tables:   3487, 3490.
          12    ln1385                   mrds_dsl_tables:   3494, 3505.
           1    ln1396                   mrds_dsl_tables:   3509, 3511.
           2    ln1398                   mrds_dsl_tables:   3515, 3518.
          10    ln14                     mrds_dsl_tables:   1147, 1156.
           2    ln1401                   mrds_dsl_tables:   3522, 3525.
           1    ln1404                   mrds_dsl_tables:   3529, 3531.
           3    ln1406                   mrds_dsl_tables:   3535, 3539.
           2    ln1410                   mrds_dsl_tables:   3543, 3546.
           2    ln1413                   mrds_dsl_tables:   3550, 3553.
           2    ln1416                   mrds_dsl_tables:   3557, 3560.
           2    ln1419                   mrds_dsl_tables:   3564, 3567.
           2    ln1422                   mrds_dsl_tables:   3571, 3574.
           7    ln1425                   mrds_dsl_tables:   3578, 3586.
           4    ln1433                   mrds_dsl_tables:   3590, 3595.
           5    ln1438                   mrds_dsl_tables:   3599, 3605.
           1    ln1444                   mrds_dsl_tables:   3609, 3611.
           2    ln1446                   mrds_dsl_tables:   3615, 3618.
           4    ln1449                   mrds_dsl_tables:   3622, 3627.
           2    ln145                    mrds_dsl_tables:   1398, 1401.
          13    ln1454                   mrds_dsl_tables:   3631, 3643.
           2    ln1466                   mrds_dsl_tables:   3647, 3650.
           2    ln1469                   mrds_dsl_tables:   3654, 3657.
           6    ln1472                   mrds_dsl_tables:   3661, 3668.
           1    ln1479                   mrds_dsl_tables:   3672, 3674.
           2    ln148                    mrds_dsl_tables:   1405, 1408.
           2    ln1481                   mrds_dsl_tables:   3678, 3681.
           2    ln1484                   mrds_dsl_tables:   3685, 3688.
           4    ln1487                   mrds_dsl_tables:   3692, 3697.
           2    ln1492                   mrds_dsl_tables:   3701, 3704.
           2    ln1495                   mrds_dsl_tables:   3708, 3711.
           2    ln1500                   mrds_dsl_tables:   3725, 3728.
           2    ln1503                   mrds_dsl_tables:   3732, 3735.
           2    ln1506                   mrds_dsl_tables:   3739, 3742.
           1    ln1509                   mrds_dsl_tables:   3746, 3748.
           7    ln151                    mrds_dsl_tables:   1412, 1420.
           1    ln1511                   mrds_dsl_tables:   3752, 3754.
           2    ln1513                   mrds_dsl_tables:   3758, 3761.
           2    ln1516                   mrds_dsl_tables:   3765, 3768.
           2    ln1519                   mrds_dsl_tables:   3772, 3775.
           1    ln1522                   mrds_dsl_tables:   3779, 3781.
           2    ln1524                   mrds_dsl_tables:   3785, 3788.
           1    ln1527                   mrds_dsl_tables:   3792, 3794.
           1    ln1529                   mrds_dsl_tables:   3798, 3800.
           2    ln1531                   mrds_dsl_tables:   3804, 3807.
           5    ln1534                   mrds_dsl_tables:   3811, 3817.
           1    ln1540                   mrds_dsl_tables:   3821, 3823.
           3    ln1543                   mrds_dsl_tables:   3832, 3836.
           2    ln1547                   mrds_dsl_tables:   3840, 3843.
           2    ln1550                   mrds_dsl_tables:   3847, 3850.
           6    ln1556                   mrds_dsl_tables:   3869, 3876.
           2    ln1563                   mrds_dsl_tables:   3880, 3883.
           1    ln1566                   mrds_dsl_tables:   3887, 3889.
          11    ln1568                   mrds_dsl_tables:   3893, 3903.
           1    ln1578                   mrds_dsl_tables:   3907, 3909.
          41    ln1580                   mrds_dsl_tables:   3913, 3947.
           2    ln159                    mrds_dsl_tables:   1424, 1427.
           3    ln1614                   mrds_dsl_tables:   3951, 3955.
           3    ln1618                   mrds_dsl_tables:   3959, 3963.
           2    ln162                    mrds_dsl_tables:   1431, 1434.
           2    ln1622                   mrds_dsl_tables:   3967, 3970.
           2    ln1625                   mrds_dsl_tables:   3974, 3977.
           2    ln1628                   mrds_dsl_tables:   3981, 3984.
           2    ln1631                   mrds_dsl_tables:   3988, 3991.
           1    ln1634                   mrds_dsl_tables:   3995, 3997.
           3    ln1637                   mrds_dsl_tables:   4006, 4010.
           2    ln1641                   mrds_dsl_tables:   4014, 4017.
          15    ln1644                   mrds_dsl_tables:   4021, 4035.
          13    ln165                    mrds_dsl_tables:   1438, 1450.
           2    ln1658                   mrds_dsl_tables:   4039, 4042.
           4    ln1661                   mrds_dsl_tables:   4046, 4051.
           1    ln1666                   mrds_dsl_tables:   4055, 4057.
           4    ln1669                   mrds_dsl_tables:   4066, 4071.
           2    ln1674                   mrds_dsl_tables:   4075, 4078.
           1    ln1677                   mrds_dsl_tables:   4082, 4084.
           2    ln1680                   mrds_dsl_tables:   4093, 4096.
           4    ln1683                   mrds_dsl_tables:   4100, 4105.
           2    ln1689                   mrds_dsl_tables:   4114, 4117.
           1    ln1692                   mrds_dsl_tables:   4121, 4123.
           2    ln1694                   mrds_dsl_tables:   4127, 4130.
           1    ln1697                   mrds_dsl_tables:   4134, 4136.
           2    ln1699                   mrds_dsl_tables:   4140, 4143.
           1    ln1702                   mrds_dsl_tables:   4147, 4149.
           2    ln1704                   mrds_dsl_tables:   4153, 4156.
           2    ln1707                   mrds_dsl_tables:   4160, 4163.
           2    ln1710                   mrds_dsl_tables:   4167, 4170.
           1    ln1713                   mrds_dsl_tables:   4174, 4176.
           3    ln1715                   mrds_dsl_tables:   4180, 4184.
           2    ln1719                   mrds_dsl_tables:   4188, 4191.
           5    ln1722                   mrds_dsl_tables:   4195, 4201.
           3    ln1728                   mrds_dsl_tables:   4205, 4209.
           2    ln1732                   mrds_dsl_tables:   4213, 4216.
           2    ln1739                   mrds_dsl_tables:   4240, 4243.
           2    ln1742                   mrds_dsl_tables:   4247, 4250.
          14    ln1745                   mrds_dsl_tables:   4254, 4267.
           2    ln1758                   mrds_dsl_tables:   4271, 4274.
           2    ln1761                   mrds_dsl_tables:   4278, 4281.
           2    ln1764                   mrds_dsl_tables:   4285, 4288.
           2    ln180                    mrds_dsl_tables:   1469, 1472.
           2    ln183                    mrds_dsl_tables:   1476, 1479.
           2    ln186                    mrds_dsl_tables:   1483, 1486.
           3    ln189                    mrds_dsl_tables:   1490, 1494.
           4    ln193                    mrds_dsl_tables:   1498, 1503.
           3    ln199                    mrds_dsl_tables:   1512, 1516.
           2    ln203                    mrds_dsl_tables:   1520, 1523.
           2    ln206                    mrds_dsl_tables:   1527, 1530.
           1    ln209                    mrds_dsl_tables:   1534, 1536.
          14    ln211                    mrds_dsl_tables:   1540, 1553.
           2    ln224                    mrds_dsl_tables:   1557, 1560.
          12    ln227                    mrds_dsl_tables:   1564, 1575.
           3    ln23                     mrds_dsl_tables:   1160, 1164.
          13    ln238                    mrds_dsl_tables:   1579, 1591.
           2    ln250                    mrds_dsl_tables:   1595, 1598.
          12    ln253                    mrds_dsl_tables:   1602, 1613.
           3    ln264                    mrds_dsl_tables:   1617, 1621.
           1    ln268                    mrds_dsl_tables:   1625, 1627.
           2    ln27                     mrds_dsl_tables:   1168, 1171.
          22    ln271                    mrds_dsl_tables:   1636, 1655.
          15    ln290                    mrds_dsl_tables:   1659, 1673.
           6    ln30                     mrds_dsl_tables:   1175, 1182.
           2    ln304                    mrds_dsl_tables:   1677, 1680.
           2    ln307                    mrds_dsl_tables:   1684, 1687.
           1    ln310                    mrds_dsl_tables:   1691, 1693.
           1    ln312                    mrds_dsl_tables:   1697, 1699.
           1    ln314                    mrds_dsl_tables:   1703, 1705.
          22    ln316                    mrds_dsl_tables:   1709, 1728.
           2    ln335                    mrds_dsl_tables:   1732, 1735.
           2    ln338                    mrds_dsl_tables:   1739, 1742.
           1    ln341                    mrds_dsl_tables:   1746, 1748.
           5    ln343                    mrds_dsl_tables:   1752, 1758.
           4    ln350                    mrds_dsl_tables:   1767, 1772.
           2    ln355                    mrds_dsl_tables:   1776, 1779.
           2    ln358                    mrds_dsl_tables:   1783, 1786.
           2    ln361                    mrds_dsl_tables:   1790, 1793.
           3    ln364                    mrds_dsl_tables:   1797, 1801.
           2    ln368                    mrds_dsl_tables:   1805, 1808.
           2    ln37                     mrds_dsl_tables:   1186, 1189.
           2    ln371                    mrds_dsl_tables:   1812, 1815.
          17    ln374                    mrds_dsl_tables:   1819, 1835.
          16    ln390                    mrds_dsl_tables:   1839, 1854.
           5    ln40                     mrds_dsl_tables:   1193, 1199.
           3    ln405                    mrds_dsl_tables:   1858, 1862.
          30    ln409                    mrds_dsl_tables:   1866, 1891.
           2    ln434                    mrds_dsl_tables:   1895, 1898.
          30    ln437                    mrds_dsl_tables:   1902, 1927.
           3    ln46                     mrds_dsl_tables:   1203, 1207.
           2    ln462                    mrds_dsl_tables:   1931, 1934.
           2    ln465                    mrds_dsl_tables:   1938, 1941.
          42    ln468                    mrds_dsl_tables:   1945, 1980.
           2    ln50                     mrds_dsl_tables:   1211, 1214.
           2    ln503                    mrds_dsl_tables:   1984, 1987.
          11    ln506                    mrds_dsl_tables:   1991, 2001.
           3    ln516                    mrds_dsl_tables:   2005, 2009.
           2    ln520                    mrds_dsl_tables:   2013, 2016.
           2    ln523                    mrds_dsl_tables:   2020, 2023.
           2    ln526                    mrds_dsl_tables:   2027, 2030.
           4    ln529                    mrds_dsl_tables:   2034, 2039.
           1    ln53                     mrds_dsl_tables:   1218, 1220.
           2    ln534                    mrds_dsl_tables:   2043, 2046.
           2    ln537                    mrds_dsl_tables:   2050, 2053.
           2    ln540                    mrds_dsl_tables:   2057, 2060.
           2    ln543                    mrds_dsl_tables:   2064, 2067.
          12    ln546                    mrds_dsl_tables:   2071, 2082.
           3    ln55                     mrds_dsl_tables:   1224, 1228.
           6    ln557                    mrds_dsl_tables:   2086, 2093.
          24    ln565                    mrds_dsl_tables:   2102, 2123.
          22    ln586                    mrds_dsl_tables:   2127, 2146.
           3    ln6                      mrds_dsl_tables:   1127, 1131.
           2    ln60                     mrds_dsl_tables:   1237, 1240.
           3    ln605                    mrds_dsl_tables:   2150, 2154.
           2    ln609                    mrds_dsl_tables:   2158, 2161.
           2    ln612                    mrds_dsl_tables:   2165, 2168.
          31    ln615                    mrds_dsl_tables:   2172, 2198.
           3    ln63                     mrds_dsl_tables:   1244, 1248.
          30    ln641                    mrds_dsl_tables:   2202, 2227.
          14    ln666                    mrds_dsl_tables:   2231, 2244.
           5    ln67                     mrds_dsl_tables:   1252, 1258.
           2    ln679                    mrds_dsl_tables:   2248, 2251.
          10    ln682                    mrds_dsl_tables:   2255, 2264.
           3    ln691                    mrds_dsl_tables:   2268, 2272.
           2    ln695                    mrds_dsl_tables:   2276, 2279.
           3    ln698                    mrds_dsl_tables:   2283, 2287.
           2    ln702                    mrds_dsl_tables:   2291, 2294.
           3    ln705                    mrds_dsl_tables:   2298, 2302.
           2    ln709                    mrds_dsl_tables:   2306, 2309.
          11    ln712                    mrds_dsl_tables:   2313, 2323.
          10    ln722                    mrds_dsl_tables:   2327, 2336.
           2    ln73                     mrds_dsl_tables:   1262, 1265.
          15    ln731                    mrds_dsl_tables:   2340, 2354.
          11    ln746                    mrds_dsl_tables:   2363, 2373.
           6    ln756                    mrds_dsl_tables:   2377, 2384.
           1    ln76                     mrds_dsl_tables:   1269, 1271.
           2    ln764                    mrds_dsl_tables:   2393, 2396.
           6    ln767                    mrds_dsl_tables:   2400, 2407.
           2    ln774                    mrds_dsl_tables:   2411, 2414.
           1    ln777                    mrds_dsl_tables:   2418, 2420.
           2    ln779                    mrds_dsl_tables:   2424, 2427.
          14    ln78                     mrds_dsl_tables:   1275, 1288.
           3    ln782                    mrds_dsl_tables:   2431, 2435.
           2    ln786                    mrds_dsl_tables:   2439, 2442.
           3    ln789                    mrds_dsl_tables:   2446, 2450.
           2    ln793                    mrds_dsl_tables:   2454, 2457.
           2    ln796                    mrds_dsl_tables:   2461, 2464.
          15    ln800                    mrds_dsl_tables:   2473, 2487.
          12    ln814                    mrds_dsl_tables:   2491, 2502.
           4    ln825                    mrds_dsl_tables:   2506, 2511.
           2    ln830                    mrds_dsl_tables:   2515, 2518.
           2    ln833                    mrds_dsl_tables:   2522, 2525.
          10    ln836                    mrds_dsl_tables:   2529, 2538.
           1    ln851                    mrds_dsl_tables:   2572, 2574.
           5    ln853                    mrds_dsl_tables:   2578, 2584.
           2    ln859                    mrds_dsl_tables:   2588, 2591.
          15    ln862                    mrds_dsl_tables:   2595, 2609.
           3    ln876                    mrds_dsl_tables:   2613, 2617.
           1    ln880                    mrds_dsl_tables:   2621, 2623.
           2    ln882                    mrds_dsl_tables:   2627, 2630.
           2    ln885                    mrds_dsl_tables:   2634, 2637.
           2    ln888                    mrds_dsl_tables:   2641, 2644.
           2    ln891                    mrds_dsl_tables:   2648, 2651.
           2    ln894                    mrds_dsl_tables:   2655, 2658.
          11    ln897                    mrds_dsl_tables:   2662, 2672.
           2    ln907                    mrds_dsl_tables:   2676, 2679.
           3    ln91                     mrds_dsl_tables:   1292, 1296.
           2    ln910                    mrds_dsl_tables:   2683, 2686.
          14    ln913                    mrds_dsl_tables:   2690, 2703.
          12    ln926                    mrds_dsl_tables:   2707, 2718.
           1    ln937                    mrds_dsl_tables:   2722, 2724.
           2    ln939                    mrds_dsl_tables:   2728, 2731.
           2    ln942                    mrds_dsl_tables:   2735, 2738.
           2    ln945                    mrds_dsl_tables:   2742, 2745.
           2    ln948                    mrds_dsl_tables:   2749, 2752.
           2    ln95                     mrds_dsl_tables:   1300, 1303.
           2    ln951                    mrds_dsl_tables:   2756, 2759.
           2    ln954                    mrds_dsl_tables:   2763, 2766.
           2    ln957                    mrds_dsl_tables:   2770, 2773.
           2    ln960                    mrds_dsl_tables:   2777, 2780.
           3    ln963                    mrds_dsl_tables:   2784, 2788.
           2    ln967                    mrds_dsl_tables:   2792, 2795.
          11    ln970                    mrds_dsl_tables:   2799, 2809.
          13    ln98                     mrds_dsl_tables:   1307, 1319.
          21    ln980                    mrds_dsl_tables:   2813, 2831.
          21    ln998                    mrds_dsl_tables:   2835, 2853.
           1    look                     mrds_dsl_tables:     24, 3907, 3913, 4254.
          20    lookc                    mrds_dsl_tables:     39.
          16    lookd                    mrds_dsl_tables:     37.
           3    looks                    mrds_dsl_tables:     26.
          11    nsrd                     mrds_dsl_tables:     32, 1147, 1193, 1203, 1252, 1275, 1307, 1380, 1412, 1490, 1540,
                                                            1564, 1579, 1602, 1659, 1819, 1839, 1945, 1991, 2102, 2127, 2172,
                                                            2202, 2231, 2313, 2327, 2400, 2411, 2473, 2595, 2690, 2799, 2813,
                                                            2835, 2863, 2870, 2901, 2958, 3026, 3100, 3115, 3135, 3161, 3181,
                                                            3211, 3255, 3292, 3344, 3373, 3429, 3599, 3622, 3631.
          21    nsrdc                    mrds_dsl_tables:     40.
          17    nsrdd                    mrds_dsl_tables:     38.
          12    nsrds                    mrds_dsl_tables:     33.
           7    nulls                    mrds_dsl_tables:     30.
        4647    object_def               mrds_dsl_tables:   5209, 5210, 5212, 5213, 5214, 5215, 5216, 5217, 5218, 5219, 5220.
        4521    pn                       mrds_dsl_tables:   4307.
        4521    production_names         mrds_dsl_tables:   4307, 4309, 5218.
        4515    skip                     mrds_dsl_tables:   4294, 4295, 4299, 5216.
           2    skip_size                mrds_dsl_tables:   4294, 4299.
           0    st0                      mrds_dsl_tables:     45, 1219.
           1    st1                      mrds_dsl_tables:   1117, 1123, 1178.
          12    st10                     mrds_dsl_tables:   1134, 1137, 1367, 1620.
        1770    st1016                   mrds_dsl_tables:   2856, 2859, 3473.
        1772    st1018                   mrds_dsl_tables:   2862, 2866, 3517, 3524.
        1775    st1021                   mrds_dsl_tables:   2869, 2884, 4024, 4025.
        2013    st1035                   mrds_dsl_tables:   2887, 2890, 4182.
        2015    st1037                   mrds_dsl_tables:   2893, 2897, 4068.
        2020    st1040                   mrds_dsl_tables:   1177, 2900, 2906.
        2025    st1045                   mrds_dsl_tables:   2909, 2912, 3896, 3897, 3898, 3899, 3900, 3901, 3902.
        2027    st1047                   mrds_dsl_tables:   2915, 2918, 3057.
        2031    st1049                   mrds_dsl_tables:   1642, 1643, 1646, 1647, 1648, 2921, 2926, 2932, 2939, 2946, 2953.
        2035    st1053                   mrds_dsl_tables:   1916, 1917, 1918, 1919, 1920, 2929, 2933.
        2040    st1056                   mrds_dsl_tables:   2936, 2940, 2959, 2960, 2961, 2962, 3663.
        2043    st1059                   mrds_dsl_tables:   2496, 2943, 2947.
        2046    st1062                   mrds_dsl_tables:   2950, 2954, 3600, 3601, 3602, 3603, 3610.
        2051    st1065                   mrds_dsl_tables:   2957, 2964, 3664, 3665.
        2057    st1071                   mrds_dsl_tables:   1878, 2581, 2924, 2967, 2973.
        2064    st1076                   mrds_dsl_tables:   2976, 2981, 2987, 2994, 3592.
        2070    st1080                   mrds_dsl_tables:   2963, 2984, 2988.
        2073    st1083                   mrds_dsl_tables:   2991, 2995, 3604.
        2076    st1086                   mrds_dsl_tables:   2979, 2998, 3001.
        2100    st1088                   mrds_dsl_tables:   1646, 1918, 2378, 3004, 3012, 3016, 3021, 3593, 3898.
        2107    st1095                   mrds_dsl_tables:   1647, 1919, 2925, 3015, 3411, 3418, 3899.
        2110    st1096                   mrds_dsl_tables:   1648, 1920, 3006, 3020, 3594, 3900.
        2111    st1097                   mrds_dsl_tables:   2383, 3011, 3025, 3029, 3387, 3584.
         156    st110                    mrds_dsl_tables:   1128, 1322, 1331, 1335, 1340, 1345, 1350, 1355, 1360, 1712, 1869,
                                                            1905, 3451, 3709.
        2114    st1100                   mrds_dsl_tables:   3032, 3036, 3042.
        2117    st1103                   mrds_dsl_tables:   3039, 3044, 3050, 4103.
        2123    st1107                   mrds_dsl_tables:   3047, 3051, 4104.
        2126    st1110                   mrds_dsl_tables:   1391, 1660, 1661, 1662, 1663, 1664, 1665, 1666, 1667, 1668, 1669,
                                                            1670, 1672, 2419, 2573, 3028, 3054, 3069.
        2144    st1124                   mrds_dsl_tables:   2449, 3072, 3076.
        2147    st1127                   mrds_dsl_tables:   1515, 3079, 3082.
        2151    st1129                   mrds_dsl_tables:   3085, 3089, 4135.
        2154    st1132                   mrds_dsl_tables:   3092, 3096, 4242, 4280.
        2157    st1135                   mrds_dsl_tables:   3099, 3105, 4026.
        2164    st1140                   mrds_dsl_tables:   3063, 3108, 3111.
        2166    st1142                   mrds_dsl_tables:   1800, 3114, 3131.
        2206    st1158                   mrds_dsl_tables:   3134, 3150, 3835.
        2225    st1173                   mrds_dsl_tables:   3153, 3157, 4148.
        2230    st1176                   mrds_dsl_tables:   3160, 3169, 4070.
         166    st118                    mrds_dsl_tables:   1334, 1713, 1870, 1906, 3452, 3679, 3753, 3872.
        2240    st1184                   mrds_dsl_tables:   1879, 3172, 3177, 4027, 4033, 4034.
        2244    st1188                   mrds_dsl_tables:   2153, 3180, 3207.
         167    st119                    mrds_dsl_tables:   1339, 1714, 1871, 1907, 3453, 3695, 3873.
          14    st12                     mrds_dsl_tables:   1140, 1143, 1368, 1619.
         170    st120                    mrds_dsl_tables:   1324, 1344, 1715, 1753, 1872, 1908, 3454, 3874.
         171    st121                    mrds_dsl_tables:   1349, 1716, 1800, 1873, 1909, 2580, 3455.
        2276    st1214                   mrds_dsl_tables:   3210, 3236, 4009.
         172    st122                    mrds_dsl_tables:   1354, 1717, 1874, 1876, 1877, 1881, 1883, 1884, 1910, 3456, 3835.
         173    st123                    mrds_dsl_tables:   1359, 1718, 1875, 1911, 3457, 3875, 4122.
        2327    st1239                   mrds_dsl_tables:   1880, 2787, 3239, 3244, 4028.
         174    st124                    mrds_dsl_tables:   1129, 1364, 1369, 1375.
        2333    st1243                   mrds_dsl_tables:   2368, 3247, 3251.
        2336    st1246                   mrds_dsl_tables:   3254, 3267, 4031.
        2352    st1258                   mrds_dsl_tables:   3250, 3270, 3274, 4249.
        2355    st1261                   mrds_dsl_tables:   3277, 3281, 4161.
        2360    st1264                   mrds_dsl_tables:   3284, 3288, 4162.
        2363    st1267                   mrds_dsl_tables:   3291, 3304, 4032.
        2377    st1279                   mrds_dsl_tables:   2008, 3307, 3311.
         200    st128                    mrds_dsl_tables:   1308, 1310, 1311, 1312, 1313, 1314, 1315, 1316, 1317, 1372, 1376.
        2402    st1282                   mrds_dsl_tables:   1649, 1921, 2369, 2708, 3314, 3327, 4033.
        2416    st1294                   mrds_dsl_tables:   1650, 1922, 2370, 2723, 3330, 3340, 4183.
        2427    st1303                   mrds_dsl_tables:   2301, 3343, 3354.
         203    st131                    mrds_dsl_tables:   1130, 1379, 1394, 3710.
        2441    st1313                   mrds_dsl_tables:   1651, 1923, 2371, 2858, 3357, 3364, 3368, 3474.
        2447    st1319                   mrds_dsl_tables:   1652, 1924, 2372, 3367, 3475, 4175.
        2450    st1320                   mrds_dsl_tables:   1180, 3372, 3378.
        2455    st1325                   mrds_dsl_tables:   1653, 1925, 2911, 3064, 3381, 3389, 3666, 3901.
        2464    st1332                   mrds_dsl_tables:   2496, 2917, 3392, 3395, 3399, 3404.
        2466    st1334                   mrds_dsl_tables:   2497, 3110, 3398.
        2467    st1335                   mrds_dsl_tables:   2498, 3403, 3530.
        2470    st1336                   mrds_dsl_tables:   2581, 3408, 3412.
        2473    st1339                   mrds_dsl_tables:   1878, 3415, 3419.
        2476    st1342                   mrds_dsl_tables:   3422, 3425, 3593.
        2500    st1344                   mrds_dsl_tables:   3428, 3436, 3875.
        2507    st1351                   mrds_dsl_tables:   3081, 3439, 3444.
        2513    st1355                   mrds_dsl_tables:   3094, 3447, 3467.
        2536    st1374                   mrds_dsl_tables:   2369, 2370, 2371, 2372, 2800, 3470, 3476, 3482, 3489.
        2543    st1379                   mrds_dsl_tables:   1650, 1651, 1652, 2817, 3479, 3483.
        2546    st1382                   mrds_dsl_tables:   1922, 1923, 1924, 2839, 3486, 3490.
        2551    st1385                   mrds_dsl_tables:   1181, 3316, 3493, 3495, 3505, 4034.
        2564    st1396                   mrds_dsl_tables:   3508, 3511, 4183.
        2566    st1398                   mrds_dsl_tables:   3474, 3514, 3518.
          16    st14                     mrds_dsl_tables:   1146, 1156, 1400, 1407.
        2571    st1401                   mrds_dsl_tables:   3475, 3521, 3525.
        2574    st1404                   mrds_dsl_tables:   3064, 3065, 3528, 3531.
        2576    st1406                   mrds_dsl_tables:   1653, 1654, 3534, 3539, 3545, 3552, 3559, 3566.
        2602    st1410                   mrds_dsl_tables:   1925, 1926, 3542, 3546.
        2605    st1413                   mrds_dsl_tables:   3549, 3553, 3666, 3667.
        2610    st1416                   mrds_dsl_tables:   2498, 3556, 3560.
        2613    st1419                   mrds_dsl_tables:   3563, 3567, 3673.
        2616    st1422                   mrds_dsl_tables:   3537, 3570, 3574.
        2621    st1425                   mrds_dsl_tables:   1654, 1926, 3065, 3538, 3573, 3577, 3586, 3656, 3667, 3902.
        2631    st1433                   mrds_dsl_tables:   2925, 3589, 3595.
        2636    st1438                   mrds_dsl_tables:   3424, 3598, 3605.
        2644    st1444                   mrds_dsl_tables:   3594, 3608, 3611.
        2646    st1446                   mrds_dsl_tables:   3043, 3614, 3618.
        2651    st1449                   mrds_dsl_tables:   3621, 3627, 4029.
         221    st145                    mrds_dsl_tables:   1397, 1401, 1620.
        2656    st1454                   mrds_dsl_tables:   3630, 3643, 4030.
        2672    st1466                   mrds_dsl_tables:   3510, 3646, 3650.
        2675    st1469                   mrds_dsl_tables:   3538, 3653, 3657.
        2700    st1472                   mrds_dsl_tables:   3579, 3660, 3668.
        2707    st1479                   mrds_dsl_tables:   2980, 3671, 3674.
         224    st148                    mrds_dsl_tables:   1368, 1404, 1408.
        2711    st1481                   mrds_dsl_tables:   1151, 1155, 3677, 3681.
        2714    st1484                   mrds_dsl_tables:   1148, 1149, 1150, 1152, 1153, 1154, 3684, 3688.
        2717    st1487                   mrds_dsl_tables:   1195, 1196, 1197, 1198, 3691, 3697.
        2724    st1492                   mrds_dsl_tables:   1194, 3700, 3704.
        2727    st1495                   mrds_dsl_tables:   1205, 1206, 1295, 2499, 3066, 3707, 3711, 3715, 3720.
        2732    st1498                   mrds_dsl_tables:   1309, 1318, 2500, 2509, 3067, 3714.
        2733    st1499                   mrds_dsl_tables:   1492, 1493, 2501, 2510, 3068, 3719.
        2734    st1500                   mrds_dsl_tables:   1204, 3724, 3728.
        2737    st1503                   mrds_dsl_tables:   1255, 1256, 3731, 3735.
        2742    st1506                   mrds_dsl_tables:   1253, 1254, 1257, 3738, 3742.
        2745    st1509                   mrds_dsl_tables:   1286, 3745, 3748.
         227    st151                    mrds_dsl_tables:   1411, 1420, 4095.
        2747    st1511                   mrds_dsl_tables:   1416, 3751, 3754, 3962.
        2751    st1513                   mrds_dsl_tables:   1413, 1414, 1415, 1417, 1418, 1419, 3757, 3761.
        2754    st1516                   mrds_dsl_tables:   1491, 3764, 3768.
        2757    st1519                   mrds_dsl_tables:   1541, 1542, 1543, 1544, 1545, 1546, 1547, 1548, 1549, 1550, 1551,
                                                            3771, 3775.
        2762    st1522                   mrds_dsl_tables:   1566, 3443, 3778, 3781.
        2764    st1524                   mrds_dsl_tables:   1565, 1567, 1568, 1569, 1570, 1571, 1572, 1573, 1574, 3784, 3788.
        2767    st1527                   mrds_dsl_tables:   1581, 3791, 3794.
        2771    st1529                   mrds_dsl_tables:   1605, 3797, 3800.
        2773    st1531                   mrds_dsl_tables:   1603, 1604, 1606, 1607, 1608, 1609, 1610, 1611, 1612, 3803, 3807.
        2776    st1534                   mrds_dsl_tables:   1671, 3810, 3817, 3937.
        3004    st1540                   mrds_dsl_tables:   1834, 3820, 3823, 3827.
        3006    st1542                   mrds_dsl_tables:   3130, 3826.
        3007    st1543                   mrds_dsl_tables:   1820, 1821, 1822, 1823, 1824, 1825, 1826, 1827, 1828, 1829, 1830,
                                                            1831, 1832, 1833, 3831, 3836, 3842.
        3013    st1547                   mrds_dsl_tables:   3116, 3117, 3118, 3119, 3120, 3121, 3122, 3123, 3124, 3125, 3126,
                                                            3127, 3128, 3129, 3839, 3843.
        3016    st1550                   mrds_dsl_tables:   1842, 1853, 3846, 3850, 3854, 3859, 3864.
        3021    st1553                   mrds_dsl_tables:   2206, 2219, 2582, 3853.
        3022    st1554                   mrds_dsl_tables:   3138, 3149, 3858.
        3023    st1555                   mrds_dsl_tables:   2583, 3215, 3228, 3863.
        3024    st1556                   mrds_dsl_tables:   1840, 1841, 1843, 1844, 1845, 1846, 1847, 1848, 1849, 1850, 1851,
                                                            1852, 3868, 3876, 3882.
        3033    st1563                   mrds_dsl_tables:   3136, 3137, 3139, 3140, 3141, 3142, 3143, 3144, 3145, 3146, 3147,
                                                            3148, 3879, 3883.
        3036    st1566                   mrds_dsl_tables:   3886, 3889, 3914, 3915, 3916, 3917, 3918, 3919, 3920, 3921, 3922,
                                                            3923, 3924, 3925, 3926, 3927, 3928, 3929, 3930, 3931, 3932, 3933,
                                                            3934, 3935, 3936, 3938, 3939, 3940, 3941, 3942, 3943, 3944, 3945, 3946.
        3040    st1568                   mrds_dsl_tables:   1948, 3027, 3892, 3903.
        3052    st1578                   mrds_dsl_tables:   1970, 3906, 3909.
        3054    st1580                   mrds_dsl_tables:   3908, 3912, 3947.
         237    st159                    mrds_dsl_tables:   1423, 1427, 3961.
        3116    st1614                   mrds_dsl_tables:   1881, 1994, 1995, 1997, 3950, 3955.
        3122    st1618                   mrds_dsl_tables:   1992, 1993, 1996, 1998, 1999, 2000, 3958, 3963, 3969.
         242    st162                    mrds_dsl_tables:   1426, 1430, 1434, 1986, 3760.
        3126    st1622                   mrds_dsl_tables:   3162, 3163, 3164, 3165, 3166, 3167, 3966, 3970.
        3131    st1625                   mrds_dsl_tables:   2113, 2114, 3973, 3977.
        3134    st1628                   mrds_dsl_tables:   2109, 2112, 3980, 3984.
        3137    st1631                   mrds_dsl_tables:   2134, 2137, 3987, 3991.
        3142    st1634                   mrds_dsl_tables:   2197, 3994, 3997, 4001.
        3144    st1636                   mrds_dsl_tables:   3206, 4000.
        3145    st1637                   mrds_dsl_tables:   2173, 2174, 2175, 2176, 2177, 2178, 2179, 2180, 2181, 2182, 2183,
                                                            2184, 2185, 2186, 2187, 2188, 2189, 2190, 2191, 2192, 2193, 2194,
                                                            2195, 2196, 4005, 4010, 4016.
        3151    st1641                   mrds_dsl_tables:   3182, 3183, 3184, 3185, 3186, 3187, 3188, 3189, 3190, 3191, 3192,
                                                            3193, 3194, 3195, 3196, 3197, 3198, 3199, 3200, 3201, 3202, 3203,
                                                            3204, 3205, 4013, 4017.
        3154    st1644                   mrds_dsl_tables:   2203, 2204, 2205, 2207, 2208, 2209, 2210, 2211, 2212, 2213, 2214,
                                                            2215, 2216, 2217, 2218, 2220, 2221, 2222, 2223, 2224, 2225, 2226,
                                                            4020, 4035, 4041.
         245    st165                    mrds_dsl_tables:   1437, 1450, 1454, 1459, 1464, 1719, 3458, 3680, 4069.
        3172    st1658                   mrds_dsl_tables:   3212, 3213, 3214, 3216, 3217, 3218, 3219, 3220, 3221, 3222, 3223,
                                                            3224, 3225, 3226, 3227, 3229, 3230, 3231, 3232, 3233, 3234, 3235,
                                                            4038, 4042.
        3175    st1661                   mrds_dsl_tables:   1882, 2232, 2233, 2234, 2236, 4045, 4051.
        3202    st1666                   mrds_dsl_tables:   2315, 4054, 4057, 4061.
        3204    st1668                   mrds_dsl_tables:   3346, 4060.
        3205    st1669                   mrds_dsl_tables:   2314, 2316, 2317, 2318, 2319, 2320, 2321, 2322, 4065, 4071, 4077.
        3212    st1674                   mrds_dsl_tables:   3345, 3347, 3348, 3349, 3350, 3351, 3352, 3353, 4074, 4078.
        3215    st1677                   mrds_dsl_tables:   2335, 4081, 4084, 4088.
        3217    st1679                   mrds_dsl_tables:   3168, 4087.
        3220    st1680                   mrds_dsl_tables:   2328, 2329, 2330, 2331, 2332, 2333, 2334, 4092, 4096.
        3223    st1683                   mrds_dsl_tables:   1883, 2402, 2404, 2405, 2406, 4099, 4105, 4109.
        3230    st1688                   mrds_dsl_tables:   1884, 3043, 3431, 3433, 3434, 3435, 4108.
        3231    st1689                   mrds_dsl_tables:   2401, 2403, 4113, 4117.
        3234    st1692                   mrds_dsl_tables:   2413, 4120, 4123.
        3236    st1694                   mrds_dsl_tables:   2412, 4126, 4130.
        3241    st1697                   mrds_dsl_tables:   2477, 4133, 4136.
        3243    st1699                   mrds_dsl_tables:   2474, 2475, 2476, 2478, 2479, 2480, 2481, 2482, 2483, 2484, 2485,
                                                            2486, 4139, 4143.
        3246    st1702                   mrds_dsl_tables:   2599, 4146, 4149.
        3250    st1704                   mrds_dsl_tables:   2596, 2597, 2598, 2600, 2601, 2602, 2603, 2604, 2605, 2606, 2607,
                                                            2608, 4152, 4156.
        3253    st1707                   mrds_dsl_tables:   2694, 2695, 4159, 4163.
        3256    st1710                   mrds_dsl_tables:   2691, 2692, 2693, 2696, 2697, 2698, 2699, 2700, 2701, 2702, 4166, 4170.
        3261    st1713                   mrds_dsl_tables:   2865, 4173, 4176.
        3263    st1715                   mrds_dsl_tables:   2864, 4179, 4184, 4190.
        3267    st1719                   mrds_dsl_tables:   2902, 4187, 4191, 4258, 4259, 4261, 4262, 4263, 4264, 4265, 4266.
        3272    st1722                   mrds_dsl_tables:   1885, 2871, 2872, 2873, 2874, 2876, 4194, 4201.
        3300    st1728                   mrds_dsl_tables:   2903, 2904, 2905, 4204, 4209.
        3304    st1732                   mrds_dsl_tables:   1886, 3102, 3104, 4212, 4216, 4220, 4225, 4230, 4235.
        3307    st1735                   mrds_dsl_tables:   1887, 3259, 3260, 4219.
        3310    st1736                   mrds_dsl_tables:   1888, 3296, 3297, 4224.
        3311    st1737                   mrds_dsl_tables:   1889, 3624, 3626, 4229.
        3312    st1738                   mrds_dsl_tables:   1890, 3635, 3636, 4234.
        3313    st1739                   mrds_dsl_tables:   3101, 3103, 4239, 4243.
        3316    st1742                   mrds_dsl_tables:   3256, 3257, 3258, 3261, 3262, 3263, 3264, 3265, 3266, 4246, 4250.
        3321    st1745                   mrds_dsl_tables:   3374, 4253, 4267.
        3336    st1758                   mrds_dsl_tables:   3430, 3432, 4270, 4274.
        3341    st1761                   mrds_dsl_tables:   3623, 3625, 4277, 4281.
        3344    st1764                   mrds_dsl_tables:   3632, 3633, 3634, 3637, 3638, 3639, 3640, 3641, 3642, 4284, 4288.
         261    st177                    mrds_dsl_tables:   1453, 1720, 3459, 3954, 4070.
         262    st178                    mrds_dsl_tables:   1458, 1721, 2286, 2786, 3460.
         263    st179                    mrds_dsl_tables:   1463, 1722, 2301, 2794, 3461.
         264    st180                    mrds_dsl_tables:   1468, 1472, 1500, 3693, 4206.
         267    st183                    mrds_dsl_tables:   1475, 1479, 1501, 3694, 4207.
         272    st186                    mrds_dsl_tables:   1482, 1486, 1502, 3696, 4208.
         275    st189                    mrds_dsl_tables:   1295, 1489, 1494.
         301    st193                    mrds_dsl_tables:   1179, 1181, 1497, 1503, 1507.
         306    st198                    mrds_dsl_tables:   1506, 3375, 3376, 3377, 4255, 4256, 4257, 4260.
         307    st199                    mrds_dsl_tables:   1511, 1516, 1522, 1529, 3059, 3061, 3062.
         313    st203                    mrds_dsl_tables:   1519, 1523, 1639, 1644, 1645.
         316    st206                    mrds_dsl_tables:   1526, 1530, 3060.
         321    st209                    mrds_dsl_tables:   1533, 1536, 3814, 3815, 3816.
         323    st211                    mrds_dsl_tables:   1514, 1539, 1553.
         340    st224                    mrds_dsl_tables:   1556, 1560, 3442.
         343    st227                    mrds_dsl_tables:   1559, 1563, 1575, 2441.
          27    st23                     mrds_dsl_tables:   1159, 1164, 1170, 1433, 3687.
         356    st238                    mrds_dsl_tables:   1578, 1591, 2426, 3774.
         372    st250                    mrds_dsl_tables:   1594, 1598, 2448.
         375    st253                    mrds_dsl_tables:   1597, 1601, 1613, 3075.
         410    st264                    mrds_dsl_tables:   1616, 1621, 3787, 3806.
         414    st268                    mrds_dsl_tables:   1245, 1624, 1627, 1631, 3780.
          33    st27                     mrds_dsl_tables:   1167, 1171, 1499.
         416    st270                    mrds_dsl_tables:   1552, 1630, 2434.
         417    st271                    mrds_dsl_tables:   1246, 1442, 1635, 1655, 2075, 2088, 2346, 2379, 2462, 2533, 2666,
                                                            2711, 3007, 3321, 3335, 3359, 3383, 3500, 3580.
         442    st290                    mrds_dsl_tables:   1247, 1658, 1673, 2463.
          36    st30                     mrds_dsl_tables:   1162, 1174, 1182, 1188.
         460    st304                    mrds_dsl_tables:   1676, 1680, 3733.
         463    st307                    mrds_dsl_tables:   1683, 1687, 3734.
         466    st310                    mrds_dsl_tables:   1270, 1690, 1693, 2495.
         470    st312                    mrds_dsl_tables:   1696, 1699, 3747.
         472    st314                    mrds_dsl_tables:   1702, 1705, 3895.
         474    st316                    mrds_dsl_tables:   1708, 1728, 1734, 1741, 2493.
         517    st335                    mrds_dsl_tables:   1731, 1735, 2622.
         522    st338                    mrds_dsl_tables:   1738, 1742, 2497.
         525    st341                    mrds_dsl_tables:   1745, 1748, 3813.
         527    st343                    mrds_dsl_tables:   1723, 1751, 1758, 1762, 1770, 1869, 1870, 1871, 1872, 1873, 1874,
                                                            1875, 1912, 3462.
         535    st349                    mrds_dsl_tables:   1724, 1761, 1771, 1913, 3463, 3822.
         536    st350                    mrds_dsl_tables:   1766, 1772, 1778, 1785, 1792, 1905, 1906, 1907, 1908, 1909, 1910,
                                                            1911, 1912, 1913.
         543    st355                    mrds_dsl_tables:   1712, 1713, 1714, 1715, 1716, 1717, 1718, 1723, 1724, 1775, 1779.
         546    st358                    mrds_dsl_tables:   1782, 1786, 3451, 3452, 3453, 3454, 3455, 3456, 3457, 3462, 3463.
         551    st361                    mrds_dsl_tables:   1789, 1793, 2614.
         554    st364                    mrds_dsl_tables:   1769, 1796, 1801, 1807, 1814.
         560    st368                    mrds_dsl_tables:   1770, 1804, 1808.
          45    st37                     mrds_dsl_tables:   1163, 1185, 1189.
         563    st371                    mrds_dsl_tables:   1771, 1811, 1815.
         566    st374                    mrds_dsl_tables:   1799, 1818, 1835.
         606    st390                    mrds_dsl_tables:   1838, 1854, 3834.
          50    st40                     mrds_dsl_tables:   1178, 1192, 1199.
         625    st405                    mrds_dsl_tables:   1857, 1862, 1876, 3871.
         631    st409                    mrds_dsl_tables:   1325, 1440, 1860, 1865, 1891, 1897, 2073, 2342, 2531, 2615, 2664,
                                                            2709, 2970, 3175, 3242, 3317, 3496, 3952, 4047, 4101, 4197, 4214.
         662    st434                    mrds_dsl_tables:   1326, 1441, 1861, 1894, 1898, 2074, 2343, 2532, 2616, 2665, 2710,
                                                            2971, 3176, 3243, 3318, 3497, 3953, 4048, 4102, 4198, 4215.
         665    st437                    mrds_dsl_tables:   1327, 1444, 1754, 1901, 1927, 1933, 1940, 2077, 2089, 2348, 2380,
                                                            2534, 2668, 2713, 3008, 3323, 3337, 3361, 3384, 3501, 3581.
          56    st46                     mrds_dsl_tables:   1202, 1207, 1239.
         716    st462                    mrds_dsl_tables:   1328, 1445, 1755, 1930, 1934, 2078, 2090, 2349, 2381, 2535, 2669,
                                                            2714, 3009, 3324, 3338, 3362, 3385, 3502, 3582.
         721    st465                    mrds_dsl_tables:   1329, 1446, 1756, 1937, 1941, 2079, 2091, 2350, 2382, 2536, 2670,
                                                            2715, 3010, 3325, 3339, 3363, 3386, 3503, 3583.
         724    st468                    mrds_dsl_tables:   1330, 1447, 1757, 1944, 1980, 2080, 2092, 2351, 2537, 2671, 2716,
                                                            3326, 3504.
          62    st50                     mrds_dsl_tables:   1210, 1214, 3727, 3767.
         767    st503                    mrds_dsl_tables:   1983, 1987, 3962.
         772    st506                    mrds_dsl_tables:   1990, 2001, 3872.
        1004    st516                    mrds_dsl_tables:   2004, 2009, 2015, 2022, 2029, 2365, 2801, 2802, 2803, 2804, 2805,
                                                            2806, 2807, 2808.
        1010    st520                    mrds_dsl_tables:   2012, 2016, 2889.
        1013    st523                    mrds_dsl_tables:   2019, 2023, 3000.
        1016    st526                    mrds_dsl_tables:   2026, 2030, 2235, 2237, 2238, 2239, 2240, 2241, 2242, 2243, 2875,
                                                            2877, 2878, 2879, 2880, 2881, 2882, 2883, 3293, 3294, 3295, 3298,
                                                            3299, 3300, 3301, 3302, 3303.
        1021    st529                    mrds_dsl_tables:   1638, 2033, 2039, 2045, 2052, 2059, 2066, 2814, 2815, 2816, 2818,
                                                            2819, 2820, 2821, 2822, 2823, 2824, 2825, 2826, 2827, 2828, 2829, 2830.
          65    st53                     mrds_dsl_tables:   1213, 1217, 1220, 3703, 4129.
        1026    st534                    mrds_dsl_tables:   1904, 2042, 2046, 2836, 2837, 2838, 2840, 2841, 2842, 2843, 2844,
                                                            2845, 2846, 2847, 2848, 2849, 2850, 2851, 2852.
        1031    st537                    mrds_dsl_tables:   1711, 2049, 2053, 2103, 2104, 2105, 2106, 2107, 2108, 2110, 2111,
                                                            2115, 2116, 2117, 2118, 2119, 2120, 2121, 2122.
        1034    st540                    mrds_dsl_tables:   2056, 2060, 2128, 2129, 2130, 2131, 2132, 2133, 2135, 2136, 2138,
                                                            2139, 2140, 2141, 2142, 2143, 2144, 2145, 3450.
        1037    st543                    mrds_dsl_tables:   2063, 2067, 3174, 4196.
        1042    st546                    mrds_dsl_tables:   1725, 2070, 2082, 2271, 2395, 3464.
          67    st55                     mrds_dsl_tables:   1119, 1179, 1223, 1225, 1228, 1232, 3332.
        1055    st557                    mrds_dsl_tables:   1868, 2037, 2085, 2093, 2097.
        1064    st564                    mrds_dsl_tables:   2038, 2096, 3996.
        1065    st565                    mrds_dsl_tables:   1719, 1720, 1721, 1722, 1725, 1726, 1727, 2101, 2123.
        1112    st586                    mrds_dsl_tables:   2126, 2146, 3458, 3459, 3460, 3461, 3464, 3465, 3466.
          73    st59                     mrds_dsl_tables:   1163, 1231, 1471, 1478, 1485.
           6    st6                      mrds_dsl_tables:   1126, 1131, 1679, 1686, 2494, 3058, 3741.
          74    st60                     mrds_dsl_tables:   1120, 1236, 1240.
        1135    st605                    mrds_dsl_tables:   2036, 2149, 2154, 2160, 2167.
        1141    st609                    mrds_dsl_tables:   2037, 2157, 2161.
        1144    st612                    mrds_dsl_tables:   2038, 2164, 2168.
        1147    st615                    mrds_dsl_tables:   2152, 2171, 2198.
          77    st63                     mrds_dsl_tables:   1121, 1136, 1226, 1243, 1248, 1639, 2344, 3059, 3319, 3333, 3498, 3814.
        1201    st641                    mrds_dsl_tables:   2201, 2227, 4008.
        1232    st666                    mrds_dsl_tables:   2230, 2244, 4023.
         103    st67                     mrds_dsl_tables:   1122, 1142, 1227, 1251, 1258, 2345, 3320, 3334, 3499.
        1247    st679                    mrds_dsl_tables:   2247, 2251, 3983, 3990.
        1252    st682                    mrds_dsl_tables:   2007, 2254, 2264.
        1263    st691                    mrds_dsl_tables:   2267, 2272, 2278, 2629, 3273, 3310, 3649, 4287.
        1267    st695                    mrds_dsl_tables:   2275, 2279, 2895.
        1272    st698                    mrds_dsl_tables:   2270, 2282, 2287, 2293.
        1276    st702                    mrds_dsl_tables:   2271, 2290, 2294.
        1301    st705                    mrds_dsl_tables:   2285, 2297, 2302, 2308.
        1305    st709                    mrds_dsl_tables:   2286, 2305, 2309.
        1310    st712                    mrds_dsl_tables:   2300, 2312, 2323.
        1322    st722                    mrds_dsl_tables:   2326, 2336, 4069.
         111    st73                     mrds_dsl_tables:   1261, 1265, 2494, 2499, 2500, 2501.
        1333    st731                    mrds_dsl_tables:   1439, 1640, 1726, 1914, 2072, 2339, 2354, 2358, 2366, 3465, 4024.
        1351    st745                    mrds_dsl_tables:   1180, 1641, 1727, 1915, 2341, 2357, 2367, 3466, 4025.
        1352    st746                    mrds_dsl_tables:   1443, 2076, 2347, 2362, 2373, 2667, 2712, 3322, 3336, 3360.
        1364    st756                    mrds_dsl_tables:   1448, 1642, 1916, 2081, 2352, 2376, 2384, 2388, 2717, 3664, 3896.
         114    st76                     mrds_dsl_tables:   1268, 1271, 3058, 3066, 3067, 3068.
        1373    st763                    mrds_dsl_tables:   1643, 1917, 2387, 2980, 3388, 3585, 3665, 3897.
        1374    st764                    mrds_dsl_tables:   1449, 2353, 2392, 2396.
        1377    st767                    mrds_dsl_tables:   2399, 2407, 3873.
        1406    st774                    mrds_dsl_tables:   2410, 2414, 3035, 3617, 4116, 4273.
        1411    st777                    mrds_dsl_tables:   1535, 2417, 2420, 3060.
        1413    st779                    mrds_dsl_tables:   2423, 2427, 2434.
         116    st78                     mrds_dsl_tables:   1264, 1274, 1288, 3088, 3156, 4142, 4155.
        1416    st782                    mrds_dsl_tables:   1626, 2430, 2435.
        1422    st786                    mrds_dsl_tables:   2438, 2442, 3443.
        1425    st789                    mrds_dsl_tables:   2445, 2450, 2456, 3793.
        1431    st793                    mrds_dsl_tables:   1580, 1582, 1583, 1584, 1585, 1586, 1587, 1588, 1589, 1590, 2453, 2457.
        1434    st796                    mrds_dsl_tables:   1644, 2449, 2460, 2464, 2468, 3061, 3799, 3815.
        1437    st799                    mrds_dsl_tables:   1515, 1645, 2433, 2467, 3062, 3816.
        1440    st800                    mrds_dsl_tables:   2472, 2487, 2495.
        1456    st814                    mrds_dsl_tables:   1381, 1382, 1383, 1384, 1385, 1386, 1387, 1388, 1389, 1390, 1392,
                                                            1393, 1692, 1946, 1947, 1949, 1950, 1951, 1952, 1953, 1954, 1955,
                                                            1956, 1957, 1958, 1959, 1960, 1961, 1962, 1963, 1964, 1965, 1966,
                                                            1967, 1968, 1969, 1971, 1972, 1973, 1974, 1975, 1976, 1977, 1978,
                                                            1979, 2490, 2502, 3394.
        1471    st825                    mrds_dsl_tables:   2505, 2511, 2517, 2524.
        1476    st830                    mrds_dsl_tables:   1276, 1277, 1278, 1279, 1280, 1281, 1282, 1283, 1284, 1285, 1287,
                                                            2514, 2518.
        1501    st833                    mrds_dsl_tables:   1698, 2521, 2525.
        1504    st836                    mrds_dsl_tables:   1704, 2528, 2538, 2542, 2547, 2552, 2557, 2562, 2567, 4026.
        1515    st845                    mrds_dsl_tables:   2087, 2530, 2541, 2663, 4027.
        1516    st846                    mrds_dsl_tables:   2153, 2546, 2582, 2583.
        1517    st847                    mrds_dsl_tables:   1879, 1880, 1882, 1885, 1886, 1887, 1888, 1889, 1890, 2551, 4009.
        1520    st848                    mrds_dsl_tables:   2556, 2650, 2657, 4028.
        1521    st849                    mrds_dsl_tables:   2561, 3095, 4029.
        1522    st850                    mrds_dsl_tables:   2566, 2787, 4030.
        1523    st851                    mrds_dsl_tables:   1747, 2571, 2574, 3063.
        1525    st853                    mrds_dsl_tables:   2577, 2584, 2590, 2969, 3848.
        1533    st859                    mrds_dsl_tables:   2587, 2591, 2972, 3849.
        1536    st862                    mrds_dsl_tables:   1859, 2594, 2609.
        1554    st876                    mrds_dsl_tables:   1877, 2612, 2617, 3874.
        1560    st880                    mrds_dsl_tables:   2620, 2623, 3888.
        1562    st882                    mrds_dsl_tables:   2626, 2630, 2636, 2643.
        1565    st885                    mrds_dsl_tables:   2633, 2637, 3975.
        1570    st888                    mrds_dsl_tables:   2640, 2644, 3976.
        1573    st891                    mrds_dsl_tables:   2647, 2651, 4049, 4199.
        1576    st894                    mrds_dsl_tables:   2654, 2658, 4050, 4200.
        1601    st897                    mrds_dsl_tables:   2368, 2661, 2672, 2678, 2685, 4031.
        1613    st907                    mrds_dsl_tables:   2249, 2675, 2679.
         133    st91                     mrds_dsl_tables:   1291, 1296, 1302, 2508.
        1616    st910                    mrds_dsl_tables:   2250, 2682, 2686.
        1621    st913                    mrds_dsl_tables:   2689, 2703, 2744, 2751, 2758, 2765, 2772, 2779.
        1636    st926                    mrds_dsl_tables:   2008, 2706, 2718, 3280, 3287, 4032, 4169.
        1651    st937                    mrds_dsl_tables:   2721, 2724, 2730, 2737.
        1653    st939                    mrds_dsl_tables:   2256, 2727, 2731.
        1656    st942                    mrds_dsl_tables:   2257, 2734, 2738.
        1661    st945                    mrds_dsl_tables:   2258, 2741, 2745.
        1664    st948                    mrds_dsl_tables:   2259, 2748, 2752.
         137    st95                     mrds_dsl_tables:   1299, 1303, 2509, 2510.
        1667    st951                    mrds_dsl_tables:   2260, 2755, 2759.
        1672    st954                    mrds_dsl_tables:   2261, 2762, 2766.
        1675    st957                    mrds_dsl_tables:   2262, 2769, 2773.
        1700    st960                    mrds_dsl_tables:   2263, 2776, 2780.
        1703    st963                    mrds_dsl_tables:   2783, 2788, 3241, 4056.
        1707    st967                    mrds_dsl_tables:   2791, 2795, 2896, 4083.
        1712    st970                    mrds_dsl_tables:   2366, 2367, 2798, 2809.
         142    st98                     mrds_dsl_tables:   1294, 1306, 1319.
        1724    st980                    mrds_dsl_tables:   1640, 1641, 1649, 2812, 2831.
        1746    st998                    mrds_dsl_tables:   1914, 1915, 1921, 2834, 2853.
        4520    standard_prelude         mrds_dsl_tables:   4301, 4302, 5217.
           0    strd                     mrds_dsl_tables:     23, 1118, 1127, 1135, 1141, 1218, 1224, 1244, 1269, 1323, 1438,
                                                            1498, 1534, 1625, 1691, 1697, 1703, 1746, 1752, 1858, 2071, 2086,
                                                            2248, 2255, 2340, 2377, 2418, 2461, 2529, 2572, 2613, 2621, 2662,
                                                            2707, 2722, 2857, 2888, 2894, 2910, 2916, 2968, 2999, 3005, 3080,
                                                            3093, 3109, 3173, 3240, 3315, 3331, 3358, 3382, 3393, 3423, 3494,
                                                            3509, 3529, 3578, 3609, 3672, 3678, 3692, 3708, 3732, 3746, 3752,
                                                            3779, 3792, 3798, 3821, 3847, 3887, 3951, 3974, 3995, 4046, 4055,
                                                            4082, 4100, 4121, 4134, 4147, 4160, 4174, 4195, 4205, 4213.
           2    strds                    mrds_dsl_tables:     25, 1232, 1335, 1340, 1345, 1350, 1355, 1360, 1454, 1459, 1464,
                                                            1507, 1631, 1762, 2097, 2358, 2388, 2468, 2542, 2547, 2552, 2557,
                                                            2562, 2567, 3016, 3021, 3368, 3399, 3404, 3715, 3720, 3827, 3854,
                                                            3859, 3864, 4001, 4061, 4088, 4109, 4220, 4225, 4230, 4235.
           0    t0                       mrds_dsl_tables:     44, 1148, 1194, 1204, 1219, 1276, 1308, 1381, 1413, 1491, 1541,
                                                            1565, 1580, 1603, 1660, 1820, 1840, 1946, 1992, 2173, 2203, 2314,
                                                            2328, 2401, 2412, 2474, 2596, 3116, 3136, 3162, 3182, 3212, 3256,
                                                            3293, 3345, 3430, 3632, 3914.
           1    t1                       mrds_dsl_tables:    413, 1947, 2174, 2204, 2315, 3183, 3213, 3241, 3257, 3294, 3346,
                                                            3633, 3915, 4056.
          12    t10                      mrds_dsl_tables:    496, 2695, 4162.
          13    t11                      mrds_dsl_tables:    507, 1826, 1846, 1954, 2405, 3122, 3142, 3434, 3921, 4103.
          14    t12                      mrds_dsl_tables:    517, 1120.
          15    t13                      mrds_dsl_tables:    528, 1827, 1847, 1955, 2406, 3123, 3143, 3435, 3922, 4104.
          16    t14                      mrds_dsl_tables:    538, 1150, 1195, 1279, 1311, 1384, 1415, 1500, 1545, 1568, 1584,
                                                            1606, 1664, 1828, 1848, 1956, 1996, 2180, 2210, 2317, 2330, 2478,
                                                            2600, 2903, 3124, 3144, 3164, 3189, 3219, 3261, 3298, 3348, 3375,
                                                            3637, 3693, 3923, 4206, 4256.
          17    t15                      mrds_dsl_tables:    549, 1255, 3733.
          20    t16                      mrds_dsl_tables:    558, 1256, 3734.
          21    t17                      mrds_dsl_tables:    569, 1151, 1280, 1312, 1385, 1416, 1546, 1569, 1585, 1607, 1665,
                                                            1957, 2181, 2211, 2318, 2331, 2479, 2601, 3190, 3220, 3262, 3299,
                                                            3349, 3638, 3679, 3753, 3924.
          22    t18                      mrds_dsl_tables:    579, 1829, 1849, 1958, 1997, 3125, 3145, 3925, 3954.
          23    t19                      mrds_dsl_tables:    589, 1152, 1196, 1281, 1313, 1386, 1417, 1501, 1547, 1570, 1586,
                                                            1608, 1666, 1830, 1850, 1959, 1998, 2182, 2212, 2319, 2332, 2480,
                                                            2602, 2904, 3126, 3146, 3165, 3191, 3221, 3263, 3300, 3350, 3376,
                                                            3639, 3694, 3926, 4207, 4257.
           2    t2                       mrds_dsl_tables:    422, 1119, 1128, 1205, 1225, 1245, 1253, 1277, 1309, 1324, 1382,
                                                            1439, 1492, 1566, 1704, 1753, 1948, 2072, 2087, 2341, 2378, 2475,
                                                            2530, 2597, 2663, 2691, 2708, 2723, 2911, 3006, 3027, 3316, 3332,
                                                            3495, 3709, 3780.
          24    t20                      mrd                                                        RGeorge                         ron     Office
7Yip                             Rf8`                                                        Yip                                     UOFC            NO7O8TqnoneASCII_CRT_E                     LV`uBrixius                         Bdp
                                                        Brixius                                 CDC             8MHMrsqKnoneVIP7400_DTR                     M#XOMurrell                         6\*Lf                        t,4                        Murrell                                 NMLPROD         Qe3374, 3424, 3510, 3579, 3610, 3623, 3634, 3916, 4196, 4255.
          50    t40                      mrds_dsl_tables:    805, 1833, 1853, 1971, 2115, 2138, 2189, 2219, 2823, 2845, 2962,
                                                            2972, 3129, 3149, 3198, 3228, 3603, 3849, 3938.
          51    t41                      mrds_dsl_tables:    814, 1286, 1392, 2485, 2607, 3747.
          52    t42                      mrds_dsl_tables:    823, 1972, 2116, 2139, 2190, 2220, 2238, 2258, 2803, 2824, 2846,
                                                            2878, 3199, 3229, 3939, 4261.
          53    t43                      mrds_dsl_tables:    832, 1973, 2117, 2140, 2191, 2221, 2239, 2259, 2804, 2825, 2847,
                                                            2879, 3200, 3230, 3940, 4262.
          54    t44                      mrds_dsl_tables:    843, 1327, 1444, 1754, 2077, 2089, 2348, 2380, 2534, 2668, 2698,
                                                            2713, 3008, 3323, 3337, 3361, 3384, 3501, 3581.
          55    t45                      mrds_dsl_tables:    854, 1328, 1445, 1755, 2078, 2090, 2349, 2381, 2535, 2669, 2699,
                                                            2714, 3009, 3324, 3338, 3362, 3385, 3502, 3582.
          56    t46                      mrds_dsl_tables:    864, 1329, 1446, 1756, 2079, 2091, 2350, 2382, 2536, 2670, 2700,
                                                            2715, 3010, 3325, 3339, 3363, 3386, 3503, 3583.
          57    t47                      mrds_dsl_tables:    874, 1130, 1206, 1247, 1257, 1287, 1318, 1330, 1393, 1447, 1493,
                                                            1552, 1626, 1672, 1692, 1698, 1757, 2080, 2092, 2351, 2383, 2419,
                                                            2463, 2486, 2537, 2573, 2608, 2622, 2671, 2701, 2716, 3011, 3326,
                                                            3387, 3394, 3504, 3584, 3710, 3908.
          60    t48                      mrds_dsl_tables:    883, 1974, 2118, 2141, 2192, 2222, 2240, 2260, 2805, 2826, 2848,
                                                            2880, 3201, 3231, 3941, 4263.
          61    t49                      mrds_dsl_tables:    892, 1975, 2119, 2142, 2193, 2223, 2241, 2261, 2806, 2827, 2849,
                                                            2881, 3202, 3232, 3942, 4264.
           5    t5                       mrds_dsl_tables:    449, 1129, 1254, 1822, 1842, 1950, 2104, 2129, 2176, 2206, 2477,
                                                            2599, 2815, 2837, 2959, 2969, 3118, 3138, 3185, 3215, 3600, 3848,
                                                            3917, 4135, 4148.
          62    t50                      mrds_dsl_tables:    901, 1976, 2120, 2143, 2194, 2224, 2242, 2262, 2807, 2828, 2850,
                                                            2882, 3203, 3233, 3943, 4265.
          63    t51                      mrds_dsl_tables:    910, 1448, 2081, 2352, 2702, 2717, 3388, 3585.
          64    t52                      mrds_dsl_tables:    919, 2963, 3000, 3604, 3673.
          65    t53                      mrds_dsl_tables:    928, 1449, 2353.
          66    t54                      mrds_dsl_tables:    937, 1977, 2121, 2144, 2195, 2225, 2243, 2263, 2808, 2829, 2851,
                                                            2883, 3204, 3234, 3944, 4266.
          67    t55                      mrds_dsl_tables:    946, 1978, 2196, 2226, 2322, 2335, 2896, 3168, 3205, 3235, 3266,
                                                            3303, 3353, 3642, 3945, 4083.
          70    t56                      mrds_dsl_tables:    955, 1834, 1979, 2122, 2145, 2197, 2830, 2852, 3130, 3206, 3822,
                                                            3946, 3996.
           6    t6                       mrds_dsl_tables:    458, 1325, 1440, 1823, 1843, 1860, 1951, 1994, 2073, 2105, 2130,
                                                            2177, 2207, 2232, 2342, 2402Lentz                           pFJ
                         "                        Lentz                                   EngAdmin        bQy'QkHhQp.YnoneWY50_80C                        Qa		38,  943,  947,
                                                             952,  956,  961,  964,  969,  972,  977,  980,  985,  988,  993,
                                                             996, 1001, 1004, 1009, 1012, 1017, 1020, 1025, 1028, 1033, 1036,
                                                            1041, 1044, 1049, 1052, 1057, 1060, 1065, 1068, 1073, 1077, 1082,
                                                            1085, 1090, 1093, 1098, 1101.
         526    utc                      mrds_dsl_tables:    399,  409,  418,  427,  436,  445,  454,  463,  472,  481,  491,
                                                             501,  512,  522,  533,  543,  554,  563,  574,  584,  594,  605,
                                                             615,  625,  637,  648,  659,  670,  680,  691,  701,  712,  725,
                                                             734,  744,  754,  764,  774,  783,  792,  801,  810,  819,  828,
                                                             837,  848,  859,  869,  879,  888,  897,  906,  915,  924,  933,
                                                             942,  951,  960,  968,  976,  984,  992, 1000, 1008, 1016, 1024,
                                                            1032, 1040, 1048, 1056, 1064, 1072, 1081, 1089, 1097, 1104.
           0    uthl                     mrds_dsl_tables:     50.
         721    utl                      mrds_dsl_tables:    403,  412,  421,  430,  439,  448,  457,  466,  475,  485,  495,
                                                             506,  516,  527,  537,  548,  557,  568,  578,  588,  599,  609,
                                                             619,  631,  642,  653,  664,  674,  685,  695,  706,  719,  728,
                                                             738,  748,  758,  768,  777,  786,  795,  804,  813,  822,  831,
                                                             842,  853,  863,  873,  882,  891,  900,  909,  918,  927,  936,
                                                             945,  954,  963,  971,  979,  987,  995, 1003, 1011, 1019, 1027,
                                                            1035, 1043, 1051, 1059, 1067, 1076, 1084, 1092, 1100, 1106.
        4663    uvc                      mrds_dsl_tables:   4399, 4410, 4423, 4434, 4445, 4454, 4463, 4475, 4486, 4498, 4510,
                                                            4521, 4533, 4543, 4554, 4565, 4577, 4587, 4598, 4610, 4621, 4632,
                                                            4643, 4654, 4665, 4676, 4686, 4697, 4707, 4718, 4730, 4740, 4749,
                                                            4760, 4771, 4783, 4793, 4802, 4811, 4821, 4831, 4841, 4850, 4861,
                                                            4872, 4884, 4897, 4908, 4917, 4927, 4938, 4948, 4958, 4969, 4980,
                                                            4991, 5001, 5011, 5021, 5032, 5043, 5054, 5064, 5074, 5083, 5093,
                                                            5102, 5111, 5120, 5132, 5144, 5154, 5164, 5175, 5185, 5195, 5203.
        5301    uvl                      mrds_dsl_tables:   4404, 4418, 4429, 4440, 4449, 4458, 4470, 4481, 4493, 4505, 4516,
                                                            4528, 4538, 4549, 4560, 4572, 4582, 4593, 4605, 4616, 4627, 4638,
                                                            4649, 4660, 4671, 4681, 4692, 4702, 4713, 4725, 4735, 4744, 4755,
                                                            4766, 4778, 4788, 4797, 4806, 4816, 4826, 4836, 4845, 4856, 4867,
                                                            4879, 4892, 4903, 4912, 4922, 4933, 4943, 4953, 4964, 4975, 4986,
                                                            4996, 5006, 5016, 5027, 5038, 5049, 5059, 5069, 5078, 5088, 5097,
                                                            5106, 5115, 5127, 5139, 5149, 5159, 5170, 5180, 5190, 5199, 5205.
           1    v1                       mrds_dsl_tables:   4419.
          12    v10                      mrds_dsl_tables:   4517.
          13    v11                      mrds_dsl_tables:   4529.
          14    v12                      mrds_dsl_tables:   4539.
          15    v13                      mrds_dsl_tables:   4550.
          16    v14                      mrds_dsl_tables:   4561.
          17    v15                      mrds_dsl_tables:   4573.
          20    v16                      mrds_dsl_tables:   4583.
          21    v17                      mrds_dsl_tables:   4594.
          22    v18                      mrds_dsl_tables:   4606.
          23    v19                      mrds_dsl_tables:   4617.
           2    v2                       mrds_dsl_tables:   4430.
          24    v20                      mrds_dsl_tables:   4628.
          25    v21                      mrds_dsl_tables:   4639.
          26    v22                      mrds_dsl_tables:   4650.
          27    v23                      mrds_dsl_tables:   4661.
          30    v24                      mrds_dsl_tables:   4672.
          31    v25                      mrds_dsl_tables:   4682.
          32    v26                      mrds_dsl_tables:   4693.
          33    v27                      mrds_dsl_tables:   4703.
          34    v28                      mrds_dsl_tables:   4714.
          35    v29                      mrds_dsl_tables:   4726.
           3    v3                       mrds_dsl_tables:   4441.
          36    v30                      mrds_dsl_tables:   4736.
          37    v31                      mrds_dsl_tables:   4745.
          40    v32                      mrds_dsl_tables:   4756.
          41    v33                      mrds_dsl_tables:   4767.
          42    v34                      mrds_dsl_tables:   4779.
          43    v35                      mrds_dsl_tables:   4789.
          44    v36                      mrds_dsl_tables:   4798.
          45    v37                      mrds_dsl_tables:   4807.
          46    v38                      mrds_dsl_tables:   4817.
          47    v39                      mrds_dsl_tables:   4827.
           4    v4                       mrds_dsl_tables:   4450.
          50    v40                      mrds_dsl_tables:   4837.
          51    v41                      mrds_dsl_tables:   4846.
          52    v42                      mrds_dsl_tables:   4857.
          53    v43                      mrds_dsl_tables:   4868.
          54    v44                      mrds_dsl_tables:   4880.
          55    v45                      mrds_dsl_tables:   4893.
          56    v46                      mrds_dsl_tables:   4904.
          57    v47                      mrds_dsl_tables:   4913.
          60    v48                      mrds_dsl_tables:   4923.
          61    v49                      mrds_dsl_tables:   4934.
           5    v5                       mrds_dsl_tables:   4459.
          62    v50                      mrds_dsl_tables:   4944.
          63    v51                      mrds_dsl_tables:   4954.
          64    v52                      mrds_dsl_tables:   4965.
          65    v53                      mrds_dsl_tables:   4976.
          66    v54                      mrds_dsl_tables:   4987.
          67    v55                      mrds_dsl_tables:   4997.
          70    v56                      mrds_dsl_tables:   5007.
          71    v57                      mrds_dsl_tables:   5017.
          72    v58                      mrds_dsl_tables:   5028.
          73    v59                      mrds_dsl_tables:   5039.
           6    v6                       mrds_dsl_tables:   4471.
          74    v60                      mrds_dsl_tables:   5050.
          75    v61                      mrds_dsl_tables:   5060.
          76    v62                      mrds_dsl_tables:   5070.
          77    v63                      mrds_dsl_tables:   5079.
         100    v64                      mrds_dsl_tables:   5089.
         101    v65                      mrds_dsl_tables:   5098.
         102    v66                      mrds_dsl_tables:   5107.
         103    v67                      mrds_dsl_tables:   5116.
         104    v68                      mrds_dsl_tables:   5128.
         105    v69                      mrds_dsl_tables:   5140.
           7    v7                       mrds_dsl_tables:   4482.
         106    v70                      mrds_dsl_tables:   5150.
         107    v71                      mrds_dsl_tables:   5160.
         110    v72                      mrds_dsl_tables:   5171.
         111    v73                      mrds_dsl_tables:   5181.
         112    v74                      mrds_dsl_tables:   5191.
         113    v75                      mrds_dsl_tables:   5200.
          10    v8                       mrds_dsl_tables:   4494.
          11    v9                       mrds_dsl_tables:   4506.
        5301    variables_list           mrds_dsl_tables:   4405, 4407, 5219.
         113    variables_list_size      mrds_dsl_tables:   4406, 5206.
        4663    variable_characters      mrds_dsl_tables:   4400, 4402, 5220.
         415    variable_characters_size       mrds_dsl_tables:   4401, 5204.
        4663    vc                       mrds_dsl_tables:   4400, 4411, 4424, 4435, 4446, 4455, 4464, 4476, 4487, 4499, 4511,
                                                            4522, 4534, 4544, 4555, 4566, 4578, 4588, 4599, 4611, 4622, 4633,
                                                            4644, 4655, 4666, 4677, 4687, 4698, 4708, 4719, 4731, 4741, 4750,
                                                            4761, 4772, 4784, 4794, 4803, 4812, 4822, 4832, 4842, 4851, 4862,
                                                            4873, 4885, 4898, 4909, 4918, 4928, 4939, 4949, 4959, 4970, 4981,
                                                            4992, 5002, 5012, 5022, 5033, 5044, 5055, 5065, 5075, 5084, 5094,
                                                            5103, 5112, 5121, 5133, 5145, 5155, 5165, 5176, 5186, 5196, 5204.
        5301    vl                       mrds_dsl_tables:   4405, 4419, 4430, 4441, 4450, 4459, 4471, 4482, 4494, 4506, 4517,
                                                            4529, 4539, 4550, 4561, 4573, 4583, 4594, 4606, 4617, 4628, 4639,
                                                            4650, 4661, 4672, 4682, 4693, 4703, 4714, 4726, 4736, 4745, 4756,
                                                            4767, 4779, 4789, 4798, 4807, 4817, 4827, 4837, 4846, 4857, 4868,
                                                            4880, 4893, 4904, 4913, 4923, 4934, 4944, 4954, 4965, 4976, 4987,
                                                            4997, 5007, 5017, 5028, 5039, 5050, 5060, 5070, 5079, 5089, 5098,
                                                            5107, 5116, 5128, 5140, 5150, 5160, 5171, 5181, 5191, 5200, 5206.
         413    vsl                      mrds_dsl_tables:   4411, 4420, 4424, 4431, 4435, 4442, 4446, 4451, 4455, 4460, 4464,
                                                            4472, 4476, 4483, 4487, 4495, 4499, 4507, 4511, 4518, 4522, 4530,
                                                            4534, 4540, 4544, 4551, 4555, 4562, 4566, 4574, 4578, 4584, 4588,
                                                            4595, 4599, 4607, 4611, 4618, 4622, 4629, 4633, 4640, 4644, 4651,
                                                            4655, 4662, 4666, 4673, 4677, 4683, 4687, 4694, 4698, 4704, 4708,
                                                            4715, 4719, 4727, 4731, 4737, 4741, 4746, 4750, 4757, 4761, 4768,
                                                            4772, 4780, 4784, 4790, 4794, 4799, 4803, 4808, 4812, 4818, 4822,
                                                            4828, 4832, 4838, 4842, 4847, 4851, 4858, 4862, 4869, 4873, 4881,
                                                            4885, 4894, 4898, 4905, 4909, 4914, 4918, 4924, 4928, 4935, 4939,
                                                            4945, 4949, 4955, 4959, 4966, 4970, 4977, 4981, 4988, 4992, 4998,
                                                            5002, 5008, 5012, 5018, 5022, 5029, 5033, 5040, 5044, 5051, 5055,
                                                            5061, 5065, 5071, 5075, 5080, 5084, 5090, 5094, 5099, 5103, 5108,
                                                            5112, 5117, 5121, 5129, 5133, 5141, 5145, 5151, 5155, 5161, 5165,
                                                            5172, 5176, 5182, 5186, 5192, 5196, 5201.


NO FATAL ERRORS


                                          -----------------------------------------------------------


Historical Background

This edition of the Multics software materials and documentation is provided and donated
to Massachusetts Institute of Technology by Group BULL including BULL HN Information Systems Inc.
as a contribution to computer science knowledge.
This donation is made also to give evidence of the common contributions of Massachusetts Institute of Technology,
Bell Laboratories, General Electric, Honeywell Information Systems Inc., Honeywell BULL Inc., Groupe BULL
and BULL HN Information Systems Inc. to the development of this operating system.
Multics development was initiated by Massachusetts Institute of Technology Project MAC (1963-1970),
renamed the MIT Laboratory for Computer Science and Artificial Intelligence in the mid 1970s, under the leadership
of Professor Fernando Jose Corbato. Users consider that Multics provided the best software architecture
for managing computer hardware properly and for executing programs. Many subsequent operating systems
incorporated Multics principles.
Multics was distributed in 1975 to 2000 by Group Bull in Europe , and in the U.S. by Bull HN Information Systems Inc.,
as successor in interest by change in name only to Honeywell Bull Inc. and Honeywell Information Systems Inc. .

                                          -----------------------------------------------------------

Permission to use, copy, modify, and distribute these programs and their documentation for any purpose and without
fee is hereby granted,provided that the below copyright notice and historical background appear in all copies
and that both the copyright notice and historical background and this permission notice appear in supporting
documentation, and that the names of MIT, HIS, BULL or BULL HN not be used in advertising or publicity pertaining
to distribution of the programs without specific prior written permission.
    Copyright 1972 by Massachusetts Institute of Technology and Honeywell Information Systems Inc.
    Copyright 2006 by BULL HN Information Systems Inc.
    Copyright 2006 by Bull SAS
    All Rights Reserved
