ASSEMBLY LISTING OF SEGMENT >special_ldd>online>mrds.pbf-04/18/85>mrds_dsm_parse_table.alm
ASSEMBLED ON:	04/18/85  1002.7 mst Thu
OPTIONS USED:	list
ASSEMBLED BY:	ALM Version  6.6  November 1982
ASSEMBLER CREATED:	09/21/83  1227.3 mst Wed

                                     1  " ***********************************************************
                                     2  " *                                                         *
                                     3  " * Copyright, (C) Honeywell Information Systems Inc., 1982 *
                                     4  " *                                                         *
                                     5  " * Copyright (c) 1972 by Massachusetts Institute of        *
                                     6  " * Technology and Honeywell Information Systems, Inc.      *
                                     7  " *                                                         *
                                     8  " ***********************************************************
                                     9
                        000000      10  	equ	STRD,0
                        000001      11  	equ	LOOK,1
                        000002      12  	equ	STRDS,2
                        000003      13  	equ	LOOKS,3
                        000004      14  	equ	APLY,4
                        000005      15  	equ	APLY1,5
                        000006      16  	equ	APLYS,6
                        000007      17  	equ	SKIP,7
                        000010      18  	equ	ADJUST,8
                        000011      19  	equ	NSRD,9
                        000012      20  	equ	NSRDS,10
                        000000      21  	equ	T0,0
                        000000      22  	equ	ST0,0
                                    23  "
                                    24  "
                                    25  " DPDA table
    000000  aa   000000 001467      26  DPDA:	zero	0,DPDAs
                        000000      27  	segdef	DPDA
                                    28  "
                                    29  " STATE 1
                        000001      30  	equ	ST1,*-DPDA
    000001  aa   000000 000005      31  	zero	STRD,LN1
    000002  aa   000010 000106      32  	zero	8,ST70	"relation
    000003  aa   000011 000115      33  	zero	9,ST77	"attribute
    000004  aa   000013 000125      34  	zero	11,ST85	"rel_acc
    000005  aa   000014 000134      35  	zero	12,ST92	"attr_acc
    000006  aa   000015 000144      36  	zero	13,ST100	"default
                        000005      37  	equ	LN1,*-DPDA-ST1-1
                                    38  "
                                    39  " STATE 7
                        000007      40  	equ	ST7,*-DPDA
    000007  aa   000000 000001      41  	zero	STRD,LN7
    000010  aa   000003 000152      42  	zero	3,ST106	":
                        000001      43  	equ	LN7,*-DPDA-ST7-1
                                    44  "
                                    45  " STATE 9
                        000011      46  	equ	ST9,*-DPDA
    000011  aa   000000 000004      47  	zero	STRD,LN9
    000012  aa   000010 000106      48  	zero	8,ST70	"relation
    000013  aa   000011 000115      49  	zero	9,ST77	"attribute
    000014  aa   000013 000125      50  	zero	11,ST85	"rel_acc
    000015  aa   000014 000134      51  	zero	12,ST92	"attr_acc
                        000004      52  	equ	LN9,*-DPDA-ST9-1
                                    53  "
                                    54  " STATE 14
                        000016      55  	equ	ST14,*-DPDA
    000016  aa   000004 000004      56  	zero	APLY,LN14
    000017  aa   000000 000000      57  	zero	0,0   pd ld
    000020  aa   000026 000002      58  	zero	22,2   rule/alt
    000021  aa   000026 000040      59  	zero	22,ST32 prod/val
    000022  aa   001416 001425      60  	zero	ST782,ST789
                        000004      61  	equ	LN14,*-DPDA-ST14-1
                                    62  "
                                    63  " STATE 19
                        000023      64  	equ	ST19,*-DPDA
    000023  aa   000005 000003      65  	zero	APLY1,LN19
    000024  aa   000000 000000      66  	zero	0,0   pd ld
    000025  aa   000025 000002      67  	zero	21,2   rule/alt
    000026  aa   000025 000042      68  	zero	21,ST34 prod/val
                        000003      69  	equ	LN19,*-DPDA-ST19-1
                                    70  "
                                    71  " STATE 23
                        000027      72  	equ	ST23,*-DPDA
    000027  aa   000000 000001      73  	zero	STRD,LN23
    000030  aa   000012 000224      74  	zero	10,ST148	"access
                        000001      75  	equ	LN23,*-DPDA-ST23-1
                                    76  "
                                    77  " STATE 25
                        000031      78  	equ	ST25,*-DPDA
    000031  aa   000011 000002      79  	zero	NSRD,LN25
    000032  aa   000003 776336      80  	zero	3,-ST802	":
    000033  aa   000012 776340      81  	zero	10,-ST800	"access
                        000002      82  	equ	LN25,*-DPDA-ST25-1
                                    83  "
                                    84  " STATE 28
                        000034      85  	equ	ST28,*-DPDA
    000034  aa   000000 000001      86  	zero	STRD,LN28
    000035  aa   000003 000240      87  	zero	3,ST160	":
                        000001      88  	equ	LN28,*-DPDA-ST28-1
                                    89  "
                                    90  " STATE 30
                        000036      91  	equ	ST30,*-DPDA
    000036  aa   000000 000001      92  	zero	STRD,LN30
    000037  aa   000003 000252      93  	zero	3,ST170	":
                        000001      94  	equ	LN30,*-DPDA-ST30-1
                                    95  "
                                    96  " STATE 32
                        000040      97  	equ	ST32,*-DPDA
    000040  aa   000000 000001      98  	zero	STRD,LN32
    000041  aa   000003 000264      99  	zero	3,ST180	":
                        000001     100  	equ	LN32,*-DPDA-ST32-1
                                   101  "
                                   102  " STATE 34
                        000042     103  	equ	ST34,*-DPDA
    000042  aa   000000 000001     104  	zero	STRD,LN34
    000043  aa   000003 000265     105  	zero	3,ST181	":
                        000001     106  	equ	LN34,*-DPDA-ST34-1
                                   107  "
                                   108  " STATE 36
                        000044     109  	equ	ST36,*-DPDA
    000044  aa   000004 000004     110  	zero	APLY,LN36
    000045  aa   000000 000000     111  	zero	0,0   pd ld
    000046  aa   000003 000004     112  	zero	3,4   rule/alt
    000047  aa   000003 000071     113  	zero	3,ST57 prod/val
    000050  aa   001446 000266     114  	zero	ST806,ST182
                        000004     115  	equ	LN36,*-DPDA-ST36-1
                                   116  "
                                   117  " STATE 41
                        000051     118  	equ	ST41,*-DPDA
    000051  aa   000006 000003     119  	zero	APLYS,LN41
    000052  aa   000000 000000     120  	zero	0,0   pd ld
    000053  aa   000003 000005     121  	zero	3,5   rule/alt
    000054  aa   000003 000044     122  	zero	3,ST36 prod/val
                        000003     123  	equ	LN41,*-DPDA-ST41-1
                                   124  "
                                   125  " STATE 45
                        000055     126  	equ	ST45,*-DPDA
    000055  aa   000006 000003     127  	zero	APLYS,LN45
    000056  aa   000000 000000     128  	zero	0,0   pd ld
    000057  aa   000003 000003     129  	zero	3,3   rule/alt
    000060  aa   000003 000044     130  	zero	3,ST36 prod/val
                        000003     131  	equ	LN45,*-DPDA-ST45-1
                                   132  "
                                   133  " STATE 49
                        000061     134  	equ	ST49,*-DPDA
    000061  aa   000006 000003     135  	zero	APLYS,LN49
    000062  aa   000000 000000     136  	zero	0,0   pd ld
    000063  aa   000003 000002     137  	zero	3,2   rule/alt
    000064  aa   000003 000044     138  	zero	3,ST36 prod/val
                        000003     139  	equ	LN49,*-DPDA-ST49-1
                                   140  "
                                   141  " STATE 53
                        000065     142  	equ	ST53,*-DPDA
    000065  aa   000006 000003     143  	zero	APLYS,LN53
    000066  aa   000000 000000     144  	zero	0,0   pd ld
    000067  aa   000003 000001     145  	zero	3,1   rule/alt
    000070  aa   000003 000044     146  	zero	3,ST36 prod/val
                        000003     147  	equ	LN53,*-DPDA-ST53-1
                                   148  "
                                   149  " STATE 57
                        000071     150  	equ	ST57,*-DPDA
    000071  aa   000005 000003     151  	zero	APLY1,LN57
    000072  aa   000000 000000     152  	zero	0,0   pd ld
    000073  aa   000002 000002     153  	zero	2,2   rule/alt
    000074  aa   000002 000075     154  	zero	2,ST61 prod/val
                        000003     155  	equ	LN57,*-DPDA-ST57-1
                                   156  "
                                   157  " STATE 61
                        000075     158  	equ	ST61,*-DPDA
    000075  aa   000011 000006     159  	zero	NSRD,LN61
    000076  aa   000000 776331     160  	zero	0,-ST807	"EOI
    000077  aa   000010 776332     161  	zero	8,-ST806	"relation
    000100  aa   000011 776332     162  	zero	9,-ST806	"attribute
    000101  aa   000013 776332     163  	zero	11,-ST806	"rel_acc
    000102  aa   000014 776332     164  	zero	12,-ST806	"attr_acc
    000103  aa   000015 776332     165  	zero	13,-ST806	"default
                        000006     166  	equ	LN61,*-DPDA-ST61-1
                                   167  "
                                   168  " STATE 68
                        000104     169  	equ	ST68,*-DPDA
    000104  aa   000000 000001     170  	zero	STRD,LN68
    000105  aa   000000 000000     171  	zero	0,ST0	"EOI
                        000001     172  	equ	LN68,*-DPDA-ST68-1
                                   173  "
                                   174  " STATE 70
                        000106     175  	equ	ST70,*-DPDA
    000106  aa   000004 000006     176  	zero	APLY,LN70
    000107  aa   000000 000000     177  	zero	0,0   pd ld
    000110  aa   000037 000001     178  	zero	31,1   rule/alt
    000111  aa   000037 000434     179  	zero	31,ST284 prod/val
    000112  aa   000001 000031     180  	zero	ST1,ST25
    000113  aa   000011 000216     181  	zero	ST9,ST142
    000114  aa   001446 000031     182  	zero	ST806,ST25
                        000006     183  	equ	LN70,*-DPDA-ST70-1
                                   184  "
                                   185  " STATE 77
                        000115     186  	equ	ST77,*-DPDA
    000115  aa   000004 000007     187  	zero	APLY,LN77
    000116  aa   000000 000000     188  	zero	0,0   pd ld
    000117  aa   000040 000001     189  	zero	32,1   rule/alt
    000120  aa   000040 000430     190  	zero	32,ST280 prod/val
    000121  aa   000001 000027     191  	zero	ST1,ST23
    000122  aa   000011 000214     192  	zero	ST9,ST140
    000123  aa   001416 000027     193  	zero	ST782,ST23
    000124  aa   001446 000027     194  	zero	ST806,ST23
                        000007     195  	equ	LN77,*-DPDA-ST77-1
                                   196  "
                                   197  " STATE 85
                        000125     198  	equ	ST85,*-DPDA
    000125  aa   000004 000006     199  	zero	APLY,LN85
    000126  aa   000000 000000     200  	zero	0,0   pd ld
    000127  aa   000042 000001     201  	zero	34,1   rule/alt
    000130  aa   000042 000420     202  	zero	34,ST272 prod/val
    000131  aa   000001 000023     203  	zero	ST1,ST19
    000132  aa   000011 000210     204  	zero	ST9,ST136
    000133  aa   001446 000023     205  	zero	ST806,ST19
                        000006     206  	equ	LN85,*-DPDA-ST85-1
                                   207  "
                                   208  " STATE 92
                        000134     209  	equ	ST92,*-DPDA
    000134  aa   000004 000007     210  	zero	APLY,LN92
    000135  aa   000000 000000     211  	zero	0,0   pd ld
    000136  aa   000043 000001     212  	zero	35,1   rule/alt
    000137  aa   000043 000414     213  	zero	35,ST268 prod/val
    000140  aa   000001 000016     214  	zero	ST1,ST14
    000141  aa   000011 000204     215  	zero	ST9,ST132
    000142  aa   001416 000016     216  	zero	ST782,ST14
    000143  aa   001446 000016     217  	zero	ST806,ST14
                        000007     218  	equ	LN92,*-DPDA-ST92-1
                                   219  "
                                   220  " STATE 100
                        000144     221  	equ	ST100,*-DPDA
    000144  aa   000004 000005     222  	zero	APLY,LN100
    000145  aa   000000 000000     223  	zero	0,0   pd ld
    000146  aa   000044 000001     224  	zero	36,1   rule/alt
    000147  aa   000044 000410     225  	zero	36,ST264 prod/val
    000150  aa   000001 000011     226  	zero	ST1,ST9
    000151  aa   001446 000011     227  	zero	ST806,ST9
                        000005     228  	equ	LN100,*-DPDA-ST100-1
                                   229  "
                                   230  " STATE 106
                        000152     231  	equ	ST106,*-DPDA
    000152  aa   000000 000031     232  	zero	STRD,LN106
    000153  aa   000001 000506     233  	zero	1,ST326	"<identifier>
    000154  aa   000010 000106     234  	zero	8,ST70	"relation
    000155  aa   000011 000115     235  	zero	9,ST77	"attribute
    000156  aa   000012 000224     236  	zero	10,ST148	"access
    000157  aa   000013 000125     237  	zero	11,ST85	"rel_acc
    000160  aa   000014 000134     238  	zero	12,ST92	"attr_acc
    000161  aa   000015 000144     239  	zero	13,ST100	"default
    000162  aa   000016 000512     240  	zero	14,ST330	"in
    000163  aa   000017 000517     241  	zero	15,ST335	"with
    000164  aa   000020 000524     242  	zero	16,ST340	"delete
    000165  aa   000021 000534     243  	zero	17,ST348	"append
    000166  aa   000022 000544     244  	zero	18,ST356	"tuple
    000167  aa   000023 000552     245  	zero	19,ST362	"attr
    000170  aa   000024 000560     246  	zero	20,ST368	"d
    000171  aa   000025 000570     247  	zero	21,ST376	"a
    000172  aa   000026 000600     248  	zero	22,ST384	"delete_tuple
    000173  aa   000027 000610     249  	zero	23,ST392	"append_tuple
    000174  aa   000030 000620     250  	zero	24,ST400	"read
    000175  aa   000031 000632     251  	zero	25,ST410	"read_attr
    000176  aa   000032 000644     252  	zero	26,ST420	"modify
    000177  aa   000033 000656     253  	zero	27,ST430	"modify_attr
    000200  aa   000034 000670     254  	zero	28,ST440	"null
    000201  aa   000035 000706     255  	zero	29,ST454	"n
    000202  aa   000036 000724     256  	zero	30,ST468	"r
    000203  aa   000037 000736     257  	zero	31,ST478	"m
                        000031     258  	equ	LN106,*-DPDA-ST106-1
                                   259  "
                                   260  " STATE 132
                        000204     261  	equ	ST132,*-DPDA
    000204  aa   000005 000003     262  	zero	APLY1,LN132
    000205  aa   000001 000001     263  	zero	1,1   pd ld
    000206  aa   000027 000002     264  	zero	23,2   rule/alt
    000207  aa   000027 000036     265  	zero	23,ST30 prod/val
                        000003     266  	equ	LN132,*-DPDA-ST132-1
                                   267  "
                                   268  " STATE 136
                        000210     269  	equ	ST136,*-DPDA
    000210  aa   000005 000003     270  	zero	APLY1,LN136
    000211  aa   000001 000001     271  	zero	1,1   pd ld
    000212  aa   000030 000002     272  	zero	24,2   rule/alt
    000213  aa   000030 000034     273  	zero	24,ST28 prod/val
                        000003     274  	equ	LN136,*-DPDA-ST136-1
                                   275  "
                                   276  " STATE 140
                        000214     277  	equ	ST140,*-DPDA
    000214  aa   000000 000001     278  	zero	STRD,LN140
    000215  aa   000012 000224     279  	zero	10,ST148	"access
                        000001     280  	equ	LN140,*-DPDA-ST140-1
                                   281  "
                                   282  " STATE 142
                        000216     283  	equ	ST142,*-DPDA
    000216  aa   000000 000001     284  	zero	STRD,LN142
    000217  aa   000012 000224     285  	zero	10,ST148	"access
                        000001     286  	equ	LN142,*-DPDA-ST142-1
                                   287  "
                                   288  " STATE 144
                        000220     289  	equ	ST144,*-DPDA
    000220  aa   000006 000003     290  	zero	APLYS,LN144
    000221  aa   000001 000001     291  	zero	1,1   pd ld
    000222  aa   000026 000001     292  	zero	22,1   rule/alt
    000223  aa   000026 000016     293  	zero	22,ST14 prod/val
                        000003     294  	equ	LN144,*-DPDA-ST144-1
                                   295  "
                                   296  " STATE 148
                        000224     297  	equ	ST148,*-DPDA
    000224  aa   000004 000007     298  	zero	APLY,LN148
    000225  aa   000000 000000     299  	zero	0,0   pd ld
    000226  aa   000041 000001     300  	zero	33,1   rule/alt
    000227  aa   000041 000424     301  	zero	33,ST276 prod/val
    000230  aa   000027 000220     302  	zero	ST23,ST144
    000231  aa   000214 000750     303  	zero	ST140,ST488
    000232  aa   000216 000754     304  	zero	ST142,ST492
    000233  aa   001440 000234     305  	zero	ST800,ST156
                        000007     306  	equ	LN148,*-DPDA-ST148-1
                                   307  "
                                   308  " STATE 156
                        000234     309  	equ	ST156,*-DPDA
    000234  aa   000005 000003     310  	zero	APLY1,LN156
    000235  aa   000001 000001     311  	zero	1,1   pd ld
    000236  aa   000025 000001     312  	zero	21,1   rule/alt
    000237  aa   000025 000042     313  	zero	21,ST34 prod/val
                        000003     314  	equ	LN156,*-DPDA-ST156-1
                                   315  "
                                   316  " STATE 160
                        000240     317  	equ	ST160,*-DPDA
    000240  aa   000000 000011     318  	zero	STRD,LN160
    000241  aa   000005 001046     319  	zero	5,ST550	"(
    000242  aa   000020 000524     320  	zero	16,ST340	"delete
    000243  aa   000021 000534     321  	zero	17,ST348	"append
    000244  aa   000024 000560     322  	zero	20,ST368	"d
    000245  aa   000025 000570     323  	zero	21,ST376	"a
    000246  aa   000026 000600     324  	zero	22,ST384	"delete_tuple
    000247  aa   000027 000610     325  	zero	23,ST392	"append_tuple
    000250  aa   000034 000670     326  	zero	28,ST440	"null
    000251  aa   000035 000706     327  	zero	29,ST454	"n
                        000011     328  	equ	LN160,*-DPDA-ST160-1
                                   329  "
                                   330  " STATE 170
                        000252     331  	equ	ST170,*-DPDA
    000252  aa   000000 000011     332  	zero	STRD,LN170
    000253  aa   000005 001133     333  	zero	5,ST603	"(
    000254  aa   000030 000620     334  	zero	24,ST400	"read
    000255  aa   000031 000632     335  	zero	25,ST410	"read_attr
    000256  aa   000032 000644     336  	zero	26,ST420	"modify
    000257  aa   000033 000656     337  	zero	27,ST430	"modify_attr
    000260  aa   000034 000670     338  	zero	28,ST440	"null
    000261  aa   000035 000706     339  	zero	29,ST454	"n
    000262  aa   000036 000724     340  	zero	30,ST468	"r
    000263  aa   000037 000736     341  	zero	31,ST478	"m
                        000011     342  	equ	LN170,*-DPDA-ST170-1
                                   343  "
                                   344  " STATE 180
                        000264     345  	equ	ST180,*-DPDA
    000264  aa   000002 000152     346  	zero	STRDS,ST106
                                   347
                                   348  "
                                   349  " STATE 181
                        000265     350  	equ	ST181,*-DPDA
    000265  aa   000002 000152     351  	zero	STRDS,ST106
                                   352
                                   353  "
                                   354  " STATE 182
                        000266     355  	equ	ST182,*-DPDA
    000266  aa   000005 000003     356  	zero	APLY1,LN182
    000267  aa   000001 000001     357  	zero	1,1   pd ld
    000270  aa   000002 000001     358  	zero	2,1   rule/alt
    000271  aa   000002 000075     359  	zero	2,ST61 prod/val
                        000003     360  	equ	LN182,*-DPDA-ST182-1
                                   361  "
                                   362  " STATE 186
                        000272     363  	equ	ST186,*-DPDA
    000272  aa   000004 000011     364  	zero	APLY,LN186
    000273  aa   000000 000000     365  	zero	0,0   pd ld
    000274  aa   000036 000027     366  	zero	30,23   rule/alt
    000275  aa   000036 000440     367  	zero	30,ST288 prod/val
    000276  aa   000264 001144     368  	zero	ST180,ST612
    000277  aa   000265 001156     369  	zero	ST181,ST622
    000300  aa   001167 001253     370  	zero	ST631,ST683
    000301  aa   001236 001340     371  	zero	ST670,ST736
    000302  aa   001244 001144     372  	zero	ST676,ST612
    000303  aa   001252 001156     373  	zero	ST682,ST622
                        000011     374  	equ	LN186,*-DPDA-ST186-1
                                   375  "
                                   376  " STATE 196
                        000304     377  	equ	ST196,*-DPDA
    000304  aa   000006 000003     378  	zero	APLYS,LN196
    000305  aa   000000 000000     379  	zero	0,0   pd ld
    000306  aa   000036 000024     380  	zero	30,20   rule/alt
    000307  aa   000036 000272     381  	zero	30,ST186 prod/val
                        000003     382  	equ	LN196,*-DPDA-ST196-1
                                   383  "
                                   384  " STATE 200
                        000310     385  	equ	ST200,*-DPDA
    000310  aa   000006 000003     386  	zero	APLYS,LN200
    000311  aa   000000 000000     387  	zero	0,0   pd ld
    000312  aa   000036 000031     388  	zero	30,25   rule/alt
    000313  aa   000036 000272     389  	zero	30,ST186 prod/val
                        000003     390  	equ	LN200,*-DPDA-ST200-1
                                   391  "
                                   392  " STATE 204
                        000314     393  	equ	ST204,*-DPDA
    000314  aa   000006 000003     394  	zero	APLYS,LN204
    000315  aa   000000 000000     395  	zero	0,0   pd ld
    000316  aa   000036 000030     396  	zero	30,24   rule/alt
    000317  aa   000036 000272     397  	zero	30,ST186 prod/val
                        000003     398  	equ	LN204,*-DPDA-ST204-1
                                   399  "
                                   400  " STATE 208
                        000320     401  	equ	ST208,*-DPDA
    000320  aa   000006 000003     402  	zero	APLYS,LN208
    000321  aa   000000 000000     403  	zero	0,0   pd ld
    000322  aa   000036 000026     404  	zero	30,22   rule/alt
    000323  aa   000036 000272     405  	zero	30,ST186 prod/val
                        000003     406  	equ	LN208,*-DPDA-ST208-1
                                   407  "
                                   408  " STATE 212
                        000324     409  	equ	ST212,*-DPDA
    000324  aa   000006 000003     410  	zero	APLYS,LN212
    000325  aa   000000 000000     411  	zero	0,0   pd ld
    000326  aa   000036 000025     412  	zero	30,21   rule/alt
    000327  aa   000036 000272     413  	zero	30,ST186 prod/val
                        000003     414  	equ	LN212,*-DPDA-ST212-1
                                   415  "
                                   416  " STATE 216
                        000330     417  	equ	ST216,*-DPDA
    000330  aa   000006 000003     418  	zero	APLYS,LN216
    000331  aa   000000 000000     419  	zero	0,0   pd ld
    000332  aa   000036 000023     420  	zero	30,19   rule/alt
    000333  aa   000036 000272     421  	zero	30,ST186 prod/val
                        000003     422  	equ	LN216,*-DPDA-ST216-1
                                   423  "
                                   424  " STATE 220
                        000334     425  	equ	ST220,*-DPDA
    000334  aa   000006 000003     426  	zero	APLYS,LN220
    000335  aa   000000 000000     427  	zero	0,0   pd ld
    000336  aa   000036 000022     428  	zero	30,18   rule/alt
    000337  aa   000036 000272     429  	zero	30,ST186 prod/val
                        000003     430  	equ	LN220,*-DPDA-ST220-1
                                   431  "
                                   432  " STATE 224
                        000340     433  	equ	ST224,*-DPDA
    000340  aa   000006 000003     434  	zero	APLYS,LN224
    000341  aa   000000 000000     435  	zero	0,0   pd ld
    000342  aa   000036 000021     436  	zero	30,17   rule/alt
    000343  aa   000036 000272     437  	zero	30,ST186 prod/val
                        000003     438  	equ	LN224,*-DPDA-ST224-1
                                   439  "
                                   440  " STATE 228
                        000344     441  	equ	ST228,*-DPDA
    000344  aa   000006 000003     442  	zero	APLYS,LN228
    000345  aa   000000 000000     443  	zero	0,0   pd ld
    000346  aa   000036 000020     444  	zero	30,16   rule/alt
    000347  aa   000036 000272     445  	zero	30,ST186 prod/val
                        000003     446  	equ	LN228,*-DPDA-ST228-1
                                   447  "
                                   448  " STATE 232
                        000350     449  	equ	ST232,*-DPDA
    000350  aa   000006 000003     450  	zero	APLYS,LN232
    000351  aa   000000 000000     451  	zero	0,0   pd ld
    000352  aa   000036 000017     452  	zero	30,15   rule/alt
    000353  aa   000036 000272     453  	zero	30,ST186 prod/val
                        000003     454  	equ	LN232,*-DPDA-ST232-1
                                   455  "
                                   456  " STATE 236
                        000354     457  	equ	ST236,*-DPDA
    000354  aa   000006 000003     458  	zero	APLYS,LN236
    000355  aa   000000 000000     459  	zero	0,0   pd ld
    000356  aa   000036 000016     460  	zero	30,14   rule/alt
    000357  aa   000036 000272     461  	zero	30,ST186 prod/val
                        000003     462  	equ	LN236,*-DPDA-ST236-1
                                   463  "
                                   464  " STATE 240
                        000360     465  	equ	ST240,*-DPDA
    000360  aa   000006 000003     466  	zero	APLYS,LN240
    000361  aa   000000 000000     467  	zero	0,0   pd ld
    000362  aa   000036 000015     468  	zero	30,13   rule/alt
    000363  aa   000036 000272     469  	zero	30,ST186 prod/val
                        000003     470  	equ	LN240,*-DPDA-ST240-1
                                   471  "
                                   472  " STATE 244
                        000364     473  	equ	ST244,*-DPDA
    000364  aa   000006 000003     474  	zero	APLYS,LN244
    000365  aa   000000 000000     475  	zero	0,0   pd ld
    000366  aa   000036 000014     476  	zero	30,12   rule/alt
    000367  aa   000036 000272     477  	zero	30,ST186 prod/val
                        000003     478  	equ	LN244,*-DPDA-ST244-1
                                   479  "
                                   480  " STATE 248
                        000370     481  	equ	ST248,*-DPDA
    000370  aa   000006 000003     482  	zero	APLYS,LN248
    000371  aa   000000 000000     483  	zero	0,0   pd ld
    000372  aa   000036 000013     484  	zero	30,11   rule/alt
    000373  aa   000036 000272     485  	zero	30,ST186 prod/val
                        000003     486  	equ	LN248,*-DPDA-ST248-1
                                   487  "
                                   488  " STATE 252
                        000374     489  	equ	ST252,*-DPDA
    000374  aa   000006 000003     490  	zero	APLYS,LN252
    000375  aa   000000 000000     491  	zero	0,0   pd ld
    000376  aa   000036 000012     492  	zero	30,10   rule/alt
    000377  aa   000036 000272     493  	zero	30,ST186 prod/val
                        000003     494  	equ	LN252,*-DPDA-ST252-1
                                   495  "
                                   496  " STATE 256
                        000400     497  	equ	ST256,*-DPDA
    000400  aa   000006 000003     498  	zero	APLYS,LN256
    000401  aa   000000 000000     499  	zero	0,0   pd ld
    000402  aa   000036 000011     500  	zero	30,9   rule/alt
    000403  aa   000036 000272     501  	zero	30,ST186 prod/val
                        000003     502  	equ	LN256,*-DPDA-ST256-1
                                   503  "
                                   504  " STATE 260
                        000404     505  	equ	ST260,*-DPDA
    000404  aa   000006 000003     506  	zero	APLYS,LN260
    000405  aa   000000 000000     507  	zero	0,0   pd ld
    000406  aa   000036 000010     508  	zero	30,8   rule/alt
    000407  aa   000036 000272     509  	zero	30,ST186 prod/val
                        000003     510  	equ	LN260,*-DPDA-ST260-1
                                   511  "
                                   512  " STATE 264
                        000410     513  	equ	ST264,*-DPDA
    000410  aa   000006 000003     514  	zero	APLYS,LN264
    000411  aa   000000 000000     515  	zero	0,0   pd ld
    000412  aa   000036 000007     516  	zero	30,7   rule/alt
    000413  aa   000036 000272     517  	zero	30,ST186 prod/val
                        000003     518  	equ	LN264,*-DPDA-ST264-1
                                   519  "
                                   520  " STATE 268
                        000414     521  	equ	ST268,*-DPDA
    000414  aa   000006 000003     522  	zero	APLYS,LN268
    000415  aa   000000 000000     523  	zero	0,0   pd ld
    000416  aa   000036 000005     524  	zero	30,5   rule/alt
    000417  aa   000036 000272     525  	zero	30,ST186 prod/val
                        000003     526  	equ	LN268,*-DPDA-ST268-1
                                   527  "
                                   528  " STATE 272
                        000420     529  	equ	ST272,*-DPDA
    000420  aa   000006 000003     530  	zero	APLYS,LN272
    000421  aa   000000 000000     531  	zero	0,0   pd ld
    000422  aa   000036 000006     532  	zero	30,6   rule/alt
    000423  aa   000036 000272     533  	zero	30,ST186 prod/val
                        000003     534  	equ	LN272,*-DPDA-ST272-1
                                   535  "
                                   536  " STATE 276
                        000424     537  	equ	ST276,*-DPDA
    000424  aa   000006 000003     538  	zero	APLYS,LN276
    000425  aa   000000 000000     539  	zero	0,0   pd ld
    000426  aa   000036 000004     540  	zero	30,4   rule/alt
    000427  aa   000036 000272     541  	zero	30,ST186 prod/val
                        000003     542  	equ	LN276,*-DPDA-ST276-1
                                   543  "
                                   544  " STATE 280
                        000430     545  	equ	ST280,*-DPDA
    000430  aa   000006 000003     546  	zero	APLYS,LN280
    000431  aa   000000 000000     547  	zero	0,0   pd ld
    000432  aa   000036 000003     548  	zero	30,3   rule/alt
    000433  aa   000036 000272     549  	zero	30,ST186 prod/val
                        000003     550  	equ	LN280,*-DPDA-ST280-1
                                   551  "
                                   552  " STATE 284
                        000434     553  	equ	ST284,*-DPDA
    000434  aa   000006 000003     554  	zero	APLYS,LN284
    000435  aa   000000 000000     555  	zero	0,0   pd ld
    000436  aa   000036 000002     556  	zero	30,2   rule/alt
    000437  aa   000036 000272     557  	zero	30,ST186 prod/val
                        000003     558  	equ	LN284,*-DPDA-ST284-1
                                   559  "
                                   560  " STATE 288
                        000440     561  	equ	ST288,*-DPDA
    000440  aa   000011 000034     562  	zero	NSRD,LN288
    000441  aa   000001 776323     563  	zero	1,-ST813	"<identifier>
    000442  aa   000005 776323     564  	zero	5,-ST813	"(
    000443  aa   000006 776323     565  	zero	6,-ST813	")
    000444  aa   000007 776325     566  	zero	7,-ST811	"=
    000445  aa   000010 776323     567  	zero	8,-ST813	"relation
    000446  aa   000011 776323     568  	zero	9,-ST813	"attribute
    000447  aa   000012 776323     569  	zero	10,-ST813	"access
    000450  aa   000013 776323     570  	zero	11,-ST813	"rel_acc
    000451  aa   000014 776323     571  	zero	12,-ST813	"attr_acc
    000452  aa   000015 776323     572  	zero	13,-ST813	"default
    000453  aa   000016 776323     573  	zero	14,-ST813	"in
    000454  aa   000017 776323     574  	zero	15,-ST813	"with
    000455  aa   000020 776323     575  	zero	16,-ST813	"delete
    000456  aa   000021 776323     576  	zero	17,-ST813	"append
    000457  aa   000022 776323     577  	zero	18,-ST813	"tuple
    000460  aa   000023 776323     578  	zero	19,-ST813	"attr
    000461  aa   000024 776323     579  	zero	20,-ST813	"d
    000462  aa   000025 776323     580  	zero	21,-ST813	"a
    000463  aa   000026 776323     581  	zero	22,-ST813	"delete_tuple
    000464  aa   000027 776323     582  	zero	23,-ST813	"append_tuple
    000465  aa   000030 776323     583  	zero	24,-ST813	"read
    000466  aa   000031 776323     584  	zero	25,-ST813	"read_attr
    000467  aa   000032 776323     585  	zero	26,-ST813	"modify
    000470  aa   000033 776323     586  	zero	27,-ST813	"modify_attr
    000471  aa   000034 776323     587  	zero	28,-ST813	"null
    000472  aa   000035 776323     588  	zero	29,-ST813	"n
    000473  aa   000036 776323     589  	zero	30,-ST813	"r
    000474  aa   000037 776323     590  	zero	31,-ST813	"m
                        000034     591  	equ	LN288,*-DPDA-ST288-1
                                   592  "
                                   593  " STATE 317
                        000475     594  	equ	ST317,*-DPDA
    000475  aa   000000 000001     595  	zero	STRD,LN317
    000476  aa   000005 001170     596  	zero	5,ST632	"(
                        000001     597  	equ	LN317,*-DPDA-ST317-1
                                   598  "
                                   599  " STATE 319
                        000477     600  	equ	ST319,*-DPDA
    000477  aa   000005 000003     601  	zero	APLY1,LN319
    000500  aa   000000 000000     602  	zero	0,0   pd ld
    000501  aa   000005 000002     603  	zero	5,2   rule/alt
    000502  aa   000005 000503     604  	zero	5,ST323 prod/val
                        000003     605  	equ	LN319,*-DPDA-ST319-1
                                   606  "
                                   607  " STATE 323
                        000503     608  	equ	ST323,*-DPDA
    000503  aa   000000 000002     609  	zero	STRD,LN323
    000504  aa   000002 001171     610  	zero	2,ST633	".
    000505  aa   000004 001175     611  	zero	4,ST637	",
                        000002     612  	equ	LN323,*-DPDA-ST323-1
                                   613  "
                                   614  " STATE 326
                        000506     615  	equ	ST326,*-DPDA
    000506  aa   000006 000003     616  	zero	APLYS,LN326
    000507  aa   000000 000000     617  	zero	0,0   pd ld
    000510  aa   000036 000001     618  	zero	30,1   rule/alt
    000511  aa   000036 000272     619  	zero	30,ST186 prod/val
                        000003     620  	equ	LN326,*-DPDA-ST326-1
                                   621  "
                                   622  " STATE 330
                        000512     623  	equ	ST330,*-DPDA
    000512  aa   000004 000004     624  	zero	APLY,LN330
    000513  aa   000000 000000     625  	zero	0,0   pd ld
    000514  aa   000046 000001     626  	zero	38,1   rule/alt
    000515  aa   000046 000404     627  	zero	38,ST260 prod/val
    000516  aa   001144 001236     628  	zero	ST612,ST670
                        000004     629  	equ	LN330,*-DPDA-ST330-1
                                   630  "
                                   631  " STATE 335
                        000517     632  	equ	ST335,*-DPDA
    000517  aa   000004 000004     633  	zero	APLY,LN335
    000520  aa   000000 000000     634  	zero	0,0   pd ld
    000521  aa   000047 000001     635  	zero	39,1   rule/alt
    000522  aa   000047 000400     636  	zero	39,ST256 prod/val
    000523  aa   001461 001416     637  	zero	ST817,ST782
                        000004     638  	equ	LN335,*-DPDA-ST335-1
                                   639  "
                                   640  " STATE 340
                        000524     641  	equ	ST340,*-DPDA
    000524  aa   000004 000007     642  	zero	APLY,LN340
    000525  aa   000000 000000     643  	zero	0,0   pd ld
    000526  aa   000050 000001     644  	zero	40,1   rule/alt
    000527  aa   000050 000374     645  	zero	40,ST252 prod/val
    000530  aa   000240 001016     646  	zero	ST160,ST526
    000531  aa   001046 001016     647  	zero	ST550,ST526
    000532  aa   001212 001016     648  	zero	ST650,ST526
    000533  aa   001245 001016     649  	zero	ST677,ST526
                        000007     650  	equ	LN340,*-DPDA-ST340-1
                                   651  "
                                   652  " STATE 348
                        000534     653  	equ	ST348,*-DPDA
    000534  aa   000004 000007     654  	zero	APLY,LN348
    000535  aa   000000 000000     655  	zero	0,0   pd ld
    000536  aa   000051 000001     656  	zero	41,1   rule/alt
    000537  aa   000051 000370     657  	zero	41,ST248 prod/val
    000540  aa   000240 001014     658  	zero	ST160,ST524
    000541  aa   001046 001014     659  	zero	ST550,ST524
    000542  aa   001212 001014     660  	zero	ST650,ST524
    000543  aa   001245 001014     661  	zero	ST677,ST524
                        000007     662  	equ	LN348,*-DPDA-ST348-1
                                   663  "
                                   664  " STATE 356
                        000544     665  	equ	ST356,*-DPDA
    000544  aa   000004 000005     666  	zero	APLY,LN356
    000545  aa   000000 000000     667  	zero	0,0   pd ld
    000546  aa   000052 000001     668  	zero	42,1   rule/alt
    000547  aa   000052 000364     669  	zero	42,ST244 prod/val
    000550  aa   001014 001176     670  	zero	ST524,ST638
    000551  aa   001016 001202     671  	zero	ST526,ST642
                        000005     672  	equ	LN356,*-DPDA-ST356-1
                                   673  "
                                   674  " STATE 362
                        000552     675  	equ	ST362,*-DPDA
    000552  aa   000004 000005     676  	zero	APLY,LN362
    000553  aa   000000 000000     677  	zero	0,0   pd ld
    000554  aa   000053 000001     678  	zero	43,1   rule/alt
    000555  aa   000053 000360     679  	zero	43,ST240 prod/val
    000556  aa   001073 001216     680  	zero	ST571,ST654
    000557  aa   001101 001222     681  	zero	ST577,ST658
                        000005     682  	equ	LN362,*-DPDA-ST362-1
                                   683  "
                                   684  " STATE 368
                        000560     685  	equ	ST368,*-DPDA
    000560  aa   000004 000007     686  	zero	APLY,LN368
    000561  aa   000000 000000     687  	zero	0,0   pd ld
    000562  aa   000054 000001     688  	zero	44,1   rule/alt
    000563  aa   000054 000354     689  	zero	44,ST236 prod/val
    000564  aa   000240 001010     690  	zero	ST160,ST520
    000565  aa   001046 001010     691  	zero	ST550,ST520
    000566  aa   001212 001010     692  	zero	ST650,ST520
    000567  aa   001245 001010     693  	zero	ST677,ST520
                        000007     694  	equ	LN368,*-DPDA-ST368-1
                                   695  "
                                   696  " STATE 376
                        000570     697  	equ	ST376,*-DPDA
    000570  aa   000004 000007     698  	zero	APLY,LN376
    000571  aa   000000 000000     699  	zero	0,0   pd ld
    000572  aa   000055 000001     700  	zero	45,1   rule/alt
    000573  aa   000055 000350     701  	zero	45,ST232 prod/val
    000574  aa   000240 001004     702  	zero	ST160,ST516
    000575  aa   001046 001004     703  	zero	ST550,ST516
    000576  aa   001212 001004     704  	zero	ST650,ST516
    000577  aa   001245 001004     705  	zero	ST677,ST516
                        000007     706  	equ	LN376,*-DPDA-ST376-1
                                   707  "
                                   708  " STATE 384
                        000600     709  	equ	ST384,*-DPDA
    000600  aa   000004 000007     710  	zero	APLY,LN384
    000601  aa   000000 000000     711  	zero	0,0   pd ld
    000602  aa   000056 000001     712  	zero	46,1   rule/alt
    000603  aa   000056 000344     713  	zero	46,ST228 prod/val
    000604  aa   000240 001000     714  	zero	ST160,ST512
    000605  aa   001046 001000     715  	zero	ST550,ST512
    000606  aa   001212 001000     716  	zero	ST650,ST512
    000607  aa   001245 001000     717  	zero	ST677,ST512
                        000007     718  	equ	LN384,*-DPDA-ST384-1
                                   719  "
                                   720  " STATE 392
                        000610     721  	equ	ST392,*-DPDA
    000610  aa   000004 000007     722  	zero	APLY,LN392
    000611  aa   000000 000000     723  	zero	0,0   pd ld
    000612  aa   000057 000001     724  	zero	47,1   rule/alt
    000613  aa   000057 000340     725  	zero	47,ST224 prod/val
    000614  aa   000240 000774     726  	zero	ST160,ST508
    000615  aa   001046 000774     727  	zero	ST550,ST508
    000616  aa   001212 000774     728  	zero	ST650,ST508
    000617  aa   001245 000774     729  	zero	ST677,ST508
                        000007     730  	equ	LN392,*-DPDA-ST392-1
                                   731  "
                                   732  " STATE 400
                        000620     733  	equ	ST400,*-DPDA
    000620  aa   000004 000011     734  	zero	APLY,LN400
    000621  aa   000000 000000     735  	zero	0,0   pd ld
    000622  aa   000060 000001     736  	zero	48,1   rule/alt
    000623  aa   000060 000334     737  	zero	48,ST220 prod/val
    000624  aa   000252 001101     738  	zero	ST170,ST577
    000625  aa   001133 001101     739  	zero	ST603,ST577
    000626  aa   001232 001101     740  	zero	ST666,ST577
    000627  aa   001237 001101     741  	zero	ST671,ST577
    000630  aa   001401 001101     742  	zero	ST769,ST577
    000631  aa   001427 001101     743  	zero	ST791,ST577
                        000011     744  	equ	LN400,*-DPDA-ST400-1
                                   745  "
                                   746  " STATE 410
                        000632     747  	equ	ST410,*-DPDA
    000632  aa   000004 000011     748  	zero	APLY,LN410
    000633  aa   000000 000000     749  	zero	0,0   pd ld
    000634  aa   000061 000001     750  	zero	49,1   rule/alt
    000635  aa   000061 000330     751  	zero	49,ST216 prod/val
    000636  aa   000252 001075     752  	zero	ST170,ST573
    000637  aa   001133 001075     753  	zero	ST603,ST573
    000640  aa   001232 001075     754  	zero	ST666,ST573
    000641  aa   001237 001075     755  	zero	ST671,ST573
    000642  aa   001401 001075     756  	zero	ST769,ST573
    000643  aa   001427 001075     757  	zero	ST791,ST573
                        000011     758  	equ	LN410,*-DPDA-ST410-1
                                   759  "
                                   760  " STATE 420
                        000644     761  	equ	ST420,*-DPDA
    000644  aa   000004 000011     762  	zero	APLY,LN420
    000645  aa   000000 000000     763  	zero	0,0   pd ld
    000646  aa   000062 000001     764  	zero	50,1   rule/alt
    000647  aa   000062 000324     765  	zero	50,ST212 prod/val
    000650  aa   000252 001073     766  	zero	ST170,ST571
    000651  aa   001133 001073     767  	zero	ST603,ST571
    000652  aa   001232 001073     768  	zero	ST666,ST571
    000653  aa   001237 001073     769  	zero	ST671,ST571
    000654  aa   001401 001073     770  	zero	ST769,ST571
    000655  aa   001427 001073     771  	zero	ST791,ST571
                        000011     772  	equ	LN420,*-DPDA-ST420-1
                                   773  "
                                   774  " STATE 430
                        000656     775  	equ	ST430,*-DPDA
    000656  aa   000004 000011     776  	zero	APLY,LN430
    000657  aa   000000 000000     777  	zero	0,0   pd ld
    000660  aa   000063 000001     778  	zero	51,1   rule/alt
    000661  aa   000063 000320     779  	zero	51,ST208 prod/val
    000662  aa   000252 001067     780  	zero	ST170,ST567
    000663  aa   001133 001067     781  	zero	ST603,ST567
    000664  aa   001232 001067     782  	zero	ST666,ST567
    000665  aa   001237 001067     783  	zero	ST671,ST567
    000666  aa   001401 001067     784  	zero	ST769,ST567
    000667  aa   001427 001067     785  	zero	ST791,ST567
                        000011     786  	equ	LN430,*-DPDA-ST430-1
                                   787  "
                                   788  " STATE 440
                        000670     789  	equ	ST440,*-DPDA
    000670  aa   000004 000015     790  	zero	APLY,LN440
    000671  aa   000000 000000     791  	zero	0,0   pd ld
    000672  aa   000064 000001     792  	zero	52,1   rule/alt
    000673  aa   000064 000314     793  	zero	52,ST204 prod/val
    000674  aa   000240 000770     794  	zero	ST160,ST504
    000675  aa   000252 000770     795  	zero	ST170,ST504
    000676  aa   001046 000770     796  	zero	ST550,ST504
    000677  aa   001133 000770     797  	zero	ST603,ST504
    000700  aa   001212 000770     798  	zero	ST650,ST504
    000701  aa   001232 000770     799  	zero	ST666,ST504
    000702  aa   001237 000770     800  	zero	ST671,ST504
    000703  aa   001245 000770     801  	zero	ST677,ST504
    000704  aa   001401 000770     802  	zero	ST769,ST504
    000705  aa   001427 000770     803  	zero	ST791,ST504
                        000015     804  	equ	LN440,*-DPDA-ST440-1
                                   805  "
                                   806  " STATE 454
                        000706     807  	equ	ST454,*-DPDA
    000706  aa   000004 000015     808  	zero	APLY,LN454
    000707  aa   000000 000000     809  	zero	0,0   pd ld
    000710  aa   000065 000001     810  	zero	53,1   rule/alt
    000711  aa   000065 000310     811  	zero	53,ST200 prod/val
    000712  aa   000240 000760     812  	zero	ST160,ST496
    000713  aa   000252 000760     813  	zero	ST170,ST496
    000714  aa   001046 000760     814  	zero	ST550,ST496
    000715  aa   001133 000760     815  	zero	ST603,ST496
    000716  aa   001212 000760     816  	zero	ST650,ST496
    000717  aa   001232 000760     817  	zero	ST666,ST496
    000720  aa   001237 000760     818  	zero	ST671,ST496
    000721  aa   001245 000760     819  	zero	ST677,ST496
    000722  aa   001401 000760     820  	zero	ST769,ST496
    000723  aa   001427 000760     821  	zero	ST791,ST496
                        000015     822  	equ	LN454,*-DPDA-ST454-1
                                   823  "
                                   824  " STATE 468
                        000724     825  	equ	ST468,*-DPDA
    000724  aa   000004 000011     826  	zero	APLY,LN468
    000725  aa   000000 000000     827  	zero	0,0   pd ld
    000726  aa   000066 000001     828  	zero	54,1   rule/alt
    000727  aa   000066 000304     829  	zero	54,ST196 prod/val
    000730  aa   000252 001063     830  	zero	ST170,ST563
    000731  aa   001133 001063     831  	zero	ST603,ST563
    000732  aa   001232 001063     832  	zero	ST666,ST563
    000733  aa   001237 001063     833  	zero	ST671,ST563
    000734  aa   001401 001063     834  	zero	ST769,ST563
    000735  aa   001427 001063     835  	zero	ST791,ST563
                        000011     836  	equ	LN468,*-DPDA-ST468-1
                                   837  "
                                   838  " STATE 478
                        000736     839  	equ	ST478,*-DPDA
    000736  aa   000004 000011     840  	zero	APLY,LN478
    000737  aa   000000 000000     841  	zero	0,0   pd ld
    000740  aa   000067 000001     842  	zero	55,1   rule/alt
    000741  aa   000067 000272     843  	zero	55,ST186 prod/val
    000742  aa   000252 001057     844  	zero	ST170,ST559
    000743  aa   001133 001057     845  	zero	ST603,ST559
    000744  aa   001232 001057     846  	zero	ST666,ST559
    000745  aa   001237 001057     847  	zero	ST671,ST559
    000746  aa   001401 001057     848  	zero	ST769,ST559
    000747  aa   001427 001057     849  	zero	ST791,ST559
                        000011     850  	equ	LN478,*-DPDA-ST478-1
                                   851  "
                                   852  " STATE 488
                        000750     853  	equ	ST488,*-DPDA
    000750  aa   000005 000003     854  	zero	APLY1,LN488
    000751  aa   000002 000002     855  	zero	2,2   pd ld
    000752  aa   000027 000001     856  	zero	23,1   rule/alt
    000753  aa   000027 000036     857  	zero	23,ST30 prod/val
                        000003     858  	equ	LN488,*-DPDA-ST488-1
                                   859  "
                                   860  " STATE 492
                        000754     861  	equ	ST492,*-DPDA
    000754  aa   000005 000003     862  	zero	APLY1,LN492
    000755  aa   000002 000002     863  	zero	2,2   pd ld
    000756  aa   000030 000001     864  	zero	24,1   rule/alt
    000757  aa   000030 000034     865  	zero	24,ST28 prod/val
                        000003     866  	equ	LN492,*-DPDA-ST492-1
                                   867  "
                                   868  " STATE 496
                        000760     869  	equ	ST496,*-DPDA
    000760  aa   000004 000007     870  	zero	APLY,LN496
    000761  aa   000000 000000     871  	zero	0,0   pd ld
    000762  aa   000035 000002     872  	zero	29,2   rule/alt
    000763  aa   000035 001103     873  	zero	29,ST579 prod/val
    000764  aa   000240 001020     874  	zero	ST160,ST528
    000765  aa   001046 001020     875  	zero	ST550,ST528
    000766  aa   001212 001020     876  	zero	ST650,ST528
    000767  aa   001245 001020     877  	zero	ST677,ST528
                        000007     878  	equ	LN496,*-DPDA-ST496-1
                                   879  "
                                   880  " STATE 504
                        000770     881  	equ	ST504,*-DPDA
    000770  aa   000006 000003     882  	zero	APLYS,LN504
    000771  aa   000000 000000     883  	zero	0,0   pd ld
    000772  aa   000035 000001     884  	zero	29,1   rule/alt
    000773  aa   000035 000760     885  	zero	29,ST496 prod/val
                        000003     886  	equ	LN504,*-DPDA-ST504-1
                                   887  "
                                   888  " STATE 508
                        000774     889  	equ	ST508,*-DPDA
    000774  aa   000005 000003     890  	zero	APLY1,LN508
    000775  aa   000000 000000     891  	zero	0,0   pd ld
    000776  aa   000032 000003     892  	zero	26,3   rule/alt
    000777  aa   000032 001025     893  	zero	26,ST533 prod/val
                        000003     894  	equ	LN508,*-DPDA-ST508-1
                                   895  "
                                   896  " STATE 512
                        001000     897  	equ	ST512,*-DPDA
    001000  aa   000005 000003     898  	zero	APLY1,LN512
    001001  aa   000000 000000     899  	zero	0,0   pd ld
    001002  aa   000031 000003     900  	zero	25,3   rule/alt
    001003  aa   000031 001031     901  	zero	25,ST537 prod/val
                        000003     902  	equ	LN512,*-DPDA-ST512-1
                                   903  "
                                   904  " STATE 516
                        001004     905  	equ	ST516,*-DPDA
    001004  aa   000005 000003     906  	zero	APLY1,LN516
    001005  aa   000000 000000     907  	zero	0,0   pd ld
    001006  aa   000032 000002     908  	zero	26,2   rule/alt
    001007  aa   000032 001025     909  	zero	26,ST533 prod/val
                        000003     910  	equ	LN516,*-DPDA-ST516-1
                                   911  "
                                   912  " STATE 520
                        001010     913  	equ	ST520,*-DPDA
    001010  aa   000005 000003     914  	zero	APLY1,LN520
    001011  aa   000000 000000     915  	zero	0,0   pd ld
    001012  aa   000031 000002     916  	zero	25,2   rule/alt
    001013  aa   000031 001031     917  	zero	25,ST537 prod/val
                        000003     918  	equ	LN520,*-DPDA-ST520-1
                                   919  "
                                   920  " STATE 524
                        001014     921  	equ	ST524,*-DPDA
    001014  aa   000000 000001     922  	zero	STRD,LN524
    001015  aa   000022 000544     923  	zero	18,ST356	"tuple
                        000001     924  	equ	LN524,*-DPDA-ST524-1
                                   925  "
                                   926  " STATE 526
                        001016     927  	equ	ST526,*-DPDA
    001016  aa   000000 000001     928  	zero	STRD,LN526
    001017  aa   000022 000544     929  	zero	18,ST356	"tuple
                        000001     930  	equ	LN526,*-DPDA-ST526-1
                                   931  "
                                   932  " STATE 528
                        001020     933  	equ	ST528,*-DPDA
    001020  aa   000004 000004     934  	zero	APLY,LN528
    001021  aa   000000 000000     935  	zero	0,0   pd ld
    001022  aa   000015 000002     936  	zero	13,2   rule/alt
    001023  aa   000015 001035     937  	zero	13,ST541 prod/val
    001024  aa   001212 001324     938  	zero	ST650,ST724
                        000004     939  	equ	LN528,*-DPDA-ST528-1
                                   940  "
                                   941  " STATE 533
                        001025     942  	equ	ST533,*-DPDA
    001025  aa   000006 000003     943  	zero	APLYS,LN533
    001026  aa   000000 000000     944  	zero	0,0   pd ld
    001027  aa   000015 000003     945  	zero	13,3   rule/alt
    001030  aa   000015 001020     946  	zero	13,ST528 prod/val
                        000003     947  	equ	LN533,*-DPDA-ST533-1
                                   948  "
                                   949  " STATE 537
                        001031     950  	equ	ST537,*-DPDA
    001031  aa   000006 000003     951  	zero	APLYS,LN537
    001032  aa   000000 000000     952  	zero	0,0   pd ld
    001033  aa   000015 000001     953  	zero	13,1   rule/alt
    001034  aa   000015 001020     954  	zero	13,ST528 prod/val
                        000003     955  	equ	LN537,*-DPDA-ST537-1
                                   956  "
                                   957  " STATE 541
                        001035     958  	equ	ST541,*-DPDA
    001035  aa   000004 000005     959  	zero	APLY,LN541
    001036  aa   000000 000000     960  	zero	0,0   pd ld
    001037  aa   000014 000002     961  	zero	12,2   rule/alt
    001040  aa   000014 001043     962  	zero	12,ST547 prod/val
    001041  aa   001046 001213     963  	zero	ST550,ST651
    001042  aa   001245 001351     964  	zero	ST677,ST745
                        000005     965  	equ	LN541,*-DPDA-ST541-1
                                   966  "
                                   967  " STATE 547
                        001043     968  	equ	ST547,*-DPDA
    001043  aa   000000 000002     969  	zero	STRD,LN547
    001044  aa   000002 001206     970  	zero	2,ST646	".
    001045  aa   000004 001212     971  	zero	4,ST650	",
                        000002     972  	equ	LN547,*-DPDA-ST547-1
                                   973  "
                                   974  " STATE 550
                        001046     975  	equ	ST550,*-DPDA
    001046  aa   000000 000010     976  	zero	STRD,LN550
    001047  aa   000020 000524     977  	zero	16,ST340	"delete
    001050  aa   000021 000534     978  	zero	17,ST348	"append
    001051  aa   000024 000560     979  	zero	20,ST368	"d
    001052  aa   000025 000570     980  	zero	21,ST376	"a
    001053  aa   000026 000600     981  	zero	22,ST384	"delete_tuple
    001054  aa   000027 000610     982  	zero	23,ST392	"append_tuple
    001055  aa   000034 000670     983  	zero	28,ST440	"null
    001056  aa   000035 000706     984  	zero	29,ST454	"n
                        000010     985  	equ	LN550,*-DPDA-ST550-1
                                   986  "
                                   987  " STATE 559
                        001057     988  	equ	ST559,*-DPDA
    001057  aa   000005 000003     989  	zero	APLY1,LN559
    001060  aa   000000 000000     990  	zero	0,0   pd ld
    001061  aa   000034 000003     991  	zero	28,3   rule/alt
    001062  aa   000034 001110     992  	zero	28,ST584 prod/val
                        000003     993  	equ	LN559,*-DPDA-ST559-1
                                   994  "
                                   995  " STATE 563
                        001063     996  	equ	ST563,*-DPDA
    001063  aa   000005 000003     997  	zero	APLY1,LN563
    001064  aa   000000 000000     998  	zero	0,0   pd ld
    001065  aa   000033 000003     999  	zero	27,3   rule/alt
    001066  aa   000033 001114    1000  	zero	27,ST588 prod/val
                        000003    1001  	equ	LN563,*-DPDA-ST563-1
                                  1002  "
                                  1003  " STATE 567
                        001067    1004  	equ	ST567,*-DPDA
    001067  aa   000005 000003    1005  	zero	APLY1,LN567
    001070  aa   000000 000000    1006  	zero	0,0   pd ld
    001071  aa   000034 000002    1007  	zero	28,2   rule/alt
    001072  aa   000034 001110    1008  	zero	28,ST584 prod/val
                        000003    1009  	equ	LN567,*-DPDA-ST567-1
                                  1010  "
                                  1011  " STATE 571
                        001073    1012  	equ	ST571,*-DPDA
    001073  aa   000000 000001    1013  	zero	STRD,LN571
    001074  aa   000023 000552    1014  	zero	19,ST362	"attr
                        000001    1015  	equ	LN571,*-DPDA-ST571-1
                                  1016  "
                                  1017  " STATE 573
                        001075    1018  	equ	ST573,*-DPDA
    001075  aa   000005 000003    1019  	zero	APLY1,LN573
    001076  aa   000000 000000    1020  	zero	0,0   pd ld
    001077  aa   000033 000002    1021  	zero	27,2   rule/alt
    001100  aa   000033 001114    1022  	zero	27,ST588 prod/val
                        000003    1023  	equ	LN573,*-DPDA-ST573-1
                                  1024  "
                                  1025  " STATE 577
                        001101    1026  	equ	ST577,*-DPDA
    001101  aa   000000 000001    1027  	zero	STRD,LN577
    001102  aa   000023 000552    1028  	zero	19,ST362	"attr
                        000001    1029  	equ	LN577,*-DPDA-ST577-1
                                  1030  "
                                  1031  " STATE 579
                        001103    1032  	equ	ST579,*-DPDA
    001103  aa   000004 000004    1033  	zero	APLY,LN579
    001104  aa   000000 000000    1034  	zero	0,0   pd ld
    001105  aa   000022 000002    1035  	zero	18,2   rule/alt
    001106  aa   000022 001120    1036  	zero	18,ST592 prod/val
    001107  aa   001232 001332    1037  	zero	ST666,ST730
                        000004    1038  	equ	LN579,*-DPDA-ST579-1
                                  1039  "
                                  1040  " STATE 584
                        001110    1041  	equ	ST584,*-DPDA
    001110  aa   000006 000003    1042  	zero	APLYS,LN584
    001111  aa   000000 000000    1043  	zero	0,0   pd ld
    001112  aa   000022 000003    1044  	zero	18,3   rule/alt
    001113  aa   000022 001103    1045  	zero	18,ST579 prod/val
                        000003    1046  	equ	LN584,*-DPDA-ST584-1
                                  1047  "
                                  1048  " STATE 588
                        001114    1049  	equ	ST588,*-DPDA
    001114  aa   000006 000003    1050  	zero	APLYS,LN588
    001115  aa   000000 000000    1051  	zero	0,0   pd ld
    001116  aa   000022 000001    1052  	zero	18,1   rule/alt
    001117  aa   000022 001103    1053  	zero	18,ST579 prod/val
                        000003    1054  	equ	LN588,*-DPDA-ST588-1
                                  1055  "
                                  1056  " STATE 592
                        001120    1057  	equ	ST592,*-DPDA
    001120  aa   000004 000007    1058  	zero	APLY,LN592
    001121  aa   000000 000000    1059  	zero	0,0   pd ld
    001122  aa   000021 000002    1060  	zero	17,2   rule/alt
    001123  aa   000021 001130    1061  	zero	17,ST600 prod/val
    001124  aa   001133 001233    1062  	zero	ST603,ST667
    001125  aa   001237 001342    1063  	zero	ST671,ST738
    001126  aa   001401 001413    1064  	zero	ST769,ST779
    001127  aa   001427 001430    1065  	zero	ST791,ST792
                        000007    1066  	equ	LN592,*-DPDA-ST592-1
                                  1067  "
                                  1068  " STATE 600
                        001130    1069  	equ	ST600,*-DPDA
    001130  aa   000000 000002    1070  	zero	STRD,LN600
    001131  aa   000002 001226    1071  	zero	2,ST662	".
    001132  aa   000004 001232    1072  	zero	4,ST666	",
                        000002    1073  	equ	LN600,*-DPDA-ST600-1
                                  1074  "
                                  1075  " STATE 603
                        001133    1076  	equ	ST603,*-DPDA
    001133  aa   000000 000010    1077  	zero	STRD,LN603
    001134  aa   000030 000620    1078  	zero	24,ST400	"read
    001135  aa   000031 000632    1079  	zero	25,ST410	"read_attr
    001136  aa   000032 000644    1080  	zero	26,ST420	"modify
    001137  aa   000033 000656    1081  	zero	27,ST430	"modify_attr
    001140  aa   000034 000670    1082  	zero	28,ST440	"null
    001141  aa   000035 000706    1083  	zero	29,ST454	"n
    001142  aa   000036 000724    1084  	zero	30,ST468	"r
    001143  aa   000037 000736    1085  	zero	31,ST478	"m
                        000010    1086  	equ	LN603,*-DPDA-ST603-1
                                  1087  "
                                  1088  " STATE 612
                        001144    1089  	equ	ST612,*-DPDA
    001144  aa   000000 000002    1090  	zero	STRD,LN612
    001145  aa   000005 001237    1091  	zero	5,ST671	"(
    001146  aa   000016 000512    1092  	zero	14,ST330	"in
                        000002    1093  	equ	LN612,*-DPDA-ST612-1
                                  1094  "
                                  1095  " STATE 615
                        001147    1096  	equ	ST615,*-DPDA
    001147  aa   000005 000003    1097  	zero	APLY1,LN615
    001150  aa   000000 000000    1098  	zero	0,0   pd ld
    001151  aa   000017 000002    1099  	zero	15,2   rule/alt
    001152  aa   000017 001153    1100  	zero	15,ST619 prod/val
                        000003    1101  	equ	LN615,*-DPDA-ST615-1
                                  1102  "
                                  1103  " STATE 619
                        001153    1104  	equ	ST619,*-DPDA
    001153  aa   000000 000002    1105  	zero	STRD,LN619
    001154  aa   000002 001240    1106  	zero	2,ST672	".
    001155  aa   000004 001244    1107  	zero	4,ST676	",
                        000002    1108  	equ	LN619,*-DPDA-ST619-1
                                  1109  "
                                  1110  " STATE 622
                        001156    1111  	equ	ST622,*-DPDA
    001156  aa   000000 000001    1112  	zero	STRD,LN622
    001157  aa   000005 001245    1113  	zero	5,ST677	"(
                        000001    1114  	equ	LN622,*-DPDA-ST622-1
                                  1115  "
                                  1116  " STATE 624
                        001160    1117  	equ	ST624,*-DPDA
    001160  aa   000005 000003    1118  	zero	APLY1,LN624
    001161  aa   000000 000000    1119  	zero	0,0   pd ld
    001162  aa   000012 000002    1120  	zero	10,2   rule/alt
    001163  aa   000012 001164    1121  	zero	10,ST628 prod/val
                        000003    1122  	equ	LN624,*-DPDA-ST624-1
                                  1123  "
                                  1124  " STATE 628
                        001164    1125  	equ	ST628,*-DPDA
    001164  aa   000000 000002    1126  	zero	STRD,LN628
    001165  aa   000002 001246    1127  	zero	2,ST678	".
    001166  aa   000004 001252    1128  	zero	4,ST682	",
                        000002    1129  	equ	LN628,*-DPDA-ST628-1
                                  1130  "
                                  1131  " STATE 631
                        001167    1132  	equ	ST631,*-DPDA
    001167  aa   000002 000152    1133  	zero	STRDS,ST106
                                  1134
                                  1135  "
                                  1136  " STATE 632
                        001170    1137  	equ	ST632,*-DPDA
    001170  aa   000002 000152    1138  	zero	STRDS,ST106
                                  1139
                                  1140  "
                                  1141  " STATE 633
                        001171    1142  	equ	ST633,*-DPDA
    001171  aa   000005 000003    1143  	zero	APLY1,LN633
    001172  aa   000003 000003    1144  	zero	3,3   pd ld
    001173  aa   000004 000001    1145  	zero	4,1   rule/alt
    001174  aa   000004 000065    1146  	zero	4,ST53 prod/val
                        000003    1147  	equ	LN633,*-DPDA-ST633-1
                                  1148  "
                                  1149  " STATE 637
                        001175    1150  	equ	ST637,*-DPDA
    001175  aa   000002 000152    1151  	zero	STRDS,ST106
                                  1152
                                  1153  "
                                  1154  " STATE 638
                        001176    1155  	equ	ST638,*-DPDA
    001176  aa   000005 000003    1156  	zero	APLY1,LN638
    001177  aa   000001 000001    1157  	zero	1,1   pd ld
    001200  aa   000032 000001    1158  	zero	26,1   rule/alt
    001201  aa   000032 001025    1159  	zero	26,ST533 prod/val
                        000003    1160  	equ	LN638,*-DPDA-ST638-1
                                  1161  "
                                  1162  " STATE 642
                        001202    1163  	equ	ST642,*-DPDA
    001202  aa   000005 000003    1164  	zero	APLY1,LN642
    001203  aa   000001 000001    1165  	zero	1,1   pd ld
    001204  aa   000031 000001    1166  	zero	25,1   rule/alt
    001205  aa   000031 001031    1167  	zero	25,ST537 prod/val
                        000003    1168  	equ	LN642,*-DPDA-ST642-1
                                  1169  "
                                  1170  " STATE 646
                        001206    1171  	equ	ST646,*-DPDA
    001206  aa   000005 000003    1172  	zero	APLY1,LN646
    001207  aa   000003 000003    1173  	zero	3,3   pd ld
    001210  aa   000024 000001    1174  	zero	20,1   rule/alt
    001211  aa   000024 000044    1175  	zero	20,ST36 prod/val
                        000003    1176  	equ	LN646,*-DPDA-ST646-1
                                  1177  "
                                  1178  " STATE 650
                        001212    1179  	equ	ST650,*-DPDA
    001212  aa   000002 001046    1180  	zero	STRDS,ST550
                                  1181
                                  1182  "
                                  1183  " STATE 651
                        001213    1184  	equ	ST651,*-DPDA
    001213  aa   000000 000002    1185  	zero	STRD,LN651
    001214  aa   000004 001212    1186  	zero	4,ST650	",
    001215  aa   000006 001330    1187  	zero	6,ST728	")
                        000002    1188  	equ	LN651,*-DPDA-ST651-1
                                  1189  "
                                  1190  " STATE 654
                        001216    1191  	equ	ST654,*-DPDA
    001216  aa   000005 000003    1192  	zero	APLY1,LN654
    001217  aa   000001 000001    1193  	zero	1,1   pd ld
    001220  aa   000034 000001    1194  	zero	28,1   rule/alt
    001221  aa   000034 001110    1195  	zero	28,ST584 prod/val
                        000003    1196  	equ	LN654,*-DPDA-ST654-1
                                  1197  "
                                  1198  " STATE 658
                        001222    1199  	equ	ST658,*-DPDA
    001222  aa   000005 000003    1200  	zero	APLY1,LN658
    001223  aa   000001 000001    1201  	zero	1,1   pd ld
    001224  aa   000033 000001    1202  	zero	27,1   rule/alt
    001225  aa   000033 001114    1203  	zero	27,ST588 prod/val
                        000003    1204  	equ	LN658,*-DPDA-ST658-1
                                  1205  "
                                  1206  " STATE 662
                        001226    1207  	equ	ST662,*-DPDA
    001226  aa   000005 000003    1208  	zero	APLY1,LN662
    001227  aa   000003 000003    1209  	zero	3,3   pd ld
    001230  aa   000023 000001    1210  	zero	19,1   rule/alt
    001231  aa   000023 000051    1211  	zero	19,ST41 prod/val
                        000003    1212  	equ	LN662,*-DPDA-ST662-1
                                  1213  "
                                  1214  " STATE 666
                        001232    1215  	equ	ST666,*-DPDA
    001232  aa   000002 001133    1216  	zero	STRDS,ST603
                                  1217
                                  1218  "
                                  1219  " STATE 667
                        001233    1220  	equ	ST667,*-DPDA
    001233  aa   000000 000002    1221  	zero	STRD,LN667
    001234  aa   000004 001232    1222  	zero	4,ST666	",
    001235  aa   000006 001336    1223  	zero	6,ST734	")
                        000002    1224  	equ	LN667,*-DPDA-ST667-1
                                  1225  "
                                  1226  " STATE 670
                        001236    1227  	equ	ST670,*-DPDA
    001236  aa   000002 000152    1228  	zero	STRDS,ST106
                                  1229
                                  1230  "
                                  1231  " STATE 671
                        001237    1232  	equ	ST671,*-DPDA
    001237  aa   000002 001133    1233  	zero	STRDS,ST603
                                  1234
                                  1235  "
                                  1236  " STATE 672
                        001240    1237  	equ	ST672,*-DPDA
    001240  aa   000005 000003    1238  	zero	APLY1,LN672
    001241  aa   000003 000003    1239  	zero	3,3   pd ld
    001242  aa   000016 000001    1240  	zero	14,1   rule/alt
    001243  aa   000016 000055    1241  	zero	14,ST45 prod/val
                        000003    1242  	equ	LN672,*-DPDA-ST672-1
                                  1243  "
                                  1244  " STATE 676
                        001244    1245  	equ	ST676,*-DPDA
    001244  aa   000002 000152    1246  	zero	STRDS,ST106
                                  1247
                                  1248  "
                                  1249  " STATE 677
                        001245    1250  	equ	ST677,*-DPDA
    001245  aa   000002 001046    1251  	zero	STRDS,ST550
                                  1252
                                  1253  "
                                  1254  " STATE 678
                        001246    1255  	equ	ST678,*-DPDA
    001246  aa   000005 000003    1256  	zero	APLY1,LN678
    001247  aa   000003 000003    1257  	zero	3,3   pd ld
    001250  aa   000011 000001    1258  	zero	9,1   rule/alt
    001251  aa   000011 000061    1259  	zero	9,ST49 prod/val
                        000003    1260  	equ	LN678,*-DPDA-ST678-1
                                  1261  "
                                  1262  " STATE 682
                        001252    1263  	equ	ST682,*-DPDA
    001252  aa   000002 000152    1264  	zero	STRDS,ST106
                                  1265
                                  1266  "
                                  1267  " STATE 683
                        001253    1268  	equ	ST683,*-DPDA
    001253  aa   000004 000005    1269  	zero	APLY,LN683
    001254  aa   000002 000002    1270  	zero	2,2   pd ld
    001255  aa   000010 000001    1271  	zero	8,1   rule/alt
    001256  aa   000010 000475    1272  	zero	8,ST317 prod/val
    001257  aa   001170 001261    1273  	zero	ST632,ST689
    001260  aa   001265 001360    1274  	zero	ST693,ST752
                        000005    1275  	equ	LN683,*-DPDA-ST683-1
                                  1276  "
                                  1277  " STATE 689
                        001261    1278  	equ	ST689,*-DPDA
    001261  aa   000005 000003    1279  	zero	APLY1,LN689
    001262  aa   000000 000000    1280  	zero	0,0   pd ld
    001263  aa   000007 000002    1281  	zero	7,2   rule/alt
    001264  aa   000007 001265    1282  	zero	7,ST693 prod/val
                        000003    1283  	equ	LN689,*-DPDA-ST689-1
                                  1284  "
                                  1285  " STATE 693
                        001265    1286  	equ	ST693,*-DPDA
    001265  aa   000000 000032    1287  	zero	STRD,LN693
    001266  aa   000001 000506    1288  	zero	1,ST326	"<identifier>
    001267  aa   000006 001364    1289  	zero	6,ST756	")
    001270  aa   000010 000106    1290  	zero	8,ST70	"relation
    001271  aa   000011 000115    1291  	zero	9,ST77	"attribute
    001272  aa   000012 000224    1292  	zero	10,ST148	"access
    001273  aa   000013 000125    1293  	zero	11,ST85	"rel_acc
    001274  aa   000014 000134    1294  	zero	12,ST92	"attr_acc
    001275  aa   000015 000144    1295  	zero	13,ST100	"default
    001276  aa   000016 000512    1296  	zero	14,ST330	"in
    001277  aa   000017 000517    1297  	zero	15,ST335	"with
    001300  aa   000020 000524    1298  	zero	16,ST340	"delete
    001301  aa   000021 000534    1299  	zero	17,ST348	"append
    001302  aa   000022 000544    1300  	zero	18,ST356	"tuple
    001303  aa   000023 000552    1301  	zero	19,ST362	"attr
    001304  aa   000024 000560    1302  	zero	20,ST368	"d
    001305  aa   000025 000570    1303  	zero	21,ST376	"a
    001306  aa   000026 000600    1304  	zero	22,ST384	"delete_tuple
    001307  aa   000027 000610    1305  	zero	23,ST392	"append_tuple
    001310  aa   000030 000620    1306  	zero	24,ST400	"read
    001311  aa   000031 000632    1307  	zero	25,ST410	"read_attr
    001312  aa   000032 000644    1308  	zero	26,ST420	"modify
    001313  aa   000033 000656    1309  	zero	27,ST430	"modify_attr
    001314  aa   000034 000670    1310  	zero	28,ST440	"null
    001315  aa   000035 000706    1311  	zero	29,ST454	"n
    001316  aa   000036 000724    1312  	zero	30,ST468	"r
    001317  aa   000037 000736    1313  	zero	31,ST478	"m
                        000032    1314  	equ	LN693,*-DPDA-ST693-1
                                  1315  "
                                  1316  " STATE 720
                        001320    1317  	equ	ST720,*-DPDA
    001320  aa   000005 000003    1318  	zero	APLY1,LN720
    001321  aa   000002 000002    1319  	zero	2,2   pd ld
    001322  aa   000005 000001    1320  	zero	5,1   rule/alt
    001323  aa   000005 000503    1321  	zero	5,ST323 prod/val
                        000003    1322  	equ	LN720,*-DPDA-ST720-1
                                  1323  "
                                  1324  " STATE 724
                        001324    1325  	equ	ST724,*-DPDA
    001324  aa   000006 000003    1326  	zero	APLYS,LN724
    001325  aa   000002 000002    1327  	zero	2,2   pd ld
    001326  aa   000014 000001    1328  	zero	12,1   rule/alt
    001327  aa   000014 001035    1329  	zero	12,ST541 prod/val
                        000003    1330  	equ	LN724,*-DPDA-ST724-1
                                  1331  "
                                  1332  " STATE 728
                        001330    1333  	equ	ST728,*-DPDA
    001330  aa   000000 000001    1334  	zero	STRD,LN728
    001331  aa   000002 001371    1335  	zero	2,ST761	".
                        000001    1336  	equ	LN728,*-DPDA-ST728-1
                                  1337  "
                                  1338  " STATE 730
                        001332    1339  	equ	ST730,*-DPDA
    001332  aa   000006 000003    1340  	zero	APLYS,LN730
    001333  aa   000002 000002    1341  	zero	2,2   pd ld
    001334  aa   000021 000001    1342  	zero	17,1   rule/alt
    001335  aa   000021 001120    1343  	zero	17,ST592 prod/val
                        000003    1344  	equ	LN730,*-DPDA-ST730-1
                                  1345  "
                                  1346  " STATE 734
                        001336    1347  	equ	ST734,*-DPDA
    001336  aa   000000 000001    1348  	zero	STRD,LN734
    001337  aa   000002 001375    1349  	zero	2,ST765	".
                        000001    1350  	equ	LN734,*-DPDA-ST734-1
                                  1351  "
                                  1352  " STATE 736
                        001340    1353  	equ	ST736,*-DPDA
    001340  aa   000000 000001    1354  	zero	STRD,LN736
    001341  aa   000005 001401    1355  	zero	5,ST769	"(
                        000001    1356  	equ	LN736,*-DPDA-ST736-1
                                  1357  "
                                  1358  " STATE 738
                        001342    1359  	equ	ST738,*-DPDA
    001342  aa   000000 000002    1360  	zero	STRD,LN738
    001343  aa   000004 001232    1361  	zero	4,ST666	",
    001344  aa   000006 001402    1362  	zero	6,ST770	")
                        000002    1363  	equ	LN738,*-DPDA-ST738-1
                                  1364  "
                                  1365  " STATE 741
                        001345    1366  	equ	ST741,*-DPDA
    001345  aa   000005 000003    1367  	zero	APLY1,LN741
    001346  aa   000002 000002    1368  	zero	2,2   pd ld
    001347  aa   000017 000001    1369  	zero	15,1   rule/alt
    001350  aa   000017 001153    1370  	zero	15,ST619 prod/val
                        000003    1371  	equ	LN741,*-DPDA-ST741-1
                                  1372  "
                                  1373  " STATE 745
                        001351    1374  	equ	ST745,*-DPDA
    001351  aa   000000 000002    1375  	zero	STRD,LN745
    001352  aa   000004 001212    1376  	zero	4,ST650	",
    001353  aa   000006 001407    1377  	zero	6,ST775	")
                        000002    1378  	equ	LN745,*-DPDA-ST745-1
                                  1379  "
                                  1380  " STATE 748
                        001354    1381  	equ	ST748,*-DPDA
    001354  aa   000005 000003    1382  	zero	APLY1,LN748
    001355  aa   000002 000002    1383  	zero	2,2   pd ld
    001356  aa   000012 000001    1384  	zero	10,1   rule/alt
    001357  aa   000012 001164    1385  	zero	10,ST628 prod/val
                        000003    1386  	equ	LN748,*-DPDA-ST748-1
                                  1387  "
                                  1388  " STATE 752
                        001360    1389  	equ	ST752,*-DPDA
    001360  aa   000005 000003    1390  	zero	APLY1,LN752
    001361  aa   000001 000001    1391  	zero	1,1   pd ld
    001362  aa   000007 000001    1392  	zero	7,1   rule/alt
    001363  aa   000007 001265    1393  	zero	7,ST693 prod/val
                        000003    1394  	equ	LN752,*-DPDA-ST752-1
                                  1395  "
                                  1396  " STATE 756
                        001364    1397  	equ	ST756,*-DPDA
    001364  aa   000004 000004    1398  	zero	APLY,LN756
    001365  aa   000003 000003    1399  	zero	3,3   pd ld
    001366  aa   000006 000001    1400  	zero	6,1   rule/alt
    001367  aa   000006 000477    1401  	zero	6,ST319 prod/val
    001370  aa   001175 001320    1402  	zero	ST637,ST720
                        000004    1403  	equ	LN756,*-DPDA-ST756-1
                                  1404  "
                                  1405  " STATE 761
                        001371    1406  	equ	ST761,*-DPDA
    001371  aa   000005 000003    1407  	zero	APLY1,LN761
    001372  aa   000005 000005    1408  	zero	5,5   pd ld
    001373  aa   000024 000002    1409  	zero	20,2   rule/alt
    001374  aa   000024 000044    1410  	zero	20,ST36 prod/val
                        000003    1411  	equ	LN761,*-DPDA-ST761-1
                                  1412  "
                                  1413  " STATE 765
                        001375    1414  	equ	ST765,*-DPDA
    001375  aa   000005 000003    1415  	zero	APLY1,LN765
    001376  aa   000005 000005    1416  	zero	5,5   pd ld
    001377  aa   000023 000002    1417  	zero	19,2   rule/alt
    001400  aa   000023 000051    1418  	zero	19,ST41 prod/val
                        000003    1419  	equ	LN765,*-DPDA-ST765-1
                                  1420  "
                                  1421  " STATE 769
                        001401    1422  	equ	ST769,*-DPDA
    001401  aa   000002 001133    1423  	zero	STRDS,ST603
                                  1424
                                  1425  "
                                  1426  " STATE 770
                        001402    1427  	equ	ST770,*-DPDA
    001402  aa   000004 000004    1428  	zero	APLY,LN770
    001403  aa   000003 000003    1429  	zero	3,3   pd ld
    001404  aa   000020 000001    1430  	zero	16,1   rule/alt
    001405  aa   000020 001147    1431  	zero	16,ST615 prod/val
    001406  aa   001244 001345    1432  	zero	ST676,ST741
                        000004    1433  	equ	LN770,*-DPDA-ST770-1
                                  1434  "
                                  1435  " STATE 775
                        001407    1436  	equ	ST775,*-DPDA
    001407  aa   000011 000003    1437  	zero	NSRD,LN775
    001410  aa   000002 776315    1438  	zero	2,-ST819	".
    001411  aa   000004 776315    1439  	zero	4,-ST819	",
    001412  aa   000017 776317    1440  	zero	15,-ST817	"with
                        000003    1441  	equ	LN775,*-DPDA-ST775-1
                                  1442  "
                                  1443  " STATE 779
                        001413    1444  	equ	ST779,*-DPDA
    001413  aa   000000 000002    1445  	zero	STRD,LN779
    001414  aa   000004 001232    1446  	zero	4,ST666	",
    001415  aa   000006 001421    1447  	zero	6,ST785	")
                        000002    1448  	equ	LN779,*-DPDA-ST779-1
                                  1449  "
                                  1450  " STATE 782
                        001416    1451  	equ	ST782,*-DPDA
    001416  aa   000000 000002    1452  	zero	STRD,LN782
    001417  aa   000011 000115    1453  	zero	9,ST77	"attribute
    001420  aa   000014 000134    1454  	zero	12,ST92	"attr_acc
                        000002    1455  	equ	LN782,*-DPDA-ST782-1
                                  1456  "
                                  1457  " STATE 785
                        001421    1458  	equ	ST785,*-DPDA
    001421  aa   000006 000003    1459  	zero	APLYS,LN785
    001422  aa   000005 000005    1460  	zero	5,5   pd ld
    001423  aa   000020 000002    1461  	zero	16,2   rule/alt
    001424  aa   000020 001402    1462  	zero	16,ST770 prod/val
                        000003    1463  	equ	LN785,*-DPDA-ST785-1
                                  1464  "
                                  1465  " STATE 789
                        001425    1466  	equ	ST789,*-DPDA
    001425  aa   000000 000001    1467  	zero	STRD,LN789
    001426  aa   000005 001427    1468  	zero	5,ST791	"(
                        000001    1469  	equ	LN789,*-DPDA-ST789-1
                                  1470  "
                                  1471  " STATE 791
                        001427    1472  	equ	ST791,*-DPDA
    001427  aa   000002 001133    1473  	zero	STRDS,ST603
                                  1474
                                  1475  "
                                  1476  " STATE 792
                        001430    1477  	equ	ST792,*-DPDA
    001430  aa   000000 000002    1478  	zero	STRD,LN792
    001431  aa   000004 001232    1479  	zero	4,ST666	",
    001432  aa   000006 001433    1480  	zero	6,ST795	")
                        000002    1481  	equ	LN792,*-DPDA-ST792-1
                                  1482  "
                                  1483  " STATE 795
                        001433    1484  	equ	ST795,*-DPDA
    001433  aa   000004 000004    1485  	zero	APLY,LN795
    001434  aa   000010 000010    1486  	zero	8,8   pd ld
    001435  aa   000013 000002    1487  	zero	11,2   rule/alt
    001436  aa   000013 001160    1488  	zero	11,ST624 prod/val
    001437  aa   001252 001354    1489  	zero	ST682,ST748
                        000004    1490  	equ	LN795,*-DPDA-ST795-1
                                  1491  "
                                  1492  " STATE 800
                        001440    1493  	equ	ST800,*-DPDA
    001440  aa   000000 000001    1494  	zero	STRD,LN800
    001441  aa   000012 000224    1495  	zero	10,ST148	"access
                        000001    1496  	equ	LN800,*-DPDA-ST800-1
                                  1497  "
                                  1498  " STATE 802
                        001442    1499  	equ	ST802,*-DPDA
    001442  aa   000005 000003    1500  	zero	APLY1,LN802
    001443  aa   000000 000000    1501  	zero	0,0   pd ld
    001444  aa   000045 000001    1502  	zero	37,1   rule/alt
    001445  aa   000045 000007    1503  	zero	37,ST7 prod/val
                        000003    1504  	equ	LN802,*-DPDA-ST802-1
                                  1505  "
                                  1506  " STATE 806
                        001446    1507  	equ	ST806,*-DPDA
    001446  aa   000002 000001    1508  	zero	STRDS,ST1
                                  1509
                                  1510  "
                                  1511  " STATE 807
                        001447    1512  	equ	ST807,*-DPDA
    001447  aa   000005 000003    1513  	zero	APLY1,LN807
    001450  aa   000000 000000    1514  	zero	0,0   pd ld
    001451  aa   000001 000001    1515  	zero	1,1   rule/alt
    001452  aa   000001 000104    1516  	zero	1,ST68 prod/val
                        000003    1517  	equ	LN807,*-DPDA-ST807-1
                                  1518  "
                                  1519  " STATE 811
                        001453    1520  	equ	ST811,*-DPDA
    001453  aa   000000 000001    1521  	zero	STRD,LN811
    001454  aa   000007 001167    1522  	zero	7,ST631	"=
                        000001    1523  	equ	LN811,*-DPDA-ST811-1
                                  1524  "
                                  1525  " STATE 813
                        001455    1526  	equ	ST813,*-DPDA
    001455  aa   000006 000003    1527  	zero	APLYS,LN813
    001456  aa   000000 000000    1528  	zero	0,0   pd ld
    001457  aa   000010 000002    1529  	zero	8,2   rule/alt
    001460  aa   000010 001253    1530  	zero	8,ST683 prod/val
                        000003    1531  	equ	LN813,*-DPDA-ST813-1
                                  1532  "
                                  1533  " STATE 817
                        001461    1534  	equ	ST817,*-DPDA
    001461  aa   000000 000001    1535  	zero	STRD,LN817
    001462  aa   000017 000517    1536  	zero	15,ST335	"with
                        000001    1537  	equ	LN817,*-DPDA-ST817-1
                                  1538  "
                                  1539  " STATE 819
                        001463    1540  	equ	ST819,*-DPDA
    001463  aa   000006 000003    1541  	zero	APLYS,LN819
    001464  aa   000003 000003    1542  	zero	3,3   pd ld
    001465  aa   000013 000001    1543  	zero	11,1   rule/alt
    001466  aa   000013 001433    1544  	zero	11,ST795 prod/val
                        000003    1545  	equ	LN819,*-DPDA-ST819-1
                        001467    1546  	equ	DPDAs,*-DPDA
                                  1547
                                  1548
    001467  aa   000001 000002    1549  	zero	1,2	"SKIP/ADJ
                                  1550
    001470  aa   000007 000001    1551  	zero	7,1	"SKIP/ADJ
                                  1552
    001471  aa   000002 000000    1553  	zero	2,0	"SKIP/ADJ
                                  1554  	end

NO LITERALS

NAME DEFINITIONS FOR ENTRY POINTS AND SEGDEFS

    001472  5a   000003 000000
    001473  5a   000030 600000
    001474  aa   000000 000000
    001475  55   000014 000002
    001476  5a   000002 400003
    001477  55   000006 000014
    001500  aa  024 155 162 144
    001501  aa  163 137 144 163
    001502  aa  155 137 160 141
    001503  aa  162 163 145 137
    001504  aa  164 141 142 154
    001505  aa  145 000 000 000
    001506  55   000021 000003
    001507  0a   000000 400000
    001510  55   000017 000003
    001511  aa  004 104 120 104         DPDA
    001512  aa  101 000 000 000
    001513  55   000002 000014
    001514  6a   000000 400002
    001515  55   000024 000003
    001516  aa  014 163 171 155         symbol_table
    001517  aa  142 157 154 137
    001520  aa  164 141 142 154
    001521  aa  145 000 000 000

DEFINITIONS HASH TABLE

    001522  aa   000000 000015
    001523  aa   000000 000000
    001524  aa   000000 000000
    001525  aa   000000 000000
    001526  5a   000014 000000
    001527  aa   000000 000000
    001530  aa   000000 000000
    001531  5a   000021 000000
    001532  aa   000000 000000
    001533  aa   000000 000000
    001534  aa   000000 000000
    001535  aa   000000 000000
    001536  aa   000000 000000
    001537  aa   000000 000000

NO EXTERNAL NAMES

NO TRAP POINTER WORDS

TYPE PAIR BLOCKS

    001540  aa   000001 000000
    001541  aa   000000 000000

INTERNAL EXPRESSION WORDS

LINKAGE INFORMATION

    000000  aa   000000 000000
    000001  0a   001472 000000
    000002  aa   000000 000000
    000003  aa   000000 000000
    000004  aa   000000 000000
    000005  aa   000000 000000
    000006  22   000010 000010
    000007  a2   000000 000000
SYMBOL INFORMATION

SYMBOL TABLE HEADER

    000000  aa   000000 000001
    000001  aa   163171 155142
    000002  aa   164162 145145
    000003  aa   000000 000004
    000004  aa   000000 112143
    000005  aa   305203 523135
    000006  aa   000000 113466
    000007  aa   145401 245310
    000010  aa   141154 155040
    000011  aa   040040 040040
    000012  aa   000024 000040
    000013  aa   000034 000040
    000014  aa   000044 000100
    000015  aa   000002 000002
    000016  aa   000064 000000
    000017  aa   000000 000204
    000020  aa   000000 000112
    000021  aa   000000 000172
    000022  aa   000175 000112
    000023  aa   000064 000000
    000024  aa   101114 115040
    000025  aa   126145 162163
    000026  aa   151157 156040
    000027  aa   040066 056066
    000030  aa   040040 116157
    000031  aa   166145 155142
    000032  aa   145162 040061
    000033  aa   071070 062040
    000034  aa   107112 157150
    000035  aa   156163 157156
    000036  aa   056123 171163
    000037  aa   115141 151156
    000040  aa   164056 155040
    000041  aa   040040 040040
    000042  aa   040040 040040
    000043  aa   040040 040040
    000044  aa   154151 163164
    000045  aa   040040 040040
    000046  aa   040040 040040
    000047  aa   040040 040040
    000050  aa   040040 040040
    000051  aa   040040 040040
    000052  aa   040040 040040
    000053  aa   040040 040040
    000054  aa   040040 040040
    000055  aa   040040 040040
    000056  aa   040040 040040
    000057  aa   040040 040040
    000060  aa   040040 040040
    000061  aa   040040 040040
    000062  aa   040040 040040
    000063  aa   040040 040040
    000064  aa   000000 000001
    000065  aa   000000 000001
    000066  aa   000072 000076
    000067  aa   134642 013004
    000070  aa   000000 113466
    000071  aa   114433 200000
    000072  aa   076163 160145          >special_ldd>online>mrds.pbf-04/18/85>mrds_dsm_parse_table.alm
    000073  aa   143151 141154
    000074  aa   137154 144144
    000075  aa   076157 156154
    000076  aa   151156 145076
    000077  aa   155162 144163
    000100  aa   056160 142146
    000101  aa   055060 064057
    000102  aa   061070 057070
    000103  aa   065076 155162
    000104  aa   144163 137144
    000105  aa   163155 137160
    000106  aa   141162 163145
    000107  aa   137164 141142
    000110  aa   154145 056141
    000111  aa   154155 040040
               MULTICS ASSEMBLY CROSS REFERENCE LISTING

   Value        Symbol                   Source file   Line number

          10    ADJUST                   mrds_dsm_parse_table:      18.
           4    APLY                     mrds_dsm_parse_table:      14,   56,  110,  176,  187,  199,  210,  222,  298,  364,
                                                                   624,  633,  642,  654,  666,  676,  686,  698,  710,  722,
                                                                   734,  748,  762,  776,  790,  808,  826,  840,  870,  934,
                                                                   959, 1033, 1058, 1269, 1398, 1428, 1485.
           5    APLY1                    mrds_dsm_parse_table:      15,   65,  151,  262,  270,  310,  356,  601,  854,  862,
                                                                   890,  898,  906,  914,  989,  997, 1005, 1019, 1097, 1118,
                                                                  1143, 1156, 1164, 1172, 1192, 1200, 1208, 1238, 1256, 1279,
                                                                  1318, 1367, 1382, 1390, 1407, 1415, 1500, 1513.
           6    APLYS                    mrds_dsm_parse_table:      16,  119,  127,  135,  143,  290,  378,  386,  394,  402,
                                                                   410,  418,  426,  434,  442,  450,  458,  466,  474,  482,
                                                                   490,  498,  506,  514,  522,  530,  538,  546,  554,  616,
                                                                   882,  943,  951, 1042, 1050, 1326, 1340, 1459, 1527, 1541.
           0    DPDA                     mrds_dsm_parse_table:      26,   27,   30,   37,   40,   43,   46,   52,   55,   61,
                                                                    64,   69,   72,   75,   78,   82,   85,   88,   91,   94,
                                                                    97,  100,  103,  106,  109,  115,  118,  123,  126,  131,
                                                                   134,  139,  142,  147,  150,  155,  158,  166,  169,  172,
                                                                   175,  183,  186,  195,  198,  206,  209,  218,  221,  228,
                                                                   231,  258,  261,  266,  269,  274,  277,  280,  283,  286,
                                                                   289,  294,  297,  306,  309,  314,  317,  328,  331,  342,
                                                                   345,  350,  355,  360,  363,  374,  377,  382,  385,  390,
                                                                   393,  398,  401,  406,  409,  414,  417,  422,  425,  430,
                                                                   433,  438,  441,  446,  449,  454,  457,  462,  465,  470,
                                                                   473,  478,  481,  486,  489,  494,  497,  502,  505,  510,
                                                                   513,  518,  521,  526,  529,  534,  537,  542,  545,  550,
                                                                   553,  558,  561,  591,  594,  597,  600,  605,  608,  612,
                                                                   615,  620,  623,  629,  632,  638,  641,  650,  653,  662,
                                                                   665,  672,  675,  682,  685,  694,  697,  706,  709,  718,
                                                                   721,  730,  733,  744,  747,  758,  761,  772,  775,  786,
                                                                   789,  804,  807,  822,  825,  836,  839,  850,  853,  858,
                                                                   861,  866,  869,  878,  881,  886,  889,  894,  897,  902,
                                                                   905,  910,  913,  918,  921,  924,  927,  930,  933,  939,
                                                                   942,  947,  950,  955,  958,  965,  968,  972,  975,  985,
                                                                   988,  993,  996, 1001, 1004, 1009, 1012, 1015, 1018, 1023,
                                                                  1026, 1029, 1032, 1038, 1041, 1046, 1049, 1054, 1057, 1066,
                                                                  1069, 1073, 1076, 1086, 1089, 1093, 1096, 1101, 1104, 1108,
                                                                  1111, 1114, 1117, 1122, 1125, 1129, 1132, 1137, 1142, 1147,
                                                                  1150, 1155, 1160, 1163, 1168, 1171, 1176, 1179, 1184, 1188,
                                                                  1191, 1196, 1199, 1204, 1207, 1212, 1215, 1220, 1224, 1227,
                                                                  1232, 1237, 1242, 1245, 1250, 1255, 1260, 1263, 1268, 1275,
                                                                  1278, 1283, 1286, 1314, 1317, 1322, 1325, 1330, 1333, 1336,
                                                                  1339, 1344, 1347, 1350, 1353, 1356, 1359, 1363, 1366, 1371,
                                                                  1374, 1378, 1381, 1386, 1389, 1394, 1397, 1403, 1406, 1411,
                                                                  1414, 1419, 1422, 1427, 1433, 1436, 1441, 1444, 1448, 1451,
                                                                  1455, 1458, 1463, 1466, 1469, 1472, 1477, 1481, 1484, 1490,
                                                                  1493, 1496, 1499, 1504, 1507, 1512, 1517, 1520, 1523, 1526,
                                                                  1531, 1534, 1537, 1540, 1545, 1546.
        1467    DPDAs                    mrds_dsm_parse_table:      26, 1546.
           5    LN1                      mrds_dsm_parse_table:      31,   37.
           5    LN100                    mrds_dsm_parse_table:     222,  228.
          31    LN106                    mrds_dsm_parse_table:     232,  258.
           3    LN132                    mrds_dsm_parse_table:     262,  266.
           3    LN136                    mrds_dsm_parse_table:     270,  274.
           4    LN14                     mrds_dsm_parse_table:      56,   61.
           1    LN140                    mrds_dsm_parse_table:     278,  280.
           1    LN142                    mrds_dsm_parse_table:     284,  286.
           3    LN144                    mrds_dsm_parse_table:     290,  294.
           7    LN148                    mrds_dsm_parse_table:     298,  306.
           3    LN156                    mrds_dsm_parse_table:     310,  314.
          11    LN160                    mrds_dsm_parse_table:     318,  328.
          11    LN170                    mrds_dsm_parse_table:     332,  342.
           3    LN182                    mrds_dsm_parse_table:     356,  360.
          11    LN186                    mrds_dsm_parse_table:     364,  374.
           3    LN19                     mrds_dsm_parse_table:      65,   69.
           3    LN196                    mrds_dsm_parse_table:     378,  382.
           3    LN200                    mrds_dsm_parse_table:     386,  390.
           3    LN204                    mrds_dsm_parse_table:     394,  398.
           3    LN208                    mrds_dsm_parse_table:     402,  406.
           3    LN212                    mrds_dsm_parse_table:     410,  414.
           3    LN216                    mrds_dsm_parse_table:     418,  422.
           3    LN220                    mrds_dsm_parse_table:     426,  430.
           3    LN224                    mrds_dsm_parse_table:     434,  438.
           3    LN228                    mrds_dsm_parse_table:     442,  446.
           1    LN23                     mrds_dsm_parse_table:      73,   75.
           3    LN232                    mrds_dsm_parse_table:     450,  454.
           3    LN236                    mrds_dsm_parse_table:     458,  462.
           3    LN240                    mrds_dsm_parse_table:     466,  470.
           3    LN244                    mrds_dsm_parse_table:     474,  478.
           3    LN248                    mrds_dsm_parse_table:     482,  486.
           2    LN25                     mrds_dsm_parse_table:      79,   82.
           3    LN252                    mrds_dsm_parse_table:     490,  494.
           3    LN256                    mrds_dsm_parse_table:     498,  502.
           3    LN260                    mrds_dsm_parse_table:     506,  510.
           3    LN264                    mrds_dsm_parse_table:     514,  518.
           3    LN268                    mrds_dsm_parse_table:     522,  526.
           3    LN272                    mrds_dsm_parse_table:     530,  534.
           3    LN276                    mrds_dsm_parse_table:     538,  542.
           1    LN28                     mrds_dsm_parse_table:      86,   88.
           3    LN280                    mrds_dsm_parse_table:     546,  550.
           3    LN284                    mrds_dsm_parse_table:     554,  558.
          34    LN288                    mrds_dsm_parse_table:     562,  591.
           1    LN30                     mrds_dsm_parse_table:      92,   94.
           1    LN317                    mrds_dsm_parse_table:     595,  597.
           3    LN319                    mrds_dsm_parse_table:     601,  605.
           1    LN32                     mrds_dsm_parse_table:      98,  100.
           2    LN323                    mrds_dsm_parse_table:     609,  612.
           3    LN326                    mrds_dsm_parse_table:     616,  620.
           4    LN330                    mrds_dsm_parse_table:     624,  629.
           4    LN335                    mrds_dsm_parse_table:     633,  638.
           1    LN34                     mrds_dsm_parse_table:     104,  106.
           7    LN340                    mrds_dsm_parse_table:     642,  650.
           7    LN348                    mrds_dsm_parse_table:     654,  662.
           5    LN356                    mrds_dsm_parse_table:     666,  672.
           4    LN36                     mrds_dsm_parse_table:     110,  115.
           5    LN362                    mrds_dsm_parse_table:     676,  682.
           7    LN368                    mrds_dsm_parse_table:     686,  694.
           7    LN376                    mrds_dsm_parse_table:     698,  706.
           7    LN384                    mrds_dsm_parse_table:     710,  718.
           7    LN392                    mrds_dsm_parse_table:     722,  730.
          11    LN400                    mrds_dsm_parse_table:     734,  744.
           3    LN41                     mrds_dsm_parse_table:     119,  123.
          11    LN410                    mrds_dsm_parse_table:     748,  758.
          11    LN420                    mrds_dsm_parse_table:     762,  772.
          11    LN430                    mrds_dsm_parse_table:     776,  786.
          15    LN440                    mrds_dsm_parse_table:     790,  804.
           3    LN45                     mrds_dsm_parse_table:     127,  131.
          15    LN454                    mrds_dsm_parse_table:     808,  822.
          11    LN468                    mrds_dsm_parse_table:     826,  836.
          11    LN478                    mrds_dsm_parse_table:     840,  850.
           3    LN488                    mrds_dsm_parse_table:     854,  858.
           3    LN49                     mrds_dsm_parse_table:     135,  139.
           3    LN492                    mrds_dsm_parse_table:     862,  866.
           7    LN496                    mrds_dsm_parse_table:     870,  878.
           3    LN504                    mrds_dsm_parse_table:     882,  886.
           3    LN508                    mrds_dsm_parse_table:     890,  894.
           3    LN512                    mrds_dsm_parse_table:     898,  902.
           3    LN516                    mrds_dsm_parse_table:     906,  910.
           3    LN520                    mrds_dsm_parse_table:     914,  918.
           1    LN524                    mrds_dsm_parse_table:     922,  924.
           1    LN526                    mrds_dsm_parse_table:     928,  930.
           4    LN528                    mrds_dsm_parse_table:     934,  939.
           3    LN53                     mrds_dsm_parse_table:     143,  147.
           3    LN533                    mrds_dsm_parse_table:     943,  947.
           3    LN537                    mrds_dsm_parse_table:     951,  955.
           5    LN541                    mrds_dsm_parse_table:     959,  965.
           2    LN547                    mrds_dsm_parse_table:     969,  972.
          10    LN550                    mrds_dsm_parse_table:     976,  985.
           3    LN559                    mrds_dsm_parse_table:     989,  993.
           3    LN563                    mrds_dsm_parse_table:     997, 1001.
           3    LN567                    mrds_dsm_parse_table:    1005, 1009.
           3    LN57                     mrds_dsm_parse_table:     151,  155.
           1    LN571                    mrds_dsm_parse_table:    1013, 1015.
           3    LN573                    mrds_dsm_parse_table:    1019, 1023.
           1    LN577                    mrds_dsm_parse_table:    1027, 1029.
           4    LN579                    mrds_dsm_parse_table:    1033, 1038.
           3    LN584                    mrds_dsm_parse_table:    1042, 1046.
           3    LN588                    mrds_dsm_parse_table:    1050, 1054.
           7    LN592                    mrds_dsm_parse_table:    1058, 1066.
           2    LN600                    mrds_dsm_parse_table:    1070, 1073.
          10    LN603                    mrds_dsm_parse_table:    1077, 1086.
           6    LN61                     mrds_dsm_parse_table:     159,  166.
           2    LN612                    mrds_dsm_parse_table:    1090, 1093.
           3    LN615                    mrds_dsm_parse_table:    1097, 1101.
           2    LN619                    mrds_dsm_parse_table:    1105, 1108.
           1    LN622                    mrds_dsm_parse_table:    1112, 1114.
           3    LN624                    mrds_dsm_parse_table:    1118, 1122.
           2    LN628                    mrds_dsm_parse_table:    1126, 1129.
           3    LN633                    mrds_dsm_parse_table:    1143, 1147.
           3    LN638                    mrds_dsm_parse_table:    1156, 1160.
           3    LN642                    mrds_dsm_parse_table:    1164, 1168.
           3    LN646                    mrds_dsm_parse_table:    1172, 1176.
           2    LN651                    mrds_dsm_parse_table:    1185, 1188.
           3    LN654                    mrds_dsm_parse_table:    1192, 1196.
           3    LN658                    mrds_dsm_parse_table:    1200, 1204.
           3    LN662                    mrds_dsm_parse_table:    1208, 1212.
           2    LN667                    mrds_dsm_parse_table:    1221, 1224.
           3    LN672                    mrds_dsm_parse_table:    1238, 1242.
           3    LN678                    mrds_dsm_parse_table:    1256, 1260.
           1    LN68                     mrds_dsm_parse_table:     170,  172.
           5    LN683                    mrds_dsm_parse_table:    1269, 1275.
           3    LN689                    mrds_dsm_parse_table:    1279, 1283.
          32    LN693                    mrds_dsm_parse_table:    1287, 1314.
           1    LN7                      mrds_dsm_parse_table:      41,   43.
           6    LN70                     mrds_dsm_parse_table:     176,  183.
           3    LN720                    mrds_dsm_parse_table:    1318, 1322.
           3    LN724                    mrds_dsm_parse_table:    1326, 1330.
           1    LN728                    mrds_dsm_parse_table:    1334, 1336.
           3    LN730                    mrds_dsm_parse_table:    1340, 1344.
           1    LN734                    mrds_dsm_parse_table:    1348, 1350.
           1    LN736                    mrds_dsm_parse_table:    1354, 1356.
           2    LN738                    mrds_dsm_parse_table:    1360, 1363.
           3    LN741                    mrds_dsm_parse_table:    1367, 1371.
           2    LN745                    mrds_dsm_parse_table:    1375, 1378.
           3    LN748                    mrds_dsm_parse_table:    1382, 1386.
           3    LN752                    mrds_dsm_parse_table:    1390, 1394.
           4    LN756                    mrds_dsm_parse_table:    1398, 1403.
           3    LN761                    mrds_dsm_parse_table:    1407, 1411.
           3    LN765                    mrds_dsm_parse_table:    1415, 1419.
           7    LN77                     mrds_dsm_parse_table:     187,  195.
           4    LN770                    mrds_dsm_parse_table:    1428, 1433.
           3    LN775                    mrds_dsm_parse_table:    1437, 1441.
           2    LN779                    mrds_dsm_parse_table:    1445, 1448.
           2    LN782                    mrds_dsm_parse_table:    1452, 1455.
           3    LN785                    mrds_dsm_parse_table:    1459, 1463.
           1    LN789                    mrds_dsm_parse_table:    1467, 1469.
           2    LN792                    mrds_dsm_parse_table:    1478, 1481.
           4    LN795                    mrds_dsm_parse_table:    1485, 1490.
           1    LN800                    mrds_dsm_parse_table:    1494, 1496.
           3    LN802                    mrds_dsm_parse_table:    1500, 1504.
           3    LN807                    mrds_dsm_parse_table:    1513, 1517.
           1    LN811                    mrds_dsm_parse_table:    1521, 1523.
           3    LN813                    mrds_dsm_parse_table:    1527, 1531.
           1    LN817                    mrds_dsm_parse_table:    1535, 1537.
           3    LN819                    mrds_dsm_parse_table:    1541, 1545.
           6    LN85                     mrds_dsm_parse_table:     199,  206.
           4    LN9                      mrds_dsm_parse_table:      47,   52.
           7    LN92                     mrds_dsm_parse_table:     210,  218.
           1    LOOK                     mrds_dsm_parse_table:      11.
           3    LOOKS                    mrds_dsm_parse_table:      13.
          11    NSRD                     mrds_dsm_parse_table:      19,   79,  159,  562, 1437.
          12    NSRDS                    mrds_dsm_parse_table:      20.
           7    SKIP                     mrds_dsm_parse_table:      17.
           0    ST0                      mrds_dsm_parse_table:      22,  171.
           1    ST1                      mrds_dsm_parse_table:      30,   37,  180,  191,  203,  214,  226, 1508.
         144    ST100                    mrds_dsm_parse_table:      36,  221,  228,  239, 1295.
         152    ST106                    mrds_dsm_parse_table:      42,  231,  258,  346,  351, 1133, 1138, 1151, 1228, 1246, 1264.
         204    ST132                    mrds_dsm_parse_table:     215,  261,  266.
         210    ST136                    mrds_dsm_parse_table:     204,  269,  274.
          16    ST14                     mrds_dsm_parse_table:      55,   61,  214,  216,  217,  293.
         214    ST140                    mrds_dsm_parse_table:     192,  277,  280,  303.
         216    ST142                    mrds_dsm_parse_table:     181,  283,  286,  304.
         220    ST144                    mrds_dsm_parse_table:     289,  294,  302.
         224    ST148                    mrds_dsm_parse_table:      74,  236,  279,  285,  297,  306, 1292, 1495.
         234    ST156                    mrds_dsm_parse_table:     305,  309,  314.
         240    ST160                    mrds_dsm_parse_table:      87,  317,  328,  646,  658,  690,  702,  714,  726,  794,
                                                                   812,  874.
         252    ST170                    mrds_dsm_parse_table:      93,  331,  342,  738,  752,  766,  780,  795,  813,  830,  844.
         264    ST180                    mrds_dsm_parse_table:      99,  345,  368.
         265    ST181                    mrds_dsm_parse_table:     105,  350,  369.
         266    ST182                    mrds_dsm_parse_table:     114,  355,  360.
         272    ST186                    mrds_dsm_parse_table:     363,  374,  381,  389,  397,  405,  413,  421,  429,  437,
                                                                   445,  453,  461,  469,  477,  485,  493,  501,  509,  517,
                                                                   525,  533,  541,  549,  557,  619,  843.
          23    ST19                     mrds_dsm_parse_table:      64,   69,  203,  205.
         304    ST196                    mrds_dsm_parse_table:     377,  382,  829.
         310    ST200                    mrds_dsm_parse_table:     385,  390,  811.
         314    ST204                    mrds_dsm_parse_table:     393,  398,  793.
         320    ST208                    mrds_dsm_parse_table:     401,  406,  779.
         324    ST212                    mrds_dsm_parse_table:     409,  414,  765.
         330    ST216                    mrds_dsm_parse_table:     417,  422,  751.
         334    ST220                    mrds_dsm_parse_table:     425,  430,  737.
         340    ST224                    mrds_dsm_parse_table:     433,  438,  725.
         344    ST228                    mrds_dsm_parse_table:     441,  446,  713.
          27    ST23                     mrds_dsm_parse_table:      72,   75,  191,  193,  194,  302.
         350    ST232                    mrds_dsm_parse_table:     449,  454,  701.
         354    ST236                    mrds_dsm_parse_table:     457,  462,  689.
         360    ST240                    mrds_dsm_parse_table:     465,  470,  679.
         364    ST244                    mrds_dsm_parse_table:     473,  478,  669.
         370    ST248                    mrds_dsm_parse_table:     481,  486,  657.
          31    ST25                     mrds_dsm_parse_table:      78,   82,  180,  182.
         374    ST252                    mrds_dsm_parse_table:     489,  494,  645.
         400    ST256                    mrds_dsm_parse_table:     497,  502,  636.
         404    ST260                    mrds_dsm_parse_table:     505,  510,  627.
         410    ST264                    mrds_dsm_parse_table:     225,  513,  518.
         414    ST268                    mrds_dsm_parse_table:     213,  521,  526.
         420    ST272                    mrds_dsm_parse_table:     202,  529,  534.
         424    ST276                    mrds_dsm_parse_table:     301,  537,  542.
          34    ST28                     mrds_dsm_parse_table:      85,   88,  273,  865.
         430    ST280                    mrds_dsm_parse_table:     190,  545,  550.
         434    ST284                    mrds_dsm_parse_table:     179,  553,  558.
         440    ST288                    mrds_dsm_parse_table:     367,  561,  591.
          36    ST30                     mrds_dsm_parse_table:      91,   94,  265,  857.
         475    ST317                    mrds_dsm_parse_table:     594,  597, 1272.
         477    ST319                    mrds_dsm_parse_table:     600,  605, 1401.
          40    ST32                     mrds_dsm_parse_table:      59,   97,  100.
         503    ST323                    mrds_dsm_parse_table:     604,  608,  612, 1321.
         506    ST326                    mrds_dsm_parse_table:     233,  615,  620, 1288.
         512    ST330                    mrds_dsm_parse_table:     240,  623,  629, 1092, 1296.
         517    ST335                    mrds_dsm_parse_table:     241,  632,  638, 1297, 1536.
          42    ST34                     mrds_dsm_parse_table:      68,  103,  106,  313.
         524    ST340                    mrds_dsm_parse_table:     242,  320,  641,  650,  977, 1298.
         534    ST348                    mrds_dsm_parse_table:     243,  321,  653,  662,  978, 1299.
         544    ST356                    mrds_dsm_parse_table:     244,  665,  672,  923,  929, 1300.
          44    ST36                     mrds_dsm_parse_table:     109,  115,  122,  130,  138,  146, 1175, 1410.
         552    ST362                    mrds_dsm_parse_table:     245,  675,  682, 1014, 1028, 1301.
         560    ST368                    mrds_dsm_parse_table:     246,  322,  685,  694,  979, 1302.
         570    ST376                    mrds_dsm_parse_table:     247,  323,  697,  706,  980, 1303.
         600    ST384                    mrds_dsm_parse_table:     248,  324,  709,  718,  981, 1304.
         610    ST392                    mrds_dsm_parse_table:     249,  325,  721,  730,  982, 1305.
         620    ST400                    mrds_dsm_parse_table:     250,  334,  733,  744, 1078, 1306.
          51    ST41                     mrds_dsm_parse_table:     118,  123, 1211, 1418.
         632    ST410                    mrds_dsm_parse_table:     251,  335,  747,  758, 1079, 1307.
         644    ST420                    mrds_dsm_parse_table:     252,  336,  761,  772, 1080, 1308.
         656    ST430                    mrds_dsm_parse_table:     253,  337,  775,  786, 1081, 1309.
         670    ST440                    mrds_dsm_parse_table:     254,  326,  338,  789,  804,  983, 1082, 1310.
          55    ST45                     mrds_dsm_parse_table:     126,  131, 1241.
         706    ST454                    mrds_dsm_parse_table:     255,  327,  339,  807,  822,  984, 1083, 1311.
         724    ST468                    mrds_dsm_parse_table:     256,  340,  825,  836, 1084, 1312.
         736    ST478                    mrds_dsm_parse_table:     257,  341,  839,  850, 1085, 1313.
         750    ST488                    mrds_dsm_parse_table:     303,  853,  858.
          61    ST49                     mrds_dsm_parse_table:     134,  139, 1259.
         754    ST492                    mrds_dsm_parse_table:     304,  861,  866.
         760    ST496                    mrds_dsm_parse_table:     812,  813,  814,  815,  816,  817,  818,  819,  820,  821,
                                                                   869,  878,  885.
         770    ST504                    mrds_dsm_parse_table:     794,  795,  796,  797,  798,  799,  800,  801,  802,  803,
                                                                   881,  886.
         774    ST508                    mrds_dsm_parse_table:     726,  727,  728,  729,  889,  894.
        1000    ST512                    mrds_dsm_parse_table:     714,  715,  716,  717,  897,  902.
        1004    ST516                    mrds_dsm_parse_table:     702,  703,  704,  705,  905,  910.
        1010    ST520                    mrds_dsm_parse_table:     690,  691,  692,  693,  913,  918.
        1014    ST524                    mrds_dsm_parse_table:     658,  659,  660,  661,  670,  921,  924.
        1016    ST526                    mrds_dsm_parse_table:     646,  647,  648,  649,  671,  927,  930.
        1020    ST528                    mrds_dsm_parse_table:     874,  875,  876,  877,  933,  939,  946,  954.
          65    ST53                     mrds_dsm_parse_table:     142,  147, 1146.
        1025    ST533                    mrds_dsm_parse_table:     893,  909,  942,  947, 1159.
        1031    ST537                    mrds_dsm_parse_table:     901,  917,  950,  955, 1167.
        1035    ST541                    mrds_dsm_parse_table:     937,  958,  965, 1329.
        1043    ST547                    mrds_dsm_parse_table:     962,  968,  972.
        1046    ST550                    mrds_dsm_parse_table:     319,  647,  659,  691,  703,  715,  727,  796,  814,  875,
                                                                   963,  975,  985, 1180, 1251.
        1057    ST559                    mrds_dsm_parse_table:     844,  845,  846,  847,  848,  849,  988,  993.
        1063    ST563                    mrds_dsm_parse_table:     830,  831,  832,  833,  834,  835,  996, 1001.
        1067    ST567                    mrds_dsm_parse_table:     780,  781,  782,  783,  784,  785, 1004, 1009.
          71    ST57                     mrds_dsm_parse_table:     113,  150,  155.
        1073    ST571                    mrds_dsm_parse_table:     680,  766,  767,  768,  769,  770,  771, 1012, 1015.
        1075    ST573                    mrds_dsm_parse_table:     752,  753,  754,  755,  756,  757, 1018, 1023.
        1101    ST577                    mrds_dsm_parse_table:     681,  738,  739,  740,  741,  742,  743, 1026, 1029.
        1103    ST579                    mrds_dsm_parse_table:     873, 1032, 1038, 1045, 1053.
        1110    ST584                    mrds_dsm_parse_table:     992, 1008, 1041, 1046, 1195.
        1114    ST588                    mrds_dsm_parse_table:    1000, 1022, 1049, 1054, 1203.
        1120    ST592                    mrds_dsm_parse_table:    1036, 1057, 1066, 1343.
        1130    ST600                    mrds_dsm_parse_table:    1061, 1069, 1073.
        1133    ST603                    mrds_dsm_parse_table:     333,  739,  753,  767,  781,  797,  815,  831,  845, 1062,
                                                                  1076, 1086, 1216, 1233, 1423, 1473.
          75    ST61                     mrds_dsm_parse_table:     154,  158,  166,  359.
        1144    ST612                    mrds_dsm_parse_table:     368,  372,  628, 1089, 1093.
        1147    ST615                    mrds_dsm_parse_table:    1096, 1101, 1431.
        1153    ST619                    mrds_dsm_parse_table:    1100, 1104, 1108, 1370.
        1156    ST622                    mrds_dsm_parse_table:     369,  373, 1111, 1114.
        1160    ST624                    mrds_dsm_parse_table:    1117, 1122, 1488.
        1164    ST628                    mrds_dsm_parse_table:    1121, 1125, 1129, 1385.
        1167    ST631                    mrds_dsm_parse_table:     370, 1132, 1522.
        1170    ST632                    mrds_dsm_parse_table:     596, 1137, 1273.
        1171    ST633                    mrds_dsm_parse_table:     610, 1142, 1147.
        1175    ST637                    mrds_dsm_parse_table:     611, 1150, 1402.
        1176    ST638                    mrds_dsm_parse_table:     670, 1155, 1160.
        1202    ST642                    mrds_dsm_parse_table:     671, 1163, 1168.
        1206    ST646                    mrds_dsm_parse_table:     970, 1171, 1176.
        1212    ST650                    mrds_dsm_parse_table:     648,  660,  692,  704,  716,  728,  798,  816,  876,  938,
                                                                   971, 1179, 1186, 1376.
        1213    ST651                    mrds_dsm_parse_table:     963, 1184, 1188.
        1216    ST654                    mrds_dsm_parse_table:     680, 1191, 1196.
        1222    ST658                    mrds_dsm_parse_table:     681, 1199, 1204.
        1226    ST662                    mrds_dsm_parse_table:    1071, 1207, 1212.
        1232    ST666                    mrds_dsm_parse_table:     740,  754,  768,  782,  799,  817,  832,  846, 1037, 1072,
                                                                  1215, 1222, 1361, 1446, 1479.
        1233    ST667                    mrds_dsm_parse_table:    1062, 1220, 1224.
        1236    ST670                    mrds_dsm_parse_table:     371,  628, 1227.
        1237    ST671                    mrds_dsm_parse_table:     741,  755,  769,  783,  800,  818,  833,  847, 1063, 1091, 1232.
        1240    ST672                    mrds_dsm_parse_table:    1106, 1237, 1242.
        1244    ST676                    mrds_dsm_parse_table:     372, 1107, 1245, 1432.
        1245    ST677                    mrds_dsm_parse_table:     649,  661,  693,  705,  717,  729,  801,  819,  877,  964,
                                                                  1113, 1250.
        1246    ST678                    mrds_dsm_parse_table:    1127, 1255, 1260.
         104    ST68                     mrds_dsm_parse_table:     169,  172, 1516.
        1252    ST682                    mrds_dsm_parse_table:     373, 1128, 1263, 1489.
        1253    ST683                    mrds_dsm_parse_table:     370, 1268, 1275, 1530.
        1261    ST689                    mrds_dsm_parse_table:    1273, 1278, 1283.
        1265    ST693                    mrds_dsm_parse_table:    1274, 1282, 1286, 1314, 1393.
           7    ST7                      mrds_dsm_parse_table:      40,   43, 1503.
         106    ST70                     mrds_dsm_parse_table:      32,   48,  175,  183,  234, 1290.
        1320    ST720                    mrds_dsm_parse_table:    1317, 1322, 1402.
        1324    ST724                    mrds_dsm_parse_table:     938, 1325, 1330.
        1330    ST728                    mrds_dsm_parse_table:    1187, 1333, 1336.
        1332    ST730                    mrds_dsm_parse_table:    1037, 1339, 1344.
        1336    ST734                    mrds_dsm_parse_table:    1223, 1347, 1350.
        1340    ST736                    mrds_dsm_parse_table:     371, 1353, 1356.
        1342    ST738                    mrds_dsm_parse_table:    1063, 1359, 1363.
        1345    ST741                    mrds_dsm_parse_table:    1366, 1371, 1432.
        1351    ST745                    mrds_dsm_parse_table:     964, 1374, 1378.
        1354    ST748                    mrds_dsm_parse_table:    1381, 1386, 1489.
        1360    ST752                    mrds_dsm_parse_table:    1274, 1389, 1394.
        1364    ST756                    mrds_dsm_parse_table:    1289, 1397, 1403.
        1371    ST761                    mrds_dsm_parse_table:    1335, 1406, 1411.
        1375    ST765                    mrds_dsm_parse_table:    1349, 1414, 1419.
        1401    ST769                    mrds_dsm_parse_table:     742,  756,  770,  784,  802,  820,  834,  848, 1064, 1355, 1422.
         115    ST77                     mrds_dsm_parse_table:      33,   49,  186,  195,  235, 1291, 1453.
        1402    ST770                    mrds_dsm_parse_table:    1362, 1427, 1433, 1462.
        1407    ST775                    mrds_dsm_parse_table:    1377, 1436, 1441.
        1413    ST779                    mrds_dsm_parse_table:    1064, 1444, 1448.
        1416    ST782                    mrds_dsm_parse_table:      60,  193,  216,  637, 1451, 1455.
        1421    ST785                    mrds_dsm_parse_table:    1447, 1458, 1463.
        1425    ST789                    mrds_dsm_parse_table:      60, 1466, 1469.
        1427    ST791                    mrds_dsm_parse_table:     743,  757,  771,  785,  803,  821,  835,  849, 1065, 1468, 1472.
        1430    ST792                    mrds_dsm_parse_table:    1065, 1477, 1481.
        1433    ST795                    mrds_dsm_parse_table:    1480, 1484, 1490, 1544.
        1440    ST800                    mrds_dsm_parse_table:      81,  305, 1493, 1496.
        1442    ST802                    mrds_dsm_parse_table:      80, 1499, 1504.
        1446    ST806                    mrds_dsm_parse_table:     114,  161,  162,  163,  164,  165,  182,  194,  205,  217,
                                                                   227, 1507.
        1447    ST807                    mrds_dsm_parse_table:     160, 1512, 1517.
        1453    ST811                    mrds_dsm_parse_table:     566, 1520, 1523.
        1455    ST813                    mrds_dsm_parse_table:     563,  564,  565,  567,  568,  569,  570,  571,  572,  573,
                                                                   574,  575,  576,  577,  578,  579,  580,  581,  582,  583,
                                                                   584,  585,  586,  587,  588,  589,  590, 1526, 1531.
        1461    ST817                    mrds_dsm_parse_table:     637, 1440, 1534, 1537.
        1463    ST819                    mrds_dsm_parse_table:    1438, 1439, 1540, 1545.
         125    ST85                     mrds_dsm_parse_table:      34,   50,  198,  206,  237, 1293.
          11    ST9                      mrds_dsm_parse_table:      46,   52,  181,  192,  204,  215,  226,  227.
         134    ST92                     mrds_dsm_parse_table:      35,   51,  209,  218,  238, 1294, 1454.
           0    STRD                     mrds_dsm_parse_table:      10,   31,   41,   47,   73,   86,   92,   98,  104,  170,
                                                                   232,  278,  284,  318,  332,  595,  609,  922,  928,  969,
                                                                   976, 1013, 1027, 1070, 1077, 1090, 1105, 1112, 1126, 1185,
                                                                  1221, 1287, 1334, 1348, 1354, 1360, 1375, 1445, 1452, 1467,
                                                                  1478, 1494, 1521, 1535.
           2    STRDS                    mrds_dsm_parse_table:      12,  346,  351, 1133, 1138, 1151, 1180, 1216, 1228, 1233,
                                                                  1246, 1251, 1264, 1423, 1473, 1508.
           0    T0                       mrds_dsm_parse_table:      21.


NO FATAL ERRORS


                                          -----------------------------------------------------------


Historical Background

This edition of the Multics software materials and documentation is provided and donated
to Massachusetts Institute of Technology by Group BULL including BULL HN Information Systems Inc.
as a contribution to computer science knowledge.
This donation is made also to give evidence of the common contributions of Massachusetts Institute of Technology,
Bell Laboratories, General Electric, Honeywell Information Systems Inc., Honeywell BULL Inc., Groupe BULL
and BULL HN Information Systems Inc. to the development of this operating system.
Multics development was initiated by Massachusetts Institute of Technology Project MAC (1963-1970),
renamed the MIT Laboratory for Computer Science and Artificial Intelligence in the mid 1970s, under the leadership
of Professor Fernando Jose Corbato. Users consider that Multics provided the best software architecture
for managing computer hardware properly and for executing programs. Many subsequent operating systems
incorporated Multics principles.
Multics was distributed in 1975 to 2000 by Group Bull in Europe , and in the U.S. by Bull HN Information Systems Inc.,
as successor in interest by change in name only to Honeywell Bull Inc. and Honeywell Information Systems Inc. .

                                          -----------------------------------------------------------

Permission to use, copy, modify, and distribute these programs and their documentation for any purpose and without
fee is hereby granted,provided that the below copyright notice and historical background appear in all copies
and that both the copyright notice and historical background and this permission notice appear in supporting
documentation, and that the names of MIT, HIS, BULL or BULL HN not be used in advertising or publicity pertaining
to distribution of the programs without specific prior written permission.
    Copyright 1972 by Massachusetts Institute of Technology and Honeywell Information Systems Inc.
    Copyright 2006 by BULL HN Information Systems Inc.
    Copyright 2006 by Bull SAS
    All Rights Reserved
