ASSEMBLY LISTING OF SEGMENT >special_ldd>install>MR12.2-1073>mrds_error_.alm
ASSEMBLED ON:	08/01/88  1323.2 mst Mon
OPTIONS USED:	-target l68                              list symbols
ASSEMBLED BY:	ALM Version 7.4 April 1987
ASSEMBLER CREATED:	11/02/87  1303.7 mst Mon

                                     1  " ***********************************************************
                                     2  " *                                                         *
                                     3  " * Copyright, (C) Honeywell Bull Inc., 1988                *
                                     4  " *                                                         *
                                     5  " * Copyright, (C) Honeywell Information Systems Inc., 1981 *
                                     6  " *                                                         *
                                     7  " * Copyright (c) 1972 by Massachusetts Institute of        *
                                     8  " * Technology and Honeywell Information Systems, Inc.      *
                                     9  " *                                                         *
                                    10  " ***********************************************************
                                    11
                                    12  "	Error table for the Multics data base manager
                                    13
                                    14  "	Created January 1976 by RG Luebke, RD Lackey
                                    15  "	Converted to use et_macros March 1979 by Al Kepner
                                    16  "	Modified by Jim Gray - - Nov. 1979, to eliminate quotes from
                                    17  "	error messages(replaced with '), so not taken as comments by ALM
                                    18  "
                                    19  "81-03-20 Jim Gray: combined mrds_error_ and mdbm_error_ tables
                                    20  "into one mrds_error_ table, also removed unused error codes.
                                    21  "Added duplicate names to dup_store and tuple_not_found
                                    22  "of duplicate_key and no_current_tuple to answer TR's 8880 and 8968
                                    23  "
                                    24  "81-04-09 Jim Gray : combined no_recurse and recursion_error into same message.
                                    25  "
                                    26  "81-04-10 Jim Gray : combined identical messages for incons_db & inconsistent_database.
                                    27  "
                                    28  "81-04-25 Jim Gray : changed too_many_dbs message to not have the constant 64.
                                    29  "
                                    30  "81-05-18 Jim Gray : added max_attributes/max_indexes now that CMDB makes the checks
                                    31  "
                                    32  "81-06-15 Jim Gray : removed unused error codes
                                    33  "
                                    34  "82-03-15 R. Lackey : added  bad_rel_name,badreln
                                    35  "
                                    36  "82-03-22 R. Lackey : added bad_attr_name,badattrn
                                    37  "
                                    38  "82-03-22 R. Lackey : added no_rel_name,noreln
                                    39  "
                                    40  "82-03-22 R. Lackey : added attr_list_syntax_err,attrlerr
                                    41  "
                                    42  "82-03-22 R. Lackey : added no_primary_key,noprikey,
                                    43  "
                                    44  "82-03-22 R. Lackey : added no_db_path,nodbp
                                    45  "
                                    46  "82-04-08 R. Lackey : added no_sel_exp,nselexp
                                    47  "
                                    48  "82-04-12 R. Lackey : added  max_rels,max_rels
                                    49  "
                                    50  "82-05-25 Mike Kubicar : deleted quiesce_limit, added quiesce_pending
                                    51  "
                                    52  "82-06-01 R. Lackey : Added inv_rel_name_first_char and inv_attr_name_first_char
                                    53  "
                                    54  "82-06-18 D. Woodka : added no_model_dom,nomddom
                                    55  "
                                    56  "82-08-12 Mike Kubicar : Added bad_domain_proc, baddomp, as part of fix
                                    57  "         for TR phx13118.
                                    58  "
                                    59  "82-10-05 Davids: added async_include_file_change and bad_key_retrieve
                                    60  "
                                    61  "
                                    62  "82-10-14 Davids: added unknown_cursor_storage
                                    63  "
                                    64  "83-02-18 R. Harvey: removed attr_list_syntax_error, bad_attr_count,
                                    65  "	bad_ind_rid, bad_index_iid, bad_index_rid, bad_link_attr_count,
                                    66  "	dup_key, file_not_readied, inc_link_acc, missing_key_attr,
                                    67  "	mod_cand_key, no_link_attrs, no_par_info, unspec_mod,
                                    68  "	version_cannot_be_restr.
                                    69  "
                                    70  "83-03-09 Mike Kubicar : Added no_dms, data management software could not
                                    71  "         be found
                                    72  "
                                    73  "83-04-21 Mike Kubicar : Added internal_error, which will be the same as
                                    74  "	rst_logic_error
                                    75  "
                                    76  "84-03-29 Paul Benjamin: Changed wording of several messages.
                                    77  "
                                    78  "84-10-11 John Hergert : Added inval_comp_expr, Invalid selection expression
                                    79  "         for compile.
                                    80  "
                                    81  "85-02-08 John Hergert: Added dup_key to dup_store since so many applications
                                    82  "         broke when it went away.
                                    83  "
                                    84  "85-04-14 Thanh Nguyen: Added incomp_se_and_scope and
                                    85  "         inconsistent_transaction_se.
                                    86  "
                                    87
                                    88  " HISTORY COMMENTS:
                                    89  "  1) change(85-12-03,Spitzer), approve(85-12-03,MCR7311),
                                    90  "     audit(86-08-29,Blair), install(86-10-16,MR12.0-1187):
                                    91  "     Added inv_domain_name_first_char, no_unref_domain, no_unref_attr,
                                    92  "     no_domains_exist, no_relations_exist. new error codes for encoding
                                    93  "     descriptors from new_call.
                                    94  "  2) change(86-01-08,Hergert), approve(88-07-07,MCR7903),
                                    95  "     audit(88-07-07,Dupuis), install(88-08-01,MR12.2-1073):
                                    96  "     Added new error codes for the new parser.
                                    97  "                                                      END HISTORY COMMENTS
                                    98
                                    99
                                   100  	include	et_macros
                                   1-1  " Begin include file ...... et_macros.incl.alm
                                   1-2  "	Written 6/15/77 by Noel I. Morris
                                   1-3  "	Modified '82 so error code entries are in first page of segment.
                                   1-4
                                   1-5  " This include file contains macros for generating error tables
                                   1-6  " for both system and non-system use.
                                   1-7
                                   1-8  " ET MACRO
                                   1-9  "
                                  1-10  " This macro is used to initialize the error table for either
                                  1-11  " system or non-system use.  It is invoked at the beginning of
                                  1-12  " the error table as follows:
                                  1-13  "
                                  1-14  "	et	table_name{,system}
                                  1-15  "
                                  1-16
                                  1-17  macro	et
                              1   1-18  	maclist	on
                              2   1-19
                              3   1-20  	name	&1
                              4   1-21
                              5   1-22  &^=&2,system&[
                              6   1-23
                              7   1-24  	include	stack_header
                              8   1-25
                              9   1-26  
                             10   1-27
                             11   1-28  	use	codes
                             12   1-29  .code_start:
                             13   1-30
                             14   1-31  	use	past_codes
                             15   1-32  .code_end:
                             16   1-33
                             17   1-34  	join	/link/codes,past_codes
                             18   1-35
                             19   1-36  	use	messages
                             20   1-37
                             21   1-38  .trapproc:
                             22   1-39  	epaq	0,ic
                             23   1-40  	eax0	0,au
                             24   1-41  	epbpsb	sp|0
                             25   1-42  	lprplp	sb|stack_header.lot_ptr,*au
                             26   1-43  	eax1	.code_start
                             27   1-44  .loop:	stx0	lp|0,x1
                             28   1-45  	eax1	1,x1
                             29   1-46  	cmpx1	.code_end,du
                             30   1-47  	tmi	.loop-*,ic
                             31   1-48  	short_return
                             32   1-49
                             33   1-50  	firstref	<*text>|.trapproc
                             34   1-51
                             35   1-52  &;	use	codes
                             36   1-53  	use	messages
                             37   1-54
                             38   1-55  	join	/text/codes,messages
                             39   1-56
                             40   1-57  &]
                             41   1-58
                             42   1-59  	bool	.segno,77777
                             43   1-60
                             44   1-61  	maclist	off
                             45   1-62
                             46   1-63  	&end
                                  1-64
                                  1-65  
                                  1-66
                                  1-67  " EC MACRO
                                  1-68  "
                                  1-69  " This macro is used to define an error code as shown:
                                  1-70  "
                                  1-71  "	ec	name,{short_mess},(long_mess)
                                  1-72  "
                                  1-73  " If more than a single name is to be defined for a given message,
                                  1-74  " a list of names separated by commas and enclosed in parentheses
                                  1-75  " must be given.   short_mess must be 8 or less characters.  If omitted,
                                  1-76  " the short_mess will be set to the name.  long_mess is enclosed
                                  1-77  " in parentheses in order to cause ALM to ignore embedded blanks.  Please
                                  1-78  " note that double quote characters in either short_mess or long_mess
                                  1-79  " must be doubled in order to make the ALM assembly work properly.
                                  1-80  " Note that a macro invocation line terminated by a comma will cause that
                                  1-81  " statement to be continued on the next line.
                                  1-82
                                  1-83  macro	ec
                              1   1-84  	use	codes
                              2   1-85
                              3   1-86  	maclist	on,save
                              4   1-87  &(1	segdef  &i
                              5   1-88  &)	maclist	restore
                              6   1-89  &(1&i:
                              7   1-90  &)	maclist	object,save
                              8   1-91  	zero	.segno,&U
                              9   1-92  	maclist	restore
                             10   1-93  	use	messages
                             11   1-94  &^=&l2,0&[	shortname    &2
                             12   1-95  &;	shortname    &1
                             13   1-96  &]
                             14   1-97  &U:
                             15   1-98  	maclist	on,save
                             16   1-99  	acc  "&3"
                             17  1-100
                             18  1-101  	maclist	restore
                             19  1-102  	&end
                                 1-103
                                 1-104  macro	shortname
                              1  1-105  	maclist	on,save
                              2  1-106  	aci  "&1",8
                              3  1-107  	maclist	restore
                              4  1-108  	&end
                                 1-109
                                 1-110  
                                 1-111
                                 1-112  " A typical error table source program might have the following format:
                                 1-113  "
                                 1-114  "	include	et_macros
                                 1-115  "
                                 1-116  "	et	name_of_error_table
                                 1-117  "
                                 1-118  "	ec	error_code_1,ecode1,(This is error code 1.)
                                 1-119  "
                                 1-120  "	ec	error_code_2,ecode2,(This is error code 2.)
                                 1-121  "
                                 1-122  "	:	     :	      :		:
                                 1-123  "
                                 1-124  "	ec	error_code_n,ecoden,(This is the nth error code.)
                                 1-125  "
                                 1-126  "	end
                                 1-127  "
                                 1-128
                                 1-129  " End of include file ...... et_macros.incl.alm
                                 1-130
                                   101  	et	mrds_error_

    000000                              	name	mrds_error_


                                        	include	stack_header
                                   2-1  "	BEGIN INCLUDE FILE ... stack_header.incl.alm  3/72  Bill Silver
                                   2-2  "
                                   2-3  "	modified 7/76 by M. Weaver for *system links and more system use of areas
                                   2-4  "	modified 3/77 by M. Weaver  to add rnt_ptr
                                   2-5  "	modified 7/77 by S. Webber to add run_unit_depth and assign_linkage_ptr
                                   2-6  "	modified 6/83 by J. Ives to add trace_frames and in_trace.
                                   2-7
                                   2-8  " HISTORY COMMENTS:
                                   2-9  "  1) change(86-06-24,DGHowe), approve(86-06-24,MCR7396),
                                  2-10  "     audit(86-08-05,Schroth), install(86-11-03,MR12.0-1206):
                                  2-11  "     added the heap_header_ptr definition
                                  2-12  "  2) change(86-08-12,Kissel), approve(86-08-12,MCR7473),
                                  2-13  "     audit(86-10-10,Fawcett), install(86-11-03,MR12.0-1206):
                                  2-14  "     Modified to support control point management.  These changes were
                                  2-15  "     actually made in February 1985 by G. Palter.
                                  2-16  "  3) change(86-10-22,Fawcett), approve(86-10-22,MCR7473),
                                  2-17  "     audit(86-10-22,Farley), install(86-11-03,MR12.0-1206):
                                  2-18  "     Remove the old_lot pointer and replace it with cpm_data_ptr. Use the 18
                                  2-19  "     bit pad after cur_lot_size for the cpm_enabled. This was done to save
                                  2-20  "     some space int the stack header and change the cpd_ptr unal to
                                  2-21  "     cpm_data_ptr (ITS pair).
                                  2-22  "                                                      END HISTORY COMMENTS
                                  2-23
                        000004    2-24  	equ	stack_header.cpm_data_ptr,4		ptr to control point for this stack
                        000006    2-25  	equ	stack_header.combined_stat_ptr,6	ptr to separate static area
                                  2-26
                        000010    2-27  	equ	stack_header.clr_ptr,8		ptr to area containing linkage sections
                        000012    2-28  	equ	stack_header.max_lot_size,10		number of words allowed in lot (DU)
                        000012    2-29  	equ	stack_header.main_proc_invoked,10	nonzero if main proc was invoked in run unit (DL)
                        000012    2-30  	equ	stack_header.run_unit_depth,10	number of active run units stacked (DL)
                        000013    2-31  	equ	stack_header.cur_lot_size,11		DU number of words (entries) in lot
                        000013    2-32            equ	stack_header.cpm_enabled,11		DL  non-zero if control point management is enabled
                        000014    2-33  	equ	stack_header.system_free_ptr,12	ptr to system storage area
                        000016    2-34  	equ	stack_header.user_free_ptr,14		ptr to user storage area
                                  2-35
                        000020    2-36  	equ	stack_header.parent_ptr,16		ptr to parent stack or null
                        000022    2-37  	equ	stack_header.stack_begin_ptr,18	ptr to first stack frame
                        000024    2-38  	equ	stack_header.stack_end_ptr,20		ptr to next useable stack frame
                        000026    2-39  	equ	stack_header.lot_ptr,22		ptr to the lot for the current ring
                                  2-40
                        000030    2-41  	equ	stack_header.signal_ptr,24		ptr to signal proc for current ring
                        000032    2-42  	equ	stack_header.bar_mode_sp,26		value of sp before entering bar mode
                        000034    2-43  	equ	stack_header.pl1_operators_ptr,28	ptr: pl1_operators_$operator_table
                        000036    2-44  	equ	stack_header.call_op_ptr,30		ptr to standard call operator
                                  2-45
                        000040    2-46  	equ	stack_header.push_op_ptr,32		ptr to standard push operator
                        000042    2-47  	equ	stack_header.return_op_ptr,34		ptr to standard return operator
                        000044    2-48  	equ	stack_header.ret_no_pop_op_ptr,36	ptr: stand. return/ no pop operator
                        000046    2-49  	equ	stack_header.entry_op_ptr,38		ptr to standard entry operator
                                  2-50
                        000050    2-51  	equ	stack_header.trans_op_tv_ptr,40	ptr to table of translator operator ptrs
                        000052    2-52  	equ	stack_header.isot_ptr,42		pointer to ISOT
                        000054    2-53  	equ	stack_header.sct_ptr,44		pointer to System Condition Table
                        000056    2-54  	equ	stack_header.unwinder_ptr,46		pointer to unwinder for current ring
                                  2-55
                        000060    2-56  	equ	stack_header.sys_link_info_ptr,48	ptr to *system link name table
                        000062    2-57  	equ	stack_header.rnt_ptr,50		ptr to reference name table
                        000064    2-58  	equ	stack_header.ect_ptr,52		ptr to event channel table
                        000066    2-59  	equ	stack_header.assign_linkage_ptr,54	ptr to area for hcs_$assign_linkage calls
                        000070    2-60  	equ	stack_header.heap_header_ptr,56	ptr to heap header.
                        000072    2-61  	equ	stack_header.trace_frames,58		stack of trace_catch_ frames
                        000073    2-62  	equ	stach_header.trace_top_ptr,59		trace pointer
                        000074    2-63  	equ	stack_header.in_trace,60		trace antirecurse bit
                        000100    2-64  	equ	stack_header_end,64			length of stack header
                                  2-65
                                  2-66
                                  2-67
                                  2-68
                        000000    2-69  	equ	trace_frames.count,0		number of trace frames on stack
                        000001    2-70  	equ	trace_frames.top_ptr,1		packed pointer to top one
                                  2-71
                                  2-72  "	The  following constant is an offset within the  pl1  operators table.
                                  2-73  "	It  references a  transfer vector table.
                                  2-74
                        000551    2-75  	bool	tv_offset,551
                                  2-76
                                  2-77
                                  2-78  "	The  following constants are offsets within this transfer vector table.
                                  2-79
                        001170    2-80  	equ	call_offset,tv_offset+271
                        001171    2-81  	equ	push_offset,tv_offset+272
                        001172    2-82  	equ	return_offset,tv_offset+273
                        001173    2-83  	equ	return_no_pop_offset,tv_offset+274
                        001174    2-84  	equ	entry_offset,tv_offset+275
                                  2-85
                                  2-86
                                  2-87  " 	END INCLUDE FILE stack_header.incl.alm

                                        

                                        	use	codes
    000010                              .code_start:

                                        	use	past_codes
    000456                              .code_end:

                                        	join	/link/codes,past_codes

                                        	use	messages

    000000                              .trapproc:
    000000  aa   000000 2130 04         	epaq	0,ic
    000001  aa   000000 6200 01         	eax0	0,au
    000002  aa  6 00000 3731 00         	epbpsb	sp|0
    000003  aa  7 00026 7641 61         	lprplp	sb|stack_header.lot_ptr,*au
    000004  8a   000010 6210 00         	eax1	.code_start
    000005  aa  4 00000 7401 11         .loop:	stx0	lp|0,x1
    000006  aa   000001 6210 11         	eax1	1,x1
    000007  8a   000456 1010 03         	cmpx1	.code_end,du
    000010  aa   777775 6040 04         	tmi	.loop-*,ic
    000011  aa  7 00044 7101 20         	short_return

    000012                              	firstref	<*text>|.trapproc


                        077777          	bool	.segno,77777

                                   102  ec async_include_file_change,ainclcg,
                                   103  	(Include files no longer match.)
                        000010          	segdef  async_include_file_change
    000010  a0   077777 000014
    000012  aa  141 151 156 143         	aci  "ainclcg",8
    000013  aa  154 143 147 040
    000014  aa  036 111 156 143         	acc  "Include files no longer match."
    000015  aa  154 165 144 145
    000016  aa  040 146 151 154
    000017  aa  145 163 040 156
    000020  aa  157 040 154 157
    000021  aa  156 147 145 162
    000022  aa  040 155 141 164
    000023  aa  143 150 056 000

                                   104  ec attr_already_exists,attexist,
                                   105  	(The given attribute name has a previous definition.)
                        000011          	segdef  attr_already_exists
    000011  a0   077777 000026
    000024  aa  141 164 164 145         	aci  "attexist",8
    000025  aa  170 151 163 164
    000026  aa  063 124 150 145         	acc  "The given attribute name has a previous definition."
    000027  aa  040 147 151 166
    000030  aa  145 156 040 141
    000031  aa  164 164 162 151
    000032  aa  142 165 164 145
    000033  aa  040 156 141 155
    000034  aa  145 040 150 141
    000035  aa  163 040 141 040
    000036  aa  160 162 145 166
    000037  aa  151 157 165 163
    000040  aa  040 144 145 146
    000041  aa  151 156 151 164
    000042  aa  151 157 156 056

                                   106  ec attr_error,attrerr,
                                   107  	(No attribute specification found following  an attribute keyword.)
                        000012          	segdef  attr_error
    000012  a0   077777 000045
    000043  aa  141 164 164 162         	aci  "attrerr",8
    000044  aa  145 162 162 040
    000045  aa  101 116 157 040         	acc  "No attribute specification found following  an attribute keyword."
    000046  aa  141 164 164 162
    000047  aa  151 142 165 164
    000050  aa  145 040 163 160
    000051  aa  145 143 151 146
    000052  aa  151 143 141 164
    000053  aa  151 157 156 040
    000054  aa  146 157 165 156
    000055  aa  144 040 146 157
    000056  aa  154 154 157 167
    000057  aa  151 156 147 040
    000060  aa  040 141 156 040
    000061  aa  141 164 164 162
    000062  aa  151 142 165 164
    000063  aa  145 040 153 145
    000064  aa  171 167 157 162
    000065  aa  144 056 000 000

                                   108  ec bad_access_mode,badam,
                                   109  	(Data base access mode is not a composite of r, s, m, d, or n.)
                        000013          	segdef  bad_access_mode
    000013  a0   077777 000070
    000066  aa  142 141 144 141         	aci  "badam",8
    000067  aa  155 040 040 040
    000070  aa  075 104 141 164         	acc  "Data base access mode is not a composite of r, s, m, d, or n."
    000071  aa  141 040 142 141
    000072  aa  163 145 040 141
    000073  aa  143 143 145 163
    000074  aa  163 040 155 157
    000075  aa  144 145 040 151
    000076  aa  163 040 156 157
    000077  aa  164 040 141 040
    000100  aa  143 157 155 160
    000101  aa  157 163 151 164
    000102  aa  145 040 157 146
    000103  aa  040 162 054 040
    000104  aa  163 054 040 155
    000105  aa  054 040 144 054
    000106  aa  040 157 162 040
    000107  aa  156 056 000 000

                                   110  ec bad_arith_const,badacon,
                                   111  	(An invalid arithmetic constant or value has been detected.)
                        000014          	segdef  bad_arith_const
    000014  a0   077777 000112
    000110  aa  142 141 144 141         	aci  "badacon",8
    000111  aa  143 157 156 040
    000112  aa  072 101 156 040         	acc  "An invalid arithmetic constant or value has been detected."
    000113  aa  151 156 166 141
    000114  aa  154 151 144 040
    000115  aa  141 162 151 164
    000116  aa  150 155 145 164
    000117  aa  151 143 040 143
    000120  aa  157 156 163 164
    000121  aa  141 156 164 040
    000122  aa  157 162 040 166
    000123  aa  141 154 165 145
    000124  aa  040 150 141 163
    000125  aa  040 142 145 145
    000126  aa  156 040 144 145
    000127  aa  164 145 143 164
    000130  aa  145 144 056 000

                                   112  ec bad_attr,badattr,
                                   113  	(An illegal tuple attribute has been specified in the selection expression.)
                        000015          	segdef  bad_attr
    000015  a0   077777 000133
    000131  aa  142 141 144 141         	aci  "badattr",8
    000132  aa  164 164 162 040
    000133  aa  112 101 156 040         	acc  "An illegal tuple attribute has been specified in the selection expression."
    000134  aa  151 154 154 145
    000135  aa  147 141 154 040
    000136  aa  164 165 160 154
    000137  aa  145 040 141 164
    000140  aa  164 162 151 142
    000141  aa  165 164 145 040
    000142  aa  150 141 163 040
    000143  aa  142 145 145 156
    000144  aa  040 163 160 145
    000145  aa  143 151 146 151
    000146  aa  145 144 040 151
    000147  aa  156 040 164 150
    000150  aa  145 040 163 145
    000151  aa  154 145 143 164
    000152  aa  151 157 156 040
    000153  aa  145 170 160 162
    000154  aa  145 163 163 151
    000155  aa  157 156 056 000

                                   114  ec bad_attr_name,badattrn,
                                   115  	(Attribute name contains an invalid attribute name character.)
                        000016          	segdef  bad_attr_name
    000016  a0   077777 000160
    000156  aa  142 141 144 141         	aci  "badattrn",8
    000157  aa  164 164 162 156
    000160  aa  074 101 164 164         	acc  "Attribute name contains an invalid attribute name character."
    000161  aa  162 151 142 165
    000162  aa  164 145 040 156
    000163  aa  141 155 145 040
    000164  aa  143 157 156 164
    000165  aa  141 151 156 163
    000166  aa  040 141 156 040
    000167  aa  151 156 166 141
    000170  aa  154 151 144 040
    000171  aa  141 164 164 162
    000172  aa  151 142 165 164
    000173  aa  145 040 156 141
    000174  aa  155 145 040 143
    000175  aa  150 141 162 141
    000176  aa  143 164 145 162
    000177  aa  056 000 000 000

                                   116  ec bad_builtin_obj,badbiobj,
                                   117  	(Unable to reference the scalar built-in functions.)
                        000017          	segdef  bad_builtin_obj
    000017  a0   077777 000202
    000200  aa  142 141 144 142         	aci  "badbiobj",8
    000201  aa  151 157 142 152
    000202  aa  062 125 156 141         	acc  "Unable to reference the scalar built-in functions."
    000203  aa  142 154 145 040
    000204  aa  164 157 040 162
    000205  aa  145 146 145 162
    000206  aa  145 156 143 145
    000207  aa  040 164 150 145
    000210  aa  040 163 143 141
    000211  aa  154 141 162 040
    000212  aa  142 165 151 154
    000213  aa  164 055 151 156
    000214  aa  040 146 165 156
    000215  aa  143 164 151 157
    000216  aa  156 163 056 000

                                   118  ec bad_delim,baddelim,
                                   119  	(A delimiter has been incorrectly specified.)
                        000020          	segdef  bad_delim
    000020  a0   077777 000221
    000217  aa  142 141 144 144         	aci  "baddelim",8
    000220  aa  145 154 151 155
    000221  aa  053 101 040 144         	acc  "A delimiter has been incorrectly specified."
    000222  aa  145 154 151 155
    000223  aa  151 164 145 162
    000224  aa  040 150 141 163
    000225  aa  040 142 145 145
    000226  aa  156 040 151 156
    000227  aa  143 157 162 162
    000230  aa  145 143 164 154
    000231  aa  171 040 163 160
    000232  aa  145 143 151 146
    000233  aa  151 145 144 056

                                   120  ec bad_domain_proc,baddomp,
                                   121  	(Encode/decode procedure could not be accessed.)
                        000021          	segdef  bad_domain_proc
    000021  a0   077777 000236
    000234  aa  142 141 144 144         	aci  "baddomp",8
    000235  aa  157 155 160 040
    000236  aa  056 105 156 143         	acc  "Encode/decode procedure could not be accessed."
    000237  aa  157 144 145 057
    000240  aa  144 145 143 157
    000241  aa  144 145 040 160
    000242  aa  162 157 143 145
    000243  aa  144 165 162 145
    000244  aa  040 143 157 165
    000245  aa  154 144 040 156
    000246  aa  157 164 040 142
    000247  aa  145 040 141 143
    000250  aa  143 145 163 163
    000251  aa  145 144 056 000

                                   122  ec bad_eq,badeq,
                                   123  	(An equal sign has been incorrectly specified.)
                        000022          	segdef  bad_eq
    000022  a0   077777 000254
    000252  aa  142 141 144 145         	aci  "badeq",8
    000253  aa  161 040 040 040
    000254  aa  055 101 156 040         	acc  "An equal sign has been incorrectly specified."
    000255  aa  145 161 165 141
    000256  aa  154 040 163 151
    000257  aa  147 156 040 150
    000260  aa  141 163 040 142
    000261  aa  145 145 156 040
    000262  aa  151 156 143 157
    000263  aa  162 162 145 143
    000264  aa  164 154 171 040
    000265  aa  163 160 145 143
    000266  aa  151 146 151 145
    000267  aa  144 056 000 000

                                   124  ec bad_ident,badid,
                                   125  	(An identifier contains invalid characters.)
                        000023          	segdef  bad_ident
    000023  a0   077777 000272
    000270  aa  142 141 144 151         	aci  "badid",8
    000271  aa  144 040 040 040
    000272  aa  052 101 156 040         	acc  "An identifier contains invalid characters."
    000273  aa  151 144 145 156
    000274  aa  164 151 146 151
    000275  aa  145 162 040 143
    000276  aa  157 156 164 141
    000277  aa  151 156 163 040
    000300  aa  151 156 166 141
    000301  aa  154 151 144 040
    000302  aa  143 150 141 162
    000303  aa  141 143 164 145
    000304  aa  162 163 056 000

                                   126  ec bad_invert_file_type,badift,
                                   127  	(Entry is not a multisegment file.)
                        000024          	segdef  bad_invert_file_type
    000024  a0   077777 000307
    000305  aa  142 141 144 151         	aci  "badift",8
    000306  aa  146 164 040 040
    000307  aa  041 105 156 164         	acc  "Entry is not a multisegment file."
    000310  aa  162 171 040 151
    000311  aa  163 040 156 157
    000312  aa  164 040 141 040
    000313  aa  155 165 154 164
    000314  aa  151 163 145 147
    000315  aa  155 145 156 164
    000316  aa  040 146 151 154
    000317  aa  145 056 000 000

                                   128  ec bad_key_retrieve,badkeyrt,
                                   129  	(Retrieval based on a primary key found multiple tuples.)
                        000025          	segdef  bad_key_retrieve
    000025  a0   077777 000322
    000320  aa  142 141 144 153         	aci  "badkeyrt",8
    000321  aa  145 171 162 164
    000322  aa  067 122 145 164         	acc  "Retrieval based on a primary key found multiple tuples."
    000323  aa  162 151 145 166
    000324  aa  141 154 040 142
    000325  aa  141 163 145 144
    000326  aa  040 157 156 040
    000327  aa  141 040 160 162
    000330  aa  151 155 141 162
    000331  aa  171 040 153 145
    000332  aa  171 040 146 157
    000333  aa  165 156 144 040
    000334  aa  155 165 154 164
    000335  aa  151 160 154 145
    000336  aa  040 164 165 160
    000337  aa  154 145 163 056

                                   130  ec bad_keyword,badkeywd,
                                   131  	(An expected keyword was not found.)
                        000026          	segdef  bad_keyword
    000026  a0   077777 000342
    000340  aa  142 141 144 153         	aci  "badkeywd",8
    000341  aa  145 171 167 144
    000342  aa  042 101 156 040         	acc  "An expected keyword was not found."
    000343  aa  145 170 160 145
    000344  aa  143 164 145 144
    000345  aa  040 153 145 171
    000346  aa  167 157 162 144
    000347  aa  040 167 141 163
    000350  aa  040 156 157 164
    000351  aa  040 146 157 165
    000352  aa  156 144 056 000

                                   132  ec bad_model,badmodel,
                                   133  	(A file which is not a data model or is inconsistent has been specified.)
                        000027          	segdef  bad_model
    000027  a0   077777 000355
    000353  aa  142 141 144 155         	aci  "badmodel",8
    000354  aa  157 144 145 154
    000355  aa  107 101 040 146         	acc  "A file which is not a data model or is inconsistent has been specified."
    000356  aa  151 154 145 040
    000357  aa  167 150 151 143
    000360  aa  150 040 151 163
    000361  aa  040 156 157 164
    000362  aa  040 141 040 144
    000363  aa  141 164 141 040
    000364  aa  155 157 144 145
    000365  aa  154 040 157 162
    000366  aa  040 151 163 040
    000367  aa  151 156 143 157
    000370  aa  156 163 151 163
    000371  aa  164 145 156 164
    000372  aa  040 150 141 163
    000373  aa  040 142 145 145
    000374  aa  156 040 163 160
    000375  aa  145 143 151 146
    000376  aa  151 145 144 056

                                   134  ec bad_op,bad_op,
                                   135  	(An arithmetic operator has been improperly specified in the -where clause.)
                        000030          	segdef  bad_op
    000030  a0   077777 000401
    000377  aa  142 141 144 137         	aci  "bad_op",8
    000400  aa  157 160 040 040
    000401  aa  112 101 156 040         	acc  "An arithmetic operator has been improperly specified in the -where clause."
    000402  aa  141 162 151 164
    000403  aa  150 155 145 164
    000404  aa  151 143 040 157
    000405  aa  160 145 162 141
    000406  aa  164 157 162 040
    000407  aa  150 141 163 040
    000410  aa  142 145 145 156
    000411  aa  040 151 155 160
    000412  aa  162 157 160 145
    000413  aa  162 154 171 040
    000414  aa  163 160 145 143
    000415  aa  151 146 151 145
    000416  aa  144 040 151 156
    000417  aa  040 164 150 145
    000420  aa  040 055 167 150
    000421  aa  145 162 145 040
    000422  aa  143 154 141 165
    000423  aa  163 145 056 000

                                   136  ec bad_pathname,bad_path,
                                   137  	(The pathname supplied is a control argument.)
                        000031          	segdef  bad_pathname
    000031  a0   077777 000426
    000424  aa  142 141 144 137         	aci  "bad_path",8
    000425  aa  160 141 164 150
    000426  aa  054 124 150 145         	acc  "The pathname supplied is a control argument."
    000427  aa  040 160 141 164
    000430  aa  150 156 141 155
    000431  aa  145 040 163 165
    000432  aa  160 160 154 151
    000433  aa  145 144 040 151
    000434  aa  163 040 141 040
    000435  aa  143 157 156 164
    000436  aa  162 157 154 040
    000437  aa  141 162 147 165
    000440  aa  155 145 156 164
    000441  aa  056 000 000 000

                                   138  ec bad_quant,badquant,
                                   139  	(No tuple variable was specified following a quantifier.)
                        000032          	segdef  bad_quant
    000032  a0   077777 000444
    000442  aa  142 141 144 161         	aci  "badquant",8
    000443  aa  165 141 156 164
    000444  aa  067 116 157 040         	acc  "No tuple variable was specified following a quantifier."
    000445  aa  164 165 160 154
    000446  aa  145 040 166 141
    000447  aa  162 151 141 142
    000450  aa  154 145 040 167
    000451  aa  141 163 040 163
    000452  aa  160 145 143 151
    000453  aa  146 151 145 144
    000454  aa  040 146 157 154
    000455  aa  154 157 167 151
    000456  aa  156 147 040 141
    000457  aa  040 161 165 141
    000460  aa  156 164 151 146
    000461  aa  151 145 162 056

                                   140  ec bad_rel_name,badreln,
                                   141            (Relation name contains an invalid relation name character.)
                        000033          	segdef  bad_rel_name
    000033  a0   077777 000464
    000462  aa  142 141 144 162         	aci  "badreln",8
    000463  aa  145 154 156 040
    000464  aa  072 122 145 154         	acc  "Relation name contains an invalid relation name character."
    000465  aa  141 164 151 157
    000466  aa  156 040 156 141
    000467  aa  155 145 040 143
    000470  aa  157 156 164 141
    000471  aa  151 156 163 040
    000472  aa  141 156 040 151
    000473  aa  156 166 141 154
    000474  aa  151 144 040 162
    000475  aa  145 154 141 164
    000476  aa  151 157 156 040
    000477  aa  156 141 155 145
    000500  aa  040 143 150 141
    000501  aa  162 141 143 164
    000502  aa  145 162 056 000

                                   142  ec bad_select_value,bdselval,
                                   143  	(An unsupported data type was specified for a select item value.)
                        000034          	segdef  bad_select_value
    000034  a0   077777 000505
    000503  aa  142 144 163 145         	aci  "bdselval",8
    000504  aa  154 166 141 154
    000505  aa  077 101 156 040         	acc  "An unsupported data type was specified for a select item value."
    000506  aa  165 156 163 165
    000507  aa  160 160 157 162
    000510  aa  164 145 144 040
    000511  aa  144 141 164 141
    000512  aa  040 164 171 160
    000513  aa  145 040 167 141
    000514  aa  163 040 163 160
    000515  aa  145 143 151 146
    000516  aa  151 145 144 040
    000517  aa  146 157 162 040
    000520  aa  141 040 163 145
    000521  aa  154 145 143 164
    000522  aa  040 151 164 145
    000523  aa  155 040 166 141
    000524  aa  154 165 145 056

                                   144  ec bad_source_path,dsrpath,
                                   145  	(Source pathname is a control argument.)
                        000035          	segdef  bad_source_path
    000035  a0   077777 000527
    000525  aa  144 163 162 160         	aci  "dsrpath",8
    000526  aa  141 164 150 040
    000527  aa  046 123 157 165         	acc  "Source pathname is a control argument."
    000530  aa  162 143 145 040
    000531  aa  160 141 164 150
    000532  aa  156 141 155 145
    000533  aa  040 151 163 040
    000534  aa  141 040 143 157
    000535  aa  156 164 162 157
    000536  aa  154 040 141 162
    000537  aa  147 165 155 145
    000540  aa  156 164 056 000

                                   146  ec bad_temp_rel_val,badtrval,
                                   147  	(A value specified for a temporary relation index is not an integer.)
                        000036          	segdef  bad_temp_rel_val
    000036  a0   077777 000543
    000541  aa  142 141 144 164         	aci  "badtrval",8
    000542  aa  162 166 141 154
    000543  aa  103 101 040 166         	acc  "A value specified for a temporary relation index is not an integer."
    000544  aa  141 154 165 145
    000545  aa  040 163 160 145
    000546  aa  143 151 146 151
    000547  aa  145 144 040 146
    000550  aa  157 162 040 141
    000551  aa  040 164 145 155
    000552  aa  160 157 162 141
    000553  aa  162 171 040 162
    000554  aa  145 154 141 164
    000555  aa  151 157 156 040
    000556  aa  151 156 144 145
    000557  aa  170 040 151 163
    000560  aa  040 156 157 164
    000561  aa  040 141 156 040
    000562  aa  151 156 164 145
    000563  aa  147 145 162 056

                                   148  ec bad_var,badvar,
                                   149  	(An illegal tuple variable has been specified in the selection expression.)
                        000037          	segdef  bad_var
    000037  a0   077777 000566
    000564  aa  142 141 144 166         	aci  "badvar",8
    000565  aa  141 162 040 040
    000566  aa  111 101 156 040         	acc  "An illegal tuple variable has been specified in the selection expression."
    000567  aa  151 154 154 145
    000570  aa  147 141 154 040
    000571  aa  164 165 160 154
    000572  aa  145 040 166 141
    000573  aa  162 151 141 142
    000574  aa  154 145 040 150
    000575  aa  141 163 040 142
    000576  aa  145 145 156 040
    000577  aa  163 160 145 143
    000600  aa  151 146 151 145
    000601  aa  144 040 151 156
    000602  aa  040 164 150 145
    000603  aa  040 163 145 154
    000604  aa  145 143 164 151
    000605  aa  157 156 040 145
    000606  aa  170 160 162 145
    000607  aa  163 163 151 157
    000610  aa  156 056 000 000

                                   150  ec block_dom_incons,bdincons,
                                   151  	(The domains of items being selected are inconsistent among select blocks.)
                        000040          	segdef  block_dom_incons
    000040  a0   077777 000613
    000611  aa  142 144 151 156         	aci  "bdincons",8
    000612  aa  143 157 156 163
    000613  aa  111 124 150 145         	acc  "The domains of items being selected are inconsistent among select blocks."
    000614  aa  040 144 157 155
    000615  aa  141 151 156 163
    000616  aa  040 157 146 040
    000617  aa  151 164 145 155
    000620  aa  163 040 142 145
    000621  aa  151 156 147 040
    000622  aa  163 145 154 145
    000623  aa  143 164 145 144
    000624  aa  040 141 162 145
    000625  aa  040 151 156 143
    000626  aa  157 156 163 151
    000627  aa  163 164 145 156
    000630  aa  164 040 141 155
    000631  aa  157 156 147 040
    000632  aa  163 145 154 145
    000633  aa  143 164 040 142
    000634  aa  154 157 143 153
    000635  aa  163 056 000 000

                                   152  ec block_sel_incons,bsincons,
                                   153  	(The number of items being selected is inconsistent among select blocks.)
                        000041          	segdef  block_sel_incons
    000041  a0   077777 000640
    000636  aa  142 163 151 156         	aci  "bsincons",8
    000637  aa  143 157 156 163
    000640  aa  107 124 150 145         	acc  "The number of items being selected is inconsistent among select blocks."
    000641  aa  040 156 165 155
    000642  aa  142 145 162 040
    000643  aa  157 146 040 151
    000644  aa  164 145 155 163
    000645  aa  040 142 145 151
    000646  aa  156 147 040 163
    000647  aa  145 154 145 143
    000650  aa  164 145 144 040
    000651  aa  151 163 040 151
    000652  aa  156 143 157 156
    000653  aa  163 151 163 164
    000654  aa  145 156 164 040
    000655  aa  141 155 157 156
    000656  aa  147 040 163 145
    000657  aa  154 145 143 164
    000660  aa  040 142 154 157
    000661  aa  143 153 163 056

                                   154  ec bool_leaf,boolleaf,
                                   155  	(An 'and' or 'or' operator has a constant or tuple attribute operand.)
                        000042          	segdef  bool_leaf
    000042  a0   077777 000664
    000662  aa  142 157 157 154         	aci  "boolleaf",8
    000663  aa  154 145 141 146
    000664  aa  104 101 156 040         	acc  "An 'and' or 'or' operator has a constant or tuple attribute operand."
    000665  aa  047 141 156 144
    000666  aa  047 040 157 162
    000667  aa  040 047 157 162
    000670  aa  047 040 157 160
    000671  aa  145 162 141 164
    000672  aa  157 162 040 150
    000673  aa  141 163 040 141
    000674  aa  040 143 157 156
    000675  aa  163 164 141 156
    000676  aa  164 040 157 162
    000677  aa  040 164 165 160
    000700  aa  154 145 040 141
    000701  aa  164 164 162 151
    000702  aa  142 165 164 145
    000703  aa  040 157 160 145
    000704  aa  162 141 156 144
    000705  aa  056 000 000 000

                                   156  ec cant_ref_fun,cantrfun,
                                   157  	(Unable to reference a declared or built-in function.)
                        000043          	segdef  cant_ref_fun
    000043  a0   077777 000710
    000706  aa  143 141 156 164         	aci  "cantrfun",8
    000707  aa  162 146 165 156
    000710  aa  064 125 156 141         	acc  "Unable to reference a declared or built-in function."
    000711  aa  142 154 145 040
    000712  aa  164 157 040 162
    000713  aa  145 146 145 162
    000714  aa  145 156 143 145
    000715  aa  040 141 040 144
    000716  aa  145 143 154 141
    000717  aa  162 145 144 040
    000720  aa  157 162 040 142
    000721  aa  165 151 154 164
    000722  aa  055 151 156 040
    000723  aa  146 165 156 143
    000724  aa  164 151 157 156
    000725  aa  056 000 000 000

                                   158  ec comp_sel_expr,compsex,
                                   159  	(Complex selection expressions are not allowed for update operations.)
                        000044          	segdef  comp_sel_expr
    000044  a0   077777 000730
    000726  aa  143 157 155 160         	aci  "compsex",8
    000727  aa  163 145 170 040
    000730  aa  104 103 157 155         	acc  "Complex selection expressions are not allowed for update operations."
    000731  aa  160 154 145 170
    000732  aa  040 163 145 154
    000733  aa  145 143 164 151
    000734  aa  157 156 040 145
    000735  aa  170 160 162 145
    000736  aa  163 163 151 157
    000737  aa  156 163 040 141
    000740  aa  162 145 040 156
    000741  aa  157 164 040 141
    000742  aa  154 154 157 167
    000743  aa  145 144 040 146
    000744  aa  157 162 040 165
    000745  aa  160 144 141 164
    000746  aa  145 040 157 160
    000747  aa  145 162 141 164
    000750  aa  151 157 156 163
    000751  aa  056 000 000 000

                                   160  ec conversion_condition,convcon,
                                   161  	(The conversion condition has been signalled during a data conversion attempt.)
                        000045          	segdef  conversion_condition
    000045  a0   077777 000754
    000752  aa  143 157 156 166         	aci  "convcon",8
    000753  aa  143 157 156 040
    000754  aa  115 124 150 145         	acc  "The conversion condition has been signalled during a data conversion attempt."
    000755  aa  040 143 157 156
    000756  aa  166 145 162 163
    000757  aa  151 157 156 040
    000760  aa  143 157 156 144
    000761  aa  151 164 151 157
    000762  aa  156 040 150 141
    000763  aa  163 040 142 145
    000764  aa  145 156 040 163
    000765  aa  151 147 156 141
    000766  aa  154 154 145 144
    000767  aa  040 144 165 162
    000770  aa  151 156 147 040
    000771  aa  141 040 144 141
    000772  aa  164 141 040 143
    000773  aa  157 156 166 145
    000774  aa  162 163 151 157
    000775  aa  156 040 141 164
    000776  aa  164 145 155 160
    000777  aa  164 056 000 000

                                   162  ec ctl_ent_is_dir,ctlisdir,
                                   163  	(The control file path is a directory, not a vfile msf.)
                        000046          	segdef  ctl_ent_is_dir
    000046  a0   077777 001002
    001000  aa  143 164 154 151         	aci  "ctlisdir",8
    001001  aa  163 144 151 162
    001002  aa  066 124 150 145         	acc  "The control file path is a directory, not a vfile msf."
    001003  aa  040 143 157 156
    001004  aa  164 162 157 154
    001005  aa  040 146 151 154
    001006  aa  145 040 160 141
    001007  aa  164 150 040 151
    001010  aa  163 040 141 040
    001011  aa  144 151 162 145
    001012  aa  143 164 157 162
    001013  aa  171 054 040 156
    001014  aa  157 164 040 141
    001015  aa  040 166 146 151
    001016  aa  154 145 040 155
    001017  aa  163 146 056 000

                                   164  ec curr_not_alld,curnalld,
                                   165  	(A -current operation is not permitted for a selection expression containing set operations.)
                        000047          	segdef  curr_not_alld
    000047  a0   077777 001022
    001020  aa  143 165 162 156         	aci  "curnalld",8
    001021  aa  141 154 154 144
    001022  aa  133 101 040 055         	acc  "A -current operation is not permitted for a selection expression containing set operations."
    001023  aa  143 165 162 162
    001024  aa  145 156 164 040
    001025  aa  157 160 145 162
    001026  aa  141 164 151 157
    001027  aa  156 040 151 163
    001030  aa  040 156 157 164
    001031  aa  040 160 145 162
    001032  aa  155 151 164 164
    001033  aa  145 144 040 146
    001034  aa  157 162 040 141
    001035  aa  040 163 145 154
    001036  aa  145 143 164 151
    001037  aa  157 156 040 145
    001040  aa  170 160 162 145
    001041  aa  163 163 151 157
    001042  aa  156 040 143 157
    001043  aa  156 164 141 151
    001044  aa  156 151 156 147
    001045  aa  040 163 145 164
    001046  aa  040 157 160 145
    001047  aa  162 141 164 151
    001050  aa  157 156 163 056

                                   166  ec db_already_open,dbopen,
                                   167  	(Attempt to open a data base before previous openings have been closed.)
                        000050          	segdef  db_already_open
    000050  a0   077777 001053
    001051  aa  144 142 157 160         	aci  "dbopen",8
    001052  aa  145 156 040 040
    001053  aa  106 101 164 164         	acc  "Attempt to open a data base before previous openings have been closed."
    001054  aa  145 155 160 164
    001055  aa  040 164 157 040
    001056  aa  157 160 145 156
    001057  aa  040 141 040 144
    001060  aa  141 164 141 040
    001061  aa  142 141 163 145
    001062  aa  040 142 145 146
    001063  aa  157 162 145 040
    001064  aa  160 162 145 166
    001065  aa  151 157 165 163
    001066  aa  040 157 160 145
    001067  aa  156 151 156 147
    001070  aa  163 040 150 141
    001071  aa  166 145 040 142
    001072  aa  145 145 156 040
    001073  aa  143 154 157 163
    001074  aa  145 144 056 000

                                   168  ec db_busy,db_busy,
                                   169  	(The specified data base is currently busy -- try later.)
                        000051          	segdef  db_busy
    000051  a0   077777 001077
    001075  aa  144 142 137 142         	aci  "db_busy",8
    001076  aa  165 163 171 040
    001077  aa  067 124 150 145         	acc  "The specified data base is currently busy -- try later."
    001100  aa  040 163 160 145
    001101  aa  143 151 146 151
    001102  aa  145 144 040 144
    001103  aa  141 164 141 040
    001104  aa  142 141 163 145
    001105  aa  040 151 163 040
    001106  aa  143 165 162 162
    001107  aa  145 156 164 154
    001110  aa  171 040 142 165
    001111  aa  163 171 040 055
    001112  aa  055 040 164 162
    001113  aa  171 040 154 141
    001114  aa  164 145 162 056

                                   170  ec db_conflict_dead_process,dbcdeadp,
                                   171  	(A scope request cannot be honored due to a conflict with a nonpassive dead process.)
                        000052          	segdef  db_conflict_dead_process
    000052  a0   077777 001117
    001115  aa  144 142 143 144         	aci  "dbcdeadp",8
    001116  aa  145 141 144 160
    001117  aa  123 101 040 163         	acc  "A scope request cannot be honored due to a conflict with a nonpassive dead process."
    001120  aa  143 157 160 145
    001121  aa  040 162 145 161
    001122  aa  165 145 163 164
    001123  aa  040 143 141 156
    001124  aa  156 157 164 040
    001125  aa  142 145 040 150
    001126  aa  157 156 157 162
    001127  aa  145 144 040 144
    001130  aa  165 145 040 164
    001131  aa  157 040 141 040
    001132  aa  143 157 156 146
    001133  aa  154 151 143 164
    001134  aa  040 167 151 164
    001135  aa  150 040 141 040
    001136  aa  156 157 156 160
    001137  aa  141 163 163 151
    001140  aa  166 145 040 144
    001141  aa  145 141 144 040
    001142  aa  160 162 157 143
    001143  aa  145 163 163 056

                                   172  ec diff_comp_domain,dfcmpdm,
                                   173  	(Attempt to compare attributes which are not defined over the same domain.)
                        000053          	segdef  diff_comp_domain
    000053  a0   077777 001146
    001144  aa  144 146 143 155         	aci  "dfcmpdm",8
    001145  aa  160 144 155 040
    001146  aa  111 101 164 164         	acc  "Attempt to compare attributes which are not defined over the same domain."
    001147  aa  145 155 160 164
    001150  aa  040 164 157 040
    001151  aa  143 157 155 160
    001152  aa  141 162 145 040
    001153  aa  141 164 164 162
    001154  aa  151 142 165 164
    001155  aa  145 163 040 167
    001156  aa  150 151 143 150
    001157  aa  040 141 162 145
    001160  aa  040 156 157 164
    001161  aa  040 144 145 146
    001162  aa  151 156 145 144
    001163  aa  040 157 166 145
    001164  aa  162 040 164 150
    001165  aa  145 040 163 141
    001166  aa  155 145 040 144
    001167  aa  157 155 141 151
    001170  aa  156 056 000 000

                                   174  ec dom_integ,dominteg,
                                   175  	(A value to be inserted into the database does not satisfy integrity constraints.)
                        000054          	segdef  dom_integ
    000054  a0   077777 001173
    001171  aa  144 157 155 151         	aci  "dominteg",8
    001172  aa  156 164 145 147
    001173  aa  120 101 040 166         	acc  "A value to be inserted into the database does not satisfy integrity constraints."
    001174  aa  141 154 165 145
    001175  aa  040 164 157 040
    001176  aa  142 145 040 151
    001177  aa  156 163 145 162
    001200  aa  164 145 144 040
    001201  aa  151 156 164 157
    001202  aa  040 164 150 145
    001203  aa  040 144 141 164
    001204  aa  141 142 141 163
    001205  aa  145 040 144 157
    001206  aa  145 163 040 156
    001207  aa  157 164 040 163
    001210  aa  141 164 151 163
    001211  aa  146 171 040 151
    001212  aa  156 164 145 147
    001213  aa  162 151 164 171
    001214  aa  040 143 157 156
    001215  aa  163 164 162 141
    001216  aa  151 156 164 163
    001217  aa  056 000 000 000

                                   176  ec domain_already_defined,domdef,
                                   177  	(The given domain name has a previous definition.)
                        000055          	segdef  domain_already_defined
    000055  a0   077777 001222
    001220  aa  144 157 155 144         	aci  "domdef",8
    001221  aa  145 146 040 040
    001222  aa  060 124 150 145         	acc  "The given domain name has a previous definition."
    001223  aa  040 147 151 166
    001224  aa  145 156 040 144
    001225  aa  157 155 141 151
    001226  aa  156 040 156 141
    001227  aa  155 145 040 150
    001230  aa  141 163 040 141
    001231  aa  040 160 162 145
    001232  aa  166 151 157 165
    001233  aa  163 040 144 145
    001234  aa  146 151 156 151
    001235  aa  164 151 157 156
    001236  aa  056 000 000 000

                                   178  ec dup_invert_dir_name,dupidn,
                                   179  	(Inversion entry not a directory.)
                        000056          	segdef  dup_invert_dir_name
    000056  a0   077777 001241
    001237  aa  144 165 160 151         	aci  "dupidn",8
    001240  aa  144 156 040 040
    001241  aa  040 111 156 166         	acc  "Inversion entry not a directory."
    001242  aa  145 162 163 151
    001243  aa  157 156 040 145
    001244  aa  156 164 162 171
    001245  aa  040 156 157 164
    001246  aa  040 141 040 144
    001247  aa  151 162 145 143
    001250  aa  164 157 162 171
    001251  aa  056 000 000 000

                                   180  ec dup_not_alld,dupnalld,
                                   181  	(A -dup is not allowed in a -current clause or in an operation other than retrieve.)
                        000057          	segdef  dup_not_alld
    000057  a0   077777 001254
    001252  aa  144 165 160 156         	aci  "dupnalld",8
    001253  aa  141 154 154 144
    001254  aa  122 101 040 055         	acc  "A -dup is not allowed in a -current clause or in an operation other than retrieve."
    001255  aa  144 165 160 040
    001256  aa  151 163 040 156
    001257  aa  157 164 040 141
    001260  aa  154 154 157 167
    001261  aa  145 144 040 151
    001262  aa  156 040 141 040
    001263  aa  055 143 165 162
    001264  aa  162 145 156 164
    001265  aa  040 143 154 141
    001266  aa  165 163 145 040
    001267  aa  157 162 040 151
    001270  aa  156 040 141 156
    001271  aa  040 157 160 145
    001272  aa  162 141 164 151
    001273  aa  157 156 040 157
    001274  aa  164 150 145 162
    001275  aa  040 164 150 141
    001276  aa  156 040 162 145
    001277  aa  164 162 151 145
    001300  aa  166 145 056 000

                                   182  ec dup_rel,dup_reln,
                                   183  	(The given relation name has a previous definition.)
                        000060          	segdef  dup_rel
    000060  a0   077777 001303
    001301  aa  144 165 160 137         	aci  "dup_reln",8
    001302  aa  162 145 154 156
    001303  aa  062 124 150 145         	acc  "The given relation name has a previous definition."
    001304  aa  040 147 151 166
    001305  aa  145 156 040 162
    001306  aa  145 154 141 164
    001307  aa  151 157 156 040
    001310  aa  156 141 155 145
    001311  aa  040 150 141 163
    001312  aa  040 141 040 160
    001313  aa  162 145 166 151
    001314  aa  157 165 163 040
    001315  aa  144 145 146 151
    001316  aa  156 151 164 151
    001317  aa  157 156 056 000

                                   184  ec (dup_key,dup_store,duplicate_key),dupstore,
                                   185  	(A tuple with the specified primary key already exists.)
                        000061          	segdef  dup_key
                        000061          	segdef  dup_store
                        000061          	segdef  duplicate_key
    000061  a0   077777 001322
    001320  aa  144 165 160 163         	aci  "dupstore",8
    001321  aa  164 157 162 145
    001322  aa  066 101 040 164         	acc  "A tuple with the specified primary key already exists."
    001323  aa  165 160 154 145
    001324  aa  040 167 151 164
    001325  aa  150 040 164 150
    001326  aa  145 040 163 160
    001327  aa  145 143 151 146
    001330  aa  151 145 144 040
    001331  aa  160 162 151 155
    001332  aa  141 162 171 040
    001333  aa  153 145 171 040
    001334  aa  141 154 162 145
    001335  aa  141 144 171 040
    001336  aa  145 170 151 163
    001337  aa  164 163 056 000

                                   186  ec dup_temp_rel_attr,duptratt,
                                   187  	(A non-unique attribute name was found in the definition of a temporary relation.)
                        000062          	segdef  dup_temp_rel_attr
    000062  a0   077777 001342
    001340  aa  144 165 160 164         	aci  "duptratt",8
    001341  aa  162 141 164 164
    001342  aa  120 101 040 156         	acc  "A non-unique attribute name was found in the definition of a temporary relation."
    001343  aa  157 156 055 165
    001344  aa  156 151 161 165
    001345  aa  145 040 141 164
    001346  aa  164 162 151 142
    001347  aa  165 164 145 040
    001350  aa  156 141 155 145
    001351  aa  040 167 141 163
    001352  aa  040 146 157 165
    001353  aa  156 144 040 151
    001354  aa  156 040 164 150
    001355  aa  145 040 144 145
    001356  aa  146 151 156 151
    001357  aa  164 151 157 156
    001360  aa  040 157 146 040
    001361  aa  141 040 164 145
    001362  aa  155 160 157 162
    001363  aa  141 162 171 040
    001364  aa  162 145 154 141
    001365  aa  164 151 157 156
    001366  aa  056 000 000 000

                                   188  ec duplicate_opt,dup_opt,
                                   189  	(A control option was given more than once.)
                        000063          	segdef  duplicate_opt
    000063  a0   077777 001371
    001367  aa  144 165 160 137         	aci  "dup_opt",8
    001370  aa  157 160 164 040
    001371  aa  052 101 040 143         	acc  "A control option was given more than once."
    001372  aa  157 156 164 162
    001373  aa  157 154 040 157
    001374  aa  160 164 151 157
    001375  aa  156 040 167 141
    001376  aa  163 040 147 151
    001377  aa  166 145 156 040
    001400  aa  155 157 162 145
    001401  aa  040 164 150 141
    001402  aa  156 040 157 156
    001403  aa  143 145 056 000

                                   190  ec duplicate_scope,dupscope,
                                   191  	(Attempt to define scope upon a file more than once.)
                        000064          	segdef  duplicate_scope
    000064  a0   077777 001406
    001404  aa  144 165 160 163         	aci  "dupscope",8
    001405  aa  143 157 160 145
    001406  aa  063 101 164 164         	acc  "Attempt to define scope upon a file more than once."
    001407  aa  145 155 160 164
    001410  aa  040 164 157 040
    001411  aa  144 145 146 151
    001412  aa  156 145 040 163
    001413  aa  143 157 160 145
    001414  aa  040 165 160 157
    001415  aa  156 040 141 040
    001416  aa  146 151 154 145
    001417  aa  040 155 157 162
    001420  aa  145 040 164 150
    001421  aa  141 156 040 157
    001422  aa  156 143 145 056

                                   192  ec empty_range,emprange,
                                   193  	(No range definitions were found following a -range keyword.)
                        000065          	segdef  empty_range
    000065  a0   077777 001425
    001423  aa  145 155 160 162         	aci  "emprange",8
    001424  aa  141 156 147 145
    001425  aa  073 116 157 040         	acc  "No range definitions were found following a -range keyword."
    001426  aa  162 141 156 147
    001427  aa  145 040 144 145
    001430  aa  146 151 156 151
    001431  aa  164 151 157 156
    001432  aa  163 040 167 145
    001433  aa  162 145 040 146
    001434  aa  157 165 156 144
    001435  aa  040 146 157 154
    001436  aa  154 157 167 151
    001437  aa  156 147 040 141
    001440  aa  040 055 162 141
    001441  aa  156 147 145 040
    001442  aa  153 145 171 167
    001443  aa  157 162 144 056

                                   194  ec empty_select,empsel,
                                   195  	(No tuple attribute or tuple variable was specified following a -select or -current keyword.)
                        000066          	segdef  empty_select
    000066  a0   077777 001446
    001444  aa  145 155 160 163         	aci  "empsel",8
    001445  aa  145 154 040 040
    001446  aa  133 116 157 040         	acc  "No tuple attribute or tuple variable was specified following a -select or -current keyword."
    001447  aa  164 165 160 154
    001450  aa  145 040 141 164
    001451  aa  164 162 151 142
    001452  aa  165 164 145 040
    001453  aa  157 162 040 164
    001454  aa  165 160 154 145
    001455  aa  040 166 141 162
    001456  aa  151 141 142 154
    001457  aa  145 040 167 141
    001460  aa  163 040 163 160
    001461  aa  145 143 151 146
    001462  aa  151 145 144 040
    001463  aa  146 157 154 154
    001464  aa  157 167 151 156
    001465  aa  147 040 141 040
    001466  aa  055 163 145 154
    001467  aa  145 143 164 040
    001470  aa  157 162 040 055
    001471  aa  143 165 162 162
    001472  aa  145 156 164 040
    001473  aa  153 145 171 167
    001474  aa  157 162 144 056

                                   196  ec empty_where,empwhere,
                                   197  	(No predicate follows the -where keyword.)
                        000067          	segdef  empty_where
    000067  a0   077777 001477
    001475  aa  145 155 160 167         	aci  "empwhere",8
    001476  aa  150 145 162 145
    001477  aa  050 116 157 040         	acc  "No predicate follows the -where keyword."
    001500  aa  160 162 145 144
    001501  aa  151 143 141 164
    001502  aa  145 040 146 157
    001503  aa  154 154 157 167
    001504  aa  163 040 164 150
    001505  aa  145 040 055 167
    001506  aa  150 145 162 145
    001507  aa  040 153 145 171
    001510  aa  167 157 162 144
    001511  aa  056 000 000 000

                                   198  ec error_condition,errcond,
                                   199  	(The error condition has been signalled during a data conversion attempt.)
                        000070          	segdef  error_condition
    000070  a0   077777 001514
    001512  aa  145 162 162 143         	aci  "errcond",8
    001513  aa  157 156 144 040
    001514  aa  110 124 150 145         	acc  "The error condition has been signalled during a data conversion attempt."
    001515  aa  040 145 162 162
    001516  aa  157 162 040 143
    001517  aa  157 156 144 151
    001520  aa  164 151 157 156
    001521  aa  040 150 141 163
    001522  aa  040 142 145 145
    001523  aa  156 040 163 151
    001524  aa  147 156 141 154
    001525  aa  154 145 144 040
    001526  aa  144 165 162 151
    001527  aa  156 147 040 141
    001530  aa  040 144 141 164
    001531  aa  141 040 143 157
    001532  aa  156 166 145 162
    001533  aa  163 151 157 156
    001534  aa  040 141 164 164
    001535  aa  145 155 160 164
    001536  aa  056 000 000 000

                                   200  ec expr_stack_ovfl,estackov,
                                   201  	(Translator error -- expression stack overflow.)
                        000071          	segdef  expr_stack_ovfl
    000071  a0   077777 001541
    001537  aa  145 163 164 141         	aci  "estackov",8
    001540  aa  143 153 157 166
    001541  aa  056 124 162 141         	acc  "Translator error -- expression stack overflow."
    001542  aa  156 163 154 141
    001543  aa  164 157 162 040
    001544  aa  145 162 162 157
    001545  aa  162 040 055 055
    001546  aa  040 145 170 160
    001547  aa  162 145 163 163
    001550  aa  151 157 156 040
    001551  aa  163 164 141 143
    001552  aa  153 040 157 166
    001553  aa  145 162 146 154
    001554  aa  157 167 056 000

                                   202  ec expr_syntax,exprsyn,
                                   203  	(A syntax error has been detected within an arithmetic expression.)
                        000072          	segdef  expr_syntax
    000072  a0   077777 001557
    001555  aa  145 170 160 162         	aci  "exprsyn",8
    001556  aa  163 171 156 040
    001557  aa  101 101 040 163         	acc  "A syntax error has been detected within an arithmetic expression."
    001560  aa  171 156 164 141
    001561  aa  170 040 145 162
    001562  aa  162 157 162 040
    001563  aa  150 141 163 040
    001564  aa  142 145 145 156
    001565  aa  040 144 145 164
    001566  aa  145 143 164 145
    001567  aa  144 040 167 151
    001570  aa  164 150 151 156
    001571  aa  040 141 156 040
    001572  aa  141 162 151 164
    001573  aa  150 155 145 164
    001574  aa  151 143 040 145
    001575  aa  170 160 162 145
    001576  aa  163 163 151 157
    001577  aa  156 056 000 000

                                   204  ec expression_not_complete,moreexp,
                                   205  	(A relation definition expression is not complete.)
                        000073          	segdef  expression_not_complete
    000073  a0   077777 001602
    001600  aa  155 157 162 145         	aci  "moreexp",8
    001601  aa  145 170 160 040
    001602  aa  061 101 040 162         	acc  "A relation definition expression is not complete."
    001603  aa  145 154 141 164
    001604  aa  151 157 156 040
    001605  aa  144 145 146 151
    001606  aa  156 151 164 151
    001607  aa  157 156 040 145
    001610  aa  170 160 162 145
    001611  aa  163 163 151 157
    001612  aa  156 040 151 163
    001613  aa  040 156 157 164
    001614  aa  040 143 157 155
    001615  aa  160 154 145 164
    001616  aa  145 056 000 000

                                   206  ec ext_data,extdata,
                                   207  	(Data follows the right parenthesis.)
                        000074          	segdef  ext_data
    000074  a0   077777 001621
    001617  aa  145 170 164 144         	aci  "extdata",8
    001620  aa  141 164 141 040
    001621  aa  043 104 141 164         	acc  "Data follows the right parenthesis."
    001622  aa  141 040 146 157
    001623  aa  154 154 157 167
    001624  aa  163 040 164 150
    001625  aa  145 040 162 151
    001626  aa  147 150 164 040
    001627  aa  160 141 162 145
    001630  aa  156 164 150 145
    001631  aa  163 151 163 056

                                   208  ec fixedoverflow_condition,fixoverf,
                                   209  	(The fixed overflow condition has been signalled during a data conversion attempt.)
                        000075          	segdef  fixedoverflow_condition
    000075  a0   077777 001634
    001632  aa  146 151 170 157         	aci  "fixoverf",8
    001633  aa  166 145 162 146
    001634  aa  121 124 150 145         	acc  "The fixed overflow condition has been signalled during a data conversion attempt."
    001635  aa  040 146 151 170
    001636  aa  145 144 040 157
    001637  aa  166 145 162 146
    001640  aa  154 157 167 040
    001641  aa  143 157 156 144
    001642  aa  151 164 151 157
    001643  aa  156 040 150 141
    001644  aa  163 040 142 145
    001645  aa  145 156 040 163
    001646  aa  151 147 156 141
    001647  aa  154 154 145 144
    001650  aa  040 144 165 162
    001651  aa  151 156 147 040
    001652  aa  141 040 144 141
    001653  aa  164 141 040 143
    001654  aa  157 156 166 145
    001655  aa  162 163 151 157
    001656  aa  156 040 141 164
    001657  aa  164 145 155 160
    001660  aa  164 056 000 000

                                   210  ec free_not_quiesced,freenqui,
                                   211  	(Attempt to free a data base which was not quiesced.)
                        000076          	segdef  free_not_quiesced
    000076  a0   077777 001663
    001661  aa  146 162 145 145         	aci  "freenqui",8
    001662  aa  156 161 165 151
    001663  aa  063 101 164 164         	acc  "Attempt to free a data base which was not quiesced."
    001664  aa  145 155 160 164
    001665  aa  040 164 157 040
    001666  aa  146 162 145 145
    001667  aa  040 141 040 144
    001670  aa  141 164 141 040
    001671  aa  142 141 163 145
    001672  aa  040 167 150 151
    001673  aa  143 150 040 167
    001674  aa  141 163 040 156
    001675  aa  157 164 040 161
    001676  aa  165 151 145 163
    001677  aa  143 145 144 056

                                   212  ec fun_syntax,funsyn,
                                   213  	(A syntax error has been detected within a function reference.)
                        000077          	segdef  fun_syntax
    000077  a0   077777 001702
    001700  aa  146 165 156 163         	aci  "funsyn",8
    001701  aa  171 156 040 040
    001702  aa  075 101 040 163         	acc  "A syntax error has been detected within a function reference."
    001703  aa  171 156 164 141
    001704  aa  170 040 145 162
    001705  aa  162 157 162 040
    001706  aa  150 141 163 040
    001707  aa  142 145 145 156
    001710  aa  040 144 145 164
    001711  aa  145 143 164 145
    001712  aa  144 040 167 151
    001713  aa  164 150 151 156
    001714  aa  040 141 040 146
    001715  aa  165 156 143 164
    001716  aa  151 157 156 040
    001717  aa  162 145 146 145
    001720  aa  162 145 156 143
    001721  aa  145 056 000 000

                                   214  ec hold_quiesced_db,hldquidb,
                                   215  	(Attempt to quiesce a data base before previously quiesced data bases have been freed.)
                        000100          	segdef  hold_quiesced_db
    000100  a0   077777 001724
    001722  aa  150 154 144 161         	aci  "hldquidb",8
    001723  aa  165 151 144 142
    001724  aa  125 101 164 164         	acc  "Attempt to quiesce a data base before previously quiesced data bases have been freed."
    001725  aa  145 155 160 164
    001726  aa  040 164 157 040
    001727  aa  161 165 151 145
    001730  aa  163 143 145 040
    001731  aa  141 040 144 141
    001732  aa  164 141 040 142
    001733  aa  141 163 145 040
    001734  aa  142 145 146 157
    001735  aa  162 145 040 160
    001736  aa  162 145 166 151
    001737  aa  157 165 163 154
    001740  aa  171 040 161 165
    001741  aa  151 145 163 143
    001742  aa  145 144 040 144
    001743  aa  141 164 141 040
    001744  aa  142 141 163 145
    001745  aa  163 040 150 141
    001746  aa  166 145 040 142
    001747  aa  145 145 156 040
    001750  aa  146 162 145 145
    001751  aa  144 056 000 000

                                   216  ec ill_term,illterm,
                                   217  	(There is an illegal term in the -where clause.)
                        000101          	segdef  ill_term
    000101  a0   077777 001754
    001752  aa  151 154 154 164         	aci  "illterm",8
    001753  aa  145 162 155 040
    001754  aa  056 124 150 145         	acc  "There is an illegal term in the -where clause."
    001755  aa  162 145 040 151
    001756  aa  163 040 141 156
    001757  aa  040 151 154 154
    001760  aa  145 147 141 154
    001761  aa  040 164 145 162
    001762  aa  155 040 151 156
    001763  aa  040 164 150 145
    001764  aa  040 055 167 150
    001765  aa  145 162 145 040
    001766  aa  143 154 141 165
    001767  aa  163 145 056 000

                                   218  ec illegal_procedure_condition,illprocc,
                                   219  	(The illegal procedure condition has been signalled during a data conversion attempt.)
                        000102          	segdef  illegal_procedure_condition
    000102  a0   077777 001772
    001770  aa  151 154 154 160         	aci  "illprocc",8
    001771  aa  162 157 143 143
    001772  aa  124 124 150 145         	acc  "The illegal procedure condition has been signalled during a data conversion attempt."
    001773  aa  040 151 154 154
    001774  aa  145 147 141 154
    001775  aa  040 160 162 157
    001776  aa  143 145 144 165
    001777  aa  162 145 040 143
    002000  aa  157 156 144 151
    002001  aa  164 151 157 156
    002002  aa  040 150 141 163
    002003  aa  040 142 145 145
    002004  aa  156 040 163 151
    002005  aa  147 156 141 154
    002006  aa  154 145 144 040
    002007  aa  144 165 162 151
    002010  aa  156 147 040 141
    002011  aa  040 144 141 164
    002012  aa  141 040 143 157
    002013  aa  156 166 145 162
    002014  aa  163 151 157 156
    002015  aa  040 141 164 164
    002016  aa  145 155 160 164
    002017  aa  056 000 000 000

                                   220  ec inc_attr_acc,incatacc,
                                   221  	(Incorrect access to attribute.)
                        000103          	segdef  inc_attr_acc
    000103  a0   077777 002022
    002020  aa  151 156 143 141         	aci  "incatacc",8
    002021  aa  164 141 143 143
    002022  aa  036 111 156 143         	acc  "Incorrect access to attribute."
    002023  aa  157 162 162 145
    002024  aa  143 164 040 141
    002025  aa  143 143 145 163
    002026  aa  163 040 164 157
    002027  aa  040 141 164 164
    002030  aa  162 151 142 165
    002031  aa  164 145 056 000

                                   222  ec inc_ready_mode,incrmod,
                                   223  	(The specified operation is not compatible with the current file ready mode.)
                        000104          	segdef  inc_ready_mode
    000104  a0   077777 002034
    002032  aa  151 156 143 162         	aci  "incrmod",8
    002033  aa  155 157 144 040
    002034  aa  113 124 150 145         	acc  "The specified operation is not compatible with the current file ready mode."
    002035  aa  040 163 160 145
    002036  aa  143 151 146 151
    002037  aa  145 144 040 157
    002040  aa  160 145 162 141
    002041  aa  164 151 157 156
    002042  aa  040 151 163 040
    002043  aa  156 157 164 040
    002044  aa  143 157 155 160
    002045  aa  141 164 151 142
    002046  aa  154 145 040 167
    002047  aa  151 164 150 040
    002050  aa  164 150 145 040
    002051  aa  143 165 162 162
    002052  aa  145 156 164 040
    002053  aa  146 151 154 145
    002054  aa  040 162 145 141
    002055  aa  144 171 040 155
    002056  aa  157 144 145 056

                                   224  ec inc_rel_acc,incrlacc,
                                   225  	(Incorrect access to relation.)
                        000105          	segdef  inc_rel_acc
    000105  a0   077777 002061
    002057  aa  151 156 143 162         	aci  "incrlacc",8
    002060  aa  154 141 143 143
    002061  aa  035 111 156 143         	acc  "Incorrect access to relation."
    002062  aa  157 162 162 145
    002063  aa  143 164 040 141
    002064  aa  143 143 145 163
    002065  aa  163 040 164 157
    002066  aa  040 162 145 154
    002067  aa  141 164 151 157
    002070  aa  156 056 000 000

                                   226  ec inc_secure_open,inc_open,
                                   227  	(Attempt to open secured data base from model, or through non-secure submodel.)
                        000106          	segdef  inc_secure_open
    000106  a0   077777 002073
    002071  aa  151 156 143 137         	aci  "inc_open",8
    002072  aa  157 160 145 156
    002073  aa  115 101 164 164         	acc  "Attempt to open secured data base from model, or through non-secure submodel."
    002074  aa  145 155 160 164
    002075  aa  040 164 157 040
    002076  aa  157 160 145 156
    002077  aa  040 163 145 143
    002100  aa  165 162 145 144
    002101  aa  040 144 141 164
    002102  aa  141 040 142 141
    002103  aa  163 145 040 146
    002104  aa  162 157 155 040
    002105  aa  155 157 144 145
    002106  aa  154 054 040 157
    002107  aa  162 040 164 150
    002110  aa  162 157 165 147
    002111  aa  150 040 156 157
    002112  aa  156 055 163 145
    002113  aa  143 165 162 145
    002114  aa  040 163 165 142
    002115  aa  155 157 144 145
    002116  aa  154 056 000 000

                                   228  ec incomp_se,incompse,
                                   229  	(A selection expression of -another is valid only for a retrieve operation.)
                        000107          	segdef  incomp_se
    000107  a0   077777 002121
    002117  aa  151 156 143 157         	aci  "incompse",8
    002120  aa  155 160 163 145
    002121  aa  112 101 040 163         	acc  "A selection expression of -another is valid only for a retrieve operation."
    002122  aa  145 154 145 143
    002123  aa  164 151 157 156
    002124  aa  040 145 170 160
    002125  aa  162 145 163 163
    002126  aa  151 157 156 040
    002127  aa  157 146 040 055
    002130  aa  141 156 157 164
    002131  aa  150 145 162 040
    002132  aa  151 163 040 166
    002133  aa  141 154 151 144
    002134  aa  040 157 156 154
    002135  aa  171 040 146 157
    002136  aa  162 040 141 040
    002137  aa  162 145 164 162
    002140  aa  151 145 166 145
    002141  aa  040 157 160 145
    002142  aa  162 141 164 151
    002143  aa  157 156 056 000

                                   230  ec incomp_se_and_scope,incpsesc,
                                   231  	(The select expression was -another, but the scope has been changed from non-shared to shared mode)
                        000110          	segdef  incomp_se_and_scope
    000110  a0   077777 002146
    002144  aa  151 156 143 160         	aci  "incpsesc",8
    002145  aa  163 145 163 143
    002146  aa  141 124 150 145         	acc  "The select expression was -another, but the scope has been changed from non-shared to shared mode"
    002147  aa  040 163 145 154
    002150  aa  145 143 164 040
    002151  aa  145 170 160 162
    002152  aa  145 163 163 151
    002153  aa  157 156 040 167
    002154  aa  141 163 040 055
    002155  aa  141 156 157 164
    002156  aa  150 145 162 054
    002157  aa  040 142 165 164
    002160  aa  040 164 150 145
    002161  aa  040 163 143 157
    002162  aa  160 145 040 150
    002163  aa  141 163 040 142
    002164  aa  145 145 156 040
    002165  aa  143 150 141 156
    002166  aa  147 145 144 040
    002167  aa  146 162 157 155
    002170  aa  040 156 157 156
    002171  aa  055 163 150 141
    002172  aa  162 145 144 040
    002173  aa  164 157 040 163
    002174  aa  150 141 162 145
    002175  aa  144 040 155 157
    002176  aa  144 145 000 000

                                   232  ec incomplete_declaration,baddcl,
                                   233  	(Incomplete declaration.)
                        000111          	segdef  incomplete_declaration
    000111  a0   077777 002201
    002177  aa  142 141 144 144         	aci  "baddcl",8
    002200  aa  143 154 040 040
    002201  aa  027 111 156 143         	acc  "Incomplete declaration."
    002202  aa  157 155 160 154
    002203  aa  145 164 145 040
    002204  aa  144 145 143 154
    002205  aa  141 162 141 164
    002206  aa  151 157 156 056

                                   234  ec (incons_db,inconsistent_database),inconsdb,
                                   235  	(There is an inconsistency in the database. If this error persists, contact your Data Base Administrator.)
                        000112          	segdef  incons_db
                        000112          	segdef  inconsistent_database
    000112  a0   077777 002211
    002207  aa  151 156 143 157         	aci  "inconsdb",8
    002210  aa  156 163 144 142
    002211  aa  150 124 150 145         	acc  "There is an inconsistency in the database. If this error persists, contact your Data Base Administrator."
    002212  aa  162 145 040 151
    002213  aa  163 040 141 156
    002214  aa  040 151 156 143
    002215  aa  157 156 163 151
    002216  aa  163 164 145 156
    002217  aa  143 171 040 151
    002220  aa  156 040 164 150
    002221  aa  145 040 144 141
    002222  aa  164 141 142 141
    002223  aa  163 145 056 040
    002224  aa  111 146 040 164
    002225  aa  150 151 163 040
    002226  aa  145 162 162 157
    002227  aa  162 040 160 145
    002230  aa  162 163 151 163
    002231  aa  164 163 054 040
    002232  aa  143 157 156 164
    002233  aa  141 143 164 040
    002234  aa  171 157 165 162
    002235  aa  040 104 141 164
    002236  aa  141 040 102 141
    002237  aa  163 145 040 101
    002240  aa  144 155 151 156
    002241  aa  151 163 164 162
    002242  aa  141 164 157 162
    002243  aa  056 000 000 000

                                   236  ec inconsistent_close,badclose,
                                   237  	(The data base has been closed -- but has been locked because of an inconsistency.)
                        000113          	segdef  inconsistent_close
    000113  a0   077777 002246
    002244  aa  142 141 144 143         	aci  "badclose",8
    002245  aa  154 157 163 145
    002246  aa  121 124 150 145         	acc  "The data base has been closed -- but has been locked because of an inconsistency."
    002247  aa  040 144 141 164
    002250  aa  141 040 142 141
    002251  aa  163 145 040 150
    002252  aa  141 163 040 142
    002253  aa  145 145 156 040
    002254  aa  143 154 157 163
    002255  aa  145 144 040 055
    002256  aa  055 040 142 165
    002257  aa  164 040 150 141
    002260  aa  163 040 142 145
    002261  aa  145 156 040 154
    002262  aa  157 143 153 145
    002263  aa  144 040 142 145
    002264  aa  143 141 165 163
    002265  aa  145 040 157 146
    002266  aa  040 141 156 040
    002267  aa  151 156 143 157
    002270  aa  156 163 151 163
    002271  aa  164 145 156 143
    002272  aa  171 056 000 000

                                   238  ec inconsistent_data_length,incondl,
                                   239  	(The selection exression was -another, but the current data length is different than the previous call to retrieve.)
                        000114          	segdef  inconsistent_data_length
    000114  a0   077777 002275
    002273  aa  151 156 143 157         	aci  "incondl",8
    002274  aa  156 144 154 040
    002275  aa  162 124 150 145         	acc  "The selection exression was -another, but the current data length is different than the previous call to retrieve."
    002276  aa  040 163 145 154
    002277  aa  145 143 164 151
    002300  aa  157 156 040 145
    002301  aa  170 162 145 163
    002302  aa  163 151 157 156
    002303  aa  040 167 141 163
    002304  aa  040 055 141 156
    002305  aa  157 164 150 145
    002306  aa  162 054 040 142
    002307  aa  165 164 040 164
    002310  aa  150 145 040 143
    002311  aa  165 162 162 145
    002312  aa  156 164 040 144
    002313  aa  141 164 141 040
    002314  aa  154 145 156 147
    002315  aa  164 150 040 151
    002316  aa  163 040 144 151
    002317  aa  146 146 145 162
    002320  aa  145 156 164 040
    002321  aa  164 150 141 156
    002322  aa  040 164 150 145
    002323  aa  040 160 162 145
    002324  aa  166 151 157 165
    002325  aa  163 040 143 141
    002326  aa  154 154 040 164
    002327  aa  157 040 162 145
    002330  aa  164 162 151 145
    002331  aa  166 145 056 000

                                   240  ec inconsistent_info,inconsis,
                                   241  	(An internal inconsistency has been detected.)
                        000115          	segdef  inconsistent_info
    000115  a0   077777 002334
    002332  aa  151 156 143 157         	aci  "inconsis",8
    002333  aa  156 163 151 163
    002334  aa  054 101 156 040         	acc  "An internal inconsistency has been detected."
    002335  aa  151 156 164 145
    002336  aa  162 156 141 154
    002337  aa  040 151 156 143
    002340  aa  157 156 163 151
    002341  aa  163 164 145 156
    002342  aa  143 171 040 150
    002343  aa  141 163 040 142
    002344  aa  145 145 156 040
    002345  aa  144 145 164 145
    002346  aa  143 164 145 144
    002347  aa  056 000 000 000

                                   242  ec inconsistent_num_files,incnfile,
                                   243  	(Number of files in data base does not match number specified in db_model.)
                        000116          	segdef  inconsistent_num_files
    000116  a0   077777 002352
    002350  aa  151 156 143 156         	aci  "incnfile",8
    002351  aa  146 151 154 145
    002352  aa  111 116 165 155         	acc  "Number of files in data base does not match number specified in db_model."
    002353  aa  142 145 162 040
    002354  aa  157 146 040 146
    002355  aa  151 154 145 163
    002356  aa  040 151 156 040
    002357  aa  144 141 164 141
    002360  aa  040 142 141 163
    002361  aa  145 040 144 157
    002362  aa  145 163 040 156
    002363  aa  157 164 040 155
    002364  aa  141 164 143 150
    002365  aa  040 156 165 155
    002366  aa  142 145 162 040
    002367  aa  163 160 145 143
    002370  aa  151 146 151 145
    002371  aa  144 040 151 156
    002372  aa  040 144 142 137
    002373  aa  155 157 144 145
    002374  aa  154 056 000 000

                                   244  ec inconsistent_options,incn_opt,
                                   245  	(Options supplied cannot be used together.)
                        000117          	segdef  inconsistent_options
    000117  a0   077777 002377
    002375  aa  151 156 143 156         	aci  "incn_opt",8
    002376  aa  137 157 160 164
    002377  aa  051 117 160 164         	acc  "Options supplied cannot be used together."
    002400  aa  151 157 156 163
    002401  aa  040 163 165 160
    002402  aa  160 154 151 145
    002403  aa  144 040 143 141
    002404  aa  156 156 157 164
    002405  aa  040 142 145 040
    002406  aa  165 163 145 144
    002407  aa  040 164 157 147
    002410  aa  145 164 150 145
    002411  aa  162 056 000 000

                                   246  ec inconsistent_submodel,insub,
                                   247  	(Inconsistent submodel.)
                        000120          	segdef  inconsistent_submodel
    000120  a0   077777 002414
    002412  aa  151 156 163 165         	aci  "insub",8
    002413  aa  142 040 040 040
    002414  aa  026 111 156 143         	acc  "Inconsistent submodel."
    002415  aa  157 156 163 151
    002416  aa  163 164 145 156
    002417  aa  164 040 163 165
    002420  aa  142 155 157 144
    002421  aa  145 154 056 000

                                   248  ec inconsistent_transaction_se,intxse,
                                   249  	(The selection expression was -another, but the original selection expression was in another transaction.)
                        000121          	segdef  inconsistent_transaction_se
    000121  a0   077777 002424
    002422  aa  151 156 164 170         	aci  "intxse",8
    002423  aa  163 145 040 040
    002424  aa  150 124 150 145         	acc  "The selection expression was -another, but the original selection expression was in another transaction."
    002425  aa  040 163 145 154
    002426  aa  145 143 164 151
    002427  aa  157 156 040 145
    002430  aa  170 160 162 145
    002431  aa  163 163 151 157
    002432  aa  156 040 167 141
    002433  aa  163 040 055 141
    002434  aa  156 157 164 150
    002435  aa  145 162 054 040
    002436  aa  142 165 164 040
    002437  aa  164 150 145 040
    002440  aa  157 162 151 147
    002441  aa  151 156 141 154
    002442  aa  040 163 145 154
    002443  aa  145 143 164 151
    002444  aa  157 156 040 145
    002445  aa  170 160 162 145
    002446  aa  163 163 151 157
    002447  aa  156 040 167 141
    002450  aa  163 040 151 156
    002451  aa  040 141 156 157
    002452  aa  164 150 145 162
    002453  aa  040 164 162 141
    002454  aa  156 163 141 143
    002455  aa  164 151 157 156
    002456  aa  056 000 000 000

                                   250  ec incorrect_dsmd_seq,dsmd_seq,
                                   251  	(Data submodel definition entry called in incorrect sequence.)
                        000122          	segdef  incorrect_dsmd_seq
    000122  a0   077777 002461
    002457  aa  144 163 155 144         	aci  "dsmd_seq",8
    002460  aa  137 163 145 161
    002461  aa  074 104 141 164         	acc  "Data submodel definition entry called in incorrect sequence."
    002462  aa  141 040 163 165
    002463  aa  142 155 157 144
    002464  aa  145 154 040 144
    002465  aa  145 146 151 156
    002466  aa  151 164 151 157
    002467  aa  156 040 145 156
    002470  aa  164 162 171 040
    002471  aa  143 141 154 154
    002472  aa  145 144 040 151
    002473  aa  156 040 151 156
    002474  aa  143 157 162 162
    002475  aa  145 143 164 040
    002476  aa  163 145 161 165
    002477  aa  145 156 143 145
    002500  aa  056 000 000 000

                                   252  ec insuff_args,fewargs,
                                   253  	(There is no argument corresponding to a .V. in the selection expression.)
                        000123          	segdef  insuff_args
    000123  a0   077777 002503
    002501  aa  146 145 167 141         	aci  "fewargs",8
    002502  aa  162 147 163 040
    002503  aa  110 124 150 145         	acc  "There is no argument corresponding to a .V. in the selection expression."
    002504  aa  162 145 040 151
    002505  aa  163 040 156 157
    002506  aa  040 141 162 147
    002507  aa  165 155 145 156
    002510  aa  164 040 143 157
    002511  aa  162 162 145 163
    002512  aa  160 157 156 144
    002513  aa  151 156 147 040
    002514  aa  164 157 040 141
    002515  aa  040 056 126 056
    002516  aa  040 151 156 040
    002517  aa  164 150 145 040
    002520  aa  163 145 154 145
    002521  aa  143 164 151 157
    002522  aa  156 040 145 170
    002523  aa  160 162 145 163
    002524  aa  163 151 157 156
    002525  aa  056 000 000 000

                                   254  ec (internal_error,rst_logic_error),interr,
                                   255  	(Internal MRDS programming error.  Please contact the MRDS developers.)
                        000124          	segdef  internal_error
                        000124          	segdef  rst_logic_error
    000124  a0   077777 002530
    002526  aa  151 156 164 145         	aci  "interr",8
    002527  aa  162 162 040 040
    002530  aa  105 111 156 164         	acc  "Internal MRDS programming error.  Please contact the MRDS developers."
    002531  aa  145 162 156 141
    002532  aa  154 040 115 122
    002533  aa  104 123 040 160
    002534  aa  162 157 147 162
    002535  aa  141 155 155 151
    002536  aa  156 147 040 145
    002537  aa  162 162 157 162
    002540  aa  056 040 040 120
    002541  aa  154 145 141 163
    002542  aa  145 040 143 157
    002543  aa  156 164 141 143
    002544  aa  164 040 164 150
    002545  aa  145 040 115 122
    002546  aa  104 123 040 144
    002547  aa  145 166 145 154
    002550  aa  157 160 145 162
    002551  aa  163 056 000 000

                                   256  ec inv_attr_name_first_char,ivatrn1c,
                                   257  	(Invalid attribute name; attribute names must begin with an alphabetic character.)
                        000125          	segdef  inv_attr_name_first_char
    000125  a0   077777 002554
    002552  aa  151 166 141 164         	aci  "ivatrn1c",8
    002553  aa  162 156 061 143
    002554  aa  120 111 156 166         	acc  "Invalid attribute name; attribute names must begin with an alphabetic character."
    002555  aa  141 154 151 144
    002556  aa  040 141 164 164
    002557  aa  162 151 142 165
    002560  aa  164 145 040 156
    002561  aa  141 155 145 073
    002562  aa  040 141 164 164
    002563  aa  162 151 142 165
    002564  aa  164 145 040 156
    002565  aa  141 155 145 163
    002566  aa  040 155 165 163
    002567  aa  164 040 142 145
    002570  aa  147 151 156 040
    002571  aa  167 151 164 150
    002572  aa  040 141 156 040
    002573  aa  141 154 160 150
    002574  aa  141 142 145 164
    002575  aa  151 143 040 143
    002576  aa  150 141 162 141
    002577  aa  143 164 145 162
    002600  aa  056 000 000 000

                                   258  ec inv_comparison,invcomp,
                                   259  	(The data types cannot be compared.)
                        000126          	segdef  inv_comparison
    000126  a0   077777 002603
    002601  aa  151 156 166 143         	aci  "invcomp",8
    002602  aa  157 155 160 040
    002603  aa  042 124 150 145         	acc  "The data types cannot be compared."
    002604  aa  040 144 141 164
    002605  aa  141 040 164 171
    002606  aa  160 145 163 040
    002607  aa  143 141 156 156
    002610  aa  157 164 040 142
    002611  aa  145 040 143 157
    002612  aa  155 160 141 162
    002613  aa  145 144 056 000

                                   260  ec inv_domain_name_first_char,ivdmn1c,
                                   261  	(Invalid domain name; domain names must begin with an alphabetic character.)
                        000127          	segdef  inv_domain_name_first_char
    000127  a0   077777 002616
    002614  aa  151 166 144 155         	aci  "ivdmn1c",8
    002615  aa  156 061 143 040
    002616  aa  112 111 156 166         	acc  "Invalid domain name; domain names must begin with an alphabetic character."
    002617  aa  141 154 151 144
    002620  aa  040 144 157 155
    002621  aa  141 151 156 040
    002622  aa  156 141 155 145
    002623  aa  073 040 144 157
    002624  aa  155 141 151 156
    002625  aa  040 156 141 155
    002626  aa  145 163 040 155
    002627  aa  165 163 164 040
    002630  aa  142 145 147 151
    002631  aa  156 040 167 151
    002632  aa  164 150 040 141
    002633  aa  156 040 141 154
    002634  aa  160 150 141 142
    002635  aa  145 164 151 143
    002636  aa  040 143 150 141
    002637  aa  162 141 143 164
    002640  aa  145 162 056 000

                                   262  ec inv_keyword,invkeywd,
                                   263  	(An unrecognizable keyword was found in the selection expression.)
                        000130          	segdef  inv_keyword
    000130  a0   077777 002643
    002641  aa  151 156 166 153         	aci  "invkeywd",8
    002642  aa  145 171 167 144
    002643  aa  100 101 156 040         	acc  "An unrecognizable keyword was found in the selection expression."
    002644  aa  165 156 162 145
    002645  aa  143 157 147 156
    002646  aa  151 172 141 142
    002647  aa  154 145 040 153
    002650  aa  145 171 167 157
    002651  aa  162 144 040 167
    002652  aa  141 163 040 146
    002653  aa  157 165 156 144
    002654  aa  040 151 156 040
    002655  aa  164 150 145 040
    002656  aa  163 145 154 145
    002657  aa  143 164 151 157
    002660  aa  156 040 145 170
    002661  aa  160 162 145 163
    002662  aa  163 151 157 156
    002663  aa  056 000 000 000

                                   264  ec inv_literal_type,invlityp,
                                   265  	(The value of a constant is not a string or arithmetic data type.)
                        000131          	segdef  inv_literal_type
    000131  a0   077777 002666
    002664  aa  151 156 166 154         	aci  "invlityp",8
    002665  aa  151 164 171 160
    002666  aa  100 124 150 145         	acc  "The value of a constant is not a string or arithmetic data type."
    002667  aa  040 166 141 154
    002670  aa  165 145 040 157
    002671  aa  146 040 141 040
    002672  aa  143 157 156 163
    002673  aa  164 141 156 164
    002674  aa  040 151 163 040
    002675  aa  156 157 164 040
    002676  aa  141 040 163 164
    002677  aa  162 151 156 147
    002700  aa  040 157 162 040
    002701  aa  141 162 151 164
    002702  aa  150 155 145 164
    002703  aa  151 143 040 144
    002704  aa  141 164 141 040
    002705  aa  164 171 160 145
    002706  aa  056 000 000 000

                                   266  ec inv_operator,invop,
                                   267  	(The relational operator index is not valid.)
                        000132          	segdef  inv_operator
    000132  a0   077777 002711
    002707  aa  151 156 166 157         	aci  "invop",8
    002710  aa  160 040 040 040
    002711  aa  053 124 150 145         	acc  "The relational operator index is not valid."
    002712  aa  040 162 145 154
    002713  aa  141 164 151 157
    002714  aa  156 141 154 040
    002715  aa  157 160 145 162
    002716  aa  141 164 157 162
    002717  aa  040 151 156 144
    002720  aa  145 170 040 151
    002721  aa  163 040 156 157
    002722  aa  164 040 166 141
    002723  aa  154 151 144 056

                                   268  ec inv_rel_name_first_char,ivrnm1c,
                                   269  	(Invalid relation name; relation names must begin with an alphabetic character.)
                        000133          	segdef  inv_rel_name_first_char
    000133  a0   077777 002726
    002724  aa  151 166 162 156         	aci  "ivrnm1c",8
    002725  aa  155 061 143 040
    002726  aa  116 111 156 166         	acc  "Invalid relation name; relation names must begin with an alphabetic character."
    002727  aa  141 154 151 144
    002730  aa  040 162 145 154
    002731  aa  141 164 151 157
    002732  aa  156 040 156 141
    002733  aa  155 145 073 040
    002734  aa  162 145 154 141
    002735  aa  164 151 157 156
    002736  aa  040 156 141 155
    002737  aa  145 163 040 155
    002740  aa  165 163 164 040
    002741  aa  142 145 147 151
    002742  aa  156 040 167 151
    002743  aa  164 150 040 141
    002744  aa  156 040 141 154
    002745  aa  160 150 141 142
    002746  aa  145 164 151 143
    002747  aa  040 143 150 141
    002750  aa  162 141 143 164
    002751  aa  145 162 056 000

                                   270  ec inv_string,invstrng,
                                   271  	(An invalid string constant has been specified in the selection expression.)
                        000134          	segdef  inv_string
    000134  a0   077777 002754
    002752  aa  151 156 166 163         	aci  "invstrng",8
    002753  aa  164 162 156 147
    002754  aa  112 101 156 040         	acc  "An invalid string constant has been specified in the selection expression."
    002755  aa  151 156 166 141
    002756  aa  154 151 144 040
    002757  aa  163 164 162 151
    002760  aa  156 147 040 143
    002761  aa  157 156 163 164
    002762  aa  141 156 164 040
    002763  aa  150 141 163 040
    002764  aa  142 145 145 156
    002765  aa  040 163 160 145
    002766  aa  143 151 146 151
    002767  aa  145 144 040 151
    002770  aa  156 040 164 150
    002771  aa  145 040 163 145
    002772  aa  154 145 143 164
    002773  aa  151 157 156 040
    002774  aa  145 170 160 162
    002775  aa  145 163 163 151
    002776  aa  157 156 056 000

                                   272  ec inv_string_len,invstrln,
                                   273  	(An invalid repetition factor has been specified for a string constant.)
                        000135          	segdef  inv_string_len
    000135  a0   077777 003001
    002777  aa  151 156 166 163         	aci  "invstrln",8
    003000  aa  164 162 154 156
    003001  aa  106 101 156 040         	acc  "An invalid repetition factor has been specified for a string constant."
    003002  aa  151 156 166 141
    003003  aa  154 151 144 040
    003004  aa  162 145 160 145
    003005  aa  164 151 164 151
    003006  aa  157 156 040 146
    003007  aa  141 143 164 157
    003010  aa  162 040 150 141
    003011  aa  163 040 142 145
    003012  aa  145 156 040 163
    003013  aa  160 145 143 151
    003014  aa  146 151 145 144
    003015  aa  040 146 157 162
    003016  aa  040 141 040 163
    003017  aa  164 162 151 156
    003020  aa  147 040 143 157
    003021  aa  156 163 164 141
    003022  aa  156 164 056 000

                                   274  ec inv_token,invtoken,
                                   275  	(An unrecognizable token was found in the selection expression.)
                        000136          	segdef  inv_token
    000136  a0   077777 003025
    003023  aa  151 156 166 164         	aci  "invtoken",8
    003024  aa  157 153 145 156
    003025  aa  076 101 156 040         	acc  "An unrecognizable token was found in the selection expression."
    003026  aa  165 156 162 145
    003027  aa  143 157 147 156
    003030  aa  151 172 141 142
    003031  aa  154 145 040 164
    003032  aa  157 153 145 156
    003033  aa  040 167 141 163
    003034  aa  040 146 157 165
    003035  aa  156 144 040 151
    003036  aa  156 040 164 150
    003037  aa  145 040 163 145
    003040  aa  154 145 143 164
    003041  aa  151 157 156 040
    003042  aa  145 170 160 162
    003043  aa  145 163 163 151
    003044  aa  157 156 056 000

                                   276  ec inval_comp_expr,invlcomp,
                                   277  	(Invalid selection expression for compile.)
                        000137          	segdef  inval_comp_expr
    000137  a0   077777 003047
    003045  aa  151 156 166 154         	aci  "invlcomp",8
    003046  aa  143 157 155 160
    003047  aa  051 111 156 166         	acc  "Invalid selection expression for compile."
    003050  aa  141 154 151 144
    003051  aa  040 163 145 154
    003052  aa  145 143 164 151
    003053  aa  157 156 040 145
    003054  aa  170 160 162 145
    003055  aa  163 163 151 157
    003056  aa  156 040 146 157
    003057  aa  162 040 143 157
    003060  aa  155 160 151 154
    003061  aa  145 056 000 000

                                   278  ec inval_del_expr,invl_del,
                                   279  	(Invalid selection expression for delete.)
                        000140          	segdef  inval_del_expr
    000140  a0   077777 003064
    003062  aa  151 156 166 154         	aci  "invl_del",8
    003063  aa  137 144 145 154
    003064  aa  050 111 156 166         	acc  "Invalid selection expression for delete."
    003065  aa  141 154 151 144
    003066  aa  040 163 145 154
    003067  aa  145 143 164 151
    003070  aa  157 156 040 145
    003071  aa  170 160 162 145
    003072  aa  163 163 151 157
    003073  aa  156 040 146 157
    003074  aa  162 040 144 145
    003075  aa  154 145 164 145
    003076  aa  056 000 000 000

                                   280  ec inval_dtr_expr,invl_dtr,
                                   281  	(Invalid selection expression for define_temp_rel.)
                        000141          	segdef  inval_dtr_expr
    000141  a0   077777 003101
    003077  aa  151 156 166 154         	aci  "invl_dtr",8
    003100  aa  137 144 164 162
    003101  aa  061 111 156 166         	acc  "Invalid selection expression for define_temp_rel."
    003102  aa  141 154 151 144
    003103  aa  040 163 145 154
    003104  aa  145 143 164 151
    003105  aa  157 156 040 145
    003106  aa  170 160 162 145
    003107  aa  163 163 151 157
    003110  aa  156 040 146 157
    003111  aa  162 040 144 145
    003112  aa  146 151 156 145
    003113  aa  137 164 145 155
    003114  aa  160 137 162 145
    003115  aa  154 056 000 000

                                   282  ec inval_mod_expr,invl_mod,
                                   283  	(Invalid selection expression for modify.)
                        000142          	segdef  inval_mod_expr
    000142  a0   077777 003120
    003116  aa  151 156 166 154         	aci  "invl_mod",8
    003117  aa  137 155 157 144
    003120  aa  050 111 156 166         	acc  "Invalid selection expression for modify."
    003121  aa  141 154 151 144
    003122  aa  040 163 145 154
    003123  aa  145 143 164 151
    003124  aa  157 156 040 145
    003125  aa  170 160 162 145
    003126  aa  163 163 151 157
    003127  aa  156 040 146 157
    003130  aa  162 040 155 157
    003131  aa  144 151 146 171
    003132  aa  056 000 000 000

                                   284  ec inval_rtrv_expr,bad_rtrv,
                                   285  	(Invalid selection expression for retrieve.)
                        000143          	segdef  inval_rtrv_expr
    000143  a0   077777 003135
    003133  aa  142 141 144 137         	aci  "bad_rtrv",8
    003134  aa  162 164 162 166
    003135  aa  052 111 156 166         	acc  "Invalid selection expression for retrieve."
    003136  aa  141 154 151 144
    003137  aa  040 163 145 154
    003140  aa  145 143 164 151
    003141  aa  157 156 040 145
    003142  aa  170 160 162 145
    003143  aa  163 163 151 157
    003144  aa  156 040 146 157
    003145  aa  162 040 162 145
    003146  aa  164 162 151 145
    003147  aa  166 145 056 000

                                   286  ec invalid_db_index,badindex,
                                   287  	(Specified data base index does not correspond to currently open data base.)
                        000144          	segdef  invalid_db_index
    000144  a0   077777 003152
    003150  aa  142 141 144 151         	aci  "badindex",8
    003151  aa  156 144 145 170
    003152  aa  112 123 160 145         	acc  "Specified data base index does not correspond to currently open data base."
    003153  aa  143 151 146 151
    003154  aa  145 144 040 144
    003155  aa  141 164 141 040
    003156  aa  142 141 163 145
    003157  aa  040 151 156 144
    003160  aa  145 170 040 144
    003161  aa  157 145 163 040
    003162  aa  156 157 164 040
    003163  aa  143 157 162 162
    003164  aa  145 163 160 157
    003165  aa  156 144 040 164
    003166  aa  157 040 143 165
    003167  aa  162 162 145 156
    003170  aa  164 154 171 040
    003171  aa  157 160 145 156
    003172  aa  040 144 141 164
    003173  aa  141 040 142 141
    003174  aa  163 145 056 000

                                   288  ec invalid_dec_data,invdcdta,
                                   289  	(Invaliddata.)
                        000145          	segdef  invalid_dec_data
    000145  a0   077777 003177
    003175  aa  151 156 166 144         	aci  "invdcdta",8
    003176  aa  143 144 164 141
    003177  aa  014 111 156 166         	acc  "Invaliddata."
    003200  aa  141 154 151 144
    003201  aa  144 141 164 141
    003202  aa  056 000 000 000

                                   290  ec invalid_dm_descriptor,indmdesc,
                                   291  	(Data type given by descriptor not supported by Data Base Manager.)
                        000146          	segdef  invalid_dm_descriptor
    000146  a0   077777 003205
    003203  aa  151 156 144 155         	aci  "indmdesc",8
    003204  aa  144 145 163 143
    003205  aa  101 104 141 164         	acc  "Data type given by descriptor not supported by Data Base Manager."
    003206  aa  141 040 164 171
    003207  aa  160 145 040 147
    003210  aa  151 166 145 156
    003211  aa  040 142 171 040
    003212  aa  144 145 163 143
    003213  aa  162 151 160 164
    003214  aa  157 162 040 156
    003215  aa  157 164 040 163
    003216  aa  165 160 160 157
    003217  aa  162 164 145 144
    003220  aa  040 142 171 040
    003221  aa  104 141 164 141
    003222  aa  040 102 141 163
    003223  aa  145 040 115 141
    003224  aa  156 141 147 145
    003225  aa  162 056 000 000

                                   292  ec invalid_opening_mode,inopmode,
                                   293  	(Invalid opening mode.)
                        000147          	segdef  invalid_opening_mode
    000147  a0   077777 003230
    003226  aa  151 156 157 160         	aci  "inopmode",8
    003227  aa  155 157 144 145
    003230  aa  025 111 156 166         	acc  "Invalid opening mode."
    003231  aa  141 154 151 144
    003232  aa  040 157 160 145
    003233  aa  156 151 156 147
    003234  aa  040 155 157 144
    003235  aa  145 056 000 000

                                   294  ec invalid_precision,badprec,
                                   295  	(Invalid precision specification.)
                        000150          	segdef  invalid_precision
    000150  a0   077777 003240
    003236  aa  142 141 144 160         	aci  "badprec",8
    003237  aa  162 145 143 040
    003240  aa  040 111 156 166         	acc  "Invalid precision specification."
    003241  aa  141 154 151 144
    003242  aa  040 160 162 145
    003243  aa  143 151 163 151
    003244  aa  157 156 040 163
    003245  aa  160 145 143 151
    003246  aa  146 151 143 141
    003247  aa  164 151 157 156
    003250  aa  056 000 000 000

                                   296  ec invalid_rel,invrel,
                                   297  	(Submodel relation failed to perfectly validate against the model relation.)
                        000151          	segdef  invalid_rel
    000151  a0   077777 003253
    003251  aa  151 156 166 162         	aci  "invrel",8
    003252  aa  145 154 040 040
    003253  aa  112 123 165 142         	acc  "Submodel relation failed to perfectly validate against the model relation."
    003254  aa  155 157 144 145
    003255  aa  154 040 162 145
    003256  aa  154 141 164 151
    003257  aa  157 156 040 146
    003260  aa  141 151 154 145
    003261  aa  144 040 164 157
    003262  aa  040 160 145 162
    003263  aa  146 145 143 164
    003264  aa  154 171 040 166
    003265  aa  141 154 151 144
    003266  aa  141 164 145 040
    003267  aa  141 147 141 151
    003270  aa  156 163 164 040
    003271  aa  164 150 145 040
    003272  aa  155 157 144 145
    003273  aa  154 040 162 145
    003274  aa  154 141 164 151
    003275  aa  157 156 056 000

                                   298  ec invalid_rel_index,invrelno,
                                   299  	(An invalid relation index has been given.)
                        000152          	segdef  invalid_rel_index
    000152  a0   077777 003300
    003276  aa  151 156 166 162         	aci  "invrelno",8
    003277  aa  145 154 156 157
    003300  aa  051 101 156 040         	acc  "An invalid relation index has been given."
    003301  aa  151 156 166 141
    003302  aa  154 151 144 040
    003303  aa  162 145 154 141
    003304  aa  164 151 157 156
    003305  aa  040 151 156 144
    003306  aa  145 170 040 150
    003307  aa  141 163 040 142
    003310  aa  145 145 156 040
    003311  aa  147 151 166 145
    003312  aa  156 056 000 000

                                   300  ec invalid_scale,badscale,
                                   301  	(Invalid scale specification.)
                        000153          	segdef  invalid_scale
    000153  a0   077777 003315
    003313  aa  142 141 144 163         	aci  "badscale",8
    003314  aa  143 141 154 145
    003315  aa  034 111 156 166         	acc  "Invalid scale specification."
    003316  aa  141 154 151 144
    003317  aa  040 163 143 141
    003320  aa  154 145 040 163
    003321  aa  160 145 143 151
    003322  aa  146 151 143 141
    003323  aa  164 151 157 156
    003324  aa  056 000 000 000

                                   302  ec invalid_select_sets,invl_ss,
                                   303  	(An invalid select_sets sequence has been detected.)
                        000154          	segdef  invalid_select_sets
    000154  a0   077777 003327
    003325  aa  151 156 166 154         	aci  "invl_ss",8
    003326  aa  137 163 163 040
    003327  aa  062 101 156 040         	acc  "An invalid select_sets sequence has been detected."
    003330  aa  151 156 166 141
    003331  aa  154 151 144 040
    003332  aa  163 145 154 145
    003333  aa  143 164 137 163
    003334  aa  145 164 163 040
    003335  aa  163 145 161 165
    003336  aa  145 156 143 145
    003337  aa  040 150 141 163
    003340  aa  040 142 145 145
    003341  aa  156 040 144 145
    003342  aa  164 145 143 164
    003343  aa  145 144 056 000

                                   304  ec invalid_string_length,badstrlg,
                                   305  	(Invalid string length.)
                        000155          	segdef  invalid_string_length
    000155  a0   077777 003346
    003344  aa  142 141 144 163         	aci  "badstrlg",8
    003345  aa  164 162 154 147
    003346  aa  026 111 156 166         	acc  "Invalid string length."
    003347  aa  141 154 151 144
    003350  aa  040 163 164 162
    003351  aa  151 156 147 040
    003352  aa  154 145 156 147
    003353  aa  164 150 056 000

                                   306  ec key_encd_ovfl,kencdov,
                                   307  	(An overflow has occurred while encoding a floating point key/index value.)
                        000156          	segdef  key_encd_ovfl
    000156  a0   077777 003356
    003354  aa  153 145 156 143         	aci  "kencdov",8
    003355  aa  144 157 166 040
    003356  aa  111 101 156 040         	acc  "An overflow has occurred while encoding a floating point key/index value."
    003357  aa  157 166 145 162
    003360  aa  146 154 157 167
    003361  aa  040 150 141 163
    003362  aa  040 157 143 143
    003363  aa  165 162 162 145
    003364  aa  144 040 167 150
    003365  aa  151 154 145 040
    003366  aa  145 156 143 157
    003367  aa  144 151 156 147
    003370  aa  040 141 040 146
    003371  aa  154 157 141 164
    003372  aa  151 156 147 040
    003373  aa  160 157 151 156
    003374  aa  164 040 153 145
    003375  aa  171 057 151 156
    003376  aa  144 145 170 040
    003377  aa  166 141 154 165
    003400  aa  145 056 000 000

                                   308  ec list_duplicate,list_dup,
                                   309  	(A duplicate appears in the given list.)
                        000157          	segdef  list_duplicate
    000157  a0   077777 003403
    003401  aa  154 151 163 164         	aci  "list_dup",8
    003402  aa  137 144 165 160
    003403  aa  046 101 040 144         	acc  "A duplicate appears in the given list."
    003404  aa  165 160 154 151
    003405  aa  143 141 164 145
    003406  aa  040 141 160 160
    003407  aa  145 141 162 163
    003410  aa  040 151 156 040
    003411  aa  164 150 145 040
    003412  aa  147 151 166 145
    003413  aa  156 040 154 151
    003414  aa  163 164 056 000

                                   310  ec lit_string_ovfl,litsovfl,
                                   311  	(Translator error -- the literal area has overflowed.)
                        000160          	segdef  lit_string_ovfl
    000160  a0   077777 003417
    003415  aa  154 151 164 163         	aci  "litsovfl",8
    003416  aa  157 166 146 154
    003417  aa  064 124 162 141         	acc  "Translator error -- the literal area has overflowed."
    003420  aa  156 163 154 141
    003421  aa  164 157 162 040
    003422  aa  145 162 162 157
    003423  aa  162 040 055 055
    003424  aa  040 164 150 145
    003425  aa  040 154 151 164
    003426  aa  145 162 141 154
    003427  aa  040 141 162 145
    003430  aa  141 040 150 141
    003431  aa  163 040 157 166
    003432  aa  145 162 146 154
    003433  aa  157 167 145 144
    003434  aa  056 000 000 000

                                   312  ec long_ident,longid,
                                   313  	(An identifier exceeds the maximum length of 32 characters.)
                        000161          	segdef  long_ident
    000161  a0   077777 003437
    003435  aa  154 157 156 147         	aci  "longid",8
    003436  aa  151 144 040 040
    003437  aa  072 101 156 040         	acc  "An identifier exceeds the maximum length of 32 characters."
    003440  aa  151 144 145 156
    003441  aa  164 151 146 151
    003442  aa  145 162 040 145
    003443  aa  170 143 145 145
    003444  aa  144 163 040 164
    003445  aa  150 145 040 155
    003446  aa  141 170 151 155
    003447  aa  165 155 040 154
    003450  aa  145 156 147 164
    003451  aa  150 040 157 146
    003452  aa  040 063 062 040
    003453  aa  143 150 141 162
    003454  aa  141 143 164 145
    003455  aa  162 163 056 000

                                   314  ec long_index,longind,
                                   315  	(An index attribute is longer than the maximum key length allowed.)
                        000162          	segdef  long_index
    000162  a0   077777 003460
    003456  aa  154 157 156 147         	aci  "longind",8
    003457  aa  151 156 144 040
    003460  aa  101 101 156 040         	acc  "An index attribute is longer than the maximum key length allowed."
    003461  aa  151 156 144 145
    003462  aa  170 040 141 164
    003463  aa  164 162 151 142
    003464  aa  165 164 145 040
    003465  aa  151 163 040 154
    003466  aa  157 156 147 145
    003467  aa  162 040 164 150
    003470  aa  141 156 040 164
    003471  aa  150 145 040 155
    003472  aa  141 170 151 155
    003473  aa  165 155 040 153
    003474  aa  145 171 040 154
    003475  aa  145 156 147 164
    003476  aa  150 040 141 154
    003477  aa  154 157 167 145
    003500  aa  144 056 000 000

                                   316  ec long_key,longkey,
                                   317  	(The primary key is longer than the maximum length allowed.)
                        000163          	segdef  long_key
    000163  a0   077777 003503
    003501  aa  154 157 156 147         	aci  "longkey",8
    003502  aa  153 145 171 040
    003503  aa  072 124 150 145         	acc  "The primary key is longer than the maximum length allowed."
    003504  aa  040 160 162 151
    003505  aa  155 141 162 171
    003506  aa  040 153 145 171
    003507  aa  040 151 163 040
    003510  aa  154 157 156 147
    003511  aa  145 162 040 164
    003512  aa  150 141 156 040
    003513  aa  164 150 145 040
    003514  aa  155 141 170 151
    003515  aa  155 165 155 040
    003516  aa  154 145 156 147
    003517  aa  164 150 040 141
    003520  aa  154 154 157 167
    003521  aa  145 144 056 000

                                   318  ec max_and_groups,maxag,
                                   319  	(Translator error -- maximum number of 'and' groups exceeded.)
                        000164          	segdef  max_and_groups
    000164  a0   077777 003524
    003522  aa  155 141 170 141         	aci  "maxag",8
    003523  aa  147 040 040 040
    003524  aa  074 124 162 141         	acc  "Translator error -- maximum number of 'and' groups exceeded."
    003525  aa  156 163 154 141
    003526  aa  164 157 162 040
    003527  aa  145 162 162 157
    003530  aa  162 040 055 055
    003531  aa  040 155 141 170
    003532  aa  151 155 165 155
    003533  aa  040 156 165 155
    003534  aa  142 145 162 040
    003535  aa  157 146 040 047
    003536  aa  141 156 144 047
    003537  aa  040 147 162 157
    003540  aa  165 160 163 040
    003541  aa  145 170 143 145
    003542  aa  145 144 145 144
    003543  aa  056 000 000 000

                                   320  ec max_and_terms,maxat,
                                   321  	(Translator error -- maximum number of terms in 'and' group exceeded.)
                        000165          	segdef  max_and_terms
    000165  a0   077777 003546
    003544  aa  155 141 170 141         	aci  "maxat",8
    003545  aa  164 040 040 040
    003546  aa  104 124 162 141         	acc  "Translator error -- maximum number of terms in 'and' group exceeded."
    003547  aa  156 163 154 141
    003550  aa  164 157 162 040
    003551  aa  145 162 162 157
    003552  aa  162 040 055 055
    003553  aa  040 155 141 170
    003554  aa  151 155 165 155
    003555  aa  040 156 165 155
    003556  aa  142 145 162 040
    003557  aa  157 146 040 164
    003560  aa  145 162 155 163
    003561  aa  040 151 156 040
    003562  aa  047 141 156 144
    003563  aa  047 040 147 162
    003564  aa  157 165 160 040
    003565  aa  145 170 143 145
    003566  aa  145 144 145 144
    003567  aa  056 000 000 000

                                   322  ec max_attributes,maxattrs,
                                   323  	(The maximum number of attributes allowed per relation has been exceeded.)
                        000166          	segdef  max_attributes
    000166  a0   077777 003572
    003570  aa  155 141 170 141         	aci  "maxattrs",8
    003571  aa  164 164 162 163
    003572  aa  110 124 150 145         	acc  "The maximum number of attributes allowed per relation has been exceeded."
    003573  aa  040 155 141 170
    003574  aa  151 155 165 155
    003575  aa  040 156 165 155
    003576  aa  142 145 162 040
    003577  aa  157 146 040 141
    003600  aa  164 164 162 151
    003601  aa  142 165 164 145
    003602  aa  163 040 141 154
    003603  aa  154 157 167 145
    003604  aa  144 040 160 145
    003605  aa  162 040 162 145
    003606  aa  154 141 164 151
    003607  aa  157 156 040 150
    003610  aa  141 163 040 142
    003611  aa  145 145 156 040
    003612  aa  145 170 143 145
    003613  aa  145 144 145 144
    003614  aa  056 000 000 000

                                   324  ec max_expr_items,maxexitm,
                                   325  	(Too many items have been specified in an arithmetic expression.)
                        000167          	segdef  max_expr_items
    000167  a0   077777 003617
    003615  aa  155 141 170 145         	aci  "maxexitm",8
    003616  aa  170 151 164 155
    003617  aa  077 124 157 157         	acc  "Too many items have been specified in an arithmetic expression."
    003620  aa  040 155 141 156
    003621  aa  171 040 151 164
    003622  aa  145 155 163 040
    003623  aa  150 141 166 145
    003624  aa  040 142 145 145
    003625  aa  156 040 163 160
    003626  aa  145 143 151 146
    003627  aa  151 145 144 040
    003630  aa  151 156 040 141
    003631  aa  156 040 141 162
    003632  aa  151 164 150 155
    003633  aa  145 164 151 143
    003634  aa  040 145 170 160
    003635  aa  162 145 163 163
    003636  aa  151 157 156 056

                                   326  ec max_indexes,maxindxs,
                                   327  	(The maximum number of secondaryily indexed attributes for a single relation has been exceeded.)
                        000170          	segdef  max_indexes
    000170  a0   077777 003641
    003637  aa  155 141 170 151         	aci  "maxindxs",8
    003640  aa  156 144 170 163
    003641  aa  136 124 150 145         	acc  "The maximum number of secondaryily indexed attributes for a single relation has been exceeded."
    003642  aa  040 155 141 170
    003643  aa  151 155 165 155
    003644  aa  040 156 165 155
    003645  aa  142 145 162 040
    003646  aa  157 146 040 163
    003647  aa  145 143 157 156
    003650  aa  144 141 162 171
    003651  aa  151 154 171 040
    003652  aa  151 156 144 145
    003653  aa  170 145 144 040
    003654  aa  141 164 164 162
    003655  aa  151 142 165 164
    003656  aa  145 163 040 146
    003657  aa  157 162 040 141
    003660  aa  040 163 151 156
    003661  aa  147 154 145 040
    003662  aa  162 145 154 141
    003663  aa  164 151 157 156
    003664  aa  040 150 141 163
    003665  aa  040 142 145 145
    003666  aa  156 040 145 170
    003667  aa  143 145 145 144
    003670  aa  145 144 056 000

                                   328  ec max_rels,max_rels,
                                   329  	(The maximum number of relation allowed per data base has been exceeded.)
                        000171          	segdef  max_rels
    000171  a0   077777 003673
    003671  aa  155 141 170 137         	aci  "max_rels",8
    003672  aa  162 145 154 163
    003673  aa  107 124 150 145         	acc  "The maximum number of relation allowed per data base has been exceeded."
    003674  aa  040 155 141 170
    003675  aa  151 155 165 155
    003676  aa  040 156 165 155
    003677  aa  142 145 162 040
    003700  aa  157 146 040 162
    003701  aa  145 154 141 164
    003702  aa  151 157 156 040
    003703  aa  141 154 154 157
    003704  aa  167 145 144 040
    003705  aa  160 145 162 040
    003706  aa  144 141 164 141
    003707  aa  040 142 141 163
    003710  aa  145 040 150 141
    003711  aa  163 040 142 145
    003712  aa  145 156 040 145
    003713  aa  170 143 145 145
    003714  aa  144 145 144 056

                                   330  ec max_retr_len,mxretrln,
                                   331  	(The selected attributes exceeded the maximum temporary space available to hold them.)
                        000172          	segdef  max_retr_len
    000172  a0   077777 003717
    003715  aa  155 170 162 145         	aci  "mxretrln",8
    003716  aa  164 162 154 156
    003717  aa  124 124 150 145         	acc  "The selected attributes exceeded the maximum temporary space available to hold them."
    003720  aa  040 163 145 154
    003721  aa  145 143 164 145
    003722  aa  144 040 141 164
    003723  aa  164 162 151 142
    003724  aa  165 164 145 163
    003725  aa  040 145 170 143
    003726  aa  145 145 144 145
    003727  aa  144 040 164 150
    003730  aa  145 040 155 141
    003731  aa  170 151 155 165
    003732  aa  155 040 164 145
    003733  aa  155 160 157 162
    003734  aa  141 162 171 040
    003735  aa  163 160 141 143
    003736  aa  145 040 141 166
    003737  aa  141 151 154 141
    003740  aa  142 154 145 040
    003741  aa  164 157 040 150
    003742  aa  157 154 144 040
    003743  aa  164 150 145 155
    003744  aa  056 000 000 000

                                   332  ec max_select_items,maxsel,
                                   333  	(Too many items have been specified for selection in a -current or -select clause.)
                        000173          	segdef  max_select_items
    000173  a0   077777 003747
    003745  aa  155 141 170 163         	aci  "maxsel",8
    003746  aa  145 154 040 040
    003747  aa  121 124 157 157         	acc  "Too many items have been specified for selection in a -current or -select clause."
    003750  aa  040 155 141 156
    003751  aa  171 040 151 164
    003752  aa  145 155 163 040
    003753  aa  150 141 166 145
    003754  aa  040 142 145 145
    003755  aa  156 040 163 160
    003756  aa  145 143 151 146
    003757  aa  151 145 144 040
    003760  aa  146 157 162 040
    003761  aa  163 145 154 145
    003762  aa  143 164 151 157
    003763  aa  156 040 151 156
    003764  aa  040 141 040 055
    003765  aa  143 165 162 162
    003766  aa  145 156 164 040
    003767  aa  157 162 040 055
    003770  aa  163 145 154 145
    003771  aa  143 164 040 143
    003772  aa  154 141 165 163
    003773  aa  145 056 000 000

                                   334  ec max_sf_args,mxsfargs,
                                   335  	(The maximum number of scalar function arguments allowed has been exceeded.)
                        000174          	segdef  max_sf_args
    000174  a0   077777 003776
    003774  aa  155 170 163 146         	aci  "mxsfargs",8
    003775  aa  141 162 147 163
    003776  aa  112 124 150 145         	acc  "The maximum number of scalar function arguments allowed has been exceeded."
    003777  aa  040 155 141 170
    004000  aa  151 155 165 155
    004001  aa  040 156 165 155
    004002  aa  142 145 162 040
    004003  aa  157 146 040 163
    004004  aa  143 141 154 141
    004005  aa  162 040 146 165
    004006  aa  156 143 164 151
    004007  aa  157 156 040 141
    004010  aa  162 147 165 155
    004011  aa  145 156 164 163
    004012  aa  040 141 154 154
    004013  aa  157 167 145 144
    004014  aa  040 150 141 163
    004015  aa  040 142 145 145
    004016  aa  156 040 145 170
    004017  aa  143 145 145 144
    004020  aa  145 144 056 000

                                   336  ec max_temp_rels,mxtemrel,
                                   337  	(The maximum number of temporary relation definitions has been exceeded.)
                        000175          	segdef  max_temp_rels
    000175  a0   077777 004023
    004021  aa  155 170 164 145         	aci  "mxtemrel",8
    004022  aa  155 162 145 154
    004023  aa  107 124 150 145         	acc  "The maximum number of temporary relation definitions has been exceeded."
    004024  aa  040 155 141 170
    004025  aa  151 155 165 155
    004026  aa  040 156 165 155
    004027  aa  142 145 162 040
    004030  aa  157 146 040 164
    004031  aa  145 155 160 157
    004032  aa  162 141 162 171
    004033  aa  040 162 145 154
    004034  aa  141 164 151 157
    004035  aa  156 040 144 145
    004036  aa  146 151 156 151
    004037  aa  164 151 157 156
    004040  aa  163 040 150 141
    004041  aa  163 040 142 145
    004042  aa  145 156 040 145
    004043  aa  170 143 145 145
    004044  aa  144 145 144 056

                                   338  ec max_tup_var,mxtupvar,
                                   339  	(Too many tuple variables have been specified.)
                        000176          	segdef  max_tup_var
    000176  a0   077777 004047
    004045  aa  155 170 164 165         	aci  "mxtupvar",8
    004046  aa  160 166 141 162
    004047  aa  055 124 157 157         	acc  "Too many tuple variables have been specified."
    004050  aa  040 155 141 156
    004051  aa  171 040 164 165
    004052  aa  160 154 145 040
    004053  aa  166 141 162 151
    004054  aa  141 142 154 145
    004055  aa  163 040 150 141
    004056  aa  166 145 040 142
    004057  aa  145 145 156 040
    004060  aa  163 160 145 143
    004061  aa  151 146 151 145
    004062  aa  144 056 000 000

                                   340  ec max_vars_rel,maxvrl,
                                   341  	(More tuple variables than iocb's for a given relation.)
                        000177          	segdef  max_vars_rel
    000177  a0   077777 004065
    004063  aa  155 141 170 166         	aci  "maxvrl",8
    004064  aa  162 154 040 040
    004065  aa  066 115 157 162         	acc  "More tuple variables than iocb's for a given relation."
    004066  aa  145 040 164 165
    004067  aa  160 154 145 040
    004070  aa  166 141 162 151
    004071  aa  141 142 154 145
    004072  aa  163 040 164 150
    004073  aa  141 156 040 151
    004074  aa  157 143 142 047
    004075  aa  163 040 146 157
    004076  aa  162 040 141 040
    004077  aa  147 151 166 145
    004100  aa  156 040 162 145
    004101  aa  154 141 164 151
    004102  aa  157 156 056 000

                                   342  ec missing_relation_name,norelnam,
                                   343  	(Relation name not specified.)
                        000200          	segdef  missing_relation_name
    000200  a0   077777 004105
    004103  aa  156 157 162 145         	aci  "norelnam",8
    004104  aa  154 156 141 155
    004105  aa  034 122 145 154         	acc  "Relation name not specified."
    004106  aa  141 164 151 157
    004107  aa  156 040 156 141
    004110  aa  155 145 040 156
    004111  aa  157 164 040 163
    004112  aa  160 145 143 151
    004113  aa  146 151 145 144
    004114  aa  056 000 000 000

                                   344  ec missing_select,noselect,
                                   345  	(An expected -select clause was not found.)
                        000201          	segdef  missing_select
    000201  a0   077777 004117
    004115  aa  156 157 163 145         	aci  "noselect",8
    004116  aa  154 145 143 164
    004117  aa  051 101 156 040         	acc  "An expected -select clause was not found."
    004120  aa  145 170 160 145
    004121  aa  143 164 145 144
    004122  aa  040 055 163 145
    004123  aa  154 145 143 164
    004124  aa  040 143 154 141
    004125  aa  165 163 145 040
    004126  aa  167 141 163 040
    004127  aa  156 157 164 040
    004130  aa  146 157 165 156
    004131  aa  144 056 000 000

                                   346  ec mixed_versions,mix_ver,
                                   347  	(Attempt to use different version data bases in same argument list.)
                        000202          	segdef  mixed_versions
    000202  a0   077777 004134
    004132  aa  155 151 170 137         	aci  "mix_ver",8
    004133  aa  166 145 162 040
    004134  aa  102 101 164 164         	acc  "Attempt to use different version data bases in same argument list."
    004135  aa  145 155 160 164
    004136  aa  040 164 157 040
    004137  aa  165 163 145 040
    004140  aa  144 151 146 146
    004141  aa  145 162 145 156
    004142  aa  164 040 166 145
    004143  aa  162 163 151 157
    004144  aa  156 040 144 141
    004145  aa  164 141 040 142
    004146  aa  141 163 145 163
    004147  aa  040 151 156 040
    004150  aa  163 141 155 145
    004151  aa  040 141 162 147
    004152  aa  165 155 145 156
    004153  aa  164 040 154 151
    004154  aa  163 164 056 000

                                   348  ec mod_key_attr,modkey,
                                   349  	(Attempt to modify a key attribute.)
                        000203          	segdef  mod_key_attr
    000203  a0   077777 004157
    004155  aa  155 157 144 153         	aci  "modkey",8
    004156  aa  145 171 040 040
    004157  aa  042 101 164 164         	acc  "Attempt to modify a key attribute."
    004160  aa  145 155 160 164
    004161  aa  040 164 157 040
    004162  aa  155 157 144 151
    004163  aa  146 171 040 141
    004164  aa  040 153 145 171
    004165  aa  040 141 164 164
    004166  aa  162 151 142 165
    004167  aa  164 145 056 000

                                   350  ec mult_asts,multasts,
                                   351  	(Multiple asterisks followed an attribute name.)
                        000204          	segdef  mult_asts
    000204  a0   077777 004172
    004170  aa  155 165 154 164         	aci  "multasts",8
    004171  aa  141 163 164 163
    004172  aa  056 115 165 154         	acc  "Multiple asterisks followed an attribute name."
    004173  aa  164 151 160 154
    004174  aa  145 040 141 163
    004175  aa  164 145 162 151
    004176  aa  163 153 163 040
    004177  aa  146 157 154 154
    004200  aa  157 167 145 144
    004201  aa  040 141 156 040
    004202  aa  141 164 164 162
    004203  aa  151 142 165 164
    004204  aa  145 040 156 141
    004205  aa  155 145 056 000

                                   352  ec mult_att_def,multadef,
                                   353  	(An attribute has been multiply specified within a relation expression.)
                        000205          	segdef  mult_att_def
    000205  a0   077777 004210
    004206  aa  155 165 154 164         	aci  "multadef",8
    004207  aa  141 144 145 146
    004210  aa  106 101 156 040         	acc  "An attribute has been multiply specified within a relation expression."
    004211  aa  141 164 164 162
    004212  aa  151 142 165 164
    004213  aa  145 040 150 141
    004214  aa  163 040 142 145
    004215  aa  145 156 040 155
    004216  aa  165 154 164 151
    004217  aa  160 154 171 040
    004220  aa  163 160 145 143
    004221  aa  151 146 151 145
    004222  aa  144 040 167 151
    004223  aa  164 150 151 156
    004224  aa  040 141 040 162
    004225  aa  145 154 141 164
    004226  aa  151 157 156 040
    004227  aa  145 170 160 162
    004230  aa  145 163 163 151
    004231  aa  157 156 056 000

                                   354  ec mult_att_ref,multaref,
                                   355  	(An attribute has been multiply referenced within a relation expression.)
                        000206          	segdef  mult_att_ref
    000206  a0   077777 004234
    004232  aa  155 165 154 164         	aci  "multaref",8
    004233  aa  141 162 145 146
    004234  aa  107 101 156 040         	acc  "An attribute has been multiply referenced within a relation expression."
    004235  aa  141 164 164 162
    004236  aa  151 142 165 164
    004237  aa  145 040 150 141
    004240  aa  163 040 142 145
    004241  aa  145 156 040 155
    004242  aa  165 154 164 151
    004243  aa  160 154 171 040
    004244  aa  162 145 146 145
    004245  aa  162 145 156 143
    004246  aa  145 144 040 167
    004247  aa  151 164 150 151
    004250  aa  156 040 141 040
    004251  aa  162 145 154 141
    004252  aa  164 151 157 156
    004253  aa  040 145 170 160
    004254  aa  162 145 163 163
    004255  aa  151 157 156 056

                                   356  ec mult_def_var,muldfvar,
                                   357  	(A tuple variable has been multiply defined in the range clause.)
                        000207          	segdef  mult_def_var
    000207  a0   077777 004260
    004256  aa  155 165 154 144         	aci  "muldfvar",8
    004257  aa  146 166 141 162
    004260  aa  077 101 040 164         	acc  "A tuple variable has been multiply defined in the range clause."
    004261  aa  165 160 154 145
    004262  aa  040 166 141 162
    004263  aa  151 141 142 154
    004264  aa  145 040 150 141
    004265  aa  163 040 142 145
    004266  aa  145 156 040 155
    004267  aa  165 154 164 151
    004270  aa  160 154 171 040
    004271  aa  144 145 146 151
    004272  aa  156 145 144 040
    004273  aa  151 156 040 164
    004274  aa  150 145 040 162
    004275  aa  141 156 147 145
    004276  aa  040 143 154 141
    004277  aa  165 163 145 056

                                   358  ec mult_expr_vars,mulexpva,
                                   359  	(An arithmetic expression involving more than one tuple variable has been specified.)
                        000210          	segdef  mult_expr_vars
    000210  a0   077777 004302
    004300  aa  155 165 154 145         	aci  "mulexpva",8
    004301  aa  170 160 166 141
    004302  aa  123 101 156 040         	acc  "An arithmetic expression involving more than one tuple variable has been specified."
    004303  aa  141 162 151 164
    004304  aa  150 155 145 164
    004305  aa  151 143 040 145
    004306  aa  170 160 162 145
    004307  aa  163 163 151 157
    004310  aa  156 040 151 156
    004311  aa  166 157 154 166
    004312  aa  151 156 147 040
    004313  aa  155 157 162 145
    004314  aa  040 164 150 141
    004315  aa  156 040 157 156
    004316  aa  145 040 164 165
    004317  aa  160 154 145 040
    004320  aa  166 141 162 151
    004321  aa  141 142 154 145
    004322  aa  040 150 141 163
    004323  aa  040 142 145 145
    004324  aa  156 040 163 160
    004325  aa  145 143 151 146
    004326  aa  151 145 144 056

                                   360  ec mult_index,multind,
                                   361  	(A relation has been specified more than once in the index clause.)
                        000211          	segdef  mult_index
    000211  a0   077777 004331
    004327  aa  155 165 154 164         	aci  "multind",8
    004330  aa  151 156 144 040
    004331  aa  101 101 040 162         	acc  "A relation has been specified more than once in the index clause."
    004332  aa  145 154 141 164
    004333  aa  151 157 156 040
    004334  aa  150 141 163 040
    004335  aa  142 145 145 156
    004336  aa  040 163 160 145
    004337  aa  143 151 146 151
    004340  aa  145 144 040 155
    004341  aa  157 162 145 040
    004342  aa  164 150 141 156
    004343  aa  040 157 156 143
    004344  aa  145 040 151 156
    004345  aa  040 164 150 145
    004346  aa  040 151 156 144
    004347  aa  145 170 040 143
    004350  aa  154 141 165 163
    004351  aa  145 056 000 000

                                   362  ec mult_paren,multpar,
                                   363  	(Multiple left parentheses were found.)
                        000212          	segdef  mult_paren
    000212  a0   077777 004354
    004352  aa  155 165 154 164         	aci  "multpar",8
    004353  aa  160 141 162 040
    004354  aa  045 115 165 154         	acc  "Multiple left parentheses were found."
    004355  aa  164 151 160 154
    004356  aa  145 040 154 145
    004357  aa  146 164 040 160
    004360  aa  141 162 145 156
    004361  aa  164 150 145 163
    004362  aa  145 163 040 167
    004363  aa  145 162 145 040
    004364  aa  146 157 165 156
    004365  aa  144 056 000 000

                                   364  ec multiple_tuples_found,multtupl,
                                   365  	(A selection expression for modify resulted in more than one tuple being selected.)
                        000213          	segdef  multiple_tuples_found
    000213  a0   077777 004370
    004366  aa  155 165 154 164         	aci  "multtupl",8
    004367  aa  164 165 160 154
    004370  aa  121 101 040 163         	acc  "A selection expression for modify resulted in more than one tuple being selected."
    004371  aa  145 154 145 143
    004372  aa  164 151 157 156
    004373  aa  040 145 170 160
    004374  aa  162 145 163 163
    004375  aa  151 157 156 040
    004376  aa  146 157 162 040
    004377  aa  155 157 144 151
    004400  aa  146 171 040 162
    004401  aa  145 163 165 154
    004402  aa  164 145 144 040
    004403  aa  151 156 040 155
    004404  aa  157 162 145 040
    004405  aa  164 150 141 156
    004406  aa  040 157 156 145
    004407  aa  040 164 165 160
    004410  aa  154 145 040 142
    004411  aa  145 151 156 147
    004412  aa  040 163 145 154
    004413  aa  145 143 164 145
    004414  aa  144 056 000 000

                                   366  ec my_quiesced_db,myquidb,
                                   367  	(Attempt to quiesce a data base which has already been quiesced by this process.)
                        000214          	segdef  my_quiesced_db
    000214  a0   077777 004417
    004415  aa  155 171 161 165         	aci  "myquidb",8
    004416  aa  151 144 142 040
    004417  aa  117 101 164 164         	acc  "Attempt to quiesce a data base which has already been quiesced by this process."
    004420  aa  145 155 160 164
    004421  aa  040 164 157 040
    004422  aa  161 165 151 145
    004423  aa  163 143 145 040
    004424  aa  141 040 144 141
    004425  aa  164 141 040 142
    004426  aa  141 163 145 040
    004427  aa  167 150 151 143
    004430  aa  150 040 150 141
    004431  aa  163 040 141 154
    004432  aa  162 145 141 144
    004433  aa  171 040 142 145
    004434  aa  145 156 040 161
    004435  aa  165 151 145 163
    004436  aa  143 145 144 040
    004437  aa  142 171 040 164
    004440  aa  150 151 163 040
    004441  aa  160 162 157 143
    004442  aa  145 163 163 056

                                   368  ec no_attr_lp,noattrlp,
                                   369  	(No attribute name was found following the left parenthesis.)
                        000215          	segdef  no_attr_lp
    000215  a0   077777 004445
    004443  aa  156 157 141 164         	aci  "noattrlp",8
    004444  aa  164 162 154 160
    004445  aa  073 116 157 040         	acc  "No attribute name was found following the left parenthesis."
    004446  aa  141 164 164 162
    004447  aa  151 142 165 164
    004450  aa  145 040 156 141
    004451  aa  155 145 040 167
    004452  aa  141 163 040 146
    004453  aa  157 165 156 144
    004454  aa  040 146 157 154
    004455  aa  154 157 167 151
    004456  aa  156 147 040 164
    004457  aa  150 145 040 154
    004460  aa  145 146 164 040
    004461  aa  160 141 162 145
    004462  aa  156 164 150 145
    004463  aa  163 151 163 056

                                   370  ec no_attr_spec,noattr,
                                   371  	(None of the submodel attributes were found in the data model.)
                        000216          	segdef  no_attr_spec
    000216  a0   077777 004466
    004464  aa  156 157 141 164         	aci  "noattr",8
    004465  aa  164 162 040 040
    004466  aa  075 116 157 156         	acc  "None of the submodel attributes were found in the data model."
    004467  aa  145 040 157 146
    004470  aa  040 164 150 145
    004471  aa  040 163 165 142
    004472  aa  155 157 144 145
    004473  aa  154 040 141 164
    004474  aa  164 162 151 142
    004475  aa  165 164 145 163
    004476  aa  040 167 145 162
    004477  aa  145 040 146 157
    004500  aa  165 156 144 040
    004501  aa  151 156 040 164
    004502  aa  150 145 040 144
    004503  aa  141 164 141 040
    004504  aa  155 157 144 145
    004505  aa  154 056 000 000

                                   372  ec no_ctl_path,no_ctlp,
                                   373  	(No control file path name was supplied.)
                        000217          	segdef  no_ctl_path
    000217  a0   077777 004510
    004506  aa  156 157 137 143         	aci  "no_ctlp",8
    004507  aa  164 154 160 040
    004510  aa  047 116 157 040         	acc  "No control file path name was supplied."
    004511  aa  143 157 156 164
    004512  aa  162 157 154 040
    004513  aa  146 151 154 145
    004514  aa  040 160 141 164
    004515  aa  150 040 156 141
    004516  aa  155 145 040 167
    004517  aa  141 163 040 163
    004520  aa  165 160 160 154
    004521  aa  151 145 144 056

                                   374  ec no_database,no_db,
                                   375  	(No MRDS data base model found with the given pathname.)
                        000220          	segdef  no_database
    000220  a0   077777 004524
    004522  aa  156 157 137 144         	aci  "no_db",8
    004523  aa  142 040 040 040
    004524  aa  066 116 157 040         	acc  "No MRDS data base model found with the given pathname."
    004525  aa  115 122 104 123
    004526  aa  040 144 141 164
    004527  aa  141 040 142 141
    004530  aa  163 145 040 155
    004531  aa  157 144 145 154
    004532  aa  040 146 157 165
    004533  aa  156 144 040 167
    004534  aa  151 164 150 040
    004535  aa  164 150 145 040
    004536  aa  147 151 166 145
    004537  aa  156 040 160 141
    004540  aa  164 150 156 141
    004541  aa  155 145 056 000

                                   376  ec no_db_path,nodbp,
                                   377  	(No database path was supplied.)
                        000221          	segdef  no_db_path
    000221  a0   077777 004544
    004542  aa  156 157 144 142         	aci  "nodbp",8
    004543  aa  160 040 040 040
    004544  aa  036 116 157 040         	acc  "No database path was supplied."
    004545  aa  144 141 164 141
    004546  aa  142 141 163 145
    004547  aa  040 160 141 164
    004550  aa  150 040 167 141
    004551  aa  163 040 163 165
    004552  aa  160 160 154 151
    004553  aa  145 144 056 000

                                   378  ec no_dms,nodms,
                                   379  	(Data management software could not be found.)
                        000222          	segdef  no_dms
    000222  a0   077777 004556
    004554  aa  156 157 144 155         	aci  "nodms",8
    004555  aa  163 040 040 040
    004556  aa  054 104 141 164         	acc  "Data management software could not be found."
    004557  aa  141 040 155 141
    004560  aa  156 141 147 145
    004561  aa  155 145 156 164
    004562  aa  040 163 157 146
    004563  aa  164 167 141 162
    004564  aa  145 040 143 157
    004565  aa  165 154 144 040
    004566  aa  156 157 164 040
    004567  aa  142 145 040 146
    004570  aa  157 165 156 144
    004571  aa  056 000 000 000

                                   380  ec no_domains,nodomain,
                                   381  	(No domain specification found following a domain keyword.)
                        000223          	segdef  no_domains
    000223  a0   077777 004574
    004572  aa  156 157 144 157         	aci  "nodomain",8
    004573  aa  155 141 151 156
    004574  aa  071 116 157 040         	acc  "No domain specification found following a domain keyword."
    004575  aa  144 157 155 141
    004576  aa  151 156 040 163
    004577  aa  160 145 143 151
    004600  aa  146 151 143 141
    004601  aa  164 151 157 156
    004602  aa  040 146 157 165
    004603  aa  156 144 040 146
    004604  aa  157 154 154 157
    004605  aa  167 151 156 147
    004606  aa  040 141 040 144
    004607  aa  157 155 141 151
    004610  aa  156 040 153 145
    004611  aa  171 167 157 162
    004612  aa  144 056 000 000

                                   382  ec no_domains_exist,nodmne,
                                   383  	(No domains exist for the specified database.)
                        000224          	segdef  no_domains_exist
    000224  a0   077777 004615
    004613  aa  156 157 144 155         	aci  "nodmne",8
    004614  aa  156 145 040 040
    004615  aa  054 116 157 040         	acc  "No domains exist for the specified database."
    004616  aa  144 157 155 141
    004617  aa  151 156 163 040
    004620  aa  145 170 151 163
    004621  aa  164 040 146 157
    004622  aa  162 040 164 150
    004623  aa  145 040 163 160
    004624  aa  145 143 151 146
    004625  aa  151 145 144 040
    004626  aa  144 141 164 141
    004627  aa  142 141 163 145
    004630  aa  056 000 000 000

                                   384  ec no_dups_for_set_oper,nosetdup,
                                   385  	(Duplicates are not allowed in set operations.)
                        000225          	segdef  no_dups_for_set_oper
    000225  a0   077777 004633
    004631  aa  156 157 163 145         	aci  "nosetdup",8
    004632  aa  164 144 165 160
    004633  aa  055 104 165 160         	acc  "Duplicates are not allowed in set operations."
    004634  aa  154 151 143 141
    004635  aa  164 145 163 040
    004636  aa  141 162 145 040
    004637  aa  156 157 164 040
    004640  aa  141 154 154 157
    004641  aa  167 145 144 040
    004642  aa  151 156 040 163
    004643  aa  145 164 040 157
    004644  aa  160 145 162 141
    004645  aa  164 151 157 156
    004646  aa  163 056 000 000

                                   386  ec no_inds,noinds,
                                   387  	(No index specification found following an index keyword.)
                        000226          	segdef  no_inds
    000226  a0   077777 004651
    004647  aa  156 157 151 156         	aci  "noinds",8
    004650  aa  144 163 040 040
    004651  aa  070 116 157 040         	acc  "No index specification found following an index keyword."
    004652  aa  151 156 144 145
    004653  aa  170 040 163 160
    004654  aa  145 143 151 146
    004655  aa  151 143 141 164
    004656  aa  151 157 156 040
    004657  aa  146 157 165 156
    004660  aa  144 040 146 157
    004661  aa  154 154 157 167
    004662  aa  151 156 147 040
    004663  aa  141 156 040 151
    004664  aa  156 144 145 170
    004665  aa  040 153 145 171
    004666  aa  167 157 162 144
    004667  aa  056 000 000 000

                                   388  ec no_key_specified,nokey,
                                   389  	(No key attribute field defined.)
                        000227          	segdef  no_key_specified
    000227  a0   077777 004672
    004670  aa  156 157 153 145         	aci  "nokey",8
    004671  aa  171 040 040 040
    004672  aa  037 116 157 040         	acc  "No key attribute field defined."
    004673  aa  153 145 171 040
    004674  aa  141 164 164 162
    004675  aa  151 142 165 164
    004676  aa  145 040 146 151
    004677  aa  145 154 144 040
    004700  aa  144 145 146 151
    004701  aa  156 145 144 056

                                   390  ec no_left_paren,noleftpa,
                                   391  	(No left parenthesis was found following the relation name.)
                        000230          	segdef  no_left_paren
    000230  a0   077777 004704
    004702  aa  156 157 154 145         	aci  "noleftpa",8
    004703  aa  146 164 160 141
    004704  aa  072 116 157 040         	acc  "No left parenthesis was found following the relation name."
    004705  aa  154 145 146 164
    004706  aa  040 160 141 162
    004707  aa  145 156 164 150
    004710  aa  145 163 151 163
    004711  aa  040 167 141 163
    004712  aa  040 146 157 165
    004713  aa  156 144 040 146
    004714  aa  157 154 154 157
    004715  aa  167 151 156 147
    004716  aa  040 164 150 145
    004717  aa  040 162 145 154
    004720  aa  141 164 151 157
    004721  aa  156 040 156 141
    004722  aa  155 145 056 000

                                   392  ec no_model_access,nomdacc,
                                   393  	(Insufficient access to read database model or submodel.)
                        000231          	segdef  no_model_access
    000231  a0   077777 004725
    004723  aa  156 157 155 144         	aci  "nomdacc",8
    004724  aa  141 143 143 040
    004725  aa  067 111 156 163         	acc  "Insufficient access to read database model or submodel."
    004726  aa  165 146 146 151
    004727  aa  143 151 145 156
    004730  aa  164 040 141 143
    004731  aa  143 145 163 163
    004732  aa  040 164 157 040
    004733  aa  162 145 141 144
    004734  aa  040 144 141 164
    004735  aa  141 142 141 163
    004736  aa  145 040 155 157
    004737  aa  144 145 154 040
    004740  aa  157 162 040 163
    004741  aa  165 142 155 157
    004742  aa  144 145 154 056

                                   394  ec no_model_attr,nomdatt,
                                   395  	(The specified data model attribute name does not exist.)
                        000232          	segdef  no_model_attr
    000232  a0   077777 004745
    004743  aa  156 157 155 144         	aci  "nomdatt",8
    004744  aa  141 164 164 040
    004745  aa  067 124 150 145         	acc  "The specified data model attribute name does not exist."
    004746  aa  040 163 160 145
    004747  aa  143 151 146 151
    004750  aa  145 144 040 144
    004751  aa  141 164 141 040
    004752  aa  155 157 144 145
    004753  aa  154 040 141 164
    004754  aa  164 162 151 142
    004755  aa  165 164 145 040
    004756  aa  156 141 155 145
    004757  aa  040 144 157 145
    004760  aa  163 040 156 157
    004761  aa  164 040 145 170
    004762  aa  151 163 164 056

                                   396  ec no_model_dom,nomddom,
                                   397  	(The specified data model domain name does not exist.)
                        000233          	segdef  no_model_dom
    000233  a0   077777 004765
    004763  aa  156 157 155 144         	aci  "nomddom",8
    004764  aa  144 157 155 040
    004765  aa  064 124 150 145         	acc  "The specified data model domain name does not exist."
    004766  aa  040 163 160 145
    004767  aa  143 151 146 151
    004770  aa  145 144 040 144
    004771  aa  141 164 141 040
    004772  aa  155 157 144 145
    004773  aa  154 040 144 157
    004774  aa  155 141 151 156
    004775  aa  040 156 141 155
    004776  aa  145 040 144 157
    004777  aa  145 163 040 156
    005000  aa  157 164 040 145
    005001  aa  170 151 163 164
    005002  aa  056 000 000 000

                                   398  ec no_model_rel,nomdrel,
                                   399  	(The specified data model relation name does not exist.)
                        000234          	segdef  no_model_rel
    000234  a0   077777 005005
    005003  aa  156 157 155 144         	aci  "nomdrel",8
    005004  aa  162 145 154 040
    005005  aa  066 124 150 145         	acc  "The specified data model relation name does not exist."
    005006  aa  040 163 160 145
    005007  aa  143 151 146 151
    005010  aa  145 144 040 144
    005011  aa  141 164 141 040
    005012  aa  155 157 144 145
    005013  aa  154 040 162 145
    005014  aa  154 141 164 151
    005015  aa  157 156 040 156
    005016  aa  141 155 145 040
    005017  aa  144 157 145 163
    005020  aa  040 156 157 164
    005021  aa  040 145 170 151
    005022  aa  163 164 056 000

                                   400  ec no_model_submodel,no_md_sm,
                                   401  	(No data base model or submodel found with the given pathname.)
                        000235          	segdef  no_model_submodel
    000235  a0   077777 005025
    005023  aa  156 157 137 155         	aci  "no_md_sm",8
    005024  aa  144 137 163 155
    005025  aa  075 116 157 040         	acc  "No data base model or submodel found with the given pathname."
    005026  aa  144 141 164 141
    005027  aa  040 142 141 163
    005030  aa  145 040 155 157
    005031  aa  144 145 154 040
    005032  aa  157 162 040 163
    005033  aa  165 142 155 157
    005034  aa  144 145 154 040
    005035  aa  146 157 165 156
    005036  aa  144 040 167 151
    005037  aa  164 150 040 164
    005040  aa  150 145 040 147
    005041  aa  151 166 145 156
    005042  aa  040 160 141 164
    005043  aa  150 156 141 155
    005044  aa  145 056 000 000

                                   402  ec no_prev_store,noprvst,
                                   403  	(A -another keyword has been specified for store without a previous store.)
                        000236          	segdef  no_prev_store
    000236  a0   077777 005047
    005045  aa  156 157 160 162         	aci  "noprvst",8
    005046  aa  166 163 164 040
    005047  aa  111 101 040 055         	acc  "A -another keyword has been specified for store without a previous store."
    005050  aa  141 156 157 164
    005051  aa  150 145 162 040
    005052  aa  153 145 171 167
    005053  aa  157 162 144 040
    005054  aa  150 141 163 040
    005055  aa  142 145 145 156
    005056  aa  040 163 160 145
    005057  aa  143 151 146 151
    005060  aa  145 144 040 146
    005061  aa  157 162 040 163
    005062  aa  164 157 162 145
    005063  aa  040 167 151 164
    005064  aa  150 157 165 164
    005065  aa  040 141 040 160
    005066  aa  162 145 166 151
    005067  aa  157 165 163 040
    005070  aa  163 164 157 162
    005071  aa  145 056 000 000

                                   404  ec no_prior_se,noprise,
                                   405  	(A -another or -current keyword has been specified without a prior valid selection expression.)
                        000237          	segdef  no_prior_se
    000237  a0   077777 005074
    005072  aa  156 157 160 162         	aci  "noprise",8
    005073  aa  151 163 145 040
    005074  aa  135 101 040 055         	acc  "A -another or -current keyword has been specified without a prior valid selection expression."
    005075  aa  141 156 157 164
    005076  aa  150 145 162 040
    005077  aa  157 162 040 055
    005100  aa  143 165 162 162
    005101  aa  145 156 164 040
    005102  aa  153 145 171 167
    005103  aa  157 162 144 040
    005104  aa  150 141 163 040
    005105  aa  142 145 145 156
    005106  aa  040 163 160 145
    005107  aa  143 151 146 151
    005110  aa  145 144 040 167
    005111  aa  151 164 150 157
    005112  aa  165 164 040 141
    005113  aa  040 160 162 151
    005114  aa  157 162 040 166
    005115  aa  141 154 151 144
    005116  aa  040 163 145 154
    005117  aa  145 143 164 151
    005120  aa  157 156 040 145
    005121  aa  170 160 162 145
    005122  aa  163 163 151 157
    005123  aa  156 056 000 000

                                   406  ec no_primary_key,noprikey,
                                   407  	(No primary key attributes were specified for the relation.)
                        000240          	segdef  no_primary_key
    000240  a0   077777 005126
    005124  aa  156 157 160 162         	aci  "noprikey",8
    005125  aa  151 153 145 171
    005126  aa  072 116 157 040         	acc  "No primary key attributes were specified for the relation."
    005127  aa  160 162 151 155
    005130  aa  141 162 171 040
    005131  aa  153 145 171 040
    005132  aa  141 164 164 162
    005133  aa  151 142 165 164
    005134  aa  145 163 040 167
    005135  aa  145 162 145 040
    005136  aa  163 160 145 143
    005137  aa  151 146 151 145
    005140  aa  144 040 146 157
    005141  aa  162 040 164 150
    005142  aa  145 040 162 145
    005143  aa  154 141 164 151
    005144  aa  157 156 056 000

                                   408  ec no_rel_attr,nrelattr,
                                   409  	(No attributes were specified for the relation.)
                        000241          	segdef  no_rel_attr
    000241  a0   077777 005147
    005145  aa  156 162 145 154         	aci  "nrelattr",8
    005146  aa  141 164 164 162
    005147  aa  056 116 157 040         	acc  "No attributes were specified for the relation."
    005150  aa  141 164 164 162
    005151  aa  151 142 165 164
    005152  aa  145 163 040 167
    005153  aa  145 162 145 040
    005154  aa  163 160 145 143
    005155  aa  151 146 151 145
    005156  aa  144 040 146 157
    005157  aa  162 040 164 150
    005160  aa  145 040 162 145
    005161  aa  154 141 164 151
    005162  aa  157 156 056 000

                                   410  ec (no_recursion,recursion_error),norecurs,
                                   411  	(This command/subroutine may not be called recursively.)
                        000242          	segdef  no_recursion
                        000242          	segdef  recursion_error
    000242  a0   077777 005165
    005163  aa  156 157 162 145         	aci  "norecurs",8
    005164  aa  143 165 162 163
    005165  aa  066 124 150 151         	acc  "This command/subroutine may not be called recursively."
    005166  aa  163 040 143 157
    005167  aa  155 155 141 156
    005170  aa  144 057 163 165
    005171  aa  142 162 157 165
    005172  aa  164 151 156 145
    005173  aa  040 155 141 171
    005174  aa  040 156 157 164
    005175  aa  040 142 145 040
    005176  aa  143 141 154 154
    005177  aa  145 144 040 162
    005200  aa  145 143 165 162
    005201  aa  163 151 166 145
    005202  aa  154 171 056 000

                                   412  ec no_rels,norels,
                                   413  	(No relation specification found following a relation keyword.)
                        000243          	segdef  no_rels
    000243  a0   077777 005205
    005203  aa  156 157 162 145         	aci  "norels",8
    005204  aa  154 163 040 040
    005205  aa  075 116 157 040         	acc  "No relation specification found following a relation keyword."
    005206  aa  162 145 154 141
    005207  aa  164 151 157 156
    005210  aa  040 163 160 145
    005211  aa  143 151 146 151
    005212  aa  143 141 164 151
    005213  aa  157 156 040 146
    005214  aa  157 165 156 144
    005215  aa  040 146 157 154
    005216  aa  154 157 167 151
    005217  aa  156 147 040 141
    005220  aa  040 162 145 154
    005221  aa  141 164 151 157
    005222  aa  156 040 153 145
    005223  aa  171 167 157 162
    005224  aa  144 056 000 000

                                   414  ec no_relations_exist,norelse,
                                   415  	(No relations exist in the specified database.)
                        000244          	segdef  no_relations_exist
    000244  a0   077777 005227
    005225  aa  156 157 162 145         	aci  "norelse",8
    005226  aa  154 163 145 040
    005227  aa  055 116 157 040         	acc  "No relations exist in the specified database."
    005230  aa  162 145 154 141
    005231  aa  164 151 157 156
    005232  aa  163 040 145 170
    005233  aa  151 163 164 040
    005234  aa  151 156 040 164
    005235  aa  150 145 040 163
    005236  aa  160 145 143 151
    005237  aa  146 151 145 144
    005240  aa  040 144 141 164
    005241  aa  141 142 141 163
    005242  aa  145 056 000 000

                                   416  ec no_rel_name,noreln,
                                   417  	(No relation name was found.)
                        000245          	segdef  no_rel_name
    000245  a0   077777 005245
    005243  aa  156 157 162 145         	aci  "noreln",8
    005244  aa  154 156 040 040
    005245  aa  033 116 157 040         	acc  "No relation name was found."
    005246  aa  162 145 154 141
    005247  aa  164 151 157 156
    005250  aa  040 156 141 155
    005251  aa  145 040 167 141
    005252  aa  163 040 146 157
    005253  aa  165 156 144 056

                                   418  ec no_sel_exp,nselexp,
                                   419  	(No selection expression was found.)
                        000246          	segdef  no_sel_exp
    000246  a0   077777 005256
    005254  aa  156 163 145 154         	aci  "nselexp",8
    005255  aa  145 170 160 040
    005256  aa  042 116 157 040         	acc  "No selection expression was found."
    005257  aa  163 145 154 145
    005260  aa  143 164 151 157
    005261  aa  156 040 145 170
    005262  aa  160 162 145 163
    005263  aa  163 151 157 156
    005264  aa  040 167 141 163
    005265  aa  040 146 157 165
    005266  aa  156 144 056 000

                                   420  ec no_sm_rel,nosmrel,
                                   421  	(No relation by this name exists in the submodel.)
                        000247          	segdef  no_sm_rel
    000247  a0   077777 005271
    005267  aa  156 157 163 155         	aci  "nosmrel",8
    005270  aa  162 145 154 040
    005271  aa  060 116 157 040         	acc  "No relation by this name exists in the submodel."
    005272  aa  162 145 154 141
    005273  aa  164 151 157 156
    005274  aa  040 142 171 040
    005275  aa  164 150 151 163
    005276  aa  040 156 141 155
    005277  aa  145 040 145 170
    005300  aa  151 163 164 163
    005301  aa  040 151 156 040
    005302  aa  164 150 145 040
    005303  aa  163 165 142 155
    005304  aa  157 144 145 154
    005305  aa  056 000 000 000

                                   422  ec no_temp_dir,no_tdir,
                                   423  	(No temporary directory path was supplied.)
                        000250          	segdef  no_temp_dir
    000250  a0   077777 005310
    005306  aa  156 157 137 164         	aci  "no_tdir",8
    005307  aa  144 151 162 040
    005310  aa  051 116 157 040         	acc  "No temporary directory path was supplied."
    005311  aa  164 145 155 160
    005312  aa  157 162 141 162
    005313  aa  171 040 144 151
    005314  aa  162 145 143 164
    005315  aa  157 162 171 040
    005316  aa  160 141 164 150
    005317  aa  040 167 141 163
    005320  aa  040 163 165 160
    005321  aa  160 154 151 145
    005322  aa  144 056 000 000

                                   424  ec no_tr_keys,no_tkeys,
                                   425  	(No primary keys were designated in the selection expression.)
                        000251          	segdef  no_tr_keys
    000251  a0   077777 005325
    005323  aa  156 157 137 164         	aci  "no_tkeys",8
    005324  aa  153 145 171 163
    005325  aa  074 116 157 040         	acc  "No primary keys were designated in the selection expression."
    005326  aa  160 162 151 155
    005327  aa  141 162 171 040
    005330  aa  153 145 171 163
    005331  aa  040 167 145 162
    005332  aa  145 040 144 145
    005333  aa  163 151 147 156
    005334  aa  141 164 145 144
    005335  aa  040 151 156 040
    005336  aa  164 150 145 040
    005337  aa  163 145 154 145
    005340  aa  143 164 151 157
    005341  aa  156 040 145 170
    005342  aa  160 162 145 163
    005343  aa  163 151 157 156
    005344  aa  056 000 000 000

                                   426  ec no_tuple,notuple,
                                   427  	(There is no tuple satisfying the qualifications.)
                        000252          	segdef  no_tuple
    000252  a0   077777 005347
    005345  aa  156 157 164 165         	aci  "notuple",8
    005346  aa  160 154 145 040
    005347  aa  060 124 150 145         	acc  "There is no tuple satisfying the qualifications."
    005350  aa  162 145 040 151
    005351  aa  163 040 156 157
    005352  aa  040 164 165 160
    005353  aa  154 145 040 163
    005354  aa  141 164 151 163
    005355  aa  146 171 151 156
    005356  aa  147 040 164 150
    005357  aa  145 040 161 165
    005360  aa  141 154 151 146
    005361  aa  151 143 141 164
    005362  aa  151 157 156 163
    005363  aa  056 000 000 000

                                   428  ec no_tuple_effect,notupef,
                                   429  	(Some of the tuple variables have no effect on the select set.)
                        000253          	segdef  no_tuple_effect
    000253  a0   077777 005366
    005364  aa  156 157 164 165         	aci  "notupef",8
    005365  aa  160 145 146 040
    005366  aa  075 123 157 155         	acc  "Some of the tuple variables have no effect on the select set."
    005367  aa  145 040 157 146
    005370  aa  040 164 150 145
    005371  aa  040 164 165 160
    005372  aa  154 145 040 166
    005373  aa  141 162 151 141
    005374  aa  142 154 145 163
    005375  aa  040 150 141 166
    005376  aa  145 040 156 157
    005377  aa  040 145 146 146
    005400  aa  145 143 164 040
    005401  aa  157 156 040 164
    005402  aa  150 145 040 163
    005403  aa  145 154 145 143
    005404  aa  164 040 163 145
    005405  aa  164 056 000 000

                                   430  ec no_unref_attr,nounrefa,
                                   431  	(There were no unreferenced attributes.)
                        000254          	segdef  no_unref_attr
    000254  a0   077777 005410
    005406  aa  156 157 165 156         	aci  "nounrefa",8
    005407  aa  162 145 146 141
    005410  aa  046 124 150 145         	acc  "There were no unreferenced attributes."
    005411  aa  162 145 040 167
    005412  aa  145 162 145 040
    005413  aa  156 157 040 165
    005414  aa  156 162 145 146
    005415  aa  145 162 145 156
    005416  aa  143 145 144 040
    005417  aa  141 164 164 162
    005420  aa  151 142 165 164
    005421  aa  145 163 056 000

                                   432  ec no_unref_domain,nounrefd,
                                   433  	(There were no unreferenced domains.)
                        000255          	segdef  no_unref_domain
    000255  a0   077777 005424
    005422  aa  156 157 165 156         	aci  "nounrefd",8
    005423  aa  162 145 146 144
    005424  aa  043 124 150 145         	acc  "There were no unreferenced domains."
    005425  aa  162 145 040 167
    005426  aa  145 162 145 040
    005427  aa  156 157 040 165
    005430  aa  156 162 145 146
    005431  aa  145 162 145 156
    005432  aa  143 145 144 040
    005433  aa  144 157 155 141
    005434  aa  151 156 163 056

                                   434  ec no_wakeup_user,nowkpusr,
                                   435  	(A waiting and blocked data base user could not be awakened.)
                        000256          	segdef  no_wakeup_user
    000256  a0   077777 005437
    005435  aa  156 157 167 153         	aci  "nowkpusr",8
    005436  aa  160 165 163 162
    005437  aa  073 101 040 167         	acc  "A waiting and blocked data base user could not be awakened."
    005440  aa  141 151 164 151
    005441  aa  156 147 040 141
    005442  aa  156 144 040 142
    005443  aa  154 157 143 153
    005444  aa  145 144 040 144
    005445  aa  141 164 141 040
    005446  aa  142 141 163 145
    005447  aa  040 165 163 145
    005450  aa  162 040 143 157
    005451  aa  165 154 144 040
    005452  aa  156 157 164 040
    005453  aa  142 145 040 141
    005454  aa  167 141 153 145
    005455  aa  156 145 144 056

                                   436  ec node_stack_ovfl,nodovfl,
                                   437  	(Translator error -- the node stack has overflowed.)
                        000257          	segdef  node_stack_ovfl
    000257  a0   077777 005460
    005456  aa  156 157 144 157         	aci  "nodovfl",8
    005457  aa  166 146 154 040
    005460  aa  062 124 162 141         	acc  "Translator error -- the node stack has overflowed."
    005461  aa  156 163 154 141
    005462  aa  164 157 162 040
    005463  aa  145 162 162 157
    005464  aa  162 040 055 055
    005465  aa  040 164 150 145
    005466  aa  040 156 157 144
    005467  aa  145 040 163 164
    005470  aa  141 143 153 040
    005471  aa  150 141 163 040
    005472  aa  157 166 145 162
    005473  aa  146 154 157 167
    005474  aa  145 144 056 000

                                   438  ec non_scope_ready,nonscrdy,
                                   439  	(File was not readied for scope_update or scope_retrieve.)
                        000260          	segdef  non_scope_ready
    000260  a0   077777 005477
    005475  aa  156 157 156 163         	aci  "nonscrdy",8
    005476  aa  143 162 144 171
    005477  aa  070 106 151 154         	acc  "File was not readied for scope_update or scope_retrieve."
    005500  aa  145 040 167 141
    005501  aa  163 040 156 157
    005502  aa  164 040 162 145
    005503  aa  141 144 151 145
    005504  aa  144 040 146 157
    005505  aa  162 040 163 143
    005506  aa  157 160 145 137
    005507  aa  165 160 144 141
    005510  aa  164 145 040 157
    005511  aa  162 040 163 143
    005512  aa  157 160 145 137
    005513  aa  162 145 164 162
    005514  aa  151 145 166 145
    005515  aa  056 000 000 000

                                   440  ec not_dsm,not_dsm,
                                   441  	(The specified view pathname is not a data submodel.)
                        000261          	segdef  not_dsm
    000261  a0   077777 005520
    005516  aa  156 157 164 137         	aci  "not_dsm",8
    005517  aa  144 163 155 040
    005520  aa  063 124 150 145         	acc  "The specified view pathname is not a data submodel."
    005521  aa  040 163 160 145
    005522  aa  143 151 146 151
    005523  aa  145 144 040 166
    005524  aa  151 145 167 040
    005525  aa  160 141 164 150
    005526  aa  156 141 155 145
    005527  aa  040 151 163 040
    005530  aa  156 157 164 040
    005531  aa  141 040 144 141
    005532  aa  164 141 040 163
    005533  aa  165 142 155 157
    005534  aa  144 145 154 056

                                   442  ec not_freeing_area,notfree,
                                   443  	(The supplied area does not have the freeing attribute.)
                        000262          	segdef  not_freeing_area
    000262  a0   077777 005537
    005535  aa  156 157 164 146         	aci  "notfree",8
    005536  aa  162 145 145 040
    005537  aa  066 124 150 145         	acc  "The supplied area does not have the freeing attribute."
    005540  aa  040 163 165 160
    005541  aa  160 154 151 145
    005542  aa  144 040 141 162
    005543  aa  145 141 040 144
    005544  aa  157 145 163 040
    005545  aa  156 157 164 040
    005546  aa  150 141 166 145
    005547  aa  040 164 150 145
    005550  aa  040 146 162 145
    005551  aa  145 151 156 147
    005552  aa  040 141 164 164
    005553  aa  162 151 142 165
    005554  aa  164 145 056 000

                                   444  ec not_leaf,notleaf,
                                   445  	(A 'not' operator has a constant or tuple attribute operand.)
                        000263          	segdef  not_leaf
    000263  a0   077777 005557
    005555  aa  156 157 164 154         	aci  "notleaf",8
    005556  aa  145 141 146 040
    005557  aa  073 101 040 047         	acc  "A 'not' operator has a constant or tuple attribute operand."
    005560  aa  156 157 164 047
    005561  aa  040 157 160 145
    005562  aa  162 141 164 157
    005563  aa  162 040 150 141
    005564  aa  163 040 141 040
    005565  aa  143 157 156 163
    005566  aa  164 141 156 164
    005567  aa  040 157 162 040
    005570  aa  164 165 160 154
    005571  aa  145 040 141 164
    005572  aa  164 162 151 142
    005573  aa  165 164 145 040
    005574  aa  157 160 145 162
    005575  aa  141 156 144 056

                                   446  ec one_tuple_op,onetupop,
                                   447  	(More than one tuple variable was selected for a modify or delete.)
                        000264          	segdef  one_tuple_op
    000264  a0   077777 005600
    005576  aa  157 156 145 164         	aci  "onetupop",8
    005577  aa  165 160 157 160
    005600  aa  101 115 157 162         	acc  "More than one tuple variable was selected for a modify or delete."
    005601  aa  145 040 164 150
    005602  aa  141 156 040 157
    005603  aa  156 145 040 164
    005604  aa  165 160 154 145
    005605  aa  040 166 141 162
    005606  aa  151 141 142 154
    005607  aa  145 040 167 141
    005610  aa  163 040 163 145
    005611  aa  154 145 143 164
    005612  aa  145 144 040 146
    005613  aa  157 162 040 141
    005614  aa  040 155 157 144
    005615  aa  151 146 171 040
    005616  aa  157 162 040 144
    005617  aa  145 154 145 164
    005620  aa  145 056 000 000

                                   448  ec op_stack_ovfl,opovfl,
                                   449  	(Translator error -- the operator stack has overflowed.)
                        000265          	segdef  op_stack_ovfl
    000265  a0   077777 005623
    005621  aa  157 160 157 166         	aci  "opovfl",8
    005622  aa  146 154 040 040
    005623  aa  066 124 162 141         	acc  "Translator error -- the operator stack has overflowed."
    005624  aa  156 163 154 141
    005625  aa  164 157 162 040
    005626  aa  145 162 162 157
    005627  aa  162 040 055 055
    005630  aa  040 164 150 145
    005631  aa  040 157 160 145
    005632  aa  162 141 164 157
    005633  aa  162 040 163 164
    005634  aa  141 143 153 040
    005635  aa  150 141 163 040
    005636  aa  157 166 145 162
    005637  aa  146 154 157 167
    005640  aa  145 144 056 000

                                   450  ec open_name_already_known,openknow,
                                   451  	(The open name given is already defined, open names must be unique.)
                        000266          	segdef  open_name_already_known
    000266  a0   077777 005643
    005641  aa  157 160 145 156         	aci  "openknow",8
    005642  aa  153 156 157 167
    005643  aa  102 124 150 145         	acc  "The open name given is already defined, open names must be unique."
    005644  aa  040 157 160 145
    005645  aa  156 040 156 141
    005646  aa  155 145 040 147
    005647  aa  151 166 145 156
    005650  aa  040 151 163 040
    005651  aa  141 154 162 145
    005652  aa  141 144 171 040
    005653  aa  144 145 146 151
    005654  aa  156 145 144 054
    005655  aa  040 157 160 145
    005656  aa  156 040 156 141
    005657  aa  155 145 163 040
    005660  aa  155 165 163 164
    005661  aa  040 142 145 040
    005662  aa  165 156 151 161
    005663  aa  165 145 056 000

                                   452  ec open_name_not_known,nmunknow,
                                   453  	(The given open name is not currently defined.)
                        000267          	segdef  open_name_not_known
    000267  a0   077777 005666
    005664  aa  156 155 165 156         	aci  "nmunknow",8
    005665  aa  153 156 157 167
    005666  aa  055 124 150 145         	acc  "The given open name is not currently defined."
    005667  aa  040 147 151 166
    005670  aa  145 156 040 157
    005671  aa  160 145 156 040
    005672  aa  156 141 155 145
    005673  aa  040 151 163 040
    005674  aa  156 157 164 040
    005675  aa  143 165 162 162
    005676  aa  145 156 164 154
    005677  aa  171 040 144 145
    005700  aa  146 151 156 145
    005701  aa  144 056 000 000

                                   454  ec open_order,open_ord,
                                   455  	(There was an attempt to open an old version data base with new version data bases open.)
                        000270          	segdef  open_order
    000270  a0   077777 005704
    005702  aa  157 160 145 156         	aci  "open_ord",8
    005703  aa  137 157 162 144
    005704  aa  127 124 150 145         	acc  "There was an attempt to open an old version data base with new version data bases open."
    005705  aa  162 145 040 167
    005706  aa  141 163 040 141
    005707  aa  156 040 141 164
    005710  aa  164 145 155 160
    005711  aa  164 040 164 157
    005712  aa  040 157 160 145
    005713  aa  156 040 141 156
    005714  aa  040 157 154 144
    005715  aa  040 166 145 162
    005716  aa  163 151 157 156
    005717  aa  040 144 141 164
    005720  aa  141 040 142 141
    005721  aa  163 145 040 167
    005722  aa  151 164 150 040
    005723  aa  156 145 167 040
    005724  aa  166 145 162 163
    005725  aa  151 157 156 040
    005726  aa  144 141 164 141
    005727  aa  040 142 141 163
    005730  aa  145 163 040 157
    005731  aa  160 145 156 056

                                   456  ec overflow_condition,overfcon,
                                   457  	(The overflow condition has been signalled during a data conversion attempt.)
                        000271          	segdef  overflow_condition
    000271  a0   077777 005734
    005732  aa  157 166 145 162         	aci  "overfcon",8
    005733  aa  146 143 157 156
    005734  aa  113 124 150 145         	acc  "The overflow condition has been signalled during a data conversion attempt."
    005735  aa  040 157 166 145
    005736  aa  162 146 154 157
    005737  aa  167 040 143 157
    005740  aa  156 144 151 164
    005741  aa  151 157 156 040
    005742  aa  150 141 163 040
    005743  aa  142 145 145 156
    005744  aa  040 163 151 147
    005745  aa  156 141 154 154
    005746  aa  145 144 040 144
    005747  aa  165 162 151 156
    005750  aa  147 040 141 040
    005751  aa  144 141 164 141
    005752  aa  040 143 157 156
    005753  aa  166 145 162 163
    005754  aa  151 157 156 040
    005755  aa  141 164 164 145
    005756  aa  155 160 164 056

                                   458  ec parse_error,parsform,
                                   459  	(Syntax error.)
                        000272          	segdef  parse_error
    000272  a0   077777 005761
    005757  aa  160 141 162 163         	aci  "parsform",8
    005760  aa  146 157 162 155
    005761  aa  015 123 171 156         	acc  "Syntax error."
    005762  aa  164 141 170 040
    005763  aa  145 162 162 157
    005764  aa  162 056 000 000

                                   460  ec parser_logic_error,log_err,
                                   461  	(Logic error in MRDS selection expression parser caused by bad DPDA.)
                        000273          	segdef  parser_logic_error
    000273  a0   077777 005767
    005765  aa  154 157 147 137         	aci  "log_err",8
    005766  aa  145 162 162 040
    005767  aa  103 114 157 147         	acc  "Logic error in MRDS selection expression parser caused by bad DPDA."
    005770  aa  151 143 040 145
    005771  aa  162 162 157 162
    005772  aa  040 151 156 040
    005773  aa  115 122 104 123
    005774  aa  040 163 145 154
    005775  aa  145 143 164 151
    005776  aa  157 156 040 145
    005777  aa  170 160 162 145
    006000  aa  163 163 151 157
    006001  aa  156 040 160 141
    006002  aa  162 163 145 162
    006003  aa  040 143 141 165
    006004  aa  163 145 144 040
    006005  aa  142 171 040 142
    006006  aa  141 144 040 104
    006007  aa  120 104 101 056

                                   462  ec parser_stack_overflow,stk_ovl,
                                   463  	(A selection expression parser stack has overflowed.)
                        000274          	segdef  parser_stack_overflow
    000274  a0   077777 006012
    006010  aa  163 164 153 137         	aci  "stk_ovl",8
    006011  aa  157 166 154 040
    006012  aa  063 101 040 163         	acc  "A selection expression parser stack has overflowed."
    006013  aa  145 154 145 143
    006014  aa  164 151 157 156
    006015  aa  040 145 170 160
    006016  aa  162 145 163 163
    006017  aa  151 157 156 040
    006020  aa  160 141 162 163
    006021  aa  145 162 040 163
    006022  aa  164 141 143 153
    006023  aa  040 150 141 163
    006024  aa  040 157 166 145
    006025  aa  162 146 154 157
    006026  aa  167 145 144 056

                                   464  ec parser_unrecognized_state,bad_st,
                                   465  	(Unrecognized DPDA state encountered by selection expression parser.)
                        000275          	segdef  parser_unrecognized_state
    000275  a0   077777 006031
    006027  aa  142 141 144 137         	aci  "bad_st",8
    006030  aa  163 164 040 040
    006031  aa  103 125 156 162         	acc  "Unrecognized DPDA state encountered by selection expression parser."
    006032  aa  145 143 157 147
    006033  aa  156 151 172 145
    006034  aa  144 040 104 120
    006035  aa  104 101 040 163
    006036  aa  164 141 164 145
    006037  aa  040 145 156 143
    006040  aa  157 165 156 164
    006041  aa  145 162 145 144
    006042  aa  040 142 171 040
    006043  aa  163 145 154 145
    006044  aa  143 164 151 157
    006045  aa  156 040 145 170
    006046  aa  160 162 145 163
    006047  aa  163 151 157 156
    006050  aa  040 160 141 162
    006051  aa  163 145 162 056

                                   466  ec previously_defined_index,predefix,
                                   467  	(An attribute was previously defined as an index.)
                        000276          	segdef  previously_defined_index
    000276  a0   077777 006054
    006052  aa  160 162 145 144         	aci  "predefix",8
    006053  aa  145 146 151 170
    006054  aa  060 101 156 040         	acc  "An attribute was previously defined as an index."
    006055  aa  141 164 164 162
    006056  aa  151 142 165 164
    006057  aa  145 040 167 141
    006060  aa  163 040 160 162
    006061  aa  145 166 151 157
    006062  aa  165 163 154 171
    006063  aa  040 144 145 146
    006064  aa  151 156 145 144
    006065  aa  040 141 163 040
    006066  aa  141 156 040 151
    006067  aa  156 144 145 170
    006070  aa  056 000 000 000

                                   468  ec process_not_found,procnfnd,
                                   469  	(Unable to locate specified process in the data base control segment.)
                        000277          	segdef  process_not_found
    000277  a0   077777 006073
    006071  aa  160 162 157 143         	aci  "procnfnd",8
    006072  aa  156 146 156 144
    006073  aa  104 125 156 141         	acc  "Unable to locate specified process in the data base control segment."
    006074  aa  142 154 145 040
    006075  aa  164 157 040 154
    006076  aa  157 143 141 164
    006077  aa  145 040 163 160
    006100  aa  145 143 151 146
    006101  aa  151 145 144 040
    006102  aa  160 162 157 143
    006103  aa  145 163 163 040
    006104  aa  151 156 040 164
    006105  aa  150 145 040 144
    006106  aa  141 164 141 040
    006107  aa  142 141 163 145
    006110  aa  040 143 157 156
    006111  aa  164 162 157 154
    006112  aa  040 163 145 147
    006113  aa  155 145 156 164
    006114  aa  056 000 000 000

                                   470  ec quiesce_pending,quipend,
                                   471  	(Another process is waiting to quiesce the database.)
                        000300          	segdef  quiesce_pending
    000300  a0   077777 006117
    006115  aa  161 165 151 160         	aci  "quipend",8
    006116  aa  145 156 144 040
    006117  aa  063 101 156 157         	acc  "Another process is waiting to quiesce the database."
    006120  aa  164 150 145 162
    006121  aa  040 160 162 157
    006122  aa  143 145 163 163
    006123  aa  040 151 163 040
    006124  aa  167 141 151 164
    006125  aa  151 156 147 040
    006126  aa  164 157 040 161
    006127  aa  165 151 145 163
    006130  aa  143 145 040 164
    006131  aa  150 145 040 144
    006132  aa  141 164 141 142
    006133  aa  141 163 145 056

                                   472  ec quiesce_too_few,quitofew,
                                   473  	(The number of data bases to quiesce is negative or zero.)
                        000301          	segdef  quiesce_too_few
    000301  a0   077777 006136
    006134  aa  161 165 151 164         	aci  "quitofew",8
    006135  aa  157 146 145 167
    006136  aa  070 124 150 145         	acc  "The number of data bases to quiesce is negative or zero."
    006137  aa  040 156 165 155
    006140  aa  142 145 162 040
    006141  aa  157 146 040 144
    006142  aa  141 164 141 040
    006143  aa  142 141 163 145
    006144  aa  163 040 164 157
    006145  aa  040 161 165 151
    006146  aa  145 163 143 145
    006147  aa  040 151 163 040
    006150  aa  156 145 147 141
    006151  aa  164 151 166 145
    006152  aa  040 157 162 040
    006153  aa  172 145 162 157
    006154  aa  056 000 000 000

                                   474  ec quiesced_db,quidb,
                                   475  	(The data base has been quiesced by another process.)
                        000302          	segdef  quiesced_db
    000302  a0   077777 006157
    006155  aa  161 165 151 144         	aci  "quidb",8
    006156  aa  142 040 040 040
    006157  aa  063 124 150 145         	acc  "The data base has been quiesced by another process."
    006160  aa  040 144 141 164
    006161  aa  141 040 142 141
    006162  aa  163 145 040 150
    006163  aa  141 163 040 142
    006164  aa  145 145 156 040
    006165  aa  161 165 151 145
    006166  aa  163 143 145 144
    006167  aa  040 142 171 040
    006170  aa  141 156 157 164
    006171  aa  150 145 162 040
    006172  aa  160 162 157 143
    006173  aa  145 163 163 056

                                   476  ec quiesced_dead_db,quideddb,
                                   477  	(The data base has been quiesced by a process which no longer exists.)
                        000303          	segdef  quiesced_dead_db
    000303  a0   077777 006176
    006174  aa  161 165 151 144         	aci  "quideddb",8
    006175  aa  145 144 144 142
    006176  aa  104 124 150 145         	acc  "The data base has been quiesced by a process which no longer exists."
    006177  aa  040 144 141 164
    006200  aa  141 040 142 141
    006201  aa  163 145 040 150
    006202  aa  141 163 040 142
    006203  aa  145 145 156 040
    006204  aa  161 165 151 145
    006205  aa  163 143 145 144
    006206  aa  040 142 171 040
    006207  aa  141 040 160 162
    006210  aa  157 143 145 163
    006211  aa  163 040 167 150
    006212  aa  151 143 150 040
    006213  aa  156 157 040 154
    006214  aa  157 156 147 145
    006215  aa  162 040 145 170
    006216  aa  151 163 164 163
    006217  aa  056 000 000 000

                                   478  ec range_syntax,rngerr,
                                   479  	(A syntax error has been detected within a -range clause.)
                        000304          	segdef  range_syntax
    000304  a0   077777 006222
    006220  aa  162 156 147 145         	aci  "rngerr",8
    006221  aa  162 162 040 040
    006222  aa  070 101 040 163         	acc  "A syntax error has been detected within a -range clause."
    006223  aa  171 156 164 141
    006224  aa  170 040 145 162
    006225  aa  162 157 162 040
    006226  aa  150 141 163 040
    006227  aa  142 145 145 156
    006230  aa  040 144 145 164
    006231  aa  145 143 164 145
    006232  aa  144 040 167 151
    006233  aa  164 150 151 156
    006234  aa  040 141 040 055
    006235  aa  162 141 156 147
    006236  aa  145 040 143 154
    006237  aa  141 165 163 145
    006240  aa  056 000 000 000

                                   480  ec rel_name_too_long,relnol,
                                   481  	(The relation name exceeds the 30-character limit.)
                        000305          	segdef  rel_name_too_long
    000305  a0   077777 006243
    006241  aa  162 145 154 156         	aci  "relnol",8
    006242  aa  157 154 040 040
    006243  aa  061 124 150 145         	acc  "The relation name exceeds the 30-character limit."
    006244  aa  040 162 145 154
    006245  aa  141 164 151 157
    006246  aa  156 040 156 141
    006247  aa  155 145 040 145
    006250  aa  170 143 145 145
    006251  aa  144 163 040 164
    006252  aa  150 145 040 063
    006253  aa  060 055 143 150
    006254  aa  141 162 141 143
    006255  aa  164 145 162 040
    006256  aa  154 151 155 151
    006257  aa  164 056 000 000

                                   482  ec rel_node,relnode,
                                   483  	(A relational operator has a term or group of terms as an operand.)
                        000306          	segdef  rel_node
    000306  a0   077777 006262
    006260  aa  162 145 154 156         	aci  "relnode",8
    006261  aa  157 144 145 040
    006262  aa  101 101 040 162         	acc  "A relational operator has a term or group of terms as an operand."
    006263  aa  145 154 141 164
    006264  aa  151 157 156 141
    006265  aa  154 040 157 160
    006266  aa  145 162 141 164
    006267  aa  157 162 040 150
    006270  aa  141 163 040 141
    006271  aa  040 164 145 162
    006272  aa  155 040 157 162
    006273  aa  040 147 162 157
    006274  aa  165 160 040 157
    006275  aa  146 040 164 145
    006276  aa  162 155 163 040
    006277  aa  141 163 040 141
    006300  aa  156 040 157 160
    006301  aa  145 162 141 156
    006302  aa  144 056 000 000

                                   484  ec rst_bad_attribute_count,attr_cnt,
                                   485  	(Model structure and attribute count don't agree.)
                        000307          	segdef  rst_bad_attribute_count
    000307  a0   077777 006305
    006303  aa  141 164 164 162         	aci  "attr_cnt",8
    006304  aa  137 143 156 164
    006305  aa  060 115 157 144         	acc  "Model structure and attribute count don't agree."
    006306  aa  145 154 040 163
    006307  aa  164 162 165 143
    006310  aa  164 165 162 145
    006311  aa  040 141 156 144
    006312  aa  040 141 164 164
    006313  aa  162 151 142 165
    006314  aa  164 145 040 143
    006315  aa  157 165 156 164
    006316  aa  040 144 157 156
    006317  aa  047 164 040 141
    006320  aa  147 162 145 145
    006321  aa  056 000 000 000

                                   486  ec rst_bad_bit_string,bad_bstr,
                                   487  	(Bit string violates syntax rules.)
                        000310          	segdef  rst_bad_bit_string
    000310  a0   077777 006324
    006322  aa  142 141 144 137         	aci  "bad_bstr",8
    006323  aa  142 163 164 162
    006324  aa  041 102 151 164         	acc  "Bit string violates syntax rules."
    006325  aa  040 163 164 162
    006326  aa  151 156 147 040
    006327  aa  166 151 157 154
    006330  aa  141 164 145 163
    006331  aa  040 163 171 156
    006332  aa  164 141 170 040
    006333  aa  162 165 154 145
    006334  aa  163 056 000 000

                                   488  ec rst_bad_child_count,childcnt,
                                   489  	(Model structure and child link count don't agree.)
                        000311          	segdef  rst_bad_child_count
    000311  a0   077777 006337
    006335  aa  143 150 151 154         	aci  "childcnt",8
    006336  aa  144 143 156 164
    006337  aa  061 115 157 144         	acc  "Model structure and child link count don't agree."
    006340  aa  145 154 040 163
    006341  aa  164 162 165 143
    006342  aa  164 165 162 145
    006343  aa  040 141 156 144
    006344  aa  040 143 150 151
    006345  aa  154 144 040 154
    006346  aa  151 156 153 040
    006347  aa  143 157 165 156
    006350  aa  164 040 144 157
    006351  aa  156 047 164 040
    006352  aa  141 147 162 145
    006353  aa  145 056 000 000

                                   490  ec rst_bad_declaration,bad_decl,
                                   491  	(Error in the declaration of a domain.)
                        000312          	segdef  rst_bad_declaration
    000312  a0   077777 006356
    006354  aa  142 141 144 137         	aci  "bad_decl",8
    006355  aa  144 145 143 154
    006356  aa  045 105 162 162         	acc  "Error in the declaration of a domain."
    006357  aa  157 162 040 151
    006360  aa  156 040 164 150
    006361  aa  145 040 144 145
    006362  aa  143 154 141 162
    006363  aa  141 164 151 157
    006364  aa  156 040 157 146
    006365  aa  040 141 040 144
    006366  aa  157 155 141 151
    006367  aa  156 056 000 000

                                   492  ec rst_bad_domain_count,dom_cnt,
                                   493  	(Model structure and domain count don't agree.)
                        000313          	segdef  rst_bad_domain_count
    000313  a0   077777 006372
    006370  aa  144 157 155 137         	aci  "dom_cnt",8
    006371  aa  143 156 164 040
    006372  aa  055 115 157 144         	acc  "Model structure and domain count don't agree."
    006373  aa  145 154 040 163
    006374  aa  164 162 165 143
    006375  aa  164 165 162 145
    006376  aa  040 141 156 144
    006377  aa  040 144 157 155
    006400  aa  141 151 156 040
    006401  aa  143 157 165 156
    006402  aa  164 040 144 157
    006403  aa  156 047 164 040
    006404  aa  141 147 162 145
    006405  aa  145 056 000 000

                                   494  ec rst_bad_encoding,bad_enco,
                                   495  	(Source character was incorrectly encoded.)
                        000314          	segdef  rst_bad_encoding
    000314  a0   077777 006410
    006406  aa  142 141 144 137         	aci  "bad_enco",8
    006407  aa  145 156 143 157
    006410  aa  051 123 157 165         	acc  "Source character was incorrectly encoded."
    006411  aa  162 143 145 040
    006412  aa  143 150 141 162
    006413  aa  141 143 164 145
    006414  aa  162 040 167 141
    006415  aa  163 040 151 156
    006416  aa  143 157 162 162
    006417  aa  145 143 164 154
    006420  aa  171 040 145 156
    006421  aa  143 157 144 145
    006422  aa  144 056 000 000

                                   496  ec rst_bad_file_count,file_cnt,
                                   497  	(Model structure and file count don't agree.)
                        000315          	segdef  rst_bad_file_count
    000315  a0   077777 006425
    006423  aa  146 151 154 145         	aci  "file_cnt",8
    006424  aa  137 143 156 164
    006425  aa  053 115 157 144         	acc  "Model structure and file count don't agree."
    006426  aa  145 154 040 163
    006427  aa  164 162 165 143
    006430  aa  164 165 162 145
    006431  aa  040 141 156 144
    006432  aa  040 146 151 154
    006433  aa  145 040 143 157
    006434  aa  165 156 164 040
    006435  aa  144 157 156 047
    006436  aa  164 040 141 147
    006437  aa  162 145 145 056

                                   498  ec rst_bad_link_count,link_cnt,
                                   499  	(Model structure and link count don't agree.)
                        000316          	segdef  rst_bad_link_count
    000316  a0   077777 006442
    006440  aa  154 151 156 153         	aci  "link_cnt",8
    006441  aa  137 143 156 164
    006442  aa  053 115 157 144         	acc  "Model structure and link count don't agree."
    006443  aa  145 154 040 163
    006444  aa  164 162 165 143
    006445  aa  164 165 162 145
    006446  aa  040 141 156 144
    006447  aa  040 154 151 156
    006450  aa  153 040 143 157
    006451  aa  165 156 164 040
    006452  aa  144 157 156 047
    006453  aa  164 040 141 147
    006454  aa  162 145 145 056

                                   500  ec rst_bad_model,badmodel,
                                   501  	(Inconsistent data base model detected.)
                        000317          	segdef  rst_bad_model
    000317  a0   077777 006457
    006455  aa  142 141 144 155         	aci  "badmodel",8
    006456  aa  157 144 145 154
    006457  aa  046 111 156 143         	acc  "Inconsistent data base model detected."
    006460  aa  157 156 163 151
    006461  aa  163 164 145 156
    006462  aa  164 040 144 141
    006463  aa  164 141 040 142
    006464  aa  141 163 145 040
    006465  aa  155 157 144 145
    006466  aa  154 040 144 145
    006467  aa  164 145 143 164
    006470  aa  145 144 056 000

                                   502  ec rst_bad_number_syntax,bad_numb,
                                   503  	(Syntax error was found in a number.)
                        000320          	segdef  rst_bad_number_syntax
    000320  a0   077777 006473
    006471  aa  142 141 144 137         	aci  "bad_numb",8
    006472  aa  156 165 155 142
    006473  aa  043 123 171 156         	acc  "Syntax error was found in a number."
    006474  aa  164 141 170 040
    006475  aa  145 162 162 157
    006476  aa  162 040 167 141
    006477  aa  163 040 146 157
    006500  aa  165 156 144 040
    006501  aa  151 156 040 141
    006502  aa  040 156 165 155
    006503  aa  142 145 162 056

                                   504  ec rst_bad_relation_count,rel_cnt,
                                   505  	(Model structure and relation count don't agree.)
                        000321          	segdef  rst_bad_relation_count
    000321  a0   077777 006506
    006504  aa  162 145 154 137         	aci  "rel_cnt",8
    006505  aa  143 156 164 040
    006506  aa  057 115 157 144         	acc  "Model structure and relation count don't agree."
    006507  aa  145 154 040 163
    006510  aa  164 162 165 143
    006511  aa  164 165 162 145
    006512  aa  040 141 156 144
    006513  aa  040 162 145 154
    006514  aa  141 164 151 157
    006515  aa  156 040 143 157
    006516  aa  165 156 164 040
    006517  aa  144 157 156 047
    006520  aa  164 040 141 147
    006521  aa  162 145 145 056

                                   506  ec rst_bad_semantics,bad_sem,
                                   507  	(The intended meaning of a statement may be lost or misinterpreted.)
                        000322          	segdef  rst_bad_semantics
    000322  a0   077777 006524
    006522  aa  142 141 144 137         	aci  "bad_sem",8
    006523  aa  163 145 155 040
    006524  aa  102 124 150 145         	acc  "The intended meaning of a statement may be lost or misinterpreted."
    006525  aa  040 151 156 164
    006526  aa  145 156 144 145
    006527  aa  144 040 155 145
    006530  aa  141 156 151 156
    006531  aa  147 040 157 146
    006532  aa  040 141 040 163
    006533  aa  164 141 164 145
    006534  aa  155 145 156 164
    006535  aa  040 155 141 171
    006536  aa  040 142 145 040
    006537  aa  154 157 163 164
    006540  aa  040 157 162 040
    006541  aa  155 151 163 151
    006542  aa  156 164 145 162
    006543  aa  160 162 145 164
    006544  aa  145 144 056 000

                                   508  ec rst_childless_parent,no_child,
                                   509  	(The given foreign key has no child links.)
                        000323          	segdef  rst_childless_parent
    000323  a0   077777 006547
    006545  aa  156 157 137 143         	aci  "no_child",8
    006546  aa  150 151 154 144
    006547  aa  051 124 150 145         	acc  "The given foreign key has no child links."
    006550  aa  040 147 151 166
    006551  aa  145 156 040 146
    006552  aa  157 162 145 151
    006553  aa  147 156 040 153
    006554  aa  145 171 040 150
    006555  aa  141 163 040 156
    006556  aa  157 040 143 150
    006557  aa  151 154 144 040
    006560  aa  154 151 156 153
    006561  aa  163 056 000 000

                                   510  ec rst_comment_ends_source,comm_end,
                                   511  	(Source segment ends in the middle of a comment.)
                        000324          	segdef  rst_comment_ends_source
    000324  a0   077777 006564
    006562  aa  143 157 155 155         	aci  "comm_end",8
    006563  aa  137 145 156 144
    006564  aa  057 123 157 165         	acc  "Source segment ends in the middle of a comment."
    006565  aa  162 143 145 040
    006566  aa  163 145 147 155
    006567  aa  145 156 164 040
    006570  aa  145 156 144 163
    006571  aa  040 151 156 040
    006572  aa  164 150 145 040
    006573  aa  155 151 144 144
    006574  aa  154 145 040 157
    006575  aa  146 040 141 040
    006576  aa  143 157 155 155
    006577  aa  145 156 164 056

                                   512  ec rst_conversion_error,conv_err,
                                   513  	(Overflow occured trying to convert number to binary.)
                        000325          	segdef  rst_conversion_error
    000325  a0   077777 006602
    006600  aa  143 157 156 166         	aci  "conv_err",8
    006601  aa  137 145 162 162
    006602  aa  064 117 166 145         	acc  "Overflow occured trying to convert number to binary."
    006603  aa  162 146 154 157
    006604  aa  167 040 157 143
    006605  aa  143 165 162 145
    006606  aa  144 040 164 162
    006607  aa  171 151 156 147
    006610  aa  040 164 157 040
    006611  aa  143 157 156 166
    006612  aa  145 162 164 040
    006613  aa  156 165 155 142
    006614  aa  145 162 040 164
    006615  aa  157 040 142 151
    006616  aa  156 141 162 171
    006617  aa  056 000 000 000

                                   514  ec rst_dup_file,dup_file,
                                   515  	(The given file name has a previous definition.)
                        000326          	segdef  rst_dup_file
    000326  a0   077777 006622
    006620  aa  144 165 160 137         	aci  "dup_file",8
    006621  aa  146 151 154 145
    006622  aa  056 124 150 145         	acc  "The given file name has a previous definition."
    006623  aa  040 147 151 166
    006624  aa  145 156 040 146
    006625  aa  151 154 145 040
    006626  aa  156 141 155 145
    006627  aa  040 150 141 163
    006630  aa  040 141 040 160
    006631  aa  162 145 166 151
    006632  aa  157 165 163 040
    006633  aa  144 145 146 151
    006634  aa  156 151 164 151
    006635  aa  157 156 056 000

                                   516  ec rst_illegal_char,bad_char,
                                   517  	(Illegal character being skipped.)
                        000327          	segdef  rst_illegal_char
    000327  a0   077777 006640
    006636  aa  142 141 144 137         	aci  "bad_char",8
    006637  aa  143 150 141 162
    006640  aa  040 111 154 154         	acc  "Illegal character being skipped."
    006641  aa  145 147 141 154
    006642  aa  040 143 150 141
    006643  aa  162 141 143 164
    006644  aa  145 162 040 142
    006645  aa  145 151 156 147
    006646  aa  040 163 153 151
    006647  aa  160 160 145 144
    006650  aa  056 000 000 000

                                   518  ec rst_inconsis_option,incon_op,
                                   519  	(The given attributes in a declaration are contradictory.)
                        000330          	segdef  rst_inconsis_option
    000330  a0   077777 006653
    006651  aa  151 156 143 157         	aci  "incon_op",8
    006652  aa  156 137 157 160
    006653  aa  070 124 150 145         	acc  "The given attributes in a declaration are contradictory."
    006654  aa  040 147 151 166
    006655  aa  145 156 040 141
    006656  aa  164 164 162 151
    006657  aa  142 165 164 145
    006660  aa  163 040 151 156
    006661  aa  040 141 040 144
    006662  aa  145 143 154 141
    006663  aa  162 141 164 151
    006664  aa  157 156 040 141
    006665  aa  162 145 040 143
    006666  aa  157 156 164 162
    006667  aa  141 144 151 143
    006670  aa  164 157 162 171
    006671  aa  056 000 000 000

                                   520  ec rst_invalid_structure_type,inv_stru,
                                   521  	(The given number has no defined structure correspondence.)
                        000331          	segdef  rst_invalid_structure_type
    000331  a0   077777 006674
    006672  aa  151 156 166 137         	aci  "inv_stru",8
    006673  aa  163 164 162 165
    006674  aa  071 124 150 145         	acc  "The given number has no defined structure correspondence."
    006675  aa  040 147 151 166
    006676  aa  145 156 040 156
    006677  aa  165 155 142 145
    006700  aa  162 040 150 141
    006701  aa  163 040 156 157
    006702  aa  040 144 145 146
    006703  aa  151 156 145 144
    006704  aa  040 163 164 162
    006705  aa  165 143 164 165
    006706  aa  162 145 040 143
    006707  aa  157 162 162 145
    006710  aa  163 160 157 156
    006711  aa  144 145 156 143
    006712  aa  145 056 000 000

                                   522  ec rst_io_error,io_error,
                                   523  	(An error was detected during an I/O operation.)
                        000332          	segdef  rst_io_error
    000332  a0   077777 006715
    006713  aa  151 157 137 145         	aci  "io_error",8
    006714  aa  162 162 157 162
    006715  aa  056 101 156 040         	acc  "An error was detected during an I/O operation."
    006716  aa  145 162 162 157
    006717  aa  162 040 167 141
    006720  aa  163 040 144 145
    006721  aa  164 145 143 164
    006722  aa  145 144 040 144
    006723  aa  165 162 151 156
    006724  aa  147 040 141 156
    006725  aa  040 111 057 117
    006726  aa  040 157 160 145
    006727  aa  162 141 164 151
    006730  aa  157 156 056 000

                                   524  ec rst_link_attr_differ,lk_attr,
                                   525  	(The parent/child attribute counts differ.)
                        000333          	segdef  rst_link_attr_differ
    000333  a0   077777 006733
    006731  aa  154 153 137 141         	aci  "lk_attr",8
    006732  aa  164 164 162 040
    006733  aa  051 124 150 145         	acc  "The parent/child attribute counts differ."
    006734  aa  040 160 141 162
    006735  aa  145 156 164 057
    006736  aa  143 150 151 154
    006737  aa  144 040 141 164
    006740  aa  164 162 151 142
    006741  aa  165 164 145 040
    006742  aa  143 157 165 156
    006743  aa  164 163 040 144
    006744  aa  151 146 146 145
    006745  aa  162 056 000 000

                                   526  ec rst_list_delete_fail,del_fail,
                                   527  	(The item to be deleted was not in the list.)
                        000334          	segdef  rst_list_delete_fail
    000334  a0   077777 006750
    006746  aa  144 145 154 137         	aci  "del_fail",8
    006747  aa  146 141 151 154
    006750  aa  053 124 150 145         	acc  "The item to be deleted was not in the list."
    006751  aa  040 151 164 145
    006752  aa  155 040 164 157
    006753  aa  040 142 145 040
    006754  aa  144 145 154 145
    006755  aa  164 145 144 040
    006756  aa  167 141 163 040
    006757  aa  156 157 164 040
    006760  aa  151 156 040 164
    006761  aa  150 145 040 154
    006762  aa  151 163 164 056

                                   528  ec rst_list_duplicate,list_dup,
                                   529  	(Attempt to add a duplicate to the given list.)
                        000335          	segdef  rst_list_duplicate
    000335  a0   077777 006765
    006763  aa  154 151 163 164         	aci  "list_dup",8
    006764  aa  137 144 165 160
    006765  aa  055 101 164 164         	acc  "Attempt to add a duplicate to the given list."
    006766  aa  145 155 160 164
    006767  aa  040 164 157 040
    006770  aa  141 144 144 040
    006771  aa  141 040 144 165
    006772  aa  160 154 151 143
    006773  aa  141 164 145 040
    006774  aa  164 157 040 164
    006775  aa  150 145 040 147
    006776  aa  151 166 145 156
    006777  aa  040 154 151 163
    007000  aa  164 056 000 000

                                   530  ec rst_missing_file_model,no_model,
                                   531  	(File model segment not found.)
                        000336          	segdef  rst_missing_file_model
    000336  a0   077777 007003
    007001  aa  156 157 137 155         	aci  "no_model",8
    007002  aa  157 144 145 154
    007003  aa  035 106 151 154         	acc  "File model segment not found."
    007004  aa  145 040 155 157
    007005  aa  144 145 154 040
    007006  aa  163 145 147 155
    007007  aa  145 156 164 040
    007010  aa  156 157 164 040
    007011  aa  146 157 165 156
    007012  aa  144 056 000 000

                                   532  ec rst_missing_pathname,no_path,
                                   533  	(An expected pathname was not found.)
                        000337          	segdef  rst_missing_pathname
    000337  a0   077777 007015
    007013  aa  156 157 137 160         	aci  "no_path",8
    007014  aa  141 164 150 040
    007015  aa  043 101 156 040         	acc  "An expected pathname was not found."
    007016  aa  145 170 160 145
    007017  aa  143 164 145 144
    007020  aa  040 160 141 164
    007021  aa  150 156 141 155
    007022  aa  145 040 167 141
    007023  aa  163 040 156 157
    007024  aa  164 040 146 157
    007025  aa  165 156 144 056

                                   534  ec rst_missing_ref_domain,no_dom,
                                   535  	(A domain referenced by an attribute wasn't found.)
                        000340          	segdef  rst_missing_ref_domain
    000340  a0   077777 007030
    007026  aa  156 157 137 144         	aci  "no_dom",8
    007027  aa  157 155 040 040
    007030  aa  061 101 040 144         	acc  "A domain referenced by an attribute wasn't found."
    007031  aa  157 155 141 151
    007032  aa  156 040 162 145
    007033  aa  146 145 162 145
    007034  aa  156 143 145 144
    007035  aa  040 142 171 040
    007036  aa  141 156 040 141
    007037  aa  164 164 162 151
    007040  aa  142 165 164 145
    007041  aa  040 167 141 163
    007042  aa  156 047 164 040
    007043  aa  146 157 165 156
    007044  aa  144 056 000 000

                                   536  ec rst_model_limit,modlimit,
                                   537  	(The capacity of the data base model has been exceeded.)
                        000341          	segdef  rst_model_limit
    000341  a0   077777 007047
    007045  aa  155 157 144 154         	aci  "modlimit",8
    007046  aa  151 155 151 164
    007047  aa  066 124 150 145         	acc  "The capacity of the data base model has been exceeded."
    007050  aa  040 143 141 160
    007051  aa  141 143 151 164
    007052  aa  171 040 157 146
    007053  aa  040 164 150 145
    007054  aa  040 144 141 164
    007055  aa  141 040 142 141
    007056  aa  163 145 040 155
    007057  aa  157 144 145 154
    007060  aa  040 150 141 163
    007061  aa  040 142 145 145
    007062  aa  156 040 145 170
    007063  aa  143 145 145 144
    007064  aa  145 144 056 000

                                   538  ec rst_name_duplicate,dup_name,
                                   539  	(A relation's attribute list contains a duplicate name.)
                        000342          	segdef  rst_name_duplicate
    000342  a0   077777 007067
    007065  aa  144 165 160 137         	aci  "dup_name",8
    007066  aa  156 141 155 145
    007067  aa  066 101 040 162         	acc  "A relation's attribute list contains a duplicate name."
    007070  aa  145 154 141 164
    007071  aa  151 157 156 047
    007072  aa  163 040 141 164
    007073  aa  164 162 151 142
    007074  aa  165 164 145 040
    007075  aa  154 151 163 164
    007076  aa  040 143 157 156
    007077  aa  164 141 151 156
    007100  aa  163 040 141 040
    007101  aa  144 165 160 154
    007102  aa  151 143 141 164
    007103  aa  145 040 156 141
    007104  aa  155 145 056 000

                                   540  ec rst_name_too_long,lg_name,
                                   541  	(A name exceeds it's maximum allowable length.)
                        000343          	segdef  rst_name_too_long
    000343  a0   077777 007107
    007105  aa  154 147 137 156         	aci  "lg_name",8
    007106  aa  141 155 145 040
    007107  aa  055 101 040 156         	acc  "A name exceeds it's maximum allowable length."
    007110  aa  141 155 145 040
    007111  aa  145 170 143 145
    007112  aa  145 144 163 040
    007113  aa  151 164 047 163
    007114  aa  040 155 141 170
    007115  aa  151 155 165 155
    007116  aa  040 141 154 154
    007117  aa  157 167 141 142
    007120  aa  154 145 040 154
    007121  aa  145 156 147 164
    007122  aa  150 056 000 000

                                   542  ec rst_no_key_attr,no_key,
                                   543  	(The given relation does not specify any key attributes.)
                        000344          	segdef  rst_no_key_attr
    000344  a0   077777 007125
    007123  aa  156 157 137 153         	aci  "no_key",8
    007124  aa  145 171 040 040
    007125  aa  067 124 150 145         	acc  "The given relation does not specify any key attributes."
    007126  aa  040 147 151 166
    007127  aa  145 156 040 162
    007130  aa  145 154 141 164
    007131  aa  151 157 156 040
    007132  aa  144 157 145 163
    007133  aa  040 156 157 164
    007134  aa  040 163 160 145
    007135  aa  143 151 146 171
    007136  aa  040 141 156 171
    007137  aa  040 153 145 171
    007140  aa  040 141 164 164
    007141  aa  162 151 142 165
    007142  aa  164 145 163 056

                                   544  ec rst_no_link_relation,nolk_rel,
                                   545  	(The given link does not have a relation attached.)
                        000345          	segdef  rst_no_link_relation
    000345  a0   077777 007145
    007143  aa  156 157 154 153         	aci  "nolk_rel",8
    007144  aa  137 162 145 154
    007145  aa  061 124 150 145         	acc  "The given link does not have a relation attached."
    007146  aa  040 147 151 166
    007147  aa  145 156 040 154
    007150  aa  151 156 153 040
    007151  aa  144 157 145 163
    007152  aa  040 156 157 164
    007153  aa  040 150 141 166
    007154  aa  145 040 141 040
    007155  aa  162 145 154 141
    007156  aa  164 151 157 156
    007157  aa  040 141 164 164
    007160  aa  141 143 150 145
    007161  aa  144 056 000 000

                                   546  ec rst_not_rel_attr,nrelattr,
                                   547  	(A relation does not contain the referenced attribute.)
                        000346          	segdef  rst_not_rel_attr
    000346  a0   077777 007164
    007162  aa  156 162 145 154         	aci  "nrelattr",8
    007163  aa  141 164 164 162
    007164  aa  065 101 040 162         	acc  "A relation does not contain the referenced attribute."
    007165  aa  145 154 141 164
    007166  aa  151 157 156 040
    007167  aa  144 157 145 163
    007170  aa  040 156 157 164
    007171  aa  040 143 157 156
    007172  aa  164 141 151 156
    007173  aa  040 164 150 145
    007174  aa  040 162 145 146
    007175  aa  145 162 145 156
    007176  aa  143 145 144 040
    007177  aa  141 164 164 162
    007200  aa  151 142 165 164
    007201  aa  145 056 000 000

                                   548  ec rst_option_limit,opt_lim,
                                   549  	(The upper limit for an option's value was exceeded.)
                        000347          	segdef  rst_option_limit
    000347  a0   077777 007204
    007202  aa  157 160 164 137         	aci  "opt_lim",8
    007203  aa  154 151 155 040
    007204  aa  063 124 150 145         	acc  "The upper limit for an option's value was exceeded."
    007205  aa  040 165 160 160
    007206  aa  145 162 040 154
    007207  aa  151 155 151 164
    007210  aa  040 146 157 162
    007211  aa  040 141 156 040
    007212  aa  157 160 164 151
    007213  aa  157 156 047 163
    007214  aa  040 166 141 154
    007215  aa  165 145 040 167
    007216  aa  141 163 040 145
    007217  aa  170 143 145 145
    007220  aa  144 145 144 056

                                   550  ec rst_parse_err_correct,perr_cor,
                                   551  	(Unable to understand statement structure, attempting guess at intended syntax.)
                        000350          	segdef  rst_parse_err_correct
    000350  a0   077777 007223
    007221  aa  160 145 162 162         	aci  "perr_cor",8
    007222  aa  137 143 157 162
    007223  aa  116 125 156 141         	acc  "Unable to understand statement structure, attempting guess at intended syntax."
    007224  aa  142 154 145 040
    007225  aa  164 157 040 165
    007226  aa  156 144 145 162
    007227  aa  163 164 141 156
    007230  aa  144 040 163 164
    007231  aa  141 164 145 155
    007232  aa  145 156 164 040
    007233  aa  163 164 162 165
    007234  aa  143 164 165 162
    007235  aa  145 054 040 141
    007236  aa  164 164 145 155
    007237  aa  160 164 151 156
    007240  aa  147 040 147 165
    007241  aa  145 163 163 040
    007242  aa  141 164 040 151
    007243  aa  156 164 145 156
    007244  aa  144 145 144 040
    007245  aa  163 171 156 164
    007246  aa  141 170 056 000

                                   552  ec rst_parse_err_no_correct,perr_nco,
                                   553  	(Unable to understand statment structure, and attempt at guessing intended syntax failed.)
                        000351          	segdef  rst_parse_err_no_correct
    000351  a0   077777 007251
    007247  aa  160 145 162 162         	aci  "perr_nco",8
    007250  aa  137 156 143 157
    007251  aa  130 125 156 141         	acc  "Unable to understand statment structure, and attempt at guessing intended syntax failed."
    007252  aa  142 154 145 040
    007253  aa  164 157 040 165
    007254  aa  156 144 145 162
    007255  aa  163 164 141 156
    007256  aa  144 040 163 164
    007257  aa  141 164 155 145
    007260  aa  156 164 040 163
    007261  aa  164 162 165 143
    007262  aa  164 165 162 145
    007263  aa  054 040 141 156
    007264  aa  144 040 141 164
    007265  aa  164 145 155 160
    007266  aa  164 040 141 164
    007267  aa  040 147 165 145
    007270  aa  163 163 151 156
    007271  aa  147 040 151 156
    007272  aa  164 145 156 144
    007273  aa  145 144 040 163
    007274  aa  171 156 164 141
    007275  aa  170 040 146 141
    007276  aa  151 154 145 144
    007277  aa  056 000 000 000

                                   554  ec rst_parse_err_no_recover,perr_nre,
                                   555  	(Unable to comprehend statement structure, and attempt to recover by skipping to next recognizable delimiter failed.)
                        000352          	segdef  rst_parse_err_no_recover
    000352  a0   077777 007302
    007300  aa  160 145 162 162         	aci  "perr_nre",8
    007301  aa  137 156 162 145
    007302  aa  163 125 156 141         	acc  "Unable to comprehend statement structure, and attempt to recover by skipping to next recognizable delimiter failed."
    007303  aa  142 154 145 040
    007304  aa  164 157 040 143
    007305  aa  157 155 160 162
    007306  aa  145 150 145 156
    007307  aa  144 040 163 164
    007310  aa  141 164 145 155
    007311  aa  145 156 164 040
    007312  aa  163 164 162 165
    007313  aa  143 164 165 162
    007314  aa  145 054 040 141
    007315  aa  156 144 040 141
    007316  aa  164 164 145 155
    007317  aa  160 164 040 164
    007320  aa  157 040 162 145
    007321  aa  143 157 166 145
    007322  aa  162 040 142 171
    007323  aa  040 163 153 151
    007324  aa  160 160 151 156
    007325  aa  147 040 164 157
    007326  aa  040 156 145 170
    007327  aa  164 040 162 145
    007330  aa  143 157 147 156
    007331  aa  151 172 141 142
    007332  aa  154 145 040 144
    007333  aa  145 154 151 155
    007334  aa  151 164 145 162
    007335  aa  040 146 141 151
    007336  aa  154 145 144 056

                                   556  ec rst_parse_err_recover,perr_rec,
                                   557  	(Unable to comprehend statement structure, skipping to next recognizable delimiter.)
                        000353          	segdef  rst_parse_err_recover
    000353  a0   077777 007341
    007337  aa  160 145 162 162         	aci  "perr_rec",8
    007340  aa  137 162 145 143
    007341  aa  122 125 156 141         	acc  "Unable to comprehend statement structure, skipping to next recognizable delimiter."
    007342  aa  142 154 145 040
    007343  aa  164 157 040 143
    007344  aa  157 155 160 162
    007345  aa  145 150 145 156
    007346  aa  144 040 163 164
    007347  aa  141 164 145 155
    007350  aa  145 156 164 040
    007351  aa  163 164 162 165
    007352  aa  143 164 165 162
    007353  aa  145 054 040 163
    007354  aa  153 151 160 160
    007355  aa  151 156 147 040
    007356  aa  164 157 040 156
    007357  aa  145 170 164 040
    007360  aa  162 145 143 157
    007361  aa  147 156 151 172
    007362  aa  141 142 154 145
    007363  aa  040 144 145 154
    007364  aa  151 155 151 164
    007365  aa  145 162 056 000

                                   558  ec rst_parse_fail,par_fail,
                                   559  	(Totally confused by statement syntax, unable to continue parsing.)
                        000354          	segdef  rst_parse_fail
    000354  a0   077777 007370
    007366  aa  160 141 162 137         	aci  "par_fail",8
    007367  aa  146 141 151 154
    007370  aa  101 124 157 164         	acc  "Totally confused by statement syntax, unable to continue parsing."
    007371  aa  141 154 154 171
    007372  aa  040 143 157 156
    007373  aa  146 165 163 145
    007374  aa  144 040 142 171
    007375  aa  040 163 164 141
    007376  aa  164 145 155 145
    007377  aa  156 164 040 163
    007400  aa  171 156 164 141
    007401  aa  170 054 040 165
    007402  aa  156 141 142 154
    007403  aa  145 040 164 157
    007404  aa  040 143 157 156
    007405  aa  164 151 156 165
    007406  aa  145 040 160 141
    007407  aa  162 163 151 156
    007410  aa  147 056 000 000

                                   560  ec rst_pathname_ends_source,pathends,
                                   561  	(The source segment ends during a path/entry name.)
                        000355          	segdef  rst_pathname_ends_source
    000355  a0   077777 007413
    007411  aa  160 141 164 150         	aci  "pathends",8
    007412  aa  145 156 144 163
    007413  aa  061 124 150 145         	acc  "The source segment ends during a path/entry name."
    007414  aa  040 163 157 165
    007415  aa  162 143 145 040
    007416  aa  163 145 147 155
    007417  aa  145 156 164 040
    007420  aa  145 156 144 163
    007421  aa  040 144 165 162
    007422  aa  151 156 147 040
    007423  aa  141 040 160 141
    007424  aa  164 150 057 145
    007425  aa  156 164 162 171
    007426  aa  040 156 141 155
    007427  aa  145 056 000 000

                                   562  ec rst_rel_has_file,rel_file,
                                   563  	(A referenced relation has a previous file definition.)
                        000356          	segdef  rst_rel_has_file
    000356  a0   077777 007432
    007430  aa  162 145 154 137         	aci  "rel_file",8
    007431  aa  146 151 154 145
    007432  aa  065 101 040 162         	acc  "A referenced relation has a previous file definition."
    007433  aa  145 146 145 162
    007434  aa  145 156 143 145
    007435  aa  144 040 162 145
    007436  aa  154 141 164 151
    007437  aa  157 156 040 150
    007440  aa  141 163 040 141
    007441  aa  040 160 162 145
    007442  aa  166 151 157 165
    007443  aa  163 040 146 151
    007444  aa  154 145 040 144
    007445  aa  145 146 151 156
    007446  aa  151 164 151 157
    007447  aa  156 056 000 000

                                   564  ec rst_reserved_name,reserved,
                                   565  	(A reserved name was used.)
                        000357          	segdef  rst_reserved_name
    000357  a0   077777 007452
    007450  aa  162 145 163 145         	aci  "reserved",8
    007451  aa  162 166 145 144
    007452  aa  031 101 040 162         	acc  "A reserved name was used."
    007453  aa  145 163 145 162
    007454  aa  166 145 144 040
    007455  aa  156 141 155 145
    007456  aa  040 167 141 163
    007457  aa  040 165 163 145
    007460  aa  144 056 000 000

                                   566  ec rst_string_ends_source,str_ends,
                                   567  	(The source segment ends within a quoted string.)
                        000360          	segdef  rst_string_ends_source
    000360  a0   077777 007463
    007461  aa  163 164 162 137         	aci  "str_ends",8
    007462  aa  145 156 144 163
    007463  aa  057 124 150 145         	acc  "The source segment ends within a quoted string."
    007464  aa  040 163 157 165
    007465  aa  162 143 145 040
    007466  aa  163 145 147 155
    007467  aa  145 156 164 040
    007470  aa  145 156 144 163
    007471  aa  040 167 151 164
    007472  aa  150 151 156 040
    007473  aa  141 040 161 165
    007474  aa  157 164 145 144
    007475  aa  040 163 164 162
    007476  aa  151 156 147 056

                                   568  ec rst_token_too_long,lg_token,
                                   569  	(A token exceeds the maximum string size.)
                        000361          	segdef  rst_token_too_long
    000361  a0   077777 007501
    007477  aa  154 147 137 164         	aci  "lg_token",8
    007500  aa  157 153 145 156
    007501  aa  050 101 040 164         	acc  "A token exceeds the maximum string size."
    007502  aa  157 153 145 156
    007503  aa  040 145 170 143
    007504  aa  145 145 144 163
    007505  aa  040 164 150 145
    007506  aa  040 155 141 170
    007507  aa  151 155 165 155
    007510  aa  040 163 164 162
    007511  aa  151 156 147 040
    007512  aa  163 151 172 145
    007513  aa  056 000 000 000

                                   570  ec rst_undef_rel,undefrel,
                                   571  	(A referenced relation has not been previously defined.)
                        000362          	segdef  rst_undef_rel
    000362  a0   077777 007516
    007514  aa  165 156 144 145         	aci  "undefrel",8
    007515  aa  146 162 145 154
    007516  aa  066 101 040 162         	acc  "A referenced relation has not been previously defined."
    007517  aa  145 146 145 162
    007520  aa  145 156 143 145
    007521  aa  144 040 162 145
    007522  aa  154 141 164 151
    007523  aa  157 156 040 150
    007524  aa  141 163 040 156
    007525  aa  157 164 040 142
    007526  aa  145 145 156 040
    007527  aa  160 162 145 166
    007530  aa  151 157 165 163
    007531  aa  154 171 040 144
    007532  aa  145 146 151 156
    007533  aa  145 144 056 000

                                   572  ec rst_undone_option,undone,
                                   573  	(The specified option is not implemented.)
                        000363          	segdef  rst_undone_option
    000363  a0   077777 007536
    007534  aa  165 156 144 157         	aci  "undone",8
    007535  aa  156 145 040 040
    007536  aa  050 124 150 145         	acc  "The specified option is not implemented."
    007537  aa  040 163 160 145
    007540  aa  143 151 146 151
    007541  aa  145 144 040 157
    007542  aa  160 164 151 157
    007543  aa  156 040 151 163
    007544  aa  040 156 157 164
    007545  aa  040 151 155 160
    007546  aa  154 145 155 145
    007547  aa  156 164 145 144
    007550  aa  056 000 000 000

                                   574  ec rst_unused_attr,nrefattr,
                                   575  	(The given attribute has never been referenced in a data base relation.)
                        000364          	segdef  rst_unused_attr
    000364  a0   077777 007553
    007551  aa  156 162 145 146         	aci  "nrefattr",8
    007552  aa  141 164 164 162
    007553  aa  106 124 150 145         	acc  "The given attribute has never been referenced in a data base relation."
    007554  aa  040 147 151 166
    007555  aa  145 156 040 141
    007556  aa  164 164 162 151
    007557  aa  142 165 164 145
    007560  aa  040 150 141 163
    007561  aa  040 156 145 166
    007562  aa  145 162 040 142
    007563  aa  145 145 156 040
    007564  aa  162 145 146 145
    007565  aa  162 145 156 143
    007566  aa  145 144 040 151
    007567  aa  156 040 141 040
    007570  aa  144 141 164 141
    007571  aa  040 142 141 163
    007572  aa  145 040 162 145
    007573  aa  154 141 164 151
    007574  aa  157 156 056 000

                                   576  ec rst_unused_attr_dom,nrefadom,
                                   577  	(The given domain has never been referenced in a data base relation.)
                        000365          	segdef  rst_unused_attr_dom
    000365  a0   077777 007577
    007575  aa  156 162 145 146         	aci  "nrefadom",8
    007576  aa  141 144 157 155
    007577  aa  103 124 150 145         	acc  "The given domain has never been referenced in a data base relation."
    007600  aa  040 147 151 166
    007601  aa  145 156 040 144
    007602  aa  157 155 141 151
    007603  aa  156 040 150 141
    007604  aa  163 040 156 145
    007605  aa  166 145 162 040
    007606  aa  142 145 145 156
    007607  aa  040 162 145 146
    007610  aa  145 162 145 156
    007611  aa  143 145 144 040
    007612  aa  151 156 040 141
    007613  aa  040 144 141 164
    007614  aa  141 040 142 141
    007615  aa  163 145 040 162
    007616  aa  145 154 141 164
    007617  aa  151 157 156 056

                                   578  ec rst_wrong_command,wrongcmd,
                                   579  	(The command or subroutine call was given in an incompatible situation or sequence.)
                        000366          	segdef  rst_wrong_command
    000366  a0   077777 007622
    007620  aa  167 162 157 156         	aci  "wrongcmd",8
    007621  aa  147 143 155 144
    007622  aa  122 124 150 145         	acc  "The command or subroutine call was given in an incompatible situation or sequence."
    007623  aa  040 143 157 155
    007624  aa  155 141 156 144
    007625  aa  040 157 162 040
    007626  aa  163 165 142 162
    007627  aa  157 165 164 151
    007630  aa  156 145 040 143
    007631  aa  141 154 154 040
    007632  aa  167 141 163 040
    007633  aa  147 151 166 145
    007634  aa  156 040 151 156
    007635  aa  040 141 156 040
    007636  aa  151 156 143 157
    007637  aa  155 160 141 164
    007640  aa  151 142 154 145
    007641  aa  040 163 151 164
    007642  aa  165 141 164 151
    007643  aa  157 156 040 157
    007644  aa  162 040 163 145
    007645  aa  161 165 145 156
    007646  aa  143 145 056 000

                                   580  ec scal_func_conversion,sclfuncv,
                                   581  	(A conversion condition was raised while processing a scalar function.)
                        000367          	segdef  scal_func_conversion
    000367  a0   077777 007651
    007647  aa  163 143 154 146         	aci  "sclfuncv",8
    007650  aa  165 156 143 166
    007651  aa  105 101 040 143         	acc  "A conversion condition was raised while processing a scalar function."
    007652  aa  157 156 166 145
    007653  aa  162 163 151 157
    007654  aa  156 040 143 157
    007655  aa  156 144 151 164
    007656  aa  151 157 156 040
    007657  aa  167 141 163 040
    007660  aa  162 141 151 163
    007661  aa  145 144 040 167
    007662  aa  150 151 154 145
    007663  aa  040 160 162 157
    007664  aa  143 145 163 163
    007665  aa  151 156 147 040
    007666  aa  141 040 163 143
    007667  aa  141 154 141 162
    007670  aa  040 146 165 156
    007671  aa  143 164 151 157
    007672  aa  156 056 000 000

                                   582  ec scope_empty,emptyscp,
                                   583  	(Attempt to delete scope tuple from empty scope set.)
                        000370          	segdef  scope_empty
    000370  a0   077777 007675
    007673  aa  145 155 160 164         	aci  "emptyscp",8
    007674  aa  171 163 143 160
    007675  aa  063 101 164 164         	acc  "Attempt to delete scope tuple from empty scope set."
    007676  aa  145 155 160 164
    007677  aa  040 164 157 040
    007700  aa  144 145 154 145
    007701  aa  164 145 040 163
    007702  aa  143 157 160 145
    007703  aa  040 164 165 160
    007704  aa  154 145 040 146
    007705  aa  162 157 155 040
    007706  aa  145 155 160 164
    007707  aa  171 040 163 143
    007710  aa  157 160 145 040
    007711  aa  163 145 164 056

                                   584  ec scope_mrds_access_conflict,scopmrds,
                                   585  	(The requested scope exceeds the MRDS access granted for this relation.)
                        000371          	segdef  scope_mrds_access_conflict
    000371  a0   077777 007714
    007712  aa  163 143 157 160         	aci  "scopmrds",8
    007713  aa  155 162 144 163
    007714  aa  106 124 150 145         	acc  "The requested scope exceeds the MRDS access granted for this relation."
    007715  aa  040 162 145 161
    007716  aa  165 145 163 164
    007717  aa  145 144 040 163
    007720  aa  143 157 160 145
    007721  aa  040 145 170 143
    007722  aa  145 145 144 163
    007723  aa  040 164 150 145
    007724  aa  040 115 122 104
    007725  aa  123 040 141 143
    007726  aa  143 145 163 163
    007727  aa  040 147 162 141
    007730  aa  156 164 145 144
    007731  aa  040 146 157 162
    007732  aa  040 164 150 151
    007733  aa  163 040 162 145
    007734  aa  154 141 164 151
    007735  aa  157 156 056 000

                                   586  ec scope_not_empty,scopenem,
                                   587  	(Attempt to define scope while scope is not empty.)
                        000372          	segdef  scope_not_empty
    000372  a0   077777 007740
    007736  aa  163 143 157 160         	aci  "scopenem",8
    007737  aa  145 156 145 155
    007740  aa  061 101 164 164         	acc  "Attempt to define scope while scope is not empty."
    007741  aa  145 155 160 164
    007742  aa  040 164 157 040
    007743  aa  144 145 146 151
    007744  aa  156 145 040 163
    007745  aa  143 157 160 145
    007746  aa  040 167 150 151
    007747  aa  154 145 040 163
    007750  aa  143 157 160 145
    007751  aa  040 151 163 040
    007752  aa  156 157 164 040
    007753  aa  145 155 160 164
    007754  aa  171 056 000 000

                                   588  ec scope_not_found,scopemis,
                                   589  	(Specified scope tuple not in current scope.)
                        000373          	segdef  scope_not_found
    000373  a0   077777 007757
    007755  aa  163 143 157 160         	aci  "scopemis",8
    007756  aa  145 155 151 163
    007757  aa  053 123 160 145         	acc  "Specified scope tuple not in current scope."
    007760  aa  143 151 146 151
    007761  aa  145 144 040 163
    007762  aa  143 157 160 145
    007763  aa  040 164 165 160
    007764  aa  154 145 040 156
    007765  aa  157 164 040 151
    007766  aa  156 040 143 165
    007767  aa  162 162 145 156
    007770  aa  164 040 163 143
    007771  aa  157 160 145 056

                                   590  ec scope_not_set,scopenon,
                                   591  	(No scope currently set for the specified relation.)
                        000374          	segdef  scope_not_set
    000374  a0   077777 007774
    007772  aa  163 143 157 160         	aci  "scopenon",8
    007773  aa  145 156 157 156
    007774  aa  062 116 157 040         	acc  "No scope currently set for the specified relation."
    007775  aa  163 143 157 160
    007776  aa  145 040 143 165
    007777  aa  162 162 145 156
    010000  aa  164 154 171 040
    010001  aa  163 145 164 040
    010002  aa  146 157 162 040
    010003  aa  164 150 145 040
    010004  aa  163 160 145 143
    010005  aa  151 146 151 145
    010006  aa  144 040 162 145
    010007  aa  154 141 164 151
    010010  aa  157 156 056 000

                                   592  ec scope_system_access_conflict,scopesys,
                                   593  	(The requested scope exceeds the system acl's on the given relation.)
                        000375          	segdef  scope_system_access_conflict
    000375  a0   077777 010013
    010011  aa  163 143 157 160         	aci  "scopesys",8
    010012  aa  145 163 171 163
    010013  aa  103 124 150 145         	acc  "The requested scope exceeds the system acl's on the given relation."
    010014  aa  040 162 145 161
    010015  aa  165 145 163 164
    010016  aa  145 144 040 163
    010017  aa  143 157 160 145
    010020  aa  040 145 170 143
    010021  aa  145 145 144 163
    010022  aa  040 164 150 145
    010023  aa  040 163 171 163
    010024  aa  164 145 155 040
    010025  aa  141 143 154 047
    010026  aa  163 040 157 156
    010027  aa  040 164 150 145
    010030  aa  040 147 151 166
    010031  aa  145 156 040 162
    010032  aa  145 154 141 164
    010033  aa  151 157 156 056

                                   594  ec scope_viol,scpviol,
                                   595  	(This operation is not permitted within the current scope definition.)
                        000376          	segdef  scope_viol
    000376  a0   077777 010036
    010034  aa  163 143 160 166         	aci  "scpviol",8
    010035  aa  151 157 154 040
    010036  aa  104 124 150 151         	acc  "This operation is not permitted within the current scope definition."
    010037  aa  163 040 157 160
    010040  aa  145 162 141 164
    010041  aa  151 157 156 040
    010042  aa  151 163 040 156
    010043  aa  157 164 040 160
    010044  aa  145 162 155 151
    010045  aa  164 164 145 144
    010046  aa  040 167 151 164
    010047  aa  150 151 156 040
    010050  aa  164 150 145 040
    010051  aa  143 165 162 162
    010052  aa  145 156 164 040
    010053  aa  163 143 157 160
    010054  aa  145 040 144 145
    010055  aa  146 151 156 151
    010056  aa  164 151 157 156
    010057  aa  056 000 000 000

                                   596  ec sel_blk_synt,seblsyn,
                                   597  	(A syntax error has been detected within a select block.)
                        000377          	segdef  sel_blk_synt
    000377  a0   077777 010062
    010060  aa  163 145 142 154         	aci  "seblsyn",8
    010061  aa  163 171 156 040
    010062  aa  067 101 040 163         	acc  "A syntax error has been detected within a select block."
    010063  aa  171 156 164 141
    010064  aa  170 040 145 162
    010065  aa  162 157 162 040
    010066  aa  150 141 163 040
    010067  aa  142 145 145 156
    010070  aa  040 144 145 164
    010071  aa  145 143 164 145
    010072  aa  144 040 167 151
    010073  aa  164 150 151 156
    010074  aa  040 141 040 163
    010075  aa  145 154 145 143
    010076  aa  164 040 142 154
    010077  aa  157 143 153 056

                                   598  ec select_mismatch,fewvals,
                                   599  	(There are not enough value arguments to satisfy all specified select items.)
                        000400          	segdef  select_mismatch
    000400  a0   077777 010102
    010100  aa  146 145 167 166         	aci  "fewvals",8
    010101  aa  141 154 163 040
    010102  aa  113 124 150 145         	acc  "There are not enough value arguments to satisfy all specified select items."
    010103  aa  162 145 040 141
    010104  aa  162 145 040 156
    010105  aa  157 164 040 145
    010106  aa  156 157 165 147
    010107  aa  150 040 166 141
    010110  aa  154 165 145 040
    010111  aa  141 162 147 165
    010112  aa  155 145 156 164
    010113  aa  163 040 164 157
    010114  aa  040 163 141 164
    010115  aa  151 163 146 171
    010116  aa  040 141 154 154
    010117  aa  040 163 160 145
    010120  aa  143 151 146 151
    010121  aa  145 144 040 163
    010122  aa  145 154 145 143
    010123  aa  164 040 151 164
    010124  aa  145 155 163 056

                                   600  ec select_syntax,selerr,
                                   601  	(A syntax error has been detected within a -select or -current clause.)
                        000401          	segdef  select_syntax
    000401  a0   077777 010127
    010125  aa  163 145 154 145         	aci  "selerr",8
    010126  aa  162 162 040 040
    010127  aa  105 101 040 163         	acc  "A syntax error has been detected within a -select or -current clause."
    010130  aa  171 156 164 141
    010131  aa  170 040 145 162
    010132  aa  162 157 162 040
    010133  aa  150 141 163 040
    010134  aa  142 145 145 156
    010135  aa  040 144 145 164
    010136  aa  145 143 164 145
    010137  aa  144 040 167 151
    010140  aa  164 150 151 156
    010141  aa  040 141 040 055
    010142  aa  163 145 154 145
    010143  aa  143 164 040 157
    010144  aa  162 040 055 143
    010145  aa  165 162 162 145
    010146  aa  156 164 040 143
    010147  aa  154 141 165 163
    010150  aa  145 056 000 000

                                   602  ec sell_syntax,sesyntax,
                                   603  	(A syntax error has been detected within the selection expression.)
                        000402          	segdef  sell_syntax
    000402  a0   077777 010153
    010151  aa  163 145 163 171         	aci  "sesyntax",8
    010152  aa  156 164 141 170
    010153  aa  101 101 040 163         	acc  "A syntax error has been detected within the selection expression."
    010154  aa  171 156 164 141
    010155  aa  170 040 145 162
    010156  aa  162 157 162 040
    010157  aa  150 141 163 040
    010160  aa  142 145 145 156
    010161  aa  040 144 145 164
    010162  aa  145 143 164 145
    010163  aa  144 040 167 151
    010164  aa  164 150 151 156
    010165  aa  040 164 150 145
    010166  aa  040 163 145 154
    010167  aa  145 143 164 151
    010170  aa  157 156 040 145
    010171  aa  170 160 162 145
    010172  aa  163 163 151 157
    010173  aa  156 056 000 000

                                   604  ec set_ovfl,setovfl,
                                   605  	(Too many select blocks have been specified in the selection expression.)
                        000403          	segdef  set_ovfl
    000403  a0   077777 010176
    010174  aa  163 145 164 157         	aci  "setovfl",8
    010175  aa  166 146 154 040
    010176  aa  107 124 157 157         	acc  "Too many select blocks have been specified in the selection expression."
    010177  aa  040 155 141 156
    010200  aa  171 040 163 145
    010201  aa  154 145 143 164
    010202  aa  040 142 154 157
    010203  aa  143 153 163 040
    010204  aa  150 141 166 145
    010205  aa  040 142 145 145
    010206  aa  156 040 163 160
    010207  aa  145 143 151 146
    010210  aa  151 145 144 040
    010211  aa  151 156 040 164
    010212  aa  150 145 040 163
    010213  aa  145 154 145 143
    010214  aa  164 151 157 156
    010215  aa  040 145 170 160
    010216  aa  162 145 163 163
    010217  aa  151 157 156 056

                                   606  ec set_syntax,setsynt,
                                   607  	(Select blocks have been incorrectly combined.)
                        000404          	segdef  set_syntax
    000404  a0   077777 010222
    010220  aa  163 145 164 163         	aci  "setsynt",8
    010221  aa  171 156 164 040
    010222  aa  055 123 145 154         	acc  "Select blocks have been incorrectly combined."
    010223  aa  145 143 164 040
    010224  aa  142 154 157 143
    010225  aa  153 163 040 150
    010226  aa  141 166 145 040
    010227  aa  142 145 145 156
    010230  aa  040 151 156 143
    010231  aa  157 162 162 145
    010232  aa  143 164 154 171
    010233  aa  040 143 157 155
    010234  aa  142 151 156 145
    010235  aa  144 056 000 000

                                   608  ec size_condition,sizecon,
                                   609  	(The size condition has been signalled during a data conversion attempt.)
                        000405          	segdef  size_condition
    000405  a0   077777 010240
    010236  aa  163 151 172 145         	aci  "sizecon",8
    010237  aa  143 157 156 040
    010240  aa  107 124 150 145         	acc  "The size condition has been signalled during a data conversion attempt."
    010241  aa  040 163 151 172
    010242  aa  145 040 143 157
    010243  aa  156 144 151 164
    010244  aa  151 157 156 040
    010245  aa  150 141 163 040
    010246  aa  142 145 145 156
    010247  aa  040 163 151 147
    010250  aa  156 141 154 154
    010251  aa  145 144 040 144
    010252  aa  165 162 151 156
    010253  aa  147 040 141 040
    010254  aa  144 141 164 141
    010255  aa  040 143 157 156
    010256  aa  166 145 162 163
    010257  aa  151 157 156 040
    010260  aa  141 164 164 145
    010261  aa  155 160 164 056

                                   610  ec surplus_text,surptext,
                                   611  	(Text follows the logical end of the source segment.)
                        000406          	segdef  surplus_text
    000406  a0   077777 010264
    010262  aa  163 165 162 160         	aci  "surptext",8
    010263  aa  164 145 170 164
    010264  aa  063 124 145 170         	acc  "Text follows the logical end of the source segment."
    010265  aa  164 040 146 157
    010266  aa  154 154 157 167
    010267  aa  163 040 164 150
    010270  aa  145 040 154 157
    010271  aa  147 151 143 141
    010272  aa  154 040 145 156
    010273  aa  144 040 157 146
    010274  aa  040 164 150 145
    010275  aa  040 163 157 165
    010276  aa  162 143 145 040
    010277  aa  163 145 147 155
    010300  aa  145 156 164 056

                                   612  ec too_many_args,manyargs,
                                   613  	(The maximum number of expected arguments has been exceeded.)
                        000407          	segdef  too_many_args
    000407  a0   077777 010303
    010301  aa  155 141 156 171         	aci  "manyargs",8
    010302  aa  141 162 147 163
    010303  aa  073 124 150 145         	acc  "The maximum number of expected arguments has been exceeded."
    010304  aa  040 155 141 170
    010305  aa  151 155 165 155
    010306  aa  040 156 165 155
    010307  aa  142 145 162 040
    010310  aa  157 146 040 145
    010311  aa  170 160 145 143
    010312  aa  164 145 144 040
    010313  aa  141 162 147 165
    010314  aa  155 145 156 164
    010315  aa  163 040 150 141
    010316  aa  163 040 142 145
    010317  aa  145 156 040 145
    010320  aa  170 143 145 145
    010321  aa  144 145 144 056

                                   614  ec too_many_attributes,attrovfl,
                                   615  	(The maximum number of attributes for a relation has been exceeded.)
                        000410          	segdef  too_many_attributes
    000410  a0   077777 010324
    010322  aa  141 164 164 162         	aci  "attrovfl",8
    010323  aa  157 166 146 154
    010324  aa  102 124 150 145         	acc  "The maximum number of attributes for a relation has been exceeded."
    010325  aa  040 155 141 170
    010326  aa  151 155 165 155
    010327  aa  040 156 165 155
    010330  aa  142 145 162 040
    010331  aa  157 146 040 141
    010332  aa  164 164 162 151
    010333  aa  142 165 164 145
    010334  aa  163 040 146 157
    010335  aa  162 040 141 040
    010336  aa  162 145 154 141
    010337  aa  164 151 157 156
    010340  aa  040 150 141 163
    010341  aa  040 142 145 145
    010342  aa  156 040 145 170
    010343  aa  143 145 145 144
    010344  aa  145 144 056 000

                                   616  ec too_many_dbs,maxdbs,
                                   617  	(Attempt to open more than the maximum allowable number of openings at one time.)
                        000411          	segdef  too_many_dbs
    000411  a0   077777 010347
    010345  aa  155 141 170 144         	aci  "maxdbs",8
    010346  aa  142 163 040 040
    010347  aa  117 101 164 164         	acc  "Attempt to open more than the maximum allowable number of openings at one time."
    010350  aa  145 155 160 164
    010351  aa  040 164 157 040
    010352  aa  157 160 145 156
    010353  aa  040 155 157 162
    010354  aa  145 040 164 150
    010355  aa  141 156 040 164
    010356  aa  150 145 040 155
    010357  aa  141 170 151 155
    010360  aa  165 155 040 141
    010361  aa  154 154 157 167
    010362  aa  141 142 154 145
    010363  aa  040 156 165 155
    010364  aa  142 145 162 040
    010365  aa  157 146 040 157
    010366  aa  160 145 156 151
    010367  aa  156 147 163 040
    010370  aa  141 164 040 157
    010371  aa  156 145 040 164
    010372  aa  151 155 145 056

                                   618  ec too_many_data_models,toomany,
                                   619  	(Attempt to open more than the maximum number for data model openings.)
                        000412          	segdef  too_many_data_models
    000412  a0   077777 010375
    010373  aa  164 157 157 155         	aci  "toomany",8
    010374  aa  141 156 171 040
    010375  aa  105 101 164 164         	acc  "Attempt to open more than the maximum number for data model openings."
    010376  aa  145 155 160 164
    010377  aa  040 164 157 040
    010400  aa  157 160 145 156
    010401  aa  040 155 157 162
    010402  aa  145 040 164 150
    010403  aa  141 156 040 164
    010404  aa  150 145 040 155
    010405  aa  141 170 151 155
    010406  aa  165 155 040 156
    010407  aa  165 155 142 145
    010410  aa  162 040 146 157
    010411  aa  162 040 144 141
    010412  aa  164 141 040 155
    010413  aa  157 144 145 154
    010414  aa  040 157 160 145
    010415  aa  156 151 156 147
    010416  aa  163 056 000 000

                                   620  ec too_many_open_names,tmopennm,
                                   621  	(Too many open names have been defined, some must be deleted first.)
                        000413          	segdef  too_many_open_names
    000413  a0   077777 010421
    010417  aa  164 155 157 160         	aci  "tmopennm",8
    010420  aa  145 156 156 155
    010421  aa  102 124 157 157         	acc  "Too many open names have been defined, some must be deleted first."
    010422  aa  040 155 141 156
    010423  aa  171 040 157 160
    010424  aa  145 156 040 156
    010425  aa  141 155 145 163
    010426  aa  040 150 141 166
    010427  aa  145 040 142 145
    010430  aa  145 156 040 144
    010431  aa  145 146 151 156
    010432  aa  145 144 054 040
    010433  aa  163 157 155 145
    010434  aa  040 155 165 163
    010435  aa  164 040 142 145
    010436  aa  040 144 145 154
    010437  aa  145 164 145 144
    010440  aa  040 146 151 162
    010441  aa  163 164 056 000

                                   622  ec too_many_temp_files,too_mtf,
                                   623  	(The maximum number of temporary files has been exceeded.)
                        000414          	segdef  too_many_temp_files
    000414  a0   077777 010444
    010442  aa  164 157 157 137         	aci  "too_mtf",8
    010443  aa  155 164 146 040
    010444  aa  070 124 150 145         	acc  "The maximum number of temporary files has been exceeded."
    010445  aa  040 155 141 170
    010446  aa  151 155 165 155
    010447  aa  040 156 165 155
    010450  aa  142 145 162 040
    010451  aa  157 146 040 164
    010452  aa  145 155 160 157
    010453  aa  162 141 162 171
    010454  aa  040 146 151 154
    010455  aa  145 163 040 150
    010456  aa  141 163 040 142
    010457  aa  145 145 156 040
    010460  aa  145 170 143 145
    010461  aa  145 144 145 144
    010462  aa  056 000 000 000

                                   624  ec trouble_lock,trouble,
                                   625  	(The data base is locked and may be inconsistent.)
                        000415          	segdef  trouble_lock
    000415  a0   077777 010465
    010463  aa  164 162 157 165         	aci  "trouble",8
    010464  aa  142 154 145 040
    010465  aa  060 124 150 145         	acc  "The data base is locked and may be inconsistent."
    010466  aa  040 144 141 164
    010467  aa  141 040 142 141
    010470  aa  163 145 040 151
    010471  aa  163 040 154 157
    010472  aa  143 153 145 144
    010473  aa  040 141 156 144
    010474  aa  040 155 141 171
    010475  aa  040 142 145 040
    010476  aa  151 156 143 157
    010477  aa  156 163 151 163
    010500  aa  164 145 156 164
    010501  aa  056 000 000 000

                                   626  ec (tuple_not_found,no_current_tuple),notuple,
                                   627  	(No tuple was found which satisfied the selection expression.)
                        000416          	segdef  tuple_not_found
                        000416          	segdef  no_current_tuple
    000416  a0   077777 010504
    010502  aa  156 157 164 165         	aci  "notuple",8
    010503  aa  160 154 145 040
    010504  aa  074 116 157 040         	acc  "No tuple was found which satisfied the selection expression."
    010505  aa  164 165 160 154
    010506  aa  145 040 167 141
    010507  aa  163 040 146 157
    010510  aa  165 156 144 040
    010511  aa  167 150 151 143
    010512  aa  150 040 163 141
    010513  aa  164 151 163 146
    010514  aa  151 145 144 040
    010515  aa  164 150 145 040
    010516  aa  163 145 154 145
    010517  aa  143 164 151 157
    010520  aa  156 040 145 170
    010521  aa  160 162 145 163
    010522  aa  163 151 157 156
    010523  aa  056 000 000 000

                                   628  ec unable_to_create_channel,un_crchn,
                                   629  	(An event channel needed to activate a queued process could not be created.)
                        000417          	segdef  unable_to_create_channel
    000417  a0   077777 010526
    010524  aa  165 156 137 143         	aci  "un_crchn",8
    010525  aa  162 143 150 156
    010526  aa  112 101 156 040         	acc  "An event channel needed to activate a queued process could not be created."
    010527  aa  145 166 145 156
    010530  aa  164 040 143 150
    010531  aa  141 156 156 145
    010532  aa  154 040 156 145
    010533  aa  145 144 145 144
    010534  aa  040 164 157 040
    010535  aa  141 143 164 151
    010536  aa  166 141 164 145
    010537  aa  040 141 040 161
    010540  aa  165 145 165 145
    010541  aa  144 040 160 162
    010542  aa  157 143 145 163
    010543  aa  163 040 143 157
    010544  aa  165 154 144 040
    010545  aa  156 157 164 040
    010546  aa  142 145 040 143
    010547  aa  162 145 141 164
    010550  aa  145 144 056 000

                                   630  ec unable_to_queue_user,un_q_usr,
                                   631  	(A user could not be placed in the waiting queue due to an error.)
                        000420          	segdef  unable_to_queue_user
    000420  a0   077777 010553
    010551  aa  165 156 137 161         	aci  "un_q_usr",8
    010552  aa  137 165 163 162
    010553  aa  100 101 040 165         	acc  "A user could not be placed in the waiting queue due to an error."
    010554  aa  163 145 162 040
    010555  aa  143 157 165 154
    010556  aa  144 040 156 157
    010557  aa  164 040 142 145
    010560  aa  040 160 154 141
    010561  aa  143 145 144 040
    010562  aa  151 156 040 164
    010563  aa  150 145 040 167
    010564  aa  141 151 164 151
    010565  aa  156 147 040 161
    010566  aa  165 145 165 145
    010567  aa  040 144 165 145
    010570  aa  040 164 157 040
    010571  aa  141 156 040 145
    010572  aa  162 162 157 162
    010573  aa  056 000 000 000

                                   632  ec unaccep_fn_args,unafnarg,
                                   633  	(A function reference includes an unacceptable argument, or the wrong number of arguments.)
                        000421          	segdef  unaccep_fn_args
    000421  a0   077777 010576
    010574  aa  165 156 141 146         	aci  "unafnarg",8
    010575  aa  156 141 162 147
    010576  aa  131 101 040 146         	acc  "A function reference includes an unacceptable argument, or the wrong number of arguments."
    010577  aa  165 156 143 164
    010600  aa  151 157 156 040
    010601  aa  162 145 146 145
    010602  aa  162 145 156 143
    010603  aa  145 040 151 156
    010604  aa  143 154 165 144
    010605  aa  145 163 040 141
    010606  aa  156 040 165 156
    010607  aa  141 143 143 145
    010610  aa  160 164 141 142
    010611  aa  154 145 040 141
    010612  aa  162 147 165 155
    010613  aa  145 156 164 054
    010614  aa  040 157 162 040
    010615  aa  164 150 145 040
    010616  aa  167 162 157 156
    010617  aa  147 040 156 165
    010620  aa  155 142 145 162
    010621  aa  040 157 146 040
    010622  aa  141 162 147 165
    010623  aa  155 145 156 164
    010624  aa  163 056 000 000

                                   634  ec unbal_parens,unbalpar,
                                   635  	(The number of right parentheses does not match the number of left parentheses.)
                        000422          	segdef  unbal_parens
    000422  a0   077777 010627
    010625  aa  165 156 142 141         	aci  "unbalpar",8
    010626  aa  154 160 141 162
    010627  aa  116 124 150 145         	acc  "The number of right parentheses does not match the number of left parentheses."
    010630  aaLubey                           ~process_overseer_                                               >user_dir_dir>Office>Lubey                                                                      R%Twq+VnoneTwwNT>9CX

@

@Gratton                         ~process_overseer_                                               >user_dir_dir>Office>Gratton                                                                    TQDOTBh
noneTB7	TQ^Ww+a-h8T>jGX

@

@Brovald                         ~process_overseer_                                               >user_dir_dir>Office>Brovald                                                                    SSsTnone`TASzKBrT>9vX

@

@ ht02H                                                                                                Willott                                                         Downing                         RGeorge                         Guppy                                                           BHarvey                         McDonald                        	Lyttle
Gratton                         Brovald                                                                                         NTaylor                                                                                                                                                                                                                         HW2                             HW3                                                             Falck                                                           Siler                           Lubey                                                           Gatha                           60 154 151 145
    011056  aa  144 040 163 171
    011057  aa  156 164 141 170
    011060  aa  040 151 163 040
    011061  aa  156 157 164 040
    011062  aa  151 155 160 154
    011063  aa  145 155 145 156
    011064  aa  164 145 144 040
    011065  aa  151 156 040 164
    011066  aa  150 151 163 040
    011067  aa  166 145 162 163
    011070  aa  151 157 156 040
    011071  aa  157 146 040 115
    011072  aa  122 104 123 056

                                   652  ec unknown_cursor_storage,unkcusg,
                                   653  	(The pointer to the storage for the cursor pointers is bad.)
                        000433          	segdef  unknown_cursor_storage
    000433  a0   077777 011075
    011073  aa  165 156 153 143         	aci  "unkcusg",8
    011074  aa  165 163 147 040
    011075  aa  072 124 150 145         	acc  "The pointer to the storage for the cursor pointers is bad."
    011076  aa  040 160 157 151
    011077  aa  156 164 145 162
    011100  aa  040 164 157 040
    011101  aa  164 150 145 040
    011102  aa  163 164 157 162
    011103  aa  141 147 145 040
    011104  aa  146 157 162 040
    011105  aa  164 150 145 040
    011106  aa  143 165 162 163
    011107  aa  157 162 040 160
    011110  aa  157 151 156 164
    011111  aa  145 162 163 040
    011112  aa  151 163 040 142
    011113  aa  141 144 056 000

                                   654  ec unknown_file_name,unk_flnm,
                                   655  	(Specified relation name not known to this process.)
                        000434          	segdef  unknown_file_name
    000434  a0   077777 011116
    011114  aa  165 156 153 137         	aci  "unk_flnm",8
    011115  aa  146 154 156 155
    011116  aa  062 123 160 145         	acc  "Specified relation name not known to this process."
    011117  aa  143 151 146 151
    011120  aa  145 144 040 162
    011121  aa  145 154 141 164
    011122  aa  151 157 156 040
    011123  aa  156 141 155 145
    011124  aa  040 156 157 164
    011125  aa  040 153 156 157
    011126  aa  167 156 040 164
    011127  aa  157 040 164 150
    011130  aa  151 163 040 160
    011131  aa  162 157 143 145
    011132  aa  163 163 056 000

                                   656  ec unknown_proc_id,unk_pid,
                                   657  	(An unidentifiable data base user process has been encountered.)
                        000435          	segdef  unknown_proc_id
    000435  a0   077777 011135
    011133  aa  165 156 153 137         	aci  "unk_pid",8
    011134  aa  160 151 144 040
    011135  aa  076 101 156 040         	acc  "An unidentifiable data base user process has been encountered."
    011136  aa  165 156 151 144
    011137  aa  145 156 164 151
    011140  aa  146 151 141 142
    011141  aa  154 145 040 144
    011142  aa  141 164 141 040
    011143  aa  142 141 163 145
    011144  aa  040 165 163 145
    011145  aa  162 040 160 162
    011146  aa  157 143 145 163
    011147  aa  163 040 150 141
    011150  aa  163 040 142 145
    011151  aa  145 156 040 145
    011152  aa  156 143 157 165
    011153  aa  156 164 145 162
    011154  aa  145 144 056 000

                                   658  ec unknown_relation_name,unkrel,
                                   659  	(Relation name specified is not in the current view of the data base.)
                        000436          	segdef  unknown_relation_name
    000436  a0   077777 011157
    011155  aa  165 156 153 162         	aci  "unkrel",8
    011156  aa  145 154 040 040
    011157  aa  104 122 145 154         	acc  "Relation name specified is not in the current view of the data base."
    011160  aa  141 164 151 157
    011161  aa  156 040 156 141
    011162  aa  155 145 040 163
    011163  aa  160 145 143 151
    011164  aa  146 151 145 144
    011165  aa  040 151 163 040
    011166  aa  156 157 164 040
    011167  aa  151 156 040 164
    011170  aa  150 145 040 143
   Platnich                        ~process_overseer_                                               >user_dir_dir>Office>Platnich                                                                   R~JR9RunoneR`UR06X

@

@NTaylor                         ~process_overseer_                                               >user_dir_dir>Office>NTaylor                                                                    <MS`wT'lnoneT+!<Mt%B{N.T>WX

@

@Downing                         ~process_overseer_                                               >user_dir_dir>Office>Downing                                                                    R0*TanoneTyP\)7H9}T>SX

@

@BHarvey                         ~process_overseer_                                               >user_dir_dir>Office>BHarvey                                                                    So&S=8gnone`SPT>UX

@

@a base control block.)
                        000443          	segdef  user_not_found
    000443  a0   077777 011303
    011301  aa  165 163 162 137         	aci  "usr_nfnd",8
    011302  aa  156 146 156 144
    011303  aa  077 125 156 141         	acc  "Unable to locate specified user in the data base control block."
    011304  aa  142 154 145 040
    011305  aa  164 157 040 154
    011306  aa  157 143 141 164
    011307  aa  145 040 163 160
    011310  aa  145 143 151 146
    011311  aa  151 145 144 040
    011312  aa  165 163 145 162
    011313  aa  040 151 156 040
    011314  aa  164 150 145 040
    011315  aa  144 141 164 141
    011316  aa  040 142 141 163
    011317  aa  145 040 143 157
    011320  aa  156 164 162 157
    011321  aa  154 040 142 154
    011322  aa  157 143 153 056

                                   670  ec var_stack_ovfl,varovfl,
                                   671  	(Translator error -- the variable stack has overflowed.)
                        000444          	segdef  var_stack_ovfl
    000444  a0   077777 011325
    011323  aa  166 141 162 157         	aci  "varovfl",8
    011324  aa  166 146 154 040
    011325  aa  066 124 162 141         	acc  "Translator error -- the variable stack has overflowed."
    011326  aa  156 163 154 141
    011327  aa  164 157 162 040
    011330  aa  145 162 162 157
    011331  aa  162 040 055 055
    011332  aa  040 164 150 145
    011333  aa  040 166 141 162
    011334  aa  151 141 142 154
    011335  aa  145 040 163 164
    011336  aa  141 143 153 040
    011337  aa  150 141 163 040
    011340  aa  157 166 145 162
    011341  aa  146 154 157 167
    011342  aa  145 144 056 000

                                   672  ec version_3_db,ver3db,
                                   673  	(Version 3 databases are no longer supported by MRDS.)
                        000445          	segdef  version_3_db
    000445  a0   077777 011345
    011343  aa  166 145 162 063         	aci  "ver3db",8
    011344  aa  144 142 040 040
    011345  aa  064 126 145 162         	acc  "Version 3 databases are no longer supported by MRDS."
    011346  aa  163 151 157 156
    011347  aa  040 063 040 144
    011350  aa  141 164 141 142
    011351  aa  141 163 145 163
    011352  aa  040 141 162 145
    011353  aa  040 156 157 040
    011354  aa  154 157 156 147
    011355  aa  145 162 040 163
    011356  aa  165 160 160 157
    011357  aa  162 164 145 144
    011360  aa  040 142 171 040
    011361  aa  115 122 104 123
    011362  aa  056 000 000 000

                                   674  ec version_1_dsm,ver1dsm,
                                   675  	(Version 1 submodels are no longer supported by MRDS.)
                        000446          	segdef  version_1_dsm
    000446  a0   077777 011365
    011363  aa  166 145 162 061         	aci  "ver1dsm",8
    011364  aa  144 163 155 040
    011365  aa  064 126 145 162         	acc  "Version 1 submodels are no longer supported by MRDS."
    011366  aa  163 151 157 156
    011367  aa  040 061 040 163
    011370  aa  165 142 155 157
    011371  aa  144 145 154 163
    011372  aa  040 141 162 145
    011373  aa  040 156 157 040
    011374  aa  154 157 156 147
    011375  aa  145 162 040 163
    011376  aa  165 160 160 157
    011377  aa  162 164 145 144
    011400  aa  040 142 171 040
    011401  aa  115 122 104 123
    011402  aa  056 000 000 000

                                   676  ec version_not_supported,notsuprt,
                                   677  	(The database is a version not supported by this command/subroutine.)
                        000447          	segdef  version_not_supported
    000447  a0   077777 011405
    011403  aa  156 157 164 163         	aci  "notsuprt",8
    011404  aa  165 160 162 164
    011405  aa  103 124 150 145         	acc  "The database is a version not supported by this command/subroutine."
    011406  aa  040 144 141 164
    011407  aa  141 142 141 163
    011410  aa  145 040 151 163
    011411  aa  040 141 040 166
    011412  aa  145 162 163 151
    011413  aa  157 156 040 156
    011414  aa  157 164 040 163
    011415  aa  165 160 160 157
    011416  aa  162 164 145 144
    011417  aa  040 142 171 040
    011420  aa  164 150 151 163
    011421  aa  040 143 157 155
    011422  aa  155 141 156 144
    011423  aa  057 163 165 142
    011424  aa  162 157 165 164
    011425  aa  151 156 145 056

                                   678  ec view_prevent,viewprev,
                                   679  	(The specified operation cannot be accomplished using the current database view.)
                        000450          	segdef  view_prevent
    000450  a0   077777 011430
    011426  aa  166 151 145 167         	aci  "viewprev",8
    011427  aa  160 162 145 166
    011430  aa  117 124 150 145         	acc  "The specified operation cannot be accomplished using the current database view."
    011431  aa  040 163 160 145
    011432  aa  143 151 146 151
    011433  aa  145 144 040 157
    011434  aa  160 145 162 141
    011435  aa  164 151 157 156
    011436  aa  040 143 141 156
    011437  aa  156 157 164 040
    011440  aa  142 145 040 141
    011441  aa  143 143 157 155
    011442  aa  160 154 151 163
    011443  aa  150 145 144 040
    011444  aa  165 163 151 156
    011445  aa  147 040 164 150
    011446  aa  145 040 143 165
    011447  aa  162 162 145 156
    011450  aa  164 040 144 141
    011451  aa  164 141 142 141
    011452  aa  163 145 040 166
    011453  aa  151 145 167 056

                                   680  ec where_syntax,whereerr,
                                   681  	(A syntax error has been detected within the -where clause.)
                        000451          	segdef  where_syntax
    000451  a0   077777 011456
    011454  aa  167 150 145 162         	aci  "whereerr",8
    011455  aa  145 145 162 162
    011456  aa  072 101 040 163         	acc  "A syntax error has been detected within the -where clause."
    011457  aa  171 156 164 141
    011460  aa  170 040 145 162
    011461  aa  162 157 162 040
    011462  aa  150 141 163 040
    011463  aa  142 145 145 156
    011464  aa  040 144 145 164
    011465  aa  145 143 164 145
    011466  aa  144 040 167 151
    011467  aa  164 150 151 156
    011470  aa  040 164 150 145
    011471  aa  040 055 167 150
    011472  aa  145 162 145 040
    011473  aa  143 154 141 165
    011474  aa  163 145 056 000

                                   682
                                   683  "
                                   684  " new_call errors. These are only used in rmdb_create_descriptor_.rd
                                   685  "
                                   686  ec  bad_array_bounds,badarray,
                                   687  	(The array bounds are invalid.)
                        000452          	segdef  bad_array_bounds
    000452  a0   077777 011477
    011475  aa  142 141 144 141         	aci  "badarray",8
    011476  aa  162 162 141 171
    011477  aa  035 124 150 145         	acc  "The array bounds are invalid."
    011500  aa  040 141 162 162
    011501  aa  141 171 040 142
    011502  aa  157 165 156 144
    011503  aa  163 040 141 162
    011504  aa  145 040 151 156
    011505  aa  166 141 154 151
    011506  aa  144 056 000 000

                                   688  ec  bad_attribute,bad_attr,
                                   689  	(One of the attributes is invalid.)
                        000453          	segdef  bad_attribute
    000453  a0   077777 011511
    011507  aa  142 141 144 137         	aci  "bad_attr",8
    011510  aa  141 164 164 162
    011511  aa  041 117 156 145         	acc  "One of the attributes is invalid."
    011512  aa  040 157 146 040
    011513  aa  164 150 145 040
    011514  aa  141 164 164 162
    011515  aa  151 142 165 164
    011516  aa  145 163 040 151
    011517  aa  163 040 151 156
    011520  aa  166 141 154 151
    011521  aa  144 056 000 000

                                   690  ec  bad_precision,bad_prec,
                                   691  	(The precision is invalid.)
                        000454          	segdef  bad_precision
    000454  a0   077777 011524
    011522  aa  142 141 144 137         	aci  "bad_prec",8
    011523  aa  160 162 145 143
    011524  aa  031 124 150 145         	acc  "The precision is invalid."
    011525  aa  040 160 162 145
    011526  aa  143 151 163 151
    011527  aa  157 156 040 151
    011530  aa  163 040 151 156
    011531  aa  166 141 154 151
    011532  aa  144 056 000 000

                                   692  ec  inconsistent_attributes,inc_attr,
                                   693  	(Inconsistent combination of attributes.)
                        000455          	segdef  inconsistent_attributes
    000455  a0   077777 011535
    011533  aa  151 156 143 137         	aci  "inc_attr",8
    011534  aa  141 164 164 162
    011535  aa  047 111 156 143         	acc  "Inconsistent combination of attributes."
    011536  aa  157 156 163 151
    011537  aa  163 164 145 156
    011540  aa  164 040 143 157
    011541  aa  155 142 151 156
    011542  aa  141 164 151 157
    011543  aa  156 040 157 146
    011544  aa  040 141 164 164
    011545  aa  162 151 142 165
    011546  aa  164 145 163 056

                                   694
                                   695  	end

NO LITERALS

NAME DEFINITIONS FOR ENTRY POINTS AND SEGDEFS

    011550  5a   000003 000000
    011551  5a   004302 600000
    011552  aa   000000 000000
    011553  55   000011 000002
    011554  5a   000002 400003
    011555  55   000006 000011
    011556  aa  013 155 162 144
    011557  aa  163 137 145 162
    011560  aa  162 157 162 137
    011561  55   000022 000003
    011562  2a   000455 400001
    011563  55   000014 000003
    011564  aa  027 151 156 143         inconsistent_attributes
    011565  aa  157 156 163 151
    011566  aa  163 164 145 156
    011567  aa  164 137 141 164
    011570  aa  164 162 151 142
    011571  aa  165 164 145 163
    011572  55   000031 000011
    011573  2a   000454 400001
    011574  55   000025 000003
    011575  aa  015 142 141 144         bad_precision
    011576  aa  137 160 162 145
    011577  aa  143 151 163 151
    011600  aa  157 156 000 000
    011601  55   000040 000022
    011602  2a   000453 400001
    011603  55   000034 000003
    011604  aa  015 142 141 144         bad_attribute
    011605  aa  137 141 164 164
    011606  aa  162 151 142 165
    011607  aa  164 145 000 000
    011610  55   000050 000031
    011611  2a   000452 400001
    011612  55   000043 000003
    011613  aa  020 142 141 144         bad_array_bounds
    011614  aa  137 141 162 162
    011615  aa  141 171 137 142
    011616  aa  157 165 156 144
    011617  aa  163 000 000 000
    011620  55   000057 000040
    011621  2a   000451 400001
    011622  55   000053 000003
    011623  aa  014 167 150 145         where_syntax
    011624  aa  162 145 137 163
    011625  aa  171 156 164 141
    011626  aa  170 000 000 000
    011627  55   000066 000050
    011630  2a   000450 400001
    011631  55   000062 000003
    011632  aa  014 166 151 145         view_prevent
    011633  aa  167 137 160 162
    011634  aa  145 166 145 156
    011635  aa  164 000 000 000
    011636  55   000077 000057
    011637  2a   000447 400001
    011640  55   000071 000003
    011641  aa  025 166 145 162         version_not_supported
    011642  aa  163 151 157 156
    011643  aa  137 156 157 164
    011644  aa  137 163 165 160
    011645  aa  160 157 162 164
    011646  aa  145 144 000 000
    011647  55   000106 000066
    011650  2a   000446 400001
    011651  55   000102 000003
    011652  aa  015 166 145 162         version_1_dsm
    011653  aa  163 151 157 156
    011654  aa  137 061 137 144
    011655  aa  163 155 000 000
    011656  55   000115 000077
    011657  2a   000445 400001
    011660  55   000111 000003
    011661  aa  014 166 145 162         version_3_db
    011662  aa  163 151 157 156
    011663  aa  137 063 137 144
    011664  aa  142 000 000 000
    011665  55   000124 000106
    011666  2a   000444 400001
    011667  55   000120 000003
    011670  aa  016 166 141 162         var_stack_ovfl
    011671  aa  137 163 164 141
    011672  aa  143 153 137 157
    011673  aa  166 146 154 000
    011674  55   000133 000115
    011675  2a   000443 400001
    011676  55   000127 000003
    011677  aa  016 165 163 145         user_not_found
    011700  aa  162 137 156 157
    011701  aa  164 137 146 157
    011702  aa  165 156 144 000
    011703  55   000143 000124
    011704  2a   000442 400001
    011705  55   000136 000003
    011706  aa  022 165 160 144         update_not_allowed
    011707  aa  141 164 145 137
    011710  aa  156 157 164 137
    011711  aa  141 154 154 157
    011712  aa  167 145 144 000
    011713  55   000152 000133
    011714  2a   000441 400001
    011715  55   000146 000003
    011716  aa  014 165 160 144         upd_temp_rel
    011717  aa  137 164 145 155
    011720  aa  160 137 162 145
    011721  aa  154 000 000 000
    011722  55   000160 000143
    011723  2a   000440 400001
    011724  55   000155 000003
    011725  aa  012 165 156 163         unsup_type
    011726  aa  165 160 137 164
    011727  aa  171 160 145 000
    011730  55   000170 000152
    011731  2a   000437 400001
    011732  55   000163 000003
    011733  aa  020 165 156 163         unshared_opening
    011734  aa  150 141 162 145
    011735  aa  144 137 157 160
    011736  aa  145 156 151 156
    011737  aa  147 000 000 000
    011740  55   000201 000160
    011741  2a   000436 400001
    011742  55   000173 000003
    011743  aa  025 165 156 153         unknown_relation_name
    011744  aa  156 157 167 156
    011745  aa  137 162 145 154
    011746  aa  141 164 151 157
    011747  aa  156 137 156 141
    011750  aa  155 145 000 000
    011751  55   000210 000170
    011752  2a   000435 400001
    011753  55   000204 000003
    011754  aa  017 165 156 153         unknown_proc_id
    011755  aa  156 157 167 156
    011756  aa  137 160 162 157
    011757  aa  143 137 151 144
    011760  55   000220 000201
    011761  2a   000434 400001
    011762  55   000213 000003
    011763  aa  021 165 156 153         unknown_file_name
    011764  aa  156 157 167 156
    011765  aa  137 146 151 154
    011766  aa  145 137 156 141
    011767  aa  155 145 000 000
    011770  55   000231 000210
    011771  2a   000433 400001
    011772  55   000223 000003
    011773  aa  026 165 156 153         unknown_cursor_storage
    011774  aa  156 157 167 156
    011775  aa  137 143 165 162
    011776  aa  163 157 162 137
    011777  aa  163 164 157 162
    012000  aa  141 147 145 000
    012001  55   000242 000220
    012002  2a   000432 400001
    012003  55   000234 000003
    012004  aa  024 165 156 151         unimplemented_syntax
    012005  aa  155 160 154 145
    012006  aa  155 145 156 164
    012007  aa  145 144 137 163
    012010  aa  171 156 164 141
    012011  aa  170 000 000 000
    012012  55   000252 000231
    012013  2a   000431 400001
    012014  55   000245 000003
    012015  aa  023 165 156 144         underflow_condition
    012016  aa  145 162 146 154
    012017  aa  157 167 137 143
    012020  aa  157 156 144 151
    012021  aa  164 151 157 156
    012022  55   000262 000242
    012023  2a   000430 400001
    012024  55   000255 000003
    012025  aa  020 165 156 144         undefined_domain
    012026  aa  145 146 151 156
    012027  aa  145 144 137 144
    012030  aa  157 155 141 151
    012031  aa  156 000 000 000
    012032  55   000270 000252
    012033  2a   000427 400001
    012034  55   000265 000003
    012035  aa  011 165 156 144         undef_var
    012036  aa  145 146 137 166
    012037  aa  141 162 000 000
    012040  55   000302 000262
    012041  2a   000426 400001
    012042  55   000273 000003
    012043  aa  030 165 156 144         undefined_temp_rel_index
    012044  aa  145 146 151 156
    012045  aa  145 144 137 164
    012046  aa  145 155 160 137
    012047  aa  162 145 154 137
    012050  aa  151 156 144 145
    012051  aa  170 000 000 000
    012052  55   000311 000270
    012053  2a   000426 400001
    012054  55   000305 000003
    012055  aa  016 165 156 144         undef_temp_rel
    012056  aa  145 146 137 164
    012057  aa  145 155 160 137
    012060  aa  162 145 154 000
    012061  55   000317 000302
    012062  2a   000425 400001
    012063  55   000314 000003
    012064  aa  011 165 156 144         undef_rel
    012065  aa  145 146 137 162
    012066  aa  145 154 000 000
    012067  55   000325 000311
    012070  2a   000424 400001
    012071  55   000322 000003
    012072  aa  011 165 156 144         undef_fun
    012073  aa  145 146 137 146
    012074  aa  165 156 000 000
    012075  55   000333 000317
    012076  2a   000423 400001
    012077  55   000330 000003
    012100  aa  012 165 156 144         undef_attr
    012101  aa  145 146 137 141
    012102  aa  164 164 162 000
    012103  55   000342 000325
    012104  2a   000422 400001
    012105  55   000336 000003
    012106  aa  014 165 156 142         unbal_parens
    012107  aa  141 154 137 160
    012110  aa  141 162 145 156
    012111  aa  163 000 000 000
    012112  55   000351 000333
    012113  2a   000421 400001
    012114  55   000345 000003
    012115  aa  017 165 156 141         unaccep_fn_args
    012116  aa  143 143 145 160
    012117  aa  137 146 156 137
    012120  aa  141 162 147 163
    012121  55   000362 000342
    012122  2a   000420 400001
    012123  55   000354 000003
    012124  aa  024 165 156 141         unable_to_queue_user
    012125  aa  142 154 145 137
    012126  aa  164 157 137 161
    012127  aa  165 145 165 145
    012130  aa  137 165 163 145
    012131  aa  162 000 000 000
    012132  55   000374 000351
    012133  2a   000417 400001
    012134  55   000365 000003
    012135  aa  030 165 156 141         unable_to_create_channel
    012136  aa  142 154 145 137
    012137  aa  164 157 137 143
    012140  aa  162 145 141 164
    012141  aa  145 137 143 150
    012142  aa  141 156 156 145
    012143  aa  154 000 000 000
    012144  55   000404 000362
    012145  2a   000416 400001
    012146  55   000377 000003
    012147  aa  020 156 157 137         no_current_tuple
    012150  aa  143 165 162 162
    012151  aa  145 156 164 137
    012152  aa  164 165 160 154
    012153  aa  145 000 000 000
    012154  55   000413 000374
    012155  2a   000416 400001
    012156  55   000407 000003
    012157  aa  017 164 165 160         tuple_not_found
    012160  aa  154 145 137 156
    012161  aa  157 164 137 146
    012162  aa  157 165 156 144
    012163  55   000422 000404
    012164  2a   000415 400001
    012165  55   000416 000003
    012166  aa  014 164 162 157         trouble_lock
    012167  aa  165 142 154 145
    012170  aa  137 154 157 143
    012171  aa  153 000 000 000
    012172  55   000432 000413
    012173  2a   000414 400001
    012174  55   000425 000003
    012175  aa  023 164 157 157         too_many_temp_files
    012176  aa  137 155 141 156
    012177  aa  171 137 164 145
    012200  aa  155 160 137 146
    012201  aa  151 154 145 163
    012202  55   000442 000422
    012203  2a   000413 400001
    012204  55   000435 000003
    012205  aa  023 164 157 157         too_many_open_names
    012206  aa  137 155 141 156
    012207  aa  171 137 157 160
    012210  aa  145 156 137 156
    012211  aa  141 155 145 163
    012212  55   000453 000432
    012213  2a   000412 400001
    012214  55   000445 000003
    012215  aa  024 164 157 157         too_many_data_models
    012216  aa  137 155 141 156
    012217  aa  171 137 144 141
    012220  aa  164 141 137 155
    012221  aa  157 144 145 154
    012222  aa  163 000 000 000
    012223  55   000462 000442
    012224  2a   000411 400001
    012225  55   000456 000003
    012226  aa  014 164 157 157         too_many_dbs
    012227  aa  137 155 141 156
    012230  aa  171 137 144 142
    012231  aa  163 000 000 000
    012232  55   000472 000453
    012233  2a   000410 400001
    012234  55   000465 000003
    012235  aa  023 164 157 157         too_many_attributes
    012236  aa  137 155 141 156
    012237  aa  171 137 141 164
    012240  aa  164 162 151 142
    012241  aa  165 164 145 163
    012242  55   000501 000462
    012243  2a   000407 400001
    012244  55   000475 000003
    012245  aa  015 164 157 157         too_many_args
    012246  aa  137 155 141 156
    012247  aa  171 137 141 162
    012250  aa  147 163 000 000
    012251  55   000510 000472
    012252  2a   000406 400001
    012253  55   000504 000003
    012254  aa  014 163 165 162         surplus_text
    012255  aa  160 154 165 163
    012256  aa  137 164 145 170
    012257  aa  164 000 000 000
    012260  55   000517 000501
    012261  2a   000405 400001
    012262  55   000513 000003
    012263  aa  016 163 151 172         size_condition
    012264  aa  145 137 143 157
    012265  aa  156 144 151 164
    012266  aa  151 157 156 000
    012267  55   000525 000510
    012270  2a   000404 400001
    012271  55   000522 000003
    012272  aa  012 163 145 164         set_syntax
    012273  aa  137 163 171 156
    012274  aa  164 141 170 000
    012275  55   000533 000517
    012276  2a   000403 400001
    012277  55   000530 000003
    012300  aa  010 163 145 164         set_ovfl
    012301  aa  137 157 166 146
    012302  aa  154 000 000 000
    012303  55   000541 000525
    012304  2a   000402 400001
    012305  55   000536 000003
    012306  aa  013 163 145 154         sell_syntax
    012307  aa  154 137 163 171
    012310  aa  156 164 141 170
    012311  55   000550 000533
    012312  2a   000401 400001
    012313  55   000544 000003
    012314  aa  015 163 145 154         select_syntax
    012315  aa  145 143 164 137
    012316  aa  163 171 156 164
    012317  aa  141 170 000 000
    012320  55   000557 000541
    012321  2a   000400 400001
    012322  55   000553 000003
    012323  aa  017 163 145 154         select_mismatch
    012324  aa  145 143 164 137
    012325  aa  155 151 163 155
    012326  aa  141 164 143 150
    012327  55   000566 000550
    012330  2a   000377 400001
    012331  55   000562 000003
    012332  aa  014 163 145 154         sel_blk_synt
    012333  aa  137 142 154 153
    012334  aa  137 163 171 156
    012335  aa  164 000 000 000
    012336  55   000574 000557
    012337  2a   000376 400001
    012340  55   000571 000003
    012341  aa  012 163 143 157         scope_viol
    012342  aa  160 145 137 166
    012343  aa  151 157 154 000
    012344  55   000607 000566
    012345  2a   000375 400001
    012346  55   000577 000003
    012347  aa  034 163 143 157         scope_system_access_conflict
    012350  aa  160 145 137 163
    012351  aa  171 163 164 145
    012352  aa  155 137 141 143
    012353  aa  143 145 163 163
    012354  aa  137 143 157 156
    012355  aa  146 154 151 143
    012356  aa  164 000 000 000
    012357  55   000616 000574
    012360  2a   000374 400001
    012361  55   000612 000003
    012362  aa  015 163 143 157         scope_not_set
    012363  aa  160 145 137 156
    012364  aa  157 164 137 163
    012365  aa  145 164 000 000
    012366  55   000625 000607
    012367  2a   000373 400001
    012370  55   000621 000003
    012371  aa  017 163 143 157         scope_not_found
    012372  aa  160 145 137 156
    012373  aa  157 164 137 146
    012374  aa  157 165 156 144
    012375  55   000634 000616
    012376  2a   000372 400001
    012377  55   000630 000003
    012400  aa  017 163 143 157         scope_not_empty
    012401  aa  160 145 137 156
    012402  aa  157 164 137 145
    012403  aa  155 160 164 171
    012404  55   000646 000625
    012405  2a   000371 400001
    012406  55   000637 000003
    012407  aa  032 163 143 157         scope_mrds_access_conflict
    012410  aa  160 145 137 155
    012411  aa  162 144 163 137
    012412  aa  141 143 143 145
    012413  aa  163 163 137 143
    012414  aa  157 156 146 154
    012415  aa  151 143 164 000
    012416  55   000654 000634
    012417  2a   000370 400001
    012420  55   000651 000003
    012421  aa  013 163 143 157         scope_empty
    012422  aa  160 145 137 145
    012423  aa  155 160 164 171
    012424  55   000665 000646
    012425  2a   000367 400001
    012426  55   000657 000003
    012427  aa  024 163 143 141         scal_func_conversion
    012430  aa  154 137 146 165
    012431  aa  156 143 137 143
    012432  aa  157 156 166 145
    012433  aa  162 163 151 157
    012434  aa  156 000 000 000
    012435  55   000675 000654
    012436  2a   000366 400001
    012437  55   000670 000003
    012440  aa  021 162 163 164         rst_wrong_command
    012441  aa  137 167 162 157
    012442  aa  156 147 137 143
    012443  aa  157 155 155 141
    012444  aa  156 144 000 000
    012445  55   000705 000665
    012446  2a   000365 400001
    012447  55   000700 000003
    012450  aa  023 162 163 164         rst_unused_attr_dom
    012451  aa  137 165 156 165
    012452  aa  163 145 144 137
    012453  aa  141 164 164 162
    012454  aa  137 144 157 155
    012455  55   000714 000675
    012456  2a   000364 400001
    012457  55   000710 000003
    012460  aa  017 162 163 164         rst_unused_attr
    012461  aa  137 165 156 165
    012462  aa  163 145 144 137
    012463  aa  141 164 164 162
    012464  55   000724 000705
    012465  2a   000363 400001
    012466  55   000717 000003
    012467  aa  021 162 163 164         rst_undone_option
    012470  aa  137 165 156 144
    012471  aa  157 156 145 137
    012472  aa  157 160 164 151
    012473  aa  157 156 000 000
    012474  55   000733 000714
    012475  2a   000362 400001
    012476  55   000727 000003
    012477  aa  015 162 163 164         rst_undef_rel
    012500  aa  137 165 156 144
    012501  aa  145 146 137 162
    012502  aa  145 154 000 000
    012503  55   000743 000724
    012504  2a   000361 400001
    012505  55   000736 000003
    012506  aa  022 162 163 164         rst_token_too_long
    012507  aa  137 164 157 153
    012510  aa  145 156 137 164
    012511  aa  157 157 137 154
    012512  aa  157 156 147 000
    012513  55   000754 000733
    012514  2a   000360 400001
    012515  55   000746 000003
    012516  aa  026 162 163 164         rst_string_ends_source
    012517  aa  137 163 164 162
    012520  aa  151 156 147 137
    012521  aa  145 156 144 163
    012522  aa  137 163 157 165
    012523  aa  162 143 145 000
    012524  55   000764 000743
    012525  2a   000357 400001
    012526  55   000757 000003
    012527  aa  021 162 163 164         rst_reserved_name
    012530  aa  137 162 145 163
    012531  aa  145 162 166 145
    012532  aa  144 137 156 141
    012533  aa  155 145 000 000
    012534  55   000774 000754
    012535  2a   000356 400001
    012536  55   000767 000003
    012537  aa  020 162 163 164         rst_rel_has_file
    012540  aa  137 162 145 154
    012541  aa  137 150 141 163
    012542  aa  137 146 151 154
    012543  aa  145 000 000 000
    012544  55   001006 000764
    012545  2a   000355 400001
    012546  55   000777 000003
    012547  aa  030 162 163 164         rst_pathname_ends_source
    012550  aa  137 160 141 164
    012551  aa  150 156 141 155
    012552  aa  145 137 145 156
    012553  aa  144 163 137 163
    012554  aa  157 165 162 143
    012555  aa  145 000 000 000
    012556  55   001015 000774
    012557  2a   000354 400001
    012560  55   001011 000003
    012561  aa  016 162 163 164         rst_parse_fail
    012562  aa  137 160 141 162
    012563  aa  163 145 137 146
    012564  aa  141 151 154 000
    012565  55   001026 001006
    012566  2a   000353 400001
    012567  55   001020 000003
    012570  aa  025 162 163 164         rst_parse_err_recover
    012571  aa  137 160 141 162
    012572  aa  163 145 137 145
    012573  aa  162 162 137 162
    012574  aa  145 143 157 166
    012575  aa  145 162 000 000
    012576  55   001040 001015
    012577  2a   000352 400001
    012600  55   001031 000003
    012601  aa  030 162 163 164         rst_parse_err_no_recover
    012602  aa  137 160 141 162
    012603  aa  163 145 137 145
    012604  aa  162 162 137 156
    012605  aa  157 137 162 145
    012606  aa  143 157 166 145
    012607  aa  162 000 000 000
    012610  55   001052 001026
    012611  2a   000351 400001
    012612  55   001043 000003
    012613  aa  030 162 163 164         rst_parse_err_no_correct
    012614  aa  137 160 141 162
    012615  aa  163 145 137 145
    012616  aa  162 162 137 156
    012617  aa  157 137 143 157
    012620  aa  162 162 145 143
    012621  aa  164 000 000 000
    012622  55   001063 001040
    012623  2a   000350 400001
    012624  55   001055 000003
    012625  aa  025 162 163 164         rst_parse_err_correct
    012626  aa  137 160 141 162
    012627  aa  163 145 137 145
    012630  aa  162 162 137 143
    012631  aa  157 162 162 145
    012632  aa  143 164 000 000
    012633  55   001073 001052
    012634  2a   000347 400001
    012635  55   001066 000003
    012636  aa  020 162 163 164         rst_option_limit
    012637  aa  137 157 160 164
    012640  aa  151 157 156 137
    012641  aa  154 151 155 151
    012642  aa  164 000 000 000
    012643  55   001103 001063
    012644  2a   000346 400001
    012645  55   001076 000003
    012646  aa  020 162 163 164         rst_not_rel_attr
    012647  aa  137 156 157 164
    012650  aa  137 162 145 154
    012651  aa  137 141 164 164
    012652  aa  162 000 000 000
    012653  55   001114 001073
    012654  2a   000345 400001
    012655  55   001106 000003
    012656  aa  024 162 163 164         rst_no_link_relation
    012657  aa  137 156 157 137
    012660  aa  154 151 156 153
    012661  aa  137 162 145 154
    012662  aa  141 164 151 157
    012663  aa  156 000 000 000
    012664  55   001123 001103
    012665  2a   000344 400001
    012666  55   001117 000003
    012667  aa  017 162 163 164         rst_no_key_attr
    012670  aa  137 156 157 137
    012671  aa  153 145 171 137
    012672  aa  141 164 164 162
    012673  55   001133 001114
    012674  2a   000343 400001
    012675  55   001126 000003
    012676  aa  021 162 163 164         rst_name_too_long
    012677  aa  137 156 141 155
    012700  aa  145 137 164 157
    012701  aa  157 137 154 157
    012702  aa  156 147 000 000
    012703  55   001143 001123
    012704  2a   000342 400001
    012705  55   001136 000003
    012706  aa  022 162 163 164         rst_name_duplicate
    012707  aa  137 156 141 155
    012710  aa  145 137 144 165
    012711  aa  160 154 151 143
    012712  aa  141 164 145 000
    012713  55   001152 001133
    012714  2a   000341 400001
    012715  55   001146 000003
    012716  aa  017 162 163 164         rst_model_limit
    012717  aa  137 155 157 144
    012720  aa  145 154 137 154
    012721  aa  151 155 151 164
    012722  55   001163 001143
    012723  2a   000340 400001
    012724  55   001155 000003
    012725  aa  026 162 163 164         rst_missing_ref_domain
    012726  aa  137 155 151 163
    012727  aa  163 151 156 147
    012730  aa  137 162 145 146
    012731  aa  137 144 157 155
    012732  aa  141 151 156 000
    012733  55   001174 001152
    012734  2a   000337 400001
    012735  55   001166 000003
    012736  aa  024 162 163 164         rst_missing_pathname
    012737  aa  137 155 151 163
    012740  aa  163 151 156 147
    012741  aa  137 160 141 164
    012742  aa  150 156 141 155
    012743  aa  145 000 000 000
    012744  55   001205 001163
    012745  2a   000336 400001
    012746  55   001177 000003
    012747  aa  026 162 163 164         rst_missing_file_model
    012750  aa  137 155 151 163
    012751  aa  163 151 156 147
    012752  aa  137 146 151 154
    012753  aa  145 137 155 157
    012754  aa  144 145 154 000
    012755  55   001215 001174
    012756  2a   000335 400001
    012757  55   001210 000003
    012760  aa  022 162 163 164         rst_list_duplicate
    012761  aa  137 154 151 163
    012762  aa  164 137 144 165
    012763  aa  160 154 151 143
    012764  aa  141 164 145 000
    012765  55   001226 001205
    012766  2a   000334 400001
    012767  55   001220 000003
    012770  aa  024 162 163 164         rst_list_delete_fail
    012771  aa  137 154 151 163
    012772  aa  164 137 144 145
    012773  aa  154 145 164 145
    012774  aa  137 146 141 151
    012775  aa  154 000 000 000
    012776  55   001237 001215
    012777  2a   000333 400001
    013000  55   001231 000003
    013001  aa  024 162 163 164         rst_link_attr_differ
    013002  aa  137 154 151 156
    013003  aa  153 137 141 164
    013004  aa  164 162 137 144
    013005  aa  151 146 146 145
    013006  aa  162 000 000 000
    013007  55   001246 001226
    013010  2a   000332 400001
    013011  55   001242 000003
    013012  aa  014 162 163 164         rst_io_error
    013013  aa  137 151 157 137
    013014  aa  145 162 162 157
    013015  aa  162 000 000 000
    013016  55   001260 001237
    013017  2a   000331 400001
    013020  55   001251 000003
    013021  aa  032 162 163 164         rst_invalid_structure_type
    013022  aa  137 151 156 166
    013023  aa  141 154 151 144
    013024  aa  137 163 164 162
    013025  aa  165 143 164 165
    013026  aa  162 145 137 164
    013027  aa  171 160 145 000
    013030  55   001270 001246
    013031  2a   000330 400001
    013032  55   001263 000003
    013033  aa  023 162 163 164         rst_inconsis_option
    013034  aa  137 151 156 143
    013035  aa  157 156 163 151
    013036  aa  163 137 157 160
    013037  aa  164 151 157 156
    013040  55   001300 001260
    013041  2a   000327 400001
    013042  55   001273 000003
    013043  aa  020 162 163 164         rst_illegal_char
    013044  aa  137 151 154 154
    013045  aa  145 147 141 154
    013046  aa  137 143 150 141
    013047  aa  162 000 000 000
    013050  55   001307 001270
    013051  2a   000326 400001
    013052  55   001303 000003
    013053  aa  014 162 163 164         rst_dup_file
    013054  aa  137 144 165 160
    013055  aa  137 146 151 154
    013056  aa  145 000 000 000
    013057  55   001320 001300
    013060  2a   000325 400001
    013061  55   001312 000003
    013062  aa  024 162 163 164         rst_conversion_error
    013063  aa  137 143 157 156
    013064  aa  166 145 162 163
    013065  aa  151 157 156 137
    013066  aa  145 162 162 157
    013067  aa  162 000 000 000
    013070  55   001331 001307
    013071  2a   000324 400001
    013072  55   001323 000003
    013073  aa  027 162 163 164         rst_comment_ends_source
    013074  aa  137 143 157 155
    013075  aa  155 145 156 164
    013076  aa  137 145 156 144
    013077  aa  163 137 163 157
    013100  aa  165 162 143 145
    013101  55   001342 001320
    013102  2a   000323 400001
    013103  55   001334 000003
    013104  aa  024 162 163 164         rst_childless_parent
    013105  aa  137 143 150 151
    013106  aa  154 144 154 145
    013107  aa  163 163 137 160
    013110  aa  141 162 145 156
    013111  aa  164 000 000 000
    013112  55   001352 001331
    013113  2a   000322 400001
    013114  55   001345 000003
    013115  aa  021 162 163 164         rst_bad_semantics
    013116  aa  137 142 141 144
    013117  aa  137 163 145 155
    013120  aa  141 156 164 151
    013121  aa  143 163 000 000
    013122  55   001363 001342
    013123  2a   000321 400001
    013124  55   001355 000003
    013125  aa  026 162 163 164         rst_bad_relation_count
    013126  aa  137 142 141 144
    013127  aa  137 162 145 154
    013130  aa  141 164 151 157
    013131  aa  156 137 143 157
    013132  aa  165 156 164 000
    013133  55   001374 001352
    013134  2a   000320 400001
    013135  55   001366 000003
    013136  aa  025 162 163 164         rst_bad_number_syntax
    013137  aa  137 142 141 144
    013140  aa  137 156 165 155
    013141  aa  142 145 162 137
    013142  aa  163 171 156 164
    013143  aa  141 170 000 000
    013144  55   001403 001363
    013145  2a   000317 400001
    013146  55   001377 000003
    013147  aa  015 162 163 164         rst_bad_model
    013150  aa  137 142 141 144
    013151  aa  137 155 157 144
    013152  aa  145 154 000 000
    013153  55   001413 001374
    013154  2a   000316 400001
    013155  55   001406 000003
    013156  aa  022 162 163 164         rst_bad_link_count
    013157  aa  137 142 141 144
    013160  aa  137 154 151 156
    013161  aa  153 137 143 157
    013162  aa  165 156 164 000
    013163  55   001423 001403
    013164  2a   000315 400001
    013165  55   001416 000003
    013166  aa  022 162 163 164         rst_bad_file_count
    013167  aa  137 142 141 144
    013170  aa  137 146 151 154
    013171  aa  145 137 143 157
    013172  aa  165 156 164 000
    013173  55   001433 001413
    013174  2a   000314 400001
    013175  55   001426 000003
    013176  aa  020 162 163 164         rst_bad_encoding
    013177  aa  137 142 141 144
    013200  aa  137 145 156 143
    013201  aa  157 144 151 156
    013202  aa  147 000 000 000
    013203  55   001444 001423
    013204  2a   000313 400001
    013205  55   001436 000003
    013206  aa  024 162 163 164         rst_bad_domain_count
    013207  aa  137 142 141 144
    013210  aa  137 144 157 155
    013211  aa  141 151 156 137
    013212  aa  143 157 165 156
    013213  aa  164 000 000 000
    013214  55   001454 001433
    013215  2a   000312 400001
    013216  55   001447 000003
    013217  aa  023 162 163 164         rst_bad_declaration
    013220  aa  137 142 141 144
    013221  aa  137 144 145 143
    013222  aa  154 141 162 141
    013223  aa  164 151 157 156
    013224  55   001464 001444
    013225  2a   000311 400001
    013226  55   001457 000003
    013227  aa  023 162 163 164         rst_bad_child_count
    013230  aa  137 142 141 144
    013231  aa  137 143 150 151
    013232  aa  154 144 137 143
    013233  aa  157 165 156 164
    013234  55   001474 001454
    013235  2a   000310 400001
    013236  55   001467 000003
    013237  aa  022 162 163 164         rst_bad_bit_string
    013240  aa  137 142 141 144
    013241  aa  137 142 151 164
    013242  aa  137 163 164 162
    013243  aa  151 156 147 000
    013244  55   001505 001464
    013245  2a   000307 400001
    013246  55   001477 000003
    013247  aa  027 162 163 164         rst_bad_attribute_count
    013250  aa  137 142 141 144
    013251  aa  137 141 164 164
    013252  aa  162 151 142 165
    013253  aa  164 145 137 143
    013254  aa  157 165 156 164
    013255  55   001513 001474
    013256  2a   000306 400001
    013257  55   001510 000003
    013260  aa  010 162 145 154         rel_node
    013261  aa  137 156 157 144
    013262  aa  145 000 000 000
    013263  55   001523 001505
    013264  2a   000305 400001
    013265  55   001516 000003
    013266  aa  021 162 145 154         rel_name_too_long
    013267  aa  137 156 141 155
    013270  aa  145 137 164 157
    013271  aa  157 137 154 157
    013272  aa  156 147 000 000
    013273  55   001532 001513
    013274  2a   000304 400001
    013275  55   001526 000003
    013276  aa  014 162 141 156         range_syntax
    013277  aa  147 145 137 163
    013300  aa  171 156 164 141
    013301  aa  170 000 000 000
    013302  55   001542 001523
    013303  2a   000303 400001
    013304  55   001535 000003
    013305  aa  020 161 165 151         quiesced_dead_db
    013306  aa  145 163 143 145
    013307  aa  144 137 144 145
    013310  aa  141 144 137 144
    013311  aa  142 000 000 000
    013312  55   001550 001532
    013313  2a   000302 400001
    013314  55   001545 000003
    013315  aa  013 161 165 151         quiesced_db
    013316  aa  145 163 143 145
    013317  aa  144 137 144 142
    013320  55   001557 001542
    013321  2a   000301 400001
    013322  55   001553 000003
    013323  aa  017 161 165 151         quiesce_too_few
    013324  aa  145 163 143 145
    013325  aa  137 164 157 157
    013326  aa  137 146 145 167
    013327  55   001566 001550
    013330  2a   000300 400001
    013331  55   001562 000003
    013332  aa  017 161 165 151         quiesce_pending
    013333  aa  145 163 143 145
    013334  aa  137 160 145 156
    013335  aa  144 151 156 147
    013336  55   001576 001557
    013337  2a   000277 400001
    013340  55   001571 000003
    013341  aa  021 160 162 157         process_not_found
    013342  aa  143 145 163 163
    013343  aa  137 156 157 164
    013344  aa  137 146 157 165
    013345  aa  156 144 000 000
    013346  55   001610 001566
    013347  2a   000276 400001
    013350  55   001601 000003
    013351  aa  030 160 162 145         previously_defined_index
    013352  aa  166 151 157 165
    013353  aa  163 154 171 137
    013354  aa  144 145 146 151
    013355  aa  156 145 144 137
    013356  aa  151 156 144 145
    013357  aa  170 000 000 000
    013360  55   001622 001576
    013361  2a   000275 400001
    013362  55   001613 000003
    013363  aa  031 160 141 162         parser_unrecognized_state
    013364  aa  163 145 162 137
    013365  aa  165 156 162 145
    013366  aa  143 157 147 156
    013367  aa  151 172 145 144
    013370  aa  137 163 164 141
    013371  aa  164 145 000 000
    013372  55   001633 001610
    013373  2a   000274 400001
    013374  55   001625 000003
    013375  aa  025 160 141 162         parser_stack_overflow
    013376  aa  163 145 162 137
    013377  aa  163 164 141 143
    013400  aa  153 137 157 166
    013401  aa  145 162 146 154
    013402  aa  157 167 000 000
    013403  55   001643 001622
    013404  2a   000273 400001
    013405  55   001636 000003
    013406  aa  022 160 141 162         parser_logic_error
    013407  aa  163 145 162 137
    013410  aa  154 157 147 151
    013411  aa  143 137 145 162
    013412  aa  162 157 162 000
    013413  55   001651 001633
    013414  2a   000272 400001
    013415  55   001646 000003
    013416  aa  013 160 141 162         parse_error
    013417  aa  163 145 137 145
    013420  aa  162 162 157 162
    013421  55   001661 001643
    013422  2a   000271 400001
    013423  55   001654 000003
    013424  aa  022 157 166 145         overflow_condition
    013425  aa  162 146 154 157
    013426  aa  167 137 143 157
    013427  aa  156 144 151 164
    013430  aa  151 157 156 000
    013431  55   001667 001651
    013432  2a   000270 400001
    013433  55   001664 000003
    013434  aa  012 157 160 145         open_order
    013435  aa  156 137 157 162
    013436  aa  144 145 162 000
    013437  55   001677 001661
    013440  2a   000267 400001
    013441  55   001672 000003
    013442  aa  023 157 160 145         open_name_not_known
    013443  aa  156 137 156 141
    013444  aa  155 145 137 156
    013445  aa  157 164 137 153
    013446  aa  156 157 167 156
    013447  55   001710 001667
    013450  2a   000266 400001
    013451  55   001702 000003
    013452  aa  027 157 160 145         open_name_already_known
    013453  aa  156 137 156 141
    013454  aa  155 145 137 141
    013455  aa  154 162 145 141
    013456  aa  144 171 137 153
    013457  aa  156 157 167 156
    013460  55   001717 001677
    013461  2a   000265 400001
    013462  55   001713 000003
    013463  aa  015 157 160 137         op_stack_ovfl
    013464  aa  163 164 141 143
    013465  aa  153 137 157 166
    013466  aa  146 154 000 000
    013467  55   001726 001710
    013470  2a   000264 400001
    013471  55   001722 000003
    013472  aa  014 157 156 145         one_tuple_op
    013473  aa  137 164 165 160
    013474  aa  154 145 137 157
    013475  aa  160 000 000 000
    013476  55   001734 001717
    013477  2a   000263 400001
    013500  55   001731 000003
    013501  aa  010 156 157 164         not_leaf
    013502  aa  137 154 145 141
    013503  aa  146 000 000 000
    013504  55   001744 001726
    013505  2a   000262 400001
    013506  55   001737 000003
    013507  aa  020 156 157 164         not_freeing_area
    013510  aa  137 146 162 145
    013511  aa  145 151 156 147
    013512  aa  137 141 162 145
    013513  aa  141 000 000 000
    013514  55   001751 001734
    013515  2a   000261 400001
    013516  55   001747 000003
    013517  aa  007 156 157 164         not_dsm
    013520  aa  137 144 163 155
    013521  55   001760 001744
    013522  2a   000260 400001
    013523  55   001754 000003
    013524  aa  017 156 157 156         non_scope_ready
    013525  aa  137 163 143 157
    013526  aa  160 145 137 162
    013527  aa  145 141 144 171
    013530  55   001767 001751
    013531  2a   000257 400001
    013532  55   001763 000003
    013533  aa  017 156 157 144         node_stack_ovfl
    013534  aa  145 137 163 164
    013535  aa  141 143 153 137
    013536  aa  157 166 146 154
    013537  55   001776 001760
    013540  2a   000256 400001
    013541  55   001772 000003
    013542  aa  016 156 157 137         no_wakeup_user
    013543  aa  167 141 153 145
    013544  aa  165 160 137 165
    013545  aa  163 145 162 000
    013546  55   002005 001767
    013547  2a   000255 400001
    013550  55   002001 000003
    013551  aa  017 156 157 137         no_unref_domain
    013552  aa  165 156 162 145
    013553  aa  146 137 144 157
    013554  aa  155 141 151 156
    013555  55   002014 001776
    013556  2a   000254 400001
    013557  55   002010 000003
    013560  aa  015 156 157 137         no_unref_attr
    013561  aa  165 156 162 145
    013562  aa  146 137 141 164
    013563  aa  164 162 000 000
    013564  55   002023 002005
    013565  2a   000253 400001
    013566  55   002017 000003
    013567  aa  017 156 157 137         no_tuple_effect
    013570  aa  164 165 160 154
    013571  aa  145 137 145 146
    013572  aa  146 145 143 164
    013573  55   002031 002014
    013574  2a   000252 400001
    013575  55   002026 000003
    013576  aa  010 156 157 137         no_tuple
    013577  aa  164 165 160 154
    013600  aa  145 000 000 000
    013601  55   002037 002023
    013602  2a   000251 400001
    013603  55   002034 000003
    013604  aa  012 156 157 137         no_tr_keys
    013605  aa  164 162 137 153
    013606  aa  145 171 163 000
    013607  55   002045 002031
    013610  2a   000250 400001
    013611  55   002042 000003
    013612  aa  013 156 157 137         no_temp_dir
    013613  aa  164 145 155 160
    013614  aa  137 144 151 162
    013615  55   002053 002037
    013616  2a   000247 400001
    013617  55   002050 000003
    013620  aa  011 156 157 137         no_sm_rel
    013621  aa  163 155 137 162
    013622  aa  145 154 000 000
    013623  55   002061 002045
    013624  2a   000246 400001
    013625  55   002056 000003
    013626  aa  012 156 157 137         no_sel_exp
    013627  aa  163 145 154 137
    013630  aa  145 170 160 000
    013631  55   002067 002053
    013632  2a   000245 400001
    013633  55   002064 000003
    013634  aa  013 156 157 137         no_rel_name
    013635  aa  162 145 154 137
    013636  aa  156 141 155 145
    013637  55   002077 002061
    013640  2a   000244 400001
    013641  55   002072 000003
    013642  aa  022 156 157 137         no_relations_exist
    013643  aa  162 145 154 141
    013644  aa  164 151 157 156
    013645  aa  163 137 145 170
    013646  aa  151 163 164 000
    013647  55   002104 002067
    013650  2a   000243 400001
    013651  55   002102 000003
    013652  aa  007 156 157 137         no_rels
    013653  aa  162 145 154 163
    013654  55   002113 002077
    013655  2a   000242 400001
    013656  55   002107 000003
    013657  aa  017 162 145 143         recursion_error
    013660  aa  165 162 163 151
    013661  aa  157 156 137 145
    013662  aa  162 162 157 162
    013663  55   002122 002104
    013664  2a   000242 400001
    013665  55   002116 000003
    013666  aa  014 156 157 137         no_recursion
    013667  aa  162 145 143 165
    013670  aa  162 163 151 157
    013671  aa  156 000 000 000
    013672  55   002130 002113
    013673  2a   000241 400001
    013674  55   002125 000003
    013675  aa  013 156 157 137         no_rel_attr
    013676  aa  162 145 154 137
    013677  aa  141 164 164 162
    013700  55   002137 002122
    013701  2a   000240 400001
    013702  55   002133 000003
    013703  aa  016 156 157 137         no_primary_key
    013704  aa  160 162 151 155
    013705  aa  141 162 171 137
    013706  aa  153 145 171 000
    013707  55   002145 002130
    013710  2a   000237 400001
    013711  55   002142 000003
    013712  aa  013 156 157 137         no_prior_se
    013713  aa  160 162 151 157
    013714  aa  162 137 163 145
    013715  55   002154 002137
    013716  2a   000236 400001
    013717  55   002150 000003
    013720  aa  015 156 157 137         no_prev_store
    013721  aa  160 162 145 166
    013722  aa  137 163 164 157
    013723  aa  162 145 000 000
    013724  55   002164 002145
    013725  2a   000235 400001
    013726  55   002157 000003
    013727  aa  021 156 157 137         no_model_submodel
    013730  aa  155 157 144 145
    013731  aa  154 137 163 165
    013732  aa  142 155 157 144
    013733  aa  145 154 000 000
    013734  55   002173 002154
    013735  2a   000234 400001
    013736  55   002167 000003
    013737  aa  014 156 157 137         no_model_rel
    013740  aa  155 157 144 145
    013741  aa  154 137 162 145
    013742  aa  154 000 000 000
    013743  55   002202 002164
    013744  2a   000233 400001
    013745  55   002176 000003
    013746  aa  014 156 157 137         no_model_dom
    013747  aa  155 157 144 145
    013750  aa  154 137 144 157
    013751  aa  155 000 000 000
    013752  55   002211 002173
    013753  2a   000232 400001
    013754  55   002205 000003
    013755  aa  015 156 157 137         no_model_attr
    013756  aa  155 157 144 145
    013757  aa  154 137 141 164
    013760  aa  164 162 000 000
    013761  55   002220 002202
    013762  2a   000231 400001
    013763  55   002214 000003
    013764  aa  017 156 157 137         no_model_access
    013765  aa  155 157 144 145
    013766  aa  154 137 141 143
    013767  aa  143 145 163 163
    013770  55   002227 002211
    013771  2a   000230 400001
    013772  55   002223 000003
    013773  aa  015 156 157 137         no_left_paren
    013774  aa  154 145 146 164
    013775  aa  137 160 141 162
    013776  aa  145 156 000 000
    013777  55   002237 002220
    014000  2a   000227 400001
    014001  55   002232 000003
    014002  aa  020 156 157 137         no_key_specified
    014003  aa  153 145 171 137
    014004  aa  163 160 145 143
    014005  aa  151 146 151 145
    014006  aa  144 000 000 000
    014007  55   002244 002227
    014010  2a   000226 400001
    014011  55   002242 000003
    014012  aa  007 156 157 137         no_inds
    014013  aa  151 156 144 163
    014014  55   002255 002237
    014015  2a   000225 400001
    014016  55   002247 000003
    014017  aa  024 156 157 137         no_dups_for_set_oper
    014020  aa  144 165 160 163
    014021  aa  137 146 157 162
    014022  aa  137 163 145 164
    014023  aa  137 157 160 145
    014024  aa  162 000 000 000
    014025  55   002265 002244
    014026  2a   000224 400001
    014027  55   002260 000003
    014030  aa  020 156 157 137         no_domains_exist
    014031  aa  144 157 155 141
    014032  aa  151 156 163 137
    014033  aa  145 170 151 163
    014034  aa  164 000 000 000
    014035  55   002273 002255
    014036  2a   000223 400001
    014037  55   002270 000003
    014040  aa  012 156 157 137         no_domains
    014041  aa  144 157 155 141
    014042  aa  151 156 163 000
    014043  55   002300 002265
    014044  2a   000222 400001
    014045  55   002276 000003
    014046  aa  006 156 157 137         no_dms
    014047  aa  144 155 163 000
    014050  55   002306 002273
    014051  2a   000221 400001
    014052  55   002303 000003
    014053  aa  012 156 157 137         no_db_path
    014054  aa  144 142 137 160
    014055  aa  141 164 150 000
    014056  55   002314 002300
    014057  2a   000220 400001
    014060  55   002311 000003
    014061  aa  013 156 157 137         no_database
    014062  aa  144 141 164 141
    014063  aa  142 141 163 145
    014064  55   002322 002306
    014065  2a   000217 400001
    014066  55   002317 000003
    014067  aa  013 156 157 137         no_ctl_path
    014070  aa  143 164 154 137
    014071  aa  160 141 164 150
    014072  55   002331 002314
    014073  2a   000216 400001
    014074  55   002325 000003
    014075  aa  014 156 157 137         no_attr_spec
    014076  aa  141 164 164 162
    014077  aa  137 163 160 145
    014100  aa  143 000 000 000
    014101  55   002337 002322
    014102  2a   000215 400001
    014103  55   002334 000003
    014104  aa  012 156 157 137         no_attr_lp
    014105  aa  141 164 164 162
    014106  aa  137 154 160 000
    014107  55   002346 002331
    014110  2a   000214 400001
    014111  55   002342 000003
    014112  aa  016 155 171 137         my_quiesced_db
    014113  aa  161 165 151 145
    014114  aa  163 143 145 144
    014115  aa  137 144 142 000
    014116  55   002357 002337
    014117  2a   000213 400001
    014120  55   002351 000003
    014121  aa  025 155 165 154         multiple_tuples_found
    014122  aa  164 151 160 154
    014123  aa  145 137 164 165
    014124  aa  160 154 145 163
    014125  aa  137 146 157 165
    014126  aa  156 144 000 000
    014127  55   002365 002346
    014130  2a   000212 400001
    014131  55   002362 000003
    014132  aa  012 155 165 154         mult_paren
    014133  aa  164 137 160 141
    014134  aa  162 145 156 000
    014135  55   002373 002357
    014136  2a   000211 400001
    014137  55   002370 000003
    014140  aa  012 155 165 154         mult_index
    014141  aa  164 137 151 156
    014142  aa  144 145 170 000
    014143  55   002402 002365
    014144  2a   000210 400001
    014145  55   002376 000003
    014146  aa  016 155 165 154         mult_expr_vars
    014147  aa  164 137 145 170
    014150  aa  160 162 137 166
    014151  aa  141 162 163 000
    014152  55   002411 002373
    014153  2a   000207 400001
    014154  55   002405 000003
    014155  aa  014 155 165 154         mult_def_var
    014156  aa  164 137 144 145
    014157  aa  146 137 166 141
    014160  aa  162 000 000 000
    014161  55   002420 002402
    014162  2a   000206 400001
    014163  55   002414 000003
    014164  aa  014 155 165 154         mult_att_ref
    014165  aa  164 137 141 164
    014166  aa  164 137 162 145
    014167  aa  146 000 000 000
    014170  55   002427 002411
    014171  2a   000205 400001
    014172  55   002423 000003
    014173  aa  014 155 165 154         mult_att_def
    014174  aa  164 137 141 164
    014175  aa  164 137 144 145
    014176  aa  146 000 000 000
    014177  55   002435 002420
    014200  2a   000204 400001
    014201  55   002432 000003
    014202  aa  011 155 165 154         mult_asts
    014203  aa  164 137 141 163
    014204  aa  164 163 000 000
    014205  55   002444 002427
    014206  2a   000203 400001
    014207  55   002440 000003
    014210  aa  014 155 157 144         mod_key_attr
    014211  aa  137 153 145 171
    014212  aa  137 141 164 164
    014213  aa  162 000 000 000
    014214  55   002453 002435
    014215  2a   000202 400001
    014216  55   002447 000003
    014217  aa  016 155 151 170         mixed_versions
    014220  aa  145 144 137 166
    014221  aa  145 162 163 151
    014222  aa  157 156 163 000
    014223  55   002462 002444
    014224  2a   000201 400001
    014225  55   002456 000003
    014226  aa  016 155 151 163         missing_select
    014227  aa  163 151 156 147
    014230  aa  137 163 145 154
    014231  aa  145 143 164 000
    014232  55   002473 002453
    014233  2a   000200 400001
    014234  55   002465 000003
    014235  aa  025 155 151 163         missing_relation_name
    014236  aa  163 151 156 147
    014237  aa  137 162 145 154
    014240  aa  141 164 151 157
    014241  aa  156 137 156 141
    014242  aa  155 145 000 000
    014243  55   002502 002462
    014244  2a   000177 400001
    014245  55   002476 000003
    014246  aa  014 155 141 170         max_vars_rel
    014247  aa  137 166 141 162
    014250  aa  163 137 162 145
    014251  aa  154 000 000 000
    014252  55   002510 002473
    014253  2a   000176 400001
    014254  55   002505 000003
    014255  aa  013 155 141 170         max_tup_var
    014256  aa  137 164 165 160
    014257  aa  137 166 141 162
    014260  55   002517 002502
    014261  2a   000175 400001
    014262  55   002513 000003
    014263  aa  015 155 141 170         max_temp_rels
    014264  aa  137 164 145 155
    014265  aa  160 137 162 145
    014266  aa  154 163 000 000
    014267  55   002525 002510
    014270  2a   000174 400001
    014271  55   002522 000003
    014272  aa  013 155 141 170         max_sf_args
    014273  aa  137 163 146 137
    014274  aa  141 162 147 163
    014275  55   002535 002517
    014276  2a   000173 400001
    014277  55   002530 000003
    014300  aa  020 155 141 170         max_select_items
    014301  aa  137 163 145 154
    014302  aa  145 143 164 137
    014303  aa  151 164 145 155
    014304  aa  163 000 000 000
    014305  55   002544 002525
    014306  2a   000172 400001
    014307  55   002540 000003
    014310  aa  014 155 141 170         max_retr_len
    014311  aa  137 162 145 164
    014312  aa  162 137 154 145
    014313  aa  156 000 000 000
    014314  55   002552 002535
    014315  2a   000171 400001
    014316  55   002547 000003
    014317  aa  010 155 141 170         max_rels
    014320  aa  137 162 145 154
    014321  aa  163 000 000 000
    014322  55   002560 002544
    014323  2a   000170 400001
    014324  55   002555 000003
    014325  aa  013 155 141 170         max_indexes
    014326  aa  137 151 156 144
    014327  aa  145 170 145 163
    014330  55   002567 002552
    014331  2a   000167 400001
    014332  55   002563 000003
    014333  aa  016 155 141 170         max_expr_items
    014334  aa  137 145 170 160
    014335  aa  162 137 151 164
    014336  aa  145 155 163 000
    014337  55   002576 002560
    014340  2a   000166 400001
    014341  55   002572 000003
    014342  aa  016 155 141 170         max_attributes
    014343  aa  137 141 164 164
    014344  aa  162 151 142 165
    014345  aa  164 145 163 000
    014346  55   002605 002567
    014347  2a   000165 400001
    014350  55   002601 000003
    014351  aa  015 155 141 170         max_and_terms
    014352  aa  137 141 156 144
    014353  aa  137 164 145 162
    014354  aa  155 163 000 000
    014355  55   002614 002576
    014356  2a   000164 400001
    014357  55   002610 000003
    014360  aa  016 155 141 170         max_and_groups
    014361  aa  137 141 156 144
    014362  aa  137 147 162 157
    014363  aa  165 160 163 000
    014364  55   002622 002605
    014365  2a   000163 400001
    014366  55   002617 000003
    014367  aa  010 154 157 156         long_key
    014370  aa  147 137 153 145
    014371  aa  171 000 000 000
    014372  55   002630 002614
    014373  2a   000162 400001
    014374  55   002625 000003
    014375  aa  012 154 157 156         long_index
    014376  aa  147 137 151 156
    014377  aa  144 145 170 000
    014400  55   002636 002622
    014401  2a   000161 400001
    014402  55   002633 000003
    014403  aa  012 154 157 156         long_ident
    014404  aa  147 137 151 144
    014405  aa  145 156 164 000
    014406  55   002645 002630
    014407  2a   000160 400001
    014410  55   002641 000003
    014411  aa  017 154 151 164         lit_string_ovfl
    014412  aa  137 163 164 162
    014413  aa  151 156 147 137
    014414  aa  157 166 146 154
    014415  55   002654 002636
    014416  2a   000157 400001
    014417  55   002650 000003
    014420  aa  016 154 151 163         list_duplicate
    014421  aa  164 137 144 165
    014422  aa  160 154 151 143
    014423  aa  141 164 145 000
    014424  55   002663 002645
    014425  2a   000156 400001
    014426  55   002657 000003
    014427  aa  015 153 145 171         key_encd_ovfl
    014430  aa  137 145 156 143
    014431  aa  144 137 157 166
    014432  aa  146 154 000 000
    014433  55   002674 002654
    014434  2a   000155 400001
    014435  55   002666 000003
    014436  aa  025 151 156 166         invalid_string_length
    014437  aa  141 154 151 144
    014440  aa  137 163 164 162
    014441  aa  151 156 147 137
    014442  aa  154 145 156 147
    014443  aa  164 150 000 000
    014444  55   002704 002663
    014445  2a   000154 400001
    014446  55   002677 000003
    014447  aa  023 151 156 166         invalid_select_sets
    014450  aa  141 154 151 144
    014451  aa  137 163 145 154
    014452  aa  145 143 164 137
    014453  aa  163 145 164 163
    014454  55   002713 002674
    014455  2a   000153 400001
    014456  55   002707 000003
    014457  aa  015 151 156 166         invalid_scale
    014460  aa  141 154 151 144
    014461  aa  137 163 143 141
    014462  aa  154 145 000 000
    014463  55   002723 002704
    014464  2a   000152 400001
    014465  55   002716 000003
    014466  aa  021 151 156 166         invalid_rel_index
    014467  aa  141 154 151 144
    014470  aa  137 162 145 154
    014471  aa  137 151 156 144
    014472  aa  145 170 000 000
    014473  55   002731 002713
    014474  2a   000151 400001
    014475  55   002726 000003
    014476  aa  013 151 156 166         invalid_rel
    014477  aa  141 154 151 144
    014500  aa  137 162 145 154
    014501  55   002741 002723
    014502  2a   000150 400001
    014503  55   002734 000003
    014504  aa  021 151 156 166         invalid_precision
    014505  aa  141 154 151 144
    014506  aa  137 160 162 145
    014507  aa  143 151 163 151
    014510  aa  157 156 000 000
    014511  55   002752 002731
    014512  2a   000147 400001
    014513  55   002744 000003
    014514  aa  024 151 156 166         invalid_opening_mode
    014515  aa  141 154 151 144
    014516  aa  137 157 160 145
    014517  aa  156 151 156 147
    014520  aa  137 155 157 144
    014521  aa  145 000 000 000
    014522  55   002763 002741
    014523  2a   000146 400001
    014524  55   002755 000003
    014525  aa  025 151 156 166         invalid_dm_descriptor
    014526  aa  141 154 151 144
    014527  aa  137 144 155 137
    014530  aa  144 145 163 143
    014531  aa  162 151 160 164
    014532  aa  157 162 000 000
    014533  55   002773 002752
    014534  2a   000145 400001
    014535  55   002766 000003
    014536  aa  020 151 156 166         invalid_dec_data
    014537  aa  141 154 151 144
    014540  aa  137 144 145 143
    014541  aa  137 144 141 164
    014542  aa  141 000 000 000
    014543  55   003003 002763
    014544  2a   000144 400001
    014545  55   002776 000003
    014546  aa  020 151 156 166         invalid_db_index
    014547  aa  141 154 151 144
    014550  aa  137 144 142 137
    014551  aa  151 156 144 145
    014552  aa  170 000 000 000
    014553  55   003012 002773
    014554  2a   000143 400001
    014555  55   003006 000003
    014556  aa  017 151 156 166         inval_rtrv_expr
    014557  aa  141 154 137 162
    014560  aa  164 162 166 137
    014561  aa  145 170 160 162
    014562  55   003021 003003
    014563  2a   000142 400001
    014564  55   003015 000003
    014565  aa  016 151 156 166         inval_mod_expr
    014566  aa  141 154 137 155
    014567  aa  157 144 137 145
    014570  aa  170 160 162 000
    014571  55   003030 003012
    014572  2a   000141 400001
    014573  55   003024 000003
    014574  aa  016 151 156 166         inval_dtr_expr
    014575  aa  141 154 137 144
    014576  aa  164 162 137 145
    014577  aa  170 160 162 000
    014600  55   003037 003021
    014601  2a   000140 400001
    014602  55   003033 000003
    014603  aa  016 151 156 166         inval_del_expr
    014604  aa  141 154 137 144
    014605  aa  145 154 137 145
    014606  aa  170 160 162 000
    014607  55   003046 003030
    014610  2a   000137 400001
    014611  55   003042 000003
    014612  aa  017 151 156 166         inval_comp_expr
    014613  aa  141 154 137 143
    014614  aa  157 155 160 137
    014615  aa  145 170 160 162
    014616  55   003054 003037
    014617  2a   000136 400001
    014620  55   003051 000003
    014621  aa  011 151 156 166         inv_token
    014622  aa  137 164 157 153
    014623  aa  145 156 000 000
    014624  55   003063 003046
    014625  2a   000135 400001
    014626  55   003057 000003
    014627  aa  016 151 156 166         inv_string_len
    014630  aa  137 163 164 162
    014631  aa  151 156 147 137
    014632  aa  154 145 156 000
    014633  55   003071 003054
    014634  2a   000134 400001
    014635  55   003066 000003
    014636  aa  012 151 156 166         inv_string
    014637  aa  137 163 164 162
    014640  aa  151 156 147 000
    014641  55   003102 003063
    014642  2a   000133 400001
    014643  55   003074 000003
    014644  aa  027 151 156 166         inv_rel_name_first_char
    014645  aa  137 162 145 154
    014646  aa  137 156 141 155
    014647  aa  145 137 146 151
    014650  aa  162 163 164 137
    014651  aa  143 150 141 162
    014652  55   003111 003071
    014653  2a   000132 400001
    014654  55   003105 000003
    014655  aa  014 151 156 166         inv_operator
    014656  aa  137 157 160 145
    014657  aa  162 141 164 157
    014660  aa  162 000 000 000
    014661  55   003121 003102
    014662  2a   000131 400001
    014663  55   003114 000003
    014664  aa  020 151 156 166         inv_literal_type
    014665  aa  137 154 151 164
    014666  aa  145 162 141 154
    014667  aa  137 164 171 160
    014670  aa  145 000 000 000
    014671  55   003127 003111
    014672  2a   000130 400001
    014673  55   003124 000003
    014674  aa  013 151 156 166         inv_keyword
    014675  aa  137 153 145 171
    014676  aa  167 157 162 144
    014677  55   003141 003121
    014700  2a   000127 400001
    014701  55   003132 000003
    014702  aa  032 151 156 166         inv_domain_name_first_char
    014703  aa  137 144 157 155
    014704  aa  141 151 156 137
    014705  aa  156 141 155 145
    014706  aa  137 146 151 162
    014707  aa  163 164 137 143
    014710  aa  150 141 162 000
    014711  55   003150 003127
    014712  2a   000126 400001
    014713  55   003144 000003
    014714  aa  016 151 156 166         inv_comparison
    014715  aa  137 143 157 155
    014716  aa  160 141 162 151
    014717  aa  163 157 156 000
    014720  55   003162 003141
    014721  2a   000125 400001
    014722  55   003153 000003
    014723  aa  030 151 156 166         inv_attr_name_first_char
    014724  aa  137 141 164 164
    014725  aa  162 137 156 141
    014726  aa  155 145 137 146
    014727  aa  151 162 163 164
    014730  aa  137 143 150 141
    014731  aa  162 000 000 000
    014732  55   003171 003150
    014733  2a   000124 400001
    014734  55   003165 000003
    014735  aa  017 162 163 164         rst_logic_error
    014736  aa  137 154 157 147
    014737  aa  151 143 137 145
    014740  aa  162 162 157 162
    014741  55   003200 003162
    014742  2a   000124 400001
    014743  55   003174 000003
    014744  aa  016 151 156 164         internal_error
    014745  aa  145 162 156 141
    014746  aa  154 137 145 162
    014747  aa  162 157 162 000
    014750  55   003206 003171
    014751  2a   000123 400001
    014752  55   003203 000003
    014753  aa  013 151 156 163         insuff_args
    014754  aa  165 146 146 137
    014755  aa  141 162 147 163
    014756  55   003216 003200
    014757  2a   000122 400001
    014760  55   003211 000003
    014761  aa  022 151 156 143         incorrect_dsmd_seq
    014762  aa  157 162 162 145
    014763  aa  143 164 137 144
    014764  aa  163 155 144 137
    014765  aa  163 145 161 000
    014766  55   003230 003206
    014767  2a   000121 400001
    014770  55   003221 000003
    014771  aa  033 151 156 143         inconsistent_transaction_se
    014772  aa  157 156 163 151
    014773  aa  163 164 145 156
    014774  aa  164 137 164 162
    014775  aa  141 156 163 141
    014776  aa  143 164 151 157
    014777  aa  156 137 163 145
    015000  55   003241 003216
    015001  2a   000120 400001
    015002  55   003233 000003
    015003  aa  025 151 156 143         inconsistent_submodel
    015004  aa  157 156 163 151
    015005  aa  163 164 145 156
    015006  aa  164 137 163 165
    015007  aa  142 155 157 144
    015010  aa  145 154 000 000
    015011  55   003252 003230
    015012  2a   000117 400001
    015013  55   003244 000003
    015014  aa  024 151 156 143         inconsistent_options
    015015  aa  157 156 163 151
    015016  aa  163 164 145 156
    015017  aa  164 137 157 160
    015020  aa  164 151 157 156
    015021  aa  163 000 000 000
    015022  55   003263 003241
    015023  2a   000116 400001
    015024  55   003255 000003
    015025  aa  026 151 156 143         inconsistent_num_files
    015026  aa  157 156 163 151
    015027  aa  163 164 145 156
    015030  aa  164 137 156 165
    015031  aa  155 137 146 151
    015032  aa  154 145 163 000
    015033  55   003273 003252
    015034  2a   000115 400001
    015035  55   003266 000003
    015036  aa  021 151 156 143         inconsistent_info
    015037  aa  157 156 163 151
    015040  aa  163 164 145 156
    015041  aa  164 137 151 156
    015042  aa  146 157 000 000
    015043  55   003305 003263
    015044  2a   000114 400001
    015045  55   003276 000003
    015046  aa  030 151 156 143         inconsistent_data_length
    015047  aa  157 156 163 151
    015050  aa  163 164 145 156
    015051  aa  164 137 144 141
    015052  aa  164 141 137 154
    015053  aa  145 156 147 164
    015054  aa  150 000 000 000
    015055  55   003315 003273
    015056  2a   000113 400001
    015057  55   003310 000003
    015060  aa  022 151 156 143         inconsistent_close
    015061  aa  157 156 163 151
    015062  aa  163 164 145 156
    015063  aa  164 137 143 154
    015064  aa  157 163 145 000
    015065  55   003326 003305
    015066  2a   000112 400001
    015067  55   003320 000003
    015070  aa  025 151 156 143         inconsistent_database
    015071  aa  157 156 163 151
    015072  aa  163 164 145 156
    015073  aa  164 137 144 141
    015074  aa  164 141 142 141
    015075  aa  163 145 000 000
    015076  55   003334 003315
    015077  2a   000112 400001
    015100  55   003331 000003
    015101  aa  011 151 156 143         incons_db
    015102  aa  157 156 163 137
    015103  aa  144 142 000 000
    015104  55   003345 003326
    015105  2a   000111 400001
    015106  55   003337 000003
    015107  aa  026 151 156 143         incomplete_declaration
    015110  aa  157 155 160 154
    015111  aa  145 164 145 137
    015112  aa  144 145 143 154
    015113  aa  141 162 141 164
    015114  aa  151 157 156 000
    015115  55   003355 003334
    015116  2a   000110 400001
    015117  55   003350 000003
    015120  aa  023 151 156 143         incomp_se_and_scope
    015121  aa  157 155 160 137
    015122  aa  163 145 137 141
    015123  aa  156 144 137 163
    015124  aa  143 157 160 145
    015125  55   003363 003345
    015126  2a   000107 400001
    015127  55   003360 000003
    015130  aa  011 151 156 143         incomp_se
    015131  aa  157 155 160 137
    015132  aa  163 145 000 000
    015133  55   003372 003355
    015134  2a   000106 400001
    015135  55   003366 000003
    015136  aa  017 151 156 143         inc_secure_open
    015137  aa  137 163 145 143
    015140  aa  165 162 145 137
    015141  aa  157 160 145 156
    015142  55   003400 003363
    015143  2a   000105 400001
    015144  55   003375 000003
    015145  aa  013 151 156 143         inc_rel_acc
    015146  aa  137 162 145 154
    015147  aa  137 141 143 143
    015150  55   003407 003372
    015151  2a   000104 400001
    015152  55   003403 000003
    015153  aa  016 151 156 143         inc_ready_mode
    015154  aa  137 162 145 141
    015155  aa  144 171 137 155
    015156  aa  157 144 145 000
    015157  55   003416 003400
    015160  2a   000103 400001
    015161  55   003412 000003
    015162  aa  014 151 156 143         inc_attr_acc
    015163  aa  137 141 164 164
    015164  aa  162 137 141 143
    015165  aa  143 000 000 000
    015166  55   003430 003407
    015167  2a   000102 400001
    015170  55   003421 000003
    015171  aa  033 151 154 154         illegal_procedure_condition
    015172  aa  145 147 141 154
    015173  aa  137 160 162 157
    015174  aa  143 145 144 165
    015175  aa  162 145 137 143
    015176  aa  157 156 144 151
    015177  aa  164 151 157 156
    015200  55   003436 003416
    015201  2a   000101 400001
    015202  55   003433 000003
    015203  aa  010 151 154 154         ill_term
    015204  aa  137 164 145 162
    015205  aa  155 000 000 000
    015206  55   003446 003430
    015207  2a   000100 400001
    015210  55   003441 000003
    015211  aa  020 150 157 154         hold_quiesced_db
    015212  aa  144 137 161 165
    015213  aa  151 145 163 143
    015214  aa  145 144 137 144
    015215  aa  142 000 000 000
    015216  55   003454 003436
    015217  2a   000077 400001
    015220  55   003451 000003
    015221  aa  012 146 165 156         fun_syntax
    015222  aa  137 163 171 156
    015223  aa  164 141 170 000
    015224  55   003464 003446
    015225  2a   000076 400001
    015226  55   003457 000003
    015227  aa  021 146 162 145         free_not_quiesced
    015230  aa  145 137 156 157
    015231  aa  164 137 161 165
    015232  aa  151 145 163 143
    015233  aa  145 144 000 000
    015234  55   003475 003454
    015235  2a   000075 400001
    015236  55   003467 000003
    015237  aa  027 146 151 170         fixedoverflow_condition
    015240  aa  145 144 157 166
    015241  aa  145 162 146 154
    015242  aa  157 167 137 143
    015243  aa  157 156 144 151
    015244  aa  164 151 157 156
    015245  55   003503 003464
    015246  2a   000074 400001
    015247  55   003500 000003
    015250  aa  010 145 170 164         ext_data
    015251  aa  137 144 141 164
    015252  aa  141 000 000 000
    015253  55   003514 003475
    015254  2a   000073 400001
    015255  55   003506 000003
    015256  aa  027 145 170 160         expression_not_complete
    015257  aa  162 145 163 163
    015260  aa  151 157 156 137
    015261  aa  156 157 164 137
    015262  aa  143 157 155 160
    015263  aa  154 145 164 145
    015264  55   003522 003503
    015265  2a   000072 400001
    015266  55   003517 000003
    015267  aa  013 145 170 160         expr_syntax
    015270  aa  162 137 163 171
    015271  aa  156 164 141 170
    015272  55   003531 003514
    015273  2a   000071 400001
    015274  55   003525 000003
    015275  aa  017 145 170 160         expr_stack_ovfl
    015276  aa  162 137 163 164
    015277  aa  141 143 153 137
    015300  aa  157 166 146 154
    015301  55   003540 003522
    015302  2a   000070 400001
    015303  55   003534 000003
    015304  aa  017 145 162 162         error_condition
    015305  aa  157 162 137 143
    015306  aa  157 156 144 151
    015307  aa  164 151 157 156
    015310  55   003546 003531
    015311  2a   000067 400001
    015312  55   003543 000003
    015313  aa  013 145 155 160         empty_where
    015314  aa  164 171 137 167
    015315  aa  150 145 162 145
    015316  55   003555 003540
    015317  2a   000066 400001
    015320  55   003551 000003
    015321  aa  014 145 155 160         empty_select
    015322  aa  164 171 137 163
    015323  aa  145 154 145 143
    015324  aa  164 000 000 000
    015325  55   003563 003546
    015326  2a   000065 400001
    015327  55   003560 000003
    015330  aa  013 145 155 160         empty_range
    015331  aa  164 171 137 162
    015332  aa  141 156 147 145
    015333  55   003572 003555
    015334  2a   000064 400001
    015335  55   003566 000003
    015336  aa  017 144 165 160         duplicate_scope
    015337  aa  154 151 143 141
    015340  aa  164 145 137 163
    015341  aa  143 157 160 145
    015342  55   003601 003563
    015343  2a   000063 400001
    015344  55   003575 000003
    015345  aa  015 144 165 160         duplicate_opt
    015346  aa  154 151 143 141
    015347  aa  164 145 137 157
    015350  aa  160 164 000 000
    015351  55   003611 003572
    015352  2a   000062 400001
    015353  55   003604 000003
    015354  aa  021 144 165 160         dup_temp_rel_attr
    015355  aa  137 164 145 155
    015356  aa  160 137 162 145
    015357  aa  154 137 141 164
    015360  aa  164 162 000 000
    015361  55   003620 003601
    015362  2a   000061 400001
    015363  55   003614 000003
    015364  aa  015 144 165 160         duplicate_key
    015365  aa  154 151 143 141
    015366  aa  164 145 137 153
    015367  aa  145 171 000 000
    015370  55   003626 003611
    015371  2a   000061 400001
    015372  55   003623 000003
    015373  aa  011 144 165 160         dup_store
    015374  aa  137 163 164 157
    015375  aa  162 145 000 000
    015376  55   003633 003620
    015377  2a   000061 400001
    015400  55   003631 000003
    015401  aa  007 144 165 160         dup_key
    015402  aa  137 153 145 171
    015403  55   003640 003626
    015404  2a   000060 400001
    015405  55   003636 000003
    015406  aa  007 144 165 160         dup_rel
    015407  aa  137 162 145 154
    015410  55   003647 003633
    015411  2a   000057 400001
    015412  55   003643 000003
    015413  aa  014 144 165 160         dup_not_alld
    015414  aa  137 156 157 164
    015415  aa  137 141 154 154
    015416  aa  144 000 000 000
    015417  55   003657 003640
    015420  2a   000056 400001
    015421  55   003652 000003
    015422  aa  023 144 165 160         dup_invert_dir_name
    015423  aa  137 151 156 166
    015424  aa  145 162 164 137
    015425  aa  144 151 162 137
    015426  aa  156 141 155 145
    015427  55   003670 003647
    015430  2a   000055 400001
    015431  55   003662 000003
    015432  aa  026 144 157 155         domain_already_defined
    015433  aa  141 151 156 137
    015434  aa  141 154 162 145
    015435  aa  141 144 171 137
    015436  aa  144 145 146 151
    015437  aa  156 145 144 000
    015440  55   003676 003657
    015441  2a   000054 400001
    015442  55   003673 000003
    015443  aa  011 144 157 155         dom_integ
    015444  aa  137 151 156 164
    015445  aa  145 147 000 000
    015446  55   003706 003670
    015447  2a   000053 400001
    015450  55   003701 000003
    015451  aa  020 144 151 146         diff_comp_domain
    015452  aa  146 137 143 157
    015453  aa  155 160 137 144
    015454  aa  157 155 141 151
    015455  aa  156 000 000 000
    015456  55   003720 003676
    015457  2a   000052 400001
    015460  55   003711 000003
    015461  aa  030 144 142 137         db_conflict_dead_process
    015462  aa  143 157 156 146
    015463  aa  154 151 143 164
    015464  aa  137 144 145 141
    015465  aa  144 137 160 162
    015466  aa  157 143 145 163
    015467  aa  163 000 000 000
    015470  55   003725 003706
    015471  2a   000051 400001
    015472  55   003723 000003
    015473  aa  007 144 142 137         db_busy
    015474  aa  142 165 163 171
    015475  55   003734 003720
    015476  2a   000050 400001
    015477  55   003730 000003
    015500  aa  017 144 142 137         db_already_open
    015501  aa  141 154 162 145
    015502  aa  141 144 171 137
    015503  aa  157 160 145 156
    015504  55   003743 003725
    015505  2a   000047 400001
    015506  55   003737 000003
    015507  aa  015 143 165 162         curr_not_alld
    015510  aa  162 137 156 157
    015511  aa  164 137 141 154
    015512  aa  154 144 000 000
    015513  55   003752 003734
    015514  2a   000046 400001
    015515  55   003746 000003
    015516  aa  016 143 164 154         ctl_ent_is_dir
    015517  aa  137 145 156 164
    015520  aa  137 151 163 137
    015521  aa  144 151 162 000
    015522  55   003763 003743
    015523  2a   000045 400001
    015524  55   003755 000003
    015525  aa  024 143 157 156         conversion_condition
    015526  aa  166 145 162 163
    015527  aa  151 157 156 137
    015530  aa  143 157 156 144
    015531  aa  151 164 151 157
    015532  aa  156 000 000 000
    015533  55   003772 003752
    015534  2a   000044 400001
    015535  55   003766 000003
    015536  aa  015 143 157 155         comp_sel_expr
    015537  aa  160 137 163 145
    015540  aa  154 137 145 170
    015541  aa  160 162 000 000
    015542  55   004001 003763
    015543  2a   000043 400001
    015544  55   003775 000003
    015545  aa  014 143 141 156         cant_ref_fun
    015546  aa  164 137 162 145
    015547  aa  146 137 146 165
    015550  aa  156 000 000 000
    015551  55   004007 003772
    015552  2a   000042 400001
    015553  55   004004 000003
    015554  aa  011 142 157 157         bool_leaf
    015555  aa  154 137 154 145
    015556  aa  141 146 000 000
    015557  55   004017 004001
    015560  2a   000041 400001
    015561  55   004012 000003
    015562  aa  020 142 154 157         block_sel_incons
    015563  aa  143 153 137 163
    015564  aa  145 154 137 151
    015565  aa  156 143 157 156
    015566  aa  163 000 000 000
    015567  55   004027 004007
    015570  2a   000040 400001
    015571  55   004022 000003
    015572  aa  020 142 154 157         block_dom_incons
    015573  aa  143 153 137 144
    015574  aa  157 155 137 151
    015575  aa  156 143 157 156
    015576  aa  163 000 000 000
    015577  55   004034 004017
    015600  2a   000037 400001
    015601  55   004032 000003
    015602  aa  007 142 141 144         bad_var
    015603  aa  137 166 141 162
    015604  55   004044 004027
    015605  2a   000036 400001
    015606  55   004037 000003
    015607  aa  020 142 141 144         bad_temp_rel_val
    015610  aa  137 164 145 155
    015611  aa  160 137 162 145
    015612  aa  154 137 166 141
    015613  aa  154 000 000 000
    015614  55   004053 004034
    015615  2a   000035 400001
    015616  55   004047 000003
    015617  aa  017 142 141 144         bad_source_path
    015620  aa  137 163 157 165
    015621  aa  162 143 145 137
    015622  aa  160 141 164 150
    015623  55   004063 004044
    015624  2a   000034 400001
    015625  55   004056 000003
    015626  aa  020 142 141 144         bad_select_value
    015627  aa  137 163 145 154
    015630  aa  145 143 164 137
    015631  aa  166 141 154 165
    015632  aa  145 000 000 000
    015633  55   004072 004053
    015634  2a   000033 400001
    015635  55   004066 000003
    015636  aa  014 142 141 144         bad_rel_name
    015637  aa  137 162 145 154
    015640  aa  137 156 141 155
    015641  aa  145 000 000 000
    015642  55   004100 004063
    015643  2a   000032 400001
    015644  55   004075 000003
    015645  aa  011 142 141 144         bad_quant
    015646  aa  137 161 165 141
    015647  aa  156 164 000 000
    015650  55   004107 004072
    015651  2a   000031 400001
    015652  55   004103 000003
    015653  aa  014 142 141 144         bad_pathname
    015654  aa  137 160 141 164
    015655  aa  150 156 141 155
    015656  aa  145 000 000 000
    015657  55   004114 004100
    015660  2a   000030 400001
    015661  55   004112 000003
    015662  aa  006 142 141 144         bad_op
    015663  aa  137 157 160 000
    015664  55   004122 004107
    015665  2a   000027 400001
    015666  55   004117 000003
    015667  aa  011 142 141 144         bad_model
    015670  aa  137 155 157 144
    015671  aa  145 154 000 000
    015672  55   004130 004114
    015673  2a   000026 400001
    015674  55   004125 000003
    015675  aa  013 142 141 144         bad_keyword
    015676  aa  137 153 145 171
    015677  aa  167 157 162 144
    015700  55   004140 004122
    015701  2a   000025 400001
    015702  55   004133 000003
    015703  aa  020 142 141 144         bad_key_retrieve
    015704  aa  137 153 145 171
    015705  aa  137 162 145 164
    015706  aa  162 151 145 166
    015707  aa  145 000 000 000
    015710  55   004151 004130
    015711  2a   000024 400001
    015712  55   004143 000003
    015713  aa  024 142 141 144         bad_invert_file_type
    015714  aa  137 151 156 166
    015715  aa  145 162 164 137
    015716  aa  146 151 154 145
    015717  aa  137 164 171 160
    015720  aa  145 000 000 000
    015721  55   004157 004140
    015722  2a   000023 400001
    015723  55   004154 000003
    015724  aa  011 142 141 144         bad_ident
    015725  aa  137 151 144 145
    015726  aa  156 164 000 000
    015727  55   004164 004151
    015730  2a   000022 400001
    015731  55   004162 000003
    015732  aa  006 142 141 144         bad_eq
    015733  aa  137 145 161 000
    015734  55   004173 004157
    015735  2a   000021 400001
    015736  55   004167 000003
    015737  aa  017 142 141 144         bad_domain_proc
    015740  aa  137 144 157 155
    015741  aa  141 151 156 137
    015742  aa  160 162 157 143
    015743  55   004201 004164
    015744  2a   000020 400001
    015745  55   004176 000003
    015746  aa  011 142 141 144         bad_delim
    015747  aa  137 144 145 154
    015750  aa  151 155 000 000
    015751  55   004210 004173
    015752  2a   000017 400001
    015753  55   004204 000003
    015754  aa  017 142 141 144         bad_builtin_obj
    015755  aa  137 142 165 151
    015756  aa  154 164 151 156
    015757  aa  137 157 142 152
    015760  55   004217 004201
    015761  2a   000016 400001
    015762  55   004213 000003
    015763  aa  015 142 141 144         bad_attr_name
    015764  aa  137 141 164 164
    015765  aa  162 137 156 141
    015766  aa  155 145 000 000
    015767  55   004225 004210
    015770  2a   000015 400001
    015771  55   004222 000003
    015772  aa  010 142 141 144         bad_attr
    015773  aa  137 141 164 164
    015774  aa  162 000 000 000
    015775  55   004234 004217
    015776  2a   000014 400001
    015777  55   004230 000003
    016000  aa  017 142 141 144         bad_arith_const
    016001  aa  137 141 162 151
    016002  aa  164 150 137 143
    016003  aa  157 156 163 164
    016004  55   004243 004225
    016005  2a   000013 400001
    016006  55   004237 000003
    016007  aa  017 142 141 144         bad_access_mode
    016010  aa  137 141 143 143
    016011  aa  145 163 163 137
    016012  aa  155 157 144 145
    016013  55   004251 004234
    016014  2a   000012 400001
    016015  55   004246 000003
    016016  aa  012 141 164 164         attr_error
    016017  aa  162 137 145 162
    016020  aa  162 157 162 000
    016021  55   004261 004243
    016022  2a   000011 400001
    016023  55   004254 000003
    016024  aa  023 141 164 164         attr_already_exists
    016025  aa  162 137 141 154
    016026  aa  162 145 141 144
    016027  aa  171 137 145 170
    016030  aa  151 163 164 163
    016031  55   004273 004251
    016032  2a   000010 400001
    016033  55   004264 000003
    016034  aa  031 141 163 171         async_include_file_change
    016035  aa  156 143 137 151
    016036  aa  156 143 154 165
    016037  aa  144 145 137 146
    016040  aa  151 154 145 137
    016041  aa  143 150 141 156
    016042  aa  147 145 000 000
    016043  55   000002 004261
    016044  6a   000000 400002
    016045  55   004276 000003
    016046  aa  014 163 171 155         symbol_table
    016047  aa  142 157 154 137
    016050  aa  164 141 142 154
    016051  aa  145 000 000 000

DEFINITIONS HASH TABLE

    016052  aa   000000 000767
    016053  aa   000000 000000
    016054  aa   000000 000000
    016055  5a   000231 000000
    016056  5a   000566 000000
    016057  aa   000000 000000
    016060  aa   000000 000000
    016061  aa   000000 000000
    016062  aa   000000 000000
    016063  5a   003372 000000
    016064  5a   001513 000000
    016065  aa   000000 000000
    016066  aa   000000 000000
    016067  aa   000000 000000
    016070  aa   000000 000000
    016071  aa   000000 000000
    016072  aa   000000 000000
    016073  5a   004001 000000
    016074  5a   002077 000000
    016075  5a   002237 000000
    016076  5a   001237 000000
    016077  5a   001300 000000
    016100  aa   000000 000000
    016101  aa   000000 000000
    016102  aa   000000 000000
    016103  5a   003200 000000
    016104  5a   000517 000000
    016105  5a   000262 000000
    016106  5a   000311 000000
    016107  5a   000317 000000
    016110  5a   002723 000000
    016111  5a   001576 000000
    016112  5a   003121 000000
    016113  5a   003241 000000
    016114  5a   003601 000000
    016115  aa   000000 000000
    016116  aa   000000 000000
    016117  aa   000000 000000
    016120  aa   000000 000000
    016121  5a   001744 000000
    016122  5a   000374 000000
    016123  5a   002227 000000
    016124  5a   001015 000000
    016125  5a   001052 000000
    016126  5a   001363 000000
    016127  5a   001633 000000
    016130  5a   002255 000000
    016131  5a   000574 000000
    016132  5a   002622 000000
    016133  5a   002462 000000
    016134  5a   002630 000000
    016135  5a   002741 000000
    016136  5a   002104 000000
    016137  5a   003734 000000
    016140  aa   000000 000000
    016141  5a   004063 000000
    016142  5a   004100 000000
    016143  aa   000000 000000
    016144  aa   000000 000000
    016145  aa   000000 000000
    016146  5a   003326 000000
    016147  5a   001734 000000
    016150  5a   002544 000000
    016151  5a   002654 000000
    016152  5a   003355 000000
    016153  5a   004007 000000
    016154  5a   002435 000000
    016155  5a   000133 000000
    016156  5a   003752 000000
    016157  5a   004017 000000
    016160  5a   003436 000000
    016161  aa   000000 000000
    016162  aa   000000 000000
    016163  aa   000000 000000
    016164  aa   000000 000000
    016165  aa   000000 000000
    016166  aa   000000 000000
    016167  5a   000525 000000
    016170  5a   002373 000000
    016171  5a   003046 000000
    016172  5a   004261 000000
    016173  5a   003563 000000
    016174  5a   003206 000000
    016175  5a   003305 000000
    016176  aa   000000 000000
    016177  aa   000000 000000
    016200  aa   000000 000000
    016201  aa   000000 000000
    016202  aa   000000 000000
    016203  aa   000000 000000
    016204  aa   000000 000000
    016205  5a   001767 000000
    016206  5a   002130 000000
    016207  5a   000675 000000
    016210  5a   001260 000000
    016211  5a   001444 000000
    016212  5a   001454 000000
    016213  5a   002614 000000
    016214  5a   000634 000000
    016215  5a   003416 000000
    016216  5a   000252 000000
    016217  5a   002337 000000
    016220  5a   003657 000000
    016221  5a   003720 000000
    016222  5a   003216 000000
    016223  aa   000000 000000
    016224  aa   000000 000000
    016225  aa   000000 000000
    016226  aa   000000 000000
    016227  aa   000000 000000
    016230  aa   000000 000000
    016231  aa   000000 000000
    016232  aa   000000 000000
    016233  aa   000000 000000
    016234  aa   000000 000000
    016235  5a   000160 000000
    016236  aa   000000 000000
    016237  5a   000501 000000
    016240  5a   001610 000000
    016241  5a   003446 000000
    016242  5a   003475 000000
    016243  5a   001550 000000
    016244  5a   001557 000000
    016245  5a   002636 000000
    016246  aa   000000 000000
    016247  aa   000000 000000
    016250  aa   000000 000000
    016251  5a   000616 000000
    016252  5a   000625 000000
    016253  5a   000115 000000
    016254  5a   002402 000000
    016255  5a   002411 000000
    016256  5a   002420 000000
    016257  5a   003572 000000
    016260  5a   003611 000000
    016261  aa   000000 000000
    016262  aa   000000 000000
    016263  5a   003531 000000
    016264  aa   000000 000000
    016265  5a   001651 000000
    016266  aa   000000 000000
    016267  5a   000453 000000
    016270  5a   000550 000000
    016271  5a   002113 000000
    016272  5a   000665 000000
    016273  5a   000714 000000
    016274  5a   000754 000000
    016275  5a   001123 000000
    016276  5a   001342 000000
    016277  5a   002164 000000
    016300  5a   002173 000000
    016301  5a   000302 000000
    016302  5a   002322 000000
    016303  5a   002346 000000
    016304  5a   002763 000000
    016305  5a   002773 000000
    016306  5a   003111 000000
    016307  5a   003454 000000
    016310  5a   003772 000000
    016311  5a   004217 000000
    016312  5a   004273 000000
    016313  aa   000000 000000
    016314  aa   000000 000000
    016315  aa   000000 000000
    016316  aa   000000 000000
    016317  aa   000000 000000
    016320  5a   001246 000000
    016321  aa   000000 000000
    016322  5a   000413 000000
    016323  aa   000000 000000
    016324  aa   000000 000000
    016325  aa   000000 000000
    016326  aa   000000 000000
    016327  aa   000000 000000
    016330  aa   000000 000000
    016331  aa   000000 000000
    016332  aa   000000 000000
    016333  5a   003670 000000
    016334  5a   000607 000000
    016335  5a   002357 000000
    016336  5a   002365 000000
    016337  aa   000000 000000
    016340  aa   000000 000000
    016341  aa   000000 000000
    016342  5a   003400 000000
    016343  aa   000000 000000
    016344  5a   002510 000000
    016345  5a   002576 000000
    016346  aa   000000 000000
    016347  5a   003522 000000
    016350  5a   003676 000000
    016351  aa   000000 000000
    016352  5a   003540 000000
    016353  5a   000541 000000
    016354  5a   002031 000000
    016355  5a   000705 000000
    016356  5a   001114 000000
    016357  5a   000124 000000
    016360  5a   001143 000000
    016361  5a   002053 000000
    016362  5a   000333 000000
    016363  5a   002265 000000
    016364  5a   002300 000000
    016365  5a   002331 000000
    016366  5a   003012 000000
    016367  5a   003021 000000
    016370  5a   000011 000000
    016371  5a   003030 000000
    016372  5a   003054 000000
    016373  5a   001677 000000
    016374  5a   003141 000000
    016375  5a   003162 000000
    016376  5a   003171 000000
    016377  5a   003555 000000
    016400  5a   000422 000000
    016401  5a   000432 000000
    016402  5a   000106 000000
    016403  5a   000462 000000
    016404  5a   000774 000000
    016405  5a   001026 000000
    016406  5a   000143 000000
    016407  5a   001040 000000
    016410  5a   001622 000000
    016411  5a   001542 000000
    016412  5a   001717 000000
    016413  5a   003071 000000
    016414  5a   004107 000000
    016415  5a   004157 000000
    016416  5a   004243 000000
    016417  5a   000646 000000
    016420  5a   004044 000000
    016421  5a   000170 000000
    016422  5a   004164 000000
    016423  5a   004201 000000
    016424  5a   003620 000000
    016425  5a   003407 000000
    016426  5a   004225 000000
    016427  5a   000654 000000
    016430  5a   000066 000000
    016431  5a   000057 000000
    016432  5a   002502 000000
    016433  5a   002517 000000
    016434  5a   002552 000000
    016435  5a   004234 000000
    016436  5a   000533 000000
    016437  5a   002023 000000
    016440  5a   000724 000000
    016441  5a   001374 000000
    016442  5a   004251 000000
    016443  aa   000000 000000
    016444  aa   000000 000000
    016445  aa   000000 000000
    016446  aa   000000 000000
    016447  5a   000325 000000
    016450  5a   003102 000000
    016451  aa   000000 000000
    016452  aa   000000 000000
    016453  5a   003230 000000
    016454  5a   003315 000000
    016455  aa   000000 000000
    016456  aa   000000 000000
    016457  aa   000000 000000
    016460  aa   000000 000000
    016461  aa   000000 000000
    016462  5a   003743 000000
    016463  5a   001726 000000
    016464  5a   002154 000000
    016465  aa   000000 000000
    016466  5a   000152 000000
    016467  5a   000743 000000
    016470  5a   001152 000000
    016471  5a   001174 000000
    016472  5a   001352 000000
    016473  aa   000000 000000
    016474  aa   000000 000000
    016475  5a   000242 000000
    016476  5a   002663 000000
    016477  5a   002752 000000
    016500  aa   000000 000000
    016501  aa   000000 000000
    016502  aa   000000 000000
    016503  5a   000022 000000
    016504  5a   000031 000000
    016505  5a   004210 000000
    016506  aa   000000 000000
    016507  5a   003626 000000
    016510  5a   003633 000000
    016511  aa   000000 000000
    016512  aa   000000 000000
    016513  5a   001661 000000
    016514  aa   000000 000000
    016515  5a   003514 000000
    016516  aa   000000 000000
    016517  aa   000000 000000
    016520  aa   000000 000000
    016521  5a   002273 000000
    016522  aa   000000 000000
    016523  aa   000000 000000
    016524  aa   000000 000000
    016525  aa   000000 000000
    016526  aa   000000 000000
    016527  aa   000000 000000
    016530  aa   000000 000000
    016531  aa   000000 000000
    016532  aa   000000 000000
    016533  5a   003063 000000
    016534  aa   000000 000000
    016535  aa   000000 000000
    016536  5a   003345 000000
    016537  aa   000000 000000
    016540  aa   000000 000000
    016541  5a   000050 000000
    016542  5a   001667 000000
    016543  aa   000000 000000
    016544  aa   000000 000000
    016545  aa   000000 000000
    016546  aa   000000 000000
    016547  5a   001776 000000
    016550  5a   002014 000000
    016551  5a   001103 000000
    016552  5a   001163 000000
    016553  5a   001215 000000
    016554  5a   001226 000000
    016555  5a   001307 000000
    016556  5a   001331 000000
    016557  5a   001433 000000
    016560  5a   001760 000000
    016561  5a   002211 000000
    016562  5a   002674 000000
    016563  5a   003430 000000
    016564  aa   000000 000000
    016565  aa   000000 000000
    016566  5a   001751 000000
    016567  5a   000210 000000
    016570  5a   004122 000000
    016571  aa   000000 000000
    016572  aa   000000 000000
    016573  aa   000000 000000
    016574  aa   000000 000000
    016575  aa   000000 000000
    016576  aa   000000 000000
    016577  aa   000000 000000
    016600  aa   000000 000000
    016601  aa   000000 000000
    016602  aa   000000 000000
    016603  aa   000000 000000
    016604  aa   000000 000000
    016605  5a   001532 000000
    016606  aa   000000 000000
    016607  aa   000000 000000
    016610  aa   000000 000000
    016611  aa   000000 000000
    016612  aa   000000 000000
    016613  aa   000000 000000
    016614  5a   004140 000000
    016615  5a   001523 000000
    016616  aa   000000 000000
    016617  aa   000000 000000
    016620  aa   000000 000000
    016621  5a   003263 000000
    016622  aa   000000 000000
    016623  5a   002525 000000
    016624  aa   000000 000000
    016625  aa   000000 000000
    016626  aa   000000 000000
    016627  aa   000000 000000
    016630  aa   000000 000000
    016631  5a   000472 000000
    016632  5a   002005 000000
    016633  5a   002145 000000
    016634  5a   000733 000000
    016635  5a   000404 000000
    016636  5a   001133 000000
    016637  5a   001205 000000
    016640  5a   000342 000000
    016641  5a   001403 000000
    016642  5a   001413 000000
    016643  5a   001464 000000
    016644  5a   002202 000000
    016645  5a   002220 000000
    016646  5a   002713 000000
    016647  5a   002731 000000
    016650  aa   000000 000000
    016651  5a   004072 000000
    016652  5a   000201 000000
    016653  5a   004114 000000
    016654  5a   004151 000000
    016655  5a   004173 000000
    016656  aa   000000 000000
    016657  aa   000000 000000
    016660  aa   000000 000000
    016661  aa   000000 000000
    016662  aa   000000 000000
    016663  aa   000000 000000
    016664  aa   000000 000000
    016665  aa   000000 000000
    016666  5a   000362 000000
    016667  5a   003725 000000
    016670  5a   002645 000000
    016671  5a   000270 000000
    016672  5a   003127 000000
    016673  aa   000000 000000
    016674  aa   000000 000000
    016675  aa   000000 000000
    016676  aa   000000 000000
    016677  aa   000000 000000
    016700  aa   000000 000000
    016701  aa   000000 000000
    016702  aa   000000 000000
    016703  5a   003640 000000
    016704  5a   003363 000000
    016705  aa   000000 000000
    016706  5a   002560 000000
    016707  5a   002567 000000
    016710  5a   002605 000000
    016711  aa   000000 000000
    016712  aa   000000 000000
    016713  aa   000000 000000
    016714  5a   003546 000000
    016715  5a   002037 000000
    016716  5a   002061 000000
    016717  5a   000764 000000
    016720  5a   001063 000000
    016721  5a   001073 000000
    016722  5a   001270 000000
    016723  5a   001423 000000
    016724  5a   002122 000000
    016725  5a   002137 000000
    016726  5a   002306 000000
    016727  5a   002314 000000
    016730  5a   003003 000000
    016731  5a   003037 000000
    016732  5a   003273 000000
    016733  5a   003706 000000
    016734  5a   004027 000000
    016735  aa   000000 000000
    016736  aa   000000 000000
    016737  aa   000000 000000
    016740  aa   000000 000000
    016741  aa   000000 000000
    016742  5a   000442 000000
    016743  5a   002244 000000
    016744  5a   000077 000000
    016745  5a   003464 000000
    016746  aa   000000 000000
    016747  aa   000000 000000
    016750  aa   000000 000000
    016751  aa   000000 000000
    016752  aa   000000 000000
    016753  aa   000000 000000
    016754  aa   000000 000000
    016755  5a   003150 000000
    016756  aa   000000 000000
    016757  aa   000000 000000
    016760  aa   000000 000000
    016761  aa   000000 000000
    016762  5a   000040 000000
    016763  5a   000220 000000
    016764  5a   001710 000000
    016765  5a   002427 000000
    016766  5a   004034 000000
    016767  5a   004053 000000
    016770  5a   004130 000000
    016771  5a   002473 000000
    016772  5a   002535 000000
    016773  aa   000000 000000
    016774  aa   000000 000000
    016775  aa   000000 000000
    016776  aa   000000 000000
    016777  5a   000510 000000
    017000  5a   000557 000000
    017001  5a   001566 000000
    017002  5a   001006 000000
    017003  5a   002045 000000
    017004  5a   001643 000000
    017005  aa   000000 000000
    017006  aa   000000 000000
    017007  aa   000000 000000
    017010  aa   000000 000000
    017011  5a   002453 000000
    017012  5a   002704 000000
    017013  aa   000000 000000
    017014  5a   003647 000000
    017015  5a   003252 000000
    017016  5a   002444 000000
    017017  5a   003334 000000
    017020  aa   000000 000000
    017021  aa   000000 000000
    017022  5a   003503 000000
    017023  aa   000000 000000
    017024  aa   000000 000000
    017025  5a   001505 000000
    017026  5a   002067 000000
    017027  aa   000000 000000
    017030  5a   001320 000000
    017031  5a   001474 000000
    017032  aa   000000 000000
    017033  5a   003763 000000
    017034  5a   000351 000000
    017035  aa   000000 000000
    017036  aa   000000 000000
    017037  aa   000000 000000
    017040  aa   000000 000000
    017041  aa   000000 000000

NO EXTERNAL NAMES

NO TRAP POINTER WORDS

TYPE PAIR BLOCKS

    017042  aa   000001 000000
    017043  aa   000000 000000

INTERNAL EXPRESSION WORDS

    017044  50   005272 000000
    017045  aa   000000 000000
LINKAGE INFORMATION

    000000  aa   000000 000000
    000001  02   011550 000460
    000002  aa   000000 000000
    000003  aa   000000 000000
    000004  aa   000000 000000
    000005  aa   000000 000000
    000006  22   000456 000463
    000007  a2   000000 000446
    000456  9a   777322 0000 46         *text|
    000457  5a   005274 0000 00

FIRST REFERENCE TRAP LIST

    000460  aa   000000 000001
    000461  aa   000000 000001
    000462  2a   000456 000000
    000463  aa   000000 000000
SYMBOL INFORMATION

SYMBOL TABLE HEADER

    000000  aa   000000 000001
    000001  aa   163171 155142
    000002  aa   164162 145145
    000003  aa   000000 000007
    000004  aa   000000 115705
    000005  aa   073761 335527
    000006  aa   000000 116434
    000007  aa   277017 754746
    000010  aa   141154 155040
    000011  aa   040040 040040
    000012  aa   000024 000040
    000013  aa   000034 000040
    000014  aa   000044 000100
    000015  aa   000002 000002
    000016  aa   000064 000000
    000017  aa   000000 001431
    000020  aa   000000 000137
    000021  aa   000653 000566
    000022  aa   001421 000137
    000023  aa   000064 000000
    000024  aa   101114 115040
    000025  aa   126145 162163
    000026  aa   151157 156040
    000027  aa   067056 064040
    000030  aa   101160 162151
    000031  aa   154040 061071
    000032  aa   070067 040040
    000033  aa   040040 040040
    000034  aa   110151 162156
    000035  aa   145151 163145
    000036  aa   156056 123171
    000037  aa   163115 141151
    000040  aa   156164 056141
    000041  aa   040040 040040
    000042  aa   040040 040040
    000043  aa   040040 040040
    000044  aa   055164 141162
    000045  aa   147145 164040
    000046  aa   154066 070040
    000047  aa   040040 040040
    000050  aa   040040 040040
    000051  aa   040040 040040
    000052  aa   040040 040040
    000053  aa   040040 040040
    000054  aa   040040 040040
    000055  aa   040040 040040
    000056  aa   040154 151163
    000057  aa   164040 163171
    000060  aa   155142 157154
    000061  aa   163040 040040
    000062  aa   040040 040040
    000063  aa   040040 040040
    000064  aa   000000 000001
    000065  aa   000000 000003
    000066  aa   000102 000060
    000067  aa   164337 334745
    000070  aa   000000 116434
    000071  aa   264527 000000
    000072  aa   000116 000037
    000073  aa   120665 316464
    000074  aa   000000 112067
    000075  aa   253504 600000
    000076  aa   000126 000042
    000077  aa   147777 464111
    000100  aa   000000 115000
    000101  aa   507463 000000
    000102  aa   076163 160145          >special_ldd>install>MR12.2-1073>mrds_error_.alm
    000103  aa   143151 141154
    000104  aa   137154 144144
    000105  aa   076151 156163
    000106  aa   164141 154154
    000107  aa   076115 122061
    000110  aa   062056 062055
    000111  aa   061060 067063
    000112  aa   076155 162144
    000113  aa   163137 145162
    000114  aa   162157 162137
    000115  aa   056141 154155
    000116  aa   076154 144144          >ldd>include>et_macros.incl.alm
    000117  aa   076151 156143
    000120  aa   154165 144145
    000121  aa   076145 164137
    000122  aa   155141 143162
    000123  aa   157163 056151
    000124  aa   156143 154056
    000125  aa   141154 155040
    000126  aa   076154 144144          >ldd>include>stack_header.incl.alm
    000127  aa   076151 156143
    000130  aa   154165 144145
    000131  aa   076163 164141
    000132  aa   143153 137150
    000133  aa   145141 144145
    000134  aa   162056 151156
    000135  aa   143154 056141
    000136  aa   154155 040040
               MULTICS ASSEMBLY CROSS REFERENCE LISTING

   Value        Symbol                   Source file   Line number

                *text                    mrds_error_:  101.
          14    .._00000                 mrds_error_:  103.
          26    .._00001                 mrds_error_:  105.
          45    .._00002                 mrds_error_:  107.
          70    .._00003                 mrds_error_:  109.
         112    .._00004                 mrds_error_:  111.
         133    .._00005                 mrds_error_:  113.
         160    .._00006                 mrds_error_:  115.
         202    .._00007                 mrds_error_:  117.
         221    .._00010                 mrds_error_:  119.
         236    .._00011                 mrds_error_:  121.
         254    .._00012                 mrds_error_:  123.
         272    .._00013                 mrds_error_:  125.
         307    .._00014                 mrds_error_:  127.
         322    .._00015                 mrds_error_:  129.
         342    .._00016                 mrds_error_:  131.
         355    .._00017                 mrds_error_:  133.
         401    .._00020                 mrds_error_:  135.
         426    .._00021                 mrds_error_:  137.
         444    .._00022                 mrds_error_:  139.
         464    .._00023                 mrds_error_:  141.
         505    .._00024                 mrds_error_:  143.
         527    .._00025                 mrds_error_:  145.
         543    .._00026                 mrds_error_:  147.
         566    .._00027                 mrds_error_:  149.
         613    .._00030                 mrds_error_:  151.
         640    .._00031                 mrds_error_:  153.
         664    .._00032                 mrds_error_:  155.
         710    .._00033                 mrds_error_:  157.
         730    .._00034                 mrds_error_:  159.
         754    .._00035                 mrds_error_:  161.
        1002    .._00036                 mrds_error_:  163.
        1022    .._00037                 mrds_error_:  165.
        1053    .._00040                 mrds_error_:  167.
        1077    .._00041                 mrds_error_:  169.
        1117    .._00042                 mrds_error_:  171.
        1146    .._00043                 mrds_error_:  173.
        1173    .._00044                 mrds_error_:  175.
        1222    .._00045                 mrds_error_:  177.
        1241    .._00046                 mrds_error_:  179.
        1254    .._00047                 mrds_error_:  181.
        1303    .._00050                 mrds_error_:  183.
        1322    .._00051                 mrds_error_:  185.
        1342    .._00052                 mrds_error_:  187.
        1371    .._00053                 mrds_error_:  189.
        1406    .._00054                 mrds_error_:  191.
        1425    .._00055                 mrds_error_:  193.
        1446    .._00056                 mrds_error_:  195.
        1477    .._00057                 mrds_error_:  197.
        1514    .._00060                 mrds_error_:  199.
        1541    .._00061                 mrds_error_:  201.
        1557    .._00062                 mrds_error_:  203.
        1602    .._00063                 mrds_error_:  205.
        1621    .._00064                 mrds_error_:  207.
        1634    .._00065                 mrds_error_:  209.
        1663    .._00066                 mrds_error_:  211.
        1702    .._00067                 mrds_error_:  213.
        1724    .._00070                 mrds_error_:  215.
        1754    .._00071                 mrds_error_:  217.
        1772    .._00072                 mrds_error_:  219.
        2022    .._00073                 mrds_error_:  221.
        2034    .._00074                 mrds_error_:  223.
        2061    .._00075                 mrds_error_:  225.
        2073    .._00076                 mrds_error_:  227.
        2121    .._00077                 mrds_error_:  229.
        2146    .._00100                 mrds_error_:  231.
        2201    .._00101                 mrds_error_:  233.
        2211    .._00102                 mrds_error_:  235.
        2246    .._00103                 mrds_error_:  237.
        2275    .._00104                 mrds_error_:  239.
        2334    .._00105                 mrds_error_:  241.
        2352    .._00106                 mrds_error_:  243.
        2377    .._00107                 mrds_error_:  245.
        2414    .._00110                 mrds_error_:  247.
        2424    .._00111                 mrds_error_:  249.
        2461    .._00112                 mrds_error_:  251.
        2503    .._00113                 mrds_error_:  253.
        2530    .._00114                 mrds_error_:  255.
        2554    .._00115                 mrds_error_:  257.
        2603    .._00116                 mrds_error_:  259.
        2616    .._00117                 mrds_error_:  261.
        2643    .._00120                 mrds_error_:  263.
        2666    .._00121                 mrds_error_:  265.
        2711    .._00122                 mrds_error_:  267.
        2726    .._00123                 mrds_error_:  269.
        2754    .._00124                 mrds_error_:  271.
        3001    .._00125                 mrds_error_:  273.
        3025    .._00126                 mrds_error_:  275.
        3047    .._00127                 mrds_error_:  277.
        3064    .._00130                 mrds_error_:  279.
        3101    .._00131                 mrds_error_:  281.
        3120    .._00132                 mrds_error_:  283.
        3135    .._00133                 mrds_error_:  285.
        3152    .._00134                 mrds_error_:  287.
        3177    .._00135                 mrds_error_:  289.
        3205    .._00136                 mrds_error_:  291.
        3230    .._00137                 mrds_error_:  293.
        3240    .._00140                 mrds_error_:  295.
        3253    .._00141                 mrds_error_:  297.
        3300    .._00142                 mrds_error_:  299.
        3315    .._00143                 mrds_error_:  301.
        3327    .._00144                 mrds_error_:  303.
        3346    .._00145                 mrds_error_:  305.
        3356    .._00146                 mrds_error_:  307.
        3403    .._00147                 mrds_error_:  309.
        3417    .._00150                 mrds_error_:  311.
        3437    .._00151                 mrds_error_:  313.
        3460    .._00152                 mrds_error_:  315.
        3503    .._00153                 mrds_error_:  317.
        3524    .._00154                 mrds_error_:  319.
        3546    .._00155                 mrds_error_:  321.
        3572    .._00156                 mrds_error_:  323.
        3617    .._00157                 mrds_error_:  325.
        3641    .._00160                 mrds_error_:  327.
        3673    .._00161                 mrds_error_:  329.
        3717    .._00162                 mrds_error_:  331.
        3747    .._00163                 mrds_error_:  333.
        3776    .._00164                 mrds_error_:  335.
        4023    .._00165                 mrds_error_:  337.
        4047    .._00166                 mrds_error_:  339.
        4065    .._00167                 mrds_error_:  341.
        4105    .._00170                 mrds_error_:  343.
        4117    .._00171                 mrds_error_:  345.
        4134    .._00172                 mrds_error_:  347.
        4157    .._00173                 mrds_error_:  349.
        4172    .._00174                 mrds_error_:  351.
        4210    .._00175                 mrds_error_:  353.
        4234    .._00176                 mrds_error_:  355.
        4260    .._00177                 mrds_error_:  357.
        4302    .._00200                 mrds_error_:  359.
        4331    .._00201                 mrds_error_:  361.
        4354    .._00202                 mrds_error_:  363.
        4370    .._00203                 mrds_error_:  365.
        4417    .._00204                 mrds_error_:  367.
        4445    .._00205                 mrds_error_:  369.
        4466    .._00206                 mrds_error_:  371.
        4510    .._00207                 mrds_error_:  373.
        4524    .._00210                 mrds_error_:  375.
        4544    .._00211                 mrds_error_:  377.
        4556    .._00212                 mrds_error_:  379.
        4574    .._00213                 mrds_error_:  381.
        4615    .._00214                 mrds_error_:  383.
        4633    .._00215                 mrds_error_:  385.
        4651    .._00216                 mrds_error_:  387.
        4672    .._00217                 mrds_error_:  389.
        4704    .._00220                 mrds_error_:  391.
        4725    .._00221                 mrds_error_:  393.
        4745    .._00222                 mrds_error_:  395.
        4765    .._00223                 mrds_error_:  397.
        5005    .._00224                 mrds_error_:  399.
        5025    .._00225                 mrds_error_:  401.
        5047    .._00226                 mrds_error_:  403.
        5074    .._00227                 mrds_error_:  405.
        5126    .._00230                 mrds_error_:  407.
        5147    .._00231                 mrds_error_:  409.
        5165    .._00232                 mrds_error_:  411.
        5205    .._00233                 mrds_error_:  413.
        5227    .._00234                 mrds_error_:  415.
        5245    .._00235                 mrds_error_:  417.
        5256    .._00236                 mrds_error_:  419.
        5271    .._00237                 mrds_error_:  421.
        5310    .._00240                 mrds_error_:  423.
        5325    .._00241                 mrds_error_:  425.
        5347    .._00242                 mrds_error_:  427.
        5366    .._00243                 mrds_error_:  429.
        5410    .._00244                 mrds_error_:  431.
        5424    .._00245                 mrds_error_:  433.
        5437    .._00246                 mrds_error_:  435.
        5460    .._00247                 mrds_error_:  437.
        5477    .._00250                 mrds_error_:  439.
        5520    .._00251                 mrds_error_:  441.
        5537    .._00252                 mrds_error_:  443.
        5557    .._00253                 mrds_error_:  445.
        5600    .._00254                 mrds_error_:  447.
        5623    .._00255                 mrds_error_:  449.
        5643    .._00256                 mrds_error_:  451.
        5666    .._00257                 mrds_error_:  453.
        5704    .._00260                 mrds_error_:  455.
        5734    .._00261                 mrds_error_:  457.
        5761    .._00262                 mrds_error_:  459.
        5767    .._00263                 mrds_error_:  461.
        6012    .._00264                 mrds_error_:  463.
        6031    .._00265                 mrds_error_:  465.
        6054    .._00266                 mrds_error_:  467.
        6073    .._00267                 mrds_error_:  469.
        6117    .._00270                 mrds_error_:  471.
        6136    .._00271                 mrds_error_:  473.
        6157    .._00272                 mrds_error_:  475.
        6176    .._00273                 mrds_error_:  477.
        6222    .._00274                 mrds_error_:  479.
        6243    .._00275                 mrds_error_:  481.
        6262    .._00276                 mrds_error_:  483.
        6305    .._00277                 mrds_error_:  485.
        6324    .._00300                 mrds_error_:  487.
        6337    .._00301                 mrds_error_:  489.
        6356    .._00302                 mrds_error_:  491.
        6372    .._00303                 mrds_error_:  493.
        6410    .._00304                 mrds_error_:  495.
        6425    .._00305                 mrds_error_:  497.
        6442    .._00306                 mrds_error_:  499.
        6457    .._00307                 mrds_error_:  501.
        6473    .._00310                 mrds_error_:  503.
        6506    .._00311                 mrds_error_:  505.
        6524    .._00312                 mrds_error_:  507.
        6547    .._00313                 mrds_error_:  509.
        6564    .._00314                 mrds_error_:  511.
        6602    .._00315                 mrds_error_:  513.
        6622    .._00316                 mrds_error_:  515.
        6640    .._00317                 mrds_error_:  517.
        6653    .._00320                 mrds_error_:  519.
        6674    .._00321                 mrds_error_:  521.
        6715    .._00322                 mrds_error_:  523.
        6733    .._00323                 mrds_error_:  525.
        6750    .._00324                 mrds_error_:  527.
        6765    .._00325                 mrds_error_:  529.
        7003    .._00326                 mrds_error_:  531.
        7015    .._00327                 mrds_error_:  533.
        7030    .._00330                 mrds_error_:  535.
        7047    .._00331                 mrds_error_:  537.
        7067    .._00332                 mrds_error_:  539.
        7107    .._00333                 mrds_error_:  541.
        7125    .._00334                 mrds_error_:  543.
        7145    .._00335                 mrds_error_:  545.
        7164    .._00336                 mrds_error_:  547.
        7204    .._00337                 mrds_error_:  549.
        7223    .._00340                 mrds_error_:  551.
        7251    .._00341                 mrds_error_:  553.
        7302    .._00342                 mrds_error_:  555.
        7341    .._00343                 mrds_error_:  557.
        7370    .._00344                 mrds_error_:  559.
        7413    .._00345                 mrds_error_:  561.
        7432    .._00346                 mrds_error_:  563.
        7452    .._00347                 mrds_error_:  565.
        7463    .._00350                 mrds_error_:  567.
        7501    .._00351                 mrds_error_:  569.
        7516    .._00352                 mrds_error_:  571.
        7536    .._00353                 mrds_error_:  573.
        7553    .._00354                 mrds_error_:  575.
        7577    .._00355                 mrds_error_:  577.
        7622    .._00356                 mrds_error_:  579.
        7651    .._00357                 mrds_error_:  581.
        7675    .._00360                 mrds_error_:  583.
        7714    .._00361                 mrds_error_:  585.
        7740    .._00362                 mrds_error_:  587.
        7757    .._00363                 mrds_error_:  589.
        7774    .._00364                 mrds_error_:  591.
       10013    .._00365                 mrds_error_:  593.
       10036    .._00366                 mrds_error_:  595.
       10062    .._00367                 mrds_error_:  597.
       10102    .._00370                 mrds_error_:  599.
       10127    .._00371                 mrds_error_:  601.
       10153    .._00372                 mrds_error_:  603.
       10176    .._00373                 mrds_error_:  605.
       10222    .._00374                 mrds_error_:  607.
       10240    .._00375                 mrds_error_:  609.
       10264    .._00376                 mrds_error_:  611.
       10303    .._00377                 mrds_error_:  613.
       10324    .._00400                 mrds_error_:  615.
       10347    .._00401                 mrds_error_:  617.
       10375    .._00402                 mrds_error_:  619.
       10421    .._00403                 mrds_error_:  621.
       10444    .._00404                 mrds_error_:  623.
       10465    .._00405                 mrds_error_:  625.
       10504    .._00406                 mrds_error_:  627.
       10526    .._00407                 mrds_error_:  629.
       10553    .._00410                 mrds_error_:  631.
       10576    .._00411                 mrds_error_:  633.
       10627    .._00412                 mrds_error_:  635.
       10655    .._00413                 mrds_error_:  637.
       10675    .._00414                 mrds_error_:  639.
       10717    .._00415                 mrds_error_:  641.
       10737    .._00416                 mrds_error_:  643.
       10764    .._00417                 mrds_error_:  645.
       11005    .._00420                 mrds_error_:  647.
       11025    .._00421                 mrds_error_:  649.
       11053    .._00422                 mrds_error_:  651.
       11075    .._00423                 mrds_error_:  653.
       11116    .._00424                 mrds_error_:  655.
       11135    .._00425                 mrds_error_:  657.
       11157    .._00426                 mrds_error_:  659.
       11203    .._00427                 mrds_error_:  661.
       11222    .._00430                 mrds_error_:  663.
       11242    .._00431                 mrds_error_:  665.
       11264    .._00432                 mrds_error_:  667.
       11303    .._00433                 mrds_error_:  669.
       11325    .._00434                 mrds_error_:  671.
       11345    .._00435                 mrds_error_:  673.
       11365    .._00436                 mrds_error_:  675.
       11405    .._00437                 mrds_error_:  677.
       11430    .._00440                 mrds_error_:  679.
       11456    .._00441                 mrds_error_:  681.
       11477    .._00442                 mrds_error_:  687.
       11511    .._00443                 mrds_error_:  689.
       11524    .._00444                 mrds_error_:  691.
       11535    .._00445                 mrds_error_:  693.
         456    .code_end                mrds_error_:  101.
          10    .code_start              mrds_error_:  101.
           5    .loop                    mrds_error_:  101.
       77777    .segno                   mrds_error_:  101,  103,  105,  107,  109,  111,  113,  115,  117,  119,  121,  123,
                                                       125,  127,  129,  131,  133,  135,  137,  139,  141,  143,  145,  147,
                                                       149,  151,  153,  155,  157,  159,  161,  163,  165,  167,  169,  171,
                                                       173,  175,  177,  179,  181,  183,  185,  187,  189,  191,  193,  195,
                                                       197,  199,  201,  203,  205,  207,  209,  211,  213,  215,  217,  219,
                                                       221,  223,  225,  227,  229,  231,  233,  235,  237,  239,  241,  243,
                                                       245,  247,  249,  251,  253,  255,  257,  259,  261,  263,  265,  267,
                                                       269,  271,  273,  275,  277,  279,  281,  283,  285,  287,  289,  291,
                                                       293,  295,  297,  299,  301,  303,  305,  307,  309,  311,  313,  315,
                                                       317,  319,  321,  323,  325,  327,  329,  331,  333,  335,  337,  339,
                                                       341,  343,  345,  347,  349,  351,  353,  355,  357,  359,  361,  363,
                                                       365,  367,  369,  371,  373,  375,  377,  379,  381,  383,  385,  387,
                                                       389,  391,  393,  395,  397,  399,  401,  403,  405,  407,  409,  411,
                                                       413,  415,  417,  419,  421,  423,  425,  427,  429,  431,  433,  435,
                                                       437,  439,  441,  443,  445,  447,  449,  451,  453,  455,  457,  459,
                                                       461,  463,  465,  467,  469,  471,  473,  475,  477,  479,  481,  483,
                                                       485,  487,  489,  491,  493,  495,  497,  499,  501,  503,  505,  507,
                                                       509,  511,  513,  515,  517,  519,  521,  523,  525,  527,  529,  531,
                                                       533,  535,  537,  539,  541,  543,  545,  547,  549,  551,  553,  555,
                                                       557,  559,  561,  563,  565,  567,  569,  571,  573,  575,  577,  579,
                                                       581,  583,  585,  587,  589,  591,  593,  595,  597,  599,  601,  603,
                                                       605,  607,  609,  611,  613,  615,  617,  619,  621,  623,  625,  627,
                                                       629,  631,  633,  635,  637,  639,  641,  643,  645,  647,  649,  651,
                                                       653,  655,  657,  659,  661,  663,  665,  667,  669,  671,  673,  675,
                                                       677,  679,  681,  687,  689,  691,  693.
           0    .trapproc                mrds_error_:  101.
          10    async_include_file_change      mrds_error_:  103.
          11    attr_already_exists      mrds_error_:  105.
          12    attr_error               mrds_error_:  107.
          13    bad_access_mode          mrds_error_:  109.
          14    bad_arith_const          mrds_error_:  111.
         452    bad_array_bounds         mrds_error_:  687.
          15    bad_attr                 mrds_error_:  113.
         453    bad_attribute            mrds_error_:  689.
          16    bad_attr_name            mrds_error_:  115.
          17    bad_builtin_obj          mrds_error_:  117.
          20    bad_delim                mrds_error_:  119.
          21    bad_domain_proc          mrds_error_:  121.
          22    bad_eq                   mrds_error_:  123.
          23    bad_ident                mrds_error_:  125.
          24    bad_invert_file_type     mrds_error_:  127.
          26    bad_keyword              mrds_error_:  131.
          25    bad_key_retrieve         mrds_error_:  129.
          27    bad_model                mrds_error_:  133.
          30    bad_op                   mrds_error_:  135.
          31    bad_pathname             mrds_error_:  137.
         454    bad_precision            mrds_error_:  691.
          32    bad_quant                mrds_error_:  139.
          33    bad_rel_name             mrds_error_:  141.
          34    bad_select_value         mrds_error_:  143.
          35    bad_source_path          mrds_error_:  145.
          36    bad_temp_rel_val         mrds_error_:  147.
          37    bad_var                  mrds_error_:  149.
          40    block_dom_incons         mrds_error_:  151.
          41    block_sel_incons         mrds_error_:  153.
          42    bool_leaf                mrds_error_:  155.
        1170    call_offset              stack_header:        80.
          43    cant_ref_fun             mrds_error_:  157.
          10    codes                    mrds_error_:  101,  103,  105,  107,  109,  111,  113,  115,  117,  119,  121,  123,
                                                       125,  127,  129,  131,  133,  135,  137,  139,  141,  143,  145,  147,
                                                       149,  151,  153,  155,  157,  159,  161,  163,  165,  167,  169,  171,
                                                       173,  175,  177,  179,  181,  183,  185,  187,  189,  191,  193,  195,
                                                       197,  199,  201,  203,  205,  207,  209,  211,  213,  215,  217,  219,
                                                       221,  223,  225,  227,  229,  231,  233,  235,  237,  239,  241,  243,
                                                       245,  247,  249,  251,  253,  255,  257,  259,  261,  263,  265,  267,
                                                       269,  271,  273,  275,  277,  279,  281,  283,  285,  287,  289,  291,
                                                       293,  295,  297,  299,  301,  303,  305,  307,  309,  311,  313,  315,
                                                       317,  319,  321,  323,  325,  327,  329,  331,  333,  335,  337,  339,
                                                       341,  343,  345,  347,  349,  351,  353,  355,  357,  359,  361,  363,
                                                       365,  367,  369,  371,  373,  375,  377,  379,  381,  383,  385,  387,
                                                       389,  391,  393,  395,  397,  399,  401,  403,  405,  407,  409,  411,
                                                       413,  415,  417,  419,  421,  423,  425,  427,  429,  431,  433,  435,
                                                       437,  439,  441,  443,  445,  447,  449,  451,  453,  455,  457,  459,
                                                       461,  463,  465,  467,  469,  471,  473,  475,  477,  479,  481,  483,
                                                       485,  487,  489,  491,  493,  495,  497,  499,  501,  503,  505,  507,
                                                       509,  511,  513,  515,  517,  519,  521,  523,  525,  527,  529,  531,
                                                       533,  535,  537,  539,  541,  543,  545,  547,  549,  551,  553,  555,
                                                       557,  559,  561,  563,  565,  567,  569,  571,  573,  575,  577,  579,
                                                       581,  583,  585,  587,  589,  591,  593,  595,  597,  599,  601,  603,
                                                       605,  607,  609,  611,  613,  615,  617,  619,  621,  623,  625,  627,
                                                       629,  631,  633,  635,  637,  639,  641,  643,  645,  647,  649,  651,
                                                       653,  655,  657,  659,  661,  663,  665,  667,  669,  671,  673,  675,
                                                       677,  679,  681,  687,  689,  691,  693.
          44    comp_sel_expr            mrds_error_:  159.
          45    conversion_condition     mrds_error_:  161.
          46    ctl_ent_is_dir           mrds_error_:  163.
          47    curr_not_alld            mrds_error_:  165.
          50    db_already_open          mrds_error_:  167.
          51    db_busy                  mrds_error_:  169.
          52    db_conflict_dead_process       mrds_error_:  171.
          53    diff_comp_domain         mrds_error_:  173.
          55    domain_already_defined   mrds_error_:  177.
          54    dom_integ                mrds_error_:  175.
          61    duplicate_key            mrds_error_:  185.
          63    duplicate_opt            mrds_error_:  189.
          64    duplicate_scope          mrds_error_:  191.
          56    dup_invert_dir_name      mrds_error_:  179.
          61    dup_key                  mrds_error_:  185.
          57    dup_not_alld             mrds_error_:  181.
          60    dup_rel                  mrds_error_:  183.
          61    dup_store                mrds_error_:  185.
          62    dup_temp_rel_attr        mrds_error_:  187.
          65    empty_range              mrds_error_:  193.
          66    empty_select             mrds_error_:  195.
          67    empty_where              mrds_error_:  197.
        1174    entry_offset             stack_header:        84.
          70    error_condition          mrds_error_:  199.
          73    expression_not_complete  mrds_error_:  205.
          71    expr_stack_ovfl          mrds_error_:  201.
          72    expr_syntax              mrds_error_:  203.
          74    ext_data                 mrds_error_:  207.
          75    fixedoverflow_condition  mrds_error_:  209.
          76    free_not_quiesced        mrds_error_:  211.
          77    fun_syntax               mrds_error_:  213.
         100    hold_quiesced_db         mrds_error_:  215.
         102    illegal_procedure_condition    mrds_error_:  219.
         101    ill_term                 mrds_error_:  217.
         111    incomplete_declaration   mrds_error_:  233.
         107    incomp_se                mrds_error_:  229.
         110    incomp_se_and_scope      mrds_error_:  231.
         455    inconsistent_attributes  mrds_error_:  693.
         113    inconsistent_close       mrds_error_:  237.
         112    inconsistent_database    mrds_error_:  235.
         114    inconsistent_data_length       mrds_error_:  239.
         115    inconsistent_info        mrds_error_:  241.
         116    inconsistent_num_files   mrds_error_:  243.
         117    inconsistent_options     mrds_error_:  245.
         120    inconsistent_submodel    mrds_error_:  247.
         121    inconsistent_transaction_se    mrds_error_:  249.
         112    incons_db                mrds_error_:  235.
         122    incorrect_dsmd_seq       mrds_error_:  251.
         103    inc_attr_acc             mrds_error_:  221.
         104    inc_ready_mode           mrds_error_:  223.
         105    inc_rel_acc              mrds_error_:  225.
         106    inc_secure_open          mrds_error_:  227.
         123    insuff_args              mrds_error_:  253.
         124    internal_error           mrds_error_:  255.
         144    invalid_db_index         mrds_error_:  287.
         145    invalid_dec_data         mrds_error_:  289.
         146    invalid_dm_descriptor    mrds_error_:  291.
         147    invalid_opening_mode     mrds_error_:  293.
         150    invalid_precision        mrds_error_:  295.
         151    invalid_rel              mrds_error_:  297.
         152    invalid_rel_index        mrds_error_:  299.
         153    invalid_scale            mrds_error_:  301.
         154    invalid_select_sets      mrds_error_:  303.
         155    invalid_string_length    mrds_error_:  305.
         137    inval_comp_expr          mrds_error_:  277.
         140    inval_del_expr           mrds_error_:  279.
         141    inval_dtr_expr           mrds_error_:  281.
         142    inval_mod_expr           mrds_error_:  283.
         143    inval_rtrv_expr          mrds_error_:  285.
         125    inv_attr_name_first_char       mrds_error_:  257.
         126    inv_comparison           mrds_error_:  259.
         127    inv_domain_name_first_char     mrds_error_:  261.
         130    inv_keyword              mrds_error_:  263.
         131    inv_literal_type         mrds_error_:  265.
         132    inv_operator             mrds_error_:  267.
         133    inv_rel_name_first_char  mrds_error_:  269.
         134    inv_string               mrds_error_:  271.
         135    inv_string_len           mrds_error_:  273.
         136    inv_token                mrds_error_:  275.
         156    key_encd_ovfl            mrds_error_:  307.
         157    list_duplicate           mrds_error_:  309.
         160    lit_string_ovfl          mrds_error_:  311.
         161    long_ident               mrds_error_:  313.
         162    long_index               mrds_error_:  315.
         163    long_key                 mrds_error_:  317.
         164    max_and_groups           mrds_error_:  319.
         165    max_and_terms            mrds_error_:  321.
         166    max_attributes           mrds_error_:  323.
         167    max_expr_items           mrds_error_:  325.
         170    max_indexes              mrds_error_:  327.
         171    max_rels                 mrds_error_:  329.
         172    max_retr_len             mrds_error_:  331.
         173    max_select_items         mrds_error_:  333.
         174    max_sf_args              mrds_error_:  335.
         175    max_temp_rels            mrds_error_:  337.
         176    max_tup_var              mrds_error_:  339.
         177    max_vars_rel             mrds_error_:  341.
           0    messages                 mrds_error_:  101,  103,  105,  107,  109,  111,  113,  115,  117,  119,  121,  123,
                                                       125,  127,  129,  131,  133,  135,  137,  139,  141,  143,  145,  147,
                                                       149,  151,  153,  155,  157,  159,  161,  163,  165,  167,  169,  171,
                                                       173,  175,  177,  179,  181,  183,  185,  187,  189,  191,  193,  195,
                                                       197,  199,  201,  203,  205,  207,  209,  211,  213,  215,  217,  219,
                                                       221,  223,  225,  227,  229,  231,  233,  235,  237,  239,  241,  243,
                                                       245,  247,  249,  251,  253,  255,  257,  259,  261,  263,  265,  267,
                                                       269,  271,  273,  275,  277,  279,  281,  283,  285,  287,  289,  291,
                                                       293,  295,  297,  299,  301,  303,  305,  307,  309,  311,  313,  315,
                                                       317,  319,  321,  323,  325,  327,  329,  331,  333,  335,  337,  339,
                                                       341,  343,  345,  347,  349,  351,  353,  355,  357,  359,  361,  363,
                                                       365,  367,  369,  371,  373,  375,  377,  379,  381,  383,  385,  387,
                                                       389,  391,  393,  395,  397,  399,  401,  403,  405,  407,  409,  411,
                                                       413,  415,  417,  419,  421,  423,  425,  427,  429,  431,  433,  435,
                                                       437,  439,  441,  443,  445,  447,  449,  451,  453,  455,  457,  459,
                                                       461,  463,  465,  467,  469,  471,  473,  475,  477,  479,  481,  483,
                                                       485,  487,  489,  491,  493,  495,  497,  499,  501,  503,  505,  507,
                                                       509,  511,  513,  515,  517,  519,  521,  523,  525,  527,  529,  531,
                                                       533,  535,  537,  539,  541,  543,  545,  547,  549,  551,  553,  555,
                                                       557,  559,  561,  563,  565,  567,  569,  571,  573,  575,  577,  579,
                                                       581,  583,  585,  587,  589,  591,  593,  595,  597,  599,  601,  603,
                                                       605,  607,  609,  611,  613,  615,  617,  619,  621,  623,  625,  627,
                                                       629,  631,  633,  635,  637,  639,  641,  643,  645,  647,  649,  651,
                                                       653,  655,  657,  659,  661,  663,  665,  667,  669,  671,  673,  675,
                                                       677,  679,  681,  687,  689,  691,  693.
         200    missing_relation_name    mrds_error_:  343.
         201    missing_select           mrds_error_:  345.
         202    mixed_versions           mrds_error_:  347.
         203    mod_key_attr             mrds_error_:  349.
         213    multiple_tuples_found    mrds_error_:  365.
         204    mult_asts                mrds_error_:  351.
         205    mult_att_def             mrds_error_:  353.
         206    mult_att_ref             mrds_error_:  355.
         207    mult_def_var             mrds_error_:  357.
         210    mult_expr_vars           mrds_error_:  359.
         211    mult_index               mrds_error_:  361.
         212    mult_paren               mrds_error_:  363.
         214    my_quiesced_db           mrds_error_:  367.
         257    node_stack_ovfl          mrds_error_:  437.
         260    non_scope_ready          mrds_error_:  439.
         261    not_dsm                  mrds_error_:  441.
         262    not_freeing_area         mrds_error_:  443.
         263    not_leaf                 mrds_error_:  445.
         215    no_attr_lp               mrds_error_:  369.
         216    no_attr_spec             mrds_error_:  371.
         217    no_ctl_path              mrds_error_:  373.
         416    no_current_tuple         mrds_error_:  627.
         220    no_database              mrds_error_:  375.
         221    no_db_path               mrds_error_:  377.
         222    no_dms                   mrds_error_:  379.
         223    no_domains               mrds_error_:  381.
         224    no_domains_exist         mrds_error_:  383.
         225    no_dups_for_set_oper     mrds_error_:  385.
         226    no_inds                  mrds_error_:  387.
         227    no_key_specified         mrds_error_:  389.
         230    no_left_paren            mrds_error_:  391.
         231    no_model_access          mrds_error_:  393.
         232    no_model_attr            mrds_error_:  395.
         233    no_model_dom             mrds_error_:  397.
         234    no_model_rel             mrds_error_:  399.
         235    no_model_submodel        mrds_error_:  401.
         236    no_prev_store            mrds_error_:  403.
         240    no_primary_key           mrds_error_:  407.
         237    no_prior_se              mrds_error_:  405.
         242    no_recursion             mrds_error_:  411.
         244    no_relations_exist       mrds_error_:  415.
         243    no_rels                  mrds_error_:  413.
         241    no_rel_attr              mrds_error_:  409.
         245    no_rel_name              mrds_error_:  417.
         246    no_sel_exp               mrds_error_:  419.
         247    no_sm_rel                mrds_error_:  421.
         250    no_temp_dir              mrds_error_:  423.
         251    no_tr_keys               mrds_error_:  425.
         252    no_tuple                 mrds_error_:  427.
         253    no_tuple_effect          mrds_error_:  429.
         254    no_unref_attr            mrds_error_:  431.
         255    no_unref_domain          mrds_error_:  433.
         256    no_wakeup_user           mrds_error_:  435.
         264    one_tuple_op             mrds_error_:  447.
         266    open_name_already_known  mrds_error_:  451.
         267    open_name_not_known      mrds_error_:  453.
         270    open_order               mrds_error_:  455.
         265    op_stack_ovfl            mrds_error_:  449.
         271    overflow_condition       mrds_error_:  457.
         273    parser_logic_error       mrds_error_:  461.
         274    parser_stack_overflow    mrds_error_:  463.
         275    parser_unrecognized_state      mrds_error_:  465.
         272    parse_error              mrds_error_:  459.
         456    past_codes               mrds_error_:  101.
         276    previously_defined_index       mrds_error_:  467.
         277    process_not_found        mrds_error_:  469.
        1171    push_offset              stack_header:        81.
         302    quiesced_db              mrds_error_:  475.
         303    quiesced_dead_db         mrds_error_:  477.
         300    quiesce_pending          mrds_error_:  471.
         301    quiesce_too_few          mrds_error_:  473.
         304    range_syntax             mrds_error_:  479.
         242    recursion_error          mrds_error_:  411.
         305    rel_name_too_long        mrds_error_:  481.
         306    rel_node                 mrds_error_:  483.
        1173    return_no_pop_offset     stack_header:        83.
        1172    return_offset            stack_header:        82.
         307    rst_bad_attribute_count  mrds_error_:  485.
         310    rst_bad_bit_string       mrds_error_:  487.
         311    rst_bad_child_count      mrds_error_:  489.
         312    rst_bad_declaration      mrds_error_:  491.
         313    rst_bad_domain_count     mrds_error_:  493.
         314    rst_bad_encoding         mrds_error_:  495.
         315    rst_bad_file_count       mrds_error_:  497.
         316    rst_bad_link_count       mrds_error_:  499.
         317    rst_bad_model            mrds_error_:  501.
         320    rst_bad_number_syntax    mrds_error_:  503.
         321    rst_bad_relation_count   mrds_error_:  505.
         322    rst_bad_semantics        mrds_error_:  507.
         323    rst_childless_parent     mrds_error_:  509.
         324    rst_comment_ends_source  mrds_error_:  511.
         325    rst_conversion_error     mrds_error_:  513.
         326    rst_dup_file             mrds_error_:  515.
         327    rst_illegal_char         mrds_error_:  517.
         330    rst_inconsis_option      mrds_error_:  519.
         331    rst_invalid_structure_type     mrds_error_:  521.
         332    rst_io_error             mrds_error_:  523.
         333    rst_link_attr_differ     mrds_error_:  525.
         334    rst_list_delete_fail     mrds_error_:  527.
         335    rst_list_duplicate       mrds_error_:  529.
         124    rst_logic_error          mrds_error_:  255.
         336    rst_missing_file_model   mrds_error_:  531.
         337    rst_missing_pathname     mrds_error_:  533.
         340    rst_missing_ref_domain   mrds_error_:  535.
         341    rst_model_limit          mrds_error_:  537.
         342    rst_name_duplicate       mrds_error_:  539.
         343    rst_name_too_long        mrds_error_:  541.
         346    rst_not_rel_attr         mrds_error_:  547.
         344    rst_no_key_attr          mrds_error_:  543.
         345    rst_no_link_relation     mrds_error_:  545.
         347    rst_option_limit         mrds_error_:  549.
         350    rst_parse_err_correct    mrds_error_:  551.
         351    rst_parse_err_no_correct       mrds_error_:  553.
         352    rst_parse_err_no_recover       mrds_error_:  555.
         353    rst_parse_err_recover    mrds_error_:  557.
         354    rst_parse_fail           mrds_error_:  559.
         355    rst_pathname_ends_source       mrds_error_:  561.
         356    rst_rel_has_file         mrds_error_:  563.
         357    rst_reserved_name        mrds_error_:  565.
         360    rst_string_ends_source   mrds_error_:  567.
         361    rst_token_too_long       mrds_error_:  569.
         362    rst_undef_rel            mrds_error_:  571.
         363    rst_undone_option        mrds_error_:  573.
         364    rst_unused_attr          mrds_error_:  575.
         365    rst_unused_attr_dom      mrds_error_:  577.
         366    rst_wrong_command        mrds_error_:  579.
         367    scal_func_conversion     mrds_error_:  581.
         370    scope_empty              mrds_error_:  583.
         371    scope_mrds_access_conflict     mrds_error_:  585.
         372    scope_not_empty          mrds_error_:  587.
         373    scope_not_found          mrds_error_:  589.
         374    scope_not_set            mrds_error_:  591.
         375    scope_system_access_conflict   mrds_error_:  593.
         376    scope_viol               mrds_error_:  595.
         400    select_mismatch          mrds_error_:  599.
         401    select_syntax            mrds_error_:  601.
         402    sell_syntax              mrds_error_:  603.
         377    sel_blk_synt             mrds_error_:  597.
         403    set_ovfl                 mrds_error_:  605.
         404    set_syntax               mrds_error_:  607.
         405    size_condition           mrds_error_:  609.
          73    stach_header.trace_top_ptr     stack_header:        62.
          66    stack_header.assign_linkage_ptr      stack_header:        59.
          32    stack_header.bar_mode_sp       stack_header:        42.
          36    stack_header.call_op_ptr       stack_header:        44.
          10    stack_header.clr_ptr     stack_header:        27.
           6    stack_header.combined_stat_ptr       stack_header:        25.
           4    stack_header.cpm_data_ptr      stack_header:        24.
          13    stack_header.cpm_enabled       stack_header:        32.
          13    stack_header.cur_lot_size      stack_header:        31.
          64    stack_header.ect_ptr     stack_header:        58.
          46    stack_header.entry_op_ptr      stack_header:        49.
          70    stack_header.heap_header_ptr   stack_header:        60.
          74    stack_header.in_trace    stack_header:        63.
          52    stack_header.isot_ptr    stack_header:        52.
          26    stack_header.lot_ptr     mrds_error_:  101,
                                         stack_header:        39.
          12    stack_header.main_proc_invoked       stack_header:        29.
          12    stack_header.max_lot_size      stack_header:        28.
          20    stack_header.parent_ptr  stack_header:        36.
          34    stack_header.pl1_operators_ptr       stack_header:        43.
          40    stack_header.push_op_ptr       stack_header:        46.
          42    stack_header.return_op_ptr     stack_header:        47.
          44    stack_header.ret_no_pop_op_ptr       stack_header:        48.
          62    stack_header.rnt_ptr     stack_header:        57.
          12    stack_header.run_unit_depth    stack_header:        30.
          54    stack_header.sct_ptr     stack_header:        53.
          30    stack_header.signal_ptr  stack_header:        41.
          22    stack_header.stack_begin_ptr   stack_header:        37.
          24    stack_header.stack_end_ptr     stack_header:        38.
          14    stack_header.system_free_ptr   stack_header:        33.
          60    stack_header.sys_link_info_ptr       stack_header:        56.
          72    stack_header.trace_frames      stack_header:        61.
          50    stack_header.trans_op_tv_ptr   stack_header:        51.
          56    stack_header.unwinder_ptr      stack_header:        54.
          16    stack_header.user_free_ptr     stack_header:        34.
         100    stack_header_end         stack_header:        64.
         406    surplus_text             mrds_error_:  611.
         407    too_many_args            mrds_error_:  613.
         410    too_many_attributes      mrds_error_:  615.
         412    too_many_data_models     mrds_error_:  619.
         411    too_many_dbs             mrds_error_:  617.
         413    too_many_open_names      mrds_error_:  621.
         414    too_many_temp_files      mrds_error_:  623.
           0    trace_frames.count       stack_header:        69.
           1    trace_frames.top_ptr     stack_header:        70.
         415    trouble_lock             mrds_error_:  625.
         416    tuple_not_found          mrds_error_:  627.
         551    tv_offset                stack_header:        75,   80,   81,   82,   83,   84.
         417    unable_to_create_channel       mrds_error_:  629.
         420    unable_to_queue_user     mrds_error_:  631.
         421    unaccep_fn_args          mrds_error_:  633.
         422    unbal_parens             mrds_error_:  635.
         430    undefined_domain         mrds_error_:  647.
         426    undefined_temp_rel_index       mrds_error_:  643.
         423    undef_attr               mrds_error_:  637.
         424    undef_fun                mrds_error_:  639.
         425    undef_rel                mrds_error_:  641.
         426    undef_temp_rel           mrds_error_:  643.
         427    undef_var                mrds_error_:  645.
         431    underflow_condition      mrds_error_:  649.
         432    unimplemented_syntax     mrds_error_:  651.
         433    unknown_cursor_storage   mrds_error_:  653.
         434    unknown_file_name        mrds_error_:  655.
         435    unknown_proc_id          mrds_error_:  657.
         436    unknown_relation_name    mrds_error_:  659.
         437    unshared_opening         mrds_error_:  661.
         440    unsup_type               mrds_error_:  663.
         442    update_not_allowed       mrds_error_:  667.
         441    upd_temp_rel             mrds_error_:  665.
         443    user_not_found           mrds_error_:  669.
         444    var_stack_ovfl           mrds_error_:  671.
         446    version_1_dsm            mrds_error_:  675.
         445    version_3_db             mrds_error_:  673.
         447    version_not_supported    mrds_error_:  677.
         450    view_prevent             mrds_error_:  679.
         451    where_syntax             mrds_error_:  681.


NO FATAL ERRORS


                                          -----------------------------------------------------------


Historical Background

This edition of the Multics software materials and documentation is provided and donated
to Massachusetts Institute of Technology by Group BULL including BULL HN Information Systems Inc.
as a contribution to computer science knowledge.
This donation is made also to give evidence of the common contributions of Massachusetts Institute of Technology,
Bell Laboratories, General Electric, Honeywell Information Systems Inc., Honeywell BULL Inc., Groupe BULL
and BULL HN Information Systems Inc. to the development of this operating system.
Multics development was initiated by Massachusetts Institute of Technology Project MAC (1963-1970),
renamed the MIT Laboratory for Computer Science and Artificial Intelligence in the mid 1970s, under the leadership
of Professor Fernando Jose Corbato. Users consider that Multics provided the best software architecture
for managing computer hardware properly and for executing programs. Many subsequent operating systems
incorporated Multics principles.
Multics was distributed in 1975 to 2000 by Group Bull in Europe , and in the U.S. by Bull HN Information Systems Inc.,
as successor in interest by change in name only to Honeywell Bull Inc. and Honeywell Information Systems Inc. .

                                          -----------------------------------------------------------

Permission to use, copy, modify, and distribute these programs and their documentation for any purpose and without
fee is hereby granted,provided that the below copyright notice and historical background appear in all copies
and that both the copyright notice and historical background and this permission notice appear in supporting
documentation, and that the names of MIT, HIS, BULL or BULL HN not be used in advertising or publicity pertaining
to distribution of the programs without specific prior written permission.
    Copyright 1972 by Massachusetts Institute of Technology and Honeywell Information Systems Inc.
    Copyright 2006 by BULL HN Information Systems Inc.
    Copyright 2006 by Bull SAS
    All Rights Reserved
