ASSEMBLY LISTING OF SEGMENT >special_ldd>install>MR12.0-1206>mseg_format_errors_.alm
ASSEMBLED ON:	11/05/86  1034.3 mst Wed
OPTIONS USED:	list
ASSEMBLED BY:	ALM Version  6.7  October 1986
ASSEMBLER CREATED:	10/08/86  1557.5 mst Wed

                                     1  " ***********************************************************
                                     2  " *                                                         *
                                     3  " * Copyright, (C) Honeywell Information Systems Inc., 1985 *
                                     4  " *                                                         *
                                     5  " ***********************************************************
                                     6
                                     7  " Standard system status codes corresponding to the possible errors which the message
                                     8  "    segment primitives may detect in the format of a message segment
                                     9
                                    10  " Created:  April 1985 by G. Palter
                                    11
                                    12
    000000                          13  	name	mseg_format_errors_
                                    14
                                    15  	include	et_macros
                                   1-1  " Begin include file ...... et_macros.incl.alm
                                   1-2  "	Written 6/15/77 by Noel I. Morris
                                   1-3  "	Modified '82 so error code entries are in first page of segment.
                                   1-4
                                   1-5  " This include file contains macros for generating error tables
                                   1-6  " for both system and non-system use.
                                   1-7
                                   1-8  " ET MACRO
                                   1-9  "
                                  1-10  " This macro is used to initialize the error table for either
                                  1-11  " system or non-system use.  It is invoked at the beginning of
                                  1-12  " the error table as follows:
                                  1-13  "
                                  1-14  "	et	table_name{,system}
                                  1-15  "
                                  1-16
                                  1-17  macro	et
                              1   1-18  	maclist	on
                              2   1-19
                              3   1-20  	name	&1
                              4   1-21
                              5   1-22  &^=&2,system&[
                              6   1-23
                              7   1-24  	include	stack_header
                              8   1-25
                              9   1-26  
                             10   1-27
                             11   1-28  	use	codes
                             12   1-29  .code_start:
                             13   1-30
                             14   1-31  	use	past_codes
                             15   1-32  .code_end:
                             16   1-33
                             17   1-34  	join	/link/codes,past_codes
                             18   1-35
                             19   1-36  	use	messages
                             20   1-37
                             21   1-38  .trapproc:
                             22   1-39  	epaq	0,ic
                             23   1-40  	eax0	0,au
                             24   1-41  	epbpsb	sp|0
                             25   1-42  	lprplp	sb|stack_header.lot_ptr,*au
                             26   1-43  	eax1	.code_start
                             27   1-44  .loop:	stx0	lp|0,x1
                             28   1-45  	eax1	1,x1
                             29   1-46  	cmpx1	.code_end,du
                             30   1-47  	tmi	.loop-*,ic
                             31   1-48  	short_return
                             32   1-49
                             33   1-50  	firstref	<*text>|.trapproc
                             34   1-51
                             35   1-52  &;	use	codes
                             36   1-53  	use	messages
                             37   1-54
                             38   1-55  	join	/text/codes,messages
                             39   1-56
                             40   1-57  &]
                             41   1-58
                             42   1-59  	bool	.segno,77777
                             43   1-60
                             44   1-61  	maclist	off
                             45   1-62
                             46   1-63  	&end
                                  1-64
                                  1-65  
                                  1-66
                                  1-67  " EC MACRO
                                  1-68  "
                                  1-69  " This macro is used to define an error code as shown:
                                  1-70  "
                                  1-71  "	ec	name,{short_mess},(long_mess)
                                  1-72  "
                                  1-73  " If more than a single name is to be defined for a given message,
                                  1-74  " a list of names separated by commas and enclosed in parentheses
                                  1-75  " must be given.   short_mess must be 8 or less characters.  If omitted,
                                  1-76  " the short_mess will be set to the name.  long_mess is enclosed
                                  1-77  " in parentheses in order to cause ALM to ignore embedded blanks.  Please
                                  1-78  " note that double quote characters in either short_mess or long_mess
                                  1-79  " must be doubled in order to make the ALM assembly work properly.
                                  1-80  " Note that a macro invocation line terminated by a comma will cause that
                                  1-81  " statement to be continued on the next line.
                                  1-82
                                  1-83  macro	ec
                              1   1-84  	use	codes
                              2   1-85
                              3   1-86  	maclist	on,save
                              4   1-87  &(1	segdef  &i
                              5   1-88  &)	maclist	restore
                              6   1-89  &(1&i:
                              7   1-90  &)	maclist	object,save
                              8   1-91  	zero	.segno,&U
                              9   1-92  	maclist	restore
                             10   1-93  	use	messages
                             11   1-94  &^=&l2,0&[	shortname    &2
                             12   1-95  &;	shortname    &1
                             13   1-96  &]
                             14   1-97  &U:
                             15   1-98  	maclist	on,save
                             16   1-99  	acc  "&3"
                             17  1-100
                             18  1-101  	maclist	restore
                             19  1-102  	&end
                                 1-103
                                 1-104  macro	shortname
                              1  1-105  	maclist	on,save
                              2  1-106  	aci  "&1",8
                              3  1-107  	maclist	restore
                              4  1-108  	&end
                                 1-109
                                 1-110  
                                 1-111
                                 1-112  " A typical error table source program might have the following format:
                                 1-113  "
                                 1-114  "	include	et_macros
                                 1-115  "
                                 1-116  "	et	name_of_error_table
                                 1-117  "
                                 1-118  "	ec	error_code_1,ecode1,(This is error code 1.)
                                 1-119  "
                                 1-120  "	ec	error_code_2,ecode2,(This is error code 2.)
                                 1-121  "
                                 1-122  "	:	     :	      :		:
                                 1-123  "
                                 1-124  "	ec	error_code_n,ecoden,(This is the nth error code.)
                                 1-125  "
                                 1-126  "	end
                                 1-127  "
                                 1-128
                                 1-129  " End of include file ...... et_macros.incl.alm
                                 1-130
                                    16
                                    17  	et	mseg_format_errors_

    000000                              	name	mseg_format_errors_


                                        	include	stack_header
                                   2-1  "	BEGIN INCLUDE FILE ... stack_header.incl.alm  3/72  Bill Silver
                                   2-2  "
                                   2-3  "	modified 7/76 by M. Weaver for *system links and more system use of areas
                                   2-4  "	modified 3/77 by M. Weaver  to add rnt_ptr
                                   2-5  "	modified 7/77 by S. Webber to add run_unit_depth and assign_linkage_ptr
                                   2-6  "	modified 6/83 by J. Ives to add trace_frames and in_trace.
                                   2-7
                                   2-8  " HISTORY COMMENTS:
                                   2-9  "  1) change(86-06-24,DGHowe), approve(86-06-24,MCR7396),
                                  2-10  "     audit(86-08-05,Schroth), install(86-11-03,MR12.0-1206):
                                  2-11  "     added the heap_header_ptr definition
                                  2-12  "  2) change(86-08-12,Kissel), approve(86-08-12,MCR7473),
                                  2-13  "     audit(86-10-10,Fawcett), install(86-11-03,MR12.0-1206):
                                  2-14  "     Modified to support control point management.  These changes were
                                  2-15  "     actually made in February 1985 by G. Palter.
                                  2-16  "  3) change(86-10-22,Fawcett), approve(86-10-22,MCR7473),
                                  2-17  "     audit(86-10-22,Farley), install(86-11-03,MR12.0-1206):
                                  2-18  "     Remove the old_lot pointer and replace it with cpm_data_ptr. Use the 18
                                  2-19  "     bit pad after cur_lot_size for the cpm_enabled. This was done to save
                                  2-20  "     some space int the stack header and change the cpd_ptr unal to
                                  2-21  "     cpm_data_ptr (ITS pair).
                                  2-22  "                                                      END HISTORY COMMENTS
                                  2-23
                        000004    2-24  	equ	stack_header.cpm_data_ptr,4		ptr to control point for this stack
                        000006    2-25  	equ	stack_header.combined_stat_ptr,6	ptr to separate static area
                                  2-26
                        000010    2-27  	equ	stack_header.clr_ptr,8		ptr to area containing linkage sections
                        000012    2-28  	equ	stack_header.max_lot_size,10		number of words allowed i€éõLastuka                         €F6¾€>                                                        Lastuka                         tina    OperDevel       Ê˜O¼GEaOOªOByW;noneVIP7400                         vZwick                           €$ü’X4â                                                        Zwick                           dz      Multics         
æ˜S¶“zçLT—ST—úE>noneVIP7400_DTR                     operators table.
                                  2-73  "	It  references a  transfer vector table.
                                  2-74
                        000551    2-75  	bool	tv_offset,551
                                  2-76
                                  2-77
                                  2-78  "	The  following constants are offsets within this transfer vector table.
                                  2-79
                        001170    2-80  	equ	call_offset,tv_offset+271
                        001171    2-81  	equ	push_offset,tv_offset+272
                        001172    2-82  	equ	return_offset,tv_offset+273
                        001173    2-83  	equ	return_no_pop_offset,tv_offset+274
                        001174    2-84  	equ	entry_offset,tv_offset+275
                                  2-85
                                  2-86
                                  2-87  " 	END INCLUDE FILE stack_header.incl.alm

                                        

                                        	use	codes
    000010                              .code_start:

                                        	use	past_codes
    000033                              .code_end:

                                        	join	/link/codes,past_codes

                                        	use	messages

    000000                              .trapproc:
    000000  aa   000000 2130 04         	epaq	0,ic
    000001  aa   000000 6200 01         	eax0	0,au
    000002  aa  6 00000 3731 00         	epbpsb	sp|0
    000003  aa  7 00026 7641 61         	lprplp	sb|stack_header.lot_ptr,*au
    000004  8a   000010 6210 00         	eax1	.code_start
    000005  aa  4 00000 7401 11         .loop:	stx0	lp|0,x1
    000006  aa   000001 6210 11         	eax1	1,x1
    000007  8a   000033 1010 03         	cmpx1	.code_end,du
    000010  aa   777775 6040 04         	tmi	.loop-*,ic
    000011  aa  7 00044 7101 20         	short_return

    000012                              	firstref	<*text>|.trapproc


                        077777          	bool	.segno,77777

                                    18
                                    19
                                    20  ec   bad_descriptor_sentinel,none,
                                    21  	(Message contains a descriptor of unknown format.)
                        000010          	segdef  bad_descriptor_sentinel
    000010  a0   077777 000014
    000012  aa  156 157 156 145         	aci  "none",8
    000013  aa  040 040 040 040
    000014  aa  060 115 145 163         	acc  "Message contains a descriptor of unknown format."
    000015  aa  163 141 147 145
    000016  aa  040 143 157 156
    000017  aa  164 141 151 156
    000020  aa  163 040 141 040
    000021  aa  144 145 163 143
    000022  aa  162 151 160 164
    000023  aa  157 162 040 157
    000024  aa  146 040 165 156
    000025  aa  153 156 157 167
    000026  aa  156 040 146 157
    000027  aa  162 155 141 164
    000030  aa  056 000 000 000

                                    22
                                    23  ec   bad_mseg_sentinel,none,
                                    24  	(Message segment has an unknown format.)
                        000011          	segdef  bad_mseg_sentinel
    000011  a0   077777 000033
    000031  aa  156 157 156 145         	aci  "none",8
    000032  aa  040 040 040 040
    000033  aa  046 115 145 163         	acc  "Message segment has an unknown format."
    000034  aa  163 141 147 145
    000035  aa  040 163 145 147
    000036  aa  155 145 156 164
    000037  aa  040 150 141 163
    000040  aa  040 141 156 040
    000041  aa  165 156 153 156
    000042  aa  157 167 156 040
    000043  aa  146 157 162 155
    000044  aa  141 164 056 000

                                    25
                                    26  ec   bad_mseg_version,none,
                                    27  	(Message segment has an unsupported format.)
                        000012          	segdef  bad_mseg_version
    000012  a0   077777 000047
    000045  aa  156 157 156 145         	aci  "none",8
    000046  aa  040 040 040 040
    000047  aa  052 115 145 163         	acc  "Message segment has an unsupported format."
    000050  aa  163 141 147 145
    000051  aa  040 163 145 147
    000052  aa  155 145 156 164
    000053  aa  040 150 141 163
    000054  aa  040 141 156 040
    000055  aa  165 156 163 165
    000056  aa  160 160 157 162
    000057  aa  164 145 144 040
    000060  aa  146 157 162 155
    000061  aa  141 164 056 000

                                    28
                                    29  ec   circular_hash_chain,none,
                                    30  	(Circular hash chain found in segment.)
                        000013          	segdef  circular_hash_chain
    000013  a0   077777 000064
    000062  aa  156 157 156 145         	aci  "none",8
    000063  aa  040 040 040 040
    000064  aa  045 103 151 162         	acc  "Circular hash chain found in segment."
    000065  aa  143 165 154 141
    000066  aa  162 040 150 141
    000067  aa  163 150 040 143
    000070  aa  150 141 151 156
    000071  aa  040 146 157 165
    000072  aa  156 144 040 151
    000073  aa  156 040 163 145
    000074  aa  147 155 145 156
    000075  aa  164 056 000 000

                                    31
                                    32  ec   circular_message_blocks,none,
                                    33  	(Circular block chain found in a message.)
                        000014          	segdef  circular_message_blocks
    000014  a0   077777 000100
    000076  aa  156 157 156 145         	aci  "none",8
    000077  aa  040 040 040 040
    000100  aa  050 103 151 162         	acc  "Circular block chain found in a message."
    000101  aa  143 165 154 141
    000102  aa  162 040 142 154
    000103  aa  157 143 153 040
    000104  aa  143 150 141 151
    000105  aa  156 040 146 157
    000106  aa  165 156 144 040
    000107  aa  151 156 040 141
    000110  aa  040 155 145 163
    000111  aa  163 141 147 145
    000112  aa  056 000 000 000

                                    34
                                    35  ec   circular_message_chain,none,
                                    36  	(Circular chronological message chain found in segment.)
                        000015          	segdef  circular_message_chain
    000015  a0   077777 000115
    000113  aa  156 157 156 145         	aci  "none",8
    000114  aa  040 040 040 040
    000115  aa  066 103 151 162         	acc  "Circular chronological message chain found in segment."
    000116  aa  143 165 154 141
    000117  aa  162 040 143 150
    000120  aa  162 157 156 157
    000121  aa  154 157 147 151
    000122  aa  143 141 154 040
    000123  aa  155 145 163 163
    000124  aa  141 147 145 040
    000125  aa  143 150 141 151
    000126  aa  156 040 146 157
    000127  aa  165 156 144 040
    000130  aa  151 156 040 163
    000131  aa  145 147 155 145
    000132  aa  156 164 056 000

                                    37
                                    38  ec   descriptor_in_other_block,none,
                                    39  	(Descriptor found in the middle of a message.)
                        000016          	segdef  descriptor_in_other_block
    000016  a0   077777 000135
    000133  aa  156 157 156 145         	aci  "none",8
    000134  aa  040 040 040 040
    000135  aa  054 104 145 163         	acc  "Descriptor found in the middle of a message."
    000136  aa  143 162 151 160
    000137  aa  164 157 162 040
    000140  aa  146 157 165 156
    000141  aa  144 040 151 156
    000142  aa  040 164 150 145
    000143  aa  040 155 151 144
    000144  aa  144 154 145 040
    000145  aa  157 146 040 141
    000146  aa  040 155 145 163
    000147  aa  163 141 147 145
    000150  aa  056 000 000 000

                                    40
                                    41  ec   inconsistent_backward_chain,none,
                                    42  	(Segment reverse chronological message chain inconsistent.)
                        000017          	segdef  inconsistent_backward_chain
    000017  a0   077777 000153
    000151  aa  156 157 156 145         	aci  "none",8
    000152  aa  040 040 040 040
    000153  aa  071 123 145 147         	acc  "Segment reverse chronological message chain inconsistent."
    000154  aa  155 145 156 164
    000155  aa  040 162 145 166
    000156  aa  145 162 163 145
    000157  aa  040 143 150 162
    000160  aa  157 156 157 154
    000161  aa  157 147 151 143
    000162  aa  141 154 040 155
    000163  aa  145 163 163 141
    000164  aa  147 145 040 143
    000165  aa  150 141 151 156
    000166  aa  040 151 156 143
    000167  aa  157 156 163 151
    000170  aa  163 164 145 156
    000171  aa  164 056 000 000

                                    43
                                    44  ec   inconsistent_block_map,none,
                                    45  	(Free block count and block map do not agree.)
                        000020          	segdef  inconsistent_block_map
    000020  a0   077777 000174
    000172  aa  156 157 156 145         	aci  "none",8
    000173  aa  040 040 040 040
    000174  aa  054 106 162 145         	acc  "Free block count and block map do not agree."
    000175  aa  145 040 142 154
    000176  aa  157 143 153 040
    000177  aa  143 157 165 156
    000200  aa  164 040 141 156
    000201  aa  144 040 142 154
    000202  aa  157 143 153 040
    000203  aa  155 141 160 040
    000204  aa  144 157 040 156
    000205  aa  157 164 040 141
    000206  aa  147 162 145 145
    000207  aa  056 000 000 000

                                    46
                                    47  ec   inconsistent_forward_chain,none,
                                    48  	(Segment chronological message chain inconsistent.)
                        000021          	segdef  inconsistent_forward_chain
    000021  a0   077777 000212
    000210  aa  156 157 156 145         	aci  "none",8
    000211  aa  040 040 040 040
    000212  aa  061 123 145 147         	acc  "Segment chronological message chain inconsistent."
    000213  aa  155 145 156 164
    000214  aa  040 143 150 162
    000215  aa  157 156 157 154
    000216  aa  157 147 151 143
    000217  aa  141 154 040 155
    000220  aa  145 163 163 141
    000221  aa  147 145 040 143
    000222  aa  150 141 151 156
    000223  aa  040 151 156 143
    000224  aa  157 156 163 151
    000225  aa  163 164 145 156
    000226  aa  164 056 000 000

                                    49
                                    50  ec   inconsistent_hash_chain,none,
                                    51  	(Segment contains one or more inconsistent hash chains.)
                        000022          	segdef  inconsistent_hash_chain
    000022  a0   077777 000231
    000227  aa  156 157 156 145         	aci  "none",8
    000230  aa  040 040 040 040
    000231  aa  066 123 145 147         	acc  "Segment contains one or more inconsistent hash chains."
    000232  aa  155 145 156 164
    000233  aa  040 143 157 156
    000234  aa  164 141 151 156
    000235  aa  163 040 157 156
    000236  aa  145 040 157 162
    000237  aa  040 155 157 162
    000240  aa  145 040 151 156
    000241  aa  143 157 156 163
    000242  aa  151 163 164 145
    000243  aa  156 164 040 150
    000244  aa  141 163 150 040
    000245  aa  143 150 141 151
    000246  aa  156 163 056 000

                                    52
                                    53  ec   inconsistent_message_count,none,
                                    54  	(Message count is inconsistent with chronological message chains.)
                        000023          	segdef  inconsistent_message_count
    000023  a0   077777 000251
    000247  aa  156 157 156 145         	aci  "none",8
    000250  aa  040 040 040 040
    000251  aa  100 115 145 163         	acc  "Message count is inconsistent with chronological message chains."
    000252  aa  163 141 147 145
    000253  aa  040 143 157 165
    000254  aa  156 164 040 151
    000255  aa  163 040 151 156
    000256  aa  143 157 156 163
    000257  aa  151 163 164 145
    000260  aa  156 164 040 167
    000261  aa  151 164 150 040
    000262  aa  143 150 162 157
    000263  aa  156 157 154 157
    000264  aa  147 151 143 141
    000265  aa  154 040 155 145
    000266  aa  163 163 141 147
    000267  aa  145 040 143 150
    000270  aa  141 151 156 163
    000271  aa  056 000 000 000

                                    55
                                    56  ec   inconsistent_message_length,none,
                                    57  	(Message size in descriptor does not agree with actual data.)
                        000024          	segdef  inconsistent_message_length
    000024  a0   077777 000274
    000272  aa  156 157 156 145         	aci  "none",8
    000273  aa  040 040 040 040
    000274  aa  073 115 145 163         	acc  "Message size in descriptor does not agree with actual data."
    000275  aa  163 141 147 145
    000276  aa  040 163 151 172
    000277  aa  145 040 151 156
    000300  aa  040 144 145 163
    000301  aa  143 162 151 160
    000302  aa  164 157 162 040
    000303  aa  144 157 145 163
    000304  aa  040 156 157 164
    000305  aa  040 141 147 162
    000306  aa  145 145 040 167
    000307  aa  151 164 150 040
    000310  aa  141 143 164 165
    000311  aa  141 154 040 144
    000312  aa  141 164 141 056

                                    58
                                    59  ec   invalid_message_block_offset,none,
                                    60  	(Offset of message is outside segment bounds or not on a block boundary.)
                        000025          	segdef  invalid_message_block_offset
    000025  a0   077777 000315
    000313  aa  156 157 156 145         	aci  "none",8
    000314  aa  040 040 040 040
    000315  aa  107 117 146 146         	acc  "Offset of message is outside segment bounds or not on a block boundary."
    000316  aa  163 145 164 040
    000317  aa  157 146 040 155
    000320  aa  145 163 163 141
    000321  aa  147 145 040 151
    000322  aa  163 040 157 165
    000323  aa  164 163 151 144
    000324  aa  145 040 163 145
    000325  aa  147 155 145 156
    000326  aa  164 040 142 157
    000327  aa  165 156 144 163
    000330  aa  040 157 162 040
    000331  aa  156 157 164 040
    000332  aa  157 156 040 141
    000333  aa  040 142 154 157
    000334  aa  143 153 040 142
    000335  aa  157 165 156 144
    000336  aa  141 162 171 056

                                    61
                                    62  ec   modification_in_progress,none,
                                    63  	(Previous operation was abnormally terminated.)
                        000026          	segdef  modification_in_progress
    000026  a0   077777 000341
    000337  aa  156 157 156 145         	aci  "none",8
    000340  aa  040 040 040 040
    000341  aa  055 120 162 145         	acc  "Previous operation was abnormally terminated."
    000342  aa  166 151 157 165
    000343  aa  163 040 157 160
    000344  aa  145 162 141 164
    000345  aa  151 157 156 040
    000346  aa  167 141 163 040
    000347  aa  141 142 156 157
    000350  aa  162 155 141 154
    000351  aa  154 171 040 164
    000352  aa  145 162 155 151
    000353  aa  156 141 164 145
    000354  aa  144 056 000 000

                                    64
                                    65  ec   negative_message_count,none,
                                    66  	(Message count is negative.)
                        000027          	segdef  negative_message_count
    000027  a0   077777 000357
    000355  aa  156 157 156 145         	aci  "none",8
    000356  aa  040 040 040 040
    000357  aa  032 115 145 163         	acc  "Message count is negative."
    000360  aa  163 141 147 145
    000361  aa  040 143 157 165
    000362  aa  156 164 040 151
    000363  aa  163 040 156 145
    000364  aa  147 141 164 151
    000365  aa  166 145 056 000

                                    67
                                    68  ec   no_descriptor_in_first_block,none,
                                    69  	(Message does not contain a descriptor.)
                        000030          	segdef  no_descriptor_in_first_block
    000030  a0   077777 000370
    000366  aa  156 157 156 145         	aci  "none",8
    000367  aa  040 040 040 040
    000370  aa  046 115 145 163         	acc  "Message does not contain a descriptor."
    000371  aa  163 141 147 145
    000372  aa  040 144 157 145
    000373  aa  163 040 156 157
    000374  aa  164 040 143 157
    000375  aa  156 164 141 151
    000376  aa  156 040 141 040
    000377  aa  144 145 163 143
    000400  aa  162 151 160 164
    000401  aa  157 162 056 000

                                    70
                                    71  ec   salvage_in_progress,none,
                                    72  	(Previous salvage was abnormally terminated.)
                        000031          	segdef  salvage_in_progress
    000031  a0   077777 000404
    000402  aa  156 157 156 145         	aci  "none",8
    000403  aa  040 040 040 040
    000404  aa  053 120 162 145         	acc  "Previous salvage was abnormally terminated."
    000405  aa  166 151 157 165
    000406  aa  163 040 163 141
    000407  aa  154 166 141 147
    000410  aa  145 040 167 141
    000411  aa  163 040 141 142
    000412  aa  156 157 162 155
    000413  aa  141 154 154 171
    000414  aa  040 164 145 162
    000415  aa  155 151 156 141
    000416  aa  164 145 144 056

                                    73
                                    74  ec   unused_block_in_message,none,
                                    75  	(Free block found in message chain.)
                        000032          	segdef  unused_block_in_message
    000032  a0   077777 000421
    000417  aa  156 157 156 145         	aci  "none",8
    000420  aa  040 040 040 040
    000421  aa  042 106 162 145         	acc  "Free block found in message chain."
    000422  aa  145 040 142 154
    000423  aa  157 143 153 040
    000424  aa  146 157 165 156
    000425  aa  144 040 151 156
    000426  aa  040 155 145 163
    000427  aa  163 141 147 145
    000430  aa  040 143 150 141
    000431  aa  151 156 056 000

                                    76
                                    77  	end

NO LITERALS

NAME DEFINITIONS FOR ENTRY POINTS AND SEGDEFS

    000432  5a   000003 000000
    000433  5a   000303 600000
    000434  aa   000000 000000
    000435  55   000013 000002
    000436  5a   000002 400003
    000437  55   000006 000013
    000440  aa  023 155 163 145
    000441  aa  147 137 146 157
    000442  aa  162 155 141 164
    000443  aa  137 145 162 162
    000444  aa  157 162 163 137
    000445  55   000024 000003
    000446  2a   000032 400001
    000447  55   000016 000003
    000450  aa  027 165 156 165         unused_block_in_message
    000451  aa  163 145 144 137
    000452  aa  142 154 157 143
    000453  aa  153 137 151 156
    000454  aa  137 155 145 163
    000455  aa  163 141 147 145
    000456  55   000034 000013
    000457  2a   000031 400001
    000460  55   000027 000003
    000461  aa  023 163 141 154         salvage_in_progress
    000462  aa  166 141 147 145
    000463  aa  137 151 156 137
    000464  aa  160 162 157 147
    000465  aa  162 145 163 163
    000466  55   000047 000024
    000467  2a   000030 400001
    000470  55   000037 000003
    000471  aa  034 156 157 137         no_descriptor_in_first_block
    000472  aa  144 145 163 143
    000473  aa  162 151 160 164
    000474  aa  157 162 137 151
    000475  aa  156 137 146 151
    000476  aa  162 163 164 137
    000477  aa  142 154 157 143
    000500  aa  153 000 000 000
    000501  55   000060 000034
    000502  2a   000027 400001
    000503  55   000052 000003
    000504  aa  026 156 145 147         negative_message_count
    000505  aa  141 164 151 166
    000506  aa  145 137 155 145
    000507  aa  163 163 141 147
    000510  aa  145 137 143 157
    000511  aa  165 156 164 000
    000512  55   000072 000047
    000513  2a   000026 400001
    000514  55   000063 000003
    000515  aa  030 155 157 144         modification_in_progress
    000516  aa  151 146 151 143
    000517  aa  141 164 151 157
    000520  aa  156 137 151 156
    000521  aa  137 160 162 157
    000522  aa  147 162 145 163
    000523  aa  163 000 000 000
    000524  55   000105 000060
    000525  2a   000025 400001
    000526  55   000075 000003
    000527  aa  034 151 156 166         invalid_message_block_offset
    000530  aa  141 154 151 144
    000531  aa  137 155 145 163
    000532  aa  163 141 147 145
    000533  aa  137 142 154 157
    000534  aa  143 153 137 157
    000535  aa  146 146 163 145
    000536  aa  164 000 000 000
    000537  55   000117 000072
    000540  2a   000024 400001
    000541  55   000110 000003
    000542  aa  033 151 156 143         inconsistent_message_length
    000543  aa  157 156 163 151
    000544  aa  163 164 145 156
    000545  aa  164 137 155 145
    000546  aa  163 163 141 147
    000547  aa  145 137 154 145
    000550  aa  156 147 164 150
    000551  55   000131 000105
    000552  2a   000023 400001
    000553  55   000122 000003
    000554  aa  032 151 156 143         inconsistent_message_count
    000555  aa  157 156 163 151
    000556  aa  163 164 145 156
    000557  aa  164 137 155 145
    000560  aa  163 163 141 147
    000561  aa  145 137 143 157
    000562  aa  165 156 164 000
    000563  55   000142 000117
    000564  2a   000022 400001
    000565  55   000134 000003
    000566  aa  027 151 156 143         inconsistent_hash_chain
    000567  aa  157 156 163 151
    000570  aa  163 164 145 156
    000571  aa  164 137 150 141
    000572  aa  163 150 137 143
    000573  aa  150 141 151 156
    000574  55   000154 000131
    000575  2a   000021 400001
    000576  55   000145 000003
    000577  aa  032 151 156 143         inconsistent_forward_chain
    000600  aa  157 156 163 151
    000601  aa  163 164 145 156
    000602  aa  164 137 146 157
    000603  aa  162 167 141 162
    000604  aa  144 137 143 150
    000605  aa  141 151 156 000
    000606  55   000165 000142
    000607  2a   000020 400001
    000610  55   000157 000003
    000611  aa  026 151 156 143         inconsistent_block_map
    000612  aa  157 156 163 151
    000613  aa  163 164 145 156
    000614  aa  164 137 142 154
    000615  aa  157 143 153 137
    000616  aa  155 141 160 000
    000617  55   000177 000154
    000620  2a   000017 400001
    000621  55   000170 000003
    000622  aa  033 151 156 143         inconsistent_backward_chain
    000623  aa  157 156 163 151
    000624  aa  163 164 145 156
    000625  aa  164 137 142 141
    000626  aa  143 153 167 141
    000627  aa  162 144 137 143
    000630  aa  150 141 151 156
    000631  55   000211 000165
    000632  2a   000016 400001
    000633  55   000202 000003
    000634  aa  031 144 145 163         descriptor_in_other_block
    000635  aa  143 162 151 160
    000636  aa  164 157 162 137
    000637  aa  151 156 137 157
    000640  aa  164 150 145 162
    000641  aa  137 142 154 157
    000642  aa  143 153 000 000
    000643  55   000222 000177
    000644  2a   000015 400001
    000645  55   000214 000003
    000646  aa  026 143 151 162         circular_message_chain
    000647  aa  143 165 154 141
    000650  aa  162 137 155 145
    000651  aa  163 163 141 147
    000652  aa  145 137 143 150
    000653  aa  141 151 156 000
    000654  55   000233 000211
    000655  2a   000014 400001
    000656  55   000225 000003
    000657  aa  027 143 151 162         circular_message_blocks
    000660  aa  143 165 154 141
    000661  aa  162 137 155 145
    000662  aa  163 163 141 147
    000663  aa  145 137 142 154
    000664  aa  157 143 153 163
    000665  55   000243 000222
    000666  2a   000013 400001
    000667  55   000236 000003
    000670  aa  023 143 151 162         circular_hash_chain
    000671  aa  143 165 154 141
    000672  aa  162 137 150 141
    000673  aa  163 150 137 143
    000674  aa  150 141 151 156
    000675  55   000253 000233
    000676  2a   000012 400001
    000677  55   000246 000003
    000700  aa  020 142 141 144         bad_mseg_version
    000701  aa  137 155 163 145
    000702  aa  147 137 166 145
    000703  aa  162 163 151 157
    000704  aa  156 000 000 000
    000705  55   000263 000243
    000706  2a   000011 400001
    000707  55   000256 000003
    000710  aa  021 142 141 144         bad_mseg_sentinel
    000711  aa  137 155 163 145
    000712  aa  147 137 163 145
    000713  aa  156 164 151 156
    000714  aa  145 154 000 000
    000715  55   000274 000253
    000716  2a   000010 400001
    000717  55   000266 000003
    000720  aa  027 142 141 144         bad_descriptor_sentinel
    000721  aa  137 144 145 163
    000722  aa  143 162 151 160
    000723  aa  164 157 162 137
    000724  aa  163 145 156 164
    000725  aa  151 156 145 154
    000726  55   000002 000263
    000727  6a   000000 400002
    000730  55   000277 000003
    000731  aa  014 163 171 155         symbol_table
    000732  aa  142 157 154 137
    000733  aa  164 141 142 154
    000734  aa  145 000 000 000

DEFINITIONS HASH TABLE

    000735  aa   000000 000033
    000736  aa   000000 000000
    000737  aa   000000 000000
    000740  aa   000000 000000
    000741  5a   000253 000000
    000742  5a   000072 000000
    000743  5a   000211 000000
    000744  5a   000222 000000
    000745  5a   000243 000000
    000746  5a   000177 000000
    000747  5a   000047 000000
    000750  5a   000233 000000
    000751  5a   000274 000000
    000752  5a   000034 000000
    000753  5a   000105 000000
    000754  5a   000117 000000
    000755  5a   000142 000000
    000756  5a   000165 000000
    000757  5a   000131 000000
    000760  5a   000154 000000
    000761  aa   000000 000000
    000762  5a   000013 000000
    000763  5a   000060 000000
    000764  aa   000000 000000
    000765  aa   000000 000000
    000766  5a   000263 000000
    000767  aa   000000 000000
    000770  5a   000024 000000

NO EXTERNAL NAMES

NO TRAP POINTER WORDS

TYPE PAIR BLOCKS

    000771  aa   000001 000000
    000772  aa   000000 000000

INTERNAL EXPRESSION WORDS

    000773  50   000337 000000
LINKAGE INFORMATION

    000000  aa   000000 000000
    000001  02   000432 000036
    000002  aa   000000 000000
    000003  aa   000000 000000
    000004  aa   000000 000000
    000005  aa   000000 000000
    000006  22   000034 000041
    000007  a2   000000 000024
    000034  9a   777744 0000 46         *text|
    000035  5a   000341 0000 00

FIRST REFERENCE TRAP LIST

    000036  aa   000000 000001
    000037  aa   000000 000001
    000040  2a   000034 000000
    000041  aa   000000 000000
SYMBOL INFORMATION

SYMBOL TABLE HEADER

    000000  aa   000000 000001
    000001  aa   163171 155142
    000002  aa   164162 145145
    000003  aa   000000 000004
    000004  aa   000000 114732
    000005  aa   732732 062314
    000006  aa   000000 114775
    000007  aa   662705 604472
    000010  aa   141154 155040
    000011  aa   040040 040040
    000012  aa   000024 000040
    000013  aa   000034 000040
    000014  aa   000044 000100
    000015  aa   000002 000002
    000016  aa   000064 000000
    000017  aa   000000 000207
    000020  aa   000000 000146
    000021  aa   000000 000170
    000022  aa   000177 000146
    000023  aa   000064 000000
    000024  aa   101114 115040
    000025  aa   126145 162163
    000026  aa   151157 156040
    000027  aa   040066 056067
    000030  aa   040040 117143
    000031  aa   164157 142145
    000032  aa   162040 061071
    000033  aa   070066 040040
    000034  aa   107112 157150
    000035  aa   156163 157156
    000036  aa   056123 171163
    000037  aa   115141 151156
    000040  aa   164056 141040
    000041  aa   040040 040040
    000042  aa   040040 040040
    000043  aa   040040 040040
    000044  aa   154151 163164
    000045  aa   040040 040040
    000046  aa   040040 040040
    000047  aa   040040 040040
    000050  aa   040040 040040
    000051  aa   040040 040040
    000052  aa   040040 040040
    000053  aa   040040 040040
    000054  aa   040040 040040
    000055  aa   040040 040040
    000056  aa   040040 040040
    000057  aa   040040 040040
    000060  aa   040040 040040
    000061  aa   040040 040040
    000062  aa   040040 040040
    000063  aa   040040 040040
    000064  aa   000000 000001
    000065  aa   000000 000003
    000066  aa   000102 000070
    000067  aa   147740 446101
    000070  aa   000000 114774
    000071  aa   460671 400000
    000072  aa   000120 000037
    000073  aa   120665 316464
    000074  aa   000000 112067
    000075  aa   253504 600000
    000076  aa   000130 000066
    000077  aa   147714 750316
    000100  aa   000000 114774
    000101  aa   453561 000000
    000102  aa   076163 160145          >special_ldd>install>MR12.0-1206>mseg_format_errors_.alm
    000103  aa   143151 141154
    000104  aa   137154 144144
    000105  aa   076151 156163
    000106  aa   164141 154154
    000107  aa   076115 122061
    000110  aa   062056 060055
    000111  aa   061062 060066
    000112  aa   076155 163145
    000113  aa   147137 146157
    000114  aa   162155 141164
    000115  aa   137145 162162
    000116  aa   157162 163137
    000117  aa   056141 154155
    000120  aa   076154 144144          >ldd>include>et_macros.incl.alm
    000121  aa   076151 156143
    000122  aa   154165 144145
    000123  aa   076145 164137
    000124  aa   155141 143162
    000125  aa   157163 056151
    000126  aa   156143 154056
    000127  aa   141154 155040
    000130  aa   076163 160145          >special_ldd>install>MR12.0-1206>stack_header.incl.alm
    000131  aa   143151 141154
    000132  aa   137154 144144
    000133  aa   076151 156163
    000134  aa   164141 154154
    000135  aa   076115 122061
    000136  aa   062056 060055
    000137  aa   061062 060066
    000140  aa   076163 164141
    000141  aa   143153 137150
    000142  aa   145141 144145
    000143  aa   162056 151156
    000144  aa   143154 056141
    000145  aa   154155 040040
               MULTICS ASSEMBLY CROSS REFERENCE LISTING

   Value        Symbol                   Source file   Line number

                *text                    mseg_format_errors_:       17.
          14    .._00000                 mseg_format_errors_:       21.
          33    .._00001                 mseg_format_errors_:       24.
          47    .._00002                 mseg_format_errors_:       27.
          64    .._00003                 mseg_format_errors_:       30.
         100    .._00004                 mseg_format_errors_:       33.
         115    .._00005                 mseg_format_errors_:       36.
         135    .._00006                 mseg_format_errors_:       39.
         153    .._00007                 mseg_format_errors_:       42.
         174    .._00010                 mseg_format_errors_:       45.
         212    .._00011                 mseg_format_errors_:       48.
         231    .._00012                 mseg_format_errors_:       51.
         251    .._00013                 mseg_format_errors_:       54.
         274    .._00014                 mseg_format_errors_:       57.
         315    .._00015                 mseg_format_errors_:       60.
         341    .._00016                 mseg_format_errors_:       63.
         357    .._00017                 mseg_format_errors_:       66.
         370    .._00020                 mseg_format_errors_:       69.
         404    .._00021                 mseg_format_errors_:       72.
         421    .._00022                 mseg_format_errors_:       75.
          33    .code_end                mseg_format_errors_:       17.
          10    .code_start              mseg_format_errors_:       17.
           5    .loop                    mseg_format_errors_:       17.
       77777    .segno                   mseg_format_errors_:       17,   21,   24,   27,   30,   33,   36,   39,   42,   45,
                                                                    48,   51,   54,   57,   60,   63,   66,   69,   72,   75.
           0    .trapproc                mseg_format_errors_:       17.
          10    bad_descriptor_sentinel  mseg_format_errors_:       21.
          11    bad_mseg_sentinel        mseg_format_errors_:       24.
          12    bad_mseg_version         mseg_format_errors_:       27.
        1170    call_offset              stack_header:        80.
          13    circular_hash_chain      mseg_format_errors_:       30.
          14    circular_message_blocks  mseg_format_errors_:       33.
          15    circular_message_chain   mseg_format_errors_:       36.
          10    codes                    mseg_format_errors_:       17,   21,   24,   27,   30,   33,   36,   39,   42,   45,
                                                                    48,   51,   54,   57,   60,   63,   66,   69,   72,   75.
          16    descriptor_in_other_block      mseg_format_errors_:       39.
        1174    entry_offset             stack_header:        84.
          17    inconsistent_backward_chain    mseg_format_errors_:       42.
          20    inconsistent_block_map   mseg_format_errors_:       45.
          21    inconsistent_forward_chain     mseg_format_errors_:       48.
          22    inconsistent_hash_chain  mseg_format_errors_:       51.
          23    inconsistent_message_count     mseg_format_errors_:       54.
          24    inconsistent_message_length    mseg_format_errors_:       57.
          25    invalid_message_block_offset   mseg_format_errors_:       60.
           0    messages                 mseg_format_errors_:       17,   21,   24,   27,   30,   33,   36,   39,   42,   45,
                                                                    48,   51,   54,   57,   60,   63,   66,   69,   72,   75.
          26    modification_in_progress       mseg_format_errors_:       63.
          27    negative_message_count   mseg_format_errors_:       66.
          30    no_descriptor_in_first_block   mseg_format_errors_:       69.
          33    past_codes               mseg_format_errors_:       17.
        1171    push_offset              stack_header:        81.
        1173    return_no_pop_offset     stack_header:        83.
        1172    return_offset            stack_header:        82.
          31    salvage_in_progress      mseg_format_errors_:       72.
          73    stach_header.trace_top_ptr     stack_header:        62.
          66    stack_header.assign_linkage_ptr      stack_header:        59.
          32    stack_header.bar_mode_sp       stack_header:        42.
          36    stack_header.call_op_ptr       stack_header:        44.
          10    stack_header.clr_ptr     stack_header:        27.
           6    stack_header.combined_stat_ptr       stack_header:        25.
           4    stack_header.cpm_data_ptr      stack_header:        24.
          13    stack_header.cpm_enabled       stack_header:        32.
          13    stack_header.cur_lot_size      stack_header:        31.
          64    stack_header.ect_ptr     stack_header:        58.
          46    stack_header.entry_op_ptr      stack_header:        49.
          70    stack_header.heap_header_ptr   stack_header:        60.
          74    stack_header.in_trace    stack_header:        63.
          52    stack_header.isot_ptr    stack_header:        52.
          26    stack_header.lot_ptr     mseg_format_errors_:       17,
                                         stack_header:        39.
          12    stack_header.main_proc_invoked       stack_header:        29.
          12    stack_header.max_lot_size      stack_header:        28.
          20    stack_header.parent_ptr  stack_header:        36.
          34    stack_header.pl1_operators_ptr       stack_header:        43.
          40    stack_header.push_op_ptr       stack_header:        46.
          42    stack_header.return_op_ptr     stack_header:        47.
          44    stack_header.ret_no_pop_op_ptr       stack_header:        48.
          62    stack_header.rnt_ptr     stack_header:        57.
          12    stack_header.run_unit_depth    stack_header:        30.
          54    stack_header.sct_ptr     stack_header:        53.
          30    stack_header.signal_ptr  stack_header:        41.
          22    stack_header.stack_begin_ptr   stack_header:        37.
          24    stack_header.stack_end_ptr     stack_header:        38.
          14    stack_header.system_free_ptr   stack_header:        33.
          60    stack_header.sys_link_info_ptr       stack_header:        56.
          72    stack_header.trace_frames      stack_header:        61.
          50    stack_header.trans_op_tv_ptr   stack_header:        51.
          56    stack_header.unwinder_ptr      stack_header:        54.
          16    stack_header.user_free_ptr     stack_header:        34.
         100    stack_header_end         stack_header:        64.
           0    trace_frames.count       stack_header:        69.
           1    trace_frames.top_ptr     stack_header:        70.
         551    tv_offset                stack_header:        75,   80,   81,   82,   83,   84.
          32    unused_block_in_message  mseg_format_errors_:       75.


NO FATAL ERRORS


                                          -----------------------------------------------------------


Historical Background

This edition of the Multics software materials and documentation is provided and donated
to Massachusetts Institute of Technology by Group BULL including BULL HN Information Systems Inc.
as a contribution to computer science knowledge.
This donation is made also to give evidence of the common contributions of Massachusetts Institute of Technology,
Bell Laboratories, General Electric, Honeywell Information Systems Inc., Honeywell BULL Inc., Groupe BULL
and BULL HN Information Systems Inc. to the development of this operating system.
Multics development was initiated by Massachusetts Institute of Technology Project MAC (1963-1970),
renamed the MIT Laboratory for Computer Science and Artificial Intelligence in the mid 1970s, under the leadership
of Professor Fernando Jose Corbato. Users consider that Multics provided the best software architecture
for managing computer hardware properly and for executing programs. Many subsequent operating systems
incorporated Multics principles.
Multics was distributed in 1975 to 2000 by Group Bull in Europe , and in the U.S. by Bull HN Information Systems Inc.,
as successor in interest by change in name only to Honeywell Bull Inc. and Honeywell Information Systems Inc. .

                                          -----------------------------------------------------------

Permission to use, copy, modify, and distribute these programs and their documentation for any purpose and without
fee is hereby granted,provided that the below copyright notice and historical background appear in all copies
and that both the copyright notice and historical background and this permission notice appear in supporting
documentation, and that the names of MIT, HIS, BULL or BULL HN not be used in advertising or publicity pertaining
to distribution of the programs without specific prior written permission.
    Copyright 1972 by Massachusetts Institute of Technology and Honeywell Information Systems Inc.
    Copyright 2006 by BULL HN Information Systems Inc.
    Copyright 2006 by Bull SAS
    All Rights Reserved
