ASSEMBLY LISTING OF SEGMENT >spec>on>mseg>mseg_.alm
ASSEMBLED ON:	05/09/85  1005.5 mst Thu
OPTIONS USED:	list
ASSEMBLED BY:	ALM Version  6.6  November 1982
ASSEMBLER CREATED:	09/21/83  1227.3 mst Wed

                                     1  " ***********************************************************
                                     2  " *                                                         *
                                     3  " * Copyright, (C) Honeywell Information Systems Inc., 1985 *
                                     4  " *                                                         *
                                     5  " ***********************************************************
                                     6
                                     7  " The Message Segment Primitives
                                     8
                                     9  " Created:  April 1985 by G. Palter
                                    10
                                    11
    000000                          12  	name	mseg_
                                    13
                                    14
                                    15  	macro	transfer
                              1     16  	segdef	&1
                              2     17  &1:	getlp
                              3     18  	tra	&2$&1
                              4     19  	&end
                                    20
                                    21  	transfer	add_acl_entries_seg,mseg_fs_interface_
                        000000          	segdef	add_acl_entries_seg
    000000  aa  7 00046 2721 20         add_acl_entries_seg:	getlp
    000001  4a  4 00012 7101 20         	tra	mseg_fs_interface_$add_acl_entries_seg
                                    22
                                    23  	transfer	add_message,mseg_message_
                        000002          	segdef	add_message
    000002  aa  7 00046 2721 20         add_message:	getlp
    000003  4a  4 00014 7101 20         	tra	mseg_message_$add_message
                                    24
                                    25  	transfer	chname_seg,mseg_fs_interface_
                        000004          	segdef	chname_seg
    000004  aa  7 00046 2721 20         chname_seg:	getlp
    000005  4a  4 00016 7101 20         	tra	mseg_fs_interface_$chname_seg
                                    26
                                    27  	transfer	close_seg,mseg_index_
                        000006          	segdef	close_seg
    000006  aa  7 00046 2721 20         close_seg:	getlp
    000007  4a  4 00020 7101 20         	tra	mseg_index_$close_seg
                                    28
                                    29  	transfer	compact_seg,mseg_segment_
                        000010          	segdef	compact_seg
    000010  aa  7 00046 2721 20         compact_seg:	getlp
    000011  4a  4 00022 7101 20         	tra	mseg_segment_$compact_seg
                                    30
                                    31  	transfer	copy_seg,mseg_segment_
                        000012          	segdef	copy_seg
    000012  aa  7 00046 2721 20         copy_seg:	getlp
    000013  4a  4 00024 7101 20         	tra	mseg_segment_$copy_seg
                                    32
                                    33  	transfer	count_messages,mseg_message_
                        000014          	segdef	count_messages
    000014  aa  7 00046 2721 20         count_messages:	getlp
    000015  4a  4 00026 7101 20         	tra	mseg_message_$count_messages
                                    34
                                    35  	transfer	create_seg,mseg_fs_interface_
                        000016          	segdef	create_seg
    000016  aa  7 00046 2721 20         create_seg:	getlp
    000017  4a  4 00030 7101 20         	tra	mseg_fs_interface_$create_seg
                                    36
                                    37  	transfer	delete_acl_entries_seg,mseg_fs_interface_
                        000020          	segdef	delete_acl_entries_seg
    000020  aa  7 00046 2721 20         delete_acl_entries_seg:	getlp
    000021  4a  4 00032 7101 20         	tra	mseg_fs_interface_$delete_acl_entries_seg
                                    38
                                    39  	transfer	delete_message,mseg_message_
                        000022          	segdef	delete_message
    000022  aa  7 00046 2721 20         delete_message:	getlp
    000023  4a  4 00034 7101 20         	tra	mseg_message_$delete_message
                                    40
                                    41  	transfer	delete_seg,mseg_fs_interface_
                        000024          	segdef	delete_seg
    000024  aa  7 00046 2721 20         delete_seg:	getlp
    000025  4a  4 00036 7101 20         	tra	mseg_fs_interface_$delete_seg
                                    42
                                    43  	transfer	get_salvaged_flag_seg,mseg_segment_
                        000026          	segdef	get_salvaged_flag_seg
    000026  aa  7 00046 2721 20         get_salvaged_flag_seg:	getlp
    000027  4a  4 00040 7101 20         	tra	mseg_segment_$get_salvaged_flag_seg
                                    44
                                    45  	transfer	get_wakeup_state_seg,mseg_segment_
                        000030          	segdef	get_wakeup_state_seg
    000030  aa  7 00046 2721 20         get_wakeup_state_seg:	getlp
    000031  4a  4 00042 7101 20         	tra	mseg_segment_$get_wakeup_state_seg
                                    46
                                    47  	transfer	initiate_seg,mseg_index_
                        000032          	segdef	initiate_seg
    000032  aa  7 00046 2721 20         initiate_seg:	getlp
    000033  4a  4 00044 7101 20         	tra	mseg_index_$initiate_seg
                                    48
                                    49  	transfer	list_acl_seg,mseg_fs_interface_
                        000034          	segdef	list_acl_seg
    000034  aa  7 00046 2721 20         list_acl_seg:	getlp
    000035  4a  4 00046 7101 20         	tra	mseg_fs_interface_$list_acl_seg
                                    50
                                    51  	transfer	list_acl_entries_seg,mseg_fs_interface_
                        000036          	segdef	list_acl_entries_seg
    000036  aa  7 00046 2721 20         list_acl_entries_seg:	getlp
    000037  4a  4 00050 7101 20         	tra	mseg_fs_interface_$list_acl_entries_seg
                                    52
                                    53  	transfer	open_seg,mseg_index_
                        000040          	segdef	open_seg
    000040  aa  7 00046 2721 20         open_seg:	getlp
    000041  4a  4 00052 7101 20         	tra	mseg_index_$open_seg
                                    54
                                    55  	transfer	read_message,mseg_message_
                        000042          	segdef	read_message
    000042  aa  7 00046 2721 20         read_message:	getlp
    000043  4a  4 00054 7101 20         	tra	mseg_message_$read_message
                                    56
                                    57  	transfer	replace_acl_seg,mseg_fs_interface_
                        000044          	segdef	replace_acl_seg
    000044  aa  7 00046 2721 20         replace_acl_seg:	getlp
    000045  4a  4 00056 7101 20         	tra	mseg_fs_interface_$replace_acl_seg
                                    58
                                    59  	transfer	reset_salvaged_flag_seg,mseg_segment_
                        000046          	segdef	reset_salvaged_flag_seg
    000046  aa  7 00046 2721 20         reset_salvaged_flag_seg:	getlp
    000047  4a  4 00060 7101 20         	tra	mseg_segment_$reset_salvaged_flag_seg
                                    60
                                    61  	transfer	reset_wakeup_state_seg,mseg_segment_
                        000050          	segdef	reset_wakeup_state_seg
    000050  aa  7 00046 2721 20         reset_wakeup_state_seg:	getlp
    000051  4a  4 00062 7101 20         	tra	mseg_segment_$reset_wakeup_state_seg
                                    62
                                    63  	transfer	set_max_length_seg,mseg_segment_
                        000052          	segdef	set_max_length_seg
    000052  aa  7 00046 2721 20         set_max_length_seg:	getlp
    000053  4a  4 00064 7101 20         	tra	mseg_segment_$set_max_length_seg
                                    64
                                    65  	transfer	set_safety_switch_seg,mseg_fs_interface_
                        000054          	segdef	set_safety_switch_seg
    000054  aa  7 00046 2721 20         set_safety_switch_seg:	getlp
    000055  4a  4 00066 7101 20         	tra	mseg_fs_interface_$set_safety_switch_seg
                                    66
                                    67  	transfer	set_wakeup_state_seg,mseg_segment_
                        000056          	segdef	set_wakeup_state_seg
    000056  aa  7 00046 2721 20         set_wakeup_state_seg:	getlp
    000057  4a  4 00070 7101 20         	tra	mseg_segment_$set_wakeup_state_seg
                                    68
                                    69  	transfer	update_message,mseg_message_
                        000060          	segdef	update_message
    000060  aa  7 00046 2721 20         update_message:	getlp
    000061  4a  4 00072 7101 20         	tra	mseg_message_$update_message
                                    70
                                    71
                                    72  " A first reference trap to insure that mseg_data_ is properly initialized
                                    73
                        000062      74  	segdef	initialize_caller
                                    75
    000062                          76  initialize_caller:
    000062  aa  7 00046 2721 20     77  	getlp
    000063  4a  4 00074 7101 20     78  	tra	mseg_utils_$initialize
                                    79
    000064                          80  	firstref	<*text>|initialize_caller
                                    81
                                    82  	end

NO LITERALS

NAME DEFINITIONS FOR ENTRY POINTS AND SEGDEFS

    000064  5a   000003 000000
    000065  5a   000320 600000
    000066  aa   000000 000000
    000067  55   000010 000002
    000070  5a   000002 400003
    000071  55   000006 000010
    000072  aa  005 155 163 145
    000073  aa  147 137 000 000
    000074  55   000020 000003
    000075  0a   000062 400000
    000076  55   000013 000003
    000077  aa  021 151 156 151         initialize_caller
    000100  aa  164 151 141 154
    000101  aa  151 172 145 137
    000102  aa  143 141 154 154
    000103  aa  145 162 000 000
    000104  55   000027 000010
    000105  0a   000060 400000
    000106  55   000023 000003
    000107  aa  016 165 160 144         update_message
    000110  aa  141 164 145 137
    000111  aa  155 145 163 163
    000112  aa  141 147 145 000
    000113  55   000040 000020
    000114  0a   000056 400000
    000115  55   000032 000003
    000116  aa  024 163 145 164         set_wakeup_state_seg
    000117  aa  137 167 141 153
    000120  aa  145 165 160 137
    000121  aa  163 164 141 164
    000122  aa  145 137 163 145
    000123  aa  147 000 000 000
    000124  55   000051 000027
    000125  0a   000054 400000
    000126  55   000043 000003
    000127  aa  025 163 145 164         set_safety_switch_seg
    000130  aa  137 163 141 146
    000131  aa  145 164 171 137
    000132  aa  163 167 151 164
    000133  aa  143 150 137 163
    000134  aa  145 147 000 000
    000135  55   000061 000040
    000136  0a   000052 400000
    000137  55   000054 000003
    000140  aa  022 163 145 164         set_max_length_seg
    000141  aa  137 155 141 170
    000142  aa  137 154 145 156
    000143  aa  147 164 150 137
    000144  aa  163 145 147 000
    000145  55   000072 000051
    000146  0a   000050 400000
    000147  55   000064 000003
    000150  aa  026 162 145 163         reset_wakeup_state_seg
    000151  aa  145 164 137 167
    000152  aa  141 153 145 165
    000153  aa  160 137 163 164
    000154  aa  141 164 145 137
    000155  aa  163 145 147 000
    000156  55   000103 000061
    000157  0a   000046 400000
    000160  55   000075 000003
    000161  aa  027 162 145 163         reset_salvaged_flag_seg
    000162  aa  145 164 137 163
    000163  aa  141 154 166 141
    000164  aa  147 145 144 137
    000165  aa  146 154 141 147
    000166  aa  137 163 145 147
    000167  55   000112 000072
    000170  0a   000044 400000
    000171  55   000106 000003
    000172  aa  017 162 145 160         replace_acl_seg
    000173  aa  154 141 143 145
    000174  aa  137 141 143 154
    000175  aa  137 163 145 147
    000176  55   000121 000103
    000177  0a   000042 400000
    000200  55   000115 000003
    000201  aa  014 162 145 141         read_message
    000202  aa  144 137 155 145
    000203  aa  163 163 141 147
    000204  aa  145 000 000 000
    000205  55   000127 000112
    000206  0a   000040 400000
    000207  55   000124 000003
    000210  aa  010 157 160 145         open_seg
    000211  aa  156 137 163 145
    000212  aa  147 000 000 000
    000213  55   000140 000121
    000214  0a   000036 400000
    000215  55   000132 000003
    000216  aa  024 154 151 163         list_acl_entries_seg
    000217  aa  164 137 141 143
    000220  aa  154 137 145 156
    000221  aa  164 162 151 145
    000222  aa  163 137 163 145
    000223  aa  147 000 000 000
    000224  55   000147 000127
    000225  0a   000034 400000
    000226  55   000143 000003
    000227  aa  014 154 151 163         list_acl_seg
    000230  aa  164 137 141 143
    000231  aa  154 137 163 145
    000232  aa  147 000 000 000
    000233  55   000156 000140
    000234  0a   000032 400000
    000235  55   000152 000003
    000236  aa  014 151 156 151         initiate_seg
    000237  aa  164 151 141 164
    000240  aa  145 137 163 145
    000241  aa  147 000 000 000
    000242  55   000167 000147
    000243  0a   000030 400000
    000244  55   000161 000003
    000245  aa  024 147 145 164         get_wakeup_state_seg
    000246  aa  137 167 141 153
    000247  aa  145 165 160 137
    000250  aa  163 164 141 164
    000251  aa  145 137 163 145
    000252  aa  147 000 000 000
    000253  55   000200 000156
    000254  0a   000026 400000
    000255  55   000172 000003
    000256  aa  025 147 145 164         get_salvaged_flag_seg
    000257  aa  137 163 141 154
    000260  aa  166 141 147 145
    000261  aa  144 137 146 154
    000262  aa  141 147 137 163
    000263  aa  145 147 000 000
    000264  55   000206 000167
    000265  0a   000024 400000
    000266  55   000203 000003
    000267  aa  012 144 145 154         delete_seg
    000270  aa  145 164 145 137
    000271  aa  163 145 147 000
    000272  55   000215 000200
    000273  0a   000022 400000
    000274  55   000211 000003
    000275  aa  016 144 145 154         delete_message
    000276  aa  145 164 145 137
    000277  aa  155 145 163 163
    000300  aa  141 147 145 000
    000301  55   000226 000206
    000302  0a   000020 400000
    000303  55   000220 000003
    000304  aa  026 144 145 154         delete_acl_entries_seg
    000305  aa  145 164 145 137
    000306  aa  141 143 154 137
    000307  aa  145 156 164 162
    000310  aa  151 145 163 137
    000311  aa  163 145 147 000
    000312  55   000234 000215
    000313  0a   000016 400000
    000314  55   000231 000003
    000315  aa  012 143 162 145         create_seg
    000316  aa  141 164 145 137
    000317  aa  163 145 147 000
    000320  55   000243 000226
    000321  0a   000014 400000
    000322  55   000237 000003
    000323  aa  016 143 157 165         count_messages
    000324  aa  156 164 137 155
    000325  aa  145 163 163 141
    000326  aa  147 145 163 000
    000327  55   000251 000234
    000330  0a   000012 400000
    000331  55   000246 000003
    000332  aa  010 143 157 160         copy_seg
    000333  aa  171 137 163 145
    000334  aa  147 000 000 000
    000335  55   000257 000243
    000336  0a   000010 400000
    000337  55   000254 000003
    000340  aa  013 143 157 155         compact_seg
    000341  aa  160 141 143 164
    000342  aa  137 163 145 147
    000343  55   000265 000251
    000344  0a   000006 400000
    000345  55   000262 000003
    000346  aa  011 143 154 157         close_seg
    000347  aa  163 145 137 163
    000350  aa  145 147 000 000
    000351  55   000273 000257
    000352  0a   000004 400000
    000353  55   000270 000003
    000354  aa  012 143 150 156         chname_seg
    000355  aa  141 155 145 137
    000356  aa  163 145 147 000
    000357  55   000301 000265
    000360  0a   000002 400000
    000361  55   000276 000003
    000362  aa  013 141 144 144         add_message
    000363  aa  137 155 145 163
    000364  aa  163 141 147 145
    000365  55   000311 000273
    000366  0a   000000 400000
    000367  55   000304 000003
    000370  aa  023 141 144 144         add_acl_entries_seg
    000371  aa  137 141 143 154
    000372  aa  137 145 156 164
    000373  aa  162 151 145 163
    000374  aa  137 163 145 147
    000375  55   000002 000301
    000376  6a   000000 400002
    000377  55   000314 000003
    000400  aa  014 163 171 155         symbol_table
    000401  aa  142 157 154 137
    000402  aa  164 141 142 154
    000403  aa  145 000 000 000

DEFINITIONS HASH TABLE

    000404  aa   000000 000065
    000405  5a   000127 000000
    000406  5a   000226 000000
    000407  aa   000000 000000
    000410  5a   000147 000000
    000411  aa   000000 000000
    000412  aa   000000 000000
    000413  5a   000040 000000
    000414  5a   000121 000000
    000415  5a   000027 000000
    000416  5a   000103 000000
    000417  5a   000234 000000
    000420  5a   000251 000000
    000421  5a   000051 000000
    000422  5a   000215 000000
    000423  5a   000301 000000
    000424  5a   000140 000000
    000425  5a   000257 000000
    000426  5a   000243 000000
    000427  aa   000000 000000
    000430  aa   000000 000000
    000431  aa   000000 000000
    000432  aa   000000 000000
    000433  aa   000000 000000
    000434  aa   000000 000000
    000435  aa   000000 000000
    000436  aa   000000 000000
    000437  5a   000273 000000
    000440  aa   000000 000000
    000441  5a   000206 000000
    000442  5a   000311 000000
    000443  5a   000020 000000
    000444  5a   000265 000000
    000445  aa   000000 000000
    000446  aa   000000 000000
    000447  aa   000000 000000
    000450  aa   000000 000000
    000451  5a   000200 000000
    000452  aa   000000 000000
    000453  aa   000000 000000
    000454  aa   000000 000000
    000455  5a   000167 000000
    000456  aa   000000 000000
    000457  5a   000156 000000
    000460  aa   000000 000000
    000461  aa   000000 000000
    000462  aa   000000 000000
    000463  5a   000010 000000
    000464  aa   000000 000000
    000465  5a   000072 000000
    000466  aa   000000 000000
    000467  5a   000061 000000
    000470  aa   000000 000000
    000471  5a   000112 000000

EXTERNAL NAMES

    000472  aa  012 151 156 151         initialize
    000473  aa  164 151 141 154
    000474  aa  151 172 145 000
    000475  aa  013 155 163 145         mseg_utils_
    000476  aa  147 137 165 164
    000477  aa  151 154 163 137
    000500  aa  015 155 163 145         mseg_segment_
    000501  aa  147 137 163 145
    000502  aa  147 155 145 156
    000503  aa  164 137 000 000
    000504  aa  013 155 163 145         mseg_index_
    000505  aa  147 137 151 156
    000506  aa  144 145 170 137
    000507  aa  015 155 163 145         mseg_message_
    000510  aa  147 137 155 145
    000511  aa  163 163 141 147
    000512  aa  145 137 000 000
    000513  aa  022 155 163 145         mseg_fs_interface_
    000514  aa  147 137 146 163
    000515  aa  137 151 156 164
    000516  aa  145 162 146 141
    000517  aa  143 145 137 000

NO TRAP POINTER WORDS

TYPE PAIR BLOCKS

    000520  aa   000004 000000
    000521  55   000411 000406
    000522  aa   000004 000000
    000523  55   000423 000023
    000524  aa   000004 000000
    000525  55   000414 000032
    000526  aa   000004 000000
    000527  55   000427 000043
    000530  aa   000004 000000
    000531  55   000414 000054
    000532  aa   000004 000000
    000533  55   000414 000064
    000534  aa   000004 000000
    000535  55   000414 000075
    000536  aa   000004 000000
    000537  55   000427 000106
    000540  aa   000004 000000
    000541  55   000423 000115
    000542  aa   000004 000000
    000543  55   000420 000124
    000544  aa   000004 000000
    000545  55   000427 000132
    000546  aa   000004 000000
    000547  55   000427 000143
    000550  aa   000004 000000
    000551  55   000420 000152
    000552  aa   000004 000000
    000553  55   000414 000161
    000554  aa   000004 000000
    000555  55   000414 000172
    000556  aa   000004 000000
    000557  55   000427 000203
    000560  aa   000004 000000
    000561  55   000423 000211
    000562  aa   000004 000000
    000563  55   000427 000220
    000564  aa   000004 000000
    000565  55   000427 000231
    000566  aa   000004 000000
    000567  55   000423 000237
    000570  aa   000004 000000
    000571  55   000414 000246
    000572  aa   000004 000000
    000573  55   000414 000254
    000574  aa   000004 000000
    000575  55   000420 000262
    000576  aa   000004 000000
    000577  55   000427 000270
    000600  aa   000004 000000
    000601  55   000423 000276
    000602  aa   000004 000000
    000603  55   000427 000304
    000604  aa   000001 000000
    000605  aa   000000 000000

INTERNAL EXPRESSION WORDS

    000606  5a   000434 000000
    000607  5a   000436 000000
    000610  5a   000440 000000
    000611  5a   000442 000000
    000612  5a   000444 000000
    000613  5a   000446 000000
    000614  5a   000450 000000
    000615  5a   000452 000000
    000616  5a   000454 000000
    000617  5a   000456 000000
    000620  5a   000460 000000
    000621  5a   000462 000000
    000622  5a   000464 000000
    000623  5a   000466 000000
    000624  5a   000470 000000
    000625  5a   000472 000000
    000626  5a   000474 000000
    000627  5a   000476 000000
    000630  5a   000500 000000
    000631  5a   000502 000000
    000632  5a   000504 000000
    000633  5a   000506 000000
    000634  5a   000510 000000
    000635  5a   000512 000000
    000636  5a   000514 000000
    000637  5a   000516 000000
    000640  50   000520 000062
    000641  aa   000000 000000
LINKAGE INFORMATION

    000000  aa   000000 000000
    000001  02   000064 000076
    000002  aa   000000 000000
    000003  aa   000000 000000
    000004  aa   000000 000000
    000005  aa   000000 000000
    000006  22   000010 000101
    000007  a2   000000 000000
    000010  9a   777770 0000 46         *text|
    000011  5a   000554 0000 00
    000012  9a   777766 0000 46         mseg_fs_interface_|add_acl_entries_seg
    000013  5a   000553 0000 00
    000014  9a   777764 0000 46         mseg_message_|add_message
    000015  5a   000552 0000 00
    000016  9a   777762 0000 46         mseg_fs_interface_|chname_seg
    000017  5a   000551 0000 00
    000020  9a   777760 0000 46         mseg_index_|close_seg
    000021  5a   000550 0000 00
    000022  9a   777756 0000 46         mseg_segment_|compact_seg
    000023  5a   000547 0000 00
    000024  9a   777754 0000 46         mseg_segment_|copy_seg
    000025  5a   000546 0000 00
    000026  9a   777752 0000 46         mseg_message_|count_messages
    000027  5a   000545 0000 00
    000030  9a   777750 0000 46         mseg_fs_interface_|create_seg
    000031  5a   000544 0000 00
    000032  9a   777746 0000 46         mseg_fs_interface_|delete_acl_entries_seg
    000033  5a   000543 0000 00
    000034  9a   777744 0000 46         mseg_message_|delete_message
    000035  5a   000542 0000 00
    000036  9a   777742 0000 46         mseg_fs_interface_|delete_seg
    000037  5a   000541 0000 00
    000040  9a   777740 0000 46         mseg_segment_|get_salvaged_flag_seg
    000041  5a   000540 0000 00
    000042  9a   777736 0000 46         mseg_segment_|get_wakeup_state_seg
    000043  5a   000537 0000 00
    000044  9a   777734 0000 46         mseg_index_|initiate_seg
    000045  5a   000536 0000 00
    000046  9a   777732 0000 46         mseg_fs_interface_|list_acl_seg
    000047  5a   000535 0000 00
    000050  9a   777730 0000 46         mseg_fs_interface_|list_acl_entries_seg
    000051  5a   000534 0000 00
    000052  9a   777726 0000 46         mseg_index_|open_seg
    000053  5a   000533 0000 00
    000054  9a   777724 0000 46         mseg_message_|read_message
    000055  5a   000532 0000 00
    000056  9a   777722 0000 46         mseg_fs_interface_|replace_acl_seg
    000057  5a   000531 0000 00
    000060  9a   777720 0000 46         mseg_segment_|reset_salvaged_flag_seg
    000061  5a   000530 0000 00
    000062  9a   777716 0000 46         mseg_segment_|reset_wakeup_state_seg
    000063  5a   000527 0000 00
    000064  9a   777714 0000 46         mseg_segment_|set_max_length_seg
    000065  5a   000526 0000 00
    000066  9a   777712 0000 46         mseg_fs_interface_|set_safety_switch_seg
    000067  5a   000525 0000 00
    000070  9a   777710 0000 46         mseg_segment_|set_wakeup_state_seg
    000071  5a   000524 0000 00
    000072  9a   777706 0000 46         mseg_message_|update_message
    000073  5a   000523 0000 00
    000074  9a   777704 0000 46         mseg_utils_|initialize
    000075  5a   000522 0000 00

FIRST REFERENCE TRAP LIST

    000076  aa   000000 000001
    000077  aa   000000 000001
    000100  2a   000010 000000
    000101  aa   000000 000000
SYMBOL INFORMATION

SYMBOL TABLE HEADER

    000000  aa   000000 000001
    000001  aa   163171 155142
    000002  aa   164162 145145
    000003  aa   000000 000004
    000004  aa   000000 112143
    000005  aa   305203 523135
    000006  aa   000000 113520
    000007  aa   465045 750701
    000010  aa   141154 155040
    000011  aa   040040 040040
    000012  aa   000024 000040
    000013  aa   000034 000040
    000014  aa   000044 000100
    000015  aa   000002 000002
    000016  aa   000064 000000
    000017  aa   000000 000133
    000020  aa   000000 000100
    000021  aa   000000 000110
    000022  aa   000125 000100
    000023  aa   000064 000000
    000024  aa   101114 115040
    000025  aa   126145 162163
    000026  aa   151157 156040
    000027  aa   040066 056066
    000030  aa   040040 116157
    000031  aa   166145 155142
    000032  aa   145162 040061
    000033  aa   071070 062040
    000034  aa   107112 157150
    000035  aa   156163 157156
    000036  aa   056123 171163
    000037  aa   115141 151156
    000040  aa   164056 141040
    000041  aa   040040 040040
    000042  aa   040040 040040
    000043  aa   040040 040040
    000044  aa   154151 163164
    000045  aa   040040 040040
    000046  aa   040040 040040
    000047  aa   040040 040040
    000050  aa   040040 040040
    000051  aa   040040 040040
    000052  aa   040040 040040
    000053  aa   040040 040040
    000054  aa   040040 040040
    000055  aa   040040 040040
    000056  aa   040040 040040
    000057  aa   040040 040040
    000060  aa   040040 040040
    000061  aa   040040 040040
    000062  aa   040040 040040
    000063  aa   040040 040040
    000064  aa   000000 000001
    000065  aa   000000 000001
    000066  aa   000072 000027
    000067  aa   135120 241324
    000070  aa   000000 113515
    000071  aa   120205 400000
    000072  aa   076163 160145          >spec>on>mseg>mseg_.alm
    000073  aa   143076 157156
    000074  aa   076155 163145
    000075  aa   147076 155163
    000076  aa   145147 137056
    000077  aa   141154 155040
               MULTICS ASSEMBLY CROSS REFERENCE LISTING

   Value        Symbol                   Source file   Line number

                *text                    mseg_:         80.
           0    add_acl_entries_seg      mseg_:         21.
           2    add_message              mseg_:         23.
           4    chname_seg               mseg_:         25.
           6    close_seg                mseg_:         27.
          10    compact_seg              mseg_:         29.
          12    copy_seg                 mseg_:         31.
          14    count_messages           mseg_:         33.
          16    create_seg               mseg_:         35.
          20    delete_acl_entries_seg   mseg_:         37.
          22    delete_message           mseg_:         39.
          24    delete_seg               mseg_:         41.
          26    get_salvaged_flag_seg    mseg_:         43.
          30    get_wakeup_state_seg     mseg_:         45.
                initialize               mseg_:         78.
          62    initialize_caller        mseg_:         74,   76,   80.
          32    initiate_seg             mseg_:         47.
          36    list_acl_entries_seg     mseg_:         51.
          34    list_acl_seg             mseg_:         49.
                mseg_fs_interface_       mseg_:         21,   25,   35,   37,   41,   49,   51,   57,   65.
                mseg_index_              mseg_:         27,   47,   53.
                mseg_message_            mseg_:         23,   33,   39,   55,   69.
                mseg_segment_            mseg_:         29,   31,   43,   45,   59,   61,   63,   67.
                mseg_utils_              mseg_:         78.
          40    open_seg                 mseg_:         53.
          42    read_message             mseg_:         55.
          44    replace_acl_seg          mseg_:         57.
          46    reset_salvaged_flag_seg  mseg_:         59.
          50    reset_wakeup_state_seg   mseg_:         61.
          52    set_max_length_seg       mseg_:         63.
          54    set_safety_switch_seg    mseg_:         65.
          56    set_wakeup_state_seg     mseg_:         67.
          60    update_message           mseg_:         69.


NO FATAL ERRORS


                                          -----------------------------------------------------------


Historical Background

This edition of the Multics software materials and documentation is provided and donated
to Massachusetts Institute of Technology by Group BULL including BULL HN Information Systems Inc.
as a contribution to computer science knowledge.
This donation is made also to give evidence of the common contributions of Massachusetts Institute of Technology,
Bell Laboratories, General Electric, Honeywell Information Systems Inc., Honeywell BULL Inc., Groupe BULL
and BULL HN Information Systems Inc. to the development of this operating system.
Multics development was initiated by Massachusetts Institute of Technology Project MAC (1963-1970),
renamed the MIT Laboratory for Computer Science and Artificial Intelligence in the mid 1970s, under the leadership
of Professor Fernando Jose Corbato. Users consider that Multics provided the best software architecture
for managing computer hardware properly and for executing programs. Many subsequent operating systems
incorporated Multics principles.
Multics was distributed in 1975 to 2000 by Group Bull in Europe , and in the U.S. by Bull HN Information Systems Inc.,
as successor in interest by change in name only to Honeywell Bull Inc. and Honeywell Information Systems Inc. .

                                          -----------------------------------------------------------

Permission to use, copy, modify, and distribute these programs and their documentation for any purpose and without
fee is hereby granted,provided that the below copyright notice and historical background appear in all copies
and that both the copyright notice and historical background and this permission notice appear in supporting
documentation, and that the names of MIT, HIS, BULL or BULL HN not be used in advertising or publicity pertaining
to distribution of the programs without specific prior written permission.
    Copyright 1972 by Massachusetts Institute of Technology and Honeywell Information Systems Inc.
    Copyright 2006 by BULL HN Information Systems Inc.
    Copyright 2006 by Bull SAS
    All Rights Reserved
