ASSEMBLY LISTING OF SEGMENT >spec>on>mseg>mseg_data_v2_.alm
ASSEMBLED ON:	05/09/85  1008.9 mst Thu
OPTIONS USED:	list
ASSEMBLED BY:	ALM Version  6.6  November 1982
ASSEMBLER CREATED:	09/21/83  1227.3 mst Wed

                                     1  " ***********************************************************
                                     2  " *                                                         *
                                     3  " * Copyright, (C) Honeywell Information Systems Inc., 1982 *
                                     4  " *                                                         *
                                     5  " * Copyright (c) 1972 by Massachusetts Institute of        *
                                     6  " * Technology and Honeywell Information Systems, Inc.      *
                                     7  " *                                                         *
                                     8  " ***********************************************************
                                     9
                        000000      10  segdef		max_message_size
                        000001      11  segdef		block_size
                        000002      12  segdef		version_number
                        000003      13  segdef		block_hdr_data
                        000004      14  segdef		block_trailer_data
                        000005      15  segdef		mseg_b36
                        000006      16  segdef		mseg_tr36
                                    17
    000000  aa   000000 004000      18  max_message_size:	dec 2048
    000001  aa   000000 000040      19  block_size:	dec 32
    000002  aa   000000 000002      20  version_number:	dec 2
    000003  aa   000000 000001      21  block_hdr_data:	dec 1
    000004  aa   000000 000015      22  block_trailer_data:	dec 13
    000005  aa   252525 252525      23  mseg_b36:		oct 252525252525
    000006  aa   777777 777777      24  mseg_tr36:	oct 777777777777
                                    25
                                    26  end

NO LITERALS

NAME DEFINITIONS FOR ENTRY POINTS AND SEGDEFS

    000010  5a   000003 000000
    000011  5a   000101 600000
    000012  aa   000000 000000
    000013  55   000012 000002
    000014  5a   000002 400003
    000015  55   000006 000012
    000016  aa  015 155 163 145
    000017  aa  147 137 144 141
    000020  aa  164 141 137 166
    000021  aa  062 137 000 000
    000022  55   000020 000003
    000023  0a   000006 400000
    000024  55   000015 000003
    000025  aa  011 155 163 145         mseg_tr36
    000026  aa  147 137 164 162
    000027  aa  063 066 000 000
    000030  55   000026 000012
    000031  0a   000005 400000
    000032  55   000023 000003
    000033  aa  010 155 163 145         mseg_b36
    000034  aa  147 137 142 063
    000035  aa  066 000 000 000
    000036  55   000036 000020
    000037  0a   000004 400000
    000040  55   000031 000003
    000041  aa  022 142 154 157         block_trailer_data
    000042  aa  143 153 137 164
    000043  aa  162 141 151 154
    000044  aa  145 162 137 144
    000045  aa  141 164 141 000
    000046  55   000045 000026
    000047  0a   000003 400000
    000050  55   000041 000003
    000051  aa  016 142 154 157         block_hdr_data
    000052  aa  143 153 137 150
    000053  aa  144 162 137 144
    000054  aa  141 164 141 000
    000055  55   000054 000036
    000056  0a   000002 400000
    000057  55   000050 000003
    000060  aa  016 166 145 162         version_number
    000061  aa  163 151 157 156
    000062  aa  137 156 165 155
    000063  aa  142 145 162 000
    000064  55   000062 000045
    000065  0a   000001 400000
    000066  55   000057 000003
    000067  aa  012 142 154 157         block_size
    000070  aa  143 153 137 163
    000071  aa  151 172 145 000
    000072  55   000072 000054
    000073  0a   000000 400000
    000074  55   000065 000003
    000075  aa  020 155 141 170         max_message_size
    000076  aa  137 155 145 163
    000077  aa  163 141 147 145
    000100  aa  137 163 151 172
    000101  aa  145 000 000 000
    000102  55   000002 000062
    000103  6a   000000 400002
    000104  55   000075 000003
    000105  aa  014 163 171 155         symbol_table
    000106  aa  142 157 154 137
    000107  aa  164 141 142 154
    000110  aa  145 000 000 000

DEFINITIONS HASH TABLE

    000111  aa   000000 000015
    000112  5a   000062 000000
    000113  aa   000000 000000
    000114  5a   000012 000000
    000115  5a   000036 000000
    000116  5a   000045 000000
    000117  aa   000000 000000
    000120  5a   000072 000000
    000121  5a   000020 000000
    000122  5a   000026 000000
    000123  5a   000054 000000
    000124  aa   000000 000000
    000125  aa   000000 000000
    000126  aa   000000 000000

NO EXTERNAL NAMES

NO TRAP POINTER WORDS

TYPE PAIR BLOCKS

    000127  aa   000001 000000
    000130  aa   000000 000000

INTERNAL EXPRESSION WORDS

    000131  aa   000000 000000
LINKAGE INFORMATION

    000000  aa   000000 000000
    000001  0a   000010 000000
    000002  aa   000000 000000
    000003  aa   000000 000000
    000004  aa   000000 000000
    000005  aa   000000 000000
    000006  22   000010 000010
    000007  a2   000000 000000
SYMBOL INFORMATION

SYMBOL TABLE HEADER

    000000  aa   000000 000001
    000001  aa   163171 155142
    000002  aa   164162 145145
    000003  aa   000000 000004
    000004  aa   000000 112143
    000005  aa   305203 523135
    000006  aa   000000 113520
    000007  aa   466467 023061
    000010  aa   141154 155040
    000011  aa   040040 040040
    000012  aa   000024 000040
    000013  aa   000034 000040
    000014  aa   000044 000100
    000015  aa   000002 000002
    000016  aa   000064 000000
    000017  aa   000000 000116
    000020  aa   000000 000102
    000021  aa   000000 000105
    000022  aa   000110 000102
    000023  aa   000064 000000
    000024  aa   101114 115040
    000025  aa   126145 162163
    000026  aa   151157 156040
    000027  aa   040066 056066
    000030  aa   040040 116157
    000031  aa   166145 155142
    000032  aa   145162 040061
    000033  aa   071070 062040
    000034  aa   107112 157150
    000035  aa   156163 157156
    000036  aa   056123 171163
    000037  aa   115141 151156
    000040  aa   164056 141040
    000041  aa   040040 040040
    000042  aa   040040 040040
    000043  aa   040040 040040
    000044  aa   154151 163164
    000045  aa   040040 040040
    000046  aa   040040 040040
    000047  aa   040040 040040
    000050  aa   040040 040040
    000051  aa   040040 040040
    000052  aa   040040 040040
    000053  aa   040040 040040
    000054  aa   040040 040040
    000055  aa   040040 040040
    000056  aa   040040 040040
    000057  aa   040040 040040
    000060  aa   040040 040040
    000061  aa   040040 040040
    000062  aa   040040 040040
    000063  aa   040040 040040
    000064  aa   000000 000001
    000065  aa   000000 000001
    000066  aa   000072 000037
    000067  aa   135120 241357
    000070  aa   000000 113515
    000071  aa   120651 400000
    000072  aa   076163 160145          >spec>on>mseg>mseg_data_v2_.alm
    000073  aa   143076 157156
    000074  aa   076155 163145
    000075  aa   147076 155163
    000076  aa   145147 137144
    000077  aa   141164 141137
    000100  aa   166062 137056
    000101  aa   141154 155040
               MULTICS ASSEMBLY CROSS REFERENCE LISTING

   Value        Symbol                   Source file   Line number

           3    block_hdr_data           mseg_data_v2_:       13,   21.
           1    block_size               mseg_data_v2_:       11,   19.
           4    block_trailer_data       mseg_data_v2_:       14,   22.
           0    max_message_size         mseg_data_v2_:       10,   18.
           5    mseg_b36                 mseg_data_v2_:       15,   23.
           6    mseg_tr36                mseg_data_v2_:       16,   24.
           2    version_number           mseg_data_v2_:       12,   20.


NO FATAL ERRORS


                                          -----------------------------------------------------------


Historical Background

This edition of the Multics software materials and documentation is provided and donated
to Massachusetts Institute of Technology by Group BULL including BULL HN Information Systems Inc.
as a contribution to computer science knowledge.
This donation is made also to give evidence of the common contributions of Massachusetts Institute of Technology,
Bell Laboratories, General Electric, Honeywell Information Systems Inc., Honeywell BULL Inc., Groupe BULL
and BULL HN Information Systems Inc. to the development of this operating system.
Multics development was initiated by Massachusetts Institute of Technology Project MAC (1963-1970),
renamed the MIT Laboratory for Computer Science and Artificial Intelligence in the mid 1970s, under the leadership
of Professor Fernando Jose Corbato. Users consider that Multics provided the best software architecture
for managing computer hardware properly and for executing programs. Many subsequent operating systems
incorporated Multics principles.
Multics was distributed in 1975 to 2000 by Group Bull in Europe , and in the U.S. by Bull HN Information Systems Inc.,
as successor in interest by change in name only to Honeywell Bull Inc. and Honeywell Information Systems Inc. .

                                          -----------------------------------------------------------

Permission to use, copy, modify, and distribute these programs and their documentation for any purpose and without
fee is hereby granted,provided that the below copyright notice and historical background appear in all copies
and that both the copyright notice and historical background and this permission notice appear in supporting
documentation, and that the names of MIT, HIS, BULL or BULL HN not be used in advertising or publicity pertaining
to distribution of the programs without specific prior written permission.
    Copyright 1972 by Massachusetts Institute of Technology and Honeywell Information Systems Inc.
    Copyright 2006 by BULL HN Information Systems Inc.
    Copyright 2006 by Bull SAS
    All Rights Reserved
