ASSEMBLY LISTING OF SEGMENT >spec>on>mseg>mseg_data_v3_.alm
ASSEMBLED ON:	05/09/85  1009.8 mst Thu
OPTIONS USED:	list
ASSEMBLED BY:	ALM Version  6.6  November 1982
ASSEMBLER CREATED:	09/21/83  1227.3 mst Wed

                                     1  " ***********************************************************
                                     2  " *                                                         *
                                     3  " * Copyright, (C) Honeywell Information Systems Inc., 1982 *
                                     4  " *                                                         *
                                     5  " * Copyright (c) 1974 by Massachusetts Institute of        *
                                     6  " * Technology and Honeywell Information Systems, Inc.      *
                                     7  " *                                                         *
                                     8  " * Copyright (c) 1972 by Massachusetts Institute of        *
                                     9  " * Technology and Honeywell Information Systems, Inc.      *
                                    10  " *                                                         *
                                    11  " ***********************************************************
                                    12
                                    13  "  Modified for version 3 message segments by J. Stern, 10/18/74
                                    14  "  Modified to increase max_message_size essentially to
                                    15  "  infinity by K. T. Pogran, 6/4/75
                                    16  "  Modified to temporarily limit max_message_size to
                                    17  "  2**18 bits (approximately) by Ken Pogran.
                                    18  "  Modified 3/77 by Charlie Davis for the installation of version 4 message segments
                                    19
                        000000      20  segdef		max_message_size
                        000001      21  segdef		block_size
                                    22
    000000  aa   000000 016160      23  max_message_size:	dec 7280		" A tad less than 2**18 bits
    000001  aa   000000 000040      24  block_size:	dec 32
                                    25
                                    26  end

NO LITERALS

NAME DEFINITIONS FOR ENTRY POINTS AND SEGDEFS

    000002  5a   000003 000000
    000003  5a   000037 600000
    000004  aa   000000 000000
    000005  55   000012 000002
    000006  5a   000002 400003
    000007  55   000006 000012
    000010  aa  015 155 163 145
    000011  aa  147 137 144 141
    000012  aa  164 141 137 166
    000013  aa  063 137 000 000
    000014  55   000020 000003
    000015  0a   000001 400000
    000016  55   000015 000003
    000017  aa  012 142 154 157         block_size
    000020  aa  143 153 137 163
    000021  aa  151 172 145 000
    000022  55   000030 000012
    000023  0a   000000 400000
    000024  55   000023 000003
    000025  aa  020 155 141 170         max_message_size
    000026  aa  137 155 145 163
    000027  aa  163 141 147 145
    000030  aa  137 163 151 172
    000031  aa  145 000 000 000
    000032  55   000002 000020
    000033  6a   000000 400002
    000034  55   000033 000003
    000035  aa  014 163 171 155         symbol_table
    000036  aa  142 157 154 137
    000037  aa  164 141 142 154
    000040  aa  145 000 000 000

DEFINITIONS HASH TABLE

    000041  aa   000000 000015
    000042  5a   000020 000000
    000043  aa   000000 000000
    000044  aa   000000 000000
    000045  aa   000000 000000
    000046  aa   000000 000000
    000047  aa   000000 000000
    000050  5a   000030 000000
    000051  aa   000000 000000
    000052  aa   000000 000000
    000053  5a   000012 000000
    000054  aa   000000 000000
    000055  aa   000000 000000
    000056  aa   000000 000000

NO EXTERNAL NAMES

NO TRAP POINTER WORDS

TYPE PAIR BLOCKS

    000057  aa   000001 000000
    000060  aa   000000 000000

INTERNAL EXPRESSION WORDS

    000061  aa   000000 000000
LINKAGE INFORMATION

    000000  aa   000000 000000
    000001  0a   000002 000000
    000002  aa   000000 000000
    000003  aa   000000 000000
    000004  aa   000000 000000
    000005  aa   000000 000000
    000006  22   000010 000010
    000007  a2   000000 000000
SYMBOL INFORMATION

SYMBOL TABLE HEADER

    000000  aa   000000 000001
    000001  aa   163171 155142
    000002  aa   164162 145145
    000003  aa   000000 000004
    000004  aa   000000 112143
    000005  aa   305203 523135
    000006  aa   000000 113520
    000007  aa   467004 002670
    000010  aa   141154 155040
    000011  aa   040040 040040
    000012  aa   000024 000040
    000013  aa   000034 000040
    000014  aa   000044 000100
    000015  aa   000002 000002
    000016  aa   000064 000000
    000017  aa   000000 000116
    000020  aa   000000 000102
    000021  aa   000000 000105
    000022  aa   000110 000102
    000023  aa   000064 000000
    000024  aa   101114 115040
    000025  aa   126145 162163
    000026  aa   151157 156040
    000027  aa   040066 056066
    000030  aa   040040 116157
    000031  aa   166145 155142
    000032  aa   145162 040061
    000033  aa   071070 062040
    000034  aa   107112 157150
    000035  aa   156163 157156
    000036  aa   056123 171163
    000037  aa   115141 151156
    000040  aa   164056 141040
    000041  aa   040040 040040
    000042  aa   040040 040040
    000043  aa   040040 040040
    000044  aa   154151 163164
    000045  aa   040040 040040
    000046  aa   040040 040040
    000047  aa   040040 040040
    000050  aa   040040 040040
    000051  aa   040040 040040
    000052  aa   040040 040040
    000053  aa   040040 040040
    000054  aa   040040 040040
    000055  aa   040040 040040
    000056  aa   040040 040040
    000057  aa   040040 040040
    000060  aa   040040 040040
    000061  aa   040040 040040
    000062  aa   040040 040040
    000063  aa   040040 040040
    000064  aa   000000 000001
    000065  aa   000000 000001
    000066  aa   000072 000037
    000067  aa   135120 241355
    000070  aa   000000 113515
    000071  aa   120653 000000
    000072  aa   076163 160145          >spec>on>mseg>mseg_data_v3_.alm
    000073  aa   143076 157156
    000074  aa   076155 163145
    000075  aa   147076 155163
    000076  aa   145147 137144
    000077  aa   141164 141137
    000100  aa   166063 137056
    000101  aa   141154 155040
               MULTICS ASSEMBLY CROSS REFERENCE LISTING

   Value        Symbol                   Source file   Line number

           1    block_size               mseg_data_v3_:       21,   24.
           0    max_message_size         mseg_data_v3_:       20,   23.


NO FATAL ERRORS


                                          -----------------------------------------------------------


Historical Background

This edition of the Multics software materials and documentation is provided and donated
to Massachusetts Institute of Technology by Group BULL including BULL HN Information Systems Inc.
as a contribution to computer science knowledge.
This donation is made also to give evidence of the common contributions of Massachusetts Institute of Technology,
Bell Laboratories, General Electric, Honeywell Information Systems Inc., Honeywell BULL Inc., Groupe BULL
and BULL HN Information Systems Inc. to the development of this operating system.
Multics development was initiated by Massachusetts Institute of Technology Project MAC (1963-1970),
renamed the MIT Laboratory for Computer Science and Artificial Intelligence in the mid 1970s, under the leadership
of Professor Fernando Jose Corbato. Users consider that Multics provided the best software architecture
for managing computer hardware properly and for executing programs. Many subsequent operating systems
incorporated Multics principles.
Multics was distributed in 1975 to 2000 by Group Bull in Europe , and in the U.S. by Bull HN Information Systems Inc.,
as successor in interest by change in name only to Honeywell Bull Inc. and Honeywell Information Systems Inc. .

                                          -----------------------------------------------------------

Permission to use, copy, modify, and distribute these programs and their documentation for any purpose and without
fee is hereby granted,provided that the below copyright notice and historical background appear in all copies
and that both the copyright notice and historical background and this permission notice appear in supporting
documentation, and that the names of MIT, HIS, BULL or BULL HN not be used in advertising or publicity pertaining
to distribution of the programs without specific prior written permission.
    Copyright 1972 by Massachusetts Institute of Technology and Honeywell Information Systems Inc.
    Copyright 2006 by BULL HN Information Systems Inc.
    Copyright 2006 by Bull SAS
    All Rights Reserved
