ASSEMBLY LISTING OF SEGMENT >spec>on>mtape>mtape_.alm
ASSEMBLED ON:	02/16/84  1254.0 mst Thu
OPTIONS USED:	list
ASSEMBLED BY:	ALM Version  6.6  November 1982
ASSEMBLER CREATED:	09/21/83  1227.3 mst Wed

                                     1  " ***********************************************************
                                     2  " *                                                         *
                                     3  " * Copyright, (C) Honeywell Information Systems Inc., 1983 *
                                     4  " *                                                         *
                                     5  " ***********************************************************
                                     6  "	Transfer vector for mtape_
                                     7  "
                                     8  "	Modification History:
                                     9  "
                                    10  "	Created by J. A. Bush 07/10/83
                                    11
    000000                          12  	name	mtape_
                                    13
                                    14  	macro	transfer
                              1     15  	segdef	&1
                              2     16  &1:	getlp
                              3     17  	tra	&2$&1
                              4     18  	&end
                                    19
                                    20  	transfer	mtape_attach,mtape_iox_
                        000000          	segdef	mtape_attach
    000000  aa  7 00046 2721 20         mtape_attach:	getlp
    000001  4a  4 00010 7101 20         	tra	mtape_iox_$mtape_attach
                                    21  	transfer	allocate_buffers,mtape_io_
                        000002          	segdef	allocate_buffers
    000002  aa  7 00046 2721 20         allocate_buffers:	getlp
    000003  4a  4 00012 7101 20         	tra	mtape_io_$allocate_buffers
                                    22  	transfer	flush_buffers,mtape_io_
                        000004          	segdef	flush_buffers
    000004  aa  7 00046 2721 20         flush_buffers:	getlp
    000005  4a  4 00014 7101 20         	tra	mtape_io_$flush_buffers
                                    23  	transfer	order,mtape_io_
                        000006          	segdef	order
    000006  aa  7 00046 2721 20         order:	getlp
    000007  4a  4 00016 7101 20         	tra	mtape_io_$order
                                    24  	transfer	read_block,mtape_io_
                        000010          	segdef	read_block
    000010  aa  7 00046 2721 20         read_block:	getlp
    000011  4a  4 00020 7101 20         	tra	mtape_io_$read_block
                                    25  	transfer	read_label,mtape_io_
                        000012          	segdef	read_label
    000012  aa  7 00046 2721 20         read_label:	getlp
    000013  4a  4 00022 7101 20         	tra	mtape_io_$read_label
                                    26  	transfer	set_mode,mtape_io_
                        000014          	segdef	set_mode
    000014  aa  7 00046 2721 20         set_mode:	getlp
    000015  4a  4 00024 7101 20         	tra	mtape_io_$set_mode
                                    27  	transfer	stop_tape,mtape_io_
                        000016          	segdef	stop_tape
    000016  aa  7 00046 2721 20         stop_tape:	getlp
    000017  4a  4 00026 7101 20         	tra	mtape_io_$stop_tape
                                    28  	transfer	write_block,mtape_io_
                        000020          	segdef	write_block
    000020  aa  7 00046 2721 20         write_block:	getlp
    000021  4a  4 00030 7101 20         	tra	mtape_io_$write_block
                                    29  	transfer	write_label,mtape_io_
                        000022          	segdef	write_label
    000022  aa  7 00046 2721 20         write_label:	getlp
    000023  4a  4 00032 7101 20         	tra	mtape_io_$write_label
                                    30  	transfer	demount,mtape_mount_cntl_
                        000024          	segdef	demount
    000024  aa  7 00046 2721 20         demount:	getlp
    000025  4a  4 00034 7101 20         	tra	mtape_mount_cntl_$demount
                                    31  	transfer	mount,mtape_mount_cntl_
                        000026          	segdef	mount
    000026  aa  7 00046 2721 20         mount:	getlp
    000027  4a  4 00036 7101 20         	tra	mtape_mount_cntl_$mount
                                    32  	transfer	volume_switch,mtape_mount_cntl_
                        000030          	segdef	volume_switch
    000030  aa  7 00046 2721 20         volume_switch:	getlp
    000031  4a  4 00040 7101 20         	tra	mtape_mount_cntl_$volume_switch
                                    33  	transfer	alloc,mtape_util_
                        000032          	segdef	alloc
    000032  aa  7 00046 2721 20         alloc:	getlp
    000033  4a  4 00042 7101 20         	tra	mtape_util_$alloc
                                    34  	transfer	error,mtape_util_
                        000034          	segdef	error
    000034  aa  7 00046 2721 20         error:	getlp
    000035  4a  4 00044 7101 20         	tra	mtape_util_$error
                                    35  	transfer	user_query,mtape_util_
                        000036          	segdef	user_query
    000036  aa  7 00046 2721 20         user_query:	getlp
    000037  4a  4 00046 7101 20         	tra	mtape_util_$user_query
                                    36  	transfer	mtape_cv_apd,mtape_cv_apd
                        000040          	segdef	mtape_cv_apd
    000040  aa  7 00046 2721 20         mtape_cv_apd:	getlp
    000041  4a  4 00050 7101 20         	tra	mtape_cv_apd$mtape_cv_apd
                                    37
                                    38  	end

NO LITERALS

NAME DEFINITIONS FOR ENTRY POINTS AND SEGDEFS

    000042  5a   000003 000000
    000043  5a   000166 600000
    000044  aa   000000 000000
    000045  55   000010 000002
    000046  5a   000002 400003
    000047  55   000006 000010
    000050  aa  006 155 164 141
    000051  aa  160 145 137 000
    000052  55   000017 000003
    000053  0a   000040 400000
    000054  55   000013 000003
    000055  aa  014 155 164 141         mtape_cv_apd
    000056  aa  160 145 137 143
    000057  aa  166 137 141 160
    000060  aa  144 000 000 000
    000061  55   000025 000010
    000062  0a   000036 400000
    000063  55   000022 000003
    000064  aa  012 165 163 145         user_query
    000065  aa  162 137 161 165
    000066  aa  145 162 171 000
    000067  55   000032 000017
    000070  0a   000034 400000
    000071  55   000030 000003
    000072  aa  005 145 162 162         error
    000073  aa  157 162 000 000
    000074  55   000037 000025
    000075  0a   000032 400000
    000076  55   000035 000003
    000077  aa  005 141 154 154         alloc
    000100  aa  157 143 000 000
    000101  55   000046 000032
    000102  0a   000030 400000
    000103  55   000042 000003
    000104  aa  015 166 157 154         volume_switch
    000105  aa  165 155 145 137
    000106  aa  163 167 151 164
    000107  aa  143 150 000 000
    000110  55   000053 000037
    000111  0a   000026 400000
    000112  55   000051 000003
    000113  aa  005 155 157 165         mount
    000114  aa  156 164 000 000
    000115  55   000060 000046
    000116  0a   000024 400000
    000117  55   000056 000003
    000120  aa  007 144 145 155         demount
    000121  aa  157 165 156 164
    000122  55   000066 000053
    000123  0a   000022 400000
    000124  55   000063 000003
    000125  aa  013 167 162 151         write_label
    000126  aa  164 145 137 154
    000127  aa  141 142 145 154
    000130  55   000074 000060
    000131  0a   000020 400000
    000132  55   000071 000003
    000133  aa  013 167 162 151         write_block
    000134  aa  164 145 137 142
    000135  aa  154 157 143 153
    000136  55   000102 000066
    000137  0a   000016 400000
    000140  55   000077 000003
    000141  aa  011 163 164 157         stop_tape
    000142  aa  160 137 164 141
    000143  aa  160 145 000 000
    000144  55   000110 000074
    000145  0a   000014 400000
    000146  55   000105 000003
    000147  aa  010 163 145 164         set_mode
    000150  aa  137 155 157 144
    000151  aa  145 000 000 000
    000152  55   000116 000102
    000153  0a   000012 400000
    000154  55   000113 000003
    000155  aa  012 162 145 141         read_label
    000156  aa  144 137 154 141
    000157  aa  142 145 154 000
    000160  55   000124 000110
    000161  0a   000010 400000
    000162  55   000121 000003
    000163  aa  012 162 145 141         read_block
    000164  aa  144 137 142 154
    000165  aa  157 143 153 000
    000166  55   000131 000116
    000167  0a   000006 400000
    000170  55   000127 000003
    000171  aa  005 157 162 144         order
    000172  aa  145 162 000 000
    000173  55   000140 000124
    000174  0a   000004 400000
    000175  55   000134 000003
    000176  aa  015 146 154 165         flush_buffers
    000177  aa  163 150 137 142
    000200  aa  165 146 146 145
    000201  aa  162 163 000 000
    000202  55   000150 000131
    000203  0a   000002 400000
    000204  55   000143 000003
    000205  aa  020 141 154 154         allocate_buffers
    000206  aa  157 143 141 164
    000207  aa  145 137 142 165
    000210  aa  146 146 145 162
    000211  aa  163 000 000 000
    000212  55   000157 000140
    000213  0a   000000 400000
    000214  55   000153 000003
    000215  aa  014 155 164 141         mtape_attach
    000216  aa  160 145 137 141
    000217  aa  164 164 141 143
    000220  aa  150 000 000 000
    000221  55   000002 000150
    000222  6a   000000 400002
    000223  55   000162 000003
    000224  aa  014 163 171 155         symbol_table
    000225  aa  142 157 154 137
    000226  aa  164 141 142 154
    000227  aa  145 000 000 000

DEFINITIONS HASH TABLE

    000230  aa   000000 000033
    000231  5a   000140 000000
    000232  aa   000000 000000
    000233  5a   000046 000000
    000234  aa   000000 000000
    000235  aa   000000 000000
    000236  aa   000000 000000
    000237  aa   000000 000000
    000240  aa   000000 000000
    000241  aa   000000 000000
    000242  aa   000000 000000
    000243  5a   000157 000000
    000244  5a   000032 000000
    000245  5a   000017 000000
    000246  5a   000124 000000
    000247  5a   000102 000000
    000250  5a   000025 000000
    000251  aa   000000 000000
    000252  5a   000131 000000
    000253  5a   000060 000000
    000254  5a   000066 000000
    000255  5a   000053 000000
    000256  5a   000037 000000
    000257  5a   000074 000000
    000260  5a   000110 000000
    000261  5a   000010 000000
    000262  5a   000116 000000
    000263  5a   000150 000000

EXTERNAL NAMES

    000264  aa  013 155 164 141         mtape_util_
    000265  aa  160 145 137 165
    000266  aa  164 151 154 137
    000267  aa  021 155 164 141         mtape_mount_cntl_
    000270  aa  160 145 137 155
    000271  aa  157 165 156 164
    000272  aa  137 143 156 164
    000273  aa  154 137 000 000
    000274  aa  011 155 164 141         mtape_io_
    000275  aa  160 145 137 151
    000276  aa  157 137 000 000
    000277  aa  012 155 164 141         mtape_iox_
    000300  aa  160 145 137 151
    000301  aa  157 170 137 000

NO TRAP POINTER WORDS

TYPE PAIR BLOCKS

    000302  aa   000004 000000
    000303  55   000013 000013
    000304  aa   000004 000000
    000305  55   000222 000022
    000306  aa   000004 000000
    000307  55   000222 000030
    000310  aa   000004 000000
    000311  55   000222 000035
    000312  aa   000004 000000
    000313  55   000225 000042
    000314  aa   000004 000000
    000315  55   000225 000051
    000316  aa   000004 000000
    000317  55   000225 000056
    000320  aa   000004 000000
    000321  55   000232 000063
    000322  aa   000004 000000
    000323  55   000232 000071
    000324  aa   000004 000000
    000325  55   000232 000077
    000326  aa   000004 000000
    000327  55   000232 000105
    000330  aa   000004 000000
    000331  55   000232 000113
    000332  aa   000004 000000
    000333  55   000232 000121
    000334  aa   000004 000000
    000335  55   000232 000127
    000336  aa   000004 000000
    000337  55   000232 000134
    000340  aa   000004 000000
    000341  55   000232 000143
    000342  aa   000004 000000
    000343  55   000235 000153
    000344  aa   000001 000000
    000345  aa   000000 000000

INTERNAL EXPRESSION WORDS

    000346  5a   000240 000000
    000347  5a   000242 000000
    000350  5a   000244 000000
    000351  5a   000246 000000
    000352  5a   000250 000000
    000353  5a   000252 000000
    000354  5a   000254 000000
    000355  5a   000256 000000
    000356  5a   000260 000000
    000357  5a   000262 000000
    000360  5a   000264 000000
    000361  5a   000266 000000
    000362  5a   000270 000000
    000363  5a   000272 000000
    000364  5a   000274 000000
    000365  5a   000276 000000
    000366  5a   000300 000000
    000367  aa   000000 000000
LINKAGE INFORMATION

    000000  aa   000000 000000
    000001  0a   000042 000000
    000002  aa   000000 000000
    000003  aa   000000 000000
    000004  aa   000000 000000
    000005  aa   000000 000000
    000006  22   000010 000052
    000007  a2   000000 000000
    000010  9a   777770 0000 46         mtape_iox_|mtape_attach
    000011  5a   000324 0000 00
    000012  9a   777766 0000 46         mtape_io_|allocate_buffers
    000013  5a   000323 0000 00
    000014  9a   777764 0000 46         mtape_io_|flush_buffers
    000015  5a   000322 0000 00
    000016  9a   777762 0000 46         mtape_io_|order
    000017  5a   000321 0000 00
    000020  9a   777760 0000 46         mtape_io_|read_block
    000021  5a   000320 0000 00
    000022  9a   777756 0000 46         mtape_io_|read_label
    000023  5a   000317 0000 00
    000024  9a   777754 0000 46         mtape_io_|set_mode
    000025  5a   000316 0000 00
    000026  9a   777752 0000 46         mtape_io_|stop_tape
    000027  5a   000315 0000 00
    000030  9a   777750 0000 46         mtape_io_|write_block
    000031  5a   000314 0000 00
    000032  9a   777746 0000 46         mtape_io_|write_label
    000033  5a   000313 0000 00
    000034  9a   777744 0000 46         mtape_mount_cntl_|demount
    000035  5a   000312 0000 00
    000036  9a   777742 0000 46         mtape_mount_cntl_|mount
    000037  5a   000311 0000 00
    000040  9a   777740 0000 46         mtape_mount_cntl_|volume_switch
    000041  5a   000310 0000 00
    000042  9a   777736 0000 46         mtape_util_|alloc
    000043  5a   000307 0000 00
    000044  9a   777734 0000 46         mtape_util_|error
    000045  5a   000306 0000 00
    000046  9a   777732 0000 46         mtape_util_|user_query
    000047  5a   000305 0000 00
    000050  9a   777730 0000 46         mtape_cv_apd|mtape_cv_apd
    000051  5a   000304 0000 00
SYMBOL INFORMATION

SYMBOL TABLE HEADER

    000000  aa   000000 000001
    000001  aa   163171 155142
    000002  aa   164162 145145
    000003  aa   000000 000004
    000004  aa   000000 112143
    000005  aa   305203 523135
    000006  aa   000000 112435
    000007  aa   371215 242454
    000010  aa   141154 155040
    000011  aa   040040 040040
    000012  aa   000024 000040
    000013  aa   000034 000040
    000014  aa   000044 000100
    000015  aa   000002 000002
    000016  aa   000064 000000
    000017  aa   000000 000126
    000020  aa   000000 000101
    000021  aa   000000 000107
    000022  aa   000120 000101
    000023  aa   000064 000000
    000024  aa   101114 115040
    000025  aa   126145 162163
    000026  aa   151157 156040
    000027  aa   040066 056066
    000030  aa   040040 116157
    000031  aa   166145 155142
    000032  aa   145162 040061
    000033  aa   071070 062040
    000034  aa   107112 157150
    000035  aa   156163 157156
    000036  aa   056123 171163
    000037  aa   115141 151156
    000040  aa   164056 155040
    000041  aa   040040 040040
    000042  aa   040040 040040
    000043  aa   040040 040040
    000044  aa   154151 163164
    000045  aa   040040 040040
    000046  aa   040040 040040
    000047  aa   040040 040040
    000050  aa   040040 040040
    000051  aa   040040 040040
    000052  aa   040040 040040
    000053  aa   040040 040040
    000054  aa   040040 040040
    000055  aa   040040 040040
    000056  aa   040040 040040
    000057  aa   040040 040040
    000060  aa   040040 040040
    000061  aa   040040 040040
    000062  aa   040040 040040
    000063  aa   040040 040040
    000064  aa   000000 000001
    000065  aa   000000 000001
    000066  aa   000072 000031
    000067  aa   124347 261506
    000070  aa   000000 112435
    000071  aa   367227 000000
    000072  aa   076163 160145          >spec>on>mtape>mtape_.alm
    000073  aa   143076 157156
    000074  aa   076155 164141
    000075  aa   160145 076155
    000076  aa   164141 160145
    000077  aa   137056 141154
    000100  aa   155040 040040
               MULTICS ASSEMBLY CROSS REFERENCE LISTING

   Value        Symbol                   Source file   Line number

          32    alloc                    mtape_:        33.
           2    allocate_buffers         mtape_:        21.
          24    demount                  mtape_:        30.
          34    error                    mtape_:        34.
           4    flush_buffers            mtape_:        22.
          26    mount                    mtape_:        31.
           0    mtape_attach             mtape_:        20.
          40    mtape_cv_apd             mtape_:        36.
                mtape_iox_               mtape_:        20.
                mtape_io_                mtape_:        21,   22,   23,   24,   25,   26,   27,   28,   29.
                mtape_mount_cntl_        mtape_:        30,   31,   32.
                mtape_util_              mtape_:        33,   34,   35.
           6    order                    mtape_:        23.
          10    read_block               mtape_:        24.
          12    read_label               mtape_:        25.
          14    set_mode                 mtape_:        26.
          16    stop_tape                mtape_:        27.
          36    user_query               mtape_:        35.
          30    volume_switch            mtape_:        32.
          20    write_block              mtape_:        28.
          22    write_label              mtape_:        29.


NO FATAL ERRORS


                                          -----------------------------------------------------------


Historical Background

This edition of the Multics software materials and documentation is provided and donated
to Massachusetts Institute of Technology by Group BULL including BULL HN Information Systems Inc.
as a contribution to computer science knowledge.
This donation is made also to give evidence of the common contributions of Massachusetts Institute of Technology,
Bell Laboratories, General Electric, Honeywell Information Systems Inc., Honeywell BULL Inc., Groupe BULL
and BULL HN Information Systems Inc. to the development of this operating system.
Multics development was initiated by Massachusetts Institute of Technology Project MAC (1963-1970),
renamed the MIT Laboratory for Computer Science and Artificial Intelligence in the mid 1970s, under the leadership
of Professor Fernando Jose Corbato. Users consider that Multics provided the best software architecture
for managing computer hardware properly and for executing programs. Many subsequent operating systems
incorporated Multics principles.
Multics was distributed in 1975 to 2000 by Group Bull in Europe , and in the U.S. by Bull HN Information Systems Inc.,
as successor in interest by change in name only to Honeywell Bull Inc. and Honeywell Information Systems Inc. .

                                          -----------------------------------------------------------

Permission to use, copy, modify, and distribute these programs and their documentation for any purpose and without
fee is hereby granted,provided that the below copyright notice and historical background appear in all copies
and that both the copyright notice and historical background and this permission notice appear in supporting
documentation, and that the names of MIT, HIS, BULL or BULL HN not be used in advertising or publicity pertaining
to distribution of the programs without specific prior written permission.
    Copyright 1972 by Massachusetts Institute of Technology and Honeywell Information Systems Inc.
    Copyright 2006 by BULL HN Information Systems Inc.
    Copyright 2006 by Bull SAS
    All Rights Reserved
