ASSEMBLY LISTING OF SEGMENT >spec>install>1170>new_sthedr_.alm
ASSEMBLED ON:	10/17/88  0942.1 mst Mon
OPTIONS USED:	-target l68                              list symbols
ASSEMBLED BY:	ALM Version 7.4 April 1987
ASSEMBLER CREATED:	11/02/87  1303.7 mst Mon

                                     1  " ***********************************************************
                                     2  " *                                                         *
                                     3  " * Copyright, (C) Honeywell Bull Inc., 1988                *
                                     4  " *                                                         *
                                     5  " * Copyright, (C) Honeywell Information Systems Inc., 1982 *
                                     6  " *                                                         *
                                     7  " * Copyright (c) 1972 by Massachusetts Institute of        *
                                     8  " * Technology and Honeywell Information Systems, Inc.      *
                                     9  " *                                                         *
                                    10  " ***********************************************************
                                    11
                                    12  " HISTORY COMMENTS:
                                    13  "  1) change(86-09-30,Oke), approve(86-09-30,MCR7543), audit(86-09-30,JRGray),
                                    14  "     install(86-10-08,MR12.0-1180):
                                    15  "     Allow ALM to support double word constants.
                                    16  "  2) change(86-10-01,JRGray), approve(86-10-01,MCR7507),
                                    17  "     audit(86-10-27,RWaters), install(86-11-12,MR12.0-1202):
                                    18  "     Modified to allow for access and modification of translator (generator)
                                    19  "     info.
                                    20  "  3) change(88-08-02,JRGray), approve(88-08-05,MCR7952),
                                    21  "     audit(88-09-30,WAAnderson), install(88-10-17,MR12.2-1169):
                                    22  "     Modified to make source_and_area info externally accessable. This is
                                    23  "     part of extended symbol table support.
                                    24  "                                                      END HISTORY COMMENTS
                                    25
                                    26
                                    27  " New object segment format symbol table header skeleton for ALM.
                                    28  " The version numbers must be updated any time that any part of ALM is changed.
                                    29  " Note: The version numbers in here are now overwritten by alm_
                                    30
                                    31  " Created on 03/16/72 at 00:35:06 by R F Mabee.
                                    32  " Modified 740905 by PG and ARD for installation of Version 4.5 (Version 2 PL/I).
                                    33  " Modified March 1, 1977 by Noel I. Morris for installation of Version 5.1
                                    34  " Modified March 24, 1977 by Noel I. Morris for installation of Version 6.0
                                    35  " Modified 8 August 1980 by M. N. Davidoff for Version 6.3
                                    36  " Modified 29 April 1981 by EBush for Version 6.4
                                    37  " Modified November 1982 by C. Hornig for version 6.6
                                    38  " Modified September 18 1985 by JRGray to support the setting of translator names
                                    39
    000000                          40  	name	new_sthedr_
                                    41
                                    42  	use	impure
                                    43  	join	/link/impure
                                    44
                        000010      45  	segdef	new_sthedr_
                        000016      46  	segdef	alm_creation_date,time_of_translation
                        000054      47  	segdef	alm_version_name,user_id,comment
                        000025      48  	segdef	text_and_link_boundaries
                        000026      49  	segdef	source_and_area
                        000032      50  	segdef	truncate_info
                        000027      51  	segdef	block_size
                        000030      52  	segdef	rel_bits_ptrs
                        000020      53  	segdef	gen_number,generator
                                    54
    000010                          55  new_sthedr_:
    000010  aa   000000 000001      56  sthead:	dec	1		" decl_vers
    000011  aa  163 171 155 142     57  	aci	"symbtree"	" identifier
    000012  aa  164 162 145 145
    000013                          58  gen_number:
    000013  aa   000000 000004      59  	dec	4		" gen_version_number
    000014                          60  alm_creation_date:
    000014  aa   000000 000000      61  	dec	0,0		" gen_creation_time
    000015  aa   000000 000000
    000016                          62  time_of_translation:
    000016  aa   000000 000000      63  	dec	0,0		" object_creation_time
    000017  aa   000000 000000
    000020                          64  generator:
    000020  aa  141 154 155 040     65  	aci	"alm     "	" generator
    000021  aa  040 040 040 040
    000022  aa   000024 000040      66  	zero	alm_version_name-sthead,32	" gen_version_name
    000023  aa   000034 000040      67  	zero	user_id-sthead,32	" userid
    000024  aa   000044 000100      68  	zero	comment-sthead,64	" comment
    000025                          69  text_and_link_boundaries:
    000025  aa   000000 000000      70  	zero	0,0		" text_boundary, link_boundary
    000026                          71  source_and_area:
    000026  aa   000064 000000      72  	zero	source_map-sthead,0	" source_map, area_pointer
    000027                          73  block_size:
    000027  aa   000000 000000      74  	zero	0,-		" sectionbase_backpointer, block_size
    000030                          75  rel_bits_ptrs:
    000030  aa   000000 000000      76  	zero	0,-		" next_block_thread, rel_text
    000031  aa   000000 000000      77  	zero	0,0		" rel_def, rel_link
    000032                          78  truncate_info:
    000032  aa   000000 000000      79  	zero	0,0		" rel_symbol, default_truncate
    000033  aa   000000 000000      80  	zero	-,0		" optional_truncate, padding
                                    81
                                    82  " End of the fixed format part of the symbol table header.
                                    83  " The rest of this information is pointed to from above.
                                    84
    000034  aa  101 114 115 040     85  alm_version_name:	aci	"ALM Version  6.7  October 1986",32
    000035  aa  126 145 162 163
    000036  aa  151 157 156 040
    000037  aa  040 066 056 067
    000040  aa  040 040 117 143
    000041  aa  164 157 142 145
    000042  aa  162 040 061 071
    000043  aa  070 066 040 040
                                    86
    000044  aa  040 040 040 040     87  user_id:		aci	" ",32
    000045  aa  040 040 040 040
    000046  aa  040 040 040 040
    000047  aa  040 040 040 040
    000050  aa  040 040 040 040
    000051  aa  040 040 040 040
    000052  aa  040 040 040 040
    000053  aa  040 040 040 040
                                    88
    000054  aa  040 040 040 040     89  comment:		aci	" ",64
    000055  aa  040 040 040 040
    000056  aa  040 040 040 040
    000057  aa  040 040 040 040
    000060  aa  040 040 040 040
    000061  aa  040 040 040 040
    000062  aa  040 040 040 040
    000063  aa  040 040 040 040
    000064  aa  040 040 040 040
    000065  aa  040 040 040 040
    000066  aa  040 040 040 040
    000067  aa  040 040 040 040
    000070  aa  040 040 040 040
    000071  aa  040 040 040 040
    000072  aa  040 040 040 040
    000073  aa  040 040 040 040
                                    90
                                    91  		even
    000074                          92  source_map:	null			" Compound structure is built here.
                                    93
                                    94  " End of the symbol table header skeleton.
                                    95  " The next object is used by alm to find out how long the header is.
                                    96
                                    97  	use	pure
                                    98  	join	/text/pure
                                    99
                        000000     100  	segdef	hdrlen
    000000  aa   000000 000064     101  hdrlen:	zero	0,source_map-sthead
                                   102
                                   103  " Relocation information for the symbol table header.
                                   104  " Everything is absolute in the header;" postp2_ assumes it.
                                   105
                        000001     106  	segdef	relocinfo
    000001                         107  relocinfo:
    000001                         108  	bss	,source_map-sthead
                                   109
                                   110  	end

NO LITERALS

NAME DEFINITIONS FOR ENTRY POINTS AND SEGDEFS

    000066  5a   000003 000000
    000067  5a   000164 600000
    000070  aa   000000 000000
    000071  55   000011 000002
    000072  5a   000002 400003
    000073  55   000006 000011
    000074  aa  013 156 145 167
    000075  aa  137 163 164 150
    000076  aa  145 144 162 137
    000077  55   000017 000003
    000100  0a   000001 400000
    000101  55   000014 000003
    000102  aa  011 162 145 154         relocinfo
    000103  aa  157 143 151 156
    000104  aa  146 157 000 000
    000105  55   000024 000011
    000106  0a   000000 400000
    000107  55   000022 000003
    000110  aa  006 150 144 162         hdrlen
    000111  aa  154 145 156 000
    000112  55   000032 000017
    000113  2a   000020 400001
    000114  55   000027 000003
    000115  aa  011 147 145 156         generator
    000116  aa  145 162 141 164
    000117  aa  157 162 000 000
    000120  55   000040 000024
    000121  2a   000013 400001
    000122  55   000035 000003
    000123  aa  012 147 145 156         gen_number
    000124  aa  137 156 165 155
    000125  aa  142 145 162 000
    000126  55   000047 000032
    000127  2a   000030 400001
    000130  55   000043 000003
    000131  aa  015 162 145 154         rel_bits_ptrs
    000132  aa  137 142 151 164
    000133  aa  163 137 160 164
    000134  aa  162 163 000 000
    000135  55   000055 000040
    000136  2a   000027 400001
    000137  55   000052 000003
    000140  aa  012 142 154 157         block_size
    000141  aa  143 153 137 163
    000142  aa  151 172 145 000
    000143  55   000064 000047
    000144  2a   000032 400001
    000145  55   000060 000003
    000146  aa  015 164 162 165         truncate_info
    000147  aa  156 143 141 164
    000150  aa  145 137 151 156
    000151  aa  146 157 000 000
    000152  55   000073 000055
    000153  2a   000026 400001
    000154  55   000067 000003
    000155  aa  017 163 157 165         source_and_area
    000156  aa  162 143 145 137
    000157  aa  141 156 144 137
    000160  aa  141 162 145 141
    000161  55   000105 000064
    000162  2a   000025 400001
    000163  55   000076 000003
    000164  aa  030 164 145 170         text_and_link_boundaries
    000165  aa  164 137 141 156
    000166  aa  144 137 154 151
    000167  aa  156 153 137 142
    000170  aa  157 165 156 144
    000171  aa  141 162 151 145
    000172  aa  163 000 000 000
    000173  55   000112 000073
    000174  2a   000054 400001
    000175  55   000110 000003
    000176  aa  007 143 157 155         comment
    000177  aa  155 145 156 164
    000200  55   000117 000105
    000201  2a   000044 400001
    000202  55   000115 000003
    000203  aa  007 165 163 145         user_id
    000204  aa  162 137 151 144
    000205  55   000127 000112
    000206  2a   000034 400001
    000207  55   000122 000003
    000210  aa  020 141 154 155         alm_version_name
    000211  aa  137 166 145 162
    000212  aa  163 151 157 156
    000213  aa  137 156 141 155
    000214  aa  145 000 000 000
    000215  55   000137 000117
    000216  2a   000016 400001
    000217  55   000132 000003
    000220  aa  023 164 151 155         time_of_translation
    000221  aa  145 137 157 146
    000222  aa  137 164 162 141
    000223  aa  156 163 154 141
    000224  aa  164 151 157 156
    000225  55   000147 000127
    000226  2a   000014 400001
    000227  55   000142 000003
    000230  aa  021 141 154 155         alm_creation_date
    000231  aa  137 143 162 145
    000232  aa  141 164 151 157
    000233  aa  156 137 144 141
    000234  aa  164 145 000 000
    000235  55   000155 000137
    000236  2a   000010 400001
    000237  55   000152 000003
    000240  aa  013 156 145 167         new_sthedr_
    000241  aa  137 163 164 150
    000242  aa  145 144 162 137
    000243  55   000002 000147
    000244  6a   000000 400002
    000245  55   000160 000003
    000246  aa  014 163 171 155         symbol_table
    000247  aa  142 157 154 137
    000250  aa  164 141 142 154
    000251  aa  145 000 000 000

DEFINITIONS HASH TABLE

    000252  aa   000000 000033
    000253  5a   000040 000000
    000254  5a   000117 000000
    000255  5a   000137 000000
    000256  5a   000073 000000
    000257  5a   000011 000000
    000260  5a   000017 000000
    000261  aa   000000 000000
    000262  aa   000000 000000
    000263  aa   000000 000000
    000264  5a   000105 000000
    000265  5a   000047 000000
    000266  5a   000147 000000
    000267  5a   000155 000000
    000270  aa   000000 000000
    000271  aa   000000 000000
    000272  5a   000112 000000
    000273  aa   000000 000000
    000274  aa   000000 000000
    000275  aa   000000 000000
    000276  aa   000000 000000
    000277  5a   000127 000000
    000300  5a   000032 000000
    000301  5a   000024 000000
    000302  aa   000000 000000
    000303  aa   000000 000000
    000304  5a   000055 000000
    000305  5a   000064 000000

NO EXTERNAL NAMES

NO TRAP POINTER WORDS

TYPE PAIR BLOCKS

    000306  aa   000001 000000
    000307  aa   000000 000000

INTERNAL EXPRESSION WORDS

LINKAGE INFORMATION

    000000  aa   000000 000000
    000001  0a   000066 000000
    000002  aa   000000 000000
    000003  aa   000000 000000
    000004  aa   000000 000000
    000005  aa   000000 000000
    000006  22   000074 000074
    000007  a2   000000 000064
SYMBOL INFORMATION

SYMBOL TABLE HEADER

    000000  aa   000000 000001
    000001  aa   163171 155142
    000002  aa   164162 145145
    000003  aa   000000 000007
    000004  aa   000000 115705
    000005  aa   073761 335527
    000006  aa   000000 116574
    000007  aa   773325 107243
    000010  aa   141154 155040
    000011  aa   040040 040040
    000012  aa   000024 000040
    000013  aa   000034 000040
    000014  aa   000044 000100
    000015  aa   000002 000002
    000016  aa   000064 000000
    000017  aa   000000 000152
    000020  aa   000000 000103
    000021  aa   000116 000110
    000022  aa   000144 000103
    000023  aa   000064 000000
    000024  aa   101114 115040
    000025  aa   126145 162163
    000026  aa   151157 156040
    000027  aa   067056 064040
    000030  aa   101160 162151
    000031  aa   154040 061071
    000032  aa   070067 040040
    000033  aa   040040 040040
    000034  aa   110151 162156
    000035  aa   145151 163145
    000036  aa   156056 123171
    000037  aa   163115 141151
    000040  aa   156164 056141
    000041  aa   040040 040040
    000042  aa   040040 040040
    000043  aa   040040 040040
    000044  aa   055164 141162
    000045  aa   147145 164040
    000046  aa   154066 070040
    000047  aa   040040 040040
    000050  aa   040040 040040
    000051  aa   040040 040040
    000052  aa   040040 040040
    000053  aa   040040 040040
    000054  aa   040040 040040
    000055  aa   040040 040040
    000056  aa   040154 151163
    000057  aa   164040 163171
    000060  aa   155142 157154
    000061  aa   163040 040040
    000062  aa   040040 040040
    000063  aa   040040 040040
    000064  aa   000000 000001
    000065  aa   000000 000001
    000066  aa   000072 000042
    000067  aa   165715 122725
    000070  aa   000000 116574
    000071  aa   765620 600000
    000072  aa   076163 160145          >spec>install>1170>new_sthedr_.alm
    000073  aa   143076 151156
    000074  aa   163164 141154
    000075  aa   154076 061061
    000076  aa   067060 076156
    000077  aa   145167 137163
    000100  aa   164150 145144
    000101  aa   162137 056141
    000102  aa   154155 040040
               MULTICS ASSEMBLY CROSS REFERENCE LISTING

   Value        Symbol                   Source file   Line number

          14    alm_creation_date        new_sthedr_:   46,   60.
          34    alm_version_name         new_sthedr_:   47,   66,   85.
          27    block_size               new_sthedr_:   51,   73.
          54    comment                  new_sthedr_:   47,   68,   89.
          20    generator                new_sthedr_:   53,   64.
          13    gen_number               new_sthedr_:   53,   58.
           0    hdrlen                   new_sthedr_:  100,  101.
          10    impure                   new_sthedr_:   42,   43.
          10    new_sthedr_              new_sthedr_:   45,   55.
           0    pure                     new_sthedr_:   97,   98.
           1    relocinfo                new_sthedr_:  106,  107.
          30    rel_bits_ptrs            new_sthedr_:   52,   75.
          26    source_and_area          new_sthedr_:   49,   71.
          74    source_map               new_sthedr_:   72,   92,  101,  108.
          10    sthead                   new_sthedr_:   56,   66,   67,   68,   72,  101,  108.
          25    text_and_link_boundaries       new_sthedr_:   48,   69.
          16    time_of_translation      new_sthedr_:   46,   62.
          32    truncate_info            new_sthedr_:   50,   78.
          44    user_id                  new_sthedr_:   47,   67,   87.


NO FATAL ERRORS


                                          -----------------------------------------------------------


Historical Background

This edition of the Multics software materials and documentation is provided and donated
to Massachusetts Institute of Technology by Group BULL including BULL HN Information Systems Inc.
as a contribution to computer science knowledge.
This donation is made also to give evidence of the common contributions of Massachusetts Institute of Technology,
Bell Laboratories, General Electric, Honeywell Information Systems Inc., Honeywell BULL Inc., Groupe BULL
and BULL HN Information Systems Inc. to the development of this operating system.
Multics development was initiated by Massachusetts Institute of Technology Project MAC (1963-1970),
renamed the MIT Laboratory for Computer Science and Artificial Intelligence in the mid 1970s, under the leadership
of Professor Fernando Jose Corbato. Users consider that Multics provided the best software architecture
for managing computer hardware properly and for executing programs. Many subsequent operating systems
incorporated Multics principles.
Multics was distributed in 1975 to 2000 by Group Bull in Europe , and in the U.S. by Bull HN Information Systems Inc.,
as successor in interest by change in name only to Honeywell Bull Inc. and Honeywell Information Systems Inc. .

                                          -----------------------------------------------------------

Permission to use, copy, modify, and distribute these programs and their documentation for any purpose and without
fee is hereby granted,provided that the below copyright notice and historical background appear in all copies
and that both the copyright notice and historical background and this permission notice appear in supporting
documentation, and that the names of MIT, HIS, BULL or BULL HN not be used in advertising or publicity pertaining
to distribution of the programs without specific prior written permission.
    Copyright 1972 by Massachusetts Institute of Technology and Honeywell Information Systems Inc.
    Copyright 2006 by BULL HN Information Systems Inc.
    Copyright 2006 by Bull SAS
    All Rights Reserved
