ASSEMBLY LISTING OF SEGMENT >spec>temp>famis1>opening_manager_.alm
ASSEMBLED ON:	01/03/85  1427.7 mst Thu
OPTIONS USED:	list
ASSEMBLED BY:	ALM Version  6.6  November 1982
ASSEMBLER CREATED:	09/21/83  1227.3 mst Wed

                                     1  " ***********************************************************
                                     2  " *                                                         *
                                     3  " * Copyright, (C) Honeywell Information Systems Inc., 1983 *
                                     4  " *                                                         *
                                     5  " ***********************************************************
    000000                           6  	name	opening_manager_
                                     7
                                     8  " Modified:
                                     9  "
                                    10  " Macro to generate a call to an external entrypoint in the manager
                                    11
                                    12  	macro	ext_transfer
                              1     13  	segdef	&1
                              2     14  &1:	getlp
                              3     15  	tra	&2
                              4     16
                              5     17  	&end
                                    18
                                    19  	ext_transfer init,om_init$om_init
                        000000          	segdef	init
    000000  aa  7 00046 2721 20         init:	getlp
    000001  4a  4 00010 7101 20         	tra	om_init$om_init

                                    20  	ext_transfer get_opening,om_get_opening$om_get_opening
                        000002          	segdef	get_opening
    000002  aa  7 00046 2721 20         get_opening:	getlp
    000003  4a  4 00012 7101 20         	tra	om_get_opening$om_get_opening

                                    21  	ext_transfer put_opening,om_put_opening$om_put_opening
                        000004          	segdef	put_opening
    000004  aa  7 00046 2721 20         put_opening:	getlp
    000005  4a  4 00014 7101 20         	tra	om_put_opening$om_put_opening

                                    22  	ext_transfer free_opening,om_free_opening$om_free_opening
                        000006          	segdef	free_opening
    000006  aa  7 00046 2721 20         free_opening:	getlp
    000007  4a  4 00016 7101 20         	tra	om_free_opening$om_free_opening

                                    23
                                    24  	end

NO LITERALS

NAME DEFINITIONS FOR ENTRY POINTS AND SEGDEFS

    000010  5a   000003 000000
    000011  5a   000052 600000
    000012  aa   000000 000000
    000013  55   000013 000002
    000014  5a   000002 400003
    000015  55   000006 000013
    000016  aa  020 157 160 145
    000017  aa  156 151 156 147
    000020  aa  137 155 141 156
    000021  aa  141 147 145 162
    000022  aa  137 000 000 000
    000023  55   000022 000003
    000024  0a   000006 400000
    000025  55   000016 000003
    000026  aa  014 146 162 145         free_opening
    000027  aa  145 137 157 160
    000030  aa  145 156 151 156
    000031  aa  147 000 000 000
    000032  55   000030 000013
    000033  0a   000004 400000
    000034  55   000025 000003
    000035  aa  013 160 165 164         put_opening
    000036  aa  137 157 160 145
    000037  aa  156 151 156 147
    000040  55   000036 000022
    000041  0a   000002 400000
    000042  55   000033 000003
    000043  aa  013 147 145 164         get_opening
    000044  aa  137 157 160 145
    000045  aa  156 151 156 147
    000046  55   000043 000030
    000047  0a   000000 400000
    000050  55   000041 000003
    000051  aa  004 151 156 151         init
    000052  aa  164 000 000 000
    000053  55   000002 000036
    000054  6a   000000 400002
    000055  55   000046 000003
    000056  aa  014 163 171 155         symbol_table
    000057  aa  142 157 154 137
    000060  aa  164 141 142 154
    000061  aa  145 000 000 000

DEFINITIONS HASH TABLE

    000062  aa   000000 000015
    000063  aa   000000 000000
    000064  5a   000022 000000
    000065  5a   000013 000000
    000066  aa   000000 000000
    000067  aa   000000 000000
    000070  aa   000000 000000
    000071  5a   000043 000000
    000072  aa   000000 000000
    000073  5a   000030 000000
    000074  aa   000000 000000
    000075  5a   000036 000000
    000076  aa   000000 000000
    000077  aa   000000 000000

EXTERNAL NAMES

    000100  aa  017 157 155 137         om_free_opening
    000101  aa  146 162 145 145
    000102  aa  137 157 160 145
    000103  aa  156 151 156 147
    000104  aa  016 157 155 137         om_put_opening
    000105  aa  160 165 164 137
    000106  aa  157 160 145 156
    000107  aa  151 156 147 000
    000110  aa  016 157 155 137         om_get_opening
    000111  aa  147 145 164 137
    000112  aa  157 160 145 156
    000113  aa  151 156 147 000
    000114  aa  007 157 155 137         om_init
    000115  aa  151 156 151 164

NO TRAP POINTER WORDS

TYPE PAIR BLOCKS

    000116  aa   000004 000000
    000117  55   000070 000070
    000120  aa   000004 000000
    000121  55   000074 000074
    000122  aa   000004 000000
    000123  55   000100 000100
    000124  aa   000004 000000
    000125  55   000104 000104
    000126  aa   000001 000000
    000127  aa   000000 000000

INTERNAL EXPRESSION WORDS

    000130  5a   000106 000000
    000131  5a   000110 000000
    000132  5a   000112 000000
    000133  5a   000114 000000
LINKAGE INFORMATION

    000000  aa   000000 000000
    000001  0a   000010 000000
    000002  aa   000000 000000
    000003  aa   000000 000000
    000004  aa   000000 000000
    000005  aa   000000 000000
    000006  22   000010 000020
    000007  a2   000000 000000
    000010  9a   777770 0000 46         om_init|om_init
    000011  5a   000123 0000 00
    000012  9a   777766 0000 46         om_get_opening|om_get_opening
    000013  5a   000122 0000 00
    000014  9a   777764 0000 46         om_put_opening|om_put_opening
    000015  5a   000121 0000 00
    000016  9a   777762 0000 46         om_free_opening|om_free_opening
    000017  5a   000120 0000 00
SYMBOL INFORMATION

SYMBOL TABLE HEADER

    000000  aa   000000 000001
    000001  aa   163171 155142
    000002  aa   164162 145145
    000003  aa   000000 000004
    000004  aa   000000 112143
    000005  aa   305203 523135
    000006  aa   000000 113262
    000007  aa   324231 314726
    000010  aa   141154 155040
    000011  aa   040040 040040
    000012  aa   000024 000040
    000013  aa   000034 000040
    000014  aa   000044 000100
    000015  aa   000002 000002
    000016  aa   000064 000000
    000017  aa   000000 000122
    000020  aa   000000 000104
    000021  aa   000000 000107
    000022  aa   000114 000104
    000023  aa   000064 000000
    000024  aa   101114 115040
    000025  aa   126145 162163
    000026  aa   151157 156040
    000027  aa   040066 056066
    000030  aa   040040 116157
    000031  aa   166145 155142
    000032  aa   145162 040061
    000033  aa   071070 062040
    000034  aa   107112 157150
    000035  aa   156163 157156
    000036  aa   056123 171163
    000037  aa   115141 151156
    000040  aa   164056 155040
    000041  aa   040040 040040
    000042  aa   040040 040040
    000043  aa   040040 040040
    000044  aa   154151 163164
    000045  aa   040040 040040
    000046  aa   040040 040040
    000047  aa   040040 040040
    000050  aa   040040 040040
    000051  aa   040040 040040
    000052  aa   040040 040040
    000053  aa   040040 040040
    000054  aa   040040 040040
    000055  aa   040040 040040
    000056  aa   040040 040040
    000057  aa   040040 040040
    000060  aa   040040 040040
    000061  aa   040040 040040
    000062  aa   040040 040040
    000063  aa   040040 040040
    000064  aa   000000 000001
    000065  aa   000000 000001
    000066  aa   000072 000046
    000067  aa   132620 757101
    000070  aa   000000 113262
    000071  aa   215653 000000
    000072  aa   076163 160145          >spec>temp>famis1>opening_manager_.alm
    000073  aa   143076 164145
    000074  aa   155160 076146
    000075  aa   141155 151163
    000076  aa   061076 157160
    000077  aa   145156 151156
    000100  aa   147137 155141
    000101  aa   156141 147145
    000102  aa   162137 056141
    000103  aa   154155 040040
               MULTICS ASSEMBLY CROSS REFERENCE LISTING

   Value        Symbol                   Source file   Line number

           6    free_opening             opening_manager_:    22.
           2    get_opening              opening_manager_:    20.
           0    init                     opening_manager_:    19.
                om_free_opening          opening_manager_:    22.
                om_get_opening           opening_manager_:    20.
                om_init                  opening_manager_:    19.
                om_put_opening           opening_manager_:    21.
           4    put_opening              opening_manager_:    21.


NO FATAL ERRORS


                                          -----------------------------------------------------------


Historical Background

This edition of the Multics software materials and documentation is provided and donated
to Massachusetts Institute of Technology by Group BULL including BULL HN Information Systems Inc.
as a contribution to computer science knowledge.
This donation is made also to give evidence of the common contributions of Massachusetts Institute of Technology,
Bell Laboratories, General Electric, Honeywell Information Systems Inc., Honeywell BULL Inc., Groupe BULL
and BULL HN Information Systems Inc. to the development of this operating system.
Multics development was initiated by Massachusetts Institute of Technology Project MAC (1963-1970),
renamed the MIT Laboratory for Computer Science and Artificial Intelligence in the mid 1970s, under the leadership
of Professor Fernando Jose Corbato. Users consider that Multics provided the best software architecture
for managing computer hardware properly and for executing programs. Many subsequent operating systems
incorporated Multics principles.
Multics was distributed in 1975 to 2000 by Group Bull in Europe , and in the U.S. by Bull HN Information Systems Inc.,
as successor in interest by change in name only to Honeywell Bull Inc. and Honeywell Information Systems Inc. .

                                          -----------------------------------------------------------

Permission to use, copy, modify, and distribute these programs and their documentation for any purpose and without
fee is hereby granted,provided that the below copyright notice and historical background appear in all copies
and that both the copyright notice and historical background and this permission notice appear in supporting
documentation, and that the names of MIT, HIS, BULL or BULL HN not be used in advertising or publicity pertaining
to distribution of the programs without specific prior written permission.
    Copyright 1972 by Massachusetts Institute of Technology and Honeywell Information Systems Inc.
    Copyright 2006 by BULL HN Information Systems Inc.
    Copyright 2006 by Bull SAS
    All Rights Reserved
