ASSEMBLY LISTING OF SEGMENT >udd>sm>ds>w>ml>oplook_.alm
ASSEMBLED ON:	04/18/00  1125.5 mdt Tue
OPTIONS USED:	list symbols
ASSEMBLED BY:	ALM Version 8.14 March 1989
ASSEMBLER CREATED:	06/09/89  1102.3 mdt Fri

                                     1  " ***********************************************************
                                     2  " *                                                         *
                                     3  " * Copyright, (C) Honeywell Bull Inc., 1988                *
                                     4  " *                                                         *
                                     5  " * Copyright, (C) Honeywell Information Systems Inc., 1982 *
                                     6  " *                                                         *
                                     7  " * Copyright (c) 1972 by Massachusetts Institute of        *
                                     8  " * Technology and Honeywell Information Systems, Inc.      *
                                     9  " *                                                         *
                                    10  " ***********************************************************
                                    11
                                    12  "	name	oplook_		Look up op in table and return 645 machine code.
                                    13
                                    14  "                   Modified  on 09/30/80 by E Bush to implement decors.
                                    15  "                   Modified  on 06/15/75 by Eugene E Wiatrowski
                                    16  "		Modified on 08/08/73 at 22:20:48 by R F Mabee.
                                    17  "		Modified in June 1973 by R F Mabee to add EIS and related instructions.
                                    18  "		Modified on 12 November 1972 by R F Mabee to fix short return for followon.
                                    19  "		Modified on 08/17/72 at 23:00:38 by R F Mabee. Added 6180 opcodes.
                                    20  "		Modified 12 November 1970, R H Campbell, for lam, fstr.
                                    21
                                    22  "		The table is maintained alphabetically in two tables.
                                    23  "		The first table contains double word entries
                                    24  "		of the ASCII opcode, left justified.
                                    25  "		The second table contains the binary equivalence,
                                    26  "		either as an opcode or a pseudo-op number.
                                    27  "		The search procedure is a
                                    28  "		binary search with termination on the end of the list.
                                    29
                                    30
                        000004      31  	equ	sym,4
                                    32
                        000000      33  	entry	oplook_		Entry to find opcode.
                        000072      34  	entry	reset		Entry to reset at start of each pass.
                        000077      35  	entry	redefine		Entry to redefine op as macro.
                                    36
                                    37  
                                    38
                                    39  	use	executable
                                    40
    000000                          41  oplook_:
    000000  aa  0 00002 4501 20     42  	stz	ap|2,*		Clear all returned values.
    000001  aa  0 00004 4501 20     43  	stz	ap|4,*
    000002  aa  0 00006 4501 20     44  	stz	ap|6,*
                                    45
    000003  0a   000014 7070 00     46  	tsx7	lookop		Look up opcode
    000004  0a   000012 7100 00     47  	tra	opnfnd		Error return.
    000005  0a   003455 2210 01     48  	ldx1	valtbl,au		Get the type field.
    000006  aa  0 00004 4411 20     49  	sxl1	ap|4,*		Deposit it.
    000007  0a   003455 7210 01     50  	lxl1	valtbl,au		Get the opcode.
    000010  aa  0 00006 4411 20     51  	sxl1	ap|6,*		Deposit it.
    000011  aa  7 00044 7101 20     52  exit:	short_return		Do a short return because we did no save on entry.
                                    53
    000012                          54  opnfnd:	null			Op-code not found.
    000012  aa  0 00002 0541 20     55  	aos	ap|2,*		Set bad op flag.
    000013  0a   000011 7100 00     56  	tra	exit		Then return to caller.
                                    57
                                    58  
    000014  4a  4 00042 3521 20     59  lookop:	eppbp	eb_data_$varcom+sym	bp -> symbol for comparison
    000015  aa  2 00000 2351 00     60  	lda	bp|0		First word of symbol in A.
    000016  aa   000033 7710 00     61  	arl	36-9		Get count field in AL.
    000017  aa   000010 1150 07     62  	cmpa	8,dl		More than 7 characters?
    000020  0a   000045 6050 00     63  	tpl	look_long		If so, special lookup.
                                    64
    000021  aa  2 00000 2371 00     65  	ldaq	bp|0		Symbol to match must be on an even word.
    000022  aa   000011 7370 00     66  	lls	9		Shift out the character count.
    000023  aa   000000 6200 00     67  	eax0	0		xr0 used as ptr into optable.
    000024  aa   000012 6210 00     68  	eax1	cycles		xr1 used as ptr into table of xr mods.
    000025  0a   000057 0600 11     69  stepup:	adx0	powers,1		Go higher.
    000026  aa   003350 1000 03     70  	cmpx0	num_ops*2,du	Check for too high.
    000027  0a   000031 6040 00     71  	tmi	loop		If OK try it, otherwise backup.
    000030  0a   000057 1600 11     72  backup:	sbx0	powers,1		Go lower.
    000031  aa   777777 6210 11     73  loop:	eax1	-1,1		Decrement loop counter.
    000032  aa   000000 6040 17     74  	tmi	0,7		Op not found.
    000033  0a   000106 1170 10     75  	cmpaq	optbl,0		Look for first word of op.
    000034  0a   000030 6040 00     76  	tmi	backup		ASCII symbol < table -- go lower.
    000035  0a   000025 6010 00     77  	tnz	stepup		ASCII symbol > table entry, go higher.
                                    78  "				We have the right entry -- get the info on it.
    000036  aa   000000 6350 10     79  	eaa	0,0		Move the pointer to a.
    000037  aa   000001 7310 00     80  	ars	1		Divide it by two, valtbl entries are one word long.
    000040  aa   005101 0644 00     81  opfnd:	sztl	(),(pr,au),bool(05)	Test for redefinition.
    000041  0a   000041 000000      82  	descb	*,0
    000042  9a   400010 000001      83  	descb	lp|undefined_op_list,1
    000043  aa   000000 6010 17     84  	tnz	0,7		If redefined, say it's not found.
    000044  aa   000001 7100 17     85  	tra	1,7		Take successful return.
                                    86
    000045                          87  look_long:
    000045  aa   000146 6200 00     88  	eax0	n_long_ops*6-6	Initialize table pointer.
    000046                          89  long_loop:
    000046  0a   005241 3534 10     90  	eppbb	long_op_table,0	bb -> table entry
    000047  aa  3 00000 2351 00     91  	lda	bb|0		Get table entry in AU.
    000050  aa  0 00100 1065 00     92  	cmpc	(pr),(pr)		compare with symbol
    000051  aa   200000 000024      93  	desc9a	bp|0,20
    000052  aa   300001 000024      94  	desc9a	bb|1,20
    000053  0a   000040 6000 00     95  	tze	opfnd		Got'cha.
                                    96
    000054  aa   777772 6200 10     97  	eax0	-6,0		Step to next entry.
    000055  0a   000046 6050 00     98  	tpl	long_loop		If more, loop.
    000056  aa   000000 7100 17     99  	tra	0,7		If not, op not found.
                                   100
                                   101  "	Table of numbers to increase and decrease index by powers of two.
                                   102
    000057  aa   000000 000000     103  powers:	zero	0,0		End of the line, not there.
    000060  aa   000002 000000     104  	zero	2,0
    000061  aa   000004 000000     105  	zero	4,0
    000062  aa   000010 000000     106  	zero	8,0
    000063  aa   000020 000000     107  	zero	16,0
    000064  aa   000040 000000     108  	zero	32,0
    000065  aa   000100 000000     109  	zero	64,0
    000066  aa   000200 000000     110  	zero	128,0
    000067  aa   000400 000000     111  	zero	256,0
    000070  aa   001000 000000     112  	zero	512,0
    000071  aa   002000 000000     113  	zero	1024,0
                        000012     114  	equ	cycles,*-powers-1	Maximum number of comparisons.
                                   115
                                   116  
                                   117
    000072  aa   001564 6200 00    118  reset:	eax0	num_ops		Number of operations in X0.
    000073  aa   000140 0604 00    119  	csl	(),(pr,rl),bool(00)	Reset undefined op list.
    000074  0a   000074 000000     120  	descb	*,0
    000075  9a   400010 000010     121  	descb	lp|undefined_op_list,x0
                                   122
    000076  aa  7 00044 7101 20    123  	short_return
                                   124
                                   125
    000077  0a   000014 7070 00    126  redefine:	tsx7	lookop		Find opcode.
    000100  0a   000011 7100 00    127  	tra	exit		If not found, just return.
                                   128
    000101  aa   017101 0604 00    129  	csl	(),(pr,au),bool(17)	Turn on undefined bit.
    000102  0a   000102 000000     130  	descb	*,0
    000103  9a   400010 000001     131  	descb	lp|undefined_op_list,1
                                   132
    000104  aa  7 00044 7101 20    133  	short_return
                                   134
                                   135  
                                   136  "	Operations table follows.
                                   137
                        000105     138  	segdef	opcode_table
    000105                         139  opcode_table:			" This definition is provided so other tools
                                   140  				" can use the assembler's data base.
    000105  aa   000000 003350     141  	zero	0,num_ops*2
    000106  aa   000001 003350     142  	zero	optbl-opcode_table,valtbl-opcode_table
                                   143
                                   144
                                   145  	use	op_mnemonic
                                   146  	even			Make sure we are even for the cmpaq.
                        000106     147  	equ	optbl,*-2		Minus 2 because we can't access the first entry.
                                   148
                                   149  	use	op_value
                        003455     150  	equ	valtbl,*-1	Corresponding offset for valtbl.
                                   151
                                   152  	use	long_ops
                        005241     153  	equ	long_op_table,*
                        000000     154  	set	n_long_ops,0
                                   155
                                   156
                                   157  " Format of entry:
                                   158  " In op_mnemonic, double word containing first 7 characters
                                   159  " of mnemonic, left justified and zero filled.
                                   160  " In op_value, single word containing 18 bit pseudo-op
                                   161  " index (zero for normal instruction), 10 bit opcode written
                                   162  " as 9 + 1 (as in 6140 EPS-1), 4 bits of flags, and 4 bits
                                   163  " of decor class. For "desc" instructions, last 4 bits of 10
                                   164  " bit opcode field denote operand formats.
                                   165
                                   166  " The decor class denotes the intersection of decors in which  the
                                   167  " instruction is valid.
                                   168
                                   169
                                   170
                                   171
                                   172  " OPCODE DEFINING MACROS.
                                   173
                                   174
    005241                         175  	maclist	off
                                   176
                                   177  	macro	mnem
                              1    178  	use	op_mnemonic
                              2    179  	maclist	on,save
                              3    180  	aci	"&1"
                              4    181  	maclist	object
                              5    182  &<=&l1,4&[	acc	""
                              6    183  &]
                              7    184  &>&l1,8&[	warn	(Mnemonic "&1" is longer than 8 characters.)
                              8    185  &]
                              9    186  	maclist	restore
                             10    187  	&end
                                   188
                                   189  	macro	defop		mnemonic,type,args
                              1    190  	mnem	&1
                              2    191  	&2op	&F3
                              3    192  	&end
                                   193
                                   194  	macro	defmac		macname,args
                              1    195  	maclist	on,save
                              2    196  	macro	&1op
                              3    197  	use	op_value
                              4    198  	maclist	on,save
                              5    199  	vfd	18/&2,o9/&3,1/&4,o4/&5,o4/&6
                              6    200
                              7    201  	maclist	restore
                              8    202  	&&end
                              9    203
                             10    204  	maclist	restore
                             11    205  	&end
                                   206
                                   207            defmac    ,0,&1,&2,&3,&4      code,bit27,flags,decor_class
                                        	macro	op
                              1         	use	op_value
                              2         	maclist	on,save
                              3         	vfd	18/0,o9/&1,1/&2,o4/&3,o4/&4
                              4
                              5         	maclist	restore
                              6         	&end

                                   208            defmac    pseud,&1,0,0,0,&2   value,decor_class
                                        	macro	pseudop
                              1         	use	op_value
                              2         	maclist	on,save
                              3         	vfd	18/&1,o9/0,1/0,o4/0,o4/&2
                              4
                              5         	maclist	restore
                              6         	&end

                                   209  	defmac	rpt,52,&1,0,&2,&3	,abcbits,decor_class
                                        	macro	rptop
                              1         	use	op_value
                              2         	maclist	on,save
                              3         	vfd	18/52,o9/&1,1/0,o4/&2,o4/&3
                              4
                              5         	maclist	restore
                              6         	&end

                                   210  	defmac	ar,53,&1,1,&2,&3	opcode,flags,decor_class
                                        	macro	arop
                              1         	use	op_value
                              2         	maclist	on,save
                              3         	vfd	18/53,o9/&1,1/1,o4/&2,o4/&3
                              4
                              5         	maclist	restore
                              6         	&end

                                   211  	defmac	pr,44,0,0,0,&1      decor_class
                                        	macro	prop
                              1         	use	op_value
                              2         	maclist	on,save
                              3         	vfd	18/44,o9/0,1/0,o4/0,o4/&1
                              4
                              5         	maclist	restore
                              6         	&end

                                   212  	defmac	xr,43,0,0,0,&1      decor_class
                                        	macro	xrop
                              1         	use	op_value
                              2         	maclist	on,save
                              3         	vfd	18/43,o9/0,1/0,o4/0,o4/&1
                              4
                              5         	maclist	restore
                              6         	&end

                                   213  	defmac	eis,54,&1,1,&2,&3	opcode,bitop,decor_class
                                        	macro	eisop
                              1         	use	op_value
                              2         	maclist	on,save
                              3         	vfd	18/54,o9/&1,1/1,o4/&2,o4/&3
                              4
                              5         	maclist	restore
                              6         	&end

                                   214
                                   215  	macro	longop
                              1    216  	pseudop	&1,&3
                              2    217  	set	op_index,*-valtbl-1
                              3    218  	use	long_ops
                              4    219  	maclist	on,save
                              5    220  	zero	op_index
                              6    221  	acc	"&2"
                              7    222  	maclist	object
                              8    223  &<=&l2,11&[	acc	""
                              9    224  &]
                             10    225  &<=&l2,15&[	acc	""
                             11    226  &]
                             12    227  &>&l2,19&[	warn	(Long mnemonic "&2" is longer than 19 characters.)
                             13    228  &]
                             14    229  	maclist 	on
                             15    230
                             16    231  	maclist	restore
                             17    232  	set	n_long_ops,n_long_ops+1
                             18    233  	&end
                                   234
                                   235  	macro	descop		bytesize,type,decor_class
                              1    236  	use	op_value
                              2    237  	maclist	on,save
                              3    238  	ife	&2,a
                              4    239  	vfd	18/55,o6/0,o4/0,4/&1,o4/&3
                              5    240  	ifend
                              6    241  	ife	&2,b
                              7    242  	vfd	18/56,o6/0,o4/0,4/1,o4/&3
                              8    243  	ifend
                              9    244  	ife	&2,fl
                             10    245  	vfd	18/57,o6/0,o4/0,4/&1,o4/&3
                             11    246  	ifend
                             12    247  	ife	&2,ls
                             13    248  	vfd	18/57,o6/0,o4/1,4/&1,o4/&3
                             14    249  	ifend
                             15    250  	ife	&2,ts
                             16    251  	vfd	18/57,o6/0,o4/2,4/&1,o4/&3
                             17    252  	ifend
                             18    253  	ife	&2,ns
                             19    254  	vfd	18/57,o6/0,o4/3,4/&1,o4/&3
                             20    255  	ifend
                             21    256
                             22    257  	maclist	restore
                             23    258  	&end
                                   259
                                   260
                                   261
                                   262
                                   263  
                                   264
                                   265  	include  defops
                                   1-1
                                   1-2  "	BEGIN INCLUDE FILE ... defops.incl.alm
                                   1-3  " HISTORY COMMENTS:
                                   1-4  "  1) change(86-11-04,JRGray), approve(86-11-04,MCR7507),
                                   1-5  "     audit(86-11-05,RWaters), install(86-11-12,MR12.0-1202):
                                   1-6  "     Modified to add init_link pseudo-operation.
                                   1-7  "  2) change(86-11-14,JRGray), approve(86-11-14,MCR7568),
                                   1-8  "     audit(86-11-21,RWaters), install(86-11-26,MR12.0-1228):
                                   1-9  "     Also MCR7572. Modified to add the three new pseudo-ops: ext_entry,
                                  1-10  "     oct_unal, and dec_unal.
                                  1-11  "  3) change(88-03-21,JRGray), approve(88-08-05,MCR7952),
                                  1-12  "     audit(88-09-30,WAAnderson), install(88-10-17,MR12.2-1169):
                                  1-13  "     Modified for symbol table support to add 12 new pseudos:
                                  1-14  "     block, end_block, enum, end_enum, source, end_source, statement,
                                  1-15  "     structure, end_structure, symbol, union, and end_union.
                                  1-16  "                                                      END HISTORY COMMENTS
                                  1-17  "
                                  1-18  " This include file contains lists of instructions and pseudos
                                  1-19  " and it is updated in part by the alm_table_tool.
                                  1-20            defop     a4bd,ar,502,0,2
    000110  aa  141 064 142 144         	aci	"a4bd"
    000111  aa  000 000 000 000
    003456  aa   000065 502402          	vfd	18/53,o9/502,1/1,o4/0,o4/2

                                  1-21            defop     a4bdx,ar,502,1,2
    000112  aa  141 064 142 144         	aci	"a4bdx"
    000113  aa  170 000 000 000
    003457  aa   000065 502422          	vfd	18/53,o9/502,1/1,o4/1,o4/2

                                  1-22            defop     a6bd,ar,501,0,2
    000114  aa  141 066 142 144         	aci	"a6bd"
    000115  aa  000 000 000 000
    003460  aa   000065 501402          	vfd	18/53,o9/501,1/1,o4/0,o4/2

                                  1-23            defop     a6bdx,ar,501,1,2
    000116  aa  141 066 142 144         	aci	"a6bdx"
    000117  aa  170 000 000 000
    003461  aa   000065 501422          	vfd	18/53,o9/501,1/1,o4/1,o4/2

                                  1-24            defop     a9bd,ar,500,0,2
    000120  aa  141 071 142 144         	aci	"a9bd"
    000121  aa  000 000 000 000
    003462  aa   000065 500402          	vfd	18/53,o9/500,1/1,o4/0,o4/2

                                  1-25            defop     a9bdx,ar,500,1,2
    000122  aa  141 071 142 144         	aci	"a9bdx"
    000123  aa  170 000 000 000
    003463  aa   000065 500422          	vfd	18/53,o9/500,1/1,o4/1,o4/2

                                  1-26            defop     aar,pr,2
    000124  aa  141 141 162 000         	aci	"aar"
    000125  aa  000 000 000 000
    003464  aa   000054 000002          	vfd	18/44,o9/0,1/0,o4/0,o4/2

                                  1-27            defop     aar0,,560,1,,2
    000126  aa  141 141 162 060         	aci	"aar0"
    000127  aa  000 000 000 000
    003465  aa   000000 560402          	vfd	18/0,o9/560,1/1,o4/,o4/2

                                  1-28            defop     aar1,,561,1,,2
    000130  aa  141 141 162 061         	aci	"aar1"
    000131  aa  000 000 000 000
    003466  aa   000000 561402          	vfd	18/0,o9/561,1/1,o4/,o4/2

                                  1-29            defop     aar2,,562,1,,2
    000132  aa  141 141 162 062         	aci	"aar2"
    000133  aa  000 000 000 000
    003467  aa   000000 562402          	vfd	18/0,o9/562,1/1,o4/,o4/2

                                  1-30            defop     aar3,,563,1,,2
    000134  aa  141 141 162 063         	aci	"aar3"
    000135  aa  000 000 000 000
    003470  aa   000000 563402          	vfd	18/0,o9/563,1/1,o4/,o4/2

                                  1-31            defop     aar4,,564,1,,2
    000136  aa  141 141 162 064         	aci	"aar4"
    000137  aa  000 000 000 000
    003471  aa   000000 564402          	vfd	18/0,o9/564,1/1,o4/,o4/2

                                  1-32            defop     aar5,,565,1,,2
    000140  aa  141 141 162 065         	aci	"aar5"
    000141  aa  000 000 000 000
    003472  aa   000000 565402          	vfd	18/0,o9/565,1/1,o4/,o4/2

                                  1-33            defop     aar6,,566,1,,2
    000142  aa  141 141 162 066         	aci	"aar6"
    000143  aa  000 000 000 000
    003473  aa   000000 566402          	vfd	18/0,o9/566,1/1,o4/,o4/2

                                  1-34            defop     aar7,,567,1,,2
    000144  aa  141 141 162 067         	aci	"aar7"
    000145  aa  000 000 000 000
    003474  aa   000000 567402          	vfd	18/0,o9/567,1/1,o4/,o4/2

                                  1-35            defop     aarab,,561,1,,2
    000146  aa  141 141 162 141         	aci	"aarab"
    000147  aa  142 000 000 000
    003475  aa   000000 561402          	vfd	18/0,o9/561,1/1,o4/,o4/2

                                  1-36            defop     aarap,,560,1,,2
    000150  aa  141 141 162 141         	aci	"aarap"
    000151  aa  160 000 000 000
    003476  aa   000000 560402          	vfd	18/0,o9/560,1/1,o4/,o4/2

                                  1-37            defop     aarbb,,563,1,,2
    000152  aa  141 141 162 142         	aci	"aarbb"
    000153  aa  142 000 000 000
    003477  aa   000000 563402          	vfd	18/0,o9/563,1/1,o4/,o4/2

                                  1-38            defop     aarbp,,562,1,,2
    000154  aa  141 141 162 142         	aci	"aarbp"
    000155  aa  160 000 000 000
    003500  aa   000000 562402          	vfd	18/0,o9/562,1/1,o4/,o4/2

                                  1-39            defop     aarlb,,565,1,,2
    000156  aa  141 141 162 154         	aci	"aarlb"
    000157  aa  142 000 000 000
    003501  aa   000000 565402          	vfd	18/0,o9/565,1/1,o4/,o4/2

                                  1-40            defop     aarlp,,564,1,,2
    000160  aa  141 141 162 154         	aci	"aarlp"
    000161  aa  160 000 000 000
    003502  aa   000000 564402          	vfd	18/0,o9/564,1/1,o4/,o4/2

                                  1-41            defop     aarsb,,567,1,,2
    000162  aa  141 141 162 163         	aci	"aarsb"
    000163  aa  142 000 000 000
    003503  aa   000000 567402          	vfd	18/0,o9/567,1/1,o4/,o4/2

                                  1-42            defop     aarsp,,566,1,,2
    000164  aa  141 141 162 163         	aci	"aarsp"
    000165  aa  160 000 000 000
    003504  aa   000000 566402          	vfd	18/0,o9/566,1/1,o4/,o4/2

                                  1-43            defop     abd,ar,503,0,2
    000166  aa  141 142 144 000         	aci	"abd"
    000167  aa  000 000 000 000
    003505  aa   000065 503402          	vfd	18/53,o9/503,1/1,o4/0,o4/2

                                  1-44            defop     abdx,ar,503,1,2
    000170  aa  141 142 144 170         	aci	"abdx"
    000171  aa  000 000 000 000
    003506  aa   000065 503422          	vfd	18/53,o9/503,1/1,o4/1,o4/2

                                  1-45            defop     absa,,212,0,,2
    000172  aa  141 142 163 141         	aci	"absa"
    000173  aa  000 000 000 000
    003507  aa   000000 212002          	vfd	18/0,o9/212,1/0,o4/,o4/2

                                  1-46            defop     ac4,pseud,59,2
    000174  aa  141 143 064 000         	aci	"ac4"
    000175  aa  000 000 000 000
    003510  aa   000073 000002          	vfd	18/59,o9/0,1/0,o4/0,o4/2

                                  1-47            defop     acc,pseud,26,2
    000176  aa  141 143 143 000         	aci	"acc"
    000177  aa  000 000 000 000
    003511  aa   000032 000002          	vfd	18/26,o9/0,1/0,o4/0,o4/2

                                  1-48            defop     aci,pseud,27,2
    000200  aa  141 143 151 000         	aci	"aci"
    000201  aa  000 000 000 000
    003512  aa   000033 000002          	vfd	18/27,o9/0,1/0,o4/0,o4/2

                                  1-49            defop     ad2d,eis,202,0,2
    000202  aa  141 144 062 144         	aci	"ad2d"
    000203  aa  000 000 000 000
    003513  aa   000066 202402          	vfd	18/54,o9/202,1/1,o4/0,o4/2

                                  1-50            defop     ad2dx,eis,242,0,0
    000204  aa  141 144 062 144         	aci	"ad2dx"
    000205  aa  170 000 000 000
    003514  aa   000066 242400          	vfd	18/54,o9/242,1/1,o4/0,o4/0

                                  1-51            defop     ad3d,eis,222,0,2
    000206  aa  141 144 063 144         	aci	"ad3d"
    000207  aa  000 000 000 000
    003515  aa   000066 222402          	vfd	18/54,o9/222,1/1,o4/0,o4/2

                                  1-52            defop     ad3dx,eis,262,0,0
    000210  aa  141 144 063 144         	aci	"ad3dx"
    000211  aa  170 000 000 000
    003516  aa   000066 262400          	vfd	18/54,o9/262,1/1,o4/0,o4/0

                                  1-53            defop     ada,,075,0,,2
    000212  aa  141 144 141 000         	aci	"ada"
    000213  aa  000 000 000 000
    003517  aa   000000 075002          	vfd	18/0,o9/075,1/0,o4/,o4/2

                                  1-54            defop     adaq,,077,0,,2
    000214  aa  141 144 141 161         	aci	"adaq"
    000215  aa  000 000 000 000
    003520  aa   000000 077002          	vfd	18/0,o9/077,1/0,o4/,o4/2

                                  1-55            defop     ade,,415,0,,2
    000216  aa  141 144 145 000         	aci	"ade"
    000217  aa  000 000 000 000
    003521  aa   000000 415002          	vfd	18/0,o9/415,1/0,o4/,o4/2

                                  1-56            defop     adl,,033,0,,2
    000220  aa  141 144 154 000         	aci	"adl"
    000221  aa  000 000 000 000
    003522  aa   000000 033002          	vfd	18/0,o9/033,1/0,o4/,o4/2

                                  1-57            defop     adla,,035,0,,2
    000222  aa  141 144 154 141         	aci	"adla"
    000223  aa  000 000 000 000
    003523  aa   000000 035002          	vfd	18/0,o9/035,1/0,o4/,o4/2

                                  1-58            defop     adlaq,,037,0,,2
    000224  aa  141 144 154 141         	aci	"adlaq"
    000225  aa  161 000 000 000
    003524  aa   000000 037002          	vfd	18/0,o9/037,1/0,o4/,o4/2

                                  1-59            defop     adlq,,036,0,,2
    000226  aa  141 144 154 161         	aci	"adlq"
    000227  aa  000 000 000 000
    003525  aa   000000 036002          	vfd	18/0,o9/036,1/0,o4/,o4/2

                                  1-60            defop     adlx,xr,2
    000230  aa  141 144 154 170         	aci	"adlx"
    000231  aa  000 000 000 000
    003526  aa   000053 000002          	vfd	18/43,o9/0,1/0,o4/0,o4/2

                                  1-61            defop     adlx0,,020,0,,2
    000232  aa  141 144 154 170         	aci	"adlx0"
    000233  aa  060 000 000 000
    003527  aa   000000 020002          	vfd	18/0,o9/020,1/0,o4/,o4/2

                                  1-62            defop     adlx1,,021,0,,2
    000234  aa  141 144 154 170         	aci	"adlx1"
    000235  aa  061 000 000 000
    003530  aa   000000 021002          	vfd	18/0,o9/021,1/0,o4/,o4/2

                                  1-63            defop     adlx2,,022,0,,2
    000236  aa  141 144 154 170         	aci	"adlx2"
    000237  aa  062 000 000 000
    003531  aa   000000 022002          	vfd	18/0,o9/022,1/0,o4/,o4/2

                                  1-64            defop     adlx3,,023,0,,2
    000240  aa  141 144 154 170         	aci	"adlx3"
    000241  aa  063 000 000 000
    003532  aa   000000 023002          	vfd	18/0,o9/023,1/0,o4/,o4/2

                                  1-65            defop     adlx4,,024,0,,2
    000242  aa  141 144 154 170         	aci	"adlx4"
    000243  aa  064 000 000 000
    003533  aa   000000 024002          	vfd	18/0,o9/024,1/0,o4/,o4/2

                                  1-66            defop     adlx5,,025,0,,2
    000244  aa  141 144 154 170         	aci	"adlx5"
    000245  aa  065 000 000 000
    003534  aa   000000 025002          	vfd	18/0,o9/025,1/0,o4/,o4/2

                                  1-67            defop     adlx6,,026,0,,2
    000246  aa  141 144 154 170         	aci	"adlx6"
    000247  aa  066 000 000 000
    003535  aa   000000 026002          	vfd	18/0,o9/026,1/0,o4/,o4/2

                                  1-68            defop     adlx7,,027,0,,2
    000250  aa  141 144 154 170         	aci	"adlx7"
    000251  aa  067 000 000 000
    003536  aa   000000 027002          	vfd	18/0,o9/027,1/0,o4/,o4/2

                                  1-69            defop     adq,,076,0,,2
    000252  aa  141 144 161 000         	aci	"adq"
    000253  aa  000 000 000 000
    003537  aa   000000 076002          	vfd	18/0,o9/076,1/0,o4/,o4/2

                                  1-70            defop     adwp,pr,2
    000254  aa  141 144 167 160         	aci	"adwp"
    000255  aa  000 000 000 000
    003540  aa   000054 000002          	vfd	18/44,o9/0,1/0,o4/0,o4/2

                                  1-71            defop     adwp0,,050,0,,2
    000256  aa  141 144 167 160         	aci	"adwp0"
    000257  aa  060 000 000 000
    003541  aa   000000 050002          	vfd	18/0,o9/050,1/0,o4/,o4/2

                                  1-72            defop     adwp1,,051,0,,2
    000260  aa  141 144 167 160         	aci	"adwp1"
    000261  aa  061 000 000 000
    003542  aa   000000 051002          	vfd	18/0,o9/051,1/0,o4/,o4/2

                                  1-73            defop     adwp2,,052,0,,2
    000262  aa  141 144 167 160         	aci	"adwp2"
    000263  aa  062 000 000 000
    003543  aa   000000 052002          	vfd	18/0,o9/052,1/0,o4/,o4/2

                                  1-74            defop     adwp3,,053,0,,2
    000264  aa  141 144 167 160         	aci	"adwp3"
    000265  aa  063 000 000 000
    003544  aa   000000 053002          	vfd	18/0,o9/053,1/0,o4/,o4/2

                                  1-75            defop     adwp4,,150,0,,2
    000266  aa  141 144 167 160         	aci	"adwp4"
    000267  aa  064 000 000 000
    003545  aa   000000 150002          	vfd	18/0,o9/150,1/0,o4/,o4/2

                                  1-76            defop     adwp5,,151,0,,2
    000270  aa  141 144 167 160         	aci	"adwp5"
    000271  aa  065 000 000 000
    003546  aa   000000 151002          	vfd	18/0,o9/151,1/0,o4/,o4/2

                                  1-77            defop     adwp6,,152,0,,2
    000272  aa  141 144 167 160         	aci	"adwp6"
    000273  aa  066 000 000 000
    003547  aa   000000 152002          	vfd	18/0,o9/152,1/0,o4/,o4/2

                                  1-78            defop     adwp7,,153,0,,2
    000274  aa  141 144 167 160         	aci	"adwp7"
    000275  aa  067 000 000 000
    003550  aa   000000 153002          	vfd	18/0,o9/153,1/0,o4/,o4/2

                                  1-79            defop     adwpab,,051,0,,2
    000276  aa  141 144 167 160         	aci	"adwpab"
    000277  aa  141 142 000 000
    003551  aa   000000 051002          	vfd	18/0,o9/051,1/0,o4/,o4/2

                                  1-80            defop     adwpap,,050,0,,2
    000300  aa  141 144 167 160         	aci	"adwpap"
    000301  aa  141 160 000 000
    003552  aa   000000 050002          	vfd	18/0,o9/050,1/0,o4/,o4/2

                                  1-81            defop     adwpbb,,053,0,,2
    000302  aa  141 144 167 160         	aci	"adwpbb"
    000303  aa  142 142 000 000
    003553  aa   000000 053002          	vfd	18/0,o9/053,1/0,o4/,o4/2

                                  1-82            defop     adwpbp,,052,0,,2
    000304  aa  141 144 167 160         	aci	"adwpbp"
    000305  aa  142 160 000 000
    003554  aa   000000 052002          	vfd	18/0,o9/052,1/0,o4/,o4/2

                                  1-83            defop     adwplb,,151,0,,2
    000306  aa  141 144 167 160         	aci	"adwplb"
    000307  aa  154 142 000 000
    003555  aa   000000 151002          	vfd	18/0,o9/151,1/0,o4/,o4/2

                                  1-84            defop     adwplp,,150,0,,2
    000310  aa  141 144 167 160         	aci	"adwplp"
    000311  aa  154 160 000 000
    003556  aa   000000 150002          	vfd	18/0,o9/150,1/0,o4/,o4/2

                                  1-85            defop     adwpsb,,153,0,,2
    000312  aa  141 144 167 160         	aci	"adwpsb"
    000313  aa  163 142 000 000
    003557  aa   000000 153002          	vfd	18/0,o9/153,1/0,o4/,o4/2

                                  1-86            defop     adwpsp,,152,0,,2
    000314  aa  141 144 167 160         	aci	"adwpsp"
    000315  aa  163 160 000 000
    003560  aa   000000 152002          	vfd	18/0,o9/152,1/0,o4/,o4/2

                                  1-87            defop     adx,xr,2
    000316  aa  141 144 170 000         	aci	"adx"
    000317  aa  000 000 000 000
    003561  aa   000053 000002          	vfd	18/43,o9/0,1/0,o4/0,o4/2

                                  1-88            defop     adx0,,060,0,,2
    000320  aa  141 144 170 060         	aci	"adx0"
    000321  aa  000 000 000 000
    003562  aa   000000 060002          	vfd	18/0,o9/060,1/0,o4/,o4/2

                                  1-89            defop     adx1,,061,0,,2
    000322  aa  141 144 170 061         	aci	"adx1"
    000323  aa  000 000 000 000
    003563  aa   000000 061002          	vfd	18/0,o9/061,1/0,o4/,o4/2

                                  1-90            defop     adx2,,062,0,,2
    000324  aa  141 144 170 062         	aci	"adx2"
    000325  aa  000 000 000 000
    003564  aa   000000 062002          	vfd	18/0,o9/062,1/0,o4/,o4/2

                                  1-91            defop     adx3,,063,0,,2
    000326  aa  141 144 170 063         	aci	"adx3"
    000327  aa  000 000 000 000
    003565  aa   000000 063002          	vfd	18/0,o9/063,1/0,o4/,o4/2

                                  1-92            defop     adx4,,064,0,,2
    000330  aa  141 144 170 064         	aci	"adx4"
    000331  aa  000 000 000 000
    003566  aa   000000 064002          	vfd	18/0,o9/064,1/0,o4/,o4/2

                                  1-93            defop     adx5,,065,0,,2
    000332  aa  141 144 170 065         	aci	"adx5"
    000333  aa  000 000 000 000
    003567  aa   000000 065002          	vfd	18/0,o9/065,1/0,o4/,o4/2

                                  1-94            defop     adx6,,066,0,,2
    000334  aa  141 144 170 066         	aci	"adx6"
    000335  aa  000 000 000 000
    003570  aa   000000 066002          	vfd	18/0,o9/066,1/0,o4/,o4/2

                                  1-95            defop     adx7,,067,0,,2
    000336  aa  141 144 170 067         	aci	"adx7"
    000337  aa  000 000 000 000
    003571  aa   000000 067002          	vfd	18/0,o9/067,1/0,o4/,o4/2

                                  1-96            defop     alr,,775,0,,2
    000340  aa  141 154 162 000         	aci	"alr"
    000341  aa  000 000 000 000
    003572  aa   000000 775002          	vfd	18/0,o9/775,1/0,o4/,o4/2

                                  1-97            defop     als,,735,0,,2
    000342  aa  141 154 163 000         	aci	"als"
    000343  aa  000 000 000 000
    003573  aa   000000 735002          	vfd	18/0,o9/735,1/0,o4/,o4/2

                                  1-98            defop     altretur,long,40,altreturn,2
    000344  aa  141 154 164 162         	aci	"altretur"
    000345  aa  145 164 165 162
    003574  aa   000050 000002          	vfd	18/40,o9/0,1/0,o4/0,o4/2

    005241  aa   000117 000000          	zero	op_index
    005242  aa  011 141 154 164         	acc	"altreturn"
    005243  aa  162 145 164 165
    005244  aa  162 156 000 000
    005245  aa  000 000 000 000
    005246  aa  000 000 000 000

                                  1-99            defop     ana,,375,0,,2
    000346  aa  141 156 141 000         	aci	"ana"
    000347  aa  000 000 000 000
    003575  aa   000000 375002          	vfd	18/0,o9/375,1/0,o4/,o4/2

                                 1-100            defop     anaq,,377,0,,2
    000350  aa  141 156 141 161         	aci	"anaq"
    000351  aa  000 000 000 000
    003576  aa   000000 377002          	vfd	18/0,o9/377,1/0,o4/,o4/2

                                 1-101            defop     anq,,376,0,,2
    000352  aa  141 156 161 000         	aci	"anq"
    000353  aa  000 000 000 000
    003577  aa   000000 376002          	vfd	18/0,o9/376,1/0,o4/,o4/2

                                 1-102            defop     ansa,,355,0,,2
    000354  aa  141 156 163 141         	aci	"ansa"
    000355  aa  000 000 000 000
    003600  aa   000000 355002          	vfd	18/0,o9/355,1/0,o4/,o4/2

                                 1-103            defop     ansq,,356,0,,2
    000356  aa  141 156 163 161         	aci	"ansq"
    000357  aa  000 000 000 000
    003601  aa   000000 356002          	vfd	18/0,o9/356,1/0,o4/,o4/2

                                 1-104            defop     ansx,xr,2
    000360  aa  141 156 163 170         	aci	"ansx"
    000361  aa  000 000 000 000
    003602  aa   000053 000002          	vfd	18/43,o9/0,1/0,o4/0,o4/2

                                 1-105            defop     ansx0,,340,0,,2
    000362  aa  141 156 163 170         	aci	"ansx0"
    000363  aa  060 000 000 000
    003603  aa   000000 340002          	vfd	18/0,o9/340,1/0,o4/,o4/2

                                 1-106            defop     ansx1,,341,0,,2
    000364  aa  141 156 163 170         	aci	"ansx1"
    000365  aa  061 000 000 000
    003604  aa   000000 341002          	vfd	18/0,o9/341,1/0,o4/,o4/2

                                 1-107            defop     ansx2,,342,0,,2
    000366  aa  141 156 163 170         	aci	"ansx2"
    000367  aa  062 000 000 000
    003605  aa   000000 342002          	vfd	18/0,o9/342,1/0,o4/,o4/2

                                 1-108            defop     ansx3,,343,0,,2
    000370  aa  141 156 163 170         	aci	"ansx3"
    000371  aa  063 000 000 000
    003606  aa   000000 343002          	vfd	18/0,o9/343,1/0,o4/,o4/2

                                 1-109            defop     ansx4,,344,0,,2
    000372  aa  141 156 163 170         	aci	"ansx4"
    000373  aa  064 000 000 000
    003607  aa   000000 344002          	vfd	18/0,o9/344,1/0,o4/,o4/2

                                 1-110            defop     ansx5,,345,0,,2
    000374  aa  141 156 163 170         	aci	"ansx5"
    000375  aa  065 000 000 000
    003610  aa   000000 345002          	vfd	18/0,o9/345,1/0,o4/,o4/2

                                 1-111            defop     ansx6,,346,0,,2
    000376  aa  141 156 163 170         	aci	"ansx6"
    000377  aa  066 000 000 000
    003611  aa   000000 346002          	vfd	18/0,o9/346,1/0,o4/,o4/2

                                 1-112            defop     ansx7,,347,0,,2
    000400  aa  141 156 163 170         	aci	"ansx7"
    000401  aa  067 000 000 000
    003612  aa   000000 347002          	vfd	18/0,o9/347,1/0,o4/,o4/2

                                 1-113            defop     anx,xr,2
    000402  aa  141 156 170 000         	aci	"anx"
    000403  aa  000 000 000 000
    003613  aa   000053 000002          	vfd	18/43,o9/0,1/0,o4/0,o4/2

                                 1-114            defop     anx0,,360,0,,2
    000404  aa  141 156 170 060         	aci	"anx0"
    000405  aa  000 000 000 000
    003614  aa   000000 360002          	vfd	18/0,o9/360,1/0,o4/,o4/2

                                 1-115            defop     anx1,,361,0,,2
    000406  aa  141 156 170 061         	aci	"anx1"
    000407  aa  000 000 000 000
    003615  aa   000000 361002          	vfd	18/0,o9/361,1/0,o4/,o4/2

                                 1-116            defop     anx2,,362,0,,2
    000410  aa  141 156 170 062         	aci	"anx2"
    000411  aa  000 000 000 000
    003616  aa   000000 362002          	vfd	18/0,o9/362,1/0,o4/,o4/2

                                 1-117            defop     anx3,,363,0,,2
    000412  aa  141 156 170 063         	aci	"anx3"
    000413  aa  000 000 000 000
    003617  aa   000000 363002          	vfd	18/0,o9/363,1/0,o4/,o4/2

                                 1-118            defop     anx4,,364,0,,2
    000414  aa  141 156 170 064         	aci	"anx4"
    000415  aa  000 000 000 000
    003620  aa   000000 364002          	vfd	18/0,o9/364,1/0,o4/,o4/2

                                 1-119            defop     anx5,,365,0,,2
    000416  aa  141 156 170 065         	aci	"anx5"
    000417  aa  000 000 000 000
    003621  aa   000000 365002          	vfd	18/0,o9/365,1/0,o4/,o4/2

                                 1-120            defop     anx6,,366,0,,2
    000420  aa  141 156 170 066         	aci	"anx6"
    000421  aa  000 000 000 000
    003622  aa   000000 366002          	vfd	18/0,o9/366,1/0,o4/,o4/2

                                 1-121            defop     anx7,,367,0,,2
    000422  aa  141 156 170 067         	aci	"anx7"
    000423  aa  000 000 000 000
    003623  aa   000000 367002          	vfd	18/0,o9/367,1/0,o4/,o4/2

                                 1-122            defop     aos,,054,0,,2
    000424  aa  141 157 163 000         	aci	"aos"
    000425  aa  000 000 000 000
    003624  aa   000000 054002          	vfd	18/0,o9/054,1/0,o4/,o4/2

                                 1-123            defop     ara,pr,2
    000426  aa  141 162 141 000         	aci	"ara"
    000427  aa  000 000 000 000
    003625  aa   000054 000002          	vfd	18/44,o9/0,1/0,o4/0,o4/2

                                 1-124            defop     ara0,,540,1,,2
    000430  aa  141 162 141 060         	aci	"ara0"
    000431  aa  000 000 000 000
    003626  aa   000000 540402          	vfd	18/0,o9/540,1/1,o4/,o4/2

                                 1-125            defop     ara1,,541,1,,2
    000432  aa  141 162 141 061         	aci	"ara1"
    000433  aa  000 000 000 000
    003627  aa   000000 541402          	vfd	18/0,o9/541,1/1,o4/,o4/2

                                 1-126            defop     ara2,,542,1,,2
    000434  aa  141 162 141 062         	aci	"ara2"
    000435  aa  000 000 000 000
    003630  aa   000000 542402          	vfd	18/0,o9/542,1/1,o4/,o4/2

                                 1-127            defop     ara3,,543,1,,2
    000436  aa  141 162 141 063         	aci	"ara3"
    000437  aa  000 000 000 000
    003631  aa   000000 543402          	vfd	18/0,o9/543,1/1,o4/,o4/2

                                 1-128            defop     ara4,,544,1,,2
    000440  aa  141 162 141 064         	aci	"ara4"
    000441  aa  000 000 000 000
    003632  aa   000000 544402          	vfd	18/0,o9/544,1/1,o4/,o4/2

                                 1-129            defop     ara5,,545,1,,2
    000442  aa  141 162 141 065         	aci	"ara5"
    000443  aa  000 000 000 000
    003633  aa   000000 545402          	vfd	18/0,o9/545,1/1,o4/,o4/2

                                 1-130            defop     ara6,,546,1,,2
    000444  aa  141 162 141 066         	aci	"ara6"
    000445  aa  000 000 000 000
    003634  aa   000000 546402          	vfd	18/0,o9/546,1/1,o4/,o4/2

                                 1-131            defop     ara7,,547,1,,2
    000446  aa  141 162 141 067         	aci	"ara7"
    000447  aa  000 000 000 000
    003635  aa   000000 547402          	vfd	18/0,o9/547,1/1,o4/,o4/2

                                 1-132            defop     araab,,541,1,,2
    000450  aa  141 162 141 141         	aci	"araab"
    000451  aa  142 000 000 000
    003636  aa   000000 541402          	vfd	18/0,o9/541,1/1,o4/,o4/2

                                 1-133            defop     araap,,540,1,,2
    000452  aa  141 162 141 141         	aci	"araap"
    000453  aa  160 000 000 000
    003637  aa   000000 540402          	vfd	18/0,o9/540,1/1,o4/,o4/2

                                 1-134            defop     arabb,,543,1,,2
    000454  aa  141 162 141 142         	aci	"arabb"
    000455  aa  142 000 000 000
    003640  aa   000000 543402          	vfd	18/0,o9/543,1/1,o4/,o4/2

                                 1-135            defop     arabp,,542,1,,2
    000456  aa  141 162 141 142         	aci	"arabp"
    000457  aa  160 000 000 000
    003641  aa   000000 542402          	vfd	18/0,o9/542,1/1,o4/,o4/2

                                 1-136            defop     aralb,,545,1,,2
    000460  aa  141 162 141 154         	aci	"aralb"
    000461  aa  142 000 000 000
    003642  aa   000000 545402          	vfd	18/0,o9/545,1/1,o4/,o4/2

                                 1-137            defop     aralp,,544,1,,2
    000462  aa  141 162 141 154         	aci	"aralp"
    000463  aa  160 000 000 000
    003643  aa   000000 544402          	vfd	18/0,o9/544,1/1,o4/,o4/2

                                 1-138            defop     arasb,,547,1,,2
    000464  aa  141 162 141 163         	aci	"arasb"
    000465  aa  142 000 000 000
    003644  aa   000000 547402          	vfd	18/0,o9/547,1/1,o4/,o4/2

                                 1-139            defop     arasp,,546,1,,2
    000466  aa  141 162 141 163         	aci	"arasp"
    000467  aa  160 000 000 000
    003645  aa   000000 546402          	vfd	18/0,o9/546,1/1,o4/,o4/2

                                 1-140            defop     arg,,000,0,,2
    000470  aa  141 162 147 000         	aci	"arg"
    000471  aa  000 000 000 000
    003646  aa   000000 000002          	vfd	18/0,o9/000,1/0,o4/,o4/2

                                 1-141            defop     arl,,771,0,,2
    000472  aa  141 162 154 000         	aci	"arl"
    000473  aa  000 000 000 000
    003647  aa   000000 771002          	vfd	18/0,o9/771,1/0,o4/,o4/2

                                 1-142            defop     arn,pr,2
    000474  aa  141 162 156 000         	aci	"arn"
    000475  aa  000 000 000 000
    003650  aa   000054 000002          	vfd	18/44,o9/0,1/0,o4/0,o4/2

                                 1-143            defop     arn0,,640,1,,2
    000476  aa  141 162 156 060         	aci	"arn0"
    000477  aa  000 000 000 000
    003651  aa   000000 640402          	vfd	18/0,o9/640,1/1,o4/,o4/2

                                 1-144            defop     arn1,,641,1,,2
    000500  aa  141 162 156 061         	aci	"arn1"
    000501  aa  000 000 000 000
    003652  aa   000000 641402          	vfd	18/0,o9/641,1/1,o4/,o4/2

                                 1-145            defop     arn2,,642,1,,2
    000502  aa  141 162 156 062         	aci	"arn2"
    000503  aa  000 000 000 000
    003653  aa   000000 642402          	vfd	18/0,o9/642,1/1,o4/,o4/2

                                 1-146            defop     arn3,,643,1,,2
    000504  aa  141 162 156 063         	aci	"arn3"
    000505  aa  000 000 000 000
    003654  aa   000000 643402          	vfd	18/0,o9/643,1/1,o4/,o4/2

                                 1-147            defop     arn4,,644,1,,2
    000506  aa  141 162 156 064         	aci	"arn4"
    000507  aa  000 000 000 000
    003655  aa   000000 644402          	vfd	18/0,o9/644,1/1,o4/,o4/2

                                 1-148            defop     arn5,,645,1,,2
    000510  aa  141 162 156 065         	aci	"arn5"
    000511  aa  000 000 000 000
    003656  aa   000000 645402          	vfd	18/0,o9/645,1/1,o4/,o4/2

                                 1-149            defop     arn6,,646,1,,2
    000512  aa  141 162 156 066         	aci	"arn6"
    000513  aa  000 000 000 000
    003657  aa   000000 646402          	vfd	18/0,o9/646,1/1,o4/,o4/2

                                 1-150            defop     arn7,,647,1,,2
    000514  aa  141 162 156 067         	aci	"arn7"
    000515  aa  000 000 000 000
    003660  aa   000000 647402          	vfd	18/0,o9/647,1/1,o4/,o4/2

                                 1-151            defop     arnab,,641,1,,2
    000516  aa  141 162 156 141         	aci	"arnab"
    000517  aa  142 000 000 000
    003661  aa   000000 641402          	vfd	18/0,o9/641,1/1,o4/,o4/2

                                 1-152            defop     arnap,,640,1,,2
    000520  aa  141 162 156 141         	aci	"arnap"
    000521  aa  160 000 000 000
    003662  aa   000000 640402          	vfd	18/0,o9/640,1/1,o4/,o4/2

                                 1-153            defop     arnbb,,643,1,,2
    000522  aa  141 162 156 142         	aci	"arnbb"
    000523  aa  142 000 000 000
    003663  aa   000000 643402          	vfd	18/0,o9/643,1/1,o4/,o4/2

                                 1-154            defop     arnbp,,642,1,,2
    000524  aa  141 162 156 142         	aci	"arnbp"
    000525  aa  160 000 000 000
    003664  aa   000000 642402          	vfd	18/0,o9/642,1/1,o4/,o4/2

                                 1-155            defop     arnlb,,645,1,,2
    000526  aa  141 162 156 154         	aci	"arnlb"
    000527  aa  142 000 000 000
    003665  aa   000000 645402          	vfd	18/0,o9/645,1/1,o4/,o4/2

                                 1-156            defop     arnlp,,644,1,,2
    000530  aa  141 162 156 154         	aci	"arnlp"
    000531  aa  160 000 000 000
    003666  aa   000000 644402          	vfd	18/0,o9/644,1/1,o4/,o4/2

                                 1-157            defop     arnsb,,647,1,,2
    000532  aa  141 162 156 163         	aci	"arnsb"
    000533  aa  142 000 000 000
    003667  aa   000000 647402          	vfd	18/0,o9/647,1/1,o4/,o4/2

                                 1-158            defop     arnsp,,646,1,,2
    000534  aa  141 162 156 163         	aci	"arnsp"
    000535  aa  160 000 000 000
    003670  aa   000000 646402          	vfd	18/0,o9/646,1/1,o4/,o4/2

                                 1-159            defop     ars,,731,0,,2
    000536  aa  141 162 163 000         	aci	"ars"
    000537  aa  000 000 000 000
    003671  aa   000000 731002          	vfd	18/0,o9/731,1/0,o4/,o4/2

                                 1-160            defop     asa,,055,0,,2
    000540  aa  141 163 141 000         	aci	"asa"
    000541  aa  000 000 000 000
    003672  aa   000000 055002          	vfd	18/0,o9/055,1/0,o4/,o4/2

                                 1-161            defop     asq,,056,0,,2
    000542  aa  141 163 161 000         	aci	"asq"
    000543  aa  000 000 000 000
    003673  aa   000000 056002          	vfd	18/0,o9/056,1/0,o4/,o4/2

                                 1-162            defop     asx,xr,2
    000544  aa  141 163 170 000         	aci	"asx"
    000545  aa  000 000 000 000
    003674  aa   000053 000002          	vfd	18/43,o9/0,1/0,o4/0,o4/2

                                 1-163            defop     asx0,,040,0,,2
    000546  aa  141 163 170 060         	aci	"asx0"
    000547  aa  000 000 000 000
    003675  aa   000000 040002          	vfd	18/0,o9/040,1/0,o4/,o4/2

                                 1-164            defop     asx1,,041,0,,2
    000550  aa  141 163 170 061         	aci	"asx1"
    000551  aa  000 000 000 000
    003676  aa   000000 041002          	vfd	18/0,o9/041,1/0,o4/,o4/2

                                 1-165            defop     asx2,,042,0,,2
    000552  aa  141 163 170 062         	aci	"asx2"
    000553  aa  000 000 000 000
    003677  aa   000000 042002          	vfd	18/0,o9/042,1/0,o4/,o4/2

                                 1-166            defop     asx3,,043,0,,2
    000554  aa  141 163 170 063         	aci	"asx3"
    000555  aa  000 000 000 000
    003700  aa   000000 043002          	vfd	18/0,o9/043,1/0,o4/,o4/2

                                 1-167            defop     asx4,,044,0,,2
    000556  aa  141 163 170 064         	aci	"asx4"
    000557  aa  000 000 000 000
    003701  aa   000000 044002          	vfd	18/0,o9/044,1/0,o4/,o4/2

                                 1-168            defop     asx5,,045,0,,2
    000560  aa  141 163 170 065         	aci	"asx5"
    000561  aa  000 000 000 000
    003702  aa   000000 045002          	vfd	18/0,o9/045,1/0,o4/,o4/2

                                 1-169            defop     asx6,,046,0,,2
    000562  aa  141 163 170 066         	aci	"asx6"
    000563  aa  000 000 000 000
    003703  aa   000000 046002          	vfd	18/0,o9/046,1/0,o4/,o4/2

                                 1-170            defop     asx7,,047,0,,2
    000564  aa  141 163 170 067         	aci	"asx7"
    000565  aa  000 000 000 000
    003704  aa   000000 047002          	vfd	18/0,o9/047,1/0,o4/,o4/2

                                 1-171            defop     awca,,071,0,,2
    000566  aa  141 167 143 141         	aci	"awca"
    000567  aa  000 000 000 000
    003705  aa   000000 071002          	vfd	18/0,o9/071,1/0,o4/,o4/2

                                 1-172            defop     awcq,,072,0,,2
    000570  aa  141 167 143 161         	aci	"awcq"
    000571  aa  000 000 000 000
    003706  aa   000000 072002          	vfd	18/0,o9/072,1/0,o4/,o4/2

                                 1-173            defop     awd,ar,507,0,2
    000572  aa  141 167 144 000         	aci	"awd"
    000573  aa  000 000 000 000
    003707  aa   000065 507402          	vfd	18/53,o9/507,1/1,o4/0,o4/2

                                 1-174            defop     awdx,ar,507,1,2
    000574  aa  141 167 144 170         	aci	"awdx"
    000575  aa  000 000 000 000
    003710  aa   000065 507422          	vfd	18/53,o9/507,1/1,o4/1,o4/2

                                 1-175            defop     basref,pseud,17,2
    000576  aa  142 141 163 162         	aci	"basref"
    000577  aa  145 146 000 000
    003711  aa   000021 000002          	vfd	18/17,o9/0,1/0,o4/0,o4/2

                                 1-176            defop     bcd,,505,0,,2
    000600  aa  142 143 144 000         	aci	"bcd"
    000601  aa  000 000 000 000
    003712  aa   000000 505002          	vfd	18/0,o9/505,1/0,o4/,o4/2

                                 1-177            defop     bci,pseud,13,2
    000602  aa  142 143 151 000         	aci	"bci"
    000603  aa  000 000 000 000
    003713  aa   000015 000002          	vfd	18/13,o9/0,1/0,o4/0,o4/2

                                 1-178            defop     bfs,pseud,32,2
    000604  aa  142 146 163 000         	aci	"bfs"
    000605  aa  000 000 000 000
    003714  aa   000040 000002          	vfd	18/32,o9/0,1/0,o4/0,o4/2

                                 1-179            defop     block,pseud,68,2
    000606  aa  142 154 157 143         	aci	"block"
    000607  aa  153 000 000 000
    003715  aa   000104 000002          	vfd	18/68,o9/0,1/0,o4/0,o4/2

                                 1-180            defop     bool,pseud,18,2
    000610  aa  142 157 157 154         	aci	"bool"
    000611  aa  000 000 000 000
    003716  aa   000022 000002          	vfd	18/18,o9/0,1/0,o4/0,o4/2

                                 1-181            defop     bss,pseud,33,2
    000612  aa  142 163 163 000         	aci	"bss"
    000613  aa  000 000 000 000
    003717  aa   000041 000002          	vfd	18/33,o9/0,1/0,o4/0,o4/2

                                 1-182            defop     btd,eis,301,0,2
    000614  aa  142 164 144 000         	aci	"btd"
    000615  aa  000 000 000 000
    003720  aa   000066 301402          	vfd	18/54,o9/301,1/1,o4/0,o4/2

                                 1-183            defop     call,pseud,37,2
    000616  aa  143 141 154 154         	aci	"call"
    000617  aa  000 000 000 000
    003721  aa   000045 000002          	vfd	18/37,o9/0,1/0,o4/0,o4/2

                                 1-184            defop     call6,,713,0,,2
    000620  aa  143 141 154 154         	aci	"call6"
    000621  aa  066 000 000 000
    003722  aa   000000 713002          	vfd	18/0,o9/713,1/0,o4/,o4/2

                                 1-185            defop     callsp,,713,0,,2
    000622  aa  143 141 154 154         	aci	"callsp"
    000623  aa  163 160 000 000
    003723  aa   000000 713002          	vfd	18/0,o9/713,1/0,o4/,o4/2

                                 1-186            defop     camp,,532,1,,1
    000624  aa  143 141 155 160         	aci	"camp"
    000625  aa  000 000 000 000
    003724  aa   000000 532401          	vfd	18/0,o9/532,1/1,o4/,o4/1

                                 1-187            defop     camp0,,530,1,,0
    000626  aa  143 141 155 160         	aci	"camp0"
    000627  aa  060 000 000 000
    003725  aa   000000 530400          	vfd	18/0,o9/530,1/1,o4/,o4/0

                                 1-188            defop     camp1,,531,1,,0
    000630  aa  143 141 155 160         	aci	"camp1"
    000631  aa  061 000 000 000
    003726  aa   000000 531400          	vfd	18/0,o9/531,1/1,o4/,o4/0

                                 1-189            defop     camp2,,532,1,,0
    000632  aa  143 141 155 160         	aci	"camp2"
    000633  aa  062 000 000 000
    003727  aa   000000 532400          	vfd	18/0,o9/532,1/1,o4/,o4/0

                                 1-190            defop     camp3,,533,1,,0
    000634  aa  143 141 155 160         	aci	"camp3"
    000635  aa  063 000 000 000
    003730  aa   000000 533400          	vfd	18/0,o9/533,1/1,o4/,o4/0

                                 1-191            defop     cams,,532,0,,1
    000636  aa  143 141 155 163         	aci	"cams"
    000637  aa  000 000 000 000
    003731  aa   000000 532001          	vfd	18/0,o9/532,1/0,o4/,o4/1

                                 1-192            defop     cams0,,534,1,,0
    000640  aa  143 141 155 163         	aci	"cams0"
    000641  aa  060 000 000 000
    003732  aa   000000 534400          	vfd	18/0,o9/534,1/1,o4/,o4/0

                                 1-193            defop     cams1,,535,1,,0
    000642  aa  143 141 155 163         	aci	"cams1"
    000643  aa  061 000 000 000
    003733  aa   000000 535400          	vfd	18/0,o9/535,1/1,o4/,o4/0

                                 1-194            defop     cana,,315,0,,2
    000644  aa  143 141 156 141         	aci	"cana"
    000645  aa  000 000 000 000
    003734  aa   000000 315002          	vfd	18/0,o9/315,1/0,o4/,o4/2

                                 1-195            defop     canaq,,317,0,,2
    000646  aa  143 141 156 141         	aci	"canaq"
    000647  aa  161 000 000 000
    003735  aa   000000 317002          	vfd	18/0,o9/317,1/0,o4/,o4/2

                                 1-196            defop     canq,,316,0,,2
    000650  aa  143 141 156 161         	aci	"canq"
    000651  aa  000 000 000 000
    003736  aa   000000 316002          	vfd	18/0,o9/316,1/0,o4/,o4/2

                                 1-197            defop     canx,xr,2
    000652  aa  143 141 156 170         	aci	"canx"
    000653  aa  000 000 000 000
    003737  aa   000053 000002          	vfd	18/43,o9/0,1/0,o4/0,o4/2

                                 1-198            defop     canx0,,300,0,,2
    000654  aa  143 141 156 170         	aci	"canx0"
    000655  aa  060 000 000 000
    003740  aa   000000 300002          	vfd	18/0,o9/300,1/0,o4/,o4/2

                                 1-199            defop     canx1,,301,0,,2
    000656  aa  143 141 156 170         	aci	"canx1"
    000657  aa  061 000 000 000
    003741  aa   000000 301002          	vfd	18/0,o9/301,1/0,o4/,o4/2

                                 1-200            defop     canx2,,302,0,,2
    000660  aa  143 141 156 170         	aci	"canx2"
    000661  aa  062 000 000 000
    003742  aa   000000 302002          	vfd	18/0,o9/302,1/0,o4/,o4/2

                                 1-201            defop     canx3,,303,0,,2
    000662  aa  143 141 156 170         	aci	"canx3"
    000663  aa  063 000 000 000
    003743  aa   000000 303002          	vfd	18/0,o9/303,1/0,o4/,o4/2

                                 1-202            defop     canx4,,304,0,,2
    000664  aa  143 141 156 170         	aci	"canx4"
    000665  aa  064 000 000 000
    003744  aa   000000 304002          	vfd	18/0,o9/304,1/0,o4/,o4/2

                                 1-203            defop     canx5,,305,0,,2
    000666  aa  143 141 156 170         	aci	"canx5"
    000667  aa  065 000 000 000
    003745  aa   000000 305002          	vfd	18/0,o9/305,1/0,o4/,o4/2

                                 1-204            defop     canx6,,306,0,,2
    000670  aa  143 141 156 170         	aci	"canx6"
    000671  aa  066 000 000 000
    003746  aa   000000 306002          	vfd	18/0,o9/306,1/0,o4/,o4/2

                                 1-205            defop     canx7,,307,0,,2
    000672  aa  143 141 156 170         	aci	"canx7"
    000673  aa  067 000 000 000
    003747  aa   000000 307002          	vfd	18/0,o9/307,1/0,o4/,o4/2

                                 1-206            defop     ccac0,,010,1,,0
    000674  aa  143 143 141 143         	aci	"ccac0"
    000675  aa  060 000 000 000
    003750  aa   000000 010400          	vfd	18/0,o9/010,1/1,o4/,o4/0

                                 1-207            defop     ccac1,,011,1,,0
    000676  aa  143 143 141 143         	aci	"ccac1"
    000677  aa  061 000 000 000
    003751  aa   000000 011400          	vfd	18/0,o9/011,1/1,o4/,o4/0

                                 1-208            defop     cioc,,015,0,,2
    000700  aa  143 151 157 143         	aci	"cioc"
    000701  aa  000 000 000 000
    003752  aa   000000 015002          	vfd	18/0,o9/015,1/0,o4/,o4/2

                                 1-209            defop     cmg,,405,0,,2
    000702  aa  143 155 147 000         	aci	"cmg"
    000703  aa  000 000 000 000
    003753  aa   000000 405002          	vfd	18/0,o9/405,1/0,o4/,o4/2

                                 1-210            defop     cmk,,211,0,,2
    000704  aa  143 155 153 000         	aci	"cmk"
    000705  aa  000 000 000 000
    003754  aa   000000 211002          	vfd	18/0,o9/211,1/0,o4/,o4/2

                                 1-211            defop     cmpa,,115,0,,2
    000706  aa  143 155 160 141         	aci	"cmpa"
    000707  aa  000 000 000 000
    003755  aa   000000 115002          	vfd	18/0,o9/115,1/0,o4/,o4/2

                                 1-212            defop     cmpaq,,117,0,,2
    000710  aa  143 155 160 141         	aci	"cmpaq"
    000711  aa  161 000 000 000
    003756  aa   000000 117002          	vfd	18/0,o9/117,1/0,o4/,o4/2

                                 1-213            defop     cmpb,eis,066,1,2
    000712  aa  143 155 160 142         	aci	"cmpb"
    000713  aa  000 000 000 000
    003757  aa   000066 066422          	vfd	18/54,o9/066,1/1,o4/1,o4/2

                                 1-214            defop     cmpc,eis,106,0,2
    000714  aa  143 155 160 143         	aci	"cmpc"
    000715  aa  000 000 000 000
    003760  aa   000066 106402          	vfd	18/54,o9/106,1/1,o4/0,o4/2

                                 1-215            defop     cmpct,eis,166,0,0
    000716  aa  143 155 160 143         	aci	"cmpct"
    000717  aa  164 000 000 000
    003761  aa   000066 166400          	vfd	18/54,o9/166,1/1,o4/0,o4/0

                                 1-216            defop     cmpn,eis,303,0,2
    000720  aa  143 155 160 156         	aci	"cmpn"
    000721  aa  000 000 000 000
    003762  aa   000066 303402          	vfd	18/54,o9/303,1/1,o4/0,o4/2

                                 1-217            defop     cmpnx,eis,343,0,0
    000722  aa  143 155 160 156         	aci	"cmpnx"
    000723  aa  170 000 000 000
    003763  aa   000066 343400          	vfd	18/54,o9/343,1/1,o4/0,o4/0

                                 1-218            defop     cmpq,,116,0,,2
    000724  aa  143 155 160 161         	aci	"cmpq"
    000725  aa  000 000 000 000
    003764  aa   000000 116002          	vfd	18/0,o9/116,1/0,o4/,o4/2

                                 1-219            defop     cmpx,xr,2
    000726  aa  143 155 160 170         	aci	"cmpx"
    000727  aa  000 000 000 000
    003765  aa   000053 000002          	vfd	18/43,o9/0,1/0,o4/0,o4/2

                                 1-220            defop     cmpx0,,100,0,,2
    000730  aa  143 155 160 170         	aci	"cmpx0"
    000731  aa  060 000 000 000
    003766  aa   000000 100002          	vfd	18/0,o9/100,1/0,o4/,o4/2

                                 1-221            defop     cmpx1,,101,0,,2
    000732  aa  143 155 160 170         	aci	"cmpx1"
    000733  aa  061 000 000 000
    003767  aa   000000 101002          	vfd	18/0,o9/101,1/0,o4/,o4/2

                                 1-222            defop     cmpx2,,102,0,,2
    000734  aa  143 155 160 170         	aci	"cmpx2"
    000735  aa  062 000 000 000
    003770  aa   000000 102002          	vfd	18/0,o9/102,1/0,o4/,o4/2

                                 1-223            defop     cmpx3,,103,0,,2
    000736  aa  143 155 160 170         	aci	"cmpx3"
    000737  aa  063 000 000 000
    003771  aa   000000 103002          	vfd	18/0,o9/103,1/0,o4/,o4/2

                                 1-224            defop     cmpx4,,104,0,,2
    000740  aa  143 155 160 170         	aci	"cmpx4"
    000741  aa  064 000 000 000
    003772  aa   000000 104002          	vfd	18/0,o9/104,1/0,o4/,o4/2

                                 1-225            defop     cmpx5,,105,0,,2
    000742  aa  143 155 160 170         	aci	"cmpx5"
    000743  aa  065 000 000 000
    003773  aa   000000 105002          	vfd	18/0,o9/105,1/0,o4/,o4/2

                                 1-226            defop     cmpx6,,106,0,,2
    000744  aa  143 155 160 170         	aci	"cmpx6"
    000745  aa  066 000 000 000
    003774  aa   000000 106002          	vfd	18/0,o9/106,1/0,o4/,o4/2

                                 1-227            defop     cmpx7,,107,0,,2
    000746  aa  143 155 160 170         	aci	"cmpx7"
    000747  aa  067 000 000 000
    003775  aa   000000 107002          	vfd	18/0,o9/107,1/0,o4/,o4/2

                                 1-228            defop     cnaa,,215,0,,2
    000750  aa  143 156 141 141         	aci	"cnaa"
    000751  aa  000 000 000 000
    003776  aa   000000 215002          	vfd	18/0,o9/215,1/0,o4/,o4/2

                                 1-229            defop     cnaaq,,217,0,,2
    000752  aa  143 156 141 141         	aci	"cnaaq"
    000753  aa  161 000 000 000
    003777  aa   000000 217002          	vfd	18/0,o9/217,1/0,o4/,o4/2

                                 1-230            defop     cnaq,,216,0,,2
    000754  aa  143 156 141 161         	aci	"cnaq"
    000755  aa  000 000 000 000
    004000  aa   000000 216002          	vfd	18/0,o9/216,1/0,o4/,o4/2

                                 1-231            defop     cnax,xr,2
    000756  aa  143 156 141 170         	aci	"cnax"
    000757  aa  000 000 000 000
    004001  aa   000053 000002          	vfd	18/43,o9/0,1/0,o4/0,o4/2

                                 1-232            defop     cnax0,,200,0,,2
    000760  aa  143 156 141 170         	aci	"cnax0"
    000761  aa  060 000 000 000
    004002  aa   000000 200002          	vfd	18/0,o9/200,1/0,o4/,o4/2

                                 1-233            defop     cnax1,,201,0,,2
    000762  aa  143 156 141 170         	aci	"cnax1"
    000763  aa  061 000 000 000
    004003  aa   000000 201002          	vfd	18/0,o9/201,1/0,o4/,o4/2

                                 1-234            defop     cnax2,,202,0,,2
    000764  aa  143 156 141 170         	aci	"cnax2"
    000765  aa  062 000 000 000
    004004  aa   000000 202002          	vfd	18/0,o9/202,1/0,o4/,o4/2

                                 1-235            defop     cnax3,,203,0,,2
    000766  aa  143 156 141 170         	aci	"cnax3"
    000767  aa  063 000 000 000
    004005  aa   000000 203002          	vfd	18/0,o9/203,1/0,o4/,o4/2

                                 1-236            defop     cnax4,,204,0,,2
    000770  aa  143 156 141 170         	aci	"cnax4"
    000771  aa  064 000 000 000
    004006  aa   000000 204002          	vfd	18/0,o9/204,1/0,o4/,o4/2

                                 1-237            defop     cnax5,,205,0,,2
    000772  aa  143 156 141 170         	aci	"cnax5"
    000773  aa  065 000 000 000
    004007  aa   000000 205002          	vfd	18/0,o9/205,1/0,o4/,o4/2

                                 1-238            defop     cnax6,,206,0,,2
    000774  aa  143 156 141 170         	aci	"cnax6"
    000775  aa  066 000 000 000
    004010  aa   000000 206002          	vfd	18/0,o9/206,1/0,o4/,o4/2

                                 1-239            defop     cnax7,,207,0,,2
    000776  aa  143 156 141 170         	aci	"cnax7"
    000777  aa  067 000 000 000
    004011  aa   000000 207002          	vfd	18/0,o9/207,1/0,o4/,o4/2

                                 1-240            defop     csl,eis,060,1,2
    001000  aa  143 163 154 000         	aci	"csl"
    001001  aa  000 000 000 000
    004012  aa   000066 060422          	vfd	18/54,o9/060,1/1,o4/1,o4/2

                                 1-241            defop     csr,eis,061,1,2
    001002  aa  143 163 162 000         	aci	"csr"
    001003  aa  000 000 000 000
    004013  aa   000066 061422          	vfd	18/54,o9/061,1/1,o4/1,o4/2

                                 1-242            defop     cwl,,111,0,,2
    001004  aa  143 167 154 000         	aci	"cwl"
    001005  aa  000 000 000 000
    004014  aa   000000 111002          	vfd	18/0,o9/111,1/0,o4/,o4/2

                                 1-243            defop     dec,pseud,28,2
    001006  aa  144 145 143 000         	aci	"dec"
    001007  aa  000 000 000 000
    004015  aa   000034 000002          	vfd	18/28,o9/0,1/0,o4/0,o4/2

                                 1-244            defop     dec_unal,long,66,dec_unal,2
    001010  aa  144 145 143 137         	aci	"dec_unal"
    001011  aa  165 156 141 154
    004016  aa   000102 000002          	vfd	18/66,o9/0,1/0,o4/0,o4/2

    005247  aa   000341 000000          	zero	op_index
    005250  aa  010 144 145 143         	acc	"dec_unal"
    005251  aa  137 165 156 141
    005252  aa  154 000 000 000
    005253  aa  000 000 000 000
    005254  aa  000 000 000 000

                                 1-245            defop     decor,pseud,62,2
    001012  aa  144 145 143 157         	aci	"decor"
    001013  aa  162 000 000 000
    004017  aa   000076 000002          	vfd	18/62,o9/0,1/0,o4/0,o4/2

                                 1-246            defop     desc4a,desc,4,a,2
    001014  aa  144 145 163 143         	aci	"desc4a"
    001015  aa  064 141 000 000
    004020  aa   000067 000102          	vfd	18/55,o6/0,o4/0,4/4,o4/2

                                 1-247            defop     desc4fl,desc,4,fl,2
    001016  aa  144 145 163 143         	aci	"desc4fl"
    001017  aa  064 146 154 000
    004021  aa   000071 000102          	vfd	18/57,o6/0,o4/0,4/4,o4/2

                                 1-248            defop     desc4ls,desc,4,ls,2
    001020  aa  144 145 163 143         	aci	"desc4ls"
    001021  aa  064 154 163 000
    004022  aa   000071 000502          	vfd	18/57,o6/0,o4/1,4/4,o4/2

                                 1-249            defop     desc4ns,desc,4,ns,2
    001022  aa  144 145 163 143         	aci	"desc4ns"
    001023  aa  064 156 163 000
    004023  aa   000071 001502          	vfd	18/57,o6/0,o4/3,4/4,o4/2

                                 1-250            defop     desc4ts,desc,4,ts,2
    001024  aa  144 145 163 143         	aci	"desc4ts"
    001025  aa  064 164 163 000
    004024  aa   000071 001102          	vfd	18/57,o6/0,o4/2,4/4,o4/2

                                 1-251            defop     desc6a,desc,6,a,2
    001026  aa  144 145 163 143         	aci	"desc6a"
    001027  aa  066 141 000 000
    004025  aa   000067 000142          	vfd	18/55,o6/0,o4/0,4/6,o4/2

                                 1-252            defop     desc9a,desc,9,a,2
    001030  aa  144 145 163 143         	aci	"desc9a"
    001031  aa  071 141 000 000
    004026  aa   000067 000222          	vfd	18/55,o6/0,o4/0,4/9,o4/2

                                 1-253            defop     desc9fl,desc,9,fl,2
    001032  aa  144 145 163 143         	aci	"desc9fl"
    001033  aa  071 146 154 000
    004027  aa   000071 000222          	vfd	18/57,o6/0,o4/0,4/9,o4/2

                                 1-254            defop     desc9ls,desc,9,ls,2
    001034  aa  144 145 163 143         	aci	"desc9ls"
    001035  aa  071 154 163 000
    004030  aa   000071 000622          	vfd	18/57,o6/0,o4/1,4/9,o4/2

                                 1-255            defop     desc9ns,desc,9,ns,2
    001036  aa  144 145 163 143         	aci	"desc9ns"
    001037  aa  071 156 163 000
    004031  aa   000071 001622          	vfd	18/57,o6/0,o4/3,4/9,o4/2

                                 1-256            defop     desc9ts,desc,9,ts,2
    001040  aa  144 145 163 143         	aci	"desc9ts"
    001041  aa  071 164 163 000
    004032  aa   000071 001222          	vfd	18/57,o6/0,o4/2,4/9,o4/2

                                 1-257            defop     descb,desc,,b,2
    001042  aa  144 145 163 143         	aci	"descb"
    001043  aa  142 000 000 000
    004033  aa   000070 000022          	vfd	18/56,o6/0,o4/0,4/1,o4/2

                                 1-258            defop     dfad,,477,0,,2
    001044  aa  144 146 141 144         	aci	"dfad"
    001045  aa  000 000 000 000
    004034  aa   000000 477002          	vfd	18/0,o9/477,1/0,o4/,o4/2

                                 1-259            defop     dfcmg,,427,0,,2
    001046  aa  144 146 143 155         	aci	"dfcmg"
    001047  aa  147 000 000 000
    004035  aa   000000 427002          	vfd	18/0,o9/427,1/0,o4/,o4/2

                                 1-260            defop     dfcmp,,517,0,,2
    001050  aa  144 146 143 155         	aci	"dfcmp"
    001051  aa  160 000 000 000
    004036  aa   000000 517002          	vfd	18/0,o9/517,1/0,o4/,o4/2

                                 1-261            defop     dfdi,,527,0,,2
    001052  aa  144 146 144 151         	aci	"dfdi"
    001053  aa  000 000 000 000
    004037  aa   000000 527002          	vfd	18/0,o9/527,1/0,o4/,o4/2

                                 1-262            defop     dfdv,,567,0,,2
    001054  aa  144 146 144 166         	aci	"dfdv"
    001055  aa  000 000 000 000
    004040  aa   000000 567002          	vfd	18/0,o9/567,1/0,o4/,o4/2

                                 1-263            defop     dfld,,433,0,,2
    001056  aa  144 146 154 144         	aci	"dfld"
    001057  aa  000 000 000 000
    004041  aa   000000 433002          	vfd	18/0,o9/433,1/0,o4/,o4/2

                                 1-264            defop     dfmp,,463,0,,2
    001060  aa  144 146 155 160         	aci	"dfmp"
    001061  aa  000 000 000 000
    004042  aa   000000 463002          	vfd	18/0,o9/463,1/0,o4/,o4/2

                                 1-265            defop     dfrd,,473,0,,2
    001062  aa  144 146 162 144         	aci	"dfrd"
    001063  aa  000 000 000 000
    004043  aa   000000 473002          	vfd	18/0,o9/473,1/0,o4/,o4/2

                                 1-266            defop     dfsb,,577,0,,2
    001064  aa  144 146 163 142         	aci	"dfsb"
    001065  aa  000 000 000 000
    004044  aa   000000 577002          	vfd	18/0,o9/577,1/0,o4/,o4/2

                                 1-267            defop     dfst,,457,0,,2
    001066  aa  144 146 163 164         	aci	"dfst"
    001067  aa  000 000 000 000
    004045  aa   000000 457002          	vfd	18/0,o9/457,1/0,o4/,o4/2

                                 1-268            defop     dfstr,,472,0,,2
    001070  aa  144 146 163 164         	aci	"dfstr"
    001071  aa  162 000 000 000
    004046  aa   000000 472002          	vfd	18/0,o9/472,1/0,o4/,o4/2

                                 1-269            defop     dis,,616,0,,2
    001072  aa  144 151 163 000         	aci	"dis"
    001073  aa  000 000 000 000
    004047  aa   000000 616002          	vfd	18/0,o9/616,1/0,o4/,o4/2

                                 1-270            defop     div,,506,0,,2
    001074  aa  144 151 166 000         	aci	"div"
    001075  aa  000 000 000 000
    004050  aa   000000 506002          	vfd	18/0,o9/506,1/0,o4/,o4/2

                                 1-271            defop     drl,,002,0,,2
    001076  aa  144 162 154 000         	aci	"drl"
    001077  aa  000 000 000 000
    004051  aa   000000 002002          	vfd	18/0,o9/002,1/0,o4/,o4/2

                                 1-272            defop     dtb,eis,305,0,2
    001100  aa  144 164 142 000         	aci	"dtb"
    001101  aa  000 000 000 000
    004052  aa   000066 305402          	vfd	18/54,o9/305,1/1,o4/0,o4/2

                                 1-273            defop     dufa,,437,0,,2
    001102  aa  144 165 146 141         	aci	"dufa"
    001103  aa  000 000 000 000
    004053  aa   000000 437002          	vfd	18/0,o9/437,1/0,o4/,o4/2

                                 1-274            defop     dufm,,423,0,,2
    001104  aa  144 165 146 155         	aci	"dufm"
    001105  aa  000 000 000 000
    004054  aa   000000 423002          	vfd	18/0,o9/423,1/0,o4/,o4/2

                                 1-275            defop     dufs,,537,0,,2
    001106  aa  144 165 146 163         	aci	"dufs"
    001107  aa  000 000 000 000
    004055  aa   000000 537002          	vfd	18/0,o9/537,1/0,o4/,o4/2

                                 1-276            defop     dup,pseud,9,2
    001110  aa  144 165 160 000         	aci	"dup"
    001111  aa  000 000 000 000
    004056  aa   000011 000002          	vfd	18/9,o9/0,1/0,o4/0,o4/2

                                 1-277            defop     dupend,pseud,10,2
    001112  aa  144 165 160 145         	aci	"dupend"
    001113  aa  156 144 000 000
    004057  aa   000012 000002          	vfd	18/10,o9/0,1/0,o4/0,o4/2

                                 1-278            defop     dv2d,eis,207,0,2
    001114  aa  144 166 062 144         	aci	"dv2d"
    001115  aa  000 000 000 000
    004060  aa   000066 207402          	vfd	18/54,o9/207,1/1,o4/0,o4/2

                                 1-279            defop     dv2dx,eis,247,0,0
    001116  aa  144 166 062 144         	aci	"dv2dx"
    001117  aa  170 000 000 000
    004061  aa   000066 247400          	vfd	18/54,o9/247,1/1,o4/0,o4/0

                                 1-280            defop     dv3d,eis,227,0,2
    001120  aa  144 166 063 144         	aci	"dv3d"
    001121  aa  000 000 000 000
    004062  aa   000066 227402          	vfd	18/54,o9/227,1/1,o4/0,o4/2

                                 1-281            defop     dv3dx,eis,267,0,0
    001122  aa  144 166 063 144         	aci	"dv3dx"
    001123  aa  170 000 000 000
    004063  aa   000066 267400          	vfd	18/54,o9/267,1/1,o4/0,o4/0

                                 1-282            defop     dvf,,507,0,,2
    001124  aa  144 166 146 000         	aci	"dvf"
    001125  aa  000 000 000 000
    004064  aa   000000 507002          	vfd	18/0,o9/507,1/0,o4/,o4/2

                                 1-283            defop     eaa,,635,0,,2
    001126  aa  145 141 141 000         	aci	"eaa"
    001127  aa  000 000 000 000
    004065  aa   000000 635002          	vfd	18/0,o9/635,1/0,o4/,o4/2

                                 1-284            defop     eaq,,636,0,,2
    001130  aa  145 141 161 000         	aci	"eaq"
    001131  aa  000 000 000 000
    004066  aa   000000 636002          	vfd	18/0,o9/636,1/0,o4/,o4/2

                                 1-285            defop     easp,pr,2
    001132  aa  145 141 163 160         	aci	"easp"
    001133  aa  000 000 000 000
    004067  aa   000054 000002          	vfd	18/44,o9/0,1/0,o4/0,o4/2

                                 1-286            defop     easp0,,311,0,,2
    001134  aa  145 141 163 160         	aci	"easp0"
    001135  aa  060 000 000 000
    004070  aa   000000 311002          	vfd	18/0,o9/311,1/0,o4/,o4/2

                                 1-287            defop     easp1,,310,1,,2
    001136  aa  145 141 163 160         	aci	"easp1"
    001137  aa  061 000 000 000
    004071  aa   000000 310402          	vfd	18/0,o9/310,1/1,o4/,o4/2

                                 1-288            defop     easp2,,313,0,,2
    001140  aa  145 141 163 160         	aci	"easp2"
    001141  aa  062 000 000 000
    004072  aa   000000 313002          	vfd	18/0,o9/313,1/0,o4/,o4/2

                                 1-289            defop     easp3,,312,1,,2
    001142  aa  145 141 163 160         	aci	"easp3"
    001143  aa  063 000 000 000
    004073  aa   000000 312402          	vfd	18/0,o9/312,1/1,o4/,o4/2

                                 1-290            defop     easp4,,331,0,,2
    001144  aa  145 141 163 160         	aci	"easp4"
    001145  aa  064 000 000 000
    004074  aa   000000 331002          	vfd	18/0,o9/331,1/0,o4/,o4/2

                                 1-291            defop     easp5,,330,1,,2
    001146  aa  145 141 163 160         	aci	"easp5"
    001147  aa  065 000 000 000
    004075  aa   000000 330402          	vfd	18/0,o9/330,1/1,o4/,o4/2

                                 1-292            defop     easp6,,333,0,,2
    001150  aa  145 141 163 160         	aci	"easp6"
    001151  aa  066 000 000 000
    004076  aa   000000 333002          	vfd	18/0,o9/333,1/0,o4/,o4/2

                                 1-293            defop     easp7,,332,1,,2
    001152  aa  145 141 163 160         	aci	"easp7"
    001153  aa  067 000 000 000
    004077  aa   000000 332402          	vfd	18/0,o9/332,1/1,o4/,o4/2

                                 1-294            defop     easpab,,310,1,,2
    001154  aa  145 141 163 160         	aci	"easpab"
    001155  aa  141 142 000 000
    004100  aa   000000 310402          	vfd	18/0,o9/310,1/1,o4/,o4/2

                                 1-295            defop     easpap,,311,0,,2
    001156  aa  145 141 163 160         	aci	"easpap"
    001157  aa  141 160 000 000
    004101  aa   000000 311002          	vfd	18/0,o9/311,1/0,o4/,o4/2

                                 1-296            defop     easpbb,,312,1,,2
    001160  aa  145 141 163 160         	aci	"easpbb"
    001161  aa  142 142 000 000
    004102  aa   000000 312402          	vfd	18/0,o9/312,1/1,o4/,o4/2

                                 1-297            defop     easpbp,,313,0,,2
    001162  aa  145 141 163 160         	aci	"easpbp"
    001163  aa  142 160 000 000
    004103  aa   000000 313002          	vfd	18/0,o9/313,1/0,o4/,o4/2

                                 1-298            defop     easplb,,330,1,,2
    001164  aa  145 141 163 160         	aci	"easplb"
    001165  aa  154 142 000 000
    004104  aa   000000 330402          	vfd	18/0,o9/330,1/1,o4/,o4/2

                                 1-299            defop     easplp,,331,0,,2
    001166  aa  145 141 163 160         	aci	"easplp"
    001167  aa  154 160 000 000
    004105  aa   000000 331002          	vfd	18/0,o9/331,1/0,o4/,o4/2

                                 1-300            defop     easpsb,,332,1,,2
    001170  aa  145 141 163 160         	aci	"easpsb"
    001171  aa  163 142 000 000
    004106  aa   000000 332402          	vfd	18/0,o9/332,1/1,o4/,o4/2

                                 1-301            defop     easpsp,,333,0,,2
    001172  aa  145 141 163 160         	aci	"easpsp"
    001173  aa  163 160 000 000
    004107  aa   000000 333002          	vfd	18/0,o9/333,1/0,o4/,o4/2

                                 1-302            defop     eawp,pr,2
    001174  aa  145 141 167 160         	aci	"eawp"
    001175  aa  000 000 000 000
    004110  aa   000054 000002          	vfd	18/44,o9/0,1/0,o4/0,o4/2

                                 1-303            defop     eawp0,,310,0,,2
    001176  aa  145 141 167 160         	aci	"eawp0"
    001177  aa  060 000 000 000
    004111  aa   000000 310002          	vfd	18/0,o9/310,1/0,o4/,o4/2

                                 1-304            defop     eawp1,,311,1,,2
    001200  aa  145 141 167 160         	aci	"eawp1"
    001201  aa  061 000 000 000
    004112  aa   000000 311402          	vfd	18/0,o9/311,1/1,o4/,o4/2

                                 1-305            defop     eawp2,,312,0,,2
    001202  aa  145 141 167 160         	aci	"eawp2"
    001203  aa  062 000 000 000
    004113  aa   000000 312002          	vfd	18/0,o9/312,1/0,o4/,o4/2

                                 1-306            defop     eawp3,,313,1,,2
    001204  aa  145 141 167 160         	aci	"eawp3"
    001205  aa  063 000 000 000
    004114  aa   000000 313402          	vfd	18/0,o9/313,1/1,o4/,o4/2

                                 1-307            defop     eawp4,,330,0,,2
    001206  aa  145 141 167 160         	aci	"eawp4"
    001207  aa  064 000 000 000
    004115  aa   000000 330002          	vfd	18/0,o9/330,1/0,o4/,o4/2

                                 1-308            defop     eawp5,,331,1,,2
    001210  aa  145 141 167 160         	aci	"eawp5"
    001211  aa  065 000 000 000
    004116  aa   000000 331402          	vfd	18/0,o9/331,1/1,o4/,o4/2

                                 1-309            defop     eawp6,,332,0,,2
    001212  aa  145 141 167 160         	aci	"eawp6"
    001213  aa  066 000 000 000
    004117  aa   000000 332002          	vfd	18/0,o9/332,1/0,o4/,o4/2

                                 1-310            defop     eawp7,,333,1,,2
    001214  aa  145 141 167 160         	aci	"eawp7"
    001215  aa  067 000 000 000
    004120  aa   000000 333402          	vfd	18/0,o9/333,1/1,o4/,o4/2

                                 1-311            defop     eawpab,,311,1,,2
    001216  aa  145 141 167 160         	aci	"eawpab"
    001217  aa  141 142 000 000
    004121  aa   000000 311402          	vfd	18/0,o9/311,1/1,o4/,o4/2

                                 1-312            defop     eawpap,,310,0,,2
    001220  aa  145 141 167 160         	aci	"eawpap"
    001221  aa  141 160 000 000
    004122  aa   000000 310002          	vfd	18/0,o9/310,1/0,o4/,o4/2

                                 1-313            defop     eawpbb,,313,1,,2
    001222  aa  145 141 167 160         	aci	"eawpbb"
    001223  aa  142 142 000 000
    004123  aa   000000 313402          	vfd	18/0,o9/313,1/1,o4/,o4/2

                                 1-314            defop     eawpbp,,312,0,,2
    001224  aa  145 141 167 160         	aci	"eawpbp"
    001225  aa  142 160 000 000
    004124  aa   000000 312002          	vfd	18/0,o9/312,1/0,o4/,o4/2

                                 1-315            defop     eawplb,,331,1,,2
    001226  aa  145 141 167 160         	aci	"eawplb"
    001227  aa  154 142 000 000
    004125  aa   000000 331402          	vfd	18/0,o9/331,1/1,o4/,o4/2

                                 1-316            defop     eawplp,,330,0,,2
    001230  aa  145 141 167 160         	aci	"eawplp"
    001231  aa  154 160 000 000
    004126  aa   000000 330002          	vfd	18/0,o9/330,1/0,o4/,o4/2

                                 1-317            defop     eawpsb,,333,1,,2
    001232  aa  145 141 167 160         	aci	"eawpsb"
    001233  aa  163 142 000 000
    004127  aa   000000 333402          	vfd	18/0,o9/333,1/1,o4/,o4/2

                                 1-318            defop     eawpsp,,332,0,,2
    001234  aa  145 141 167 160         	aci	"eawpsp"
    001235  aa  163 160 000 000
    004130  aa   000000 332002          	vfd	18/0,o9/332,1/0,o4/,o4/2

                                 1-319            defop     eax,xr,2
    001236  aa  145 141 170 000         	aci	"eax"
    001237  aa  000 000 000 000
    004131  aa   000053 000002          	vfd	18/43,o9/0,1/0,o4/0,o4/2

                                 1-320            defop     eax0,,620,0,,2
    001240  aa  145 141 170 060         	aci	"eax0"
    001241  aa  000 000 000 000
    004132  aa   000000 620002          	vfd	18/0,o9/620,1/0,o4/,o4/2

                                 1-321            defop     eax1,,621,0,,2
    001242  aa  145 141 170 061         	aci	"eax1"
    001243  aa  000 000 000 000
    004133  aa   000000 621002          	vfd	18/0,o9/621,1/0,o4/,o4/2

                                 1-322            defop     eax2,,622,0,,2
    001244  aa  145 141 170 062         	aci	"eax2"
    001245  aa  000 000 000 000
    004134  aa   000000 622002          	vfd	18/0,o9/622,1/0,o4/,o4/2

                                 1-323            defop     eax3,,623,0,,2
    001246  aa  145 141 170 063         	aci	"eax3"
    001247  aa  000 000 000 000
    004135  aa   000000 623002          	vfd	18/0,o9/623,1/0,o4/,o4/2

                                 1-324            defop     eax4,,624,0,,2
    001250  aa  145 141 170 064         	aci	"eax4"
    001251  aa  000 000 000 000
    004136  aa   000000 624002          	vfd	18/0,o9/624,1/0,o4/,o4/2

                                 1-325            defop     eax5,,625,0,,2
    001252  aa  145 141 170 065         	aci	"eax5"
    001253  aa  000 000 000 000
    004137  aa   000000 625002          	vfd	18/0,o9/625,1/0,o4/,o4/2

                                 1-326            defop     eax6,,626,0,,2
    001254  aa  145 141 170 066         	aci	"eax6"
    001255  aa  000 000 000 000
    004140  aa   000000 626002          	vfd	18/0,o9/626,1/0,o4/,o4/2

                                 1-327            defop     eax7,,627,0,,2
    001256  aa  145 141 170 067         	aci	"eax7"
    001257  aa  000 000 000 000
    004141  aa   000000 627002          	vfd	18/0,o9/627,1/0,o4/,o4/2

                                 1-328            defop     eight,pseud,7,2
    001260  aa  145 151 147 150         	aci	"eight"
    001261  aa  164 000 000 000
    004142  aa   000007 000002          	vfd	18/7,o9/0,1/0,o4/0,o4/2

                                 1-329            defop     end,pseud,1,2
    001262  aa  145 156 144 000         	aci	"end"
    001263  aa  000 000 000 000
    004143  aa   000001 000002          	vfd	18/1,o9/0,1/0,o4/0,o4/2

                                 1-330            defop     end_bloc,long,69,end_block,2
    001264  aa  145 156 144 137         	aci	"end_bloc"
    001265  aa  142 154 157 143
    004144  aa   000105 000002          	vfd	18/69,o9/0,1/0,o4/0,o4/2

    005255  aa   000467 000000          	zero	op_index
    005256  aa  011 145 156 144         	acc	"end_block"
    005257  aa  137 142 154 157
    005260  aa  143 153 000 000
    005261  aa  000 000 000 000
    005262  aa  000 000 000 000

                                 1-331            defop     end_enum,long,71,end_enum,2
    001266  aa  145 156 144 137         	aci	"end_enum"
    001267  aa  145 156 165 155
    004145  aa   000107 000002          	vfd	18/71,o9/0,1/0,o4/0,o4/2

    005263  aa   000470 000000          	zero	op_index
    005264  aa  010 145 156 144         	acc	"end_enum"
    005265  aa  137 145 156 165
    005266  aa  155 000 000 000
    005267  aa  000 000 000 000
    005270  aa  000 000 000 000

                                 1-332            defop     end_sour,long,73,end_source,2
    001270  aa  145 156 144 137         	aci	"end_sour"
    001271  aa  163 157 165 162
    004146  aa   000111 000002          	vfd	18/73,o9/0,1/0,o4/0,o4/2

    005271  aa   000471 000000          	zero	op_index
    005272  aa  012 145 156 144         	acc	"end_source"
    005273  aa  137 163 157 165
    005274  aa  162 143 145 000
    005275  aa  000 000 000 000
    005276  aa  000 000 000 000

                                 1-333            defop     end_stru,long,76,end_structure,2
    001272  aa  145 156 144 137         	aci	"end_stru"
    001273  aa  163 164 162 165
    004147  aa   000114 000002          	vfd	18/76,o9/0,1/0,o4/0,o4/2

    005277  aa   000472 000000          	zero	op_index
    005300  aa  015 145 156 144         	acc	"end_structure"
    005301  aa  137 163 164 162
    005302  aa  165 143 164 165
    005303  aa  162 145 000 000
    005304  aa  000 000 000 000

                                 1-334            defop     end_unio,long,79,end_union,2
    001274  aa  145 156 144 137         	aci	"end_unio"
    001275  aa  165 156 151 157
    004150  aa   000117 000002          	vfd	18/79,o9/0,1/0,o4/0,o4/2

    005305  aa   000473 000000          	zero	op_index
    005306  aa  011 145 156 144         	acc	"end_union"
    005307  aa  137 165 156 151
    005310  aa  157 156 000 000
    005311  aa  000 000 000 000
    005312  aa  000 000 000 000

                                 1-335            defop     entry,pseud,38,2
    001276  aa  145 156 164 162         	aci	"entry"
    001277  aa  171 000 000 000
    004151  aa   000046 000002          	vfd	18/38,o9/0,1/0,o4/0,o4/2

                                 1-336            defop     entrybou,long,58,entrybound,2
    001300  aa  145 156 164 162         	aci	"entrybou"
    001301  aa  171 142 157 165
    004152  aa   000072 000002          	vfd	18/58,o9/0,1/0,o4/0,o4/2

    005313  aa   000475 000000          	zero	op_index
    005314  aa  012 145 156 164         	acc	"entrybound"
    005315  aa  162 171 142 157
    005316  aa  165 156 144 000
    005317  aa  000 000 000 000
    005320  aa  000 000 000 000

                                 1-337            defop     enum,pseud,70,2
    001302  aa  145 156 165 155         	aci	"enum"
    001303  aa  000 000 000 000
    004153  aa   000106 000002          	vfd	18/70,o9/0,1/0,o4/0,o4/2

                                 1-338            defop     epaq,,213,0,,2
    001304  aa  145 160 141 161         	aci	"epaq"
    001305  aa  000 000 000 000
    004154  aa   000000 213002          	vfd	18/0,o9/213,1/0,o4/,o4/2

                                 1-339            defop     epat,,412,1,,0
    001306  aa  145 160 141 164         	aci	"epat"
    001307  aa  000 000 000 000
    004155  aa   000000 412400          	vfd	18/0,o9/412,1/1,o4/,o4/0

                                 1-340            defop     epbp,pr,2
    001310  aa  145 160 142 160         	aci	"epbp"
    001311  aa  000 000 000 000
    004156  aa   000054 000002          	vfd	18/44,o9/0,1/0,o4/0,o4/2

                                 1-341            defop     epbp0,,350,1,,2
    001312  aa  145 160 142 160         	aci	"epbp0"
    001313  aa  060 000 000 000
    004157  aa   000000 350402          	vfd	18/0,o9/350,1/1,o4/,o4/2

                                 1-342            defop     epbp1,,351,0,,2
    001314  aa  145 160 142 160         	aci	"epbp1"
    001315  aa  061 000 000 000
    004160  aa   000000 351002          	vfd	18/0,o9/351,1/0,o4/,o4/2

                                 1-343            defop     epbp2,,352,1,,2
    001316  aa  145 160 142 160         	aci	"epbp2"
    001317  aa  062 000 000 000
    004161  aa   000000 352402          	vfd	18/0,o9/352,1/1,o4/,o4/2

                                 1-344            defop     epbp3,,353,0,,2
    001320  aa  145 160 142 160         	aci	"epbp3"
    001321  aa  063 000 000 000
    004162  aa   000000 353002          	vfd	18/0,o9/353,1/0,o4/,o4/2

                                 1-345            defop     epbp4,,370,1,,2
    001322  aa  145 160 142 160         	aci	"epbp4"
    001323  aa  064 000 000 000
    004163  aa   000000 370402          	vfd	18/0,o9/370,1/1,o4/,o4/2

                                 1-346            defop     epbp5,,371,0,,2
    001324  aa  145 160 142 160         	aci	"epbp5"
    001325  aa  065 000 000 000
    004164  aa   000000 371002          	vfd	18/0,o9/371,1/0,o4/,o4/2

                                 1-347            defop     epbp6,,372,1,,2
    001326  aa  145 160 142 160         	aci	"epbp6"
    001327  aa  066 000 000 000
    004165  aa   000000 372402          	vfd	18/0,o9/372,1/1,o4/,o4/2

                                 1-348            defop     epbp7,,373,0,,2
    001330  aa  145 160 142 160         	aci	"epbp7"
    001331  aa  067 000 000 000
    004166  aa   000000 373002          	vfd	18/0,o9/373,1/0,o4/,o4/2

                                 1-349            defop     epbpab,,351,0,,2
    001332  aa  145 160 142 160         	aci	"epbpab"
    001333  aa  141 142 000 000
    004167  aa   000000 351002          	vfd	18/0,o9/351,1/0,o4/,o4/2

                                 1-350            defop     epbpap,,350,1,,2
    001334  aa  145 160 142 160         	aci	"epbpap"
    001335  aa  141 160 000 000
    004170  aa   000000 350402          	vfd	18/0,o9/350,1/1,o4/,o4/2

                                 1-351            defop     epbpbb,,353,0,,2
    001336  aa  145 160 142 160         	aci	"epbpbb"
    001337  aa  142 142 000 000
    004171  aa   000000 353002          	vfd	18/0,o9/353,1/0,o4/,o4/2

                                 1-352            defop     epbpbp,,352,1,,2
    001340  aa  145 160 142 160         	aci	"epbpbp"
    001341  aa  142 160 000 000
    004172  aa   000000 352402          	vfd	18/0,o9/352,1/1,o4/,o4/2

                                 1-353            defop     epbplb,,371,0,,2
    001342  aa  145 160 142 160         	aci	"epbplb"
    001343  aa  154 142 000 000
    004173  aa   000000 371002          	vfd	18/0,o9/371,1/0,o4/,o4/2

                                 1-354            defop     epbplp,,370,1,,2
    001344  aa  145 160 142 160         	aci	"epbplp"
    001345  aa  154 160 000 000
    004174  aa   000000 370402          	vfd	18/0,o9/370,1/1,o4/,o4/2

                                 1-355            defop     epbpsb,,373,0,,2
    001346  aa  145 160 142 160         	aci	"epbpsb"
    001347  aa  163 142 000 000
    004175  aa   000000 373002          	vfd	18/0,o9/373,1/0,o4/,o4/2

                                 1-356            defop     epbpsp,,372,1,,2
    001350  aa  145 160 142 160         	aci	"epbpsp"
    001351  aa  163 160 000 000
    004176  aa   000000 372402          	vfd	18/0,o9/372,1/1,o4/,o4/2

                                 1-357            defop     epp,pr,2
    001352  aa  145 160 160 000         	aci	"epp"
    001353  aa  000 000 000 000
    004177  aa   000054 000002          	vfd	18/44,o9/0,1/0,o4/0,o4/2

                                 1-358            defop     epp0,,350,0,,2
    001354  aa  145 160 160 060         	aci	"epp0"
    001355  aa  000 000 000 000
    004200  aa   000000 350002          	vfd	18/0,o9/350,1/0,o4/,o4/2

                                 1-359            defop     epp1,,351,1,,2
    001356  aa  145 160 160 061         	aci	"epp1"
    001357  aa  000 000 000 000
    004201  aa   000000 351402          	vfd	18/0,o9/351,1/1,o4/,o4/2

                                 1-360            defop     epp2,,352,0,,2
    001360  aa  145 160 160 062         	aci	"epp2"
    001361  aa  000 000 000 000
    004202  aa   000000 352002          	vfd	18/0,o9/352,1/0,o4/,o4/2

                                 1-361            defop     epp3,,353,1,,2
    001362  aa  145 160 160 063         	aci	"epp3"
    001363  aa  000 000 000 000
    004203  aa   000000 353402          	vfd	18/0,o9/353,1/1,o4/,o4/2

                                 1-362            defop     epp4,,370,0,,2
    001364  aa  145 160 160 064         	aci	"epp4"
    001365  aa  000 000 000 000
    004204  aa   000000 370002          	vfd	18/0,o9/370,1/0,o4/,o4/2

                                 1-363            defop     epp5,,371,1,,2
    001366  aa  145 160 160 065         	aci	"epp5"
    001367  aa  000 000 000 000
    004205  aa   000000 371402          	vfd	18/0,o9/371,1/1,o4/,o4/2

                                 1-364            defop     epp6,,372,0,,2
    001370  aa  145 160 160 066         	aci	"epp6"
    001371  aa  000 000 000 000
    004206  aa   000000 372002          	vfd	18/0,o9/372,1/0,o4/,o4/2

                                 1-365            defop     epp7,,373,1,,2
    001372  aa  145 160 160 067         	aci	"epp7"
    001373  aa  000 000 000 000
    004207  aa   000000 373402          	vfd	18/0,o9/373,1/1,o4/,o4/2

                                 1-366            defop     eppab,,351,1,,2
    001374  aa  145 160 160 141         	aci	"eppab"
    001375  aa  142 000 000 000
    004210  aa   000000 351402          	vfd	18/0,o9/351,1/1,o4/,o4/2

                                 1-367            defop     eppap,,350,0,,2
    001376  aa  145 160 160 141         	aci	"eppap"
    001377  aa  160 000 000 000
    004211  aa   000000 350002          	vfd	18/0,o9/350,1/0,o4/,o4/2

                                 1-368            defop     eppbb,,353,1,,2
    001400  aa  145 160 160 142         	aci	"eppbb"
    001401  aa  142 000 000 000
    004212  aa   000000 353402          	vfd	18/0,o9/353,1/1,o4/,o4/2

                                 1-369            defop     eppbp,,352,0,,2
    001402  aa  145 160 160 142         	aci	"eppbp"
    001403  aa  160 000 000 000
    004213  aa   000000 352002          	vfd	18/0,o9/352,1/0,o4/,o4/2

                                 1-370            defop     epplb,,371,1,,2
    001404  aa  145 160 160 154         	aci	"epplb"
    001405  aa  142 000 000 000
    004214  aa   000000 371402          	vfd	18/0,o9/371,1/1,o4/,o4/2

                                 1-371            defop     epplp,,370,0,,2
    001406  aa  145 160 160 154         	aci	"epplp"
    001407  aa  160 000 000 000
    004215  aa   000000 370002          	vfd	18/0,o9/370,1/0,o4/,o4/2

                                 1-372            defop     eppsb,,373,1,,2
    001410  aa  145 160 160 163         	aci	"eppsb"
    001411  aa  142 000 000 000
    004216  aa   000000 373402          	vfd	18/0,o9/373,1/1,o4/,o4/2

                                 1-373            defop     eppsp,,372,0,,2
    001412  aa  145 160 160 163         	aci	"eppsp"
    001413  aa  160 000 000 000
    004217  aa   000000 372002          	vfd	18/0,o9/372,1/0,o4/,o4/2

                                 1-374            defop     equ,pseud,19,2
    001414  aa  145 161 165 000         	aci	"equ"
    001415  aa  000 000 000 000
    004220  aa   000023 000002          	vfd	18/19,o9/0,1/0,o4/0,o4/2

                                 1-375            defop     era,,675,0,,2
    001416  aa  145 162 141 000         	aci	"era"
    001417  aa  000 000 000 000
    004221  aa   000000 675002          	vfd	18/0,o9/675,1/0,o4/,o4/2

                                 1-376            defop     eraq,,677,0,,2
    001420  aa  145 162 141 161         	aci	"eraq"
    001421  aa  000 000 000 000
    004222  aa   000000 677002          	vfd	18/0,o9/677,1/0,o4/,o4/2

                                 1-377            defop     erq,,676,0,,2
    001422  aa  145 162 161 000         	aci	"erq"
    001423  aa  000 000 000 000
    004223  aa   000000 676002          	vfd	18/0,o9/676,1/0,o4/,o4/2

                                 1-378            defop     error,pseud,63,2
    001424  aa  145 162 162 157         	aci	"error"
    001425  aa  162 000 000 000
    004224  aa   000077 000002          	vfd	18/63,o9/0,1/0,o4/0,o4/2

                                 1-379            defop     ersa,,655,0,,2
    001426  aa  145 162 163 141         	aci	"ersa"
    001427  aa  000 000 000 000
    004225  aa   000000 655002          	vfd	18/0,o9/655,1/0,o4/,o4/2

                                 1-380            defop     ersq,,656,0,,2
    001430  aa  145 162 163 161         	aci	"ersq"
    001431  aa  000 000 000 000
    004226  aa   000000 656002          	vfd	18/0,o9/656,1/0,o4/,o4/2

                                 1-381            defop     ersx,xr,2
    001432  aa  145 162 163 170         	aci	"ersx"
    001433  aa  000 000 000 000
    004227  aa   000053 000002          	vfd	18/43,o9/0,1/0,o4/0,o4/2

                                 1-382            defop     ersx0,,640,0,,2
    001434  aa  145 162 163 170         	aci	"ersx0"
    001435  aa  060 000 000 000
    004230  aa   000000 640002          	vfd	18/0,o9/640,1/0,o4/,o4/2

                                 1-383            defop     ersx1,,641,0,,2
    001436  aa  145 162 163 170         	aci	"ersx1"
    001437  aa  061 000 000 000
    004231  aa   000000 641002          	vfd	18/0,o9/641,1/0,o4/,o4/2

                                 1-384            defop     ersx2,,642,0,,2
    001440  aa  145 162 163 170         	aci	"ersx2"
    001441  aa  062 000 000 000
    004232  aa   000000 642002          	vfd	18/0,o9/642,1/0,o4/,o4/2

                                 1-385            defop     ersx3,,643,0,,2
    001442  aa  145 162 163 170         	aci	"ersx3"
    001443  aa  063 000 000 000
    004233  aa   000000 643002          	vfd	18/0,o9/643,1/0,o4/,o4/2

                                 1-386            defop     ersx4,,644,0,,2
    001444  aa  145 162 163 170         	aci	"ersx4"
    001445  aa  064 000 000 000
    004234  aa   000000 644002          	vfd	18/0,o9/644,1/0,o4/,o4/2

                                 1-387            defop     ersx5,,645,0,,2
    001446  aa  145 162 163 170         	aci	"ersx5"
    001447  aa  065 000 000 000
    004235  aa   000000 645002          	vfd	18/0,o9/645,1/0,o4/,o4/2

                                 1-388            defop     ersx6,,646,0,,2
    001450  aa  145 162 163 170         	aci	"ersx6"
    001451  aa  066 000 000 000
    004236  aa   000000 646002          	vfd	18/0,o9/646,1/0,o4/,o4/2

                                 1-389            defop     ersx7,,647,0,,2
    001452  aa  145 162 163 170         	aci	"ersx7"
    001453  aa  067 000 000 000
    004237  aa   000000 647002          	vfd	18/0,o9/647,1/0,o4/,o4/2

                                 1-390            defop     erx,xr,2
    001454  aa  145 162 170 000         	aci	"erx"
    001455  aa  000 000 000 000
    004240  aa   000053 000002          	vfd	18/43,o9/0,1/0,o4/0,o4/2

                                 1-391            defop     erx0,,660,0,,2
    001456  aa  145 162 170 060         	aci	"erx0"
    001457  aa  000 000 000 000
    004241  aa   000000 660002          	vfd	18/0,o9/660,1/0,o4/,o4/2

                                 1-392            defop     erx1,,661,0,,2
    001460  aa  145 162 170 061         	aci	"erx1"
    001461  aa  000 000 000 000
    004242  aa   000000 661002          	vfd	18/0,o9/661,1/0,o4/,o4/2

                                 1-393            defop     erx2,,662,0,,2
    001462  aa  145 162 170 062         	aci	"erx2"
    001463  aa  000 000 000 000
    004243  aa   000000 662002          	vfd	18/0,o9/662,1/0,o4/,o4/2

                                 1-394            defop     erx3,,663,0,,2
    001464  aa  145 162 170 063         	aci	"erx3"
    001465  aa  000 000 000 000
    004244  aa   000000 663002          	vfd	18/0,o9/663,1/0,o4/,o4/2

                                 1-395            defop     erx4,,664,0,,2
    001466  aa  145 162 170 064         	aci	"erx4"
    001467  aa  000 000 000 000
    004245  aa   000000 664002          	vfd	18/0,o9/664,1/0,o4/,o4/2

                                 1-396            defop     erx5,,665,0,,2
    001470  aa  145 162 170 065         	aci	"erx5"
    001471  aa  000 000 000 000
    004246  aa   000000 665002          	vfd	18/0,o9/665,1/0,o4/,o4/2

                                 1-397            defop     erx6,,666,0,,2
    001472  aa  145 162 170 066         	aci	"erx6"
    001473  aa  000 000 000 000
    004247  aa   000000 666002          	vfd	18/0,o9/666,1/0,o4/,o4/2

                                 1-398            defop     erx7,,667,0,,2
    001474  aa  145 162 170 067         	aci	"erx7"
    001475  aa  000 000 000 000
    004250  aa   000000 667002          	vfd	18/0,o9/667,1/0,o4/,o4/2

                                 1-399            defop     even,pseud,5,2
    001476  aa  145 166 145 156         	aci	"even"
    001477  aa  000 000 000 000
    004251  aa   000005 000002          	vfd	18/5,o9/0,1/0,o4/0,o4/2

                                 1-400            defop     ext_entr,long,64,ext_entry,2
    001500  aa  145 170 164 137         	aci	"ext_entr"
    001501  aa  145 156 164 162
    004252  aa   000100 000002          	vfd	18/64,o9/0,1/0,o4/0,o4/2

    005321  aa   000575 000000          	zero	op_index
    005322  aa  011 145 170 164         	acc	"ext_entry"
    005323  aa  137 145 156 164
    005324  aa  162 171 000 000
    005325  aa  000 000 000 000
    005326  aa  000 000 000 000

                                 1-401            defop     fad,,475,0,,2
    001502  aa  146 141 144 000         	aci	"fad"
    001503  aa  000 000 000 000
    004253  aa   000000 475002          	vfd	18/0,o9/475,1/0,o4/,o4/2

                                 1-402            defop     fcmg,,425,0,,2
    001504  aa  146 143 155 147         	aci	"fcmg"
    001505  aa  000 000 000 000
    004254  aa   000000 425002          	vfd	18/0,o9/425,1/0,o4/,o4/2

                                 1-403            defop     fcmp,,515,0,,2
    001506  aa  146 143 155 160         	aci	"fcmp"
    001507  aa  000 000 000 000
    004255  aa   000000 515002          	vfd	18/0,o9/515,1/0,o4/,o4/2

                                 1-404            defop     fdi,,525,0,,2
    001510  aa  146 144 151 000         	aci	"fdi"
    001511  aa  000 000 000 000
    004256  aa   000000 525002          	vfd	18/0,o9/525,1/0,o4/,o4/2

                                 1-405            defop     fdv,,565,0,,2
    001512  aa  146 144 166 000         	aci	"fdv"
    001513  aa  000 000 000 000
    004257  aa   000000 565002          	vfd	18/0,o9/565,1/0,o4/,o4/2

                                 1-406            defop     firstref,long,48,firstref,2
    001514  aa  146 151 162 163         	aci	"firstref"
    001515  aa  164 162 145 146
    004260  aa   000060 000002          	vfd	18/48,o9/0,1/0,o4/0,o4/2

    005327  aa   000603 000000          	zero	op_index
    005330  aa  010 146 151 162         	acc	"firstref"
    005331  aa  163 164 162 145
    005332  aa  146 000 000 000
    005333  aa  000 000 000 000
    005334  aa  000 000 000 000

                                 1-407            defop     fld,,431,0,,2
    001516  aa  146 154 144 000         	aci	"fld"
    001517  aa  000 000 000 000
    004261  aa   000000 431002          	vfd	18/0,o9/431,1/0,o4/,o4/2

                                 1-408            defop     fmp,,461,0,,2
    001520  aa  146 155 160 000         	aci	"fmp"
    001521  aa  000 000 000 000
    004262  aa   000000 461002          	vfd	18/0,o9/461,1/0,o4/,o4/2

                                 1-409            defop     fneg,,513,0,,2
    001522  aa  146 156 145 147         	aci	"fneg"
    001523  aa  000 000 000 000
    004263  aa   000000 513002          	vfd	18/0,o9/513,1/0,o4/,o4/2

                                 1-410            defop     fno,,573,0,,2
    001524  aa  146 156 157 000         	aci	"fno"
    001525  aa  000 000 000 000
    004264  aa   000000 573002          	vfd	18/0,o9/573,1/0,o4/,o4/2

                                 1-411            defop     followon,pseud,47,2
    001526  aa  146 157 154 154         	aci	"followon"
    001527  aa  157 167 157 156
    004265  aa   000057 000002          	vfd	18/47,o9/0,1/0,o4/0,o4/2

                                 1-412            defop     frd,,471,0,,2
    001530  aa  146 162 144 000         	aci	"frd"
    001531  aa  000 000 000 000
    004266  aa   000000 471002          	vfd	18/0,o9/471,1/0,o4/,o4/2

                                 1-413            defop     fsb,,575,0,,2
    001532  aa  146 163 142 000         	aci	"fsb"
    001533  aa  000 000 000 000
    004267  aa   000000 575002          	vfd	18/0,o9/575,1/0,o4/,o4/2

                                 1-414            defop     fst,,455,0,,2
    001534  aa  146 163 164 000         	aci	"fst"
    001535  aa  000 000 000 000
    004270  aa   000000 455002          	vfd	18/0,o9/455,1/0,o4/,o4/2

                                 1-415            defop     fstr,,470,0,,2
    001536  aa  146 163 164 162         	aci	"fstr"
    001537  aa  000 000 000 000
    004271  aa   000000 470002          	vfd	18/0,o9/470,1/0,o4/,o4/2

                                 1-416            defop     fszn,,430,0,,2
    001540  aa  146 163 172 156         	aci	"fszn"
    001541  aa  000 000 000 000
    004272  aa   000000 430002          	vfd	18/0,o9/430,1/0,o4/,o4/2

                                 1-417            defop     getlp,pseud,49,2
    001542  aa  147 145 164 154         	aci	"getlp"
    001543  aa  160 000 000 000
    004273  aa   000061 000002          	vfd	18/49,o9/0,1/0,o4/0,o4/2

                                 1-418            defop     gtb,,774,0,,2
    001544  aa  147 164 142 000         	aci	"gtb"
    001545  aa  000 000 000 000
    004274  aa   000000 774002          	vfd	18/0,o9/774,1/0,o4/,o4/2

                                 1-419            defop     halt,,612,0,,0
    001546  aa  150 141 154 164         	aci	"halt"
    001547  aa  000 000 000 000
    004275  aa   000000 612000          	vfd	18/0,o9/612,1/0,o4/,o4/0

                                 1-420            defop     include,pseud,50,2
    001550  aa  151 156 143 154         	aci	"include"
    001551  aa  165 144 145 000
    004276  aa   000062 000002          	vfd	18/50,o9/0,1/0,o4/0,o4/2

                                 1-421            defop     inhibit,pseud,12,2
    001552  aa  151 156 150 151         	aci	"inhibit"
    001553  aa  142 151 164 000
    004277  aa   000014 000002          	vfd	18/12,o9/0,1/0,o4/0,o4/2

                                 1-422            defop     init_lin,long,65,init_link,2
    001554  aa  151 156 151 164         	aci	"init_lin"
    001555  aa  137 154 151 156
    004300  aa   000101 000002          	vfd	18/65,o9/0,1/0,o4/0,o4/2

    005335  aa   000623 000000          	zero	op_index
    005336  aa  011 151 156 151         	acc	"init_link"
    005337  aa  164 137 154 151
    005340  aa  156 153 000 000
    005341  aa  000 000 000 000
    005342  aa  000 000 000 000

                                 1-423            defop     itb,pseud,35,2
    001556  aa  151 164 142 000         	aci	"itb"
    001557  aa  000 000 000 000
    004301  aa   000043 000002          	vfd	18/35,o9/0,1/0,o4/0,o4/2

                                 1-424            defop     itp,pseud,35,2
    001560  aa  151 164 160 000         	aci	"itp"
    001561  aa  000 000 000 000
    004302  aa   000043 000002          	vfd	18/35,o9/0,1/0,o4/0,o4/2

                                 1-425            defop     its,pseud,36,2
    001562  aa  151 164 163 000         	aci	"its"
    001563  aa  000 000 000 000
    004303  aa   000044 000002          	vfd	18/36,o9/0,1/0,o4/0,o4/2

                                 1-426            defop     join,pseud,4,2
    001564  aa  152 157 151 156         	aci	"join"
    001565  aa  000 000 000 000
    004304  aa   000004 000002          	vfd	18/4,o9/0,1/0,o4/0,o4/2

                                 1-427            defop     lar,pr,2
    001566  aa  154 141 162 000         	aci	"lar"
    001567  aa  000 000 000 000
    004305  aa   000054 000002          	vfd	18/44,o9/0,1/0,o4/0,o4/2

                                 1-428            defop     lar0,,760,1,,2
    001570  aa  154 141 162 060         	aci	"lar0"
    001571  aa  000 000 000 000
    004306  aa   000000 760402          	vfd	18/0,o9/760,1/1,o4/,o4/2

                                 1-429            defop     lar1,,761,1,,2
    001572  aa  154 141 162 061         	aci	"lar1"
    001573  aa  000 000 000 000
    004307  aa   000000 761402          	vfd	18/0,o9/761,1/1,o4/,o4/2

                                 1-430            defop     lar2,,762,1,,2
    001574  aa  154 141 162 062         	aci	"lar2"
    001575  aa  000 000 000 000
    004310  aa   000000 762402          	vfd	18/0,o9/762,1/1,o4/,o4/2

                                 1-431            defop     lar3,,763,1,,2
    001576  aa  154 141 162 063         	aci	"lar3"
    001577  aa  000 000 000 000
    004311  aa   000000 763402          	vfd	18/0,o9/763,1/1,o4/,o4/2

                                 1-432            defop     lar4,,764,1,,2
    001600  aa  154 141 162 064         	aci	"lar4"
    001601  aa  000 000 000 000
    004312  aa   000000 764402          	vfd	18/0,o9/764,1/1,o4/,o4/2

                                 1-433            defop     lar5,,765,1,,2
    001602  aa  154 141 162 065         	aci	"lar5"
    001603  aa  000 000 000 000
    004313  aa   000000 765402          	vfd	18/0,o9/765,1/1,o4/,o4/2

                                 1-434            defop     lar6,,766,1,,2
    001604  aa  154 141 162 066         	aci	"lar6"
    001605  aa  000 000 000 000
    004314  aa   000000 766402          	vfd	18/0,o9/766,1/1,o4/,o4/2

                                 1-435            defop     lar7,,767,1,,2
    001606  aa  154 141 162 067         	aci	"lar7"
    001607  aa  000 000 000 000
    004315  aa   000000 767402          	vfd	18/0,o9/767,1/1,o4/,o4/2

                                 1-436            defop     larab,,761,1,,2
    001610  aa  154 141 162 141         	aci	"larab"
    001611  aa  142 000 000 000
    004316  aa   000000 761402          	vfd	18/0,o9/761,1/1,o4/,o4/2

                                 1-437            defop     larap,,760,1,,2
    001612  aa  154 141 162 141         	aci	"larap"
    001613  aa  160 000 000 000
    004317  aa   000000 760402          	vfd	18/0,o9/760,1/1,o4/,o4/2

                                 1-438            defop     larbb,,763,1,,2
    001614  aa  154 141 162 142         	aci	"larbb"
    001615  aa  142 000 000 000
    004320  aa   000000 763402          	vfd	18/0,o9/763,1/1,o4/,o4/2

                                 1-439            defop     larbp,,762,1,,2
    001616  aa  154 141 162 142         	aci	"larbp"
    001617  aa  160 000 000 000
    004321  aa   000000 762402          	vfd	18/0,o9/762,1/1,o4/,o4/2

                                 1-440            defop     lareg,,463,1,,2
    001620  aa  154 141 162 145         	aci	"lareg"
    001621  aa  147 000 000 000
    004322  aa   000000 463402          	vfd	18/0,o9/463,1/1,o4/,o4/2

                                 1-441            defop     larlb,,765,1,,2
    001622  aa  154 141 162 154         	aci	"larlb"
    001623  aa  142 000 000 000
    004323  aa   000000 765402          	vfd	18/0,o9/765,1/1,o4/,o4/2

                                 1-442            defop     larlp,,764,1,,2
    001624  aa  154 141 162 154         	aci	"larlp"
    001625  aa  160 000 000 000
    004324  aa   000000 764402          	vfd	18/0,o9/764,1/1,o4/,o4/2

                                 1-443            defop     larsb,,767,1,,2
    001626  aa  154 141 162 163         	aci	"larsb"
    001627  aa  142 000 000 000
    004325  aa   000000 767402          	vfd	18/0,o9/767,1/1,o4/,o4/2

                                 1-444            defop     larsp,,766,1,,2
    001630  aa  154 141 162 163         	aci	"larsp"
    001631  aa  160 000 000 000
    004326  aa   000000 766402          	vfd	18/0,o9/766,1/1,o4/,o4/2

                                 1-445            defop     lbar,,230,0,,2
    001632  aa  154 142 141 162         	aci	"lbar"
    001633  aa  000 000 000 000
    004327  aa   000000 230002          	vfd	18/0,o9/230,1/0,o4/,o4/2

                                 1-446            defop     lca,,335,0,,2
    001634  aa  154 143 141 000         	aci	"lca"
    001635  aa  000 000 000 000
    004330  aa   000000 335002          	vfd	18/0,o9/335,1/0,o4/,o4/2

                                 1-447            defop     lcaq,,337,0,,2
    001636  aa  154 143 141 161         	aci	"lcaq"
    001637  aa  000 000 000 000
    004331  aa   000000 337002          	vfd	18/0,o9/337,1/0,o4/,o4/2

                                 1-448            defop     lccl,,057,0,,0
    001640  aa  154 143 143 154         	aci	"lccl"
    001641  aa  000 000 000 000
    004332  aa   000000 057000          	vfd	18/0,o9/057,1/0,o4/,o4/0

                                 1-449            defop     lcpr,,674,0,,1
    001642  aa  154 143 160 162         	aci	"lcpr"
    001643  aa  000 000 000 000
    004333  aa   000000 674001          	vfd	18/0,o9/674,1/0,o4/,o4/1

                                 1-450            defop     lcq,,336,0,,2
    001644  aa  154 143 161 000         	aci	"lcq"
    001645  aa  000 000 000 000
    004334  aa   000000 336002          	vfd	18/0,o9/336,1/0,o4/,o4/2

                                 1-451            defop     lcx,xr,2
    001646  aa  154 143 170 000         	aci	"lcx"
    001647  aa  000 000 000 000
    004335  aa   000053 000002          	vfd	18/43,o9/0,1/0,o4/0,o4/2

                                 1-452            defop     lcx0,,320,0,,2
    001650  aa  154 143 170 060         	aci	"lcx0"
    001651  aa  000 000 000 000
    004336  aa   000000 320002          	vfd	18/0,o9/320,1/0,o4/,o4/2

                                 1-453            defop     lcx1,,321,0,,2
    001652  aa  154 143 170 061         	aci	"lcx1"
    001653  aa  000 000 000 000
    004337  aa   000000 321002          	vfd	18/0,o9/321,1/0,o4/,o4/2

                                 1-454            defop     lcx2,,322,0,,2
    001654  aa  154 143 170 062         	aci	"lcx2"
    001655  aa  000 000 000 000
    004340  aa   000000 322002          	vfd	18/0,o9/322,1/0,o4/,o4/2

                                 1-455            defop     lcx3,,323,0,,2
    001656  aa  154 143 170 063         	aci	"lcx3"
    001657  aa  000 000 000 000
    004341  aa   000000 323002          	vfd	18/0,o9/323,1/0,o4/,o4/2

                                 1-456            defop     lcx4,,324,0,,2
    001660  aa  154 143 170 064         	aci	"lcx4"
    001661  aa  000 000 000 000
    004342  aa   000000 324002          	vfd	18/0,o9/324,1/0,o4/,o4/2

                                 1-457            defop     lcx5,,325,0,,2
    001662  aa  154 143 170 065         	aci	"lcx5"
    001663  aa  000 000 000 000
    004343  aa   000000 325002          	vfd	18/0,o9/325,1/0,o4/,o4/2

                                 1-458            defop     lcx6,,326,0,,2
    001664  aa  154 143 170 066         	aci	"lcx6"
    001665  aa  000 000 000 000
    004344  aa   000000 326002          	vfd	18/0,o9/326,1/0,o4/,o4/2

                                 1-459            defop     lcx7,,327,0,,2
    001666  aa  154 143 170 067         	aci	"lcx7"
    001667  aa  000 000 000 000
    004345  aa   000000 327002          	vfd	18/0,o9/327,1/0,o4/,o4/2

                                 1-460            defop     lda,,235,0,,2
    001670  aa  154 144 141 000         	aci	"lda"
    001671  aa  000 000 000 000
    004346  aa   000000 235002          	vfd	18/0,o9/235,1/0,o4/,o4/2

                                 1-461            defop     ldab,,374,1,,0
    001672  aa  154 144 141 142         	aci	"ldab"
    001673  aa  000 000 000 000
    004347  aa   000000 374400          	vfd	18/0,o9/374,1/1,o4/,o4/0

                                 1-462            defop     ldac,,034,0,,2
    001674  aa  154 144 141 143         	aci	"ldac"
    001675  aa  000 000 000 000
    004350  aa   000000 034002          	vfd	18/0,o9/034,1/0,o4/,o4/2

                                 1-463            defop     ldaq,,237,0,,2
    001676  aa  154 144 141 161         	aci	"ldaq"
    001677  aa  000 000 000 000
    004351  aa   000000 237002          	vfd	18/0,o9/237,1/0,o4/,o4/2

                                 1-464            defop     ldat,,336,1,,0
    001700  aa  154 144 141 164         	aci	"ldat"
    001701  aa  000 000 000 000
    004352  aa   000000 336400          	vfd	18/0,o9/336,1/1,o4/,o4/0

                                 1-465            defop     ldbr,,232,0,,2
    001702  aa  154 144 142 162         	aci	"ldbr"
    001703  aa  000 000 000 000
    004353  aa   000000 232002          	vfd	18/0,o9/232,1/0,o4/,o4/2

                                 1-466            defop     ldcb,,375,1,,0
    001704  aa  154 144 143 142         	aci	"ldcb"
    001705  aa  000 000 000 000
    004354  aa   000000 375400          	vfd	18/0,o9/375,1/1,o4/,o4/0

                                 1-467            defop     lde,,411,0,,2
    001706  aa  154 144 145 000         	aci	"lde"
    001707  aa  000 000 000 000
    004355  aa   000000 411002          	vfd	18/0,o9/411,1/0,o4/,o4/2

                                 1-468            defop     ldfb,,314,1,,0
    001710  aa  154 144 146 142         	aci	"ldfb"
    001711  aa  000 000 000 000
    004356  aa   000000 314400          	vfd	18/0,o9/314,1/1,o4/,o4/0

                                 1-469            defop     ldhb,,334,1,,0
    001712  aa  154 144 150 142         	aci	"ldhb"
    001713  aa  000 000 000 000
    004357  aa   000000 334400          	vfd	18/0,o9/334,1/1,o4/,o4/0

                                 1-470            defop     ldhc,,337,1,,0
    001714  aa  154 144 150 143         	aci	"ldhc"
    001715  aa  000 000 000 000
    004360  aa   000000 337400          	vfd	18/0,o9/337,1/1,o4/,o4/0

                                 1-471            defop     ldi,,634,0,,2
    001716  aa  154 144 151 000         	aci	"ldi"
    001717  aa  000 000 000 000
    004361  aa   000000 634002          	vfd	18/0,o9/634,1/0,o4/,o4/2

                                 1-472            defop     ldo,,172,1,,0
    001720  aa  154 144 157 000         	aci	"ldo"
    001721  aa  000 000 000 000
    004362  aa   000000 172400          	vfd	18/0,o9/172,1/1,o4/,o4/0

                                 1-473            defop     ldq,,236,0,,2
    001722  aa  154 144 161 000         	aci	"ldq"
    001723  aa  000 000 000 000
    004363  aa   000000 236002          	vfd	18/0,o9/236,1/0,o4/,o4/2

                                 1-474            defop     ldqc,,032,0,,2
    001724  aa  154 144 161 143         	aci	"ldqc"
    001725  aa  000 000 000 000
    004364  aa   000000 032002          	vfd	18/0,o9/032,1/0,o4/,o4/2

                                 1-475            defop     ldt,,637,0,,2
    001726  aa  154 144 164 000         	aci	"ldt"
    001727  aa  000 000 000 000
    004365  aa   000000 637002          	vfd	18/0,o9/637,1/0,o4/,o4/2

                                 1-476            defop     ldx,xr,2
    001730  aa  154 144 170 000         	aci	"ldx"
    001731  aa  000 000 000 000
    004366  aa   000053 000002          	vfd	18/43,o9/0,1/0,o4/0,o4/2

                                 1-477            defop     ldx0,,220,0,,2
    001732  aa  154 144 170 060         	aci	"ldx0"
    001733  aa  000 000 000 000
    004367  aa   000000 220002          	vfd	18/0,o9/220,1/0,o4/,o4/2

                                 1-478            defop     ldx1,,221,0,,2
    001734  aa  154 144 170 061         	aci	"ldx1"
    001735  aa  000 000 000 000
    004370  aa   000000 221002          	vfd	18/0,o9/221,1/0,o4/,o4/2

                                 1-479            defop     ldx2,,222,0,,2
    001736  aa  154 144 170 062         	aci	"ldx2"
    001737  aa  000 000 000 000
    004371  aa   000000 222002          	vfd	18/0,o9/222,1/0,o4/,o4/2

                                 1-480            defop     ldx3,,223,0,,2
    001740  aa  154 144 170 063         	aci	"ldx3"
    001741  aa  000 000 000 000
    004372  aa   000000 223002          	vfd	18/0,o9/223,1/0,o4/,o4/2

                                 1-481            defop     ldx4,,224,0,,2
    001742  aa  154 144 170 064         	aci	"ldx4"
    001743  aa  000 000 000 000
    004373  aa   000000 224002          	vfd	18/0,o9/224,1/0,o4/,o4/2

                                 1-482            defop     ldx5,,225,0,,2
    001744  aa  154 144 170 065         	aci	"ldx5"
    001745  aa  000 000 000 000
    004374  aa   000000 225002          	vfd	18/0,o9/225,1/0,o4/,o4/2

                                 1-483            defop     ldx6,,226,0,,2
    001746  aa  154 144 170 066         	aci	"ldx6"
    001747  aa  000 000 000 000
    004375  aa   000000 226002          	vfd	18/0,o9/226,1/0,o4/,o4/2

                                 1-484            defop     ldx7,,227,0,,2
    001750  aa  154 144 170 067         	aci	"ldx7"
    001751  aa  000 000 000 000
    004376  aa   000000 227002          	vfd	18/0,o9/227,1/0,o4/,o4/2

                                 1-485            defop     lfr,,316,1,,0
    001752  aa  154 146 162 000         	aci	"lfr"
    001753  aa  000 000 000 000
    004377  aa   000000 316400          	vfd	18/0,o9/316,1/1,o4/,o4/0

                                 1-486            defop     lgcos,,356,1,,0
    001754  aa  154 147 143 157         	aci	"lgcos"
    001755  aa  163 000 000 000
    004400  aa   000000 356400          	vfd	18/0,o9/356,1/1,o4/,o4/0

                                 1-487            defop     lhfer,,317,1,,0
    001756  aa  154 150 146 145         	aci	"lhfer"
    001757  aa  162 000 000 000
    004401  aa   000000 317400          	vfd	18/0,o9/317,1/1,o4/,o4/0

                                 1-488            defop     lhpt,,335,1,,0
    001760  aa  154 150 160 164         	aci	"lhpt"
    001761  aa  000 000 000 000
    004402  aa   000000 335400          	vfd	18/0,o9/335,1/1,o4/,o4/0

                                 1-489            defop     lhtr,,315,1,,0
    001762  aa  154 150 164 162         	aci	"lhtr"
    001763  aa  000 000 000 000
    004403  aa   000000 315400          	vfd	18/0,o9/315,1/1,o4/,o4/0

                                 1-490            defop     limr,,553,0,,0
    001764  aa  154 151 155 162         	aci	"limr"
    001765  aa  000 000 000 000
    004404  aa   000000 553000          	vfd	18/0,o9/553,1/0,o4/,o4/0

                                 1-491            defop     link,pseud,20,2
    001766  aa  154 151 156 153         	aci	"link"
    001767  aa  000 000 000 000
    004405  aa   000024 000002          	vfd	18/20,o9/0,1/0,o4/0,o4/2

                                 1-492            defop     llr,,777,0,,2
    001770  aa  154 154 162 000         	aci	"llr"
    001771  aa  000 000 000 000
    004406  aa   000000 777002          	vfd	18/0,o9/777,1/0,o4/,o4/2

                                 1-493            defop     lls,,737,0,,2
    001772  aa  154 154 163 000         	aci	"lls"
    001773  aa  000 000 000 000
    004407  aa   000000 737002          	vfd	18/0,o9/737,1/0,o4/,o4/2

                                 1-494            defop     lmsd,,354,1,,0
    001774  aa  154 155 163 144         	aci	"lmsd"
    001775  aa  000 000 000 000
    004410  aa   000000 354400          	vfd	18/0,o9/354,1/1,o4/,o4/0

                                 1-495            defop     lpl,,467,1,,2
    001776  aa  154 160 154 000         	aci	"lpl"
    001777  aa  000 000 000 000
    004411  aa   000000 467402          	vfd	18/0,o9/467,1/1,o4/,o4/2

                                 1-496            defop     lpri,,173,0,,2
    002000  aa  154 160 162 151         	aci	"lpri"
    002001  aa  000 000 000 000
    004412  aa   000000 173002          	vfd	18/0,o9/173,1/0,o4/,o4/2

                                 1-497            defop     lpri0,,510,1,,0
    002002  aa  154 160 162 151         	aci	"lpri0"
    002003  aa  060 000 000 000
    004413  aa   000000 510400          	vfd	18/0,o9/510,1/1,o4/,o4/0

                                 1-498            defop     lpri1,,511,1,,0
    002004  aa  154 160 162 151         	aci	"lpri1"
    002005  aa  061 000 000 000
    004414  aa   000000 511400          	vfd	18/0,o9/511,1/1,o4/,o4/0

                                 1-499            defop     lpri2,,512,1,,0
    002006  aa  154 160 162 151         	aci	"lpri2"
    002007  aa  062 000 000 000
    004415  aa   000000 512400          	vfd	18/0,o9/512,1/1,o4/,o4/0

                                 1-500            defop     lpri3,,513,1,,0
    002010  aa  154 160 162 151         	aci	"lpri3"
    002011  aa  063 000 000 000
    004416  aa   000000 513400          	vfd	18/0,o9/513,1/1,o4/,o4/0

                                 1-501            defop     lpri4,,514,1,,0
    002012  aa  154 160 162 151         	aci	"lpri4"
    002013  aa  064 000 000 000
    004417  aa   000000 514400          	vfd	18/0,o9/514,1/1,o4/,o4/0

                                 1-502            defop     lpri5,,515,1,,0
    002014  aa  154 160 162 151         	aci	"lpri5"
    002015  aa  065 000 000 000
    004420  aa   000000 515400          	vfd	18/0,o9/515,1/1,o4/,o4/0

                                 1-503            defop     lpri6,,516,1,,0
    002016  aa  154 160 162 151         	aci	"lpri6"
    002017  aa  066 000 000 000
    004421  aa   000000 516400          	vfd	18/0,o9/516,1/1,o4/,o4/0

                                 1-504            defop     lpri7,,517,1,,0
    002020  aa  154 160 162 151         	aci	"lpri7"
    002021  aa  067 000 000 000
    004422  aa   000000 517400          	vfd	18/0,o9/517,1/1,o4/,o4/0

                                 1-505            defop     lpris0,,430,1,,0
    002022  aa  154 160 162 151         	aci	"lpris0"
    002023  aa  163 060 000 000
    004423  aa   000000 430400          	vfd	18/0,o9/430,1/1,o4/,o4/0

                                 1-506            defop     lpris1,,431,1,,0
    002024  aa  154 160 162 151         	aci	"lpris1"
    002025  aa  163 061 000 000
    004424  aa   000000 431400          	vfd	18/0,o9/431,1/1,o4/,o4/0

                                 1-507            defop     lpris2,,432,1,,0
    002026  aa  154 160 162 151         	aci	"lpris2"
    002027  aa  163 062 000 000
    004425  aa   000000 432400          	vfd	18/0,o9/432,1/1,o4/,o4/0

                                 1-508            defop     lpris3,,433,1,,0
    002030  aa  154 160 162 151         	aci	"lpris3"
    002031  aa  163 063 000 000
    004426  aa   000000 433400          	vfd	18/0,o9/433,1/1,o4/,o4/0

                                 1-509            defop     lpris4,,434,1,,0
    002032  aa  154 160 162 151         	aci	"lpris4"
    002033  aa  163 064 000 000
    004427  aa   000000 434400          	vfd	18/0,o9/434,1/1,o4/,o4/0

                                 1-510            defop     lpris5,,435,1,,0
    002034  aa  154 160 162 151         	aci	"lpris5"
    002035  aa  163 065 000 000
    004430  aa   000000 435400          	vfd	18/0,o9/435,1/1,o4/,o4/0

                                 1-511            defop     lpris6,,436,1,,0
    002036  aa  154 160 162 151         	aci	"lpris6"
    002037  aa  163 066 000 000
    004431  aa   000000 436400          	vfd	18/0,o9/436,1/1,o4/,o4/0

                                 1-512            defop     lpris7,,437,1,,0
    002040  aa  154 160 162 151         	aci	"lpris7"
    002041  aa  163 067 000 000
    004432  aa   000000 437400          	vfd	18/0,o9/437,1/1,o4/,o4/0

                                 1-513            defop     lprp,pr,2
    002042  aa  154 160 162 160         	aci	"lprp"
    002043  aa  000 000 000 000
    004433  aa   000054 000002          	vfd	18/44,o9/0,1/0,o4/0,o4/2

                                 1-514            defop     lprp0,,760,0,,2
    002044  aa  154 160 162 160         	aci	"lprp0"
    002045  aa  060 000 000 000
    004434  aa   000000 760002          	vfd	18/0,o9/760,1/0,o4/,o4/2

                                 1-515            defop     lprp1,,761,0,,2
    002046  aa  154 160 162 160         	aci	"lprp1"
    002047  aa  061 000 000 000
    004435  aa   000000 761002          	vfd	18/0,o9/761,1/0,o4/,o4/2

                                 1-516            defop     lprp2,,762,0,,2
    002050  aa  154 160 162 160         	aci	"lprp2"
    002051  aa  062 000 000 000
    004436  aa   000000 762002          	vfd	18/0,o9/762,1/0,o4/,o4/2

                                 1-517            defop     lprp3,,763,0,,2
    002052  aa  154 160 162 160         	aci	"lprp3"
    002053  aa  063 000 000 000
    004437  aa   000000 763002          	vfd	18/0,o9/763,1/0,o4/,o4/2

                                 1-518            defop     lprp4,,764,0,,2
    002054  aa  154 160 162 160         	aci	"lprp4"
    002055  aa  064 000 000 000
    004440  aa   000000 764002          	vfd	18/0,o9/764,1/0,o4/,o4/2

                                 1-519            defop     lprp5,,765,0,,2
    002056  aa  154 160 162 160         	aci	"lprp5"
    002057  aa  065 000 000 000
    004441  aa   000000 765002          	vfd	18/0,o9/765,1/0,o4/,o4/2

                                 1-520            defop     lprp6,,766,0,,2
    002060  aa  154 160 162 160         	aci	"lprp6"
    002061  aa  066 000 000 000
    004442  aa   000000 766002          	vfd	18/0,o9/766,1/0,o4/,o4/2

                                 1-521            defop     lprp7,,767,0,,2
    002062  aa  154 160 162 160         	aci	"lprp7"
    002063  aa  067 000 000 000
    004443  aa   000000 767002          	vfd	18/0,o9/767,1/0,o4/,o4/2

                                 1-522            defop     lprpab,,761,0,,2
    002064  aa  154 160 162 160         	aci	"lprpab"
    002065  aa  141 142 000 000
    004444  aa   000000 761002          	vfd	18/0,o9/761,1/0,o4/,o4/2

                                 1-523            defop     lprpap,,760,0,,2
    002066  aa  154 160 162 160         	aci	"lprpap"
    002067  aa  141 160 000 000
    004445  aa   000000 760002          	vfd	18/0,o9/760,1/0,o4/,o4/2

                                 1-524            defop     lprpbb,,763,0,,2
    002070  aa  154 160 162 160         	aci	"lprpbb"
    002071  aa  142 142 000 000
    004446  aa   000000 763002          	vfd	18/0,o9/763,1/0,o4/,o4/2

                                 1-525            defop     lprpbp,,762,0,,2
    002072  aa  154 160 162 160         	aci	"lprpbp"
    002073  aa  142 160 000 000
    004447  aa   000000 762002          	vfd	18/0,o9/762,1/0,o4/,o4/2

                                 1-526            defop     lprplb,,765,0,,2
    002074  aa  154 160 162 160         	aci	"lprplb"
    002075  aa  154 142 000 000
    004450  aa   000000 765002          	vfd	18/0,o9/765,1/0,o4/,o4/2

                                 1-527            defop     lprplp,,764,0,,2
    002076  aa  154 160 162 160         	aci	"lprplp"
    002077  aa  154 160 000 000
    004451  aa   000000 764002          	vfd	18/0,o9/764,1/0,o4/,o4/2

                                 1-528            defop     lprpsb,,767,0,,2
    002100  aa  154 160 162 160         	aci	"lprpsb"
    002101  aa  163 142 000 000
    004452  aa   000000 767002          	vfd	18/0,o9/767,1/0,o4/,o4/2

                                 1-529            defop     lprpsp,,766,0,,2
    002102  aa  154 160 162 160         	aci	"lprpsp"
    002103  aa  163 160 000 000
    004453  aa   000000 766002          	vfd	18/0,o9/766,1/0,o4/,o4/2

                                 1-530            defop     lptp,,257,1,,1
    002104  aa  154 160 164 160         	aci	"lptp"
    002105  aa  000 000 000 000
    004454  aa   000000 257401          	vfd	18/0,o9/257,1/1,o4/,o4/1

                                 1-531            defop     lptr,,173,1,,1
    002106  aa  154 160 164 162         	aci	"lptr"
    002107  aa  000 000 000 000
    004455  aa   000000 173401          	vfd	18/0,o9/173,1/1,o4/,o4/1

                                 1-532            defop     lra,,774,1,,2
    002110  aa  154 162 141 000         	aci	"lra"
    002111  aa  000 000 000 000
    004456  aa   000000 774402          	vfd	18/0,o9/774,1/1,o4/,o4/2

                                 1-533            defop     lreg,,073,0,,2
    002112  aa  154 162 145 147         	aci	"lreg"
    002113  aa  000 000 000 000
    004457  aa   000000 073002          	vfd	18/0,o9/073,1/0,o4/,o4/2

                                 1-534            defop     lrl,,773,0,,2
    002114  aa  154 162 154 000         	aci	"lrl"
    002115  aa  000 000 000 000
    004460  aa   000000 773002          	vfd	18/0,o9/773,1/0,o4/,o4/2

                                 1-535            defop     lrmb,,712,0,,0
    002116  aa  154 162 155 142         	aci	"lrmb"
    002117  aa  000 000 000 000
    004461  aa   000000 712000          	vfd	18/0,o9/712,1/0,o4/,o4/0

                                 1-536            defop     lrs,,733,0,,2
    002120  aa  154 162 163 000         	aci	"lrs"
    002121  aa  000 000 000 000
    004462  aa   000000 733002          	vfd	18/0,o9/733,1/0,o4/,o4/2

                                 1-537            defop     lsdp,,257,0,,1
    002122  aa  154 163 144 160         	aci	"lsdp"
    002123  aa  000 000 000 000
    004463  aa   000000 257001          	vfd	18/0,o9/257,1/0,o4/,o4/1

                                 1-538            defop     lsdr,,232,1,,1
    002124  aa  154 163 144 162         	aci	"lsdr"
    002125  aa  000 000 000 000
    004464  aa   000000 232401          	vfd	18/0,o9/232,1/1,o4/,o4/1

                                 1-539            defop     lvms,,355,1,,0
    002126  aa  154 166 155 163         	aci	"lvms"
    002127  aa  000 000 000 000
    004465  aa   000000 355400          	vfd	18/0,o9/355,1/1,o4/,o4/0

                                 1-540            defop     lxl,xr,2
    002130  aa  154 170 154 000         	aci	"lxl"
    002131  aa  000 000 000 000
    004466  aa   000053 000002          	vfd	18/43,o9/0,1/0,o4/0,o4/2

                                 1-541            defop     lxl0,,720,0,,2
    002132  aa  154 170 154 060         	aci	"lxl0"
    002133  aa  000 000 000 000
    004467  aa   000000 720002          	vfd	18/0,o9/720,1/0,o4/,o4/2

                                 1-542            defop     lxl1,,721,0,,2
    002134  aa  154 170 154 061         	aci	"lxl1"
    002135  aa  000 000 000 000
    004470  aa   000000 721002          	vfd	18/0,o9/721,1/0,o4/,o4/2

                                 1-543            defop     lxl2,,722,0,,2
    002136  aa  154 170 154 062         	aci	"lxl2"
    002137  aa  000 000 000 000
    004471  aa   000000 722002          	vfd	18/0,o9/722,1/0,o4/,o4/2

                                 1-544            defop     lxl3,,723,0,,2
    002140  aa  154 170 154 063         	aci	"lxl3"
    002141  aa  000 000 000 000
    004472  aa   000000 723002          	vfd	18/0,o9/723,1/0,o4/,o4/2

                                 1-545            defop     lxl4,,724,0,,2
    002142  aa  154 170 154 064         	aci	"lxl4"
    002143  aa  000 000 000 000
    004473  aa   000000 724002          	vfd	18/0,o9/724,1/0,o4/,o4/2

                                 1-546            defop     lxl5,,725,0,,2
    002144  aa  154 170 154 065         	aci	"lxl5"
    002145  aa  000 000 000 000
    004474  aa   000000 725002          	vfd	18/0,o9/725,1/0,o4/,o4/2

                                 1-547            defop     lxl6,,726,0,,2
    002146  aa  154 170 154 066         	aci	"lxl6"
    002147  aa  000 000 000 000
    004475  aa   000000 726002          	vfd	18/0,o9/726,1/0,o4/,o4/2

                                 1-548            defop     lxl7,,727,0,,2
    002150  aa  154 170 154 067         	aci	"lxl7"
    002151  aa  000 000 000 000
    004476  aa   000000 727002          	vfd	18/0,o9/727,1/0,o4/,o4/2

                                 1-549            defop     maclist,pseud,40,2
    002152  aa  155 141 143 154         	aci	"maclist"
    002153  aa  151 163 164 000
    004477  aa   000050 000002          	vfd	18/40,o9/0,1/0,o4/0,o4/2

                                 1-550            defop     macro,pseud,60,2
    002154  aa  155 141 143 162         	aci	"macro"
    002155  aa  157 000 000 000
    004500  aa   000074 000002          	vfd	18/60,o9/0,1/0,o4/0,o4/2

                                 1-551            defop     mlr,eis,100,0,2
    002156  aa  155 154 162 000         	aci	"mlr"
    002157  aa  000 000 000 000
    004501  aa   000066 100402          	vfd	18/54,o9/100,1/1,o4/0,o4/2

                                 1-552            defop     mme,,001,0,,2
    002160  aa  155 155 145 000         	aci	"mme"
    002161  aa  000 000 000 000
    004502  aa   000000 001002          	vfd	18/0,o9/001,1/0,o4/,o4/2

                                 1-553            defop     mme1,,001,0,,2
    002162  aa  155 155 145 061         	aci	"mme1"
    002163  aa  000 000 000 000
    004503  aa   000000 001002          	vfd	18/0,o9/001,1/0,o4/,o4/2

                                 1-554            defop     mme2,,004,0,,2
    002164  aa  155 155 145 062         	aci	"mme2"
    002165  aa  000 000 000 000
    004504  aa   000000 004002          	vfd	18/0,o9/004,1/0,o4/,o4/2

                                 1-555            defop     mme3,,005,0,,2
    002166  aa  155 155 145 063         	aci	"mme3"
    002167  aa  000 000 000 000
    004505  aa   000000 005002          	vfd	18/0,o9/005,1/0,o4/,o4/2

                                 1-556            defop     mme4,,007,0,,2
    002170  aa  155 155 145 064         	aci	"mme4"
    002171  aa  000 000 000 000
    004506  aa   000000 007002          	vfd	18/0,o9/007,1/0,o4/,o4/2

                                 1-557            defop     mmf,eis,364,0,0
    002172  aa  155 155 146 000         	aci	"mmf"
    002173  aa  000 000 000 000
    004507  aa   000066 364400          	vfd	18/54,o9/364,1/1,o4/0,o4/0

                                 1-558            defop     mod,pseud,31,2
    002174  aa  155 157 144 000         	aci	"mod"
    002175  aa  000 000 000 000
    004510  aa   000037 000002          	vfd	18/31,o9/0,1/0,o4/0,o4/2

                                 1-559            defop     movdef,pseud,11,2
    002176  aa  155 157 166 144         	aci	"movdef"
    002177  aa  145 146 000 000
    004511  aa   000013 000002          	vfd	18/11,o9/0,1/0,o4/0,o4/2

                                 1-560            defop     mp2d,eis,206,0,2
    002200  aa  155 160 062 144         	aci	"mp2d"
    002201  aa  000 000 000 000
    004512  aa   000066 206402          	vfd	18/54,o9/206,1/1,o4/0,o4/2

                                 1-561            defop     mp2dx,eis,246,0,0
    002202  aa  155 160 062 144         	aci	"mp2dx"
    002203  aa  170 000 000 000
    004513  aa   000066 246400          	vfd	18/54,o9/246,1/1,o4/0,o4/0

                                 1-562            defop     mp3d,eis,226,0,2
    002204  aa  155 160 063 144         	aci	"mp3d"
    002205  aa  000 000 000 000
    004514  aa   000066 226402          	vfd	18/54,o9/226,1/1,o4/0,o4/2

                                 1-563            defop     mp3dx,eis,266,0,0
    002206  aa  155 160 063 144         	aci	"mp3dx"
    002207  aa  170 000 000 000
    004515  aa   000066 266400          	vfd	18/54,o9/266,1/1,o4/0,o4/0

                                 1-564            defop     mpf,,401,0,,2
    002210  aa  155 160 146 000         	aci	"mpf"
    002211  aa  000 000 000 000
    004516  aa   000000 401002          	vfd	18/0,o9/401,1/0,o4/,o4/2

                                 1-565            defop     mpy,,402,0,,2
    002212  aa  155 160 171 000         	aci	"mpy"
    002213  aa  000 000 000 000
    004517  aa   000000 402002          	vfd	18/0,o9/402,1/0,o4/,o4/2

                                 1-566            defop     mrf,eis,360,0,0
    002214  aa  155 162 146 000         	aci	"mrf"
    002215  aa  000 000 000 000
    004520  aa   000066 360400          	vfd	18/54,o9/360,1/1,o4/0,o4/0

                                 1-567            defop     mrl,eis,101,0,2
    002216  aa  155 162 154 000         	aci	"mrl"
    002217  aa  000 000 000 000
    004521  aa   000066 101402          	vfd	18/54,o9/101,1/1,o4/0,o4/2

                                 1-568            defop     mve,eis,020,0,2
    002220  aa  155 166 145 000         	aci	"mve"
    002221  aa  000 000 000 000
    004522  aa   000066 020402          	vfd	18/54,o9/020,1/1,o4/0,o4/2

                                 1-569            defop     mvn,eis,300,0,2
    002222  aa  155 166 156 000         	aci	"mvn"
    002223  aa  000 000 000 000
    004523  aa   000066 300402          	vfd	18/54,o9/300,1/1,o4/0,o4/2

                                 1-570            defop     mvne,eis,024,0,2
    002224  aa  155 166 156 145         	aci	"mvne"
    002225  aa  000 000 000 000
    004524  aa   000066 024402          	vfd	18/54,o9/024,1/1,o4/0,o4/2

                                 1-571            defop     mvnex,eis,004,0,0
    002226  aa  155 166 156 145         	aci	"mvnex"
    002227  aa  170 000 000 000
    004525  aa   000066 004400          	vfd	18/54,o9/004,1/1,o4/0,o4/0

                                 1-572            defop     mvnx,eis,340,0,0
    002230  aa  155 166 156 170         	aci	"mvnx"
    002231  aa  000 000 000 000
    004526  aa   000066 340400          	vfd	18/54,o9/340,1/1,o4/0,o4/0

                                 1-573            defop     mvt,eis,160,0,2
    002232  aa  155 166 164 000         	aci	"mvt"
    002233  aa  000 000 000 000
    004527  aa   000066 160402          	vfd	18/54,o9/160,1/1,o4/0,o4/2

                                 1-574            defop     name,pseud,14,2
    002234  aa  156 141 155 145         	aci	"name"
    002235  aa  000 000 000 000
    004530  aa   000016 000002          	vfd	18/14,o9/0,1/0,o4/0,o4/2

                                 1-575            defop     nar,pr,2
    002236  aa  156 141 162 000         	aci	"nar"
    002237  aa  000 000 000 000
    004531  aa   000054 000002          	vfd	18/44,o9/0,1/0,o4/0,o4/2

                                 1-576            defop     nar0,,660,1,,2
    002240  aa  156 141 162 060         	aci	"nar0"
    002241  aa  000 000 000 000
    004532  aa   000000 660402          	vfd	18/0,o9/660,1/1,o4/,o4/2

                                 1-577            defop     nar1,,661,1,,2
    002242  aa  156 141 162 061         	aci	"nar1"
    002243  aa  000 000 000 000
    004533  aa   000000 661402          	vfd	18/0,o9/661,1/1,o4/,o4/2

                                 1-578            defop     nar2,,662,1,,2
    002244  aa  156 141 162 062         	aci	"nar2"
    002245  aa  000 000 000 000
    004534  aa   000000 662402          	vfd	18/0,o9/662,1/1,o4/,o4/2

                                 1-579            defop     nar3,,663,1,,2
    002246  aa  156 141 162 063         	aci	"nar3"
    002247  aa  000 000 000 000
    004535  aa   000000 663402          	vfd	18/0,o9/663,1/1,o4/,o4/2

                                 1-580            defop     nar4,,664,1,,2
    002250  aa  156 141 162 064         	aci	"nar4"
    002251  aa  000 000 000 000
    004536  aa   000000 664402          	vfd	18/0,o9/664,1/1,o4/,o4/2

                                 1-581            defop     nar5,,665,1,,2
    002252  aa  156 141 162 065         	aci	"nar5"
    002253  aa  000 000 000 000
    004537  aa   000000 665402          	vfd	18/0,o9/665,1/1,o4/,o4/2

                                 1-582            defop     nar6,,666,1,,2
    002254  aa  156 141 162 066         	aci	"nar6"
    002255  aa  000 000 000 000
    004540  aa   000000 666402          	vfd	18/0,o9/666,1/1,o4/,o4/2

                                 1-583            defop     nar7,,667,1,,2
    002256  aa  156 141 162 067         	aci	"nar7"
    002257  aa  000 000 000 000
    004541  aa   000000 667402          	vfd	18/0,o9/667,1/1,o4/,o4/2

                                 1-584            defop     narab,,661,1,,2
    002260  aa  156 141 162 141         	aci	"narab"
    002261  aa  142 000 000 000
    004542  aa   000000 661402          	vfd	18/0,o9/661,1/1,o4/,o4/2

                                 1-585            defop     narap,,660,1,,2
    002262  aa  156 141 162 141         	aci	"narap"
    002263  aa  160 000 000 000
    004543  aa   000000 660402          	vfd	18/0,o9/660,1/1,o4/,o4/2

                                 1-586            defop     narbb,,663,1,,2
    002264  aa  156 141 162 142         	aci	"narbb"
    002265  aa  142 000 000 000
    004544  aa   000000 663402          	vfd	18/0,o9/663,1/1,o4/,o4/2

                                 1-587            defop     narbp,,662,1,,2
    002266  aa  156 141 162 142         	aci	"narbp"
    002267  aa  160 000 000 000
    004545  aa   000000 662402          	vfd	18/0,o9/662,1/1,o4/,o4/2

                                 1-588            defop     narlb,,665,1,,2
    002270  aa  156 141 162 154         	aci	"narlb"
    002271  aa  142 000 000 000
    004546  aa   000000 665402          	vfd	18/0,o9/665,1/1,o4/,o4/2

                                 1-589            defop     narlp,,664,1,,2
    002272  aa  156 141 162 154         	aci	"narlp"
    002273  aa  160 000 000 000
    004547  aa   000000 664402          	vfd	18/0,o9/664,1/1,o4/,o4/2

                                 1-590            defop     narsb,,667,1,,2
    002274  aa  156 141 162 163         	aci	"narsb"
    002275  aa  142 000 000 000
    004550  aa   000000 667402          	vfd	18/0,o9/667,1/1,o4/,o4/2

                                 1-591            defop     narsp,,666,1,,2
    002276  aa  156 141 162 163         	aci	"narsp"
    002277  aa  160 000 000 000
    004551  aa   000000 666402          	vfd	18/0,o9/666,1/1,o4/,o4/2

                                 1-592            defop     neg,,531,0,,2
    002300  aa  156 145 147 000         	aci	"neg"
    002301  aa  000 000 000 000
    004552  aa   000000 531002          	vfd	18/0,o9/531,1/0,o4/,o4/2

                                 1-593            defop     negl,,533,0,,2
    002302  aa  156 145 147 154         	aci	"negl"
    002303  aa  000 000 000 000
    004553  aa   000000 533002          	vfd	18/0,o9/533,1/0,o4/,o4/2

                                 1-594            defop     nop,,011,0,,2
    002304  aa  156 157 160 000         	aci	"nop"
    002305  aa  000 000 000 000
    004554  aa   000000 011002          	vfd	18/0,o9/011,1/0,o4/,o4/2

                                 1-595            defop     null,pseud,15,2
    002306  aa  156 165 154 154         	aci	"null"
    002307  aa  000 000 000 000
    004555  aa   000017 000002          	vfd	18/15,o9/0,1/0,o4/0,o4/2

                                 1-596            defop     oct,pseud,29,2
    002310  aa  157 143 164 000         	aci	"oct"
    002311  aa  000 000 000 000
    004556  aa   000035 000002          	vfd	18/29,o9/0,1/0,o4/0,o4/2

                                 1-597            defop     oct_unal,long,67,oct_unal,2
    002312  aa  157 143 164 137         	aci	"oct_unal"
    002313  aa  165 156 141 154
    004557  aa   000103 000002          	vfd	18/67,o9/0,1/0,o4/0,o4/2

    005343  aa   001102 000000          	zero	op_index
    005344  aa  010 157 143 164         	acc	"oct_unal"
    005345  aa  137 165 156 141
    005346  aa  154 000 000 000
    005347  aa  000 000 000 000
    005350  aa  000 000 000 000

                                 1-598            defop     odd,pseud,6,2
    002314  aa  157 144 144 000         	aci	"odd"
    002315  aa  000 000 000 000
    004560  aa   000006 000002          	vfd	18/6,o9/0,1/0,o4/0,o4/2

                                 1-599            defop     ora,,275,0,,2
    002316  aa  157 162 141 000         	aci	"ora"
    002317  aa  000 000 000 000
    004561  aa   000000 275002          	vfd	18/0,o9/275,1/0,o4/,o4/2

                                 1-600            defop     oraq,,277,0,,2
    002320  aa  157 162 141 161         	aci	"oraq"
    002321  aa  000 000 000 000
    004562  aa   000000 277002          	vfd	18/0,o9/277,1/0,o4/,o4/2

                                 1-601            defop     org,pseud,3,2
    002322  aa  157 162 147 000         	aci	"org"
    002323  aa  000 000 000 000
    004563  aa   000003 000002          	vfd	18/3,o9/0,1/0,o4/0,o4/2

                                 1-602            defop     orq,,276,0,,2
    002324  aa  157 162 161 000         	aci	"orq"
    002325  aa  000 000 000 000
    004564  aa   000000 276002          	vfd	18/0,o9/276,1/0,o4/,o4/2

                                 1-603            defop     orsa,,255,0,,2
    002326  aa  157 162 163 141         	aci	"orsa"
    002327  aa  000 000 000 000
    004565  aa   000000 255002          	vfd	18/0,o9/255,1/0,o4/,o4/2

                                 1-604            defop     orsq,,256,0,,2
    002330  aa  157 162 163 161         	aci	"orsq"
    002331  aa  000 000 000 000
    004566  aa   000000 256002          	vfd	18/0,o9/256,1/0,o4/,o4/2

                                 1-605            defop     orsx,xr,2
    002332  aa  157 162 163 170         	aci	"orsx"
    002333  aa  000 000 000 000
    004567  aa   000053 000002          	vfd	18/43,o9/0,1/0,o4/0,o4/2

                                 1-606            defop     orsx0,,240,0,,2
    002334  aa  157 162 163 170         	aci	"orsx0"
    002335  aa  060 000 000 000
    004570  aa   000000 240002          	vfd	18/0,o9/240,1/0,o4/,o4/2

                                 1-607            defop     orsx1,,241,0,,2
    002336  aa  157 162 163 170         	aci	"orsx1"
    002337  aa  061 000 000 000
    004571  aa   000000 241002          	vfd	18/0,o9/241,1/0,o4/,o4/2

                                 1-608            defop     orsx2,,242,0,,2
    002340  aa  157 162 163 170         	aci	"orsx2"
    002341  aa  062 000 000 000
    004572  aa   000000 242002          	vfd	18/0,o9/242,1/0,o4/,o4/2

                                 1-609            defop     orsx3,,243,0,,2
    002342  aa  157 162 163 170         	aci	"orsx3"
    002343  aa  063 000 000 000
    004573  aa   000000 243002          	vfd	18/0,o9/243,1/0,o4/,o4/2

                                 1-610            defop     orsx4,,244,0,,2
    002344  aa  157 162 163 170         	aci	"orsx4"
    002345  aa  064 000 000 000
    004574  aa   000000 244002          	vfd	18/0,o9/244,1/0,o4/,o4/2

                                 1-611            defop     orsx5,,245,0,,2
    002346  aa  157 162 163 170         	aci	"orsx5"
    002347  aa  065 000 000 000
    004575  aa   000000 245002          	vfd	18/0,o9/245,1/0,o4/,o4/2

                                 1-612            defop     orsx6,,246,0,,2
    002350  aa  157 162 163 170         	aci	"orsx6"
    002351  aa  066 000 000 000
    004576  aa   000000 246002          	vfd	18/0,o9/246,1/0,o4/,o4/2

                                 1-613            defop     orsx7,,247,0,,2
    002352  aa  157 162 163 170         	aci	"orsx7"
    002353  aa  067 000 000 000
    004577  aa   000000 247002          	vfd	18/0,o9/247,1/0,o4/,o4/2

                                 1-614            defop     orx,xr,2
    002354  aa  157 162 170 000         	aci	"orx"
    002355  aa  000 000 000 000
    004600  aa   000053 000002          	vfd	18/43,o9/0,1/0,o4/0,o4/2

                                 1-615            defop     orx0,,260,0,,2
    002356  aa  157 162 170 060         	aci	"orx0"
    002357  aa  000 000 000 000
    004601  aa   000000 260002          	vfd	18/0,o9/260,1/0,o4/,o4/2

                                 1-616            defop     orx1,,261,0,,2
    002360  aa  157 162 170 061         	aci	"orx1"
    002361  aa  000 000 000 000
    004602  aa   000000 261002          	vfd	18/0,o9/261,1/0,o4/,o4/2

                                 1-617            defop     orx2,,262,0,,2
    002362  aa  157 162 170 062         	aci	"orx2"
    002363  aa  000 000 000 000
    004603  aa   000000 262002          	vfd	18/0,o9/262,1/0,o4/,o4/2

                                 1-618            defop     orx3,,263,0,,2
    002364  aa  157 162 170 063         	aci	"orx3"
    002365  aa  000 000 000 000
    004604  aa   000000 263002          	vfd	18/0,o9/263,1/0,o4/,o4/2

                                 1-619            defop     orx4,,264,0,,2
    002366  aa  157 162 170 064         	aci	"orx4"
    002367  aa  000 000 000 000
    004605  aa   000000 264002          	vfd	18/0,o9/264,1/0,o4/,o4/2

                                 1-620            defop     orx5,,265,0,,2
    002370  aa  157 162 170 065         	aci	"orx5"
    002371  aa  000 000 000 000
    004606  aa   000000 265002          	vfd	18/0,o9/265,1/0,o4/,o4/2

                                 1-621            defop     orx6,,266,0,,2
    002372  aa  157 162 170 066         	aci	"orx6"
    002373  aa  000 000 000 000
    004607  aa   000000 266002          	vfd	18/0,o9/266,1/0,o4/,o4/2

                                 1-622            defop     orx7,,267,0,,2
    002374  aa  157 162 170 067         	aci	"orx7"
    002375  aa  000 000 000 000
    004610  aa   000000 267002          	vfd	18/0,o9/267,1/0,o4/,o4/2

                                 1-623            defop     perproc,long,61,perprocess_static,2
    002376  aa  160 145 162 160         	aci	"perproc"
    002377  aa  162 157 143 000
    004611  aa   000075 000002          	vfd	18/61,o9/0,1/0,o4/0,o4/2

    005351  aa   001134 000000          	zero	op_index
    005352  aa  021 160 145 162         	acc	"perprocess_static"
    005353  aa  160 162 157 143
    005354  aa  145 163 163 137
    005355  aa  163 164 141 164
    005356  aa  151 143 000 000

                                 1-624            defop     puls1,,012,0,,2
    002400  aa  160 165 154 163         	aci	"puls1"
    002401  aa  061 000 000 000
    004612  aa   000000 012002          	vfd	18/0,o9/012,1/0,o4/,o4/2

                                 1-625            defop     puls2,,013,0,,2
    002402  aa  160 165 154 163         	aci	"puls2"
    002403  aa  062 000 000 000
    004613  aa   000000 013002          	vfd	18/0,o9/013,1/0,o4/,o4/2

                                 1-626            defop     push,pseud,41,2
    002404  aa  160 165 163 150         	aci	"push"
    002405  aa  000 000 000 000
    004614  aa   000051 000002          	vfd	18/41,o9/0,1/0,o4/0,o4/2

                                 1-627            defop     qlr,,776,0,,2
    002406  aa  161 154 162 000         	aci	"qlr"
    002407  aa  000 000 000 000
    004615  aa   000000 776002          	vfd	18/0,o9/776,1/0,o4/,o4/2

                                 1-628            defop     qls,,736,0,,2
    002410  aa  161 154 163 000         	aci	"qls"
    002411  aa  000 000 000 000
    004616  aa   000000 736002          	vfd	18/0,o9/736,1/0,o4/,o4/2

                                 1-629            defop     qrl,,772,0,,2
    002412  aa  161 162 154 000         	aci	"qrl"
    002413  aa  000 000 000 000
    004617  aa   000000 772002          	vfd	18/0,o9/772,1/0,o4/,o4/2

                                 1-630            defop     qrs,,732,0,,2
    002414  aa  161 162 163 000         	aci	"qrs"
    002415  aa  000 000 000 000
    004620  aa   000000 732002          	vfd	18/0,o9/732,1/0,o4/,o4/2

                                 1-631            defop     rccl,,633,0,,2
    002416  aa  162 143 143 154         	aci	"rccl"
    002417  aa  000 000 000 000
    004621  aa   000000 633002          	vfd	18/0,o9/633,1/0,o4/,o4/2

                                 1-632            defop     rcu,,613,0,,2
    002420  aa  162 143 165 000         	aci	"rcu"
    002421  aa  000 000 000 000
    004622  aa   000000 613002          	vfd	18/0,o9/613,1/0,o4/,o4/2

                                 1-633            defop     rem,pseud,16,2
    002422  aa  162 145 155 000         	aci	"rem"
    002423  aa  000 000 000 000
    004623  aa   000020 000002          	vfd	18/16,o9/0,1/0,o4/0,o4/2

                                 1-634            defop     ret,,630,0,,2
    002424  aa  162 145 164 000         	aci	"ret"
    002425  aa  000 000 000 000
    004624  aa   000000 630002          	vfd	18/0,o9/630,1/0,o4/,o4/2

                                 1-635            defop     return,pseud,39,2
    002426  aa  162 145 164 165         	aci	"return"
    002427  aa  162 156 000 000
    004625  aa   000047 000002          	vfd	18/39,o9/0,1/0,o4/0,o4/2

                                 1-636            defop     rimr,,233,0,,0
    002430  aa  162 151 155 162         	aci	"rimr"
    002431  aa  000 000 000 000
    004626  aa   000000 233000          	vfd	18/0,o9/233,1/0,o4/,o4/0

                                 1-637            defop     rmcm,,233,0,,1
    002432  aa  162 155 143 155         	aci	"rmcm"
    002433  aa  000 000 000 000
    004627  aa   000000 233001          	vfd	18/0,o9/233,1/0,o4/,o4/1

                                 1-638            defop     rpd,rpt,560,7,2
    002434  aa  162 160 144 000         	aci	"rpd"
    002435  aa  000 000 000 000
    004630  aa   000064 560162          	vfd	18/52,o9/560,1/0,o4/7,o4/2

                                 1-639            defop     rpda,rpt,560,5,2
    002436  aa  162 160 144 141         	aci	"rpda"
    002437  aa  000 000 000 000
    004631  aa   000064 560122          	vfd	18/52,o9/560,1/0,o4/5,o4/2

                                 1-640            defop     rpdb,rpt,560,3,2
    002440  aa  162 160 144 142         	aci	"rpdb"
    002441  aa  000 000 000 000
    004632  aa   000064 560062          	vfd	18/52,o9/560,1/0,o4/3,o4/2

                                 1-641            defop     rpdx,rpt,560,0,2
    002442  aa  162 160 144 170         	aci	"rpdx"
    002443  aa  000 000 000 000
    004633  aa   000064 560002          	vfd	18/52,o9/560,1/0,o4/0,o4/2

                                 1-642            defop     rpl,rpt,500,1,2
    002444  aa  162 160 154 000         	aci	"rpl"
    002445  aa  000 000 000 000
    004634  aa   000064 500022          	vfd	18/52,o9/500,1/0,o4/1,o4/2

                                 1-643            defop     rplx,rpt,500,0,2
    002446  aa  162 160 154 170         	aci	"rplx"
    002447  aa  000 000 000 000
    004635  aa   000064 500002          	vfd	18/52,o9/500,1/0,o4/0,o4/2

                                 1-644            defop     rpt,rpt,520,1,2
    002450  aa  162 160 164 000         	aci	"rpt"
    002451  aa  000 000 000 000
    004636  aa   000064 520022          	vfd	18/52,o9/520,1/0,o4/1,o4/2

                                 1-645            defop     rptx,rpt,520,0,2
    002452  aa  162 160 164 170         	aci	"rptx"
    002453  aa  000 000 000 000
    004637  aa   000064 520002          	vfd	18/52,o9/520,1/0,o4/0,o4/2

                                 1-646            defop     rres,,231,0,,0
    002454  aa  162 162 145 163         	aci	"rres"
    002455  aa  000 000 000 000
    004640  aa   000000 231000          	vfd	18/0,o9/231,1/0,o4/,o4/0

                                 1-647            defop     rscr,,413,0,,1
    002456  aa  162 163 143 162         	aci	"rscr"
    002457  aa  000 000 000 000
    004641  aa   000000 413001          	vfd	18/0,o9/413,1/0,o4/,o4/1

                                 1-648            defop     rsw,,231,0,,1
    002460  aa  162 163 167 000         	aci	"rsw"
    002461  aa  000 000 000 000
    004642  aa   000000 231001          	vfd	18/0,o9/231,1/0,o4/,o4/1

                                 1-649            defop     rtcd,,610,0,,2
    002462  aa  162 164 143 144         	aci	"rtcd"
    002463  aa  000 000 000 000
    004643  aa   000000 610002          	vfd	18/0,o9/610,1/0,o4/,o4/2

                                 1-650            defop     s4bd,ar,522,0,2
    002464  aa  163 064 142 144         	aci	"s4bd"
    002465  aa  000 000 000 000
    004644  aa   000065 522402          	vfd	18/53,o9/522,1/1,o4/0,o4/2

                                 1-651            defop     s4bdx,ar,522,1,2
    002466  aa  163 064 142 144         	aci	"s4bdx"
    002467  aa  170 000 000 000
    004645  aa   000065 522422          	vfd	18/53,o9/522,1/1,o4/1,o4/2

                                 1-652            defop     s6bd,ar,521,0,2
    002470  aa  163 066 142 144         	aci	"s6bd"
    002471  aa  000 000 000 000
    004646  aa   000065 521402          	vfd	18/53,o9/521,1/1,o4/0,o4/2

                                 1-653            defop     s6bdx,ar,521,1,2
    002472  aa  163 066 142 144         	aci	"s6bdx"
    002473  aa  170 000 000 000
    004647  aa   000065 521422          	vfd	18/53,o9/521,1/1,o4/1,o4/2

                                 1-654            defop     s9bd,ar,520,0,2
    002474  aa  163 071 142 144         	aci	"s9bd"
    002475  aa  000 000 000 000
    004650  aa   000065 520402          	vfd	18/53,o9/520,1/1,o4/0,o4/2

                                 1-655            defop     s9bdx,ar,520,1,2
    002476  aa  163 071 142 144         	aci	"s9bdx"
    002477  aa  170 000 000 000
    004651  aa   000065 520422          	vfd	18/53,o9/520,1/1,o4/1,o4/2

                                 1-656            defop     sar,pr,2
    002500  aa  163 141 162 000         	aci	"sar"
    002501  aa  000 000 000 000
    004652  aa   000054 000002          	vfd	18/44,o9/0,1/0,o4/0,o4/2

                                 1-657            defop     sar0,,740,1,,2
    002502  aa  163 141 162 060         	aci	"sar0"
    002503  aa  000 000 000 000
    004653  aa   000000 740402          	vfd	18/0,o9/740,1/1,o4/,o4/2

                                 1-658            defop     sar1,,741,1,,2
    002504  aa  163 141 162 061         	aci	"sar1"
    002505  aa  000 000 000 000
    004654  aa   000000 741402          	vfd	18/0,o9/741,1/1,o4/,o4/2

                                 1-659            defop     sar2,,742,1,,2
    002506  aa  163 141 162 062         	aci	"sar2"
    002507  aa  000 000 000 000
    004655  aa   000000 742402          	vfd	18/0,o9/742,1/1,o4/,o4/2

                                 1-660            defop     sar3,,743,1,,2
    002510  aa  163 141 162 063         	aci	"sar3"
    002511  aa  000 000 000 000
    004656  aa   000000 743402          	vfd	18/0,o9/743,1/1,o4/,o4/2

                                 1-661            defop     sar4,,744,1,,2
    002512  aa  163 141 162 064         	aci	"sar4"
    002513  aa  000 000 000 000
    004657  aa   000000 744402          	vfd	18/0,o9/744,1/1,o4/,o4/2

                                 1-662            defop     sar5,,745,1,,2
    002514  aa  163 141 162 065         	aci	"sar5"
    002515  aa  000 000 000 000
    004660  aa   000000 745402          	vfd	18/0,o9/745,1/1,o4/,o4/2

                                 1-663            defop     sar6,,746,1,,2
    002516  aa  163 141 162 066         	aci	"sar6"
    002517  aa  000 000 000 000
    004661  aa   000000 746402          	vfd	18/0,o9/746,1/1,o4/,o4/2

                                 1-664            defop     sar7,,747,1,,2
    002520  aa  163 141 162 067         	aci	"sar7"
    002521  aa  000 000 000 000
    004662  aa   000000 747402          	vfd	18/0,o9/747,1/1,o4/,o4/2

                                 1-665            defop     sarab,,741,1,,2
    002522  aa  163 141 162 141         	aci	"sarab"
    002523  aa  142 000 000 000
    004663  aa   000000 741402          	vfd	18/0,o9/741,1/1,o4/,o4/2

                                 1-666            defop     sarap,,740,1,,2
    002524  aa  163 141 162 141         	aci	"sarap"
    002525  aa  160 000 000 000
    004664  aa   000000 740402          	vfd	18/0,o9/740,1/1,o4/,o4/2

                                 1-667            defop     sarbb,,743,1,,2
    002526  aa  163 141 162 142         	aci	"sarbb"
    002527  aa  142 000 000 000
    004665  aa   000000 743402          	vfd	18/0,o9/743,1/1,o4/,o4/2

                                 1-668            defop     sarbp,,742,1,,2
    002530  aa  163 141 162 142         	aci	"sarbp"
    002531  aa  160 000 000 000
    004666  aa   000000 742402          	vfd	18/0,o9/742,1/1,o4/,o4/2

                                 1-669            defop     sareg,,443,1,,2
    002532  aa  163 141 162 145         	aci	"sareg"
    002533  aa  147 000 000 000
    004667  aa   000000 443402          	vfd	18/0,o9/443,1/1,o4/,o4/2

                                 1-670            defop     sarlb,,745,1,,2
    002534  aa  163 141 162 154         	aci	"sarlb"
    002535  aa  142 000 000 000
    004670  aa   000000 745402          	vfd	18/0,o9/745,1/1,o4/,o4/2

                                 1-671            defop     sarlp,,744,1,,2
    002536  aa  163 141 162 154         	aci	"sarlp"
    002537  aa  160 000 000 000
    004671  aa   000000 744402          	vfd	18/0,o9/744,1/1,o4/,o4/2

                                 1-672            defop     sarsb,,747,1,,2
    002540  aa  163 141 162 163         	aci	"sarsb"
    002541  aa  142 000 000 000
    004672  aa   000000 747402          	vfd	18/0,o9/747,1/1,o4/,o4/2

                                 1-673            defop     sarsp,,746,1,,2
    002542  aa  163 141 162 163         	aci	"sarsp"
    002543  aa  160 000 000 000
    004673  aa   000000 746402          	vfd	18/0,o9/746,1/1,o4/,o4/2

                                 1-674            defop     save,pseud,41,2
    002544  aa  163 141 166 145         	aci	"save"
    002545  aa  000 000 000 000
    004674  aa   000051 000002          	vfd	18/41,o9/0,1/0,o4/0,o4/2

                                 1-675            defop     sb2d,eis,203,0,2
    002546  aa  163 142 062 144         	aci	"sb2d"
    002547  aa  000 000 000 000
    004675  aa   000066 203402          	vfd	18/54,o9/203,1/1,o4/0,o4/2

                                 1-676            defop     sb2dx,eis,243,0,0
    002550  aa  163 142 062 144         	aci	"sb2dx"
    002551  aa  170 000 000 000
    004676  aa   000066 243400          	vfd	18/54,o9/243,1/1,o4/0,o4/0

                                 1-677            defop     sb3d,eis,223,0,2
    002552  aa  163 142 063 144         	aci	"sb3d"
    002553  aa  000 000 000 000
    004677  aa   000066 223402          	vfd	18/54,o9/223,1/1,o4/0,o4/2

                                 1-678            defop     sb3dx,eis,263,0,0
    002554  aa  163 142 063 144         	aci	"sb3dx"
    002555  aa  170 000 000 000
    004700  aa   000066 263400          	vfd	18/54,o9/263,1/1,o4/0,o4/0

                                 1-679            defop     sba,,175,0,,2
    002556  aa  163 142 141 000         	aci	"sba"
    002557  aa  000 000 000 000
    004701  aa   000000 175002          	vfd	18/0,o9/175,1/0,o4/,o4/2

                                 1-680            defop     sbaq,,177,0,,2
    002560  aa  163 142 141 161         	aci	"sbaq"
    002561  aa  000 000 000 000
    004702  aa   000000 177002          	vfd	18/0,o9/177,1/0,o4/,o4/2

                                 1-681            defop     sbar,,550,0,,2
    002562  aa  163 142 141 162         	aci	"sbar"
    002563  aa  000 000 000 000
    004703  aa   000000 550002          	vfd	18/0,o9/550,1/0,o4/,o4/2

                                 1-682            defop     sbd,ar,523,0,2
    002564  aa  163 142 144 000         	aci	"sbd"
    002565  aa  000 000 000 000
    004704  aa   000065 523402          	vfd	18/53,o9/523,1/1,o4/0,o4/2

                                 1-683            defop     sbdx,ar,523,1,2
    002566  aa  163 142 144 170         	aci	"sbdx"
    002567  aa  000 000 000 000
    004705  aa   000065 523422          	vfd	18/53,o9/523,1/1,o4/1,o4/2

                                 1-684            defop     sbla,,135,0,,2
    002570  aa  163 142 154 141         	aci	"sbla"
    002571  aa  000 000 000 000
    004706  aa   000000 135002          	vfd	18/0,o9/135,1/0,o4/,o4/2

                                 1-685            defop     sblaq,,137,0,,2
    002572  aa  163 142 154 141         	aci	"sblaq"
    002573  aa  161 000 000 000
    004707  aa   000000 137002          	vfd	18/0,o9/137,1/0,o4/,o4/2

                                 1-686            defop     sblq,,136,0,,2
    002574  aa  163 142 154 161         	aci	"sblq"
    002575  aa  000 000 000 000
    004710  aa   000000 136002          	vfd	18/0,o9/136,1/0,o4/,o4/2

                                 1-687            defop     sblx,xr,2
    002576  aa  163 142 154 170         	aci	"sblx"
    002577  aa  000 000 000 000
    004711  aa   000053 000002          	vfd	18/43,o9/0,1/0,o4/0,o4/2

                                 1-688            defop     sblx0,,120,0,,2
    002600  aa  163 142 154 170         	aci	"sblx0"
    002601  aa  060 000 000 000
    004712  aa   000000 120002          	vfd	18/0,o9/120,1/0,o4/,o4/2

                                 1-689            defop     sblx1,,121,0,,2
    002602  aa  163 142 154 170         	aci	"sblx1"
    002603  aa  061 000 000 000
    004713  aa   000000 121002          	vfd	18/0,o9/121,1/0,o4/,o4/2

                                 1-690            defop     sblx2,,122,0,,2
    002604  aa  163 142 154 170         	aci	"sblx2"
    002605  aa  062 000 000 000
    004714  aa   000000 122002          	vfd	18/0,o9/122,1/0,o4/,o4/2

                                 1-691            defop     sblx3,,123,0,,2
    002606  aa  163 142 154 170         	aci	"sblx3"
    002607  aa  063 000 000 000
    004715  aa   000000 123002          	vfd	18/0,o9/123,1/0,o4/,o4/2

                                 1-692            defop     sblx4,,124,0,,2
    002610  aa  163 142 154 170         	aci	"sblx4"
    002611  aa  064 000 000 000
    004716  aa   000000 124002          	vfd	18/0,o9/124,1/0,o4/,o4/2

                                 1-693            defop     sblx5,,125,0,,2
    002612  aa  163 142 154 170         	aci	"sblx5"
    002613  aa  065 000 000 000
    004717  aa   000000 125002          	vfd	18/0,o9/125,1/0,o4/,o4/2

                                 1-694            defop     sblx6,,126,0,,2
    002614  aa  163 142 154 170         	aci	"sblx6"
    002615  aa  066 000 000 000
    004720  aa   000000 126002          	vfd	18/0,o9/126,1/0,o4/,o4/2

                                 1-695            defop     sblx7,,127,0,,2
    002616  aa  163 142 154 170         	aci	"sblx7"
    002617  aa  067 000 000 000
    004721  aa   000000 127002          	vfd	18/0,o9/127,1/0,o4/,o4/2

                                 1-696            defop     sbq,,176,0,,2
    002620  aa  163 142 161 000         	aci	"sbq"
    002621  aa  000 000 000 000
    004722  aa   000000 176002          	vfd	18/0,o9/176,1/0,o4/,o4/2

                                 1-697            defop     sbx,xr,2
    002622  aa  163 142 170 000         	aci	"sbx"
    002623  aa  000 000 000 000
    004723  aa   000053 000002          	vfd	18/43,o9/0,1/0,o4/0,o4/2

                                 1-698            defop     sbx0,,160,0,,2
    002624  aa  163 142 170 060         	aci	"sbx0"
    002625  aa  000 000 000 000
    004724  aa   000000 160002          	vfd	18/0,o9/160,1/0,o4/,o4/2

                                 1-699            defop     sbx1,,161,0,,2
    002626  aa  163 142 170 061         	aci	"sbx1"
    002627  aa  000 000 000 000
    004725  aa   000000 161002          	vfd	18/0,o9/161,1/0,o4/,o4/2

                                 1-700            defop     sbx2,,162,0,,2
    002630  aa  163 142 170 062         	aci	"sbx2"
    002631  aa  000 000 000 000
    004726  aa   000000 162002          	vfd	18/0,o9/162,1/0,o4/,o4/2

                                 1-701            defop     sbx3,,163,0,,2
    002632  aa  163 142 170 063         	aci	"sbx3"
    002633  aa  000 000 000 000
    004727  aa   000000 163002          	vfd	18/0,o9/163,1/0,o4/,o4/2

                                 1-702            defop     sbx4,,164,0,,2
    002634  aa  163 142 170 064         	aci	"sbx4"
    002635  aa  000 000 000 000
    004730  aa   000000 164002          	vfd	18/0,o9/164,1/0,o4/,o4/2

                                 1-703            defop     sbx5,,165,0,,2
    002636  aa  163 142 170 065         	aci	"sbx5"
    002637  aa  000 000 000 000
    004731  aa   000000 165002          	vfd	18/0,o9/165,1/0,o4/,o4/2

                                 1-704            defop     sbx6,,166,0,,2
    002640  aa  163 142 170 066         	aci	"sbx6"
    002641  aa  000 000 000 000
    004732  aa   000000 166002          	vfd	18/0,o9/166,1/0,o4/,o4/2

                                 1-705            defop     sbx7,,167,0,,2
    002642  aa  163 142 170 067         	aci	"sbx7"
    002643  aa  000 000 000 000
    004733  aa   000000 167002          	vfd	18/0,o9/167,1/0,o4/,o4/2

                                 1-706            defop     scd,eis,120,0,2
    002644  aa  163 143 144 000         	aci	"scd"
    002645  aa  000 000 000 000
    004734  aa   000066 120402          	vfd	18/54,o9/120,1/1,o4/0,o4/2

                                 1-707            defop     scdr,eis,121,0,2
    002646  aa  163 143 144 162         	aci	"scdr"
    002647  aa  000 000 000 000
    004735  aa   000066 121402          	vfd	18/54,o9/121,1/1,o4/0,o4/2

                                 1-708            defop     scm,eis,124,0,2
    002650  aa  163 143 155 000         	aci	"scm"
    002651  aa  000 000 000 000
    004736  aa   000066 124402          	vfd	18/54,o9/124,1/1,o4/0,o4/2

                                 1-709            defop     scmr,eis,125,0,2
    002652  aa  163 143 155 162         	aci	"scmr"
    002653  aa  000 000 000 000
    004737  aa   000066 125402          	vfd	18/54,o9/125,1/1,o4/0,o4/2

                                 1-710            defop     scpr,,452,0,,1
    002654  aa  163 143 160 162         	aci	"scpr"
    002655  aa  000 000 000 000
    004740  aa   000000 452001          	vfd	18/0,o9/452,1/0,o4/,o4/1

                                 1-711            defop     scu,,657,0,,2
    002656  aa  163 143 165 000         	aci	"scu"
    002657  aa  000 000 000 000
    004741  aa   000000 657002          	vfd	18/0,o9/657,1/0,o4/,o4/2

                                 1-712            defop     sdbr,,154,0,,2
    002660  aa  163 144 142 162         	aci	"sdbr"
    002661  aa  000 000 000 000
    004742  aa   000000 154002          	vfd	18/0,o9/154,1/0,o4/,o4/2

                                 1-713            defop     segdef,pseud,42,2
    002662  aa  163 145 147 144         	aci	"segdef"
    002663  aa  145 146 000 000
    004743  aa   000052 000002          	vfd	18/42,o9/0,1/0,o4/0,o4/2

                                 1-714            defop     segref,pseud,22,2
    002664  aa  163 145 147 162         	aci	"segref"
    002665  aa  145 146 000 000
    004744  aa   000026 000002          	vfd	18/22,o9/0,1/0,o4/0,o4/2

                                 1-715            defop     set,pseud,21,2
    002666  aa  163 145 164 000         	aci	"set"
    002667  aa  000 000 000 000
    004745  aa   000025 000002          	vfd	18/21,o9/0,1/0,o4/0,o4/2

                                 1-716            defop     setlp,pseud,45,2
    002670  aa  163 145 164 154         	aci	"setlp"
    002671  aa  160 000 000 000
    004746  aa   000055 000002          	vfd	18/45,o9/0,1/0,o4/0,o4/2

                                 1-717            defop     sfr,,452,0,,0
    002672  aa  163 146 162 000         	aci	"sfr"
    002673  aa  000 000 000 000
    004747  aa   000000 452000          	vfd	18/0,o9/452,1/0,o4/,o4/0

                                 1-718            defop     short_ca,long,51,short_call,2
    002674  aa  163 150 157 162         	aci	"short_ca"
    002675  aa  164 137 143 141
    004750  aa   000063 000002          	vfd	18/51,o9/0,1/0,o4/0,o4/2

    005357  aa   001273 000000          	zero	op_index
    005360  aa  012 163 150 157         	acc	"short_call"
    005361  aa  162 164 137 143
    005362  aa  141 154 154 000
    005363  aa  000 000 000 000
    005364  aa  000 000 000 000

                                 1-719            defop     short_re,long,46,short_return,2
    002676  aa  163 150 157 162         	aci	"short_re"
    002677  aa  164 137 162 145
    004751  aa   000056 000002          	vfd	18/46,o9/0,1/0,o4/0,o4/2

    005365  aa   001274 000000          	zero	op_index
    005366  aa  014 163 150 157         	acc	"short_return"
    005367  aa  162 164 137 162
    005370  aa  145 164 165 162
    005371  aa  156 000 000 000
    005372  aa  000 000 000 000

                                 1-720            defop     sixtyfou,long,8,sixtyfour,2
    002700  aa  163 151 170 164         	aci	"sixtyfou"
    002701  aa  171 146 157 165
    004752  aa   000010 000002          	vfd	18/8,o9/0,1/0,o4/0,o4/2

    005373  aa   001275 000000          	zero	op_index
    005374  aa  011 163 151 170         	acc	"sixtyfour"
    005375  aa  164 171 146 157
    005376  aa  165 162 000 000
    005377  aa  000 000 000 000
    005400  aa  000 000 000 000

                                 1-721            defop     smcm,,553,0,,1
    002702  aa  163 155 143 155         	aci	"smcm"
    002703  aa  000 000 000 000
    004753  aa   000000 553001          	vfd	18/0,o9/553,1/0,o4/,o4/1

                                 1-722            defop     smic,,451,0,,1
    002704  aa  163 155 151 143         	aci	"smic"
    002705  aa  000 000 000 000
    004754  aa   000000 451001          	vfd	18/0,o9/451,1/0,o4/,o4/1

                                 1-723            defop     source,pseud,72,2
    002706  aa  163 157 165 162         	aci	"source"
    002707  aa  143 145 000 000
    004755  aa   000110 000002          	vfd	18/72,o9/0,1/0,o4/0,o4/2

                                 1-724            defop     spbp,pr,2
    002710  aa  163 160 142 160         	aci	"spbp"
    002711  aa  000 000 000 000
    004756  aa   000054 000002          	vfd	18/44,o9/0,1/0,o4/0,o4/2

                                 1-725            defop     spbp0,,250,1,,2
    002712  aa  163 160 142 160         	aci	"spbp0"
    002713  aa  060 000 000 000
    004757  aa   000000 250402          	vfd	18/0,o9/250,1/1,o4/,o4/2

                                 1-726            defop     spbp1,,251,0,,2
    002714  aa  163 160 142 160         	aci	"spbp1"
    002715  aa  061 000 000 000
    004760  aa   000000 251002          	vfd	18/0,o9/251,1/0,o4/,o4/2

                                 1-727            defop     spbp2,,252,1,,2
    002716  aa  163 160 142 160         	aci	"spbp2"
    002717  aa  062 000 000 000
    004761  aa   000000 252402          	vfd	18/0,o9/252,1/1,o4/,o4/2

                                 1-728            defop     spbp3,,253,0,,2
    002720  aa  163 160 142 160         	aci	"spbp3"
    002721  aa  063 000 000 000
    004762  aa   000000 253002          	vfd	18/0,o9/253,1/0,o4/,o4/2

                                 1-729            defop     spbp4,,650,1,,2
    002722  aa  163 160 142 160         	aci	"spbp4"
    002723  aa  064 000 000 000
    004763  aa   000000 650402          	vfd	18/0,o9/650,1/1,o4/,o4/2

                                 1-730            defop     spbp5,,651,0,,2
    002724  aa  163 160 142 160         	aci	"spbp5"
    002725  aa  065 000 000 000
    004764  aa   000000 651002          	vfd	18/0,o9/651,1/0,o4/,o4/2

                                 1-731            defop     spbp6,,652,1,,2
    002726  aa  163 160 142 160         	aci	"spbp6"
    002727  aa  066 000 000 000
    004765  aa   000000 652402          	vfd	18/0,o9/652,1/1,o4/,o4/2

                                 1-732            defop     spbp7,,653,0,,2
    002730  aa  163 160 142 160         	aci	"spbp7"
    002731  aa  067 000 000 000
    004766  aa   000000 653002          	vfd	18/0,o9/653,1/0,o4/,o4/2

                                 1-733            defop     spbpab,,251,0,,2
    002732  aa  163 160 142 160         	aci	"spbpab"
    002733  aa  141 142 000 000
    004767  aa   000000 251002          	vfd	18/0,o9/251,1/0,o4/,o4/2

                                 1-734            defop     spbpap,,250,1,,2
    002734  aa  163 160 142 160         	aci	"spbpap"
    002735  aa  141 160 000 000
    004770  aa   000000 250402          	vfd	18/0,o9/250,1/1,o4/,o4/2

                                 1-735            defop     spbpbb,,253,0,,2
    002736  aa  163 160 142 160         	aci	"spbpbb"
    002737  aa  142 142 000 000
    004771  aa   000000 253002          	vfd	18/0,o9/253,1/0,o4/,o4/2

                                 1-736            defop     spbpbp,,252,1,,2
    002740  aa  163 160 142 160         	aci	"spbpbp"
    002741  aa  142 160 000 000
    004772  aa   000000 252402          	vfd	18/0,o9/252,1/1,o4/,o4/2

                                 1-737            defop     spbplb,,651,0,,2
    002742  aa  163 160 142 160         	aci	"spbplb"
    002743  aa  154 142 000 000
    004773  aa   000000 651002          	vfd	18/0,o9/651,1/0,o4/,o4/2

                                 1-738            defop     spbplp,,650,1,,2
    002744  aa  163 160 142 160         	aci	"spbplp"
    002745  aa  154 160 000 000
    004774  aa   000000 650402          	vfd	18/0,o9/650,1/1,o4/,o4/2

                                 1-739            defop     spbpsb,,653,0,,2
    002746  aa  163 160 142 160         	aci	"spbpsb"
    002747  aa  163 142 000 000
    004775  aa   000000 653002          	vfd	18/0,o9/653,1/0,o4/,o4/2

                                 1-740            defop     spbpsp,,652,1,,2
    002750  aa  163 160 142 160         	aci	"spbpsp"
    002751  aa  163 160 000 000
    004776  aa   000000 652402          	vfd	18/0,o9/652,1/1,o4/,o4/2

                                 1-741            defop     spl,,447,1,,2
    002752  aa  163 160 154 000         	aci	"spl"
    002753  aa  000 000 000 000
    004777  aa   000000 447402          	vfd	18/0,o9/447,1/1,o4/,o4/2

                                 1-742            defop     spri,,254,0,,2
    002754  aa  163 160 162 151         	aci	"spri"
    002755  aa  000 000 000 000
    005000  aa   000000 254002          	vfd	18/0,o9/254,1/0,o4/,o4/2

                                 1-743            defop     spri0,,250,0,,2
    002756  aa  163 160 162 151         	aci	"spri0"
    002757  aa  060 000 000 000
    005001  aa   000000 250002          	vfd	18/0,o9/250,1/0,o4/,o4/2

                                 1-744            defop     spri1,,251,1,,2
    002760  aa  163 160 162 151         	aci	"spri1"
    002761  aa  061 000 000 000
    005002  aa   000000 251402          	vfd	18/0,o9/251,1/1,o4/,o4/2

                                 1-745            defop     spri2,,252,0,,2
    002762  aa  163 160 162 151         	aci	"spri2"
    002763  aa  062 000 000 000
    005003  aa   000000 252002          	vfd	18/0,o9/252,1/0,o4/,o4/2

                                 1-746            defop     spri3,,253,1,,2
    002764  aa  163 160 162 151         	aci	"spri3"
    002765  aa  063 000 000 000
    005004  aa   000000 253402          	vfd	18/0,o9/253,1/1,o4/,o4/2

                                 1-747            defop     spri4,,650,0,,2
    002766  aa  163 160 162 151         	aci	"spri4"
    002767  aa  064 000 000 000
    005005  aa   000000 650002          	vfd	18/0,o9/650,1/0,o4/,o4/2

                                 1-748            defop     spri5,,651,1,,2
    002770  aa  163 160 162 151         	aci	"spri5"
    002771  aa  065 000 000 000
    005006  aa   000000 651402          	vfd	18/0,o9/651,1/1,o4/,o4/2

                                 1-749            defop     spri6,,652,0,,2
    002772  aa  163 160 162 151         	aci	"spri6"
    002773  aa  066 000 000 000
    005007  aa   000000 652002          	vfd	18/0,o9/652,1/0,o4/,o4/2

                                 1-750            defop     spri7,,653,1,,2
    002774  aa  163 160 162 151         	aci	"spri7"
    002775  aa  067 000 000 000
    005010  aa   000000 653402          	vfd	18/0,o9/653,1/1,o4/,o4/2

                                 1-751            defop     spriab,,251,1,,2
    002776  aa  163 160 162 151         	aci	"spriab"
    002777  aa  141 142 000 000
    005011  aa   000000 251402          	vfd	18/0,o9/251,1/1,o4/,o4/2

                                 1-752            defop     spriap,,250,0,,2
    003000  aa  163 160 162 151         	aci	"spriap"
    003001  aa  141 160 000 000
    005012  aa   000000 250002          	vfd	18/0,o9/250,1/0,o4/,o4/2

                                 1-753            defop     spribb,,253,1,,2
    003002  aa  163 160 162 151         	aci	"spribb"
    003003  aa  142 142 000 000
    005013  aa   000000 253402          	vfd	18/0,o9/253,1/1,o4/,o4/2

                                 1-754            defop     spribp,,252,0,,2
    003004  aa  163 160 162 151         	aci	"spribp"
    003005  aa  142 160 000 000
    005014  aa   000000 252002          	vfd	18/0,o9/252,1/0,o4/,o4/2

                                 1-755            defop     sprilb,,651,1,,2
    003006  aa  163 160 162 151         	aci	"sprilb"
    003007  aa  154 142 000 000
    005015  aa   000000 651402          	vfd	18/0,o9/651,1/1,o4/,o4/2

                                 1-756            defop     sprilp,,650,0,,2
    003010  aa  163 160 162 151         	aci	"sprilp"
    003011  aa  154 160 000 000
    005016  aa   000000 650002          	vfd	18/0,o9/650,1/0,o4/,o4/2

                                 1-757            defop     sprisb,,653,1,,2
    003012  aa  163 160 162 151         	aci	"sprisb"
    003013  aa  163 142 000 000
    005017  aa   000000 653402          	vfd	18/0,o9/653,1/1,o4/,o4/2

                                 1-758            defop     sprisp,,652,0,,2
    003014  aa  163 160 162 151         	aci	"sprisp"
    003015  aa  163 160 000 000
    005020  aa   000000 652002          	vfd	18/0,o9/652,1/0,o4/,o4/2

                                 1-759            defop     sprp,pr,2
    003016  aa  163 160 162 160         	aci	"sprp"
    003017  aa  000 000 000 000
    005021  aa   000054 000002          	vfd	18/44,o9/0,1/0,o4/0,o4/2

                                 1-760            defop     sprp0,,540,0,,2
    003020  aa  163 160 162 160         	aci	"sprp0"
    003021  aa  060 000 000 000
    005022  aa   000000 540002          	vfd	18/0,o9/540,1/0,o4/,o4/2

                                 1-761            defop     sprp1,,541,0,,2
    003022  aa  163 160 162 160         	aci	"sprp1"
    003023  aa  061 000 000 000
    005023  aa   000000 541002          	vfd	18/0,o9/541,1/0,o4/,o4/2

                                 1-762            defop     sprp2,,542,0,,2
    003024  aa  163 160 162 160         	aci	"sprp2"
    003025  aa  062 000 000 000
    005024  aa   000000 542002          	vfd	18/0,o9/542,1/0,o4/,o4/2

                                 1-763            defop     sprp3,,543,0,,2
    003026  aa  163 160 162 160         	aci	"sprp3"
    003027  aa  063 000 000 000
    005025  aa   000000 543002          	vfd	18/0,o9/543,1/0,o4/,o4/2

                                 1-764            defop     sprp4,,544,0,,2
    003030  aa  163 160 162 160         	aci	"sprp4"
    003031  aa  064 000 000 000
    005026  aa   000000 544002          	vfd	18/0,o9/544,1/0,o4/,o4/2

                                 1-765            defop     sprp5,,545,0,,2
    003032  aa  163 160 162 160         	aci	"sprp5"
    003033  aa  065 000 000 000
    005027  aa   000000 545002          	vfd	18/0,o9/545,1/0,o4/,o4/2

                                 1-766            defop     sprp6,,546,0,,2
    003034  aa  163 160 162 160         	aci	"sprp6"
    003035  aa  066 000 000 000
    005030  aa   000000 546002          	vfd	18/0,o9/546,1/0,o4/,o4/2

                                 1-767            defop     sprp7,,547,0,,2
    003036  aa  163 160 162 160         	aci	"sprp7"
    003037  aa  067 000 000 000
    005031  aa   000000 547002          	vfd	18/0,o9/547,1/0,o4/,o4/2

                                 1-768            defop     sprpab,,541,0,,2
    003040  aa  163 160 162 160         	aci	"sprpab"
    003041  aa  141 142 000 000
    005032  aa   000000 541002          	vfd	18/0,o9/541,1/0,o4/,o4/2

                                 1-769            defop     sprpap,,540,0,,2
    003042  aa  163 160 162 160         	aci	"sprpap"
    003043  aa  141 160 000 000
    005033  aa   000000 540002          	vfd	18/0,o9/540,1/0,o4/,o4/2

                                 1-770            defop     sprpbb,,543,0,,2
    003044  aa  163 160 162 160         	aci	"sprpbb"
    003045  aa  142 142 000 000
    005034  aa   000000 543002          	vfd	18/0,o9/543,1/0,o4/,o4/2

                                 1-771            defop     sprpbp,,542,0,,2
    003046  aa  163 160 162 160         	aci	"sprpbp"
    003047  aa  142 160 000 000
    005035  aa   000000 542002          	vfd	18/0,o9/542,1/0,o4/,o4/2

                                 1-772            defop     sprplb,,545,0,,2
    003050  aa  163 160 162 160         	aci	"sprplb"
    003051  aa  154 142 000 000
    005036  aa   000000 545002          	vfd	18/0,o9/545,1/0,o4/,o4/2

                                 1-773            defop     sprplp,,544,0,,2
    003052  aa  163 160 162 160         	aci	"sprplp"
    003053  aa  154 160 000 000
    005037  aa   000000 544002          	vfd	18/0,o9/544,1/0,o4/,o4/2

                                 1-774            defop     sprpsb,,547,0,,2
    003054  aa  163 160 162 160         	aci	"sprpsb"
    003055  aa  163 142 000 000
    005040  aa   000000 547002          	vfd	18/0,o9/547,1/0,o4/,o4/2

                                 1-775            defop     sprpsp,,546,0,,2
    003056  aa  163 160 162 160         	aci	"sprpsp"
    003057  aa  163 160 000 000
    005041  aa   000000 546002          	vfd	18/0,o9/546,1/0,o4/,o4/2

                                 1-776            defop     sptp,,557,1,,1
    003060  aa  163 160 164 160         	aci	"sptp"
    003061  aa  000 000 000 000
    005042  aa   000000 557401          	vfd	18/0,o9/557,1/1,o4/,o4/1

                                 1-777            defop     sptr,,154,1,,1
    003062  aa  163 160 164 162         	aci	"sptr"
    003063  aa  000 000 000 000
    005043  aa   000000 154401          	vfd	18/0,o9/154,1/1,o4/,o4/1

                                 1-778            defop     sra,,754,1,,2
    003064  aa  163 162 141 000         	aci	"sra"
    003065  aa  000 000 000 000
    005044  aa   000000 754402          	vfd	18/0,o9/754,1/1,o4/,o4/2

                                 1-779            defop     sreg,,753,0,,2
    003066  aa  163 162 145 147         	aci	"sreg"
    003067  aa  000 000 000 000
    005045  aa   000000 753002          	vfd	18/0,o9/753,1/0,o4/,o4/2

                                 1-780            defop     ssa,,155,0,,2
    003070  aa  163 163 141 000         	aci	"ssa"
    003071  aa  000 000 000 000
    005046  aa   000000 155002          	vfd	18/0,o9/155,1/0,o4/,o4/2

                                 1-781            defop     sscr,,057,0,,1
    003072  aa  163 163 143 162         	aci	"sscr"
    003073  aa  000 000 000 000
    005047  aa   000000 057001          	vfd	18/0,o9/057,1/0,o4/,o4/1

                                 1-782            defop     ssdp,,557,0,,1
    003074  aa  163 163 144 160         	aci	"ssdp"
    003075  aa  000 000 000 000
    005050  aa   000000 557001          	vfd	18/0,o9/557,1/0,o4/,o4/1

                                 1-783            defop     ssdr,,254,1,,1
    003076  aa  163 163 144 162         	aci	"ssdr"
    003077  aa  000 000 000 000
    005051  aa   000000 254401          	vfd	18/0,o9/254,1/1,o4/,o4/1

                                 1-784            defop     ssq,,156,0,,2
    003100  aa  163 163 161 000         	aci	"ssq"
    003101  aa  000 000 000 000
    005052  aa   000000 156002          	vfd	18/0,o9/156,1/0,o4/,o4/2

                                 1-785            defop     ssx,xr,2
    003102  aa  163 163 170 000         	aci	"ssx"
    003103  aa  000 000 000 000
    005053  aa   000053 000002          	vfd	18/43,o9/0,1/0,o4/0,o4/2

                                 1-786            defop     ssx0,,140,0,,2
    003104  aa  163 163 170 060         	aci	"ssx0"
    003105  aa  000 000 000 000
    005054  aa   000000 140002          	vfd	18/0,o9/140,1/0,o4/,o4/2

                                 1-787            defop     ssx1,,141,0,,2
    003106  aa  163 163 170 061         	aci	"ssx1"
    003107  aa  000 000 000 000
    005055  aa   000000 141002          	vfd	18/0,o9/141,1/0,o4/,o4/2

                                 1-788            defop     ssx2,,142,0,,2
    003110  aa  163 163 170 062         	aci	"ssx2"
    003111  aa  000 000 000 000
    005056  aa   000000 142002          	vfd	18/0,o9/142,1/0,o4/,o4/2

                                 1-789            defop     ssx3,,143,0,,2
    003112  aa  163 163 170 063         	aci	"ssx3"
    003113  aa  000 000 000 000
    005057  aa   000000 143002          	vfd	18/0,o9/143,1/0,o4/,o4/2

                                 1-790            defop     ssx4,,144,0,,2
    003114  aa  163 163 170 064         	aci	"ssx4"
    003115  aa  000 000 000 000
    005060  aa   000000 144002          	vfd	18/0,o9/144,1/0,o4/,o4/2

                                 1-791            defop     ssx5,,145,0,,2
    003116  aa  163 163 170 065         	aci	"ssx5"
    003117  aa  000 000 000 000
    005061  aa   000000 145002          	vfd	18/0,o9/145,1/0,o4/,o4/2

                                 1-792            defop     ssx6,,146,0,,2
    003120  aa  163 163 170 066         	aci	"ssx6"
    003121  aa  000 000 000 000
    005062  aa   000000 146002          	vfd	18/0,o9/146,1/0,o4/,o4/2

                                 1-793            defop     ssx7,,147,0,,2
    003122  aa  163 163 170 067         	aci	"ssx7"
    003123  aa  000 000 000 000
    005063  aa   000000 147002          	vfd	18/0,o9/147,1/0,o4/,o4/2

                                 1-794            defop     sta,,755,0,,2
    003124  aa  163 164 141 000         	aci	"sta"
    003125  aa  000 000 000 000
    005064  aa   000000 755002          	vfd	18/0,o9/755,1/0,o4/,o4/2

                                 1-795            defop     stac,,354,0,,2
    003126  aa  163 164 141 143         	aci	"stac"
    003127  aa  000 000 000 000
    005065  aa   000000 354002          	vfd	18/0,o9/354,1/0,o4/,o4/2

                                 1-796            defop     stacq,,654,0,,2
    003130  aa  163 164 141 143         	aci	"stacq"
    003131  aa  161 000 000 000
    005066  aa   000000 654002          	vfd	18/0,o9/654,1/0,o4/,o4/2

                                 1-797            defop     staq,,757,0,,2
    003132  aa  163 164 141 161         	aci	"staq"
    003133  aa  000 000 000 000
    005067  aa   000000 757002          	vfd	18/0,o9/757,1/0,o4/,o4/2

                                 1-798            defop     statemen,long,74,statement,2
    003134  aa  163 164 141 164         	aci	"statemen"
    003135  aa  145 155 145 156
    005070  aa   000112 000002          	vfd	18/74,o9/0,1/0,o4/0,o4/2

    005401  aa   001413 000000          	zero	op_index
    005402  aa  011 163 164 141         	acc	"statement"
    005403  aa  164 145 155 145
    005404  aa  156 164 000 000
    005405  aa  000 000 000 000
    005406  aa  000 000 000 000

                                 1-799            defop     stba,,551,0,,2
    003136  aa  163 164 142 141         	aci	"stba"
    003137  aa  000 000 000 000
    005071  aa   000000 551002          	vfd	18/0,o9/551,1/0,o4/,o4/2

                                 1-800            defop     stbq,,552,0,,2
    003140  aa  163 164 142 161         	aci	"stbq"
    003141  aa  000 000 000 000
    005072  aa   000000 552002          	vfd	18/0,o9/552,1/0,o4/,o4/2

                                 1-801            defop     stc1,,554,0,,2
    003142  aa  163 164 143 061         	aci	"stc1"
    003143  aa  000 000 000 000
    005073  aa   000000 554002          	vfd	18/0,o9/554,1/0,o4/,o4/2

                                 1-802            defop     stc2,,750,0,,2
    003144  aa  163 164 143 062         	aci	"stc2"
    003145  aa  000 000 000 000
    005074  aa   000000 750002          	vfd	18/0,o9/750,1/0,o4/,o4/2

                                 1-803            defop     stca,,751,0,,2
    003146  aa  163 164 143 141         	aci	"stca"
    003147  aa  000 000 000 000
    005075  aa   000000 751002          	vfd	18/0,o9/751,1/0,o4/,o4/2

                                 1-804            defop     stcd,,357,0,,2
    003150  aa  163 164 143 144         	aci	"stcd"
    003151  aa  000 000 000 000
    005076  aa   000000 357002          	vfd	18/0,o9/357,1/0,o4/,o4/2

                                 1-805            defop     stcq,,752,0,,2
    003152  aa  163 164 143 161         	aci	"stcq"
    003153  aa  000 000 000 000
    005077  aa   000000 752002          	vfd	18/0,o9/752,1/0,o4/,o4/2

                                 1-806            defop     ste,,456,0,,2
    003154  aa  163 164 145 000         	aci	"ste"
    003155  aa  000 000 000 000
    005100  aa   000000 456002          	vfd	18/0,o9/456,1/0,o4/,o4/2

                                 1-807            defop     sti,,754,0,,2
    003156  aa  163 164 151 000         	aci	"sti"
    003157  aa  000 000 000 000
    005101  aa   000000 754002          	vfd	18/0,o9/754,1/0,o4/,o4/2

                                 1-808            defop     sto,,152,1,,0
    003160  aa  163 164 157 000         	aci	"sto"
    003161  aa  000 000 000 000
    005102  aa   000000 152400          	vfd	18/0,o9/152,1/1,o4/,o4/0

                                 1-809            defop     stq,,756,0,,2
    003162  aa  163 164 161 000         	aci	"stq"
    003163  aa  000 000 000 000
    005103  aa   000000 756002          	vfd	18/0,o9/756,1/0,o4/,o4/2

                                 1-810            defop     structur,long,75,structure,2
    003164  aa  163 164 162 165         	aci	"structur"
    003165  aa  143 164 165 162
    005104  aa   000113 000002          	vfd	18/75,o9/0,1/0,o4/0,o4/2

    005407  aa   001427 000000          	zero	op_index
    005410  aa  011 163 164 162         	acc	"structure"
    005411  aa  165 143 164 165
    005412  aa  162 145 000 000
    005413  aa  000 000 000 000
    005414  aa  000 000 000 000

                                 1-811            defop     stt,,454,0,,2
    003166  aa  163 164 164 000         	aci	"stt"
    003167  aa  000 000 000 000
    005105  aa   000000 454002          	vfd	18/0,o9/454,1/0,o4/,o4/2

                                 1-812            defop     stta,,553,1,,0
    003170  aa  163 164 164 141         	aci	"stta"
    003171  aa  000 000 000 000
    005106  aa   000000 553400          	vfd	18/0,o9/553,1/1,o4/,o4/0

                                 1-813            defop     stx,xr,2
    003172  aa  163 164 170 000         	aci	"stx"
    003173  aa  000 000 000 000
    005107  aa   000053 000002          	vfd	18/43,o9/0,1/0,o4/0,o4/2

                                 1-814            defop     stx0,,740,0,,2
    003174  aa  163 164 170 060         	aci	"stx0"
    003175  aa  000 000 000 000
    005110  aa   000000 740002          	vfd	18/0,o9/740,1/0,o4/,o4/2

                                 1-815            defop     stx1,,741,0,,2
    003176  aa  163 164 170 061         	aci	"stx1"
    003177  aa  000 000 000 000
    005111  aa   000000 741002          	vfd	18/0,o9/741,1/0,o4/,o4/2

                                 1-816            defop     stx2,,742,0,,2
    003200  aa  163 164 170 062         	aci	"stx2"
    003201  aa  000 000 000 000
    005112  aa   000000 742002          	vfd	18/0,o9/742,1/0,o4/,o4/2

                                 1-817            defop     stx3,,743,0,,2
    003202  aa  163 164 170 063         	aci	"stx3"
    003203  aa  000 000 000 000
    005113  aa   000000 743002          	vfd	18/0,o9/743,1/0,o4/,o4/2

                                 1-818            defop     stx4,,744,0,,2
    003204  aa  163 164 170 064         	aci	"stx4"
    003205  aa  000 000 000 000
    005114  aa   000000 744002          	vfd	18/0,o9/744,1/0,o4/,o4/2

                                 1-819            defop     stx5,,745,0,,2
    003206  aa  163 164 170 065         	aci	"stx5"
    003207  aa  000 000 000 000
    005115  aa   000000 745002          	vfd	18/0,o9/745,1/0,o4/,o4/2

                                 1-820            defop     stx6,,746,0,,2
    003210  aa  163 164 170 066         	aci	"stx6"
    003211  aa  000 000 000 000
    005116  aa   000000 746002          	vfd	18/0,o9/746,1/0,o4/,o4/2

                                 1-821            defop     stx7,,747,0,,2
    003212  aa  163 164 170 067         	aci	"stx7"
    003213  aa  000 000 000 000
    005117  aa   000000 747002          	vfd	18/0,o9/747,1/0,o4/,o4/2

                                 1-822            defop     stz,,450,0,,2
    003214  aa  163 164 172 000         	aci	"stz"
    003215  aa  000 000 000 000
    005120  aa   000000 450002          	vfd	18/0,o9/450,1/0,o4/,o4/2

                                 1-823            defop     swca,,171,0,,2
    003216  aa  163 167 143 141         	aci	"swca"
    003217  aa  000 000 000 000
    005121  aa   000000 171002          	vfd	18/0,o9/171,1/0,o4/,o4/2

                                 1-824            defop     swcq,,172,0,,2
    003220  aa  163 167 143 161         	aci	"swcq"
    003221  aa  000 000 000 000
    005122  aa   000000 172002          	vfd	18/0,o9/172,1/0,o4/,o4/2

                                 1-825            defop     swd,ar,527,0,2
    003222  aa  163 167 144 000         	aci	"swd"
    003223  aa  000 000 000 000
    005123  aa   000065 527402          	vfd	18/53,o9/527,1/1,o4/0,o4/2

                                 1-826            defop     swdx,ar,527,2
    003224  aa  163 167 144 170         	aci	"swdx"
    003225  aa  000 000 000 000
    005124  aa   000065 527440          	vfd	18/53,o9/527,1/1,o4/2,o4/

                                 1-827            defop     sxl,xr,2
    003226  aa  163 170 154 000         	aci	"sxl"
    003227  aa  000 000 000 000
    005125  aa   000053 000002          	vfd	18/43,o9/0,1/0,o4/0,o4/2

                                 1-828            defop     sxl0,,440,0,,2
    003230  aa  163 170 154 060         	aci	"sxl0"
    003231  aa  000 000 000 000
    005126  aa   000000 440002          	vfd	18/0,o9/440,1/0,o4/,o4/2

                                 1-829            defop     sxl1,,441,0,,2
    003232  aa  163 170 154 061         	aci	"sxl1"
    003233  aa  000 000 000 000
    005127  aa   000000 441002          	vfd	18/0,o9/441,1/0,o4/,o4/2

                                 1-830            defop     sxl2,,442,0,,2
    003234  aa  163 170 154 062         	aci	"sxl2"
    003235  aa  000 000 000 000
    005130  aa   000000 442002          	vfd	18/0,o9/442,1/0,o4/,o4/2

                                 1-831            defop     sxl3,,443,0,,2
    003236  aa  163 170 154 063         	aci	"sxl3"
    003237  aa  000 000 000 000
    005131  aa   000000 443002          	vfd	18/0,o9/443,1/0,o4/,o4/2

                                 1-832            defop     sxl4,,444,0,,2
    003240  aa  163 170 154 064         	aci	"sxl4"
    003241  aa  000 000 000 000
    005132  aa   000000 444002          	vfd	18/0,o9/444,1/0,o4/,o4/2

                                 1-833            defop     sxl5,,445,0,,2
    003242  aa  163 170 154 065         	aci	"sxl5"
    003243  aa  000 000 000 000
    005133  aa   000000 445002          	vfd	18/0,o9/445,1/0,o4/,o4/2

                                 1-834            defop     sxl6,,446,0,,2
    003244  aa  163 170 154 066         	aci	"sxl6"
    003245  aa  000 000 000 000
    005134  aa   000000 446002          	vfd	18/0,o9/446,1/0,o4/,o4/2

                                 1-835            defop     sxl7,,447,0,,2
    003246  aa  163 170 154 067         	aci	"sxl7"
    003247  aa  000 000 000 000
    005135  aa   000000 447002          	vfd	18/0,o9/447,1/0,o4/,o4/2

                                 1-836            defop     symbol,pseud,77,2
    003250  aa  163 171 155 142         	aci	"symbol"
    003251  aa  157 154 000 000
    005136  aa   000115 000002          	vfd	18/77,o9/0,1/0,o4/0,o4/2

                                 1-837            defop     sync,,014,0,,0
    003252  aa  163 171 156 143         	aci	"sync"
    003253  aa  000 000 000 000
    005137  aa   000000 014000          	vfd	18/0,o9/014,1/0,o4/,o4/0

                                 1-838            defop     szn,,234,0,,2
    003254  aa  163 172 156 000         	aci	"szn"
    003255  aa  000 000 000 000
    005140  aa   000000 234002          	vfd	18/0,o9/234,1/0,o4/,o4/2

                                 1-839            defop     sznc,,214,0,,2
    003256  aa  163 172 156 143         	aci	"sznc"
    003257  aa  000 000 000 000
    005141  aa   000000 214002          	vfd	18/0,o9/214,1/0,o4/,o4/2

                                 1-840            defop     sztl,eis,064,1,2
    003260  aa  163 172 164 154         	aci	"sztl"
    003261  aa  000 000 000 000
    005142  aa   000066 064422          	vfd	18/54,o9/064,1/1,o4/1,o4/2

                                 1-841            defop     sztr,eis,065,1,2
    003262  aa  163 172 164 162         	aci	"sztr"
    003263  aa  000 000 000 000
    005143  aa   000066 065422          	vfd	18/54,o9/065,1/1,o4/1,o4/2

                                 1-842            defop     tct,eis,164,0,2
    003264  aa  164 143 164 000         	aci	"tct"
    003265  aa  000 000 000 000
    005144  aa   000066 164402          	vfd	18/54,o9/164,1/1,o4/0,o4/2

                                 1-843            defop     tctr,eis,165,0,2
    003266  aa  164 143 164 162         	aci	"tctr"
    003267  aa  000 000 000 000
    005145  aa   000066 165402          	vfd	18/54,o9/165,1/1,o4/0,o4/2

                                 1-844            defop     temp,pseud,23,2
    003270  aa  164 145 155 160         	aci	"temp"
    003271  aa  000 000 000 000
    005146  aa   000027 000002          	vfd	18/23,o9/0,1/0,o4/0,o4/2

                                 1-845            defop     temp8,pseud,25,2
    003272  aa  164 145 155 160         	aci	"temp8"
    003273  aa  070 000 000 000
    005147  aa   000031 000002          	vfd	18/25,o9/0,1/0,o4/0,o4/2

                                 1-846            defop     tempd,pseud,24,2
    003274  aa  164 145 155 160         	aci	"tempd"
    003275  aa  144 000 000 000
    005150  aa   000030 000002          	vfd	18/24,o9/0,1/0,o4/0,o4/2

                                 1-847            defop     teo,,614,0,,2
    003276  aa  164 145 157 000         	aci	"teo"
    003277  aa  000 000 000 000
    005151  aa   000000 614002          	vfd	18/0,o9/614,1/0,o4/,o4/2

                                 1-848            defop     teu,,615,0,,2
    003300  aa  164 145 165 000         	aci	"teu"
    003301  aa  000 000 000 000
    005152  aa   000000 615002          	vfd	18/0,o9/615,1/0,o4/,o4/2

                                 1-849            defop     tmi,,604,0,,2
    003302  aa  164 155 151 000         	aci	"tmi"
    003303  aa  000 000 000 000
    005153  aa   000000 604002          	vfd	18/0,o9/604,1/0,o4/,o4/2

                                 1-850            defop     tmoz,,604,1,,2
    003304  aa  164 155 157 172         	aci	"tmoz"
    003305  aa  000 000 000 000
    005154  aa   000000 604402          	vfd	18/0,o9/604,1/1,o4/,o4/2

                                 1-851            defop     tnc,,602,0,,2
    003306  aa  164 156 143 000         	aci	"tnc"
    003307  aa  000 000 000 000
    005155  aa   000000 602002          	vfd	18/0,o9/602,1/0,o4/,o4/2

                                 1-852            defop     tnz,,601,0,,2
    003310  aa  164 156 172 000         	aci	"tnz"
    003311  aa  000 000 000 000
    005156  aa   000000 601002          	vfd	18/0,o9/601,1/0,o4/,o4/2

                                 1-853            defop     tov,,617,0,,2
    003312  aa  164 157 166 000         	aci	"tov"
    003313  aa  000 000 000 000
    005157  aa   000000 617002          	vfd	18/0,o9/617,1/0,o4/,o4/2

                                 1-854            defop     tpl,,605,0,,2
    003314  aa  164 160 154 000         	aci	"tpl"
    003315  aa  000 000 000 000
    005160  aa   000000 605002          	vfd	18/0,o9/605,1/0,o4/,o4/2

                                 1-855            defop     tpnz,,605,1,,2
    003316  aa  164 160 156 172         	aci	"tpnz"
    003317  aa  000 000 000 000
    005161  aa   000000 605402          	vfd	18/0,o9/605,1/1,o4/,o4/2

                                 1-856            defop     tra,,710,0,,2
    003320  aa  164 162 141 000         	aci	"tra"
    003321  aa  000 000 000 000
    005162  aa   000000 710002          	vfd	18/0,o9/710,1/0,o4/,o4/2

                                 1-857            defop     trc,,603,0,,2
    003322  aa  164 162 143 000         	aci	"trc"
    003323  aa  000 000 000 000
    005163  aa   000000 603002          	vfd	18/0,o9/603,1/0,o4/,o4/2

                                 1-858            defop     trtf,,601,1,,2
    003324  aa  164 162 164 146         	aci	"trtf"
    003325  aa  000 000 000 000
    005164  aa   000000 601402          	vfd	18/0,o9/601,1/1,o4/,o4/2

                                 1-859            defop     trtn,,600,1,,2
    003326  aa  164 162 164 156         	aci	"trtn"
    003327  aa  000 000 000 000
    005165  aa   000000 600402          	vfd	18/0,o9/600,1/1,o4/,o4/2

                                 1-860            defop     tsp,pr,2
    003330  aa  164 163 160 000         	aci	"tsp"
    003331  aa  000 000 000 000
    005166  aa   000054 000002          	vfd	18/44,o9/0,1/0,o4/0,o4/2

                                 1-861            defop     tsp0,,270,0,,2
    003332  aa  164 163 160 060         	aci	"tsp0"
    003333  aa  000 000 000 000
    005167  aa   000000 270002          	vfd	18/0,o9/270,1/0,o4/,o4/2

                                 1-862            defop     tsp1,,271,0,,2
    003334  aa  164 163 160 061         	aci	"tsp1"
    003335  aa  000 000 000 000
    005170  aa   000000 271002          	vfd	18/0,o9/271,1/0,o4/,o4/2

                                 1-863            defop     tsp2,,272,0,,2
    003336  aa  164 163 160 062         	aci	"tsp2"
    003337  aa  000 000 000 000
    005171  aa   000000 272002          	vfd	18/0,o9/272,1/0,o4/,o4/2

                                 1-864            defop     tsp3,,273,0,,2
    003340  aa  164 163 160 063         	aci	"tsp3"
    003341  aa  000 000 000 000
    005172  aa   000000 273002          	vfd	18/0,o9/273,1/0,o4/,o4/2

                                 1-865            defop     tsp4,,670,0,,2
    003342  aa  164 163 160 064         	aci	"tsp4"
    003343  aa  000 000 000 000
    005173  aa   000000 670002          	vfd	18/0,o9/670,1/0,o4/,o4/2

                                 1-866            defop     tsp5,,671,0,,2
    003344  aa  164 163 160 065         	aci	"tsp5"
    003345  aa  000 000 000 000
    005174  aa   000000 671002          	vfd	18/0,o9/671,1/0,o4/,o4/2

                                 1-867            defop     tsp6,,672,0,,2
    003346  aa  164 163 160 066         	aci	"tsp6"
    003347  aa  000 000 000 000
    005175  aa   000000 672002          	vfd	18/0,o9/672,1/0,o4/,o4/2

                                 1-868            defop     tsp7,,673,0,,2
    003350  aa  164 163 160 067         	aci	"tsp7"
    003351  aa  000 000 000 000
    005176  aa   000000 673002          	vfd	18/0,o9/673,1/0,o4/,o4/2

                                 1-869            defop     tspab,,271,0,,2
    003352  aa  164 163 160 141         	aci	"tspab"
    003353  aa  142 000 000 000
    005177  aa   000000 271002          	vfd	18/0,o9/271,1/0,o4/,o4/2

                                 1-870            defop     tspap,,270,0,,2
    003354  aa  164 163 160 141         	aci	"tspap"
    003355  aa  160 000 000 000
    005200  aa   000000 270002          	vfd	18/0,o9/270,1/0,o4/,o4/2

                                 1-871            defop     tspbb,,273,0,,2
    003356  aa  164 163 160 142         	aci	"tspbb"
    003357  aa  142 000 000 000
    005201  aa   000000 273002          	vfd	18/0,o9/273,1/0,o4/,o4/2

                                 1-872            defop     tspbp,,272,0,,2
    003360  aa  164 163 160 142         	aci	"tspbp"
    003361  aa  160 000 000 000
    005202  aa   000000 272002          	vfd	18/0,o9/272,1/0,o4/,o4/2

                                 1-873            defop     tsplb,,671,0,,2
    003362  aa  164 163 160 154         	aci	"tsplb"
    003363  aa  142 000 000 000
    005203  aa   000000 671002          	vfd	18/0,o9/671,1/0,o4/,o4/2

                                 1-874            defop     tsplp,,670,0,,2
    003364  aa  164 163 160 154         	aci	"tsplp"
    003365  aa  160 000 000 000
    005204  aa   000000 670002          	vfd	18/0,o9/670,1/0,o4/,o4/2

                                 1-875            defop     tspsb,,673,0,,2
    003366  aa  164 163 160 163         	aci	"tspsb"
    003367  aa  142 000 000 000
    005205  aa   000000 673002          	vfd	18/0,o9/673,1/0,o4/,o4/2

                                 1-876            defop     tspsp,,672,0,,2
    003370  aa  164 163 160 163         	aci	"tspsp"
    003371  aa  160 000 000 000
    005206  aa   000000 672002          	vfd	18/0,o9/672,1/0,o4/,o4/2

                                 1-877            defop     tss,,715,0,,2
    003372  aa  164 163 163 000         	aci	"tss"
    003373  aa  000 000 000 000
    005207  aa   000000 715002          	vfd	18/0,o9/715,1/0,o4/,o4/2

                                 1-878            defop     tsx,xr,2
    003374  aa  164 163 170 000         	aci	"tsx"
    003375  aa  000 000 000 000
    005210  aa   000053 000002          	vfd	18/43,o9/0,1/0,o4/0,o4/2

                                 1-879            defop     tsx0,,700,0,,2
    003376  aa  164 163 170 060         	aci	"tsx0"
    003377  aa  000 000 000 000
    005211  aa   000000 700002          	vfd	18/0,o9/700,1/0,o4/,o4/2

                                 1-880            defop     tsx1,,701,0,,2
    003400  aa  164 163 170 061         	aci	"tsx1"
    003401  aa  000 000 000 000
    005212  aa   000000 701002          	vfd	18/0,o9/701,1/0,o4/,o4/2

                                 1-881            defop     tsx2,,702,0,,2
    003402  aa  164 163 170 062         	aci	"tsx2"
    003403  aa  000 000 000 000
    005213  aa   000000 702002          	vfd	18/0,o9/702,1/0,o4/,o4/2

                                 1-882            defop     tsx3,,703,0,,2
    003404  aa  164 163 170 063         	aci	"tsx3"
    003405  aa  000 000 000 000
    005214  aa   000000 703002          	vfd	18/0,o9/703,1/0,o4/,o4/2

                                 1-883            defop     tsx4,,704,0,,2
    003406  aa  164 163 170 064         	aci	"tsx4"
    003407  aa  000 000 000 000
    005215  aa   000000 704002          	vfd	18/0,o9/704,1/0,o4/,o4/2

                                 1-884            defop     tsx5,,705,0,,2
    003410  aa  164 163 170 065         	aci	"tsx5"
    003411  aa  000 000 000 000
    005216  aa   000000 705002          	vfd	18/0,o9/705,1/0,o4/,o4/2

                                 1-885            defop     tsx6,,706,0,,2
    003412  aa  164 163 170 066         	aci	"tsx6"
    003413  aa  000 000 000 000
    005217  aa   000000 706002          	vfd	18/0,o9/706,1/0,o4/,o4/2

                                 1-886            defop     tsx7,,707,0,,2
    003414  aa  164 163 170 067         	aci	"tsx7"
    003415  aa  000 000 000 000
    005220  aa   000000 707002          	vfd	18/0,o9/707,1/0,o4/,o4/2

                                 1-887            defop     ttes,,521,0,,0
    003416  aa  164 164 145 163         	aci	"ttes"
    003417  aa  000 000 000 000
    005221  aa   000000 521000          	vfd	18/0,o9/521,1/0,o4/,o4/0

                                 1-888            defop     ttez,,524,0,,0
    003420  aa  164 164 145 172         	aci	"ttez"
    003421  aa  000 000 000 000
    005222  aa   000000 524000          	vfd	18/0,o9/524,1/0,o4/,o4/0

                                 1-889            defop     ttf,,607,0,,2
    003422  aa  164 164 146 000         	aci	"ttf"
    003423  aa  000 000 000 000
    005223  aa   000000 607002          	vfd	18/0,o9/607,1/0,o4/,o4/2

                                 1-890            defop     ttn,,606,1,,2
    003424  aa  164 164 156 000         	aci	"ttn"
    003425  aa  000 000 000 000
    005224  aa   000000 606402          	vfd	18/0,o9/606,1/1,o4/,o4/2

                                 1-891            defop     tttl,,522,0,,0
    003426  aa  164 164 164 154         	aci	"tttl"
    003427  aa  000 000 000 000
    005225  aa   000000 522000          	vfd	18/0,o9/522,1/0,o4/,o4/0

                                 1-892            defop     tttu,,523,0,,0
    003430  aa  164 164 164 165         	aci	"tttu"
    003431  aa  000 000 000 000
    005226  aa   000000 523000          	vfd	18/0,o9/523,1/0,o4/,o4/0

                                 1-893            defop     tze,,600,0,,2
    003432  aa  164 172 145 000         	aci	"tze"
    003433  aa  000 000 000 000
    005227  aa   000000 600002          	vfd	18/0,o9/600,1/0,o4/,o4/2

                                 1-894            defop     ufa,,435,0,,2
    003434  aa  165 146 141 000         	aci	"ufa"
    003435  aa  000 000 000 000
    005230  aa   000000 435002          	vfd	18/0,o9/435,1/0,o4/,o4/2

                                 1-895            defop     ufm,,421,0,,2
    003436  aa  165 146 155 000         	aci	"ufm"
    003437  aa  000 000 000 000
    005231  aa   000000 421002          	vfd	18/0,o9/421,1/0,o4/,o4/2

                                 1-896            defop     ufs,,535,0,,2
    003440  aa  165 146 163 000         	aci	"ufs"
    003441  aa  000 000 000 000
    005232  aa   000000 535002          	vfd	18/0,o9/535,1/0,o4/,o4/2

                                 1-897            defop     union,pseud,78,2
    003442  aa  165 156 151 157         	aci	"union"
    003443  aa  156 000 000 000
    005233  aa   000116 000002          	vfd	18/78,o9/0,1/0,o4/0,o4/2

                                 1-898            defop     use,pseud,2,2
    003444  aa  165 163 145 000         	aci	"use"
    003445  aa  000 000 000 000
    005234  aa   000002 000002          	vfd	18/2,o9/0,1/0,o4/0,o4/2

                                 1-899            defop     vfd,pseud,30,2
    003446  aa  166 146 144 000         	aci	"vfd"
    003447  aa  000 000 000 000
    005235  aa   000036 000002          	vfd	18/30,o9/0,1/0,o4/0,o4/2

                                 1-900            defop     xec,,716,0,,2
    003450  aa  170 145 143 000         	aci	"xec"
    003451  aa  000 000 000 000
    005236  aa   000000 716002          	vfd	18/0,o9/716,1/0,o4/,o4/2

                                 1-901            defop     xed,,717,0,,2
    003452  aa  170 145 144 000         	aci	"xed"
    003453  aa  000 000 000 000
    005237  aa   000000 717002          	vfd	18/0,o9/717,1/0,o4/,o4/2

                                 1-902            defop     zero,pseud,34,2
    003454  aa  172 145 162 157         	aci	"zero"
    003455  aa  000 000 000 000
    005240  aa   000042 000002          	vfd	18/34,o9/0,1/0,o4/0,o4/2

                                 1-903  " End of include file defops.incl.alm
                                   266
                                   267
                                   268
                                   269
                                   270
                                   271  	use	op_mnemonic
                        001564     272  	equ	num_ops,(*-optbl)/2
                                   273
                                   274
                                   275  	use	static
                                   276  	join	/link/static
                                   277
    000010                         278  undefined_op_list:
    000010                         279  	bss	,(num_ops+35)/36	bit table of redefined ops
                                   280
                                   281
                                   282  	end
ENTRY SEQUENCES

    005415  5a   000032 0000 00
    005416  aa  7 00046 2721 20
    005417  0a   000000 7100 00
    005420  5a   000025 0000 00
    005421  aa  7 00046 2721 20
    005422  0a   000072 7100 00
    005423  5a   000017 0000 00
    005424  aa  7 00046 2721 20
    005425  0a   000077 7100 00

NO LITERALS

NAME DEFINITIONS FOR ENTRY POINTS AND SEGDEFS

    005426  5a   000003 000000
    005427  5a   000046 600000
    005430  aa   000000 000000
    005431  55   000010 000002
    005432  5a   000002 400003
    005433  55   000006 000010
    005434  aa  007 157 160 154
    005435  aa  157 157 153 137
    005436  55   000017 000003
    005437  0a   000105 400000
    005440  55   000013 000003
    005441  aa  014 157 160 143         opcode_table
    005442  aa  157 144 145 137
    005443  aa  164 141 142 154
    005444  aa  145 000 000 000
    005445  55   000025 000010
    005446  0a   005424 500000
    005447  55   000022 000003
    005450  aa  010 162 145 144         redefine
    005451  aa  145 146 151 156
    005452  aa  145 000 000 000
    005453  55   000032 000017
    005454  0a   005421 500000
    005455  55   000030 000003
    005456  aa  005 162 145 163         reset
    005457  aa  145 164 000 000
    005460  55   000037 000025
    005461  0a   005416 500000
    005462  55   000035 000003
    005463  aa  007 157 160 154         oplook_
    005464  aa  157 157 153 137
    005465  55   000002 000032
    005466  6a   000000 400002
    005467  55   000042 000003
    005470  aa  014 163 171 155         symbol_table
    005471  aa  142 157 154 137
    005472  aa  164 141 142 154
    005473  aa  145 000 000 000

DEFINITIONS HASH TABLE

    005474  aa   000000 000015
    005475  5a   000025 000000
    005476  aa   000000 000000
    005477  5a   000032 000000
    005500  aa   000000 000000
    005501  aa   000000 000000
    005502  aa   000000 000000
    005503  5a   000037 000000
    005504  5a   000010 000000
    005505  aa   000000 000000
    005506  5a   000017 000000
    005507  aa   000000 000000
    005510  aa   000000 000000
    005511  aa   000000 000000

EXTERNAL NAMES

    005512  aa  006 166 141 162         varcom
    005513  aa  143 157 155 000
    005514  aa  010 145 142 137         eb_data_
    005515  aa  144 141 164 141
    005516  aa  137 000 000 000

NO TRAP POINTER WORDS

TYPE PAIR BLOCKS

    005517  aa   000004 000000
    005520  55   000066 000064
    005521  aa   000001 000000
    005522  aa   000000 000000

INTERNAL EXPRESSION WORDS

    005523  5a   000071 000004
LINKAGE INFORMATION

    000000  aa   000000 000000
    000001  0a   005426 000000
    000002  aa   000000 000000
    000003  aa   000000 000000
    000004  aa   000000 000000
    000005  aa   000000 000000
    000006  22   000042 000044
    000007  a2   000000 000032
    000042  9a   777736 0000 46         eb_data_|varcom
    000043  5a   000075 0000 00
SYMBOL INFORMATION

SYMBOL TABLE HEADER

    000000  aa   000000 000001
    000001  aa   163171 155142
    000002  aa   164162 145145
    000003  aa   000000 000010
    000004  aa   000000 117244
    000005  aa   361023 525721
    000006  aa   000000 131036
    000007  aa   705170 540263
    000010  aa   141154 155040
    000011  aa   040040 040040
    000012  aa   000024 000040
    000013  aa   000034 000040
    000014  aa   000044 000100
    000015  aa   000002 000002
    000016  aa   000064 000000
    000017  aa   000000 000405
    000020  aa   000000 000114
    000021  aa   000364 000357
    000022  aa   000376 000114
    000023  aa   000064 000000
    000024  aa   101114 115040
    000025  aa   126145 162163
    000026  aa   151157 156040
    000027  aa   070056 061064
    000030  aa   040115 141162
    000031  aa   143150 040061
    000032  aa   071070 071040
    000033  aa   040040 040040
    000034  aa   123143 150162
    000035  aa   157164 150056
    000036  aa   123171 163115
    000037  aa   141151 156164
    000040  aa   056155 040040
    000041  aa   040040 040040
    000042  aa   040040 040040
    000043  aa   040040 040040
    000044  aa   154151 163164
    000045  aa   040163 171155
    000046  aa   142157 154163
    000047  aa   040040 040040
    000050  aa   040040 040040
    000051  aa   040040 040040
    000052  aa   040040 040040
    000053  aa   040040 040040
    000054  aa   040040 040040
    000055  aa   040040 040040
    000056  aa   040040 040040
    000057  aa   040040 040040
    000060  aa   040040 040040
    000061  aa   040040 040040
    000062  aa   040040 040040
    000063  aa   040040 040040
    000064  aa   000000 000001
    000065  aa   000000 000002
    000066  aa   000076 000033
    000067  aa   310157 126203
    000070  aa   000000 131036
    000071  aa   705171 000000
    000072  aa   000105 000031
    000073  aa   305736 046510
    000074  aa   000000 116575
    000075  aa   013675 200000
    000076  aa   076165 144144          >udd>sm>ds>w>ml>oplook_.alm
    000077  aa   076163 155076
    000100  aa   144163 076167
    000101  aa   076155 154076
    000102  aa   157160 154157
    000103  aa   157153 137056
    000104  aa   141154 155040
    000105  aa   076154 144144          >ldd>incl>defops.incl.alm
    000106  aa   076151 156143
    000107  aa   154076 144145
    000110  aa   146157 160163
    000111  aa   056151 156143
    000112  aa   154056 141154
    000113  aa   155040 040040
               MULTICS ASSEMBLY CROSS REFERENCE LISTING

   Value        Symbol                   Source file   Line number

          30    backup                   oplook_:       72,   76.
          12    cycles                   oplook_:       68,  114.
                eb_data_                 oplook_:       59.
           0    executable               oplook_:       39.
          11    exit                     oplook_:       52,   56,  127.
          46    long_loop                oplook_:       89,   98.
        5241    long_ops                 oplook_:      152,
                                         defops:        98,  244,  330,  331,  332,  333,  334,  336,  400,  406,  422,  597,
                                                       623,  718,  719,  720,  798,  810.
        5241    long_op_table            oplook_:       90,  153.
          14    lookop                   oplook_:       46,   59,  126.
          45    look_long                oplook_:       63,   87.
          31    loop                     oplook_:       71,   73.
        1564    num_ops                  oplook_:       70,  118,  141,  272,  279.
          22    n_long_ops               oplook_:       88,  154,
                                         defops:        98,  244,  330,  331,  332,  333,  334,  336,  400,  406,  422,  597,
                                                       623,  718,  719,  720,  798,  810.
         105    opcode_table             oplook_:      138,  139,  142.
          40    opfnd                    oplook_:       81,   95.
           0    oplook_                  oplook_:       33,   41.
          12    opnfnd                   oplook_:       47,   54.
     1000106    optbl                    oplook_:       75,  142,  147,  272.
        1427    op_index                 defops:        98,  244,  330,  331,  332,  333,  334,  336,  400,  406,  422,  597,
                                                       623,  718,  719,  720,  798,  810.
         110    op_mnemonic              oplook_:      145,  271,
                                         defops:        20,   21,   22,   23,   24,   25,   26,   27,   28,   29,   30,   31,
                                                        32,   33,   34,   35,   36,   37,   38,   39,   40,   41,   42,   43,
                                                        44,   45,   46,   47,   48,   49,   50,   51,   52,   53,   54,   55,
                                                        56,   57,   58,   59,   60,   61,   62,   63,   64,   65,   66,   67,
                                                        68,   69,   70,   71,   72,   73,   74,   75,   76,   77,   78,   79,
                                                        80,   81,   82,   83,   84,   85,   86,   87,   88,   89,   90,   91,
                                                        92,   93,   94,   95,   96,   97,   98,   99,  100,  101,  102,  103,
                                                       104,  105,  106,  107,  108,  109,  110,  111,  112,  113,  114,  115,
                                                       116,  117,  118,  119,  120,  121,  122,  123,  124,  125,  126,  127,
                                                       128,  129,  130,  131,  132,  133,  134,  135,  136,  137,  138,  139,
                                                       140,  141,  142,  143,  144,  145,  146,  147,  148,  149,  150,  151,
                                                       152,  153,  154,  155,  156,  157,  158,  159,  160,  161,  162,  163,
                                                       164,  165,  166,  167,  168,  169,  170,  171,  172,  173,  174,  175,
                                                       176,  177,  178,  179,  180,  181,  182,  183,  184,  185,  186,  187,
                                                       188,  189,  190,  191,  192,  193,  194,  195,  196,  197,  198,  199,
                                                       200,  201,  202,  203,  204,  205,  206,  207,  208,  209,  210,  211,
                                                       212,  213,  214,  215,  216,  217,  218,  219,  220,  221,  222,  223,
                                                       224,  225,  226,  227,  228,  229,  230,  231,  232,  233,  234,  235,
                                                       236,  237,  238,  239,  240,  241,  242,  243,  244,  245,  246,  247,
                                                       248,  249,  250,  251,  252,  253,  254,  255,  256,  257,  258,  259,
                                                       260,  261,  262,  263,  264,  265,  266,  267,  268,  269,  270,  271,
                                                       272,  273,  274,  275,  276,  277,  278,  279,  280,  281,  282,  283,
                                                       284,  285,  286,  287,  288,  289,  290,  291,  292,  293,  294,  295,
                                                       296,  297,  298,  299,  300,  301,  302,  303,  304,  305,  306,  307,
                                                       308,  309,  310,  311,  312,  313,  314,  315,  316,  317,  318,  319,
                                                       320,  321,  322,  323,  324,  325,  326,  327,  328,  329,  330,  331,
                                                       332,  333,  334,  335,  336,  337,  338,  339,  340,  341,  342,  343,
                                                       344,  345,  346,  347,  348,  349,  350,  351,  352,  353,  354,  355,
                                                       356,  357,  358,  359,  360,  361,  362,  363,  364,  365,  366,  367,
                                                       368,  369,  370,  371,  372,  373,  374,  375,  376,  377,  378,  379,
                                                       380,  381,  382,  383,  384,  385,  386,  387,  388,  389,  390,  391,
                                                       392,  393,  394,  395,  396,  397,  398,  399,  400,  401,  402,  403,
                                                       404,  405,  406,  407,  408,  409,  410,  411,  412,  413,  414,  415,
                                                       416,  417,  418,  419,  420,  421,  422,  423,  424,  425,  426,  427,
                                                       428,  429,  430,  431,  432,  433,  434,  435,  436,  437,  438,  439,
                                                       440,  441,  442,  443,  444,  445,  446,  447,  448,  449,  450,  451,
                                                       452,  453,  454,  455,  456,  457,  458,  459,  460,  461,  462,  463,
                                                       464,  465,  466,  467,  468,  469,  470,  471,  472,  473,  474,  475,
                                                       476,  477,  478,  479,  480,  481,  482,  483,  484,  485,  486,  487,
                                                       488,  489,  490,  491,  492,  493,  494,  495,  496,  497,  498,  499,
                                                       500,  501,  502,  503,  504,  505,  506,  507,  508,  509,  510,  511,
                                                       512,  513,  514,  515,  516,  517,  518,  519,  520,  521,  522,  523,
                                                       524,  525,  526,  527,  528,  529,  530,  531,  532,  533,  534,  535,
                                                       536,  537,  538,  539,  540,  541,  542,  543,  544,  545,  546,  547,
                                                       548,  549,  550,  551,  552,  553,  554,  555,  556,  557,  558,  559,
                                                       560,  561,  562,  563,  564,  565,  566,  567,  568,  569,  570,  571,
                                                       572,  573,  574,  575,  576,  577,  578,  579,  580,  581,  582,  583,
                                                       584,  585,  586,  587,  588,  589,  590,  591,  592,  593,  594,  595,
                                                       596,  597,  598,  599,  600,  601,  602,  603,  604,  605,  606,  607,
                                                       608,  609,  610,  611,  612,  613,  614,  615,  616,  617,  618,  619,
                                                       620,  621,  622,  623,  624,  625,  626,  627,  628,  629,  630,  631,
                                                       632,  633,  634,  635,  636,  637,  638,  639,  640,  641,  642,  643,
                                                       644,  645,  646,  647,  648,  649,  650,  651,  652,  653,  654,  655,
                                                       656,  657,  658,  659,  660,  661,  662,  663,  664,  665,  666,  667,
                                                       668,  669,  670,  671,  672,  673,  674,  675,  676,  677,  678,  679,
                                                       680,  681,  682,  683,  684,  685,  686,  687,  688,  689,  690,  691,
                                                       692,  693,  694,  695,  696,  697,  698,  699,  700,  701,  702,  703,
                                                       704,  705,  706,  707,  708,  709,  710,  711,  712,  713,  714,  715,
                                                       716,  717,  718,  719,  720,  721,  722,  723,  724,  725,  726,  727,
                                                       728,  729,  730,  731,  732,  733,  734,  735,  736,  737,  738,  739,
                                                       740,  741,  742,  743,  744,  745,  746,  747,  748,  749,  750,  751,
                                                       752,  753,  754,  755,  756,  757,  758,  759,  760,  761,  762,  763,
                                                       764,  765,  766,  767,  768,  769,  770,  771,  772,  773,  774,  775,
                                                       776,  777,  778,  779,  780,  781,  782,  783,  784,  785,  786,  787,
                                                       788,  789,  790,  791,  792,  793,  794,  795,  796,  797,  798,  799,
                                                       800,  801,  802,  803,  804,  805,  806,  807,  808,  809,  810,  811,
                                                       812,  813,  814,  815,  816,  817,  818,  819,  820,  821,  822,  823,
                                                       824,  825,  826,  827,  828,  829,  830,  831,  832,  833,  834,  835,
                                                       836,  837,  838,  839,  840,  841,  842,  843,  844,  845,  846,  847,
                                                       848,  849,  850,  851,  852,  853,  854,  855,  856,  857,  858,  859,
                                                       860,  861,  862,  863,  864,  865,  866,  867,  868,  869,  870,  871,
                                                       872,  873,  874,  875,  876,  877,  878,  879,  880,  881,  882,  883,
                                                       884,  885,  886,  887,  888,  889,  890,  891,  892,  893,  894,  895,
                                                       896,  897,  898,  899,  900,  901,  902.
        3456    op_value                 oplook_:      149,
                                         defops:        20,   21,   22,   23,   24,   25,   26,   27,   28,   29,   30,   31,
                                                        32,   33,   34,   35,   36,   37,   38,   39,   40,   41,   42,   43,
                                                        44,   45,   46,   47,   48,   49,   50,   51,   52,   53,   54,   55,
                                                        56,   57,   58,   59,   60,   61,   62,   63,   64,   65,   66,   67,
                                                        68,   69,   70,   71,   72,   73,   74,   75,   76,   77,   78,   79,
                                                        80,   81,   82,   83,   84,   85,   86,   87,   88,   89,   90,   91,
                                                        92,   93,   94,   95,   96,   97,   98,   99,  100,  101,  102,  103,
                                                       104,  105,  106,  107,  108,  109,  110,  111,  112,  113,  114,  115,
                                                       116,  117,  118,  119,  120,  121,  122,  123,  124,  125,  126,  127,
                                                       128,  129,  130,  131,  132,  133,  134,  135,  136,  137,  138,  139,
                                                       140,  141,  142,  143,  144,  145,  146,  147,  148,  149,  150,  151,
                                                       152,  153,  154,  155,  156,  157,  158,  159,  160,  161,  162,  163,
                                                       164,  165,  166,  167,  168,  169,  170,  171,  172,  173,  174,  175,
                                                       176,  177,  178,  179,  180,  181,  182,  183,  184,  185,  186,  187,
                                                       188,  189,  190,  191,  192,  193,  194,  195,  196,  197,  198,  199,
                                                       200,  201,  202,  203,  204,  205,  206,  207,  208,  209,  210,  211,
                                                       212,  213,  214,  215,  216,  217,  218,  219,  220,  221,  222,  223,
                                                       224,  225,  226,  227,  228,  229,  230,  231,  232,  233,  234,  235,
                                                       236,  237,  238,  239,  240,  241,  242,  243,  244,  245,  246,  247,
                                                       248,  249,  250,  251,  252,  253,  254,  255,  256,  257,  258,  259,
                                                       260,  261,  262,  263,  264,  265,  266,  267,  268,  269,  270,  271,
                                                       272,  273,  274,  275,  276,  277,  278,  279,  280,  281,  282,  283,
                                                       284,  285,  286,  287,  288,  289,  290,  291,  292,  293,  294,  295,
                                                       296,  297,  298,  299,  300,  301,  302,  303,  304,  305,  306,  307,
                                                       308,  309,  310,  311,  312,  313,  314,  315,  316,  317,  318,  319,
                                                       320,  321,  322,  323,  324,  325,  326,  327,  328,  329,  330,  331,
                                                       332,  333,  334,  335,  336,  337,  338,  339,  340,  341,  342,  343,
                                                       344,  345,  346,  347,  348,  349,  350,  351,  352,  353,  354,  355,
                                                       356,  357,  358,  359,  360,  361,  362,  363,  364,  365,  366,  367,
                                                       368,  369,  370,  371,  372,  373,  374,  375,  376,  377,  378,  379,
                                                       380,  381,  382,  383,  384,  385,  386,  387,  388,  389,  390,  391,
                                                       392,  393,  394,  395,  396,  397,  398,  399,  400,  401,  402,  403,
                                                       404,  405,  406,  407,  408,  409,  410,  411,  412,  413,  414,  415,
                                                       416,  417,  418,  419,  420,  421,  422,  423,  424,  425,  426,  427,
                                                       428,  429,  430,  431,  432,  433,  434,  435,  436,  437,  438,  439,
                                                       440,  441,  442,  443,  444,  445,  446,  447,  448,  449,  450,  451,
                                                       452,  453,  454,  455,  456,  457,  458,  459,  460,  461,  462,  463,
                                                       464,  465,  466,  467,  468,  469,  470,  471,  472,  473,  474,  475,
                                                       476,  477,  478,  479,  480,  481,  482,  483,  484,  485,  486,  487,
                                                       488,  489,  490,  491,  492,  493,  494,  495,  496,  497,  498,  499,
                                                       500,  501,  502,  503,  504,  505,  506,  507,  508,  509,  510,  511,
                                                       512,  513,  514,  515,  516,  517,  518,  519,  520,  521,  522,  523,
                                                       524,  525,  526,  527,  528,  529,  530,  531,  532,  533,  534,  535,
                                                       536,  537,  538,  539,  540,  541,  542,  543,  544,  545,  546,  547,
                                                       548,  549,  550,  551,  552,  553,  554,  555,  556,  557,  558,  559,
                                                       560,  561,  562,  563,  564,  565,  566,  567,  568,  569,  570,  571,
                                                       572,  573,  574,  575,  576,  577,  578,  579,  580,  581,  582,  583,
                                                       584,  585,  586,  587,  588,  589,  590,  591,  592,  593,  594,  595,
                                                       596,  597,  598,  599,  600,  601,  602,  603,  604,  605,  606,  607,
                                                       608,  609,  610,  611,  612,  613,  614,  615,  616,  617,  618,  619,
                                                       620,  621,  622,  623,  624,  625,  626,  627,  628,  629,  630,  631,
                                                       632,  633,  634,  635,  636,  637,  638,  639,  640,  641,  642,  643,
                                                       644,  645,  646,  647,  648,  649,  650,  651,  652,  653,  654,  655,
                                                       656,  657,  658,  659,  660,  661,  662,  663,  664,  665,  666,  667,
                                                       668,  669,  670,  671,  672,  673,  674,  675,  676,  677,  678,  679,
                                                       680,  681,  682,  683,  684,  685,  686,  687,  688,  689,  690,  691,
                                                       692,  693,  694,  695,  696,  697,  698,  699,  700,  701,  702,  703,
                                                       704,  705,  706,  707,  708,  709,  710,  711,  712,  713,  714,  715,
                                                       716,  717,  718,  719,  720,  721,  722,  723,  724,  725,  726,  727,
                                                       728,  729,  730,  731,  732,  733,  734,  735,  736,  737,  738,  739,
                                                       740,  741,  742,  743,  744,  745,  746,  747,  748,  749,  750,  751,
                                                       752,  753,  754,  755,  756,  757,  758,  759,  760,  761,  762,  763,
                                                       764,  765,  766,  767,  768,  769,  770,  771,  772,  773,  774,  775,
                                                       776,  777,  778,  779,  780,  781,  782,  783,  784,  785,  786,  787,
                                                       788,  789,  790,  791,  792,  793,  794,  795,  796,  797,  798,  799,
                                                       800,  801,  802,  803,  804,  805,  806,  807,  808,  809,  810,  811,
                                                       812,  813,  814,  815,  816,  817,  818,  819,  820,  821,  822,  823,
                                                       824,  825,  826,  827,  828,  829,  830,  831,  832,  833,  834,  835,
                                                       836,  837,  838,  839,  840,  841,  842,  843,  844,  845,  846,  847,
                                                       848,  849,  850,  851,  852,  853,  854,  855,  856,  857,  858,  859,
                                                       860,  861,  862,  863,  864,  865,  866,  867,  868,  869,  870,  871,
                                                       872,  873,  874,  875,  876,  877,  878,  879,  880,  881,  882,  883,
                                                       884,  885,  886,  887,  888,  889,  890,  891,  892,  893,  894,  895,
                                                       896,  897,  898,  899,  900,  901,  902.
          57    powers                   oplook_:       69,   72,  103,  114.
          77    redefine                 oplook_:       35,  126.
          72    reset                    oplook_:       34,  118.
          10    static                   oplook_:      275,  276.
          25    stepup                   oplook_:       69,   77.
           4    sym                      oplook_:       31,   59.
          10    undefined_op_list        oplook_:       83,  121,  131,  278.
     1003455    valtbl                   oplook_:       48,   50,  142,  150,
                                         defops:        98,  244,  330,  331,  332,  333,  334,  336,  400,  406,  422,  597,
                                                       623,  718,  719,  720,  798,  810.
                varcom                   oplook_:       59.


NO FATAL ERRORS


                                          -----------------------------------------------------------


Historical Background

This edition of the Multics software materials and documentation is provided and donated
to Massachusetts Institute of Technology by Group BULL including BULL HN Information Systems Inc.
as a contribution to computer science knowledge.
This donation is made also to give evidence of the common contributions of Massachusetts Institute of Technology,
Bell Laboratories, General Electric, Honeywell Information Systems Inc., Honeywell BULL Inc., Groupe BULL
and BULL HN Information Systems Inc. to the development of this operating system.
Multics development was initiated by Massachusetts Institute of Technology Project MAC (1963-1970),
renamed the MIT Laboratory for Computer Science and Artificial Intelligence in the mid 1970s, under the leadership
of Professor Fernando Jose Corbato. Users consider that Multics provided the best software architecture
for managing computer hardware properly and for executing programs. Many subsequent operating systems
incorporated Multics principles.
Multics was distributed in 1975 to 2000 by Group Bull in Europe , and in the U.S. by Bull HN Information Systems Inc.,
as successor in interest by change in name only to Honeywell Bull Inc. and Honeywell Information Systems Inc. .

                                          -----------------------------------------------------------

Permission to use, copy, modify, and distribute these programs and their documentation for any purpose and without
fee is hereby granted,provided that the below copyright notice and historical background appear in all copies
and that both the copyright notice and historical background and this permission notice appear in supporting
documentation, and that the names of MIT, HIS, BULL or BULL HN not be used in advertising or publicity pertaining
to distribution of the programs without specific prior written permission.
    Copyright 1972 by Massachusetts Institute of Technology and Honeywell Information Systems Inc.
    Copyright 2006 by BULL HN Information Systems Inc.
    Copyright 2006 by Bull SAS
    All Rights Reserved
