ASSEMBLY LISTING OF SEGMENT >spec>install>1105>pl1_operator_names_.alm
ASSEMBLED ON:	07/28/86  1517.9 mst Mon
OPTIONS USED:	-target Level68 list
ASSEMBLED BY:	ALM Version  6.6  November 1982
ASSEMBLER CREATED:	09/21/83  1227.3 mst Wed

                                     1  " ***********************************************************
                                     2  " *                                                         *
                                     3  " * Copyright, (C) Honeywell Information Systems Inc., 1982 *
                                     4  " *                                                         *
                                     5  " * Copyright (c) 1972 by Massachusetts Institute of        *
                                     6  " * Technology and Honeywell Information Systems, Inc.      *
                                     7  " *                                                         *
                                     8  " ***********************************************************
                                     9
                                    10  " HISTORY COMMENTS:
                                    11  "  1) change(86-07-14,BWong), approve(86-07-14,MCR7382),
                                    12  "     audit(86-07-17,Ginter), install(86-07-28,MR12.0-1105):
                                    13  "     Fix fortran bug 477.
                                    14  "                                                      END HISTORY COMMENTS
                                    15
                                    16
                                    17  "	Modified:	07 March 86, BW - Make names the same as those in
                                    18  "		pl1_operators_.alm.
                                    19  "	Modified:	12 Dec 83, HH - Change displacements of "special" operators
                                    20  "		from octal to decimal to allow negative values.  Move
                                    21  "		'pl1_operators_$VLA_words_per_seg_' and add 'enter_BFP_mode'
                                    22  "		and 'enter_HFP_mode'.
                                    23
    000000                          24  	name	pl1_operator_names_
                        000004      25  	segdef	pl1_operator_names_,first,last,first_special,last_special,number_special
                                    26
    000000                          27  pl1_operator_names_:
                        000551      28  	equ	first_n,361
                 777777 777615      29  	equ	first_s,-115
                        000550      30  	equ	last_s,360
                                    31
    000000                          32  first:
    000000  aa   000000 000551      33  	vfd	36/first_n
    000001                          34  last:
    000001  aa   000000 001474      35  	vfd	36/first_n+(last_normal-first_normal-1)
    000002                          36  first_special:
    000002  aa   777777 777615      37  	vfd	36/first_s
    000003                          38  last_special:
    000003  aa   000000 000550      39  	vfd	36/last_s
    000004                          40  number_special:
    000004  aa   000000 000020      41  	vfd	36/(last_spec-first_spec+1)/2
                                    42
                                    43  	macro	normal
                              1     44  	use	text
                              2     45  	zero	s&2,&l1
                              3     46  	use	data
                              4     47  s&2:	aci	"&1"
                              5     48  	&end
                                    49
                                    50  	macro	special
                              1     51  	use	text
                              2     52  	dec	&2
                              3     53  	zero	&U,&l1
                              4     54  	use	data
                              5     55  &U:	aci	"&1"
                              6     56  	&end
                                    57
                                    58  	use	text
    000005                          59  first_normal:
                                    60  	normal	(alloc_char_temp),0
                                        	use	text
    000005  0a   000771 000017          	zero	s0,15
                                        	use	data
    000771  aa  141 154 154 157         s0:	aci	"alloc_char_temp"
    000772  aa  143 137 143 150
    000773  aa  141 162 137 164
    000774  aa  145 155 160 000
                                    61  	normal	(alloc_bit_temp),1
                                        	use	text
    000006  0a   000775 000016          	zero	s1,14
                                        	use	data
    000775  aa  141 154 154 157         s1:	aci	"alloc_bit_temp"
    000776  aa  143 137 142 151
    000777  aa  164 137 164 145
    001000  aa  155 160 000 000
                                    62  	normal	(alloc_temp),2
                                        	use	text
    000007  0a   001001 000012          	zero	s2,10
                                        	use	data
    001001  aa  141 154 154 157         s2:	aci	"alloc_temp"
    001002  aa  143 137 164 145
    001003  aa  155 160 000 000
                                    63  	normal	(realloc_char_temp),3
                                        	use	text
    000010  0a   001004 000021          	zero	s3,17
                                        	use	data
    001004  aa  162 145 141 154         s3:	aci	"realloc_char_temp"
    001005  aa  154 157 143 137
    001006  aa  143 150 141 162
    001007  aa  137 164 145 155
    001010  aa  160 000 000 000
                                    64  	normal	(realloc_bit_temp),4
                                        	use	text
    000011  0a   001011 000020          	zero	s4,16
                                        	use	data
    001011  aa  162 145 141 154         s4:	aci	"realloc_bit_temp"
    001012  aa  154 157 143 137
    001013  aa  142 151 164 137
    001014  aa  164 145 155 160
                                    65  	normal	(save_string),5
                                        	use	text
    000012  0a   001015 000013          	zero	s5,11
                                        	use	data
    001015  aa  163 141 166 145         s5:	aci	"save_string"
    001016  aa  137 163 164 162
    001017  aa  151 156 147 000
                                    66  	normal	(pk_to_unpk),6
                                        	use	text
    000013  0a   001020 000012          	zero	s6,10
                                        	use	data
    001020  aa  160 153 137 164         s6:	aci	"pk_to_unpk"
    001021  aa  157 137 165 156
    001022  aa  160 153 000 000
                                    67  	normal	(unpk_to_pk),7
                                        	use	text
    000014  0a   001023 000012          	zero	s7,10
                                        	use	data
    001023  aa  165 156 160 153         s7:	aci	"unpk_to_pk"
    001024  aa  137 164 157 137
    001025  aa  160 153 000 000
                                    68  	normal	(move_chars),8
                                        	use	text
    000015  0a   001026 000012          	zero	s8,10
                                        	use	data
    001026  aa  155 157 166 145         s8:	aci	"move_chars"
    001027  aa  137 143 150 141
    001030  aa  162 163 000 000
                                    69  	normal	(move_chars_aligned),9
                                        	use	text
    000016  0a   001031 000022          	zero	s9,18
                                        	use	data
    001031  aa  155 157 166 145         s9:	aci	"move_chars_aligned"
    001032  aa  137 143 150 141
    001033  aa  162 163 137 141
    001034  aa  154 151 147 156
    001035  aa  145 144 000 000
                                    70  	normal	(move_bits),10
                                        	use	text
    000017  0a   001036 000011          	zero	s10,9
                                        	use	data
    001036  aa  155 157 166 145         s10:	aci	"move_bits"
    001037  aa  137 142 151 164
    001040  aa  163 000 000 000
                                    71  	normal	(move_bits_aligned),11
                                        	use	text
    000020  0a   001041 000021          	zero	s11,17
                                        	use	data
    001041  aa  155 157 166 145         s11:	aci	"move_bits_aligned"
    001042  aa  137 142 151 164
    001043  aa  163 137 141 154
    001044  aa  151 147 156 145
    001045  aa  144 000 000 000
                                    72  	normal	(chars_move),12
                                        	use	text
    000021  0a   001046 000012          	zero	s12,10
                                        	use	data
    001046  aa  143 150 141 162         s12:	aci	"chars_move"
    001047  aa  163 137 155 157
    001050  aa  166 145 000 000
                                    73  	normal	(chars_move_aligned),13
                                        	use	text
    000022  0a   001051 000022          	zero	s13,18
                                        	use	data
    001051  aa  143 150 141 162         s13:	aci	"chars_move_aligned"
    001052  aa  163 137 155 157
    001053  aa  166 145 137 141
    001054  aa  154 151 147 156
    001055  aa  145 144 000 000
                                    74  	normal	(bits_move),14
                                        	use	text
    000023  0a   001056 000011          	zero	s14,9
                                        	use	data
    001056  aa  142 151 164 163         s14:	aci	"bits_move"
    001057  aa  137 155 157 166
    001060  aa  145 000 000 000
                                    75  	normal	(bits_move_aligned),15
                                        	use	text
    000024  0a   001061 000021          	zero	s15,17
                                        	use	data
    001061  aa  142 151 164 163         s15:	aci	"bits_move_aligned"
    001062  aa  137 155 157 166
    001063  aa  145 137 141 154
    001064  aa  151 147 156 145
    001065  aa  144 000 000 000
                                    76  	normal	(move_not_bits),16
                                        	use	text
    000025  0a   001066 000015          	zero	s16,13
                                        	use	data
    001066  aa  155 157 166 145         s16:	aci	"move_not_bits"
    001067  aa  137 156 157 164
    001070  aa  137 142 151 164
    001071  aa  163 000 000 000
                                    77  	normal	(move_not_bits_aligned),17
                                        	use	text
    000026  0a   001072 000025          	zero	s17,21
                                        	use	data
    001072  aa  155 157 166 145         s17:	aci	"move_not_bits_aligned"
    001073  aa  137 156 157 164
    001074  aa  137 142 151 164
    001075  aa  163 137 141 154
    001076  aa  151 147 156 145
    001077  aa  144 000 000 000
                                    78  	normal	(ext_and_1),18
                                        	use	text
    000027  0a   001100 000011          	zero	s18,9
                                        	use	data
    001100  aa  145 170 164 137         s18:	aci	"ext_and_1"
    001101  aa  141 156 144 137
    001102  aa  061 000 000 000
                                    79  	normal	(ext_and_2),19
                                        	use	text
    000030  0a   001103 000011          	zero	s19,9
                                        	use	data
    001103  aa  145 170 164 137         s19:	aci	"ext_and_2"
    001104  aa  141 156 144 137
    001105  aa  062 000 000 000
                                    80  	normal	(comp_bits),20
                                        	use	text
    000031  0a   001106 000011          	zero	s20,9
                                        	use	data
    001106  aa  143 157 155 160         s20:	aci	"comp_bits"
    001107  aa  137 142 151 164
    001110  aa  163 000 000 000
                                    81  	normal	(cpbs3),21
                                        	use	text
    000032  0a   001111 000005          	zero	s21,5
                                        	use	data
    001111  aa  143 160 142 163         s21:	aci	"cpbs3"
    001112  aa  063 000 000 000
                                    82  	normal	(cpbs3_aligned),22
                                        	use	text
    000033  0a   001113 000015          	zero	s22,13
                                        	use	data
    001113  aa  143 160 142 163         s22:	aci	"cpbs3_aligned"
    001114  aa  063 137 141 154
    001115  aa  151 147 156 145
    001116  aa  144 000 000 000
                                    83  	normal	(cpbs4),23
                                        	use	text
    000034  0a   001117 000005          	zero	s23,5
                                        	use	data
    001117  aa  143 160 142 163         s23:	aci	"cpbs4"
    001120  aa  064 000 000 000
                                    84  	normal	(cpcs_ext1),24
                                        	use	text
    000035  0a   001121 000011          	zero	s24,9
                                        	use	data
    001121  aa  143 160 143 163         s24:	aci	"cpcs_ext1"
    001122  aa  137 145 170 164
    001123  aa  061 000 000 000
                                    85  	normal	(cpcs_ext2),25
                                        	use	text
    000036  0a   001124 000011          	zero	s25,9
                                        	use	data
    001124  aa  143 160 143 163         s25:	aci	"cpcs_ext2"
    001125  aa  137 145 170 164
    001126  aa  062 000 000 000
                                    86  	normal	(cpbs_ext1),26
                                        	use	text
    000037  0a   001127 000011          	zero	s26,9
                                        	use	data
    001127  aa  143 160 142 163         s26:	aci	"cpbs_ext1"
    001130  aa  137 145 170 164
    001131  aa  061 000 000 000
                                    87  	normal	(cpbs_ext2),27
                                        	use	text
    000040  0a   001132 000011          	zero	s27,9
                                        	use	data
    001132  aa  143 160 142 163         s27:	aci	"cpbs_ext2"
    001133  aa  137 145 170 164
    001134  aa  062 000 000 000
                                    88  	normal	(store_string),28
                                        	use	text
    000041  0a   001135 000014          	zero	s28,12
                                        	use	data
    001135  aa  163 164 157 162         s28:	aci	"store_string"
    001136  aa  145 137 163 164
    001137  aa  162 151 156 147
                                    89  	normal	(cat_realloc_chars),29
                                        	use	text
    000042  0a   001140 000021          	zero	s29,17
                                        	use	data
    001140  aa  143 141 164 137         s29:	aci	"cat_realloc_chars"
    001141  aa  162 145 141 154
    001142  aa  154 157 143 137
    001143  aa  143 150 141 162
    001144  aa  163 000 000 000
                                    90  	normal	(cat_realloc_bits),30
                                        	use	text
    000043  0a   001145 000020          	zero	s30,16
                                        	use	data
    001145  aa  143 141 164 137         s30:	aci	"cat_realloc_bits"
    001146  aa  162 145 141 154
    001147  aa  154 157 143 137
    001150  aa  142 151 164 163
                                    91  	normal	(cp_chars),31
                                        	use	text
    000044  0a   001151 000010          	zero	s31,8
                                        	use	data
    001151  aa  143 160 137 143         s31:	aci	"cp_chars"
    001152  aa  150 141 162 163
                                    92  	normal	(cp_chars_aligned),32
                                        	use	text
    000045  0a   001153 000020          	zero	s32,16
                                        	use	data
    001153  aa  143 160 137 143         s32:	aci	"cp_chars_aligned"
    001154  aa  150 141 162 163
    001155  aa  137 141 154 151
    001156  aa  147 156 145 144
                                    93  	normal	(cp_bits),33
                                        	use	text
    000046  0a   001157 000007          	zero	s33,7
                                        	use	data
    001157  aa  143 160 137 142         s33:	aci	"cp_bits"
    001160  aa  151 164 163 000
                                    94  	normal	(cp_bits_aligned),34
                                        	use	text
    000047  0a   001161 000017          	zero	s34,15
                                        	use	data
    001161  aa  143 160 137 142         s34:	aci	"cp_bits_aligned"
    001162  aa  151 164 163 137
    001163  aa  141 154 151 147
    001164  aa  156 145 144 000
                                    95  	normal	(enter_begin_block),35
                                        	use	text
    000050  0a   001165 000021          	zero	s35,17
                                        	use	data
    001165  aa  145 156 164 145         s35:	aci	"enter_begin_block"
    001166  aa  162 137 142 145
    001167  aa  147 151 156 137
    001170  aa  142 154 157 143
    001171  aa  153 000 000 000
                                    96  	normal	(leave_begin_block),36
                                        	use	text
    000051  0a   001172 000021          	zero	s36,17
                                        	use	data
    001172  aa  154 145 141 166         s36:	aci	"leave_begin_block"
    001173  aa  145 137 142 145
    001174  aa  147 151 156 137
    001175  aa  142 154 157 143
    001176  aa  153 000 000 000
                                    97  	normal	(call_ent_var_desc),37
                                        	use	text
    000052  0a   001177 000021          	zero	s37,17
                                        	use	data
    001177  aa  143 141 154 154         s37:	aci	"call_ent_var_desc"
    001200  aa  137 145 156 164
    001201  aa  137 166 141 162
    001202  aa  137 144 145 163
    001203  aa  143 000 000 000
                                    98  	normal	(call_ent_var),38
                                        	use	text
    000053  0a   001204 000014          	zero	s38,12
                                        	use	data
    001204  aa  143 141 154 154         s38:	aci	"call_ent_var"
    001205  aa  137 145 156 164
    001206  aa  137 166 141 162
                                    99  	normal	(call_ext_in_desc),39
                                        	use	text
    000054  0a   001207 000020          	zero	s39,16
                                        	use	data
    001207  aa  143 141 154 154         s39:	aci	"call_ext_in_desc"
    001210  aa  137 145 170 164
    001211  aa  137 151 156 137
    001212  aa  144 145 163 143
                                   100  	normal	(call_ext_in),40
                                        	use	text
    000055  0a   001213 000013          	zero	s40,11
                                        	use	data
    001213  aa  143 141 154 154         s40:	aci	"call_ext_in"
    001214  aa  137 145 170 164
    001215  aa  137 151 156 000
                                   101  	normal	(call_ext_out_desc),41
                                        	use	text
    000056  0a   001216 000021          	zero	s41,17
                                        	use	data
    001216  aa  143 141 154 154         s41:	aci	"call_ext_out_desc"
    001217  aa  137 145 170 164
    001220  aa  137 157 165 164
    001221  aa  137 144 145 163
    001222  aa  143 000 000 000
                                   102  	normal	(call_ext_out),42
                                        	use	text
    000057  0a   001223 000014          	zero	s42,12
                                        	use	data
    001223  aa  143 141 154 154         s42:	aci	"call_ext_out"
    001224  aa  137 145 170 164
    001225  aa  137 157 165 164
                                   103  	normal	(call_int_this_desc),43
                                        	use	text
    000060  0a   001226 000022          	zero	s43,18
                                        	use	data
    001226  aa  143 141 154 154         s43:	aci	"call_int_this_desc"
    001227  aa  137 151 156 164
    001230  aa  137 164 150 151
    001231  aa  163 137 144 145
    001232  aa  163 143 000 000
                                   104  	normal	(call_int_this),44
                                        	use	text
    000061  0a   001233 000015          	zero	s44,13
                                        	use	data
    001233  aa  143 141 154 154         s44:	aci	"call_int_this"
    001234  aa  137 151 156 164
    001235  aa  137 164 150 151
    001236  aa  163 000 000 000
                                   105  	normal	(call_int_other_desc),45
                                        	use	text
    000062  0a   001237 000023          	zero	s45,19
                                        	use	data
    001237  aa  143 141 154 154         s45:	aci	"call_int_other_desc"
    001240  aa  137 151 156 164
    001241  aa  137 157 164 150
    001242  aa  145 162 137 144
    001243  aa  145 163 143 000
                                   106  	normal	(call_int_other),46
                                        	use	text
    000063  0a   001244 000016          	zero	s46,14
                                        	use	data
    001244  aa  143 141 154 154         s46:	aci	"call_int_other"
    001245  aa  137 151 156 164
    001246  aa  137 157 164 150
    001247  aa  145 162 000 000
                                   107  	normal	(begin_return_mac),47
                                        	use	text
    000064  0a   001250 000020          	zero	s47,16
                                        	use	data
    001250  aa  142 145 147 151         s47:	aci	"begin_return_mac"
    001251  aa  156 137 162 145
    001252  aa  164 165 162 156
    001253  aa  137 155 141 143
                                   108  	normal	(return_mac),48
                                        	use	text
    000065  0a   001254 000012          	zero	s48,10
                                        	use	data
    001254  aa  162 145 164 165         s48:	aci	"return_mac"
    001255  aa  162 156 137 155
    001256  aa  141 143 000 000
                                   109  	normal	(cat_move_chars),49
                                        	use	text
    000066  0a   001257 000016          	zero	s49,14
                                        	use	data
    001257  aa  143 141 164 137         s49:	aci	"cat_move_chars"
    001260  aa  155 157 166 145
    001261  aa  137 143 150 141
    001262  aa  162 163 000 000
                                   110  	normal	(cat_move_chars_aligned),50
                                        	use	text
    000067  0a   001263 000026          	zero	s50,22
                                        	use	data
    001263  aa  143 141 164 137         s50:	aci	"cat_move_chars_aligned"
    001264  aa  155 157 166 145
    001265  aa  137 143 150 141
    001266  aa  162 163 137 141
    001267  aa  154 151 147 156
    001270  aa  145 144 000 000
                                   111  	normal	(cat_move_bits),51
                                        	use	text
    000070  0a   001271 000015          	zero	s51,13
                                        	use	data
    001271  aa  143 141 164 137         s51:	aci	"cat_move_bits"
    001272  aa  155 157 166 145
    001273  aa  137 142 151 164
    001274  aa  163 000 000 000
                                   112  	normal	(cat_move_bits_aligned),52
                                        	use	text
    000071  0a   001275 000025          	zero	s52,21
                                        	use	data
    001275  aa  143 141 164 137         s52:	aci	"cat_move_bits_aligned"
    001276  aa  155 157 166 145
    001277  aa  137 142 151 164
    001300  aa  163 137 141 154
    001301  aa  151 147 156 145
    001302  aa  144 000 000 000
                                   113  	normal	(cat_chars),53
                                        	use	text
    000072  0a   001303 000011          	zero	s53,9
                                        	use	data
    001303  aa  143 141 164 137         s53:	aci	"cat_chars"
    001304  aa  143 150 141 162
    001305  aa  163 000 000 000
                                   114  	normal	(cat_chars_aligned),54
                                        	use	text
    000073  0a   001306 000021          	zero	s54,17
                                        	use	data
    001306  aa  143 141 164 137         s54:	aci	"cat_chars_aligned"
    001307  aa  143 150 141 162
    001310  aa  163 137 141 154
    001311  aa  151 147 156 145
    001312  aa  144 000 000 000
                                   115  	normal	(cat_bits),55
                                        	use	text
    000074  0a   001313 000010          	zero	s55,8
                                        	use	data
    001313  aa  143 141 164 137         s55:	aci	"cat_bits"
    001314  aa  142 151 164 163
                                   116  	normal	(cat_bits_aligned),56
                                        	use	text
    000075  0a   001315 000020          	zero	s56,16
                                        	use	data
    001315  aa  143 141 164 137         s56:	aci	"cat_bits_aligned"
    001316  aa  142 151 164 163
    001317  aa  137 141 154 151
    001320  aa  147 156 145 144
                                   117  	normal	(set_chars),57
                                        	use	text
    000076  0a   001321 000011          	zero	s57,9
                                        	use	data
    001321  aa  163 145 164 137         s57:	aci	"set_chars"
    001322  aa  143 150 141 162
    001323  aa  163 000 000 000
                                   118  	normal	(set_chars_aligned),58
                                        	use	text
    000077  0a   001324 000021          	zero	s58,17
                                        	use	data
    001324  aa  163 145 164 137         s58:	aci	"set_chars_aligned"
    001325  aa  143 150 141 162
    001326  aa  163 137 141 154
    001327  aa  151 147 156 145
    001330  aa  144 000 000 000
                                   119  	normal	(set_bits),59
                                        	use	text
    000100  0a   001331 000010          	zero	s59,8
                                        	use	data
    001331  aa  163 145 164 137         s59:	aci	"set_bits"
    001332  aa  142 151 164 163
                                   120  	normal	(set_bits_aligned),60
                                        	use	text
    000101  0a   001333 000020          	zero	s60,16
                                        	use	data
    001333  aa  163 145 164 137         s60:	aci	"set_bits_aligned"
    001334  aa  142 151 164 163
    001335  aa  137 141 154 151
    001336  aa  147 156 145 144
                                   121  	normal	(and_bits),61
                                        	use	text
    000102  0a   001337 000010          	zero	s61,8
                                        	use	data
    001337  aa  141 156 144 137         s61:	aci	"and_bits"
    001340  aa  142 151 164 163
                                   122  	normal	(and_bits_aligned),62
                                        	use	text
    000103  0a   001341 000020          	zero	s62,16
                                        	use	data
    001341  aa  141 156 144 137         s62:	aci	"and_bits_aligned"
    001342  aa  142 151 164 163
    001343  aa  137 141 154 151
    001344  aa  147 156 145 144
                                   123  	normal	(or_bits),63
                                        	use	text
    000104  0a   001345 000007          	zero	s63,7
                                        	use	data
    001345  aa  157 162 137 142         s63:	aci	"or_bits"
    001346  aa  151 164 163 000
                                   124  	normal	(or_bits_aligned),64
                                        	use	text
    000105  0a   001347 000017          	zero	s64,15
                                        	use	data
    001347  aa  157 162 137 142         s64:	aci	"or_bits_aligned"
    001350  aa  151 164 163 137
    001351  aa  141 154 151 147
    001352  aa  156 145 144 000
                                   125  	normal	(move_label_var),65
                                        	use	text
    000106  0a   001353 000016          	zero	s65,14
                                        	use	data
    001353  aa  155 157 166 145         s65:	aci	"move_label_var"
    001354  aa  137 154 141 142
    001355  aa  145 154 137 166
    001356  aa  141 162 000 000
                                   126  	normal	(make_label_var),66
                                        	use	text
    000107  0a   001357 000016          	zero	s66,14
                                        	use	data
    001357  aa  155 141 153 145         s66:	aci	"make_label_var"
    001360  aa  137 154 141 142
    001361  aa  145 154 137 166
    001362  aa  141 162 000 000
                                   127  	normal	(fl2_to_fx1),67
                                        	use	text
    000110  0a   001363 000012          	zero	s67,10
                                        	use	data
    001363  aa  146 154 062 137         s67:	aci	"fl2_to_fx1"
    001364  aa  164 157 137 146
    001365  aa  170 061 000 000
                                   128  	normal	(fl2_to_fx2),68
                                        	use	text
    000111  0a   001366 000012          	zero	s68,10
                                        	use	data
    001366  aa  146 154 062 137         s68:	aci	"fl2_to_fx2"
    001367  aa  164 157 137 146
    001370  aa  170 062 000 000
                                   129  	normal	(longbs_to_fx2),69
                                        	use	text
    000112  0a   001371 000015          	zero	s69,13
                                        	use	data
    001371  aa  154 157 156 147         s69:	aci	"longbs_to_fx2"
    001372  aa  142 163 137 164
    001373  aa  157 137 146 170
    001374  aa  062 000 000 000
                                   130  	normal	(tra_ext_1),70
                                        	use	text
    000113  0a   001375 000011          	zero	s70,9
                                        	use	data
    001375  aa  164 162 141 137         s70:	aci	"tra_ext_1"
    001376  aa  145 170 164 137
    001377  aa  061 000 000 000
                                   131  	normal	(tra_ext_2),71
                                        	use	text
    000114  0a   001400 000011          	zero	s71,9
                                        	use	data
    001400  aa  164 162 141 137         s71:	aci	"tra_ext_2"
    001401  aa  145 170 164 137
    001402  aa  062 000 000 000
                                   132  	normal	(alloc_auto_adj),72
                                        	use	text
    000115  0a   001403 000016          	zero	s72,14
                                        	use	data
    001403  aa  141 154 154 157         s72:	aci	"alloc_auto_adj"
    001404  aa  143 137 141 165
    001405  aa  164 157 137 141
    001406  aa  144 152 000 000
                                   133  	normal	(longbs_to_bs18),73
                                        	use	text
    000116  0a   001407 000016          	zero	s73,14
                                        	use	data
    001407  aa  154 157 156 147         s73:	aci	"longbs_to_bs18"
    001410  aa  142 163 137 164
    001411  aa  157 137 142 163
    001412  aa  061 070 000 000
                                   134  	normal	(stac_mac),74
                                        	use	text
    000117  0a   001413 000010          	zero	s74,8
                                        	use	data
    001413  aa  163 164 141 143         s74:	aci	"stac_mac"
    001414  aa  137 155 141 143
                                   135  	normal	(sign_mac),75
                                        	use	text
    000120  0a   001415 000010          	zero	s75,8
                                        	use	data
    001415  aa  163 151 147 156         s75:	aci	"sign_mac"
    001416  aa  137 155 141 143
                                   136  	normal	(bound_ck_signal),76
                                        	use	text
    000121  0a   001417 000017          	zero	s76,15
                                        	use	data
    001417  aa  142 157 165 156         s76:	aci	"bound_ck_signal"
    001420  aa  144 137 143 153
    001421  aa  137 163 151 147
    001422  aa  156 141 154 000
                                   137  	normal	(trans_sign_fx1),77
                                        	use	text
    000122  0a   001423 000016          	zero	s77,14
                                        	use	data
    001423  aa  164 162 141 156         s77:	aci	"trans_sign_fx1"
    001424  aa  163 137 163 151
    001425  aa  147 156 137 146
    001426  aa  170 061 000 000
                                   138  	normal	(trans_sign_fl),78
                                        	use	text
    000123  0a   001427 000015          	zero	s78,13
                                        	use	data
    001427  aa  164 162 141 156         s78:	aci	"trans_sign_fl"
    001430  aa  163 137 163 151
    001431  aa  147 156 137 146
    001432  aa  154 000 000 000
                                   139  	normal	(copy_words),79
                                        	use	text
    000124  0a   001433 000012          	zero	s79,10
                                        	use	data
    001433  aa  143 157 160 171         s79:	aci	"copy_words"
    001434  aa  137 167 157 162
    001435  aa  144 163 000 000
                                   140  	normal	(mpfx2),80
                                        	use	text
    000125  0a   001436 000005          	zero	s80,5
                                        	use	data
    001436  aa  155 160 146 170         s80:	aci	"mpfx2"
    001437  aa  062 000 000 000
                                   141  	normal	(mpfx3),81
                                        	use	text
    000126  0a   001440 000005          	zero	s81,5
                                        	use	data
    001440  aa  155 160 146 170         s81:	aci	"mpfx3"
    001441  aa  063 000 000 000
                                   142  	normal	(copy_const),82
                                        	use	text
    000127  0a   001442 000012          	zero	s82,10
                                        	use	data
    001442  aa  143 157 160 171         s82:	aci	"copy_const"
    001443  aa  137 143 157 156
    001444  aa  163 164 000 000
                                   143  	normal	(copy_const_vt),83
                                        	use	text
    000130  0a   001445 000015          	zero	s83,13
                                        	use	data
    001445  aa  143 157 160 171         s83:	aci	"copy_const_vt"
    001446  aa  137 143 157 156
    001447  aa  163 164 137 166
    001450  aa  164 000 000 000
                                   144  	normal	(sr_check),84
                                        	use	text
    000131  0a   001451 000010          	zero	s84,8
                                        	use	data
    001451  aa  163 162 137 143         s84:	aci	"sr_check"
    001452  aa  150 145 143 153
                                   145  	normal	(chars_move_vt),85
                                        	use	text
    000132  0a   001453 000015          	zero	s85,13
                                        	use	data
    001453  aa  143 150 141 162         s85:	aci	"chars_move_vt"
    001454  aa  163 137 155 157
    001455  aa  166 145 137 166
    001456  aa  164 000 000 000
                                   146  	normal	(chars_move_vta),86
                                        	use	text
    000133  0a   001457 000016          	zero	s86,14
                                        	use	data
    001457  aa  143 150 141 162         s86:	aci	"chars_move_vta"
    001460  aa  163 137 155 157
    001461  aa  166 145 137 166
    001462  aa  164 141 000 000
                                   147  	normal	(bits_move_vt),87
                                        	use	text
    000134  0a   001463 000014          	zero	s87,12
                                        	use	data
    001463  aa  142 151 164 163         s87:	aci	"bits_move_vt"
    001464  aa  137 155 157 166
    001465  aa  145 137 166 164
                                   148  	normal	(bits_move_vta),88
                                        	use	text
    000135  0a   001466 000015          	zero	s88,13
                                        	use	data
    001466  aa  142 151 164 163         s88:	aci	"bits_move_vta"
    001467  aa  137 155 157 166
    001470  aa  145 137 166 164
    001471  aa  141 000 000 000
                                   149  	normal	(mdfl1),89
                                        	use	text
    000136  0a   001472 000005          	zero	s89,5
                                        	use	data
    001472  aa  155 144 146 154         s89:	aci	"mdfl1"
    001473  aa  061 000 000 000
                                   150  	normal	(mdfl2),90
                                        	use	text
    000137  0a   001474 000005          	zero	s90,5
                                        	use	data
    001474  aa  155 144 146 154         s90:	aci	"mdfl2"
    001475  aa  062 000 000 000
                                   151  	normal	(mdfx1),91
                                        	use	text
    000140  0a   001476 000005          	zero	s91,5
                                        	use	data
    001476  aa  155 144 146 170         s91:	aci	"mdfx1"
    001477  aa  061 000 000 000
                                   152  	normal	(mdfx2),92
                                        	use	text
    000141  0a   001500 000005          	zero	s92,5
                                        	use	data
    001500  aa  155 144 146 170         s92:	aci	"mdfx2"
    001501  aa  062 000 000 000
                                   153  	normal	(mdfx3),93
                                        	use	text
    000142  0a   001502 000005          	zero	s93,5
                                        	use	data
    001502  aa  155 144 146 170         s93:	aci	"mdfx3"
    001503  aa  063 000 000 000
                                   154  	normal	(mdfx4),94
                                        	use	text
    000143  0a   001504 000005          	zero	s94,5
                                        	use	data
    001504  aa  155 144 146 170         s94:	aci	"mdfx4"
    001505  aa  064 000 000 000
                                   155  	normal	(copy_double),95
                                        	use	text
    000144  0a   001506 000013          	zero	s95,11
                                        	use	data
    001506  aa  143 157 160 171         s95:	aci	"copy_double"
    001507  aa  137 144 157 165
    001510  aa  142 154 145 000
                                   156  	normal	(string_store),96
                                        	use	text
    000145  0a   001511 000014          	zero	s96,12
                                        	use	data
    001511  aa  163 164 162 151         s96:	aci	"string_store"
    001512  aa  156 147 137 163
    001513  aa  164 157 162 145
                                   157  	normal	(get_chars),97
                                        	use	text
    000146  0a   001514 000011          	zero	s97,9
                                        	use	data
    001514  aa  147 145 164 137         s97:	aci	"get_chars"
    001515  aa  143 150 141 162
    001516  aa  163 000 000 000
                                   158  	normal	(get_bits),98
                                        	use	text
    000147  0a   001517 000010          	zero	s98,8
                                        	use	data
    001517  aa  147 145 164 137         s98:	aci	"get_bits"
    001520  aa  142 151 164 163
                                   159  	normal	(pad_chars),99
                                        	use	text
    000150  0a   001521 000011          	zero	s99,9
                                        	use	data
    001521  aa  160 141 144 137         s99:	aci	"pad_chars"
    001522  aa  143 150 141 162
    001523  aa  163 000 000 000
                                   160  	normal	(pad_bits),100
                                        	use	text
    000151  0a   001524 000010          	zero	s100,8
                                        	use	data
    001524  aa  160 141 144 137         s100:	aci	"pad_bits"
    001525  aa  142 151 164 163
                                   161  	normal	(signal_op),101
                                        	use	text
    000152  0a   001526 000011          	zero	s101,9
                                        	use	data
    001526  aa  163 151 147 156         s101:	aci	"signal_op"
    001527  aa  141 154 137 157
    001530  aa  160 000 000 000
                                   162  	normal	(enable_op),102
                                        	use	text
    000153  0a   001531 000011          	zero	s102,9
                                        	use	data
    001531  aa  145 156 141 142         s102:	aci	"enable_op"
    001532  aa  154 145 137 157
    001533  aa  160 000 000 000
                                   163  	normal	(index_chars),103
                                        	use	text
    000154  0a   001534 000013          	zero	s103,11
                                        	use	data
    001534  aa  151 156 144 145         s103:	aci	"index_chars"
    001535  aa  170 137 143 150
    001536  aa  141 162 163 000
                                   164  	normal	(index_chars_aligned),104
                                        	use	text
    000155  0a   001537 000023          	zero	s104,19
                                        	use	data
    001537  aa  151 156 144 145         s104:	aci	"index_chars_aligned"
    001540  aa  170 137 143 150
    001541  aa  141 162 163 137
    001542  aa  141 154 151 147
    001543  aa  156 145 144 000
                                   165  	normal	(index_bits),105
                                        	use	text
    000156  0a   001544 000012          	zero	s105,10
                                        	use	data
    001544  aa  151 156 144 145         s105:	aci	"index_bits"
    001545  aa  170 137 142 151
    001546  aa  164 163 000 000
                                   166  	normal	(index_bits_aligned),106
                                        	use	text
    000157  0a   001547 000022          	zero	s106,18
                                        	use	data
    001547  aa  151 156 144 145         s106:	aci	"index_bits_aligned"
    001550  aa  170 137 142 151
    001551  aa  164 163 137 141
    001552  aa  154 151 147 156
    001553  aa  145 144 000 000
                                   167  	normal	(exor_bits),107
                                        	use	text
    000160  0a   001554 000011          	zero	s107,9
                                        	use	data
    001554  aa  145 170 157 162         s107:	aci	"exor_bits"
    001555  aa  137 142 151 164
    001556  aa  163 000 000 000
                                   168  	normal	(exor_bits_aligned),108
                                        	use	text
    000161  0a   001557 000021          	zero	s108,17
                                        	use	data
    001557  aa  145 170 157 162         s108:	aci	"exor_bits_aligned"
    001560  aa  137 142 151 164
    001561  aa  163 137 141 154
    001562  aa  151 147 156 145
    001563  aa  144 000 000 000
                                   169  	normal	(set_bits_co),109
                                        	use	text
    000162  0a   001564 000013          	zero	s109,11
                                        	use	data
    001564  aa  163 145 164 137         s109:	aci	"set_bits_co"
    001565  aa  142 151 164 163
    001566  aa  137 143 157 000
                                   170  	normal	(set_bits_ho),110
                                        	use	text
    000163  0a   001567 000013          	zero	s110,11
                                        	use	data
    001567  aa  163 145 164 137         s110:	aci	"set_bits_ho"
    001570  aa  142 151 164 163
    001571  aa  137 150 157 000
                                   171  	normal	(set_chars_co),111
                                        	use	text
    000164  0a   001572 000014          	zero	s111,12
                                        	use	data
    001572  aa  163 145 164 137         s111:	aci	"set_chars_co"
    001573  aa  143 150 141 162
    001574  aa  163 137 143 157
                                   172  	normal	(set_chars_ho),112
                                        	use	text
    000165  0a   001575 000014          	zero	s112,12
                                        	use	data
    001575  aa  163 145 164 137         s112:	aci	"set_chars_ho"
    001576  aa  143 150 141 162
    001577  aa  163 137 150 157
                                   173  	normal	(string_store_co),113
                                        	use	text
    000166  0a   001600 000017          	zero	s113,15
                                        	use	data
    001600  aa  163 164 162 151         s113:	aci	"string_store_co"
    001601  aa  156 147 137 163
    001602  aa  164 157 162 145
    001603  aa  137 143 157 000
                                   174  	normal	(string_store_ho),114
                                        	use	text
    000167  0a   001604 000017          	zero	s114,15
                                        	use	data
    001604  aa  163 164 162 151         s114:	aci	"string_store_ho"
    001605  aa  156 147 137 163
    001606  aa  164 157 162 145
    001607  aa  137 150 157 000
                                   175  	normal	(get_chars_co),115
                                        	use	text
    000170  0a   001610 000014          	zero	s115,12
                                        	use	data
    001610  aa  147 145 164 137         s115:	aci	"get_chars_co"
    001611  aa  143 150 141 162
    001612  aa  163 137 143 157
                                   176  	normal	(get_chars_ho),116
                                        	use	text
    000171  0a   001613 000014          	zero	s116,12
                                        	use	data
    001613  aa  147 145 164 137         s116:	aci	"get_chars_ho"
    001614  aa  143 150 141 162
    001615  aa  163 137 150 157
                                   177  	normal	(get_bits_co),117
                                        	use	text
    000172  0a   001616 000013          	zero	s117,11
                                        	use	data
    001616  aa  147 145 164 137         s117:	aci	"get_bits_co"
    001617  aa  142 151 164 163
    001620  aa  137 143 157 000
                                   178  	normal	(get_bits_ho),118
                                        	use	text
    000173  0a   001621 000013          	zero	s118,11
                                        	use	data
    001621  aa  147 145 164 137         s118:	aci	"get_bits_ho"
    001622  aa  142 151 164 163
    001623  aa  137 150 157 000
                                   179  	normal	(and_bits_co),119
                                        	use	text
    000174  0a   001624 000013          	zero	s119,11
                                        	use	data
    001624  aa  141 156 144 137         s119:	aci	"and_bits_co"
    001625  aa  142 151 164 163
    001626  aa  137 143 157 000
                                   180  	normal	(and_bits_ho),120
                                        	use	text
    000175  0a   001627 000013          	zero	s120,11
                                        	use	data
    001627  aa  141 156 144 137         s120:	aci	"and_bits_ho"
    001630  aa  142 151 164 163
    001631  aa  137 150 157 000
                                   181  	normal	(or_bits_co),121
                                        	use	text
    000176  0a   001632 000012          	zero	s121,10
                                        	use	data
    001632  aa  157 162 137 142         s121:	aci	"or_bits_co"
    001633  aa  151 164 163 137
    001634  aa  143 157 000 000
                                   182  	normal	(or_bits_ho),122
                                        	use	text
    000177  0a   001635 000012          	zero	s122,10
                                        	use	data
    001635  aa  157 162 137 142         s122:	aci	"or_bits_ho"
    001636  aa  151 164 163 137
    001637  aa  150 157 000 000
                                   183  	normal	(exor_bits_co),123
                                        	use	text
    000200  0a   001640 000014          	zero	s123,12
                                        	use	data
    001640  aa  145 170 157 162         s123:	aci	"exor_bits_co"
    001641  aa  137 142 151 164
    001642  aa  163 137 143 157
                                   184  	normal	(exor_bits_ho),124
                                        	use	text
    000201  0a   001643 000014          	zero	s124,12
                                        	use	data
    001643  aa  145 170 157 162         s124:	aci	"exor_bits_ho"
    001644  aa  137 142 151 164
    001645  aa  163 137 150 157
                                   185  	normal	(cat_move_bits_co),125
                                        	use	text
    000202  0a   001646 000020          	zero	s125,16
                                        	use	data
    001646  aa  143 141 164 137         s125:	aci	"cat_move_bits_co"
    001647  aa  155 157 166 145
    001650  aa  137 142 151 164
    001651  aa  163 137 143 157
                                   186  	normal	(cat_move_bits_ho),126
                                        	use	text
    000203  0a   001652 000020          	zero	s126,16
                                        	use	data
    001652  aa  143 141 164 137         s126:	aci	"cat_move_bits_ho"
    001653  aa  155 157 166 145
    001654  aa  137 142 151 164
    001655  aa  163 137 150 157
                                   187  	normal	(move_not_bits_co),127
                                        	use	text
    000204  0a   001656 000020          	zero	s127,16
                                        	use	data
    001656  aa  155 157 166 145         s127:	aci	"move_not_bits_co"
    001657  aa  137 156 157 164
    001660  aa  137 142 151 164
    001661  aa  163 137 143 157
                                   188  	normal	(move_not_bits_ho),128
                                        	use	text
    000205  0a   001662 000020          	zero	s128,16
                                        	use	data
    001662  aa  155 157 166 145         s128:	aci	"move_not_bits_ho"
    001663  aa  137 156 157 164
    001664  aa  137 142 151 164
    001665  aa  163 137 150 157
                                   189  	normal	(move_bits_co),129
                                        	use	text
    000206  0a   001666 000014          	zero	s129,12
                                        	use	data
    001666  aa  155 157 166 145         s129:	aci	"move_bits_co"
    001667  aa  137 142 151 164
    001670  aa  163 137 143 157
                                   190  	normal	(move_bits_ho),130
                                        	use	text
    000207  0a   001671 000014          	zero	s130,12
                                        	use	data
    001671  aa  155 157 166 145         s130:	aci	"move_bits_ho"
    001672  aa  137 142 151 164
    001673  aa  163 137 150 157
                                   191  	normal	(move_chars_co),131
                                        	use	text
    000210  0a   001674 000015          	zero	s131,13
                                        	use	data
    001674  aa  155 157 166 145         s131:	aci	"move_chars_co"
    001675  aa  137 143 150 141
    001676  aa  162 163 137 143
    001677  aa  157 000 000 000
                                   192  	normal	(move_chars_ho),132
                                        	use	text
    000211  0a   001700 000015          	zero	s132,13
                                        	use	data
    001700  aa  155 157 166 145         s132:	aci	"move_chars_ho"
    001701  aa  137 143 150 141
    001702  aa  162 163 137 150
    001703  aa  157 000 000 000
                                   193  	normal	(cat_move_chars_co),133
                                        	use	text
    000212  0a   001704 000021          	zero	s133,17
                                        	use	data
    001704  aa  143 141 164 137         s133:	aci	"cat_move_chars_co"
    001705  aa  155 157 166 145
    001706  aa  137 143 150 141
    001707  aa  162 163 137 143
    001710  aa  157 000 000 000
                                   194  	normal	(cat_move_chars_ho),134
                                        	use	text
    000213  0a   001711 000021          	zero	s134,17
                                        	use	data
    001711  aa  143 141 164 137         s134:	aci	"cat_move_chars_ho"
    001712  aa  155 157 166 145
    001713  aa  137 143 150 141
    001714  aa  162 163 137 150
    001715  aa  157 000 000 000
                                   195  	normal	(cat_chars_co),135
                                        	use	text
    000214  0a   001716 000014          	zero	s135,12
                                        	use	data
    001716  aa  143 141 164 137         s135:	aci	"cat_chars_co"
    001717  aa  143 150 141 162
    001720  aa  163 137 143 157
                                   196  	normal	(cat_chars_ho),136
                                        	use	text
    000215  0a   001721 000014          	zero	s136,12
                                        	use	data
    001721  aa  143 141 164 137         s136:	aci	"cat_chars_ho"
    001722  aa  143 150 141 162
    001723  aa  163 137 150 157
                                   197  	normal	(cat_bits_co),137
                                        	use	text
    000216  0a   001724 000013          	zero	s137,11
                                        	use	data
    001724  aa  143 141 164 137         s137:	aci	"cat_bits_co"
    001725  aa  142 151 164 163
    001726  aa  137 143 157 000
                                   198  	normal	(cat_bits_ho),138
                                        	use	text
    000217  0a   001727 000013          	zero	s138,11
                                        	use	data
    001727  aa  143 141 164 137         s138:	aci	"cat_bits_ho"
    001730  aa  142 151 164 163
    001731  aa  137 150 157 000
                                   199  	normal	(io_signal),139
                                        	use	text
    000220  0a   001732 000011          	zero	s139,9
                                        	use	data
    001732  aa  151 157 137 163         s139:	aci	"io_signal"
    001733  aa  151 147 156 141
    001734  aa  154 000 000 000
                                   200  	normal	(index_cs_1),140
                                        	use	text
    000221  0a   001735 000012          	zero	s140,10
                                        	use	data
    001735  aa  151 156 144 145         s140:	aci	"index_cs_1"
    001736  aa  170 137 143 163
    001737  aa  137 061 000 000
                                   201  	normal	(index_cs_1_aligned),141
                                        	use	text
    000222  0a   001740 000022          	zero	s141,18
                                        	use	data
    001740  aa  151 156 144 145         s141:	aci	"index_cs_1_aligned"
    001741  aa  170 137 143 163
    001742  aa  137 061 137 141
    001743  aa  154 151 147 156
    001744  aa  145 144 000 000
                                   202  	normal	(fort_mdfl1),142
                                        	use	text
    000223  0a   001745 000012          	zero	s142,10
                                        	use	data
    001745  aa  146 157 162 164         s142:	aci	"fort_mdfl1"
    001746  aa  137 155 144 146
    001747  aa  154 061 000 000
                                   203  	normal	(rfb1_to_cflb1),143
                                        	use	text
    000224  0a   001750 000015          	zero	s143,13
                                        	use	data
    001750  aa  162 146 142 061         s143:	aci	"rfb1_to_cflb1"
    001751  aa  137 164 157 137
    001752  aa  143 146 154 142
    001753  aa  061 000 000 000
                                   204  	normal	(rfb2_to_cflb1),144
                                        	use	text
    000225  0a   001754 000015          	zero	s144,13
                                        	use	data
    001754  aa  162 146 142 062         s144:	aci	"rfb2_to_cflb1"
    001755  aa  137 164 157 137
    001756  aa  143 146 154 142
    001757  aa  061 000 000 000
                                   205  	normal	(mpcfl1_1),145
                                        	use	text
    000226  0a   001760 000010          	zero	s145,8
                                        	use	data
    001760  aa  155 160 143 146         s145:	aci	"mpcfl1_1"
    001761  aa  154 061 137 061
                                   206  	normal	(mpcfl1_2),146
                                        	use	text
    000227  0a   001762 000010          	zero	s146,8
                                        	use	data
    001762  aa  155 160 143 146         s146:	aci	"mpcfl1_2"
    001763  aa  154 061 137 062
                                   207  	normal	(dvcfl1_1),147
                                        	use	text
    000230  0a   001764 000010          	zero	s147,8
                                        	use	data
    001764  aa  144 166 143 146         s147:	aci	"dvcfl1_1"
    001765  aa  154 061 137 061
                                   208  	normal	(dvcfl1_2),148
                                        	use	text
    000231  0a   001766 000010          	zero	s148,8
                                        	use	data
    001766  aa  144 166 143 146         s148:	aci	"dvcfl1_2"
    001767  aa  154 061 137 062
                                   209  	normal	(chars_move_vt_co),149
                                        	use	text
    000232  0a   001770 000020          	zero	s149,16
                                        	use	data
    001770  aa  143 150 141 162         s149:	aci	"chars_move_vt_co"
    001771  aa  163 137 155 157
    001772  aa  166 145 137 166
    001773  aa  164 137 143 157
                                   210  	normal	(chars_move_vt_ho),150
                                        	use	text
    000233  0a   001774 000020          	zero	s150,16
                                        	use	data
    001774  aa  143 150 141 162         s150:	aci	"chars_move_vt_ho"
    001775  aa  163 137 155 157
    001776  aa  166 145 137 166
    001777  aa  164 137 150 157
                                   211  	normal	(chars_move_co),151
                                        	use	text
    000234  0a   002000 000015          	zero	s151,13
                                        	use	data
    002000  aa  143 150 141 162         s151:	aci	"chars_move_co"
    002001  aa  163 137 155 157
    002002  aa  166 145 137 143
    002003  aa  157 000 000 000
                                   212  	normal	(chars_move_ho),152
                                        	use	text
    000235  0a   002004 000015          	zero	s152,13
                                        	use	data
    002004  aa  143 150 141 162         s152:	aci	"chars_move_ho"
    002005  aa  163 137 155 157
    002006  aa  166 145 137 150
    002007  aa  157 000 000 000
                                   213  	normal	(bits_move_vt_co),153
                                        	use	text
    000236  0a   002010 000017          	zero	s153,15
                                        	use	data
    002010  aa  142 151 164 163         s153:	aci	"bits_move_vt_co"
    002011  aa  137 155 157 166
    002012  aa  145 137 166 164
    002013  aa  137 143 157 000
                                   214  	normal	(bits_move_vt_ho),154
                                        	use	text
    000237  0a   002014 000017          	zero	s154,15
                                        	use	data
    002014  aa  142 151 164 163         s154:	aci	"bits_move_vt_ho"
    002015  aa  137 155 157 166
    002016  aa  145 137 166 164
    002017  aa  137 150 157 000
                                   215  	normal	(bits_move_co),155
                                        	use	text
    000240  0a   002020 000014          	zero	s155,12
                                        	use	data
    002020  aa  142 151 164 163         s155:	aci	"bits_move_co"
    002021  aa  137 155 157 166
    002022  aa  145 137 143 157
                                   216  	normal	(bits_move_ho),156
                                        	use	text
    000241  0a   002023 000014          	zero	s156,12
                                        	use	data
    002023  aa  142 151 164 163         s156:	aci	"bits_move_ho"
    002024  aa  137 155 157 166
    002025  aa  145 137 150 157
                                   217  	normal	(cp_chars_co),157
                                        	use	text
    000242  0a   002026 000013          	zero	s157,11
                                        	use	data
    002026  aa  143 160 137 143         s157:	aci	"cp_chars_co"
    002027  aa  150 141 162 163
    002030  aa  137 143 157 000
                                   218  	normal	(cp_chars_ho),158
                                        	use	text
    000243  0a   002031 000013          	zero	s158,11
                                        	use	data
    002031  aa  143 160 137 143         s158:	aci	"cp_chars_ho"
    002032  aa  150 141 162 163
    002033  aa  137 150 157 000
                                   219  	normal	(cp_bits_co),159
                                        	use	text
    000244  0a   002034 000012          	zero	s159,10
                                        	use	data
    002034  aa  143 160 137 142         s159:	aci	"cp_bits_co"
    002035  aa  151 164 163 137
    002036  aa  143 157 000 000
                                   220  	normal	(cp_bits_ho),160
                                        	use	text
    000245  0a   002037 000012          	zero	s160,10
                                        	use	data
    002037  aa  143 160 137 142         s160:	aci	"cp_bits_ho"
    002040  aa  151 164 163 137
    002041  aa  150 157 000 000
                                   221  	normal	(cpbs3_co),161
                                        	use	text
    000246  0a   002042 000010          	zero	s161,8
                                        	use	data
    002042  aa  143 160 142 163         s161:	aci	"cpbs3_co"
    002043  aa  063 137 143 157
                                   222  	normal	(cpbs3_ho),162
                                        	use	text
    000247  0a   002044 000010          	zero	s162,8
                                        	use	data
    002044  aa  143 160 142 163         s162:	aci	"cpbs3_ho"
    002045  aa  063 137 150 157
                                   223  	normal	(shorten_stack),163
                                        	use	text
    000250  0a   002046 000015          	zero	s163,13
                                        	use	data
    002046  aa  163 150 157 162         s163:	aci	"shorten_stack"
    002047  aa  164 145 156 137
    002050  aa  163 164 141 143
    002051  aa  153 000 000 000
                                   224  	normal	(zero_bits),164
                                        	use	text
    000251  0a   002052 000011          	zero	s164,9
                                        	use	data
    002052  aa  172 145 162 157         s164:	aci	"zero_bits"
    002053  aa  137 142 151 164
    002054  aa  163 000 000 000
                                   225  	normal	(zero_bits_aligned),165
                                        	use	text
    000252  0a   002055 000021          	zero	s165,17
                                        	use	data
    002055  aa  172 145 162 157         s165:	aci	"zero_bits_aligned"
    002056  aa  137 142 151 164
    002057  aa  163 137 141 154
    002060  aa  151 147 156 145
    002061  aa  144 000 000 000
                                   226  	normal	(zero_bits_co),166
                                        	use	text
    000253  0a   002062 000014          	zero	s166,12
                                        	use	data
    002062  aa  172 145 162 157         s166:	aci	"zero_bits_co"
    002063  aa  137 142 151 164
    002064  aa  163 137 143 157
                                   227  	normal	(zero_bits_ho),167
                                        	use	text
    000254  0a   002065 000014          	zero	s167,12
                                        	use	data
    002065  aa  172 145 162 157         s167:	aci	"zero_bits_ho"
    002066  aa  137 142 151 164
    002067  aa  163 137 150 157
                                   228  	normal	(blank_chars),168
                                        	use	text
    000255  0a   002070 000013          	zero	s168,11
                                        	use	data
    002070  aa  142 154 141 156         s168:	aci	"blank_chars"
    002071  aa  153 137 143 150
    002072  aa  141 162 163 000
                                   229  	normal	(blank_chars_aligned),169
                                        	use	text
    000256  0a   002073 000023          	zero	s169,19
                                        	use	data
    002073  aa  142 154 141 156         s169:	aci	"blank_chars_aligned"
    002074  aa  153 137 143 150
    002075  aa  141 162 163 137
    002076  aa  141 154 151 147
    002077  aa  156 145 144 000
                                   230  	normal	(blank_chars_co),170
                                        	use	text
    000257  0a   002100 000016          	zero	s170,14
                                        	use	data
    002100  aa  142 154 141 156         s170:	aci	"blank_chars_co"
    002101  aa  153 137 143 150
    002102  aa  141 162 163 137
    002103  aa  143 157 000 000
                                   231  	normal	(blank_chars_ho),171
                                        	use	text
    000260  0a   002104 000016          	zero	s171,14
                                        	use	data
    002104  aa  142 154 141 156         s171:	aci	"blank_chars_ho"
    002105  aa  153 137 143 150
    002106  aa  141 162 163 137
    002107  aa  150 157 000 000
                                   232  	normal	(index_chars_co),172
                                        	use	text
    000261  0a   002110 000016          	zero	s172,14
                                        	use	data
    002110  aa  151 156 144 145         s172:	aci	"index_chars_co"
    002111  aa  170 137 143 150
    002112  aa  141 162 163 137
    002113  aa  143 157 000 000
                                   233  	normal	(index_chars_ho),173
                                        	use	text
    000262  0a   002114 000016          	zero	s173,14
                                        	use	data
    002114  aa  151 156 144 145         s173:	aci	"index_chars_ho"
    002115  aa  170 137 143 150
    002116  aa  141 162 163 137
    002117  aa  150 157 000 000
                                   234  	normal	(index_bits_co),174
                                        	use	text
    000263  0a   002120 000015          	zero	s174,13
                                        	use	data
    002120  aa  151 156 144 145         s174:	aci	"index_bits_co"
    002121  aa  170 137 142 151
    002122  aa  164 163 137 143
    002123  aa  157 000 000 000
                                   235  	normal	(index_bits_ho),175
                                        	use	text
    000264  0a   002124 000015          	zero	s175,13
                                        	use	data
    002124  aa  151 156 144 145         s175:	aci	"index_bits_ho"
    002125  aa  170 137 142 151
    002126  aa  164 163 137 150
    002127  aa  157 000 000 000
                                   236  	normal	(index_cs_1_co),176
                                        	use	text
    000265  0a   002130 000015          	zero	s176,13
                                        	use	data
    002130  aa  151 156 144 145         s176:	aci	"index_cs_1_co"
    002131  aa  170 137 143 163
    002132  aa  137 061 137 143
    002133  aa  157 000 000 000
                                   237  	normal	(index_cs_1_ho),177
                                        	use	text
    000266  0a   002134 000015          	zero	s177,13
                                        	use	data
    002134  aa  151 156 144 145         s177:	aci	"index_cs_1_ho"
    002135  aa  170 137 143 163
    002136  aa  137 061 137 150
    002137  aa  157 000 000 000
                                   238  	normal	(index_bs_1),178
                                        	use	text
    000267  0a   002140 000012          	zero	s178,10
                                        	use	data
    002140  aa  151 156 144 145         s178:	aci	"index_bs_1"
    002141  aa  170 137 142 163
    002142  aa  137 061 000 000
                                   239  	normal	(index_bs_1_aligned),179
                                        	use	text
    000270  0a   002143 000022          	zero	s179,18
                                        	use	data
    002143  aa  151 156 144 145         s179:	aci	"index_bs_1_aligned"
    002144  aa  170 137 142 163
    002145  aa  137 061 137 141
    002146  aa  154 151 147 156
    002147  aa  145 144 000 000
                                   240  	normal	(index_bs_1_co),180
                                        	use	text
    000271  0a   002150 000015          	zero	s180,13
                                        	use	data
    002150  aa  151 156 144 145         s180:	aci	"index_bs_1_co"
    002151  aa  170 137 142 163
    002152  aa  137 061 137 143
    002153  aa  157 000 000 000
                                   241  	normal	(index_bs_1_ho),181
                                        	use	text
    000272  0a   002154 000015          	zero	s181,13
                                        	use	data
    002154  aa  151 156 144 145         s181:	aci	"index_bs_1_ho"
    002155  aa  170 137 142 163
    002156  aa  137 061 137 150
    002157  aa  157 000 000 000
                                   242  	normal	(shift_bo),182
                                        	use	text
    000273  0a   002160 000010          	zero	s182,8
                                        	use	data
    002160  aa  163 150 151 146         s182:	aci	"shift_bo"
    002161  aa  164 137 142 157
                                   243  	normal	(return_words),183
                                        	use	text
    000274  0a   002162 000014          	zero	s183,12
                                        	use	data
    002162  aa  162 145 164 165         s183:	aci	"return_words"
    002163  aa  162 156 137 167
    002164  aa  157 162 144 163
                                   244  	normal	(return_bits),184
                                        	use	text
    000275  0a   002165 000013          	zero	s184,11
                                        	use	data
    002165  aa  162 145 164 165         s184:	aci	"return_bits"
    002166  aa  162 156 137 142
    002167  aa  151 164 163 000
                                   245  	normal	(return_bits_co),185
                                        	use	text
    000276  0a   002170 000016          	zero	s185,14
                                        	use	data
    002170  aa  162 145 164 165         s185:	aci	"return_bits_co"
    002171  aa  162 156 137 142
    002172  aa  151 164 163 137
    002173  aa  143 157 000 000
                                   246  	normal	(return_bits_ho),186
                                        	use	text
    000277  0a   002174 000016          	zero	s186,14
                                        	use	data
    002174  aa  162 145 164 165         s186:	aci	"return_bits_ho"
    002175  aa  162 156 137 142
    002176  aa  151 164 163 137
    002177  aa  150 157 000 000
                                   247  	normal	(return_bits_al),187
                                        	use	text
    000300  0a   002200 000016          	zero	s187,14
                                        	use	data
    002200  aa  162 145 164 165         s187:	aci	"return_bits_al"
    002201  aa  162 156 137 142
    002202  aa  151 164 163 137
    002203  aa  141 154 000 000
                                   248  	normal	(ext_entry),188
                                        	use	text
    000301  0a   002204 000011          	zero	s188,9
                                        	use	data
    002204  aa  145 170 164 137         s188:	aci	"ext_entry"
    002205  aa  145 156 164 162
    002206  aa  171 000 000 000
                                   249  	normal	(ext_entry_desc),189
                                        	use	text
    000302  0a   002207 000016          	zero	s189,14
                                        	use	data
    002207  aa  145 170 164 137         s189:	aci	"ext_entry_desc"
    002210  aa  145 156 164 162
    002211  aa  171 137 144 145
    002212  aa  163 143 000 000
                                   250  	normal	(int_entry),190
                                        	use	text
    000303  0a   002213 000011          	zero	s190,9
                                        	use	data
    002213  aa  151 156 164 137         s190:	aci	"int_entry"
    002214  aa  145 156 164 162
    002215  aa  171 000 000 000
                                   251  	normal	(int_entry_desc),191
                                        	use	text
    000304  0a   002216 000016          	zero	s191,14
                                        	use	data
    002216  aa  151 156 164 137         s191:	aci	"int_entry_desc"
    002217  aa  145 156 164 162
    002220  aa  171 137 144 145
    002221  aa  163 143 000 000
                                   252  	normal	(val_entry),192
                                        	use	text
    000305  0a   002222 000011          	zero	s192,9
                                        	use	data
    002222  aa  166 141 154 137         s192:	aci	"val_entry"
    002223  aa  145 156 164 162
    002224  aa  171 000 000 000
                                   253  	normal	(val_entry_desc),193
                                        	use	text
    000306  0a   002225 000016          	zero	s193,14
                                        	use	data
    002225  aa  166 141 154 137         s193:	aci	"val_entry_desc"
    002226  aa  145 156 164 162
    002227  aa  171 137 144 145
    002230  aa  163 143 000 000
                                   254  	normal	(get_chars_aligned),194
                                        	use	text
    000307  0a   002231 000021          	zero	s194,17
                                        	use	data
    002231  aa  147 145 164 137         s194:	aci	"get_chars_aligned"
    002232  aa  143 150 141 162
    002233  aa  163 137 141 154
    002234  aa  151 147 156 145
    002235  aa  144 000 000 000
                                   255  	normal	(get_bits_aligned),195
                                        	use	text
    000310  0a   002236 000020          	zero	s195,16
                                        	use	data
    002236  aa  147 145 164 137         s195:	aci	"get_bits_aligned"
    002237  aa  142 151 164 163
    002240  aa  137 141 154 151
    002241  aa  147 156 145 144
                                   256  	normal	(fetch_chars),196
                                        	use	text
    000311  0a   002242 000013          	zero	s196,11
                                        	use	data
    002242  aa  146 145 164 143         s196:	aci	"fetch_chars"
    002243  aa  150 137 143 150
    002244  aa  141 162 163 000
                                   257  	normal	(fetch_bits),197
                                        	use	text
    000312  0a   002245 000012          	zero	s197,10
                                        	use	data
    002245  aa  146 145 164 143         s197:	aci	"fetch_bits"
    002246  aa  150 137 142 151
    002247  aa  164 163 000 000
                                   258  	normal	(get_terminate),198
                                        	use	text
    000313  0a   002250 000015          	zero	s198,13
                                        	use	data
    002250  aa  147 145 164 137         s198:	aci	"get_terminate"
    002251  aa  164 145 162 155
    002252  aa  151 156 141 164
    002253  aa  145 000 000 000
                                   259  	normal	(put_terminate),199
                                        	use	text
    000314  0a   002254 000015          	zero	s199,13
                                        	use	data
    002254  aa  160 165 164 137         s199:	aci	"put_terminate"
    002255  aa  164 145 162 155
    002256  aa  151 156 141 164
    002257  aa  145 000 000 000
                                   260  	normal	(put_data_aligned),200
                                        	use	text
    000315  0a   002260 000020          	zero	s200,16
                                        	use	data
    002260  aa  160 165 164 137         s200:	aci	"put_data_aligned"
    002261  aa  144 141 164 141
    002262  aa  137 141 154 151
    002263  aa  147 156 145 144
                                   261  	normal	(get_list_aligned),201
                                        	use	text
    000316  0a   002264 000020          	zero	s201,16
                                        	use	data
    002264  aa  147 145 164 137         s201:	aci	"get_list_aligned"
    002265  aa  154 151 163 164
    002266  aa  137 141 154 151
    002267  aa  147 156 145 144
                                   262  	normal	(get_edit_aligned),202
                                        	use	text
    000317  0a   002270 000020          	zero	s202,16
                                        	use	data
    002270  aa  147 145 164 137         s202:	aci	"get_edit_aligned"
    002271  aa  145 144 151 164
    002272  aa  137 141 154 151
    002273  aa  147 156 145 144
                                   263  	normal	(put_list_aligned),203
                                        	use	text
    000320  0a   002274 000020          	zero	s203,16
                                        	use	data
    002274  aa  160 165 164 137         s203:	aci	"put_list_aligned"
    002275  aa  154 151 163 164
    002276  aa  137 141 154 151
    002277  aa  147 156 145 144
                                   264  	normal	(put_edit_aligned),204
                                        	use	text
    000321  0a   002300 000020          	zero	s204,16
                                        	use	data
    002300  aa  160 165 164 137         s204:	aci	"put_edit_aligned"
    002301  aa  145 144 151 164
    002302  aa  137 141 154 151
    002303  aa  147 156 145 144
                                   265  	normal	(strem_prep),205
                                        	use	text
    000322  0a   002304 000012          	zero	s205,10
                                        	use	data
    002304  aa  163 164 162 145         s205:	aci	"strem_prep"
    002305  aa  155 137 160 162
    002306  aa  145 160 000 000
                                   266  	normal	(record_io),206
                                        	use	text
    000323  0a   002307 000011          	zero	s206,9
                                        	use	data
    002307  aa  162 145 143 157         s206:	aci	"record_io"
    002310  aa  162 144 137 151
    002311  aa  157 000 000 000
                                   267  	normal	(open_file),207
                                        	use	text
    000324  0a   002312 000011          	zero	s207,9
                                        	use	data
    002312  aa  157 160 145 156         s207:	aci	"open_file"
    002313  aa  137 146 151 154
    002314  aa  145 000 000 000
                                   268  	normal	(close_file),208
                                        	use	text
    000325  0a   002315 000012          	zero	s208,10
                                        	use	data
    002315  aa  143 154 157 163         s208:	aci	"close_file"
    002316  aa  145 137 146 151
    002317  aa  154 145 000 000
                                   269  	normal	(put_data),209
                                        	use	text
    000326  0a   002320 000010          	zero	s209,8
                                        	use	data
    002320  aa  160 165 164 137         s209:	aci	"put_data"
    002321  aa  144 141 164 141
                                   270  	normal	(put_data_co),210
                                        	use	text
    000327  0a   002322 000013          	zero	s210,11
                                        	use	data
    002322  aa  160 165 164 137         s210:	aci	"put_data_co"
    002323  aa  144 141 164 141
    002324  aa  137 143 157 000
                                   271  	normal	(put_data_ho),211
                                        	use	text
    000330  0a   002325 000013          	zero	s211,11
                                        	use	data
    002325  aa  160 165 164 137         s211:	aci	"put_data_ho"
    002326  aa  144 141 164 141
    002327  aa  137 150 157 000
                                   272  	normal	(get_list),212
                                        	use	text
    000331  0a   002330 000010          	zero	s212,8
                                        	use	data
    002330  aa  147 145 164 137         s212:	aci	"get_list"
    002331  aa  154 151 163 164
                                   273  	normal	(get_list_co),213
                                        	use	text
    000332  0a   002332 000013          	zero	s213,11
                                        	use	data
    002332  aa  147 145 164 137         s213:	aci	"get_list_co"
    002333  aa  154 151 163 164
    002334  aa  137 143 157 000
                                   274  	normal	(get_list_ho),214
                                        	use	text
    000333  0a   002335 000013          	zero	s214,11
                                        	use	data
    002335  aa  147 145 164 137         s214:	aci	"get_list_ho"
    002336  aa  154 151 163 164
    002337  aa  137 150 157 000
                                   275  	normal	(get_edit),215
                                        	use	text
    000334  0a   002340 000010          	zero	s215,8
                                        	use	data
    002340  aa  147 145 164 137         s215:	aci	"get_edit"
    002341  aa  145 144 151 164
                                   276  	normal	(get_edit_co),216
                                        	use	text
    000335  0a   002342 000013          	zero	s216,11
                                        	use	data
    002342  aa  147 145 164 137         s216:	aci	"get_edit_co"
    002343  aa  145 144 151 164
    002344  aa  137 143 157 000
                                   277  	normal	(get_edit_ho),217
                                        	use	text
    000336  0a   002345 000013          	zero	s217,11
                                        	use	data
    002345  aa  147 145 164 137         s217:	aci	"get_edit_ho"
    002346  aa  145 144 151 164
    002347  aa  137 150 157 000
                                   278  	normal	(put_list),218
                                        	use	text
    000337  0a   002350 000010          	zero	s218,8
                                        	use	data
    002350  aa  160 165 164 137         s218:	aci	"put_list"
    002351  aa  154 151 163 164
                                   279  	normal	(put_list_co),219
                                        	use	text
    000340  0a   002352 000013          	zero	s219,11
                                        	use	data
    002352  aa  160 165 164 137         s219:	aci	"put_list_co"
    002353  aa  154 151 163 164
    002354  aa  137 143 157 000
                                   280  	normal	(put_list_ho),220
                                        	use	text
    000341  0a   002355 000013          	zero	s220,11
                                        	use	data
    002355  aa  160 165 164 137         s220:	aci	"put_list_ho"
    002356  aa  154 151 163 164
    002357  aa  137 150 157 000
                                   281  	normal	(put_edit),221
                                        	use	text
    000342  0a   002360 000010          	zero	s221,8
                                        	use	data
    002360  aa  160 165 164 137         s221:	aci	"put_edit"
    002361  aa  145 144 151 164
                                   282  	normal	(put_edit_co),222
                                        	use	text
    000343  0a   002362 000013          	zero	s222,11
                                        	use	data
    002362  aa  160 165 164 137         s222:	aci	"put_edit_co"
    002363  aa  145 144 151 164
    002364  aa  137 143 157 000
                                   283  	normal	(put_edit_ho),223
                                        	use	text
    000344  0a   002365 000013          	zero	s223,11
                                        	use	data
    002365  aa  160 165 164 137         s223:	aci	"put_edit_ho"
    002366  aa  145 144 151 164
    002367  aa  137 150 157 000
                                   284  	normal	(suffix_cs),224
                                        	use	text
    000345  0a   002370 000011          	zero	s224,9
                                        	use	data
    002370  aa  163 165 146 146         s224:	aci	"suffix_cs"
    002371  aa  151 170 137 143
    002372  aa  163 000 000 000
                                   285  	normal	(suffix_bs),225
                                        	use	text
    000346  0a   002373 000011          	zero	s225,9
                                        	use	data
    002373  aa  163 165 146 146         s225:	aci	"suffix_bs"
    002374  aa  151 170 137 142
    002375  aa  163 000 000 000
                                   286  	normal	(fl2_to_fxscaled),226
                                        	use	text
    000347  0a   002376 000017          	zero	s226,15
                                        	use	data
    002376  aa  146 154 062 137         s226:	aci	"fl2_to_fxscaled"
    002377  aa  164 157 137 146
    002400  aa  170 163 143 141
    002401  aa  154 145 144 000
                                   287  	normal	(trunc_fx1),227
                                        	use	text
    000350  0a   002402 000011          	zero	s227,9
                                        	use	data
    002402  aa  164 162 165 156         s227:	aci	"trunc_fx1"
    002403  aa  143 137 146 170
    002404  aa  061 000 000 000
                                   288  	normal	(trunc_fx2),228
                                        	use	text
    000351  0a   002405 000011          	zero	s228,9
                                        	use	data
    002405  aa  164 162 165 156         s228:	aci	"trunc_fx2"
    002406  aa  143 137 146 170
    002407  aa  062 000 000 000
                                   289  	normal	(ceil_fx1),229
                                        	use	text
    000352  0a   002410 000010          	zero	s229,8
                                        	use	data
    002410  aa  143 145 151 154         s229:	aci	"ceil_fx1"
    002411  aa  137 146 170 061
                                   290  	normal	(ceil_fx2),230
                                        	use	text
    000353  0a   002412 000010          	zero	s230,8
                                        	use	data
    002412  aa  143 145 151 154         s230:	aci	"ceil_fx2"
    002413  aa  137 146 170 062
                                   291  	normal	(ceil_fl),231
                                        	use	text
    000354  0a   002414 000007          	zero	s231,7
                                        	use	data
    002414  aa  143 145 151 154         s231:	aci	"ceil_fl"
    002415  aa  137 146 154 000
                                   292  	normal	(floor_fx1),232
                                        	use	text
    000355  0a   002416 000011          	zero	s232,9
                                        	use	data
    002416  aa  146 154 157 157         s232:	aci	"floor_fx1"
    002417  aa  162 137 146 170
    002420  aa  061 000 000 000
                                   293  	normal	(floor_fx2),233
                                        	use	text
    000356  0a   002421 000011          	zero	s233,9
                                        	use	data
    002421  aa  146 154 157 157         s233:	aci	"floor_fx2"
    002422  aa  162 137 146 170
    002423  aa  062 000 000 000
                                   294  	normal	(floor_fl),234
                                        	use	text
    000357  0a   002424 000010          	zero	s234,8
                                        	use	data
    002424  aa  146 154 157 157         s234:	aci	"floor_fl"
    002425  aa  162 137 146 154
                                   295  	normal	(trunc_fl),235
                                        	use	text
    000360  0a   002426 000010          	zero	s235,8
                                        	use	data
    002426  aa  164 162 165 156         s235:	aci	"trunc_fl"
    002427  aa  143 137 146 154
                                   296  	normal	(round_fx1),236
                                        	use	text
    000361  0a   002430 000011          	zero	s236,9
                                        	use	data
    002430  aa  162 157 165 156         s236:	aci	"round_fx1"
    002431  aa  144 137 146 170
    002432  aa  061 000 000 000
                                   297  	normal	(round_fx2),237
                                        	use	text
    000362  0a   002433 000011          	zero	s237,9
                                        	use	data
    002433  aa  162 157 165 156         s237:	aci	"round_fx2"
    002434  aa  144 137 146 170
    002435  aa  062 000 000 000
                                   298  	normal	(repeat),238
                                        	use	text
    000363  0a   002436 000006          	zero	s238,6
                                        	use	data
    002436  aa  162 145 160 145         s238:	aci	"repeat"
    002437  aa  141 164 000 000
                                   299  	normal	(make_bit_table),239
                                        	use	text
    000364  0a   002440 000016          	zero	s239,14
                                        	use	data
    002440  aa  155 141 153 145         s239:	aci	"make_bit_table"
    002441  aa  137 142 151 164
    002442  aa  137 164 141 142
    002443  aa  154 145 000 000
                                   300  	normal	(make_bit_table_al),240
                                        	use	text
    000365  0a   002444 000021          	zero	s240,17
                                        	use	data
    002444  aa  155 141 153 145         s240:	aci	"make_bit_table_al"
    002445  aa  137 142 151 164
    002446  aa  137 164 141 142
    002447  aa  154 145 137 141
    002450  aa  154 000 000 000
                                   301  	normal	(make_bit_table_co),241
                                        	use	text
    000366  0a   002451 000021          	zero	s241,17
                                        	use	data
    002451  aa  155 141 153 145         s241:	aci	"make_bit_table_co"
    002452  aa  137 142 151 164
    002453  aa  137 164 141 142
    002454  aa  154 145 137 143
    002455  aa  157 000 000 000
                                   302  	normal	(make_bit_table_ho),242
                                        	use	text
    000367  0a   002456 000021          	zero	s242,17
                                        	use	data
    002456  aa  155 141 153 145         s242:	aci	"make_bit_table_ho"
    002457  aa  137 142 151 164
    002460  aa  137 164 141 142
    002461  aa  154 145 137 150
    002462  aa  157 000 000 000
                                   303  	normal	(verify),243
                                        	use	text
    000370  0a   002463 000006          	zero	s243,6
                                        	use	data
    002463  aa  166 145 162 151         s243:	aci	"verify"
    002464  aa  146 171 000 000
                                   304  	normal	(verify_al),244
                                        	use	text
    000371  0a   002465 000011          	zero	s244,9
                                        	use	data
    002465  aa  166 145 162 151         s244:	aci	"verify_al"
    002466  aa  146 171 137 141
    002467  aa  154 000 000 000
                                   305  	normal	(verify_co),245
                                        	use	text
    000372  0a   002470 000011          	zero	s245,9
                                        	use	data
    002470  aa  166 145 162 151         s245:	aci	"verify_co"
    002471  aa  146 171 137 143
    002472  aa  157 000 000 000
                                   306  	normal	(verify_ho),246
                                        	use	text
    000373  0a   002473 000011          	zero	s246,9
                                        	use	data
    002473  aa  166 145 162 151         s246:	aci	"verify_ho"
    002474  aa  146 171 137 150
    002475  aa  157 000 000 000
                                   307  	normal	(const_verify),247
                                        	use	text
    000374  0a   002476 000014          	zero	s247,12
                                        	use	data
    002476  aa  143 157 156 163         s247:	aci	"const_verify"
    002477  aa  164 137 166 145
    002500  aa  162 151 146 171
                                   308  	normal	(const_verify_al),248
                                        	use	text
    000375  0a   002501 000017          	zero	s248,15
                                        	use	data
    002501  aa  143 157 156 163         s248:	aci	"const_verify_al"
    002502  aa  164 137 166 145
    002503  aa  162 151 146 171
    002504  aa  137 141 154 000
                                   309  	normal	(const_verify_co),249
                                        	use	text
    000376  0a   002505 000017          	zero	s249,15
                                        	use	data
    002505  aa  143 157 156 163         s249:	aci	"const_verify_co"
    002506  aa  164 137 166 145
    002507  aa  162 151 146 171
    002510  aa  137 143 157 000
                                   310  	normal	(const_verify_ho),250
                                        	use	text
    000377  0a   002511 000017          	zero	s250,15
                                        	use	data
    002511  aa  143 157 156 163         s250:	aci	"const_verify_ho"
    002512  aa  164 137 166 145
    002513  aa  162 151 146 171
    002514  aa  137 150 157 000
                                   311  	normal	(reverse_cs),251
                                        	use	text
    000400  0a   002515 000012          	zero	s251,10
                                        	use	data
    002515  aa  162 145 166 145         s251:	aci	"reverse_cs"
    002516  aa  162 163 145 137
    002517  aa  143 163 000 000
                                   312  	normal	(reverse_bs),252
                                        	use	text
    000401  0a   002520 000012          	zero	s252,10
                                        	use	data
    002520  aa  162 145 166 145         s252:	aci	"reverse_bs"
    002521  aa  162 163 145 137
    002522  aa  142 163 000 000
                                   313  	normal	(form_bit_table),253
                                        	use	text
    000402  0a   002523 000016          	zero	s253,14
                                        	use	data
    002523  aa  146 157 162 155         s253:	aci	"form_bit_table"
    002524  aa  137 142 151 164
    002525  aa  137 164 141 142
    002526  aa  154 145 000 000
                                   314  	normal	(form_bit_table_co),254
                                        	use	text
    000403  0a   002527 000021          	zero	s254,17
                                        	use	data
    002527  aa  146 157 162 155         s254:	aci	"form_bit_table_co"
    002530  aa  137 142 151 164
    002531  aa  137 164 141 142
    002532  aa  154 145 137 143
    002533  aa  157 000 000 000
                                   315  	normal	(form_bit_table_ho),255
                                        	use	text
    000404  0a   002534 000021          	zero	s255,17
                                        	use	data
    002534  aa  146 157 162 155         s255:	aci	"form_bit_table_ho"
    002535  aa  137 142 151 164
    002536  aa  137 164 141 142
    002537  aa  154 145 137 150
    002540  aa  157 000 000 000
                                   316  	normal	(form_bit_table_al),256
                                        	use	text
    000405  0a   002541 000021          	zero	s256,17
                                        	use	data
    002541  aa  146 157 162 155         s256:	aci	"form_bit_table_al"
    002542  aa  137 142 151 164
    002543  aa  137 164 141 142
    002544  aa  154 145 137 141
    002545  aa  154 000 000 000
                                   317  	normal	(chars_move_ck),257
                                        	use	text
    000406  0a   002546 000015          	zero	s257,13
                                        	use	data
    002546  aa  143 150 141 162         s257:	aci	"chars_move_ck"
    002547  aa  163 137 155 157
    002550  aa  166 145 137 143
    002551  aa  153 000 000 000
                                   318  	normal	(chars_move_ck_co),258
                                        	use	text
    000407  0a   002552 000020          	zero	s258,16
                                        	use	data
    002552  aa  143 150 141 162         s258:	aci	"chars_move_ck_co"
    002553  aa  163 137 155 157
    002554  aa  166 145 137 143
    002555  aa  153 137 143 157
                                   319  	normal	(chars_move_ck_ho),259
                                        	use	text
    000410  0a   002556 000020          	zero	s259,16
                                        	use	data
    002556  aa  143 150 141 162         s259:	aci	"chars_move_ck_ho"
    002557  aa  163 137 155 157
    002560  aa  166 145 137 143
    002561  aa  153 137 150 157
                                   320  	normal	(chars_move_ck_al),260
                                        	use	text
    000411  0a   002562 000020          	zero	s260,16
                                        	use	data
    002562  aa  143 150 141 162         s260:	aci	"chars_move_ck_al"
    002563  aa  163 137 155 157
    002564  aa  166 145 137 143
    002565  aa  153 137 141 154
                                   321  	normal	(bits_move_ck),261
                                        	use	text
    000412  0a   002566 000014          	zero	s261,12
                                        	use	data
    002566  aa  142 151 164 163         s261:	aci	"bits_move_ck"
    002567  aa  137 155 157 166
    002570  aa  145 137 143 153
                                   322  	normal	(bits_move_ck_co),262
                                        	use	text
    000413  0a   002571 000017          	zero	s262,15
                                        	use	data
    002571  aa  142 151 164 163         s262:	aci	"bits_move_ck_co"
    002572  aa  137 155 157 166
    002573  aa  145 137 143 153
    002574  aa  137 143 157 000
                                   323  	normal	(bits_move_ck_ho),263
                                        	use	text
    000414  0a   002575 000017          	zero	s263,15
                                        	use	data
    002575  aa  142 151 164 163         s263:	aci	"bits_move_ck_ho"
    002576  aa  137 155 157 166
    002577  aa  145 137 143 153
    002600  aa  137 150 157 000
                                   324  	normal	(bits_move_ck_al),264
                                        	use	text
    000415  0a   002601 000017          	zero	s264,15
                                        	use	data
    002601  aa  142 151 164 163         s264:	aci	"bits_move_ck_al"
    002602  aa  137 155 157 166
    002603  aa  145 137 143 153
    002604  aa  137 141 154 000
                                   325  	normal	(size_check_fx1),265
                                        	use	text
    000416  0a   002605 000016          	zero	s265,14
                                        	use	data
    002605  aa  163 151 172 145         s265:	aci	"size_check_fx1"
    002606  aa  137 143 150 145
    002607  aa  143 153 137 146
    002610  aa  170 061 000 000
                                   326  	normal	(size_check_fx2),266
                                        	use	text
    000417  0a   002611 000016          	zero	s266,14
                                        	use	data
    002611  aa  163 151 172 145         s266:	aci	"size_check_fx2"
    002612  aa  137 143 150 145
    002613  aa  143 153 137 146
    002614  aa  170 062 000 000
                                   327  	normal	(signal_stringsize),267
                                        	use	text
    000420  0a   002615 000021          	zero	s267,17
                                        	use	data
    002615  aa  163 151 147 156         s267:	aci	"signal_stringsize"
    002616  aa  141 154 137 163
    002617  aa  164 162 151 156
    002620  aa  147 163 151 172
    002621  aa  145 000 000 000
                                   328  	normal	(suffix_cs_ck),268
                                        	use	text
    000421  0a   002622 000014          	zero	s268,12
                                        	use	data
    002622  aa  163 165 146 146         s268:	aci	"suffix_cs_ck"
    002623  aa  151 170 137 143
    002624  aa  163 137 143 153
                                   329  	normal	(suffix_bs_ck),269
                                        	use	text
    000422  0a   002625 000014          	zero	s269,12
                                        	use	data
    002625  aa  163 165 146 146         s269:	aci	"suffix_bs_ck"
    002626  aa  151 170 137 142
    002627  aa  163 137 143 153
                                   330  	normal	(pointer_hard),270
                                        	use	text
    000423  0a   002630 000014          	zero	s270,12
                                        	use	data
    002630  aa  160 157 151 156         s270:	aci	"pointer_hard"
    002631  aa  164 145 162 137
    002632  aa  150 141 162 144
                                   331  	normal	(alm_call),271
                                        	use	text
    000424  0a   002633 000010          	zero	s271,8
                                        	use	data
    002633  aa  141 154 155 137         s271:	aci	"alm_call"
    002634  aa  143 141 154 154
                                   332  	normal	(alm_push),272
                                        	use	text
    000425  0a   002635 000010          	zero	s272,8
                                        	use	data
    002635  aa  141 154 155 137         s272:	aci	"alm_push"
    002636  aa  160 165 163 150
                                   333  	normal	(alm_return),273
                                        	use	text
    000426  0a   002637 000012          	zero	s273,10
                                        	use	data
    002637  aa  141 154 155 137         s273:	aci	"alm_return"
    002640  aa  162 145 164 165
    002641  aa  162 156 000 000
                                   334  	normal	(alm_return_no_pop),274
                                        	use	text
    000427  0a   002642 000021          	zero	s274,17
                                        	use	data
    002642  aa  141 154 155 137         s274:	aci	"alm_return_no_pop"
    002643  aa  162 145 164 165
    002644  aa  162 156 137 156
    002645  aa  157 137 160 157
    002646  aa  160 000 000 000
                                   335  	normal	(alm_entry),275
                                        	use	text
    000430  0a   002647 000011          	zero	s275,9
                                        	use	data
    002647  aa  141 154 155 137         s275:	aci	"alm_entry"
    002650  aa  145 156 164 162
    002651  aa  171 000 000 000
                                   336  	normal	(packed_to_bp),276
                                        	use	text
    000431  0a   002652 000014          	zero	s276,12
                                        	use	data
    002652  aa  160 141 143 153         s276:	aci	"packed_to_bp"
    002653  aa  145 144 137 164
    002654  aa  157 137 142 160
                                   337  	normal	(return_chars),277
                                        	use	text
    000432  0a   002655 000014          	zero	s277,12
                                        	use	data
    002655  aa  162 145 164 165         s277:	aci	"return_chars"
    002656  aa  162 156 137 143
    002657  aa  150 141 162 163
                                   338  	normal	(return_chars_co),278
                                        	use	text
    000433  0a   002660 000017          	zero	s278,15
                                        	use	data
    002660  aa  162 145 164 165         s278:	aci	"return_chars_co"
    002661  aa  162 156 137 143
    002662  aa  150 141 162 163
    002663  aa  137 143 157 000
                                   339  	normal	(return_chars_ho),279
                                        	use	text
    000434  0a   002664 000017          	zero	s279,15
                                        	use	data
    002664  aa  162 145 164 165         s279:	aci	"return_chars_ho"
    002665  aa  162 156 137 143
    002666  aa  150 141 162 163
    002667  aa  137 150 157 000
                                   340  	normal	(return_chars_aligned),280
                                        	use	text
    000435  0a   002670 000024          	zero	s280,20
                                        	use	data
    002670  aa  162 145 164 165         s280:	aci	"return_chars_aligned"
    002671  aa  162 156 137 143
    002672  aa  150 141 162 163
    002673  aa  137 141 154 151
    002674  aa  147 156 145 144
                                   341  	normal	(rpd_odd_lp_bp),281
                                        	use	text
    000436  0a   002675 000015          	zero	s281,13
                                        	use	data
    002675  aa  162 160 144 137         s281:	aci	"rpd_odd_lp_bp"
    002676  aa  157 144 144 137
    002677  aa  154 160 137 142
    002700  aa  160 000 000 000
                                   342  	normal	(rpd_odd_bp_lp),282
                                        	use	text
    000437  0a   002701 000015          	zero	s282,13
                                        	use	data
    002701  aa  162 160 144 137         s282:	aci	"rpd_odd_bp_lp"
    002702  aa  157 144 144 137
    002703  aa  142 160 137 154
    002704  aa  160 000 000 000
                                   343  	normal	(rpd_even_lp_bp),283
                                        	use	text
    000440  0a   002705 000016          	zero	s283,14
                                        	use	data
    002705  aa  162 160 144 137         s283:	aci	"rpd_even_lp_bp"
    002706  aa  145 166 145 156
    002707  aa  137 154 160 137
    002710  aa  142 160 000 000
                                   344  	normal	(rpd_even_bp_lp),284
                                        	use	text
    000441  0a   002711 000016          	zero	s284,14
                                        	use	data
    002711  aa  162 160 144 137         s284:	aci	"rpd_even_bp_lp"
    002712  aa  145 166 145 156
    002713  aa  137 142 160 137
    002714  aa  154 160 000 000
                                   345  	normal	(offset_easy),285
                                        	use	text
    000442  0a   002715 000013          	zero	s285,11
                                        	use	data
    002715  aa  157 146 146 163         s285:	aci	"offset_easy"
    002716  aa  145 164 137 145
    002717  aa  141 163 171 000
                                   346  	normal	(offset_easy_pk),286
                                        	use	text
    000443  0a   002720 000016          	zero	s286,14
                                        	use	data
    002720  aa  157 146 146 163         s286:	aci	"offset_easy_pk"
    002721  aa  145 164 137 145
    002722  aa  141 163 171 137
    002723  aa  160 153 000 000
                                   347  	normal	(offset_hard),287
                                        	use	text
    000444  0a   002724 000013          	zero	s287,11
                                        	use	data
    002724  aa  157 146 146 163         s287:	aci	"offset_hard"
    002725  aa  145 164 137 150
    002726  aa  141 162 144 000
                                   348  	normal	(offset_hard_pk),288
                                        	use	text
    000445  0a   002727 000016          	zero	s288,14
                                        	use	data
    002727  aa  157 146 146 163         s288:	aci	"offset_hard_pk"
    002730  aa  145 164 137 150
    002731  aa  141 162 144 137
    002732  aa  160 153 000 000
                                   349  	normal	(pointer_hard_pk),289
                                        	use	text
    000446  0a   002733 000017          	zero	s289,15
                                        	use	data
    002733  aa  160 157 151 156         s289:	aci	"pointer_hard_pk"
    002734  aa  164 145 162 137
    002735  aa  150 141 162 144
    002736  aa  137 160 153 000
                                   350  	normal	(pointer_easy),290
                                        	use	text
    000447  0a   002737 000014          	zero	s290,12
                                        	use	data
    002737  aa  160 157 151 156         s290:	aci	"pointer_easy"
    002740  aa  164 145 162 137
    002741  aa  145 141 163 171
                                   351  	normal	(pointer_easy_pk),291
                                        	use	text
    000450  0a   002742 000017          	zero	s291,15
                                        	use	data
    002742  aa  160 157 151 156         s291:	aci	"pointer_easy_pk"
    002743  aa  164 145 162 137
    002744  aa  145 141 163 171
    002745  aa  137 160 153 000
                                   352  	normal	(round_fl),292
                                        	use	text
    000451  0a   002746 000010          	zero	s292,8
                                        	use	data
    002746  aa  162 157 165 156         s292:	aci	"round_fl"
    002747  aa  144 137 146 154
                                   353  	normal	(enable_file),293
                                        	use	text
    000452  0a   002750 000013          	zero	s293,11
                                        	use	data
    002750  aa  145 156 141 142         s293:	aci	"enable_file"
    002751  aa  154 145 137 146
    002752  aa  151 154 145 000
                                   354  	normal	(revert_file),294
                                        	use	text
    000453  0a   002753 000013          	zero	s294,11
                                        	use	data
    002753  aa  162 145 166 145         s294:	aci	"revert_file"
    002754  aa  162 164 137 146
    002755  aa  151 154 145 000
                                   355  	normal	(alloc_block),295
                                        	use	text
    000454  0a   002756 000013          	zero	s295,11
                                        	use	data
    002756  aa  141 154 154 157         s295:	aci	"alloc_block"
    002757  aa  143 137 142 154
    002760  aa  157 143 153 000
                                   356  	normal	(free_block),296
                                        	use	text
    000455  0a   002761 000012          	zero	s296,10
                                        	use	data
    002761  aa  146 162 145 145         s296:	aci	"free_block"
    002762  aa  137 142 154 157
    002763  aa  143 153 000 000
                                   357  	normal	(push_ctl_data),297
                                        	use	text
    000456  0a   002764 000015          	zero	s297,13
                                        	use	data
    002764  aa  160 165 163 150         s297:	aci	"push_ctl_data"
    002765  aa  137 143 164 154
    002766  aa  137 144 141 164
    002767  aa  141 000 000 000
                                   358  	normal	(push_ctl_desc),298
                                        	use	text
    000457  0a   002770 000015          	zero	s298,13
                                        	use	data
    002770  aa  160 165 163 150         s298:	aci	"push_ctl_desc"
    002771  aa  137 143 164 154
    002772  aa  137 144 145 163
    002773  aa  143 000 000 000
                                   359  	normal	(pop_ctl_data),299
                                        	use	text
    000460  0a   002774 000014          	zero	s299,12
                                        	use	data
    002774  aa  160 157 160 137         s299:	aci	"pop_ctl_data"
    002775  aa  143 164 154 137
    002776  aa  144 141 164 141
                                   360  	normal	(pop_ctl_desc),300
                                        	use	text
    000461  0a   002777 000014          	zero	s300,12
                                        	use	data
    002777  aa  160 157 160 137         s300:	aci	"pop_ctl_desc"
    003000  aa  143 164 154 137
    003001  aa  144 145 163 143
                                   361  	normal	(allocation),301
                                        	use	text
    000462  0a   003002 000012          	zero	s301,10
                                        	use	data
    003002  aa  141 154 154 157         s301:	aci	"allocation"
    003003  aa  143 141 164 151
    003004  aa  157 156 000 000
                                   362  	normal	(set_chars_eis),302
                                        	use	text
    000463  0a   003005 000015          	zero	s302,13
                                        	use	data
    003005  aa  163 145 164 137         s302:	aci	"set_chars_eis"
    003006  aa  143 150 141 162
    003007  aa  163 137 145 151
    003010  aa  163 000 000 000
                                   363  	normal	(set_bits_eis),303
                                        	use	text
    000464  0a   003011 000014          	zero	s303,12
                                        	use	data
    003011  aa  163 145 164 137         s303:	aci	"set_bits_eis"
    003012  aa  142 151 164 163
    003013  aa  137 145 151 163
                                   364  	normal	(index_chars_eis),304
                                        	use	text
    000465  0a   003014 000017          	zero	s304,15
                                        	use	data
    003014  aa  151 156 144 145         s304:	aci	"index_chars_eis"
    003015  aa  170 137 143 150
    003016  aa  141 162 163 137
    003017  aa  145 151 163 000
                                   365  	normal	(index_bits_eis),305
                                        	use	text
    000466  0a   003020 000016          	zero	s305,14
                                        	use	data
    003020  aa  151 156 144 145         s305:	aci	"index_bits_eis"
    003021  aa  170 137 142 151
    003022  aa  164 163 137 145
    003023  aa  151 163 000 000
                                   366  	normal	(index_cs_1_eis),306
                                        	use	text
    000467  0a   003024 000016          	zero	s306,14
                                        	use	data
    003024  aa  151 156 144 145         s306:	aci	"index_cs_1_eis"
    003025  aa  170 137 143 163
    003026  aa  137 061 137 145
    003027  aa  151 163 000 000
                                   367  	normal	(index_bs_1_eis),307
                                        	use	text
    000470  0a   003030 000016          	zero	s307,14
                                        	use	data
    003030  aa  151 156 144 145         s307:	aci	"index_bs_1_eis"
    003031  aa  170 137 142 163
    003032  aa  137 061 137 145
    003033  aa  151 163 000 000
                                   368  	normal	(return_chars_eis),308
                                        	use	text
    000471  0a   003034 000020          	zero	s308,16
                                        	use	data
    003034  aa  162 145 164 165         s308:	aci	"return_chars_eis"
    003035  aa  162 156 137 143
    003036  aa  150 141 162 163
    003037  aa  137 145 151 163
                                   369  	normal	(return_bits_eis),309
                                        	use	text
    000472  0a   003040 000017          	zero	s309,15
                                        	use	data
    003040  aa  162 145 164 165         s309:	aci	"return_bits_eis"
    003041  aa  162 156 137 142
    003042  aa  151 164 163 137
    003043  aa  145 151 163 000
                                   370  	normal	(put_data_eis),310
                                        	use	text
    000473  0a   003044 000014          	zero	s310,12
                                        	use	data
    003044  aa  160 165 164 137         s310:	aci	"put_data_eis"
    003045  aa  144 141 164 141
    003046  aa  137 145 151 163
                                   371  	normal	(put_format_),311
                                        	use	text
    000474  0a   003047 000013          	zero	s311,11
                                        	use	data
    003047  aa  160 165 164 137         s311:	aci	"put_format_"
    003050  aa  146 157 162 155
    003051  aa  141 164 137 000
                                   372  	normal	(put_list_eis),312
                                        	use	text
    000475  0a   003052 000014          	zero	s312,12
                                        	use	data
    003052  aa  160 165 164 137         s312:	aci	"put_list_eis"
    003053  aa  154 151 163 164
    003054  aa  137 145 151 163
                                   373  	normal	(put_format_),313
                                        	use	text
    000476  0a   003055 000013          	zero	s313,11
                                        	use	data
    003055  aa  160 165 164 137         s313:	aci	"put_format_"
    003056  aa  146 157 162 155
    003057  aa  141 164 137 000
                                   374  	normal	(get_list_eis),314
                                        	use	text
    000477  0a   003060 000014          	zero	s314,12
                                        	use	data
    003060  aa  147 145 164 137         s314:	aci	"get_list_eis"
    003061  aa  154 151 163 164
    003062  aa  137 145 151 163
                                   375  	normal	(verify_eis),315
                                        	use	text
    000500  0a   003063 000012          	zero	s315,10
                                        	use	data
    003063  aa  166 145 162 151         s315:	aci	"verify_eis"
    003064  aa  146 171 137 145
    003065  aa  151 163 000 000
                                   376  	normal	(search_eis),316
                                        	use	text
    000501  0a   003066 000012          	zero	s316,10
                                        	use	data
    003066  aa  163 145 141 162         s316:	aci	"search_eis"
    003067  aa  143 150 137 145
    003070  aa  151 163 000 000
                                   377  	normal	(fortran_read),317
                                        	use	text
    000502  0a   003071 000014          	zero	s317,12
                                        	use	data
    003071  aa  146 157 162 164         s317:	aci	"fortran_read"
    003072  aa  162 141 156 137
    003073  aa  162 145 141 144
                                   378  	normal	(fortran_write),318
                                        	use	text
    000503  0a   003074 000015          	zero	s318,13
                                        	use	data
    003074  aa  146 157 162 164         s318:	aci	"fortran_write"
    003075  aa  162 141 156 137
    003076  aa  167 162 151 164
    003077  aa  145 000 000 000
                                   379  	normal	(fortran_manip),319
                                        	use	text
    000504  0a   003100 000015          	zero	s319,13
                                        	use	data
    003100  aa  146 157 162 164         s319:	aci	"fortran_manip"
    003101  aa  162 141 156 137
    003102  aa  155 141 156 151
    003103  aa  160 000 000 000
                                   380  	normal	(fortran_scalar_xmit),320
                                        	use	text
    000505  0a   003104 000023          	zero	s320,19
                                        	use	data
    003104  aa  146 157 162 164         s320:	aci	"fortran_scalar_xmit"
    003105  aa  162 141 156 137
    003106  aa  163 143 141 154
    003107  aa  141 162 137 170
    003110  aa  155 151 164 000
                                   381  	normal	(fortran_array_xmit),321
                                        	use	text
    000506  0a   003111 000022          	zero	s321,18
                                        	use	data
    003111  aa  146 157 162 164         s321:	aci	"fortran_array_xmit"
    003112  aa  162 141 156 137
    003113  aa  141 162 162 141
    003114  aa  171 137 170 155
    003115  aa  151 164 000 000
                                   382  	normal	(fortran_terminate),322
                                        	use	text
    000507  0a   003116 000021          	zero	s322,17
                                        	use	data
    003116  aa  146 157 162 164         s322:	aci	"fortran_terminate"
    003117  aa  162 141 156 137
    003120  aa  164 145 162 155
    003121  aa  151 156 141 164
    003122  aa  145 000 000 000
                                   383  	normal	(real_to_real_round_),323
                                        	use	text
    000510  0a   003123 000023          	zero	s323,19
                                        	use	data
    003123  aa  162 145 141 154         s323:	aci	"real_to_real_round_"
    003124  aa  137 164 157 137
    003125  aa  162 145 141 154
    003126  aa  137 162 157 165
    003127  aa  156 144 137 000
                                   384  	normal	(real_to_real_truncate_),324
                                        	use	text
    000511  0a   003130 000026          	zero	s324,22
                                        	use	data
    003130  aa  162 145 141 154         s324:	aci	"real_to_real_truncate_"
    003131  aa  137 164 157 137
    003132  aa  162 145 141 154
    003133  aa  137 164 162 165
    003134  aa  156 143 141 164
    003135  aa  145 137 000 000
                                   385  	normal	(any_to_any_round_),325
                                        	use	text
    000512  0a   003136 000021          	zero	s325,17
                                        	use	data
    003136  aa  141 156 171 137         s325:	aci	"any_to_any_round_"
    003137  aa  164 157 137 141
    003140  aa  156 171 137 162
    003141  aa  157 165 156 144
    003142  aa  137 000 000 000
                                   386  	normal	(any_to_any_truncate_),326
                                        	use	text
    000513  0a   003143 000024          	zero	s326,20
                                        	use	data
    003143  aa  141 156 171 137         s326:	aci	"any_to_any_truncate_"
    003144  aa  164 157 137 141
    003145  aa  156 171 137 164
    003146  aa  162 165 156 143
    003147  aa  141 164 145 137
                                   387  	normal	(unpack_picture),327
                                        	use	text
    000514  0a   003150 000016          	zero	s327,14
                                        	use	data
    003150  aa  165 156 160 141         s327:	aci	"unpack_picture"
    003151  aa  143 153 137 160
    003152  aa  151 143 164 165
    003153  aa  162 145 000 000
                                   388  	normal	(pack_picture),328
                                        	use	text
    000515  0a   003154 000014          	zero	s328,12
                                        	use	data
    003154  aa  160 141 143 153         s328:	aci	"pack_picture"
    003155  aa  137 160 151 143
    003156  aa  164 165 162 145
                                   389  	normal	(divide_fx1),329
                                        	use	text
    000516  0a   003157 000012          	zero	s329,10
                                        	use	data
    003157  aa  144 151 166 151         s329:	aci	"divide_fx1"
    003160  aa  144 145 137 146
    003161  aa  170 061 000 000
                                   390  	normal	(divide_fx2),330
                                        	use	text
    000517  0a   003162 000012          	zero	s330,10
                                        	use	data
    003162  aa  144 151 166 151         s330:	aci	"divide_fx2"
    003163  aa  144 145 137 146
    003164  aa  170 062 000 000
                                   391  	normal	(divide_fx3),331
                                        	use	text
    000520  0a   003165 000012          	zero	s331,10
                                        	use	data
    003165  aa  144 151 166 151         s331:	aci	"divide_fx3"
    003166  aa  144 145 137 146
    003167  aa  170 063 000 000
                                   392  	normal	(divide_fx4),332
                                        	use	text
    000521  0a   003170 000012          	zero	s332,10
                                        	use	data
    003170  aa  144 151 166 151         s332:	aci	"divide_fx4"
    003171  aa  144 145 137 146
    003172  aa  170 064 000 000
                                   393  	normal	(scaled_mod_fx1),333
                                        	use	text
    000522  0a   003173 000016          	zero	s333,14
                                        	use	data
    003173  aa  163 143 141 154         s333:	aci	"scaled_mod_fx1"
    003174  aa  145 144 137 155
    003175  aa  157 144 137 146
    003176  aa  170 061 000 000
                                   394  	normal	(scaled_mod_fx2),334
                                        	use	text
    000523  0a   003177 000016          	zero	s334,14
                                        	use	data
    003177  aa  163 143 141 154         s334:	aci	"scaled_mod_fx2"
    003200  aa  145 144 137 155
    003201  aa  157 144 137 146
    003202  aa  170 062 000 000
                                   395  	normal	(scaled_mod_fx3),335
                                        	use	text
    000524  0a   003203 000016          	zero	s335,14
                                        	use	data
    003203  aa  163 143 141 154         s335:	aci	"scaled_mod_fx3"
    003204  aa  145 144 137 155
    003205  aa  157 144 137 146
    003206  aa  170 063 000 000
                                   396  	normal	(scaled_mod_fx4),336
                                        	use	text
    000525  0a   003207 000016          	zero	s336,14
                                        	use	data
    003207  aa  163 143 141 154         s336:	aci	"scaled_mod_fx4"
    003210  aa  145 144 137 155
    003211  aa  157 144 137 146
    003212  aa  170 064 000 000
                                   397  	normal	(translate_2),337
                                        	use	text
    000526  0a   003213 000013          	zero	s337,11
                                        	use	data
    003213  aa  164 162 141 156         s337:	aci	"translate_2"
    003214  aa  163 154 141 164
    003215  aa  145 137 062 000
                                   398  	normal	(translate_3),338
                                        	use	text
    000527  0a   003216 000013          	zero	s338,11
                                        	use	data
    003216  aa  164 162 141 156         s338:	aci	"translate_3"
    003217  aa  163 154 141 164
    003220  aa  145 137 063 000
                                   399  	normal	(square_root_),339
                                        	use	text
    000530  0a   003221 000014          	zero	s339,12
                                        	use	data
    003221  aa  163 161 165 141         s339:	aci	"square_root_"
    003222  aa  162 145 137 162
    003223  aa  157 157 164 137
                                   400  	normal	(sine_radians_),340
                                        	use	text
    000531  0a   003224 000015          	zero	s340,13
                                        	use	data
    003224  aa  163 151 156 145         s340:	aci	"sine_radians_"
    003225  aa  137 162 141 144
    003226  aa  151 141 156 163
    003227  aa  137 000 000 000
                                   401  	normal	(sine_degrees_),341
                                        	use	text
    000532  0a   003230 000015          	zero	s341,13
                                        	use	data
    003230  aa  163 151 156 145         s341:	aci	"sine_degrees_"
    003231  aa  137 144 145 147
    003232  aa  162 145 145 163
    003233  aa  137 000 000 000
                                   402  	normal	(cosine_radians_),342
                                        	use	text
    000533  0a   003234 000017          	zero	s342,15
                                        	use	data
    003234  aa  143 157 163 151         s342:	aci	"cosine_radians_"
    003235  aa  156 145 137 162
    003236  aa  141 144 151 141
    003237  aa  156 163 137 000
                                   403  	normal	(cosine_degrees_),343
                                        	use	text
    000534  0a   003240 000017          	zero	s343,15
                                        	use	data
    003240  aa  143 157 163 151         s343:	aci	"cosine_degrees_"
    003241  aa  156 145 137 144
    003242  aa  145 147 162 145
    003243  aa  145 163 137 000
                                   404  	normal	(tangent_radians_),344
                                        	use	text
    000535  0a   003244 000020          	zero	s344,16
                                        	use	data
    003244  aa  164 141 156 147         s344:	aci	"tangent_radians_"
    003245  aa  145 156 164 137
    003246  aa  162 141 144 151
    003247  aa  141 156 163 137
                                   405  	normal	(tangent_degrees_),345
                                        	use	text
    000536  0a   003250 000020          	zero	s345,16
                                        	use	data
    003250  aa  164 141 156 147         s345:	aci	"tangent_degrees_"
    003251  aa  145 156 164 137
    003252  aa  144 145 147 162
    003253  aa  145 145 163 137
                                   406  	normal	(arc_sine_radians_),346
                                        	use	text
    000537  0a   003254 000021          	zero	s346,17
                                        	use	data
    003254  aa  141 162 143 137         s346:	aci	"arc_sine_radians_"
    003255  aa  163 151 156 145
    003256  aa  137 162 141 144
    003257  aa  151 141 156 163
    003260  aa  137 000 000 000
                                   407  	normal	(arc_sine_degrees_),347
                                        	use	text
    000540  0a   003261 000021          	zero	s347,17
                                        	use	data
    003261  aa  141 162 143 137         s347:	aci	"arc_sine_degrees_"
    003262  aa  163 151 156 145
    003263  aa  137 144 145 147
    003264  aa  162 145 145 163
    003265  aa  137 000 000 000
                                   408  	normal	(arc_cosine_radians_),348
                                        	use	text
    000541  0a   003266 000023          	zero	s348,19
                                        	use	data
    003266  aa  141 162 143 137         s348:	aci	"arc_cosine_radians_"
    003267  aa  143 157 163 151
    003270  aa  156 145 137 162
    003271  aa  141 144 151 141
    003272  aa  156 163 137 000
                                   409  	normal	(arc_cosine_degrees_),349
                                        	use	text
    000542  0a   003273 000023          	zero	s349,19
                                        	use	data
    003273  aa  141 162 143 137         s349:	aci	"arc_cosine_degrees_"
    003274  aa  143 157 163 151
    003275  aa  156 145 137 144
    003276  aa  145 147 162 145
    003277  aa  145 163 137 000
                                   410  	normal	(arc_tangent_radians_),350
                                        	use	text
    000543  0a   003300 000024          	zero	s350,20
                                        	use	data
    003300  aa  141 162 143 137         s350:	aci	"arc_tangent_radians_"
    003301  aa  164 141 156 147
    003302  aa  145 156 164 137
    003303  aa  162 141 144 151
    003304  aa  141 156 163 137
                                   411  	normal	(arc_tangent_degrees_),351
                                        	use	text
    000544  0a   003305 000024          	zero	s351,20
                                        	use	data
    003305  aa  141 162 143 137         s351:	aci	"arc_tangent_degrees_"
    003306  aa  164 141 156 147
    003307  aa  145 156 164 137
    003310  aa  144 145 147 162
    003311  aa  145 145 163 137
                                   412  	normal	(log_base_2_),352
                                        	use	text
    000545  0a   003312 000013          	zero	s352,11
                                        	use	data
    003312  aa  154 157 147 137         s352:	aci	"log_base_2_"
    003313  aa  142 141 163 145
    003314  aa  137 062 137 000
                                   413  	normal	(log_base_e_),353
                                        	use	text
    000546  0a   003315 000013          	zero	s353,11
                                        	use	data
    003315  aa  154 157 147 137         s353:	aci	"log_base_e_"
    003316  aa  142 141 163 145
    003317  aa  137 145 137 000
                                   414  	normal	(log_base_10_),354
                                        	use	text
    000547  0a   003320 000014          	zero	s354,12
                                        	use	data
    003320  aa  154 157 147 137         s354:	aci	"log_base_10_"
    003321  aa  142 141 163 145
    003322  aa  137 061 060 137
                                   415  	normal	(exponential_),355
                                        	use	text
    000550  0a   003323 000014          	zero	s355,12
                                        	use	data
    003323  aa  145 170 160 157         s355:	aci	"exponential_"
    003324  aa  156 145 156 164
    003325  aa  151 141 154 137
                                   416  	normal	(double_square_root_),356
                                        	use	text
    000551  0a   003326 000023          	zero	s356,19
                                        	use	data
    003326  aa  144 157 165 142         s356:	aci	"double_square_root_"
    003327  aa  154 145 137 163
    003330  aa  161 165 141 162
    003331  aa  145 137 162 157
    003332  aa  157 164 137 000
                                   417  	normal	(double_sine_radians_),357
                                        	use	text
    000552  0a   003333 000024          	zero	s357,20
                                        	use	data
    003333  aa  144 157 165 142         s357:	aci	"double_sine_radians_"
    003334  aa  154 145 137 163
    003335  aa  151 156 145 137
    003336  aa  162 141 144 151
    003337  aa  141 156 163 137
                                   418  	normal	(double_sine_degrees_),358
                                        	use	text
    000553  0a   003340 000024          	zero	s358,20
                                        	use	data
    003340  aa  144 157 165 142         s358:	aci	"double_sine_degrees_"
    003341  aa  154 145 137 163
    003342  aa  151 156 145 137
    003343  aa  144 145 147 162
    003344  aa  145 145 163 137
                                   419  	normal	(double_cosine_radians_),359
                                        	use	text
    000554  0a   003345 000026          	zero	s359,22
                                        	use	data
    003345  aa  144 157 165 142         s359:	aci	"double_cosine_radians_"
    003346  aa  154 145 137 143
    003347  aa  157 163 151 156
    003350  aa  145 137 162 141
    003351  aa  144 151 141 156
    003352  aa  163 137 000 000
                                   420  	normal	(double_cosine_degrees_),360
                                        	use	text
    000555  0a   003353 000026          	zero	s360,22
                                        	use	data
    003353  aa  144 157 165 142         s360:	aci	"double_cosine_degrees_"
    003354  aa  154 145 137 143
    003355  aa  157 163 151 156
    003356  aa  145 137 144 145
    003357  aa  147 162 145 145
    003360  aa  163 137 000 000
                                   421  	normal	(double_tangent_radians_),361
                                        	use	text
    000556  0a   003361 000027          	zero	s361,23
                                        	use	data
    003361  aa  144 157 165 142         s361:	aci	"double_tangent_radians_"
    003362  aa  154 145 137 164
    003363  aa  141 156 147 145
    003364  aa  156 164 137 162
    003365  aa  141 144 151 141
    003366  aa  156 163 137 000
                                   422  	normal	(double_tangent_degrees_),362
                                        	use	text
    000557  0a   003367 000027          	zero	s362,23
                                        	use	data
    003367  aa  144 157 165 142         s362:	aci	"double_tangent_degrees_"
    003370  aa  154 145 137 164
    003371  aa  141 156 147 145
    003372  aa  156 164 137 144
    003373  aa  145 147 162 145
    003374  aa  145 163 137 000
                                   423  	normal	(double_arc_sine_radians_),363
                                        	use	text
    000560  0a   003375 000030          	zero	s363,24
                                        	use	data
    003375  aa  144 157 165 142         s363:	aci	"double_arc_sine_radians_"
    003376  aa  154 145 137 141
    003377  aa  162 143 137 163
    003400  aa  151 156 145 137
    003401  aa  162 141 144 151
    003402  aa  141 156 163 137
                                   424  	normal	(double_arc_sine_degrees_),364
                                        	use	text
    000561  0a   003403 000030          	zero	s364,24
                                        	use	data
    003403  aa  144 157 165 142         s364:	aci	"double_arc_sine_degrees_"
    003404  aa  154 145 137 141
    003405  aa  162 143 137 163
    003406  aa  151 156 145 137
    003407  aa  144 145 147 162
    003410  aa  145 145 163 137
                                   425  	normal	(double_arc_cosine_radians_),365
                                        	use	text
    000562  0a   003411 000032          	zero	s365,26
                                        	use	data
    003411  aa  144 157 165 142         s365:	aci	"double_arc_cosine_radians_"
    003412  aa  154 145 137 141
    003413  aa  162 143 137 143
    003414  aa  157 163 151 156
    003415  aa  145 137 162 141
    003416  aa  144 151 141 156
    003417  aa  163 137 000 000
                                   426  	normal	(double_arc_cosine_degrees_),366
                                        	use	text
    000563  0a   003420 000032          	zero	s366,26
                                        	use	data
    003420  aa  144 157 165 142         s366:	aci	"double_arc_cosine_degrees_"
    003421  aa  154 145 137 141
    003422  aa  162 143 137 143
    003423  aa  157 163 151 156
    003424  aa  145 137 144 145
    003425  aa  147 162 145 145
    003426  aa  163 137 000 000
                                   427  	normal	(double_arc_tan_radians_),367
                                        	use	text
    000564  0a   003427 000027          	zero	s367,23
                                        	use	data
    003427  aa  144 157 165 142         s367:	aci	"double_arc_tan_radians_"
    003430  aa  154 145 137 141
    003431  aa  162 143 137 164
    003432  aa  141 156 137 162
    003433  aa  141 144 151 141
    003434  aa  156 163 137 000
                                   428  	normal	(double_arc_tan_degrees_),368
                                        	use	text
    000565  0a   003435 000027          	zero	s368,23
                                        	use	data
    003435  aa  144 157 165 142         s368:	aci	"double_arc_tan_degrees_"
    003436  aa  154 145 137 141
    003437  aa  162 143 137 164
    003440  aa  141 156 137 144
    003441  aa  145 147 162 145
    003442  aa  145 163 137 000
                                   429  	normal	(double_log_base_2_),369
                                        	use	text
    000566  0a   003443 000022          	zero	s369,18
                                        	use	data
    003443  aa  144 157 165 142         s369:	aci	"double_log_base_2_"
    003444  aa  154 145 137 154
    003445  aa  157 147 137 142
    003446  aa  141 163 145 137
    003447  aa  062 137 000 000
                                   430  	normal	(double_log_base_e_),370
                                        	use	text
    000567  0a   003450 000022          	zero	s370,18
                                        	use	data
    003450  aa  144 157 165 142         s370:	aci	"double_log_base_e_"
    003451  aa  154 145 137 154
    003452  aa  157 147 137 142
    003453  aa  141 163 145 137
    003454  aa  145 137 000 000
                                   431  	normal	(double_log_base_10_),371
                                        	use	text
    000570  0a   003455 000023          	zero	s371,19
                                        	use	data
    003455  aa  144 157 165 142         s371:	aci	"double_log_base_10_"
    003456  aa  154 145 137 154
    003457  aa  157 147 137 142
    003460  aa  141 163 145 137
    003461  aa  061 060 137 000
                                   432  	normal	(double_exponential_),372
                                        	use	text
    000571  0a   003462 000023          	zero	s372,19
                                        	use	data
    003462  aa  144 157 165 142         s372:	aci	"double_exponential_"
    003463  aa  154 145 137 145
    003464  aa  170 160 157 156
    003465  aa  145 156 164 151
    003466  aa  141 154 137 000
                                   433  	normal	(arc_tangent_radians_2_),373
                                        	use	text
    000572  0a   003467 000026          	zero	s373,22
                                        	use	data
    003467  aa  141 162 143 137         s373:	aci	"arc_tangent_radians_2_"
    003470  aa  164 141 156 147
    003471  aa  145 156 164 137
    003472  aa  162 141 144 151
    003473  aa  141 156 163 137
    003474  aa  062 137 000 000
                                   434  	normal	(arc_tangent_degrees_2_),374
                                        	use	text
    000573  0a   003475 000026          	zero	s374,22
                                        	use	data
    003475  aa  141 162 143 137         s374:	aci	"arc_tangent_degrees_2_"
    003476  aa  164 141 156 147
    003477  aa  145 156 164 137
    003500  aa  144 145 147 162
    003501  aa  145 145 163 137
    003502  aa  062 137 000 000
                                   435  	normal	(double_arc_tan_radians_2_),375
                                        	use	text
    000574  0a   003503 000031          	zero	s375,25
                                        	use	data
    003503  aa  144 157 165 142         s375:	aci	"double_arc_tan_radians_2_"
    003504  aa  154 145 137 141
    003505  aa  162 143 137 164
    003506  aa  141 156 137 162
    003507  aa  141 144 151 141
    003510  aa  156 163 137 062
    003511  aa  137 000 000 000
                                   436  	normal	(double_arc_tan_degrees_2_),376
                                        	use	text
    000575  0a   003512 000031          	zero	s376,25
                                        	use	data
    003512  aa  144 157 165 142         s376:	aci	"double_arc_tan_degrees_2_"
    003513  aa  154 145 137 141
    003514  aa  162 143 137 164
    003515  aa  141 156 137 144
    003516  aa  145 147 162 145
    003517  aa  145 163 137 062
    003520  aa  137 000 000 000
                                   437  	normal	(integer_power_single_),377
                                        	use	text
    000576  0a   003521 000025          	zero	s377,21
                                        	use	data
    003521  aa  151 156 164 145         s377:	aci	"integer_power_single_"
    003522  aa  147 145 162 137
    003523  aa  160 157 167 145
    003524  aa  162 137 163 151
    003525  aa  156 147 154 145
    003526  aa  137 000 000 000
                                   438  	normal	(integer_power_double_),378
                                        	use	text
    000577  0a   003527 000025          	zero	s378,21
                                        	use	data
    003527  aa  151 156 164 145         s378:	aci	"integer_power_double_"
    003530  aa  147 145 162 137
    003531  aa  160 157 167 145
    003532  aa  162 137 144 157
    003533  aa  165 142 154 145
    003534  aa  137 000 000 000
                                   439  	normal	(double_power_single_),379
                                        	use	text
    000600  0a   003535 000024          	zero	s379,20
                                        	use	data
    003535  aa  144 157 165 142         s379:	aci	"double_power_single_"
    003536  aa  154 145 137 160
    003537  aa  157 167 145 162
    003540  aa  137 163 151 156
    003541  aa  147 154 145 137
                                   440  	normal	(double_power_double_),380
                                        	use	text
    000601  0a   003542 000024          	zero	s380,20
                                        	use	data
    003542  aa  144 157 165 142         s380:	aci	"double_power_double_"
    003543  aa  154 145 137 160
    003544  aa  157 167 145 162
    003545  aa  137 144 157 165
    003546  aa  142 154 145 137
                                   441  	normal	(double_power_integer_),381
                                        	use	text
    000602  0a   003547 000025          	zero	s381,21
                                        	use	data
    003547  aa  144 157 165 142         s381:	aci	"double_power_integer_"
    003550  aa  154 145 137 160
    003551  aa  157 167 145 162
    003552  aa  137 151 156 164
    003553  aa  145 147 145 162
    003554  aa  137 000 000 000
                                   442  	normal	(single_power_single_),382
                                        	use	text
    000603  0a   003555 000024          	zero	s382,20
                                        	use	data
    003555  aa  163 151 156 147         s382:	aci	"single_power_single_"
    003556  aa  154 145 137 160
    003557  aa  157 167 145 162
    003560  aa  137 163 151 156
    003561  aa  147 154 145 137
                                   443  	normal	(single_power_integer_),383
                                        	use	text
    000604  0a   003562 000025          	zero	s383,21
                                        	use	data
    003562  aa  163 151 156 147         s383:	aci	"single_power_integer_"
    003563  aa  154 145 137 160
    003564  aa  157 167 145 162
    003565  aa  137 151 156 164
    003566  aa  145 147 145 162
    003567  aa  137 000 000 000
                                   444  	normal	(integer_power_integer_),384
                                        	use	text
    000605  0a   003570 000026          	zero	s384,22
                                        	use	data
    003570  aa  151 156 164 145         s384:	aci	"integer_power_integer_"
    003571  aa  147 145 162 137
    003572  aa  160 157 167 145
    003573  aa  162 137 151 156
    003574  aa  164 145 147 145
    003575  aa  162 137 000 000
                                   445  	normal	(signal_size),385
                                        	use	text
    000606  0a   003576 000013          	zero	s385,11
                                        	use	data
    003576  aa  163 151 147 156         s385:	aci	"signal_size"
    003577  aa  141 154 137 163
    003600  aa  151 172 145 000
                                   446  	normal	(ss_ext_entry),386
                                        	use	text
    000607  0a   003601 000014          	zero	s386,12
                                        	use	data
    003601  aa  163 163 137 145         s386:	aci	"ss_ext_entry"
    003602  aa  170 164 137 145
    003603  aa  156 164 162 171
                                   447  	normal	(ss_ext_entry_desc),387
                                        	use	text
    000610  0a   003604 000021          	zero	s387,17
                                        	use	data
    003604  aa  163 163 137 145         s387:	aci	"ss_ext_entry_desc"
    003605  aa  170 164 137 145
    003606  aa  156 164 162 171
    003607  aa  137 144 145 163
    003610  aa  143 000 000 000
                                   448  	normal	(ss_int_entry),388
                                        	use	text
    000611  0a   003611 000014          	zero	s388,12
                                        	use	data
    003611  aa  163 163 137 151         s388:	aci	"ss_int_entry"
    003612  aa  156 164 137 145
    003613  aa  156 164 162 171
                                   449  	normal	(ss_int_entry_desc),389
                                        	use	text
    000612  0a   003614 000021          	zero	s389,17
                                        	use	data
    003614  aa  163 163 137 151         s389:	aci	"ss_int_entry_desc"
    003615  aa  156 164 137 145
    003616  aa  156 164 162 171
    003617  aa  137 144 145 163
    003620  aa  143 000 000 000
                                   450  	normal	(ss_val_entry),390
                                        	use	text
    000613  0a   003621 000014          	zero	s390,12
                                        	use	data
    003621  aa  163 163 137 166         s390:	aci	"ss_val_entry"
    003622  aa  141 154 137 145
    003623  aa  156 164 162 171
                                   451  	normal	(ss_val_entry_desc),391
                                        	use	text
    000614  0a   003624 000021          	zero	s391,17
                                        	use	data
    003624  aa  163 163 137 166         s391:	aci	"ss_val_entry_desc"
    003625  aa  141 154 137 145
    003626  aa  156 164 162 171
    003627  aa  137 144 145 163
    003630  aa  143 000 000 000
                                   452  	normal	(mpcdec),392
                                        	use	text
    000615  0a   003631 000006          	zero	s392,6
                                        	use	data
    003631  aa  155 160 143 144         s392:	aci	"mpcdec"
    003632  aa  145 143 000 000
                                   453  	normal	(dvcdec),393
                                        	use	text
    000616  0a   003633 000006          	zero	s393,6
                                        	use	data
    003633  aa  144 166 143 144         s393:	aci	"dvcdec"
    003634  aa  145 143 000 000
                                   454  	normal	(dvrcdec),394
                                        	use	text
    000617  0a   003635 000007          	zero	s394,7
                                        	use	data
    003635  aa  144 166 162 143         s394:	aci	"dvrcdec"
    003636  aa  144 145 143 000
                                   455  	normal	(ceil),395
                                        	use	text
    000620  0a   003637 000004          	zero	s395,4
                                        	use	data
    003637  aa  143 145 151 154         s395:	aci	"ceil"
                                   456  	normal	(floor),396
                                        	use	text
    000621  0a   003640 000005          	zero	s396,5
                                        	use	data
    003640  aa  146 154 157 157         s396:	aci	"floor"
    003641  aa  162 000 000 000
                                   457  	normal	(sign),397
                                        	use	text
    000622  0a   003642 000004          	zero	s397,4
                                        	use	data
    003642  aa  163 151 147 156         s397:	aci	"sign"
                                   458  	normal	(cabs),398
                                        	use	text
    000623  0a   003643 000004          	zero	s398,4
                                        	use	data
    003643  aa  143 141 142 163         s398:	aci	"cabs"
                                   459  	normal	(truncate),399
                                        	use	text
    000624  0a   003644 000010          	zero	s399,8
                                        	use	data
    003644  aa  164 162 165 156         s399:	aci	"truncate"
    003645  aa  143 141 164 145
                                   460  	normal	(mod),400
                                        	use	text
    000625  0a   003646 000003          	zero	s400,3
                                        	use	data
    003646  aa  155 157 144 000         s400:	aci	"mod"
                                   461  	normal	(set_support),401
                                        	use	text
    000626  0a   003647 000013          	zero	s401,11
                                        	use	data
    003647  aa  163 145 164 137         s401:	aci	"set_support"
    003650  aa  163 165 160 160
    003651  aa  157 162 164 000
                                   462  	normal	(div_4_cplx_ops),402
                                        	use	text
    000627  0a   003652 000016          	zero	s402,14
                                        	use	data
    003652  aa  144 151 166 137         s402:	aci	"div_4_cplx_ops"
    003653  aa  064 137 143 160
    003654  aa  154 170 137 157
    003655  aa  160 163 000 000
                                   463  	normal	(fetch_chars_eis),403
                                        	use	text
    000630  0a   003656 000017          	zero	s403,15
                                        	use	data
    003656  aa  146 145 164 143         s403:	aci	"fetch_chars_eis"
    003657  aa  150 137 143 150
    003660  aa  141 162 163 137
    003661  aa  145 151 163 000
                                   464  	normal	(signal_stringrange),404
                                        	use	text
    000631  0a   003662 000022          	zero	s404,18
                                        	use	data
    003662  aa  163 151 147 156         s404:	aci	"signal_stringrange"
    003663  aa  141 154 137 163
    003664  aa  164 162 151 156
    003665  aa  147 162 141 156
    003666  aa  147 145 000 000
                                   465  	normal	(ss_enter_begin_block),405
                                        	use	text
    000632  0a   003667 000024          	zero	s405,20
                                        	use	data
    003667  aa  163 163 137 145         s405:	aci	"ss_enter_begin_block"
    003670  aa  156 164 145 162
    003671  aa  137 142 145 147
    003672  aa  151 156 137 142
    003673  aa  154 157 143 153
                                   466  	normal 	(put_field),406
                                        	use	text
    000633  0a   003674 000011          	zero	s406,9
                                        	use	data
    003674  aa  160 165 164 137         s406:	aci	"put_field"
    003675  aa  146 151 145 154
    003676  aa  144 000 000 000
                                   467  	normal	(put_field_chk),407
                                        	use	text
    000634  0a   003677 000015          	zero	s407,13
                                        	use	data
    003677  aa  160 165 164 137         s407:	aci	"put_field_chk"
    003700  aa  146 151 145 154
    003701  aa  144 137 143 150
    003702  aa  153 000 000 000
                                   468  	normal	(put_control),408
                                        	use	text
    000635  0a   003703 000013          	zero	s408,11
                                        	use	data
    003703  aa  160 165 164 137         s408:	aci	"put_control"
    003704  aa  143 157 156 164
    003705  aa  162 157 154 000
                                   469  	normal	(op_alloc_),409
                                        	use	text
    000636  0a   003706 000011          	zero	s409,9
                                        	use	data
    003706  aa  157 160 137 141         s409:	aci	"op_alloc_"
    003707  aa  154 154 157 143
    003710  aa  137 000 000 000
                                   470  	normal	(alloc_storage),410
                                        	use	text
    000637  0a   003711 000015          	zero	s410,13
                                        	use	data
    003711  aa  141 154 154 157         s410:	aci	"alloc_storage"
    003712  aa  143 137 163 164
    003713  aa  157 162 141 147
    003714  aa  145 000 000 000
                                   471  	normal	(op_freen_),411
                                        	use	text
    000640  0a   003715 000011          	zero	s411,9
                                        	use	data
    003715  aa  157 160 137 146         s411:	aci	"op_freen_"
    003716  aa  162 145 145 156
    003717  aa  137 000 000 000
                                   472  	normal	(op_empty_),412
                                        	use	text
    000641  0a   003720 000011          	zero	s412,9
                                        	use	data
    003720  aa  157 160 137 145         s412:	aci	"op_empty_"
    003721  aa  155 160 164 171
    003722  aa  137 000 000 000
                                   473  	normal	(cabs),413
                                        	use	text
    000642  0a   003723 000004          	zero	s413,4
                                        	use	data
    003723  aa  143 141 142 163         s413:	aci	"cabs"
                                   474  	normal	(ccos),414
                                        	use	text
    000643  0a   003724 000004          	zero	s414,4
                                        	use	data
    003724  aa  143 143 157 163         s414:	aci	"ccos"
                                   475  	normal	(cexp),415
                                        	use	text
    000644  0a   003725 000004          	zero	s415,4
                                        	use	data
    003725  aa  143 145 170 160         s415:	aci	"cexp"
                                   476  	normal	(clog),416
                                        	use	text
    000645  0a   003726 000004          	zero	s416,4
                                        	use	data
    003726  aa  143 154 157 147         s416:	aci	"clog"
                                   477  	normal	(csin),417
                                        	use	text
    000646  0a   003727 000004          	zero	s417,4
                                        	use	data
    003727  aa  143 163 151 156         s417:	aci	"csin"
                                   478  	normal	(csqrt),418
                                        	use	text
    000647  0a   003730 000005          	zero	s418,5
                                        	use	data
    003730  aa  143 163 161 162         s418:	aci	"csqrt"
    003731  aa  164 000 000 000
                                   479  	normal	(tanh),419
                                        	use	text
    000650  0a   003732 000004          	zero	s419,4
                                        	use	data
    003732  aa  164 141 156 150         s419:	aci	"tanh"
                                   480  	normal	(dmod),420
                                        	use	text
    000651  0a   003733 000004          	zero	s420,4
                                        	use	data
    003733  aa  144 155 157 144         s420:	aci	"dmod"
                                   481  	normal	(cmpx_p_cmpx),421
                                        	use	text
    000652  0a   003734 000013          	zero	s421,11
                                        	use	data
    003734  aa  143 155 160 170         s421:	aci	"cmpx_p_cmpx"
    003735  aa  137 160 137 143
    003736  aa  155 160 170 000
                                   482  	normal	(get_math_entry),422
                                        	use	text
    000653  0a   003737 000016          	zero	s422,14
                                        	use	data
    003737  aa  147 145 164 137         s422:	aci	"get_math_entry"
    003740  aa  155 141 164 150
    003741  aa  137 145 156 164
    003742  aa  162 171 000 000
                                   483  	normal	(fortran_pause),423
                                        	use	text
    000654  0a   003743 000015          	zero	s423,13
                                        	use	data
    003743  aa  146 157 162 164         s423:	aci	"fortran_pause"
    003744  aa  162 141 156 137
    003745  aa  160 141 165 163
    003746  aa  145 000 000 000
                                   484  	normal	(fortran_stop),424
                                        	use	text
    000655  0a   003747 000014          	zero	s424,12
                                        	use	data
    003747  aa  146 157 162 164         s424:	aci	"fortran_stop"
    003750  aa  162 141 156 137
    003751  aa  163 164 157 160
                                   485  	normal	(fortran_chain),425
                                        	use	text
    000656  0a   003752 000015          	zero	s425,13
                                        	use	data
    003752  aa  146 157 162 164         s425:	aci	"fortran_chain"
    003753  aa  162 141 156 137
    003754  aa  143 150 141 151
    003755  aa  156 000 000 000
                                   486  	normal	(long_profile),426
                                        	use	text
    000657  0a   003756 000014          	zero	s426,12
                                        	use	data
    003756  aa  154 157 156 147         s426:	aci	"long_profile"
    003757  aa  137 160 162 157
    003760  aa  146 151 154 145
                                   487  	normal	(index_before_cs),427
                                        	use	text
    000660  0a   003761 000017          	zero	s427,15
                                        	use	data
    003761  aa  151 156 144 145         s427:	aci	"index_before_cs"
    003762  aa  170 137 142 145
    003763  aa  146 157 162 145
    003764  aa  137 143 163 000
                                   488  	normal	(index_before_bs),428
                                        	use	text
    000661  0a   003765 000017          	zero	s428,15
                                        	use	data
    003765  aa  151 156 144 145         s428:	aci	"index_before_bs"
    003766  aa  170 137 142 145
    003767  aa  146 157 162 145
    003770  aa  137 142 163 000
                                   489  	normal	(index_after_cs),429
                                        	use	text
    000662  0a   003771 000016          	zero	s429,14
                                        	use	data
    003771  aa  151 156 144 145         s429:	aci	"index_after_cs"
    003772  aa  170 137 141 146
    003773  aa  164 145 162 137
    003774  aa  143 163 000 000
                                   490  	normal	(index_after_bs),430
                                        	use	text
    000663  0a   003775 000016          	zero	s430,14
                                        	use	data
    003775  aa  151 156 144 145         s430:	aci	"index_after_bs"
    003776  aa  170 137 141 146
    003777  aa  164 145 162 137
    004000  aa  142 163 000 000
                                   491  	normal	(index_before_bs_1),431
                                        	use	text
    000664  0a   004001 000021          	zero	s431,17
                                        	use	data
    004001  aa  151 156 144 145         s431:	aci	"index_before_bs_1"
    004002  aa  170 137 142 145
    004003  aa  146 157 162 145
    004004  aa  137 142 163 137
    004005  aa  061 000 000 000
                                   492  	normal	(index_after_bs_1),432
                                        	use	text
    000665  0a   004006 000020          	zero	s432,16
                                        	use	data
    004006  aa  151 156 144 145         s432:	aci	"index_after_bs_1"
    004007  aa  170 137 141 146
    004010  aa  164 145 162 137
    004011  aa  142 163 137 061
                                   493  	normal	(verify_for_ltrim),433
                                        	use	text
    000666  0a   004012 000020          	zero	s433,16
                                        	use	data
    004012  aa  166 145 162 151         s433:	aci	"verify_for_ltrim"
    004013  aa  146 171 137 146
    004014  aa  157 162 137 154
    004015  aa  164 162 151 155
                                   494  	normal	(verify_for_rtrim),434
                                        	use	text
    000667  0a   004016 000020          	zero	s434,16
                                        	use	data
    004016  aa  166 145 162 151         s434:	aci	"verify_for_rtrim"
    004017  aa  146 171 137 146
    004020  aa  157 162 137 162
    004021  aa  164 162 151 155
                                   495  	normal	(stacq_mac),435
                                        	use	text
    000670  0a   004022 000011          	zero	s435,9
                                        	use	data
    004022  aa  163 164 141 143         s435:	aci	"stacq_mac"
    004023  aa  161 137 155 141
    004024  aa  143 000 000 000
                                   496  	normal	(clock_mac),436
                                        	use	text
    000671  0a   004025 000011          	zero	s436,9
                                        	use	data
    004025  aa  143 154 157 143         s436:	aci	"clock_mac"
    004026  aa  153 137 155 141
    004027  aa  143 000 000 000
                                   497  	normal	(vclock_mac),437
                                        	use	text
    000672  0a   004030 000012          	zero	s437,10
                                        	use	data
    004030  aa  166 143 154 157         s437:	aci	"vclock_mac"
    004031  aa  143 153 137 155
    004032  aa  141 143 000 000
                                   498  	normal	(ftn_open_element),438
                                        	use	text
    000673  0a   004033 000020          	zero	s438,16
                                        	use	data
    004033  aa  146 164 156 137         s438:	aci	"ftn_open_element"
    004034  aa  157 160 145 156
    004035  aa  137 145 154 145
    004036  aa  155 145 156 164
                                   499  	normal	(ftn_get_area_ptr),439
                                        	use	text
    000674  0a   004037 000020          	zero	s439,16
                                        	use	data
    004037  aa  146 164 156 137         s439:	aci	"ftn_get_area_ptr"
    004040  aa  147 145 164 137
    004041  aa  141 162 145 141
    004042  aa  137 160 164 162
                                   500  	normal	(stop),440
                                        	use	text
    000675  0a   004043 000004          	zero	s440,4
                                        	use	data
    004043  aa  163 164 157 160         s440:	aci	"stop"
                                   501  	normal	(return_main),441
                                        	use	text
    000676  0a   004044 000013          	zero	s441,11
                                        	use	data
    004044  aa  162 145 164 165         s441:	aci	"return_main"
    004045  aa  162 156 137 155
    004046  aa  141 151 156 000
                                   502  	normal	(set_main_flag),442
                                        	use	text
    000677  0a   004047 000015          	zero	s442,13
                                        	use	data
    004047  aa  163 145 164 137         s442:	aci	"set_main_flag"
    004050  aa  155 141 151 156
    004051  aa  137 146 154 141
    004052  aa  147 000 000 000
                                   503  	normal	(begin_return_main),443
                                        	use	text
    000700  0a   004053 000021          	zero	s443,17
                                        	use	data
    004053  aa  142 145 147 151         s443:	aci	"begin_return_main"
    004054  aa  156 137 162 145
    004055  aa  164 165 162 156
    004056  aa  137 155 141 151
    004057  aa  156 000 000 000
                                   504  	normal	(size_check_uns_fx1),444
                                        	use	text
    000701  0a   004060 000022          	zero	s444,18
                                        	use	data
    004060  aa  163 151 172 145         s444:	aci	"size_check_uns_fx1"
    004061  aa  137 143 150 145
    004062  aa  143 153 137 165
    004063  aa  156 163 137 146
    004064  aa  170 061 000 000
                                   505  	normal	(size_check_uns_fx2),445
                                        	use	text
    000702  0a   004065 000022          	zero	s445,18
                                        	use	data
    004065  aa  163 151 172 145         s445:	aci	"size_check_uns_fx2"
    004066  aa  137 143 150 145
    004067  aa  143 153 137 165
    004070  aa  156 163 137 146
    004071  aa  170 062 000 000
                                   506  	normal	(fortran_end),446
                                        	use	text
    000703  0a   004072 000013          	zero	s446,11
                                        	use	data
    004072  aa  146 157 162 164         s446:	aci	"fortran_end"
    004073  aa  162 141 156 137
    004074  aa  145 156 144 000
                                   507  	normal	(fort_dmod),447
                                        	use	text
    000704  0a   004075 000011          	zero	s447,9
                                        	use	data
    004075  aa  146 157 162 164         s447:	aci	"fort_dmod"
    004076  aa  137 144 155 157
    004077  aa  144 000 000 000
                                   508  	normal	(ix_rev_chars),448
                                        	use	text
    000705  0a   004100 000014          	zero	s448,12
                                        	use	data
    004100  aa  151 170 137 162         s448:	aci	"ix_rev_chars"
    004101  aa  145 166 137 143
    004102  aa  150 141 162 163
                                   509  	normal	(verify_rev_chars),449
                                        	use	text
    000706  0a   004103 000020          	zero	s449,16
                                        	use	data
    004103  aa  166 145 162 151         s449:	aci	"verify_rev_chars"
    004104  aa  146 171 137 162
    004105  aa  145 166 137 143
    004106  aa  150 141 162 163
                                   510  	normal	(search_rev_chars),450
                                        	use	text
    000707  0a   004107 000020          	zero	s450,16
                                        	use	data
    004107  aa  163 145 141 162         s450:	aci	"search_rev_chars"
    004110  aa  143 150 137 162
    004111  aa  145 166 137 143
    004112  aa  150 141 162 163
                                   511  	normal	(shorten_stack_protect_ind),451
                                        	use	text
    000710  0a   004113 000031          	zero	s451,25
                                        	use	data
    004113  aa  163 150 157 162         s451:	aci	"shorten_stack_protect_ind"
    004114  aa  164 145 156 137
    004115  aa  163 164 141 143
    004116  aa  153 137 160 162
    004117  aa  157 164 145 143
    004120  aa  164 137 151 156
    004121  aa  144 000 000 000
                                   512  	normal	(save_stack_quick),452
                                        	use	text
    000711  0a   004122 000020          	zero	s452,16
                                        	use	data
    004122  aa  163 141 166 145         s452:	aci	"save_stack_quick"
    004123  aa  137 163 164 141
    004124  aa  143 153 137 161
    004125  aa  165 151 143 153
                                   513  	normal	(restore_stack_quick),453
                                        	use	text
    000712  0a   004126 000023          	zero	s453,19
                                        	use	data
    004126  aa  162 145 163 164         s453:	aci	"restore_stack_quick"
    004127  aa  157 162 145 137
    004130  aa  163 164 141 143
    004131  aa  153 137 161 165
    004132  aa  151 143 153 000
                                   514  	normal	(dtanh),454
                                        	use	text
    000713  0a   004133 000005          	zero	s454,5
                                        	use	data
    004133  aa  144 164 141 156         s454:	aci	"dtanh"
    004134  aa  150 000 000 000
                                   515  	normal	(sinh),455
                                        	use	text
    000714  0a   004135 000004          	zero	s455,4
                                        	use	data
    004135  aa  163 151 156 150         s455:	aci	"sinh"
                                   516  	normal	(dsinh),456
                                        	use	text
    000715  0a   004136 000005          	zero	s456,5
                                        	use	data
    004136  aa  144 163 151 156         s456:	aci	"dsinh"
    004137  aa  150 000 000 000
                                   517  	normal	(cosh),457
                                        	use	text
    000716  0a   004140 000004          	zero	s457,4
                                        	use	data
    004140  aa  143 157 163 150         s457:	aci	"cosh"
                                   518  	normal	(dcosh),458
                                        	use	text
    000717  0a   004141 000005          	zero	s458,5
                                        	use	data
    004141  aa  144 143 157 163         s458:	aci	"dcosh"
    004142  aa  150 000 000 000
                                   519  	normal	(nearest_whole_number),459
                                        	use	text
    000720  0a   004143 000024          	zero	s459,20
                                        	use	data
    004143  aa  156 145 141 162         s459:	aci	"nearest_whole_number"
    004144  aa  145 163 164 137
    004145  aa  167 150 157 154
    004146  aa  145 137 156 165
    004147  aa  155 142 145 162
                                   520  	normal	(nearest_integer),460
                                        	use	text
    000721  0a   004150 000017          	zero	s460,15
                                        	use	data
    004150  aa  156 145 141 162         s460:	aci	"nearest_integer"
    004151  aa  145 163 164 137
    004152  aa  151 156 164 145
    004153  aa  147 145 162 000
                                   521  	normal	(ftn_inquire_element),461
                                        	use	text
    000722  0a   004154 000023          	zero	s461,19
                                        	use	data
    004154  aa  146 164 156 137         s461:	aci	"ftn_inquire_element"
    004155  aa  151 156 161 165
    004156  aa  151 162 145 137
    004157  aa  145 154 145 155
    004160  aa  145 156 164 000
                                   522  	normal	(mpy_overflow_check),462
                                        	use	text
    000723  0a   004161 000022          	zero	s462,18
                                        	use	data
    004161  aa  155 160 171 137         s462:	aci	"mpy_overflow_check"
    004162  aa  157 166 145 162
    004163  aa  146 154 157 167
    004164  aa  137 143 150 145
    004165  aa  143 153 000 000
                                   523  	normal	(fort_return_mac),463
                                        	use	text
    000724  0a   004166 000017          	zero	s463,15
                                        	use	data
    004166  aa  146 157 162 164         s463:	aci	"fort_return_mac"
    004167  aa  137 162 145 164
    004170  aa  165 162 156 137
    004171  aa  155 141 143 000
                                   524  	normal	(fort_cleanup),464
                                        	use	text
    000725  0a   004172 000014          	zero	s464,12
                                        	use	data
    004172  aa  146 157 162 164         s464:	aci	"fort_cleanup"
    004173  aa  137 143 154 145
    004174  aa  141 156 165 160
                                   525  	normal	(fort_storage),465
                                        	use	text
    000726  0a   004175 000014          	zero	s465,12
                                        	use	data
    004175  aa  146 157 162 164         s465:	aci	"fort_storage"
    004176  aa  137 163 164 157
    004177  aa  162 141 147 145
                                   526  	normal	(enter_BFP_mode),466
                                        	use	text
    000727  0a   004200 000016          	zero	s466,14
                                        	use	data
    004200  aa  145 156 164 145         s466:	aci	"enter_BFP_mode"
    004201  aa  162 137 102 106
    004202  aa  120 137 155 157
    004203  aa  144 145 000 000
                                   527  	normal	(enter_HFP_mode),467
                                        	use	text
    000730  0a   004204 000016          	zero	s467,14
                                        	use	data
    004204  aa  145 156 164 145         s467:	aci	"enter_HFP_mode"
    004205  aa  162 137 110 106
    004206  aa  120 137 155 157
    004207  aa  144 145 000 000
                                   528  	use	text
    000731                         529  last_normal:
    000731                         530  first_spec:
                                   531  	special	(VLA_words_per_seg_),-115
                                        	use	text
    000731  aa   777777 777615          	dec	-115
    000732  0a   004210 000022          	zero	.._00000,18
                                        	use	data
    004210  aa  126 114 101 137         .._00000:	aci	"VLA_words_per_seg_"
    004211  aa  167 157 162 144
    004212  aa  163 137 160 145
    004213  aa  162 137 163 145
    004214  aa  147 137 000 000
                                   532  	special	(fx1_to_fx2),306
                                        	use	text
    000733  aa   000000 000462          	dec	306
    000734  0a   004215 000012          	zero	.._00001,10
                                        	use	data
    004215  aa  146 170 061 137         .._00001:	aci	"fx1_to_fx2"
    004216  aa  164 157 137 146
    004217  aa  170 062 000 000
                                   533  	special	(fx1_to_fl2),309
                                        	use	text
    000735  aa   000000 000465          	dec	309
    000736  0a   004220 000012          	zero	.._00002,10
                                        	use	data
    004220  aa  146 170 061 137         .._00002:	aci	"fx1_to_fl2"
    004221  aa  164 157 137 146
    004222  aa  154 062 000 000
                                   534  	special	(fx2_to_fl2),310
                                        	use	text
    000737  aa   000000 000466          	dec	310
    000740  0a   004223 000012          	zero	.._00003,10
                                        	use	data
    004223  aa  146 170 062 137         .._00003:	aci	"fx2_to_fl2"
    004224  aa  164 157 137 146
    004225  aa  154 062 000 000
                                   535  	special	(reset_stack),314
                                        	use	text
    000741  aa   000000 000472          	dec	314
    000742  0a   004226 000013          	zero	.._00004,11
                                        	use	data
    004226  aa  162 145 163 145         .._00004:	aci	"reset_stack"
    004227  aa  164 137 163 164
    004230  aa  141 143 153 000
                                   536  	special	(r_l_a),316
                                        	use	text
    000743  aa   000000 000474          	dec	316
    000744  0a   004231 000005          	zero	.._00005,5
                                        	use	data
    004231  aa  162 137 154 137         .._00005:	aci	"r_l_a"
    004232  aa  141 000 000 000
                                   537  	special	(r_g_s),319
                                        	use	text
    000745  aa   000000 000477          	dec	319
    000746  0a   004233 000005          	zero	.._00006,5
                                        	use	data
    004233  aa  162 137 147 137         .._00006:	aci	"r_g_s"
    004234  aa  163 000 000 000
                                   538  	special	(r_g_a),323
                                        	use	text
    000747  aa   000000 000503          	dec	323
    000750  0a   004235 000005          	zero	.._00007,5
                                        	use	data
    004235  aa  162 137 147 137         .._00007:	aci	"r_g_a"
    004236  aa  141 000 000 000
                                   539  	special	(r_l_s),327
                                        	use	text
    000751  aa   000000 000507          	dec	327
    000752  0a   004237 000005          	zero	.._00010,5
                                        	use	data
    004237  aa  162 137 154 137         .._00010:	aci	"r_l_s"
    004240  aa  163 000 000 000
                                   540  	special	(r_e_as),330
                                        	use	text
    000753  aa   000000 000512          	dec	330
    000754  0a   004241 000006          	zero	.._00011,6
                                        	use	data
    004241  aa  162 137 145 137         .._00011:	aci	"r_e_as"
    004242  aa  141 163 000 000
                                   541  	special	(r_ne_as),333
                                        	use	text
    000755  aa   000000 000515          	dec	333
    000756  0a   004243 000007          	zero	.._00012,7
                                        	use	data
    004243  aa  162 137 156 145         .._00012:	aci	"r_ne_as"
    004244  aa  137 141 163 000
                                   542  	special	(r_le_a),336
                                        	use	text
    000757  aa   000000 000520          	dec	336
    000760  0a   004245 000006          	zero	.._00013,6
                                        	use	data
    004245  aa  162 137 154 145         .._00013:	aci	"r_le_a"
    004246  aa  137 141 000 000
                                   543  	special	(r_ge_s),340
                                        	use	text
    000761  aa   000000 000524          	dec	340
    000762  0a   004247 000006          	zero	.._00014,6
                                        	use	data
    004247  aa  162 137 147 145         .._00014:	aci	"r_ge_s"
    004250  aa  137 163 000 000
                                   544  	special	(r_ge_a),343
                                        	use	text
    000763  aa   000000 000527          	dec	343
    000764  0a   004251 000006          	zero	.._00015,6
                                        	use	data
    004251  aa  162 137 147 145         .._00015:	aci	"r_ge_a"
    004252  aa  137 141 000 000
                                   545  	special	(r_le_s),346
                                        	use	text
    000765  aa   000000 000532          	dec	346
    000766  0a   004253 000006          	zero	.._00016,6
                                        	use	data
    004253  aa  162 137 154 145         .._00016:	aci	"r_le_s"
    004254  aa  137 163 000 000
                                   546  	special	(set_stack),352
                                        	use	text
    000767  aa   000000 000540          	dec	352
    000770  0a   004255 000011          	zero	.._00017,9
                                        	use	data
    004255  aa  163 145 164 137         .._00017:	aci	"set_stack"
    004256  aa  163 164 141 143
    004257  aa  153 000 000 000
                                   547  	use	text
    000771                         548  last_spec:
                                   549  	join	/text/text,data
                                   550  	end

NO LITERALS

NAME DEFINITIONS FOR ENTRY POINTS AND SEGDEFS

    004260  5a   000003 000000
    004261  5a   000071 600000
    004262  aa   000000 000000
    004263  55   000013 000002
    004264  5a   000002 400003
    004265  55   000006 000013
    004266  aa  023 160 154 061
    004267  aa  137 157 160 145
    004270  aa  162 141 164 157
    004271  aa  162 137 156 141
    004272  aa  155 145 163 137
    004273  55   000022 000003
    004274  0a   000004 400000
    004275  55   000016 000003
    004276  aa  016 156 165 155         number_special
    004277  aa  142 145 162 137
    004300  aa  163 160 145 143
    004301  aa  151 141 154 000
    004302  55   000031 000013
    004303  0a   000003 400000
    004304  55   000025 000003
    004305  aa  014 154 141 163         last_special
    004306  aa  164 137 163 160
    004307  aa  145 143 151 141
    004310  aa  154 000 000 000
    004311  55   000040 000022
    004312  0a   000002 400000
    004313  55   000034 000003
    004314  aa  015 146 151 162         first_special
    004315  aa  163 164 137 163
    004316  aa  160 145 143 151
    004317  aa  141 154 000 000
    004320  55   000045 000031
    004321  0a   000001 400000
    004322  55   000043 000003
    004323  aa  004 154 141 163         last
    004324  aa  164 000 000 000
    004325  55   000052 000040
    004326  0a   000000 400000
    004327  55   000050 000003
    004330  aa  005 146 151 162         first
    004331  aa  163 164 000 000
    004332  55   000062 000045
    004333  0a   000000 400000
    004334  55   000055 000003
    004335  aa  023 160 154 061         pl1_operator_names_
    004336  aa  137 157 160 145
    004337  aa  162 141 164 157
    004340  aa  162 137 156 141
    004341  aa  155 145 163 137
    004342  55   000002 000052
    004343  6a   000000 400002
    004344  55   000065 000003
    004345  aa  014 163 171 155         symbol_table
    004346  aa  142 157 154 137
    004347  aa  164 141 142 154
    004350  aa  145 000 000 000

DEFINITIONS HASH TABLE

    004351  aa   000000 000015
    004352  aa   000000 000000
    004353  aa   000000 000000
    004354  aa   000000 000000
    004355  5a   000022 000000
    004356  5a   000031 000000
    004357  5a   000040 000000
    004360  5a   000045 000000
    004361  5a   000013 000000
    004362  5a   000052 000000
    004363  5a   000062 000000
    004364  aa   000000 000000
    004365  aa   000000 000000
    004366  aa   000000 000000

NO EXTERNAL NAMES

NO TRAP POINTER WORDS

TYPE PAIR BLOCKS

    004367  aa   000001 000000
    004370  aa   000000 000000

INTERNAL EXPRESSION WORDS

    004371  aa   000000 000000
LINKAGE INFORMATION

    000000  aa   000000 000000
    000001  0a   004260 000000
    000002  aa   000000 000000
    000003  aa   000000 000000
    000004  aa   000000 000000
    000005  aa   000000 000000
    000006  22   000010 000010
    000007  a2   000000 000000
SYMBOL INFORMATION

SYMBOL TABLE HEADER

    000000  aa   000000 000001
    000001  aa   163171 155142
    000002  aa   164162 145145
    000003  aa   000000 000004
    000004  aa   000000 112143
    000005  aa   305203 523135
    000006  aa   000000 114600
    000007  aa   274521 663355
    000010  aa   141154 155040
    000011  aa   040040 040040
    000012  aa   000024 000040
    000013  aa   000034 000040
    000014  aa   000044 000100
    000015  aa   000002 000002
    000016  aa   000064 000000
    000017  aa   000000 000402
    000020  aa   000000 000105
    000021  aa   000000 000371
    000022  aa   000374 000105
    000023  aa   000064 000000
    000024  aa   101114 115040
    000025  aa   126145 162163
    000026  aa   151157 156040
    000027  aa   040066 056066
    000030  aa   040040 116157
    000031  aa   166145 155142
    000032  aa   145162 040061
    000033  aa   071070 062040
    000034  aa   107112 157150
    000035  aa   156163 157156
    000036  aa   056123 171163
    000037  aa   115141 151156
    000040  aa   164056 141040
    000041  aa   040040 040040
    000042  aa   040040 040040
    000043  aa   040040 040040
    000044  aa   055164 141162
    000045  aa   147145 164040
    000046  aa   114145 166145
    000047  aa   154066 070040
    000050  aa   154151 163164
    000051  aa   040040 040040
    000052  aa   040040 040040
    000053  aa   040040 040040
    000054  aa   040040 040040
    000055  aa   040040 040040
    000056  aa   040040 040040
    000057  aa   040040 040040
    000060  aa   040040 040040
    000061  aa   040040 040040
    000062  aa   040040 040040
    000063  aa   040040 040040
    000064  aa   000000 000001
    000065  aa   000000 000001
    000066  aa   000072 000052
    000067  aa   145735 403076
    000070  aa   000000 114600
    000071  aa   264771 600000
    000072  aa   076163 160145          >spec>install>1105>pl1_operator_names_.alm
    000073  aa   143076 151156
    000074  aa   163164 141154
    000075  aa   154076 061061
    000076  aa   060065 076160
    000077  aa   154061 137157
    000100  aa   160145 162141
    000101  aa   164157 162137
    000102  aa   156141 155145
    000103  aa   163137 056141
    000104  aa   154155 040040
               MULTICS ASSEMBLY CROSS REFERENCE LISTING

   Value        Symbol                   Source file   Line number

        4210    .._00000                 pl1_operator_names_:      531.
        4215    .._00001                 pl1_operator_names_:      532.
        4220    .._00002                 pl1_operator_names_:      533.
        4223    .._00003                 pl1_operator_names_:      534.
        4226    .._00004                 pl1_operator_names_:      535.
        4231    .._00005                 pl1_operator_names_:      536.
        4233    .._00006                 pl1_operator_names_:      537.
        4235    .._00007                 pl1_operator_names_:      538.
        4237    .._00010                 pl1_operator_names_:      539.
        4241    .._00011                 pl1_operator_names_:      540.
        4243    .._00012                 pl1_operator_names_:      541.
        4245    .._00013                 pl1_operator_names_:      542.
        4247    .._00014                 pl1_operator_names_:      543.
        4251    .._00015                 pl1_operator_names_:      544.
        4253    .._00016                 pl1_operator_names_:      545.
        4255    .._00017                 pl1_operator_names_:      546.
         771    data                     pl1_operator_names_:       60,   61,   62,   63,   64,   65,   66,   67,   68,   69,
                                                                    70,   71,   72,   73,   74,   75,   76,   77,   78,   79,
                                                                    80,   81,   82,   83,   84,   85,   86,   87,   88,   89,
                                                                    90,   91,   92,   93,   94,   95,   96,   97,   98,   99,
                                                                   100,  101,  102,  103,  104,  105,  106,  107,  108,  109,
                                                                   110,  111,  112,  113,  114,  115,  116,  117,  118,  119,
                                                                   120,  121,  122,  123,  124,  125,  126,  127,  128,  129,
                                                                   130,  131,  132,  133,  134,  135,  136,  137,  138,  139,
                                                                   140,  141,  142,  143,  144,  145,  146,  147,  148,  149,
                                                                   150,  151,  152,  153,  154,  155,  156,  157,  158,  159,
                                                                   160,  161,  162,  163,  164,  165,  166,  167,  168,  169,
                                                                   170,  171,  172,  173,  174,  175,  176,  177,  178,  179,
                                                                   180,  181,  182,  183,  184,  185,  186,  187,  188,  189,
                                                                   190,  191,  192,  193,  194,  195,  196,  197,  198,  199,
                                                                   200,  201,  202,  203,  204,  205,  206,  207,  208,  209,
                                                                   210,  211,  212,  213,  214,  215,  216,  217,  218,  219,
                                                                   220,  221,  222,  223,  224,  225,  226,  227,  228,  229,
                                                                   230,  231,  232,  233,  234,  235,  236,  237,  238,  239,
                                                                   240,  241,  242,  243,  244,  245,  246,  247,  248,  249,
                                                                   250,  251,  252,  253,  254,  255,  256,  257,  258,  259,
                                                                   260,  261,  262,  263,  264,  265,  266,  267,  268,  269,
                                                                   270,  271,  272,  273,  274,  275,  276,  277,  278,  279,
                                                                   280,  281,  282,  283,  284,  285,  286,  287,  288,  289,
                                                                   290,  291,  292,  293,  294,  295,  296,  297,  298,  299,
                                                                   300,  301,  302,  303,  304,  305,  306,  307,  308,  309,
                                                                   310,  311,  312,  313,  314,  315,  316,  317,  318,  319,
                                                                   320,  321,  322,  323,  324,  325,  326,  327,  328,  329,
                                                                   330,  331,  332,  333,  334,  335,  336,  337,  338,  339,
                                                                   340,  341,  342,  343,  344,  345,  346,  347,  348,  349,
                                                                   350,  351,  352,  353,  354,  355,  356,  357,  358,  359,
                                                                   360,  361,  362,  363,  364,  365,  366,  367,  368,  369,
                                                                   370,  371,  372,  373,  374,  375,  376,  377,  378,  379,
                                                                   380,  381,  382,  383,  384,  385,  386,  387,  388,  389,
                                                                   390,  391,  392,  393,  394,  395,  396,  397,  398,  399,
                                                                   400,  401,  402,  403,  404,  405,  406,  407,  408,  409,
                                                                   410,  411,  412,  413,  414,  415,  416,  417,  418,  419,
                                                                   420,  421,  422,  423,  424,  425,  426,  427,  428,  429,
                                                                   430,  431,  432,  433,  434,  435,  436,  437,  438,  439,
                                                                   440,  441,  442,  443,  444,  445,  446,  447,  448,  449,
                                                                   450,  451,  452,  453,  454,  455,  456,  457,  458,  459,
                                                                   460,  461,  462,  463,  464,  465,  466,  467,  468,  469,
                                                                   470,  471,  472,  473,  474,  475,  476,  477,  478,  479,
                                                                   480,  481,  482,  483,  484,  485,  486,  487,  488,  489,
                                                                   490,  491,  492,  493,  494,  495,  496,  497,  498,  499,
                                                                   500,  501,  502,  503,  504,  505,  506,  507,  508,  509,
                                                                   510,  511,  512,  513,  514,  515,  516,  517,  518,  519,
                                                                   520,  521,  522,  523,  524,  525,  526,  527,  531,  532,
                                                                   533,  534,  535,  536,  537,  538,  539,  540,  541,  542,
                                                                   543,  544,  545,  546,  549.
           0    first                    pl1_operator_names_:       25,   32.
         551    first_n                  pl1_operator_names_:       28,   33,   35.
           5    first_normal             pl1_operator_names_:       35,   59.
      777615    first_s                  pl1_operator_names_:       29,   37.
         731    first_spec               pl1_operator_names_:       41,  530.
           2    first_special            pl1_operator_names_:       25,   36.
           1    last                     pl1_operator_names_:       25,   34.
         731    last_normal              pl1_operator_names_:       35,  529.
         550    last_s                   pl1_operator_names_:       30,   39.
         771    last_spec                pl1_operator_names_:       41,  548.
           3    last_special             pl1_operator_names_:       25,   38.
           4    number_special           pl1_operator_names_:       25,   40.
           0    pl1_operator_names_      pl1_operator_names_:       25,   27.
         771    s0                       pl1_operator_names_:       60.
         775    s1                       pl1_operator_names_:       61.
        1036    s10                      pl1_operator_names_:       70.
        1524    s100                     pl1_operator_names_:      160.
        1526    s101                     pl1_operator_names_:      161.
        1531    s102                     pl1_operator_names_:      162.
        1534    s103                     pl1_operator_names_:      163.
        1537    s104                     pl1_operator_names_:      164.
        1544    s105                     pl1_operator_names_:      165.
        1547    s106                     pl1_operator_names_:      166.
        1554    s107                     pl1_operator_names_:      167.
        1557    s108                     pl1_operator_names_:      168.
        1564    s109                     pl1_operator_names_:      169.
        1041    s11                      pl1_operator_names_:       71.
        1567    s110                     pl1_operator_names_:      170.
        1572    s111                     pl1_operator_names_:      171.
        1575    s112                     pl1_operator_names_:      172.
        1600    s113                     pl1_operator_names_:      173.
        1604    s114                     pl1_operator_names_:      174.
        1610    s115                     pl1_operator_names_:      175.
        1613    s116                     pl1_operator_names_:      176.
        1616    s117                     pl1_operator_names_:      177.
        1621    s118                     pl1_operator_names_:      178.
        1624    s119                     pl1_operator_names_:      179.
        1046    s12                      pl1_operator_names_:       72.
        1627    s120                     pl1_operator_names_:      180.
        1632    s121                     pl1_operator_names_:      181.
        1635    s122                     pl1_operator_names_:      182.
        1640    s123                     pl1_operator_names_:      183.
        1643    s124                     pl1_operator_names_:      184.
        1646    s125                     pl1_operator_names_:      185.
        1652    s126                     pl1_operator_names_:      186.
        1656    s127                     pl1_operator_names_:      187.
        1662    s128                     pl1_operator_names_:      188.
        1666    s129                     pl1_operator_names_:      189.
        1051    s13                      pl1_operator_names_:       73.
        1671    s130                     pl1_operator_names_:      190.
        1674    s131                     pl1_operator_names_:      191.
        1700    s132                     pl1_operator_names_:      192.
        1704    s133                     pl1_operator_names_:      193.
        1711    s134                     pl1_operator_names_:      194.
        1716    s135                     pl1_operator_names_:      195.
        1721    s136                     pl1_operator_names_:      196.
        1724    s137                     pl1_operator_names_:      197.
        1727    s138                     pl1_operator_names_:      198.
        1732    s139                     pl1_operator_names_:      199.
        1056    s14                      pl1_operator_names_:       74.
        1735    s140                     pl1_operator_names_:      200.
        1740    s141                     pl1_operator_names_:      201.
        1745    s142                     pl1_operator_names_:      202.
        1750    s143                     pl1_operator_names_:      203.
        1754    s144                     pl1_operator_names_:      204.
        1760    s145                     pl1_operator_names_:      205.
        1762    s146                     pl1_operator_names_:      206.
        1764    s147                     pl1_operator_names_:      207.
        1766    s148                     pl1_operator_names_:      208.
        1770    s149                     pl1_operator_names_:      209.
        1061    s15                      pl1_operator_names_:       75.
        1774    s150                     pl1_operator_names_:      210.
        2000    s151                     pl1_operator_names_:      211.
        2004    s152                     pl1_operator_names_:      212.
        2010    s153                     pl1_operator_names_:      213.
        2014    s154                     pl1_operator_names_:      214.
        2020    s155                     pl1_operator_names_:      215.
        2023    s156                     pl1_operator_names_:      216.
        2026    s157                     pl1_operator_names_:      217.
        2031    s158                     pl1_operator_names_:      218.
        2034    s159                     pl1_operator_names_:      219.
        1066    s16                      pl1_operator_names_:       76.
        2037    s160                     pl1_operator_names_:      220.
        2042    s161                     pl1_operator_names_:      221.
        2044    s162                     pl1_operator_names_:      222.
        2046    s163                     pl1_operator_names_:      223.
        2052    s164                     pl1_operator_names_:      224.
        2055    s165                     pl1_operator_names_:      225.
        2062    s166                     pl1_operator_names_:      226.
        2065    s167                     pl1_operator_names_:      227.
        2070    s168                     pl1_operator_names_:      228.
        2073    s169                     pl1_operator_names_:      229.
        1072    s17                      pl1_operator_names_:       77.
        2100    s170                     pl1_operator_names_:      230.
        2104    s171                     pl1_operator_names_:      231.
        2110    s172                     pl1_operator_names_:      232.
        2114    s173                     pl1_operator_names_:      233.
        2120    s174                     pl1_operator_names_:      234.
        2124    s175                     pl1_operator_names_:      235.
        2130    s176                     pl1_operator_names_:      236.
        2134    s177                     pl1_operator_names_:      237.
        2140    s178                     pl1_operator_names_:      238.
        2143    s179                     pl1_operator_names_:      239.
        1100    s18                      pl1_operator_names_:       78.
        2150    s180                     pl1_operator_names_:      240.
        2154    s181                     pl1_operator_names_:      241.
        2160    s182                     pl1_operator_names_:      242.
        2162    s183                     pl1_operator_names_:      243.
        2165    s184                     pl1_operator_names_:      244.
        2170    s185                     pl1_operator_names_:      245.
        2174    s186                     pl1_operator_names_:      246.
        2200    s187                     pl1_operator_names_:      247.
        2204    s188                     pl1_operator_names_:      248.
        2207    s189                     pl1_operator_names_:      249.
        1103    s19                      pl1_operator_names_:       79.
        2213    s190                     pl1_operator_names_:      250.
        2216    s191                     pl1_operator_names_:      251.
        2222    s192                     pl1_operator_names_:      252.
        2225    s193                     pl1_operator_names_:      253.
        2231    s194                     pl1_operator_names_:      254.
        2236    s195                     pl1_operator_names_:      255.
        2242    s196                     pl1_operator_names_:      256.
        2245    s197                     pl1_operator_names_:      257.
        2250    s198                     pl1_operator_names_:      258.
        2254    s199                     pl1_operator_names_:      259.
        1001    s2                       pl1_operator_names_:       62.
        1106    s20                      pl1_operator_names_:       80.
        2260    s200                     pl1_operator_names_:      260.
        2264    s201                     pl1_operator_names_:      261.
        2270    s202                     pl1_operator_names_:      262.
        2274    s203                     pl1_operator_names_:      263.
        2300    s204                     pl1_operator_names_:      264.
        2304    s205                     pl1_operator_names_:      265.
        2307    s206                     pl1_operator_names_:      266.
        2312    s207                     pl1_operator_names_:      267.
        2315    s208                     pl1_operator_names_:      268.
        2320    s209                     pl1_operator_names_:      269.
        1111    s21                      pl1_operator_names_:       81.
        2322    s210                     pl1_operator_names_:      270.
        2325    s211                     pl1_operator_names_:      271.
        2330    s212                     pl1_operator_names_:      272.
        2332    s213                     pl1_operator_names_:      273.
        2335    s214                     pl1_operator_names_:      274.
        2340    s215                     pl1_operator_names_:      275.
        2342    s216                     pl1_operator_names_:      276.
        2345    s217                     pl1_operator_names_:      277.
        2350    s218                     pl1_operator_names_:      278.
        2352    s219                     pl1_operator_names_:      279.
        1113    s22                      pl1_operator_names_:       82.
        2355    s220                     pl1_operator_names_:      280.
        2360    s221                     pl1_operator_names_:      281.
        2362    s222                     pl1_operator_names_:      282.
        2365    s223                     pl1_operator_names_:      283.
        2370    s224                     pl1_operator_names_:      284.
        2373    s225                     pl1_operator_names_:      285.
        2376    s226                     pl1_operator_names_:      286.
        2402    s227                     pl1_operator_names_:      287.
        2405    s228                     pl1_operator_names_:      288.
        2410    s229                     pl1_operator_names_:      289.
        1117    s23                      pl1_operator_names_:       83.
        2412    s230                     pl1_operator_names_:      290.
        2414    s231                     pl1_operator_names_:      291.
        2416    s232                     pl1_operator_names_:      292.
        2421    s233                     pl1_operator_names_:      293.
        2424    s234                     pl1_operator_names_:      294.
        2426    s235                     pl1_operator_names_:      295.
        2430    s236                     pl1_operator_names_:      296.
        2433    s237                     pl1_operator_names_:      297.
        2436    s238                     pl1_operator_names_:      298.
        2440    s239                     pl1_operator_names_:      299.
        1121    s24                      pl1_operator_names_:       84.
        2444    s240                     pl1_operator_names_:      300.
        2451    s241                     pl1_operator_names_:      301.
        2456    s242                     pl1_operator_names_:      302.
        2463    s243                     pl1_operator_names_:      303.
        2465    s244                     pl1_operator_names_:      304.
        2470    s245                     pl1_operator_names_:      305.
        2473    s246                     pl1_operator_names_:      306.
        2476    s247                     pl1_operator_names_:      307.
        2501    s248                     pl1_operator_names_:      308.
        2505    s249                     pl1_operator_names_:      309.
        1124    s25                      pl1_operator_names_:       85.
        2511    s250                     pl1_operator_names_:      310.
        2515    s251                     pl1_operator_names_:      311.
        2520    s252                     pl1_operator_names_:      312.
        2523    s253                     pl1_operator_names_:      313.
        2527    s254                     pl1_operator_names_:      314.
        2534    s255                     pl1_operator_names_:      315.
        2541    s256                     pl1_operator_names_:      316.
        2546    s257                     pl1_operator_names_:      317.
        2552    s258                     pl1_operator_names_:      318.
        2556    s259                     pl1_operator_names_:      319.
        1127    s26                      pl1_operator_names_:       86.
        2562    s260                     pl1_operator_names_:      320.
        2566    s261                     pl1_operator_names_:      321.
        2571    s262                     pl1_operator_names_:      322.
        2575    s263                     pl1_operator_names_:      323.
        2601    s264                     pl1_operator_names_:      324.
        2605    s265                     pl1_operator_names_:      325.
        2611    s266                     pl1_operator_names_:      326.
        2615    s267                     pl1_operator_names_:      327.
        2622    s268                     pl1_operator_names_:      328.
        2625    s269                     pl1_operator_names_:      329.
        1132    s27                      pl1_operator_names_:       87.
        2630    s270                     pl1_operator_names_:      330.
        2633    s271                     pl1_operator_names_:      331.
        2635    s272                     pl1_operator_names_:      332.
        2637    s273                     pl1_operator_names_:      333.
        2642    s274                     pl1_operator_names_:      334.
        2647    s275                     pl1_operator_names_:      335.
        2652    s276                     pl1_operator_names_:      336.
        2655    s277                     pl1_operator_names_:      337.
        2660    s278                     pl1_operator_names_:      338.
        2664    s279                     pl1_operator_names_:      339.
        1135    s28                      pl1_operator_names_:       88.
        2670    s280                     pl1_operator_names_:      340.
        2675    s281                     pl1_operator_names_:      341.
        2701    s282                     pl1_operator_names_:      342.
        2705    s283                     pl1_operator_names_:      343.
        2711    s284                     pl1_operator_names_:      344.
        2715    s285                     pl1_operator_names_:      345.
        2720    s286                     pl1_operator_names_:      346.
        2724    s287                     pl1_operator_names_:      347.
        2727    s288                     pl1_operator_names_:      348.
        2733    s289                     pl1_operator_names_:      349.
        1140    s29                      pl1_operator_names_:       89.
        2737    s290                     pl1_operator_names_:      350.
        2742    s291                     pl1_operator_names_:      351.
        2746    s292                     pl1_operator_names_:      352.
        2750    s293                     pl1_operator_names_:      353.
        2753    s294                     pl1_operator_names_:      354.
        2756    s295                     pl1_operator_names_:      355.
        2761    s296                     pl1_operator_names_:      356.
        2764    s297                     pl1_operator_names_:      357.
        2770    s298                     pl1_operator_names_:      358.
        2774    s299                     pl1_operator_names_:      359.
        1004    s3                       pl1_operator_names_:       63.
        1145    s30                      pl1_operator_names_:       90.
        2777    s300                     pl1_operator_names_:      360.
        3002    s301                     pl1_operator_names_:      361.
        3005    s302                     pl1_operator_names_:      362.
        3011    s303                     pl1_operator_names_:      363.
        3014    s304                     pl1_operator_names_:      364.
        3020    s305                     pl1_operator_names_:      365.
        3024    s306                     pl1_operator_names_:      366.
        3030    s307                     pl1_operator_names_:      367.
        3034    s308                     pl1_operator_names_:      368.
        3040    s309                     pl1_operator_names_:      369.
        1151    s31                      pl1_operator_names_:       91.
        3044    s310                     pl1_operator_names_:      370.
        3047    s311                     pl1_operator_names_:      371.
        3052    s312                     pl1_operator_names_:      372.
        3055    s313                     pl1_operator_names_:      373.
        3060    s314                     pl1_operator_names_:      374.
        3063    s315                     pl1_operator_names_:      375.
        3066    s316                     pl1_operator_names_:      376.
        3071    s317                     pl1_operator_names_:      377.
        3074    s318                     pl1_operator_names_:      378.
        3100    s319                     pl1_operator_names_:      379.
        1153    s32                      pl1_operator_names_:       92.
        3104    s320                     pl1_operator_names_:      380.
        3111    s321                     pl1_operator_names_:      381.
        3116    s322                     pl1_operator_names_:      382.
        3123    s323                     pl1_operator_names_:      383.
        3130    s324                     pl1_operator_names_:      384.
        3136    s325                     pl1_operator_names_:      385.
        3143    s326                     pl1_operator_names_:      386.
        3150    s327                     pl1_operator_names_:      387.
        3154    s328                     pl1_operator_names_:      388.
        3157    s329                     pl1_operator_names_:      389.
        1157    s33                      pl1_operator_names_:       93.
        3162    s330                     pl1_operator_names_:      390.
        3165    s331                     pl1_operator_names_:      391.
        3170    s332                     pl1_operator_names_:      392.
        3173    s333                     pl1_operator_names_:      393.
        3177    s334                     pl1_operator_names_:      394.
        3203    s335                     pl1_operator_names_:      395.
        3207    s336                     pl1_operator_names_:      396.
        3213    s337                     pl1_operator_names_:      397.
        3216    s338                     pl1_operator_names_:      398.
        3221    s339                     pl1_operator_names_:      399.
        1161    s34                      pl1_operator_names_:       94.
        3224    s340                     pl1_operator_names_:      400.
        3230    s341                     pl1_operator_names_:      401.
        3234    s342                     pl1_operator_names_:      402.
        3240    s343                     pl1_operator_names_:      403.
        3244    s344                     pl1_operator_names_:      404.
        3250    s345                     pl1_operator_names_:      405.
        3254    s346                     pl1_operator_names_:      406.
        3261    s347                     pl1_operator_names_:      407.
        3266    s348                     pl1_operator_names_:      408.
        3273    s349                     pl1_operator_names_:      409.
        1165    s35                      pl1_operator_names_:       95.
        3300    s350                     pl1_operator_names_:      410.
        3305    s351                     pl1_operator_names_:      411.
        3312    s352                     pl1_operator_names_:      412.
        3315    s353                     pl1_operator_names_:      413.
        3320    s354                     pl1_operator_names_:      414.
        3323    s355                     pl1_operator_names_:      415.
        3326    s356                     pl1_operator_names_:      416.
        3333    s357                     pl1_operator_names_:      417.
        3340    s358                     pl1_operator_names_:      418.
        3345    s359                     pl1_operator_names_:      419.
        1172    s36                      pl1_operator_names_:       96.
        3353    s360                     pl1_operator_names_:      420.
        3361    s361                     pl1_operator_names_:      421.
        3367    s362                     pl1_operator_names_:      422.
        3375    s363                     pl1_operator_names_:      423.
        3403    s364                     pl1_operator_names_:      424.
        3411    s365                     pl1_operator_names_:      425.
        3420    s366                     pl1_operator_names_:      426.
        3427    s367                     pl1_operator_names_:      427.
        3435    s368                     pl1_operator_names_:      428.
        3443    s369                     pl1_operator_names_:      429.
        1177    s37                      pl1_operator_names_:       97.
        3450    s370                     pl1_operator_names_:      430.
        3455    s371                     pl1_operator_names_:      431.
        3462    s372                     pl1_operator_names_:      432.
        3467    s373                     pl1_operator_names_:      433.
        3475    s374                     pl1_operator_names_:      434.
        3503    s375                     pl1_operator_names_:      435.
        3512    s376                     pl1_operator_names_:      436.
        3521    s377                     pl1_operator_names_:      437.
        3527    s378                     pl1_operator_names_:      438.
        3535    s379                     pl1_operator_names_:      439.
        1204    s38                      pl1_operator_names_:       98.
        3542    s380                     pl1_operator_names_:      440.
        3547    s381                     pl1_operator_names_:      441.
        3555    s382                     pl1_operator_names_:      442.
        3562    s383                     pl1_operator_names_:      443.
        3570    s384                     pl1_operator_names_:      444.
        3576    s385                     pl1_operator_names_:      445.
        3601    s386                     pl1_operator_names_:      446.
        3604    s387                     pl1_operator_names_:      447.
        3611    s388                     pl1_operator_names_:      448.
        3614    s389                     pl1_operator_names_:      449.
        1207    s39                      pl1_operator_names_:       99.
        3621    s390                     pl1_operator_names_:      450.
        3624    s391                     pl1_operator_names_:      451.
        3631    s392                     pl1_operator_names_:      452.
        3633    s393                     pl1_operator_names_:      453.
        3635    s394                     pl1_operator_names_:      454.
        3637    s395                     pl1_operator_names_:      455.
        3640    s396                     pl1_operator_names_:      456.
        3642    s397                     pl1_operator_names_:      457.
        3643    s398                     pl1_operator_names_:      458.
        3644    s399                     pl1_operator_names_:      459.
        1011    s4                       pl1_operator_names_:       64.
        1213    s40                      pl1_operator_names_:      100.
        3646    s400                     pl1_operator_names_:      460.
        3647    s401                     pl1_operator_names_:      461.
        3652    s402                     pl1_operator_names_:      462.
        3656    s403                     pl1_operator_names_:      463.
        3662    s404                     pl1_operator_names_:      464.
        3667    s405                     pl1_operator_names_:      465.
        3674    s406                     pl1_operator_names_:      466.
        3677    s407                     pl1_operator_names_:      467.
        3703    s408                     pl1_operator_names_:      468.
        3706    s409                     pl1_operator_names_:      469.
        1216    s41                      pl1_operator_names_:      101.
        3711    s410                     pl1_operator_names_:      470.
        3715    s411                     pl1_operator_names_:      471.
        3720    s412                     pl1_operator_names_:      472.
        3723    s413                     pl1_operator_names_:      473.
        3724    s414                     pl1_operator_names_:      474.
        3725    s415                     pl1_operator_names_:      475.
        3726    s416                     pl1_operator_names_:      476.
        3727    s417                     pl1_operator_names_:      477.
        3730    s418                     pl1_operator_names_:      478.
        3732    s419                     pl1_operator_names_:      479.
        1223    s42                      pl1_operator_names_:      102.
        3733    s420                     pl1_operator_names_:      480.
        3734    s421                     pl1_operator_names_:      481.
        3737    s422                     pl1_operator_names_:      482.
        3743    s423                     pl1_operator_names_:      483.
        3747    s424                     pl1_operator_names_:      484.
        3752    s425                     pl1_operator_names_:      485.
        3756    s426                     pl1_operator_names_:      486.
        3761    s427                     pl1_operator_names_:      487.
        3765    s428                     pl1_operator_names_:      488.
        3771    s429                     pl1_operator_names_:      489.
        1226    s43                      pl1_operator_names_:      103.
        3775    s430                     pl1_operator_names_:      490.
        4001    s431                     pl1_operator_names_:      491.
        4006    s432                     pl1_operator_names_:      492.
        4012    s433                     pl1_operator_names_:      493.
        4016    s434                     pl1_operator_names_:      494.
        4022    s435                     pl1_operator_names_:      495.
        4025    s436                     pl1_operator_names_:      496.
        4030    s437                     pl1_operator_names_:      497.
        4033    s438                     pl1_operator_names_:      498.
        4037    s439                     pl1_operator_names_:      499.
        1233    s44                      pl1_operator_names_:      104.
        4043    s440                     pl1_operator_names_:      500.
        4044    s441                     pl1_operator_names_:      501.
        4047    s442                     pl1_operator_names_:      502.
        4053    s443                     pl1_operator_names_:      503.
        4060    s444                     pl1_operator_names_:      504.
        4065    s445                     pl1_operator_names_:      505.
        4072    s446                     pl1_operator_names_:      506.
        4075    s447                     pl1_operator_names_:      507.
        4100    s448                     pl1_operator_names_:      508.
        4103    s449                     pl1_operator_names_:      509.
        1237    s45                      pl1_operator_names_:      105.
        4107    s450                     pl1_operator_names_:      510.
        4113    s451                     pl1_operator_names_:      511.
        4122    s452                     pl1_operator_names_:      512.
        4126    s453                     pl1_operator_names_:      513.
        4133    s454                     pl1_operator_names_:      514.
        4135    s455                     pl1_operator_names_:      515.
        4136    s456                     pl1_operator_names_:      516.
        4140    s457                     pl1_operator_names_:      517.
        4141    s458                     pl1_operator_names_:      518.
        4143    s459                     pl1_operator_names_:      519.
        1244    s46                      pl1_operator_names_:      106.
        4150    s460                     pl1_operator_names_:      520.
        4154    s461                     pl1_operator_names_:      521.
        4161    s462                     pl1_operator_names_:      522.
        4166    s463                     pl1_operator_names_:      523.
        4172    s464                     pl1_operator_names_:      524.
        4175    s465                     pl1_operator_names_:      525.
        4200    s466                     pl1_operator_names_:      526.
        4204    s467                     pl1_operator_names_:      527.
        1250    s47                      pl1_operator_names_:      107.
        1254    s48                      pl1_operator_names_:      108.
        1257    s49                      pl1_operator_names_:      109.
        1015    s5                       pl1_operator_names_:       65.
        1263    s50                      pl1_operator_names_:      110.
        1271    s51                      pl1_operator_names_:      111.
        1275    s52                      pl1_operator_names_:      112.
        1303    s53                      pl1_operator_names_:      113.
        1306    s54                      pl1_operator_names_:      114.
        1313    s55                      pl1_operator_names_:      115.
        1315    s56                      pl1_operator_names_:      116.
        1321    s57                      pl1_operator_names_:      117.
        1324    s58                      pl1_operator_names_:      118.
        1331    s59                      pl1_operator_names_:      119.
        1020    s6                       pl1_operator_names_:       66.
        1333    s60                      pl1_operator_names_:      120.
        1337    s61                      pl1_operator_names_:      121.
        1341    s62                      pl1_operator_names_:      122.
        1345    s63                      pl1_operator_names_:      123.
        1347    s64                      pl1_operator_names_:      124.
        1353    s65                      pl1_operator_names_:      125.
        1357    s66                      pl1_operator_names_:      126.
        1363    s67                      pl1_operator_names_:      127.
        1366    s68                      pl1_operator_names_:      128.
        1371    s69                      pl1_operator_names_:      129.
        1023    s7                       pl1_operator_names_:       67.
        1375    s70                      pl1_operator_names_:      130.
        1400    s71                      pl1_operator_names_:      131.
        1403    s72                      pl1_operator_names_:      132.
        1407    s73                      pl1_operator_names_:      133.
        1413    s74                      pl1_operator_names_:      134.
        1415    s75                      pl1_operator_names_:      135.
        1417    s76                      pl1_operator_names_:      136.
        1423    s77                      pl1_operator_names_:      137.
        1427    s78                      pl1_operator_names_:      138.
        1433    s79                      pl1_operator_names_:      139.
        1026    s8                       pl1_operator_names_:       68.
        1436    s80                      pl1_operator_names_:      140.
        1440    s81                      pl1_operator_names_:      141.
        1442    s82                      pl1_operator_names_:      142.
        1445    s83                      pl1_operator_names_:      143.
        1451    s84                      pl1_operator_names_:      144.
        1453    s85                      pl1_operator_names_:      145.
        1457    s86                      pl1_operator_names_:      146.
        1463    s87                      pl1_operator_names_:      147.
        1466    s88                      pl1_operator_names_:      148.
        1472    s89                      pl1_operator_names_:      149.
        1031    s9                       pl1_operator_names_:       69.
        1474    s90                      pl1_operator_names_:      150.
        1476    s91                      pl1_operator_names_:      151.
        1500    s92                      pl1_operator_names_:      152.
        1502    s93                      pl1_operator_names_:      153.
        1504    s94                      pl1_operator_names_:      154.
        1506    s95                      pl1_operator_names_:      155.
        1511    s96                      pl1_operator_names_:      156.
        1514    s97                      pl1_operator_names_:      157.
        1517    s98                      pl1_operator_names_:      158.
        1521    s99                      pl1_operator_names_:      159.
           5    text                     pl1_operator_names_:       58,   60,   61,   62,   63,   64,   65,   66,   67,   68,
                                                                    69,   70,   71,   72,   73,   74,   75,   76,   77,   78,
                                                                    79,   80,   81,   82,   83,   84,   85,   86,   87,   88,
                                                                    89,   90,   91,   92,   93,   94,   95,   96,   97,   98,
                                                                    99,  100,  101,  102,  103,  104,  105,  106,  107,  108,
                                                                   109,  110,  111,  112,  113,  114,  115,  116,  117,  118,
                                                                   119,  120,  121,  122,  123,  124,  125,  126,  127,  128,
                                                                   129,  130,  131,  132,  133,  134,  135,  136,  137,  138,
                                                                   139,  140,  141,  142,  143,  144,  145,  146,  147,  148,
                                                                   149,  150,  151,  152,  153,  154,  155,  156,  157,  158,
                                                                   159,  160,  161,  162,  163,  164,  165,  166,  167,  168,
                                                                   169,  170,  171,  172,  173,  174,  175,  176,  177,  178,
                                                                   179,  180,  181,  182,  183,  184,  185,  186,  187,  188,
                                                                   189,  190,  191,  192,  193,  194,  195,  196,  197,  198,
                                                                   199,  200,  201,  202,  203,  204,  205,  206,  207,  208,
                                                                   209,  210,  211,  212,  213,  214,  215,  216,  217,  218,
                                                                   219,  220,  221,  222,  223,  224,  225,  226,  227,  228,
                                                                   229,  230,  231,  232,  233,  234,  235,  236,  237,  238,
                                                                   239,  240,  241,  242,  243,  244,  245,  246,  247,  248,
                                                                   249,  250,  251,  252,  253,  254,  255,  256,  257,  258,
                                                                   259,  260,  261,  262,  263,  264,  265,  266,  267,  268,
                                                                   269,  270,  271,  272,  273,  274,  275,  276,  277,  278,
                                                                   279,  280,  281,  282,  283,  284,  285,  286,  287,  288,
                                                                   289,  290,  291,  292,  293,  294,  295,  296,  297,  298,
                                                                   299,  300,  301,  302,  303,  304,  305,  306,  307,  308,
                                                                   309,  310,  311,  312,  313,  314,  315,  316,  317,  318,
                                                                   319,  320,  321,  322,  323,  324,  325,  326,  327,  328,
                                                                   329,  330,  331,  332,  333,  334,  335,  336,  337,  338,
                                                                   339,  340,  341,  342,  343,  344,  345,  346,  347,  348,
                                                                   349,  350,  351,  352,  353,  354,  355,  356,  357,  358,
                                                                   359,  360,  361,  362,  363,  364,  365,  366,  367,  368,
                                                                   369,  370,  371,  372,  373,  374,  375,  376,  377,  378,
                                                                   379,  380,  381,  382,  383,  384,  385,  386,  387,  388,
                                                                   389,  390,  391,  392,  393,  394,  395,  396,  397,  398,
                                                                   399,  400,  401,  402,  403,  404,  405,  406,  407,  408,
                                                                   409,  410,  411,  412,  413,  414,  415,  416,  417,  418,
                                                                   419,  420,  421,  422,  423,  424,  425,  426,  427,  428,
                                                                   429,  430,  431,  432,  433,  434,  435,  436,  437,  438,
                                                                   439,  440,  441,  442,  443,  444,  445,  446,  447,  448,
                                                                   449,  450,  451,  452,  453,  454,  455,  456,  457,  458,
                                                                   459,  460,  461,  462,  463,  464,  465,  466,  467,  468,
                                                                   469,  470,  471,  472,  473,  474,  475,  476,  477,  478,
                                                                   479,  480,  481,  482,  483,  484,  485,  486,  487,  488,
                                                                   489,  490,  491,  492,  493,  494,  495,  496,  497,  498,
                                                                   499,  500,  501,  502,  503,  504,  505,  506,  507,  508,
                                                                   509,  510,  511,  512,  513,  514,  515,  516,  517,  518,
                                                                   519,  520,  521,  522,  523,  524,  525,  526,  527,  528,
                                                                   531,  532,  533,  534,  535,  536,  537,  538,  539,  540,
                                                                   541,  542,  543,  544,  545,  546,  547,  549.


NO FATAL ERRORS


                                          -----------------------------------------------------------


Historical Background

This edition of the Multics software materials and documentation is provided and donated
to Massachusetts Institute of Technology by Group BULL including BULL HN Information Systems Inc.
as a contribution to computer science knowledge.
This donation is made also to give evidence of the common contributions of Massachusetts Institute of Technology,
Bell Laboratories, General Electric, Honeywell Information Systems Inc., Honeywell BULL Inc., Groupe BULL
and BULL HN Information Systems Inc. to the development of this operating system.
Multics development was initiated by Massachusetts Institute of Technology Project MAC (1963-1970),
renamed the MIT Laboratory for Computer Science and Artificial Intelligence in the mid 1970s, under the leadership
of Professor Fernando Jose Corbato. Users consider that Multics provided the best software architecture
for managing computer hardware properly and for executing programs. Many subsequent operating systems
incorporated Multics principles.
Multics was distributed in 1975 to 2000 by Group Bull in Europe , and in the U.S. by Bull HN Information Systems Inc.,
as successor in interest by change in name only to Honeywell Bull Inc. and Honeywell Information Systems Inc. .

                                          -----------------------------------------------------------

Permission to use, copy, modify, and distribute these programs and their documentation for any purpose and without
fee is hereby granted,provided that the below copyright notice and historical background appear in all copies
and that both the copyright notice and historical background and this permission notice appear in supporting
documentation, and that the names of MIT, HIS, BULL or BULL HN not be used in advertising or publicity pertaining
to distribution of the programs without specific prior written permission.
    Copyright 1972 by Massachusetts Institute of Technology and Honeywell Information Systems Inc.
    Copyright 2006 by BULL HN Information Systems Inc.
    Copyright 2006 by Bull SAS
    All Rights Reserved
