	COMPILATION LISTING OF SEGMENT pl1_io_
	Compiled by: Multics PL/I Compiler, Release 28d, of September 14, 1983
	Compiled at: Honeywell LCPD Phoenix, System M
	Compiled on: 10/03/83  1409.0 mst Mon
	    Options: optimize map

        1 /* ******************************************************
        2*   *                                                    *
        3*   *                                                    *
        4*   * Copyright (c) 1972 by Massachusetts Institute of   *
        5*   * Technology and Honeywell Information Systems, Inc. *
        6*   *                                                    *
        7*   *                                                    *
        8*   ****************************************************** */
        9
       10 pl1_io_: proc;
       11
       12 	return;
       13
       14 	/* pl1_io_:  user-accessible interfaces to get PL/I I/O data */
       15 	/* Bernard Greenberg 12/20/76 */
       16
       17 dcl 1 file_variable aligned based,			/* Declaration of any PL/I File Value */
       18     2 fab_ptr ptr,					/* Pointer to File Attribute Block (FAB) */
       19     2 fsb_ptr ptr;					/* Pointer to File State Block (FSB */
       20
       21 dcl  a_file file variable;				/* Argument File */
       22
       23 dcl 1 a_file_value like file_variable aligned based (addr (a_file)); /* Redeclaration of parameter. */
       24
       25 get_iocb_ptr: entry (a_file) returns (ptr);		/* Return pointer to IOCB */
       26
       27 	return (a_file_value.fsb_ptr -> fsb.iocb_p);
       28
       29 error_code: entry (a_file) returns (fixed bin (35));	/* Return last non-zero error code. */
       30
       31 	return (a_file_value.fsb_ptr -> fsb.lnzc);
       32
       33 
       34 dcl  fsbp ptr;					/* Satisfy include file */
       35
  1     1 /* BEGIN INCLUDE FILE ... plio2_fsb.incl.pl1 */
  1     2 /* format: style3,idind30 */
  1     3
  1     4 declare	1 fsb			aligned based (fsbp),
  1     5 	  2 switch		aligned,
  1     6 	    3 zot			(2) bit (1) unaligned,
  1     7 	    3 version_2		bit (1) unaligned,
  1     8 	    3 open		bit (1) unaligned,
  1     9 	    3 print		bit (1) unaligned,
  1    10 	    3 input		bit (1) unaligned,
  1    11 	    3 output		bit (1) unaligned,
  1    12 	    3 update		bit (1) unaligned,
  1    13 	    3 stream		bit (1) unaligned,
  1    14 	    3 notkeyed		bit (1) unaligned,
  1    15 	    3 record		bit (1) unaligned,
  1    16 	    3 sequential		bit (1) unaligned,
  1    17 	    3 direct		bit (1) unaligned,
  1    18 	    3 interactive		bit (1) unaligned,
  1    19 	    3 not_used_1		bit (1) unaligned,
  1    20 	    3 not_used_2		bit (1) unaligned,
  1    21 	    3 stringvalue		bit (1) unaligned,
  1    22 	    3 keyed		bit (1) unaligned,
  1    23 	    3 namelist		bit (1) unaligned,
  1    24 	    3 implementation	bit (1) unaligned,
  1    25 	    3 not_used_4		bit (1) unaligned,	/* old get-input eof flag */
  1    26 	    3 transmit_error	bit (1) unaligned,
  1    27 	    3 buffer_in_use		bit (1) unaligned,
  1    28 	    3 copy		bit (1) unaligned,
  1    29 	    3 detach		bit (1) unaligned,
  1    30 	    3 te_hold		bit (1) unaligned,
  1    31 	    3 not_used_5		bit (1) unaligned,
  1    32 	    3 internal		bit (1) unaligned,
  1    33 	    3 threaded		bit (1) unaligned,
  1    34 	    3 fsb_in_use		bit (1) unaligned,
  1    35 	    3 console		bit (1) unaligned,
  1    36 	    3 emptyline		bit (1) unaligned,
  1    37 	    3 iox_close		bit (1) unaligned,
  1    38 	    3 xxx4		bit (1) unaligned,
  1    39 	    3 xxx5		bit (1) unaligned,
  1    40 	    3 xxx6		bit (1) unaligned,
  1    41 	  2 nono			aligned,
  1    42 	    3 bit_string		bit (1) unaligned,
  1    43 	    3 not_used_3		bit (1) unaligned,
  1    44 	    3 read		bit (1) unaligned,
  1    45 	    3 write		bit (1) unaligned,
  1    46 	    3 rewrite		bit (1) unaligned,
  1    47 	    3 delete		bit (1) unaligned,
  1    48 	    3 locate		bit (1) unaligned,
  1    49 	    3 key			bit (1) unaligned,
  1    50 	    3 keyto		bit (1) unaligned,
  1    51 	    3 keyfrom		bit (1) unaligned,
  1    52 	    3 set			bit (1) unaligned,
  1    53 	    3 into		bit (1) unaligned,
  1    54 	    3 ignore		bit (1) unaligned,
  1    55 	    3 from		bit (1) unaligned,
  1    56 	    3 nofrom		bit (1) unaligned,
  1    57 	    3 nokey		bit (1) unaligned,
  1    58 	    3 nokeyfrom		bit (1) unaligned,
  1    59 	    3 nolock		bit (1) unaligned,
  1    60 	  2 lsep			fixed bin (15),	/* (1,COMMA)(2,BL)(3,TAB)(4,NL)(5,SEMI) */
  1    61 	  2 iocb_p		ptr unaligned,	/* identifies data_set to iox_ */
  1    62 	  2 blc			fixed bin (21),	/* buffer's last character (input) */
  1    63 	  2 bsize			fixed bin (21),	/* size of buffer */
  1    64 	  2 bptr			ptr,		/* address of buffer */
  1    65 	  2 bnc			fixed bin (15),	/* next character in buffer */
  1    66 	  2 kol			fixed bin (15),	/* last column read from or written into */
  1    67 	  2 lsize			fixed bin (15),	/* line size (output) */
  1    68 	  2 lineno		fixed bin (15),	/* current line (output) - starts at 1 on each new page */
  1    69 	  2 psize			fixed bin (35),	/* page size (output) */
  1    70 	  2 pageno		fixed bin (15),	/* current page number, starts at 1 */
  1    71 	  2 limit			fixed bin (15),
  1    72 	  2 lnzc			fixed bin (35),
  1    73 	  2 filename		char (32) aligned,	/* declared file name */
  1    74 	  2 title			char (32) unaligned,/* Multics I/O switch */
  1    75 	  2 fsb_thread		ptr,
  1    76 	  2 buffer		(212) fixed bin (15),
  1    77 	  2 path_name		char (168) unal,	/* title option */
  1    78 	  2 declared_attributes	(2) bit (36) aligned;
  1    79
  1    80 declare	xbuf			char (1000) unaligned based (fsb.bptr);
  1    81
  1    82 /* END INCLUDE FILE ... plio2_fsb.incl.pl1 */
       36
       37 end;
	SOURCE FILES USED IN THIS COMPILATION.

LINE      NUMBER  DATE MODIFIED     NAME			PATHNAME
             0    10/03/83  1005.3  pl1_io_.pl1                       >spec>on>pl128d>pl1_io_.pl1
36           1    08/13/81  2043.5  plio2_fsb.incl.pl1                >ldd>include>plio2_fsb.incl.pl1
	NAMES DECLARED IN THIS COMPILATION.

IDENTIFIER	     OFFSET    LOC STORAGE CLASS   DATA TYPE		ATTRIBUTES AND REFERENCES
								(* indicates a set context)

NAMES DECLARED BY DECLARE STATEMENT.
a_file                                 parameter       file variable            dcl 21 set ref 25 27 29 31
a_file_value                           based           structure                level 1 dcl 23
file_variable                          based           structure                level 1 dcl 17
fsb                                    based           structure                level 1 dcl 1-4
fsb_ptr                   2            based           pointer                  level 2 dcl 23 ref 27 31
iocb_p                    3            based           pointer                  level 2 packed unaligned dcl 1-4 ref 27
lnzc                     17            based           fixed bin(35,0)          level 2 dcl 1-4 ref 31

NAMES DECLARED BY DECLARE STATEMENT AND NEVER REFERENCED.
fsbp                                   automatic       pointer                  dcl 34
xbuf                                   based           char(1000)               unaligned dcl 1-80

NAMES DECLARED BY EXPLICIT CONTEXT.
error_code                      000071 constant        entry                    external dcl 29
get_iocb_ptr                    000036 constant        entry                    external dcl 25
pl1_io_                         000012 constant        entry                    external dcl 10

NAME DECLARED BY CONTEXT OR IMPLICATION.
addr                                                   builtin function         ref 27 31

STORAGE REQUIREMENTS FOR THIS PROGRAM.

	Object	Text	Link	Symbol	Defs	Static
Start          0       0       160         170     117         170
Length       346     117        10         142      40           0

BLOCK NAME	         STACK SIZE     TYPE		WHY NONQUICK/WHO SHARES STACK FRAME
pl1_io_                              70 external procedure  is an external procedure.

THE FOLLOWING EXTERNAL OPERATORS ARE USED BY THIS PROGRAM.
return              signal              ext_entry

NO EXTERNAL ENTRIES ARE CALLED BY THIS PROGRAM.

NO EXTERNAL VARIABLES ARE USED BY THIS PROGRAM.


   LINE    LOC      LINE    LOC      LINE    LOC      LINE    LOC      LINE    LOC      LINE    LOC      LINE    LOC
     10 000011        12 000021        25 000032        27 000045        29 000064        31 000077        37 000116


                                          -----------------------------------------------------------


Historical Background

This edition of the Multics software materials and documentation is provided and donated
to Massachusetts Institute of Technology by Group BULL including BULL HN Information Systems Inc.
as a contribution to computer science knowledge.
This donation is made also to give evidence of the common contributions of Massachusetts Institute of Technology,
Bell Laboratories, General Electric, Honeywell Information Systems Inc., Honeywell BULL Inc., Groupe BULL
and BULL HN Information Systems Inc. to the development of this operating system.
Multics development was initiated by Massachusetts Institute of Technology Project MAC (1963-1970),
renamed the MIT Laboratory for Computer Science and Artificial Intelligence in the mid 1970s, under the leadership
of Professor Fernando Jose Corbato. Users consider that Multics provided the best software architecture
for managing computer hardware properly and for executing programs. Many subsequent operating systems
incorporated Multics principles.
Multics was distributed in 1975 to 2000 by Group Bull in Europe , and in the U.S. by Bull HN Information Systems Inc.,
as successor in interest by change in name only to Honeywell Bull Inc. and Honeywell Information Systems Inc. .

                                          -----------------------------------------------------------

Permission to use, copy, modify, and distribute these programs and their documentation for any purpose and without
fee is hereby granted,provided that the below copyright notice and historical background appear in all copies
and that both the copyright notice and historical background and this permission notice appear in supporting
documentation, and that the names of MIT, HIS, BULL or BULL HN not be used in advertising or publicity pertaining
to distribution of the programs without specific prior written permission.
    Copyright 1972 by Massachusetts Institute of Technology and Honeywell Information Systems Inc.
    Copyright 2006 by BULL HN Information Systems Inc.
    Copyright 2006 by Bull SAS
    All Rights Reserved
