ASSEMBLY LISTING OF SEGMENT >udd>sm>ds>w>ml>pl1_stat_.alm
ASSEMBLED ON:	05/05/00  1824.8 mdt Fri
OPTIONS USED:	list symbols
ASSEMBLED BY:	ALM Version 8.14 March 1989
ASSEMBLER CREATED:	06/09/89  1102.3 mdt Fri

                                     1  " ***********************************************************
                                     2  " *                                                         *
                                     3  " * Copyright, (C) Honeywell Information Systems Inc., 1982 *
                                     4  " *                                                         *
                                     5  " * Copyright (c) 1972 by Massachusetts Institute of        *
                                     6  " * Technology and Honeywell Information Systems, Inc.      *
                                     7  " *                                                         *
                                     8  " ***********************************************************
                                     9
                                    10  "	pl1_stat_, fortran_stat_
                                    11  "	External static storage segment for PL/1 and Fortran Version II
                                    12  "	B. L. Wolman, 10 January 1971
                                    13  "
                                    14  "	Modified: 24 May 1979 by PCK to implement options(packed_decimal)
                                    15  "	Modified: 26 May 1979 by D. Spector for -single_symbol_list, -ssl
                                    16  "	Modified: 26 Dec 1979 by PCK to implement by name assignment
                                    17  "	Modified: 27 October 1980 to increase length of pl1_stat_$options
                                    18
    000000                          19  	name	pl1_stat_
                                    20  	use	textc
                                    21  	use	linkc
                                    22  	join	/link/linkc
                                    23  	join	/text/textc
                                    24
                                    25
                                    26  "	FIXED SCALARS.
                                    27
                                    28  	use	linkc
                                    29
                        000010      30  	segdef	error_width
    000010                          31  error_width:
    000010  aa   000000 000106      32  	dec	70			" width of console line
                                    33
                        000011      34  	segdef	compiler_created_index
    000011                          35  	bss	compiler_created_index,1	" used by create_identifier
                                    36
                        000012      37  	segdef	index
    000012                          38  	bss	index,1
                                    39
                        000013      40  	segdef	st_start
    000013                          41  	bss	st_start,1		" start of statement in source seg
                                    42
                        000014      43  	segdef	st_length
    000014                          44  	bss	st_length,1		" length of statement (in chars)
                                    45
                        000015      46  	segdef	line_count		" number of lines in source program.
    000015                          47  	bss	line_count,1
                                    48
                        000016      49  	segdef	tree_vec_index
    000016                          50  tree_vec_index:
    000016  aa   777777 777777      51  	dec	-1			" index in extra free seg list
                                    52
                                    53  "	BIT-STRING SCALAR.
                                    54
                        000017      55  	segdef	error_memory
    000017                          56  	bss	error_memory,14		" 500 bits to remember if text has been printed.
                                    57
                                    58  "	FIXED SCALARS.
                                    59
                        000035      60  	segdef	char_pos			" character offset into listing segment
    000035                          61  	bss	char_pos,1
                                    62
                        000036      63  	segdef	convert_len		" bit count of converted segment
    000036                          64  	bss	convert_len,1
                                    65
                        000037      66  	segdef	condition_index
    000037                          67  	bss	condition_index,1
                                    68
                        000040      69  	segdef	last_source		" index of last source file in source_list.
    000040                          70  last_source:
    000040  aa   777777 777777      71            dec       -1
                                    72
                        000041      73  	segdef	cur_level
    000041                          74  	bss	cur_level,1
                                    75
                        000042      76  	segdef	greatest_severity
    000042                          77  	bss	greatest_severity,1
                                    78
                        000043      79  	segdef	last_severity
    000043                          80  last_severity:
    000043  aa   000000 000000      81  	dec	0
                                    82
                        000044      83  	segdef	last_statement_id
    000044                          84  last_statement_id:
    000044  aa   000000 000000      85  	dec	0
                                    86
                        000045      87  	segdef	max_list_size		" maximum size in chars of listing seg
    000045                          88  	bss	max_list_size,1
                                    89
                        000046      90  	segdef	phase
    000046                          91  	bss	phase,1
                                    92
                        000047      93  	segdef	profile_length
    000047                          94  	bss	profile_length,1
                                    95
                        000050      96  	segdef	severity_plateau
    000050                          97  	bss	severity_plateau,1
                                    98
                        000051      99  	segdef	source_seg		" subscript of current source segment in source_list.
    000051                         100  	bss	source_seg,1
                                   101
                        000052     102  	segdef	statement_id
    000052                         103  	bss	statement_id,1
                                   104
                        000053     105  	segdef	stop_id
    000053                         106  	bss	stop_id,1
                                   107
                        000054     108  	segdef	version			version of compiler being used
    000054                         109  version:
    000054  aa   000000 000000     110  	dec	0
                                   111
                        000055     112  	segdef	expl_continuation_count
    000055                         113  	bss	expl_continuation_count,1
                                   114
                                   115  "	ONE-WORD BIT STRING SCALARS.
                                   116
                        000056     117  	segdef	level_0_colon
    000056                         118  	bss	level_0_colon,1
                                   119
                        000057     120  	segdef	level_0_equal
    000057                         121  	bss	level_0_equal,1
                                   122
                        000060     123  	segdef	brief_error_mode		" command option
    000060                         124  	bss	brief_error_mode,1
                                   125
                        000061     126  	segdef	debug_semant		" command option
    000061                         127  	bss	debug_semant,1
                                   128
                        000062     129  	segdef	error_flag
    000062                         130  	bss	error_flag,1
                                   131
                        000063     132  	segdef	generate_symtab
    000063                         133  	bss	generate_symtab,1
                                   134
                        000064     135  	segdef	had_data_io
    000064                         136  	bss	had_data_io,1
                                   137
                        000065     138  	segdef	hollerith_mode
    000065                         139  	bss	hollerith_mode,1
                                   140
                        000066     141  	segdef	eis_mode
    000066                         142  eis_mode:
    000066  aa   400000 000000     143  	oct	400000000000
                                   144
                        000067     145  	segdef	apostrophe_mode
    000067                         146  	bss	apostrophe_mode,1
                                   147
                        000070     148  	segdef	card_input
    000070                         149  	bss	card_input,1
                                   150
                        000071     151  	segdef	convert_switch
    000071                         152  	bss	convert_switch,1
                                   153
                        000072     154  	segdef	check_ansi
    000072                         155  	bss	check_ansi,1
                                   156
                        000073     157  	segdef	listing_on		" command option
    000073                         158  	bss	listing_on,1
                                   159
                        000074     160  	segdef	optimize			" command option
    000074                         161  	bss	optimize,1
                                   162
                        000075     163  	segdef	multi_type
    000075                         164  	bss	multi_type,1
                                   165
                        000076     166  	segdef	no_quick_blocks
    000076                         167  	bss	no_quick_blocks,1
                                   168
                        000077     169  	segdef	check_bounds		" fortran command option
    000077                         170  	bss	check_bounds,1
                                   171
                        000100     172  	segdef	use_old_area		" to support the new area operator
    000100                         173  	bss	use_old_area,1
                                   174
                        000101     175  	segdef	compiler_invoked
    000101                         176  compiler_invoked:
    000101  aa   000000 000000     177  	dec	0
                                   178
                        000102     179  	segdef	stmnt_unreachable		" tells if stmnt is unreachable
    000102                         180  stmnt_unreachable:
    000102  aa   000000 000000     181  	dec	0
                                   182
                        000103     183  	segdef	new_fortran_option		" fortran command option
    000103                         184  new_fortran_option:
    000103  aa   000000 000000     185  	dec	0
                                   186
                        000104     187  	segdef	print_cp_dcl		" command option
    000104                         188  	bss	print_cp_dcl,1
                                   189
                        000105     190  	segdef	profile			" profile option
    000105                         191  	bss	profile,1
                                   192
                        000106     193  	segdef	single_symbol_list		" command option
    000106                         194  	bss	single_symbol_list,1
                                   195
                        000107     196  	segdef	table			" command option
    000107                         197  	bss	table,1
                                   198
                        000110     199  	segdef	unaligned_dec		" a variable with the unaligned and decimal attributes exists
    000110                         200  	bss	unaligned_dec,1
                        000111     201  	segdef	options_packed_dec		" options(packed_decimal) specified on the main procedure
    000111                         202  	bss	options_packed_dec,1
                                   203
                                   204  "	POINTER SCALARS.
                                   205
                                   206  	even
                        000112     207  	segdef	constant_list
    000112                         208  	bss	constant_list,2
                                   209
                        000114     210  	segdef	defined_list
    000114                         211  	bss	defined_list,2
                                   212
                        000116     213  	segdef	dummy_block
    000116                         214  	bss	dummy_block,2
                                   215
                        000120     216  	segdef	ok_list
    000120                         217  	bss	ok_list,2
                                   218
                        000122     219  	segdef	error_messages		" ptr to error messages segment
    000122                         220  	bss	error_messages,2
                                   221
                        000124     222  	segdef	temporary_list
    000124                         223  	bss	temporary_list,2
                                   224
                        000126     225  	segdef	cur_block
    000126                         226  	bss	cur_block,2
                                   227
                        000130     228  	segdef	cur_statement
    000130                         229  	bss	cur_statement,2
                                   230
                        000132     231  	segdef	equivalence_base
    000132                         232  	bss	equivalence_base,2
                                   233
                        000134     234  	segdef	err_stm
    000134  aa   077777 000043     235  err_stm:	its	-1,1,n
    000135  aa   000001 000000
                                   236
                        000136     237  	segdef	source_list_ptr		" ptr to source_list
    000136                         238  	bss	source_list_ptr,2
                                   239
                        000140     240  	segdef	token_list_ptr		" ptr to token_list
    000140                         241  	bss	token_list_ptr,2
                                   242
                        000142     243  	segdef	list_ptr			" ptr to listing segment
    000142                         244  	bss	list_ptr,2
                                   245
                        000144     246  	segdef	convert_ptr		" ptr to converted segment
    000144                         247  	bss	convert_ptr,2
                                   248
                        000146     249  	segdef	list3_node
    000146                         250  	bss	list3_node,2
                                   251
                        000150     252  	segdef	list5_node
    000150                         253  	bss	list5_node,2
                                   254
                        000152     255  	segdef	quick_pt
    000152                         256  	bss	quick_pt,2
                                   257
                        000154     258  	segdef	root			" ptr to root block
    000154                         259  	bss	root,2
                                   260
                        000156     261  	segdef	validate_proc
    000156                         262  	bss	validate_proc,2
                                   263
                        000160     264  	segdef	one			" ptr to token "1", dec_integer
    000160                         265  	bss	one,2
                                   266
                        000162     267  	segdef	LHS
    000162                         268  	bss	LHS,2
                                   269
                        000164     270  	segdef	LHS_ref
                                   271
    000164                         272  	bss	LHS_ref,2
                                   273
                        000166     274  	segdef	format_list
    000166                         275  	bss	format_list,2
                                   276
                        000170     277  	segdef	hash_table_ptr		" ptr to create_token's hash table.
    000170                         278  	bss	hash_table_ptr,2
                                   279
                        000172     280  	segdef	by_name_free_list		" ptr to free list used by
    000172                         281  	bss	by_name_free_list,2		" expand_by_name
                                   282
                        000174     283  	segdef	by_name_parts_tree		" ptr to tree of by_name_agg
    000174                         284  	bss	by_name_parts_tree,2	" nodes used by expand_primitive
                                   285
                        000176     286  	segdef	by_name_parts_free_list	" ptr to free list of by_name_agg
    000176                         287  	bss	by_name_parts_free_list,2	" nodes
                                   288
                        000200     289  	segdef	by_name_ref_list		" ptr to list of list nodes
    000200                         290  	bss	by_name_ref_list,2		" (by_name_ref nodes) built by
                                   291  					" expand_by_name
                                   292
                                   293  "	LABEL SCALARS.
                                   294
                        000202     295  	segdef	unwind			" used by parse
    000202                         296  	bss	unwind,4
                                   297
                        000206     298  	segdef	abort_label		" used by command
    000206                         299  	bss	abort_label,4
                                   300
                                   301  "	ENTRY SCALARS
                                   302
                        000212     303  	segdef	util_abort
    000212                         304  	bss	util_abort,4
                                   305
                        000216     306  	segdef	util_error
    000216                         307  	bss	util_error,4
                                   308
                                   309  "	AGGREGATES, arranged in order of increasing size.
                                   310
                                   311
                        000222     312  	segdef	user_id		"dcl pl1_stat_$user_id char(32) ext aligned;
    000222                         313  	bss	user_id,8
                                   314
                        000232     315  	segdef	seg_name		"dcl pl1_stat_$seg_name char(32) varying ext static;
    000232  aa   000000 000000     316  seg_name: dec	0
    000233                         317  	bss	,8
                                   318
                        000243     319  	segdef	options		"dcl pl1_stat_$options char(400) varying ext static;
    000243  aa   000000 000000     320  options:	dec	0
    000244                         321  	bss	,100
                                   322
                                   323  "	POINTER VECTORS
                                   324
                                   325  	even
                        000410     326  	segdef	tree_area_ptr
    000410                         327  tree_area_ptr:
    000410  aa   077777 000043     328  	its	-1,1,n
    000411  aa   000001 000000
                                   329
                        000412     330  	segdef	xeq_tree_area_ptr
    000412                         331  xeq_tree_area_ptr:
    000412  aa   077777 000043     332  	its	-1,1,n
    000413  aa   000001 000000
                                   333
                        000414     334  	segdef	free_ptr		" dcl pl1_stat_$free_ptr(18) ext ptr;
    000414                         335  	bss	free_ptr,2*18
                                   336
                        000460     337  	segdef	locator		"dcl pl1_stat_$locator(128) ptr ext;
    000460                         338  	bss	locator,2*128
                                   339
                        001060     340  	segdef	compiler_name	"dcl pl1_stat_$compiler_name char(8) var
    001060                         341  compiler_name:
    001060  aa   000000 000003     342  	dec	3
    001061  aa  160 154 061 040    343  	aci	"pl1     "
    001062  aa  040 040 040 040
                                   344
                        001063     345  	segdef	modetable		"dcl fortran_stat_$modetable(0:52) ext static
    001063                         346  	bss	modetable,53
                                   347
                        001150     348  	segdef	pathname		"dcl pl1_stat_$pathname char(168) var ext;
    001150                         349  	bss	pathname,43
                                   350
                                   351
                                   352  "	NODE USAGE INFORMATION.
                                   353
                                   354  	use	textc
                        000000     355  	segdef	max_node_type
    000000                         356  max_node_type:
    000000  aa   000000 000024     357  	dec	20
                                   358
                        000001     359  	segdef	node_name		"dcl pl1_stat_$node_name(1) char(12) ext
    000001                         360  node_name:
    000001  aa  142 154 157 143    361  	aci	"block       "
    000002  aa  153 040 040 040
    000003  aa  040 040 040 040
    000004  aa  163 164 141 164    362  	aci	"statement   "
    000005  aa  145 155 145 156
    000006  aa  164 040 040 040
    000007  aa  157 160 145 162    363  	aci	"operator    "
    000010  aa  141 164 157 162
    000011  aa  040 040 040 040
    000012  aa  162 145 146 145    364  	aci	"reference   "
    000013  aa  162 145 156 143
    000014  aa  145 040 040 040
    000015  aa  164 157 153 145    365  	aci	"token       "
    000016  aa  156 040 040 040
    000017  aa  040 040 040 040
    000020  aa  163 171 155 142    366  	aci	"symbol      "
    000021  aa  157 154 040 040
    000022  aa  040 040 040 040
    000023  aa  143 157 156 164    367  	aci	"context     "
    000024  aa  145 170 164 040
    000025  aa  040 040 040 040
    000026  aa  141 162 162 141    368  	aci	"array       "
    000027  aa  171 040 040 040
    000030  aa  040 040 040 040
    000031  aa  142 157 165 156    369  	aci	"bound       "
    000032  aa  144 040 040 040
    000033  aa  040 040 040 040
    000034  aa  146 157 162 155    370  	aci	"format      "
    000035  aa  141 164 040 040
    000036  aa  040 040 040 040
    000037  aa  154 151 163 164    371  	aci	"list        "
    000040  aa  040 040 040 040
    000041  aa  040 040 040 040
    000042  aa  144 145 146 141    372  	aci	"default     "
    000043  aa  165 154 164 040
    000044  aa  040 040 040 040
    000045  aa  163 164 141 164    373  	aci	"state       "
    000046  aa  145 040 040 040
    000047  aa  040 040 040 040
    000050  aa  163 157 165 162    374  	aci	"source      "
    000051  aa  143 145 040 040
    000052  aa  040 040 040 040
    000053  aa  154 141 142 145    375  	aci	"label       "
    000054  aa  154 040 040 040
    000055  aa  040 040 040 040
    000056  aa  170 162 145 146    376  	aci	"xref        "
    000057  aa  040 040 040 040
    000060  aa  040 040 040 040
    000061  aa  163 146 137 160    377  	aci	"sf_par      "
    000062  aa  141 162 040 040
    000063  aa  040 040 040 040
    000064  aa  164 145 155 160    378  	aci	"temporary   "
    000065  aa  157 162 141 162
    000066  aa  171 040 040 040
    000067  aa  154 141 142 145    379  	aci	"label_array_"
    000070  aa  154 137 141 162
    000071  aa  162 141 171 137
    000072  aa  142 171 137 156    380  	aci	"by_name_agg "
    000073  aa  141 155 145 137
    000074  aa  141 147 147 040
                        000075     381  	segdef	node_size		"dcl pl1_stat_$node_size(1) fixed bin ext
    000075                         382  node_size:
    000075  aa   000000 000054     383  	oct	54  " 53+1	block (53+1 means 53 words for the node +1 for eveness)
    000076  aa   000000 000014     384  	oct	14		statement
    000077  aa   000000 000004     385  	oct	4		operator (average of 3, formula = 1 + n)
    000100  aa   000000 000014     386  	oct	14		reference
    000101  aa   000000 000006     387  	oct	6		token (average of 8 chars, formula = 4 + n/2)
    000102  aa   000000 000034     388  	oct	34		symbol
    000103  aa   000000 000004     389  	oct	4   " 3+1		context
    000104  aa   000000 000014     390  	oct	14		array
    000105  aa   000000 000016     391  	oct	16  " 15+1	bound
    000106  aa   000000 000004     392  	oct	4		format value
    000107  aa   000000 000004     393  	oct	4		list (average of 3, formula = 1 + n)
    000110  aa   000000 000014     394  	oct	14  " 13+1	default
    000111  aa   000000 000422     395  	oct	422		machine state
    000112  aa   000000 000020     396  	oct	20		source (average of 36 chars, formula = 7 + n/4)
    000113  aa   000000 000012     397  	oct	12		label
    000114  aa   000000 000002     398  	oct	2		cross reference
    000115  aa   000000 000004     399  	oct	4		sf_par
    000116  aa   000000 000010     400  	oct	10		temporary
    000117  aa   000000 000004     401  	oct	4		label_array_element
    000120  aa   000000 000007     402  	oct	7		by_name_agg
                                   403  	use	linkc
                        001223     404  	segdef	node_uses		"dcl pl1_stat_$node_uses(1) fixed bin ext
    001223                         405  	bss	node_uses,20
                                   406
                                   407  	end

NO LITERALS

NAME DEFINITIONS FOR ENTRY POINTS AND SEGDEFS

    000122  5a   000003 000000
    000123  5a   001224 600000
    000124  aa   000000 000000
    000125  55   000011 000002
    000126  5a   000002 400003
    000127  55   000006 000011
    000130  aa  011 160 154 061
    000131  aa  137 163 164 141
    000132  aa  164 137 000 000
    000133  55   000017 000003
    000134  2a   001223 400001
    000135  55   000014 000003
    000136  aa  011 156 157 144         node_uses
    000137  aa  145 137 165 163
    000140  aa  145 163 000 000
    000141  55   000025 000011
    000142  0a   000075 400000
    000143  55   000022 000003
    000144  aa  011 156 157 144         node_size
    000145  aa  145 137 163 151
    000146  aa  172 145 000 000
    000147  55   000033 000017
    000150  0a   000001 400000
    000151  55   000030 000003
    000152  aa  011 156 157 144         node_name
    000153  aa  145 137 156 141
    000154  aa  155 145 000 000
    000155  55   000042 000025
    000156  0a   000000 400000
    000157  55   000036 000003
    000160  aa  015 155 141 170         max_node_type
    000161  aa  137 156 157 144
    000162  aa  145 137 164 171
    000163  aa  160 145 000 000
    000164  55   000050 000033
    000165  2a   001150 400001
    000166  55   000045 000003
    000167  aa  010 160 141 164         pathname
    000170  aa  150 156 141 155
    000171  aa  145 000 000 000
    000172  55   000056 000042
    000173  2a   001063 400001
    000174  55   000053 000003
    000175  aa  011 155 157 144         modetable
    000176  aa  145 164 141 142
    000177  aa  154 145 000 000
    000200  55   000065 000050
    000201  2a   001060 400001
    000202  55   000061 000003
    000203  aa  015 143 157 155         compiler_name
    000204  aa  160 151 154 145
    000205  aa  162 137 156 141
    000206  aa  155 145 000 000
    000207  55   000072 000056
    000210  2a   000460 400001
    000211  55   000070 000003
    000212  aa  007 154 157 143         locator
    000213  aa  141 164 157 162
    000214  55   000100 000065
    000215  2a   000414 400001
    000216  55   000075 000003
    000217  aa  010 146 162 145         free_ptr
    000220  aa  145 137 160 164
    000221  aa  162 000 000 000
    000222  55   000110 000072
    000223  2a   000412 400001
    000224  55   000103 000003
    000225  aa  021 170 145 161         xeq_tree_area_ptr
    000226  aa  137 164 162 145
    000227  aa  145 137 141 162
    000230  aa  145 141 137 160
    000231  aa  164 162 000 000
    000232  55   000117 000100
    000233  2a   000410 400001
    000234  55   000113 000003
    000235  aa  015 164 162 145         tree_area_ptr
    000236  aa  145 137 141 162
    000237  aa  145 141 137 160
    000240  aa  164 162 000 000
    000241  55   000124 000110
    000242  2a   000243 400001
    000243  55   000122 000003
    000244  aa  007 157 160 164         options
    000245  aa  151 157 156 163
    000246  55   000132 000117
    000247  2a   000232 400001
    000250  55   000127 000003
    000251  aa  010 163 145 147         seg_name
    000252  aa  137 156 141 155
    000253  aa  145 000 000 000
    000254  55   000137 000124
    000255  2a   000222 400001
    000256  55   000135 000003
    000257  aa  007 165 163 145         user_id
    000260  aa  162 137 151 144
    000261  55   000145 000132
    000262  2a   000216 400001
    000263  55   000142 000003
    000264  aa  012 165 164 151         util_error
    000265  aa  154 137 145 162
    000266  aa  162 157 162 000
    000267  55   000153 000137
    000270  2a   000212 400001
    000271  55   000150 000003
    000272  aa  012 165 164 151         util_abort
    000273  aa  154 137 141 142
    000274  aa  157 162 164 000
    000275  55   000161 000145
    000276  2a   000206 400001
    000277  55   000156 000003
    000300  aa  013 141 142 157         abort_label
    000301  aa  162 164 137 154
    000302  aa  141 142 145 154
    000303  55   000166 000153
    000304  2a   000202 400001
    000305  55   000164 000003
    000306  aa  006 165 156 167         unwind
    000307  aa  151 156 144 000
    000310  55   000176 000161
    000311  2a   000200 400001
    000312  55   000171 000003
    000313  aa  020 142 171 137         by_name_ref_list
    000314  aa  156 141 155 145
    000315  aa  137 162 145 146
    000316  aa  137 154 151 163
    000317  aa  164 000 000 000
    000320  55   000207 000166
    000321  2a   000176 400001
    000322  55   000201 000003
    000323  aa  027 142 171 137         by_name_parts_free_list
    000324  aa  156 141 155 145
    000325  aa  137 160 141 162
    000326  aa  164 163 137 146
    000327  aa  162 145 145 137
    000330  aa  154 151 163 164
    000331  55   000217 000176
    000332  2a   000174 400001
    000333  55   000212 000003
    000334  aa  022 142 171 137         by_name_parts_tree
    000335  aa  156 141 155 145
    000336  aa  137 160 141 162
    000337  aa  164 163 137 164
    000340  aa  162 145 145 000
    000341  55   000227 000207
    000342  2a   000172 400001
    000343  55   000222 000003
    000344  aa  021 142 171 137         by_name_free_list
    000345  aa  156 141 155 145
    000346  aa  137 146 162 145
    000347  aa  145 137 154 151
    000350  aa  163 164 000 000
    000351  55   000236 000217
    000352  2a   000170 400001
    000353  55   000232 000003
    000354  aa  016 150 141 163         hash_table_ptr
    000355  aa  150 137 164 141
    000356  aa  142 154 145 137
    000357  aa  160 164 162 000
    000360  55   000244 000227
    000361  2a   000166 400001
    000362  55   000241 000003
    000363  aa  013 146 157 162         format_list
    000364  aa  155 141 164 137
    000365  aa  154 151 163 164
    000366  55   000251 000236
    000367  2a   000164 400001
    000370  55   000247 000003
    000371  aa  007 114 110 123         LHS_ref
    000372  aa  137 162 145 146
    000373  55   000255 000244
    000374  2a   000162 400001
    000375  55   000254 000003
    000376  aa  003 114 110 123         LHS
    000377  55   000261 000251
    000400  2a   000160 400001
    000401  55   000260 000003
    000402  aa  003 157 156 145         one
    000403  55   000270 000255
    000404  2a   000156 400001
    000405  55   000264 000003
    000406  aa  015 166 141 154         validate_proc
    000407  aa  151 144 141 164
    000410  aa  145 137 160 162
    000411  aa  157 143 000 000
    000412  55   000275 000261
    000413  2a   000154 400001
    000414  55   000273 000003
    000415  aa  004 162 157 157         root
    000416  aa  164 000 000 000
    000417  55   000303 000270
    000420  2a   000152 400001
    000421  55   000300 000003
    000422  aa  010 161 165 151         quick_pt
    000423  aa  143 153 137 160
    000424  aa  164 000 000 000
    000425  55   000311 000275
    000426  2a   000150 400001
    000427  55   000306 000003
    000430  aa  012 154 151 163         list5_node
    000431  aa  164 065 137 156
    000432  aa  157 144 145 000
    000433  55   000317 000303
    000434  2a   000146 400001
    000435  55   000314 000003
    000436  aa  012 154 151 163         list3_node
    000437  aa  164 063 137 156
    000440  aa  157 144 145 000
    000441  55   000325 000311
    000442  2a   000144 400001
    000443  55   000322 000003
    000444  aa  013 143 157 156         convert_ptr
    000445  aa  166 145 162 164
    000446  aa  137 160 164 162
    000447  55   000333 000317
    000450  2a   000142 400001
    000451  55   000330 000003
    000452  aa  010 154 151 163         list_ptr
    000453  aa  164 137 160 164
    000454  aa  162 000 000 000
    000455  55   000342 000325
    000456  2a   000140 400001
    000457  55   000336 000003
    000460  aa  016 164 157 153         token_list_ptr
    000461  aa  145 156 137 154
    000462  aa  151 163 164 137
    000463  aa  160 164 162 000
    000464  55   000351 000333
    000465  2a   000136 400001
    000466  55   000345 000003
    000467  aa  017 163 157 165         source_list_ptr
    000470  aa  162 143 145 137
    000471  aa  154 151 163 164
    000472  aa  137 160 164 162
    000473  55   000356 000342
    000474  2a   000134 400001
    000475  55   000354 000003
    000476  aa  007 145 162 162         err_stm
    000477  aa  137 163 164 155
    000500  55   000366 000351
    000501  2a   000132 400001
    000502  55   000361 000003
    000503  aa  020 145 161 165         equivalence_base
    000504  aa  151 166 141 154
    000505  aa  145 156 143 145
    000506  aa  137 142 141 163
    000507  aa  145 000 000 000
    000510  55   000375 000356
    000511  2a   000130 400001
    000512  55   000371 000003
    000513  aa  015 143 165 162         cur_statement
    000514  aa  137 163 164 141
    000515  aa  164 145 155 145
    000516  aa  156 164 000 000
    000517  55   000403 000366
    000520  2a   000126 400001
    000521  55   000400 000003
    000522  aa  011 143 165 162         cur_block
    000523  aa  137 142 154 157
    000524  aa  143 153 000 000
    000525  55   000412 000375
    000526  2a   000124 400001
    000527  55   000406 000003
    000530  aa  016 164 145 155         temporary_list
    000531  aa  160 157 162 141
    000532  aa  162 171 137 154
    000533  aa  151 163 164 000
    000534  55   000421 000403
    000535  2a   000122 400001
    000536  55   000415 000003
    000537  aa  016 145 162 162         error_messages
    000540  aa  157 162 137 155
    000541  aa  145 163 163 141
    000542  aa  147 145 163 000
    000543  55   000426 000412
    000544  2a   000120 400001
    000545  55   000424 000003
    000546  aa  007 157 153 137         ok_list
    000547  aa  154 151 163 164
    000550  55   000434 000421
    000551  2a   000116 400001
    000552  55   000431 000003
    000553  aa  013 144 165 155         dummy_block
    000554  aa  155 171 137 142
    000555  aa  154 157 143 153
    000556  55   000443 000426
    000557  2a   000114 400001
    000560  55   000437 000003
    000561  aa  014 144 145 146         defined_list
    000562  aa  151 156 145 144
    000563  aa  137 154 151 163
    000564  aa  164 000 000 000
    000565  55   000452 000434
    000566  2a   000112 400001
    000567  55   000446 000003
    000570  aa  015 143 157 156         constant_list
    000571  aa  163 164 141 156
    000572  aa  164 137 154 151
    000573  aa  163 164 000 000
    000574  55   000462 000443
    000575  2a   000111 400001
    000576  55   000455 000003
    000577  aa  022 157 160 164         options_packed_dec
    000600  aa  151 157 156 163
    000601  aa  137 160 141 143
    000602  aa  153 145 144 137
    000603  aa  144 145 143 000
    000604  55   000471 000452
    000605  2a   000110 400001
    000606  55   000465 000003
    000607  aa  015 165 156 141         unaligned_dec
    000610  aa  154 151 147 156
    000611  aa  145 144 137 144
    000612  aa  145 143 000 000
    000613  55   000476 000462
    000614  2a   000107 400001
    000615  55   000474 000003
    000616  aa  005 164 141 142         table
    000617  aa  154 145 000 000
    000620  55   000506 000471
    000621  2a   000106 400001
    000622  55   000501 000003
    000623  aa  022 163 151 156         single_symbol_list
    000624  aa  147 154 145 137
    000625  aa  163 171 155 142
    000626  aa  157 154 137 154
    000627  aa  151 163 164 000
    000630  55   000513 000476
    000631  2a   000105 400001
    000632  55   000511 000003
    000633  aa  007 160 162 157         profile
    000634  aa  146 151 154 145
    000635  55   000522 000506
    000636  2a   000104 400001
    000637  55   000516 000003
    000640  aa  014 160 162 151         print_cp_dcl
    000641  aa  156 164 137 143
    000642  aa  160 137 144 143
    000643  aa  154 000 000 000
    000644  55   000532 000513
    000645  2a   000103 400001
    000646  55   000525 000003
    000647  aa  022 156 145 167         new_fortran_option
    000650  aa  137 146 157 162
    000651  aa  164 162 141 156
    000652  aa  137 157 160 164
    000653  aa  151 157 156 000
    000654  55   000542 000522
    000655  2a   000102 400001
    000656  55   000535 000003
    000657  aa  021 163 164 155         stmnt_unreachable
    000660  aa  156 164 137 165
    000661  aa  156 162 145 141
    000662  aa  143 150 141 142
    000663  aa  154 145 000 000
    000664  55   000552 000532
    000665  2a   000101 400001
    000666  55   000545 000003
    000667  aa  020 143 157 155         compiler_invoked
    000670  aa  160 151 154 145
    000671  aa  162 137 151 156
    000672  aa  166 157 153 145
    000673  aa  144 000 000 000
    000674  55   000561 000542
    000675  2a   000100 400001
    000676  55   000555 000003
    000677  aa  014 165 163 145         use_old_area
    000700  aa  137 157 154 144
    000701  aa  137 141 162 145
    000702  aa  141 000 000 000
    000703  55   000570 000552
    000704  2a   000077 400001
    000705  55   000564 000003
    000706  aa  014 143 150 145         check_bounds
    000707  aa  143 153 137 142
    000710  aa  157 165 156 144
    000711  aa  163 000 000 000
    000712  55   000577 000561
    000713  2a   000076 400001
    000714  55   000573 000003
    000715  aa  017 156 157 137         no_quick_blocks
    000716  aa  161 165 151 143
    000717  aa  153 137 142 154
    000720  aa  157 143 153 163
    000721  55   000605 000570
    000722  2a   000075 400001
    000723  55   000602 000003
    000724  aa  012 155 165 154         multi_type
    000725  aa  164 151 137 164
    000726  aa  171 160 145 000
    000727  55   000613 000577
    000730  2a   000074 400001
    000731  55   000610 000003
    000732  aa  010 157 160 164         optimize
    000733  aa  151 155 151 172
    000734  aa  145 000 000 000
    000735  55   000621 000605
    000736  2a   000073 400001
    000737  55   000616 000003
    000740  aa  012 154 151 163         listing_on
    000741  aa  164 151 156 147
    000742  aa  137 157 156 000
    000743  55   000627 000613
    000744  2a   000072 400001
    000745  55   000624 000003
    000746  aa  012 143 150 145         check_ansi
    000747  aa  143 153 137 141
    000750  aa  156 163 151 000
    000751  55   000636 000621
    000752  2a   000071 400001
    000753  55   000632 000003
    000754  aa  016 143 157 156         convert_switch
    000755  aa  166 145 162 164
    000756  aa  137 163 167 151
    000757  aa  164 143 150 000
    000760  55   000644 000627
    000761  2a   000070 400001
    000762  55   000641 000003
    000763  aa  012 143 141 162         card_input
    000764  aa  144 137 151 156
    000765  aa  160 165 164 000
    000766  55   000653 000636
    000767  2a   000067 400001
    000770  55   000647 000003
    000771  aa  017 141 160 157         apostrophe_mode
    000772  aa  163 164 162 157
    000773  aa  160 150 145 137
    000774  aa  155 157 144 145
    000775  55   000661 000644
    000776  2a   000066 400001
    000777  55   000656 000003
    001000  aa  010 145 151 163         eis_mode
    001001  aa  137 155 157 144
    001002  aa  145 000 000 000
    001003  55   000670 000653
    001004  2a   000065 400001
    001005  55   000664 000003
    001006  aa  016 150 157 154         hollerith_mode
    001007  aa  154 145 162 151
    001010  aa  164 150 137 155
    001011  aa  157 144 145 000
    001012  55   000676 000661
    001013  2a   000064 400001
    001014  55   000673 000003
    001015  aa  013 150 141 144         had_data_io
    001016  aa  137 144 141 164
    001017  aa  141 137 151 157
    001020  55   000705 000670
    001021  2a   000063 400001
    001022  55   000701 000003
    001023  aa  017 147 145 156         generate_symtab
    001024  aa  145 162 141 164
    001025  aa  145 137 163 171
    001026  aa  155 164 141 142
    001027  55   000713 000676
    001030  2a   000062 400001
    001031  55   000710 000003
    001032  aa  012 145 162 162         error_flag
    001033  aa  157 162 137 146
    001034  aa  154 141 147 000
    001035  55   000722 000705
    001036  2a   000061 400001
    001037  55   000716 000003
    001040  aa  014 144 145 142         debug_semant
    001041  aa  165 147 137 163
    001042  aa  145 155 141 156
    001043  aa  164 000 000 000
    001044  55   000732 000713
    001045  2a   000060 400001
    001046  55   000725 000003
    001047  aa  020 142 162 151         brief_error_mode
    001050  aa  145 146 137 145
    001051  aa  162 162 157 162
    001052  aa  137 155 157 144
    001053  aa  145 000 000 000
    001054  55   000741 000722
    001055  2a   000057 400001
    001056  55   000735 000003
    001057  aa  015 154 145 166         level_0_equal
    001060  aa  145 154 137 060
    001061  aa  137 145 161 165
    001062  aa  141 154 000 000
    001063  55   000750 000732
    001064  2a   000056 400001
    001065  55   000744 000003
    001066  aa  015 154 145 166         level_0_colon
    001067  aa  145 154 137 060
    001070  aa  137 143 157 154
    001071  aa  157 156 000 000
    001072  55   000761 000741
    001073  2a   000055 400001
    001074  55   000753 000003
    001075  aa  027 145 170 160         expl_continuation_count
    001076  aa  154 137 143 157
    001077  aa  156 164 151 156
    001100  aa  165 141 164 151
    001101  aa  157 156 137 143
    001102  aa  157 165 156 164
    001103  55   000766 000750
    001104  2a   000054 400001
    001105  55   000764 000003
    001106  aa  007 166 145 162         version
    001107  aa  163 151 157 156
    001110  55   000773 000761
    001111  2a   000053 400001
    001112  55   000771 000003
    001113  aa  007 163 164 157         stop_id
    001114  aa  160 137 151 144
    001115  55   001002 000766
    001116  2a   000052 400001
    001117  55   000776 000003
    001120  aa  014 163 164 141         statement_id
    001121  aa  164 145 155 145
    001122  aa  156 164 137 151
    001123  aa  144 000 000 000
    001124  55   001010 000773
    001125  2a   000051 400001
    001126  55   001005 000003
    001127  aa  012 163 157 165         source_seg
    001130  aa  162 143 145 137
    001131  aa  163 145 147 000
    001132  55   001020 001002
    001133  2a   000050 400001
    001134  55   001013 000003
    001135  aa  020 163 145 166         severity_plateau
    001136  aa  145 162 151 164
    001137  aa  171 137 160 154
    001140  aa  141 164 145 141
    001141  aa  165 000 000 000
    001142  55   001027 001010
    001143  2a   000047 400001
    001144  55   001023 000003
    001145  aa  016 160 162 157         profile_length
    001146  aa  146 151 154 145
    001147  aa  137 154 145 156
    001150  aa  147 164 150 000
    001151  55   001034 001020
    001152  2a   000046 400001
    001153  55   001032 000003
    001154  aa  005 160 150 141         phase
    001155  aa  163 145 000 000
    001156  55   001043 001027
    001157  2a   000045 400001
    001160  55   001037 000003
    001161  aa  015 155 141 170         max_list_size
    001162  aa  137 154 151 163
    001163  aa  164 137 163 151
    001164  aa  172 145 000 000
    001165  55   001053 001034
    001166  2a   000044 400001
    001167  55   001046 000003
    001170  aa  021 154 141 163         last_statement_id
    001171  aa  164 137 163 164
    001172  aa  141 164 145 155
    001173  aa  145 156 164 137
    001174  aa  151 144 000 000
    001175  55   001062 001043
    001176  2a   000043 400001
    001177  55   001056 000003
    001200  aa  015 154 141 163         last_severity
    001201  aa  164 137 163 145
    001202  aa  166 145 162 151
    001203  aa  164 171 000 000
    001204  55   001072 001053
    001205  2a   000042 400001
    001206  55   001065 000003
    001207  aa  021 147 162 145         greatest_severity
    001210  aa  141 164 145 163
    001211  aa  164 137 163 145
    001212  aa  166 145 162 151
    001213  aa  164 171 000 000
    001214  55   001100 001062
    001215  2a   000041 400001
    001216  55   001075 000003
    001217  aa  011 143 165 162         cur_level
    001220  aa  137 154 145 166
    001221  aa  145 154 000 000
    001222  55   001106 001072
    001223  2a   000040 400001
    001224  55   001103 000003
    001225  aa  013 154 141 163         last_source
    001226  aa  164 137 163 157
    001227  aa  165 162 143 145
    001230  55   001115 001100
    001231  2a   000037 400001
    001232  55   001111 000003
    001233  aa  017 143 157 156         condition_index
    001234  aa  144 151 164 151
    001235  aa  157 156 137 151
    001236  aa  156 144 145 170
    001237  55   001123 001106
    001240  2a   000036 400001
    001241  55   001120 000003
    001242  aa  013 143 157 156         convert_len
    001243  aa  166 145 162 164
    001244  aa  137 154 145 156
    001245  55   001131 001115
    001246  2a   000035 400001
    001247  55   001126 000003
    001250  aa  010 143 150 141         char_pos
    001251  aa  162 137 160 157
    001252  aa  163 000 000 000
    001253  55   001140 001123
    001254  2a   000017 400001
    001255  55   001134 000003
    001256  aa  014 145 162 162         error_memory
    001257  aa  157 162 137 155
    001260  aa  145 155 157 162
    001261  aa  171 000 000 000
    001262  55   001147 001131
    001263  2a   000016 400001
    001264  55   001143 000003
    001265  aa  016 164 162 145         tree_vec_index
    001266  aa  145 137 166 145
    001267  aa  143 137 151 156
    001270  aa  144 145 170 000
    001271  55   001155 001140
    001272  2a   000015 400001
    001273  55   001152 000003
    001274  aa  012 154 151 156         line_count
    001275  aa  145 137 143 157
    001276  aa  165 156 164 000
    001277  55   001163 001147
    001300  2a   000014 400001
    001301  55   001160 000003
    001302  aa  011 163 164 137         st_length
    001303  aa  154 145 156 147
    001304  aa  164 150 000 000
    001305  55   001171 001155
    001306  2a   000013 400001
    001307  55   001166 000003
    001310  aa  010 163 164 137         st_start
    001311  aa  163 164 141 162
    001312  aa  164 000 000 000
    001313  55   001176 001163
    001314  2a   000012 400001
    001315  55   001174 000003
    001316  aa  005 151 156 144         index
    001317  aa  145 170 000 000
    001320  55   001207 001171
    001321  2a   000011 400001
    001322  55   001201 000003
    001323  aa  026 143 157 155         compiler_created_index
    001324  aa  160 151 154 145
    001325  aa  162 137 143 162
    001326  aa  145 141 164 145
    001327  aa  144 137 151 156
    001330  aa  144 145 170 000
    001331  55   001215 001176
    001332  2a   000010 400001
    001333  55   001212 000003
    001334  aa  013 145 162 162         error_width
    001335  aa  157 162 137 167
    001336  aa  151 144 164 150
    001337  55   000002 001207
    001340  6a   000000 400002
    001341  55   001220 000003
    001342  aa  014 163 171 155         symbol_table
    001343  aa  142 157 154 137
    001344  aa  164 141 142 154
    001345  aa  145 000 000 000

DEFINITIONS HASH TABLE

    001346  aa   000000 000235
    001347  5a   001034 000000
    001350  aa   000000 000000
    001351  5a   000275 000000
    001352  5a   001062 000000
    001353  5a   000251 000000
    001354  5a   000661 000000
    001355  aa   000000 000000
    001356  aa   000000 000000
    001357  aa   000000 000000
    001360  aa   000000 000000
    001361  5a   000773 000000
    001362  aa   000000 000000
    001363  5a   000532 000000
    001364  aa   000000 000000
    001365  5a   001155 000000
    001366  aa   000000 000000
    001367  5a   001163 000000
    001370  5a   000366 000000
    001371  aa   000000 000000
    001372  aa   000000 000000
    001373  5a   000161 000000
    001374  aa   000000 000000
    001375  aa   000000 000000
    001376  aa   000000 000000
    001377  5a   000042 000000
    001400  5a   000375 000000
    001401  5a   000750 000000
    001402  5a   000570 000000
    001403  5a   000577 000000
    001404  5a   001072 000000
    001405  aa   000000 000000
    001406  5a   000176 000000
    001407  5a   000476 000000
    001410  5a   001043 000000
    001411  5a   000766 000000
    001412  aa   000000 000000
    001413  5a   001010 000000
    001414  5a   000124 000000
    001415  5a   000270 000000
    001416  5a   000452 000000
    001417  5a   000552 000000
    001420  5a   000110 000000
    001421  5a   000207 000000
    001422  5a   000217 000000
    001423  5a   000011 000000
    001424  5a   000017 000000
    001425  5a   000025 000000
    001426  5a   000166 000000
    001427  5a   000132 000000
    001430  5a   000261 000000
    001431  5a   000732 000000
    001432  5a   000741 000000
    001433  5a   001053 000000
    001434  5a   001100 000000
    001435  5a   000644 000000
    001436  5a   001140 000000
    001437  5a   000670 000000
    001440  5a   000605 000000
    001441  5a   001147 000000
    001442  5a   000117 000000
    001443  5a   000303 000000
    001444  5a   000311 000000
    001445  5a   000613 000000
    001446  5a   001176 000000
    001447  5a   000325 000000
    001450  5a   000227 000000
    001451  aa   000000 000000
    001452  5a   000072 000000
    001453  aa   000000 000000
    001454  5a   000761 000000
    001455  5a   001215 000000
    001456  aa   000000 000000
    001457  5a   000356 000000
    001460  5a   000653 000000
    001461  5a   000513 000000
    001462  5a   000542 000000
    001463  5a   001020 000000
    001464  5a   001106 000000
    001465  aa   000000 000000
    001466  5a   000333 000000
    001467  5a   000056 000000
    001470  5a   000443 000000
    001471  5a   000627 000000
    001472  5a   000722 000000
    001473  5a   001171 000000
    001474  5a   000317 000000
    001475  5a   000713 000000
    001476  5a   000137 000000
    001477  5a   000145 000000
    001500  5a   001115 000000
    001501  5a   000050 000000
    001502  5a   000434 000000
    001503  5a   000506 000000
    001504  aa   000000 000000
    001505  aa   000000 000000
    001506  aa   000000 000000
    001507  aa   000000 000000
    001510  aa   000000 000000
    001511  aa   000000 000000
    001512  aa   000000 000000
    001513  aa   000000 000000
    001514  5a   000561 000000
    001515  aa   000000 000000
    001516  aa   000000 000000
    001517  aa   000000 000000
    001520  5a   000621 000000
    001521  5a   000522 000000
    001522  5a   001123 000000
    001523  5a   000236 000000
    001524  aa   000000 000000
    001525  aa   000000 000000
    001526  5a   000676 000000
    001527  aa   000000 000000
    001530  5a   000100 000000
    001531  5a   000412 000000
    001532  aa   000000 000000
    001533  5a   000153 000000
    001534  aa   000000 000000
    001535  5a   001131 000000
    001536  aa   000000 000000
    001537  5a   001207 000000
    001540  aa   000000 000000
    001541  5a   000705 000000
    001542  aa   000000 000000
    001543  aa   000000 000000
    001544  aa   000000 000000
    001545  aa   000000 000000
    001546  5a   000255 000000
    001547  5a   000351 000000
    001550  5a   000426 000000
    001551  aa   000000 000000
    001552  aa   000000 000000
    001553  aa   000000 000000
    001554  5a   000342 000000
    001555  aa   000000 000000
    001556  aa   000000 000000
    001557  aa   000000 000000
    001560  aa   000000 000000
    001561  aa   000000 000000
    001562  5a   000065 000000
    001563  aa   000000 000000
    001564  5a   000462 000000
    001565  5a   000403 000000
    001566  5a   000471 000000
    001567  5a   001002 000000
    001570  5a   000636 000000
    001571  5a   001027 000000
    001572  5a   000421 000000
    001573  aa   000000 000000
    001574  aa   000000 000000
    001575  aa   000000 000000
    001576  aa   000000 000000
    001577  aa   000000 000000
    001600  5a   000244 000000
    001601  aa   000000 000000
    001602  aa   000000 000000
    001603  5a   000033 000000

NO EXTERNAL NAMES

NO TRAP POINTER WORDS

TYPE PAIR BLOCKS

    001604  aa   000001 000000
    001605  aa   000000 000000

INTERNAL EXPRESSION WORDS

LINKAGE INFORMATION

    000000  aa   000000 000000
    000001  0a   000122 000000
    000002  aa   000000 000000
    000003  aa   000000 000000
    000004  aa   000000 000000
    000005  aa   000000 000000
    000006  22   001250 001250
    000007  a2   000000 001240
SYMBOL INFORMATION

SYMBOL TABLE HEADER

    000000  aa   000000 000001
    000001  aa   163171 155142
    000002  aa   164162 145145
    000003  aa   000000 000010
    000004  aa   000000 117244
    000005  aa   361023 525721
    000006  aa   000000 131064
    000007  aa   500047 643317
    000010  aa   141154 155040
    000011  aa   040040 040040
    000012  aa   000024 000040
    000013  aa   000034 000040
    000014  aa   000044 000100
    000015  aa   000002 000002
    000016  aa   000064 000000
    000017  aa   000000 000353
    000020  aa   000000 000102
    000021  aa   000162 000111
    000022  aa   000345 000102
    000023  aa   000064 000000
    000024  aa   101114 115040
    000025  aa   126145 162163
    000026  aa   151157 156040
    000027  aa   070056 061064
    000030  aa   040115 141162
    000031  aa   143150 040061
    000032  aa   071070 071040
    000033  aa   040040 040040
    000034  aa   123143 150162
    000035  aa   157164 150056
    000036  aa   123171 163115
    000037  aa   141151 156164
    000040  aa   056155 040040
    000041  aa   040040 040040
    000042  aa   040040 040040
    000043  aa   040040 040040
    000044  aa   154151 163164
    000045  aa   040163 171155
    000046  aa   142157 154163
    000047  aa   040040 040040
    000050  aa   040040 040040
    000051  aa   040040 040040
    000052  aa   040040 040040
    000053  aa   040040 040040
    000054  aa   040040 040040
    000055  aa   040040 040040
    000056  aa   040040 040040
    000057  aa   040040 040040
    000060  aa   040040 040040
    000061  aa   040040 040040
    000062  aa   040040 040040
    000063  aa   040040 040040
    000064  aa   000000 000001
    000065  aa   000000 000001
    000066  aa   000072 000035
    000067  aa   310561 236332
    000070  aa   000000 131064
    000071  aa   500047 600000
    000072  aa   076165 144144          >udd>sm>ds>w>ml>pl1_stat_.alm
    000073  aa   076163 155076
    000074  aa   144163 076167
    000075  aa   076155 154076
    000076  aa   160154 061137
    000077  aa   163164 141164
    000100  aa   137056 141154
    000101  aa   155040 040040
               MULTICS ASSEMBLY CROSS REFERENCE LISTING

   Value        Symbol                   Source file   Line number

         206    abort_label              pl1_stat_:    298,  299.
          67    apostrophe_mode          pl1_stat_:    145,  146.
          60    brief_error_mode         pl1_stat_:    123,  124.
         172    by_name_free_list        pl1_stat_:    280,  281.
         176    by_name_parts_free_list  pl1_stat_:    286,  287.
         174    by_name_parts_tree       pl1_stat_:    283,  284.
         200    by_name_ref_list         pl1_stat_:    289,  290.
          70    card_input               pl1_stat_:    148,  149.
          35    char_pos                 pl1_stat_:     60,   61.
          72    check_ansi               pl1_stat_:    154,  155.
          77    check_bounds             pl1_stat_:    169,  170.
          11    compiler_created_index   pl1_stat_:     34,   35.
         101    compiler_invoked         pl1_stat_:    175,  176.
        1060    compiler_name            pl1_stat_:    340,  341.
          37    condition_index          pl1_stat_:     66,   67.
         112    constant_list            pl1_stat_:    207,  208.
          36    convert_len              pl1_stat_:     63,   64.
         144    convert_ptr              pl1_stat_:    246,  247.
          71    convert_switch           pl1_stat_:    151,  152.
         126    cur_block                pl1_stat_:    225,  226.
          41    cur_level                pl1_stat_:     73,   74.
         130    cur_statement            pl1_stat_:    228,  229.
          61    debug_semant             pl1_stat_:    126,  127.
         114    defined_list             pl1_stat_:    210,  211.
         116    dummy_block              pl1_stat_:    213,  214.
          66    eis_mode                 pl1_stat_:    141,  142.
         132    equivalence_base         pl1_stat_:    231,  232.
          62    error_flag               pl1_stat_:    129,  130.
          17    error_memory             pl1_stat_:     55,   56.
         122    error_messages           pl1_stat_:    219,  220.
          10    error_width              pl1_stat_:     30,   31.
         134    err_stm                  pl1_stat_:    234,  235.
          55    expl_continuation_count  pl1_stat_:    112,  113.
         166    format_list              pl1_stat_:    274,  275.
         414    free_ptr                 pl1_stat_:    334,  335.
          63    generate_symtab          pl1_stat_:    132,  133.
          42    greatest_severity        pl1_stat_:     76,   77.
          64    had_data_io              pl1_stat_:    135,  136.
         170    hash_table_ptr           pl1_stat_:    277,  278.
          65    hollerith_mode           pl1_stat_:    138,  139.
          12    index                    pl1_stat_:     37,   38.
          43    last_severity            pl1_stat_:     79,   80.
          40    last_source              pl1_stat_:     69,   70.
          44    last_statement_id        pl1_stat_:     83,   84.
          56    level_0_colon            pl1_stat_:    117,  118.
          57    level_0_equal            pl1_stat_:    120,  121.
         162    LHS                      pl1_stat_:    267,  268.
         164    LHS_ref                  pl1_stat_:    270,  272.
          15    line_count               pl1_stat_:     46,   47.
          10    linkc                    pl1_stat_:     21,   22,   28,  403.
         146    list3_node               pl1_stat_:    249,  250.
         150    list5_node               pl1_stat_:    252,  253.
          73    listing_on               pl1_stat_:    157,  158.
         142    list_ptr                 pl1_stat_:    243,  244.
         460    locator                  pl1_stat_:    337,  338.
          45    max_list_size            pl1_stat_:     87,   88.
           0    max_node_type            pl1_stat_:    355,  356.
        1063    modetable                pl1_stat_:    345,  346.
          75    multi_type               pl1_stat_:    163,  164.
         103    new_fortran_option       pl1_stat_:    183,  184.
           1    node_name                pl1_stat_:    359,  360.
          75    node_size                pl1_stat_:    381,  382.
        1223    node_uses                pl1_stat_:    404,  405.
          76    no_quick_blocks          pl1_stat_:    166,  167.
         120    ok_list                  pl1_stat_:    216,  217.
         160    one                      pl1_stat_:    264,  265.
          74    optimize                 pl1_stat_:    160,  161.
         243    options                  pl1_stat_:    319,  320.
         111    options_packed_dec       pl1_stat_:    201,  202.
        1150    pathname                 pl1_stat_:    348,  349.
          46    phase                    pl1_stat_:     90,   91.
         104    print_cp_dcl             pl1_stat_:    187,  188.
         105    profile                  pl1_stat_:    190,  191.
          47    profile_length           pl1_stat_:     93,   94.
         152    quick_pt                 pl1_stat_:    255,  256.
         154    root                     pl1_stat_:    258,  259.
         232    seg_name                 pl1_stat_:    315,  316.
          50    severity_plateau         pl1_stat_:     96,   97.
         106    single_symbol_list       pl1_stat_:    193,  194.
         136    source_list_ptr          pl1_stat_:    237,  238.
          51    source_seg               pl1_stat_:     99,  100.
          52    statement_id             pl1_stat_:    102,  103.
         102    stmnt_unreachable        pl1_stat_:    179,  180.
          53    stop_id                  pl1_stat_:    105,  106.
          14    st_length                pl1_stat_:     43,   44.
          13    st_start                 pl1_stat_:     40,   41.
         107    table                    pl1_stat_:    196,  197.
         124    temporary_list           pl1_stat_:    222,  223.
           0    textc                    pl1_stat_:     20,   23,  354.
         140    token_list_ptr           pl1_stat_:    240,  241.
         410    tree_area_ptr            pl1_stat_:    326,  327.
          16    tree_vec_index           pl1_stat_:     49,   50.
         110    unaligned_dec            pl1_stat_:    199,  200.
         202    unwind                   pl1_stat_:    295,  296.
         222    user_id                  pl1_stat_:    312,  313.
         100    use_old_area             pl1_stat_:    172,  173.
         212    util_abort               pl1_stat_:    303,  304.
         216    util_error               pl1_stat_:    306,  307.
         156    validate_proc            pl1_stat_:    261,  262.
          54    version                  pl1_stat_:    108,  109.
         412    xeq_tree_area_ptr        pl1_stat_:    330,  331.


NO FATAL ERRORS


                                          -----------------------------------------------------------


Historical Background

This edition of the Multics software materials and documentation is provided and donated
to Massachusetts Institute of Technology by Group BULL including BULL HN Information Systems Inc.
as a contribution to computer science knowledge.
This donation is made also to give evidence of the common contributions of Massachusetts Institute of Technology,
Bell Laboratories, General Electric, Honeywell Information Systems Inc., Honeywell BULL Inc., Groupe BULL
and BULL HN Information Systems Inc. to the development of this operating system.
Multics development was initiated by Massachusetts Institute of Technology Project MAC (1963-1970),
renamed the MIT Laboratory for Computer Science and Artificial Intelligence in the mid 1970s, under the leadership
of Professor Fernando Jose Corbato. Users consider that Multics provided the best software architecture
for managing computer hardware properly and for executing programs. Many subsequent operating systems
incorporated Multics principles.
Multics was distributed in 1975 to 2000 by Group Bull in Europe , and in the U.S. by Bull HN Information Systems Inc.,
as successor in interest by change in name only to Honeywell Bull Inc. and Honeywell Information Systems Inc. .

                                          -----------------------------------------------------------

Permission to use, copy, modify, and distribute these programs and their documentation for any purpose and without
fee is hereby granted,provided that the below copyright notice and historical background appear in all copies
and that both the copyright notice and historical background and this permission notice appear in supporting
documentation, and that the names of MIT, HIS, BULL or BULL HN not be used in advertising or publicity pertaining
to distribution of the programs without specific prior written permission.
    Copyright 1972 by Massachusetts Institute of Technology and Honeywell Information Systems Inc.
    Copyright 2006 by BULL HN Information Systems Inc.
    Copyright 2006 by Bull SAS
    All Rights Reserved
