ASSEMBLY LISTING OF SEGMENT >spec>on>pl128d>plio2_data_.alm
ASSEMBLED ON:	10/03/83  1347.9 mst Mon
OPTIONS USED:	list
ASSEMBLED BY:	ALM Version  6.6  November 1982
ASSEMBLER CREATED:	09/21/83  1227.3 mst Wed

                                     1  "  ******************************************************
                                     2  "  *                                                    *
                                     3  "  *                                                    *
                                     4  "  * Copyright (c) 1972 by Massachusetts Institute of   *
                                     5  "  * Technology and Honeywell Information Systems, Inc. *
                                     6  "  *                                                    *
                                     7  "  *                                                    *
                                     8  "  ******************************************************
                                     9
                                    10  "
                                    11  "		plio2_data_
                                    12  "
                                    13  "		static stuff to be bound into PLIO2
                                    14  "		P.A.Belmont
                                    15  "		12-17-70
                                    16  "		updated 7-27-72
                                    17  "
                                    18  "
    000000                          19  	name plio2_data_
                                    20  "
                        000022      21  	segdef	pspstat,fsbpstat,fabpstat,fab2pstat,pliostringfsbp
                        000045      22  	segdef	bs,ht,nl,cr,np
                        000040      23  	segdef	max_page_size
                        000016      24  	segdef	badfsbp
                        000026      25  	segdef	badjob
                        000025      26  	segdef	user_debug_plio_sw,spds,undef_file_sw
                        000031      27  	segdef	interconv_debug_sw,finalconv_debug_sw
                        000037      28  	segdef	pliostatswitch,ermsgsw,realsignalsw
                        000036      29  	segdef	get_data_debug_sw,put_data_debug_sw,real_signal_debug_sw
                                    30  "
                                    31  	use	linkc
                                    32  	join	/link/linkc
                                    33  "
                                    34  "
                                    35  	even
    000010  aa   077777 000043      36  pspstat:	its	-1,1
    000011  aa   000001 000000
    000012  aa   077777 000043      37  fsbpstat:	its	-1,1
    000013  aa   000001 000000
    000014  aa   077777 000043      38  fabpstat:	its	-1,1
    000015  aa   000001 000000
    000016  aa   077777 000043      39  badfsbp:	its	-1,1
    000017  aa   000001 000000
    000020  aa   077777 000043      40  fab2pstat: its	-1,1
    000021  aa   000001 000000
    000022  aa   077777 000043      41  pliostringfsbp: its	-1,1
    000023  aa   000001 000000
    000024  aa   000000 000000      42  user_debug_plio_sw: dec 0
    000025  aa   000000 000000      43  undef_file_sw:	dec 0
    000026  aa   000000 000000      44  badjob:		dec 0
    000027  aa   000000 000000      45  spds:		dec 0
    000030  aa   000000 000000      46  interconv_debug_sw: dec 0
    000031  aa   000000 000000      47  finalconv_debug_sw: dec 0
    000032  aa   000000 000000      48  pliostatswitch:     dec 0
    000033  aa   000000 000000      49  ermsgsw:		dec 0
    000034  aa   000000 000000      50  get_data_debug_sw:	dec 0
    000035  aa   000000 000000      51  put_data_debug_sw:	dec 0
    000036  aa   000000 000000      52  real_signal_debug_sw: dec 0
    000037  aa   000000 000001      53  realsignalsw:	dec 1
    000040  aa   375243 552000      54  max_page_size:	dec 34000000000
    000041  aa   010000 000000      55  bs:	oct	010000000000
    000042  aa   011000 000000      56  ht:	oct	011000000000
    000043  aa   012000 000000      57  nl:	oct	012000000000
    000044  aa   015000 000000      58  cr:	oct	015000000000
    000045  aa   014000 000000      59  np:	oct	014000000000
                                    60  "
                                    61  "
                                    62  "
                                    63  	end

NO LITERALS

NAME DEFINITIONS FOR ENTRY POINTS AND SEGDEFS

    000000  5a   000003 000000
    000001  5a   000243 600000
    000002  aa   000000 000000
    000003  55   000011 000002
    000004  5a   000002 400003
    000005  55   000006 000011
    000006  aa  013 160 154 151
    000007  aa  157 062 137 144
    000010  aa  141 164 141 137
    000011  55   000022 000003
    000012  2a   000036 400001
    000013  55   000014 000003
    000014  aa  024 162 145 141         real_signal_debug_sw
    000015  aa  154 137 163 151
    000016  aa  147 156 141 154
    000017  aa  137 144 145 142
    000020  aa  165 147 137 163
    000021  aa  167 000 000 000
    000022  55   000032 000011
    000023  2a   000035 400001
    000024  55   000025 000003
    000025  aa  021 160 165 164         put_data_debug_sw
    000026  aa  137 144 141 164
    000027  aa  141 137 144 145
    000030  aa  142 165 147 137
    000031  aa  163 167 000 000
    000032  55   000042 000022
    000033  2a   000034 400001
    000034  55   000035 000003
    000035  aa  021 147 145 164         get_data_debug_sw
    000036  aa  137 144 141 164
    000037  aa  141 137 144 145
    000040  aa  142 165 147 137
    000041  aa  163 167 000 000
    000042  55   000051 000032
    000043  2a   000037 400001
    000044  55   000045 000003
    000045  aa  014 162 145 141         realsignalsw
    000046  aa  154 163 151 147
    000047  aa  156 141 154 163
    000050  aa  167 000 000 000
    000051  55   000056 000042
    000052  2a   000033 400001
    000053  55   000054 000003
    000054  aa  007 145 162 155         ermsgsw
    000055  aa  163 147 163 167
    000056  55   000065 000051
    000057  2a   000032 400001
    000060  55   000061 000003
    000061  aa  016 160 154 151         pliostatswitch
    000062  aa  157 163 164 141
    000063  aa  164 163 167 151
    000064  aa  164 143 150 000
    000065  55   000075 000056
    000066  2a   000031 400001
    000067  55   000070 000003
    000070  aa  022 146 151 156         finalconv_debug_sw
    000071  aa  141 154 143 157
    000072  aa  156 166 137 144
    000073  aa  145 142 165 147
    000074  aa  137 163 167 000
    000075  55   000105 000065
    000076  2a   000030 400001
    000077  55   000100 000003
    000100  aa  022 151 156 164         interconv_debug_sw
    000101  aa  145 162 143 157
    000102  aa  156 166 137 144
    000103  aa  145 142 165 147
    000104  aa  137 163 167 000
    000105  55   000114 000075
    000106  2a   000025 400001
    000107  55   000110 000003
    000110  aa  015 165 156 144         undef_file_sw
    000111  aa  145 146 137 146
    000112  aa  151 154 145 137
    000113  aa  163 167 000 000
    000114  55   000121 000105
    000115  2a   000027 400001
    000116  55   000117 000003
    000117  aa  004 163 160 144         spds
    000120  aa  163 000 000 000
    000121  55   000131 000114
    000122  2a   000024 400001
    000123  55   000124 000003
    000124  aa  022 165 163 145         user_debug_plio_sw
    000125  aa  162 137 144 145
    000126  aa  142 165 147 137
    000127  aa  160 154 151 157
    000130  aa  137 163 167 000
    000131  55   000136 000121
    000132  2a   000026 400001
    000133  55   000134 000003
    000134  aa  006 142 141 144         badjob
    000135  aa  152 157 142 000
    000136  55   000143 000131
    000137  2a   000016 400001
    000140  55   000141 000003
    000141  aa  007 142 141 144         badfsbp
    000142  aa  146 163 142 160
    000143  55   000152 000136
    000144  2a   000040 400001
    000145  55   000146 000003
    000146  aa  015 155 141 170         max_page_size
    000147  aa  137 160 141 147
    000150  aa  145 137 163 151
    000151  aa  172 145 000 000
    000152  55   000156 000143
    000153  2a   000045 400001
    000154  55   000155 000003
    000155  aa  002 156 160 000         np
    000156  55   000162 000152
    000157  2a   000044 400001
    000160  55   000161 000003
    000161  aa  002 143 162 000         cr
    000162  55   000166 000156
    000163  2a   000043 400001
    000164  55   000165 000003
    000165  aa  002 156 154 000         nl
    000166  55   000172 000162
    000167  2a   000042 400001
    000170  55   000171 000003
    000171  aa  002 150 164 000         ht
    000172  55   000176 000166
    000173  2a   000041 400001
    000174  55   000175 000003
    000175  aa  002 142 163 000         bs
    000176  55   000205 000172
    000177  2a   000022 400001
    000200  55   000201 000003
    000201  aa  016 160 154 151         pliostringfsbp
    000202  aa  157 163 164 162
    000203  aa  151 156 147 146
    000204  aa  163 142 160 000
    000205  55   000213 000176
    000206  2a   000020 400001
    000207  55   000210 000003
    000210  aa  011 146 141 142         fab2pstat
    000211  aa  062 160 163 164
    000212  aa  141 164 000 000
    000213  55   000221 000205
    000214  2a   000014 400001
    000215  55   000216 000003
    000216  aa  010 146 141 142         fabpstat
    000217  aa  160 163 164 141
    000220  aa  164 000 000 000
    000221  55   000227 000213
    000222  2a   000012 400001
    000223  55   000224 000003
    000224  aa  010 146 163 142         fsbpstat
    000225  aa  160 163 164 141
    000226  aa  164 000 000 000
    000227  55   000234 000221
    000230  2a   000010 400001
    000231  55   000232 000003
    000232  aa  007 160 163 160         pspstat
    000233  aa  163 164 141 164
    000234  55   000002 000227
    000235  6a   000000 400002
    000236  55   000237 000003
    000237  aa  014 163 171 155         symbol_table
    000240  aa  142 157 154 137
    000241  aa  164 141 142 154
    000242  aa  145 000 000 000

DEFINITIONS HASH TABLE

    000243  aa   000000 000065
    000244  aa   000000 000000
    000245  aa   000000 000000
    000246  5a   000075 000000
    000247  5a   000221 000000
    000250  aa   000000 000000
    000251  aa   000000 000000
    000252  5a   000205 000000
    000253  aa   000000 000000
    000254  5a   000213 000000
    000255  5a   000143 000000
    000256  aa   000000 000000
    000257  aa   000000 000000
    000260  aa   000000 000000
    000261  aa   000000 000000
    000262  aa   000000 000000
    000263  5a   000065 000000
    000264  5a   000105 000000
    000265  5a   000166 000000
    000266  5a   000152 000000
    000267  aa   000000 000000
    000270  aa   000000 000000
    000271  aa   000000 000000
    000272  5a   000121 000000
    000273  5a   000156 000000
    000274  5a   000056 000000
    000275  5a   000176 000000
    000276  5a   000022 000000
    000277  5a   000051 000000
    000300  5a   000227 000000
    000301  5a   000234 000000
    000302  aa   000000 000000
    000303  aa   000000 000000
    000304  aa   000000 000000
    000305  aa   000000 000000
    000306  aa   000000 000000
    000307  aa   000000 000000
    000310  5a   000011 000000
    000311  5a   000162 000000
    000312  5a   000114 000000
    000313  aa   000000 000000
    000314  aa   000000 000000
    000315  5a   000136 000000
    000316  aa   000000 000000
    000317  5a   000131 000000
    000320  aa   000000 000000
    000321  aa   000000 000000
    000322  aa   000000 000000
    000323  aa   000000 000000
    000324  5a   000032 000000
    000325  aa   000000 000000
    000326  aa   000000 000000
    000327  5a   000172 000000
    000330  5a   000042 000000

NO EXTERNAL NAMES

NO TRAP POINTER WORDS

TYPE PAIR BLOCKS

    000331  aa   000001 000000
    000332  aa   000000 000000

INTERNAL EXPRESSION WORDS

    000333  aa   000000 000000
LINKAGE INFORMATION

    000000  aa   000000 000000
    000001  0a   000000 000000
    000002  aa   000000 000000
    000003  aa   000000 000000
    000004  aa   000000 000000
    000005  aa   000000 000000
    000006  22   000046 000046
    000007  a2   000000 000036
SYMBOL INFORMATION

SYMBOL TABLE HEADER

    000000  aa   000000 000001
    000001  aa   163171 155142
    000002  aa   164162 145145
    000003  aa   000000 000004
    000004  aa   000000 112143
    000005  aa   305203 523135
    000006  aa   000000 112162
    000007  aa   426043 102441
    000010  aa   141154 155040
    000011  aa   040040 040040
    000012  aa   000024 000040
    000013  aa   000034 000040
    000014  aa   000044 000100
    000015  aa   000002 000002
    000016  aa   000064 000000
    000017  aa   000000 000117
    000020  aa   000000 000102
    000021  aa   000000 000104
    000022  aa   000111 000102
    000023  aa   000064 000000
    000024  aa   101114 115040
    000025  aa   126145 162163
    000026  aa   151157 156040
    000027  aa   040066 056066
    000030  aa   040040 116157
    000031  aa   166145 155142
    000032  aa   145162 040061
    000033  aa   071070 062040
    000034  aa   107112 157150
    000035  aa   156163 157156
    000036  aa   056123 171163
    000037  aa   115141 151156
    000040  aa   164056 155040
    000041  aa   040040 040040
    000042  aa   040040 040040
    000043  aa   040040 040040
    000044  aa   154151 163164
    000045  aa   040040 040040
    000046  aa   040040 040040
    000047  aa   040040 040040
    000050  aa   040040 040040
    000051  aa   040040 040040
    000052  aa   040040 040040
    000053  aa   040040 040040
    000054  aa   040040 040040
    000055  aa   040040 040040
    000056  aa   040040 040040
    000057  aa   040040 040040
    000060  aa   040040 040040
    000061  aa   040040 040040
    000062  aa   040040 040040
    000063  aa   040040 040040
    000064  aa   000000 000001
    000065  aa   000000 000001
    000066  aa   000072 000037
    000067  aa   121622 264477
    000070  aa   000000 112162
    000071  aa   262452 600000
    000072  aa   076163 160145          >spec>on>pl128d>plio2_data_.alm
    000073  aa   143076 157156
    000074  aa   076160 154061
    000075  aa   062070 144076
    000076  aa   160154 151157
    000077  aa   062137 144141
    000100  aa   164141 137056
    000101  aa   141154 155040
               MULTICS ASSEMBLY CROSS REFERENCE LISTING

   Value        Symbol                   Source file   Line number

          16    badfsbp                  plio2_data_:   24,   39.
          26    badjob                   plio2_data_:   25,   44.
          41    bs                       plio2_data_:   22,   55.
          44    cr                       plio2_data_:   22,   58.
          33    ermsgsw                  plio2_data_:   28,   49.
          20    fab2pstat                plio2_data_:   21,   40.
          14    fabpstat                 plio2_data_:   21,   38.
          31    finalconv_debug_sw       plio2_data_:   27,   47.
          12    fsbpstat                 plio2_data_:   21,   37.
          34    get_data_debug_sw        plio2_data_:   29,   50.
          42    ht                       plio2_data_:   22,   56.
          30    interconv_debug_sw       plio2_data_:   27,   46.
          10    linkc                    plio2_data_:   31,   32.
          40    max_page_size            plio2_data_:   23,   54.
          43    nl                       plio2_data_:   22,   57.
          45    np                       plio2_data_:   22,   59.
          32    pliostatswitch           plio2_data_:   28,   48.
          22    pliostringfsbp           plio2_data_:   21,   41.
          10    pspstat                  plio2_data_:   21,   36.
          35    put_data_debug_sw        plio2_data_:   29,   51.
          37    realsignalsw             plio2_data_:   28,   53.
          36    real_signal_debug_sw     plio2_data_:   29,   52.
          27    spds                     plio2_data_:   26,   45.
          25    undef_file_sw            plio2_data_:   26,   43.
          24    user_debug_plio_sw       plio2_data_:   26,   42.


NO FATAL ERRORS


                                          -----------------------------------------------------------


Historical Background

This edition of the Multics software materials and documentation is provided and donated
to Massachusetts Institute of Technology by Group BULL including BULL HN Information Systems Inc.
as a contribution to computer science knowledge.
This donation is made also to give evidence of the common contributions of Massachusetts Institute of Technology,
Bell Laboratories, General Electric, Honeywell Information Systems Inc., Honeywell BULL Inc., Groupe BULL
and BULL HN Information Systems Inc. to the development of this operating system.
Multics development was initiated by Massachusetts Institute of Technology Project MAC (1963-1970),
renamed the MIT Laboratory for Computer Science and Artificial Intelligence in the mid 1970s, under the leadership
of Professor Fernando Jose Corbato. Users consider that Multics provided the best software architecture
for managing computer hardware properly and for executing programs. Many subsequent operating systems
incorporated Multics principles.
Multics was distributed in 1975 to 2000 by Group Bull in Europe , and in the U.S. by Bull HN Information Systems Inc.,
as successor in interest by change in name only to Honeywell Bull Inc. and Honeywell Information Systems Inc. .

                                          -----------------------------------------------------------

Permission to use, copy, modify, and distribute these programs and their documentation for any purpose and without
fee is hereby granted,provided that the below copyright notice and historical background appear in all copies
and that both the copyright notice and historical background and this permission notice appear in supporting
documentation, and that the names of MIT, HIS, BULL or BULL HN not be used in advertising or publicity pertaining
to distribution of the programs without specific prior written permission.
    Copyright 1972 by Massachusetts Institute of Technology and Honeywell Information Systems Inc.
    Copyright 2006 by BULL HN Information Systems Inc.
    Copyright 2006 by Bull SAS
    All Rights Reserved
