ASSEMBLY LISTING OF SEGMENT >special_ldd>install>MR12.2-1184>probe_et_.alm
ASSEMBLED ON:	10/24/88  1431.6 mst Mon
OPTIONS USED:	-target l68                              list symbols
ASSEMBLED BY:	ALM Version 8.13 September 1988
ASSEMBLER CREATED:	10/17/88  1015.1 mst Mon

                                     1  " ***********************************************************
                                     2  " *                                                         *
                                     3  " * Copyright, (C) Honeywell Bull Inc., 1988                *
                                     4  " *                                                         *
                                     5  " * Copyright, (C) Honeywell Information Systems Inc., 1982 *
                                     6  " *                                                         *
                                     7  " * Copyright (c) 1972 by Massachusetts Institute of        *
                                     8  " * Technology and Honeywell Information Systems, Inc.      *
                                     9  " *                                                         *
                                    10  " ***********************************************************
                                    11
                                    12  " HISTORY COMMENTS:
                                    13  "  1) change(88-10-18,WAAnderson), approve(88-10-18,MCR7952),
                                    14  "     audit(88-10-18,JRGray), install(88-10-24,MR12.2-1184):
                                    15  "     Probe source archive split. Part of C-Probe support.
                                    16  "                                                      END HISTORY COMMENTS
                                    17
                                    18
                                    19  "
                                    20  "	Error table for new probe
                                    21  "
                                    22  "	Created (version 0) 04/08/79 W. Olin Sibert
                                    23  "
                                    24  "	This version is just an interim kludge to get the error codes out of
                                    25  "	pl1 include files and remove the necessity for keeping the numbers
                                    26  "	consistent. It will be converted to be a real error table when the
                                    27  "	version 2 error table macros becoma available.
                                    28  "
                                    29
    000000                          30  	name	probe_et_
                                    31
                        000001      32  	set	error_number,1
                                    33  	use	messages
                                    34
                                    35  	macro	ec
                              1     36  	segdef	&1
                              2     37  &1:	vfd	36/error_number+1000
                              3     38  	vfd	36/&l2
                              4     39  	aci	@&2@,40
                              5     40  	vfd	36/&l3
                              6     41  	aci	@&3@,108
                              7     42  	set	error_number,error_number+1
                              8     43  	&end
                                    44
                                    45  	include	probe_et_
                                   1-1
                                   1-2  "	BEGIN INCLUDE FILE ... probe_et_.incl.alm
                                   1-3  " HISTORY COMMENTS:
                                   1-4  "  1) change(88-09-20,WAAnderson), approve(88-09-20,MCR7952),
                                   1-5  "     audit(88-10-18,JRGray), install(88-10-24,MR12.2-1184):
                                   1-6  "     Added Error Codes for C-Probe Support.
                                   1-7  "                                                      END HISTORY COMMENTS
                                   1-8
                                   1-9  "	The error codes for probe_et_. This list is kept in alphabetical
                                  1-10  "	order: use 'sort_seg probe_et_.incl.alm -block 2' to do it.
                                  1-11  ""	It is IMPERATIVE that -block 2 be specified when sorting. If it
                                  1-12  ""	is omitted, the result will be absolute chaos.
                                  1-13  """
                                  1-14  """ Modified 7 Sept 79 JRD to add bad_ctl_arg and   bad_decimal
                                  1-15  """ Modified 22 Sept 79 JRD to add bad_line_syntax
                                  1-16  """ Modified 19 Feb 80 JRD to add probe variables error codes
                                  1-17  """ Modified June 83 JMAthane to add size error
                                  1-18
                                  1-19  ec	ambiguous_ref,		" Ambiguous reference to a symbol
                                  1-20  	  (Ambiguous reference.),(Ambiguous reference to ^a.)
                        000001          	segdef	ambiguous_ref
    000001  aa   000000 001751          ambiguous_ref:	vfd	36/error_number+1000
    000002  aa   000000 000024          	vfd	36/20
    000003  aa  101 155 142 151         	aci	@Ambiguous reference.@,40
    000004  aa  147 165 157 165
    000005  aa  163 040 162 145
    000006  aa  146 145 162 145
    000007  aa  156 143 145 056
    000010  aa  040 040 040 040
    000011  aa  040 040 040 040
    000012  aa  040 040 040 040
    000013  aa  040 040 040 040
    000014  aa  040 040 040 040
    000015  aa   000000 000032          	vfd	36/26
    000016  aa  101 155 142 151         	aci	@Ambiguous reference to ^a.@,108
    000017  aa  147 165 157 165
    000020  aa  163 040 162 145
    000021  aa  146 145 162 145
    000022  aa  156 143 145 040
    000023  aa  164 157 040 136
    000024  aa  141 056 040 040
    000025  aa  040 040 040 040
    000026  aa  040 040 040 040
    000027  aa  040 040 040 040
    000030  aa  040 040 040 040
    000031  aa  040 040 040 040
    000032  aa  040 040 040 040
    000033  aa  040 040 040 040
    000034  aa  040 040 040 040
    000035  aa  040 040 040 040
    000036  aa  040 040 040 040
    000037  aa  040 040 040 040
    000040  aa  040 040 040 040
    000041  aa  040 040 040 040
    000042  aa  040 040 040 040
    000043  aa  040 040 040 040
    000044  aa  040 040 040 040
    000045  aa  040 040 040 040
    000046  aa  040 040 040 040
    000047  aa  040 040 040 040
    000050  aa  040 040 040 040
                        000002          	set	error_number,error_number+1
                                  1-21  ec	array_arg,		" Array argument used
                                  1-22  	  (),(Restriction: cannot convert to array.)
                        000051          	segdef	array_arg
    000051  aa   000000 001752          array_arg:	vfd	36/error_number+1000
    000052  aa   000000 000000          	vfd	36/0
    000053  aa  040 040 040 040         	aci	@@,40
    000054  aa  040 040 040 040
    000055  aa  040 040 040 040
    000056  aa  040 040 040 040
    000057  aa  040 040 040 040
    000060  aa  040 040 040 040
    000061  aa  040 040 040 040
    000062  aa  040 040 040 040
    000063  aa  040 040 040 040
    000064  aa  040 040 040 040
    000065  aa   000000 000045          	vfd	36/37
    000066  aa  122 145 163 164         	aci	@Restriction: cannot convert to array.@,108
    000067  aa  162 151 143 164
    000070  aa  151 157 156 072
    000071  aa  040 143 141 156
    000072  aa  156 157 164 040
    000073  aa  143 157 156 166
    000074  aa  145 162 164 040
    000075  aa  164 157 040 141
    000076  aa  162 162 141 171
    000077  aa  056 040 040 040
    000100  aa  040 040 040 040
    000101  aa  040 040 040 040
    000102  aa  040 040 040 040
    000103  aa  040 040 040 040
    000104  aa  040 040 040 040
    000105  aa  040 040 040 040
    000106  aa  040 040 040 040
    000107  aa  040 040 040 040
    000110  aa  040 040 040 040
    000111  aa  040 040 040 040
    000112  aa  040 040 040 040
    000113  aa  040 040 040 040
    000114  aa  040 040 040 040
    000115  aa  040 040 040 040
    000116  aa  040 040 040 040
    000117  aa  040 040 040 040
    000120  aa  040 040 040 040
                        000003          	set	error_number,error_number+1
                                  1-23  ec	bad_assign,		" Types for assignments are incompatible
                                  1-24  	  (Cannot convert types.),(Cannot convert types in assignment of ^a to ^a.)
                        000121          	segdef	bad_assign
    000121  aa   000000 001753          bad_assign:	vfd	36/error_number+1000
    000122  aa   000000 000025          	vfd	36/21
    000123  aa  103 141 156 156         	aci	@Cannot convert types.@,40
    000124  aa  157 164 040 143
    000125  aa  157 156 166 145
    000126  aa  162 164 040 164
    000127  aa  171 160 145 163
    000130  aa  056 040 040 040
    000131  aa  040 040 040 040
    000132  aa  040 040 040 040
    000133  aa  040 040 040 040
    000134  aa  040 040 040 040
    000135  aa   000000 000057          	vfd	36/47
    000136  aa  103 141 156 156         	aci	@Cannot convert types in assignment of ^a to ^a.@,108
    000137  aa  157 164 040 143
    000140  aa  157 156 166 145
    000141  aa  162 164 040 164
    000142  aa  171 160 145 163
    000143  aa  040 151 156 040
    000144  aa  141 163 163 151
    000145  aa  147 156 155 145
    000146  aa  156 164 040 157
    000147  aa  146 040 136 141
    000150  aa  040 164 157 040
    000151  aa  136 141 056 040
    000152  aa  040 040 040 040
    000153  aa  040 040 040 040
    000154  aa  040 040 040 040
    000155  aa  040 040 040 040
    000156  aa  040 040 040 040
    000157  aa  040 040 040 040
    000160  aa  040 040 040 040
    000161  aa  040 040 040 040
    000162  aa  040 040 040 040
    000163  aa  040 040 040 040
    000164  aa  040 040 040 040
    000165  aa  040 040 040 040
    000166  aa  040 040 040 040
    000167  aa  040 040 040 040
    000170  aa  040 040 040 040
                        000004          	set	error_number,error_number+1
                                  1-25  ec	bad_builtin,		" Incorrect use of a builtin function
                                  1-26  	  (),(Incorrect use of ^a.)
                        000171          	segdef	bad_builtin
    000171  aa   000000 001754          bad_builtin:	vfd	36/error_number+1000
    000172  aa   000000 000000          	vfd	36/0
    000173  aa  040 040 040 040         	aci	@@,40
    000174  aa  040 040 040 040
    000175  aa  040 040 040 040
    000176  aa  040 040 040 040
    000177  aa  040 040 040 040
    000200  aa  040 040 040 040
    000201  aa  040 040 040 040
    000202  aa  040 040 040 040
    000203  aa  040 040 040 040
    000204  aa  040 040 040 040
    000205  aa   000000 000024          	vfd	36/20
    000206  aa  111 156 143 157         	aci	@Incorrect use of ^a.@,108
    000207  aa  162 162 145 143
    000210  aa  164 040 165 163
    000211  aa  145 040 157 146
    000212  aa  040 136 141 056
    000213  aa  040 040 040 040
    000214  aa  040 040 040 040
    000215  aa  040 040 040 040
    000216  aa  040 040 040 040
    000217  aa  040 040 040 040
    000220  aa  040 040 040 040
    000221  aa  040 040 040 040
    000222  aa  040 040 040 040
    000223  aa  040 040 040 040
    000224  aa  040 040 040 040
    000225  aa  040 040 040 040
    000226  aa  040 040 040 040
    000227  aa  040 040 040 040
    000230  aa  040 040 040 040
    000231  aa  040 040 040 040
    000232  aa  040 040 040 040
    000233  aa  040 040 040 040
    000234  aa  040 040 040 040
    000235  aa  040 040 040 040
    000236  aa  040 040 040 040
    000237  aa  040 040 040 040
    000240  aa  040 040 040 040
                        000005          	set	error_number,error_number+1
                                  1-27  ec	bad_command,		" Illegal command specified
                                  1-28  	  (Command not recognized.),(Command ^a not recognized.)
                        000241          	segdef	bad_command
    000241  aa   000000 001755          bad_command:	vfd	36/error_number+1000
    000242  aa   000000 000027          	vfd	36/23
    000243  aa  103 157 155 155         	aci	@Command not recognized.@,40
    000244  aa  141 156 144 040
    000245  aa  156 157 164 040
    000246  aa  162 145 143 157
    000247  aa  147 156 151 172
    000250  aa  145 144 056 040
    000251  aa  040 040 040 040
    000252  aa  040 040 040 040
    000253  aa  040 040 040 040
    000254  aa  040 040 040 040
    000255  aa   000000 000032          	vfd	36/26
    000256  aa  103 157 155 155         	aci	@Command ^a not recognized.@,108
    000257  aa  141 156 144 040
    000260  aa  136 141 040 156
    000261  aa  157 164 040 162
    000262  aa  145 143 157 147
    000263  aa  156 151 172 145
    000264  aa  144 056 040 040
    000265  aa  040 040 040 040
    000266  aa  040 040 040 040
    000267  aa  040 040 040 040
    000270  aa  040 040 040 040
    000271  aa  040 040 040 040
    000272  aa  040 040 040 040
    000273  aa  040 040 040 040
    000274  aa  040 040 040 040
    000275  aa  040 040 040 040
    000276  aa  040 040 040 040
    000277  aa  040 040 040 040
    000300  aa  040 040 040 040
    000301  aa  040 040 040 040
    000302  aa  040 040 040 040
    000303  aa  040 040 040 040
    000304  aa  040 040 040 040
    000305  aa  040 040 040 040
    000306  aa  040 040 040 040
    000307  aa  040 040 040 040
    000310  aa  040 040 040 040
                        000006          	set	error_number,error_number+1
                                  1-29  ec	bad_comparison,		" Certain comparisons only allow = or ^=
                                  1-30  	  (Bad comparison operator),(Bad comparison operator, only '=' or '^=' allowed.)
                        000311          	segdef	bad_comparison
    000311  aa   000000 001756          bad_comparison:	vfd	36/error_number+1000
    000312  aa   000000 000027          	vfd	36/23
    000313  aa  102 141 144 040         	aci	@Bad comparison operator@,40
    000314  aa  143 157 155 160
    000315  aa  141 162 151 163
    000316  aa  157 156 040 157
    000317  aa  160 145 162 141
    000320  aa  164 157 162 040
    000321  aa  040 040 040 040
    000322  aa  040 040 040 040
    000323  aa  040 040 040 040
    000324  aa  040 040 040 040
    000325  aa   000000 000062          	vfd	36/50
    000326  aa  102 141 144 040         	aci	@Bad comparison operator, only '=' or '^=' allowed.@,108
    000327  aa  143 157 155 160
    000330  aa  141 162 151 163
    000331  aa  157 156 040 157
    000332  aa  160 145 162 141
    000333  aa  164 157 162 054
    000334  aa  040 157 156 154
    000335  aa  171 040 047 075
    000336  aa  047 040 157 162
    000337  aa  040 047 136 075
    000340  aa  047 040 141 154
    000341  aa  154 157 167 145
    000342  aa  144 056 040 040
    000343  aa  040 040 040 040
    000344  aa  040 040 040 040
    000345  aa  040 040 040 040
    000346  aa  040 040 040 040
    000347  aa  040 040 040 040
    000350  aa  040 040 040 040
    000351  aa  040 040 040 040
    000352  aa  040 040 040 040
    000353  aa  040 040 040 040
    000354  aa  040 040 040 040
    000355  aa  040 040 040 040
    000356  aa  040 040 040 040
    000357  aa  040 040 040 040
    000360  aa  040 040 040 040
                        000007          	set	error_number,error_number+1
                                  1-31  ec	bad_constant,		" Incorrect use of a constant
                                  1-32  	  (Incorrect use of constant.),(A constant or temporary cannot be used in this context.)
                        000361          	segdef	bad_constant
    000361  aa   000000 001757          bad_constant:	vfd	36/error_number+1000
    000362  aa   000000 000032          	vfd	36/26
    000363  aa  111 156 143 157         	aci	@Incorrect use of constant.@,40
    000364  aa  162 162 145 143
    000365  aa  164 040 165 163
    000366  aa  145 040 157 146
    000367  aa  040 143 157 156
    000370  aa  163 164 141 156
    000371  aa  164 056 040 040
    000372  aa  040 040 040 040
    000373  aa  040 040 040 040
    000374  aa  040 040 040 040
    000375  aa   000000 000067          	vfd	36/55
    000376  aa  101 040 143 157         	aci	@A constant or temporary cannot be used in this context.@,108
    000377  aa  156 163 164 141
    000400  aa  156 164 040 157
    000401  aa  162 040 164 145
    000402  aa  155 160 157 162
    000403  aa  141 162 171 040
    000404  aa  143 141 156 156
    000405  aa  157 164 040 142
    000406  aa  145 040 165 163
    000407  aa  145 144 040 151
    000410  aa  156 040 164 150
    000411  aa  151 163 040 143
    000412  aa  157 156 164 145
    000413  aa  170 164 056 040
    000414  aa  040 040 040 040
    000415  aa  040 040 040 040
    000416  aa  040 040 040 040
    000417  aa  040 040 040 040
    000420  aa  040 040 040 040
    000421  aa  040 040 040 040
    000422  aa  040 040 040 040
    000423  aa  040 040 040 040
    000424  aa  040 040 040 040
    000425  aa  040 040 040 040
    000426  aa  040 040 040 040
    000427  aa  040 040 040 040
    000430  aa  040 040 040 040
                        000010          	set	error_number,error_number+1
                                  1-33  ec	bad_ctl_arg,		"Not one we like
                                  1-34  	  (Bad control arg.),(The control arg ^a cannot be used with this request.)
                        000431          	segdef	bad_ctl_arg
    000431  aa   000000 001760          bad_ctl_arg:	vfd	36/error_number+1000
    000432  aa   000000 000020          	vfd	36/16
    000433  aa  102 141 144 040         	aci	@Bad control arg.@,40
    000434  aa  143 157 156 164
    000435  aa  162 157 154 040
    000436  aa  141 162 147 056
    000437  aa  040 040 040 040
    000440  aa  040 040 040 040
    000441  aa  040 040 040 040
    000442  aa  040 040 040 040
    000443  aa  040 040 040 040
    000444  aa  040 040 040 040
    000445  aa   000000 000064          	vfd	36/52
    000446  aa  124 150 145 040         	aci	@The control arg ^a cannot be used with this request.@,108
    000447  aa  143 157 156 164
    000450  aa  162 157 154 040
    000451  aa  141 162 147 040
    000452  aa  136 141 040 143
    000453  aa  141 156 156 157
    000454  aa  164 040 142 145
    000455  aa  040 165 163 145
    000456  aa  144 040 167 151
    000457  aa  164 150 040 164
    000460  aa  150 151 163 040
    000461  aa  162 145 161 165
    000462  aa  145 163 164 056
    000463  aa  040 040 040 040
    000464  aa  040 040 040 040
    000465  aa  040 040 040 040
    000466  aa  040 040 040 040
    000467  aa  040 040 040 040
    000470  aa  040 040 040 040
    000471  aa  040 040 040 040
    000472  aa  040 040 040 040
    000473  aa  040 040 040 040
    000474  aa  040 040 040 040
    000475  aa  040 040 040 040
    000476  aa  040 040 040 040
    000477  aa  040 040 040 040
    000500  aa  040 040 040 040
                        000011          	set	error_number,error_number+1
                                  1-35  ec	bad_dcl_type,		" unknown type in dcl probe variable
                                  1-36  	   (Bad type.),(Not a valid probe variable type: ^a)
                        000501          	segdef	bad_dcl_type
    000501  aa   000000 001761          bad_dcl_type:	vfd	36/error_number+1000
    000502  aa   000000 000011          	vfd	36/9
    000503  aa  102 141 144 040         	aci	@Bad type.@,40
    000504  aa  164 171 160 145
    000505  aa  056 040 040 040
    000506  aa  040 040 040 040
    000507  aa  040 040 040 040
    000510  aa  040 040 040 040
    000511  aa  040 040 040 040
    000512  aa  040 040 040 040
    000513  aa  040 040 040 040
    000514  aa  040 040 040 040
    000515  aa   000000 000043          	vfd	36/35
    000516  aa  116 157 164 040         	aci	@Not a valid probe variable type: ^a@,108
    000517  aa  141 040 166 141
    000520  aa  154 151 144 040
    000521  aa  160 162 157 142
    000522  aa  145 040 166 141
    000523  aa  162 151 141 142
    000524  aa  154 145 040 164
    000525  aa  171 160 145 072
    000526  aa  040 136 141 040
    000527  aa  040 040 040 040
    000530  aa  040 040 040 040
    000531  aa  040 040 040 040
    000532  aa  040 040 040 040
    000533  aa  040 040 040 040
    000534  aa  040 040 040 040
    000535  aa  040 040 040 040
    000536  aa  040 040 040 040
    000537  aa  040 040 040 040
    000540  aa  040 040 040 040
    000541  aa  040 040 040 040
    000542  aa  040 040 040 040
    000543  aa  040 040 040 040
    000544  aa  040 040 040 040
    000545  aa  040 040 040 040
    000546  aa  040 040 040 040
    000547  aa  040 040 040 040
    000550  aa  040 040 040 040
                        000012          	set	error_number,error_number+1
                                  1-37  ec	bad_decimal,		" Contains illegal characters
                                  1-38  	  (Bad decimal data.),(Decimal data ^a contains illegal characters. It may be uninitialized.)
                        000551          	segdef	bad_decimal
    000551  aa   000000 001762          bad_decimal:	vfd	36/error_number+1000
    000552  aa   000000 000021          	vfd	36/17
    000553  aa  102 141 144 040         	aci	@Bad decimal data.@,40
    000554  aa  144 145 143 151
    000555  aa  155 141 154 040
    000556  aa  144 141 164 141
    000557  aa  056 040 040 040
    000560  aa  040 040 040 040
    000561  aa  040 040 040 040
    000562  aa  040 040 040 040
    000563  aa  040 040 040 040
    000564  aa  040 040 040 040
    000565  aa   000000 000105          	vfd	36/69
    000566  aa  104 145 143 151         	aci	@Decimal data ^a contains illegal characters. It may be uninitialized.@,108
    000567  aa  155 141 154 040
    000570  aa  144 141 164 141
    000571  aa  040 136 141 040
    000572  aa  143 157 156 164
    000573  aa  141 151 156 163
    000574  aa  040 151 154 154
    000575  aa  145 147 141 154
    000576  aa  040 143 150 141
    000577  aa  162 141 143 164
    000600  aa  145 162 163 056
    000601  aa  040 111 164 040
    000602  aa  155 141 171 040
    000603  aa  142 145 040 165
    000604  aa  156 151 156 151
    000605  aa  164 151 141 154
    000606  aa  151 172 145 144
    000607  aa  056 040 040 040
    000610  aa  040 040 040 040
    000611  aa  040 040 040 040
    000612  aa  040 040 040 040
    000613  aa  040 040 040 040
    000614  aa  040 040 040 040
    000615  aa  040 040 040 040
    000616  aa  040 040 040 040
    000617  aa  040 040 040 040
    000620  aa  040 040 040 040
                        000013          	set	error_number,error_number+1
                                  1-39  ec	bad_entry,		" Entry variable not allowed in generation
                                  1-40  	  (Entry variable not allowed.),(Entry variable not allowed in generation.)
                        000621          	segdef	bad_entry
    000621  aa   000000 001763          bad_entry:	vfd	36/error_number+1000
    000622  aa   000000 000033          	vfd	36/27
    000623  aa  105 156 164 162         	aci	@Entry variable not allowed.@,40
    000624  aa  171 040 166 141
    000625  aa  162 151 141 142
    000626  aa  154 145 040 156
    000627  aa  157 164 040 141
    000630  aa  154 154 157 167
    000631  aa  145 144 056 040
    000632  aa  040 040 040 040
    000633  aa  040 040 040 040
    000634  aa  040 040 040 040
    000635  aa   000000 000051          	vfd	36/41
    000636  aa  105 156 164 162         	aci	@Entry variable not allowed in generation.@,108
    000637  aa  171 040 166 141
    000640  aa  162 151 141 142
    000641  aa  154 145 040 156
    000642  aa  157 164 040 141
    000643  aa  154 154 157 167
    000644  aa  145 144 040 151
    000645  aa  156 040 147 145
    000646  aa  156 145 162 141
    000647  aa  164 151 157 156
    000650  aa  056 040 040 040
    000651  aa  040 040 040 040
    000652  aa  040 040 040 040
    000653  aa  040 040 040 040
    000654  aa  040 040 040 040
    000655  aa  040 040 040 040
    000656  aa  040 040 040 040
    000657  aa  040 040 040 040
    000660  aa  040 040 040 040
    000661  aa  040 040 040 040
    000662  aa  040 040 040 040
    000663  aa  040 040 040 040
    000664  aa  040 040 040 040
    000665  aa  040 040 040 040
    000666  aa  040 040 040 040
    000667  aa  040 040 040 040
    000670  aa  040 040 040 040
                        000014          	set	error_number,error_number+1
                                  1-41  ec	bad_expression,		" Syntax error in expression
                                  1-42  	  (Incorrect syntax.),(Incorrect syntax in expression.)
                        000671          	segdef	bad_expression
    000671  aa   000000 001764          bad_expression:	vfd	36/error_number+1000
    000672  aa   000000 000021          	vfd	36/17
    000673  aa  111 156 143 157         	aci	@Incorrect syntax.@,40
    000674  aa  162 162 145 143
    000675  aa  164 040 163 171
    000676  aa  156 164 141 170
    000677  aa  056 040 040 040
    000700  aa  040 040 040 040
    000701  aa  040 040 040 040
    000702  aa  040 040 040 040
    000703  aa  040 040 040 040
    000704  aa  040 040 040 040
    000705  aa   000000 000037          	vfd	36/31
    000706  aa  111 156 143 157         	aci	@Incorrect syntax in expression.@,108
    000707  aa  162 162 145 143
    000710  aa  164 040 163 171
    000711  aa  156 164 141 170
    000712  aa  040 151 156 040
    000713  aa  145 170 160 162
    000714  aa  145 163 163 151
    000715  aa  157 156 056 040
    000716  aa  040 040 040 040
    000717  aa  040 040 040 040
    000720  aa  040 040 040 040
    000721  aa  040 040 040 040
    000722  aa  040 040 040 040
    000723  aa  040 040 040 040
    000724  aa  040 040 040 040
    000725  aa  040 040 040 040
    000726  aa  040 040 040 040
    000727  aa  040 040 040 040
    000730  aa  040 040 040 040
    000731  aa  040 040 040 040
    000732  aa  040 040 040 040
    000733  aa  040 040 040 040
    000734  aa  040 040 040 040
    000735  aa  040 040 040 040
    000736  aa  040 040 040 040
    000737  aa  040 040 040 040
    000740  aa  040 040 040 040
                        000015          	set	error_number,error_number+1
                                  1-43  ec	bad_format,		" bad format name in display request
                                  1-44  	  (Invalid display format),(Invalid format mode for displaying: ^a)
                        000741          	segdef	bad_format
    000741  aa   000000 001765          bad_format:	vfd	36/error_number+1000
    000742  aa   000000 000026          	vfd	36/22
    000743  aa  111 156 166 141         	aci	@Invalid display format@,40
    000744  aa  154 151 144 040
    000745  aa  144 151 163 160
    000746  aa  154 141 171 040
    000747  aa  146 157 162 155
    000750  aa  141 164 040 040
    000751  aa  040 040 040 040
    000752  aa  040 040 040 040
    000753  aa  040 040 040 040
    000754  aa  040 040 040 040
    000755  aa   000000 000046          	vfd	36/38
    000756  aa  111 156 166 141         	aci	@Invalid format mode for displaying: ^a@,108
    000757  aa  154 151 144 040
    000760  aa  146 157 162 155
    000761  aa  141 164 040 155
    000762  aa  157 144 145 040
    000763  aa  146 157 162 040
    000764  aa  144 151 163 160
    000765  aa  154 141 171 151
    000766  aa  156 147 072 040
    000767  aa  136 141 040 040
    000770  aa  040 040 040 040
    000771  aa  040 040 040 040
    000772  aa  040 040 040 040
    000773  aa  040 040 040 040
    000774  aa  040 040 040 040
    000775  aa  040 040 040 040
    000776  aa  040 040 040 040
    000777  aa  040 040 040 040
    001000  aa  040 040 040 040
    001001  aa  040 040 040 040
    001002  aa  040 040 040 040
    001003  aa  040 040 040 040
    001004  aa  040 040 040 040
    001005  aa  040 040 040 040
    001006  aa  040 040 040 040
    001007  aa  040 040 040 040
    001010  aa  040 040 040 040
                        000016          	set	error_number,error_number+1
                                  1-45  ec	bad_integer,		" probe_get_$integer couldn't
                                  1-46  	  (),(This argument must be an integer.)
                        001011          	segdef	bad_integer
    001011  aa   000000 001766          bad_integer:	vfd	36/error_number+1000
    001012  aa   000000 000000          	vfd	36/0
    001013  aa  040 040 040 040         	aci	@@,40
    001014  aa  040 040 040 040
    001015  aa  040 040 040 040
    001016  aa  040 040 040 040
    001017  aa  040 040 040 040
    001020  aa  040 040 040 040
    001021  aa  040 040 040 040
    001022  aa  040 040 040 040
    001023  aa  040 040 040 040
    001024  aa  040 040 040 040
    001025  aa   000000 000041          	vfd	36/33
    001026  aa  124 150 151 163         	aci	@This argument must be an integer.@,108
    001027  aa  040 141 162 147
    001030  aa  165 155 145 156
    001031  aa  164 040 155 165
    001032  aa  163 164 040 142
    001033  aa  145 040 141 156
    001034  aa  040 151 156 164
    001035  aa  145 147 145 162
    001036  aa  056 040 040 040
    001037  aa  040 040 040 040
    001040  aa  040 040 040 040
    001041  aa  040 040 040 040
    001042  aa  040 040 040 040
    001043  aa  040 040 040 040
    001044  aa  040 040 040 040
    001045  aa  040 040 040 040
    001046  aa  040 040 040 040
    001047  aa  040 040 040 040
    001050  aa  040 040 040 040
    001051  aa  040 040 040 040
    001052  aa  040 040 040 040
    001053  aa  040 040 040 040
    001054  aa  040 040 040 040
    001055  aa  040 040 040 040
    001056  aa  040 040 040 040
    001057  aa  040 040 040 040
    001060  aa  040 040 040 040
                        000017          	set	error_number,error_number+1
                                  1-47  ec	bad_label_frame,		" Goto to statement with no frame
                                  1-48  	  (Procedure not active.),(Procedure containing statement is not active.)
                        001061          	segdef	bad_label_frame
    001061  aa   000000 001767          bad_label_frame:	vfd	36/error_number+1000
    001062  aa   000000 000025          	vfd	36/21
    001063  aa  120 162 157 143         	aci	@Procedure not active.@,40
    001064  aa  145 144 165 162
    001065  aa  145 040 156 157
    001066  aa  164 040 141 143
    001067  aa  164 151 166 145
    001070  aa  056 040 040 040
    001071  aa  040 040 040 040
    001072  aa  040 040 040 040
    001073  aa  040 040 040 040
    001074  aa  040 040 040 040
    001075  aa   000000 000055          	vfd	36/45
    001076  aa  120 162 157 143         	aci	@Procedure containing statement is not active.@,108
    001077  aa  145 144 165 162
    001100  aa  145 040 143 157
    001101  aa  156 164 141 151
    001102  aa  156 151 156 147
    001103  aa  040 163 164 141
    001104  aa  164 145 155 145
    001105  aa  156 164 040 151
    001106  aa  163 040 156 157
    001107  aa  164 040 141 143
    001110  aa  164 151 166 145
    001111  aa  056 040 040 040
    001112  aa  040 040 040 040
    001113  aa  040 040 040 040
    001114  aa  040 040 040 040
    001115  aa  040 040 040 040
    001116  aa  040 040 040 040
    001117  aa  040 040 040 040
    001120  aa  040 040 040 040
    001121  aa  040 040 040 040
    001122  aa  040 040 040 040
    001123  aa  040 040 040 040
    001124  aa  040 040 040 040
    001125  aa  040 040 040 040
    001126  aa  040 040 040 040
    001127  aa  040 040 040 040
    001130  aa  040 040 040 040
                        000020          	set	error_number,error_number+1
                                  1-49  ec	bad_line, 		" Cannot, for some reason, get line of source
                                  1-50  	  (),(Cannot get source line.)
                        001131          	segdef	bad_line
    001131  aa   000000 001770          bad_line:	vfd	36/error_number+1000
    001132  aa   000000 000000          	vfd	36/0
    001133  aa  040 040 040 040         	aci	@@,40
    001134  aa  040 040 040 040
    001135  aa  040 040 040 040
    001136  aa  040 040 040 040
    001137  aa  040 040 040 040
    001140  aa  040 040 040 040
    001141  aa  040 040 040 040
    001142  aa  040 040 040 040
    001143  aa  040 040 040 040
    001144  aa  040 040 040 040
    001145  aa   000000 000027          	vfd	36/23
    001146  aa  103 141 156 156         	aci	@Cannot get source line.@,108
    001147  aa  157 164 040 147
    001150  aa  145 164 040 163
    001151  aa  157 165 162 143
    001152  aa  145 040 154 151
    001153  aa  156 145 056 040
    001154  aa  040 040 040 040
    001155  aa  040 040 040 040
    001156  aa  040 040 040 040
    001157  aa  040 040 040 040
    001160  aa  040 040 040 040
    001161  aa  040 040 040 040
    001162  aa  040 040 040 040
    001163  aa  040 040 040 040
    001164  aa  040 040 040 040
    001165  aa  040 040 040 040
    001166  aa  040 040 040 040
    001167  aa  040 040 040 040
    001170  aa  040 040 040 040
    001171  aa  040 040 040 040
    001172  aa  040 040 040 040
    001173  aa  040 040 040 040
    001174  aa  040 040 040 040
    001175  aa  040 040 040 040
    001176  aa  040 040 040 040
    001177  aa  040 040 040 040
    001200  aa  040 040 040 040
                        000021          	set	error_number,error_number+1
                                  1-51  ec	bad_line_syntax,
                                  1-52  	  (Bad syntax in LINE),(Bad syntax in LINE.  Type "help LINE".)
                        001201          	segdef	bad_line_syntax
    001201  aa   000000 001771          bad_line_syntax:	vfd	36/error_number+1000
    001202  aa   000000 000022          	vfd	36/18
    001203  aa  102 141 144 040         	aci	@Bad syntax in LINE@,40
    001204  aa  163 171 156 164
    001205  aa  141 170 040 151
    001206  aa  156 040 114 111
    001207  aa  116 105 040 040
    001210  aa  040 040 040 040
    001211  aa  040 040 040 040
    001212  aa  040 040 040 040
    001213  aa  040 040 040 040
    001214  aa  040 040 040 040
    001215  aa   000000 000046          	vfd	36/38
    001216  aa  102 141 144 040         	aci	@Bad syntax in LINE.  Type "help LINE".@,108
    001217  aa  163 171 156 164
    001220  aa  141 170 040 151
    001221  aa  156 040 114 111
    001222  aa  116 105 056 040
    001223  aa  040 124 171 160
    001224  aa  145 040 042 150
    001225  aa  145 154 160 040
    001226  aa  114 111 116 105
    001227  aa  042 056 040 040
    001230  aa  040 040 040 040
    001231  aa  040 040 040 040
    001232  aa  040 040 040 040
    001233  aa  040 040 040 040
    001234  aa  040 040 040 040
    001235  aa  040 040 040 040
    001236  aa  040 040 040 040
    001237  aa  040 040 040 040
    001240  aa  040 040 040 040
    001241  aa  040 040 040 040
    001242  aa  040 040 040 040
    001243  aa  040 040 040 040
    001244  aa  040 040 040 040
    001245  aa  040 040 040 040
    001246  aa  040 040 040 040
    001247  aa  040 040 040 040
    001250  aa  040 040 040 040
                        000022          	set	error_number,error_number+1
                                  1-53  ec	bad_location,		" Cannot find location in object segment
                                  1-54  	  (Cannot find location.),(Cannot find location.)
                        001251          	segdef	bad_location
    001251  aa   000000 001772          bad_location:	vfd	36/error_number+1000
    001252  aa   000000 000025          	vfd	36/21
    001253  aa  103 141 156 156         	aci	@Cannot find location.@,40
    001254  aa  157 164 040 146
    001255  aa  151 156 144 040
    001256  aa  154 157 143 141
    001257  aa  164 151 157 156
    001260  aa  056 040 040 040
    001261  aa  040 040 040 040
    001262  aa  040 040 040 040
    001263  aa  040 040 040 040
    001264  aa  040 040 040 040
    001265  aa   000000 000025          	vfd	36/21
    001266  aa  103 141 156 156         	aci	@Cannot find location.@,108
    001267  aa  157 164 040 146
    001270  aa  151 156 144 040
    001271  aa  154 157 143 141
    001272  aa  164 151 157 156
    001273  aa  056 040 040 040
    001274  aa  040 040 040 040
    001275  aa  040 040 040 040
    001276  aa  040 040 040 040
    001277  aa  040 040 040 040
    001300  aa  040 040 040 040
    001301  aa  040 040 040 040
    001302  aa  040 040 040 040
    001303  aa  040 040 040 040
    001304  aa  040 040 040 040
    001305  aa  040 040 040 040
    001306  aa  040 040 040 040
    001307  aa  040 040 040 040
    001310  aa  040 040 040 040
    001311  aa  040 040 040 040
    001312  aa  040 040 040 040
    001313  aa  040 040 040 040
    001314  aa  040 040 040 040
    001315  aa  040 040 040 040
    001316  aa  040 040 040 040
    001317  aa  040 040 040 040
    001320  aa  040 040 040 040
                        000023          	set	error_number,error_number+1
                                  1-55  ec	bad_locator,		" Variable on left of "->" is not ptr or offset
                                  1-56  	  (Bad locator value.),(The variable ^a is not a valid locator.)
                        001321          	segdef	bad_locator
    001321  aa   000000 001773          bad_locator:	vfd	36/error_number+1000
    001322  aa   000000 000022          	vfd	36/18
    001323  aa  102 141 144 040         	aci	@Bad locator value.@,40
    001324  aa  154 157 143 141
    001325  aa  164 157 162 040
    001326  aa  166 141 154 165
    001327  aa  145 056 040 040
    001330  aa  040 040 040 040
    001331  aa  040 040 040 040
    001332  aa  040 040 040 040
    001333  aa  040 040 040 040
    001334  aa  040 040 040 040
    001335  aa   000000 000047          	vfd	36/39
    001336  aa  124 150 145 040         	aci	@The variable ^a is not a valid locator.@,108
    001337  aa  166 141 162 151
    001340  aa  141 142 154 145
    001341  aa  040 136 141 040
    001342  aa  151 163 040 156
    001343  aa  157 164 040 141
    001344  aa  040 166 141 154
    001345  aa  151 144 040 154
    001346  aa  157 143 141 164
    001347  aa  157 162 056 040
    001350  aa  040 040 040 040
    001351  aa  040 040 040 040
    001352  aa  040 040 040 040
    001353  aa  040 040 040 040
    001354  aa  040 040 040 040
    001355  aa  040 040 040 040
    001356  aa  040 040 040 040
    001357  aa  040 040 040 040
    001360  aa  040 040 040 040
    001361  aa  040 040 040 040
    001362  aa  040 040 040 040
    001363  aa  040 040 040 040
    001364  aa  040 040 040 040
    001365  aa  040 040 040 040
    001366  aa  040 040 040 040
    001367  aa  040 040 040 040
    001370  aa  040 040 040 040
                        000024          	set	error_number,error_number+1
                                  1-57  ec	bad_operand,		" Non-arithmetic operand in expression
                                  1-58  	  (Bad operand.),(The operand ^a is not arithmetic.)
                        001371          	segdef	bad_operand
    001371  aa   000000 001774          bad_operand:	vfd	36/error_number+1000
    001372  aa   000000 000014          	vfd	36/12
    001373  aa  102 141 144 040         	aci	@Bad operand.@,40
    001374  aa  157 160 145 162
    001375  aa  141 156 144 056
    001376  aa  040 040 040 040
    001377  aa  040 040 040 040
    001400  aa  040 040 040 040
    001401  aa  040 040 040 040
    001402  aa  040 040 040 040
    001403  aa  040 040 040 040
    001404  aa  040 040 040 040
    001405  aa   000000 000041          	vfd	36/33
    001406  aa  124 150 145 040         	aci	@The operand ^a is not arithmetic.@,108
    001407  aa  157 160 145 162
    001410  aa  141 156 144 040
    001411  aa  136 141 040 151
    001412  aa  163 040 156 157
    001413  aa  164 040 141 162
    001414  aa  151 164 150 155
    001415  aa  145 164 151 143
    001416  aa  056 040 040 040
    001417  aa  040 040 040 040
    001420  aa  040 040 040 040
    001421  aa  040 040 040 040
    001422  aa  040 040 040 040
    001423  aa  040 040 040 040
    001424  aa  040 040 040 040
    001425  aa  040 040 040 040
    001426  aa  040 040 040 040
    001427  aa  040 040 040 040
    001430  aa  040 040 040 040
    001431  aa  040 040 040 040
    001432  aa  040 040 040 040
    001433  aa  040 040 040 040
    001434  aa  040 040 040 040
    001435  aa  040 040 040 040
    001436  aa  040 040 040 040
    001437  aa  040 040 040 040
    001440  aa  040 040 040 040
                        000025          	set	error_number,error_number+1
                                  1-59  ec	bad_operator,		" operator appears where not allowed
                                  1-60  	  (Misplaced operator.),(The operator ^a cannot appear where it was used.)
                        001441          	segdef	bad_operator
    001441  aa   000000 001775          bad_operator:	vfd	36/error_number+1000
    001442  aa   000000 000023          	vfd	36/19
    001443  aa  115 151 163 160         	aci	@Misplaced operator.@,40
    001444  aa  154 141 143 145
    001445  aa  144 040 157 160
    001446  aa  145 162 141 164
    001447  aa  157 162 056 040
    001450  aa  040 040 040 040
    001451  aa  040 040 040 040
    001452  aa  040 040 040 040
    001453  aa  040 040 040 040
    001454  aa  040 040 040 040
    001455  aa   000000 000060          	vfd	36/48
    001456  aa  124 150 145 040         	aci	@The operator ^a cannot appear where it was used.@,108
    001457  aa  157 160 145 162
    001460  aa  141 164 157 162
    001461  aa  040 136 141 040
    001462  aa  143 141 156 156
    001463  aa  157 164 040 141
    001464  aa  160 160 145 141
    001465  aa  162 040 167 150
    001466  aa  145 162 145 040
    001467  aa  151 164 040 167
    001470  aa  141 163 040 165
    001471  aa  163 145 144 056
    001472  aa  040 040 040 040
    001473  aa  040 040 040 040
    001474  aa  040 040 040 040
    001475  aa  040 040 040 040
    001476  aa  040 040 040 040
    001477  aa  040 040 040 040
    001500  aa  040 040 040 040
    001501  aa  040 040 040 040
    001502  aa  040 040 040 040
    001503  aa  040 040 040 040
    001504  aa  040 040 040 040
    001505  aa  040 040 040 040
    001506  aa  040 040 040 040
    001507  aa  040 040 040 040
    001510  aa  040 040 040 040
                        000026          	set	error_number,error_number+1
                                  1-61  ec	bad_pointer,		" Constant used as pointer is not pointer
                                  1-62  	  (Bad locator value.),(The constant is not a pointer.)
                        001511          	segdef	bad_pointer
    001511  aa   000000 001776          bad_pointer:	vfd	36/error_number+1000
    001512  aa   000000 000022          	vfd	36/18
    001513  aa  102 141 144 040         	aci	@Bad locator value.@,40
    001514  aa  154 157 143 141
    001515  aa  164 157 162 040
    001516  aa  166 141 154 165
    001517  aa  145 056 040 040
    001520  aa  040 040 040 040
    001521  aa  040 040 040 040
    001522  aa  040 040 040 040
    001523  aa  040 040 040 040
    001524  aa  040 040 040 040
    001525  aa   000000 000036          	vfd	36/30
    001526  aa  124 150 145 040         	aci	@The constant is not a pointer.@,108
    001527  aa  143 157 156 163
    001530  aa  164 141 156 164
    001531  aa  040 151 163 040
    001532  aa  156 157 164 040
    001533  aa  141 040 160 157
    001534  aa  151 156 164 145
    001535  aa  162 056 040 040
    001536  aa  040 040 040 040
    001537  aa  040 040 040 040
    001540  aa  040 040 040 040
    001541  aa  040 040 040 040
    001542  aa  040 040 040 040
    001543  aa  040 040 040 040
    001544  aa  040 040 040 040
    001545  aa  040 040 040 040
    001546  aa  040 040 040 040
    001547  aa  040 040 040 040
    001550  aa  040 040 040 040
    001551  aa  040 040 040 040
    001552  aa  040 040 040 040
    001553  aa  040 040 040 040
    001554  aa  040 040 040 040
    001555  aa  040 040 040 040
    001556  aa  040 040 040 040
    001557  aa  040 040 040 040
    001560  aa  040 040 040 040
                        000027          	set	error_number,error_number+1
                                  1-63  ec	bad_predicate,		" Syntax error in if or while predicate
                                  1-64  	  (Incorrect predicate.),(Incorrect predicate.)
                        001561          	segdef	bad_predicate
    001561  aa   000000 001777          bad_predicate:	vfd	36/error_number+1000
    001562  aa   000000 000024          	vfd	36/20
    001563  aa  111 156 143 157         	aci	@Incorrect predicate.@,40
    001564  aa  162 162 145 143
    001565  aa  164 040 160 162
    001566  aa  145 144 151 143
    001567  aa  141 164 145 056
    001570  aa  040 040 040 040
    001571  aa  040 040 040 040
    001572  aa  040 040 040 040
    001573  aa  040 040 040 040
    001574  aa  040 040 040 040
    001575  aa   000000 000024          	vfd	36/20
    001576  aa  111 156 143 157         	aci	@Incorrect predicate.@,108
    001577  aa  162 162 145 143
    001600  aa  164 040 160 162
    001601  aa  145 144 151 143
    001602  aa  141 164 145 056
    001603  aa  040 040 040 040
    001604  aa  040 040 040 040
    001605  aa  040 040 040 040
    001606  aa  040 040 040 040
    001607  aa  040 040 040 040
    001610  aa  040 040 040 040
    001611  aa  040 040 040 040
    001612  aa  040 040 040 040
    001613  aa  040 040 040 040
    001614  aa  040 040 040 040
    001615  aa  040 040 040 040
    001616  aa  040 040 040 040
    001617  aa  040 040 040 040
    001620  aa  040 040 040 040
    001621  aa  040 040 040 040
    001622  aa  040 040 040 040
    001623  aa  040 040 040 040
    001624  aa  040 040 040 040
    001625  aa  040 040 040 040
    001626  aa  040 040 040 040
    001627  aa  040 040 040 040
    001630  aa  040 040 040 040
                        000030          	set	error_number,error_number+1
                                  1-65  ec	bad_return_val,		" Function returns value with "*" extent
                                  1-66  	  (),(Restriction: return (*) values not supported.)
                        001631          	segdef	bad_return_val
    001631  aa   000000 002000          bad_return_val:	vfd	36/error_number+1000
    001632  aa   000000 000000          	vfd	36/0
    001633  aa  040 040 040 040         	aci	@@,40
    001634  aa  040 040 040 040
    001635  aa  040 040 040 040
    001636  aa  040 040 040 040
    001637  aa  040 040 040 040
    001640  aa  040 040 040 040
    001641  aa  040 040 040 040
    001642  aa  040 040 040 040
    001643  aa  040 040 040 040
    001644  aa  040 040 040 040
    001645  aa   000000 000055          	vfd	36/45
    001646  aa  122 145 163 164         	aci	@Restriction: return (*) values not supported.@,108
    001647  aa  162 151 143 164
    001650  aa  151 157 156 072
    001651  aa  040 162 145 164
    001652  aa  165 162 156 040
    001653  aa  050 052 051 040
    001654  aa  166 141 154 165
    001655  aa  145 163 040 156
    001656  aa  157 164 040 163
    001657  aa  165 160 160 157
    001660  aa  162 164 145 144
    001661  aa  056 040 040 040
    001662  aa  040 040 040 040
    001663  aa  040 040 040 040
    001664  aa  040 040 040 040
    001665  aa  040 040 040 040
    001666  aa  040 040 040 040
    001667  aa  040 040 040 040
    001670  aa  040 040 040 040
    001671  aa  040 040 040 040
    001672  aa  040 040 040 040
    001673  aa  040 040 040 040
    001674  aa  040 040 040 040
    001675  aa  040 040 040 040
    001676  aa  040 040 040 040
    001677  aa  040 040 040 040
    001700  aa  040 040 040 040
                        000031          	set	error_number,error_number+1
                                  1-67  ec	bad_section,		" Incorrect use of an array cross-section
                                  1-68  	  (Cross-section not allowed."),(n array cross-section is not allowed in this context.)
                        001701          	segdef	bad_section
    001701  aa   000000 002001          bad_section:	vfd	36/error_number+1000
    001702  aa   000000 000033          	vfd	36/27
    001703  aa  103 162 157 163         	aci	@Cross-section not allowed."@,40
    001704  aa  163 055 163 145
    001705  aa  143 164 151 157
    001706  aa  156 040 156 157
    001707  aa  164 040 141 154
    001710  aa  154 157 167 145
    001711  aa  144 056 042 040
    001712  aa  040 040 040 040
    001713  aa  040 040 040 040
    001714  aa  040 040 040 040
    001715  aa   000000 000065          	vfd	36/53
    001716  aa  156 040 141 162         	aci	@n array cross-section is not allowed in this context.@,108
    001717  aa  162 141 171 040
    001720  aa  143 162 157 163
    001721  aa  163 055 163 145
    001722  aa  143 164 151 157
    001723  aa  156 040 151 163
    001724  aa  040 156 157 164
    001725  aa  040 141 154 154
    001726  aa  157 167 145 144
    001727  aa  040 151 156 040
    001730  aa  164 150 151 163
    001731  aa  040 143 157 156
    001732  aa  164 145 170 164
    001733  aa  056 040 040 040
    001734  aa  040 040 040 040
    001735  aa  040 040 040 040
    001736  aa  040 040 040 040
    001737  aa  040 040 040 040
    001740  aa  040 040 040 040
    001741  aa  040 040 040 040
    001742  aa  040 040 040 040
    001743  aa  040 040 040 040
    001744  aa  040 040 040 040
    001745  aa  040 040 040 040
    001746  aa  040 040 040 040
    001747  aa  040 040 040 040
    001750  aa  040 040 040 040
                        000032          	set	error_number,error_number+1
                                  1-69  ec	bad_subscript,		" Non-arithmetic subscript
                                  1-70  	  (Bad subscript.),(The subscript ^a cannot be converted to arithmetic.)
                        001751          	segdef	bad_subscript
    001751  aa   000000 002002          bad_subscript:	vfd	36/error_number+1000
    001752  aa   000000 000016          	vfd	36/14
    001753  aa  102 141 144 040         	aci	@Bad subscript.@,40
    001754  aa  163 165 142 163
    001755  aa  143 162 151 160
    001756  aa  164 056 040 040
    001757  aa  040 040 040 040
    001760  aa  040 040 040 040
    001761  aa  040 040 040 040
    001762  aa  040 040 040 040
    001763  aa  040 040 040 040
    001764  aa  040 040 040 040
    001765  aa   000000 000063          	vfd	36/51
    001766  aa  124 150 145 040         	aci	@The subscript ^a cannot be converted to arithmetic.@,108
    001767  aa  163 165 142 163
    001770  aa  143 162 151 160
    001771  aa  164 040 136 141
    001772  aa  040 143 141 156
    001773  aa  156 157 164 040
    001774  aa  142 145 040 143
    001775  aa  157 156 166 145
    001776  aa  162 164 145 144
    001777  aa  040 164 157 040
    002000  aa  141 162 151 164
    002001  aa  150 155 145 164
    002002  aa  151 143 056 040
    002003  aa  040 040 040 040
    002004  aa  040 040 040 040
    002005  aa  040 040 040 040
    002006  aa  040 040 040 040
    002007  aa  040 040 040 040
    002010  aa  040 040 040 040
    002011  aa  040 040 040 040
    002012  aa  040 040 040 040
    002013  aa  040 040 040 040
    002014  aa  040 040 040 040
    002015  aa  040 040 040 040
    002016  aa  040 040 040 040
    002017  aa  040 040 040 040
    002020  aa  040 040 040 040
                        000033          	set	error_number,error_number+1
                                  1-71  ec	bad_symbol,		" Syntax error in symbol referenceterest is bound in
                                  1-72  	  (Incorrect syntax.),(Incorrect syntax in symbol.)
                        002021          	segdef	bad_symbol
    002021  aa   000000 002003          bad_symbol:	vfd	36/error_number+1000
    002022  aa   000000 000021          	vfd	36/17
    002023  aa  111 156 143 157         	aci	@Incorrect syntax.@,40
    002024  aa  162 162 145 143
    002025  aa  164 040 163 171
    002026  aa  156 164 141 170
    002027  aa  056 040 040 040
    002030  aa  040 040 040 040
    002031  aa  040 040 040 040
    002032  aa  040 040 040 040
    002033  aa  040 040 040 040
    002034  aa  040 040 040 040
    002035  aa   000000 000033          	vfd	36/27
    002036  aa  111 156 143 157         	aci	@Incorrect syntax in symbol.@,108
    002037  aa  162 162 145 143
    002040  aa  164 040 163 171
    002041  aa  156 164 141 170
    002042  aa  040 151 156 040
    002043  aa  163 171 155 142
    002044  aa  157 154 056 040
    002045  aa  040 040 040 040
    002046  aa  040 040 040 040
    002047  aa  040 040 040 040
    002050  aa  040 040 040 040
    002051  aa  040 040 040 040
    002052  aa  040 040 040 040
    002053  aa  040 040 040 040
    002054  aa  040 040 040 040
    002055  aa  040 040 040 040
    002056  aa  040 040 040 040
    002057  aa  040 040 040 040
    002060  aa  040 040 040 040
    002061  aa  040 040 040 040
    002062  aa  040 040 040 040
    002063  aa  040 040 040 040
    002064  aa  040 040 040 040
    002065  aa  040 040 040 040
    002066  aa  040 040 040 040
    002067  aa  040 040 040 040
    002070  aa  040 040 040 040
                        000034          	set	error_number,error_number+1
                                  1-73  ec	bad_type, 		" Types for comparison are not compatible
                                  1-74  	  (Incompatible types for comparison.),(The types of ^a and ^a are not compatible for comparison.)
                        002071          	segdef	bad_type
    002071  aa   000000 002004          bad_type:	vfd	36/error_number+1000
    002072  aa   000000 000042          	vfd	36/34
    002073  aa  111 156 143 157         	aci	@Incompatible types for comparison.@,40
    002074  aa  155 160 141 164
    002075  aa  151 142 154 145
    002076  aa  040 164 171 160
    002077  aa  145 163 040 146
    002100  aa  157 162 040 143
    002101  aa  157 155 160 141
    002102  aa  162 151 163 157
    002103  aa  156 056 040 040
    002104  aa  040 040 040 040
    002105  aa   000000 000071          	vfd	36/57
    002106  aa  124 150 145 040         	aci	@The types of ^a and ^a are not compatible for comparison.@,108
    002107  aa  164 171 160 145
    002110  aa  163 040 157 146
    002111  aa  040 136 141 040
    002112  aa  141 156 144 040
    002113  aa  136 141 040 141
    002114  aa  162 145 040 156
    002115  aa  157 164 040 143
    002116  aa  157 155 160 141
    002117  aa  164 151 142 154
    002120  aa  145 040 146 157
    002121  aa  162 040 143 157
    002122  aa  155 160 141 162
    002123  aa  151 163 157 156
    002124  aa  056 040 040 040
    002125  aa  040 040 040 040
    002126  aa  040 040 040 040
    002127  aa  040 040 040 040
    002130  aa  040 040 040 040
    002131  aa  040 040 040 040
    002132  aa  040 040 040 040
    002133  aa  040 040 040 040
    002134  aa  040 040 040 040
    002135  aa  040 040 040 040
    002136  aa  040 040 040 040
    002137  aa  040 040 040 040
    002140  aa  040 040 040 040
                        000035          	set	error_number,error_number+1
                                  1-75  ec	bad_value,		" Cannot find variable length or precision
                                  1-76  	  (Bad length or precision.),(Bad value for the length or precision of ^a.)
                        002141          	segdef	bad_value
    002141  aa   000000 002005          bad_value:	vfd	36/error_number+1000
    002142  aa   000000 000030          	vfd	36/24
    002143  aa  102 141 144 040         	aci	@Bad length or precision.@,40
    002144  aa  154 145 156 147
    002145  aa  164 150 040 157
    002146  aa  162 040 160 162
    002147  aa  145 143 151 163
    002150  aa  151 157 156 056
    002151  aa  040 040 040 040
    002152  aa  040 040 040 040
    002153  aa  040 040 040 040
    002154  aa  040 040 040 040
    002155  aa   000000 000054          	vfd	36/44
    002156  aa  102 141 144 040         	aci	@Bad value for the length or precision of ^a.@,108
    002157  aa  166 141 154 165
    002160  aa  145 040 146 157
    002161  aa  162 040 164 150
    002162  aa  145 040 154 145
    002163  aa  156 147 164 150
    002164  aa  040 157 162 040
    002165  aa  160 162 145 143
    002166  aa  151 163 151 157
    002167  aa  156 040 157 146
    002170  aa  040 136 141 056
    002171  aa  040 040 040 040
    002172  aa  040 040 040 040
    002173  aa  040 040 040 040
    002174  aa  040 040 040 040
    002175  aa  040 040 040 040
    002176  aa  040 040 040 040
    002177  aa  040 040 040 040
    002200  aa  040 040 040 040
    002201  aa  040 040 040 040
    002202  aa  040 040 040 040
    002203  aa  040 040 040 040
    002204  aa  040 040 040 040
    002205  aa  040 040 040 040
    002206  aa  040 040 040 040
    002207  aa  040 040 040 040
    002210  aa  040 040 040 040
                        000036          	set	error_number,error_number+1
                                  1-77  ec	bad_value_format,		" Bad type format in value (raw form), request
                                  1-78  	  (Bad format.),(Bad data format '^a' in value request.)
                        002211          	segdef	bad_value_format
    002211  aa   000000 002006          bad_value_format:	vfd	36/error_number+1000
    002212  aa   000000 000013          	vfd	36/11
    002213  aa  102 141 144 040         	aci	@Bad format.@,40
    002214  aa  146 157 162 155
    002215  aa  141 164 056 040
    002216  aa  040 040 040 040
    002217  aa  040 040 040 040
    002220  aa  040 040 040 040
    002221  aa  040 040 040 040
    002222  aa  040 040 040 040
    002223  aa  040 040 040 040
    002224  aa  040 040 040 040
    002225  aa   000000 000046          	vfd	36/38
    002226  aa  102 141 144 040         	aci	@Bad data format '^a' in value request.@,108
    002227  aa  144 141 164 141
    002230  aa  040 146 157 162
    002231  aa  155 141 164 040
    002232  aa  047 136 141 047
    002233  aa  040 151 156 040
    002234  aa  166 141 154 165
    002235  aa  145 040 162 145
    002236  aa  161 165 145 163
    002237  aa  164 056 040 040
    002240  aa  040 040 040 040
    002241  aa  040 040 040 040
    002242  aa  040 040 040 040
    002243  aa  040 040 040 040
    002244  aa  040 040 040 040
    002245  aa  040 040 040 040
    002246  aa  040 040 040 040
    002247  aa  040 040 040 040
    002250  aa  040 040 040 040
    002251  aa  040 040 040 040
    002252  aa  040 040 040 040
    002253  aa  040 040 040 040
    002254  aa  040 040 040 040
    002255  aa  040 040 040 040
    002256  aa  040 040 040 040
    002257  aa  040 040 040 040
    002260  aa  040 040 040 040
                        000037          	set	error_number,error_number+1
                                  1-79  ec	bad_varying,		" Bad varying string
                                  1-80  	  (Bad data.),(Varying string ^a has length < 0 or > declared maximum.)
                        002261          	segdef	bad_varying
    002261  aa   000000 002007          bad_varying:	vfd	36/error_number+1000
    002262  aa   000000 000011          	vfd	36/9
    002263  aa  102 141 144 040         	aci	@Bad data.@,40
    002264  aa  144 141 164 141
    002265  aa  056 040 040 040
    002266  aa  040 040 040 040
    002267  aa  040 040 040 040
    002270  aa  040 040 040 040
    002271  aa  040 040 040 040
    002272  aa  040 040 040 040
    002273  aa  040 040 040 040
    002274  aa  040 040 040 040
    002275  aa   000000 000067          	vfd	36/55
    002276  aa  126 141 162 171         	aci	@Varying string ^a has length < 0 or > declared maximum.@,108
    002277  aa  151 156 147 040
    002300  aa  163 164 162 151
    002301  aa  156 147 040 136
    002302  aa  141 040 150 141
    002303  aa  163 040 154 145
    002304  aa  156 147 164 150
    002305  aa  040 074 040 060
    002306  aa  040 157 162 040
    002307  aa  076 040 144 145
    002310  aa  143 154 141 162
    002311  aa  145 144 040 155
    002312  aa  141 170 151 155
    002313  aa  165 155 056 040
    002314  aa  040 040 040 040
    002315  aa  040 040 040 040
    002316  aa  040 040 040 040
    002317  aa  040 040 040 040
    002320  aa  040 040 040 040
    002321  aa  040 040 040 040
    002322  aa  040 040 040 040
    002323  aa  040 040 040 040
    002324  aa  040 040 040 040
    002325  aa  040 040 040 040
    002326  aa  040 040 040 040
    002327  aa  040 040 040 040
    002330  aa  040 040 040 040
                        000040          	set	error_number,error_number+1
                                  1-81  ec	breakless,		" No break set at or about a given line
                                  1-82  	  (No break.),(No break set ^a ^a)
                        002331          	segdef	breakless
    002331  aa   000000 002010          breakless:	vfd	36/error_number+1000
    002332  aa   000000 000011          	vfd	36/9
    002333  aa  116 157 040 142         	aci	@No break.@,40
    002334  aa  162 145 141 153
    002335  aa  056 040 040 040
    002336  aa  040 040 040 040
    002337  aa  040 040 040 040
    002340  aa  040 040 040 040
    002341  aa  040 040 040 040
    002342  aa  040 040 040 040
    002343  aa  040 040 040 040
    002344  aa  040 040 040 040
    002345  aa   000000 000022          	vfd	36/18
    002346  aa  116 157 040 142         	aci	@No break set ^a ^a@,108
    002347  aa  162 145 141 153
    002350  aa  040 163 145 164
    002351  aa  040 136 141 040
    002352  aa  136 141 040 040
    002353  aa  040 040 040 040
    002354  aa  040 040 040 040
    002355  aa  040 040 040 040
    002356  aa  040 040 040 040
    002357  aa  040 040 040 040
    002360  aa  040 040 040 040
    002361  aa  040 040 040 040
    002362  aa  040 040 040 040
    002363  aa  040 040 040 040
    002364  aa  040 040 040 040
    002365  aa  040 040 040 040
    002366  aa  040 040 040 040
    002367  aa  040 040 040 040
    002370  aa  040 040 040 040
    002371  aa  040 040 040 040
    002372  aa  040 040 040 040
    002373  aa  040 040 040 040
    002374  aa  040 040 040 040
    002375  aa  040 040 040 040
    002376  aa  040 040 040 040
    002377  aa  040 040 040 040
    002400  aa  040 040 040 040
                        000041          	set	error_number,error_number+1
                                  1-83  ec	breaks_exist,		" Breaks set in segment by debug
                                  1-84  	  (Debug break map.),(Segment ^a has a break map created by debug.)
                        002401          	segdef	breaks_exist
    002401  aa   000000 002011          breaks_exist:	vfd	36/error_number+1000
    002402  aa   000000 000020          	vfd	36/16
    002403  aa  104 145 142 165         	aci	@Debug break map.@,40
    002404  aa  147 040 142 162
    002405  aa  145 141 153 040
    002406  aa  155 141 160 056
    002407  aa  040 040 040 040
    002410  aa  040 040 040 040
    002411  aa  040 040 040 040
    002412  aa  040 040 040 040
    002413  aa  040 040 040 040
    002414  aa  040 040 040 040
    002415  aa   000000 000054          	vfd	36/44
    002416  aa  123 145 147 155         	aci	@Segment ^a has a break map created by debug.@,108
    002417  aa  145 156 164 040
    002420  aa  136 141 040 150
    002421  aa  141 163 040 141
    002422  aa  040 142 162 145
    002423  aa  141 153 040 155
    002424  aa  141 160 040 143
    002425  aa  162 145 141 164
    002426  aa  145 144 040 142
    002427  aa  171 040 144 145
    002430  aa  142 165 147 056
    002431  aa  040 040 040 040
    002432  aa  040 040 040 040
    002433  aa  040 040 040 040
    002434  aa  040 040 040 040
    002435  aa  040 040 040 040
    002436  aa  040 040 040 040
    002437  aa  040 040 040 040
    002440  aa  040 040 040 040
    002441  aa  040 040 040 040
    002442  aa  040 040 040 040
    002443  aa  040 040 040 040
    002444  aa  040 040 040 040
    002445  aa  040 040 040 040
    002446  aa  040 040 040 040
    002447  aa  040 040 040 040
    002450  aa  040 040 040 040
                        000042          	set	error_number,error_number+1
                                  1-85  ec	c_string_assign,              " Assigning a string in C
                                  1-86  	  (Bad assignment.),(A character array cannot be assigned a string value.)
                        002451          	segdef	c_string_assign
    002451  aa   000000 002012          c_string_assign:	vfd	36/error_number+1000
    002452  aa   000000 000017          	vfd	36/15
    002453  aa  102 141 144 040         	aci	@Bad assignment.@,40
    002454  aa  141 163 163 151
    002455  aa  147 156 155 145
    002456  aa  156 164 056 040
    002457  aa  040 040 040 040
    002460  aa  040 040 040 040
    002461  aa  040 040 040 040
    002462  aa  040 040 040 040
    002463  aa  040 040 040 040
    002464  aa  040 040 040 040
    002465  aa   000000 000064          	vfd	36/52
    002466  aa  101 040 143 150         	aci	@A character array cannot be assigned a string value.@,108
    002467  aa  141 162 141 143
    002470  aa  164 145 162 040
    002471  aa  141 162 162 141
    002472  aa  171 040 143 141
    002473  aa  156 156 157 164
    002474  aa  040 142 145 040
    002475  aa  141 163 163 151
    002476  aa  147 156 145 144
    002477  aa  040 141 040 163
    002500  aa  164 162 151 156
    002501  aa  147 040 166 141
    002502  aa  154 165 145 056
    002503  aa  040 040 040 040
    002504  aa  040 040 040 040
    002505  aa  040 040 040 040
    002506  aa  040 040 040 040
    002507  aa  040 040 040 040
    002510  aa  040 040 040 040
    002511  aa  040 040 040 040
    002512  aa  040 040 040 040
    002513  aa  040 040 040 040
    002514  aa  040 040 040 040
    002515  aa  040 040 040 040
    002516  aa  040 040 040 040
    002517  aa  040 040 040 040
    002520  aa  040 040 040 040
                        000043          	set	error_number,error_number+1
                                  1-87  ec	cannot_set,		" On instruction with *ic modifier
                                  1-88  	  (Cannot set break.),(Cannot set break.)
                        002521          	segdef	cannot_set
    002521  aa   000000 002013          cannot_set:	vfd	36/error_number+1000
    002522  aa   000000 000021          	vfd	36/17
    002523  aa  103 141 156 156         	aci	@Cannot set break.@,40
    002524  aa  157 164 040 163
    002525  aa  145 164 040 142
    002526  aa  162 145 141 153
    002527  aa  056 040 040 040
    002530  aa  040 040 040 040
    002531  aa  040 040 040 040
    002532  aa  040 040 040 040
    002533  aa  040 040 040 040
    002534  aa  040 040 040 040
    002535  aa   000000 000021          	vfd	36/17
    002536  aa  103 141 156 156         	aci	@Cannot set break.@,108
    002537  aa  157 164 040 163
    002540  aa  145 164 040 142
    002541  aa  162 145 141 153
    002542  aa  056 040 040 040
    002543  aa  040 040 040 040
    002544  aa  040 040 040 040
    002545  aa  040 040 040 040
    002546  aa  040 040 040 040
    002547  aa  040 040 040 040
    002550  aa  040 040 040 040
    002551  aa  040 040 040 040
    002552  aa  040 040 040 040
    002553  aa  040 040 040 040
    002554  aa  040 040 040 040
    002555  aa  040 040 040 040
    002556  aa  040 040 040 040
    002557  aa  040 040 040 040
    002560  aa  040 040 040 040
    002561  aa  040 040 040 040
    002562  aa  040 040 040 040
    002563  aa  040 040 040 040
    002564  aa  040 040 040 040
    002565  aa  040 040 040 040
    002566  aa  040 040 040 040
    002567  aa  040 040 040 040
    002570  aa  040 040 040 040
                        000044          	set	error_number,error_number+1
                                  1-89  ec	complex_expr,		" Uses too much temp storage
                                  1-90  	  (),(Restriction: this expression is too complicated)
                        002571          	segdef	complex_expr
    002571  aa   000000 002014          complex_expr:	vfd	36/error_number+1000
    002572  aa   000000 000000          	vfd	36/0
    002573  aa  040 040 040 040         	aci	@@,40
    002574  aa  040 040 040 040
    002575  aa  040 040 040 040
    002576  aa  040 040 040 040
    002577  aa  040 040 040 040
    002600  aa  040 040 040 040
    002601  aa  040 040 040 040
    002602  aa  040 040 040 040
    002603  aa  040 040 040 040
    002604  aa  040 040 040 040
    002605  aa   000000 000057          	vfd	36/47
    002606  aa  122 145 163 164         	aci	@Restriction: this expression is too complicated@,108
    002607  aa  162 151 143 164
    002610  aa  151 157 156 072
    002611  aa  040 164 150 151
    002612  aa  163 040 145 170
    002613  aa  160 162 145 163
    002614  aa  163 151 157 156
    002615  aa  040 151 163 040
    002616  aa  164 157 157 040
    002617  aa  143 157 155 160
    002620  aa  154 151 143 141
    002621  aa  164 145 144 040
    002622  aa  040 040 040 040
    002623  aa  040 040 040 040
    002624  aa  040 040 040 040
    002625  aa  040 040 040 040
    002626  aa  040 040 040 040
    002627  aa  040 040 040 040
    002630  aa  040 040 040 040
    002631  aa  040 040 040 040
    002632  aa  040 040 040 040
    002633  aa  040 040 040 040
    002634  aa  040 040 040 040
    002635  aa  040 040 040 040
    002636  aa  040 040 040 040
    002637  aa  040 040 040 040
    002640  aa  040 040 040 040
                        000045          	set	error_number,error_number+1
                                  1-91  ec	constant_target,		" Constant used as target of assignment
                                  1-92  	  (Constant target.),(A constant cannot be the target of an assignment.)
                        002641          	segdef	constant_target
    002641  aa   000000 002015          constant_target:	vfd	36/error_number+1000
    002642  aa   000000 000020          	vfd	36/16
    002643  aa  103 157 156 163         	aci	@Constant target.@,40
    002644  aa  164 141 156 164
    002645  aa  040 164 141 162
    002646  aa  147 145 164 056
    002647  aa  040 040 040 040
    002650  aa  040 040 040 040
    002651  aa  040 040 040 040
    002652  aa  040 040 040 040
    002653  aa  040 040 040 040
    002654  aa  040 040 040 040
    002655  aa   000000 000061          	vfd	36/49
    002656  aa  101 040 143 157         	aci	@A constant cannot be the target of an assignment.@,108
    002657  aa  156 163 164 141
    002660  aa  156 164 040 143
    002661  aa  141 156 156 157
    002662  aa  164 040 142 145
    002663  aa  040 164 150 145
    002664  aa  040 164 141 162
    002665  aa  147 145 164 040
    002666  aa  157 146 040 141
    002667  aa  156 040 141 163
    002670  aa  163 151 147 156
    002671  aa  155 145 156 164
    002672  aa  056 040 040 040
    002673  aa  040 040 040 040
    002674  aa  040 040 040 040
    002675  aa  040 040 040 040
    002676  aa  040 040 040 040
    002677  aa  040 040 040 040
    002700  aa  040 040 040 040
    002701  aa  040 040 040 040
    002702  aa  040 040 040 040
    002703  aa  040 040 040 040
    002704  aa  040 040 040 040
    002705  aa  040 040 040 040
    002706  aa  040 040 040 040
    002707  aa  040 040 040 040
    002710  aa  040 040 040 040
                        000046          	set	error_number,error_number+1
                                  1-93  ec	convert_err,		" Illegal operand, conversion at top level
                                  1-94  	  (),(Conversion error.)
                        002711          	segdef	convert_err
    002711  aa   000000 002016          convert_err:	vfd	36/error_number+1000
    002712  aa   000000 000000          	vfd	36/0
    002713  aa  040 040 040 040         	aci	@@,40
    002714  aa  040 040 040 040
    002715  aa  040 040 040 040
    002716  aa  040 040 040 040
    002717  aa  040 040 040 040
    002720  aa  040 040 040 040
    002721  aa  040 040 040 040
    002722  aa  040 040 040 040
    002723  aa  040 040 040 040
    002724  aa  040 040 040 040
    002725  aa   000000 000021          	vfd	36/17
    002726  aa  103 157 156 166         	aci	@Conversion error.@,108
    002727  aa  145 162 163 151
    002730  aa  157 156 040 145
    002731  aa  162 162 157 162
    002732  aa  056 040 040 040
    002733  aa  040 040 040 040
    002734  aa  040 040 040 040
    002735  aa  040 040 040 040
    002736  aa  040 040 040 040
    002737  aa  040 040 040 040
    002740  aa  040 040 040 040
    002741  aa  040 040 040 040
    002742  aa  040 040 040 040
    002743  aa  040 040 040 040
    002744  aa  040 040 040 040
    002745  aa  040 040 040 040
    002746  aa  040 040 040 040
    002747  aa  040 040 040 040
    002750  aa  040 040 040 040
    002751  aa  040 040 040 040
    002752  aa  040 040 040 040
    002753  aa  040 040 040 040
    002754  aa  040 040 040 040
    002755  aa  040 040 040 040
    002756  aa  040 040 040 040
    002757  aa  040 040 040 040
    002760  aa  040 040 040 040
                        000047          	set	error_number,error_number+1
                                  1-95  ec	dim_limit,		" No more than 16 dims or subr args
                                  1-96  	  (),(Restriction: no more than 16 array subscripts or subroutine args.)
                        002761          	segdef	dim_limit
    002761  aa   000000 002017          dim_limit:	vfd	36/error_number+1000
    002762  aa   000000 000000          	vfd	36/0
    002763  aa  040 040 040 040         	aci	@@,40
    002764  aa  040 040 040 040
    002765  aa  040 040 040 040
    002766  aa  040 040 040 040
    002767  aa  040 040 040 040
    002770  aa  040 040 040 040
    002771  aa  040 040 040 040
    002772  aa  040 040 040 040
    002773  aa  040 040 040 040
    002774  aa  040 040 040 040
    002775  aa   000000 000101          	vfd	36/65
    002776  aa  122 145 163 164         	aci	@Restriction: no more than 16 array subscripts or subroutine args.@,108
    002777  aa  162 151 143 164
    003000  aa  151 157 156 072
    003001  aa  040 156 157 040
    003002  aa  155 157 162 145
    003003  aa  040 164 150 141
    003004  aa  156 040 061 066
    003005  aa  040 141 162 162
    003006  aa  141 171 040 163
    003007  aa  165 142 163 143
    003010  aa  162 151 160 164
    003011  aa  163 040 157 162
    003012  aa  040 163 165 142
    003013  aa  162 157 165 164
    003014  aa  151 156 145 040
    003015  aa  141 162 147 163
    003016  aa  056 040 040 040
    003017  aa  040 040 040 040
    003020  aa  040 040 040 040
    003021  aa  040 040 040 040
    003022  aa  040 040 040 040
    003023  aa  040 040 040 040
    003024  aa  040 040 040 040
    003025  aa  040 040 040 040
    003026  aa  040 040 040 040
    003027  aa  040 040 040 040
    003030  aa  040 040 040 040
                        000050          	set	error_number,error_number+1
                                  1-97  ec	e_syntax_err,		" Bad "e" request syntax.
                                  1-98  	  (Syntax error.),(The Multics command lines must be enclosed in quotes.)
                        003031          	segdef	e_syntax_err
    003031  aa   000000 002020          e_syntax_err:	vfd	36/error_number+1000
    003032  aa   000000 000015          	vfd	36/13
    003033  aa  123 171 156 164         	aci	@Syntax error.@,40
    003034  aa  141 170 040 145
    003035  aa  162 162 157 162
    003036  aa  056 040 040 040
    003037  aa  040 040 040 040
    003040  aa  040 040 040 040
    003041  aa  040 040 040 040
    003042  aa  040 040 040 040
    003043  aa  040 040 040 040
    003044  aa  040 040 040 040
    003045  aa   000000 000065          	vfd	36/53
    003046  aa  124 150 145 040         	aci	@The Multics command lines must be enclosed in quotes.@,108
    003047  aa  115 165 154 164
    003050  aa  151 143 163 040
    003051  aa  143 157 155 155
    003052  aa  141 156 144 040
    003053  aa  154 151 156 145
    003054  aa  163 040 155 165
    003055  aa  163 164 040 142
    003056  aa  145 040 145 156
    003057  aa  143 154 157 163
    003060  aa  145 144 040 151
    003061  aa  156 040 161 165
    003062  aa  157 164 145 163
    003063  aa  056 040 040 040
    003064  aa  040 040 040 040
    003065  aa  040 040 040 040
    003066  aa  040 040 040 040
    003067  aa  040 040 040 040
    003070  aa  040 040 040 040
    003071  aa  040 040 040 040
    003072  aa  040 040 040 040
    003073  aa  040 040 040 040
    003074  aa  040 040 040 040
    003075  aa  040 040 040 040
    003076  aa  040 040 040 040
    003077  aa  040 040 040 040
    003100  aa  040 040 040 040
                        000051          	set	error_number,error_number+1
                                  1-99  ec	error_in_break,		" break request list failed
                                 1-100  	  (),(The break request list encountered an error, and has been aborted.)
                        003101          	segdef	error_in_break
    003101  aa   000000 002021          error_in_break:	vfd	36/error_number+1000
    003102  aa   000000 000000          	vfd	36/0
    003103  aa  040 040 040 040         	aci	@@,40
    003104  aa  040 040 040 040
    003105  aa  040 040 040 040
    003106  aa  040 040 040 040
    003107  aa  040 040 040 040
    003110  aa  040 040 040 040
    003111  aa  040 040 040 040
    003112  aa  040 040 040 040
    003113  aa  040 040 040 040
    003114  aa  040 040 040 040
    003115  aa   000000 000102          	vfd	36/66
    003116  aa  124 150 145 040         	aci	@The break request list encountered an error, and has been aborted.@,108
    003117  aa  142 162 145 141
    003120  aa  153 040 162 145
    003121  aa  161 165 145 163
    003122  aa  164 040 154 151
    003123  aa  163 164 040 145
    003124  aa  156 143 157 165
    003125  aa  156 164 145 162
    003126  aa  145 144 040 141
    003127  aa  156 040 145 162
    003130  aa  162 157 162 054
    003131  aa  040 141 156 144
    003132  aa  040 150 141 163
    003133  aa  040 142 145 145
    003134  aa  156 040 141 142
    003135  aa  157 162 164 145
    003136  aa  144 056 040 040
    003137  aa  040 040 040 040
    003140  aa  040 040 040 040
    003141  aa  040 040 040 040
    003142  aa  040 040 040 040
    003143  aa  040 040 040 040
    003144  aa  040 040 040 040
    003145  aa  040 040 040 040
    003146  aa  040 040 040 040
    003147  aa  040 040 040 040
    003150  aa  040 040 040 040
                        000052          	set	error_number,error_number+1
                                 1-101  ec	file_modified,		" Source file was changed after compilation
                                 1-102  	  (File modified.),(The file ^a may have been modified since compilation.)
                        003151          	segdef	file_modified
    003151  aa   000000 002022          file_modified:	vfd	36/error_number+1000
    003152  aa   000000 000016          	vfd	36/14
    003153  aa  106 151 154 145         	aci	@File modified.@,40
    003154  aa  040 155 157 144
    003155  aa  151 146 151 145
    003156  aa  144 056 040 040
    003157  aa  040 040 040 040
    003160  aa  040 040 040 040
    003161  aa  040 040 040 040
    003162  aa  040 040 040 040
    003163  aa  040 040 040 040
    003164  aa  040 040 040 040
    003165  aa   000000 000065          	vfd	36/53
    003166  aa  124 150 145 040         	aci	@The file ^a may have been modified since compilation.@,108
    003167  aa  146 151 154 145
    003170  aa  040 136 141 040
    003171  aa  155 141 171 040
    003172  aa  150 141 166 145
    003173  aa  040 142 145 145
    003174  aa  156 040 155 157
    003175  aa  144 151 146 151
    003176  aa  145 144 040 163
    003177  aa  151 156 143 145
    003200  aa  040 143 157 155
    003201  aa  160 151 154 141
    003202  aa  164 151 157 156
    003203  aa  056 040 040 040
    003204  aa  040 040 040 040
    003205  aa  040 040 040 040
    003206  aa  040 040 040 040
    003207  aa  040 040 040 040
    003210  aa  040 040 040 040
    003211  aa  040 040 040 040
    003212  aa  040 040 040 040
    003213  aa  040 040 040 040
    003214  aa  040 040 040 040
    003215  aa  040 040 040 040
    003216  aa  040 040 040 040
    003217  aa  040 040 040 040
    003220  aa  040 040 040 040
                        000053          	set	error_number,error_number+1
                                 1-103  ec	function_locator,		" Restriction: functions cannot be used as pointers
                                 1-104  	  (Bad locator value.),(A function cannot be used as a locator.)
                        003221          	segdef	function_locator
    003221  aa   000000 002023          function_locator:	vfd	36/error_number+1000
    003222  aa   000000 000022          	vfd	36/18
    003223  aa  102 141 144 040         	aci	@Bad locator value.@,40
    003224  aa  154 157 143 141
    003225  aa  164 157 162 040
    003226  aa  166 141 154 165
    003227  aa  145 056 040 040
    003230  aa  040 040 040 040
    003231  aa  040 040 040 040
    003232  aa  040 040 040 040
    003233  aa  040 040 040 040
    003234  aa  040 040 040 040
    003235  aa   000000 000047          	vfd	36/39
    003236  aa  101 040 146 165         	aci	@A function cannot be used as a locator.@,108
    003237  aa  156 143 164 151
    003240  aa  157 156 040 143
    003241  aa  141 156 156 157
    003242  aa  164 040 142 145
    003243  aa  040 165 163 145
    003244  aa  144 040 141 163
    003245  aa  040 141 040 154
    003246  aa  157 143 141 164
    003247  aa  157 162 056 040
    003250  aa  040 040 040 040
    003251  aa  040 040 040 040
    003252  aa  040 040 040 040
    003253  aa  040 040 040 040
    003254  aa  040 040 040 040
    003255  aa  040 040 040 040
    003256  aa  040 040 040 040
    003257  aa  040 040 040 040
    003260  aa  040 040 040 040
    003261  aa  040 040 040 040
    003262  aa  040 040 040 040
    003263  aa  040 040 040 040
    003264  aa  040 040 040 040
    003265  aa  040 040 040 040
    003266  aa  040 040 040 040
    003267  aa  040 040 040 040
    003270  aa  040 040 040 040
                        000054          	set	error_number,error_number+1
                                 1-105  ec	function_ref,		" Procedure reference occurs in wrong context
                                 1-106  	  (),(A function reference is not allowed in this context.)
                        003271          	segdef	function_ref
    003271  aa   000000 002024          function_ref:	vfd	36/error_number+1000
    003272  aa   000000 000000          	vfd	36/0
    003273  aa  040 040 040 040         	aci	@@,40
    003274  aa  040 040 040 040
    003275  aa  040 040 040 040
    003276  aa  040 040 040 040
    003277  aa  040 040 040 040
    003300  aa  040 040 040 040
    003301  aa  040 040 040 040
    003302  aa  040 040 040 040
    003303  aa  040 040 040 040
    003304  aa  040 040 040 040
    003305  aa   000000 000064          	vfd	36/52
    003306  aa  101 040 146 165         	aci	@A function reference is not allowed in this context.@,108
    003307  aa  156 143 164 151
    003310  aa  157 156 040 162
    003311  aa  145 146 145 162
    003312  aa  145 156 143 145
    003313  aa  040 151 163 040
    003314  aa  156 157 164 040
    003315  aa  141 154 154 157
    003316  aa  167 145 144 040
    003317  aa  151 156 040 164
    003320  aa  150 151 163 040
    003321  aa  143 157 156 164
    003322  aa  145 170 164 056
    003323  aa  040 040 040 040
    003324  aa  040 040 040 040
    003325  aa  040 040 040 040
    003326  aa  040 040 040 040
    003327  aa  040 040 040 040
    003330  aa  040 040 040 040
    003331  aa  040 040 040 040
    003332  aa  040 040 040 040
    003333  aa  040 040 040 040
    003334  aa  040 040 040 040
    003335  aa  040 040 040 040
    003336  aa  040 040 040 040
    003337  aa  040 040 040 040
    003340  aa  040 040 040 040
                        000055          	set	error_number,error_number+1
                                 1-107  ec	illegal_char,		" Illegal character found in input
                                 1-108  	  (),(Illegal character.)
                        003341          	segdef	illegal_char
    003341  aa   000000 002025          illegal_char:	vfd	36/error_number+1000
    003342  aa   000000 000000          	vfd	36/0
    003343  aa  040 040 040 040         	aci	@@,40
    003344  aa  040 040 040 040
    003345  aa  040 040 040 040
    003346  aa  040 040 040 040
    003347  aa  040 040 040 040
    003350  aa  040 040 040 040
    003351  aa  040 040 040 040
    003352  aa  040 040 040 040
    003353  aa  040 040 040 040
    003354  aa  040 040 040 040
    003355  aa   000000 000022          	vfd	36/18
    003356  aa  111 154 154 145         	aci	@Illegal character.@,108
    003357  aa  147 141 154 040
    003360  aa  143 150 141 162
    003361  aa  141 143 164 145
    003362  aa  162 056 040 040
    003363  aa  040 040 040 040
    003364  aa  040 040 040 040
    003365  aa  040 040 040 040
    003366  aa  040 040 040 040
    003367  aa  040 040 040 040
    003370  aa  040 040 040 040
    003371  aa  040 040 040 040
    003372  aa  040 040 040 040
    003373  aa  040 040 040 040
    003374  aa  040 040 040 040
    003375  aa  040 040 040 040
    003376  aa  040 040 040 040
    003377  aa  040 040 040 040
    003400  aa  040 040 040 040
    003401  aa  040 040 040 040
    003402  aa  040 040 040 040
    003403  aa  040 040 040 040
    003404  aa  040 040 040 040
    003405  aa  040 040 040 040
    003406  aa  040 040 040 040
    003407  aa  040 040 040 040
    003410  aa  040 040 040 040
                        000056          	set	error_number,error_number+1
                                 1-109  ec	input_exhausted,		" Internal code -- indicates scan_input wants more chars
                                 1-110  	  (),(Internal error: input stream exhausted.)
                        003411          	segdef	input_exhausted
    003411  aa   000000 002026          input_exhausted:	vfd	36/error_number+1000
    003412  aa   000000 000000          	vfd	36/0
    003413  aa  040 040 040 040         	aci	@@,40
    003414  aa  040 040 040 040
    003415  aa  040 040 040 040
    003416  aa  040 040 040 040
    003417  aa  040 040 040 040
    003420  aa  040 040 040 040
    003421  aa  040 040 040 040
    003422  aa  040 040 040 040
    003423  aa  040 040 040 040
    003424  aa  040 040 040 040
    003425  aa   000000 000047          	vfd	36/39
    003426  aa  111 156 164 145         	aci	@Internal error: input stream exhausted.@,108
    003427  aa  162 156 141 154
    003430  aa  040 145 162 162
    003431  aa  157 162 072 040
    003432  aa  151 156 160 165
    003433  aa  164 040 163 164
    003434  aa  162 145 141 155
    003435  aa  040 145 170 150
    003436  aa  141 165 163 164
    003437  aa  145 144 056 040
    003440  aa  040 040 040 040
    003441  aa  040 040 040 040
    003442  aa  040 040 040 040
    003443  aa  040 040 040 040
    003444  aa  040 040 040 040
    003445  aa  040 040 040 040
    003446  aa  040 040 040 040
    003447  aa  040 040 040 040
    003450  aa  040 040 040 040
    003451  aa  040 040 040 040
    003452  aa  040 040 040 040
    003453  aa  040 040 040 040
    003454  aa  040 040 040 040
    003455  aa  040 040 040 040
    003456  aa  040 040 040 040
    003457  aa  040 040 040 040
    003460  aa  040 040 040 040
                        000057          	set	error_number,error_number+1
                                 1-111  ec	int_proc, 		" Attempt to call interanl procedure
                                 1-112  	  (),(Attempt to call internal procedure.)
                        003461          	segdef	int_proc
    003461  aa   000000 002027          int_proc:	vfd	36/error_number+1000
    003462  aa   000000 000000          	vfd	36/0
    003463  aa  040 040 040 040         	aci	@@,40
    003464  aa  040 040 040 040
    003465  aa  040 040 040 040
    003466  aa  040 040 040 040
    003467  aa  040 040 040 040
    003470  aa  040 040 040 040
    003471  aa  040 040 040 040
    003472  aa  040 040 040 040
    003473  aa  040 040 040 040
    003474  aa  040 040 040 040
    003475  aa   000000 000043          	vfd	36/35
    003476  aa  101 164 164 145         	aci	@Attempt to call internal procedure.@,108
    003477  aa  155 160 164 040
    003500  aa  164 157 040 143
    003501  aa  141 154 154 040
    003502  aa  151 156 164 145
    003503  aa  162 156 141 154
    003504  aa  040 160 162 157
    003505  aa  143 145 144 165
    003506  aa  162 145 056 040
    003507  aa  040 040 040 040
    003510  aa  040 040 040 040
    003511  aa  040 040 040 040
    003512  aa  040 040 040 040
    003513  aa  040 040 040 040
    003514  aa  040 040 040 040
    003515  aa  040 040 040 040
    003516  aa  040 040 040 040
    003517  aa  040 040 040 040
    003520  aa  040 040 040 040
    003521  aa  040 040 040 040
    003522  aa  040 040 040 040
    003523  aa  040 040 040 040
    003524  aa  040 040 040 040
    003525  aa  040 040 040 040
    003526  aa  040 040 040 040
    003527  aa  040 040 040 040
    003530  aa  040 040 040 040
                        000060          	set	error_number,error_number+1
                                 1-113  ec	invalid_request,		" Means the request name is screwed up.
                                 1-114  	  (),(Invalid request name.)
                        003531          	segdef	invalid_request
    003531  aa   000000 002030          invalid_request:	vfd	36/error_number+1000
    003532  aa   000000 000000          	vfd	36/0
    003533  aa  040 040 040 040         	aci	@@,40
    003534  aa  040 040 040 040
    003535  aa  040 040 040 040
    003536  aa  040 040 040 040
    003537  aa  040 040 040 040
    003540  aa  040 040 040 040
    003541  aa  040 040 040 040
    003542  aa  040 040 040 040
    003543  aa  040 040 040 040
    003544  aa  040 040 040 040
    003545  aa   000000 000025          	vfd	36/21
    003546  aa  111 156 166 141         	aci	@Invalid request name.@,108
    003547  aa  154 151 144 040
    003550  aa  162 145 161 165
    003551  aa  145 163 164 040
    003552  aa  156 141 155 145
    003553  aa  056 040 040 040
    003554  aa  040 040 040 040
    003555  aa  040 040 040 040
    003556  aa  040 040 040 040
    003557  aa  040 040 040 040
    003560  aa  040 040 040 040
    003561  aa  040 040 040 040
    003562  aa  040 040 040 040
    003563  aa  040 040 040 040
    003564  aa  040 040 040 040
    003565  aa  040 040 040 040
    003566  aa  040 040 040 040
    003567  aa  040 040 040 040
    003570  aa  040 040 040 040
    003571  aa  040 040 040 040
    003572  aa  040 040 040 040
    003573  aa  040 040 040 040
    003574  aa  040 040 040 040
    003575  aa  040 040 040 040
    003576  aa  040 040 040 040
    003577  aa  040 040 040 040
    003600  aa  040 040 040 040
                        000061          	set	error_number,error_number+1
                                 1-115  ec	missing_colon,
                                 1-116  	  (missing colon),(The relational expression and the requests to be executed must be separated by a colon)
                        003601          	segdef	missing_colon
    003601  aa   000000 002031          missing_colon:	vfd	36/error_number+1000
    003602  aa   000000 000015          	vfd	36/13
    003603  aa  155 151 163 163         	aci	@missing colon@,40
    003604  aa  151 156 147 040
    003605  aa  143 157 154 157
    003606  aa  156 040 040 040
    003607  aa  040 040 040 040
    003610  aa  040 040 040 040
    003611  aa  040 040 040 040
    003612  aa  040 040 040 040
    003613  aa  040 040 040 040
    003614  aa  040 040 040 040
    003615  aa   000000 000126          	vfd	36/86
    003616  aa  124 150 145 040         	aci	@The relational expression and the requests to be executed must be separated by a colon@,108
    003617  aa  162 145 154 141
    003620  aa  164 151 157 156
    003621  aa  141 154 040 145
    003622  aa  170 160 162 145
    003623  aa  163 163 151 157
    003624  aa  156 040 141 156
    003625  aa  144 040 164 150
    003626  aa  145 040 162 145
    003627  aa  161 165 145 163
    003630  aa  164 163 040 164
    003631  aa  157 040 142 145
    003632  aa  040 145 170 145
    003633  aa  143 165 164 145
    003634  aa  144 040 155 165
    003635  aa  163 164 040 142
    003636  aa  145 040 163 145
    003637  aa  160 141 162 141
    003640  aa  164 145 144 040
    003641  aa  142 171 040 141
    003642  aa  040 143 157 154
    003643  aa  157 156 040 040
    003644  aa  040 040 040 040
    003645  aa  040 040 040 040
    003646  aa  040 040 040 040
    003647  aa  040 040 040 040
    003650  aa  040 040 040 040
                        000062          	set	error_number,error_number+1
                                 1-117  ec	misused_equal,
                                 1-118  	  (Bad predicate.),(The = operator is not a conditional operator in C. Use == instead.)
                        003651          	segdef	misused_equal
    003651  aa   000000 002032          misused_equal:	vfd	36/error_number+1000
    003652  aa   000000 000016          	vfd	36/14
    003653  aa  102 141 144 040         	aci	@Bad predicate.@,40
    003654  aa  160 162 145 144
    003655  aa  151 143 141 164
    003656  aa  145 056 040 040
    003657  aa  040 040 040 040
    003660  aa  040 040 040 040
    003661  aa  040 040 040 040
    003662  aa  040 040 040 040
    003663  aa  040 040 040 040
    003664  aa  040 040 040 040
    003665  aa   000000 000102          	vfd	36/66
    003666  aa  124 150 145 040         	aci	@The = operator is not a conditional operator in C. Use == instead.@,108
    003667  aa  075 040 157 160
    003670  aa  145 162 141 164
    003671  aa  157 162 040 151
    003672  aa  163 040 156 157
    003673  aa  164 040 141 040
    003674  aa  143 157 156 144
    003675  aa  151 164 151 157
    003676  aa  156 141 154 040
    003677  aa  157 160 145 162
    003700  aa  141 164 157 162
    003701  aa  040 151 156 040
    003702  aa  103 056 040 125
    003703  aa  163 145 040 075
    003704  aa  075 040 151 156
    003705  aa  163 164 145 141
    003706  aa  144 056 040 040
    003707  aa  040 040 040 040
    003710  aa  040 040 040 040
    003711  aa  040 040 040 040
    003712  aa  040 040 040 040
    003713  aa  040 040 040 040
    003714  aa  040 040 040 040
    003715  aa  040 040 040 040
    003716  aa  040 040 040 040
    003717  aa  040 040 040 040
    003720  aa  040 040 040 040
                        000063          	set	error_number,error_number+1
                                 1-119  ec	misused_not_equal,
                                 1-120              (Bad predicate.),(The ^= operator is not a valid C operator. Use != instead.)
                        003721          	segdef	misused_not_equal
    003721  aa   000000 002033          misused_not_equal:	vfd	36/error_number+1000
    003722  aa   000000 000016          	vfd	36/14
    003723  aa  102 141 144 040         	aci	@Bad predicate.@,40
    003724  aa  160 162 145 144
    003725  aa  151 143 141 164
    003726  aa  145 056 040 040
    003727  aa  040 040 040 040
    003730  aa  040 040 040 040
    003731  aa  040 040 040 040
    003732  aa  040 040 040 040
    003733  aa  040 040 040 040
    003734  aa  040 040 040 040
    003735  aa   000000 000072          	vfd	36/58
    003736  aa  124 150 145 040         	aci	@The ^= operator is not a valid C operator. Use != instead.@,108
    003737  aa  136 075 040 157
    003740  aa  160 145 162 141
    003741  aa  164 157 162 040
    003742  aa  151 163 040 156
    003743  aa  157 164 040 141
    003744  aa  040 166 141 154
    003745  aa  151 144 040 103
    003746  aa  040 157 160 145
    003747  aa  162 141 164 157
    003750  aa  162 056 040 125
    003751  aa  163 145 040 041
    003752  aa  075 040 151 156
    003753  aa  163 164 145 141
    003754  aa  144 056 040 040
    003755  aa  040 040 040 040
    003756  aa  040 040 040 040
    003757  aa  040 040 040 040
    003760  aa  040 040 040 040
    003761  aa  040 040 040 040
    003762  aa  040 040 040 040
    003763  aa  040 040 040 040
    003764  aa  040 040 040 040
    003765  aa  040 040 040 040
    003766  aa  040 040 040 040
    003767  aa  040 040 040 040
    003770  aa  040 040 040 040
                        000064          	set	error_number,error_number+1
                                 1-121  ec	no_address,		" Cannot get address of variable
                                 1-122  	  (Cannot get address.),(Cannot get address of ^a.)
                        003771          	segdef	no_address
    003771  aa   000000 002034          no_address:	vfd	36/error_number+1000
    003772  aa   000000 000023          	vfd	36/19
    003773  aa  103 141 156 156         	aci	@Cannot get address.@,40
    003774  aa  157 164 040 147
    003775  aa  145 164 040 141
    003776  aa  144 144 162 145
    003777  aa  163 163 056 040
    004000  aa  040 040 040 040
    004001  aa  040 040 040 040
    004002  aa  040 040 040 040
    004003  aa  040 040 040 040
    004004  aa  040 040 040 040
    004005  aa   000000 000031          	vfd	36/25
    004006  aa  103 141 156 156         	aci	@Cannot get address of ^a.@,108
    004007  aa  157 164 040 147
    004010  aa  145 164 040 141
    004011  aa  144 144 162 145
    004012  aa  163 163 040 157
    004013  aa  146 040 136 141
    004014  aa  056 040 040 040
    004015  aa  040 040 040 040
    004016  aa  040 040 040 040
    004017  aa  040 040 040 040
    004020  aa  040 040 040 040
    004021  aa  040 040 040 040
    004022  aa  040 040 040 040
    004023  aa  040 040 040 040
    004024  aa  040 040 040 040
    004025  aa  040 040 040 040
    004026  aa  040 040 040 040
    004027  aa  040 040 040 040
    004030  aa  040 040 040 040
    004031  aa  040 040 040 040
    004032  aa  040 040 040 040
    004033  aa  040 040 040 040
    004034  aa  040 040 040 040
    004035  aa  040 040 040 040
    004036  aa  040 040 040 040
    004037  aa  040 040 040 040
    004040  aa  040 040 040 040
                        000065          	set	error_number,error_number+1
                                 1-123  ec	no_block, 		" No information about current block
                                 1-124  	  (No symbol table.),(Block has no symbol table.)
                        004041          	segdef	no_block
    004041  aa   000000 002035          no_block:	vfd	36/error_number+1000
    004042  aa   000000 000020          	vfd	36/16
    004043  aa  116 157 040 163         	aci	@No symbol table.@,40
    004044  aa  171 155 142 157
    004045  aa  154 040 164 141
    004046  aa  142 154 145 056
    004047  aa  040 040 040 040
    004050  aa  040 040 040 040
    004051  aa  040 040 040 040
    004052  aa  040 040 040 040
    004053  aa  040 040 040 040
    004054  aa  040 040 040 040
    004055  aa   000000 000032          	vfd	36/26
    004056  aa  102 154 157 143         	aci	@Block has no symbol table.@,108
    004057  aa  153 040 150 141
    004060  aa  163 040 156 157
    004061  aa  040 163 171 155
    004062  aa  142 157 154 040
    004063  aa  164 141 142 154
    004064  aa  145 056 040 040
    004065  aa  040 040 040 040
    004066  aa  040 040 040 040
    004067  aa  040 040 040 040
    004070  aa  040 040 040 040
    004071  aa  040 040 040 040
    004072  aa  040 040 040 040
    004073  aa  040 040 040 040
    004074  aa  040 040 040 040
    004075  aa  040 040 040 040
    004076  aa  040 040 040 040
    004077  aa  040 040 040 040
    004100  aa  040 040 040 040
    004101  aa  040 040 040 040
    004102  aa  040 040 040 040
    004103  aa  040 040 040 040
    004104  aa  040 040 040 040
    004105  aa  040 040 040 040
    004106  aa  040 040 040 040
    004107  aa  040 040 040 040
    004110  aa  040 040 040 040
                        000066          	set	error_number,error_number+1
                                 1-125  ec	no_breaks,		" No breaks set in a particular segment
                                 1-126  	  (No breaks in procedure.),(No breaks set in procedure ^a.)
                        004111          	segdef	no_breaks
    004111  aa   000000 002036          no_breaks:	vfd	36/error_number+1000
    004112  aa   000000 000027          	vfd	36/23
    004113  aa  116 157 040 142         	aci	@No breaks in procedure.@,40
    004114  aa  162 145 141 153
    004115  aa  163 040 151 156
    004116  aa  040 160 162 157
    004117  aa  143 145 144 165
    004120  aa  162 145 056 040
    004121  aa  040 040 040 040
    004122  aa  040 040 040 040
    004123  aa  040 040 040 040
    004124  aa  040 040 040 040
    004125  aa   000000 000036          	vfd	36/30
    004126  aa  116 157 040 142         	aci	@No breaks set in procedure ^a.@,108
    004127  aa  162 145 141 153
    004130  aa  163 040 163 145
    004131  aa  164 040 151 156
    004132  aa  040 160 162 157
    004133  aa  143 145 144 165
    004134  aa  162 145 040 136
    004135  aa  141 056 040 040
    004136  aa  040 040 040 040
    004137  aa  040 040 040 040
    004140  aa  040 040 040 040
    004141  aa  040 040 040 040
    004142  aa  040 040 040 040
    004143  aa  040 040 040 040
    004144  aa  040 040 040 040
    004145  aa  040 040 040 040
    004146  aa  040 040 040 040
    004147  aa  040 040 040 040
    004150  aa  040 040 040 040
    004151  aa  040 040 040 040
    004152  aa  040 040 040 040
    004153  aa  040 040 040 040
    004154  aa  040 040 040 040
    004155  aa  040 040 040 040
    004156  aa  040 040 040 040
    004157  aa  040 040 040 040
    004160  aa  040 040 040 040
                        000067          	set	error_number,error_number+1
                                 1-127  ec	no_breaks_set,		" No breaks set in any segments
                                 1-128  	  (),(No breaks set.)
                        004161          	segdef	no_breaks_set
    004161  aa   000000 002037          no_breaks_set:	vfd	36/error_number+1000
    004162  aa   000000 000000          	vfd	36/0
    004163  aa  040 040 040 040         	aci	@@,40
    004164  aa  040 040 040 040
    004165  aa  040 040 040 040
    004166  aa  040 040 040 040
    004167  aa  040 040 040 040
    004170  aa  040 040 040 040
    004171  aa  040 040 040 040
    004172  aa  040 040 040 040
    004173  aa  040 040 040 040
    004174  aa  040 040 040 040
    004175  aa   000000 000016          	vfd	36/14
    004176  aa  116 157 040 142         	aci	@No breaks set.@,108
    004177  aa  162 145 141 153
    004200  aa  163 040 163 145
    004201  aa  164 056 040 040
    004202  aa  040 040 040 040
    004203  aa  040 040 040 040
    004204  aa  040 040 040 040
    004205  aa  040 040 040 040
    004206  aa  040 040 040 040
    004207  aa  040 040 040 040
    004210  aa  040 040 040 040
    004211  aa  040 040 040 040
    004212  aa  040 040 040 040
    004213  aa  040 040 040 040
    004214  aa  040 040 040 040
    004215  aa  040 040 040 040
    004216  aa  040 040 040 040
    004217  aa  040 040 040 040
    004220  aa  040 040 040 040
    004221  aa  040 040 040 040
    004222  aa  040 040 040 040
    004223  aa  040 040 040 040
    004224  aa  040 040 040 040
    004225  aa  040 040 040 040
    004226  aa  040 040 040 040
    004227  aa  040 040 040 040
    004230  aa  040 040 040 040
                        000070          	set	error_number,error_number+1
                                 1-129  ec	no_dcl,			" No declaration for specified symbol
                                 1-130  	  (Symbol not declared.),(Symbol ^a not declared.)
                        004231          	segdef	no_dcl
    004231  aa   000000 002040          no_dcl:	vfd	36/error_number+1000
    004232  aa   000000 000024          	vfd	36/20
    004233  aa  123 171 155 142         	aci	@Symbol not declared.@,40
    004234  aa  157 154 040 156
    004235  aa  157 164 040 144
    004236  aa  145 143 154 141
    004237  aa  162 145 144 056
    004240  aa  040 040 040 040
    004241  aa  040 040 040 040
    004242  aa  040 040 040 040
    004243  aa  040 040 040 040
    004244  aa  040 040 040 040
    004245  aa   000000 000027          	vfd	36/23
    004246  aa  123 171 155 142         	aci	@Symbol ^a not declared.@,108
    004247  aa  157 154 040 136
    004250  aa  141 040 156 157
    004251  aa  164 040 144 145
    004252  aa  143 154 141 162
    004253  aa  145 144 056 040
    004254  aa  040 040 040 040
    004255  aa  040 040 040 040
    004256  aa  040 040 040 040
    004257  aa  040 040 040 040
    004260  aa  040 040 040 040
    004261  aa  040 040 040 040
    004262  aa  040 040 040 040
    004263  aa  040 040 040 040
    004264  aa  040 040 040 040
    004265  aa  040 040 040 040
    004266  aa  040 040 040 040
    004267  aa  040 040 040 040
    004270  aa  040 040 040 040
    004271  aa  040 040 040 040
    004272  aa  040 040 040 040
    004273  aa  040 040 040 040
    004274  aa  040 040 040 040
    004275  aa  040 040 040 040
    004276  aa  040 040 040 040
    004277  aa  040 040 040 040
    004300  aa  040 040 040 040
                        000071          	set	error_number,error_number+1
                                 1-131  ec	no_frame, 		" Cannot "return" to procedure that has no frame
                                 1-132  	  (No active frame.),(No active frame for ^a.)
                        004301          	segdef	no_frame
    004301  aa   000000 002041          no_frame:	vfd	36/error_number+1000
    004302  aa   000000 000020          	vfd	36/16
    004303  aa  116 157 040 141         	aci	@No active frame.@,40
    004304  aa  143 164 151 166
    004305  aa  145 040 146 162
    004306  aa  141 155 145 056
    004307  aa  040 040 040 040
    004310  aa  040 040 040 040
    004311  aa  040 040 040 040
    004312  aa  040 040 040 040
    004313  aa  040 040 040 040
    004314  aa  040 040 040 040
    004315  aa   000000 000027          	vfd	36/23
    004316  aa  116 157 040 141         	aci	@No active frame for ^a.@,108
    004317  aa  143 164 151 166
    004320  aa  145 040 146 162
    004321  aa  141 155 145 040
    004322  aa  146 157 162 040
    004323  aa  136 141 056 040
    004324  aa  040 040 040 040
    004325  aa  040 040 040 040
    004326  aa  040 040 040 040
    004327  aa  040 040 040 040
    004330  aa  040 040 040 040
    004331  aa  040 040 040 040
    004332  aa  040 040 040 040
    004333  aa  040 040 040 040
    004334  aa  040 040 040 040
    004335  aa  040 040 040 040
    004336  aa  040 040 040 040
    004337  aa  040 040 040 040
    004340  aa  040 040 040 040
    004341  aa  040 040 040 040
    004342  aa  040 040 040 040
    004343  aa  040 040 040 040
    004344  aa  040 040 040 040
    004345  aa  040 040 040 040
    004346  aa  040 040 040 040
    004347  aa  040 040 040 040
    004350  aa  040 040 040 040
                        000072          	set	error_number,error_number+1
                                 1-133  ec	no_map,			" No statement map for segment
                                 1-134  	  (Cannot find statement map.),(Cannot get statement map for this procedure.)
                        004351          	segdef	no_map
    004351  aa   000000 002042          no_map:	vfd	36/error_number+1000
    004352  aa   000000 000032          	vfd	36/26
    004353  aa  103 141 156 156         	aci	@Cannot find statement map.@,40
    004354  aa  157 164 040 146
    004355  aa  151 156 144 040
    004356  aa  163 164 141 164
    004357  aa  145 155 145 156
    004360  aa  164 040 155 141
    004361  aa  160 056 040 040
    004362  aa  040 040 040 040
    004363  aa  040 040 040 040
    004364  aa  040 040 040 040
    004365  aa   000000 000054          	vfd	36/44
    004366  aa  103 141 156 156         	aci	@Cannot get statement map for this procedure.@,108
    004367  aa  157 164 040 147
    004370  aa  145 164 040 163
    004371  aa  164 141 164 145
    004372  aa  155 145 156 164
    004373  aa  040 155 141 160
    004374  aa  040 146 157 162
    004375  aa  040 164 150 151
    004376  aa  163 040 160 162
    004377  aa  157 143 145 144
    004400  aa  165 162 145 056
    004401  aa  040 040 040 040
    004402  aa  040 040 040 040
    004403  aa  040 040 040 040
    004404  aa  040 040 040 040
    004405  aa  040 040 040 040
    004406  aa  040 040 040 040
    004407  aa  040 040 040 040
    004410  aa  040 040 040 040
    004411  aa  040 040 040 040
    004412  aa  040 040 040 040
    004413  aa  040 040 040 040
    004414  aa  040 040 040 040
    004415  aa  040 040 040 040
    004416  aa  040 040 040 040
    004417  aa  040 040 040 040
    004420  aa  040 040 040 040
                        000073          	set	error_number,error_number+1
                                 1-135  ec	no_procedure,		" For some reason, we cannot get name of procedure
                                 1-136  	  (),(Identity of procedure cannot be determined.)
                        004421          	segdef	no_procedure
    004421  aa   000000 002043          no_procedure:	vfd	36/error_number+1000
    004422  aa   000000 000000          	vfd	36/0
    004423  aa  040 040 040 040         	aci	@@,40
    004424  aa  040 040 040 040
    004425  aa  040 040 040 040
    004426  aa  040 040 040 040
    004427  aa  040 040 040 040
    004430  aa  040 040 040 040
    004431  aa  040 040 040 040
    004432  aa  040 040 040 040
    004433  aa  040 040 040 040
    004434  aa  040 040 040 040
    004435  aa   000000 000053          	vfd	36/43
    004436  aa  111 144 145 156         	aci	@Identity of procedure cannot be determined.@,108
    004437  aa  164 151 164 171
    004440  aa  040 157 146 040
    004441  aa  160 162 157 143
    004442  aa  145 144 165 162
    004443  aa  145 040 143 141
    004444  aa  156 156 157 164
    004445  aa  040 142 145 040
    004446  aa  144 145 164 145
    004447  aa  162 155 151 156
    004450  aa  145 144 056 040
    004451  aa  040 040 040 040
    004452  aa  040 040 040 040
    004453  aa  040 040 040 040
    004454  aa  040 040 040 040
    004455  aa  040 040 040 040
    004456  aa  040 040 040 040
    004457  aa  040 040 040 040
    004460  aa  040 040 040 040
    004461  aa  040 040 040 040
    004462  aa  040 040 040 040
    004463  aa  040 040 040 040
    004464  aa  040 040 040 040
    004465  aa  040 040 040 040
    004466  aa  040 040 040 040
    004467  aa  040 040 040 040
    004470  aa  040 040 040 040
                        000074          	set	error_number,error_number+1
                                 1-137  ec	no_return_desc,		" Procedure without descriptors used as function
                                 1-138  	  (),(There is no return argument descriptor for ^a.)
                        004471          	segdef	no_return_desc
    004471  aa   000000 002044          no_return_desc:	vfd	36/error_number+1000
    004472  aa   000000 000000          	vfd	36/0
    004473  aa  040 040 040 040         	aci	@@,40
    004474  aa  040 040 040 040
    004475  aa  040 040 040 040
    004476  aa  040 040 040 040
    004477  aa  040 040 040 040
    004500  aa  040 040 040 040
    004501  aa  040 040 040 040
    004502  aa  040 040 040 040
    004503  aa  040 040 040 040
    004504  aa  040 040 040 040
    004505  aa   000000 000056          	vfd	36/46
    004506  aa  124 150 145 162         	aci	@There is no return argument descriptor for ^a.@,108
    004507  aa  145 040 151 163
    004510  aa  040 156 157 040
    004511  aa  162 145 164 165
    004512  aa  162 156 040 141
    004513  aa  162 147 165 155
    004514  aa  145 156 164 040
    004515  aa  144 145 163 143
    004516  aa  162 151 160 164
    004517  aa  157 162 040 146
    004520  aa  157 162 040 136
    004521  aa  141 056 040 040
    004522  aa  040 040 040 040
    004523  aa  040 040 040 040
    004524  aa  040 040 040 040
    004525  aa  040 040 040 040
    004526  aa  040 040 040 040
    004527  aa  040 040 040 040
    004530  aa  040 040 040 040
    004531  aa  040 040 040 040
    004532  aa  040 040 040 040
    004533  aa  040 040 040 040
    004534  aa  040 040 040 040
    004535  aa  040 040 040 040
    004536  aa  040 040 040 040
    004537  aa  040 040 040 040
    004540  aa  040 040 040 040
                        000075          	set	error_number,error_number+1
                                 1-139  ec	no_saved_string,		" tried to 'ps ""' without one
                                 1-140  	  (),(There is no saved string to position with.)
                        004541          	segdef	no_saved_string
    004541  aa   000000 002045          no_saved_string:	vfd	36/error_number+1000
    004542  aa   000000 000000          	vfd	36/0
    004543  aa  040 040 040 040         	aci	@@,40
    004544  aa  040 040 040 040
    004545  aa  040 040 040 040
    004546  aa  040 040 040 040
    004547  aa  040 040 040 040
    004550  aa  040 040 040 040
    004551  aa  040 040 040 040
    004552  aa  040 040 040 040
    004553  aa  040 040 040 040
    004554  aa  040 040 040 040
    004555  aa   000000 000052          	vfd	36/42
    004556  aa  124 150 145 162         	aci	@There is no saved string to position with.@,108
    004557  aa  145 040 151 163
    004560  aa  040 156 157 040
    004561  aa  163 141 166 145
    004562  aa  144 040 163 164
    004563  aa  162 151 156 147
    004564  aa  040 164 157 040
    004565  aa  160 157 163 151
    004566  aa  164 151 157 156
    004567  aa  040 167 151 164
    004570  aa  150 056 040 040
    004571  aa  040 040 040 040
    004572  aa  040 040 040 040
    004573  aa  040 040 040 040
    004574  aa  040 040 040 040
    004575  aa  040 040 040 040
    004576  aa  040 040 040 040
    004577  aa  040 040 040 040
    004600  aa  040 040 040 040
    004601  aa  040 040 040 040
    004602  aa  040 040 040 040
    004603  aa  040 040 040 040
    004604  aa  040 040 040 040
    004605  aa  040 040 040 040
    004606  aa  040 040 040 040
    004607  aa  040 040 040 040
    004610  aa  040 040 040 040
                        000076          	set	error_number,error_number+1
                                 1-141  ec	no_source_map,		" No source map exists for segment
                                 1-142  	  (Cannot get source map.),(Cannot get source map for procedure ^a.)
                        004611          	segdef	no_source_map
    004611  aa   000000 002046          no_source_map:	vfd	36/error_number+1000
    004612  aa   000000 000026          	vfd	36/22
    004613  aa  103 141 156 156         	aci	@Cannot get source map.@,40
    004614  aa  157 164 040 147
    004615  aa  145 164 040 163
    004616  aa  157 165 162 143
    004617  aa  145 040 155 141
    004620  aa  160 056 040 040
    004621  aa  040 040 040 040
    004622  aa  040 040 040 040
    004623  aa  040 040 040 040
    004624  aa  040 040 040 040
    004625  aa   000000 000047          	vfd	36/39
    004626  aa  103 141 156 156         	aci	@Cannot get source map for procedure ^a.@,108
    004627  aa  157 164 040 147
    004630  aa  145 164 040 163
    004631  aa  157 165 162 143
    004632  aa  145 040 155 141
    004633  aa  160 040 146 157
    004634  aa  162 040 160 162
    004635  aa  157 143 145 144
    004636  aa  165 162 145 040
    004637  aa  136 141 056 040
    004640  aa  040 040 040 040
    004641  aa  040 040 040 040
    004642  aa  040 040 040 040
    004643  aa  040 040 040 040
    004644  aa  040 040 040 040
    004645  aa  040 040 040 040
    004646  aa  040 040 040 040
    004647  aa  040 040 040 040
    004650  aa  040 040 040 040
    004651  aa  040 040 040 040
    004652  aa  040 040 040 040
    004653  aa  040 040 040 040
    004654  aa  040 040 040 040
    004655  aa  040 040 040 040
    004656  aa  040 040 040 040
    004657  aa  040 040 040 040
    004660  aa  040 040 040 040
                        000077          	set	error_number,error_number+1
                                 1-143  ec	no_statement_map,		" No statement map
                                 1-144  	  (Cannot get stmt map.),(Cannot get statement map for this procedure.)
                        004661          	segdef	no_statement_map
    004661  aa   000000 002047          no_statement_map:	vfd	36/error_number+1000
    004662  aa   000000 000024          	vfd	36/20
    004663  aa  103 141 156 156         	aci	@Cannot get stmt map.@,40
    004664  aa  157 164 040 147
    004665  aa  145 164 040 163
    004666  aa  164 155 164 040
    004667  aa  155 141 160 056
    004670  aa  040 040 040 040
    004671  aa  040 040 040 040
    004672  aa  040 040 040 040
    004673  aa  040 040 040 040
    004674  aa  040 040 040 040
    004675  aa   000000 000054          	vfd	36/44
    004676  aa  103 141 156 156         	aci	@Cannot get statement map for this procedure.@,108
    004677  aa  157 164 040 147
    004700  aa  145 164 040 163
    004701  aa  164 141 164 145
    004702  aa  155 145 156 164
    004703  aa  040 155 141 160
    004704  aa  040 146 157 162
    004705  aa  040 164 150 151
    004706  aa  163 040 160 162
    004707  aa  157 143 145 144
    004710  aa  165 162 145 056
    004711  aa  040 040 040 040
    004712  aa  040 040 040 040
    004713  aa  040 040 040 040
    004714  aa  040 040 040 040
    004715  aa  040 040 040 040
    004716  aa  040 040 040 040
    004717  aa  040 040 040 040
    004720  aa  040 040 040 040
    004721  aa  040 040 040 040
    004722  aa  040 040 040 040
    004723  aa  040 040 040 040
    004724  aa  040 040 040 040
    004725  aa  040 040 040 040
    004726  aa  040 040 040 040
    004727  aa  040 040 040 040
    004730  aa  040 040 040 040
                        000100          	set	error_number,error_number+1
                                 1-145  ec	no_table, 		" The segment does not have a symbol table
                                 1-146  	  (Cannot find symbol table.),(Cannot get symbol table for this procedure.)
                        004731          	segdef	no_table
    004731  aa   000000 002050          no_table:	vfd	36/error_number+1000
    004732  aa   000000 000031          	vfd	36/25
    004733  aa  103 141 156 156         	aci	@Cannot find symbol table.@,40
    004734  aa  157 164 040 146
    004735  aa  151 156 144 040
    004736  aa  163 171 155 142
    004737  aa  157 154 040 164
    004740  aa  141 142 154 145
    004741  aa  056 040 040 040
    004742  aa  040 040 040 040
    004743  aa  040 040 040 040
    004744  aa  040 040 040 040
    004745  aa   000000 000053          	vfd	36/43
    004746  aa  103 141 156 156         	aci	@Cannot get symbol table for this procedure.@,108
    004747  aa  157 164 040 147
    004750  aa  145 164 040 163
    004751  aa  171 155 142 157
    004752  aa  154 040 164 141
    004753  aa  142 154 145 040
    004754  aa  146 157 162 040
    004755  aa  164 150 151 163
    004756  aa  040 160 162 157
    004757  aa  143 145 144 165
    004760  aa  162 145 056 040
    004761  aa  040 040 040 040
    004762  aa  040 040 040 040
    004763  aa  040 040 040 040
    004764  aa  040 040 040 040
    004765  aa  040 040 040 040
    004766  aa  040 040 040 040
    004767  aa  040 040 040 040
    004770  aa  040 040 040 040
    004771  aa  040 040 040 040
    004772  aa  040 040 040 040
    004773  aa  040 040 040 040
    004774  aa  040 040 040 040
    004775  aa  040 040 040 040
    004776  aa  040 040 040 040
    004777  aa  040 040 040 040
    005000  aa  040 040 040 040
                        000101          	set	error_number,error_number+1
                                 1-147  ec	no_vars,			" none at all
                                 1-148  	(No variables.),(No probe variables are defined.)
                        005001          	segdef	no_vars
    005001  aa   000000 002051          no_vars:	vfd	36/error_number+1000
    005002  aa   000000 000015          	vfd	36/13
    005003  aa  116 157 040 166         	aci	@No variables.@,40
    005004  aa  141 162 151 141
    005005  aa  142 154 145 163
    005006  aa  056 040 040 040
    005007  aa  040 040 040 040
    005010  aa  040 040 040 040
    005011  aa  040 040 040 040
    005012  aa  040 040 040 040
    005013  aa  040 040 040 040
    005014  aa  040 040 040 040
    005015  aa   000000 000037          	vfd	36/31
    005016  aa  116 157 040 160         	aci	@No probe variables are defined.@,108
    005017  aa  162 157 142 145
    005020  aa  040 166 141 162
    005021  aa  151 141 142 154
    005022  aa  145 163 040 141
    005023  aa  162 145 040 144
    005024  aa  145 146 151 156
    005025  aa  145 144 056 040
    005026  aa  040 040 040 040
    005027  aa  040 040 040 040
    005030  aa  040 040 040 040
    005031  aa  040 040 040 040
    005032  aa  040 040 040 040
    005033  aa  040 040 040 040
    005034  aa  040 040 040 040
    005035  aa  040 040 040 040
    005036  aa  040 040 040 040
    005037  aa  040 040 040 040
    005040  aa  040 040 040 040
    005041  aa  040 040 040 040
    005042  aa  040 040 040 040
    005043  aa  040 040 040 040
    005044  aa  040 040 040 040
    005045  aa  040 040 040 040
    005046  aa  040 040 040 040
    005047  aa  040 040 040 040
    005050  aa  040 040 040 040
                        000102          	set	error_number,error_number+1
                                 1-149  ec	noarg,			" Need another argument.
                                 1-150  	  (),(Expected argument missing.)
                        005051          	segdef	noarg
    005051  aa   000000 002052          noarg:	vfd	36/error_number+1000
    005052  aa   000000 000000          	vfd	36/0
    005053  aa  040 040 040 040         	aci	@@,40
    005054  aa  040 040 040 040
    005055  aa  040 040 040 040
    005056  aa  040 040 040 040
    005057  aa  040 040 040 040
    005060  aa  040 040 040 040
    005061  aa  040 040 040 040
    005062  aa  040 040 040 040
    005063  aa  040 040 040 040
    005064  aa  040 040 040 040
    005065  aa   000000 000032          	vfd	36/26
    005066  aa  105 170 160 145         	aci	@Expected argument missing.@,108
    005067  aa  143 164 145 144
    005070  aa  040 141 162 147
    005071  aa  165 155 145 156
    005072  aa  164 040 155 151
    005073  aa  163 163 151 156
    005074  aa  147 056 040 040
    005075  aa  040 040 040 040
    005076  aa  040 040 040 040
    005077  aa  040 040 040 040
    005100  aa  040 040 040 040
    005101  aa  040 040 040 040
    005102  aa  040 040 040 040
    005103  aa  040 040 040 040
    005104  aa  040 040 040 040
    005105  aa  040 040 040 040
    005106  aa  040 040 040 040
    005107  aa  040 040 040 040
    005110  aa  040 040 040 040
    005111  aa  040 040 040 040
    005112  aa  040 040 040 040
    005113  aa  040 040 040 040
    005114  aa  040 040 040 040
    005115  aa  040 040 040 040
    005116  aa  040 040 040 040
    005117  aa  040 040 040 040
    005120  aa  040 040 040 040
                        000103          	set	error_number,error_number+1
                                 1-151  ec	non_standard,		" Non standard object segment
                                 1-152  	  (Non-standard segment.),(This segment is not a standard object segment.)
                        005121          	segdef	non_standard
    005121  aa   000000 002053          non_standard:	vfd	36/error_number+1000
    005122  aa   000000 000025          	vfd	36/21
    005123  aa  116 157 156 055         	aci	@Non-standard segment.@,40
    005124  aa  163 164 141 156
    005125  aa  144 141 162 144
    005126  aa  040 163 145 147
    005127  aa  155 145 156 164
    005130  aa  056 040 040 040
    005131  aa  040 040 040 040
    005132  aa  040 040 040 040
    005133  aa  040 040 040 040
    005134  aa  040 040 040 040
    005135  aa   000000 000056          	vfd	36/46
    005136  aa  124 150 151 163         	aci	@This segment is not a standard object segment.@,108
    005137  aa  040 163 145 147
    005140  aa  155 145 156 164
    005141  aa  040 151 163 040
    005142  aa  156 157 164 040
    005143  aa  141 040 163 164
    005144  aa  141 156 144 141
    005145  aa  162 144 040 157
    005146  aa  142 152 145 143
    005147  aa  164 040 163 145
    005150  aa  147 155 145 156
    005151  aa  164 056 040 040
    005152  aa  040 040 040 040
    005153  aa  040 040 040 040
    005154  aa  040 040 040 040
    005155  aa  040 040 040 040
    005156  aa  040 040 040 040
    005157  aa  040 040 040 040
    005160  aa  040 040 040 040
    005161  aa  040 040 040 040
    005162  aa  040 040 040 040
    005163  aa  040 040 040 040
    005164  aa  040 040 040 040
    005165  aa  040 040 040 040
    005166  aa  040 040 040 040
    005167  aa  040 040 040 040
    005170  aa  040 040 040 040
                        000104          	set	error_number,error_number+1
                                 1-153  ec	none_active,		" $b (etc.), no break to talk about
                                 1-154  	  (),(No active break.)
                        005171          	segdef	none_active
    005171  aa   000000 002054          none_active:	vfd	36/error_number+1000
    005172  aa   000000 000000          	vfd	36/0
    005173  aa  040 040 040 040         	aci	@@,40
    005174  aa  040 040 040 040
    005175  aa  040 040 040 040
    005176  aa  040 040 040 040
    005177  aa  040 040 040 040
    005200  aa  040 040 040 040
    005201  aa  040 040 040 040
    005202  aa  040 040 040 040
    005203  aa  040 040 040 040
    005204  aa  040 040 040 040
    005205  aa   000000 000020          	vfd	36/16
    005206  aa  116 157 040 141         	aci	@No active break.@,108
    005207  aa  143 164 151 166
    005210  aa  145 040 142 162
    005211  aa  145 141 153 056
    005212  aa  040 040 040 040
    005213  aa  040 040 040 040
    005214  aa  040 040 040 040
    005215  aa  040 040 040 040
    005216  aa  040 040 040 040
    005217  aa  040 040 040 040
    005220  aa  040 040 040 040
    005221  aa  040 040 040 040
    005222  aa  040 040 040 040
    005223  aa  040 040 040 040
    005224  aa  040 040 040 040
    005225  aa  040 040 040 040
    005226  aa  040 040 040 040
    005227  aa  040 040 040 040
    005230  aa  040 040 040 040
    005231  aa  040 040 040 040
    005232  aa  040 040 040 040
    005233  aa  040 040 040 040
    005234  aa  040 040 040 040
    005235  aa  040 040 040 040
    005236  aa  040 040 040 040
    005237  aa  040 040 040 040
    005240  aa  040 040 040 040
                        000105          	set	error_number,error_number+1
                                 1-155  ec	not_based,		" Variable on right side of -> isnt based
                                 1-156  	  (Isn't based),(^a is not a based variable)
                        005241          	segdef	not_based
    005241  aa   000000 002055          not_based:	vfd	36/error_number+1000
    005242  aa   000000 000013          	vfd	36/11
    005243  aa  111 163 156 047         	aci	@Isn't based@,40
    005244  aa  164 040 142 141
    005245  aa  163 145 144 040
    005246  aa  040 040 040 040
    005247  aa  040 040 040 040
    005250  aa  040 040 040 040
    005251  aa  040 040 040 040
    005252  aa  040 040 040 040
    005253  aa  040 040 040 040
    005254  aa  040 040 040 040
    005255  aa   000000 000032          	vfd	36/26
    005256  aa  136 141 040 151         	aci	@^a is not a based variable@,108
    005257  aa  163 040 156 157
    005260  aa  164 040 141 040
    005261  aa  142 141 163 145
    005262  aa  144 040 166 141
    005263  aa  162 151 141 142
    005264  aa  154 145 040 040
    005265  aa  040 040 040 040
    005266  aa  040 040 040 040
    005267  aa  040 040 040 040
    005270  aa  040 040 040 040
    005271  aa  040 040 040 040
    005272  aa  040 040 040 040
    005273  aa  040 040 040 040
    005274  aa  040 040 040 040
    005275  aa  040 040 040 040
    005276  aa  040 040 040 040
    005277  aa  040 040 040 040
    005300  aa  040 040 040 040
    005301  aa  040 040 040 040
    005302  aa  040 040 040 040
    005303  aa  040 040 040 040
    005304  aa  040 040 040 040
    005305  aa  040 040 040 040
    005306  aa  040 040 040 040
    005307  aa  040 040 040 040
    005310  aa  040 040 040 040
                        000106          	set	error_number,error_number+1
                                 1-157  ec	not_function,		" Procedure improperly called as function
                                 1-158  	  (The procedure is not a function.),(The procedure ^a is not a function.)
                        005311          	segdef	not_function
    005311  aa   000000 002056          not_function:	vfd	36/error_number+1000
    005312  aa   000000 000040          	vfd	36/32
    005313  aa  124 150 145 040         	aci	@The procedure is not a function.@,40
    005314  aa  160 162 157 143
    005315  aa  145 144 165 162
    005316  aa  145 040 151 163
    005317  aa  040 156 157 164
    005320  aa  040 141 040 146
    005321  aa  165 156 143 164
    005322  aa  151 157 156 056
    005323  aa  040 040 040 040
    005324  aa  040 040 040 040
    005325  aa   000000 000043          	vfd	36/35
    005326  aa  124 150 145 040         	aci	@The procedure ^a is not a function.@,108
    005327  aa  160 162 157 143
    005330  aa  145 144 165 162
    005331  aa  145 040 136 141
    005332  aa  040 151 163 040
    005333  aa  156 157 164 040
    005334  aa  141 040 146 165
    005335  aa  156 143 164 151
    005336  aa  157 156 056 040
    005337  aa  040 040 040 040
    005340  aa  040 040 040 040
    005341  aa  040 040 040 040
    005342  aa  040 040 040 040
    005343  aa  040 040 040 040
    005344  aa  040 040 040 040
    005345  aa  040 040 040 040
    005346  aa  040 040 040 040
    005347  aa  040 040 040 040
    005350  aa  040 040 040 040
    005351  aa  040 040 040 040
    005352  aa  040 040 040 040
    005353  aa  040 040 040 040
    005354  aa  040 040 040 040
    005355  aa  040 040 040 040
    005356  aa  040 040 040 040
    005357  aa  040 040 040 040
    005360  aa  040 040 040 040
                        000107          	set	error_number,error_number+1
                                 1-159  ec	null_ptr, 		" Attempt to use null -> ...
                                 1-160  	  (Null pointer.),(The pointer ^a is null.)
                        005361          	segdef	null_ptr
    005361  aa   000000 002057          null_ptr:	vfd	36/error_number+1000
    005362  aa   000000 000015          	vfd	36/13
    005363  aa  116 165 154 154         	aci	@Null pointer.@,40
    005364  aa  040 160 157 151
    005365  aa  156 164 145 162
    005366  aa  056 040 040 040
    005367  aa  040 040 040 040
    005370  aa  040 040 040 040
    005371  aa  040 040 040 040
    005372  aa  040 040 040 040
    005373  aa  040 040 040 040
    005374  aa  040 040 040 040
    005375  aa   000000 000027          	vfd	36/23
    005376  aa  124 150 145 040         	aci	@The pointer ^a is null.@,108
    005377  aa  160 157 151 156
    005400  aa  164 145 162 040
    005401  aa  136 141 040 151
    005402  aa  163 040 156 165
    005403  aa  154 154 056 040
    005404  aa  040 040 040 040
    005405  aa  040 040 040 040
    005406  aa  040 040 040 040
    005407  aa  040 040 040 040
    005410  aa  040 040 040 040
    005411  aa  040 040 040 040
    005412  aa  040 040 040 040
    005413  aa  040 040 040 040
    005414  aa  040 040 040 040
    005415  aa  040 040 040 040
    005416  aa  040 040 040 040
    005417  aa  040 040 040 040
    005420  aa  040 040 040 040
    005421  aa  040 040 040 040
    005422  aa  040 040 040 040
    005423  aa  040 040 040 040
    005424  aa  040 040 040 040
    005425  aa  040 040 040 040
    005426  aa  040 040 040 040
    005427  aa  040 040 040 040
    005430  aa  040 040 040 040
                        000110          	set	error_number,error_number+1
                                 1-161  ec	old_break,		" Old style break slot encountered.
                                 1-162  	  (),(Old break ignored. Please 'reset *' and reissue break requests.)
                        005431          	segdef	old_break
    005431  aa   000000 002060          old_break:	vfd	36/error_number+1000
    005432  aa   000000 000000          	vfd	36/0
    005433  aa  040 040 040 040         	aci	@@,40
    005434  aa  040 040 040 040
    005435  aa  040 040 040 040
    005436  aa  040 040 040 040
    005437  aa  040 040 040 040
    005440  aa  040 040 040 040
    005441  aa  040 040 040 040
    005442  aa  040 040 040 040
    005443  aa  040 040 040 040
    005444  aa  040 040 040 040
    005445  aa   000000 000077          	vfd	36/63
    005446  aa  117 154 144 040         	aci	@Old break ignored. Please 'reset *' and reissue break requests.@,108
    005447  aa  142 162 145 141
    005450  aa  153 040 151 147
    005451  aa  156 157 162 145
    005452  aa  144 056 040 120
    005453  aa  154 145 141 163
    005454  aa  145 040 047 162
    005455  aa  145 163 145 164
    005456  aa  040 052 047 040
    005457  aa  141 156 144 040
    005460  aa  162 145 151 163
    005461  aa  163 165 145 040
    005462  aa  142 162 145 141
    005463  aa  153 040 162 145
    005464  aa  161 165 145 163
    005465  aa  164 163 056 040
    005466  aa  040 040 040 040
    005467  aa  040 040 040 040
    005470  aa  040 040 040 040
    005471  aa  040 040 040 040
    005472  aa  040 040 040 040
    005473  aa  040 040 040 040
    005474  aa  040 040 040 040
    005475  aa  040 040 040 040
    005476  aa  040 040 040 040
    005477  aa  040 040 040 040
    005500  aa  040 040 040 040
                        000111          	set	error_number,error_number+1
                                 1-163  ec	old_break_map,		" Old style break map encountered.
                                 1-164  	  (),(Old break map. Please 'reset *' and reissue all break requests.)
                        005501          	segdef	old_break_map
    005501  aa   000000 002061          old_break_map:	vfd	36/error_number+1000
    005502  aa   000000 000000          	vfd	36/0
    005503  aa  040 040 040 040         	aci	@@,40
    005504  aa  040 040 040 040
    005505  aa  040 040 040 040
    005506  aa  040 040 040 040
    005507  aa  040 040 040 040
    005510  aa  040 040 040 040
    005511  aa  040 040 040 040
    005512  aa  040 040 040 040
    005513  aa  040 040 040 040
    005514  aa  040 040 040 040
    005515  aa   000000 000077          	vfd	36/63
    005516  aa  117 154 144 040         	aci	@Old break map. Please 'reset *' and reissue all break requests.@,108
    005517  aa  142 162 145 141
    005520  aa  153 040 155 141
    005521  aa  160 056 040 120
    005522  aa  154 145 141 163
    005523  aa  145 040 047 162
    005524  aa  145 163 145 164
    005525  aa  040 052 047 040
    005526  aa  141 156 144 040
    005527  aa  162 145 151 163
    005530  aa  163 165 145 040
    005531  aa  141 154 154 040
    005532  aa  142 162 145 141
    005533  aa  153 040 162 145
    005534  aa  161 165 145 163
    005535  aa  164 163 056 040
    005536  aa  040 040 040 040
    005537  aa  040 040 040 040
    005540  aa  040 040 040 040
    005541  aa  040 040 040 040
    005542  aa  040 040 040 040
    005543  aa  040 040 040 040
    005544  aa  040 040 040 040
    005545  aa  040 040 040 040
    005546  aa  040 040 040 040
    005547  aa  040 040 040 040
    005550  aa  040 040 040 040
                        000112          	set	error_number,error_number+1
                                 1-165  ec	old_format,		" Old style object map
                                 1-166  	  (Obsolete object segment.),(The object segment is in an obsolete format.)
                        005551          	segdef	old_format
    005551  aa   000000 002062          old_format:	vfd	36/error_number+1000
    005552  aa   000000 000030          	vfd	36/24
    005553  aa  117 142 163 157         	aci	@Obsolete object segment.@,40
    005554  aa  154 145 164 145
    005555  aa  040 157 142 152
    005556  aa  145 143 164 040
    005557  aa  163 145 147 155
    005560  aa  145 156 164 056
    005561  aa  040 040 040 040
    005562  aa  040 040 040 040
    005563  aa  040 040 040 040
    005564  aa  040 040 040 040
    005565  aa   000000 000054          	vfd	36/44
    005566  aa  124 150 145 040         	aci	@The object segment is in an obsolete format.@,108
    005567  aa  157 142 152 145
    005570  aa  143 164 040 163
    005571  aa  145 147 155 145
    005572  aa  156 164 040 151
    005573  aa  163 040 151 156
    005574  aa  040 141 156 040
    005575  aa  157 142 163 157
    005576  aa  154 145 164 145
    005577  aa  040 146 157 162
    005600  aa  155 141 164 056
    005601  aa  040 040 040 040
    005602  aa  040 040 040 040
    005603  aa  040 040 040 040
    005604  aa  040 040 040 040
    005605  aa  040 040 040 040
    005606  aa  040 040 040 040
    005607  aa  040 040 040 040
    005610  aa  040 040 040 040
    005611  aa  040 040 040 040
    005612  aa  040 040 040 040
    005613  aa  040 040 040 040
    005614  aa  040 040 040 040
    005615  aa  040 040 040 040
    005616  aa  040 040 040 040
    005617  aa  040 040 040 040
    005620  aa  040 040 040 040
                        000113          	set	error_number,error_number+1
                                 1-167  ec	print_err,		" One cannot print an area for example
                                 1-168  	  (Cannot display value.),(Cannot display value of ^a.)
                        005621          	segdef	print_err
    005621  aa   000000 002063          print_err:	vfd	36/error_number+1000
    005622  aa   000000 000025          	vfd	36/21
    005623  aa  103 141 156 156         	aci	@Cannot display value.@,40
    005624  aa  157 164 040 144
    005625  aa  151 163 160 154
    005626  aa  141 171 040 166
    005627  aa  141 154 165 145
    005630  aa  056 040 040 040
    005631  aa  040 040 040 040
    005632  aa  040 040 040 040
    005633  aa  040 040 040 040
    005634  aa  040 040 040 040
    005635  aa   000000 000033          	vfd	36/27
    005636  aa  103 141 156 156         	aci	@Cannot display value of ^a.@,108
    005637  aa  157 164 040 144
    005640  aa  151 163 160 154
    005641  aa  141 171 040 166
    005642  aa  141 154 165 145
    005643  aa  040 157 146 040
    005644  aa  136 141 056 040
    005645  aa  040 040 040 040
    005646  aa  040 040 040 040
    005647  aa  040 040 040 040
    005650  aa  040 040 040 040
    005651  aa  040 040 040 040
    005652  aa  040 040 040 040
    005653  aa  040 040 040 040
    005654  aa  040 040 040 040
    005655  aa  040 040 040 040
    005656  aa  040 040 040 040
    005657  aa  040 040 040 040
    005660  aa  040 040 040 040
    005661  aa  040 040 040 040
    005662  aa  040 040 040 040
    005663  aa  040 040 040 040
    005664  aa  040 040 040 040
    005665  aa  040 040 040 040
    005666  aa  040 040 040 040
    005667  aa  040 040 040 040
    005670  aa  040 040 040 040
                        000114          	set	error_number,error_number+1
                                 1-169  ec	program_interrupt,		" Just used to indicate pi by user
                                 1-170  	  (),(Internal status code: program_interrupt signalled.)
                        005671          	segdef	program_interrupt
    005671  aa   000000 002064          program_interrupt:	vfd	36/error_number+1000
    005672  aa   000000 000000          	vfd	36/0
    005673  aa  040 040 040 040         	aci	@@,40
    005674  aa  040 040 040 040
    005675  aa  040 040 040 040
    005676  aa  040 040 040 040
    005677  aa  040 040 040 040
    005700  aa  040 040 040 040
    005701  aa  040 040 040 040
    005702  aa  040 040 040 040
    005703  aa  040 040 040 040
    005704  aa  040 040 040 040
    005705  aa   000000 000062          	vfd	36/50
    005706  aa  111 156 164 145         	aci	@Internal status code: program_interrupt signalled.@,108
    005707  aa  162 156 141 154
    005710  aa  040 163 164 141
    005711  aa  164 165 163 040
    005712  aa  143 157 144 145
    005713  aa  072 040 160 162
    005714  aa  157 147 162 141
    005715  aa  155 137 151 156
    005716  aa  164 145 162 162
    005717  aa  165 160 164 040
    005720  aa  163 151 147 156
    005721  aa  141 154 154 145
    005722  aa  144 056 040 040
    005723  aa  040 040 040 040
    005724  aa  040 040 040 040
    005725  aa  040 040 040 040
    005726  aa  040 040 040 040
    005727  aa  040 040 040 040
    005730  aa  040 040 040 040
    005731  aa  040 040 040 040
    005732  aa  040 040 040 040
    005733  aa  040 040 040 040
    005734  aa  040 040 040 040
    005735  aa  040 040 040 040
    005736  aa  040 040 040 040
    005737  aa  040 040 040 040
    005740  aa  040 040 040 040
                        000115          	set	error_number,error_number+1
                                 1-171  ec	ptr_condition,		" Something bad like fault_tag_1 happened
                                 1-172  	  (),(Condition ^a occurred. Possible invalid pointer.)
                        005741          	segdef	ptr_condition
    005741  aa   000000 002065          ptr_condition:	vfd	36/error_number+1000
    005742  aa   000000 000000          	vfd	36/0
    005743  aa  040 040 040 040         	aci	@@,40
    005744  aa  040 040 040 040
    005745  aa  040 040 040 040
    005746  aa  040 040 040 040
    005747  aa  040 040 040 040
    005750  aa  040 040 040 040
    005751  aa  040 040 040 040
    005752  aa  040 040 040 040
    005753  aa  040 040 040 040
    005754  aa  040 040 040 040
    005755  aa   000000 000060          	vfd	36/48
    005756  aa  103 157 156 144         	aci	@Condition ^a occurred. Possible invalid pointer.@,108
    005757  aa  151 164 151 157
    005760  aa  156 040 136 141
    005761  aa  040 157 143 143
    005762  aa  165 162 162 145
    005763  aa  144 056 040 120
    005764  aa  157 163 163 151
    005765  aa  142 154 145 040
    005766  aa  151 156 166 141
    005767  aa  154 151 144 040
    005770  aa  160 157 151 156
    005771  aa  164 145 162 056
    005772  aa  040 040 040 040
    005773  aa  040 040 040 040
    005774  aa  040 040 040 040
    005775  aa  040 040 040 040
    005776  aa  040 040 040 040
    005777  aa  040 040 040 040
    006000  aa  040 040 040 040
    006001  aa  040 040 040 040
    006002  aa  040 040 040 040
    006003  aa  040 040 040 040
    006004  aa  040 040 040 040
    006005  aa  040 040 040 040
    006006  aa  040 040 040 040
    006007  aa  040 040 040 040
    006010  aa  040 040 040 040
                        000116          	set	error_number,error_number+1
                                 1-173  ec	recorded_message,		" Special internal code indicating message left by previous program
                                 1-174  	  (),(Internal status code: A previous routine has left a message for later printing.)
                        006011          	segdef	recorded_message
    006011  aa   000000 002066          recorded_message:	vfd	36/error_number+1000
    006012  aa   000000 000000          	vfd	36/0
    006013  aa  040 040 040 040         	aci	@@,40
    006014  aa  040 040 040 040
    006015  aa  040 040 040 040
    006016  aa  040 040 040 040
    006017  aa  040 040 040 040
    006020  aa  040 040 040 040
    006021  aa  040 040 040 040
    006022  aa  040 040 040 040
    006023  aa  040 040 040 040
    006024  aa  040 040 040 040
    006025  aa   000000 000117          	vfd	36/79
    006026  aa  111 156 164 145         	aci	@Internal status code: A previous routine has left a message for later printing.@,108
    006027  aa  162 156 141 154
    006030  aa  040 163 164 141
    006031  aa  164 165 163 040
    006032  aa  143 157 144 145
    006033  aa  072 040 101 040
    006034  aa  160 162 145 166
    006035  aa  151 157 165 163
    006036  aa  040 162 157 165
    006037  aa  164 151 156 145
    006040  aa  040 150 141 163
    006041  aa  040 154 145 146
    006042  aa  164 040 141 040
    006043  aa  155 145 163 163
    006044  aa  141 147 145 040
    006045  aa  146 157 162 040
    006046  aa  154 141 164 145
    006047  aa  162 040 160 162
    006050  aa  151 156 164 151
    006051  aa  156 147 056 040
    006052  aa  040 040 040 040
    006053  aa  040 040 040 040
    006054  aa  040 040 040 040
    006055  aa  040 040 040 040
    006056  aa  040 040 040 040
    006057  aa  040 040 040 040
    006060  aa  040 040 040 040
                        000117          	set	error_number,error_number+1
                                 1-175  ec	rotten_ptr,		" Does not look like an its pointer
                                 1-176  	  (),(Invalid pointer.)
                        006061          	segdef	rotten_ptr
    006061  aa   000000 002067          rotten_ptr:	vfd	36/error_number+1000
    006062  aa   000000 000000          	vfd	36/0
    006063  aa  040 040 040 040         	aci	@@,40
    006064  aa  040 040 040 040
    006065  aa  040 040 040 040
    006066  aa  040 040 040 040
    006067  aa  040 040 040 040
    006070  aa  040 040 040 040
    006071  aa  040 040 040 040
    006072  aa  040 040 040 040
    006073  aa  040 040 040 040
    006074  aa  040 040 040 040
    006075  aa   000000 000020          	vfd	36/16
    006076  aa  111 156 166 141         	aci	@Invalid pointer.@,108
    006077  aa  154 151 144 040
    006100  aa  160 157 151 156
    006101  aa  164 145 162 056
    006102  aa  040 040 040 040
    006103  aa  040 040 040 040
    006104  aa  040 040 040 040
    006105  aa  040 040 040 040
    006106  aa  040 040 040 040
    006107  aa  040 040 040 040
    006110  aa  040 040 040 040
    006111  aa  040 040 040 040
    006112  aa  040 040 040 040
    006113  aa  040 040 040 040
    006114  aa  040 040 040 040
    006115  aa  040 040 040 040
    006116  aa  040 040 040 040
    006117  aa  040 040 040 040
    006120  aa  040 040 040 040
    006121  aa  040 040 040 040
    006122  aa  040 040 040 040
    006123  aa  040 040 040 040
    006124  aa  040 040 040 040
    006125  aa  040 040 040 040
    006126  aa  040 040 040 040
    006127  aa  040 040 040 040
    006130  aa  040 040 040 040
                        000120          	set	error_number,error_number+1
                                 1-177  ec	stmt_guess,		" Making a guess for line number
                                 1-178  	  (Using ^a.),(Using ^a instead.)
                        006131          	segdef	stmt_guess
    006131  aa   000000 002070          stmt_guess:	vfd	36/error_number+1000
    006132  aa   000000 000011          	vfd	36/9
    006133  aa  125 163 151 156         	aci	@Using ^a.@,40
    006134  aa  147 040 136 141
    006135  aa  056 040 040 040
    006136  aa  040 040 040 040
    006137  aa  040 040 040 040
    006140  aa  040 040 040 040
    006141  aa  040 040 040 040
    006142  aa  040 040 040 040
    006143  aa  040 040 040 040
    006144  aa  040 040 040 040
    006145  aa   000000 000021          	vfd	36/17
    006146  aa  125 163 151 156         	aci	@Using ^a instead.@,108
    006147  aa  147 040 136 141
    006150  aa  040 151 156 163
    006151  aa  164 145 141 144
    006152  aa  056 040 040 040
    006153  aa  040 040 040 040
    006154  aa  040 040 040 040
    006155  aa  040 040 040 040
    006156  aa  040 040 040 040
    006157  aa  040 040 040 040
    006160  aa  040 040 040 040
    006161  aa  040 040 040 040
    006162  aa  040 040 040 040
    006163  aa  040 040 040 040
    006164  aa  040 040 040 040
    006165  aa  040 040 040 040
    006166  aa  040 040 040 040
    006167  aa  040 040 040 040
    006170  aa  040 040 040 040
    006171  aa  040 040 040 040
    006172  aa  040 040 040 040
    006173  aa  040 040 040 040
    006174  aa  040 040 040 040
    006175  aa  040 040 040 040
    006176  aa  040 040 040 040
    006177  aa  040 040 040 040
    006200  aa  040 040 040 040
                        000121          	set	error_number,error_number+1
                                 1-179  ec	string_long,		" Temporary string has more than 256 characters
                                 1-180  	  (),(Temporary strings cannot execeed 256 characters.)
                        006201          	segdef	string_long
    006201  aa   000000 002071          string_long:	vfd	36/error_number+1000
    006202  aa   000000 000000          	vfd	36/0
    006203  aa  040 040 040 040         	aci	@@,40
    006204  aa  040 040 040 040
    006205  aa  040 040 040 040
    006206  aa  040 040 040 040
    006207  aa  040 040 040 040
    006210  aa  040 040 040 040
    006211  aa  040 040 040 040
    006212  aa  040 040 040 040
    006213  aa  040 040 040 040
    006214  aa  040 040 040 040
    006215  aa   000000 000060          	vfd	36/48
    006216  aa  124 145 155 160         	aci	@Temporary strings cannot execeed 256 characters.@,108
    006217  aa  157 162 141 162
    006220  aa  171 040 163 164
    006221  aa  162 151 156 147
    006222  aa  163 040 143 141
    006223  aa  156 156 157 164
    006224  aa  040 145 170 145
    006225  aa  143 145 145 144
    006226  aa  040 062 065 066
    006227  aa  040 143 150 141
    006230  aa  162 141 143 164
    006231  aa  145 162 163 056
    006232  aa  040 040 040 040
    006233  aa  040 040 040 040
    006234  aa  040 040 040 040
    006235  aa  040 040 040 040
    006236  aa  040 040 040 040
    006237  aa  040 040 040 040
    006240  aa  040 040 040 040
    006241  aa  040 040 040 040
    006242  aa  040 040 040 040
    006243  aa  040 040 040 040
    006244  aa  040 040 040 040
    006245  aa  040 040 040 040
    006246  aa  040 040 040 040
    006247  aa  040 040 040 040
    006250  aa  040 040 040 040
                        000122          	set	error_number,error_number+1
                                 1-181  ec	string_search_failed,	" Couldn't ps "foo"
                                 1-182  	  (Search failed.),(String search failed.)
                        006251          	segdef	string_search_failed
    006251  aa   000000 002072          string_search_failed:	vfd	36/error_number+1000
    006252  aa   000000 000016          	vfd	36/14
    006253  aa  123 145 141 162         	aci	@Search failed.@,40
    006254  aa  143 150 040 146
    006255  aa  141 151 154 145
    006256  aa  144 056 040 040
    006257  aa  040 040 040 040
    006260  aa  040 040 040 040
    006261  aa  040 040 040 040
    006262  aa  040 040 040 040
    006263  aa  040 040 040 040
    006264  aa  040 040 040 040
    006265  aa   000000 000025          	vfd	36/21
    006266  aa  123 164 162 151         	aci	@String search failed.@,108
    006267  aa  156 147 040 163
    006270  aa  145 141 162 143
    006271  aa  150 040 146 141
    006272  aa  151 154 145 144
    006273  aa  056 040 040 040
    006274  aa  040 040 040 040
    006275  aa  040 040 040 040
    006276  aa  040 040 040 040
    006277  aa  040 040 040 040
    006300  aa  040 040 040 040
    006301  aa  040 040 040 040
    006302  aa  040 040 040 040
    006303  aa  040 040 040 040
    006304  aa  040 040 040 040
    006305  aa  040 040 040 040
    006306  aa  040 040 040 040
    006307  aa  040 040 040 040
    006310  aa  040 040 040 040
    006311  aa  040 040 040 040
    006312  aa  040 040 040 040
    006313  aa  040 040 040 040
    006314  aa  040 040 040 040
    006315  aa  040 040 040 040
    006316  aa  040 040 040 040
    006317  aa  040 040 040 040
    006320  aa  040 040 040 040
                        000123          	set	error_number,error_number+1
                                 1-183  ec	struc_arg,		" Structure argument used
                                 1-184  	  (),(Restriction: structures are not permitted in calls.)
                        006321          	segdef	struc_arg
    006321  aa   000000 002073          struc_arg:	vfd	36/error_number+1000
    006322  aa   000000 000000          	vfd	36/0
    006323  aa  040 040 040 040         	aci	@@,40
    006324  aa  040 040 040 040
    006325  aa  040 040 040 040
    006326  aa  040 040 040 040
    006327  aa  040 040 040 040
    006330  aa  040 040 040 040
    006331  aa  040 040 040 040
    006332  aa  040 040 040 040
    006333  aa  040 040 040 040
    006334  aa  040 040 040 040
    006335  aa   000000 000063          	vfd	36/51
    006336  aa  122 145 163 164         	aci	@Restriction: structures are not permitted in calls.@,108
    006337  aa  162 151 143 164
    006340  aa  151 157 156 072
    006341  aa  040 163 164 162
    006342  aa  165 143 164 165
    006343  aa  162 145 163 040
    006344  aa  141 162 145 040
    006345  aa  156 157 164 040
    006346  aa  160 145 162 155
    006347  aa  151 164 164 145
    006350  aa  144 040 151 156
    006351  aa  040 143 141 154
    006352  aa  154 163 056 040
    006353  aa  040 040 040 040
    006354  aa  040 040 040 040
    006355  aa  040 040 040 040
    006356  aa  040 040 040 040
    006357  aa  040 040 040 040
    006360  aa  040 040 040 040
    006361  aa  040 040 040 040
    006362  aa  040 040 040 040
    006363  aa  040 040 040 040
    006364  aa  040 040 040 040
    006365  aa  040 040 040 040
    006366  aa  040 040 040 040
    006367  aa  040 040 040 040
    006370  aa  040 040 040 040
                        000124          	set	error_number,error_number+1
                                 1-185  ec	syntax_error,		" Syntax error in request -- replaced syntax_err and bad_syntax
                                 1-186  	  (),(Syntax error.)
                        006371          	segdef	syntax_error
    006371  aa   000000 002074          syntax_error:	vfd	36/error_number+1000
    006372  aa   000000 000000          	vfd	36/0
    006373  aa  040 040 040 040         	aci	@@,40
    006374  aa  040 040 040 040
    006375  aa  040 040 040 040
    006376  aa  040 040 040 040
    006377  aa  040 040 040 040
    006400  aa  040 040 040 040
    006401  aa  040 040 040 040
    006402  aa  040 040 040 040
    006403  aa  040 040 040 040
    006404  aa  040 040 040 040
    006405  aa   000000 000015          	vfd	36/13
    006406  aa  123 171 156 164         	aci	@Syntax error.@,108
    006407  aa  141 170 040 145
    006410  aa  162 162 157 162
    006411  aa  056 040 040 040
    006412  aa  040 040 040 040
    006413  aa  040 040 040 040
    006414  aa  040 040 040 040
    006415  aa  040 040 040 040
    006416  aa  040 040 040 040
    006417  aa  040 040 040 040
    006420  aa  040 040 040 040
    006421  aa  040 040 040 040
    006422  aa  040 040 040 040
    006423  aa  040 040 040 040
    006424  aa  040 040 040 040
    006425  aa  040 040 040 040
    006426  aa  040 040 040 040
    006427  aa  040 040 040 040
    006430  aa  040 040 040 040
    006431  aa  040 040 040 040
    006432  aa  040 040 040 040
    006433  aa  040 040 040 040
    006434  aa  040 040 040 040
    006435  aa  040 040 040 040
    006436  aa  040 040 040 040
    006437  aa  040 040 040 040
    006440  aa  040 040 040 040
                        000125          	set	error_number,error_number+1
                                 1-187  ec	too_complex,		" Nesting of command lists is too great
                                 1-188  	  (Nesting level is too great.),(Nesting of command lists exceeds 32 levels.)
                        006441          	segdef	too_complex
    006441  aa   000000 002075          too_complex:	vfd	36/error_number+1000
    006442  aa   000000 000033          	vfd	36/27
    006443  aa  116 145 163 164         	aci	@Nesting level is too great.@,40
    006444  aa  151 156 147 040
    006445  aa  154 145 166 145
    006446  aa  154 040 151 163
    006447  aa  040 164 157 157
    006450  aa  040 147 162 145
    006451  aa  141 164 056 040
    006452  aa  040 040 040 040
    006453  aa  040 040 040 040
    006454  aa  040 040 040 040
    006455  aa   000000 000053          	vfd	36/43
    006456  aa  116 145 163 164         	aci	@Nesting of command lists exceeds 32 levels.@,108
    006457  aa  151 156 147 040
    006460  aa  157 146 040 143
    006461  aa  157 155 155 141
    006462  aa  156 144 040 154
    006463  aa  151 163 164 163
    006464  aa  040 145 170 143
    006465  aa  145 145 144 163
    006466  aa  040 063 062 040
    006467  aa  154 145 166 145
    006470  aa  154 163 056 040
    006471  aa  040 040 040 040
    006472  aa  040 040 040 040
    006473  aa  040 040 040 040
    006474  aa  040 040 040 040
    006475  aa  040 040 040 040
    006476  aa  040 040 040 040
    006477  aa  040 040 040 040
    006500  aa  040 040 040 040
    006501  aa  040 040 040 040
    006502  aa  040 040 040 040
    006503  aa  040 040 040 040
    006504  aa  040 040 040 040
    006505  aa  040 040 040 040
    006506  aa  040 040 040 040
    006507  aa  040 040 040 040
    006510  aa  040 040 040 040
                        000126          	set	error_number,error_number+1
                                 1-189  ec	too_long, 		" Name length > 256
                                 1-190  	  (Identifier too long.),(Identifier name is greater than 256 characters.)
                        006511          	segdef	too_long
    006511  aa   000000 002076          too_long:	vfd	36/error_number+1000
    006512  aa   000000 000024          	vfd	36/20
    006513  aa  111 144 145 156         	aci	@Identifier too long.@,40
    006514  aa  164 151 146 151
    006515  aa  145 162 040 164
    006516  aa  157 157 040 154
    006517  aa  157 156 147 056
    006520  aa  040 040 040 040
    006521  aa  040 040 040 040
    006522  aa  040 040 040 040
    006523  aa  040 040 040 040
    006524  aa  040 040 040 040
    006525  aa   000000 000057          	vfd	36/47
    006526  aa  111 144 145 156         	aci	@Identifier name is greater than 256 characters.@,108
    006527  aa  164 151 146 151
    006530  aa  145 162 040 156
    006531  aa  141 155 145 040
    006532  aa  151 163 040 147
    006533  aa  162 145 141 164
    006534  aa  145 162 040 164
    006535  aa  150 141 156 040
    006536  aa  062 065 066 040
    006537  aa  143 150 141 162
    006540  aa  141 143 164 145
    006541  aa  162 163 056 040
    006542  aa  040 040 040 040
    006543  aa  040 040 040 040
    006544  aa  040 040 040 040
    006545  aa  040 040 040 040
    006546  aa  040 040 040 040
    006547  aa  040 040 040 040
    006550  aa  040 040 040 040
    006551  aa  040 040 040 040
    006552  aa  040 040 040 040
    006553  aa  040 040 040 040
    006554  aa  040 040 040 040
    006555  aa  040 040 040 040
    006556  aa  040 040 040 040
    006557  aa  040 040 040 040
    006560  aa  040 040 040 040
                        000127          	set	error_number,error_number+1
                                 1-191  ec	too_many_args,		" cruft sitting at the end
                                 1-192  	  (),(Too many arguments for this request.)
                        006561          	segdef	too_many_args
    006561  aa   000000 002077          too_many_args:	vfd	36/error_number+1000
    006562  aa   000000 000000          	vfd	36/0
    006563  aa  040 040 040 040         	aci	@@,40
    006564  aa  040 040 040 040
    006565  aa  040 040 040 040
    006566  aa  040 040 040 040
    006567  aa  040 040 040 040
    006570  aa  040 040 040 040
    006571  aa  040 040 040 040
    006572  aa  040 040 040 040
    006573  aa  040 040 040 040
    006574  aa  040 040 040 040
    006575  aa   000000 000044          	vfd	36/36
    006576  aa  124 157 157 040         	aci	@Too many arguments for this request.@,108
    006577  aa  155 141 156 171
    006600  aa  040 141 162 147
    006601  aa  165 155 145 156
    006602  aa  164 163 040 146
    006603  aa  157 162 040 164
    006604  aa  150 151 163 040
    006605  aa  162 145 161 165
    006606  aa  145 163 164 056
    006607  aa  040 040 040 040
    006610  aa  040 040 040 040
    006611  aa  040 040 040 040
    006612  aa  040 040 040 040
    006613  aa  040 040 040 040
    006614  aa  040 040 040 040
    006615  aa  040 040 040 040
    006616  aa  040 040 040 040
    006617  aa  040 040 040 040
    006620  aa  040 040 040 040
    006621  aa  040 040 040 040
    006622  aa  040 040 040 040
    006623  aa  040 040 040 040
    006624  aa  040 040 040 040
    006625  aa  040 040 040 040
    006626  aa  040 040 040 040
    006627  aa  040 040 040 040
    006630  aa  040 040 040 040
                        000130          	set	error_number,error_number+1
                                 1-193  ec	too_many_levels,		" Number of structure levels in name > 64
                                 1-194  	  (Too many structure levels.),(Too many structure levels in ^a.)
                        006631          	segdef	too_many_levels
    006631  aa   000000 002100          too_many_levels:	vfd	36/error_number+1000
    006632  aa   000000 000032          	vfd	36/26
    006633  aa  124 157 157 040         	aci	@Too many structure levels.@,40
    006634  aa  155 141 156 171
    006635  aa  040 163 164 162
    006636  aa  165 143 164 165
    006637  aa  162 145 040 154
    006640  aa  145 166 145 154
    006641  aa  163 056 040 040
    006642  aa  040 040 040 040
    006643  aa  040 040 040 040
    006644  aa  040 040 040 040
    006645  aa   000000 000040          	vfd	36/32
    006646  aa  124 157 157 040         	aci	@Too many structure levels in ^a.@,108
    006647  aa  155 141 156 171
    006650  aa  040 163 164 162
    006651  aa  165 143 164 165
    006652  aa  162 145 040 154
    006653  aa  145 166 145 154
    006654  aa  163 040 151 156
    006655  aa  040 136 141 056
    006656  aa  040 040 040 040
    006657  aa  040 040 040 040
    006660  aa  040 040 040 040
    006661  aa  040 040 040 040
    006662  aa  040 040 040 040
    006663  aa  040 040 040 040
    006664  aa  040 040 040 040
    006665  aa  040 040 040 040
    006666  aa  040 040 040 040
    006667  aa  040 040 040 040
    006670  aa  040 040 040 040
    006671  aa  040 040 040 040
    006672  aa  040 040 040 040
    006673  aa  040 040 040 040
    006674  aa  040 040 040 040
    006675  aa  040 040 040 040
    006676  aa  040 040 040 040
    006677  aa  040 040 040 040
    006700  aa  040 040 040 040
                        000131          	set	error_number,error_number+1
                                 1-195  ec	unbalanced_parens,		" Parentheses in command lists do not balance
                                 1-196  	  (),(Parentheses do not balance.)
                        006701          	segdef	unbalanced_parens
    006701  aa   000000 002101          unbalanced_parens:	vfd	36/error_number+1000
    006702  aa   000000 000000          	vfd	36/0
    006703  aa  040 040 040 040         	aci	@@,40
    006704  aa  040 040 040 040
    006705  aa  040 040 040 040
    006706  aa  040 040 040 040
    006707  aa  040 040 040 040
    006710  aa  040 040 040 040
    006711  aa  040 040 040 040
    006712  aa  040 040 040 040
    006713  aa  040 040 040 040
    006714  aa  040 040 040 040
    006715  aa   000000 000033          	vfd	36/27
    006716  aa  120 141 162 145         	aci	@Parentheses do not balance.@,108
    006717  aa  156 164 150 145
    006720  aa  163 145 163 040
    006721  aa  144 157 040 156
    006722  aa  157 164 040 142
    006723  aa  141 154 141 156
    006724  aa  143 145 056 040
    006725  aa  040 040 040 040
    006726  aa  040 040 040 040
    006727  aa  040 040 040 040
    006730  aa  040 040 040 040
    006731  aa  040 040 040 040
    006732  aa  040 040 040 040
    006733  aa  040 040 040 040
    006734  aa  040 040 040 040
    006735  aa  040 040 040 040
    006736  aa  040 040 040 040
    006737  aa  040 040 040 040
    006740  aa  040 040 040 040
    006741  aa  040 040 040 040
    006742  aa  040 040 040 040
    006743  aa  040 040 040 040
    006744  aa  040 040 040 040
    006745  aa  040 040 040 040
    006746  aa  040 040 040 040
    006747  aa  040 040 040 040
    006750  aa  040 040 040 040
                        000132          	set	error_number,error_number+1
                                 1-197  ec	unbalanced_quotes,		" An input line cannot end in open quotes
                                 1-198  	  (),(Unbalanced quotes.)
                        006751          	segdef	unbalanced_quotes
    006751  aa   000000 002102          unbalanced_quotes:	vfd	36/error_number+1000
    006752  aa   000000 000000          	vfd	36/0
    006753  aa  040 040 040 040         	aci	@@,40
    006754  aa  040 040 040 040
    006755  aa  040 040 040 040
    006756  aa  040 040 040 040
    006757  aa  040 040 040 040
    006760  aa  040 040 040 040
    006761  aa  040 040 040 040
    006762  aa  040 040 040 040
    006763  aa  040 040 040 040
    006764  aa  040 040 040 040
    006765  aa   000000 000022          	vfd	36/18
    006766  aa  125 156 142 141         	aci	@Unbalanced quotes.@,108
    006767  aa  154 141 156 143
    006770  aa  145 144 040 161
    006771  aa  165 157 164 145
    006772  aa  163 056 040 040
    006773  aa  040 040 040 040
    006774  aa  040 040 040 040
    006775  aa  040 040 040 040
    006776  aa  040 040 040 040
    006777  aa  040 040 040 040
    007000  aa  040 040 040 040
    007001  aa  040 040 040 040
    007002  aa  040 040 040 040
    007003  aa  040 040 040 040
    007004  aa  040 040 040 040
    007005  aa  040 040 040 040
    007006  aa  040 040 040 040
    007007  aa  040 040 040 040
    007010  aa  040 040 040 040
    007011  aa  040 040 040 040
    007012  aa  040 040 040 040
    007013  aa  040 040 040 040
    007014  aa  040 040 040 040
    007015  aa  040 040 040 040
    007016  aa  040 040 040 040
    007017  aa  040 040 040 040
    007020  aa  040 040 040 040
                        000133          	set	error_number,error_number+1
                                 1-199  ec	unimplemented_request,	" Just what it says.
                                 1-200  	  (),(This request has not yet been implemented.)
                        007021          	segdef	unimplemented_request
    007021  aa   000000 002103          unimplemented_request:	vfd	36/error_number+1000
    007022  aa   000000 000000          	vfd	36/0
    007023  aa  040 040 040 040         	aci	@@,40
    007024  aa  040 040 040 040
    007025  aa  040 040 040 040
    007026  aa  040 040 040 040
    007027  aa  040 040 040 040
    007030  aa  040 040 040 040
    007031  aa  040 040 040 040
    007032  aa  040 040 040 040
    007033  aa  040 040 040 040
    007034  aa  040 040 040 040
    007035  aa   000000 000052          	vfd	36/42
    007036  aa  124 150 151 163         	aci	@This request has not yet been implemented.@,108
    007037  aa  040 162 145 161
    007040  aa  165 145 163 164
    007041  aa  040 150 141 163
    007042  aa  040 156 157 164
    007043  aa  040 171 145 164
    007044  aa  040 142 145 145
    007045  aa  156 040 151 155
    007046  aa  160 154 145 155
    007047  aa  145 156 164 145
    007050  aa  144 056 040 040
    007051  aa  040 040 040 040
    007052  aa  040 040 040 040
    007053  aa  040 040 040 040
    007054  aa  040 040 040 040
    007055  aa  040 040 040 040
    007056  aa  040 040 040 040
    007057  aa  040 040 040 040
    007060  aa  040 040 040 040
    007061  aa  040 040 040 040
    007062  aa  040 040 040 040
    007063  aa  040 040 040 040
    007064  aa  040 040 040 040
    007065  aa  040 040 040 040
    007066  aa  040 040 040 040
    007067  aa  040 040 040 040
    007070  aa  040 040 040 040
                        000134          	set	error_number,error_number+1
                                 1-201  ec	unknown_request,		" Again, just what it says.
                                 1-202  	  (),(Unknown request.)
                        007071          	segdef	unknown_request
    007071  aa   000000 002104          unknown_request:	vfd	36/error_number+1000
    007072  aa   000000 000000          	vfd	36/0
    007073  aa  040 040 040 040         	aci	@@,40
    007074  aa  040 040 040 040
    007075  aa  040 040 040 040
    007076  aa  040 040 040 040
    007077  aa  040 040 040 040
    007100  aa  040 040 040 040
    007101  aa  040 040 040 040
    007102  aa  040 040 040 040
    007103  aa  040 040 040 040
    007104  aa  040 040 040 040
    007105  aa   000000 000020          	vfd	36/16
    007106  aa  125 156 153 156         	aci	@Unknown request.@,108
    007107  aa  157 167 156 040
    007110  aa  162 145 161 165
    007111  aa  145 163 164 056
    007112  aa  040 040 040 040
    007113  aa  040 040 040 040
    007114  aa  040 040 040 040
    007115  aa  040 040 040 040
    007116  aa  040 040 040 040
    007117  aa  040 040 040 040
    007120  aa  040 040 040 040
    007121  aa  040 040 040 040
    007122  aa  040 040 040 040
    007123  aa  040 040 040 040
    007124  aa  040 040 040 040
    007125  aa  040 040 040 040
    007126  aa  040 040 040 040
    007127  aa  040 040 040 040
    007130  aa  040 040 040 040
    007131  aa  040 040 040 040
    007132  aa  040 040 040 040
    007133  aa  040 040 040 040
    007134  aa  040 040 040 040
    007135  aa  040 040 040 040
    007136  aa  040 040 040 040
    007137  aa  040 040 040 040
    007140  aa  040 040 040 040
                        000135          	set	error_number,error_number+1
                                 1-203  ec	var_doesnt_exist,		" asked for probe variable
                                 1-204  	(Variable doesn't exist.),(No probe variable named ^a.)
                        007141          	segdef	var_doesnt_exist
    007141  aa   000000 002105          var_doesnt_exist:	vfd	36/error_number+1000
    007142  aa   000000 000027          	vfd	36/23
    007143  aa  126 141 162 151         	aci	@Variable doesn't exist.@,40
    007144  aa  141 142 154 145
    007145  aa  040 144 157 145
    007146  aa  163 156 047 164
    007147  aa  040 145 170 151
    007150  aa  163 164 056 040
    007151  aa  040 040 040 040
    007152  aa  040 040 040 040
    007153  aa  040 040 040 040
    007154  aa  040 040 040 040
    007155  aa   000000 000033          	vfd	36/27
    007156  aa  116 157 040 160         	aci	@No probe variable named ^a.@,108
    007157  aa  162 157 142 145
    007160  aa  040 166 141 162
    007161  aa  151 141 142 154
    007162  aa  145 040 156 141
    007163  aa  155 145 144 040
    007164  aa  136 141 056 040
    007165  aa  040 040 040 040
    007166  aa  040 040 040 040
    007167  aa  040 040 040 040
    007170  aa  040 040 040 040
    007171  aa  040 040 040 040
    007172  aa  040 040 040 040
    007173  aa  040 040 040 040
    007174  aa  040 040 040 040
    007175  aa  040 040 040 040
    007176  aa  040 040 040 040
    007177  aa  040 040 040 040
    007200  aa  040 040 040 040
    007201  aa  040 040 040 040
    007202  aa  040 040 040 040
    007203  aa  040 040 040 040
    007204  aa  040 040 040 040
    007205  aa  040 040 040 040
    007206  aa  040 040 040 040
    007207  aa  040 040 040 040
    007210  aa  040 040 040 040
                        000136          	set	error_number,error_number+1
                                 1-205  ec	var_exists,		" already exists? rename it
                                 1-206  	(Variable already exists.),(There already is a variable named ^a.)
                        007211          	segdef	var_exists
    007211  aa   000000 002106          var_exists:	vfd	36/error_number+1000
    007212  aa   000000 000030          	vfd	36/24
    007213  aa  126 141 162 151         	aci	@Variable already exists.@,40
    007214  aa  141 142 154 145
    007215  aa  040 141 154 162
    007216  aa  145 141 144 171
    007217  aa  040 145 170 151
    007220  aa  163 164 163 056
    007221  aa  040 040 040 040
    007222  aa  040 040 040 040
    007223  aa  040 040 040 040
    007224  aa  040 040 040 040
    007225  aa   000000 000045          	vfd	36/37
    007226  aa  124 150 145 162         	aci	@There already is a variable named ^a.@,108
    007227  aa  145 040 141 154
    007230  aa  162 145 141 144
    007231  aa  171 040 151 163
    007232  aa  040 141 040 166
    007233  aa  141 162 151 141
    007234  aa  142 154 145 040
    007235  aa  156 141 155 145
    007236  aa  144 040 136 141
    007237  aa  056 040 040 040
    007240  aa  040 040 040 040
    007241  aa  040 040 040 040
    007242  aa  040 040 040 040
    007243  aa  040 040 040 040
    007244  aa  040 040 040 040
    007245  aa  040 040 040 040
    007246  aa  040 040 040 040
    007247  aa  040 040 040 040
    007250  aa  040 040 040 040
    007251  aa  040 040 040 040
    007252  aa  040 040 040 040
    007253  aa  040 040 040 040
    007254  aa  040 040 040 040
    007255  aa  040 040 040 040
    007256  aa  040 040 040 040
    007257  aa  040 040 040 040
    007260  aa  040 040 040 040
                        000137          	set	error_number,error_number+1
                                 1-207  ec	wrong_dims,		" Wrong number of dimensions for symbol
                                 1-208  	  (Wrong number of dimensions.),(Wrong number of dimensions for ^a.)
                        007261          	segdef	wrong_dims
    007261  aa   000000 002107          wrong_dims:	vfd	36/error_number+1000
    007262  aa   000000 000033          	vfd	36/27
    007263  aa  127 162 157 156         	aci	@Wrong number of dimensions.@,40
    007264  aa  147 040 156 165
    007265  aa  155 142 145 162
    007266  aa  040 157 146 040
    007267  aa  144 151 155 145
    007270  aa  156 163 151 157
    007271  aa  156 163 056 040
    007272  aa  040 040 040 040
    007273  aa  040 040 040 040
    007274  aa  040 040 040 040
    007275  aa   000000 000042          	vfd	36/34
    007276  aa  127 162 157 156         	aci	@Wrong number of dimensions for ^a.@,108
    007277  aa  147 040 156 165
    007300  aa  155 142 145 162
    007301  aa  040 157 146 040
    007302  aa  144 151 155 145
    007303  aa  156 163 151 157
    007304  aa  156 163 040 146
    007305  aa  157 162 040 136
    007306  aa  141 056 040 040
    007307  aa  040 040 040 040
    007310  aa  040 040 040 040
    007311  aa  040 040 040 040
    007312  aa  040 040 040 040
    007313  aa  040 040 040 040
    007314  aa  040 040 040 040
    007315  aa  040 040 040 040
    007316  aa  040 040 040 040
    007317  aa  040 040 040 040
    007320  aa  040 040 040 040
    007321  aa  040 040 040 040
    007322  aa  040 040 040 040
    007323  aa  040 040 040 040
    007324  aa  040 040 040 040
    007325  aa  040 040 040 040
    007326  aa  040 040 040 040
    007327  aa  040 040 040 040
    007330  aa  040 040 040 040
                        000140          	set	error_number,error_number+1
                                 1-209  ec	wrong_no_args,		" Wrong number of arguments supplied to procedure
                                 1-210  	  (Wrong number of arguments.),(Wrong number of arguments supplied to ^a.)
                        007331          	segdef	wrong_no_args
    007331  aa   000000 002110          wrong_no_args:	vfd	36/error_number+1000
    007332  aa   000000 000032          	vfd	36/26
    007333  aa  127 162 157 156         	aci	@Wrong number of arguments.@,40
    007334  aa  147 040 156 165
    007335  aa  155 142 145 162
    007336  aa  040 157 146 040
    007337  aa  141 162 147 165
    007340  aa  155 145 156 164
    007341  aa  163 056 040 040
    007342  aa  040 040 040 040
    007343  aa  040 040 040 040
    007344  aa  040 040 040 040
    007345  aa   000000 000051          	vfd	36/41
    007346  aa  127 162 157 156         	aci	@Wrong number of arguments supplied to ^a.@,108
    007347  aa  147 040 156 165
    007350  aa  155 142 145 162
    007351  aa  040 157 146 040
    007352  aa  141 162 147 165
    007353  aa  155 145 156 164
    007354  aa  163 040 163 165
    007355  aa  160 160 154 151
    007356  aa  145 144 040 164
    007357  aa  157 040 136 141
    007360  aa  056 040 040 040
    007361  aa  040 040 040 040
    007362  aa  040 040 040 040
    007363  aa  040 040 040 040
    007364  aa  040 040 040 040
    007365  aa  040 040 040 040
    007366  aa  040 040 040 040
    007367  aa  040 040 040 040
    007370  aa  040 040 040 040
    007371  aa  040 040 040 040
    007372  aa  040 040 040 040
    007373  aa  040 040 040 040
    007374  aa  040 040 040 040
    007375  aa  040 040 040 040
    007376  aa  040 040 040 040
    007377  aa  040 040 040 040
    007400  aa  040 040 040 040
                        000141          	set	error_number,error_number+1
                                 1-211  ec	size,			" Size condition occured..
                                 1-212  	  (),(Size condition occured during execution of request.)
                        007401          	segdef	size
    007401  aa   000000 002111          size:	vfd	36/error_number+1000
    007402  aa   000000 000000          	vfd	36/0
    007403  aa  040 040 040 040         	aci	@@,40
    007404  aa  040 040 040 040
    007405  aa  040 040 040 040
    007406  aa  040 040 040 040
    007407  aa  040 040 040 040
    007410  aa  040 040 040 040
    007411  aa  040 040 040 040
    007412  aa  040 040 040 040
    007413  aa  040 040 040 040
    007414  aa  040 040 040 040
    007415  aa   000000 000063          	vfd	36/51
    007416  aa  123 151 172 145         	aci	@Size condition occured during execution of request.@,108
    007417  aa  040 143 157 156
    007420  aa  144 151 164 151
    007421  aa  157 156 040 157
    007422  aa  143 143 165 162
    007423  aa  145 144 040 144
    007424  aa  165 162 151 156
    007425  aa  147 040 145 170
    007426  aa  145 143 165 164
    007427  aa  151 157 156 040
    007430  aa  157 146 040 162
    007431  aa  145 161 165 145
    007432  aa  163 164 056 040
    007433  aa  040 040 040 040
    007434  aa  040 040 040 040
    007435  aa  040 040 040 040
    007436  aa  040 040 040 040
    007437  aa  040 040 040 040
    007440  aa  040 040 040 040
    007441  aa  040 040 040 040
    007442  aa  040 040 040 040
    007443  aa  040 040 040 040
    007444  aa  040 040 040 040
    007445  aa  040 040 040 040
    007446  aa  040 040 040 040
    007447  aa  040 040 040 040
    007450  aa  040 040 040 040
                        000142          	set	error_number,error_number+1
                                 1-213
                                 1-214  " End of include file probe_et_.incl.alm
                                    46
                        000141      47  	set	error_number,error_number-1
                                    48
                                    49  	use	header
    000000  aa   000000 000141      50  	vfd	36/error_number
                                    51
                                    52  	use	messages
                                    53  	use	header
                                    54
                                    55  	join	/text/header,messages
                                    56
                                    57  	end

NO LITERALS

NAME DEFINITIONS FOR ENTRY POINTS AND SEGDEFS

    007452  5a   000003 000000
    007453  5a   001220 600000
    007454  aa   000000 000000
    007455  55   000011 000002
    007456  5a   000002 400003
    007457  55   000006 000011
    007460  aa  011 160 162 157
    007461  aa  142 145 137 145
    007462  aa  164 137 000 000
    007463  55   000016 000003
    007464  0a   007401 400000
    007465  55   000014 000003
    007466  aa  004 163 151 172         size
    007467  aa  145 000 000 000
    007470  55   000025 000011
    007471  0a   007331 400000
    007472  55   000021 000003
    007473  aa  015 167 162 157         wrong_no_args
    007474  aa  156 147 137 156
    007475  aa  157 137 141 162
    007476  aa  147 163 000 000
    007477  55   000033 000016
    007500  0a   007261 400000
    007501  55   000030 000003
    007502  aa  012 167 162 157         wrong_dims
    007503  aa  156 147 137 144
    007504  aa  151 155 163 000
    007505  55   000041 000025
    007506  0a   007211 400000
    007507  55   000036 000003
    007510  aa  012 166 141 162         var_exists
    007511  aa  137 145 170 151
    007512  aa  163 164 163 000
    007513  55   000051 000033
    007514  0a   007141 400000
    007515  55   000044 000003
    007516  aa  020 166 141 162         var_doesnt_exist
    007517  aa  137 144 157 145
    007520  aa  163 156 164 137
    007521  aa  145 170 151 163
    007522  aa  164 000 000 000
    007523  55   000060 000041
    007524  0a   007071 400000
    007525  55   000054 000003
    007526  aa  017 165 156 153         unknown_request
    007527  aa  156 157 167 156
    007530  aa  137 162 145 161
    007531  aa  165 145 163 164
    007532  55   000071 000051
    007533  0a   007021 400000
    007534  55   000063 000003
    007535  aa  025 165 156 151         unimplemented_request
    007536  aa  155 160 154 145
    007537  aa  155 145 156 164
    007540  aa  145 144 137 162
    007541  aa  145 161 165 145
    007542  aa  163 164 000 000
    007543  55   000101 000060
    007544  0a   006751 400000
    007545  55   000074 000003
    007546  aa  021 165 156 142         unbalanced_quotes
    007547  aa  141 154 141 156
    007550  aa  143 145 144 137
    007551  aa  161 165 157 164
    007552  aa  145 163 000 000
    007553  55   000111 000071
    007554  0a   006701 400000
    007555  55   000104 000003
    007556  aa  021 165 156 142         unbalanced_parens
    007557  aa  141 154 141 156
    007560  aa  143 145 144 137
    007561  aa  160 141 162 145
    007562  aa  156 163 000 000
    007563  55   000120 000101
    007564  0a   006631 400000
    007565  55   000114 000003
    007566  aa  017 164 157 157         too_many_levels
    007567  aa  137 155 141 156
    007570  aa  171 137 154 145
    007571  aa  166 145 154 163
    007572  55   000127 000111
    007573  0a   006561 400000
    007574  55   000123 000003
    007575  aa  015 164 157 157         too_many_args
    007576  aa  137 155 141 156
    007577  aa  171 137 141 162
    007600  aa  147 163 000 000
    007601  55   000135 000120
    007602  0a   006511 400000
    007603  55   000132 000003
    007604  aa  010 164 157 157         too_long
    007605  aa  137 154 157 156
    007606  aa  147 000 000 000
    007607  55   000143 000127
    007610  0a   006441 400000
    007611  55   000140 000003
    007612  aa  013 164 157 157         too_complex
    007613  aa  137 143 157 155
    007614  aa  160 154 145 170
    007615  55   000152 000135
    007616  0a   006371 400000
    007617  55   000146 000003
    007620  aa  014 163 171 156         syntax_error
    007621  aa  164 141 170 137
    007622  aa  145 162 162 157
    007623  aa  162 000 000 000
    007624  55   000160 000143
    007625  0a   006321 400000
    007626  55   000155 000003
    007627  aa  011 163 164 162         struc_arg
    007630  aa  165 143 137 141
    007631  aa  162 147 000 000
    007632  55   000171 000152
    007633  0a   006251 400000
    007634  55   000163 000003
    007635  aa  024 163 164 162         string_search_failed
    007636  aa  151 156 147 137
    007637  aa  163 145 141 162
    007640  aa  143 150 137 146
    007641  aa  141 151 154 145
    007642  aa  144 000 000 000
    007643  55   000177 000160
    007644  0a   006201 400000
    007645  55   000174 000003
    007646  aa  013 163 164 162         string_long
    007647  aa  151 156 147 137
    007650  aa  154 157 156 147
    007651  55   000205 000171
    007652  0a   006131 400000
    007653  55   000202 000003
    007654  aa  012 163 164 155         stmt_guess
    007655  aa  164 137 147 165
    007656  aa  145 163 163 000
    007657  55   000213 000177
    007660  0a   006061 400000
    007661  55   000210 000003
    007662  aa  012 162 157 164         rotten_ptr
    007663  aa  164 145 156 137
    007664  aa  160 164 162 000
    007665  55   000223 000205
    007666  0a   006011 400000
    007667  55   000216 000003
    007670  aa  020 162 145 143         recorded_message
    007671  aa  157 162 144 145
    007672  aa  144 137 155 145
    007673  aa  163 163 141 147
    007674  aa  145 000 000 000
    007675  55   000232 000213
    007676  0a   005741 400000
    007677  55   000226 000003
    007700  aa  015 160 164 162         ptr_condition
    007701  aa  137 143 157 156
    007702  aa  144 151 164 151
    007703  aa  157 156 000 000
    007704  55   000242 000223
    007705  0a   005671 400000
    007706  55   000235 000003
    007707  aa  021 160 162 157         program_interrupt
    007710  aa  147 162 141 155
    007711  aa  137 151 156 164
    007712  aa  145 162 162 165
    007713  aa  160 164 000 000
    007714  55   000250 000232
    007715  0a   005621 400000
    007716  55   000245 000003
    007717  aa  011 160 162 151         print_err
    007720  aa  156 164 137 145
    007721  aa  162 162 000 000
    007722  55   000256 000242
    007723  0a   005551 400000
    007724  55   000253 000003
    007725  aa  012 157 154 144         old_format
    007726  aa  137 146 157 162
    007727  aa  155 141 164 000
    007730  55   000265 000250
    007731  0a   005501 400000
    007732  55   000261 000003
    007733  aa  015 157 154 144         old_break_map
    007734  aa  137 142 162 145
    007735  aa  141 153 137 155
    007736  aa  141 160 000 000
    007737  55   000273 000256
    007740  0a   005431 400000
    007741  55   000270 000003
    007742  aa  011 157 154 144         old_break
    007743  aa  137 142 162 145
    007744  aa  141 153 000 000
    007745  55   000301 000265
    007746  0a   005361 400000
    007747  55   000276 000003
    007750  aa  010 156 165 154         null_ptr
    007751  aa  154 137 160 164
    007752  aa  162 000 000 000
    007753  55   000310 000273
    007754  0a   005311 400000
    007755  55   000304 000003
    007756  aa  014 156 157 164         not_function
    007757  aa  137 146 165 156
    007760  aa  143 164 151 157
    007761  aa  156 000 000 000
    007762  55   000316 000301
    007763  0a   005241 400000
    007764  55   000313 000003
    007765  aa  011 156 157 164         not_based
    007766  aa  137 142 141 163
    007767  aa  145 144 000 000
    007770  55   000324 000310
    007771  0a   005171 400000
    007772  55   000321 000003
    007773  aa  013 156 157 156         none_active
    007774  aa  145 137 141 143
    007775  aa  164 151 166 145
    007776  55   000333 000316
    007777  0a   005121 400000
    010000  55   000327 000003
    010001  aa  014 156 157 156         non_standard
    010002  aa  137 163 164 141
    010003  aa  156 144 141 162
    010004  aa  144 000 000 000
    010005  55   000340 000324
    010006  0a   005051 400000
    010007  55   000336 000003
    010010  aa  005 156 157 141         noarg
    010011  aa  162 147 000 000
    010012  55   000345 000333
    010013  0a   005001 400000
    010014  55   000343 000003
    010015  aa  007 156 157 137         no_vars
    010016  aa  166 141 162 163
    010017  55   000353 000340
    010020  0a   004731 400000
    010021  55   000350 000003
    010022  aa  010 156 157 137         no_table
    010023  aa  164 141 142 154
    010024  aa  145 000 000 000
    010025  55   000363 000345
    010026  0a   004661 400000
    010027  55   000356 000003
    010030  aa  020 156 157 137         no_statement_map
    010031  aa  163 164 141 164
    010032  aa  145 155 145 156
    010033  aa  164 137 155 141
    010034  aa  160 000 000 000
    010035  55   000372 000353
    010036  0a   004611 400000
    010037  55   000366 000003
    010040  aa  015 156 157 137         no_source_map
    010041  aa  163 157 165 162
    010042  aa  143 145 137 155
    010043  aa  141 160 000 000
    010044  55   000401 000363
    010045  0a   004541 400000
    010046  55   000375 000003
    010047  aa  017 156 157 137         no_saved_string
    010050  aa  163 141 166 145
    010051  aa  144 137 163 164
    010052  aa  162 151 156 147
    010053  55   000410 000372
    010054  0a   004471 400000
    010055  55   000404 000003
    010056  aa  016 156 157 137         no_return_desc
    010057  aa  162 145 164 165
    010060  aa  162 156 137 144
    010061  aa  145 163 143 000
    010062  55   000417 000401
    010063  0a   004421 400000
    010064  55   000413 000003
    010065  aa  014 156 157 137         no_procedure
    010066  aa  160 162 157 143
    010067  aa  145 144 165 162
    010070  aa  145 000 000 000
    010071  55   000424 000410
    010072  0a   004351 400000
    010073  55   000422 000003
    010074  aa  006 156 157 137         no_map
    010075  aa  155 141 160 000
    010076  55   000432 000417
    010077  0a   004301 400000
    010100  55   000427 000003
    010101  aa  010 156 157 137         no_frame
    010102  aa  146 162 141 155
    010103  aa  145 000 000 000
    010104  55   000437 000424
    010105  0a   004231 400000
    010106  55   000435 000003
    010107  aa  006 156 157 137         no_dcl
    010110  aa  144 143 154 000
    010111  55   000446 000432
    010112  0a   004161 400000
    010113  55   000442 000003
    010114  aa  015 156 157 137         no_breaks_set
    010115  aa  142 162 145 141
    010116  aa  153 163 137 163
    010117  aa  145 164 000 000
    010120  55   000454 000437
    010121  0a   004111 400000
    010122  55   000451 000003
    010123  aa  011 156 157 137         no_breaks
    010124  aa  142 162 145 141
    010125  aa  153 163 000 000
    010126  55   000462 000446
    010127  0a   004041 400000
    010130  55   000457 000003
    010131  aa  010 156 157 137         no_block
    010132  aa  142 154 157 143
    010133  aa  153 000 000 000
    010134  55   000470 000454
    010135  0a   003771 400000
    010136  55   000465 000003
    010137  aa  012 156 157 137         no_address
    010140  aa  141 144 144 162
    010141  aa  145 163 163 000
    010142  55   000500 000462
    010143  0a   003721 400000
    010144  55   000473 000003
    010145  aa  021 155 151 163         misused_not_equal
    010146  aa  165 163 145 144
    010147  aa  137 156 157 164
    010150  aa  137 145 161 165
    010151  aa  141 154 000 000
    010152  55   000507 000470
    010153  0a   003651 400000
    010154  55   000503 000003
    010155  aa  015 155 151 163         misused_equal
    010156  aa  165 163 145 144
    010157  aa  137 145 161 165
    010160  aa  141 154 000 000
    010161  55   000516 000500
    010162  0a   003601 400000
    010163  55   000512 000003
    010164  aa  015 155 151 163         missing_colon
    010165  aa  163 151 156 147
    010166  aa  137 143 157 154
    010167  aa  157 156 000 000
    010170  55   000525 000507
    010171  0a   003531 400000
    010172  55   000521 000003
    010173  aa  017 151 156 166         invalid_request
    010174  aa  141 154 151 144
    010175  aa  137 162 145 161
    010176  aa  165 145 163 164
    010177  55   000533 000516
    010200  0a   003461 400000
    010201  55   000530 000003
    010202  aa  010 151 156 164         int_proc
    010203  aa  137 160 162 157
    010204  aa  143 000 000 000
    010205  55   000542 000525
    010206  0a   003411 400000
    010207  55   000536 000003
    010210  aa  017 151 156 160         input_exhausted
    010211  aa  165 164 137 145
    010212  aa  170 150 141 165
    010213  aa  163 164 145 144
    010214  55   000551 000533
    010215  0a   003341 400000
    010216  55   000545 000003
    010217  aa  014 151 154 154         illegal_char
    010220  aa  145 147 141 154
    010221  aa  137 143 150 141
    010222  aa  162 000 000 000
    010223  55   000560 000542
    010224  0a   003271 400000
    010225  55   000554 000003
    010226  aa  014 146 165 156         function_ref
    010227  aa  143 164 151 157
    010230  aa  156 137 162 145
    010231  aa  146 000 000 000
    010232  55   000570 000551
    010233  0a   003221 400000
    010234  55   000563 000003
    010235  aa  020 146 165 156         function_locator
    010236  aa  143 164 151 157
    010237  aa  156 137 154 157
    010240  aa  143 141 164 157
    010241  aa  162 000 000 000
    010242  55   000577 000560
    010243  0a   003151 400000
    010244  55   000573 000003
    010245  aa  015 146 151 154         file_modified
    010246  aa  145 137 155 157
    010247  aa  144 151 146 151
    010250  aa  145 144 000 000
    010251  55   000606 000570
    010252  0a   003101 400000
    010253  55   000602 000003
    010254  aa  016 145 162 162         error_in_break
    010255  aa  157 162 137 151
    010256  aa  156 137 142 162
    010257  aa  145 141 153 000
    010260  55   000615 000577
    010261  0a   003031 400000
    010262  55   000611 000003
    010263  aa  014 145 137 163         e_syntax_err
    010264  aa  171 156 164 141
    010265  aa  170 137 145 162
    010266  aa  162 000 000 000
    010267  55   000623 000606
    010270  0a   002761 400000
    010271  55   000620 000003
    010272  aa  011 144 151 155         dim_limit
    010273  aa  137 154 151 155
    010274  aa  151 164 000 000
    010275  55   000631 000615
    010276  0a   002711 400000
    010277  55   000626 000003
    010300  aa  013 143 157 156         convert_err
    010301  aa  166 145 162 164
    010302  aa  137 145 162 162
    010303  55   000640 000623
    010304  0a   002641 400000
    010305  55   000634 000003
    010306  aa  017 143 157 156         constant_target
    010307  aa  163 164 141 156
    010310  aa  164 137 164 141
    010311  aa  162 147 145 164
    010312  55   000647 000631
    010313  0a   002571 400000
    010314  55   000643 000003
    010315  aa  014 143 157 155         complex_expr
    010316  aa  160 154 145 170
    010317  aa  137 145 170 160
    010320  aa  162 000 000 000
    010321  55   000655 000640
    010322  0a   002521 400000
    010323  55   000652 000003
    010324  aa  012 143 141 156         cannot_set
    010325  aa  156 157 164 137
    010326  aa  163 145 164 000
    010327  55   000664 000647
    010330  0a   002451 400000
    010331  55   000660 000003
    010332  aa  017 143 137 163         c_string_assign
    010333  aa  164 162 151 156
    010334  aa  147 137 141 163
    010335  aa  163 151 147 156
    010336  55   000673 000655
    010337  0a   002401 400000
    010340  55   000667 000003
    010341  aa  014 142 162 145         breaks_exist
    010342  aa  141 153 163 137
    010343  aa  145 170 151 163
    010344  aa  164 000 000 000
    010345  55   000701 000664
    010346  0a   002331 400000
    010347  55   000676 000003
    010350  aa  011 142 162 145         breakless
    010351  aa  141 153 154 145
    010352  aa  163 163 000 000
    010353  55   000707 000673
    010354  0a   002261 400000
    010355  55   000704 000003
    010356  aa  013 142 141 144         bad_varying
    010357  aa  137 166 141 162
    010360  aa  171 151 156 147
    010361  55   000717 000701
    010362  0a   002211 400000
    010363  55   000712 000003
    010364  aa  020 142 141 144         bad_value_format
    010365  aa  137 166 141 154
    010366  aa  165 145 137 146
    010367  aa  157 162 155 141
    010370  aa  164 000 000 000
    010371  55   000725 000707
    010372  0a   002141 400000
    010373  55   000722 000003
    010374  aa  011 142 141 144         bad_value
    010375  aa  137 166 141 154
    010376  aa  165 145 000 000
    010377  55   000733 000717
    010400  0a   002071 400000
    010401  55   000730 000003
    010402  aa  010 142 141 144         bad_type
    010403  aa  137 164 171 160
    010404  aa  145 000 000 000
    010405  55   000741 000725
    010406  0a   002021 400000
    010407  55   000736 000003
    010410  aa  012 142 141 144         bad_symbol
    010411  aa  137 163 171 155
    010412  aa  142 157 154 000
    010413  55   000750 000733
    010414  0a   001751 400000
    010415  55   000744 000003
    010416  aa  015 142 141 144         bad_subscript
    010417  aa  137 163 165 142
    010420  aa  163 143 162 151
    010421  aa  160 164 000 000
    010422  55   000756 000741
    010423  0a   001701 400000
    010424  55   000753 000003
    010425  aa  013 142 141 144         bad_section
    010426  aa  137 163 145 143
    010427  aa  164 151 157 156
    010430  55   000765 000750
    010431  0a   001631 400000
    010432  55   000761 000003
    010433  aa  016 142 141 144         bad_return_val
    010434  aa  137 162 145 164
    010435  aa  165 162 156 137
    010436  aa  166 141 154 000
    010437  55   000774 000756
    010440  0a   001561 400000
    010441  55   000770 000003
    010442  aa  015 142 141 144         bad_predicate
    010443  aa  137 160 162 145
    010444  aa  144 151 143 141
    010445  aa  164 145 000 000
    010446  55   001002 000765
    010447  0a   001511 400000
    010450  55   000777 000003
    010451  aa  013 142 141 144         bad_pointer
    010452  aa  137 160 157 151
    010453  aa  156 164 145 162
    010454  55   001011 000774
    010455  0a   001441 400000
    010456  55   001005 000003
    010457  aa  014 142 141 144         bad_operator
    010460  aa  137 157 160 145
    010461  aa  162 141 164 157
    010462  aa  162 000 000 000
    010463  55   001017 001002
    010464  0a   001371 400000
    010465  55   001014 000003
    010466  aa  013 142 141 144         bad_operand
    010467  aa  137 157 160 145
    010470  aa  162 141 156 144
    010471  55   001025 001011
    010472  0a   001321 400000
    010473  55   001022 000003
    010474  aa  013 142 141 144         bad_locator
    010475  aa  137 154 157 143
    010476  aa  141 164 157 162
    010477  55   001034 001017
    010500  0a   001251 400000
    010501  55   001030 000003
    010502  aa  014 142 141 144         bad_location
    010503  aa  137 154 157 143
    010504  aa  141 164 151 157
    010505  aa  156 000 000 000
    010506  55   001043 001025
    010507  0a   001201 400000
    010510  55   001037 000003
    010511  aa  017 142 141 144         bad_line_syntax
    010512  aa  137 154 151 156
    010513  aa  145 137 163 171
    010514  aa  156 164 141 170
    010515  55   001051 001034
    010516  0a   001131 400000
    010517  55   001046 000003
    010520  aa  010 142 141 144         bad_line
    010521  aa  137 154 151 156
    010522  aa  145 000 000 000
    010523  55   001060 001043
    010524  0a   001061 400000
    010525  55   001054 000003
    010526  aa  017 142 141 144         bad_label_frame
    010527  aa  137 154 141 142
    010530  aa  145 154 137 146
    010531  aa  162 141 155 145
    010532  55   001066 001051
    010533  0a   001011 400000
    010534  55   001063 000003
    010535  aa  013 142 141 144         bad_integer
    010536  aa  137 151 156 164
    010537  aa  145 147 145 162
    010540  55   001074 001060
    010541  0a   000741 400000
    010542  55   001071 000003
    010543  aa  012 142 141 144         bad_format
    010544  aa  137 146 157 162
    010545  aa  155 141 164 000
    010546  55   001103 001066
    010547  0a   000671 400000
    010550  55   001077 000003
    010551  aa  016 142 141 144         bad_expression
    010552  aa  137 145 170 160
    010553  aa  162 145 163 163
    010554  aa  151 157 156 000
    010555  55   001111 001074
    010556  0a   000621 400000
    010557  55   001106 000003
    010560  aa  011 142 141 144         bad_entry
    010561  aa  137 145 156 164
    010562  aa  162 171 000 000
    010563  55   001117 001103
    010564  0a   000551 400000
    010565  55   001114 000003
    010566  aa  013 142 141 144         bad_decimal
    010567  aa  137 144 145 143
    010570  aa  151 155 141 154
    010571  55   001126 001111
    010572  0a   000501 400000
    010573  55   001122 000003
    010574  aa  014 142 141 144         bad_dcl_type
    010575  aa  137 144 143 154
    010576  aa  137 164 171 160
    010577  aa  145 000 000 000
    010600  55   001134 001117
    010601  0a   000431 400000
    010602  55   001131 000003
    010603  aa  013 142 141 144         bad_ctl_arg
    010604  aa  137 143 164 154
    010605  aa  137 141 162 147
    010606  55   001143 001126
    010607  0a   000361 400000
    010610  55   001137 000003
    010611  aa  014 142 141 144         bad_constant
    010612  aa  137 143 157 156
    010613  aa  163 164 141 156
    010614  aa  164 000 000 000
    010615  55   001152 001134
    010616  0a   000311 400000
    010617  55   001146 000003
    010620  aa  016 142 141 144         bad_comparison
    010621  aa  137 143 157 155
    010622  aa  160 141 162 151
    010623  aa  163 157 156 000
    010624  55   001160 001143
    010625  0a   000241 400000
    010626  55   001155 000003
    010627  aa  013 142 141 144         bad_command
    010630  aa  137 143 157 155
    010631  aa  155 141 156 144
    010632  55   001166 001152
    010633  0a   000171 400000
    010634  55   001163 000003
    010635  aa  013 142 141 144         bad_builtin
    010636  aa  137 142 165 151
    010637  aa  154 164 151 156
    010640  55   001174 001160
    010641  0a   000121 400000
    010642  55   001171 000003
    010643  aa  012 142 141 144         bad_assign
    010644  aa  137 141 163 163
    010645  aa  151 147 156 000
    010646  55   001202 001166
    010647  0a   000051 400000
    010650  55   001177 000003
    010651  aa  011 141 162 162         array_arg
    010652  aa  141 171 137 141
    010653  aa  162 147 000 000
    010654  55   001211 001174
    010655  0a   000001 400000
    010656  55   001205 000003
    010657  aa  015 141 155 142         ambiguous_ref
    010660  aa  151 147 165 157
    010661  aa  165 163 137 162
    010662  aa  145 146 000 000
    010663  55   000002 001202
    010664  6a   000000 400002
    010665  55   001214 000003
    010666  aa  014 163 171 155         symbol_table
    010667  aa  142 157 154 137
    010670  aa  164 141 142 154
    010671  aa  145 000 000 000

DEFINITIONS HASH TABLE

    010672  aa   000000 000235
    010673  5a   000470 000000
    010674  aa   000000 000000
    010675  aa   000000 000000
    010676  aa   000000 000000
    010677  aa   000000 000000
    010700  aa   000000 000000
    010701  5a   000223 000000
    010702  aa   000000 000000
    010703  5a   000500 000000
    010704  5a   000507 000000
    010705  5a   000570 000000
    010706  5a   000160 000000
    010707  5a   000707 000000
    010710  5a   000756 000000
    010711  5a   000741 000000
    010712  5a   000765 000000
    010713  5a   001002 000000
    010714  5a   001025 000000
    010715  5a   000701 000000
    010716  5a   000750 000000
    010717  5a   000733 000000
    010720  5a   000774 000000
    010721  5a   000717 000000
    010722  5a   001011 000000
    010723  5a   000256 000000
    010724  5a   000353 000000
    010725  5a   000177 000000
    010726  5a   000372 000000
    010727  5a   000560 000000
    010730  5a   000171 000000
    010731  5a   000250 000000
    010732  5a   000205 000000
    010733  5a   000265 000000
    010734  5a   000152 000000
    010735  5a   000363 000000
    010736  5a   000401 000000
    010737  5a   000410 000000
    010740  5a   000437 000000
    010741  5a   000462 000000
    010742  5a   000446 000000
    010743  5a   000551 000000
    010744  5a   000345 000000
    010745  5a   000424 000000
    010746  5a   000340 000000
    010747  5a   000041 000000
    010750  5a   000417 000000
    010751  5a   000432 000000
    010752  5a   000454 000000
    010753  5a   000324 000000
    010754  5a   000333 000000
    010755  5a   000316 000000
    010756  5a   000725 000000
    010757  5a   001017 000000
    010760  5a   001034 000000
    010761  5a   000301 000000
    010762  5a   000655 000000
    010763  5a   000033 000000
    010764  5a   001043 000000
    010765  5a   001051 000000
    010766  5a   001060 000000
    010767  5a   000310 000000
    010770  5a   001066 000000
    010771  5a   001074 000000
    010772  5a   000213 000000
    010773  5a   001103 000000
    010774  5a   001111 000000
    010775  5a   001117 000000
    010776  5a   001126 000000
    010777  5a   001134 000000
    011000  5a   001143 000000
    011001  5a   000016 000000
    011002  5a   000011 000000
    011003  5a   000143 000000
    011004  5a   000232 000000
    011005  5a   001152 000000
    011006  5a   001160 000000
    011007  5a   000025 000000
    011010  5a   000533 000000
    011011  5a   000631 000000
    011012  5a   001166 000000
    011013  5a   000242 000000
    011014  5a   000111 000000
    011015  5a   000516 000000
    011016  5a   000640 000000
    011017  5a   001202 000000
    011020  5a   000120 000000
    011021  5a   000623 000000
    011022  5a   000664 000000
    011023  5a   001211 000000
    011024  5a   000135 000000
    011025  aa   000000 000000
    011026  aa   000000 000000
    011027  5a   000673 000000
    011030  aa   000000 000000
    011031  5a   000525 000000
    011032  5a   000127 000000
    011033  aa   000000 000000
    011034  aa   000000 000000
    011035  aa   000000 000000
    011036  aa   000000 000000
    011037  aa   000000 000000
    011040  aa   000000 000000
    011041  aa   000000 000000
    011042  aa   000000 000000
    011043  aa   000000 000000
    011044  aa   000000 000000
    011045  aa   000000 000000
    011046  aa   000000 000000
    011047  aa   000000 000000
    011050  aa   000000 000000
    011051  5a   000615 000000
    011052  aa   000000 000000
    011053  aa   000000 000000
    011054  aa   000000 000000
    011055  5a   000577 000000
    011056  aa   000000 000000
    011057  aa   000000 000000
    011060  aa   000000 000000
    011061  aa   000000 000000
    011062  aa   000000 000000
    011063  aa   000000 000000
    011064  aa   000000 000000
    011065  aa   000000 000000
    011066  aa   000000 000000
    011067  aa   000000 000000
    011070  5a   000606 000000
    011071  aa   000000 000000
    011072  aa   000000 000000
    011073  aa   000000 000000
    011074  aa   000000 000000
    011075  aa   000000 000000
    011076  aa   000000 000000
    011077  aa   000000 000000
    011100  5a   000060 000000
    011101  5a   000071 000000
    011102  5a   000101 000000
    011103  aa   000000 000000
    011104  aa   000000 000000
    011105  aa   000000 000000
    011106  aa   000000 000000
    011107  aa   000000 000000
    011110  5a   000647 000000
    011111  aa   000000 000000
    011112  5a   000273 000000
    011113  aa   000000 000000
    011114  aa   000000 000000
    011115  aa   000000 000000
    011116  5a   000051 000000
    011117  aa   000000 000000
    011120  aa   000000 000000
    011121  aa   000000 000000
    011122  5a   001174 000000
    011123  aa   000000 000000
    011124  5a   000542 000000
    011125  aa   000000 000000
    011126  aa   000000 000000
    011127  aa   000000 000000

NO EXTERNAL NAMES

NO TRAP POINTER WORDS

TYPE PAIR BLOCKS

    011130  aa   000001 000000
    011131  aa   000000 000000

INTERNAL EXPRESSION WORDS

LINKAGE INFORMATION

    000000  aa   000000 000000
    000001  0a   007452 000000
    000002  aa   000000 000000
    000003  aa   000000 000000
    000004  aa   000000 000000
    000005  aa   000000 000000
    000006  22   000010 000010
    000007  a2   000000 000000
SYMBOL INFORMATION

SYMBOL TABLE HEADER

    000000  aa   000000 000001
    000001  aa   163171 155142
    000002  aa   164162 145145
    000003  aa   000000 000010
    000004  aa   000000 116575
    000005  aa   012137 773040
    000006  aa   000000 116606
    000007  aa   026754 666251
    000010  aa   141154 155040
    000011  aa   040040 040040
    000012  aa   000024 000040
    000013  aa   000034 000040
    000014  aa   000044 000100
    000015  aa   000002 000002
    000016  aa   000064 000000
    000017  aa   000000 000655
    000020  aa   000000 000127
    000021  aa   000464 000461
    000022  aa   000646 000127
    000023  aa   000064 000000
    000024  aa   101114 115040
    000025  aa   126145 162163
    000026  aa   151157 156040
    000027  aa   070056 061063
    000030  aa   040123 145160
    000031  aa   164145 155142
    000032  aa   145162 040061
    000033  aa   071070 070040
    000034  aa   110151 162156
    000035  aa   145151 163145
    000036  aa   156056 123171
    000037  aa   163115 141151
    000040  aa   156164 056141
    000041  aa   040040 040040
    000042  aa   040040 040040
    000043  aa   040040 040040
    000044  aa   055164 141162
    000045  aa   147145 164040
    000046  aa   154066 070040
    000047  aa   040040 040040
    000050  aa   040040 040040
    000051  aa   040040 040040
    000052  aa   040040 040040
    000053  aa   040040 040040
    000054  aa   040040 040040
    000055  aa   040040 040040
    000056  aa   040154 151163
    000057  aa   164040 163171
    000060  aa   155142 157154
    000061  aa   163040 040040
    000062  aa   040040 040040
    000063  aa   040040 040040
    000064  aa   000000 000001
    000065  aa   000000 000002
    000066  aa   000076 000056
    000067  aa   166057 365055
    000070  aa   000000 116606
    000071  aa   006135 200000
    000072  aa   000112 000063
    000073  aa   166057 365047
    000074  aa   000000 116606
    000075  aa   004025 600000
    000076  aa   076163 160145          >special_ldd>install>MR12.2-1184>probe_et_.alm
    000077  aa   143151 141154
    000100  aa   137154 144144
    000101  aa   076151 156163
    000102  aa   164141 154154
    000103  aa   076115 122061
    000104  aa   062056 062055
    000105  aa   061061 070064
    000106  aa   076160 162157
    000107  aa   142145 137145
    000110  aa   164137 056141
    000111  aa   154155 040040
    000112  aa   076163 160145          >special_ldd>install>MR12.2-1184>probe_et_.incl.alm
    000113  aa   143151 141154
    000114  aa   137154 144144
    000115  aa   076151 156163
    000116  aa   164141 154154
    000117  aa   076115 122061
    000120  aa   062056 062055
    000121  aa   061061 070064
    000122  aa   076160 162157
    000123  aa   142145 137145
    000124  aa   164137 056151
    000125  aa   156143 154056
    000126  aa   141154 155040
               MULTICS ASSEMBLY CROSS REFERENCE LISTING

   Value        Symbol                   Source file   Line number

           1    ambiguous_ref            probe_et_:     20.
          51    array_arg                probe_et_:     22.
         121    bad_assign               probe_et_:     24.
         171    bad_builtin              probe_et_:     26.
         241    bad_command              probe_et_:     28.
         311    bad_comparison           probe_et_:     30.
         361    bad_constant             probe_et_:     32.
         431    bad_ctl_arg              probe_et_:     34.
         501    bad_dcl_type             probe_et_:     36.
         551    bad_decimal              probe_et_:     38.
         621    bad_entry                probe_et_:     40.
         671    bad_expression           probe_et_:     42.
         741    bad_format               probe_et_:     44.
        1011    bad_integer              probe_et_:     46.
        1061    bad_label_frame          probe_et_:     48.
        1131    bad_line                 probe_et_:     50.
        1201    bad_line_syntax          probe_et_:     52.
        1251    bad_location             probe_et_:     54.
        1321    bad_locator              probe_et_:     56.
        1371    bad_operand              probe_et_:     58.
        1441    bad_operator             probe_et_:     60.
        1511    bad_pointer              probe_et_:     62.
        1561    bad_predicate            probe_et_:     64.
        1631    bad_return_val           probe_et_:     66.
        1701    bad_section              probe_et_:     68.
        1751    bad_subscript            probe_et_:     70.
        2021    bad_symbol               probe_et_:     72.
        2071    bad_type                 probe_et_:     74.
        2141    bad_value                probe_et_:     76.
        2211    bad_value_format         probe_et_:     78.
        2261    bad_varying              probe_et_:     80.
        2331    breakless                probe_et_:     82.
        2401    breaks_exist             probe_et_:     84.
        2521    cannot_set               probe_et_:     88.
        2571    complex_expr             probe_et_:     90.
        2641    constant_target          probe_et_:     92.
        2711    convert_err              probe_et_:     94.
        2451    c_string_assign          probe_et_:     86.
        2761    dim_limit                probe_et_:     96.
        3101    error_in_break           probe_et_:    100.
         141    error_number             probe_et_:     32,   47,   50,
                                         probe_et_:     20,   22,   24,   26,   28,   30,   32,   34,   36,   38,   40,   42,
                                                        44,   46,   48,   50,   52,   54,   56,   58,   60,   62,   64,   66,
                                                        68,   70,   72,   74,   76,   78,   80,   82,   84,   86,   88,   90,
                                                        92,   94,   96,   98,  100,  102,  104,  106,  108,  110,  112,  114,
                                                       116,  118,  120,  122,  124,  126,  128,  130,  132,  134,  136,  138,
                                                       140,  142,  144,  146,  148,  150,  152,  154,  156,  158,  160,  162,
                                                       164,  166,  168,  170,  172,  174,  176,  178,  180,  182,  184,  186,
                                                       188,  190,  192,  194,  196,  198,  200,  202,  204,  206,  208,  210,  212.
        3031    e_syntax_err             probe_et_:     98.
        3151    file_modified            probe_et_:    102.
        3221    function_locator         probe_et_:    104.
        3271    function_ref             probe_et_:    106.
           0    header                   probe_et_:     49,   53,   55.
        3341    illegal_char             probe_et_:    108.
        3411    input_exhausted          probe_et_:    110.
        3461    int_proc                 probe_et_:    112.
        3531    invalid_request          probe_et_:    114.
           1    messages                 probe_et_:     33,   52,   55.
        3601    missing_colon            probe_et_:    116.
        3651    misused_equal            probe_et_:    118.
        3721    misused_not_equal        probe_et_:    120.
        5051    noarg                    probe_et_:    150.
        5171    none_active              probe_et_:    154.
        5121    non_standard             probe_et_:    152.
        5241    not_based                probe_et_:    156.
        5311    not_function             probe_et_:    158.
        3771    no_address               probe_et_:    122.
        4041    no_block                 probe_et_:    124.
        4111    no_breaks                probe_et_:    126.
        4161    no_breaks_set            probe_et_:    128.
        4231    no_dcl                   probe_et_:    130.
        4301    no_frame                 probe_et_:    132.
        4351    no_map                   probe_et_:    134.
        4421    no_procedure             probe_et_:    136.
        4471    no_return_desc           probe_et_:    138.
        4541    no_saved_string          probe_et_:    140.
        4611    no_source_map            probe_et_:    142.
        4661    no_statement_map         probe_et_:    144.
        4731    no_table                 probe_et_:    146.
        5001    no_vars                  probe_et_:    148.
        5361    null_ptr                 probe_et_:    160.
        5431    old_break                probe_et_:    162.
        5501    old_break_map            probe_et_:    164.
        5551    old_format               probe_et_:    166.
        5621    print_err                probe_et_:    168.
        5671    program_interrupt        probe_et_:    170.
        5741    ptr_condition            probe_et_:    172.
        6011    recorded_message         probe_et_:    174.
        6061    rotten_ptr               probe_et_:    176.
        7401    size                     probe_et_:    212.
        6131    stmt_guess               probe_et_:    178.
        6201    string_long              probe_et_:    180.
        6251    string_search_failed     probe_et_:    182.
        6321    struc_arg                probe_et_:    184.
        6371    syntax_error             probe_et_:    186.
        6441    too_complex              probe_et_:    188.
        6511    too_long                 probe_et_:    190.
        6561    too_many_args            probe_et_:    192.
        6631    too_many_levels          probe_et_:    194.
        6701    unbalanced_parens        probe_et_:    196.
        6751    unbalanced_quotes        probe_et_:    198.
        7021    unimplemented_request    probe_et_:    200.
        7071    unknown_request          probe_et_:    202.
        7141    var_doesnt_exist         probe_et_:    204.
        7211    var_exists               probe_et_:    206.
        7261    wrong_dims               probe_et_:    208.
        7331    wrong_no_args            probe_et_:    210.


NO FATAL ERRORS


                                          -----------------------------------------------------------


Historical Background

This edition of the Multics software materials and documentation is provided and donated
to Massachusetts Institute of Technology by Group BULL including BULL HN Information Systems Inc.
as a contribution to computer science knowledge.
This donation is made also to give evidence of the common contributions of Massachusetts Institute of Technology,
Bell Laboratories, General Electric, Honeywell Information Systems Inc., Honeywell BULL Inc., Groupe BULL
and BULL HN Information Systems Inc. to the development of this operating system.
Multics development was initiated by Massachusetts Institute of Technology Project MAC (1963-1970),
renamed the MIT Laboratory for Computer Science and Artificial Intelligence in the mid 1970s, under the leadership
of Professor Fernando Jose Corbato. Users consider that Multics provided the best software architecture
for managing computer hardware properly and for executing programs. Many subsequent operating systems
incorporated Multics principles.
Multics was distributed in 1975 to 2000 by Group Bull in Europe , and in the U.S. by Bull HN Information Systems Inc.,
as successor in interest by change in name only to Honeywell Bull Inc. and Honeywell Information Systems Inc. .

                                          -----------------------------------------------------------

Permission to use, copy, modify, and distribute these programs and their documentation for any purpose and without
fee is hereby granted,provided that the below copyright notice and historical background appear in all copies
and that both the copyright notice and historical background and this permission notice appear in supporting
documentation, and that the names of MIT, HIS, BULL or BULL HN not be used in advertising or publicity pertaining
to distribution of the programs without specific prior written permission.
    Copyright 1972 by Massachusetts Institute of Technology and Honeywell Information Systems Inc.
    Copyright 2006 by BULL HN Information Systems Inc.
    Copyright 2006 by Bull SAS
    All Rights Reserved
