ASSEMBLY LISTING OF SEGMENT >udd>sm>ds>w>ml>probe_get_.alm
ASSEMBLED ON:	04/18/00  1133.3 mdt Tue
OPTIONS USED:	list symbols
ASSEMBLED BY:	ALM Version 8.14 March 1989
ASSEMBLER CREATED:	06/09/89  1102.3 mdt Fri

                                     1  " ***********************************************************
                                     2  " *                                                         *
                                     3  " * Copyright, (C) Honeywell Bull Inc., 1988                *
                                     4  " *                                                         *
                                     5  " * Copyright, (C) Honeywell Information Systems Inc., 1982 *
                                     6  " *                                                         *
                                     7  " * Copyright (c) 1972 by Massachusetts Institute of        *
                                     8  " * Technology and Honeywell Information Systems, Inc.      *
                                     9  " *                                                         *
                                    10  " ***********************************************************
                                    11
                                    12  " HISTORY COMMENTS:
                                    13  "  1) change(88-10-18,WAAnderson), approve(88-10-18,MCR7952),
                                    14  "     audit(88-10-18,JRGray), install(88-10-24,MR12.2-1184):
                                    15  "     Probe source archive split. Part of C-Probe support.
                                    16  "                                                      END HISTORY COMMENTS
                                    17
                                    18
                                    19  "
                                    20  "	TRANSFER VECTOR for probe_get_
                                    21  "
                                    22  "	Miscellaneous entries for extracting things from the token chain
                                    23  "
                                    24  "	Created: 05/06/79 WOS
                                    25  "	Modified: 8 Sept 79 by JRD to delete useless probe_get_$name
                                    26  "	Modified: 22 Sept 79 JRD
                                    27  "	Added $decimal 12/19/81 S. Herbst
                                    28  "
                                    29
                                    30  	macro	transfer
                              1     31  	entry	&1
                              2     32  &1:	tra	&2
                              3     33  	&end
                                    34
                                    35  	transfer	expression,probe_get_expr_$probe_get_expr_
                        000000          	entry	expression
    000000  4a  4 00010 7101 20         expression:	tra	probe_get_expr_$probe_get_expr_
                                    36
                                    37  	transfer	value,probe_get_value_$value
                        000001          	entry	value
    000001  4a  4 00012 7101 20         value:	tra	probe_get_value_$value
                                    38  	transfer	reference,probe_get_value_$reference
                        000002          	entry	reference
    000002  4a  4 00014 7101 20         reference:	tra	probe_get_value_$reference
                                    39
                                    40  	transfer	line,probe_get_line_$probe_get_line_
                        000003          	entry	line
    000003  4a  4 00016 7101 20         line:	tra	probe_get_line_$probe_get_line_
                                    41  	transfer	generation,probe_get_generation_$probe_get_generation_
                        000004          	entry	generation
    000004  4a  4 00020 7101 20         generation:	tra	probe_get_generation_$probe_get_generation_
                                    42
                                    43  	transfer	pathname,probe_get_misc_$pathname
                        000005          	entry	pathname
    000005  4a  4 00022 7101 20         pathname:	tra	probe_get_misc_$pathname
                                    44  	transfer	object,probe_get_misc_$object
                        000006          	entry	object
    000006  4a  4 00024 7101 20         object:	tra	probe_get_misc_$object
                                    45
                                    46  	transfer	integer,probe_get_misc_$integer
                        000007          	entry	integer
    000007  4a  4 00026 7101 20         integer:	tra	probe_get_misc_$integer
                                    47  	transfer	decimal,probe_get_misc_$decimal
                        000010          	entry	decimal
    000010  4a  4 00030 7101 20         decimal:	tra	probe_get_misc_$decimal
                                    48
                                    49  	transfer	io_switch,probe_get_misc_$io_switch
                        000011          	entry	io_switch
    000011  4a  4 00032 7101 20         io_switch:	tra	probe_get_misc_$io_switch
                                    50
                                    51  	transfer	control_arg,probe_get_misc_$control_arg
                        000012          	entry	control_arg
    000012  4a  4 00034 7101 20         control_arg:	tra	probe_get_misc_$control_arg
                                    52
                                    53  	transfer	request_list,probe_get_misc_$request_list
                        000013          	entry	request_list
    000013  4a  4 00036 7101 20         request_list:	tra	probe_get_misc_$request_list
                                    54
                                    55  	end
ENTRY SEQUENCES

    000014  5a   000107 0000 00
    000015  aa  7 00046 2721 20
    000016  0a   000000 7100 00
    000017  5a   000102 0000 00
    000020  aa  7 00046 2721 20
    000021  0a   000001 7100 00
    000022  5a   000074 0000 00
    000023  aa  7 00046 2721 20
    000024  0a   000002 7100 00
    000025  5a   000067 0000 00
    000026  aa  7 00046 2721 20
    000027  0a   000003 7100 00
    000030  5a   000061 0000 00
    000031  aa  7 00046 2721 20
    000032  0a   000004 7100 00
    000033  5a   000053 0000 00
    000034  aa  7 00046 2721 20
    000035  0a   000005 7100 00
    000036  5a   000046 0000 00
    000037  aa  7 00046 2721 20
    000040  0a   000006 7100 00
    000041  5a   000041 0000 00
    000042  aa  7 00046 2721 20
    000043  0a   000007 7100 00
    000044  5a   000034 0000 00
    000045  aa  7 00046 2721 20
    000046  0a   000010 7100 00
    000047  5a   000026 0000 00
    000050  aa  7 00046 2721 20
    000051  0a   000011 7100 00
    000052  5a   000020 0000 00
    000053  aa  7 00046 2721 20
    000054  0a   000012 7100 00
    000055  5a   000011 0000 00
    000056  aa  7 00046 2721 20
    000057  0a   000013 7100 00

NO LITERALS

NAME DEFINITIONS FOR ENTRY POINTS AND SEGDEFS

    000060  5a   000003 000000
    000061  5a   000124 600000
    000062  aa   000000 000000
    000063  55   000011 000002
    000064  5a   000002 400003
    000065  55   000006 000011
    000066  aa  012 160 162 157
    000067  aa  142 145 137 147
    000070  aa  145 164 137 000
    000071  55   000020 000003
    000072  0a   000056 500000
    000073  55   000014 000003
    000074  aa  014 162 145 161         request_list
    000075  aa  165 145 163 164
    000076  aa  137 154 151 163
    000077  aa  164 000 000 000
    000100  55   000026 000011
    000101  0a   000053 500000
    000102  55   000023 000003
    000103  aa  013 143 157 156         control_arg
    000104  aa  164 162 157 154
    000105  aa  137 141 162 147
    000106  55   000034 000020
    000107  0a   000050 500000
    000110  55   000031 000003
    000111  aa  011 151 157 137         io_switch
    000112  aa  163 167 151 164
    000113  aa  143 150 000 000
    000114  55   000041 000026
    000115  0a   000045 500000
    000116  55   000037 000003
    000117  aa  007 144 145 143         decimal
    000120  aa  151 155 141 154
    000121  55   000046 000034
    000122  0a   000042 500000
    000123  55   000044 000003
    000124  aa  007 151 156 164         integer
    000125  aa  145 147 145 162
    000126  55   000053 000041
    000127  0a   000037 500000
    000130  55   000051 000003
    000131  aa  006 157 142 152         object
    000132  aa  145 143 164 000
    000133  55   000061 000046
    000134  0a   000034 500000
    000135  55   000056 000003
    000136  aa  010 160 141 164         pathname
    000137  aa  150 156 141 155
    000140  aa  145 000 000 000
    000141  55   000067 000053
    000142  0a   000031 500000
    000143  55   000064 000003
    000144  aa  012 147 145 156         generation
    000145  aa  145 162 141 164
    000146  aa  151 157 156 000
    000147  55   000074 000061
    000150  0a   000026 500000
    000151  55   000072 000003
    000152  aa  004 154 151 156         line
    000153  aa  145 000 000 000
    000154  55   000102 000067
    000155  0a   000023 500000
    000156  55   000077 000003
    000157  aa  011 162 145 146         reference
    000160  aa  145 162 145 156
    000161  aa  143 145 000 000
    000162  55   000107 000074
    000163  0a   000020 500000
    000164  55   000105 000003
    000165  aa  005 166 141 154         value
    000166  aa  165 145 000 000
    000167  55   000115 000102
    000170  0a   000015 500000
    000171  55   000112 000003
    000172  aa  012 145 170 160         expression
    000173  aa  162 145 163 163
    000174  aa  151 157 156 000
    000175  55   000002 000107
    000176  6a   000000 400002
    000177  55   000120 000003
    000200  aa  014 163 171 155         symbol_table
    000201  aa  142 157 154 137
    000202  aa  164 141 142 154
    000203  aa  145 000 000 000

DEFINITIONS HASH TABLE

    000204  aa   000000 000033
    000205  aa   000000 000000
    000206  5a   000067 000000
    000207  5a   000107 000000
    000210  aa   000000 000000
    000211  aa   000000 000000
    000212  5a   000046 000000
    000213  5a   000011 000000
    000214  5a   000020 000000
    000215  aa   000000 000000
    000216  aa   000000 000000
    000217  5a   000034 000000
    000220  5a   000115 000000
    000221  aa   000000 000000
    000222  aa   000000 000000
    000223  aa   000000 000000
    000224  5a   000053 000000
    000225  5a   000102 000000
    000226  aa   000000 000000
    000227  aa   000000 000000
    000230  aa   000000 000000
    000231  aa   000000 000000
    000232  5a   000061 000000
    000233  aa   000000 000000
    000234  5a   000041 000000
    000235  aa   000000 000000
    000236  5a   000074 000000
    000237  5a   000026 000000

EXTERNAL NAMES

    000240  aa  017 160 162 157         probe_get_misc_
    000241  aa  142 145 137 147
    000242  aa  145 164 137 155
    000243  aa  151 163 143 137
    000244  aa  025 160 162 157         probe_get_generation_
    000245  aa  142 145 137 147
    000246  aa  145 164 137 147
    000247  aa  145 156 145 162
    000250  aa  141 164 151 157
    000251  aa  156 137 000 000
    000252  aa  017 160 162 157         probe_get_line_
    000253  aa  142 145 137 147
    000254  aa  145 164 137 154
    000255  aa  151 156 145 137
    000256  aa  020 160 162 157         probe_get_value_
    000257  aa  142 145 137 147
    000260  aa  145 164 137 166
    000261  aa  141 154 165 145
    000262  aa  137 000 000 000
    000263  aa  017 160 162 157         probe_get_expr_
    000264  aa  142 145 137 147
    000265  aa  145 164 137 145
    000266  aa  170 160 162 137

NO TRAP POINTER WORDS

TYPE PAIR BLOCKS

    000267  aa   000004 000000
    000270  55   000160 000014
    000271  aa   000004 000000
    000272  55   000160 000023
    000273  aa   000004 000000
    000274  55   000160 000031
    000275  aa   000004 000000
    000276  55   000160 000037
    000277  aa   000004 000000
    000300  55   000160 000044
    000301  aa   000004 000000
    000302  55   000160 000051
    000303  aa   000004 000000
    000304  55   000160 000056
    000305  aa   000004 000000
    000306  55   000164 000164
    000307  aa   000004 000000
    000310  55   000172 000172
    000311  aa   000004 000000
    000312  55   000176 000077
    000313  aa   000004 000000
    000314  55   000176 000105
    000315  aa   000004 000000
    000316  55   000203 000203
    000317  aa   000001 000000
    000320  aa   000000 000000

INTERNAL EXPRESSION WORDS

    000321  5a   000207 000000
    000322  5a   000211 000000
    000323  5a   000213 000000
    000324  5a   000215 000000
    000325  5a   000217 000000
    000326  5a   000221 000000
    000327  5a   000223 000000
    000330  5a   000225 000000
    000331  5a   000227 000000
    000332  5a   000231 000000
    000333  5a   000233 000000
    000334  5a   000235 000000
    000335  aa   000000 000000
LINKAGE INFORMATION

    000000  aa   000000 000000
    000001  0a   000060 000000
    000002  aa   000000 000000
    000003  aa   000000 000000
    000004  aa   000000 000000
    000005  aa   000000 000000
    000006  22   000010 000040
    000007  a2   000000 000000
    000010  9a   777770 0000 46         probe_get_expr_|probe_get_expr_
    000011  5a   000254 0000 00
    000012  9a   777766 0000 46         probe_get_value_|value
    000013  5a   000253 0000 00
    000014  9a   777764 0000 46         probe_get_value_|reference
    000015  5a   000252 0000 00
    000016  9a   777762 0000 46         probe_get_line_|probe_get_line_
    000017  5a   000251 0000 00
    000020  9a   777760 0000 46         probe_get_generation_|probe_get_generation_
    000021  5a   000250 0000 00
    000022  9a   777756 0000 46         probe_get_misc_|pathname
    000023  5a   000247 0000 00
    000024  9a   777754 0000 46         probe_get_misc_|object
    000025  5a   000246 0000 00
    000026  9a   777752 0000 46         probe_get_misc_|integer
    000027  5a   000245 0000 00
    000030  9a   777750 0000 46         probe_get_misc_|decimal
    000031  5a   000244 0000 00
    000032  9a   777746 0000 46         probe_get_misc_|io_switch
    000033  5a   000243 0000 00
    000034  9a   777744 0000 46         probe_get_misc_|control_arg
    000035  5a   000242 0000 00
    000036  9a   777742 0000 46         probe_get_misc_|request_list
    000037  5a   000241 0000 00
SYMBOL INFORMATION

SYMBOL TABLE HEADER

    000000  aa   000000 000001
    000001  aa   163171 155142
    000002  aa   164162 145145
    000003  aa   000000 000010
    000004  aa   000000 117244
    000005  aa   361023 525721
    000006  aa   000000 131036
    000007  aa   710560 605223
    000010  aa   141154 155040
    000011  aa   040040 040040
    000012  aa   000024 000040
    000013  aa   000034 000040
    000014  aa   000044 000100
    000015  aa   000002 000002
    000016  aa   000064 000000
    000017  aa   000000 000162
    000020  aa   000000 000102
    000021  aa   000122 000113
    000022  aa   000154 000102
    000023  aa   000064 000000
    000024  aa   101114 115040
    000025  aa   126145 162163
    000026  aa   151157 156040
    000027  aa   070056 061064
    000030  aa   040115 141162
    000031  aa   143150 040061
    000032  aa   071070 071040
    000033  aa   040040 040040
    000034  aa   123143 150162
    000035  aa   157164 150056
    000036  aa   123171 163115
    000037  aa   141151 156164
    000040  aa   056155 040040
    000041  aa   040040 040040
    000042  aa   040040 040040
    000043  aa   040040 040040
    000044  aa   154151 163164
    000045  aa   040163 171155
    000046  aa   142157 154163
    000047  aa   040040 040040
    000050  aa   040040 040040
    000051  aa   040040 040040
    000052  aa   040040 040040
    000053  aa   040040 040040
    000054  aa   040040 040040
    000055  aa   040040 040040
    000056  aa   040040 040040
    000057  aa   040040 040040
    000060  aa   040040 040040
    000061  aa   040040 040040
    000062  aa   040040 040040
    000063  aa   040040 040040
    000064  aa   000000 000001
    000065  aa   000000 000001
    000066  aa   000072 000036
    000067  aa   310157 126617
    000070  aa   000000 131036
    000071  aa   710560 600000
    000072  aa   076165 144144          >udd>sm>ds>w>ml>probe_get_.alm
    000073  aa   076163 155076
    000074  aa   144163 076167
    000075  aa   076155 154076
    000076  aa   160162 157142
    000077  aa   145137 147145
    000100  aa   164137 056141
    000101  aa   154155 040040
               MULTICS ASSEMBLY CROSS REFERENCE LISTING

   Value        Symbol                   Source file   Line number

          12    control_arg              probe_get_:    51.
          10    decimal                  probe_get_:    47.
           0    expression               probe_get_:    35.
           4    generation               probe_get_:    41.
           7    integer                  probe_get_:    46.
          11    io_switch                probe_get_:    49.
           3    line                     probe_get_:    40.
           6    object                   probe_get_:    44.
           5    pathname                 probe_get_:    43.
                probe_get_expr_          probe_get_:    35.
                probe_get_generation_    probe_get_:    41.
                probe_get_line_          probe_get_:    40.
                probe_get_misc_          probe_get_:    43,   44,   46,   47,   49,   51,   53.
                probe_get_value_         probe_get_:    37,   38.
           2    reference                probe_get_:    38.
          13    request_list             probe_get_:    53.
           1    value                    probe_get_:    37.


NO FATAL ERRORS


                                          -----------------------------------------------------------


Historical Background

This edition of the Multics software materials and documentation is provided and donated
to Massachusetts Institute of Technology by Group BULL including BULL HN Information Systems Inc.
as a contribution to computer science knowledge.
This donation is made also to give evidence of the common contributions of Massachusetts Institute of Technology,
Bell Laboratories, General Electric, Honeywell Information Systems Inc., Honeywell BULL Inc., Groupe BULL
and BULL HN Information Systems Inc. to the development of this operating system.
Multics development was initiated by Massachusetts Institute of Technology Project MAC (1963-1970),
renamed the MIT Laboratory for Computer Science and Artificial Intelligence in the mid 1970s, under the leadership
of Professor Fernando Jose Corbato. Users consider that Multics provided the best software architecture
for managing computer hardware properly and for executing programs. Many subsequent operating systems
incorporated Multics principles.
Multics was distributed in 1975 to 2000 by Group Bull in Europe , and in the U.S. by Bull HN Information Systems Inc.,
as successor in interest by change in name only to Honeywell Bull Inc. and Honeywell Information Systems Inc. .

                                          -----------------------------------------------------------

Permission to use, copy, modify, and distribute these programs and their documentation for any purpose and without
fee is hereby granted,provided that the below copyright notice and historical background appear in all copies
and that both the copyright notice and historical background and this permission notice appear in supporting
documentation, and that the names of MIT, HIS, BULL or BULL HN not be used in advertising or publicity pertaining
to distribution of the programs without specific prior written permission.
    Copyright 1972 by Massachusetts Institute of Technology and Honeywell Information Systems Inc.
    Copyright 2006 by BULL HN Information Systems Inc.
    Copyright 2006 by Bull SAS
    All Rights Reserved
