ASSEMBLY LISTING OF SEGMENT >special_ldd>install>MR12.2-1184>probe.alm
ASSEMBLED ON:	10/24/88  1431.5 mst Mon
OPTIONS USED:	-target l68                              list symbols
ASSEMBLED BY:	ALM Version 8.13 September 1988
ASSEMBLER CREATED:	10/17/88  1015.1 mst Mon

                                     1  " ***********************************************************
                                     2  " *                                                         *
                                     3  " * Copyright, (C) Honeywell Bull Inc., 1988                *
                                     4  " *                                                         *
                                     5  " * Copyright, (C) Honeywell Information Systems Inc., 1982 *
                                     6  " *                                                         *
                                     7  " * Copyright (c) 1972 by Massachusetts Institute of        *
                                     8  " * Technology and Honeywell Information Systems, Inc.      *
                                     9  " *                                                         *
                                    10  " ***********************************************************
                                    11
                                    12  " HISTORY COMMENTS:
                                    13  "  1) change(88-10-18,WAAnderson), approve(88-10-18,MCR7952),
                                    14  "     audit(88-10-18,JRGray), install(88-10-24,MR12.2-1184):
                                    15  "     Probe source archive split. Part of C-Probe support.
                                    16  "                                                      END HISTORY COMMENTS
                                    17
                                    18
                                    19  "
                                    20  "	This is a transfer vector whose purpose in life is to redirect calls
                                    21  "	to entries in "probe" to their prober destinations. This is done because
                                    22  "	the probe command and the probe breakpoint handler are now substantually
                                    23  "	different, even though they are still both entrypoints in probe.
                                    24  "
                                    25  "	07/13/79 W. Olin Sibert
                                    26  "
                                    27
                        000000      28  	entry	probe
                        000001      29  	entry	pb
                        000002      30  	entry	break
                                    31
    000000  4a  4 00010 7101 20     32  probe:	tra	probe_command_$probe_command_
                                    33
    000001  4a  4 00010 7101 20     34  pb:	tra	probe_command_$probe_command_
                                    35
    000002  4a  4 00012 7101 20     36  break:	tra	probe_break_handler_$break_type_1
                                    37
                                    38  	end
ENTRY SEQUENCES

    000003  5a   000021 0000 00
    000004  aa  7 00046 2721 20
    000005  0a   000000 7100 00
    000006  5a   000015 0000 00
    000007  aa  7 00046 2721 20
    000010  0a   000001 7100 00
    000011  5a   000010 0000 00
    000012  aa  7 00046 2721 20
    000013  0a   000002 7100 00

NO LITERALS

NAME DEFINITIONS FOR ENTRY POINTS AND SEGDEFS

    000014  5a   000003 000000
    000015  5a   000035 600000
    000016  aa   000000 000000
    000017  55   000010 000002
    000020  5a   000002 400003
    000021  55   000006 000010
    000022  aa  005 160 162 157
    000023  aa  142 145 000 000
    000024  55   000015 000003
    000025  0a   000012 500000
    000026  55   000013 000003
    000027  aa  005 142 162 145         break
    000030  aa  141 153 000 000
    000031  55   000021 000010
    000032  0a   000007 500000
    000033  55   000020 000003
    000034  aa  002 160 142 000         pb
    000035  55   000026 000015
    000036  0a   000004 500000
    000037  55   000024 000003
    000040  aa  005 160 162 157         probe
    000041  aa  142 145 000 000
    000042  55   000002 000021
    000043  6a   000000 400002
    000044  55   000031 000003
    000045  aa  014 163 171 155         symbol_table
    000046  aa  142 157 154 137
    000047  aa  164 141 142 154
    000050  aa  145 000 000 000

DEFINITIONS HASH TABLE

    000051  aa   000000 000015
    000052  aa   000000 000000
    000053  aa   000000 000000
    000054  5a   000010 000000
    000055  aa   000000 000000
    000056  5a   000015 000000
    000057  aa   000000 000000
    000060  5a   000026 000000
    000061  aa   000000 000000
    000062  aa   000000 000000
    000063  aa   000000 000000
    000064  aa   000000 000000
    000065  5a   000021 000000
    000066  aa   000000 000000

EXTERNAL NAMES

    000067  aa  014 142 162 145         break_type_1
    000070  aa  141 153 137 164
    000071  aa  171 160 145 137
    000072  aa  061 000 000 000
    000073  aa  024 160 162 157         probe_break_handler_
    000074  aa  142 145 137 142
    000075  aa  162 145 141 153
    000076  aa  137 150 141 156
    000077  aa  144 154 145 162
    000100  aa  137 000 000 000
    000101  aa  016 160 162 157         probe_command_
    000102  aa  142 145 137 143
    000103  aa  157 155 155 141
    000104  aa  156 144 137 000

NO TRAP POINTER WORDS

TYPE PAIR BLOCKS

    000105  aa   000004 000000
    000106  55   000057 000053
    000107  aa   000004 000000
    000110  55   000065 000065
    000111  aa   000001 000000
    000112  aa   000000 000000

INTERNAL EXPRESSION WORDS

    000113  5a   000071 000000
    000114  5a   000073 000000
    000115  aa   000000 000000
LINKAGE INFORMATION

    000000  aa   000000 000000
    000001  0a   000014 000000
    000002  aa   000000 000000
    000003  aa   000000 000000
    000004  aa   000000 000000
    000005  aa   000000 000000
    000006  22   000010 000014
    000007  a2   000000 000000
    000010  9a   777770 0000 46         probe_command_|probe_command_
    000011  5a   000100 0000 00
    000012  9a   777766 0000 46         probe_break_handler_|break_type_1
    000013  5a   000077 0000 00
SYMBOL INFORMATION

SYMBOL TABLE HEADER

    000000  aa   000000 000001
    000001  aa   163171 155142
    000002  aa   164162 145145
    000003  aa   000000 000010
    000004  aa   000000 116575
    000005  aa   012137 773040
    000006  aa   000000 116606
    000007  aa   026703 414714
    000010  aa   141154 155040
    000011  aa   040040 040040
    000012  aa   000024 000040
    000013  aa   000034 000040
    000014  aa   000044 000100
    000015  aa   000002 000002
    000016  aa   000064 000000
    000017  aa   000000 000135
    000020  aa   000000 000105
    000021  aa   000115 000111
    000022  aa   000127 000105
    000023  aa   000064 000000
    000024  aa   101114 115040
    000025  aa   126145 162163
    000026  aa   151157 156040
    000027  aa   070056 061063
    000030  aa   040123 145160
    000031  aa   164145 155142
    000032  aa   145162 040061
    000033  aa   071070 070040
    000034  aa   110151 162156
    000035  aa   145151 163145
    000036  aa   156056 123171
    000037  aa   163115 141151
    000040  aa   156164 056141
    000041  aa   040040 040040
    000042  aa   040040 040040
    000043  aa   040040 040040
    000044  aa   055164 141162
    000045  aa   147145 164040
    000046  aa   154066 070040
    000047  aa   040040 040040
    000050  aa   040040 040040
    000051  aa   040040 040040
    000052  aa   040040 040040
    000053  aa   040040 040040
    000054  aa   040040 040040
    000055  aa   040040 040040
    000056  aa   040154 151163
    000057  aa   164040 163171
    000060  aa   155142 157154
    000061  aa   163040 040040
    000062  aa   040040 040040
    000063  aa   040040 040040
    000064  aa   000000 000001
    000065  aa   000000 000001
    000066  aa   000072 000052
    000067  aa   166057 365107
    000070  aa   000000 116606
    000071  aa   006112 200000
    000072  aa   076163 160145          >special_ldd>install>MR12.2-1184>probe.alm
    000073  aa   143151 141154
    000074  aa   137154 144144
    000075  aa   076151 156163
    000076  aa   164141 154154
    000077  aa   076115 122061
    000100  aa   062056 062055
    000101  aa   061061 070064
    000102  aa   076160 162157
    000103  aa   142145 056141
    000104  aa   154155 040040
               MULTICS ASSEMBLY CROSS REFERENCE LISTING

   Value        Symbol                   Source file   Line number

           2    break                    probe:         30,   36.
                break_type_1             probe:         36.
           1    pb                       probe:         29,   34.
           0    probe                    probe:         28,   32.
                probe_break_handler_     probe:         36.
                probe_command_           probe:         32,   34.


NO FATAL ERRORS


                                          -----------------------------------------------------------


Historical Background

This edition of the Multics software materials and documentation is provided and donated
to Massachusetts Institute of Technology by Group BULL including BULL HN Information Systems Inc.
as a contribution to computer science knowledge.
This donation is made also to give evidence of the common contributions of Massachusetts Institute of Technology,
Bell Laboratories, General Electric, Honeywell Information Systems Inc., Honeywell BULL Inc., Groupe BULL
and BULL HN Information Systems Inc. to the development of this operating system.
Multics development was initiated by Massachusetts Institute of Technology Project MAC (1963-1970),
renamed the MIT Laboratory for Computer Science and Artificial Intelligence in the mid 1970s, under the leadership
of Professor Fernando Jose Corbato. Users consider that Multics provided the best software architecture
for managing computer hardware properly and for executing programs. Many subsequent operating systems
incorporated Multics principles.
Multics was distributed in 1975 to 2000 by Group Bull in Europe , and in the U.S. by Bull HN Information Systems Inc.,
as successor in interest by change in name only to Honeywell Bull Inc. and Honeywell Information Systems Inc. .

                                          -----------------------------------------------------------

Permission to use, copy, modify, and distribute these programs and their documentation for any purpose and without
fee is hereby granted,provided that the below copyright notice and historical background appear in all copies
and that both the copyright notice and historical background and this permission notice appear in supporting
documentation, and that the names of MIT, HIS, BULL or BULL HN not be used in advertising or publicity pertaining
to distribution of the programs without specific prior written permission.
    Copyright 1972 by Massachusetts Institute of Technology and Honeywell Information Systems Inc.
    Copyright 2006 by BULL HN Information Systems Inc.
    Copyright 2006 by Bull SAS
    All Rights Reserved
