ASSEMBLY LISTING OF SEGMENT >special_ldd>install>MR12.2-1184>probe_request_table_.alm
ASSEMBLED ON:	10/24/88  1431.1 mst Mon
OPTIONS USED:	-target l68                              list symbols
ASSEMBLED BY:	ALM Version 8.13 September 1988
ASSEMBLER CREATED:	10/17/88  1015.1 mst Mon

                                     1  " ***********************************************************
                                     2  " *                                                         *
                                     3  " * Copyright, (C) Honeywell Bull Inc., 1988                *
                                     4  " *                                                         *
                                     5  " * Copyright, (C) Honeywell Information Systems Inc., 1982 *
                                     6  " *                                                         *
                                     7  " * Copyright (c) 1972 by Massachusetts Institute of        *
                                     8  " * Technology and Honeywell Information Systems, Inc.      *
                                     9  " *                                                         *
                                    10  " ***********************************************************
                                    11
                                    12
                                    13
                                    14  " HISTORY COMMENTS:
                                    15  "  1) change(88-09-30,WAAnderson), approve(88-09-30,MCR7952),
                                    16  "     audit(88-09-30,JRGray), install(88-10-24,MR12.2-1184):
                                    17  "     Modified for C-Probe support.
                                    18  "                                                      END HISTORY COMMENTS
                                    19
                                    20
                                    21  "
                                    22  "	Standard request table for new probe
                                    23  "
                                    24  "	Created:	04/09/79 W. Olin Sibert
                                    25  "	Modified: 10 Sept 79 by JRD
                                    26  "	Modified:  5 Feb 80  by JRD add declare and list_variables
                                    27  "	Added input_description and output_description 10/01/81 S. Herbst
                                    28  "	Added object request 11/10/81 S. Herbst
                                    29  "	Added enable request (undocumented), used when debugging probe itself 08/15/83 S. Herbst
                                    30  "	Modified June 83 JMAthane to add PASCAL builtins
                                    31  "
                                    32
                                    33  	include	probe_request_macros
                                   1-1  "	BEGIN INCLUDE FILE probe_request_macros.incl.alm
                                   1-2  "	Created (from subsys_request_macros) 04/08/79 W. Olin Sibert
                                   1-3  "
                                   1-4  " Macros to create request table(s) for probe and probe extensions
                                   1-5
                                   1-6
                        000001     1-7  	equ	request_table_version,1
                                   1-8
                        040000     1-9  	bool	flags.is_request,040000	" this entry is a request
                        020000    1-10  	bool	flags.is_builtin,020000	" this entry is a builtin function
                                  1-11
                        400000    1-12  	bool	flags.unimplemented,400000	" this request is not yet implemented
                        200000    1-13  	bool	flags.secret,200000 	" this is an internal request, and doesn't show up in a "?" listing
                                  1-14
                                  1-15
                                  1-16  "
                                  1-17  "	begin_table tablename
                                  1-18  "
                                  1-19
                                  1-20  	macro	begin_table
                              1   1-21  	segdef	&1
                              2   1-22  	maclist	object,save
                              3   1-23  	use	tables
                              4   1-24  &1:	vfd	36/request_table_version
                              5   1-25  	aci	@&1@,32
                              6   1-26  	dup	6		" six words of padding, for later use as flags
                              7   1-27  	vfd	36/0
                              8   1-28  	dupend
                              9   1-29  	vfd	36/&1.rc
                             10   1-30  	maclist	off
                             11   1-31  	set	.rc,0
                             12   1-32  	maclist	restore
                             13   1-33  	&end
                                  1-34
                                  1-35  "
                                  1-36  "	Request generating macro. Intended use:
                                  1-37  "
                                  1-38  "	request	name,(alias),segname$entryname,
                                  1-39  "		(Short description of request.){,flags}
                                  1-40  "
                                  1-41
                                  1-42  	macro	request
                              1   1-43  	maclist	off,save
                              2   1-44  	set	.rc,.rc+1
                              3   1-45  	maclist	object
                              4   1-46  	use	tables
                              5   1-47  	vfd	18/&U.call,18/&U.names
                              6   1-48  &=&4,&[	vfd	36/0
                              7   1-49  &;	vfd	18/&U.info,18/&l4
                              8   1-50  	vfd	36/0		" usage string info will go here
                              9   1-51  	maclist	off
                             10   1-52  	use	info
                             11   1-53  &U.info:	aci	@&4@
                             12   1-54  &]
                             13   1-55  	use	tables
                             14   1-56  &=&5,&[	set	.flags,flags.is_request
                             15   1-57  &;	set	.flags,&5+flags.is_request
                             16   1-58  &]
                             17   1-59  	maclist	object
                             18   1-60  	vfd	18/.flags,18/0
                             19   1-61  	maclist	off
                             20   1-62  	use	calls
                             21   1-63  &U.call:	epaq	*
                             22   1-64  	lprp4	7|stack_header.lot_ptr,*au
                             23   1-65  	call6	&3
                             24   1-66  	use	names
                             25   1-67  &U.names: namelist	&1&^=&2,&[,&2&]
                             26   1-68  	maclist	restore
                             27   1-69  	&end
                                  1-70
                                  1-71  "
                                  1-72  "	Macro for generating builtins. Syntax is same as request macro
                                  1-73  "
                                  1-74
                                  1-75  	macro	builtin
                              1   1-76  	maclist	off,save
                              2   1-77  	set	.rc,.rc+1
                              3   1-78  	maclist	object
                              4   1-79  	use	tables
                              5   1-80  	vfd	18/&U.call,18/&U.names
                              6   1-81  &=&4,&[	vfd	36/0
                              7   1-82  &;	vfd	18/&U.info,18/&l4
                              8   1-83  	vfd	36/0		" usage string info will go here
                              9   1-84  	maclist	off
                             10   1-85  	use	info
                             11   1-86  &U.info:	aci	@&4@
                             12   1-87  &]
                             13   1-88  	use	tables
                             14   1-89  &=&5,&[	set	.flags,flags.is_builtin
                             15   1-90  &;	set	.flags,&5+flags.is_builtin
                             16   1-91  &]
                             17   1-92  	maclist	object
                             18   1-93  	vfd	18/.flags,18/0
                             19   1-94  	maclist	off
                             20   1-95  	use	calls
                             21   1-96  &U.call:	epaq	*
                             22   1-97  	lprp4	7|stack_header.lot_ptr,*au
                             23   1-98  	call6	&3
                             24   1-99  	use	names
                             25  1-100  &U.names: namelist	&1&^=&2,&[,&2&]
                             26  1-101  	maclist	restore
                             27  1-102  	&end
                                 1-103
                                 1-104  "
                                 1-105  "	internal macro for generating name lists
                                 1-106  "
                                 1-107
                                 1-108  	macro	namelist
                              1  1-109  	maclist	off,save
                              2  1-110  	vfd	36/&K
                              3  1-111  &R&(	aci	@&i@,32
                              4  1-112  &)
                              5  1-113  	maclist	restore
                              6  1-114  	&end
                                 1-115
                                 1-116  "
                                 1-117  "	end_table tablename
                                 1-118  "
                                 1-119
                                 1-120  	macro	end_table
                              1  1-121  	maclist	off,save
                              2  1-122  	set	&1.rc,.rc
                              3  1-123  	maclist	restore
                              4  1-124  	&end
                                 1-125
                                 1-126
                                 1-127  	use	tables
                                 1-128  	use	calls
                                 1-129  	use	names
                                 1-130  	use	info
                                 1-131  	join	/text/tables,calls,names,info
                                 1-132
                        000026   1-133  	equ	stack_header.lot_ptr,22
                                 1-134
                                 1-135  "	END INCLUDE FILE probe_request_macros.incl.alm
                                    34
                                    35  	begin_table	probe_request_table_
                        000000          	segdef	probe_request_table_
    000000  aa   000000 000001
    000001  aa  160 162 157 142
    000002  aa  145 137 162 145
    000003  aa  161 165 145 163
    000004  aa  164 137 164 141
    000005  aa  142 154 145 137
    000006  aa  040 040 040 040
    000007  aa  040 040 040 040
    000010  aa  040 040 040 040
                        000006
    000011  aa   000000 000000
    000012  aa   000000 000000
    000013  aa   000000 000000
    000014  aa   000000 000000
    000015  aa   000000 000000
    000016  aa   000000 000000
    000017  aa   000000 000075
                                    36
                                    37  "
                                    38  "
                                    39  "
                                    40  "	P R O B E    R E Q U E S T S
                                    41  "
                                    42
                                    43  	request	after,(a),probe_requests_$after_request,
                                    44  		(Set a breakpoint after the specified statement.)
    000020  00   000404 000673
    000021  0a   002670 000057
    000022  aa   000000 000000
    000023  aa   040000 000000
                                    45
                                    46  	request	arguments,(args),probe_requests_$args_request,
                                    47  		(Print argument list for procedure.)
    000024  00   000407 000714
    000025  0a   002704 000042
    000026  aa   000000 000000
    000027  aa   040000 000000
                                    48
                                    49  	request	before,(b),probe_requests_$before_request,
                                    50  		(Set a breakpoint before the specified statement.)
    000030  00   000412 000735
    000031  0a   002715 000060
    000032  aa   000000 000000
    000033  aa   040000 000000
                                    51
                                    52  	request	call,(cl),probe_expr_requests_$call_request,
                                    53  		(Call a subroutine.)
    000034  00   000415 000756
    000035  0a   002731 000022
    000036  aa   000000 000000
    000037  aa   040000 000000
                                    54
                                    55  	request	continue,(c),probe_ctl_requests_$continue_request,
                                    56  		(Continue after a breakpoint.)
    000040  00   000420 000777
    000041  0a   002736 000034
    000042  aa   000000 000000
    000043  aa   040000 000000
                                    57
                                    58  	request	continue_to,(ct),probe_ctl_requests_$continue_to_request,
                                    59  		(Resume execution from last breakpoint and stop at specified statement.)
    000044  00   000423 001020
    000045  0a   002745 000106
    000046  aa   000000 000000
    000047  aa   040000 000000
                                    60
                                    61  	request   declare,(dcl),probe_vars_requests_$declare_request,
                                    62  		(Create a probe variable.)
    000050  00   000426 001041
    000051  0a   002767 000030
    000052  aa   000000 000000
    000053  aa   040000 000000
                                    63
                                    64  	request	display,(ds),probe_display_request_$probe_display_request_,
                                    65  		(Display storage in various formats.)
    000054  00   000431 001062
    000055  0a   002775 000043
    000056  aa   000000 000000
    000057  aa   040000 000000
                                    66
                                    67  	request	enable,(),probe_requests_$enable_request,
                                    68  		(For debugging probe itself; resets recursive-break flag.)
    000060  00   000434 001103
    000061  0a   003006 000070
    000062  aa   000000 000000
    000063  aa   040000 000000
                                    69
                                    70  	request	execute,(e),probe_requests_$execute_request,
                                    71  		(Execute a Multics command line, usually within a break request.)
    000064  00   000437 001114
    000065  0a   003024 000077
    000066  aa   000000 000000
    000067  aa   040000 000000
                                    72
                                    73  	request	goto,(g),probe_ctl_requests_$goto_request,
                                    74  		(Continue execution at a specified statement.)
    000070  00   000442 001135
    000071  0a   003044 000054
    000072  aa   000000 000000
    000073  aa   040000 000000
                                    75
                                    76  	request	go,(),probe_ctl_requests_$goto_request,
                                    77  		(Synonym for goto.)
    000074  00   000445 001156
    000075  0a   003057 000021
    000076  aa   000000 000000
    000077  aa   040000 000000
                                    78
                                    79  	request	halt,(h),probe_ctl_requests_$halt_request,
                                    80  		(Halt and re-enter probe.)
    000100  00   000450 001167
    000101  0a   003064 000030
    000102  aa   000000 000000
    000103  aa   040000 000000
                                    81
                                    82  	request	help,(),probe_info_requests_$help_request,
                                    83  		(Print info files for probe requests.)
    000104  00   000453 001210
    000105  0a   003072 000044
    000106  aa   000000 000000
    000107  aa   040000 000000
                                    84
                                    85  	request	handlers,(),probe_requests_$handlers_request,
                                    86  		(List handlers set up for specified stack frame.)
    000110  00   000456 001221
    000111  0a   003103 000057
    000112  aa   000000 000000
    000113  aa   040000 000000
                                    87
                                    88  	request	if,(),probe_expr_requests_$if_request,
                                    89  		(Execute probe requests based on specified condition.)
    000114  00   000461 001232
    000115  0a   003117 000064
    000116  aa   000000 000000
    000117  aa   040000 000000
                                    90
                                    91  	request	input_description,(ids),probe_requests_$input_description_request,
                                    92  		(Set the input I/O switch from an attach description.)
    000120  00   000464 001243
    000121  0a   003134 000064
    000122  aa   000000 000000
    000123  aa   040000 000000
                                    93
                                    94  	request	input_switch,(isw),probe_requests_$input_switch_request,
                                    95  		(Set the I/O switch used for probe input.)
    000124  00   000467 001264
    000125  0a   003151 000050
    000126  aa   000000 000000
    000127  aa   040000 000000
                                    96
                                    97  	request	language,(lng),probe_language_request_$probe_language_request_,
                                    98  		(Display or set the current language.)
    000130  00   000472 001305
    000131  0a   003163 000044
    000132  aa   000000 000000
    000133  aa   040000 000000
                                    99
                                   100  	request	let,(l),probe_expr_requests_$let_request,
                                   101  		(Change the value of a variable.)
    000134  00   000475 001326
    000135  0a   003174 000037
    000136  aa   000000 000000
    000137  aa   040000 000000
                                   102
                                   103  	request	list_help,(lh),probe_info_requests_$list_help_request,
                                   104  		(List the available info topics for probe.)
    000140  00   000500 001347
    000141  0a   003204 000051
    000142  aa   000000 000000
    000143  aa   040000 000000
                                   105
                                   106  	request	list_builtins,(lb),probe_info_requests_$print_builtin_summary,
                                   107  		(Print a  summary listing of all probe builtins.)
    000144  00   000503 001370
    000145  0a   003217 000057
    000146  aa   000000 000000
    000147  aa   040000 000000
                                   108
                                   109  	request	list_requests,(lr),probe_info_requests_$print_request_summary,
                                   110  		(Print a summary listing of the probe requests.)
    000150  00   000506 001411
    000151  0a   003233 000056
    000152  aa   000000 000000
    000153  aa   040000 000000
                                   111
                                   112  	request	list_variables,(lsv),probe_vars_requests_$list_variables_request,
                                   113  		(Print type and value of one or more probe variables.)
    000154  00   000511 001432
    000155  0a   003247 000064
    000156  aa   000000 000000
    000157  aa   040000 000000
                                   114
                                   115  	request	modes,(mode),probe_modes_mgr_$mode_request,
                                   116  		(Set probe operation modes.)
    000160  00   000514 001453
    000161  0a   003264 000032
    000162  aa   000000 000000
    000163  aa   040000 000000
                                   117
                                   118  	request	object,(obj),probe_requests_$object_request,
                                   119  		(Print instructions for one or more statements.)
    000164  00   000517 001474
    000165  0a   003273 000056
    000166  aa   000000 000000
    000167  aa   040000 000000
                                   120
                                   121  	request	output_description,(ods),probe_requests_$output_description_request,
                                   122  		(Set the output I/O switch from an attach description.)
    000170  00   000522 001515
    000171  0a   003307 000065
    000172  aa   000000 000000
    000173  aa   040000 000000
                                   123
                                   124  	request	output_switch,(osw),probe_requests_$output_switch_request,
                                   125  		(Set the I/O switch used for probe output.)
    000174  00   000525 001536
    000175  0a   003325 000051
    000176  aa   000000 000000
    000177  aa   040000 000000
                                   126
                                   127  	request	pause,(p),probe_ctl_requests_$pause_request,
                                   128  		(Reset the current breakpoint and halt.)
    000200  00   000530 001557
    000201  0a   003340 000046
    000202  aa   000000 000000
    000203  aa   040000 000000
                                   129
                                   130  	request	position,(ps),probe_requests_$position_request,
                                   131  		(Move the probe pointer to a new location and display the source.)
    000204  00   000533 001600
    000205  0a   003352 000100
    000206  aa   000000 000000
    000207  aa   040000 000000
                                   132
                                   133  	request	quit,(q),probe_ctl_requests_$quit_request,
                                   134  		(Leave probe and return to Multics command level.)
    000210  00   000536 001621
    000211  0a   003372 000060
    000212  aa   000000 000000
    000213  aa   040000 000000
                                   135
                                   136  	request	reset,(r),probe_requests_$reset_request,
                                   137  		(Reset breakpoints.)
    000214  00   000541 001642
    000215  0a   003406 000022
    000216  aa   000000 000000
    000217  aa   040000 000000
                                   138
                                   139  	request	source,(sc),probe_requests_$source_request,
                                   140  		(Display source of program.)
    000220  00   000544 001663
    000221  0a   003413 000032
    000222  aa   000000 000000
    000223  aa   040000 000000
                                   141
                                   142  	request	stack,(sk),probe_print_stack_$stack_request,
                                   143  		(Display the stack.)
    000224  00   000547 001704
    000225  0a   003422 000022
    000226  aa   000000 000000
    000227  aa   040000 000000
                                   144
                                   145  	request	status,(st),probe_requests_$status_request,
                                   146  		(Display the status of breakpoints.)
    000230  00   000552 001725
    000231  0a   003427 000042
    000232  aa   000000 000000
    000233  aa   040000 000000
                                   147
                                   148  	request	step,(s),probe_ctl_requests_$step_request,
                                   149  		(Execute one statement and halt.)
    000234  00   000555 001746
    000235  0a   003440 000037
    000236  aa   000000 000000
    000237  aa   040000 000000
                                   150
                                   151  	request	symbol,(sb),probe_expr_requests_$symbol_request,
                                   152  		(Display information about the specified symbol.)
    000240  00   000560 001767
    000241  0a   003450 000057
    000242  aa   000000 000000
    000243  aa   040000 000000
                                   153
                                   154  	request	use,(),probe_requests_$use_request,
                                   155  		(Move the probe pointer to a new location.)
    000244  00   000563 002010
    000245  0a   003464 000051
    000246  aa   000000 000000
    000247  aa   040000 000000
                                   156
                                   157  	request	value,(v),probe_expr_requests_$value_request,
                                   158  		(Print the value of a variable or expression.)
    000250  00   000566 002021
    000251  0a   003477 000054
    000252  aa   000000 000000
    000253  aa   040000 000000
                                   159
                                   160  	request	where,(wh),probe_requests_$where_request,
                                   161  		(Display the current values of the probe pointers.)
    000254  00   000571 002042
    000255  0a   003512 000061
    000256  aa   000000 000000
    000257  aa   040000 000000
                                   162
                                   163  	request	while,(wl),probe_expr_requests_$while_request,
                                   164  		(Execute probe requests while condition is true.)
    000260  00   000574 002063
    000261  0a   003527 000057
    000262  aa   000000 000000
    000263  aa   040000 000000
                                   165
                                   166
                                   167  "
                                   168  "
                                   169  "
                                   170  "	B U I L T I N     F U N C T I O N S
                                   171  "
                                   172
                                   173  	builtin	addr,(address,$addr,$address),probe_builtins_$addr_builtin,
                                   174  		(PL/1 'addr' builtin function)
    000264  00   000577 002104
    000265  0a   003543 000034
    000266  aa   000000 000000
    000267  aa   020000 000000
                                   175
                                   176  	builtin	addrel,($addrel),probe_builtins_$addrel_builtin,
                                   177  		(PL/1 'addrel' builtin function)
    000270  00   000602 002145
    000271  0a   003552 000036
    000272  aa   000000 000000
    000273  aa   020000 000000
                                   178
                                   179  	builtin	baseptr,($baseptr),probe_builtins_$baseptr_builtin,
                                   180  		(PL/1 'baseptr' builtin)
    000274  00   000605 002166
    000275  0a   003562 000026
    000276  aa   000000 000000
    000277  aa   020000 000000
                                   181
                                   182  "	builtin	currentsize,($currentsize),probe_builtins_$currentsize_builtin,
                                   183  "		(PL/1 'currentsize' builtin function)
                                   184
                                   185  	builtin	length,($length),probe_builtins_$length_builtin,
                                   186  		(PL/1 'length' builtin function)
    000300  00   000610 002207
    000301  0a   003570 000036
    000302  aa   000000 000000
    000303  aa   020000 000000
                                   187
                                   188  	builtin	maxlength,($maxlength),probe_builtins_$maxlength_builtin,
                                   189  		(PL/1 'maxlength' builtin function)
    000304  00   000613 002230
    000305  0a   003600 000041
    000306  aa   000000 000000
    000307  aa   020000 000000
                                   190
                                   191  	builtin	null,($null),probe_builtins_$null_builtin,
                                   192  		(PL/1 'null' builtin function)
    000310  00   000616 002251
    000311  0a   003611 000034
    000312  aa   000000 000000
    000313  aa   020000 000000
                                   193
                                   194  	builtin	octal,($octal),probe_builtins_$octal_builtin,
                                   195  		(Close equivalent of PL/1 'unspec' builtin function)
    000314  00   000621 002272
    000315  0a   003620 000062
    000316  aa   000000 000000
    000317  aa   020000 000000
                                   196
                                   197  	builtin	pointer,($pointer,ptr,$ptr),probe_builtins_$ptr_builtin,
                                   198  		(Close relative of PL/1 'pointer' builtin)
    000320  00   000624 002313
    000321  0a   003635 000050
    000322  aa   000000 000000
    000323  aa   020000 000000
                                   199
                                   200  	builtin	rel,($rel),probe_builtins_$rel_builtin,
                                   201  		(PL/1 'rel' builtin)
    000324  00   000627 002354
    000325  0a   003647 000022
    000326  aa   000000 000000
    000327  aa   020000 000000
                                   202
                                   203  	builtin	segno,($segno),probe_builtins_$segno_builtin,
                                   204  		(PL/1 'segno' builtin)
    000330  00   000632 002375
    000331  0a   003654 000024
    000332  aa   000000 000000
    000333  aa   020000 000000
                                   205
                                   206  "	builtin	size,($size),probe_bultins_$size_builtin,
                                   207  "		(PL/1 'size' builtin function)
                                   208
                                   209  	builtin	substr,($substr),probe_builtins_$substr_builtin,
                                   210  		(PL/1 'substr' builtin function)
    000334  00   000635 002416
    000335  0a   003661 000036
    000336  aa   000000 000000
    000337  aa   020000 000000
                                   211
                                   212  	builtin	unspec,($unspec),probe_builtins_$unspec_builtin,
                                   213  		(PL/1 'unspec' builtin)
    000340  00   000640 002437
    000341  0a   003671 000025
    000342  aa   000000 000000
    000343  aa   020000 000000
                                   214
                                   215  	builtin	true,($true),probe_builtins_$pascal_true_builtin,
                                   216  		(PASCAL 'true' predefined constant)
    000344  00   000643 002460
    000345  0a   003677 000041
    000346  aa   000000 000000
    000347  aa   020000 000000
                                   217
                                   218  	builtin	false,($false),probe_builtins_$pascal_false_builtin,
                                   219  		(PASCAL 'false' predefined constant)
    000350  00   000646 002501
    000351  0a   003710 000042
    000352  aa   000000 000000
    000353  aa   020000 000000
                                   220
                                   221  	builtin	nil,($nil),probe_builtins_$pascal_nil_builtin,
                                   222  		(PASCAL 'nil' predefined constant)
    000354  00   000651 002522
    000355  0a   003721 000040
    000356  aa   000000 000000
    000357  aa   020000 000000
                                   223
                                   224  	builtin	ord,($ord),probe_builtins_$pascal_ord_builtin,
                                   225  		(PASCAL 'ord' predefined function)
    000360  00   000654 002543
    000361  0a   003731 000040
    000362  aa   000000 000000
    000363  aa   020000 000000
                                   226
                                   227  	builtin	chr,($chr),probe_builtins_$pascal_chr_builtin,
                                   228  		(PASCAL 'chr' predefined function)
    000364  00   000657 002564
    000365  0a   003741 000040
    000366  aa   000000 000000
    000367  aa   020000 000000
                                   229
                                   230  	builtin	eof,($eof),probe_builtins_$pascal_eof_builtin,
                                   231  		(PASCAL 'eof' predefined function)
    000370  00   000662 002605
    000371  0a   003751 000040
    000372  aa   000000 000000
    000373  aa   020000 000000
                                   232
                                   233  	builtin	eoln,($eoln),probe_builtins_$pascal_eoln_builtin,
                                   234  		(PASCAL 'eoln' predefined function)
    000374  00   000665 002626
    000375  0a   003761 000041
    000376  aa   000000 000000
    000377  aa   020000 000000
                                   235
                                   236  	builtin	sizeof,($sizeof),probe_builtins_$sizeof_builtin,
                                   237  		(C 'sizeof' builtin function)
    000400  00   000670 002647
    000401  0a   003772 000033
    000402  aa   000000 000000
    000403  aa   020000 000000
                                   238
                                   239  	end_table 	probe_request_table_
                                   240
                                   241  	end

NO LITERALS

NAME DEFINITIONS FOR ENTRY POINTS AND SEGDEFS

    004002  5a   000003 000000
    004003  5a   000034 600000
    004004  aa   000000 000000
    004005  55   000014 000002
    004006  5a   000002 400003
    004007  55   000006 000014
    004010  aa  024 160 162 157
    004011  aa  142 145 137 162
    004012  aa  145 161 165 145
    004013  aa  163 164 137 164
    004014  aa  141 142 154 145
    004015  aa  137 000 000 000
    004016  55   000025 000003
    004017  0a   000000 400000
    004020  55   000017 000003
    004021  aa  024 160 162 157         probe_request_table_
    004022  aa  142 145 137 162
    004023  aa  145 161 165 145
    004024  aa  163 164 137 164
    004025  aa  141 142 154 145
    004026  aa  137 000 000 000
    004027  55   000002 000014
    004030  6a   000000 400002
    004031  55   000030 000003
    004032  aa  014 163 171 155         symbol_table
    004033  aa  142 157 154 137
    004034  aa  164 141 142 154
    004035  aa  145 000 000 000

DEFINITIONS HASH TABLE

    004036  aa   000000 000015
    004037  aa   000000 000000
    004040  5a   000014 000000
    004041  aa   000000 000000
    004042  aa   000000 000000
    004043  aa   000000 000000
    004044  aa   000000 000000
    004045  5a   000025 000000
    004046  aa   000000 000000
    004047  aa   000000 000000
    004050  aa   000000 000000
    004051  aa   000000 000000
    004052  aa   000000 000000
    004053  aa   000000 000000

EXTERNAL NAMES

    004054  aa  016 163 151 172         sizeof_builtin
    004055  aa  145 157 146 137
    004056  aa  142 165 151 154
    004057  aa  164 151 156 000
    004060  aa  023 160 141 163         pascal_eoln_builtin
    004061  aa  143 141 154 137
    004062  aa  145 157 154 156
    004063  aa  137 142 165 151
    004064  aa  154 164 151 156
    004065  aa  022 160 141 163         pascal_eof_builtin
    004066  aa  143 141 154 137
    004067  aa  145 157 146 137
    004070  aa  142 165 151 154
    004071  aa  164 151 156 000
    004072  aa  022 160 141 163         pascal_chr_builtin
    004073  aa  143 141 154 137
    004074  aa  143 150 162 137
    004075  aa  142 165 151 154
    004076  aa  164 151 156 000
    004077  aa  022 160 141 163         pascal_ord_builtin
    004100  aa  143 141 154 137
    004101  aa  157 162 144 137
    004102  aa  142 165 151 154
    004103  aa  164 151 156 000
    004104  aa  022 160 141 163         pascal_nil_builtin
    004105  aa  143 141 154 137
    004106  aa  156 151 154 137
    004107  aa  142 165 151 154
    004110  aa  164 151 156 000
    004111  aa  024 160 141 163         pascal_false_builtin
    004112  aa  143 141 154 137
    004113  aa  146 141 154 163
    004114  aa  145 137 142 165
    004115  aa  151 154 164 151
    004116  aa  156 000 000 000
    004117  aa  023 160 141 163         pascal_true_builtin
    004120  aa  143 141 154 137
    004121  aa  164 162 165 145
    004122  aa  137 142 165 151
    004123  aa  154 164 151 156
    004124  aa  016 165 156 163         unspec_builtin
    004125  aa  160 145 143 137
    004126  aa  142 165 151 154
    004127  aa  164 151 156 000
    004130  aa  016 163 165 142         substr_builtin
    004131  aa  163 164 162 137
    004132  aa  142 165 151 154
    004133  aa  164 151 156 000
    004134  aa  015 163 145 147         segno_builtin
    004135  aa  156 157 137 142
    004136  aa  165 151 154 164
    004137  aa  151 156 000 000
    004140  aa  013 162 145 154         rel_builtin
    004141  aa  137 142 165 151
    004142  aa  154 164 151 156
    004143  aa  013 160 164 162         ptr_builtin
    004144  aa  137 142 165 151
    004145  aa  154 164 151 156
    004146  aa  015 157 143 164         octal_builtin
    004147  aa  141 154 137 142
    004150  aa  165 151 154 164
    004151  aa  151 156 000 000
    004152  aa  014 156 165 154         null_builtin
    004153  aa  154 137 142 165
    004154  aa  151 154 164 151
    004155  aa  156 000 000 000
    004156  aa  021 155 141 170         maxlength_builtin
    004157  aa  154 145 156 147
    004160  aa  164 150 137 142
    004161  aa  165 151 154 164
    004162  aa  151 156 000 000
    004163  aa  016 154 145 156         length_builtin
    004164  aa  147 164 150 137
    004165  aa  142 165 151 154
    004166  aa  164 151 156 000
    004167  aa  017 142 141 163         baseptr_builtin
    004170  aa  145 160 164 162
    004171  aa  137 142 165 151
    004172  aa  154 164 151 156
    004173  aa  016 141 144 144         addrel_builtin
    004174  aa  162 145 154 137
    004175  aa  142 165 151 154
    004176  aa  164 151 156 000
    004177  aa  014 141 144 144         addr_builtin
    004200  aa  162 137 142 165
    004201  aa  151 154 164 151
    004202  aa  156 000 000 000
    004203  aa  017 160 162 157         probe_builtins_
    004204  aa  142 145 137 142
    004205  aa  165 151 154 164
    004206  aa  151 156 163 137
    004207  aa  015 167 150 151         while_request
    004210  aa  154 145 137 162
    004211  aa  145 161 165 145
    004212  aa  163 164 000 000
    004213  aa  015 167 150 145         where_request
    004214  aa  162 145 137 162
    004215  aa  145 161 165 145
    004216  aa  163 164 000 000
    004217  aa  015 166 141 154         value_request
    004220  aa  165 145 137 162
    004221  aa  145 161 165 145
    004222  aa  163 164 000 000
    004223  aa  013 165 163 145         use_request
    004224  aa  137 162 145 161
    004225  aa  165 145 163 164
    004226  aa  016 163 171 155         symbol_request
    004227  aa  142 157 154 137
    004230  aa  162 145 161 165
    004231  aa  145 163 164 000
    004232  aa  014 163 164 145         step_request
    004233  aa  160 137 162 145
    004234  aa  161 165 145 163
    004235  aa  164 000 000 000
    004236  aa  016 163 164 141         status_request
    004237  aa  164 165 163 137
    004240  aa  162 145 161 165
    004241  aa  145 163 164 000
    004242  aa  015 163 164 141         stack_request
    004243  aa  143 153 137 162
    004244  aa  145 161 165 145
    004245  aa  163 164 000 000
    004246  aa  022 160 162 157         probe_print_stack_
    004247  aa  142 145 137 160
    004250  aa  162 151 156 164
    004251  aa  137 163 164 141
    004252  aa  143 153 137 000
    004253  aa  016 163 157 165         source_request
    004254  aa  162 143 145 137
    004255  aa  162 145 161 165
    004256  aa  145 163 164 000
    004257  aa  015 162 145 163         reset_request
    004260  aa  145 164 137 162
    004261  aa  145 161 165 145
    004262  aa  163 164 000 000
    004263  aa  014 161 165 151         quit_request
    004264  aa  164 137 162 145
    004265  aa  161 165 145 163
    004266  aa  164 000 000 000
    004267  aa  020 160 157 163         position_request
    004270  aa  151 164 151 157
    004271  aa  156 137 162 145
    004272  aa  161 165 145 163
    004273  aa  164 000 000 000
    004274  aa  015 160 141 165         pause_request
    004275  aa  163 145 137 162
    004276  aa  145 161 165 145
    004277  aa  163 164 000 000
    004300  aa  025 157 165 164         output_switch_request
    004301  aa  160 165 164 137
    004302  aa  163 167 151 164
    004303  aa  143 150 137 162
    004304  aa  145 161 165 145
    004305  aa  163 164 000 000
    004306  aa  032 157 165 164         output_description_request
    004307  aa  160 165 164 137
    004310  aa  144 145 163 143
    004311  aa  162 151 160 164
    004312  aa  151 157 156 137
    004313  aa  162 145 161 165
    004314  aa  145 163 164 000
    004315  aa  016 157 142 152         object_request
    004316  aa  145 143 164 137
    004317  aa  162 145 161 165
    004320  aa  145 163 164 000
    004321  aa  014 155 157 144         mode_request
    004322  aa  145 137 162 145
    004323  aa  161 165 145 163
    004324  aa  164 000 000 000
    004325  aa  020 160 162 157         probe_modes_mgr_
    004326  aa  142 145 137 155
    004327  aa  157 144 145 163
    004330  aa  137 155 147 162
    004331  aa  137 000 000 000
    004332  aa  026 154 151 163         list_variables_request
    004333  aa  164 137 166 141
    004334  aa  162 151 141 142
    004335  aa  154 145 163 137
    004336  aa  162 145 161 165
    004337  aa  145 163 164 000
    004340  aa  025 160 162 151         print_request_summary
    004341  aa  156 164 137 162
    004342  aa  145 161 165 145
    004343  aa  163 164 137 163
    004344  aa  165 155 155 141
    004345  aa  162 171 000 000
    004346  aa  025 160 162 151         print_builtin_summary
    004347  aa  156 164 137 142
    004350  aa  165 151 154 164
    004351  aa  151 156 137 163
    004352  aa  165 155 155 141
    004353  aa  162 171 000 000
    004354  aa  021 154 151 163         list_help_request
    004355  aa  164 137 150 145
    004356  aa  154 160 137 162
    004357  aa  145 161 165 145
    004360  aa  163 164 000 000
    004361  aa  013 154 145 164         let_request
    004362  aa  137 162 145 161
    004363  aa  165 145 163 164
    004364  aa  027 160 162 157         probe_language_request_
    004365  aa  142 145 137 154
    004366  aa  141 156 147 165
    004367  aa  141 147 145 137
    004370  aa  162 145 161 165
    004371  aa  145 163 164 137
    004372  aa  024 151 156 160         input_switch_request
    004373  aa  165 164 137 163
    004374  aa  167 151 164 143
    004375  aa  150 137 162 145
    004376  aa  161 165 145 163
    004377  aa  164 000 000 000
    004400  aa  031 151 156 160         input_description_request
    004401  aa  165 164 137 144
    004402  aa  145 163 143 162
    004403  aa  151 160 164 151
    004404  aa  157 156 137 162
    004405  aa  145 161 165 145
    004406  aa  163 164 000 000
    004407  aa  012 151 146 137         if_request
    004410  aa  162 145 161 165
    004411  aa  145 163 164 000
    004412  aa  020 150 141 156         handlers_request
    004413  aa  144 154 145 162
    004414  aa  163 137 162 145
    004415  aa  161 165 145 163
    004416  aa  164 000 000 000
    004417  aa  014 150 145 154         help_request
    004420  aa  160 137 162 145
    004421  aa  161 165 145 163
    004422  aa  164 000 000 000
    004423  aa  024 160 162 157         probe_info_requests_
    004424  aa  142 145 137 151
    004425  aa  156 146 157 137
    004426  aa  162 145 161 165
    004427  aa  145 163 164 163
    004430  aa  137 000 000 000
    004431  aa  014 150 141 154         halt_request
    004432  aa  164 137 162 145
    004433  aa  161 165 145 163
    004434  aa  164 000 000 000
    004435  aa  014 147 157 164         goto_request
    004436  aa  157 137 162 145
    004437  aa  161 165 145 163
    004440  aa  164 000 000 000
    004441  aa  017 145 170 145         execute_request
    004442  aa  143 165 164 145
    004443  aa  137 162 145 161
    004444  aa  165 145 163 164
    004445  aa  016 145 156 141         enable_request
    004446  aa  142 154 145 137
    004447  aa  162 145 161 165
    004450  aa  145 163 164 000
    004451  aa  026 160 162 157         probe_display_request_
    004452  aa  142 145 137 144
    004453  aa  151 163 160 154
    004454  aa  141 171 137 162
    004455  aa  145 161 165 145
    004456  aa  163 164 137 000
    004457  aa  017 144 145 143         declare_request
    004460  aa  154 141 162 145
    004461  aa  137 162 145 161
    004462  aa  165 145 163 164
    004463  aa  024 160 162 157         probe_vars_requests_
    004464  aa  142 145 137 166
    004465  aa  141 162 163 137
    004466  aa  162 145 161 165
    004467  aa  145 163 164 163
    004470  aa  137 000 000 000
    004471  aa  023 143 157 156         continue_to_request
    004472  aa  164 151 156 165
    004473  aa  145 137 164 157
    004474  aa  137 162 145 161
    004475  aa  165 145 163 164
    004476  aa  020 143 157 156         continue_request
    004477  aa  164 151 156 165
    004500  aa  145 137 162 145
    004501  aa  161 165 145 163
    004502  aa  164 000 000 000
    004503  aa  023 160 162 157         probe_ctl_requests_
    004504  aa  142 145 137 143
    004505  aa  164 154 137 162
    004506  aa  145 161 165 145
    004507  aa  163 164 163 137
    004510  aa  014 143 141 154         call_request
    004511  aa  154 137 162 145
    004512  aa  161 165 145 163
    004513  aa  164 000 000 000
    004514  aa  024 160 162 157         probe_expr_requests_
    004515  aa  142 145 137 145
    004516  aa  170 160 162 137
    004517  aa  162 145 161 165
    004520  aa  145 163 164 163
    004521  aa  137 000 000 000
    004522  aa  016 142 145 146         before_request
    004523  aa  157 162 145 137
    004524  aa  162 145 161 165
    004525  aa  145 163 164 000
    004526  aa  014 141 162 147         args_request
    004527  aa  163 137 162 145
    004530  aa  161 165 145 163
    004531  aa  164 000 000 000
    004532  aa  015 141 146 164         after_request
    004533  aa  145 162 137 162
    004534  aa  145 161 165 145
    004535  aa  163 164 000 000
    004536  aa  017 160 162 157         probe_requests_
    004537  aa  142 145 137 162
    004540  aa  145 161 165 145
    004541  aa  163 164 163 137

NO TRAP POINTER WORDS

TYPE PAIR BLOCKS

    004542  aa   000004 000000
    004543  55   000201 000052
    004544  aa   000004 000000
    004545  55   000201 000056
    004546  aa   000004 000000
    004547  55   000201 000063
    004550  aa   000004 000000
    004551  55   000201 000070
    004552  aa   000004 000000
    004553  55   000201 000075
    004554  aa   000004 000000
    004555  55   000201 000102
    004556  aa   000004 000000
    004557  55   000201 000107
    004560  aa   000004 000000
    004561  55   000201 000115
    004562  aa   000004 000000
    004563  55   000201 000122
    004564  aa   000004 000000
    004565  55   000201 000126
    004566  aa   000004 000000
    004567  55   000201 000132
    004570  aa   000004 000000
    004571  55   000201 000136
    004572  aa   000004 000000
    004573  55   000201 000141
    004574  aa   000004 000000
    004575  55   000201 000144
    004576  aa   000004 000000
    004577  55   000201 000150
    004600  aa   000004 000000
    004601  55   000201 000154
    004602  aa   000004 000000
    004603  55   000201 000161
    004604  aa   000004 000000
    004605  55   000201 000165
    004606  aa   000004 000000
    004607  55   000201 000171
    004610  aa   000004 000000
    004611  55   000201 000175
    004612  aa   000004 000000
    004613  55   000512 000205
    004614  aa   000004 000000
    004615  55   000534 000211
    004616  aa   000004 000000
    004617  55   000512 000215
    004620  aa   000004 000000
    004621  55   000534 000221
    004622  aa   000004 000000
    004623  55   000512 000224
    004624  aa   000004 000000
    004625  55   000501 000230
    004626  aa   000004 000000
    004627  55   000534 000234
    004630  aa   000004 000000
    004631  55   000244 000240
    004632  aa   000004 000000
    004633  55   000534 000251
    004634  aa   000004 000000
    004635  55   000534 000255
    004636  aa   000004 000000
    004637  55   000501 000261
    004640  aa   000004 000000
    004641  55   000534 000265
    004642  aa   000004 000000
    004643  55   000501 000272
    004644  aa   000004 000000
    004645  55   000534 000276
    004646  aa   000004 000000
    004647  55   000534 000304
    004650  aa   000004 000000
    004651  55   000534 000313
    004652  aa   000004 000000
    004653  55   000323 000317
    004654  aa   000004 000000
    004655  55   000461 000330
    004656  aa   000004 000000
    004657  55   000421 000336
    004660  aa   000004 000000
    004661  55   000421 000344
    004662  aa   000004 000000
    004663  55   000421 000352
    004664  aa   000004 000000
    004665  55   000512 000357
    004666  aa   000004 000000
    004667  55   000362 000362
    004670  aa   000004 000000
    004671  55   000534 000370
    004672  aa   000004 000000
    004673  55   000534 000376
    004674  aa   000004 000000
    004675  55   000512 000405
    004676  aa   000004 000000
    004677  55   000534 000410
    004700  aa   000004 000000
    004701  55   000421 000415
    004702  aa   000004 000000
    004703  55   000501 000427
    004704  aa   000004 000000
    004705  55   000501 000433
    004706  aa   000004 000000
    004707  55   000534 000437
    004710  aa   000004 000000
    004711  55   000534 000443
    004712  aa   000004 000000
    004713  55   000447 000447
    004714  aa   000004 000000
    004715  55   000461 000455
    004716  aa   000004 000000
    004717  55   000501 000467
    004720  aa   000004 000000
    004721  55   000501 000474
    004722  aa   000004 000000
    004723  55   000512 000506
    004724  aa   000004 000000
    004725  55   000534 000520
    004726  aa   000004 000000
    004727  55   000534 000524
    004730  aa   000004 000000
    004731  55   000534 000530
    004732  aa   000001 000000
    004733  aa   000000 000000

INTERNAL EXPRESSION WORDS

    004734  5a   000540 000000
    004735  5a   000542 000000
    004736  5a   000544 000000
    004737  5a   000546 000000
    004740  5a   000550 000000
    004741  5a   000552 000000
    004742  5a   000554 000000
    004743  5a   000556 000000
    004744  5a   000560 000000
    004745  5a   000562 000000
    004746  5a   000564 000000
    004747  5a   000566 000000
    004750  5a   000570 000000
    004751  5a   000572 000000
    004752  5a   000574 000000
    004753  5a   000576 000000
    004754  5a   000600 000000
    004755  5a   000602 000000
    004756  5a   000604 000000
    004757  5a   000606 000000
    004760  5a   000610 000000
    004761  5a   000612 000000
    004762  5a   000614 000000
    004763  5a   000616 000000
    004764  5a   000620 000000
    004765  5a   000622 000000
    004766  5a   000624 000000
    004767  5a   000626 000000
    004770  5a   000630 000000
    004771  5a   000632 000000
    004772  5a   000634 000000
    004773  5a   000636 000000
    004774  5a   000640 000000
    004775  5a   000642 000000
    004776  5a   000644 000000
    004777  5a   000646 000000
    005000  5a   000650 000000
    005001  5a   000652 000000
    005002  5a   000654 000000
    005003  5a   000656 000000
    005004  5a   000660 000000
    005005  5a   000662 000000
    005006  5a   000664 000000
    005007  5a   000666 000000
    005010  5a   000670 000000
    005011  5a   000672 000000
    005012  5a   000674 000000
    005013  5a   000676 000000
    005014  5a   000700 000000
    005015  5a   000702 000000
    005016  5a   000704 000000
    005017  5a   000706 000000
    005020  5a   000710 000000
    005021  5a   000712 000000
    005022  5a   000714 000000
    005023  5a   000716 000000
    005024  5a   000720 000000
    005025  5a   000722 000000
    005026  5a   000724 000000
    005027  5a   000726 000000
LINKAGE INFORMATION

    000000  aa   000000 000000
    000001  0a   004002 000000
    000002  aa   000000 000000
    000003  aa   000000 000000
    000004  aa   000000 000000
    000005  aa   000000 000000
    000006  22   000010 000200
    000007  a2   000000 000000
    000010  9a   777770 0000 46         probe_requests_|after_request
    000011  5a   001025 0000 00
    000012  9a   777766 0000 46         probe_requests_|args_request
    000013  5a   001024 0000 00
    000014  9a   777764 0000 46         probe_requests_|before_request
    000015  5a   001023 0000 00
    000016  9a   777762 0000 46         probe_expr_requests_|call_request
    000017  5a   001022 0000 00
    000020  9a   777760 0000 46         probe_ctl_requests_|continue_request
    000021  5a   001021 0000 00
    000022  9a   777756 0000 46         probe_ctl_requests_|continue_to_request
    000023  5a   001020 0000 00
    000024  9a   777754 0000 46         probe_vars_requests_|declare_request
    000025  5a   001017 0000 00
    000026  9a   777752 0000 46         probe_display_request_|probe_display_request_
    000027  5a   001016 0000 00
    000030  9a   777750 0000 46         probe_requests_|enable_request
    000031  5a   001015 0000 00
    000032  9a   777746 0000 46         probe_requests_|execute_request
    000033  5a   001014 0000 00
    000034  9a   777744 0000 46         probe_ctl_requests_|goto_request
    000035  5a   001013 0000 00
    000036  9a   777742 0000 46         probe_ctl_requests_|halt_request
    000037  5a   001012 0000 00
    000040  9a   777740 0000 46         probe_info_requests_|help_request
    000041  5a   001011 0000 00
    000042  9a   777736 0000 46         probe_requests_|handlers_request
    000043  5a   001010 0000 00
    000044  9a   777734 0000 46         probe_expr_requests_|if_request
    000045  5a   001007 0000 00
    000046  9a   777732 0000 46         probe_requests_|input_description_request
    000047  5a   001006 0000 00
    000050  9a   777730 0000 46         probe_requests_|input_switch_request
    000051  5a   001005 0000 00
    000052  9a   777726 0000 46         probe_language_request_|probe_language_request_
    000053  5a   001004 0000 00
    000054  9a   777724 0000 46         probe_expr_requests_|let_request
    000055  5a   001003 0000 00
    000056  9a   777722 0000 46         probe_info_requests_|list_help_request
    000057  5a   001002 0000 00
    000060  9a   777720 0000 46         probe_info_requests_|print_builtin_summary
    000061  5a   001001 0000 00
    000062  9a   777716 0000 46         probe_info_requests_|print_request_summary
    000063  5a   001000 0000 00
    000064  9a   777714 0000 46         probe_vars_requests_|list_variables_request
    000065  5a   000777 0000 00
    000066  9a   777712 0000 46         probe_modes_mgr_|mode_request
    000067  5a   000776 0000 00
    000070  9a   777710 0000 46         probe_requests_|object_request
    000071  5a   000775 0000 00
    000072  9a   777706 0000 46         probe_requests_|output_description_request
    000073  5a   000774 0000 00
    000074  9a   777704 0000 46         probe_requests_|output_switch_request
    000075  5a   000773 0000 00
    000076  9a   777702 0000 46         probe_ctl_requests_|pause_request
    000077  5a   000772 0000 00
    000100  9a   777700 0000 46         probe_requests_|position_request
    000101  5a   000771 0000 00
    000102  9a   777676 0000 46         probe_ctl_requests_|quit_request
    000103  5a   000770 0000 00
    000104  9a   777674 0000 46         probe_requests_|reset_request
    000105  5a   000767 0000 00
    000106  9a   777672 0000 46         probe_requests_|source_request
    000107  5a   000766 0000 00
    000110  9a   777670 0000 46         probe_print_stack_|stack_request
    000111  5a   000765 0000 00
    000112  9a   777666 0000 46         probe_requests_|status_request
    000113  5a   000764 0000 00
    000114  9a   777664 0000 46         probe_ctl_requests_|step_request
    000115  5a   000763 0000 00
    000116  9a   777662 0000 46         probe_expr_requests_|symbol_request
    000117  5a   000762 0000 00
    000120  9a   777660 0000 46         probe_requests_|use_request
    000121  5a   000761 0000 00
    000122  9a   777656 0000 46         probe_expr_requests_|value_request
    000123  5a   000760 0000 00
    000124  9a   777654 0000 46         probe_requests_|where_request
    000125  5a   000757 0000 00
    000126  9a   777652 0000 46         probe_expr_requests_|while_request
    000127  5a   000756 0000 00
    000130  9a   777650 0000 46         probe_builtins_|addr_builtin
    000131  5a   000755 0000 00
    000132  9a   777646 0000 46         probe_builtins_|addrel_builtin
    000133  5a   000754 0000 00
    000134  9a   777644 0000 46         probe_builtins_|baseptr_builtin
    000135  5a   000753 0000 00
    000136  9a   777642 0000 46         probe_builtins_|length_builtin
    000137  5a   000752 0000 00
    000140  9a   777640 0000 46         probe_builtins_|maxlength_builtin
    000141  5a   000751 0000 00
    000142  9a   777636 0000 46         probe_builtins_|null_builtin
    000143  5a   000750 0000 00
    000144  9a   777634 0000 46         probe_builtins_|octal_builtin
    000145  5a   000747 0000 00
    000146  9a   777632 0000 46         probe_builtins_|ptr_builtin
    000147  5a   000746 0000 00
    000150  9a   777630 0000 46         probe_builtins_|rel_builtin
    000151  5a   000745 0000 00
    000152  9a   777626 0000 46         probe_builtins_|segno_builtin
    000153  5a   000744 0000 00
    000154  9a   777624 0000 46         probe_builtins_|substr_builtin
    000155  5a   000743 0000 00
    000156  9a   777622 0000 46         probe_builtins_|unspec_builtin
    000157  5a   000742 0000 00
    000160  9a   777620 0000 46         probe_builtins_|pascal_true_builtin
    000161  5a   000741 0000 00
    000162  9a   777616 0000 46         probe_builtins_|pascal_false_builtin
    000163  5a   000740 0000 00
    000164  9a   777614 0000 46         probe_builtins_|pascal_nil_builtin
    000165  5a   000737 0000 00
    000166  9a   777612 0000 46         probe_builtins_|pascal_ord_builtin
    000167  5a   000736 0000 00
    000170  9a   777610 0000 46         probe_builtins_|pascal_chr_builtin
    000171  5a   000735 0000 00
    000172  9a   777606 0000 46         probe_builtins_|pascal_eof_builtin
    000173  5a   000734 0000 00
    000174  9a   777604 0000 46         probe_builtins_|pascal_eoln_builtin
    000175  5a   000733 0000 00
    000176  9a   777602 0000 46         probe_builtins_|sizeof_builtin
    000177  5a   000732 0000 00
SYMBOL INFORMATION

SYMBOL TABLE HEADER

    000000  aa   000000 000001
    000001  aa   163171 155142
    000002  aa   164162 145145
    000003  aa   000000 000010
    000004  aa   000000 116575
    000005  aa   012137 773040
    000006  aa   000000 116606
    000007  aa   026572 623257
    000010  aa   141154 155040
    000011  aa   040040 040040
    000012  aa   000024 000040
    000013  aa   000034 000040
    000014  aa   000044 000100
    000015  aa   000002 000002
    000016  aa   000064 000000
    000017  aa   000000 000502
    000020  aa   000000 000130
    000021  aa   000405 000356
    000022  aa   000473 000130
    000023  aa   000064 000000
    000024  aa   101114 115040
    000025  aa   126145 162163
    000026  aa   151157 156040
    000027  aa   070056 061063
    000030  aa   040123 145160
    000031  aa   164145 155142
    000032  aa   145162 040061
    000033  aa   071070 070040
    000034  aa   110151 162156
    000035  aa   145151 163145
    000036  aa   156056 123171
    000037  aa   163115 141151
    000040  aa   156164 056141
    000041  aa   040040 040040
    000042  aa   040040 040040
    000043  aa   040040 040040
    000044  aa   055164 141162
    000045  aa   147145 164040
    000046  aa   154066 070040
    000047  aa   040040 040040
    000050  aa   040040 040040
    000051  aa   040040 040040
    000052  aa   040040 040040
    000053  aa   040040 040040
    000054  aa   040040 040040
    000055  aa   040040 040040
    000056  aa   040154 151163
    000057  aa   164040 163171
    000060  aa   155142 157154
    000061  aa   163040 040040
    000062  aa   040040 040040
    000063  aa   040040 040040
    000064  aa   000000 000001
    000065  aa   000000 000002
    000066  aa   000076 000071
    000067  aa   166057 365063
    000070  aa   000000 116606
    000071  aa   001347 600000
    000072  aa   000115 000052
    000073  aa   066107 030571
    000074  aa   000000 106611
    000075  aa   411432 200000
    000076  aa   076163 160145          >special_ldd>install>MR12.2-1184>probe_request_table_.alm
    000077  aa   143151 141154
    000100  aa   137154 144144
    000101  aa   076151 156163
    000102  aa   164141 154154
    000103  aa   076115 122061
    000104  aa   062056 062055
    000105  aa   061061 070064
    000106  aa   076160 162157
    000107  aa   142145 137162
    000110  aa   145161 165145
    000111  aa   163164 137164
    000112  aa   141142 154145
    000113  aa   137056 141154
    000114  aa   155040 040040
    000115  aa   076154 144144          >ldd>include>probe_request_macros.incl.alm
    000116  aa   076151 156143
    000117  aa   154165 144145
    000120  aa   076160 162157
    000121  aa   142145 137162
    000122  aa   145161 165145
    000123  aa   163164 137155
    000124  aa   141143 162157
    000125  aa   163056 151156
    000126  aa   143154 056141
    000127  aa   154155 040040
               MULTICS ASSEMBLY CROSS REFERENCE LISTING

   Value        Symbol                   Source file   Line number

         404    .._00000.call            probe_request_table_:      44.
        2670    .._00000.info            probe_request_table_:      44.
         673    .._00000.names           probe_request_table_:      44.
         407    .._00001.call            probe_request_table_:      47.
        2704    .._00001.info            probe_request_table_:      47.
         714    .._00001.names           probe_request_table_:      47.
         412    .._00002.call            probe_request_table_:      50.
        2715    .._00002.info            probe_request_table_:      50.
         735    .._00002.names           probe_request_table_:      50.
         415    .._00003.call            probe_request_table_:      53.
        2731    .._00003.info            probe_request_table_:      53.
         756    .._00003.names           probe_request_table_:      53.
         420    .._00004.call            probe_request_table_:      56.
        2736    .._00004.info            probe_request_table_:      56.
         777    .._00004.names           probe_request_table_:      56.
         423    .._00005.call            probe_request_table_:      59.
        2745    .._00005.info            probe_request_table_:      59.
        1020    .._00005.names           probe_request_table_:      59.
         426    .._00006.call            probe_request_table_:      62.
        2767    .._00006.info            probe_request_table_:      62.
        1041    .._00006.names           probe_request_table_:      62.
         431    .._00007.call            probe_request_table_:      65.
        2775    .._00007.info            probe_request_table_:      65.
        1062    .._00007.names           probe_request_table_:      65.
         434    .._00010.call            probe_request_table_:      68.
        3006    .._00010.info            probe_request_table_:      68.
        1103    .._00010.names           probe_request_table_:      68.
         437    .._00011.call            probe_request_table_:      71.
        3024    .._00011.info            probe_request_table_:      71.
        1114    .._00011.names           probe_request_table_:      71.
         442    .._00012.call            probe_request_table_:      74.
        3044    .._00012.info            probe_request_table_:      74.
        1135    .._00012.names           probe_request_table_:      74.
         445    .._00013.call            probe_request_table_:      77.
        3057    .._00013.info            probe_request_table_:      77.
        1156    .._00013.names           probe_request_table_:      77.
         450    .._00014.call            probe_request_table_:      80.
        3064    .._00014.info            probe_request_table_:      80.
        1167    .._00014.names           probe_request_table_:      80.
         453    .._00015.call            probe_request_table_:      83.
        3072    .._00015.info            probe_request_table_:      83.
        1210    .._00015.names           probe_request_table_:      83.
         456    .._00016.call            probe_request_table_:      86.
        3103    .._00016.info            probe_request_table_:      86.
        1221    .._00016.names           probe_request_table_:      86.
         461    .._00017.call            probe_request_table_:      89.
        3117    .._00017.info            probe_request_table_:      89.
        1232    .._00017.names           probe_request_table_:      89.
         464    .._00020.call            probe_request_table_:      92.
        3134    .._00020.info            probe_request_table_:      92.
        1243    .._00020.names           probe_request_table_:      92.
         467    .._00021.call            probe_request_table_:      95.
        3151    .._00021.info            probe_request_table_:      95.
        1264    .._00021.names           probe_request_table_:      95.
         472    .._00022.call            probe_request_table_:      98.
        3163    .._00022.info            probe_request_table_:      98.
        1305    .._00022.names           probe_request_table_:      98.
         475    .._00023.call            probe_request_table_:     101.
        3174    .._00023.info            probe_request_table_:     101.
        1326    .._00023.names           probe_request_table_:     101.
         500    .._00024.call            probe_request_table_:     104.
        3204    .._00024.info            probe_request_table_:     104.
        1347    .._00024.names           probe_request_table_:     104.
         503    .._00025.call            probe_request_table_:     107.
        3217    .._00025.info            probe_request_table_:     107.
        1370    .._00025.names           probe_request_table_:     107.
         506    .._00026.call            probe_request_table_:     110.
        3233    .._00026.info            probe_request_table_:     110.
        1411    .._00026.names           probe_request_table_:     110.
         511    .._00027.call            probe_request_table_:     113.
        3247    .._00027.info            probe_request_table_:     113.
        1432    .._00027.names           probe_request_table_:     113.
         514    .._00030.call            probe_request_table_:     116.
        3264    .._00030.info            probe_request_table_:     116.
        1453    .._00030.names           probe_request_table_:     116.
         517    .._00031.call            probe_request_table_:     119.
        3273    .._00031.info            probe_request_table_:     119.
        1474    .._00031.names           probe_request_table_:     119.
         522    .._00032.call            probe_request_table_:     122.
        3307    .._00032.info            probe_request_table_:     122.
        1515    .._00032.names           probe_request_table_:     122.
         525    .._00033.call            probe_request_table_:     125.
        3325    .._00033.info            probe_request_table_:     125.
        1536    .._00033.names           probe_request_table_:     125.
         530    .._00034.call            probe_request_table_:     128.
        3340    .._00034.info            probe_request_table_:     128.
        1557    .._00034.names           probe_request_table_:     128.
         533    .._00035.call            probe_request_table_:     131.
        3352    .._00035.info            probe_request_table_:     131.
        1600    .._00035.names           probe_request_table_:     131.
         536    .._00036.call            probe_request_table_:     134.
        3372    .._00036.info            probe_request_table_:     134.
        1621    .._00036.names           probe_request_table_:     134.
         541    .._00037.call            probe_request_table_:     137.
        3406    .._00037.info            probe_request_table_:     137.
        1642    .._00037.names           probe_request_table_:     137.
         544    .._00040.call            probe_request_table_:     140.
        3413    .._00040.info            probe_request_table_:     140.
        1663    .._00040.names           probe_request_table_:     140.
         547    .._00041.call            probe_request_table_:     143.
        3422    .._00041.info            probe_request_table_:     143.
        1704    .._00041.names           probe_request_table_:     143.
         552    .._00042.call            probe_request_table_:     146.
        3427    .._00042.info            probe_request_table_:     146.
        1725    .._00042.names           probe_request_table_:     146.
         555    .._00043.call            probe_request_table_:     149.
        3440    .._00043.info            probe_request_table_:     149.
        1746    .._00043.names           probe_request_table_:     149.
         560    .._00044.call            probe_request_table_:     152.
        3450    .._00044.info            probe_request_table_:     152.
        1767    .._00044.names           probe_request_table_:     152.
         563    .._00045.call            probe_request_table_:     155.
        3464    .._00045.info            probe_request_table_:     155.
        2010    .._00045.names           probe_request_table_:     155.
         566    .._00046.call            probe_request_table_:     158.
        3477    .._00046.info            probe_request_table_:     158.
        2021    .._00046.names           probe_request_table_:     158.
         571    .._00047.call            probe_request_table_:     161.
        3512    .._00047.info            probe_request_table_:     161.
        2042    .._00047.names           probe_request_table_:     161.
         574    .._00050.call            probe_request_table_:     164.
        3527    .._00050.info            probe_request_table_:     164.
        2063    .._00050.names           probe_request_table_:     164.
         577    .._00051.call            probe_request_table_:     174.
        3543    .._00051.info            probe_request_table_:     174.
        2104    .._00051.names           probe_request_table_:     174.
         602    .._00052.call            probe_request_table_:     177.
        3552    .._00052.info            probe_request_table_:     177.
        2145    .._00052.names           probe_request_table_:     177.
         605    .._00053.call            probe_request_table_:     180.
        3562    .._00053.info            probe_request_table_:     180.
        2166    .._00053.names           probe_request_table_:     180.
         610    .._00054.call            probe_request_table_:     186.
        3570    .._00054.info            probe_request_table_:     186.
        2207    .._00054.names           probe_request_table_:     186.
         613    .._00055.call            probe_request_table_:     189.
        3600    .._00055.info            probe_request_table_:     189.
        2230    .._00055.names           probe_request_table_:     189.
         616    .._00056.call            probe_request_table_:     192.
        3611    .._00056.info            probe_request_table_:     192.
        2251    .._00056.names           probe_request_table_:     192.
         621    .._00057.call            probe_request_table_:     195.
        3620    .._00057.info            probe_request_table_:     195.
        2272    .._00057.names           probe_request_table_:     195.
         624    .._00060.call            probe_request_table_:     198.
        3635    .._00060.info            probe_request_table_:     198.
        2313    .._00060.names           probe_request_table_:     198.
         627    .._00061.call            probe_request_table_:     201.
        3647    .._00061.info            probe_request_table_:     201.
        2354    .._00061.names           probe_request_table_:     201.
         632    .._00062.call            probe_request_table_:     204.
        3654    .._00062.info            probe_request_table_:     204.
        2375    .._00062.names           probe_request_table_:     204.
         635    .._00063.call            probe_request_table_:     210.
        3661    .._00063.info            probe_request_table_:     210.
        2416    .._00063.names           probe_request_table_:     210.
         640    .._00064.call            probe_request_table_:     213.
        3671    .._00064.info            probe_request_table_:     213.
        2437    .._00064.names           probe_request_table_:     213.
         643    .._00065.call            probe_request_table_:     216.
        3677    .._00065.info            probe_request_table_:     216.
        2460    .._00065.names           probe_request_table_:     216.
         646    .._00066.call            probe_request_table_:     219.
        3710    .._00066.info            probe_request_table_:     219.
        2501    .._00066.names           probe_request_table_:     219.
         651    .._00067.call            probe_request_table_:     222.
        3721    .._00067.info            probe_request_table_:     222.
        2522    .._00067.names           probe_request_table_:     222.
         654    .._00070.call            probe_request_table_:     225.
        3731    .._00070.info            probe_request_table_:     225.
        2543    .._00070.names           probe_request_table_:     225.
         657    .._00071.call            probe_request_table_:     228.
        3741    .._00071.info            probe_request_table_:     228.
        2564    .._00071.names           probe_request_table_:     228.
         662    .._00072.call            probe_request_table_:     231.
        3751    .._00072.info            probe_request_table_:     231.
        2605    .._00072.names           probe_request_table_:     231.
         665    .._00073.call            probe_request_table_:     234.
        3761    .._00073.info            probe_request_table_:     234.
        2626    .._00073.names           probe_request_table_:     234.
         670    .._00074.call            probe_request_table_:     237.
        3772    .._00074.info            probe_request_table_:     237.
        2647    .._00074.names           probe_request_table_:     237.
       20000    .flags                   probe_request_table_:      44,   47,   50,   53,   56,   59,   62,   65,   68,   71,
                                                                    74,   77,   80,   83,   86,   89,   92,   95,   98,  101,
                                                                   104,  107,  110,  113,  116,  119,  122,  125,  128,  131,
                                                                   134,  137,  140,  143,  146,  149,  152,  155,  158,  161,
                                                                   164,  174,  177,  180,  186,  189,  192,  195,  198,  201,
                                                                   204,  210,  213,  216,  219,  222,  225,  228,  231,  234,  237.
         371    .rc                      probe_request_table_:      35,   44,   47,   50,   53,   56,   59,   62,   65,   68,
                                                                    71,   74,   77,   80,   83,   86,   89,   92,   95,   98,
                                                                   101,  104,  107,  110,  113,  116,  119,  122,  125,  128,
                                                                   131,  134,  137,  140,  143,  146,  149,  152,  155,  158,
                                                                   161,  164,  174,  177,  180,  186,  189,  192,  195,  198,
                                                                   201,  204,  210,  213,  216,  219,  222,  225,  228,  231,
                                                                   234,  237,  239.
                addrel_builtin           probe_request_table_:     177.
                addr_builtin             probe_request_table_:     174.
                after_request            probe_request_table_:      44.
                args_request             probe_request_table_:      47.
                baseptr_builtin          probe_request_table_:     180.
                before_request           probe_request_table_:      50.
         404    calls                    probe_request_table_:      44,   47,   50,   53,   56,   59,   62,   65,   68,   71,
                                                                    74,   77,   80,   83,   86,   89,   92,   95,   98,  101,
                                                                   104,  107,  110,  113,  116,  119,  122,  125,  128,  131,
                                                                   134,  137,  140,  143,  146,  149,  152,  155,  158,  161,
                                                                   164,  174,  177,  180,  186,  189,  192,  195,  198,  201,
                                                                   204,  210,  213,  216,  219,  222,  225,  228,  231,  234,
                                                                   237,
                                         probe_request_macros:     128,  131.
                call_request             probe_request_table_:      53.
                continue_request         probe_request_table_:      56.
                continue_to_request      probe_request_table_:      59.
                declare_request          probe_request_table_:      62.
                enable_request           probe_request_table_:      68.
                execute_request          probe_request_table_:      71.
       20000    flags.is_builtin         probe_request_table_:     174,  177,  180,  186,  189,  192,  195,  198,  201,  204,
                                                                   210,  213,  216,  219,  222,  225,  228,  231,  234,  237,
                                         probe_request_macros:      10.
       40000    flags.is_request         probe_request_table_:      44,   47,   50,   53,   56,   59,   62,   65,   68,   71,
                                                                    74,   77,   80,   83,   86,   89,   92,   95,   98,  101,
                                                                   104,  107,  110,  113,  116,  119,  122,  125,  128,  131,
                                                                   134,  137,  140,  143,  146,  149,  152,  155,  158,  161,
                                                                   164,
                                         probe_request_macros:       9.
      200000    flags.secret             probe_request_macros:      13.
      400000    flags.unimplemented      probe_request_macros:      12.
                goto_request             probe_request_table_:      74,   77.
                halt_request             probe_request_table_:      80.
                handlers_request         probe_request_table_:      86.
                help_request             probe_request_table_:      83.
                if_request               probe_request_table_:      89.
        2670    info                     probe_request_table_:      44,   47,   50,   53,   56,   59,   62,   65,   68,   71,
                                                                    74,   77,   80,   83,   86,   89,   92,   95,   98,  101,
                                                                   104,  107,  110,  113,  116,  119,  122,  125,  128,  131,
                                                                   134,  137,  140,  143,  146,  149,  152,  155,  158,  161,
                                                                   164,  174,  177,  180,  186,  189,  192,  195,  198,  201,
                                                                   204,  210,  213,  216,  219,  222,  225,  228,  231,  234,
                                                                   237,
                                         probe_request_macros:     130,  131.
                input_description_request      probe_request_table_:      92.
                input_switch_request     probe_request_table_:      95.
                length_builtin           probe_request_table_:     186.
                let_request              probe_request_table_:     101.
                list_help_request        probe_request_table_:     104.
                list_variables_request   probe_request_table_:     113.
                maxlength_builtin        probe_request_table_:     189.
                mode_request             probe_request_table_:     116.
         673    names                    probe_request_table_:      44,   47,   50,   53,   56,   59,   62,   65,   68,   71,
                                                                    74,   77,   80,   83,   86,   89,   92,   95,   98,  101,
                                                                   104,  107,  110,  113,  116,  119,  122,  125,  128,  131,
                                                                   134,  137,  140,  143,  146,  149,  152,  155,  158,  161,
                                                                   164,  174,  177,  180,  186,  189,  192,  195,  198,  201,
                                                                   204,  210,  213,  216,  219,  222,  225,  228,  231,  234,
                                                                   237,
                                         probe_request_macros:     129,  131.
                null_builtin             probe_request_table_:     192.
                object_request           probe_request_table_:     119.
                octal_builtin            probe_request_table_:     195.
                output_description_request     probe_request_table_:     122.
                output_switch_request    probe_request_table_:     125.
                pascal_chr_builtin       probe_request_table_:     228.
                pascal_eof_builtin       probe_request_table_:     231.
                pascal_eoln_builtin      probe_request_table_:     234.
                pascal_false_builtin     probe_request_table_:     219.
                pascal_nil_builtin       probe_request_table_:     222.
                pascal_ord_builtin       probe_request_table_:     225.
                pascal_true_builtin      probe_request_table_:     216.
                pause_request            probe_request_table_:     128.
                position_request         probe_request_table_:     131.
                print_builtin_summary    probe_request_table_:     107.
                print_request_summary    probe_request_table_:     110.
                probe_builtins_          probe_request_table_:     174,  177,  180,  186,  189,  192,  195,  198,  201,  204,
                                                                   210,  213,  216,  219,  222,  225,  228,  231,  234,  237.
                probe_ctl_requests_      probe_request_table_:      56,   59,   74,   77,   80,  128,  134,  149.
                probe_display_request_   probe_request_table_:      65.
                probe_expr_requests_     probe_request_table_:      53,   89,  101,  152,  158,  164.
                probe_info_requests_     probe_request_table_:      83,  104,  107,  110.
                probe_language_request_  probe_request_table_:      98.
                probe_modes_mgr_         probe_request_table_:     116.
                probe_print_stack_       probe_request_table_:     143.
                probe_requests_          probe_request_table_:      44,   47,   50,   68,   71,   86,   92,   95,  119,  122,
                                                                   125,  131,  137,  140,  146,  155,  161.
           0    probe_request_table_     probe_request_table_:      35.
          75    probe_request_table_.rc  probe_request_table_:      35,  239.
                probe_vars_requests_     probe_request_table_:      62,  113.
                ptr_builtin              probe_request_table_:     198.
                quit_request             probe_request_table_:     134.
                rel_builtin              probe_request_table_:     201.
           1    request_table_version    probe_request_table_:      35,
                                         probe_request_macros:       7.
                reset_request            probe_request_table_:     137.
                segno_builtin            probe_request_table_:     204.
                sizeof_builtin           probe_request_table_:     237.
                source_request           probe_request_table_:     140.
          26    stack_header.lot_ptr     probe_request_table_:      44,   47,   50,   53,   56,   59,   62,   65,   68,   71,
                                                                    74,   77,   80,   83,   86,   89,   92,   95,   98,  101,
                                                                   104,  107,  110,  113,  116,  119,  122,  125,  128,  131,
                                                                   134,  137,  140,  143,  146,  149,  152,  155,  158,  161,
                                                                   164,  174,  177,  180,  186,  189,  192,  195,  198,  201,
                                                                   204,  210,  213,  216,  219,  222,  225,  228,  231,  234,
                                                                   237,
                                         probe_request_macros:     133.
                stack_request            probe_request_table_:     143.
                status_request           probe_request_table_:     146.
                step_request             probe_request_table_:     149.
                substr_builtin           probe_request_table_:     210.
                symbol_request           probe_request_table_:     152.
           0    tables                   probe_request_table_:      35,   44,   47,   50,   53,   56,   59,   62,   65,   68,
                                                                    71,   74,   77,   80,   83,   86,   89,   92,   95,   98,
                                                                   101,  104,  107,  110,  113,  116,  119,  122,  125,  128,
                                                                   131,  134,  137,  140,  143,  146,  149,  152,  155,  158,
                                                                   161,  164,  174,  177,  180,  186,  189,  192,  195,  198,
                                                                   201,  204,  210,  213,  216,  219,  222,  225,  228,  231,
                                                                   234,  237,
                                         probe_request_macros:     127,  131.
                unspec_builtin           probe_request_table_:     213.
                use_request              probe_request_table_:     155.
                value_request            probe_request_table_:     158.
                where_request            probe_request_table_:     161.
                while_request            probe_request_table_:     164.


NO FATAL ERRORS


                                          -----------------------------------------------------------


Historical Background

This edition of the Multics software materials and documentation is provided and donated
to Massachusetts Institute of Technology by Group BULL including BULL HN Information Systems Inc.
as a contribution to computer science knowledge.
This donation is made also to give evidence of the common contributions of Massachusetts Institute of Technology,
Bell Laboratories, General Electric, Honeywell Information Systems Inc., Honeywell BULL Inc., Groupe BULL
and BULL HN Information Systems Inc. to the development of this operating system.
Multics development was initiated by Massachusetts Institute of Technology Project MAC (1963-1970),
renamed the MIT Laboratory for Computer Science and Artificial Intelligence in the mid 1970s, under the leadership
of Professor Fernando Jose Corbato. Users consider that Multics provided the best software architecture
for managing computer hardware properly and for executing programs. Many subsequent operating systems
incorporated Multics principles.
Multics was distributed in 1975 to 2000 by Group Bull in Europe , and in the U.S. by Bull HN Information Systems Inc.,
as successor in interest by change in name only to Honeywell Bull Inc. and Honeywell Information Systems Inc. .

                                          -----------------------------------------------------------

Permission to use, copy, modify, and distribute these programs and their documentation for any purpose and without
fee is hereby granted,provided that the below copyright notice and historical background appear in all copies
and that both the copyright notice and historical background and this permission notice appear in supporting
documentation, and that the names of MIT, HIS, BULL or BULL HN not be used in advertising or publicity pertaining
to distribution of the programs without specific prior written permission.
    Copyright 1972 by Massachusetts Institute of Technology and Honeywell Information Systems Inc.
    Copyright 2006 by BULL HN Information Systems Inc.
    Copyright 2006 by Bull SAS
    All Rights Reserved
