ASSEMBLY LISTING OF SEGMENT >spec>install>1170>prwrd_util_.alm
ASSEMBLED ON:	10/17/88  0941.0 mst Mon
OPTIONS USED:	-target l68                              list symbols
ASSEMBLED BY:	ALM Version 7.4 April 1987
ASSEMBLER CREATED:	11/02/87  1303.7 mst Mon

                                     1  " ***********************************************************
                                     2  " *                                                         *
                                     3  " * Copyright, (C) Honeywell Bull Inc., 1988                *
                                     4  " *                                                         *
                                     5  " * Copyright, (C) Honeywell Information Systems Inc., 1982 *
                                     6  " *                                                         *
                                     7  " * Copyright (c) 1972 by Massachusetts Institute of        *
                                     8  " * Technology and Honeywell Information Systems, Inc.      *
                                     9  " *                                                         *
                                    10  " ***********************************************************
    000000                          11  	name	prwrd_util_
                        000000      12  	entry	pc
                        000012      13  	entry	inst
                                    14
                                    15
                                    16  	include	eis_micro_ops
                        000020     1-1  	bool	insm,020
                        000040     1-2  	bool	enf,040
                        000060     1-3  	bool	ses,060
                        000100     1-4  	bool	mvzb,100
                        000120     1-5  	bool	mvza,120
                        000140     1-6  	bool	mfls,140
                        000160     1-7  	bool	mflc,160
                        000200     1-8  	bool	insb,200
                        000220     1-9  	bool	insa,220
                        000240    1-10  	bool	insn,240
                        000260    1-11  	bool	insp,260
                        000300    1-12  	bool	ign,300
                        000320    1-13  	bool	mvc,320
                        000340    1-14  	bool	mses,340
                        000360    1-15  	bool	mors,360
                        000400    1-16  	bool	lte,400
                        000420    1-17  	bool	cht,420
                                  1-18  "
                        000010    1-19  	bool	if0,10
                        000004    1-20  	bool	if1,4
                        000002    1-21  	bool	if2,2
                        000001    1-22  	bool	if3,1
                                    17
                                    18  
                                    19
    000000                          20  pc:
    000000  aa  0 00002 3521 20     21  	eppbp	ap|2,*		bp -> output line
    000001  aa  0 00004 3535 20     22  	eppbb	ap|4,*		bb -> loc counter
                                    23
    000002  aa  0 00100 1605 00     24  	mvt	(pr),(pr)		convert
    000003  aa   300000 020006      25  	desc6a	bb|0,6
    000004  9a   400010 000006      26  	desc9a	lp|temp,6
    000005  0a   000057 0000 00     27  	arg	table
                                    28
    000006  aa  0 00100 3005 00     29  	mvn	(pr),(pr)		copy to output line
    000007  9a   400010 670006      30  	desc4ns	lp|temp(6),6
    000010  aa   200001 030006      31  	desc9ns	bp|1,6
                                    32
    000011  aa  7 00044 7101 20     33  	short_return
                                    34
                                    35  
                                    36
    000012                          37  inst:
    000012  aa  0 00002 3521 20     38  	eppbp	ap|2,*		bp -> output line
    000013  aa  0 00004 3535 20     39  	eppbb	ap|4,*		bb -> instruction word
                                    40
    000014  aa  0 00006 2351 20     41  	lda	ap|6,*		get format
    000015  aa   000000 6210 00     42  	eax1	0		initialize index
    000016  aa   012300 5202 02     43  	rpt	nfmts,2,tze	search for correct one
    000017  0a   000034 1150 11     44  	cmpa	fmts,1		..
    000020  aa   777777 2360 11     45  	ldq	-1,1		get pointer and length
    000021  aa   000000 3514 02     46  	eppab	0,qu		ab -> micro-op string
    000022  aa   000000 6220 06     47  	eax2	0,ql		X2 contains length of micro-op
                                    48
    000023  aa  0 00100 1605 00     49  	mvt	(pr),(pr)		convert
    000024  aa   300000 020006      50  	desc6a	bb|0,6
    000025  9a   400010 000006      51  	desc9a	lp|temp,6
    000026  0a   000057 0000 00     52  	arg	table
                                    53
    000027  aa  1 00140 0245 00     54  	mvne	(pr),(pr,rl),(pr)
    000030  9a   400010 070014      55  	desc4ns	lp|temp,12
    000031  aa   100000 000012      56  	desc9a	ab|0,x2
    000032  aa   200004 000017      57  	desc9a	bp|4,15
                                    58
    000033  aa  7 00044 7101 20     59  	short_return
                                    60
                                    61
    000034  aa  066 064 062 040     62  fmts:	aci	"642 "
    000035  0a   000046 000006      63  	zero	f642,6
    000036  aa  040 066 040 040     64  	aci	" 6  "
    000037  0a   000050 000004      65  	zero	fb6,4
    000040  aa  061 065 064 062     66  	aci	"1542"
    000041  0a   000051 000007      67  	zero	f1542,7
    000042  aa  063 063 063 063     68  	aci	"3333"
    000043  0a   000053 000007      69  	zero	f3333,7
    000044  aa  066 066 040 040     70  	aci	"66  "
    000045  0a   000055 000005      71  	zero	f66,5
                                    72
                        000005      73  	equ	nfmts,(*-fmts)/2
                                    74
                                    75
    000046  aa   021326 021324      76  f642:	vfd	9/insm+1,9/mvc+6,9/insm+1,9/mvc+4,9/insm+1,9/mvc+2
    000047  aa   021322 000000
    000050  aa   306030 326021      77  fb6:	vfd	9/ign+6,9/insm+8,9/mvc+6,9/insm+1
    000051  aa   321021 325021      78  f1542:	vfd	9/mvc+1,9/insm+1,9/mvc+5,9/insm+1,9/mvc+4,9/insm+1,9/mvc+2
    000052  aa   324021 322000
    000053  aa   323021 323021      79  f3333:	vfd	9/mvc+3,9/insm+1,9/mvc+3,9/insm+1,9/mvc+3,9/insm+1,9/mvc+3
    000054  aa   323021 323000
    000055  aa   021326 021326      80  f66:	vfd	9/insm+1,9/mvc+6,9/insm+1,9/mvc+6,9/insm+2
    000056  aa   022000 000000
                                    81
                                    82  
                                    83
    000057  aa  000 001 002 003     84  table:	ac4	"0001020304050607"
    000060  aa  004 005 006 007
    000061  aa  020 021 022 023     85  	ac4	"1011121314151617"
    000062  aa  024 025 026 027
    000063  aa  040 041 042 043     86  	ac4	"2021222324252627"
    000064  aa  044 045 046 047
    000065  aa  060 061 062 063     87  	ac4	"3031323334353637"
    000066  aa  064 065 066 067
    000067  aa  100 101 102 103     88  	ac4	"4041424344454647"
    000070  aa  104 105 106 107
    000071  aa  120 121 122 123     89  	ac4	"5051525354555657"
    000072  aa  124 125 126 127
    000073  aa  140 141 142 143     90  	ac4	"6061626364656667"
    000074  aa  144 145 146 147
    000075  aa  160 161 162 163     91  	ac4	"7071727374757677"
    000076  aa  164 165 166 167
                                    92
                                    93
                                    94
                                    95  	use	is
                                    96  	join	/link/is
                                    97
    000010                          98  temp:	bss	,2
                                    99
                                   100
                                   101  	end
ENTRY SEQUENCES

    000077  5a   000016 0000 00
    000100  aa  7 00046 2721 20
    000101  0a   000000 7100 00
    000102  5a   000011 0000 00
    000103  aa  7 00046 2721 20
    000104  0a   000012 7100 00

NO LITERALS

NAME DEFINITIONS FOR ENTRY POINTS AND SEGDEFS

    000106  5a   000003 000000
    000107  5a   000031 600000
    000110  aa   000000 000000
    000111  55   000011 000002
    000112  5a   000002 400003
    000113  55   000006 000011
    000114  aa  013 160 162 167
    000115  aa  162 144 137 165
    000116  aa  164 151 154 137
    000117  55   000016 000003
    000120  0a   000103 500000
    000121  55   000014 000003
    000122  aa  004 151 156 163         inst
    000123  aa  164 000 000 000
    000124  55   000022 000011
    000125  0a   000100 500000
    000126  55   000021 000003
    000127  aa  002 160 143 000         pc
    000130  55   000002 000016
    000131  6a   000000 400002
    000132  55   000025 000003
    000133  aa  014 163 171 155         symbol_table
    000134  aa  142 157 154 137
    000135  aa  164 141 142 154
    000136  aa  145 000 000 000

DEFINITIONS HASH TABLE

    000137  aa   000000 000015
    000140  aa   000000 000000
    000141  aa   000000 000000
    000142  aa   000000 000000
    000143  aa   000000 000000
    000144  aa   000000 000000
    000145  aa   000000 000000
    000146  5a   000022 000000
    000147  5a   000011 000000
    000150  aa   000000 000000
    000151  5a   000016 000000
    000152  aa   000000 000000
    000153  aa   000000 000000
    000154  aa   000000 000000

NO EXTERNAL NAMES

NO TRAP POINTER WORDS

TYPE PAIR BLOCKS

    000155  aa   000001 000000
    000156  aa   000000 000000

INTERNAL EXPRESSION WORDS

    000157  aa   000000 000000
LINKAGE INFORMATION

    000000  aa   000000 000000
    000001  0a   000106 000000
    000002  aa   000000 000000
    000003  aa   000000 000000
    000004  aa   000000 000000
    000005  aa   000000 000000
    000006  22   000012 000012
    000007  a2   000000 000002
SYMBOL INFORMATION

SYMBOL TABLE HEADER

    000000  aa   000000 000001
    000001  aa   163171 155142
    000002  aa   164162 145145
    000003  aa   000000 000007
    000004  aa   000000 115705
    000005  aa   073761 335527
    000006  aa   000000 116574
    000007  aa   772723 146420
    000010  aa   141154 155040
    000011  aa   040040 040040
    000012  aa   000024 000040
    000013  aa   000034 000040
    000014  aa   000044 000100
    000015  aa   000002 000002
    000016  aa   000064 000000
    000017  aa   000000 000152
    000020  aa   000000 000120
    000021  aa   000133 000130
    000022  aa   000143 000120
    000023  aa   000064 000000
    000024  aa   101114 115040
    000025  aa   126145 162163
    000026  aa   151157 156040
    000027  aa   067056 064040
    000030  aa   101160 162151
    000031  aa   154040 061071
    000032  aa   070067 040040
    000033  aa   040040 040040
    000034  aa   110151 162156
    000035  aa   145151 163145
    000036  aa   156056 123171
    000037  aa   163115 141151
    000040  aa   156164 056141
    000041  aa   040040 040040
    000042  aa   040040 040040
    000043  aa   040040 040040
    000044  aa   055164 141162
    000045  aa   147145 164040
    000046  aa   154066 070040
    000047  aa   040040 040040
    000050  aa   040040 040040
    000051  aa   040040 040040
    000052  aa   040040 040040
    000053  aa   040040 040040
    000054  aa   040040 040040
    000055  aa   040040 040040
    000056  aa   040154 151163
    000057  aa   164040 163171
    000060  aa   155142 157154
    000061  aa   163040 040040
    000062  aa   040040 040040
    000063  aa   040040 040040
    000064  aa   000000 000001
    000065  aa   000000 000002
    000066  aa   000076 000042
    000067  aa   165715 122733
    000070  aa   000000 116574
    000071  aa   771472 600000
    000072  aa   000107 000043
    000073  aa   043243 127523
    000074  aa   000000 101621
    000075  aa   351624 000000
    000076  aa   076163 160145          >spec>install>1170>prwrd_util_.alm
    000077  aa   143076 151156
    000100  aa   163164 141154
    000101  aa   154076 061061
    000102  aa   067060 076160
    000103  aa   162167 162144
    000104  aa   137165 164151
    000105  aa   154137 056141
    000106  aa   154155 040040
    000107  aa   076154 144144          >ldd>include>eis_micro_ops.incl.alm
    000110  aa   076151 156143
    000111  aa   154165 144145
    000112  aa   076145 151163
    000113  aa   137155 151143
    000114  aa   162157 137157
    000115  aa   160163 056151
    000116  aa   156143 154056
    000117  aa   141154 155040
               MULTICS ASSEMBLY CROSS REFERENCE LISTING

   Value        Symbol                   Source file   Line number

         420    cht                      eis_micro_ops:       17.
          40    enf                      eis_micro_ops:        2.
          51    f1542                    prwrd_util_:   67,   78.
          53    f3333                    prwrd_util_:   69,   79.
          46    f642                     prwrd_util_:   63,   76.
          55    f66                      prwrd_util_:   71,   80.
          50    fb6                      prwrd_util_:   65,   77.
          34    fmts                     prwrd_util_:   44,   62,   73.
          10    if0                      eis_micro_ops:       19.
           4    if1                      eis_micro_ops:       20.
           2    if2                      eis_micro_ops:       21.
           1    if3                      eis_micro_ops:       22.
         300    ign                      prwrd_util_:   77,
                                         eis_micro_ops:       12.
         220    insa                     eis_micro_ops:        9.
         200    insb                     eis_micro_ops:        8.
          20    insm                     prwrd_util_:   76,   77,   78,   79,   80,
                                         eis_micro_ops:        1.
         240    insn                     eis_micro_ops:       10.
         260    insp                     eis_micro_ops:       11.
          12    inst                     prwrd_util_:   13,   37.
          10    is                       prwrd_util_:   95,   96.
         400    lte                      eis_micro_ops:       16.
         160    mflc                     eis_micro_ops:        7.
         140    mfls                     eis_micro_ops:        6.
         360    mors                     eis_micro_ops:       15.
         340    mses                     eis_micro_ops:       14.
         320    mvc                      prwrd_util_:   76,   77,   78,   79,   80,
                                         eis_micro_ops:       13.
         120    mvza                     eis_micro_ops:        5.
         100    mvzb                     eis_micro_ops:        4.
           5    nfmts                    prwrd_util_:   43,   73.
           0    pc                       prwrd_util_:   12,   20.
          60    ses                      eis_micro_ops:        3.
          57    table                    prwrd_util_:   27,   52,   84.
          10    temp                     prwrd_util_:   26,   30,   51,   55,   98.


NO FATAL ERRORS


                                          -----------------------------------------------------------


Historical Background

This edition of the Multics software materials and documentation is provided and donated
to Massachusetts Institute of Technology by Group BULL including BULL HN Information Systems Inc.
as a contribution to computer science knowledge.
This donation is made also to give evidence of the common contributions of Massachusetts Institute of Technology,
Bell Laboratories, General Electric, Honeywell Information Systems Inc., Honeywell BULL Inc., Groupe BULL
and BULL HN Information Systems Inc. to the development of this operating system.
Multics development was initiated by Massachusetts Institute of Technology Project MAC (1963-1970),
renamed the MIT Laboratory for Computer Science and Artificial Intelligence in the mid 1970s, under the leadership
of Professor Fernando Jose Corbato. Users consider that Multics provided the best software architecture
for managing computer hardware properly and for executing programs. Many subsequent operating systems
incorporated Multics principles.
Multics was distributed in 1975 to 2000 by Group Bull in Europe , and in the U.S. by Bull HN Information Systems Inc.,
as successor in interest by change in name only to Honeywell Bull Inc. and Honeywell Information Systems Inc. .

                                          -----------------------------------------------------------

Permission to use, copy, modify, and distribute these programs and their documentation for any purpose and without
fee is hereby granted,provided that the below copyright notice and historical background appear in all copies
and that both the copyright notice and historical background and this permission notice appear in supporting
documentation, and that the names of MIT, HIS, BULL or BULL HN not be used in advertising or publicity pertaining
to distribution of the programs without specific prior written permission.
    Copyright 1972 by Massachusetts Institute of Technology and Honeywell Information Systems Inc.
    Copyright 2006 by BULL HN Information Systems Inc.
    Copyright 2006 by Bull SAS
    All Rights Reserved
