ASSEMBLY LISTING OF SEGMENT >spec>temp>famis1>record_manager_.alm
ASSEMBLED ON:	01/03/85  1425.9 mst Thu
OPTIONS USED:	list
ASSEMBLED BY:	ALM Version  6.6  November 1982
ASSEMBLER CREATED:	09/21/83  1227.3 mst Wed

                                     1  " ***********************************************************
                                     2  " *                                                         *
                                     3  " * Copyright, (C) Honeywell Information Systems Inc., 1984 *
                                     4  " *                                                         *
                                     5  " ***********************************************************
    000000                           6  	name	record_manager_
                                     7  "
                                     8  " Modified:
                                     9  " 11/15/82 by Lindsey Spratt: Added entries to use the interval_list structure.
                                    10  " 12/21/82 by Lindsey Spratt: Fixed get_record_count_by_interval to refer to
                                    11  "             $count instead of $get_count.  Fixed position_cursor to refer
                                    12  " 	    to $position instead of $position_cursor.
                                    13  " 12/21/82 by Matthew Pierret: Changed $get_record_count to refer to
                                    14  "             rm_general_search$count instead of the obsolete
                                    15  "             rm_get_record_count$get_record_count.
                                    16  " 03/16/83 by Matthew Pierret: Changed XXX to tra to rm_XXX$rm_XXX instead
                                    17  "             rm_XXX$XXX.
                                    18  " 04/21/83 by Matthew Pierret: Added rm_$get_records_and_ids("" _by_interval)
                                    19  " 07/28/83 by Matthew Pierret: Changed rm_XXX to rcm_XXX.
                                    20  " 04/11/84 by Lee Baldwin: Changed $XX_records_by_id to $XX_records_by_id_list
                                    21  "             to better distinguish them from $XX_get_record_by_id, changed
                                    22  "             $get_ids_by_interval to $get_record_ids_by_interval, changed
                                    23  "             $get_records_and_ids to $get_records_and_ids_by_spec, changed
                                    24  "             $get_record_id to $get_record_ids_by_spec, deleted $get_id
                                    25  "             (use $get_record_ids_by_spec instead) and $calculate_storage.
                                    26  "             Alphabetized the entries.
                                    27  "
                                    28
                                    29  " Macro to generate a call to an external entrypoint in the manager
                                    30
                                    31  	macro	ext_transfer
                              1     32  	segdef	&1
                              2     33  &1:	getlp
                              3     34  	tra	&2
                              4     35
                              5     36  	&end
                                    37
                                    38  " (unimplemented) ext_transfer copy_cursor,rcm_copy_cursor$rcm_copy_cursor
                                    39  	ext_transfer create_collection,rcm_create_collection$rcm_create_collection
                        000000          	segdef	create_collection
    000000  aa  7 00046 2721 20         create_collection:	getlp
    000001  4a  4 00010 7101 20         	tra	rcm_create_collection$rcm_create_collection

                                    40  	ext_transfer create_cursor,rcm_create_cursor$rcm_create_cursor
                        000002          	segdef	create_cursor
    000002  aa  7 00046 2721 20         create_cursor:	getlp
    000003  4a  4 00012 7101 20         	tra	rcm_create_cursor$rcm_create_cursor

                                    41  	ext_transfer delete_record_by_id,rcm_delete_record_by_id$single
                        000004          	segdef	delete_record_by_id
    000004  aa  7 00046 2721 20         delete_record_by_id:	getlp
    000005  4a  4 00014 7101 20         	tra	rcm_delete_record_by_id$single

                                    42  	ext_transfer delete_records_by_id_list,rcm_delete_record_by_id$array
                        000006          	segdef	delete_records_by_id_list
    000006  aa  7 00046 2721 20         delete_records_by_id_list:	getlp
    000007  4a  4 00016 7101 20         	tra	rcm_delete_record_by_id$array

                                    43  	ext_transfer delete_records_by_interval,rcm_process_intervals$delete
                        000010          	segdef	delete_records_by_interval
    000010  aa  7 00046 2721 20         delete_records_by_interval:	getlp
    000011  4a  4 00020 7101 20         	tra	rcm_process_intervals$delete

                                    44  	ext_transfer delete_records_by_spec,rcm_general_search$delete
                        000012          	segdef	delete_records_by_spec
    000012  aa  7 00046 2721 20         delete_records_by_spec:	getlp
    000013  4a  4 00022 7101 20         	tra	rcm_general_search$delete

                                    45  	ext_transfer destroy_collection,rcm_destroy_collection$rcm_destroy_collection
                        000014          	segdef	destroy_collection
    000014  aa  7 00046 2721 20         destroy_collection:	getlp
    000015  4a  4 00024 7101 20         	tra	rcm_destroy_collection$rcm_destroy_collection

                                    46  	ext_transfer destroy_cursor,rcm_destroy_cursor$rcm_destroy_cursor
                        000016          	segdef	destroy_cursor
    000016  aa  7 00046 2721 20         destroy_cursor:	getlp
    000017  4a  4 00026 7101 20         	tra	rcm_destroy_cursor$rcm_destroy_cursor

                                    47            ext_transfer get_field_info,rcm_get_field_info$rcm_get_field_info
                        000020          	segdef	get_field_info
    000020  aa  7 00046 2721 20         get_field_info:	getlp
    000021  4a  4 00030 7101 20         	tra	rcm_get_field_info$rcm_get_field_info

                                    48  	ext_transfer get_record_by_id,rcm_get_record_by_id$single
                        000022          	segdef	get_record_by_id
    000022  aa  7 00046 2721 20         get_record_by_id:	getlp
    000023  4a  4 00032 7101 20         	tra	rcm_get_record_by_id$single

                                    49  	ext_transfer get_record_ids_by_interval,rcm_process_intervals$get_id
                        000024          	segdef	get_record_ids_by_interval
    000024  aa  7 00046 2721 20         get_record_ids_by_interval:	getlp
    000025  4a  4 00034 7101 20         	tra	rcm_process_intervals$get_id

                                    50  	ext_transfer get_record_ids_by_spec,rcm_general_search$get_id
                        000026          	segdef	get_record_ids_by_spec
    000026  aa  7 00046 2721 20         get_record_ids_by_spec:	getlp
    000027  4a  4 00036 7101 20         	tra	rcm_general_search$get_id

                                    51  	ext_transfer get_record_count,rcm_general_search$count
                        000030          	segdef	get_record_count
    000030  aa  7 00046 2721 20         get_record_count:	getlp
    000031  4a  4 00040 7101 20         	tra	rcm_general_search$count

                                    52  	ext_transfer get_record_count_by_interval,rcm_process_intervals$count
                        000032          	segdef	get_record_count_by_interval
    000032  aa  7 00046 2721 20         get_record_count_by_interval:	getlp
    000033  4a  4 00042 7101 20         	tra	rcm_process_intervals$count

                                    53  	ext_transfer get_records_and_ids_by_interval,rcm_process_intervals$get_records_and_ids
                        000034          	segdef	get_records_and_ids_by_interval
    000034  aa  7 00046 2721 20         get_records_and_ids_by_interval:	getlp
    000035  4a  4 00044 7101 20         	tra	rcm_process_intervals$get_records_and_ids

                                    54  	ext_transfer get_records_and_ids_by_spec,rcm_general_search$get_records_and_ids
                        000036          	segdef	get_records_and_ids_by_spec
    000036  aa  7 00046 2721 20         get_records_and_ids_by_spec:	getlp
    000037  4a  4 00046 7101 20         	tra	rcm_general_search$get_records_and_ids

                                    55  	ext_transfer get_records_by_id_list,rcm_get_record_by_id$array
                        000040          	segdef	get_records_by_id_list
    000040  aa  7 00046 2721 20         get_records_by_id_list:	getlp
    000041  4a  4 00050 7101 20         	tra	rcm_get_record_by_id$array

                                    56  	ext_transfer get_records_by_interval,rcm_process_intervals$get
                        000042          	segdef	get_records_by_interval
    000042  aa  7 00046 2721 20         get_records_by_interval:	getlp
    000043  4a  4 00052 7101 20         	tra	rcm_process_intervals$get

                                    57  	ext_transfer get_records_by_spec,rcm_general_search$get
                        000044          	segdef	get_records_by_spec
    000044  aa  7 00046 2721 20         get_records_by_spec:	getlp
    000045  4a  4 00054 7101 20         	tra	rcm_general_search$get

                                    58  	ext_transfer modify_record_by_id,rcm_modify_record_by_id$single
                        000046          	segdef	modify_record_by_id
    000046  aa  7 00046 2721 20         modify_record_by_id:	getlp
    000047  4a  4 00056 7101 20         	tra	rcm_modify_record_by_id$single

                                    59  	ext_transfer modify_records_by_id_list,rcm_modify_record_by_id$array
                        000050          	segdef	modify_records_by_id_list
    000050  aa  7 00046 2721 20         modify_records_by_id_list:	getlp
    000051  4a  4 00060 7101 20         	tra	rcm_modify_record_by_id$array

                                    60  	ext_transfer modify_records_by_spec,rcm_general_search$modify
                        000052          	segdef	modify_records_by_spec
    000052  aa  7 00046 2721 20         modify_records_by_spec:	getlp
    000053  4a  4 00062 7101 20         	tra	rcm_general_search$modify

                                    61  	ext_transfer position_cursor,rcm_general_search$position
                        000054          	segdef	position_cursor
    000054  aa  7 00046 2721 20         position_cursor:	getlp
    000055  4a  4 00064 7101 20         	tra	rcm_general_search$position

                                    62  	ext_transfer put_record_by_id,rcm_put_record_by_id$single
                        000056          	segdef	put_record_by_id
    000056  aa  7 00046 2721 20         put_record_by_id:	getlp
    000057  4a  4 00066 7101 20         	tra	rcm_put_record_by_id$single

                                    63            ext_transfer put_records_by_id,rcm_put_record_by_id$array
                        000060          	segdef	put_records_by_id
    000060  aa  7 00046 2721 20         put_records_by_id:	getlp
    000061  4a  4 00070 7101 20         	tra	rcm_put_record_by_id$array

                                    64
                                    65  	end

NO LITERALS

NAME DEFINITIONS FOR ENTRY POINTS AND SEGDEFS

    000062  5a   000003 000000
    000063  5a   000352 600000
    000064  aa   000000 000000
    000065  55   000012 000002
    000066  5a   000002 400003
    000067  55   000006 000012
    000070  aa  017 162 145 143
    000071  aa  157 162 144 137
    000072  aa  155 141 156 141
    000073  aa  147 145 162 137
    000074  55   000022 000003
    000075  0a   000060 400000
    000076  55   000015 000003
    000077  aa  021 160 165 164         put_records_by_id
    000100  aa  137 162 145 143
    000101  aa  157 162 144 163
    000102  aa  137 142 171 137
    000103  aa  151 144 000 000
    000104  55   000032 000012
    000105  0a   000056 400000
    000106  55   000025 000003
    000107  aa  020 160 165 164         put_record_by_id
    000110  aa  137 162 145 143
    000111  aa  157 162 144 137
    000112  aa  142 171 137 151
    000113  aa  144 000 000 000
    000114  55   000041 000022
    000115  0a   000054 400000
    000116  55   000035 000003
    000117  aa  017 160 157 163         position_cursor
    000120  aa  151 164 151 157
    000121  aa  156 137 143 165
    000122  aa  162 163 157 162
    000123  55   000052 000032
    000124  0a   000052 400000
    000125  55   000044 000003
    000126  aa  026 155 157 144         modify_records_by_spec
    000127  aa  151 146 171 137
    000130  aa  162 145 143 157
    000131  aa  162 144 163 137
    000132  aa  142 171 137 163
    000133  aa  160 145 143 000
    000134  55   000064 000041
    000135  0a   000050 400000
    000136  55   000055 000003
    000137  aa  031 155 157 144         modify_records_by_id_list
    000140  aa  151 146 171 137
    000141  aa  162 145 143 157
    000142  aa  162 144 163 137
    000143  aa  142 171 137 151
    000144  aa  144 137 154 151
    000145  aa  163 164 000 000
    000146  55   000074 000052
    000147  0a   000046 400000
    000150  55   000067 000003
    000151  aa  023 155 157 144         modify_record_by_id
    000152  aa  151 146 171 137
    000153  aa  162 145 143 157
    000154  aa  162 144 137 142
    000155  aa  171 137 151 144
    000156  55   000104 000064
    000157  0a   000044 400000
    000160  55   000077 000003
    000161  aa  023 147 145 164         get_records_by_spec
    000162  aa  137 162 145 143
    000163  aa  157 162 144 163
    000164  aa  137 142 171 137
    000165  aa  163 160 145 143
    000166  55   000115 000074
    000167  0a   000042 400000
    000170  55   000107 000003
    000171  aa  027 147 145 164         get_records_by_interval
    000172  aa  137 162 145 143
    000173  aa  157 162 144 163
    000174  aa  137 142 171 137
    000175  aa  151 156 164 145
    000176  aa  162 166 141 154
    000177  55   000126 000104
    000200  0a   000040 400000
    000201  55   000120 000003
    000202  aa  026 147 145 164         get_records_by_id_list
    000203  aa  137 162 145 143
    000204  aa  157 162 144 163
    000205  aa  137 142 171 137
    000206  aa  151 144 137 154
    000207  aa  151 163 164 000
    000210  55   000140 000115
    000211  0a   000036 400000
    000212  55   000131 000003
    000213  aa  033 147 145 164         get_records_and_ids_by_spec
    000214  aa  137 162 145 143
    000215  aa  157 162 144 163
    000216  aa  137 141 156 144
    000217  aa  137 151 144 163
    000220  aa  137 142 171 137
    000221  aa  163 160 145 143
    000222  55   000153 000126
    000223  0a   000034 400000
    000224  55   000143 000003
    000225  aa  037 147 145 164         get_records_and_ids_by_interval
    000226  aa  137 162 145 143
    000227  aa  157 162 144 163
    000230  aa  137 141 156 144
    000231  aa  137 151 144 163
    000232  aa  137 142 171 137
    000233  aa  151 156 164 145
    000234  aa  162 166 141 154
    000235  55   000166 000140
    000236  0a   000032 400000
    000237  55   000156 000003
    000240  aa  034 147 145 164         get_record_count_by_interval
    000241  aa  137 162 145 143
    000242  aa  157 162 144 137
    000243  aa  143 157 165 156
    000244  aa  164 137 142 171
    000245  aa  137 151 156 164
    000246  aa  145 162 166 141
    000247  aa  154 000 000 000
    000250  55   000176 000153
    000251  0a   000030 400000
    000252  55   000171 000003
    000253  aa  020 147 145 164         get_record_count
    000254  aa  137 162 145 143
    000255  aa  157 162 144 137
    000256  aa  143 157 165 156
    000257  aa  164 000 000 000
    000260  55   000207 000166
    000261  0a   000026 400000
    000262  55   000201 000003
    000263  aa  026 147 145 164         get_record_ids_by_spec
    000264  aa  137 162 145 143
    000265  aa  157 162 144 137
    000266  aa  151 144 163 137
    000267  aa  142 171 137 163
    000270  aa  160 145 143 000
    000271  55   000221 000176
    000272  0a   000024 400000
    000273  55   000212 000003
    000274  aa  032 147 145 164         get_record_ids_by_interval
    000275  aa  137 162 145 143
    000276  aa  157 162 144 137
    000277  aa  151 144 163 137
    000300  aa  142 171 137 151
    000301  aa  156 164 145 162
    000302  aa  166 141 154 000
    000303  55   000231 000207
    000304  0a   000022 400000
    000305  55   000224 000003
    000306  aa  020 147 145 164         get_record_by_id
    000307  aa  137 162 145 143
    000310  aa  157 162 144 137
    000311  aa  142 171 137 151
    000312  aa  144 000 000 000
    000313  55   000240 000221
    000314  0a   000020 400000
    000315  55   000234 000003
    000316  aa  016 147 145 164         get_field_info
    000317  aa  137 146 151 145
    000320  aa  154 144 137 151
    000321  aa  156 146 157 000
    000322  55   000247 000231
    000323  0a   000016 400000
    000324  55   000243 000003
    000325  aa  016 144 145 163         destroy_cursor
    000326  aa  164 162 157 171
    000327  aa  137 143 165 162
    000330  aa  163 157 162 000
    000331  55   000257 000240
    000332  0a   000014 400000
    000333  55   000252 000003
    000334  aa  022 144 145 163         destroy_collection
    000335  aa  164 162 157 171
    000336  aa  137 143 157 154
    000337  aa  154 145 143 164
    000340  aa  151 157 156 000
    000341  55   000270 000247
    000342  0a   000012 400000
    000343  55   000262 000003
    000344  aa  026 144 145 154         delete_records_by_spec
    000345  aa  145 164 145 137
    000346  aa  162 145 143 157
    000347  aa  162 144 163 137
    000350  aa  142 171 137 163
    000351  aa  160 145 143 000
    000352  55   000302 000257
    000353  0a   000010 400000
    000354  55   000273 000003
    000355  aa  032 144 145 154         delete_records_by_interval
    000356  aa  145 164 145 137
    000357  aa  162 145 143 157
    000360  aa  162 144 163 137
    000361  aa  142 171 137 151
    000362  aa  156 164 145 162
    000363  aa  166 141 154 000
    000364  55   000314 000270
    000365  0a   000006 400000
    000366  55   000305 000003
    000367  aa  031 144 145 154         delete_records_by_id_list
    000370  aa  145 164 145 137
    000371  aa  162 145 143 157
    000372  aa  162 144 163 137
    000373  aa  142 171 137 151
    000374  aa  144 137 154 151
    000375  aa  163 164 000 000
    000376  55   000324 000302
    000377  0a   000004 400000
    000400  55   000317 000003
    000401  aa  023 144 145 154         delete_record_by_id
    000402  aa  145 164 145 137
    000403  aa  162 145 143 157
    000404  aa  162 144 137 142
    000405  aa  171 137 151 144
    000406  55   000333 000314
    000407  0a   000002 400000
    000410  55   000327 000003
    000411  aa  015 143 162 145         create_cursor
    000412  aa  141 164 145 137
    000413  aa  143 165 162 163
    000414  aa  157 162 000 000
    000415  55   000343 000324
    000416  0a   000000 400000
    000417  55   000336 000003
    000420  aa  021 143 162 145         create_collection
    000421  aa  141 164 145 137
    000422  aa  143 157 154 154
    000423  aa  145 143 164 151
    000424  aa  157 156 000 000
    000425  55   000002 000333
    000426  6a   000000 400002
    000427  55   000346 000003
    000430  aa  014 163 171 155         symbol_table
    000431  aa  142 157 154 137
    000432  aa  164 141 142 154
    000433  aa  145 000 000 000

DEFINITIONS HASH TABLE

    000434  aa   000000 000065
    000435  aa   000000 000000
    000436  5a   000231 000000
    000437  aa   000000 000000
    000440  aa   000000 000000
    000441  5a   000270 000000
    000442  aa   000000 000000
    000443  5a   000302 000000
    000444  aa   000000 000000
    000445  aa   000000 000000
    000446  aa   000000 000000
    000447  aa   000000 000000
    000450  aa   000000 000000
    000451  5a   000257 000000
    000452  aa   000000 000000
    000453  aa   000000 000000
    000454  aa   000000 000000
    000455  aa   000000 000000
    000456  aa   000000 000000
    000457  5a   000314 000000
    000460  aa   000000 000000
    000461  5a   000140 000000
    000462  aa   000000 000000
    000463  aa   000000 000000
    000464  aa   000000 000000
    000465  aa   000000 000000
    000466  aa   000000 000000
    000467  5a   000012 000000
    000470  5a   000153 000000
    000471  5a   000022 000000
    000472  5a   000126 000000
    000473  5a   000207 000000
    000474  5a   000032 000000
    000475  5a   000052 000000
    000476  5a   000247 000000
    000477  5a   000343 000000
    000500  5a   000240 000000
    000501  5a   000104 000000
    000502  5a   000041 000000
    000503  5a   000115 000000
    000504  5a   000176 000000
    000505  5a   000333 000000
    000506  aa   000000 000000
    000507  aa   000000 000000
    000510  5a   000064 000000
    000511  5a   000074 000000
    000512  aa   000000 000000
    000513  aa   000000 000000
    000514  aa   000000 000000
    000515  5a   000324 000000
    000516  aa   000000 000000
    000517  5a   000166 000000
    000520  5a   000221 000000
    000521  aa   000000 000000

EXTERNAL NAMES

    000522  aa  024 162 143 155         rcm_put_record_by_id
    000523  aa  137 160 165 164
    000524  aa  137 162 145 143
    000525  aa  157 162 144 137
    000526  aa  142 171 137 151
    000527  aa  144 000 000 000
    000530  aa  010 160 157 163         position
    000531  aa  151 164 151 157
    000532  aa  156 000 000 000
    000533  aa  006 155 157 144         modify
    000534  aa  151 146 171 000
    000535  aa  027 162 143 155         rcm_modify_record_by_id
    000536  aa  137 155 157 144
    000537  aa  151 146 171 137
    000540  aa  162 145 143 157
    000541  aa  162 144 137 142
    000542  aa  171 137 151 144
    000543  aa  003 147 145 164         get
    000544  aa  023 147 145 164         get_records_and_ids
    000545  aa  137 162 145 143
    000546  aa  157 162 144 163
    000547  aa  137 141 156 144
    000550  aa  137 151 144 163
    000551  aa  005 143 157 165         count
    000552  aa  156 164 000 000
    000553  aa  006 147 145 164         get_id
    000554  aa  137 151 144 000
    000555  aa  024 162 143 155         rcm_get_record_by_id
    000556  aa  137 147 145 164
    000557  aa  137 162 145 143
    000560  aa  157 162 144 137
    000561  aa  142 171 137 151
    000562  aa  144 000 000 000
    000563  aa  022 162 143 155         rcm_get_field_info
    000564  aa  137 147 145 164
    000565  aa  137 146 151 145
    000566  aa  154 144 137 151
    000567  aa  156 146 157 000
    000570  aa  022 162 143 155         rcm_destroy_cursor
    000571  aa  137 144 145 163
    000572  aa  164 162 157 171
    000573  aa  137 143 165 162
    000574  aa  163 157 162 000
    000575  aa  026 162 143 155         rcm_destroy_collection
    000576  aa  137 144 145 163
    000577  aa  164 162 157 171
    000600  aa  137 143 157 154
    000601  aa  154 145 143 164
    000602  aa  151 157 156 000
    000603  aa  022 162 143 155         rcm_general_search
    000604  aa  137 147 145 156
    000605  aa  145 162 141 154
    000606  aa  137 163 145 141
    000607  aa  162 143 150 000
    000610  aa  006 144 145 154         delete
    000611  aa  145 164 145 000
    000612  aa  025 162 143 155         rcm_process_intervals
    000613  aa  137 160 162 157
    000614  aa  143 145 163 163
    000615  aa  137 151 156 164
    000616  aa  145 162 166 141
    000617  aa  154 163 000 000
    000620  aa  005 141 162 162         array
    000621  aa  141 171 000 000
    000622  aa  006 163 151 156         single
    000623  aa  147 154 145 000
    000624  aa  027 162 143 155         rcm_delete_record_by_id
    000625  aa  137 144 145 154
    000626  aa  145 164 145 137
    000627  aa  162 145 143 157
    000630  aa  162 144 137 142
    000631  aa  171 137 151 144
    000632  aa  021 162 143 155         rcm_create_cursor
    000633  aa  137 143 162 145
    000634  aa  141 164 145 137
    000635  aa  143 165 162 163
    000636  aa  157 162 000 000
    000637  aa  025 162 143 155         rcm_create_collection
    000640  aa  137 143 162 145
    000641  aa  141 164 145 137
    000642  aa  143 157 154 154
    000643  aa  145 143 164 151
    000644  aa  157 156 000 000

NO TRAP POINTER WORDS

TYPE PAIR BLOCKS

    000645  aa   000004 000000
    000646  55   000440 000536
    000647  aa   000004 000000
    000650  55   000440 000540
    000651  aa   000004 000000
    000652  55   000521 000446
    000653  aa   000004 000000
    000654  55   000521 000451
    000655  aa   000004 000000
    000656  55   000453 000536
    000657  aa   000004 000000
    000660  55   000453 000540
    000661  aa   000004 000000
    000662  55   000521 000461
    000663  aa   000004 000000
    000664  55   000530 000461
    000665  aa   000004 000000
    000666  55   000473 000536
    000667  aa   000004 000000
    000670  55   000521 000462
    000671  aa   000004 000000
    000672  55   000530 000462
    000673  aa   000004 000000
    000674  55   000530 000467
    000675  aa   000004 000000
    000676  55   000521 000467
    000677  aa   000004 000000
    000700  55   000521 000471
    000701  aa   000004 000000
    000702  55   000530 000471
    000703  aa   000004 000000
    000704  55   000473 000540
    000705  aa   000004 000000
    000706  55   000501 000501
    000707  aa   000004 000000
    000710  55   000506 000506
    000711  aa   000004 000000
    000712  55   000513 000513
    000713  aa   000004 000000
    000714  55   000521 000526
    000715  aa   000004 000000
    000716  55   000530 000526
    000717  aa   000004 000000
    000720  55   000542 000536
    000721  aa   000004 000000
    000722  55   000542 000540
    000723  aa   000004 000000
    000724  55   000550 000550
    000725  aa   000004 000000
    000726  55   000555 000555
    000727  aa   000001 000000
    000730  aa   000000 000000

INTERNAL EXPRESSION WORDS

    000731  5a   000563 000000
    000732  5a   000565 000000
    000733  5a   000567 000000
    000734  5a   000571 000000
    000735  5a   000573 000000
    000736  5a   000575 000000
    000737  5a   000577 000000
    000740  5a   000601 000000
    000741  5a   000603 000000
    000742  5a   000605 000000
    000743  5a   000607 000000
    000744  5a   000611 000000
    000745  5a   000613 000000
    000746  5a   000615 000000
    000747  5a   000617 000000
    000750  5a   000621 000000
    000751  5a   000623 000000
    000752  5a   000625 000000
    000753  5a   000627 000000
    000754  5a   000631 000000
    000755  5a   000633 000000
    000756  5a   000635 000000
    000757  5a   000637 000000
    000760  5a   000641 000000
    000761  5a   000643 000000
LINKAGE INFORMATION

    000000  aa   000000 000000
    000001  0a   000062 000000
    000002  aa   000000 000000
    000003  aa   000000 000000
    000004  aa   000000 000000
    000005  aa   000000 000000
    000006  22   000010 000072
    000007  a2   000000 000000
    000010  9a   777770 0000 46         rcm_create_collection|rcm_create_collection
    000011  5a   000677 0000 00
    000012  9a   777766 0000 46         rcm_create_cursor|rcm_create_cursor
    000013  5a   000676 0000 00
    000014  9a   777764 0000 46         rcm_delete_record_by_id|single
    000015  5a   000675 0000 00
    000016  9a   777762 0000 46         rcm_delete_record_by_id|array
    000017  5a   000674 0000 00
    000020  9a   777760 0000 46         rcm_process_intervals|delete
    000021  5a   000673 0000 00
    000022  9a   777756 0000 46         rcm_general_search|delete
    000023  5a   000672 0000 00
    000024  9a   777754 0000 46         rcm_destroy_collection|rcm_destroy_collection
    000025  5a   000671 0000 00
    000026  9a   777752 0000 46         rcm_destroy_cursor|rcm_destroy_cursor
    000027  5a   000670 0000 00
    000030  9a   777750 0000 46         rcm_get_field_info|rcm_get_field_info
    000031  5a   000667 0000 00
    000032  9a   777746 0000 46         rcm_get_record_by_id|single
    000033  5a   000666 0000 00
    000034  9a   777744 0000 46         rcm_process_intervals|get_id
    000035  5a   000665 0000 00
    000036  9a   777742 0000 46         rcm_general_search|get_id
    000037  5a   000664 0000 00
    000040  9a   777740 0000 46         rcm_general_search|count
    000041  5a   000663 0000 00
    000042  9a   777736 0000 46         rcm_process_intervals|count
    000043  5a   000662 0000 00
    000044  9a   777734 0000 46         rcm_process_intervals|get_records_and_ids
    000045  5a   000661 0000 00
    000046  9a   777732 0000 46         rcm_general_search|get_records_and_ids
    000047  5a   000660 0000 00
    000050  9a   777730 0000 46         rcm_get_record_by_id|array
    000051  5a   000657 0000 00
    000052  9a   777726 0000 46         rcm_process_intervals|get
    000053  5a   000656 0000 00
    000054  9a   777724 0000 46         rcm_general_search|get
    000055  5a   000655 0000 00
    000056  9a   777722 0000 46         rcm_modify_record_by_id|single
    000057  5a   000654 0000 00
    000060  9a   777720 0000 46         rcm_modify_record_by_id|array
    000061  5a   000653 0000 00
    000062  9a   777716 0000 46         rcm_general_search|modify
    000063  5a   000652 0000 00
    000064  9a   777714 0000 46         rcm_general_search|position
    000065  5a   000651 0000 00
    000066  9a   777712 0000 46         rcm_put_record_by_id|single
    000067  5a   000650 0000 00
    000070  9a   777710 0000 46         rcm_put_record_by_id|array
    000071  5a   000647 0000 00
SYMBOL INFORMATION

SYMBOL TABLE HEADER

    000000  aa   000000 000001
    000001  aa   163171 155142
    000002  aa   164162 145145
    000003  aa   000000 000004
    000004  aa   000000 112143
    000005  aa   305203 523135
    000006  aa   000000 113262
    000007  aa   323374 520726
    000010  aa   141154 155040
    000011  aa   040040 040040
    000012  aa   000024 000040
    000013  aa   000034 000040
    000014  aa   000044 000100
    000015  aa   000002 000002
    000016  aa   000064 000000
    000017  aa   000000 000136
    000020  aa   000000 000104
    000021  aa   000000 000114
    000022  aa   000130 000104
    000023  aa   000064 000000
    000024  aa   101114 115040
    000025  aa   126145 162163
    000026  aa   151157 156040
    000027  aa   040066 056066
    000030  aa   040040 116157
    000031  aa   166145 155142
    000032  aa   145162 040061
    000033  aa   071070 062040
    000034  aa   107112 157150
    000035  aa   156163 157156
    000036  aa   056123 171163
    000037  aa   115141 151156
    000040  aa   164056 155040
    000041  aa   040040 040040
    000042  aa   040040 040040
    000043  aa   040040 040040
    000044  aa   154151 163164
    000045  aa   040040 040040
    000046  aa   040040 040040
    000047  aa   040040 040040
    000050  aa   040040 040040
    000051  aa   040040 040040
    000052  aa   040040 040040
    000053  aa   040040 040040
    000054  aa   040040 040040
    000055  aa   040040 040040
    000056  aa   040040 040040
    000057  aa   040040 040040
    000060  aa   040040 040040
    000061  aa   040040 040040
    000062  aa   040040 040040
    000063  aa   040040 040040
    000064  aa   000000 000001
    000065  aa   000000 000001
    000066  aa   000072 000045
    000067  aa   132620 756600
    000070  aa   000000 113262
    000071  aa   214475 400000
    000072  aa   076163 160145          >spec>temp>famis1>record_manager_.alm
    000073  aa   143076 164145
    000074  aa   155160 076146
    000075  aa   141155 151163
    000076  aa   061076 162145
    000077  aa   143157 162144
    000100  aa   137155 141156
    000101  aa   141147 145162
    000102  aa   137056 141154
    000103  aa   155040 040040
               MULTICS ASSEMBLY CROSS REFERENCE LISTING

   Value        Symbol                   Source file   Line number

                array                    record_manager_:     42,   55,   59,   63.
                count                    record_manager_:     51,   52.
           0    create_collection        record_manager_:     39.
           2    create_cursor            record_manager_:     40.
                delete                   record_manager_:     43,   44.
           6    delete_records_by_id_list      record_manager_:     42.
          10    delete_records_by_interval     record_manager_:     43.
          12    delete_records_by_spec   record_manager_:     44.
           4    delete_record_by_id      record_manager_:     41.
          14    destroy_collection       record_manager_:     45.
          16    destroy_cursor           record_manager_:     46.
                get                      record_manager_:     56,   57.
          20    get_field_info           record_manager_:     47.
                get_id                   record_manager_:     49,   50.
                get_records_and_ids      record_manager_:     53,   54.
          34    get_records_and_ids_by_interval      record_manager_:     53.
          36    get_records_and_ids_by_spec    record_manager_:     54.
          40    get_records_by_id_list   record_manager_:     55.
          42    get_records_by_interval  record_manager_:     56.
          44    get_records_by_spec      record_manager_:     57.
          22    get_record_by_id         record_manager_:     48.
          30    get_record_count         record_manager_:     51.
          32    get_record_count_by_interval   record_manager_:     52.
          24    get_record_ids_by_interval     record_manager_:     49.
          26    get_record_ids_by_spec   record_manager_:     50.
                modify                   record_manager_:     60.
          50    modify_records_by_id_list      record_manager_:     59.
          52    modify_records_by_spec   record_manager_:     60.
          46    modify_record_by_id      record_manager_:     58.
                position                 record_manager_:     61.
          54    position_cursor          record_manager_:     61.
          60    put_records_by_id        record_manager_:     63.
          56    put_record_by_id         record_manager_:     62.
                rcm_create_collection    record_manager_:     39.
                rcm_create_cursor        record_manager_:     40.
                rcm_delete_record_by_id  record_manager_:     41,   42.
                rcm_destroy_collection   record_manager_:     45.
                rcm_destroy_cursor       record_manager_:     46.
                rcm_general_search       record_manager_:     44,   50,   51,   54,   57,   60,   61.
                rcm_get_field_info       record_manager_:     47.
                rcm_get_record_by_id     record_manager_:     48,   55.
                rcm_modify_record_by_id  record_manager_:     58,   59.
                rcm_process_intervals    record_manager_:     43,   49,   52,   53,   56.
                rcm_put_record_by_id     record_manager_:     62,   63.
                single                   record_manager_:     41,   48,   58,   62.


NO FATAL ERRORS


                                          -----------------------------------------------------------


Historical Background

This edition of the Multics software materials and documentation is provided and donated
to Massachusetts Institute of Technology by Group BULL including BULL HN Information Systems Inc.
as a contribution to computer science knowledge.
This donation is made also to give evidence of the common contributions of Massachusetts Institute of Technology,
Bell Laboratories, General Electric, Honeywell Information Systems Inc., Honeywell BULL Inc., Groupe BULL
and BULL HN Information Systems Inc. to the development of this operating system.
Multics development was initiated by Massachusetts Institute of Technology Project MAC (1963-1970),
renamed the MIT Laboratory for Computer Science and Artificial Intelligence in the mid 1970s, under the leadership
of Professor Fernando Jose Corbato. Users consider that Multics provided the best software architecture
for managing computer hardware properly and for executing programs. Many subsequent operating systems
incorporated Multics principles.
Multics was distributed in 1975 to 2000 by Group Bull in Europe , and in the U.S. by Bull HN Information Systems Inc.,
as successor in interest by change in name only to Honeywell Bull Inc. and Honeywell Information Systems Inc. .

                                          -----------------------------------------------------------

Permission to use, copy, modify, and distribute these programs and their documentation for any purpose and without
fee is hereby granted,provided that the below copyright notice and historical background appear in all copies
and that both the copyright notice and historical background and this permission notice appear in supporting
documentation, and that the names of MIT, HIS, BULL or BULL HN not be used in advertising or publicity pertaining
to distribution of the programs without specific prior written permission.
    Copyright 1972 by Massachusetts Institute of Technology and Honeywell Information Systems Inc.
    Copyright 2006 by BULL HN Information Systems Inc.
    Copyright 2006 by Bull SAS
    All Rights Reserved
