ASSEMBLY LISTING OF SEGMENT >special_ldd>online>7001-11/16/84>report_writer_.alm
ASSEMBLED ON:	11/16/84  1122.1 mst Fri
OPTIONS USED:	list
ASSEMBLED BY:	ALM Version  6.6  November 1982
ASSEMBLER CREATED:	09/21/83  1227.3 mst Wed

                                     1  " ***********************************************************
                                     2  " *                                                         *
                                     3  " * Copyright, (C) Honeywell Information Systems Inc., 1984 *
                                     4  " *                                                         *
                                     5  " ***********************************************************
                                     6  "
                                     7  " report_writer_ Transfer Vector.
                                     8  " Written - Al Dupuis - October 1984
                                     9  "
    000000                          10  		name	report_writer_
                                    11  macro	tv
                              1     12  	entry	&1
                              2     13  &1:	tra	<&2>|[&3]
                              3     14  &end
                                    15
                                    16  	tv	convert_and_move_row,rw_convert_and_move_row,rw_convert_and_move_row
                        000000          	entry	convert_and_move_row
    000000  4a  4 00010 7101 20         convert_and_move_row:	tra	<rw_convert_and_move_row>|[rw_convert_and_move_row]
                                    17  	tv	create_invocation,report_writer,create_invocation
                        000001          	entry	create_invocation
    000001  4a  4 00012 7101 20         create_invocation:	tra	<report_writer>|[create_invocation]
                                    18  	tv	define_columns,rw_define_columns,rw_define_columns
                        000002          	entry	define_columns
    000002  4a  4 00014 7101 20         define_columns:	tra	<rw_define_columns>|[rw_define_columns]
                                    19  	tv	destroy_invocation,report_writer,destroy_invocation
                        000003          	entry	destroy_invocation
    000003  4a  4 00016 7101 20         destroy_invocation:	tra	<report_writer>|[destroy_invocation]
                                    20  	tv	set_report_writer_info_ptr,rw_requests,set_report_writer_info_ptr
                        000004          	entry	set_report_writer_info_ptr
    000004  4a  4 00020 7101 20         set_report_writer_info_ptr:	tra	<rw_requests>|[set_report_writer_info_ptr]
                                    21  	tv	set_table_manager,rw_table_manager,set_table_manager
                        000005          	entry	set_table_manager
    000005  4a  4 00022 7101 20         set_table_manager:	tra	<rw_table_manager>|[set_table_manager]
                                    22
                                    23  		end
ENTRY SEQUENCES

    000006  5a   000063 0000 00
    000007  aa  7 00046 2721 20
    000010  0a   000000 7100 00
    000011  5a   000053 0000 00
    000012  aa  7 00046 2721 20
    000013  0a   000001 7100 00
    000014  5a   000044 0000 00
    000015  aa  7 00046 2721 20
    000016  0a   000002 7100 00
    000017  5a   000034 0000 00
    000020  aa  7 00046 2721 20
    000021  0a   000003 7100 00
    000022  5a   000022 0000 00
    000023  aa  7 00046 2721 20
    000024  0a   000004 7100 00
    000025  5a   000012 0000 00
    000026  aa  7 00046 2721 20
    000027  0a   000005 7100 00

NO LITERALS

NAME DEFINITIONS FOR ENTRY POINTS AND SEGDEFS

    000030  5a   000003 000000
    000031  5a   000103 600000
    000032  aa   000000 000000
    000033  55   000012 000002
    000034  5a   000002 400003
    000035  55   000006 000012
    000036  aa  016 162 145 160
    000037  aa  157 162 164 137
    000040  aa  167 162 151 164
    000041  aa  145 162 137 000
    000042  55   000022 000003
    000043  0a   000026 500000
    000044  55   000015 000003
    000045  aa  021 163 145 164         set_table_manager
    000046  aa  137 164 141 142
    000047  aa  154 145 137 155
    000050  aa  141 156 141 147
    000051  aa  145 162 000 000
    000052  55   000034 000012
    000053  0a   000023 500000
    000054  55   000025 000003
    000055  aa  032 163 145 164         set_report_writer_info_ptr
    000056  aa  137 162 145 160
    000057  aa  157 162 164 137
    000060  aa  167 162 151 164
    000061  aa  145 162 137 151
    000062  aa  156 146 157 137
    000063  aa  160 164 162 000
    000064  55   000044 000022
    000065  0a   000020 500000
    000066  55   000037 000003
    000067  aa  022 144 145 163         destroy_invocation
    000070  aa  164 162 157 171
    000071  aa  137 151 156 166
    000072  aa  157 143 141 164
    000073  aa  151 157 156 000
    000074  55   000053 000034
    000075  0a   000015 500000
    000076  55   000047 000003
    000077  aa  016 144 145 146         define_columns
    000100  aa  151 156 145 137
    000101  aa  143 157 154 165
    000102  aa  155 156 163 000
    000103  55   000063 000044
    000104  0a   000012 500000
    000105  55   000056 000003
    000106  aa  021 143 162 145         create_invocation
    000107  aa  141 164 145 137
    000110  aa  151 156 166 157
    000111  aa  143 141 164 151
    000112  aa  157 156 000 000
    000113  55   000074 000053
    000114  0a   000007 500000
    000115  55   000066 000003
    000116  aa  024 143 157 156         convert_and_move_row
    000117  aa  166 145 162 164
    000120  aa  137 141 156 144
    000121  aa  137 155 157 166
    000122  aa  145 137 162 157
    000123  aa  167 000 000 000
    000124  55   000002 000063
    000125  6a   000000 400002
    000126  55   000077 000003
    000127  aa  014 163 171 155         symbol_table
    000130  aa  142 157 154 137
    000131  aa  164 141 142 154
    000132  aa  145 000 000 000

DEFINITIONS HASH TABLE

    000133  aa   000000 000015
    000134  aa   000000 000000
    000135  5a   000034 000000
    000136  aa   000000 000000
    000137  aa   000000 000000
    000140  aa   000000 000000
    000141  5a   000012 000000
    000142  5a   000053 000000
    000143  5a   000074 000000
    000144  5a   000044 000000
    000145  aa   000000 000000
    000146  aa   000000 000000
    000147  5a   000063 000000
    000150  5a   000022 000000

EXTERNAL NAMES

    000151  aa  020 162 167 137         rw_table_manager
    000152  aa  164 141 142 154
    000153  aa  145 137 155 141
    000154  aa  156 141 147 145
    000155  aa  162 000 000 000
    000156  aa  013 162 167 137         rw_requests
    000157  aa  162 145 161 165
    000160  aa  145 163 164 163
    000161  aa  021 162 167 137         rw_define_columns
    000162  aa  144 145 146 151
    000163  aa  156 145 137 143
    000164  aa  157 154 165 155
    000165  aa  156 163 000 000
    000166  aa  015 162 145 160         report_writer
    000167  aa  157 162 164 137
    000170  aa  167 162 151 164
    000171  aa  145 162 000 000
    000172  aa  027 162 167 137         rw_convert_and_move_row
    000173  aa  143 157 156 166
    000174  aa  145 162 164 137
    000175  aa  141 156 144 137
    000176  aa  155 157 166 145
    000177  aa  137 162 157 167

NO TRAP POINTER WORDS

TYPE PAIR BLOCKS

    000200  aa   000004 000000
    000201  55   000121 000015
    000202  aa   000004 000000
    000203  55   000126 000025
    000204  aa   000004 000000
    000205  55   000136 000037
    000206  aa   000004 000000
    000207  55   000131 000131
    000210  aa   000004 000000
    000211  55   000136 000056
    000212  aa   000004 000000
    000213  55   000142 000142
    000214  aa   000001 000000
    000215  aa   000000 000000

INTERNAL EXPRESSION WORDS

    000216  5a   000150 000000
    000217  5a   000152 000000
    000220  5a   000154 000000
    000221  5a   000156 000000
    000222  5a   000160 000000
    000223  5a   000162 000000
LINKAGE INFORMATION

    000000  aa   000000 000000
    000001  0a   000030 000000
    000002  aa   000000 000000
    000003  aa   000000 000000
    000004  aa   000000 000000
    000005  aa   000000 000000
    000006  22   000010 000024
    000007  a2   000000 000000
    000010  9a   777770 0000 46         rw_convert_and_move_row|rw_convert_and_move_row
    000011  5a   000173 0000 00
    000012  9a   777766 0000 46         report_writer|create_invocation
    000013  5a   000172 0000 00
    000014  9a   777764 0000 46         rw_define_columns|rw_define_columns
    000015  5a   000171 0000 00
    000016  9a   777762 0000 46         report_writer|destroy_invocation
    000017  5a   000170 0000 00
    000020  9a   777760 0000 46         rw_requests|set_report_writer_info_ptr
    000021  5a   000167 0000 00
    000022  9a   777756 0000 46         rw_table_manager|set_table_manager
    000023  5a   000166 0000 00
SYMBOL INFORMATION

SYMBOL TABLE HEADER

    000000  aa   000000 000001
    000001  aa   163171 155142
    000002  aa   164162 145145
    000003  aa   000000 000004
    000004  aa   000000 112143
    000005  aa   305203 523135
    000006  aa   000000 113165
    000007  aa   716214 045642
    000010  aa   141154 155040
    000011  aa   040040 040040
    000012  aa   000024 000040
    000013  aa   000034 000040
    000014  aa   000044 000100
    000015  aa   000002 000002
    000016  aa   000064 000000
    000017  aa   000000 000130
    000020  aa   000000 000107
    000021  aa   000000 000115
    000022  aa   000122 000107
    000023  aa   000064 000000
    000024  aa   101114 115040
    000025  aa   126145 162163
    000026  aa   151157 156040
    000027  aa   040066 056066
    000030  aa   040040 116157
    000031  aa   166145 155142
    000032  aa   145162 040061
    000033  aa   071070 062040
    000034  aa   107112 157150
    000035  aa   156163 157156
    000036  aa   056123 171163
    000037  aa   115141 151156
    000040  aa   164056 155040
    000041  aa   040040 040040
    000042  aa   040040 040040
    000043  aa   040040 040040
    000044  aa   154151 163164
    000045  aa   040040 040040
    000046  aa   040040 040040
    000047  aa   040040 040040
    000050  aa   040040 040040
    000051  aa   040040 040040
    000052  aa   040040 040040
    000053  aa   040040 040040
    000054  aa   040040 040040
    000055  aa   040040 040040
    000056  aa   040040 040040
    000057  aa   040040 040040
    000060  aa   040040 040040
    000061  aa   040040 040040
    000062  aa   040040 040040
    000063  aa   040040 040040
    000064  aa   000000 000001
    000065  aa   000000 000001
    000066  aa   000072 000064
    000067  aa   131653 051727
    000070  aa   000000 113165
    000071  aa   707571 600000
    000072  aa   076163 160145          >special_ldd>online>7001-11/16/84>report_writer_.alm
    000073  aa   143151 141154
    000074  aa   137154 144144
    000075  aa   076157 156154
    000076  aa   151156 145076
    000077  aa   067060 060061
    000100  aa   055061 061057
    000101  aa   061066 057070
    000102  aa   064076 162145
    000103  aa   160157 162164
    000104  aa   137167 162151
    000105  aa   164145 162137
    000106  aa   056141 154155
               MULTICS ASSEMBLY CROSS REFERENCE LISTING

   Value        Symbol                   Source file   Line number

           0    convert_and_move_row     report_writer_:      16.
           1    create_invocation        report_writer_:      17.
           2    define_columns           report_writer_:      18.
           3    destroy_invocation       report_writer_:      19.
                report_writer            report_writer_:      17,   19.
                rw_convert_and_move_row  report_writer_:      16.
                rw_define_columns        report_writer_:      18.
                rw_requests              report_writer_:      20.
                rw_table_manager         report_writer_:      21.
           4    set_report_writer_info_ptr     report_writer_:      20.
           5    set_table_manager        report_writer_:      21.


NO FATAL ERRORS


                                          -----------------------------------------------------------


Historical Background

This edition of the Multics software materials and documentation is provided and donated
to Massachusetts Institute of Technology by Group BULL including BULL HN Information Systems Inc.
as a contribution to computer science knowledge.
This donation is made also to give evidence of the common contributions of Massachusetts Institute of Technology,
Bell Laboratories, General Electric, Honeywell Information Systems Inc., Honeywell BULL Inc., Groupe BULL
and BULL HN Information Systems Inc. to the development of this operating system.
Multics development was initiated by Massachusetts Institute of Technology Project MAC (1963-1970),
renamed the MIT Laboratory for Computer Science and Artificial Intelligence in the mid 1970s, under the leadership
of Professor Fernando Jose Corbato. Users consider that Multics provided the best software architecture
for managing computer hardware properly and for executing programs. Many subsequent operating systems
incorporated Multics principles.
Multics was distributed in 1975 to 2000 by Group Bull in Europe , and in the U.S. by Bull HN Information Systems Inc.,
as successor in interest by change in name only to Honeywell Bull Inc. and Honeywell Information Systems Inc. .

                                          -----------------------------------------------------------

Permission to use, copy, modify, and distribute these programs and their documentation for any purpose and without
fee is hereby granted,provided that the below copyright notice and historical background appear in all copies
and that both the copyright notice and historical background and this permission notice appear in supporting
documentation, and that the names of MIT, HIS, BULL or BULL HN not be used in advertising or publicity pertaining
to distribution of the programs without specific prior written permission.
    Copyright 1972 by Massachusetts Institute of Technology and Honeywell Information Systems Inc.
    Copyright 2006 by BULL HN Information Systems Inc.
    Copyright 2006 by Bull SAS
    All Rights Reserved
