ASSEMBLY LISTING OF SEGMENT >dumps>old>recomp>runoff_.alm
ASSEMBLED ON:	11/04/82  1848.3 mst Thu
OPTIONS USED:	list
ASSEMBLED BY:	ALM Version  6.4  April 1981
ASSEMBLER CREATED:	11/03/82  1423.6 mst Wed

                                     1  " ***********************************************************
                                     2  " *                                                         *
                                     3  " * Copyright, (C) Honeywell Information Systems Inc., 1982 *
                                     4  " *                                                         *
                                     5  " * Copyright (c) 1972 by Massachusetts Institute of        *
                                     6  " * Technology and Honeywell Information Systems, Inc.      *
                                     7  " *                                                         *
                                     8  " ***********************************************************
                                     9
                                    10  "  Outer module transfer vector for the runoff_ dim.
                                    11  "  Last modified on 05/31/74 at 10:38:58 by R F Mabee.
                                    12  "  Converted for 6180 Multics in May 1973 by R F Mabee.
                                    13  "  First written for 645 Multics and installed in November 1971 by R F Mabee.
                                    14
                                    15  "  Copyright (c) 1974 by Massachusetts Institute of Technology and Honeywell Information Systems, Inc.
                                    16
                                    17  "  General permission is granted to copy and use this program, but not to sell it, provided that the above
                                    18  "  copyright statement is given.  Contact Information Processing Services, MIT, for further information.
                                    19  "  Please contact R F Mabee at MIT for information on this program and versions for other machines.
                                    20
                                    21
                        000000      22  	entry	runoff_module
    000000                          23  runoff_module:
    000000  aa   000025 1060 03     24  	cmpx6	entries,du	" Check range.
    000001  0a   000010 6020 16     25  	tnc	table,6		" Dispatch through table.
                                    26
    000002                          27  missent:
    000002  aa  0 00000 2361 00     28  	ldq	ap|0		" Arg count and flags.
    000003  4a  4 00010 2351 20     29  	lda	<error_table_>|[missent]
    000004  aa  0 00000 3521 22     30  	eppbp	ap|0,qu*
    000005  aa  2 00000 7551 00     31  	sta	bp|0
    000006  aa  2 00001 4501 00     32  	stz	bp|1
    000007  aa  7 00044 7101 20     33  	short_return
                                    34
    000010                          35  table:
    000010  4a  4 00012 7101 20     36  		tra	<runoff_dim>|[runoff_attach]
    000011  4a  4 00014 7101 20     37  		tra	<runoff_dim>|[runoff_detach]
    000012  0a   000002 7100 00     38  tra	missent "	tra	<runoff_dim>|[runoff_read]
    000013  4a  4 00016 7101 20     39  		tra	<runoff_dim>|[runoff_write]
    000014  0a   000002 7100 00     40  tra	missent "	tra	<runoff_dim>|[runoff_abort]
    000015  4a  4 00020 7101 20     41  		tra	<runoff_dim>|[runoff_order]
    000016  0a   000002 7100 00     42  tra	missent "	tra	<runoff_dim>|[runoff_resetread]
    000017  0a   000002 7100 00     43  tra	missent "	tra	<runoff_dim>|[runoff_resetwrite]
    000020  0a   000002 7100 00     44  tra	missent "	tra	<runoff_dim>|[runoff_setsize]
    000021  0a   000002 7100 00     45  tra	missent "	tra	<runoff_dim>|[runoff_getsize]
    000022  0a   000002 7100 00     46  tra	missent "	tra	<runoff_dim>|[runoff_setdelim]
    000023  0a   000002 7100 00     47  tra	missent "	tra	<runoff_dim>|[runoff_getdelim]
    000024  0a   000002 7100 00     48  tra	missent "	tra	<runoff_dim>|[runoff_seek]
    000025  0a   000002 7100 00     49  tra	missent "	tra	<runoff_dim>|[runoff_tell]
    000026  4a  4 00022 7101 20     50  		tra	<runoff_dim>|[runoff_changemode]
    000027  0a   000002 7100 00     51  tra	missent "	rem	this slot currentry unused
    000030  0a   000002 7100 00     52  tra	missent "	rem	this slot currently unused
    000031  0a   000002 7100 00     53  tra	missent "	rem	this slot currently unused
    000032  0a   000002 7100 00     54  tra	missent "	rem	this slot currently unused
    000033  0a   000002 7100 00     55  tra	missent "	tra	<runoff_dim>|[runoff_readsync]
    000034  0a   000002 7100 00     56  tra	missent "	tra	<runoff_dim>|[runoff_writesync]
                                    57
                        000025      58  	equ	entries,*-table
                                    59
                                    60  	end
ENTRY SEQUENCES

    000035  5a   000010 0000 00
    000036  aa  7 00046 2721 20
    000037  0a   000000 7100 00

NO LITERALS

NAME DEFINITIONS FOR ENTRY POINTS AND SEGDEFS

    000040  5a   000003 000000
    000041  5a   000026 600000
    000042  aa   000000 000000
    000043  55   000010 000002
    000044  5a   000002 400003
    000045  55   000006 000010
    000046  aa  007 162 165 156
    000047  aa  157 146 146 137
    000050  55   000017 000003
    000051  0a   000036 500000
    000052  55   000013 000003
    000053  aa  015 162 165 156         runoff_module
    000054  aa  157 146 146 137
    000055  aa  155 157 144 165
    000056  aa  154 145 000 000
    000057  55   000002 000010
    000060  6a   000000 400002
    000061  55   000022 000003
    000062  aa  014 163 171 155         symbol_table
    000063  aa  142 157 154 137
    000064  aa  164 141 142 154
    000065  aa  145 000 000 000

DEFINITIONS HASH TABLE

    000066  aa   000000 000015
    000067  aa   000000 000000
    000070  aa   000000 000000
    000071  aa   000000 000000
    000072  aa   000000 000000
    000073  aa   000000 000000
    000074  aa   000000 000000
    000075  5a   000017 000000
    000076  aa   000000 000000
    000077  aa   000000 000000
    000100  5a   000010 000000
    000101  aa   000000 000000
    000102  aa   000000 000000
    000103  aa   000000 000000

EXTERNAL NAMES

    000104  aa  021 162 165 156         runoff_changemode
    000105  aa  157 146 146 137
    000106  aa  143 150 141 156
    000107  aa  147 145 155 157
    000110  aa  144 145 000 000
    000111  aa  014 162 165 156         runoff_order
    000112  aa  157 146 146 137
    000113  aa  157 162 144 145
    000114  aa  162 000 000 000
    000115  aa  014 162 165 156         runoff_write
    000116  aa  157 146 146 137
    000117  aa  167 162 151 164
    000120  aa  145 000 000 000
    000121  aa  015 162 165 156         runoff_detach
    000122  aa  157 146 146 137
    000123  aa  144 145 164 141
    000124  aa  143 150 000 000
    000125  aa  015 162 165 156         runoff_attach
    000126  aa  157 146 146 137
    000127  aa  141 164 164 141
    000130  aa  143 150 000 000
    000131  aa  012 162 165 156         runoff_dim
    000132  aa  157 146 146 137
    000133  aa  144 151 155 000
    000134  aa  007 155 151 163         missent
    000135  aa  163 145 156 164
    000136  aa  014 145 162 162         error_table_
    000137  aa  157 162 137 164
    000140  aa  141 142 154 145
    000141  aa  137 000 000 000

NO TRAP POINTER WORDS

TYPE PAIR BLOCKS

    000142  aa   000004 000000
    000143  55   000071 000044
    000144  aa   000004 000000
    000145  55   000071 000051
    000146  aa   000004 000000
    000147  55   000071 000055
    000150  aa   000004 000000
    000151  55   000071 000061
    000152  aa   000004 000000
    000153  55   000071 000065
    000154  aa   000004 000000
    000155  55   000076 000074
    000156  aa   000001 000000
    000157  aa   000000 000000

INTERNAL EXPRESSION WORDS

    000160  5a   000102 000000
    000161  5a   000104 000000
    000162  5a   000106 000000
    000163  5a   000110 000000
    000164  5a   000112 000000
    000165  5a   000114 000000
LINKAGE INFORMATION

    000000  aa   000000 000000
    000001  0a   000040 000000
    000002  aa   000000 000000
    000003  aa   000000 000000
    000004  aa   000000 000000
    000005  aa   000000 000000
    000006  22   000010 000024
    000007  a2   000000 000000
    000010  9a   777770 0000 46         error_table_|missent
    000011  5a   000125 0000 00
    000012  9a   777766 0000 46         runoff_dim|runoff_attach
    000013  5a   000124 0000 00
    000014  9a   777764 0000 46         runoff_dim|runoff_detach
    000015  5a   000123 0000 00
    000016  9a   777762 0000 46         runoff_dim|runoff_write
    000017  5a   000122 0000 00
    000020  9a   777760 0000 46         runoff_dim|runoff_order
    000021  5a   000121 0000 00
    000022  9a   777756 0000 46         runoff_dim|runoff_changemode
    000023  5a   000120 0000 00
SYMBOL INFORMATION

SYMBOL TABLE HEADER

    000000  aa   000000 000001
    000001  aa   163171 155142
    000002  aa   164162 145145
    000003  aa   000000 000004
    000004  aa   000000 111316
    000005  aa   510113 575622
    000006  aa   000000 111320
    000007  aa   102144 732727
    000010  aa   141154 155040
    000011  aa   040040 040040
    000012  aa   000024 000040
    000013  aa   000034 000040
    000014  aa   000044 000100
    000015  aa   000002 000002
    000016  aa   000064 000000
    000017  aa   000000 000124
    000020  aa   000000 000102
    000021  aa   000000 000111
    000022  aa   000116 000102
    000023  aa   000064 000000
    000024  aa   101114 115040
    000025  aa   126145 162163
    000026  aa   151157 156040
    000027  aa   040066 056064
    000030  aa   040040 101160
    000031  aa   162151 154040
    000032  aa   061071 070061
    000033  aa   040040 040040
    000034  aa   110157 154155
    000035  aa   163164 145144
    000036  aa   164056 123171
    000037  aa   163115 141151
    000040  aa   156164 056155
    000041  aa   040040 040040
    000042  aa   040040 040040
    000043  aa   040040 040040
    000044  aa   154151 163164
    000045  aa   040040 040040
    000046  aa   040040 040040
    000047  aa   040040 040040
    000050  aa   040040 040040
    000051  aa   040040 040040
    000052  aa   040040 040040
    000053  aa   040040 040040
    000054  aa   040040 040040
    000055  aa   040040 040040
    000056  aa   040040 040040
    000057  aa   040040 040040
    000060  aa   040040 040040
    000061  aa   040040 040040
    000062  aa   040040 040040
    000063  aa   040040 040040
    000064  aa   000000 000001
    000065  aa   000000 000001
    000066  aa   000072 000035
    000067  aa   113171 051076
    000070  aa   000000 111320
    000071  aa   005265 400000
    000072  aa   076144 165155          >dumps>old>recomp>runoff_.alm
    000073  aa   160163 076157
    000074  aa   154144 076162
    000075  aa   145143 157155
    000076  aa   160076 162165
    000077  aa   156157 146146
    000100  aa   137056 141154
    000101  aa   155040 040040
               MULTICS ASSEMBLY CROSS REFERENCE LISTING

   Value        Symbol                   Source file   Line number

          25    entries                  runoff_:       24,   58.
                error_table_             runoff_:       29.
           2    missent                  runoff_:       27,   29,   38,   40,   42,   43,   44,   45,   46,   47,   48,   49,
                                                        51,   52,   53,   54,   55,   56.
                runoff_attach            runoff_:       36.
                runoff_changemode        runoff_:       50.
                runoff_detach            runoff_:       37.
                runoff_dim               runoff_:       36,   37,   39,   41,   50.
           0    runoff_module            runoff_:       22,   23.
                runoff_order             runoff_:       41.
                runoff_write             runoff_:       39.
          10    table                    runoff_:       25,   35,   58.


NO FATAL ERRORS


                                          -----------------------------------------------------------


Historical Background

This edition of the Multics software materials and documentation is provided and donated
to Massachusetts Institute of Technology by Group BULL including BULL HN Information Systems Inc.
as a contribution to computer science knowledge.
This donation is made also to give evidence of the common contributions of Massachusetts Institute of Technology,
Bell Laboratories, General Electric, Honeywell Information Systems Inc., Honeywell BULL Inc., Groupe BULL
and BULL HN Information Systems Inc. to the development of this operating system.
Multics development was initiated by Massachusetts Institute of Technology Project MAC (1963-1970),
renamed the MIT Laboratory for Computer Science and Artificial Intelligence in the mid 1970s, under the leadership
of Professor Fernando Jose Corbato. Users consider that Multics provided the best software architecture
for managing computer hardware properly and for executing programs. Many subsequent operating systems
incorporated Multics principles.
Multics was distributed in 1975 to 2000 by Group Bull in Europe , and in the U.S. by Bull HN Information Systems Inc.,
as successor in interest by change in name only to Honeywell Bull Inc. and Honeywell Information Systems Inc. .

                                          -----------------------------------------------------------

Permission to use, copy, modify, and distribute these programs and their documentation for any purpose and without
fee is hereby granted,provided that the below copyright notice and historical background appear in all copies
and that both the copyright notice and historical background and this permission notice appear in supporting
documentation, and that the names of MIT, HIS, BULL or BULL HN not be used in advertising or publicity pertaining
to distribution of the programs without specific prior written permission.
    Copyright 1972 by Massachusetts Institute of Technology and Honeywell Information Systems Inc.
    Copyright 2006 by BULL HN Information Systems Inc.
    Copyright 2006 by Bull SAS
    All Rights Reserved
