ASSEMBLY LISTING OF SEGMENT >special_ldd>install>MR12.0-1206>rw_error_.alm
ASSEMBLED ON:	11/05/86  1038.2 mst Wed
OPTIONS USED:	list
ASSEMBLED BY:	ALM Version  6.7  October 1986
ASSEMBLER CREATED:	10/08/86  1557.5 mst Wed

                                     1  "  ***********************************************************
                                     2  "  *                                                         *
                                     3  "  *                                                         *
                                     4  "  * Copyright, (C) Honeywell Information Systems Inc., 1984 *
                                     5  "  *                                                         *
                                     6  "  *                                                         *
                                     7  "  ***********************************************************
                                     8
                                     9  " report_writer_ Error Table
                                    10  " Written - Al Dupuis - October 1984
                                    11
                                    12  	include	et_macros
                                   1-1  " Begin include file ...... et_macros.incl.alm
                                   1-2  "	Written 6/15/77 by Noel I. Morris
                                   1-3  "	Modified '82 so error code entries are in first page of segment.
                                   1-4
                                   1-5  " This include file contains macros for generating error tables
                                   1-6  " for both system and non-system use.
                                   1-7
                                   1-8  " ET MACRO
                                   1-9  "
                                  1-10  " This macro is used to initialize the error table for either
                                  1-11  " system or non-system use.  It is invoked at the beginning of
                                  1-12  " the error table as follows:
                                  1-13  "
                                  1-14  "	et	table_name{,system}
                                  1-15  "
                                  1-16
                                  1-17  macro	et
                              1   1-18  	maclist	on
                              2   1-19
                              3   1-20  	name	&1
                              4   1-21
                              5   1-22  &^=&2,system&[
                              6   1-23
                              7   1-24  	include	stack_header
                              8   1-25
                              9   1-26  
                             10   1-27
                             11   1-28  	use	codes
                             12   1-29  .code_start:
                             13   1-30
                             14   1-31  	use	past_codes
                             15   1-32  .code_end:
                             16   1-33
                             17   1-34  	join	/link/codes,past_codes
                             18   1-35
                             19   1-36  	use	messages
                             20   1-37
                             21   1-38  .trapproc:
                             22   1-39  	epaq	0,ic
                             23   1-40  	eax0	0,au
                             24   1-41  	epbpsb	sp|0
                             25   1-42  	lprplp	sb|stack_header.lot_ptr,*au
                             26   1-43  	eax1	.code_start
                             27   1-44  .loop:	stx0	lp|0,x1
                             28   1-45  	eax1	1,x1
                             29   1-46  	cmpx1	.code_end,du
                             30   1-47  	tmi	.loop-*,ic
                             31   1-48  	short_return
                             32   1-49
                             33   1-50  	firstref	<*text>|.trapproc
                             34   1-51
                             35   1-52  &;	use	codes
                             36   1-53  	use	messages
                             37   1-54
                             38   1-55  	join	/text/codes,messages
                             39   1-56
                             40   1-57  &]
                             41   1-58
                             42   1-59  	bool	.segno,77777
                             43   1-60
                             44   1-61  	maclist	off
                             45   1-62
                             46   1-63  	&end
                                  1-64
                                  1-65  
                                  1-66
                                  1-67  " EC MACRO
                                  1-68  "
                                  1-69  " This macro is used to define an error code as shown:
                                  1-70  "
                                  1-71  "	ec	name,{short_mess},(long_mess)
                                  1-72  "
                                  1-73  " If more than a single name is to be defined for a given message,
                                  1-74  " a list of names separated by commas and enclosed in parentheses
                                  1-75  " must be given.   short_mess must be 8 or less characters.  If omitted,
                                  1-76  " the short_mess will be set to the name.  long_mess is enclosed
                                  1-77  " in parentheses in order to cause ALM to ignore embedded blanks.  Please
                                  1-78  " note that double quote characters in either short_mess or long_mess
                                  1-79  " must be doubled in order to make the ALM assembly work properly.
                                  1-80  " Note that a macro invocation line terminated by a comma will cause that
                                  1-81  " statement to be continued on the next line.
                                  1-82
                                  1-83  macro	ec
                              1   1-84  	use	codes
                              2   1-85
                              3   1-86  	maclist	on,save
                              4   1-87  &(1	segdef  &i
                              5   1-88  &)	maclist	restore
                              6   1-89  &(1&i:
                              7   1-90  &)	maclist	object,save
                              8   1-91  	zero	.segno,&U
                              9   1-92  	maclist	restore
                             10   1-93  	use	messages
                             11   1-94  &^=&l2,0&[	shortname    &2
                             12   1-95  &;	shortname    &1
                             13   1-96  &]
                             14   1-97  &U:
                             15   1-98  	maclist	on,save
                             16   1-99  	acc  "&3"
                             17  1-100
                             18  1-101  	maclist	restore
                             19  1-102  	&end
                                 1-103
                                 1-104  macro	shortname
                              1  1-105  	maclist	on,save
                              2  1-106  	aci  "&1",8
                              3  1-107  	maclist	restore
                              4  1-108  	&end
                                 1-109
                                 1-110  
                                 1-111
                                 1-112  " A typical error table source program might have the following format:
                                 1-113  "
                                 1-114  "	include	et_macros
                                 1-115  "
                                 1-116  "	et	name_of_error_table
                                 1-117  "
                                 1-118  "	ec	error_code_1,ecode1,(This is error code 1.)
                                 1-119  "
                                 1-120  "	ec	error_code_2,ecode2,(This is error code 2.)
                                 1-121  "
                                 1-122  "	:	     :	      :		:
                                 1-123  "
                                 1-124  "	ec	error_code_n,ecoden,(This is the nth error code.)
                                 1-125  "
                                 1-126  "	end
                                 1-127  "
                                 1-128
                                 1-129  " End of include file ...... et_macros.incl.alm
                                 1-130
                                    13  	et	rw_error_

    000000                              	name	rw_error_


                                        	include	stack_header
                                   2-1  "	BEGIN INCLUDE FILE ... stack_header.incl.alm  3/72  Bill Silver
                                   2-2  "
                                   2-3  "	modified 7/76 by M. Weaver for *system links and more system use of areas
                                   2-4  "	modified 3/77 by M. Weaver  to add rnt_ptr
                                   2-5  "	modified 7/77 by S. Webber to add run_unit_depth and assign_linkage_ptr
                                   2-6  "	modified 6/83 by J. Ives to add trace_frames and in_trace.
                                   2-7
                                   2-8  " HISTORY COMMENTS:
                                   2-9  "  1) change(86-06-24,DGHowe), approve(86-06-24,MCR7396),
                                  2-10  "     audit(86-08-05,Schroth), install(86-11-03,MR12.0-1206):
                                  2-11  "     added the heap_header_ptr definition
                                  2-12  "  2) change(86-08-12,Kissel), approve(86-08-12,MCR7473),
                                  2-13  "     audit(86-10-10,Fawcett), install(86-11-03,MR12.0-1206):
                                  2-14  "     Modified to support control point management.  These changes were
                                  2-15  "     actually made in February 1985 by G. Palter.
                                  2-16  "  3) change(86-10-22,Fawcett), approve(86-10-22,MCR7473),
                                  2-17  "     audit(86-10-22,Farley), install(86-11-03,MR12.0-1206):
                                  2-18  "     Remove the old_lot pointer and replace it with cpm_data_ptr. Use the 18
                                  2-19  "     bit pad after cur_lot_size for the cpm_enabled. This was done to save
                                  2-20  "     some space int the stack header and change the cpd_ptr unal to
                                  2-21  "     cpm_data_ptr (ITS pair).
                                  2-22  "                                                      END HISTORY COMMENTS
                                  2-23
                        000004    2-24  	equ	stack_header.cpm_data_ptr,4		ptr to control point for this stack
                        000006    2-25  	equ	stack_header.combined_stat_ptr,6	ptr to separate static area
                                  2-26
                        000010    2-27  	equ	stack_header.clr_ptr,8		ptr to area containing linkage sections
                        000012    2-28  	equ	stack_header.max_lot_size,10		number of words allowed in lot (DU)
                        000012    2-29  	equ	stack_header.main_proc_invoked,10	nonzero if main proc was invoked in run unit (DL)
                        000012    2-30  	equ	stack_header.run_unit_depth,10	number of active run units stacked (DL)
                        000013    2-31  	equ	stack_header.cur_lot_size,11		DU number of words (entries) in lot
                        000013    2-32            equ	stack_header.cpm_enabled,11		DL  non-zero if control point management is enabled
                        000014    2-33  	equ	stack_header.system_free_ptr,12	ptr to system storage area
                        000016    2-34  	equ	stack_header.user_free_ptr,14		ptr to user storage area
                                  2-35
                        000020    2-36  	equ	stack_header.parent_ptr,16		ptr to parent stack or null
                        000022    2-37  	equ	stack_header.stack_begin_ptr,18	ptr to first stack frame
                        000024    2-38  	equ	stack_header.stack_end_ptr,20		ptr to next useable stack frame
                        000026    2-39  	equ	stack_header.lot_ptr,22		ptr to the lot for the current ring
                                  2-40
                        000030    2-41  	equ	stack_header.signal_ptr,24		ptr to signal proc for current ring
                        000032    2-42  	equ	stack_header.bar_mode_sp,26		value of sp before entering bar mode
                        000034    2-43  	equ	stack_header.pl1_operators_ptr,28	ptr: pl1_operators_$operator_table
                        000036    2-44  	equ	stack_header.call_op_ptr,30		ptr to standard call operator
                                  2-45
                        000040    2-46  	equ	stack_header.push_op_ptr,32		ptr to standard push operator
                        000042    2-47  	equ	stack_header.return_op_ptr,34		ptr to standard return operator
                        000044    2-48  	equ	stack_header.ret_no_pop_op_ptr,36	ptr: stand. return/ no pop operator
                        000046    2-49  	equ	stack_header.entry_op_ptr,38		ptr to standard entry operator
                                  2-50
                        000050    2-51  	equ	stack_header.trans_op_tv_ptr,40	ptr to table of translator operator ptrs
                        000052    2-52  	equ	stack_header.isot_ptr,42		pointer to ISOT
                        000054    2-53  	equ	stack_header.sct_ptr,44		pointer to System Condition Table
                        000056    2-54  	equ	stack_header.unwinder_ptr,46		pointer to unwinder for current ring
                                  2-55
                        000060    2-56  	equ	stack_header.sys_link_info_ptr,48	ptr to *system link name table
                        000062    2-57  	equ	stack_header.rnt_ptr,50		ptr to reference name table
                        000064    2-58  	equ	stack_header.ect_ptr,52		ptr to event channel table
                        000066    2-59  	equ	stack_header.assign_linkage_ptr,54	ptr to area for hcs_$assign_linkage calls
                        000070    2-60  	equ	stack_header.heap_header_ptr,56	ptr to heap header.
                        000072    2-61  	equ	stack_header.trace_frames,58		stack of trace_catch_ frames
                        000073    2-62  	equ	stach_header.trace_top_ptr,59		trace pointer
                        000074    2-63  	equ	stack_header.in_trace,60		trace antirecurse bit
                        000100    2-64  	equ	stack_header_end,64			length of stack header
                                  2-65
                                  2-66
                                  2-67
                                  2-68
                        000000    2-69  	equ	trace_frames.count,0		number of trace frames on stack
                        000001    2-70  	equ	trace_frames.top_ptr,1		packed pointer to top one
                                  2-71
                                  2-72  "	The  following constant is an offset within the  pl1  operators table.
                                  2-73  "	It  references a  transfer vector table.
                                  2-74
                        000551    2-75  	bool	tv_offset,551
                                  2-76
                                  2-77
                                  2-78  "	The  following constants are offsets within this transfer vector table.
                                  2-79
                        001170    2-80  	equ	call_offset,tv_offset+271
                        001171    2-81  	equ	push_offset,tv_offset+272
                        001172    2-82  	equ	return_offset,tv_offset+273
                        001173    2-83  	equ	return_no_pop_offset,tv_offset+274
                        001174    2-84  	equ	entry_offset,tv_offset+275
                                  2-85
                                  2-86
                                  2-87  " 	END INCLUDE FILE stack_header.incl.alm

                                        

                                        	use	codes
    000010                              .code_start:

                                        	use	past_codes
    000025                              .code_end:

                                        	join	/link/codes,past_codes

                                        	use	messages

    000000                              .trapproc:
    000000  aa   000000 2130 04         	epaq	0,ic
    000001  aa   000000 6200 01         	eax0	0,au
    000002  aa  6 00000 3731 00         	epbpsb	sp|0
    000003  aa  7 00026 7641 61         	lprplp	sb|stack_header.lot_ptr,*au
    000004  8a   000010 6210 00         	eax1	.code_start
    000005  aa  4 00000 7401 11         .loop:	stx0	lp|0,x1
    000006  aa   000001 6210 11         	eax1	1,x1
    000007  8a   000025 1010 03         	cmpx1	.code_end,du
    000010  aa   777775 6040 04         	tmi	.loop-*,ic
    000011  aa  7 00044 7101 20         	short_return

    000012                              	firstref	<*text>|.trapproc


                        077777          	bool	.segno,77777

                                    14
                                    15  ec bad_fkey_name,badfname,
                                    16  	(An unacceptable scroll function name has been used.)
                        000010          	segdef  bad_fkey_name
    000010  a0   077777 000014
    000012  aa  142 141 144 146         	aci  "badfname",8
    000013  aa  156 141 155 145
    000014  aa  063 101 156 040         	acc  "An unacceptable scroll function name has been used."
    000015  aa  165 156 141 143
    000016  aa  143 145 160 164
    000017  aa  141 142 154 145
    000020  aa  040 163 143 162
    000021  aa  157 154 154 040
    000022  aa  146 165 156 143
    000023  aa  164 151 157 156
    000024  aa  040 156 141 155
    000025  aa  145 040 150 141
    000026  aa  163 040 142 145
    000027  aa  145 156 040 165
    000030  aa  163 145 144 056

                                    17  ec bad_fkey_sequence,badfseq,
                                    18  	(An unacceptable function key sequence has been used.)
                        000011          	segdef  bad_fkey_sequence
    000011  a0   077777 000033
    000031  aa  142 141 144 146         	aci  "badfseq",8
    000032  aa  163 145 161 040
    000033  aa  064 101 156 040         	acc  "An unacceptable function key sequence has been used."
    000034  aa  165 156 141 143
    000035  aa  143 145 160 164
    000036  aa  141 142 154 145
    000037  aa  040 146 165 156
    000040  aa  143 164 151 157
    000041  aa  156 040 153 145
    000042  aa  171 040 163 145
    000043  aa  161 165 145 156
    000044  aa  143 145 040 150
    000045  aa  141 163 040 142
    000046  aa  145 145 156 040
    000047  aa  165 163 145 144
    000050  aa  056 000 000 000

                                    19  ec bad_option_identifier,badoi,
                                    20  	(An unacceptable option identifier has been used.)
                        000012          	segdef  bad_option_identifier
    000012  a0   077777 000053
    000051  aa  142 141 144 157         	aci  "badoi",8
    000052  aa  151 040 040 040
    000053  aa  060 101 156 040         	acc  "An unacceptable option identifier has been used."
    000054  aa  165 156 141 143
    000055  aa  143 145 160 164
    000056  aa  141 142 154 145
    000057  aa  040 157 160 164
    000060  aa  151 157 156 040
    000061  aa  151 144 145 156
    000062  aa  164 151 146 151
    000063  aa  145 162 040 150
    000064  aa  141 163 040 142
    000065  aa  145 145 156 040
    000066  aa  165 163 145 144
    000067  aa  056 000 000 000

                                    21  ec bad_option_name,badon,
                                    22  	(An unacceptable option name has been used.)
                        000013          	segdef  bad_option_name
    000013  a0   077777 000072
    000070  aa  142 141 144 157         	aci  "badon",8
    000071  aa  156 040 040 040
    000072  aa  052 101 156 040         	acc  "An unacceptable option name has been used."
    000073  aa  165 156 141 143
    000074  aa  143 145 160 164
    000075  aa  141 142 154 145
    000076  aa  040 157 160 164
    000077  aa  151 157 156 040
    000100  aa  156 141 155 145
    000101  aa  040 150 141 163
    000102  aa  040 142 145 145
    000103  aa  156 040 165 163
    000104  aa  145 144 056 000

                                    23  ec bad_option_value,badov,
                                    24  	(An unacceptable option value has been used.)
                        000014          	segdef  bad_option_value
    000014  a0   077777 000107
    000105  aa  142 141 144 157         	aci  "badov",8
    000106  aa  166 040 040 040
    000107  aa  053 101 156 040         	acc  "An unacceptable option value has been used."
    000110  aa  165 156 141 143
    000111  aa  143 145 160 164
    000112  aa  141 142 154 145
    000113  aa  040 157 160 164
    000114  aa  151 157 156 040
    000115  aa  166 141 154 165
    000116  aa  145 040 150 141
    000117  aa  163 040 142 145
    000120  aa  145 156 040 165
    000121  aa  163 145 144 056

                                    25  ec bad_report_display,badrpdi,
                                    26  	(An error has occured while displaying the report.)
                        000015          	segdef  bad_report_display
    000015  a0   077777 000124
    000122  aa  142 141 144 162         	aci  "badrpdi",8
    000123  aa  160 144 151 040
    000124  aa  061 101 156 040         	acc  "An error has occured while displaying the report."
    000125  aa  145 162 162 157
    000126  aa  162 040 150 141
    000127  aa  163 040 157 143
    000130  aa  143 165 162 145
    000131  aa  144 040 167 150
    000132  aa  151 154 145 040
    000133  aa  144 151 163 160
    000134  aa  154 141 171 151
    000135  aa  156 147 040 164
    000136  aa  150 145 040 162
    000137  aa  145 160 157 162
    000140  aa  164 056 000 000

                                    27  ec bad_report_format,badrpfmt,
                                    28  	(An error has occurred while formatting the report.)
                        000016          	segdef  bad_report_format
    000016  a0   077777 000143
    000141  aa  142 141 144 162         	aci  "badrpfmt",8
    000142  aa  160 146 155 164
    000143  aa  062 101 156 040         	acc  "An error has occurred while formatting the report."
    000144  aa  145 162 162 157
    000145  aa  162 040 150 141
    000146  aa  163 040 157 143
    000147  aa  143 165 162 162
    000150  aa  145 144 040 167
    000151  aa  150 151 154 145
    000152  aa  040 146 157 162
    000153  aa  155 141 164 164
    000154  aa  151 156 147 040
    000155  aa  164 150 145 040
    000156  aa  162 145 160 157
    000157  aa  162 164 056 000

                                    29  ec bad_report_setup,badrpstp,
                                    30  	(An error has occurred while setting up the report.)
                        000017          	segdef  bad_report_setup
    000017  a0   077777 000162
    000160  aa  142 141 144 162         	aci  "badrpstp",8
    000161  aa  160 163 164 160
    000162  aa  062 101 156 040         	acc  "An error has occurred while setting up the report."
    000163  aa  145 162 162 157
    000164  aa  162 040 150 141
    000165  aa  163 040 157 143
    000166  aa  143 165 162 162
    000167  aa  145 144 040 167
    000170  aa  150 151 154 145
    000171  aa  040 163 145 164
    000172  aa  164 151 156 147
    000173  aa  040 165 160 040
    000174  aa  164 150 145 040
    000175  aa  162 145 160 157
    000176  aa  162 164 056 000

                                    31  ec logic_error,logicerr,
                                    32  	(A logic error has occurred during execution of a program.)
                        000020          	segdef  logic_error
    000020  a0   077777 000201
    000177  aa  154 157 147 151         	aci  "logicerr",8
    000200  aa  143 145 162 162
    000201  aa  071 101 040 154         	acc  "A logic error has occurred during execution of a program."
    000202  aa  157 147 151 143
    000203  aa  040 145 162 162
    000204  aa  157 162 040 150
    000205  aa  141 163 040 157
    000206  aa  143 143 165 162
    000207  aa  162 145 144 040
    000210  aa  144 165 162 151
    000211  aa  156 147 040 145
    000212  aa  170 145 143 165
    000213  aa  164 151 157 156
    000214  aa  040 157 146 040
    000215  aa  141 040 160 162
    000216  aa  157 147 162 141
    000217  aa  155 056 000 000

                                    33  ec no_columns_defined,nocols,
                                    34  	(No columns have been selected yet.)
                        000021          	segdef  no_columns_defined
    000021  a0   077777 000222
    000220  aa  156 157 143 157         	aci  "nocols",8
    000221  aa  154 163 040 040
    000222  aa  042 116 157 040         	acc  "No columns have been selected yet."
    000223  aa  143 157 154 165
    000224  aa  155 156 163 040
    000225  aa  150 141 166 145
    000226  aa  040 142 145 145
    000227  aa  156 040 163 145
    000230  aa  154 145 143 164
    000231  aa  145 144 040 171
    000232  aa  145 164 056 000

                                    35  ec no_data,nodata,
                                    36  	(No data was found that satisfied the search.)
                        000022          	segdef  no_data
    000022  a0   077777 000235
    000233  aa  156 157 144 141         	aci  "nodata",8
    000234  aa  164 141 040 040
    000235  aa  054 116 157 040         	acc  "No data was found that satisfied the search."
    000236  aa  144 141 164 141
    000237  aa  040 167 141 163
    000240  aa  040 146 157 165
    000241  aa  156 144 040 164
    000242  aa  150 141 164 040
    000243  aa  163 141 164 151
    000244  aa  163 146 151 145
    000245  aa  144 040 164 150
    000246  aa  145 040 163 145
    000247  aa  141 162 143 150
    000250  aa  056 000 000 000

                                    37  ec no_report,norpt,
                                    38  	(There is no report currently in progress.)
                        000023          	segdef  no_report
    000023  a0   077777 000253
    000251  aa  156 157 162 160         	aci  "norpt",8
    000252  aa  164 040 040 040
    000253  aa  051 124 150 145         	acc  "There is no report currently in progress."
    000254  aa  162 145 040 151
    000255  aa  163 040 156 157
    000256  aa  040 162 145 160
    000257  aa  157 162 164 040
    000260  aa  143 165 162 162
    000261  aa  145 156 164 154
    000262  aa  171 040 151 156
    000263  aa  040 160 162 157
    000264  aa  147 162 145 163
    000265  aa  163 056 000 000

                                    39  ec no_ssu_ptr_match,nossupm,
                                    40  	(No match with the supplied ssu_ info pointer.)
                        000024          	segdef  no_ssu_ptr_match
    000024  a0   077777 000270
    000266  aa  156 157 163 163         	aci  "nossupm",8
    000267  aa  165 160 155 040
    000270  aa  055 116 157 040         	acc  "No match with the supplied ssu_ info pointer."
    000271  aa  155 141 164 143
    000272  aa  150 040 167 151
    000273  aa  164 150 040 164
    000274  aa  150 145 040 163
    000275  aa  165 160 160 154
    000276  aa  151 145 144 040
    000277  aa  163 163 165 137
    000300  aa  040 151 156 146
    000301  aa  157 040 160 157
    000302  aa  151 156 164 145
    000303  aa  162 056 000 000

                                    41  	end

NO LITERALS

NAME DEFINITIONS FOR ENTRY POINTS AND SEGDEFS

    000304  5a   000003 000000
    000305  5a   000160 600000
    000306  aa   000000 000000
    000307  55   000011 000002
    000310  5a   000002 400003
    000311  55   000006 000011
    000312  aa  011 162 167 137
    000313  aa  145 162 162 157
    000314  aa  162 137 000 000
    000315  55   000021 000003
    000316  2a   000024 400001
    000317  55   000014 000003
    000320  aa  020 156 157 137         no_ssu_ptr_match
    000321  aa  163 163 165 137
    000322  aa  160 164 162 137
    000323  aa  155 141 164 143
    000324  aa  150 000 000 000
    000325  55   000027 000011
    000326  2a   000023 400001
    000327  55   000024 000003
    000330  aa  011 156 157 137         no_report
    000331  aa  162 145 160 157
    000332  aa  162 164 000 000
    000333  55   000034 000021
    000334  2a   000022 400001
    000335  55   000032 000003
    000336  aa  007 156 157 137         no_data
    000337  aa  144 141 164 141
    000340  55   000044 000027
    000341  2a   000021 400001
    000342  55   000037 000003
    000343  aa  022 156 157 137         no_columns_defined
    000344  aa  143 157 154 165
    000345  aa  155 156 163 137
    000346  aa  144 145 146 151
    000347  aa  156 145 144 000
    000350  55   000052 000034
    000351  2a   000020 400001
    000352  55   000047 000003
    000353  aa  013 154 157 147         logic_error
    000354  aa  151 143 137 145
    000355  aa  162 162 157 162
    000356  55   000062 000044
    000357  2a   000017 400001
    000360  55   000055 000003
    000361  aa  020 142 141 144         bad_report_setup
    000362  aa  137 162 145 160
    000363  aa  157 162 164 137
    000364  aa  163 145 164 165
    000365  aa  160 000 000 000
    000366  55   000072 000052
    000367  2a   000016 400001
    000370  55   000065 000003
    000371  aa  021 142 141 144         bad_report_format
    000372  aa  137 162 145 160
    000373  aa  157 162 164 137
    000374  aa  146 157 162 155
    000375  aa  141 164 000 000
    000376  55   000102 000062
    000377  2a   000015 400001
    000400  55   000075 000003
    000401  aa  022 142 141 144         bad_report_display
    000402  aa  137 162 145 160
    000403  aa  157 162 164 137
    000404  aa  144 151 163 160
    000405  aa  154 141 171 000
    000406  55   000112 000072
    000407  2a   000014 400001
    000410  55   000105 000003
    000411  aa  020 142 141 144         bad_option_value
    000412  aa  137 157 160 164
    000413  aa  151 157 156 137
    000414  aa  166 141 154 165
    000415  aa  145 000 000 000
    000416  55   000121 000102
    000417  2a   000013 400001
    000420  55   000115 000003
    000421  aa  017 142 141 144         bad_option_name
    000422  aa  137 157 160 164
    000423  aa  151 157 156 137
    000424  aa  156 141 155 145
    000425  55   000132 000112
    000426  2a   000012 400001
    000427  55   000124 000003
    000430  aa  025 142 141 144         bad_option_identifier
    000431  aa  137 157 160 164
    000432  aa  151 157 156 137
    000433  aa  151 144 145 156
    000434  aa  164 151 146 151
    000435  aa  145 162 000 000
    000436  55   000142 000121
    000437  2a   000011 400001
    000440  55   000135 000003
    000441  aa  021 142 141 144         bad_fkey_sequence
    000442  aa  137 146 153 145
    000443  aa  171 137 163 145
    000444  aa  161 165 145 156
    000445  aa  143 145 000 000
    000446  55   000151 000132
    000447  2a   000010 400001
    000450  55   000145 000003
    000451  aa  015 142 141 144         bad_fkey_name
    000452  aa  137 146 153 145
    000453  aa  171 137 156 141
    000454  aa  155 145 000 000
    000455  55   000002 000142
    000456  6a   000000 400002
    000457  55   000154 000003
    000460  aa  014 163 171 155         symbol_table
    000461  aa  142 157 154 137
    000462  aa  164 141 142 154
    000463  aa  145 000 000 000

DEFINITIONS HASH TABLE

    000464  aa   000000 000033
    000465  aa   000000 000000
    000466  aa   000000 000000
    000467  5a   000072 000000
    000470  5a   000062 000000
    000471  5a   000021 000000
    000472  5a   000052 000000
    000473  5a   000027 000000
    000474  5a   000102 000000
    000475  5a   000044 000000
    000476  5a   000112 000000
    000477  5a   000132 000000
    000500  5a   000142 000000
    000501  5a   000151 000000
    000502  aa   000000 000000
    000503  aa   000000 000000
    000504  aa   000000 000000
    000505  aa   000000 000000
    000506  aa   000000 000000
    000507  aa   000000 000000
    000510  aa   000000 000000
    000511  aa   000000 000000
    000512  aa   000000 000000
    000513  5a   000034 000000
    000514  aa   000000 000000
    000515  5a   000011 000000
    000516  aa   000000 000000
    000517  5a   000121 000000

NO EXTERNAL NAMES

NO TRAP POINTER WORDS

TYPE PAIR BLOCKS

    000520  aa   000001 000000
    000521  aa   000000 000000

INTERNAL EXPRESSION WORDS

    000522  50   000214 000000
    000523  aa   000000 000000
LINKAGE INFORMATION

    000000  aa   000000 000000
    000001  02   000304 000030
    000002  aa   000000 000000
    000003  aa   000000 000000
    000004  aa   000000 000000
    000005  aa   000000 000000
    000006  22   000026 000033
    000007  a2   000000 000016
    000026  9a   777752 0000 46         *text|
    000027  5a   000216 0000 00

FIRST REFERENCE TRAP LIST

    000030  aa   000000 000001
    000031  aa   000000 000001
    000032  2a   000026 000000
    000033  aa   000000 000000
SYMBOL INFORMATION

SYMBOL TABLE HEADER

    000000  aa   000000 000001
    000001  aa   163171 155142
    000002  aa   164162 145145
    000003  aa   000000 000004
    000004  aa   000000 114732
    000005  aa   732732 062314
    000006  aa   000000 114775
    000007  aa   664511 076664
    000010  aa   141154 155040
    000011  aa   040040 040040
    000012  aa   000024 000040
    000013  aa   000034 000040
    000014  aa   000044 000100
    000015  aa   000002 000002
    000016  aa   000064 000000
    000017  aa   000000 000200
    000020  aa   000000 000144
    000021  aa   000000 000162
    000022  aa   000170 000144
    000023  aa   000064 000000
    000024  aa   101114 115040
    000025  aa   126145 162163
    000026  aa   151157 156040
    000027  aa   040066 056067
    000030  aa   040040 117143
    000031  aa   164157 142145
    000032  aa   162040 061071
    000033  aa   070066 040040
    000034  aa   107112 157150
    000035  aa   156163 157156
    000036  aa   056123 171163
    000037  aa   115141 151156
    000040  aa   164056 141040
    000041  aa   040040 040040
    000042  aa   040040 040040
    000043  aa   040040 040040
    000044  aa   154151 163164
    000045  aa   040040 040040
    000046  aa   040040 040040
    000047  aa   040040 040040
    000050  aa   040040 040040
    000051  aa   040040 040040
    000052  aa   040040 040040
    000053  aa   040040 040040
    000054  aa   040040 040040
    000055  aa   040040 040040
    000056  aa   040040 040040
    000057  aa   040040 040040
    000060  aa   040040 040040
    000061  aa   040040 040040
    000062  aa   040040 040040
    000063  aa   040040 040040
    000064  aa   000000 000001
    000065  aa   000000 000003
    000066  aa   000102 000056
    000067  aa   147740 446066
    000070  aa   000000 114774
    000071  aa   460653 400000
    000072  aa   000116 000037
    000073  aa   120665 316464
    000074  aa   000000 112067
    000075  aa   253504 600000
    000076  aa   000126 000066
    000077  aa   147714 750316
    000100  aa   000000 114774
    000101  aa   453561 000000
    000102  aa   076163 160145          >special_ldd>install>MR12.0-1206>rw_error_.alm
    000103  aa   143151 141154
    000104  aa   137154 144144
    000105  aa   076151 156163
    000106  aa   164141 154154
    000107  aa   076115 122061
    000110  aa   062056 060055
    000111  aa   061062 060066
    000112  aa   076162 167137
    000113  aa   145162 162157
    000114  aa   162137 056141
    000115  aa   154155 040040
    000116  aa   076154 144144          >ldd>include>et_macros.incl.alm
    000117  aa   076151 156143
    000120  aa   154165 144145
    000121  aa   076145 164137
    000122  aa   155141 143162
    000123  aa   157163 056151
    000124  aa   156143 154056
    000125  aa   141154 155040
    000126  aa   076163 160145          >special_ldd>install>MR12.0-1206>stack_header.incl.alm
    000127  aa   143151 141154
    000130  aa   137154 144144
    000131  aa   076151 156163
    000132  aa   164141 154154
    000133  aa   076115 122061
    000134  aa   062056 060055
    000135  aa   061062 060066
    000136  aa   076163 164141
    000137  aa   143153 137150
    000140  aa   145141 144145
    000141  aa   162056 151156
    000142  aa   143154 056141
    000143  aa   154155 040040
               MULTICS ASSEMBLY CROSS REFERENCE LISTING

   Value        Symbol                   Source file   Line number

                *text                    rw_error_:     13.
          14    .._00000                 rw_error_:     16.
          33    .._00001                 rw_error_:     18.
          53    .._00002                 rw_error_:     20.
          72    .._00003                 rw_error_:     22.
         107    .._00004                 rw_error_:     24.
         124    .._00005                 rw_error_:     26.
         143    .._00006                 rw_error_:     28.
         162    .._00007                 rw_error_:     30.
         201    .._00010                 rw_error_:     32.
         222    .._00011                 rw_error_:     34.
         235    .._00012                 rw_error_:     36.
         253    .._00013                 rw_error_:     38.
         270    .._00014                 rw_error_:     40.
          25    .code_end                rw_error_:     13.
          10    .code_start              rw_error_:     13.
           5    .loop                    rw_error_:     13.
       77777    .segno                   rw_error_:     13,   16,   18,   20,   22,   24,   26,   28,   30,   32,   34,   36,
                                                        38,   40.
           0    .trapproc                rw_error_:     13.
          10    bad_fkey_name            rw_error_:     16.
          11    bad_fkey_sequence        rw_error_:     18.
          12    bad_option_identifier    rw_error_:     20.
          13    bad_option_name          rw_error_:     22.
          14    bad_option_value         rw_error_:     24.
          15    bad_report_display       rw_error_:     26.
          16    bad_report_format        rw_error_:     28.
          17    bad_report_setup         rw_error_:     30.
        1170    call_offset              stack_header:        80.
          10    codes                    rw_error_:     13,   16,   18,   20,   22,   24,   26,   28,   30,   32,   34,   36,
                                                        38,   40.
        1174    entry_offset             stack_header:        84.
          20    logic_error              rw_error_:     32.
           0    messages                 rw_error_:     13,   16,   18,   20,   22,   24,   26,   28,   30,   32,   34,   36,
                                                        38,   40.
          21    no_columns_defined       rw_error_:     34.
          22    no_data                  rw_error_:     36.
          23    no_report                rw_error_:     38.
          24    no_ssu_ptr_match         rw_error_:     40.
          25    past_codes               rw_error_:     13.
        1171    push_offset              stack_header:        81.
        1173    return_no_pop_offset     stack_header:        83.
        1172    return_offset            stack_header:        82.
          73    stach_header.trace_top_ptr     stack_header:        62.
          66    stack_header.assign_linkage_ptr      stack_header:        59.
          32    stack_header.bar_mode_sp       stack_header:        42.
          36    stack_header.call_op_ptr       stack_header:        44.
          10    stack_header.clr_ptr     stack_header:        27.
           6    stack_header.combined_stat_ptr       stack_header:        25.
           4    stack_header.cpm_data_ptr      stack_header:        24.
          13    stack_header.cpm_enabled       stack_header:        32.
          13    stack_header.cur_lot_size      stack_header:        31.
          64    stack_header.ect_ptr     stack_header:        58.
          46    stack_header.entry_op_ptr      stack_header:        49.
          70    stack_header.heap_header_ptr   stack_header:        60.
          74    stack_header.in_trace    stack_header:        63.
          52    stack_header.isot_ptr    stack_header:        52.
          26    stack_header.lot_ptr     rw_error_:     13,
                                         stack_header:        39.
          12    stack_header.main_proc_invoked       stack_header:        29.
          12    stack_header.max_lot_size      stack_header:        28.
          20    stack_header.parent_ptr  stack_header:        36.
          34    stack_header.pl1_operators_ptr       stack_header:        43.
          40    stack_header.push_op_ptr       stack_header:        46.
          42    stack_header.return_op_ptr     stack_header:        47.
          44    stack_header.ret_no_pop_op_ptr       stack_header:        48.
          62    stack_header.rnt_ptr     stack_header:        57.
          12    stack_header.run_unit_depth    stack_header:        30.
          54    stack_header.sct_ptr     stack_header:        53.
          30    stack_header.signal_ptr  stack_header:        41.
          22    stack_header.stack_begin_ptr   stack_header:        37.
          24    stack_header.stack_end_ptr     stack_header:        38.
          14    stack_header.system_free_ptr   stack_header:        33.
          60    stack_header.sys_link_info_ptr       stack_header:        56.
          72    stack_header.trace_frames      stack_header:        61.
          50    stack_header.trans_op_tv_ptr   stack_header:        51.
          56    stack_header.unwinder_ptr      stack_header:        54.
          16    stack_header.user_free_ptr     stack_header:        34.
         100    stack_header_end         stack_header:        64.
           0    trace_frames.count       stack_header:        69.
           1    trace_frames.top_ptr     stack_header:        70.
         551    tv_offset                stack_header:        75,   80,   81,   82,   83,   84.


NO FATAL ERRORS


                                          -----------------------------------------------------------


Historical Background

This edition of the Multics software materials and documentation is provided and donated
to Massachusetts Institute of Technology by Group BULL including BULL HN Information Systems Inc.
as a contribution to computer science knowledge.
This donation is made also to give evidence of the common contributions of Massachusetts Institute of Technology,
Bell Laboratories, General Electric, Honeywell Information Systems Inc., Honeywell BULL Inc., Groupe BULL
and BULL HN Information Systems Inc. to the development of this operating system.
Multics development was initiated by Massachusetts Institute of Technology Project MAC (1963-1970),
renamed the MIT Laboratory for Computer Science and Artificial Intelligence in the mid 1970s, under the leadership
of Professor Fernando Jose Corbato. Users consider that Multics provided the best software architecture
for managing computer hardware properly and for executing programs. Many subsequent operating systems
incorporated Multics principles.
Multics was distributed in 1975 to 2000 by Group Bull in Europe , and in the U.S. by Bull HN Information Systems Inc.,
as successor in interest by change in name only to Honeywell Bull Inc. and Honeywell Information Systems Inc. .

                                          -----------------------------------------------------------

Permission to use, copy, modify, and distribute these programs and their documentation for any purpose and without
fee is hereby granted,provided that the below copyright notice and historical background appear in all copies
and that both the copyright notice and historical background and this permission notice appear in supporting
documentation, and that the names of MIT, HIS, BULL or BULL HN not be used in advertising or publicity pertaining
to distribution of the programs without specific prior written permission.
    Copyright 1972 by Massachusetts Institute of Technology and Honeywell Information Systems Inc.
    Copyright 2006 by BULL HN Information Systems Inc.
    Copyright 2006 by Bull SAS
    All Rights Reserved
