	COMPILATION LISTING OF SEGMENT rw_fr_get_page
	Compiled by: Multics PL/I Compiler, Release 33e, of October 6, 1992
	Compiled at: CGI
	Compiled on: 2000-04-18_1142.49_Tue_mdt
	    Options: optimize map

        1 /* ***********************************************************
        2*   *                                                         *
        3*   * Copyright, (C) Honeywell Information Systems Inc., 1982 *
        4*   *                                                         *
        5*   *********************************************************** */
        6 /* format: off */

        7
        8 /*
        9*
       10*     This module is called to get a page.
       11*
       12*
       13*     Known Bugs:
       14*
       15*     Other Problems:
       16*
       17*     History:
       18*
       19*     Written - Al Dupuis - August 1983
       20*     Changed - Al Dupuis - October 1984 - Became report_writer_.
       21*
       22**/
       23
       24 rw_fr_get_page: proc (
       25
       26 	report_cip_parm,	/* input: points to report_control_info */
       27 	page_number_parm,	/* input: desired page */
       28 	page_ip_parm,	/* output: ptr to page_info */
       29 	code_parm		/* output: success or failure */
       30 		    );


       31
       32 dcl code_parm fixed bin (35) parm;
       33 dcl page_number_parm fixed bin (21) parm;
       34 dcl page_ip_parm ptr parm;
       35 dcl report_cip_parm ptr parm;


       36
       37 	report_cip = report_cip_parm;
       38 	code_parm = 0;
       39 	page_ip_parm = null ();

       40
       41 	/* Move the pointers for the structures we will need. */

       42
       43 	format_report_ip = report_control_info.format_report_info_ptr;
       44 	iocb_ptr = format_report_info.report_iocb_ptr;

       45
       46 	/* Get set to read in the page. */

       47
       48 	record_key = ltrim (convert (record_key, page_number_parm));
       49 	call iox_$seek_key (iocb_ptr, record_key, record_length, code_parm);
       50 	if code_parm ^= 0
       51 	then return;

       52
       53 	/* It has it's own segment for it's exclusive use. */

       54
       55 	buffer_ptr = report_control_info.report_temp_seg_ptr;
       56 	buffer_length = sys_info$max_seg_size * 4;
       57 	call iox_$read_record (iocb_ptr, buffer_ptr, buffer_length,
       58 	     record_length, code_parm);
       59 	if code_parm ^= 0
       60 	then return;

       61
       62 	/* Get set to read in the page_info structure for the page. */

       63
       64 	record_key = record_key || ".page_info";
       65 	call iox_$seek_key (iocb_ptr, record_key, record_length, code_parm);
       66 	if code_parm ^= 0
       67 	then return;

       68
       69 	/* It will temporarily go into a report temp segment. */

       70
       71 	buffer_ptr = report_control_info.input_string_temp_seg_ptr;
       72 	call iox_$read_record (iocb_ptr, buffer_ptr, buffer_length,
       73 	     record_length, code_parm);
       74 	if code_parm ^= 0
       75 	then return;

       76
       77 /*
       78*	Set the automatic pointer the structure is based on and set
       79*	the pointer to where the page is stored. Adjust the buffer
       80*	pointer and length so the next structure can share the same segment.
       81**/

       82
       83 	page_ip = buffer_ptr;
       84 	page_info.page_ptr = report_control_info.report_temp_seg_ptr;
       85 	buffer_word_displacement = divide (record_length, 4, 21) + 1;
       86 	if mod (buffer_word_displacement, 2) ^= 0
       87 	then buffer_word_displacement = buffer_word_displacement + 1;
       88 	buffer_ptr = addrel (buffer_ptr, buffer_word_displacement);
       89 	buffer_length = buffer_length - (buffer_word_displacement * 4);

       90
       91 	/* Get set to read in the formatted_page_info structure. */

       92
       93 	record_key = before (record_key, ".") || ".formatted_page_info";
       94 	call iox_$seek_key (iocb_ptr, record_key, record_length, code_parm);
       95 	if code_parm ^= 0
       96 	then return;

       97
       98 	/* Set the pointer for the structure and re-adjust buffer length. */

       99
      100 	call iox_$read_record (iocb_ptr, buffer_ptr, buffer_length,
      101 	     record_length, code_parm);
      102 	if code_parm ^= 0
      103 	then return;
      104 	page_info.formatted_page_info_ptr = buffer_ptr;
      105 	buffer_length = sys_info$max_seg_size * 4;

      106
      107 /*
      108*	If the page contains overstruck characters then read in that
      109*	structure. Set the pointer to the structure.
      110**/

      111
      112 	if page_info.page_overstrike_info_ptr ^= null ()
      113 	then do;
      114 	     buffer_ptr = report_control_info.output_string_temp_seg_ptr;
      115 	     record_key = before (record_key, ".") || ".page_overstrike_info";
      116 	     call iox_$seek_key (iocb_ptr, record_key, record_length, code_parm);
      117 	     if code_parm ^= 0
      118 	     then return;
      119 	     call iox_$read_record (iocb_ptr, buffer_ptr, buffer_length,
      120 		record_length, code_parm);
      121 	     if code_parm ^= 0
      122 	     then return;
      123 	     page_info.page_overstrike_info_ptr = buffer_ptr;
      124 	end;

      125
      126 	page_ip_parm = page_ip;

      127
      128 	return;
      129
      130 dcl addrel builtin;

      131
      132 dcl before builtin;
      133 dcl buffer_length fixed bin (21);
      134 dcl buffer_ptr ptr;
      135 dcl buffer_word_displacement fixed bin (21);

      136
      137 dcl convert builtin;

      138
      139 dcl divide builtin;

      140
      141 dcl iocb_ptr ptr;
      142 dcl iox_$seek_key entry (ptr, char(256) var, fixed bin(21), fixed bin(35));
      143 dcl iox_$read_record entry (ptr, ptr, fixed bin(21), fixed bin(21), fixed bin(35));

      144
      145 dcl ltrim builtin;

      146
      147 dcl mod builtin;

      148
      149 dcl null builtin;

      150
      151 dcl record_key char (256) varying;
      152 dcl record_length fixed bin (21);

      153
      154 dcl sys_info$max_seg_size fixed bin(35) ext static;
      155
  1     1 /*	BEGIN INCLUDE FILE rw_options_extents.incl.pl1
  1     2*
  1     3*   Extents for the formatting options used for producing reports.
  1     4*   Kept as a separate include so that some programs may include this
  1     5*   file without including rw_format_options.incl.pl1
  1     6*
  1     7*    Al Dupuis - August 1983
  1     8*
  1     9**/
  1    10 /* format: off */

  1    11
  1    12 /* The three types of format options that we have. */

  1    13
  1    14 dcl GENERAL_REPORT_OPTION fixed bin static int options (constant) init (1);
  1    15 dcl GENERAL_COLUMN_OPTION fixed bin static int options (constant) init (2);
  1    16 dcl SPECIFIC_COLUMN_OPTION fixed bin static int options (constant) init (3);

  1    17
  1    18 /* Used to determine how big the tables are without doing a hbound on it. */

  1    19
  1    20 dcl NUMBER_OF_GENERAL_COLUMN_OPTIONS_IN_TABLE fixed bin static int options (constant) init (15);
  1    21 dcl NUMBER_OF_GENERAL_REPORT_OPTIONS_IN_TABLE fixed bin static int options (constant) init (9);
  1    22 dcl NUMBER_OF_SPECIFIC_COLUMN_OPTIONS_IN_TABLE fixed bin static int options (constant) init (6);

  1    23
  1    24 /* Used to determine how much space is needed to list them. */

  1    25
  1    26 dcl LONGEST_SPECIFIC_COLUMN_OPTION_NAME_LENGTH fixed bin static int options (constant) init (10); /* -alignment */
  1    27 dcl LONGEST_GENERAL_REPORT_OPTION_NAME_LENGTH fixed bin static int options (constant) init (25); /* -format_document_controls */
  1    28 dcl LONGEST_GENERAL_COLUMN_OPTION_NAME_LENGTH fixed bin static int options (constant) init (21); /* -group_footer_trigger */

  1    29
  1    30 /* MAXIMUM_OPTION_IDENTIFIER_LENGTH + MAXIMUM_OPTION_NAME_LENGTH */

  1    31
  1    32 dcl MAXIMUM_NORMALIZED_OPTION_NAME_LENGTH fixed bin static int options (constant) init (101);

  1    33
  1    34 dcl MAXIMUM_OPTION_IDENTIFIER_LENGTH fixed bin static int options (constant) init (69);
  1    35 dcl MAXIMUM_OPTION_NAME_LENGTH fixed bin static int options (constant) init (32);
  1    36 dcl MAXIMUM_OPTION_VALUE_LENGTH fixed bin static int options (constant) init (4096);
  1    37
  1    38 /* Used to index into the OPTIONS tables defined in rw_format_options.incl.pl1. */

  1    39
  1    40 dcl INDEX_FOR_DELIMITER fixed bin static int options (constant) init (1);
  1    41 dcl INDEX_FOR_FORMAT_DOCUMENT_CONTROLS fixed bin static int options (constant) init (2);
  1    42 dcl INDEX_FOR_HYPHENATION fixed bin static int options (constant) init (3);
  1    43 dcl INDEX_FOR_PAGE_FOOTER_VALUE fixed bin static int options (constant) init (4);
  1    44 dcl INDEX_FOR_PAGE_HEADER_VALUE fixed bin static int options (constant) init (5);
  1    45 dcl INDEX_FOR_PAGE_LENGTH fixed bin static int options (constant) init (6);
  1    46 dcl INDEX_FOR_PAGE_WIDTH fixed bin static int options (constant) init (7);
  1    47 dcl INDEX_FOR_TITLE_LINE fixed bin static int options (constant) init (8);
  1    48 dcl INDEX_FOR_TRUNCATION fixed bin static int options (constant) init (9);

  1    49
  1    50 dcl INDEX_FOR_COLUMN_ORDER fixed bin static int options (constant) init (1);
  1    51 dcl INDEX_FOR_COUNT  fixed bin static int options (constant) init (2);
  1    52 dcl INDEX_FOR_EXCLUDE fixed bin static int options (constant) init (3);
  1    53 dcl INDEX_FOR_GROUP fixed bin static int options (constant) init (4);
  1    54 dcl INDEX_FOR_GROUP_FOOTER_TRIGGER fixed bin static int options (constant) init (5);
  1    55 dcl INDEX_FOR_GROUP_FOOTER_VALUE fixed bin static int options (constant) init (6);
  1    56 dcl INDEX_FOR_GROUP_HEADER_TRIGGER fixed bin static int options (constant) init (7);
  1    57 dcl INDEX_FOR_GROUP_HEADER_VALUE fixed bin static int options (constant) init (8);
  1    58 dcl INDEX_FOR_OUTLINE fixed bin static int options (constant) init (9);
  1    59 dcl INDEX_FOR_PAGE_BREAK fixed bin static int options (constant) init (10);
  1    60 dcl INDEX_FOR_ROW_FOOTER_VALUE fixed bin static int options (constant) init (11);
  1    61 dcl INDEX_FOR_ROW_HEADER_VALUE fixed bin static int options (constant) init (12);
  1    62 dcl INDEX_FOR_SUBCOUNT fixed bin static int options (constant) init (13);
  1    63 dcl INDEX_FOR_SUBTOTAL fixed bin static int options (constant) init (14);
  1    64 dcl INDEX_FOR_TOTAL fixed bin static int options (constant) init (15);

  1    65
  1    66 dcl INDEX_FOR_ALIGNMENT fixed bin static int options (constant) init (1);
  1    67 dcl INDEX_FOR_EDITING fixed bin static int options (constant) init (2);
  1    68 dcl INDEX_FOR_FOLDING fixed bin static int options (constant) init (3);
  1    69 dcl INDEX_FOR_SEPARATOR fixed bin static int options (constant) init (4);
  1    70 dcl INDEX_FOR_TITLE fixed bin static int options (constant) init (5);
  1    71 dcl INDEX_FOR_WIDTH fixed bin static int options (constant) init (6);

  1    72
  1    73 /*    END INCLUDE FILE rw_options_extents */
      156
      157
  2     1 /*   BEGIN INCLUDE FILE rw_page_info.incl.pl1
  2     2*
  2     3*   Written - Al Dupuis - August 1983
  2     4**/
  2     5 /* format: off */

  2     6
  2     7      dcl	   1 formatted_page_info  aligned based (formatted_page_ip),
  2     8 	     2 maximum_number_of_detail_blocks fixed bin, /* the most that can appear on a page */
  2     9 	     2 page_header_length fixed bin,		/* page header in lines */
  2    10 	     2 title_block_length fixed bin,		/* titles in lines */
  2    11 	     2 page_footer_length fixed bin,		/* page footer in lines */
  2    12 	     2 number_of_detail_blocks fixed bin,
  2    13 	     2 detail_blocks      (fpi_init_maximum_number_of_detail_blocks
  2    14 			      refer (formatted_page_info.maximum_number_of_detail_blocks)),
  2    15 	       3 row_number	      fixed bin (35),	/* position in the table */
  2    16 	       3 beginning_line_number fixed bin,	/* beginning line on page */
  2    17 	       3 group_header_length fixed bin,		/* group header length in lines */
  2    18 	       3 row_header_length fixed bin,		/* row header in lines */
  2    19 	       3 row_length	      fixed bin,		/* row value in lines */
  2    20 	       3 subtotal_length  fixed bin,		/* subtotal in lines */
  2    21 	       3 subcount_length  fixed bin,		/* subcount in lines */
  2    22 	       3 total_length     fixed bin,		/* total in lines */
  2    23 	       3 count_length     fixed bin,		/* count in lines */
  2    24 	       3 row_footer_length fixed bin,		/* row footer in lines */
  2    25 	       3 group_footer_length fixed bin;		/* group footer length in lines */
  2    26      dcl	   formatted_page_ip      ptr;
  2    27      dcl	   fpi_init_maximum_number_of_detail_blocks fixed bin;

  2    28
  2    29      dcl	   1 page_info aligned    based (page_ip),
  2    30 	     2 width	      fixed bin,		/* width in chars */
  2    31 	     2 length	      fixed bin,		/* length in lines */
  2    32 	     2 total_characters   fixed bin (21),	/* width * length */
  2    33 	     2 page_info_size     fixed bin,		/* size of this structure in words */
  2    34 	     2 page_ptr	      ptr,		/* points to the actual page */
  2    35 	     2 page_overstrike_info_ptr ptr,		/* points to the overstrike info */
  2    36 	     2 formatted_page_info_ptr ptr;		/* points to formatted_page_info */

  2    37
  2    38      dcl	   page_defined_as_chars  (page_info.total_characters) char (1) based (page_info.page_ptr);
  2    39      dcl	   page_defined_as_lines  (page_info.length) char (page_info.width) based (page_info.page_ptr);
  2    40      dcl	   page_defined_as_a_string char (page_info.total_characters) based (page_info.page_ptr);
  2    41      dcl	   page_ip	      ptr;

  2    42
  2    43      dcl	   1 page_overstrike_info aligned based (page_overstrike_ip),
  2    44 	     2 number_of_bits_or_chars fixed bin (21),	/* number of chars in the page */
  2    45 	     2 bit_map (page_info.total_characters	/* on means this char on the page is overstruck */
  2    46 		     refer (page_overstrike_info.number_of_bits_or_chars)) bit (1) unaligned,
  2    47 	     2 chars (page_info.total_characters	/* this is the overstrike character */
  2    48 		     refer (page_overstrike_info.number_of_bits_or_chars)) char (1) unaligned;
  2    49      dcl	   page_overstrike_ip     ptr;
  2    50
  2    51      dcl	   1 page_overstrike_info_redefined aligned based (page_overstrike_ip),
  2    52 	     2 number_of_bits_or_chars fixed bin (21),
  2    53 	     2 bit_map bit (page_overstrike_info_redefined.number_of_bits_or_chars) unaligned,
  2    54 	     2 chars char (page_overstrike_info_redefined.number_of_bits_or_chars) unaligned;
  2    55
  2    56 /*   END INCLUDE FILE rw_page_info.incl.pl1 */
      158
      159
  3     1 /*  BEGIN INCLUDE FILE rw_report_info.incl.pl1
  3     2*    Information needed to control the report environment.
  3     3*    Al Dupuis - August 1983
  3     4**/
  3     5 /* format: off */

  3     6
  3     7      dcl	   1 report_control_info aligned  based (report_cip),
  3     8 	     2 flags,
  3     9 	       3 report_is_paginated bit (1) unaligned,	         /* paged or one continous stream */
  3    10 	       3 table_has_been_started bit (1) unaligned,         /* table clean up is necessary */
  3    11 	       3 table_is_full    bit (1) unaligned,	         /* no more retrieves are necessary */
  3    12 	       3 report_has_been_started bit (1) unaligned,        /* report clean up is necessary */
  3    13 	       3 report_is_formatted bit (1) unaligned,	         /* no more formatting is necessary */
  3    14 	       3 permanent_report bit (1) unaligned,	         /* or disposable */
  3    15 	       3 permanent_table  bit (1) unaligned,	         /* or disposable */
  3    16 	       3 report_has_just_been_completed bit (1) unaligned, /* used for printing timers */
  3    17 	       3 table_has_just_been_loaded bit (1) unaligned,     /* used for printing timers */
  3    18 	       3 multi_pass_mode bit (1) unaligned,	         /* on if we are to do more than 1 pass */
  3    19 	       3 available	      bit (26) unaligned,
  3    20 	     2 format_options_flags,		         	         /* used to determine if value is default */
  3    21 	       3 general_report_default_value (NUMBER_OF_GENERAL_REPORT_OPTIONS_IN_TABLE) bit (1) unaligned,
  3    22 	       3 general_column_default_value (NUMBER_OF_GENERAL_COLUMN_OPTIONS_IN_TABLE) bit (1) unaligned,
  3    23 	     2 value_seg_ptr      ptr,		         /* the options value seg */
  3    24 	     2 table_information_ptr ptr,		         /* points to table_info */
  3    25 	     2 table_control_info_ptr ptr,		         /* points to table_control_info */
  3    26 	     2 row_value_temp_segment_ptr ptr,		         /* points to a segment for the row value */
  3    27 	     2 general_work_area_ptr ptr,		         /* a freeing work area */
  3    28 	     2 name_value_area_ptr ptr,		         /* area for name-value allocations */
  3    29 	     2 subsystem_control_info_ptr ptr,		         /* ptr for ssu_ info structure */
  3    30 	     2 subsystems_info_ptr ptr,		         /* points to subsystems info structure */
  3    31 	     2 name_value_temp_seg_ptr ptr,		         /* temp seg for name-value space */
  3    32 	     2 report_temp_seg_ptr ptr,		         /* report workspace */
  3    33 	     2 report_work_area_ptr ptr,		         /* report workspace */
  3    34 	     2 format_report_info_ptr ptr,		         /* info needed to create a report */
  3    35 	     2 input_string_temp_seg_ptr ptr,		         /* report workspace */
  3    36 	     2 output_string_temp_seg_ptr ptr,		         /* report workspace */
  3    37 	     2 editing_strings_temp_seg_ptr ptr,	         /* report workspace */
  3    38 	     2 headers_temp_seg_ptr ptr,		         /* report workspace */
  3    39 	     2 display_iocb_ptr   ptr,		         /* report is displayed through this */
  3    40 	     2 area_info_ptr ptr,			         /* points to area_info structure */
  3    41 	     2 table_manager_delete_table_entry variable entry (ptr, fixed bin (35)), /* entry who deletes the table  */
  3    42 	     2 table_manager_get_query_entry variable entry (ptr, ptr, fixed bin (21), fixed bin (35)), /* entry who gets the query */
  3    43 	     2 table_manager_get_row_entry variable entry (ptr, fixed bin (35)), /* entry who loads rows  */
  3    44 	     2 table_manager_create_table_entry variable entry (ptr, fixed bin (35)), /* entry who makes a new table  */
  3    45 	     2 options_identifier fixed bin,		         /* current set of options */
  3    46 	     2 report_identifier  fixed bin,		         /* current report */
  3    47 	     2 no_of_rows_retrieved fixed bin (35),	         /* current no of rows */
  3    48 	     2 no_of_formatted_pages fixed bin (21),	         /* current no of pages */
  3    49 	     2 number_of_passes fixed bin,		         /* number of times report will be formatted */
  3    50 	     2 table_loading_time float bin (63),
  3    51 	     2 table_sorting_time float bin (63),
  3    52 	     2 table_deletion_time float bin (63),
  3    53 	     2 report_setup_time  float bin (63),
  3    54 	     2 report_formatting_time float bin (63),
  3    55 	     2 report_display_time float bin (63),
  3    56 	     2 report_deletion_time float bin (63),
  3    57 	     2 ssu_evaluate_active_string_time float bin (63),
  3    58 	     2 temp_dir_unique_id bit (36),		/* uid of temp dir */
  3    59 	     2 subsystems_ec_suffix char (32),		/* suffix for saving and restoring ecs */
  3    60 	     2 temp_dir_name      char (168) unaligned;	/* the dir where we place the retrieved table and report */
  3    61      dcl	   report_cip	      ptr init (null ());
  3    62
  3    63 /*  END INCLUDE FILE rw_report_info.incl.pl1  */
      160
      161
  4     1 /*   BEGIN INCLUDE FILE rw_report_structures.incl.pl1
  4     2*
  4     3*   Written - Al Dupuis - August 1983
  4     4**/
  4     5 /* format: off */

  4     6
  4     7 /* Used in column_info.alignment and column_info.subsystem_data_type */

  4     8
  4     9      dcl	   BIT_DATA_TYPE	      fixed bin static int options (constant) init (1);
  4    10      dcl	   BOTH_ALIGNMENT	      fixed bin static int options (constant) init (1);
  4    11      dcl	   CENTER_ALIGNMENT	      fixed bin static int options (constant) init (2);
  4    12      dcl	   CHAR_DATA_TYPE	      fixed bin static int options (constant) init (2);
  4    13      dcl	   DECIMAL_ALIGNMENT      fixed bin static int options (constant) init (3);
  4    14      dcl	   DECIMAL_DATA_TYPE      fixed bin static int options (constant) init (3);
  4    15      dcl	   LEFT_ALIGNMENT	      fixed bin static int options (constant) init (4);
  4    16      dcl	   NUMERIC_DATA_TYPE      fixed bin static int options (constant) init (4);
  4    17      dcl	   RIGHT_ALIGNMENT	      fixed bin static int options (constant) init (5);


  4    18
  4    19      dcl	   1 column_info	      aligned based (column_ip),
  4    20 	     2 flags,
  4    21 	       3 folding_is_fill  bit (1) unaligned,	  /* fill or truncate */
  4    22 	       3 outline	      bit (1) unaligned,	  /* on means the display has been suppressed */
  4    23 	       3 editing	      bit (1) unaligned,	  /* on means there is an editing request */
  4    24 	       3 restore_editing  bit (1) unaligned,	  /* used to toggle the editing bit */
  4    25 	       3 available	      bit (32) unaligned,
  4    26 	     2 order	      fixed bin,		  /* as specified by the user */
  4    27 	     2 input_column	      fixed bin,		  /* # of the column in the table */
  4    28 	     2 output_column      fixed bin,		  /* # of the column on the page */
  4    29 	     2 output_line	      fixed bin,		  /* within the block */
  4    30 	     2 starting_position  fixed bin,		  /* within the page width */
  4    31 	     2 width	      fixed bin,		  /* in characters */
  4    32 	     2 alignment	      fixed bin,		  /* set to one of the above alignment constants */
  4    33 	     2 decimal_position   fixed bin,		  /* only needed for decimal alignment */
  4    34 	     2 subsystem_data_type fixed bin,		  /* set to one of the above data type constants */
  4    35 	     2 editing_string_length fixed bin (21),	  /* before evaluation */
  4    36 	     2 editing_string_result_length fixed bin (21), /* after evaluation */
  4    37 	     2 editing_string_ptr ptr,		  /* before evaluation */
  4    38 	     2 editing_string_result_ptr ptr,		  /* after evaluation */
  4    39 	     2 prefix_character   char (1) varying;	  /* column prefix */
  4    40      dcl	   column_ip	      ptr;


  4    41
  4    42      dcl	   1 columns_info	      aligned based (columns_ip),	/* an array of column_info's */
  4    43 	     2 number_of_columns  fixed bin,
  4    44 	     2 columns	      (initialize_number_of_columns
  4    45 			      refer (columns_info.number_of_columns)) like column_info;
  4    46      dcl	   columns_ip	      ptr;
  4    47
  4    48      dcl	   1 column_map	      (column_map_number_of_columns) aligned based (column_mp),
  4    49 	     2 present	      bit (1),	/* the column is present in the list */
  4    50 	     2 position	      fixed bin;	/* position where this column was found in the list */
  4    51      dcl	   column_map_number_of_columns fixed bin;
  4    52      dcl	   column_mp	      ptr;


  4    53
  4    54      dcl     1 count_columns_info like columns_info based (count_columns_ip);
  4    55      dcl     count_columns_ip ptr;


  4    56
  4    57      dcl     1 count_info like total_info based (count_ip);
  4    58      dcl     count_ip ptr;


  4    59
  4    60 /* Used to access the current row from the table */
  4    61      dcl	   current_row_value      char (table_info.row_value_length) based (status.current_row_ptr);


  4    62
  4    63 /* Used to pick up the value before or after evaluation */
  4    64      dcl	   editing_string_result  char (editing_string_rl) based (editing_string_rp);
  4    65      dcl	   editing_string_rl      fixed bin;
  4    66      dcl	   editing_string_rp      ptr;


  4    67
  4    68      dcl	   editing_strings_next_byte fixed bin (21);
  4    69 /* Used to store editing strings before and after evaluation. */
  4    70      dcl	   editing_strings_temp_seg char (maximum_segment_size) based (editing_strings_tsp);
  4    71      dcl	   editing_strings_temp_seg_as_an_array (maximum_segment_size) char (1) based (editing_strings_tsp);
  4    72      dcl	   editing_strings_tsp    ptr;
  4    73
  4    74      dcl	   1 format_report_info   aligned based (format_report_ip),
  4    75 	     2 flags,
  4    76 	       3 unlimited_page_length bit (1) unaligned,   /* -page_length equal to zero */
  4    77 	       3 unlimited_page_width bit (1) unaligned,	  /* -page_width equal to zero */
  4    78 	       3 page_header_is_defined bit (1) unaligned,  /* -page_header_value */
  4    79 	       3 group_header_is_defined bit (1) unaligned, /* -group_header_value */
  4    80 	       3 group_header_trigger_is_defined bit (1) unaligned, /* -group_header_trigger */
  4    81 	       3 title_block_is_defined bit (1) unaligned,  /* -title_line */
  4    82 	       3 row_header_is_defined bit (1) unaligned,	  /* -row_header_value */
  4    83 	       3 row_value_is_defined bit (1) unaligned,	  /* if all of the columns weren't excluded */
  4    84 	       3 row_footer_is_defined bit (1) unaligned,   /* -row_footer_value */
  4    85 	       3 group_footer_is_defined bit (1) unaligned, /* -group_footer_value */
  4    86 	       3 group_footer_trigger_is_defined bit (1) unaligned, /* -group_footer_trigger */
  4    87 	       3 page_footer_is_defined bit (1) unaligned,  /* -page_footer_value */
  4    88 	       3 editing_is_defined bit (1) unaligned,	  /* -editing */
  4    89 	       3 exclude_is_defined bit (1) unaligned,	  /* -exclude */
  4    90 	       3 group_is_defined bit (1) unaligned,	  /* -group */
  4    91 	       3 outline_is_defined bit (1) unaligned,	  /* -outline */
  4    92 	       3 page_break_is_defined bit (1) unaligned,   /* -page_break */
  4    93 	       3 subtotal_is_defined bit (1) unaligned,     /* -subtotal */
  4    94 	       3 subcount_is_defined bit (1) unaligned,	  /* -subcount */
  4    95 	       3 total_is_defined bit (1) unaligned,	  /* -total */
  4    96 	       3 count_is_defined bit (1) unaligned,	  /* -count */
  4    97 	       3 available	      bit (15) unaligned,
  4    98 	     2 page_width	      fixed bin,		  /* as given by the user */
  4    99 	     2 page_length	      fixed bin,		  /* as given by the user */
  4   100 	     2 number_of_formatted_rows fixed bin (35),	  /* updated at the end of each page */
  4   101 	     2 editing_strings_next_available_byte fixed bin (21), /* beginning of temp space for execution */
  4   102 	     2 headers_next_available_byte fixed bin (21),  /* beginning of temp space for execution */
  4   103 	     2 report_iocb_ptr    ptr,		  /* for saving copies of the page */
  4   104 	     2 table_info_ptr     ptr,		  /* to avoid repetitive calls to rw_table$info */
  4   105 	     2 format_document_op ptr,		  /* format_document_options structure */
  4   106 	     2 page_info_ptr      ptr,		  /* page_info structure */
  4   107 	     2 copy_of_page_info_ptr ptr,		  /* version of page_info structure that can be changed */
  4   108 						  /* after each page */
  4   109 	     2 formatted_page_info_ptr ptr,		  /* formatted_page_info structure */
  4   110 	     2 overstrike_info_ptr ptr,		  /* page_overstrike_info structure */
  4   111 	     2 status_ptr	      ptr,		  /* status structure */
  4   112 	     2 template_map_ptr   ptr,		  /* template_map array */
  4   113 	     2 page_header_info_ptr ptr,		  /* header_info structure */
  4   114 	     2 page_footer_info_ptr ptr,		  /* header_info structure */
  4   115 	     2 group_header_info_ptr ptr,		  /* header_info structure */
  4   116 	     2 group_footer_info_ptr ptr,		  /* header_info structure */
  4   117 	     2 group_header_trigger_info_ptr ptr,	  /* group_info structure */
  4   118 	     2 group_footer_trigger_info_ptr ptr,	  /* group_info structure */
  4   119 	     2 row_header_info_ptr ptr,		  /* header_info structure */
  4   120 	     2 row_footer_info_ptr ptr,		  /* header_info structure */
  4   121 	     2 title_block_columns_info_ptr ptr,	  /* title_block_columns_info structure */
  4   122 	     2 title_block_info_ptr ptr,		  /* title_block_info structure */
  4   123 	     2 input_columns_info_ptr ptr,		  /* input_columns_info structure */
  4   124 	     2 input_columns_order_ptr ptr,		  /* input_columns_order array */
  4   125 	     2 output_columns_info_ptr ptr,		  /* output_columns_info structure */
  4   126 	     2 group_info_ptr     ptr,		  /* group_info structure */
  4   127 	     2 outline_info_ptr   ptr,		  /* outline_info structure */
  4   128 	     2 page_break_info_ptr ptr,		  /* page_break_info structure */
  4   129 	     2 subtotal_info_ptr  ptr,		  /* subtotal_info structure */
  4   130 	     2 subcount_info_ptr  ptr,		  /* subcount_info structure */
  4   131 	     2 total_info_ptr     ptr,		  /* total_info structure */
  4   132 	     2 count_info_ptr     ptr,		  /* count_info structure */
  4   133 	     2 row_value_template_info_ptr ptr,		  /* row_value_template_info structure */
  4   134 	     2 generic_template_ptr ptr,		  /* generic_template char string */
  4   135 	     2 header_part_delimiter char (1) unaligned,	  /* delimits the different portions of a header/footer */
  4   136 	     2 truncation_indicator char (32) varying unaligned, /* used to indicate that truncation has occured */
  4   137 	     2 report_directory_name char (168) unaligned,  /* dir where we place copies of the page */
  4   138 	     2 report_entry_name  char (32) unaligned;      /* entry name portion of above */
  4   139      dcl	   format_report_ip	      ptr;

  4   140
  4   141 /* used to format page/row headers and footers */
  4   142      dcl	   generic_template	      char (generic_template_length) based (generic_tp);
  4   143      dcl	   generic_template_length fixed bin;
  4   144      dcl	   generic_tp	      ptr;


  4   145
  4   146 /* these columns form a group of rows and are used with outlining, etc. */
  4   147      dcl	   1 group_info aligned based (group_ip),
  4   148                2 number_of_columns_to_group fixed bin,
  4   149                2 column_number (gi_init_number_of_columns_to_group
  4   150 		     refer (group_info.number_of_columns_to_group)) fixed bin;
  4   151 dcl gi_init_number_of_columns_to_group fixed bin;
  4   152 dcl group_ip ptr;


  4   153
  4   154      dcl	   headers_next_byte      fixed bin (21);
  4   155 /* used to hold the page/row headers/footers, and temp space for totals/subtotals. */
  4   156      dcl	   headers_temp_seg	      char (maximum_segment_size) based (headers_tsp);
  4   157      dcl	   headers_temp_seg_as_an_array (maximum_segment_size) char (1) based (headers_tsp);
  4   158      dcl	   headers_tsp	      ptr;


  4   159
  4   160      dcl	   1 header_info	      aligned based (header_ip),
  4   161 	     2 number_of_lines    fixed bin,		/* number of header lines typed in by the user */
  4   162 	     2 maximum_number_of_parts fixed bin,	/* 3 parts maximum (left, right, and center) */
  4   163 	     2 lines	      (hi_init_number_of_lines
  4   164 			      refer (header_info.number_of_lines)),
  4   165 	       3 parts	      (hi_init_maximum_number_of_parts
  4   166 			      refer (header_info.maximum_number_of_parts)),
  4   167 	         4 flags,
  4   168 		 5 present      bit (1) unaligned,	/* this particular part is defined */
  4   169 		 5 active	      bit (1) unaligned,	/* and it contains active functions */
  4   170 		 5 available    bit (34) unaligned,
  4   171 	         4 index	      fixed bin (21),	/* before evaluation */
  4   172 	         4 length	      fixed bin (21),	/* before evaluation */
  4   173 	         4 starting_position fixed bin,		/* within the page width */
  4   174 	         4 width	      fixed bin,		/* within the page width */
  4   175 	         4 alignment      fixed bin;		/* left, right, or center */
  4   176      dcl	   header_ip	      ptr;
  4   177      dcl	   hi_init_maximum_number_of_parts fixed bin;
  4   178      dcl	   hi_init_number_of_lines fixed bin;


  4   179
  4   180      dcl	   initialize_number_of_columns fixed bin;  /* columns_info refer extent */


  4   181
  4   182      dcl	   1 input_columns_info   aligned like columns_info based (input_columns_ip); /* the columns in the table */
  4   183      dcl	   input_columns_ip	      ptr;


  4   184
  4   185      dcl	   input_columns_order    (input_columns_info.number_of_columns) fixed bin based (input_columns_op);
  4   186      dcl	   input_columns_op	      ptr;


  4   187
  4   188      dcl	   maximum_segment_size   fixed bin (21);	/* in characters */


  4   189
  4   190 /* Used to access the next row from the table */
  4   191      dcl	   next_row_value	      char (table_info.row_value_length) based (status.next_row_ptr);


  4   192
  4   193      dcl	   1 outline_info	      aligned based (outline_ip),	/* who gets oulining attempted */
  4   194 	     2 maximum_number_of_single_columns fixed bin,
  4   195 	     2 maximum_number_of_grouping_columns fixed bin,
  4   196 	     2 number_of_single_columns fixed bin,		/* columns who are not a member of the group */
  4   197 	     2 number_of_grouping_columns fixed bin,		/* columns who are a member of the group */
  4   198 	     2 single_columns     (oi_init_maximum_number_of_single_columns refer (
  4   199 			      outline_info.maximum_number_of_single_columns)) fixed bin,
  4   200 	     2 grouping_columns   (oi_init_maximum_number_of_grouping_columns refer (
  4   201 			      outline_info.maximum_number_of_grouping_columns)) fixed bin;
  4   202      dcl	   oi_init_maximum_number_of_grouping_columns fixed bin;
  4   203      dcl	   oi_init_maximum_number_of_single_columns fixed bin;
  4   204      dcl	   outline_ip	      ptr;


  4   205
  4   206      dcl	   1 output_columns_info  like columns_info based (output_columns_ip); /* the columns that will go on the page */
  4   207      dcl	   output_columns_ip      ptr;


  4   208
  4   209 /* these columns will be checked to determine if a page break is required */
  4   210      dcl	   1 page_break_info aligned based (page_break_ip),
  4   211 	     2 number_of_columns fixed bin,
  4   212 	     2 columns (pbi_init_number_of_columns refer (
  4   213 		     page_break_info.number_of_columns)) bit (1) unaligned;
  4   214 dcl page_break_ip ptr;
  4   215 dcl pbi_init_number_of_columns fixed bin;


  4   216
  4   217 /* Used to access the previous row from the table */
  4   218      dcl	   previous_row_value     char (table_info.row_value_length) based (status.previous_row_ptr);


  4   219
  4   220 /* The templates for the row value (also used for titles, subtotals, and totals.) */
  4   221      dcl	   1 row_value_template_info like template_info based (row_value_template_ip);
  4   222      dcl	   row_value_template_ip  ptr;


  4   223
  4   224 /* main execution control structure for rw_fr_build_page */
  4   225      dcl	   1 status	      aligned based (status_pointer),
  4   226 	     2 flags,
  4   227 	       3 still_formatting_detail_blocks bit (1),	/* turned on while we are doing detail blocks */
  4   228 	       3 first_row_of_report bit (1),		/* turned on when we are on the first row of a report */
  4   229 	       3 last_row_of_report bit (1),		/* turned on when we are on the last row of a report */
  4   230 	       3 first_row_on_page bit (1),		/* turned on when we are on the 1st row of a page */
  4   231 	       3 page_overflow    bit (1),		/* turned on when we are backing up */
  4   232 	       3 subtotals_ejection_in_progress bit (1),	/* turned on when subtotals are being ejected */
  4   233 	       3 subcounts_ejection_in_progress bit (1),	/* turned on when subcounts are being ejected */
  4   234 	       3 totals_ejection_in_progress bit (1),	/* turned on when totals are being ejected */
  4   235 	       3 counts_ejection_in_progress bit (1),	/* turned on when counts are being ejected */
  4   236 	       3 header_being_evaluated bit (1),	/* turned on during header evaluation */
  4   237 	       3 detail_block_used_some_lines bit (1),	/* turned on when a row header/footer/value/subtotal/total uses a line */
  4   238 	       3 row_has_been_processed_before bit (1),	/* turned on when this row has been backed out of the previous page */
  4   239 	       3 last_pass bit (1),			/* true if this is the last pass */
  4   240 	     2 previous_row_ptr   ptr,		/* points to the previous row (or null) */
  4   241 	     2 current_row_ptr    ptr,		/* points to the current row */
  4   242 	     2 next_row_ptr	      ptr,		/* points to the next row (or null) */
  4   243 	     2 total_number_of_rows_used fixed bin,	/* total # per page, used to make sure we don't */
  4   244 						/* backup over the 1st row */
  4   245 	     2 current_pass_number fixed bin,		/* [display_builtins current_pass_number] */
  4   246 	     2 current_row_number fixed bin (35),	/* [display_builtins current_row_number] */
  4   247 	     2 current_column_number fixed bin,		/* set to the current output column during row evaluation */
  4   248 	     2 current_page_number fixed bin (21),	/* [display_builtins page_number] */
  4   249 	     2 current_line_on_page fixed bin,		/* this is where the next thing is placed on the page */
  4   250 	     2 remaining_lines_on_page fixed bin,	/* used in estimating if something will fit */
  4   251 	     2 highest_row_formatted fixed bin,		/* used to keep track of rows backed out of the page */
  4   252 	     2 current_header_line fixed bin,		/* set to the current header line during header evaluation */
  4   253 	     2 current_header_part fixed bin,		/* set to the current header part during header evaluation */
  4   254 	     2 number_of_lines_needed_for_detail_block fixed bin, /* sum of row header, footer, and value */
  4   255 	     2 number_of_lines_needed_for_row_header fixed bin,   /* may be zero */
  4   256 	     2 number_of_lines_needed_for_row_value fixed bin,    /* may be zero */
  4   257 	     2 number_of_lines_needed_for_row_footer fixed bin,   /* may be zero */
  4   258 	     2 number_of_lines_needed_for_page_footer fixed bin,  /* may be zero */
  4   259 	     2 number_of_lines_needed_for_group_header fixed bin, /* may be zero */
  4   260 	     2 number_of_lines_needed_for_group_footer fixed bin, /* may be zero */
  4   261 	     2 last_row_number fixed bin (35),		        /* zero unless multi-pass */
  4   262                2 last_page_number fixed bin,		        /* zero unless multi-pass mode */
  4   263 	     2 object_being_evaluated char (16) varying;	        /* "page header", "row value", etc. */
  4   264      dcl	   status_pointer	      ptr;


  4   265
  4   266      dcl	   1 subcount_columns_info like columns_info based (subcount_columns_ip);
  4   267      dcl	   subcount_columns_ip    ptr;


  4   268
  4   269      dcl     1 subcount_generation_info like subtotal_generation_info based (subcount_generation_ip);
  4   270      dcl     subcount_generation_ip ptr;


  4   271
  4   272      dcl     1 subcount_info like subtotal_info based (subcount_ip);
  4   273      dcl     subcount_ip ptr;


  4   274
  4   275      dcl	   1 subtotal_columns_info like columns_info based (subtotal_columns_ip);
  4   276      dcl	   subtotal_columns_ip    ptr;


  4   277
  4   278 /* Used to restore subtotals when backing up on a page. */
  4   279      dcl     1 subtotal_generation_info aligned based (subtotal_generation_ip),
  4   280 	     2 maximum_number_of_generation_blocks fixed bin,  /* maximum number of subtotals possibly generated per page + 1 */
  4   281 	     2 number_of_subtotals fixed bin,		     /* # of subtotals we're taking */
  4   282 	     2 current_generation_block fixed bin,	     /* slot for next subtotal generation  */
  4   283 	     2 generations (0:sgi_init_number_of_generations
  4   284 		refer (subtotal_generation_info.maximum_number_of_generation_blocks)),
  4   285 	       3 subtotals (sgi_init_number_of_subtotals 	     /* value of the subtotals when the break occured */
  4   286 		refer (subtotal_generation_info.number_of_subtotals)) float dec (59);
  4   287 dcl sgi_init_number_of_generations fixed bin;
  4   288 dcl sgi_init_number_of_subtotals fixed bin;
  4   289 dcl subtotal_generation_ip ptr;


  4   290
  4   291      dcl	   1 subtotal_info	      aligned based (subtotal_ip),
  4   292 	     2 columns_info_ptr   ptr,			/* points to subtotal_columns_info structure */
  4   293 	     2 subtotal_generation_info_ptr ptr,		/* points to subtotal_generations_info structure */
  4   294 	     2 number_of_columns_to_subtotal fixed bin,		/* the number of subtotals */
  4   295 	     2 highest_level fixed bin,			/* the largest number of different subtotals on a single column  */
  4   296 	     2 current_level fixed bin,			/* the current level of subtotals being evaluated */
  4   297 	     2 columns	      (si_init_number_of_columns_to_subtotal
  4   298 			      refer (subtotal_info.number_of_columns_to_subtotal)),
  4   299 	       3 flags,
  4   300 	         4 reset	      bit (1) unaligned,		/* reset or running subtotals */
  4   301 	         4 group_column   bit (1) unaligned,		/* on means the watch column is a grouping column */
  4   302 	         4 available      bit (34) unaligned,
  4   303 	       3 input_column     fixed bin,			/* # of the input column for accumulations */
  4   304 	       3 watch_column     fixed bin,			/* # of the column to watch for generation */
  4   305                  3 level	      fixed bin,			/* different subtotals on the same column receive higher level numbers */
  4   306 	       3 ioa_string	      char (5) varying,		/* used to edit the "subtotal" field */
  4   307 	       3 subtotal	      float dec (59);		/* used to hold the subtotal until it needs /*
  4   308*							/* to be placed on the page */
  4   309      dcl	   si_init_number_of_columns_to_subtotal fixed bin;
  4   310      dcl	   subtotal_ip	      ptr;


  4   311
  4   312      dcl	   1 template_info	      aligned based (template_ip),	/* templates that are laid down before the column values */
  4   313 	     2 template_width     fixed bin,			/* how wide they are */
  4   314 	     2 number_of_templates fixed bin,			/* how many there are */
  4   315 	     2 templates	      (ti_init_number_of_templates refer (template_info.number_of_templates)) /* the templates */
  4   316 			      char (ti_init_template_width refer (template_info.template_width));
  4   317      dcl	   ti_init_number_of_templates fixed bin;
  4   318      dcl	   template_ip	      ptr;
  4   319      dcl	   ti_init_template_width fixed bin;


  4   320
  4   321 /* used to determine which templates have been placed */
  4   322      dcl	   template_map	      (template_map_number_of_bits) bit (1) unaligned based (template_mp);
  4   323      dcl	   template_mp	      ptr;
  4   324      dcl	   template_map_number_of_bits fixed bin;
  4   325      dcl	   template_map_defined_as_a_string bit (template_map_number_of_bits) based (template_mp);


  4   326
  4   327      dcl	   template	      char (template_length) based (template_ptr);
  4   328      dcl	   template_length	      fixed bin;
  4   329      dcl	   template_ptr	      ptr;


  4   330
  4   331      dcl	   1 title_block_columns_info like columns_info based (title_block_columns_ip); /* output columns for the titles */
  4   332      dcl	   title_block_columns_ip ptr;


  4   333
  4   334 /* holds the formatted title block after page 1 is finished */
  4   335      dcl	   1 title_block_info     aligned based (title_block_ip),
  4   336 	     2 number_of_lines    fixed bin,			/* how many lines there are */
  4   337 	     2 line_length	      fixed bin,			/* how long the lines are */
  4   338 	     2 lines	      (tbi_init_number_of_lines refer ( /* the formatted lines */
  4   339 			      title_block_info.number_of_lines)) char (tbi_init_line_length refer (
  4   340 			      title_block_info.line_length));
  4   341      dcl	   tbi_init_line_length   fixed bin;
  4   342      dcl	   tbi_init_number_of_lines fixed bin;
  4   343      dcl	   title_block_ip	      ptr;


  4   344
  4   345      dcl	   1 total_columns_info   like columns_info based (total_columns_ip); /* output_columns_info for totals */
  4   346      dcl	   total_columns_ip	      ptr;


  4   347
  4   348      dcl	   1 total_info	      aligned based (total_ip),
  4   349 	     2 columns_info_ptr   ptr,		 /* points to total_columns_info structure */
  4   350 	     2 number_of_columns_to_total fixed bin,	 /* # to total */
  4   351 	     2 columns	      (ti_init_number_of_columns_to_total
  4   352 			      refer (total_info.number_of_columns_to_total)),
  4   353 	       3 input_column     fixed bin,		 /* the input column number */
  4   354 	       3 ioa_string	      char (5) varying,	 /* used to edit the "total" field */
  4   355 	       3 total	      float dec (59);	 /* used to hold the total until it's placed on the page */
  4   356      dcl	   ti_init_number_of_columns_to_total fixed bin;
  4   357      dcl	   total_ip	      ptr;

  4   358
  4   359 /*   END INCLUDE FILE rw_report_structures.incl.pl1 */
      162


      163
      164      end rw_fr_get_page;
	SOURCE FILES USED IN THIS COMPILATION.

LINE      NUMBER  DATE MODIFIED     NAME			PATHNAME
             0    04/18/00  1142.5  rw_fr_get_page.pl1                >udd>sm>ds>w>ml>rw_fr_get_page.pl1
156          1    11/16/84  1518.1  rw_options_extents.incl.pl1       >ldd>incl>rw_options_extents.incl.pl1
158          2    11/16/84  1518.1  rw_page_info.incl.pl1             >ldd>incl>rw_page_info.incl.pl1
160          3    11/16/84  1518.0  rw_report_info.incl.pl1           >ldd>incl>rw_report_info.incl.pl1
162          4    11/16/84  1518.2  rw_report_structures.incl.pl1     >ldd>incl>rw_report_structures.incl.pl1
	NAMES DECLARED IN THIS COMPILATION.

IDENTIFIER	     OFFSET    LOC STORAGE CLASS   DATA TYPE		ATTRIBUTES AND REFERENCES
								(* indicates a set context)

NAMES DECLARED BY DECLARE STATEMENT.
NUMBER_OF_GENERAL_COLUMN_OPTIONS_IN_TABLE
                                       internal static fixed bin(17,0)          initial dcl 1-20 ref 3-7
NUMBER_OF_GENERAL_REPORT_OPTIONS_IN_TABLE
                                       internal static fixed bin(17,0)          initial dcl 1-21 ref 3-7
addrel                                                 builtin function         dcl 130 ref 88
before                                                 builtin function         dcl 132 ref 93 115
buffer_length                   000100 automatic       fixed bin(21,0)          dcl 133 set ref 56* 57* 72* 89* 89 100* 105* 119*
buffer_ptr                      000102 automatic       pointer                  dcl 134 set ref 55* 57* 71* 72* 83 88* 88 100* 104
                                                                                  114* 119* 123
buffer_word_displacement        000104 automatic       fixed bin(21,0)          dcl 135 set ref 85* 86 86* 86 88 89
code_parm                              parameter       fixed bin(35,0)          dcl 32 set ref 24 38* 49* 50 57* 59 65* 66 72* 74
                                                                                  94* 95 100* 102 116* 117 119* 121
column_info                            based           structure                level 1 dcl 4-19
columns_info                           based           structure                level 1 dcl 4-42
convert                                                builtin function         dcl 137 ref 48
divide                                                 builtin function         dcl 139 ref 85
format_report_info                     based           structure                level 1 dcl 4-74
format_report_info_ptr
                         30            based           pointer                  level 2 dcl 3-7 ref 43
format_report_ip                000216 automatic       pointer                  dcl 4-139 set ref 43* 44
formatted_page_info_ptr
                         10            based           pointer                  level 2 dcl 2-29 set ref 104*
input_string_temp_seg_ptr
                         32            based           pointer                  level 2 dcl 3-7 ref 71
iocb_ptr                        000106 automatic       pointer                  dcl 141 set ref 44* 49* 57* 65* 72* 94* 100* 116*
                                                                                  119*
iox_$read_record                000012 constant        entry                    external dcl 143 ref 57 72 100 119
iox_$seek_key                   000010 constant        entry                    external dcl 142 ref 49 65 94 116
ltrim                                                  builtin function         dcl 145 ref 48
mod                                                    builtin function         dcl 147 ref 86
null                                                   builtin function         dcl 149 ref 39 112 3-61
output_string_temp_seg_ptr
                         34            based           pointer                  level 2 dcl 3-7 ref 114
page_info                              based           structure                level 1 dcl 2-29
page_ip                         000212 automatic       pointer                  dcl 2-41 set ref 83* 84 104 112 123 126
page_ip_parm                           parameter       pointer                  dcl 34 set ref 24 39* 126*
page_number_parm                       parameter       fixed bin(21,0)          dcl 33 ref 24 48
page_overstrike_info_ptr
                          6            based           pointer                  level 2 dcl 2-29 set ref 112 123*
page_ptr                  4            based           pointer                  level 2 dcl 2-29 set ref 84*
record_key                      000110 automatic       varying char(256)        dcl 151 set ref 48* 48 49* 64* 64 65* 93* 93 94*
                                                                                  115* 115 116*
record_length                   000211 automatic       fixed bin(21,0)          dcl 152 set ref 49* 57* 65* 72* 85 94* 100* 116*
                                                                                  119*
report_cip                      000214 automatic       pointer                  initial dcl 3-61 set ref 37* 43 55 71 84 114 3-61*
report_cip_parm                        parameter       pointer                  dcl 35 ref 24 37
report_control_info                    based           structure                level 1 dcl 3-7
report_iocb_ptr           6            based           pointer                  level 2 dcl 4-74 ref 44
report_temp_seg_ptr      24            based           pointer                  level 2 dcl 3-7 ref 55 84
subtotal_generation_info               based           structure                level 1 dcl 4-279
subtotal_info                          based           structure                level 1 dcl 4-291
sys_info$max_seg_size           000014 external static fixed bin(35,0)          dcl 154 ref 56 105
template_info                          based           structure                level 1 dcl 4-312
total_info                             based           structure                level 1 dcl 4-348

NAMES DECLARED BY DECLARE STATEMENT AND NEVER REFERENCED.
BIT_DATA_TYPE                          internal static fixed bin(17,0)          initial dcl 4-9
BOTH_ALIGNMENT                         internal static fixed bin(17,0)          initial dcl 4-10
CENTER_ALIGNMENT                       internal static fixed bin(17,0)          initial dcl 4-11
CHAR_DATA_TYPE                         internal static fixed bin(17,0)          initial dcl 4-12
DECIMAL_ALIGNMENT                      internal static fixed bin(17,0)          initial dcl 4-13
DECIMAL_DATA_TYPE                      internal static fixed bin(17,0)          initial dcl 4-14
GENERAL_COLUMN_OPTION                  internal static fixed bin(17,0)          initial dcl 1-15
GENERAL_REPORT_OPTION                  internal static fixed bin(17,0)          initial dcl 1-14
INDEX_FOR_ALIGNMENT                    internal static fixed bin(17,0)          initial dcl 1-66
INDEX_FOR_COLUMN_ORDER                 internal static fixed bin(17,0)          initial dcl 1-50
INDEX_FOR_COUNT                        internal static fixed bin(17,0)          initial dcl 1-51
INDEX_FOR_DELIMITER                    internal static fixed bin(17,0)          initial dcl 1-40
INDEX_FOR_EDITING                      internal static fixed bin(17,0)          initial dcl 1-67
INDEX_FOR_EXCLUDE                      internal static fixed bin(17,0)          initial dcl 1-52
INDEX_FOR_FOLDING                      internal static fixed bin(17,0)          initial dcl 1-68
INDEX_FOR_FORMAT_DOCUMENT_CONTROLS     internal static fixed bin(17,0)          initial dcl 1-41
INDEX_FOR_GROUP                        internal static fixed bin(17,0)          initial dcl 1-53
INDEX_FOR_GROUP_FOOTER_TRIGGER         internal static fixed bin(17,0)          initial dcl 1-54
INDEX_FOR_GROUP_FOOTER_VALUE           internal static fixed bin(17,0)          initial dcl 1-55
INDEX_FOR_GROUP_HEADER_TRIGGER         internal static fixed bin(17,0)          initial dcl 1-56
INDEX_FOR_GROUP_HEADER_VALUE           internal static fixed bin(17,0)          initial dcl 1-57
INDEX_FOR_HYPHENATION                  internal static fixed bin(17,0)          initial dcl 1-42
INDEX_FOR_OUTLINE                      internal static fixed bin(17,0)          initial dcl 1-58
INDEX_FOR_PAGE_BREAK                   internal static fixed bin(17,0)          initial dcl 1-59
INDEX_FOR_PAGE_FOOTER_VALUE            internal static fixed bin(17,0)          initial dcl 1-43
INDEX_FOR_PAGE_HEADER_VALUE            internal static fixed bin(17,0)          initial dcl 1-44
INDEX_FOR_PAGE_LENGTH                  internal static fixed bin(17,0)          initial dcl 1-45
INDEX_FOR_PAGE_WIDTH                   internal static fixed bin(17,0)          initial dcl 1-46
INDEX_FOR_ROW_FOOTER_VALUE             internal static fixed bin(17,0)          initial dcl 1-60
INDEX_FOR_ROW_HEADER_VALUE             internal static fixed bin(17,0)          initial dcl 1-61
INDEX_FOR_SEPARATOR                    internal static fixed bin(17,0)          initial dcl 1-69
INDEX_FOR_SUBCOUNT                     internal static fixed bin(17,0)          initial dcl 1-62
INDEX_FOR_SUBTOTAL                     internal static fixed bin(17,0)          initial dcl 1-63
INDEX_FOR_TITLE                        internal static fixed bin(17,0)          initial dcl 1-70
INDEX_FOR_TITLE_LINE                   internal static fixed bin(17,0)          initial dcl 1-47
INDEX_FOR_TOTAL                        internal static fixed bin(17,0)          initial dcl 1-64
INDEX_FOR_TRUNCATION                   internal static fixed bin(17,0)          initial dcl 1-48
INDEX_FOR_WIDTH                        internal static fixed bin(17,0)          initial dcl 1-71
LEFT_ALIGNMENT                         internal static fixed bin(17,0)          initial dcl 4-15
LONGEST_GENERAL_COLUMN_OPTION_NAME_LENGTH
                                       internal static fixed bin(17,0)          initial dcl 1-28
LONGEST_GENERAL_REPORT_OPTION_NAME_LENGTH
                                       internal static fixed bin(17,0)          initial dcl 1-27
LONGEST_SPECIFIC_COLUMN_OPTION_NAME_LENGTH
                                       internal static fixed bin(17,0)          initial dcl 1-26
MAXIMUM_NORMALIZED_OPTION_NAME_LENGTH  internal static fixed bin(17,0)          initial dcl 1-32
MAXIMUM_OPTION_IDENTIFIER_LENGTH       internal static fixed bin(17,0)          initial dcl 1-34
MAXIMUM_OPTION_NAME_LENGTH             internal static fixed bin(17,0)          initial dcl 1-35
MAXIMUM_OPTION_VALUE_LENGTH            internal static fixed bin(17,0)          initial dcl 1-36
NUMBER_OF_SPECIFIC_COLUMN_OPTIONS_IN_TABLE
                                       internal static fixed bin(17,0)          initial dcl 1-22
NUMERIC_DATA_TYPE                      internal static fixed bin(17,0)          initial dcl 4-16
RIGHT_ALIGNMENT                        internal static fixed bin(17,0)          initial dcl 4-17
SPECIFIC_COLUMN_OPTION                 internal static fixed bin(17,0)          initial dcl 1-16
column_ip                              automatic       pointer                  dcl 4-40
column_map                             based           structure                array level 1 dcl 4-48
column_map_number_of_columns           automatic       fixed bin(17,0)          dcl 4-51
column_mp                              automatic       pointer                  dcl 4-52
columns_ip                             automatic       pointer                  dcl 4-46
count_columns_info                     based           structure                level 1 unaligned dcl 4-54
count_columns_ip                       automatic       pointer                  dcl 4-55
count_info                             based           structure                level 1 unaligned dcl 4-57
count_ip                               automatic       pointer                  dcl 4-58
current_row_value                      based           char                     packed unaligned dcl 4-61
editing_string_result                  based           char                     packed unaligned dcl 4-64
editing_string_rl                      automatic       fixed bin(17,0)          dcl 4-65
editing_string_rp                      automatic       pointer                  dcl 4-66
editing_strings_next_byte              automatic       fixed bin(21,0)          dcl 4-68
editing_strings_temp_seg               based           char                     packed unaligned dcl 4-70
editing_strings_temp_seg_as_an_array   based           char(1)                  array packed unaligned dcl 4-71
editing_strings_tsp                    automatic       pointer                  dcl 4-72
formatted_page_info                    based           structure                level 1 dcl 2-7
formatted_page_ip                      automatic       pointer                  dcl 2-26
fpi_init_maximum_number_of_detail_blocks
                                       automatic       fixed bin(17,0)          dcl 2-27
generic_template                       based           char                     packed unaligned dcl 4-142
generic_template_length                automatic       fixed bin(17,0)          dcl 4-143
generic_tp                             automatic       pointer                  dcl 4-144
gi_init_number_of_columns_to_group     automatic       fixed bin(17,0)          dcl 4-151
group_info                             based           structure                level 1 dcl 4-147
group_ip                               automatic       pointer                  dcl 4-152
header_info                            based           structure                level 1 dcl 4-160
header_ip                              automatic       pointer                  dcl 4-176
headers_next_byte                      automatic       fixed bin(21,0)          dcl 4-154
headers_temp_seg                       based           char                     packed unaligned dcl 4-156
headers_temp_seg_as_an_array           based           char(1)                  array packed unaligned dcl 4-157
headers_tsp                            automatic       pointer                  dcl 4-158
hi_init_maximum_number_of_parts        automatic       fixed bin(17,0)          dcl 4-177
hi_init_number_of_lines                automatic       fixed bin(17,0)          dcl 4-178
initialize_number_of_columns           automatic       fixed bin(17,0)          dcl 4-180
input_columns_info                     based           structure                level 1 dcl 4-182
input_columns_ip                       automatic       pointer                  dcl 4-183
input_columns_op                       automatic       pointer                  dcl 4-186
input_columns_order                    based           fixed bin(17,0)          array dcl 4-185
maximum_segment_size                   automatic       fixed bin(21,0)          dcl 4-188
next_row_value                         based           char                     packed unaligned dcl 4-191
oi_init_maximum_number_of_grouping_columns
                                       automatic       fixed bin(17,0)          dcl 4-202
oi_init_maximum_number_of_single_columns
                                       automatic       fixed bin(17,0)          dcl 4-203
outline_info                           based           structure                level 1 dcl 4-193
outline_ip                             automatic       pointer                  dcl 4-204
output_columns_info                    based           structure                level 1 unaligned dcl 4-206
output_columns_ip                      automatic       pointer                  dcl 4-207
page_break_info                        based           structure                level 1 dcl 4-210
page_break_ip                          automatic       pointer                  dcl 4-214
page_defined_as_a_string               based           char                     packed unaligned dcl 2-40
page_defined_as_chars                  based           char(1)                  array packed unaligned dcl 2-38
page_defined_as_lines                  based           char                     array packed unaligned dcl 2-39
page_overstrike_info                   based           structure                level 1 dcl 2-43
page_overstrike_info_redefined         based           structure                level 1 dcl 2-51
page_overstrike_ip                     automatic       pointer                  dcl 2-49
pbi_init_number_of_columns             automatic       fixed bin(17,0)          dcl 4-215
previous_row_value                     based           char                     packed unaligned dcl 4-218
row_value_template_info                based           structure                level 1 unaligned dcl 4-221
row_value_template_ip                  automatic       pointer                  dcl 4-222
sgi_init_number_of_generations         automatic       fixed bin(17,0)          dcl 4-287
sgi_init_number_of_subtotals           automatic       fixed bin(17,0)          dcl 4-288
si_init_number_of_columns_to_subtotal  automatic       fixed bin(17,0)          dcl 4-309
status                                 based           structure                level 1 dcl 4-225
status_pointer                         automatic       pointer                  dcl 4-264
subcount_columns_info                  based           structure                level 1 unaligned dcl 4-266
subcount_columns_ip                    automatic       pointer                  dcl 4-267
subcount_generation_info               based           structure                level 1 unaligned dcl 4-269
subcount_generation_ip                 automatic       pointer                  dcl 4-270
subcount_info                          based           structure                level 1 unaligned dcl 4-272
subcount_ip                            automatic       pointer                  dcl 4-273
subtotal_columns_info                  based           structure                level 1 unaligned dcl 4-275
subtotal_columns_ip                    automatic       pointer                  dcl 4-276
subtotal_generation_ip                 automatic       pointer                  dcl 4-289
subtotal_ip                            automatic       pointer                  dcl 4-310
tbi_init_line_length                   automatic       fixed bin(17,0)          dcl 4-341
tbi_init_number_of_lines               automatic       fixed bin(17,0)          dcl 4-342
template                               based           char                     packed unaligned dcl 4-327
template_ip                            automatic       pointer                  dcl 4-318
template_length                        automatic       fixed bin(17,0)          dcl 4-328
template_map                           based           bit(1)                   array packed unaligned dcl 4-322
template_map_defined_as_a_string       based           bit                      packed unaligned dcl 4-325
template_map_number_of_bits            automatic       fixed bin(17,0)          dcl 4-324
template_mp                            automatic       pointer                  dcl 4-323
template_ptr                           automatic       pointer                  dcl 4-329
ti_init_number_of_columns_to_total     automatic       fixed bin(17,0)          dcl 4-356
ti_init_number_of_templates            automatic       fixed bin(17,0)          dcl 4-317
ti_init_template_width                 automatic       fixed bin(17,0)          dcl 4-319
title_block_columns_info               based           structure                level 1 unaligned dcl 4-331
title_block_columns_ip                 automatic       pointer                  dcl 4-332
title_block_info                       based           structure                level 1 dcl 4-335
title_block_ip                         automatic       pointer                  dcl 4-343
total_columns_info                     based           structure                level 1 unaligned dcl 4-345
total_columns_ip                       automatic       pointer                  dcl 4-346
total_ip                               automatic       pointer                  dcl 4-357

NAME DECLARED BY EXPLICIT CONTEXT.
rw_fr_get_page                  000031 constant        entry                    external dcl 24

THERE WERE NO NAMES DECLARED BY CONTEXT OR IMPLICATION.

STORAGE REQUIREMENTS FOR THIS PROGRAM.

	Object	Text	Link	Symbol	Defs	Static
Start          0       0       544         562     467         554
Length      1022     467        16         223      55           0

BLOCK NAME	         STACK SIZE     TYPE		WHY NONQUICK/WHO SHARES STACK FRAME
rw_fr_get_page                      174 external procedure  is an external procedure.

STORAGE FOR AUTOMATIC VARIABLES.

STACK FRAME                 LOC IDENTIFIER                  BLOCK NAME
rw_fr_get_page           000100 buffer_length               rw_fr_get_page
                         000102 buffer_ptr                  rw_fr_get_page
                         000104 buffer_word_displacement    rw_fr_get_page
                         000106 iocb_ptr                    rw_fr_get_page
                         000110 record_key                  rw_fr_get_page
                         000211 record_length               rw_fr_get_page
                         000212 page_ip                     rw_fr_get_page
                         000214 report_cip                  rw_fr_get_page
                         000216 format_report_ip            rw_fr_get_page

THE FOLLOWING EXTERNAL OPERATORS ARE USED BY THIS PROGRAM.
alloc_char_temp     call_ext_out        return_mac          mdfx1               shorten_stack       ext_entry

THE FOLLOWING EXTERNAL ENTRIES ARE CALLED BY THIS PROGRAM.
iox_$read_record              iox_$seek_key

THE FOLLOWING EXTERNAL VARIABLES ARE USED BY THIS PROGRAM.
sys_info$max_seg_size


   LINE    LOC      LINE    LOC      LINE    LOC      LINE    LOC      LINE    LOC      LINE    LOC      LINE    LOC
     24 000024    3   61 000036        37 000040        38 000044        39 000045        43 000046        44 000050
     48 000052        49 000103        50 000117        55 000122        56 000125        57 000131        59 000147
     64 000152        65 000164        66 000201        71 000204        72 000207        74 000226        83 000231
     84 000233        85 000237        86 000243        88 000247        89 000252        93 000256        94 000305
     95 000323       100 000326       102 000345       104 000350       105 000353       112 000357       114 000363
    115 000366       116 000415       117 000432       119 000435       121 000454       123 000457       126 000462
    128 000463


                                          -----------------------------------------------------------


Historical Background

This edition of the Multics software materials and documentation is provided and donated
to Massachusetts Institute of Technology by Group BULL including BULL HN Information Systems Inc.
as a contribution to computer science knowledge.
This donation is made also to give evidence of the common contributions of Massachusetts Institute of Technology,
Bell Laboratories, General Electric, Honeywell Information Systems Inc., Honeywell BULL Inc., Groupe BULL
and BULL HN Information Systems Inc. to the development of this operating system.
Multics development was initiated by Massachusetts Institute of Technology Project MAC (1963-1970),
renamed the MIT Laboratory for Computer Science and Artificial Intelligence in the mid 1970s, under the leadership
of Professor Fernando Jose Corbato. Users consider that Multics provided the best software architecture
for managing computer hardware properly and for executing programs. Many subsequent operating systems
incorporated Multics principles.
Multics was distributed in 1975 to 2000 by Group Bull in Europe , and in the U.S. by Bull HN Information Systems Inc.,
as successor in interest by change in name only to Honeywell Bull Inc. and Honeywell Information Systems Inc. .

                                          -----------------------------------------------------------

Permission to use, copy, modify, and distribute these programs and their documentation for any purpose and without
fee is hereby granted,provided that the below copyright notice and historical background appear in all copies
and that both the copyright notice and historical background and this permission notice appear in supporting
documentation, and that the names of MIT, HIS, BULL or BULL HN not be used in advertising or publicity pertaining
to distribution of the programs without specific prior written permission.
    Copyright 1972 by Massachusetts Institute of Technology and Honeywell Information Systems Inc.
    Copyright 2006 by BULL HN Information Systems Inc.
    Copyright 2006 by Bull SAS
    All Rights Reserved
