	COMPILATION LISTING OF SEGMENT simplify_expression
	Compiled by: Multics PL/I Compiler, Release 33e, of October 6, 1992
	Compiled at: CGI
	Compiled on: 2000-04-18_1147.39_Tue_mdt
	    Options: optimize map

        1 /* ***********************************************************
        2*   *                                                         *
        3*   * Copyright, (C) Honeywell Information Systems Inc., 1982 *
        4*   *                                                         *
        5*   * Copyright (c) 1972 by Massachusetts Institute of        *
        6*   * Technology and Honeywell Information Systems, Inc.      *
        7*   *                                                         *
        8*   *********************************************************** */
        9
       10
       11 simplify_expression:	proc(input_tree,constant,input_tree_modified);
       12
       13 dcl	(input_tree,tree,s) ptr;
       14
       15 dcl	(i,constant,const(2:3)) fixed bin;
       16 dcl	fix_bin fixed bin based;
       17
       18 dcl	(input_tree_modified,modified(2:3)) bit(1) aligned;
       19
       20 dcl	null builtin;
       21
       22 	tree = input_tree;
       23
       24 	constant = 0;
       25
       26 	input_tree_modified = "0"b;
       27
       28 	if tree->node.type = reference_node
       29 	then do;
       30 		s = tree->reference.symbol;
       31
       32 		if	s->node.type = symbol_node
       33 		then if	s->symbol.constant
       34 		then if	s->symbol.fixed
       35 		then if	s->symbol.binary
       36 		then if	s->symbol.c_word_size = words_per_fix_bin_1
       37 		then if	s->symbol.scale = 0
       38 		then do;
       39 			constant = s->symbol.initial->fix_bin;
       40 			input_tree_modified = "1"b;
       41 		end;
       42
       43 		return;
       44 	end;
       45
       46 	if tree->node.type ^= operator_node
       47 	then	return;
       48
       49 	if tree->operator.op_code^=add
       50 	&  tree->operator.op_code^=sub
       51 	&  tree->operator.op_code^=mult
       52 	then	return;
       53
       54 	do i = 2 to tree->operator.number;
       55 		call simplify_expression((tree->operand(i)),const(i),modified(i));
       56 	end;
       57
       58 	if modified(2)
       59 	&  modified(3)
       60 	then do;
       61 		if tree->operator.op_code=add
       62 		then	constant = const(2)+const(3);
       63 		else
       64
       65 		if tree->operator.op_code=sub
       66 		then	constant = const(2)-const(3);
       67 		else	constant = const(2)*const(3);
       68
       69 		input_tree_modified = "1"b;
       70
       71 		return;
       72 	end;
       73
       74 	do i=2 to 3;
       75 		if modified(i)
       76 		then	if tree->operand(i)->node.type = operator_node
       77 			then	tree->operand(i) = declare_constant$integer((const(i)));
       78 	end;
       79
       80 	return;
       81
  1     1 /****^  *********************************************************
  1     2*        *                                                       *
  1     3*        * Copyright, (C) BULL HN Information Systems Inc., 1989 *
  1     4*        *                                                       *
  1     5*        ********************************************************* */
  1     6
  1     7 /* BEGIN INCLUDE FILE ... language_utility.incl.pl1 */
  1     8
  1     9
  1    10 /****^  HISTORY COMMENTS:
  1    11*  1) change(89-07-10,RWaters), approve(89-07-10,MCR8118), audit(89-07-19,Vu),
  1    12*     install(89-07-31,MR12.3-1066):
  1    13*     Removed the obsolete parameter source_line from the dcl of error_().
  1    14*                                                   END HISTORY COMMENTS */
  1    15
  1    16 /* Modified: 6 Jun 1979 by PG to add rank and byte
  1    17* * Modified: 9 Jul 1989 by RW updated the declaration of error_
  1    18* */
  1    19
  1    20 declare	adjust_count	entry(pointer);
  1    21 			/* parameter 1:	(input)	any node pointer		*/
  1    22
  1    23 declare	bindec		entry(fixed bin(31)) reducible
  1    24 			returns(character(12) aligned);
  1    25 			/* parameter 1:	(input)	bin value			*/
  1    26 			/* return:	(output)	character value with blanks	*/
  1    27
  1    28 declare	bindec$vs		entry(fixed bin(31)) reducible
  1    29 			returns(character(12) aligned varying);
  1    30 			/* parameter 1:	(input)	binary value		*/
  1    31 			/* return:	(output)	char value without blanks	*/
  1    32
  1    33 declare	binoct		entry(fixed bin(31)) reducible
  1    34 			returns(char(12) aligned);
  1    35 			/* parameter 1:	(input)	binary value		*/
  1    36 			/* return:	(output)	char value with blanks	*/
  1    37
  1    38 declare	binary_to_octal_string	entry(fixed bin(31)) reducible
  1    39 			returns(char(12) aligned);
  1    40 			/* parameter 1:	(input)	binary value		*/
  1    41 			/* return:	(output)	right-aligned char value	*/
  1    42
  1    43 declare	binary_to_octal_var_string	entry(fixed bin(31)) reducible
  1    44 			returns(char(12) varying aligned);
  1    45 			/* parameter 1:	(input)	binary value		*/
  1    46 			/* returns:	(output)	char value without blanks	*/
  1    47
  1    48 declare	compare_expression	entry(pointer,pointer) reducible
  1    49 			returns(bit(1) aligned);
  1    50 			/* parameter 1:	(input)	any node pointer		*/
  1    51 			/* parameter 2:	(input)	any node pointer		*/
  1    52 			/* return:	(output)	compare bit		*/
  1    53
  1    54 declare	constant_length	entry (pointer, fixed bin (71))
  1    55 			returns (bit (1) aligned);
  1    56 			/* parameter 1:	(input)	reference node pointer	*/
  1    57 			/* parameter 2:	(input)	value of constant length	*/
  1    58 			/* return:	(output)	"1"b if constant length	*/
  1    59
  1    60 declare	convert		entry(pointer,bit(36) aligned)
  1    61 			returns(pointer);
  1    62 			/* parameter 1:	(input)	any node pointer		*/
  1    63 			/* parameter 2:	(input)	target type		*/
  1    64 			/* return:	(output)	target value tree pointer	*/
  1    65
  1    66 declare	convert$to_integer	entry(pointer,bit(36)aligned)
  1    67 			returns(pointer);
  1    68 			/* parameter 1:	(input)	any node pointer		*/
  1    69 			/* parameter 2:	(input)	target type		*/
  1    70 			/* return:	(output)	target value tree pointer	*/
  1    71
  1    72 declare	convert$from_builtin entry(pointer,bit(36) aligned)
  1    73 			returns(pointer);
  1    74 			/* parameter 1:	(input)	any node pointer		*/
  1    75 			/* parameter 2:	(input)	target type		*/
  1    76 			/* return:	(output)	target value tree pointer	*/
  1    77
  1    78 declare	convert$validate	entry(pointer,pointer);
  1    79 			/* parameter 1:	(input)	source value tree pointer	*/
  1    80 			/* parameter 2:	(input)	target reference node pointer	*/
  1    81
  1    82 declare	convert$to_target_fb entry(pointer,pointer)
  1    83 			returns(pointer);
  1    84 			/* parameter 1:	(input)	source value tree pointer	*/
  1    85 			/* parameter 2:	(input)	target reference node pointer	*/
  1    86 			/* return:	(output)	target value tree pointer	*/
  1    87
  1    88 declare	convert$to_target	entry(pointer,pointer)
  1    89 			returns(pointer);
  1    90 			/* parameter 1:	(input)	source value tree pointer	*/
  1    91 			/* parameter 2:	(input)	target reference node pointer	*/
  1    92 			/* return:	(output)	target value tree pointer	*/
  1    93
  1    94 declare	copy_expression	entry(pointer unaligned)
  1    95 			returns(pointer);
  1    96 			/* parameter 1:	(input)	any node pointer		*/
  1    97 			/* return:	(output)	any node pointer		*/
  1    98
  1    99 declare	copy_expression$copy_sons entry(pointer,pointer);
  1   100 			/* parameter 1:	(input)	father symbol node pointer	*/
  1   101 			/* parameter 2:	(input)	stepfather symbol node ptr	*/
  1   102
  1   103 declare	copy_unique_expression entry(pointer)
  1   104 			returns(pointer);
  1   105 			/* parameter 1:	(input)	any node pointer		*/
  1   106 			/* return:	(output)	any node pointer		*/
  1   107
  1   108 declare	create_array	entry()
  1   109 			returns(pointer);
  1   110 			/* return:	(output)	array node pointer		*/
  1   111
  1   112 declare	create_block	entry(bit(9) aligned,pointer)
  1   113 			returns(pointer);
  1   114 			/* parameter 1:	(input)	block type		*/
  1   115 			/* parameter 2:	(input)	father block node pointer	*/
  1   116 			/* return:	(output)	block node pointer		*/
  1   117
  1   118 declare	create_bound	entry()
  1   119 			returns(pointer);
  1   120 			/* return:	(output)	bound node pointer		*/
  1   121
  1   122 declare	create_context	entry(pointer,pointer)
  1   123 			returns(pointer);
  1   124 			/* parameter 1:	(input)	block node pointer		*/
  1   125 			/* parameter 2:	(input)	token pointer		*/
  1   126 			/* return:	(output)	context node pointer	*/
  1   127
  1   128 declare	create_cross_reference entry()
  1   129 			returns(pointer);
  1   130 			/* return:	(output)	cross reference node pointer	*/
  1   131
  1   132 declare	create_default	entry
  1   133 			returns(pointer);
  1   134 			/* return:	(output)	default node pointer	*/
  1   135
  1   136 declare	create_identifier	entry()
  1   137 			returns(pointer);
  1   138 			/* return:	(output)	token node pointer		*/
  1   139
  1   140 declare	create_label	entry(pointer,pointer,bit(3) aligned)
  1   141 			returns(pointer);
  1   142 			/* parameter 1:	(input)	block node pointer		*/
  1   143 			/* parameter 2:	(input)	token node pointer		*/
  1   144 			/* parameter 3:	(input)	declare type		*/
  1   145 			/* return:	(output)	label node pointer		*/
  1   146
  1   147 declare	create_list	entry(fixed bin(15))
  1   148 			returns(pointer);
  1   149 			/* parameter 1:	(input)	number of list elements	*/
  1   150 			/* return:	(output)	list node pointer		*/
  1   151
  1   152 declare	create_operator	entry(bit(9) aligned,fixed bin(15))
  1   153 			returns(pointer);
  1   154 			/* parameter 1:	(input)	operator type		*/
  1   155 			/* parameter 2:	(input)	number of operands		*/
  1   156 			/* return:	(output)	operator node pointer	*/
  1   157
  1   158 declare	create_reference	entry(pointer)
  1   159 			returns(pointer);
  1   160 			/* parameter 1:	(input)	symbol node pointer		*/
  1   161 			/* return:	(output)	reference node pointer	*/
  1   162
  1   163 declare	create_statement	entry(bit(9) aligned,pointer,pointer,bit(12) aligned)
  1   164 			returns(pointer);
  1   165 			/* parameter 1:	(input)	statement type		*/
  1   166 			/* parameter 2:	(input)	block node pointer		*/
  1   167 			/* parameter 3:	(input)	label node pointer		*/
  1   168 			/* parameter 4:	(input)	conditions		*/
  1   169 			/* return:	(output)	statement node pointer	*/
  1   170
  1   171 declare	create_statement$prologue entry(bit(9) aligned,pointer,pointer,bit(12) aligned)
  1   172 			returns(pointer);
  1   173 			/* parameter 1:	(input)	statement type		*/
  1   174 			/* parameter 2:	(input)	block node pointer		*/
  1   175 			/* parameter 3:	(input)	label node pointer		*/
  1   176 			/* parameter 4:	(input)	conditions		*/
  1   177 			/* return:	(output)	statement node pointer	*/
  1   178
  1   179 declare	create_storage	entry(fixed bin(15))
  1   180 			returns(pointer);
  1   181 			/* parameter 1:	(input)	number of words		*/
  1   182 			/* return:	(output)	storage block pointer	*/
  1   183
  1   184 declare	create_symbol	entry(pointer,pointer,bit(3) aligned)
  1   185 			returns(pointer);
  1   186 			/* parameter 1:	(input)	block node pointer		*/
  1   187 			/* parameter 2:	(input)	token node pointer		*/
  1   188 			/* parameter 3:	(input)	declare type		*/
  1   189 			/* return:	(output)	symbol node pointer		*/
  1   190
  1   191 declare	create_token	entry (character (*), bit (9) aligned)
  1   192 			returns (ptr);
  1   193 			/* parameter 1:	(input)	token string		*/
  1   194 			/* parameter 2:	(input)	token type		*/
  1   195 			/* return:	(output)	token node ptr		*/
  1   196
  1   197 declare	create_token$init_hash_table entry ();
  1   198
  1   199 declare	create_token$protected entry (char (*), bit (9) aligned, bit (18) aligned)
  1   200 			returns (ptr);
  1   201 			/* parameter 1:	(input)	token string		*/
  1   202 			/* parameter 2:	(input)	token type		*/
  1   203 			/* parameter 3:	(input)	protected flag		*/
  1   204 			/* return:	(output)	token node ptr		*/
  1   205
  1   206 declare	decbin		entry(character(*) aligned) reducible
  1   207 			returns(fixed bin(31));
  1   208 			/* parameter 1:	(input)	decimal character string	*/
  1   209 			/* return:	(output)	binary value		*/
  1   210
  1   211 declare	declare_constant	entry(bit(*) aligned,bit(36) aligned,fixed bin(31),fixed bin(15))
  1   212 			returns(pointer);
  1   213 			/* parameter 1:	(input)	value			*/
  1   214 			/* parameter 2:	(input)	type			*/
  1   215 			/* parameter 3:	(input)	size			*/
  1   216 			/* parameter 4:	(input)	scale			*/
  1   217 			/* return:	(output)	reference node pointer	*/
  1   218
  1   219 declare	declare_constant$bit entry(bit(*) aligned)
  1   220 			returns(pointer);
  1   221 			/* parameter 1:	(input)	bit			*/
  1   222 			/* return:	(output)	reference node pointer	*/
  1   223
  1   224 declare	declare_constant$char entry(character(*) aligned)
  1   225 			returns(pointer);
  1   226 			/* parameter 1:	(input)	character			*/
  1   227 			/* return:	(output)	reference node pointer	*/
  1   228
  1   229 declare	declare_constant$desc entry(bit(*) aligned)
  1   230 			returns(pointer);
  1   231 			/* parameter 1:	(input)	descriptor bit value	*/
  1   232 			/* return:	(output)	reference node pointer	*/
  1   233
  1   234 declare	declare_constant$integer entry(fixed bin(31))	/* note...should really be fixed bin(24) */
  1   235 			returns(pointer);
  1   236 			/* parameter 1:	(input)	integer			*/
  1   237 			/* return:	(output)	reference node pointer	*/
  1   238
  1   239 declare	declare_descriptor	entry(pointer,pointer,pointer,pointer,bit(2) aligned)
  1   240 			returns(pointer);
  1   241 			/* parameter 1:	(input)	block node pointer		*/
  1   242 			/* parameter 2:	(input)	statement node pointer	*/
  1   243 			/* parameter 3:	(input)	symbol node pointer		*/
  1   244 			/* parameter 4:	(input)	loc pointer		*/
  1   245 			/* parameter 5:	(input)	array descriptor bit
  1   246*						cross_section bit	*/
  1   247 			/* return:	(output)	reference node pointer	*/
  1   248
  1   249 declare	declare_descriptor$ctl entry(pointer,pointer,pointer,pointer,bit(2) aligned)
  1   250 			returns(pointer);
  1   251 			/* parameter 1:	(input)	block node pointer	*/
  1   252 			/* parameter 2:	(input)	statement node pointer 	*/
  1   253 			/* parameter 3:	(input)	symbol node pointer	*/
  1   254 			/* parameter 4:	(input)	loc pointer	*/
  1   255 			/* parameter 5:	(input)	array descriptor bit
  1   256*						cross_section bit	*/
  1   257 			/* return:	(output)	reference node pointer	*/
  1   258
  1   259 declare	declare_descriptor$param entry(pointer,pointer,pointer,pointer,bit(2) aligned)
  1   260 			returns(pointer);
  1   261 			/* parameter 1:	(input)	block node pointer		*/
  1   262 			/* parameter 2:	(input)	statement node pointer	*/
  1   263 			/* parameter 3:	(input)	symbol node pointer		*/
  1   264 			/* parameter 4:	(input)	loc pointer		*/
  1   265 			/* parameter 5:	(input)	array descriptor bit
  1   266*						cross_section bit	*/
  1   267 			/* return:	(output)	reference node pointer	*/
  1   268
  1   269 declare	declare_integer	entry(pointer)
  1   270 			returns(pointer);
  1   271 			/* parameter 1:	(input)	block node pointer		*/
  1   272 			/* return:	(output)	reference node pointer 	*/
  1   273
  1   274 declare	declare_picture	entry(char(*)aligned,pointer,fixed bin(15));
  1   275 			/* parameter 1:	(input)	picture string		*/
  1   276 			/* parameter 2:	(input)	symbol node pointer		*/
  1   277 			/* parameter 3:	(output)	error code, if any		*/
  1   278
  1   279 declare	declare_picture_temp entry(char(*) aligned,fixed bin(31),bit(1) aligned,bit(1) aligned)
  1   280 			returns(pointer);
  1   281 			/* parameter 1:	(input)	picture string		*/
  1   282 			/* parameter 2:	(input)	scalefactor of picture	*/
  1   283 			/* parameter 3:	(input)	="1"b => complex picture	*/
  1   284 			/* parameter 4:	(input)	="1"b => unaligned temp	*/
  1   285 			/* return:	(output)	reference node pointer	*/
  1   286
  1   287 declare	declare_pointer	entry(pointer)
  1   288 			returns(pointer);
  1   289 			/* parameter 1:	(input)	block node pointer		*/
  1   290 			/* return:	(output)	reference node pointer	*/
  1   291
  1   292 declare	declare_temporary	entry(bit(36) aligned,fixed bin(31),fixed bin(15),pointer)
  1   293 			returns(pointer);
  1   294 			/* parameter 1:	(input)	type			*/
  1   295 			/* parameter 2:	(input)	precision			*/
  1   296 			/* parameter 3:	(input)	scale			*/
  1   297 			/* parameter 4:	(input)	length			*/
  1   298 			/* return:	(output)	reference node pointer	*/
  1   299
  1   300 declare	decode_node_id	entry(pointer,bit(1) aligned)
  1   301 			returns(char(120) varying);
  1   302 			/* parameter 1:	(input)	node pointer		*/
  1   303 			/* parameter 2:	(input)	="1"b => capitals		*/
  1   304 			/* return:	(output)	source line id		*/
  1   305
  1   306 declare	decode_source_id	entry(
  2     1 			1 structure unaligned,
  2     2 			  2 /* file_number */	bit(8),
  2     3 			  2 /* line_number */	bit(14),
  2     4 			  2 /* stmt_number */	bit(5),
  1   307
  1   308 			bit(1) aligned)
  1   309 			returns(char(120) varying);
  1   310 			/* parameter 1:	(input)	source id			*/
  1   311 			/* parameter 2:	(input)	="1"b => capitals		*/
  1   312 			/* return:	(output)	source line id		*/
  1   313
  1   314 declare	error		entry(fixed bin(15),pointer,pointer);
  1   315 			/* parameter 1:	(input)	error number		*/
  1   316 			/* parameter 2:	(input)	statement node pointer or null*/
  1   317 			/* parameter 3:	(input)	token node pointer 		*/
  1   318
  1   319 declare	error$omit_text	entry(fixed bin(15),pointer,pointer);
  1   320 			/* parameter 1:	(input)	error number		*/
  1   321 			/* parameter 2:	(input)	statement node pointer or null*/
  1   322 			/* parameter 3:	(input)	token node pointer 		*/
  1   323
  1   324 declare	error_		entry(fixed bin(15),
  3     1 			1 structure unaligned,
  3     2 			  2 /* file_number */	bit(8),
  3     3 			  2 /* line_number */	bit(14),
  3     4 			  2 /* stmt_number */	bit(5),
  1   325
  1   326 			pointer,fixed bin(8),fixed bin(23),fixed bin(11));
  1   327 			/* parameter 1:	(input)	error number		*/
  1   328 			/* parameter 2:	(input)	statement id		*/
  1   329 			/* parameter 3:	(input)	any node pointer		*/
  1   330 			/* parameter 4:	(input)	source segment		*/
  1   331 			/* parameter 5:	(input)	source starting character	*/
  1   332 			/* parameter 6:	(input)	source length		*/
  1   333
  1   334 declare	error_$no_text	entry(fixed bin(15),
  4     1 			1 structure unaligned,
  4     2 			  2 /* file_number */	bit(8),
  4     3 			  2 /* line_number */	bit(14),
  4     4 			  2 /* stmt_number */	bit(5),
  1   335
  1   336 			pointer);
  1   337 			/* parameter 1:	(input)	error number		*/
  1   338 			/* parameter 2:	(input)	statement id		*/
  1   339 			/* parameter 3:	(input)	any node pointer		*/
  1   340
  1   341 declare	error_$initialize_error entry();
  1   342
  1   343 declare	error_$finish	entry();
  1   344
  1   345 declare	free_node		entry(pointer);
  1   346 			/* parameter 1:	any node pointer			*/
  1   347
  1   348 declare	get_array_size	entry(pointer,fixed bin(3));
  1   349 			/* parameter 1:	(input)	symbol node pointer		*/
  1   350 			/* parameter 2:	(input)	units			*/
  1   351
  1   352 declare	get_size		entry(pointer);
  1   353 			/* parameter 1:	(input)	symbol node pointer		*/
  1   354
  1   355 declare	merge_attributes	external entry(pointer,pointer)
  1   356 			returns(bit(1) aligned);
  1   357 			/* parameter 1:	(input)	target symbol node pointer */
  1   358 			/* parameter 2:	(input)	source symbol node pointer */
  1   359 			/* return:	(output)	"1"b if merge was unsuccessful */
  1   360
  1   361 declare	optimizer		entry(pointer);
  1   362 			/* parameter 1:	(input)	root pointer		*/
  1   363
  1   364 declare	parse_error	entry(fixed bin(15),pointer);
  1   365 			/* parameter 1:	(input)	error number		*/
  1   366 			/* parameter 2:	(input)	any node pointer		*/
  1   367
  1   368 declare	parse_error$no_text	entry(fixed bin(15),pointer);
  1   369 			/* parameter 1:	(input)	error number		*/
  1   370 			/* parameter 2:	(input)	any node pointer		*/
  1   371
  1   372 declare	pl1_error_print$write_out
  1   373 			entry(fixed bin(15),
  5     1 			1 structure unaligned,
  5     2 			  2 /* file_number */	bit(8),
  5     3 			  2 /* line_number */	bit(14),
  5     4 			  2 /* stmt_number */	bit(5),
  1   374
  1   375 			pointer,fixed bin(11),fixed bin(31),fixed bin(31),fixed bin(15));
  1   376 			/* parameter 1:	(input)	error number		*/
  1   377 			/* parameter 2:	(input)	statement identification	*/
  1   378 			/* parameter 3:	(input)	any node pointer		*/
  1   379 			/* parameter 4:	(input)	source segment		*/
  1   380 			/* parameter 5:	(input)	source character index	*/
  1   381 			/* parameter 6:	(input)	source length		*/
  1   382 			/* parameter 7:	(input)	source line		*/
  1   383
  1   384 declare	pl1_error_print$listing_segment
  1   385 			entry(fixed bin(15),
  6     1 			1 structure unaligned,
  6     2 			  2 /* file_number */	bit(8),
  6     3 			  2 /* line_number */	bit(14),
  6     4 			  2 /* stmt_number */	bit(5),
  1   386
  1   387 			pointer);
  1   388 			/* parameter 1:	(input)	error number		*/
  1   389 			/* parameter 2:	(input)	statement identification	*/
  1   390 			/* parameter 3:	(input)	token node pointer		*/
  1   391
  1   392 declare	pl1_print$varying		entry(character(*) aligned varying);
  1   393 			/* parameter 1:	(input)	string			*/
  1   394
  1   395 declare	pl1_print$varying_nl	entry(character(*) aligned varying);
  1   396 			/* parameter 1:	(input)	string			*/
  1   397
  1   398 declare	pl1_print$non_varying	entry(character(*) aligned,fixed bin(31));
  1   399 			/* parameter 1:	(input)	string			*/
  1   400 			/* parameter 2:	(input)	string length or 0		*/
  1   401
  1   402 declare	pl1_print$non_varying_nl	entry(character(*) aligned,fixed bin(31));
  1   403 			/* parameter 1:	(input)	string			*/
  1   404 			/* parameter 2:	(input)	string length or 0		*/
  1   405
  1   406 declare	pl1_print$string_pointer	entry(pointer,fixed bin(31));
  1   407 			/* parameter 1:	(input)	string pointer		*/
  1   408 			/* parameter 2:	(input)	string size		*/
  1   409
  1   410 declare	pl1_print$string_pointer_nl	entry(pointer,fixed bin(31));
  1   411 			/* parameter 1:	(input)	string pointer		*/
  1   412 			/* parameter 2:	(input)	string length or 0		*/
  1   413
  1   414 declare	pl1_print$unaligned_nl	entry(character(*) unaligned,fixed bin(31));
  1   415 			/* parameter 1:	(input)	string			*/
  1   416 			/* parameter 2:	(input)	length			*/
  1   417
  1   418 declare	pl1_print$for_lex	entry (ptr, fixed bin (14), fixed bin (21), fixed bin (21), bit (1) aligned, bit (1) aligned);
  1   419 			/* parameter 1:	(input)	ptr to base of source segment	*/
  1   420 			/* parameter 2:	(input)	line number		*/
  1   421 			/* parameter 3:	(input)	starting offset in source seg	*/
  1   422 			/* parameter 4:	(input)	number of chars to copy	*/
  1   423 			/* parameter 5:	(input)	ON iff shd print line number	*/
  1   424 			/* parameter 6:	(input)	ON iff line begins in comment	*/
  1   425
  1   426 declare	refer_extent	entry(pointer,pointer);
  1   427 			/* parameter 1:	(input/output)	null,ref node,op node pointer	*/
  1   428 			/* parameter 2:	(input)	null,ref node,op node pointer	*/
  1   429
  1   430 declare	reserve$clear	entry()
  1   431 			returns(pointer);
  1   432 			/* return:	(output)	pointer			*/
  1   433
  1   434 declare	reserve$declare_lib	entry(fixed bin(15))
  1   435 			returns(pointer);
  1   436 			/* parameter 1:	(input)	builtin function number	*/
  1   437 			/* return:	(output)	pointer			*/
  1   438
  1   439 declare	reserve$read_lib	entry(fixed bin(15))
  1   440 			returns(pointer);
  1   441 			/* parameter 1:	(input)	builtin function number	*/
  1   442 			/* return:	(output)	pointer			*/
  1   443
  1   444 declare	semantic_translator	entry();
  1   445
  1   446 declare	semantic_translator$abort entry(fixed bin(15),pointer);
  1   447 			/* parameter 1:	(input)	error number		*/
  1   448 			/* parameter 2:	(input)	any node pointer		*/
  1   449
  1   450 declare	semantic_translator$error entry(fixed bin(15),pointer);
  1   451 			/* parameter 1:	(input)	error number		*/
  1   452 			/* parameter 2:	(input)	any node pointer		*/
  1   453
  1   454 declare	share_expression	entry(ptr)
  1   455 			returns(ptr);
  1   456 			/* parameter 1:	(input)	usually operator node pointer	*/
  1   457 			/* return:	(output)	tree pointer or null	*/
  1   458
  1   459 declare	token_to_binary	entry(ptr) reducible
  1   460 			returns(fixed bin(31));
  1   461 			/* parameter 1:	(input)	token node pointer		*/
  1   462 			/* return:	(output)	converted binary value	*/
  1   463
  1   464 /* END INCLUDE FILE ... language_utility.incl.pl1 */
       82
  7     1 /* BEGIN INCLUDE FILE ... nodes.incl.pl1 */
  7     2
  7     3 /* Modified: 26 Dec 1979 by PCK to implement by name assignment */
  7     4
  7     5 dcl (	block_node		initial("000000001"b),
  7     6 	statement_node		initial("000000010"b),
  7     7 	operator_node		initial("000000011"b),
  7     8 	reference_node		initial("000000100"b),
  7     9 	token_node		initial("000000101"b),
  7    10 	symbol_node		initial("000000110"b),
  7    11 	context_node		initial("000000111"b),
  7    12 	array_node		initial("000001000"b),
  7    13 	bound_node		initial("000001001"b),
  7    14 	format_value_node		initial("000001010"b),
  7    15 	list_node			initial("000001011"b),
  7    16 	default_node		initial("000001100"b),
  7    17 	machine_state_node		initial("000001101"b),
  7    18 	source_node		initial("000001110"b),
  7    19 	label_node		initial("000001111"b),
  7    20 	cross_reference_node	initial("000010000"b),
  7    21 	sf_par_node		initial("000010001"b),
  7    22 	temporary_node		initial("000010010"b),
  7    23 	label_array_element_node	initial("000010011"b),
  7    24 	by_name_agg_node		initial("000010100"b))
  7    25 				bit(9) internal static aligned options(constant);
  7    26
  7    27 dcl	1 node			based aligned,
  7    28 	2 type			unal bit(9),
  7    29 	2 source_id		unal structure,
  7    30 	  3 file_number		bit(8),
  7    31 	  3 line_number		bit(14),
  7    32 	  3 statement_number	bit(5);
  7    33
  7    34 /* END INCLUDE FILE ... nodes.incl.pl1 */
       83
  8     1 /* BEGIN INCLUDE FILE ... op_codes.incl.pl1 */
  8     2
  8     3 /* Modified: 25 Apr 1979 by PCK 4-bit decimal */
  8     4 /* Modified: 6 Jun 1979 by PG to add rank and byte */
  8     5 /* Modified: 26 Dec 1979 by PCK to add assign_by_name */
  8     6 /* Modified: 26 July 82 BIM wordno, segno */
  8     7
  8     8 dcl (	add		initial("000010001"b),	/* opnd(1) <- opnd(2)+opnd(3)		*/
  8     9 	sub		initial("000010010"b),	/* opnd(1) <- opnd(2)-opnd(3)		*/
  8    10 	mult		initial("000010011"b),	/* opnd(1) <- opnd(2)*opnd(3)		*/
  8    11 	div		initial("000010100"b),	/* opnd(1) <- opnd(2)/opnd(3)		*/
  8    12 	negate		initial("000010101"b),	/* opnd(1) <- -opnd(2)  		*/
  8    13 	exp		initial("000010110"b),	/* opnd(1) <- opnd(2) ** opnd(3)	*/
  8    14
  8    15 	and_bits		initial("000100001"b),	/* opnd(1) <- opnd(2) & opnd(3)	*/
  8    16 	or_bits		initial("000100010"b),	/* opnd(1) <- opnd(2)|opnd(3)		*/
  8    17 	xor_bits		initial("000100011"b),	/* opnd(1) <- opnd(2) xor opnd(3)	*/
  8    18 	not_bits		initial("000100100"b),	/* opnd(1) <- ^opnd(2)		*/
  8    19 	cat_string	initial("000100101"b),	/* opnd(1) <- opnd(2)||opnd(3)	*/
  8    20 	bool_fun		initial("000100110"b),	/* opnd(1) <- bool(opnd(2),opnd(3),opnd(4)) */
  8    21
  8    22 	assign		initial("000110001"b),	/* opnd(1) <- opnd(2)		*/
  8    23 	assign_size_ck	initial("000110010"b),	/* opnd(1) <- opnd(2)		*/
  8    24 	assign_zero	initial("000110011"b),	/* opnd(1) <- 0			*/
  8    25 	copy_words	initial("000110100"b),	/* move opnd(2) to opnd(1) by opnd(3) words */
  8    26 	copy_string	initial("000110101"b),	/* move opnd(2) to opnd(1) by opnd(3) units */
  8    27 	make_desc		initial("000110110"b),	/* opnd(1) <- descriptor(opnd(2),opnd(3)) */
  8    28 	assign_round	initial("000110111"b),	/* opnd(1) <- opnd(2) rounded		*/
  8    29 	pack		initial("000111000"b),	/* opnd(1) <- encode to picture opnd(2) */
  8    30 	unpack		initial("000111001"b),	/* opnd(1) <- decode from picture opnd(2) */
  8    31
  8    32 	less_than		initial("001000100"b),	/* opnd(1) <- opnd(2) < opnd(3)	*/
  8    33 	greater_than	initial("001000101"b),	/* opnd(1) <- opnd(2) > opnd(3)	*/
  8    34 	equal		initial("001000110"b),	/* opnd(1) <- opnd(2) = opnd(3)	*/
  8    35 	not_equal		initial("001000111"b),	/* opnd(1) <- opnd(2) ^= opnd(3)	*/
  8    36 	less_or_equal	initial("001001000"b),	/* opnd(1) <- opnd(2) <= opnd(3)	*/
  8    37 	greater_or_equal	initial("001001001"b),	/* opnd(1) <- opnd(2) >= opnd(3)	*/
  8    38
  8    39 	jump		initial("001010001"b),	/* go to opnd(1) unconditionally	*/
  8    40 	jump_true		initial("001010010"b),	/* go to opnd(1) if opnd(2) is not 0	*/
  8    41 	jump_false	initial("001010011"b),	/* go to opnd(1) if opnd(2) is all 0	*/
  8    42 	jump_if_lt	initial("001010100"b),	/* go to opnd(1) if opnd(2) < opnd(3)	*/
  8    43 	jump_if_gt	initial("001010101"b),	/* go to opnd(1) if opnd(2) > opnd(3)	*/
  8    44 	jump_if_eq	initial("001010110"b),	/* go to opnd(1) if opnd(2) = opnd(3)	*/
  8    45 	jump_if_ne	initial("001010111"b),	/* go to opnd(1) if opnd(2) ^= opnd(3)	*/
  8    46 	jump_if_le	initial("001011000"b),	/* go to opnd(1) if opnd(2) <= opnd(3)	*/
  8    47 	jump_if_ge	initial("001011001"b),	/* go to opnd(1) if opnd(2) >= opnd(3)	*/
  8    48
  8    49 	std_arg_list	initial("001100001"b),	/* opnd(1) <- arglist(opnd(2) desclist(opnd(3)))	*/
  8    50 	return_words	initial("001100010"b),	/* return aggregate opnd(1), opnd(2) is length in words */
  8    51 	std_call		initial("001100011"b),	/* opnd(1) <- call opnd(2) with opnd(3)		*/
  8    52 	return_bits	initial("001100100"b),	/* return aggregate opnd(1), opnd(2) is length in bits */
  8    53 	std_entry		initial("001100101"b),	/* entry(opnd(1)... opnd(n))			*/
  8    54 	return_string	initial("001100110"b),	/* return string opnd(1) */
  8    55 	ex_prologue	initial("001100111"b),	/* execute the prologue -no operands-		*/
  8    56 	allot_auto	initial("001101000"b),	/* opnd(1) <- addrel(stack,opnd(2))		*/
  8    57 	param_ptr		initial("001101001"b),	/* opnd(1) <- ptr to opnd(2) in  block opnd(3)	*/
  8    58 	param_desc_ptr	initial("001101010"b),	/* opnd(1) <- ptr to opnd(2) in block opnd(3)	*/
  8    59 	std_return	initial("001101011"b),	/* return -no arguments-			*/
  8    60 	allot_ctl		initial("001101100"b),	/* allocate opnd(1) , length in words is opnd(2) 	*/
  8    61 	free_ctl		initial("001101101"b),	/* free opnd(1)				*/
  8    62 	stop		initial("001101110"b),	/* stop - terminate run unit			*/
  8    63
  8    64 	mod_bit		initial("001110000"b),	/* opnd(1) <- mod(opnd(3),36),
  8    65*						   opnd(2) <- opnd(3) / 36		*/
  8    66 	mod_byte		initial("001110001"b),	/* opnd(1) <- mod(opnd(3),4),
  8    67*						   opnd(2) <- opnd(3) / 4		*/
  8    68 	mod_half		initial("001110010"b),	/* opnd(1) <- mod(opnd(3),2),
  8    69*						   opnd(2) <- opnd(3) / 2		*/
  8    70 	mod_word		initial("001110011"b),	/* TO BE DEFINED BY BLW			*/
  8    71
  8    72 	bit_to_char	initial("010000000"b),	/* opnd(1) <- (opnd(2)+8)/9		*/
  8    73 	bit_to_word	initial("010000001"b),	/* opnd(1) <- (opnd(2)+35)/36		*/
  8    74 	char_to_word	initial("010000010"b),	/* opnd(1) <- (opnd(2)+3)/4		*/
  8    75 	half_to_word	initial("010000011"b),	/* opnd(1) <- (opnd(2)+1)/2		*/
  8    76 	word_to_mod2	initial("010000100"b),	/* opnd(1) <- (opnd(2)+1)/2*2		*/
  8    77 	word_to_mod4	initial("010000101"b),	/* opnd(1) <- (opnd(2)+3)/4*4		*/
  8    78 	word_to_mod8	initial("010000110"b),	/* opnd(1) <- (opnd(2)+7)/8*8		*/
  8    79 	rel_fun		initial("010000111"b),	/* opnd(1) <- rel(opnd(2))		*/
  8    80 	baseno_fun	initial("010001000"b),	/* opnd(1) <- baseno(opnd(2))		*/
  8    81 	desc_size		initial("010001001"b),	/* opnd(1) <- substr(opnd(2),13,24)	*/
  8    82 	bit_pointer	initial("010001010"b),	/* opnd(1) <- bit offset of opnd(2)	*/
  8    83 	index_before_fun	initial("010001011"b),	/* opnd(1) <- length of before(opnd(2),opnd(3)) */
  8    84 	index_after_fun	initial("010001100"b),	/* opnd(1) <- offset of after(opnd(2),opnd(3)) in opnd(2) */
  8    85 	verify_ltrim_fun	initial("010001101"b),	/* opnd(1) <- offset of ltrim(opnd(2),opnd(3)) in opnd(2) */
  8    86 	verify_rtrim_fun	initial("010001110"b),	/* opnd(1) <- length(opnd(2))-length(rtrim(opnd(2),opnd(3))) */
  8    87 	digit_to_bit	initial("010001111"b),	/* opnd(1) <- 9*opnd(2)/2		*/
  8    88
  8    89 	ceil_fun		initial("010010000"b),	/* opnd(1) <- ceil(opnd(2))		*/
  8    90 	floor_fun		initial("010010001"b),	/* opnd(1) <- floor(opnd(2))		*/
  8    91 	round_fun		initial("010010010"b),	/* opnd(1) <- round(opnd(2))		*/
  8    92 	sign_fun		initial("010010011"b),	/* opnd(1) <- sign(opnd(2))		*/
  8    93 	abs_fun		initial("010010100"b),	/* opnd(1) <- abs(opnd(2))		*/
  8    94 	trunc_fun		initial("010010101"b),	/* opnd(1) <- trunc(opnd(2))		*/
  8    95 	byte_fun		initial("010010110"b),	/* opnd(1) <- byte(opnd(2))		*/
  8    96 	rank_fun		initial("010010111"b),	/* opnd(1) <- rank(opnd(2))		*/
  8    97 	index_rev_fun	initial("010011000"b),	/* opnd(1) <- index(reverse(opnd(2)),reverse(opnd(3))) */
  8    98 	search_rev_fun	initial("010011001"b),	/* opnd(1) <- search(reverse(opnd(2)),opnd(3)) */
  8    99 	verify_rev_fun	initial("010011010"b),	/* opnd(1) <- verify(reverse(opnd(2)),opnd(3)) */
  8   100 	wordno_fun	initial("010011011"b),        /* opnd(1) <- wordno (opnd(2)) */
  8   101 	segno_fun		initial("010011100"b),        /* opnd(1) <- segno (opnd(2)) */
  8   102 	bitno_fun           initial("010011101"b),        /* opnd(1) <- bitno (opnd(2)) */
  8   103 	charno_fun	initial("010011110"b),        /* opnd(1) <- charno (opnd(2)) */
  8   104
  8   105 	index_fun		initial("010100000"b),	/* opnd(1) <- index(opnd(2),opnd(3))	*/
  8   106 	off_fun		initial("010100001"b),	/* opnd(1) <- offset(opnd(2),opnd(3))	*/
  8   107 	complex_fun	initial("010100010"b),	/* opnd(1) <- complex(opnd(2),opnd(3))	*/
  8   108 	conjg_fun		initial("010100011"b),	/* opnd(1) <- conjg(opnd(2),opnd(3))	*/
  8   109 	mod_fun		initial("010100100"b),	/* opnd(1) <- mod(opnd(2),opnd(3))	*/
  8   110 	repeat_fun	initial("010100101"b),	/* opnd(1) <- repeat(opnd(2),opnd(3))	*/
  8   111 	verify_fun	initial("010100110"b),	/* opnd(1) <- verify(opnd(2),opnd(3))	*/
  8   112 	translate_fun	initial("010100111"b),	/* opnd(1) <- translate(opnd(2),opnd(3))*/
  8   113 	real_fun   	initial("010101001"b),	/* opnd(1) <- real(opnd(2))		*/
  8   114 	imag_fun   	initial("010101010"b),	/* opnd(1) <- imag(opnd(2))		*/
  8   115 	length_fun	initial("010101011"b),	/* opnd(1) <- length(opnd(2))	*/
  8   116 	pl1_mod_fun	initial("010101100"b),	/* opnd(1) <- mod(opnd(2)) */
  8   117 	search_fun	initial("010101101"b),	/* opnd(1) <- search(opnd(2),opnd(3)) */
  8   118 	allocation_fun	initial("010101110"b),	/* opnd(1) <- allocation(opnd(2)) */
  8   119 	reverse_fun	initial("010101111"b),	/* opnd(1) <- reverse(opnd(2)) */
  8   120
  8   121 	addr_fun		initial("010110000"b),	/* opnd(1) <- addr(opnd(2))		*/
  8   122 	addr_fun_bits	initial("010110001"b),	/* opnd(1) <- addr(opnd(2))		*/
  8   123 	ptr_fun		initial("010110010"b),	/* opnd(1) <- ptr(opnd(2),opnd(3))	*/
  8   124 	baseptr_fun	initial("010110011"b),	/* opnd(1) <- baseptr(opnd(2))	*/
  8   125 	addrel_fun	initial("010110100"b),	/* opnd(1) <- addrel(opnd(2),opnd(3))	*/
  8   126 	codeptr_fun	initial("010110101"b),	/* opnd(1) <- codeptr(opnd(2))	*/
  8   127 	environmentptr_fun	initial("010110110"b),	/* opnd(1) <- environmentptr(opnd(2))	*/
  8   128 	stackbaseptr_fun	initial("010110111"b),	/* opnd(1) is ptr to base of current stack	*/
  8   129 	stackframeptr_fun	initial("010111000"b),	/* opnd(1) is ptr to current block's stack frame	*/
  8   130 	setcharno_fun	initial("010111001"b),	/* opnd(1) <- opnd(2) with charno opnd(3) */
  8   131 	addcharno_fun	initial("010111010"b),	/* opnd(1) <- opnd(2) with charno = charno + opnd(3) */
  8   132 	setbitno_fun	initial("010111011"b),	/* setcharno for bitsno */
  8   133 	addbitno_fun	initial("010111100"b),	/* addcharno for bitno */
  8   134
  8   135 	min_fun		initial("011000000"b),	/* opnd(1) <- min(opnd(1),opnd(2),...)	*/
  8   136 	max_fun		initial("011000001"b),	/* opnd(1) <- max(opnd(1),opnd(2),...)	*/
  8   137
  8   138 	stack_ptr		initial("011010001"b),	/* opnd(1) <- stack frame ptr		*/
  8   139 	empty_area	initial("011010010"b),	/* empty opnd(1), length in words is opnd(2) */
  8   140 	enable_on		initial("011010100"b),	/* opnd(1) is the cond name
  8   141*						   opnd(2) is the file name
  8   142*						   opnd(3) is the block	*/
  8   143 	revert_on		initial("011010101"b),	/* opnd(1) is the cond name,
  8   144*						   opnd(2) is the file name	*/
  8   145 	signal_on		initial("011010110"b),	/* opnd(1) is the cond name
  8   146*						   opnd(2) is the file name */
  8   147
  8   148 	lock_fun		initial("011010111"b),	/* opnd(1) <- stac(opnd(2),opnd(3))	*/
  8   149 	stacq_fun		initial("011011000"b),	/* opnd(1) is result, opnd(2) is ptr to lock word,
  8   150*						   opnd(3) is old value, (4) is new value. */
  8   151 	clock_fun		initial("011011001"b),	/* opnd(1) is the clock time		*/
  8   152 	vclock_fun	initial("011011010"b),	/* opnd(1) is the virtual clock time	*/
  8   153
  8   154 	bound_ck		initial("011100000"b),	/* opnd(1) <- opnd(2) if opnd(3) <= opnd(2) <= opnd(4) */
  8   155 	range_ck		initial("011100001"b),	/* opnd(1) <- opnd(2) if opnd(3) <= opnd(2) <= opnd(4) */
  8   156 	loop		initial("011100010"b),	/* do opnd(1) for opnd(2) from opnd(3) to opnd(4) by 1,
  8   157*						   opnd(5) is the list */
  8   158 	join		initial("011100011"b),	/* do opnd(1), opnd(2) ... opnd(n)	*/
  8   159 	allot_based	initial("011100100"b),	/* allocate opnd(2) words in opnd(3), set opnd(1) */
  8   160 	free_based	initial("011100101"b),	/* free opnd(1) in opnd(3), length is opnd(2) words */
  8   161
  8   162 	r_parn		initial("011110001"b),	/* format op code			*/
  8   163 	l_parn		initial("011110010"b),
  8   164 	r_format		initial("011110011"b),
  8   165 	c_format		initial("011110100"b),
  8   166 	f_format		initial("011110101"b),
  8   167 	e_format		initial("011110110"b),
  8   168 	b_format		initial("011110111"b),
  8   169 	a_format		initial("011111000"b),
  8   170 	x_format		initial("011111001"b),
  8   171 	skip_format	initial("011111010"b),
  8   172 	column_format	initial("011111011"b),
  8   173 	page_format	initial("011111100"b),
  8   174 	line_format	initial("011111101"b),
  8   175 	picture_format	initial("011111110"b),
  8   176 	bn_format		initial("011111111"b),	/* bit format, length(opnd(2)), radix factor(opnd(3)) */
  8   177
  8   178 	get_list_trans	initial("100000000"b),	/* getlist(opnd(2) with desc(opnd(1)))	*/
  8   179 	get_edit_trans	initial("100000001"b),	/* getedit(opnd(2) with desc(opnd(1)))	*/
  8   180 	get_data_trans	initial("100000010"b),	/* getdata(opnd(1) to opnd(n))	*/
  8   181 	put_list_trans	initial("100000011"b),	/* putlist(opnd(2) with desc(opnd(1)))	*/
  8   182 	put_edit_trans	initial("100000100"b),	/* putedit(opnd(2) with desc(opnd(1)))	*/
  8   183 	put_data_trans	initial("100000101"b),	/* putdata(opnd(2)) with subscript-list opnd(1) */
  8   184 	terminate_trans	initial("100000110"b),	/* terminate stream transmission	*/
  8   185 	stream_prep	initial("100000111"b),	/* initiate stream transmission	*/
  8   186 	record_io		initial("100001000"b),	/* perform record io operation	*/
  8   187 	fortran_read	initial("100001001"b),	/* A complete read statement		*/
  8   188 	fortran_write	initial("100001010"b),	/* A complete write statement		*/
  8   189 	ftn_file_manip	initial("100001011"b),	/* endfile,backspace,rewind,etc.	*/
  8   190 	ftn_trans_loop	initial("100001100"b),	/* An implied do in i/o list		*/
  8   191 	put_control	initial("100001101"b),	/* put control opnd(1) opnd(2) times	*/
  8   192 	put_field		initial("100001110"b),	/* putlist(opnd(2)) of length(opnd(1))	*/
  8   193 	put_field_chk	initial("100001111"b),	/* putlist(op(2)) of len(op(1)) check char index(op(3)) */
  8   194
  8   195 /* These operators are produced by the parse but are not used as input to the code generator.	*/
  8   196 /* They are processed by the semantic translator.						*/
  8   197
  8   198 	return_value	initial("100010010"b),	/* return(opnd(1))			*/
  8   199 	allot_var		initial("100010011"b),	/* allot opnd(1) in opnd(2)		*/
  8   200 	free_var		initial("100010100"b),	/* free opnd(1) out of opnd(2)	*/
  8   201 	get_file		initial("100010101"b),	/* opnd(1) is filename,opnd(2) is copy	*/
  8   202 						/* opnd(3) is skip, opnd(4) is list	*/
  8   203 	get_string	initial("100010110"b),	/* opnd(1) is string,opnd(2) is list	*/
  8   204 	put_file		initial("100010111"b),	/* opnd(1) is filename,opnd(2) is page	*/
  8   205 						/* opnd(3) is skip,opnd(4) is line	*/
  8   206 	put_string	initial("100011000"b),	/* opnd(1) is string,opnd(2) is list	*/
  8   207 	open_file		initial("100011001"b),
  8   208 	close_file	initial("100011010"b),
  8   209 	read_file		initial("100011011"b),
  8   210 	write_file	initial("100011100"b),
  8   211 	locate_file	initial("100011101"b),
  8   212 	do_fun		initial("100011110"b),	/* opnd(1) is join of a list		*/
  8   213 						/* opnd(2) is control variable ref	*/
  8   214 						/* opnd(3) is specification operator	*/
  8   215 	do_spec		initial("100011111"b),	/* opnd(1) to opnd(2) by opnd(3) 	*/
  8   216 						/* repeat opnd(4) while opnd(5)	*/
  8   217 						/* opnd(6) is next specification	*/
  8   218
  8   219 	rewrite_file	initial("100100000"b),
  8   220 	delete_file	initial("100100001"b),
  8   221 	unlock_file	initial("100100010"b),
  8   222 	lock_file		initial("100100011"b),
  8   223 	refer		initial("100100101"b),	/* opnd(1) refer(opnd(2))		*/
  8   224 	prefix_plus	initial("100100110"b),	/* opnd(1) <- +opnd(2)		*/
  8   225 	nop		initial("100100111"b),	/* no-op */
  8   226 	assign_by_name	initial("100101000"b),	/* opnd(1) <- opnd(2),by name		*/
  8   227
  8   228 /* These operators are produced by the semantic translator in processing the math
  8   229*   builtin functions and are used as input to the code generator			*/
  8   230
  8   231 	sqrt_fun		initial("100110000"b),	/* opnd(1) <- sqrt(opnd(2))	*/
  8   232 	sin_fun		initial("100110001"b),	/* opnd(1) <- sin(opnd(2))	*/
  8   233 	sind_fun		initial("100110010"b),	/* opnd(1) <- sind(opnd(2))	*/
  8   234 	cos_fun		initial("100110011"b),	/* opnd(1) <- cos(opnd(2))	*/
  8   235 	cosd_fun		initial("100110100"b),	/* opnd(1) <- cosd(opnd(2))	*/
  8   236 	tan_fun		initial("100110101"b),	/* opnd(1) <- tan(opnd(2))	*/
  8   237 	tand_fun		initial("100110110"b),	/* opnd(1) <- tand(opnd(2))	*/
  8   238 	asin_fun		initial("100110111"b),	/* opnd(1) <- asin(opnd(2))	*/
  8   239 	asind_fun		initial("100111000"b),	/* opnd(1) <- asind(opnd(2))	*/
  8   240 	acos_fun		initial("100111001"b),	/* opnd(1) <- acos(opnd(2))	*/
  8   241 	acosd_fun		initial("100111010"b),	/* opnd(1) <- acosd(opnd(2))	*/
  8   242 	atan_fun		initial("100111011"b),	/* opnd(1) <- atan(opnd(2)[,opnd(3)])	*/
  8   243 	atand_fun		initial("100111100"b),	/* opnd(1) <- atand(opnd(2)[,opnd(3)])	*/
  8   244 	log2_fun		initial("100111101"b),	/* opnd(1) <- log2(opnd(2))	*/
  8   245 	log_fun		initial("100111110"b),	/* opnd(1) <- log(opnd(2))	*/
  8   246 	log10_fun		initial("100111111"b),	/* opnd(1) <- log10(opnd(2))	*/
  8   247
  8   248 	exp_fun		initial("101000000"b))	/* opnd(1) <- exp(opnd(2))	*/
  8   249
  8   250 			bit(9) aligned internal static options(constant);
  8   251
  8   252 /* END INCLUDE FILE ... op_codes.incl.pl1 */
       84
  9     1 /* BEGIN INCLUDE FILE ... operator.incl.pl1 */
  9     2
  9     3 /*	Modified: 2 Apr 1980 by PCK to add max_number_of_operands */
  9     4
  9     5 /* format: style3 */
  9     6 dcl	1 operator	based aligned,
  9     7 	  2 node_type	bit (9) unaligned,
  9     8 	  2 op_code	bit (9) unaligned,
  9     9 	  2 shared	bit (1) unaligned,
  9    10 	  2 processed	bit (1) unaligned,
  9    11 	  2 optimized	bit (1) unaligned,
  9    12 	  2 number	fixed (14) unaligned,
  9    13 	  2 operand	dimension (n refer (operator.number)) ptr unaligned;
  9    14
  9    15 dcl	max_number_of_operands
  9    16 			fixed bin (15) int static options (constant) initial (32767);
  9    17
  9    18 /* END INCLUDE FILE ... operator.incl.pl1 */
       85
 10     1 /* BEGIN INCLUDE FILE ... reference.incl.pl1 */
 10     2
 10     3 dcl	1 reference		based aligned,
 10     4 	2 node_type		bit(9) unaligned,
 10     5 	2 array_ref		bit(1) unaligned,
 10     6 	2 varying_ref		bit(1) unaligned,
 10     7 	2 shared			bit(1) unaligned,
 10     8 	2 put_data_sw		bit(1) unaligned,
 10     9 	2 processed		bit(1) unaligned,
 10    10 	2 units			fixed(3) unaligned,
 10    11 	2 ref_count		fixed(17) unaligned,
 10    12 	2 c_offset		fixed(24),
 10    13 	2 c_length		fixed(24),
 10    14 	2 symbol			ptr unaligned,
 10    15 	2 qualifier		ptr unaligned,
 10    16 	2 offset			ptr unaligned,
 10    17 	2 length			ptr unaligned,
 10    18 	2 subscript_list		ptr unaligned,
 10    19 						/* these fields are used by the 645 code generator */
 10    20 	2 address			structure unaligned,
 10    21 	  3 base			bit(3),
 10    22 	  3 offset		bit(15),
 10    23 	  3 op			bit(9),
 10    24 	  3 no_address		bit(1),
 10    25 	  3 inhibit		bit(1),
 10    26 	  3 ext_base		bit(1),
 10    27 	  3 tag			bit(6),
 10    28 	2 info			structure unaligned,
 10    29 	  3 address_in		structure,
 10    30 	    4 b			dimension(0:7) bit(1),
 10    31 	    4 storage		bit(1),
 10    32 	  3 value_in		structure,
 10    33 	    4 a			bit(1),
 10    34 	    4 q			bit(1),
 10    35 	    4 aq			bit(1),
 10    36 	    4 string_aq		bit(1),
 10    37 	    4 complex_aq		bit(1),
 10    38 	    4 decimal_aq		bit(1),
 10    39 	    4 b			dimension(0:7) bit(1),
 10    40 	    4 storage		bit(1),
 10    41 	    4 indicators		bit(1),
 10    42 	    4 x			dimension(0:7) bit(1),
 10    43 	  3 other			structure,
 10    44 	    4 big_offset		bit(1),
 10    45 	    4 big_length		bit(1),
 10    46 	    4 modword_in_offset	bit(1),
 10    47 	2 data_type		fixed(5) unaligned,
 10    48 	2 bits			structure unaligned,
 10    49 	  3 padded_ref		bit(1),
 10    50 	  3 aligned_ref		bit(1),
 10    51 	  3 long_ref		bit(1),
 10    52 	  3 forward_ref		bit(1),
 10    53 	  3 ic_ref		bit(1),
 10    54 	  3 temp_ref		bit(1),
 10    55 	  3 defined_ref		bit(1),
 10    56 	  3 evaluated		bit(1),
 10    57 	  3 allocate		bit(1),
 10    58 	  3 allocated		bit(1),
 10    59 	  3 aliasable		bit(1),
 10    60 	  3 even			bit(1),
 10    61 	  3 perm_address		bit(1),
 10    62 	  3 aggregate		bit(1),
 10    63 	  3 hit_zero		bit(1),
 10    64 	  3 dont_save		bit(1),
 10    65 	  3 fo_in_qual		bit(1),
 10    66 	  3 hard_to_load		bit(1),
 10    67 	2 relocation		bit(12) unaligned,
 10    68 	2 more_bits		structure unaligned,
 10    69 	  3 substr		bit(1),
 10    70 	  3 padded_for_store_ref	bit(1),
 10    71 	  3 aligned_for_store_ref	bit(1),
 10    72 	  3 mbz			bit(15),
 10    73 	2 store_ins		bit(18) unaligned;
 10    74
 10    75 /* END INCLUDE FILE ... reference.incl.pl1 */
       86
 11     1 /* BEGIN INCLUDE FILE ... symbol.incl.pl1 */
 11     2
 11     3 dcl	1 symbol			based aligned,
 11     4 	2 node_type		bit(9) unal,
 11     5 	2 source_id		structure unal,
 11     6 	  3 file_number		bit(8),
 11     7 	  3 line_number		bit(14),
 11     8 	  3 statement_number	bit(5),
 11     9 	2 location		fixed(18) unal unsigned,
 11    10 	2 allocated		bit(1) unal,
 11    11 	2 dcl_type		bit(3) unal,
 11    12 	2 reserved		bit(6) unal,
 11    13 	2 pix			unal,
 11    14 	  3 pic_fixed		bit(1) unal,
 11    15 	  3 pic_float		bit(1) unal,
 11    16 	  3 pic_char		bit(1) unal,
 11    17 	  3 pic_scale		fixed(7) unal,
 11    18 	  3 pic_size		fixed(7) unal,
 11    19 	2 level			fixed(8) unal,
 11    20 	2 boundary		fixed(3) unal,
 11    21 	2 size_units		fixed(3) unal,
 11    22 	2 scale			fixed(7) unal,
 11    23 	2 runtime			bit(18) unal,
 11    24 	2 runtime_offset		bit(18) unal,
 11    25 	2 block_node		ptr unal,
 11    26 	2 token			ptr unal,
 11    27 	2 next			ptr unal,
 11    28 	2 multi_use		ptr unal,
 11    29 	2 cross_references		ptr unal,
 11    30 	2 initial			ptr unal,
 11    31 	2 array			ptr unal,
 11    32 	2 descriptor		ptr unal,
 11    33 	2 equivalence		ptr unal,
 11    34 	2 reference		ptr unal,
 11    35 	2 general			ptr unal,
 11    36 	2 father			ptr unal,
 11    37 	2 brother			ptr unal,
 11    38 	2 son			ptr unal,
 11    39 	2 word_size		ptr unal,
 11    40 	2 bit_size		ptr unal,
 11    41 	2 dcl_size		ptr unal,
 11    42 	2 symtab_size		ptr unal,
 11    43 	2 c_word_size		fixed(24),
 11    44 	2 c_bit_size		fixed(24),
 11    45 	2 c_dcl_size		fixed(24),
 11    46
 11    47 	2 attributes		structure aligned,
 11    48 	  3 data_type		structure unal,
 11    49 	    4 structure		bit(1) ,
 11    50 	    4 fixed		bit(1),
 11    51 	    4 float		bit(1),
 11    52 	    4 bit			bit(1),
 11    53 	    4 char		bit(1),
 11    54 	    4 ptr			bit(1),
 11    55 	    4 offset		bit(1),
 11    56 	    4 area		bit(1),
 11    57 	    4 label		bit(1),
 11    58 	    4 entry		bit(1),
 11    59 	    4 file		bit(1),
 11    60 	    4 arg_descriptor	bit(1),
 11    61 	    4 storage_block		bit(1),
 11    62 	    4 explicit_packed	bit(1), /* options(packed) */
 11    63 	    4 condition		bit(1),
 11    64 	    4 format		bit(1),
 11    65 	    4 builtin		bit(1),
 11    66 	    4 generic		bit(1),
 11    67 	    4 picture		bit(1),
 11    68
 11    69 	  3 misc_attributes		structure unal,
 11    70 	    4 dimensioned		bit(1),
 11    71 	    4 initialed		bit(1),
 11    72 	    4 aligned		bit(1),
 11    73 	    4 unaligned		bit(1),
 11    74 	    4 signed		bit(1),
 11    75 	    4 unsigned		bit(1),
 11    76 	    4 precision		bit(1),
 11    77 	    4 varying		bit(1),
 11    78 	    4 local		bit(1),
 11    79 	    4 decimal		bit(1),
 11    80 	    4 binary		bit(1),
 11    81 	    4 real		bit(1),
 11    82 	    4 complex		bit(1),
 11    83 	    4 variable		bit(1),
 11    84 	    4 reducible		bit(1),
 11    85 	    4 irreducible		bit(1),
 11    86 	    4 returns		bit(1),
 11    87 	    4 position		bit(1),
 11    88 	    4 internal		bit(1),
 11    89 	    4 external		bit(1),
 11    90 	    4 like		bit(1),
 11    91 	    4 member		bit(1),
 11    92 	    4 non_varying		bit(1),
 11    93 	    4 options		bit(1),
 11    94 	    4 variable_arg_list 	bit(1),		/* options(variable) */
 11    95 	    4 alloc_in_text		bit(1),		/* options(constant) */
 11    96
 11    97 	  3 storage_class		structure unal,
 11    98 	    4 auto		bit(1),
 11    99 	    4 based		bit(1),
 11   100 	    4 static		bit(1),
 11   101 	    4 controlled		bit(1),
 11   102 	    4 defined		bit(1),
 11   103 	    4 parameter		bit(1),
 11   104 	    4 param_desc		bit(1),
 11   105 	    4 constant		bit(1),
 11   106 	    4 temporary		bit(1),
 11   107 	    4 return_value		bit(1),
 11   108
 11   109 	  3 file_attributes		structure unal,
 11   110 	    4 print		bit(1),
 11   111 	    4 input		bit(1),
 11   112 	    4 output		bit(1),
 11   113 	    4 update		bit(1),
 11   114 	    4 stream		bit(1),
 11   115 	    4 reserved_1		bit(1),
 11   116 	    4 record		bit(1),
 11   117 	    4 sequential		bit(1),
 11   118 	    4 direct		bit(1),
 11   119 	    4 interactive		bit(1),		/* env(interactive) */
 11   120 	    4 reserved_2		bit(1),
 11   121 	    4 reserved_3		bit(1),
 11   122 	    4 stringvalue		bit(1),		/* env(stringvalue) */
 11   123 	    4 keyed		bit(1),
 11   124 	    4 reserved_4		bit(1),
 11   125 	    4 environment		bit(1),
 11   126
 11   127 	  3 compiler_developed	structure unal,
 11   128 	    4 aliasable		bit(1),
 11   129 	    4 packed		bit(1),
 11   130 	    4 passed_as_arg		bit(1),
 11   131 	    4 allocate		bit(1),
 11   132 	    4 set			bit(1),
 11   133 	    4 exp_extents		bit(1),
 11   134 	    4 refer_extents		bit(1),
 11   135 	    4 star_extents		bit(1),
 11   136 	    4 isub		bit(1),
 11   137 	    4 put_in_symtab		bit(1),
 11   138 	    4 contiguous		bit(1),
 11   139 	    4 put_data		bit(1),
 11   140 	    4 overlayed		bit(1),
 11   141 	    4 error		bit(1),
 11   142 	    4 symtab_processed	bit(1),
 11   143 	    4 overlayed_by_builtin	bit(1),
 11   144 	    4 defaulted		bit(1),
 11   145 	    4 connected		bit(1);
 11   146
 11   147 /* END INCLUDE FILE ... symbol.incl.pl1 */
       87
 12     1 /* BEGIN INCLUDE FILE ... system.incl.pl1 */
 12     2
 12     3 /* Modified: 25 Apr 1979 by PCK to implemnt 4-bit decimal */
 12     4
 12     5 dcl (	max_p_flt_bin_1			initial(27),
 12     6 	max_p_flt_bin_2			initial(63),
 12     7 	max_p_fix_bin_1			initial(35),
 12     8 	max_p_fix_bin_2			initial(71),
 12     9
 12    10 	max_p_dec				initial(59),
 12    11 	max_p_bin_or_dec			initial (71),	/* max (max_p_fix_bin_2, max_p_dec) */
 12    12
 12    13 	min_scale				initial(-128),
 12    14 	max_scale				initial(+127),
 12    15 	max_bit_string			initial(9437184),
 12    16 	max_char_string			initial(1048576),
 12    17 	max_area_size			initial(262144),
 12    18 	min_area_size			initial(28),
 12    19
 12    20 	max_bit_string_constant		initial (253),	/* max length of bit literals */
 12    21 	max_char_string_constant		initial (254),	/* max length of character literals */
 12    22 	max_identifier_length		initial (256),
 12    23 	max_number_of_dimensions		initial (127),
 12    24
 12    25 	max_length_precision		initial(24),
 12    26 	max_offset_precision		initial(24),	/* 18 bits for word offset + 6 bits for bit offset */
 12    27
 12    28 	max_words_per_variable		initial (262144),
 12    29
 12    30 	bits_per_word			initial(36),
 12    31 	bits_per_double			initial(72),
 12    32 	packed_digits_per_character		initial(2),
 12    33 	characters_per_half			initial(2),
 12    34 	characters_per_word			initial(4),
 12    35 	characters_per_double		initial(8),
 12    36
 12    37 	bits_per_character			initial(9),
 12    38 	bits_per_half			initial(18),
 12    39 	bits_per_decimal_digit		initial(9),
 12    40 	bits_per_binary_exponent		initial(8),
 12    41 	bits_per_packed_ptr			initial(36),
 12    42 	words_per_packed_pointer		initial(1),
 12    43
 12    44 	words_per_fix_bin_1			initial(1),
 12    45 	words_per_fix_bin_2			initial(2),
 12    46 	words_per_flt_bin_1			initial(1),
 12    47 	words_per_flt_bin_2			initial(2),
 12    48 	words_per_varying_string_header	initial(1),
 12    49 	words_per_offset			initial(1),
 12    50 	words_per_pointer			initial(2),
 12    51 	words_per_label_var			initial(4),
 12    52 	words_per_entry_var			initial(4),
 12    53 	words_per_file_var			initial(4),
 12    54 	words_per_format			initial(4),
 12    55 	words_per_condition_var		initial(6),
 12    56
 12    57 	max_index_register_value		initial(262143),
 12    58 	max_signed_index_register_value	initial(131071),
 12    59
 12    60 	max_signed_xreg_precision		initial(17),
 12    61 	max_uns_xreg_precision		initial(18),
 12    62
 12    63 	default_area_size			initial(1024),
 12    64 	default_flt_bin_p			initial(27),
 12    65 	default_fix_bin_p			initial(17),
 12    66 	default_flt_dec_p			initial(10),
 12    67           default_fix_dec_p   		initial(7)) fixed bin(31) internal static options(constant);
 12    68
 12    69 dcl	bits_per_digit			initial(4.5)  fixed bin(31,1) internal static options(constant);
 12    70
 12    71 dcl (	integer_type		initial("010000000000000000000100000001100000"b),
 12    72 	dec_integer_type		initial("010000000000000000000100000010100000"b),
 12    73 	pointer_type		initial("000001000000000000000100000000000000"b),
 12    74 	real_type			initial("001000000000000000000100000001100000"b),
 12    75 	complex_type		initial("001000000000000000000100000001010000"b),
 12    76 	builtin_type		initial("000000000000000010000000000000000000"b),
 12    77 	storage_block_type		initial("000000000000100000000000000000000000"b),
 12    78 	arg_desc_type		initial("000000000001000000000000000000000000"b),
 12    79 	local_label_var_type	initial("000000001000000000000100000100001000"b),
 12    80 	entry_var_type		initial("000000000100000000000000000000001000"b),
 12    81 	bit_type			initial("000100000000000000000000000000000000"b),
 12    82 	char_type			initial("000010000000000000000000000000000000"b)) bit(36) aligned int static
 12    83 									options(constant);
 12    84
 12    85 /* END INCLUDE FILE ... system.incl.pl1 */
       88
       89
       90 	end simplify_expression;
	SOURCE FILES USED IN THIS COMPILATION.

LINE      NUMBER  DATE MODIFIED     NAME			PATHNAME
             0    04/18/00  1147.3  simplify_expression.pl1           >udd>sm>ds>w>ml>simplify_expression.pl1
82           1    08/01/89  1339.9  language_utility.incl.pl1         >ldd>incl>language_utility.incl.pl1
1-307        2    05/06/74  1846.9  source_id_descriptor.incl.pl1     >ldd>incl>source_id_descriptor.incl.pl1
1-325        3    05/06/74  1846.9  source_id_descriptor.incl.pl1     >ldd>incl>source_id_descriptor.incl.pl1
1-335        4    05/06/74  1846.9  source_id_descriptor.incl.pl1     >ldd>incl>source_id_descriptor.incl.pl1
1-374        5    05/06/74  1846.9  source_id_descriptor.incl.pl1     >ldd>incl>source_id_descriptor.incl.pl1
1-386        6    05/06/74  1846.9  source_id_descriptor.incl.pl1     >ldd>incl>source_id_descriptor.incl.pl1
83           7    07/21/80  1646.3  nodes.incl.pl1                    >ldd>incl>nodes.incl.pl1
84           8    04/07/83  1735.0  op_codes.incl.pl1                 >ldd>incl>op_codes.incl.pl1
85           9    07/21/80  1646.3  operator.incl.pl1                 >ldd>incl>operator.incl.pl1
86          10    07/21/80  1646.3  reference.incl.pl1                >ldd>incl>reference.incl.pl1
87          11    12/07/83  1801.7  symbol.incl.pl1                   >ldd>incl>symbol.incl.pl1
88          12    12/07/83  1801.7  system.incl.pl1                   >ldd>incl>system.incl.pl1
	NAMES DECLARED IN THIS COMPILATION.

IDENTIFIER	     OFFSET    LOC STORAGE CLASS   DATA TYPE		ATTRIBUTES AND REFERENCES
								(* indicates a set context)

NAMES DECLARED BY DECLARE STATEMENT.
add                                    constant        bit(9)                   initial dcl 8-8 ref 49 61
attributes               31            based           structure                level 2 dcl 11-3
binary                   31(29)        based           bit(1)                   level 4 packed packed unaligned dcl 11-3 ref 32
c_word_size              26            based           fixed bin(24,0)          level 2 dcl 11-3 ref 32
const                           000106 automatic       fixed bin(17,0)          array dcl 15 set ref 55* 61 61 63 63 67 67 75
constant                 32(16)        based           bit(1)                   level 4 in structure "symbol" packed packed
                                                                                  unaligned dcl 11-3 in procedure
                                                                                  "simplify_expression" ref 32
constant                               parameter       fixed bin(17,0)          dcl 15 in procedure "simplify_expression" set ref 11
                                                                                  24* 39* 61* 63* 67*
data_type                31            based           structure                level 3 packed packed unaligned dcl 11-3
declare_constant$integer        000010 constant        entry                    external dcl 1-234 ref 75
fix_bin                                based           fixed bin(17,0)          dcl 16 ref 39
fixed                    31(01)        based           bit(1)                   level 4 packed packed unaligned dcl 11-3 ref 32
i                               000104 automatic       fixed bin(17,0)          dcl 15 set ref 54* 55 55 55* 74* 75 75 75 75*
initial                  11            based           pointer                  level 2 packed packed unaligned dcl 11-3 ref 39
input_tree                             parameter       pointer                  dcl 13 ref 11 22
input_tree_modified                    parameter       bit(1)                   dcl 18 set ref 11 26* 40* 69*
misc_attributes          31(19)        based           structure                level 3 packed packed unaligned dcl 11-3
modified                        000110 automatic       bit(1)                   array dcl 18 set ref 55* 58 58 75
mult                                   constant        bit(9)                   initial dcl 8-8 ref 49
node                                   based           structure                level 1 dcl 7-27
number                    0(21)        based           fixed bin(14,0)          level 2 packed packed unaligned dcl 9-6 ref 54
op_code                   0(09)        based           bit(9)                   level 2 packed packed unaligned dcl 9-6 ref 49 49 49
                                                                                  61 63
operand                   1            based           pointer                  array level 2 packed packed unaligned dcl 9-6 set
                                                                                  ref 55 75 75*
operator                               based           structure                level 1 dcl 9-6
operator_node                          constant        bit(9)                   initial dcl 7-5 ref 46 75
reference                              based           structure                level 1 dcl 10-3
reference_node                         constant        bit(9)                   initial dcl 7-5 ref 28
s                               000102 automatic       pointer                  dcl 13 set ref 30* 32 32 32 32 32 32 39
scale                     2(28)        based           fixed bin(7,0)           level 2 packed packed unaligned dcl 11-3 ref 32
storage_class            32(09)        based           structure                level 3 packed packed unaligned dcl 11-3
sub                                    constant        bit(9)                   initial dcl 8-8 ref 49 63
symbol                    3            based           pointer                  level 2 in structure "reference" packed packed
                                                                                  unaligned dcl 10-3 in procedure
                                                                                  "simplify_expression" ref 30
symbol                                 based           structure                level 1 dcl 11-3 in procedure "simplify_expression"
symbol_node                            constant        bit(9)                   initial dcl 7-5 ref 32
tree                            000100 automatic       pointer                  dcl 13 set ref 22* 28 30 46 49 49 49 54 55 61 63 75
                                                                                  75
type                                   based           bit(9)                   level 2 packed packed unaligned dcl 7-27 ref 28 32
                                                                                  46 75
words_per_fix_bin_1                    constant        fixed bin(31,0)          initial dcl 12-5 ref 32

NAMES DECLARED BY DECLARE STATEMENT AND NEVER REFERENCED.
a_format                               internal static bit(9)                   initial dcl 8-8
abs_fun                                internal static bit(9)                   initial dcl 8-8
acos_fun                               internal static bit(9)                   initial dcl 8-8
acosd_fun                              internal static bit(9)                   initial dcl 8-8
addbitno_fun                           internal static bit(9)                   initial dcl 8-8
addcharno_fun                          internal static bit(9)                   initial dcl 8-8
addr_fun                               internal static bit(9)                   initial dcl 8-8
addr_fun_bits                          internal static bit(9)                   initial dcl 8-8
addrel_fun                             internal static bit(9)                   initial dcl 8-8
adjust_count                    000000 constant        entry                    external dcl 1-20
allocation_fun                         internal static bit(9)                   initial dcl 8-8
allot_auto                             internal static bit(9)                   initial dcl 8-8
allot_based                            internal static bit(9)                   initial dcl 8-8
allot_ctl                              internal static bit(9)                   initial dcl 8-8
allot_var                              internal static bit(9)                   initial dcl 8-8
and_bits                               internal static bit(9)                   initial dcl 8-8
arg_desc_type                          internal static bit(36)                  initial dcl 12-71
array_node                             internal static bit(9)                   initial dcl 7-5
asin_fun                               internal static bit(9)                   initial dcl 8-8
asind_fun                              internal static bit(9)                   initial dcl 8-8
assign                                 internal static bit(9)                   initial dcl 8-8
assign_by_name                         internal static bit(9)                   initial dcl 8-8
assign_round                           internal static bit(9)                   initial dcl 8-8
assign_size_ck                         internal static bit(9)                   initial dcl 8-8
assign_zero                            internal static bit(9)                   initial dcl 8-8
atan_fun                               internal static bit(9)                   initial dcl 8-8
atand_fun                              internal static bit(9)                   initial dcl 8-8
b_format                               internal static bit(9)                   initial dcl 8-8
baseno_fun                             internal static bit(9)                   initial dcl 8-8
baseptr_fun                            internal static bit(9)                   initial dcl 8-8
binary_to_octal_string          000000 constant        entry                    external dcl 1-38
binary_to_octal_var_string      000000 constant        entry                    external dcl 1-43
bindec                          000000 constant        entry                    external dcl 1-23
bindec$vs                       000000 constant        entry                    external dcl 1-28
binoct                          000000 constant        entry                    external dcl 1-33
bit_pointer                            internal static bit(9)                   initial dcl 8-8
bit_to_char                            internal static bit(9)                   initial dcl 8-8
bit_to_word                            internal static bit(9)                   initial dcl 8-8
bit_type                               internal static bit(36)                  initial dcl 12-71
bitno_fun                              internal static bit(9)                   initial dcl 8-8
bits_per_binary_exponent               internal static fixed bin(31,0)          initial dcl 12-5
bits_per_character                     internal static fixed bin(31,0)          initial dcl 12-5
bits_per_decimal_digit                 internal static fixed bin(31,0)          initial dcl 12-5
bits_per_digit                         internal static fixed bin(31,1)          initial dcl 12-69
bits_per_double                        internal static fixed bin(31,0)          initial dcl 12-5
bits_per_half                          internal static fixed bin(31,0)          initial dcl 12-5
bits_per_packed_ptr                    internal static fixed bin(31,0)          initial dcl 12-5
bits_per_word                          internal static fixed bin(31,0)          initial dcl 12-5
block_node                             internal static bit(9)                   initial dcl 7-5
bn_format                              internal static bit(9)                   initial dcl 8-8
bool_fun                               internal static bit(9)                   initial dcl 8-8
bound_ck                               internal static bit(9)                   initial dcl 8-8
bound_node                             internal static bit(9)                   initial dcl 7-5
builtin_type                           internal static bit(36)                  initial dcl 12-71
by_name_agg_node                       internal static bit(9)                   initial dcl 7-5
byte_fun                               internal static bit(9)                   initial dcl 8-8
c_format                               internal static bit(9)                   initial dcl 8-8
cat_string                             internal static bit(9)                   initial dcl 8-8
ceil_fun                               internal static bit(9)                   initial dcl 8-8
char_to_word                           internal static bit(9)                   initial dcl 8-8
char_type                              internal static bit(36)                  initial dcl 12-71
characters_per_double                  internal static fixed bin(31,0)          initial dcl 12-5
characters_per_half                    internal static fixed bin(31,0)          initial dcl 12-5
characters_per_word                    internal static fixed bin(31,0)          initial dcl 12-5
charno_fun                             internal static bit(9)                   initial dcl 8-8
clock_fun                              internal static bit(9)                   initial dcl 8-8
close_file                             internal static bit(9)                   initial dcl 8-8
codeptr_fun                            internal static bit(9)                   initial dcl 8-8
column_format                          internal static bit(9)                   initial dcl 8-8
compare_expression              000000 constant        entry                    external dcl 1-48
complex_fun                            internal static bit(9)                   initial dcl 8-8
complex_type                           internal static bit(36)                  initial dcl 12-71
conjg_fun                              internal static bit(9)                   initial dcl 8-8
constant_length                 000000 constant        entry                    external dcl 1-54
context_node                           internal static bit(9)                   initial dcl 7-5
convert                         000000 constant        entry                    external dcl 1-60
convert$from_builtin            000000 constant        entry                    external dcl 1-72
convert$to_integer              000000 constant        entry                    external dcl 1-66
convert$to_target               000000 constant        entry                    external dcl 1-88
convert$to_target_fb            000000 constant        entry                    external dcl 1-82
convert$validate                000000 constant        entry                    external dcl 1-78
copy_expression                 000000 constant        entry                    external dcl 1-94
copy_expression$copy_sons       000000 constant        entry                    external dcl 1-99
copy_string                            internal static bit(9)                   initial dcl 8-8
copy_unique_expression          000000 constant        entry                    external dcl 1-103
copy_words                             internal static bit(9)                   initial dcl 8-8
cos_fun                                internal static bit(9)                   initial dcl 8-8
cosd_fun                               internal static bit(9)                   initial dcl 8-8
create_array                    000000 constant        entry                    external dcl 1-108
create_block                    000000 constant        entry                    external dcl 1-112
create_bound                    000000 constant        entry                    external dcl 1-118
create_context                  000000 constant        entry                    external dcl 1-122
create_cross_reference          000000 constant        entry                    external dcl 1-128
create_default                  000000 constant        entry                    external dcl 1-132
create_identifier               000000 constant        entry                    external dcl 1-136
create_label                    000000 constant        entry                    external dcl 1-140
create_list                     000000 constant        entry                    external dcl 1-147
create_operator                 000000 constant        entry                    external dcl 1-152
create_reference                000000 constant        entry                    external dcl 1-158
create_statement                000000 constant        entry                    external dcl 1-163
create_statement$prologue       000000 constant        entry                    external dcl 1-171
create_storage                  000000 constant        entry                    external dcl 1-179
create_symbol                   000000 constant        entry                    external dcl 1-184
create_token                    000000 constant        entry                    external dcl 1-191
create_token$init_hash_table    000000 constant        entry                    external dcl 1-197
create_token$protected          000000 constant        entry                    external dcl 1-199
cross_reference_node                   internal static bit(9)                   initial dcl 7-5
dec_integer_type                       internal static bit(36)                  initial dcl 12-71
decbin                          000000 constant        entry                    external dcl 1-206
declare_constant                000000 constant        entry                    external dcl 1-211
declare_constant$bit            000000 constant        entry                    external dcl 1-219
declare_constant$char           000000 constant        entry                    external dcl 1-224
declare_constant$desc           000000 constant        entry                    external dcl 1-229
declare_descriptor              000000 constant        entry                    external dcl 1-239
declare_descriptor$ctl          000000 constant        entry                    external dcl 1-249
declare_descriptor$param        000000 constant        entry                    external dcl 1-259
declare_integer                 000000 constant        entry                    external dcl 1-269
declare_picture                 000000 constant        entry                    external dcl 1-274
declare_picture_temp            000000 constant        entry                    external dcl 1-279
declare_pointer                 000000 constant        entry                    external dcl 1-287
declare_temporary               000000 constant        entry                    external dcl 1-292
decode_node_id                  000000 constant        entry                    external dcl 1-300
decode_source_id                000000 constant        entry                    external dcl 1-306
default_area_size                      internal static fixed bin(31,0)          initial dcl 12-5
default_fix_bin_p                      internal static fixed bin(31,0)          initial dcl 12-5
default_fix_dec_p                      internal static fixed bin(31,0)          initial dcl 12-5
default_flt_bin_p                      internal static fixed bin(31,0)          initial dcl 12-5
default_flt_dec_p                      internal static fixed bin(31,0)          initial dcl 12-5
default_node                           internal static bit(9)                   initial dcl 7-5
delete_file                            internal static bit(9)                   initial dcl 8-8
desc_size                              internal static bit(9)                   initial dcl 8-8
digit_to_bit                           internal static bit(9)                   initial dcl 8-8
div                                    internal static bit(9)                   initial dcl 8-8
do_fun                                 internal static bit(9)                   initial dcl 8-8
do_spec                                internal static bit(9)                   initial dcl 8-8
e_format                               internal static bit(9)                   initial dcl 8-8
empty_area                             internal static bit(9)                   initial dcl 8-8
enable_on                              internal static bit(9)                   initial dcl 8-8
entry_var_type                         internal static bit(36)                  initial dcl 12-71
environmentptr_fun                     internal static bit(9)                   initial dcl 8-8
equal                                  internal static bit(9)                   initial dcl 8-8
error                           000000 constant        entry                    external dcl 1-314
error$omit_text                 000000 constant        entry                    external dcl 1-319
error_                          000000 constant        entry                    external dcl 1-324
error_$finish                   000000 constant        entry                    external dcl 1-343
error_$initialize_error         000000 constant        entry                    external dcl 1-341
error_$no_text                  000000 constant        entry                    external dcl 1-334
ex_prologue                            internal static bit(9)                   initial dcl 8-8
exp                                    internal static bit(9)                   initial dcl 8-8
exp_fun                                internal static bit(9)                   initial dcl 8-8
f_format                               internal static bit(9)                   initial dcl 8-8
floor_fun                              internal static bit(9)                   initial dcl 8-8
format_value_node                      internal static bit(9)                   initial dcl 7-5
fortran_read                           internal static bit(9)                   initial dcl 8-8
fortran_write                          internal static bit(9)                   initial dcl 8-8
free_based                             internal static bit(9)                   initial dcl 8-8
free_ctl                               internal static bit(9)                   initial dcl 8-8
free_node                       000000 constant        entry                    external dcl 1-345
free_var                               internal static bit(9)                   initial dcl 8-8
ftn_file_manip                         internal static bit(9)                   initial dcl 8-8
ftn_trans_loop                         internal static bit(9)                   initial dcl 8-8
get_array_size                  000000 constant        entry                    external dcl 1-348
get_data_trans                         internal static bit(9)                   initial dcl 8-8
get_edit_trans                         internal static bit(9)                   initial dcl 8-8
get_file                               internal static bit(9)                   initial dcl 8-8
get_list_trans                         internal static bit(9)                   initial dcl 8-8
get_size                        000000 constant        entry                    external dcl 1-352
get_string                             internal static bit(9)                   initial dcl 8-8
greater_or_equal                       internal static bit(9)                   initial dcl 8-8
greater_than                           internal static bit(9)                   initial dcl 8-8
half_to_word                           internal static bit(9)                   initial dcl 8-8
imag_fun                               internal static bit(9)                   initial dcl 8-8
index_after_fun                        internal static bit(9)                   initial dcl 8-8
index_before_fun                       internal static bit(9)                   initial dcl 8-8
index_fun                              internal static bit(9)                   initial dcl 8-8
index_rev_fun                          internal static bit(9)                   initial dcl 8-8
integer_type                           internal static bit(36)                  initial dcl 12-71
join                                   internal static bit(9)                   initial dcl 8-8
jump                                   internal static bit(9)                   initial dcl 8-8
jump_false                             internal static bit(9)                   initial dcl 8-8
jump_if_eq                             internal static bit(9)                   initial dcl 8-8
jump_if_ge                             internal static bit(9)                   initial dcl 8-8
jump_if_gt                             internal static bit(9)                   initial dcl 8-8
jump_if_le                             internal static bit(9)                   initial dcl 8-8
jump_if_lt                             internal static bit(9)                   initial dcl 8-8
jump_if_ne                             internal static bit(9)                   initial dcl 8-8
jump_true                              internal static bit(9)                   initial dcl 8-8
l_parn                                 internal static bit(9)                   initial dcl 8-8
label_array_element_node               internal static bit(9)                   initial dcl 7-5
label_node                             internal static bit(9)                   initial dcl 7-5
length_fun                             internal static bit(9)                   initial dcl 8-8
less_or_equal                          internal static bit(9)                   initial dcl 8-8
less_than                              internal static bit(9)                   initial dcl 8-8
line_format                            internal static bit(9)                   initial dcl 8-8
list_node                              internal static bit(9)                   initial dcl 7-5
local_label_var_type                   internal static bit(36)                  initial dcl 12-71
locate_file                            internal static bit(9)                   initial dcl 8-8
lock_file                              internal static bit(9)                   initial dcl 8-8
lock_fun                               internal static bit(9)                   initial dcl 8-8
log10_fun                              internal static bit(9)                   initial dcl 8-8
log2_fun                               internal static bit(9)                   initial dcl 8-8
log_fun                                internal static bit(9)                   initial dcl 8-8
loop                                   internal static bit(9)                   initial dcl 8-8
machine_state_node                     internal static bit(9)                   initial dcl 7-5
make_desc                              internal static bit(9)                   initial dcl 8-8
max_area_size                          internal static fixed bin(31,0)          initial dcl 12-5
max_bit_string                         internal static fixed bin(31,0)          initial dcl 12-5
max_bit_string_constant                internal static fixed bin(31,0)          initial dcl 12-5
max_char_string                        internal static fixed bin(31,0)          initial dcl 12-5
max_char_string_constant               internal static fixed bin(31,0)          initial dcl 12-5
max_fun                                internal static bit(9)                   initial dcl 8-8
max_identifier_length                  internal static fixed bin(31,0)          initial dcl 12-5
max_index_register_value               internal static fixed bin(31,0)          initial dcl 12-5
max_length_precision                   internal static fixed bin(31,0)          initial dcl 12-5
max_number_of_dimensions               internal static fixed bin(31,0)          initial dcl 12-5
max_number_of_operands                 internal static fixed bin(15,0)          initial dcl 9-15
max_offset_precision                   internal static fixed bin(31,0)          initial dcl 12-5
max_p_bin_or_dec                       internal static fixed bin(31,0)          initial dcl 12-5
max_p_dec                              internal static fixed bin(31,0)          initial dcl 12-5
max_p_fix_bin_1                        internal static fixed bin(31,0)          initial dcl 12-5
max_p_fix_bin_2                        internal static fixed bin(31,0)          initial dcl 12-5
max_p_flt_bin_1                        internal static fixed bin(31,0)          initial dcl 12-5
max_p_flt_bin_2                        internal static fixed bin(31,0)          initial dcl 12-5
max_scale                              internal static fixed bin(31,0)          initial dcl 12-5
max_signed_index_register_value        internal static fixed bin(31,0)          initial dcl 12-5
max_signed_xreg_precision              internal static fixed bin(31,0)          initial dcl 12-5
max_uns_xreg_precision                 internal static fixed bin(31,0)          initial dcl 12-5
max_words_per_variable                 internal static fixed bin(31,0)          initial dcl 12-5
merge_attributes                000000 constant        entry                    external dcl 1-355
min_area_size                          internal static fixed bin(31,0)          initial dcl 12-5
min_fun                                internal static bit(9)                   initial dcl 8-8
min_scale                              internal static fixed bin(31,0)          initial dcl 12-5
mod_bit                                internal static bit(9)                   initial dcl 8-8
mod_byte                               internal static bit(9)                   initial dcl 8-8
mod_fun                                internal static bit(9)                   initial dcl 8-8
mod_half                               internal static bit(9)                   initial dcl 8-8
mod_word                               internal static bit(9)                   initial dcl 8-8
negate                                 internal static bit(9)                   initial dcl 8-8
nop                                    internal static bit(9)                   initial dcl 8-8
not_bits                               internal static bit(9)                   initial dcl 8-8
not_equal                              internal static bit(9)                   initial dcl 8-8
null                                                   builtin function         dcl 20
off_fun                                internal static bit(9)                   initial dcl 8-8
open_file                              internal static bit(9)                   initial dcl 8-8
optimizer                       000000 constant        entry                    external dcl 1-361
or_bits                                internal static bit(9)                   initial dcl 8-8
pack                                   internal static bit(9)                   initial dcl 8-8
packed_digits_per_character            internal static fixed bin(31,0)          initial dcl 12-5
page_format                            internal static bit(9)                   initial dcl 8-8
param_desc_ptr                         internal static bit(9)                   initial dcl 8-8
param_ptr                              internal static bit(9)                   initial dcl 8-8
parse_error                     000000 constant        entry                    external dcl 1-364
parse_error$no_text             000000 constant        entry                    external dcl 1-368
picture_format                         internal static bit(9)                   initial dcl 8-8
pl1_error_print$listing_segment 000000 constant        entry                    external dcl 1-384
pl1_error_print$write_out       000000 constant        entry                    external dcl 1-372
pl1_mod_fun                            internal static bit(9)                   initial dcl 8-8
pl1_print$for_lex               000000 constant        entry                    external dcl 1-418
pl1_print$non_varying           000000 constant        entry                    external dcl 1-398
pl1_print$non_varying_nl        000000 constant        entry                    external dcl 1-402
pl1_print$string_pointer        000000 constant        entry                    external dcl 1-406
pl1_print$string_pointer_nl     000000 constant        entry                    external dcl 1-410
pl1_print$unaligned_nl          000000 constant        entry                    external dcl 1-414
pl1_print$varying               000000 constant        entry                    external dcl 1-392
pl1_print$varying_nl            000000 constant        entry                    external dcl 1-395
pointer_type                           internal static bit(36)                  initial dcl 12-71
prefix_plus                            internal static bit(9)                   initial dcl 8-8
ptr_fun                                internal static bit(9)                   initial dcl 8-8
put_control                            internal static bit(9)                   initial dcl 8-8
put_data_trans                         internal static bit(9)                   initial dcl 8-8
put_edit_trans                         internal static bit(9)                   initial dcl 8-8
put_field                              internal static bit(9)                   initial dcl 8-8
put_field_chk                          internal static bit(9)                   initial dcl 8-8
put_file                               internal static bit(9)                   initial dcl 8-8
put_list_trans                         internal static bit(9)                   initial dcl 8-8
put_string                             internal static bit(9)                   initial dcl 8-8
r_format                               internal static bit(9)                   initial dcl 8-8
r_parn                                 internal static bit(9)                   initial dcl 8-8
range_ck                               internal static bit(9)                   initial dcl 8-8
rank_fun                               internal static bit(9)                   initial dcl 8-8
read_file                              internal static bit(9)                   initial dcl 8-8
real_fun                               internal static bit(9)                   initial dcl 8-8
real_type                              internal static bit(36)                  initial dcl 12-71
record_io                              internal static bit(9)                   initial dcl 8-8
refer                                  internal static bit(9)                   initial dcl 8-8
refer_extent                    000000 constant        entry                    external dcl 1-426
rel_fun                                internal static bit(9)                   initial dcl 8-8
repeat_fun                             internal static bit(9)                   initial dcl 8-8
reserve$clear                   000000 constant        entry                    external dcl 1-430
reserve$declare_lib             000000 constant        entry                    external dcl 1-434
reserve$read_lib                000000 constant        entry                    external dcl 1-439
return_bits                            internal static bit(9)                   initial dcl 8-8
return_string                          internal static bit(9)                   initial dcl 8-8
return_value                           internal static bit(9)                   initial dcl 8-8
return_words                           internal static bit(9)                   initial dcl 8-8
reverse_fun                            internal static bit(9)                   initial dcl 8-8
revert_on                              internal static bit(9)                   initial dcl 8-8
rewrite_file                           internal static bit(9)                   initial dcl 8-8
round_fun                              internal static bit(9)                   initial dcl 8-8
search_fun                             internal static bit(9)                   initial dcl 8-8
search_rev_fun                         internal static bit(9)                   initial dcl 8-8
segno_fun                              internal static bit(9)                   initial dcl 8-8
semantic_translator             000000 constant        entry                    external dcl 1-444
semantic_translator$abort       000000 constant        entry                    external dcl 1-446
semantic_translator$error       000000 constant        entry                    external dcl 1-450
setbitno_fun                           internal static bit(9)                   initial dcl 8-8
setcharno_fun                          internal static bit(9)                   initial dcl 8-8
sf_par_node                            internal static bit(9)                   initial dcl 7-5
share_expression                000000 constant        entry                    external dcl 1-454
sign_fun                               internal static bit(9)                   initial dcl 8-8
signal_on                              internal static bit(9)                   initial dcl 8-8
sin_fun                                internal static bit(9)                   initial dcl 8-8
sind_fun                               internal static bit(9)                   initial dcl 8-8
skip_format                            internal static bit(9)                   initial dcl 8-8
source_node                            internal static bit(9)                   initial dcl 7-5
sqrt_fun                               internal static bit(9)                   initial dcl 8-8
stack_ptr                              internal static bit(9)                   initial dcl 8-8
stackbaseptr_fun                       internal static bit(9)                   initial dcl 8-8
stackframeptr_fun                      internal static bit(9)                   initial dcl 8-8
stacq_fun                              internal static bit(9)                   initial dcl 8-8
statement_node                         internal static bit(9)                   initial dcl 7-5
std_arg_list                           internal static bit(9)                   initial dcl 8-8
std_call                               internal static bit(9)                   initial dcl 8-8
std_entry                              internal static bit(9)                   initial dcl 8-8
std_return                             internal static bit(9)                   initial dcl 8-8
stop                                   internal static bit(9)                   initial dcl 8-8
storage_block_type                     internal static bit(36)                  initial dcl 12-71
stream_prep                            internal static bit(9)                   initial dcl 8-8
tan_fun                                internal static bit(9)                   initial dcl 8-8
tand_fun                               internal static bit(9)                   initial dcl 8-8
temporary_node                         internal static bit(9)                   initial dcl 7-5
terminate_trans                        internal static bit(9)                   initial dcl 8-8
token_node                             internal static bit(9)                   initial dcl 7-5
token_to_binary                 000000 constant        entry                    external dcl 1-459
translate_fun                          internal static bit(9)                   initial dcl 8-8
trunc_fun                              internal static bit(9)                   initial dcl 8-8
unlock_file                            internal static bit(9)                   initial dcl 8-8
unpack                                 internal static bit(9)                   initial dcl 8-8
vclock_fun                             internal static bit(9)                   initial dcl 8-8
verify_fun                             internal static bit(9)                   initial dcl 8-8
verify_ltrim_fun                       internal static bit(9)                   initial dcl 8-8
verify_rev_fun                         internal static bit(9)                   initial dcl 8-8
verify_rtrim_fun                       internal static bit(9)                   initial dcl 8-8
word_to_mod2                           internal static bit(9)                   initial dcl 8-8
word_to_mod4                           internal static bit(9)                   initial dcl 8-8
word_to_mod8                           internal static bit(9)                   initial dcl 8-8
wordno_fun                             internal static bit(9)                   initial dcl 8-8
words_per_condition_var                internal static fixed bin(31,0)          initial dcl 12-5
words_per_entry_var                    internal static fixed bin(31,0)          initial dcl 12-5
words_per_file_var                     internal static fixed bin(31,0)          initial dcl 12-5
words_per_fix_bin_2                    internal static fixed bin(31,0)          initial dcl 12-5
words_per_flt_bin_1                    internal static fixed bin(31,0)          initial dcl 12-5
words_per_flt_bin_2                    internal static fixed bin(31,0)          initial dcl 12-5
words_per_format                       internal static fixed bin(31,0)          initial dcl 12-5
words_per_label_var                    internal static fixed bin(31,0)          initial dcl 12-5
words_per_offset                       internal static fixed bin(31,0)          initial dcl 12-5
words_per_packed_pointer               internal static fixed bin(31,0)          initial dcl 12-5
words_per_pointer                      internal static fixed bin(31,0)          initial dcl 12-5
words_per_varying_string_header        internal static fixed bin(31,0)          initial dcl 12-5
write_file                             internal static bit(9)                   initial dcl 8-8
x_format                               internal static bit(9)                   initial dcl 8-8
xor_bits                               internal static bit(9)                   initial dcl 8-8

NAME DECLARED BY EXPLICIT CONTEXT.
simplify_expression             000013 constant        entry                    external dcl 11 ref 55

THERE WERE NO NAMES DECLARED BY CONTEXT OR IMPLICATION.

STORAGE REQUIREMENTS FOR THIS PROGRAM.

	Object	Text	Link	Symbol	Defs	Static
Start          0       0       272         304     231         302
Length       674     231        12         354      40           0

BLOCK NAME	         STACK SIZE     TYPE		WHY NONQUICK/WHO SHARES STACK FRAME
simplify_expression                 100 external procedure  is an external procedure.

STORAGE FOR AUTOMATIC VARIABLES.

STACK FRAME                 LOC IDENTIFIER                  BLOCK NAME
simplify_expression      000100 tree                        simplify_expression
                         000102 s                           simplify_expression
                         000104 i                           simplify_expression
                         000106 const                       simplify_expression
                         000110 modified                    simplify_expression

THE FOLLOWING EXTERNAL OPERATORS ARE USED BY THIS PROGRAM.
call_ext_in         call_ext_out        return_mac          ext_entry

THE FOLLOWING EXTERNAL ENTRIES ARE CALLED BY THIS PROGRAM.
declare_constant$integer

NO EXTERNAL VARIABLES ARE USED BY THIS PROGRAM.


   LINE    LOC      LINE    LOC      LINE    LOC      LINE    LOC      LINE    LOC      LINE    LOC      LINE    LOC
     11 000007        22 000020        24 000024        26 000025        28 000026        30 000033        32 000035
     39 000061        40 000064        43 000066        46 000067        49 000071        54 000103        55 000115
     56 000131        58 000133        61 000141        63 000154        67 000163        69 000167        71 000171
     74 000172        75 000177        78 000226        80 000230


                                          -----------------------------------------------------------


Historical Background

This edition of the Multics software materials and documentation is provided and donated
to Massachusetts Institute of Technology by Group BULL including BULL HN Information Systems Inc.
as a contribution to computer science knowledge.
This donation is made also to give evidence of the common contributions of Massachusetts Institute of Technology,
Bell Laboratories, General Electric, Honeywell Information Systems Inc., Honeywell BULL Inc., Groupe BULL
and BULL HN Information Systems Inc. to the development of this operating system.
Multics development was initiated by Massachusetts Institute of Technology Project MAC (1963-1970),
renamed the MIT Laboratory for Computer Science and Artificial Intelligence in the mid 1970s, under the leadership
of Professor Fernando Jose Corbato. Users consider that Multics provided the best software architecture
for managing computer hardware properly and for executing programs. Many subsequent operating systems
incorporated Multics principles.
Multics was distributed in 1975 to 2000 by Group Bull in Europe , and in the U.S. by Bull HN Information Systems Inc.,
as successor in interest by change in name only to Honeywell Bull Inc. and Honeywell Information Systems Inc. .

                                          -----------------------------------------------------------

Permission to use, copy, modify, and distribute these programs and their documentation for any purpose and without
fee is hereby granted,provided that the below copyright notice and historical background appear in all copies
and that both the copyright notice and historical background and this permission notice appear in supporting
documentation, and that the names of MIT, HIS, BULL or BULL HN not be used in advertising or publicity pertaining
to distribution of the programs without specific prior written permission.
    Copyright 1972 by Massachusetts Institute of Technology and Honeywell Information Systems Inc.
    Copyright 2006 by BULL HN Information Systems Inc.
    Copyright 2006 by Bull SAS
    All Rights Reserved
