	COMPILATION LISTING OF SEGMENT sinh_
	Compiled by: Multics PL/I Compiler, Release 28d, of September 14, 1983
	Compiled at: Honeywell LCPD Phoenix, System M
	Compiled on: 10/03/83  1405.2 mst Mon
	    Options: optimize map

        1 /* ******************************************************
        2*   *                                                    *
        3*   *                                                    *
        4*   * Copyright (c) 1972 by Massachusetts Institute of   *
        5*   * Technology and Honeywell Information Systems, Inc. *
        6*   *                                                    *
        7*   *                                                    *
        8*   ****************************************************** */
        9
       10 /* modified by A. Downing 07/16/73 to use round builtin function */
       11
       12 sinh_: procedure (number) returns (float binary (27));
       13
       14 /*     compute the hyperbolic sine or cosine of a single-precision floating-point number     */
       15 declare (number, n, p, r) float binary (27),
       16         (a, b) float binary (63);
       17 dcl  code_ ext entry (fixed bin),
       18      (abs, exp, round) builtin;
       19 	n = number;
       20 	r = abs (n);
       21 if r >= 0.67943378e0 then large: do;
       22 	     p = -1.e0;
       23 	     go to sinhs;
       24 	end large;
       25 	if r < 5.e-5 then go to negate;
       26 	a = r;
       27 	b = a*a;
       28 	a = ((((0.2755731922398589065e-5 * b + 0.1984126984126984127e-3) * b + 0.8333333333333333333e-2) * b
       29 	+ 0.1666666666666666667e0) * b + 1.e0) * a;
       30 	go to finis;
       31 cosh_: entry (number) returns (float binary (27));
       32 	n, r = abs (number);
       33 	p = 1.e0;
       34 sinhs: if r > 88.028e0 then err: do;
       35 	     call code_ (39);
       36 	     r = 170141182.e30;
       37 	     go to negate;
       38 	end err;
       39 	a = exp (r);
       40 	a = (p/a + a) * 0.5e0;
       41 finis:	r = round (a, 28);
       42 negate:	if n < 0.0e0 then r = -r;
       43 	return (r);
       44      end sinh_;
	SOURCE FILES USED IN THIS COMPILATION.

LINE      NUMBER  DATE MODIFIED     NAME			PATHNAME
             0    10/03/83  1005.1  sinh_.pl1                         >spec>on>pl128d>sinh_.pl1
	NAMES DECLARED IN THIS COMPILATION.

IDENTIFIER	     OFFSET    LOC STORAGE CLASS   DATA TYPE		ATTRIBUTES AND REFERENCES
								(* indicates a set context)

NAMES DECLARED BY DECLARE STATEMENT.
a                               000104 automatic       float bin(63)            dcl 15 set ref 26* 27 27 28* 28 39* 40* 40 40 41
abs                                                    builtin function         dcl 17 ref 20 32
b                               000106 automatic       float bin(63)            dcl 15 set ref 27* 28 28 28 28
code_                           000010 constant        entry                    external dcl 17 ref 35
exp                                                    builtin function         dcl 17 ref 39
n                               000100 automatic       float bin(27)            dcl 15 set ref 19* 20 32* 42
number                                 parameter       float bin(27)            dcl 15 ref 12 19 31 32
p                               000101 automatic       float bin(27)            dcl 15 set ref 22* 33* 40
r                               000102 automatic       float bin(27)            dcl 15 set ref 20* 21 25 26 32* 34 36* 39 41* 42* 42
                                                                                  43
round                                                  builtin function         dcl 17 ref 41

NAMES DECLARED BY EXPLICIT CONTEXT.
cosh_                           000064 constant        entry                    external dcl 31
err                             000104 constant        label                    dcl 34
finis                           000130 constant        label                    dcl 41 ref 30
large                           000037 constant        label                    dcl 21
negate                          000133 constant        label                    dcl 42 ref 25 37
sinh_                           000022 constant        entry                    external dcl 12
sinhs                           000101 constant        label                    dcl 34 ref 23

THERE WERE NO NAMES DECLARED BY CONTEXT OR IMPLICATION.

STORAGE REQUIREMENTS FOR THIS PROGRAM.

	Object	Text	Link	Symbol	Defs	Static
Start          0       0       202         214     144         212
Length       356     144        12         125      35           0

BLOCK NAME	         STACK SIZE     TYPE		WHY NONQUICK/WHO SHARES STACK FRAME
sinh_                               110 external procedure  is an external procedure.

STORAGE FOR AUTOMATIC VARIABLES.

STACK FRAME                 LOC IDENTIFIER                  BLOCK NAME
sinh_                    000100 n                           sinh_
                         000101 p                           sinh_
                         000102 r                           sinh_
                         000104 a                           sinh_
                         000106 b                           sinh_

THE FOLLOWING EXTERNAL OPERATORS ARE USED BY THIS PROGRAM.
call_ext_out        return              ext_entry           round_fl            exp

THE FOLLOWING EXTERNAL ENTRIES ARE CALLED BY THIS PROGRAM.
code_

NO EXTERNAL VARIABLES ARE USED BY THIS PROGRAM.


   LINE    LOC      LINE    LOC      LINE    LOC      LINE    LOC      LINE    LOC      LINE    LOC      LINE    LOC
     12 000016        19 000027        20 000032        21 000035        22 000037        23 000041        25 000042
     26 000044        27 000045        28 000047        30 000061        31 000062        32 000071        33 000077
     34 000101        35 000104        36 000115        37 000117        39 000120        40 000123        41 000130
     42 000133        43 000140


                                          -----------------------------------------------------------


Historical Background

This edition of the Multics software materials and documentation is provided and donated
to Massachusetts Institute of Technology by Group BULL including BULL HN Information Systems Inc.
as a contribution to computer science knowledge.
This donation is made also to give evidence of the common contributions of Massachusetts Institute of Technology,
Bell Laboratories, General Electric, Honeywell Information Systems Inc., Honeywell BULL Inc., Groupe BULL
and BULL HN Information Systems Inc. to the development of this operating system.
Multics development was initiated by Massachusetts Institute of Technology Project MAC (1963-1970),
renamed the MIT Laboratory for Computer Science and Artificial Intelligence in the mid 1970s, under the leadership
of Professor Fernando Jose Corbato. Users consider that Multics provided the best software architecture
for managing computer hardware properly and for executing programs. Many subsequent operating systems
incorporated Multics principles.
Multics was distributed in 1975 to 2000 by Group Bull in Europe , and in the U.S. by Bull HN Information Systems Inc.,
as successor in interest by change in name only to Honeywell Bull Inc. and Honeywell Information Systems Inc. .

                                          -----------------------------------------------------------

Permission to use, copy, modify, and distribute these programs and their documentation for any purpose and without
fee is hereby granted,provided that the below copyright notice and historical background appear in all copies
and that both the copyright notice and historical background and this permission notice appear in supporting
documentation, and that the names of MIT, HIS, BULL or BULL HN not be used in advertising or publicity pertaining
to distribution of the programs without specific prior written permission.
    Copyright 1972 by Massachusetts Institute of Technology and Honeywell Information Systems Inc.
    Copyright 2006 by BULL HN Information Systems Inc.
    Copyright 2006 by Bull SAS
    All Rights Reserved
