ASSEMBLY LISTING OF SEGMENT >special_ldd>online>41-4>ssu_.alm
ASSEMBLED ON:	01/16/85  1251.3 mst Wed
OPTIONS USED:	list
ASSEMBLED BY:	ALM Version  6.6  November 1982
ASSEMBLER CREATED:	09/21/83  1227.3 mst Wed

                                     1  " ***********************************************************
                                     2  " *                                                         *
                                     3  " * Copyright, (C) Honeywell Information Systems Inc., 1982 *
                                     4  " *                                                         *
                                     5  " ***********************************************************
                                     6
                                     7
                                     8  " SSU_ --- Transfer vector for accessing all of the subsystem utility functions
                                     9
                                    10  " Created:  3 May 1980 by W. Olin Sibert
                                    11  " Modified: 24 July 1981 by Jay Pattin to add entries for ssu_ec_
                                    12  " Modified: 17 November 1981 by Jay Pattin to add get/set_info_prefix
                                    13  " Modified: 10 December 1981 by G. Palter to make arg_count, arg_ptr, return_arg, and
                                    14  "    arg_list_ptr replaceable
                                    15  " Modified: February 1982 by G. Palter to add ssu_$standalone_invocation, rename the
                                    16  "    exec_com entries, and reflect the movement of some entries to eliminate ssu_table_mgr_
                                    17  " Modified: June 1982 by G. Palter to add (get set reset)_request_processor_options and
                                    18  "    get_default_rp_options (all replaceable), add reset_procedure, make execute_line and
                                    19  "    evaluate_active_string not go through the SCI but instead call setup procedures which
                                    20  "    then transfer through the SCI, and rename ssu_execute_line_ to ssu_request_processor_
                                    21  " Modified: 9 July 1982 by Jay Pattin to add execute_start_up
                                    22  " Modified: 30 August 1982 by G. Palter to delete ssu_$set_default_procedure which was
                                    23  "    replaced by ssu_$reset_procedure
                                    24  " Modified: 6 November 1984 by G. Palter to make ssu_$get_subsystem_and_request_name a
                                    25  "    replaceable procedure
                                    26
                                    27
    000000                          28  	name	ssu_
                                    29
                                    30
                                    31  " Macro to generate a call to an external entrypoint in the utilities
                                    32
                                    33  	macro	ext_transfer
                              1     34  	segdef	&1
                              2     35  &1:	getlp
                              3     36  	tra	&2
                              4     37
                              5     38  	&end
                                    39
                                    40
                                    41  " Macro to generate a call to a replaceable procedure
                                    42
                                    43  	macro	sci_transfer
                              1     44  	segdef	&1
                              2     45  &1:	epp1	ap|2,*		" PR1 <- addr (sci_ptr)
                              3     46  	epp1	pr1|0,*		" PR1 <- addr (sci)
                              4     47  	ife	&2,()
                              5     48  	tra	pr1|sci.&1,*
                              6     49  	ifend
                              7     50  	ine	&2,()
                              8     51  	tra	pr1|sci.&2,*
                              9     52  	ifend
                             10     53
                             11     54  	&end
                                    55
                                    56
                                    57  " An entry which does nothing: used as default value of several replaceable procedures
                                    58
                        000000      59  	segdef	just_return
                                    60
    000000                          61  just_return:
    000000  aa  7 00044 7101 20     62  	short_return
                                    63
                                    64
                                    65  " Null label and entry variables (PL/I doesn't provide them in the language)
                                    66
                        000002      67  	segdef	null_label
                        000002      68  	segdef	null_entry
                                    69
    000001  aa   000000 0110 03     70  	even
    000002                          71  null_label:
    000002                          72  null_entry:
    000002  aa   077777 000043      73  	its	-1,1
    000003  aa   000001 000000
    000004  aa   077777 000043      74  	its	-1,1
    000005  aa   000001 000000
                                    75
                                    76  " 
                                    77
                                    78  	sci_transfer	abort_line
                        000006          	segdef	abort_line
    000006  aa  0 00002 3515 20         abort_line:	epp1	ap|2,*		" PR1 <- addr (sci_ptr)
    000007  aa  1 00000 3515 20         	epp1	pr1|0,*		" PR1 <- addr (sci)
    000010  aa  1 00144 7101 20         	tra	pr1|sci.abort_line,*

                                    79  	sci_transfer	abort_subsystem
                        000011          	segdef	abort_subsystem
    000011  aa  0 00002 3515 20         abort_subsystem:	epp1	ap|2,*		" PR1 <- addr (sci_ptr)
    000012  aa  1 00000 3515 20         	epp1	pr1|0,*		" PR1 <- addr (sci)
    000013  aa  1 00150 7101 20         	tra	pr1|sci.abort_subsystem,*

                                    80  	ext_transfer	add_info_dir,ssu_info_mgr_$add_info_dir
                        000014          	segdef	add_info_dir
    000014  aa  7 00046 2721 20         add_info_dir:	getlp
    000015  4a  4 00010 7101 20         	tra	ssu_info_mgr_$add_info_dir

                                    81  	ext_transfer	add_request_table,ssu_request_mgr_$add_request_table
                        000016          	segdef	add_request_table
    000016  aa  7 00046 2721 20         add_request_table:	getlp
    000017  4a  4 00012 7101 20         	tra	ssu_request_mgr_$add_request_table

                                    82  	ext_transfer	apply_request_util,ssu_misc_requests_$apply_request_util
                        000020          	segdef	apply_request_util
    000020  aa  7 00046 2721 20         apply_request_util:	getlp
    000021  4a  4 00014 7101 20         	tra	ssu_misc_requests_$apply_request_util

                                    83  	sci_transfer	arg_count
                        000022          	segdef	arg_count
    000022  aa  0 00002 3515 20         arg_count:	epp1	ap|2,*		" PR1 <- addr (sci_ptr)
    000023  aa  1 00000 3515 20         	epp1	pr1|0,*		" PR1 <- addr (sci)
    000024  aa  1 00234 7101 20         	tra	pr1|sci.arg_count,*

                                    84  	sci_transfer	arg_list_ptr
                        000025          	segdef	arg_list_ptr
    000025  aa  0 00002 3515 20         arg_list_ptr:	epp1	ap|2,*		" PR1 <- addr (sci_ptr)
    000026  aa  1 00000 3515 20         	epp1	pr1|0,*		" PR1 <- addr (sci)
    000027  aa  1 00250 7101 20         	tra	pr1|sci.arg_list_ptr,*

                                    85  	sci_transfer	arg_ptr
                        000030          	segdef	arg_ptr
    000030  aa  0 00002 3515 20         arg_ptr:	epp1	ap|2,*		" PR1 <- addr (sci_ptr)
    000031  aa  1 00000 3515 20         	epp1	pr1|0,*		" PR1 <- addr (sci)
    000032  aa  1 00240 7101 20         	tra	pr1|sci.arg_ptr,*

                                    86  	ext_transfer	cpescape,ssu_misc_procs_$cpescape
                        000033          	segdef	cpescape
    000033  aa  7 00046 2721 20         cpescape:	getlp
    000034  4a  4 00016 7101 20         	tra	ssu_misc_procs_$cpescape

                                    87  	ext_transfer	cpescape_disabled,ssu_misc_procs_$cpescape_disabled
                        000035          	segdef	cpescape_disabled
    000035  aa  7 00046 2721 20         cpescape_disabled:	getlp
    000036  4a  4 00020 7101 20         	tra	ssu_misc_procs_$cpescape_disabled

                                    88  	ext_transfer	create_invocation,ssu_invocation_$create
                        000037          	segdef	create_invocation
    000037  aa  7 00046 2721 20         create_invocation:	getlp
    000040  4a  4 00022 7101 20         	tra	ssu_invocation_$create

                                    89  	ext_transfer	delete_info_dir,ssu_info_mgr_$delete_info_dir
                        000041          	segdef	delete_info_dir
    000041  aa  7 00046 2721 20         delete_info_dir:	getlp
    000042  4a  4 00024 7101 20         	tra	ssu_info_mgr_$delete_info_dir

                                    90  	ext_transfer	delete_request_table,ssu_request_mgr_$delete_request_table
                        000043          	segdef	delete_request_table
    000043  aa  7 00046 2721 20         delete_request_table:	getlp
    000044  4a  4 00026 7101 20         	tra	ssu_request_mgr_$delete_request_table

                                    91  	ext_transfer	destroy_invocation,ssu_invocation_$destroy
                        000045          	segdef	destroy_invocation
    000045  aa  7 00046 2721 20         destroy_invocation:	getlp
    000046  4a  4 00030 7101 20         	tra	ssu_invocation_$destroy

                                    92  	ext_transfer	evaluate_active_string,ssu_request_processor_$prepare_to_evaluate_string
                        000047          	segdef	evaluate_active_string
    000047  aa  7 00046 2721 20         evaluate_active_string:	getlp
    000050  4a  4 00032 7101 20         	tra	ssu_request_processor_$prepare_to_evaluate_string

                                    93  	ext_transfer	execute_line,ssu_request_processor_$prepare_to_execute_line
                        000051          	segdef	execute_line
    000051  aa  7 00046 2721 20         execute_line:	getlp
    000052  4a  4 00034 7101 20         	tra	ssu_request_processor_$prepare_to_execute_line

                                    94  	ext_transfer	execute_start_up,ssu_ec_$execute_start_up
                        000053          	segdef	execute_start_up
    000053  aa  7 00046 2721 20         execute_start_up:	getlp
    000054  4a  4 00036 7101 20         	tra	ssu_ec_$execute_start_up

                                    95  	ext_transfer	execute_string,ssu_request_processor_$execute_string
                        000055          	segdef	execute_string
    000055  aa  7 00046 2721 20         execute_string:	getlp
    000056  4a  4 00040 7101 20         	tra	ssu_request_processor_$execute_string

                                    96  	ext_transfer	get_abbrev_info,ssu_request_processor_$get_abbrev_info
                        000057          	segdef	get_abbrev_info
    000057  aa  7 00046 2721 20         get_abbrev_info:	getlp
    000060  4a  4 00042 7101 20         	tra	ssu_request_processor_$get_abbrev_info

                                    97  	ext_transfer	get_area,ssu_temp_mgr_$get_area
                        000061          	segdef	get_area
    000061  aa  7 00046 2721 20         get_area:	getlp
    000062  4a  4 00044 7101 20         	tra	ssu_temp_mgr_$get_area

                                    98  	ext_transfer	get_debug_mode,ssu_misc_procs_$get_debug_mode
                        000063          	segdef	get_debug_mode
    000063  aa  7 00046 2721 20         get_debug_mode:	getlp
    000064  4a  4 00046 7101 20         	tra	ssu_misc_procs_$get_debug_mode

                                    99  	ext_transfer	get_default_procedure,ssu_procedure_mgr_$get_default
                        000065          	segdef	get_default_procedure
    000065  aa  7 00046 2721 20         get_default_procedure:	getlp
    000066  4a  4 00050 7101 20         	tra	ssu_procedure_mgr_$get_default

                                   100  	sci_transfer	get_default_rp_options
                        000067          	segdef	get_default_rp_options
    000067  aa  0 00002 3515 20         get_default_rp_options:	epp1	ap|2,*		" PR1 <- addr (sci_ptr)
    000070  aa  1 00000 3515 20         	epp1	pr1|0,*		" PR1 <- addr (sci)
    000071  aa  1 00254 7101 20         	tra	pr1|sci.get_default_rp_options,*

                                   101  	ext_transfer	get_ec_search_list,ssu_ec_$get_ec_search_list
                        000072          	segdef	get_ec_search_list
    000072  aa  7 00046 2721 20         get_ec_search_list:	getlp
    000073  4a  4 00052 7101 20         	tra	ssu_ec_$get_ec_search_list

                                   102  	ext_transfer	get_ec_subsystem_ptr,ssu_ec_$get_ec_subsystem_ptr
                        000074          	segdef	get_ec_subsystem_ptr
    000074  aa  7 00046 2721 20         get_ec_subsystem_ptr:	getlp
    000075  4a  4 00054 7101 20         	tra	ssu_ec_$get_ec_subsystem_ptr

                                   103  	ext_transfer	get_ec_suffix,ssu_ec_$get_ec_suffix
                        000076          	segdef	get_ec_suffix
    000076  aa  7 00046 2721 20         get_ec_suffix:	getlp
    000077  4a  4 00056 7101 20         	tra	ssu_ec_$get_ec_suffix

                                   104  	ext_transfer	get_info_prefix,ssu_info_mgr_$get_info_prefix
                        000100          	segdef	get_info_prefix
    000100  aa  7 00046 2721 20         get_info_prefix:	getlp
    000101  4a  4 00060 7101 20         	tra	ssu_info_mgr_$get_info_prefix

                                   105  	ext_transfer	get_info_ptr,ssu_invocation_$get_info_ptr
                        000102          	segdef	get_info_ptr
    000102  aa  7 00046 2721 20         get_info_ptr:	getlp
    000103  4a  4 00062 7101 20         	tra	ssu_invocation_$get_info_ptr

                                   106  	ext_transfer	get_invocation_count,ssu_invocation_$get_invocation_count
                        000104          	segdef	get_invocation_count
    000104  aa  7 00046 2721 20         get_invocation_count:	getlp
    000105  4a  4 00064 7101 20         	tra	ssu_invocation_$get_invocation_count

                                   107  	ext_transfer	get_level_n_sci_ptr,ssu_invocation_$get_level_n_sci_ptr
                        000106          	segdef	get_level_n_sci_ptr
    000106  aa  7 00046 2721 20         get_level_n_sci_ptr:	getlp
    000107  4a  4 00066 7101 20         	tra	ssu_invocation_$get_level_n_sci_ptr

                                   108  	ext_transfer	get_prev_sci_ptr,ssu_invocation_$get_prev_sci_ptr
                        000110          	segdef	get_prev_sci_ptr
    000110  aa  7 00046 2721 20         get_prev_sci_ptr:	getlp
    000111  4a  4 00070 7101 20         	tra	ssu_invocation_$get_prev_sci_ptr

                                   109  	ext_transfer	get_procedure,ssu_procedure_mgr_$get
                        000112          	segdef	get_procedure
    000112  aa  7 00046 2721 20         get_procedure:	getlp
    000113  4a  4 00072 7101 20         	tra	ssu_procedure_mgr_$get

                                   110  	ext_transfer	get_prompt,ssu_misc_procs_$get_prompt
                        000114          	segdef	get_prompt
    000114  aa  7 00046 2721 20         get_prompt:	getlp
    000115  4a  4 00074 7101 20         	tra	ssu_misc_procs_$get_prompt

                                   111  	ext_transfer	get_prompt_mode,ssu_misc_procs_$get_prompt_mode
                        000116          	segdef	get_prompt_mode
    000116  aa  7 00046 2721 20         get_prompt_mode:	getlp
    000117  4a  4 00076 7101 20         	tra	ssu_misc_procs_$get_prompt_mode

                                   112  	ext_transfer	get_ready_mode,ssu_misc_procs_$get_ready_mode
                        000120          	segdef	get_ready_mode
    000120  aa  7 00046 2721 20         get_ready_mode:	getlp
    000121  4a  4 00100 7101 20         	tra	ssu_misc_procs_$get_ready_mode

                                   113  	ext_transfer	get_request_name,ssu_invocation_$get_request_name
                        000122          	segdef	get_request_name
    000122  aa  7 00046 2721 20         get_request_name:	getlp
    000123  4a  4 00102 7101 20         	tra	ssu_invocation_$get_request_name

                                   114  	sci_transfer	get_request_processor_options,get_rp_options
                        000124          	segdef	get_request_processor_options
    000124  aa  0 00002 3515 20         get_request_processor_options:	epp1	ap|2,*		" PR1 <- addr (sci_ptr)
    000125  aa  1 00000 3515 20         	epp1	pr1|0,*		" PR1 <- addr (sci)
    000126  aa  1 00260 7101 20         	tra	pr1|sci.get_rp_options,*

                                   115  	sci_transfer	get_subsystem_and_request_name,get_subsys_and_request_name
                        000127          	segdef	get_subsystem_and_request_name
    000127  aa  0 00002 3515 20         get_subsystem_and_request_name:	epp1	ap|2,*		" PR1 <- addr (sci_ptr)
    000130  aa  1 00000 3515 20         	epp1	pr1|0,*		" PR1 <- addr (sci)
    000131  aa  1 00274 7101 20         	tra	pr1|sci.get_subsys_and_request_name,*

                                   116  	ext_transfer	get_subsystem_name,ssu_invocation_$get_subsystem_name
                        000132          	segdef	get_subsystem_name
    000132  aa  7 00046 2721 20         get_subsystem_name:	getlp
    000133  4a  4 00104 7101 20         	tra	ssu_invocation_$get_subsystem_name

                                   117  	ext_transfer	get_subsystem_version,ssu_invocation_$get_subsystem_version
                        000134          	segdef	get_subsystem_version
    000134  aa  7 00046 2721 20         get_subsystem_version:	getlp
    000135  4a  4 00106 7101 20         	tra	ssu_invocation_$get_subsystem_version

                                   118  	ext_transfer	get_temp_segment,ssu_temp_mgr_$get_segment
                        000136          	segdef	get_temp_segment
    000136  aa  7 00046 2721 20         get_temp_segment:	getlp
    000137  4a  4 00110 7101 20         	tra	ssu_temp_mgr_$get_segment

                                   119  	sci_transfer	invoke_request
                        000140          	segdef	invoke_request
    000140  aa  0 00002 3515 20         invoke_request:	epp1	ap|2,*		" PR1 <- addr (sci_ptr)
    000141  aa  1 00000 3515 20         	epp1	pr1|0,*		" PR1 <- addr (sci)
    000142  aa  1 00224 7101 20         	tra	pr1|sci.invoke_request,*

                                   120  	ext_transfer	list_info_dirs,ssu_info_mgr_$list_info_dirs
                        000143          	segdef	list_info_dirs
    000143  aa  7 00046 2721 20         list_info_dirs:	getlp
    000144  4a  4 00112 7101 20         	tra	ssu_info_mgr_$list_info_dirs

                                   121  	ext_transfer	list_request_tables,ssu_request_mgr_$list_request_tables
                        000145          	segdef	list_request_tables
    000145  aa  7 00046 2721 20         list_request_tables:	getlp
    000146  4a  4 00114 7101 20         	tra	ssu_request_mgr_$list_request_tables

                                   122  	sci_transfer	listen
                        000147          	segdef	listen
    000147  aa  0 00002 3515 20         listen:	epp1	ap|2,*		" PR1 <- addr (sci_ptr)
    000150  aa  1 00000 3515 20         	epp1	pr1|0,*		" PR1 <- addr (sci)
    000151  aa  1 00210 7101 20         	tra	pr1|sci.listen,*

                                   123  	sci_transfer	locate_request
                        000152          	segdef	locate_request
    000152  aa  0 00002 3515 20         locate_request:	epp1	ap|2,*		" PR1 <- addr (sci_ptr)
    000153  aa  1 00000 3515 20         	epp1	pr1|0,*		" PR1 <- addr (sci)
    000154  aa  1 00230 7101 20         	tra	pr1|sci.locate_request,*

                                   124  	ext_transfer	print_blast,ssu_usage_$print_blast
                        000155          	segdef	print_blast
    000155  aa  7 00046 2721 20         print_blast:	getlp
    000156  4a  4 00116 7101 20         	tra	ssu_usage_$print_blast

                                   125  	sci_transfer	print_message
                        000157          	segdef	print_message
    000157  aa  0 00002 3515 20         print_message:	epp1	ap|2,*		" PR1 <- addr (sci_ptr)
    000160  aa  1 00000 3515 20         	epp1	pr1|0,*		" PR1 <- addr (sci)
    000161  aa  1 00154 7101 20         	tra	pr1|sci.print_message,*

                                   126  	ext_transfer	record_usage,ssu_usage_$record_usage
                        000162          	segdef	record_usage
    000162  aa  7 00046 2721 20         record_usage:	getlp
    000163  4a  4 00120 7101 20         	tra	ssu_usage_$record_usage

                                   127  	ext_transfer	release_area,ssu_temp_mgr_$release_area
                        000164          	segdef	release_area
    000164  aa  7 00046 2721 20         release_area:	getlp
    000165  4a  4 00122 7101 20         	tra	ssu_temp_mgr_$release_area

                                   128  	ext_transfer	release_temp_segment,ssu_temp_mgr_$release_segment
                        000166          	segdef	release_temp_segment
    000166  aa  7 00046 2721 20         release_temp_segment:	getlp
    000167  4a  4 00124 7101 20         	tra	ssu_temp_mgr_$release_segment

                                   129  	ext_transfer	reset_procedure,ssu_procedure_mgr_$set_default
                        000170          	segdef	reset_procedure
    000170  aa  7 00046 2721 20         reset_procedure:	getlp
    000171  4a  4 00126 7101 20         	tra	ssu_procedure_mgr_$set_default

                                   130  	sci_transfer	reset_request_processor_options,reset_rp_options
                        000172          	segdef	reset_request_processor_options
    000172  aa  0 00002 3515 20         reset_request_processor_options:	epp1	ap|2,*		" PR1 <- addr (sci_ptr)
    000173  aa  1 00000 3515 20         	epp1	pr1|0,*		" PR1 <- addr (sci)
    000174  aa  1 00270 7101 20         	tra	pr1|sci.reset_rp_options,*

                                   131  	sci_transfer	return_arg
                        000175          	segdef	return_arg
    000175  aa  0 00002 3515 20         return_arg:	epp1	ap|2,*		" PR1 <- addr (sci_ptr)
    000176  aa  1 00000 3515 20         	epp1	pr1|0,*		" PR1 <- addr (sci)
    000177  aa  1 00244 7101 20         	tra	pr1|sci.return_arg,*

                                   132  	ext_transfer	set_abbrev_info,ssu_request_processor_$set_abbrev_info
                        000200          	segdef	set_abbrev_info
    000200  aa  7 00046 2721 20         set_abbrev_info:	getlp
    000201  4a  4 00130 7101 20         	tra	ssu_request_processor_$set_abbrev_info

                                   133  	ext_transfer	set_debug_mode,ssu_misc_procs_$set_debug_mode
                        000202          	segdef	set_debug_mode
    000202  aa  7 00046 2721 20         set_debug_mode:	getlp
    000203  4a  4 00132 7101 20         	tra	ssu_misc_procs_$set_debug_mode

                                   134  	ext_transfer	set_info_dirs,ssu_info_mgr_$set_info_dirs
                        000204          	segdef	set_info_dirs
    000204  aa  7 00046 2721 20         set_info_dirs:	getlp
    000205  4a  4 00134 7101 20         	tra	ssu_info_mgr_$set_info_dirs

                                   135  	ext_transfer	set_info_prefix,ssu_info_mgr_$set_info_prefix
                        000206          	segdef	set_info_prefix
    000206  aa  7 00046 2721 20         set_info_prefix:	getlp
    000207  4a  4 00136 7101 20         	tra	ssu_info_mgr_$set_info_prefix

                                   136  	ext_transfer	set_info_ptr,ssu_invocation_$set_info_ptr
                        000210          	segdef	set_info_ptr
    000210  aa  7 00046 2721 20         set_info_ptr:	getlp
    000211  4a  4 00140 7101 20         	tra	ssu_invocation_$set_info_ptr

                                   137  	ext_transfer	set_procedure,ssu_procedure_mgr_$set
                        000212          	segdef	set_procedure
    000212  aa  7 00046 2721 20         set_procedure:	getlp
    000213  4a  4 00142 7101 20         	tra	ssu_procedure_mgr_$set

                                   138  	ext_transfer	set_prompt,ssu_misc_procs_$set_prompt
                        000214          	segdef	set_prompt
    000214  aa  7 00046 2721 20         set_prompt:	getlp
    000215  4a  4 00144 7101 20         	tra	ssu_misc_procs_$set_prompt

                                   139  	ext_transfer	set_prompt_mode,ssu_misc_procs_$set_prompt_mode
                        000216          	segdef	set_prompt_mode
    000216  aa  7 00046 2721 20         set_prompt_mode:	getlp
    000217  4a  4 00146 7101 20         	tra	ssu_misc_procs_$set_prompt_mode

                                   140  	ext_transfer	set_ready_mode,ssu_misc_procs_$set_ready_mode
                        000220          	segdef	set_ready_mode
    000220  aa  7 00046 2721 20         set_ready_mode:	getlp
    000221  4a  4 00150 7101 20         	tra	ssu_misc_procs_$set_ready_mode

                                   141  	sci_transfer	set_request_processor_options,set_rp_options
                        000222          	segdef	set_request_processor_options
    000222  aa  0 00002 3515 20         set_request_processor_options:	epp1	ap|2,*		" PR1 <- addr (sci_ptr)
    000223  aa  1 00000 3515 20         	epp1	pr1|0,*		" PR1 <- addr (sci)
    000224  aa  1 00264 7101 20         	tra	pr1|sci.set_rp_options,*

                                   142  	ext_transfer	set_request_tables,ssu_request_mgr_$set_request_tables
                        000225          	segdef	set_request_tables
    000225  aa  7 00046 2721 20         set_request_tables:	getlp
    000226  4a  4 00152 7101 20         	tra	ssu_request_mgr_$set_request_tables

                                   143  	ext_transfer	set_ec_search_list,ssu_ec_$set_ec_search_list
                        000227          	segdef	set_ec_search_list
    000227  aa  7 00046 2721 20         set_ec_search_list:	getlp
    000230  4a  4 00154 7101 20         	tra	ssu_ec_$set_ec_search_list

                                   144  	ext_transfer	set_ec_subsystem_ptr,ssu_ec_$set_ec_subsystem_ptr
                        000231          	segdef	set_ec_subsystem_ptr
    000231  aa  7 00046 2721 20         set_ec_subsystem_ptr:	getlp
    000232  4a  4 00156 7101 20         	tra	ssu_ec_$set_ec_subsystem_ptr

                                   145  	ext_transfer	set_ec_suffix,ssu_ec_$set_ec_suffix
                        000233          	segdef	set_ec_suffix
    000233  aa  7 00046 2721 20         set_ec_suffix:	getlp
    000234  4a  4 00160 7101 20         	tra	ssu_ec_$set_ec_suffix

                                   146  	ext_transfer	standalone_invocation,ssu_invocation_$create_standalone
                        000235          	segdef	standalone_invocation
    000235  aa  7 00046 2721 20         standalone_invocation:	getlp
    000236  4a  4 00162 7101 20         	tra	ssu_invocation_$create_standalone

                                   147  	sci_transfer	unknown_request
                        000237          	segdef	unknown_request
    000237  aa  0 00002 3515 20         unknown_request:	epp1	ap|2,*		" PR1 <- addr (sci_ptr)
    000240  aa  1 00000 3515 20         	epp1	pr1|0,*		" PR1 <- addr (sci)
    000241  aa  1 00204 7101 20         	tra	pr1|sci.unknown_request,*

                                   148
                                   149  " 
                                   150
                                   151  	include	_ssu_sci
                                   1-1
                                   1-2
                                   1-3       "BEGIN INCLUDE FILE _ssu_sci.incl.alm
                                   1-4
                                   1-5
                                   1-6  	"Created 11/06/84  1718.2 est Tue by convert_include_file,
                                   1-7  	"   Version of 11/07/82  1445.1 est Sun.
                                   1-8
                                   1-9  	"Made from >Pool>Multics>Palter>work>ssu>include>_ssu_sci.incl.pl1,
                                  1-10  	"   modified 11/06/84  1718.2 est Tue
                                  1-11
                                  1-12  "
                                  1-13  "	Structure sci
                                  1-14  "
                        000300    1-15  	equ	sci_size,192
                                  1-16
                                  1-17
                        000000    1-18  	equ	sci.version,0		" DOUBLE
                        000002    1-19  	equ	sci.parent_area_ptr,2
                        000004    1-20  	equ	sci.global_info,4		" LEVEL 2
                                  1-21
                        000004    1-22  	equ	sci.subsystem_name,4
                        000014    1-23  	equ	sci.subsystem_version,12
                        000024    1-24  	equ	sci.info_ptr,20
                        000026    1-25  	equ	sci.standalone_abort_entry,22
                        000032    1-26  	equ	sci.flags,26		" LEVEL 3
                                  1-27
                        400000    1-28  	bool	sci.standalone_invocation,400000 " DU
                        200000    1-29  	bool	sci.in_listener,200000	" DU
                        100000    1-30  	bool	sci.executing_request,100000	" DU
                        040000    1-31  	bool	sci.debug_mode,040000	" DU
                                  1-32
                        000034    1-33  	equ	sci.recursion_info,28	" LEVEL 2
                                  1-34
                        000034    1-35  	equ	sci.invocation_data_idx,28
                        000035    1-36  	equ	sci.level,29
                        000036    1-37  	equ	sci.previous_sci_ptr,30
                        000040    1-38  	equ	sci.next_sci_ptr,32
                        000042    1-39  	equ	sci.request_processor_info,34	" LEVEL 2
                                  1-40
                        000042    1-41  	equ	sci.request_tables_ptr,34
                        000044    1-42  	equ	sci.rp_options_ptr,36
                        000046    1-43  	equ	sci.abort_line_label,38
                        000052    1-44  	equ	sci.request_data_ptr,42
                        000054    1-45  	equ	sci.prompt_and_ready_info,44	" LEVEL 2
                                  1-46
                        000054    1-47  	equ	sci.prompt,44
                        000075    1-48  	equ	sci.prompt_mode,61		" LEVEL 3
                                  1-49
                        400000    1-50  	bool	sci.dont_prompt,400000	" DU
                        200000    1-51  	bool	sci.prompt_after_null_lines,200000 " DU
                        100000    1-52  	bool	sci.dont_prompt_if_typeahead,100000 " DU
                                  1-53
                        000076    1-54  	equ	sci.ready_enabled_word,62
                        400000    1-55  	bool	sci.ready_enabled,400000	" DU
                                  1-56
                        000100    1-57  	equ	sci.listener_info,64	" LEVEL 2
                                  1-58
                        000100    1-59  	equ	sci.abort_subsystem_label,64
                        000104    1-60  	equ	sci.temp_seg_ptr,68
                        000106    1-61  	equ	sci.temp_info_ptr,70
                        000110    1-62  	equ	sci.info_info,72		" LEVEL 2
                                  1-63
                        000110    1-64  	equ	sci.info_dirs_ptr,72
                        000112    1-65  	equ	sci.info_prefix,74
                        000122    1-66  	equ	sci.ec_info,82		" LEVEL 2
                                  1-67
                        000122    1-68  	equ	sci.ec_suffix,82
                        000132    1-69  	equ	sci.ec_search_list,90
                        000142    1-70  	equ	sci.subsystem_dir_ptr,98
                        000144    1-71  	equ	sci.entries,100		" LEVEL 2
                                  1-72
                        000144    1-73  	equ	sci.abort_line,100
                        000150    1-74  	equ	sci.abort_subsystem,104
                        000154    1-75  	equ	sci.print_message,108
                        000160    1-76  	equ	sci.program_interrupt,112
                        000164    1-77  	equ	sci.pre_request_line,116
                        000170    1-78  	equ	sci.post_request_line,120
                        000174    1-79  	equ	sci.ready,124
                        000200    1-80  	equ	sci.cpescape,128
                        000204    1-81  	equ	sci.unknown_request,132
                        000210    1-82  	equ	sci.listen,136
                        000214    1-83  	equ	sci.execute_line,140
                        000220    1-84  	equ	sci.evaluate_active_string,144
                        000224    1-85  	equ	sci.invoke_request,148
                        000230    1-86  	equ	sci.locate_request,152
                        000234    1-87  	equ	sci.arg_count,156
                        000240    1-88  	equ	sci.arg_ptr,160
                        000244    1-89  	equ	sci.return_arg,164
                        000250    1-90  	equ	sci.arg_list_ptr,168
                        000254    1-91  	equ	sci.get_default_rp_options,172
                        000260    1-92  	equ	sci.get_rp_options,176
                        000264    1-93  	equ	sci.set_rp_options,180
                        000270    1-94  	equ	sci.reset_rp_options,184
                        000274    1-95  	equ	sci.get_subsys_and_request_name,188
                                  1-96
                                  1-97       "END INCLUDE FILE _ssu_sci.incl.alm
                                   152
                                   153  	end	ssu_

NO LITERALS

NAME DEFINITIONS FOR ENTRY POINTS AND SEGDEFS

    000242  5a   000003 000000
    000243  5a   001062 600000
    000244  aa   000000 000000
    000245  55   000010 000002
    000246  5a   000002 400003
    000247  55   000006 000010
    000250  aa  004 163 163 165
    000251  aa  137 000 000 000
    000252  55   000017 000003
    000253  0a   000237 400000
    000254  55   000013 000003
    000255  aa  017 165 156 153         unknown_request
    000256  aa  156 157 167 156
    000257  aa  137 162 145 161
    000260  aa  165 145 163 164
    000261  55   000030 000010
    000262  0a   000235 400000
    000263  55   000022 000003
    000264  aa  025 163 164 141         standalone_invocation
    000265  aa  156 144 141 154
    000266  aa  157 156 145 137
    000267  aa  151 156 166 157
    000270  aa  143 141 164 151
    000271  aa  157 156 000 000
    000272  55   000037 000017
    000273  0a   000233 400000
    000274  55   000033 000003
    000275  aa  015 163 145 164         set_ec_suffix
    000276  aa  137 145 143 137
    000277  aa  163 165 146 146
    000300  aa  151 170 000 000
    000301  55   000050 000030
    000302  0a   000231 400000
    000303  55   000042 000003
    000304  aa  024 163 145 164         set_ec_subsystem_ptr
    000305  aa  137 145 143 137
    000306  aa  163 165 142 163
    000307  aa  171 163 164 145
    000310  aa  155 137 160 164
    000311  aa  162 000 000 000
    000312  55   000060 000037
    000313  0a   000227 400000
    000314  55   000053 000003
    000315  aa  022 163 145 164         set_ec_search_list
    000316  aa  137 145 143 137
    000317  aa  163 145 141 162
    000320  aa  143 150 137 154
    000321  aa  151 163 164 000
    000322  55   000070 000050
    000323  0a   000225 400000
    000324  55   000063 000003
    000325  aa  022 163 145 164         set_request_tables
    000326  aa  137 162 145 161
    000327  aa  165 145 163 164
    000330  aa  137 164 141 142
    000331  aa  154 145 163 000
    000332  55   000103 000060
    000333  0a   000222 400000
    000334  55   000073 000003
    000335  aa  035 163 145 164         set_request_processor_options
    000336  aa  137 162 145 161
    000337  aa  165 145 163 164
    000340  aa  137 160 162 157
    000341  aa  143 145 163 163
    000342  aa  157 162 137 157
    000343  aa  160 164 151 157
    000344  aa  156 163 000 000
    000345  55   000112 000070
    000346  0a   000220 400000
    000347  55   000106 000003
    000350  aa  016 163 145 164         set_ready_mode
    000351  aa  137 162 145 141
    000352  aa  144 171 137 155
    000353  aa  157 144 145 000
    000354  55   000121 000103
    000355  0a   000216 400000
    000356  55   000115 000003
    000357  aa  017 163 145 164         set_prompt_mode
    000360  aa  137 160 162 157
    000361  aa  155 160 164 137
    000362  aa  155 157 144 145
    000363  55   000127 000112
    000364  0a   000214 400000
    000365  55   000124 000003
    000366  aa  012 163 145 164         set_prompt
    000367  aa  137 160 162 157
    000370  aa  155 160 164 000
    000371  55   000136 000121
    000372  0a   000212 400000
    000373  55   000132 000003
    000374  aa  015 163 145 164         set_procedure
    000375  aa  137 160 162 157
    000376  aa  143 145 144 165
    000377  aa  162 145 000 000
    000400  55   000145 000127
    000401  0a   000210 400000
    000402  55   000141 000003
    000403  aa  014 163 145 164         set_info_ptr
    000404  aa  137 151 156 146
    000405  aa  157 137 160 164
    000406  aa  162 000 000 000
    000407  55   000154 000136
    000410  0a   000206 400000
    000411  55   000150 000003
    000412  aa  017 163 145 164         set_info_prefix
    000413  aa  137 151 156 146
    000414  aa  157 137 160 162
    000415  aa  145 146 151 170
    000416  55   000163 000145
    000417  0a   000204 400000
    000420  55   000157 000003
    000421  aa  015 163 145 164         set_info_dirs
    000422  aa  137 151 156 146
    000423  aa  157 137 144 151
    000424  aa  162 163 000 000
    000425  55   000172 000154
    000426  0a   000202 400000
    000427  55   000166 000003
    000430  aa  016 163 145 164         set_debug_mode
    000431  aa  137 144 145 142
    000432  aa  165 147 137 155
    000433  aa  157 144 145 000
    000434  55   000201 000163
    000435  0a   000200 400000
    000436  55   000175 000003
    000437  aa  017 163 145 164         set_abbrev_info
    000440  aa  137 141 142 142
    000441  aa  162 145 166 137
    000442  aa  151 156 146 157
    000443  55   000207 000172
    000444  0a   000175 400000
    000445  55   000204 000003
    000446  aa  012 162 145 164         return_arg
    000447  aa  165 162 156 137
    000450  aa  141 162 147 000
    000451  55   000222 000201
    000452  0a   000172 400000
    000453  55   000212 000003
    000454  aa  037 162 145 163         reset_request_processor_options
    000455  aa  145 164 137 162
    000456  aa  145 161 165 145
    000457  aa  163 164 137 160
    000460  aa  162 157 143 145
    000461  aa  163 163 157 162
    000462  aa  137 157 160 164
    000463  aa  151 157 156 163
    000464  55   000231 000207
    000465  0a   000170 400000
    000466  55   000225 000003
    000467  aa  017 162 145 163         reset_procedure
    000470  aa  145 164 137 160
    000471  aa  162 157 143 145
    000472  aa  144 165 162 145
    000473  55   000242 000222
    000474  0a   000166 400000
    000475  55   000234 000003
    000476  aa  024 162 145 154         release_temp_segment
    000477  aa  145 141 163 145
    000500  aa  137 164 145 155
    000501  aa  160 137 163 145
    000502  aa  147 155 145 156
    000503  aa  164 000 000 000
    000504  55   000251 000231
    000505  0a   000164 400000
    000506  55   000245 000003
    000507  aa  014 162 145 154         release_area
    000510  aa  145 141 163 145
    000511  aa  137 141 162 145
    000512  aa  141 000 000 000
    000513  55   000260 000242
    000514  0a   000162 400000
    000515  55   000254 000003
    000516  aa  014 162 145 143         record_usage
    000517  aa  157 162 144 137
    000520  aa  165 163 141 147
    000521  aa  145 000 000 000
    000522  55   000267 000251
    000523  0a   000157 400000
    000524  55   000263 000003
    000525  aa  015 160 162 151         print_message
    000526  aa  156 164 137 155
    000527  aa  145 163 163 141
    000530  aa  147 145 000 000
    000531  55   000275 000260
    000532  0a   000155 400000
    000533  55   000272 000003
    000534  aa  013 160 162 151         print_blast
    000535  aa  156 164 137 142
    000536  aa  154 141 163 164
    000537  55   000304 000267
    000540  0a   000152 400000
    000541  55   000300 000003
    000542  aa  016 154 157 143         locate_request
    000543  aa  141 164 145 137
    000544  aa  162 145 161 165
    000545  aa  145 163 164 000
    000546  55   000311 000275
    000547  0a   000147 400000
    000550  55   000307 000003
    000551  aa  006 154 151 163         listen
    000552  aa  164 145 156 000
    000553  55   000321 000304
    000554  0a   000145 400000
    000555  55   000314 000003
    000556  aa  023 154 151 163         list_request_tables
    000557  aa  164 137 162 145
    000560  aa  161 165 145 163
    000561  aa  164 137 164 141
    000562  aa  142 154 145 163
    000563  55   000330 000311
    000564  0a   000143 400000
    000565  55   000324 000003
    000566  aa  016 154 151 163         list_info_dirs
    000567  aa  164 137 151 156
    000570  aa  146 157 137 144
    000571  aa  151 162 163 000
    000572  55   000337 000321
    000573  0a   000140 400000
    000574  55   000333 000003
    000575  aa  016 151 156 166         invoke_request
    000576  aa  157 153 145 137
    000577  aa  162 145 161 165
    000600  aa  145 163 164 000
    000601  55   000347 000330
    000602  0a   000136 400000
    000603  55   000342 000003
    000604  aa  020 147 145 164         get_temp_segment
    000605  aa  137 164 145 155
    000606  aa  160 137 163 145
    000607  aa  147 155 145 156
    000610  aa  164 000 000 000
    000611  55   000360 000337
    000612  0a   000134 400000
    000613  55   000352 000003
    000614  aa  025 147 145 164         get_subsystem_version
    000615  aa  137 163 165 142
    000616  aa  163 171 163 164
    000617  aa  145 155 137 166
    000620  aa  145 162 163 151
    000621  aa  157 156 000 000
    000622  55   000370 000347
    000623  0a   000132 400000
    000624  55   000363 000003
    000625  aa  022 147 145 164         get_subsystem_name
    000626  aa  137 163 165 142
    000627  aa  163 171 163 164
    000630  aa  145 155 137 156
    000631  aa  141 155 145 000
    000632  55   000403 000360
    000633  0a   000127 400000
    000634  55   000373 000003
    000635  aa  036 147 145 164         get_subsystem_and_request_name
    000636  aa  137 163 165 142
    000637  aa  163 171 163 164
    000640  aa  145 155 137 141
    000641  aa  156 144 137 162
    000642  aa  145 161 165 145
    000643  aa  163 164 137 156
    000644  aa  141 155 145 000
    000645  55   000416 000370
    000646  0a   000124 400000
    000647  55   000406 000003
    000650  aa  035 147 145 164         get_request_processor_options
    000651  aa  137 162 145 161
    000652  aa  165 145 163 164
    000653  aa  137 160 162 157
    000654  aa  143 145 163 163
    000655  aa  157 162 137 157
    000656  aa  160 164 151 157
    000657  aa  156 163 000 000
    000660  55   000426 000403
    000661  0a   000122 400000
    000662  55   000421 000003
    000663  aa  020 147 145 164         get_request_name
    000664  aa  137 162 145 161
    000665  aa  165 145 163 164
    000666  aa  137 156 141 155
    000667  aa  145 000 000 000
    000670  55   000435 000416
    000671  0a   000120 400000
    000672  55   000431 000003
    000673  aa  016 147 145 164         get_ready_mode
    000674  aa  137 162 145 141
    000675  aa  144 171 137 155
    000676  aa  157 144 145 000
    000677  55   000444 000426
    000700  0a   000116 400000
    000701  55   000440 000003
    000702  aa  017 147 145 164         get_prompt_mode
    000703  aa  137 160 162 157
    000704  aa  155 160 164 137
    000705  aa  155 157 144 145
    000706  55   000452 000435
    000707  0a   000114 400000
    000710  55   000447 000003
    000711  aa  012 147 145 164         get_prompt
    000712  aa  137 160 162 157
    000713  aa  155 160 164 000
    000714  55   000461 000444
    000715  0a   000112 400000
    000716  55   000455 000003
    000717  aa  015 147 145 164         get_procedure
    000720  aa  137 160 162 157
    000721  aa  143 145 144 165
    000722  aa  162 145 000 000
    000723  55   000471 000452
    000724  0a   000110 400000
    000725  55   000464 000003
    000726  aa  020 147 145 164         get_prev_sci_ptr
    000727  aa  137 160 162 145
    000730  aa  166 137 163 143
    000731  aa  151 137 160 164
    000732  aa  162 000 000 000
    000733  55   000501 000461
    000734  0a   000106 400000
    000735  55   000474 000003
    000736  aa  023 147 145 164         get_level_n_sci_ptr
    000737  aa  137 154 145 166
    000740  aa  145 154 137 156
    000741  aa  137 163 143 151
    000742  aa  137 160 164 162
    000743  55   000512 000471
    000744  0a   000104 400000
    000745  55   000504 000003
    000746  aa  024 147 145 164         get_invocation_count
    000747  aa  137 151 156 166
    000750  aa  157 143 141 164
    000751  aa  151 157 156 137
    000752  aa  143 157 165 156
    000753  aa  164 000 000 000
    000754  55   000521 000501
    000755  0a   000102 400000
    000756  55   000515 000003
    000757  aa  014 147 145 164         get_info_ptr
    000760  aa  137 151 156 146
    000761  aa  157 137 160 164
    000762  aa  162 000 000 000
    000763  55   000530 000512
    000764  0a   000100 400000
    000765  55   000524 000003
    000766  aa  017 147 145 164         get_info_prefix
    000767  aa  137 151 156 146
    000770  aa  157 137 160 162
    000771  aa  145 146 151 170
    000772  55   000537 000521
    000773  0a   000076 400000
    000774  55   000533 000003
    000775  aa  015 147 145 164         get_ec_suffix
    000776  aa  137 145 143 137
    000777  aa  163 165 146 146
    001000  aa  151 170 000 000
    001001  55   000550 000530
    001002  0a   000074 400000
    001003  55   000542 000003
    001004  aa  024 147 145 164         get_ec_subsystem_ptr
    001005  aa  137 145 143 137
    001006  aa  163 165 142 163
    001007  aa  171 163 164 145
    001010  aa  155 137 160 164
    001011  aa  162 000 000 000
    001012  55   000560 000537
    001013  0a   000072 400000
    001014  55   000553 000003
    001015  aa  022 147 145 164         get_ec_search_list
    001016  aa  137 145 143 137
    001017  aa  163 145 141 162
    001020  aa  143 150 137 154
    001021  aa  151 163 164 000
    001022  55   000571 000550
    001023  0a   000067 400000
    001024  55   000563 000003
    001025  aa  026 147 145 164         get_default_rp_options
    001026  aa  137 144 145 146
    001027  aa  141 165 154 164
    001030  aa  137 162 160 137
    001031  aa  157 160 164 151
    001032  aa  157 156 163 000
    001033  55   000602 000560
    001034  0a   000065 400000
    001035  55   000574 000003
    001036  aa  025 147 145 164         get_default_procedure
    001037  aa  137 144 145 146
    001040  aa  141 165 154 164
    001041  aa  137 160 162 157
    001042  aa  143 145 144 165
    001043  aa  162 145 000 000
    001044  55   000611 000571
    001045  0a   000063 400000
    001046  55   000605 000003
    001047  aa  016 147 145 164         get_debug_mode
    001050  aa  137 144 145 142
    001051  aa  165 147 137 155
    001052  aa  157 144 145 000
    001053  55   000617 000602
    001054  0a   000061 400000
    001055  55   000614 000003
    001056  aa  010 147 145 164         get_area
    001057  aa  137 141 162 145
    001060  aa  141 000 000 000
    001061  55   000626 000611
    001062  0a   000057 400000
    001063  55   000622 000003
    001064  aa  017 147 145 164         get_abbrev_info
    001065  aa  137 141 142 142
    001066  aa  162 145 166 137
    001067  aa  151 156 146 157
    001070  55   000635 000617
    001071  0a   000055 400000
    001072  55   000631 000003
    001073  aa  016 145 170 145         execute_string
    001074  aa  143 165 164 145
    001075  aa  137 163 164 162
    001076  aa  151 156 147 000
    001077  55   000645 000626
    001100  0a   000053 400000
    001101  55   000640 000003
    001102  aa  020 145 170 145         execute_start_up
    001103  aa  143 165 164 145
    001104  aa  137 163 164 141
    001105  aa  162 164 137 165
    001106  aa  160 000 000 000
    001107  55   000654 000635
    001110  0a   000051 400000
    001111  55   000650 000003
    001112  aa  014 145 170 145         execute_line
    001113  aa  143 165 164 145
    001114  aa  137 154 151 156
    001115  aa  145 000 000 000
    001116  55   000665 000645
    001117  0a   000047 400000
    001120  55   000657 000003
    001121  aa  026 145 166 141         evaluate_active_string
    001122  aa  154 165 141 164
    001123  aa  145 137 141 143
    001124  aa  164 151 166 145
    001125  aa  137 163 164 162
    001126  aa  151 156 147 000
    001127  55   000675 000654
    001130  0a   000045 400000
    001131  55   000670 000003
    001132  aa  022 144 145 163         destroy_invocation
    001133  aa  164 162 157 171
    001134  aa  137 151 156 166
    001135  aa  157 143 141 164
    001136  aa  151 157 156 000
    001137  55   000706 000665
    001140  0a   000043 400000
    001141  55   000700 000003
    001142  aa  024 144 145 154         delete_request_table
    001143  aa  145 164 145 137
    001144  aa  162 145 161 165
    001145  aa  145 163 164 137
    001146  aa  164 141 142 154
    001147  aa  145 000 000 000
    001150  55   000715 000675
    001151  0a   000041 400000
    001152  55   000711 000003
    001153  aa  017 144 145 154         delete_info_dir
    001154  aa  145 164 145 137
    001155  aa  151 156 146 157
    001156  aa  137 144 151 162
    001157  55   000725 000706
    001160  0a   000037 400000
    001161  55   000720 000003
    001162  aa  021 143 162 145         create_invocation
    001163  aa  141 164 145 137
    001164  aa  151 156 166 157
    001165  aa  143 141 164 151
    001166  aa  157 156 000 000
    001167  55   000735 000715
    001170  0a   000035 400000
    001171  55   000730 000003
    001172  aa  021 143 160 145         cpescape_disabled
    001173  aa  163 143 141 160
    001174  aa  145 137 144 151
    001175  aa  163 141 142 154
    001176  aa  145 144 000 000
    001177  55   000743 000725
    001200  0a   000033 400000
    001201  55   000740 000003
    001202  aa  010 143 160 145         cpescape
    001203  aa  163 143 141 160
    001204  aa  145 000 000 000
    001205  55   000750 000735
    001206  0a   000030 400000
    001207  55   000746 000003
    001210  aa  007 141 162 147         arg_ptr
    001211  aa  137 160 164 162
    001212  55   000757 000743
    001213  0a   000025 400000
    001214  55   000753 000003
    001215  aa  014 141 162 147         arg_list_ptr
    001216  aa  137 154 151 163
    001217  aa  164 137 160 164
    001220  aa  162 000 000 000
    001221  55   000765 000750
    001222  0a   000022 400000
    001223  55   000762 000003
    001224  aa  011 141 162 147         arg_count
    001225  aa  137 143 157 165
    001226  aa  156 164 000 000
    001227  55   000775 000757
    001230  0a   000020 400000
    001231  55   000770 000003
    001232  aa  022 141 160 160         apply_request_util
    001233  aa  154 171 137 162
    001234  aa  145 161 165 145
    001235  aa  163 164 137 165
    001236  aa  164 151 154 000
    001237  55   001005 000765
    001240  0a   000016 400000
    001241  55   001000 000003
    001242  aa  021 141 144 144         add_request_table
    001243  aa  137 162 145 161
    001244  aa  165 145 163 164
    001245  aa  137 164 141 142
    001246  aa  154 145 000 000
    001247  55   001014 000775
    001250  0a   000014 400000
    001251  55   001010 000003
    001252  aa  014 141 144 144         add_info_dir
    001253  aa  137 151 156 146
    001254  aa  157 137 144 151
    001255  aa  162 000 000 000
    001256  55   001023 001005
    001257  0a   000011 400000
    001260  55   001017 000003
    001261  aa  017 141 142 157         abort_subsystem
    001262  aa  162 164 137 163
    001263  aa  165 142 163 171
    001264  aa  163 164 145 155
    001265  55   001031 001014
    001266  0a   000006 400000
    001267  55   001026 000003
    001270  aa  012 141 142 157         abort_line
    001271  aa  162 164 137 154
    001272  aa  151 156 145 000
    001273  55   001037 001023
    001274  0a   000002 400000
    001275  55   001034 000003
    001276  aa  012 156 165 154         null_entry
    001277  aa  154 137 145 156
    001300  aa  164 162 171 000
    001301  55   001045 001031
    001302  0a   000002 400000
    001303  55   001042 000003
    001304  aa  012 156 165 154         null_label
    001305  aa  154 137 154 141
    001306  aa  142 145 154 000
    001307  55   001053 001037
    001310  0a   000000 400000
    001311  55   001050 000003
    001312  aa  013 152 165 163         just_return
    001313  aa  164 137 162 145
    001314  aa  164 165 162 156
    001315  55   000002 001045
    001316  6a   000000 400002
    001317  55   001056 000003
    001320  aa  014 163 171 155         symbol_table
    001321  aa  142 157 154 137
    001322  aa  164 141 142 154
    001323  aa  145 000 000 000

DEFINITIONS HASH TABLE

    001324  aa   000000 000235
    001325  aa   000000 000000
    001326  aa   000000 000000
    001327  aa   000000 000000
    001330  aa   000000 000000
    001331  aa   000000 000000
    001332  aa   000000 000000
    001333  aa   000000 000000
    001334  aa   000000 000000
    001335  5a   000070 000000
    001336  aa   000000 000000
    001337  aa   000000 000000
    001340  aa   000000 000000
    001341  aa   000000 000000
    001342  aa   000000 000000
    001343  5a   001045 000000
    001344  aa   000000 000000
    001345  aa   000000 000000
    001346  aa   000000 000000
    001347  5a   000775 000000
    001350  aa   000000 000000
    001351  aa   000000 000000
    001352  aa   000000 000000
    001353  aa   000000 000000
    001354  aa   000000 000000
    001355  aa   000000 000000
    001356  aa   000000 000000
    001357  5a   000037 000000
    001360  aa   000000 000000
    001361  5a   001005 000000
    001362  5a   000635 000000
    001363  5a   000050 000000
    001364  5a   000060 000000
    001365  5a   000715 000000
    001366  5a   000626 000000
    001367  aa   000000 000000
    001370  aa   000000 000000
    001371  5a   000112 000000
    001372  5a   000145 000000
    001373  5a   000103 000000
    001374  5a   000163 000000
    001375  5a   000030 000000
    001376  5a   000127 000000
    001377  5a   000136 000000
    001400  5a   000154 000000
    001401  5a   000172 000000
    001402  5a   000311 000000
    001403  5a   000121 000000
    001404  5a   000645 000000
    001405  aa   000000 000000
    001406  5a   000207 000000
    001407  5a   000765 000000
    001410  aa   000000 000000
    001411  5a   000321 000000
    001412  aa   000000 000000
    001413  aa   000000 000000
    001414  aa   000000 000000
    001415  aa   000000 000000
    001416  aa   000000 000000
    001417  aa   000000 000000
    001420  aa   000000 000000
    001421  aa   000000 000000
    001422  aa   000000 000000
    001423  aa   000000 000000
    001424  aa   000000 000000
    001425  5a   000231 000000
    001426  aa   000000 000000
    001427  aa   000000 000000
    001430  aa   000000 000000
    001431  5a   000304 000000
    001432  aa   000000 000000
    001433  5a   001053 000000
    001434  5a   000251 000000
    001435  5a   000260 000000
    001436  aa   000000 000000
    001437  aa   000000 000000
    001440  aa   000000 000000
    001441  5a   000267 000000
    001442  aa   000000 000000
    001443  aa   000000 000000
    001444  aa   000000 000000
    001445  5a   000242 000000
    001446  5a   000222 000000
    001447  5a   000675 000000
    001450  aa   000000 000000
    001451  5a   000330 000000
    001452  aa   000000 000000
    001453  aa   000000 000000
    001454  5a   000370 000000
    001455  5a   000654 000000
    001456  5a   000403 000000
    001457  5a   000706 000000
    001460  5a   000665 000000
    001461  5a   000201 000000
    001462  aa   000000 000000
    001463  aa   000000 000000
    001464  aa   000000 000000
    001465  aa   000000 000000
    001466  aa   000000 000000
    001467  aa   000000 000000
    001470  aa   000000 000000
    001471  aa   000000 000000
    001472  aa   000000 000000
    001473  aa   000000 000000
    001474  5a   000560 000000
    001475  aa   000000 000000
    001476  5a   000347 000000
    001477  5a   000571 000000
    001500  5a   000501 000000
    001501  5a   000537 000000
    001502  5a   000471 000000
    001503  5a   000725 000000
    001504  5a   000360 000000
    001505  5a   000550 000000
    001506  5a   001014 000000
    001507  aa   000000 000000
    001510  5a   000337 000000
    001511  5a   000416 000000
    001512  5a   000435 000000
    001513  5a   000461 000000
    001514  5a   000426 000000
    001515  5a   000521 000000
    001516  5a   000452 000000
    001517  5a   000530 000000
    001520  5a   000512 000000
    001521  5a   000602 000000
    001522  5a   000275 000000
    001523  5a   000617 000000
    001524  5a   000444 000000
    001525  5a   000735 000000
    001526  5a   001023 000000
    001527  aa   000000 000000
    001530  5a   000611 000000
    001531  aa   000000 000000
    001532  aa   000000 000000
    001533  5a   000750 000000
    001534  aa   000000 000000
    001535  aa   000000 000000
    001536  aa   000000 000000
    001537  aa   000000 000000
    001540  5a   001031 000000
    001541  5a   000757 000000
    001542  5a   001037 000000
    001543  aa   000000 000000
    001544  aa   000000 000000
    001545  5a   000743 000000
    001546  aa   000000 000000
    001547  aa   000000 000000
    001550  5a   000010 000000
    001551  aa   000000 000000
    001552  5a   000017 000000
    001553  aa   000000 000000
    001554  aa   000000 000000
    001555  aa   000000 000000
    001556  aa   000000 000000
    001557  aa   000000 000000
    001560  aa   000000 000000
    001561  aa   000000 000000

EXTERNAL NAMES

    001562  aa  021 143 162 145         create_standalone
    001563  aa  141 164 145 137
    001564  aa  163 164 141 156
    001565  aa  144 141 154 157
    001566  aa  156 145 000 000
    001567  aa  003 163 145 164         set
    001570  aa  013 163 145 164         set_default
    001571  aa  137 144 145 146
    001572  aa  141 165 154 164
    001573  aa  017 162 145 154         release_segment
    001574  aa  145 141 163 145
    001575  aa  137 163 145 147
    001576  aa  155 145 156 164
    001577  aa  012 163 163 165         ssu_usage_
    001600  aa  137 165 163 141
    001601  aa  147 145 137 000
    001602  aa  013 147 145 164         get_segment
    001603  aa  137 163 145 147
    001604  aa  155 145 156 164
    001605  aa  003 147 145 164         get
    001606  aa  013 147 145 164         get_default
    001607  aa  137 144 145 146
    001610  aa  141 165 154 164
    001611  aa  022 163 163 165         ssu_procedure_mgr_
    001612  aa  137 160 162 157
    001613  aa  143 145 144 165
    001614  aa  162 145 137 155
    001615  aa  147 162 137 000
    001616  aa  015 163 163 165         ssu_temp_mgr_
    001617  aa  137 164 145 155
    001620  aa  160 137 155 147
    001621  aa  162 137 000 000
    001622  aa  007 163 163 165         ssu_ec_
    001623  aa  137 145 143 137
    001624  aa  027 160 162 145         prepare_to_execute_line
    001625  aa  160 141 162 145
    001626  aa  137 164 157 137
    001627  aa  145 170 145 143
    001630  aa  165 164 145 137
    001631  aa  154 151 156 145
    001632  aa  032 160 162 145         prepare_to_evaluate_string
    001633  aa  160 141 162 145
    001634  aa  137 164 157 137
    001635  aa  145 166 141 154
    001636  aa  165 141 164 145
    001637  aa  137 163 164 162
    001640  aa  151 156 147 000
    001641  aa  026 163 163 165         ssu_request_processor_
    001642  aa  137 162 145 161
    001643  aa  165 145 163 164
    001644  aa  137 160 162 157
    001645  aa  143 145 163 163
    001646  aa  157 162 137 000
    001647  aa  007 144 145 163         destroy
    001650  aa  164 162 157 171
    001651  aa  006 143 162 145         create
    001652  aa  141 164 145 000
    001653  aa  017 163 163 165         ssu_invocation_
    001654  aa  137 151 156 166
    001655  aa  157 143 141 164
    001656  aa  151 157 156 137
    001657  aa  017 163 163 165         ssu_misc_procs_
    001660  aa  137 155 151 163
    001661  aa  143 137 160 162
    001662  aa  157 143 163 137
    001663  aa  022 163 163 165         ssu_misc_requests_
    001664  aa  137 155 151 163
    001665  aa  143 137 162 145
    001666  aa  161 165 145 163
    001667  aa  164 163 137 000
    001670  aa  020 163 163 165         ssu_request_mgr_
    001671  aa  137 162 145 161
    001672  aa  165 145 163 164
    001673  aa  137 155 147 162
    001674  aa  137 000 000 000
    001675  aa  015 163 163 165         ssu_info_mgr_
    001676  aa  137 151 156 146
    001677  aa  157 137 155 147
    001700  aa  162 137 000 000

NO TRAP POINTER WORDS

TYPE PAIR BLOCKS

    001701  aa   000004 000000
    001702  55   001411 001320
    001703  aa   000004 000000
    001704  55   001360 000033
    001705  aa   000004 000000
    001706  55   001360 000042
    001707  aa   000004 000000
    001710  55   001360 000053
    001711  aa   000004 000000
    001712  55   001426 000063
    001713  aa   000004 000000
    001714  55   001415 000106
    001715  aa   000004 000000
    001716  55   001415 000115
    001717  aa   000004 000000
    001720  55   001415 000124
    001721  aa   000004 000000
    001722  55   001347 001325
    001723  aa   000004 000000
    001724  55   001411 000141
    001725  aa   000004 000000
    001726  55   001433 000150
    001727  aa   000004 000000
    001730  55   001433 000157
    001731  aa   000004 000000
    001732  55   001415 000166
    001733  aa   000004 000000
    001734  55   001377 000175
    001735  aa   000004 000000
    001736  55   001347 001326
    001737  aa   000004 000000
    001740  55   001354 001331
    001741  aa   000004 000000
    001742  55   001354 000245
    001743  aa   000004 000000
    001744  55   001335 000254
    001745  aa   000004 000000
    001746  55   001335 000272
    001747  aa   000004 000000
    001750  55   001426 000314
    001751  aa   000004 000000
    001752  55   001433 000324
    001753  aa   000004 000000
    001754  55   001354 001340
    001755  aa   000004 000000
    001756  55   001411 000352
    001757  aa   000004 000000
    001760  55   001411 000363
    001761  aa   000004 000000
    001762  55   001411 000421
    001763  aa   000004 000000
    001764  55   001415 000431
    001765  aa   000004 000000
    001766  55   001415 000440
    001767  aa   000004 000000
    001770  55   001415 000447
    001771  aa   000004 000000
    001772  55   001347 001343
    001773  aa   000004 000000
    001774  55   001411 000464
    001775  aa   000004 000000
    001776  55   001411 000474
    001777  aa   000004 000000
    002000  55   001411 000504
    002001  aa   000004 000000
    002002  55   001411 000515
    002003  aa   000004 000000
    002004  55   001433 000524
    002005  aa   000004 000000
    002006  55   001360 000533
    002007  aa   000004 000000
    002010  55   001360 000542
    002011  aa   000004 000000
    002012  55   001360 000553
    002013  aa   000004 000000
    002014  55   001347 001344
    002015  aa   000004 000000
    002016  55   001415 000605
    002017  aa   000004 000000
    002020  55   001354 000614
    002021  aa   000004 000000
    002022  55   001377 000622
    002023  aa   000004 000000
    002024  55   001377 000631
    002025  aa   000004 000000
    002026  55   001360 000640
    002027  aa   000004 000000
    002030  55   001377 001362
    002031  aa   000004 000000
    002032  55   001377 001370
    002033  aa   000004 000000
    002034  55   001411 001405
    002035  aa   000004 000000
    002036  55   001426 000700
    002037  aa   000004 000000
    002040  55   001433 000711
    002041  aa   000004 000000
    002042  55   001411 001407
    002043  aa   000004 000000
    002044  55   001415 000730
    002045  aa   000004 000000
    002046  55   001415 000740
    002047  aa   000004 000000
    002050  55   001421 000770
    002051  aa   000004 000000
    002052  55   001426 001000
    002053  aa   000004 000000
    002054  55   001433 001010
    002055  aa   000001 000000
    002056  aa   000000 000000

INTERNAL EXPRESSION WORDS

    002057  5a   001437 000000
    002060  5a   001441 000000
    002061  5a   001443 000000
    002062  5a   001445 000000
    002063  5a   001447 000000
    002064  5a   001451 000000
    002065  5a   001453 000000
    002066  5a   001455 000000
    002067  5a   001457 000000
    002070  5a   001461 000000
    002071  5a   001463 000000
    002072  5a   001465 000000
    002073  5a   001467 000000
    002074  5a   001471 000000
    002075  5a   001473 000000
    002076  5a   001475 000000
    002077  5a   001477 000000
    002100  5a   001501 000000
    002101  5a   001503 000000
    002102  5a   001505 000000
    002103  5a   001507 000000
    002104  5a   001511 000000
    002105  5a   001513 000000
    002106  5a   001515 000000
    002107  5a   001517 000000
    002110  5a   001521 000000
    002111  5a   001523 000000
    002112  5a   001525 000000
    002113  5a   001527 000000
    002114  5a   001531 000000
    002115  5a   001533 000000
    002116  5a   001535 000000
    002117  5a   001537 000000
    002120  5a   001541 000000
    002121  5a   001543 000000
    002122  5a   001545 000000
    002123  5a   001547 000000
    002124  5a   001551 000000
    002125  5a   001553 000000
    002126  5a   001555 000000
    002127  5a   001557 000000
    002130  5a   001561 000000
    002131  5a   001563 000000
    002132  5a   001565 000000
    002133  5a   001567 000000
    002134  5a   001571 000000
    002135  5a   001573 000000
    002136  5a   001575 000000
    002137  5a   001577 000000
    002140  5a   001601 000000
    002141  5a   001603 000000
    002142  5a   001605 000000
    002143  5a   001607 000000
    002144  5a   001611 000000
    002145  aa   000000 000000
LINKAGE INFORMATION

    000000  aa   000000 000000
    000001  0a   000242 000000
    000002  aa   000000 000000
    000003  aa   000000 000000
    000004  aa   000000 000000
    000005  aa   000000 000000
    000006  22   000010 000164
    000007  a2   000000 000000
    000010  9a   777770 0000 46         ssu_info_mgr_|add_info_dir
    000011  5a   001702 0000 00
    000012  9a   777766 0000 46         ssu_request_mgr_|add_request_table
    000013  5a   001701 0000 00
    000014  9a   777764 0000 46         ssu_misc_requests_|apply_request_util
    000015  5a   001700 0000 00
    000016  9a   777762 0000 46         ssu_misc_procs_|cpescape
    000017  5a   001677 0000 00
    000020  9a   777760 0000 46         ssu_misc_procs_|cpescape_disabled
    000021  5a   001676 0000 00
    000022  9a   777756 0000 46         ssu_invocation_|create
    000023  5a   001675 0000 00
    000024  9a   777754 0000 46         ssu_info_mgr_|delete_info_dir
    000025  5a   001674 0000 00
    000026  9a   777752 0000 46         ssu_request_mgr_|delete_request_table
    000027  5a   001673 0000 00
    000030  9a   777750 0000 46         ssu_invocation_|destroy
    000031  5a   001672 0000 00
    000032  9a   777746 0000 46         ssu_request_processor_|prepare_to_evaluate_string
    000033  5a   001671 0000 00
    000034  9a   777744 0000 46         ssu_request_processor_|prepare_to_execute_line
    000035  5a   001670 0000 00
    000036  9a   777742 0000 46         ssu_ec_|execute_start_up
    000037  5a   001667 0000 00
    000040  9a   777740 0000 46         ssu_request_processor_|execute_string
    000041  5a   001666 0000 00
    000042  9a   777736 0000 46         ssu_request_processor_|get_abbrev_info
    000043  5a   001665 0000 00
    000044  9a   777734 0000 46         ssu_temp_mgr_|get_area
    000045  5a   001664 0000 00
    000046  9a   777732 0000 46         ssu_misc_procs_|get_debug_mode
    000047  5a   001663 0000 00
    000050  9a   777730 0000 46         ssu_procedure_mgr_|get_default
    000051  5a   001662 0000 00
    000052  9a   777726 0000 46         ssu_ec_|get_ec_search_list
    000053  5a   001661 0000 00
    000054  9a   777724 0000 46         ssu_ec_|get_ec_subsystem_ptr
    000055  5a   001660 0000 00
    000056  9a   777722 0000 46         ssu_ec_|get_ec_suffix
    000057  5a   001657 0000 00
    000060  9a   777720 0000 46         ssu_info_mgr_|get_info_prefix
    000061  5a   001656 0000 00
    000062  9a   777716 0000 46         ssu_invocation_|get_info_ptr
    000063  5a   001655 0000 00
    000064  9a   777714 0000 46         ssu_invocation_|get_invocation_count
    000065  5a   001654 0000 00
    000066  9a   777712 0000 46         ssu_invocation_|get_level_n_sci_ptr
    000067  5a   001653 0000 00
    000070  9a   777710 0000 46         ssu_invocation_|get_prev_sci_ptr
    000071  5a   001652 0000 00
    000072  9a   777706 0000 46         ssu_procedure_mgr_|get
    000073  5a   001651 0000 00
    000074  9a   777704 0000 46         ssu_misc_procs_|get_prompt
    000075  5a   001650 0000 00
    000076  9a   777702 0000 46         ssu_misc_procs_|get_prompt_mode
    000077  5a   001647 0000 00
    000100  9a   777700 0000 46         ssu_misc_procs_|get_ready_mode
    000101  5a   001646 0000 00
    000102  9a   777676 0000 46         ssu_invocation_|get_request_name
    000103  5a   001645 0000 00
    000104  9a   777674 0000 46         ssu_invocation_|get_subsystem_name
    000105  5a   001644 0000 00
    000106  9a   777672 0000 46         ssu_invocation_|get_subsystem_version
    000107  5a   001643 0000 00
    000110  9a   777670 0000 46         ssu_temp_mgr_|get_segment
    000111  5a   001642 0000 00
    000112  9a   777666 0000 46         ssu_info_mgr_|list_info_dirs
    000113  5a   001641 0000 00
    000114  9a   777664 0000 46         ssu_request_mgr_|list_request_tables
    000115  5a   001640 0000 00
    000116  9a   777662 0000 46         ssu_usage_|print_blast
    000117  5a   001637 0000 00
    000120  9a   777660 0000 46         ssu_usage_|record_usage
    000121  5a   001636 0000 00
    000122  9a   777656 0000 46         ssu_temp_mgr_|release_area
    000123  5a   001635 0000 00
    000124  9a   777654 0000 46         ssu_temp_mgr_|release_segment
    000125  5a   001634 0000 00
    000126  9a   777652 0000 46         ssu_procedure_mgr_|set_default
    000127  5a   001633 0000 00
    000130  9a   777650 0000 46         ssu_request_processor_|set_abbrev_info
    000131  5a   001632 0000 00
    000132  9a   777646 0000 46         ssu_misc_procs_|set_debug_mode
    000133  5a   001631 0000 00
    000134  9a   777644 0000 46         ssu_info_mgr_|set_info_dirs
    000135  5a   001630 0000 00
    000136  9a   777642 0000 46         ssu_info_mgr_|set_info_prefix
    000137  5a   001627 0000 00
    000140  9a   777640 0000 46         ssu_invocation_|set_info_ptr
    000141  5a   001626 0000 00
    000142  9a   777636 0000 46         ssu_procedure_mgr_|set
    000143  5a   001625 0000 00
    000144  9a   777634 0000 46         ssu_misc_procs_|set_prompt
    000145  5a   001624 0000 00
    000146  9a   777632 0000 46         ssu_misc_procs_|set_prompt_mode
    000147  5a   001623 0000 00
    000150  9a   777630 0000 46         ssu_misc_procs_|set_ready_mode
    000151  5a   001622 0000 00
    000152  9a   777626 0000 46         ssu_request_mgr_|set_request_tables
    000153  5a   001621 0000 00
    000154  9a   777624 0000 46         ssu_ec_|set_ec_search_list
    000155  5a   001620 0000 00
    000156  9a   777622 0000 46         ssu_ec_|set_ec_subsystem_ptr
    000157  5a   001617 0000 00
    000160  9a   777620 0000 46         ssu_ec_|set_ec_suffix
    000161  5a   001616 0000 00
    000162  9a   777616 0000 46         ssu_invocation_|create_standalone
    000163  5a   001615 0000 00
SYMBOL INFORMATION

SYMBOL TABLE HEADER

    000000  aa   000000 000001
    000001  aa   163171 155142
    000002  aa   164162 145145
    000003  aa   000000 000004
    000004  aa   000000 112143
    000005  aa   305203 523135
    000006  aa   000000 113302
    000007  aa   531537 615075
    000010  aa   141154 155040
    000011  aa   040040 040040
    000012  aa   000024 000040
    000013  aa   000034 000040
    000014  aa   000044 000100
    000015  aa   000002 000002
    000016  aa   000064 000000
    000017  aa   000000 000177
    000020  aa   000000 000122
    000021  aa   000000 000143
    000022  aa   000170 000122
    000023  aa   000064 000000
    000024  aa   101114 115040
    000025  aa   126145 162163
    000026  aa   151157 156040
    000027  aa   040066 056066
    000030  aa   040040 116157
    000031  aa   166145 155142
    000032  aa   145162 040061
    000033  aa   071070 062040
    000034  aa   107112 157150
    000035  aa   156163 157156
    000036  aa   056123 171163
    000037  aa   115141 151156
    000040  aa   164056 141040
    000041  aa   040040 040040
    000042  aa   040040 040040
    000043  aa   040040 040040
    000044  aa   154151 163164
    000045  aa   040040 040040
    000046  aa   040040 040040
    000047  aa   040040 040040
    000050  aa   040040 040040
    000051  aa   040040 040040
    000052  aa   040040 040040
    000053  aa   040040 040040
    000054  aa   040040 040040
    000055  aa   040040 040040
    000056  aa   040040 040040
    000057  aa   040040 040040
    000060  aa   040040 040040
    000061  aa   040040 040040
    000062  aa   040040 040040
    000063  aa   040040 040040
    000064  aa   000000 000001
    000065  aa   000000 000002
    000066  aa   000076 000041
    000067  aa   132761 421300
    000070  aa   000000 113302
    000071  aa   531540 200000
    000072  aa   000107 000052
    000073  aa   132644 430104
    000074  aa   000000 113273
    000075  aa   131150 200000
    000076  aa   076163 160145          >special_ldd>online>41-4>ssu_.alm
    000077  aa   143151 141154
    000100  aa   137154 144144
    000101  aa   076157 156154
    000102  aa   151156 145076
    000103  aa   064061 055064
    000104  aa   076163 163165
    000105  aa   137056 141154
    000106  aa   155040 040040
    000107  aa   076163 160145          >special_ldd>online>41-4>_ssu_sci.incl.alm
    000110  aa   143151 141154
    000111  aa   137154 144144
    000112  aa   076157 156154
    000113  aa   151156 145076
    000114  aa   064061 055064
    000115  aa   076137 163163
    000116  aa   165137 163143
    000117  aa   151056 151156
    000120  aa   143154 056141
    000121  aa   154155 040040
               MULTICS ASSEMBLY CROSS REFERENCE LISTING

   Value        Symbol                   Source file   Line number

           6    abort_line               ssu_:          78.
          11    abort_subsystem          ssu_:          79.
          14    add_info_dir             ssu_:          80.
          16    add_request_table        ssu_:          81.
          20    apply_request_util       ssu_:          82.
          22    arg_count                ssu_:          83.
          25    arg_list_ptr             ssu_:          84.
          30    arg_ptr                  ssu_:          85.
          33    cpescape                 ssu_:          86.
          35    cpescape_disabled        ssu_:          87.
                create                   ssu_:          88.
          37    create_invocation        ssu_:          88.
                create_standalone        ssu_:         146.
          41    delete_info_dir          ssu_:          89.
          43    delete_request_table     ssu_:          90.
                destroy                  ssu_:          91.
          45    destroy_invocation       ssu_:          91.
          47    evaluate_active_string   ssu_:          92.
          51    execute_line             ssu_:          93.
          53    execute_start_up         ssu_:          94.
          55    execute_string           ssu_:          95.
                get                      ssu_:         109.
          57    get_abbrev_info          ssu_:          96.
          61    get_area                 ssu_:          97.
          63    get_debug_mode           ssu_:          98.
                get_default              ssu_:          99.
          65    get_default_procedure    ssu_:          99.
          67    get_default_rp_options   ssu_:         100.
          72    get_ec_search_list       ssu_:         101.
          74    get_ec_subsystem_ptr     ssu_:         102.
          76    get_ec_suffix            ssu_:         103.
         100    get_info_prefix          ssu_:         104.
         102    get_info_ptr             ssu_:         105.
         104    get_invocation_count     ssu_:         106.
         106    get_level_n_sci_ptr      ssu_:         107.
         110    get_prev_sci_ptr         ssu_:         108.
         112    get_procedure            ssu_:         109.
         114    get_prompt               ssu_:         110.
         116    get_prompt_mode          ssu_:         111.
         120    get_ready_mode           ssu_:         112.
         122    get_request_name         ssu_:         113.
         124    get_request_processor_options  ssu_:         114.
                get_segment              ssu_:         118.
         127    get_subsystem_and_request_name       ssu_:         115.
         132    get_subsystem_name       ssu_:         116.
         134    get_subsystem_version    ssu_:         117.
         136    get_temp_segment         ssu_:         118.
         140    invoke_request           ssu_:         119.
           0    just_return              ssu_:          59,   61.
         147    listen                   ssu_:         122.
         143    list_info_dirs           ssu_:         120.
         145    list_request_tables      ssu_:         121.
         152    locate_request           ssu_:         123.
           2    null_entry               ssu_:          68,   72.
           2    null_label               ssu_:          67,   71.
                prepare_to_evaluate_string     ssu_:          92.
                prepare_to_execute_line  ssu_:          93.
         155    print_blast              ssu_:         124.
         157    print_message            ssu_:         125.
         162    record_usage             ssu_:         126.
         164    release_area             ssu_:         127.
                release_segment          ssu_:         128.
         166    release_temp_segment     ssu_:         128.
         170    reset_procedure          ssu_:         129.
         172    reset_request_processor_options      ssu_:         130.
         175    return_arg               ssu_:         131.
         144    sci.abort_line           ssu_:          78,
                                         _ssu_sci:      73.
          46    sci.abort_line_label     _ssu_sci:      43.
         150    sci.abort_subsystem      ssu_:          79,
                                         _ssu_sci:      74.
         100    sci.abort_subsystem_label      _ssu_sci:      59.
         234    sci.arg_count            ssu_:          83,
                                         _ssu_sci:      87.
         250    sci.arg_list_ptr         ssu_:          84,
                                         _ssu_sci:      90.
         240    sci.arg_ptr              ssu_:          85,
                                         _ssu_sci:      88.
         200    sci.cpescape             _ssu_sci:      80.
       40000    sci.debug_mode           _ssu_sci:      31.
      400000    sci.dont_prompt          _ssu_sci:      50.
      100000    sci.dont_prompt_if_typeahead   _ssu_sci:      52.
         122    sci.ec_info              _ssu_sci:      66.
         132    sci.ec_search_list       _ssu_sci:      69.
         122    sci.ec_suffix            _ssu_sci:      68.
         144    sci.entries              _ssu_sci:      71.
         220    sci.evaluate_active_string     _ssu_sci:      84.
         214    sci.execute_line         _ssu_sci:      83.
      100000    sci.executing_request    _ssu_sci:      30.
          32    sci.flags                _ssu_sci:      26.
         254    sci.get_default_rp_options     ssu_:         100,
                                               _ssu_sci:      91.
         260    sci.get_rp_options       ssu_:         114,
                                         _ssu_sci:      92.
         274    sci.get_subsys_and_request_name      ssu_:         115,
                                                     _ssu_sci:      95.
           4    sci.global_info          _ssu_sci:      20.
         110    sci.info_dirs_ptr        _ssu_sci:      64.
         110    sci.info_info            _ssu_sci:      62.
         112    sci.info_prefix          _ssu_sci:      65.
          24    sci.info_ptr             _ssu_sci:      24.
          34    sci.invocation_data_idx  _ssu_sci:      35.
         224    sci.invoke_request       ssu_:         119,
                                         _ssu_sci:      85.
      200000    sci.in_listener          _ssu_sci:      29.
          35    sci.level                _ssu_sci:      36.
         210    sci.listen               ssu_:         122,
                                         _ssu_sci:      82.
         100    sci.listener_info        _ssu_sci:      57.
         230    sci.locate_request       ssu_:         123,
                                         _ssu_sci:      86.
          40    sci.next_sci_ptr         _ssu_sci:      38.
           2    sci.parent_area_ptr      _ssu_sci:      19.
         170    sci.post_request_line    _ssu_sci:      78.
          36    sci.previous_sci_ptr     _ssu_sci:      37.
         164    sci.pre_request_line     _ssu_sci:      77.
         154    sci.print_message        ssu_:         125,
                                         _ssu_sci:      75.
         160    sci.program_interrupt    _ssu_sci:      76.
          54    sci.prompt               _ssu_sci:      47.
      200000    sci.prompt_after_null_lines    _ssu_sci:      51.
          54    sci.prompt_and_ready_info      _ssu_sci:      45.
          75    sci.prompt_mode          _ssu_sci:      48.
         174    sci.ready                _ssu_sci:      79.
      400000    sci.ready_enabled        _ssu_sci:      55.
          76    sci.ready_enabled_word   _ssu_sci:      54.
          34    sci.recursion_info       _ssu_sci:      33.
          52    sci.request_data_ptr     _ssu_sci:      44.
          42    sci.request_processor_info     _ssu_sci:      39.
          42    sci.request_tables_ptr   _ssu_sci:      41.
         270    sci.reset_rp_options     ssu_:         130,
                                         _ssu_sci:      94.
         244    sci.return_arg           ssu_:         131,
                                         _ssu_sci:      89.
          44    sci.rp_options_ptr       _ssu_sci:      42.
         264    sci.set_rp_options       ssu_:         141,
                                         _ssu_sci:      93.
          26    sci.standalone_abort_entry     _ssu_sci:      25.
      400000    sci.standalone_invocation      _ssu_sci:      28.
         142    sci.subsystem_dir_ptr    _ssu_sci:      70.
           4    sci.subsystem_name       _ssu_sci:      22.
          14    sci.subsystem_version    _ssu_sci:      23.
         106    sci.temp_info_ptr        _ssu_sci:      61.
         104    sci.temp_seg_ptr         _ssu_sci:      60.
         204    sci.unknown_request      ssu_:         147,
                                         _ssu_sci:      81.
           0    sci.version              _ssu_sci:      18.
         300    sci_size                 _ssu_sci:      15.
                set                      ssu_:         137.
         200    set_abbrev_info          ssu_:         132.
         202    set_debug_mode           ssu_:         133.
                set_default              ssu_:         129.
         227    set_ec_search_list       ssu_:         143.
         231    set_ec_subsystem_ptr     ssu_:         144.
         233    set_ec_suffix            ssu_:         145.
         204    set_info_dirs            ssu_:         134.
         206    set_info_prefix          ssu_:         135.
         210    set_info_ptr             ssu_:         136.
         212    set_procedure            ssu_:         137.
         214    set_prompt               ssu_:         138.
         216    set_prompt_mode          ssu_:         139.
         220    set_ready_mode           ssu_:         140.
         222    set_request_processor_options  ssu_:         141.
         225    set_request_tables       ssu_:         142.
                ssu_ec_                  ssu_:          94,  101,  102,  103,  143,  144,  145.
                ssu_info_mgr_            ssu_:          80,   89,  104,  120,  134,  135.
                ssu_invocation_          ssu_:          88,   91,  105,  106,  107,  108,  113,  116,  117,  136,  146.
                ssu_misc_procs_          ssu_:          86,   87,   98,  110,  111,  112,  133,  138,  139,  140.
                ssu_misc_requests_       ssu_:          82.
                ssu_procedure_mgr_       ssu_:          99,  109,  129,  137.
                ssu_request_mgr_         ssu_:          81,   90,  121,  142.
                ssu_request_processor_   ssu_:          92,   93,   95,   96,  132.
                ssu_temp_mgr_            ssu_:          97,  118,  127,  128.
                ssu_usage_               ssu_:         124,  126.
         235    standalone_invocation    ssu_:         146.
         237    unknown_request          ssu_:         147.


NO FATAL ERRORS


                                          -----------------------------------------------------------


Historical Background

This edition of the Multics software materials and documentation is provided and donated
to Massachusetts Institute of Technology by Group BULL including BULL HN Information Systems Inc.
as a contribution to computer science knowledge.
This donation is made also to give evidence of the common contributions of Massachusetts Institute of Technology,
Bell Laboratories, General Electric, Honeywell Information Systems Inc., Honeywell BULL Inc., Groupe BULL
and BULL HN Information Systems Inc. to the development of this operating system.
Multics development was initiated by Massachusetts Institute of Technology Project MAC (1963-1970),
renamed the MIT Laboratory for Computer Science and Artificial Intelligence in the mid 1970s, under the leadership
of Professor Fernando Jose Corbato. Users consider that Multics provided the best software architecture
for managing computer hardware properly and for executing programs. Many subsequent operating systems
incorporated Multics principles.
Multics was distributed in 1975 to 2000 by Group Bull in Europe , and in the U.S. by Bull HN Information Systems Inc.,
as successor in interest by change in name only to Honeywell Bull Inc. and Honeywell Information Systems Inc. .

                                          -----------------------------------------------------------

Permission to use, copy, modify, and distribute these programs and their documentation for any purpose and without
fee is hereby granted,provided that the below copyright notice and historical background appear in all copies
and that both the copyright notice and historical background and this permission notice appear in supporting
documentation, and that the names of MIT, HIS, BULL or BULL HN not be used in advertising or publicity pertaining
to distribution of the programs without specific prior written permission.
    Copyright 1972 by Massachusetts Institute of Technology and Honeywell Information Systems Inc.
    Copyright 2006 by BULL HN Information Systems Inc.
    Copyright 2006 by Bull SAS
    All Rights Reserved
