	COMPILATION LISTING OF SEGMENT stack_frame_exit_
	Compiled by: Multics PL/I Compiler, Release 29, of July 28, 1986
	Compiled at: Honeywell Multics Op. - System M
	Compiled on: 11/05/86  1031.4 mst Wed
	    Options: optimize map

        1 /* ******************************************************
        2*   *                                                    *
        3*   *                                                    *
        4*   * Copyright (c) 1972 by Massachusetts Institute of   *
        5*   * Technology and Honeywell Information Systems, Inc. *
        6*   *                                                    *
        7*   *                                                    *
        8*   ****************************************************** */
        9
       10 stack_frame_exit_:	proc(a_sp, mcptr, wcptr, co_flag, last_ptr, op_name, sitp);
       11
       12 /* This procedure  returns the address of the most recent location executed
       13*   by the owner of the given stack frame.  The method is somewhat heuristic so a bit structure
       14*   is returned indicating what the program thinks the situation is */
       15 /* coded by M. Weaver 27 June 1973 */
       16 /* modified by J.M. Broughton 26 June 1975 to handle being block entries */
       17 /* Changed to copy stack_frame.return_ptr through RETURN_PTR_MASK 03/07/84 S. Herbst */
       18
       19
       20 declare	(a_sp, mcptr, wcptr, last_ptr, callp, p, sitp) ptr;
       21
       22 declare	code fixed bin(35);
       23
       24 declare	op_name char(32) aligned;
       25
       26 declare	frame_flag bit(1) aligned;
       27 declare	co_flag bit(1) unaligned;
       28 declare	based_bit bit(36) aligned based;
       29 declare	nsp pointer;
       30 declare	i fixed bin;
       31 declare	begin_block_entries (2) bit(36) aligned initial
       32 	     (	"000000000110001100010111010001000000"b,  /* tsp2 pr0|614 */
       33 		"000000001011111110010111010001000000"b   /* tsp2 pr0|1376 */   );
       34
       35 declare	(addr, addrel, bin, baseno, baseptr, fixed, hbound, null, ptr, rel, string, substr, unspec) builtin;
       36 declare	interpret_op_ptr_ entry(ptr, ptr, ptr, char(32) aligned, bit(1) aligned);
       37 declare	legal_f_ entry(ptr, fixed bin(35));
       38 declare	compare_offsets_ entry(ptr, fixed bin(18), fixed bin(18), bit(1) aligned);
       39
       40 declare	1 situation aligned based(sitp),			/* describes what was found */
       41 	  2 bad_frame bit(1) unal,
       42 	  2 exists_ppr bit(1) unal,
       43 	  2 ppr_is_owner bit(1) unal,
       44 	  2 ppr_is_ops bit(1) unal,
       45 	  2 caller_is_owner bit(1) unal,
       46 	  2 entry_ptr_invalid bit(1) unal,
       47 	  2 ret_ptr_is_ops bit(1) unal,
       48 	  2 called_begin_block bit(1) unal,
       49 	  2 pad bit(28) unal;
       50
  1     1 /*  */
  1     2 /* BEGIN INCLUDE FILE  mc.incl.pl1   Created Dec 72 for 6180 - WSS. */
  1     3 /* Modified 06/07/76 by Greenberg for mc.resignal */
  1     4 /* Modified 07/07/76 by Morris for fault register data */
  1     5 /* Modified 08/28/80 by J. A. Bush for the DPS8/70M CVPU */
  1     6 /* Modified '82 to make values constant */
  1     7
  1     8 /* words 0-15 pointer registers */
  1     9
  1    10 dcl  mcp ptr;
  1    11
  1    12 dcl 1 mc based (mcp) aligned,
  1    13     2 prs (0:7) ptr,				/* POINTER  REGISTERS */
  1    14    (2 regs,					/* registers */
  1    15       3 x (0:7) bit (18),				/* index registers */
  1    16       3 a bit (36),					/* accumulator */
  1    17       3 q bit (36),					/* q-register */
  1    18       3 e bit (8),					/* exponent */
  1    19       3 pad1 bit (28),
  1    20       3 t bit (27),					/* timer register */
  1    21       3 pad2 bit (6),
  1    22       3 ralr bit (3),				/* ring alarm register */
  1    23
  1    24     2 scu (0:7) bit (36),
  1    25
  1    26     2 mask bit (72),				/* mem controller mask at time of fault */
  1    27     2 ips_temp bit (36),				/* Temporary storage for IPS info */
  1    28     2 errcode fixed bin (35),				/* fault handler's error code */
  1    29     2 fim_temp,
  1    30       3 unique_index bit (18) unal,			/* unique index for restarting faults */
  1    31       3 resignal bit (1) unal,			/* recompute signal name with fcode below */
  1    32       3 fcode bit (17) unal,				/* fault code used as index to FIM table and SCT */
  1    33     2 fault_reg bit (36),				/* fault register */
  1    34     2 pad2 bit (1),
  1    35     2 cpu_type fixed bin (2) unsigned,			/* L68 = 0, DPS8/70M = 1 */
  1    36     2 ext_fault_reg bit (15),				/* extended fault reg for DPS8/70M CPU */
  1    37     2 fault_time bit (54),				/* time of fault */
  1    38
  1    39     2 eis_info (0:7) bit (36)) unaligned;
  1    40
  1    41
  1    42 dcl (apx fixed bin init (0),
  1    43      abx fixed bin init (1),
  1    44      bpx fixed bin init (2),
  1    45      bbx fixed bin init (3),
  1    46      lpx fixed bin init (4),
  1    47      lbx fixed bin init (5),
  1    48      spx fixed bin init (6),
  1    49      sbx fixed bin init (7)) internal static options (constant);
  1    50
  1    51
  1    52 
  1    53
  1    54 dcl  scup ptr;
  1    55
  1    56 dcl 1 scu based (scup) aligned,			/* SCU DATA */
  1    57
  1    58
  1    59 /*	WORD (0)		*/
  1    60
  1    61    (2 ppr,					/* PROCEDURE POINTER REGISTER */
  1    62       3 prr bit (3),				/* procedure ring register */
  1    63       3 psr bit (15),				/* procedure segment register */
  1    64       3 p bit (1),					/* procedure privileged bit */
  1    65
  1    66     2 apu,					/* APPENDING UNIT STATUS */
  1    67       3 xsf bit (1),				/* ext seg flag - IT modification */
  1    68       3 sdwm bit (1),				/* match in SDW Ass. Mem. */
  1    69       3 sd_on bit (1),				/* SDW Ass. Mem.  ON */
  1    70       3 ptwm bit (1),				/* match in PTW Ass. Mem. */
  1    71       3 pt_on bit (1),				/* PTW Ass. Mem.  ON */
  1    72       3 pi_ap bit (1),				/* Instr Fetch or Append cycle */
  1    73       3 dsptw bit (1),				/* Fetch of DSPTW */
  1    74       3 sdwnp bit (1),				/* Fetch of SDW non paged */
  1    75       3 sdwp bit (1),				/* Fetch of SDW paged */
  1    76       3 ptw bit (1),				/* Fetch of PTW */
  1    77       3 ptw2 bit (1),				/* Fetch of pre-paged PTW */
  1    78       3 fap bit (1),				/* Fetch of final address paged */
  1    79       3 fanp bit (1),				/* Fetch of final address non-paged */
  1    80       3 fabs bit (1),				/* Fetch of final address absolute */
  1    81
  1    82     2 fault_cntr bit (3),				/* number of retrys of EIS instructions */
  1    83
  1    84
  1    85 /*	WORD (1)		*/
  1    86
  1    87     2 fd,						/* FAULT  DATA */
  1    88       3 iro bit (1),				/* illegal ring order */
  1    89       3 oeb bit (1),				/* out of execute bracket */
  1    90       3 e_off bit (1),				/* no execute */
  1    91       3 orb bit (1),				/* out of read bracket */
  1    92       3 r_off bit (1),				/* no read */
  1    93       3 owb bit (1),				/* out of write bracket */
  1    94       3 w_off bit (1),				/* no write */
  1    95       3 no_ga bit (1),				/* not a gate */
  1    96       3 ocb bit (1),				/* out of call bracket */
  1    97       3 ocall bit (1),				/* outward call */
  1    98       3 boc bit (1),				/* bad outward call */
  1    99       3 inret bit (1),				/* inward return */
  1   100       3 crt bit (1),				/* cross ring transfer */
  1   101       3 ralr bit (1),				/* ring alarm register */
  1   102       3 am_er bit (1),				/* associative memory fault */
  1   103       3 oosb bit (1),				/* out of segment bounds */
  1   104       3 paru bit (1),				/* processor parity upper */
  1   105       3 parl bit (1),				/* processor parity lower */
  1   106       3 onc_1 bit (1),				/* op not complete type 1 */
  1   107       3 onc_2 bit (1),				/* op not complete type 2 */
  1   108
  1   109     2 port_stat,					/* PORT  STATUS */
  1   110       3 ial bit (4),				/* illegal action lines */
  1   111       3 iac bit (3),				/* illegal action channel */
  1   112       3 con_chan bit (3),				/* connect channel */
  1   113
  1   114     2 fi_num bit (5),				/* (fault/interrupt)  number */
  1   115     2 fi_flag bit (1),				/*  1 => fault,  0 => interrupt  */
  1   116
  1   117
  1   118 /*	WORD (2)		*/
  1   119
  1   120     2 tpr,					/* TEMPORARY POINTER REGISTER */
  1   121       3 trr bit (3),				/* temporary ring register */
  1   122       3 tsr bit (15),				/* temporary segment register */
  1   123
  1   124     2 pad2 bit (9),
  1   125
  1   126     2 cpu_no bit (3),				/* CPU number */
  1   127
  1   128     2 delta bit (6),				/* tally modification DELTA */
  1   129
  1   130
  1   131 /*	WORD (3)		*/
  1   132
  1   133     2 word3 bit (18),
  1   134
  1   135     2 tsr_stat,					/* TSR STATUS for 1,2,&3 word instructions */
  1   136       3 tsna,					/* Word 1 status */
  1   137         4 prn bit (3),				/* Word 1  PR  number */
  1   138         4 prv bit (1),				/* Word 1  PR  valid bit */
  1   139       3 tsnb,					/* Word 2  status */
  1   140         4 prn bit (3),				/* Word 2  PR  number */
  1   141         4 prv bit (1),				/* Word 2  PR  valid bit */
  1   142       3 tsnc,					/* Word 3  status */
  1   143         4 prn bit (3),				/* Word 3  PR  number */
  1   144         4 prv bit (1),				/* Word 3  PR  valid bit */
  1   145
  1   146     2 tpr_tbr bit (6),				/* TPR.TBR  field */
  1   147
  1   148
  1   149 /* 	WORD (4)		*/
  1   150
  1   151     2 ilc bit (18),					/* INSTRUCTION  COUNTER */
  1   152
  1   153     2 ir,						/* INDICATOR  REGISTERS */
  1   154       3 zero bit (1),				/* zero indicator */
  1   155       3 neg bit (1),				/* negative indicator */
  1   156       3 carry bit (1),				/* carryry indicator */
  1   157       3 ovfl bit (1),				/* overflow indicator */
  1   158       3 eovf bit (1),				/* eponent overflow */
  1   159       3 eufl bit (1),				/* exponent underflow */
  1   160       3 oflm bit (1),				/* overflow mask */
  1   161       3 tro bit (1),				/* tally runout */
  1   162       3 par bit (1),				/* parity error */
  1   163       3 parm bit (1),				/* parity mask */
  1   164       3 bm bit (1),					/* ^bar mode */
  1   165       3 tru bit (1),				/* truncation mode */
  1   166       3 mif bit (1),				/* multi-word instruction mode */
  1   167       3 abs bit (1),				/* absolute mode */
  1   168       3 hex bit (1),				/* hexadecimal exponent mode */
  1   169       3 pad bit (3),
  1   170
  1   171
  1   172 /*	WORD (5)		*/
  1   173
  1   174     2 ca bit (18),					/* COMPUTED  ADDRESS */
  1   175
  1   176     2 cu,						/* CONTROL UNIT STATUS */
  1   177       3 rf bit (1),					/* on first cycle of repeat instr */
  1   178       3 rpt bit (1),				/* repeat instruction */
  1   179       3 rd bit (1),					/* repeat double instruction */
  1   180       3 rl bit (1),					/* repeat link instruciton */
  1   181       3 pot bit (1),				/* IT  modification */
  1   182       3 pon bit (1),				/* return type instruction */
  1   183       3 xde bit (1),				/* XDE from Even location */
  1   184       3 xdo bit (1),				/* XDE from Odd  location */
  1   185       3 poa bit (1),				/* operation preparation */
  1   186       3 rfi bit (1),				/* tells CPU to refetch instruction */
  1   187       3 its bit (1),				/* ITS modification */
  1   188       3 if bit (1),					/* fault occured during instruction fetch */
  1   189
  1   190     2 cpu_tag bit (6)) unaligned,			/* computed tag field */
  1   191
  1   192
  1   193 /*	WORDS (6,7)	*/
  1   194
  1   195     2 even_inst bit (36),				/* even instruction of faulting pair */
  1   196
  1   197     2 odd_inst bit (36);				/* odd  instruction of faulting pair */
  1   198
  1   199
  1   200
  1   201
  1   202
  1   203
  1   204 /*	ALTERNATE   SCU  DECLARATION		*/
  1   205
  1   206
  1   207 dcl 1 scux based (scup) aligned,
  1   208
  1   209    (2 pad0 bit (36),
  1   210
  1   211     2 fd,						/* GROUP II  FAULT DATA */
  1   212       3 isn bit (1),				/* illegal segment number */
  1   213       3 ioc bit (1),				/* illegal op  code  */
  1   214       3 ia_am bit (1),				/* illegal address - modifier */
  1   215       3 isp bit (1),				/* illegal slave  procedure */
  1   216       3 ipr bit (1),				/* illegal procedure */
  1   217       3 nea bit (1),				/* non existent address */
  1   218       3 oobb bit (1),				/* out of bounds */
  1   219       3 pad bit (29),
  1   220
  1   221     2 pad2 bit (36),
  1   222
  1   223     2 pad3a bit (18),
  1   224
  1   225     2 tsr_stat (0:2),				/* TSR  STATUS  as an  ARRAY */
  1   226       3 prn bit (3),				/* PR  number */
  1   227       3 prv bit (1),				/* PR  valid bit */
  1   228
  1   229     2 pad3b bit (6)) unaligned,
  1   230
  1   231     2 pad45 (0:1) bit (36),
  1   232
  1   233     2 instr (0:1) bit (36);				/* Instruction ARRAY */
  1   234
  1   235
  1   236
  1   237 /*  END INCLUDE FILE   mc.incl.pl1 */
       51
       52
       53 /**/
  2     1 /* 	BEGIN INCLUDE FILE ... stack_frame.incl.pl1 ... */
  2     2
  2     3 /* format: off */
  2     4
  2     5 /* Modified: 16 Dec 1977, D. Levin - to add fio_ps_ptr and pl1_ps_ptr */
  2     6 /* Modified:  3 Feb 1978, P. Krupp - to add run_unit_manager bit & main_proc bit */
  2     7 /* Modified: 21 March 1978, D. Levin - change fio_ps_ptr to support_ptr */
  2     8 /* Modified: 03/01/84, S. Herbst - Added RETURN_PTR_MASK */
  2     9
  2    10
  2    11 /****^  HISTORY COMMENTS:
  2    12*  1) change(86-09-15,Kissel), approve(86-09-15,MCR7473),
  2    13*     audit(86-10-01,Fawcett), install(86-11-03,MR12.0-1206):
  2    14*     Modified to add constants for the translator_id field in the stack_frame
  2    15*     structure.
  2    16*                                                   END HISTORY COMMENTS */
  2    17
  2    18
  2    19 dcl RETURN_PTR_MASK bit (72) int static options (constant)  /* mask to be AND'd with stack_frame.return_ptr */
  2    20 	init ("777777777777777777000000"b3);		/* when copying, to ignore bits that a call fills */
  2    21 						/* with indicators (nonzero for Fortran hexfp caller) */
  2    22 			/* say: unspec(ptr) = unspec(stack_frame.return_ptr) & RETURN_PTR_MASK; */
  2    23
  2    24 dcl TRANSLATOR_ID_PL1V2 bit (18) internal static options (constant) init ("000000"b3);
  2    25 dcl TRANSLATOR_ID_ALM bit (18) internal static options (constant) init ("000001"b3);
  2    26 dcl TRANSLATOR_ID_PL1V1 bit (18) internal static options (constant) init ("000002"b3);
  2    27 dcl TRANSLATOR_ID_SIGNAL_CALLER bit (18) internal static options (constant) init ("000003"b3);
  2    28 dcl TRANSLATOR_ID_SIGNALLER bit (18) internal static options (constant) init ("000004"b3);
  2    29
  2    30
  2    31 dcl  sp pointer;					/* pointer to beginning of stack frame */
  2    32
  2    33 dcl  stack_frame_min_length fixed bin static init(48);
  2    34
  2    35
  2    36 dcl 1 stack_frame based(sp) aligned,
  2    37     2 pointer_registers(0 : 7) ptr,
  2    38     2 prev_sp pointer,
  2    39     2 next_sp pointer,
  2    40     2 return_ptr pointer,
  2    41     2 entry_ptr pointer,
  2    42     2 operator_and_lp_ptr ptr,			/* serves as both */
  2    43     2 arg_ptr pointer,
  2    44     2 static_ptr ptr unaligned,
  2    45     2 support_ptr ptr unal, /* only used by fortran I/O */
  2    46     2 on_unit_relp1 bit(18) unaligned,
  2    47     2 on_unit_relp2 bit(18) unaligned,
  2    48     2 translator_id bit(18) unaligned,			/* Translator ID (see constants above)
  2    49*						   0 => PL/I version II
  2    50*						   1 => ALM
  2    51*						   2 => PL/I version I
  2    52*						   3 => signal caller frame
  2    53*						   4 => signaller frame */
  2    54     2 operator_return_offset bit(18) unaligned,
  2    55     2 x(0: 7) bit(18) unaligned,			/* index registers */
  2    56     2 a bit(36),					/* accumulator */
  2    57     2 q bit(36),					/* q-register */
  2    58     2 e bit(36),					/* exponent */
  2    59     2 timer bit(27) unaligned,				/* timer */
  2    60     2 pad bit(6) unaligned,
  2    61     2 ring_alarm_reg bit(3) unaligned;
  2    62
  2    63
  2    64 dcl 1 stack_frame_flags based(sp) aligned,
  2    65     2 pad(0 : 7) bit(72),				/* skip over prs */
  2    66     2 xx0 bit(22) unal,
  2    67     2 main_proc bit(1) unal,				/* on if frame belongs to a main procedure */
  2    68     2 run_unit_manager bit(1) unal,			/* on if frame belongs to run unit manager */
  2    69     2 signal bit(1) unal,				/* on if frame belongs to logical signal_ */
  2    70     2 crawl_out bit(1) unal,				/* on if this is a signal caller frame */
  2    71     2 signaller bit(1) unal,				/* on if next frame is signaller's */
  2    72     2 link_trap bit(1) unal,				/* on if this frame was made by the linker */
  2    73     2 support bit(1) unal,				/* on if frame belongs to a support proc */
  2    74     2 condition bit(1) unal,				/* on if condition established in this frame */
  2    75     2 xx0a bit(6) unal,
  2    76     2 xx1 fixed bin,
  2    77     2 xx2 fixed bin,
  2    78     2 xx3 bit(25) unal,
  2    79     2 old_crawl_out bit (1) unal,			/* on if this is a signal caller frame */
  2    80     2 old_signaller bit(1) unal,			/* on if next frame is signaller's */
  2    81     2 xx3a bit(9) unaligned,
  2    82     2 xx4(9) bit(72) aligned,
  2    83     2 v2_pl1_op_ret_base ptr,				/* When a V2 PL/I program calls an operator the
  2    84*						*  operator puts a pointer to the base of
  2    85*						*  the calling procedure here. (text base ptr)  */
  2    86     2 xx5 bit(72) aligned,
  2    87     2 pl1_ps_ptr ptr;				/* ptr to ps for this frame; also used by fio. */
  2    88
  2    89 /* format: on */
  2    90
  2    91 /* 	END INCLUDE FILE ... stack_frame.incl.pl1 */
       54
       55
  3     1 /* 	BEGIN INCLUDE FILE ... stack_header.incl.pl1 .. 3/72 Bill Silver  */
  3     2 /*	modified 7/76 by M. Weaver for *system links and more system use of areas */
  3     3 /*	modified 3/77 by M. Weaver to add rnt_ptr */
  3     4 /*	Modified April 1983 by C. Hornig for tasking */
  3     5
  3     6 /****^  HISTORY COMMENTS:
  3     7*  1) change(86-06-24,DGHowe), approve(86-06-24,MCR7396),
  3     8*     audit(86-08-05,Schroth), install(86-11-03,MR12.0-1206):
  3     9*     added the heap_header_ptr definition.
  3    10*  2) change(86-08-12,Kissel), approve(86-08-12,MCR7473),
  3    11*     audit(86-10-10,Fawcett), install(86-11-03,MR12.0-1206):
  3    12*     Modified to support control point management.  These changes were actually
  3    13*     made in February 1985 by G. Palter.
  3    14*  3) change(86-10-22,Fawcett), approve(86-10-22,MCR7473),
  3    15*     audit(86-10-22,Farley), install(86-11-03,MR12.0-1206):
  3    16*     Remove the old_lot pointer and replace it with cpm_data_ptr. Use the 18
  3    17*     bit pad after cur_lot_size for the cpm_enabled. This was done to save some
  3    18*     space int the stack header and change the cpd_ptr unal to cpm_data_ptr
  3    19*     (ITS pair).
  3    20*                                                   END HISTORY COMMENTS */
  3    21
  3    22 /* format: style2 */
  3    23
  3    24      dcl	   sb		      ptr;		/* the  main pointer to the stack header */
  3    25
  3    26      dcl	   1 stack_header	      based (sb) aligned,
  3    27 	     2 pad1	      (4) fixed bin,	/*  (0) also used as arg list by outward_call_handler  */
  3    28 	     2 cpm_data_ptr	      ptr,		/*  (4)  pointer to control point which owns this stack */
  3    29 	     2 combined_stat_ptr  ptr,		/*  (6)  pointer to area containing separate static */
  3    30 	     2 clr_ptr	      ptr,		/*  (8)  pointer to area containing linkage sections */
  3    31 	     2 max_lot_size	      fixed bin (17) unal,	/*  (10) DU  number of words allowed in lot */
  3    32 	     2 main_proc_invoked  fixed bin (11) unal,	/*  (10) DL  nonzero if main procedure invoked in run unit */
  3    33 	     2 have_static_vlas   bit (1) unal,		/*  (10) DL  "1"b if (very) large arrays are being used in static */
  3    34 	     2 pad4	      bit (2) unal,
  3    35 	     2 run_unit_depth     fixed bin (2) unal,	/*  (10) DL  number of active run units stacked */
  3    36 	     2 cur_lot_size	      fixed bin (17) unal,	/*  (11) DU  number of words (entries) in lot */
  3    37 	     2 cpm_enabled	      bit (18) unal,	/*  (11) DL  non-zero if control point management is enabled */
  3    38 	     2 system_free_ptr    ptr,		/*  (12)  pointer to system storage area */
  3    39 	     2 user_free_ptr      ptr,		/*  (14)  pointer to user storage area */
  3    40 	     2 null_ptr	      ptr,		/*  (16)  */
  3    41 	     2 stack_begin_ptr    ptr,		/*  (18)  pointer to first stack frame on the stack */
  3    42 	     2 stack_end_ptr      ptr,		/*  (20)  pointer to next useable stack frame */
  3    43 	     2 lot_ptr	      ptr,		/*  (22)  pointer to the lot for the current ring */
  3    44 	     2 signal_ptr	      ptr,		/*  (24)  pointer to signal procedure for current ring */
  3    45 	     2 bar_mode_sp	      ptr,		/*  (26)  value of sp before entering bar mode */
  3    46 	     2 pl1_operators_ptr  ptr,		/*  (28)  pointer to pl1_operators_$operator_table */
  3    47 	     2 call_op_ptr	      ptr,		/*  (30)  pointer to standard call operator */
  3    48 	     2 push_op_ptr	      ptr,		/*  (32)  pointer to standard push operator */
  3    49 	     2 return_op_ptr      ptr,		/*  (34)  pointer to standard return operator */
  3    50 	     2 return_no_pop_op_ptr
  3    51 			      ptr,		/*  (36)  pointer to standard return / no pop operator */
  3    52 	     2 entry_op_ptr	      ptr,		/*  (38)  pointer to standard entry operator */
  3    53 	     2 trans_op_tv_ptr    ptr,		/*  (40)  pointer to translator operator ptrs */
  3    54 	     2 isot_ptr	      ptr,		/*  (42)  pointer to ISOT */
  3    55 	     2 sct_ptr	      ptr,		/*  (44)  pointer to System Condition Table */
  3    56 	     2 unwinder_ptr	      ptr,		/*  (46)  pointer to unwinder for current ring */
  3    57 	     2 sys_link_info_ptr  ptr,		/*  (48)  pointer to *system link name table */
  3    58 	     2 rnt_ptr	      ptr,		/*  (50)  pointer to Reference Name Table */
  3    59 	     2 ect_ptr	      ptr,		/*  (52)  pointer to event channel table */
  3    60 	     2 assign_linkage_ptr ptr,		/*  (54)  pointer to storage for (obsolete) hcs_$assign_linkage */
  3    61 	     2 heap_header_ptr     ptr,		/*  (56)  pointer to the heap header for this ring */
  3    62 	     2 trace,
  3    63 	       3 frames,
  3    64 	         4 count	      fixed bin,		/*  (58)  number of trace frames */
  3    65 	         4 top_ptr	      ptr unal,		/*  (59)  pointer to last trace frame */
  3    66 	       3 in_trace	      bit (36) aligned,	/*  (60)  trace antirecursion flag */
  3    67 	     2 pad2	      bit (36),		/*  (61) */
  3    68                2 pad5	      pointer;		/*  (62)  pointer to future stuff */
  3    69
  3    70 /*	The following offset refers to a table within the  pl1  operator table.  */
  3    71
  3    72      dcl	   tv_offset	      fixed bin init (361) internal static;
  3    73 						/* (551) octal */
  3    74
  3    75
  3    76 /*	The following constants are offsets within this transfer vector table.  */
  3    77
  3    78      dcl	   (
  3    79 	   call_offset	      fixed bin init (271),
  3    80 	   push_offset	      fixed bin init (272),
  3    81 	   return_offset	      fixed bin init (273),
  3    82 	   return_no_pop_offset   fixed bin init (274),
  3    83 	   entry_offset	      fixed bin init (275)
  3    84 	   )		      internal static;
  3    85
  3    86
  3    87
  3    88
  3    89
  3    90 /*	The following declaration  is an overlay of the whole stack header.   Procedures which
  3    91*	move the whole stack header should use this overlay.
  3    92**/
  3    93
  3    94      dcl	   stack_header_overlay   (size (stack_header)) fixed bin based (sb);
  3    95
  3    96
  3    97
  3    98 /* 	END INCLUDE FILE ... stack_header.incl.pl1 */
       56
       57
       58 /**/
       59
  4     1 /* BEGIN INCLUDE FILE its.incl.pl1
  4     2*   modified 27 July 79 by JRDavis to add its_unsigned
  4     3*   Internal format of ITS pointer, including ring-number field for follow-on processor */
  4     4
  4     5 dcl 1 its based aligned,				/* declaration for ITS type pointer */
  4     6     2 pad1 bit (3) unaligned,
  4     7     2 segno bit (15) unaligned,			/* segment number within the pointer */
  4     8     2 ringno bit (3) unaligned,			/* ring number within the pointer */
  4     9     2 pad2 bit (9) unaligned,
  4    10     2 its_mod bit (6) unaligned,			/* should be 43(8) */
  4    11
  4    12     2 offset bit (18) unaligned,			/* word offset within the addressed segment */
  4    13     2 pad3 bit (3) unaligned,
  4    14     2 bit_offset bit (6) unaligned,			/* bit offset within the word */
  4    15     2 pad4 bit (3) unaligned,
  4    16     2 mod bit (6) unaligned;				/* further modification */
  4    17
  4    18 dcl 1 itp based aligned,				/* declaration for ITP type pointer */
  4    19     2 pr_no bit (3) unaligned,			/* number of pointer register to use */
  4    20     2 pad1 bit (27) unaligned,
  4    21     2 itp_mod bit (6) unaligned,			/* should be 41(8) */
  4    22
  4    23     2 offset bit (18) unaligned,			/* word offset from pointer register word offset */
  4    24     2 pad2 bit (3) unaligned,
  4    25     2 bit_offset bit (6) unaligned,			/* bit offset relative to new word offset */
  4    26     2 pad3 bit (3) unaligned,
  4    27     2 mod bit (6) unaligned;				/* further modification */
  4    28
  4    29
  4    30 dcl 1 its_unsigned based aligned,			/* just like its, but with unsigned binary */
  4    31     2 pad1 bit (3) unaligned,
  4    32     2 segno fixed bin (15) unsigned unaligned,
  4    33     2 ringno fixed bin (3) unsigned unaligned,
  4    34     2 pad2 bit (9) unaligned,
  4    35     2 its_mod bit (6) unaligned,
  4    36
  4    37     2 offset fixed bin (18) unsigned unaligned,
  4    38     2 pad3 bit (3) unaligned,
  4    39     2 bit_offset fixed bin (6) unsigned unaligned,
  4    40     2 pad4 bit (3) unaligned,
  4    41     2 mod bit (6) unaligned;
  4    42
  4    43 dcl 1 itp_unsigned based aligned,			/* just like itp, but with unsigned binary where appropriate */
  4    44     2 pr_no fixed bin (3) unsigned unaligned,
  4    45     2 pad1 bit (27) unaligned,
  4    46     2 itp_mod bit (6) unaligned,
  4    47
  4    48     2 offset fixed bin (18) unsigned unaligned,
  4    49     2 pad2 bit (3) unaligned,
  4    50     2 bit_offset fixed bin (6) unsigned unaligned,
  4    51     2 pad3 bit (3) unaligned,
  4    52     2 mod bit (6) unaligned;
  4    53
  4    54
  4    55 dcl  ITS_MODIFIER bit (6) unaligned internal static options (constant) init ("43"b3);
  4    56 dcl  ITP_MODIFIER bit (6) unaligned internal static options (constant) init ("41"b3);
  4    57
  4    58 /* END INCLUDE FILE   its.incl.pl1 */
       60
       61 /**/
       62 	last_ptr = null;
       63 	op_name = " ";
       64 	string (sitp -> situation) = (36)"0"b;			/* initialize all situation flags */
       65
       66 	/* see if we have a real stack frame */
       67
       68 	call legal_f_(a_sp, code);
       69 	if code ^= 0 then do;			/* don't have a real frame */
       70 	     bad_frame = "1"b;
       71 	     return;
       72 	end;
       73
       74 	sp = a_sp;
       75
       76 	/* find out if we have mc to look at */
       77
       78
       79 	if (sp -> stack_frame.entry_ptr = null)
       80 	| (addr(sp -> stack_frame.entry_ptr) -> its.its_mod ^= "100011"b)
       81 	     then entry_ptr_invalid = "1"b;		/* want this to be set first */
       82
       83 	if co_flag then if wcptr ^= null then mcp = wcptr;	/* had left this ring with a fault */
       84 		else mcp = null;			/* any mc for crawlout are for lower ring */
       85 	else mcp = mcptr;
       86 	if mcp = null then go to use_ret_ptr;		/* no mc to look at */
       87 	else exists_ppr = "1"b;
       88
       89 	/* we do; see if ppr is pl1_operators_ */
       90
       91 	scup = addr(mcp -> mc.scu(0));
       92
       93 	p = ptr(baseptr(bin(bin(scup -> scu.ppr.psr, 15), 18)), scup -> scu.ilc);
       94 						/* pick up ppr */
       95
       96 	call interpret_op_ptr_(mcp, sp, last_ptr, op_name, frame_flag);
       97
       98 	if last_ptr ^= null then do;			/* ppr was pl1 ops */
       99 	     ppr_is_ops = "1"b;
      100 	     if ^frame_flag then go to use_ret_ptr;	/* but it's not related to this frame */
      101 	     caller_is_owner = "1"b;			/* ppr is related to this frame */
      102 	     return;
      103 	end;
      104
      105 	/* ppr ^= pl1_ops; see if it is owner of frame */
      106
      107 	if ^frame_flag then go to use_ret_ptr;		/* sp in mc doesn't match a_sp */
      108
      109 	if ^entry_ptr_invalid then do;
      110 	     /* if we have an entry ptr, assume it points to owner */
      111 	     if baseno(p) = baseno(sp -> stack_frame.entry_ptr)
      112 	     then do;				/* same seg; see if same component */
      113 		call compare_offsets_(ptr(p,0), bin(rel(p), 18), bin(rel(entry_ptr), 18),
      114 		     frame_flag);
      115 		if frame_flag then do;		/* is then same component */
      116 		     ppr_is_owner = "1"b;
      117 		     last_ptr = p;
      118 		     return;
      119 		end;
      120 	     end;
      121 	     go to use_ret_ptr;			/* ppr is not frame's owner */
      122 	end;
      123
      124 	last_ptr = p;				/* can't tell; assume ppr is owner */
      125 	return;
      126
      127
      128 use_ret_ptr:	/* we're pretty sure that ret ptr accurately reflects the most recent use of the frame */
      129
      130
      131 	/* When a begin block is entered, it does not set the return pointer. So if the
      132*	   next frame belongs to a begin block, the return pointer will not reflect the
      133*	   location at which the frame was exited. What we want is the last location
      134*	   before the begin block. */
      135
      136 	nsp = ptr (sp, rel (sp -> stack_frame.next_sp));
      137 	if (nsp -> stack_frame.entry_ptr ^= null) & (addr (nsp -> stack_frame.entry_ptr) -> its.its_mod = "100011"b)
      138 	     then do i = 1 to hbound (begin_block_entries, 1);
      139 		if addrel (nsp -> stack_frame.entry_ptr, 1) -> based_bit = begin_block_entries(i)
      140 		     then do;
      141 			called_begin_block = "1"b;
      142 			ret_ptr_is_ops = "0"b;
      143 			last_ptr = addrel (nsp -> stack_frame.entry_ptr, -1);
      144 			return;
      145 		     end;
      146 	     end;
      147
      148 	call interpret_op_ptr_(null, sp, last_ptr, op_name, frame_flag);
      149
      150 	if last_ptr = null then do;				/* ptr can be used as id */
      151 	     if addr(sp -> stack_frame.return_ptr) -> its.its_mod ^= "100011"b then do; /* not a ptr */
      152 		if ^entry_ptr_invalid then last_ptr = sp -> stack_frame.entry_ptr;
      153 		else last_ptr = null;			/* have no clue */
      154 	     end;
      155 	     else do;
      156 		unspec (last_ptr) = unspec (sp -> stack_frame.return_ptr) & RETURN_PTR_MASK;
      157 		if rel(last_ptr) ^= "0"b
      158 		then last_ptr = addrel(last_ptr, -1);
      159 	     end;
      160 	end;
      161
      162 	else ret_ptr_is_ops = "1"b;			/* use caller of pl1 ops */
      163
      164
      165 	return;
      166
      167 	end stack_frame_exit_;
	SOURCE FILES USED IN THIS COMPILATION.

LINE      NUMBER  DATE MODIFIED     NAME			PATHNAME
             0    11/04/86  1033.8  stack_frame_exit_.pl1             >special_ldd>install>MR12.0-1206>stack_frame_exit_.pl1
51           1    12/15/83  1100.4  mc.incl.pl1                       >ldd>include>mc.incl.pl1
54           2    11/03/86  1114.7  stack_frame.incl.pl1              >special_ldd>install>MR12.0-1206>stack_frame.incl.pl1
56           3    11/04/86  1324.3  stack_header.incl.pl1             >special_ldd>install>MR12.0-1206>stack_header.incl.pl1
60           4    11/26/79  1320.6  its.incl.pl1                      >ldd>include>its.incl.pl1
	NAMES DECLARED IN THIS COMPILATION.

IDENTIFIER	     OFFSET    LOC STORAGE CLASS   DATA TYPE		ATTRIBUTES AND REFERENCES
								(* indicates a set context)

NAMES DECLARED BY DECLARE STATEMENT.
RETURN_PTR_MASK                 000000 constant        bit(72)                  initial unaligned dcl 2-19 ref 156
a_sp                                   parameter       pointer                  dcl 20 set ref 10 68* 74
addr                                                   builtin function         dcl 35 ref 79 91 137 151
addrel                                                 builtin function         dcl 35 ref 139 143 157
bad_frame                              based           bit(1)                   level 2 packed unaligned dcl 40 set ref 70*
based_bit                              based           bit(36)                  dcl 28 ref 139
baseno                                                 builtin function         dcl 35 ref 111 111
baseptr                                                builtin function         dcl 35 ref 93
begin_block_entries             000110 automatic       bit(36)                  initial array dcl 31 set ref 31* 31* 137 139
bin                                                    builtin function         dcl 35 ref 93 93 113 113 113 113
called_begin_block        0(07)        based           bit(1)                   level 2 packed unaligned dcl 40 set ref 141*
caller_is_owner           0(04)        based           bit(1)                   level 2 packed unaligned dcl 40 set ref 101*
co_flag                                parameter       bit(1)                   unaligned dcl 27 ref 10 83
code                            000102 automatic       fixed bin(35,0)          dcl 22 set ref 68* 69
compare_offsets_                000014 constant        entry                    external dcl 38 ref 113
entry_ptr                26            based           pointer                  level 2 dcl 2-36 set ref 79 79 111 113 113 137 137
                                                                                  139 143 152
entry_ptr_invalid         0(05)        based           bit(1)                   level 2 packed unaligned dcl 40 set ref 79* 109 152
exists_ppr                0(01)        based           bit(1)                   level 2 packed unaligned dcl 40 set ref 87*
frame_flag                      000103 automatic       bit(1)                   dcl 26 set ref 96* 100 107 113* 115 148*
hbound                                                 builtin function         dcl 35 ref 137
i                               000106 automatic       fixed bin(17,0)          dcl 30 set ref 137* 139*
ilc                       4            based           bit(18)                  level 2 packed unaligned dcl 1-56 ref 93
interpret_op_ptr_               000010 constant        entry                    external dcl 36 ref 96 148
its                                    based           structure                level 1 dcl 4-5
its_mod                   0(30)        based           bit(6)                   level 2 packed unaligned dcl 4-5 ref 79 137 151
last_ptr                               parameter       pointer                  dcl 20 set ref 10 62* 96* 98 117* 124* 143* 148* 150
                                                                                  152* 153* 156* 157 157* 157
legal_f_                        000012 constant        entry                    external dcl 37 ref 68
mc                                     based           structure                level 1 dcl 1-12
mcp                             000112 automatic       pointer                  dcl 1-10 set ref 83* 84* 85* 86 91 96*
mcptr                                  parameter       pointer                  dcl 20 ref 10 85
next_sp                  22            based           pointer                  level 2 dcl 2-36 ref 128
nsp                             000104 automatic       pointer                  dcl 29 set ref 128* 137 137 139 143
null                                                   builtin function         dcl 35 ref 62 79 83 84 86 98 137 148 148 150 153
op_name                                parameter       char(32)                 dcl 24 set ref 10 63* 96* 148*
p                               000100 automatic       pointer                  dcl 20 set ref 93* 111 113 113 113 113 117 124
ppr                                    based           structure                level 2 packed unaligned dcl 1-56
ppr_is_ops                0(03)        based           bit(1)                   level 2 packed unaligned dcl 40 set ref 99*
ppr_is_owner              0(02)        based           bit(1)                   level 2 packed unaligned dcl 40 set ref 116*
psr                       0(03)        based           bit(15)                  level 3 packed unaligned dcl 1-56 ref 93
ptr                                                    builtin function         dcl 35 ref 93 113 113 128
rel                                                    builtin function         dcl 35 ref 113 113 113 113 128 157
ret_ptr_is_ops            0(06)        based           bit(1)                   level 2 packed unaligned dcl 40 set ref 142* 162*
return_ptr               24            based           pointer                  level 2 dcl 2-36 set ref 151 156
scu                      30            based           bit(36)                  array level 2 in structure "mc" packed unaligned
                                                                                  dcl 1-12 in procedure "stack_frame_exit_" set ref
                                                                                  91
scu                                    based           structure                level 1 dcl 1-56 in procedure "stack_frame_exit_"
scup                            000114 automatic       pointer                  dcl 1-54 set ref 91* 93 93
sitp                                   parameter       pointer                  dcl 20 ref 10 64 70 79 87 99 101 109 116 141 142 152
                                                                                  162
situation                              based           structure                level 1 dcl 40 set ref 64*
sp                              000116 automatic       pointer                  dcl 2-31 set ref 74* 79 79 96* 111 113 113 128 128
                                                                                  148* 151 152 156
stack_frame                            based           structure                level 1 dcl 2-36
string                                                 builtin function         dcl 35 set ref 64*
unspec                                                 builtin function         dcl 35 set ref 156* 156
wcptr                                  parameter       pointer                  dcl 20 ref 10 83 83

NAMES DECLARED BY DECLARE STATEMENT AND NEVER REFERENCED.
ITP_MODIFIER                           internal static bit(6)                   initial unaligned dcl 4-56
ITS_MODIFIER                           internal static bit(6)                   initial unaligned dcl 4-55
TRANSLATOR_ID_ALM                      internal static bit(18)                  initial unaligned dcl 2-25
TRANSLATOR_ID_PL1V1                    internal static bit(18)                  initial unaligned dcl 2-26
TRANSLATOR_ID_PL1V2                    internal static bit(18)                  initial unaligned dcl 2-24
TRANSLATOR_ID_SIGNALLER                internal static bit(18)                  initial unaligned dcl 2-28
TRANSLATOR_ID_SIGNAL_CALLER            internal static bit(18)                  initial unaligned dcl 2-27
abx                                    internal static fixed bin(17,0)          initial dcl 1-42
apx                                    internal static fixed bin(17,0)          initial dcl 1-42
bbx                                    internal static fixed bin(17,0)          initial dcl 1-42
bpx                                    internal static fixed bin(17,0)          initial dcl 1-42
call_offset                            internal static fixed bin(17,0)          initial dcl 3-78
callp                                  automatic       pointer                  dcl 20
entry_offset                           internal static fixed bin(17,0)          initial dcl 3-78
fixed                                                  builtin function         dcl 35
itp                                    based           structure                level 1 dcl 4-18
itp_unsigned                           based           structure                level 1 dcl 4-43
its_unsigned                           based           structure                level 1 dcl 4-30
lbx                                    internal static fixed bin(17,0)          initial dcl 1-42
lpx                                    internal static fixed bin(17,0)          initial dcl 1-42
push_offset                            internal static fixed bin(17,0)          initial dcl 3-78
return_no_pop_offset                   internal static fixed bin(17,0)          initial dcl 3-78
return_offset                          internal static fixed bin(17,0)          initial dcl 3-78
sb                                     automatic       pointer                  dcl 3-24
sbx                                    internal static fixed bin(17,0)          initial dcl 1-42
scux                                   based           structure                level 1 dcl 1-207
spx                                    internal static fixed bin(17,0)          initial dcl 1-42
stack_frame_flags                      based           structure                level 1 dcl 2-64
stack_frame_min_length                 internal static fixed bin(17,0)          initial dcl 2-33
stack_header                           based           structure                level 1 dcl 3-26
stack_header_overlay                   based           fixed bin(17,0)          array dcl 3-94
substr                                                 builtin function         dcl 35
tv_offset                              internal static fixed bin(17,0)          initial dcl 3-72

NAMES DECLARED BY EXPLICIT CONTEXT.
stack_frame_exit_               000020 constant        entry                    external dcl 10
use_ret_ptr                     000272 constant        label                    dcl 128 ref 86 100 107 121

THERE WERE NO NAMES DECLARED BY CONTEXT OR IMPLICATION.

STORAGE REQUIREMENTS FOR THIS PROGRAM.

	Object	Text	Link	Symbol	Defs	Static
Start          0       0       504         522     427         514
Length       770     427        16         232      54           0

BLOCK NAME	         STACK SIZE     TYPE		WHY NONQUICK/WHO SHARES STACK FRAME
stack_frame_exit_                   103 external procedure  is an external procedure.

STORAGE FOR AUTOMATIC VARIABLES.

STACK FRAME                 LOC IDENTIFIER                  BLOCK NAME
stack_frame_exit_        000100 p                           stack_frame_exit_
                         000102 code                        stack_frame_exit_
                         000103 frame_flag                  stack_frame_exit_
                         000104 nsp                         stack_frame_exit_
                         000106 i                           stack_frame_exit_
                         000110 begin_block_entries         stack_frame_exit_
                         000112 mcp                         stack_frame_exit_
                         000114 scup                        stack_frame_exit_
                         000116 sp                          stack_frame_exit_

THE FOLLOWING EXTERNAL OPERATORS ARE USED BY THIS PROGRAM.
call_ext_out        return_mac          ext_entry

THE FOLLOWING EXTERNAL ENTRIES ARE CALLED BY THIS PROGRAM.
compare_offsets_              interpret_op_ptr_             legal_f_

NO EXTERNAL VARIABLES ARE USED BY THIS PROGRAM.


   LINE    LOC      LINE    LOC      LINE    LOC      LINE    LOC      LINE    LOC      LINE    LOC      LINE    LOC
     10 000012        31 000025        62 000036        63 000041        64 000045        68 000047        69 000057
     70 000061        71 000065        74 000066        79 000072        83 000105        84 000122        85 000125
     86 000130        87 000134        91 000137        93 000142        96 000153        98 000172        99 000177
    100 000202       101 000205       102 000207       107 000210       109 000213       111 000217       113 000227
    115 000254       116 000257       117 000263       118 000265       121 000266       124 000267       125 000271
    128 000272       137 000277       139 000315       141 000323       142 000327       143 000331       144 000334
    146 000335       148 000337       150 000361       151 000366       152 000373       153 000402       154 000404
    156 000405       157 000413       160 000421       162 000422       165 000425


                                          -----------------------------------------------------------


Historical Background

This edition of the Multics software materials and documentation is provided and donated
to Massachusetts Institute of Technology by Group BULL including BULL HN Information Systems Inc.
as a contribution to computer science knowledge.
This donation is made also to give evidence of the common contributions of Massachusetts Institute of Technology,
Bell Laboratories, General Electric, Honeywell Information Systems Inc., Honeywell BULL Inc., Groupe BULL
and BULL HN Information Systems Inc. to the development of this operating system.
Multics development was initiated by Massachusetts Institute of Technology Project MAC (1963-1970),
renamed the MIT Laboratory for Computer Science and Artificial Intelligence in the mid 1970s, under the leadership
of Professor Fernando Jose Corbato. Users consider that Multics provided the best software architecture
for managing computer hardware properly and for executing programs. Many subsequent operating systems
incorporated Multics principles.
Multics was distributed in 1975 to 2000 by Group Bull in Europe , and in the U.S. by Bull HN Information Systems Inc.,
as successor in interest by change in name only to Honeywell Bull Inc. and Honeywell Information Systems Inc. .

                                          -----------------------------------------------------------

Permission to use, copy, modify, and distribute these programs and their documentation for any purpose and without
fee is hereby granted,provided that the below copyright notice and historical background appear in all copies
and that both the copyright notice and historical background and this permission notice appear in supporting
documentation, and that the names of MIT, HIS, BULL or BULL HN not be used in advertising or publicity pertaining
to distribution of the programs without specific prior written permission.
    Copyright 1972 by Massachusetts Institute of Technology and Honeywell Information Systems Inc.
    Copyright 2006 by BULL HN Information Systems Inc.
    Copyright 2006 by Bull SAS
    All Rights Reserved
