ASSEMBLY LISTING OF SEGMENT >spec>install>1170>sthedr_.alm
ASSEMBLED ON:	10/17/88  0940.9 mst Mon
OPTIONS USED:	-target l68                              list symbols
ASSEMBLED BY:	ALM Version 7.4 April 1987
ASSEMBLER CREATED:	11/02/87  1303.7 mst Mon

                                     1  " ***********************************************************
                                     2  " *                                                         *
                                     3  " * Copyright, (C) Honeywell Bull Inc., 1988                *
                                     4  " *                                                         *
                                     5  " * Copyright, (C) Honeywell Information Systems Inc., 1982 *
                                     6  " *                                                         *
                                     7  " * Copyright (c) 1972 by Massachusetts Institute of        *
                                     8  " * Technology and Honeywell Information Systems, Inc.      *
                                     9  " *                                                         *
                                    10  " ***********************************************************
                                    11
                                    12  "	This is the symbol table header skeleton for alm.
                                    13  "	The version number should be updated every
                                    14  "	time that any part of alm is changed.
                                    15  " Modified 740905 by PG and ARD for installation of Version 4.5 (Version 2 PL/I).
                                    16
    000000                          17  	name	sthedr_
                                    18  	use	impure
                                    19  	join	/link/impure
                                    20
                        240000      21  	bool	char_dope,240000
                        000047      22  	segdef	hdrlen
                        000010      23  	segdef	sthedr_		impure data
                        000016      24  	segdef	alm_creation_date,time_of_translation
                        000037      25  	segdef	text_and_link_lengths,seg_name
                                    26
    000010                          27  sthedr_:
    000010  aa   000000 001001      28  sthead:	zero	0,36*(tra_name-sthead)+9 dope for translator name
    000011  aa   240000 000033      29  	zero	char_dope,9*tra_name_length (includes 9 bits for char count)
                                    30
    000012  aa   000000 001045      31  	zero	0,36*(ver_name-sthead)+9 dope for vers. name
    000013  aa   240000 000427      32  	zero	char_dope,9*ver_name_length
                                    33
    000014                          34  alm_creation_date:
    000014  aa   000000 000000      35  	dec	0,0		This is the clock at the creation of alm itself
    000015  aa   000000 000000
    000016                          36  time_of_translation:
    000016  aa   000000 000000      37  	dec	0,0		This is the clock at assembly time.
    000017  aa   000000 000000
                                    38
    000020  aa   000000 000000      39  	zero	0,0		root pointer, 0
    000021  aa   000000 000002      40  	zero	0,2		map pointer, 2*n files
    000022  aa   000000 000000      41  	zero	0,0		next header, binder indicator
    000023                          42  text_and_link_lengths:
    000023  aa   000000 000000      43  	zero	0,0		text length, linkage length
                                    44
    000024  aa   000000 001474      45  	zero	0,36*(seg_name-sthead) dope for segment name
    000025  aa   240000 000440      46  	zero	char_dope,9*32	Always allow for maximum length name
                                    47
    000026  aa  003 141 154 155     48  tra_name:	acc	"alm";	equ	tra_name_length,3
                        000003
                                    49
    000027  aa  037 101 114 115     50  ver_name:	acc	"ALM Version 4.5, September 1974";	equ	ver_name_length,31
    000030  aa  040 126 145 162
    000031  aa  163 151 157 156
    000032  aa  040 064 056 065
    000033  aa  054 040 123 145
    000034  aa  160 164 145 155
    000035  aa  142 145 162 040
    000036  aa  061 071 067 064
                        000037
                                    51
    000037                          52  seg_name:	bss	,8		For segment name from "name" pseudo-op or command arg.
                                    53
    000047  aa   000000 000037      54  hdrlen:	zero	0,*-sthead
                                    55
                                    56  	end

NO LITERALS

NAME DEFINITIONS FOR ENTRY POINTS AND SEGDEFS

    000000  5a   000003 000000
    000001  5a   000070 600000
    000002  aa   000000 000000
    000003  55   000010 000002
    000004  5a   000002 400003
    000005  55   000006 000010
    000006  aa  007 163 164 150
    000007  aa  145 144 162 137
    000010  55   000016 000003
    000011  2a   000037 400001
    000012  55   000013 000003
    000013  aa  010 163 145 147         seg_name
    000014  aa  137 156 141 155
    000015  aa  145 000 000 000
    000016  55   000027 000010
    000017  2a   000023 400001
    000020  55   000021 000003
    000021  aa  025 164 145 170         text_and_link_lengths
    000022  aa  164 137 141 156
    000023  aa  144 137 154 151
    000024  aa  156 153 137 154
    000025  aa  145 156 147 164
    000026  aa  150 163 000 000
    000027  55   000037 000016
    000030  2a   000016 400001
    000031  55   000032 000003
    000032  aa  023 164 151 155         time_of_translation
    000033  aa  145 137 157 146
    000034  aa  137 164 162 141
    000035  aa  156 163 154 141
    000036  aa  164 151 157 156
    000037  55   000047 000027
    000040  2a   000014 400001
    000041  55   000042 000003
    000042  aa  021 141 154 155         alm_creation_date
    000043  aa  137 143 162 145
    000044  aa  141 164 151 157
    000045  aa  156 137 144 141
    000046  aa  164 145 000 000
    000047  55   000054 000037
    000050  2a   000010 400001
    000051  55   000052 000003
    000052  aa  007 163 164 150         sthedr_
    000053  aa  145 144 162 137
    000054  55   000061 000047
    000055  2a   000047 400001
    000056  55   000057 000003
    000057  aa  006 150 144 162         hdrlen
    000060  aa  154 145 156 000
    000061  55   000002 000054
    000062  6a   000000 400002
    000063  55   000064 000003
    000064  aa  014 163 171 155         symbol_table
    000065  aa  142 157 154 137
    000066  aa  164 141 142 154
    000067  aa  145 000 000 000

DEFINITIONS HASH TABLE

    000070  aa   000000 000015
    000071  5a   000054 000000
    000072  5a   000016 000000
    000073  5a   000047 000000
    000074  aa   000000 000000
    000075  aa   000000 000000
    000076  aa   000000 000000
    000077  5a   000061 000000
    000100  5a   000027 000000
    000101  aa   000000 000000
    000102  aa   000000 000000
    000103  aa   000000 000000
    000104  5a   000010 000000
    000105  5a   000037 000000

NO EXTERNAL NAMES

NO TRAP POINTER WORDS

TYPE PAIR BLOCKS

    000106  aa   000001 000000
    000107  aa   000000 000000

INTERNAL EXPRESSION WORDS

LINKAGE INFORMATION

    000000  aa   000000 000000
    000001  0a   000000 000000
    000002  aa   000000 000000
    000003  aa   000000 000000
    000004  aa   000000 000000
    000005  aa   000000 000000
    000006  22   000050 000050
    000007  a2   000000 000040
SYMBOL INFORMATION

SYMBOL TABLE HEADER

    000000  aa   000000 000001
    000001  aa   163171 155142
    000002  aa   164162 145145
    000003  aa   000000 000007
    000004  aa   000000 115705
    000005  aa   073761 335527
    000006  aa   000000 116574
    000007  aa   772703 631263
    000010  aa   141154 155040
    000011  aa   040040 040040
    000012  aa   000024 000040
    000013  aa   000034 000040
    000014  aa   000044 000100
    000015  aa   000002 000002
    000016  aa   000064 000000
    000017  aa   000000 000133
    000020  aa   000000 000102
    000021  aa   000111 000104
    000022  aa   000125 000102
    000023  aa   000064 000000
    000024  aa   101114 115040
    000025  aa   126145 162163
    000026  aa   151157 156040
    000027  aa   067056 064040
    000030  aa   101160 162151
    000031  aa   154040 061071
    000032  aa   070067 040040
    000033  aa   040040 040040
    000034  aa   110151 162156
    000035  aa   145151 163145
    000036  aa   156056 123171
    000037  aa   163115 141151
    000040  aa   156164 056141
    000041  aa   040040 040040
    000042  aa   040040 040040
    000043  aa   040040 040040
    000044  aa   055164 141162
    000045  aa   147145 164040
    000046  aa   154066 070040
    000047  aa   040040 040040
    000050  aa   040040 040040
    000051  aa   040040 040040
    000052  aa   040040 040040
    000053  aa   040040 040040
    000054  aa   040040 040040
    000055  aa   040040 040040
    000056  aa   040154 151163
    000057  aa   164040 163171
    000060  aa   155142 157154
    000061  aa   163040 040040
    000062  aa   040040 040040
    000063  aa   040040 040040
    000064  aa   000000 000001
    000065  aa   000000 000001
    000066  aa   000072 000036
    000067  aa   165715 122752
    000070  aa   000000 116574
    000071  aa   771470 600000
    000072  aa   076163 160145          >spec>install>1170>sthedr_.alm
    000073  aa   143076 151156
    000074  aa   163164 141154
    000075  aa   154076 061061
    000076  aa   067060 076163
    000077  aa   164150 145144
    000100  aa   162137 056141
    000101  aa   154155 040040
               MULTICS ASSEMBLY CROSS REFERENCE LISTING

   Value        Symbol                   Source file   Line number

          14    alm_creation_date        sthedr_:       24,   34.
      240000    char_dope                sthedr_:       21,   29,   32,   46.
          47    hdrlen                   sthedr_:       22,   54.
          10    impure                   sthedr_:       18,   19.
          37    seg_name                 sthedr_:       25,   45,   52.
          10    sthead                   sthedr_:       28,   31,   45,   54.
          10    sthedr_                  sthedr_:       23,   27.
          23    text_and_link_lengths    sthedr_:       25,   42.
          16    time_of_translation      sthedr_:       24,   36.
          26    tra_name                 sthedr_:       28,   48.
           3    tra_name_length          sthedr_:       29,   48.
          27    ver_name                 sthedr_:       31,   50.
          37    ver_name_length          sthedr_:       32,   50.


NO FATAL ERRORS


                                          -----------------------------------------------------------


Historical Background

This edition of the Multics software materials and documentation is provided and donated
to Massachusetts Institute of Technology by Group BULL including BULL HN Information Systems Inc.
as a contribution to computer science knowledge.
This donation is made also to give evidence of the common contributions of Massachusetts Institute of Technology,
Bell Laboratories, General Electric, Honeywell Information Systems Inc., Honeywell BULL Inc., Groupe BULL
and BULL HN Information Systems Inc. to the development of this operating system.
Multics development was initiated by Massachusetts Institute of Technology Project MAC (1963-1970),
renamed the MIT Laboratory for Computer Science and Artificial Intelligence in the mid 1970s, under the leadership
of Professor Fernando Jose Corbato. Users consider that Multics provided the best software architecture
for managing computer hardware properly and for executing programs. Many subsequent operating systems
incorporated Multics principles.
Multics was distributed in 1975 to 2000 by Group Bull in Europe , and in the U.S. by Bull HN Information Systems Inc.,
as successor in interest by change in name only to Honeywell Bull Inc. and Honeywell Information Systems Inc. .

                                          -----------------------------------------------------------

Permission to use, copy, modify, and distribute these programs and their documentation for any purpose and without
fee is hereby granted,provided that the below copyright notice and historical background appear in all copies
and that both the copyright notice and historical background and this permission notice appear in supporting
documentation, and that the names of MIT, HIS, BULL or BULL HN not be used in advertising or publicity pertaining
to distribution of the programs without specific prior written permission.
    Copyright 1972 by Massachusetts Institute of Technology and Honeywell Information Systems Inc.
    Copyright 2006 by BULL HN Information Systems Inc.
    Copyright 2006 by Bull SAS
    All Rights Reserved
