ASSEMBLY LISTING OF SEGMENT >udd>sm>ds>w>ml>stu_.alm
ASSEMBLED ON:	06/29/00  1713.4 mdt Thu
OPTIONS USED:	list symbols
ASSEMBLED BY:	ALM Version 8.14 March 1989
ASSEMBLER CREATED:	06/09/89  1102.3 mdt Fri

                                     1  " ***********************************************************
                                     2  " *                                                         *
                                     3  " * Copyright, (C) Honeywell Information Systems Inc., 1982 *
                                     4  " *                                                         *
                                     5  " ***********************************************************
                                     6  "
                                     7  " Transfer vector for stu_ entrypoints
                                     8  "
                                     9  " 23 Jun 83, W. Olin Sibert
                                    10  "
                                    11  	macro	xfer
                              1     12  	segdef	&1
                              2     13  	ife	&2,()
                              3     14  &1:	  getlp
                              4     15  	  tra	&1$&1
                              5     16  	ifend
                              6     17  	ine	&2,()
                              7     18  &1:	  getlp
                              8     19  	  tra	&2
                              9     20  	ifend
                             10     21  &end
                                    22
                                    23
                                    24  	xfer	block_dcld_in
                        000000          	segdef	block_dcld_in
    000000  aa  7 00046 2721 20         block_dcld_in:	  getlp
    000001  4a  4 00010 7101 20         	  tra	block_dcld_in$block_dcld_in
                                    25  	xfer	decode_runtime_value
                        000002          	segdef	decode_runtime_value
    000002  aa  7 00046 2721 20         decode_runtime_value:	  getlp
    000003  4a  4 00012 7101 20         	  tra	decode_runtime_value$decode_runtime_value
                                    26            xfer      decode_runtime_value_extended,decode_runtime_value$decode_runtime_value_extended
                        000004          	segdef	decode_runtime_value_extended
    000004  aa  7 00046 2721 20         decode_runtime_value_extended:	  getlp
    000005  4a  4 00014 7101 20         	  tra	decode_runtime_value$decode_runtime_value_extended
                                    27  	xfer	find_block
                        000006          	segdef	find_block
    000006  aa  7 00046 2721 20         find_block:	  getlp
    000007  4a  4 00016 7101 20         	  tra	find_block$find_block
                                    28  	xfer	find_containing_block
                        000010          	segdef	find_containing_block
    000010  aa  7 00046 2721 20         find_containing_block:	  getlp
    000011  4a  4 00020 7101 20         	  tra	find_containing_block$find_containing_block
                                    29  	xfer	find_header
                        000012          	segdef	find_header
    000012  aa  7 00046 2721 20         find_header:	  getlp
    000013  4a  4 00022 7101 20         	  tra	find_header$find_header
                                    30  	xfer	find_runtime_symbol
                        000014          	segdef	find_runtime_symbol
    000014  aa  7 00046 2721 20         find_runtime_symbol:	  getlp
    000015  4a  4 00024 7101 20         	  tra	find_runtime_symbol$find_runtime_symbol
                                    31  	xfer	get_block
                        000016          	segdef	get_block
    000016  aa  7 00046 2721 20         get_block:	  getlp
    000017  4a  4 00026 7101 20         	  tra	get_block$get_block
                                    32  	xfer	get_display_steps
                        000020          	segdef	get_display_steps
    000020  aa  7 00046 2721 20         get_display_steps:	  getlp
    000021  4a  4 00030 7101 20         	  tra	get_display_steps$get_display_steps
                                    33  	xfer	get_implicit_qualifier
                        000022          	segdef	get_implicit_qualifier
    000022  aa  7 00046 2721 20         get_implicit_qualifier:	  getlp
    000023  4a  4 00032 7101 20         	  tra	get_implicit_qualifier$get_implicit_qualifier
                                    34  	xfer	get_line,get_runtime_line_no$get_line
                        000024          	segdef	get_line
    000024  aa  7 00046 2721 20         get_line:	  getlp
    000025  4a  4 00034 7101 20         	  tra	get_runtime_line_no$get_line
                                    35  	xfer	get_line_no
                        000026          	segdef	get_line_no
    000026  aa  7 00046 2721 20         get_line_no:	  getlp
    000027  4a  4 00036 7101 20         	  tra	get_line_no$get_line_no
                                    36  	xfer	get_location
                        000030          	segdef	get_location
    000030  aa  7 00046 2721 20         get_location:	  getlp
    000031  4a  4 00040 7101 20         	  tra	get_location$get_location
                                    37  	xfer	get_map_index
                        000032          	segdef	get_map_index
    000032  aa  7 00046 2721 20         get_map_index:	  getlp
    000033  4a  4 00042 7101 20         	  tra	get_map_index$get_map_index
                                    38  	xfer	get_runtime_address
                        000034          	segdef	get_runtime_address
    000034  aa  7 00046 2721 20         get_runtime_address:	  getlp
    000035  4a  4 00044 7101 20         	  tra	get_runtime_address$get_runtime_address
                                    39  	xfer	get_runtime_block,get_block$get_runtime_block
                        000036          	segdef	get_runtime_block
    000036  aa  7 00046 2721 20         get_runtime_block:	  getlp
    000037  4a  4 00046 7101 20         	  tra	get_block$get_runtime_block
                                    40  	xfer	get_runtime_line_no
                        000040          	segdef	get_runtime_line_no
    000040  aa  7 00046 2721 20         get_runtime_line_no:	  getlp
    000041  4a  4 00050 7101 20         	  tra	get_runtime_line_no$get_runtime_line_no
                                    41  	xfer	get_runtime_location
                        000042          	segdef	get_runtime_location
    000042  aa  7 00046 2721 20         get_runtime_location:	  getlp
    000043  4a  4 00052 7101 20         	  tra	get_runtime_location$get_runtime_location
                                    42  	xfer	get_statement_map
                        000044          	segdef	get_statement_map
    000044  aa  7 00046 2721 20         get_statement_map:	  getlp
    000045  4a  4 00054 7101 20         	  tra	get_statement_map$get_statement_map
                                    43  	xfer	offset_to_pointer
                        000046          	segdef	offset_to_pointer
    000046  aa  7 00046 2721 20         offset_to_pointer:	  getlp
    000047  4a  4 00056 7101 20         	  tra	offset_to_pointer$offset_to_pointer
                                    44  	xfer	pointer_to_offset
                        000050          	segdef	pointer_to_offset
    000050  aa  7 00046 2721 20         pointer_to_offset:	  getlp
    000051  4a  4 00060 7101 20         	  tra	pointer_to_offset$pointer_to_offset
                                    45  	xfer	remote_format
                        000052          	segdef	remote_format
    000052  aa  7 00046 2721 20         remote_format:	  getlp
    000053  4a  4 00062 7101 20         	  tra	remote_format$remote_format
                                    46  	end

NO LITERALS

NAME DEFINITIONS FOR ENTRY POINTS AND SEGDEFS

    000054  5a   000003 000000
    000055  5a   000270 600000
    000056  aa   000000 000000
    000057  55   000010 000002
    000060  5a   000002 400003
    000061  55   000006 000010
    000062  aa  004 163 164 165
    000063  aa  137 000 000 000
    000064  55   000017 000003
    000065  0a   000052 400000
    000066  55   000013 000003
    000067  aa  015 162 145 155         remote_format
    000070  aa  157 164 145 137
    000071  aa  146 157 162 155
    000072  aa  141 164 000 000
    000073  55   000027 000010
    000074  0a   000050 400000
    000075  55   000022 000003
    000076  aa  021 160 157 151         pointer_to_offset
    000077  aa  156 164 145 162
    000100  aa  137 164 157 137
    000101  aa  157 146 146 163
    000102  aa  145 164 000 000
    000103  55   000037 000017
    000104  0a   000046 400000
    000105  55   000032 000003
    000106  aa  021 157 146 146         offset_to_pointer
    000107  aa  163 145 164 137
    000110  aa  164 157 137 160
    000111  aa  157 151 156 164
    000112  aa  145 162 000 000
    000113  55   000047 000027
    000114  0a   000044 400000
    000115  55   000042 000003
    000116  aa  021 147 145 164         get_statement_map
    000117  aa  137 163 164 141
    000120  aa  164 145 155 145
    000121  aa  156 164 137 155
    000122  aa  141 160 000 000
    000123  55   000060 000037
    000124  0a   000042 400000
    000125  55   000052 000003
    000126  aa  024 147 145 164         get_runtime_location
    000127  aa  137 162 165 156
    000130  aa  164 151 155 145
    000131  aa  137 154 157 143
    000132  aa  141 164 151 157
    000133  aa  156 000 000 000
    000134  55   000070 000047
    000135  0a   000040 400000
    000136  55   000063 000003
    000137  aa  023 147 145 164         get_runtime_line_no
    000140  aa  137 162 165 156
    000141  aa  164 151 155 145
    000142  aa  137 154 151 156
    000143  aa  145 137 156 157
    000144  55   000100 000060
    000145  0a   000036 400000
    000146  55   000073 000003
    000147  aa  021 147 145 164         get_runtime_block
    000150  aa  137 162 165 156
    000151  aa  164 151 155 145
    000152  aa  137 142 154 157
    000153  aa  143 153 000 000
    000154  55   000110 000070
    000155  0a   000034 400000
    000156  55   000103 000003
    000157  aa  023 147 145 164         get_runtime_address
    000160  aa  137 162 165 156
    000161  aa  164 151 155 145
    000162  aa  137 141 144 144
    000163  aa  162 145 163 163
    000164  55   000117 000100
    000165  0a   000032 400000
    000166  55   000113 000003
    000167  aa  015 147 145 164         get_map_index
    000170  aa  137 155 141 160
    000171  aa  137 151 156 144
    000172  aa  145 170 000 000
    000173  55   000126 000110
    000174  0a   000030 400000
    000175  55   000122 000003
    000176  aa  014 147 145 164         get_location
    000177  aa  137 154 157 143
    000200  aa  141 164 151 157
    000201  aa  156 000 000 000
    000202  55   000134 000117
    000203  0a   000026 400000
    000204  55   000131 000003
    000205  aa  013 147 145 164         get_line_no
    000206  aa  137 154 151 156
    000207  aa  145 137 156 157
    000210  55   000142 000126
    000211  0a   000024 400000
    000212  55   000137 000003
    000213  aa  010 147 145 164         get_line
    000214  aa  137 154 151 156
    000215  aa  145 000 000 000
    000216  55   000153 000134
    000217  0a   000022 400000
    000220  55   000145 000003
    000221  aa  026 147 145 164         get_implicit_qualifier
    000222  aa  137 151 155 160
    000223  aa  154 151 143 151
    000224  aa  164 137 161 165
    000225  aa  141 154 151 146
    000226  aa  151 145 162 000
    000227  55   000163 000142
    000230  0a   000020 400000
    000231  55   000156 000003
    000232  aa  021 147 145 164         get_display_steps
    000233  aa  137 144 151 163
    000234  aa  160 154 141 171
    000235  aa  137 163 164 145
    000236  aa  160 163 000 000
    000237  55   000171 000153
    000240  0a   000016 400000
    000241  55   000166 000003
    000242  aa  011 147 145 164         get_block
    000243  aa  137 142 154 157
    000244  aa  143 153 000 000
    000245  55   000201 000163
    000246  0a   000014 400000
    000247  55   000174 000003
    000250  aa  023 146 151 156         find_runtime_symbol
    000251  aa  144 137 162 165
    000252  aa  156 164 151 155
    000253  aa  145 137 163 171
    000254  aa  155 142 157 154
    000255  55   000207 000171
    000256  0a   000012 400000
    000257  55   000204 000003
    000260  aa  013 146 151 156         find_header
    000261  aa  144 137 150 145
    000262  aa  141 144 145 162
    000263  55   000220 000201
    000264  0a   000010 400000
    000265  55   000212 000003
    000266  aa  025 146 151 156         find_containing_block
    000267  aa  144 137 143 157
    000270  aa  156 164 141 151
    000271  aa  156 151 156 147
    000272  aa  137 142 154 157
    000273  aa  143 153 000 000
    000274  55   000226 000207
    000275  0a   000006 400000
    000276  55   000223 000003
    000277  aa  012 146 151 156         find_block
    000300  aa  144 137 142 154
    000301  aa  157 143 153 000
    000302  55   000241 000220
    000303  0a   000004 400000
    000304  55   000231 000003
    000305  aa  035 144 145 143         decode_runtime_value_extended
    000306  aa  157 144 145 137
    000307  aa  162 165 156 164
    000310  aa  151 155 145 137
    000311  aa  166 141 154 165
    000312  aa  145 137 145 170
    000313  aa  164 145 156 144
    000314  aa  145 144 000 000
    000315  55   000252 000226
    000316  0a   000002 400000
    000317  55   000244 000003
    000320  aa  024 144 145 143         decode_runtime_value
    000321  aa  157 144 145 137
    000322  aa  162 165 156 164
    000323  aa  151 155 145 137
    000324  aa  166 141 154 165
    000325  aa  145 000 000 000
    000326  55   000261 000241
    000327  0a   000000 400000
    000330  55   000255 000003
    000331  aa  015 142 154 157         block_dcld_in
    000332  aa  143 153 137 144
    000333  aa  143 154 144 137
    000334  aa  151 156 000 000
    000335  55   000002 000252
    000336  6a   000000 400002
    000337  55   000264 000003
    000340  aa  014 163 171 155         symbol_table
    000341  aa  142 157 154 137
    000342  aa  164 141 142 154
    000343  aa  145 000 000 000

DEFINITIONS HASH TABLE

    000344  aa   000000 000033
    000345  5a   000226 000000
    000346  5a   000010 000000
    000347  5a   000134 000000
    000350  5a   000163 000000
    000351  5a   000241 000000
    000352  5a   000207 000000
    000353  aa   000000 000000
    000354  5a   000171 000000
    000355  5a   000017 000000
    000356  5a   000252 000000
    000357  5a   000261 000000
    000360  aa   000000 000000
    000361  aa   000000 000000
    000362  5a   000027 000000
    000363  aa   000000 000000
    000364  5a   000142 000000
    000365  5a   000201 000000
    000366  5a   000047 000000
    000367  5a   000060 000000
    000370  5a   000100 000000
    000371  5a   000037 000000
    000372  5a   000070 000000
    000373  5a   000153 000000
    000374  5a   000220 000000
    000375  5a   000110 000000
    000376  5a   000117 000000
    000377  5a   000126 000000

NO EXTERNAL NAMES

NO TRAP POINTER WORDS

TYPE PAIR BLOCKS

    000400  aa   000004 000000
    000401  55   000013 000013
    000402  aa   000004 000000
    000403  55   000022 000022
    000404  aa   000004 000000
    000405  55   000032 000032
    000406  aa   000004 000000
    000407  55   000042 000042
    000410  aa   000004 000000
    000411  55   000052 000052
    000412  aa   000004 000000
    000413  55   000063 000063
    000414  aa   000004 000000
    000415  55   000166 000073
    000416  aa   000004 000000
    000417  55   000103 000103
    000420  aa   000004 000000
    000421  55   000113 000113
    000422  aa   000004 000000
    000423  55   000122 000122
    000424  aa   000004 000000
    000425  55   000131 000131
    000426  aa   000004 000000
    000427  55   000063 000137
    000430  aa   000004 000000
    000431  55   000145 000145
    000432  aa   000004 000000
    000433  55   000156 000156
    000434  aa   000004 000000
    000435  55   000166 000166
    000436  aa   000004 000000
    000437  55   000174 000174
    000440  aa   000004 000000
    000441  55   000204 000204
    000442  aa   000004 000000
    000443  55   000212 000212
    000444  aa   000004 000000
    000445  55   000223 000223
    000446  aa   000004 000000
    000447  55   000244 000231
    000450  aa   000004 000000
    000451  55   000244 000244
    000452  aa   000004 000000
    000453  55   000255 000255
    000454  aa   000001 000000
    000455  aa   000000 000000

INTERNAL EXPRESSION WORDS

    000456  5a   000324 000000
    000457  5a   000326 000000
    000460  5a   000330 000000
    000461  5a   000332 000000
    000462  5a   000334 000000
    000463  5a   000336 000000
    000464  5a   000340 000000
    000465  5a   000342 000000
    000466  5a   000344 000000
    000467  5a   000346 000000
    000470  5a   000350 000000
    000471  5a   000352 000000
    000472  5a   000354 000000
    000473  5a   000356 000000
    000474  5a   000360 000000
    000475  5a   000362 000000
    000476  5a   000364 000000
    000477  5a   000366 000000
    000500  5a   000370 000000
    000501  5a   000372 000000
    000502  5a   000374 000000
    000503  5a   000376 000000
LINKAGE INFORMATION

    000000  aa   000000 000000
    000001  0a   000054 000000
    000002  aa   000000 000000
    000003  aa   000000 000000
    000004  aa   000000 000000
    000005  aa   000000 000000
    000006  22   000010 000064
    000007  a2   000000 000000
    000010  9a   777770 0000 46         block_dcld_in|block_dcld_in
    000011  5a   000427 0000 00
    000012  9a   777766 0000 46         decode_runtime_value|decode_runtime_value
    000013  5a   000426 0000 00
    000014  9a   777764 0000 46         decode_runtime_value|decode_runtime_value_extended
    000015  5a   000425 0000 00
    000016  9a   777762 0000 46         find_block|find_block
    000017  5a   000424 0000 00
    000020  9a   777760 0000 46         find_containing_block|find_containing_block
    000021  5a   000423 0000 00
    000022  9a   777756 0000 46         find_header|find_header
    000023  5a   000422 0000 00
    000024  9a   777754 0000 46         find_runtime_symbol|find_runtime_symbol
    000025  5a   000421 0000 00
    000026  9a   777752 0000 46         get_block|get_block
    000027  5a   000420 0000 00
    000030  9a   777750 0000 46         get_display_steps|get_display_steps
    000031  5a   000417 0000 00
    000032  9a   777746 0000 46         get_implicit_qualifier|get_implicit_qualifier
    000033  5a   000416 0000 00
    000034  9a   777744 0000 46         get_runtime_line_no|get_line
    000035  5a   000415 0000 00
    000036  9a   777742 0000 46         get_line_no|get_line_no
    000037  5a   000414 0000 00
    000040  9a   777740 0000 46         get_location|get_location
    000041  5a   000413 0000 00
    000042  9a   777736 0000 46         get_map_index|get_map_index
    000043  5a   000412 0000 00
    000044  9a   777734 0000 46         get_runtime_address|get_runtime_address
    000045  5a   000411 0000 00
    000046  9a   777732 0000 46         get_block|get_runtime_block
    000047  5a   000410 0000 00
    000050  9a   777730 0000 46         get_runtime_line_no|get_runtime_line_no
    000051  5a   000407 0000 00
    000052  9a   777726 0000 46         get_runtime_location|get_runtime_location
    000053  5a   000406 0000 00
    000054  9a   777724 0000 46         get_statement_map|get_statement_map
    000055  5a   000405 0000 00
    000056  9a   777722 0000 46         offset_to_pointer|offset_to_pointer
    000057  5a   000404 0000 00
    000060  9a   777720 0000 46         pointer_to_offset|pointer_to_offset
    000061  5a   000403 0000 00
    000062  9a   777716 0000 46         remote_format|remote_format
    000063  5a   000402 0000 00
SYMBOL INFORMATION

SYMBOL TABLE HEADER

    000000  aa   000000 000001
    000001  aa   163171 155142
    000002  aa   164162 145145
    000003  aa   000000 000010
    000004  aa   000000 117244
    000005  aa   361023 525721
    000006  aa   000000 131171
    000007  aa   555260 352460
    000010  aa   141154 155040
    000011  aa   040040 040040
    000012  aa   000024 000040
    000013  aa   000034 000040
    000014  aa   000044 000100
    000015  aa   000002 000002
    000016  aa   000064 000000
    000017  aa   000000 000201
    000020  aa   000000 000100
    000021  aa   000122 000107
    000022  aa   000173 000100
    000023  aa   000064 000000
    000024  aa   101114 115040
    000025  aa   126145 162163
    000026  aa   151157 156040
    000027  aa   070056 061064
    000030  aa   040115 141162
    000031  aa   143150 040061
    000032  aa   071070 071040
    000033  aa   040040 040040
    000034  aa   123143 150162
    000035  aa   157164 150056
    000036  aa   123171 163115
    000037  aa   141151 156164
    000040  aa   056155 040040
    000041  aa   040040 040040
    000042  aa   040040 040040
    000043  aa   040040 040040
    000044  aa   154151 163164
    000045  aa   040163 171155
    000046  aa   142157 154163
    000047  aa   040040 040040
    000050  aa   040040 040040
    000051  aa   040040 040040
    000052  aa   040040 040040
    000053  aa   040040 040040
    000054  aa   040040 040040
    000055  aa   040040 040040
    000056  aa   040040 040040
    000057  aa   040040 040040
    000060  aa   040040 040040
    000061  aa   040040 040040
    000062  aa   040040 040040
    000063  aa   040040 040040
    000064  aa   000000 000001
    000065  aa   000000 000001
    000066  aa   000072 000030
    000067  aa   311454 031555
    000070  aa   000000 131171
    000071  aa   555261 200000
    000072  aa   076165 144144          >udd>sm>ds>w>ml>stu_.alm
    000073  aa   076163 155076
    000074  aa   144163 076167
    000075  aa   076155 154076
    000076  aa   163164 165137
    000077  aa   056141 154155
               MULTICS ASSEMBLY CROSS REFERENCE LISTING

   Value        Symbol                   Source file   Line number

           0    block_dcld_in            stu_:          24.
           2    decode_runtime_value     stu_:          25,   26.
           4    decode_runtime_value_extended  stu_:          26.
           6    find_block               stu_:          27.
          10    find_containing_block    stu_:          28.
          12    find_header              stu_:          29.
          14    find_runtime_symbol      stu_:          30.
          16    get_block                stu_:          31,   39.
          20    get_display_steps        stu_:          32.
          22    get_implicit_qualifier   stu_:          33.
          24    get_line                 stu_:          34.
          26    get_line_no              stu_:          35.
          30    get_location             stu_:          36.
          32    get_map_index            stu_:          37.
          34    get_runtime_address      stu_:          38.
          36    get_runtime_block        stu_:          39.
          40    get_runtime_line_no      stu_:          34,   40.
          42    get_runtime_location     stu_:          41.
          44    get_statement_map        stu_:          42.
          46    offset_to_pointer        stu_:          43.
          50    pointer_to_offset        stu_:          44.
          52    remote_format            stu_:          45.


NO FATAL ERRORS


                                          -----------------------------------------------------------


Historical Background

This edition of the Multics software materials and documentation is provided and donated
to Massachusetts Institute of Technology by Group BULL including BULL HN Information Systems Inc.
as a contribution to computer science knowledge.
This donation is made also to give evidence of the common contributions of Massachusetts Institute of Technology,
Bell Laboratories, General Electric, Honeywell Information Systems Inc., Honeywell BULL Inc., Groupe BULL
and BULL HN Information Systems Inc. to the development of this operating system.
Multics development was initiated by Massachusetts Institute of Technology Project MAC (1963-1970),
renamed the MIT Laboratory for Computer Science and Artificial Intelligence in the mid 1970s, under the leadership
of Professor Fernando Jose Corbato. Users consider that Multics provided the best software architecture
for managing computer hardware properly and for executing programs. Many subsequent operating systems
incorporated Multics principles.
Multics was distributed in 1975 to 2000 by Group Bull in Europe , and in the U.S. by Bull HN Information Systems Inc.,
as successor in interest by change in name only to Honeywell Bull Inc. and Honeywell Information Systems Inc. .

                                          -----------------------------------------------------------

Permission to use, copy, modify, and distribute these programs and their documentation for any purpose and without
fee is hereby granted,provided that the below copyright notice and historical background appear in all copies
and that both the copyright notice and historical background and this permission notice appear in supporting
documentation, and that the names of MIT, HIS, BULL or BULL HN not be used in advertising or publicity pertaining
to distribution of the programs without specific prior written permission.
    Copyright 1972 by Massachusetts Institute of Technology and Honeywell Information Systems Inc.
    Copyright 2006 by BULL HN Information Systems Inc.
    Copyright 2006 by Bull SAS
    All Rights Reserved
