	COMPILATION LISTING OF SEGMENT tape_ansi_read_length_
	Compiled by: Multics PL/I Compiler, Release 33e, of October 6, 1992
	Compiled at: CGI
	Compiled on: 2000-04-18_1154.12_Tue_mdt
	    Options: optimize map

        1 /* ***********************************************************
        2*   *                                                         *
        3*   * Copyright, (C) Honeywell Information Systems Inc., 1982 *
        4*   *                                                         *
        5*   * Copyright (c) 1972 by Massachusetts Institute of        *
        6*   * Technology and Honeywell Information Systems, Inc.      *
        7*   *                                                         *
        8*   *********************************************************** */
        9
       10
       11
       12
       13
       14 tape_ansi_read_length_: procedure (iocbP, reclen, code);	/* iox_$read_length entry for tape_ansi_ IO Module */
       15
       16 
  1     1 /* BEGIN INCLUDE FILE ..... iocb.incl.pl1 ..... 13 Feb 1975, M. Asherman */
  1     2 /* Modified 11/29/82 by S. Krupp to add new entries and to change
  1     3*      version number to IOX2. */
  1     4 /* format: style2 */
  1     5
  1     6      dcl	   1 iocb		      aligned based,	/* I/O control block. */
  1     7 	     2 version	      character (4) aligned,	/* IOX2 */
  1     8 	     2 name	      char (32),		/* I/O name of this block. */
  1     9 	     2 actual_iocb_ptr    ptr,		/* IOCB ultimately SYNed to. */
  1    10 	     2 attach_descrip_ptr ptr,		/* Ptr to printable attach description. */
  1    11 	     2 attach_data_ptr    ptr,		/* Ptr to attach data structure. */
  1    12 	     2 open_descrip_ptr   ptr,		/* Ptr to printable open description. */
  1    13 	     2 open_data_ptr      ptr,		/* Ptr to open data structure (old SDB). */
  1    14 	     2 reserved	      bit (72),		/* Reserved for future use. */
  1    15 	     2 detach_iocb	      entry (ptr, fixed (35)),/* detach_iocb(p,s) */
  1    16 	     2 open	      entry (ptr, fixed, bit (1) aligned, fixed (35)),
  1    17 						/* open(p,mode,not_used,s) */
  1    18 	     2 close	      entry (ptr, fixed (35)),/* close(p,s) */
  1    19 	     2 get_line	      entry (ptr, ptr, fixed (21), fixed (21), fixed (35)),
  1    20 						/* get_line(p,bufptr,buflen,actlen,s) */
  1    21 	     2 get_chars	      entry (ptr, ptr, fixed (21), fixed (21), fixed (35)),
  1    22 						/* get_chars(p,bufptr,buflen,actlen,s) */
  1    23 	     2 put_chars	      entry (ptr, ptr, fixed (21), fixed (35)),
  1    24 						/* put_chars(p,bufptr,buflen,s) */
  1    25 	     2 modes	      entry (ptr, char (*), char (*), fixed (35)),
  1    26 						/* modes(p,newmode,oldmode,s) */
  1    27 	     2 position	      entry (ptr, fixed, fixed (21), fixed (35)),
  1    28 						/* position(p,u1,u2,s) */
  1    29 	     2 control	      entry (ptr, char (*), ptr, fixed (35)),
  1    30 						/* control(p,order,infptr,s) */
  1    31 	     2 read_record	      entry (ptr, ptr, fixed (21), fixed (21), fixed (35)),
  1    32 						/* read_record(p,bufptr,buflen,actlen,s) */
  1    33 	     2 write_record	      entry (ptr, ptr, fixed (21), fixed (35)),
  1    34 						/* write_record(p,bufptr,buflen,s) */
  1    35 	     2 rewrite_record     entry (ptr, ptr, fixed (21), fixed (35)),
  1    36 						/* rewrite_record(p,bufptr,buflen,s) */
  1    37 	     2 delete_record      entry (ptr, fixed (35)),/* delete_record(p,s) */
  1    38 	     2 seek_key	      entry (ptr, char (256) varying, fixed (21), fixed (35)),
  1    39 						/* seek_key(p,key,len,s) */
  1    40 	     2 read_key	      entry (ptr, char (256) varying, fixed (21), fixed (35)),
  1    41 						/* read_key(p,key,len,s) */
  1    42 	     2 read_length	      entry (ptr, fixed (21), fixed (35)),
  1    43 						/* read_length(p,len,s) */
  1    44 	     2 open_file	      entry (ptr, fixed bin, char (*), bit (1) aligned, fixed bin (35)),
  1    45 						/* open_file(p,mode,desc,not_used,s) */
  1    46 	     2 close_file	      entry (ptr, char (*), fixed bin (35)),
  1    47 						/* close_file(p,desc,s) */
  1    48 	     2 detach	      entry (ptr, char (*), fixed bin (35));
  1    49 						/* detach(p,desc,s) */
  1    50
  1    51      declare iox_$iocb_version_sentinel
  1    52 			      character (4) aligned external static;
  1    53
  1    54 /* END INCLUDE FILE ..... iocb.incl.pl1 ..... */
       17
       18 
  2     1 /*  BEGIN INCLUDE FILE:  tape_ansi_cseg.incl.pl1            */
  2     2 /*						*/
  2     3 /*  1) Modified: 12/01/75 by Ross E. Klinger  --  to allow  */
  2     4 /*     for allocation of the attach and open descriptions   */
  2     5 /*     within the cseg structure.			*/
  2     6 /*  2) Modified for resource management.			*/
  2     7 /*  3) Modified 9/79 by R.J.C. Kissel to handle the new tseg.	*/
  2     8 /*  4) Modified 4/82 by J.A. Bush for block sizes > 8192 bytes	*/
  2     9
  2    10 /* format: style4,delnl,insnl,indattr,ifthen,dclind9 */
  2    11 dcl      cP		  ptr;			/* pointer on which cseg structure is based */
  2    12 dcl      cseg_tseg_version_2	  fixed bin internal static options (constant) init (2);
  2    13
  2    14 dcl      1 cseg		  based (cP),		/* control structure */
  2    15 	 2 file_set_lock	  bit (1) aligned,		/* "1"b if file set in use */
  2    16 	 2 invalid	  bit (1) aligned,		/* invalid cseg - delete at detach time bit */
  2    17 	 2 standard	  fixed bin,		/* label standard */
  2    18 						/* 1 - ANSI standard */
  2    19 						/* 2 - IBM/OS-VS */
  2    20 						/* 3 - IBM/DOS-VM */
  2    21 	 2 attach_description,			/* iox_ attach description */
  2    22 	   3 length	  fixed bin (17),		/* actual length of string */
  2    23 	   3 string	  char (256),		/* maximum is 256 characters */
  2    24 	 2 open_description,			/* iox_ open description */
  2    25 	   3 length	  fixed bin (17),		/* actual length of string */
  2    26 	   3 string	  char (32),		/* maximum is 32 */
  2    27 	 2 module		  char (12) varying,	/* IO module name */
  2    28 	 2 ndrives	  fixed bin,		/* maximum number of drives to be used */
  2    29 	 2 nactive	  fixed bin,		/* number of drives actually in use */
  2    30 	 2 write_ring	  bit (1) aligned,		/* volumes mounted with write rings */
  2    31 	 2 protect	  bit (1) aligned,		/* volumes have rings, but are hardware protected */
  2    32 	 2 density	  fixed bin,		/* file set recording density */
  2    33 						/* 2 - 800 bpi NRZI */
  2    34 						/* 3 - 1600 bpi PE  */
  2    35 	 2 vcN		  fixed bin,		/* number of links in volume chain */
  2    36 	 2 fcP		  ptr,			/* file chain pointer */
  2    37 	 2 flP		  ptr,			/* pointer to file link of current file */
  2    38 	 2 hdw_status,				/* hardware status structure */
  2    39 	   3 bits		  bit (72) aligned,		/* IOM status */
  2    40 	   3 no_minor	  fixed bin,		/* number of minor status codes */
  2    41 	   3 major	  fixed bin (35),		/* major status */
  2    42 	   3 minor	  (10) fixed bin (35),	/* minor status */
  2    43 	 2 lbl_buf	  char (80),		/* label I/O buffer */
  2    44 	 2 open_mode	  fixed bin,		/* opening mode */
  2    45 						/* 4 - sequential_input */
  2    46 						/* 5 - sequential_output */
  2    47 	 2 close_rewind	  bit (1) aligned,		/* rewind volume at next close */
  2    48 	 2 force		  bit (1) aligned,		/* force file overwrite switch */
  2    49 	 2 user_labels	  bit (1) aligned,		/* process user labels switch */
  2    50 	 2 no_labels	  bit (1) aligned,		/* "1"b if volume has no labels */
  2    51 	 2 output_mode	  fixed bin,		/* 0 - input */
  2    52 						/* 1 - extend */
  2    53 						/* 2 - modify */
  2    54 						/* 3 - write */
  2    55 						/* 4 - create */
  2    56 	 2 replace_id	  char (17),		/* replace file identifier */
  2    57 	 2 retain		  fixed bin,		/* 0 - default to rcp_ defaults */
  2    58 						/* 1 - unassign drives and volumes */
  2    59 						/* 2 - retain drives, unassign volumes */
  2    60 						/* 3 - unassign drives, retain volumes */
  2    61 						/* 4 - retain drives and volumes */
  2    62 	 2 lrec,					/* logical record IO control data */
  2    63 	   3 bufP		  ptr,			/* pointer to current processing buffer */
  2    64 	   3 nc_buf	  fixed bin,		/* number of characters in buffer */
  2    65 	   3 offset	  fixed bin,		/* current processing offset within buffer */
  2    66 	   3 saveP	  ptr,			/* pointer to current D/V format RCW/RDW */
  2    67 	   3 file_lock	  bit (1) aligned,		/* "1"b if file in use */
  2    68 	   3 blkcnt	  fixed bin (35),		/* physical block count */
  2    69 	   3 reccnt	  fixed bin (35),		/* logical record count (not presently used) */
  2    70 	   3 code		  fixed bin (35),		/* lrec_io_ non-restartable error code */
  2    71 	 2 read_length,				/* read_length control data */
  2    72 	   3 rlP		  ptr,			/* pointer to read_length segment */
  2    73 	   3 rlN		  fixed bin (21),		/* number of characters in segment */
  2    74 	 2 user_label_routine (6) variable entry (char (80), bit (1)),
  2    75 						/* 1 - read UHL */
  2    76 						/* 2 - write UHL */
  2    77 						/* 3 - read UTL */
  2    78 						/* 4 - write UTL */
  2    79 						/* 5 - read UVL */
  2    80 						/* 6 - write UVL */
  2    81 						/* THE FOLLOWING IS NEEDED ONLY WHILE TAPEIO_ / TDCM IS THE IO PROCEDURE */
  2    82 	 2 syncP		  ptr,			/* pointer to synchronous IO buffer */
  2    83 	 2 mode		  fixed bin,		/* 0 = binary -- 1 = 9 mode */
  2    84 	 2 soft_status,				/* software status structure */
  2    85 	   3 nbuf		  fixed bin,		/* number of suspended buffers */
  2    86 	   3 buf		  (2),
  2    87 	     4 bufP	  ptr,			/* pointer to buffer */
  2    88 	     4 count	  fixed bin,		/* buffer character count */
  2    89 	 2 (
  2    90 	 free_list,
  2    91 	 busy_list,
  2    92 	 chain		  (3),
  2    93 	 bufct		  (3)
  2    94 	 )		  fixed bin,		/* buffer management variables */
  2    95 	 2 wait_switch	  (1:63) bit (1) unaligned,	/* per-drive event wait switches */
  2    96 	 2 buf_size	  fixed bin,		/* size of each tseg buffer in chars (bytes) */
  2    97 	 2 tseg		  aligned,
  2    98 	   3 version_num	  fixed bin,
  2    99 	   3 areap	  ptr,			/* pointer to DSM area */
  2   100 	   3 ev_chan	  fixed bin (71),		/* event channel number */
  2   101 	   3 write_sw	  fixed bin (1),		/* 0 = read, 1 = write */
  2   102 	   3 sync		  fixed bin (1),		/* non-zero for synchronous i/o */
  2   103 	   3 get_size	  fixed bin (1),		/* ON for record sizes to be returned */
  2   104 	   3 ws_segno	  bit (18),		/* rcp_ kluge */
  2   105 	   3 drive_name	  char (32),
  2   106 	   3 tracks	  fixed bin,
  2   107 	   3 density	  bit (36),
  2   108 	   3 speed	  bit (36),		/* bits are 75, 125, 200 ips respectively */
  2   109 	   3 pad99 bit (36),			/* see tseg.incl.pl1 */
  2   110 	   3 buffer_offset	  fixed bin (12),		/* offset of first buffer to be processed */
  2   111 	   3 buffer_count	  fixed bin (12),		/* number of buffers to be processed */
  2   112 	   3 completion_status
  2   113 			  fixed bin (2),		/* 0 = no pending i/o or no status */
  2   114 						/* 1 = normal termination of i/o */
  2   115 						/* 2 = non-zero major status from previous i/o */
  2   116 	   3 hardware_status  bit (36) aligned,		/* major and sub-status */
  2   117 	   3 error_buffer	  fixed bin (12),		/* buffer in which i/o error occurred */
  2   118 	   3 command_count	  fixed bin (12),		/* number of non-data commands to execute */
  2   119 	   3 command_queue	  (10) fixed bin (6) aligned, /* non-data-transfer commands */
  2   120 	   3 bufferptr	  (12) fixed bin (18) aligned,/* relative ptrs to buffers */
  2   121 	   3 buffer_size	  (12) fixed bin (18) aligned,/* size of buffer */
  2   122 	   3 mode		  (12) fixed bin (2) aligned, /* 0 = bin, 1 = bcd, 2 = 9 track */
  2   123 	   3 buffer	  (4) char (cseg.buf_size) aligned,
  2   124 						/* data buffers */
  2   125 						/*  END OF TAPEIO_ / TDCM DATA */
  2   126 	 2 vl		  (63),			/* volume chain link */
  2   127 	   3 position,				/* volume position */
  2   128 	     4 fflX	  fixed bin unal,		/* index of first file link on volume */
  2   129 	     4 cflX	  fixed bin unal,		/* index of current file link */
  2   130 	     4 pos	  fixed bin unal,		/* intra-file position code */
  2   131 						/*  0 = in HDR group                          */
  2   132 						/*  1 - in data / passed HDR TM               */
  2   133 						/*  2 = in EOx group / passed data TM         */
  2   134 	     4 lflX	  fixed bin unal,		/* index of last file link on volume */
  2   135 	   3 vol_data,
  2   136 	     4 volname	  char (32),		/* volume name */
  2   137 	     4 canonical_volname
  2   138 			  char (6),		/* volume name as appears on label */
  2   139 	     4 comment	  char (64) varying,	/* mount comment */
  2   140 	     4 auth_code	  char (3) aligned,		/* authentication code for this volume */
  2   141 	     4 rcp_id	  fixed bin (6),		/* TDCM DUMMY - CHANGE TO BIT (36) ALIGNED */
  2   142 	     4 event_chan	  fixed bin (71),		/* rcp_ attach event channel */
  2   143 	     4 tape_drive	  char (32),		/* name of tape drive */
  2   144 	     4 ws_segno	  bit (18),		/* segno of IOI workspace (per drive) */
  2   145 	     4 write_VOL1	  fixed bin,		/* 0 - correct VOL1 label */
  2   146 						/* 1 - blank tape */
  2   147 						/* 2 - can't read 1st block */
  2   148 						/* 3 - 1st block not VOL1 label */
  2   149 						/* 4 - valid VOL1 label but wrong volume ID (Obsolete) */
  2   150 						/* 5 - correct VOL1 label, but wrong density */
  2   151 						/* 6 - invalid file-set format (Obsolete) */
  2   152 						/* -1 - correct VOL1 label of an earlier format */
  2   153 						/* (no authentication code) */
  2   154 	     4 ioi_index	  fixed bin,		/* ioi_ index for IO */
  2   155 	   3 reg_data,				/* registration data */
  2   156 	     4 tracks	  fixed bin unal,		/* number of tracks */
  2   157 	     4 density	  fixed bin unal,		/* density code */
  2   158 	     4 label_type	  fixed bin unal,		/* volume format */
  2   159 	     4 usage_count	  fixed bin unal,		/* number of attachment to this volume */
  2   160 	     4 read_errors	  fixed bin unal,		/* number of read errors */
  2   161 	     4 write_errors	  fixed bin unal,		/* number of write errors */
  2   162 	 2 chain_area	  area;			/* file chain allocation area */
  2   163
  2   164 /*  END INCLUDE FILE:  tape_ansi_cseg.incl.pl1              */
       19
       20 
       21
       22 /* arguments */
       23 dcl  iocbP ptr,					/* pointer to iocb */
       24      reclen fixed bin (21),				/* returned record length */
       25
       26      code fixed bin (35);				/* returned error code */
       27
       28 /* external procedures */
       29 dcl  tape_ansi_lrec_io_$read_record ext entry (ptr, ptr, fixed bin (21), fixed bin (21), fixed bin (35)),
       30      hcs_$make_seg ext entry (char (*), char (*), char (*), fixed bin (5), ptr, fixed bin (35)),
       31      tape_ansi_ibm_lrec_io_$read_record ext entry (ptr, ptr, fixed bin (21), fixed bin (21), fixed bin (35));
       32
       33 /* external static */
       34 dcl  sys_info$max_seg_size fixed bin (35) external static;
       35
       36 /* error codes */
       37 dcl (error_table_$fatal_error, error_table_$file_busy, error_table_$tape_error, error_table_$invalid_cseg) fixed bin (35) external static;
       38
       39 /* internal static */
       40 dcl  nc_wanted fixed bin (21) internal static;		/* maximum record length */
       41
       42 /* builtin functions */
       43 dcl (null, prec, substr) builtin;
       44
       45 /* conditions */
       46 dcl  cleanup condition;
       47 
       48 	cP = iocbP -> iocb.actual_iocb_ptr -> iocb.attach_data_ptr; /* set pointer to control segment */
       49
       50 	if cseg.invalid then do;			/* is control segment invalid? */
       51 	     code = error_table_$invalid_cseg;
       52 	     return;
       53 	end;
       54
       55 	if cseg.file_lock then do;			/* is file in use? */
       56 	     code = error_table_$file_busy;
       57 	     return;
       58 	end;
       59 	else do;
       60 	     on cleanup begin;
       61 		cseg.file_lock = "0"b;
       62 		cseg.code = error_table_$fatal_error;
       63 	     end;
       64 	     cseg.file_lock = "1"b;
       65 	end;
       66
       67 	if cseg.rlP = null then do;			/* read length segment not known */
       68 	     call hcs_$make_seg ("", cseg.module || vl (1).volname || "_.rl", "", 01011b, cseg.rlP, code);
       69 	     if cseg.rlP = null then do;		/* shouldn't be - serious trouble */
       70 		cseg.code = error_table_$fatal_error;
       71 		go to exit;
       72 	     end;
       73 	     else do;				/* all is well */
       74 		nc_wanted = prec (sys_info$max_seg_size * 4, 21); /* compute maximum record length */
       75 		go to none;			/* nothing in segment - fill it */
       76 	     end;
       77 	end;
       78
       79 	if cseg.rlN = -1 then do;			/* get a record if none in read length segment */
       80 none:	     cseg.file_lock = "0"b;			/* unlock so lrec_io_ call will work */
       81 	     if cseg.standard = 1 then call tape_ansi_lrec_io_$read_record (iocbP, cseg.rlP, nc_wanted, cseg.rlN, code);
       82 	     else call tape_ansi_ibm_lrec_io_$read_record (iocbP, cseg.rlP, nc_wanted, cseg.rlN, code);
       83 	     cseg.file_lock = "1"b;			/* avoid conflicts */
       84 	     if code = 0 | code = error_table_$tape_error then /* record hasn't been read */
       85 		cseg.lrec.reccnt = cseg.lrec.reccnt - 1; /* yet by the user */
       86 	     else do;				/* error or event */
       87 		reclen = 0;			/* return 0 record length */
       88 		cseg.rlN = -1;			/* insure cseg.rlN -> empty */
       89 		go to exit;			/* cseg.lrec.reccnt wasn't incremented */
       90 	     end;
       91 	end;
       92 	else code = 0;				/* no lrec_io_ call, so 0 error code */
       93
       94 	reclen = cseg.rlN;				/* return record length; from actual lrec_io_ call... */
       95 						/* or, from previous read length operation            */
       96 						/* note that read_length does _n_o_t change position     */
       97 						/* so that multiple read_length calls without inter-  */
       98 						/* vening read_record or position calls all refer to  */
       99 						/* the same record.				    */
      100 exit:	cseg.file_lock = "0"b;
      101 	return;
      102
      103      end tape_ansi_read_length_;
	SOURCE FILES USED IN THIS COMPILATION.

LINE      NUMBER  DATE MODIFIED     NAME			PATHNAME
             0    04/18/00  1154.1  tape_ansi_read_length_.pl1        >udd>sm>ds>w>ml>tape_ansi_read_length_.pl1
17           1    05/20/83  1946.4  iocb.incl.pl1                     >ldd>incl>iocb.incl.pl1
19           2    06/10/82  1145.3  tape_ansi_cseg.incl.pl1           >ldd>incl>tape_ansi_cseg.incl.pl1
	NAMES DECLARED IN THIS COMPILATION.

IDENTIFIER	     OFFSET    LOC STORAGE CLASS   DATA TYPE		ATTRIBUTES AND REFERENCES
								(* indicates a set context)

NAMES DECLARED BY DECLARE STATEMENT.
actual_iocb_ptr          12            based           pointer                  level 2 dcl 1-6 ref 48
attach_data_ptr          16            based           pointer                  level 2 dcl 1-6 ref 48
buf_size                310            based           fixed bin(17,0)          level 2 dcl 2-14 ref 68
cP                              000100 automatic       pointer                  dcl 2-11 set ref 48* 50 55 61 62 64 67 68 68 68 68
                                                                                  69 70 79 80 81 81 81 82 82 83 84 84 88 94 100
cleanup                         000102 stack reference condition                dcl 46 ref 60
code                    223            based           fixed bin(35,0)          level 3 in structure "cseg" dcl 2-14 in procedure
                                                                                  "tape_ansi_read_length_" set ref 62* 70*
code                                   parameter       fixed bin(35,0)          dcl 23 in procedure "tape_ansi_read_length_" set ref
                                                                                  14 51* 56* 68* 81* 82* 84 84 92*
cseg                                   based           structure                level 1 unaligned dcl 2-14
error_table_$fatal_error        000022 external static fixed bin(35,0)          dcl 37 ref 62 70
error_table_$file_busy          000024 external static fixed bin(35,0)          dcl 37 ref 56
error_table_$invalid_cseg       000030 external static fixed bin(35,0)          dcl 37 ref 51
error_table_$tape_error         000026 external static fixed bin(35,0)          dcl 37 ref 84
file_lock               220            based           bit(1)                   level 3 dcl 2-14 set ref 55 61* 64* 80* 83* 100*
hcs_$make_seg                   000014 constant        entry                    external dcl 29 ref 68
invalid                   1            based           bit(1)                   level 2 dcl 2-14 ref 50
iocb                                   based           structure                level 1 dcl 1-6
iocbP                                  parameter       pointer                  dcl 23 set ref 14 48 81* 82*
lrec                    212            based           structure                level 2 unaligned dcl 2-14
module                  115            based           varying char(12)         level 2 dcl 2-14 ref 68
nc_wanted                       000010 internal static fixed bin(21,0)          dcl 40 set ref 74* 81* 82*
null                                                   builtin function         dcl 43 ref 67 69
prec                                                   builtin function         dcl 43 ref 74
read_length             224            based           structure                level 2 unaligned dcl 2-14
reccnt                  222            based           fixed bin(35,0)          level 3 dcl 2-14 set ref 84* 84
reclen                                 parameter       fixed bin(21,0)          dcl 23 set ref 14 87* 94*
rlN                     226            based           fixed bin(21,0)          level 3 dcl 2-14 set ref 79 81* 82* 88* 94
rlP                     224            based           pointer                  level 3 dcl 2-14 set ref 67 68* 69 81* 82*
standard                  2            based           fixed bin(17,0)          level 2 dcl 2-14 ref 81
sys_info$max_seg_size           000020 external static fixed bin(35,0)          dcl 34 ref 74
tape_ansi_ibm_lrec_io_$read_record
                                000016 constant        entry                    external dcl 29 ref 82
tape_ansi_lrec_io_$read_record  000012 constant        entry                    external dcl 29 ref 81
vl                                     based           structure                array level 2 unaligned dcl 2-14
vol_data                               based           structure                array level 3 unaligned dcl 2-14
volname                                based           char(32)                 array level 4 packed packed unaligned dcl 2-14 ref
                                                                                  68

NAMES DECLARED BY DECLARE STATEMENT AND NEVER REFERENCED.
cseg_tseg_version_2                    internal static fixed bin(17,0)          initial dcl 2-12
iox_$iocb_version_sentinel             external static char(4)                  dcl 1-51
substr                                                 builtin function         dcl 43

NAMES DECLARED BY EXPLICIT CONTEXT.
exit                            000315 constant        label                    dcl 100 ref 71 89
none                            000215 constant        label                    dcl 80 ref 75
tape_ansi_read_length_          000016 constant        entry                    external dcl 14

THERE WERE NO NAMES DECLARED BY CONTEXT OR IMPLICATION.

STORAGE REQUIREMENTS FOR THIS PROGRAM.

	Object	Text	Link	Symbol	Defs	Static
Start          0       0       460         512     320         470
Length       730     320        32         201     140           2

BLOCK NAME	         STACK SIZE     TYPE		WHY NONQUICK/WHO SHARES STACK FRAME
tape_ansi_read_length_              106 external procedure  is an external procedure.
on unit on line 60                   64 on unit

STORAGE FOR INTERNAL STATIC VARIABLES.

   LOC IDENTIFIER                  BLOCK NAME
000010 nc_wanted                   tape_ansi_read_length_

STORAGE FOR AUTOMATIC VARIABLES.

STACK FRAME                 LOC IDENTIFIER                  BLOCK NAME
tape_ansi_read_length_   000100 cP                          tape_ansi_read_length_

THE FOLLOWING EXTERNAL OPERATORS ARE USED BY THIS PROGRAM.
alloc_char_temp     cat_realloc_chars   call_ext_out_desc   call_ext_out        return_mac          enable_op
shorten_stack       ext_entry           int_entry

THE FOLLOWING EXTERNAL ENTRIES ARE CALLED BY THIS PROGRAM.
hcs_$make_seg                 tape_ansi_ibm_lrec_io_$read_record
tape_ansi_lrec_io_$read_record

THE FOLLOWING EXTERNAL VARIABLES ARE USED BY THIS PROGRAM.
error_table_$fatal_error      error_table_$file_busy        error_table_$invalid_cseg     error_table_$tape_error
sys_info$max_seg_size


   LINE    LOC      LINE    LOC      LINE    LOC      LINE    LOC      LINE    LOC      LINE    LOC      LINE    LOC
     14 000012        48 000023        50 000031        51 000033        52 000035        55 000036        56 000040
     57 000042        60 000043        61 000057        62 000062        63 000064        64 000065        67 000070
     68 000074        69 000173        70 000201        71 000204        74 000205        75 000211        79 000212
     80 000215        81 000216        82 000242        83 000262        84 000265        87 000302        88 000303
     89 000305        91 000306        92 000307        94 000311       100 000315       101 000316


                                          -----------------------------------------------------------


Historical Background

This edition of the Multics software materials and documentation is provided and donated
to Massachusetts Institute of Technology by Group BULL including BULL HN Information Systems Inc.
as a contribution to computer science knowledge.
This donation is made also to give evidence of the common contributions of Massachusetts Institute of Technology,
Bell Laboratories, General Electric, Honeywell Information Systems Inc., Honeywell BULL Inc., Groupe BULL
and BULL HN Information Systems Inc. to the development of this operating system.
Multics development was initiated by Massachusetts Institute of Technology Project MAC (1963-1970),
renamed the MIT Laboratory for Computer Science and Artificial Intelligence in the mid 1970s, under the leadership
of Professor Fernando Jose Corbato. Users consider that Multics provided the best software architecture
for managing computer hardware properly and for executing programs. Many subsequent operating systems
incorporated Multics principles.
Multics was distributed in 1975 to 2000 by Group Bull in Europe , and in the U.S. by Bull HN Information Systems Inc.,
as successor in interest by change in name only to Honeywell Bull Inc. and Honeywell Information Systems Inc. .

                                          -----------------------------------------------------------

Permission to use, copy, modify, and distribute these programs and their documentation for any purpose and without
fee is hereby granted,provided that the below copyright notice and historical background appear in all copies
and that both the copyright notice and historical background and this permission notice appear in supporting
documentation, and that the names of MIT, HIS, BULL or BULL HN not be used in advertising or publicity pertaining
to distribution of the programs without specific prior written permission.
    Copyright 1972 by Massachusetts Institute of Technology and Honeywell Information Systems Inc.
    Copyright 2006 by BULL HN Information Systems Inc.
    Copyright 2006 by Bull SAS
    All Rights Reserved
