ASSEMBLY LISTING OF SEGMENT >special_ldd>install>MR12.0-1206>tape_status_.alm
ASSEMBLED ON:	11/05/86  1040.1 mst Wed
OPTIONS USED:	list
ASSEMBLED BY:	ALM Version  6.7  October 1986
ASSEMBLER CREATED:	10/08/86  1557.5 mst Wed

                                     1  " ***********************************************************
                                     2  " *                                                         *
                                     3  " * Copyright, (C) Honeywell Information Systems Inc., 1982 *
                                     4  " *                                                         *
                                     5  " * Copyright (c) 1972 by Massachusetts Institute of        *
                                     6  " * Technology and Honeywell Information Systems, Inc.      *
                                     7  " *                                                         *
                                     8  " ***********************************************************
                                     9
                                    10  """"""""""""""""""""""""""""""""""""""""""""""""""""""""""""""""""
                                    11  "
                                    12  "  N__a_m_e:  tape_status_
                                    13  "
                                    14  "       An error table segment defining a unique status code for
                                    15  "  each possible major and sub-status generated by the MTS500
                                    16  "  Magnetic Tape Subsystem.
                                    17  "
                                    18  "  0) Created: Oct. 21, 1974 by Ross E. Klinger
                                    19  "
                                    20  "  1) Modified: March 5, 1976 by R. E. Klinger to add a new
                                    21  "     Command Reject substatus, Invalid Density.
                                    22  "
                                    23  "  2) Converted to ALM January 1980 by C. Hornig.
                                    24  "
                                    25  "
                                    26  """""""""""""""""""""""""""""""""""""""""""""""""""""""""""""""""
                                    27
                                    28  	include	et_macros
                                   1-1  " Begin include file ...... et_macros.incl.alm
                                   1-2  "	Written 6/15/77 by Noel I. Morris
                                   1-3  "	Modified '82 so error code entries are in first page of segment.
                                   1-4
                                   1-5  " This include file contains macros for generating error tables
                                   1-6  " for both system and non-system use.
                                   1-7
                                   1-8  " ET MACRO
                                   1-9  "
                                  1-10  " This macro is used to initialize the error table for either
                                  1-11  " system or non-system use.  It is invoked at the beginning of
                                  1-12  " the error table as follows:
                                  1-13  "
                                  1-14  "	et	table_name{,system}
                                  1-15  "
                                  1-16
                                  1-17  macro	et
                              1   1-18  	maclist	on
                              2   1-19
                              3   1-20  	name	&1
                              4   1-21
                              5   1-22  &^=&2,system&[
                              6   1-23
                              7   1-24  	include	stack_header
                              8   1-25
                              9   1-26  
                             10   1-27
                             11   1-28  	use	codes
                             12   1-29  .code_start:
                             13   1-30
                             14   1-31  	use	past_codes
                             15   1-32  .code_end:
                             16   1-33
                             17   1-34  	join	/link/codes,past_codes
                             18   1-35
                             19   1-36  	use	messages
                             20   1-37
                             21   1-38  .trapproc:
                             22   1-39  	epaq	0,ic
                             23   1-40  	eax0	0,au
                             24   1-41  	epbpsb	sp|0
                             25   1-42  	lprplp	sb|stack_header.lot_ptr,*au
                             26   1-43  	eax1	.code_start
                             27   1-44  .loop:	stx0	lp|0,x1
                             28   1-45  	eax1	1,x1
                             29   1-46  	cmpx1	.code_end,du
                             30   1-47  	tmi	.loop-*,ic
                             31   1-48  	short_return
                             32   1-49
                             33   1-50  	firstref	<*text>|.trapproc
                             34   1-51
                             35   1-52  &;	use	codes
                             36   1-53  	use	messages
                             37   1-54
                             38   1-55  	join	/text/codes,messages
                             39   1-56
                             40   1-57  &]
                             41   1-58
                             42   1-59  	bool	.segno,77777
                             43   1-60
                             44   1-61  	maclist	off
                             45   1-62
                             46   1-63  	&end
                                  1-64
                                  1-65  
                                  1-66
                                  1-67  " EC MACRO
                                  1-68  "
                                  1-69  " This macro is used to define an error code as shown:
                                  1-70  "
                                  1-71  "	ec	name,{short_mess},(long_mess)
                                  1-72  "
                                  1-73  " If more than a single name is to be defined for a given message,
                                  1-74  " a list of names separated by commas and enclosed in parentheses
                                  1-75  " must be given.   short_mess must be 8 or less characters.  If omitted,
                                  1-76  " the short_mess will be set to the name.  long_mess is enclosed
                                  1-77  " in parentheses in order to cause ALM to ignore embedded blanks.  Please
                                  1-78  " note that double quote characters in either short_mess or long_mess
                                  1-79  " must be doubled in order to make the ALM assembly work properly.
                                  1-80  " Note that a macro invocation line terminated by a comma will cause that
                                  1-81  " statement to be continued on the next line.
                                  1-82
                                  1-83  macro	ec
                              1   1-84  	use	codes
                              2   1-85
                              3   1-86  	maclist	on,save
                              4   1-87  &(1	segdef  &i
                              5   1-88  &)	maclist	restore
                              6   1-89  &(1&i:
                              7   1-90  &)	maclist	object,save
                              8   1-91  	zero	.segno,&U
                              9   1-92  	maclist	restore
                             10   1-93  	use	messages
                             11   1-94  &^=&l2,0&[	shortname    &2
                             12   1-95  &;	shortname    &1
                             13   1-96  &]
                             14   1-97  &U:
                             15   1-98  	maclist	on,save
                             16   1-99  	acc  "&3"
                             17  1-100
                             18  1-101  	maclist	restore
                             19  1-102  	&end
                                 1-103
                                 1-104  macro	shortname
                              1  1-105  	maclist	on,save
                              2  1-106  	aci  "&1",8
                              3  1-107  	maclist	restore
                              4  1-108  	&end
                                 1-109
                                 1-110  
                                 1-111
                                 1-112  " A typical error table source program might have the following format:
                                 1-113  "
                                 1-114  "	include	et_macros
                                 1-115  "
                                 1-116  "	et	name_of_error_table
                                 1-117  "
                                 1-118  "	ec	error_code_1,ecode1,(This is error code 1.)
                                 1-119  "
                                 1-120  "	ec	error_code_2,ecode2,(This is error code 2.)
                                 1-121  "
                                 1-122  "	:	     :	      :		:
                                 1-123  "
                                 1-124  "	ec	error_code_n,ecoden,(This is the nth error code.)
                                 1-125  "
                                 1-126  "	end
                                 1-127  "
                                 1-128
                                 1-129  " End of include file ...... et_macros.incl.alm
                                 1-130
                                    29
                                    30  	et	tape_status_

    000000                              	name	tape_status_


                                        	include	stack_header
                                   2-1  "	BEGIN INCLUDE FILE ... stack_header.incl.alm  3/72  Bill Silver
                                   2-2  "
                                   2-3  "	modified 7/76 by M. Weaver for *system links and more system use of areas
                                   2-4  "	modified 3/77 by M. Weaver  to add rnt_ptr
                                   2-5  "	modified 7/77 by S. Webber to add run_unit_depth and assign_linkage_ptr
                                   2-6  "	modified 6/83 by J. Ives to add trace_frames and in_trace.
                                   2-7
                                   2-8  " HISTORY COMMENTS:
                                   2-9  "  1) change(86-06-24,DGHowe), approve(86-06-24,MCR7396),
                                  2-10  "     audit(86-08-05,Schroth), install(86-11-03,MR12.0-1206):
                                  2-11  "     added the heap_header_ptr definition
                                  2-12  "  2) change(86-08-12,Kissel), approve(86-08-12,MCR7473),
                                  2-13  "     audit(86-10-10,Fawcett), install(86-11-03,MR12.0-1206):
                                  2-14  "     Modified to support control point management.  These changes were
                                  2-15  "     actually made in February 1985 by G. Palter.
                                  2-16  "  3) change(86-10-22,Fawcett), approve(86-10-22,MCR7473),
                                  2-17  "     audit(86-10-22,Farley), install(86-11-03,MR12.0-1206):
                                  2-18  "     Remove the old_lot pointer and replace it with cpm_data_ptr. Use the 18
                                  2-19  "     bit pad after cur_lot_size for the cpm_enabled. This was done to save
                                  2-20  "     some space int the stack header and change the cpd_ptr unal to
                                  2-21  "     cpm_data_ptr (ITS pair).
                                  2-22  "                                                      END HISTORY COMMENTS
                                  2-23
                        000004    2-24  	equ	stack_header.cpm_data_ptr,4		ptr to control point for this stack
                        000006    2-25  	equ	stack_header.combined_stat_ptr,6	ptr to separate static area
                                  2-26
                        000010    2-27  	equ	stack_header.clr_ptr,8		ptr to area containing linkage sections
                        000012    2-28  	equ	stack_header.max_lot_size,10		number of words allowed in lot (DU)
                        000012    2-29  	equ	stack_header.main_proc_invoked,10	nonzero if main proc was invoked in run unit (DL)
                        000012    2-30  	equ	stack_header.run_unit_depth,10	number of active run units stacked (DL)
                        000013    2-31  	equ	stack_header.cur_lot_size,11		DU number of words (entries) in lot
                        000013    2-32            equ	stack_header.cpm_enabled,11		DL  non-zero if control point management is enabled
                        000014    2-33  	equ	stack_header.system_free_ptr,12	ptr to system storage area
                        000016    2-34  	equ	stack_header.user_free_ptr,14		ptr to user storage area
                                  2-35
                        000020    2-36  	equ	stack_header.parent_ptr,16		ptr to parent stack or null
                        000022    2-37  	equ	stack_header.stack_begin_ptr,18	ptr to first stack frame
                        000024    2-38  	equ	stack_header.stack_end_ptr,20		ptr to next useable stack frame
                        000026    2-39  	equ	stack_header.lot_ptr,22		ptr to the lot for the current ring
                                  2-40
                        000030    2-41  	equ	stack_header.signal_ptr,24		ptr to signal proc for current ring
                        000032    2-42  	equ	stack_header.bar_mode_sp,26		value of sp before entering bar mode
                        000034    2-43  	equ	stack_header.pl1_operators_ptr,28	ptr: pl1_operators_$operator_table
                        000036    2-44  	equ	stack_header.call_op_ptr,30		ptr to standard call operator
                                  2-45
                        000040    2-46  	equ	stack_header.push_op_ptr,32		ptr to standard push operator
                        000042    2-47  	equ	stack_header.return_op_ptr,34		ptr to standard return operator
                        000044    2-48  	equ	stack_header.ret_no_pop_op_ptr,36	ptr: stand. return/ no pop operator
                        000046    2-49  	equ	stack_header.entry_op_ptr,38		ptr to standard entry operator
                                  2-50
                        000050    2-51  	equ	stack_header.trans_op_tv_ptr,40	ptr to table of translator operator ptrs
                        000052    2-52  	equ	stack_header.isot_ptr,42		pointer to ISOT
                        000054    2-53  	equ	stack_header.sct_ptr,44		pointer to System Condition Table
                        000056    2-54  	equ	stack_header.unwinder_ptr,46		pointer to unwinder for current ring
                                  2-55
                        000060    2-56  	equ	stack_header.sys_link_info_ptr,48	ptr to *system link name table
                        000062    2-57  	equ	stack_header.rnt_ptr,50		ptr to reference name table
                        000064    2-58  	equ	stack_header.ect_ptr,52		ptr to event channel table
                        000066    2-59  	equ	stack_header.assign_linkage_ptr,54	ptr to area for hcs_$assign_linkage calls
                        000070    2-60  	equ	stack_header.heap_header_ptr,56	ptr to heap header.
                        000072    2-61  	equ	stack_header.trace_frames,58		stack of trace_catch_ frames
                        000073    2-62  	equ	stach_header.trace_top_ptr,59		trace pointer
                        000074    2-63  	equ	stack_header.in_trace,60		trace antirecurse bit
                        000100    2-64  	equ	stack_header_end,64			length of stack header
                                  2-65
                                  2-66
                                  2-67
                                  2-68
                        000000    2-69  	equ	trace_frames.count,0		number of trace frames on stack
                        000001    2-70  	equ	trace_frames.top_ptr,1		packed pointer to top one
                                  2-71
                                  2-72  "	The  following constant is an offset within the  pl1  operators table.
                                  2-73  "	It  references a  transfer vector table.
                                  2-74
                        000551    2-75  	bool	tv_offset,551
                                  2-76
                                  2-77
                                  2-78  "	The  following constants are offsets within this transfer vector table.
                                  2-79
                        001170    2-80  	equ	call_offset,tv_offset+271
                        001171    2-81  	equ	push_offset,tv_offset+272
                        001172    2-82  	equ	return_offset,tv_offset+273
                        001173    2-83  	equ	return_no_pop_offset,tv_offset+274
                        001174    2-84  	equ	entry_offset,tv_offset+275
                                  2-85
                                  2-86
                                  2-87  " 	END INCLUDE FILE stack_header.incl.alm

                                        

                                        	use	codes
    000010                              .code_start:

                                        	use	past_codes
    000116                              .code_end:

                                        	join	/link/codes,past_codes

                                        	use	messages

    000000                              .trapproc:
    000000  aa   000000 2130 04         	epaq	0,ic
    000001  aa   000000 6200 01         	eax0	0,au
    000002  aa  6 00000 3731 00         	epbpsb	sp|0
    000003  aa  7 00026 7641 61         	lprplp	sb|stack_header.lot_ptr,*au
    000004  8a   000010 6210 00         	eax1	.code_start
    000005  aa  4 00000 7401 11         .loop:	stx0	lp|0,x1
    000006  aa   000001 6210 11         	eax1	1,x1
    000007  8a   000116 1010 03         	cmpx1	.code_end,du
    000010  aa   777775 6040 04         	tmi	.loop-*,ic
    000011  aa  7 00044 7101 20         	short_return

    000012                              	firstref	<*text>|.trapproc


                        077777          	bool	.segno,77777

                                    31
                                    32  	ec	command_reject,MTS010,(Command Reject.)
                        000010          	segdef  command_reject
    000010  a0   077777 000014
    000012  aa  115 124 123 060         	aci  "MTS010",8
    000013  aa  061 060 040 040
    000014  aa  017 103 157 155         	acc  "Command Reject."
    000015  aa  155 141 156 144
    000016  aa  040 122 145 152
    000017  aa  145 143 164 056

                                    33  	ec	invalid_density,MTS015,(Command Reject - Invalid Density.)
                        000011          	segdef  invalid_density
    000011  a0   077777 000022
    000020  aa  115 124 123 060         	aci  "MTS015",8
    000021  aa  061 065 040 040
    000022  aa  041 103 157 155         	acc  "Command Reject - Invalid Density."
    000023  aa  155 141 156 144
    000024  aa  040 122 145 152
    000025  aa  145 143 164 040
    000026  aa  055 040 111 156
    000027  aa  166 141 154 151
    000030  aa  144 040 104 145
    000031  aa  156 163 151 164
    000032  aa  171 056 000 000

                                    34  	ec	invalid_opcode,MTS020,(Command Reject - Invalid Op Code.)
                        000012          	segdef  invalid_opcode
    000012  a0   077777 000035
    000033  aa  115 124 123 060         	aci  "MTS020",8
    000034  aa  062 060 040 040
    000035  aa  041 103 157 155         	acc  "Command Reject - Invalid Op Code."
    000036  aa  155 141 156 144
    000037  aa  040 122 145 152
    000040  aa  145 143 164 040
    000041  aa  055 040 111 156
    000042  aa  166 141 154 151
    000043  aa  144 040 117 160
    000044  aa  040 103 157 144
    000045  aa  145 056 000 000

                                    35  	ec	invalid_device_code,MTS030,(Command Reject - Invalid Device Code.)
                        000013          	segdef  invalid_device_code
    000013  a0   077777 000050
    000046  aa  115 124 123 060         	aci  "MTS030",8
    000047  aa  063 060 040 040
    000050  aa  045 103 157 155         	acc  "Command Reject - Invalid Device Code."
    000051  aa  155 141 156 144
    000052  aa  040 122 145 152
    000053  aa  145 143 164 040
    000054  aa  055 040 111 156
    000055  aa  166 141 154 151
    000056  aa  144 040 104 145
    000057  aa  166 151 143 145
    000060  aa  040 103 157 144
    000061  aa  145 056 000 000

                                    36  	ec	invalid_idcw_parity,MTS040,(Command Reject - Invalid IDCW Parity.)
                        000014          	segdef  invalid_idcw_parity
    000014  a0   077777 000064
    000062  aa  115 124 123 060         	aci  "MTS040",8
    000063  aa  064 060 040 040
    000064  aa  045 103 157 155         	acc  "Command Reject - Invalid IDCW Parity."
    000065  aa  155 141 156 144
    000066  aa  040 122 145 152
    000067  aa  145 143 164 040
    000070  aa  055 040 111 156
    000071  aa  166 141 154 151
    000072  aa  144 040 111 104
    000073  aa  103 127 040 120
    000074  aa  141 162 151 164
    000075  aa  171 056 000 000

                                    37  	ec	reject_at_bot,MTS050,(Command Reject - Positioned at BOT.)
                        000015          	segdef  reject_at_bot
    000015  a0   077777 000100
    000076  aa  115 124 123 060         	aci  "MTS050",8
    000077  aa  065 060 040 040
    000100  aa  043 103 157 155         	acc  "Command Reject - Positioned at BOT."
    000101  aa  155 141 156 144
    000102  aa  040 122 145 152
    000103  aa  145 143 164 040
    000104  aa  055 040 120 157
    000105  aa  163 151 164 151
    000106  aa  157 156 145 144
    000107  aa  040 141 164 040
    000110  aa  102 117 124 056

                                    38  	ec	read_after_write,MTS060,Command Reject - Forward Read After Write.;
                        000016          	segdef  read_after_write
    000016  a0   077777 000113
    000111  aa  115 124 123 060         	aci  "MTS060",8
    000112  aa  066 060 040 040
    000113  aa  007 103 157 155         	acc  "Command"
    000114  aa  155 141 156 144

                                    39  	ec	nine_track_error,MTS070,(Command Reject - 9-Track Error.)
                        000017          	segdef  nine_track_error
    000017  a0   077777 000117
    000115  aa  115 124 123 060         	aci  "MTS070",8
    000116  aa  067 060 040 040
    000117  aa  037 103 157 155         	acc  "Command Reject - 9-Track Error."
    000120  aa  155 141 156 144
    000121  aa  040 122 145 152
    000122  aa  145 143 164 040
    000123  aa  055 040 071 055
    000124  aa  124 162 141 143
    000125  aa  153 040 105 162
    000126  aa  162 157 162 056

                                    40  	ec	mpc_command_reject,MTS080,(MPC Command Reject.)
                        000020          	segdef  mpc_command_reject
    000020  a0   077777 000131
    000127  aa  115 124 123 060         	aci  "MTS080",8
    000130  aa  070 060 040 040
    000131  aa  023 115 120 103         	acc  "MPC Command Reject."
    000132  aa  040 103 157 155
    000133  aa  155 141 156 144
    000134  aa  040 122 145 152
    000135  aa  145 143 164 056

                                    41  	ec	illegal_procedure,MTS090,(MPC Command Reject - Illegal Procedure.)
                        000021          	segdef  illegal_procedure
    000021  a0   077777 000140
    000136  aa  115 124 123 060         	aci  "MTS090",8
    000137  aa  071 060 040 040
    000140  aa  047 115 120 103         	acc  "MPC Command Reject - Illegal Procedure."
    000141  aa  040 103 157 155
    000142  aa  155 141 156 144
    000143  aa  040 122 145 152
    000144  aa  145 143 164 040
    000145  aa  055 040 111 154
    000146  aa  154 145 147 141
    000147  aa  154 040 120 162
    000150  aa  157 143 145 144
    000151  aa  165 162 145 056

                                    42  	ec	illegal_lc_number,MTS100,(MPC Command Reject - Illegal LC Number.)
                        000022          	segdef  illegal_lc_number
    000022  a0   077777 000154
    000152  aa  115 124 123 061         	aci  "MTS100",8
    000153  aa  060 060 040 040
    000154  aa  047 115 120 103         	acc  "MPC Command Reject - Illegal LC Number."
    000155  aa  040 103 157 155
    000156  aa  155 141 156 144
    000157  aa  040 122 145 152
    000160  aa  145 143 164 040
    000161  aa  055 040 111 154
    000162  aa  154 145 147 141
    000163  aa  154 040 114 103
    000164  aa  040 116 165 155
    000165  aa  142 145 162 056

                                    43  	ec	illegal_susp_lc_number,MTS110,(MPC Command Reject - Illegal Suspended LC Number.)
                        000023          	segdef  illegal_susp_lc_number
    000023  a0   077777 000170
    000166  aa  115 124 123 061         	aci  "MTS110",8
    000167  aa  061 060 040 040
    000170  aa  061 115 120 103         	acc  "MPC Command Reject - Illegal Suspended LC Number."
    000171  aa  040 103 157 155
    000172  aa  155 141 156 144
    000173  aa  040 122 145 152
    000174  aa  145 143 164 040
    000175  aa  055 040 111 154
    000176  aa  154 145 147 141
    000177  aa  154 040 123 165
    000200  aa  163 160 145 156
    000201  aa  144 145 144 040
    000202  aa  114 103 040 116
    000203  aa  165 155 142 145
    000204  aa  162 056 000 000

                                    44  	ec	continue_not_set,MTS120,(MPC Command Reject - Continue Bit Not Set.)
                        000024          	segdef  continue_not_set
    000024  a0   077777 000207
    000205  aa  115 124 123 061         	aci  "MTS120",8
    000206  aa  062 060 040 040
    000207  aa  052 115 120 103         	acc  "MPC Command Reject - Continue Bit Not Set."
    000210  aa  040 103 157 155
    000211  aa  155 141 156 144
    000212  aa  040 122 145 152
    000213  aa  145 143 164 040
    000214  aa  055 040 103 157
    000215  aa  156 164 151 156
    000216  aa  165 145 040 102
    000217  aa  151 164 040 116
    000220  aa  157 164 040 123
    000221  aa  145 164 056 000

                                    45  	ec	end_of_file,MTS130,(End of File.)
                        000025          	segdef  end_of_file
    000025  a0   077777 000224
    000222  aa  115 124 123 061         	aci  "MTS130",8
    000223  aa  063 060 040 040
    000224  aa  014 105 156 144         	acc  "End of File."
    000225  aa  040 157 146 040
    000226  aa  106 151 154 145
    000227  aa  056 000 000 000

                                    46  	ec	seven_track_eof,MTS140,(End of File - End of File Mark (7-Track).)
                        000026          	segdef  seven_track_eof
    000026  a0   077777 000232
    000230  aa  115 124 123 061         	aci  "MTS140",8
    000231  aa  064 060 040 040
    000232  aa  051 105 156 144         	acc  "End of File - End of File Mark (7-Track)."
    000233  aa  040 157 146 040
    000234  aa  106 151 154 145
    000235  aa  040 055 040 105
    000236  aa  156 144 040 157
    000237  aa  146 040 106 151
    000240  aa  154 145 040 115
    000241  aa  141 162 153 040
    000242  aa  050 067 055 124
    000243  aa  162 141 143 153
    000244  aa  051 056 000 000

                                    47  	ec	nine_track_eof,MTS150,(End of File - End of File Mark (9-track).)
                        000027          	segdef  nine_track_eof
    000027  a0   077777 000247
    000245  aa  115 124 123 061         	aci  "MTS150",8
    000246  aa  065 060 040 040
    000247  aa  051 105 156 144         	acc  "End of File - End of File Mark (9-track)."
    000250  aa  040 157 146 040
    000251  aa  106 151 154 145
    000252  aa  040 055 040 105
    000253  aa  156 144 040 157
    000254  aa  146 040 106 151
    000255  aa  154 145 040 115
    000256  aa  141 162 153 040
    000257  aa  050 071 055 164
    000260  aa  162 141 143 153
    000261  aa  051 056 000 000

                                    48  	ec	data_alert,MTS160,(End of File - Data Alert Condition.)
                        000030          	segdef  data_alert
    000030  a0   077777 000264
    000262  aa  115 124 123 061         	aci  "MTS160",8
    000263  aa  066 060 040 040
    000264  aa  043 105 156 144         	acc  "End of File - Data Alert Condition."
    000265  aa  040 157 146 040
    000266  aa  106 151 154 145
    000267  aa  040 055 040 104
    000270  aa  141 164 141 040
    000271  aa  101 154 145 162
    000272  aa  164 040 103 157
    000273  aa  156 144 151 164
    000274  aa  151 157 156 056

                                    49  	ec	single_char_record,MTS170,(End of File - Single Character Record.)
                        000031          	segdef  single_char_record
    000031  a0   077777 000277
    000275  aa  115 124 123 061         	aci  "MTS170",8
    000276  aa  067 060 040 040
    000277  aa  046 105 156 144         	acc  "End of File - Single Character Record."
    000300  aa  040 157 146 040
    000301  aa  106 151 154 145
    000302  aa  040 055 040 123
    000303  aa  151 156 147 154
    000304  aa  145 040 103 150
    000305  aa  141 162 141 143
    000306  aa  164 145 162 040
    000307  aa  122 145 143 157
    000310  aa  162 144 056 000

                                    50  	ec	device_data_alert,MTS180,(Device Data Alert.)
                        000032          	segdef  device_data_alert
    000032  a0   077777 000313
    000311  aa  115 124 123 061         	aci  "MTS180",8
    000312  aa  070 060 040 040
    000313  aa  022 104 145 166         	acc  "Device Data Alert."
    000314  aa  151 143 145 040
    000315  aa  104 141 164 141
    000316  aa  040 101 154 145
    000317  aa  162 164 056 000

                                    51  	ec	transfer_timing,MTS190,(Device Data Alert - Transfer Timing Alert.)
                        000033          	segdef  transfer_timing
    000033  a0   077777 000322
    000320  aa  115 124 123 061         	aci  "MTS190",8
    000321  aa  071 060 040 040
    000322  aa  052 104 145 166         	acc  "Device Data Alert - Transfer Timing Alert."
    000323  aa  151 143 145 040
    000324  aa  104 141 164 141
    000325  aa  040 101 154 145
    000326  aa  162 164 040 055
    000327  aa  040 124 162 141
    000330  aa  156 163 146 145
    000331  aa  162 040 124 151
    000332  aa  155 151 156 147
    000333  aa  040 101 154 145
    000334  aa  162 164 056 000

                                    52  	ec	blank_tape_on_read,MTS200,(Device Data Alert - Blank Tape on Read.)
                        000034          	segdef  blank_tape_on_read
    000034  a0   077777 000337
    000335  aa  115 124 123 062         	aci  "MTS200",8
    000336  aa  060 060 040 040
    000337  aa  047 104 145 166         	acc  "Device Data Alert - Blank Tape on Read."
    000340  aa  151 143 145 040
    000341  aa  104 141 164 141
    000342  aa  040 101 154 145
    000343  aa  162 164 040 055
    000344  aa  040 102 154 141
    000345  aa  156 153 040 124
    000346  aa  141 160 145 040
    000347  aa  157 156 040 122
    000350  aa  145 141 144 056

                                    53  	ec	bit_during_erase,MTS210,(Device Data Alert - Bit Detected During Erase Operation.)
                        000035          	segdef  bit_during_erase
    000035  a0   077777 000353
    000351  aa  115 124 123 062         	aci  "MTS210",8
    000352  aa  061 060 040 040
    000353  aa  070 104 145 166         	acc  "Device Data Alert - Bit Detected During Erase Operation."
    000354  aa  151 143 145 040
    000355  aa  104 141 164 141
    000356  aa  040 101 154 145
    000357  aa  162 164 040 055
    000360  aa  040 102 151 164
    000361  aa  040 104 145 164
    000362  aa  145 143 164 145
    000363  aa  144 040 104 165
    000364  aa  162 151 156 147
    000365  aa  040 105 162 141
    000366  aa  163 145 040 117
    000367  aa  160 145 162 141
    000370  aa  164 151 157 156
    000371  aa  056 000 000 000

                                    54  	ec	transmission_parity,MTS220,(Device Data Alert - Transmission Parity Alert.)
                        000036          	segdef  transmission_parity
    000036  a0   077777 000374
    000372  aa  115 124 123 062         	aci  "MTS220",8
    000373  aa  062 060 040 040
    000374  aa  056 104 145 166         	acc  "Device Data Alert - Transmission Parity Alert."
    000375  aa  151 143 145 040
    000376  aa  104 141 164 141
    000377  aa  040 101 154 145
    000400  aa  162 164 040 055
    000401  aa  040 124 162 141
    000402  aa  156 163 155 151
    000403  aa  163 163 151 157
    000404  aa  156 040 120 141
    000405  aa  162 151 164 171
    000406  aa  040 101 154 145
    000407  aa  162 164 056 000

                                    55  	ec	lateral_parity,MTS230,(Device Data Alert - Lateral Tape Parity Alert.)
                        000037          	segdef  lateral_parity
    000037  a0   077777 000412
    000410  aa  115 124 123 062         	aci  "MTS230",8
    000411  aa  063 060 040 040
    000412  aa  056 104 145 166         	acc  "Device Data Alert - Lateral Tape Parity Alert."
    000413  aa  151 143 145 040
    000414  aa  104 141 164 141
    000415  aa  040 101 154 145
    000416  aa  162 164 040 055
    000417  aa  040 114 141 164
    000420  aa  145 162 141 154
    000421  aa  040 124 141 160
    000422  aa  145 040 120 141
    000423  aa  162 151 164 171
    000424  aa  040 101 154 145
    000425  aa  162 164 056 000

                                    56  	ec	longitudinal_parity,MTS240,(Device Data Alert - Longitudinal Tape Parity Alert.)
                        000040          	segdef  longitudinal_parity
    000040  a0   077777 000430
    000426  aa  115 124 123 062         	aci  "MTS240",8
    000427  aa  064 060 040 040
    000430  aa  063 104 145 166         	acc  "Device Data Alert - Longitudinal Tape Parity Alert."
    000431  aa  151 143 145 040
    000432  aa  104 141 164 141
    000433  aa  040 101 154 145
    000434  aa  162 164 040 055
    000435  aa  040 114 157 156
    000436  aa  147 151 164 165
    000437  aa  144 151 156 141
    000440  aa  154 040 124 141
    000441  aa  160 145 040 120
    000442  aa  141 162 151 164
    000443  aa  171 040 101 154
    000444  aa  145 162 164 056

                                    57  	ec	end_of_tape,MTS250,(Device Data Alert - End of Tape Mark.)
                        000041          	segdef  end_of_tape
    000041  a0   077777 000447
    000445  aa  115 124 123 062         	aci  "MTS250",8
    000446  aa  065 060 040 040
    000447  aa  045 104 145 166         	acc  "Device Data Alert - End of Tape Mark."
    000450  aa  151 143 145 040
    000451  aa  104 141 164 141
    000452  aa  040 101 154 145
    000453  aa  162 164 040 055
    000454  aa  040 105 156 144
    000455  aa  040 157 146 040
    000456  aa  124 141 160 145
    000457  aa  040 115 141 162
    000460  aa  153 056 000 000

                                    58  	ec	mpc_device_data_alert,MTS260,(MPC Device Data Alert.)
                        000042          	segdef  mpc_device_data_alert
    000042  a0   077777 000463
    000461  aa  115 124 123 062         	aci  "MTS260",8
    000462  aa  066 060 040 040
    000463  aa  026 115 120 103         	acc  "MPC Device Data Alert."
    000464  aa  040 104 145 166
    000465  aa  151 143 145 040
    000466  aa  104 141 164 141
    000467  aa  040 101 154 145
    000470  aa  162 164 056 000

                                    59  	ec	transmission_alert,MTS270,(MPC Device Data Alert - Transmission Alert.)
                        000043          	segdef  transmission_alert
    000043  a0   077777 000473
    000471  aa  115 124 123 062         	aci  "MTS270",8
    000472  aa  067 060 040 040
    000473  aa  053 115 120 103         	acc  "MPC Device Data Alert - Transmission Alert."
    000474  aa  040 104 145 166
    000475  aa  151 143 145 040
    000476  aa  104 141 164 141
    000477  aa  040 101 154 145
    000500  aa  162 164 040 055
    000501  aa  040 124 162 141
    000502  aa  156 163 155 151
    000503  aa  163 163 151 157
    000504  aa  156 040 101 154
    000505  aa  145 162 164 056

                                    60  	ec	inconsistent_command,MTS280,(MPC Device Data Alert - Inconsistent Command.)
                        000044          	segdef  inconsistent_command
    000044  a0   077777 000510
    000506  aa  115 124 123 062         	aci  "MTS280",8
    000507  aa  070 060 040 040
    000510  aa  055 115 120 103         	acc  "MPC Device Data Alert - Inconsistent Command."
    000511  aa  040 104 145 166
    000512  aa  151 143 145 040
    000513  aa  104 141 164 141
    000514  aa  040 101 154 145
    000515  aa  162 164 040 055
    000516  aa  040 111 156 143
    000517  aa  157 156 163 151
    000520  aa  163 164 145 156
    000521  aa  164 040 103 157
    000522  aa  155 155 141 156
    000523  aa  144 056 000 000

                                    61  	ec	sum_check_error,MTS290,(MPC Device Data Alert - Sum Check Error.)
                        000045          	segdef  sum_check_error
    000045  a0   077777 000526
    000524  aa  115 124 123 062         	aci  "MTS290",8
    000525  aa  071 060 040 040
    000526  aa  050 115 120 103         	acc  "MPC Device Data Alert - Sum Check Error."
    000527  aa  040 104 145 166
    000530  aa  151 143 145 040
    000531  aa  104 141 164 141
    000532  aa  040 101 154 145
    000533  aa  162 164 040 055
    000534  aa  040 123 165 155
    000535  aa  040 103 150 145
    000536  aa  143 153 040 105
    000537  aa  162 162 157 162
    000540  aa  056 000 000 000

                                    62  	ec	byte_locked_out,MTS300,(MPC Device Data Alert - Byte Locked Out.)
                        000046          	segdef  byte_locked_out
    000046  a0   077777 000543
    000541  aa  115 124 123 063         	aci  "MTS300",8
    000542  aa  060 060 040 040
    000543  aa  050 115 120 103         	acc  "MPC Device Data Alert - Byte Locked Out."
    000544  aa  040 104 145 166
    000545  aa  151 143 145 040
    000546  aa  104 141 164 141
    000547  aa  040 101 154 145
    000550  aa  162 164 040 055
    000551  aa  040 102 171 164
    000552  aa  145 040 114 157
    000553  aa  143 153 145 144
    000554  aa  040 117 165 164
    000555  aa  056 000 000 000

                                    63  	ec	pe_burst_error,MTS310,(MPC Device Data Alert - PE-Burst Write Error.)
                        000047          	segdef  pe_burst_error
    000047  a0   077777 000560
    000556  aa  115 124 123 063         	aci  "MTS310",8
    000557  aa  061 060 040 040
    000560  aa  055 115 120 103         	acc  "MPC Device Data Alert - PE-Burst Write Error."
    000561  aa  040 104 145 166
    000562  aa  151 143 145 040
    000563  aa  104 141 164 141
    000564  aa  040 101 154 145
    000565  aa  162 164 040 055
    000566  aa  040 120 105 055
    000567  aa  102 165 162 163
    000570  aa  164 040 127 162
    000571  aa  151 164 145 040
    000572  aa  105 162 162 157
    000573  aa  162 056 000 000

                                    64  	ec	preamble_error,MTS320,(MPC Device Data Alert - Preamble Error.)
                        000050          	segdef  preamble_error
    000050  a0   077777 000576
    000574  aa  115 124 123 063         	aci  "MTS320",8
    000575  aa  062 060 040 040
    000576  aa  047 115 120 103         	acc  "MPC Device Data Alert - Preamble Error."
    000577  aa  040 104 145 166
    000600  aa  151 143 145 040
    000601  aa  104 141 164 141
    000602  aa  040 101 154 145
    000603  aa  162 164 040 055
    000604  aa  040 120 162 145
    000605  aa  141 155 142 154
    000606  aa  145 040 105 162
    000607  aa  162 157 162 056

                                    65  	ec	marginal_condition,MTS330,(MPC Device Data Alert - Marginal Condition.)
                        000051          	segdef  marginal_condition
    000051  a0   077777 000612
    000610  aa  115 124 123 063         	aci  "MTS330",8
    000611  aa  063 060 040 040
    000612  aa  053 115 120 103         	acc  "MPC Device Data Alert - Marginal Condition."
    000613  aa  040 104 145 166
    000614  aa  151 143 145 040
    000615  aa  104 141 164 141
    000616  aa  040 101 154 145
    000617  aa  162 164 040 055
    000620  aa  040 115 141 162
    000621  aa  147 151 156 141
    000622  aa  154 040 103 157
    000623  aa  156 144 151 164
    000624  aa  151 157 156 056

                                    66  	ec	multitrack_error,MTS340,(MPC Device Data Alert - Multitrack Error.)
                        000052          	segdef  multitrack_error
    000052  a0   077777 000627
    000625  aa  115 124 123 063         	aci  "MTS340",8
    000626  aa  064 060 040 040
    000627  aa  051 115 120 103         	acc  "MPC Device Data Alert - Multitrack Error."
    000630  aa  040 104 145 166
    000631  aa  151 143 145 040
    000632  aa  104 141 164 141
    000633  aa  040 101 154 145
    000634  aa  162 164 040 055
    000635  aa  040 115 165 154
    000636  aa  164 151 164 162
    000637  aa  141 143 153 040
    000640  aa  105 162 162 157
    000641  aa  162 056 000 000

                                    67  	ec	skew_error,MTS350,(MPC Device Data Alert - Skew Error.)
                        000053          	segdef  skew_error
    000053  a0   077777 000644
    000642  aa  115 124 123 063         	aci  "MTS350",8
    000643  aa  065 060 040 040
    000644  aa  043 115 120 103         	acc  "MPC Device Data Alert - Skew Error."
    000645  aa  040 104 145 166
    000646  aa  151 143 145 040
    000647  aa  104 141 164 141
    000650  aa  040 101 154 145
    000651  aa  162 164 040 055
    000652  aa  040 123 153 145
    000653  aa  167 040 105 162
    000654  aa  162 157 162 056

                                    68  	ec	postamble_error,MTS360,(MPC Device Data Alert - Postamble Error.)
                        000054          	segdef  postamble_error
    000054  a0   077777 000657
    000655  aa  115 124 123 063         	aci  "MTS360",8
    000656  aa  066 060 040 040
    000657  aa  050 115 120 103         	acc  "MPC Device Data Alert - Postamble Error."
    000660  aa  040 104 145 166
    000661  aa  151 143 145 040
    000662  aa  104 141 164 141
    000663  aa  040 101 154 145
    000664  aa  162 164 040 055
    000665  aa  040 120 157 163
    000666  aa  164 141 155 142
    000667  aa  154 145 040 105
    000670  aa  162 162 157 162
    000671  aa  056 000 000 000

                                    69  	ec	nrzi_ccc_error,MTS370,(MPC Device Data Alert - NRZI CCC Error.)
                        000055          	segdef  nrzi_ccc_error
    000055  a0   077777 000674
    000672  aa  115 124 123 063         	aci  "MTS370",8
    000673  aa  067 060 040 040
    000674  aa  047 115 120 103         	acc  "MPC Device Data Alert - NRZI CCC Error."
    000675  aa  040 104 145 166
    000676  aa  151 143 145 040
    000677  aa  104 141 164 141
    000700  aa  040 101 154 145
    000701  aa  162 164 040 055
    000702  aa  040 116 122 132
    000703  aa  111 040 103 103
    000704  aa  103 040 105 162
    000705  aa  162 157 162 056

                                    70  	ec	code_alert,MTS380,(MPC Device Data Alert - Code Alert.)
                        000056          	segdef  code_alert
    000056  a0   077777 000710
    000706  aa  115 124 123 063         	aci  "MTS380",8
    000707  aa  070 060 040 040
    000710  aa  043 115 120 103         	acc  "MPC Device Data Alert - Code Alert."
    000711  aa  040 104 145 166
    000712  aa  151 143 145 040
    000713  aa  104 141 164 141
    000714  aa  040 101 154 145
    000715  aa  162 164 040 055
    000716  aa  040 103 157 144
    000717  aa  145 040 101 154
    000720  aa  145 162 164 056

                                    71  	ec	device_attention,MTS390,(Device Attention.)
                        000057          	segdef  device_attention
    000057  a0   077777 000723
    000721  aa  115 124 123 063         	aci  "MTS390",8
    000722  aa  071 060 040 040
    000723  aa  021 104 145 166         	acc  "Device Attention."
    000724  aa  151 143 145 040
    000725  aa  101 164 164 145
    000726  aa  156 164 151 157
    000727  aa  156 056 000 000

                                    72  	ec	write_protect_attention,MTS400,(Device Attention - Write Protected.)
                        000060          	segdef  write_protect_attention
    000060  a0   077777 000732
    000730  aa  115 124 123 064         	aci  "MTS400",8
    000731  aa  060 060 040 040
    000732  aa  043 104 145 166         	acc  "Device Attention - Write Protected."
    000733  aa  151 143 145 040
    000734  aa  101 164 164 145
    000735  aa  156 164 151 157
    000736  aa  156 040 055 040
    000737  aa  127 162 151 164
    000740  aa  145 040 120 162
    000741  aa  157 164 145 143
    000742  aa  164 145 144 056

                                    73  	ec	no_such_device,MTS410,(Device Attention - No Such Device.)
                        000061          	segdef  no_such_device
    000061  a0   077777 000745
    000743  aa  115 124 123 064         	aci  "MTS410",8
    000744  aa  061 060 040 040
    000745  aa  042 104 145 166         	acc  "Device Attention - No Such Device."
    000746  aa  151 143 145 040
    000747  aa  101 164 164 145
    000750  aa  156 164 151 157
    000751  aa  156 040 055 040
    000752  aa  116 157 040 123
    000753  aa  165 143 150 040
    000754  aa  104 145 166 151
    000755  aa  143 145 056 000

                                    74  	ec	device_in_standby,MTS420,(Device Attention - Device in Standby.)
                        000062          	segdef  device_in_standby
    000062  a0   077777 000760
    000756  aa  115 124 123 064         	aci  "MTS420",8
    000757  aa  062 060 040 040
    000760  aa  045 104 145 166         	acc  "Device Attention - Device in Standby."
    000761  aa  151 143 145 040
    000762  aa  101 164 164 145
    000763  aa  156 164 151 157
    000764  aa  156 040 055 040
    000765  aa  104 145 166 151
    000766  aa  143 145 040 151
    000767  aa  156 040 123 164
    000770  aa  141 156 144 142
    000771  aa  171 056 000 000

                                    75  	ec	device_check,MTS430,(Device Attention - Device Check.)
                        000063          	segdef  device_check
    000063  a0   077777 000774
    000772  aa  115 124 123 064         	aci  "MTS430",8
    000773  aa  063 060 040 040
    000774  aa  040 104 145 166         	acc  "Device Attention - Device Check."
    000775  aa  151 143 145 040
    000776  aa  101 164 164 145
    000777  aa  156 164 151 157
    001000  aa  156 040 055 040
    001001  aa  104 145 166 151
    001002  aa  143 145 040 103
    001003  aa  150 145 143 153
    001004  aa  056 000 000 000

                                    76  	ec	blank_tape_on_write,MTS440,(Device Attention - Blank Tape on Write.)
                        000064          	segdef  blank_tape_on_write
    000064  a0   077777 001007
    001005  aa  115 124 123 064         	aci  "MTS440",8
    001006  aa  064 060 040 040
    001007  aa  047 104 145 166         	acc  "Device Attention - Blank Tape on Write."
    001010  aa  151 143 145 040
    001011  aa  101 164 164 145
    001012  aa  156 164 151 157
    001013  aa  156 040 055 040
    001014  aa  102 154 141 156
    001015  aa  153 040 124 141
    001016  aa  160 145 040 157
    001017  aa  156 040 127 162
    001020  aa  151 164 145 056

                                    77  	ec	mpc_device_attention,MTS450,(MPC Device Attention.)
                        000065          	segdef  mpc_device_attention
    000065  a0   077777 001023
    001021  aa  115 124 123 064         	aci  "MTS450",8
    001022  aa  065 060 040 040
    001023  aa  025 115 120 103         	acc  "MPC Device Attention."
    001024  aa  040 104 145 166
    001025  aa  151 143 145 040
    001026  aa  101 164 164 145
    001027  aa  156 164 151 157
    001030  aa  156 056 000 000

                                    78  	ec	configuration_error,MTS460,(MPC Device Attention - Configuration Switch Error.)
                        000066          	segdef  configuration_error
    000066  a0   077777 001033
    001031  aa  115 124 123 064         	aci  "MTS460",8
    001032  aa  066 060 040 040
    001033  aa  062 115 120 103         	acc  "MPC Device Attention - Configuration Switch Error."
    001034  aa  040 104 145 166
    001035  aa  151 143 145 040
    001036  aa  101 164 164 145
    001037  aa  156 164 151 157
    001040  aa  156 040 055 040
    001041  aa  103 157 156 146
    001042  aa  151 147 165 162
    001043  aa  141 164 151 157
    001044  aa  156 040 123 167
    001045  aa  151 164 143 150
    001046  aa  040 105 162 162
    001047  aa  157 162 056 000

                                    79  	ec	multiple_devices,MTS470,(MPC Device Attention - Multiple Devices.)
                        000067          	segdef  multiple_devices
    000067  a0   077777 001052
    001050  aa  115 124 123 064         	aci  "MTS470",8
    001051  aa  067 060 040 040
    001052  aa  050 115 120 103         	acc  "MPC Device Attention - Multiple Devices."
    001053  aa  040 104 145 166
    001054  aa  151 143 145 040
    001055  aa  101 164 164 145
    001056  aa  156 164 151 157
    001057  aa  156 040 055 040
    001060  aa  115 165 154 164
    001061  aa  151 160 154 145
    001062  aa  040 104 145 166
    001063  aa  151 143 145 163
    001064  aa  056 000 000 000

                                    80  	ec	illegal_device_id,MTS480,(MPC Device Attention - Illegal Device ID Number.)
                        000070          	segdef  illegal_device_id
    000070  a0   077777 001067
    001065  aa  115 124 123 064         	aci  "MTS480",8
    001066  aa  070 060 040 040
    001067  aa  060 115 120 103         	acc  "MPC Device Attention - Illegal Device ID Number."
    001070  aa  040 104 145 166
    001071  aa  151 143 145 040
    001072  aa  101 164 164 145
    001073  aa  156 164 151 157
    001074  aa  156 040 055 040
    001075  aa  111 154 154 145
    001076  aa  147 141 154 040
    001077  aa  104 145 166 151
    001100  aa  143 145 040 111
    001101  aa  104 040 116 165
    001102  aa  155 142 145 162
    001103  aa  056 000 000 000

                                    81  	ec	incompatible_mode,MTS490,(MPC Device Attention - Incompatible Mode.)
                        000071          	segdef  incompatible_mode
    000071  a0   077777 001106
    001104  aa  115 124 123 064         	aci  "MTS490",8
    001105  aa  071 060 040 040
    001106  aa  051 115 120 103         	acc  "MPC Device Attention - Incompatible Mode."
    001107  aa  040 104 145 166
    001110  aa  151 143 145 040
    001111  aa  101 164 164 145
    001112  aa  156 164 151 157
    001113  aa  156 040 055 040
    001114  aa  111 156 143 157
    001115  aa  155 160 141 164
    001116  aa  151 142 154 145
    001117  aa  040 115 157 144
    001120  aa  145 056 000 000

                                    82  	ec	tca_malfunction_port0,MTS500,(MPC Device Attention - TCA Malfunction Port 0.)
                        000072          	segdef  tca_malfunction_port0
    000072  a0   077777 001123
    001121  aa  115 124 123 065         	aci  "MTS500",8
    001122  aa  060 060 040 040
    001123  aa  056 115 120 103         	acc  "MPC Device Attention - TCA Malfunction Port 0."
    001124  aa  040 104 145 166
    001125  aa  151 143 145 040
    001126  aa  101 164 164 145
    001127  aa  156 164 151 157
    001130  aa  156 040 055 040
    001131  aa  124 103 101 040
    001132  aa  115 141 154 146
    001133  aa  165 156 143 164
    001134  aa  151 157 156 040
    001135  aa  120 157 162 164
    001136  aa  040 060 056 000

                                    83  	ec	tca_malfunction_port1,MTS510,(MPC Device Attention - TCA Malfunction Port 1.)
                        000073          	segdef  tca_malfunction_port1
    000073  a0   077777 001141
    001137  aa  115 124 123 065         	aci  "MTS510",8
    001140  aa  061 060 040 040
    001141  aa  056 115 120 103         	acc  "MPC Device Attention - TCA Malfunction Port 1."
    001142  aa  040 104 145 166
    001143  aa  151 143 145 040
    001144  aa  101 164 164 145
    001145  aa  156 164 151 157
    001146  aa  156 040 055 040
    001147  aa  124 103 101 040
    001150  aa  115 141 154 146
    001151  aa  165 156 143 164
    001152  aa  151 157 156 040
    001153  aa  120 157 162 164
    001154  aa  040 061 056 000

                                    84  	ec	tca_malfunction_port2,MTS520,(MPC Device Attention - TCA Malfunction Port 2.)
                        000074          	segdef  tca_malfunction_port2
    000074  a0   077777 001157
    001155  aa  115 124 123 065         	aci  "MTS520",8
    001156  aa  062 060 040 040
    001157  aa  056 115 120 103         	acc  "MPC Device Attention - TCA Malfunction Port 2."
    001160  aa  040 104 145 166
    001161  aa  151 143 145 040
    001162  aa  101 164 164 145
    001163  aa  156 164 151 157
    001164  aa  156 040 055 040
    001165  aa  124 103 101 040
    001166  aa  115 141 154 146
    001167  aa  165 156 143 164
    001170  aa  151 157 156 040
    001171  aa  120 157 162 164
    001172  aa  040 062 056 000

                                    85  	ec	tca_malfunction_port3,MTS530,(MPC Device Attention - TCA Malfunction Port 3.)
                        000075          	segdef  tca_malfunction_port3
    000075  a0   077777 001175
    001173  aa  115 124 123 065         	aci  "MTS530",8
    001174  aa  063 060 040 040
    001175  aa  056 115 120 103         	acc  "MPC Device Attention - TCA Malfunction Port 3."
    001176  aa  040 104 145 166
    001177  aa  151 143 145 040
    001200  aa  101 164 164 145
    001201  aa  156 164 151 157
    001202  aa  156 040 055 040
    001203  aa  124 103 101 040
    001204  aa  115 141 154 146
    001205  aa  165 156 143 164
    001206  aa  151 157 156 040
    001207  aa  120 157 162 164
    001210  aa  040 063 056 000

                                    86  	ec	mth_malfunction,MTS540,(MPC Device Attention - MTH Malfunction.)
                        000076          	segdef  mth_malfunction
    000076  a0   077777 001213
    001211  aa  115 124 123 065         	aci  "MTS540",8
    001212  aa  064 060 040 040
    001213  aa  047 115 120 103         	acc  "MPC Device Attention - MTH Malfunction."
    001214  aa  040 104 145 166
    001215  aa  151 143 145 040
    001216  aa  101 164 164 145
    001217  aa  156 164 151 157
    001220  aa  156 040 055 040
    001221  aa  115 124 110 040
    001222  aa  115 141 154 146
    001223  aa  165 156 143 164
    001224  aa  151 157 156 056

                                    87  	ec	multiple_bot,MTS550,(MPC Device Attention - Multiple BOT.)
                        000077          	segdef  multiple_bot
    000077  a0   077777 001227
    001225  aa  115 124 123 065         	aci  "MTS550",8
    001226  aa  065 060 040 040
    001227  aa  044 115 120 103         	acc  "MPC Device Attention - Multiple BOT."
    001230  aa  040 104 145 166
    001231  aa  151 143 145 040
    001232  aa  101 164 164 145
    001233  aa  156 164 151 157
    001234  aa  156 040 055 040
    001235  aa  115 165 154 164
    001236  aa  151 160 154 145
    001237  aa  040 102 117 124
    001240  aa  056 000 000 000

                                    88  	ec	device_busy,MTS560,(Device Busy.)
                        000100          	segdef  device_busy
    000100  a0   077777 001243
    001241  aa  115 124 123 065         	aci  "MTS560",8
    001242  aa  066 060 040 040
    001243  aa  014 104 145 166         	acc  "Device Busy."
    001244  aa  151 143 145 040
    001245  aa  102 165 163 171
    001246  aa  056 000 000 000

                                    89  	ec	in_rewind,MTS570,(Device Busy - In Rewind.)
                        000101          	segdef  in_rewind
    000101  a0   077777 001251
    001247  aa  115 124 123 065         	aci  "MTS570",8
    001250  aa  067 060 040 040
    001251  aa  030 104 145 166         	acc  "Device Busy - In Rewind."
    001252  aa  151 143 145 040
    001253  aa  102 165 163 171
    001254  aa  040 055 040 111
    001255  aa  156 040 122 145
    001256  aa  167 151 156 144
    001257  aa  056 000 000 000

                                    90  	ec	device_reserved,MTS580,(Device Busy - Device Reserved.)
                        000102          	segdef  device_reserved
    000102  a0   077777 001262
    001260  aa  115 124 123 065         	aci  "MTS580",8
    001261  aa  070 060 040 040
    001262  aa  036 104 145 166         	acc  "Device Busy - Device Reserved."
    001263  aa  151 143 145 040
    001264  aa  102 165 163 171
    001265  aa  040 055 040 104
    001266  aa  145 166 151 143
    001267  aa  145 040 122 145
    001270  aa  163 145 162 166
    001271  aa  145 144 056 000

                                    91  	ec	alternate_channel,MTS590,(Device Busy - Alternate Channel in Control.)
                        000103          	segdef  alternate_channel
    000103  a0   077777 001274
    001272  aa  115 124 123 065         	aci  "MTS590",8
    001273  aa  071 060 040 040
    001274  aa  053 104 145 166         	acc  "Device Busy - Alternate Channel in Control."
    001275  aa  151 143 145 040
    001276  aa  102 165 163 171
    001277  aa  040 055 040 101
    001300  aa  154 164 145 162
    001301  aa  156 141 164 145
    001302  aa  040 103 150 141
    001303  aa  156 156 145 154
    001304  aa  040 151 156 040
    001305  aa  103 157 156 164
    001306  aa  162 157 154 056

                                    92  	ec	device_loading,MTS600,(Device Busy - Device Loading.)
                        000104          	segdef  device_loading
    000104  a0   077777 001311
    001307  aa  115 124 123 066         	aci  "MTS600",8
    001310  aa  060 060 040 040
    001311  aa  035 104 145 166         	acc  "Device Busy - Device Loading."
    001312  aa  151 143 145 040
    001313  aa  102 165 163 171
    001314  aa  040 055 040 104
    001315  aa  145 166 151 143
    001316  aa  145 040 114 157
    001317  aa  141 144 151 156
    001320  aa  147 056 000 000

                                    93  	ec	subsystem_ready,MTS610,(Peripheral Subsystem Ready.)
                        000105          	segdef  subsystem_ready
    000105  a0   077777 001323
    001321  aa  115 124 123 066         	aci  "MTS610",8
    001322  aa  061 060 040 040
    001323  aa  033 120 145 162         	acc  "Peripheral Subsystem Ready."
    001324  aa  151 160 150 145
    001325  aa  162 141 154 040
    001326  aa  123 165 142 163
    001327  aa  171 163 164 145
    001330  aa  155 040 122 145
    001331  aa  141 144 171 056

                                    94  	ec	device_ready,MTS620,(Peripheral Subsystem Ready - Device Ready.)
                        000106          	segdef  device_ready
    000106  a0   077777 001334
    001332  aa  115 124 123 066         	aci  "MTS620",8
    001333  aa  062 060 040 040
    001334  aa  052 120 145 162         	acc  "Peripheral Subsystem Ready - Device Ready."
    001335  aa  151 160 150 145
    001336  aa  162 141 154 040
    001337  aa  123 165 142 163
    001340  aa  171 163 164 145
    001341  aa  155 040 122 145
    001342  aa  141 144 171 040
    001343  aa  055 040 104 145
    001344  aa  166 151 143 145
    001345  aa  040 122 145 141
    001346  aa  144 171 056 000

                                    95  	ec	write_protected,MTS630,(Peripheral Subsystem Ready - Write Protected)
                        000107          	segdef  write_protected
    000107  a0   077777 001351
    001347  aa  115 124 123 066         	aci  "MTS630",8
    001350  aa  063 060 040 040
    001351  aa  054 120 145 162         	acc  "Peripheral Subsystem Ready - Write Protected"
    001352  aa  151 160 150 145
    001353  aa  162 141 154 040
    001354  aa  123 165 142 163
    001355  aa  171 163 164 145
    001356  aa  155 040 122 145
    001357  aa  141 144 171 040
    001360  aa  055 040 127 162
    001361  aa  151 164 145 040
    001362  aa  120 162 157 164
    001363  aa  145 143 164 145
    001364  aa  144 000 000 000

                                    96  	ec	ready_at_bot,MTS640,(Peripheral Subsystem Ready - Positioned at BOT)
                        000110          	segdef  ready_at_bot
    000110  a0   077777 001367
    001365  aa  115 124 123 066         	aci  "MTS640",8
    001366  aa  064 060 040 040
    001367  aa  056 120 145 162         	acc  "Peripheral Subsystem Ready - Positioned at BOT"
    001370  aa  151 160 150 145
    001371  aa  162 141 154 040
    001372  aa  123 165 142 163
    001373  aa  171 163 164 145
    001374  aa  155 040 122 145
    001375  aa  141 144 171 040
    001376  aa  055 040 120 157
    001377  aa  163 151 164 151
    001400  aa  157 156 145 144
    001401  aa  040 141 164 040
    001402  aa  102 117 124 000

                                    97  	ec	nine_track_handler,MTS650,(Peripheral Subsystem Ready - 9-Track Handler.)
                        000111          	segdef  nine_track_handler
    000111  a0   077777 001405
    001403  aa  115 124 123 066         	aci  "MTS650",8
    001404  aa  065 060 040 040
    001405  aa  055 120 145 162         	acc  "Peripheral Subsystem Ready - 9-Track Handler."
    001406  aa  151 160 150 145
    001407  aa  162 141 154 040
    001410  aa  123 165 142 163
    001411  aa  171 163 164 145
    001412  aa  155 040 122 145
    001413  aa  141 144 171 040
    001414  aa  055 040 071 055
    001415  aa  124 162 141 143
    001416  aa  153 040 110 141
    001417  aa  156 144 154 145
    001420  aa  162 056 000 000

                                    98  	ec	two_bit_fill,MTS660,(Peripheral Subsystem Ready - 2-Bit Fill.)
                        000112          	segdef  two_bit_fill
    000112  a0   077777 001423
    001421  aa  115 124 123 066         	aci  "MTS660",8
    001422  aa  066 060 040 040
    001423  aa  050 120 145 162         	acc  "Peripheral Subsystem Ready - 2-Bit Fill."
    001424  aa  151 160 150 145
    001425  aa  162 141 154 040
    001426  aa  123 165 142 163
    001427  aa  171 163 164 145
    001430  aa  155 040 122 145
    001431  aa  141 144 171 040
    001432  aa  055 040 062 055
    001433  aa  102 151 164 040
    001434  aa  106 151 154 154
    001435  aa  056 000 000 000

                                    99  	ec	four_bit_fill,MTS670,(Peripheral Subsystem Ready - 4-Bit Fill.)
                        000113          	segdef  four_bit_fill
    000113  a0   077777 001440
    001436  aa  115 124 123 066         	aci  "MTS670",8
    001437  aa  067 060 040 040
    001440  aa  050 120 145 162         	acc  "Peripheral Subsystem Ready - 4-Bit Fill."
    001441  aa  151 160 150 145
    001442  aa  162 141 154 040
    001443  aa  123 165 142 163
    001444  aa  171 163 164 145
    001445  aa  155 040 122 145
    001446  aa  141 144 171 040
    001447  aa  055 040 064 055
    001450  aa  102 151 164 040
    001451  aa  106 151 154 154
    001452  aa  056 000 000 000

                                   100  	ec	six_bit_fill,MTS680,(Peripheral Subsystem Ready - 6-Bit Fill.)
                        000114          	segdef  six_bit_fill
    000114  a0   077777 001455
    001453  aa  115 124 123 066         	aci  "MTS680",8
    001454  aa  070 060 040 040
    001455  aa  050 120 145 162         	acc  "Peripheral Subsystem Ready - 6-Bit Fill."
    001456  aa  151 160 150 145
    001457  aa  162 141 154 040
    001460  aa  123 165 142 163
    001461  aa  171 163 164 145
    001462  aa  155 040 122 145
    001463  aa  141 144 171 040
    001464  aa  055 040 066 055
    001465  aa  102 151 164 040
    001466  aa  106 151 154 154
    001467  aa  056 000 000 000

                                   101  	ec	ascii_alert,MTS690,(Peripheral Subsystem Ready - ASCII Alert.)
                        000115          	segdef  ascii_alert
    000115  a0   077777 001472
    001470  aa  115 124 123 066         	aci  "MTS690",8
    001471  aa  071 060 040 040
    001472  aa  051 120 145 162         	acc  "Peripheral Subsystem Ready - ASCII Alert."
    001473  aa  151 160 150 145
    001474  aa  162 141 154 040
    001475  aa  123 165 142 163
    001476  aa  171 163 164 145
    001477  aa  155 040 122 145
    001500  aa  141 144 171 040
    001501  aa  055 040 101 123
    001502  aa  103 111 111 040
    001503  aa  101 154 145 162
    001504  aa  164 056 000 000

                                   102
                                   103  	end

NO LITERALS

NAME DEFINITIONS FOR ENTRY POINTS AND SEGDEFS

    001506  5a   000003 000000
    001507  5a   001037 600000
    001510  aa   000000 000000
    001511  55   000012 000002
    001512  5a   000002 400003
    001513  55   000006 000012
    001514  aa  014 164 141 160
    001515  aa  145 137 163 164
    001516  aa  141 164 165 163
    001517  aa  137 000 000 000
    001520  55   000020 000003
    001521  2a   000115 400001
    001522  55   000015 000003
    001523  aa  013 141 163 143         ascii_alert
    001524  aa  151 151 137 141
    001525  aa  154 145 162 164
    001526  55   000027 000012
    001527  2a   000114 400001
    001530  55   000023 000003
    001531  aa  014 163 151 170         six_bit_fill
    001532  aa  137 142 151 164
    001533  aa  137 146 151 154
    001534  aa  154 000 000 000
    001535  55   000036 000020
    001536  2a   000113 400001
    001537  55   000032 000003
    001540  aa  015 146 157 165         four_bit_fill
    001541  aa  162 137 142 151
    001542  aa  164 137 146 151
    001543  aa  154 154 000 000
    001544  55   000045 000027
    001545  2a   000112 400001
    001546  55   000041 000003
    001547  aa  014 164 167 157         two_bit_fill
    001550  aa  137 142 151 164
    001551  aa  137 146 151 154
    001552  aa  154 000 000 000
    001553  55   000055 000036
    001554  2a   000111 400001
    001555  55   000050 000003
    001556  aa  022 156 151 156         nine_track_handler
    001557  aa  145 137 164 162
    001560  aa  141 143 153 137
    001561  aa  150 141 156 144
    001562  aa  154 145 162 000
    001563  55   000064 000045
    001564  2a   000110 400001
    001565  55   000060 000003
    001566  aa  014 162 145 141         ready_at_bot
    001567  aa  144 171 137 141
    001570  aa  164 137 142 157
    001571  aa  164 000 000 000
    001572  55   000073 000055
    001573  2a   000107 400001
    001574  55   000067 000003
    001575  aa  017 167 162 151         write_protected
    001576  aa  164 145 137 160
    001577  aa  162 157 164 145
    001600  aa  143 164 145 144
    001601  55   000102 000064
    001602  2a   000106 400001
    001603  55   000076 000003
    001604  aa  014 144 145 166         device_ready
    001605  aa  151 143 145 137
    001606  aa  162 145 141 144
    001607  aa  171 000 000 000
    001610  55   000111 000073
    001611  2a   000105 400001
    001612  55   000105 000003
    001613  aa  017 163 165 142         subsystem_ready
    001614  aa  163 171 163 164
    001615  aa  145 155 137 162
    001616  aa  145 141 144 171
    001617  55   000120 000102
    001620  2a   000104 400001
    001621  55   000114 000003
    001622  aa  016 144 145 166         device_loading
    001623  aa  151 143 145 137
    001624  aa  154 157 141 144
    001625  aa  151 156 147 000
    001626  55   000130 000111
    001627  2a   000103 400001
    001630  55   000123 000003
    001631  aa  021 141 154 164         alternate_channel
    001632  aa  145 162 156 141
    001633  aa  164 145 137 143
    001634  aa  150 141 156 156
    001635  aa  145 154 000 000
    001636  55   000137 000120
    001637  2a   000102 400001
    001640  55   000133 000003
    001641  aa  017 144 145 166         device_reserved
    001642  aa  151 143 145 137
    001643  aa  162 145 163 145
    001644  aa  162 166 145 144
    001645  55   000145 000130
    001646  2a   000101 400001
    001647  55   000142 000003
    001650  aa  011 151 156 137         in_rewind
    001651  aa  162 145 167 151
    001652  aa  156 144 000 000
    001653  55   000153 000137
    001654  2a   000100 400001
    001655  55   000150 000003
    001656  aa  013 144 145 166         device_busy
    001657  aa  151 143 145 137
    001660  aa  142 165 163 171
    001661  55   000162 000145
    001662  2a   000077 400001
    001663  55   000156 000003
    001664  aa  014 155 165 154         multiple_bot
    001665  aa  164 151 160 154
    001666  aa  145 137 142 157
    001667  aa  164 000 000 000
    001670  55   000171 000153
    001671  2a   000076 400001
    001672  55   000165 000003
    001673  aa  017 155 164 150         mth_malfunction
    001674  aa  137 155 141 154
    001675  aa  146 165 156 143
    001676  aa  164 151 157 156
    001677  55   000202 000162
    001700  2a   000075 400001
    001701  55   000174 000003
    001702  aa  025 164 143 141         tca_malfunction_port3
    001703  aa  137 155 141 154
    001704  aa  146 165 156 143
    001705  aa  164 151 157 156
    001706  aa  137 160 157 162
    001707  aa  164 063 000 000
    001710  55   000213 000171
    001711  2a   000074 400001
    001712  55   000205 000003
    001713  aa  025 164 143 141         tca_malfunction_port2
    001714  aa  137 155 141 154
    001715  aa  146 165 156 143
    001716  aa  164 151 157 156
    001717  aa  137 160 157 162
    001720  aa  164 062 000 000
    001721  55   000224 000202
    001722  2a   000073 400001
    001723  55   000216 000003
    001724  aa  025 164 143 141         tca_malfunction_port1
    001725  aa  137 155 141 154
    001726  aa  146 165 156 143
    001727  aa  164 151 157 156
    001730  aa  137 160 157 162
    001731  aa  164 061 000 000
    001732  55   000235 000213
    001733  2a   000072 400001
    001734  55   000227 000003
    001735  aa  025 164 143 141         tca_malfunction_port0
    001736  aa  137 155 141 154
    001737  aa  146 165 156 143
    001740  aa  164 151 157 156
    001741  aa  137 160 157 162
    001742  aa  164 060 000 000
    001743  55   000245 000224
    001744  2a   000071 400001
    001745  55   000240 000003
    001746  aa  021 151 156 143         incompatible_mode
    001747  aa  157 155 160 141
    001750  aa  164 151 142 154
    001751  aa  145 137 155 157
    001752  aa  144 145 000 000
    001753  55   000255 000235
    001754  2a   000070 400001
    001755  55   000250 000003
    001756  aa  021 151 154 154         illegal_device_id
    001757  aa  145 147 141 154
    001760  aa  137 144 145 166
    001761  aa  151 143 145 137
    001762  aa  151 144 000 000
    001763  55   000265 000245
    001764  2a   000067 400001
    001765  55   000260 000003
    001766  aa  020 155 165 154         multiple_devices
    001767  aa  164 151 160 154
    001770  aa  145 137 144 145
    001771  aa  166 151 143 145
    001772  aa  163 000 000 000
    001773  55   000275 000255
    001774  2a   000066 400001
    001775  55   000270 000003
    001776  aa  023 143 157 156         configuration_error
    001777  aa  146 151 147 165
    002000  aa  162 141 164 151
    002001  aa  157 156 137 145
    002002  aa  162 162 157 162
    002003  55   000306 000265
    002004  2a   000065 400001
    002005  55   000300 000003
    002006  aa  024 155 160 143         mpc_device_attention
    002007  aa  137 144 145 166
    002010  aa  151 143 145 137
    002011  aa  141 164 164 145
    002012  aa  156 164 151 157
    002013  aa  156 000 000 000
    002014  55   000316 000275
    002015  2a   000064 400001
    002016  55   000311 000003
    002017  aa  023 142 154 141         blank_tape_on_write
    002020  aa  156 153 137 164
    002021  aa  141 160 145 137
    002022  aa  157 156 137 167
    002023  aa  162 151 164 145
    002024  55   000325 000306
    002025  2a   000063 400001
    002026  55   000321 000003
    002027  aa  014 144 145 166         device_check
    002030  aa  151 143 145 137
    002031  aa  143 150 145 143
    002032  aa  153 000 000 000
    002033  55   000335 000316
    002034  2a   000062 400001
    002035  55   000330 000003
    002036  aa  021 144 145 166         device_in_standby
    002037  aa  151 143 145 137
    002040  aa  151 156 137 163
    002041  aa  164 141 156 144
    002042  aa  142 171 000 000
    002043  55   000344 000325
    002044  2a   000061 400001
    002045  55   000340 000003
    002046  aa  016 156 157 137         no_such_device
    002047  aa  163 165 143 150
    002050  aa  137 144 145 166
    002051  aa  151 143 145 000
    002052  55   000355 000335
    002053  2a   000060 400001
    002054  55   000347 000003
    002055  aa  027 167 162 151         write_protect_attention
    002056  aa  164 145 137 160
    002057  aa  162 157 164 145
    002060  aa  143 164 137 141
    002061  aa  164 164 145 156
    002062  aa  164 151 157 156
    002063  55   000365 000344
    002064  2a   000057 400001
    002065  55   000360 000003
    002066  aa  020 144 145 166         device_attention
    002067  aa  151 143 145 137
    002070  aa  141 164 164 145
    002071  aa  156 164 151 157
    002072  aa  156 000 000 000
    002073  55   000373 000355
    002074  2a   000056 400001
    002075  55   000370 000003
    002076  aa  012 143 157 144         code_alert
    002077  aa  145 137 141 154
    002100  aa  145 162 164 000
    002101  55   000402 000365
    002102  2a   000055 400001
    002103  55   000376 000003
    002104  aa  016 156 162 172         nrzi_ccc_error
    002105  aa  151 137 143 143
    002106  aa  143 137 145 162
    002107  aa  162 157 162 000
    002110  55   000411 000373
    002111  2a   000054 400001
    002112  55   000405 000003
    002113  aa  017 160 157 163         postamble_error
    002114  aa  164 141 155 142
    002115  aa  154 145 137 145
    002116  aa  162 162 157 162
    002117  55   000417 000402
    002120  2a   000053 400001
    002121  55   000414 000003
    002122  aa  012 163 153 145         skew_error
    002123  aa  167 137 145 162
    002124  aa  162 157 162 000
    002125  55   000427 000411
    002126  2a   000052 400001
    002127  55   000422 000003
    002130  aa  020 155 165 154         multitrack_error
    002131  aa  164 151 164 162
    002132  aa  141 143 153 137
    002133  aa  145 162 162 157
    002134  aa  162 000 000 000
    002135  55   000437 000417
    002136  2a   000051 400001
    002137  55   000432 000003
    002140  aa  022 155 141 162         marginal_condition
    002141  aa  147 151 156 141
    002142  aa  154 137 143 157
    002143  aa  156 144 151 164
    002144  aa  151 157 156 000
    002145  55   000446 000427
    002146  2a   000050 400001
    002147  55   000442 000003
    002150  aa  016 160 162 145         preamble_error
    002151  aa  141 155 142 154
    002152  aa  145 137 145 162
    002153  aa  162 157 162 000
    002154  55   000455 000437
    002155  2a   000047 400001
    002156  55   000451 000003
    002157  aa  016 160 145 137         pe_burst_error
    002160  aa  142 165 162 163
    002161  aa  164 137 145 162
    002162  aa  162 157 162 000
    002163  55   000464 000446
    002164  2a   000046 400001
    002165  55   000460 000003
    002166  aa  017 142 171 164         byte_locked_out
    002167  aa  145 137 154 157
    002170  aa  143 153 145 144
    002171  aa  137 157 165 164
    002172  55   000473 000455
    002173  2a   000045 400001
    002174  55   000467 000003
    002175  aa  017 163 165 155         sum_check_error
    002176  aa  137 143 150 145
    002177  aa  143 153 137 145
    002200  aa  162 162 157 162
    002201  55   000504 000464
    002202  2a   000044 400001
    002203  55   000476 000003
    002204  aa  024 151 156 143         inconsistent_command
    002205  aa  157 156 163 151
    002206  aa  163 164 145 156
    002207  aa  164 137 143 157
    002210  aa  155 155 141 156
    002211  aa  144 000 000 000
    002212  55   000514 000473
    002213  2a   000043 400001
    002214  55   000507 000003
    002215  aa  022 164 162 141         transmission_alert
    002216  aa  156 163 155 151
    002217  aa  163 163 151 157
    002220  aa  156 137 141 154
    002221  aa  145 162 164 000
    002222  55   000525 000504
    002223  2a   000042 400001
    002224  55   000517 000003
    002225  aa  025 155 160 143         mpc_device_data_alert
    002226  aa  137 144 145 166
    002227  aa  151 143 145 137
    002230  aa  144 141 164 141
    002231  aa  137 141 154 145
    002232  aa  162 164 000 000
    002233  55   000533 000514
    002234  2a   000041 400001
    002235  55   000530 000003
    002236  aa  013 145 156 144         end_of_tape
    002237  aa  137 157 146 137
    002240  aa  164 141 160 145
    002241  55   000543 000525
    002242  2a   000040 400001
    002243  55   000536 000003
    002244  aa  023 154 157 156         longitudinal_parity
    002245  aa  147 151 164 165
    002246  aa  144 151 156 141
    002247  aa  154 137 160 141
    002250  aa  162 151 164 171
    002251  55   000552 000533
    002252  2a   000037 400001
    002253  55   000546 000003
    002254  aa  016 154 141 164         lateral_parity
    002255  aa  145 162 141 154
    002256  aa  137 160 141 162
    002257  aa  151 164 171 000
    002260  55   000562 000543
    002261  2a   000036 400001
    002262  55   000555 000003
    002263  aa  023 164 162 141         transmission_parity
    002264  aa  156 163 155 151
    002265  aa  163 163 151 157
    002266  aa  156 137 160 141
    002267  aa  162 151 164 171
    002270  55   000572 000552
    002271  2a   000035 400001
    002272  55   000565 000003
    002273  aa  020 142 151 164         bit_during_erase
    002274  aa  137 144 165 162
    002275  aa  151 156 147 137
    002276  aa  145 162 141 163
    002277  aa  145 000 000 000
    002300  55   000602 000562
    002301  2a   000034 400001
    002302  55   000575 000003
    002303  aa  022 142 154 141         blank_tape_on_read
    002304  aa  156 153 137 164
    002305  aa  141 160 145 137
    002306  aa  157 156 137 162
    002307  aa  145 141 144 000
    002310  55   000611 000572
    002311  2a   000033 400001
    002312  55   000605 000003
    002313  aa  017 164 162 141         transfer_timing
    002314  aa  156 163 146 145
    002315  aa  162 137 164 151
    002316  aa  155 151 156 147
    002317  55   000621 000602
    002320  2a   000032 400001
    002321  55   000614 000003
    002322  aa  021 144 145 166         device_data_alert
    002323  aa  151 143 145 137
    002324  aa  144 141 164 141
    002325  aa  137 141 154 145
    002326  aa  162 164 000 000
    002327  55   000631 000611
    002330  2a   000031 400001
    002331  55   000624 000003
    002332  aa  022 163 151 156         single_char_record
    002333  aa  147 154 145 137
    002334  aa  143 150 141 162
    002335  aa  137 162 145 143
    002336  aa  157 162 144 000
    002337  55   000637 000621
    002340  2a   000030 400001
    002341  55   000634 000003
    002342  aa  012 144 141 164         data_alert
    002343  aa  141 137 141 154
    002344  aa  145 162 164 000
    002345  55   000646 000631
    002346  2a   000027 400001
    002347  55   000642 000003
    002350  aa  016 156 151 156         nine_track_eof
    002351  aa  145 137 164 162
    002352  aa  141 143 153 137
    002353  aa  145 157 146 000
    002354  55   000655 000637
    002355  2a   000026 400001
    002356  55   000651 000003
    002357  aa  017 163 145 166         seven_track_eof
    002360  aa  145 156 137 164
    002361  aa  162 141 143 153
    002362  aa  137 145 157 146
    002363  55   000663 000646
    002364  2a   000025 400001
    002365  55   000660 000003
    002366  aa  013 145 156 144         end_of_file
    002367  aa  137 157 146 137
    002370  aa  146 151 154 145
    002371  55   000673 000655
    002372  2a   000024 400001
    002373  55   000666 000003
    002374  aa  020 143 157 156         continue_not_set
    002375  aa  164 151 156 165
    002376  aa  145 137 156 157
    002377  aa  164 137 163 145
    002400  aa  164 000 000 000
    002401  55   000704 000663
    002402  2a   000023 400001
    002403  55   000676 000003
    002404  aa  026 151 154 154         illegal_susp_lc_number
    002405  aa  145 147 141 154
    002406  aa  137 163 165 163
    002407  aa  160 137 154 143
    002410  aa  137 156 165 155
    002411  aa  142 145 162 000
    002412  55   000714 000673
    002413  2a   000022 400001
    002414  55   000707 000003
    002415  aa  021 151 154 154         illegal_lc_number
    002416  aa  145 147 141 154
    002417  aa  137 154 143 137
    002420  aa  156 165 155 142
    002421  aa  145 162 000 000
    002422  55   000724 000704
    002423  2a   000021 400001
    002424  55   000717 000003
    002425  aa  021 151 154 154         illegal_procedure
    002426  aa  145 147 141 154
    002427  aa  137 160 162 157
    002430  aa  143 145 144 165
    002431  aa  162 145 000 000
    002432  55   000734 000714
    002433  2a   000020 400001
    002434  55   000727 000003
    002435  aa  022 155 160 143         mpc_command_reject
    002436  aa  137 143 157 155
    002437  aa  155 141 156 144
    002440  aa  137 162 145 152
    002441  aa  145 143 164 000
    002442  55   000744 000724
    002443  2a   000017 400001
    002444  55   000737 000003
    002445  aa  020 156 151 156         nine_track_error
    002446  aa  145 137 164 162
    002447  aa  141 143 153 137
    002450  aa  145 162 162 157
    002451  aa  162 000 000 000
    002452  55   000754 000734
    002453  2a   000016 400001
    002454  55   000747 000003
    002455  aa  020 162 145 141         read_after_write
    002456  aa  144 137 141 146
    002457  aa  164 145 162 137
    002460  aa  167 162 151 164
    002461  aa  145 000 000 000
    002462  55   000763 000744
    002463  2a   000015 400001
    002464  55   000757 000003
    002465  aa  015 162 145 152         reject_at_bot
    002466  aa  145 143 164 137
    002467  aa  141 164 137 142
    002470  aa  157 164 000 000
    002471  55   000773 000754
    002472  2a   000014 400001
    002473  55   000766 000003
    002474  aa  023 151 156 166         invalid_idcw_parity
    002475  aa  141 154 151 144
    002476  aa  137 151 144 143
    002477  aa  167 137 160 141
    002500  aa  162 151 164 171
    002501  55   001003 000763
    002502  2a   000013 400001
    002503  55   000776 000003
    002504  aa  023 151 156 166         invalid_device_code
    002505  aa  141 154 151 144
    002506  aa  137 144 145 166
    002507  aa  151 143 145 137
    002510  aa  143 157 144 145
    002511  55   001012 000773
    002512  2a   000012 400001
    002513  55   001006 000003
    002514  aa  016 151 156 166         invalid_opcode
    002515  aa  141 154 151 144
    002516  aa  137 157 160 143
    002517  aa  157 144 145 000
    002520  55   001021 001003
    002521  2a   000011 400001
    002522  55   001015 000003
    002523  aa  017 151 156 166         invalid_density
    002524  aa  141 154 151 144
    002525  aa  137 144 145 156
    002526  aa  163 151 164 171
    002527  55   001030 001012
    002530  2a   000010 400001
    002531  55   001024 000003
    002532  aa  016 143 157 155         command_reject
    002533  aa  155 141 156 144
    002534  aa  137 162 145 152
    002535  aa  145 143 164 000
    002536  55   000002 001021
    002537  6a   000000 400002
    002540  55   001033 000003
    002541  aa  014 163 171 155         symbol_table
    002542  aa  142 157 154 137
    002543  aa  164 141 142 154
    002544  aa  145 000 000 000

DEFINITIONS HASH TABLE

    002545  aa   000000 000131
    002546  5a   000171 000000
    002547  5a   000202 000000
    002550  5a   000213 000000
    002551  5a   000224 000000
    002552  5a   000235 000000
    002553  5a   000265 000000
    002554  5a   000437 000000
    002555  5a   000562 000000
    002556  5a   000464 000000
    002557  5a   000020 000000
    002560  5a   000763 000000
    002561  5a   000137 000000
    002562  5a   000145 000000
    002563  5a   000012 000000
    002564  5a   000473 000000
    002565  5a   000306 000000
    002566  5a   000525 000000
    002567  5a   000602 000000
    002570  5a   000621 000000
    002571  5a   000111 000000
    002572  5a   000120 000000
    002573  5a   000446 000000
    002574  5a   000027 000000
    002575  5a   000504 000000
    002576  5a   000646 000000
    002577  5a   000655 000000
    002600  5a   000325 000000
    002601  5a   000611 000000
    002602  5a   000734 000000
    002603  5a   000402 000000
    002604  5a   000773 000000
    002605  5a   001003 000000
    002606  5a   001021 000000
    002607  5a   000153 000000
    002610  5a   000275 000000
    002611  5a   000055 000000
    002612  5a   001030 000000
    002613  5a   000344 000000
    002614  5a   000373 000000
    002615  5a   000673 000000
    002616  aa   000000 000000
    002617  aa   000000 000000
    002620  aa   000000 000000
    002621  aa   000000 000000
    002622  5a   000073 000000
    002623  5a   000316 000000
    002624  5a   000637 000000
    002625  aa   000000 000000
    002626  5a   000064 000000
    002627  5a   000427 000000
    002630  5a   001012 000000
    002631  5a   000130 000000
    002632  5a   000552 000000
    002633  aa   000000 000000
    002634  aa   000000 000000
    002635  aa   000000 000000
    002636  aa   000000 000000
    002637  5a   000245 000000
    002640  5a   000162 000000
    002641  5a   000365 000000
    002642  5a   000411 000000
    002643  5a   000543 000000
    002644  5a   000704 000000
    002645  5a   000714 000000
    002646  5a   000724 000000
    002647  5a   000455 000000
    002650  5a   000514 000000
    002651  5a   000631 000000
    002652  aa   000000 000000
    002653  aa   000000 000000
    002654  aa   000000 000000
    002655  aa   000000 000000
    002656  5a   000255 000000
    002657  5a   000417 000000
    002660  5a   000572 000000
    002661  5a   000744 000000
    002662  5a   000754 000000
    002663  5a   000335 000000
    002664  aa   000000 000000
    002665  aa   000000 000000
    002666  aa   000000 000000
    002667  aa   000000 000000
    002670  aa   000000 000000
    002671  5a   000355 000000
    002672  5a   000663 000000
    002673  5a   000045 000000
    002674  5a   000102 000000
    002675  5a   000036 000000
    002676  5a   000533 000000

NO EXTERNAL NAMES

NO TRAP POINTER WORDS

TYPE PAIR BLOCKS

    002677  aa   000001 000000
    002700  aa   000000 000000

INTERNAL EXPRESSION WORDS

    002701  50   001171 000000
LINKAGE INFORMATION

    000000  aa   000000 000000
    000001  02   001506 000120
    000002  aa   000000 000000
    000003  aa   000000 000000
    000004  aa   000000 000000
    000005  aa   000000 000000
    000006  22   000116 000123
    000007  a2   000000 000106
    000116  9a   777662 0000 46         *text|
    000117  5a   001173 0000 00

FIRST REFERENCE TRAP LIST

    000120  aa   000000 000001
    000121  aa   000000 000001
    000122  2a   000116 000000
    000123  aa   000000 000000
SYMBOL INFORMATION

SYMBOL TABLE HEADER

    000000  aa   000000 000001
    000001  aa   163171 155142
    000002  aa   164162 145145
    000003  aa   000000 000004
    000004  aa   000000 114732
    000005  aa   732732 062314
    000006  aa   000000 114775
    000007  aa   665351 552117
    000010  aa   141154 155040
    000011  aa   040040 040040
    000012  aa   000024 000040
    000013  aa   000034 000040
    000014  aa   000044 000100
    000015  aa   000002 000002
    000016  aa   000064 000000
    000017  aa   000000 000256
    000020  aa   000000 000145
    000021  aa   000000 000226
    000022  aa   000246 000145
    000023  aa   000064 000000
    000024  aa   101114 115040
    000025  aa   126145 162163
    000026  aa   151157 156040
    000027  aa   040066 056067
    000030  aa   040040 117143
    000031  aa   164157 142145
    000032  aa   162040 061071
    000033  aa   070066 040040
    000034  aa   107112 157150
    000035  aa   156163 157156
    000036  aa   056123 171163
    000037  aa   115141 151156
    000040  aa   164056 141040
    000041  aa   040040 040040
    000042  aa   040040 040040
    000043  aa   040040 040040
    000044  aa   154151 163164
    000045  aa   040040 040040
    000046  aa   040040 040040
    000047  aa   040040 040040
    000050  aa   040040 040040
    000051  aa   040040 040040
    000052  aa   040040 040040
    000053  aa   040040 040040
    000054  aa   040040 040040
    000055  aa   040040 040040
    000056  aa   040040 040040
    000057  aa   040040 040040
    000060  aa   040040 040040
    000061  aa   040040 040040
    000062  aa   040040 040040
    000063  aa   040040 040040
    000064  aa   000000 000001
    000065  aa   000000 000003
    000066  aa   000102 000061
    000067  aa   147740 446077
    000070  aa   000000 114774
    000071  aa   460663 400000
    000072  aa   000117 000037
    000073  aa   120665 316464
    000074  aa   000000 112067
    000075  aa   253504 600000
    000076  aa   000127 000066
    000077  aa   147714 750316
    000100  aa   000000 114774
    000101  aa   453561 000000
    000102  aa   076163 160145          >special_ldd>install>MR12.0-1206>tape_status_.alm
    000103  aa   143151 141154
    000104  aa   137154 144144
    000105  aa   076151 156163
    000106  aa   164141 154154
    000107  aa   076115 122061
    000110  aa   062056 060055
    000111  aa   061062 060066
    000112  aa   076164 141160
    000113  aa   145137 163164
    000114  aa   141164 165163
    000115  aa   137056 141154
    000116  aa   155040 040040
    000117  aa   076154 144144          >ldd>include>et_macros.incl.alm
    000120  aa   076151 156143
    000121  aa   154165 144145
    000122  aa   076145 164137
    000123  aa   155141 143162
    000124  aa   157163 056151
    000125  aa   156143 154056
    000126  aa   141154 155040
    000127  aa   076163 160145          >special_ldd>install>MR12.0-1206>stack_header.incl.alm
    000130  aa   143151 141154
    000131  aa   137154 144144
    000132  aa   076151 156163
    000133  aa   164141 154154
    000134  aa   076115 122061
    000135  aa   062056 060055
    000136  aa   061062 060066
    000137  aa   076163 164141
    000140  aa   143153 137150
    000141  aa   145141 144145
    000142  aa   162056 151156
    000143  aa   143154 056141
    000144  aa   154155 040040
               MULTICS ASSEMBLY CROSS REFERENCE LISTING

   Value        Symbol                   Source file   Line number

                *text                    tape_status_:        30.
          14    .._00000                 tape_status_:        32.
          22    .._00001                 tape_status_:        33.
          35    .._00002                 tape_status_:        34.
          50    .._00003                 tape_status_:        35.
          64    .._00004                 tape_status_:        36.
         100    .._00005                 tape_status_:        37.
         113    .._00006                 tape_status_:        37.
         117    .._00007                 tape_status_:        39.
         131    .._00010                 tape_status_:        40.
         140    .._00011                 tape_status_:        41.
         154    .._00012                 tape_status_:        42.
         170    .._00013                 tape_status_:        43.
         207    .._00014                 tape_status_:        44.
         224    .._00015                 tape_status_:        45.
         232    .._00016                 tape_status_:        46.
         247    .._00017                 tape_status_:        47.
         264    .._00020                 tape_status_:        48.
         277    .._00021                 tape_status_:        49.
         313    .._00022                 tape_status_:        50.
         322    .._00023                 tape_status_:        51.
         337    .._00024                 tape_status_:        52.
         353    .._00025                 tape_status_:        53.
         374    .._00026                 tape_status_:        54.
         412    .._00027                 tape_status_:        55.
         430    .._00030                 tape_status_:        56.
         447    .._00031                 tape_status_:        57.
         463    .._00032                 tape_status_:        58.
         473    .._00033                 tape_status_:        59.
         510    .._00034                 tape_status_:        60.
         526    .._00035                 tape_status_:        61.
         543    .._00036                 tape_status_:        62.
         560    .._00037                 tape_status_:        63.
         576    .._00040                 tape_status_:        64.
         612    .._00041                 tape_status_:        65.
         627    .._00042                 tape_status_:        66.
         644    .._00043                 tape_status_:        67.
         657    .._00044                 tape_status_:        68.
         674    .._00045                 tape_status_:        69.
         710    .._00046                 tape_status_:        70.
         723    .._00047                 tape_status_:        71.
         732    .._00050                 tape_status_:        72.
         745    .._00051                 tape_status_:        73.
         760    .._00052                 tape_status_:        74.
         774    .._00053                 tape_status_:        75.
        1007    .._00054                 tape_status_:        76.
        1023    .._00055                 tape_status_:        77.
        1033    .._00056                 tape_status_:        78.
        1052    .._00057                 tape_status_:        79.
        1067    .._00060                 tape_status_:        80.
        1106    .._00061                 tape_status_:        81.
        1123    .._00062                 tape_status_:        82.
        1141    .._00063                 tape_status_:        83.
        1157    .._00064                 tape_status_:        84.
        1175    .._00065                 tape_status_:        85.
        1213    .._00066                 tape_status_:        86.
        1227    .._00067                 tape_status_:        87.
        1243    .._00070                 tape_status_:        88.
        1251    .._00071                 tape_status_:        89.
        1262    .._00072                 tape_status_:        90.
        1274    .._00073                 tape_status_:        91.
        1311    .._00074                 tape_status_:        92.
        1323    .._00075                 tape_status_:        93.
        1334    .._00076                 tape_status_:        94.
        1351    .._00077                 tape_status_:        95.
        1367    .._00100                 tape_status_:        96.
        1405    .._00101                 tape_status_:        97.
        1423    .._00102                 tape_status_:        98.
        1440    .._00103                 tape_status_:        99.
        1455    .._00104                 tape_status_:       100.
        1472    .._00105                 tape_status_:       101.
         116    .code_end                tape_status_:        30.
          10    .code_start              tape_status_:        30.
           5    .loop                    tape_status_:        30.
       77777    .segno                   tape_status_:        30,   32,   33,   34,   35,   36,   37,   39,   40,   41,   42,
                                                              43,   44,   45,   46,   47,   48,   49,   50,   51,   52,   53,
                                                              54,   55,   56,   57,   58,   59,   60,   61,   62,   63,   64,
                                                              65,   66,   67,   68,   69,   70,   71,   72,   73,   74,   75,
                                                              76,   77,   78,   79,   80,   81,   82,   83,   84,   85,   86,
                                                              87,   88,   89,   90,   91,   92,   93,   94,   95,   96,   97,
                                                              98,   99,  100,  101.
           0    .trapproc                tape_status_:        30.
         103    alternate_channel        tape_status_:        91.
         115    ascii_alert              tape_status_:       101.
          35    bit_during_erase         tape_status_:        53.
          34    blank_tape_on_read       tape_status_:        52.
          64    blank_tape_on_write      tape_status_:        76.
          46    byte_locked_out          tape_status_:        62.
        1170    call_offset              stack_header:        80.
          10    codes                    tape_status_:        30,   32,   33,   34,   35,   36,   37,   39,   40,   41,   42,
                                                              43,   44,   45,   46,   47,   48,   49,   50,   51,   52,   53,
                                                              54,   55,   56,   57,   58,   59,   60,   61,   62,   63,   64,
                                                              65,   66,   67,   68,   69,   70,   71,   72,   73,   74,   75,
                                                              76,   77,   78,   79,   80,   81,   82,   83,   84,   85,   86,
                                                              87,   88,   89,   90,   91,   92,   93,   94,   95,   96,   97,
                                                              98,   99,  100,  101.
          56    code_alert               tape_status_:        70.
          10    command_reject           tape_status_:        32.
          66    configuration_error      tape_status_:        78.
          24    continue_not_set         tape_status_:        44.
          30    data_alert               tape_status_:        48.
          57    device_attention         tape_status_:        71.
         100    device_busy              tape_status_:        88.
          63    device_check             tape_status_:        75.
          32    device_data_alert        tape_status_:        50.
          62    device_in_standby        tape_status_:        74.
         104    device_loading           tape_status_:        92.
         106    device_ready             tape_status_:        94.
         102    device_reserved          tape_status_:        90.
          25    end_of_file              tape_status_:        45.
          41    end_of_tape              tape_status_:        57.
        1174    entry_offset             stack_header:        84.
         113    four_bit_fill            tape_status_:        99.
          70    illegal_device_id        tape_status_:        80.
          22    illegal_lc_number        tape_status_:        42.
          21    illegal_procedure        tape_status_:        41.
          23    illegal_susp_lc_number   tape_status_:        43.
          71    incompatible_mode        tape_status_:        81.
          44    inconsistent_command     tape_status_:        60.
          11    invalid_density          tape_status_:        33.
          13    invalid_device_code      tape_status_:        35.
          14    invalid_idcw_parity      tape_status_:        36.
          12    invalid_opcode           tape_status_:        34.
         101    in_rewind                tape_status_:        89.
          37    lateral_parity           tape_status_:        55.
          40    longitudinal_parity      tape_status_:        56.
          51    marginal_condition       tape_status_:        65.
           0    messages                 tape_status_:        30,   32,   33,   34,   35,   36,   37,   39,   40,   41,   42,
                                                              43,   44,   45,   46,   47,   48,   49,   50,   51,   52,   53,
                                                              54,   55,   56,   57,   58,   59,   60,   61,   62,   63,   64,
                                                              65,   66,   67,   68,   69,   70,   71,   72,   73,   74,   75,
                                                              76,   77,   78,   79,   80,   81,   82,   83,   84,   85,   86,
                                                              87,   88,   89,   90,   91,   92,   93,   94,   95,   96,   97,
                                                              98,   99,  100,  101.
          20    mpc_command_reject       tape_status_:        40.
          65    mpc_device_attention     tape_status_:        77.
          42    mpc_device_data_alert    tape_status_:        58.
          76    mth_malfunction          tape_status_:        86.
          77    multiple_bot             tape_status_:        87.
          67    multiple_devices         tape_status_:        79.
          52    multitrack_error         tape_status_:        66.
          27    nine_track_eof           tape_status_:        47.
          17    nine_track_error         tape_status_:        39.
         111    nine_track_handler       tape_status_:        97.
          61    no_such_device           tape_status_:        73.
          55    nrzi_ccc_error           tape_status_:        69.
         116    past_codes               tape_status_:        30.
          47    pe_burst_error           tape_status_:        63.
          54    postamble_error          tape_status_:        68.
          50    preamble_error           tape_status_:        64.
        1171    push_offset              stack_header:        81.
         110    ready_at_bot             tape_status_:        96.
          16    read_after_write         tape_status_:        37.
          15    reject_at_bot            tape_status_:        37.
        1173    return_no_pop_offset     stack_header:        83.
        1172    return_offset            stack_header:        82.
          26    seven_track_eof          tape_status_:        46.
          31    single_char_record       tape_status_:        49.
         114    six_bit_fill             tape_status_:       100.
          53    skew_error               tape_status_:        67.
          73    stach_header.trace_top_ptr     stack_header:        62.
          66    stack_header.assign_linkage_ptr      stack_header:        59.
          32    stack_header.bar_mode_sp       stack_header:        42.
          36    stack_header.call_op_ptr       stack_header:        44.
          10    stack_header.clr_ptr     stack_header:        27.
           6    stack_header.combined_stat_ptr       stack_header:        25.
           4    stack_header.cpm_data_ptr      stack_header:        24.
          13    stack_header.cpm_enabled       stack_header:        32.
          13    stack_header.cur_lot_size      stack_header:        31.
          64    stack_header.ect_ptr     stack_header:        58.
          46    stack_header.entry_op_ptr      stack_header:        49.
          70    stack_header.heap_header_ptr   stack_header:        60.
          74    stack_header.in_trace    stack_header:        63.
          52    stack_header.isot_ptr    stack_header:        52.
          26    stack_header.lot_ptr     tape_status_:        30,
                                         stack_header:        39.
          12    stack_header.main_proc_invoked       stack_header:        29.
          12    stack_header.max_lot_size      stack_header:        28.
          20    stack_header.parent_ptr  stack_header:        36.
          34    stack_header.pl1_operators_ptr       stack_header:        43.
          40    stack_header.push_op_ptr       stack_header:        46.
          42    stack_header.return_op_ptr     stack_header:        47.
          44    stack_header.ret_no_pop_op_ptr       stack_header:        48.
          62    stack_header.rnt_ptr     stack_header:        57.
          12    stack_header.run_unit_depth    stack_header:        30.
          54    stack_header.sct_ptr     stack_header:        53.
          30    stack_header.signal_ptr  stack_header:        41.
          22    stack_header.stack_begin_ptr   stack_header:        37.
          24    stack_header.stack_end_ptr     stack_header:        38.
          14    stack_header.system_free_ptr   stack_header:        33.
          60    stack_header.sys_link_info_ptr       stack_header:        56.
          72    stack_header.trace_frames      stack_header:        61.
          50    stack_header.trans_op_tv_ptr   stack_header:        51.
          56    stack_header.unwinder_ptr      stack_header:        54.
          16    stack_header.user_free_ptr     stack_header:        34.
         100    stack_header_end         stack_header:        64.
         105    subsystem_ready          tape_status_:        93.
          45    sum_check_error          tape_status_:        61.
          72    tca_malfunction_port0    tape_status_:        82.
          73    tca_malfunction_port1    tape_status_:        83.
          74    tca_malfunction_port2    tape_status_:        84.
          75    tca_malfunction_port3    tape_status_:        85.
           0    trace_frames.count       stack_header:        69.
           1    trace_frames.top_ptr     stack_header:        70.
          33    transfer_timing          tape_status_:        51.
          43    transmission_alert       tape_status_:        59.
          36    transmission_parity      tape_status_:        54.
         551    tv_offset                stack_header:        75,   80,   81,   82,   83,   84.
         112    two_bit_fill             tape_status_:        98.
         107    write_protected          tape_status_:        95.
          60    write_protect_attention  tape_status_:        72.


NO FATAL ERRORS


                                          -----------------------------------------------------------


Historical Background

This edition of the Multics software materials and documentation is provided and donated
to Massachusetts Institute of Technology by Group BULL including BULL HN Information Systems Inc.
as a contribution to computer science knowledge.
This donation is made also to give evidence of the common contributions of Massachusetts Institute of Technology,
Bell Laboratories, General Electric, Honeywell Information Systems Inc., Honeywell BULL Inc., Groupe BULL
and BULL HN Information Systems Inc. to the development of this operating system.
Multics development was initiated by Massachusetts Institute of Technology Project MAC (1963-1970),
renamed the MIT Laboratory for Computer Science and Artificial Intelligence in the mid 1970s, under the leadership
of Professor Fernando Jose Corbato. Users consider that Multics provided the best software architecture
for managing computer hardware properly and for executing programs. Many subsequent operating systems
incorporated Multics principles.
Multics was distributed in 1975 to 2000 by Group Bull in Europe , and in the U.S. by Bull HN Information Systems Inc.,
as successor in interest by change in name only to Honeywell Bull Inc. and Honeywell Information Systems Inc. .

                                          -----------------------------------------------------------

Permission to use, copy, modify, and distribute these programs and their documentation for any purpose and without
fee is hereby granted,provided that the below copyright notice and historical background appear in all copies
and that both the copyright notice and historical background and this permission notice appear in supporting
documentation, and that the names of MIT, HIS, BULL or BULL HN not be used in advertising or publicity pertaining
to distribution of the programs without specific prior written permission.
    Copyright 1972 by Massachusetts Institute of Technology and Honeywell Information Systems Inc.
    Copyright 2006 by BULL HN Information Systems Inc.
    Copyright 2006 by Bull SAS
    All Rights Reserved
