ASSEMBLY LISTING OF SEGMENT >spec>on>41-21>tm_no_firstref_tv_.alm
ASSEMBLED ON:	04/24/85  0823.8 mst Wed
OPTIONS USED:	list
ASSEMBLED BY:	ALM Version  6.6  November 1982
ASSEMBLER CREATED:	09/21/83  1227.3 mst Wed

                                     1  " ***********************************************************
                                     2  " *                                                         *
                                     3  " * Copyright, (C) Honeywell Information Systems Inc., 1985 *
                                     4  " *                                                         *
                                     5  " ***********************************************************
                                     6  "
                                     7  "  DESCRIPTION:
                                     8  "
                                     9  "          This is one of the two Data Management transaction manager transfer
                                    10  "     vectors.  This one, tm_no_firstref_tv_, is for each transaction manager
                                    11  "     entry which does not require Data Management per-process initialization
                                    12  "     to have been executed at some time before the transaction manager entry
                                    13  "     itself is executed.  Entries which require Data Management per-process
                                    14  "     initialization go through tm_firstref_tv_, which has a first
                                    15  "     reference trap is associated with tm_firstref_tv_ which runs per-process
                                    16  "     initialization the first time tm_firstref_tv_ is invoked.
                                    17  "
                                    18  "
                                    19  " HISTORY:
                                    20  "
                                    21  " Written by Lee A. Newcomb, 04/17/85.
                                    22  " Modified:
                                    23  "
                                    24  " " " " " " " " " " " " " " " " " " " " " " " " " " " " " " " " " " " "
                                    25
                                    26
    000000                          27  	name	tm_no_firstref_tv_
                                    28
                                    29  	macro	transfer
                              1     30  	entry	&1
                              2     31  &1:
                              3     32  	tra	&2
                              4     33
                              5     34  	&end
                                    35
                                    36
                                    37  " only one entry currently
                                    38  	transfer	user_shutdown_real,tm_user_shutdown_real$tm_user_shutdown_real
                        000000          	entry	user_shutdown_real
    000000                              user_shutdown_real:
    000000  4a  4 00010 7101 20         	tra	tm_user_shutdown_real$tm_user_shutdown_real

                                    39
                                    40
                                    41  	end
ENTRY SEQUENCES

    000001  5a   000013 0000 00
    000002  aa  7 00046 2721 20
    000003  0a   000000 7100 00

NO LITERALS

NAME DEFINITIONS FOR ENTRY POINTS AND SEGDEFS

    000004  5a   000003 000000
    000005  5a   000032 600000
    000006  aa   000000 000000
    000007  55   000013 000002
    000010  5a   000002 400003
    000011  55   000006 000013
    000012  aa  022 164 155 137
    000013  aa  156 157 137 146
    000014  aa  151 162 163 164
    000015  aa  162 145 146 137
    000016  aa  164 166 137 000
    000017  55   000023 000003
    000020  0a   000002 500000
    000021  55   000016 000003
    000022  aa  022 165 163 145         user_shutdown_real
    000023  aa  162 137 163 150
    000024  aa  165 164 144 157
    000025  aa  167 156 137 162
    000026  aa  145 141 154 000
    000027  55   000002 000013
    000030  6a   000000 400002
    000031  55   000026 000003
    000032  aa  014 163 171 155         symbol_table
    000033  aa  142 157 154 137
    000034  aa  164 141 142 154
    000035  aa  145 000 000 000

DEFINITIONS HASH TABLE

    000036  aa   000000 000015
    000037  aa   000000 000000
    000040  5a   000013 000000
    000041  aa   000000 000000
    000042  aa   000000 000000
    000043  aa   000000 000000
    000044  aa   000000 000000
    000045  5a   000023 000000
    000046  aa   000000 000000
    000047  aa   000000 000000
    000050  aa   000000 000000
    000051  aa   000000 000000
    000052  aa   000000 000000
    000053  aa   000000 000000

EXTERNAL NAMES

    000054  aa  025 164 155 137         tm_user_shutdown_real
    000055  aa  165 163 145 162
    000056  aa  137 163 150 165
    000057  aa  164 144 157 167
    000060  aa  156 137 162 145
    000061  aa  141 154 000 000

NO TRAP POINTER WORDS

TYPE PAIR BLOCKS

    000062  aa   000004 000000
    000063  55   000050 000050
    000064  aa   000001 000000
    000065  aa   000000 000000

INTERNAL EXPRESSION WORDS

    000066  5a   000056 000000
    000067  aa   000000 000000
LINKAGE INFORMATION

    000000  aa   000000 000000
    000001  0a   000004 000000
    000002  aa   000000 000000
    000003  aa   000000 000000
    000004  aa   000000 000000
    000005  aa   000000 000000
    000006  22   000010 000012
    000007  a2   000000 000000
    000010  9a   777770 0000 46         tm_user_shutdown_real|tm_user_shutdown_real
    000011  5a   000062 0000 00
SYMBOL INFORMATION

SYMBOL TABLE HEADER

    000000  aa   000000 000001
    000001  aa   163171 155142
    000002  aa   164162 145145
    000003  aa   000000 000004
    000004  aa   000000 112143
    000005  aa   305203 523135
    000006  aa   000000 113475
    000007  aa   517506 625564
    000010  aa   141154 155040
    000011  aa   040040 040040
    000012  aa   000024 000040
    000013  aa   000034 000040
    000014  aa   000044 000100
    000015  aa   000002 000002
    000016  aa   000064 000000
    000017  aa   000000 000121
    000020  aa   000000 000104
    000021  aa   000000 000107
    000022  aa   000113 000104
    000023  aa   000064 000000
    000024  aa   101114 115040
    000025  aa   126145 162163
    000026  aa   151157 156040
    000027  aa   040066 056066
    000030  aa   040040 116157
    000031  aa   166145 155142
    000032  aa   145162 040061
    000033  aa   071070 062040
    000034  aa   107112 157150
    000035  aa   156163 157156
    000036  aa   056123 171163
    000037  aa   115141 151156
    000040  aa   164056 155040
    000041  aa   040040 040040
    000042  aa   040040 040040
    000043  aa   040040 040040
    000044  aa   154151 163164
    000045  aa   040040 040040
    000046  aa   040040 040040
    000047  aa   040040 040040
    000050  aa   040040 040040
    000051  aa   040040 040040
    000052  aa   040040 040040
    000053  aa   040040 040040
    000054  aa   040040 040040
    000055  aa   040040 040040
    000056  aa   040040 040040
    000057  aa   040040 040040
    000060  aa   040040 040040
    000061  aa   040040 040040
    000062  aa   040040 040040
    000063  aa   040040 040040
    000064  aa   000000 000001
    000065  aa   000000 000001
    000066  aa   000072 000045
    000067  aa   134750 166516
    000070  aa   000000 113475
    000071  aa   506363 200000
    000072  aa   076163 160145          >spec>on>41-21>tm_no_firstref_tv_.alm
    000073  aa   143076 157156
    000074  aa   076064 061055
    000075  aa   062061 076164
    000076  aa   155137 156157
    000077  aa   137146 151162
    000100  aa   163164 162145
    000101  aa   146137 164166
    000102  aa   137056 141154
    000103  aa   155040 040040
               MULTICS ASSEMBLY CROSS REFERENCE LISTING

   Value        Symbol                   Source file   Line number

                tm_user_shutdown_real    tm_no_firstref_tv_:        38.
           0    user_shutdown_real       tm_no_firstref_tv_:        38.


NO FATAL ERRORS


                                          -----------------------------------------------------------


Historical Background

This edition of the Multics software materials and documentation is provided and donated
to Massachusetts Institute of Technology by Group BULL including BULL HN Information Systems Inc.
as a contribution to computer science knowledge.
This donation is made also to give evidence of the common contributions of Massachusetts Institute of Technology,
Bell Laboratories, General Electric, Honeywell Information Systems Inc., Honeywell BULL Inc., Groupe BULL
and BULL HN Information Systems Inc. to the development of this operating system.
Multics development was initiated by Massachusetts Institute of Technology Project MAC (1963-1970),
renamed the MIT Laboratory for Computer Science and Artificial Intelligence in the mid 1970s, under the leadership
of Professor Fernando Jose Corbato. Users consider that Multics provided the best software architecture
for managing computer hardware properly and for executing programs. Many subsequent operating systems
incorporated Multics principles.
Multics was distributed in 1975 to 2000 by Group Bull in Europe , and in the U.S. by Bull HN Information Systems Inc.,
as successor in interest by change in name only to Honeywell Bull Inc. and Honeywell Information Systems Inc. .

                                          -----------------------------------------------------------

Permission to use, copy, modify, and distribute these programs and their documentation for any purpose and without
fee is hereby granted,provided that the below copyright notice and historical background appear in all copies
and that both the copyright notice and historical background and this permission notice appear in supporting
documentation, and that the names of MIT, HIS, BULL or BULL HN not be used in advertising or publicity pertaining
to distribution of the programs without specific prior written permission.
    Copyright 1972 by Massachusetts Institute of Technology and Honeywell Information Systems Inc.
    Copyright 2006 by BULL HN Information Systems Inc.
    Copyright 2006 by Bull SAS
    All Rights Reserved
