	COMPILATION LISTING OF SEGMENT trace_repeat_dummy_
	Compiled by: Multics PL/I Compiler, Release 28d, of October 4, 1983
	Compiled at: Honeywell Multics Op. - System M
	Compiled on: 10/23/84  1251.4 mst Tue
	    Options: optimize map

        1 /* ***********************************************************
        2*   *                                                         *
        3*   * Copyright, (C) Honeywell Information Systems Inc., 1983 *
        4*   *                                                         *
        5*   *********************************************************** */
        6
        7 /*  *  *  *  *  *  *  *  *  *  *  *  *  *  *  *  *  *  *  *  *  *  *  *  *  *  *  *  *  * */
        8 /*									*/
        9 /*      Written in June 1983 by Jeffrey D. Ives.					*/
       10 /*									*/
       11 /*  *  *  *  *  *  *  *  *  *  *  *  *  *  *  *  *  *  *  *  *  *  *  *  *  *  *  *  *  * */
       12
       13
       14 /* format: style2,^inddcls,ifthendo,^indnoniterdo,thendo,^inditerdo,ind2,dclind5,idind32 */
       15
       16 trace_repeat_dummy_:
       17   proc (return_clock_reading_o);
       18
       19     return_clock_reading_o = clock ();
       20
       21     return;
       22
       23
       24 /* START OF DECLARATIONS */
       25 /* format: ^insnl,^delnl */
       26
       27 /* Parameters */
       28 dcl  return_clock_reading_o	       fixed bin (53) parm;
       29
       30 /* Automatic */
       31
       32 /* Static */
       33
       34 /* Conditions */
       35
       36 /* Based */
       37
       38 /* External Variables */
       39
       40 /* External Entries */
       41
       42 /* format: insnl,delnl */
       43 /* END OF DECLARATIONS */
       44
       45   end trace_repeat_dummy_;
	SOURCE FILES USED IN THIS COMPILATION.

LINE      NUMBER  DATE MODIFIED     NAME			PATHNAME
             0    10/23/84  1219.2  trace_repeat_dummy_.pl1           >special_ldd>online>6972-10/23/84>trace_repeat_dummy_.pl1
	NAMES DECLARED IN THIS COMPILATION.

IDENTIFIER	     OFFSET    LOC STORAGE CLASS   DATA TYPE		ATTRIBUTES AND REFERENCES
								(* indicates a set context)

NAME DECLARED BY DECLARE STATEMENT.
return_clock_reading_o                 parameter       fixed bin(53,0)          dcl 28 set ref 16 19*

NAME DECLARED BY EXPLICIT CONTEXT.
trace_repeat_dummy_             000004 constant        entry                    external dcl 16

NAME DECLARED BY CONTEXT OR IMPLICATION.
clock                                                  builtin function         ref 19

STORAGE REQUIREMENTS FOR THIS PROGRAM.

	Object	Text	Link	Symbol	Defs	Static
Start          0       0        44          54      15          54
Length       222      15        10         132      26           0

BLOCK NAME	         STACK SIZE     TYPE		WHY NONQUICK/WHO SHARES STACK FRAME
trace_repeat_dummy_                  64 external procedure  is an external procedure.

THE FOLLOWING EXTERNAL OPERATORS ARE USED BY THIS PROGRAM.
return              ext_entry           clock

NO EXTERNAL ENTRIES ARE CALLED BY THIS PROGRAM.

NO EXTERNAL VARIABLES ARE USED BY THIS PROGRAM.


   LINE    LOC      LINE    LOC      LINE    LOC      LINE    LOC      LINE    LOC      LINE    LOC      LINE    LOC
     16 000001        19 000011        21 000014


                                          -----------------------------------------------------------


Historical Background

This edition of the Multics software materials and documentation is provided and donated
to Massachusetts Institute of Technology by Group BULL including BULL HN Information Systems Inc.
as a contribution to computer science knowledge.
This donation is made also to give evidence of the common contributions of Massachusetts Institute of Technology,
Bell Laboratories, General Electric, Honeywell Information Systems Inc., Honeywell BULL Inc., Groupe BULL
and BULL HN Information Systems Inc. to the development of this operating system.
Multics development was initiated by Massachusetts Institute of Technology Project MAC (1963-1970),
renamed the MIT Laboratory for Computer Science and Artificial Intelligence in the mid 1970s, under the leadership
of Professor Fernando Jose Corbato. Users consider that Multics provided the best software architecture
for managing computer hardware properly and for executing programs. Many subsequent operating systems
incorporated Multics principles.
Multics was distributed in 1975 to 2000 by Group Bull in Europe , and in the U.S. by Bull HN Information Systems Inc.,
as successor in interest by change in name only to Honeywell Bull Inc. and Honeywell Information Systems Inc. .

                                          -----------------------------------------------------------

Permission to use, copy, modify, and distribute these programs and their documentation for any purpose and without
fee is hereby granted,provided that the below copyright notice and historical background appear in all copies
and that both the copyright notice and historical background and this permission notice appear in supporting
documentation, and that the names of MIT, HIS, BULL or BULL HN not be used in advertising or publicity pertaining
to distribution of the programs without specific prior written permission.
    Copyright 1972 by Massachusetts Institute of Technology and Honeywell Information Systems Inc.
    Copyright 2006 by BULL HN Information Systems Inc.
    Copyright 2006 by Bull SAS
    All Rights Reserved
