	COMPILATION LISTING OF SEGMENT trace
	Compiled by: Multics PL/I Compiler, Release 28e, of February 14, 1985
	Compiled at: Honeywell Multics Op. - System M
	Compiled on: 03/27/85  1823.4 mst Wed
	    Options: optimize list

        1 /* ***********************************************************
        2*   *                                                         *
        3*   * Copyright, (C) Honeywell Information Systems Inc., 1982 *
        4*   *                                                         *
        5*   * Copyright (c) 1972 by Massachusetts Institute of        *
        6*   * Technology and Honeywell Information Systems, Inc.      *
        7*   *                                                         *
        8*   *********************************************************** */
        9
       10
       11 system_trace:
       12 trace:
       13      procedure options (variable);
       14
       15 /* Supervisor tracing procedure. */
       16
       17 	return;
       18
       19      end trace;
	SOURCE FILES USED IN THIS COMPILATION.

LINE      NUMBER  DATE MODIFIED     NAME			PATHNAME
             0    03/27/85  1010.1  trace.pl1                         >spec>temp>41-13>trace.pl1
	NAMES DECLARED IN THIS COMPILATION.

IDENTIFIER	     OFFSET    LOC STORAGE CLASS   DATA TYPE		ATTRIBUTES AND REFERENCES
								(* indicates a set context)

THERE WERE NO NAMES DECLARED BY DECLARE STATEMENT.

NAMES DECLARED BY EXPLICIT CONTEXT.
system_trace                    000010 constant        entry                    external dcl 11
trace                           000001 constant        entry                    external dcl 11

THERE WERE NO NAMES DECLARED BY CONTEXT OR IMPLICATION.

STORAGE REQUIREMENTS FOR THIS PROGRAM.

	Object	Text	Link	Symbol	Defs	Static
Start          0       0        50          60      16          60
Length       216      16        10         122      32           0

BLOCK NAME	         STACK SIZE     TYPE		WHY NONQUICK/WHO SHARES STACK FRAME
trace                                64 external procedure  is an external procedure.

THE FOLLOWING EXTERNAL OPERATORS ARE USED BY THIS PROGRAM.
return              ext_entry

NO EXTERNAL ENTRIES ARE CALLED BY THIS PROGRAM.

NO EXTERNAL VARIABLES ARE USED BY THIS PROGRAM.


BEGIN PROCEDURE trace
ENTRY TO trace                                              STATEMENT 1 ON LINE 11
system_trace:
trace:
     procedure options (variable);

000000  da     000017240000
000001  aa   000100 6270 00	eax7 	64
000002  aa  7 00034 3521 20	epp2 	pr7|28,*
000003  aa  2 01045 2721 00	tsp2 	pr2|549		ext_entry
000004  aa     000000000000
000005  aa     000000000000
000006  aa   000007 7100 04	tra  	7,ic		000015
ENTRY TO system_trace                                       STATEMENT 1 ON LINE 11
system_trace:
trace:
     procedure options (variable);

000007  da     000026240000
000010  aa   000100 6270 00	eax7 	64
000011  aa  7 00034 3521 20	epp2 	pr7|28,*
000012  aa  2 01045 2721 00	tsp2 	pr2|549		ext_entry
000013  aa     000000000000
000014  aa     000000000000
						STATEMENT 1 ON LINE 17
	return;

000015  aa  0 00631 7101 00	tra  	pr0|409		return
						STATEMENT 1 ON LINE 19
     end trace;

  END PROCEDURE trace


                                          -----------------------------------------------------------


Historical Background

This edition of the Multics software materials and documentation is provided and donated
to Massachusetts Institute of Technology by Group BULL including BULL HN Information Systems Inc.
as a contribution to computer science knowledge.
This donation is made also to give evidence of the common contributions of Massachusetts Institute of Technology,
Bell Laboratories, General Electric, Honeywell Information Systems Inc., Honeywell BULL Inc., Groupe BULL
and BULL HN Information Systems Inc. to the development of this operating system.
Multics development was initiated by Massachusetts Institute of Technology Project MAC (1963-1970),
renamed the MIT Laboratory for Computer Science and Artificial Intelligence in the mid 1970s, under the leadership
of Professor Fernando Jose Corbato. Users consider that Multics provided the best software architecture
for managing computer hardware properly and for executing programs. Many subsequent operating systems
incorporated Multics principles.
Multics was distributed in 1975 to 2000 by Group Bull in Europe , and in the U.S. by Bull HN Information Systems Inc.,
as successor in interest by change in name only to Honeywell Bull Inc. and Honeywell Information Systems Inc. .

                                          -----------------------------------------------------------

Permission to use, copy, modify, and distribute these programs and their documentation for any purpose and without
fee is hereby granted,provided that the below copyright notice and historical background appear in all copies
and that both the copyright notice and historical background and this permission notice appear in supporting
documentation, and that the names of MIT, HIS, BULL or BULL HN not be used in advertising or publicity pertaining
to distribution of the programs without specific prior written permission.
    Copyright 1972 by Massachusetts Institute of Technology and Honeywell Information Systems Inc.
    Copyright 2006 by BULL HN Information Systems Inc.
    Copyright 2006 by Bull SAS
    All Rights Reserved
