ASSEMBLY LISTING OF SEGMENT >special_ldd>install>MR12.0-1132>translate_bytes_to_hex9_.alm
ASSEMBLED ON:	08/19/86  1114.2 mst Tue
OPTIONS USED:	-target Level68 list
ASSEMBLED BY:	ALM Version  6.6  November 1982
ASSEMBLER CREATED:	09/21/83  1227.3 mst Wed

                                     1  " ***********************************************************
                                     2  " *                                                         *
                                     3  " * Copyright, (C) Honeywell Information Systems Inc., 1982 *
                                     4  " *                                                         *
                                     5  " * Copyright (c) 1972 by Massachusetts Institute of        *
                                     6  " * Technology and Honeywell Information Systems, Inc.      *
                                     7  " *                                                         *
                                     8  " ***********************************************************
                                     9
                                    10  "
                                    11  "   Written by R.J.C. Kissel, 11/17/76, for use by dump_segment.
                                    12  "   Modified by Linda Pugh, 10/4/82, to spell misspelled word correctly
                                    13  "   so this program would compile.
                                    14
                                    15  " HISTORY COMMENTS:
                                    16  "  1) change(86-07-30,Kissel), approve(86-07-30,MCR7476), audit(86-08-01,Ex),
                                    17  "     install(86-08-19,MR12.0-1132):
                                    18  "     Changed the name from translate_to_hex9 which was non-standard to
                                    19  "     translate_bytes_to_hex9_, which is better.  This was done because this
                                    20  "     entry is now retained for external use.
                                    21  "                                                      END HISTORY COMMENTS
                                    22
                                    23  "
                                    24  "   PL/I Usage:
                                    25  "   dcl translate_bytes_to_hex9_ (bit(*), char(*))
                                    26  "   call translate_bytes_to_hex9_ (input_bits, output_chars)
                                    27  "
    000000                          28  	name	translate_bytes_to_hex9_
                        000000      29  	entry 	translate_bytes_to_hex9_
    000000                          30  translate_bytes_to_hex9_:
    000000  aa  0 00002 3515 20     31  	epp1	ap|2,*		address of source string to pr1
    000001  aa  0 00004 3535 20     32  	epp3	ap|4,*		address of target string to pr3
    000002  aa   000000 2230 03     33  	ldx3	0,du		set x3 not to skip parent pointer if none
    000003  aa  0 00000 7221 00     34  	lxl2	ap|0		load arg list code value
    000004  aa   000004 3020 03     35  	canx2	=o0000004,du	check for no parent pointer (code 4)
    000005  0a   000007 6010 00     36  	tnz	*+2		transfer if no parent pointer
    000006  aa   000002 2230 03     37  	ldx3	2,du		parent pointer, set x3 to skip it
    000007  aa  0 00006 2361 33     38  	ldq	ap|6,x3*		load source string descriptor
    000010  0a   000023 3760 00     39  	anq	mask		drop all but string size  bits
    000011  aa   000001 7360 00     40  	qls	1		get length of string in q-reg
    000012  aa   000011 5060 07     41  	div	9,dl
    000013  aa  0 00010 2351 33     42  	lda	ap|8,x3*		load target string descriptor
    000014  0a   000023 3750 00     43  	ana	mask		drop all but string size bits
    000015  aa   000000 0110 03     44  	even			"EIS address must be even
    000016  aa  0 00140 1605 40     45  	mvt	(pr,rl),(pr,rl),fill(00)	now do the bcd to ascii
    000017  aa   100000 040006      46  	desc4a	1|0,ql
    000020  aa   300000 000005      47  	desc9a	3|0,al
    000021  0a   000024 0000 00     48  	arg	table
    000022  aa  7 00044 7101 20     49  	short_return
    000023  aa   000077 777777      50  mask:	oct	000077777777
                                    51  	even
                                    52
    000024  aa  060 061 062 063     53  table:	aci	"0123456789ABCDEF"
    000025  aa  064 065 066 067
    000026  aa  070 071 101 102
    000027  aa  103 104 105 106
                                    54  	end
ENTRY SEQUENCES

    000030  5a   000015 0000 00
    000031  aa  7 00046 2721 20
    000032  0a   000000 7100 00

NO LITERALS

NAME DEFINITIONS FOR ENTRY POINTS AND SEGDEFS

    000034  5a   000003 000000
    000035  5a   000036 600000
    000036  aa   000000 000000
    000037  55   000015 000002
    000040  5a   000002 400003
    000041  55   000006 000015
    000042  aa  030 164 162 141
    000043  aa  156 163 154 141
    000044  aa  164 145 137 142
    000045  aa  171 164 145 163
    000046  aa  137 164 157 137
    000047  aa  150 145 170 071
    000050  aa  137 000 000 000
    000051  55   000027 000003
    000052  0a   000031 500000
    000053  55   000020 000003
    000054  aa  030 164 162 141         translate_bytes_to_hex9_
    000055  aa  156 163 154 141
    000056  aa  164 145 137 142
    000057  aa  171 164 145 163
    000060  aa  137 164 157 137
    000061  aa  150 145 170 071
    000062  aa  137 000 000 000
    000063  55   000002 000015
    000064  6a   000000 400002
    000065  55   000032 000003
    000066  aa  014 163 171 155         symbol_table
    000067  aa  142 157 154 137
    000070  aa  164 141 142 154
    000071  aa  145 000 000 000

DEFINITIONS HASH TABLE

    000072  aa   000000 000015
    000073  aa   000000 000000
    000074  aa   000000 000000
    000075  5a   000015 000000
    000076  aa   000000 000000
    000077  aa   000000 000000
    000100  aa   000000 000000
    000101  5a   000027 000000
    000102  aa   000000 000000
    000103  aa   000000 000000
    000104  aa   000000 000000
    000105  aa   000000 000000
    000106  aa   000000 000000
    000107  aa   000000 000000

NO EXTERNAL NAMES

NO TRAP POINTER WORDS

TYPE PAIR BLOCKS

    000110  aa   000001 000000
    000111  aa   000000 000000

INTERNAL EXPRESSION WORDS

LINKAGE INFORMATION

    000000  aa   000000 000000
    000001  0a   000034 000000
    000002  aa   000000 000000
    000003  aa   000000 000000
    000004  aa   000000 000000
    000005  aa   000000 000000
    000006  22   000010 000010
    000007  a2   000000 000000
SYMBOL INFORMATION

SYMBOL TABLE HEADER

    000000  aa   000000 000001
    000001  aa   163171 155142
    000002  aa   164162 145145
    000003  aa   000000 000004
    000004  aa   000000 112143
    000005  aa   305203 523135
    000006  aa   000000 114633
    000007  aa   641576 034107
    000010  aa   141154 155040
    000011  aa   040040 040040
    000012  aa   000024 000040
    000013  aa   000034 000040
    000014  aa   000044 000100
    000015  aa   000002 000002
    000016  aa   000064 000000
    000017  aa   000000 000131
    000020  aa   000000 000112
    000021  aa   000000 000117
    000022  aa   000122 000112
    000023  aa   000064 000000
    000024  aa   101114 115040
    000025  aa   126145 162163
    000026  aa   151157 156040
    000027  aa   040066 056066
    000030  aa   040040 116157
    000031  aa   166145 155142
    000032  aa   145162 040061
    000033  aa   071070 062040
    000034  aa   120145 162145
    000035  aa   172056 123171
    000036  aa   163115 141151
    000037  aa   156164 056141
    000040  aa   040040 040040
    000041  aa   040040 040040
    000042  aa   040040 040040
    000043  aa   040040 040040
    000044  aa   055164 141162
    000045  aa   147145 164040
    000046  aa   114145 166145
    000047  aa   154066 070040
    000050  aa   154151 163164
    000051  aa   040040 040040
    000052  aa   040040 040040
    000053  aa   040040 040040
    000054  aa   040040 040040
    000055  aa   040040 040040
    000056  aa   040040 040040
    000057  aa   040040 040040
    000060  aa   040040 040040
    000061  aa   040040 040040
    000062  aa   040040 040040
    000063  aa   040040 040040
    000064  aa   000000 000001
    000065  aa   000000 000001
    000066  aa   000072 000075
    000067  aa   146275 612132
    000070  aa   000000 114633
    000071  aa   641234 000000
    000072  aa   076163 160145          >special_ldd>install>MR12.0-1132>translate_bytes_to_hex9_.alm
    000073  aa   143151 141154
    000074  aa   137154 144144
    000075  aa   076151 156163
    000076  aa   164141 154154
    000077  aa   076115 122061
    000100  aa   062056 060055
    000101  aa   061061 063062
    000102  aa   076164 162141
    000103  aa   156163 154141
    000104  aa   164145 137142
    000105  aa   171164 145163
    000106  aa   137164 157137
    000107  aa   150145 170071
    000110  aa   137056 141154
    000111  aa   155040 040040
               MULTICS ASSEMBLY CROSS REFERENCE LISTING

   Value        Symbol                   Source file   Line number

          23    mask                     translate_bytes_to_hex9_:        39,   43,   50.
          24    table                    translate_bytes_to_hex9_:        48,   53.
           0    translate_bytes_to_hex9_       translate_bytes_to_hex9_:        29,   30.


NO FATAL ERRORS


                                          -----------------------------------------------------------


Historical Background

This edition of the Multics software materials and documentation is provided and donated
to Massachusetts Institute of Technology by Group BULL including BULL HN Information Systems Inc.
as a contribution to computer science knowledge.
This donation is made also to give evidence of the common contributions of Massachusetts Institute of Technology,
Bell Laboratories, General Electric, Honeywell Information Systems Inc., Honeywell BULL Inc., Groupe BULL
and BULL HN Information Systems Inc. to the development of this operating system.
Multics development was initiated by Massachusetts Institute of Technology Project MAC (1963-1970),
renamed the MIT Laboratory for Computer Science and Artificial Intelligence in the mid 1970s, under the leadership
of Professor Fernando Jose Corbato. Users consider that Multics provided the best software architecture
for managing computer hardware properly and for executing programs. Many subsequent operating systems
incorporated Multics principles.
Multics was distributed in 1975 to 2000 by Group Bull in Europe , and in the U.S. by Bull HN Information Systems Inc.,
as successor in interest by change in name only to Honeywell Bull Inc. and Honeywell Information Systems Inc. .

                                          -----------------------------------------------------------

Permission to use, copy, modify, and distribute these programs and their documentation for any purpose and without
fee is hereby granted,provided that the below copyright notice and historical background appear in all copies
and that both the copyright notice and historical background and this permission notice appear in supporting
documentation, and that the names of MIT, HIS, BULL or BULL HN not be used in advertising or publicity pertaining
to distribution of the programs without specific prior written permission.
    Copyright 1972 by Massachusetts Institute of Technology and Honeywell Information Systems Inc.
    Copyright 2006 by BULL HN Information Systems Inc.
    Copyright 2006 by Bull SAS
    All Rights Reserved
