	COMPILATION LISTING OF SEGMENT tut_wordpro_
	Compiled by: Multics PL/I Compiler, Release 30, of February 16, 1988
	Compiled at: Honeywell Bull, Phoenix AZ, SysM
	Compiled on: 09/13/88  1317.7 mst Tue
	    Options: optimize map

        1 /* ***********************************************************
        2*   *                                                         *
        3*   * Copyright, (C) Honeywell Information Systems Inc., 1983 *
        4*   *                                                         *
        5*   *********************************************************** */
        6
        7 /* Written by J. Siwila  3/30/83 */
        8
        9 /* This procedure sets up and displays the menu in the Tutorial dealing with
       10*      WORDPRO. */
       11
       12 /* format: style2 */
       13 tut_wordpro_:
       14      proc (menu_io, user_io_window_info, function_key_data_ptr, fkey, choice, last1, Phelp_args, pseudo, code);
       15
       16 /* Automatic */
       17
       18 	dcl     change_origin	 bit (1) aligned;
       19 	dcl     choice		 fixed bin;
       20 	dcl     choices		 (6) char (32) var;
       21 	dcl     code		 fixed bin (35);
       22 	dcl     init_display	 bit (1) aligned init ("0"b);
       23 	dcl     fkey		 bit (1) aligned;
       24 	dcl     headers		 (1) char (30) var;
       25 	dcl     menu_io		 ptr;
       26 	dcl     menu_ptr		 ptr;
       27 	dcl     my_area		 area (4095);
       28 	dcl     1 my_menu_format	 like menu_format;
       29 	dcl     1 my_menu_requirements like menu_requirements;
       30 	dcl     1 true_window_info	 like window_position_info;
       31 	dcl     new_io_height	 fixed bin;
       32 	dcl     seg_name		 char (13) init ("tut_wordpro_0");
       33 	dcl     seg_name_1		 char (14) init ("tut_wp_segment");
       34 	dcl     seg_name_2		 char (10) init ("tut_format");
       35 	dcl     seg_name_3		 char (13) init ("tut_speedtype");
       36 	dcl     seg_name_4		 char (14) init ("tut_dictionary");
       37 	dcl     seg_name_5		 char (9) init ("tut_lists");
       38 	dcl     trailers		 (2) char (40) var;
       39 	dcl     1 user_io_window_info	 like window_position_info;
       40 	dcl     ME_WORDPRO		 char (13) init ("tut_wordpro_");
       41 	dcl     last1		 fixed bin;
       42 	dcl     pseudo		 bit (1) aligned;
       43
       44 /* Builtin */
       45
       46 	dcl     (null, empty, addr)	 builtin;
       47
       48 /* Condition */
       49
       50 	dcl     (program_interrupt, any_other)
       51 				 condition;
       52
       53 /* Entries */
       54
       55 	dcl     cu_$cl		 entry () options (variable);
       56 	dcl     tut_get_seg_	 entry () options (variable);
       57 	dcl     tut_quit_		 entry () options (variable);
       58 	dcl     tut_bottom_		 entry () options (variable);
       59 	dcl     tut_window_		 entry () options (variable);
       60
       61 /* External */
       62
       63 	dcl     video_data_$terminal_iocb
       64 				 ptr external;
       65
       66
       67 /* Create the menu */
       68
       69 	choices (1) = "Creating a Document";
       70 	choices (2) = "Formatting";
       71 	choices (3) = "Speedtyping";
       72 	choices (4) = "Using Online Dictionaries";
       73 	choices (5) = "List Processing";
       74 	choices (6) = "Return to First Menu";
       75
       76 	headers (1) = "<<<Wordprocessing>>>";
       77 	if pseudo
       78 	then trailers (1) = "Use ESC q to Exit";
       79 	else trailers (1) = "Use Function Key F4 to Exit";
       80 	trailers (2) = "-";
       81
       82 	my_menu_format.version = menu_format_version_1;
       83 	my_menu_format.max_width = user_io_window_info.extent.width;
       84 	my_menu_format.max_height = 6;
       85 	my_menu_format.n_columns = 2;
       86 	my_menu_format.center_headers = "1"b;
       87 	my_menu_format.center_trailers = "1"b;
       88 	my_menu_format.pad = "0"b;
       89 	my_menu_format.pad_char = "-";
       90
       91 	my_menu_requirements = menu_requirements_version_1;
       92
       93 /* Now carve the menu I/O window out of the user_i/o window. */
       94
       95 	change_origin = "0"b;
       96 	call tut_window_ (menu_io, true_window_info, my_menu_format.max_height, change_origin, code);
       97 	if code ^= 0
       98 	then return;
       99 	new_io_height = user_io_window_info.height - my_menu_format.max_height;
      100 START:
      101 	change_origin = "1"b;
      102 	call tut_window_ (iox_$user_io, true_window_info, new_io_height, change_origin, code);
      103 	if code ^= 0
      104 	then return;
      105
      106 	call menu_$create (choices, headers, trailers, addr (my_menu_format), MENU_OPTION_KEYS, addr (my_area),
      107 	     addr (my_menu_requirements), menu_ptr, code);
      108 	if code ^= 0
      109 	then do;
      110 		call tut_quit_ (code, ME_WORDPRO, "Unable to create menu.", menu_io, user_io_window_info);
      111 		return;
      112 	     end;
      113
      114 /* Display menus */
      115
      116
      117 	call menu_$display (menu_io, menu_ptr, code);
      118 	if code ^= 0
      119 	then do;
      120 		call tut_quit_ (code, ME_WORDPRO, "Unable to display menu.", menu_io, user_io_window_info);
      121 		return;
      122 	     end;
      123
      124 	if init_display
      125 	then goto NEXT;
      126 	else do;
      127 		init_display = "1"b;
      128 		call tut_get_seg_ (seg_name, menu_io, user_io_window_info, code);
      129 		if code ^= 0
      130 		then return;
      131 	     end;
      132
      133 NEXT:
      134 	on condition (program_interrupt) go to START;
      135
      136 /* Now start processing input from user */
      137
      138 	do while ("1"b);
      139
      140 /* Get an option number or function key value from user. */
      141
      142 	     code = 0;
      143 	     call iox_$control (iox_$user_io, "reset_more", null (), code);
      144 	     call menu_$get_choice (menu_io, menu_ptr, function_key_data_ptr, fkey, choice, code);
      145
      146 /* Perform an action depending on the user's selection. */
      147
      148 	     if code ^= 0
      149 	     then do;
      150 		     call tut_quit_ (code, ME_WORDPRO, "Unable to get choice.", menu_io, user_io_window_info);
      151 		     return;
      152 		end;
      153 	     if fkey
      154 	     then if choice = 1
      155 		then do;
      156 			call tut_bottom_ (true_window_info, new_io_height, my_menu_format.max_height, Phelp_args,
      157 			     code);
      158 			if code ^= 0
      159 			then return;
      160 		     end;
      161 		else if choice = 2
      162 		then do;
      163 			call tut_cl ();
      164 			if code ^= 0
      165 			then return;
      166 		     end;
      167 		else if choice = 3
      168 		then do;
      169 			last1 = 7;
      170 			return;
      171 		     end;
      172 		else if choice = 4
      173 		then return;
      174 		else call window_$bell (menu_io, (0));
      175
      176 	     else do;
      177 		     if choice = 1
      178 		     then do;
      179 			     call segment ();
      180 			     if code ^= 0
      181 			     then return;
      182 			end;
      183 		     else if choice = 2
      184 		     then do;
      185 			     call formatting ();
      186 			     if code ^= 0
      187 			     then return;
      188 			end;
      189 		     else if choice = 3
      190 		     then do;
      191 			     call speedtyping ();
      192 			     if code ^= 0
      193 			     then return;
      194 			end;
      195 		     else if choice = 4
      196 		     then do;
      197 			     call dictionary ();
      198 			     if code ^= 0
      199 			     then return;
      200 			end;
      201 		     else if choice = 5
      202 		     then do;
      203 			     call list ();
      204 			     if code ^= 0
      205 			     then return;
      206 			end;
      207 		     else if choice = 6
      208 		     then do;
      209 			     last1 = 7;
      210 			     return;
      211 			end;
      212 		     else call window_$bell (menu_io, (0));
      213 		end;
      214 	end;
      215
      216 /* Procedures for options. */
      217
      218 segment:
      219      proc ();
      220
      221 	call tut_get_seg_ (seg_name_1, menu_io, user_io_window_info, code);
      222 	return;
      223
      224      end segment;
      225
      226 formatting:
      227      proc ();
      228
      229 	call tut_get_seg_ (seg_name_2, menu_io, user_io_window_info, code);
      230 	return;
      231
      232      end formatting;
      233
      234 speedtyping:
      235      proc ();
      236
      237 	call tut_get_seg_ (seg_name_3, menu_io, user_io_window_info, code);
      238 	return;
      239
      240      end speedtyping;
      241
      242 dictionary:
      243      proc ();
      244
      245 	call tut_get_seg_ (seg_name_4, menu_io, user_io_window_info, code);
      246 	return;
      247
      248      end dictionary;
      249
      250 list:
      251      proc ();
      252
      253 	call tut_get_seg_ (seg_name_5, menu_io, user_io_window_info, code);
      254 	return;
      255
      256      end list;
      257
      258 tut_cl:
      259      proc ();
      260
      261 	on any_other system;
      262 	call window_$clear_window (iox_$user_io, code);
      263 	if code ^= 0
      264 	then do;
      265 		call tut_quit_ (code, ME_WORDPRO, "Unable to clear window.", menu_io, user_io_window_info);
      266 		return;
      267 	     end;
      268 	trailers (1) = "Type ""pi"" and RETURN to reenter tutorial";
      269 	call menu_$create (choices, headers, trailers, addr (my_menu_format), MENU_OPTION_KEYS, addr (my_area),
      270 	     addr (my_menu_requirements), menu_ptr, code);
      271 	if code ^= 0
      272 	then do;
      273 		call tut_quit_ (code, ME_WORDPRO, "Unable to create menu.", menu_io, user_io_window_info);
      274 		return;
      275 	     end;
      276 	call menu_$display (menu_io, menu_ptr, code);
      277 	if code ^= 0
      278 	then do;
      279 		call tut_quit_ (code, ME_WORDPRO, "Unable to display menu", menu_io, user_io_window_info);
      280 		return;
      281 	     end;
      282 	if pseudo
      283 	then trailers (1) = "Use ESC q to Exit";
      284 	else trailers (1) = "Use Function Key F4 to Exit";
      285 	call cu_$cl;
      286
      287      end tut_cl;
      288
  1     1 /* BEGIN INCLUDE FILE ... function_key_data.incl.pl1
  1     2*
  1     3*   This include file defines the structure used for ttt_info_$function_key_data
  1     4*   MCR 4671      James R. Davis Sept 80
  1     5**/
  1     6
  1     7 dcl 1 function_key_data aligned based (function_key_data_ptr),
  1     8       2 version fixed bin,
  1     9       2 highest fixed bin,				/* highest fkey */
  1    10       2 sequence,					/* string of all seqs. */
  1    11         3 seq_ptr pointer,
  1    12         3 seq_len fixed bin (21),
  1    13       2 cursor_motion_keys,
  1    14         3 home (0:3) like key_info,
  1    15         3 left (0:3) like key_info,
  1    16         3 up (0:3) like key_info,
  1    17         3 right (0:3) like key_info,
  1    18         3 down (0:3) like key_info,
  1    19       2 function_keys (0:function_key_data_highest refer
  1    20 	(function_key_data.highest), 0:3) like key_info;
  1    21
  1    22 dcl (KEY_PLAIN init (0),
  1    23      KEY_SHIFT init (1),
  1    24      KEY_CTRL init (2),
  1    25      KEY_CTRL_AND_SHIFT init (3)
  1    26      ) fixed bin internal static options (constant);
  1    27
  1    28 dcl 1 key_info unaligned based (key_info_ptr),
  1    29       2 sequence_index fixed bin (12) unsigned unaligned,
  1    30       2 sequence_length fixed bin (6) unsigned unaligned;	/* 0 -> not exist */
  1    31
  1    32 dcl function_key_seqs char (function_key_data.sequence.seq_len)
  1    33 	based (function_key_data.sequence.seq_ptr);
  1    34 dcl function_key_data_ptr ptr;
  1    35 dcl function_key_data_highest fixed bin;
  1    36 dcl function_key_data_version_1
  1    37 	fixed bin internal static options (constant) init (1);
  1    38 dcl key_info_ptr ptr;
  1    39
  1    40
  1    41 /* END INCLUDE FILE ... function_key_data.incl.pl1 */
      289
      290
  2     1 /*  BEGIN:   help_args_.incl.pl1			  *  *  *  *  *  */
  2     2
  2     3 /*  *  *  *  *  *  *  *  *  *  *  *  *  *  *  *  *  *  *  *  *  *  *  *  *  *  *  *  *  * */
  2     4 /*									*/
  2     5 /* Name:   help_args_.incl.pl1						*/
  2     6 /*									*/
  2     7 /* This include file declares the structure used by the help command and other subsystems	*/
  2     8 /* to pass info segment selection and printing control information to the help_		*/
  2     9 /* subroutine.  This based structure is NEVER allocated.  Instead, the caller of help_	*/
  2    10 /* must call help_$init to get a pointer to a temporary segment which is used for	*/
  2    11 /* storage for the structure.  The structure contains 5 arrays with refer extents,	*/
  2    12 /* allowing complete freedom in the numbers of selection values given.  Typically, the	*/
  2    13 /* caller fills in the arrays at the top of the structure first, growing the arrays	*/
  2    14 /* as each new element is added.  After each array is filled, the caller begins filling	*/
  2    15 /* in the next array.  Note that, on return from help_$init, all of the arrays have 0	*/
  2    16 /* extents, except that the search_dirs array contains the list of directories to be	*/
  2    17 /* searched in to find info segments, as defined by the search facility.  The caller	*/
  2    18 /* may of course change or replace these search directories.			*/
  2    19 /*									*/
  2    20 /* A legend describing the variable naming convention follows.			*/
  2    21 /*									*/
  2    22 /*   STARTING LETTER	STANDS FOR					*/
  2    23 /*	P		pointer to					*/
  2    24 /*	L		length of						*/
  2    25 /*	D		descriptor of					*/
  2    26 /*	S		switch						*/
  2    27 /*	V		version						*/
  2    28 /*									*/
  2    29 /* Status									*/
  2    30 /*									*/
  2    31 /* 0) Created:   October, 1978    by Gary Dixon					*/
  2    32 /* 1) Modified:  June 4, 1983	    by Gary Dixon - add Sctl.inhibit_errors flag.		*/
  2    33 /* 2) Modified:  April, 1985      by L.Adams - use Vhelp_args_2.			*/
  2    34 /*									*/
  2    35 /*  *  *  *  *  *  *  *  *  *  *  *  *  *  *  *  *  *  *  *  *  *  *  *  *  *  *  *  *  * */
  2    36
  2    37 /****^  HISTORY COMMENTS:
  2    38*  1) change(86-03-07,LJAdams), approve(86-03-07,MCR7327),
  2    39*     audit(86-03-10,Lippard), install(86-04-24,MR12.0-1048):
  2    40*     Declares structure used by the help command and other subsystems to pass
  2    41*     info segment selection and printing control information the help_
  2    42*     subroutine.
  2    43*  2) change(87-01-26,LJAdams), approve(87-09-03,MCR7766),
  2    44*     audit(88-05-03,GDixon), install(88-09-13,MR12.2-1109):
  2    45*     Added lep to Sctl.
  2    46*     Added Sctl.cs to indicate if search or section requests are to be case
  2    47*     sensitive or not.
  2    48*     Changed version to Vhelp_args_3.
  2    49*  3) change(88-02-12,LJAdams), approve(88-03-07,MCR7857),
  2    50*     audit(88-05-03,GDixon), install(88-09-13,MR12.2-1109):
  2    51*     Added help_data_ptr to point to a second help_args structure that will be
  2    52*     used for list_requests.
  2    53*                                                   END HISTORY COMMENTS */
  2    54
  2    55      dcl	1 help_args aligned based (Phelp_args),		/* help's input arguments.			*/
  2    56 	  2 version		fixed bin,	/* = 3, currently. Use Vhelp_args_3.		*/
  2    57 						/*	(set by help_$init, checked by caller)	*/
  2    58 	  2 Sctl,					/* control argument switches.			*/
  2    59 						/*	(SET BY CALLER OF help_)		*/
  2    60 	   (3 he_only,				/*   print only a heading, nothing else.	*/
  2    61 	    3 he_pn,				/*   when heading printed, include info pathname.	*/
  2    62 	    3 he_info_name,				/*   when heading printed, include info_name.	*/
  2    63 	    3 he_counts,				/*   when heading printed, include line counts.	*/
  2    64 						/*   If none of the 3 switches above are set,	*/
  2    65 						/*   then only info header is incl. in heading.	*/
  2    66 	    3 title,				/*   -title				*/
  2    67 	    3 scn,				/*   -section				*/
  2    68 	    3 srh,				/*   -search				*/
  2    69 	    3 bf,					/*   -brief				*/
  2    70 	    3 ca,					/*   -control_arg				*/
  2    71 	    3 ep,					/*   -entry_point				*/
  2    72 	    3 all,				/*   -all					*/
  2    73               3 lep,				/*   -lep 				*/
  2    74               3 cs,                                         /*   -case_sensitive                              */
  2    75 	    3 inhibit_errors)			/*   inhibits error diagnostics when desired	*/
  2    76 						/*     information is not found.  Useful for	*/
  2    77 						/*     subsystems like ted that want to diagnose	*/
  2    78 						/*     their own errors.			*/
  2    79 				bit(1) unal,
  2    80 	    3 mbz1		bit(22) unal,
  2    81 	  2 Nsearch_dirs		fixed bin,	/* number of info_segment (or other) search dirs.	*/
  2    82 						/*	(set by help_$init, CALLER CAN CHANGE)	*/
  2    83 	  2 Npaths		fixed bin,	/* number of info segment names.		*/
  2    84 						/*	(SET BY CALLER OF help_)		*/
  2    85 	  2 Ncas			fixed bin,	/* number of control arg names given with -ca	*/
  2    86 						/*	(SET BY CALLER OF help_)		*/
  2    87 	  2 Nscns			fixed bin,	/* number of section substrings.		*/
  2    88 						/*	(SET BY CALLER OF help_)		*/
  2    89 	  2 Nsrhs			fixed bin,	/* number of search strings.			*/
  2    90 						/*	(SET BY CALLER OF help_)		*/
  2    91 	  2 min_Lpgh		fixed bin,	/* minimum length of a paragraph.		*/
  2    92 						/*	(set by help_$init, CALLER CAN CHANGE)	*/
  2    93 	  2 max_Lpgh		fixed bin,	/* maximum lines in group of aggregated paragraphs*/
  2    94 						/* or in paragraphs constructed by help_.	*/
  2    95 						/*	(set by help_$init, CALLER CAN CHANGE)	*/
  2    96 	  2 Lspace_between_infos	fixed bin,	/* spaces inserted between infos when several	*/
  2    97 						/* printed by one invocation.			*/
  2    98 						/*	(set by help_$init, CALLER CAN CHANGE)	*/
  2    99 	  2 min_date_time		fixed bin(71),	/* do not process infos modified before this date.*/
  2   100 						/*	(SET BY CALLER OF help_)		*/
  2   101 	  2 sci_ptr		ptr,		/* sci_ptr when help_ is invoked by a subsystem.	*/
  2   102 						/*   This must be set to null when not invoked 	*/
  2   103 						/*   from a subsystem.			*/
  2   104             2 help_data_ptr             ptr,                /* ptr to second help_args (used for list rqts)   */
  2   105 	  2 pad2 (6) 		fixed bin,	/* reserved for future expansion.		*/
  2   106
  2   107 	/*		End of fixed-length part of the structure.				*/
  2   108
  2   109 	  2 search_dirs (0 refer (help_args.Nsearch_dirs))
  2   110 				char (168) unal,	/* directories help_ will look in to find info	*/
  2   111 						/*   segments when relative paths (without < or >)*/
  2   112 						/*   are given.  When help_$init is called, the	*/
  2   113 						/*   current search rules (from a search list of	*/
  2   114 						/*   caller's choice) will be given here.  Caller	*/
  2   115 						/*   may modify this list if desired before	*/
  2   116 						/*   calling help_.				*/
  2   117 	  2 path (0 refer (help_args.Npaths)),		/* names of sought info segments.		*/
  2   118 	    3 value		char(425) varying,	/*   These are the args themselves, without	*/
  2   119 	    					/*   processing by expand_pathname_, etc.	*/
  2   120 						/*   Their length is length(path) + length("$")	*/
  2   121 						/*   + length(entry_point_name).		*/
  2   122 						/*   Note that entry_point_names can be 256 chars.*/
  2   123 						/*	(SET BY CALLER OF help_)		*/
  2   124 	    3 info_name		char(32) unal,	/*   name of logical info to be printed.	*/
  2   125 						/*	(SET BY CALLER OF help_)		*/
  2   126 						/*   "" = help_ should set this to entry part	*/
  2   127 						/*        of path.value, minus the suffix.	*/
  2   128 						/*   other = logical info name not a name on the	*/
  2   129 						/* 	   physical info segment.		*/
  2   130 	    3 dir (1)		char(168) unal,	/*   dir part of a pathname (set by help_).	*/
  2   131 	    3 ent			char(32) unal,	/*   ent part of name (set by help_).		*/
  2   132 	    3 ep			char(32) varying,	/*   entry point part of name. (set by help_)	*/
  2   133 	    3 code		fixed bin(35),	/*   error code while processing this path.	*/
  2   134 						/*     (set by help_)			*/
  2   135 	    3 S,					/*   switches indicating path type.		*/
  2   136 	     (4 pn_ctl_arg,				/*     -pn ctl given before this path. 		*/
  2   137 						/*     	(SET BY CALLER OF help_)		*/
  2   138 	      4 info_name_not_starname,		/*     caller-supplied path.info_name is not a	*/
  2   139 						/*       star name, even if it has * or ? chars.	*/
  2   140 						/*     	(SET BY CALLER OF help_)		*/
  2   141 	      4 less_greater,			/*     A < or > appears in path.value.		*/
  2   142 						/*     	(set by help_)			*/
  2   143 	      4 starname_ent,			/*     on if ent is a starname.		*/
  2   144 						/*	(set by help_)			*/
  2   145 	      4 starname_info_name,			/*     on if info_name is a starname.		*/
  2   146 						/*	(set by help_)			*/
  2   147 	      4 separate_info_name) 	bit(1) unal,	/*     on if info_name given by caller.		*/
  2   148 						/*	(set by help_)			*/
  2   149 	      4 pad3	 	bit(30) unal,
  2   150 	  2 ca (0 refer (help_args.Ncas))		/* the ctl_arg names, without leading - just as	*/
  2   151 				char(32) varying,	/*   req'd by the -ca ctl_arg of help.		*/
  2   152 						/*	(SET BY CALLER OF help_)		*/
  2   153 	  2 scn (0 refer (help_args.Nscns))		/* substrings sought in section titles.		*/
  2   154 				char(80) varying,	/*	(SET BY CALLER OF help_)		*/
  2   155 	  2 srh (0 refer (help_args.Nsrhs))		/* search strings.				*/
  2   156 				char(80) varying,	/*	(SET BY CALLER OF help_)		*/
  2   157 	Phelp_args		ptr,
  2   158 	Vhelp_args_3		fixed bin int static options(constant) init(3);
  2   159
  2   160      dcl	help_			entry (char(*), ptr, char(*), fixed bin, fixed bin(35)),
  2   161 	help_$init		entry (char(*), char(*), char(*), fixed bin, ptr, fixed bin(35)),
  2   162 	help_$term		entry (char(*), ptr, fixed bin(35));
  2   163
  2   164 /*  END OF:  help_args_.incl.pl1			  *  *  *  *  *  */
      291
      292
  3     1 /* --------------- BEGIN include file iox_dcls.incl.pl1 --------------- */
  3     2
  3     3 /* Written 05/04/78 by C. D. Tavares */
  3     4 /* Fixed declaration of iox_$find_iocb_n 05/07/80 by R. Holmstedt */
  3     5 /* Modified 5/83 by S. Krupp to add declarations for:  iox_$open_file,
  3     6*     iox_$close_file, iox_$detach and iox_$attach_loud entries. */
  3     7
  3     8 dcl  iox_$attach_name entry (char (*), pointer, char (*), pointer, fixed bin (35)),
  3     9      iox_$attach_ptr entry (pointer, char (*), pointer, fixed bin (35)),
  3    10      iox_$close entry (pointer, fixed bin (35)),
  3    11      iox_$control entry (pointer, char (*), pointer, fixed bin (35)),
  3    12      iox_$delete_record entry (pointer, fixed bin (35)),
  3    13      iox_$destroy_iocb entry (pointer, fixed bin (35)),
  3    14      iox_$detach_iocb entry (pointer, fixed bin (35)),
  3    15      iox_$err_not_attached entry options (variable),
  3    16      iox_$err_not_closed entry options (variable),
  3    17      iox_$err_no_operation entry options (variable),
  3    18      iox_$err_not_open entry options (variable),
  3    19      iox_$find_iocb entry (char (*), pointer, fixed bin (35)),
  3    20      iox_$find_iocb_n entry (fixed bin, ptr, fixed bin(35)),
  3    21      iox_$get_chars entry (pointer, pointer, fixed bin (21), fixed bin (21), fixed bin (35)),
  3    22      iox_$get_line entry (pointer, pointer, fixed bin (21), fixed bin (21), fixed bin (35)),
  3    23      iox_$look_iocb entry (char (*), pointer, fixed bin (35)),
  3    24      iox_$modes entry (pointer, char (*), char (*), fixed bin (35)),
  3    25      iox_$move_attach entry (pointer, pointer, fixed bin (35)),
  3    26      iox_$open entry (pointer, fixed bin, bit (1) aligned, fixed bin (35)),
  3    27      iox_$position entry (pointer, fixed bin, fixed bin (21), fixed bin (35)),
  3    28      iox_$propagate entry (pointer),
  3    29      iox_$put_chars entry (pointer, pointer, fixed bin (21), fixed bin (35)),
  3    30      iox_$read_key entry (pointer, char (256) varying, fixed bin (21), fixed bin (35)),
  3    31      iox_$read_length entry (pointer, fixed bin (21), fixed bin (35)),
  3    32      iox_$read_record entry (pointer, pointer, fixed bin (21), fixed bin (21), fixed bin (35)),
  3    33      iox_$rewrite_record entry (pointer, pointer, fixed bin (21), fixed bin (35)),
  3    34      iox_$seek_key entry (pointer, char (256) varying, fixed bin (21), fixed bin (35)),
  3    35      iox_$write_record entry (pointer, pointer, fixed bin (21), fixed bin (35)),
  3    36      iox_$open_file entry(ptr, fixed bin, char(*), bit(1) aligned, fixed bin(35)),
  3    37      iox_$close_file entry(ptr, char(*), fixed bin(35)),
  3    38      iox_$detach entry(ptr, char(*), fixed bin(35)),
  3    39      iox_$attach_loud entry(ptr, char(*), ptr, fixed bin(35));
  3    40
  3    41 dcl (iox_$user_output,
  3    42      iox_$user_input,
  3    43      iox_$user_io,
  3    44      iox_$error_output) external static pointer;
  3    45
  3    46 /* ---------------- END include file iox_dcls.incl.pl1 ---------------- */
      293
      294
  4     1 /* BEGIN INCLUDE FILE menu_dcls.incl.pl1
  4     2*   declarations for the menu_ subroutines MTB 493
  4     3*   James R. Davis 26 Jan 81  to 20 Februrary 81
  4     4**/
  4     5
  4     6 /* format: off */
  4     7
  4     8 dcl menu_$create      entry (
  4     9 	(*) char (*) varying,			/* input: choices */
  4    10 	(*) char (*) varying,			/* input: headers */
  4    11 	(*) char (*) varying,			/* input: trailers */
  4    12 	pointer,					/* input: to format info */
  4    13 	(*) char (1) unal,				/* input: keys to use */
  4    14 	pointer,					/* input: to area */
  4    15 	pointer,					/* input: to needs str. */
  4    16 	pointer,					/* to menu: output */
  4    17 	fixed bin (35)				/* code */
  4    18 			      );
  4    19
  4    20 dcl menu_$display entry (
  4    21 	pointer,					/* window */
  4    22 	pointer,					/* menu */
  4    23 	fixed bin (35)				/* code */
  4    24 			      );
  4    25
  4    26 dcl menu_$get_choice entry (
  4    27 	pointer,					/* window */
  4    28 	pointer,					/* menu */
  4    29 	pointer,					/* to function key info */
  4    30 	bit (1) aligned,				/* function key hi: output */
  4    31 	fixed bin,				/* output: selection number */
  4    32 	fixed bin (35)				/* output: code */
  4    33 			      );
  4    34
  4    35 dcl menu_$describe entry (
  4    36           pointer,					/* menu */
  4    37 	pointer,					/* needs */
  4    38 	fixed bin (35)				/* code */
  4    39 	                          );
  4    40
  4    41 dcl menu_$destroy entry (
  4    42           pointer,					/* menu */
  4    43 	fixed bin (35)				/* code */
  4    44                                     );
  4    45
  4    46 dcl menu_$store entry (
  4    47 	character (*),
  4    48 	character (*),
  4    49 	character (*),
  4    50 	bit (1) aligned,
  4    51 	pointer,
  4    52 	fixed bin (35));
  4    53
  4    54 dcl menu_$retrieve entry (
  4    55 	character (*),
  4    56 	character (*),
  4    57 	character (*),
  4    58 	pointer,
  4    59 	pointer,
  4    60 	fixed bin (35));
  4    61 dcl  menu_$delete entry (
  4    62 	character (*),
  4    63 	character (*),
  4    64 	character (*),
  4    65 	fixed binary (35));
  4    66
  4    67 dcl  menu_$list entry (
  4    68 	character (*),
  4    69 	character (*),
  4    70 	character (*),
  4    71 	pointer,
  4    72 	fixed bin,
  4    73 	pointer,
  4    74 	fixed bin (35));
  4    75
  4    76      dcl	   1 menu_format	      aligned based (menu_format_ptr),
  4    77 	     2 version	      fixed bin,
  4    78 	     2 constraints,
  4    79 	       3 max_width	      fixed bin,
  4    80 	       3 max_height	      fixed bin,
  4    81 	     2 n_columns	      fixed bin,
  4    82 	     2 flags,
  4    83 	       3 center_headers   bit (1) unal,
  4    84 	       3 center_trailers  bit (1) unal,
  4    85 	       3 pad	      bit (34) unal,
  4    86 	     2 pad_char	      char (1);
  4    87
  4    88      dcl	   1 menu_requirements    aligned based (menu_requirements_ptr),
  4    89 	     2 version	      fixed bin,
  4    90 	     2 lines_needed	      fixed bin,
  4    91 	     2 width_needed	      fixed bin,
  4    92 	     2 n_options	      fixed bin;
  4    93
  4    94      dcl	   menu_format_ptr	      pointer;
  4    95      dcl	   menu_requirements_ptr  pointer;
  4    96
  4    97      dcl	   (menu_format_version_1, menu_requirements_version_1)
  4    98 			      fixed bin internal static init (1) options (constant);
  4    99
  4   100      dcl	   MENU_OPTION_KEYS	      (35) char (1) unal internal static
  4   101 			      options (constant) init
  4   102 	("1", "2", "3", "4", "5", "6", "7", "8", "9",
  4   103 	"A", "B", "C", "D", "E", "F", "G", "H", "I",
  4   104 	"J", "K", "L", "M", "N", "O", "P", "Q", "R",
  4   105 	"S", "T", "U", "V", "W", "X", "Y", "Z");
  4   106
  4   107 /* END INCLUDE FILE ... menu_dcls.incl.pl1 */
      295
      296
  5     1 /* begin include fine window_dcls.incl.pl1 BIM June 1981 */
  5     2 /* Modified 9 October 1983 by Jon A. Rochlis to add window_$edit_line. */
  5     3
  5     4 /* format: style3 */
  5     5
  5     6 declare	window_$bell	entry (pointer, fixed binary (35));
  5     7 declare	window_$clear_region
  5     8 			entry (pointer, fixed binary, fixed binary, fixed binary, fixed binary, fixed binary (35));
  5     9 declare	window_$clear_to_end_of_line
  5    10 			entry (pointer, fixed binary (35));
  5    11 declare	window_$clear_to_end_of_window
  5    12 			entry (pointer, fixed binary (35));
  5    13 declare	window_$clear_window
  5    14 			entry (pointer, fixed binary (35));
  5    15 declare	window_$delete_chars
  5    16 			entry (pointer, fixed binary, fixed binary (35));
  5    17 declare	window_$get_cursor_position
  5    18 			entry (pointer, fixed binary, fixed binary, fixed binary (35));
  5    19
  5    20 /* Call window_$get_echoed_chars (iocb_ptr, n_to_read, read_buffer, n_read, read_break, code); */
  5    21
  5    22 declare	window_$get_echoed_chars
  5    23 			entry (pointer, fixed binary (21), character (*), fixed binary (21), character (1) var,
  5    24 			fixed binary (35));
  5    25 declare	window_$get_unechoed_chars
  5    26 			entry (pointer, fixed binary (21), character (*), fixed binary (21), character (1) var,
  5    27 			fixed binary (35));
  5    28 declare	window_$insert_text entry (pointer, character (*), fixed binary (35));
  5    29 declare	window_$overwrite_text
  5    30 			entry (pointer, character (*), fixed binary (35));
  5    31 declare	window_$position_cursor
  5    32 			entry (pointer, fixed binary, fixed binary, fixed binary (35));
  5    33
  5    34 /* Call window_$position_cursor_rel (iocb_ptr, delta_line, delta_column, code); */
  5    35
  5    36 declare	window_$position_cursor_rel
  5    37 			entry (pointer, fixed binary, fixed binary, fixed binary (35));
  5    38
  5    39 /* Call window_$scroll_region (iocb_ptr, first_line_of_region, n_lines_of_region, distance_to_scroll_region_negative_is_up,
  5    40*        code); */
  5    41
  5    42 declare	window_$scroll_region
  5    43 			entry (pointer, fixed binary, fixed binary, fixed binary, fixed binary (35));
  5    44 declare	window_$sync	entry (pointer, fixed binary (35));
  5    45
  5    46 /* Call window_$write_raw_text (iocb_ptr, text_string, code); */
  5    47
  5    48 declare	window_$write_raw_text
  5    49 			entry (pointer, character (*), fixed binary (35));
  5    50
  5    51 /* Call window_$write_sync_read (iocb_ptr, prompt_string, n_to_read, read_buffer, n_read, break_char, code); */
  5    52
  5    53 declare	window_$write_sync_read
  5    54 			entry (pointer, character (*), fixed bin (21), character (*), fixed binary (21),
  5    55 			character (1) var, fixed binary (35));
  5    56
  5    57 /* Call window_$change_line (iocb_ptr, new_line, code); */
  5    58
  5    59 declare	window_$change_line entry (pointer, fixed binary, fixed binary (35));
  5    60
  5    61 /* Call window_$change_column (iocb_ptr, new_column, code); */
  5    62
  5    63 declare	window_$change_column
  5    64 			entry (pointer, fixed binary, fixed binary (35));
  5    65
  5    66 /* Call window_$get_one_unechoed (iocb_ptr, char_or_len_0, block_flag, code); */
  5    67 declare	(
  5    68 	window_$get_one_unechoed,
  5    69 	window_$get_one_unechoed_char
  5    70 	)		entry (pointer, character (1) var, bit (1) aligned, fixed binary (35));
  5    71
  5    72 declare	window_$create	entry (pointer, pointer, pointer, fixed binary (35));
  5    73
  5    74 declare	window_$destroy	entry (pointer, fixed binary (35));
  5    75
  5    76 declare   window_$edit_line	entry (pointer, pointer, pointer, fixed bin(21), fixed bin(21), fixed bin(35));
  5    77
  5    78 /* call window_$edit_line (iocb_ptr, window_edit_line_info_ptr, buffer_ptr,
  5    79*                           buffer_len, n_returned, code); */
  5    80
  5    81
  5    82 /* end include file window_dcls.incl.pl1 */
      297
      298
  6     1 /* BEGIN INCLUDE FILE ... window_control_info.incl.pl1 JRD  */
  6     2 /* format: style3 */
  6     3
  6     4 /* Modified 26 January 1982 by William York to add the set_more_handler
  6     5*   and reset_more_handler control orders. */
  6     6 /* Modified October 1982 by WMY to add set and get_token_characters,
  6     7*   set and get_more_prompt. */
  6     8 /* Modified February 1983 by WMY to add the line_editor_key_binding_info
  6     9*   structure. */
  6    10 /* Modified 30 September 1983 by Jon A. Rochlis to add the origin.column for
  6    11*   partial screen width windows. */
  6    12 /* Modified 9 October 1983 by JR to add version 1 window_edit_line_info.
  6    13*   This should be removed when window_info.incl.pl1 is created. */
  6    14 /* Modified 29 February 1984 by Barmar to add version 1
  6    15*   get_editor_key_bindings_info. */
  6    16 /* Modified 1 March 1984 by Barmar to add version 1
  6    17*   set_editor_key_bindings_info. */
  6    18 /* Modified 2 March 1984 by Barmar to upgrade to version 3
  6    19*   line_editor_key_bindings_info, which includes the name, description, and
  6    20*   info path */
  6    21
  6    22 /* structure for the set_window_info and get_window_info
  6    23*   control orders. */
  6    24
  6    25 dcl	1 window_position_info
  6    26 			based (window_position_info_ptr),
  6    27 	  2 version	fixed bin,
  6    28 	  2 origin,
  6    29 	    3 column	fixed bin,
  6    30 	    3 line	fixed bin,
  6    31 	  2 extent,
  6    32 	    3 width	fixed bin,
  6    33 	    3 height	fixed bin;
  6    34
  6    35 dcl	(window_position_info_version, window_position_info_version_1)
  6    36 			fixed bin internal static init (1) options (constant);
  6    37 dcl	window_position_info_ptr
  6    38 			pointer;
  6    39
  6    40 /* structure for the set_window_status and get_window_status
  6    41*   control orders */
  6    42
  6    43 declare	window_status_info_ptr
  6    44 			pointer;
  6    45 declare	1 window_status_info
  6    46 			aligned based (window_status_info_ptr),
  6    47 	  2 version	fixed bin,
  6    48 	  2 status_string	bit (36) aligned;		/* string (window_status) */
  6    49 /* see window_status.incl.pl1 for the contents of this string */
  6    50
  6    51
  6    52 declare	(window_status_version, window_status_version_1)
  6    53 			fixed bin internal static init (1) options (constant);
  6    54
  6    55 /* info structure for the set_more_responses and get_more_responses control
  6    56*   orders */
  6    57
  6    58
  6    59 dcl	1 more_responses_info
  6    60 			aligned based (more_responses_info_ptr),
  6    61 	  2 version	fixed bin,
  6    62 	  2 n_yeses	fixed bin, /* how many valid characters in the strings below */
  6    63 	  2 n_noes	fixed bin,
  6    64 	  2 yeses		char (32) unaligned,
  6    65 	  2 noes		char (32) unaligned;
  6    66
  6    67 dcl	(more_responses_info_version_1, more_responses_version)
  6    68 			fixed bin internal static init (1) options (constant);
  6    69 dcl	more_responses_info_ptr
  6    70 			pointer;
  6    71
  6    72 /* structure for the set_break_table and get_break_table
  6    73*   control orders */
  6    74
  6    75 declare	break_table_ptr	pointer;
  6    76 declare	1 break_table_info	aligned based (break_table_ptr),
  6    77 	  2 version	fixed bin,
  6    78 	  2 breaks	(0:127) bit (1) unaligned;
  6    79
  6    80 declare	(break_table_info_version, break_table_info_version_1)
  6    81 			fixed bin init (1) internal static options (constant);
  6    82
  6    83 declare	1 more_handler_info aligned based (more_handler_info_ptr),
  6    84 	  2 version	fixed bin,
  6    85 	  2 flags		unaligned,
  6    86 	    3 old_handler_valid
  6    87 			bit(1),
  6    88 	    3 pad		bit(35),
  6    89 	  2 more_handler	entry (pointer, bit(1) aligned),
  6    90 	  2 old_more_handler entry (pointer, bit(1) aligned);
  6    91
  6    92 declare	more_handler_info_ptr pointer;
  6    93
  6    94 declare	(more_handler_info_version, more_handler_info_version_3)
  6    95 			fixed bin internal static options (constant) init (3);
  6    96
  6    97 declare   1 token_characters_info aligned based (token_characters_info_ptr),
  6    98 	  2 version	char(8),
  6    99 	  2 token_character_count
  6   100 			fixed bin,
  6   101 	  2 token_characters
  6   102 			char (128) unaligned;
  6   103
  6   104 declare   token_characters_info_ptr pointer;
  6   105
  6   106 declare   token_characters_info_version_1 char(8) internal static options (constant) init ("wtci0001");
  6   107
  6   108 declare   1 more_prompt_info	aligned based (more_prompt_info_ptr),
  6   109 	  2 version	char(8),
  6   110 	  2 more_prompt	char(80);
  6   111
  6   112 declare   more_prompt_info_ptr pointer;
  6   113
  6   114 declare   more_prompt_info_version_1 char(8) static options (constant) init ("wsmp0001");
  6   115
  6   116 /* Line editor stuff ... */
  6   117
  6   118 dcl  line_editor_key_binding_info_ptr
  6   119 			pointer;
  6   120
  6   121 dcl  line_editor_binding_count
  6   122 			fixed bin;
  6   123 dcl  line_editor_longest_sequence
  6   124 			fixed bin;
  6   125 /* For each binding, action defines what to do for that sequence. Constants
  6   126*   are defined in window_editor_values.incl.pl1. Only if action is set to
  6   127*   EXTERNAL_ROUTINE does the editor_routine entry variable get examined. */
  6   128
  6   129 dcl  1 line_editor_key_binding_info
  6   130 			aligned based (line_editor_key_binding_info_ptr),
  6   131        2 version		char(8),
  6   132        2 binding_count	fixed bin,
  6   133        2 longest_sequence	fixed bin,
  6   134        2 bindings		(line_editor_binding_count refer
  6   135 			(line_editor_key_binding_info.binding_count)),
  6   136          3 sequence		char(line_editor_longest_sequence refer
  6   137 			(line_editor_key_binding_info.longest_sequence)) varying,
  6   138          3 action		fixed bin,
  6   139          3 numarg_action      fixed binary,
  6   140          3 editor_routine	entry (pointer, fixed bin(35)),
  6   141          3 name		char (64) varying unaligned,
  6   142          3 description	char (256) varying unaligned,
  6   143          3 info_path	unaligned,
  6   144 	 4 info_dir	char (168),
  6   145 	 4 info_entry	char (32);
  6   146
  6   147
  6   148 dcl  line_editor_key_binding_info_version_3
  6   149 			char(8) static options (constant) init ("lekbi003");
  6   150
  6   151 dcl 1 get_editor_key_bindings_info	aligned based (get_editor_key_bindings_info_ptr),
  6   152       2 version			char (8),
  6   153       2 flags,
  6   154         3 entire_state		bit (1) unaligned,
  6   155         3 mbz			bit (35) unaligned,
  6   156       2 key_binding_info_ptr		ptr,
  6   157       2 entire_state_ptr		ptr;
  6   158
  6   159 dcl get_editor_key_bindings_info_ptr	ptr;
  6   160 dcl get_editor_key_bindings_info_version_1 char (8) int static options (constant) init ("gekbi_01");
  6   161
  6   162 dcl 1 set_editor_key_bindings_info	aligned
  6   163 				based (set_editor_key_bindings_info_ptr),
  6   164       2 version			char (8),
  6   165       2 flags,
  6   166         3 replace			bit (1) unaligned,
  6   167         3 update			bit (1) unaligned,
  6   168         3 mbz			bit (34) unaligned,
  6   169       2 key_binding_info_ptr		ptr;
  6   170
  6   171 dcl set_editor_key_bindings_info_ptr	ptr;
  6   172 dcl set_editor_key_bindings_info_version_1 char (8) int static options (constant) init ("sekbi_01");
  6   173
  6   174 /* This should be moved to window_info.incl.pl1 when that include file is
  6   175*   created.  JR 2/1/84 */
  6   176
  6   177 dcl	1 window_edit_line_info
  6   178 			based (window_edit_line_info_ptr),
  6   179 	  2 version	char (8),
  6   180 	  2 line_ptr	ptr,
  6   181 	  2 line_length	fixed bin (21);		/* later we will hack initial cursor position, key bindings, etc. */
  6   182
  6   183 dcl	window_edit_line_info_version_1
  6   184 			char (8) static options (constant) init ("wedl0001");
  6   185
  6   186 dcl	window_edit_line_info_ptr
  6   187 			ptr;
  6   188
  6   189 /* END INCLUDE FILE window_control_info.incl.pl1 */
      299
      300
      301      end tut_wordpro_;
	SOURCE FILES USED IN THIS COMPILATION.

LINE      NUMBER  DATE MODIFIED     NAME			PATHNAME
             0    09/13/88  1315.0  tut_wordpro_.pl1                  >spec>install>MR12.2-1109>tut_wordpro_.pl1
289          1    02/23/81  2146.3  function_key_data.incl.pl1        >ldd>include>function_key_data.incl.pl1
291          2    09/13/88  1257.6  help_args_.incl.pl1               >spec>install>MR12.2-1109>help_args_.incl.pl1
293          3    05/23/83  0916.6  iox_dcls.incl.pl1                 >ldd>include>iox_dcls.incl.pl1
295          4    03/27/82  0429.3  menu_dcls.incl.pl1                >ldd>include>menu_dcls.incl.pl1
297          5    09/12/84  0916.7  window_dcls.incl.pl1              >ldd>include>window_dcls.incl.pl1
299          6    09/12/84  0916.7  window_control_info.incl.pl1      >ldd>include>window_control_info.incl.pl1
	NAMES DECLARED IN THIS COMPILATION.

IDENTIFIER	     OFFSET    LOC STORAGE CLASS   DATA TYPE		ATTRIBUTES AND REFERENCES
								(* indicates a set context)

NAMES DECLARED BY DECLARE STATEMENT.
MENU_OPTION_KEYS                000000 constant        char(1)                  initial array packed unaligned dcl 4-100 set ref
                                                                                  106* 269*
ME_WORDPRO                      010277 automatic       char(13)                 initial packed unaligned dcl 40 set ref 40* 110*
                                                                                  120* 150* 265* 273* 279*
Phelp_args                             parameter       pointer                  dcl 2-55 set ref 13 156*
addr                                                   builtin function         dcl 46 ref 106 106 106 106 106 106 269 269 269 269
                                                                                  269 269
any_other                       000000 stack reference condition                dcl 50 ref 261
center_headers            4     010203 automatic       bit(1)                   level 3 packed packed unaligned dcl 28 set ref 86*
center_trailers           4(01) 010203 automatic       bit(1)                   level 3 packed packed unaligned dcl 28 set ref 87*
change_origin                   000100 automatic       bit(1)                   dcl 18 set ref 95* 96* 100* 102*
choice                                 parameter       fixed bin(17,0)          dcl 19 set ref 13 144* 153 161 167 172 177 183 189
                                                                                  195 201 207
choices                         000101 automatic       varying char(32)         array dcl 20 set ref 69* 70* 71* 72* 73* 74* 106*
                                                                                  269*
code                                   parameter       fixed bin(35,0)          dcl 21 set ref 13 96* 97 102* 103 106* 108 110* 117*
                                                                                  118 120* 128* 129 142* 143* 144* 148 150* 156* 158
                                                                                  164 180 186 192 198 204 221* 229* 237* 245* 253*
                                                                                  262* 263 265* 269* 271 273* 276* 277 279*
constraints               1     010203 automatic       structure                level 2 unaligned dcl 28
cu_$cl                          000010 constant        entry                    external dcl 55 ref 285
empty                                                  builtin function         dcl 46 ref 27
extent                    3            parameter       structure                level 2 unaligned dcl 39
fkey                                   parameter       bit(1)                   dcl 23 set ref 13 144* 153
flags                     4     010203 automatic       structure                level 2 packed packed unaligned dcl 28
function_key_data_ptr                  parameter       pointer                  dcl 1-34 set ref 13 144*
headers                         000170 automatic       varying char(30)         array dcl 24 set ref 76* 106* 269*
height                    4            parameter       fixed bin(17,0)          level 3 dcl 39 set ref 99
init_display                    000167 automatic       bit(1)                   initial dcl 22 set ref 22* 124 127*
iox_$control                    000022 constant        entry                    external dcl 3-8 ref 143
iox_$user_io                    000024 external static pointer                  dcl 3-41 set ref 102* 143* 262*
key_info                               based           structure                level 1 packed packed unaligned dcl 1-28
last1                                  parameter       fixed bin(17,0)          dcl 41 set ref 13 169* 209*
max_height                2     010203 automatic       fixed bin(17,0)          level 3 dcl 28 set ref 84* 96* 99 156*
max_width                 1     010203 automatic       fixed bin(17,0)          level 3 dcl 28 set ref 83*
menu_$create                    000026 constant        entry                    external dcl 4-8 ref 106 269
menu_$display                   000030 constant        entry                    external dcl 4-20 ref 117 276
menu_$get_choice                000032 constant        entry                    external dcl 4-26 ref 144
menu_format                            based           structure                level 1 dcl 4-76
menu_format_version_1                  constant        fixed bin(17,0)          initial dcl 4-97 ref 82
menu_io                                parameter       pointer                  dcl 25 set ref 13 96* 110* 117* 120* 128* 144* 150*
                                                                                  174* 212* 221* 229* 237* 245* 253* 265* 273* 276*
                                                                                  279*
menu_ptr                        000202 automatic       pointer                  dcl 26 set ref 106* 117* 144* 269* 276*
menu_requirements                      based           structure                level 1 dcl 4-88
menu_requirements_version_1            constant        fixed bin(17,0)          initial dcl 4-97 ref 91
my_area                         000204 automatic       area(4095)               dcl 27 set ref 27* 106 106 269 269
my_menu_format                  010203 automatic       structure                level 1 unaligned dcl 28 set ref 106 106 269 269
my_menu_requirements            010211 automatic       structure                level 1 unaligned dcl 29 set ref 91* 106 106 269 269
n_columns                 3     010203 automatic       fixed bin(17,0)          level 2 dcl 28 set ref 85*
new_io_height                   010222 automatic       fixed bin(17,0)          dcl 31 set ref 99* 102* 156*
null                                                   builtin function         dcl 46 ref 143 143
pad                       4(02) 010203 automatic       bit(34)                  level 3 packed packed unaligned dcl 28 set ref 88*
pad_char                  5     010203 automatic       char(1)                  level 2 packed packed unaligned dcl 28 set ref 89*
program_interrupt               010304 stack reference condition                dcl 50 ref 133
pseudo                                 parameter       bit(1)                   dcl 42 ref 13 77 282
seg_name                        010223 automatic       char(13)                 initial packed unaligned dcl 32 set ref 32* 128*
seg_name_1                      010227 automatic       char(14)                 initial packed unaligned dcl 33 set ref 33* 221*
seg_name_2                      010233 automatic       char(10)                 initial packed unaligned dcl 34 set ref 34* 229*
seg_name_3                      010236 automatic       char(13)                 initial packed unaligned dcl 35 set ref 35* 237*
seg_name_4                      010242 automatic       char(14)                 initial packed unaligned dcl 36 set ref 36* 245*
seg_name_5                      010246 automatic       char(9)                  initial packed unaligned dcl 37 set ref 37* 253*
trailers                        010251 automatic       varying char(40)         array dcl 38 set ref 77* 79* 80* 106* 268* 269* 282*
                                                                                  284*
true_window_info                010215 automatic       structure                level 1 unaligned dcl 30 set ref 96* 102* 156*
tut_bottom_                     000016 constant        entry                    external dcl 58 ref 156
tut_get_seg_                    000012 constant        entry                    external dcl 56 ref 128 221 229 237 245 253
tut_quit_                       000014 constant        entry                    external dcl 57 ref 110 120 150 265 273 279
tut_window_                     000020 constant        entry                    external dcl 59 ref 96 102
user_io_window_info                    parameter       structure                level 1 unaligned dcl 39 set ref 13 110* 120* 128*
                                                                                  150* 221* 229* 237* 245* 253* 265* 273* 279*
version                         010203 automatic       fixed bin(17,0)          level 2 dcl 28 set ref 82*
width                     3            parameter       fixed bin(17,0)          level 3 dcl 39 set ref 83
window_$bell                    000034 constant        entry                    external dcl 5-6 ref 174 212
window_$clear_window            000036 constant        entry                    external dcl 5-13 ref 262
window_position_info                   based           structure                level 1 unaligned dcl 6-25

NAMES DECLARED BY DECLARE STATEMENT AND NEVER REFERENCED.
KEY_CTRL                               internal static fixed bin(17,0)          initial dcl 1-22
KEY_CTRL_AND_SHIFT                     internal static fixed bin(17,0)          initial dcl 1-22
KEY_PLAIN                              internal static fixed bin(17,0)          initial dcl 1-22
KEY_SHIFT                              internal static fixed bin(17,0)          initial dcl 1-22
Vhelp_args_3                           internal static fixed bin(17,0)          initial dcl 2-55
break_table_info                       based           structure                level 1 dcl 6-76
break_table_info_version               internal static fixed bin(17,0)          initial dcl 6-80
break_table_info_version_1             internal static fixed bin(17,0)          initial dcl 6-80
break_table_ptr                        automatic       pointer                  dcl 6-75
function_key_data                      based           structure                level 1 dcl 1-7
function_key_data_highest              automatic       fixed bin(17,0)          dcl 1-35
function_key_data_version_1            internal static fixed bin(17,0)          initial dcl 1-36
function_key_seqs                      based           char                     packed unaligned dcl 1-32
get_editor_key_bindings_info           based           structure                level 1 dcl 6-151
get_editor_key_bindings_info_ptr       automatic       pointer                  dcl 6-159
get_editor_key_bindings_info_version_1 internal static char(8)                  initial packed unaligned dcl 6-160
help_                           000000 constant        entry                    external dcl 2-160
help_$init                      000000 constant        entry                    external dcl 2-160
help_$term                      000000 constant        entry                    external dcl 2-160
help_args                              based           structure                level 1 dcl 2-55
iox_$attach_loud                000000 constant        entry                    external dcl 3-8
iox_$attach_name                000000 constant        entry                    external dcl 3-8
iox_$attach_ptr                 000000 constant        entry                    external dcl 3-8
iox_$close                      000000 constant        entry                    external dcl 3-8
iox_$close_file                 000000 constant        entry                    external dcl 3-8
iox_$delete_record              000000 constant        entry                    external dcl 3-8
iox_$destroy_iocb               000000 constant        entry                    external dcl 3-8
iox_$detach                     000000 constant        entry                    external dcl 3-8
iox_$detach_iocb                000000 constant        entry                    external dcl 3-8
iox_$err_no_operation           000000 constant        entry                    external dcl 3-8
iox_$err_not_attached           000000 constant        entry                    external dcl 3-8
iox_$err_not_closed             000000 constant        entry                    external dcl 3-8
iox_$err_not_open               000000 constant        entry                    external dcl 3-8
iox_$error_output                      external static pointer                  dcl 3-41
iox_$find_iocb                  000000 constant        entry                    external dcl 3-8
iox_$find_iocb_n                000000 constant        entry                    external dcl 3-8
iox_$get_chars                  000000 constant        entry                    external dcl 3-8
iox_$get_line                   000000 constant        entry                    external dcl 3-8
iox_$look_iocb                  000000 constant        entry                    external dcl 3-8
iox_$modes                      000000 constant        entry                    external dcl 3-8
iox_$move_attach                000000 constant        entry                    external dcl 3-8
iox_$open                       000000 constant        entry                    external dcl 3-8
iox_$open_file                  000000 constant        entry                    external dcl 3-8
iox_$position                   000000 constant        entry                    external dcl 3-8
iox_$propagate                  000000 constant        entry                    external dcl 3-8
iox_$put_chars                  000000 constant        entry                    external dcl 3-8
iox_$read_key                   000000 constant        entry                    external dcl 3-8
iox_$read_length                000000 constant        entry                    external dcl 3-8
iox_$read_record                000000 constant        entry                    external dcl 3-8
iox_$rewrite_record             000000 constant        entry                    external dcl 3-8
iox_$seek_key                   000000 constant        entry                    external dcl 3-8
iox_$user_input                        external static pointer                  dcl 3-41
iox_$user_output                       external static pointer                  dcl 3-41
iox_$write_record               000000 constant        entry                    external dcl 3-8
key_info_ptr                           automatic       pointer                  dcl 1-38
line_editor_binding_count              automatic       fixed bin(17,0)          dcl 6-121
line_editor_key_binding_info           based           structure                level 1 dcl 6-129
line_editor_key_binding_info_ptr       automatic       pointer                  dcl 6-118
line_editor_key_binding_info_version_3 internal static char(8)                  initial packed unaligned dcl 6-148
line_editor_longest_sequence           automatic       fixed bin(17,0)          dcl 6-123
menu_$delete                    000000 constant        entry                    external dcl 4-61
menu_$describe                  000000 constant        entry                    external dcl 4-35
menu_$destroy                   000000 constant        entry                    external dcl 4-41
menu_$list                      000000 constant        entry                    external dcl 4-67
menu_$retrieve                  000000 constant        entry                    external dcl 4-54
menu_$store                     000000 constant        entry                    external dcl 4-46
menu_format_ptr                        automatic       pointer                  dcl 4-94
menu_requirements_ptr                  automatic       pointer                  dcl 4-95
more_handler_info                      based           structure                level 1 dcl 6-83
more_handler_info_ptr                  automatic       pointer                  dcl 6-92
more_handler_info_version              internal static fixed bin(17,0)          initial dcl 6-94
more_handler_info_version_3            internal static fixed bin(17,0)          initial dcl 6-94
more_prompt_info                       based           structure                level 1 dcl 6-108
more_prompt_info_ptr                   automatic       pointer                  dcl 6-112
more_prompt_info_version_1             internal static char(8)                  initial packed unaligned dcl 6-114
more_responses_info                    based           structure                level 1 dcl 6-59
more_responses_info_ptr                automatic       pointer                  dcl 6-69
more_responses_info_version_1          internal static fixed bin(17,0)          initial dcl 6-67
more_responses_version                 internal static fixed bin(17,0)          initial dcl 6-67
set_editor_key_bindings_info           based           structure                level 1 dcl 6-162
set_editor_key_bindings_info_ptr       automatic       pointer                  dcl 6-171
set_editor_key_bindings_info_version_1 internal static char(8)                  initial packed unaligned dcl 6-172
token_characters_info                  based           structure                level 1 dcl 6-97
token_characters_info_ptr              automatic       pointer                  dcl 6-104
token_characters_info_version_1        internal static char(8)                  initial packed unaligned dcl 6-106
video_data_$terminal_iocb              external static pointer                  dcl 63
window_$change_column           000000 constant        entry                    external dcl 5-63
window_$change_line             000000 constant        entry                    external dcl 5-59
window_$clear_region            000000 constant        entry                    external dcl 5-7
window_$clear_to_end_of_line    000000 constant        entry                    external dcl 5-9
window_$clear_to_end_of_window  000000 constant        entry                    external dcl 5-11
window_$create                  000000 constant        entry                    external dcl 5-72
window_$delete_chars            000000 constant        entry                    external dcl 5-15
window_$destroy                 000000 constant        entry                    external dcl 5-74
window_$edit_line               000000 constant        entry                    external dcl 5-76
window_$get_cursor_position     000000 constant        entry                    external dcl 5-17
window_$get_echoed_chars        000000 constant        entry                    external dcl 5-22
window_$get_one_unechoed        000000 constant        entry                    external dcl 5-67
window_$get_one_unechoed_char   000000 constant        entry                    external dcl 5-67
window_$get_unechoed_chars      000000 constant        entry                    external dcl 5-25
window_$insert_text             000000 constant        entry                    external dcl 5-28
window_$overwrite_text          000000 constant        entry                    external dcl 5-29
window_$position_cursor         000000 constant        entry                    external dcl 5-31
window_$position_cursor_rel     000000 constant        entry                    external dcl 5-36
window_$scroll_region           000000 constant        entry                    external dcl 5-42
window_$sync                    000000 constant        entry                    external dcl 5-44
window_$write_raw_text          000000 constant        entry                    external dcl 5-48
window_$write_sync_read         000000 constant        entry                    external dcl 5-53
window_edit_line_info                  based           structure                level 1 unaligned dcl 6-177
window_edit_line_info_ptr              automatic       pointer                  dcl 6-186
window_edit_line_info_version_1        internal static char(8)                  initial packed unaligned dcl 6-183
window_position_info_ptr               automatic       pointer                  dcl 6-37
window_position_info_version           internal static fixed bin(17,0)          initial dcl 6-35
window_position_info_version_1         internal static fixed bin(17,0)          initial dcl 6-35
window_status_info                     based           structure                level 1 dcl 6-45
window_status_info_ptr                 automatic       pointer                  dcl 6-43
window_status_version                  internal static fixed bin(17,0)          initial dcl 6-52
window_status_version_1                internal static fixed bin(17,0)          initial dcl 6-52

NAMES DECLARED BY EXPLICIT CONTEXT.
NEXT                            000764 constant        label                    dcl 133 ref 124
START                           000502 constant        label                    dcl 100 ref 133
dictionary                      001415 constant        entry                    internal dcl 242 ref 197
formatting                      001335 constant        entry                    internal dcl 226 ref 185
list                            001445 constant        entry                    internal dcl 250 ref 203
segment                         001305 constant        entry                    internal dcl 218 ref 179
speedtyping                     001365 constant        entry                    internal dcl 234 ref 191
tut_cl                          001476 constant        entry                    internal dcl 258 ref 163
tut_wordpro_                    000254 constant        entry                    external dcl 13

THERE WERE NO NAMES DECLARED BY CONTEXT OR IMPLICATION.

STORAGE REQUIREMENTS FOR THIS PROGRAM.

	Object	Text	Link	Symbol	Defs	Static
Start          0       0      2202        2242    2017        2212
Length      2566    2017        40         310     162           0

BLOCK NAME	         STACK SIZE     TYPE		WHY NONQUICK/WHO SHARES STACK FRAME
tut_wordpro_                       4486 external procedure  is an external procedure.
on unit on line 133                  64 on unit
segment                                 internal procedure  shares stack frame of external procedure tut_wordpro_.
formatting                              internal procedure  shares stack frame of external procedure tut_wordpro_.
speedtyping                             internal procedure  shares stack frame of external procedure tut_wordpro_.
dictionary                              internal procedure  shares stack frame of external procedure tut_wordpro_.
list                                    internal procedure  shares stack frame of external procedure tut_wordpro_.
tut_cl                              142 internal procedure  enables or reverts conditions.
on unit on line 261                  64 on unit

STORAGE FOR AUTOMATIC VARIABLES.

STACK FRAME                 LOC IDENTIFIER                  BLOCK NAME
tut_wordpro_             000100 change_origin               tut_wordpro_
                         000101 choices                     tut_wordpro_
                         000167 init_display                tut_wordpro_
                         000170 headers                     tut_wordpro_
                         000202 menu_ptr                    tut_wordpro_
                         000204 my_area                     tut_wordpro_
                         010203 my_menu_format              tut_wordpro_
                         010211 my_menu_requirements        tut_wordpro_
                         010215 true_window_info            tut_wordpro_
                         010222 new_io_height               tut_wordpro_
                         010223 seg_name                    tut_wordpro_
                         010227 seg_name_1                  tut_wordpro_
                         010233 seg_name_2                  tut_wordpro_
                         010236 seg_name_3                  tut_wordpro_
                         010242 seg_name_4                  tut_wordpro_
                         010246 seg_name_5                  tut_wordpro_
                         010251 trailers                    tut_wordpro_
                         010277 ME_WORDPRO                  tut_wordpro_

THE FOLLOWING EXTERNAL OPERATORS ARE USED BY THIS PROGRAM.
call_ext_out_desc   call_ext_out        call_int_this       return_mac          tra_ext_1           enable_op
ext_entry           int_entry           op_empty_

THE FOLLOWING EXTERNAL ENTRIES ARE CALLED BY THIS PROGRAM.
cu_$cl                        iox_$control                  menu_$create                  menu_$display
menu_$get_choice              tut_bottom_                   tut_get_seg_                  tut_quit_
tut_window_                   window_$bell                  window_$clear_window

THE FOLLOWING EXTERNAL VARIABLES ARE USED BY THIS PROGRAM.
iox_$user_io


   LINE    LOC      LINE    LOC      LINE    LOC      LINE    LOC      LINE    LOC      LINE    LOC      LINE    LOC
     13 000245        22 000261        27 000262        32 000265        33 000273        34 000301        35 000307
     36 000313        37 000317        40 000323        69 000326        70 000333        71 000340        72 000345
     73 000352        74 000357        76 000364        77 000370        79 000402        80 000407        82 000413
     83 000415        84 000420        85 000422        86 000424        87 000426        88 000430        89 000432
     91 000434        95 000441        96 000442        97 000473        99 000476       100 000502       102 000504
    103 000536       106 000541       108 000615       110 000620       111 000654       117 000655       118 000670
    120 000673       121 000727       124 000730       127 000732       128 000734       129 000761       133 000764
    138 001003       142 001004       143 001006       144 001040       148 001062       150 001065       151 001121
    153 001122       156 001130       158 001160       160 001163       161 001164       163 001166       164 001172
    166 001175       167 001176       169 001200       170 001202       172 001203       174 001205       177 001220
    179 001223       180 001224       182 001227       183 001230       185 001232       186 001233       188 001236
    189 001237       191 001241       192 001242       194 001245       195 001246       197 001250       198 001251
    200 001254       201 001255       203 001257       204 001260       206 001263       207 001264       209 001266
    210 001270       212 001271       214 001303       301 001304       218 001305       221 001306       222 001334
    226 001335       229 001336       230 001364       234 001365       237 001366       238 001414       242 001415
    245 001416       246 001444       250 001445       253 001446       254 001474       258 001475       261 001503
    262 001520       263 001533       265 001537       266 001573       268 001574       269 001601       271 001656
    273 001662       274 001716       276 001717       277 001732       279 001736       280 001772       282 001773
    284 002004       285 002011       287 002016


                                          -----------------------------------------------------------


Historical Background

This edition of the Multics software materials and documentation is provided and donated
to Massachusetts Institute of Technology by Group BULL including BULL HN Information Systems Inc.
as a contribution to computer science knowledge.
This donation is made also to give evidence of the common contributions of Massachusetts Institute of Technology,
Bell Laboratories, General Electric, Honeywell Information Systems Inc., Honeywell BULL Inc., Groupe BULL
and BULL HN Information Systems Inc. to the development of this operating system.
Multics development was initiated by Massachusetts Institute of Technology Project MAC (1963-1970),
renamed the MIT Laboratory for Computer Science and Artificial Intelligence in the mid 1970s, under the leadership
of Professor Fernando Jose Corbato. Users consider that Multics provided the best software architecture
for managing computer hardware properly and for executing programs. Many subsequent operating systems
incorporated Multics principles.
Multics was distributed in 1975 to 2000 by Group Bull in Europe , and in the U.S. by Bull HN Information Systems Inc.,
as successor in interest by change in name only to Honeywell Bull Inc. and Honeywell Information Systems Inc. .

                                          -----------------------------------------------------------

Permission to use, copy, modify, and distribute these programs and their documentation for any purpose and without
fee is hereby granted,provided that the below copyright notice and historical background appear in all copies
and that both the copyright notice and historical background and this permission notice appear in supporting
documentation, and that the names of MIT, HIS, BULL or BULL HN not be used in advertising or publicity pertaining
to distribution of the programs without specific prior written permission.
    Copyright 1972 by Massachusetts Institute of Technology and Honeywell Information Systems Inc.
    Copyright 2006 by BULL HN Information Systems Inc.
    Copyright 2006 by Bull SAS
    All Rights Reserved
