ASSEMBLY LISTING OF SEGMENT >spec>on>mtape>vector_util_.alm
ASSEMBLED ON:	02/16/84  1254.2 mst Thu
OPTIONS USED:	list
ASSEMBLED BY:	ALM Version  6.6  November 1982
ASSEMBLER CREATED:	09/21/83  1227.3 mst Wed

                                     1  " ***********************************************************
                                     2  " *                                                         *
                                     3  " * Copyright, (C) Honeywell Information Systems Inc., 1983 *
                                     4  " *                                                         *
                                     5  " ***********************************************************
    000000                           6  	name	vector_util_
                                     7
                                     8  " Modified:
                                     9  " 06/28/82 by Lindsey Spratt: added the cv_typed_to_print entry_point.
                                    10  " 09/19/82 by Ed Wallman: Added build_display_info entrypoint.
                                    11  " 09/23/82 by Lindsey Spratt:  Added the free_typed_vector and
                                    12  "	    free_typed_vector_array entries.
                                    13  " 02/08/83 by Lindsey Spratt:  added copy_typed_vector,
                                    14  "	    copy_typed_vector_array.
                                    15  " 03/08/83 by Matthew Pierret: added copy_typed_vector_array for real.
                                    16  " 06/09/83 by S. Krupp: added replace_print_value entry.
                                    17  " 07/24/83 by Lindsey Spratt: added cv_pva_to_string and cv_string_to_pva.
                                    18  " 08/31/83 by J. A. Bush: remove entries not needed by process_arguments_ for
                                    19  "	 inclusion in bound_mtape_ for the MR10.2 release.
                                    20  " Macro to generate a call to an external entrypoint in the utilities
                                    21
                                    22  	macro	ext_transfer
                              1     23  	segdef	&1
                              2     24  &1:	getlp
                              3     25  	tra	&2
                              4     26
                              5     27  	&end
                                    28
                                    29  	ext_transfer init_print_vector_array,vu_init_print_vector_array$vu_init_print_vector_array
                        000000          	segdef	init_print_vector_array
    000000  aa  7 00046 2721 20         init_print_vector_array:	getlp
    000001  4a  4 00010 7101 20         	tra	vu_init_print_vector_array$vu_init_print_vector_array

                                    30  	ext_transfer append_simple_print_vector,vu_append_simple_print$vu_append_simple_print
                        000002          	segdef	append_simple_print_vector
    000002  aa  7 00046 2721 20         append_simple_print_vector:	getlp
    000003  4a  4 00012 7101 20         	tra	vu_append_simple_print$vu_append_simple_print

                                    31  	ext_transfer append_general_print_vector,vu_append_general_print$vu_append_general_print
                        000004          	segdef	append_general_print_vector
    000004  aa  7 00046 2721 20         append_general_print_vector:	getlp
    000005  4a  4 00014 7101 20         	tra	vu_append_general_print$vu_append_general_print

                                    32  	ext_transfer append_dimension_print,vu_append_dimension_print$vu_append_dimension_print
                        000006          	segdef	append_dimension_print
    000006  aa  7 00046 2721 20         append_dimension_print:	getlp
    000007  4a  4 00016 7101 20         	tra	vu_append_dimension_print$vu_append_dimension_print

                                    33  	ext_transfer err_no_operation,vu_err_no_operation$vu_err_no_operation
                        000010          	segdef	err_no_operation
    000010  aa  7 00046 2721 20         err_no_operation:	getlp
    000011  4a  4 00020 7101 20         	tra	vu_err_no_operation$vu_err_no_operation

                                    34  	ext_transfer replace_print_value,vu_replace_print_value$replace_print_value
                        000012          	segdef	replace_print_value
    000012  aa  7 00046 2721 20         replace_print_value:	getlp
    000013  4a  4 00022 7101 20         	tra	vu_replace_print_value$replace_print_value

                                    35  	ext_transfer cv_pva_to_string,vu_cv_pva_to_string$vu_cv_pva_to_string
                        000014          	segdef	cv_pva_to_string
    000014  aa  7 00046 2721 20         cv_pva_to_string:	getlp
    000015  4a  4 00024 7101 20         	tra	vu_cv_pva_to_string$vu_cv_pva_to_string

                                    36  	ext_transfer cv_string_to_pva,vu_cv_string_to_pva$vu_cv_string_to_pva
                        000016          	segdef	cv_string_to_pva
    000016  aa  7 00046 2721 20         cv_string_to_pva:	getlp
    000017  4a  4 00026 7101 20         	tra	vu_cv_string_to_pva$vu_cv_string_to_pva

                                    37  	end

NO LITERALS

NAME DEFINITIONS FOR ENTRY POINTS AND SEGDEFS

    000020  5a   000003 000000
    000021  5a   000127 600000
    000022  aa   000000 000000
    000023  55   000012 000002
    000024  5a   000002 400003
    000025  55   000006 000012
    000026  aa  014 166 145 143
    000027  aa  164 157 162 137
    000030  aa  165 164 151 154
    000031  aa  137 000 000 000
    000032  55   000022 000003
    000033  0a   000016 400000
    000034  55   000015 000003
    000035  aa  020 143 166 137         cv_string_to_pva
    000036  aa  163 164 162 151
    000037  aa  156 147 137 164
    000040  aa  157 137 160 166
    000041  aa  141 000 000 000
    000042  55   000032 000012
    000043  0a   000014 400000
    000044  55   000025 000003
    000045  aa  020 143 166 137         cv_pva_to_string
    000046  aa  160 166 141 137
    000047  aa  164 157 137 163
    000050  aa  164 162 151 156
    000051  aa  147 000 000 000
    000052  55   000042 000022
    000053  0a   000012 400000
    000054  55   000035 000003
    000055  aa  023 162 145 160         replace_print_value
    000056  aa  154 141 143 145
    000057  aa  137 160 162 151
    000060  aa  156 164 137 166
    000061  aa  141 154 165 145
    000062  55   000052 000032
    000063  0a   000010 400000
    000064  55   000045 000003
    000065  aa  020 145 162 162         err_no_operation
    000066  aa  137 156 157 137
    000067  aa  157 160 145 162
    000070  aa  141 164 151 157
    000071  aa  156 000 000 000
    000072  55   000063 000042
    000073  0a   000006 400000
    000074  55   000055 000003
    000075  aa  026 141 160 160         append_dimension_print
    000076  aa  145 156 144 137
    000077  aa  144 151 155 145
    000100  aa  156 163 151 157
    000101  aa  156 137 160 162
    000102  aa  151 156 164 000
    000103  55   000075 000052
    000104  0a   000004 400000
    000105  55   000066 000003
    000106  aa  033 141 160 160         append_general_print_vector
    000107  aa  145 156 144 137
    000110  aa  147 145 156 145
    000111  aa  162 141 154 137
    000112  aa  160 162 151 156
    000113  aa  164 137 166 145
    000114  aa  143 164 157 162
    000115  55   000107 000063
    000116  0a   000002 400000
    000117  55   000100 000003
    000120  aa  032 141 160 160         append_simple_print_vector
    000121  aa  145 156 144 137
    000122  aa  163 151 155 160
    000123  aa  154 145 137 160
    000124  aa  162 151 156 164
    000125  aa  137 166 145 143
    000126  aa  164 157 162 000
    000127  55   000120 000075
    000130  0a   000000 400000
    000131  55   000112 000003
    000132  aa  027 151 156 151         init_print_vector_array
    000133  aa  164 137 160 162
    000134  aa  151 156 164 137
    000135  aa  166 145 143 164
    000136  aa  157 162 137 141
    000137  aa  162 162 141 171
    000140  55   000002 000107
    000141  6a   000000 400002
    000142  55   000123 000003
    000143  aa  014 163 171 155         symbol_table
    000144  aa  142 157 154 137
    000145  aa  164 141 142 154
    000146  aa  145 000 000 000

DEFINITIONS HASH TABLE

    000147  aa   000000 000015
    000150  5a   000022 000000
    000151  aa   000000 000000
    000152  aa   000000 000000
    000153  5a   000075 000000
    000154  aa   000000 000000
    000155  5a   000032 000000
    000156  5a   000107 000000
    000157  5a   000120 000000
    000160  aa   000000 000000
    000161  5a   000042 000000
    000162  5a   000052 000000
    000163  5a   000063 000000
    000164  5a   000012 000000

EXTERNAL NAMES

    000165  aa  023 166 165 137         vu_cv_string_to_pva
    000166  aa  143 166 137 163
    000167  aa  164 162 151 156
    000170  aa  147 137 164 157
    000171  aa  137 160 166 141
    000172  aa  023 166 165 137         vu_cv_pva_to_string
    000173  aa  143 166 137 160
    000174  aa  166 141 137 164
    000175  aa  157 137 163 164
    000176  aa  162 151 156 147
    000177  aa  026 166 165 137         vu_replace_print_value
    000200  aa  162 145 160 154
    000201  aa  141 143 145 137
    000202  aa  160 162 151 156
    000203  aa  164 137 166 141
    000204  aa  154 165 145 000
    000205  aa  023 166 165 137         vu_err_no_operation
    000206  aa  145 162 162 137
    000207  aa  156 157 137 157
    000210  aa  160 145 162 141
    000211  aa  164 151 157 156
    000212  aa  031 166 165 137         vu_append_dimension_print
    000213  aa  141 160 160 145
    000214  aa  156 144 137 144
    000215  aa  151 155 145 156
    000216  aa  163 151 157 156
    000217  aa  137 160 162 151
    000220  aa  156 164 000 000
    000221  aa  027 166 165 137         vu_append_general_print
    000222  aa  141 160 160 145
    000223  aa  156 144 137 147
    000224  aa  145 156 145 162
    000225  aa  141 154 137 160
    000226  aa  162 151 156 164
    000227  aa  026 166 165 137         vu_append_simple_print
    000230  aa  141 160 160 145
    000231  aa  156 144 137 163
    000232  aa  151 155 160 154
    000233  aa  145 137 160 162
    000234  aa  151 156 164 000
    000235  aa  032 166 165 137         vu_init_print_vector_array
    000236  aa  151 156 151 164
    000237  aa  137 160 162 151
    000240  aa  156 164 137 166
    000241  aa  145 143 164 157
    000242  aa  162 137 141 162
    000243  aa  162 141 171 000

NO TRAP POINTER WORDS

TYPE PAIR BLOCKS

    000244  aa   000004 000000
    000245  55   000145 000145
    000246  aa   000004 000000
    000247  55   000152 000152
    000250  aa   000004 000000
    000251  55   000157 000035
    000252  aa   000004 000000
    000253  55   000165 000165
    000254  aa   000004 000000
    000255  55   000172 000172
    000256  aa   000004 000000
    000257  55   000201 000201
    000260  aa   000004 000000
    000261  55   000207 000207
    000262  aa   000004 000000
    000263  55   000215 000215
    000264  aa   000001 000000
    000265  aa   000000 000000

INTERNAL EXPRESSION WORDS

    000266  5a   000224 000000
    000267  5a   000226 000000
    000270  5a   000230 000000
    000271  5a   000232 000000
    000272  5a   000234 000000
    000273  5a   000236 000000
    000274  5a   000240 000000
    000275  5a   000242 000000
LINKAGE INFORMATION

    000000  aa   000000 000000
    000001  0a   000020 000000
    000002  aa   000000 000000
    000003  aa   000000 000000
    000004  aa   000000 000000
    000005  aa   000000 000000
    000006  22   000010 000030
    000007  a2   000000 000000
    000010  9a   777770 0000 46         vu_init_print_vector_array|vu_init_print_vector_array
    000011  5a   000255 0000 00
    000012  9a   777766 0000 46         vu_append_simple_print|vu_append_simple_print
    000013  5a   000254 0000 00
    000014  9a   777764 0000 46         vu_append_general_print|vu_append_general_print
    000015  5a   000253 0000 00
    000016  9a   777762 0000 46         vu_append_dimension_print|vu_append_dimension_print
    000017  5a   000252 0000 00
    000020  9a   777760 0000 46         vu_err_no_operation|vu_err_no_operation
    000021  5a   000251 0000 00
    000022  9a   777756 0000 46         vu_replace_print_value|replace_print_value
    000023  5a   000250 0000 00
    000024  9a   777754 0000 46         vu_cv_pva_to_string|vu_cv_pva_to_string
    000025  5a   000247 0000 00
    000026  9a   777752 0000 46         vu_cv_string_to_pva|vu_cv_string_to_pva
    000027  5a   000246 0000 00
SYMBOL INFORMATION

SYMBOL TABLE HEADER

    000000  aa   000000 000001
    000001  aa   163171 155142
    000002  aa   164162 145145
    000003  aa   000000 000004
    000004  aa   000000 112143
    000005  aa   305203 523135
    000006  aa   000000 112435
    000007  aa   371273 573157
    000010  aa   141154 155040
    000011  aa   040040 040040
    000012  aa   000024 000040
    000013  aa   000034 000040
    000014  aa   000044 000100
    000015  aa   000002 000002
    000016  aa   000064 000000
    000017  aa   000000 000122
    000020  aa   000000 000102
    000021  aa   000000 000106
    000022  aa   000114 000102
    000023  aa   000064 000000
    000024  aa   101114 115040
    000025  aa   126145 162163
    000026  aa   151157 156040
    000027  aa   040066 056066
    000030  aa   040040 116157
    000031  aa   166145 155142
    000032  aa   145162 040061
    000033  aa   071070 062040
    000034  aa   107112 157150
    000035  aa   156163 157156
    000036  aa   056123 171163
    000037  aa   115141 151156
    000040  aa   164056 155040
    000041  aa   040040 040040
    000042  aa   040040 040040
    000043  aa   040040 040040
    000044  aa   154151 163164
    000045  aa   040040 040040
    000046  aa   040040 040040
    000047  aa   040040 040040
    000050  aa   040040 040040
    000051  aa   040040 040040
    000052  aa   040040 040040
    000053  aa   040040 040040
    000054  aa   040040 040040
    000055  aa   040040 040040
    000056  aa   040040 040040
    000057  aa   040040 040040
    000060  aa   040040 040040
    000061  aa   040040 040040
    000062  aa   040040 040040
    000063  aa   040040 040040
    000064  aa   000000 000001
    000065  aa   000000 000001
    000066  aa   000072 000037
    000067  aa   124347 261561
    000070  aa   000000 112435
    000071  aa   367340 600000
    000072  aa   076163 160145          >spec>on>mtape>vector_util_.alm
    000073  aa   143076 157156
    000074  aa   076155 164141
    000075  aa   160145 076166
    000076  aa   145143 164157
    000077  aa   162137 165164
    000100  aa   151154 137056
    000101  aa   141154 155040
               MULTICS ASSEMBLY CROSS REFERENCE LISTING

   Value        Symbol                   Source file   Line number

           6    append_dimension_print   vector_util_:        32.
           4    append_general_print_vector    vector_util_:        31.
           2    append_simple_print_vector     vector_util_:        30.
          14    cv_pva_to_string         vector_util_:        35.
          16    cv_string_to_pva         vector_util_:        36.
          10    err_no_operation         vector_util_:        33.
           0    init_print_vector_array  vector_util_:        29.
          12    replace_print_value      vector_util_:        34.
                vu_append_dimension_print      vector_util_:        32.
                vu_append_general_print  vector_util_:        31.
                vu_append_simple_print   vector_util_:        30.
                vu_cv_pva_to_string      vector_util_:        35.
                vu_cv_string_to_pva      vector_util_:        36.
                vu_err_no_operation      vector_util_:        33.
                vu_init_print_vector_array     vector_util_:        29.
                vu_replace_print_value   vector_util_:        34.


NO FATAL ERRORS


                                          -----------------------------------------------------------


Historical Background

This edition of the Multics software materials and documentation is provided and donated
to Massachusetts Institute of Technology by Group BULL including BULL HN Information Systems Inc.
as a contribution to computer science knowledge.
This donation is made also to give evidence of the common contributions of Massachusetts Institute of Technology,
Bell Laboratories, General Electric, Honeywell Information Systems Inc., Honeywell BULL Inc., Groupe BULL
and BULL HN Information Systems Inc. to the development of this operating system.
Multics development was initiated by Massachusetts Institute of Technology Project MAC (1963-1970),
renamed the MIT Laboratory for Computer Science and Artificial Intelligence in the mid 1970s, under the leadership
of Professor Fernando Jose Corbato. Users consider that Multics provided the best software architecture
for managing computer hardware properly and for executing programs. Many subsequent operating systems
incorporated Multics principles.
Multics was distributed in 1975 to 2000 by Group Bull in Europe , and in the U.S. by Bull HN Information Systems Inc.,
as successor in interest by change in name only to Honeywell Bull Inc. and Honeywell Information Systems Inc. .

                                          -----------------------------------------------------------

Permission to use, copy, modify, and distribute these programs and their documentation for any purpose and without
fee is hereby granted,provided that the below copyright notice and historical background appear in all copies
and that both the copyright notice and historical background and this permission notice appear in supporting
documentation, and that the names of MIT, HIS, BULL or BULL HN not be used in advertising or publicity pertaining
to distribution of the programs without specific prior written permission.
    Copyright 1972 by Massachusetts Institute of Technology and Honeywell Information Systems Inc.
    Copyright 2006 by BULL HN Information Systems Inc.
    Copyright 2006 by Bull SAS
    All Rights Reserved
