ASSEMBLY LISTING OF SEGMENT >special_ldd>install>MR12.0-1127>vfile_relmgr_.alm
ASSEMBLED ON:	08/15/86  1447.7 mst Fri
OPTIONS USED:	-target Level68 list
ASSEMBLED BY:	ALM Version  6.6  November 1982
ASSEMBLER CREATED:	09/21/83  1227.3 mst Wed

                                     1  " ***********************************************************
                                     2  " *                                                         *
                                     3  " * Copyright, (C) Honeywell Information Systems Inc., 1982 *
                                     4  " *                                                         *
                                     5  " ***********************************************************
                                     6
                                     7  " HISTORY COMMENTS:
                                     8  "  1) change(86-06-13,Dupuis), approve(86-08-05,MCR7491),
                                     9  "     audit(86-08-08,Blair), install(86-08-15,MR12.0-1127):
                                    10  "     Made available so that an unbound version of mrds could be created
                                    11  "     easily. (phx20405, mrds #157)
                                    12  "                                                      END HISTORY COMMENTS
                                    13
                                    14  "
                                    15  "
                                    16  "82-08-19 Roger Lackey : created
                                    17  "83-03-14 Roger Lackey : added get_tuples_and_ids
                                    18  "83-09-20 Ron Harvey : made get_population an implemented entry
                                    19  "
                                    20  " Macro to generate a call to an external entrypoint in the manager
                                    21
                                    22  	macro	ext_transfer
                              1     23  	segdef	&1
                              2     24  &1:	getlp
                              3     25  	tra	&2
                              4     26
                              5     27  	&end
                                    28
    000000                          29  	name		vfile_relmgr_
                                    30
                                    31  	ext_transfer	close,vrm_close$close
                        000000          	segdef	close
    000000  aa  7 00046 2721 20         close:	getlp
    000001  4a  4 00010 7101 20         	tra	vrm_close$close

                                    32  	ext_transfer	create_cursor,vrm_create_cursor$create_cursor
                        000002          	segdef	create_cursor
    000002  aa  7 00046 2721 20         create_cursor:	getlp
    000003  4a  4 00012 7101 20         	tra	vrm_create_cursor$create_cursor

                                    33  	ext_transfer	create_index,vrm_index$create_index
                        000004          	segdef	create_index
    000004  aa  7 00046 2721 20         create_index:	getlp
    000005  4a  4 00014 7101 20         	tra	vrm_index$create_index

                                    34  	ext_transfer	create_MRDS_relation,vrm_create_relation$create_MRDS_relation
                        000006          	segdef	create_MRDS_relation
    000006  aa  7 00046 2721 20         create_MRDS_relation:	getlp
    000007  4a  4 00016 7101 20         	tra	vrm_create_relation$create_MRDS_relation

                                    35  	ext_transfer	create_relation,vrm_create_relation$create_relation
                        000010          	segdef	create_relation
    000010  aa  7 00046 2721 20         create_relation:	getlp
    000011  4a  4 00020 7101 20         	tra	vrm_create_relation$create_relation

                                    36  	ext_transfer	create_subset_index,vrm_unimplemented_function$return_error_code
                        000012          	segdef	create_subset_index
    000012  aa  7 00046 2721 20         create_subset_index:	getlp
    000013  4a  4 00022 7101 20         	tra	vrm_unimplemented_function$return_error_code

                                    37  	ext_transfer	delete_tuple_by_id,vrm_unimplemented_function$return_error_code
                        000014          	segdef	delete_tuple_by_id
    000014  aa  7 00046 2721 20         delete_tuple_by_id:	getlp
    000015  4a  4 00022 7101 20         	tra	vrm_unimplemented_function$return_error_code

                                    38  	ext_transfer	delete_tuples_by_id,vrm_delete_by_id$delete_tuples_by_id
                        000016          	segdef	delete_tuples_by_id
    000016  aa  7 00046 2721 20         delete_tuples_by_id:	getlp
    000017  4a  4 00024 7101 20         	tra	vrm_delete_by_id$delete_tuples_by_id

                                    39  	ext_transfer	delete_tuples_by_spec,vrm_unimplemented_function$return_error_code
                        000020          	segdef	delete_tuples_by_spec
    000020  aa  7 00046 2721 20         delete_tuples_by_spec:	getlp
    000021  4a  4 00022 7101 20         	tra	vrm_unimplemented_function$return_error_code

                                    40  	ext_transfer	destroy_cursor,vrm_destroy_cursor$destroy_cursor
                        000022          	segdef	destroy_cursor
    000022  aa  7 00046 2721 20         destroy_cursor:	getlp
    000023  4a  4 00026 7101 20         	tra	vrm_destroy_cursor$destroy_cursor

                                    41  	ext_transfer	destroy_index,vrm_index$destroy_index
                        000024          	segdef	destroy_index
    000024  aa  7 00046 2721 20         destroy_index:	getlp
    000025  4a  4 00030 7101 20         	tra	vrm_index$destroy_index

                                    42  	ext_transfer	destroy_relation_by_opening,vrm_destroy_relation$destroy_relation_by_opening
                        000026          	segdef	destroy_relation_by_opening
    000026  aa  7 00046 2721 20         destroy_relation_by_opening:	getlp
    000027  4a  4 00032 7101 20         	tra	vrm_destroy_relation$destroy_relation_by_opening

                                    43  	ext_transfer	destroy_relation_by_path,vrm_destroy_relation$destroy_relation_by_path
                        000030          	segdef	destroy_relation_by_path
    000030  aa  7 00046 2721 20         destroy_relation_by_path:	getlp
    000031  4a  4 00034 7101 20         	tra	vrm_destroy_relation$destroy_relation_by_path

                                    44  	ext_transfer	get_count,vrm_get_by_spec$get_count
                        000032          	segdef	get_count
    000032  aa  7 00046 2721 20         get_count:	getlp
    000033  4a  4 00036 7101 20         	tra	vrm_get_by_spec$get_count

                                    45  	ext_transfer	get_description,vrm_get_description$get_description
                        000034          	segdef	get_description
    000034  aa  7 00046 2721 20         get_description:	getlp
    000035  4a  4 00040 7101 20         	tra	vrm_get_description$get_description

                                    46  	ext_transfer	get_duplicate_key_count,vrm_get_duplicate_key_count$get_duplicate_key_count
                        000036          	segdef	get_duplicate_key_count
    000036  aa  7 00046 2721 20         get_duplicate_key_count:	getlp
    000037  4a  4 00042 7101 20         	tra	vrm_get_duplicate_key_count$get_duplicate_key_count

                                    47  	ext_transfer	get_max_and_min_attrs,vrm_unimplemented_function$return_error_code
                        000040          	segdef	get_max_and_min_attrs
    000040  aa  7 00046 2721 20         get_max_and_min_attrs:	getlp
    000041  4a  4 00022 7101 20         	tra	vrm_unimplemented_function$return_error_code

                                    48  	ext_transfer	get_open_relations,vrm_open_man$get_open_relations
                        000042          	segdef	get_open_relations
    000042  aa  7 00046 2721 20         get_open_relations:	getlp
    000043  4a  4 00044 7101 20         	tra	vrm_open_man$get_open_relations

                                    49  	ext_transfer	get_population,vrm_get_population$get_population
                        000044          	segdef	get_population
    000044  aa  7 00046 2721 20         get_population:	getlp
    000045  4a  4 00046 7101 20         	tra	vrm_get_population$get_population

                                    50  	ext_transfer	get_tuple_by_id,vrm_get_by_id$get_tuple_by_id
                        000046          	segdef	get_tuple_by_id
    000046  aa  7 00046 2721 20         get_tuple_by_id:	getlp
    000047  4a  4 00050 7101 20         	tra	vrm_get_by_id$get_tuple_by_id

                                    51  	ext_transfer	get_tuple_id,vrm_get_by_spec$get_tuple_id
                        000050          	segdef	get_tuple_id
    000050  aa  7 00046 2721 20         get_tuple_id:	getlp
    000051  4a  4 00052 7101 20         	tra	vrm_get_by_spec$get_tuple_id

                                    52  	ext_transfer	get_tuples_by_id,vrm_get_by_id$get_tuples_by_id
                        000052          	segdef	get_tuples_by_id
    000052  aa  7 00046 2721 20         get_tuples_by_id:	getlp
    000053  4a  4 00054 7101 20         	tra	vrm_get_by_id$get_tuples_by_id

                                    53  	ext_transfer	get_tuples_by_spec,vrm_get_by_spec$get_tuples_by_spec
                        000054          	segdef	get_tuples_by_spec
    000054  aa  7 00046 2721 20         get_tuples_by_spec:	getlp
    000055  4a  4 00056 7101 20         	tra	vrm_get_by_spec$get_tuples_by_spec

                                    54  	ext_transfer	get_tuples_and_ids,vrm_get_by_spec$get_tuples_and_ids
                        000056          	segdef	get_tuples_and_ids
    000056  aa  7 00046 2721 20         get_tuples_and_ids:	getlp
    000057  4a  4 00060 7101 20         	tra	vrm_get_by_spec$get_tuples_and_ids

                                    55  	ext_transfer	metering_on,vrm_create_cursor$metering_on
                        000060          	segdef	metering_on
    000060  aa  7 00046 2721 20         metering_on:	getlp
    000061  4a  4 00062 7101 20         	tra	vrm_create_cursor$metering_on

                                    56  	ext_transfer	metering_off,vrm_create_cursor$metering_off
                        000062          	segdef	metering_off
    000062  aa  7 00046 2721 20         metering_off:	getlp
    000063  4a  4 00064 7101 20         	tra	vrm_create_cursor$metering_off

                                    57  	ext_transfer	modify_tuple_by_id,vrm_unimplemented_function$return_error_code
                        000064          	segdef	modify_tuple_by_id
    000064  aa  7 00046 2721 20         modify_tuple_by_id:	getlp
    000065  4a  4 00022 7101 20         	tra	vrm_unimplemented_function$return_error_code

                                    58  	ext_transfer	modify_tuples_by_id,vrm_modify_by_id$modify_tuples_by_id
                        000066          	segdef	modify_tuples_by_id
    000066  aa  7 00046 2721 20         modify_tuples_by_id:	getlp
    000067  4a  4 00066 7101 20         	tra	vrm_modify_by_id$modify_tuples_by_id

                                    59  	ext_transfer	modify_tuples_by_spec,vrm_unimplemented_function$return_error_code
                        000070          	segdef	modify_tuples_by_spec
    000070  aa  7 00046 2721 20         modify_tuples_by_spec:	getlp
    000071  4a  4 00022 7101 20         	tra	vrm_unimplemented_function$return_error_code

                                    60  	ext_transfer	open,vrm_open$open
                        000072          	segdef	open
    000072  aa  7 00046 2721 20         open:	getlp
    000073  4a  4 00070 7101 20         	tra	vrm_open$open

                                    61  	ext_transfer	put_tuple,vrm_put$put_tuple
                        000074          	segdef	put_tuple
    000074  aa  7 00046 2721 20         put_tuple:	getlp
    000075  4a  4 00072 7101 20         	tra	vrm_put$put_tuple

                                    62  	ext_transfer	put_tuples,vrm_put$put_tuples
                        000076          	segdef	put_tuples
    000076  aa  7 00046 2721 20         put_tuples:	getlp
    000077  4a  4 00074 7101 20         	tra	vrm_put$put_tuples

                                    63  	ext_transfer	set_scope,vrm_set_scope$set_scope
                        000100          	segdef	set_scope
    000100  aa  7 00046 2721 20         set_scope:	getlp
    000101  4a  4 00076 7101 20         	tra	vrm_set_scope$set_scope

                                    64  	end

NO LITERALS

NAME DEFINITIONS FOR ENTRY POINTS AND SEGDEFS

    000102  5a   000003 000000
    000103  5a   000410 600000
    000104  aa   000000 000000
    000105  55   000012 000002
    000106  5a   000002 400003
    000107  55   000006 000012
    000110  aa  015 166 146 151
    000111  aa  154 145 137 162
    000112  aa  145 154 155 147
    000113  aa  162 137 000 000
    000114  55   000020 000003
    000115  0a   000100 400000
    000116  55   000015 000003
    000117  aa  011 163 145 164         set_scope
    000120  aa  137 163 143 157
    000121  aa  160 145 000 000
    000122  55   000026 000012
    000123  0a   000076 400000
    000124  55   000023 000003
    000125  aa  012 160 165 164         put_tuples
    000126  aa  137 164 165 160
    000127  aa  154 145 163 000
    000130  55   000034 000020
    000131  0a   000074 400000
    000132  55   000031 000003
    000133  aa  011 160 165 164         put_tuple
    000134  aa  137 164 165 160
    000135  aa  154 145 000 000
    000136  55   000041 000026
    000137  0a   000072 400000
    000140  55   000037 000003
    000141  aa  004 157 160 145         open
    000142  aa  156 000 000 000
    000143  55   000052 000034
    000144  0a   000070 400000
    000145  55   000044 000003
    000146  aa  025 155 157 144         modify_tuples_by_spec
    000147  aa  151 146 171 137
    000150  aa  164 165 160 154
    000151  aa  145 163 137 142
    000152  aa  171 137 163 160
    000153  aa  145 143 000 000
    000154  55   000062 000041
    000155  0a   000066 400000
    000156  55   000055 000003
    000157  aa  023 155 157 144         modify_tuples_by_id
    000160  aa  151 146 171 137
    000161  aa  164 165 160 154
    000162  aa  145 163 137 142
    000163  aa  171 137 151 144
    000164  55   000072 000052
    000165  0a   000064 400000
    000166  55   000065 000003
    000167  aa  022 155 157 144         modify_tuple_by_id
    000170  aa  151 146 171 137
    000171  aa  164 165 160 154
    000172  aa  145 137 142 171
    000173  aa  137 151 144 000
    000174  55   000101 000062
    000175  0a   000062 400000
    000176  55   000075 000003
    000177  aa  014 155 145 164         metering_off
    000200  aa  145 162 151 156
    000201  aa  147 137 157 146
    000202  aa  146 000 000 000
    000203  55   000107 000072
    000204  0a   000060 400000
    000205  55   000104 000003
    000206  aa  013 155 145 164         metering_on
    000207  aa  145 162 151 156
    000210  aa  147 137 157 156
    000211  55   000117 000101
    000212  0a   000056 400000
    000213  55   000112 000003
    000214  aa  022 147 145 164         get_tuples_and_ids
    000215  aa  137 164 165 160
    000216  aa  154 145 163 137
    000217  aa  141 156 144 137
    000220  aa  151 144 163 000
    000221  55   000127 000107
    000222  0a   000054 400000
    000223  55   000122 000003
    000224  aa  022 147 145 164         get_tuples_by_spec
    000225  aa  137 164 165 160
    000226  aa  154 145 163 137
    000227  aa  142 171 137 163
    000230  aa  160 145 143 000
    000231  55   000137 000117
    000232  0a   000052 400000
    000233  55   000132 000003
    000234  aa  020 147 145 164         get_tuples_by_id
    000235  aa  137 164 165 160
    000236  aa  154 145 163 137
    000237  aa  142 171 137 151
    000240  aa  144 000 000 000
    000241  55   000146 000127
    000242  0a   000050 400000
    000243  55   000142 000003
    000244  aa  014 147 145 164         get_tuple_id
    000245  aa  137 164 165 160
    000246  aa  154 145 137 151
    000247  aa  144 000 000 000
    000250  55   000155 000137
    000251  0a   000046 400000
    000252  55   000151 000003
    000253  aa  017 147 145 164         get_tuple_by_id
    000254  aa  137 164 165 160
    000255  aa  154 145 137 142
    000256  aa  171 137 151 144
    000257  55   000164 000146
    000260  0a   000044 400000
    000261  55   000160 000003
    000262  aa  016 147 145 164         get_population
    000263  aa  137 160 157 160
    000264  aa  165 154 141 164
    000265  aa  151 157 156 000
    000266  55   000174 000155
    000267  0a   000042 400000
    000270  55   000167 000003
    000271  aa  022 147 145 164         get_open_relations
    000272  aa  137 157 160 145
    000273  aa  156 137 162 145
    000274  aa  154 141 164 151
    000275  aa  157 156 163 000
    000276  55   000205 000164
    000277  0a   000040 400000
    000300  55   000177 000003
    000301  aa  025 147 145 164         get_max_and_min_attrs
    000302  aa  137 155 141 170
    000303  aa  137 141 156 144
    000304  aa  137 155 151 156
    000305  aa  137 141 164 164
    000306  aa  162 163 000 000
    000307  55   000216 000174
    000310  0a   000036 400000
    000311  55   000210 000003
    000312  aa  027 147 145 164         get_duplicate_key_count
    000313  aa  137 144 165 160
    000314  aa  154 151 143 141
    000315  aa  164 145 137 153
    000316  aa  145 171 137 143
    000317  aa  157 165 156 164
    000320  55   000225 000205
    000321  0a   000034 400000
    000322  55   000221 000003
    000323  aa  017 147 145 164         get_description
    000324  aa  137 144 145 163
    000325  aa  143 162 151 160
    000326  aa  164 151 157 156
    000327  55   000233 000216
    000330  0a   000032 400000
    000331  55   000230 000003
    000332  aa  011 147 145 164         get_count
    000333  aa  137 143 157 165
    000334  aa  156 164 000 000
    000335  55   000245 000225
    000336  0a   000030 400000
    000337  55   000236 000003
    000340  aa  030 144 145 163         destroy_relation_by_path
    000341  aa  164 162 157 171
    000342  aa  137 162 145 154
    000343  aa  141 164 151 157
    000344  aa  156 137 142 171
    000345  aa  137 160 141 164
    000346  aa  150 000 000 000
    000347  55   000257 000233
    000350  0a   000026 400000
    000351  55   000250 000003
    000352  aa  033 144 145 163         destroy_relation_by_opening
    000353  aa  164 162 157 171
    000354  aa  137 162 145 154
    000355  aa  141 164 151 157
    000356  aa  156 137 142 171
    000357  aa  137 157 160 145
    000360  aa  156 151 156 147
    000361  55   000266 000245
    000362  0a   000024 400000
    000363  55   000262 000003
    000364  aa  015 144 145 163         destroy_index
    000365  aa  164 162 157 171
    000366  aa  137 151 156 144
    000367  aa  145 170 000 000
    000370  55   000275 000257
    000371  0a   000022 400000
    000372  55   000271 000003
    000373  aa  016 144 145 163         destroy_cursor
    000374  aa  164 162 157 171
    000375  aa  137 143 165 162
    000376  aa  163 157 162 000
    000377  55   000306 000266
    000400  0a   000020 400000
    000401  55   000300 000003
    000402  aa  025 144 145 154         delete_tuples_by_spec
    000403  aa  145 164 145 137
    000404  aa  164 165 160 154
    000405  aa  145 163 137 142
    000406  aa  171 137 163 160
    000407  aa  145 143 000 000
    000410  55   000316 000275
    000411  0a   000016 400000
    000412  55   000311 000003
    000413  aa  023 144 145 154         delete_tuples_by_id
    000414  aa  145 164 145 137
    000415  aa  164 165 160 154
    000416  aa  145 163 137 142
    000417  aa  171 137 151 144
    000420  55   000326 000306
    000421  0a   000014 400000
    000422  55   000321 000003
    000423  aa  022 144 145 154         delete_tuple_by_id
    000424  aa  145 164 145 137
    000425  aa  164 165 160 154
    000426  aa  145 137 142 171
    000427  aa  137 151 144 000
    000430  55   000336 000316
    000431  0a   000012 400000
    000432  55   000331 000003
    000433  aa  023 143 162 145         create_subset_index
    000434  aa  141 164 145 137
    000435  aa  163 165 142 163
    000436  aa  145 164 137 151
    000437  aa  156 144 145 170
    000440  55   000345 000326
    000441  0a   000010 400000
    000442  55   000341 000003
    000443  aa  017 143 162 145         create_relation
    000444  aa  141 164 145 137
    000445  aa  162 145 154 141
    000446  aa  164 151 157 156
    000447  55   000356 000336
    000450  0a   000006 400000
    000451  55   000350 000003
    000452  aa  024 143 162 145         create_MRDS_relation
    000453  aa  141 164 145 137
    000454  aa  115 122 104 123
    000455  aa  137 162 145 154
    000456  aa  141 164 151 157
    000457  aa  156 000 000 000
    000460  55   000365 000345
    000461  0a   000004 400000
    000462  55   000361 000003
    000463  aa  014 143 162 145         create_index
    000464  aa  141 164 145 137
    000465  aa  151 156 144 145
    000466  aa  170 000 000 000
    000467  55   000374 000356
    000470  0a   000002 400000
    000471  55   000370 000003
    000472  aa  015 143 162 145         create_cursor
    000473  aa  141 164 145 137
    000474  aa  143 165 162 163
    000475  aa  157 162 000 000
    000476  55   000401 000365
    000477  0a   000000 400000
    000500  55   000377 000003
    000501  aa  005 143 154 157         close
    000502  aa  163 145 000 000
    000503  55   000002 000374
    000504  6a   000000 400002
    000505  55   000404 000003
    000506  aa  014 163 171 155         symbol_table
    000507  aa  142 157 154 137
    000510  aa  164 141 142 154
    000511  aa  145 000 000 000

DEFINITIONS HASH TABLE

    000512  aa   000000 000065
    000513  5a   000216 000000
    000514  5a   000155 000000
    000515  5a   000356 000000
    000516  5a   000365 000000
    000517  aa   000000 000000
    000520  5a   000137 000000
    000521  aa   000000 000000
    000522  aa   000000 000000
    000523  aa   000000 000000
    000524  5a   000245 000000
    000525  aa   000000 000000
    000526  5a   000225 000000
    000527  aa   000000 000000
    000530  aa   000000 000000
    000531  5a   000275 000000
    000532  5a   000034 000000
    000533  5a   000233 000000
    000534  aa   000000 000000
    000535  5a   000306 000000
    000536  aa   000000 000000
    000537  5a   000316 000000
    000540  aa   000000 000000
    000541  aa   000000 000000
    000542  5a   000374 000000
    000543  aa   000000 000000
    000544  aa   000000 000000
    000545  aa   000000 000000
    000546  aa   000000 000000
    000547  5a   000401 000000
    000550  aa   000000 000000
    000551  5a   000012 000000
    000552  aa   000000 000000
    000553  aa   000000 000000
    000554  aa   000000 000000
    000555  5a   000345 000000
    000556  5a   000266 000000
    000557  5a   000205 000000
    000560  5a   000257 000000
    000561  5a   000326 000000
    000562  5a   000041 000000
    000563  5a   000020 000000
    000564  5a   000072 000000
    000565  5a   000026 000000
    000566  5a   000052 000000
    000567  5a   000101 000000
    000570  5a   000062 000000
    000571  5a   000107 000000
    000572  5a   000117 000000
    000573  5a   000164 000000
    000574  5a   000174 000000
    000575  5a   000127 000000
    000576  5a   000336 000000
    000577  5a   000146 000000

EXTERNAL NAMES

    000600  aa  015 166 162 155         vrm_set_scope
    000601  aa  137 163 145 164
    000602  aa  137 163 143 157
    000603  aa  160 145 000 000
    000604  aa  007 166 162 155         vrm_put
    000605  aa  137 160 165 164
    000606  aa  010 166 162 155         vrm_open
    000607  aa  137 157 160 145
    000610  aa  156 000 000 000
    000611  aa  020 166 162 155         vrm_modify_by_id
    000612  aa  137 155 157 144
    000613  aa  151 146 171 137
    000614  aa  142 171 137 151
    000615  aa  144 000 000 000
    000616  aa  015 166 162 155         vrm_get_by_id
    000617  aa  137 147 145 164
    000620  aa  137 142 171 137
    000621  aa  151 144 000 000
    000622  aa  022 166 162 155         vrm_get_population
    000623  aa  137 147 145 164
    000624  aa  137 160 157 160
    000625  aa  165 154 141 164
    000626  aa  151 157 156 000
    000627  aa  014 166 162 155         vrm_open_man
    000630  aa  137 157 160 145
    000631  aa  156 137 155 141
    000632  aa  156 000 000 000
    000633  aa  033 166 162 155         vrm_get_duplicate_key_count
    000634  aa  137 147 145 164
    000635  aa  137 144 165 160
    000636  aa  154 151 143 141
    000637  aa  164 145 137 153
    000640  aa  145 171 137 143
    000641  aa  157 165 156 164
    000642  aa  023 166 162 155         vrm_get_description
    000643  aa  137 147 145 164
    000644  aa  137 144 145 163
    000645  aa  143 162 151 160
    000646  aa  164 151 157 156
    000647  aa  017 166 162 155         vrm_get_by_spec
    000650  aa  137 147 145 164
    000651  aa  137 142 171 137
    000652  aa  163 160 145 143
    000653  aa  024 166 162 155         vrm_destroy_relation
    000654  aa  137 144 145 163
    000655  aa  164 162 157 171
    000656  aa  137 162 145 154
    000657  aa  141 164 151 157
    000660  aa  156 000 000 000
    000661  aa  022 166 162 155         vrm_destroy_cursor
    000662  aa  137 144 145 163
    000663  aa  164 162 157 171
    000664  aa  137 143 165 162
    000665  aa  163 157 162 000
    000666  aa  020 166 162 155         vrm_delete_by_id
    000667  aa  137 144 145 154
    000670  aa  145 164 145 137
    000671  aa  142 171 137 151
    000672  aa  144 000 000 000
    000673  aa  021 162 145 164         return_error_code
    000674  aa  165 162 156 137
    000675  aa  145 162 162 157
    000676  aa  162 137 143 157
    000677  aa  144 145 000 000
    000700  aa  032 166 162 155         vrm_unimplemented_function
    000701  aa  137 165 156 151
    000702  aa  155 160 154 145
    000703  aa  155 145 156 164
    000704  aa  145 144 137 146
    000705  aa  165 156 143 164
    000706  aa  151 157 156 000
    000707  aa  023 166 162 155         vrm_create_relation
    000710  aa  137 143 162 145
    000711  aa  141 164 145 137
    000712  aa  162 145 154 141
    000713  aa  164 151 157 156
    000714  aa  011 166 162 155         vrm_index
    000715  aa  137 151 156 144
    000716  aa  145 170 000 000
    000717  aa  021 166 162 155         vrm_create_cursor
    000720  aa  137 143 162 145
    000721  aa  141 164 145 137
    000722  aa  143 165 162 163
    000723  aa  157 162 000 000
    000724  aa  011 166 162 155         vrm_close
    000725  aa  137 143 154 157
    000726  aa  163 145 000 000

NO TRAP POINTER WORDS

TYPE PAIR BLOCKS

    000727  aa   000004 000000
    000730  55   000476 000015
    000731  aa   000004 000000
    000732  55   000502 000023
    000733  aa   000004 000000
    000734  55   000502 000031
    000735  aa   000004 000000
    000736  55   000504 000037
    000737  aa   000004 000000
    000740  55   000507 000055
    000741  aa   000004 000000
    000742  55   000615 000075
    000743  aa   000004 000000
    000744  55   000615 000104
    000745  aa   000004 000000
    000746  55   000545 000112
    000747  aa   000004 000000
    000750  55   000545 000122
    000751  aa   000004 000000
    000752  55   000514 000132
    000753  aa   000004 000000
    000754  55   000545 000142
    000755  aa   000004 000000
    000756  55   000514 000151
    000757  aa   000004 000000
    000760  55   000520 000160
    000761  aa   000004 000000
    000762  55   000525 000167
    000763  aa   000004 000000
    000764  55   000531 000210
    000765  aa   000004 000000
    000766  55   000540 000221
    000767  aa   000004 000000
    000770  55   000545 000230
    000771  aa   000004 000000
    000772  55   000551 000236
    000773  aa   000004 000000
    000774  55   000551 000250
    000775  aa   000004 000000
    000776  55   000612 000262
    000777  aa   000004 000000
    001000  55   000557 000271
    001001  aa   000004 000000
    001002  55   000564 000311
    001003  aa   000004 000000
    001004  55   000576 000571
    001005  aa   000004 000000
    001006  55   000605 000341
    001007  aa   000004 000000
    001010  55   000605 000350
    001011  aa   000004 000000
    001012  55   000612 000361
    001013  aa   000004 000000
    001014  55   000615 000370
    001015  aa   000004 000000
    001016  55   000622 000377
    001017  aa   000001 000000
    001020  aa   000000 000000

INTERNAL EXPRESSION WORDS

    001021  5a   000625 000000
    001022  5a   000627 000000
    001023  5a   000631 000000
    001024  5a   000633 000000
    001025  5a   000635 000000
    001026  5a   000637 000000
    001027  5a   000641 000000
    001030  5a   000643 000000
    001031  5a   000645 000000
    001032  5a   000647 000000
    001033  5a   000651 000000
    001034  5a   000653 000000
    001035  5a   000655 000000
    001036  5a   000657 000000
    001037  5a   000661 000000
    001040  5a   000663 000000
    001041  5a   000665 000000
    001042  5a   000667 000000
    001043  5a   000671 000000
    001044  5a   000673 000000
    001045  5a   000675 000000
    001046  5a   000677 000000
    001047  5a   000701 000000
    001050  5a   000703 000000
    001051  5a   000705 000000
    001052  5a   000707 000000
    001053  5a   000711 000000
    001054  5a   000713 000000
    001055  aa   000000 000000
LINKAGE INFORMATION

    000000  aa   000000 000000
    000001  0a   000102 000000
    000002  aa   000000 000000
    000003  aa   000000 000000
    000004  aa   000000 000000
    000005  aa   000000 000000
    000006  22   000010 000100
    000007  a2   000000 000000
    000010  9a   777770 0000 46         vrm_close|close
    000011  5a   000752 0000 00
    000012  9a   777766 0000 46         vrm_create_cursor|create_cursor
    000013  5a   000751 0000 00
    000014  9a   777764 0000 46         vrm_index|create_index
    000015  5a   000750 0000 00
    000016  9a   777762 0000 46         vrm_create_relation|create_MRDS_relation
    000017  5a   000747 0000 00
    000020  9a   777760 0000 46         vrm_create_relation|create_relation
    000021  5a   000746 0000 00
    000022  9a   777756 0000 46         vrm_unimplemented_function|return_error_code
    000023  5a   000745 0000 00
    000024  9a   777754 0000 46         vrm_delete_by_id|delete_tuples_by_id
    000025  5a   000744 0000 00
    000026  9a   777752 0000 46         vrm_destroy_cursor|destroy_cursor
    000027  5a   000743 0000 00
    000030  9a   777750 0000 46         vrm_index|destroy_index
    000031  5a   000742 0000 00
    000032  9a   777746 0000 46         vrm_destroy_relation|destroy_relation_by_opening
    000033  5a   000741 0000 00
    000034  9a   777744 0000 46         vrm_destroy_relation|destroy_relation_by_path
    000035  5a   000740 0000 00
    000036  9a   777742 0000 46         vrm_get_by_spec|get_count
    000037  5a   000737 0000 00
    000040  9a   777740 0000 46         vrm_get_description|get_description
    000041  5a   000736 0000 00
    000042  9a   777736 0000 46         vrm_get_duplicate_key_count|get_duplicate_key_count
    000043  5a   000735 0000 00
    000044  9a   777734 0000 46         vrm_open_man|get_open_relations
    000045  5a   000734 0000 00
    000046  9a   777732 0000 46         vrm_get_population|get_population
    000047  5a   000733 0000 00
    000050  9a   777730 0000 46         vrm_get_by_id|get_tuple_by_id
    000051  5a   000732 0000 00
    000052  9a   777726 0000 46         vrm_get_by_spec|get_tuple_id
    000053  5a   000731 0000 00
    000054  9a   777724 0000 46         vrm_get_by_id|get_tuples_by_id
    000055  5a   000730 0000 00
    000056  9a   777722 0000 46         vrm_get_by_spec|get_tuples_by_spec
    000057  5a   000727 0000 00
    000060  9a   777720 0000 46         vrm_get_by_spec|get_tuples_and_ids
    000061  5a   000726 0000 00
    000062  9a   777716 0000 46         vrm_create_cursor|metering_on
    000063  5a   000725 0000 00
    000064  9a   777714 0000 46         vrm_create_cursor|metering_off
    000065  5a   000724 0000 00
    000066  9a   777712 0000 46         vrm_modify_by_id|modify_tuples_by_id
    000067  5a   000723 0000 00
    000070  9a   777710 0000 46         vrm_open|open
    000071  5a   000722 0000 00
    000072  9a   777706 0000 46         vrm_put|put_tuple
    000073  5a   000721 0000 00
    000074  9a   777704 0000 46         vrm_put|put_tuples
    000075  5a   000720 0000 00
    000076  9a   777702 0000 46         vrm_set_scope|set_scope
    000077  5a   000717 0000 00
SYMBOL INFORMATION

SYMBOL TABLE HEADER

    000000  aa   000000 000001
    000001  aa   163171 155142
    000002  aa   164162 145145
    000003  aa   000000 000004
    000004  aa   000000 112143
    000005  aa   305203 523135
    000006  aa   000000 114626
    000007  aa   762216 701701
    000010  aa   141154 155040
    000011  aa   040040 040040
    000012  aa   000024 000040
    000013  aa   000034 000040
    000014  aa   000044 000100
    000015  aa   000002 000002
    000016  aa   000064 000000
    000017  aa   000000 000144
    000020  aa   000000 000107
    000021  aa   000000 000121
    000022  aa   000136 000107
    000023  aa   000064 000000
    000024  aa   101114 115040
    000025  aa   126145 162163
    000026  aa   151157 156040
    000027  aa   040066 056066
    000030  aa   040040 116157
    000031  aa   166145 155142
    000032  aa   145162 040061
    000033  aa   071070 062040
    000034  aa   120145 162145
    000035  aa   172056 123171
    000036  aa   163115 141151
    000037  aa   156164 056141
    000040  aa   040040 040040
    000041  aa   040040 040040
    000042  aa   040040 040040
    000043  aa   040040 040040
    000044  aa   055164 141162
    000045  aa   147145 164040
    000046  aa   114145 166145
    000047  aa   154066 070040
    000050  aa   154151 163164
    000051  aa   040040 040040
    000052  aa   040040 040040
    000053  aa   040040 040040
    000054  aa   040040 040040
    000055  aa   040040 040040
    000056  aa   040040 040040
    000057  aa   040040 040040
    000060  aa   040040 040040
    000061  aa   040040 040040
    000062  aa   040040 040040
    000063  aa   040040 040040
    000064  aa   000000 000001
    000065  aa   000000 000001
    000066  aa   000072 000062
    000067  aa   146264 061563
    000070  aa   000000 114626
    000071  aa   755252 400000
    000072  aa   076163 160145          >special_ldd>install>MR12.0-1127>vfile_relmgr_.alm
    000073  aa   143151 141154
    000074  aa   137154 144144
    000075  aa   076151 156163
    000076  aa   164141 154154
    000077  aa   076115 122061
    000100  aa   062056 060055
    000101  aa   061061 062067
    000102  aa   076166 146151
    000103  aa   154145 137162
    000104  aa   145154 155147
    000105  aa   162137 056141
    000106  aa   154155 040040
               MULTICS ASSEMBLY CROSS REFERENCE LISTING

   Value        Symbol                   Source file   Line number

           0    close                    vfile_relmgr_:       31.
           2    create_cursor            vfile_relmgr_:       32.
           4    create_index             vfile_relmgr_:       33.
           6    create_MRDS_relation     vfile_relmgr_:       34.
          10    create_relation          vfile_relmgr_:       35.
          12    create_subset_index      vfile_relmgr_:       36.
          16    delete_tuples_by_id      vfile_relmgr_:       38.
          20    delete_tuples_by_spec    vfile_relmgr_:       39.
          14    delete_tuple_by_id       vfile_relmgr_:       37.
          22    destroy_cursor           vfile_relmgr_:       40.
          24    destroy_index            vfile_relmgr_:       41.
          26    destroy_relation_by_opening    vfile_relmgr_:       42.
          30    destroy_relation_by_path       vfile_relmgr_:       43.
          32    get_count                vfile_relmgr_:       44.
          34    get_description          vfile_relmgr_:       45.
          36    get_duplicate_key_count  vfile_relmgr_:       46.
          40    get_max_and_min_attrs    vfile_relmgr_:       47.
          42    get_open_relations       vfile_relmgr_:       48.
          44    get_population           vfile_relmgr_:       49.
          56    get_tuples_and_ids       vfile_relmgr_:       54.
          52    get_tuples_by_id         vfile_relmgr_:       52.
          54    get_tuples_by_spec       vfile_relmgr_:       53.
          46    get_tuple_by_id          vfile_relmgr_:       50.
          50    get_tuple_id             vfile_relmgr_:       51.
          62    metering_off             vfile_relmgr_:       56.
          60    metering_on              vfile_relmgr_:       55.
          66    modify_tuples_by_id      vfile_relmgr_:       58.
          70    modify_tuples_by_spec    vfile_relmgr_:       59.
          64    modify_tuple_by_id       vfile_relmgr_:       57.
          72    open                     vfile_relmgr_:       60.
          74    put_tuple                vfile_relmgr_:       61.
          76    put_tuples               vfile_relmgr_:       62.
                return_error_code        vfile_relmgr_:       36,   37,   39,   47,   57,   59.
         100    set_scope                vfile_relmgr_:       63.
                vrm_close                vfile_relmgr_:       31.
                vrm_create_cursor        vfile_relmgr_:       32,   55,   56.
                vrm_create_relation      vfile_relmgr_:       34,   35.
                vrm_delete_by_id         vfile_relmgr_:       38.
                vrm_destroy_cursor       vfile_relmgr_:       40.
                vrm_destroy_relation     vfile_relmgr_:       42,   43.
                vrm_get_by_id            vfile_relmgr_:       50,   52.
                vrm_get_by_spec          vfile_relmgr_:       44,   51,   53,   54.
                vrm_get_description      vfile_relmgr_:       45.
                vrm_get_duplicate_key_count    vfile_relmgr_:       46.
                vrm_get_population       vfile_relmgr_:       49.
                vrm_index                vfile_relmgr_:       33,   41.
                vrm_modify_by_id         vfile_relmgr_:       58.
                vrm_open                 vfile_relmgr_:       60.
                vrm_open_man             vfile_relmgr_:       48.
                vrm_put                  vfile_relmgr_:       61,   62.
                vrm_set_scope            vfile_relmgr_:       63.
                vrm_unimplemented_function     vfile_relmgr_:       36,   37,   39,   47,   57,   59.


NO FATAL ERRORS


                                          -----------------------------------------------------------


Historical Background

This edition of the Multics software materials and documentation is provided and donated
to Massachusetts Institute of Technology by Group BULL including BULL HN Information Systems Inc.
as a contribution to computer science knowledge.
This donation is made also to give evidence of the common contributions of Massachusetts Institute of Technology,
Bell Laboratories, General Electric, Honeywell Information Systems Inc., Honeywell BULL Inc., Groupe BULL
and BULL HN Information Systems Inc. to the development of this operating system.
Multics development was initiated by Massachusetts Institute of Technology Project MAC (1963-1970),
renamed the MIT Laboratory for Computer Science and Artificial Intelligence in the mid 1970s, under the leadership
of Professor Fernando Jose Corbato. Users consider that Multics provided the best software architecture
for managing computer hardware properly and for executing programs. Many subsequent operating systems
incorporated Multics principles.
Multics was distributed in 1975 to 2000 by Group Bull in Europe , and in the U.S. by Bull HN Information Systems Inc.,
as successor in interest by change in name only to Honeywell Bull Inc. and Honeywell Information Systems Inc. .

                                          -----------------------------------------------------------

Permission to use, copy, modify, and distribute these programs and their documentation for any purpose and without
fee is hereby granted,provided that the below copyright notice and historical background appear in all copies
and that both the copyright notice and historical background and this permission notice appear in supporting
documentation, and that the names of MIT, HIS, BULL or BULL HN not be used in advertising or publicity pertaining
to distribution of the programs without specific prior written permission.
    Copyright 1972 by Massachusetts Institute of Technology and Honeywell Information Systems Inc.
    Copyright 2006 by BULL HN Information Systems Inc.
    Copyright 2006 by Bull SAS
    All Rights Reserved
