ASSEMBLY LISTING OF SEGMENT >special_ldd>install>MR12.1-1086>video_alm_util_.alm
ASSEMBLED ON:	08/13/87  1324.6 mst Thu
OPTIONS USED:	-target l68                              list symbols
ASSEMBLED BY:	ALM Version 7.3 November 1986
ASSEMBLER CREATED:	11/26/86  1244.2 mst Wed

                                     1  " ***********************************************************
                                     2  " *                                                         *
                                     3  " * Copyright, (C) Honeywell Bull Inc., 1987                *
                                     4  " *                                                         *
                                     5  " * Copyright, (C) Honeywell Information Systems Inc., 1982 *
                                     6  " *                                                         *
                                     7  " * Copyright (c) 1972 by Massachusetts Institute of        *
                                     8  " * Technology and Honeywell Information Systems, Inc.      *
                                     9  " *                                                         *
                                    10  " ***********************************************************
    000000                          11  	name  video_alm_util_
                                    12
                                    13  	" alm utilites for the cases when the compiler
                                    14  	" cant generate reasonable code
                                    15
                                    16  	" Benson I. Margulies, September 1981
                                    17
                                    18  	" Title of contents
                                    19
                        000000      20  	entry	XOR_chars
                                    21
                                    22  	" declare video_alm_util_$XOR_chars entry (fixed bin (21), pointer, pointer, pointer)
                                    23  	" call video_alm_util_$XOR_chars (n_chars, in_1, in_2, out)
                                    24
                                    25  	" Offsets off of the arg list
                                    26
                        000002      27  	equ	n_chars,2
                        000004      28  	equ	in_1,4
                        000006      29  	equ	in_2,6
                        000010      30  	equ	out,8
                                    31
    000000                          32  XOR_chars:
                                    33
    000000  aa  0 00002 2361 20     34  	ldq	pr0|n_chars,*	" how many chars
                                    35
    000001  aa  0 00004 3521 20     36  	epp2	pr0|in_1,*	" ptr to ptr to string
    000002  aa  2 00000 3521 20     37  	epp2	pr2|0,*		" ptr to string
    000003  aa  0 00006 3535 20     38  	epp3	pr0|in_2,*	" ptr to ptr to string
    000004  aa  3 00000 3535 20     39  	epp3	pr3|0,*		" ptr to string
    000005  aa  0 00010 3715 20     40  	epp5	pr0|out,*		" ptr to ptr to string
    000006  aa  5 00000 3715 20     41  	epp5	pr5|0,*		" ptr to string
                                    42
                                    43  	" move one string into the output slot
                                    44
    000007  aa  0 00140 1005 40     45  	mlr	(pr,rl),(pr,rl),fill(000)
    000010  aa   200000 000006      46  	desc9a	pr2|0,ql
    000011  aa   500000 000006      47  	desc9a	pr5|0,ql
                                    48
    000012  aa   000011 4020 07     49  	mpy	9,dl	" now length is bits
                                    50
    000013  aa  0 06140 0605 40     51  	csl	(pr,rl),(pr,rl),fill(0),bool(06) " XOR
    000014  aa   300000 000006      52  	descb	pr3|0,ql
    000015  aa   500000 000006      53  	descb	pr5|0,ql
                                    54
    000016  aa  7 00044 7101 20     55  	short_return
                                    56  	end
ENTRY SEQUENCES

    000017  5a   000012 0000 00
    000020  aa  7 00046 2721 20
    000021  0a   000000 7100 00

NO LITERALS

NAME DEFINITIONS FOR ENTRY POINTS AND SEGDEFS

    000022  5a   000003 000000
    000023  5a   000027 600000
    000024  aa   000000 000000
    000025  55   000012 000002
    000026  5a   000002 400003
    000027  55   000006 000012
    000030  aa  017 166 151 144
    000031  aa  145 157 137 141
    000032  aa  154 155 137 165
    000033  aa  164 151 154 137
    000034  55   000020 000003
    000035  0a   000020 500000
    000036  55   000015 000003
    000037  aa  011 130 117 122         XOR_chars
    000040  aa  137 143 150 141
    000041  aa  162 163 000 000
    000042  55   000002 000012
    000043  6a   000000 400002
    000044  55   000023 000003
    000045  aa  014 163 171 155         symbol_table
    000046  aa  142 157 154 137
    000047  aa  164 141 142 154
    000050  aa  145 000 000 000

DEFINITIONS HASH TABLE

    000051  aa   000000 000015
    000052  aa   000000 000000
    000053  aa   000000 000000
    000054  aa   000000 000000
    000055  aa   000000 000000
    000056  aa   000000 000000
    000057  aa   000000 000000
    000060  5a   000012 000000
    000061  5a   000020 000000
    000062  aa   000000 000000
    000063  aa   000000 000000
    000064  aa   000000 000000
    000065  aa   000000 000000
    000066  aa   000000 000000

NO EXTERNAL NAMES

NO TRAP POINTER WORDS

TYPE PAIR BLOCKS

    000067  aa   000001 000000
    000070  aa   000000 000000

INTERNAL EXPRESSION WORDS

    000071  aa   000000 000000
LINKAGE INFORMATION

    000000  aa   000000 000000
    000001  0a   000022 000000
    000002  aa   000000 000000
    000003  aa   000000 000000
    000004  aa   000000 000000
    000005  aa   000000 000000
    000006  22   000010 000010
    000007  a2   000000 000000
SYMBOL INFORMATION

SYMBOL TABLE HEADER

    000000  aa   000000 000001
    000001  aa   163171 155142
    000002  aa   164162 145145
    000003  aa   000000 000007
    000004  aa   000000 115030
    000005  aa   273207 326355
    000006  aa   000000 115537
    000007  aa   227124 614736
    000010  aa   141154 155040
    000011  aa   040040 040040
    000012  aa   000024 000040
    000013  aa   000034 000040
    000014  aa   000044 000100
    000015  aa   000002 000002
    000016  aa   000064 000000
    000017  aa   000000 000133
    000020  aa   000000 000107
    000021  aa   000116 000113
    000022  aa   000125 000107
    000023  aa   000064 000000
    000024  aa   101114 115040
    000025  aa   126145 162163
    000026  aa   151157 156040
    000027  aa   067056 063040
    000030  aa   116157 166145
    000031  aa   155142 145162
    000032  aa   040061 071070
    000033  aa   066040 040040
    000034  aa   107112 157150
    000035  aa   156163 157156
    000036  aa   056123 171163
    000037  aa   115141 151156
    000040  aa   164056 141040
    000041  aa   040040 040040
    000042  aa   040040 040040
    000043  aa   040040 040040
    000044  aa   055164 141162
    000045  aa   147145 164040
    000046  aa   154066 070040
    000047  aa   040040 040040
    000050  aa   040040 040040
    000051  aa   040040 040040
    000052  aa   040040 040040
    000053  aa   040040 040040
    000054  aa   040040 040040
    000055  aa   040040 040040
    000056  aa   040154 151163
    000057  aa   164040 163171
    000060  aa   155142 157154
    000061  aa   163040 040040
    000062  aa   040040 040040
    000063  aa   040040 040040
    000064  aa   000000 000001
    000065  aa   000000 000001
    000066  aa   000072 000064
    000067  aa   155352 157175
    000070  aa   000000 115537
    000071  aa   226752 600000
    000072  aa   076163 160145          >special_ldd>install>MR12.1-1086>video_alm_util_.alm
    000073  aa   143151 141154
    000074  aa   137154 144144
    000075  aa   076151 156163
    000076  aa   164141 154154
    000077  aa   076115 122061
    000100  aa   062056 061055
    000101  aa   061060 070066
    000102  aa   076166 151144
    000103  aa   145157 137141
    000104  aa   154155 137165
    000105  aa   164151 154137
    000106  aa   056141 154155
               MULTICS ASSEMBLY CROSS REFERENCE LISTING

   Value        Symbol                   Source file   Line number

           4    in_1                     video_alm_util_:     28,   36.
           6    in_2                     video_alm_util_:     29,   38.
           2    n_chars                  video_alm_util_:     27,   34.
          10    out                      video_alm_util_:     30,   40.
           0    XOR_chars                video_alm_util_:     20,   32.


NO FATAL ERRORS


                                          -----------------------------------------------------------


Historical Background

This edition of the Multics software materials and documentation is provided and donated
to Massachusetts Institute of Technology by Group BULL including BULL HN Information Systems Inc.
as a contribution to computer science knowledge.
This donation is made also to give evidence of the common contributions of Massachusetts Institute of Technology,
Bell Laboratories, General Electric, Honeywell Information Systems Inc., Honeywell BULL Inc., Groupe BULL
and BULL HN Information Systems Inc. to the development of this operating system.
Multics development was initiated by Massachusetts Institute of Technology Project MAC (1963-1970),
renamed the MIT Laboratory for Computer Science and Artificial Intelligence in the mid 1970s, under the leadership
of Professor Fernando Jose Corbato. Users consider that Multics provided the best software architecture
for managing computer hardware properly and for executing programs. Many subsequent operating systems
incorporated Multics principles.
Multics was distributed in 1975 to 2000 by Group Bull in Europe , and in the U.S. by Bull HN Information Systems Inc.,
as successor in interest by change in name only to Honeywell Bull Inc. and Honeywell Information Systems Inc. .

                                          -----------------------------------------------------------

Permission to use, copy, modify, and distribute these programs and their documentation for any purpose and without
fee is hereby granted,provided that the below copyright notice and historical background appear in all copies
and that both the copyright notice and historical background and this permission notice appear in supporting
documentation, and that the names of MIT, HIS, BULL or BULL HN not be used in advertising or publicity pertaining
to distribution of the programs without specific prior written permission.
    Copyright 1972 by Massachusetts Institute of Technology and Honeywell Information Systems Inc.
    Copyright 2006 by BULL HN Information Systems Inc.
    Copyright 2006 by Bull SAS
    All Rights Reserved
