	NAMES DECLARED IN THIS COMPILATION.

IDENTIFIER	     OFFSET    LOC STORAGE CLASS   DATA TYPE		ATTRIBUTES AND REFERENCES
								(* indicates a set context)

NAMES DECLARED BY DECLARE STATEMENT.
ASSIGN                          016770 automatic       bit(1)                   dcl 10801 set ref 10883* 11326 11327* 11370 11459
Asterisk                               constant        fixed bin(17,0)          initial dcl 6233 ref 6308 6372
BEGIN_DO_LOOP                   003300 constant        fixed bin(18,0)          initial dcl 476 set ref 3527* 7285
BOE                                    constant        fixed bin(18,0)          initial dcl 10043 ref 10089 10468
COLON_BEFORE_ASSIGN             000130 automatic       bit(1)                   dcl 475 set ref 2782 10882* 11328 11459*
CURRENT_VALUE                          constant        fixed bin(18,0)          initial dcl 477 ref 7295 7807 7807
DECLARED                        003262 constant        bit(5)                   initial dcl 478 set ref 1766* 2031* 2273* 2312*
                                                                                  2320* 2370* 2402* 2483* 2570* 2706* 2745* 2782*
                                                                                  2820* 2830* 6547 7085* 7406* 7420 7429 7436 7441
                                                                                  7443 9401 9417 9474*
DIGIT                           003022 constant        char(10)                 initial dcl 479 ref 12062 12350 13139
END_DO_LOOP                     003240 constant        fixed bin(18,0)          initial dcl 480 set ref 3779* 7799
END_DO_LOOP_SIZE                       constant        fixed bin(18,0)          initial dcl 481 ref 7815
END_DO_RANGE                    000131 automatic       bit(1)                   dcl 482 set ref 1360* 1398* 1403 1404* 1406 1416
                                                                                  1509 3017 3091 3170 3215 3821 4091 4726
EOS                             016771 automatic       bit(1)                   dcl 10802 set ref 10891* 10929 11076* 11078 11081
                                                                                  11089* 11091 11131 11145 11177 11232 11256 11380
                                                                                  11417 11430 11452* 11553* 11568 11765* 11990*
                                                                                  12006* 12007* 12029* 12030* 12043* 12100* 12105*
                                                                                  12137* 12358 12397 12404 12447 12465 12487 12571
                                                                                  12595
EOS_token                              constant        bit(9)                   initial dcl 4-156 ref 1667 3030 3834 8453 8463 10983
ERROR                                  constant        bit(1)                   initial dcl 11711 set ref 12010* 12033* 12276
E_finish                        001175 automatic       fixed bin(17,0)          dcl 600 set ref 2156* 2159 2161 2177* 2179 2181
E_start                         001174 automatic       fixed bin(17,0)          dcl 600 set ref 2141* 2144 2146 2148 2159 2173* 2174
E_token                         001176 automatic       fixed bin(17,0)          dcl 601 set ref 2110* 2146 2161 2181
FALSE                                  constant        bit(1)                   initial dcl 483 set ref 1110 1123 1253 1254 1275
                                                                                  1278 1304 1360 1435 1685 1746 1772 1894 1901 1931
                                                                                  1998 2002 2066 2069 2072 2126* 2126* 2200 2211
                                                                                  2279 2344 2439 2442 2549 2565 2582* 2590 2679 2710
                                                                                  2755 2849 3033 3062 3259* 3272 3350 3423* 3622
                                                                                  3668 3770 3785 3798 3907* 3907* 3917* 3917* 3978
                                                                                  4024* 4067 4169* 4169* 4205 4225 4244 4394* 4449*
                                                                                  4529* 4547* 4637* 4686* 4899 5262 5493 5520 5830
                                                                                  5971 6177 6330 6338 6542 6627 6632 6886 7064 7104
                                                                                  7319 7327 7343 7393 7415 7465 7833 8252 8259 8312
                                                                                  8440 8486 8514* 8538* 8624* 8754* 9104 9125 9146
                                                                                  9187 9304 9322 9330 9414 9469 9482 9511 9535 9559
                                                                                  9737 9934 9937 9940 9949 9960 9967 9974 10099
                                                                                  10445 10467 10468 10494 10584 10687 10693 10701
                                                                                  10703 10707 10882 10883 10884 10885 10891 10923
                                                                                  10934 10987* 11053* 11076 11089 11125 11131 11133
                                                                                  11154 11168 11448 11498 11563 12018 12117 12261
                                                                                  12351 12358 12360 12391 12397 12399 12473 12474
                                                                                  12480 12481 12505 12506 12560 12910 13028
FORTRAN_ONLY                           constant        bit(2)                   initial dcl 10803 set ref 11092* 11512* 11558* 11962
                                                                                  12153 12153
GLOBAL_OK                              constant        bit(2)                   initial dcl 10804 ref 11062 11742 11934 11943 11963
GOTO_REF                        003021 constant        bit(5)                   initial dcl 484 set ref 3026* 3026* 3226* 3226*
                                                                                  4128* 4128* 8678* 9395 13046*
GOTO_TARGET                     003020 constant        bit(5)                   initial dcl 485 set ref 6272*
ILLEGAL_EXPRESSION_FOUND               constant        fixed bin(35,0)          initial dcl 9730 ref 9758 9784 9792
INIT                                   constant        bit(5)                   initial dcl 486 ref 6650 6746 7784 7784 7846
INITIAL_EXPRESSION                     constant        fixed bin(18,0)          initial dcl 487 ref 7294 7801
INVALID_CONSTANT                       constant        fixed bin(17,0)          initial dcl 6957 ref 6978 6989 7012
INVALID_OPERATOR                       constant        fixed bin(17,0)          initial dcl 6957 ref 6992 7014
INVALID_SYMBOL                         constant        fixed bin(17,0)          initial dcl 6957 ref 6986 7016
Invalid_operand                        constant        fixed bin(35,0)          initial dcl 9654 ref 9673
Invalid_operator                       constant        fixed bin(35,0)          initial dcl 9654 ref 9677
LA                        2(04)        based           bit(1)                   level 2 in structure "header" packed packed
                                                                                  unaligned dcl 5-436 in procedure "ext_parse" set
                                                                                  ref 5798* 5871*
LA                        4(01)        based           bit(1)                   level 3 in structure "symbol" packed packed
                                                                                  unaligned dcl 5-844 in procedure "ext_parse" set
                                                                                  ref 5778* 5801* 5851* 5877*
LA_auto                   1     000132 automatic       bit(1)                   level 2 packed packed unaligned dcl 391 set ref 5713
                                                                                  5745 5818
LA_chain                 57(18)        based           fixed bin(18,0)          level 2 packed packed unsigned unaligned dcl 5-753
                                                                                  set ref 5762 5789* 5831 5866*
LA_hdri                         013266 automatic       fixed bin(18,0)          dcl 4800 set ref 5762* 5762* 5765 5779* 5788* 5789
                                                                                  5791 5793 5802 5831* 5831* 5833 5852*
LA_hdrp                         013270 automatic       pointer                  dcl 4801 set ref 5765* 5766 5769 5772 5773 5773 5776
                                                                                  5777 5783 5784 5793* 5794 5796 5797 5798 5799 5800
                                                                                  5800 5833* 5834 5837 5841 5843 5843 5846 5847 5863
                                                                                  5864
LA_static                 1(01) 000132 automatic       bit(1)                   level 2 packed packed unaligned dcl 391 set ref 5713
                                                                                  5745 5818
LEGAL_NON_WHITE_SPACE           001053 constant        char(66)                 initial dcl 11712 ref 12143
LOWER                           001330 constant        char(26)                 initial dcl 10805 ref 11550 11625 11807 11931 11941
                                                                                  12241
NL                                     constant        char(1)                  initial dcl 10806 ref 11788
NOT_SET                                constant        bit(1)                   initial packed unaligned dcl 489 set ref 2311*
NO_NAME                         003016 constant        char(8)                  initial packed unaligned dcl 488 ref 1781 3305 3835
                                                                                  5131 5683 5687 6653 6743 6936 7135 9023 9688 9840
                                                                                  9840
NULL_STRING                     003262 constant        char                     initial packed unaligned dcl 490 set ref 1823 4105*
ONE                                    constant        fixed bin(18,0)          initial dcl 491 set ref 11114* 11142* 11205* 11221*
                                                                                  11254* 11308* 11314* 11320* 11346* 11353* 11360*
                                                                                  11373* 11379* 11385* 11400* 11416* 11422* 11428*
                                                                                  11449* 11458* 12414* 12463* 12476* 12483*
OPTIONS_OK                             constant        bit(2)                   initial dcl 10808 ref 11069 11944
OPTION_DELIMS                   001047 constant        char(4)                  initial packed unaligned dcl 12210 ref 12231
OPTION_SKIP                     001046 constant        char(3)                  initial packed unaligned dcl 12212 ref 12215
OS                                     based           bit(36)                  array dcl 492 set ref 1175 1205 1210 1384 1389 1605
                                                                                  1685 1772 1782 1784 1785 1786 1922 1998 2000 2004
                                                                                  2005 2008 2027 2035 2035 2037 2037 2039 2041 2045
                                                                                  2045 2045 2045 2111 2114 2114 2114 2146 2161 2181
                                                                                  2253 2305 2339 2340 2366 2415 2500 2523 2527 2527
                                                                                  2585 2612 2615 2679 2681 2691 2702 2741 2796 2820
                                                                                  2820 2822 2824 2834 2835 2837 2839 2842 2844 2863
                                                                                  2866 2870 2872 2872 2874 2877 2878 2882 2891 2908
                                                                                  2936 2936 2936 3327 3556 3558 3562 3619 3642 3656
                                                                                  3713 3740 4058 4058 4866 4866 4871 4871 4873 4873
                                                                                  4874 4874 4883 4892 4896 4934 4948 4948 4950 4950
                                                                                  4951 4951 4962 4967 4978 5012 5076 5111 5112 5132
                                                                                  5133 5138 5139 5140 5150 5175 5177 5190 5192 5221
                                                                                  5258 5358 5406 5425 5431 5446 5448 5449 5489 5496
                                                                                  5517 5523 5554 5569 5589 5607 5632 5638 5642 5646
                                                                                  5653 5665 5682 5689 5694 5703 5704 5741 5747 5765
                                                                                  5772 5793 5817 5833 5841 5850 5876 5908 5916 5916
                                                                                  5934 5942 5953 6021 6029 6045 6056 6056 6104 6120
                                                                                  6138 6151 6174 6175 6176 6177 6215 6299 6303 6310
                                                                                  6314 6326 6334 6540 6549 6549 6626 6639 6643 6694
                                                                                  6715 6748 6748 6765 6766 6767 6768 6772 6808 6823
                                                                                  6928 6937 6938 6976 7051 7148 7161 7181 7181 7181
                                                                                  7181 7188 7189 7311 7312 7312 7332 7332 7367 7413
                                                                                  7422 7422 7422 7438 7456 7474 7552 7553 7575 7580
                                                                                  7582 7584 7587 7592 7594 7598 7643 7648 7648 7650
                                                                                  7650 7662 7677 7757 7785 7785 7788 7788 7788 7788
                                                                                  7788 7788 7896 8051 8152 8163 8164 8165 8166 8167
                                                                                  8168 8169 8251 8258 8268 8269 8274 8280 8365 8386
                                                                                  8679 8754 8795 8833 8957 8962 8963 8968 8973 8988
                                                                                  9004 9024 9049 9582 9586 9672 9689 9696 9709 9714
                                                                                  9762 9778 9826 9830 9930 10173 10183 10258 10359
                                                                                  10388 10596 10634 10647 10647 10703 10706 10707
                                                                                  10741 11905 12737 12925 12927 12929 12930 12932
                                                                                  13002 13228 13230 13230 13230 13232 13234
PASSED                          003015 constant        bit(5)                   initial dcl 493 set ref 3305*
REF                                    constant        bit(5)                   initial dcl 494 set ref 2431* 3299* 3835* 4734* 6051
                                                                                  6056 6658 6701 7135* 7431 7438 8937 8946*
RETURN                                 constant        bit(1)                   initial dcl 11714 set ref 12127*
SECOND_EQUALS                   000132 automatic       bit(1)                   dcl 495 set ref 3060 3065 10884* 11328*
SET                             003014 constant        bit(5)                   initial dcl 496 set ref 1344* 1344* 1383* 1681*
                                                                                  1771* 1781* 5131* 5637* 5693* 6175 6650 6683 6746
                                                                                  6936* 7051* 8935 9688*
SET_ATTR                               constant        bit(1)                   initial packed unaligned dcl 497 set ref 2314* 2373*
                                                                                  10253*
SI                              000133 automatic       fixed bin(18,0)          dcl 498 set ref 1681* 1685 1918* 1922 1922* 1930*
                                                                                  1950* 1973* 1979* 2027 2027* 2031* 2035 2037 2039
                                                                                  2041 2045 2045 2050* 2054* 2060* 2064* 2106* 2110
                                                                                  2111 2111* 2114 2114 2114 2120* 2126* 2126* 2139*
                                                                                  2144* 2146* 2154* 2159* 2161* 2175* 2179* 2181*
                                                                                  2249* 2253 2253* 2261* 2266* 2273* 2273* 2301*
                                                                                  2305 2305* 2311* 2312* 2312* 2314* 2320* 2320*
                                                                                  2339 2340 2362* 2366 2366* 2370* 2370* 2373* 2373*
                                                                                  2398* 2402* 2403 2408* 2415 2418 2427* 2431* 2431*
                                                                                  2434* 2457* 2479* 2483* 2484* 2485* 2487 2493*
                                                                                  2495* 2563* 2570* 2571* 2572* 2585 2585 2666*
                                                                                  2688* 2689 2691 2702 2702* 2706* 2706* 2737* 2741
                                                                                  2741* 2745* 2745* 2748* 2752* 2778* 2782* 2796
                                                                                  2799* 2842 2867* 2877 2882 2891 2931* 2936 2936
                                                                                  2936 2938* 2939* 2941* 2944* 2946* 2949* 2952*
                                                                                  2953* 2957* 2961* 2962* 3006* 3007* 3221* 3234*
                                                                                  3236* 3244* 3245* 3267* 3268* 3270* 3295* 3299*
                                                                                  3299* 3316* 3327 3368* 3516* 3619 3626* 3630*
                                                                                  3634* 3638* 3660* 3664* 3674* 3692* 3716* 3720*
                                                                                  3744* 3748* 3762* 3832* 3840* 3890* 3932* 3990*
                                                                                  3996* 4048* 4056* 4058 4058* 4063* 4142* 4144*
                                                                                  4194* 4196* 4211* 4213* 4241* 4242* 4272* 4273*
                                                                                  4291* 4292* 4296* 4297* 4315* 4317* 4321* 4323*
                                                                                  4326* 4328* 4735* 4737* 4740* 4744* 4745* 4749*
                                                                                  4750* 4752* 4753* 4882* 4882* 4883 4885* 4888*
                                                                                  4925* 4930 4934 4948 4950 4951 4976 4978 4981
                                                                                  4993* 4997* 5012* 5023* 5073* 5122 5125* 5135 5148
                                                                                  5150 5153 5166* 6048* 8386 8731* 8737* 8753* 8754
                                                                                  8760* 8795 8797* 8799*
SKIP                                   constant        fixed bin(18,0)          initial dcl 499 ref 3757
SUBSCRIPTED_SUBSTR              076434 constant        fixed bin(18,0)          initial dcl 501 ref 3682 7322 7365 7472 7577
SUBSCRIPTED_VAR                 003177 constant        fixed bin(18,0)          initial dcl 500 set ref 3629* 3682 7322
SUBSTR                          003236 constant        fixed bin(18,0)          initial dcl 502 set ref 3625* 7322 7327 7365 7472
                                                                                  7577
SYMBOL_INDEX                           constant        fixed bin(18,0)          initial dcl 503 ref 7323
TKN                             020072 automatic       bit(9)                   dcl 13179 set ref 13187* 13191 13194 13197 13198
                                                                                  13198 13204 13204 13207
TRUE                            003251 constant        bit(1)                   initial dcl 504 set ref 1291 1303* 1328* 1813 1842
                                                                                  1915 1953 1996 2022 2090 2104 2114 2247 2298 2339
                                                                                  2340 2359 2396 2425 2459 2559 2644 2647 2657 2660
                                                                                  2664 2675 2731 2732 2735 2837 2839 2866 3266* 3503
                                                                                  3511 3635 3639 3646 3651 3661 3665 3675 3686 3693
                                                                                  3708 3717 3721 3735 3745 3749 3767 3893 3936 3952*
                                                                                  3954* 3954* 3986 3997* 4024* 4042 4140* 4185*
                                                                                  4185* 4199 4209* 4216 4236* 4239 4275 4299 4316
                                                                                  4359 4386 4394* 4449* 4495 4522 4529* 4547* 4592
                                                                                  4617 4637* 4686* 5037 5059 5180 5255 5265 5279
                                                                                  5468 5497 5524 5566 5570 5604 5608 5635 5640 5657
                                                                                  5659 5664 5668 5696 5698 5778 5796 5798 5801 5851
                                                                                  5861 5871 5877 5964 5968 6108 6195 6218 6555 6622
                                                                                  6658 6661 6727 6732 6834 7071 7095 7181 7273 7330
                                                                                  7404 7409 7428 7435 7453 7478 7484 7491 7546* 8153
                                                                                  8157 8167 8245 8315 8448 8494 8502 8514* 8521*
                                                                                  8538* 8549 8554* 8656 8665 8679 8693 8729 8782
                                                                                  8942 8962 8968 8973 8988 8992 8993 9049 9200 9236
                                                                                  9269 9307 9309 9320 9356 9359 9404 9479 9496 9523
                                                                                  9545 9554 9572 9574 9609 9613 9789 9836 9932 9947
                                                                                  9981 9987 10100 10133 10170 10173 10181 10207
                                                                                  10220 10229 10244 10255 10275 10334 10365 10378
                                                                                  10382 10402 10478 10496 10510 10558 10578 10580
                                                                                  10626 10628 10769 11122 11190 11264 11327 11328
                                                                                  11433 11452 11459 11544 11553 11765 12007 12030
                                                                                  12043 12046 12133 12137 12272 12348 12388 12562
                                                                                  12614 12928 13035
UPPER                           001321 constant        char(26)                 initial dcl 10809 ref 11550 11625 11807 11931 11941
                                                                                  12241
VLA                       4            based           bit(1)                   level 3 in structure "symbol" packed packed
                                                                                  unaligned dcl 5-844 in procedure "ext_parse" set
                                                                                  ref 5570* 5608* 5635* 5668*
VLA                       2(03)        based           bit(1)                   level 2 in structure "header" packed packed
                                                                                  unaligned dcl 5-436 in procedure "ext_parse" set
                                                                                  ref 5566* 5604* 5664*
VLA_auto                113(32)        based           bit(1)                   level 4 in structure "shared_structure" packed
                                                                                  packed unaligned dcl 398 in procedure "ext_parse"
                                                                                  set ref 429
VLA_auto                  0(32) 000132 automatic       bit(1)                   level 2 in structure "subr_options" packed packed
                                                                                  unaligned dcl 391 in procedure "ext_parse" set ref
                                                                                  5548 5585 5590 5629 5644
VLA_base_addressor        7            based           fixed bin(18,0)          level 2 in structure "header" dcl 5-436 in procedure
                                                                                  "ext_parse" set ref 5701*
VLA_base_addressor        4            based           fixed bin(18,0)          level 2 in structure "dimension" dcl 5-383
                                                                                  in procedure "ext_parse" set ref 5642* 5704*
VLA_chain                57            based           fixed bin(18,0)          level 2 packed packed unsigned unaligned dcl 5-753
                                                                                  set ref 5564 5565* 5602 5603* 5654 5655* 5681
VLA_hdri                        013272 automatic       fixed bin(18,0)          dcl 4802 set ref 5652* 5653 5655 5669 5681* 5681*
                                                                                  5682*
VLA_hdrp                        013274 automatic       pointer                  dcl 4803 set ref 5653* 5654 5656 5657 5659 5661 5663
                                                                                  5664 5665 5667 5667 5682* 5683 5685 5687 5696 5701
                                                                                  5702 5707
VLA_parm                113(33)        based           bit(1)                   level 4 in structure "shared_structure" packed
                                                                                  packed unaligned dcl 398 in procedure "ext_parse"
                                                                                  set ref 433
VLA_parm                  0(33) 000132 automatic       bit(1)                   level 2 in structure "subr_options" packed packed
                                                                                  unaligned dcl 391 in procedure "ext_parse" set ref
                                                                                  5548 5629 5633
VLA_static                0(34) 000132 automatic       bit(1)                   level 2 in structure "subr_options" packed packed
                                                                                  unaligned dcl 391 in procedure "ext_parse" set ref
                                                                                  5548 5585 5590 5629 5644
VLA_static              113(34)        based           bit(1)                   level 4 in structure "shared_structure" packed
                                                                                  packed unaligned dcl 398 in procedure "ext_parse"
                                                                                  set ref 437
VLC                       0(35) 000132 automatic       bit(1)                   level 2 in structure "subr_options" packed packed
                                                                                  unaligned dcl 391 in procedure "ext_parse" set ref
                                                                                  5548 5550 5585 5590
VLC                     113(35)        based           bit(1)                   level 4 in structure "shared_structure" packed
                                                                                  packed unaligned dcl 398 in procedure "ext_parse"
                                                                                  set ref 441
WHITE                                  constant        char(2)                  initial dcl 10810 ref 11571 11819 11826 12040 12104
                                                                                  12646
WHITE_AND_DIGITS                001050 constant        char(12)                 initial dcl 11715 ref 11802
ZERO                                   constant        bit(1)                   initial dcl 505 ref 1121 1125 1130 1236 1248 1249
                                                                                  1271 1611 1884 3558 3881 3882 3985 4363 4370 4499
                                                                                  4506 4596 4603 5001 5111 5192 5394 5518 6152 6514
                                                                                  6542 7964 7972 8002 8007 8013 8441 8487 9937 9967
                                                                                  9967 9983 10120 10207 10266 10362 10404 10429
                                                                                  10441 10508 10522 10684 10750 10895 10896 11397
                                                                                  12719
a_count                                parameter       fixed bin(18,0)          dcl 11482 set ref 11463 11495 11522* 11526 11535
a_data_type                     000116 automatic       fixed bin(4,0)           dcl 8-15 set ref 8-40* 8-43 8-43 8-43 8-45 8-45 8-47
                                                                                  8-65 8-81
a_index                                parameter       fixed bin(18,0)          dcl 8204 set ref 8192 8287*
a_last                                 parameter       fixed bin(18,0)          dcl 8205 set ref 8192 8288*
a_len                                  parameter       fixed bin(18,0)          dcl 8206 ref 8192 8215
a_size                                 parameter       fixed bin(18,0)          dcl 8304 set ref 8291 8405 8411* 8415*
a_stmnt_type                           parameter       fixed bin(18,0)          dcl 10812 set ref 10789 10915* 10990* 10994 11000*
                                                                                  11056*
a_sym                                  parameter       fixed bin(18,0)          dcl 6092 ref 6089 6100
a_type                                 parameter       bit(2)                   dcl 6589 ref 6558 6603
a_usage                                parameter       bit(5)                   dcl 6590 ref 6558 6605
a_value                                parameter       fixed bin(18,0)          dcl 6591 in procedure "enter_label" ref 6558 6604
a_value                         000120 automatic       bit(72)                  dcl 8-16 in procedure "create_constant" set ref
                                                                                  8-41* 8-51 8-52 8-54 8-54 8-65 8-85
abs                                                    builtin function         dcl 508 ref 6616 9622
access_field                           constant        fixed bin(17,0)          initial dcl 15-50 set ref 4425* 4640*
action                                 parameter       fixed bin(2,0)           dcl 12898 in procedure "get_next_token" ref 12882
                                                                                  12919 12977
action                                 parameter       fixed bin(2,0)           dcl 6924 in procedure "get_char_length" ref 6921
                                                                                  6935
action_on_non_numeric                  parameter       bit(1)                   dcl 12254 ref 12251 12276
actual_type                     013744 automatic       bit(2)                   dcl 6592 set ref 6671* 6676 6677* 6680 6680 6686
                                                                                  6701 6739
add_op                                 constant        fixed bin(18,0)          initial dcl 4-197 set ref 6992 7898 7906 8854* 9677
add_to_lib_list           2            based           entry variable           level 2 dcl 395 ref 2612
add_to_lib_list_run      12            based           entry variable           level 2 dcl 395 ref 2615
added                           013276 automatic       pointer                  dcl 4804 set ref 5345* 5351* 5357 5371 5371 5374
                                                                                  5376 5386* 5393
added_group                     013300 automatic       bit(1)                   packed unaligned dcl 4805 set ref 5830* 5831 5861*
                                                                                  5865
added_header_length             013301 automatic       fixed bin(24,0)          dcl 4806 set ref 5371* 5374* 5376* 5378
addr                                                   builtin function         dcl 8-18 in procedure "create_constant" ref 8-51
                                                                                  8-52 8-54 8-54 8-63 8-80 8-91
addr                                                   builtin function         dcl 509 in procedure "parse_source" ref 1096 1099
                                                                                  1131 1132 1133 1134 1151 1175 1205 1210 1234 1384
                                                                                  1389 1554 1554 1593 1605 1674 1685 1772 1782 1784
                                                                                  1785 1786 1922 1998 2000 2004 2005 2008 2027 2035
                                                                                  2035 2037 2037 2039 2041 2045 2045 2045 2045 2111
                                                                                  2114 2114 2114 2141 2146 2156 2161 2177 2181 2253
                                                                                  2305 2339 2340 2366 2415 2500 2507 2507 2523 2527
                                                                                  2527 2585 2612 2615 2679 2681 2691 2702 2741 2796
                                                                                  2820 2820 2822 2824 2834 2835 2837 2839 2842 2844
                                                                                  2863 2866 2870 2872 2872 2874 2877 2878 2882 2891
                                                                                  2908 2936 2936 2936 3026 3026 3226 3226 3236 3245
                                                                                  3327 3439 3556 3558 3562 3619 3642 3656 3656 3713
                                                                                  3713 3727 3740 3740 4058 4058 4101 4128 4128 4165
                                                                                  4734 4775 4777 4866 4866 4871 4871 4873 4873 4874
                                                                                  4874 4883 4892 4896 4896 4896 4899 4934 4948 4948
                                                                                  4950 4950 4951 4951 4962 4967 4978 5012 5050 5076
                                                                                  5111 5112 5132 5133 5138 5139 5140 5150 5175 5177
                                                                                  5190 5192 5221 5258 5358 5406 5425 5431 5446 5448
                                                                                  5449 5489 5496 5517 5523 5554 5569 5589 5607 5632
                                                                                  5638 5642 5646 5653 5665 5682 5689 5694 5703 5704
                                                                                  5741 5747 5765 5772 5793 5817 5833 5841 5850 5876
                                                                                  5908 5916 5916 5934 5942 5953 6021 6029 6045 6056
                                                                                  6056 6104 6120 6138 6151 6174 6175 6176 6177 6192
                                                                                  6193 6194 6195 6215 6299 6303 6310 6314 6326 6334
                                                                                  6456 6461 6514 6540 6549 6549 6626 6639 6643 6694
                                                                                  6715 6748 6748 6765 6766 6767 6768 6772 6808 6823
                                                                                  6928 6930 6937 6938 6976 6995 7004 7004 7051 7148
                                                                                  7161 7181 7181 7181 7181 7188 7189 7311 7312 7312
                                                                                  7332 7332 7367 7413 7422 7422 7422 7438 7456 7474
                                                                                  7534 7552 7553 7553 7575 7578 7580 7580 7582 7584
                                                                                  7584 7587 7587 7590 7590 7592 7594 7594 7595 7595
                                                                                  7598 7643 7648 7648 7650 7650 7662 7662 7677 7677
                                                                                  7681 7689 7698 7705 7710 7714 7719 7723 7728 7732
                                                                                  7738 7757 7785 7785 7788 7788 7788 7788 7788 7788
                                                                                  7896 7896 8051 8096 8105 8109 8115 8115 8118 8122
                                                                                  8132 8134 8141 8143 8152 8163 8164 8165 8166 8167
                                                                                  8168 8169 8172 8172 8179 8179 8184 8184 8230 8230
                                                                                  8234 8238 8251 8258 8268 8269 8274 8280 8320 8359
                                                                                  8359 8365 8365 8375 8379 8386 8408 8410 8414 8678
                                                                                  8679 8738 8740 8740 8740 8754 8795 8804 8827 8831
                                                                                  8832 8833 8842 8842 8888 8888 8946 8957 8962 8963
                                                                                  8968 8973 8988 9004 9004 9024 9049 9282 9315 9410
                                                                                  9582 9586 9672 9682 9689 9696 9706 9706 9709 9714
                                                                                  9757 9758 9762 9775 9775 9778 9784 9784 9826 9830
                                                                                  9930 10125 10133 10156 10162 10170 10173 10173
                                                                                  10181 10183 10185 10185 10202 10220 10229 10231
                                                                                  10244 10246 10255 10258 10258 10275 10277 10293
                                                                                  10359 10382 10384 10384 10388 10388 10396 10402
                                                                                  10441 10496 10508 10510 10510 10522 10558 10580
                                                                                  10584 10584 10596 10628 10634 10646 10647 10647
                                                                                  10647 10703 10706 10707 10731 10731 10737 10737
                                                                                  10741 10745 10745 10868 10871 10871 10896 10903
                                                                                  11112 11445 11445 11777 11865 11905 11921 11945
                                                                                  11945 11945 11945 11950 11950 11950 11950 11955
                                                                                  11955 11964 11964 11964 11964 11969 11969 11969
                                                                                  11969 11974 11974 12072 12076 12078 12082 12082
                                                                                  12086 12156 12175 12175 12175 12175 12195 12195
                                                                                  12195 12195 12195 12195 12195 12195 12317 12417
                                                                                  12421 12427 12640 12663 12707 12714 12714 12728
                                                                                  12737 12739 12745 12745 12749 12749 12754 12754
                                                                                  12759 12759 12762 12762 12793 12797 12813 12815
                                                                                  12820 12822 12830 12835 12839 12839 12845 12848
                                                                                  12850 12857 12857 12859 12859 12862 12862 12862
                                                                                  12862 12868 12868 12870 12870 12873 12873 12873
                                                                                  12873 12917 12925 12927 12929 12930 12932 12998
                                                                                  13002 13013 13021 13043 13046 13067 13071 13078
                                                                                  13085 13085 13139 13146 13154 13156 13156 13191
                                                                                  13194 13201 13228 13230 13230 13230 13232 13234
addr                                                   builtin function         dcl 9-17 in procedure "create_node" ref 9-24 9-25
addressing_bits           0(14)        based           structure                level 2 in structure "symbol" packed packed
                                                                                  unaligned dcl 5-844 in procedure "ext_parse"
addressing_bits           0(14)        based           structure                level 2 in structure "constant" packed packed
                                                                                  unaligned dcl 5-256 in procedure "ext_parse"
adesc                           014070 automatic       fixed bin(18,0)          dcl 7042 in procedure "parse_parameter_list" set ref
                                                                                  7147* 7148 7161
adesc                           013302 automatic       fixed bin(18,0)          dcl 4807 in procedure "declaration_processor" set
                                                                                  ref 4960* 4961 4962 5161
after_subprogram                       constant        fixed bin(18,0)          initial dcl 510 ref 1342 6188 7117
aliasable                 2(03)        based           bit(1)                   level 2 packed packed unaligned dcl 5-844 ref 5044
alignment                 0(30)        based           structure                level 3 packed packed unaligned dcl 5-436 set ref
                                                                                  5393 5396 5460*
all_attributes                  003012 constant        bit(47)                  initial dcl 511 set ref 1119 1718 1766* 2402* 2570*
                                                                                  6172
all_character_offsets_in_group  013303 automatic       bit(1)                   packed unaligned dcl 4808 set ref 5255* 5257 5258*
                                                                                  5262* 5361 5468 5993
allocate                  0(25)        based           bit(1)                   level 5 packed packed unaligned dcl 5-844 set ref
                                                                                  2866* 5097 8962*
allocate_symbol_name            000144 automatic       fixed bin(17,0)          dcl 5-525 set ref 5454* 5455 5651* 5652 5652 5787*
                                                                                  5788 5788 5857* 5858 5951* 5952 5952 6213* 6214
                                                                                  6214 6219 6220 8215* 8219 8225 8226 8251 8266 8266
                                                                                  8268 8269 8269 9824* 9825 9825 9838 9846
allow_array_name          0(05)        based           bit(1)                   level 2 packed packed unaligned dcl 1034 ref 10384
allow_asterisk                         parameter       bit(1)                   dcl 8927 in procedure "get_format" ref 8914 9030
allow_asterisk                         parameter       bit(1)                   dcl 8713 in procedure "parse_unit_specifier" ref
                                                                                  8705 8721 8745
allow_asterisk                         parameter       bit(1)                   dcl 8436 in procedure "parse_implied_io" set ref
                                                                                  8422 8454*
allow_octal_constant                   parameter       bit(1)                   dcl 7944 ref 7938 7972
allow_star_after                000134 automatic       bit(1)                   dcl 513 set ref 1291* 1304* 1746* 1748 1760
allow_variable_subscripts              parameter       bit(1)                   dcl 6790 ref 6778 6850
allow_variables                        parameter       bit(1)                   packed unaligned dcl 9724 ref 9721 9790
alphabetic                      002774 constant        char(52)                 initial dcl 514 ref 1853 1865 6155 12390 13154
alphanumeric                    001301 constant        char(64)                 initial dcl 10813 ref 11124
alternate_return                014071 automatic       bit(1)                   dcl 7043 set ref 7064* 7095* 7132
alternate_return_index          000135 automatic       fixed bin(18,0)          dcl 516 set ref 1225* 3305 3305* 3309* 3361* 3389*
ansi66_equivalence_statement    013776 automatic       bit(1)                   dcl 6791 set ref 6813* 6859 6866 6896
ansi_77                   0(30) 000132 automatic       bit(1)                   level 2 in structure "subr_options" packed packed
                                                                                  unaligned dcl 391 in procedure "ext_parse" set ref
                                                                                  2133 3684 3885 3981 4366 4502 4599 5061 5254 5659
                                                                                  5914 6112 6657 6689 6705 6813 8094 8334 8444 8490
                                                                                  9685 10299 11978 11990 12006 12029 12100 12105
ansi_77                  11(30)        based           bit(1)                   level 3 in structure "subprogram" packed packed
                                                                                  unaligned dcl 5-753 in procedure "ext_parse" set
                                                                                  ref 2311 5177 5195
ansi_77                   0(21) 013240 automatic       bit(1)                   level 3 in structure "io_bits" packed packed
                                                                                  unaligned dcl 885 in procedure "parse_source" set
                                                                                  ref 3885* 3981* 4366* 4502* 4599* 8444* 8490*
any_expression                  003030 constant        bit(36)                  initial dcl 1071 set ref 2495* 2860* 2941* 2953*
                                                                                  2962* 3007* 3270* 3840* 3932* 4196* 4213* 4242*
                                                                                  4273* 4292* 4297* 4317* 4323* 4328* 4410* 4413*
                                                                                  4416* 4419* 4422* 4425* 4428* 4431* 4434* 4437*
                                                                                  4440* 4443* 4446* 4544* 4634* 4745* 4750* 4753*
                                                                                  8351* 8760* 8784* 9286* 9291* 9294* 10214 10221
                                                                                  10249 10261 10497
any_label                              constant        bit(2)                   initial dcl 517 set ref 4128* 4128* 6676 6676 6680
                                                                                  6680
ap                              014072 automatic       pointer                  dcl 7044 in procedure "parse_parameter_list" set ref
                                                                                  7148* 7149 7152
ap                              013304 automatic       pointer                  dcl 4809 in procedure "declaration_processor" set
                                                                                  ref 4962* 4963 4967 4967
apostrophe                             constant        bit(9)                   initial dcl 4-156 ref 8539 11394
apostrophe_char                 001300 constant        char(1)                  initial dcl 10815 set ref 11404*
arg                       1            based           structure                array level 2 dcl 5-130
arg_desc                               based           structure                level 1 dcl 5-130 set ref 7147 7147
arg_desc_cnt                    013630 automatic       fixed bin(17,0)          dcl 6235 set ref 6300* 6304* 6307 6371
arg_desc_idx                    013631 automatic       fixed bin(17,0)          dcl 6235 set ref 6307* 6308 6310* 6371* 6372 6373*
arg_desc_node                          constant        fixed bin(4,0)           initial dcl 4-87 set ref 7147*
arg_desc_ptr                    013632 automatic       pointer                  dcl 6235 set ref 6303* 6304 6308 6310 6372 6373
arg_list_expr                          constant        bit(36)                  initial dcl 1071 ref 3329 10236 10282
arg_symbol_ptr                  013634 automatic       pointer                  dcl 6235 set ref 6310* 6312 6314
arg_type                        000136 automatic       bit(36)                  dcl 518 set ref 3327* 3329* 3345*
array_max_size                  013563 automatic       fixed bin(24,0)          dcl 6094 in procedure "set_data_fields" set ref
                                                                                  6122* 6124* 6126* 6128* 6130* 6132* 6136 6136
array_max_size                  013306 automatic       fixed bin(24,0)          dcl 4810 in procedure "declaration_processor" set
                                                                                  ref 5007* 5009* 5012 5012
array_name                0(09)        based           bit(1)                   level 3 packed packed unaligned dcl 1034 set ref
                                                                                  8832 9315 10382*
array_size                3            based           fixed bin(24,0)          level 2 dcl 5-383 set ref 5012 5221 5646 5665 5747
                                                                                  5942 6138*
asf_attribute                   002772 constant        bit(47)                  initial dcl 519 set ref 2782*
asf_conflicts                   002770 constant        bit(47)                  initial dcl 521 set ref 2782*
asf_definition                         constant        fixed bin(18,0)          initial dcl 523 ref 1276 10987 11010 11014 11014
                                                                                  11022 11027 11031
assign                                 constant        bit(9)                   initial dcl 4-156 ref 2490 2576 2856 2950 2958 3569
                                                                                  3900 4392 4527 4623 4741 8506 8618 8671 8696 8717
                                                                                  9200 9362 11324
assign_                         000014 constant        entry                    external dcl 524 ref 12862 12873
assign_label_op                        constant        fixed bin(18,0)          initial dcl 4-197 set ref 4145*
assign_op                              constant        fixed bin(18,0)          initial dcl 4-197 set ref 2963* 3311* 3841* 6355*
                                                                                  6489*
assignment_statement                   constant        fixed bin(18,0)          initial dcl 525 ref 1367 1529 2913 2914 3065 6499
                                                                                  10987 11008 11014 11022 11026 11031 11038
assignment_statement_index      000137 automatic       fixed bin(18,0)          dcl 526 set ref 1276* 1367 1529 6499* 11008 11337
                                                                                  11342
assumed_size              0(28)        based           bit(1)                   level 2 packed packed unaligned dcl 5-383 set ref
                                                                                  5086 6317 8837 9584* 10388
assumed_size_index              016506 automatic       fixed bin(18,0)          dcl 9449 set ref 9470* 9504 9568 9568 9584 9606
                                                                                  9612*
asterisk                               constant        bit(9)                   initial dcl 4-156 ref 1293 1309 7094 7532 8314 8334
                                                                                  8744 9030 9489 9517 11179 11414
asterisk_seen                   000140 automatic       bit(1)                   dcl 527 in procedure "parse_source" set ref 1748*
                                                                                  1760* 1834* 2244* 2258* 2267 2269*
asterisk_seen                          parameter       bit(1)                   dcl 8305 in procedure "get_mode_size" set ref 8291
                                                                                  8312* 8315*
attach_desc_field                      constant        fixed bin(17,0)          initial dcl 15-50 set ref 4416*
attr                                   based           structure                level 1 packed packed unaligned dcl 8306
attr_table                      002752 constant        bit(47)                  initial array dcl 528 ref 1259 1260 1263 1264 1267
                                                                                  1268 1742 1833 2243 3305 3835 5637 5693 7135 8417
                                                                                  9967 9983
attributes                             parameter       bit(47)                  dcl 8307 in procedure "get_mode_size" set ref 8291
                                                                                  8375 8379 8408 8410 8414 8417*
attributes               10            based           structure                level 2 in structure "master" dcl 13221 in procedure
                                                                                  "check_entry_duplication"
attributes                             parameter       bit(47)                  dcl 9818 in procedure "build_symbol" ref 9814 9834
attributes                      000142 automatic       bit(47)                  dcl 533 in procedure "parse_source" set ref 1742*
                                                                                  1748* 1760* 1765* 1765 1766* 1833* 1834* 1892
                                                                                  2243* 2244* 2257
attributes               10            based           structure                level 2 in structure "symbol" dcl 5-844 in procedure
                                                                                  "ext_parse" set ref 3558 5192 5916 6155* 6155
                                                                                  6174* 6542 6545* 6545 9834* 9937 9967 9983* 9983
                                                                                  10207 10266 10267* 10267 10362 10404 10404* 10404
attributes                             parameter       bit(47)                  dcl 6532 in procedure "declare_symbol" ref 6520 6545
attributes               10            based           structure                level 2 in structure "slave" dcl 13222 in procedure
                                                                                  "check_entry_duplication"
auto                            000122 automatic       fixed bin(24,0)          level 2 in structure "max_array_size" dcl 383
                                                                                  in procedure "ext_parse" set ref 429* 431* 5007
                                                                                  5532 6124 6132
auto                      0(09)        based           bit(1)                   level 3 in structure "subprogram" packed packed
                                                                                  unaligned dcl 5-753 in procedure "ext_parse" set
                                                                                  ref 1569* 2657*
auto_attribute                  002750 constant        bit(47)                  initial dcl 534 set ref 1765 2745* 2830* 3305
automatic                11            based           bit(1)                   level 4 in structure "symbol" packed packed
                                                                                  unaligned dcl 5-844 in procedure "ext_parse" set
                                                                                  ref 5007 5044 5048* 5640* 5644 5696* 5745 6124
automatic                 0(33)        based           bit(1)                   level 4 in structure "header" packed packed
                                                                                  unaligned dcl 5-436 in procedure "ext_parse" set
                                                                                  ref 5532 5590 5696 5818
b72_one                         002746 constant        bit(72)                  initial dcl 536 ref 12720 12817 12836 12845 12879
b72_zero                        002744 constant        bit(72)                  initial dcl 538 ref 12703 12710 12725
backspace_op                           constant        fixed bin(18,0)          initial dcl 4-197 ref 3870
backspace_opr                          constant        fixed bin(4,0)           initial dcl 15-19 ref 3872
bad_type                        000144 automatic       fixed bin(18,0)          dcl 540 set ref 4784 11045*
based_bit_72                           based           bit(72)                  dcl 541 set ref 7681* 7705*
based_char                             based           char(8)                  dcl 542 set ref 4896* 4896 7662* 7677* 12830* 12839*
based_dec                              based           char(12)                 dcl 12693 set ref 12707 12714 12714*
based_double                           based           float bin(63)            level 2 packed packed unaligned dcl 844 set ref 7698
                                                                                  7723 7738* 10731 12754* 12754 13085
based_integer                          based           fixed bin(35,0)          dcl 543 set ref 1096* 1099* 3026 3026 3226 3226 3656
                                                                                  3713 3727* 3740 4128 4128 4165* 4734 6930* 7534
                                                                                  7689* 7698* 7714 7738 7896 8320 8365 8678 8738
                                                                                  8740 8740 8740 8827* 8831* 8842* 8842 8888* 8888
                                                                                  8946 9410 10293 10737 12728* 12739 12745* 12745
                                                                                  13043* 13046
based_real                             based           float bin(27)            array dcl 544 set ref 7689 7710* 7714* 7719* 7723*
                                                                                  7728* 7732* 7732 10731* 10737* 10745* 10745 12749*
                                                                                  12749 12759* 12759 12762* 12762 13085*
based_words                            based           bit(36)                  array dcl 545 set ref 8172* 8172 8230* 8230 8234
                                                                                  8238
before                                                 builtin function         dcl 546 ref 11892 11893 11909
begin_char                      000145 automatic       fixed bin(18,0)          dcl 547 set ref 1853* 1869 1874 1884 1884 1887 1887
                                                                                  1891
begin_index               2     012412 automatic       fixed bin(18,0)          array level 2 dcl 875 set ref 3524 3772 9128* 9151*
                                                                                  9195* 9200 9276 9324
begin_text                      016772 automatic       fixed bin(20,0)          dcl 10816 set ref 10909* 10975 10975
bias                                   constant        fixed bin(19,0)          initial dcl 4-56 ref 2886 3123 3199 3368 3371 3379
                                                                                  3530 3660 3664 4249 4468 4471 4566 4569 4711 4759
                                                                                  5125 6367 6369 6440 6904 7158 7287 7348 7353 7583
                                                                                  7598 7651 7673 8087 8128 8386 8767 9140 9368 9423
                                                                                  9806 10601 10605 10947 10958 11282 11292 11600
                                                                                  11617 12511 12635 12652 12815 13078
bif_conflicts                   002742 constant        bit(47)                  initial dcl 548 set ref 2312* 2370* 9937
bif_dt                          016650 automatic       fixed bin(18,0)          dcl 9861 set ref 9965* 9967 9967 9983
bif_name                        016652 automatic       char(8)                  dcl 9862 set ref 9940 9942* 9949 9952
bif_ptr                         016654 automatic       pointer                  dcl 9863 set ref 9930* 9932 9934 9937 9940 9942 9967
                                                                                  9967 9972 9980 9981 9982 9983 9983 9983
bif_table                       000251 constant        structure                array level 1 dcl 9873 ref 9945
binary                                                 builtin function         dcl 550 in procedure "parse_source" ref 2141 2156
                                                                                  2177 3883 4364 4500 4597 5294 6686 6701 8219 8241
                                                                                  10118 10167 10349 10477 10608 10639 10975 11109
                                                                                  11109 11445 11445 11865 12264 12318 12322 12942
                                                                                  13204
binary                                                 builtin function         dcl 8-19 in procedure "create_constant" ref 8-57
binarystream_field                     constant        fixed bin(17,0)          initial dcl 15-50 set ref 4434*
binop_trunc            2040            based           entry variable           array level 2 dcl 398 set ref 7906
bit                                                    builtin function         dcl 551 ref 3883 4364 4500 4597 6280 6390 6401 6461
                                                                                  7986 8860 8860 8860 8860 8871 8871 8871 8871 10903
                                                                                  10904 10975 11445
bit_mask                        002736 constant        bit(36)                  initial array dcl 552 ref 8172 8230
bit_value                       000146 automatic       bit(9)                   dcl 555 set ref 11109 11109 11109 11112 12317 12318
                                                                                  12322
bits                      0(25)        based           structure                level 2 in structure "master" packed packed
                                                                                  unaligned dcl 13221 in procedure
                                                                                  "check_entry_duplication"
bits                      3            based           structure                level 2 in structure "statement" packed packed
                                                                                  unaligned dcl 5-721 in procedure "ext_parse" set
                                                                                  ref 1551* 1639* 1702* 1734* 2786* 2929* 2998*
                                                                                  3084* 3167* 3213* 3293* 3405* 3421* 3819* 3877*
                                                                                  3950* 3970* 4022* 4037* 4089* 4122* 4159* 4183*
                                                                                  4192* 4270* 4289* 4313* 4357* 4493* 4590* 4724*
bits                      0(25)        based           structure                level 2 in structure "label" packed packed unaligned
                                                                                  dcl 5-530 in procedure "ext_parse"
bits                      0(25)        based           structure                level 2 in structure "symbol" packed packed
                                                                                  unaligned dcl 5-844 in procedure "ext_parse"
bits                      0(25)        based           structure                level 2 in structure "slave" packed packed unaligned
                                                                                  dcl 13222 in procedure "check_entry_duplication"
bits                      0(25)        based           structure                level 2 in structure "constant" packed packed
                                                                                  unaligned dcl 5-256 in procedure "ext_parse"
bits                      0(25)        based           structure                level 2 in structure "header" packed packed
                                                                                  unaligned dcl 5-436 in procedure "ext_parse"
blank_common_name               003056 constant        char(8)                  initial dcl 4-79 ref 1978 1981 7422
blank_cont_count                016773 automatic       fixed bin(18,0)          dcl 10817 set ref 11063* 11497* 11514 11517 12025*
                                                                                  12025 12589
blank_count                     017244 automatic       fixed bin(18,0)          dcl 11483 set ref 11496* 11506 11508 11517* 11518
                                                                                  11599 11606 11607 11608
blank_field                            constant        fixed bin(17,0)          initial dcl 15-50 set ref 4446* 4649*
block_data                             constant        fixed bin(9,0)           initial dcl 4-68 ref 1529 1549 1680 2045 6496 7422
                                                                                  7438
block_data_op                          constant        fixed bin(18,0)          initial dcl 4-197 set ref 1662*
block_if_op                            constant        fixed bin(18,0)          initial dcl 4-197 set ref 3130*
block_length                    013307 automatic       fixed bin(25,0)          dcl 4811 set ref 5176* 5206 5210* 5210 5213 5226*
                                                                                  5226 5234 5236 5359* 5360 5361 5364 5378* 5379
                                                                                  5381 5555* 5558 5593* 5596 5766* 5767* 5767 5767
                                                                                  5769 5777 5780 5834* 5835* 5835 5835 5837 5847
                                                                                  5853
block_max_size                  013310 automatic       fixed bin(24,0)          dcl 4812 set ref 5490* 5500* 5502* 5505 5505 5528*
                                                                                  5530* 5532* 5534* 5537 5537
block_name               10            based           char                     level 2 dcl 5-436 set ref 1998 2679 5490 5683 5685
                                                                                  6220* 7422
bnd_sym_idx                            parameter       fixed bin(24,0)          dcl 6013 set ref 6007 6021 6022*
bnd_sym_ptr                     013534 automatic       pointer                  dcl 6015 set ref 6021* 6022 6024 6025
bool                                                   builtin function         dcl 8-20 in procedure "create_constant" ref 8-54
bool                                                   builtin function         dcl 8207 in procedure "find_symbol_index" ref 8238
bound                                  parameter       fixed bin(24,0)          dcl 9649 set ref 9631 9681* 9688* 9689 9693* 9709*
                                                                                  9714*
bound_error                     016507 automatic       bit(1)                   dcl 9450 set ref 9474* 9476 9496* 9523* 9545* 9572*
                                                                                  9577 9609*
bound_is_expression             013636 automatic       bit(1)                   packed unaligned dcl 6235 set ref 6328* 6330* 6336*
                                                                                  6338* 6341
bound_is_variable                      parameter       bit(1)                   packed unaligned dcl 9649 set ref 9631 9682* 9685
bound_symbol_ptr                013640 automatic       pointer                  dcl 6235 set ref 6326* 6328 6334* 6336 6343 6349
                                                                                  6349
bounds                          016527 automatic       structure                array level 1 dcl 9464 set ref 9471* 9482 9591
bp                              013312 automatic       pointer                  dcl 4813 set ref 5175* 5177 5180 5181 5186 5189 5195
                                                                                  5236 5239 5267* 5293 5320 5321* 5328 5345 5352
                                                                                  5371 5371 5378 5381 5387 5404 5404 5413 5413 5420
                                                                                  5420 5425 5426 5438 5438 5460 5461 5468
branched_to               0(34)        based           bit(1)                   level 3 packed packed unaligned dcl 5-530 set ref
                                                                                  6661* 6689 6724 6731 6732*
build_list                             parameter       bit(1)                   dcl 9388 ref 9374 9393
build_list_item                        parameter       bit(1)                   dcl 8714 ref 8705 8721 8766
builtin                  10(32)        based           bit(1)                   level 4 packed packed unaligned dcl 5-844 set ref
                                                                                  5059 9932 9981* 10393
builtin_op                             constant        fixed bin(18,0)          initial dcl 4-197 ref 10262
by_compiler               0(35)        based           bit(1)                   level 3 packed packed unaligned dcl 5-844 set ref
                                                                                  1685* 1772* 2837* 5023 5916 6022 6177* 6328 6336
                                                                                  9836*
bypass_first_pending_entry      000147 automatic       bit(1)                   packed unaligned dcl 556 set ref 1278* 4065* 6269
bypass_label                    013642 automatic       fixed bin(18,0)          dcl 6235 set ref 6259* 6269 6272* 6274 6275* 6395
                                                                                  6396*
c_count                         014114 automatic       fixed bin(18,0)          dcl 7228 set ref 7274* 7518 7531* 7534* 7535 7538*
                                                                                  7560 7748* 7748 7826
c_dt                            014115 automatic       fixed bin(4,0)           dcl 7229 set ref 7549* 7552* 7553 7570 7573
call_op                                constant        fixed bin(18,0)          initial dcl 4-197 set ref 3318*
cant_be_reached           0(04) 000000 constant        bit(1)                   initial array level 2 packed packed unaligned
                                                                                  dcl 892 ref 1428
cant_ref_label            0(05) 000000 constant        bit(1)                   initial array level 2 packed packed unaligned
                                                                                  dcl 892 ref 1384
card                      0(05) 000132 automatic       bit(1)                   level 3 packed packed unaligned dcl 391 set ref
                                                                                  11976
card_image                      000150 automatic       bit(1)                   dcl 557 set ref 11437 11582 11976* 11986
carriage_field                         constant        fixed bin(17,0)          initial dcl 15-50 set ref 4440*
chain                           012412 automatic       fixed bin(18,0)          array level 2 dcl 875 set ref 3775 9126* 9147* 9165
                                                                                  9168* 9179* 9326
chain_op                               constant        fixed bin(18,0)          initial dcl 4-197 set ref 4232*
char                                                   builtin function         dcl 9-17 in procedure "create_node" ref 9-29 9-29
char                      1     000122 automatic       fixed bin(24,0)          level 2 in structure "max_array_size" dcl 383
                                                                                  in procedure "ext_parse" set ref 421* 5500 5528
                                                                                  6122
char                                                   builtin function         dcl 8-21 in procedure "create_constant" ref 8-45
                                                                                  8-45
char                                                   builtin function         dcl 558 in procedure "parse_source" ref 1410 1410
                                                                                  1543 1543 5012 5234 5379 5379 5505 5537 5927 5927
                                                                                  6136 6346 6346 6425 6425 6436 6436 6452 6452 6470
                                                                                  6470 6508 6508 6614 6614 7171 7171 8322 8322 8393
                                                                                  8393 8398 8398 8738 8740 8740 9599 9599 9623 9623
                                                                                  10899 10899 11109 12086 12086 13207
char_constant                          based           structure                level 1 dcl 5-316
char_count                      014116 automatic       fixed bin(18,0)          dcl 7230 set ref 7643* 7646 7667* 7667 7673 7677
char_index                      000151 automatic       fixed bin(20,0)          dcl 559 set ref 11124 11124 11128 11128 11227 11227
                                                                                  11441 11502 11502 11535 11535 11541 11541 11542
                                                                                  11542 11571 11571 11577* 11577 11578 11578 11625
                                                                                  11625 11630 11630 11633* 11633 11758* 11761 11788
                                                                                  11788 11788 11789 11802 11802 11804 11804 11807
                                                                                  11807 11807 11807 11812* 11812 11814 11814 11819
                                                                                  11819 11820* 11820 11821 11821 11826 11826 11828
                                                                                  11828 11831 11831 11831 11831 11835 11835 11917*
                                                                                  11931 11931 11941 11941 11990 11990 11993 11993
                                                                                  11995 11995 11999 12002 12002 12002 12002 12002
                                                                                  12002 12002 12002 12007 12007 12010 12010 12010
                                                                                  12010 12012 12012 12012 12012 12012 12012 12016*
                                                                                  12016 12017 12017 12029 12029 12030 12030 12034*
                                                                                  12034 12039 12039 12040 12040 12044 12044 12045*
                                                                                  12045 12062 12062 12064 12064 12067 12067 12067
                                                                                  12074 12074 12074 12074 12076* 12076 12082 12082
                                                                                  12084* 12084 12100 12100 12102 12102 12102 12102
                                                                                  12104 12104 12108* 12108 12109 12109 12114* 12114
                                                                                  12116 12116 12127 12127 12127 12127 12132 12132
                                                                                  12143 12143 12159 12159 12169* 12169 12189* 12189
                                                                                  12215 12215 12218* 12218 12218 12218 12223* 12223
                                                                                  12225 12225 12227* 12227 12227 12227 12231 12231
                                                                                  12232 12232 12239 12239 12241 12241 12242* 12242
                                                                                  12264 12264 12278* 12278 12286* 12286 12350 12350
                                                                                  12354 12354 12390 12390 12394 12394 12564 12564
                                                                                  12582 12582 12605 12605
char_len                        014117 automatic       fixed bin(18,0)          dcl 7231 set ref 7635* 7646 7646 7651 7660 7660 7662
                                                                                  7662 7673 7673 7677
char_mode                              constant        fixed bin(4,0)           initial dcl 4-106 ref 8-43 2267 5177 5195 5201 6110
                                                                                  6122 7553 7567 7570 7573 7573 8334 8367 8375 8408
char_offset                            parameter       bit(1)                   packed unaligned dcl 5903 set ref 5898 5914* 5937
                                                                                  5961
char_siz                        000152 automatic       fixed bin(18,0)          dcl 560 set ref 2242* 2244* 2258 2269 3688* 3691*
                                                                                  3719 3719 3727 3747 3747
char_size                10            based           fixed bin(20,0)          level 4 in structure "symbol" packed packed unsigned
                                                                                  unaligned dcl 5-844 in procedure "ext_parse" set
                                                                                  ref 2146 2161 2181 2523* 2527 2527 2891* 3688 5065
                                                                                  5127* 5742 5752 6113 6116 6930 7367 7575 8158*
                                                                                  8183* 8827 9980*
char_size                              based           fixed bin(20,0)          level 3 in structure "attr" packed packed unsigned
                                                                                  unaligned dcl 8306 in procedure "get_mode_size"
                                                                                  set ref 8410* 8414*
char_string                            constant        bit(9)                   initial dcl 4-156 ref 2607 4097 9010 11216 12557
                                                                                  12932 13010
char_temp                       000153 automatic       char(1320)               dcl 561 set ref 7578 7580 7584 7587 7590 7590 7594
                                                                                  7595 7595 8086 8087 8092* 8094* 8132
char_type                       000665 automatic       fixed bin(18,0)          dcl 562 set ref 10936 11133 11133 11150 11257 11430
                                                                                  11568 12127 12265* 12267* 12270 12275 12318*
                                                                                  12322* 12360 12399 12459 12492
char_type_offset                       parameter       bit(1)                   packed unaligned dcl 5987 ref 5976 5993
char_units                             constant        fixed bin(3,0)           initial dcl 4-136 ref 5181 5371 5413 5937 5961 6114
char_value                             based           char(1)                  dcl 563 set ref 11112* 12317*
char_var_length                 014120 automatic       fixed bin(10,0)          dcl 7232 set ref 7367* 7374 7376 7384 7386 7575*
                                                                                  7578 7580 7584 7587 7590 7590 7590 7590 7592 7594
                                                                                  7595 7595 7595 7595 7598 7598
char_var_value                         based           char                     packed unaligned dcl 7233 set ref 7578* 7580* 7584*
                                                                                  7587* 7590* 7590* 7594* 7595* 7595*
character                10(25)        based           bit(1)                   level 5 in structure "symbol" packed packed
                                                                                  unaligned dcl 5-844 in procedure "ext_parse" set
                                                                                  ref 2515 2936 3688 5061 5258 5361 5497 5524 5633
                                                                                  5659 5742 5914 8754 8826 9004 10185 10498
character                 0(32)        based           bit(1)                   level 4 in structure "header" packed packed
                                                                                  unaligned dcl 5-436 in procedure "ext_parse" set
                                                                                  ref 5180* 5195 5468* 5659*
character_offset                013316 automatic       bit(1)                   packed unaligned dcl 4814 set ref 5267* 5272* 5281*
                                                                                  5289* 5361
chars_in_block                  013314 automatic       bit(1)                   packed unaligned dcl 4814 set ref 5493* 5494 5497*
                                                                                  5500
chars_in_group                  013315 automatic       bit(1)                   packed unaligned dcl 4814 set ref 5520* 5521 5524*
                                                                                  5528
chars_per_word                         constant        fixed bin(8,0)           initial dcl 13-99 ref 1155 1157 5065 5065 5752 5752
                                                                                  6116 6116 7635 8158 8160 8160 8172 8172 8172 8225
                                                                                  8226 8831 11900
clauses                   1     004422 automatic       fixed bin(18,0)          array level 2 dcl 836 set ref 3119* 3119 3136* 3188*
                                                                                  3188 3199
close_op                               constant        fixed bin(18,0)          initial dcl 4-197 set ref 4520*
close_opr                              constant        fixed bin(4,0)           initial dcl 15-19 ref 4500
closefile_op                           constant        fixed bin(18,0)          initial dcl 4-197 set ref 4274*
cmpx_mode                       003275 constant        fixed bin(4,0)           initial dcl 4-106 set ref 8321 10768* 12764*
cname                           016774 automatic       char(32)                 packed unaligned dcl 10818 set ref 11879* 11886*
                                                                                  11907 11909
code                            000666 automatic       fixed bin(35,0)          dcl 564 set ref 2612* 2615* 2618 8094* 8095 11837*
                                                                                  11842 11842 11842* 11849* 11855* 11870* 11879*
                                                                                  11881 11882 11884*
colon                                  constant        bit(9)                   initial dcl 4-156 ref 2152 2172 3697 3704 9503 10326
                                                                                  10515 11456 12968
com_err_                        000042 constant        entry                    external dcl 10862 ref 11842 11884
comma                                  constant        bit(9)                   initial dcl 4-156 ref 1894 1901 1931 2063 2200 2211
                                                                                  2279 2316 2344 2378 2439 2549 2590 2710 2755 2849
                                                                                  2942 3016 3030 3043 3242 3252 3268 3350 3577 3583
                                                                                  3668 3770 3798 3922 4001 4198 4215 4244 4293 4318
                                                                                  4325 4455 4553 4692 4737 4746 4751 6886 7104 7275
                                                                                  7519 8453 8457 8545 8566 8612 8616 8626 9195 9287
                                                                                  9292 9322 9414 9559 10481 11182 11368
command                         001276 constant        char(7)                  initial packed unaligned dcl 10819 set ref 11837*
                                                                                  11842* 11884*
common                    2     000122 automatic       fixed bin(24,0)          level 2 dcl 383 set ref 441* 443* 5502 5530 6126
                                                                                  6132
common_blk_name                        parameter       varying char(256)        dcl 6209 ref 6204 6213 6220
common_chain              2            based           fixed bin(18,0)          level 2 packed packed unsigned unaligned dcl 5-753
                                                                                  set ref 1986 1992* 2676 2689 2689* 5174 5487 5552
                                                                                  5560* 5576
common_hdri                     013317 automatic       fixed bin(18,0)          dcl 4815 set ref 5487* 5487* 5489 5505* 5552* 5553
                                                                                  5554 5565 5576* 5578*
common_hdrp                     013320 automatic       pointer                  dcl 4816 set ref 5489* 5490 5494 5505 5505 5507
                                                                                  5554* 5555 5555 5555 5560 5562 5564 5566 5567 5573
common_name                     000667 automatic       varying char(256)        dcl 565 set ref 1671* 1674* 1681* 1685 1965* 1978*
                                                                                  1981* 1991* 1998 2004* 2674* 2679 2688*
common_storage                         constant        bit(3)                   initial dcl 566 ref 6217
compile_only            115(02)        based           bit(1)                   level 4 packed packed unaligned dcl 398 set ref 2612
compiler_source_info                   based           structure                level 1 dcl 14-6
complex                  10(23)        based           bit(1)                   level 5 packed packed unaligned dcl 5-844 set ref
                                                                                  5206 5657 5757 5964
complex_const                          constant        bit(9)                   initial dcl 4-156 ref 10761
complex_constant_offset                parameter       fixed bin(18,0)          dcl 10658 set ref 10655 10768*
complex_info                    016753 automatic       structure                array level 1 dcl 10667
concat                                 constant        bit(9)                   initial dcl 4-156 ref 1976 2066 2072 11384
conflicts                              parameter       bit(47)                  dcl 6533 ref 6520 6542
const                           014125 automatic       fixed bin(18,0)          dcl 7236 set ref 7529* 7536* 7543* 7546* 7549 7552
                                                                                  7553 7582 7584 7587 7592 7594 7598 7600 7604 7613*
                                                                                  7643 7662 7677 7691* 7700*
const_count                     000771 automatic       fixed bin(18,0)          dcl 568 set ref 10888* 12508* 12508 12509 12511
                                                                                  12518 12519 12520 12521 12522
const_index                     000770 automatic       fixed bin(18,0)          dcl 567 set ref 2579* 2582* 2585 2604* 2612 2615
                                                                                  6849* 6860* 6867* 6879 8317* 8364* 8365 8381*
const_max_len                   017245 automatic       fixed bin(18,0)          dcl 11484 set ref 11495* 11496 11508* 11508 11517
                                                                                  11518* 11518 11522
const_offset                    014216 automatic       fixed bin(18,0)          dcl 7945 set ref 7953* 7957* 7966* 7991* 7997* 8003
                                                                                  8010* 8010* 8016
constant                               based           structure                level 1 dcl 5-256 in procedure "ext_parse" set ref
                                                                                  8-74 8-74
constant                 11(05)        based           bit(1)                   level 4 in structure "symbol" packed packed
                                                                                  unaligned dcl 5-844 in procedure "ext_parse" set
                                                                                  ref 5059*
constant_array                  011016 automatic       structure                array level 1 dcl 853 set ref 12509 12511 12511
constant_count           77            based           fixed bin(17,0)          array level 3 dcl 398 set ref 8-87* 8-87
constant_info            77            based           structure                array level 2 dcl 398
constant_node                          constant        fixed bin(4,0)           initial dcl 4-87 set ref 8-74* 6977
constant_offset                        parameter       fixed bin(18,0)          dcl 7946 set ref 7938 7953 8016*
constant_type                          constant        fixed bin(4,0)           initial dcl 4-120 in procedure "ext_parse" ref 8-82
constant_type                   002730 constant        bit(9)                   initial array dcl 569 in procedure "parse_source"
                                                                                  ref 12930
contains_hollerith        0(21)        based           bit(1)                   level 4 in structure "runtime_format" packed packed
                                                                                  unaligned dcl 13-32 in procedure "parse_source"
                                                                                  ref 4899
contains_hollerith        0(21)        based           bit(1)                   level 4 in structure "encoded_format" packed packed
                                                                                  unaligned dcl 8084 in procedure "create_format"
                                                                                  ref 8115
continuation_line                      constant        fixed bin(18,0)          initial dcl 571 ref 11081 12020 12119
control_bits                           parameter       bit(36)                  dcl 10045 ref 9990 10093 10095
control_type              0(08) 013240 automatic       bit(4)                   level 3 packed packed unaligned dcl 885 set ref
                                                                                  3883* 4364* 4500* 4597*
conv_error                      014124 automatic       fixed bin(35,0)          dcl 7235 set ref 7686* 7689* 7691 7696* 7698* 7700
conv_round             2500            based           entry variable           array level 2 dcl 398 set ref 7689 7698 7714 7723
                                                                                  7738 10731 10737 13085
copy                                                   builtin function         dcl 572 ref 2527 2527
count                           016670 automatic       fixed bin(18,0)          dcl 10046 in procedure "parse_expression" set ref
                                                                                  10091* 10295* 10314* 10328* 10328 10482* 10482
                                                                                  10516* 10516 10517 10536 10600 10601 10605 10616*
                                                                                  10632*
count                                  parameter       fixed bin(18,0)          dcl 6419 in procedure "emit_halfword" ref 6468 6470
                                                                                  6473 6477 6479
count                           000772 automatic       fixed bin(18,0)          dcl 573 in procedure "parse_source" set ref 2802*
                                                                                  2814* 2814 2885 2888* 2891 3325* 3347* 3347 3363*
                                                                                  3363 3368 3371 3888* 3899* 3899 3917 4238* 4243*
                                                                                  4243 4249 4372* 4387* 4389* 4389 4394 4508* 4524*
                                                                                  4524 4529 4618* 4620* 4620 4686 7061* 7083* 7083
                                                                                  7123* 7123 7133* 7133 7181 7188 8500* 8504* 8504
                                                                                  8537 8544 9371* 9371
count                           016472 automatic       fixed bin(18,0)          dcl 9386 in procedure "scan_label_list" set ref
                                                                                  9398* 9413* 9413 9423
count                           016510 automatic       fixed bin(18,0)          dcl 9451 in procedure "get_bounds" set ref 9467*
                                                                                  9481* 9481 9482 9492 9492 9498 9504 9508 9508 9509
                                                                                  9510 9510 9511 9520 9520 9525 9534 9535 9540 9541
                                                                                  9541 9549 9568 9580 9583 9612 9613 9622 9624 9624
                                                                                  9626
count                           017004 automatic       fixed bin(18,0)          dcl 10820 in procedure "statement_lex" set ref
                                                                                  11212* 11218 11225* 11225 11226 11227 11228* 11228
                                                                                  11229 11230* 11234 11243
count                                  parameter       fixed bin(18,0)          dcl 7840 in procedure "store_value" set ref 7837
                                                                                  7853 7859*
count                           013777 automatic       fixed bin(18,0)          dcl 6792 in procedure "get_constant_offset" set ref
                                                                                  6812* 6836* 6836 6842 6859 6866 6879 6879 6897
                                                                                  6897 6899* 6899* 6907 6914 6915 6916
count_op                  2     004422 automatic       fixed bin(18,0)          array level 2 dcl 836 set ref 3138* 3199
count_pic                       016640 automatic       picture(4)               packed unaligned dcl 9822 set ref 9843* 9844
cp_count                        000773 automatic       fixed bin(18,0)          dcl 574 set ref 1250* 9842* 9842 9843
cp_label_count                  000774 automatic       fixed bin(18,0)          dcl 575 set ref 1251* 6271* 6271 6272*
create_char_constant   1524            based           entry variable           level 2 dcl 398 set ref 2527 4101 4105 4228 4228
                                                                                  4331 4331 7590 7590 7595 7595 8179 8179 8184 8184
                                                                                  13013 13021
create_sw                              parameter       fixed bin(2,0)           dcl 8208 ref 8192 8264
cref_base                14            based           pointer                  level 2 in structure "shared_structure" dcl 398
                                                                                  in procedure "ext_parse" set ref 414
cref_base                       000112 automatic       pointer                  dcl 378 in procedure "ext_parse" set ref 414* 1389
                                                                                  1389 1392 1392 6512 6514 6516
cross_reference                        based           structure                array level 1 dcl 6-8
cur_listing              22            based           pointer                  level 2 dcl 398 set ref 1231 1234* 1236 1237 1239
                                                                                  1241 1242 1582
cur_paren                       000775 automatic       fixed bin(18,0)          dcl 576 set ref 3524 3597 3602 9109* 9109* 9110
                                                                                  9110* 9123* 9147 9154* 9160 9165 9167 9168 9171
                                                                                  9174* 9178 9183* 9195 9195 9200 9200 9276 9302
                                                                                  9305
cur_segment                     000776 automatic       fixed bin(18,0)          dcl 577 set ref 1103* 1169 1174* 1175 11904* 11905
                                                                                  11924
cur_statement            67            based           fixed bin(18,0)          level 2 dcl 398 set ref 1525* 2102 2405 2406* 4857
                                                                                  4858* 5251* 5476* 6257 6280 6390 6401 6450 6455*
                                                                                  6456 6461 6464 6514 6514 10868 11071*
cur_statement_list       70            based           fixed bin(17,0)          level 2 dcl 398 set ref 6516 10907*
cur_stmnt_ptr                   001000 automatic       pointer                  dcl 578 set ref 1551 1639 1702 1734 2786 2929 2981*
                                                                                  2998 3081* 3084 3167 3213 3293 3405 3421 3819 3877
                                                                                  3950 3970 4022 4037 4089 4122 4159 4183 4192 4270
                                                                                  4289 4313 4357 4493 4590 4724 6188 6257* 6277
                                                                                  6278* 6387 6388* 6398 6399* 6456* 6457 7169 10868
                                                                                  10895 10904 10910 10975 10977
cur_subprogram           71            based           fixed bin(18,0)          level 2 dcl 398 set ref 1204* 1205 1210 1212 1214
                                                                                  1216 1239 1670 6167 6176 7051
current_character               001002 automatic       char(1)                  dcl 579 set ref 11133 11133 11202 11202 11211 11211
                                                                                  11253 11382 11419 11542* 11578* 11582 12109* 12111
                                                                                  12111 12111 12159* 12317 12409 12452 12452 12454
                                                                                  12454 12472 12479
current_loop_end                013745 automatic       fixed bin(18,0)          dcl 6593 set ref 6607* 6608 6609* 6663 6691 6692
                                                                                  6695 6695* 6698 6713 6728 6733
current_parameter               001003 automatic       fixed bin(18,0)          dcl 580 set ref 2487* 2497 2498* 2500
current_spec                    014126 automatic       fixed bin(18,0)          dcl 7237 set ref 7280* 7281 7285 7293 7294 7295
                                                                                  7300* 7305 7310* 7310 7323 7326* 7326 7343 7343
                                                                                  7346* 7360* 7360 7360 7368* 7369* 7369 7369 7378*
                                                                                  7379* 7379 7379 7397* 7397 7799 7815* 7815 7818*
current_token                   001004 automatic       fixed bin(18,0)          dcl 581 set ref 1437* 1492 1647* 1647 1675* 1675
                                                                                  2097 2268* 2268 2555* 2555 2620* 2620 2641 2649*
                                                                                  2649 2782 2788* 2788 2805 2904* 2936 3086* 3086
                                                                                  3100* 3100 3128* 3128 3168* 3168 3228* 3228 3233
                                                                                  3242 3247 3260* 3260 3332 3356* 3356 3407* 3407
                                                                                  3440* 3522 3524* 3597 3599* 3697 3725 3772 3773*
                                                                                  3900 3929* 3929 3952 4098* 4098 4102* 4102 4140*
                                                                                  4141* 4141 4209* 4210* 4210 4236* 4237* 4237 4251*
                                                                                  4251 4392 4462* 4462 4527 4560* 4560 4623 4703*
                                                                                  4703 7067 7112* 7112 7532 7541* 7541 8314 8316*
                                                                                  8316 8458 8459* 8459 8506 8552* 8552 8615 8618
                                                                                  8618 8724* 8724 9102 9110 9127 9132 9134 9149 9184
                                                                                  9195 9236 9238* 9238 9275 9276* 9302 9303* 9324
                                                                                  9325* 10477 10488 10524 10608 10639 10674 10754*
                                                                                  10756 10756 10758 10758 10761 10763 10981* 10987*
                                                                                  10999 11004 11004 11053* 12908* 12908 12911 12914
                                                                                  12915 12939 12940 12951* 12951 12952 12959* 12959
                                                                                  12960 12963 12980* 12980 12981 12984 12985 12995
                                                                                  12996 13011 13012 13184 13187 13188 13189
current_value                   014127 automatic       fixed bin(18,0)          dcl 7238 set ref 7451* 7471* 7472 7474 7509 7578
                                                                                  7580 7807* 7812 7812
cv_ptr                          014122 automatic       pointer                  dcl 7234 set ref 7553* 7689 7698 7714 7723 7732 7738
cx                              016746 automatic       fixed bin(18,0)          dcl 10659 set ref 10720* 10722 10722 10725 10727*
                                                                                  10727 10728 10730* 10736 10736 10741
d_count                         017511 automatic       fixed bin(18,0)          dcl 12343 set ref 12346* 12357* 12357 12365
darg_list_expr                         constant        bit(36)                  initial dcl 1071 ref 3327 10234 10280
data_error                      014130 automatic       bit(1)                   dcl 7239 set ref 7404* 7409* 7415* 7428* 7435* 7478*
                                                                                  7484* 7491* 7648 7754 7784 7843
data_size                       000122 automatic       fixed bin(17,0)          dcl 8-22 set ref 8-47* 8-49 8-87 8-87 8-89 8-89 8-91
                                                                                  8-93
data_type                 0(05)        based           fixed bin(4,0)           level 2 in structure "symbol" packed packed unsigned
                                                                                  unaligned dcl 5-844 in procedure "ext_parse" set
                                                                                  ref 4873* 4873 4950* 4950 5132* 5177 5195 5201
                                                                                  5639* 5695* 6105 6108* 6937* 7413
data_type                 2(04) 000251 constant        fixed bin(4,0)           initial array level 2 in structure "bif_table"
                                                                                  packed packed unaligned dcl 9873 in procedure
                                                                                  "builtin_lookup" ref 9965
data_type                 0(05)        based           fixed bin(4,0)           level 2 in structure "node" packed packed unsigned
                                                                                  unaligned dcl 5-63 in procedure "ext_parse" ref
                                                                                  8-65 9673 9673
data_type                 0(05)        based           fixed bin(4,0)           level 2 in structure "constant" packed packed
                                                                                  unsigned unaligned dcl 5-256 in procedure
                                                                                  "ext_parse" set ref 8-81* 6978 7552 9696 9766
                                                                                  10707 12737 12930
data_type                              parameter       fixed bin(4,0)           dcl 8-15 in procedure "create_constant" ref 8-13
                                                                                  8-40
data_type_size                  003035 constant        fixed bin(17,0)          initial array dcl 4-115 ref 8-43 8-47 6110 7635
date_time_modified       76            based           fixed bin(71,0)          level 2 dcl 14-6 ref 1185
debug_io                  1(05) 000132 automatic       bit(1)                   level 2 in structure "subr_options" packed packed
                                                                                  unaligned dcl 391 in procedure "ext_parse" set ref
                                                                                  3887 3983 4368 4504 4601 8446 8492
debug_io                  0(14) 013240 automatic       bit(1)                   level 3 in structure "io_bits" packed packed
                                                                                  unaligned dcl 885 in procedure "parse_source" set
                                                                                  ref 3887* 3983* 4368* 4504* 4601* 8446* 8492*
dec_exp                         020010 automatic       fixed dec(3,0)           dcl 12770 set ref 12827* 12830 12839 12840
dec_int                                constant        bit(9)                   initial dcl 4-156 ref 2140 2155 2176 3016 3024 3224
                                                                                  4100 4125 4731 7532 8319 8675 8735 8944 9407 10690
                                                                                  11164 11287 12448 12456 12983 13163
dec_value                       017764 automatic       fixed dec(11,0)          dcl 12694 set ref 12707 12713* 12714 12714 12716
                                                                                  12716 12728
decimal                                                builtin function         dcl 8-23 in procedure "create_constant" ref 8-45
                                                                                  8-45
decimal                                                builtin function         dcl 582 in procedure "parse_source" ref 6614 6614
                                                                                  10899 10899 12086 12086
declared_options       3150            based           structure                level 2 dcl 398 set ref 11945 11945 11948 11954*
                                                                                  11964 11964 11967 11973*
decode_statement                       constant        fixed bin(18,0)          initial dcl 583 ref 3979
decode_string_op                       constant        fixed bin(18,0)          initial dcl 4-197 set ref 8812*
default_char_size               001005 automatic       fixed bin(10,0)          dcl 584 set ref 1748 1760 1834 2242 5125 5127 8367
                                                                                  8382 8388 11978* 11980*
default_is                0(09)        based           structure                level 2 packed packed unaligned dcl 5-753 set ref
                                                                                  5004 5518 5759
default_main_entry_point_name   003054 constant        char(5)                  initial packed unaligned dcl 4-80 ref 1343
default_table                   001006 automatic       bit(47)                  array dcl 585 set ref 1259* 1260* 1263* 1264* 1267*
                                                                                  1268* 1892* 6155
default_unit_specifier          001156 automatic       fixed bin(18,0)          dcl 586 set ref 1098* 8746*
defer_field                            constant        fixed bin(17,0)          initial dcl 15-50 set ref 4443*
delimiter                              parameter       char(1)                  dcl 12549 ref 12535 12564 12605
depthx                          017274 automatic       fixed bin(17,0)          dcl 11717 set ref 11868* 11869*
desired_data_type               013232 automatic       fixed bin(4,0)           level 2 packed packed unaligned dcl 883 set ref
                                                                                  2503* 6998* 8355* 9699* 9769*
difference                      013322 automatic       fixed bin(24,0)          dcl 4817 set ref 5281* 5289* 5289* 5301 5315 5316*
                                                                                  5316 5328 5342 5343 5344* 5344 5347 5359 5371 5374
                                                                                  5376 5394
digit                           017462 automatic       fixed bin(18,0)          dcl 12255 set ref 12264* 12265 12267 12271
digit_count                            parameter       fixed bin(18,0)          dcl 12344 set ref 12326 12365*
digits                                 constant        fixed bin(18,0)          initial dcl 593 in procedure "parse_source" ref
                                                                                  11133 11150 11257 11430 12127 12270 12360 12492
digits                    0(09) 020022 automatic       char(30)                 level 2 in structure "ext_float_dec" packed packed
                                                                                  unaligned dcl 12785 in procedure
                                                                                  "convert_real_constant" set ref 12814 12815 12820*
                                                                                  12822* 12843
dim                                                    builtin function         dcl 592 in procedure "parse_source" ref 6619 8241
dim                       5            based           structure                array level 2 in structure "dimension" dcl 5-383
                                                                                  in procedure "ext_parse" set ref 9591*
dim_attr                        002726 constant        bit(47)                  initial dcl 588 set ref 9474*
dim_cnt                         013643 automatic       fixed bin(17,0)          dcl 6235 set ref 6315* 6317 6319 6322
dim_conflicts                   002724 constant        bit(47)                  initial dcl 590 set ref 9474*
dim_idx                         013644 automatic       fixed bin(17,0)          dcl 6235 set ref 6322* 6324 6326 6332 6332 6334*
dim_node                        016511 automatic       fixed bin(18,0)          dcl 9452 set ref 9581* 9582 9587
dim_size                        014000 automatic       fixed bin(18,0)          dcl 6793 in procedure "get_constant_offset" set ref
                                                                                  6883 6902 6916*
dim_size                        014131 automatic       fixed bin(18,0)          dcl 7240 in procedure "parse_data" set ref 7341*
                                                                                  7359
dim_size                        016512 automatic       fixed bin(24,0)          dcl 9453 in procedure "get_bounds" set ref 9541*
                                                                                  9542 9546* 9548 9549
dimension                              based           structure                level 1 dcl 5-383 in procedure "ext_parse" set ref
                                                                                  8162 8162 9581 9581
dimension                12(25)        based           fixed bin(18,0)          level 2 in structure "symbol" packed packed unsigned
                                                                                  unaligned dcl 5-844 in procedure "ext_parse" set
                                                                                  ref 2882* 3642 5012 5076 5105 5116* 5221 5642 5646
                                                                                  5665 5704 5747 5942 6120 6138 6314 6823 7312 7332
                                                                                  7648 7650 8170* 8833 9587* 10388
dimension_node                         constant        fixed bin(4,0)           initial dcl 4-87 set ref 8162* 9581*
dimension_ptr                   013646 automatic       pointer                  dcl 6235 set ref 6314* 6315 6317 6324 6326 6332 6334
dimensioned              10(35)        based           bit(1)                   level 4 packed packed unaligned dcl 5-844 set ref
                                                                                  2936 3556 3633 5005 5044 5215 5633 5704 5742 5747
                                                                                  5941 6048 6119 6817 7311 8157* 8832 10202 10218
                                                                                  10375
direct_access                          constant        bit(2)                   initial dcl 15-8 ref 8785 8817 8906
direct_field                           constant        fixed bin(17,0)          initial dcl 15-50 set ref 4679*
dirname                  12            based           varying char(168)        level 2 dcl 14-6 ref 1155 1157 1177
displacement                    013323 automatic       fixed bin(24,0)          dcl 4818 set ref 5267* 5272* 5272* 5289 5315* 5315
                                                                                  5347* 5347
divide                                                 builtin function         dcl 594 ref 1155 1157 1874 1874 5065 5555 5593 5646
                                                                                  5747 5752 5820 6116 7646 8109 8160 8225 9954 9958
                                                                                  11900 11918
dname                           017005 automatic       char(256)                packed unaligned dcl 10821 set ref 11879* 11888*
                                                                                  11893* 11900 11907 11909
do_blockif_stack                004422 automatic       structure                array level 1 dcl 836 set ref 3123 3123 4759 4759
do_idx                          014046 automatic       fixed bin(17,0)          dcl 6961 set ref 6982* 6982* 6984 6984
do_index                        001157 automatic       fixed bin(18,0)          dcl 595 set ref 1281* 1403 1406 1416* 1509* 1509
                                                                                  1509 1509* 1535 3104* 3104 3104* 3105* 3108 3112
                                                                                  3119 3119 3123 3134* 3134 3135 3136 3137 3138 3139
                                                                                  3173* 3173 3173* 3174* 3177 3182 3188 3188 3189
                                                                                  3199 3199 3200* 3200 4759 4763* 4763 4764 4765
                                                                                  6608
do_info                         001160 automatic       fixed bin(18,0)          array dcl 596 set ref 3529 3530 3534* 3545 6982 6984
                                                                                  7286 7287 7293* 7800
do_level                        001170 automatic       fixed bin(18,0)          dcl 597 set ref 3506* 3529 3534 3544 3603* 3603
                                                                                  3777* 3777 6982 6984 7276* 7286 7292* 7292 7293
                                                                                  7645 7800 7816* 7816
do_loop                   4     004422 automatic       bit(1)                   array level 2 dcl 836 set ref 1404 1408 1509 1536
                                                                                  3104 3135* 3173 4764* 6609
do_op                                  constant        fixed bin(18,0)          initial dcl 4-197 set ref 4757* 9301*
do_rounding               0(28) 000132 automatic       bit(1)                   level 2 packed packed unaligned dcl 391 set ref 2505
                                                                                  6999 8357 9704 9773
do_statement                           constant        fixed bin(18,0)          initial dcl 598 ref 6658 6707 6723 11370
double_const                           constant        bit(9)                   initial dcl 4-156 ref 12452 13080 13198
double_precision         10(22)        based           bit(1)                   level 5 packed packed unaligned dcl 5-844 set ref
                                                                                  5206 5657 5757 5964
dp                              014002 automatic       pointer                  dcl 6794 in procedure "get_constant_offset" set ref
                                                                                  6823* 6830 6914 6915 6916
dp                              014132 automatic       pointer                  dcl 7241 in procedure "parse_data" set ref 7332*
                                                                                  7336 7339 7340 7341
dp                              001172 automatic       pointer                  dcl 599 in procedure "parse_source" set ref 3631*
                                                                                  3642* 3643 3659 3663 5076* 5080 5081 5081 5086
                                                                                  5086 5086 5086 8833* 8837 8841 8842 8842 8847 8850
                                                                                  8851 8857 8860 8860 8860 8860 8863 8870 8871 8871
                                                                                  8871 8871 8878 8888
dp                              016514 automatic       pointer                  dcl 9454 in procedure "get_bounds" set ref 9582*
                                                                                  9583 9584 9591 9592 9595
dp_mode                         003273 constant        fixed bin(4,0)           initial dcl 4-106 set ref 7698 7723 7738 8391 8400
                                                                                  10731 12754 12757* 13085 13097*
dt                              013564 automatic       fixed bin(18,0)          dcl 6095 set ref 6108* 6110 6110 6122
dtm                       2            based           fixed bin(71,0)          level 2 in structure "source" packed packed
                                                                                  unaligned dcl 5-693 in procedure "ext_parse" set
                                                                                  ref 1185* 11913*
dtm                             017106 automatic       fixed bin(71,0)          dcl 10822 in procedure "statement_lex" set ref
                                                                                  11879* 11896* 11913
dummy_arg                 0(31)        based           bit(1)                   level 3 packed packed unaligned dcl 5-844 set ref
                                                                                  2839* 5023
el_ct                           014134 automatic       fixed bin(18,0)          dcl 7242 set ref 7560* 7590* 7595* 7600* 7604* 7630*
                                                                                  7645 7742* 7746 7748 7749
ele_cnt                         016516 automatic       fixed bin(48,0)          dcl 9455 set ref 9468* 9548* 9548 9550 9550* 9595
                                                                                  9595
element_count             2            based           fixed bin(24,0)          level 2 dcl 5-383 set ref 6120 7312 7648 7650 8169*
                                                                                  8888 9595*
element_size             15(07)        based           fixed bin(17,0)          level 2 packed packed unaligned dcl 5-844 set ref
                                                                                  4874* 4874 4951* 4951 5065* 5133* 5223 5641* 5700*
                                                                                  5923 5948 6110* 6113* 6116* 6938* 8831
element_type                    016446 automatic       bit(36)                  dcl 9229 set ref 9245* 9249* 9313*
else_if_op                             constant        fixed bin(18,0)          initial dcl 4-197 set ref 3118*
else_op                                constant        fixed bin(18,0)          initial dcl 4-197 set ref 3187*
else_seen                 5     004422 automatic       bit(1)                   array level 2 dcl 836 set ref 3112 3139* 3182 3189*
else_statement                         constant        fixed bin(18,0)          initial dcl 603 ref 3181
elseif_statement                       constant        fixed bin(18,0)          initial dcl 602 ref 3016 3060 3099
embedded                        017552 automatic       bit(1)                   dcl 12548 set ref 12560* 12614* 12629
ename                           017110 automatic       char(256)                packed unaligned dcl 10823 set ref 11879* 11889*
                                                                                  11892* 11893 11900 11907 11909
encode_string_op                       constant        fixed bin(18,0)          initial dcl 4-197 set ref 8814*
encoded_format                         based           structure                level 1 dcl 8084
end_char                        001177 automatic       fixed bin(18,0)          dcl 604 set ref 1853* 1865* 1869 1874 1884 1887 1891
end_label                 0(01) 013240 automatic       bit(1)                   level 3 packed packed unaligned dcl 885 set ref 8574
                                                                                  8577 8580 8663 8665*
end_label_op                           constant        fixed bin(18,0)          initial dcl 4-197 ref 8667
end_line                               constant        fixed bin(18,0)          initial dcl 605 ref 1350 10915 11554
end_of_format                          constant        fixed bin(17,0)          initial dcl 13-78 ref 8118
end_of_line                     001200 automatic       fixed bin(18,0)          dcl 606 set ref 11064* 11124 11128 11227 11502 11535
                                                                                  11541 11542 11571 11578 11625 11630 11791* 11802
                                                                                  11804 11807 11807 11814 11819 11821 11826 11828
                                                                                  11831 11831 11835 11862 11931 11941 11990 11993
                                                                                  11995 11999* 12002 12002 12002 12002 12007 12010
                                                                                  12010 12012 12012 12012 12017 12029 12030 12039
                                                                                  12040 12044 12062 12064 12067 12067 12074 12074
                                                                                  12082 12100 12102 12102 12104 12109 12116 12127
                                                                                  12127 12132 12143 12159 12215 12218 12225 12227
                                                                                  12231 12232 12239 12241 12264 12350 12354 12390
                                                                                  12394 12564 12582 12605
end_of_polish             0(30) 013232 automatic       fixed bin(18,0)          level 2 packed packed unaligned dcl 883 set ref
                                                                                  2504* 7001* 8356* 9703* 9772*
end_possible                    001201 automatic       bit(1)                   dcl 607 set ref 10923* 11448* 11498* 11550 12018*
                                                                                  12046* 12117* 12133*
end_text                        017210 automatic       fixed bin(20,0)          dcl 10824 set ref 10909* 10975 10975 11441* 11739*
end_zero                        017211 automatic       fixed bin(18,0)          dcl 10825 set ref 10887* 11328 11328 11328 11363*
                                                                                  11363
endfile_op                             constant        fixed bin(18,0)          initial dcl 4-197 ref 3865
endfile_opr                            constant        fixed bin(4,0)           initial dcl 15-19 ref 3867
ends_do_loop              0(35)        based           bit(1)                   level 3 packed packed unaligned dcl 5-530 set ref
                                                                                  6658* 6689 6709 6726 6727* 6733
endunit_op                             constant        fixed bin(18,0)          initial dcl 4-197 set ref 1558*
entry_point              10(30)        based           bit(1)                   level 4 packed packed unaligned dcl 5-844 set ref
                                                                                  4943 5161 10356
entry_point_conflicts           002722 constant        bit(47)                  initial dcl 608 ref 1798
entry_point_name                       parameter       fixed bin(18,0)          dcl 7045 ref 7031 7049
entry_stmnt               1     003613 automatic       bit                      array level 2 dcl 754 set ref 6188* 6191* 6192 6193
                                                                                  6194 6195 6279 6389 6400 7169*
entry_symbol                    013650 automatic       fixed bin(18,0)          dcl 6235 in procedure "process_pending_entries" set
                                                                                  ref 6261* 6285* 6299
entry_symbol                    003613 automatic       fixed bin(18,0)          array level 2 in structure "pending_entry" dcl 754
                                                                                  in procedure "parse_source" set ref 6187* 6261
                                                                                  7168*
entry_symbol_ptr                013652 automatic       pointer                  dcl 6235 set ref 6299* 6300 6303
entry_value                     002720 constant        bit(47)                  initial dcl 610 ref 10404
entry_value_conflicts           002716 constant        bit(47)                  initial dcl 612 ref 10404
eol_op                                 constant        fixed bin(18,0)          initial dcl 4-197 set ref 1542* 3195* 3374* 3387*
                                                                                  4254* 4464* 4562* 4705* 6381* 9422* 10598*
ep_name                         014074 automatic       fixed bin(18,0)          dcl 7046 set ref 7049* 7051* 7051 7054* 7161 7168
                                                                                  7181 7189
equiv_chain               2(18)        based           fixed bin(18,0)          level 2 packed packed unsigned unaligned dcl 5-753
                                                                                  set ref 5443 5443* 5446 5515 5587 5598* 5617 5815
                                                                                  5825* 5887 5957 5958*
equiv_conflicts                 002714 constant        bit(47)                  initial dcl 615 set ref 5916 7406*
equiv_error                     013324 automatic       bit(1)                   dcl 4819 set ref 5265* 5266 5279* 5280 5284 5971*
equiv_hdri                      013325 automatic       fixed bin(18,0)          dcl 4820 set ref 5515* 5515* 5517* 5587* 5588 5589
                                                                                  5603 5617* 5619* 5815* 5816 5817 5858 5858 5866
                                                                                  5868 5887* 5889*
equiv_hdrp                      013326 automatic       pointer                  dcl 4821 set ref 5517* 5518 5518 5521 5530 5532 5537
                                                                                  5537 5537 5537 5540 5589* 5590 5590 5590 5593 5593
                                                                                  5593 5598 5600 5602 5604 5605 5611 5615 5817* 5818
                                                                                  5818 5820 5820 5820 5823 5825 5827 5835 5837 5841
                                                                                  5843 5846 5848 5857 5870 5871 5872 5873 5874 5881
                                                                                  5885
equivalence_statement                  constant        fixed bin(18,0)          initial dcl 614 ref 6813
equivalenced             11(03)        based           bit(1)                   level 4 packed packed unaligned dcl 5-844 set ref
                                                                                  2114* 5001 5023 5044 5932 5968* 6549 7438 7788
                                                                                  10647
err_code                               parameter       fixed bin(35,0)          dcl 9649 in procedure "get_one_bound" set ref 9631
                                                                                  9668* 9669 9673* 9677* 9683 9706* 9709
err_code                               parameter       fixed bin(35,0)          dcl 9727 in procedure "get_integer_constant" set ref
                                                                                  9721 9738* 9758* 9775* 9778 9784* 9792*
error                           000100 stack reference condition                dcl 7876 in procedure "value" ref 7888
error                           001202 automatic       bit(1)                   packed unaligned dcl 617 in procedure "parse_source"
                                                                                  set ref 3622* 3635* 3639* 3651* 3661* 3665* 3675*
                                                                                  3686* 3693* 3708* 3717* 3721* 3735* 3745* 3749*
                                                                                  3756
error_code                      001203 automatic       fixed bin(35,0)          dcl 618 in procedure "parse_source" set ref 2507*
                                                                                  2510 8359* 8363
error_code                      016520 automatic       fixed bin(35,0)          dcl 9456 in procedure "get_bounds" set ref 9492*
                                                                                  9494 9520* 9521
error_code                      014004 automatic       fixed bin(35,0)          dcl 6795 in procedure "get_constant_offset" set ref
                                                                                  6850* 6851
error_label                     013240 automatic       bit(1)                   level 3 packed packed unaligned dcl 885 set ref 8654
                                                                                  8656*
error_label_op                         constant        fixed bin(18,0)          initial dcl 4-197 ref 8658
error_message             1            based           char(128)                level 2 dcl 13-71 set ref 8096*
error_table_$no_s_permission    000046 external static fixed bin(35,0)          dcl 10864 ref 11882
error_table_$noentry            000044 external static fixed bin(35,0)          dcl 10863 ref 11842
even                      0(30)        based           bit(1)                   level 4 packed packed unaligned dcl 5-436 set ref
                                                                                  5657* 5796* 5823 5835 5964* 6218*
executable_label                003027 constant        bit(2)                   initial dcl 619 set ref 1367 1374 1397 1426 2908
                                                                                  3026* 3026* 3226* 3226* 4734* 6272* 6657 6689 6705
                                                                                  8678* 9410* 13046*
exist_field                            constant        fixed bin(17,0)          initial dcl 15-50 set ref 4652*
exit_lbl                        016340 automatic       fixed bin(18,0)          dcl 8651 set ref 8678* 8679 8681*
exit_op                                constant        fixed bin(18,0)          initial dcl 4-197 set ref 1503* 1513* 1537* 2880*
                                                                                  3271* 3390* 9327*
exp                             020011 automatic       fixed bin(18,0)          dcl 12772 in procedure "convert_real_constant" set
                                                                                  ref 12811* 12826 12828 12829* 12829 12833 12839
                                                                                  12840* 12843* 12843 12848 12850 12853
exp                             017212 automatic       fixed bin(18,0)          dcl 10826 in procedure "statement_lex" set ref
                                                                                  12446* 12470* 12477* 12477 12484* 12520 12530*
exp_idx                         000122 automatic       fixed bin(18,0)          dcl 7880 set ref 7892* 7893*
expnt                     7(27) 020022 automatic       fixed bin(8,0)           level 2 packed packed unaligned dcl 12785 set ref
                                                                                  12853* 12857 12857 12859 12859 12868 12868 12870
                                                                                  12870
expon                                  constant        bit(9)                   initial dcl 4-156 ref 11318 11421
expon_op                               constant        fixed bin(18,0)          initial dcl 10048 ref 10554 10554
exponent                  0(18) 011016 automatic       fixed bin(8,0)           array level 2 packed packed unaligned dcl 853 set
                                                                                  ref 12520* 12811
expr                            016671 automatic       bit(36)                  dcl 10047 set ref 10093* 10125 10133 10156 10162
                                                                                  10170 10173 10181 10185 10185 10202 10220 10229
                                                                                  10231 10244 10246 10255 10258 10275 10277 10293
                                                                                  10307* 10382 10384 10384 10388 10396 10402 10441
                                                                                  10496 10508 10510 10510 10522 10558 10571 10580
                                                                                  10584 10584 10593* 10623* 10628 10646 10647
expression                             based           structure                level 1 dcl 1034
expression_idx                         parameter       fixed bin(18,0)          dcl 7874 ref 7863 7884 7892 7892 7892
expression_size                 013654 automatic       fixed bin(17,0)          dcl 6235 in procedure "process_pending_entries" set
                                                                                  ref 6344* 6346 6350
expression_size                 013536 automatic       fixed bin(17,0)          dcl 6015 in procedure "validate_array_bound" set ref
                                                                                  6026* 6027
expression_start                013655 automatic       fixed bin(18,0)          dcl 6235 in procedure "process_pending_entries" set
                                                                                  ref 6343* 6344 6350 6350
expression_start                013537 automatic       fixed bin(18,0)          dcl 6015 in procedure "validate_array_bound" set ref
                                                                                  6025* 6026 6027 6027
expression_type                        parameter       bit(36)                  dcl 9346 set ref 9342 9366*
ext_attributes                  002712 constant        bit(47)                  initial dcl 620 in procedure "parse_source" set ref
                                                                                  2320*
ext_attributes            4            based           structure                level 2 in structure "symbol" packed packed
                                                                                  unaligned dcl 5-844 in procedure "ext_parse"
ext_conflicts                   002710 constant        bit(47)                  initial dcl 622 set ref 2320*
ext_float_dec                   020022 automatic       structure                level 1 dcl 12785 set ref 12813 12845 12857 12859
                                                                                  12862 12862 12868 12870 12873 12873
external                 10(31)        based           bit(1)                   level 4 in structure "symbol" packed packed
                                                                                  unaligned dcl 5-844 in procedure "ext_parse" set
                                                                                  ref 5058 9934 9982* 10227 10393 10399
external                  2     000251 constant        bit(1)                   initial array level 2 in structure "bif_table"
                                                                                  packed packed unaligned dcl 9873 in procedure
                                                                                  "builtin_lookup" ref 9982
extra_blanks                    017213 automatic       fixed bin(18,0)          dcl 10827 set ref 11063* 11496 12017* 12044* 12584
fast_bits                       016262 automatic       bit(36)                  dcl 8209 set ref 8234* 8238* 8238 8241
fast_lookup                            defined         char(24)                 packed unaligned dcl 624 set ref 1823 1823 1823*
                                                                                  1827 4135 4208 4234 7972 8631 8634 11004* 11010
                                                                                  11014 11022 11027 11039 12421* 12423
field_no                               parameter       fixed bin(17,0)          dcl 9345 ref 9342 9354
field_number                    016462 automatic       fixed bin(18,0)          dcl 9347 set ref 9354* 9356 9359 9368
fields_specified                001204 automatic       bit(72)                  dcl 625 set ref 3881* 3927 3985* 4370* 4460 4470*
                                                                                  4506* 4558 4568* 4603* 4698 4698 4700 4700 4710*
                                                                                  8441* 8487* 8549* 8571 8574 8583 8726 8729* 8778
                                                                                  8782* 8940 8942* 9356 9359*
file                      2            based           fixed bin(8,0)           level 3 packed packed unsigned unaligned dcl 5-721
                                                                                  set ref 1151* 11777* 11865 11921*
file_list               117            based           structure                array level 3 dcl 398
file_number                     001206 automatic       fixed bin(8,0)           initial dcl 626 in procedure "parse_source" set ref
                                                                                  626* 11776* 11777 11794 11920* 11921 12145
file_number                            based           fixed bin(8,0)           array level 2 in structure "source_list" packed
                                                                                  packed unaligned dcl 6-31 in procedure "ext_parse"
                                                                                  set ref 11794*
file_number_pic                 001207 automatic       picture(4)               packed unaligned dcl 627 set ref 12145* 12146*
file_stack                      012002 automatic       structure                array level 1 dcl 859 set ref 11854 11868
file_stack_depth                001210 automatic       fixed bin(17,0)          dcl 628 set ref 1114* 11764 11770* 11770 11771 11772
                                                                                  11773 11774 11775 11776 11854 11860 11861 11862
                                                                                  11863 11864 11865 11868 11876* 11876
file_string_index               017275 automatic       fixed bin(17,0)          dcl 11718 set ref 11819* 11820
file_string_length              017276 automatic       fixed bin(17,0)          dcl 11719 set ref 11826* 11828 11828* 11830 11831
                                                                                  11831 11835
filename_field                         constant        fixed bin(17,0)          initial dcl 15-50 set ref 4419* 4634* 4698 4700
final_expression_idx            014135 automatic       fixed bin(18,0)          dcl 7243 set ref 7298* 7299 7299 7802* 7803 7803
                                                                                  7811*
final_value                     014136 automatic       fixed bin(18,0)          dcl 7244 set ref 7811* 7812 7812
find_include_file_$initiate_count
                                000034 constant        entry                    external dcl 10858 ref 11837
first_constant          100            based           fixed bin(18,0)          array level 3 dcl 398 set ref 8-89 8-89*
first_cref                4            based           fixed bin(18,0)          level 2 unsigned dcl 6-12 set ref 1241*
first_element             3(18)        based           fixed bin(18,0)          level 2 packed packed unsigned unaligned dcl 5-436
                                                                                  set ref 2035* 5177 5186 5189 5357 5404 5425 5430
                                                                                  5494 5521 5537 5537 5567 5605 5667* 5687 5702
                                                                                  5800* 5841 5848 5874 5959*
first_entry_name         75            based           fixed bin(18,0)          level 2 dcl 398 set ref 4976 4976* 13226
first_keyword             0(18) 000000 constant        fixed bin(18,0)          initial array level 2 packed packed unsigned
                                                                                  unaligned dcl 892 ref 1354 1354 2914
first_label               4            based           fixed bin(18,0)          level 2 packed packed unsigned unaligned dcl 5-753
                                                                                  set ref 4882 6770*
first_line                2            based           fixed bin(18,0)          level 2 unsigned dcl 6-12 set ref 1242*
first_mode_keyword                     constant        fixed bin(18,0)          initial dcl 629 ref 1293 1302 1326 1827 1833 1834
                                                                                  2233
first_polish              5            based           fixed bin(18,0)          level 2 packed packed unsigned unaligned dcl 5-753
                                                                                  set ref 1221*
first_segment            51            based           fixed bin(17,0)          level 2 dcl 398 set ref 1104* 1169*
first_subprogram         72            based           fixed bin(18,0)          level 2 dcl 398 set ref 1212* 6167
first_sym                       016350 automatic       fixed bin(18,0)          dcl 8689 in procedure "parse_iostat_var" set ref
                                                                                  8699* 8700*
first_sym                       016463 automatic       fixed bin(18,0)          dcl 9348 in procedure "parse_open_field" set ref
                                                                                  9365* 9366*
first_symbol              3            based           fixed bin(18,0)          level 2 packed packed unsigned unaligned dcl 5-753
                                                                                  set ref 4925 4927* 5148* 5630 5740 8272* 9828*
first_time                      001211 automatic       bit(1)                   dcl 630 set ref 2559* 2563 2565*
first_token                     001212 automatic       fixed bin(18,0)          dcl 631 set ref 1293 1293 1297 1297 1303 1309 1309
                                                                                  1309 1309 1309 1309 1328 1330 1330 1331 1331 1332
                                                                                  1332 1333 1333 1334 1334 1437 2904 10874* 10879
                                                                                  10970 11180 13148 13148* 13148 13170 13170* 13170
first_word                      001213 automatic       fixed bin(18,0)          dcl 632 set ref 2241* 2284 2284 2284 3497* 3804 3804
                                                                                  3804 8039 8042* 8149* 8188 8188 8188
fixed                                                  builtin function         dcl 633 ref 6349 6349 6716 6716 7986 10903 10904
fixedoverflow                   000106 stack reference condition                dcl 7876 ref 7889
fmt                             016320 automatic       fixed bin(18,0)          dcl 8484 in procedure "parse_io" set ref 8520* 8521*
                                                                                  8553* 8554*
fmt                                    parameter       fixed bin(18,0)          dcl 8926 in procedure "get_format" ref 8914 8955
                                                                                  9017 9024
fmt                       1            based           fixed bin(17,0)          array level 2 in structure "old_format" packed
                                                                                  packed unaligned dcl 13-49 in procedure
                                                                                  "parse_source" set ref 8109 8118 8122 8132 8134*
                                                                                  8141
fmt                             016330 automatic       fixed bin(18,0)          dcl 8610 in procedure "parse_io_options" set ref
                                                                                  8623* 8624*
fmt_field                              constant        fixed bin(17,0)          initial dcl 15-50 ref 8549 8583 8940 8942
fmt_len                   0(24)        based           fixed bin(12,0)          level 3 in structure "encoded_format" packed packed
                                                                                  unsigned unaligned dcl 8084 in procedure
                                                                                  "create_format" ref 8105
fmt_len                   0(24)        based           fixed bin(12,0)          level 3 in structure "old_format" packed packed
                                                                                  unsigned unaligned dcl 13-49 in procedure
                                                                                  "parse_source" set ref 8143*
fmt_length                      014244 automatic       fixed bin(18,0)          dcl 8073 set ref 8105* 8109 8125 8132 8134 8137*
                                                                                  8137 8143 8155 8160 8172 8172 8183 8184 8184 8184
                                                                                  8184
fmt_parse_ver1                         constant        bit(6)                   initial dcl 13-97 ref 8115
fmt_ptr                         014246 automatic       pointer                  dcl 8074 set ref 8152* 8153 8157 8158 8170 8183
fmt_str                                parameter       char                     packed unaligned dcl 8075 ref 8058 8086 8092 8109
fmt_word                               based           char(4)                  array packed unaligned dcl 8076 set ref 8179* 8179*
fold                      0(20) 013240 automatic       bit(1)                   level 3 in structure "io_bits" packed packed
                                                                                  unaligned dcl 885 in procedure "parse_source" set
                                                                                  ref 3884* 3980* 4365* 4501* 4598* 8443* 8489*
fold                      0(04) 000132 automatic       bit(1)                   level 3 in structure "subr_options" packed packed
                                                                                  unaligned dcl 391 in procedure "ext_parse" set ref
                                                                                  3884 3980 4365 4501 4598 8443 8489 11977
fold_option                     001214 automatic       bit(1)                   dcl 634 set ref 11120 11158 11263 11977*
following_token                 001340 constant        bit(9)                   initial array dcl 10660 ref 10687
force_symtab_entry                     constant        fixed bin(2,0)           initial dcl 635 set ref 1642* 1705* 1754* 1918*
                                                                                  1950* 1973* 1979* 2064* 2106* 2249* 2301* 2362*
                                                                                  2398* 2427* 2457* 2479* 2493* 2563* 2666* 2737*
                                                                                  2778* 2816* 2819* 2859* 2931* 2938* 2939* 2944*
                                                                                  2949* 2952* 2961* 3006* 3221* 3267* 3268* 3295*
                                                                                  3337* 3516* 3540* 3832* 3890* 3990* 4048* 4142*
                                                                                  4194* 4211* 4241* 4272* 4291* 4296* 4315* 4321*
                                                                                  4326* 4735* 4737* 4744* 4749* 4752* 6838* 6935
                                                                                  6970* 7078* 8264 8332* 8452* 8520* 8525* 8540*
                                                                                  8553* 8623* 8699* 8731* 8737* 9271* 9278* 9285*
                                                                                  9290* 9293* 9365* 9487* 9515* 10148* 10316* 10330*
                                                                                  10530* 10530* 10567* 13000*
form_field                             constant        fixed bin(17,0)          initial dcl 15-50 set ref 4428* 4643*
formal_parameter                       parameter       fixed bin(18,0)          dcl 7179 set ref 7176 7181 7181 7181 7181 7185* 7188
                                                                                  7189
format                    0(03) 013240 automatic       bit(2)                   level 3 packed packed unaligned dcl 885 set ref 4005
                                                                                  8548* 8583* 8587 8589 8612* 8618* 8990* 9031*
                                                                                  9047* 9255
format_desc_bits          0(18)        based           structure                level 3 in structure "runtime_format" packed packed
                                                                                  unaligned dcl 13-32 in procedure "parse_source"
format_desc_bits          0(18)        based           structure                level 3 in structure "encoded_format" packed packed
                                                                                  unaligned dcl 8084 in procedure "create_format"
format_error                           based           structure                level 1 dcl 13-71
format_label                           constant        bit(2)                   initial dcl 636 set ref 4891 6649 6739 8946*
format_label_attributes         002706 constant        bit(47)                  initial dcl 637 set ref 6653* 6743* 9023*
format_op                              constant        fixed bin(18,0)          initial dcl 4-197 set ref 9046*
format_reference                       constant        bit(36)                  initial dcl 1071 set ref 9000* 9018*
format_string             1(18)        based           char                     level 2 in structure "format_structure" packed
                                                                                  packed unaligned dcl 871 in procedure
                                                                                  "parse_source" set ref 3439*
format_string                          based           char                     packed unaligned dcl 8077 in procedure
                                                                                  "create_format" set ref 8184* 8184*
format_structure                       based           structure                level 1 dcl 871
format_var                4            based           fixed bin(18,0)          level 2 packed packed unsigned unaligned dcl 5-530
                                                                                  set ref 4892 6654* 6740 6744*
formatted                              constant        bit(2)                   initial dcl 15-8 ref 9047
formatted_field                        constant        fixed bin(17,0)          initial dcl 15-50 set ref 4670*
fort_defaults_$check_global_args
                                000020 constant        entry                    external dcl 640 ref 11945 11964
fort_defaults_$global           000016 constant        entry                    external dcl 639 ref 12175
fort_defaults_$init_shared_vars 000022 constant        entry                    external dcl 641 ref 11955 11974
fort_defaults_$option           000024 constant        entry                    external dcl 642 ref 12195
fort_defaults_$set              000026 constant        entry                    external dcl 643 ref 11950 11969
fort_eval_parm                  000030 constant        entry                    external dcl 645 ref 2507 7004 8359 9706 9775
fortran_declared                       based           structure                level 1 dcl 3-91
fortran_options                        based           structure                level 1 dcl 3-40
free_chain                      001215 automatic       fixed bin(18,0)          dcl 646 set ref 1112* 7762 7764* 7771 7773* 8030
                                                                                  8031 8032*
from_data_parser                001216 automatic       bit(1)                   dcl 647 set ref 1110* 7273* 7833* 13078
from_encode_decode                     parameter       bit(1)                   dcl 8792 ref 8789 8809
fs_end_of_line            4     012002 automatic       fixed bin(21,0)          array level 2 dcl 859 set ref 11773 11862*
fs_file_number            7     012002 automatic       fixed bin(8,0)           array level 2 dcl 859 set ref 11776 11865*
fs_line_number            6     012002 automatic       fixed bin(18,0)          array level 2 dcl 859 set ref 11775 11864*
fs_seg_ptr                      012002 automatic       pointer                  array level 2 dcl 859 set ref 11771 11860*
fs_source_length          5     012002 automatic       fixed bin(21,0)          array level 2 dcl 859 set ref 11774 11863*
fs_source_ptr             2     012002 automatic       pointer                  array level 2 dcl 859 set ref 11772 11861* 11869
ft_double_dtype                        constant        fixed bin(17,0)          initial dcl 7-96 ref 12873
ft_hex_double_dtype                    constant        fixed bin(17,0)          initial dcl 7-96 ref 12862
full_name                       001217 automatic       char(256)                packed unaligned dcl 648 set ref 1771 1771 1823 1823
                                                                                  1823 1823 1823 1823 1827 1827 1853 1865 1965 2330
                                                                                  2674 2820 2820 3060 3094 3903 3905 3907 4135 4135
                                                                                  4208 4208 4234 4234 4404 4407 4410 4413 4416 4419
                                                                                  4422 4425 4428 4431 4434 4437 4440 4443 4446 4449
                                                                                  4538 4541 4544 4547 4628 4631 4634 4637 4640 4643
                                                                                  4646 4649 4652 4655 4658 4661 4664 4667 4670 4673
                                                                                  4676 4679 7972 7972 7980 7982 7982 8219 8230 8230
                                                                                  8234 8238 8251 8269 8510 8512 8514 8516 8518 8523
                                                                                  8631 8631 8634 8634 9356 9356 10698* 11004* 11004
                                                                                  11010 11010 11014 11014 11022 11022 11027 11027
                                                                                  11039 11039 12421 12421 12423 12423 12917* 12998*
                                                                                  13002 13002
func_conflicts                  002704 constant        bit(47)                  initial dcl 649 ref 10266
func_op                                constant        fixed bin(18,0)          initial dcl 4-197 ref 1796 4054 4862 4947 6486 7122
func_ref_attribute              002702 constant        bit(47)                  initial dcl 651 ref 10267
func_ref_op                            constant        fixed bin(18,0)          initial dcl 4-197 ref 10239 10285
function                               constant        fixed bin(9,0)           initial dcl 4-68 in procedure "ext_parse" ref 1791
                                                                                  5122
function                 10(28)        based           bit(1)                   level 4 in structure "symbol" packed packed
                                                                                  unaligned dcl 5-844 in procedure "ext_parse" set
                                                                                  ref 4964 4993 5061 5122 10227 10356
function_attribute              002700 constant        bit(47)                  initial dcl 653 ref 1797
function_statement                     constant        fixed bin(18,0)          initial dcl 655 ref 1302 1326 1742 1746 1748 1760
                                                                                  7117
gap_value                              constant        fixed bin(17,0)          initial dcl 4-57 set ref 7451 7472 7578 7630* 7846
general                   6(18)        based           fixed bin(18,0)          level 2 packed packed unsigned unaligned dcl 5-844
                                                                                  set ref 2835* 2878 4960 5158* 5161* 6300 6303
                                                                                  7161* 7181 7189*
general_format_parse_           000032 constant        entry                    external dcl 656 ref 8094
get_next_source_seg       6            based           entry variable           level 2 dcl 395 ref 1595
group_align                     013330 automatic       bit(2)                   dcl 4822 set ref 5393* 5394 5394* 5394 5396* 5396
                                                                                  5397 5460
group_class                     013331 automatic       bit(4)                   dcl 4823 set ref 5293* 5294 5404 5407 5433 5461
group_length                    013332 automatic       fixed bin(24,0)          dcl 4824 set ref 5820* 5823 5823 5837 5847 5873
has_dim_sizes             0(25)        based           bit(1)                   level 2 packed packed unaligned dcl 5-383 set ref
                                                                                  8167*
has_line_numbers        113(03)        based           bit(1)                   level 5 packed packed unaligned dcl 398 set ref 1124
has_parameters            0(15)        based           bit(1)                   level 2 packed packed unaligned dcl 5-753 set ref
                                                                                  7071*
hash_chain                3(18)        based           fixed bin(18,0)          level 2 in structure "node" packed packed unsigned
                                                                                  unaligned dcl 5-63 in procedure "ext_parse" set
                                                                                  ref 8-69 8-78*
hash_chain                3(18)        based           fixed bin(18,0)          level 2 in structure "label" packed packed unsigned
                                                                                  unaligned dcl 5-530 in procedure "ext_parse" set
                                                                                  ref 6631 6643*
hash_chain                3(18)        based           fixed bin(18,0)          level 2 in structure "symbol" packed packed unsigned
                                                                                  unaligned dcl 5-844 in procedure "ext_parse" set
                                                                                  ref 2822* 2824* 2872* 2872 2874 8258 8280*
hash_index                      000123 automatic       fixed bin(17,0)          dcl 8-24 set ref 8-57* 8-61 8-76 8-76
hash_table                             based           fixed bin(35,0)          array dcl 8-25 in procedure "create_constant" set
                                                                                  ref 8-61 8-76 8-76*
hash_table                      001317 automatic       fixed bin(18,0)          array dcl 657 in procedure "parse_source" set ref
                                                                                  1248* 2824 2826* 2872 2874* 8241 8244 8278 8278*
hash_table_size                 076435 constant        fixed bin(17,0)          initial dcl 8-26 ref 8-57
have_auto_option                001642 automatic       bit(1)                   dcl 658 set ref 1563 11070* 12195*
have_auto_stmnt                 001643 automatic       bit(1)                   dcl 659 set ref 1253* 1562 2633 2731*
have_constant_subscripts        014137 automatic       bit(1)                   dcl 7245 set ref 7319* 7327* 7330* 7343* 7393* 7645
have_operand                    016672 automatic       bit(1)                   dcl 10049 set ref 10099* 10105 10334* 10445* 10478*
                                                                                  10494* 10578* 10625 10626*
have_save_stmnt                 001644 automatic       bit(1)                   dcl 660 set ref 1254* 1562 2642 2647* 2660* 2725
have_static_option              001645 automatic       bit(1)                   dcl 661 set ref 1563 1563 11070* 12195*
have_subscript                  001646 automatic       bit(1)                   packed unaligned dcl 662 set ref 3646* 3647 3668*
hbound                                                 builtin function         dcl 663 in procedure "parse_source" ref 2824 2872
                                                                                  3123 3123 3529 3530 4759 4759 6641 7166 7171 7171
                                                                                  7286 7287 8278 9138 9140 9482 9806 9806 9945 10957
                                                                                  10958 11109 11281 11282 11854 12265 12318 12423
                                                                                  12426 12509 12511 12511
hbound                                                 builtin function         dcl 8-27 in procedure "create_constant" ref 8-43
hcs_$terminate_noname           000036 constant        entry                    external dcl 10859 ref 11849 11855 11870
hdr                                    parameter       fixed bin(18,0)          dcl 5901 set ref 5898 5933* 5934 5952* 5953 5958
                                                                                  5967
hdr_ptr                                parameter       pointer                  dcl 5902 set ref 5898 5934* 5937 5953* 5955 5956
                                                                                  5957 5959 5959 5960 5961 5964
header                                 based           structure                level 1 dcl 5-436 set ref 5455 5652 5652 5788 5788
                                                                                  5858 5952 5952 6214 6214
header_node                     003265 constant        fixed bin(4,0)           initial dcl 4-87 set ref 5652* 5788* 5952* 6214*
header_ptr                      013620 automatic       pointer                  dcl 6211 set ref 6215* 6217 6218 6219 6220
header_storage                         defined         bit(5)                   packed unaligned dcl 6534 in procedure
                                                                                  "declare_symbol" set ref 6549* 6549
header_storage                         defined         bit(5)                   packed unaligned dcl 10050 in procedure
                                                                                  "parse_expression" set ref 10647* 10647
header_storage                         defined         bit(5)                   packed unaligned dcl 6043 in procedure "validate"
                                                                                  set ref 6056* 6056
header_word                            based           structure                level 2 in structure "runtime_format" packed packed
                                                                                  unaligned dcl 13-32 in procedure "parse_source"
header_word                            based           structure                level 2 in structure "old_format" packed packed
                                                                                  unaligned dcl 13-49 in procedure "parse_source"
header_word                            based           structure                level 2 in structure "encoded_format" packed packed
                                                                                  unaligned dcl 8084 in procedure "create_format"
hfp                       1(04) 000132 automatic       bit(1)                   level 2 in structure "subr_options" packed packed
                                                                                  unaligned dcl 391 in procedure "ext_parse" set ref
                                                                                  3886 3982 4367 4503 4600 8445 8491
hfp                     114(04)        based           bit(1)                   level 4 in structure "shared_structure" packed
                                                                                  packed unaligned dcl 398 in procedure "ext_parse"
                                                                                  set ref 12856
hfp                       0(22) 013240 automatic       bit(1)                   level 3 in structure "io_bits" packed packed
                                                                                  unaligned dcl 885 in procedure "parse_source" set
                                                                                  ref 3886* 3982* 4367* 4503* 4600* 8445* 8491*
hollerith_field                        constant        fixed bin(17,0)          initial dcl 13-78 ref 8121
i                               014250 automatic       fixed bin(18,0)          dcl 8078 in procedure "create_format" set ref 8117*
                                                                                  8118 8122 8132 8134 8140* 8140 8141 8160* 8165
                                                                                  8166 8169 8172 8172 8172 8172 8178
i                               014217 automatic       fixed bin(17,0)          dcl 7947 in procedure "parse_a_constant" set ref
                                                                                  7979* 7980 7982 7982 7986*
i                               001647 automatic       fixed bin(18,0)          dcl 664 in procedure "parse_source" set ref 1155*
                                                                                  1157* 1162 1258* 1259 1260* 1262* 1263 1264* 1266*
                                                                                  1267 1268* 1535* 1536 1538 1543 1543* 1827* 1827*
                                                                                  1830 1833 1834 1891* 1892* 2862* 2862* 2863 2866
                                                                                  2867* 2870 2872 2874 2877* 2878 2940* 3023* 3042*
                                                                                  3383* 3384* 3544* 3545* 7151* 7152 7152* 8841*
                                                                                  8842 8842 8847 8850 8851 8857 8860 8860 8860 8860
                                                                                  8863 8870 8871 8871 8871 8871 8878* 9590* 9591
                                                                                  9591 9592 9592 9592 9592*
i                               017520 automatic       fixed bin(18,0)          dcl 12380 in procedure "build_fortran_operator" set
                                                                                  ref 12390* 12391 12394 12394* 12396* 12423* 12423*
                                                                                  12426 12431
i                               017510 automatic       fixed bin(18,0)          dcl 12342 in procedure "get_digits" set ref 12350*
                                                                                  12351 12354 12354* 12356* 12357
i                               017452 automatic       fixed bin(18,0)          dcl 12208 in procedure "get_next_option" set ref
                                                                                  12215* 12216 12223 12231* 12232 12232* 12235 12239
                                                                                  12239* 12239 12241 12242
i                               016747 automatic       fixed bin(18,0)          dcl 10662 in procedure "is_complex_constant" set ref
                                                                                  10678* 10681 10684 10687 10690 10709* 10717* 10719
                                                                                  10720 10731 10737 10741 10745 10745*
i                               017767 automatic       fixed bin(18,0)          dcl 12695 in procedure "convert_integer_constant"
                                                                                  set ref 12705* 12707 12714 12714 12714
i                               017246 automatic       fixed bin(18,0)          dcl 11485 in procedure "get_continuation_line" set
                                                                                  ref 11571* 11573 11575 11577 11584
i                               013656 automatic       fixed bin(17,0)          dcl 6235 in procedure "process_pending_entries" set
                                                                                  ref 6323* 6324*
i                               017277 automatic       fixed bin(18,0)          dcl 11720 in procedure "get_line_image" set ref
                                                                                  11900* 11902 12040* 12041 12045 12062* 12064
                                                                                  12064* 12067 12072 12074 12074 12076 12078* 12082
                                                                                  12082 12082 12084 12104* 12105 12108
i                               014140 automatic       fixed bin(18,0)          dcl 7246 in procedure "parse_data" set ref 7336*
                                                                                  7339 7340 7341*
i                               013333 automatic       fixed bin(18,0)          dcl 4825 in procedure "declaration_processor" set
                                                                                  ref 4966* 4967 4967* 5080* 5081 5081 5086 5086
                                                                                  5086* 5174* 5174* 5175 5186* 5195* 5201* 5208*
                                                                                  5229* 5234* 5246* 5247 5251 5252* 5252 5256 5266
                                                                                  5275 5280 5466* 5466 5907 5909* 5909 5919* 5919
                                                                                  5923 5923 5924* 5924 5995
i                               016656 automatic       fixed bin(18,0)          dcl 9864 in procedure "builtin_lookup" set ref 9943*
                                                                                  9949 9952 9953 9954* 9954 9957 9958* 9958 9960
                                                                                  9965 9980 9982
i                               017214 automatic       fixed bin(18,0)          dcl 10828 in procedure "statement_lex" set ref
                                                                                  11124* 11125 11128 11128* 11130* 11227* 11228
                                                                                  11243* 11247*
ident                                  constant        bit(9)                   initial dcl 4-156 ref 1297 1309 1643 1673 1706 1755
                                                                                  1820 1848 1860 1919 1963 2024 2107 2250 2302 2330
                                                                                  2363 2399 2428 2480 2567 2672 2698 2738 2779 2811
                                                                                  3231 3296 3541 3612 3901 3991 4049 4130 4201 4218
                                                                                  4401 4535 4625 4775 7082 7972 8508 8628 8752 8954
                                                                                  10179 10693 10999 11118 11328 12913 12994 13191
idx_of_count                    013657 automatic       fixed bin(18,0)          dcl 6235 set ref 6286* 6367
idx_of_expression               016610 automatic       fixed bin(18,0)          dcl 9657 set ref 9665* 9669 9685 9689 9690 9696 9696
                                                                                  9702 9714
idx_of_increment_polish_op      016611 automatic       fixed bin(18,0)          dcl 9657 set ref 9663* 9683 9690 9694 9711 9715
ignore_bits                     001650 automatic       bit(36)                  dcl 665 set ref 2495* 2860* 2941* 2946* 2953* 2957*
                                                                                  2962* 3007* 3270* 3345* 3840* 3932* 4144* 4196*
                                                                                  4213* 4242* 4273* 4292* 4297* 4317* 4323* 4328*
                                                                                  4740* 4745* 4750* 4753* 8351* 8700* 8760* 8784*
                                                                                  9286* 9291* 9294* 9366*
ignore_octal_value              001652 automatic       bit(72)                  dcl 666 set ref 2582*
ignore_symtab_entry                    constant        fixed bin(2,0)           initial dcl 667 set ref 1665* 1819* 1847* 1859*
                                                                                  1960* 2139* 2154* 2175* 2328* 2579* 2604* 2671*
                                                                                  3011* 3046* 3895* 4124* 4129* 4200* 4217* 4390*
                                                                                  4525* 4621* 4730* 4771* 7524* 7831* 8505* 8627*
                                                                                  8674* 8683* 9406* 9566* 12920
ignore_value                    001654 automatic       fixed bin(18,0)          dcl 668 set ref 1665* 1819* 1847* 1859* 1960* 2328*
                                                                                  2671* 3011* 3034* 3046* 3895* 4124* 4129* 4200*
                                                                                  4217* 4390* 4525* 4621* 4730* 4771* 7524* 7831*
                                                                                  8184* 8505* 8627* 8674* 8683* 9406* 9566* 10700*
                                                                                  11430* 12493* 12923* 13000*
ii                              013334 automatic       fixed bin(17,0)          dcl 4826 set ref 5256* 5257 5258 5259* 5259
implied_loop              3     012412 automatic       bit(1)                   array level 2 dcl 875 set ref 9110 9125* 9146* 9167
                                                                                  9189 9195 9200*
impossible_align                       constant        bit(2)                   initial dcl 669 ref 5397
impossible_class                002670 constant        bit(1)                   initial array dcl 670 ref 5294
in_common                 0(35)        based           bit(1)                   level 4 in structure "header" packed packed
                                                                                  unaligned dcl 5-436 in procedure "ext_parse" set
                                                                                  ref 5314 5328 5334 5530 5590
in_common                11(02)        based           bit(1)                   level 4 in structure "symbol" packed packed
                                                                                  unaligned dcl 5-844 in procedure "ext_parse" set
                                                                                  ref 6048 6056 6126 7422
in_const                               parameter       fixed bin(18,0)          dcl 12735 set ref 12732 12737 12741* 12742
in_equiv_stmnt           11(08)        based           bit(1)                   level 3 packed packed unaligned dcl 5-844 set ref
                                                                                  2114*
in_expr                         016673 automatic       bit(1)                   dcl 10051 set ref 10100* 10101 10468* 10567
in_list                         013746 automatic       bit(1)                   dcl 6594 in procedure "enter_label" set ref 6622*
                                                                                  6624 6627* 6632*
in_list                         016522 automatic       bit(1)                   dcl 9458 in procedure "get_bounds" set ref 9479*
                                                                                  9480 9482* 9559*
in_list                         016447 automatic       bit(1)                   dcl 9230 in procedure "parse_io_list" set ref 9269*
                                                                                  9270 9321 9322*
in_list                         001655 automatic       bit(1)                   dcl 671 in procedure "parse_source" set ref 1842*
                                                                                  1843 1894* 1915* 1917 1931* 1996* 1997 1998* 2002*
                                                                                  2022* 2023 2066* 2069* 2104* 2105 2200* 2247* 2248
                                                                                  2279* 2298* 2300 2316* 2344* 2359* 2361 2378*
                                                                                  2425* 2426 2439* 2459* 2478 2549* 2562 2590* 2664*
                                                                                  2665 2710* 2735* 2736 2755* 2805* 2806 2809 2849*
                                                                                  3332* 3333 3336 3350* 3511* 3512 3768 3770* 3893*
                                                                                  3894 3922* 4239* 4240 4244* 4386* 4388 4455* 4522*
                                                                                  4523 4553* 4617* 4619 4692* 7067* 7071 7076 7104*
                                                                                  8502* 8503 8566*
in_list                         014141 automatic       bit(1)                   dcl 7247 in procedure "parse_data" set ref 7453*
                                                                                  7458 7465*
in_list                         014005 automatic       bit(1)                   dcl 6796 in procedure "get_constant_offset" set ref
                                                                                  6834* 6835 6886*
in_list                         016474 automatic       bit(1)                   dcl 9389 in procedure "scan_label_list" set ref
                                                                                  9404* 9405 9414* 9421
in_list                         016263 automatic       bit(1)                   dcl 8210 in procedure "find_symbol_index" set ref
                                                                                  8245* 8249 8252* 8259*
in_stmnt                        001656 automatic       bit(1)                   dcl 672 set ref 1813* 1815 1901* 1953* 1954 2072*
                                                                                  2090* 2092 2211* 2396* 2397 2442* 3503* 3504 3798*
                                                                                  4199* 4205* 4208 4216* 4225* 4234
incl_count              116            based           fixed bin(17,0)          level 3 dcl 398 set ref 1115* 1149* 1149 1151 1165
                                                                                  1166 1167 11848 11877* 11877 11920 11924 11925
                                                                                  11926
incl_data               116            based           structure                level 2 dcl 398
incl_len                120            based           fixed bin(21,0)          array level 4 dcl 398 set ref 1166* 11925*
incl_ptr                121            based           pointer                  array level 4 packed packed unaligned dcl 398 set
                                                                                  ref 1167* 11926*
include_file_bit_count          017300 automatic       fixed bin(24,0)          dcl 11721 set ref 11837* 11918
include_file_name               017301 automatic       varying char(256)        dcl 11722 set ref 11835* 11837 11841* 11842* 11850*
                                                                                  11856* 11871* 11882* 11884* 11887 11889 11892
                                                                                  11893
include_file_ptr                017402 automatic       pointer                  dcl 11723 set ref 11837* 11839 11849* 11855* 11869
                                                                                  11870* 11879* 11916
increment_expression_idx        014142 automatic       fixed bin(18,0)          dcl 7248 set ref 7299* 7300 7300 7803* 7806* 7818
                                                                                  7818
increment_polish_op                    constant        fixed bin(18,0)          initial dcl 4-197 set ref 2412* 5104 6476 8041*
increment_table                 002562 constant        fixed bin(17,0)          initial array dcl 13-25 ref 8140
increment_value                 014143 automatic       fixed bin(18,0)          dcl 7249 set ref 7806* 7807 7812 7812
index                                                  builtin function         dcl 673 in procedure "parse_source" ref 1853 1865
                                                                                  2503 5490 6108 6155 7980 11788 12143 12564
index                     2(09) 000251 constant        fixed bin(8,0)           initial array level 2 in structure "bif_table"
                                                                                  packed packed unaligned dcl 9873 in procedure
                                                                                  "builtin_lookup" ref 9980
indx                            014144 automatic       fixed bin(18,0)          dcl 7250 in procedure "parse_data" set ref 7309*
                                                                                  7311 7312 7313* 7323* 7332 7348* 7353* 7367 7371*
                                                                                  7375* 7381* 7385* 7394* 7402 7406* 7407* 7412*
                                                                                  7413 7420 7422 7422 7426* 7434* 7438 7449 7454
                                                                                  7456 7477* 7482* 7490* 7575 7583* 7598* 7613* 7648
                                                                                  7650 7651* 7656* 7673* 7785 7785 7788 7788 7788
                                                                                  7788
indx                            016306 automatic       fixed bin(18,0)          dcl 8434 in procedure "parse_implied_io" set ref
                                                                                  8452* 8454*
indx                                   parameter       fixed bin(18,0)          dcl 6535 in procedure "declare_symbol" ref 6520 6540
indx                            016674 automatic       fixed bin(18,0)          dcl 10052 in procedure "parse_expression" set ref
                                                                                  10182* 10183 10202* 10231* 10246* 10253* 10258
                                                                                  10258* 10271* 10277* 10290* 10297* 10358* 10359
                                                                                  10384* 10396* 10399* 10407* 10411* 10418* 10529*
                                                                                  10530 10530 10595* 10596 10601* 10633* 10634
indx                            014047 automatic       fixed bin(18,0)          dcl 6961 in procedure
                                                                                  "get_data_statement_expression" set ref 6970*
                                                                                  6971*
indx                            020012 automatic       fixed bin(18,0)          dcl 12773 in procedure "convert_real_constant" set
                                                                                  ref 12833* 12834 12839 12839 12839
indx                            016750 automatic       fixed bin(18,0)          dcl 10663 in procedure "is_complex_constant" set ref
                                                                                  10674* 10680 10680 10681 10682* 10682 10687 10690
                                                                                  10690 10690 10693 10696 10698 10712* 10712 10754
indx                                   parameter       fixed bin(18,0)          dcl 9865 in procedure "builtin_lookup" set ref 9858
                                                                                  9930 9973*
indx                                   parameter       fixed bin(18,0)          dcl 9723 in procedure "get_integer_constant" set ref
                                                                                  9721 9742* 9790
indx                                   parameter       fixed bin(18,0)          dcl 13124 in procedure "split_token" set ref 13107
                                                                                  13134 13134 13135 13135 13136 13148 13150 13150
                                                                                  13151 13151 13157* 13157 13160* 13160 13163 13164
                                                                                  13165 13169 13170 13172* 13172
indx                                   parameter       fixed bin(18,0)          dcl 8776 in procedure "parse_record_number" set ref
                                                                                  8773 8784*
indx                            001657 automatic       fixed bin(18,0)          dcl 674 in procedure "parse_source" set ref 1162*
                                                                                  1165 1169 1171 1174 1986* 1987 1991* 1992 1998
                                                                                  2000 2004 2005* 2005 2008* 2008 2016* 2035 2035
                                                                                  2037 2039 2041 2045 2045 2054* 2676* 2678 2679
                                                                                  2681* 2681 2691 2810* 2816 2819* 2820 2820 2822
                                                                                  2859* 2860* 3337* 3341* 3345* 3540* 3545 3546*
                                                                                  3552* 3556 3556* 3558 3558* 3561* 3562 3562* 4095*
                                                                                  4101* 4105* 4107* 7078* 7085* 7085* 7087* 7091*
                                                                                  11902* 11903 11904
indx                            013747 automatic       fixed bin(18,0)          dcl 6595 in procedure "enter_label" set ref 6608*
                                                                                  6609 6609* 6620* 6624 6626 6630 6631* 6632 6637
                                                                                  6638* 6639 6641 6643 6646* 6653* 6654 6665 6668*
                                                                                  6683* 6695* 6701* 6707* 6709* 6709* 6716* 6724*
                                                                                  6724* 6740* 6741 6743* 6744 6748 6748 6752
indx                                   parameter       fixed bin(18,0)          dcl 9649 in procedure "get_one_bound" set ref 9631
                                                                                  9666* 9693
indx                            013335 automatic       fixed bin(18,0)          dcl 4827 in procedure "declaration_processor" set
                                                                                  ref 5109* 5109* 5111* 5112 5295* 5304* 5335* 5398*
                                                                                  5907* 5908 5916 5916 5918* 5927* 5944* 5959 5999*
indx                            016316 automatic       fixed bin(18,0)          dcl 8481 in procedure "parse_io" set ref 8525* 8526*
                                                                                  8540* 8541*
indx                            016521 automatic       fixed bin(18,0)          dcl 9457 in procedure "get_bounds" set ref 9487*
                                                                                  9492* 9515* 9520*
indx_ptr                        013336 automatic       pointer                  dcl 4828 in procedure "declaration_processor" set
                                                                                  ref 5908* 5914 5923 5932 5932 5933 5936 5941 5942
                                                                                  5948 5955 5956 5964 5964 5967 5968
indx_ptr                        013734 automatic       pointer                  dcl 6536 in procedure "declare_symbol" set ref 6540*
                                                                                  6542 6545 6545 6548 6548 6549 6549 6549 6549
indxx                           013616 automatic       fixed bin(18,0)          dcl 6210 set ref 6214* 6215 6222
initial                  13(07)        based           fixed bin(18,0)          level 2 packed packed unsigned unaligned dcl 5-844
                                                                                  set ref 2415* 2521* 2527* 2535* 2541* 2585* 2796*
                                                                                  4896 5023 5037 5044 5050* 5050 5103 5115* 6024
                                                                                  6025 6343 7456 7757* 8051* 8963 9689* 10706 12929
initial_expression_idx          014145 automatic       fixed bin(18,0)          dcl 7251 set ref 7294* 7295* 7298 7298 7801* 7802
                                                                                  7802
initial_in_polish                      based           structure                level 1 dcl 4851
initial_line                           constant        fixed bin(18,0)          initial dcl 676 ref 12048 12135
initial_subprogram        4(18)        based           fixed bin(18,0)          level 2 packed packed unsigned unaligned dcl 5-693
                                                                                  set ref 1216 1216*
initialed                 0(29)        based           bit(1)                   level 4 packed packed unaligned dcl 5-844 set ref
                                                                                  2045 5037 5037* 8153*
input_element                   001561 constant        bit(36)                  initial dcl 1071 ref 9245
input_lng               101            based           fixed bin(21,0)          level 2 dcl 14-6 ref 1145
input_pointer           102            based           pointer                  level 2 dcl 14-6 ref 1139 1599
inquire_op                             constant        fixed bin(18,0)          initial dcl 4-197 set ref 4615*
inquire_opr                            constant        fixed bin(4,0)           initial dcl 15-19 ref 4597
int_bits                        017770 automatic       bit(72)                  dcl 12696 set ref 12728 12729
int_mode                        003302 constant        fixed bin(4,0)           initial dcl 4-106 set ref 1097* 1100* 1263 1264 3305
                                                                                  3728* 3728* 3835 3934* 3934* 4166* 4469* 4470*
                                                                                  4567* 4568* 4709* 4710* 5132 5637 5639 5693 5695
                                                                                  6931* 6937 6978 6998 7135 7689 7698 7714 7738 7906
                                                                                  7906 8355 8828* 8828* 8860* 8860* 8871* 8871*
                                                                                  8879* 8879* 8889* 8889* 8892* 8892* 9241* 9241*
                                                                                  9673 9696 9699 9766 9769 10737 12746* 13057*
integer                  10(20)        based           bit(1)                   level 5 packed packed unaligned dcl 5-844 set ref
                                                                                  3562 6048
internal_file                          constant        bit(2)                   initial dcl 15-8 ref 8586 8780 8908
interval                        014146 automatic       fixed bin(18,0)          dcl 7252 set ref 7450* 7460* 7463 7466* 7466 7487
                                                                                  7498 7500* 7654 7657 7749* 7749 7754 7769 7775
                                                                                  7778
interval_ptr                    014147 automatic       fixed bin(18,0)          dcl 7253 set ref 7454* 7456* 7458 7460 7471 7487
                                                                                  7501 7502* 7502 7654 7654 7754 7757 7759 7762 7764
                                                                                  7766 7771 7773 7775 7778 7859*
inx                             001660 automatic       fixed bin(17,0)          dcl 677 set ref 1403* 1404 1404 1406* 1416 3696*
                                                                                  3713* 3715 3719 3743
io_bits                         013240 automatic       structure                level 1 packed packed unaligned dcl 885 set ref
                                                                                  3882* 3934 3934 3934 3934 3978* 4363* 4469 4469
                                                                                  4499* 4567 4567 4596* 4709 4709 8440* 8486* 9241
                                                                                  9241 9241 9241
io_control_type                 001661 automatic       fixed bin(4,0)           dcl 678 set ref 3862* 3867* 3872* 3883
io_ele                          016450 automatic       fixed bin(18,0)          dcl 9231 set ref 9271* 9278* 9280* 9282* 9285* 9286*
                                                                                  9290* 9291* 9293* 9294* 9313*
io_switch_field                        constant        fixed bin(17,0)          initial dcl 15-50 set ref 4413*
iostat_op                              constant        fixed bin(18,0)          initial dcl 4-197 set ref 8702*
iostat_var                0(13) 013240 automatic       bit(1)                   level 3 packed packed unaligned dcl 885 set ref 8691
                                                                                  8693*
is_addressable            0(14)        based           bit(1)                   level 3 packed packed unaligned dcl 5-256 set ref
                                                                                  8-83*
is_arith_constant                      constant        bit(9)                   initial dcl 4-147 ref 8007
is_constant                            constant        bit(9)                   initial dcl 4-147 ref 7972 10154 12938 13197
is_fast                 115            based           bit(1)                   level 4 packed packed unaligned dcl 398 set ref 4161
is_infix                               constant        bit(2)                   initial dcl 10053 ref 10441 10580
is_operand                      003030 constant        bit(9)                   initial dcl 4-147 ref 11397
is_operator                     003027 constant        bit(9)                   initial dcl 4-147 ref 10109 10429 12991 13204
is_prefix                              constant        bit(2)                   initial dcl 10054 ref 10120 10435
item                                   parameter       fixed bin(18,0)          dcl 6505 ref 6502 6512
item_op                                constant        fixed bin(18,0)          initial dcl 4-197 set ref 1541* 2979* 3186* 3194*
                                                                                  3346* 3362* 3385* 4247* 6374* 6379* 8768* 9369*
                                                                                  9419* 10484*
j                               014220 automatic       fixed bin(17,0)          dcl 7947 in procedure "parse_a_constant" set ref
                                                                                  7980* 7982 7986 7986
j                               014150 automatic       fixed bin(18,0)          dcl 7254 in procedure "parse_data" set ref 7346*
                                                                                  7347 7348 7350* 7352 7353 7354* 7357 7660* 7662*
                                                                                  7667 7670* 7677
j                               017772 automatic       fixed bin(18,0)          dcl 12697 in procedure "convert_integer_constant"
                                                                                  set ref 12702* 12703 12705 12714
j                               016432 automatic       fixed bin(18,0)          dcl 9094 in procedure "is_implied_loop" set ref
                                                                                  9132* 9134 9149 9184 9195*
j                               020060 automatic       fixed bin(18,0)          dcl 13123 in procedure "split_token" set ref 13139*
                                                                                  13140 13140 13142* 13150 13151 13154 13154 13156
                                                                                  13156 13157 13160 13162 13165
j                               014251 automatic       fixed bin(18,0)          dcl 8079 in procedure "create_format" set ref 8122*
                                                                                  8125 8132 8132 8137 8162* 8163 8164 8165 8166 8167
                                                                                  8168 8169 8170 8178* 8179 8179*
j                               013340 automatic       fixed bin(18,0)          dcl 4829 in procedure "declaration_processor" set
                                                                                  ref 5189* 5189* 5190 5192 5208* 5217* 5229* 5317*
                                                                                  5319 5357* 5357* 5358* 5404* 5404* 5406* 5430*
                                                                                  5430* 5431* 5446* 5446* 5448 5449
jnx                             001662 automatic       fixed bin(17,0)          dcl 679 set ref 1406* 1408 1408 1410 1410* 3740*
                                                                                  3743 3747
job_bits                        013240 automatic       structure                level 2 packed packed unaligned dcl 885
jump_arithmetic_op                     constant        fixed bin(18,0)          initial dcl 4-197 set ref 3049*
jump_assigned_op                       constant        fixed bin(18,0)          initial dcl 4-197 set ref 3250*
jump_computed_op                       constant        fixed bin(18,0)          initial dcl 4-197 set ref 3381* 9399*
jump_logical_op                        constant        fixed bin(18,0)          initial dcl 4-197 set ref 3071*
jump_op                                constant        fixed bin(18,0)          initial dcl 4-197 set ref 3227* 6276*
just_white_space                001450 constant        fixed bin(18,0)          initial dcl 11724 ref 11753 11754 12275
k                               013341 automatic       fixed bin(24,0)          dcl 4830 in procedure "declaration_processor" set
                                                                                  ref 5219* 5221* 5223* 5226
k                               014252 automatic       fixed bin(18,0)          dcl 8080 in procedure "create_format" set ref 8118*
                                                                                  8118* 8121 8121 8140* 8151* 8152 8179* 8179* 8184*
keyword_index                   001663 automatic       fixed bin(18,0)          dcl 680 set ref 1280* 1354 1354* 2914* 11010 11027
                                                                                  11039 11042 11337
keyword_table                   001562 constant        varying char(28)         initial array dcl 954 set ref 1484* 1497* 1827 1922
                                                                                  2027 2111 2253 2273* 2305 2312* 2320* 2366 2370*
                                                                                  2408* 2702 2706* 2741 2745* 2830* 3017* 3073*
                                                                                  3091* 3094* 3105* 3108* 3112* 3170* 3174* 3177*
                                                                                  3182* 3215* 3821* 3826* 3927* 4005* 4044* 4091*
                                                                                  4460* 4558* 4698* 4700* 4726* 4784* 8571* 8574*
                                                                                  8577* 8580* 8587 8589* 8749* 8780* 8804* 8817*
                                                                                  8838* 8906* 9255* 9260* 10388* 10987 11010 11010
                                                                                  11014 11014 11022 11022 11027 11027 11039 11039
                                                                                  11053
l_significant_digits            020042 automatic       fixed bin(18,0)          dcl 12899 in procedure "get_next_token" set ref
                                                                                  13067* 13069* 13075 13084*
l_significant_digits            020013 automatic       fixed bin(18,0)          dcl 12774 in procedure "convert_real_constant" set
                                                                                  ref 12793* 12795* 12809* 12814 12820 12820 12822
                                                                                  12843
label                                  based           structure                level 1 dcl 5-530 set ref 6763 6763
label_allocate_bits                    parameter       bit(5)                   dcl 6758 ref 6755 6768
label_args                      001664 automatic       bit(1)                   dcl 681 set ref 3304 3360 10885* 11190* 11433*
label_const                            constant        bit(9)                   initial dcl 4-156 ref 3340 11191 11426
label_hash_table                001665 automatic       fixed bin(18,0)          array dcl 682 set ref 1249* 6619 6620 6641 6641*
label_name                             parameter       fixed bin(18,0)          dcl 6759 ref 6755 6766
label_node                             constant        fixed bin(4,0)           initial dcl 4-87 set ref 6763*
label_op                               constant        fixed bin(18,0)          initial dcl 4-197 set ref 1423* 2910* 6397*
label_ptr                       004422 automatic       fixed bin(18,0)          array level 2 in structure "do_blockif_stack"
                                                                                  dcl 836 in procedure "parse_source" set ref 1404
                                                                                  1408* 1509 1538* 3105* 3174* 4765* 6609
label_ptr                       002210 automatic       fixed bin(18,0)          dcl 683 in procedure "parse_source" set ref 4734*
                                                                                  4765
label_ptr                       016410 automatic       fixed bin(18,0)          dcl 8929 in procedure "get_format" set ref 8946*
                                                                                  8947* 8955* 8957 8962 8963 8980* 8988 9000 9004
                                                                                  9004* 9017* 9018* 9023* 9024* 9025* 9049
label_ptr                       016475 automatic       fixed bin(18,0)          dcl 9390 in procedure "scan_label_list" set ref
                                                                                  9410* 9418*
label_storage                   016411 automatic       bit(5)                   dcl 8930 in procedure "get_format" set ref 8935*
                                                                                  8937* 9023*
label_storage                   013750 automatic       bit(5)                   dcl 6596 in procedure "enter_label" set ref 6605*
                                                                                  6638 6650 6650* 6653 6658 6683 6701 6737 6743 6746
                                                                                  6746* 6748
label_type                      013751 automatic       bit(2)                   dcl 6597 set ref 6603* 6638 6649 6657 6676 6677 6678
                                                                                  6680 6680* 6686 6686 6689 6701 6701 6705
label_usage                            parameter       bit(2)                   dcl 6760 ref 6755 6767
label_value                     013752 automatic       fixed bin(18,0)          dcl 6598 set ref 6604* 6613 6613 6614 6614 6616*
                                                                                  6616 6619 6627 6638*
last                            014151 automatic       fixed bin(18,0)          dcl 7255 set ref 7449* 7501* 7757 7757 7759 7766
                                                                                  7766 7769 7769 7851 7851 7853 7853 7859* 7859*
last_assigned_op                       constant        fixed bin(18,0)          initial dcl 4-197 ref 3653 3710 3737 6029 6975 7023
                                                                                  7896 9670
last_constant           101            based           fixed bin(18,0)          array level 3 dcl 398 set ref 8-91 8-93*
last_cref                 5            based           fixed bin(18,0)          level 2 unsigned dcl 6-12 set ref 1582*
last_cur_statement              002211 automatic       fixed bin(18,0)          dcl 684 set ref 2406 6450*
last_do                         016451 automatic       fixed bin(18,0)          dcl 9232 in procedure "parse_io_list" set ref 9267*
                                                                                  9305* 9324 9324 9325 9326* 9326 9336
last_do                         016433 automatic       fixed bin(18,0)          dcl 9095 in procedure "is_implied_loop" set ref
                                                                                  9120* 9168 9168 9171* 9179 9179
last_do                         002212 automatic       fixed bin(18,0)          dcl 685 in procedure "parse_source" set ref 3507*
                                                                                  3602* 3772 3772 3773 3775* 3775
last_element                    002213 automatic       fixed bin(18,0)          dcl 686 in procedure "parse_source" set ref 2801*
                                                                                  2835 2842 2844 2846* 2862
last_element              4            based           fixed bin(18,0)          level 2 in structure "header" packed packed unsigned
                                                                                  unaligned dcl 5-436 in procedure "ext_parse" set
                                                                                  ref 2035 2037 2039* 5425 5426* 5426 5667* 5772
                                                                                  5776* 5800* 5841 5846* 5846 5959*
last_entry_name          76            based           fixed bin(18,0)          level 2 dcl 398 set ref 1605 1605 4978 4981*
last_item                       016264 automatic       fixed bin(18,0)          dcl 8211 in procedure "find_symbol_index" set ref
                                                                                  8219* 8225* 8226 8230 8230 8236 8236 8241* 8244
                                                                                  8257* 8278 8278 8280 8288
last_item                       013753 automatic       fixed bin(18,0)          dcl 6599 in procedure "enter_label" set ref 6619*
                                                                                  6620 6630* 6641 6641 6643
last_label                4(18)        based           fixed bin(18,0)          level 2 packed packed unsigned unaligned dcl 5-753
                                                                                  set ref 6770 6772 6774*
last_label_line                 000010 internal static fixed bin(18,0)          dcl 11729 set ref 12292* 12305
last_mode_keyword                      constant        fixed bin(18,0)          initial dcl 687 ref 1293 1827 1830
last_namelist                   002214 automatic       fixed bin(18,0)          dcl 688 set ref 2403 2418*
last_namelist_word_offset       002215 automatic       fixed bin(18,0)          dcl 689 set ref 2404 2419*
last_node                              parameter       fixed bin(18,0)          dcl 8022 ref 8019 8051 8051 8053
last_paren_parsed               002216 automatic       fixed bin(18,0)          dcl 690 set ref 3499* 9102 9184* 9266*
last_polish               5(18)        based           fixed bin(18,0)          level 2 packed packed unsigned unaligned dcl 5-753
                                                                                  set ref 1573*
last_source_line                002217 automatic       fixed bin(18,0)          dcl 691 set ref 1107* 1242 1583*
last_statement                  002220 automatic       fixed bin(18,0)          dcl 692 set ref 1223* 6461 6461 6464*
last_statement_type             002221 automatic       fixed bin(18,0)          dcl 693 set ref 1519* 2403
last_subprogram          73            based           fixed bin(18,0)          level 2 dcl 398 set ref 1207 1209 1210 1214*
last_symbol               3(18)        based           fixed bin(18,0)          level 2 packed packed unsigned unaligned dcl 5-753
                                                                                  set ref 4928* 5148 5150 5153* 8272 8274 8276* 9828
                                                                                  9830 9832*
last_token                      002222 automatic       fixed bin(18,0)          dcl 694 set ref 1293 1309 1492 2641 3440 8458 8618
                                                                                  9132 9236 10756 10875* 10879 10941 10946 10950
                                                                                  10954* 10954 10957 10963 10970 10983 11180 11192*
                                                                                  11192 11202 11279* 11279 11281 11287 11288 11291
                                                                                  11294 11354 11397 12963 13184
last_token_type                 017215 automatic       bit(9)                   dcl 10829 set ref 10889* 10964 10965* 11179 11328
                                                                                  11328 11328 11397 11397
last_upper_bound                013660 automatic       fixed bin(17,0)          dcl 6235 set ref 6317* 6319* 6332
lbound                                                 builtin function         dcl 695 ref 1282 5246 5473 5474 11868
ldigits                         020014 automatic       fixed bin(18,0)          dcl 12775 in procedure "convert_real_constant" set
                                                                                  ref 12791* 12793 12793 12797 12807* 12820 12820
                                                                                  12822
ldigits                         020043 automatic       fixed bin(18,0)          dcl 12900 in procedure "get_next_token" set ref
                                                                                  13066* 13067 13067 13071 13084*
ldigits_parm                           parameter       fixed bin(18,0)          dcl 12776 ref 12803 12807
left_parenthesis                       constant        fixed bin(18,0)          initial dcl 10055 ref 10472
left_parn                              constant        bit(9)                   initial dcl 4-156 ref 1309 1839 1927 2060 2094 2124
                                                                                  2126 2265 2327 2468 2752 2782 2936 3003 3233 3247
                                                                                  3254 3258 3264 3324 3520 3620 3891 3952 3973 4377
                                                                                  4513 4608 7066 7962 8326 8497 9138 9272 10114
                                                                                  10125 10194 10488 11182 11202 11350 11397 12961
                                                                                  12964
len                             020061 automatic       fixed bin(18,0)          dcl 13125 in procedure "split_token" set ref 13136*
                                                                                  13138 13139 13142 13143* 13146 13146 13154 13154
                                                                                  13156 13156
len                             017553 automatic       fixed bin(18,0)          dcl 12550 in procedure "build_string" set ref 12564*
                                                                                  12566 12582 12591* 12602* 12605 12607* 12615*
                                                                                  12647* 12649 12657 12657 12658
len                                    parameter       fixed bin(18,0)          dcl 12699 in procedure "convert_integer_constant"
                                                                                  ref 12670 12702 12705 12708 12708 12723 12723
len                             017247 automatic       fixed bin(18,0)          dcl 11486 in procedure "get_continuation_line" set
                                                                                  ref 11502* 11503 11535* 11536 11616 11625 11625
                                                                                  11626 11630 11630 11631 11633 11634
len_pic                         017554 automatic       picture(3)               packed unaligned dcl 12551 set ref 12645* 12646
                                                                                  12647 12657
length                    4            based           fixed bin(18,0)          level 2 in structure "char_constant" packed packed
                                                                                  unsigned unaligned dcl 5-316 in procedure
                                                                                  "ext_parse" ref 2523 2527 2527 2612 2612 2615 2615
                                                                                  4896 7474 7580 7582 7584 7587 7592 7594 7598 7643
                                                                                  7662 7677 9024 9024
length                                                 builtin function         dcl 696 in procedure "parse_source" ref 1155 1157
                                                                                  1157 1823 1823 6213 8086 8086 8087 8109 8125 8128
                                                                                  9824 9840 9940 10987 11010 11014 11022 11027 11039
                                                                                  11053 11128 11227 11502 11535 11541 11599 11600
                                                                                  11616 11617 11814 11821 11828 11900 11900 11990
                                                                                  11993 11995 12002 12010 12010 12012 12017 12039
                                                                                  12044 12064 12072 12076 12078 12082 12100 12116
                                                                                  12127 12127 12132 12175 12175 12195 12195 12218
                                                                                  12227 12232 12354 12394 12416 12421 12423 12582
                                                                                  12647 12649 12652 12707 12714 12793 12797 12814
                                                                                  12815 12843 13067 13071
length                                 parameter       fixed bin(17,0)          dcl 9-12 in procedure "create_node" ref 9-10 9-20
                                                                                  9-23 9-24
length                    6            based           fixed bin(24,0)          level 2 in structure "header" dcl 5-436 in procedure
                                                                                  "ext_parse" set ref 5236* 5371 5374 5376 5378
                                                                                  5381* 5413 5416 5418 5420* 5420 5505 5537 5555
                                                                                  5593 5665* 5766 5777* 5799* 5820 5834 5847* 5873*
                                                                                  5960*
length                    0(27) 011016 automatic       fixed bin(8,0)           array level 2 in structure "constant_array" packed
                                                                                  packed unaligned dcl 853 in procedure
                                                                                  "parse_source" set ref 10728 12521* 13063 13093
                                                                                  13198
length                    1     005076 automatic       fixed bin(10,0)          array level 2 in structure "token_list" dcl 847
                                                                                  in procedure "parse_source" set ref 10696 10727
                                                                                  10736 10756* 10758* 10946* 10950* 11004 11202
                                                                                  11291* 11294* 11397 12915 12940 12985 12996 13012
                                                                                  13135* 13135 13136 13151* 13151 13165* 13189
length                          013515 automatic       fixed bin(24,0)          dcl 5905 in procedure "get_equiv_var" set ref 5942*
                                                                                  5943 5948* 5960
length                                 parameter       fixed bin(18,0)          dcl 13126 in procedure "split_token" ref 13107 13134
                                                                                  13135
length                    2(27)        based           bit(9)                   level 2 in structure "statement" packed packed
                                                                                  unaligned dcl 5-721 in procedure "ext_parse" set
                                                                                  ref 10975* 10977*
letters                                constant        fixed bin(18,0)          initial dcl 697 ref 11133 12399 12459
lexing_a_token                  017216 automatic       bit(1)                   dcl 10830 set ref 11122* 11123 11125* 11131* 11133*
                                                                                  12348* 12349 12351* 12358* 12360* 12388* 12389
                                                                                  12391* 12397* 12399*
lhs_fld_op                             constant        fixed bin(18,0)          initial dcl 4-197 set ref 2954*
line                      2(08)        based           bit(14)                  level 3 packed packed unaligned dcl 5-721 set ref
                                                                                  6514 10895* 10896* 10903* 10904*
line_length               1            based           fixed bin(18,0)          array level 2 packed packed unsigned unaligned
                                                                                  dcl 6-31 set ref 11796*
line_no                         017404 automatic       fixed dec(6,0)           dcl 11725 in procedure "get_line_image" set ref
                                                                                  12072 12076 12078 12081* 12082 12082 12086 12086
                                                                                  12091
line_no                   0(18)        based           fixed bin(17,0)          array level 2 in structure "cross_reference" packed
                                                                                  packed unaligned dcl 6-8 in procedure "ext_parse"
                                                                                  set ref 1389* 1389 1392* 1392 6514* 6516*
line_no_overlay                        based           structure                level 1 dcl 11731
line_number                     002223 automatic       fixed bin(18,0)          dcl 698 in procedure "parse_source" set ref 3137
                                                                                  10893 10899 10899 10903 10904 11063* 11775* 11797
                                                                                  11811 11811* 11864 11919* 11933 11933* 11957
                                                                                  11957* 11987 11987* 12086 12086 12086 12091* 12096
                                                                                  12096* 12144 12307
line_number               3     004422 automatic       fixed bin(18,0)          array level 2 in structure "do_blockif_stack"
                                                                                  dcl 836 in procedure "parse_source" set ref 1410
                                                                                  1410 1543 1543 3137*
line_number               0(18)        based           fixed bin(17,0)          level 2 in structure "source" packed packed
                                                                                  unaligned dcl 5-693 in procedure "ext_parse" set
                                                                                  ref 11914*
line_number_in_file       1(18)        based           fixed bin(18,0)          array level 2 packed packed unsigned unaligned
                                                                                  dcl 6-31 set ref 11797*
line_number_pic                 002224 automatic       picture(6)               packed unaligned dcl 699 set ref 12144* 12146*
line_numbered_text              002226 automatic       bit(1)                   dcl 700 set ref 1124* 12060
line_start                0(09)        based           fixed bin(21,0)          array level 2 packed packed unsigned unaligned
                                                                                  dcl 6-31 set ref 11795*
line_structure                         based           structure                level 1 dcl 10850
list                      0(07) 013240 automatic       bit(1)                   level 3 packed packed unaligned dcl 885 set ref
                                                                                  9236* 9254
list_bits                       016476 automatic       bit(5)                   dcl 9391 set ref 9395* 9401* 9410* 9417
list_directed                          constant        bit(2)                   initial dcl 15-8 ref 8548 8589 9031
listing                 113(07)        based           structure                level 4 packed packed unaligned dcl 398 set ref 1125
listing_base                    000116 automatic       pointer                  dcl 380 in procedure "ext_parse" set ref 416* 1234
listing_base             20            based           pointer                  level 2 in structure "shared_structure" dcl 398
                                                                                  in procedure "ext_parse" set ref 416
listing_info                           based           structure                level 1 dcl 6-12 set ref 1236* 1237
listing_seg                            based           fixed bin(17,0)          array dcl 6-22 set ref 1234
ln_digits                 0(09)        based           char(6)                  level 2 packed packed unaligned dcl 11731 set ref
                                                                                  12072 12076 12078 12082 12082* 12086*
local_attributes                002230 automatic       bit(47)                  dcl 703 set ref 2257* 2258* 2269* 2273*
locate_symtab_entry                    constant        fixed bin(2,0)           initial dcl 701 set ref 2810* 4095* 7529* 7543*
                                                                                  7957* 8317* 10700*
location                  1(18)        based           bit(18)                  level 2 in structure "statement" packed packed
                                                                                  unaligned dcl 5-721 in procedure "ext_parse" set
                                                                                  ref 1133* 6193*
location                  5            based           fixed bin(24,0)          level 2 in structure "symbol" dcl 5-844 in procedure
                                                                                  "ext_parse" set ref 7181 7181 7188*
logical_const                          constant        bit(9)                   initial dcl 4-156 ref 13026 13033
logical_if_statement            002227 automatic       bit(1)                   dcl 702 set ref 1435* 1501 3017 3055 3060* 3064 3215
                                                                                  3821 4091
logical_mode                    003267 constant        fixed bin(4,0)           initial dcl 4-106 set ref 13029* 13036*
loop_end                        013754 automatic       fixed bin(18,0)          dcl 6600 in procedure "enter_label" set ref 6692*
                                                                                  6692 6692* 6694 6695 6713* 6713 6713* 6715 6716
loop_end                  5(18)        based           fixed bin(18,0)          level 2 in structure "label" packed packed unsigned
                                                                                  unaligned dcl 5-530 in procedure "ext_parse" set
                                                                                  ref 6663* 6692 6694 6698* 6712 6713 6715 6716 6716
                                                                                  6716 6728* 6733*
loop_index                      017463 automatic       fixed bin(18,0)          dcl 12256 set ref 12263* 12278*
loop_info                       014152 automatic       fixed bin(18,0)          dcl 7256 set ref 7800* 7801 7807 7807
lower                           016554 automatic       bit(1)                   array level 2 in structure "v_bounds" packed packed
                                                                                  unaligned dcl 9465 in procedure "get_bounds" set
                                                                                  ref 9510* 9535*
lower                           014006 automatic       fixed bin(18,0)          dcl 6797 in procedure "get_constant_offset" set ref
                                                                                  6844* 6858 6873 6915*
lower                           014153 automatic       fixed bin(18,0)          dcl 7257 in procedure "parse_data" set ref 7340*
                                                                                  7352 7354 7357
lower                     0(09)        based           bit(1)                   array level 3 in structure "dimension" packed packed
                                                                                  unaligned dcl 5-383 in procedure "ext_parse" set
                                                                                  ref 5081 6324 8857
lower                           016657 automatic       fixed bin(18,0)          dcl 9866 in procedure "builtin_lookup" set ref 9944*
                                                                                  9954 9957* 9958 9960
lower_bound                     016527 automatic       fixed bin(24,0)          array level 2 in structure "bounds" dcl 9464
                                                                                  in procedure "get_bounds" set ref 9508* 9534* 9541
lower_bound               5            based           fixed bin(24,0)          array level 3 in structure "dimension" dcl 5-383
                                                                                  in procedure "ext_parse" set ref 3659 5081* 6326
                                                                                  6915 7340 8164* 8851 8863 8871 8871 8871 8871
lp                              013756 automatic       pointer                  dcl 6601 set ref 6626* 6627 6631 6639* 6654 6658
                                                                                  6661 6663 6671 6678 6683 6689 6689 6692 6698 6705
                                                                                  6709 6712 6713 6716 6716 6716 6724 6726 6727 6728
                                                                                  6731 6732 6733 6733 6737 6737 6740 6744
lprec                           001513 constant        fixed bin(18,0)          initial array dcl 10077 ref 10451 10461
lsd_parm                               parameter       fixed bin(18,0)          dcl 12777 ref 12803 12809
ltrim                                                  builtin function         dcl 9-17 in procedure "create_node" ref 9-29 9-29
ltrim                                                  builtin function         dcl 704 in procedure "parse_source" ref 1410 1410
                                                                                  1543 1543 5012 5234 5379 5379 5505 5537 5927 5927
                                                                                  6136 8322 8322 8393 8393 8398 8398 8738 8740 8740
                                                                                  9599 9599 9623 9623 12793 12820 13067
ltrim                                                  builtin function         dcl 8-28 in procedure "create_constant" ref 8-45
                                                                                  8-45
main_attr                       002666 constant        bit(47)                  initial dcl 705 set ref 1118 1344* 1344* 6173 6174
main_entry_point_name
                         56            based           varying char(32)         level 2 dcl 398 set ref 1343* 1344 1344
main_op                                constant        fixed bin(18,0)          initial dcl 4-197 ref 1117 6198
main_program                           constant        fixed bin(9,0)           initial dcl 4-68 ref 3826 4044 6181
mantissa                               based           fixed dec(30,0)          dcl 12771 set ref 12813* 12845 12857 12859 12868
                                                                                  12870
map                     113(09)        based           bit(1)                   level 5 packed packed unaligned dcl 398 set ref 413
margin_op                              constant        fixed bin(18,0)          initial dcl 4-197 set ref 4298*
master                                 based           structure                level 1 unaligned dcl 13221
master_index                    020102 automatic       fixed bin(18,0)          dcl 13223 set ref 13226* 13227 13228 13230 13234*
                                                                                  13234
max                                                    builtin function         dcl 706 ref 5378 5420 6132 9811 12017 12044
max_arglist                            constant        fixed bin(18,0)          initial dcl 707 ref 3368 3368 7158 7158 10601 10601
max_array_size                  000122 automatic       structure                level 1 unaligned dcl 383
max_char_length                        constant        fixed bin(10,0)          initial dcl 4-77 ref 2527 2527 5742 8155
max_char_var_length                    constant        fixed bin(21,0)          initial dcl 506 ref 8384 8386
max_fixed_bin_18                076436 constant        fixed bin(18,0)          initial dcl 4-58 ref 6508 6508 6508 6616 12568
max_fixed_bin_24                003060 constant        fixed bin(24,0)          initial dcl 4-59 ref 429 433 437 441 5234 5234 5360
                                                                                  5379 5379 5379 5926 5927 5927 9550 9550 9595 9599
                                                                                  9599 9622 9623 9623 9624 9626
max_length_this_pass            013342 automatic       fixed bin(18,0)          dcl 4831 set ref 5733* 5755 5769 5823 5837*
max_prec_single                        constant        fixed bin(9,0)           initial dcl 4-68 ref 13075 13078
max_stack                       002232 automatic       fixed bin(18,0)          dcl 708 in procedure "parse_source" set ref 1113*
                                                                                  1611 2502 2508* 7003 7005* 8353 8360* 9700 9707*
                                                                                  9770 9776* 9811* 9811
max_stack                 1(32) 013232 automatic       fixed bin(18,0)          level 2 in structure "parameter_info" packed packed
                                                                                  unaligned dcl 883 in procedure "parse_source" set
                                                                                  ref 2502* 2508 7003* 7005 8353* 8360 9700* 9707
                                                                                  9770* 9776
max_value                       000774 constant        fixed dec(11,0)          initial dcl 12698 ref 12716 12716
may_need_descriptors            016675 automatic       bit(1)                   packed unaligned dcl 10056 set ref 10185* 10189*
                                                                                  10371 10378
member_attr                     002664 constant        bit(47)                  initial dcl 709 set ref 2031*
member_conflicts                002662 constant        bit(47)                  initial dcl 711 set ref 2031*
min                                                    builtin function         dcl 713 ref 6616 7560 7979 11227 11496 11517 11535
                                                                                  12241
minus                                  constant        bit(9)                   initial dcl 4-156 ref 1858 7955 8010 8735 8736 10138
                                                                                  10680 10745 11312 12716
misc_attributes          10(28)        based           structure                level 3 packed packed unaligned dcl 5-844
mod                                                    builtin function         dcl 8-29 in procedure "create_constant" ref 8-57
mod                                                    builtin function         dcl 714 in procedure "parse_source" ref 5206 5394
                                                                                  5767 5835 5998 6619 8241
mod_2_sum                       000124 automatic       bit(36)                  dcl 8-30 set ref 8-51* 8-54* 8-57
mode                                   parameter       fixed bin(4,0)           dcl 8308 in procedure "get_mode_size" set ref 8291
                                                                                  8321 8334 8367 8375 8391 8391 8395* 8400* 8408
                                                                                  8417
mode                      0(05) 013240 automatic       bit(2)                   level 3 in structure "io_bits" packed packed
                                                                                  unaligned dcl 885 in procedure "parse_source" set
                                                                                  ref 8580 8586 8634 8780 8785* 8817 8819* 8906
                                                                                  8908* 9260
mode                     10(20)        based           structure                level 4 in structure "symbol" packed packed
                                                                                  unaligned dcl 5-844 in procedure "ext_parse" set
                                                                                  ref 2503 6108 6152
mode_bits                10            based           structure                level 3 in structure "symbol" packed packed
                                                                                  unaligned dcl 5-844 in procedure "ext_parse" set
                                                                                  ref 2820 2820 4058 4058 4871* 4871 4948* 4948 9967
                                                                                  9983
mode_bits                              based           structure                level 2 in structure "attr" packed packed unaligned
                                                                                  dcl 8306 in procedure "get_mode_size"
mode_defined                    002234 automatic       bit(52)                  dcl 715 set ref 1271* 1884 1887*
mode_field                             constant        fixed bin(17,0)          initial dcl 15-50 set ref 4422*
mode_type                       002236 automatic       fixed bin(4,0)           dcl 716 set ref 2233* 2243 2244* 2258 2267 2269
more_on_this_line               017250 automatic       bit(1)                   dcl 11487 set ref 11541* 11548 11563*
mult_op                                constant        fixed bin(18,0)          initial dcl 4-197 set ref 8883*
multiple_entry            0(13)        based           bit(1)                   level 2 packed packed unaligned dcl 5-753 set ref
                                                                                  4042*
multiplier                      014007 automatic       fixed bin(18,0)          dcl 6798 in procedure "get_constant_offset" set ref
                                                                                  6811* 6820* 6828* 6844* 6861* 6869* 6873 6883*
                                                                                  6883 6902* 6902 6904
multiplier                      014154 automatic       fixed bin(18,0)          dcl 7258 in procedure "parse_data" set ref 7334*
                                                                                  7357 7359* 7359
must_be_one                            parameter       bit(1)                   dcl 13127 ref 13107 13146
must_have_label                 002237 automatic       bit(1)                   dcl 717 set ref 1275* 1418* 1428 1430* 1549 3033*
                                                                                  3062* 3272* 4065 4067*
n                               016265 automatic       fixed bin(18,0)          dcl 8212 set ref 8226* 8230 8236* 8238*
n_args                    0(05)        based           fixed bin(12,0)          level 2 packed packed unaligned dcl 5-130 set ref
                                                                                  4963 6304 7149*
name                     20            based           char                     level 2 in structure "symbol" dcl 5-844 in procedure
                                                                                  "ext_parse" set ref 2507 2936 5636 5690 6155 8251
                                                                                  8269* 8386* 9841* 9844* 9846* 9942 10258
name                     20            based           char                     level 2 in structure "master" dcl 13221 in procedure
                                                                                  "check_entry_duplication" ref 13230
name                                   parameter       varying char(256)        dcl 9817 in procedure "build_symbol" ref 9814 9824
                                                                                  9840 9846
name                      4(18)        based           fixed bin(17,0)          level 2 in structure "label" packed packed unaligned
                                                                                  dcl 5-530 in procedure "ext_parse" set ref 6627
                                                                                  6766*
name                            000251 constant        char(8)                  initial array level 2 in structure "bif_table"
                                                                                  dcl 9873 in procedure "builtin_lookup" ref 9949
                                                                                  9952
name                     20            based           char                     level 2 in structure "slave" dcl 13222 in procedure
                                                                                  "check_entry_duplication" set ref 13230 13230*
name_field                             constant        fixed bin(17,0)          initial dcl 15-50 set ref 4664*
name_length               4(18)        based           fixed bin(17,0)          level 2 in structure "header" packed packed
                                                                                  unaligned dcl 5-436 in procedure "ext_parse" set
                                                                                  ref 1998 2679 5454 5490 5683 5685 5857 6219* 6220
                                                                                  7422
name_length              14(07)        based           fixed bin(17,0)          level 2 in structure "symbol" packed packed
                                                                                  unaligned dcl 5-844 in procedure "ext_parse" set
                                                                                  ref 2507 2936 5636 5690 6155 8251 8268* 8269 8386
                                                                                  8386 9838* 9841 9844 9846 9940 9942 10258 13230
                                                                                  13230 13230 13230
named_const_attr                002660 constant        bit(47)                  initial dcl 720 set ref 2483* 2570*
named_const_conflicts           002656 constant        bit(47)                  initial dcl 722 set ref 2483*
named_constant           11(06)        based           bit(1)                   level 4 packed packed unaligned dcl 5-844 set ref
                                                                                  5049* 10703 12925 13002
named_constant_ptr              002240 automatic       pointer                  dcl 718 set ref 10161 12927*
named_constant_ptr_valid        002242 automatic       bit(1)                   dcl 719 set ref 10160 12910* 12928*
named_field                            constant        fixed bin(17,0)          initial dcl 15-50 set ref 4661*
namelist                 10(34)        based           bit(1)                   level 4 in structure "symbol" packed packed
                                                                                  unaligned dcl 5-844 in procedure "ext_parse" set
                                                                                  ref 8957
namelist                               constant        bit(2)                   initial dcl 15-8 in procedure "parse_source" ref
                                                                                  8990 9255
namelist_attr                   002654 constant        bit(47)                  initial dcl 724 set ref 2402*
namelist_op                     003026 constant        fixed bin(18,0)          initial dcl 4-197 set ref 8981*
namelist_used             0(14)        based           bit(1)                   level 2 in structure "subprogram" packed packed
                                                                                  unaligned dcl 5-753 in procedure "ext_parse" set
                                                                                  ref 8993*
namelist_used           115(01)        based           bit(1)                   level 4 in structure "shared_structure" packed
                                                                                  packed unaligned dcl 398 in procedure "ext_parse"
                                                                                  set ref 1123* 8992*
ndx                                    parameter       fixed bin(24,0)          dcl 6040 set ref 6037 6045 6046 6048*
need_PS                   0(11)        based           bit(1)                   level 2 packed packed unaligned dcl 5-753 set ref
                                                                                  3936* 3986* 4275* 4299* 4316* 4359* 4495* 4592*
                                                                                  8448* 8494*
need_comma                      016452 automatic       bit(1)                   dcl 9233 in procedure "parse_io_list" set ref 9320*
                                                                                  9321 9330*
need_comma                      002243 automatic       bit(1)                   dcl 726 in procedure "parse_source" set ref 3767*
                                                                                  3768 3785*
need_element                    016453 automatic       bit(1)                   dcl 9234 set ref 9304* 9307* 9309* 9312
need_label                0(03) 000000 constant        bit(1)                   initial array level 2 packed packed unaligned
                                                                                  dcl 892 ref 1418 1430
needs_descriptors         0(07)        based           bit(1)                   level 2 in structure "expression" packed packed
                                                                                  unaligned dcl 1034 in procedure "parse_source" ref
                                                                                  10185
needs_descriptors         0(33)        based           bit(1)                   level 3 in structure "symbol" packed packed
                                                                                  unaligned dcl 5-844 in procedure "ext_parse" set
                                                                                  ref 2339* 3327 4964* 4966 4967* 5140 5140* 10234
                                                                                  10280 10371* 10378*
negate_op                              constant        fixed bin(18,0)          initial dcl 4-197 ref 6992 7898 7899 9677
negate_round           1540            based           entry variable           array level 2 dcl 398 set ref 10745 12749 12754
                                                                                  12759 12762
negate_token                           constant        fixed bin(18,0)          initial dcl 10057 ref 10138
new                             002244 automatic       fixed bin(18,0)          dcl 728 in procedure "parse_source" set ref 2816*
                                                                                  2820* 2822 2824 2826 2830* 2830* 2834 2835 2837
                                                                                  2839 2842 2844 2846
new                             013343 automatic       fixed bin(18,0)          dcl 4832 in procedure "declaration_processor" set
                                                                                  ref 4936* 5166 5281* 5301 5318 5319* 5443 5446
                                                                                  5455 5455
new_format                      014253 automatic       char(4096)               dcl 8081 set ref 8094* 8096 8105 8109 8115 8115 8118
                                                                                  8122 8125 8128 8132* 8132 8134 8141 8143 8172 8172
                                                                                  8179 8179 8184 8184
new_label                       013766 automatic       fixed bin(18,0)          dcl 6761 set ref 6763* 6765 6766 6767 6768 6770 6772
                                                                                  6774 6775
new_node                        014234 automatic       fixed bin(18,0)          dcl 8024 set ref 8031* 8032 8034 8035 8036 8045*
                                                                                  8051 8053 8055
new_offset                      013524 automatic       fixed bin(24,0)          dcl 5989 set ref 5991* 5995 5998 6002* 6002 6004
new_state                       016676 automatic       bit(36)                  dcl 10058 set ref 10214* 10221* 10234* 10236* 10249*
                                                                                  10261* 10280* 10282* 10307 10497*
next                      1            based           fixed bin(18,0)          level 2 in structure "listing_info" unsigned
                                                                                  dcl 6-12 in procedure "ext_parse" set ref 1231*
next                      4            based           fixed bin(18,0)          level 2 in structure "source" packed packed unsigned
                                                                                  unaligned dcl 5-693 in procedure "ext_parse" set
                                                                                  ref 1171* 11903*
next                      1            based           bit(18)                  level 2 in structure "statement" packed packed
                                                                                  unaligned dcl 5-721 in procedure "ext_parse" set
                                                                                  ref 1132* 6280* 6390* 6401* 6461*
next_constant             3            based           fixed bin(18,0)          level 2 packed packed unsigned unaligned dcl 5-256
                                                                                  set ref 8-91*
next_free_listing        44            based           fixed bin(18,0)          level 2 dcl 398 set ref 1231 1234 1237* 1237
next_free_operand        42            based           fixed bin(18,0)          level 2 dcl 398 set ref 9-20 9-22 9-23* 9-23 5455
                                                                                  5455* 5858 5858*
next_free_polish         41            based           fixed bin(18,0)          level 2 dcl 398 set ref 1221 1573 2284 2405* 2476
                                                                                  2504 2547* 2796 2882 3804 4382 4518 4613 6257 6346
                                                                                  6352 6353* 6353 6425 6429 6430* 6430 6436 6440
                                                                                  6441 6442* 6442 6452 6455 6459* 6459 6470 6473
                                                                                  6476 6477 6479* 6479 6969 6973 6995 7001 7008*
                                                                                  7018* 7020 7021 7028* 8045 8188 8350 8356 8361*
                                                                                  9016 9019 9022* 9663 9665 9669 9683* 9685 9690
                                                                                  9694* 9696 9703 9711* 9715* 9740 9766 9772 9796*
                                                                                  10868
next_header               3            based           fixed bin(18,0)          level 2 packed packed unsigned unaligned dcl 5-436
                                                                                  set ref 2000 2004* 2005 2008 2681 2691* 5239 5443
                                                                                  5446 5448 5449* 5449 5507 5540 5560 5562* 5562
                                                                                  5564* 5578 5598 5600* 5600 5602* 5619 5654* 5707
                                                                                  5784 5791* 5825 5827* 5827 5864 5868* 5870* 5889
                                                                                  5957*
next_label                3            based           fixed bin(18,0)          level 2 packed packed unsigned unaligned dcl 5-530
                                                                                  set ref 4903 6772*
next_line_index                 002245 automatic       fixed bin(20,0)          dcl 729 set ref 11064* 11739 11758 11773* 11788*
                                                                                  11789 11789* 11791 11796 11922*
next_member               7(18)        based           fixed bin(18,0)          level 2 packed packed unsigned unaligned dcl 5-844
                                                                                  set ref 2037* 2842* 2844* 5109 5112 5238 5367 5409
                                                                                  5425* 5434 5499 5526 5571 5609 5692 5706 5772*
                                                                                  5841* 5856 5878
next_node                              parameter       fixed bin(18,0)          dcl 8023 set ref 8019 8034 8046*
next_statement_label            002246 automatic       fixed bin(18,0)          dcl 730 set ref 10921 10924* 11072* 11100* 11104
                                                                                  11104* 12271* 12271 12281 12289 12304 12308*
next_subprogram           1(18)        based           fixed bin(18,0)          level 2 packed packed unsigned unaligned dcl 5-753
                                                                                  set ref 1210*
next_symbol               3            based           fixed bin(18,0)          level 2 in structure "master" packed packed unsigned
                                                                                  unaligned dcl 13221 in procedure
                                                                                  "check_entry_duplication" ref 13228 13234
next_symbol               3            based           fixed bin(18,0)          level 2 in structure "slave" packed packed unsigned
                                                                                  unaligned dcl 13222 in procedure
                                                                                  "check_entry_duplication" ref 13232
next_symbol               3            based           fixed bin(18,0)          level 2 in structure "symbol" packed packed unsigned
                                                                                  unaligned dcl 5-844 in procedure "ext_parse" set
                                                                                  ref 1605* 4936 4937* 4978* 5150* 5672 5807 8274*
                                                                                  9830*
next_token                      002247 automatic       bit(9)                   dcl 731 set ref 8615* 8616 8620
nextrec_field                          constant        fixed bin(17,0)          initial dcl 15-50 set ref 4676*
nl_ind                          016412 automatic       fixed bin(18,0)          dcl 8931 set ref 8966* 8968 8970 8973*
nl_off                          016413 automatic       fixed bin(18,0)          dcl 8932 set ref 8963* 8966 8966 8966
no_assumed_size_array
                          0(13)        based           bit(1)                   level 2 packed packed unaligned dcl 1034 ref 10388
no_attributes                   002652 constant        bit(47)                  initial dcl 732 set ref 1681* 1771* 2312* 2370*
no_dims                         014010 automatic       fixed bin(18,0)          dcl 6799 set ref 6819* 6827* 6830* 6842 6859 6866
                                                                                  6878 6879 6894 6897 6899 6907
no_keyword                      016317 automatic       fixed bin(17,0)          dcl 8483 set ref 8501* 8536* 8536 8545
no_more_source                         constant        fixed bin(18,0)          initial dcl 734 ref 1191 1198 10899 10912 11559
                                                                                  11766
no_op                                  constant        fixed bin(18,0)          initial dcl 4-197 ref 6473
no_token                               constant        bit(9)                   initial dcl 4-156 ref 10889 13169
node                                   based           structure                level 1 dcl 5-63
node_offset                     000125 automatic       fixed bin(17,0)          dcl 8-31 set ref 8-61* 8-62 8-63 8-65 8-69* 8-74*
                                                                                  8-76 8-78 8-80 8-89 8-91 8-93 8-95
node_ptr                        000126 automatic       pointer                  dcl 8-32 set ref 8-63* 8-65 8-65 8-69 8-78 8-80*
                                                                                  8-81 8-82 8-83 8-84 8-85
node_type                              based           fixed bin(4,0)           level 2 packed packed unaligned dcl 5-63 set ref
                                                                                  9-25* 6029 6977 6981 10185
non_zero_value                  014155 automatic       bit(5)                   dcl 7259 set ref 7420* 7429* 7431* 7436* 7438* 7441*
                                                                                  7443* 7784 7785 7788 7846* 7846
not                                    constant        bit(9)                   initial dcl 4-156 ref 10141
not_constant              0(12)        based           bit(1)                   level 2 packed packed unaligned dcl 1034 set ref
                                                                                  6995 9682 9758 10181*
not_found                       016660 automatic       bit(1)                   dcl 9867 in procedure "builtin_lookup" set ref 9947*
                                                                                  9948 9949*
not_found                       002250 automatic       bit(1)                   dcl 735 in procedure "parse_source" set ref 2675*
                                                                                  2678 2679* 2687
not_referencable          0(33)        based           bit(1)                   level 3 packed packed unaligned dcl 5-530 set ref
                                                                                  1384* 4888
not_scalar_ref            0(08)        based           structure                level 2 packed packed unaligned dcl 1034 set ref
                                                                                  10508* 10522*
not_simple_ref            0(10)        based           bit(1)                   level 3 packed packed unaligned dcl 1034 set ref
                                                                                  3236 3245 8804 9004 9757 10133* 10170* 10229*
                                                                                  10244* 10255* 10275* 10384 10402* 10558* 10580*
                                                                                  10584
not_token                              constant        fixed bin(18,0)          initial dcl 10059 ref 10141
null                                                   builtin function         dcl 736 ref 1143 1597 1597 3631 5551 5560 5576 5586
                                                                                  5598 5617 5761 5789 5814 5825 5829 5866 5887 11839
num_args                        000142 automatic       fixed bin(17,0)          dcl 5-150 set ref 4963* 4966 7062* 7102* 7102 7147
                                                                                  7147 7149 7151 7158
num_dims                        000143 automatic       fixed bin(3,0)           dcl 5-431 set ref 8161* 8162 8162 9580* 9581 9581
                                                                                  9590
number_field                           constant        fixed bin(17,0)          initial dcl 15-50 set ref 4658*
number_of_crefs          54            based           fixed bin(17,0)          level 2 dcl 398 set ref 1241 1389 1389 1392 1392
                                                                                  1582 2775 2905* 6508 6511* 6511 6512 6514 6516
number_of_dims                  002251 automatic       fixed bin(17,0)          dcl 737 in procedure "parse_source" set ref 3632*
                                                                                  3643* 3653 3673 3673
number_of_dims            0(05)        based           fixed bin(3,0)           level 2 in structure "dimension" packed packed
                                                                                  unaligned dcl 5-383 in procedure "ext_parse" set
                                                                                  ref 3643 5080 5086 6315 6830 7336 8163* 8841 8878
                                                                                  9583*
number_of_lines          53            based           fixed bin(17,0)          level 2 dcl 398 set ref 1106* 1583 10907 11784*
                                                                                  11784 11794 11795 11796 11797 11914
number_of_source_segments
                         52            based           fixed bin(8,0)           level 2 dcl 398 set ref 1105* 1153* 1153 11899*
                                                                                  11899
number_of_subs                  002252 automatic       fixed bin(17,0)          dcl 738 set ref 3632* 3648* 3648 3653 3659 3663 3673
numeric                         017464 automatic       bit(1)                   dcl 12257 set ref 12261* 12272* 12281 12289
object_base                     000110 automatic       pointer                  dcl 377 in procedure "ext_parse" set ref 411* 1282
                                                                                  1611 3384 3545 3575 3581 3586 3651 3653 3653 3656
                                                                                  3682 3682 3708 3710 3710 3713 3735 3737 3737 3740
                                                                                  3757 5246 5251 5257 5258 5266 5275 5280 5473 5474
                                                                                  5907 5923 5923 5995 6982 7152 7285 7295 7298 7299
                                                                                  7300 7305 7323 7343 7343 7360 7369 7379 7799 7802
                                                                                  7803 7807 7807 7818 7884 7892 7893 7894 7906 7906
                                                                                  7906 7917 9806 9806 9809 10460 10476 10529 10593
                                                                                  10615 10616 10618 10623 10631 10632 10633
object_base               4            based           pointer                  level 2 in structure "shared_structure" dcl 398
                                                                                  in procedure "ext_parse" set ref 411
object_max_len           36            based           fixed bin(19,0)          level 2 in structure "shared_structure" dcl 398
                                                                                  in procedure "ext_parse" set ref 420
object_max_len                  000121 automatic       fixed bin(19,0)          dcl 382 in procedure "ext_parse" set ref 420*
octal_const                            constant        bit(9)                   initial dcl 4-156 ref 13194
octal_digits                    001556 constant        char(8)                  initial dcl 7948 ref 7980
octal_value                     014156 automatic       bit(72)                  dcl 7260 in procedure "parse_data" set ref 7546*
                                                                                  7681 7705
octal_value                            parameter       bit(72)                  dcl 7949 in procedure "parse_a_constant" set ref
                                                                                  7938 7990*
octal_work                      014222 automatic       bit(72)                  dcl 7950 set ref 7975* 7986* 7990
off                             017555 automatic       fixed bin(18,0)          dcl 12552 in procedure "build_string" set ref 12559*
                                                                                  12564 12564 12566 12578* 12602* 12620* 12646*
                                                                                  12647 12657
off                             014011 automatic       fixed bin(18,0)          dcl 6800 in procedure "get_constant_offset" set ref
                                                                                  6810* 6861* 6869* 6873* 6873 6904 6904 6910
off                             020062 automatic       fixed bin(18,0)          dcl 13128 in procedure "split_token" set ref 13134*
                                                                                  13139 13146 13154 13156 13156 13164
off                             014160 automatic       fixed bin(18,0)          dcl 7261 in procedure "parse_data" set ref 7318*
                                                                                  7324* 7357* 7357 7395* 7448 7645
off                                    parameter       fixed bin(18,0)          dcl 12700 in procedure "convert_integer_constant"
                                                                                  ref 12670 12702 12702 12703 12705 12708 12708
                                                                                  12723 12723
offset                   17            based           fixed bin(24,0)          level 2 in structure "symbol" dcl 5-844 in procedure
                                                                                  "ext_parse" set ref 5213* 5359 5361* 5364* 5690
                                                                                  5780* 5853* 5853 5936
offset                    0(18) 005076 automatic       fixed bin(18,0)          array level 2 in structure "token_list" packed
                                                                                  packed unsigned unaligned dcl 847 in procedure
                                                                                  "parse_source" set ref 1297 1309 10698 10725 10736
                                                                                  10758 10763* 10941* 11004 11288* 12914 12939 12984
                                                                                  12995 13011 13134 13134* 13150* 13150 13164* 13188
offset                          000106 automatic       fixed bin(18,0)          dcl 9-13 in procedure "create_node" set ref 9-22*
                                                                                  9-24 9-25 9-26
offset                          013514 automatic       fixed bin(24,0)          dcl 5904 in procedure "get_equiv_var" set ref 5923*
                                                                                  5926 5936* 5936 5973
offset                                 parameter       fixed bin(24,0)          dcl 5988 in procedure "verify_offset_type_kludge"
                                                                                  ref 5976 5991
offset                                 parameter       fixed bin(18,0)          dcl 12778 in procedure "convert_real_constant" ref
                                                                                  12767 12790 12791 12803 12811
ok_second_statement       0(02) 000000 constant        bit(1)                   initial array level 2 packed packed unaligned
                                                                                  dcl 892 ref 3073
old                             002253 automatic       fixed bin(18,0)          dcl 739 in procedure "parse_source" set ref 2816*
                                                                                  2819* 2824 2824 2826 2834 2870* 2872 2872 2874
old                             013344 automatic       fixed bin(18,0)          dcl 4833 in procedure "declaration_processor" set
                                                                                  ref 5267* 5301 5317 5318* 5330* 5335* 5379* 5432
old_format                             based           structure                level 1 dcl 13-49
op                              000123 automatic       fixed bin(18,0)          dcl 7880 in procedure "value" set ref 7893* 7894
                                                                                  7894 7896 7896 7898 7898 7899 7906
op                              014050 automatic       fixed bin(18,0)          dcl 6961 in procedure
                                                                                  "get_data_statement_expression" set ref 6974* 6975
                                                                                  6976 6982 6992 6992 7012* 7016* 7022* 7023 7023
                                                                                  7023* 7025*
op_chars                        000746 constant        char(4)                  initial array dcl 13180 ref 13204
op_code                                based           fixed bin(17,0)          level 2 in structure "statement" dcl 5-721
                                                                                  in procedure "ext_parse" set ref 1131* 6192*
op_code                         002254 automatic       fixed bin(17,0)          dcl 740 in procedure "parse_source" set ref 3860*
                                                                                  3865* 3870* 3935 4080* 4084* 4108
op_code                         001405 constant        fixed bin(18,0)          initial array dcl 10081 in procedure
                                                                                  "parse_expression" ref 10456 10458
op_code_or_operand                     parameter       fixed bin(18,0)          dcl 9804 ref 9800 9800 9809
op_name                         016341 automatic       fixed bin(17,0)          dcl 8652 set ref 8658* 8667* 8682
op_name_or_opnd_or_data                parameter       fixed bin(18,0)          dcl 6420 ref 6407 6407 6407 6429
opc                             016677 automatic       fixed bin(17,0)          dcl 10060 set ref 10215* 10222* 10239* 10250* 10262*
                                                                                  10285* 10296 10310 10312 10495*
open_op                         003025 constant        fixed bin(18,0)          initial dcl 4-197 set ref 4384*
open_opr                               constant        fixed bin(4,0)           initial dcl 15-19 ref 4364
opened_field                           constant        fixed bin(17,0)          initial dcl 15-50 set ref 4655*
openfile_op                            constant        fixed bin(18,0)          initial dcl 4-197 set ref 4333*
operand_base                    000106 automatic       pointer                  dcl 376 in procedure "ext_parse" set ref 410* 9-24
                                                                                  9-25 8-61 8-63 8-76 8-76 8-80 8-91 1175 1205 1210
                                                                                  1384 1389 1605 1685 1772 1782 1784 1785 1786 1922
                                                                                  1998 2000 2004 2005 2008 2027 2035 2035 2037 2037
                                                                                  2039 2041 2045 2045 2045 2045 2111 2114 2114 2114
                                                                                  2146 2161 2181 2253 2305 2339 2340 2366 2415 2500
                                                                                  2523 2527 2527 2585 2612 2615 2679 2681 2691 2702
                                                                                  2741 2796 2820 2820 2822 2824 2834 2835 2837 2839
                                                                                  2842 2844 2863 2866 2870 2872 2872 2874 2877 2878
                                                                                  2882 2891 2908 2936 2936 2936 3327 3556 3558 3562
                                                                                  3619 3642 3656 3713 3740 4058 4058 4866 4866 4871
                                                                                  4871 4873 4873 4874 4874 4883 4892 4896 4934 4948
                                                                                  4948 4950 4950 4951 4951 4962 4967 4978 5012 5076
                                                                                  5111 5112 5132 5133 5138 5139 5140 5150 5175 5177
                                                                                  5190 5192 5221 5258 5358 5406 5425 5431 5446 5448
                                                                                  5449 5489 5496 5517 5523 5554 5569 5589 5607 5632
                                                                                  5638 5642 5646 5653 5665 5682 5689 5694 5703 5704
                                                                                  5741 5747 5765 5772 5793 5817 5833 5841 5850 5876
                                                                                  5908 5916 5916 5934 5942 5953 6021 6029 6045 6056
                                                                                  6056 6104 6120 6138 6151 6174 6175 6176 6177 6215
                                                                                  6299 6303 6310 6314 6326 6334 6540 6549 6549 6626
                                                                                  6639 6643 6694 6715 6748 6748 6765 6766 6767 6768
                                                                                  6772 6808 6823 6928 6937 6938 6976 7051 7148 7161
                                                                                  7181 7181 7181 7181 7188 7189 7311 7312 7312 7332
                                                                                  7332 7367 7413 7422 7422 7422 7438 7456 7474 7552
                                                                                  7553 7575 7580 7582 7584 7587 7592 7594 7598 7643
                                                                                  7648 7648 7650 7650 7662 7677 7757 7785 7785 7788
                                                                                  7788 7788 7788 7788 7788 7896 8051 8152 8163 8164
                                                                                  8165 8166 8167 8168 8169 8251 8258 8268 8269 8274
                                                                                  8280 8365 8386 8679 8754 8795 8833 8957 8962 8963
                                                                                  8968 8973 8988 9004 9024 9049 9582 9586 9672 9689
                                                                                  9696 9709 9714 9762 9778 9826 9830 9930 10173
                                                                                  10183 10258 10359 10388 10596 10634 10647 10647
                                                                                  10703 10706 10707 10741 11905 12737 12925 12927
                                                                                  12929 12930 12932 13002 13228 13230 13230 13230
                                                                                  13232 13234
operand_base              2            based           pointer                  level 2 in structure "shared_structure" dcl 398
                                                                                  in procedure "ext_parse" set ref 410
operand_max_len          35            based           fixed bin(19,0)          level 2 dcl 398 set ref 9-20 9-29 9-29
operand_type              0(09)        based           fixed bin(4,0)           level 2 in structure "constant" packed packed
                                                                                  unaligned dcl 5-256 in procedure "ext_parse" set
                                                                                  ref 8-82*
operand_type              0(09)        based           fixed bin(4,0)           level 2 in structure "label" packed packed unaligned
                                                                                  dcl 5-530 in procedure "ext_parse" set ref 6765*
operator_follows                017217 automatic       bit(1)                   dcl 10831 set ref 11154* 11168* 11264* 11273 12473*
                                                                                  12480* 12496 12505*
opnd_idx                        013540 automatic       fixed bin(24,0)          dcl 6015 set ref 6028* 6029 6029 6029*
opnd_ptr                        014052 automatic       pointer                  dcl 6961 in procedure
                                                                                  "get_data_statement_expression" set ref 6976* 6977
                                                                                  6978 6981
opnd_ptr                        016612 automatic       pointer                  dcl 9657 in procedure "get_one_bound" set ref 9672*
                                                                                  9673 9673
optimize                 11(01)        based           bit(1)                   level 3 packed packed unaligned dcl 5-753 set ref
                                                                                  8810 8981
option                          017416 automatic       char(32)                 packed unaligned dcl 12167 in procedure "lex_global"
                                                                                  set ref 12171* 12173 12175 12175 12175 12175
                                                                                  12177*
option                                 parameter       char(32)                 packed unaligned dcl 12209 in procedure
                                                                                  "get_next_option" set ref 12205 12217* 12226*
                                                                                  12235* 12241*
option                          017434 automatic       char(32)                 packed unaligned dcl 12187 in procedure
                                                                                  "lex_options" set ref 12191* 12193 12195 12195
                                                                                  12195 12195 12198*
options                  11            based           structure                level 2 in structure "subprogram" dcl 5-753
                                                                                  in procedure "ext_parse" set ref 1222*
options                 113            based           structure                level 2 in structure "shared_structure" dcl 398
                                                                                  in procedure "ext_parse"
options_flag                           parameter       bit(2)                   dcl 11726 set ref 11639 11741 11742 11931 11934
                                                                                  11943 11944* 11962 11963 12153 12153*
orig_stack_index                000124 automatic       fixed bin(18,0)          dcl 7880 set ref 7887* 7900 7904 7914 7916
original                        013346 automatic       pointer                  dcl 4834 set ref 5346* 5352* 5387* 5396
other_segment_info              002256 automatic       structure                level 1 dcl 741 set ref 1593
out                             013241 automatic       bit(36)                  dcl 1087 set ref 3234* 3236 3244* 3245 6971* 6995
                                                                                  8797* 8799* 8804 8832 9000* 9004 9018* 9280* 9282
                                                                                  9313* 9315 9666* 9682 9742* 9757 9758 9784 9784
out_of_sequence                        constant        fixed bin(18,0)          initial dcl 742 ref 11046
output_element                  001560 constant        bit(36)                  initial dcl 1071 ref 9249
p                                      parameter       pointer                  dcl 370 in procedure "ext_parse" ref 54 407
p                               002362 automatic       fixed bin(18,0)          dcl 743 in procedure "parse_source" set ref 8834*
                                                                                  8855* 8855 8865* 8865 8875* 8875 8880* 8880 8883
param_attr                      002650 constant        bit(47)                  initial dcl 744 set ref 7085*
param_conflicts                 002646 constant        bit(47)                  initial dcl 746 set ref 7085*
param_count                     013661 automatic       fixed bin(17,0)          dcl 6235 set ref 6294* 6296* 6309* 6309 6366 6367
                                                                                  6369
param_ptr                       002364 automatic       pointer                  dcl 748 set ref 2500* 2503 2507 2515 2520 2521 2522
                                                                                  2523 2527 2527 2527 2535 2541
param_variable_attrs            002644 constant        bit(47)                  initial dcl 749 set ref 1781* 3835 7135
parameter                              based           structure                level 1 dcl 11-7 in procedure "parse_source"
parameter                11(04)        based           bit(1)                   level 4 in structure "symbol" packed packed
                                                                                  unaligned dcl 5-844 in procedure "ext_parse" set
                                                                                  ref 4996 5023 5059 5073 5122 5633 5742 6048 6128
parameter_info                  013232 automatic       structure                level 1 dcl 883 set ref 2507 2507 7004 7004 8359
                                                                                  8359 9706 9706 9775 9775
parameter_statement                    constant        fixed bin(18,0)          initial dcl 751 ref 11337 11340
paren_array                     002366 automatic       fixed bin(18,0)          array dcl 752 set ref 11354*
paren_count                     003612 automatic       fixed bin(18,0)          dcl 753 set ref 9104 9109 9122* 9138 9145* 9145 9146
                                                                                  9147 9149 9151 9154 9187
paren_info                      012412 automatic       structure                array level 1 dcl 875 set ref 9138 9140
paren_level                     020044 automatic       fixed bin(18,0)          dcl 12901 in procedure "get_next_token" set ref
                                                                                  12962* 12963 12964* 12964 12966* 12966 12968
paren_level                     017220 automatic       fixed bin(18,0)          dcl 10832 in procedure "statement_lex" set ref
                                                                                  10886* 11180 11182 11202 11326 11352* 11352 11354
                                                                                  11362* 11362 11363 11370 11397
parent                    7            based           fixed bin(18,0)          level 2 packed packed unsigned unaligned dcl 5-844
                                                                                  set ref 2041* 2834* 2870 2877* 5432* 5646 5669*
                                                                                  5742 5762 5779* 5785 5802* 5852* 5932 5933 5967*
                                                                                  6056 6056 6056 6176* 6549 6549 6549 7051* 7422
                                                                                  7788 7788 7788 10647 10647 10647
parm                      3     000122 automatic       fixed bin(24,0)          level 2 dcl 383 set ref 433* 435* 6128 6132
parse_ptr                       000100 automatic       pointer                  dcl 372 set ref 406* 423 1595 2612 2615
parse_structure                        based           structure                level 1 dcl 395
partial_offset                  014161 automatic       fixed bin(18,0)          dcl 7262 set ref 7448* 7463 7466 7498* 7498 7509
                                                                                  7509*
passed_as_arg             0(03)        based           bit(1)                   level 4 in structure "expression" packed packed
                                                                                  unaligned dcl 1034 in procedure "parse_source" set
                                                                                  ref 10173 10185 10396 10510* 10584*
passed_as_arg             0(28)        based           bit(1)                   level 4 in structure "constant" packed packed
                                                                                  unaligned dcl 5-256 in procedure "ext_parse" set
                                                                                  ref 10173*
passed_as_arg             0(28)        based           bit(1)                   level 5 in structure "symbol" packed packed
                                                                                  unaligned dcl 5-844 in procedure "ext_parse" set
                                                                                  ref 4866 5023 5037 5044
pathname                  5            based           varying char(256)        level 2 dcl 5-693 set ref 1177* 1179* 1179 1180*
                                                                                  1180 11907* 11909*
pause_op                               constant        fixed bin(18,0)          initial dcl 4-197 ref 4084
pending_entry                   003613 automatic       structure                array level 1 dcl 754 set ref 7166 7171 7171
pending_entry_cnt               003613 automatic       fixed bin(17,0)          dcl 757 set ref 1279* 1374 1529 2901 4065 6186* 6260
                                                                                  6400 6404* 7166 7167* 7167 7168 7169
pending_entry_idx               013662 automatic       fixed bin(17,0)          dcl 6235 set ref 6260* 6261 6269 6279 6389*
penultimate_token_type          017221 automatic       bit(9)                   dcl 10833 set ref 10889* 10964* 11182 11182
percent_index                   017406 automatic       fixed bin(18,0)          dcl 11727 set ref 11802* 11804 11804 11807 11807
                                                                                  11807 11812 11931 11941 12169 12189
percent_line_flag               017222 automatic       bit(2)                   dcl 10834 set ref 11062* 11069* 11069 11079*
plus                                   constant        bit(9)                   initial dcl 4-156 ref 7955 10135 10680 11306
polish_base                     000104 automatic       pointer                  dcl 375 in procedure "ext_parse" set ref 409* 2284
                                                                                  2414 2435 2435 3199 3371 3804 4249 4468 4469 4470
                                                                                  4471 4566 4567 4568 4569 4709 4710 4711 4896 5050
                                                                                  5104 5105 6026 6028 6344 6352 6352 6367 6429 6440
                                                                                  6456 6461 6473 6476 6477 6514 6974 6984 7007 7022
                                                                                  7460 7471 7487 7502 7654 7757 7759 7759 7762 7766
                                                                                  7766 7769 7769 7771 7775 7778 7851 7853 7853 8032
                                                                                  8034 8035 8036 8053 8188 8966 8968 8970 8973 9423
                                                                                  9670 9672 9677 9677 9690 9696 9714 9762 10595
                                                                                  10605
polish_base                            based           pointer                  level 2 in structure "shared_structure" dcl 398
                                                                                  in procedure "ext_parse" set ref 409
polish_idx                      014054 automatic       fixed bin(18,0)          dcl 6961 in procedure
                                                                                  "get_data_statement_expression" set ref 6973* 6974
                                                                                  6984* 7021* 7022*
polish_idx                      016614 automatic       fixed bin(18,0)          dcl 9657 in procedure "get_one_bound" set ref 9669*
                                                                                  9670 9672 9677 9677*
polish_idx                      013663 automatic       fixed bin(17,0)          dcl 6235 in procedure "process_pending_entries" set
                                                                                  ref 6350* 6352*
polish_idx                      013541 automatic       fixed bin(18,0)          dcl 6015 in procedure "validate_array_bound" set ref
                                                                                  6027* 6028*
polish_max_len                  000120 automatic       fixed bin(19,0)          dcl 381 in procedure "ext_parse" set ref 419* 6346
                                                                                  6346 6346 6425 6425 6425 6436 6436 6436 6452 6452
                                                                                  6452 6470 6470 6470
polish_max_len           34            based           fixed bin(19,0)          level 2 in structure "shared_structure" dcl 398
                                                                                  in procedure "ext_parse" set ref 419
polish_string                          based           fixed bin(19,0)          array dcl 374 set ref 2284* 2414* 2435* 2435 3199*
                                                                                  3371* 3804* 4249* 4468* 4469* 4470* 4471* 4566*
                                                                                  4567* 4568* 4569* 4709* 4710* 4711* 4896 5050
                                                                                  5104* 5105* 6026 6028 6344 6352* 6352 6367* 6429*
                                                                                  6440* 6456 6461 6473* 6476* 6477* 6514 6974 6984*
                                                                                  7007* 7022 7460 7471 7487 7502 7654 7757 7759*
                                                                                  7759 7762* 7766 7766 7769* 7769 7771* 7775* 7778*
                                                                                  7851 7853* 7853 8032 8034* 8035* 8036* 8053* 8188*
                                                                                  8966 8968 8970 8973 9423* 9670 9672 9677 9677
                                                                                  9690* 9696 9714 9762 10595 10605*
pop_stack                       016700 automatic       bit(1)                   dcl 10061 set ref 10451* 10452 10461* 10467*
position                  1     012412 automatic       fixed bin(18,0)          array level 2 dcl 875 set ref 3597* 3773 9110 9127*
                                                                                  9149* 9302* 9325
prec                            011016 automatic       fixed bin(8,0)           array level 2 packed packed unaligned dcl 853 set
                                                                                  ref 12518* 12791 13066
precision                       017223 automatic       fixed bin(18,0)          dcl 10835 set ref 11151* 11153 11166* 11260* 11260
                                                                                  11290 11294 11299 11300 12518
prev_LA_hdrp                    013350 automatic       pointer                  dcl 4835 set ref 5761* 5783* 5789 5791 5829* 5863*
                                                                                  5866 5868
prev_common_hdrp                013352 automatic       pointer                  dcl 4836 set ref 5551* 5560 5562 5573* 5576 5578
prev_equiv_hdrp                 013354 automatic       pointer                  dcl 4837 set ref 5586* 5598 5600 5611* 5615* 5617
                                                                                  5619 5814* 5825 5827 5881* 5885* 5887 5889
previous                        016434 automatic       fixed bin(18,0)          dcl 9096 set ref 9165* 9174
previous_subprogram       1            based           fixed bin(18,0)          level 2 packed packed unsigned unaligned dcl 5-753
                                                                                  set ref 1209*
print_message          1530            based           entry variable           level 2 dcl 398 set ref 9-29 8-45 1193 1408 1410
                                                                                  1428 1453 1457 1461 1465 1469 1473 1477 1481 1484
                                                                                  1488 1492 1497 1538 1543 1668 1849 1861 1870 1875
                                                                                  1884 1922 2027 2050 2054 2098 2111 2134 2144 2146
                                                                                  2159 2161 2179 2181 2253 2273 2305 2312 2320 2331
                                                                                  2366 2370 2373 2408 2431 2484 2571 2608 2618 2635
                                                                                  2642 2655 2702 2706 2727 2741 2745 2830 2867 2886
                                                                                  3017 3055 3073 3091 3094 3105 3108 3112 3123 3170
                                                                                  3174 3177 3182 3215 3236 3245 3276 3299 3368 3435
                                                                                  3530 3546 3556 3558 3562 3607 3634 3638 3660 3664
                                                                                  3674 3685 3692 3705 3716 3720 3744 3748 3821 3826
                                                                                  3927 4005 4044 4058 4091 4131 4136 4219 4460 4558
                                                                                  4698 4700 4726 4759 4775 4777 4784 4866 4885 4888
                                                                                  5012 5023 5073 5125 5186 5195 5201 5208 5217 5229
                                                                                  5234 5295 5304 5330 5335 5379 5398 5505 5537 5918
                                                                                  5927 5944 5999 6048 6136 6167 6346 6425 6436 6452
                                                                                  6470 6496 6508 6614 6683 6686 6695 6701 6707 6709
                                                                                  6716 6724 6818 6826 6852 6860 6867 6897 6904 6907
                                                                                  7012 7014 7016 7054 7085 7158 7171 7185 7287 7313
                                                                                  7348 7353 7371 7375 7381 7385 7407 7426 7434 7477
                                                                                  7482 7490 7523 7536 7583 7598 7613 7651 7656 7673
                                                                                  7691 7700 7827 7919 7923 7927 7931 7982 7995 8003
                                                                                  8007 8087 8096 8109 8128 8322 8327 8341 8345 8381
                                                                                  8386 8393 8398 8571 8574 8577 8580 8587 8589 8654
                                                                                  8663 8691 8726 8738 8740 8749 8778 8780 8804 8817
                                                                                  8838 8906 8940 9004 9036 9114 9140 9161 9206 9213
                                                                                  9255 9260 9282 9336 9356 9476 9495 9504 9522 9544
                                                                                  9571 9599 9608 9623 9806 9973 10121 10125 10129
                                                                                  10156 10202 10231 10246 10258 10271 10277 10299
                                                                                  10384 10388 10396 10399 10407 10411 10422 10431
                                                                                  10437 10441 10491 10501 10518 10537 10544 10554
                                                                                  10601 10899 10913 10947 10958 10971 11081 11109
                                                                                  11112 11146 11220 11234 11237 11282 11292 11600
                                                                                  11617 11815 11822 11831 11841 11850 11856 11871
                                                                                  11882 11936 11945* 11964* 11995 12067 12074 12086
                                                                                  12146 12175* 12195* 12277 12281 12289 12306 12405
                                                                                  12410 12417 12427 12511 12529 12573 12626 12635
                                                                                  12652 12708 12723 12741 12815 12835 12848 12850
                                                                                  12857 12859 12868 12870 13002 13050 13078 13101
                                                                                  13146 13156 13230
process_param_list_op                  constant        fixed bin(18,0)          initial dcl 4-197 set ref 6370*
produce_listing                 003614 automatic       bit(1)                   dcl 758 set ref 1125* 1230 1387 1581 2016 6646 6668
                                                                                  8253 8283 8970 9849 11793
profile_size             55            based           fixed bin(17,0)          level 2 dcl 398 set ref 1108* 1550* 1550 2785* 2785
                                                                                  2927* 2927 2996* 2996 3083* 3083 3164* 3164 3211*
                                                                                  3211 3291* 3291 3403* 3403 3419* 3419 3817* 3817
                                                                                  3875* 3875 3948* 3948 3967* 3967 4020* 4020 4087*
                                                                                  4087 4120* 4120 4157* 4157 4181* 4181 4190* 4190
                                                                                  4268* 4268 4287* 4287 4311* 4311 4355* 4355 4491*
                                                                                  4491 4588* 4588 4722* 4722
prompt_field                           constant        fixed bin(17,0)          initial dcl 15-50 set ref 4437*
put_in_map                3            based           bit(1)                   level 3 in structure "statement" packed packed
                                                                                  unaligned dcl 5-721 in procedure "ext_parse" set
                                                                                  ref 6195*
put_in_map                             constant        bit(9)                   initial dcl 759 in procedure "parse_source" ref 1639
                                                                                  1702 1734 4037
put_in_profile                         constant        bit(9)                   initial dcl 760 ref 1551 2786 2929 2998 3084 3167
                                                                                  3213 3293 3405 3421 3819 3877 3950 3970 4022 4089
                                                                                  4122 4159 4183 4192 4270 4289 4313 4357 4493 4590
                                                                                  4724
put_in_symtab             0(34)        based           bit(1)                   level 3 packed packed unaligned dcl 5-844 set ref
                                                                                  8968*
q                                      parameter       pointer                  dcl 371 ref 54 406
quote                           001274 constant        char(1)                  initial dcl 10836 set ref 11409*
quoted_string                          constant        fixed bin(17,0)          initial dcl 13-78 ref 8121
r_significant_digits            020015 automatic       fixed bin(18,0)          dcl 12779 in procedure "convert_real_constant" set
                                                                                  ref 12797* 12799* 12808* 12814 12822 12822
r_significant_digits            020045 automatic       fixed bin(18,0)          dcl 12902 in procedure "get_next_token" set ref
                                                                                  13071* 13073* 13075 13084*
rc_t                                   constant        bit(6)                   initial packed unaligned dcl 10-6 ref 8-84
rd_sw                                  parameter       bit(1)                   dcl 8435 in procedure "parse_implied_io" ref 8422
                                                                                  8442
rd_sw                                  parameter       bit(1)                   dcl 8482 in procedure "parse_io" ref 8469 8488
rdigits                         020046 automatic       fixed bin(18,0)          dcl 12903 in procedure "get_next_token" set ref
                                                                                  13065* 13066 13071 13071 13084*
rdigits                         020016 automatic       fixed bin(18,0)          dcl 12780 in procedure "convert_real_constant" set
                                                                                  ref 12790* 12791 12797 12797 12806* 12822 12822
rdigits_parm                           parameter       fixed bin(18,0)          dcl 12781 ref 12803 12806
read                      0(02) 013240 automatic       bit(1)                   level 3 packed packed unaligned dcl 885 set ref
                                                                                  3979* 8442* 8488* 8577 8580 8634 8797 8812 8902
                                                                                  8935 8973 8983 9049 9243
read_internal_file_op                  constant        fixed bin(18,0)          initial dcl 4-197 set ref 8902*
read_namelist_op                       constant        fixed bin(18,0)          initial dcl 4-197 set ref 8983*
read_op                                constant        fixed bin(18,0)          initial dcl 4-197 set ref 9244*
real_bits                       020020 automatic       bit(72)                  dcl 12783 set ref 12862 12862 12864 12873 12873
                                                                                  12875
real_const                             constant        bit(9)                   initial dcl 4-156 ref 10690 10722 11152 11255 12454
                                                                                  13198
real_flt_dec_extended_dtype            constant        fixed bin(17,0)          initial dcl 7-25 ref 12862 12873
real_mode                       003301 constant        fixed bin(4,0)           initial dcl 4-106 set ref 1259 1260 1267 1268 7689
                                                                                  7714 7723 8391 8395 10707 10731 10737 10745 12749
                                                                                  12752* 12759 12762 13085 13087*
real_statement                  013356 automatic       fixed bin(18,0)          dcl 4838 set ref 4857* 5476
rec_field                              constant        fixed bin(17,0)          initial dcl 15-50 ref 8574 8778 8782
recl_field                             constant        fixed bin(17,0)          initial dcl 15-50 set ref 4431* 4646*
record_number_op                       constant        fixed bin(18,0)          initial dcl 4-197 set ref 8786*
referenced                0(27)        based           bit(1)                   level 5 in structure "symbol" packed packed
                                                                                  unaligned dcl 5-844 in procedure "ext_parse" set
                                                                                  ref 1922 2027 2111 2253 2305 2366 2702 2741 2863
                                                                                  5023 8988* 9972
referenced                0(27)        based           bit(1)                   level 5 in structure "label" packed packed unaligned
                                                                                  dcl 5-530 in procedure "ext_parse" set ref 1389
                                                                                  4885
referenced_executable
                          0(29)        based           bit(1)                   level 4 packed packed unaligned dcl 5-530 set ref
                                                                                  4888
rel_constant                           constant        fixed bin(4,0)           initial dcl 4-120 ref 6765
reloc                     2(12)        based           bit(6)                   level 2 packed packed unaligned dcl 5-256 set ref
                                                                                  8-84*
rep_count                              parameter       fixed bin(18,0)          dcl 8025 set ref 8019 8035 8047*
reset_arg_bit             0(06)        based           bit(1)                   level 2 packed packed unaligned dcl 1034 ref 10510
reset_stack                            based           bit(36)                  array dcl 761 set ref 1611*
rest_of_line                           based           char                     level 2 packed packed unaligned dcl 10850 set ref
                                                                                  11124 11128 11227 11502 11535 11541 11542 11571
                                                                                  11578 11625 11630 11802 11804 11807 11807 11814
                                                                                  11819 11821 11826 11828 11831 11831 11835 11931
                                                                                  11941 11990 11993 11995 12002 12002 12002 12002
                                                                                  12007 12010 12010 12012 12012 12012 12017 12029
                                                                                  12030 12039 12040 12044 12062 12064 12067* 12074
                                                                                  12074 12082 12100 12102 12102 12104 12109 12116
                                                                                  12127 12127 12132 12143 12159 12215 12218 12225
                                                                                  12227 12231 12232 12239 12241 12264 12350 12354
                                                                                  12390 12394 12564 12582 12605
rest_of_text                           based           char                     level 2 packed packed unaligned dcl 10854 ref 11788
restore_prs               0(32)        based           bit(1)                   level 3 packed packed unaligned dcl 5-530 set ref
                                                                                  8679*
result_location           2(15) 013232 automatic       fixed bin(18,0)          level 2 packed packed unaligned dcl 883 set ref 2521
                                                                                  2523 2527 2527 2535 7007 8364 9709 9778
return_bits                            parameter       bit(36)                  dcl 10062 set ref 9990 10571*
return_op                              constant        fixed bin(18,0)          initial dcl 4-197 set ref 6491*
return_value                    003615 automatic       fixed bin(18,0)          dcl 762 set ref 1754* 1766* 1782 1784 4055* 4058
                                                                                  4866 4866 4866* 4869* 4871 4873 4874 4948 4950
                                                                                  4951 5122 5138 5140 6488* 10358
return_value_param              003616 automatic       fixed bin(18,0)          dcl 763 set ref 1719* 1781* 1785 3835 3835* 3839*
                                                                                  4871 4873 4874 5135 6199* 6294 6377 6378* 6487*
                                                                                  7125* 7135 7135* 7139*
returned_index                  016266 automatic       fixed bin(18,0)          dcl 8213 set ref 8244* 8249 8251 8253* 8257 8258*
                                                                                  8258 8259 8264 8266* 8268 8269 8272 8274 8276 8278
                                                                                  8280 8283* 8287
rewind_op                              constant        fixed bin(18,0)          initial dcl 4-197 ref 3860
rewind_opr                             constant        fixed bin(4,0)           initial dcl 15-19 ref 3862
right_parn                             constant        bit(9)                   initial dcl 4-156 ref 1309 1492 1897 2097 2165 2185
                                                                                  2204 2336 2553 2805 2852 2947 3008 3332 3354 3594
                                                                                  3671 3725 3733 3925 4458 4556 4695 6890 7067 7109
                                                                                  8371 8545 8592 8620 8644 9159 9298 9427 9563 10319
                                                                                  10332 10472 10481 10486 10524 10535 11328 11328
                                                                                  11358 11397 12966
rounding                  0(10) 013232 automatic       bit(1)                   level 2 packed packed unaligned dcl 883 set ref
                                                                                  2505* 6999* 8357* 9704* 9773*
rprec                           001450 constant        fixed bin(18,0)          initial array dcl 10079 ref 10449
rsd_parm                               parameter       fixed bin(18,0)          dcl 12782 ref 12803 12808
rtrim                                                  builtin function         dcl 765 ref 11893 11907 11907 11909 11909 12797
                                                                                  12822 13071
runtime_format                         based           structure                level 1 dcl 13-32
save_attributes                 002642 constant        bit(47)                  initial dcl 766 set ref 2706*
save_conflicts                  002640 constant        bit(47)                  initial dcl 768 set ref 2706* 2745*
save_current_token              003617 automatic       fixed bin(18,0)          dcl 770 set ref 3522* 3599 9275* 9303
save_index                             parameter       fixed bin(18,0)          dcl 10063 ref 9990 10094
saved_number_of_crefs           003620 automatic       fixed bin(18,0)          dcl 771 set ref 2775* 2905
saved_polish                    016414 automatic       fixed bin(18,0)          dcl 8933 set ref 9016* 9019 9022
saved_stack_index               014075 automatic       fixed bin(18,0)          dcl 7047 set ref 7063* 7152 7162
scalar_conflicts                002636 constant        bit(47)                  initial dcl 772 ref 3558 10207 10362
scale                     0(09) 011016 automatic       fixed bin(8,0)           array level 2 packed packed unaligned dcl 853 set
                                                                                  ref 12519* 12790 13065
search                                                 builtin function         dcl 774 ref 11826 12231
seg_chain_end_ptr               003624 automatic       pointer                  dcl 776 set ref 1175* 11903 11905*
seg_ptr                         003622 automatic       pointer                  dcl 775 set ref 1171 1175* 1177 1179 1179 1180 1180
                                                                                  1184 1185 1216 1216 11771* 11860 11905* 11907
                                                                                  11909 11912 11913 11914
segment_declared                000134 automatic       structure                level 1 dcl 392 set ref 11744* 11945 11945 11948*
                                                                                  11948 11950 11950 11954 11964 11964 11967* 11967
                                                                                  11969 11969 11973 12175 12175
segment_options                 000130 automatic       structure                level 1 dcl 390 set ref 11743* 11746 11950 11950
                                                                                  11951 11953 11969 11969 11970 11972 12195 12195
segname                  65            based           varying char(32)         level 2 dcl 14-6 ref 1155 1157 1178 1180
sequential_access                      constant        bit(2)                   initial dcl 15-8 ref 8580 8634
sequential_field                       constant        fixed bin(17,0)          initial dcl 15-50 set ref 4667*
set                       0(26)        based           bit(1)                   level 5 in structure "symbol" packed packed
                                                                                  unaligned dcl 5-844 in procedure "ext_parse" set
                                                                                  ref 4866 4894 4899* 5023 5037 5044 8973* 9049*
set                       0(26)        based           bit(1)                   level 5 in structure "label" packed packed unaligned
                                                                                  dcl 5-530 in procedure "ext_parse" set ref 4885
                                                                                  6683 6705
set                       0(01)        based           bit(1)                   level 4 in structure "expression" packed packed
                                                                                  unaligned dcl 1034 in procedure "parse_source" ref
                                                                                  10125 10156 10231 10246 10258 10277 10441
set_attributes                         parameter       bit(1)                   packed unaligned dcl 9868 ref 9858 9979
set_no_symbol_bits              002622 constant        bit(36)                  initial dcl 1071 set ref 6971* 9666* 9742* 10095
set_reference                          constant        bit(36)                  initial dcl 1071 set ref 2946* 2957* 4144* 4640*
                                                                                  4643* 4646* 4649* 4652* 4655* 4658* 4661* 4664*
                                                                                  4667* 4670* 4673* 4676* 4679* 4740* 8700* 9280*
set_storage                     016701 automatic       bit(1)                   dcl 10064 set ref 10095* 10207 10267 10353 10612
                                                                                  10635
sf_def_op                              constant        fixed bin(18,0)          initial dcl 4-197 set ref 2800*
sf_op                                  constant        fixed bin(18,0)          initial dcl 4-197 ref 10250
shared_pointer            4     013232 automatic       pointer                  level 2 dcl 883 set ref 1126*
shared_ptr                      000102 automatic       pointer                  dcl 373 set ref 407* 409 410 411 413 414 415 416 419
                                                                                  420 429 433 437 441 9-20 9-20 9-22 9-23 9-23 9-29
                                                                                  9-29 9-29 8-45 8-87 8-87 8-89 8-89 8-91 8-93 1104
                                                                                  1105 1106 1108 1109 1115 1123 1124 1125 1126 1142
                                                                                  1142 1149 1149 1151 1153 1153 1165 1165 1166 1166
                                                                                  1167 1167 1169 1193 1204 1205 1207 1209 1210 1210
                                                                                  1212 1212 1214 1214 1216 1221 1231 1231 1234 1234
                                                                                  1236 1237 1237 1237 1239 1239 1241 1241 1242 1343
                                                                                  1344 1344 1389 1389 1392 1392 1408 1410 1428 1453
                                                                                  1457 1461 1465 1469 1473 1477 1481 1484 1488 1492
                                                                                  1497 1525 1538 1543 1550 1550 1565 1573 1582 1582
                                                                                  1583 1605 1605 1668 1668 1670 1670 1849 1861 1870
                                                                                  1875 1884 1922 2027 2050 2054 2098 2102 2111 2134
                                                                                  2144 2146 2159 2161 2179 2181 2253 2273 2284 2305
                                                                                  2312 2320 2331 2366 2370 2373 2405 2405 2406 2408
                                                                                  2431 2476 2484 2504 2527 2547 2571 2608 2612 2618
                                                                                  2635 2642 2655 2702 2706 2727 2741 2745 2775 2785
                                                                                  2785 2796 2830 2867 2882 2886 2905 2927 2927 2996
                                                                                  2996 3017 3055 3073 3083 3083 3091 3094 3105 3108
                                                                                  3112 3123 3164 3164 3170 3174 3177 3182 3211 3211
                                                                                  3215 3236 3245 3276 3291 3291 3299 3368 3403 3403
                                                                                  3419 3419 3435 3530 3546 3556 3558 3562 3607 3634
                                                                                  3638 3660 3664 3674 3685 3692 3705 3716 3720 3744
                                                                                  3748 3804 3817 3817 3821 3826 3875 3875 3927 3948
                                                                                  3948 3967 3967 4005 4020 4020 4044 4058 4087 4087
                                                                                  4091 4101 4105 4120 4120 4131 4136 4157 4157 4161
                                                                                  4181 4181 4190 4190 4219 4228 4228 4268 4268 4287
                                                                                  4287 4311 4311 4331 4331 4355 4355 4382 4460 4491
                                                                                  4491 4518 4558 4588 4588 4613 4698 4700 4722 4722
                                                                                  4726 4759 4775 4777 4784 4857 4858 4866 4885 4888
                                                                                  4976 4976 4978 4981 5012 5023 5073 5125 5186 5195
                                                                                  5201 5208 5217 5229 5234 5251 5295 5304 5330 5335
                                                                                  5379 5398 5455 5455 5476 5505 5537 5858 5858 5918
                                                                                  5927 5944 5999 6048 6136 6167 6167 6167 6176 6257
                                                                                  6257 6280 6346 6346 6352 6353 6353 6390 6401 6425
                                                                                  6425 6429 6430 6430 6436 6436 6440 6441 6442 6442
                                                                                  6450 6452 6452 6455 6455 6456 6459 6459 6461 6464
                                                                                  6470 6470 6473 6476 6477 6479 6479 6496 6508 6508
                                                                                  6511 6511 6512 6514 6514 6514 6516 6516 6614 6683
                                                                                  6686 6695 6701 6707 6709 6716 6724 6818 6826 6852
                                                                                  6860 6867 6897 6904 6907 6969 6973 6995 7001 7008
                                                                                  7012 7014 7016 7018 7020 7021 7028 7051 7054 7085
                                                                                  7158 7171 7185 7287 7313 7348 7353 7371 7375 7381
                                                                                  7385 7407 7426 7434 7477 7482 7490 7523 7536 7583
                                                                                  7590 7590 7595 7595 7598 7613 7651 7656 7673 7689
                                                                                  7691 7698 7700 7714 7723 7738 7827 7906 7919 7923
                                                                                  7927 7931 7982 7995 8003 8007 8045 8087 8096 8109
                                                                                  8128 8179 8179 8184 8184 8188 8322 8327 8341 8345
                                                                                  8350 8356 8361 8381 8386 8393 8398 8571 8574 8577
                                                                                  8580 8587 8589 8654 8663 8691 8726 8738 8740 8749
                                                                                  8778 8780 8804 8817 8838 8906 8940 8992 9004 9016
                                                                                  9019 9022 9036 9114 9140 9161 9206 9213 9255 9260
                                                                                  9282 9336 9356 9476 9495 9504 9522 9544 9571 9599
                                                                                  9608 9623 9663 9665 9669 9683 9685 9690 9694 9696
                                                                                  9703 9711 9715 9740 9766 9772 9796 9806 9973 10121
                                                                                  10125 10129 10156 10202 10231 10246 10258 10271
                                                                                  10277 10299 10384 10388 10396 10399 10407 10411
                                                                                  10422 10431 10437 10441 10491 10501 10518 10537
                                                                                  10544 10554 10601 10731 10737 10745 10868 10868
                                                                                  10899 10907 10907 10913 10947 10958 10971 11063
                                                                                  11071 11081 11109 11112 11146 11220 11234 11237
                                                                                  11282 11292 11600 11617 11738 11743 11775 11776
                                                                                  11784 11784 11794 11795 11796 11797 11811 11815
                                                                                  11822 11831 11841 11848 11850 11856 11871 11877
                                                                                  11877 11882 11899 11899 11914 11919 11920 11920
                                                                                  11924 11924 11925 11925 11926 11926 11933 11936
                                                                                  11945 11945 11945 11948 11951 11954 11955 11955
                                                                                  11957 11964 11964 11964 11967 11970 11973 11974
                                                                                  11974 11987 11995 12067 12074 12086 12091 12096
                                                                                  12146 12160 12175 12195 12277 12281 12289 12292
                                                                                  12305 12306 12307 12405 12410 12417 12427 12511
                                                                                  12529 12573 12626 12635 12652 12708 12723 12741
                                                                                  12749 12754 12759 12762 12815 12835 12848 12850
                                                                                  12856 12857 12859 12868 12870 13002 13013 13021
                                                                                  13050 13078 13085 13101 13146 13156 13226 13230
shared_structure                       based           structure                level 1 dcl 398 set ref 11955 11955 11974 11974
sign                            003626 automatic       bit(9)                   dcl 777 set ref 1121* 7956* 7963 7964* 7969* 8002
                                                                                  8010 8013* 10719* 10745 10750* 12716 12719*
sign_char                       016753 automatic       bit(9)                   array level 2 dcl 10667 set ref 10681* 10684* 10719
simple_reference                       constant        bit(36)                  initial dcl 1071 set ref 3234* 3244*
size                                                   builtin function         dcl 8-33 in procedure "create_constant" ref 8-74
                                                                                  8-74
size                      2     016527 automatic       fixed bin(24,0)          array level 2 in structure "bounds" dcl 9464
                                                                                  in procedure "get_bounds" set ref 9549*
size                                                   builtin function         dcl 778 in procedure "parse_source" ref 754 788 1162
                                                                                  1204 1204 1237 5455 5652 5652 5788 5788 5858 5952
                                                                                  5952 6188 6191 6192 6193 6194 6195 6214 6214 6257
                                                                                  6279 6389 6400 6452 6459 6763 6763 7147 7147 7169
                                                                                  8162 8162 8266 8266 9825 9825 10868 11902
size                                                   builtin function         dcl 9459 in procedure "get_bounds" ref 9581 9581
size                            016276 automatic       fixed bin(9,0)           dcl 8309 in procedure "get_mode_size" set ref 8320*
                                                                                  8322 8322 8322 8365* 8367* 8380 8382* 8384 8388*
                                                                                  8392 8393 8393 8393 8398 8398 8398 8405* 8414 8415
size                      7            based           fixed bin(24,0)          array level 3 in structure "dimension" dcl 5-383
                                                                                  in procedure "ext_parse" set ref 6916 7341 8166*
                                                                                  8842
slash                                  constant        bit(9)                   initial dcl 4-156 ref 1958 1970 2066 2072 2276 2393
                                                                                  2422 2442 2670 2695 3791 7519 7826 11377
slave                                  based           structure                level 1 unaligned dcl 13222
slave_index                     020103 automatic       fixed bin(18,0)          dcl 13224 set ref 13228* 13229 13230 13230 13232*
                                                                                  13232
source                                 based           structure                level 1 dcl 5-693 set ref 1162 11902
source_file_number     3142            based           fixed bin(35,0)          level 2 dcl 398 set ref 1142* 11776* 11920*
source_format             0(03) 000132 automatic       structure                level 2 in structure "subr_options" packed packed
                                                                                  unaligned dcl 391 in procedure "ext_parse"
source_format           113(03)        based           structure                level 4 in structure "shared_structure" packed
                                                                                  packed unaligned dcl 398 in procedure "ext_parse"
source_id                 2            based           structure                level 2 packed packed unaligned dcl 5-721
source_info                     003630 automatic       pointer                  dcl 779 set ref 1138* 1139 1145 1155 1155 1157 1157
                                                                                  1177 1178 1180 1184 1185 1593* 1595* 1597 1599
source_info_ptr                        based           pointer                  level 2 dcl 395 set ref 423*
source_len                      003632 automatic       fixed bin(21,0)          dcl 780 set ref 1145* 1166 11761 11774* 11788 11789
                                                                                  11863 11918* 11925
source_line_base         16            based           pointer                  level 2 in structure "shared_structure" dcl 398
                                                                                  in procedure "ext_parse" set ref 415
source_line_base                000114 automatic       pointer                  dcl 379 in procedure "ext_parse" set ref 415* 11794
                                                                                  11795 11796 11797
source_line_number     3143            based           fixed bin(35,0)          level 2 dcl 398 set ref 1142* 11063* 11775* 11811*
                                                                                  11919* 11933* 11957* 11987* 12091* 12096* 12292
                                                                                  12305* 12307*
source_list                            based           structure                array level 1 dcl 6-31
source_node                            constant        fixed bin(4,0)           initial dcl 4-87 set ref 1162* 11902*
source_node_offset      117            based           fixed bin(18,0)          array level 4 dcl 398 set ref 1165* 11924*
source_ptr                      003634 automatic       pointer                  dcl 781 set ref 1139* 1143 1167 1597* 1599* 11124
                                                                                  11128 11227 11502 11535 11541 11542 11571 11578
                                                                                  11625 11630 11772* 11788 11802 11804 11807 11807
                                                                                  11814 11819 11821 11826 11828 11831 11831 11835
                                                                                  11837* 11861 11916* 11926 11931 11941 11990 11993
                                                                                  11995 12002 12002 12002 12002 12007 12010 12010
                                                                                  12012 12012 12012 12017 12029 12030 12039 12040
                                                                                  12044 12062 12064 12067 12074 12074 12082 12100
                                                                                  12102 12102 12104 12109 12116 12127 12127 12132
                                                                                  12143 12159 12215 12218 12225 12227 12231 12232
                                                                                  12239 12241 12264 12350 12354 12390 12394 12564
                                                                                  12582 12605
sp                              014012 automatic       pointer                  dcl 6802 in procedure "get_constant_offset" set ref
                                                                                  6808* 6817 6823 6825
sp                              016624 automatic       pointer                  dcl 9729 in procedure "get_integer_constant" set ref
                                                                                  9762* 9766 9766
sp                              013566 automatic       pointer                  dcl 6096 in procedure "set_data_fields" set ref
                                                                                  6104* 6105 6108 6108 6110 6113 6113 6114 6116 6116
                                                                                  6119 6119 6119 6120 6124 6126 6128 6130 6136 6138
sp                              013360 automatic       pointer                  dcl 4839 in procedure "declaration_processor" set
                                                                                  ref 4892* 4894 4896 4899 5190* 5195 5201 5206 5206
                                                                                  5213 5215 5215 5221 5223 5238 5281* 5293 5314 5321
                                                                                  5322* 5334 5346 5351 5386 5413 5413 5416 5418 5425
                                                                                  5426 5430 5438 5443 5449 5454
sp                              016702 automatic       pointer                  dcl 10065 in procedure "parse_expression" set ref
                                                                                  10161* 10162 10162 10183* 10185 10185 10202 10207
                                                                                  10207 10218 10227 10227 10234 10242 10266 10267
                                                                                  10267 10280 10356 10356 10359* 10362 10365 10371
                                                                                  10371 10375 10378 10378 10378 10388 10393 10393
                                                                                  10399 10404 10404 10404 10498 10596* 10634* 10646
                                                                                  10646 10647 10647 10647 10647
sp                              016524 automatic       pointer                  dcl 9461 in procedure "get_bounds" set ref 9586*
                                                                                  9587 9588
sp                              013600 automatic       pointer                  dcl 6148 in procedure "assign_data_type" set ref
                                                                                  6151* 6152 6155 6155 6155
sp_header_length                013362 automatic       fixed bin(24,0)          dcl 4840 set ref 5413* 5416* 5418* 5420
sp_op_name                      001014 constant        char(8)                  initial array dcl 12381 ref 12416 12421 12423 12423
