ASSEMBLY LISTING OF SEGMENT >special_ldd>on>apl.1129>apl_operator_table_.alm
ASSEMBLED ON:	11/29/83  1615.4 mst Tue
OPTIONS USED:	list
ASSEMBLED BY:	ALM Version  6.6  November 1982
ASSEMBLER CREATED:	09/21/83  1227.3 mst Wed

                                     1  "  ******************************************************
                                     2  "  *                                                    *
                                     3  "  *                                                    *
                                     4  "  * Copyright (c) 1972 by Massachusetts Institute of   *
                                     5  "  * Technology and Honeywell Information Systems, Inc. *
                                     6  "  *                                                    *
                                     7  "  *                                                    *
                                     8  "  ******************************************************
                                     9
    000000                          10  	name	apl_operator_table_
                                    11
                                    12  " this is a read-only, shared data base which contains operator_bead's
                                    13  " pointers to these beads are output as lexemes by apl_lex_.
                                    14
                                    15  " this file generated by make_apl_operator_table_.teco, written 7.4.73 by DAM
                                    16  "	and modified 7.13.73 by DAM to change codes for reduction
                                    17  "	and modified 8.23.73 by DAM for stop-trace control
                                    18  "	Modified 790208 by WMY to add file system functions
                                    19  "	Modified 790323 by PG to add CommaHyphen (catenate-first) operator
                                    20  "	Modified 790327 by PG to add monadic not-equal for debugging interfaces
                                    21  "	Modified 800129 by PG to fix 416 by turning on ignores_assignment flag
                                    22  "		for qFNAMES and qFNUMS.
                                    23  "	Modified 811210 by TO to add QuadCALL & QuadCALLSemicolon.
                                    24  " 
                                    25  " The following information can be used by the teco macro
                                    26  " make_apl_operator_table_.teco to build a new alm source segment.
                                    27  "
                                    28  " Note that monadic equal and not-equal are nonstandard operators that
                                    29  " interface to the apl debugging tools. They are undocumented.
                                    30  "
                                    31  " The fields are as follows:
                                    32  " Name parse-type op1 op2 bits_for_lex,bits_for_parse
                                    33  "
                                    34  " LeftParen 4 0 0 0,0
                                    35  " LeftBracket 6 1 0 0,0
                                    36  " RightParen 5 1 0 0,0
                                    37  " RightBracket 7 2 0 0,0
                                    38  " RightOprBracket 8 3 0 0,0
                                    39  " SDelta 2 100 0 special_assignment,stop_trace_control+semantics_valid_bit
                                    40  " TDelta 2 101 0 special_assignment,stop_trace_control+semantics_valid_bit
                                    41  " Diamond 10 0 0 0,0
                                    42  " SemiColon 9 4 0 0,0
                                    43  " NewLine 1 0 0 0,0
                                    44  " LeftArrow 3 102 0 0,dyadic
                                    45  " AssignSub 3 103 0 0,dyadic
                                    46  " AssignIgnore 3 114 0 0,monadic
                                    47  " Quad 2 0 0 special_assignment,quad+system_variable
                                    48  " QuadQuote 2 1 0 special_assignment,quad+system_variable
                                    49  " QuadCT 2 2 0 special_assignment,system_variable
                                    50  " QuadIO 2 3 0 special_assignment,system_variable
                                    51  " QuadLX 2 4 0 special_assignment,system_variable
                                    52  " QuadPP 2 5 0 special_assignment,system_variable
                                    53  " QuadPW 2 6 0 special_assignment,system_variable
                                    54  " QuadRL 2 7 0 special_assignment,system_variable
                                    55  " QuadAI 2 8 0 ignores_assignment,system_variable
                                    56  " QuadLC 2 9 0 ignores_assignment,system_variable
                                    57  " QuadTS 2 10 0 ignores_assignment,system_variable
                                    58  " QuadTT 2 11 0 ignores_assignment,system_variable
                                    59  " QuadUL 2 12 0 ignores_assignment,system_variable
                                    60  " QuadWA 2 13 0 ignores_assignment,system_variable
                                    61  " QuadWU 2 14 0 ignores_assignment,system_variable
                                    62  " QuadCS 2 15 0 ignores_assignment,system_variable
                                    63  " QuadIT 2 16 0 special_assignment,system_variable
                                    64  " Plus 3 0 0 allow_product+allow_reduction,dyadic+monadic
                                    65  " Minus 3 1 0 allow_product+allow_reduction,dyadic+monadic
                                    66  " Times 3 2 0 allow_product+allow_reduction,dyadic+monadic
                                    67  " Division 3 3 0 allow_product+allow_reduction,dyadic+monadic
                                    68  " Ceiling 3 4 0 allow_product+allow_reduction,dyadic+monadic
                                    69  " Floor 3 5 0 allow_product+allow_reduction,dyadic+monadic
                                    70  " Star 3 6 0 allow_product+allow_reduction,dyadic+monadic
                                    71  " CircleStar 3 7 0 allow_product+allow_reduction,dyadic+monadic
                                    72  " VerticalBar 3 8 0 allow_product+allow_reduction,dyadic+monadic
                                    73  " Exclamation 3 9 0 allow_product+allow_reduction,dyadic+monadic
                                    74  " Circle 3 10 0 allow_product+allow_reduction,dyadic+monadic
                                    75  " AndSign 3 11 0 allow_product+allow_reduction,dyadic
                                    76  " OrSign 3 12 0 allow_product+allow_reduction,dyadic
                                    77  " NandSign 3 13 0 allow_product+allow_reduction,dyadic
                                    78  " NorSign 3 14 0 allow_product+allow_reduction,dyadic
                                    79  " LessThan 3 15 0 allow_product+allow_reduction,dyadic
                                    80  " LessOrEqual 3 16 0 allow_product+allow_reduction,dyadic
                                    81  " Equal 3 17 0 allow_product+allow_reduction,dyadic+monadic
                                    82  " GreaterOrEqual 3 18 0 allow_product+allow_reduction,dyadic
                                    83  " GreaterThan 3 19 0 allow_product+allow_reduction,dyadic
                                    84  " NotEqual 3 20 0 allow_product+allow_reduction,dyadic+monadic
                                    85  " Rho 3 36 0 0,dyadic+monadic
                                    86  " Comma 3 37 0 allow_brackets,dyadic+monadic
                                    87  " Iota 3 38 0 0,dyadic+monadic
                                    88  " UpArrow 3 39 0 allow_brackets,dyadic
                                    89  " DownArrow 3 40 0 allow_brackets,dyadic
                                    90  " GradeUp 3 41 0 allow_brackets,monadic
                                    91  " GradeDown 3 42 0 allow_brackets,monadic
                                    92  " Slash 3 43 0 allow_brackets,dyadic
                                    93  " BackSlash 3 44 0 allow_brackets,dyadic
                                    94  " CircleBar 3 45 0 allow_brackets,dyadic+monadic
                                    95  " SlashHyphen 3 46 0 allow_brackets,dyadic
                                    96  " BackSlashHyphen 3 47 0 allow_brackets,dyadic
                                    97  " CircleHyphen 3 48 0 allow_brackets,monadic+dyadic
                                    98  " CircleBackSlash 3 49 0 allow_brackets,dyadic+monadic
                                    99  " Epsilon 3 50 0 0,dyadic
                                   100  " DeCode 3 51 0 0,dyadic
                                   101  " EnCode 3 52 0 0,dyadic
                                   102  " ExecuteSign 3 53 0 0,monadic
                                   103  " FormatSign 3 54 0 0,dyadic+monadic
                                   104  " IBeam 3 55 0 0,monadic+dyadic
                                   105  " Tilde 3 56 0 0,monadic
                                   106  " Question 3 57 0 0,dyadic+monadic
                                   107  " QuadCR 3 58 0 0,monadic
                                   108  " QuadFX 3 59 0 0,monadic
                                   109  " QuadEX 3 60 0 0,monadic
                                   110  " QuadNL 3 61 0 0,monadic+dyadic
                                   111  " QuadNC 3 62 0 0,monadic
                                   112  " QuadDL 3 63 0 0,monadic
                                   113  " QuadSVO 3 64 0 0,monadic+dyadic
                                   114  " QuadSVC 3 65 0 0,monadic+dyadic
                                   115  " QuadSVQ 3 66 0 0,monadic
                                   116  " RightArrow 3 67 0 0,monadic
                                   117  " Domino 3 68 0 0,monadic+dyadic
                                   118  " QuadSVR 3 69 0 0,monadic
                                   119  " QuadEC 3 70 0 0,monadic
                                   120  " QuadAF 3 71 0 0,monadic
                                   121  " SemiColonCons 3 72 0 0,dyadic
                                   122  " QuadFADDACL 3 73 0 0,dyadic
                                   123  " QuadFAPPEND 3 74 0 0,dyadic
                                   124  " QuadFCREATE 3 75 0 0,dyadic
                                   125  " QuadFDELETEACL 3 76 0 0,dyadic
                                   126  " QuadFDROP 3 77 0 0,monadic
                                   127  " QuadFERASE 3 78 0 0,dyadic
                                   128  " QuadFHOLD 3 79 0 0,monadic
                                   129  " QuadFLIB 3 80 0 0,monadic
                                   130  " QuadFLIM 3 81 0 0,monadic
                                   131  " QuadFLISTACL 3 82 0 0,monadic
                                   132  " QuadFNAMES 3 83 0 ignores_assignment,system_variable
                                   133  " QuadFNUMS 3 84 0 ignores_assignment,system_variable
                                   134  " QuadFRDCI 3 85 0 0,monadic
                                   135  " QuadFREAD 3 86 0 0,monadic
                                   136  " QuadFRENAME 3 87 0 0,dyadic
                                   137  " QuadFREPLACE 3 88 0 0,dyadic
                                   138  " QuadFSETACL 3 89 0 0,dyadic
                                   139  " QuadFSIZE 3 90 0 0,monadic
                                   140  " QuadFSTIE 3 91 0 0,dyadic
                                   141  " QuadFTIE 3 92 0 0,dyadic
                                   142  " QuadFUNTIE 3 121 0 0,monadic
                                   143  " CommaHyphen 3 122 0 allow_brackets,dyadic
                                   144  " QuadCALL    3 123 0 0 monadic
                                   145  " QuadCALLSemicolon 3 124 0 0,dyadic
                                   146  " 
                                   147  	use	op_index
                        000000     148  	segdef	apl_operator_table_
                                   149  "
    000000                         150  apl_operator_table_:
    000000                         151  op_index_0:
                                   152
    000000                         153  	bss	,512		space for operator indices for all chars, init 0.
                                   154
                                   155
                                   156  	use	op_bead_table
                                   157
                        001000     158  	segdef	operator_bead_table
    001000                         159  operator_bead_table:
                                   160
                                   161  	" operator beads begin here, indices into this table are in the preceding section
                                   162
                                   163
                                   164  	use	inner_prod_tbl
                                   165
                        002320     166  	segdef	inner_product_table		operator beads for all possible inner products
    002320                         167  inner_product_table:
                                   168
    002320  aa   000000 000024     169  	zero	0,inner_product_max_code	maximum index in square array following (generated later on)
                                   170
                                   171
                                   172  "" this concludes initial setup of location counters, now
                                   173  "" we get some handy include files.
                                   174
                                   175  	include	apl_operator_bead_bits
                                   1-1  """ BEGIN INCLUDE FILE apl_operator_bead_bits.incl.alm
                                   1-2
                                   1-3  " this include file contains definitions needed by apl_operator_table_
                                   1-4  " it is derived from apl_operator_bead.incl.pl1
                                   1-5
                                   1-6  " written 7/3/73 by DAM
                                   1-7
                                   1-8
                        400000     1-9  	bool	allow_brackets,400000
                        200000    1-10  	bool	allow_product,200000
                        100000    1-11  	bool	allow_reduction,100000
                        040000    1-12  	bool	special_assignment,040000
                        020000    1-13  	bool	ignores_assignment,020000
                        010000    1-14  	bool	allow_subscripted_assignment,010000
                                  1-15
                        400000    1-16  	bool	stop_trace_control,400000
                        004000    1-17  	bool	semantics_valid_bit,004000
                        200000    1-18  	bool	quad,200000
                        100000    1-19  	bool	system_variable,100000
                        040000    1-20  	bool	dyadic,040000
                        020000    1-21  	bool	monadic,020000
                        001000    1-22  	bool	inner_product,001000
                                  1-23
                        400000    1-24  	bool	operator_bead_type,400000
                                  1-25
                                  1-26  """ END INCLUDE FILE apl_operator_bead_bits.incl.alm
                                   176  	include	apl_character_codes
                                   2-1
                                   2-2  """ BEGIN INCLUDE FILE apl_character_codes.incl.alm
                                   2-3
                                   2-4  " Defines symbol names for the character codes.
                                   2-5  " Modified by PG on 8/9/73 to add LeftBrace, RightBrace, Diamond, LeftTack, RightTack, and Bell,
                                   2-6  " to remove Quad_, and to add the special characters MarkError, LineFeed, and ConditionalNewLine.
                                   2-7  " Modified 780913 by PG to add CentSign
                                   2-8  " Modified 790319 by PG to add CommaHyphen
                                   2-9
                        000007    2-10  	equ	Bell,7
                        000010    2-11  	equ	BackSpace,8
                        000011    2-12  	equ	Tab,9
                        000012    2-13  	equ	NewLine,10
                        000040    2-14  	equ	Space,32
                        000041    2-15  	equ	Exclamation,33
                        000044    2-16  	equ	Dollar,36		/S
                        000047    2-17  	equ	Apostrophe,39	this = quote
                        000050    2-18  	equ	LeftParen,40
                        000051    2-19  	equ	RightParen,41
                        000052    2-20  	equ	Star,42
                        000053    2-21  	equ	Plus,43
                        000054    2-22  	equ	Comma,44
                        000055    2-23  	equ	Minus,45
                        000056    2-24  	equ	Period,46
                        000057    2-25  	equ	Slash,47
                        000060    2-26  	equ	Zero,48		why not?
                        000061    2-27  	equ	One,49
                        000062    2-28  	equ	Two,50
                        000063    2-29  	equ	Three,51
                        000064    2-30  	equ	Four,52
                        000065    2-31  	equ	Five,53
                        000066    2-32  	equ	Six,54
                        000067    2-33  	equ	Seven,55
                        000070    2-34  	equ	Eight,56
                        000071    2-35  	equ	Nine,57
                        000072    2-36  	equ	Colon,58
                        000073    2-37  	equ	SemiColon,59
                        000074    2-38  	equ	LessThan,60
                        000075    2-39  	equ	Equal,61
                        000076    2-40  	equ	GreaterThan,62
                        000077    2-41  	equ	Question,63
                        000101    2-42  	equ	LetterA_,65
                        000102    2-43  	equ	LetterB_,66
                        000103    2-44  	equ	LetterC_,67
                        000104    2-45  	equ	LetterD_,68
                        000105    2-46  	equ	LetterE_,69
                        000106    2-47  	equ	LetterF_,70
                        000107    2-48  	equ	LetterG_,71
                        000110    2-49  	equ	LetterH_,72
                        000111    2-50  	equ	LetterI_,73
                        000112    2-51  	equ	LetterJ_,74
                        000113    2-52  	equ	LetterK_,75
                        000114    2-53  	equ	LetterL_,76
                        000115    2-54  	equ	LetterM_,77
                        000116    2-55  	equ	LetterN_,78
                        000117    2-56  	equ	LetterO_,79
                        000120    2-57  	equ	LetterP_,80
                        000121    2-58  	equ	LetterQ_,81
                        000122    2-59  	equ	LetterR_,82
                        000123    2-60  	equ	LetterS_,83
                        000124    2-61  	equ	LetterT_,84
                        000125    2-62  	equ	LetterU_,85
                        000126    2-63  	equ	LetterV_,86
                        000127    2-64  	equ	LetterW_,87
                        000130    2-65  	equ	LetterX_,88
                        000131    2-66  	equ	LetterY_,89
                        000132    2-67  	equ	LetterZ_,90
                        000133    2-68  	equ	LeftBracket,91
                        000134    2-69  	equ	BackSlash,92
                        000135    2-70  	equ	RightBracket,93
                        000137    2-71  	equ	UnderLine,95
                        000141    2-72  	equ	LetterA,97
                        000142    2-73  	equ	LetterB,98
                        000143    2-74  	equ	LetterC,99
                        000144    2-75  	equ	LetterD,100
                        000145    2-76  	equ	LetterE,101
                        000146    2-77  	equ	LetterF,102
                        000147    2-78  	equ	LetterG,103
                        000150    2-79  	equ	LetterH,104
                        000151    2-80  	equ	LetterI,105
                        000152    2-81  	equ	LetterJ,106
                        000153    2-82  	equ	LetterK,107
                        000154    2-83  	equ	LetterL,108
                        000155    2-84  	equ	LetterM,109
                        000156    2-85  	equ	LetterN,110
                        000157    2-86  	equ	LetterO,111
                        000160    2-87  	equ	LetterP,112
                        000161    2-88  	equ	LetterQ,113
                        000162    2-89  	equ	LetterR,114
                        000163    2-90  	equ	LetterS,115
                        000164    2-91  	equ	LetterT,116
                        000165    2-92  	equ	LetterU,117
                        000166    2-93  	equ	LetterV,118
                        000167    2-94  	equ	LetterW,119
                        000170    2-95  	equ	LetterX,120
                        000171    2-96  	equ	LetterY,121
                        000172    2-97  	equ	LetterZ,122
                        000173    2-98  	equ	LeftBrace,123
                        000174    2-99  	equ	VerticalBar,124
                        000175   2-100  	equ	RightBrace,125
                        000176   2-101  	equ	Tilde,126
                                 2-102
                                 2-103  " here is where we leave ascii behind
                                 2-104
                        000200   2-105  	equ	LessOrEqual,128
                        000201   2-106  	equ	GreaterOrEqual,129
                        000202   2-107  	equ	NotEqual,130
                        000203   2-108  	equ	OrSign,131
                        000204   2-109  	equ	AndSign,132
                        000205   2-110  	equ	Division,133
                        000206   2-111  	equ	Epsilon,134
                        000207   2-112  	equ	UpArrow,135
                        000210   2-113  	equ	DownArrow,136
                        000211   2-114  	equ	Circle,137
                        000212   2-115  	equ	Ceiling,138
                        000213   2-116  	equ	Floor,139
                        000214   2-117  	equ	Delta,140
                        000215   2-118  	equ	SmallCircle,141
                        000216   2-119  	equ	Quad,142
                        000217   2-120  	equ	Cap,143
                        000220   2-121  	equ	DeCode,144
                        000221   2-122  	equ	EnCode,145
                        000222   2-123  	equ	LeftLump,146
                        000223   2-124  	equ	RightLump,147
                        000224   2-125  	equ	Cup,148
                        000225   2-126  	equ	NorSign,149
                        000226   2-127  	equ	NandSign,150
                        000227   2-128  	equ	CircleHyphen,151
                        000230   2-129  	equ	SlashHyphen,152
                        000231   2-130  	equ	DelTilde,153
                        000232   2-131  	equ	CircleStar,154
                        000233   2-132  	equ	CircleBar,155
                        000234   2-133  	equ	CircleBackSlash,156
                        000235   2-134  	equ	CircleSlash,157
                        000236   2-135  	equ	GradeDown,158
                        000237   2-136  	equ	GradeUp,159
                        000240   2-137  	equ	Lamp,160
                        000241   2-138  	equ	QuadQuote,161
                        000242   2-139  	equ	IBeam,162
                        000243   2-140  	equ	BackSlashHyphen,163
                        000244   2-141  	equ	Domino,164
                        000245   2-142  	equ	Diaresis,165
                        000246   2-143  	equ	Omega,166
                        000247   2-144  	equ	Iota,167
                        000250   2-145  	equ	Rho,168
                        000251   2-146  	equ	Times,169
                        000252   2-147  	equ	Alpha,170
                        000253   2-148  	equ	UpperMinus,171
                        000254   2-149  	equ	Del,172
                        000255   2-150  	equ	LeftArrow,173
                        000256   2-151  	equ	RightArrow,174
                        000257   2-152  	equ	Diamond,175
                        000260   2-153  	equ	Zero_,176		underlined numbers...
                        000261   2-154  	equ	One_,177
                        000262   2-155  	equ	Two_,178
                        000263   2-156  	equ	Three_,179
                        000264   2-157  	equ	Four_,180
                        000265   2-158  	equ	Five_,181
                        000266   2-159  	equ	Six_,182
                        000267   2-160  	equ	Seven_,183
                        000270   2-161  	equ	Eight_,184
                        000271   2-162  	equ	Nine_,185
                        000272   2-163  	equ	Delta_,186	underlined Delta
                        000273   2-164  	equ	MarkError,187	special character: means mark next character
                        000274   2-165  	equ	ExecuteSign,188
                        000275   2-166  	equ	FormatSign,189
                        000276   2-167  	equ	LeftTack,190
                        000277   2-168  	equ	RightTack,191
                        000300   2-169  	equ	LineFeed,192	special character
                        000301   2-170  	equ	ConditionalNewLine,193	special character
                        000302   2-171  	equ	CentSign,194
                        000303   2-172  	equ	CommaHyphen,195
                                 2-173
                                 2-174  """ END INCLUDE FILE apl_character_codes.incl.alm
                                   177  	include	apl_lex_pseudo_chars
                                   3-1
                                   3-2  " BEGIN INCLUDE FILE apl_lex_pseudo_chars.incl.alm
                                   3-3
                                   3-4  " These are codes which are used by the lex as if they were characters,
                                   3-5  " for purposes of looking up in the char_index table in apl_lex_tables_.
                                   3-6  " In this way these codes lead to operator beads.
                                   3-7  " However these codes are not characters but special pseudo-characters
                                   3-8  " generated by the lex from multi-character sequences.
                                   3-9  " At present these codes start at 200 (decimal), which is a little above
                                  3-10  " the end of the regular characters.
                                  3-11  " 6/18/73 DAM
                                  3-12  " Modified 740131 by PG for new system variables.
                                  3-13  " Modified 781115 by PG to add SemiColonCons.
                                  3-14  " Modified 790207 by William M. York to add file system functions.
                                  3-15  " Modified 811211 by H. Hoover (UofC) to add QuadCALL & QuadCALLSemicolon.
                                  3-16
                        000311    3-17  	equ	SDelta,201
                        000312    3-18  	equ	TDelta,202
                        000313    3-19  	equ	QuadCT,203
                        000314    3-20  	equ	QuadIO,204
                        000315    3-21  	equ	QuadLX,205
                        000316    3-22  	equ	QuadPP,206
                        000317    3-23  	equ	QuadPW,207
                        000320    3-24  	equ	QuadRL,208
                        000321    3-25  	equ	QuadAI,209
                        000322    3-26  	equ	QuadLC,210
                        000323    3-27  	equ	QuadTS,211
                        000324    3-28  	equ	QuadTT,212
                        000325    3-29  	equ	QuadUL,213
                        000326    3-30  	equ	QuadWA,214
                        000327    3-31  	equ	QuadWU,215		extra
                        000330    3-32  	equ	QuadCS,216		extra
                        000331    3-33  	equ	AssignSub,217
                        000332    3-34  	equ	AssignIgnore,218
                        000333    3-35  	equ	RightOprBracket,219
                        000334    3-36  	equ	QuadCR,220
                        000335    3-37  	equ	QuadFX,221
                        000336    3-38  	equ	QuadEX,222
                        000337    3-39  	equ	QuadNL,223
                        000340    3-40  	equ	QuadNC,224
                        000341    3-41  	equ	QuadDL,225
                        000342    3-42  	equ	QuadSVO,226
                        000343    3-43  	equ	QuadSVC,227
                        000344    3-44  	equ	QuadSVQ,228
                        000345    3-45  	equ	QuadSVR,229
                        000346    3-46  	equ	QuadIT,230
                        000347    3-47  	equ	QuadEC,231
                        000350    3-48  	equ	QuadAF,232
                        000351    3-49  	equ	SemiColonCons,233
                        000352    3-50  	equ	QuadFADDACL,234
                        000353    3-51  	equ	QuadFAPPEND,235
                        000354    3-52  	equ	QuadFCREATE,236
                        000355    3-53  	equ	QuadFDELETEACL,237
                        000356    3-54  	equ	QuadFDROP,238
                        000357    3-55  	equ	QuadFERASE,239
                        000360    3-56  	equ	QuadFHOLD,240
                        000361    3-57  	equ	QuadFLIB,241
                        000362    3-58  	equ	QuadFLIM,242
                        000363    3-59  	equ	QuadFLISTACL,243
                        000364    3-60  	equ	QuadFNAMES,244
                        000365    3-61  	equ	QuadFNUMS,245
                        000366    3-62  	equ	QuadFRDCI,246
                        000367    3-63  	equ	QuadFREAD,247
                        000370    3-64  	equ	QuadFRENAME,248
                        000371    3-65  	equ	QuadFREPLACE,249
                        000372    3-66  	equ	QuadFSETACL,250
                        000373    3-67  	equ	QuadFSIZE,251
                        000374    3-68  	equ	QuadFSTIE,252
                        000375    3-69  	equ	QuadFTIE,253
                        000376    3-70  	equ	QuadFUNTIE,254
                        000377    3-71  	equ	QuadCALL,255
                        000400    3-72  	equ	QuadCALLSemicolon,256
                                  3-73
                                  3-74  " END INCLUDE FILE apl_lex_pseudo_chars.incl.alm
                                   178
                                   179  "" 
                                   180  "" now we are ready to do the real table generation.
                                   181  "" the source file apl_operator_table_.src is munged to generate all the operator beads.
                                   182
                                   183  	use	op_index
                        000050     184  	org	LeftParen
    000050  aa   000000 000000     185  	zero	0,(.LeftParen-operator_bead_table)/3
                                   186  	use	op_bead_table
    001000  aa   400000 000000     187  .LeftParen:	vfd	18/operator_bead_type,18/0,18/0,9/0,9/0
    001001  aa   000000 000000
    001002  aa   000000 000004     188  	dec	4
                                   189
                                   190  	use	op_index
                        000133     191  	org	LeftBracket
    000133  aa   000000 000001     192  	zero	0,(.LeftBracket-operator_bead_table)/3
                                   193  	use	op_bead_table
    001003  aa   400000 000000     194  .LeftBracket:	vfd	18/operator_bead_type,18/0,18/0,9/0,9/1
    001004  aa   000000 000001
    001005  aa   000000 000006     195  	dec	6
                                   196
                                   197  	use	op_index
                        000051     198  	org	RightParen
    000051  aa   000000 000002     199  	zero	0,(.RightParen-operator_bead_table)/3
                                   200  	use	op_bead_table
    001006  aa   400000 000000     201  .RightParen:	vfd	18/operator_bead_type,18/0,18/0,9/0,9/1
    001007  aa   000000 000001
    001010  aa   000000 000005     202  	dec	5
                                   203
                                   204  	use	op_index
                        000135     205  	org	RightBracket
    000135  aa   000000 000003     206  	zero	0,(.RightBracket-operator_bead_table)/3
                                   207  	use	op_bead_table
    001011  aa   400000 000000     208  .RightBracket:	vfd	18/operator_bead_type,18/0,18/0,9/0,9/2
    001012  aa   000000 000002
    001013  aa   000000 000007     209  	dec	7
                                   210
                                   211  	use	op_index
                        000333     212  	org	RightOprBracket
    000333  aa   000000 000004     213  	zero	0,(.RightOprBracket-operator_bead_table)/3
                                   214  	use	op_bead_table
    001014  aa   400000 000000     215  .RightOprBracket:	vfd	18/operator_bead_type,18/0,18/0,9/0,9/3
    001015  aa   000000 000003
    001016  aa   000000 000010     216  	dec	8
                                   217
                                   218  	use	op_index
                        000311     219  	org	SDelta
    000311  aa   000000 000005     220  	zero	0,(.SDelta-operator_bead_table)/3
                                   221  	use	op_bead_table
    001017  aa   400000 040000     222  .SDelta:	vfd	18/operator_bead_type,18/special_assignment,18/stop_trace_control+semantics_valid_bit,9/0,9/100
    001020  aa   404000 000144
    001021  aa   000000 000002     223  	dec	2
    001022  aa   400000 000000     224  	vfd	18/operator_bead_type,18/0,18/stop_trace_control+semantics_valid_bit+monadic,9/0,9/112	assignment
    001023  aa   424000 000160
    001024  aa   000000 000003     225  	dec	3
                                   226
                                   227  	use	op_index
                        000312     228  	org	TDelta
    000312  aa   000000 000007     229  	zero	0,(.TDelta-operator_bead_table)/3
                                   230  	use	op_bead_table
    001025  aa   400000 040000     231  .TDelta:	vfd	18/operator_bead_type,18/special_assignment,18/stop_trace_control+semantics_valid_bit,9/0,9/101
    001026  aa   404000 000145
    001027  aa   000000 000002     232  	dec	2
    001030  aa   400000 000000     233  	vfd	18/operator_bead_type,18/0,18/stop_trace_control+semantics_valid_bit+monadic,9/0,9/113	assignment
    001031  aa   424000 000161
    001032  aa   000000 000003     234  	dec	3
                                   235
                                   236  	use	op_index
                        000257     237  	org	Diamond
    000257  aa   000000 000011     238  	zero	0,(.Diamond-operator_bead_table)/3
                                   239  	use	op_bead_table
    001033  aa   400000 000000     240  .Diamond:	vfd	18/operator_bead_type,18/0,18/0,9/0,9/0
    001034  aa   000000 000000
    001035  aa   000000 000012     241  	dec	10
                                   242
                                   243  	use	op_index
                        000073     244  	org	SemiColon
    000073  aa   000000 000012     245  	zero	0,(.SemiColon-operator_bead_table)/3
                                   246  	use	op_bead_table
    001036  aa   400000 000000     247  .SemiColon:	vfd	18/operator_bead_type,18/0,18/0,9/0,9/4
    001037  aa   000000 000004
    001040  aa   000000 000011     248  	dec	9
                                   249
                                   250  	use	op_index
                        000012     251  	org	NewLine
    000012  aa   000000 000013     252  	zero	0,(.NewLine-operator_bead_table)/3
                                   253  	use	op_bead_table
    001041  aa   400000 000000     254  .NewLine:	vfd	18/operator_bead_type,18/0,18/0,9/0,9/0
    001042  aa   000000 000000
    001043  aa   000000 000001     255  	dec	1
                                   256
                                   257  	use	op_index
                        000255     258  	org	LeftArrow
    000255  aa   000000 000014     259  	zero	0,(.LeftArrow-operator_bead_table)/3
                                   260  	use	op_bead_table
    001044  aa   400000 000000     261  .LeftArrow:	vfd	18/operator_bead_type,18/0,18/dyadic,9/0,9/102
    001045  aa   040000 000146
    001046  aa   000000 000003     262  	dec	3
                                   263
                                   264  	use	op_index
                        000331     265  	org	AssignSub
    000331  aa   000000 000015     266  	zero	0,(.AssignSub-operator_bead_table)/3
                                   267  	use	op_bead_table
    001047  aa   400000 000000     268  .AssignSub:	vfd	18/operator_bead_type,18/0,18/dyadic,9/0,9/103
    001050  aa   040000 000147
    001051  aa   000000 000003     269  	dec	3
                                   270
                                   271  	use	op_index
                        000332     272  	org	AssignIgnore
    000332  aa   000000 000016     273  	zero	0,(.AssignIgnore-operator_bead_table)/3
                                   274  	use	op_bead_table
    001052  aa   400000 000000     275  .AssignIgnore:	vfd	18/operator_bead_type,18/0,18/monadic,9/0,9/114
    001053  aa   020000 000162
    001054  aa   000000 000003     276  	dec	3
                                   277
                                   278  	use	op_index
                        000216     279  	org	Quad
    000216  aa   000000 000017     280  	zero	0,(.Quad-operator_bead_table)/3
                                   281  	use	op_bead_table
    001055  aa   400000 040000     282  .Quad:	vfd	18/operator_bead_type,18/special_assignment,18/quad+system_variable,9/0,9/0
    001056  aa   300000 000000
    001057  aa   000000 000002     283  	dec	2
    001060  aa   400000 000000     284  	vfd	18/operator_bead_type,18/0,18/monadic,9/0,9/104	assignment
    001061  aa   020000 000150
    001062  aa   000000 000003     285  	dec	3
                                   286
                                   287  	use	op_index
                        000241     288  	org	QuadQuote
    000241  aa   000000 000021     289  	zero	0,(.QuadQuote-operator_bead_table)/3
                                   290  	use	op_bead_table
    001063  aa   400000 040000     291  .QuadQuote:	vfd	18/operator_bead_type,18/special_assignment,18/quad+system_variable,9/0,9/1
    001064  aa   300000 000001
    001065  aa   000000 000002     292  	dec	2
    001066  aa   400000 000000     293  	vfd	18/operator_bead_type,18/0,18/monadic,9/0,9/105	assignment
    001067  aa   020000 000151
    001070  aa   000000 000003     294  	dec	3
                                   295
                                   296  	use	op_index
                        000313     297  	org	QuadCT
    000313  aa   000000 000023     298  	zero	0,(.QuadCT-operator_bead_table)/3
                                   299  	use	op_bead_table
    001071  aa   400000 040000     300  .QuadCT:	vfd	18/operator_bead_type,18/special_assignment,18/system_variable,9/0,9/2
    001072  aa   100000 000002
    001073  aa   000000 000002     301  	dec	2
    001074  aa   400000 000000     302  	vfd	18/operator_bead_type,18/0,18/monadic,9/0,9/106	assignment
    001075  aa   020000 000152
    001076  aa   000000 000003     303  	dec	3
                                   304
                                   305  	use	op_index
                        000314     306  	org	QuadIO
    000314  aa   000000 000025     307  	zero	0,(.QuadIO-operator_bead_table)/3
                                   308  	use	op_bead_table
    001077  aa   400000 040000     309  .QuadIO:	vfd	18/operator_bead_type,18/special_assignment,18/system_variable,9/0,9/3
    001100  aa   100000 000003
    001101  aa   000000 000002     310  	dec	2
    001102  aa   400000 000000     311  	vfd	18/operator_bead_type,18/0,18/monadic,9/0,9/107	assignment
    001103  aa   020000 000153
    001104  aa   000000 000003     312  	dec	3
                                   313
                                   314  	use	op_index
                        000315     315  	org	QuadLX
    000315  aa   000000 000027     316  	zero	0,(.QuadLX-operator_bead_table)/3
                                   317  	use	op_bead_table
    001105  aa   400000 040000     318  .QuadLX:	vfd	18/operator_bead_type,18/special_assignment,18/system_variable,9/0,9/4
    001106  aa   100000 000004
    001107  aa   000000 000002     319  	dec	2
    001110  aa   400000 000000     320  	vfd	18/operator_bead_type,18/0,18/monadic,9/0,9/108	assignment
    001111  aa   020000 000154
    001112  aa   000000 000003     321  	dec	3
                                   322
                                   323  	use	op_index
                        000316     324  	org	QuadPP
    000316  aa   000000 000031     325  	zero	0,(.QuadPP-operator_bead_table)/3
                                   326  	use	op_bead_table
    001113  aa   400000 040000     327  .QuadPP:	vfd	18/operator_bead_type,18/special_assignment,18/system_variable,9/0,9/5
    001114  aa   100000 000005
    001115  aa   000000 000002     328  	dec	2
    001116  aa   400000 000000     329  	vfd	18/operator_bead_type,18/0,18/monadic,9/0,9/109	assignment
    001117  aa   020000 000155
    001120  aa   000000 000003     330  	dec	3
                                   331
                                   332  	use	op_index
                        000317     333  	org	QuadPW
    000317  aa   000000 000033     334  	zero	0,(.QuadPW-operator_bead_table)/3
                                   335  	use	op_bead_table
    001121  aa   400000 040000     336  .QuadPW:	vfd	18/operator_bead_type,18/special_assignment,18/system_variable,9/0,9/6
    001122  aa   100000 000006
    001123  aa   000000 000002     337  	dec	2
    001124  aa   400000 000000     338  	vfd	18/operator_bead_type,18/0,18/monadic,9/0,9/110	assignment
    001125  aa   020000 000156
    001126  aa   000000 000003     339  	dec	3
                                   340
                                   341  	use	op_index
                        000320     342  	org	QuadRL
    000320  aa   000000 000035     343  	zero	0,(.QuadRL-operator_bead_table)/3
                                   344  	use	op_bead_table
    001127  aa   400000 040000     345  .QuadRL:	vfd	18/operator_bead_type,18/special_assignment,18/system_variable,9/0,9/7
    001130  aa   100000 000007
    001131  aa   000000 000002     346  	dec	2
    001132  aa   400000 000000     347  	vfd	18/operator_bead_type,18/0,18/monadic,9/0,9/111	assignment
    001133  aa   020000 000157
    001134  aa   000000 000003     348  	dec	3
                                   349
                                   350  	use	op_index
                        000321     351  	org	QuadAI
    000321  aa   000000 000037     352  	zero	0,(.QuadAI-operator_bead_table)/3
                                   353  	use	op_bead_table
    001135  aa   400000 020000     354  .QuadAI:	vfd	18/operator_bead_type,18/ignores_assignment,18/system_variable,9/0,9/8
    001136  aa   100000 000010
    001137  aa   000000 000002     355  	dec	2
                                   356
                                   357  	use	op_index
                        000322     358  	org	QuadLC
    000322  aa   000000 000040     359  	zero	0,(.QuadLC-operator_bead_table)/3
                                   360  	use	op_bead_table
    001140  aa   400000 020000     361  .QuadLC:	vfd	18/operator_bead_type,18/ignores_assignment,18/system_variable,9/0,9/9
    001141  aa   100000 000011
    001142  aa   000000 000002     362  	dec	2
                                   363
                                   364  	use	op_index
                        000323     365  	org	QuadTS
    000323  aa   000000 000041     366  	zero	0,(.QuadTS-operator_bead_table)/3
                                   367  	use	op_bead_table
    001143  aa   400000 020000     368  .QuadTS:	vfd	18/operator_bead_type,18/ignores_assignment,18/system_variable,9/0,9/10
    001144  aa   100000 000012
    001145  aa   000000 000002     369  	dec	2
                                   370
                                   371  	use	op_index
                        000324     372  	org	QuadTT
    000324  aa   000000 000042     373  	zero	0,(.QuadTT-operator_bead_table)/3
                                   374  	use	op_bead_table
    001146  aa   400000 020000     375  .QuadTT:	vfd	18/operator_bead_type,18/ignores_assignment,18/system_variable,9/0,9/11
    001147  aa   100000 000013
    001150  aa   000000 000002     376  	dec	2
                                   377
                                   378  	use	op_index
                        000325     379  	org	QuadUL
    000325  aa   000000 000043     380  	zero	0,(.QuadUL-operator_bead_table)/3
                                   381  	use	op_bead_table
    001151  aa   400000 020000     382  .QuadUL:	vfd	18/operator_bead_type,18/ignores_assignment,18/system_variable,9/0,9/12
    001152  aa   100000 000014
    001153  aa   000000 000002     383  	dec	2
                                   384
                                   385  	use	op_index
                        000326     386  	org	QuadWA
    000326  aa   000000 000044     387  	zero	0,(.QuadWA-operator_bead_table)/3
                                   388  	use	op_bead_table
    001154  aa   400000 020000     389  .QuadWA:	vfd	18/operator_bead_type,18/ignores_assignment,18/system_variable,9/0,9/13
    001155  aa   100000 000015
    001156  aa   000000 000002     390  	dec	2
                                   391
                                   392  	use	op_index
                        000327     393  	org	QuadWU
    000327  aa   000000 000045     394  	zero	0,(.QuadWU-operator_bead_table)/3
                                   395  	use	op_bead_table
    001157  aa   400000 020000     396  .QuadWU:	vfd	18/operator_bead_type,18/ignores_assignment,18/system_variable,9/0,9/14
    001160  aa   100000 000016
    001161  aa   000000 000002     397  	dec	2
                                   398
                                   399  	use	op_index
                        000330     400  	org	QuadCS
    000330  aa   000000 000046     401  	zero	0,(.QuadCS-operator_bead_table)/3
                                   402  	use	op_bead_table
    001162  aa   400000 020000     403  .QuadCS:	vfd	18/operator_bead_type,18/ignores_assignment,18/system_variable,9/0,9/15
    001163  aa   100000 000017
    001164  aa   000000 000002     404  	dec	2
                                   405
                                   406  	use	op_index
                        000346     407  	org	QuadIT
    000346  aa   000000 000047     408  	zero	0,(.QuadIT-operator_bead_table)/3
                                   409  	use	op_bead_table
    001165  aa   400000 040000     410  .QuadIT:	vfd	18/operator_bead_type,18/special_assignment,18/system_variable,9/0,9/16
    001166  aa   100000 000020
    001167  aa   000000 000002     411  	dec	2
    001170  aa   400000 000000     412  	vfd	18/operator_bead_type,18/0,18/monadic,9/0,9/120	assignment
    001171  aa   020000 000170
    001172  aa   000000 000003     413  	dec	3
                                   414
                                   415  	use	op_index
                        000053     416  	org	Plus
    000053  aa   000000 000051     417  	zero	0,(.Plus-operator_bead_table)/3
                                   418  	use	op_bead_table
    001173  aa   400000 300000     419  .Plus:	vfd	18/operator_bead_type,18/allow_product+allow_reduction,18/dyadic+monadic,9/0,9/0
    001174  aa   060000 000000
    001175  aa   000000 000003     420  	dec	3
    001176  aa   400000 400000     421  	vfd	18/operator_bead_type,18/allow_brackets,18/monadic,9/0,9/94
    001177  aa   020000 000136
    001200  aa   000000 000003     422  	dec	3
    001201  aa   400000 400000     423  	vfd	18/operator_bead_type,18/allow_brackets,18/monadic,9/0,9/95
    001202  aa   020000 000137
    001203  aa   000000 000003     424  	dec	3
    001204  aa   400000 400000     425  	vfd	18/operator_bead_type,18/allow_brackets,18/monadic,9/0,9/96
    001205  aa   020000 000140
    001206  aa   000000 000003     426  	dec	3
    001207  aa   400000 400000     427  	vfd	18/operator_bead_type,18/allow_brackets,18/monadic,9/0,9/97
    001210  aa   020000 000141
    001211  aa   000000 000003     428  	dec	3
    001212  aa   400000 000000     429  	vfd	18/operator_bead_type,18/0,18/dyadic,9/0,9/98
    001213  aa   040000 000142
    001214  aa   000000 000003     430  	dec	3
                                   431
                                   432  	use	op_index
                        000055     433  	org	Minus
    000055  aa   000000 000057     434  	zero	0,(.Minus-operator_bead_table)/3
                                   435  	use	op_bead_table
    001215  aa   400000 300000     436  .Minus:	vfd	18/operator_bead_type,18/allow_product+allow_reduction,18/dyadic+monadic,9/0,9/1
    001216  aa   060000 000001
    001217  aa   000000 000003     437  	dec	3
    001220  aa   400000 400000     438  	vfd	18/operator_bead_type,18/allow_brackets,18/monadic,9/1,9/94
    001221  aa   020000 001136
    001222  aa   000000 000003     439  	dec	3
    001223  aa   400000 400000     440  	vfd	18/operator_bead_type,18/allow_brackets,18/monadic,9/1,9/95
    001224  aa   020000 001137
    001225  aa   000000 000003     441  	dec	3
    001226  aa   400000 400000     442  	vfd	18/operator_bead_type,18/allow_brackets,18/monadic,9/1,9/96
    001227  aa   020000 001140
    001230  aa   000000 000003     443  	dec	3
    001231  aa   400000 400000     444  	vfd	18/operator_bead_type,18/allow_brackets,18/monadic,9/1,9/97
    001232  aa   020000 001141
    001233  aa   000000 000003     445  	dec	3
    001234  aa   400000 000000     446  	vfd	18/operator_bead_type,18/0,18/dyadic,9/1,9/98
    001235  aa   040000 001142
    001236  aa   000000 000003     447  	dec	3
                                   448
                                   449  	use	op_index
                        000251     450  	org	Times
    000251  aa   000000 000065     451  	zero	0,(.Times-operator_bead_table)/3
                                   452  	use	op_bead_table
    001237  aa   400000 300000     453  .Times:	vfd	18/operator_bead_type,18/allow_product+allow_reduction,18/dyadic+monadic,9/0,9/2
    001240  aa   060000 000002
    001241  aa   000000 000003     454  	dec	3
    001242  aa   400000 400000     455  	vfd	18/operator_bead_type,18/allow_brackets,18/monadic,9/2,9/94
    001243  aa   020000 002136
    001244  aa   000000 000003     456  	dec	3
    001245  aa   400000 400000     457  	vfd	18/operator_bead_type,18/allow_brackets,18/monadic,9/2,9/95
    001246  aa   020000 002137
    001247  aa   000000 000003     458  	dec	3
    001250  aa   400000 400000     459  	vfd	18/operator_bead_type,18/allow_brackets,18/monadic,9/2,9/96
    001251  aa   020000 002140
    001252  aa   000000 000003     460  	dec	3
    001253  aa   400000 400000     461  	vfd	18/operator_bead_type,18/allow_brackets,18/monadic,9/2,9/97
    001254  aa   020000 002141
    001255  aa   000000 000003     462  	dec	3
    001256  aa   400000 000000     463  	vfd	18/operator_bead_type,18/0,18/dyadic,9/2,9/98
    001257  aa   040000 002142
    001260  aa   000000 000003     464  	dec	3
                                   465
                                   466  	use	op_index
                        000205     467  	org	Division
    000205  aa   000000 000073     468  	zero	0,(.Division-operator_bead_table)/3
                                   469  	use	op_bead_table
    001261  aa   400000 300000     470  .Division:	vfd	18/operator_bead_type,18/allow_product+allow_reduction,18/dyadic+monadic,9/0,9/3
    001262  aa   060000 000003
    001263  aa   000000 000003     471  	dec	3
    001264  aa   400000 400000     472  	vfd	18/operator_bead_type,18/allow_brackets,18/monadic,9/3,9/94
    001265  aa   020000 003136
    001266  aa   000000 000003     473  	dec	3
    001267  aa   400000 400000     474  	vfd	18/operator_bead_type,18/allow_brackets,18/monadic,9/3,9/95
    001270  aa   020000 003137
    001271  aa   000000 000003     475  	dec	3
    001272  aa   400000 400000     476  	vfd	18/operator_bead_type,18/allow_brackets,18/monadic,9/3,9/96
    001273  aa   020000 003140
    001274  aa   000000 000003     477  	dec	3
    001275  aa   400000 400000     478  	vfd	18/operator_bead_type,18/allow_brackets,18/monadic,9/3,9/97
    001276  aa   020000 003141
    001277  aa   000000 000003     479  	dec	3
    001300  aa   400000 000000     480  	vfd	18/operator_bead_type,18/0,18/dyadic,9/3,9/98
    001301  aa   040000 003142
    001302  aa   000000 000003     481  	dec	3
                                   482
                                   483  	use	op_index
                        000212     484  	org	Ceiling
    000212  aa   000000 000101     485  	zero	0,(.Ceiling-operator_bead_table)/3
                                   486  	use	op_bead_table
    001303  aa   400000 300000     487  .Ceiling:	vfd	18/operator_bead_type,18/allow_product+allow_reduction,18/dyadic+monadic,9/0,9/4
    001304  aa   060000 000004
    001305  aa   000000 000003     488  	dec	3
    001306  aa   400000 400000     489  	vfd	18/operator_bead_type,18/allow_brackets,18/monadic,9/4,9/94
    001307  aa   020000 004136
    001310  aa   000000 000003     490  	dec	3
    001311  aa   400000 400000     491  	vfd	18/operator_bead_type,18/allow_brackets,18/monadic,9/4,9/95
    001312  aa   020000 004137
    001313  aa   000000 000003     492  	dec	3
    001314  aa   400000 400000     493  	vfd	18/operator_bead_type,18/allow_brackets,18/monadic,9/4,9/96
    001315  aa   020000 004140
    001316  aa   000000 000003     494  	dec	3
    001317  aa   400000 400000     495  	vfd	18/operator_bead_type,18/allow_brackets,18/monadic,9/4,9/97
    001320  aa   020000 004141
    001321  aa   000000 000003     496  	dec	3
    001322  aa   400000 000000     497  	vfd	18/operator_bead_type,18/0,18/dyadic,9/4,9/98
    001323  aa   040000 004142
    001324  aa   000000 000003     498  	dec	3
                                   499
                                   500  	use	op_index
                        000213     501  	org	Floor
    000213  aa   000000 000107     502  	zero	0,(.Floor-operator_bead_table)/3
                                   503  	use	op_bead_table
    001325  aa   400000 300000     504  .Floor:	vfd	18/operator_bead_type,18/allow_product+allow_reduction,18/dyadic+monadic,9/0,9/5
    001326  aa   060000 000005
    001327  aa   000000 000003     505  	dec	3
    001330  aa   400000 400000     506  	vfd	18/operator_bead_type,18/allow_brackets,18/monadic,9/5,9/94
    001331  aa   020000 005136
    001332  aa   000000 000003     507  	dec	3
    001333  aa   400000 400000     508  	vfd	18/operator_bead_type,18/allow_brackets,18/monadic,9/5,9/95
    001334  aa   020000 005137
    001335  aa   000000 000003     509  	dec	3
    001336  aa   400000 400000     510  	vfd	18/operator_bead_type,18/allow_brackets,18/monadic,9/5,9/96
    001337  aa   020000 005140
    001340  aa   000000 000003     511  	dec	3
    001341  aa   400000 400000     512  	vfd	18/operator_bead_type,18/allow_brackets,18/monadic,9/5,9/97
    001342  aa   020000 005141
    001343  aa   000000 000003     513  	dec	3
    001344  aa   400000 000000     514  	vfd	18/operator_bead_type,18/0,18/dyadic,9/5,9/98
    001345  aa   040000 005142
    001346  aa   000000 000003     515  	dec	3
                                   516
                                   517  	use	op_index
                        000052     518  	org	Star
    000052  aa   000000 000115     519  	zero	0,(.Star-operator_bead_table)/3
                                   520  	use	op_bead_table
    001347  aa   400000 300000     521  .Star:	vfd	18/operator_bead_type,18/allow_product+allow_reduction,18/dyadic+monadic,9/0,9/6
    001350  aa   060000 000006
    001351  aa   000000 000003     522  	dec	3
    001352  aa   400000 400000     523  	vfd	18/operator_bead_type,18/allow_brackets,18/monadic,9/6,9/94
    001353  aa   020000 006136
    001354  aa   000000 000003     524  	dec	3
    001355  aa   400000 400000     525  	vfd	18/operator_bead_type,18/allow_brackets,18/monadic,9/6,9/95
    001356  aa   020000 006137
    001357  aa   000000 000003     526  	dec	3
    001360  aa   400000 400000     527  	vfd	18/operator_bead_type,18/allow_brackets,18/monadic,9/6,9/96
    001361  aa   020000 006140
    001362  aa   000000 000003     528  	dec	3
    001363  aa   400000 400000     529  	vfd	18/operator_bead_type,18/allow_brackets,18/monadic,9/6,9/97
    001364  aa   020000 006141
    001365  aa   000000 000003     530  	dec	3
    001366  aa   400000 000000     531  	vfd	18/operator_bead_type,18/0,18/dyadic,9/6,9/98
    001367  aa   040000 006142
    001370  aa   000000 000003     532  	dec	3
                                   533
                                   534  	use	op_index
                        000232     535  	org	CircleStar
    000232  aa   000000 000123     536  	zero	0,(.CircleStar-operator_bead_table)/3
                                   537  	use	op_bead_table
    001371  aa   400000 300000     538  .CircleStar:	vfd	18/operator_bead_type,18/allow_product+allow_reduction,18/dyadic+monadic,9/0,9/7
    001372  aa   060000 000007
    001373  aa   000000 000003     539  	dec	3
    001374  aa   400000 400000     540  	vfd	18/operator_bead_type,18/allow_brackets,18/monadic,9/7,9/94
    001375  aa   020000 007136
    001376  aa   000000 000003     541  	dec	3
    001377  aa   400000 400000     542  	vfd	18/operator_bead_type,18/allow_brackets,18/monadic,9/7,9/95
    001400  aa   020000 007137
    001401  aa   000000 000003     543  	dec	3
    001402  aa   400000 400000     544  	vfd	18/operator_bead_type,18/allow_brackets,18/monadic,9/7,9/96
    001403  aa   020000 007140
    001404  aa   000000 000003     545  	dec	3
    001405  aa   400000 400000     546  	vfd	18/operator_bead_type,18/allow_brackets,18/monadic,9/7,9/97
    001406  aa   020000 007141
    001407  aa   000000 000003     547  	dec	3
    001410  aa   400000 000000     548  	vfd	18/operator_bead_type,18/0,18/dyadic,9/7,9/98
    001411  aa   040000 007142
    001412  aa   000000 000003     549  	dec	3
                                   550
                                   551  	use	op_index
                        000174     552  	org	VerticalBar
    000174  aa   000000 000131     553  	zero	0,(.VerticalBar-operator_bead_table)/3
                                   554  	use	op_bead_table
    001413  aa   400000 300000     555  .VerticalBar:	vfd	18/operator_bead_type,18/allow_product+allow_reduction,18/dyadic+monadic,9/0,9/8
    001414  aa   060000 000010
    001415  aa   000000 000003     556  	dec	3
    001416  aa   400000 400000     557  	vfd	18/operator_bead_type,18/allow_brackets,18/monadic,9/8,9/94
    001417  aa   020000 010136
    001420  aa   000000 000003     558  	dec	3
    001421  aa   400000 400000     559  	vfd	18/operator_bead_type,18/allow_brackets,18/monadic,9/8,9/95
    001422  aa   020000 010137
    001423  aa   000000 000003     560  	dec	3
    001424  aa   400000 400000     561  	vfd	18/operator_bead_type,18/allow_brackets,18/monadic,9/8,9/96
    001425  aa   020000 010140
    001426  aa   000000 000003     562  	dec	3
    001427  aa   400000 400000     563  	vfd	18/operator_bead_type,18/allow_brackets,18/monadic,9/8,9/97
    001430  aa   020000 010141
    001431  aa   000000 000003     564  	dec	3
    001432  aa   400000 000000     565  	vfd	18/operator_bead_type,18/0,18/dyadic,9/8,9/98
    001433  aa   040000 010142
    001434  aa   000000 000003     566  	dec	3
                                   567
                                   568  	use	op_index
                        000041     569  	org	Exclamation
    000041  aa   000000 000137     570  	zero	0,(.Exclamation-operator_bead_table)/3
                                   571  	use	op_bead_table
    001435  aa   400000 300000     572  .Exclamation:	vfd	18/operator_bead_type,18/allow_product+allow_reduction,18/dyadic+monadic,9/0,9/9
    001436  aa   060000 000011
    001437  aa   000000 000003     573  	dec	3
    001440  aa   400000 400000     574  	vfd	18/operator_bead_type,18/allow_brackets,18/monadic,9/9,9/94
    001441  aa   020000 011136
    001442  aa   000000 000003     575  	dec	3
    001443  aa   400000 400000     576  	vfd	18/operator_bead_type,18/allow_brackets,18/monadic,9/9,9/95
    001444  aa   020000 011137
    001445  aa   000000 000003     577  	dec	3
    001446  aa   400000 400000     578  	vfd	18/operator_bead_type,18/allow_brackets,18/monadic,9/9,9/96
    001447  aa   020000 011140
    001450  aa   000000 000003     579  	dec	3
    001451  aa   400000 400000     580  	vfd	18/operator_bead_type,18/allow_brackets,18/monadic,9/9,9/97
    001452  aa   020000 011141
    001453  aa   000000 000003     581  	dec	3
    001454  aa   400000 000000     582  	vfd	18/operator_bead_type,18/0,18/dyadic,9/9,9/98
    001455  aa   040000 011142
    001456  aa   000000 000003     583  	dec	3
                                   584
                                   585  	use	op_index
                        000211     586  	org	Circle
    000211  aa   000000 000145     587  	zero	0,(.Circle-operator_bead_table)/3
                                   588  	use	op_bead_table
    001457  aa   400000 300000     589  .Circle:	vfd	18/operator_bead_type,18/allow_product+allow_reduction,18/dyadic+monadic,9/0,9/10
    001460  aa   060000 000012
    001461  aa   000000 000003     590  	dec	3
    001462  aa   400000 400000     591  	vfd	18/operator_bead_type,18/allow_brackets,18/monadic,9/10,9/94
    001463  aa   020000 012136
    001464  aa   000000 000003     592  	dec	3
    001465  aa   400000 400000     593  	vfd	18/operator_bead_type,18/allow_brackets,18/monadic,9/10,9/95
    001466  aa   020000 012137
    001467  aa   000000 000003     594  	dec	3
    001470  aa   400000 400000     595  	vfd	18/operator_bead_type,18/allow_brackets,18/monadic,9/10,9/96
    001471  aa   020000 012140
    001472  aa   000000 000003     596  	dec	3
    001473  aa   400000 400000     597  	vfd	18/operator_bead_type,18/allow_brackets,18/monadic,9/10,9/97
    001474  aa   020000 012141
    001475  aa   000000 000003     598  	dec	3
    001476  aa   400000 000000     599  	vfd	18/operator_bead_type,18/0,18/dyadic,9/10,9/98
    001477  aa   040000 012142
    001500  aa   000000 000003     600  	dec	3
                                   601
                                   602  	use	op_index
                        000204     603  	org	AndSign
    000204  aa   000000 000153     604  	zero	0,(.AndSign-operator_bead_table)/3
                                   605  	use	op_bead_table
    001501  aa   400000 300000     606  .AndSign:	vfd	18/operator_bead_type,18/allow_product+allow_reduction,18/dyadic,9/0,9/11
    001502  aa   040000 000013
    001503  aa   000000 000003     607  	dec	3
    001504  aa   400000 400000     608  	vfd	18/operator_bead_type,18/allow_brackets,18/monadic,9/11,9/94
    001505  aa   020000 013136
    001506  aa   000000 000003     609  	dec	3
    001507  aa   400000 400000     610  	vfd	18/operator_bead_type,18/allow_brackets,18/monadic,9/11,9/95
    001510  aa   020000 013137
    001511  aa   000000 000003     611  	dec	3
    001512  aa   400000 400000     612  	vfd	18/operator_bead_type,18/allow_brackets,18/monadic,9/11,9/96
    001513  aa   020000 013140
    001514  aa   000000 000003     613  	dec	3
    001515  aa   400000 400000     614  	vfd	18/operator_bead_type,18/allow_brackets,18/monadic,9/11,9/97
    001516  aa   020000 013141
    001517  aa   000000 000003     615  	dec	3
    001520  aa   400000 000000     616  	vfd	18/operator_bead_type,18/0,18/dyadic,9/11,9/98
    001521  aa   040000 013142
    001522  aa   000000 000003     617  	dec	3
                                   618
                                   619  	use	op_index
                        000203     620  	org	OrSign
    000203  aa   000000 000161     621  	zero	0,(.OrSign-operator_bead_table)/3
                                   622  	use	op_bead_table
    001523  aa   400000 300000     623  .OrSign:	vfd	18/operator_bead_type,18/allow_product+allow_reduction,18/dyadic,9/0,9/12
    001524  aa   040000 000014
    001525  aa   000000 000003     624  	dec	3
    001526  aa   400000 400000     625  	vfd	18/operator_bead_type,18/allow_brackets,18/monadic,9/12,9/94
    001527  aa   020000 014136
    001530  aa   000000 000003     626  	dec	3
    001531  aa   400000 400000     627  	vfd	18/operator_bead_type,18/allow_brackets,18/monadic,9/12,9/95
    001532  aa   020000 014137
    001533  aa   000000 000003     628  	dec	3
    001534  aa   400000 400000     629  	vfd	18/operator_bead_type,18/allow_brackets,18/monadic,9/12,9/96
    001535  aa   020000 014140
    001536  aa   000000 000003     630  	dec	3
    001537  aa   400000 400000     631  	vfd	18/operator_bead_type,18/allow_brackets,18/monadic,9/12,9/97
    001540  aa   020000 014141
    001541  aa   000000 000003     632  	dec	3
    001542  aa   400000 000000     633  	vfd	18/operator_bead_type,18/0,18/dyadic,9/12,9/98
    001543  aa   040000 014142
    001544  aa   000000 000003     634  	dec	3
                                   635
                                   636  	use	op_index
                        000226     637  	org	NandSign
    000226  aa   000000 000167     638  	zero	0,(.NandSign-operator_bead_table)/3
                                   639  	use	op_bead_table
    001545  aa   400000 300000     640  .NandSign:	vfd	18/operator_bead_type,18/allow_product+allow_reduction,18/dyadic,9/0,9/13
    001546  aa   040000 000015
    001547  aa   000000 000003     641  	dec	3
    001550  aa   400000 400000     642  	vfd	18/operator_bead_type,18/allow_brackets,18/monadic,9/13,9/94
    001551  aa   020000 015136
    001552  aa   000000 000003     643  	dec	3
    001553  aa   400000 400000     644  	vfd	18/operator_bead_type,18/allow_brackets,18/monadic,9/13,9/95
    001554  aa   020000 015137
    001555  aa   000000 000003     645  	dec	3
    001556  aa   400000 400000     646  	vfd	18/operator_bead_type,18/allow_brackets,18/monadic,9/13,9/96
    001557  aa   020000 015140
    001560  aa   000000 000003     647  	dec	3
    001561  aa   400000 400000     648  	vfd	18/operator_bead_type,18/allow_brackets,18/monadic,9/13,9/97
    001562  aa   020000 015141
    001563  aa   000000 000003     649  	dec	3
    001564  aa   400000 000000     650  	vfd	18/operator_bead_type,18/0,18/dyadic,9/13,9/98
    001565  aa   040000 015142
    001566  aa   000000 000003     651  	dec	3
                                   652
                                   653  	use	op_index
                        000225     654  	org	NorSign
    000225  aa   000000 000175     655  	zero	0,(.NorSign-operator_bead_table)/3
                                   656  	use	op_bead_table
    001567  aa   400000 300000     657  .NorSign:	vfd	18/operator_bead_type,18/allow_product+allow_reduction,18/dyadic,9/0,9/14
    001570  aa   040000 000016
    001571  aa   000000 000003     658  	dec	3
    001572  aa   400000 400000     659  	vfd	18/operator_bead_type,18/allow_brackets,18/monadic,9/14,9/94
    001573  aa   020000 016136
    001574  aa   000000 000003     660  	dec	3
    001575  aa   400000 400000     661  	vfd	18/operator_bead_type,18/allow_brackets,18/monadic,9/14,9/95
    001576  aa   020000 016137
    001577  aa   000000 000003     662  	dec	3
    001600  aa   400000 400000     663  	vfd	18/operator_bead_type,18/allow_brackets,18/monadic,9/14,9/96
    001601  aa   020000 016140
    001602  aa   000000 000003     664  	dec	3
    001603  aa   400000 400000     665  	vfd	18/operator_bead_type,18/allow_brackets,18/monadic,9/14,9/97
    001604  aa   020000 016141
    001605  aa   000000 000003     666  	dec	3
    001606  aa   400000 000000     667  	vfd	18/operator_bead_type,18/0,18/dyadic,9/14,9/98
    001607  aa   040000 016142
    001610  aa   000000 000003     668  	dec	3
                                   669
                                   670  	use	op_index
                        000074     671  	org	LessThan
    000074  aa   000000 000203     672  	zero	0,(.LessThan-operator_bead_table)/3
                                   673  	use	op_bead_table
    001611  aa   400000 300000     674  .LessThan:	vfd	18/operator_bead_type,18/allow_product+allow_reduction,18/dyadic,9/0,9/15
    001612  aa   040000 000017
    001613  aa   000000 000003     675  	dec	3
    001614  aa   400000 400000     676  	vfd	18/operator_bead_type,18/allow_brackets,18/monadic,9/15,9/94
    001615  aa   020000 017136
    001616  aa   000000 000003     677  	dec	3
    001617  aa   400000 400000     678  	vfd	18/operator_bead_type,18/allow_brackets,18/monadic,9/15,9/95
    001620  aa   020000 017137
    001621  aa   000000 000003     679  	dec	3
    001622  aa   400000 400000     680  	vfd	18/operator_bead_type,18/allow_brackets,18/monadic,9/15,9/96
    001623  aa   020000 017140
    001624  aa   000000 000003     681  	dec	3
    001625  aa   400000 400000     682  	vfd	18/operator_bead_type,18/allow_brackets,18/monadic,9/15,9/97
    001626  aa   020000 017141
    001627  aa   000000 000003     683  	dec	3
    001630  aa   400000 000000     684  	vfd	18/operator_bead_type,18/0,18/dyadic,9/15,9/98
    001631  aa   040000 017142
    001632  aa   000000 000003     685  	dec	3
                                   686
                                   687  	use	op_index
                        000200     688  	org	LessOrEqual
    000200  aa   000000 000211     689  	zero	0,(.LessOrEqual-operator_bead_table)/3
                                   690  	use	op_bead_table
    001633  aa   400000 300000     691  .LessOrEqual:	vfd	18/operator_bead_type,18/allow_product+allow_reduction,18/dyadic,9/0,9/16
    001634  aa   040000 000020
    001635  aa   000000 000003     692  	dec	3
    001636  aa   400000 400000     693  	vfd	18/operator_bead_type,18/allow_brackets,18/monadic,9/16,9/94
    001637  aa   020000 020136
    001640  aa   000000 000003     694  	dec	3
    001641  aa   400000 400000     695  	vfd	18/operator_bead_type,18/allow_brackets,18/monadic,9/16,9/95
    001642  aa   020000 020137
    001643  aa   000000 000003     696  	dec	3
    001644  aa   400000 400000     697  	vfd	18/operator_bead_type,18/allow_brackets,18/monadic,9/16,9/96
    001645  aa   020000 020140
    001646  aa   000000 000003     698  	dec	3
    001647  aa   400000 400000     699  	vfd	18/operator_bead_type,18/allow_brackets,18/monadic,9/16,9/97
    001650  aa   020000 020141
    001651  aa   000000 000003     700  	dec	3
    001652  aa   400000 000000     701  	vfd	18/operator_bead_type,18/0,18/dyadic,9/16,9/98
    001653  aa   040000 020142
    001654  aa   000000 000003     702  	dec	3
                                   703
                                   704  	use	op_index
                        000075     705  	org	Equal
    000075  aa   000000 000217     706  	zero	0,(.Equal-operator_bead_table)/3
                                   707  	use	op_bead_table
    001655  aa   400000 300000     708  .Equal:	vfd	18/operator_bead_type,18/allow_product+allow_reduction,18/dyadic+monadic,9/0,9/17
    001656  aa   060000 000021
    001657  aa   000000 000003     709  	dec	3
    001660  aa   400000 400000     710  	vfd	18/operator_bead_type,18/allow_brackets,18/monadic,9/17,9/94
    001661  aa   020000 021136
    001662  aa   000000 000003     711  	dec	3
    001663  aa   400000 400000     712  	vfd	18/operator_bead_type,18/allow_brackets,18/monadic,9/17,9/95
    001664  aa   020000 021137
    001665  aa   000000 000003     713  	dec	3
    001666  aa   400000 400000     714  	vfd	18/operator_bead_type,18/allow_brackets,18/monadic,9/17,9/96
    001667  aa   020000 021140
    001670  aa   000000 000003     715  	dec	3
    001671  aa   400000 400000     716  	vfd	18/operator_bead_type,18/allow_brackets,18/monadic,9/17,9/97
    001672  aa   020000 021141
    001673  aa   000000 000003     717  	dec	3
    001674  aa   400000 000000     718  	vfd	18/operator_bead_type,18/0,18/dyadic,9/17,9/98
    001675  aa   040000 021142
    001676  aa   000000 000003     719  	dec	3
                                   720
                                   721  	use	op_index
                        000201     722  	org	GreaterOrEqual
    000201  aa   000000 000225     723  	zero	0,(.GreaterOrEqual-operator_bead_table)/3
                                   724  	use	op_bead_table
    001677  aa   400000 300000     725  .GreaterOrEqual:	vfd	18/operator_bead_type,18/allow_product+allow_reduction,18/dyadic,9/0,9/18
    001700  aa   040000 000022
    001701  aa   000000 000003     726  	dec	3
    001702  aa   400000 400000     727  	vfd	18/operator_bead_type,18/allow_brackets,18/monadic,9/18,9/94
    001703  aa   020000 022136
    001704  aa   000000 000003     728  	dec	3
    001705  aa   400000 400000     729  	vfd	18/operator_bead_type,18/allow_brackets,18/monadic,9/18,9/95
    001706  aa   020000 022137
    001707  aa   000000 000003     730  	dec	3
    001710  aa   400000 400000     731  	vfd	18/operator_bead_type,18/allow_brackets,18/monadic,9/18,9/96
    001711  aa   020000 022140
    001712  aa   000000 000003     732  	dec	3
    001713  aa   400000 400000     733  	vfd	18/operator_bead_type,18/allow_brackets,18/monadic,9/18,9/97
    001714  aa   020000 022141
    001715  aa   000000 000003     734  	dec	3
    001716  aa   400000 000000     735  	vfd	18/operator_bead_type,18/0,18/dyadic,9/18,9/98
    001717  aa   040000 022142
    001720  aa   000000 000003     736  	dec	3
                                   737
                                   738  	use	op_index
                        000076     739  	org	GreaterThan
    000076  aa   000000 000233     740  	zero	0,(.GreaterThan-operator_bead_table)/3
                                   741  	use	op_bead_table
    001721  aa   400000 300000     742  .GreaterThan:	vfd	18/operator_bead_type,18/allow_product+allow_reduction,18/dyadic,9/0,9/19
    001722  aa   040000 000023
    001723  aa   000000 000003     743  	dec	3
    001724  aa   400000 400000     744  	vfd	18/operator_bead_type,18/allow_brackets,18/monadic,9/19,9/94
    001725  aa   020000 023136
    001726  aa   000000 000003     745  	dec	3
    001727  aa   400000 400000     746  	vfd	18/operator_bead_type,18/allow_brackets,18/monadic,9/19,9/95
    001730  aa   020000 023137
    001731  aa   000000 000003     747  	dec	3
    001732  aa   400000 400000     748  	vfd	18/operator_bead_type,18/allow_brackets,18/monadic,9/19,9/96
    001733  aa   020000 023140
    001734  aa   000000 000003     749  	dec	3
    001735  aa   400000 400000     750  	vfd	18/operator_bead_type,18/allow_brackets,18/monadic,9/19,9/97
    001736  aa   020000 023141
    001737  aa   000000 000003     751  	dec	3
    001740  aa   400000 000000     752  	vfd	18/operator_bead_type,18/0,18/dyadic,9/19,9/98
    001741  aa   040000 023142
    001742  aa   000000 000003     753  	dec	3
                                   754
                                   755  	use	op_index
                        000202     756  	org	NotEqual
    000202  aa   000000 000241     757  	zero	0,(.NotEqual-operator_bead_table)/3
                                   758  	use	op_bead_table
    001743  aa   400000 300000     759  .NotEqual:	vfd	18/operator_bead_type,18/allow_product+allow_reduction,18/dyadic+monadic,9/0,9/20
    001744  aa   060000 000024
    001745  aa   000000 000003     760  	dec	3
    001746  aa   400000 400000     761  	vfd	18/operator_bead_type,18/allow_brackets,18/monadic,9/20,9/94
    001747  aa   020000 024136
    001750  aa   000000 000003     762  	dec	3
    001751  aa   400000 400000     763  	vfd	18/operator_bead_type,18/allow_brackets,18/monadic,9/20,9/95
    001752  aa   020000 024137
    001753  aa   000000 000003     764  	dec	3
    001754  aa   400000 400000     765  	vfd	18/operator_bead_type,18/allow_brackets,18/monadic,9/20,9/96
    001755  aa   020000 024140
    001756  aa   000000 000003     766  	dec	3
    001757  aa   400000 400000     767  	vfd	18/operator_bead_type,18/allow_brackets,18/monadic,9/20,9/97
    001760  aa   020000 024141
    001761  aa   000000 000003     768  	dec	3
    001762  aa   400000 000000     769  	vfd	18/operator_bead_type,18/0,18/dyadic,9/20,9/98
    001763  aa   040000 024142
    001764  aa   000000 000003     770  	dec	3
                                   771
                                   772  	use	op_index
                        000250     773  	org	Rho
    000250  aa   000000 000247     774  	zero	0,(.Rho-operator_bead_table)/3
                                   775  	use	op_bead_table
    001765  aa   400000 000000     776  .Rho:	vfd	18/operator_bead_type,18/0,18/dyadic+monadic,9/0,9/36
    001766  aa   060000 000044
    001767  aa   000000 000003     777  	dec	3
                                   778
                                   779  	use	op_index
                        000054     780  	org	Comma
    000054  aa   000000 000250     781  	zero	0,(.Comma-operator_bead_table)/3
                                   782  	use	op_bead_table
    001770  aa   400000 400000     783  .Comma:	vfd	18/operator_bead_type,18/allow_brackets,18/dyadic+monadic,9/0,9/37
    001771  aa   060000 000045
    001772  aa   000000 000003     784  	dec	3
    001773  aa   400000 000000     785  	vfd	18/operator_bead_type,18/0,18/dyadic+monadic,9/0,9/37
    001774  aa   060000 000045
    001775  aa   000000 000003     786  	dec	3
                                   787
                                   788  	use	op_index
                        000247     789  	org	Iota
    000247  aa   000000 000252     790  	zero	0,(.Iota-operator_bead_table)/3
                                   791  	use	op_bead_table
    001776  aa   400000 000000     792  .Iota:	vfd	18/operator_bead_type,18/0,18/dyadic+monadic,9/0,9/38
    001777  aa   060000 000046
    002000  aa   000000 000003     793  	dec	3
                                   794
                                   795  	use	op_index
                        000207     796  	org	UpArrow
    000207  aa   000000 000253     797  	zero	0,(.UpArrow-operator_bead_table)/3
                                   798  	use	op_bead_table
    002001  aa   400000 400000     799  .UpArrow:	vfd	18/operator_bead_type,18/allow_brackets,18/dyadic,9/0,9/39
    002002  aa   040000 000047
    002003  aa   000000 000003     800  	dec	3
    002004  aa   400000 000000     801  	vfd	18/operator_bead_type,18/0,18/dyadic,9/0,9/39
    002005  aa   040000 000047
    002006  aa   000000 000003     802  	dec	3
                                   803
                                   804  	use	op_index
                        000210     805  	org	DownArrow
    000210  aa   000000 000255     806  	zero	0,(.DownArrow-operator_bead_table)/3
                                   807  	use	op_bead_table
    002007  aa   400000 400000     808  .DownArrow:	vfd	18/operator_bead_type,18/allow_brackets,18/dyadic,9/0,9/40
    002010  aa   040000 000050
    002011  aa   000000 000003     809  	dec	3
    002012  aa   400000 000000     810  	vfd	18/operator_bead_type,18/0,18/dyadic,9/0,9/40
    002013  aa   040000 000050
    002014  aa   000000 000003     811  	dec	3
                                   812
                                   813  	use	op_index
                        000237     814  	org	GradeUp
    000237  aa   000000 000257     815  	zero	0,(.GradeUp-operator_bead_table)/3
                                   816  	use	op_bead_table
    002015  aa   400000 400000     817  .GradeUp:	vfd	18/operator_bead_type,18/allow_brackets,18/monadic,9/0,9/41
    002016  aa   020000 000051
    002017  aa   000000 000003     818  	dec	3
    002020  aa   400000 000000     819  	vfd	18/operator_bead_type,18/0,18/monadic,9/0,9/41
    002021  aa   020000 000051
    002022  aa   000000 000003     820  	dec	3
                                   821
                                   822  	use	op_index
                        000236     823  	org	GradeDown
    000236  aa   000000 000261     824  	zero	0,(.GradeDown-operator_bead_table)/3
                                   825  	use	op_bead_table
    002023  aa   400000 400000     826  .GradeDown:	vfd	18/operator_bead_type,18/allow_brackets,18/monadic,9/0,9/42
    002024  aa   020000 000052
    002025  aa   000000 000003     827  	dec	3
    002026  aa   400000 000000     828  	vfd	18/operator_bead_type,18/0,18/monadic,9/0,9/42
    002027  aa   020000 000052
    002030  aa   000000 000003     829  	dec	3
                                   830
                                   831  	use	op_index
                        000057     832  	org	Slash
    000057  aa   000000 000263     833  	zero	0,(.Slash-operator_bead_table)/3
                                   834  	use	op_bead_table
    002031  aa   400000 400000     835  .Slash:	vfd	18/operator_bead_type,18/allow_brackets,18/dyadic,9/0,9/43
    002032  aa   040000 000053
    002033  aa   000000 000003     836  	dec	3
    002034  aa   400000 000000     837  	vfd	18/operator_bead_type,18/0,18/dyadic,9/0,9/43
    002035  aa   040000 000053
    002036  aa   000000 000003     838  	dec	3
                                   839
                                   840  	use	op_index
                        000134     841  	org	BackSlash
    000134  aa   000000 000265     842  	zero	0,(.BackSlash-operator_bead_table)/3
                                   843  	use	op_bead_table
    002037  aa   400000 400000     844  .BackSlash:	vfd	18/operator_bead_type,18/allow_brackets,18/dyadic,9/0,9/44
    002040  aa   040000 000054
    002041  aa   000000 000003     845  	dec	3
    002042  aa   400000 000000     846  	vfd	18/operator_bead_type,18/0,18/dyadic,9/0,9/44
    002043  aa   040000 000054
    002044  aa   000000 000003     847  	dec	3
                                   848
                                   849  	use	op_index
                        000233     850  	org	CircleBar
    000233  aa   000000 000267     851  	zero	0,(.CircleBar-operator_bead_table)/3
                                   852  	use	op_bead_table
    002045  aa   400000 400000     853  .CircleBar:	vfd	18/operator_bead_type,18/allow_brackets,18/dyadic+monadic,9/0,9/45
    002046  aa   060000 000055
    002047  aa   000000 000003     854  	dec	3
    002050  aa   400000 000000     855  	vfd	18/operator_bead_type,18/0,18/dyadic+monadic,9/0,9/45
    002051  aa   060000 000055
    002052  aa   000000 000003     856  	dec	3
                                   857
                                   858  	use	op_index
                        000230     859  	org	SlashHyphen
    000230  aa   000000 000271     860  	zero	0,(.SlashHyphen-operator_bead_table)/3
                                   861  	use	op_bead_table
    002053  aa   400000 400000     862  .SlashHyphen:	vfd	18/operator_bead_type,18/allow_brackets,18/dyadic,9/0,9/46
    002054  aa   040000 000056
    002055  aa   000000 000003     863  	dec	3
    002056  aa   400000 000000     864  	vfd	18/operator_bead_type,18/0,18/dyadic,9/0,9/46
    002057  aa   040000 000056
    002060  aa   000000 000003     865  	dec	3
                                   866
                                   867  	use	op_index
                        000243     868  	org	BackSlashHyphen
    000243  aa   000000 000273     869  	zero	0,(.BackSlashHyphen-operator_bead_table)/3
                                   870  	use	op_bead_table
    002061  aa   400000 400000     871  .BackSlashHyphen:	vfd	18/operator_bead_type,18/allow_brackets,18/dyadic,9/0,9/47
    002062  aa   040000 000057
    002063  aa   000000 000003     872  	dec	3
    002064  aa   400000 000000     873  	vfd	18/operator_bead_type,18/0,18/dyadic,9/0,9/47
    002065  aa   040000 000057
    002066  aa   000000 000003     874  	dec	3
                                   875
                                   876  	use	op_index
                        000227     877  	org	CircleHyphen
    000227  aa   000000 000275     878  	zero	0,(.CircleHyphen-operator_bead_table)/3
                                   879  	use	op_bead_table
    002067  aa   400000 400000     880  .CircleHyphen:	vfd	18/operator_bead_type,18/allow_brackets,18/monadic+dyadic,9/0,9/48
    002070  aa   060000 000060
    002071  aa   000000 000003     881  	dec	3
    002072  aa   400000 000000     882  	vfd	18/operator_bead_type,18/0,18/monadic+dyadic,9/0,9/48
    002073  aa   060000 000060
    002074  aa   000000 000003     883  	dec	3
                                   884
                                   885  	use	op_index
                        000234     886  	org	CircleBackSlash
    000234  aa   000000 000277     887  	zero	0,(.CircleBackSlash-operator_bead_table)/3
                                   888  	use	op_bead_table
    002075  aa   400000 400000     889  .CircleBackSlash:	vfd	18/operator_bead_type,18/allow_brackets,18/dyadic+monadic,9/0,9/49
    002076  aa   060000 000061
    002077  aa   000000 000003     890  	dec	3
    002100  aa   400000 000000     891  	vfd	18/operator_bead_type,18/0,18/dyadic+monadic,9/0,9/49
    002101  aa   060000 000061
    002102  aa   000000 000003     892  	dec	3
                                   893
                                   894  	use	op_index
                        000206     895  	org	Epsilon
    000206  aa   000000 000301     896  	zero	0,(.Epsilon-operator_bead_table)/3
                                   897  	use	op_bead_table
    002103  aa   400000 000000     898  .Epsilon:	vfd	18/operator_bead_type,18/0,18/dyadic,9/0,9/50
    002104  aa   040000 000062
    002105  aa   000000 000003     899  	dec	3
                                   900
                                   901  	use	op_index
                        000220     902  	org	DeCode
    000220  aa   000000 000302     903  	zero	0,(.DeCode-operator_bead_table)/3
                                   904  	use	op_bead_table
    002106  aa   400000 000000     905  .DeCode:	vfd	18/operator_bead_type,18/0,18/dyadic,9/0,9/51
    002107  aa   040000 000063
    002110  aa   000000 000003     906  	dec	3
                                   907
                                   908  	use	op_index
                        000221     909  	org	EnCode
    000221  aa   000000 000303     910  	zero	0,(.EnCode-operator_bead_table)/3
                                   911  	use	op_bead_table
    002111  aa   400000 000000     912  .EnCode:	vfd	18/operator_bead_type,18/0,18/dyadic,9/0,9/52
    002112  aa   040000 000064
    002113  aa   000000 000003     913  	dec	3
                                   914
                                   915  	use	op_index
                        000274     916  	org	ExecuteSign
    000274  aa   000000 000304     917  	zero	0,(.ExecuteSign-operator_bead_table)/3
                                   918  	use	op_bead_table
    002114  aa   400000 000000     919  .ExecuteSign:	vfd	18/operator_bead_type,18/0,18/monadic,9/0,9/53
    002115  aa   020000 000065
    002116  aa   000000 000003     920  	dec	3
                                   921
                                   922  	use	op_index
                        000275     923  	org	FormatSign
    000275  aa   000000 000305     924  	zero	0,(.FormatSign-operator_bead_table)/3
                                   925  	use	op_bead_table
    002117  aa   400000 000000     926  .FormatSign:	vfd	18/operator_bead_type,18/0,18/dyadic+monadic,9/0,9/54
    002120  aa   060000 000066
    002121  aa   000000 000003     927  	dec	3
                                   928
                                   929  	use	op_index
                        000242     930  	org	IBeam
    000242  aa   000000 000306     931  	zero	0,(.IBeam-operator_bead_table)/3
                                   932  	use	op_bead_table
    002122  aa   400000 000000     933  .IBeam:	vfd	18/operator_bead_type,18/0,18/monadic+dyadic,9/0,9/55
    002123  aa   060000 000067
    002124  aa   000000 000003     934  	dec	3
                                   935
                                   936  	use	op_index
                        000176     937  	org	Tilde
    000176  aa   000000 000307     938  	zero	0,(.Tilde-operator_bead_table)/3
                                   939  	use	op_bead_table
    002125  aa   400000 000000     940  .Tilde:	vfd	18/operator_bead_type,18/0,18/monadic,9/0,9/56
    002126  aa   020000 000070
    002127  aa   000000 000003     941  	dec	3
                                   942
                                   943  	use	op_index
                        000077     944  	org	Question
    000077  aa   000000 000310     945  	zero	0,(.Question-operator_bead_table)/3
                                   946  	use	op_bead_table
    002130  aa   400000 000000     947  .Question:	vfd	18/operator_bead_type,18/0,18/dyadic+monadic,9/0,9/57
    002131  aa   060000 000071
    002132  aa   000000 000003     948  	dec	3
                                   949
                                   950  	use	op_index
                        000334     951  	org	QuadCR
    000334  aa   000000 000311     952  	zero	0,(.QuadCR-operator_bead_table)/3
                                   953  	use	op_bead_table
    002133  aa   400000 000000     954  .QuadCR:	vfd	18/operator_bead_type,18/0,18/monadic,9/0,9/58
    002134  aa   020000 000072
    002135  aa   000000 000003     955  	dec	3
                                   956
                                   957  	use	op_index
                        000335     958  	org	QuadFX
    000335  aa   000000 000312     959  	zero	0,(.QuadFX-operator_bead_table)/3
                                   960  	use	op_bead_table
    002136  aa   400000 000000     961  .QuadFX:	vfd	18/operator_bead_type,18/0,18/monadic,9/0,9/59
    002137  aa   020000 000073
    002140  aa   000000 000003     962  	dec	3
                                   963
                                   964  	use	op_index
                        000336     965  	org	QuadEX
    000336  aa   000000 000313     966  	zero	0,(.QuadEX-operator_bead_table)/3
                                   967  	use	op_bead_table
    002141  aa   400000 000000     968  .QuadEX:	vfd	18/operator_bead_type,18/0,18/monadic,9/0,9/60
    002142  aa   020000 000074
    002143  aa   000000 000003     969  	dec	3
                                   970
                                   971  	use	op_index
                        000337     972  	org	QuadNL
    000337  aa   000000 000314     973  	zero	0,(.QuadNL-operator_bead_table)/3
                                   974  	use	op_bead_table
    002144  aa   400000 000000     975  .QuadNL:	vfd	18/operator_bead_type,18/0,18/monadic+dyadic,9/0,9/61
    002145  aa   060000 000075
    002146  aa   000000 000003     976  	dec	3
                                   977
                                   978  	use	op_index
                        000340     979  	org	QuadNC
    000340  aa   000000 000315     980  	zero	0,(.QuadNC-operator_bead_table)/3
                                   981  	use	op_bead_table
    002147  aa   400000 000000     982  .QuadNC:	vfd	18/operator_bead_type,18/0,18/monadic,9/0,9/62
    002150  aa   020000 000076
    002151  aa   000000 000003     983  	dec	3
                                   984
                                   985  	use	op_index
                        000341     986  	org	QuadDL
    000341  aa   000000 000316     987  	zero	0,(.QuadDL-operator_bead_table)/3
                                   988  	use	op_bead_table
    002152  aa   400000 000000     989  .QuadDL:	vfd	18/operator_bead_type,18/0,18/monadic,9/0,9/63
    002153  aa   020000 000077
    002154  aa   000000 000003     990  	dec	3
                                   991
                                   992  	use	op_index
                        000342     993  	org	QuadSVO
    000342  aa   000000 000317     994  	zero	0,(.QuadSVO-operator_bead_table)/3
                                   995  	use	op_bead_table
    002155  aa   400000 000000     996  .QuadSVO:	vfd	18/operator_bead_type,18/0,18/monadic+dyadic,9/0,9/64
    002156  aa   060000 000100
    002157  aa   000000 000003     997  	dec	3
                                   998
                                   999  	use	op_index
                        000343    1000  	org	QuadSVC
    000343  aa   000000 000320    1001  	zero	0,(.QuadSVC-operator_bead_table)/3
                                  1002  	use	op_bead_table
    002160  aa   400000 000000    1003  .QuadSVC:	vfd	18/operator_bead_type,18/0,18/monadic+dyadic,9/0,9/65
    002161  aa   060000 000101
    002162  aa   000000 000003    1004  	dec	3
                                  1005
                                  1006  	use	op_index
                        000344    1007  	org	QuadSVQ
    000344  aa   000000 000321    1008  	zero	0,(.QuadSVQ-operator_bead_table)/3
                                  1009  	use	op_bead_table
    002163  aa   400000 000000    1010  .QuadSVQ:	vfd	18/operator_bead_type,18/0,18/monadic,9/0,9/66
    002164  aa   020000 000102
    002165  aa   000000 000003    1011  	dec	3
                                  1012
                                  1013  	use	op_index
                        000256    1014  	org	RightArrow
    000256  aa   000000 000322    1015  	zero	0,(.RightArrow-operator_bead_table)/3
                                  1016  	use	op_bead_table
    002166  aa   400000 000000    1017  .RightArrow:	vfd	18/operator_bead_type,18/0,18/monadic,9/0,9/67
    002167  aa   020000 000103
    002170  aa   000000 000003    1018  	dec	3
                                  1019
                                  1020  	use	op_index
                        000244    1021  	org	Domino
    000244  aa   000000 000323    1022  	zero	0,(.Domino-operator_bead_table)/3
                                  1023  	use	op_bead_table
    002171  aa   400000 000000    1024  .Domino:	vfd	18/operator_bead_type,18/0,18/monadic+dyadic,9/0,9/68
    002172  aa   060000 000104
    002173  aa   000000 000003    1025  	dec	3
                                  1026
                                  1027  	use	op_index
                        000345    1028  	org	QuadSVR
    000345  aa   000000 000324    1029  	zero	0,(.QuadSVR-operator_bead_table)/3
                                  1030  	use	op_bead_table
    002174  aa   400000 000000    1031  .QuadSVR:	vfd	18/operator_bead_type,18/0,18/monadic,9/0,9/69
    002175  aa   020000 000105
    002176  aa   000000 000003    1032  	dec	3
                                  1033
                                  1034  	use	op_index
                        000347    1035  	org	QuadEC
    000347  aa   000000 000325    1036  	zero	0,(.QuadEC-operator_bead_table)/3
                                  1037  	use	op_bead_table
    002177  aa   400000 000000    1038  .QuadEC:	vfd	18/operator_bead_type,18/0,18/monadic,9/0,9/70
    002200  aa   020000 000106
    002201  aa   000000 000003    1039  	dec	3
                                  1040
                                  1041  	use	op_index
                        000350    1042  	org	QuadAF
    000350  aa   000000 000326    1043  	zero	0,(.QuadAF-operator_bead_table)/3
                                  1044  	use	op_bead_table
    002202  aa   400000 000000    1045  .QuadAF:	vfd	18/operator_bead_type,18/0,18/monadic,9/0,9/71
    002203  aa   020000 000107
    002204  aa   000000 000003    1046  	dec	3
                                  1047
                                  1048  	use	op_index
                        000351    1049  	org	SemiColonCons
    000351  aa   000000 000327    1050  	zero	0,(.SemiColonCons-operator_bead_table)/3
                                  1051  	use	op_bead_table
    002205  aa   400000 000000    1052  .SemiColonCons:	vfd	18/operator_bead_type,18/0,18/dyadic,9/0,9/72
    002206  aa   040000 000110
    002207  aa   000000 000003    1053  	dec	3
                                  1054
                                  1055  	use	op_index
                        000352    1056  	org	QuadFADDACL
    000352  aa   000000 000330    1057  	zero	0,(.QuadFADDACL-operator_bead_table)/3
                                  1058  	use	op_bead_table
    002210  aa   400000 000000    1059  .QuadFADDACL:	vfd	18/operator_bead_type,18/0,18/dyadic,9/0,9/73
    002211  aa   040000 000111
    002212  aa   000000 000003    1060  	dec	3
                                  1061
                                  1062  	use	op_index
                        000353    1063  	org	QuadFAPPEND
    000353  aa   000000 000331    1064  	zero	0,(.QuadFAPPEND-operator_bead_table)/3
                                  1065  	use	op_bead_table
    002213  aa   400000 000000    1066  .QuadFAPPEND:	vfd	18/operator_bead_type,18/0,18/dyadic,9/0,9/74
    002214  aa   040000 000112
    002215  aa   000000 000003    1067  	dec	3
                                  1068
                                  1069  	use	op_index
                        000354    1070  	org	QuadFCREATE
    000354  aa   000000 000332    1071  	zero	0,(.QuadFCREATE-operator_bead_table)/3
                                  1072  	use	op_bead_table
    002216  aa   400000 000000    1073  .QuadFCREATE:	vfd	18/operator_bead_type,18/0,18/dyadic,9/0,9/75
    002217  aa   040000 000113
    002220  aa   000000 000003    1074  	dec	3
                                  1075
                                  1076  	use	op_index
                        000355    1077  	org	QuadFDELETEACL
    000355  aa   000000 000333    1078  	zero	0,(.QuadFDELETEACL-operator_bead_table)/3
                                  1079  	use	op_bead_table
    002221  aa   400000 000000    1080  .QuadFDELETEACL:	vfd	18/operator_bead_type,18/0,18/dyadic,9/0,9/76
    002222  aa   040000 000114
    002223  aa   000000 000003    1081  	dec	3
                                  1082
                                  1083  	use	op_index
                        000356    1084  	org	QuadFDROP
    000356  aa   000000 000334    1085  	zero	0,(.QuadFDROP-operator_bead_table)/3
                                  1086  	use	op_bead_table
    002224  aa   400000 000000    1087  .QuadFDROP:	vfd	18/operator_bead_type,18/0,18/monadic,9/0,9/77
    002225  aa   020000 000115
    002226  aa   000000 000003    1088  	dec	3
                                  1089
                                  1090  	use	op_index
                        000357    1091  	org	QuadFERASE
    000357  aa   000000 000335    1092  	zero	0,(.QuadFERASE-operator_bead_table)/3
                                  1093  	use	op_bead_table
    002227  aa   400000 000000    1094  .QuadFERASE:	vfd	18/operator_bead_type,18/0,18/dyadic,9/0,9/78
    002230  aa   040000 000116
    002231  aa   000000 000003    1095  	dec	3
                                  1096
                                  1097  	use	op_index
                        000360    1098  	org	QuadFHOLD
    000360  aa   000000 000336    1099  	zero	0,(.QuadFHOLD-operator_bead_table)/3
                                  1100  	use	op_bead_table
    002232  aa   400000 000000    1101  .QuadFHOLD:	vfd	18/operator_bead_type,18/0,18/monadic,9/0,9/79
    002233  aa   020000 000117
    002234  aa   000000 000003    1102  	dec	3
                                  1103
                                  1104  	use	op_index
                        000361    1105  	org	QuadFLIB
    000361  aa   000000 000337    1106  	zero	0,(.QuadFLIB-operator_bead_table)/3
                                  1107  	use	op_bead_table
    002235  aa   400000 000000    1108  .QuadFLIB:	vfd	18/operator_bead_type,18/0,18/monadic,9/0,9/80
    002236  aa   020000 000120
    002237  aa   000000 000003    1109  	dec	3
                                  1110
                                  1111  	use	op_index
                        000362    1112  	org	QuadFLIM
    000362  aa   000000 000340    1113  	zero	0,(.QuadFLIM-operator_bead_table)/3
                                  1114  	use	op_bead_table
    002240  aa   400000 000000    1115  .QuadFLIM:	vfd	18/operator_bead_type,18/0,18/monadic,9/0,9/81
    002241  aa   020000 000121
    002242  aa   000000 000003    1116  	dec	3
                                  1117
                                  1118  	use	op_index
                        000363    1119  	org	QuadFLISTACL
    000363  aa   000000 000341    1120  	zero	0,(.QuadFLISTACL-operator_bead_table)/3
                                  1121  	use	op_bead_table
    002243  aa   400000 000000    1122  .QuadFLISTACL:	vfd	18/operator_bead_type,18/0,18/monadic,9/0,9/82
    002244  aa   020000 000122
    002245  aa   000000 000003    1123  	dec	3
                                  1124
                                  1125  	use	op_index
                        000364    1126  	org	QuadFNAMES
    000364  aa   000000 000342    1127  	zero	0,(.QuadFNAMES-operator_bead_table)/3
                                  1128  	use	op_bead_table
    002246  aa   400000 020000    1129  .QuadFNAMES:	vfd	18/operator_bead_type,18/ignores_assignment,18/system_variable,9/0,9/83
    002247  aa   100000 000123
    002250  aa   000000 000003    1130  	dec	3
                                  1131
                                  1132  	use	op_index
                        000365    1133  	org	QuadFNUMS
    000365  aa   000000 000343    1134  	zero	0,(.QuadFNUMS-operator_bead_table)/3
                                  1135  	use	op_bead_table
    002251  aa   400000 020000    1136  .QuadFNUMS:	vfd	18/operator_bead_type,18/ignores_assignment,18/system_variable,9/0,9/84
    002252  aa   100000 000124
    002253  aa   000000 000003    1137  	dec	3
                                  1138
                                  1139  	use	op_index
                        000366    1140  	org	QuadFRDCI
    000366  aa   000000 000344    1141  	zero	0,(.QuadFRDCI-operator_bead_table)/3
                                  1142  	use	op_bead_table
    002254  aa   400000 000000    1143  .QuadFRDCI:	vfd	18/operator_bead_type,18/0,18/monadic,9/0,9/85
    002255  aa   020000 000125
    002256  aa   000000 000003    1144  	dec	3
                                  1145
                                  1146  	use	op_index
                        000367    1147  	org	QuadFREAD
    000367  aa   000000 000345    1148  	zero	0,(.QuadFREAD-operator_bead_table)/3
                                  1149  	use	op_bead_table
    002257  aa   400000 000000    1150  .QuadFREAD:	vfd	18/operator_bead_type,18/0,18/monadic,9/0,9/86
    002260  aa   020000 000126
    002261  aa   000000 000003    1151  	dec	3
                                  1152
                                  1153  	use	op_index
                        000370    1154  	org	QuadFRENAME
    000370  aa   000000 000346    1155  	zero	0,(.QuadFRENAME-operator_bead_table)/3
                                  1156  	use	op_bead_table
    002262  aa   400000 000000    1157  .QuadFRENAME:	vfd	18/operator_bead_type,18/0,18/dyadic,9/0,9/87
    002263  aa   040000 000127
    002264  aa   000000 000003    1158  	dec	3
                                  1159
                                  1160  	use	op_index
                        000371    1161  	org	QuadFREPLACE
    000371  aa   000000 000347    1162  	zero	0,(.QuadFREPLACE-operator_bead_table)/3
                                  1163  	use	op_bead_table
    002265  aa   400000 000000    1164  .QuadFREPLACE:	vfd	18/operator_bead_type,18/0,18/dyadic,9/0,9/88
    002266  aa   040000 000130
    002267  aa   000000 000003    1165  	dec	3
                                  1166
                                  1167  	use	op_index
                        000372    1168  	org	QuadFSETACL
    000372  aa   000000 000350    1169  	zero	0,(.QuadFSETACL-operator_bead_table)/3
                                  1170  	use	op_bead_table
    002270  aa   400000 000000    1171  .QuadFSETACL:	vfd	18/operator_bead_type,18/0,18/dyadic,9/0,9/89
    002271  aa   040000 000131
    002272  aa   000000 000003    1172  	dec	3
                                  1173
                                  1174  	use	op_index
                        000373    1175  	org	QuadFSIZE
    000373  aa   000000 000351    1176  	zero	0,(.QuadFSIZE-operator_bead_table)/3
                                  1177  	use	op_bead_table
    002273  aa   400000 000000    1178  .QuadFSIZE:	vfd	18/operator_bead_type,18/0,18/monadic,9/0,9/90
    002274  aa   020000 000132
    002275  aa   000000 000003    1179  	dec	3
                                  1180
                                  1181  	use	op_index
                        000374    1182  	org	QuadFSTIE
    000374  aa   000000 000352    1183  	zero	0,(.QuadFSTIE-operator_bead_table)/3
                                  1184  	use	op_bead_table
    002276  aa   400000 000000    1185  .QuadFSTIE:	vfd	18/operator_bead_type,18/0,18/dyadic,9/0,9/91
    002277  aa   040000 000133
    002300  aa   000000 000003    1186  	dec	3
                                  1187
                                  1188  	use	op_index
                        000375    1189  	org	QuadFTIE
    000375  aa   000000 000353    1190  	zero	0,(.QuadFTIE-operator_bead_table)/3
                                  1191  	use	op_bead_table
    002301  aa   400000 000000    1192  .QuadFTIE:	vfd	18/operator_bead_type,18/0,18/dyadic,9/0,9/92
    002302  aa   040000 000134
    002303  aa   000000 000003    1193  	dec	3
                                  1194
                                  1195  	use	op_index
                        000376    1196  	org	QuadFUNTIE
    000376  aa   000000 000354    1197  	zero	0,(.QuadFUNTIE-operator_bead_table)/3
                                  1198  	use	op_bead_table
    002304  aa   400000 000000    1199  .QuadFUNTIE:	vfd	18/operator_bead_type,18/0,18/monadic,9/0,9/121
    002305  aa   020000 000171
    002306  aa   000000 000003    1200  	dec	3
                                  1201
                                  1202  	use	op_index
                        000303    1203  	org	CommaHyphen
    000303  aa   000000 000355    1204  	zero	0,(.CommaHyphen-operator_bead_table)/3
                                  1205  	use	op_bead_table
    002307  aa   400000 400000    1206  .CommaHyphen:	vfd	18/operator_bead_type,18/allow_brackets,18/dyadic,9/0,9/122
    002310  aa   040000 000172
    002311  aa   000000 000003    1207  	dec	3
                                  1208
                                  1209  	use	op_index
                        000377    1210  	org	QuadCALL
    000377  aa   000000 000356    1211  	zero	0,(.QuadCALL-operator_bead_table)/3
                                  1212  	use	op_bead_table
    002312  aa   400000 000000    1213  .QuadCALL:	vfd 18/operator_bead_type,18/0,18/monadic,9/0,9/123
    002313  aa   020000 000173
    002314  aa   000000 000003    1214  	dec	3
                                  1215
                                  1216  	use	op_index
                        000400    1217  	org	QuadCALLSemicolon
    000400  aa   000000 000357    1218  	zero	0,(.QuadCALLSemicolon-operator_bead_table)/3
                                  1219  	use	op_bead_table
    002315  aa   400000 000000    1220  .QuadCALLSemicolon:	vfd 18/operator_bead_type,18/0,18/dyadic,9/0,9/124
    002316  aa   040000 000174
    002317  aa   000000 000003    1221  	dec	3
                                  1222
                                  1223
                                  1224  "" 
                                  1225  "" Now generate the inner product table, which has lexemes for
                                  1226  "" all possible pairs of operators possessing the allow_product attribute
                                  1227
                        000024    1228  	equ	inner_product_max_code,20
                                  1229
                                  1230  	use	inner_prod_tbl
                                  1231
                        000001    1232  	equ	z,*-inner_product_table	origin of array to be built up
                                  1233  					"non-relocatable for kludgey org pseudo-op
                                  1234
                        000001    1235  	org	z+(0*(inner_product_max_code+1)+0)*3	Plus.Plus
    002321  aa   400000 000000    1236  	vfd	18/operator_bead_type,18/0,18/dyadic+inner_product,9/0,9/0
    002322  aa   041000 000000
    002323  aa   000000 000003    1237  	dec 	3
                                  1238
                        000004    1239  	org	z+(0*(inner_product_max_code+1)+1)*3	Plus.Minus
    002324  aa   400000 000000    1240  	vfd	18/operator_bead_type,18/0,18/dyadic+inner_product,9/0,9/1
    002325  aa   041000 000001
    002326  aa   000000 000003    1241  	dec 	3
                                  1242
                        000007    1243  	org	z+(0*(inner_product_max_code+1)+2)*3	Plus.Times
    002327  aa   400000 000000    1244  	vfd	18/operator_bead_type,18/0,18/dyadic+inner_product,9/0,9/2
    002330  aa   041000 000002
    002331  aa   000000 000003    1245  	dec 	3
                                  1246
                        000012    1247  	org	z+(0*(inner_product_max_code+1)+3)*3	Plus.Division
    002332  aa   400000 000000    1248  	vfd	18/operator_bead_type,18/0,18/dyadic+inner_product,9/0,9/3
    002333  aa   041000 000003
    002334  aa   000000 000003    1249  	dec 	3
                                  1250
                        000015    1251  	org	z+(0*(inner_product_max_code+1)+4)*3	Plus.Ceiling
    002335  aa   400000 000000    1252  	vfd	18/operator_bead_type,18/0,18/dyadic+inner_product,9/0,9/4
    002336  aa   041000 000004
    002337  aa   000000 000003    1253  	dec 	3
                                  1254
                        000020    1255  	org	z+(0*(inner_product_max_code+1)+5)*3	Plus.Floor
    002340  aa   400000 000000    1256  	vfd	18/operator_bead_type,18/0,18/dyadic+inner_product,9/0,9/5
    002341  aa   041000 000005
    002342  aa   000000 000003    1257  	dec 	3
                                  1258
                        000023    1259  	org	z+(0*(inner_product_max_code+1)+6)*3	Plus.Star
    002343  aa   400000 000000    1260  	vfd	18/operator_bead_type,18/0,18/dyadic+inner_product,9/0,9/6
    002344  aa   041000 000006
    002345  aa   000000 000003    1261  	dec 	3
                                  1262
                        000026    1263  	org	z+(0*(inner_product_max_code+1)+7)*3	Plus.CircleStar
    002346  aa   400000 000000    1264  	vfd	18/operator_bead_type,18/0,18/dyadic+inner_product,9/0,9/7
    002347  aa   041000 000007
    002350  aa   000000 000003    1265  	dec 	3
                                  1266
                        000031    1267  	org	z+(0*(inner_product_max_code+1)+8)*3	Plus.VerticalBar
    002351  aa   400000 000000    1268  	vfd	18/operator_bead_type,18/0,18/dyadic+inner_product,9/0,9/8
    002352  aa   041000 000010
    002353  aa   000000 000003    1269  	dec 	3
                                  1270
                        000034    1271  	org	z+(0*(inner_product_max_code+1)+9)*3	Plus.Exclamation
    002354  aa   400000 000000    1272  	vfd	18/operator_bead_type,18/0,18/dyadic+inner_product,9/0,9/9
    002355  aa   041000 000011
    002356  aa   000000 000003    1273  	dec 	3
                                  1274
                        000037    1275  	org	z+(0*(inner_product_max_code+1)+10)*3	Plus.Circle
    002357  aa   400000 000000    1276  	vfd	18/operator_bead_type,18/0,18/dyadic+inner_product,9/0,9/10
    002360  aa   041000 000012
    002361  aa   000000 000003    1277  	dec 	3
                                  1278
                        000042    1279  	org	z+(0*(inner_product_max_code+1)+11)*3	Plus.AndSign
    002362  aa   400000 000000    1280  	vfd	18/operator_bead_type,18/0,18/dyadic+inner_product,9/0,9/11
    002363  aa   041000 000013
    002364  aa   000000 000003    1281  	dec 	3
                                  1282
                        000045    1283  	org	z+(0*(inner_product_max_code+1)+12)*3	Plus.OrSign
    002365  aa   400000 000000    1284  	vfd	18/operator_bead_type,18/0,18/dyadic+inner_product,9/0,9/12
    002366  aa   041000 000014
    002367  aa   000000 000003    1285  	dec 	3
                                  1286
                        000050    1287  	org	z+(0*(inner_product_max_code+1)+13)*3	Plus.NandSign
    002370  aa   400000 000000    1288  	vfd	18/operator_bead_type,18/0,18/dyadic+inner_product,9/0,9/13
    002371  aa   041000 000015
    002372  aa   000000 000003    1289  	dec 	3
                                  1290
                        000053    1291  	org	z+(0*(inner_product_max_code+1)+14)*3	Plus.NorSign
    002373  aa   400000 000000    1292  	vfd	18/operator_bead_type,18/0,18/dyadic+inner_product,9/0,9/14
    002374  aa   041000 000016
    002375  aa   000000 000003    1293  	dec 	3
                                  1294
                        000056    1295  	org	z+(0*(inner_product_max_code+1)+15)*3	Plus.LessThan
    002376  aa   400000 000000    1296  	vfd	18/operator_bead_type,18/0,18/dyadic+inner_product,9/0,9/15
    002377  aa   041000 000017
    002400  aa   000000 000003    1297  	dec 	3
                                  1298
                        000061    1299  	org	z+(0*(inner_product_max_code+1)+16)*3	Plus.LessOrEqual
    002401  aa   400000 000000    1300  	vfd	18/operator_bead_type,18/0,18/dyadic+inner_product,9/0,9/16
    002402  aa   041000 000020
    002403  aa   000000 000003    1301  	dec 	3
                                  1302
                        000064    1303  	org	z+(0*(inner_product_max_code+1)+17)*3	Plus.Equal
    002404  aa   400000 000000    1304  	vfd	18/operator_bead_type,18/0,18/dyadic+inner_product,9/0,9/17
    002405  aa   041000 000021
    002406  aa   000000 000003    1305  	dec 	3
                                  1306
                        000067    1307  	org	z+(0*(inner_product_max_code+1)+18)*3	Plus.GreaterOrEqual
    002407  aa   400000 000000    1308  	vfd	18/operator_bead_type,18/0,18/dyadic+inner_product,9/0,9/18
    002410  aa   041000 000022
    002411  aa   000000 000003    1309  	dec 	3
                                  1310
                        000072    1311  	org	z+(0*(inner_product_max_code+1)+19)*3	Plus.GreaterThan
    002412  aa   400000 000000    1312  	vfd	18/operator_bead_type,18/0,18/dyadic+inner_product,9/0,9/19
    002413  aa   041000 000023
    002414  aa   000000 000003    1313  	dec 	3
                                  1314
                        000075    1315  	org	z+(0*(inner_product_max_code+1)+20)*3	Plus.NotEqual
    002415  aa   400000 000000    1316  	vfd	18/operator_bead_type,18/0,18/dyadic+inner_product,9/0,9/20
    002416  aa   041000 000024
    002417  aa   000000 000003    1317  	dec 	3
                                  1318
                        000100    1319  	org	z+(1*(inner_product_max_code+1)+0)*3	Minus.Plus
    002420  aa   400000 000000    1320  	vfd	18/operator_bead_type,18/0,18/dyadic+inner_product,9/1,9/0
    002421  aa   041000 001000
    002422  aa   000000 000003    1321  	dec 	3
                                  1322
                        000103    1323  	org	z+(1*(inner_product_max_code+1)+1)*3	Minus.Minus
    002423  aa   400000 000000    1324  	vfd	18/operator_bead_type,18/0,18/dyadic+inner_product,9/1,9/1
    002424  aa   041000 001001
    002425  aa   000000 000003    1325  	dec 	3
                                  1326
                        000106    1327  	org	z+(1*(inner_product_max_code+1)+2)*3	Minus.Times
    002426  aa   400000 000000    1328  	vfd	18/operator_bead_type,18/0,18/dyadic+inner_product,9/1,9/2
    002427  aa   041000 001002
    002430  aa   000000 000003    1329  	dec 	3
                                  1330
                        000111    1331  	org	z+(1*(inner_product_max_code+1)+3)*3	Minus.Division
    002431  aa   400000 000000    1332  	vfd	18/operator_bead_type,18/0,18/dyadic+inner_product,9/1,9/3
    002432  aa   041000 001003
    002433  aa   000000 000003    1333  	dec 	3
                                  1334
                        000114    1335  	org	z+(1*(inner_product_max_code+1)+4)*3	Minus.Ceiling
    002434  aa   400000 000000    1336  	vfd	18/operator_bead_type,18/0,18/dyadic+inner_product,9/1,9/4
    002435  aa   041000 001004
    002436  aa   000000 000003    1337  	dec 	3
                                  1338
                        000117    1339  	org	z+(1*(inner_product_max_code+1)+5)*3	Minus.Floor
    002437  aa   400000 000000    1340  	vfd	18/operator_bead_type,18/0,18/dyadic+inner_product,9/1,9/5
    002440  aa   041000 001005
    002441  aa   000000 000003    1341  	dec 	3
                                  1342
                        000122    1343  	org	z+(1*(inner_product_max_code+1)+6)*3	Minus.Star
    002442  aa   400000 000000    1344  	vfd	18/operator_bead_type,18/0,18/dyadic+inner_product,9/1,9/6
    002443  aa   041000 001006
    002444  aa   000000 000003    1345  	dec 	3
                                  1346
                        000125    1347  	org	z+(1*(inner_product_max_code+1)+7)*3	Minus.CircleStar
    002445  aa   400000 000000    1348  	vfd	18/operator_bead_type,18/0,18/dyadic+inner_product,9/1,9/7
    002446  aa   041000 001007
    002447  aa   000000 000003    1349  	dec 	3
                                  1350
                        000130    1351  	org	z+(1*(inner_product_max_code+1)+8)*3	Minus.VerticalBar
    002450  aa   400000 000000    1352  	vfd	18/operator_bead_type,18/0,18/dyadic+inner_product,9/1,9/8
    002451  aa   041000 001010
    002452  aa   000000 000003    1353  	dec 	3
                                  1354
                        000133    1355  	org	z+(1*(inner_product_max_code+1)+9)*3	Minus.Exclamation
    002453  aa   400000 000000    1356  	vfd	18/operator_bead_type,18/0,18/dyadic+inner_product,9/1,9/9
    002454  aa   041000 001011
    002455  aa   000000 000003    1357  	dec 	3
                                  1358
                        000136    1359  	org	z+(1*(inner_product_max_code+1)+10)*3	Minus.Circle
    002456  aa   400000 000000    1360  	vfd	18/operator_bead_type,18/0,18/dyadic+inner_product,9/1,9/10
    002457  aa   041000 001012
    002460  aa   000000 000003    1361  	dec 	3
                                  1362
                        000141    1363  	org	z+(1*(inner_product_max_code+1)+11)*3	Minus.AndSign
    002461  aa   400000 000000    1364  	vfd	18/operator_bead_type,18/0,18/dyadic+inner_product,9/1,9/11
    002462  aa   041000 001013
    002463  aa   000000 000003    1365  	dec 	3
                                  1366
                        000144    1367  	org	z+(1*(inner_product_max_code+1)+12)*3	Minus.OrSign
    002464  aa   400000 000000    1368  	vfd	18/operator_bead_type,18/0,18/dyadic+inner_product,9/1,9/12
    002465  aa   041000 001014
    002466  aa   000000 000003    1369  	dec 	3
                                  1370
                        000147    1371  	org	z+(1*(inner_product_max_code+1)+13)*3	Minus.NandSign
    002467  aa   400000 000000    1372  	vfd	18/operator_bead_type,18/0,18/dyadic+inner_product,9/1,9/13
    002470  aa   041000 001015
    002471  aa   000000 000003    1373  	dec 	3
                                  1374
                        000152    1375  	org	z+(1*(inner_product_max_code+1)+14)*3	Minus.NorSign
    002472  aa   400000 000000    1376  	vfd	18/operator_bead_type,18/0,18/dyadic+inner_product,9/1,9/14
    002473  aa   041000 001016
    002474  aa   000000 000003    1377  	dec 	3
                                  1378
                        000155    1379  	org	z+(1*(inner_product_max_code+1)+15)*3	Minus.LessThan
    002475  aa   400000 000000    1380  	vfd	18/operator_bead_type,18/0,18/dyadic+inner_product,9/1,9/15
    002476  aa   041000 001017
    002477  aa   000000 000003    1381  	dec 	3
                                  1382
                        000160    1383  	org	z+(1*(inner_product_max_code+1)+16)*3	Minus.LessOrEqual
    002500  aa   400000 000000    1384  	vfd	18/operator_bead_type,18/0,18/dyadic+inner_product,9/1,9/16
    002501  aa   041000 001020
    002502  aa   000000 000003    1385  	dec 	3
                                  1386
                        000163    1387  	org	z+(1*(inner_product_max_code+1)+17)*3	Minus.Equal
    002503  aa   400000 000000    1388  	vfd	18/operator_bead_type,18/0,18/dyadic+inner_product,9/1,9/17
    002504  aa   041000 001021
    002505  aa   000000 000003    1389  	dec 	3
                                  1390
                        000166    1391  	org	z+(1*(inner_product_max_code+1)+18)*3	Minus.GreaterOrEqual
    002506  aa   400000 000000    1392  	vfd	18/operator_bead_type,18/0,18/dyadic+inner_product,9/1,9/18
    002507  aa   041000 001022
    002510  aa   000000 000003    1393  	dec 	3
                                  1394
                        000171    1395  	org	z+(1*(inner_product_max_code+1)+19)*3	Minus.GreaterThan
    002511  aa   400000 000000    1396  	vfd	18/operator_bead_type,18/0,18/dyadic+inner_product,9/1,9/19
    002512  aa   041000 001023
    002513  aa   000000 000003    1397  	dec 	3
                                  1398
                        000174    1399  	org	z+(1*(inner_product_max_code+1)+20)*3	Minus.NotEqual
    002514  aa   400000 000000    1400  	vfd	18/operator_bead_type,18/0,18/dyadic+inner_product,9/1,9/20
    002515  aa   041000 001024
    002516  aa   000000 000003    1401  	dec 	3
                                  1402
                        000177    1403  	org	z+(2*(inner_product_max_code+1)+0)*3	Times.Plus
    002517  aa   400000 000000    1404  	vfd	18/operator_bead_type,18/0,18/dyadic+inner_product,9/2,9/0
    002520  aa   041000 002000
    002521  aa   000000 000003    1405  	dec 	3
                                  1406
                        000202    1407  	org	z+(2*(inner_product_max_code+1)+1)*3	Times.Minus
    002522  aa   400000 000000    1408  	vfd	18/operator_bead_type,18/0,18/dyadic+inner_product,9/2,9/1
    002523  aa   041000 002001
    002524  aa   000000 000003    1409  	dec 	3
                                  1410
                        000205    1411  	org	z+(2*(inner_product_max_code+1)+2)*3	Times.Times
    002525  aa   400000 000000    1412  	vfd	18/operator_bead_type,18/0,18/dyadic+inner_product,9/2,9/2
    002526  aa   041000 002002
    002527  aa   000000 000003    1413  	dec 	3
                                  1414
                        000210    1415  	org	z+(2*(inner_product_max_code+1)+3)*3	Times.Division
    002530  aa   400000 000000    1416  	vfd	18/operator_bead_type,18/0,18/dyadic+inner_product,9/2,9/3
    002531  aa   041000 002003
    002532  aa   000000 000003    1417  	dec 	3
                                  1418
                        000213    1419  	org	z+(2*(inner_product_max_code+1)+4)*3	Times.Ceiling
    002533  aa   400000 000000    1420  	vfd	18/operator_bead_type,18/0,18/dyadic+inner_product,9/2,9/4
    002534  aa   041000 002004
    002535  aa   000000 000003    1421  	dec 	3
                                  1422
                        000216    1423  	org	z+(2*(inner_product_max_code+1)+5)*3	Times.Floor
    002536  aa   400000 000000    1424  	vfd	18/operator_bead_type,18/0,18/dyadic+inner_product,9/2,9/5
    002537  aa   041000 002005
    002540  aa   000000 000003    1425  	dec 	3
                                  1426
                        000221    1427  	org	z+(2*(inner_product_max_code+1)+6)*3	Times.Star
    002541  aa   400000 000000    1428  	vfd	18/operator_bead_type,18/0,18/dyadic+inner_product,9/2,9/6
    002542  aa   041000 002006
    002543  aa   000000 000003    1429  	dec 	3
                                  1430
                        000224    1431  	org	z+(2*(inner_product_max_code+1)+7)*3	Times.CircleStar
    002544  aa   400000 000000    1432  	vfd	18/operator_bead_type,18/0,18/dyadic+inner_product,9/2,9/7
    002545  aa   041000 002007
    002546  aa   000000 000003    1433  	dec 	3
                                  1434
                        000227    1435  	org	z+(2*(inner_product_max_code+1)+8)*3	Times.VerticalBar
    002547  aa   400000 000000    1436  	vfd	18/operator_bead_type,18/0,18/dyadic+inner_product,9/2,9/8
    002550  aa   041000 002010
    002551  aa   000000 000003    1437  	dec 	3
                                  1438
                        000232    1439  	org	z+(2*(inner_product_max_code+1)+9)*3	Times.Exclamation
    002552  aa   400000 000000    1440  	vfd	18/operator_bead_type,18/0,18/dyadic+inner_product,9/2,9/9
    002553  aa   041000 002011
    002554  aa   000000 000003    1441  	dec 	3
                                  1442
                        000235    1443  	org	z+(2*(inner_product_max_code+1)+10)*3	Times.Circle
    002555  aa   400000 000000    1444  	vfd	18/operator_bead_type,18/0,18/dyadic+inner_product,9/2,9/10
    002556  aa   041000 002012
    002557  aa   000000 000003    1445  	dec 	3
                                  1446
                        000240    1447  	org	z+(2*(inner_product_max_code+1)+11)*3	Times.AndSign
    002560  aa   400000 000000    1448  	vfd	18/operator_bead_type,18/0,18/dyadic+inner_product,9/2,9/11
    002561  aa   041000 002013
    002562  aa   000000 000003    1449  	dec 	3
                                  1450
                        000243    1451  	org	z+(2*(inner_product_max_code+1)+12)*3	Times.OrSign
    002563  aa   400000 000000    1452  	vfd	18/operator_bead_type,18/0,18/dyadic+inner_product,9/2,9/12
    002564  aa   041000 002014
    002565  aa   000000 000003    1453  	dec 	3
                                  1454
                        000246    1455  	org	z+(2*(inner_product_max_code+1)+13)*3	Times.NandSign
    002566  aa   400000 000000    1456  	vfd	18/operator_bead_type,18/0,18/dyadic+inner_product,9/2,9/13
    002567  aa   041000 002015
    002570  aa   000000 000003    1457  	dec 	3
                                  1458
                        000251    1459  	org	z+(2*(inner_product_max_code+1)+14)*3	Times.NorSign
    002571  aa   400000 000000    1460  	vfd	18/operator_bead_type,18/0,18/dyadic+inner_product,9/2,9/14
    002572  aa   041000 002016
    002573  aa   000000 000003    1461  	dec 	3
                                  1462
                        000254    1463  	org	z+(2*(inner_product_max_code+1)+15)*3	Times.LessThan
    002574  aa   400000 000000    1464  	vfd	18/operator_bead_type,18/0,18/dyadic+inner_product,9/2,9/15
    002575  aa   041000 002017
    002576  aa   000000 000003    1465  	dec 	3
                                  1466
                        000257    1467  	org	z+(2*(inner_product_max_code+1)+16)*3	Times.LessOrEqual
    002577  aa   400000 000000    1468  	vfd	18/operator_bead_type,18/0,18/dyadic+inner_product,9/2,9/16
    002600  aa   041000 002020
    002601  aa   000000 000003    1469  	dec 	3
                                  1470
                        000262    1471  	org	z+(2*(inner_product_max_code+1)+17)*3	Times.Equal
    002602  aa   400000 000000    1472  	vfd	18/operator_bead_type,18/0,18/dyadic+inner_product,9/2,9/17
    002603  aa   041000 002021
    002604  aa   000000 000003    1473  	dec 	3
                                  1474
                        000265    1475  	org	z+(2*(inner_product_max_code+1)+18)*3	Times.GreaterOrEqual
    002605  aa   400000 000000    1476  	vfd	18/operator_bead_type,18/0,18/dyadic+inner_product,9/2,9/18
    002606  aa   041000 002022
    002607  aa   000000 000003    1477  	dec 	3
                                  1478
                        000270    1479  	org	z+(2*(inner_product_max_code+1)+19)*3	Times.GreaterThan
    002610  aa   400000 000000    1480  	vfd	18/operator_bead_type,18/0,18/dyadic+inner_product,9/2,9/19
    002611  aa   041000 002023
    002612  aa   000000 000003    1481  	dec 	3
                                  1482
                        000273    1483  	org	z+(2*(inner_product_max_code+1)+20)*3	Times.NotEqual
    002613  aa   400000 000000    1484  	vfd	18/operator_bead_type,18/0,18/dyadic+inner_product,9/2,9/20
    002614  aa   041000 002024
    002615  aa   000000 000003    1485  	dec 	3
                                  1486
                        000276    1487  	org	z+(3*(inner_product_max_code+1)+0)*3	Division.Plus
    002616  aa   400000 000000    1488  	vfd	18/operator_bead_type,18/0,18/dyadic+inner_product,9/3,9/0
    002617  aa   041000 003000
    002620  aa   000000 000003    1489  	dec 	3
                                  1490
                        000301    1491  	org	z+(3*(inner_product_max_code+1)+1)*3	Division.Minus
    002621  aa   400000 000000    1492  	vfd	18/operator_bead_type,18/0,18/dyadic+inner_product,9/3,9/1
    002622  aa   041000 003001
    002623  aa   000000 000003    1493  	dec 	3
                                  1494
                        000304    1495  	org	z+(3*(inner_product_max_code+1)+2)*3	Division.Times
    002624  aa   400000 000000    1496  	vfd	18/operator_bead_type,18/0,18/dyadic+inner_product,9/3,9/2
    002625  aa   041000 003002
    002626  aa   000000 000003    1497  	dec 	3
                                  1498
                        000307    1499  	org	z+(3*(inner_product_max_code+1)+3)*3	Division.Division
    002627  aa   400000 000000    1500  	vfd	18/operator_bead_type,18/0,18/dyadic+inner_product,9/3,9/3
    002630  aa   041000 003003
    002631  aa   000000 000003    1501  	dec 	3
                                  1502
                        000312    1503  	org	z+(3*(inner_product_max_code+1)+4)*3	Division.Ceiling
    002632  aa   400000 000000    1504  	vfd	18/operator_bead_type,18/0,18/dyadic+inner_product,9/3,9/4
    002633  aa   041000 003004
    002634  aa   000000 000003    1505  	dec 	3
                                  1506
                        000315    1507  	org	z+(3*(inner_product_max_code+1)+5)*3	Division.Floor
    002635  aa   400000 000000    1508  	vfd	18/operator_bead_type,18/0,18/dyadic+inner_product,9/3,9/5
    002636  aa   041000 003005
    002637  aa   000000 000003    1509  	dec 	3
                                  1510
                        000320    1511  	org	z+(3*(inner_product_max_code+1)+6)*3	Division.Star
    002640  aa   400000 000000    1512  	vfd	18/operator_bead_type,18/0,18/dyadic+inner_product,9/3,9/6
    002641  aa   041000 003006
    002642  aa   000000 000003    1513  	dec 	3
                                  1514
                        000323    1515  	org	z+(3*(inner_product_max_code+1)+7)*3	Division.CircleStar
    002643  aa   400000 000000    1516  	vfd	18/operator_bead_type,18/0,18/dyadic+inner_product,9/3,9/7
    002644  aa   041000 003007
    002645  aa   000000 000003    1517  	dec 	3
                                  1518
                        000326    1519  	org	z+(3*(inner_product_max_code+1)+8)*3	Division.VerticalBar
    002646  aa   400000 000000    1520  	vfd	18/operator_bead_type,18/0,18/dyadic+inner_product,9/3,9/8
    002647  aa   041000 003010
    002650  aa   000000 000003    1521  	dec 	3
                                  1522
                        000331    1523  	org	z+(3*(inner_product_max_code+1)+9)*3	Division.Exclamation
    002651  aa   400000 000000    1524  	vfd	18/operator_bead_type,18/0,18/dyadic+inner_product,9/3,9/9
    002652  aa   041000 003011
    002653  aa   000000 000003    1525  	dec 	3
                                  1526
                        000334    1527  	org	z+(3*(inner_product_max_code+1)+10)*3	Division.Circle
    002654  aa   400000 000000    1528  	vfd	18/operator_bead_type,18/0,18/dyadic+inner_product,9/3,9/10
    002655  aa   041000 003012
    002656  aa   000000 000003    1529  	dec 	3
                                  1530
                        000337    1531  	org	z+(3*(inner_product_max_code+1)+11)*3	Division.AndSign
    002657  aa   400000 000000    1532  	vfd	18/operator_bead_type,18/0,18/dyadic+inner_product,9/3,9/11
    002660  aa   041000 003013
    002661  aa   000000 000003    1533  	dec 	3
                                  1534
                        000342    1535  	org	z+(3*(inner_product_max_code+1)+12)*3	Division.OrSign
    002662  aa   400000 000000    1536  	vfd	18/operator_bead_type,18/0,18/dyadic+inner_product,9/3,9/12
    002663  aa   041000 003014
    002664  aa   000000 000003    1537  	dec 	3
                                  1538
                        000345    1539  	org	z+(3*(inner_product_max_code+1)+13)*3	Division.NandSign
    002665  aa   400000 000000    1540  	vfd	18/operator_bead_type,18/0,18/dyadic+inner_product,9/3,9/13
    002666  aa   041000 003015
    002667  aa   000000 000003    1541  	dec 	3
                                  1542
                        000350    1543  	org	z+(3*(inner_product_max_code+1)+14)*3	Division.NorSign
    002670  aa   400000 000000    1544  	vfd	18/operator_bead_type,18/0,18/dyadic+inner_product,9/3,9/14
    002671  aa   041000 003016
    002672  aa   000000 000003    1545  	dec 	3
                                  1546
                        000353    1547  	org	z+(3*(inner_product_max_code+1)+15)*3	Division.LessThan
    002673  aa   400000 000000    1548  	vfd	18/operator_bead_type,18/0,18/dyadic+inner_product,9/3,9/15
    002674  aa   041000 003017
    002675  aa   000000 000003    1549  	dec 	3
                                  1550
                        000356    1551  	org	z+(3*(inner_product_max_code+1)+16)*3	Division.LessOrEqual
    002676  aa   400000 000000    1552  	vfd	18/operator_bead_type,18/0,18/dyadic+inner_product,9/3,9/16
    002677  aa   041000 003020
    002700  aa   000000 000003    1553  	dec 	3
                                  1554
                        000361    1555  	org	z+(3*(inner_product_max_code+1)+17)*3	Division.Equal
    002701  aa   400000 000000    1556  	vfd	18/operator_bead_type,18/0,18/dyadic+inner_product,9/3,9/17
    002702  aa   041000 003021
    002703  aa   000000 000003    1557  	dec 	3
                                  1558
                        000364    1559  	org	z+(3*(inner_product_max_code+1)+18)*3	Division.GreaterOrEqual
    002704  aa   400000 000000    1560  	vfd	18/operator_bead_type,18/0,18/dyadic+inner_product,9/3,9/18
    002705  aa   041000 003022
    002706  aa   000000 000003    1561  	dec 	3
                                  1562
                        000367    1563  	org	z+(3*(inner_product_max_code+1)+19)*3	Division.GreaterThan
    002707  aa   400000 000000    1564  	vfd	18/operator_bead_type,18/0,18/dyadic+inner_product,9/3,9/19
    002710  aa   041000 003023
    002711  aa   000000 000003    1565  	dec 	3
                                  1566
                        000372    1567  	org	z+(3*(inner_product_max_code+1)+20)*3	Division.NotEqual
    002712  aa   400000 000000    1568  	vfd	18/operator_bead_type,18/0,18/dyadic+inner_product,9/3,9/20
    002713  aa   041000 003024
    002714  aa   000000 000003    1569  	dec 	3
                                  1570
                        000375    1571  	org	z+(4*(inner_product_max_code+1)+0)*3	Ceiling.Plus
    002715  aa   400000 000000    1572  	vfd	18/operator_bead_type,18/0,18/dyadic+inner_product,9/4,9/0
    002716  aa   041000 004000
    002717  aa   000000 000003    1573  	dec 	3
                                  1574
                        000400    1575  	org	z+(4*(inner_product_max_code+1)+1)*3	Ceiling.Minus
    002720  aa   400000 000000    1576  	vfd	18/operator_bead_type,18/0,18/dyadic+inner_product,9/4,9/1
    002721  aa   041000 004001
    002722  aa   000000 000003    1577  	dec 	3
                                  1578
                        000403    1579  	org	z+(4*(inner_product_max_code+1)+2)*3	Ceiling.Times
    002723  aa   400000 000000    1580  	vfd	18/operator_bead_type,18/0,18/dyadic+inner_product,9/4,9/2
    002724  aa   041000 004002
    002725  aa   000000 000003    1581  	dec 	3
                                  1582
                        000406    1583  	org	z+(4*(inner_product_max_code+1)+3)*3	Ceiling.Division
    002726  aa   400000 000000    1584  	vfd	18/operator_bead_type,18/0,18/dyadic+inner_product,9/4,9/3
    002727  aa   041000 004003
    002730  aa   000000 000003    1585  	dec 	3
                                  1586
                        000411    1587  	org	z+(4*(inner_product_max_code+1)+4)*3	Ceiling.Ceiling
    002731  aa   400000 000000    1588  	vfd	18/operator_bead_type,18/0,18/dyadic+inner_product,9/4,9/4
    002732  aa   041000 004004
    002733  aa   000000 000003    1589  	dec 	3
                                  1590
                        000414    1591  	org	z+(4*(inner_product_max_code+1)+5)*3	Ceiling.Floor
    002734  aa   400000 000000    1592  	vfd	18/operator_bead_type,18/0,18/dyadic+inner_product,9/4,9/5
    002735  aa   041000 004005
    002736  aa   000000 000003    1593  	dec 	3
                                  1594
                        000417    1595  	org	z+(4*(inner_product_max_code+1)+6)*3	Ceiling.Star
    002737  aa   400000 000000    1596  	vfd	18/operator_bead_type,18/0,18/dyadic+inner_product,9/4,9/6
    002740  aa   041000 004006
    002741  aa   000000 000003    1597  	dec 	3
                                  1598
                        000422    1599  	org	z+(4*(inner_product_max_code+1)+7)*3	Ceiling.CircleStar
    002742  aa   400000 000000    1600  	vfd	18/operator_bead_type,18/0,18/dyadic+inner_product,9/4,9/7
    002743  aa   041000 004007
    002744  aa   000000 000003    1601  	dec 	3
                                  1602
                        000425    1603  	org	z+(4*(inner_product_max_code+1)+8)*3	Ceiling.VerticalBar
    002745  aa   400000 000000    1604  	vfd	18/operator_bead_type,18/0,18/dyadic+inner_product,9/4,9/8
    002746  aa   041000 004010
    002747  aa   000000 000003    1605  	dec 	3
                                  1606
                        000430    1607  	org	z+(4*(inner_product_max_code+1)+9)*3	Ceiling.Exclamation
    002750  aa   400000 000000    1608  	vfd	18/operator_bead_type,18/0,18/dyadic+inner_product,9/4,9/9
    002751  aa   041000 004011
    002752  aa   000000 000003    1609  	dec 	3
                                  1610
                        000433    1611  	org	z+(4*(inner_product_max_code+1)+10)*3	Ceiling.Circle
    002753  aa   400000 000000    1612  	vfd	18/operator_bead_type,18/0,18/dyadic+inner_product,9/4,9/10
    002754  aa   041000 004012
    002755  aa   000000 000003    1613  	dec 	3
                                  1614
                        000436    1615  	org	z+(4*(inner_product_max_code+1)+11)*3	Ceiling.AndSign
    002756  aa   400000 000000    1616  	vfd	18/operator_bead_type,18/0,18/dyadic+inner_product,9/4,9/11
    002757  aa   041000 004013
    002760  aa   000000 000003    1617  	dec 	3
                                  1618
                        000441    1619  	org	z+(4*(inner_product_max_code+1)+12)*3	Ceiling.OrSign
    002761  aa   400000 000000    1620  	vfd	18/operator_bead_type,18/0,18/dyadic+inner_product,9/4,9/12
    002762  aa   041000 004014
    002763  aa   000000 000003    1621  	dec 	3
                                  1622
                        000444    1623  	org	z+(4*(inner_product_max_code+1)+13)*3	Ceiling.NandSign
    002764  aa   400000 000000    1624  	vfd	18/operator_bead_type,18/0,18/dyadic+inner_product,9/4,9/13
    002765  aa   041000 004015
    002766  aa   000000 000003    1625  	dec 	3
                                  1626
                        000447    1627  	org	z+(4*(inner_product_max_code+1)+14)*3	Ceiling.NorSign
    002767  aa   400000 000000    1628  	vfd	18/operator_bead_type,18/0,18/dyadic+inner_product,9/4,9/14
    002770  aa   041000 004016
    002771  aa   000000 000003    1629  	dec 	3
                                  1630
                        000452    1631  	org	z+(4*(inner_product_max_code+1)+15)*3	Ceiling.LessThan
    002772  aa   400000 000000    1632  	vfd	18/operator_bead_type,18/0,18/dyadic+inner_product,9/4,9/15
    002773  aa   041000 004017
    002774  aa   000000 000003    1633  	dec 	3
                                  1634
                        000455    1635  	org	z+(4*(inner_product_max_code+1)+16)*3	Ceiling.LessOrEqual
    002775  aa   400000 000000    1636  	vfd	18/operator_bead_type,18/0,18/dyadic+inner_product,9/4,9/16
    002776  aa   041000 004020
    002777  aa   000000 000003    1637  	dec 	3
                                  1638
                        000460    1639  	org	z+(4*(inner_product_max_code+1)+17)*3	Ceiling.Equal
    003000  aa   400000 000000    1640  	vfd	18/operator_bead_type,18/0,18/dyadic+inner_product,9/4,9/17
    003001  aa   041000 004021
    003002  aa   000000 000003    1641  	dec 	3
                                  1642
                        000463    1643  	org	z+(4*(inner_product_max_code+1)+18)*3	Ceiling.GreaterOrEqual
    003003  aa   400000 000000    1644  	vfd	18/operator_bead_type,18/0,18/dyadic+inner_product,9/4,9/18
    003004  aa   041000 004022
    003005  aa   000000 000003    1645  	dec 	3
                                  1646
                        000466    1647  	org	z+(4*(inner_product_max_code+1)+19)*3	Ceiling.GreaterThan
    003006  aa   400000 000000    1648  	vfd	18/operator_bead_type,18/0,18/dyadic+inner_product,9/4,9/19
    003007  aa   041000 004023
    003010  aa   000000 000003    1649  	dec 	3
                                  1650
                        000471    1651  	org	z+(4*(inner_product_max_code+1)+20)*3	Ceiling.NotEqual
    003011  aa   400000 000000    1652  	vfd	18/operator_bead_type,18/0,18/dyadic+inner_product,9/4,9/20
    003012  aa   041000 004024
    003013  aa   000000 000003    1653  	dec 	3
                                  1654
                        000474    1655  	org	z+(5*(inner_product_max_code+1)+0)*3	Floor.Plus
    003014  aa   400000 000000    1656  	vfd	18/operator_bead_type,18/0,18/dyadic+inner_product,9/5,9/0
    003015  aa   041000 005000
    003016  aa   000000 000003    1657  	dec 	3
                                  1658
                        000477    1659  	org	z+(5*(inner_product_max_code+1)+1)*3	Floor.Minus
    003017  aa   400000 000000    1660  	vfd	18/operator_bead_type,18/0,18/dyadic+inner_product,9/5,9/1
    003020  aa   041000 005001
    003021  aa   000000 000003    1661  	dec 	3
                                  1662
                        000502    1663  	org	z+(5*(inner_product_max_code+1)+2)*3	Floor.Times
    003022  aa   400000 000000    1664  	vfd	18/operator_bead_type,18/0,18/dyadic+inner_product,9/5,9/2
    003023  aa   041000 005002
    003024  aa   000000 000003    1665  	dec 	3
                                  1666
                        000505    1667  	org	z+(5*(inner_product_max_code+1)+3)*3	Floor.Division
    003025  aa   400000 000000    1668  	vfd	18/operator_bead_type,18/0,18/dyadic+inner_product,9/5,9/3
    003026  aa   041000 005003
    003027  aa   000000 000003    1669  	dec 	3
                                  1670
                        000510    1671  	org	z+(5*(inner_product_max_code+1)+4)*3	Floor.Ceiling
    003030  aa   400000 000000    1672  	vfd	18/operator_bead_type,18/0,18/dyadic+inner_product,9/5,9/4
    003031  aa   041000 005004
    003032  aa   000000 000003    1673  	dec 	3
                                  1674
                        000513    1675  	org	z+(5*(inner_product_max_code+1)+5)*3	Floor.Floor
    003033  aa   400000 000000    1676  	vfd	18/operator_bead_type,18/0,18/dyadic+inner_product,9/5,9/5
    003034  aa   041000 005005
    003035  aa   000000 000003    1677  	dec 	3
                                  1678
                        000516    1679  	org	z+(5*(inner_product_max_code+1)+6)*3	Floor.Star
    003036  aa   400000 000000    1680  	vfd	18/operator_bead_type,18/0,18/dyadic+inner_product,9/5,9/6
    003037  aa   041000 005006
    003040  aa   000000 000003    1681  	dec 	3
                                  1682
                        000521    1683  	org	z+(5*(inner_product_max_code+1)+7)*3	Floor.CircleStar
    003041  aa   400000 000000    1684  	vfd	18/operator_bead_type,18/0,18/dyadic+inner_product,9/5,9/7
    003042  aa   041000 005007
    003043  aa   000000 000003    1685  	dec 	3
                                  1686
                        000524    1687  	org	z+(5*(inner_product_max_code+1)+8)*3	Floor.VerticalBar
    003044  aa   400000 000000    1688  	vfd	18/operator_bead_type,18/0,18/dyadic+inner_product,9/5,9/8
    003045  aa   041000 005010
    003046  aa   000000 000003    1689  	dec 	3
                                  1690
                        000527    1691  	org	z+(5*(inner_product_max_code+1)+9)*3	Floor.Exclamation
    003047  aa   400000 000000    1692  	vfd	18/operator_bead_type,18/0,18/dyadic+inner_product,9/5,9/9
    003050  aa   041000 005011
    003051  aa   000000 000003    1693  	dec 	3
                                  1694
                        000532    1695  	org	z+(5*(inner_product_max_code+1)+10)*3	Floor.Circle
    003052  aa   400000 000000    1696  	vfd	18/operator_bead_type,18/0,18/dyadic+inner_product,9/5,9/10
    003053  aa   041000 005012
    003054  aa   000000 000003    1697  	dec 	3
                                  1698
                        000535    1699  	org	z+(5*(inner_product_max_code+1)+11)*3	Floor.AndSign
    003055  aa   400000 000000    1700  	vfd	18/operator_bead_type,18/0,18/dyadic+inner_product,9/5,9/11
    003056  aa   041000 005013
    003057  aa   000000 000003    1701  	dec 	3
                                  1702
                        000540    1703  	org	z+(5*(inner_product_max_code+1)+12)*3	Floor.OrSign
    003060  aa   400000 000000    1704  	vfd	18/operator_bead_type,18/0,18/dyadic+inner_product,9/5,9/12
    003061  aa   041000 005014
    003062  aa   000000 000003    1705  	dec 	3
                                  1706
                        000543    1707  	org	z+(5*(inner_product_max_code+1)+13)*3	Floor.NandSign
    003063  aa   400000 000000    1708  	vfd	18/operator_bead_type,18/0,18/dyadic+inner_product,9/5,9/13
    003064  aa   041000 005015
    003065  aa   000000 000003    1709  	dec 	3
                                  1710
                        000546    1711  	org	z+(5*(inner_product_max_code+1)+14)*3	Floor.NorSign
    003066  aa   400000 000000    1712  	vfd	18/operator_bead_type,18/0,18/dyadic+inner_product,9/5,9/14
    003067  aa   041000 005016
    003070  aa   000000 000003    1713  	dec 	3
                                  1714
                        000551    1715  	org	z+(5*(inner_product_max_code+1)+15)*3	Floor.LessThan
    003071  aa   400000 000000    1716  	vfd	18/operator_bead_type,18/0,18/dyadic+inner_product,9/5,9/15
    003072  aa   041000 005017
    003073  aa   000000 000003    1717  	dec 	3
                                  1718
                        000554    1719  	org	z+(5*(inner_product_max_code+1)+16)*3	Floor.LessOrEqual
    003074  aa   400000 000000    1720  	vfd	18/operator_bead_type,18/0,18/dyadic+inner_product,9/5,9/16
    003075  aa   041000 005020
    003076  aa   000000 000003    1721  	dec 	3
                                  1722
                        000557    1723  	org	z+(5*(inner_product_max_code+1)+17)*3	Floor.Equal
    003077  aa   400000 000000    1724  	vfd	18/operator_bead_type,18/0,18/dyadic+inner_product,9/5,9/17
    003100  aa   041000 005021
    003101  aa   000000 000003    1725  	dec 	3
                                  1726
                        000562    1727  	org	z+(5*(inner_product_max_code+1)+18)*3	Floor.GreaterOrEqual
    003102  aa   400000 000000    1728  	vfd	18/operator_bead_type,18/0,18/dyadic+inner_product,9/5,9/18
    003103  aa   041000 005022
    003104  aa   000000 000003    1729  	dec 	3
                                  1730
                        000565    1731  	org	z+(5*(inner_product_max_code+1)+19)*3	Floor.GreaterThan
    003105  aa   400000 000000    1732  	vfd	18/operator_bead_type,18/0,18/dyadic+inner_product,9/5,9/19
    003106  aa   041000 005023
    003107  aa   000000 000003    1733  	dec 	3
                                  1734
                        000570    1735  	org	z+(5*(inner_product_max_code+1)+20)*3	Floor.NotEqual
    003110  aa   400000 000000    1736  	vfd	18/operator_bead_type,18/0,18/dyadic+inner_product,9/5,9/20
    003111  aa   041000 005024
    003112  aa   000000 000003    1737  	dec 	3
                                  1738
                        000573    1739  	org	z+(6*(inner_product_max_code+1)+0)*3	Star.Plus
    003113  aa   400000 000000    1740  	vfd	18/operator_bead_type,18/0,18/dyadic+inner_product,9/6,9/0
    003114  aa   041000 006000
    003115  aa   000000 000003    1741  	dec 	3
                                  1742
                        000576    1743  	org	z+(6*(inner_product_max_code+1)+1)*3	Star.Minus
    003116  aa   400000 000000    1744  	vfd	18/operator_bead_type,18/0,18/dyadic+inner_product,9/6,9/1
    003117  aa   041000 006001
    003120  aa   000000 000003    1745  	dec 	3
                                  1746
                        000601    1747  	org	z+(6*(inner_product_max_code+1)+2)*3	Star.Times
    003121  aa   400000 000000    1748  	vfd	18/operator_bead_type,18/0,18/dyadic+inner_product,9/6,9/2
    003122  aa   041000 006002
    003123  aa   000000 000003    1749  	dec 	3
                                  1750
                        000604    1751  	org	z+(6*(inner_product_max_code+1)+3)*3	Star.Division
    003124  aa   400000 000000    1752  	vfd	18/operator_bead_type,18/0,18/dyadic+inner_product,9/6,9/3
    003125  aa   041000 006003
    003126  aa   000000 000003    1753  	dec 	3
                                  1754
                        000607    1755  	org	z+(6*(inner_product_max_code+1)+4)*3	Star.Ceiling
    003127  aa   400000 000000    1756  	vfd	18/operator_bead_type,18/0,18/dyadic+inner_product,9/6,9/4
    003130  aa   041000 006004
    003131  aa   000000 000003    1757  	dec 	3
                                  1758
                        000612    1759  	org	z+(6*(inner_product_max_code+1)+5)*3	Star.Floor
    003132  aa   400000 000000    1760  	vfd	18/operator_bead_type,18/0,18/dyadic+inner_product,9/6,9/5
    003133  aa   041000 006005
    003134  aa   000000 000003    1761  	dec 	3
                                  1762
                        000615    1763  	org	z+(6*(inner_product_max_code+1)+6)*3	Star.Star
    003135  aa   400000 000000    1764  	vfd	18/operator_bead_type,18/0,18/dyadic+inner_product,9/6,9/6
    003136  aa   041000 006006
    003137  aa   000000 000003    1765  	dec 	3
                                  1766
                        000620    1767  	org	z+(6*(inner_product_max_code+1)+7)*3	Star.CircleStar
    003140  aa   400000 000000    1768  	vfd	18/operator_bead_type,18/0,18/dyadic+inner_product,9/6,9/7
    003141  aa   041000 006007
    003142  aa   000000 000003    1769  	dec 	3
                                  1770
                        000623    1771  	org	z+(6*(inner_product_max_code+1)+8)*3	Star.VerticalBar
    003143  aa   400000 000000    1772  	vfd	18/operator_bead_type,18/0,18/dyadic+inner_product,9/6,9/8
    003144  aa   041000 006010
    003145  aa   000000 000003    1773  	dec 	3
                                  1774
                        000626    1775  	org	z+(6*(inner_product_max_code+1)+9)*3	Star.Exclamation
    003146  aa   400000 000000    1776  	vfd	18/operator_bead_type,18/0,18/dyadic+inner_product,9/6,9/9
    003147  aa   041000 006011
    003150  aa   000000 000003    1777  	dec 	3
                                  1778
                        000631    1779  	org	z+(6*(inner_product_max_code+1)+10)*3	Star.Circle
    003151  aa   400000 000000    1780  	vfd	18/operator_bead_type,18/0,18/dyadic+inner_product,9/6,9/10
    003152  aa   041000 006012
    003153  aa   000000 000003    1781  	dec 	3
                                  1782
                        000634    1783  	org	z+(6*(inner_product_max_code+1)+11)*3	Star.AndSign
    003154  aa   400000 000000    1784  	vfd	18/operator_bead_type,18/0,18/dyadic+inner_product,9/6,9/11
    003155  aa   041000 006013
    003156  aa   000000 000003    1785  	dec 	3
                                  1786
                        000637    1787  	org	z+(6*(inner_product_max_code+1)+12)*3	Star.OrSign
    003157  aa   400000 000000    1788  	vfd	18/operator_bead_type,18/0,18/dyadic+inner_product,9/6,9/12
    003160  aa   041000 006014
    003161  aa   000000 000003    1789  	dec 	3
                                  1790
                        000642    1791  	org	z+(6*(inner_product_max_code+1)+13)*3	Star.NandSign
    003162  aa   400000 000000    1792  	vfd	18/operator_bead_type,18/0,18/dyadic+inner_product,9/6,9/13
    003163  aa   041000 006015
    003164  aa   000000 000003    1793  	dec 	3
                                  1794
                        000645    1795  	org	z+(6*(inner_product_max_code+1)+14)*3	Star.NorSign
    003165  aa   400000 000000    1796  	vfd	18/operator_bead_type,18/0,18/dyadic+inner_product,9/6,9/14
    003166  aa   041000 006016
    003167  aa   000000 000003    1797  	dec 	3
                                  1798
                        000650    1799  	org	z+(6*(inner_product_max_code+1)+15)*3	Star.LessThan
    003170  aa   400000 000000    1800  	vfd	18/operator_bead_type,18/0,18/dyadic+inner_product,9/6,9/15
    003171  aa   041000 006017
    003172  aa   000000 000003    1801  	dec 	3
                                  1802
                        000653    1803  	org	z+(6*(inner_product_max_code+1)+16)*3	Star.LessOrEqual
    003173  aa   400000 000000    1804  	vfd	18/operator_bead_type,18/0,18/dyadic+inner_product,9/6,9/16
    003174  aa   041000 006020
    003175  aa   000000 000003    1805  	dec 	3
                                  1806
                        000656    1807  	org	z+(6*(inner_product_max_code+1)+17)*3	Star.Equal
    003176  aa   400000 000000    1808  	vfd	18/operator_bead_type,18/0,18/dyadic+inner_product,9/6,9/17
    003177  aa   041000 006021
    003200  aa   000000 000003    1809  	dec 	3
                                  1810
                        000661    1811  	org	z+(6*(inner_product_max_code+1)+18)*3	Star.GreaterOrEqual
    003201  aa   400000 000000    1812  	vfd	18/operator_bead_type,18/0,18/dyadic+inner_product,9/6,9/18
    003202  aa   041000 006022
    003203  aa   000000 000003    1813  	dec 	3
                                  1814
                        000664    1815  	org	z+(6*(inner_product_max_code+1)+19)*3	Star.GreaterThan
    003204  aa   400000 000000    1816  	vfd	18/operator_bead_type,18/0,18/dyadic+inner_product,9/6,9/19
    003205  aa   041000 006023
    003206  aa   000000 000003    1817  	dec 	3
                                  1818
                        000667    1819  	org	z+(6*(inner_product_max_code+1)+20)*3	Star.NotEqual
    003207  aa   400000 000000    1820  	vfd	18/operator_bead_type,18/0,18/dyadic+inner_product,9/6,9/20
    003210  aa   041000 006024
    003211  aa   000000 000003    1821  	dec 	3
                                  1822
                        000672    1823  	org	z+(7*(inner_product_max_code+1)+0)*3	CircleStar.Plus
    003212  aa   400000 000000    1824  	vfd	18/operator_bead_type,18/0,18/dyadic+inner_product,9/7,9/0
    003213  aa   041000 007000
    003214  aa   000000 000003    1825  	dec 	3
                                  1826
                        000675    1827  	org	z+(7*(inner_product_max_code+1)+1)*3	CircleStar.Minus
    003215  aa   400000 000000    1828  	vfd	18/operator_bead_type,18/0,18/dyadic+inner_product,9/7,9/1
    003216  aa   041000 007001
    003217  aa   000000 000003    1829  	dec 	3
                                  1830
                        000700    1831  	org	z+(7*(inner_product_max_code+1)+2)*3	CircleStar.Times
    003220  aa   400000 000000    1832  	vfd	18/operator_bead_type,18/0,18/dyadic+inner_product,9/7,9/2
    003221  aa   041000 007002
    003222  aa   000000 000003    1833  	dec 	3
                                  1834
                        000703    1835  	org	z+(7*(inner_product_max_code+1)+3)*3	CircleStar.Division
    003223  aa   400000 000000    1836  	vfd	18/operator_bead_type,18/0,18/dyadic+inner_product,9/7,9/3
    003224  aa   041000 007003
    003225  aa   000000 000003    1837  	dec 	3
                                  1838
                        000706    1839  	org	z+(7*(inner_product_max_code+1)+4)*3	CircleStar.Ceiling
    003226  aa   400000 000000    1840  	vfd	18/operator_bead_type,18/0,18/dyadic+inner_product,9/7,9/4
    003227  aa   041000 007004
    003230  aa   000000 000003    1841  	dec 	3
                                  1842
                        000711    1843  	org	z+(7*(inner_product_max_code+1)+5)*3	CircleStar.Floor
    003231  aa   400000 000000    1844  	vfd	18/operator_bead_type,18/0,18/dyadic+inner_product,9/7,9/5
    003232  aa   041000 007005
    003233  aa   000000 000003    1845  	dec 	3
                                  1846
                        000714    1847  	org	z+(7*(inner_product_max_code+1)+6)*3	CircleStar.Star
    003234  aa   400000 000000    1848  	vfd	18/operator_bead_type,18/0,18/dyadic+inner_product,9/7,9/6
    003235  aa   041000 007006
    003236  aa   000000 000003    1849  	dec 	3
                                  1850
                        000717    1851  	org	z+(7*(inner_product_max_code+1)+7)*3	CircleStar.CircleStar
    003237  aa   400000 000000    1852  	vfd	18/operator_bead_type,18/0,18/dyadic+inner_product,9/7,9/7
    003240  aa   041000 007007
    003241  aa   000000 000003    1853  	dec 	3
                                  1854
                        000722    1855  	org	z+(7*(inner_product_max_code+1)+8)*3	CircleStar.VerticalBar
    003242  aa   400000 000000    1856  	vfd	18/operator_bead_type,18/0,18/dyadic+inner_product,9/7,9/8
    003243  aa   041000 007010
    003244  aa   000000 000003    1857  	dec 	3
                                  1858
                        000725    1859  	org	z+(7*(inner_product_max_code+1)+9)*3	CircleStar.Exclamation
    003245  aa   400000 000000    1860  	vfd	18/operator_bead_type,18/0,18/dyadic+inner_product,9/7,9/9
    003246  aa   041000 007011
    003247  aa   000000 000003    1861  	dec 	3
                                  1862
                        000730    1863  	org	z+(7*(inner_product_max_code+1)+10)*3	CircleStar.Circle
    003250  aa   400000 000000    1864  	vfd	18/operator_bead_type,18/0,18/dyadic+inner_product,9/7,9/10
    003251  aa   041000 007012
    003252  aa   000000 000003    1865  	dec 	3
                                  1866
                        000733    1867  	org	z+(7*(inner_product_max_code+1)+11)*3	CircleStar.AndSign
    003253  aa   400000 000000    1868  	vfd	18/operator_bead_type,18/0,18/dyadic+inner_product,9/7,9/11
    003254  aa   041000 007013
    003255  aa   000000 000003    1869  	dec 	3
                                  1870
                        000736    1871  	org	z+(7*(inner_product_max_code+1)+12)*3	CircleStar.OrSign
    003256  aa   400000 000000    1872  	vfd	18/operator_bead_type,18/0,18/dyadic+inner_product,9/7,9/12
    003257  aa   041000 007014
    003260  aa   000000 000003    1873  	dec 	3
                                  1874
                        000741    1875  	org	z+(7*(inner_product_max_code+1)+13)*3	CircleStar.NandSign
    003261  aa   400000 000000    1876  	vfd	18/operator_bead_type,18/0,18/dyadic+inner_product,9/7,9/13
    003262  aa   041000 007015
    003263  aa   000000 000003    1877  	dec 	3
                                  1878
                        000744    1879  	org	z+(7*(inner_product_max_code+1)+14)*3	CircleStar.NorSign
    003264  aa   400000 000000    1880  	vfd	18/operator_bead_type,18/0,18/dyadic+inner_product,9/7,9/14
    003265  aa   041000 007016
    003266  aa   000000 000003    1881  	dec 	3
                                  1882
                        000747    1883  	org	z+(7*(inner_product_max_code+1)+15)*3	CircleStar.LessThan
    003267  aa   400000 000000    1884  	vfd	18/operator_bead_type,18/0,18/dyadic+inner_product,9/7,9/15
    003270  aa   041000 007017
    003271  aa   000000 000003    1885  	dec 	3
                                  1886
                        000752    1887  	org	z+(7*(inner_product_max_code+1)+16)*3	CircleStar.LessOrEqual
    003272  aa   400000 000000    1888  	vfd	18/operator_bead_type,18/0,18/dyadic+inner_product,9/7,9/16
    003273  aa   041000 007020
    003274  aa   000000 000003    1889  	dec 	3
                                  1890
                        000755    1891  	org	z+(7*(inner_product_max_code+1)+17)*3	CircleStar.Equal
    003275  aa   400000 000000    1892  	vfd	18/operator_bead_type,18/0,18/dyadic+inner_product,9/7,9/17
    003276  aa   041000 007021
    003277  aa   000000 000003    1893  	dec 	3
                                  1894
                        000760    1895  	org	z+(7*(inner_product_max_code+1)+18)*3	CircleStar.GreaterOrEqual
    003300  aa   400000 000000    1896  	vfd	18/operator_bead_type,18/0,18/dyadic+inner_product,9/7,9/18
    003301  aa   041000 007022
    003302  aa   000000 000003    1897  	dec 	3
                                  1898
                        000763    1899  	org	z+(7*(inner_product_max_code+1)+19)*3	CircleStar.GreaterThan
    003303  aa   400000 000000    1900  	vfd	18/operator_bead_type,18/0,18/dyadic+inner_product,9/7,9/19
    003304  aa   041000 007023
    003305  aa   000000 000003    1901  	dec 	3
                                  1902
                        000766    1903  	org	z+(7*(inner_product_max_code+1)+20)*3	CircleStar.NotEqual
    003306  aa   400000 000000    1904  	vfd	18/operator_bead_type,18/0,18/dyadic+inner_product,9/7,9/20
    003307  aa   041000 007024
    003310  aa   000000 000003    1905  	dec 	3
                                  1906
                        000771    1907  	org	z+(8*(inner_product_max_code+1)+0)*3	VerticalBar.Plus
    003311  aa   400000 000000    1908  	vfd	18/operator_bead_type,18/0,18/dyadic+inner_product,9/8,9/0
    003312  aa   041000 010000
    003313  aa   000000 000003    1909  	dec 	3
                                  1910
                        000774    1911  	org	z+(8*(inner_product_max_code+1)+1)*3	VerticalBar.Minus
    003314  aa   400000 000000    1912  	vfd	18/operator_bead_type,18/0,18/dyadic+inner_product,9/8,9/1
    003315  aa   041000 010001
    003316  aa   000000 000003    1913  	dec 	3
                                  1914
                        000777    1915  	org	z+(8*(inner_product_max_code+1)+2)*3	VerticalBar.Times
    003317  aa   400000 000000    1916  	vfd	18/operator_bead_type,18/0,18/dyadic+inner_product,9/8,9/2
    003320  aa   041000 010002
    003321  aa   000000 000003    1917  	dec 	3
                                  1918
                        001002    1919  	org	z+(8*(inner_product_max_code+1)+3)*3	VerticalBar.Division
    003322  aa   400000 000000    1920  	vfd	18/operator_bead_type,18/0,18/dyadic+inner_product,9/8,9/3
    003323  aa   041000 010003
    003324  aa   000000 000003    1921  	dec 	3
                                  1922
                        001005    1923  	org	z+(8*(inner_product_max_code+1)+4)*3	VerticalBar.Ceiling
    003325  aa   400000 000000    1924  	vfd	18/operator_bead_type,18/0,18/dyadic+inner_product,9/8,9/4
    003326  aa   041000 010004
    003327  aa   000000 000003    1925  	dec 	3
                                  1926
                        001010    1927  	org	z+(8*(inner_product_max_code+1)+5)*3	VerticalBar.Floor
    003330  aa   400000 000000    1928  	vfd	18/operator_bead_type,18/0,18/dyadic+inner_product,9/8,9/5
    003331  aa   041000 010005
    003332  aa   000000 000003    1929  	dec 	3
                                  1930
                        001013    1931  	org	z+(8*(inner_product_max_code+1)+6)*3	VerticalBar.Star
    003333  aa   400000 000000    1932  	vfd	18/operator_bead_type,18/0,18/dyadic+inner_product,9/8,9/6
    003334  aa   041000 010006
    003335  aa   000000 000003    1933  	dec 	3
                                  1934
                        001016    1935  	org	z+(8*(inner_product_max_code+1)+7)*3	VerticalBar.CircleStar
    003336  aa   400000 000000    1936  	vfd	18/operator_bead_type,18/0,18/dyadic+inner_product,9/8,9/7
    003337  aa   041000 010007
    003340  aa   000000 000003    1937  	dec 	3
                                  1938
                        001021    1939  	org	z+(8*(inner_product_max_code+1)+8)*3	VerticalBar.VerticalBar
    003341  aa   400000 000000    1940  	vfd	18/operator_bead_type,18/0,18/dyadic+inner_product,9/8,9/8
    003342  aa   041000 010010
    003343  aa   000000 000003    1941  	dec 	3
                                  1942
                        001024    1943  	org	z+(8*(inner_product_max_code+1)+9)*3	VerticalBar.Exclamation
    003344  aa   400000 000000    1944  	vfd	18/operator_bead_type,18/0,18/dyadic+inner_product,9/8,9/9
    003345  aa   041000 010011
    003346  aa   000000 000003    1945  	dec 	3
                                  1946
                        001027    1947  	org	z+(8*(inner_product_max_code+1)+10)*3	VerticalBar.Circle
    003347  aa   400000 000000    1948  	vfd	18/operator_bead_type,18/0,18/dyadic+inner_product,9/8,9/10
    003350  aa   041000 010012
    003351  aa   000000 000003    1949  	dec 	3
                                  1950
                        001032    1951  	org	z+(8*(inner_product_max_code+1)+11)*3	VerticalBar.AndSign
    003352  aa   400000 000000    1952  	vfd	18/operator_bead_type,18/0,18/dyadic+inner_product,9/8,9/11
    003353  aa   041000 010013
    003354  aa   000000 000003    1953  	dec 	3
                                  1954
                        001035    1955  	org	z+(8*(inner_product_max_code+1)+12)*3	VerticalBar.OrSign
    003355  aa   400000 000000    1956  	vfd	18/operator_bead_type,18/0,18/dyadic+inner_product,9/8,9/12
    003356  aa   041000 010014
    003357  aa   000000 000003    1957  	dec 	3
                                  1958
                        001040    1959  	org	z+(8*(inner_product_max_code+1)+13)*3	VerticalBar.NandSign
    003360  aa   400000 000000    1960  	vfd	18/operator_bead_type,18/0,18/dyadic+inner_product,9/8,9/13
    003361  aa   041000 010015
    003362  aa   000000 000003    1961  	dec 	3
                                  1962
                        001043    1963  	org	z+(8*(inner_product_max_code+1)+14)*3	VerticalBar.NorSign
    003363  aa   400000 000000    1964  	vfd	18/operator_bead_type,18/0,18/dyadic+inner_product,9/8,9/14
    003364  aa   041000 010016
    003365  aa   000000 000003    1965  	dec 	3
                                  1966
                        001046    1967  	org	z+(8*(inner_product_max_code+1)+15)*3	VerticalBar.LessThan
    003366  aa   400000 000000    1968  	vfd	18/operator_bead_type,18/0,18/dyadic+inner_product,9/8,9/15
    003367  aa   041000 010017
    003370  aa   000000 000003    1969  	dec 	3
                                  1970
                        001051    1971  	org	z+(8*(inner_product_max_code+1)+16)*3	VerticalBar.LessOrEqual
    003371  aa   400000 000000    1972  	vfd	18/operator_bead_type,18/0,18/dyadic+inner_product,9/8,9/16
    003372  aa   041000 010020
    003373  aa   000000 000003    1973  	dec 	3
                                  1974
                        001054    1975  	org	z+(8*(inner_product_max_code+1)+17)*3	VerticalBar.Equal
    003374  aa   400000 000000    1976  	vfd	18/operator_bead_type,18/0,18/dyadic+inner_product,9/8,9/17
    003375  aa   041000 010021
    003376  aa   000000 000003    1977  	dec 	3
                                  1978
                        001057    1979  	org	z+(8*(inner_product_max_code+1)+18)*3	VerticalBar.GreaterOrEqual
    003377  aa   400000 000000    1980  	vfd	18/operator_bead_type,18/0,18/dyadic+inner_product,9/8,9/18
    003400  aa   041000 010022
    003401  aa   000000 000003    1981  	dec 	3
                                  1982
                        001062    1983  	org	z+(8*(inner_product_max_code+1)+19)*3	VerticalBar.GreaterThan
    003402  aa   400000 000000    1984  	vfd	18/operator_bead_type,18/0,18/dyadic+inner_product,9/8,9/19
    003403  aa   041000 010023
    003404  aa   000000 000003    1985  	dec 	3
                                  1986
                        001065    1987  	org	z+(8*(inner_product_max_code+1)+20)*3	VerticalBar.NotEqual
    003405  aa   400000 000000    1988  	vfd	18/operator_bead_type,18/0,18/dyadic+inner_product,9/8,9/20
    003406  aa   041000 010024
    003407  aa   000000 000003    1989  	dec 	3
                                  1990
                        001070    1991  	org	z+(9*(inner_product_max_code+1)+0)*3	Exclamation.Plus
    003410  aa   400000 000000    1992  	vfd	18/operator_bead_type,18/0,18/dyadic+inner_product,9/9,9/0
    003411  aa   041000 011000
    003412  aa   000000 000003    1993  	dec 	3
                                  1994
                        001073    1995  	org	z+(9*(inner_product_max_code+1)+1)*3	Exclamation.Minus
    003413  aa   400000 000000    1996  	vfd	18/operator_bead_type,18/0,18/dyadic+inner_product,9/9,9/1
    003414  aa   041000 011001
    003415  aa   000000 000003    1997  	dec 	3
                                  1998
                        001076    1999  	org	z+(9*(inner_product_max_code+1)+2)*3	Exclamation.Times
    003416  aa   400000 000000    2000  	vfd	18/operator_bead_type,18/0,18/dyadic+inner_product,9/9,9/2
    003417  aa   041000 011002
    003420  aa   000000 000003    2001  	dec 	3
                                  2002
                        001101    2003  	org	z+(9*(inner_product_max_code+1)+3)*3	Exclamation.Division
    003421  aa   400000 000000    2004  	vfd	18/operator_bead_type,18/0,18/dyadic+inner_product,9/9,9/3
    003422  aa   041000 011003
    003423  aa   000000 000003    2005  	dec 	3
                                  2006
                        001104    2007  	org	z+(9*(inner_product_max_code+1)+4)*3	Exclamation.Ceiling
    003424  aa   400000 000000    2008  	vfd	18/operator_bead_type,18/0,18/dyadic+inner_product,9/9,9/4
    003425  aa   041000 011004
    003426  aa   000000 000003    2009  	dec 	3
                                  2010
                        001107    2011  	org	z+(9*(inner_product_max_code+1)+5)*3	Exclamation.Floor
    003427  aa   400000 000000    2012  	vfd	18/operator_bead_type,18/0,18/dyadic+inner_product,9/9,9/5
    003430  aa   041000 011005
    003431  aa   000000 000003    2013  	dec 	3
                                  2014
                        001112    2015  	org	z+(9*(inner_product_max_code+1)+6)*3	Exclamation.Star
    003432  aa   400000 000000    2016  	vfd	18/operator_bead_type,18/0,18/dyadic+inner_product,9/9,9/6
    003433  aa   041000 011006
    003434  aa   000000 000003    2017  	dec 	3
                                  2018
                        001115    2019  	org	z+(9*(inner_product_max_code+1)+7)*3	Exclamation.CircleStar
    003435  aa   400000 000000    2020  	vfd	18/operator_bead_type,18/0,18/dyadic+inner_product,9/9,9/7
    003436  aa   041000 011007
    003437  aa   000000 000003    2021  	dec 	3
                                  2022
                        001120    2023  	org	z+(9*(inner_product_max_code+1)+8)*3	Exclamation.VerticalBar
    003440  aa   400000 000000    2024  	vfd	18/operator_bead_type,18/0,18/dyadic+inner_product,9/9,9/8
    003441  aa   041000 011010
    003442  aa   000000 000003    2025  	dec 	3
                                  2026
                        001123    2027  	org	z+(9*(inner_product_max_code+1)+9)*3	Exclamation.Exclamation
    003443  aa   400000 000000    2028  	vfd	18/operator_bead_type,18/0,18/dyadic+inner_product,9/9,9/9
    003444  aa   041000 011011
    003445  aa   000000 000003    2029  	dec 	3
                                  2030
                        001126    2031  	org	z+(9*(inner_product_max_code+1)+10)*3	Exclamation.Circle
    003446  aa   400000 000000    2032  	vfd	18/operator_bead_type,18/0,18/dyadic+inner_product,9/9,9/10
    003447  aa   041000 011012
    003450  aa   000000 000003    2033  	dec 	3
                                  2034
                        001131    2035  	org	z+(9*(inner_product_max_code+1)+11)*3	Exclamation.AndSign
    003451  aa   400000 000000    2036  	vfd	18/operator_bead_type,18/0,18/dyadic+inner_product,9/9,9/11
    003452  aa   041000 011013
    003453  aa   000000 000003    2037  	dec 	3
                                  2038
                        001134    2039  	org	z+(9*(inner_product_max_code+1)+12)*3	Exclamation.OrSign
    003454  aa   400000 000000    2040  	vfd	18/operator_bead_type,18/0,18/dyadic+inner_product,9/9,9/12
    003455  aa   041000 011014
    003456  aa   000000 000003    2041  	dec 	3
                                  2042
                        001137    2043  	org	z+(9*(inner_product_max_code+1)+13)*3	Exclamation.NandSign
    003457  aa   400000 000000    2044  	vfd	18/operator_bead_type,18/0,18/dyadic+inner_product,9/9,9/13
    003460  aa   041000 011015
    003461  aa   000000 000003    2045  	dec 	3
                                  2046
                        001142    2047  	org	z+(9*(inner_product_max_code+1)+14)*3	Exclamation.NorSign
    003462  aa   400000 000000    2048  	vfd	18/operator_bead_type,18/0,18/dyadic+inner_product,9/9,9/14
    003463  aa   041000 011016
    003464  aa   000000 000003    2049  	dec 	3
                                  2050
                        001145    2051  	org	z+(9*(inner_product_max_code+1)+15)*3	Exclamation.LessThan
    003465  aa   400000 000000    2052  	vfd	18/operator_bead_type,18/0,18/dyadic+inner_product,9/9,9/15
    003466  aa   041000 011017
    003467  aa   000000 000003    2053  	dec 	3
                                  2054
                        001150    2055  	org	z+(9*(inner_product_max_code+1)+16)*3	Exclamation.LessOrEqual
    003470  aa   400000 000000    2056  	vfd	18/operator_bead_type,18/0,18/dyadic+inner_product,9/9,9/16
    003471  aa   041000 011020
    003472  aa   000000 000003    2057  	dec 	3
                                  2058
                        001153    2059  	org	z+(9*(inner_product_max_code+1)+17)*3	Exclamation.Equal
    003473  aa   400000 000000    2060  	vfd	18/operator_bead_type,18/0,18/dyadic+inner_product,9/9,9/17
    003474  aa   041000 011021
    003475  aa   000000 000003    2061  	dec 	3
                                  2062
                        001156    2063  	org	z+(9*(inner_product_max_code+1)+18)*3	Exclamation.GreaterOrEqual
    003476  aa   400000 000000    2064  	vfd	18/operator_bead_type,18/0,18/dyadic+inner_product,9/9,9/18
    003477  aa   041000 011022
    003500  aa   000000 000003    2065  	dec 	3
                                  2066
                        001161    2067  	org	z+(9*(inner_product_max_code+1)+19)*3	Exclamation.GreaterThan
    003501  aa   400000 000000    2068  	vfd	18/operator_bead_type,18/0,18/dyadic+inner_product,9/9,9/19
    003502  aa   041000 011023
    003503  aa   000000 000003    2069  	dec 	3
                                  2070
                        001164    2071  	org	z+(9*(inner_product_max_code+1)+20)*3	Exclamation.NotEqual
    003504  aa   400000 000000    2072  	vfd	18/operator_bead_type,18/0,18/dyadic+inner_product,9/9,9/20
    003505  aa   041000 011024
    003506  aa   000000 000003    2073  	dec 	3
                                  2074
                        001167    2075  	org	z+(10*(inner_product_max_code+1)+0)*3	Circle.Plus
    003507  aa   400000 000000    2076  	vfd	18/operator_bead_type,18/0,18/dyadic+inner_product,9/10,9/0
    003510  aa   041000 012000
    003511  aa   000000 000003    2077  	dec 	3
                                  2078
                        001172    2079  	org	z+(10*(inner_product_max_code+1)+1)*3	Circle.Minus
    003512  aa   400000 000000    2080  	vfd	18/operator_bead_type,18/0,18/dyadic+inner_product,9/10,9/1
    003513  aa   041000 012001
    003514  aa   000000 000003    2081  	dec 	3
                                  2082
                        001175    2083  	org	z+(10*(inner_product_max_code+1)+2)*3	Circle.Times
    003515  aa   400000 000000    2084  	vfd	18/operator_bead_type,18/0,18/dyadic+inner_product,9/10,9/2
    003516  aa   041000 012002
    003517  aa   000000 000003    2085  	dec 	3
                                  2086
                        001200    2087  	org	z+(10*(inner_product_max_code+1)+3)*3	Circle.Division
    003520  aa   400000 000000    2088  	vfd	18/operator_bead_type,18/0,18/dyadic+inner_product,9/10,9/3
    003521  aa   041000 012003
    003522  aa   000000 000003    2089  	dec 	3
                                  2090
                        001203    2091  	org	z+(10*(inner_product_max_code+1)+4)*3	Circle.Ceiling
    003523  aa   400000 000000    2092  	vfd	18/operator_bead_type,18/0,18/dyadic+inner_product,9/10,9/4
    003524  aa   041000 012004
    003525  aa   000000 000003    2093  	dec 	3
                                  2094
                        001206    2095  	org	z+(10*(inner_product_max_code+1)+5)*3	Circle.Floor
    003526  aa   400000 000000    2096  	vfd	18/operator_bead_type,18/0,18/dyadic+inner_product,9/10,9/5
    003527  aa   041000 012005
    003530  aa   000000 000003    2097  	dec 	3
                                  2098
                        001211    2099  	org	z+(10*(inner_product_max_code+1)+6)*3	Circle.Star
    003531  aa   400000 000000    2100  	vfd	18/operator_bead_type,18/0,18/dyadic+inner_product,9/10,9/6
    003532  aa   041000 012006
    003533  aa   000000 000003    2101  	dec 	3
                                  2102
                        001214    2103  	org	z+(10*(inner_product_max_code+1)+7)*3	Circle.CircleStar
    003534  aa   400000 000000    2104  	vfd	18/operator_bead_type,18/0,18/dyadic+inner_product,9/10,9/7
    003535  aa   041000 012007
    003536  aa   000000 000003    2105  	dec 	3
                                  2106
                        001217    2107  	org	z+(10*(inner_product_max_code+1)+8)*3	Circle.VerticalBar
    003537  aa   400000 000000    2108  	vfd	18/operator_bead_type,18/0,18/dyadic+inner_product,9/10,9/8
    003540  aa   041000 012010
    003541  aa   000000 000003    2109  	dec 	3
                                  2110
                        001222    2111  	org	z+(10*(inner_product_max_code+1)+9)*3	Circle.Exclamation
    003542  aa   400000 000000    2112  	vfd	18/operator_bead_type,18/0,18/dyadic+inner_product,9/10,9/9
    003543  aa   041000 012011
    003544  aa   000000 000003    2113  	dec 	3
                                  2114
                        001225    2115  	org	z+(10*(inner_product_max_code+1)+10)*3	Circle.Circle
    003545  aa   400000 000000    2116  	vfd	18/operator_bead_type,18/0,18/dyadic+inner_product,9/10,9/10
    003546  aa   041000 012012
    003547  aa   000000 000003    2117  	dec 	3
                                  2118
                        001230    2119  	org	z+(10*(inner_product_max_code+1)+11)*3	Circle.AndSign
    003550  aa   400000 000000    2120  	vfd	18/operator_bead_type,18/0,18/dyadic+inner_product,9/10,9/11
    003551  aa   041000 012013
    003552  aa   000000 000003    2121  	dec 	3
                                  2122
                        001233    2123  	org	z+(10*(inner_product_max_code+1)+12)*3	Circle.OrSign
    003553  aa   400000 000000    2124  	vfd	18/operator_bead_type,18/0,18/dyadic+inner_product,9/10,9/12
    003554  aa   041000 012014
    003555  aa   000000 000003    2125  	dec 	3
                                  2126
                        001236    2127  	org	z+(10*(inner_product_max_code+1)+13)*3	Circle.NandSign
    003556  aa   400000 000000    2128  	vfd	18/operator_bead_type,18/0,18/dyadic+inner_product,9/10,9/13
    003557  aa   041000 012015
    003560  aa   000000 000003    2129  	dec 	3
                                  2130
                        001241    2131  	org	z+(10*(inner_product_max_code+1)+14)*3	Circle.NorSign
    003561  aa   400000 000000    2132  	vfd	18/operator_bead_type,18/0,18/dyadic+inner_product,9/10,9/14
    003562  aa   041000 012016
    003563  aa   000000 000003    2133  	dec 	3
                                  2134
                        001244    2135  	org	z+(10*(inner_product_max_code+1)+15)*3	Circle.LessThan
    003564  aa   400000 000000    2136  	vfd	18/operator_bead_type,18/0,18/dyadic+inner_product,9/10,9/15
    003565  aa   041000 012017
    003566  aa   000000 000003    2137  	dec 	3
                                  2138
                        001247    2139  	org	z+(10*(inner_product_max_code+1)+16)*3	Circle.LessOrEqual
    003567  aa   400000 000000    2140  	vfd	18/operator_bead_type,18/0,18/dyadic+inner_product,9/10,9/16
    003570  aa   041000 012020
    003571  aa   000000 000003    2141  	dec 	3
                                  2142
                        001252    2143  	org	z+(10*(inner_product_max_code+1)+17)*3	Circle.Equal
    003572  aa   400000 000000    2144  	vfd	18/operator_bead_type,18/0,18/dyadic+inner_product,9/10,9/17
    003573  aa   041000 012021
    003574  aa   000000 000003    2145  	dec 	3
                                  2146
                        001255    2147  	org	z+(10*(inner_product_max_code+1)+18)*3	Circle.GreaterOrEqual
    003575  aa   400000 000000    2148  	vfd	18/operator_bead_type,18/0,18/dyadic+inner_product,9/10,9/18
    003576  aa   041000 012022
    003577  aa   000000 000003    2149  	dec 	3
                                  2150
                        001260    2151  	org	z+(10*(inner_product_max_code+1)+19)*3	Circle.GreaterThan
    003600  aa   400000 000000    2152  	vfd	18/operator_bead_type,18/0,18/dyadic+inner_product,9/10,9/19
    003601  aa   041000 012023
    003602  aa   000000 000003    2153  	dec 	3
                                  2154
                        001263    2155  	org	z+(10*(inner_product_max_code+1)+20)*3	Circle.NotEqual
    003603  aa   400000 000000    2156  	vfd	18/operator_bead_type,18/0,18/dyadic+inner_product,9/10,9/20
    003604  aa   041000 012024
    003605  aa   000000 000003    2157  	dec 	3
                                  2158
                        001266    2159  	org	z+(11*(inner_product_max_code+1)+0)*3	AndSign.Plus
    003606  aa   400000 000000    2160  	vfd	18/operator_bead_type,18/0,18/dyadic+inner_product,9/11,9/0
    003607  aa   041000 013000
    003610  aa   000000 000003    2161  	dec 	3
                                  2162
                        001271    2163  	org	z+(11*(inner_product_max_code+1)+1)*3	AndSign.Minus
    003611  aa   400000 000000    2164  	vfd	18/operator_bead_type,18/0,18/dyadic+inner_product,9/11,9/1
    003612  aa   041000 013001
    003613  aa   000000 000003    2165  	dec 	3
                                  2166
                        001274    2167  	org	z+(11*(inner_product_max_code+1)+2)*3	AndSign.Times
    003614  aa   400000 000000    2168  	vfd	18/operator_bead_type,18/0,18/dyadic+inner_product,9/11,9/2
    003615  aa   041000 013002
    003616  aa   000000 000003    2169  	dec 	3
                                  2170
                        001277    2171  	org	z+(11*(inner_product_max_code+1)+3)*3	AndSign.Division
    003617  aa   400000 000000    2172  	vfd	18/operator_bead_type,18/0,18/dyadic+inner_product,9/11,9/3
    003620  aa   041000 013003
    003621  aa   000000 000003    2173  	dec 	3
                                  2174
                        001302    2175  	org	z+(11*(inner_product_max_code+1)+4)*3	AndSign.Ceiling
    003622  aa   400000 000000    2176  	vfd	18/operator_bead_type,18/0,18/dyadic+inner_product,9/11,9/4
    003623  aa   041000 013004
    003624  aa   000000 000003    2177  	dec 	3
                                  2178
                        001305    2179  	org	z+(11*(inner_product_max_code+1)+5)*3	AndSign.Floor
    003625  aa   400000 000000    2180  	vfd	18/operator_bead_type,18/0,18/dyadic+inner_product,9/11,9/5
    003626  aa   041000 013005
    003627  aa   000000 000003    2181  	dec 	3
                                  2182
                        001310    2183  	org	z+(11*(inner_product_max_code+1)+6)*3	AndSign.Star
    003630  aa   400000 000000    2184  	vfd	18/operator_bead_type,18/0,18/dyadic+inner_product,9/11,9/6
    003631  aa   041000 013006
    003632  aa   000000 000003    2185  	dec 	3
                                  2186
                        001313    2187  	org	z+(11*(inner_product_max_code+1)+7)*3	AndSign.CircleStar
    003633  aa   400000 000000    2188  	vfd	18/operator_bead_type,18/0,18/dyadic+inner_product,9/11,9/7
    003634  aa   041000 013007
    003635  aa   000000 000003    2189  	dec 	3
                                  2190
                        001316    2191  	org	z+(11*(inner_product_max_code+1)+8)*3	AndSign.VerticalBar
    003636  aa   400000 000000    2192  	vfd	18/operator_bead_type,18/0,18/dyadic+inner_product,9/11,9/8
    003637  aa   041000 013010
    003640  aa   000000 000003    2193  	dec 	3
                                  2194
                        001321    2195  	org	z+(11*(inner_product_max_code+1)+9)*3	AndSign.Exclamation
    003641  aa   400000 000000    2196  	vfd	18/operator_bead_type,18/0,18/dyadic+inner_product,9/11,9/9
    003642  aa   041000 013011
    003643  aa   000000 000003    2197  	dec 	3
                                  2198
                        001324    2199  	org	z+(11*(inner_product_max_code+1)+10)*3	AndSign.Circle
    003644  aa   400000 000000    2200  	vfd	18/operator_bead_type,18/0,18/dyadic+inner_product,9/11,9/10
    003645  aa   041000 013012
    003646  aa   000000 000003    2201  	dec 	3
                                  2202
                        001327    2203  	org	z+(11*(inner_product_max_code+1)+11)*3	AndSign.AndSign
    003647  aa   400000 000000    2204  	vfd	18/operator_bead_type,18/0,18/dyadic+inner_product,9/11,9/11
    003650  aa   041000 013013
    003651  aa   000000 000003    2205  	dec 	3
                                  2206
                        001332    2207  	org	z+(11*(inner_product_max_code+1)+12)*3	AndSign.OrSign
    003652  aa   400000 000000    2208  	vfd	18/operator_bead_type,18/0,18/dyadic+inner_product,9/11,9/12
    003653  aa   041000 013014
    003654  aa   000000 000003    2209  	dec 	3
                                  2210
                        001335    2211  	org	z+(11*(inner_product_max_code+1)+13)*3	AndSign.NandSign
    003655  aa   400000 000000    2212  	vfd	18/operator_bead_type,18/0,18/dyadic+inner_product,9/11,9/13
    003656  aa   041000 013015
    003657  aa   000000 000003    2213  	dec 	3
                                  2214
                        001340    2215  	org	z+(11*(inner_product_max_code+1)+14)*3	AndSign.NorSign
    003660  aa   400000 000000    2216  	vfd	18/operator_bead_type,18/0,18/dyadic+inner_product,9/11,9/14
    003661  aa   041000 013016
    003662  aa   000000 000003    2217  	dec 	3
                                  2218
                        001343    2219  	org	z+(11*(inner_product_max_code+1)+15)*3	AndSign.LessThan
    003663  aa   400000 000000    2220  	vfd	18/operator_bead_type,18/0,18/dyadic+inner_product,9/11,9/15
    003664  aa   041000 013017
    003665  aa   000000 000003    2221  	dec 	3
                                  2222
                        001346    2223  	org	z+(11*(inner_product_max_code+1)+16)*3	AndSign.LessOrEqual
    003666  aa   400000 000000    2224  	vfd	18/operator_bead_type,18/0,18/dyadic+inner_product,9/11,9/16
    003667  aa   041000 013020
    003670  aa   000000 000003    2225  	dec 	3
                                  2226
                        001351    2227  	org	z+(11*(inner_product_max_code+1)+17)*3	AndSign.Equal
    003671  aa   400000 000000    2228  	vfd	18/operator_bead_type,18/0,18/dyadic+inner_product,9/11,9/17
    003672  aa   041000 013021
    003673  aa   000000 000003    2229  	dec 	3
                                  2230
                        001354    2231  	org	z+(11*(inner_product_max_code+1)+18)*3	AndSign.GreaterOrEqual
    003674  aa   400000 000000    2232  	vfd	18/operator_bead_type,18/0,18/dyadic+inner_product,9/11,9/18
    003675  aa   041000 013022
    003676  aa   000000 000003    2233  	dec 	3
                                  2234
                        001357    2235  	org	z+(11*(inner_product_max_code+1)+19)*3	AndSign.GreaterThan
    003677  aa   400000 000000    2236  	vfd	18/operator_bead_type,18/0,18/dyadic+inner_product,9/11,9/19
    003700  aa   041000 013023
    003701  aa   000000 000003    2237  	dec 	3
                                  2238
                        001362    2239  	org	z+(11*(inner_product_max_code+1)+20)*3	AndSign.NotEqual
    003702  aa   400000 000000    2240  	vfd	18/operator_bead_type,18/0,18/dyadic+inner_product,9/11,9/20
    003703  aa   041000 013024
    003704  aa   000000 000003    2241  	dec 	3
                                  2242
                        001365    2243  	org	z+(12*(inner_product_max_code+1)+0)*3	OrSign.Plus
    003705  aa   400000 000000    2244  	vfd	18/operator_bead_type,18/0,18/dyadic+inner_product,9/12,9/0
    003706  aa   041000 014000
    003707  aa   000000 000003    2245  	dec 	3
                                  2246
                        001370    2247  	org	z+(12*(inner_product_max_code+1)+1)*3	OrSign.Minus
    003710  aa   400000 000000    2248  	vfd	18/operator_bead_type,18/0,18/dyadic+inner_product,9/12,9/1
    003711  aa   041000 014001
    003712  aa   000000 000003    2249  	dec 	3
                                  2250
                        001373    2251  	org	z+(12*(inner_product_max_code+1)+2)*3	OrSign.Times
    003713  aa   400000 000000    2252  	vfd	18/operator_bead_type,18/0,18/dyadic+inner_product,9/12,9/2
    003714  aa   041000 014002
    003715  aa   000000 000003    2253  	dec 	3
                                  2254
                        001376    2255  	org	z+(12*(inner_product_max_code+1)+3)*3	OrSign.Division
    003716  aa   400000 000000    2256  	vfd	18/operator_bead_type,18/0,18/dyadic+inner_product,9/12,9/3
    003717  aa   041000 014003
    003720  aa   000000 000003    2257  	dec 	3
                                  2258
                        001401    2259  	org	z+(12*(inner_product_max_code+1)+4)*3	OrSign.Ceiling
    003721  aa   400000 000000    2260  	vfd	18/operator_bead_type,18/0,18/dyadic+inner_product,9/12,9/4
    003722  aa   041000 014004
    003723  aa   000000 000003    2261  	dec 	3
                                  2262
                        001404    2263  	org	z+(12*(inner_product_max_code+1)+5)*3	OrSign.Floor
    003724  aa   400000 000000    2264  	vfd	18/operator_bead_type,18/0,18/dyadic+inner_product,9/12,9/5
    003725  aa   041000 014005
    003726  aa   000000 000003    2265  	dec 	3
                                  2266
                        001407    2267  	org	z+(12*(inner_product_max_code+1)+6)*3	OrSign.Star
    003727  aa   400000 000000    2268  	vfd	18/operator_bead_type,18/0,18/dyadic+inner_product,9/12,9/6
    003730  aa   041000 014006
    003731  aa   000000 000003    2269  	dec 	3
                                  2270
                        001412    2271  	org	z+(12*(inner_product_max_code+1)+7)*3	OrSign.CircleStar
    003732  aa   400000 000000    2272  	vfd	18/operator_bead_type,18/0,18/dyadic+inner_product,9/12,9/7
    003733  aa   041000 014007
    003734  aa   000000 000003    2273  	dec 	3
                                  2274
                        001415    2275  	org	z+(12*(inner_product_max_code+1)+8)*3	OrSign.VerticalBar
    003735  aa   400000 000000    2276  	vfd	18/operator_bead_type,18/0,18/dyadic+inner_product,9/12,9/8
    003736  aa   041000 014010
    003737  aa   000000 000003    2277  	dec 	3
                                  2278
                        001420    2279  	org	z+(12*(inner_product_max_code+1)+9)*3	OrSign.Exclamation
    003740  aa   400000 000000    2280  	vfd	18/operator_bead_type,18/0,18/dyadic+inner_product,9/12,9/9
    003741  aa   041000 014011
    003742  aa   000000 000003    2281  	dec 	3
                                  2282
                        001423    2283  	org	z+(12*(inner_product_max_code+1)+10)*3	OrSign.Circle
    003743  aa   400000 000000    2284  	vfd	18/operator_bead_type,18/0,18/dyadic+inner_product,9/12,9/10
    003744  aa   041000 014012
    003745  aa   000000 000003    2285  	dec 	3
                                  2286
                        001426    2287  	org	z+(12*(inner_product_max_code+1)+11)*3	OrSign.AndSign
    003746  aa   400000 000000    2288  	vfd	18/operator_bead_type,18/0,18/dyadic+inner_product,9/12,9/11
    003747  aa   041000 014013
    003750  aa   000000 000003    2289  	dec 	3
                                  2290
                        001431    2291  	org	z+(12*(inner_product_max_code+1)+12)*3	OrSign.OrSign
    003751  aa   400000 000000    2292  	vfd	18/operator_bead_type,18/0,18/dyadic+inner_product,9/12,9/12
    003752  aa   041000 014014
    003753  aa   000000 000003    2293  	dec 	3
                                  2294
                        001434    2295  	org	z+(12*(inner_product_max_code+1)+13)*3	OrSign.NandSign
    003754  aa   400000 000000    2296  	vfd	18/operator_bead_type,18/0,18/dyadic+inner_product,9/12,9/13
    003755  aa   041000 014015
    003756  aa   000000 000003    2297  	dec 	3
                                  2298
                        001437    2299  	org	z+(12*(inner_product_max_code+1)+14)*3	OrSign.NorSign
    003757  aa   400000 000000    2300  	vfd	18/operator_bead_type,18/0,18/dyadic+inner_product,9/12,9/14
    003760  aa   041000 014016
    003761  aa   000000 000003    2301  	dec 	3
                                  2302
                        001442    2303  	org	z+(12*(inner_product_max_code+1)+15)*3	OrSign.LessThan
    003762  aa   400000 000000    2304  	vfd	18/operator_bead_type,18/0,18/dyadic+inner_product,9/12,9/15
    003763  aa   041000 014017
    003764  aa   000000 000003    2305  	dec 	3
                                  2306
                        001445    2307  	org	z+(12*(inner_product_max_code+1)+16)*3	OrSign.LessOrEqual
    003765  aa   400000 000000    2308  	vfd	18/operator_bead_type,18/0,18/dyadic+inner_product,9/12,9/16
    003766  aa   041000 014020
    003767  aa   000000 000003    2309  	dec 	3
                                  2310
                        001450    2311  	org	z+(12*(inner_product_max_code+1)+17)*3	OrSign.Equal
    003770  aa   400000 000000    2312  	vfd	18/operator_bead_type,18/0,18/dyadic+inner_product,9/12,9/17
    003771  aa   041000 014021
    003772  aa   000000 000003    2313  	dec 	3
                                  2314
                        001453    2315  	org	z+(12*(inner_product_max_code+1)+18)*3	OrSign.GreaterOrEqual
    003773  aa   400000 000000    2316  	vfd	18/operator_bead_type,18/0,18/dyadic+inner_product,9/12,9/18
    003774  aa   041000 014022
    003775  aa   000000 000003    2317  	dec 	3
                                  2318
                        001456    2319  	org	z+(12*(inner_product_max_code+1)+19)*3	OrSign.GreaterThan
    003776  aa   400000 000000    2320  	vfd	18/operator_bead_type,18/0,18/dyadic+inner_product,9/12,9/19
    003777  aa   041000 014023
    004000  aa   000000 000003    2321  	dec 	3
                                  2322
                        001461    2323  	org	z+(12*(inner_product_max_code+1)+20)*3	OrSign.NotEqual
    004001  aa   400000 000000    2324  	vfd	18/operator_bead_type,18/0,18/dyadic+inner_product,9/12,9/20
    004002  aa   041000 014024
    004003  aa   000000 000003    2325  	dec 	3
                                  2326
                        001464    2327  	org	z+(13*(inner_product_max_code+1)+0)*3	NandSign.Plus
    004004  aa   400000 000000    2328  	vfd	18/operator_bead_type,18/0,18/dyadic+inner_product,9/13,9/0
    004005  aa   041000 015000
    004006  aa   000000 000003    2329  	dec 	3
                                  2330
                        001467    2331  	org	z+(13*(inner_product_max_code+1)+1)*3	NandSign.Minus
    004007  aa   400000 000000    2332  	vfd	18/operator_bead_type,18/0,18/dyadic+inner_product,9/13,9/1
    004010  aa   041000 015001
    004011  aa   000000 000003    2333  	dec 	3
                                  2334
                        001472    2335  	org	z+(13*(inner_product_max_code+1)+2)*3	NandSign.Times
    004012  aa   400000 000000    2336  	vfd	18/operator_bead_type,18/0,18/dyadic+inner_product,9/13,9/2
    004013  aa   041000 015002
    004014  aa   000000 000003    2337  	dec 	3
                                  2338
                        001475    2339  	org	z+(13*(inner_product_max_code+1)+3)*3	NandSign.Division
    004015  aa   400000 000000    2340  	vfd	18/operator_bead_type,18/0,18/dyadic+inner_product,9/13,9/3
    004016  aa   041000 015003
    004017  aa   000000 000003    2341  	dec 	3
                                  2342
                        001500    2343  	org	z+(13*(inner_product_max_code+1)+4)*3	NandSign.Ceiling
    004020  aa   400000 000000    2344  	vfd	18/operator_bead_type,18/0,18/dyadic+inner_product,9/13,9/4
    004021  aa   041000 015004
    004022  aa   000000 000003    2345  	dec 	3
                                  2346
                        001503    2347  	org	z+(13*(inner_product_max_code+1)+5)*3	NandSign.Floor
    004023  aa   400000 000000    2348  	vfd	18/operator_bead_type,18/0,18/dyadic+inner_product,9/13,9/5
    004024  aa   041000 015005
    004025  aa   000000 000003    2349  	dec 	3
                                  2350
                        001506    2351  	org	z+(13*(inner_product_max_code+1)+6)*3	NandSign.Star
    004026  aa   400000 000000    2352  	vfd	18/operator_bead_type,18/0,18/dyadic+inner_product,9/13,9/6
    004027  aa   041000 015006
    004030  aa   000000 000003    2353  	dec 	3
                                  2354
                        001511    2355  	org	z+(13*(inner_product_max_code+1)+7)*3	NandSign.CircleStar
    004031  aa   400000 000000    2356  	vfd	18/operator_bead_type,18/0,18/dyadic+inner_product,9/13,9/7
    004032  aa   041000 015007
    004033  aa   000000 000003    2357  	dec 	3
                                  2358
                        001514    2359  	org	z+(13*(inner_product_max_code+1)+8)*3	NandSign.VerticalBar
    004034  aa   400000 000000    2360  	vfd	18/operator_bead_type,18/0,18/dyadic+inner_product,9/13,9/8
    004035  aa   041000 015010
    004036  aa   000000 000003    2361  	dec 	3
                                  2362
                        001517    2363  	org	z+(13*(inner_product_max_code+1)+9)*3	NandSign.Exclamation
    004037  aa   400000 000000    2364  	vfd	18/operator_bead_type,18/0,18/dyadic+inner_product,9/13,9/9
    004040  aa   041000 015011
    004041  aa   000000 000003    2365  	dec 	3
                                  2366
                        001522    2367  	org	z+(13*(inner_product_max_code+1)+10)*3	NandSign.Circle
    004042  aa   400000 000000    2368  	vfd	18/operator_bead_type,18/0,18/dyadic+inner_product,9/13,9/10
    004043  aa   041000 015012
    004044  aa   000000 000003    2369  	dec 	3
                                  2370
                        001525    2371  	org	z+(13*(inner_product_max_code+1)+11)*3	NandSign.AndSign
    004045  aa   400000 000000    2372  	vfd	18/operator_bead_type,18/0,18/dyadic+inner_product,9/13,9/11
    004046  aa   041000 015013
    004047  aa   000000 000003    2373  	dec 	3
                                  2374
                        001530    2375  	org	z+(13*(inner_product_max_code+1)+12)*3	NandSign.OrSign
    004050  aa   400000 000000    2376  	vfd	18/operator_bead_type,18/0,18/dyadic+inner_product,9/13,9/12
    004051  aa   041000 015014
    004052  aa   000000 000003    2377  	dec 	3
                                  2378
                        001533    2379  	org	z+(13*(inner_product_max_code+1)+13)*3	NandSign.NandSign
    004053  aa   400000 000000    2380  	vfd	18/operator_bead_type,18/0,18/dyadic+inner_product,9/13,9/13
    004054  aa   041000 015015
    004055  aa   000000 000003    2381  	dec 	3
                                  2382
                        001536    2383  	org	z+(13*(inner_product_max_code+1)+14)*3	NandSign.NorSign
    004056  aa   400000 000000    2384  	vfd	18/operator_bead_type,18/0,18/dyadic+inner_product,9/13,9/14
    004057  aa   041000 015016
    004060  aa   000000 000003    2385  	dec 	3
                                  2386
                        001541    2387  	org	z+(13*(inner_product_max_code+1)+15)*3	NandSign.LessThan
    004061  aa   400000 000000    2388  	vfd	18/operator_bead_type,18/0,18/dyadic+inner_product,9/13,9/15
    004062  aa   041000 015017
    004063  aa   000000 000003    2389  	dec 	3
                                  2390
                        001544    2391  	org	z+(13*(inner_product_max_code+1)+16)*3	NandSign.LessOrEqual
    004064  aa   400000 000000    2392  	vfd	18/operator_bead_type,18/0,18/dyadic+inner_product,9/13,9/16
    004065  aa   041000 015020
    004066  aa   000000 000003    2393  	dec 	3
                                  2394
                        001547    2395  	org	z+(13*(inner_product_max_code+1)+17)*3	NandSign.Equal
    004067  aa   400000 000000    2396  	vfd	18/operator_bead_type,18/0,18/dyadic+inner_product,9/13,9/17
    004070  aa   041000 015021
    004071  aa   000000 000003    2397  	dec 	3
                                  2398
                        001552    2399  	org	z+(13*(inner_product_max_code+1)+18)*3	NandSign.GreaterOrEqual
    004072  aa   400000 000000    2400  	vfd	18/operator_bead_type,18/0,18/dyadic+inner_product,9/13,9/18
    004073  aa   041000 015022
    004074  aa   000000 000003    2401  	dec 	3
                                  2402
                        001555    2403  	org	z+(13*(inner_product_max_code+1)+19)*3	NandSign.GreaterThan
    004075  aa   400000 000000    2404  	vfd	18/operator_bead_type,18/0,18/dyadic+inner_product,9/13,9/19
    004076  aa   041000 015023
    004077  aa   000000 000003    2405  	dec 	3
                                  2406
                        001560    2407  	org	z+(13*(inner_product_max_code+1)+20)*3	NandSign.NotEqual
    004100  aa   400000 000000    2408  	vfd	18/operator_bead_type,18/0,18/dyadic+inner_product,9/13,9/20
    004101  aa   041000 015024
    004102  aa   000000 000003    2409  	dec 	3
                                  2410
                        001563    2411  	org	z+(14*(inner_product_max_code+1)+0)*3	NorSign.Plus
    004103  aa   400000 000000    2412  	vfd	18/operator_bead_type,18/0,18/dyadic+inner_product,9/14,9/0
    004104  aa   041000 016000
    004105  aa   000000 000003    2413  	dec 	3
                                  2414
                        001566    2415  	org	z+(14*(inner_product_max_code+1)+1)*3	NorSign.Minus
    004106  aa   400000 000000    2416  	vfd	18/operator_bead_type,18/0,18/dyadic+inner_product,9/14,9/1
    004107  aa   041000 016001
    004110  aa   000000 000003    2417  	dec 	3
                                  2418
                        001571    2419  	org	z+(14*(inner_product_max_code+1)+2)*3	NorSign.Times
    004111  aa   400000 000000    2420  	vfd	18/operator_bead_type,18/0,18/dyadic+inner_product,9/14,9/2
    004112  aa   041000 016002
    004113  aa   000000 000003    2421  	dec 	3
                                  2422
                        001574    2423  	org	z+(14*(inner_product_max_code+1)+3)*3	NorSign.Division
    004114  aa   400000 000000    2424  	vfd	18/operator_bead_type,18/0,18/dyadic+inner_product,9/14,9/3
    004115  aa   041000 016003
    004116  aa   000000 000003    2425  	dec 	3
                                  2426
                        001577    2427  	org	z+(14*(inner_product_max_code+1)+4)*3	NorSign.Ceiling
    004117  aa   400000 000000    2428  	vfd	18/operator_bead_type,18/0,18/dyadic+inner_product,9/14,9/4
    004120  aa   041000 016004
    004121  aa   000000 000003    2429  	dec 	3
                                  2430
                        001602    2431  	org	z+(14*(inner_product_max_code+1)+5)*3	NorSign.Floor
    004122  aa   400000 000000    2432  	vfd	18/operator_bead_type,18/0,18/dyadic+inner_product,9/14,9/5
    004123  aa   041000 016005
    004124  aa   000000 000003    2433  	dec 	3
                                  2434
                        001605    2435  	org	z+(14*(inner_product_max_code+1)+6)*3	NorSign.Star
    004125  aa   400000 000000    2436  	vfd	18/operator_bead_type,18/0,18/dyadic+inner_product,9/14,9/6
    004126  aa   041000 016006
    004127  aa   000000 000003    2437  	dec 	3
                                  2438
                        001610    2439  	org	z+(14*(inner_product_max_code+1)+7)*3	NorSign.CircleStar
    004130  aa   400000 000000    2440  	vfd	18/operator_bead_type,18/0,18/dyadic+inner_product,9/14,9/7
    004131  aa   041000 016007
    004132  aa   000000 000003    2441  	dec 	3
                                  2442
                        001613    2443  	org	z+(14*(inner_product_max_code+1)+8)*3	NorSign.VerticalBar
    004133  aa   400000 000000    2444  	vfd	18/operator_bead_type,18/0,18/dyadic+inner_product,9/14,9/8
    004134  aa   041000 016010
    004135  aa   000000 000003    2445  	dec 	3
                                  2446
                        001616    2447  	org	z+(14*(inner_product_max_code+1)+9)*3	NorSign.Exclamation
    004136  aa   400000 000000    2448  	vfd	18/operator_bead_type,18/0,18/dyadic+inner_product,9/14,9/9
    004137  aa   041000 016011
    004140  aa   000000 000003    2449  	dec 	3
                                  2450
                        001621    2451  	org	z+(14*(inner_product_max_code+1)+10)*3	NorSign.Circle
    004141  aa   400000 000000    2452  	vfd	18/operator_bead_type,18/0,18/dyadic+inner_product,9/14,9/10
    004142  aa   041000 016012
    004143  aa   000000 000003    2453  	dec 	3
                                  2454
                        001624    2455  	org	z+(14*(inner_product_max_code+1)+11)*3	NorSign.AndSign
    004144  aa   400000 000000    2456  	vfd	18/operator_bead_type,18/0,18/dyadic+inner_product,9/14,9/11
    004145  aa   041000 016013
    004146  aa   000000 000003    2457  	dec 	3
                                  2458
                        001627    2459  	org	z+(14*(inner_product_max_code+1)+12)*3	NorSign.OrSign
    004147  aa   400000 000000    2460  	vfd	18/operator_bead_type,18/0,18/dyadic+inner_product,9/14,9/12
    004150  aa   041000 016014
    004151  aa   000000 000003    2461  	dec 	3
                                  2462
                        001632    2463  	org	z+(14*(inner_product_max_code+1)+13)*3	NorSign.NandSign
    004152  aa   400000 000000    2464  	vfd	18/operator_bead_type,18/0,18/dyadic+inner_product,9/14,9/13
    004153  aa   041000 016015
    004154  aa   000000 000003    2465  	dec 	3
                                  2466
                        001635    2467  	org	z+(14*(inner_product_max_code+1)+14)*3	NorSign.NorSign
    004155  aa   400000 000000    2468  	vfd	18/operator_bead_type,18/0,18/dyadic+inner_product,9/14,9/14
    004156  aa   041000 016016
    004157  aa   000000 000003    2469  	dec 	3
                                  2470
                        001640    2471  	org	z+(14*(inner_product_max_code+1)+15)*3	NorSign.LessThan
    004160  aa   400000 000000    2472  	vfd	18/operator_bead_type,18/0,18/dyadic+inner_product,9/14,9/15
    004161  aa   041000 016017
    004162  aa   000000 000003    2473  	dec 	3
                                  2474
                        001643    2475  	org	z+(14*(inner_product_max_code+1)+16)*3	NorSign.LessOrEqual
    004163  aa   400000 000000    2476  	vfd	18/operator_bead_type,18/0,18/dyadic+inner_product,9/14,9/16
    004164  aa   041000 016020
    004165  aa   000000 000003    2477  	dec 	3
                                  2478
                        001646    2479  	org	z+(14*(inner_product_max_code+1)+17)*3	NorSign.Equal
    004166  aa   400000 000000    2480  	vfd	18/operator_bead_type,18/0,18/dyadic+inner_product,9/14,9/17
    004167  aa   041000 016021
    004170  aa   000000 000003    2481  	dec 	3
                                  2482
                        001651    2483  	org	z+(14*(inner_product_max_code+1)+18)*3	NorSign.GreaterOrEqual
    004171  aa   400000 000000    2484  	vfd	18/operator_bead_type,18/0,18/dyadic+inner_product,9/14,9/18
    004172  aa   041000 016022
    004173  aa   000000 000003    2485  	dec 	3
                                  2486
                        001654    2487  	org	z+(14*(inner_product_max_code+1)+19)*3	NorSign.GreaterThan
    004174  aa   400000 000000    2488  	vfd	18/operator_bead_type,18/0,18/dyadic+inner_product,9/14,9/19
    004175  aa   041000 016023
    004176  aa   000000 000003    2489  	dec 	3
                                  2490
                        001657    2491  	org	z+(14*(inner_product_max_code+1)+20)*3	NorSign.NotEqual
    004177  aa   400000 000000    2492  	vfd	18/operator_bead_type,18/0,18/dyadic+inner_product,9/14,9/20
    004200  aa   041000 016024
    004201  aa   000000 000003    2493  	dec 	3
                                  2494
                        001662    2495  	org	z+(15*(inner_product_max_code+1)+0)*3	LessThan.Plus
    004202  aa   400000 000000    2496  	vfd	18/operator_bead_type,18/0,18/dyadic+inner_product,9/15,9/0
    004203  aa   041000 017000
    004204  aa   000000 000003    2497  	dec 	3
                                  2498
                        001665    2499  	org	z+(15*(inner_product_max_code+1)+1)*3	LessThan.Minus
    004205  aa   400000 000000    2500  	vfd	18/operator_bead_type,18/0,18/dyadic+inner_product,9/15,9/1
    004206  aa   041000 017001
    004207  aa   000000 000003    2501  	dec 	3
                                  2502
                        001670    2503  	org	z+(15*(inner_product_max_code+1)+2)*3	LessThan.Times
    004210  aa   400000 000000    2504  	vfd	18/operator_bead_type,18/0,18/dyadic+inner_product,9/15,9/2
    004211  aa   041000 017002
    004212  aa   000000 000003    2505  	dec 	3
                                  2506
                        001673    2507  	org	z+(15*(inner_product_max_code+1)+3)*3	LessThan.Division
    004213  aa   400000 000000    2508  	vfd	18/operator_bead_type,18/0,18/dyadic+inner_product,9/15,9/3
    004214  aa   041000 017003
    004215  aa   000000 000003    2509  	dec 	3
                                  2510
                        001676    2511  	org	z+(15*(inner_product_max_code+1)+4)*3	LessThan.Ceiling
    004216  aa   400000 000000    2512  	vfd	18/operator_bead_type,18/0,18/dyadic+inner_product,9/15,9/4
    004217  aa   041000 017004
    004220  aa   000000 000003    2513  	dec 	3
                                  2514
                        001701    2515  	org	z+(15*(inner_product_max_code+1)+5)*3	LessThan.Floor
    004221  aa   400000 000000    2516  	vfd	18/operator_bead_type,18/0,18/dyadic+inner_product,9/15,9/5
    004222  aa   041000 017005
    004223  aa   000000 000003    2517  	dec 	3
                                  2518
                        001704    2519  	org	z+(15*(inner_product_max_code+1)+6)*3	LessThan.Star
    004224  aa   400000 000000    2520  	vfd	18/operator_bead_type,18/0,18/dyadic+inner_product,9/15,9/6
    004225  aa   041000 017006
    004226  aa   000000 000003    2521  	dec 	3
                                  2522
                        001707    2523  	org	z+(15*(inner_product_max_code+1)+7)*3	LessThan.CircleStar
    004227  aa   400000 000000    2524  	vfd	18/operator_bead_type,18/0,18/dyadic+inner_product,9/15,9/7
    004230  aa   041000 017007
    004231  aa   000000 000003    2525  	dec 	3
                                  2526
                        001712    2527  	org	z+(15*(inner_product_max_code+1)+8)*3	LessThan.VerticalBar
    004232  aa   400000 000000    2528  	vfd	18/operator_bead_type,18/0,18/dyadic+inner_product,9/15,9/8
    004233  aa   041000 017010
    004234  aa   000000 000003    2529  	dec 	3
                                  2530
                        001715    2531  	org	z+(15*(inner_product_max_code+1)+9)*3	LessThan.Exclamation
    004235  aa   400000 000000    2532  	vfd	18/operator_bead_type,18/0,18/dyadic+inner_product,9/15,9/9
    004236  aa   041000 017011
    004237  aa   000000 000003    2533  	dec 	3
                                  2534
                        001720    2535  	org	z+(15*(inner_product_max_code+1)+10)*3	LessThan.Circle
    004240  aa   400000 000000    2536  	vfd	18/operator_bead_type,18/0,18/dyadic+inner_product,9/15,9/10
    004241  aa   041000 017012
    004242  aa   000000 000003    2537  	dec 	3
                                  2538
                        001723    2539  	org	z+(15*(inner_product_max_code+1)+11)*3	LessThan.AndSign
    004243  aa   400000 000000    2540  	vfd	18/operator_bead_type,18/0,18/dyadic+inner_product,9/15,9/11
    004244  aa   041000 017013
    004245  aa   000000 000003    2541  	dec 	3
                                  2542
                        001726    2543  	org	z+(15*(inner_product_max_code+1)+12)*3	LessThan.OrSign
    004246  aa   400000 000000    2544  	vfd	18/operator_bead_type,18/0,18/dyadic+inner_product,9/15,9/12
    004247  aa   041000 017014
    004250  aa   000000 000003    2545  	dec 	3
                                  2546
                        001731    2547  	org	z+(15*(inner_product_max_code+1)+13)*3	LessThan.NandSign
    004251  aa   400000 000000    2548  	vfd	18/operator_bead_type,18/0,18/dyadic+inner_product,9/15,9/13
    004252  aa   041000 017015
    004253  aa   000000 000003    2549  	dec 	3
                                  2550
                        001734    2551  	org	z+(15*(inner_product_max_code+1)+14)*3	LessThan.NorSign
    004254  aa   400000 000000    2552  	vfd	18/operator_bead_type,18/0,18/dyadic+inner_product,9/15,9/14
    004255  aa   041000 017016
    004256  aa   000000 000003    2553  	dec 	3
                                  2554
                        001737    2555  	org	z+(15*(inner_product_max_code+1)+15)*3	LessThan.LessThan
    004257  aa   400000 000000    2556  	vfd	18/operator_bead_type,18/0,18/dyadic+inner_product,9/15,9/15
    004260  aa   041000 017017
    004261  aa   000000 000003    2557  	dec 	3
                                  2558
                        001742    2559  	org	z+(15*(inner_product_max_code+1)+16)*3	LessThan.LessOrEqual
    004262  aa   400000 000000    2560  	vfd	18/operator_bead_type,18/0,18/dyadic+inner_product,9/15,9/16
    004263  aa   041000 017020
    004264  aa   000000 000003    2561  	dec 	3
                                  2562
                        001745    2563  	org	z+(15*(inner_product_max_code+1)+17)*3	LessThan.Equal
    004265  aa   400000 000000    2564  	vfd	18/operator_bead_type,18/0,18/dyadic+inner_product,9/15,9/17
    004266  aa   041000 017021
    004267  aa   000000 000003    2565  	dec 	3
                                  2566
                        001750    2567  	org	z+(15*(inner_product_max_code+1)+18)*3	LessThan.GreaterOrEqual
    004270  aa   400000 000000    2568  	vfd	18/operator_bead_type,18/0,18/dyadic+inner_product,9/15,9/18
    004271  aa   041000 017022
    004272  aa   000000 000003    2569  	dec 	3
                                  2570
                        001753    2571  	org	z+(15*(inner_product_max_code+1)+19)*3	LessThan.GreaterThan
    004273  aa   400000 000000    2572  	vfd	18/operator_bead_type,18/0,18/dyadic+inner_product,9/15,9/19
    004274  aa   041000 017023
    004275  aa   000000 000003    2573  	dec 	3
                                  2574
                        001756    2575  	org	z+(15*(inner_product_max_code+1)+20)*3	LessThan.NotEqual
    004276  aa   400000 000000    2576  	vfd	18/operator_bead_type,18/0,18/dyadic+inner_product,9/15,9/20
    004277  aa   041000 017024
    004300  aa   000000 000003    2577  	dec 	3
                                  2578
                        001761    2579  	org	z+(16*(inner_product_max_code+1)+0)*3	LessOrEqual.Plus
    004301  aa   400000 000000    2580  	vfd	18/operator_bead_type,18/0,18/dyadic+inner_product,9/16,9/0
    004302  aa   041000 020000
    004303  aa   000000 000003    2581  	dec 	3
                                  2582
                        001764    2583  	org	z+(16*(inner_product_max_code+1)+1)*3	LessOrEqual.Minus
    004304  aa   400000 000000    2584  	vfd	18/operator_bead_type,18/0,18/dyadic+inner_product,9/16,9/1
    004305  aa   041000 020001
    004306  aa   000000 000003    2585  	dec 	3
                                  2586
                        001767    2587  	org	z+(16*(inner_product_max_code+1)+2)*3	LessOrEqual.Times
    004307  aa   400000 000000    2588  	vfd	18/operator_bead_type,18/0,18/dyadic+inner_product,9/16,9/2
    004310  aa   041000 020002
    004311  aa   000000 000003    2589  	dec 	3
                                  2590
                        001772    2591  	org	z+(16*(inner_product_max_code+1)+3)*3	LessOrEqual.Division
    004312  aa   400000 000000    2592  	vfd	18/operator_bead_type,18/0,18/dyadic+inner_product,9/16,9/3
    004313  aa   041000 020003
    004314  aa   000000 000003    2593  	dec 	3
                                  2594
                        001775    2595  	org	z+(16*(inner_product_max_code+1)+4)*3	LessOrEqual.Ceiling
    004315  aa   400000 000000    2596  	vfd	18/operator_bead_type,18/0,18/dyadic+inner_product,9/16,9/4
    004316  aa   041000 020004
    004317  aa   000000 000003    2597  	dec 	3
                                  2598
                        002000    2599  	org	z+(16*(inner_product_max_code+1)+5)*3	LessOrEqual.Floor
    004320  aa   400000 000000    2600  	vfd	18/operator_bead_type,18/0,18/dyadic+inner_product,9/16,9/5
    004321  aa   041000 020005
    004322  aa   000000 000003    2601  	dec 	3
                                  2602
                        002003    2603  	org	z+(16*(inner_product_max_code+1)+6)*3	LessOrEqual.Star
    004323  aa   400000 000000    2604  	vfd	18/operator_bead_type,18/0,18/dyadic+inner_product,9/16,9/6
    004324  aa   041000 020006
    004325  aa   000000 000003    2605  	dec 	3
                                  2606
                        002006    2607  	org	z+(16*(inner_product_max_code+1)+7)*3	LessOrEqual.CircleStar
    004326  aa   400000 000000    2608  	vfd	18/operator_bead_type,18/0,18/dyadic+inner_product,9/16,9/7
    004327  aa   041000 020007
    004330  aa   000000 000003    2609  	dec 	3
                                  2610
                        002011    2611  	org	z+(16*(inner_product_max_code+1)+8)*3	LessOrEqual.VerticalBar
    004331  aa   400000 000000    2612  	vfd	18/operator_bead_type,18/0,18/dyadic+inner_product,9/16,9/8
    004332  aa   041000 020010
    004333  aa   000000 000003    2613  	dec 	3
                                  2614
                        002014    2615  	org	z+(16*(inner_product_max_code+1)+9)*3	LessOrEqual.Exclamation
    004334  aa   400000 000000    2616  	vfd	18/operator_bead_type,18/0,18/dyadic+inner_product,9/16,9/9
    004335  aa   041000 020011
    004336  aa   000000 000003    2617  	dec 	3
                                  2618
                        002017    2619  	org	z+(16*(inner_product_max_code+1)+10)*3	LessOrEqual.Circle
    004337  aa   400000 000000    2620  	vfd	18/operator_bead_type,18/0,18/dyadic+inner_product,9/16,9/10
    004340  aa   041000 020012
    004341  aa   000000 000003    2621  	dec 	3
                                  2622
                        002022    2623  	org	z+(16*(inner_product_max_code+1)+11)*3	LessOrEqual.AndSign
    004342  aa   400000 000000    2624  	vfd	18/operator_bead_type,18/0,18/dyadic+inner_product,9/16,9/11
    004343  aa   041000 020013
    004344  aa   000000 000003    2625  	dec 	3
                                  2626
                        002025    2627  	org	z+(16*(inner_product_max_code+1)+12)*3	LessOrEqual.OrSign
    004345  aa   400000 000000    2628  	vfd	18/operator_bead_type,18/0,18/dyadic+inner_product,9/16,9/12
    004346  aa   041000 020014
    004347  aa   000000 000003    2629  	dec 	3
                                  2630
                        002030    2631  	org	z+(16*(inner_product_max_code+1)+13)*3	LessOrEqual.NandSign
    004350  aa   400000 000000    2632  	vfd	18/operator_bead_type,18/0,18/dyadic+inner_product,9/16,9/13
    004351  aa   041000 020015
    004352  aa   000000 000003    2633  	dec 	3
                                  2634
                        002033    2635  	org	z+(16*(inner_product_max_code+1)+14)*3	LessOrEqual.NorSign
    004353  aa   400000 000000    2636  	vfd	18/operator_bead_type,18/0,18/dyadic+inner_product,9/16,9/14
    004354  aa   041000 020016
    004355  aa   000000 000003    2637  	dec 	3
                                  2638
                        002036    2639  	org	z+(16*(inner_product_max_code+1)+15)*3	LessOrEqual.LessThan
    004356  aa   400000 000000    2640  	vfd	18/operator_bead_type,18/0,18/dyadic+inner_product,9/16,9/15
    004357  aa   041000 020017
    004360  aa   000000 000003    2641  	dec 	3
                                  2642
                        002041    2643  	org	z+(16*(inner_product_max_code+1)+16)*3	LessOrEqual.LessOrEqual
    004361  aa   400000 000000    2644  	vfd	18/operator_bead_type,18/0,18/dyadic+inner_product,9/16,9/16
    004362  aa   041000 020020
    004363  aa   000000 000003    2645  	dec 	3
                                  2646
                        002044    2647  	org	z+(16*(inner_product_max_code+1)+17)*3	LessOrEqual.Equal
    004364  aa   400000 000000    2648  	vfd	18/operator_bead_type,18/0,18/dyadic+inner_product,9/16,9/17
    004365  aa   041000 020021
    004366  aa   000000 000003    2649  	dec 	3
                                  2650
                        002047    2651  	org	z+(16*(inner_product_max_code+1)+18)*3	LessOrEqual.GreaterOrEqual
    004367  aa   400000 000000    2652  	vfd	18/operator_bead_type,18/0,18/dyadic+inner_product,9/16,9/18
    004370  aa   041000 020022
    004371  aa   000000 000003    2653  	dec 	3
                                  2654
                        002052    2655  	org	z+(16*(inner_product_max_code+1)+19)*3	LessOrEqual.GreaterThan
    004372  aa   400000 000000    2656  	vfd	18/operator_bead_type,18/0,18/dyadic+inner_product,9/16,9/19
    004373  aa   041000 020023
    004374  aa   000000 000003    2657  	dec 	3
                                  2658
                        002055    2659  	org	z+(16*(inner_product_max_code+1)+20)*3	LessOrEqual.NotEqual
    004375  aa   400000 000000    2660  	vfd	18/operator_bead_type,18/0,18/dyadic+inner_product,9/16,9/20
    004376  aa   041000 020024
    004377  aa   000000 000003    2661  	dec 	3
                                  2662
                        002060    2663  	org	z+(17*(inner_product_max_code+1)+0)*3	Equal.Plus
    004400  aa   400000 000000    2664  	vfd	18/operator_bead_type,18/0,18/dyadic+inner_product,9/17,9/0
    004401  aa   041000 021000
    004402  aa   000000 000003    2665  	dec 	3
                                  2666
                        002063    2667  	org	z+(17*(inner_product_max_code+1)+1)*3	Equal.Minus
    004403  aa   400000 000000    2668  	vfd	18/operator_bead_type,18/0,18/dyadic+inner_product,9/17,9/1
    004404  aa   041000 021001
    004405  aa   000000 000003    2669  	dec 	3
                                  2670
                        002066    2671  	org	z+(17*(inner_product_max_code+1)+2)*3	Equal.Times
    004406  aa   400000 000000    2672  	vfd	18/operator_bead_type,18/0,18/dyadic+inner_product,9/17,9/2
    004407  aa   041000 021002
    004410  aa   000000 000003    2673  	dec 	3
                                  2674
                        002071    2675  	org	z+(17*(inner_product_max_code+1)+3)*3	Equal.Division
    004411  aa   400000 000000    2676  	vfd	18/operator_bead_type,18/0,18/dyadic+inner_product,9/17,9/3
    004412  aa   041000 021003
    004413  aa   000000 000003    2677  	dec 	3
                                  2678
                        002074    2679  	org	z+(17*(inner_product_max_code+1)+4)*3	Equal.Ceiling
    004414  aa   400000 000000    2680  	vfd	18/operator_bead_type,18/0,18/dyadic+inner_product,9/17,9/4
    004415  aa   041000 021004
    004416  aa   000000 000003    2681  	dec 	3
                                  2682
                        002077    2683  	org	z+(17*(inner_product_max_code+1)+5)*3	Equal.Floor
    004417  aa   400000 000000    2684  	vfd	18/operator_bead_type,18/0,18/dyadic+inner_product,9/17,9/5
    004420  aa   041000 021005
    004421  aa   000000 000003    2685  	dec 	3
                                  2686
                        002102    2687  	org	z+(17*(inner_product_max_code+1)+6)*3	Equal.Star
    004422  aa   400000 000000    2688  	vfd	18/operator_bead_type,18/0,18/dyadic+inner_product,9/17,9/6
    004423  aa   041000 021006
    004424  aa   000000 000003    2689  	dec 	3
                                  2690
                        002105    2691  	org	z+(17*(inner_product_max_code+1)+7)*3	Equal.CircleStar
    004425  aa   400000 000000    2692  	vfd	18/operator_bead_type,18/0,18/dyadic+inner_product,9/17,9/7
    004426  aa   041000 021007
    004427  aa   000000 000003    2693  	dec 	3
                                  2694
                        002110    2695  	org	z+(17*(inner_product_max_code+1)+8)*3	Equal.VerticalBar
    004430  aa   400000 000000    2696  	vfd	18/operator_bead_type,18/0,18/dyadic+inner_product,9/17,9/8
    004431  aa   041000 021010
    004432  aa   000000 000003    2697  	dec 	3
                                  2698
                        002113    2699  	org	z+(17*(inner_product_max_code+1)+9)*3	Equal.Exclamation
    004433  aa   400000 000000    2700  	vfd	18/operator_bead_type,18/0,18/dyadic+inner_product,9/17,9/9
    004434  aa   041000 021011
    004435  aa   000000 000003    2701  	dec 	3
                                  2702
                        002116    2703  	org	z+(17*(inner_product_max_code+1)+10)*3	Equal.Circle
    004436  aa   400000 000000    2704  	vfd	18/operator_bead_type,18/0,18/dyadic+inner_product,9/17,9/10
    004437  aa   041000 021012
    004440  aa   000000 000003    2705  	dec 	3
                                  2706
                        002121    2707  	org	z+(17*(inner_product_max_code+1)+11)*3	Equal.AndSign
    004441  aa   400000 000000    2708  	vfd	18/operator_bead_type,18/0,18/dyadic+inner_product,9/17,9/11
    004442  aa   041000 021013
    004443  aa   000000 000003    2709  	dec 	3
                                  2710
                        002124    2711  	org	z+(17*(inner_product_max_code+1)+12)*3	Equal.OrSign
    004444  aa   400000 000000    2712  	vfd	18/operator_bead_type,18/0,18/dyadic+inner_product,9/17,9/12
    004445  aa   041000 021014
    004446  aa   000000 000003    2713  	dec 	3
                                  2714
                        002127    2715  	org	z+(17*(inner_product_max_code+1)+13)*3	Equal.NandSign
    004447  aa   400000 000000    2716  	vfd	18/operator_bead_type,18/0,18/dyadic+inner_product,9/17,9/13
    004450  aa   041000 021015
    004451  aa   000000 000003    2717  	dec 	3
                                  2718
                        002132    2719  	org	z+(17*(inner_product_max_code+1)+14)*3	Equal.NorSign
    004452  aa   400000 000000    2720  	vfd	18/operator_bead_type,18/0,18/dyadic+inner_product,9/17,9/14
    004453  aa   041000 021016
    004454  aa   000000 000003    2721  	dec 	3
                                  2722
                        002135    2723  	org	z+(17*(inner_product_max_code+1)+15)*3	Equal.LessThan
    004455  aa   400000 000000    2724  	vfd	18/operator_bead_type,18/0,18/dyadic+inner_product,9/17,9/15
    004456  aa   041000 021017
    004457  aa   000000 000003    2725  	dec 	3
                                  2726
                        002140    2727  	org	z+(17*(inner_product_max_code+1)+16)*3	Equal.LessOrEqual
    004460  aa   400000 000000    2728  	vfd	18/operator_bead_type,18/0,18/dyadic+inner_product,9/17,9/16
    004461  aa   041000 021020
    004462  aa   000000 000003    2729  	dec 	3
                                  2730
                        002143    2731  	org	z+(17*(inner_product_max_code+1)+17)*3	Equal.Equal
    004463  aa   400000 000000    2732  	vfd	18/operator_bead_type,18/0,18/dyadic+inner_product,9/17,9/17
    004464  aa   041000 021021
    004465  aa   000000 000003    2733  	dec 	3
                                  2734
                        002146    2735  	org	z+(17*(inner_product_max_code+1)+18)*3	Equal.GreaterOrEqual
    004466  aa   400000 000000    2736  	vfd	18/operator_bead_type,18/0,18/dyadic+inner_product,9/17,9/18
    004467  aa   041000 021022
    004470  aa   000000 000003    2737  	dec 	3
                                  2738
                        002151    2739  	org	z+(17*(inner_product_max_code+1)+19)*3	Equal.GreaterThan
    004471  aa   400000 000000    2740  	vfd	18/operator_bead_type,18/0,18/dyadic+inner_product,9/17,9/19
    004472  aa   041000 021023
    004473  aa   000000 000003    2741  	dec 	3
                                  2742
                        002154    2743  	org	z+(17*(inner_product_max_code+1)+20)*3	Equal.NotEqual
    004474  aa   400000 000000    2744  	vfd	18/operator_bead_type,18/0,18/dyadic+inner_product,9/17,9/20
    004475  aa   041000 021024
    004476  aa   000000 000003    2745  	dec 	3
                                  2746
                        002157    2747  	org	z+(18*(inner_product_max_code+1)+0)*3	GreaterOrEqual.Plus
    004477  aa   400000 000000    2748  	vfd	18/operator_bead_type,18/0,18/dyadic+inner_product,9/18,9/0
    004500  aa   041000 022000
    004501  aa   000000 000003    2749  	dec 	3
                                  2750
                        002162    2751  	org	z+(18*(inner_product_max_code+1)+1)*3	GreaterOrEqual.Minus
    004502  aa   400000 000000    2752  	vfd	18/operator_bead_type,18/0,18/dyadic+inner_product,9/18,9/1
    004503  aa   041000 022001
    004504  aa   000000 000003    2753  	dec 	3
                                  2754
                        002165    2755  	org	z+(18*(inner_product_max_code+1)+2)*3	GreaterOrEqual.Times
    004505  aa   400000 000000    2756  	vfd	18/operator_bead_type,18/0,18/dyadic+inner_product,9/18,9/2
    004506  aa   041000 022002
    004507  aa   000000 000003    2757  	dec 	3
                                  2758
                        002170    2759  	org	z+(18*(inner_product_max_code+1)+3)*3	GreaterOrEqual.Division
    004510  aa   400000 000000    2760  	vfd	18/operator_bead_type,18/0,18/dyadic+inner_product,9/18,9/3
    004511  aa   041000 022003
    004512  aa   000000 000003    2761  	dec 	3
                                  2762
                        002173    2763  	org	z+(18*(inner_product_max_code+1)+4)*3	GreaterOrEqual.Ceiling
    004513  aa   400000 000000    2764  	vfd	18/operator_bead_type,18/0,18/dyadic+inner_product,9/18,9/4
    004514  aa   041000 022004
    004515  aa   000000 000003    2765  	dec 	3
                                  2766
                        002176    2767  	org	z+(18*(inner_product_max_code+1)+5)*3	GreaterOrEqual.Floor
    004516  aa   400000 000000    2768  	vfd	18/operator_bead_type,18/0,18/dyadic+inner_product,9/18,9/5
    004517  aa   041000 022005
    004520  aa   000000 000003    2769  	dec 	3
                                  2770
                        002201    2771  	org	z+(18*(inner_product_max_code+1)+6)*3	GreaterOrEqual.Star
    004521  aa   400000 000000    2772  	vfd	18/operator_bead_type,18/0,18/dyadic+inner_product,9/18,9/6
    004522  aa   041000 022006
    004523  aa   000000 000003    2773  	dec 	3
                                  2774
                        002204    2775  	org	z+(18*(inner_product_max_code+1)+7)*3	GreaterOrEqual.CircleStar
    004524  aa   400000 000000    2776  	vfd	18/operator_bead_type,18/0,18/dyadic+inner_product,9/18,9/7
    004525  aa   041000 022007
    004526  aa   000000 000003    2777  	dec 	3
                                  2778
                        002207    2779  	org	z+(18*(inner_product_max_code+1)+8)*3	GreaterOrEqual.VerticalBar
    004527  aa   400000 000000    2780  	vfd	18/operator_bead_type,18/0,18/dyadic+inner_product,9/18,9/8
    004530  aa   041000 022010
    004531  aa   000000 000003    2781  	dec 	3
                                  2782
                        002212    2783  	org	z+(18*(inner_product_max_code+1)+9)*3	GreaterOrEqual.Exclamation
    004532  aa   400000 000000    2784  	vfd	18/operator_bead_type,18/0,18/dyadic+inner_product,9/18,9/9
    004533  aa   041000 022011
    004534  aa   000000 000003    2785  	dec 	3
                                  2786
                        002215    2787  	org	z+(18*(inner_product_max_code+1)+10)*3	GreaterOrEqual.Circle
    004535  aa   400000 000000    2788  	vfd	18/operator_bead_type,18/0,18/dyadic+inner_product,9/18,9/10
    004536  aa   041000 022012
    004537  aa   000000 000003    2789  	dec 	3
                                  2790
                        002220    2791  	org	z+(18*(inner_product_max_code+1)+11)*3	GreaterOrEqual.AndSign
    004540  aa   400000 000000    2792  	vfd	18/operator_bead_type,18/0,18/dyadic+inner_product,9/18,9/11
    004541  aa   041000 022013
    004542  aa   000000 000003    2793  	dec 	3
                                  2794
                        002223    2795  	org	z+(18*(inner_product_max_code+1)+12)*3	GreaterOrEqual.OrSign
    004543  aa   400000 000000    2796  	vfd	18/operator_bead_type,18/0,18/dyadic+inner_product,9/18,9/12
    004544  aa   041000 022014
    004545  aa   000000 000003    2797  	dec 	3
                                  2798
                        002226    2799  	org	z+(18*(inner_product_max_code+1)+13)*3	GreaterOrEqual.NandSign
    004546  aa   400000 000000    2800  	vfd	18/operator_bead_type,18/0,18/dyadic+inner_product,9/18,9/13
    004547  aa   041000 022015
    004550  aa   000000 000003    2801  	dec 	3
                                  2802
                        002231    2803  	org	z+(18*(inner_product_max_code+1)+14)*3	GreaterOrEqual.NorSign
    004551  aa   400000 000000    2804  	vfd	18/operator_bead_type,18/0,18/dyadic+inner_product,9/18,9/14
    004552  aa   041000 022016
    004553  aa   000000 000003    2805  	dec 	3
                                  2806
                        002234    2807  	org	z+(18*(inner_product_max_code+1)+15)*3	GreaterOrEqual.LessThan
    004554  aa   400000 000000    2808  	vfd	18/operator_bead_type,18/0,18/dyadic+inner_product,9/18,9/15
    004555  aa   041000 022017
    004556  aa   000000 000003    2809  	dec 	3
                                  2810
                        002237    2811  	org	z+(18*(inner_product_max_code+1)+16)*3	GreaterOrEqual.LessOrEqual
    004557  aa   400000 000000    2812  	vfd	18/operator_bead_type,18/0,18/dyadic+inner_product,9/18,9/16
    004560  aa   041000 022020
    004561  aa   000000 000003    2813  	dec 	3
                                  2814
                        002242    2815  	org	z+(18*(inner_product_max_code+1)+17)*3	GreaterOrEqual.Equal
    004562  aa   400000 000000    2816  	vfd	18/operator_bead_type,18/0,18/dyadic+inner_product,9/18,9/17
    004563  aa   041000 022021
    004564  aa   000000 000003    2817  	dec 	3
                                  2818
                        002245    2819  	org	z+(18*(inner_product_max_code+1)+18)*3	GreaterOrEqual.GreaterOrEqual
    004565  aa   400000 000000    2820  	vfd	18/operator_bead_type,18/0,18/dyadic+inner_product,9/18,9/18
    004566  aa   041000 022022
    004567  aa   000000 000003    2821  	dec 	3
                                  2822
                        002250    2823  	org	z+(18*(inner_product_max_code+1)+19)*3	GreaterOrEqual.GreaterThan
    004570  aa   400000 000000    2824  	vfd	18/operator_bead_type,18/0,18/dyadic+inner_product,9/18,9/19
    004571  aa   041000 022023
    004572  aa   000000 000003    2825  	dec 	3
                                  2826
                        002253    2827  	org	z+(18*(inner_product_max_code+1)+20)*3	GreaterOrEqual.NotEqual
    004573  aa   400000 000000    2828  	vfd	18/operator_bead_type,18/0,18/dyadic+inner_product,9/18,9/20
    004574  aa   041000 022024
    004575  aa   000000 000003    2829  	dec 	3
                                  2830
                        002256    2831  	org	z+(19*(inner_product_max_code+1)+0)*3	GreaterThan.Plus
    004576  aa   400000 000000    2832  	vfd	18/operator_bead_type,18/0,18/dyadic+inner_product,9/19,9/0
    004577  aa   041000 023000
    004600  aa   000000 000003    2833  	dec 	3
                                  2834
                        002261    2835  	org	z+(19*(inner_product_max_code+1)+1)*3	GreaterThan.Minus
    004601  aa   400000 000000    2836  	vfd	18/operator_bead_type,18/0,18/dyadic+inner_product,9/19,9/1
    004602  aa   041000 023001
    004603  aa   000000 000003    2837  	dec 	3
                                  2838
                        002264    2839  	org	z+(19*(inner_product_max_code+1)+2)*3	GreaterThan.Times
    004604  aa   400000 000000    2840  	vfd	18/operator_bead_type,18/0,18/dyadic+inner_product,9/19,9/2
    004605  aa   041000 023002
    004606  aa   000000 000003    2841  	dec 	3
                                  2842
                        002267    2843  	org	z+(19*(inner_product_max_code+1)+3)*3	GreaterThan.Division
    004607  aa   400000 000000    2844  	vfd	18/operator_bead_type,18/0,18/dyadic+inner_product,9/19,9/3
    004610  aa   041000 023003
    004611  aa   000000 000003    2845  	dec 	3
                                  2846
                        002272    2847  	org	z+(19*(inner_product_max_code+1)+4)*3	GreaterThan.Ceiling
    004612  aa   400000 000000    2848  	vfd	18/operator_bead_type,18/0,18/dyadic+inner_product,9/19,9/4
    004613  aa   041000 023004
    004614  aa   000000 000003    2849  	dec 	3
                                  2850
                        002275    2851  	org	z+(19*(inner_product_max_code+1)+5)*3	GreaterThan.Floor
    004615  aa   400000 000000    2852  	vfd	18/operator_bead_type,18/0,18/dyadic+inner_product,9/19,9/5
    004616  aa   041000 023005
    004617  aa   000000 000003    2853  	dec 	3
                                  2854
                        002300    2855  	org	z+(19*(inner_product_max_code+1)+6)*3	GreaterThan.Star
    004620  aa   400000 000000    2856  	vfd	18/operator_bead_type,18/0,18/dyadic+inner_product,9/19,9/6
    004621  aa   041000 023006
    004622  aa   000000 000003    2857  	dec 	3
                                  2858
                        002303    2859  	org	z+(19*(inner_product_max_code+1)+7)*3	GreaterThan.CircleStar
    004623  aa   400000 000000    2860  	vfd	18/operator_bead_type,18/0,18/dyadic+inner_product,9/19,9/7
    004624  aa   041000 023007
    004625  aa   000000 000003    2861  	dec 	3
                                  2862
                        002306    2863  	org	z+(19*(inner_product_max_code+1)+8)*3	GreaterThan.VerticalBar
    004626  aa   400000 000000    2864  	vfd	18/operator_bead_type,18/0,18/dyadic+inner_product,9/19,9/8
    004627  aa   041000 023010
    004630  aa   000000 000003    2865  	dec 	3
                                  2866
                        002311    2867  	org	z+(19*(inner_product_max_code+1)+9)*3	GreaterThan.Exclamation
    004631  aa   400000 000000    2868  	vfd	18/operator_bead_type,18/0,18/dyadic+inner_product,9/19,9/9
    004632  aa   041000 023011
    004633  aa   000000 000003    2869  	dec 	3
                                  2870
                        002314    2871  	org	z+(19*(inner_product_max_code+1)+10)*3	GreaterThan.Circle
    004634  aa   400000 000000    2872  	vfd	18/operator_bead_type,18/0,18/dyadic+inner_product,9/19,9/10
    004635  aa   041000 023012
    004636  aa   000000 000003    2873  	dec 	3
                                  2874
                        002317    2875  	org	z+(19*(inner_product_max_code+1)+11)*3	GreaterThan.AndSign
    004637  aa   400000 000000    2876  	vfd	18/operator_bead_type,18/0,18/dyadic+inner_product,9/19,9/11
    004640  aa   041000 023013
    004641  aa   000000 000003    2877  	dec 	3
                                  2878
                        002322    2879  	org	z+(19*(inner_product_max_code+1)+12)*3	GreaterThan.OrSign
    004642  aa   400000 000000    2880  	vfd	18/operator_bead_type,18/0,18/dyadic+inner_product,9/19,9/12
    004643  aa   041000 023014
    004644  aa   000000 000003    2881  	dec 	3
                                  2882
                        002325    2883  	org	z+(19*(inner_product_max_code+1)+13)*3	GreaterThan.NandSign
    004645  aa   400000 000000    2884  	vfd	18/operator_bead_type,18/0,18/dyadic+inner_product,9/19,9/13
    004646  aa   041000 023015
    004647  aa   000000 000003    2885  	dec 	3
                                  2886
                        002330    2887  	org	z+(19*(inner_product_max_code+1)+14)*3	GreaterThan.NorSign
    004650  aa   400000 000000    2888  	vfd	18/operator_bead_type,18/0,18/dyadic+inner_product,9/19,9/14
    004651  aa   041000 023016
    004652  aa   000000 000003    2889  	dec 	3
                                  2890
                        002333    2891  	org	z+(19*(inner_product_max_code+1)+15)*3	GreaterThan.LessThan
    004653  aa   400000 000000    2892  	vfd	18/operator_bead_type,18/0,18/dyadic+inner_product,9/19,9/15
    004654  aa   041000 023017
    004655  aa   000000 000003    2893  	dec 	3
                                  2894
                        002336    2895  	org	z+(19*(inner_product_max_code+1)+16)*3	GreaterThan.LessOrEqual
    004656  aa   400000 000000    2896  	vfd	18/operator_bead_type,18/0,18/dyadic+inner_product,9/19,9/16
    004657  aa   041000 023020
    004660  aa   000000 000003    2897  	dec 	3
                                  2898
                        002341    2899  	org	z+(19*(inner_product_max_code+1)+17)*3	GreaterThan.Equal
    004661  aa   400000 000000    2900  	vfd	18/operator_bead_type,18/0,18/dyadic+inner_product,9/19,9/17
    004662  aa   041000 023021
    004663  aa   000000 000003    2901  	dec 	3
                                  2902
                        002344    2903  	org	z+(19*(inner_product_max_code+1)+18)*3	GreaterThan.GreaterOrEqual
    004664  aa   400000 000000    2904  	vfd	18/operator_bead_type,18/0,18/dyadic+inner_product,9/19,9/18
    004665  aa   041000 023022
    004666  aa   000000 000003    2905  	dec 	3
                                  2906
                        002347    2907  	org	z+(19*(inner_product_max_code+1)+19)*3	GreaterThan.GreaterThan
    004667  aa   400000 000000    2908  	vfd	18/operator_bead_type,18/0,18/dyadic+inner_product,9/19,9/19
    004670  aa   041000 023023
    004671  aa   000000 000003    2909  	dec 	3
                                  2910
                        002352    2911  	org	z+(19*(inner_product_max_code+1)+20)*3	GreaterThan.NotEqual
    004672  aa   400000 000000    2912  	vfd	18/operator_bead_type,18/0,18/dyadic+inner_product,9/19,9/20
    004673  aa   041000 023024
    004674  aa   000000 000003    2913  	dec 	3
                                  2914
                        002355    2915  	org	z+(20*(inner_product_max_code+1)+0)*3	NotEqual.Plus
    004675  aa   400000 000000    2916  	vfd	18/operator_bead_type,18/0,18/dyadic+inner_product,9/20,9/0
    004676  aa   041000 024000
    004677  aa   000000 000003    2917  	dec 	3
                                  2918
                        002360    2919  	org	z+(20*(inner_product_max_code+1)+1)*3	NotEqual.Minus
    004700  aa   400000 000000    2920  	vfd	18/operator_bead_type,18/0,18/dyadic+inner_product,9/20,9/1
    004701  aa   041000 024001
    004702  aa   000000 000003    2921  	dec 	3
                                  2922
                        002363    2923  	org	z+(20*(inner_product_max_code+1)+2)*3	NotEqual.Times
    004703  aa   400000 000000    2924  	vfd	18/operator_bead_type,18/0,18/dyadic+inner_product,9/20,9/2
    004704  aa   041000 024002
    004705  aa   000000 000003    2925  	dec 	3
                                  2926
                        002366    2927  	org	z+(20*(inner_product_max_code+1)+3)*3	NotEqual.Division
    004706  aa   400000 000000    2928  	vfd	18/operator_bead_type,18/0,18/dyadic+inner_product,9/20,9/3
    004707  aa   041000 024003
    004710  aa   000000 000003    2929  	dec 	3
                                  2930
                        002371    2931  	org	z+(20*(inner_product_max_code+1)+4)*3	NotEqual.Ceiling
    004711  aa   400000 000000    2932  	vfd	18/operator_bead_type,18/0,18/dyadic+inner_product,9/20,9/4
    004712  aa   041000 024004
    004713  aa   000000 000003    2933  	dec 	3
                                  2934
                        002374    2935  	org	z+(20*(inner_product_max_code+1)+5)*3	NotEqual.Floor
    004714  aa   400000 000000    2936  	vfd	18/operator_bead_type,18/0,18/dyadic+inner_product,9/20,9/5
    004715  aa   041000 024005
    004716  aa   000000 000003    2937  	dec 	3
                                  2938
                        002377    2939  	org	z+(20*(inner_product_max_code+1)+6)*3	NotEqual.Star
    004717  aa   400000 000000    2940  	vfd	18/operator_bead_type,18/0,18/dyadic+inner_product,9/20,9/6
    004720  aa   041000 024006
    004721  aa   000000 000003    2941  	dec 	3
                                  2942
                        002402    2943  	org	z+(20*(inner_product_max_code+1)+7)*3	NotEqual.CircleStar
    004722  aa   400000 000000    2944  	vfd	18/operator_bead_type,18/0,18/dyadic+inner_product,9/20,9/7
    004723  aa   041000 024007
    004724  aa   000000 000003    2945  	dec 	3
                                  2946
                        002405    2947  	org	z+(20*(inner_product_max_code+1)+8)*3	NotEqual.VerticalBar
    004725  aa   400000 000000    2948  	vfd	18/operator_bead_type,18/0,18/dyadic+inner_product,9/20,9/8
    004726  aa   041000 024010
    004727  aa   000000 000003    2949  	dec 	3
                                  2950
                        002410    2951  	org	z+(20*(inner_product_max_code+1)+9)*3	NotEqual.Exclamation
    004730  aa   400000 000000    2952  	vfd	18/operator_bead_type,18/0,18/dyadic+inner_product,9/20,9/9
    004731  aa   041000 024011
    004732  aa   000000 000003    2953  	dec 	3
                                  2954
                        002413    2955  	org	z+(20*(inner_product_max_code+1)+10)*3	NotEqual.Circle
    004733  aa   400000 000000    2956  	vfd	18/operator_bead_type,18/0,18/dyadic+inner_product,9/20,9/10
    004734  aa   041000 024012
    004735  aa   000000 000003    2957  	dec 	3
                                  2958
                        002416    2959  	org	z+(20*(inner_product_max_code+1)+11)*3	NotEqual.AndSign
    004736  aa   400000 000000    2960  	vfd	18/operator_bead_type,18/0,18/dyadic+inner_product,9/20,9/11
    004737  aa   041000 024013
    004740  aa   000000 000003    2961  	dec 	3
                                  2962
                        002421    2963  	org	z+(20*(inner_product_max_code+1)+12)*3	NotEqual.OrSign
    004741  aa   400000 000000    2964  	vfd	18/operator_bead_type,18/0,18/dyadic+inner_product,9/20,9/12
    004742  aa   041000 024014
    004743  aa   000000 000003    2965  	dec 	3
                                  2966
                        002424    2967  	org	z+(20*(inner_product_max_code+1)+13)*3	NotEqual.NandSign
    004744  aa   400000 000000    2968  	vfd	18/operator_bead_type,18/0,18/dyadic+inner_product,9/20,9/13
    004745  aa   041000 024015
    004746  aa   000000 000003    2969  	dec 	3
                                  2970
                        002427    2971  	org	z+(20*(inner_product_max_code+1)+14)*3	NotEqual.NorSign
    004747  aa   400000 000000    2972  	vfd	18/operator_bead_type,18/0,18/dyadic+inner_product,9/20,9/14
    004750  aa   041000 024016
    004751  aa   000000 000003    2973  	dec 	3
                                  2974
                        002432    2975  	org	z+(20*(inner_product_max_code+1)+15)*3	NotEqual.LessThan
    004752  aa   400000 000000    2976  	vfd	18/operator_bead_type,18/0,18/dyadic+inner_product,9/20,9/15
    004753  aa   041000 024017
    004754  aa   000000 000003    2977  	dec 	3
                                  2978
                        002435    2979  	org	z+(20*(inner_product_max_code+1)+16)*3	NotEqual.LessOrEqual
    004755  aa   400000 000000    2980  	vfd	18/operator_bead_type,18/0,18/dyadic+inner_product,9/20,9/16
    004756  aa   041000 024020
    004757  aa   000000 000003    2981  	dec 	3
                                  2982
                        002440    2983  	org	z+(20*(inner_product_max_code+1)+17)*3	NotEqual.Equal
    004760  aa   400000 000000    2984  	vfd	18/operator_bead_type,18/0,18/dyadic+inner_product,9/20,9/17
    004761  aa   041000 024021
    004762  aa   000000 000003    2985  	dec 	3
                                  2986
                        002443    2987  	org	z+(20*(inner_product_max_code+1)+18)*3	NotEqual.GreaterOrEqual
    004763  aa   400000 000000    2988  	vfd	18/operator_bead_type,18/0,18/dyadic+inner_product,9/20,9/18
    004764  aa   041000 024022
    004765  aa   000000 000003    2989  	dec 	3
                                  2990
                        002446    2991  	org	z+(20*(inner_product_max_code+1)+19)*3	NotEqual.GreaterThan
    004766  aa   400000 000000    2992  	vfd	18/operator_bead_type,18/0,18/dyadic+inner_product,9/20,9/19
    004767  aa   041000 024023
    004770  aa   000000 000003    2993  	dec 	3
                                  2994
                        002451    2995  	org	z+(20*(inner_product_max_code+1)+20)*3	NotEqual.NotEqual
    004771  aa   400000 000000    2996  	vfd	18/operator_bead_type,18/0,18/dyadic+inner_product,9/20,9/20
    004772  aa   041000 024024
    004773  aa   000000 000003    2997  	dec 	3
                                  2998
                                  2999
                                  3000
                                  3001
                                  3002  "" join the three parts of this data base and put them in the text section
                                  3003
                                  3004  	join	/text/op_index
                                  3005  	join	/text/op_bead_table
                                  3006  	join	/text/inner_prod_tbl
                                  3007
                                  3008  	end

NO LITERALS

NAME DEFINITIONS FOR ENTRY POINTS AND SEGDEFS

    004774  5a   000003 000000
    004775  5a   000052 600000
    004776  aa   000000 000000
    004777  55   000013 000002
    005000  5a   000002 400003
    005001  55   000006 000013
    005002  aa  023 141 160 154
    005003  aa  137 157 160 145
    005004  aa  162 141 164 157
    005005  aa  162 137 164 141
    005006  aa  142 154 145 137
    005007  55   000023 000003
    005010  0a   002320 400000
    005011  55   000016 000003
    005012  aa  023 151 156 156         inner_product_table
    005013  aa  145 162 137 160
    005014  aa  162 157 144 165
    005015  aa  143 164 137 164
    005016  aa  141 142 154 145
    005017  55   000033 000013
    005020  0a   001000 400000
    005021  55   000026 000003
    005022  aa  023 157 160 145         operator_bead_table
    005023  aa  162 141 164 157
    005024  aa  162 137 142 145
    005025  aa  141 144 137 164
    005026  aa  141 142 154 145
    005027  55   000043 000023
    005030  0a   000000 400000
    005031  55   000036 000003
    005032  aa  023 141 160 154         apl_operator_table_
    005033  aa  137 157 160 145
    005034  aa  162 141 164 157
    005035  aa  162 137 164 141
    005036  aa  142 154 145 137
    005037  55   000002 000033
    005040  6a   000000 400002
    005041  55   000046 000003
    005042  aa  014 163 171 155         symbol_table
    005043  aa  142 157 154 137
    005044  aa  164 141 142 154
    005045  aa  145 000 000 000

DEFINITIONS HASH TABLE

    005046  aa   000000 000015
    005047  5a   000023 000000
    005050  aa   000000 000000
    005051  aa   000000 000000
    005052  aa   000000 000000
    005053  aa   000000 000000
    005054  5a   000013 000000
    005055  5a   000043 000000
    005056  aa   000000 000000
    005057  5a   000033 000000
    005060  aa   000000 000000
    005061  aa   000000 000000
    005062  aa   000000 000000
    005063  aa   000000 000000

NO EXTERNAL NAMES

NO TRAP POINTER WORDS

TYPE PAIR BLOCKS

    005064  aa   000001 000000
    005065  aa   000000 000000

INTERNAL EXPRESSION WORDS

LINKAGE INFORMATION

    000000  aa   000000 000000
    000001  0a   004774 000000
    000002  aa   000000 000000
    000003  aa   000000 000000
    000004  aa   000000 000000
    000005  aa   000000 000000
    000006  22   000010 000010
    000007  a2   000000 000000
SYMBOL INFORMATION

SYMBOL TABLE HEADER

    000000  aa   000000 000001
    000001  aa   163171 155142
    000002  aa   164162 145145
    000003  aa   000000 000004
    000004  aa   000000 112143
    000005  aa   305203 523135
    000006  aa   000000 112272
    000007  aa   254475 261246
    000010  aa   141154 155040
    000011  aa   040040 040040
    000012  aa   000024 000040
    000013  aa   000034 000040
    000014  aa   000044 000100
    000015  aa   000002 000002
    000016  aa   000064 000000
    000017  aa   000000 000422
    000020  aa   000000 000166
    000021  aa   000000 000406
    000022  aa   000411 000166
    000023  aa   000064 000000
    000024  aa   101114 115040
    000025  aa   126145 162163
    000026  aa   151157 156040
    000027  aa   040066 056066
    000030  aa   040040 116157
    000031  aa   166145 155142
    000032  aa   145162 040061
    000033  aa   071070 062040
    000034  aa   115141 162164
    000035  aa   151156 163157
    000036  aa   156056 123171
    000037  aa   163115 141151
    000040  aa   156164 056155
    000041  aa   040040 040040
    000042  aa   040040 040040
    000043  aa   040040 040040
    000044  aa   154151 163164
    000045  aa   040040 040040
    000046  aa   040040 040040
    000047  aa   040040 040040
    000050  aa   040040 040040
    000051  aa   040040 040040
    000052  aa   040040 040040
    000053  aa   040040 040040
    000054  aa   040040 040040
    000055  aa   040040 040040
    000056  aa   040040 040040
    000057  aa   040040 040040
    000060  aa   040040 040040
    000061  aa   040040 040040
    000062  aa   040040 040040
    000063  aa   040040 040040
    000064  aa   000000 000001
    000065  aa   000000 000004
    000066  aa   000106 000060
    000067  aa   122721 262624
    000070  aa   000000 112272
    000071  aa   152201 600000
    000072  aa   000122 000054
    000073  aa   106701 742044
    000074  aa   000000 110670
    000075  aa   212342 400000
    000076  aa   000135 000051
    000077  aa   106701 742021
    000100  aa   000000 110670
    000101  aa   212226 000000
    000102  aa   000150 000066
    000103  aa   122721 262703
    000104  aa   000000 112272
    000105  aa   152556 000000
    000106  aa   076163 160145          >special_ldd>on>apl.1129>apl_operator_table_.alm
    000107  aa   143151 141154
    000110  aa   137154 144144
    000111  aa   076157 156076
    000112  aa   141160 154056
    000113  aa   061061 062071
    000114  aa   076141 160154
    000115  aa   137157 160145
    000116  aa   162141 164157
    000117  aa   162137 164141
    000120  aa   142154 145137
    000121  aa   056141 154155
    000122  aa   076154 144144          >ldd>include>apl_operator_bead_bits.incl.alm
    000123  aa   076151 156143
    000124  aa   154165 144145
    000125  aa   076141 160154
    000126  aa   137157 160145
    000127  aa   162141 164157
    000130  aa   162137 142145
    000131  aa   141144 137142
    000132  aa   151164 163056
    000133  aa   151156 143154
    000134  aa   056141 154155
    000135  aa   076154 144144          >ldd>include>apl_character_codes.incl.alm
    000136  aa   076151 156143
    000137  aa   154165 144145
    000140  aa   076141 160154
    000141  aa   137143 150141
    000142  aa   162141 143164
    000143  aa   145162 137143
    000144  aa   157144 145163
    000145  aa   056151 156143
    000146  aa   154056 141154
    000147  aa   155040 040040
    000150  aa   076163 160145          >special_ldd>on>apl.1129>apl_lex_pseudo_chars.incl.alm
    000151  aa   143151 141154
    000152  aa   137154 144144
    000153  aa   076157 156076
    000154  aa   141160 154056
    000155  aa   061061 062071
    000156  aa   076141 160154
    000157  aa   137154 145170
    000160  aa   137160 163145
    000161  aa   165144 157137
    000162  aa   143150 141162
    000163  aa   163056 151156
    000164  aa   143154 056141
    000165  aa   154155 040040
               MULTICS ASSEMBLY CROSS REFERENCE LISTING

   Value        Symbol                   Source file   Line number

        1501    .AndSign                 apl_operator_table_:      604,  606.
        1052    .AssignIgnore            apl_operator_table_:      273,  275.
        1047    .AssignSub               apl_operator_table_:      266,  268.
        2037    .BackSlash               apl_operator_table_:      842,  844.
        2061    .BackSlashHyphen         apl_operator_table_:      869,  871.
        1303    .Ceiling                 apl_operator_table_:      485,  487.
        1457    .Circle                  apl_operator_table_:      587,  589.
        2075    .CircleBackSlash         apl_operator_table_:      887,  889.
        2045    .CircleBar               apl_operator_table_:      851,  853.
        2067    .CircleHyphen            apl_operator_table_:      878,  880.
        1371    .CircleStar              apl_operator_table_:      536,  538.
        1770    .Comma                   apl_operator_table_:      781,  783.
        2307    .CommaHyphen             apl_operator_table_:     1204, 1206.
        2106    .DeCode                  apl_operator_table_:      903,  905.
        1033    .Diamond                 apl_operator_table_:      238,  240.
        1261    .Division                apl_operator_table_:      468,  470.
        2171    .Domino                  apl_operator_table_:     1022, 1024.
        2007    .DownArrow               apl_operator_table_:      806,  808.
        2111    .EnCode                  apl_operator_table_:      910,  912.
        2103    .Epsilon                 apl_operator_table_:      896,  898.
        1655    .Equal                   apl_operator_table_:      706,  708.
        1435    .Exclamation             apl_operator_table_:      570,  572.
        2114    .ExecuteSign             apl_operator_table_:      917,  919.
        1325    .Floor                   apl_operator_table_:      502,  504.
        2117    .FormatSign              apl_operator_table_:      924,  926.
        2023    .GradeDown               apl_operator_table_:      824,  826.
        2015    .GradeUp                 apl_operator_table_:      815,  817.
        1677    .GreaterOrEqual          apl_operator_table_:      723,  725.
        1721    .GreaterThan             apl_operator_table_:      740,  742.
        2122    .IBeam                   apl_operator_table_:      931,  933.
        1776    .Iota                    apl_operator_table_:      790,  792.
        1044    .LeftArrow               apl_operator_table_:      259,  261.
        1003    .LeftBracket             apl_operator_table_:      192,  194.
        1000    .LeftParen               apl_operator_table_:      185,  187.
        1633    .LessOrEqual             apl_operator_table_:      689,  691.
        1611    .LessThan                apl_operator_table_:      672,  674.
        1215    .Minus                   apl_operator_table_:      434,  436.
        1545    .NandSign                apl_operator_table_:      638,  640.
        1041    .NewLine                 apl_operator_table_:      252,  254.
        1567    .NorSign                 apl_operator_table_:      655,  657.
        1743    .NotEqual                apl_operator_table_:      757,  759.
        1523    .OrSign                  apl_operator_table_:      621,  623.
        1173    .Plus                    apl_operator_table_:      417,  419.
        1055    .Quad                    apl_operator_table_:      280,  282.
        2202    .QuadAF                  apl_operator_table_:     1043, 1045.
        1135    .QuadAI                  apl_operator_table_:      352,  354.
        2312    .QuadCALL                apl_operator_table_:     1211, 1213.
        2315    .QuadCALLSemicolon       apl_operator_table_:     1218, 1220.
        2133    .QuadCR                  apl_operator_table_:      952,  954.
        1162    .QuadCS                  apl_operator_table_:      401,  403.
        1071    .QuadCT                  apl_operator_table_:      298,  300.
        2152    .QuadDL                  apl_operator_table_:      987,  989.
        2177    .QuadEC                  apl_operator_table_:     1036, 1038.
        2141    .QuadEX                  apl_operator_table_:      966,  968.
        2210    .QuadFADDACL             apl_operator_table_:     1057, 1059.
        2213    .QuadFAPPEND             apl_operator_table_:     1064, 1066.
        2216    .QuadFCREATE             apl_operator_table_:     1071, 1073.
        2221    .QuadFDELETEACL          apl_operator_table_:     1078, 1080.
        2224    .QuadFDROP               apl_operator_table_:     1085, 1087.
        2227    .QuadFERASE              apl_operator_table_:     1092, 1094.
        2232    .QuadFHOLD               apl_operator_table_:     1099, 1101.
        2235    .QuadFLIB                apl_operator_table_:     1106, 1108.
        2240    .QuadFLIM                apl_operator_table_:     1113, 1115.
        2243    .QuadFLISTACL            apl_operator_table_:     1120, 1122.
        2246    .QuadFNAMES              apl_operator_table_:     1127, 1129.
        2251    .QuadFNUMS               apl_operator_table_:     1134, 1136.
        2254    .QuadFRDCI               apl_operator_table_:     1141, 1143.
        2257    .QuadFREAD               apl_operator_table_:     1148, 1150.
        2262    .QuadFRENAME             apl_operator_table_:     1155, 1157.
        2265    .QuadFREPLACE            apl_operator_table_:     1162, 1164.
        2270    .QuadFSETACL             apl_operator_table_:     1169, 1171.
        2273    .QuadFSIZE               apl_operator_table_:     1176, 1178.
        2276    .QuadFSTIE               apl_operator_table_:     1183, 1185.
        2301    .QuadFTIE                apl_operator_table_:     1190, 1192.
        2304    .QuadFUNTIE              apl_operator_table_:     1197, 1199.
        2136    .QuadFX                  apl_operator_table_:      959,  961.
        1077    .QuadIO                  apl_operator_table_:      307,  309.
        1165    .QuadIT                  apl_operator_table_:      408,  410.
        1140    .QuadLC                  apl_operator_table_:      359,  361.
        1105    .QuadLX                  apl_operator_table_:      316,  318.
        2147    .QuadNC                  apl_operator_table_:      980,  982.
        2144    .QuadNL                  apl_operator_table_:      973,  975.
        1113    .QuadPP                  apl_operator_table_:      325,  327.
        1121    .QuadPW                  apl_operator_table_:      334,  336.
        1063    .QuadQuote               apl_operator_table_:      289,  291.
        1127    .QuadRL                  apl_operator_table_:      343,  345.
        2160    .QuadSVC                 apl_operator_table_:     1001, 1003.
        2155    .QuadSVO                 apl_operator_table_:      994,  996.
        2163    .QuadSVQ                 apl_operator_table_:     1008, 1010.
        2174    .QuadSVR                 apl_operator_table_:     1029, 1031.
        1143    .QuadTS                  apl_operator_table_:      366,  368.
        1146    .QuadTT                  apl_operator_table_:      373,  375.
        1151    .QuadUL                  apl_operator_table_:      380,  382.
        1154    .QuadWA                  apl_operator_table_:      387,  389.
        1157    .QuadWU                  apl_operator_table_:      394,  396.
        2130    .Question                apl_operator_table_:      945,  947.
        1765    .Rho                     apl_operator_table_:      774,  776.
        2166    .RightArrow              apl_operator_table_:     1015, 1017.
        1011    .RightBracket            apl_operator_table_:      206,  208.
        1014    .RightOprBracket         apl_operator_table_:      213,  215.
        1006    .RightParen              apl_operator_table_:      199,  201.
        1017    .SDelta                  apl_operator_table_:      220,  222.
        1036    .SemiColon               apl_operator_table_:      245,  247.
        2205    .SemiColonCons           apl_operator_table_:     1050, 1052.
        2031    .Slash                   apl_operator_table_:      833,  835.
        2053    .SlashHyphen             apl_operator_table_:      860,  862.
        1347    .Star                    apl_operator_table_:      519,  521.
        1025    .TDelta                  apl_operator_table_:      229,  231.
        2125    .Tilde                   apl_operator_table_:      938,  940.
        1237    .Times                   apl_operator_table_:      451,  453.
        2001    .UpArrow                 apl_operator_table_:      797,  799.
        1413    .VerticalBar             apl_operator_table_:      553,  555.
      400000    allow_brackets           apl_operator_table_:      421,  423,  425,  427,  438,  440,  442,  444,  455,  457,
                                                                   459,  461,  472,  474,  476,  478,  489,  491,  493,  495,
                                                                   506,  508,  510,  512,  523,  525,  527,  529,  540,  542,
                                                                   544,  546,  557,  559,  561,  563,  574,  576,  578,  580,
                                                                   591,  593,  595,  597,  608,  610,  612,  614,  625,  627,
                                                                   629,  631,  642,  644,  646,  648,  659,  661,  663,  665,
                                                                   676,  678,  680,  682,  693,  695,  697,  699,  710,  712,
                                                                   714,  716,  727,  729,  731,  733,  744,  746,  748,  750,
                                                                   761,  763,  765,  767,  783,  799,  808,  817,  826,  835,
                                                                   844,  853,  862,  871,  880,  889, 1206,
                                         apl_operator_bead_bits:     9.
      200000    allow_product            apl_operator_table_:      419,  436,  453,  470,  487,  504,  521,  538,  555,  572,
                                                                   589,  606,  623,  640,  657,  674,  691,  708,  725,  742,
                                                                   759,
                                         apl_operator_bead_bits:    10.
      100000    allow_reduction          apl_operator_table_:      419,  436,  453,  470,  487,  504,  521,  538,  555,  572,
                                                                   589,  606,  623,  640,  657,  674,  691,  708,  725,  742,
                                                                   759,
                                         apl_operator_bead_bits:    11.
       10000    allow_subscripted_assignment   apl_operator_bead_bits:    14.
         252    Alpha                    apl_character_codes:      147.
         204    AndSign                  apl_operator_table_:      603,
                                         apl_character_codes:      109.
           0    apl_operator_table_      apl_operator_table_:      148,  150.
          47    Apostrophe               apl_character_codes:       17.
         332    AssignIgnore             apl_operator_table_:      272,
                                         apl_lex_pseudo_chars:      34.
         331    AssignSub                apl_operator_table_:      265,
                                         apl_lex_pseudo_chars:      33.
         134    BackSlash                apl_operator_table_:      841,
                                         apl_character_codes:       69.
         243    BackSlashHyphen          apl_operator_table_:      868,
                                         apl_character_codes:      140.
          10    BackSpace                apl_character_codes:       11.
           7    Bell                     apl_character_codes:       10.
         217    Cap                      apl_character_codes:      120.
         212    Ceiling                  apl_operator_table_:      484,
                                         apl_character_codes:      115.
         302    CentSign                 apl_character_codes:      171.
         211    Circle                   apl_operator_table_:      586,
                                         apl_character_codes:      114.
         234    CircleBackSlash          apl_operator_table_:      886,
                                         apl_character_codes:      133.
         233    CircleBar                apl_operator_table_:      850,
                                         apl_character_codes:      132.
         227    CircleHyphen             apl_operator_table_:      877,
                                         apl_character_codes:      128.
         235    CircleSlash              apl_character_codes:      134.
         232    CircleStar               apl_operator_table_:      535,
                                         apl_character_codes:      131.
          72    Colon                    apl_character_codes:       36.
          54    Comma                    apl_operator_table_:      780,
                                         apl_character_codes:       22.
         303    CommaHyphen              apl_operator_table_:     1203,
                                         apl_character_codes:      172.
         301    ConditionalNewLine       apl_character_codes:      170.
         224    Cup                      apl_character_codes:      125.
         220    DeCode                   apl_operator_table_:      902,
                                         apl_character_codes:      121.
         254    Del                      apl_character_codes:      149.
         214    Delta                    apl_character_codes:      117.
         272    Delta_                   apl_character_codes:      163.
         231    DelTilde                 apl_character_codes:      130.
         257    Diamond                  apl_operator_table_:      237,
                                         apl_character_codes:      152.
         245    Diaresis                 apl_character_codes:      142.
         205    Division                 apl_operator_table_:      467,
                                         apl_character_codes:      110.
          44    Dollar                   apl_character_codes:       16.
         244    Domino                   apl_operator_table_:     1021,
                                         apl_character_codes:      141.
         210    DownArrow                apl_operator_table_:      805,
                                         apl_character_codes:      113.
       40000    dyadic                   apl_operator_table_:      261,  268,  419,  429,  436,  446,  453,  463,  470,  480,
                                                                   487,  497,  504,  514,  521,  531,  538,  548,  555,  565,
                                                                   572,  582,  589,  599,  606,  616,  623,  633,  640,  650,
                                                                   657,  667,  674,  684,  691,  701,  708,  718,  725,  735,
                                                                   742,  752,  759,  769,  776,  783,  785,  792,  799,  801,
                                                                   808,  810,  835,  837,  844,  846,  853,  855,  862,  864,
                                                                   871,  873,  880,  882,  889,  891,  898,  905,  912,  926,
                                                                   933,  947,  975,  996, 1003, 1024, 1052, 1059, 1066, 1073,
                                                                  1080, 1094, 1157, 1164, 1171, 1185, 1192, 1206, 1220, 1236,
                                                                  1240, 1244, 1248, 1252, 1256, 1260, 1264, 1268, 1272, 1276,
                                                                  1280, 1284, 1288, 1292, 1296, 1300, 1304, 1308, 1312, 1316,
                                                                  1320, 1324, 1328, 1332, 1336, 1340, 1344, 1348, 1352, 1356,
                                                                  1360, 1364, 1368, 1372, 1376, 1380, 1384, 1388, 1392, 1396,
                                                                  1400, 1404, 1408, 1412, 1416, 1420, 1424, 1428, 1432, 1436,
                                                                  1440, 1444, 1448, 1452, 1456, 1460, 1464, 1468, 1472, 1476,
                                                                  1480, 1484, 1488, 1492, 1496, 1500, 1504, 1508, 1512, 1516,
                                                                  1520, 1524, 1528, 1532, 1536, 1540, 1544, 1548, 1552, 1556,
                                                                  1560, 1564, 1568, 1572, 1576, 1580, 1584, 1588, 1592, 1596,
                                                                  1600, 1604, 1608, 1612, 1616, 1620, 1624, 1628, 1632, 1636,
                                                                  1640, 1644, 1648, 1652, 1656, 1660, 1664, 1668, 1672, 1676,
                                                                  1680, 1684, 1688, 1692, 1696, 1700, 1704, 1708, 1712, 1716,
                                                                  1720, 1724, 1728, 1732, 1736, 1740, 1744, 1748, 1752, 1756,
                                                                  1760, 1764, 1768, 1772, 1776, 1780, 1784, 1788, 1792, 1796,
                                                                  1800, 1804, 1808, 1812, 1816, 1820, 1824, 1828, 1832, 1836,
                                                                  1840, 1844, 1848, 1852, 1856, 1860, 1864, 1868, 1872, 1876,
                                                                  1880, 1884, 1888, 1892, 1896, 1900, 1904, 1908, 1912, 1916,
                                                                  1920, 1924, 1928, 1932, 1936, 1940, 1944, 1948, 1952, 1956,
                                                                  1960, 1964, 1968, 1972, 1976, 1980, 1984, 1988, 1992, 1996,
                                                                  2000, 2004, 2008, 2012, 2016, 2020, 2024, 2028, 2032, 2036,
                                                                  2040, 2044, 2048, 2052, 2056, 2060, 2064, 2068, 2072, 2076,
                                                                  2080, 2084, 2088, 2092, 2096, 2100, 2104, 2108, 2112, 2116,
                                                                  2120, 2124, 2128, 2132, 2136, 2140, 2144, 2148, 2152, 2156,
                                                                  2160, 2164, 2168, 2172, 2176, 2180, 2184, 2188, 2192, 2196,
                                                                  2200, 2204, 2208, 2212, 2216, 2220, 2224, 2228, 2232, 2236,
                                                                  2240, 2244, 2248, 2252, 2256, 2260, 2264, 2268, 2272, 2276,
                                                                  2280, 2284, 2288, 2292, 2296, 2300, 2304, 2308, 2312, 2316,
                                                                  2320, 2324, 2328, 2332, 2336, 2340, 2344, 2348, 2352, 2356,
                                                                  2360, 2364, 2368, 2372, 2376, 2380, 2384, 2388, 2392, 2396,
                                                                  2400, 2404, 2408, 2412, 2416, 2420, 2424, 2428, 2432, 2436,
                                                                  2440, 2444, 2448, 2452, 2456, 2460, 2464, 2468, 2472, 2476,
                                                                  2480, 2484, 2488, 2492, 2496, 2500, 2504, 2508, 2512, 2516,
                                                                  2520, 2524, 2528, 2532, 2536, 2540, 2544, 2548, 2552, 2556,
                                                                  2560, 2564, 2568, 2572, 2576, 2580, 2584, 2588, 2592, 2596,
                                                                  2600, 2604, 2608, 2612, 2616, 2620, 2624, 2628, 2632, 2636,
                                                                  2640, 2644, 2648, 2652, 2656, 2660, 2664, 2668, 2672, 2676,
                                                                  2680, 2684, 2688, 2692, 2696, 2700, 2704, 2708, 2712, 2716,
                                                                  2720, 2724, 2728, 2732, 2736, 2740, 2744, 2748, 2752, 2756,
                                                                  2760, 2764, 2768, 2772, 2776, 2780, 2784, 2788, 2792, 2796,
                                                                  2800, 2804, 2808, 2812, 2816, 2820, 2824, 2828, 2832, 2836,
                                                                  2840, 2844, 2848, 2852, 2856, 2860, 2864, 2868, 2872, 2876,
                                                                  2880, 2884, 2888, 2892, 2896, 2900, 2904, 2908, 2912, 2916,
                                                                  2920, 2924, 2928, 2932, 2936, 2940, 2944, 2948, 2952, 2956,
                                                                  2960, 2964, 2968, 2972, 2976, 2980, 2984, 2988, 2992, 2996,
                                         apl_operator_bead_bits:    20.
          70    Eight                    apl_character_codes:       34.
         270    Eight_                   apl_character_codes:      161.
         221    EnCode                   apl_operator_table_:      909,
                                         apl_character_codes:      122.
         206    Epsilon                  apl_operator_table_:      895,
                                         apl_character_codes:      111.
          75    Equal                    apl_operator_table_:      705,
                                         apl_character_codes:       39.
          41    Exclamation              apl_operator_table_:      569,
                                         apl_character_codes:       15.
         274    ExecuteSign              apl_operator_table_:      916,
                                         apl_character_codes:      165.
          65    Five                     apl_character_codes:       31.
         265    Five_                    apl_character_codes:      158.
         213    Floor                    apl_operator_table_:      501,
                                         apl_character_codes:      116.
         275    FormatSign               apl_operator_table_:      923,
                                         apl_character_codes:      166.
          64    Four                     apl_character_codes:       30.
         264    Four_                    apl_character_codes:      157.
         236    GradeDown                apl_operator_table_:      823,
                                         apl_character_codes:      135.
         237    GradeUp                  apl_operator_table_:      814,
                                         apl_character_codes:      136.
         201    GreaterOrEqual           apl_operator_table_:      722,
                                         apl_character_codes:      106.
          76    GreaterThan              apl_operator_table_:      739,
                                         apl_character_codes:       40.
         242    IBeam                    apl_operator_table_:      930,
                                         apl_character_codes:      139.
       20000    ignores_assignment       apl_operator_table_:      354,  361,  368,  375,  382,  389,  396,  403, 1129, 1136,
                                         apl_operator_bead_bits:    13.
        1000    inner_product            apl_operator_table_:     1236, 1240, 1244, 1248, 1252, 1256, 1260, 1264, 1268, 1272,
                                                                  1276, 1280, 1284, 1288, 1292, 1296, 1300, 1304, 1308, 1312,
                                                                  1316, 1320, 1324, 1328, 1332, 1336, 1340, 1344, 1348, 1352,
                                                                  1356, 1360, 1364, 1368, 1372, 1376, 1380, 1384, 1388, 1392,
                                                                  1396, 1400, 1404, 1408, 1412, 1416, 1420, 1424, 1428, 1432,
                                                                  1436, 1440, 1444, 1448, 1452, 1456, 1460, 1464, 1468, 1472,
                                                                  1476, 1480, 1484, 1488, 1492, 1496, 1500, 1504, 1508, 1512,
                                                                  1516, 1520, 1524, 1528, 1532, 1536, 1540, 1544, 1548, 1552,
                                                                  1556, 1560, 1564, 1568, 1572, 1576, 1580, 1584, 1588, 1592,
                                                                  1596, 1600, 1604, 1608, 1612, 1616, 1620, 1624, 1628, 1632,
                                                                  1636, 1640, 1644, 1648, 1652, 1656, 1660, 1664, 1668, 1672,
                                                                  1676, 1680, 1684, 1688, 1692, 1696, 1700, 1704, 1708, 1712,
                                                                  1716, 1720, 1724, 1728, 1732, 1736, 1740, 1744, 1748, 1752,
                                                                  1756, 1760, 1764, 1768, 1772, 1776, 1780, 1784, 1788, 1792,
                                                                  1796, 1800, 1804, 1808, 1812, 1816, 1820, 1824, 1828, 1832,
                                                                  1836, 1840, 1844, 1848, 1852, 1856, 1860, 1864, 1868, 1872,
                                                                  1876, 1880, 1884, 1888, 1892, 1896, 1900, 1904, 1908, 1912,
                                                                  1916, 1920, 1924, 1928, 1932, 1936, 1940, 1944, 1948, 1952,
                                                                  1956, 1960, 1964, 1968, 1972, 1976, 1980, 1984, 1988, 1992,
                                                                  1996, 2000, 2004, 2008, 2012, 2016, 2020, 2024, 2028, 2032,
                                                                  2036, 2040, 2044, 2048, 2052, 2056, 2060, 2064, 2068, 2072,
                                                                  2076, 2080, 2084, 2088, 2092, 2096, 2100, 2104, 2108, 2112,
                                                                  2116, 2120, 2124, 2128, 2132, 2136, 2140, 2144, 2148, 2152,
                                                                  2156, 2160, 2164, 2168, 2172, 2176, 2180, 2184, 2188, 2192,
                                                                  2196, 2200, 2204, 2208, 2212, 2216, 2220, 2224, 2228, 2232,
                                                                  2236, 2240, 2244, 2248, 2252, 2256, 2260, 2264, 2268, 2272,
                                                                  2276, 2280, 2284, 2288, 2292, 2296, 2300, 2304, 2308, 2312,
                                                                  2316, 2320, 2324, 2328, 2332, 2336, 2340, 2344, 2348, 2352,
                                                                  2356, 2360, 2364, 2368, 2372, 2376, 2380, 2384, 2388, 2392,
                                                                  2396, 2400, 2404, 2408, 2412, 2416, 2420, 2424, 2428, 2432,
                                                                  2436, 2440, 2444, 2448, 2452, 2456, 2460, 2464, 2468, 2472,
                                                                  2476, 2480, 2484, 2488, 2492, 2496, 2500, 2504, 2508, 2512,
                                                                  2516, 2520, 2524, 2528, 2532, 2536, 2540, 2544, 2548, 2552,
                                                                  2556, 2560, 2564, 2568, 2572, 2576, 2580, 2584, 2588, 2592,
                                                                  2596, 2600, 2604, 2608, 2612, 2616, 2620, 2624, 2628, 2632,
                                                                  2636, 2640, 2644, 2648, 2652, 2656, 2660, 2664, 2668, 2672,
                                                                  2676, 2680, 2684, 2688, 2692, 2696, 2700, 2704, 2708, 2712,
                                                                  2716, 2720, 2724, 2728, 2732, 2736, 2740, 2744, 2748, 2752,
                                                                  2756, 2760, 2764, 2768, 2772, 2776, 2780, 2784, 2788, 2792,
                                                                  2796, 2800, 2804, 2808, 2812, 2816, 2820, 2824, 2828, 2832,
                                                                  2836, 2840, 2844, 2848, 2852, 2856, 2860, 2864, 2868, 2872,
                                                                  2876, 2880, 2884, 2888, 2892, 2896, 2900, 2904, 2908, 2912,
                                                                  2916, 2920, 2924, 2928, 2932, 2936, 2940, 2944, 2948, 2952,
                                                                  2956, 2960, 2964, 2968, 2972, 2976, 2980, 2984, 2988, 2992,
                                                                  2996,
                                         apl_operator_bead_bits:    22.
          24    inner_product_max_code   apl_operator_table_:      169, 1228, 1235, 1239, 1243, 1247, 1251, 1255, 1259, 1263,
                                                                  1267, 1271, 1275, 1279, 1283, 1287, 1291, 1295, 1299, 1303,
                                                                  1307, 1311, 1315, 1319, 1323, 1327, 1331, 1335, 1339, 1343,
                                                                  1347, 1351, 1355, 1359, 1363, 1367, 1371, 1375, 1379, 1383,
                                                                  1387, 1391, 1395, 1399, 1403, 1407, 1411, 1415, 1419, 1423,
                                                                  1427, 1431, 1435, 1439, 1443, 1447, 1451, 1455, 1459, 1463,
                                                                  1467, 1471, 1475, 1479, 1483, 1487, 1491, 1495, 1499, 1503,
                                                                  1507, 1511, 1515, 1519, 1523, 1527, 1531, 1535, 1539, 1543,
                                                                  1547, 1551, 1555, 1559, 1563, 1567, 1571, 1575, 1579, 1583,
                                                                  1587, 1591, 1595, 1599, 1603, 1607, 1611, 1615, 1619, 1623,
                                                                  1627, 1631, 1635, 1639, 1643, 1647, 1651, 1655, 1659, 1663,
                                                                  1667, 1671, 1675, 1679, 1683, 1687, 1691, 1695, 1699, 1703,
                                                                  1707, 1711, 1715, 1719, 1723, 1727, 1731, 1735, 1739, 1743,
                                                                  1747, 1751, 1755, 1759, 1763, 1767, 1771, 1775, 1779, 1783,
                                                                  1787, 1791, 1795, 1799, 1803, 1807, 1811, 1815, 1819, 1823,
                                                                  1827, 1831, 1835, 1839, 1843, 1847, 1851, 1855, 1859, 1863,
                                                                  1867, 1871, 1875, 1879, 1883, 1887, 1891, 1895, 1899, 1903,
                                                                  1907, 1911, 1915, 1919, 1923, 1927, 1931, 1935, 1939, 1943,
                                                                  1947, 1951, 1955, 1959, 1963, 1967, 1971, 1975, 1979, 1983,
                                                                  1987, 1991, 1995, 1999, 2003, 2007, 2011, 2015, 2019, 2023,
                                                                  2027, 2031, 2035, 2039, 2043, 2047, 2051, 2055, 2059, 2063,
                                                                  2067, 2071, 2075, 2079, 2083, 2087, 2091, 2095, 2099, 2103,
                                                                  2107, 2111, 2115, 2119, 2123, 2127, 2131, 2135, 2139, 2143,
                                                                  2147, 2151, 2155, 2159, 2163, 2167, 2171, 2175, 2179, 2183,
                                                                  2187, 2191, 2195, 2199, 2203, 2207, 2211, 2215, 2219, 2223,
                                                                  2227, 2231, 2235, 2239, 2243, 2247, 2251, 2255, 2259, 2263,
                                                                  2267, 2271, 2275, 2279, 2283, 2287, 2291, 2295, 2299, 2303,
                                                                  2307, 2311, 2315, 2319, 2323, 2327, 2331, 2335, 2339, 2343,
                                                                  2347, 2351, 2355, 2359, 2363, 2367, 2371, 2375, 2379, 2383,
                                                                  2387, 2391, 2395, 2399, 2403, 2407, 2411, 2415, 2419, 2423,
                                                                  2427, 2431, 2435, 2439, 2443, 2447, 2451, 2455, 2459, 2463,
                                                                  2467, 2471, 2475, 2479, 2483, 2487, 2491, 2495, 2499, 2503,
                                                                  2507, 2511, 2515, 2519, 2523, 2527, 2531, 2535, 2539, 2543,
                                                                  2547, 2551, 2555, 2559, 2563, 2567, 2571, 2575, 2579, 2583,
                                                                  2587, 2591, 2595, 2599, 2603, 2607, 2611, 2615, 2619, 2623,
                                                                  2627, 2631, 2635, 2639, 2643, 2647, 2651, 2655, 2659, 2663,
                                                                  2667, 2671, 2675, 2679, 2683, 2687, 2691, 2695, 2699, 2703,
                                                                  2707, 2711, 2715, 2719, 2723, 2727, 2731, 2735, 2739, 2743,
                                                                  2747, 2751, 2755, 2759, 2763, 2767, 2771, 2775, 2779, 2783,
                                                                  2787, 2791, 2795, 2799, 2803, 2807, 2811, 2815, 2819, 2823,
                                                                  2827, 2831, 2835, 2839, 2843, 2847, 2851, 2855, 2859, 2863,
                                                                  2867, 2871, 2875, 2879, 2883, 2887, 2891, 2895, 2899, 2903,
                                                                  2907, 2911, 2915, 2919, 2923, 2927, 2931, 2935, 2939, 2943,
                                                                  2947, 2951, 2955, 2959, 2963, 2967, 2971, 2975, 2979, 2983,
                                                                  2987, 2991, 2995.
        2320    inner_product_table      apl_operator_table_:      166,  167, 1232.
        2320    inner_prod_tbl           apl_operator_table_:      164, 1230, 3006.
         247    Iota                     apl_operator_table_:      789,
                                         apl_character_codes:      144.
         240    Lamp                     apl_character_codes:      137.
         255    LeftArrow                apl_operator_table_:      258,
                                         apl_character_codes:      150.
         173    LeftBrace                apl_character_codes:       98.
         133    LeftBracket              apl_operator_table_:      191,
                                         apl_character_codes:       68.
         222    LeftLump                 apl_character_codes:      123.
          50    LeftParen                apl_operator_table_:      184,
                                         apl_character_codes:       18.
         276    LeftTack                 apl_character_codes:      167.
         200    LessOrEqual              apl_operator_table_:      688,
                                         apl_character_codes:      105.
          74    LessThan                 apl_operator_table_:      671,
                                         apl_character_codes:       38.
         141    LetterA                  apl_character_codes:       72.
         101    LetterA_                 apl_character_codes:       42.
         142    LetterB                  apl_character_codes:       73.
         102    LetterB_                 apl_character_codes:       43.
         143    LetterC                  apl_character_codes:       74.
         103    LetterC_                 apl_character_codes:       44.
         144    LetterD                  apl_character_codes:       75.
         104    LetterD_                 apl_character_codes:       45.
         145    LetterE                  apl_character_codes:       76.
         105    LetterE_                 apl_character_codes:       46.
         146    LetterF                  apl_character_codes:       77.
         106    LetterF_                 apl_character_codes:       47.
         147    LetterG                  apl_character_codes:       78.
         107    LetterG_                 apl_character_codes:       48.
         150    LetterH                  apl_character_codes:       79.
         110    LetterH_                 apl_character_codes:       49.
         151    LetterI                  apl_character_codes:       80.
         111    LetterI_                 apl_character_codes:       50.
         152    LetterJ                  apl_character_codes:       81.
         112    LetterJ_                 apl_character_codes:       51.
         153    LetterK                  apl_character_codes:       82.
         113    LetterK_                 apl_character_codes:       52.
         154    LetterL                  apl_character_codes:       83.
         114    LetterL_                 apl_character_codes:       53.
         155    LetterM                  apl_character_codes:       84.
         115    LetterM_                 apl_character_codes:       54.
         156    LetterN                  apl_character_codes:       85.
         116    LetterN_                 apl_character_codes:       55.
         157    LetterO                  apl_character_codes:       86.
         117    LetterO_                 apl_character_codes:       56.
         160    LetterP                  apl_character_codes:       87.
         120    LetterP_                 apl_character_codes:       57.
         161    LetterQ                  apl_character_codes:       88.
         121    LetterQ_                 apl_character_codes:       58.
         162    LetterR                  apl_character_codes:       89.
         122    LetterR_                 apl_character_codes:       59.
         163    LetterS                  apl_character_codes:       90.
         123    LetterS_                 apl_character_codes:       60.
         164    LetterT                  apl_character_codes:       91.
         124    LetterT_                 apl_character_codes:       61.
         165    LetterU                  apl_character_codes:       92.
         125    LetterU_                 apl_character_codes:       62.
         166    LetterV                  apl_character_codes:       93.
         126    LetterV_                 apl_character_codes:       63.
         167    LetterW                  apl_character_codes:       94.
         127    LetterW_                 apl_character_codes:       64.
         170    LetterX                  apl_character_codes:       95.
         130    LetterX_                 apl_character_codes:       65.
         171    LetterY                  apl_character_codes:       96.
         131    LetterY_                 apl_character_codes:       66.
         172    LetterZ                  apl_character_codes:       97.
         132    LetterZ_                 apl_character_codes:       67.
         300    LineFeed                 apl_character_codes:      169.
         273    MarkError                apl_character_codes:      164.
          55    Minus                    apl_operator_table_:      433,
                                         apl_character_codes:       23.
       20000    monadic                  apl_operator_table_:      224,  233,  275,  284,  293,  302,  311,  320,  329,  338,
                                                                   347,  412,  419,  421,  423,  425,  427,  436,  438,  440,
                                                                   442,  444,  453,  455,  457,  459,  461,  470,  472,  474,
                                                                   476,  478,  487,  489,  491,  493,  495,  504,  506,  508,
                                                                   510,  512,  521,  523,  525,  527,  529,  538,  540,  542,
                                                                   544,  546,  555,  557,  559,  561,  563,  572,  574,  576,
                                                                   578,  580,  589,  591,  593,  595,  597,  608,  610,  612,
                                                                   614,  625,  627,  629,  631,  642,  644,  646,  648,  659,
                                                                   661,  663,  665,  676,  678,  680,  682,  693,  695,  697,
                                                                   699,  708,  710,  712,  714,  716,  727,  729,  731,  733,
                                                                   744,  746,  748,  750,  759,  761,  763,  765,  767,  776,
                                                                   783,  785,  792,  817,  819,  826,  828,  853,  855,  880,
                                                                   882,  889,  891,  919,  926,  933,  940,  947,  954,  961,
                                                                   968,  975,  982,  989,  996, 1003, 1010, 1017, 1024, 1031,
                                                                  1038, 1045, 1087, 1101, 1108, 1115, 1122, 1143, 1150, 1178,
                                                                  1199, 1213,
                                         apl_operator_bead_bits:    21.
         226    NandSign                 apl_operator_table_:      637,
                                         apl_character_codes:      127.
          12    NewLine                  apl_operator_table_:      251,
                                         apl_character_codes:       13.
          71    Nine                     apl_character_codes:       35.
         271    Nine_                    apl_character_codes:      162.
         225    NorSign                  apl_operator_table_:      654,
                                         apl_character_codes:      126.
         202    NotEqual                 apl_operator_table_:      756,
                                         apl_character_codes:      107.
         246    Omega                    apl_character_codes:      143.
          61    One                      apl_character_codes:       27.
         261    One_                     apl_character_codes:      154.
        1000    operator_bead_table      apl_operator_table_:      158,  159,  185,  192,  199,  206,  213,  220,  229,  238,
                                                                   245,  252,  259,  266,  273,  280,  289,  298,  307,  316,
                                                                   325,  334,  343,  352,  359,  366,  373,  380,  387,  394,
                                                                   401,  408,  417,  434,  451,  468,  485,  502,  519,  536,
                                                                   553,  570,  587,  604,  621,  638,  655,  672,  689,  706,
                                                                   723,  740,  757,  774,  781,  790,  797,  806,  815,  824,
                                                                   833,  842,  851,  860,  869,  878,  887,  896,  903,  910,
                                                                   917,  924,  931,  938,  945,  952,  959,  966,  973,  980,
                                                                   987,  994, 1001, 1008, 1015, 1022, 1029, 1036, 1043, 1050,
                                                                  1057, 1064, 1071, 1078, 1085, 1092, 1099, 1106, 1113, 1120,
                                                                  1127, 1134, 1141, 1148, 1155, 1162, 1169, 1176, 1183, 1190,
                                                                  1197, 1204, 1211, 1218.
      400000    operator_bead_type       apl_operator_table_:      187,  194,  201,  208,  215,  222,  224,  231,  233,  240,
                                                                   247,  254,  261,  268,  275,  282,  284,  291,  293,  300,
                                                                   302,  309,  311,  318,  320,  327,  329,  336,  338,  345,
                                                                   347,  354,  361,  368,  375,  382,  389,  396,  403,  410,
                                                                   412,  419,  421,  423,  425,  427,  429,  436,  438,  440,
                                                                   442,  444,  446,  453,  455,  457,  459,  461,  463,  470,
                                                                   472,  474,  476,  478,  480,  487,  489,  491,  493,  495,
                                                                   497,  504,  506,  508,  510,  512,  514,  521,  523,  525,
                                                                   527,  529,  531,  538,  540,  542,  544,  546,  548,  555,
                                                                   557,  559,  561,  563,  565,  572,  574,  576,  578,  580,
                                                                   582,  589,  591,  593,  595,  597,  599,  606,  608,  610,
                                                                   612,  614,  616,  623,  625,  627,  629,  631,  633,  640,
                                                                   642,  644,  646,  648,  650,  657,  659,  661,  663,  665,
                                                                   667,  674,  676,  678,  680,  682,  684,  691,  693,  695,
                                                                   697,  699,  701,  708,  710,  712,  714,  716,  718,  725,
                                                                   727,  729,  731,  733,  735,  742,  744,  746,  748,  750,
                                                                   752,  759,  761,  763,  765,  767,  769,  776,  783,  785,
                                                                   792,  799,  801,  808,  810,  817,  819,  826,  828,  835,
                                                                   837,  844,  846,  853,  855,  862,  864,  871,  873,  880,
                                                                   882,  889,  891,  898,  905,  912,  919,  926,  933,  940,
                                                                   947,  954,  961,  968,  975,  982,  989,  996, 1003, 1010,
                                                                  1017, 1024, 1031, 1038, 1045, 1052, 1059, 1066, 1073, 1080,
                                                                  1087, 1094, 1101, 1108, 1115, 1122, 1129, 1136, 1143, 1150,
                                                                  1157, 1164, 1171, 1178, 1185, 1192, 1199, 1206, 1213, 1220,
                                                                  1236, 1240, 1244, 1248, 1252, 1256, 1260, 1264, 1268, 1272,
                                                                  1276, 1280, 1284, 1288, 1292, 1296, 1300, 1304, 1308, 1312,
                                                                  1316, 1320, 1324, 1328, 1332, 1336, 1340, 1344, 1348, 1352,
                                                                  1356, 1360, 1364, 1368, 1372, 1376, 1380, 1384, 1388, 1392,
                                                                  1396, 1400, 1404, 1408, 1412, 1416, 1420, 1424, 1428, 1432,
                                                                  1436, 1440, 1444, 1448, 1452, 1456, 1460, 1464, 1468, 1472,
                                                                  1476, 1480, 1484, 1488, 1492, 1496, 1500, 1504, 1508, 1512,
                                                                  1516, 1520, 1524, 1528, 1532, 1536, 1540, 1544, 1548, 1552,
                                                                  1556, 1560, 1564, 1568, 1572, 1576, 1580, 1584, 1588, 1592,
                                                                  1596, 1600, 1604, 1608, 1612, 1616, 1620, 1624, 1628, 1632,
                                                                  1636, 1640, 1644, 1648, 1652, 1656, 1660, 1664, 1668, 1672,
                                                                  1676, 1680, 1684, 1688, 1692, 1696, 1700, 1704, 1708, 1712,
                                                                  1716, 1720, 1724, 1728, 1732, 1736, 1740, 1744, 1748, 1752,
                                                                  1756, 1760, 1764, 1768, 1772, 1776, 1780, 1784, 1788, 1792,
                                                                  1796, 1800, 1804, 1808, 1812, 1816, 1820, 1824, 1828, 1832,
                                                                  1836, 1840, 1844, 1848, 1852, 1856, 1860, 1864, 1868, 1872,
                                                                  1876, 1880, 1884, 1888, 1892, 1896, 1900, 1904, 1908, 1912,
                                                                  1916, 1920, 1924, 1928, 1932, 1936, 1940, 1944, 1948, 1952,
                                                                  1956, 1960, 1964, 1968, 1972, 1976, 1980, 1984, 1988, 1992,
                                                                  1996, 2000, 2004, 2008, 2012, 2016, 2020, 2024, 2028, 2032,
                                                                  2036, 2040, 2044, 2048, 2052, 2056, 2060, 2064, 2068, 2072,
                                                                  2076, 2080, 2084, 2088, 2092, 2096, 2100, 2104, 2108, 2112,
                                                                  2116, 2120, 2124, 2128, 2132, 2136, 2140, 2144, 2148, 2152,
                                                                  2156, 2160, 2164, 2168, 2172, 2176, 2180, 2184, 2188, 2192,
                                                                  2196, 2200, 2204, 2208, 2212, 2216, 2220, 2224, 2228, 2232,
                                                                  2236, 2240, 2244, 2248, 2252, 2256, 2260, 2264, 2268, 2272,
                                                                  2276, 2280, 2284, 2288, 2292, 2296, 2300, 2304, 2308, 2312,
                                                                  2316, 2320, 2324, 2328, 2332, 2336, 2340, 2344, 2348, 2352,
                                                                  2356, 2360, 2364, 2368, 2372, 2376, 2380, 2384, 2388, 2392,
                                                                  2396, 2400, 2404, 2408, 2412, 2416, 2420, 2424, 2428, 2432,
                                                                  2436, 2440, 2444, 2448, 2452, 2456, 2460, 2464, 2468, 2472,
                                                                  2476, 2480, 2484, 2488, 2492, 2496, 2500, 2504, 2508, 2512,
                                                                  2516, 2520, 2524, 2528, 2532, 2536, 2540, 2544, 2548, 2552,
                                                                  2556, 2560, 2564, 2568, 2572, 2576, 2580, 2584, 2588, 2592,
                                                                  2596, 2600, 2604, 2608, 2612, 2616, 2620, 2624, 2628, 2632,
                                                                  2636, 2640, 2644, 2648, 2652, 2656, 2660, 2664, 2668, 2672,
                                                                  2676, 2680, 2684, 2688, 2692, 2696, 2700, 2704, 2708, 2712,
                                                                  2716, 2720, 2724, 2728, 2732, 2736, 2740, 2744, 2748, 2752,
                                                                  2756, 2760, 2764, 2768, 2772, 2776, 2780, 2784, 2788, 2792,
                                                                  2796, 2800, 2804, 2808, 2812, 2816, 2820, 2824, 2828, 2832,
                                                                  2836, 2840, 2844, 2848, 2852, 2856, 2860, 2864, 2868, 2872,
                                                                  2876, 2880, 2884, 2888, 2892, 2896, 2900, 2904, 2908, 2912,
                                                                  2916, 2920, 2924, 2928, 2932, 2936, 2940, 2944, 2948, 2952,
                                                                  2956, 2960, 2964, 2968, 2972, 2976, 2980, 2984, 2988, 2992,
                                                                  2996,
                                         apl_operator_bead_bits:    24.
        1000    op_bead_table            apl_operator_table_:      156,  186,  193,  200,  207,  214,  221,  230,  239,  246,
                                                                   253,  260,  267,  274,  281,  290,  299,  308,  317,  326,
                                                                   335,  344,  353,  360,  367,  374,  381,  388,  395,  402,
                                                                   409,  418,  435,  452,  469,  486,  503,  520,  537,  554,
                                                                   571,  588,  605,  622,  639,  656,  673,  690,  707,  724,
                                                                   741,  758,  775,  782,  791,  798,  807,  816,  825,  834,
                                                                   843,  852,  861,  870,  879,  888,  897,  904,  911,  918,
                                                                   925,  932,  939,  946,  953,  960,  967,  974,  981,  988,
                                                                   995, 1002, 1009, 1016, 1023, 1030, 1037, 1044, 1051, 1058,
                                                                  1065, 1072, 1079, 1086, 1093, 1100, 1107, 1114, 1121, 1128,
                                                                  1135, 1142, 1149, 1156, 1163, 1170, 1177, 1184, 1191, 1198,
                                                                  1205, 1212, 1219, 3005.
           0    op_index                 apl_operator_table_:      147,  183,  190,  197,  204,  211,  218,  227,  236,  243,
                                                                   250,  257,  264,  271,  278,  287,  296,  305,  314,  323,
                                                                   332,  341,  350,  357,  364,  371,  378,  385,  392,  399,
                                                                   406,  415,  432,  449,  466,  483,  500,  517,  534,  551,
                                                                   568,  585,  602,  619,  636,  653,  670,  687,  704,  721,
                                                                   738,  755,  772,  779,  788,  795,  804,  813,  822,  831,
                                                                   840,  849,  858,  867,  876,  885,  894,  901,  908,  915,
                                                                   922,  929,  936,  943,  950,  957,  964,  971,  978,  985,
                                                                   992,  999, 1006, 1013, 1020, 1027, 1034, 1041, 1048, 1055,
                                                                  1062, 1069, 1076, 1083, 1090, 1097, 1104, 1111, 1118, 1125,
                                                                  1132, 1139, 1146, 1153, 1160, 1167, 1174, 1181, 1188, 1195,
                                                                  1202, 1209, 1216, 3004.
           0    op_index_0               apl_operator_table_:      151.
         203    OrSign                   apl_operator_table_:      620,
                                         apl_character_codes:      108.
          56    Period                   apl_character_codes:       24.
          53    Plus                     apl_operator_table_:      416,
                                         apl_character_codes:       21.
         216    Quad                     apl_operator_table_:      279,
                                         apl_character_codes:      119.
      200000    quad                     apl_operator_table_:      282,  291,
                                         apl_operator_bead_bits:    18.
         350    QuadAF                   apl_operator_table_:     1042,
                                         apl_lex_pseudo_chars:      48.
         321    QuadAI                   apl_operator_table_:      351,
                                         apl_lex_pseudo_chars:      25.
         377    QuadCALL                 apl_operator_table_:     1210,
                                         apl_lex_pseudo_chars:      71.
         400    QuadCALLSemicolon        apl_operator_table_:     1217,
                                         apl_lex_pseudo_chars:      72.
         334    QuadCR                   apl_operator_table_:      951,
                                         apl_lex_pseudo_chars:      36.
         330    QuadCS                   apl_operator_table_:      400,
                                         apl_lex_pseudo_chars:      32.
         313    QuadCT                   apl_operator_table_:      297,
                                         apl_lex_pseudo_chars:      19.
         341    QuadDL                   apl_operator_table_:      986,
                                         apl_lex_pseudo_chars:      41.
         347    QuadEC                   apl_operator_table_:     1035,
                                         apl_lex_pseudo_chars:      47.
         336    QuadEX                   apl_operator_table_:      965,
                                         apl_lex_pseudo_chars:      38.
         352    QuadFADDACL              apl_operator_table_:     1056,
                                         apl_lex_pseudo_chars:      50.
         353    QuadFAPPEND              apl_operator_table_:     1063,
                                         apl_lex_pseudo_chars:      51.
         354    QuadFCREATE              apl_operator_table_:     1070,
                                         apl_lex_pseudo_chars:      52.
         355    QuadFDELETEACL           apl_operator_table_:     1077,
                                         apl_lex_pseudo_chars:      53.
         356    QuadFDROP                apl_operator_table_:     1084,
                                         apl_lex_pseudo_chars:      54.
         357    QuadFERASE               apl_operator_table_:     1091,
                                         apl_lex_pseudo_chars:      55.
         360    QuadFHOLD                apl_operator_table_:     1098,
                                         apl_lex_pseudo_chars:      56.
         361    QuadFLIB                 apl_operator_table_:     1105,
                                         apl_lex_pseudo_chars:      57.
         362    QuadFLIM                 apl_operator_table_:     1112,
                                         apl_lex_pseudo_chars:      58.
         363    QuadFLISTACL             apl_operator_table_:     1119,
                                         apl_lex_pseudo_chars:      59.
         364    QuadFNAMES               apl_operator_table_:     1126,
                                         apl_lex_pseudo_chars:      60.
         365    QuadFNUMS                apl_operator_table_:     1133,
                                         apl_lex_pseudo_chars:      61.
         366    QuadFRDCI                apl_operator_table_:     1140,
                                         apl_lex_pseudo_chars:      62.
         367    QuadFREAD                apl_operator_table_:     1147,
                                         apl_lex_pseudo_chars:      63.
         370    QuadFRENAME              apl_operator_table_:     1154,
                                         apl_lex_pseudo_chars:      64.
         371    QuadFREPLACE             apl_operator_table_:     1161,
                                         apl_lex_pseudo_chars:      65.
         372    QuadFSETACL              apl_operator_table_:     1168,
                                         apl_lex_pseudo_chars:      66.
         373    QuadFSIZE                apl_operator_table_:     1175,
                                         apl_lex_pseudo_chars:      67.
         374    QuadFSTIE                apl_operator_table_:     1182,
                                         apl_lex_pseudo_chars:      68.
         375    QuadFTIE                 apl_operator_table_:     1189,
                                         apl_lex_pseudo_chars:      69.
         376    QuadFUNTIE               apl_operator_table_:     1196,
                                         apl_lex_pseudo_chars:      70.
         335    QuadFX                   apl_operator_table_:      958,
                                         apl_lex_pseudo_chars:      37.
         314    QuadIO                   apl_operator_table_:      306,
                                         apl_lex_pseudo_chars:      20.
         346    QuadIT                   apl_operator_table_:      407,
                                         apl_lex_pseudo_chars:      46.
         322    QuadLC                   apl_operator_table_:      358,
                                         apl_lex_pseudo_chars:      26.
         315    QuadLX                   apl_operator_table_:      315,
                                         apl_lex_pseudo_chars:      21.
         340    QuadNC                   apl_operator_table_:      979,
                                         apl_lex_pseudo_chars:      40.
         337    QuadNL                   apl_operator_table_:      972,
                                         apl_lex_pseudo_chars:      39.
         316    QuadPP                   apl_operator_table_:      324,
                                         apl_lex_pseudo_chars:      22.
         317    QuadPW                   apl_operator_table_:      333,
                                         apl_lex_pseudo_chars:      23.
         241    QuadQuote                apl_operator_table_:      288,
                                         apl_character_codes:      138.
         320    QuadRL                   apl_operator_table_:      342,
                                         apl_lex_pseudo_chars:      24.
         343    QuadSVC                  apl_operator_table_:     1000,
                                         apl_lex_pseudo_chars:      43.
         342    QuadSVO                  apl_operator_table_:      993,
                                         apl_lex_pseudo_chars:      42.
         344    QuadSVQ                  apl_operator_table_:     1007,
                                         apl_lex_pseudo_chars:      44.
         345    QuadSVR                  apl_operator_table_:     1028,
                                         apl_lex_pseudo_chars:      45.
         323    QuadTS                   apl_operator_table_:      365,
                                         apl_lex_pseudo_chars:      27.
         324    QuadTT                   apl_operator_table_:      372,
                                         apl_lex_pseudo_chars:      28.
         325    QuadUL                   apl_operator_table_:      379,
                                         apl_lex_pseudo_chars:      29.
         326    QuadWA                   apl_operator_table_:      386,
                                         apl_lex_pseudo_chars:      30.
         327    QuadWU                   apl_operator_table_:      393,
                                         apl_lex_pseudo_chars:      31.
          77    Question                 apl_operator_table_:      944,
                                         apl_character_codes:       41.
         250    Rho                      apl_operator_table_:      773,
                                         apl_character_codes:      145.
         256    RightArrow               apl_operator_table_:     1014,
                                         apl_character_codes:      151.
         175    RightBrace               apl_character_codes:      100.
         135    RightBracket             apl_operator_table_:      205,
                                         apl_character_codes:       70.
         223    RightLump                apl_character_codes:      124.
         333    RightOprBracket          apl_operator_table_:      212,
                                         apl_lex_pseudo_chars:      35.
          51    RightParen               apl_operator_table_:      198,
                                         apl_character_codes:       19.
         277    RightTack                apl_character_codes:      168.
         311    SDelta                   apl_operator_table_:      219,
                                         apl_lex_pseudo_chars:      17.
        4000    semantics_valid_bit      apl_operator_table_:      222,  224,  231,  233,
                                         apl_operator_bead_bits:    17.
          73    SemiColon                apl_operator_table_:      244,
                                         apl_character_codes:       37.
         351    SemiColonCons            apl_operator_table_:     1049,
                                         apl_lex_pseudo_chars:      49.
          67    Seven                    apl_character_codes:       33.
         267    Seven_                   apl_character_codes:      160.
          66    Six                      apl_character_codes:       32.
         266    Six_                     apl_character_codes:      159.
          57    Slash                    apl_operator_table_:      832,
                                         apl_character_codes:       25.
         230    SlashHyphen              apl_operator_table_:      859,
                                         apl_character_codes:      129.
         215    SmallCircle              apl_character_codes:      118.
          40    Space                    apl_character_codes:       14.
       40000    special_assignment       apl_operator_table_:      222,  231,  282,  291,  300,  309,  318,  327,  336,  345,
                                                                   410,
                                         apl_operator_bead_bits:    12.
          52    Star                     apl_operator_table_:      518,
                                         apl_character_codes:       20.
      400000    stop_trace_control       apl_operator_table_:      222,  224,  231,  233,
                                         apl_operator_bead_bits:    16.
      100000    system_variable          apl_operator_table_:      282,  291,  300,  309,  318,  327,  336,  345,  354,  361,
                                                                   368,  375,  382,  389,  396,  403,  410, 1129, 1136,
                                         apl_operator_bead_bits:    19.
          11    Tab                      apl_character_codes:       12.
         312    TDelta                   apl_operator_table_:      228,
                                         apl_lex_pseudo_chars:      18.
          63    Three                    apl_character_codes:       29.
         263    Three_                   apl_character_codes:      156.
         176    Tilde                    apl_operator_table_:      937,
                                         apl_character_codes:      101.
         251    Times                    apl_operator_table_:      450,
                                         apl_character_codes:      146.
          62    Two                      apl_character_codes:       28.
         262    Two_                     apl_character_codes:      155.
         137    UnderLine                apl_character_codes:       71.
         207    UpArrow                  apl_operator_table_:      796,
                                         apl_character_codes:      112.
         253    UpperMinus               apl_character_codes:      148.
         174    VerticalBar              apl_operator_table_:      552,
                                         apl_character_codes:       99.
           1    z                        apl_operator_table_:     1232, 1235, 1239, 1243, 1247, 1251, 1255, 1259, 1263, 1267,
                                                                  1271, 1275, 1279, 1283, 1287, 1291, 1295, 1299, 1303, 1307,
                                                                  1311, 1315, 1319, 1323, 1327, 1331, 1335, 1339, 1343, 1347,
                                                                  1351, 1355, 1359, 1363, 1367, 1371, 1375, 1379, 1383, 1387,
                                                                  1391, 1395, 1399, 1403, 1407, 1411, 1415, 1419, 1423, 1427,
                                                                  1431, 1435, 1439, 1443, 1447, 1451, 1455, 1459, 1463, 1467,
                                                                  1471, 1475, 1479, 1483, 1487, 1491, 1495, 1499, 1503, 1507,
                                                                  1511, 1515, 1519, 1523, 1527, 1531, 1535, 1539, 1543, 1547,
                                                                  1551, 1555, 1559, 1563, 1567, 1571, 1575, 1579, 1583, 1587,
                                                                  1591, 1595, 1599, 1603, 1607, 1611, 1615, 1619, 1623, 1627,
                                                                  1631, 1635, 1639, 1643, 1647, 1651, 1655, 1659, 1663, 1667,
                                                                  1671, 1675, 1679, 1683, 1687, 1691, 1695, 1699, 1703, 1707,
                                                                  1711, 1715, 1719, 1723, 1727, 1731, 1735, 1739, 1743, 1747,
                                                                  1751, 1755, 1759, 1763, 1767, 1771, 1775, 1779, 1783, 1787,
                                                                  1791, 1795, 1799, 1803, 1807, 1811, 1815, 1819, 1823, 1827,
                                                                  1831, 1835, 1839, 1843, 1847, 1851, 1855, 1859, 1863, 1867,
                                                                  1871, 1875, 1879, 1883, 1887, 1891, 1895, 1899, 1903, 1907,
                                                                  1911, 1915, 1919, 1923, 1927, 1931, 1935, 1939, 1943, 1947,
                                                                  1951, 1955, 1959, 1963, 1967, 1971, 1975, 1979, 1983, 1987,
                                                                  1991, 1995, 1999, 2003, 2007, 2011, 2015, 2019, 2023, 2027,
                                                                  2031, 2035, 2039, 2043, 2047, 2051, 2055, 2059, 2063, 2067,
                                                                  2071, 2075, 2079, 2083, 2087, 2091, 2095, 2099, 2103, 2107,
                                                                  2111, 2115, 2119, 2123, 2127, 2131, 2135, 2139, 2143, 2147,
                                                                  2151, 2155, 2159, 2163, 2167, 2171, 2175, 2179, 2183, 2187,
                                                                  2191, 2195, 2199, 2203, 2207, 2211, 2215, 2219, 2223, 2227,
                                                                  2231, 2235, 2239, 2243, 2247, 2251, 2255, 2259, 2263, 2267,
                                                                  2271, 2275, 2279, 2283, 2287, 2291, 2295, 2299, 2303, 2307,
                                                                  2311, 2315, 2319, 2323, 2327, 2331, 2335, 2339, 2343, 2347,
                                                                  2351, 2355, 2359, 2363, 2367, 2371, 2375, 2379, 2383, 2387,
                                                                  2391, 2395, 2399, 2403, 2407, 2411, 2415, 2419, 2423, 2427,
                                                                  2431, 2435, 2439, 2443, 2447, 2451, 2455, 2459, 2463, 2467,
                                                                  2471, 2475, 2479, 2483, 2487, 2491, 2495, 2499, 2503, 2507,
                                                                  2511, 2515, 2519, 2523, 2527, 2531, 2535, 2539, 2543, 2547,
                                                                  2551, 2555, 2559, 2563, 2567, 2571, 2575, 2579, 2583, 2587,
                                                                  2591, 2595, 2599, 2603, 2607, 2611, 2615, 2619, 2623, 2627,
                                                                  2631, 2635, 2639, 2643, 2647, 2651, 2655, 2659, 2663, 2667,
                                                                  2671, 2675, 2679, 2683, 2687, 2691, 2695, 2699, 2703, 2707,
                                                                  2711, 2715, 2719, 2723, 2727, 2731, 2735, 2739, 2743, 2747,
                                                                  2751, 2755, 2759, 2763, 2767, 2771, 2775, 2779, 2783, 2787,
                                                                  2791, 2795, 2799, 2803, 2807, 2811, 2815, 2819, 2823, 2827,
                                                                  2831, 2835, 2839, 2843, 2847, 2851, 2855, 2859, 2863, 2867,
                                                                  2871, 2875, 2879, 2883, 2887, 2891, 2895, 2899, 2903, 2907,
                                                                  2911, 2915, 2919, 2923, 2927, 2931, 2935, 2939, 2943, 2947,
                                                                  2951, 2955, 2959, 2963, 2967, 2971, 2975, 2979, 2983, 2987,
                                                                  2991, 2995.
          60    Zero                     apl_character_codes:       26.
         260    Zero_                    apl_character_codes:      153.


NO FATAL ERRORS


                                          -----------------------------------------------------------


Historical Background

This edition of the Multics software materials and documentation is provided and donated
to Massachusetts Institute of Technology by Group BULL including BULL HN Information Systems Inc.
as a contribution to computer science knowledge.
This donation is made also to give evidence of the common contributions of Massachusetts Institute of Technology,
Bell Laboratories, General Electric, Honeywell Information Systems Inc., Honeywell BULL Inc., Groupe BULL
and BULL HN Information Systems Inc. to the development of this operating system.
Multics development was initiated by Massachusetts Institute of Technology Project MAC (1963-1970),
renamed the MIT Laboratory for Computer Science and Artificial Intelligence in the mid 1970s, under the leadership
of Professor Fernando Jose Corbato. Users consider that Multics provided the best software architecture
for managing computer hardware properly and for executing programs. Many subsequent operating systems
incorporated Multics principles.
Multics was distributed in 1975 to 2000 by Group Bull in Europe , and in the U.S. by Bull HN Information Systems Inc.,
as successor in interest by change in name only to Honeywell Bull Inc. and Honeywell Information Systems Inc. .

                                          -----------------------------------------------------------

Permission to use, copy, modify, and distribute these programs and their documentation for any purpose and without
fee is hereby granted,provided that the below copyright notice and historical background appear in all copies
and that both the copyright notice and historical background and this permission notice appear in supporting
documentation, and that the names of MIT, HIS, BULL or BULL HN not be used in advertising or publicity pertaining
to distribution of the programs without specific prior written permission.
    Copyright 1972 by Massachusetts Institute of Technology and Honeywell Information Systems Inc.
    Copyright 2006 by BULL HN Information Systems Inc.
    Copyright 2006 by Bull SAS
    All Rights Reserved
