ASSEMBLY LISTING OF SEGMENT >special_ldd>on>apl.1129>apl_dim_.alm
ASSEMBLED ON:	11/29/83  1613.5 mst Tue
OPTIONS USED:	list
ASSEMBLED BY:	ALM Version  6.6  November 1982
ASSEMBLER CREATED:	09/21/83  1227.3 mst Wed

                                     1  "  ******************************************************
                                     2  "  *                                                    *
                                     3  "  *                                                    *
                                     4  "  * Copyright (c) 1972 by Massachusetts Institute of   *
                                     5  "  * Technology and Honeywell Information Systems, Inc. *
                                     6  "  *                                                    *
                                     7  "  *                                                    *
                                     8  "  ******************************************************
                                     9
                                    10  " This is the outer module transfer vector for the apl_dim_ module.
                                    11  " Modified 790614 by PG to flush setsize and getsize entries.
                        000000      12  	entry	apl_dim_module
    000000                          13  apl_dim_module:
    000000  0a   000001 7100 16     14  	tra 	*+1,6
    000001  4a  4 00010 7101 20     15  	tra 	apl_dim_util_$apl_dim_attach
    000002  4a  4 00012 7101 20     16  	tra	apl_dim_util_$apl_dim_detach
    000003  4a  4 00014 7101 20     17  	tra	apl_dim_read_$apl_dim_read_
    000004  4a  4 00016 7101 20     18  	tra	apl_dim_write_$apl_dim_write_
    000005  4a  4 00020 7101 20     19  	tra	apl_dim_util_$apl_dim_abort
    000006  4a  4 00022 7101 20     20  	tra	apl_dim_util_$apl_dim_order
    000007  4a  4 00024 7101 20     21  	tra	apl_dim_util_$apl_dim_resetread
    000010  4a  4 00026 7101 20     22  	tra	apl_dim_util_$apl_dim_resetwrite
    000011  4a  4 00030 7101 20     23  	tra	ios_$no_entry		" setsize
    000012  4a  4 00030 7101 20     24  	tra	ios_$no_entry		" getsize
    000013  4a  4 00030 7101 20     25  	tra	ios_$no_entry		" setdelim
    000014  4a  4 00030 7101 20     26  	tra	ios_$no_entry		" getdelim
    000015  4a  4 00030 7101 20     27  	tra	ios_$no_entry
    000016  4a  4 00030 7101 20     28  	tra	ios_$no_entry
    000017  4a  4 00032 7101 20     29  	tra	apl_dim_util_$apl_dim_changemode
    000020  4a  4 00030 7101 20     30  	tra	ios_$no_entry
    000021  4a  4 00030 7101 20     31  	tra	ios_$no_entry
    000022  4a  4 00030 7101 20     32  	tra	ios_$no_entry
    000023  4a  4 00030 7101 20     33  	tra	ios_$no_entry
    000024  4a  4 00030 7101 20     34  	tra	ios_$no_entry
    000025  4a  4 00030 7101 20     35  	tra	ios_$no_entry
                                    36
                                    37  	end
ENTRY SEQUENCES

    000026  5a   000011 0000 00
    000027  aa  7 00046 2721 20
    000030  0a   000000 7100 00

NO LITERALS

NAME DEFINITIONS FOR ENTRY POINTS AND SEGDEFS

    000032  5a   000003 000000
    000033  5a   000027 600000
    000034  aa   000000 000000
    000035  55   000011 000002
    000036  5a   000002 400003
    000037  55   000006 000011
    000040  aa  010 141 160 154
    000041  aa  137 144 151 155
    000042  aa  137 000 000 000
    000043  55   000020 000003
    000044  0a   000027 500000
    000045  55   000014 000003
    000046  aa  016 141 160 154         apl_dim_module
    000047  aa  137 144 151 155
    000050  aa  137 155 157 144
    000051  aa  165 154 145 000
    000052  55   000002 000011
    000053  6a   000000 400002
    000054  55   000023 000003
    000055  aa  014 163 171 155         symbol_table
    000056  aa  142 157 154 137
    000057  aa  164 141 142 154
    000060  aa  145 000 000 000

DEFINITIONS HASH TABLE

    000061  aa   000000 000015
    000062  aa   000000 000000
    000063  aa   000000 000000
    000064  aa   000000 000000
    000065  aa   000000 000000
    000066  aa   000000 000000
    000067  aa   000000 000000
    000070  5a   000020 000000
    000071  5a   000011 000000
    000072  aa   000000 000000
    000073  aa   000000 000000
    000074  aa   000000 000000
    000075  aa   000000 000000
    000076  aa   000000 000000

EXTERNAL NAMES

    000077  aa  022 141 160 154         apl_dim_changemode
    000100  aa  137 144 151 155
    000101  aa  137 143 150 141
    000102  aa  156 147 145 155
    000103  aa  157 144 145 000
    000104  aa  010 156 157 137         no_entry
    000105  aa  145 156 164 162
    000106  aa  171 000 000 000
    000107  aa  004 151 157 163         ios_
    000110  aa  137 000 000 000
    000111  aa  022 141 160 154         apl_dim_resetwrite
    000112  aa  137 144 151 155
    000113  aa  137 162 145 163
    000114  aa  145 164 167 162
    000115  aa  151 164 145 000
    000116  aa  021 141 160 154         apl_dim_resetread
    000117  aa  137 144 151 155
    000120  aa  137 162 145 163
    000121  aa  145 164 162 145
    000122  aa  141 144 000 000
    000123  aa  015 141 160 154         apl_dim_order
    000124  aa  137 144 151 155
    000125  aa  137 157 162 144
    000126  aa  145 162 000 000
    000127  aa  015 141 160 154         apl_dim_abort
    000130  aa  137 144 151 155
    000131  aa  137 141 142 157
    000132  aa  162 164 000 000
    000133  aa  016 141 160 154         apl_dim_write_
    000134  aa  137 144 151 155
    000135  aa  137 167 162 151
    000136  aa  164 145 137 000
    000137  aa  015 141 160 154         apl_dim_read_
    000140  aa  137 144 151 155
    000141  aa  137 162 145 141
    000142  aa  144 137 000 000
    000143  aa  016 141 160 154         apl_dim_detach
    000144  aa  137 144 151 155
    000145  aa  137 144 145 164
    000146  aa  141 143 150 000
    000147  aa  016 141 160 154         apl_dim_attach
    000150  aa  137 144 151 155
    000151  aa  137 141 164 164
    000152  aa  141 143 150 000
    000153  aa  015 141 160 154         apl_dim_util_
    000154  aa  137 144 151 155
    000155  aa  137 165 164 151
    000156  aa  154 137 000 000

NO TRAP POINTER WORDS

TYPE PAIR BLOCKS

    000157  aa   000004 000000
    000160  55   000121 000045
    000161  aa   000004 000000
    000162  55   000055 000052
    000163  aa   000004 000000
    000164  55   000121 000057
    000165  aa   000004 000000
    000166  55   000121 000064
    000167  aa   000004 000000
    000170  55   000121 000071
    000171  aa   000004 000000
    000172  55   000121 000075
    000173  aa   000004 000000
    000174  55   000101 000101
    000175  aa   000004 000000
    000176  55   000105 000105
    000177  aa   000004 000000
    000200  55   000121 000111
    000201  aa   000004 000000
    000202  55   000121 000115
    000203  aa   000001 000000
    000204  aa   000000 000000

INTERNAL EXPRESSION WORDS

    000205  5a   000125 000000
    000206  5a   000127 000000
    000207  5a   000131 000000
    000210  5a   000133 000000
    000211  5a   000135 000000
    000212  5a   000137 000000
    000213  5a   000141 000000
    000214  5a   000143 000000
    000215  5a   000145 000000
    000216  5a   000147 000000
    000217  aa   000000 000000
LINKAGE INFORMATION

    000000  aa   000000 000000
    000001  0a   000032 000000
    000002  aa   000000 000000
    000003  aa   000000 000000
    000004  aa   000000 000000
    000005  aa   000000 000000
    000006  22   000010 000034
    000007  a2   000000 000000
    000010  9a   777770 0000 46         apl_dim_util_|apl_dim_attach
    000011  5a   000164 0000 00
    000012  9a   777766 0000 46         apl_dim_util_|apl_dim_detach
    000013  5a   000163 0000 00
    000014  9a   777764 0000 46         apl_dim_read_|apl_dim_read_
    000015  5a   000162 0000 00
    000016  9a   777762 0000 46         apl_dim_write_|apl_dim_write_
    000017  5a   000161 0000 00
    000020  9a   777760 0000 46         apl_dim_util_|apl_dim_abort
    000021  5a   000160 0000 00
    000022  9a   777756 0000 46         apl_dim_util_|apl_dim_order
    000023  5a   000157 0000 00
    000024  9a   777754 0000 46         apl_dim_util_|apl_dim_resetread
    000025  5a   000156 0000 00
    000026  9a   777752 0000 46         apl_dim_util_|apl_dim_resetwrite
    000027  5a   000155 0000 00
    000030  9a   777750 0000 46         ios_|no_entry
    000031  5a   000154 0000 00
    000032  9a   777746 0000 46         apl_dim_util_|apl_dim_changemode
    000033  5a   000153 0000 00
SYMBOL INFORMATION

SYMBOL TABLE HEADER

    000000  aa   000000 000001
    000001  aa   163171 155142
    000002  aa   164162 145145
    000003  aa   000000 000004
    000004  aa   000000 112143
    000005  aa   305203 523135
    000006  aa   000000 112272
    000007  aa   253613 742176
    000010  aa   141154 155040
    000011  aa   040040 040040
    000012  aa   000024 000040
    000013  aa   000034 000040
    000014  aa   000044 000100
    000015  aa   000002 000002
    000016  aa   000064 000000
    000017  aa   000000 000130
    000020  aa   000000 000104
    000021  aa   000000 000113
    000022  aa   000122 000104
    000023  aa   000064 000000
    000024  aa   101114 115040
    000025  aa   126145 162163
    000026  aa   151157 156040
    000027  aa   040066 056066
    000030  aa   040040 116157
    000031  aa   166145 155142
    000032  aa   145162 040061
    000033  aa   071070 062040
    000034  aa   115141 162164
    000035  aa   151156 163157
    000036  aa   156056 123171
    000037  aa   163115 141151
    000040  aa   156164 056155
    000041  aa   040040 040040
    000042  aa   040040 040040
    000043  aa   040040 040040
    000044  aa   154151 163164
    000045  aa   040040 040040
    000046  aa   040040 040040
    000047  aa   040040 040040
    000050  aa   040040 040040
    000051  aa   040040 040040
    000052  aa   040040 040040
    000053  aa   040040 040040
    000054  aa   040040 040040
    000055  aa   040040 040040
    000056  aa   040040 040040
    000057  aa   040040 040040
    000060  aa   040040 040040
    000061  aa   040040 040040
    000062  aa   040040 040040
    000063  aa   040040 040040
    000064  aa   000000 000001
    000065  aa   000000 000001
    000066  aa   000072 000045
    000067  aa   122721 262500
    000070  aa   000000 112272
    000071  aa   151734 200000
    000072  aa   076163 160145          >special_ldd>on>apl.1129>apl_dim_.alm
    000073  aa   143151 141154
    000074  aa   137154 144144
    000075  aa   076157 156076
    000076  aa   141160 154056
    000077  aa   061061 062071
    000100  aa   076141 160154
    000101  aa   137144 151155
    000102  aa   137056 141154
    000103  aa   155040 040040
               MULTICS ASSEMBLY CROSS REFERENCE LISTING

   Value        Symbol                   Source file   Line number

                apl_dim_abort            apl_dim_:      19.
                apl_dim_attach           apl_dim_:      15.
                apl_dim_changemode       apl_dim_:      29.
                apl_dim_detach           apl_dim_:      16.
           0    apl_dim_module           apl_dim_:      12,   13.
                apl_dim_order            apl_dim_:      20.
                apl_dim_read_            apl_dim_:      17.
                apl_dim_resetread        apl_dim_:      21.
                apl_dim_resetwrite       apl_dim_:      22.
                apl_dim_util_            apl_dim_:      15,   16,   19,   20,   21,   22,   29.
                apl_dim_write_           apl_dim_:      18.
                ios_                     apl_dim_:      23,   24,   25,   26,   27,   28,   30,   31,   32,   33,   34,   35.
                no_entry                 apl_dim_:      23,   24,   25,   26,   27,   28,   30,   31,   32,   33,   34,   35.


NO FATAL ERRORS


                                          -----------------------------------------------------------


Historical Background

This edition of the Multics software materials and documentation is provided and donated
to Massachusetts Institute of Technology by Group BULL including BULL HN Information Systems Inc.
as a contribution to computer science knowledge.
This donation is made also to give evidence of the common contributions of Massachusetts Institute of Technology,
Bell Laboratories, General Electric, Honeywell Information Systems Inc., Honeywell BULL Inc., Groupe BULL
and BULL HN Information Systems Inc. to the development of this operating system.
Multics development was initiated by Massachusetts Institute of Technology Project MAC (1963-1970),
renamed the MIT Laboratory for Computer Science and Artificial Intelligence in the mid 1970s, under the leadership
of Professor Fernando Jose Corbato. Users consider that Multics provided the best software architecture
for managing computer hardware properly and for executing programs. Many subsequent operating systems
incorporated Multics principles.
Multics was distributed in 1975 to 2000 by Group Bull in Europe , and in the U.S. by Bull HN Information Systems Inc.,
as successor in interest by change in name only to Honeywell Bull Inc. and Honeywell Information Systems Inc. .

                                          -----------------------------------------------------------

Permission to use, copy, modify, and distribute these programs and their documentation for any purpose and without
fee is hereby granted,provided that the below copyright notice and historical background appear in all copies
and that both the copyright notice and historical background and this permission notice appear in supporting
documentation, and that the names of MIT, HIS, BULL or BULL HN not be used in advertising or publicity pertaining
to distribution of the programs without specific prior written permission.
    Copyright 1972 by Massachusetts Institute of Technology and Honeywell Information Systems Inc.
    Copyright 2006 by BULL HN Information Systems Inc.
    Copyright 2006 by Bull SAS
    All Rights Reserved
