	COMPILATION LISTING OF SEGMENT apl_display_symtab
	Compiled by: Experimental PL/I Compiler of Friday, July 31, 1981 at 13:16
	Compiled at: Honeywell LISD Phoenix, System M
	Compiled on: 08/08/81  1948.3 mst Sat
	    Options: optimize map

        1 /* ******************************************************
        2*   *                                                    *
        3*   *                                                    *
        4*   * Copyright (c) 1972 by Massachusetts Institute of   *
        5*   * Technology and Honeywell Information Systems, Inc. *
        6*   *                                                    *
        7*   *                                                    *
        8*   ****************************************************** */
        9
       10 /* Modified 790328 by PG to let ioa_ line up the pointers, now that ^10p works. */
       11 /* Modified 790705 by PG to fix bug in ioa_ format */
       12
       13 apl_display_symtab:
       14 adst:
       15      procedure;
       16
       17 /* automatic */
       18
       19 dcl	arg_len		fixed bin (21);
       20 dcl	arg_ptr		ptr;
       21 dcl	brief		bit (1) aligned;
       22 dcl	code		fixed bin (35);
       23 dcl	flag		char (1);
       24 dcl	meaning_ptr	ptr unal;
       25 dcl	meaning_reference_count
       26 			fixed bin (29);
       27 dcl	symbol_bead_ptr	ptr unaligned;
       28 dcl	(bucket_index, index_within_bucket)
       29 			fixed bin;
       30
       31 /* based */
       32
       33 dcl	arg_string	char (arg_len) based (arg_ptr);
       34
       35 /* builtins */
       36
       37 dcl	(binary, fixed, hbound, lbound, max, null)
       38 			builtin;
       39
       40 /* entries */
       41
       42 dcl	cu_$arg_ptr	entry (fixed bin, ptr, fixed bin (21), fixed bin (35));
       43 dcl	ioa_		entry options (variable);
       44 
       45 /* program */
       46
       47 	brief = "0"b;
       48
       49 	call cu_$arg_ptr (1, arg_ptr, arg_len, code);
       50 	if code = 0
       51 	then if arg_string = "-bf" | arg_string = "-brief"
       52 	     then brief = "1"b;
       53
       54 	call ioa_ ("symbol table at ^p, ^d symbols", ws_info.symbol_table_ptr, ws_info.number_of_symbols);
       55 	call ioa_ ("bucket^2xloc^xref ct^xsize^2xmeaning^2xref ct^2xname");
       56 	do bucket_index = lbound (symbol_table.hash_bucket_ptr, 1) to hbound (symbol_table.hash_bucket_ptr, 1);
       57 	     index_within_bucket = 1;
       58 	     do symbol_bead_ptr = symbol_table.hash_bucket_ptr (bucket_index)
       59 		repeat symbol_bead_ptr -> symbol_bead.hash_link_pointer while (symbol_bead_ptr ^= null);
       60
       61 		flag = " ";
       62 		meaning_ptr = symbol_bead_ptr -> symbol_bead.meaning_pointer;
       63
       64 		if meaning_ptr ^= null
       65 		then do;
       66 			meaning_reference_count = meaning_ptr -> general_bead.reference_count;
       67
       68 			if meaning_reference_count < 1
       69 			then flag = "*";
       70 		     end;
       71 		else meaning_reference_count = 0;
       72
       73 		if ^brief | flag = "*"
       74 		then call ioa_ ("^2d.^d ^10p ^2d ^4o  ^[^10p  ^3d^;^2s^15x^]^1a ^a", bucket_index, index_within_bucket,
       75 			symbol_bead_ptr, symbol_bead_ptr -> symbol_bead.reference_count,
       76 			fixed (symbol_bead_ptr -> symbol_bead.size, 18), (meaning_ptr ^= null), meaning_ptr,
       77 			meaning_reference_count, flag, symbol_bead_ptr -> symbol_bead.name);
       78
       79 		index_within_bucket = index_within_bucket + 1;
       80 	     end;
       81 	end;
       82 	return;
       83 
       84 /* include files */
       85
  1     1 /* ====== BEGIN INCLUDE SEGMENT	apl_number_data.incl.pl1 ================================== */
  1     2
  1     3 /*
  1     4*   This include file contains information about the machine representation of numbers.
  1     5*   In all programs numbers should simply be declared 'float'.
  1     6*   All default statements should be in this include file.
  1     7*
  1     8*   This is the binary version.  The manifest constant Binary should be used by programs
  1     9*   that need to know whether we are using binary or decimal.
  1    10* */
  1    11
  1    12 /* format: style3,initlm0,idind30 */
  1    13
  1    14 default (float & ^decimal & ^binary & ^precision & ^constant) float binary (63);
  1    15
  1    16 declare	(
  1    17 	TheBiggestNumberWeveGot	float initial (0.1701411834604692317e+39),
  1    18 	TheSmallestNumberWeveGot	float initial (.1469367938527859385e-38),
  1    19 	Binary			bit (1) aligned initial ("1"b)
  1    20 	)			internal static options (constant);
  1    21
  1    22 /* Number of characters in a number datum entry; used for copying float number arrays as strings.
  1    23*   (Obsolete! use array copies!) */
  1    24
  1    25 declare	NumberSize		fixed binary precision (4) internal static initial (8);
  1    26
  1    27 /* ------ END INCLUDE SEGMENT		apl_number_data.incl.pl1 ---------------------------------- */
       86
  2     1 /* ====== BEGIN INCLUDE SEGMENT	apl_bead_format.incl.pl1 ================================== */
  2     2
  2     3 declare 1 general_bead  		aligned based,	/* The Venerable Bead		*/
  2     4 	2 type 			unaligned,
  2     5 	  3 bead_type		unaligned,
  2     6 	    4 operator		bit (1),		/* ON if operator bead		*/
  2     7 	    4 symbol		bit (1),		/* ON if symbol bead		*/
  2     8 	    4 value		bit (1),		/* ON if value bead			*/
  2     9 	    4 function		bit (1),		/* ON if function bead		*/
  2    10 	    4 group		bit (1),		/* ON if group bead			*/
  2    11 	    4 label		bit (1),		/* ON if label bead			*/
  2    12 	    4 shared_variable	bit (1),		/* ON if shared variable bead 	*/
  2    13 	    4 lexed_function	bit (1),		/* ON if lexed function bead  	*/
  2    14 	  3 data_type		unaligned,
  2    15 	    4 list_value		bit (1),		/* ON if a list value bead		*/
  2    16 	    4 character_value	bit (1),		/* ON if a character value bead	*/
  2    17 	    4 numeric_value		bit (1),		/* ON if a numeric value bead		*/
  2    18 	    4 integral_value	bit (1),		/* ON if an integral value bead	*/
  2    19 	    4 zero_or_one_value	bit (1),		/* ON if a boolean value bead		*/
  2    20 	    4 complex_value		bit (1),		/* ON if a complex, numeric value bead   */
  2    21 	  3 unused_bits		bit (4) unaligned,	/* pad to 18 bits (for future use)	*/
  2    22 	2 size			bit (18) unaligned,	/* Number of words this bead occupies
  2    23*						   (used by bead storage manager)	*/
  2    24 	2 reference_count 		fixed binary (29);	/* Number of pointers which point
  2    25*						   to this bead (used by bead manager)	*/
  2    26
  2    27
  2    28 /* constant strings for initing type field in various beads */
  2    29
  2    30 declare (
  2    31 	operator_type		init("100000000000000000"b),
  2    32 	symbol_type		init("010000000000000000"b),
  2    33     	value_type		init("001000000000000000"b),
  2    34 	function_type		init("000100000000000000"b),
  2    35 	group_type		init("000010000000000000"b),
  2    36 	label_type		init("001001000011000000"b),
  2    37 	shared_variable_type	init("001000100000000000"b),
  2    38 	lexed_function_type		init("000000010000000000"b),
  2    39
  2    40 	list_value_type		init("000000001000000000"b),
  2    41 	character_value_type 	init("001000000100000000"b),
  2    42 	numeric_value_type		init("001000000010000000"b),
  2    43 	integral_value_type		init("001000000011000000"b),
  2    44 	zero_or_one_value_type	init("001000000011100000"b),
  2    45 	complex_value_type		init("001000000000010000"b),
  2    46
  2    47 	not_integer_mask		init("111111111110011111"b),		/* to clear integral, zero_or_one bits */
  2    48 	not_zero_or_one_mask	init("111111111111011111"b)		/* to clear zero_or_one bit */
  2    49         ) bit(18) internal static;
  2    50
  2    51 /* ------ END INCLUDE SEGMENT		apl_bead_format.incl.pl1 ---------------------------------- */
       87
  3     1 /* ====== BEGIN INCLUDE SEGMENT	apl_ws_info.incl.pl1 ====================================== */
  3     2
  3     3 /* This structure contains all of the global data (or pointers to it) for the APL subsystem */
  3     4
  3     5 /* automatic */
  3     6
  3     7 declare	ws_info_ptr ptr initial (apl_static_$ws_info_ptr.static_ws_info_ptr);
  3     8
  3     9 /* external static */
  3    10
  3    11 declare	1 apl_static_$ws_info_ptr	external static aligned structure,
  3    12 	  2 static_ws_info_ptr	unaligned pointer;
  3    13
  3    14 /* based */
  3    15
  3    16 declare	1 ws_info			aligned based (ws_info_ptr),
  3    17 	  2 version_number		fixed bin,	/* version of this structure (3) */
  3    18 	  2 switches		unaligned,	/* mainly ws parameters */
  3    19 	    3 long_error_mode	bit,		/* if 1, long Multics format, else APL/360 format */
  3    20 	    3 debug_mode		bit,		/* if 1, system error causes escape to command level */
  3    21 	    3 canonicalize_mode	bit,		/* if 1, the editor canonicalizes user input */
  3    22 	    3 restrict_exec_command	bit,		/* if 1, the )EXEC command may not be used */
  3    23 	    3 restrict_debug_command	bit,		/* if 1, the )DEBUG command may not be used */
  3    24 	    3 restrict_external_functions
  3    25 				bit,		/* if 1, the )ZFN, )MFN, and )DFN commands may not be used */
  3    26 	    3 restrict_load		bit,		/* if 1, the )LOAD and )COPY commands may not be used */
  3    27 	    3 restrict_load_directory	bit,		/* if 1, no directory allowed in )LOAD or )COPY pathnames */
  3    28 	    3 restrict_save		bit,		/* if 1, the )SAVE command may not be used */
  3    29 	    3 restrict_save_directory	bit,		/* if 1, no directory allowed in )SAVE pathnames */
  3    30 	    3 off_hold		bit,		/* if 1, )OFF HOLD was typed, else just )OFF */
  3    31 	    3 transparent_to_signals	bit,		/* if 1, any conditions slip right past APL */
  3    32 	    3 meter_mode		bit,		/* if 1, metering may be done, else speed is all-important */
  3    33 	    3 restrict_msg_command	bit,		/* if 1, the )MSG command may not be used. */
  3    34 	    3 compatibility_check_mode
  3    35 				bit,		/* if 1, check for incompatible operators */
  3    36 	    3 no_quit_handler	bit,		/* if 1, do not trap QUITs. */
  3    37 						/* remaining 20 bits not presently used */
  3    38
  3    39 	  2 values,				/* attributes of the workspace */
  3    40 	    3 digits		fixed bin,	/* number of digits of precision printed on output */
  3    41 	    3 width		fixed bin,	/* line length for formatted output */
  3    42 	    3 index_origin		fixed bin,	/* the index origin (0 or 1) */
  3    43 	    3 random_link		fixed bin(35),	/* seed for random number generator */
  3    44 	    3 fuzz		float,		/* comparison tolerance (relative fuzz) */
  3    45 	    3 float_index_origin	float,		/* the index origin	in floating point */
  3    46 	    3 number_of_symbols	fixed bin,	/* the number of symbol_beads currently in existence */
  3    47 	    3 maximum_value_stack_size
  3    48 				fixed bin (18),	/* maximum number of words in one segment of value stack */
  3    49
  3    50 	  2 pointers,				/* pointers to various internal tables */
  3    51 	    3 symbol_table_ptr	unaligned pointer,	/* -> symbol_table (apl_symbol_table.incl.pl1) */
  3    52 	    3 current_parse_frame_ptr	unaligned pointer,	/* -> topmost parse frame */
  3    53 	    3 value_stack_ptr	unaligned pointer,	/* -> next free location on value stack */
  3    54 	    3 alloc_free_info_ptr	unaligned pointer,	/* -> apl_storage_mngr_ data (apl_storage_system_data.incl.pl1) */
  3    55
  3    56 	  2 time_invoked		fixed bin(71),	/* clock time that APL was entered */
  3    57 	  2 integer_fuzz		float,		/* the absolute fuzz used in checking for integers */
  3    58 	  2 user_number		fixed bin(35),	/* number under which the user is signed on */
  3    59 	  2 latent_expression	unaligned pointer,	/* -> value_bead for QuadLX */
  3    60 	  2 lock			char(32),		/* the lock currently set on this workspace (password) */
  3    61 	  2 wsid			char(100),	/* the workspace identification: name, number name, or clear ws */
  3    62 	  2 last_error_code		fixed bin(35),	/* last code passed to apl_error_ */
  3    63 	  2 signoff_lock		character (32),
  3    64
  3    65 	  2 interrupt_info		aligned,		/* bits used by apl_interpreter_ to tell when to abort */
  3    66 	    3 dont_interrupt_parse	bit,		/* if 1, don't do a dirty stop because the parser is running */
  3    67 	    3 dont_interrupt_operator	bit,		/* if 1, don't do a dirty stop because an operator is running */
  3    68 	    3 dont_interrupt_storage_manager		/* if 1, don't stop because apl_storage_mngr_ is */
  3    69 				bit,		/*       munging his tables */
  3    70 	    3 unused_interrupt_bit	bit,		/* not presently used */
  3    71 	    3 dont_interrupt_command	bit,
  3    72 	    3 can_be_interrupted	bit,		/* if 1, OK to do a clean stop (we are between lines, reading) */
  3    73 	    3 clean_interrupt_pending	bit,		/* interrupt occured, break cleanly (between lines) */
  3    74 	    3 dirty_interrupt_pending	bit,		/* interrupt occured, break as soon as not inhibited */
  3    75
  3    76 	  2 user_name		char (32),	/* process group id of user */
  3    77 	  2 immediate_input_prompt	char (32) varying,	/* normal input */
  3    78 	  2 evaluated_input_prompt	char (32) varying,	/* quad input */
  3    79 	  2 character_input_prompt	char (32) varying,	/* quad-quote input */
  3    80 	  2 vcpu_time		aligned,
  3    81 	    3 total		fixed bin (71),
  3    82 	    3 setup		fixed bin (71),
  3    83 	    3 parse		fixed bin (71),
  3    84 	    3 lex			fixed bin (71),
  3    85 	    3 operator		fixed bin (71),
  3    86 	    3 storage_manager	fixed bin (71),
  3    87 	  2 output_info		aligned,		/* data pertaining to output buffer */
  3    88 	    3 output_buffer_ptr	unal ptr,		/* ptr to output buffer */
  3    89 	    3 output_buffer_len	fixed bin (21),	/* length (bytes) of output buffer */
  3    90 	    3 output_buffer_pos	fixed bin (21),	/* index of next byte to write in */
  3    91 	    3 output_buffer_ll	fixed bin (21),	/* print positions used up so far */
  3    92 	  2 tab_width		fixed bin (21);	/* number of columns a tabs moves cursor */
  3    93
  3    94 declare	output_buffer char (ws_info.output_buffer_len) based (ws_info.output_buffer_ptr);
  3    95
  3    96 /* internal static */
  3    97
  3    98 declare	max_parse_stack_depth fixed bin int static init(64536);
  3    99
  3   100 /* ------ END INCLUDE SEGMENT		apl_ws_info.incl.pl1 -------------------------------------- */
       88
  4     1 /* ====== BEGIN INCLUDE SEGMENT	apl_symbol_bead.incl.pl1 ================================== */
  4     2
  4     3 /* Explanation of fields:
  4     4*   symbol_bead.hash_link_pointer	points to next symbol in same hash bucket in the symbol table.
  4     5*   symbol_bead.meaning_pointer	points to current "value" of this name:
  4     6*				   =  null	  => unused (e.g. undefined variable)
  4     7*				   -> group bead      => group name
  4     8*				   -> value bead      => variable with a value
  4     9*				   -> function bead   => function name
  4    10*				   -> label bead      => localized label value
  4    11*				   -> shared var bead => shared variable	*/
  4    12
  4    13 declare 1 symbol_bead 		aligned based,
  4    14 	2 header	 		aligned like general_bead,
  4    15 	2 hash_link_pointer		pointer unaligned,
  4    16 	2 meaning_pointer		pointer unaligned,
  4    17 	2 name_length 		fixed binary,
  4    18 	2 name			character (0 refer (symbol_bead.name_length)) unaligned;
  4    19
  4    20 /* ------ END INCLUDE SEGMENT		apl_symbol_bead.incl.pl1 ---------------------------------- */
       89
  5     1 /* BEGIN INCLUDE FILE apl_symbol_table.incl.pl1
  5     2*
  5     3*   initially written 20 June 1973 by Dan Bricklin */
  5     4
  5     5 declare
  5     6 	initial_size fixed bin int static init(17),	/* initial size of hash table */
  5     7
  5     8 	1 symbol_table aligned based(ws_info.symbol_table_ptr),
  5     9 	   2 table_size fixed bin,			/* how many buckets */
  5    10 	   2 hash_bucket_ptr(initial_size refer(table_size)) ptr unaligned; /* the buckets */
  5    11
  5    12 /* END INCLUDE FILE apl_symbol_table.incl.pl1 */
       90
       91      end /* apl_display_symtab */;
	SOURCE FILES USED IN THIS COMPILATION.

LINE      NUMBER  DATE MODIFIED     NAME			PATHNAME
             0    08/08/81  1558.8  apl_display_symtab.pl1            >dumps>old_dumps>on>MIB-073181>apl_display_symtab.pl1
86           1    08/08/81  1935.2  apl_number_data.incl.pl1          >dumps>old_dumps>on>MIB-073181>apl_number_data.incl.pl1
87           2    08/08/81  1934.9  apl_bead_format.incl.pl1          >dumps>old_dumps>on>MIB-073181>apl_bead_format.incl.pl1
88           3    08/08/81  1935.4  apl_ws_info.incl.pl1              >dumps>old_dumps>on>MIB-073181>apl_ws_info.incl.pl1
89           4    08/08/81  1935.4  apl_symbol_bead.incl.pl1          >dumps>old_dumps>on>MIB-073181>apl_symbol_bead.incl.pl1
90           5    08/08/81  1935.4  apl_symbol_table.incl.pl1         >dumps>old_dumps>on>MIB-073181>apl_symbol_table.incl.pl1
	NAMES DECLARED IN THIS COMPILATION.

IDENTIFIER	     OFFSET    LOC STORAGE CLASS   DATA TYPE		ATTRIBUTES AND REFERENCES
								(* indicates a set context)

NAMES DECLARED BY DECLARE STATEMENT.
apl_static_$ws_info_ptr         000014 external static structure                level 1 dcl 3-11
arg_len                         000100 automatic       fixed bin(21,0)          dcl 19 set ref 49* 50 50
arg_ptr                         000102 automatic       pointer                  dcl 20 set ref 49* 50 50
arg_string                             based           char                     unaligned dcl 33 ref 50 50
brief                           000104 automatic       bit(1)                   dcl 21 set ref 47* 50* 73
bucket_index                    000112 automatic       fixed bin(17,0)          dcl 28 set ref 56* 58 73*
code                            000105 automatic       fixed bin(35,0)          dcl 22 set ref 49* 50
cu_$arg_ptr                     000010 constant        entry                    external dcl 42 ref 49
fixed                                                  builtin function         dcl 37 ref 73 73
flag                            000106 automatic       char(1)                  unaligned dcl 23 set ref 61* 68* 73 73*
general_bead                           based           structure                level 1 dcl 2-3
hash_bucket_ptr           1            based           pointer                  array level 2 packed unaligned dcl 5-5 ref 56 56 58
hash_link_pointer         2            based           pointer                  level 2 packed unaligned dcl 4-13 ref 80
hbound                                                 builtin function         dcl 37 ref 56
header                                 based           structure                level 2 dcl 4-13
index_within_bucket             000113 automatic       fixed bin(17,0)          dcl 28 set ref 57* 73* 79* 79
ioa_                            000012 constant        entry                    external dcl 43 ref 54 55 73
lbound                                                 builtin function         dcl 37 ref 56
meaning_pointer           3            based           pointer                  level 2 packed unaligned dcl 4-13 ref 62
meaning_ptr                     000107 automatic       pointer                  unaligned dcl 24 set ref 62* 64 66 73 73*
meaning_reference_count         000110 automatic       fixed bin(29,0)          dcl 25 set ref 66* 68 71* 73*
name                      5            based           char                     level 2 packed unaligned dcl 4-13 set ref 73*
name_length               4            based           fixed bin(17,0)          level 2 dcl 4-13 ref 73 73
null                                                   builtin function         dcl 37 ref 58 64 73
number_of_symbols        12            based           fixed bin(17,0)          level 3 dcl 3-16 set ref 54*
pointers                 14            based           structure                level 2 dcl 3-16
reference_count           1            based           fixed bin(29,0)          level 3 in structure "symbol_bead" dcl 4-13
                                                                                  in procedure "adst" set ref 73*
reference_count           1            based           fixed bin(29,0)          level 2 in structure "general_bead" dcl 2-3
                                                                                  in procedure "adst" ref 66
size                      0(18)        based           bit(18)                  level 3 packed unaligned dcl 4-13 ref 73 73
static_ws_info_ptr              000014 external static pointer                  level 2 packed unaligned dcl 3-11 ref 3-7
symbol_bead                            based           structure                level 1 dcl 4-13
symbol_bead_ptr                 000111 automatic       pointer                  unaligned dcl 27 set ref 58* 58* 62 73* 73 73 73 73*
                                                                                  80
symbol_table                           based           structure                level 1 dcl 5-5
symbol_table_ptr         14            based           pointer                  level 3 packed unaligned dcl 3-16 set ref 54* 56 56
                                                                                  58
table_size                             based           fixed bin(17,0)          level 2 dcl 5-5 ref 56
values                    2            based           structure                level 2 dcl 3-16
ws_info                                based           structure                level 1 dcl 3-16
ws_info_ptr                     000114 automatic       pointer                  initial dcl 3-7 set ref 54 54 56 56 58 3-7*

NAMES DECLARED BY DECLARE STATEMENT AND NEVER REFERENCED.
Binary                                 internal static bit(1)                   initial dcl 1-16
NumberSize                             internal static fixed bin(4,0)           initial dcl 1-25
TheBiggestNumberWeveGot                internal static float bin(63)            initial dcl 1-16
TheSmallestNumberWeveGot               internal static float bin(63)            initial dcl 1-16
binary                                                 builtin function         dcl 37
character_value_type                   internal static bit(18)                  initial unaligned dcl 2-30
complex_value_type                     internal static bit(18)                  initial unaligned dcl 2-30
function_type                          internal static bit(18)                  initial unaligned dcl 2-30
group_type                             internal static bit(18)                  initial unaligned dcl 2-30
initial_size                           internal static fixed bin(17,0)          initial dcl 5-5
integral_value_type                    internal static bit(18)                  initial unaligned dcl 2-30
label_type                             internal static bit(18)                  initial unaligned dcl 2-30
lexed_function_type                    internal static bit(18)                  initial unaligned dcl 2-30
list_value_type                        internal static bit(18)                  initial unaligned dcl 2-30
max                                                    builtin function         dcl 37
max_parse_stack_depth                  internal static fixed bin(17,0)          initial dcl 3-98
not_integer_mask                       internal static bit(18)                  initial unaligned dcl 2-30
not_zero_or_one_mask                   internal static bit(18)                  initial unaligned dcl 2-30
numeric_value_type                     internal static bit(18)                  initial unaligned dcl 2-30
operator_type                          internal static bit(18)                  initial unaligned dcl 2-30
output_buffer                          based           char                     unaligned dcl 3-94
shared_variable_type                   internal static bit(18)                  initial unaligned dcl 2-30
symbol_type                            internal static bit(18)                  initial unaligned dcl 2-30
value_type                             internal static bit(18)                  initial unaligned dcl 2-30
zero_or_one_value_type                 internal static bit(18)                  initial unaligned dcl 2-30

NAMES DECLARED BY EXPLICIT CONTEXT.
adst                            000071 constant        entry                    external dcl 13
apl_display_symtab              000101 constant        entry                    external dcl 13

THERE WERE NO NAMES DECLARED BY CONTEXT OR IMPLICATION.

STORAGE REQUIREMENTS FOR THIS PROGRAM.

	Object	Text	Link	Symbol	Defs	Static
Start          0       0       444         462     364         454
Length       772     364        16         274      57           0

BLOCK NAME	         STACK SIZE     TYPE		WHY NONQUICK/WHO SHARES STACK FRAME
adst                                156 external procedure  is an external procedure.

STORAGE FOR AUTOMATIC VARIABLES.

STACK FRAME                 LOC IDENTIFIER                  BLOCK NAME
adst                     000100 arg_len                     adst
                         000102 arg_ptr                     adst
                         000104 brief                       adst
                         000105 code                        adst
                         000106 flag                        adst
                         000107 meaning_ptr                 adst
                         000110 meaning_reference_count     adst
                         000111 symbol_bead_ptr             adst
                         000112 bucket_index                adst
                         000113 index_within_bucket         adst
                         000114 ws_info_ptr                 adst

THE FOLLOWING EXTERNAL OPERATORS ARE USED BY THIS PROGRAM.
r_ne_as             call_ext_out_desc   call_ext_out        return              ext_entry

THE FOLLOWING EXTERNAL ENTRIES ARE CALLED BY THIS PROGRAM.
cu_$arg_ptr                   ioa_

THE FOLLOWING EXTERNAL VARIABLES ARE USED BY THIS PROGRAM.
apl_static_$ws_info_ptr


   LINE    LOC      LINE    LOC      LINE    LOC      LINE    LOC      LINE    LOC      LINE    LOC      LINE    LOC
 3    7 000063        13 000070        47 000107        49 000110        50 000127        54 000145        55 000172
     56 000206        57 000217        58 000221        61 000231        62 000233        64 000236        66 000241
     68 000244        70 000250        71 000251        73 000252        79 000353        80 000354        81 000360
     82 000362


                                          -----------------------------------------------------------


Historical Background

This edition of the Multics software materials and documentation is provided and donated
to Massachusetts Institute of Technology by Group BULL including BULL HN Information Systems Inc.
as a contribution to computer science knowledge.
This donation is made also to give evidence of the common contributions of Massachusetts Institute of Technology,
Bell Laboratories, General Electric, Honeywell Information Systems Inc., Honeywell BULL Inc., Groupe BULL
and BULL HN Information Systems Inc. to the development of this operating system.
Multics development was initiated by Massachusetts Institute of Technology Project MAC (1963-1970),
renamed the MIT Laboratory for Computer Science and Artificial Intelligence in the mid 1970s, under the leadership
of Professor Fernando Jose Corbato. Users consider that Multics provided the best software architecture
for managing computer hardware properly and for executing programs. Many subsequent operating systems
incorporated Multics principles.
Multics was distributed in 1975 to 2000 by Group Bull in Europe , and in the U.S. by Bull HN Information Systems Inc.,
as successor in interest by change in name only to Honeywell Bull Inc. and Honeywell Information Systems Inc. .

                                          -----------------------------------------------------------

Permission to use, copy, modify, and distribute these programs and their documentation for any purpose and without
fee is hereby granted,provided that the below copyright notice and historical background appear in all copies
and that both the copyright notice and historical background and this permission notice appear in supporting
documentation, and that the names of MIT, HIS, BULL or BULL HN not be used in advertising or publicity pertaining
to distribution of the programs without specific prior written permission.
    Copyright 1972 by Massachusetts Institute of Technology and Honeywell Information Systems Inc.
    Copyright 2006 by BULL HN Information Systems Inc.
    Copyright 2006 by Bull SAS
    All Rights Reserved
